{
	"contracts/demo1.sol": {
		"Demo": {
			"abi": [
				{
					"inputs": [
						{
							"internalType": "uint256",
							"name": "_len",
							"type": "uint256"
						},
						{
							"internalType": "uint256",
							"name": "_menPtr",
							"type": "uint256"
						}
					],
					"stateMutability": "nonpayable",
					"type": "constructor"
				},
				{
					"inputs": [],
					"name": "getDataDE",
					"outputs": [
						{
							"internalType": "bool",
							"name": "",
							"type": "bool"
						}
					],
					"stateMutability": "view",
					"type": "function"
				},
				{
					"inputs": [],
					"name": "getDataEN",
					"outputs": [
						{
							"internalType": "bytes",
							"name": "",
							"type": "bytes"
						}
					],
					"stateMutability": "view",
					"type": "function"
				},
				{
					"inputs": [],
					"name": "rlpItem",
					"outputs": [
						{
							"internalType": "uint256",
							"name": "len",
							"type": "uint256"
						},
						{
							"internalType": "uint256",
							"name": "memPtr",
							"type": "uint256"
						}
					],
					"stateMutability": "view",
					"type": "function"
				}
			],
			"devdoc": {
				"author": "pouladzade@gmail.com",
				"details": "The SizeOf return the size of the solidity types in byte",
				"kind": "dev",
				"methods": {},
				"title": "SizeOf Copyright (c) 2016-2020 zpouladzade/Seriality",
				"version": 1
			},
			"evm": {
				"assembly": "    /* \"contracts/demo1.sol\":211:1562  contract Demo {\r... */\n  mstore(0x40, 0x80)\n    /* \"contracts/demo1.sol\":727:835  constructor(uint _len, uint _menPtr){\r... */\n  callvalue\n  dup1\n  iszero\n  tag_1\n  jumpi\n  0x00\n  dup1\n  revert\ntag_1:\n  pop\n  mload(0x40)\n  sub(codesize, bytecodeSize)\n  dup1\n  bytecodeSize\n  dup4\n  codecopy\n  dup2\n  dup2\n  add\n  0x40\n  mstore\n  dup2\n  add\n  swap1\n  tag_2\n  swap2\n  swap1\n  tag_3\n  jump\t// in\ntag_2:\n    /* \"contracts/demo1.sol\":788:792  _len */\n  dup2\n    /* \"contracts/demo1.sol\":774:781  rlpItem */\n  0x00\n    /* \"contracts/demo1.sol\":774:785  rlpItem.len */\n  dup1\n  add\n    /* \"contracts/demo1.sol\":774:792  rlpItem.len = _len */\n  dup2\n  swap1\n  sstore\n  pop\n    /* \"contracts/demo1.sol\":820:827  _menPtr */\n  dup1\n    /* \"contracts/demo1.sol\":803:810  rlpItem */\n  0x00\n    /* \"contracts/demo1.sol\":803:817  rlpItem.memPtr */\n  0x01\n  add\n    /* \"contracts/demo1.sol\":803:827  rlpItem.memPtr = _menPtr */\n  dup2\n  swap1\n  sstore\n  pop\n    /* \"contracts/demo1.sol\":727:835  constructor(uint _len, uint _menPtr){\r... */\n  pop\n  pop\n    /* \"contracts/demo1.sol\":211:1562  contract Demo {\r... */\n  jump(tag_6)\n    /* \"#utility.yul\":7:150   */\ntag_8:\n    /* \"#utility.yul\":64:69   */\n  0x00\n    /* \"#utility.yul\":95:101   */\n  dup2\n    /* \"#utility.yul\":89:102   */\n  mload\n    /* \"#utility.yul\":80:102   */\n  swap1\n  pop\n    /* \"#utility.yul\":111:144   */\n  tag_10\n    /* \"#utility.yul\":138:143   */\n  dup2\n    /* \"#utility.yul\":111:144   */\n  tag_11\n  jump\t// in\ntag_10:\n    /* \"#utility.yul\":7:150   */\n  swap3\n  swap2\n  pop\n  pop\n  jump\t// out\n    /* \"#utility.yul\":156:663   */\ntag_3:\n    /* \"#utility.yul\":235:241   */\n  0x00\n    /* \"#utility.yul\":243:249   */\n  dup1\n    /* \"#utility.yul\":292:294   */\n  0x40\n    /* \"#utility.yul\":280:289   */\n  dup4\n    /* \"#utility.yul\":271:278   */\n  dup6\n    /* \"#utility.yul\":267:290   */\n  sub\n    /* \"#utility.yul\":263:295   */\n  slt\n    /* \"#utility.yul\":260:379   */\n  iszero\n  tag_13\n  jumpi\n    /* \"#utility.yul\":298:377   */\n  tag_14\n  tag_15\n  jump\t// in\ntag_14:\n    /* \"#utility.yul\":260:379   */\ntag_13:\n    /* \"#utility.yul\":418:419   */\n  0x00\n    /* \"#utility.yul\":443:507   */\n  tag_16\n    /* \"#utility.yul\":499:506   */\n  dup6\n    /* \"#utility.yul\":490:496   */\n  dup3\n    /* \"#utility.yul\":479:488   */\n  dup7\n    /* \"#utility.yul\":475:497   */\n  add\n    /* \"#utility.yul\":443:507   */\n  tag_8\n  jump\t// in\ntag_16:\n    /* \"#utility.yul\":433:507   */\n  swap3\n  pop\n    /* \"#utility.yul\":389:517   */\n  pop\n    /* \"#utility.yul\":556:558   */\n  0x20\n    /* \"#utility.yul\":582:646   */\n  tag_17\n    /* \"#utility.yul\":638:645   */\n  dup6\n    /* \"#utility.yul\":629:635   */\n  dup3\n    /* \"#utility.yul\":618:627   */\n  dup7\n    /* \"#utility.yul\":614:636   */\n  add\n    /* \"#utility.yul\":582:646   */\n  tag_8\n  jump\t// in\ntag_17:\n    /* \"#utility.yul\":572:646   */\n  swap2\n  pop\n    /* \"#utility.yul\":527:656   */\n  pop\n    /* \"#utility.yul\":156:663   */\n  swap3\n  pop\n  swap3\n  swap1\n  pop\n  jump\t// out\n    /* \"#utility.yul\":750:827   */\ntag_20:\n    /* \"#utility.yul\":787:794   */\n  0x00\n    /* \"#utility.yul\":816:821   */\n  dup2\n    /* \"#utility.yul\":805:821   */\n  swap1\n  pop\n    /* \"#utility.yul\":750:827   */\n  swap2\n  swap1\n  pop\n  jump\t// out\n    /* \"#utility.yul\":956:1073   */\ntag_15:\n    /* \"#utility.yul\":1065:1066   */\n  0x00\n    /* \"#utility.yul\":1062:1063   */\n  dup1\n    /* \"#utility.yul\":1055:1067   */\n  revert\n    /* \"#utility.yul\":1079:1201   */\ntag_11:\n    /* \"#utility.yul\":1152:1176   */\n  tag_26\n    /* \"#utility.yul\":1170:1175   */\n  dup2\n    /* \"#utility.yul\":1152:1176   */\n  tag_20\n  jump\t// in\ntag_26:\n    /* \"#utility.yul\":1145:1150   */\n  dup2\n    /* \"#utility.yul\":1142:1177   */\n  eq\n    /* \"#utility.yul\":1132:1195   */\n  tag_27\n  jumpi\n    /* \"#utility.yul\":1191:1192   */\n  0x00\n    /* \"#utility.yul\":1188:1189   */\n  dup1\n    /* \"#utility.yul\":1181:1193   */\n  revert\n    /* \"#utility.yul\":1132:1195   */\ntag_27:\n    /* \"#utility.yul\":1079:1201   */\n  pop\n  jump\t// out\n    /* \"contracts/demo1.sol\":211:1562  contract Demo {\r... */\ntag_6:\n  dataSize(sub_0)\n  dup1\n  dataOffset(sub_0)\n  0x00\n  codecopy\n  0x00\n  return\nstop\n\nsub_0: assembly {\n        /* \"contracts/demo1.sol\":211:1562  contract Demo {\r... */\n      mstore(0x40, 0x80)\n      callvalue\n      dup1\n      iszero\n      tag_1\n      jumpi\n      0x00\n      dup1\n      revert\n    tag_1:\n      pop\n      jumpi(tag_2, lt(calldatasize, 0x04))\n      shr(0xe0, calldataload(0x00))\n      dup1\n      0x46f594ea\n      eq\n      tag_3\n      jumpi\n      dup1\n      0xa699fb03\n      eq\n      tag_4\n      jumpi\n      dup1\n      0xbb0bd9d5\n      eq\n      tag_5\n      jumpi\n    tag_2:\n      0x00\n      dup1\n      revert\n        /* \"contracts/demo1.sol\":943:1042  function getDataEN() public view returns(bytes memory){\r... */\n    tag_3:\n      tag_6\n      tag_7\n      jump\t// in\n    tag_6:\n      mload(0x40)\n      tag_8\n      swap2\n      swap1\n      tag_9\n      jump\t// in\n    tag_8:\n      mload(0x40)\n      dup1\n      swap2\n      sub\n      swap1\n      return\n        /* \"contracts/demo1.sol\":696:718  RLPItem public rlpItem */\n    tag_4:\n      tag_10\n      tag_11\n      jump\t// in\n    tag_10:\n      mload(0x40)\n      tag_12\n      swap3\n      swap2\n      swap1\n      tag_13\n      jump\t// in\n    tag_12:\n      mload(0x40)\n      dup1\n      swap2\n      sub\n      swap1\n      return\n        /* \"contracts/demo1.sol\":843:935  function getDataDE() public view returns(bool){\r... */\n    tag_5:\n      tag_14\n      tag_15\n      jump\t// in\n    tag_14:\n      mload(0x40)\n      tag_16\n      swap2\n      swap1\n      tag_17\n      jump\t// in\n    tag_16:\n      mload(0x40)\n      dup1\n      swap2\n      sub\n      swap1\n      return\n        /* \"contracts/demo1.sol\":943:1042  function getDataEN() public view returns(bytes memory){\r... */\n    tag_7:\n        /* \"contracts/demo1.sol\":984:996  bytes memory */\n      0x60\n        /* \"contracts/demo1.sol\":1014:1031  encodeBool(false) */\n      tag_19\n        /* \"contracts/demo1.sol\":1025:1030  false */\n      0x00\n        /* \"contracts/demo1.sol\":1014:1024  encodeBool */\n      tag_20\n        /* \"contracts/demo1.sol\":1014:1031  encodeBool(false) */\n      jump\t// in\n    tag_19:\n        /* \"contracts/demo1.sol\":1007:1031  return encodeBool(false) */\n      swap1\n      pop\n        /* \"contracts/demo1.sol\":943:1042  function getDataEN() public view returns(bytes memory){\r... */\n      swap1\n      jump\t// out\n        /* \"contracts/demo1.sol\":696:718  RLPItem public rlpItem */\n    tag_11:\n      0x00\n      dup1\n      0x00\n      add\n      sload\n      swap1\n      dup1\n      0x01\n      add\n      sload\n      swap1\n      pop\n      dup3\n      jump\t// out\n        /* \"contracts/demo1.sol\":843:935  function getDataDE() public view returns(bool){\r... */\n    tag_15:\n        /* \"contracts/demo1.sol\":884:888  bool */\n      0x00\n        /* \"contracts/demo1.sol\":906:924  toBoolean(rlpItem) */\n      tag_22\n        /* \"contracts/demo1.sol\":916:923  rlpItem */\n      0x00\n        /* \"contracts/demo1.sol\":906:924  toBoolean(rlpItem) */\n      mload(0x40)\n      dup1\n      0x40\n      add\n      0x40\n      mstore\n      swap1\n      dup2\n      0x00\n      dup3\n      add\n      sload\n      dup2\n      mstore\n      0x20\n      add\n      0x01\n      dup3\n      add\n      sload\n      dup2\n      mstore\n      pop\n      pop\n        /* \"contracts/demo1.sol\":906:915  toBoolean */\n      tag_23\n        /* \"contracts/demo1.sol\":906:924  toBoolean(rlpItem) */\n      jump\t// in\n    tag_22:\n        /* \"contracts/demo1.sol\":899:924  return toBoolean(rlpItem) */\n      swap1\n      pop\n        /* \"contracts/demo1.sol\":843:935  function getDataDE() public view returns(bool){\r... */\n      swap1\n      jump\t// out\n        /* \"contracts/demo1.sol\":1351:1559  function encodeBool(bool self) internal pure returns (bytes memory) {\r... */\n    tag_20:\n        /* \"contracts/demo1.sol\":1405:1417  bytes memory */\n      0x60\n        /* \"contracts/demo1.sol\":1430:1445  bytes memory rs */\n      0x00\n        /* \"contracts/demo1.sol\":1458:1459  1 */\n      0x01\n        /* \"contracts/demo1.sol\":1448:1460  new bytes(1) */\n      0xffffffffffffffff\n      dup2\n      gt\n      iszero\n      tag_25\n      jumpi\n      tag_26\n      tag_27\n      jump\t// in\n    tag_26:\n    tag_25:\n      mload(0x40)\n      swap1\n      dup1\n      dup3\n      mstore\n      dup1\n      0x1f\n      add\n      not(0x1f)\n      and\n      0x20\n      add\n      dup3\n      add\n      0x40\n      mstore\n      dup1\n      iszero\n      tag_28\n      jumpi\n      dup2\n      0x20\n      add\n      0x01\n      dup3\n      mul\n      dup1\n      calldatasize\n      dup4\n      calldatacopy\n      dup1\n      dup3\n      add\n      swap2\n      pop\n      pop\n      swap1\n      pop\n    tag_28:\n      pop\n        /* \"contracts/demo1.sol\":1430:1460  bytes memory rs = new bytes(1) */\n      swap1\n      pop\n        /* \"contracts/demo1.sol\":1475:1479  self */\n      dup3\n        /* \"contracts/demo1.sol\":1471:1532  if (self) {\r... */\n      iszero\n      tag_29\n      jumpi\n        /* \"contracts/demo1.sol\":1517:1518  1 */\n      0x01\n        /* \"contracts/demo1.sol\":1504:1520  bytes1(uint8(1)) */\n      0xf8\n      shl\n        /* \"contracts/demo1.sol\":1496:1498  rs */\n      dup2\n        /* \"contracts/demo1.sol\":1499:1500  0 */\n      0x00\n        /* \"contracts/demo1.sol\":1496:1501  rs[0] */\n      dup2\n      mload\n      dup2\n      lt\n      tag_30\n      jumpi\n      tag_31\n      tag_32\n      jump\t// in\n    tag_31:\n    tag_30:\n      0x20\n      add\n      add\n        /* \"contracts/demo1.sol\":1496:1520  rs[0] = bytes1(uint8(1)) */\n      swap1\n      not(0xffffffffffffffffffffffffffffffffffffffffffffffffffffffffffffff)\n      and\n      swap1\n      dup2\n      0x00\n      byte\n      swap1\n      mstore8\n      pop\n        /* \"contracts/demo1.sol\":1471:1532  if (self) {\r... */\n    tag_29:\n        /* \"contracts/demo1.sol\":1549:1551  rs */\n      dup1\n        /* \"contracts/demo1.sol\":1542:1551  return rs */\n      swap2\n      pop\n      pop\n        /* \"contracts/demo1.sol\":1351:1559  function encodeBool(bool self) internal pure returns (bytes memory) {\r... */\n      swap2\n      swap1\n      pop\n      jump\t// out\n        /* \"contracts/demo1.sol\":1050:1341  function toBoolean(RLPItem memory item) internal pure returns (bool) {\r... */\n    tag_23:\n        /* \"contracts/demo1.sol\":1113:1117  bool */\n      0x00\n        /* \"contracts/demo1.sol\":1150:1151  1 */\n      0x01\n        /* \"contracts/demo1.sol\":1138:1142  item */\n      dup3\n        /* \"contracts/demo1.sol\":1138:1146  item.len */\n      0x00\n      add\n      mload\n        /* \"contracts/demo1.sol\":1138:1151  item.len == 1 */\n      eq\n        /* \"contracts/demo1.sol\":1130:1152  require(item.len == 1) */\n      tag_34\n      jumpi\n      0x00\n      dup1\n      revert\n    tag_34:\n        /* \"contracts/demo1.sol\":1163:1174  uint result */\n      0x00\n        /* \"contracts/demo1.sol\":1185:1196  uint memPtr */\n      dup1\n        /* \"contracts/demo1.sol\":1199:1203  item */\n      dup4\n        /* \"contracts/demo1.sol\":1199:1210  item.memPtr */\n      0x20\n      add\n      mload\n        /* \"contracts/demo1.sol\":1185:1210  uint memPtr = item.memPtr */\n      swap1\n      pop\n        /* \"contracts/demo1.sol\":1269:1275  memPtr */\n      dup1\n        /* \"contracts/demo1.sol\":1263:1276  mload(memPtr) */\n      mload\n        /* \"contracts/demo1.sol\":1260:1261  0 */\n      0x00\n        /* \"contracts/demo1.sol\":1255:1277  byte(0, mload(memPtr)) */\n      byte\n        /* \"contracts/demo1.sol\":1245:1277  result := byte(0, mload(memPtr)) */\n      swap2\n      pop\n        /* \"contracts/demo1.sol\":1317:1318  0 */\n      0x00\n        /* \"contracts/demo1.sol\":1307:1313  result */\n      dup3\n        /* \"contracts/demo1.sol\":1307:1318  result == 0 */\n      eq\n        /* \"contracts/demo1.sol\":1307:1333  result == 0 ? false : true */\n      tag_35\n      jumpi\n        /* \"contracts/demo1.sol\":1329:1333  true */\n      0x01\n        /* \"contracts/demo1.sol\":1307:1333  result == 0 ? false : true */\n      jump(tag_36)\n    tag_35:\n        /* \"contracts/demo1.sol\":1321:1326  false */\n      0x00\n        /* \"contracts/demo1.sol\":1307:1333  result == 0 ? false : true */\n    tag_36:\n        /* \"contracts/demo1.sol\":1300:1333  return result == 0 ? false : true */\n      swap3\n      pop\n      pop\n      pop\n        /* \"contracts/demo1.sol\":1050:1341  function toBoolean(RLPItem memory item) internal pure returns (bool) {\r... */\n      swap2\n      swap1\n      pop\n      jump\t// out\n        /* \"#utility.yul\":7:116   */\n    tag_38:\n        /* \"#utility.yul\":88:109   */\n      tag_40\n        /* \"#utility.yul\":103:108   */\n      dup2\n        /* \"#utility.yul\":88:109   */\n      tag_41\n      jump\t// in\n    tag_40:\n        /* \"#utility.yul\":83:86   */\n      dup3\n        /* \"#utility.yul\":76:110   */\n      mstore\n        /* \"#utility.yul\":7:116   */\n      pop\n      pop\n      jump\t// out\n        /* \"#utility.yul\":122:482   */\n    tag_42:\n        /* \"#utility.yul\":208:211   */\n      0x00\n        /* \"#utility.yul\":236:274   */\n      tag_44\n        /* \"#utility.yul\":268:273   */\n      dup3\n        /* \"#utility.yul\":236:274   */\n      tag_45\n      jump\t// in\n    tag_44:\n        /* \"#utility.yul\":290:360   */\n      tag_46\n        /* \"#utility.yul\":353:359   */\n      dup2\n        /* \"#utility.yul\":348:351   */\n      dup6\n        /* \"#utility.yul\":290:360   */\n      tag_47\n      jump\t// in\n    tag_46:\n        /* \"#utility.yul\":283:360   */\n      swap4\n      pop\n        /* \"#utility.yul\":369:421   */\n      tag_48\n        /* \"#utility.yul\":414:420   */\n      dup2\n        /* \"#utility.yul\":409:412   */\n      dup6\n        /* \"#utility.yul\":402:406   */\n      0x20\n        /* \"#utility.yul\":395:400   */\n      dup7\n        /* \"#utility.yul\":391:407   */\n      add\n        /* \"#utility.yul\":369:421   */\n      tag_49\n      jump\t// in\n    tag_48:\n        /* \"#utility.yul\":446:475   */\n      tag_50\n        /* \"#utility.yul\":468:474   */\n      dup2\n        /* \"#utility.yul\":446:475   */\n      tag_51\n      jump\t// in\n    tag_50:\n        /* \"#utility.yul\":441:444   */\n      dup5\n        /* \"#utility.yul\":437:476   */\n      add\n        /* \"#utility.yul\":430:476   */\n      swap2\n      pop\n        /* \"#utility.yul\":212:482   */\n      pop\n        /* \"#utility.yul\":122:482   */\n      swap3\n      swap2\n      pop\n      pop\n      jump\t// out\n        /* \"#utility.yul\":488:606   */\n    tag_52:\n        /* \"#utility.yul\":575:599   */\n      tag_54\n        /* \"#utility.yul\":593:598   */\n      dup2\n        /* \"#utility.yul\":575:599   */\n      tag_55\n      jump\t// in\n    tag_54:\n        /* \"#utility.yul\":570:573   */\n      dup3\n        /* \"#utility.yul\":563:600   */\n      mstore\n        /* \"#utility.yul\":488:606   */\n      pop\n      pop\n      jump\t// out\n        /* \"#utility.yul\":612:822   */\n    tag_17:\n        /* \"#utility.yul\":699:703   */\n      0x00\n        /* \"#utility.yul\":737:739   */\n      0x20\n        /* \"#utility.yul\":726:735   */\n      dup3\n        /* \"#utility.yul\":722:740   */\n      add\n        /* \"#utility.yul\":714:740   */\n      swap1\n      pop\n        /* \"#utility.yul\":750:815   */\n      tag_57\n        /* \"#utility.yul\":812:813   */\n      0x00\n        /* \"#utility.yul\":801:810   */\n      dup4\n        /* \"#utility.yul\":797:814   */\n      add\n        /* \"#utility.yul\":788:794   */\n      dup5\n        /* \"#utility.yul\":750:815   */\n      tag_38\n      jump\t// in\n    tag_57:\n        /* \"#utility.yul\":612:822   */\n      swap3\n      swap2\n      pop\n      pop\n      jump\t// out\n        /* \"#utility.yul\":828:1137   */\n    tag_9:\n        /* \"#utility.yul\":939:943   */\n      0x00\n        /* \"#utility.yul\":977:979   */\n      0x20\n        /* \"#utility.yul\":966:975   */\n      dup3\n        /* \"#utility.yul\":962:980   */\n      add\n        /* \"#utility.yul\":954:980   */\n      swap1\n      pop\n        /* \"#utility.yul\":1026:1035   */\n      dup2\n        /* \"#utility.yul\":1020:1024   */\n      dup2\n        /* \"#utility.yul\":1016:1036   */\n      sub\n        /* \"#utility.yul\":1012:1013   */\n      0x00\n        /* \"#utility.yul\":1001:1010   */\n      dup4\n        /* \"#utility.yul\":997:1014   */\n      add\n        /* \"#utility.yul\":990:1037   */\n      mstore\n        /* \"#utility.yul\":1054:1130   */\n      tag_59\n        /* \"#utility.yul\":1125:1129   */\n      dup2\n        /* \"#utility.yul\":1116:1122   */\n      dup5\n        /* \"#utility.yul\":1054:1130   */\n      tag_42\n      jump\t// in\n    tag_59:\n        /* \"#utility.yul\":1046:1130   */\n      swap1\n      pop\n        /* \"#utility.yul\":828:1137   */\n      swap3\n      swap2\n      pop\n      pop\n      jump\t// out\n        /* \"#utility.yul\":1143:1475   */\n    tag_13:\n        /* \"#utility.yul\":1264:1268   */\n      0x00\n        /* \"#utility.yul\":1302:1304   */\n      0x40\n        /* \"#utility.yul\":1291:1300   */\n      dup3\n        /* \"#utility.yul\":1287:1305   */\n      add\n        /* \"#utility.yul\":1279:1305   */\n      swap1\n      pop\n        /* \"#utility.yul\":1315:1386   */\n      tag_61\n        /* \"#utility.yul\":1383:1384   */\n      0x00\n        /* \"#utility.yul\":1372:1381   */\n      dup4\n        /* \"#utility.yul\":1368:1385   */\n      add\n        /* \"#utility.yul\":1359:1365   */\n      dup6\n        /* \"#utility.yul\":1315:1386   */\n      tag_52\n      jump\t// in\n    tag_61:\n        /* \"#utility.yul\":1396:1468   */\n      tag_62\n        /* \"#utility.yul\":1464:1466   */\n      0x20\n        /* \"#utility.yul\":1453:1462   */\n      dup4\n        /* \"#utility.yul\":1449:1467   */\n      add\n        /* \"#utility.yul\":1440:1446   */\n      dup5\n        /* \"#utility.yul\":1396:1468   */\n      tag_52\n      jump\t// in\n    tag_62:\n        /* \"#utility.yul\":1143:1475   */\n      swap4\n      swap3\n      pop\n      pop\n      pop\n      jump\t// out\n        /* \"#utility.yul\":1481:1579   */\n    tag_45:\n        /* \"#utility.yul\":1532:1538   */\n      0x00\n        /* \"#utility.yul\":1566:1571   */\n      dup2\n        /* \"#utility.yul\":1560:1572   */\n      mload\n        /* \"#utility.yul\":1550:1572   */\n      swap1\n      pop\n        /* \"#utility.yul\":1481:1579   */\n      swap2\n      swap1\n      pop\n      jump\t// out\n        /* \"#utility.yul\":1585:1753   */\n    tag_47:\n        /* \"#utility.yul\":1668:1679   */\n      0x00\n        /* \"#utility.yul\":1702:1708   */\n      dup3\n        /* \"#utility.yul\":1697:1700   */\n      dup3\n        /* \"#utility.yul\":1690:1709   */\n      mstore\n        /* \"#utility.yul\":1742:1746   */\n      0x20\n        /* \"#utility.yul\":1737:1740   */\n      dup3\n        /* \"#utility.yul\":1733:1747   */\n      add\n        /* \"#utility.yul\":1718:1747   */\n      swap1\n      pop\n        /* \"#utility.yul\":1585:1753   */\n      swap3\n      swap2\n      pop\n      pop\n      jump\t// out\n        /* \"#utility.yul\":1759:1849   */\n    tag_41:\n        /* \"#utility.yul\":1793:1800   */\n      0x00\n        /* \"#utility.yul\":1836:1841   */\n      dup2\n        /* \"#utility.yul\":1829:1842   */\n      iszero\n        /* \"#utility.yul\":1822:1843   */\n      iszero\n        /* \"#utility.yul\":1811:1843   */\n      swap1\n      pop\n        /* \"#utility.yul\":1759:1849   */\n      swap2\n      swap1\n      pop\n      jump\t// out\n        /* \"#utility.yul\":1855:1932   */\n    tag_55:\n        /* \"#utility.yul\":1892:1899   */\n      0x00\n        /* \"#utility.yul\":1921:1926   */\n      dup2\n        /* \"#utility.yul\":1910:1926   */\n      swap1\n      pop\n        /* \"#utility.yul\":1855:1932   */\n      swap2\n      swap1\n      pop\n      jump\t// out\n        /* \"#utility.yul\":1938:2245   */\n    tag_49:\n        /* \"#utility.yul\":2006:2007   */\n      0x00\n        /* \"#utility.yul\":2016:2129   */\n    tag_68:\n        /* \"#utility.yul\":2030:2036   */\n      dup4\n        /* \"#utility.yul\":2027:2028   */\n      dup2\n        /* \"#utility.yul\":2024:2037   */\n      lt\n        /* \"#utility.yul\":2016:2129   */\n      iszero\n      tag_70\n      jumpi\n        /* \"#utility.yul\":2115:2116   */\n      dup1\n        /* \"#utility.yul\":2110:2113   */\n      dup3\n        /* \"#utility.yul\":2106:2117   */\n      add\n        /* \"#utility.yul\":2100:2118   */\n      mload\n        /* \"#utility.yul\":2096:2097   */\n      dup2\n        /* \"#utility.yul\":2091:2094   */\n      dup5\n        /* \"#utility.yul\":2087:2098   */\n      add\n        /* \"#utility.yul\":2080:2119   */\n      mstore\n        /* \"#utility.yul\":2052:2054   */\n      0x20\n        /* \"#utility.yul\":2049:2050   */\n      dup2\n        /* \"#utility.yul\":2045:2055   */\n      add\n        /* \"#utility.yul\":2040:2055   */\n      swap1\n      pop\n        /* \"#utility.yul\":2016:2129   */\n      jump(tag_68)\n    tag_70:\n        /* \"#utility.yul\":2147:2153   */\n      dup4\n        /* \"#utility.yul\":2144:2145   */\n      dup2\n        /* \"#utility.yul\":2141:2154   */\n      gt\n        /* \"#utility.yul\":2138:2239   */\n      iszero\n      tag_71\n      jumpi\n        /* \"#utility.yul\":2227:2228   */\n      0x00\n        /* \"#utility.yul\":2218:2224   */\n      dup5\n        /* \"#utility.yul\":2213:2216   */\n      dup5\n        /* \"#utility.yul\":2209:2225   */\n      add\n        /* \"#utility.yul\":2202:2229   */\n      mstore\n        /* \"#utility.yul\":2138:2239   */\n    tag_71:\n        /* \"#utility.yul\":1987:2245   */\n      pop\n        /* \"#utility.yul\":1938:2245   */\n      pop\n      pop\n      pop\n      jump\t// out\n        /* \"#utility.yul\":2251:2431   */\n    tag_32:\n        /* \"#utility.yul\":2299:2376   */\n      0x4e487b7100000000000000000000000000000000000000000000000000000000\n        /* \"#utility.yul\":2296:2297   */\n      0x00\n        /* \"#utility.yul\":2289:2377   */\n      mstore\n        /* \"#utility.yul\":2396:2400   */\n      0x32\n        /* \"#utility.yul\":2393:2394   */\n      0x04\n        /* \"#utility.yul\":2386:2401   */\n      mstore\n        /* \"#utility.yul\":2420:2424   */\n      0x24\n        /* \"#utility.yul\":2417:2418   */\n      0x00\n        /* \"#utility.yul\":2410:2425   */\n      revert\n        /* \"#utility.yul\":2437:2617   */\n    tag_27:\n        /* \"#utility.yul\":2485:2562   */\n      0x4e487b7100000000000000000000000000000000000000000000000000000000\n        /* \"#utility.yul\":2482:2483   */\n      0x00\n        /* \"#utility.yul\":2475:2563   */\n      mstore\n        /* \"#utility.yul\":2582:2586   */\n      0x41\n        /* \"#utility.yul\":2579:2580   */\n      0x04\n        /* \"#utility.yul\":2572:2587   */\n      mstore\n        /* \"#utility.yul\":2606:2610   */\n      0x24\n        /* \"#utility.yul\":2603:2604   */\n      0x00\n        /* \"#utility.yul\":2596:2611   */\n      revert\n        /* \"#utility.yul\":2623:2725   */\n    tag_51:\n        /* \"#utility.yul\":2664:2670   */\n      0x00\n        /* \"#utility.yul\":2715:2717   */\n      0x1f\n        /* \"#utility.yul\":2711:2718   */\n      not\n        /* \"#utility.yul\":2706:2708   */\n      0x1f\n        /* \"#utility.yul\":2699:2704   */\n      dup4\n        /* \"#utility.yul\":2695:2709   */\n      add\n        /* \"#utility.yul\":2691:2719   */\n      and\n        /* \"#utility.yul\":2681:2719   */\n      swap1\n      pop\n        /* \"#utility.yul\":2623:2725   */\n      swap2\n      swap1\n      pop\n      jump\t// out\n\n    auxdata: 0xa26469706673582212207606da63782859a6874dbcebd8be48f9c72aefd18c7bf85997d552c87419e36164736f6c63430008070033\n}\n",
				"bytecode": {
					"linkReferences": {},
					"object": "608060405234801561001057600080fd5b5060405161047c38038061047c83398181016040528101906100329190610061565b8160008001819055508060006001018190555050506100c7565b60008151905061005b816100b0565b92915050565b60008060408385031215610078576100776100ab565b5b60006100868582860161004c565b92505060206100978582860161004c565b9150509250929050565b6000819050919050565b600080fd5b6100b9816100a1565b81146100c457600080fd5b50565b6103a6806100d66000396000f3fe608060405234801561001057600080fd5b50600436106100415760003560e01c806346f594ea14610046578063a699fb0314610064578063bb0bd9d514610083575b600080fd5b61004e6100a1565b60405161005b9190610251565b60405180910390f35b61006c6100b2565b60405161007a929190610273565b60405180910390f35b61008b6100c4565b6040516100989190610236565b60405180910390f35b60606100ad60006100f4565b905090565b60008060000154908060010154905082565b60006100ef6000604051806040016040529081600082015481526020016001820154815250506101a0565b905090565b60606000600167ffffffffffffffff81111561011357610112610330565b5b6040519080825280601f01601f1916602001820160405280156101455781602001600182028036833780820191505090505b509050821561019757600160f81b8160008151811061016757610166610301565b5b60200101907effffffffffffffffffffffffffffffffffffffffffffffffffffffffffffff1916908160001a9053505b80915050919050565b600060018260000151146101b357600080fd5b60008083602001519050805160001a9150600082146101d35760016101d6565b60005b92505050919050565b6101e8816102b8565b82525050565b60006101f98261029c565b61020381856102a7565b93506102138185602086016102ce565b61021c8161035f565b840191505092915050565b610230816102c4565b82525050565b600060208201905061024b60008301846101df565b92915050565b6000602082019050818103600083015261026b81846101ee565b905092915050565b60006040820190506102886000830185610227565b6102956020830184610227565b9392505050565b600081519050919050565b600082825260208201905092915050565b60008115159050919050565b6000819050919050565b60005b838110156102ec5780820151818401526020810190506102d1565b838111156102fb576000848401525b50505050565b7f4e487b7100000000000000000000000000000000000000000000000000000000600052603260045260246000fd5b7f4e487b7100000000000000000000000000000000000000000000000000000000600052604160045260246000fd5b6000601f19601f830116905091905056fea26469706673582212207606da63782859a6874dbcebd8be48f9c72aefd18c7bf85997d552c87419e36164736f6c63430008070033",
					"opcodes": "PUSH1 0x80 PUSH1 0x40 MSTORE CALLVALUE DUP1 ISZERO PUSH2 0x10 JUMPI PUSH1 0x0 DUP1 REVERT JUMPDEST POP PUSH1 0x40 MLOAD PUSH2 0x47C CODESIZE SUB DUP1 PUSH2 0x47C DUP4 CODECOPY DUP2 DUP2 ADD PUSH1 0x40 MSTORE DUP2 ADD SWAP1 PUSH2 0x32 SWAP2 SWAP1 PUSH2 0x61 JUMP JUMPDEST DUP2 PUSH1 0x0 DUP1 ADD DUP2 SWAP1 SSTORE POP DUP1 PUSH1 0x0 PUSH1 0x1 ADD DUP2 SWAP1 SSTORE POP POP POP PUSH2 0xC7 JUMP JUMPDEST PUSH1 0x0 DUP2 MLOAD SWAP1 POP PUSH2 0x5B DUP2 PUSH2 0xB0 JUMP JUMPDEST SWAP3 SWAP2 POP POP JUMP JUMPDEST PUSH1 0x0 DUP1 PUSH1 0x40 DUP4 DUP6 SUB SLT ISZERO PUSH2 0x78 JUMPI PUSH2 0x77 PUSH2 0xAB JUMP JUMPDEST JUMPDEST PUSH1 0x0 PUSH2 0x86 DUP6 DUP3 DUP7 ADD PUSH2 0x4C JUMP JUMPDEST SWAP3 POP POP PUSH1 0x20 PUSH2 0x97 DUP6 DUP3 DUP7 ADD PUSH2 0x4C JUMP JUMPDEST SWAP2 POP POP SWAP3 POP SWAP3 SWAP1 POP JUMP JUMPDEST PUSH1 0x0 DUP2 SWAP1 POP SWAP2 SWAP1 POP JUMP JUMPDEST PUSH1 0x0 DUP1 REVERT JUMPDEST PUSH2 0xB9 DUP2 PUSH2 0xA1 JUMP JUMPDEST DUP2 EQ PUSH2 0xC4 JUMPI PUSH1 0x0 DUP1 REVERT JUMPDEST POP JUMP JUMPDEST PUSH2 0x3A6 DUP1 PUSH2 0xD6 PUSH1 0x0 CODECOPY PUSH1 0x0 RETURN INVALID PUSH1 0x80 PUSH1 0x40 MSTORE CALLVALUE DUP1 ISZERO PUSH2 0x10 JUMPI PUSH1 0x0 DUP1 REVERT JUMPDEST POP PUSH1 0x4 CALLDATASIZE LT PUSH2 0x41 JUMPI PUSH1 0x0 CALLDATALOAD PUSH1 0xE0 SHR DUP1 PUSH4 0x46F594EA EQ PUSH2 0x46 JUMPI DUP1 PUSH4 0xA699FB03 EQ PUSH2 0x64 JUMPI DUP1 PUSH4 0xBB0BD9D5 EQ PUSH2 0x83 JUMPI JUMPDEST PUSH1 0x0 DUP1 REVERT JUMPDEST PUSH2 0x4E PUSH2 0xA1 JUMP JUMPDEST PUSH1 0x40 MLOAD PUSH2 0x5B SWAP2 SWAP1 PUSH2 0x251 JUMP JUMPDEST PUSH1 0x40 MLOAD DUP1 SWAP2 SUB SWAP1 RETURN JUMPDEST PUSH2 0x6C PUSH2 0xB2 JUMP JUMPDEST PUSH1 0x40 MLOAD PUSH2 0x7A SWAP3 SWAP2 SWAP1 PUSH2 0x273 JUMP JUMPDEST PUSH1 0x40 MLOAD DUP1 SWAP2 SUB SWAP1 RETURN JUMPDEST PUSH2 0x8B PUSH2 0xC4 JUMP JUMPDEST PUSH1 0x40 MLOAD PUSH2 0x98 SWAP2 SWAP1 PUSH2 0x236 JUMP JUMPDEST PUSH1 0x40 MLOAD DUP1 SWAP2 SUB SWAP1 RETURN JUMPDEST PUSH1 0x60 PUSH2 0xAD PUSH1 0x0 PUSH2 0xF4 JUMP JUMPDEST SWAP1 POP SWAP1 JUMP JUMPDEST PUSH1 0x0 DUP1 PUSH1 0x0 ADD SLOAD SWAP1 DUP1 PUSH1 0x1 ADD SLOAD SWAP1 POP DUP3 JUMP JUMPDEST PUSH1 0x0 PUSH2 0xEF PUSH1 0x0 PUSH1 0x40 MLOAD DUP1 PUSH1 0x40 ADD PUSH1 0x40 MSTORE SWAP1 DUP2 PUSH1 0x0 DUP3 ADD SLOAD DUP2 MSTORE PUSH1 0x20 ADD PUSH1 0x1 DUP3 ADD SLOAD DUP2 MSTORE POP POP PUSH2 0x1A0 JUMP JUMPDEST SWAP1 POP SWAP1 JUMP JUMPDEST PUSH1 0x60 PUSH1 0x0 PUSH1 0x1 PUSH8 0xFFFFFFFFFFFFFFFF DUP2 GT ISZERO PUSH2 0x113 JUMPI PUSH2 0x112 PUSH2 0x330 JUMP JUMPDEST JUMPDEST PUSH1 0x40 MLOAD SWAP1 DUP1 DUP3 MSTORE DUP1 PUSH1 0x1F ADD PUSH1 0x1F NOT AND PUSH1 0x20 ADD DUP3 ADD PUSH1 0x40 MSTORE DUP1 ISZERO PUSH2 0x145 JUMPI DUP2 PUSH1 0x20 ADD PUSH1 0x1 DUP3 MUL DUP1 CALLDATASIZE DUP4 CALLDATACOPY DUP1 DUP3 ADD SWAP2 POP POP SWAP1 POP JUMPDEST POP SWAP1 POP DUP3 ISZERO PUSH2 0x197 JUMPI PUSH1 0x1 PUSH1 0xF8 SHL DUP2 PUSH1 0x0 DUP2 MLOAD DUP2 LT PUSH2 0x167 JUMPI PUSH2 0x166 PUSH2 0x301 JUMP JUMPDEST JUMPDEST PUSH1 0x20 ADD ADD SWAP1 PUSH31 0xFFFFFFFFFFFFFFFFFFFFFFFFFFFFFFFFFFFFFFFFFFFFFFFFFFFFFFFFFFFFFF NOT AND SWAP1 DUP2 PUSH1 0x0 BYTE SWAP1 MSTORE8 POP JUMPDEST DUP1 SWAP2 POP POP SWAP2 SWAP1 POP JUMP JUMPDEST PUSH1 0x0 PUSH1 0x1 DUP3 PUSH1 0x0 ADD MLOAD EQ PUSH2 0x1B3 JUMPI PUSH1 0x0 DUP1 REVERT JUMPDEST PUSH1 0x0 DUP1 DUP4 PUSH1 0x20 ADD MLOAD SWAP1 POP DUP1 MLOAD PUSH1 0x0 BYTE SWAP2 POP PUSH1 0x0 DUP3 EQ PUSH2 0x1D3 JUMPI PUSH1 0x1 PUSH2 0x1D6 JUMP JUMPDEST PUSH1 0x0 JUMPDEST SWAP3 POP POP POP SWAP2 SWAP1 POP JUMP JUMPDEST PUSH2 0x1E8 DUP2 PUSH2 0x2B8 JUMP JUMPDEST DUP3 MSTORE POP POP JUMP JUMPDEST PUSH1 0x0 PUSH2 0x1F9 DUP3 PUSH2 0x29C JUMP JUMPDEST PUSH2 0x203 DUP2 DUP6 PUSH2 0x2A7 JUMP JUMPDEST SWAP4 POP PUSH2 0x213 DUP2 DUP6 PUSH1 0x20 DUP7 ADD PUSH2 0x2CE JUMP JUMPDEST PUSH2 0x21C DUP2 PUSH2 0x35F JUMP JUMPDEST DUP5 ADD SWAP2 POP POP SWAP3 SWAP2 POP POP JUMP JUMPDEST PUSH2 0x230 DUP2 PUSH2 0x2C4 JUMP JUMPDEST DUP3 MSTORE POP POP JUMP JUMPDEST PUSH1 0x0 PUSH1 0x20 DUP3 ADD SWAP1 POP PUSH2 0x24B PUSH1 0x0 DUP4 ADD DUP5 PUSH2 0x1DF JUMP JUMPDEST SWAP3 SWAP2 POP POP JUMP JUMPDEST PUSH1 0x0 PUSH1 0x20 DUP3 ADD SWAP1 POP DUP2 DUP2 SUB PUSH1 0x0 DUP4 ADD MSTORE PUSH2 0x26B DUP2 DUP5 PUSH2 0x1EE JUMP JUMPDEST SWAP1 POP SWAP3 SWAP2 POP POP JUMP JUMPDEST PUSH1 0x0 PUSH1 0x40 DUP3 ADD SWAP1 POP PUSH2 0x288 PUSH1 0x0 DUP4 ADD DUP6 PUSH2 0x227 JUMP JUMPDEST PUSH2 0x295 PUSH1 0x20 DUP4 ADD DUP5 PUSH2 0x227 JUMP JUMPDEST SWAP4 SWAP3 POP POP POP JUMP JUMPDEST PUSH1 0x0 DUP2 MLOAD SWAP1 POP SWAP2 SWAP1 POP JUMP JUMPDEST PUSH1 0x0 DUP3 DUP3 MSTORE PUSH1 0x20 DUP3 ADD SWAP1 POP SWAP3 SWAP2 POP POP JUMP JUMPDEST PUSH1 0x0 DUP2 ISZERO ISZERO SWAP1 POP SWAP2 SWAP1 POP JUMP JUMPDEST PUSH1 0x0 DUP2 SWAP1 POP SWAP2 SWAP1 POP JUMP JUMPDEST PUSH1 0x0 JUMPDEST DUP4 DUP2 LT ISZERO PUSH2 0x2EC JUMPI DUP1 DUP3 ADD MLOAD DUP2 DUP5 ADD MSTORE PUSH1 0x20 DUP2 ADD SWAP1 POP PUSH2 0x2D1 JUMP JUMPDEST DUP4 DUP2 GT ISZERO PUSH2 0x2FB JUMPI PUSH1 0x0 DUP5 DUP5 ADD MSTORE JUMPDEST POP POP POP POP JUMP JUMPDEST PUSH32 0x4E487B7100000000000000000000000000000000000000000000000000000000 PUSH1 0x0 MSTORE PUSH1 0x32 PUSH1 0x4 MSTORE PUSH1 0x24 PUSH1 0x0 REVERT JUMPDEST PUSH32 0x4E487B7100000000000000000000000000000000000000000000000000000000 PUSH1 0x0 MSTORE PUSH1 0x41 PUSH1 0x4 MSTORE PUSH1 0x24 PUSH1 0x0 REVERT JUMPDEST PUSH1 0x0 PUSH1 0x1F NOT PUSH1 0x1F DUP4 ADD AND SWAP1 POP SWAP2 SWAP1 POP JUMP INVALID LOG2 PUSH5 0x6970667358 0x22 SLT KECCAK256 PUSH23 0x6DA63782859A6874DBCEBD8BE48F9C72AEFD18C7BF859 SWAP8 0xD5 MSTORE 0xC8 PUSH21 0x19E36164736F6C6343000807003300000000000000 "
				},
				"gasEstimates": {
					"creation": {
						"codeDepositCost": "186800",
						"executionCost": "infinite",
						"totalCost": "infinite"
					},
					"external": {
						"getDataDE()": "infinite",
						"getDataEN()": "infinite",
						"rlpItem()": "infinite"
					},
					"internal": {
						"encodeBool(bool)": "infinite",
						"toBoolean(struct Demo.RLPItem memory)": "infinite"
					}
				},
				"methodIdentifiers": {
					"getDataDE()": "bb0bd9d5",
					"getDataEN()": "46f594ea",
					"rlpItem()": "a699fb03"
				}
			},
			"userdoc": {
				"kind": "user",
				"methods": {},
				"version": 1
			}
		}
	}
}