{
	"contracts/demo1.sol": {
		"CmnPkg": {
			"abi": [
				{
					"constant": true,
					"inputs": [],
					"name": "CROSS_CHAIN_KEY_PREFIX",
					"outputs": [
						{
							"internalType": "uint256",
							"name": "",
							"type": "uint256"
						}
					],
					"payable": false,
					"stateMutability": "view",
					"type": "function"
				},
				{
					"constant": true,
					"inputs": [],
					"name": "data2",
					"outputs": [
						{
							"internalType": "uint64",
							"name": "",
							"type": "uint64"
						}
					],
					"payable": false,
					"stateMutability": "view",
					"type": "function"
				},
				{
					"constant": true,
					"inputs": [],
					"name": "data3",
					"outputs": [
						{
							"internalType": "uint8",
							"name": "",
							"type": "uint8"
						}
					],
					"payable": false,
					"stateMutability": "view",
					"type": "function"
				},
				{
					"constant": true,
					"inputs": [
						{
							"internalType": "bytes",
							"name": "payload",
							"type": "bytes"
						}
					],
					"name": "getDecodekey",
					"outputs": [
						{
							"internalType": "bool",
							"name": "",
							"type": "bool"
						},
						{
							"internalType": "uint8",
							"name": "",
							"type": "uint8"
						},
						{
							"internalType": "uint256",
							"name": "",
							"type": "uint256"
						},
						{
							"internalType": "bytes",
							"name": "",
							"type": "bytes"
						}
					],
					"payable": false,
					"stateMutability": "view",
					"type": "function"
				},
				{
					"constant": true,
					"inputs": [
						{
							"internalType": "uint64",
							"name": "_sequence",
							"type": "uint64"
						},
						{
							"internalType": "uint8",
							"name": "_channelID",
							"type": "uint8"
						}
					],
					"name": "getGeratekey",
					"outputs": [
						{
							"internalType": "bytes",
							"name": "",
							"type": "bytes"
						}
					],
					"payable": false,
					"stateMutability": "view",
					"type": "function"
				}
			],
			"devdoc": {
				"methods": {}
			},
			"evm": {
				"assembly": "    /* \"contracts/demo1.sol\":60:1798  contract CmnPkg {\r... */\n  mstore(0x40, 0x80)\n    /* \"contracts/demo1.sol\":173:177  3345 */\n  0x0d11\n    /* \"contracts/demo1.sol\":151:177  uint64 public data2 = 3345 */\n  0x00\n  dup1\n  0x0100\n  exp\n  dup2\n  sload\n  dup2\n  0xffffffffffffffff\n  mul\n  not\n  and\n  swap1\n  dup4\n  0xffffffffffffffff\n  and\n  mul\n  or\n  swap1\n  sstore\n  pop\n    /* \"contracts/demo1.sol\":205:207  30 */\n  0x1e\n    /* \"contracts/demo1.sol\":184:207  uint8 public data3 = 30 */\n  0x00\n  exp(0x0100, 0x08)\n  dup2\n  sload\n  dup2\n  0xff\n  mul\n  not\n  and\n  swap1\n  dup4\n  0xff\n  and\n  mul\n  or\n  swap1\n  sstore\n  pop\n    /* \"contracts/demo1.sol\":60:1798  contract CmnPkg {\r... */\n  callvalue\n    /* \"--CODEGEN--\":8:17   */\n  dup1\n    /* \"--CODEGEN--\":5:7   */\n  iszero\n  tag_1\n  jumpi\n    /* \"--CODEGEN--\":30:31   */\n  0x00\n    /* \"--CODEGEN--\":27:28   */\n  dup1\n    /* \"--CODEGEN--\":20:32   */\n  revert\n    /* \"--CODEGEN--\":5:7   */\ntag_1:\n    /* \"contracts/demo1.sol\":60:1798  contract CmnPkg {\r... */\n  pop\n  dataSize(sub_0)\n  dup1\n  dataOffset(sub_0)\n  0x00\n  codecopy\n  0x00\n  return\nstop\n\nsub_0: assembly {\n        /* \"contracts/demo1.sol\":60:1798  contract CmnPkg {\r... */\n      mstore(0x40, 0x80)\n      callvalue\n        /* \"--CODEGEN--\":8:17   */\n      dup1\n        /* \"--CODEGEN--\":5:7   */\n      iszero\n      tag_1\n      jumpi\n        /* \"--CODEGEN--\":30:31   */\n      0x00\n        /* \"--CODEGEN--\":27:28   */\n      dup1\n        /* \"--CODEGEN--\":20:32   */\n      revert\n        /* \"--CODEGEN--\":5:7   */\n    tag_1:\n        /* \"contracts/demo1.sol\":60:1798  contract CmnPkg {\r... */\n      pop\n      jumpi(tag_2, lt(calldatasize, 0x04))\n      shr(0xe0, calldataload(0x00))\n      dup1\n      0x73da6c22\n      eq\n      tag_3\n      jumpi\n      dup1\n      0x863fe4ab\n      eq\n      tag_4\n      jumpi\n      dup1\n      0x9539ded9\n      eq\n      tag_5\n      jumpi\n      dup1\n      0xe3a7fd75\n      eq\n      tag_6\n      jumpi\n      dup1\n      0xfc26b0ab\n      eq\n      tag_7\n      jumpi\n    tag_2:\n      0x00\n      dup1\n      revert\n        /* \"contracts/demo1.sol\":222:372  function getGeratekey(uint64 _sequence, uint8 _channelID) public view returns(bytes memory){\r... */\n    tag_3:\n      tag_8\n      0x04\n      dup1\n      calldatasize\n      sub\n        /* \"--CODEGEN--\":13:15   */\n      0x40\n        /* \"--CODEGEN--\":8:11   */\n      dup2\n        /* \"--CODEGEN--\":5:16   */\n      lt\n        /* \"--CODEGEN--\":2:4   */\n      iszero\n      tag_9\n      jumpi\n        /* \"--CODEGEN--\":29:30   */\n      0x00\n        /* \"--CODEGEN--\":26:27   */\n      dup1\n        /* \"--CODEGEN--\":19:31   */\n      revert\n        /* \"--CODEGEN--\":2:4   */\n    tag_9:\n        /* \"contracts/demo1.sol\":222:372  function getGeratekey(uint64 _sequence, uint8 _channelID) public view returns(bytes memory){\r... */\n      dup2\n      add\n      swap1\n      dup1\n      dup1\n      calldataload\n      0xffffffffffffffff\n      and\n      swap1\n      0x20\n      add\n      swap1\n      swap3\n      swap2\n      swap1\n      dup1\n      calldataload\n      0xff\n      and\n      swap1\n      0x20\n      add\n      swap1\n      swap3\n      swap2\n      swap1\n      pop\n      pop\n      pop\n      tag_10\n      jump\t// in\n    tag_8:\n      mload(0x40)\n      dup1\n      dup1\n      0x20\n      add\n      dup3\n      dup2\n      sub\n      dup3\n      mstore\n      dup4\n      dup2\n      dup2\n      mload\n      dup2\n      mstore\n      0x20\n      add\n      swap2\n      pop\n      dup1\n      mload\n      swap1\n      0x20\n      add\n      swap1\n      dup1\n      dup4\n      dup4\n        /* \"--CODEGEN--\":23:24   */\n      0x00\n        /* \"--CODEGEN--\":8:108   */\n    tag_11:\n        /* \"--CODEGEN--\":33:36   */\n      dup4\n        /* \"--CODEGEN--\":30:31   */\n      dup2\n        /* \"--CODEGEN--\":27:37   */\n      lt\n        /* \"--CODEGEN--\":8:108   */\n      iszero\n      tag_13\n      jumpi\n        /* \"--CODEGEN--\":99:100   */\n      dup1\n        /* \"--CODEGEN--\":94:97   */\n      dup3\n        /* \"--CODEGEN--\":90:101   */\n      add\n        /* \"--CODEGEN--\":84:102   */\n      mload\n        /* \"--CODEGEN--\":80:81   */\n      dup2\n        /* \"--CODEGEN--\":75:78   */\n      dup5\n        /* \"--CODEGEN--\":71:82   */\n      add\n        /* \"--CODEGEN--\":64:103   */\n      mstore\n        /* \"--CODEGEN--\":52:54   */\n      0x20\n        /* \"--CODEGEN--\":49:50   */\n      dup2\n        /* \"--CODEGEN--\":45:55   */\n      add\n        /* \"--CODEGEN--\":40:55   */\n      swap1\n      pop\n        /* \"--CODEGEN--\":8:108   */\n      jump(tag_11)\n    tag_13:\n        /* \"--CODEGEN--\":12:26   */\n      pop\n        /* \"contracts/demo1.sol\":222:372  function getGeratekey(uint64 _sequence, uint8 _channelID) public view returns(bytes memory){\r... */\n      pop\n      pop\n      pop\n      swap1\n      pop\n      swap1\n      dup2\n      add\n      swap1\n      0x1f\n      and\n      dup1\n      iszero\n      tag_14\n      jumpi\n      dup1\n      dup3\n      sub\n      dup1\n      mload\n      0x01\n      dup4\n      0x20\n      sub\n      0x0100\n      exp\n      sub\n      not\n      and\n      dup2\n      mstore\n      0x20\n      add\n      swap2\n      pop\n    tag_14:\n      pop\n      swap3\n      pop\n      pop\n      pop\n      mload(0x40)\n      dup1\n      swap2\n      sub\n      swap1\n      return\n        /* \"contracts/demo1.sol\":83:142  uint256 constant public CROSS_CHAIN_KEY_PREFIX = 0x01006000 */\n    tag_4:\n      tag_15\n      tag_16\n      jump\t// in\n    tag_15:\n      mload(0x40)\n      dup1\n      dup3\n      dup2\n      mstore\n      0x20\n      add\n      swap2\n      pop\n      pop\n      mload(0x40)\n      dup1\n      swap2\n      sub\n      swap1\n      return\n        /* \"contracts/demo1.sol\":380:533  function getDecodekey(bytes memory payload) public view returns(bool, uint8, uint256, bytes memory){\r... */\n    tag_5:\n      tag_17\n      0x04\n      dup1\n      calldatasize\n      sub\n        /* \"--CODEGEN--\":13:15   */\n      0x20\n        /* \"--CODEGEN--\":8:11   */\n      dup2\n        /* \"--CODEGEN--\":5:16   */\n      lt\n        /* \"--CODEGEN--\":2:4   */\n      iszero\n      tag_18\n      jumpi\n        /* \"--CODEGEN--\":29:30   */\n      0x00\n        /* \"--CODEGEN--\":26:27   */\n      dup1\n        /* \"--CODEGEN--\":19:31   */\n      revert\n        /* \"--CODEGEN--\":2:4   */\n    tag_18:\n        /* \"contracts/demo1.sol\":380:533  function getDecodekey(bytes memory payload) public view returns(bool, uint8, uint256, bytes memory){\r... */\n      dup2\n      add\n      swap1\n      dup1\n      dup1\n      calldataload\n      swap1\n      0x20\n      add\n      swap1\n        /* \"--CODEGEN--\":21:32   */\n      0x0100000000\n        /* \"--CODEGEN--\":8:19   */\n      dup2\n        /* \"--CODEGEN--\":5:33   */\n      gt\n        /* \"--CODEGEN--\":2:4   */\n      iszero\n      tag_19\n      jumpi\n        /* \"--CODEGEN--\":46:47   */\n      0x00\n        /* \"--CODEGEN--\":43:44   */\n      dup1\n        /* \"--CODEGEN--\":36:48   */\n      revert\n        /* \"--CODEGEN--\":2:4   */\n    tag_19:\n        /* \"contracts/demo1.sol\":380:533  function getDecodekey(bytes memory payload) public view returns(bool, uint8, uint256, bytes memory){\r... */\n      dup3\n      add\n        /* \"--CODEGEN--\":35:44   */\n      dup4\n        /* \"--CODEGEN--\":28:32   */\n      0x20\n        /* \"--CODEGEN--\":12:26   */\n      dup3\n        /* \"--CODEGEN--\":8:33   */\n      add\n        /* \"--CODEGEN--\":5:45   */\n      gt\n        /* \"--CODEGEN--\":2:4   */\n      iszero\n      tag_20\n      jumpi\n        /* \"--CODEGEN--\":58:59   */\n      0x00\n        /* \"--CODEGEN--\":55:56   */\n      dup1\n        /* \"--CODEGEN--\":48:60   */\n      revert\n        /* \"--CODEGEN--\":2:4   */\n    tag_20:\n        /* \"contracts/demo1.sol\":380:533  function getDecodekey(bytes memory payload) public view returns(bool, uint8, uint256, bytes memory){\r... */\n      dup1\n      calldataload\n      swap1\n      0x20\n      add\n      swap2\n        /* \"--CODEGEN--\":100:109   */\n      dup5\n        /* \"--CODEGEN--\":95:96   */\n      0x01\n        /* \"--CODEGEN--\":81:93   */\n      dup4\n        /* \"--CODEGEN--\":77:97   */\n      mul\n        /* \"--CODEGEN--\":67:75   */\n      dup5\n        /* \"--CODEGEN--\":63:98   */\n      add\n        /* \"--CODEGEN--\":60:110   */\n      gt\n        /* \"--CODEGEN--\":39:50   */\n      0x0100000000\n        /* \"--CODEGEN--\":25:37   */\n      dup4\n        /* \"--CODEGEN--\":22:51   */\n      gt\n        /* \"--CODEGEN--\":11:118   */\n      or\n        /* \"--CODEGEN--\":8:10   */\n      iszero\n      tag_21\n      jumpi\n        /* \"--CODEGEN--\":131:132   */\n      0x00\n        /* \"--CODEGEN--\":128:129   */\n      dup1\n        /* \"--CODEGEN--\":121:133   */\n      revert\n        /* \"--CODEGEN--\":8:10   */\n    tag_21:\n        /* \"contracts/demo1.sol\":380:533  function getDecodekey(bytes memory payload) public view returns(bool, uint8, uint256, bytes memory){\r... */\n      swap2\n      swap1\n      dup1\n      dup1\n      0x1f\n      add\n      0x20\n      dup1\n      swap2\n      div\n      mul\n      0x20\n      add\n      mload(0x40)\n      swap1\n      dup2\n      add\n      0x40\n      mstore\n      dup1\n      swap4\n      swap3\n      swap2\n      swap1\n      dup2\n      dup2\n      mstore\n      0x20\n      add\n      dup4\n      dup4\n        /* \"--CODEGEN--\":30:33   */\n      dup1\n        /* \"--CODEGEN--\":22:28   */\n      dup3\n        /* \"--CODEGEN--\":14:20   */\n      dup5\n        /* \"--CODEGEN--\":1:34   */\n      calldatacopy\n        /* \"--CODEGEN--\":99:100   */\n      0x00\n        /* \"--CODEGEN--\":93:96   */\n      dup2\n        /* \"--CODEGEN--\":85:91   */\n      dup5\n        /* \"--CODEGEN--\":81:97   */\n      add\n        /* \"--CODEGEN--\":74:101   */\n      mstore\n        /* \"--CODEGEN--\":137:141   */\n      0x1f\n        /* \"--CODEGEN--\":133:142   */\n      not\n        /* \"--CODEGEN--\":126:130   */\n      0x1f\n        /* \"--CODEGEN--\":121:124   */\n      dup3\n        /* \"--CODEGEN--\":117:131   */\n      add\n        /* \"--CODEGEN--\":113:143   */\n      and\n        /* \"--CODEGEN--\":106:143   */\n      swap1\n      pop\n        /* \"--CODEGEN--\":169:172   */\n      dup1\n        /* \"--CODEGEN--\":161:167   */\n      dup4\n        /* \"--CODEGEN--\":157:173   */\n      add\n        /* \"--CODEGEN--\":147:173   */\n      swap3\n      pop\n        /* \"contracts/demo1.sol\":380:533  function getDecodekey(bytes memory payload) public view returns(bool, uint8, uint256, bytes memory){\r... */\n      pop\n      pop\n      pop\n      pop\n      pop\n      pop\n      swap2\n      swap3\n      swap2\n      swap3\n      swap1\n      pop\n      pop\n      pop\n      tag_22\n      jump\t// in\n    tag_17:\n      mload(0x40)\n      dup1\n      dup6\n      iszero\n      iszero\n      iszero\n      iszero\n      dup2\n      mstore\n      0x20\n      add\n      dup5\n      0xff\n      and\n      0xff\n      and\n      dup2\n      mstore\n      0x20\n      add\n      dup4\n      dup2\n      mstore\n      0x20\n      add\n      dup1\n      0x20\n      add\n      dup3\n      dup2\n      sub\n      dup3\n      mstore\n      dup4\n      dup2\n      dup2\n      mload\n      dup2\n      mstore\n      0x20\n      add\n      swap2\n      pop\n      dup1\n      mload\n      swap1\n      0x20\n      add\n      swap1\n      dup1\n      dup4\n      dup4\n        /* \"--CODEGEN--\":23:24   */\n      0x00\n        /* \"--CODEGEN--\":8:108   */\n    tag_23:\n        /* \"--CODEGEN--\":33:36   */\n      dup4\n        /* \"--CODEGEN--\":30:31   */\n      dup2\n        /* \"--CODEGEN--\":27:37   */\n      lt\n        /* \"--CODEGEN--\":8:108   */\n      iszero\n      tag_25\n      jumpi\n        /* \"--CODEGEN--\":99:100   */\n      dup1\n        /* \"--CODEGEN--\":94:97   */\n      dup3\n        /* \"--CODEGEN--\":90:101   */\n      add\n        /* \"--CODEGEN--\":84:102   */\n      mload\n        /* \"--CODEGEN--\":80:81   */\n      dup2\n        /* \"--CODEGEN--\":75:78   */\n      dup5\n        /* \"--CODEGEN--\":71:82   */\n      add\n        /* \"--CODEGEN--\":64:103   */\n      mstore\n        /* \"--CODEGEN--\":52:54   */\n      0x20\n        /* \"--CODEGEN--\":49:50   */\n      dup2\n        /* \"--CODEGEN--\":45:55   */\n      add\n        /* \"--CODEGEN--\":40:55   */\n      swap1\n      pop\n        /* \"--CODEGEN--\":8:108   */\n      jump(tag_23)\n    tag_25:\n        /* \"--CODEGEN--\":12:26   */\n      pop\n        /* \"contracts/demo1.sol\":380:533  function getDecodekey(bytes memory payload) public view returns(bool, uint8, uint256, bytes memory){\r... */\n      pop\n      pop\n      pop\n      swap1\n      pop\n      swap1\n      dup2\n      add\n      swap1\n      0x1f\n      and\n      dup1\n      iszero\n      tag_26\n      jumpi\n      dup1\n      dup3\n      sub\n      dup1\n      mload\n      0x01\n      dup4\n      0x20\n      sub\n      0x0100\n      exp\n      sub\n      not\n      and\n      dup2\n      mstore\n      0x20\n      add\n      swap2\n      pop\n    tag_26:\n      pop\n      swap6\n      pop\n      pop\n      pop\n      pop\n      pop\n      pop\n      mload(0x40)\n      dup1\n      swap2\n      sub\n      swap1\n      return\n        /* \"contracts/demo1.sol\":151:177  uint64 public data2 = 3345 */\n    tag_6:\n      tag_27\n      tag_28\n      jump\t// in\n    tag_27:\n      mload(0x40)\n      dup1\n      dup3\n      0xffffffffffffffff\n      and\n      0xffffffffffffffff\n      and\n      dup2\n      mstore\n      0x20\n      add\n      swap2\n      pop\n      pop\n      mload(0x40)\n      dup1\n      swap2\n      sub\n      swap1\n      return\n        /* \"contracts/demo1.sol\":184:207  uint8 public data3 = 30 */\n    tag_7:\n      tag_29\n      tag_30\n      jump\t// in\n    tag_29:\n      mload(0x40)\n      dup1\n      dup3\n      0xff\n      and\n      0xff\n      and\n      dup2\n      mstore\n      0x20\n      add\n      swap2\n      pop\n      pop\n      mload(0x40)\n      dup1\n      swap2\n      sub\n      swap1\n      return\n        /* \"contracts/demo1.sol\":222:372  function getGeratekey(uint64 _sequence, uint8 _channelID) public view returns(bytes memory){\r... */\n    tag_10:\n        /* \"contracts/demo1.sol\":300:312  bytes memory */\n      0x60\n        /* \"contracts/demo1.sol\":331:364  generateKey(_sequence,_channelID) */\n      tag_32\n        /* \"contracts/demo1.sol\":343:352  _sequence */\n      dup4\n        /* \"contracts/demo1.sol\":353:363  _channelID */\n      dup4\n        /* \"contracts/demo1.sol\":331:342  generateKey */\n      tag_33\n        /* \"contracts/demo1.sol\":331:364  generateKey(_sequence,_channelID) */\n      jump\t// in\n    tag_32:\n        /* \"contracts/demo1.sol\":324:364  return generateKey(_sequence,_channelID) */\n      swap1\n      pop\n        /* \"contracts/demo1.sol\":222:372  function getGeratekey(uint64 _sequence, uint8 _channelID) public view returns(bytes memory){\r... */\n      swap3\n      swap2\n      pop\n      pop\n      jump\t// out\n        /* \"contracts/demo1.sol\":83:142  uint256 constant public CROSS_CHAIN_KEY_PREFIX = 0x01006000 */\n    tag_16:\n        /* \"contracts/demo1.sol\":132:142  0x01006000 */\n      0x01006000\n        /* \"contracts/demo1.sol\":83:142  uint256 constant public CROSS_CHAIN_KEY_PREFIX = 0x01006000 */\n      dup2\n      jump\t// out\n        /* \"contracts/demo1.sol\":380:533  function getDecodekey(bytes memory payload) public view returns(bool, uint8, uint256, bytes memory){\r... */\n    tag_22:\n        /* \"contracts/demo1.sol\":444:448  bool */\n      0x00\n        /* \"contracts/demo1.sol\":450:455  uint8 */\n      dup1\n        /* \"contracts/demo1.sol\":457:464  uint256 */\n      0x00\n        /* \"contracts/demo1.sol\":466:478  bytes memory */\n      0x60\n        /* \"contracts/demo1.sol\":497:525  decodePayloadHeader(payload) */\n      tag_35\n        /* \"contracts/demo1.sol\":517:524  payload */\n      dup6\n        /* \"contracts/demo1.sol\":497:516  decodePayloadHeader */\n      tag_36\n        /* \"contracts/demo1.sol\":497:525  decodePayloadHeader(payload) */\n      jump\t// in\n    tag_35:\n        /* \"contracts/demo1.sol\":490:525  return decodePayloadHeader(payload) */\n      swap4\n      pop\n      swap4\n      pop\n      swap4\n      pop\n      swap4\n      pop\n        /* \"contracts/demo1.sol\":380:533  function getDecodekey(bytes memory payload) public view returns(bool, uint8, uint256, bytes memory){\r... */\n      swap2\n      swap4\n      pop\n      swap2\n      swap4\n      jump\t// out\n        /* \"contracts/demo1.sol\":151:177  uint64 public data2 = 3345 */\n    tag_28:\n      0x00\n      dup1\n      swap1\n      sload\n      swap1\n      0x0100\n      exp\n      swap1\n      div\n      0xffffffffffffffff\n      and\n      dup2\n      jump\t// out\n        /* \"contracts/demo1.sol\":184:207  uint8 public data3 = 30 */\n    tag_30:\n      0x00\n      0x08\n      swap1\n      sload\n      swap1\n      0x0100\n      exp\n      swap1\n      div\n      0xff\n      and\n      dup2\n      jump\t// out\n        /* \"contracts/demo1.sol\":543:1110  function generateKey(uint64 _sequence, uint8 _channelID) internal pure returns(bytes memory) {\r... */\n    tag_33:\n        /* \"contracts/demo1.sol\":622:634  bytes memory */\n      0x60\n        /* \"contracts/demo1.sol\":647:681  uint256 fullCROSS_CHAIN_KEY_PREFIX */\n      0x00\n        /* \"contracts/demo1.sol\":709:719  _channelID */\n      dup3\n        /* \"contracts/demo1.sol\":684:719  CROSS_CHAIN_KEY_PREFIX | _channelID */\n      0xff\n      and\n        /* \"contracts/demo1.sol\":132:142  0x01006000 */\n      0x01006000\n        /* \"contracts/demo1.sol\":684:719  CROSS_CHAIN_KEY_PREFIX | _channelID */\n      or\n        /* \"contracts/demo1.sol\":647:719  uint256 fullCROSS_CHAIN_KEY_PREFIX = CROSS_CHAIN_KEY_PREFIX | _channelID */\n      swap1\n      pop\n        /* \"contracts/demo1.sol\":730:746  bytes memory key */\n      0x60\n        /* \"contracts/demo1.sol\":759:761  14 */\n      0x0e\n        /* \"contracts/demo1.sol\":749:762  new bytes(14) */\n      mload(0x40)\n      swap1\n      dup1\n      dup3\n      mstore\n      dup1\n      0x1f\n      add\n      not(0x1f)\n      and\n      0x20\n      add\n      dup3\n      add\n      0x40\n      mstore\n      dup1\n      iszero\n      tag_38\n      jumpi\n      dup2\n      0x20\n      add\n        /* \"--CODEGEN--\":29:30   */\n      0x01\n        /* \"--CODEGEN--\":21:27   */\n      dup3\n        /* \"--CODEGEN--\":17:31   */\n      mul\n        /* \"--CODEGEN--\":116:120   */\n      dup1\n        /* \"--CODEGEN--\":104:114   */\n      codesize\n        /* \"--CODEGEN--\":96:102   */\n      dup4\n        /* \"--CODEGEN--\":87:121   */\n      codecopy\n        /* \"--CODEGEN--\":147:151   */\n      dup1\n        /* \"--CODEGEN--\":139:145   */\n      dup3\n        /* \"--CODEGEN--\":135:152   */\n      add\n        /* \"--CODEGEN--\":125:152   */\n      swap2\n      pop\n        /* \"--CODEGEN--\":0:156   */\n      pop\n        /* \"contracts/demo1.sol\":749:762  new bytes(14) */\n      swap1\n      pop\n    tag_38:\n      pop\n        /* \"contracts/demo1.sol\":730:762  bytes memory key = new bytes(14) */\n      swap1\n      pop\n        /* \"contracts/demo1.sol\":773:784  uint256 ptr */\n      0x00\n        /* \"contracts/demo1.sol\":831:833  14 */\n      0x0e\n        /* \"contracts/demo1.sol\":826:829  key */\n      dup3\n        /* \"contracts/demo1.sol\":822:834  add(key, 14) */\n      add\n        /* \"contracts/demo1.sol\":815:834  ptr := add(key, 14) */\n      swap1\n      pop\n        /* \"contracts/demo1.sol\":887:896  _sequence */\n      dup6\n        /* \"contracts/demo1.sol\":882:885  ptr */\n      dup2\n        /* \"contracts/demo1.sol\":875:897  mstore(ptr, _sequence) */\n      mstore\n        /* \"contracts/demo1.sol\":925:926  8 */\n      0x08\n        /* \"contracts/demo1.sol\":918:926  ptr -= 8 */\n      dup2\n      sub\n      swap1\n      pop\n        /* \"contracts/demo1.sol\":969:995  fullCROSS_CHAIN_KEY_PREFIX */\n      dup3\n        /* \"contracts/demo1.sol\":964:967  ptr */\n      dup2\n        /* \"contracts/demo1.sol\":957:996  mstore(ptr, fullCROSS_CHAIN_KEY_PREFIX) */\n      mstore\n        /* \"contracts/demo1.sol\":1024:1025  6 */\n      0x06\n        /* \"contracts/demo1.sol\":1017:1025  ptr -= 6 */\n      dup2\n      sub\n      swap1\n      pop\n        /* \"contracts/demo1.sol\":1068:1070  14 */\n      0x0e\n        /* \"contracts/demo1.sol\":1063:1066  ptr */\n      dup2\n        /* \"contracts/demo1.sol\":1056:1071  mstore(ptr, 14) */\n      mstore\n        /* \"contracts/demo1.sol\":1099:1102  key */\n      dup2\n        /* \"contracts/demo1.sol\":1092:1102  return key */\n      swap4\n      pop\n      pop\n      pop\n      pop\n        /* \"contracts/demo1.sol\":543:1110  function generateKey(uint64 _sequence, uint8 _channelID) internal pure returns(bytes memory) {\r... */\n      swap3\n      swap2\n      pop\n      pop\n      jump\t// out\n        /* \"contracts/demo1.sol\":1118:1795  function decodePayloadHeader(bytes memory payload) internal pure returns(bool, uint8, uint256, bytes memory) {\r... */\n    tag_36:\n        /* \"contracts/demo1.sol\":1191:1195  bool */\n      0x00\n        /* \"contracts/demo1.sol\":1197:1202  uint8 */\n      dup1\n        /* \"contracts/demo1.sol\":1204:1211  uint256 */\n      0x00\n        /* \"contracts/demo1.sol\":1213:1225  bytes memory */\n      0x60\n        /* \"contracts/demo1.sol\":1255:1257  33 */\n      0x21\n        /* \"contracts/demo1.sol\":1238:1245  payload */\n      dup6\n        /* \"contracts/demo1.sol\":1238:1252  payload.length */\n      mload\n        /* \"contracts/demo1.sol\":1238:1257  payload.length < 33 */\n      lt\n        /* \"contracts/demo1.sol\":1234:1310  if (payload.length < 33) {\r... */\n      iszero\n      tag_40\n      jumpi\n        /* \"contracts/demo1.sol\":1276:1281  false */\n      0x00\n        /* \"contracts/demo1.sol\":1283:1284  0 */\n      dup1\n        /* \"contracts/demo1.sol\":1286:1287  0 */\n      0x00\n        /* \"contracts/demo1.sol\":1299:1300  0 */\n      dup1\n        /* \"contracts/demo1.sol\":1289:1301  new bytes(0) */\n      mload(0x40)\n      swap1\n      dup1\n      dup3\n      mstore\n      dup1\n      0x1f\n      add\n      not(0x1f)\n      and\n      0x20\n      add\n      dup3\n      add\n      0x40\n      mstore\n      dup1\n      iszero\n      tag_41\n      jumpi\n      dup2\n      0x20\n      add\n        /* \"--CODEGEN--\":29:30   */\n      0x01\n        /* \"--CODEGEN--\":21:27   */\n      dup3\n        /* \"--CODEGEN--\":17:31   */\n      mul\n        /* \"--CODEGEN--\":116:120   */\n      dup1\n        /* \"--CODEGEN--\":104:114   */\n      codesize\n        /* \"--CODEGEN--\":96:102   */\n      dup4\n        /* \"--CODEGEN--\":87:121   */\n      codecopy\n        /* \"--CODEGEN--\":147:151   */\n      dup1\n        /* \"--CODEGEN--\":139:145   */\n      dup3\n        /* \"--CODEGEN--\":135:152   */\n      add\n        /* \"--CODEGEN--\":125:152   */\n      swap2\n      pop\n        /* \"--CODEGEN--\":0:156   */\n      pop\n        /* \"contracts/demo1.sol\":1289:1301  new bytes(0) */\n      swap1\n      pop\n    tag_41:\n      pop\n        /* \"contracts/demo1.sol\":1268:1302  return (false, 0, 0, new bytes(0)) */\n      dup3\n      swap3\n      pop\n      dup2\n      swap2\n      pop\n      dup1\n      swap1\n      pop\n      swap4\n      pop\n      swap4\n      pop\n      swap4\n      pop\n      swap4\n      pop\n      jump(tag_39)\n        /* \"contracts/demo1.sol\":1234:1310  if (payload.length < 33) {\r... */\n    tag_40:\n        /* \"contracts/demo1.sol\":1318:1329  uint256 ptr */\n      0x00\n        /* \"contracts/demo1.sol\":1361:1368  payload */\n      dup6\n        /* \"contracts/demo1.sol\":1354:1368  ptr := payload */\n      swap1\n      pop\n        /* \"contracts/demo1.sol\":1383:1400  uint8 packageType */\n      0x00\n        /* \"contracts/demo1.sol\":1412:1413  1 */\n      0x01\n        /* \"contracts/demo1.sol\":1407:1413  ptr+=1 */\n      dup3\n      add\n      swap2\n      pop\n        /* \"contracts/demo1.sol\":1459:1462  ptr */\n      dup2\n        /* \"contracts/demo1.sol\":1453:1463  mload(ptr) */\n      mload\n        /* \"contracts/demo1.sol\":1438:1463  packageType := mload(ptr) */\n      swap1\n      pop\n        /* \"contracts/demo1.sol\":1478:1494  uint256 relayFee */\n      0x00\n        /* \"contracts/demo1.sol\":1506:1508  32 */\n      0x20\n        /* \"contracts/demo1.sol\":1501:1508  ptr+=32 */\n      dup4\n      add\n      swap3\n      pop\n        /* \"contracts/demo1.sol\":1551:1554  ptr */\n      dup3\n        /* \"contracts/demo1.sol\":1545:1555  mload(ptr) */\n      mload\n        /* \"contracts/demo1.sol\":1533:1555  relayFee := mload(ptr) */\n      swap1\n      pop\n        /* \"contracts/demo1.sol\":1575:1577  32 */\n      0x20\n        /* \"contracts/demo1.sol\":1570:1577  ptr+=32 */\n      dup4\n      add\n      swap3\n      pop\n        /* \"contracts/demo1.sol\":1584:1605  bytes memory msgBytes */\n      0x60\n        /* \"contracts/demo1.sol\":1633:1635  33 */\n      0x21\n        /* \"contracts/demo1.sol\":1618:1625  payload */\n      dup10\n        /* \"contracts/demo1.sol\":1618:1632  payload.length */\n      mload\n        /* \"contracts/demo1.sol\":1618:1635  payload.length-33 */\n      sub\n        /* \"contracts/demo1.sol\":1608:1636  new bytes(payload.length-33) */\n      mload(0x40)\n      swap1\n      dup1\n      dup3\n      mstore\n      dup1\n      0x1f\n      add\n      not(0x1f)\n      and\n      0x20\n      add\n      dup3\n      add\n      0x40\n      mstore\n      dup1\n      iszero\n      tag_42\n      jumpi\n      dup2\n      0x20\n      add\n        /* \"--CODEGEN--\":29:30   */\n      0x01\n        /* \"--CODEGEN--\":21:27   */\n      dup3\n        /* \"--CODEGEN--\":17:31   */\n      mul\n        /* \"--CODEGEN--\":116:120   */\n      dup1\n        /* \"--CODEGEN--\":104:114   */\n      codesize\n        /* \"--CODEGEN--\":96:102   */\n      dup4\n        /* \"--CODEGEN--\":87:121   */\n      codecopy\n        /* \"--CODEGEN--\":147:151   */\n      dup1\n        /* \"--CODEGEN--\":139:145   */\n      dup3\n        /* \"--CODEGEN--\":135:152   */\n      add\n        /* \"--CODEGEN--\":125:152   */\n      swap2\n      pop\n        /* \"--CODEGEN--\":0:156   */\n      pop\n        /* \"contracts/demo1.sol\":1608:1636  new bytes(payload.length-33) */\n      swap1\n      pop\n    tag_42:\n      pop\n        /* \"contracts/demo1.sol\":1584:1636  bytes memory msgBytes = new bytes(payload.length-33) */\n      swap1\n      pop\n        /* \"contracts/demo1.sol\":1644:1655  uint256 dst */\n      0x00\n        /* \"contracts/demo1.sol\":1661:1687  Memory.fromBytes(msgBytes) */\n      tag_43\n        /* \"contracts/demo1.sol\":1678:1686  msgBytes */\n      dup3\n        /* \"contracts/demo1.sol\":1661:1677  Memory.fromBytes */\n      tag_44\n        /* \"contracts/demo1.sol\":1661:1687  Memory.fromBytes(msgBytes) */\n      jump\t// in\n    tag_43:\n        /* \"contracts/demo1.sol\":1643:1687  (uint256 dst, ) = Memory.fromBytes(msgBytes) */\n      pop\n      swap1\n      pop\n        /* \"contracts/demo1.sol\":1694:1734  Memory.copy(ptr, dst, payload.length-33) */\n      tag_45\n        /* \"contracts/demo1.sol\":1706:1709  ptr */\n      dup6\n        /* \"contracts/demo1.sol\":1711:1714  dst */\n      dup3\n        /* \"contracts/demo1.sol\":1731:1733  33 */\n      0x21\n        /* \"contracts/demo1.sol\":1716:1723  payload */\n      dup14\n        /* \"contracts/demo1.sol\":1716:1730  payload.length */\n      mload\n        /* \"contracts/demo1.sol\":1716:1733  payload.length-33 */\n      sub\n        /* \"contracts/demo1.sol\":1694:1705  Memory.copy */\n      tag_46\n        /* \"contracts/demo1.sol\":1694:1734  Memory.copy(ptr, dst, payload.length-33) */\n      jump\t// in\n    tag_45:\n        /* \"contracts/demo1.sol\":1751:1755  true */\n      0x01\n        /* \"contracts/demo1.sol\":1757:1768  packageType */\n      dup5\n        /* \"contracts/demo1.sol\":1770:1778  relayFee */\n      dup5\n        /* \"contracts/demo1.sol\":1780:1788  msgBytes */\n      dup5\n        /* \"contracts/demo1.sol\":1743:1789  return (true, packageType, relayFee, msgBytes) */\n      swap9\n      pop\n      swap9\n      pop\n      swap9\n      pop\n      swap9\n      pop\n      pop\n      pop\n      pop\n      pop\n      pop\n        /* \"contracts/demo1.sol\":1118:1795  function decodePayloadHeader(bytes memory payload) internal pure returns(bool, uint8, uint256, bytes memory) {\r... */\n    tag_39:\n      swap2\n      swap4\n      pop\n      swap2\n      swap4\n      jump\t// out\n        /* \"contracts/Memory.sol\":2843:3045  function fromBytes(bytes memory bts) internal pure returns (uint addr, uint len) {\r... */\n    tag_44:\n        /* \"contracts/Memory.sol\":2903:2912  uint addr */\n      0x00\n        /* \"contracts/Memory.sol\":2914:2922  uint len */\n      dup1\n        /* \"contracts/Memory.sol\":2941:2944  bts */\n      dup3\n        /* \"contracts/Memory.sol\":2941:2951  bts.length */\n      mload\n        /* \"contracts/Memory.sol\":2935:2951  len = bts.length */\n      swap1\n      pop\n        /* \"contracts/Memory.sol\":3024:3026  32 */\n      0x20\n        /* \"contracts/Memory.sol\":2998:3001  bts */\n      dup4\n        /* \"contracts/Memory.sol\":2994:3027  add(bts, /*BYTES_HEADER_SIZE*/32) */\n      add\n        /* \"contracts/Memory.sol\":2986:3027  addr := add(bts, /*BYTES_HEADER_SIZE*/32) */\n      swap2\n      pop\n        /* \"contracts/Memory.sol\":2971:3038  {\r... */\n      swap2\n      pop\n      swap2\n      jump\t// out\n        /* \"contracts/Memory.sol\":1650:2250  function copy(uint src, uint dest, uint len) internal pure {\r... */\n    tag_46:\n        /* \"contracts/Memory.sol\":1771:1970  for (; len >= WORD_SIZE; len -= WORD_SIZE) {\r... */\n    tag_49:\n        /* \"contracts/Memory.sol\":129:131  32 */\n      0x20\n        /* \"contracts/Memory.sol\":1778:1781  len */\n      dup2\n        /* \"contracts/Memory.sol\":1778:1794  len >= WORD_SIZE */\n      lt\n        /* \"contracts/Memory.sol\":1771:1970  for (; len >= WORD_SIZE; len -= WORD_SIZE) {\r... */\n      tag_50\n      jumpi\n        /* \"contracts/Memory.sol\":1876:1879  src */\n      dup3\n        /* \"contracts/Memory.sol\":1870:1880  mload(src) */\n      mload\n        /* \"contracts/Memory.sol\":1864:1868  dest */\n      dup3\n        /* \"contracts/Memory.sol\":1857:1881  mstore(dest, mload(src)) */\n      mstore\n        /* \"contracts/Memory.sol\":129:131  32 */\n      0x20\n        /* \"contracts/Memory.sol\":1910:1927  dest += WORD_SIZE */\n      dup3\n      add\n      swap2\n      pop\n        /* \"contracts/Memory.sol\":129:131  32 */\n      0x20\n        /* \"contracts/Memory.sol\":1942:1958  src += WORD_SIZE */\n      dup4\n      add\n      swap3\n      pop\n        /* \"contracts/Memory.sol\":129:131  32 */\n      0x20\n        /* \"contracts/Memory.sol\":1796:1812  len -= WORD_SIZE */\n      dup2\n      sub\n      swap1\n      pop\n        /* \"contracts/Memory.sol\":1771:1970  for (; len >= WORD_SIZE; len -= WORD_SIZE) {\r... */\n      jump(tag_49)\n    tag_50:\n        /* \"contracts/Memory.sol\":2015:2024  uint mask */\n      0x00\n        /* \"contracts/Memory.sol\":2054:2055  1 */\n      0x01\n        /* \"contracts/Memory.sol\":2047:2050  len */\n      dup3\n        /* \"contracts/Memory.sol\":129:131  32 */\n      0x20\n        /* \"contracts/Memory.sol\":2035:2050  WORD_SIZE - len */\n      sub\n        /* \"contracts/Memory.sol\":2027:2030  256 */\n      0x0100\n        /* \"contracts/Memory.sol\":2027:2051  256 ** (WORD_SIZE - len) */\n      exp\n        /* \"contracts/Memory.sol\":2027:2055  256 ** (WORD_SIZE - len) - 1 */\n      sub\n        /* \"contracts/Memory.sol\":2015:2055  uint mask = 256 ** (WORD_SIZE - len) - 1 */\n      swap1\n      pop\n        /* \"contracts/Memory.sol\":2125:2129  mask */\n      dup1\n        /* \"contracts/Memory.sol\":2121:2130  not(mask) */\n      not\n        /* \"contracts/Memory.sol\":2115:2118  src */\n      dup5\n        /* \"contracts/Memory.sol\":2109:2119  mload(src) */\n      mload\n        /* \"contracts/Memory.sol\":2105:2131  and(mload(src), not(mask)) */\n      and\n        /* \"contracts/Memory.sol\":2178:2182  mask */\n      dup2\n        /* \"contracts/Memory.sol\":2171:2175  dest */\n      dup5\n        /* \"contracts/Memory.sol\":2165:2176  mload(dest) */\n      mload\n        /* \"contracts/Memory.sol\":2161:2183  and(mload(dest), mask) */\n      and\n        /* \"contracts/Memory.sol\":2223:2230  srcpart */\n      dup2\n        /* \"contracts/Memory.sol\":2213:2221  destpart */\n      dup2\n        /* \"contracts/Memory.sol\":2210:2231  or(destpart, srcpart) */\n      or\n        /* \"contracts/Memory.sol\":2204:2208  dest */\n      dup6\n        /* \"contracts/Memory.sol\":2197:2232  mstore(dest, or(destpart, srcpart)) */\n      mstore\n        /* \"contracts/Memory.sol\":2075:2243  {\r... */\n      pop\n      pop\n      pop\n      pop\n      pop\n      pop\n      jump\t// out\n\n    auxdata: 0xa265627a7a72315820715f7c3a601962dc060e6aa3eba0b39dc2d691f463667be9f667ed103652cc0464736f6c63430005100032\n}\n",
				"bytecode": {
					"linkReferences": {},
					"object": "6080604052610d116000806101000a81548167ffffffffffffffff021916908367ffffffffffffffff160217905550601e600060086101000a81548160ff021916908360ff16021790555034801561005657600080fd5b50610541806100666000396000f3fe608060405234801561001057600080fd5b50600436106100575760003560e01c806373da6c221461005c578063863fe4ab1461011a5780639539ded914610138578063e3a7fd751461028b578063fc26b0ab146102bd575b600080fd5b61009f6004803603604081101561007257600080fd5b81019080803567ffffffffffffffff169060200190929190803560ff1690602001909291905050506102e1565b6040518080602001828103825283818151815260200191508051906020019080838360005b838110156100df5780820151818401526020810190506100c4565b50505050905090810190601f16801561010c5780820380516001836020036101000a031916815260200191505b509250505060405180910390f35b6101226102f5565b6040518082815260200191505060405180910390f35b6101f16004803603602081101561014e57600080fd5b810190808035906020019064010000000081111561016b57600080fd5b82018360208201111561017d57600080fd5b8035906020019184600183028401116401000000008311171561019f57600080fd5b91908080601f016020809104026020016040519081016040528093929190818152602001838380828437600081840152601f19601f8201169050808301925050505050505091929192905050506102fd565b60405180851515151581526020018460ff1660ff16815260200183815260200180602001828103825283818151815260200191508051906020019080838360005b8381101561024d578082015181840152602081019050610232565b50505050905090810190601f16801561027a5780820380516001836020036101000a031916815260200191505b509550505050505060405180910390f35b61029361031c565b604051808267ffffffffffffffff1667ffffffffffffffff16815260200191505060405180910390f35b6102c5610335565b604051808260ff1660ff16815260200191505060405180910390f35b60606102ed8383610348565b905092915050565b630100600081565b6000806000606061030d856103bb565b93509350935093509193509193565b6000809054906101000a900467ffffffffffffffff1681565b600060089054906101000a900460ff1681565b606060008260ff1663010060001790506060600e6040519080825280601f01601f19166020018201604052801561038e5781602001600182028038833980820191505090505b5090506000600e82019050858152600881039050828152600681039050600e815281935050505092915050565b6000806000606060218551101561041b576000806000806040519080825280601f01601f1916602001820160405280156104045781602001600182028038833980820191505090505b5082925081915080905093509350935093506104aa565b6000859050600060018201915081519050600060208301925082519050602083019250606060218951036040519080825280601f01601f1916602001820160405280156104775781602001600182028038833980820191505090505b5090506000610485826104b1565b509050610497858260218d51036104c3565b6001848484985098509850985050505050505b9193509193565b60008082519050602083019150915091565b5b602081106104e757825182526020820191506020830192506020810390506104c4565b60006001826020036101000a039050801984511681845116818117855250505050505056fea265627a7a72315820715f7c3a601962dc060e6aa3eba0b39dc2d691f463667be9f667ed103652cc0464736f6c63430005100032",
					"opcodes": "PUSH1 0x80 PUSH1 0x40 MSTORE PUSH2 0xD11 PUSH1 0x0 DUP1 PUSH2 0x100 EXP DUP2 SLOAD DUP2 PUSH8 0xFFFFFFFFFFFFFFFF MUL NOT AND SWAP1 DUP4 PUSH8 0xFFFFFFFFFFFFFFFF AND MUL OR SWAP1 SSTORE POP PUSH1 0x1E PUSH1 0x0 PUSH1 0x8 PUSH2 0x100 EXP DUP2 SLOAD DUP2 PUSH1 0xFF MUL NOT AND SWAP1 DUP4 PUSH1 0xFF AND MUL OR SWAP1 SSTORE POP CALLVALUE DUP1 ISZERO PUSH2 0x56 JUMPI PUSH1 0x0 DUP1 REVERT JUMPDEST POP PUSH2 0x541 DUP1 PUSH2 0x66 PUSH1 0x0 CODECOPY PUSH1 0x0 RETURN INVALID PUSH1 0x80 PUSH1 0x40 MSTORE CALLVALUE DUP1 ISZERO PUSH2 0x10 JUMPI PUSH1 0x0 DUP1 REVERT JUMPDEST POP PUSH1 0x4 CALLDATASIZE LT PUSH2 0x57 JUMPI PUSH1 0x0 CALLDATALOAD PUSH1 0xE0 SHR DUP1 PUSH4 0x73DA6C22 EQ PUSH2 0x5C JUMPI DUP1 PUSH4 0x863FE4AB EQ PUSH2 0x11A JUMPI DUP1 PUSH4 0x9539DED9 EQ PUSH2 0x138 JUMPI DUP1 PUSH4 0xE3A7FD75 EQ PUSH2 0x28B JUMPI DUP1 PUSH4 0xFC26B0AB EQ PUSH2 0x2BD JUMPI JUMPDEST PUSH1 0x0 DUP1 REVERT JUMPDEST PUSH2 0x9F PUSH1 0x4 DUP1 CALLDATASIZE SUB PUSH1 0x40 DUP2 LT ISZERO PUSH2 0x72 JUMPI PUSH1 0x0 DUP1 REVERT JUMPDEST DUP2 ADD SWAP1 DUP1 DUP1 CALLDATALOAD PUSH8 0xFFFFFFFFFFFFFFFF AND SWAP1 PUSH1 0x20 ADD SWAP1 SWAP3 SWAP2 SWAP1 DUP1 CALLDATALOAD PUSH1 0xFF AND SWAP1 PUSH1 0x20 ADD SWAP1 SWAP3 SWAP2 SWAP1 POP POP POP PUSH2 0x2E1 JUMP JUMPDEST PUSH1 0x40 MLOAD DUP1 DUP1 PUSH1 0x20 ADD DUP3 DUP2 SUB DUP3 MSTORE DUP4 DUP2 DUP2 MLOAD DUP2 MSTORE PUSH1 0x20 ADD SWAP2 POP DUP1 MLOAD SWAP1 PUSH1 0x20 ADD SWAP1 DUP1 DUP4 DUP4 PUSH1 0x0 JUMPDEST DUP4 DUP2 LT ISZERO PUSH2 0xDF JUMPI DUP1 DUP3 ADD MLOAD DUP2 DUP5 ADD MSTORE PUSH1 0x20 DUP2 ADD SWAP1 POP PUSH2 0xC4 JUMP JUMPDEST POP POP POP POP SWAP1 POP SWAP1 DUP2 ADD SWAP1 PUSH1 0x1F AND DUP1 ISZERO PUSH2 0x10C JUMPI DUP1 DUP3 SUB DUP1 MLOAD PUSH1 0x1 DUP4 PUSH1 0x20 SUB PUSH2 0x100 EXP SUB NOT AND DUP2 MSTORE PUSH1 0x20 ADD SWAP2 POP JUMPDEST POP SWAP3 POP POP POP PUSH1 0x40 MLOAD DUP1 SWAP2 SUB SWAP1 RETURN JUMPDEST PUSH2 0x122 PUSH2 0x2F5 JUMP JUMPDEST PUSH1 0x40 MLOAD DUP1 DUP3 DUP2 MSTORE PUSH1 0x20 ADD SWAP2 POP POP PUSH1 0x40 MLOAD DUP1 SWAP2 SUB SWAP1 RETURN JUMPDEST PUSH2 0x1F1 PUSH1 0x4 DUP1 CALLDATASIZE SUB PUSH1 0x20 DUP2 LT ISZERO PUSH2 0x14E JUMPI PUSH1 0x0 DUP1 REVERT JUMPDEST DUP2 ADD SWAP1 DUP1 DUP1 CALLDATALOAD SWAP1 PUSH1 0x20 ADD SWAP1 PUSH5 0x100000000 DUP2 GT ISZERO PUSH2 0x16B JUMPI PUSH1 0x0 DUP1 REVERT JUMPDEST DUP3 ADD DUP4 PUSH1 0x20 DUP3 ADD GT ISZERO PUSH2 0x17D JUMPI PUSH1 0x0 DUP1 REVERT JUMPDEST DUP1 CALLDATALOAD SWAP1 PUSH1 0x20 ADD SWAP2 DUP5 PUSH1 0x1 DUP4 MUL DUP5 ADD GT PUSH5 0x100000000 DUP4 GT OR ISZERO PUSH2 0x19F JUMPI PUSH1 0x0 DUP1 REVERT JUMPDEST SWAP2 SWAP1 DUP1 DUP1 PUSH1 0x1F ADD PUSH1 0x20 DUP1 SWAP2 DIV MUL PUSH1 0x20 ADD PUSH1 0x40 MLOAD SWAP1 DUP2 ADD PUSH1 0x40 MSTORE DUP1 SWAP4 SWAP3 SWAP2 SWAP1 DUP2 DUP2 MSTORE PUSH1 0x20 ADD DUP4 DUP4 DUP1 DUP3 DUP5 CALLDATACOPY PUSH1 0x0 DUP2 DUP5 ADD MSTORE PUSH1 0x1F NOT PUSH1 0x1F DUP3 ADD AND SWAP1 POP DUP1 DUP4 ADD SWAP3 POP POP POP POP POP POP POP SWAP2 SWAP3 SWAP2 SWAP3 SWAP1 POP POP POP PUSH2 0x2FD JUMP JUMPDEST PUSH1 0x40 MLOAD DUP1 DUP6 ISZERO ISZERO ISZERO ISZERO DUP2 MSTORE PUSH1 0x20 ADD DUP5 PUSH1 0xFF AND PUSH1 0xFF AND DUP2 MSTORE PUSH1 0x20 ADD DUP4 DUP2 MSTORE PUSH1 0x20 ADD DUP1 PUSH1 0x20 ADD DUP3 DUP2 SUB DUP3 MSTORE DUP4 DUP2 DUP2 MLOAD DUP2 MSTORE PUSH1 0x20 ADD SWAP2 POP DUP1 MLOAD SWAP1 PUSH1 0x20 ADD SWAP1 DUP1 DUP4 DUP4 PUSH1 0x0 JUMPDEST DUP4 DUP2 LT ISZERO PUSH2 0x24D JUMPI DUP1 DUP3 ADD MLOAD DUP2 DUP5 ADD MSTORE PUSH1 0x20 DUP2 ADD SWAP1 POP PUSH2 0x232 JUMP JUMPDEST POP POP POP POP SWAP1 POP SWAP1 DUP2 ADD SWAP1 PUSH1 0x1F AND DUP1 ISZERO PUSH2 0x27A JUMPI DUP1 DUP3 SUB DUP1 MLOAD PUSH1 0x1 DUP4 PUSH1 0x20 SUB PUSH2 0x100 EXP SUB NOT AND DUP2 MSTORE PUSH1 0x20 ADD SWAP2 POP JUMPDEST POP SWAP6 POP POP POP POP POP POP PUSH1 0x40 MLOAD DUP1 SWAP2 SUB SWAP1 RETURN JUMPDEST PUSH2 0x293 PUSH2 0x31C JUMP JUMPDEST PUSH1 0x40 MLOAD DUP1 DUP3 PUSH8 0xFFFFFFFFFFFFFFFF AND PUSH8 0xFFFFFFFFFFFFFFFF AND DUP2 MSTORE PUSH1 0x20 ADD SWAP2 POP POP PUSH1 0x40 MLOAD DUP1 SWAP2 SUB SWAP1 RETURN JUMPDEST PUSH2 0x2C5 PUSH2 0x335 JUMP JUMPDEST PUSH1 0x40 MLOAD DUP1 DUP3 PUSH1 0xFF AND PUSH1 0xFF AND DUP2 MSTORE PUSH1 0x20 ADD SWAP2 POP POP PUSH1 0x40 MLOAD DUP1 SWAP2 SUB SWAP1 RETURN JUMPDEST PUSH1 0x60 PUSH2 0x2ED DUP4 DUP4 PUSH2 0x348 JUMP JUMPDEST SWAP1 POP SWAP3 SWAP2 POP POP JUMP JUMPDEST PUSH4 0x1006000 DUP2 JUMP JUMPDEST PUSH1 0x0 DUP1 PUSH1 0x0 PUSH1 0x60 PUSH2 0x30D DUP6 PUSH2 0x3BB JUMP JUMPDEST SWAP4 POP SWAP4 POP SWAP4 POP SWAP4 POP SWAP2 SWAP4 POP SWAP2 SWAP4 JUMP JUMPDEST PUSH1 0x0 DUP1 SWAP1 SLOAD SWAP1 PUSH2 0x100 EXP SWAP1 DIV PUSH8 0xFFFFFFFFFFFFFFFF AND DUP2 JUMP JUMPDEST PUSH1 0x0 PUSH1 0x8 SWAP1 SLOAD SWAP1 PUSH2 0x100 EXP SWAP1 DIV PUSH1 0xFF AND DUP2 JUMP JUMPDEST PUSH1 0x60 PUSH1 0x0 DUP3 PUSH1 0xFF AND PUSH4 0x1006000 OR SWAP1 POP PUSH1 0x60 PUSH1 0xE PUSH1 0x40 MLOAD SWAP1 DUP1 DUP3 MSTORE DUP1 PUSH1 0x1F ADD PUSH1 0x1F NOT AND PUSH1 0x20 ADD DUP3 ADD PUSH1 0x40 MSTORE DUP1 ISZERO PUSH2 0x38E JUMPI DUP2 PUSH1 0x20 ADD PUSH1 0x1 DUP3 MUL DUP1 CODESIZE DUP4 CODECOPY DUP1 DUP3 ADD SWAP2 POP POP SWAP1 POP JUMPDEST POP SWAP1 POP PUSH1 0x0 PUSH1 0xE DUP3 ADD SWAP1 POP DUP6 DUP2 MSTORE PUSH1 0x8 DUP2 SUB SWAP1 POP DUP3 DUP2 MSTORE PUSH1 0x6 DUP2 SUB SWAP1 POP PUSH1 0xE DUP2 MSTORE DUP2 SWAP4 POP POP POP POP SWAP3 SWAP2 POP POP JUMP JUMPDEST PUSH1 0x0 DUP1 PUSH1 0x0 PUSH1 0x60 PUSH1 0x21 DUP6 MLOAD LT ISZERO PUSH2 0x41B JUMPI PUSH1 0x0 DUP1 PUSH1 0x0 DUP1 PUSH1 0x40 MLOAD SWAP1 DUP1 DUP3 MSTORE DUP1 PUSH1 0x1F ADD PUSH1 0x1F NOT AND PUSH1 0x20 ADD DUP3 ADD PUSH1 0x40 MSTORE DUP1 ISZERO PUSH2 0x404 JUMPI DUP2 PUSH1 0x20 ADD PUSH1 0x1 DUP3 MUL DUP1 CODESIZE DUP4 CODECOPY DUP1 DUP3 ADD SWAP2 POP POP SWAP1 POP JUMPDEST POP DUP3 SWAP3 POP DUP2 SWAP2 POP DUP1 SWAP1 POP SWAP4 POP SWAP4 POP SWAP4 POP SWAP4 POP PUSH2 0x4AA JUMP JUMPDEST PUSH1 0x0 DUP6 SWAP1 POP PUSH1 0x0 PUSH1 0x1 DUP3 ADD SWAP2 POP DUP2 MLOAD SWAP1 POP PUSH1 0x0 PUSH1 0x20 DUP4 ADD SWAP3 POP DUP3 MLOAD SWAP1 POP PUSH1 0x20 DUP4 ADD SWAP3 POP PUSH1 0x60 PUSH1 0x21 DUP10 MLOAD SUB PUSH1 0x40 MLOAD SWAP1 DUP1 DUP3 MSTORE DUP1 PUSH1 0x1F ADD PUSH1 0x1F NOT AND PUSH1 0x20 ADD DUP3 ADD PUSH1 0x40 MSTORE DUP1 ISZERO PUSH2 0x477 JUMPI DUP2 PUSH1 0x20 ADD PUSH1 0x1 DUP3 MUL DUP1 CODESIZE DUP4 CODECOPY DUP1 DUP3 ADD SWAP2 POP POP SWAP1 POP JUMPDEST POP SWAP1 POP PUSH1 0x0 PUSH2 0x485 DUP3 PUSH2 0x4B1 JUMP JUMPDEST POP SWAP1 POP PUSH2 0x497 DUP6 DUP3 PUSH1 0x21 DUP14 MLOAD SUB PUSH2 0x4C3 JUMP JUMPDEST PUSH1 0x1 DUP5 DUP5 DUP5 SWAP9 POP SWAP9 POP SWAP9 POP SWAP9 POP POP POP POP POP POP JUMPDEST SWAP2 SWAP4 POP SWAP2 SWAP4 JUMP JUMPDEST PUSH1 0x0 DUP1 DUP3 MLOAD SWAP1 POP PUSH1 0x20 DUP4 ADD SWAP2 POP SWAP2 POP SWAP2 JUMP JUMPDEST JUMPDEST PUSH1 0x20 DUP2 LT PUSH2 0x4E7 JUMPI DUP3 MLOAD DUP3 MSTORE PUSH1 0x20 DUP3 ADD SWAP2 POP PUSH1 0x20 DUP4 ADD SWAP3 POP PUSH1 0x20 DUP2 SUB SWAP1 POP PUSH2 0x4C4 JUMP JUMPDEST PUSH1 0x0 PUSH1 0x1 DUP3 PUSH1 0x20 SUB PUSH2 0x100 EXP SUB SWAP1 POP DUP1 NOT DUP5 MLOAD AND DUP2 DUP5 MLOAD AND DUP2 DUP2 OR DUP6 MSTORE POP POP POP POP POP POP JUMP INVALID LOG2 PUSH6 0x627A7A723158 KECCAK256 PUSH18 0x5F7C3A601962DC060E6AA3EBA0B39DC2D691 DELEGATECALL PUSH4 0x667BE9F6 PUSH8 0xED103652CC046473 PUSH16 0x6C634300051000320000000000000000 "
				},
				"gasEstimates": {
					"creation": {
						"codeDepositCost": "269000",
						"executionCost": "42096",
						"totalCost": "311096"
					},
					"external": {
						"CROSS_CHAIN_KEY_PREFIX()": "205",
						"data2()": "1097",
						"data3()": "1169",
						"getDecodekey(bytes)": "infinite",
						"getGeratekey(uint64,uint8)": "infinite"
					},
					"internal": {
						"decodePayloadHeader(bytes memory)": "infinite",
						"generateKey(uint64,uint8)": "infinite"
					}
				},
				"methodIdentifiers": {
					"CROSS_CHAIN_KEY_PREFIX()": "863fe4ab",
					"data2()": "e3a7fd75",
					"data3()": "fc26b0ab",
					"getDecodekey(bytes)": "9539ded9",
					"getGeratekey(uint64,uint8)": "73da6c22"
				}
			},
			"userdoc": {
				"methods": {}
			}
		}
	}
}