{
	"contracts/demo2.sol": {
		"demo2": {
			"abi": [
				{
					"inputs": [],
					"name": "data1",
					"outputs": [
						{
							"internalType": "bytes",
							"name": "",
							"type": "bytes"
						}
					],
					"stateMutability": "view",
					"type": "function"
				},
				{
					"inputs": [],
					"name": "data2",
					"outputs": [
						{
							"internalType": "bytes32",
							"name": "",
							"type": "bytes32"
						}
					],
					"stateMutability": "view",
					"type": "function"
				},
				{
					"inputs": [
						{
							"internalType": "uint256",
							"name": "length",
							"type": "uint256"
						},
						{
							"internalType": "uint256",
							"name": "offset",
							"type": "uint256"
						}
					],
					"name": "getData",
					"outputs": [
						{
							"internalType": "bytes",
							"name": "",
							"type": "bytes"
						}
					],
					"stateMutability": "view",
					"type": "function"
				}
			],
			"devdoc": {
				"methods": {}
			},
			"evm": {
				"assembly": "    /* \"contracts/demo2.sol\":38:4499  contract demo2 {\r... */\n  mstore(0x40, 0x80)\n    /* \"contracts/demo2.sol\":60:129  bytes public data1 = \"NALEHHJSGDSDGHJSDHSUHDJSHDJSHJSHJSHDSJDHJONGVO\" */\n  mload(0x40)\n  dup1\n  0x60\n  add\n  0x40\n  mstore\n  dup1\n  0x2e\n  dup2\n  mstore\n  0x20\n  add\n  data_4887836e294a2761413359597244d307bbe3f94827f6160d9e1a399e00e2d1be\n  0x2e\n  swap2\n  codecopy\n  0x00\n  swap1\n  dup1\n  mload\n  swap1\n  0x20\n  add\n  swap1\n  tag_1\n  swap3\n  swap2\n  swap1\n  tag_2\n  jump\t// in\ntag_1:\n  pop\n    /* \"contracts/demo2.sol\":136:183  bytes32 public data2 = \"LEHONGVOwjnfvj3weh8vKJ\" */\n  sstore(0x01, 0x4c45484f4e47564f776a6e66766a3377656838764b4a00000000000000000000)\n    /* \"contracts/demo2.sol\":38:4499  contract demo2 {\r... */\n  callvalue\n    /* \"--CODEGEN--\":5:14   */\n  dup1\n    /* \"--CODEGEN--\":2:4   */\n  iszero\n  tag_3\n  jumpi\n    /* \"--CODEGEN--\":27:28   */\n  0x00\n    /* \"--CODEGEN--\":24:25   */\n  dup1\n    /* \"--CODEGEN--\":17:29   */\n  revert\n    /* \"--CODEGEN--\":2:4   */\ntag_3:\n    /* \"contracts/demo2.sol\":38:4499  contract demo2 {\r... */\n  pop\n  jump(tag_4)\ntag_2:\n  dup3\n  dup1\n  sload\n  0x01\n  dup2\n  0x01\n  and\n  iszero\n  0x0100\n  mul\n  sub\n  and\n  0x02\n  swap1\n  div\n  swap1\n  0x00\n  mstore\n  keccak256(0x00, 0x20)\n  swap1\n  0x1f\n  add\n  0x20\n  swap1\n  div\n  dup2\n  add\n  swap3\n  dup3\n  0x1f\n  lt\n  tag_6\n  jumpi\n  dup1\n  mload\n  not(0xff)\n  and\n  dup4\n  dup1\n  add\n  or\n  dup6\n  sstore\n  jump(tag_5)\ntag_6:\n  dup3\n  dup1\n  add\n  0x01\n  add\n  dup6\n  sstore\n  dup3\n  iszero\n  tag_5\n  jumpi\n  swap2\n  dup3\n  add\ntag_7:\n  dup3\n  dup2\n  gt\n  iszero\n  tag_8\n  jumpi\n  dup3\n  mload\n  dup3\n  sstore\n  swap2\n  0x20\n  add\n  swap2\n  swap1\n  0x01\n  add\n  swap1\n  jump(tag_7)\ntag_8:\ntag_5:\n  pop\n  swap1\n  pop\n  tag_9\n  swap2\n  swap1\n  tag_10\n  jump\t// in\ntag_9:\n  pop\n  swap1\n  jump\t// out\ntag_10:\n  tag_11\n  swap2\n  swap1\ntag_12:\n  dup1\n  dup3\n  gt\n  iszero\n  tag_13\n  jumpi\n  0x00\n  dup2\n  0x00\n  swap1\n  sstore\n  pop\n  0x01\n  add\n  jump(tag_12)\ntag_13:\n  pop\n  swap1\n  jump\ntag_11:\n  swap1\n  jump\t// out\ntag_4:\n  dataSize(sub_0)\n  dup1\n  dataOffset(sub_0)\n  0x00\n  codecopy\n  0x00\n  return\nstop\ndata_4887836e294a2761413359597244d307bbe3f94827f6160d9e1a399e00e2d1be 4e414c4548484a534744534447484a534448535548444a5348444a53484a53484a534844534a44484a4f4e47564f\n\nsub_0: assembly {\n        /* \"contracts/demo2.sol\":38:4499  contract demo2 {\r... */\n      mstore(0x40, 0x80)\n      callvalue\n        /* \"--CODEGEN--\":5:14   */\n      dup1\n        /* \"--CODEGEN--\":2:4   */\n      iszero\n      tag_1\n      jumpi\n        /* \"--CODEGEN--\":27:28   */\n      0x00\n        /* \"--CODEGEN--\":24:25   */\n      dup1\n        /* \"--CODEGEN--\":17:29   */\n      revert\n        /* \"--CODEGEN--\":2:4   */\n    tag_1:\n        /* \"contracts/demo2.sol\":38:4499  contract demo2 {\r... */\n      pop\n      jumpi(tag_2, lt(calldatasize, 0x04))\n      shr(0xe0, calldataload(0x00))\n      dup1\n      0x4e4fe306\n      eq\n      tag_3\n      jumpi\n      dup1\n      0x9ffd85c4\n      eq\n      tag_4\n      jumpi\n      dup1\n      0xe3a7fd75\n      eq\n      tag_5\n      jumpi\n    tag_2:\n        /* \"--CODEGEN--\":12:13   */\n      0x00\n        /* \"--CODEGEN--\":9:10   */\n      dup1\n        /* \"--CODEGEN--\":2:14   */\n      revert\n        /* \"contracts/demo2.sol\":192:323  function getData(uint length, uint offset) public view returns(bytes memory) {\r... */\n    tag_3:\n      tag_6\n      0x04\n      dup1\n      calldatasize\n      sub\n        /* \"--CODEGEN--\":15:17   */\n      0x40\n        /* \"--CODEGEN--\":10:13   */\n      dup2\n        /* \"--CODEGEN--\":7:18   */\n      lt\n        /* \"--CODEGEN--\":4:6   */\n      iszero\n      tag_7\n      jumpi\n        /* \"--CODEGEN--\":31:32   */\n      0x00\n        /* \"--CODEGEN--\":28:29   */\n      dup1\n        /* \"--CODEGEN--\":21:33   */\n      revert\n        /* \"--CODEGEN--\":4:6   */\n    tag_7:\n        /* \"contracts/demo2.sol\":192:323  function getData(uint length, uint offset) public view returns(bytes memory) {\r... */\n      dup2\n      add\n      swap1\n      dup1\n      dup1\n      calldataload\n      swap1\n      0x20\n      add\n      swap1\n      swap3\n      swap2\n      swap1\n      dup1\n      calldataload\n      swap1\n      0x20\n      add\n      swap1\n      swap3\n      swap2\n      swap1\n      pop\n      pop\n      pop\n      tag_8\n      jump\t// in\n    tag_6:\n      mload(0x40)\n      dup1\n      dup1\n      0x20\n      add\n      dup3\n      dup2\n      sub\n      dup3\n      mstore\n      dup4\n      dup2\n      dup2\n      mload\n      dup2\n      mstore\n      0x20\n      add\n      swap2\n      pop\n      dup1\n      mload\n      swap1\n      0x20\n      add\n      swap1\n      dup1\n      dup4\n      dup4\n        /* \"--CODEGEN--\":23:24   */\n      0x00\n        /* \"--CODEGEN--\":8:108   */\n    tag_9:\n        /* \"--CODEGEN--\":33:36   */\n      dup4\n        /* \"--CODEGEN--\":30:31   */\n      dup2\n        /* \"--CODEGEN--\":27:37   */\n      lt\n        /* \"--CODEGEN--\":8:108   */\n      iszero\n      tag_11\n      jumpi\n        /* \"--CODEGEN--\":99:100   */\n      dup1\n        /* \"--CODEGEN--\":94:97   */\n      dup3\n        /* \"--CODEGEN--\":90:101   */\n      add\n        /* \"--CODEGEN--\":84:102   */\n      mload\n        /* \"--CODEGEN--\":80:81   */\n      dup2\n        /* \"--CODEGEN--\":75:78   */\n      dup5\n        /* \"--CODEGEN--\":71:82   */\n      add\n        /* \"--CODEGEN--\":64:103   */\n      mstore\n        /* \"--CODEGEN--\":52:54   */\n      0x20\n        /* \"--CODEGEN--\":49:50   */\n      dup2\n        /* \"--CODEGEN--\":45:55   */\n      add\n        /* \"--CODEGEN--\":40:55   */\n      swap1\n      pop\n        /* \"--CODEGEN--\":8:108   */\n      jump(tag_9)\n    tag_11:\n        /* \"--CODEGEN--\":12:26   */\n      pop\n        /* \"contracts/demo2.sol\":192:323  function getData(uint length, uint offset) public view returns(bytes memory) {\r... */\n      pop\n      pop\n      pop\n      swap1\n      pop\n      swap1\n      dup2\n      add\n      swap1\n      0x1f\n      and\n      dup1\n      iszero\n      tag_12\n      jumpi\n      dup1\n      dup3\n      sub\n      dup1\n      mload\n      0x01\n      dup4\n      0x20\n      sub\n      0x0100\n      exp\n      sub\n      not\n      and\n      dup2\n      mstore\n      0x20\n      add\n      swap2\n      pop\n    tag_12:\n      pop\n      swap3\n      pop\n      pop\n      pop\n      mload(0x40)\n      dup1\n      swap2\n      sub\n      swap1\n      return\n        /* \"contracts/demo2.sol\":60:129  bytes public data1 = \"NALEHHJSGDSDGHJSDHSUHDJSHDJSHJSHJSHDSJDHJONGVO\" */\n    tag_4:\n      tag_13\n      tag_14\n      jump\t// in\n    tag_13:\n      mload(0x40)\n      dup1\n      dup1\n      0x20\n      add\n      dup3\n      dup2\n      sub\n      dup3\n      mstore\n      dup4\n      dup2\n      dup2\n      mload\n      dup2\n      mstore\n      0x20\n      add\n      swap2\n      pop\n      dup1\n      mload\n      swap1\n      0x20\n      add\n      swap1\n      dup1\n      dup4\n      dup4\n        /* \"--CODEGEN--\":23:24   */\n      0x00\n        /* \"--CODEGEN--\":8:108   */\n    tag_15:\n        /* \"--CODEGEN--\":33:36   */\n      dup4\n        /* \"--CODEGEN--\":30:31   */\n      dup2\n        /* \"--CODEGEN--\":27:37   */\n      lt\n        /* \"--CODEGEN--\":8:108   */\n      iszero\n      tag_17\n      jumpi\n        /* \"--CODEGEN--\":99:100   */\n      dup1\n        /* \"--CODEGEN--\":94:97   */\n      dup3\n        /* \"--CODEGEN--\":90:101   */\n      add\n        /* \"--CODEGEN--\":84:102   */\n      mload\n        /* \"--CODEGEN--\":80:81   */\n      dup2\n        /* \"--CODEGEN--\":75:78   */\n      dup5\n        /* \"--CODEGEN--\":71:82   */\n      add\n        /* \"--CODEGEN--\":64:103   */\n      mstore\n        /* \"--CODEGEN--\":52:54   */\n      0x20\n        /* \"--CODEGEN--\":49:50   */\n      dup2\n        /* \"--CODEGEN--\":45:55   */\n      add\n        /* \"--CODEGEN--\":40:55   */\n      swap1\n      pop\n        /* \"--CODEGEN--\":8:108   */\n      jump(tag_15)\n    tag_17:\n        /* \"--CODEGEN--\":12:26   */\n      pop\n        /* \"contracts/demo2.sol\":60:129  bytes public data1 = \"NALEHHJSGDSDGHJSDHSUHDJSHDJSHJSHJSHDSJDHJONGVO\" */\n      pop\n      pop\n      pop\n      swap1\n      pop\n      swap1\n      dup2\n      add\n      swap1\n      0x1f\n      and\n      dup1\n      iszero\n      tag_18\n      jumpi\n      dup1\n      dup3\n      sub\n      dup1\n      mload\n      0x01\n      dup4\n      0x20\n      sub\n      0x0100\n      exp\n      sub\n      not\n      and\n      dup2\n      mstore\n      0x20\n      add\n      swap2\n      pop\n    tag_18:\n      pop\n      swap3\n      pop\n      pop\n      pop\n      mload(0x40)\n      dup1\n      swap2\n      sub\n      swap1\n      return\n        /* \"contracts/demo2.sol\":136:183  bytes32 public data2 = \"LEHONGVOwjnfvj3weh8vKJ\" */\n    tag_5:\n      tag_19\n      tag_20\n      jump\t// in\n    tag_19:\n      mload(0x40)\n      dup1\n      dup3\n      dup2\n      mstore\n      0x20\n      add\n      swap2\n      pop\n      pop\n      mload(0x40)\n      dup1\n      swap2\n      sub\n      swap1\n      return\n        /* \"contracts/demo2.sol\":192:323  function getData(uint length, uint offset) public view returns(bytes memory) {\r... */\n    tag_8:\n        /* \"contracts/demo2.sol\":255:267  bytes memory */\n      0x60\n        /* \"contracts/demo2.sol\":287:315  encodeLength(length, offset) */\n      tag_22\n        /* \"contracts/demo2.sol\":300:306  length */\n      dup4\n        /* \"contracts/demo2.sol\":308:314  offset */\n      dup4\n        /* \"contracts/demo2.sol\":287:299  encodeLength */\n      tag_23\n        /* \"contracts/demo2.sol\":287:315  encodeLength(length, offset) */\n      jump\t// in\n    tag_22:\n        /* \"contracts/demo2.sol\":280:315  return encodeLength(length, offset) */\n      swap1\n      pop\n        /* \"contracts/demo2.sol\":192:323  function getData(uint length, uint offset) public view returns(bytes memory) {\r... */\n      swap3\n      swap2\n      pop\n      pop\n      jump\t// out\n        /* \"contracts/demo2.sol\":60:129  bytes public data1 = \"NALEHHJSGDSDGHJSDHSUHDJSHDJSHJSHJSHDSJDHJONGVO\" */\n    tag_14:\n      0x00\n      dup1\n      sload\n      0x01\n      dup2\n      0x01\n      and\n      iszero\n      0x0100\n      mul\n      sub\n      and\n      0x02\n      swap1\n      div\n      dup1\n      0x1f\n      add\n      0x20\n      dup1\n      swap2\n      div\n      mul\n      0x20\n      add\n      mload(0x40)\n      swap1\n      dup2\n      add\n      0x40\n      mstore\n      dup1\n      swap3\n      swap2\n      swap1\n      dup2\n      dup2\n      mstore\n      0x20\n      add\n      dup3\n      dup1\n      sload\n      0x01\n      dup2\n      0x01\n      and\n      iszero\n      0x0100\n      mul\n      sub\n      and\n      0x02\n      swap1\n      div\n      dup1\n      iszero\n      tag_24\n      jumpi\n      dup1\n      0x1f\n      lt\n      tag_25\n      jumpi\n      0x0100\n      dup1\n      dup4\n      sload\n      div\n      mul\n      dup4\n      mstore\n      swap2\n      0x20\n      add\n      swap2\n      jump(tag_24)\n    tag_25:\n      dup3\n      add\n      swap2\n      swap1\n      0x00\n      mstore\n      keccak256(0x00, 0x20)\n      swap1\n    tag_26:\n      dup2\n      sload\n      dup2\n      mstore\n      swap1\n      0x01\n      add\n      swap1\n      0x20\n      add\n      dup1\n      dup4\n      gt\n      tag_26\n      jumpi\n      dup3\n      swap1\n      sub\n      0x1f\n      and\n      dup3\n      add\n      swap2\n    tag_24:\n      pop\n      pop\n      pop\n      pop\n      pop\n      dup2\n      jump\t// out\n        /* \"contracts/demo2.sol\":136:183  bytes32 public data2 = \"LEHONGVOwjnfvj3weh8vKJ\" */\n    tag_20:\n      sload(0x01)\n      dup2\n      jump\t// out\n        /* \"contracts/demo2.sol\":331:769  function encodeLength(uint length, uint offset) internal pure returns (bytes memory) {\r... */\n    tag_23:\n        /* \"contracts/demo2.sol\":402:414  bytes memory */\n      0x60\n        /* \"contracts/demo2.sol\":444:450  256**8 */\n      0x010000000000000000\n        /* \"contracts/demo2.sol\":435:441  length */\n      dup4\n        /* \"contracts/demo2.sol\":435:450  length < 256**8 */\n      lt\n        /* \"contracts/demo2.sol\":427:469  require(length < 256**8, \"input too long\") */\n      tag_28\n      jumpi\n      mload(0x40)\n      0x08c379a000000000000000000000000000000000000000000000000000000000\n      dup2\n      mstore\n      0x04\n      add\n      dup1\n      dup1\n      0x20\n      add\n      dup3\n      dup2\n      sub\n      dup3\n      mstore\n      0x0e\n      dup2\n      mstore\n      0x20\n      add\n      dup1\n      0x696e70757420746f6f206c6f6e67000000000000000000000000000000000000\n      dup2\n      mstore\n      pop\n      0x20\n      add\n      swap2\n      pop\n      pop\n      mload(0x40)\n      dup1\n      swap2\n      sub\n      swap1\n      revert\n    tag_28:\n        /* \"contracts/demo2.sol\":480:495  bytes memory rs */\n      0x60\n        /* \"contracts/demo2.sol\":508:509  1 */\n      0x01\n        /* \"contracts/demo2.sol\":498:510  new bytes(1) */\n      mload(0x40)\n      swap1\n      dup1\n      dup3\n      mstore\n      dup1\n      0x1f\n      add\n      not(0x1f)\n      and\n      0x20\n      add\n      dup3\n      add\n      0x40\n      mstore\n      dup1\n      iszero\n      tag_29\n      jumpi\n      dup2\n      0x20\n      add\n        /* \"--CODEGEN--\":29:30   */\n      0x01\n        /* \"--CODEGEN--\":21:27   */\n      dup3\n        /* \"--CODEGEN--\":17:31   */\n      mul\n        /* \"--CODEGEN--\":124:128   */\n      dup1\n        /* \"--CODEGEN--\":108:122   */\n      calldatasize\n        /* \"--CODEGEN--\":100:106   */\n      dup4\n        /* \"--CODEGEN--\":87:129   */\n      calldatacopy\n        /* \"--CODEGEN--\":155:159   */\n      dup1\n        /* \"--CODEGEN--\":147:153   */\n      dup3\n        /* \"--CODEGEN--\":143:160   */\n      add\n        /* \"--CODEGEN--\":133:160   */\n      swap2\n      pop\n        /* \"--CODEGEN--\":0:164   */\n      pop\n        /* \"contracts/demo2.sol\":498:510  new bytes(1) */\n      swap1\n      pop\n    tag_29:\n      pop\n        /* \"contracts/demo2.sol\":480:510  bytes memory rs = new bytes(1) */\n      swap1\n      pop\n        /* \"contracts/demo2.sol\":535:537  55 */\n      0x37\n        /* \"contracts/demo2.sol\":525:531  length */\n      dup5\n        /* \"contracts/demo2.sol\":525:537  length <= 55 */\n      gt\n        /* \"contracts/demo2.sol\":521:626  if (length <= 55) {\r... */\n      tag_30\n      jumpi\n        /* \"contracts/demo2.sol\":582:588  offset */\n      dup3\n        /* \"contracts/demo2.sol\":573:579  length */\n      dup5\n        /* \"contracts/demo2.sol\":573:588  length + offset */\n      add\n        /* \"contracts/demo2.sol\":562:590  byte(uint8(length + offset)) */\n      0xf8\n      shl\n        /* \"contracts/demo2.sol\":554:556  rs */\n      dup2\n        /* \"contracts/demo2.sol\":557:558  0 */\n      0x00\n        /* \"contracts/demo2.sol\":554:559  rs[0] */\n      dup2\n      mload\n      dup2\n      lt\n      tag_31\n      jumpi\n      invalid\n    tag_31:\n      0x20\n      add\n      add\n        /* \"contracts/demo2.sol\":554:590  rs[0] = byte(uint8(length + offset)) */\n      swap1\n      not(0xffffffffffffffffffffffffffffffffffffffffffffffffffffffffffffff)\n      and\n      swap1\n      dup2\n      0x00\n      byte\n      swap1\n      mstore8\n      pop\n        /* \"contracts/demo2.sol\":612:614  rs */\n      dup1\n        /* \"contracts/demo2.sol\":605:614  return rs */\n      swap2\n      pop\n      pop\n      jump(tag_27)\n        /* \"contracts/demo2.sol\":521:626  if (length <= 55) {\r... */\n    tag_30:\n        /* \"contracts/demo2.sol\":636:651  bytes memory bl */\n      0x60\n        /* \"contracts/demo2.sol\":654:670  toBinary(length) */\n      tag_32\n        /* \"contracts/demo2.sol\":663:669  length */\n      dup6\n        /* \"contracts/demo2.sol\":654:662  toBinary */\n      tag_33\n        /* \"contracts/demo2.sol\":654:670  toBinary(length) */\n      jump\t// in\n    tag_32:\n        /* \"contracts/demo2.sol\":636:670  bytes memory bl = toBinary(length) */\n      swap1\n      pop\n        /* \"contracts/demo2.sol\":721:723  55 */\n      0x37\n        /* \"contracts/demo2.sol\":712:718  offset */\n      dup5\n        /* \"contracts/demo2.sol\":700:702  bl */\n      dup3\n        /* \"contracts/demo2.sol\":700:709  bl.length */\n      mload\n        /* \"contracts/demo2.sol\":700:718  bl.length + offset */\n      add\n        /* \"contracts/demo2.sol\":700:723  bl.length + offset + 55 */\n      add\n        /* \"contracts/demo2.sol\":689:725  byte(uint8(bl.length + offset + 55)) */\n      0xf8\n      shl\n        /* \"contracts/demo2.sol\":681:683  rs */\n      dup3\n        /* \"contracts/demo2.sol\":684:685  0 */\n      0x00\n        /* \"contracts/demo2.sol\":681:686  rs[0] */\n      dup2\n      mload\n      dup2\n      lt\n      tag_34\n      jumpi\n      invalid\n    tag_34:\n      0x20\n      add\n      add\n        /* \"contracts/demo2.sol\":681:725  rs[0] = byte(uint8(bl.length + offset + 55)) */\n      swap1\n      not(0xffffffffffffffffffffffffffffffffffffffffffffffffffffffffffffff)\n      and\n      swap1\n      dup2\n      0x00\n      byte\n      swap1\n      mstore8\n      pop\n        /* \"contracts/demo2.sol\":743:761  mergeBytes(rs, bl) */\n      tag_35\n        /* \"contracts/demo2.sol\":754:756  rs */\n      dup3\n        /* \"contracts/demo2.sol\":758:760  bl */\n      dup3\n        /* \"contracts/demo2.sol\":743:753  mergeBytes */\n      tag_36\n        /* \"contracts/demo2.sol\":743:761  mergeBytes(rs, bl) */\n      jump\t// in\n    tag_35:\n        /* \"contracts/demo2.sol\":736:761  return mergeBytes(rs, bl) */\n      swap3\n      pop\n      pop\n      pop\n        /* \"contracts/demo2.sol\":331:769  function encodeLength(uint length, uint offset) internal pure returns (bytes memory) {\r... */\n    tag_27:\n      swap3\n      swap2\n      pop\n      pop\n      jump\t// out\n        /* \"contracts/demo2.sol\":3704:4492  function toBinary(uint x) internal pure returns (bytes memory) {\r... */\n    tag_33:\n        /* \"contracts/demo2.sol\":3753:3765  bytes memory */\n      0x60\n        /* \"contracts/demo2.sol\":3778:3792  bytes memory b */\n      dup1\n        /* \"contracts/demo2.sol\":3805:3807  32 */\n      0x20\n        /* \"contracts/demo2.sol\":3795:3808  new bytes(32) */\n      mload(0x40)\n      swap1\n      dup1\n      dup3\n      mstore\n      dup1\n      0x1f\n      add\n      not(0x1f)\n      and\n      0x20\n      add\n      dup3\n      add\n      0x40\n      mstore\n      dup1\n      iszero\n      tag_38\n      jumpi\n      dup2\n      0x20\n      add\n        /* \"--CODEGEN--\":29:30   */\n      0x01\n        /* \"--CODEGEN--\":21:27   */\n      dup3\n        /* \"--CODEGEN--\":17:31   */\n      mul\n        /* \"--CODEGEN--\":124:128   */\n      dup1\n        /* \"--CODEGEN--\":108:122   */\n      calldatasize\n        /* \"--CODEGEN--\":100:106   */\n      dup4\n        /* \"--CODEGEN--\":87:129   */\n      calldatacopy\n        /* \"--CODEGEN--\":155:159   */\n      dup1\n        /* \"--CODEGEN--\":147:153   */\n      dup3\n        /* \"--CODEGEN--\":143:160   */\n      add\n        /* \"--CODEGEN--\":133:160   */\n      swap2\n      pop\n        /* \"--CODEGEN--\":0:164   */\n      pop\n        /* \"contracts/demo2.sol\":3795:3808  new bytes(32) */\n      swap1\n      pop\n    tag_38:\n      pop\n        /* \"contracts/demo2.sol\":3778:3808  bytes memory b = new bytes(32) */\n      swap1\n      pop\n        /* \"contracts/demo2.sol\":3862:3863  x */\n      dup3\n        /* \"contracts/demo2.sol\":3857:3859  32 */\n      0x20\n        /* \"contracts/demo2.sol\":3854:3855  b */\n      dup3\n        /* \"contracts/demo2.sol\":3850:3860  add(b, 32) */\n      add\n        /* \"contracts/demo2.sol\":3843:3864  mstore(add(b, 32), x) */\n      mstore\n        /* \"contracts/demo2.sol\":3885:3891  uint i */\n      0x00\n        /* \"contracts/demo2.sol\":3980:3981  0 */\n      dup1\n        /* \"contracts/demo2.sol\":3910:3976  0xffffffffffffffffffffffffffffffffffffffffffffffff0000000000000000 */\n      0xffffffffffffffffffffffffffffffffffffffffffffffff0000000000000000\n        /* \"contracts/demo2.sol\":3906:3907  x */\n      dup6\n        /* \"contracts/demo2.sol\":3906:3976  x & 0xffffffffffffffffffffffffffffffffffffffffffffffff0000000000000000 */\n      and\n        /* \"contracts/demo2.sol\":3906:3981  x & 0xffffffffffffffffffffffffffffffffffffffffffffffff0000000000000000 == 0 */\n      eq\n        /* \"contracts/demo2.sol\":3902:4174  if (x & 0xffffffffffffffffffffffffffffffffffffffffffffffff0000000000000000 == 0) {\r... */\n      iszero\n      tag_39\n      jumpi\n        /* \"contracts/demo2.sol\":4002:4004  24 */\n      0x18\n        /* \"contracts/demo2.sol\":3998:4004  i = 24 */\n      swap1\n      pop\n        /* \"contracts/demo2.sol\":3902:4174  if (x & 0xffffffffffffffffffffffffffffffffffffffffffffffff0000000000000000 == 0) {\r... */\n      jump(tag_40)\n    tag_39:\n        /* \"contracts/demo2.sol\":4100:4101  0 */\n      0x00\n        /* \"contracts/demo2.sol\":4030:4096  0xffffffffffffffffffffffffffffffff00000000000000000000000000000000 */\n      0xffffffffffffffffffffffffffffffff00000000000000000000000000000000\n        /* \"contracts/demo2.sol\":4026:4027  x */\n      dup6\n        /* \"contracts/demo2.sol\":4026:4096  x & 0xffffffffffffffffffffffffffffffff00000000000000000000000000000000 */\n      and\n        /* \"contracts/demo2.sol\":4026:4101  x & 0xffffffffffffffffffffffffffffffff00000000000000000000000000000000 == 0 */\n      eq\n        /* \"contracts/demo2.sol\":4022:4174  if (x & 0xffffffffffffffffffffffffffffffff00000000000000000000000000000000 == 0) {\r... */\n      iszero\n      tag_41\n      jumpi\n        /* \"contracts/demo2.sol\":4122:4124  16 */\n      0x10\n        /* \"contracts/demo2.sol\":4118:4124  i = 16 */\n      swap1\n      pop\n        /* \"contracts/demo2.sol\":4022:4174  if (x & 0xffffffffffffffffffffffffffffffff00000000000000000000000000000000 == 0) {\r... */\n      jump(tag_42)\n    tag_41:\n        /* \"contracts/demo2.sol\":4161:4162  0 */\n      0x00\n        /* \"contracts/demo2.sol\":4157:4162  i = 0 */\n      swap1\n      pop\n        /* \"contracts/demo2.sol\":4022:4174  if (x & 0xffffffffffffffffffffffffffffffff00000000000000000000000000000000 == 0) {\r... */\n    tag_42:\n        /* \"contracts/demo2.sol\":3902:4174  if (x & 0xffffffffffffffffffffffffffffffffffffffffffffffff0000000000000000 == 0) {\r... */\n    tag_40:\n        /* \"contracts/demo2.sol\":4184:4285  for (; i < 32; i++) {\r... */\n    tag_43:\n        /* \"contracts/demo2.sol\":4195:4197  32 */\n      0x20\n        /* \"contracts/demo2.sol\":4191:4192  i */\n      dup2\n        /* \"contracts/demo2.sol\":4191:4197  i < 32 */\n      lt\n        /* \"contracts/demo2.sol\":4184:4285  for (; i < 32; i++) {\r... */\n      iszero\n      tag_44\n      jumpi\n        /* \"contracts/demo2.sol\":4231:4232  0 */\n      0x00\n        /* \"contracts/demo2.sol\":4223:4232  b[i] != 0 */\n      0xf8\n      shl\n        /* \"contracts/demo2.sol\":4223:4224  b */\n      dup3\n        /* \"contracts/demo2.sol\":4225:4226  i */\n      dup3\n        /* \"contracts/demo2.sol\":4223:4227  b[i] */\n      dup2\n      mload\n      dup2\n      lt\n      tag_46\n      jumpi\n      invalid\n    tag_46:\n      0x20\n      add\n      add\n      mload\n      0xf8\n      shr\n      0xf8\n      shl\n        /* \"contracts/demo2.sol\":4223:4232  b[i] != 0 */\n      not(0xffffffffffffffffffffffffffffffffffffffffffffffffffffffffffffff)\n      and\n      eq\n        /* \"contracts/demo2.sol\":4219:4274  if (b[i] != 0) {\r... */\n      tag_47\n      jumpi\n        /* \"contracts/demo2.sol\":4253:4258  break */\n      jump(tag_44)\n        /* \"contracts/demo2.sol\":4219:4274  if (b[i] != 0) {\r... */\n    tag_47:\n        /* \"contracts/demo2.sol\":4199:4202  i++ */\n      dup1\n      dup1\n      0x01\n      add\n      swap2\n      pop\n      pop\n        /* \"contracts/demo2.sol\":4184:4285  for (; i < 32; i++) {\r... */\n      jump(tag_43)\n    tag_44:\n        /* \"contracts/demo2.sol\":4295:4306  uint length */\n      0x00\n        /* \"contracts/demo2.sol\":4314:4315  i */\n      dup2\n        /* \"contracts/demo2.sol\":4309:4311  32 */\n      0x20\n        /* \"contracts/demo2.sol\":4309:4315  32 - i */\n      sub\n        /* \"contracts/demo2.sol\":4295:4315  uint length = 32 - i */\n      swap1\n      pop\n        /* \"contracts/demo2.sol\":4326:4341  bytes memory rs */\n      0x60\n        /* \"contracts/demo2.sol\":4354:4360  length */\n      dup2\n        /* \"contracts/demo2.sol\":4344:4361  new bytes(length) */\n      mload(0x40)\n      swap1\n      dup1\n      dup3\n      mstore\n      dup1\n      0x1f\n      add\n      not(0x1f)\n      and\n      0x20\n      add\n      dup3\n      add\n      0x40\n      mstore\n      dup1\n      iszero\n      tag_48\n      jumpi\n      dup2\n      0x20\n      add\n        /* \"--CODEGEN--\":29:30   */\n      0x01\n        /* \"--CODEGEN--\":21:27   */\n      dup3\n        /* \"--CODEGEN--\":17:31   */\n      mul\n        /* \"--CODEGEN--\":124:128   */\n      dup1\n        /* \"--CODEGEN--\":108:122   */\n      calldatasize\n        /* \"--CODEGEN--\":100:106   */\n      dup4\n        /* \"--CODEGEN--\":87:129   */\n      calldatacopy\n        /* \"--CODEGEN--\":155:159   */\n      dup1\n        /* \"--CODEGEN--\":147:153   */\n      dup3\n        /* \"--CODEGEN--\":143:160   */\n      add\n        /* \"--CODEGEN--\":133:160   */\n      swap2\n      pop\n        /* \"--CODEGEN--\":0:164   */\n      pop\n        /* \"contracts/demo2.sol\":4344:4361  new bytes(length) */\n      swap1\n      pop\n    tag_48:\n      pop\n        /* \"contracts/demo2.sol\":4326:4361  bytes memory rs = new bytes(length) */\n      swap1\n      pop\n        /* \"contracts/demo2.sol\":4420:4421  x */\n      dup6\n        /* \"contracts/demo2.sol\":4411:4417  length */\n      dup3\n        /* \"contracts/demo2.sol\":4407:4409  rs */\n      dup3\n        /* \"contracts/demo2.sol\":4403:4418  add(rs, length) */\n      add\n        /* \"contracts/demo2.sol\":4396:4422  mstore(add(rs, length), x) */\n      mstore\n        /* \"contracts/demo2.sol\":4447:4453  length */\n      dup2\n        /* \"contracts/demo2.sol\":4443:4445  rs */\n      dup2\n        /* \"contracts/demo2.sol\":4436:4454  mstore(rs, length) */\n      mstore\n        /* \"contracts/demo2.sol\":4482:4484  rs */\n      dup1\n        /* \"contracts/demo2.sol\":4475:4484  return rs */\n      swap5\n      pop\n      pop\n      pop\n      pop\n      pop\n        /* \"contracts/demo2.sol\":3704:4492  function toBinary(uint x) internal pure returns (bytes memory) {\r... */\n      swap2\n      swap1\n      pop\n      jump\t// out\n        /* \"contracts/demo2.sol\":777:3692  function mergeBytes(\r... */\n    tag_36:\n        /* \"contracts/demo2.sol\":909:921  bytes memory */\n      0x60\n        /* \"contracts/demo2.sol\":939:961  bytes memory tempBytes */\n      dup1\n        /* \"contracts/demo2.sol\":1141:1145  0x40 */\n      0x40\n        /* \"contracts/demo2.sol\":1135:1146  mload(0x40) */\n      mload\n        /* \"contracts/demo2.sol\":1122:1146  tempBytes := mload(0x40) */\n      swap1\n      pop\n        /* \"contracts/demo2.sol\":1294:1303  _preBytes */\n      dup4\n        /* \"contracts/demo2.sol\":1288:1304  mload(_preBytes) */\n      mload\n        /* \"contracts/demo2.sol\":1336:1342  length */\n      dup1\n        /* \"contracts/demo2.sol\":1325:1334  tempBytes */\n      dup3\n        /* \"contracts/demo2.sol\":1318:1343  mstore(tempBytes, length) */\n      mstore\n        /* \"contracts/demo2.sol\":1571:1575  0x20 */\n      0x20\n        /* \"contracts/demo2.sol\":1560:1569  tempBytes */\n      dup3\n        /* \"contracts/demo2.sol\":1556:1576  add(tempBytes, 0x20) */\n      add\n        /* \"contracts/demo2.sol\":1715:1721  length */\n      dup2\n        /* \"contracts/demo2.sol\":1711:1713  mc */\n      dup2\n        /* \"contracts/demo2.sol\":1707:1722  add(mc, length) */\n      add\n        /* \"contracts/demo2.sol\":1906:1910  0x20 */\n      0x20\n        /* \"contracts/demo2.sol\":1895:1904  _preBytes */\n      dup8\n        /* \"contracts/demo2.sol\":1891:1911  add(_preBytes, 0x20) */\n      add\n        /* \"contracts/demo2.sol\":1738:2255  for {\r... */\n    tag_50:\n        /* \"contracts/demo2.sol\":1934:1937  end */\n      dup2\n        /* \"contracts/demo2.sol\":1930:1932  mc */\n      dup4\n        /* \"contracts/demo2.sol\":1927:1938  lt(mc, end) */\n      lt\n        /* \"contracts/demo2.sol\":1738:2255  for {\r... */\n      iszero\n      tag_52\n      jumpi\n        /* \"contracts/demo2.sol\":2236:2238  cc */\n      dup1\n        /* \"contracts/demo2.sol\":2230:2239  mload(cc) */\n      mload\n        /* \"contracts/demo2.sol\":2226:2228  mc */\n      dup4\n        /* \"contracts/demo2.sol\":2219:2240  mstore(mc, mload(cc)) */\n      mstore\n        /* \"contracts/demo2.sol\":2039:2043  0x20 */\n      0x20\n        /* \"contracts/demo2.sol\":2035:2037  mc */\n      dup4\n        /* \"contracts/demo2.sol\":2031:2044  add(mc, 0x20) */\n      add\n        /* \"contracts/demo2.sol\":2025:2044  mc := add(mc, 0x20) */\n      swap3\n      pop\n        /* \"contracts/demo2.sol\":2076:2080  0x20 */\n      0x20\n        /* \"contracts/demo2.sol\":2072:2074  cc */\n      dup2\n        /* \"contracts/demo2.sol\":2068:2081  add(cc, 0x20) */\n      add\n        /* \"contracts/demo2.sol\":2062:2081  cc := add(cc, 0x20) */\n      swap1\n      pop\n        /* \"contracts/demo2.sol\":1738:2255  for {\r... */\n      jump(tag_50)\n    tag_52:\n        /* \"contracts/demo2.sol\":1742:1926  {\r... */\n      pop\n        /* \"contracts/demo2.sol\":2465:2475  _postBytes */\n      dup6\n        /* \"contracts/demo2.sol\":2459:2476  mload(_postBytes) */\n      mload\n        /* \"contracts/demo2.sol\":2449:2476  length := mload(_postBytes) */\n      swap3\n      pop\n        /* \"contracts/demo2.sol\":2526:2535  tempBytes */\n      dup4\n        /* \"contracts/demo2.sol\":2520:2536  mload(tempBytes) */\n      mload\n        /* \"contracts/demo2.sol\":2512:2518  length */\n      dup4\n        /* \"contracts/demo2.sol\":2508:2537  add(length, mload(tempBytes)) */\n      add\n        /* \"contracts/demo2.sol\":2497:2506  tempBytes */\n      dup5\n        /* \"contracts/demo2.sol\":2490:2538  mstore(tempBytes, add(length, mload(tempBytes))) */\n      mstore\n        /* \"contracts/demo2.sol\":2678:2681  end */\n      dup1\n        /* \"contracts/demo2.sol\":2672:2681  mc := end */\n      swap2\n      pop\n        /* \"contracts/demo2.sol\":2818:2824  length */\n      dup3\n        /* \"contracts/demo2.sol\":2814:2816  mc */\n      dup3\n        /* \"contracts/demo2.sol\":2810:2825  add(mc, length) */\n      add\n        /* \"contracts/demo2.sol\":2803:2825  end := add(mc, length) */\n      swap1\n      pop\n        /* \"contracts/demo2.sol\":2890:2894  0x20 */\n      0x20\n        /* \"contracts/demo2.sol\":2878:2888  _postBytes */\n      dup7\n        /* \"contracts/demo2.sol\":2874:2895  add(_postBytes, 0x20) */\n      add\n        /* \"contracts/demo2.sol\":2841:3069  for {\r... */\n    tag_53:\n        /* \"contracts/demo2.sol\":2918:2921  end */\n      dup2\n        /* \"contracts/demo2.sol\":2914:2916  mc */\n      dup4\n        /* \"contracts/demo2.sol\":2911:2922  lt(mc, end) */\n      lt\n        /* \"contracts/demo2.sol\":2841:3069  for {\r... */\n      iszero\n      tag_55\n      jumpi\n        /* \"contracts/demo2.sol\":3050:3052  cc */\n      dup1\n        /* \"contracts/demo2.sol\":3044:3053  mload(cc) */\n      mload\n        /* \"contracts/demo2.sol\":3040:3042  mc */\n      dup4\n        /* \"contracts/demo2.sol\":3033:3054  mstore(mc, mload(cc)) */\n      mstore\n        /* \"contracts/demo2.sol\":2956:2960  0x20 */\n      0x20\n        /* \"contracts/demo2.sol\":2952:2954  mc */\n      dup4\n        /* \"contracts/demo2.sol\":2948:2961  add(mc, 0x20) */\n      add\n        /* \"contracts/demo2.sol\":2942:2961  mc := add(mc, 0x20) */\n      swap3\n      pop\n        /* \"contracts/demo2.sol\":2993:2997  0x20 */\n      0x20\n        /* \"contracts/demo2.sol\":2989:2991  cc */\n      dup2\n        /* \"contracts/demo2.sol\":2985:2998  add(cc, 0x20) */\n      add\n        /* \"contracts/demo2.sol\":2979:2998  cc := add(cc, 0x20) */\n      swap1\n      pop\n        /* \"contracts/demo2.sol\":2841:3069  for {\r... */\n      jump(tag_53)\n    tag_55:\n        /* \"contracts/demo2.sol\":2845:2910  {\r... */\n      pop\n        /* \"contracts/demo2.sol\":3587:3589  31 */\n      0x1f\n        /* \"contracts/demo2.sol\":3583:3590  not(31) */\n      not\n        /* \"contracts/demo2.sol\":3565:3567  31 */\n      0x1f\n        /* \"contracts/demo2.sol\":3550:3559  _preBytes */\n      dup9\n        /* \"contracts/demo2.sol\":3544:3560  mload(_preBytes) */\n      mload\n        /* \"contracts/demo2.sol\":3536:3542  length */\n      dup6\n        /* \"contracts/demo2.sol\":3532:3561  add(length, mload(_preBytes)) */\n      add\n        /* \"contracts/demo2.sol\":3525:3562  iszero(add(length, mload(_preBytes))) */\n      iszero\n        /* \"contracts/demo2.sol\":3520:3523  end */\n      dup4\n        /* \"contracts/demo2.sol\":3516:3563  add(end, iszero(add(length, mload(_preBytes)))) */\n      add\n        /* \"contracts/demo2.sol\":3512:3568  add(add(end, iszero(add(length, mload(_preBytes)))), 31) */\n      add\n        /* \"contracts/demo2.sol\":3494:3644  and(\r... */\n      and\n        /* \"contracts/demo2.sol\":3488:3492  0x40 */\n      0x40\n        /* \"contracts/demo2.sol\":3481:3645  mstore(0x40, and(\r... */\n      mstore\n        /* \"contracts/demo2.sol\":983:3656  {\r... */\n      pop\n      pop\n      pop\n        /* \"contracts/demo2.sol\":3675:3684  tempBytes */\n      dup1\n        /* \"contracts/demo2.sol\":3668:3684  return tempBytes */\n      swap2\n      pop\n      pop\n        /* \"contracts/demo2.sol\":777:3692  function mergeBytes(\r... */\n      swap3\n      swap2\n      pop\n      pop\n      jump\t// out\n\n    auxdata: 0xa26469706673582212208844d94ac59f4603b96ff6fabc5c9ac46a205df3737f85841f4478d7207534a864736f6c63430006040033\n}\n",
				"bytecode": {
					"linkReferences": {},
					"object": "60806040526040518060600160405280602e8152602001610703602e913960009080519060200190610032929190610069565b507f4c45484f4e47564f776a6e66766a3377656838764b4a0000000000000000000060015534801561006357600080fd5b5061010e565b828054600181600116156101000203166002900490600052602060002090601f016020900481019282601f106100aa57805160ff19168380011785556100d8565b828001600101855582156100d8579182015b828111156100d75782518255916020019190600101906100bc565b5b5090506100e591906100e9565b5090565b61010b91905b808211156101075760008160009055506001016100ef565b5090565b90565b6105e68061011d6000396000f3fe608060405234801561001057600080fd5b50600436106100415760003560e01c80634e4fe306146100465780639ffd85c4146100f7578063e3a7fd751461017a575b600080fd5b61007c6004803603604081101561005c57600080fd5b810190808035906020019092919080359060200190929190505050610198565b6040518080602001828103825283818151815260200191508051906020019080838360005b838110156100bc5780820151818401526020810190506100a1565b50505050905090810190601f1680156100e95780820380516001836020036101000a031916815260200191505b509250505060405180910390f35b6100ff6101ac565b6040518080602001828103825283818151815260200191508051906020019080838360005b8381101561013f578082015181840152602081019050610124565b50505050905090810190601f16801561016c5780820380516001836020036101000a031916815260200191505b509250505060405180910390f35b61018261024a565b6040518082815260200191505060405180910390f35b60606101a48383610250565b905092915050565b60008054600181600116156101000203166002900480601f0160208091040260200160405190810160405280929190818152602001828054600181600116156101000203166002900480156102425780601f1061021757610100808354040283529160200191610242565b820191906000526020600020905b81548152906001019060200180831161022557829003601f168201915b505050505081565b60015481565b60606801000000000000000083106102d0576040517f08c379a000000000000000000000000000000000000000000000000000000000815260040180806020018281038252600e8152602001807f696e70757420746f6f206c6f6e6700000000000000000000000000000000000081525060200191505060405180910390fd5b606060016040519080825280601f01601f1916602001820160405280156103065781602001600182028036833780820191505090505b5090506037841161035c5782840160f81b8160008151811061032457fe5b60200101907effffffffffffffffffffffffffffffffffffffffffffffffffffffffffffff1916908160001a905350809150506103be565b6060610367856103c4565b90506037848251010160f81b8260008151811061038057fe5b60200101907effffffffffffffffffffffffffffffffffffffffffffffffffffffffffffff1916908160001a9053506103b98282610526565b925050505b92915050565b60608060206040519080825280601f01601f1916602001820160405280156103fb5781602001600182028036833780820191505090505b5090508260208201526000807fffffffffffffffffffffffffffffffffffffffffffffffff0000000000000000851614156104395760189050610473565b60007fffffffffffffffffffffffffffffffff000000000000000000000000000000008516141561046d5760109050610472565b600090505b5b5b60208110156104d257600060f81b82828151811061048e57fe5b602001015160f81c60f81b7effffffffffffffffffffffffffffffffffffffffffffffffffffffffffffff1916146104c5576104d2565b8080600101915050610474565b60008160200390506060816040519080825280601f01601f19166020018201604052801561050f5781602001600182028036833780820191505090505b509050858282015281815280945050505050919050565b6060806040519050835180825260208201818101602087015b8183101561055c578051835260208301925060208101905061053f565b50855192508351830184528091508282019050602086015b818310156105915780518352602083019250602081019050610574565b50601f19601f885185011583010116604052505050809150509291505056fea26469706673582212208844d94ac59f4603b96ff6fabc5c9ac46a205df3737f85841f4478d7207534a864736f6c634300060400334e414c4548484a534744534447484a534448535548444a5348444a53484a53484a534844534a44484a4f4e47564f",
					"opcodes": "PUSH1 0x80 PUSH1 0x40 MSTORE PUSH1 0x40 MLOAD DUP1 PUSH1 0x60 ADD PUSH1 0x40 MSTORE DUP1 PUSH1 0x2E DUP2 MSTORE PUSH1 0x20 ADD PUSH2 0x703 PUSH1 0x2E SWAP2 CODECOPY PUSH1 0x0 SWAP1 DUP1 MLOAD SWAP1 PUSH1 0x20 ADD SWAP1 PUSH2 0x32 SWAP3 SWAP2 SWAP1 PUSH2 0x69 JUMP JUMPDEST POP PUSH32 0x4C45484F4E47564F776A6E66766A3377656838764B4A00000000000000000000 PUSH1 0x1 SSTORE CALLVALUE DUP1 ISZERO PUSH2 0x63 JUMPI PUSH1 0x0 DUP1 REVERT JUMPDEST POP PUSH2 0x10E JUMP JUMPDEST DUP3 DUP1 SLOAD PUSH1 0x1 DUP2 PUSH1 0x1 AND ISZERO PUSH2 0x100 MUL SUB AND PUSH1 0x2 SWAP1 DIV SWAP1 PUSH1 0x0 MSTORE PUSH1 0x20 PUSH1 0x0 KECCAK256 SWAP1 PUSH1 0x1F ADD PUSH1 0x20 SWAP1 DIV DUP2 ADD SWAP3 DUP3 PUSH1 0x1F LT PUSH2 0xAA JUMPI DUP1 MLOAD PUSH1 0xFF NOT AND DUP4 DUP1 ADD OR DUP6 SSTORE PUSH2 0xD8 JUMP JUMPDEST DUP3 DUP1 ADD PUSH1 0x1 ADD DUP6 SSTORE DUP3 ISZERO PUSH2 0xD8 JUMPI SWAP2 DUP3 ADD JUMPDEST DUP3 DUP2 GT ISZERO PUSH2 0xD7 JUMPI DUP3 MLOAD DUP3 SSTORE SWAP2 PUSH1 0x20 ADD SWAP2 SWAP1 PUSH1 0x1 ADD SWAP1 PUSH2 0xBC JUMP JUMPDEST JUMPDEST POP SWAP1 POP PUSH2 0xE5 SWAP2 SWAP1 PUSH2 0xE9 JUMP JUMPDEST POP SWAP1 JUMP JUMPDEST PUSH2 0x10B SWAP2 SWAP1 JUMPDEST DUP1 DUP3 GT ISZERO PUSH2 0x107 JUMPI PUSH1 0x0 DUP2 PUSH1 0x0 SWAP1 SSTORE POP PUSH1 0x1 ADD PUSH2 0xEF JUMP JUMPDEST POP SWAP1 JUMP JUMPDEST SWAP1 JUMP JUMPDEST PUSH2 0x5E6 DUP1 PUSH2 0x11D PUSH1 0x0 CODECOPY PUSH1 0x0 RETURN INVALID PUSH1 0x80 PUSH1 0x40 MSTORE CALLVALUE DUP1 ISZERO PUSH2 0x10 JUMPI PUSH1 0x0 DUP1 REVERT JUMPDEST POP PUSH1 0x4 CALLDATASIZE LT PUSH2 0x41 JUMPI PUSH1 0x0 CALLDATALOAD PUSH1 0xE0 SHR DUP1 PUSH4 0x4E4FE306 EQ PUSH2 0x46 JUMPI DUP1 PUSH4 0x9FFD85C4 EQ PUSH2 0xF7 JUMPI DUP1 PUSH4 0xE3A7FD75 EQ PUSH2 0x17A JUMPI JUMPDEST PUSH1 0x0 DUP1 REVERT JUMPDEST PUSH2 0x7C PUSH1 0x4 DUP1 CALLDATASIZE SUB PUSH1 0x40 DUP2 LT ISZERO PUSH2 0x5C JUMPI PUSH1 0x0 DUP1 REVERT JUMPDEST DUP2 ADD SWAP1 DUP1 DUP1 CALLDATALOAD SWAP1 PUSH1 0x20 ADD SWAP1 SWAP3 SWAP2 SWAP1 DUP1 CALLDATALOAD SWAP1 PUSH1 0x20 ADD SWAP1 SWAP3 SWAP2 SWAP1 POP POP POP PUSH2 0x198 JUMP JUMPDEST PUSH1 0x40 MLOAD DUP1 DUP1 PUSH1 0x20 ADD DUP3 DUP2 SUB DUP3 MSTORE DUP4 DUP2 DUP2 MLOAD DUP2 MSTORE PUSH1 0x20 ADD SWAP2 POP DUP1 MLOAD SWAP1 PUSH1 0x20 ADD SWAP1 DUP1 DUP4 DUP4 PUSH1 0x0 JUMPDEST DUP4 DUP2 LT ISZERO PUSH2 0xBC JUMPI DUP1 DUP3 ADD MLOAD DUP2 DUP5 ADD MSTORE PUSH1 0x20 DUP2 ADD SWAP1 POP PUSH2 0xA1 JUMP JUMPDEST POP POP POP POP SWAP1 POP SWAP1 DUP2 ADD SWAP1 PUSH1 0x1F AND DUP1 ISZERO PUSH2 0xE9 JUMPI DUP1 DUP3 SUB DUP1 MLOAD PUSH1 0x1 DUP4 PUSH1 0x20 SUB PUSH2 0x100 EXP SUB NOT AND DUP2 MSTORE PUSH1 0x20 ADD SWAP2 POP JUMPDEST POP SWAP3 POP POP POP PUSH1 0x40 MLOAD DUP1 SWAP2 SUB SWAP1 RETURN JUMPDEST PUSH2 0xFF PUSH2 0x1AC JUMP JUMPDEST PUSH1 0x40 MLOAD DUP1 DUP1 PUSH1 0x20 ADD DUP3 DUP2 SUB DUP3 MSTORE DUP4 DUP2 DUP2 MLOAD DUP2 MSTORE PUSH1 0x20 ADD SWAP2 POP DUP1 MLOAD SWAP1 PUSH1 0x20 ADD SWAP1 DUP1 DUP4 DUP4 PUSH1 0x0 JUMPDEST DUP4 DUP2 LT ISZERO PUSH2 0x13F JUMPI DUP1 DUP3 ADD MLOAD DUP2 DUP5 ADD MSTORE PUSH1 0x20 DUP2 ADD SWAP1 POP PUSH2 0x124 JUMP JUMPDEST POP POP POP POP SWAP1 POP SWAP1 DUP2 ADD SWAP1 PUSH1 0x1F AND DUP1 ISZERO PUSH2 0x16C JUMPI DUP1 DUP3 SUB DUP1 MLOAD PUSH1 0x1 DUP4 PUSH1 0x20 SUB PUSH2 0x100 EXP SUB NOT AND DUP2 MSTORE PUSH1 0x20 ADD SWAP2 POP JUMPDEST POP SWAP3 POP POP POP PUSH1 0x40 MLOAD DUP1 SWAP2 SUB SWAP1 RETURN JUMPDEST PUSH2 0x182 PUSH2 0x24A JUMP JUMPDEST PUSH1 0x40 MLOAD DUP1 DUP3 DUP2 MSTORE PUSH1 0x20 ADD SWAP2 POP POP PUSH1 0x40 MLOAD DUP1 SWAP2 SUB SWAP1 RETURN JUMPDEST PUSH1 0x60 PUSH2 0x1A4 DUP4 DUP4 PUSH2 0x250 JUMP JUMPDEST SWAP1 POP SWAP3 SWAP2 POP POP JUMP JUMPDEST PUSH1 0x0 DUP1 SLOAD PUSH1 0x1 DUP2 PUSH1 0x1 AND ISZERO PUSH2 0x100 MUL SUB AND PUSH1 0x2 SWAP1 DIV DUP1 PUSH1 0x1F ADD PUSH1 0x20 DUP1 SWAP2 DIV MUL PUSH1 0x20 ADD PUSH1 0x40 MLOAD SWAP1 DUP2 ADD PUSH1 0x40 MSTORE DUP1 SWAP3 SWAP2 SWAP1 DUP2 DUP2 MSTORE PUSH1 0x20 ADD DUP3 DUP1 SLOAD PUSH1 0x1 DUP2 PUSH1 0x1 AND ISZERO PUSH2 0x100 MUL SUB AND PUSH1 0x2 SWAP1 DIV DUP1 ISZERO PUSH2 0x242 JUMPI DUP1 PUSH1 0x1F LT PUSH2 0x217 JUMPI PUSH2 0x100 DUP1 DUP4 SLOAD DIV MUL DUP4 MSTORE SWAP2 PUSH1 0x20 ADD SWAP2 PUSH2 0x242 JUMP JUMPDEST DUP3 ADD SWAP2 SWAP1 PUSH1 0x0 MSTORE PUSH1 0x20 PUSH1 0x0 KECCAK256 SWAP1 JUMPDEST DUP2 SLOAD DUP2 MSTORE SWAP1 PUSH1 0x1 ADD SWAP1 PUSH1 0x20 ADD DUP1 DUP4 GT PUSH2 0x225 JUMPI DUP3 SWAP1 SUB PUSH1 0x1F AND DUP3 ADD SWAP2 JUMPDEST POP POP POP POP POP DUP2 JUMP JUMPDEST PUSH1 0x1 SLOAD DUP2 JUMP JUMPDEST PUSH1 0x60 PUSH9 0x10000000000000000 DUP4 LT PUSH2 0x2D0 JUMPI PUSH1 0x40 MLOAD PUSH32 0x8C379A000000000000000000000000000000000000000000000000000000000 DUP2 MSTORE PUSH1 0x4 ADD DUP1 DUP1 PUSH1 0x20 ADD DUP3 DUP2 SUB DUP3 MSTORE PUSH1 0xE DUP2 MSTORE PUSH1 0x20 ADD DUP1 PUSH32 0x696E70757420746F6F206C6F6E67000000000000000000000000000000000000 DUP2 MSTORE POP PUSH1 0x20 ADD SWAP2 POP POP PUSH1 0x40 MLOAD DUP1 SWAP2 SUB SWAP1 REVERT JUMPDEST PUSH1 0x60 PUSH1 0x1 PUSH1 0x40 MLOAD SWAP1 DUP1 DUP3 MSTORE DUP1 PUSH1 0x1F ADD PUSH1 0x1F NOT AND PUSH1 0x20 ADD DUP3 ADD PUSH1 0x40 MSTORE DUP1 ISZERO PUSH2 0x306 JUMPI DUP2 PUSH1 0x20 ADD PUSH1 0x1 DUP3 MUL DUP1 CALLDATASIZE DUP4 CALLDATACOPY DUP1 DUP3 ADD SWAP2 POP POP SWAP1 POP JUMPDEST POP SWAP1 POP PUSH1 0x37 DUP5 GT PUSH2 0x35C JUMPI DUP3 DUP5 ADD PUSH1 0xF8 SHL DUP2 PUSH1 0x0 DUP2 MLOAD DUP2 LT PUSH2 0x324 JUMPI INVALID JUMPDEST PUSH1 0x20 ADD ADD SWAP1 PUSH31 0xFFFFFFFFFFFFFFFFFFFFFFFFFFFFFFFFFFFFFFFFFFFFFFFFFFFFFFFFFFFFFF NOT AND SWAP1 DUP2 PUSH1 0x0 BYTE SWAP1 MSTORE8 POP DUP1 SWAP2 POP POP PUSH2 0x3BE JUMP JUMPDEST PUSH1 0x60 PUSH2 0x367 DUP6 PUSH2 0x3C4 JUMP JUMPDEST SWAP1 POP PUSH1 0x37 DUP5 DUP3 MLOAD ADD ADD PUSH1 0xF8 SHL DUP3 PUSH1 0x0 DUP2 MLOAD DUP2 LT PUSH2 0x380 JUMPI INVALID JUMPDEST PUSH1 0x20 ADD ADD SWAP1 PUSH31 0xFFFFFFFFFFFFFFFFFFFFFFFFFFFFFFFFFFFFFFFFFFFFFFFFFFFFFFFFFFFFFF NOT AND SWAP1 DUP2 PUSH1 0x0 BYTE SWAP1 MSTORE8 POP PUSH2 0x3B9 DUP3 DUP3 PUSH2 0x526 JUMP JUMPDEST SWAP3 POP POP POP JUMPDEST SWAP3 SWAP2 POP POP JUMP JUMPDEST PUSH1 0x60 DUP1 PUSH1 0x20 PUSH1 0x40 MLOAD SWAP1 DUP1 DUP3 MSTORE DUP1 PUSH1 0x1F ADD PUSH1 0x1F NOT AND PUSH1 0x20 ADD DUP3 ADD PUSH1 0x40 MSTORE DUP1 ISZERO PUSH2 0x3FB JUMPI DUP2 PUSH1 0x20 ADD PUSH1 0x1 DUP3 MUL DUP1 CALLDATASIZE DUP4 CALLDATACOPY DUP1 DUP3 ADD SWAP2 POP POP SWAP1 POP JUMPDEST POP SWAP1 POP DUP3 PUSH1 0x20 DUP3 ADD MSTORE PUSH1 0x0 DUP1 PUSH32 0xFFFFFFFFFFFFFFFFFFFFFFFFFFFFFFFFFFFFFFFFFFFFFFFF0000000000000000 DUP6 AND EQ ISZERO PUSH2 0x439 JUMPI PUSH1 0x18 SWAP1 POP PUSH2 0x473 JUMP JUMPDEST PUSH1 0x0 PUSH32 0xFFFFFFFFFFFFFFFFFFFFFFFFFFFFFFFF00000000000000000000000000000000 DUP6 AND EQ ISZERO PUSH2 0x46D JUMPI PUSH1 0x10 SWAP1 POP PUSH2 0x472 JUMP JUMPDEST PUSH1 0x0 SWAP1 POP JUMPDEST JUMPDEST JUMPDEST PUSH1 0x20 DUP2 LT ISZERO PUSH2 0x4D2 JUMPI PUSH1 0x0 PUSH1 0xF8 SHL DUP3 DUP3 DUP2 MLOAD DUP2 LT PUSH2 0x48E JUMPI INVALID JUMPDEST PUSH1 0x20 ADD ADD MLOAD PUSH1 0xF8 SHR PUSH1 0xF8 SHL PUSH31 0xFFFFFFFFFFFFFFFFFFFFFFFFFFFFFFFFFFFFFFFFFFFFFFFFFFFFFFFFFFFFFF NOT AND EQ PUSH2 0x4C5 JUMPI PUSH2 0x4D2 JUMP JUMPDEST DUP1 DUP1 PUSH1 0x1 ADD SWAP2 POP POP PUSH2 0x474 JUMP JUMPDEST PUSH1 0x0 DUP2 PUSH1 0x20 SUB SWAP1 POP PUSH1 0x60 DUP2 PUSH1 0x40 MLOAD SWAP1 DUP1 DUP3 MSTORE DUP1 PUSH1 0x1F ADD PUSH1 0x1F NOT AND PUSH1 0x20 ADD DUP3 ADD PUSH1 0x40 MSTORE DUP1 ISZERO PUSH2 0x50F JUMPI DUP2 PUSH1 0x20 ADD PUSH1 0x1 DUP3 MUL DUP1 CALLDATASIZE DUP4 CALLDATACOPY DUP1 DUP3 ADD SWAP2 POP POP SWAP1 POP JUMPDEST POP SWAP1 POP DUP6 DUP3 DUP3 ADD MSTORE DUP2 DUP2 MSTORE DUP1 SWAP5 POP POP POP POP POP SWAP2 SWAP1 POP JUMP JUMPDEST PUSH1 0x60 DUP1 PUSH1 0x40 MLOAD SWAP1 POP DUP4 MLOAD DUP1 DUP3 MSTORE PUSH1 0x20 DUP3 ADD DUP2 DUP2 ADD PUSH1 0x20 DUP8 ADD JUMPDEST DUP2 DUP4 LT ISZERO PUSH2 0x55C JUMPI DUP1 MLOAD DUP4 MSTORE PUSH1 0x20 DUP4 ADD SWAP3 POP PUSH1 0x20 DUP2 ADD SWAP1 POP PUSH2 0x53F JUMP JUMPDEST POP DUP6 MLOAD SWAP3 POP DUP4 MLOAD DUP4 ADD DUP5 MSTORE DUP1 SWAP2 POP DUP3 DUP3 ADD SWAP1 POP PUSH1 0x20 DUP7 ADD JUMPDEST DUP2 DUP4 LT ISZERO PUSH2 0x591 JUMPI DUP1 MLOAD DUP4 MSTORE PUSH1 0x20 DUP4 ADD SWAP3 POP PUSH1 0x20 DUP2 ADD SWAP1 POP PUSH2 0x574 JUMP JUMPDEST POP PUSH1 0x1F NOT PUSH1 0x1F DUP9 MLOAD DUP6 ADD ISZERO DUP4 ADD ADD AND PUSH1 0x40 MSTORE POP POP POP DUP1 SWAP2 POP POP SWAP3 SWAP2 POP POP JUMP INVALID LOG2 PUSH5 0x6970667358 0x22 SLT KECCAK256 DUP9 DIFFICULTY 0xD9 0x4A 0xC5 SWAP16 CHAINID SUB 0xB9 PUSH16 0xF6FABC5C9AC46A205DF3737F85841F44 PUSH25 0xD7207534A864736F6C634300060400334E414C4548484A5347 DIFFICULTY MSTORE8 DIFFICULTY SELFBALANCE 0x48 0x4A MSTORE8 DIFFICULTY 0x48 MSTORE8 SSTORE 0x48 DIFFICULTY 0x4A MSTORE8 0x48 DIFFICULTY 0x4A MSTORE8 0x48 0x4A MSTORE8 0x48 0x4A MSTORE8 0x48 DIFFICULTY MSTORE8 0x4A DIFFICULTY 0x48 0x4A 0x4F 0x4E SELFBALANCE JUMP 0x4F "
				},
				"gasEstimates": {
					"creation": {
						"codeDepositCost": "302000",
						"executionCost": "infinite",
						"totalCost": "infinite"
					},
					"external": {
						"data1()": "infinite",
						"data2()": "1027",
						"getData(uint256,uint256)": "infinite"
					},
					"internal": {
						"encodeLength(uint256,uint256)": "infinite",
						"mergeBytes(bytes memory,bytes memory)": "infinite",
						"toBinary(uint256)": "infinite"
					}
				},
				"methodIdentifiers": {
					"data1()": "9ffd85c4",
					"data2()": "e3a7fd75",
					"getData(uint256,uint256)": "4e4fe306"
				}
			},
			"userdoc": {
				"methods": {}
			}
		}
	}
}