{
	"contracts/demo1.sol": {
		"Demo1": {
			"abi": [
				{
					"constant": true,
					"inputs": [],
					"name": "bytesDemo1",
					"outputs": [
						{
							"internalType": "bytes",
							"name": "",
							"type": "bytes"
						}
					],
					"payable": false,
					"stateMutability": "view",
					"type": "function"
				},
				{
					"constant": true,
					"inputs": [],
					"name": "bytesDemo2",
					"outputs": [
						{
							"internalType": "bytes",
							"name": "",
							"type": "bytes"
						}
					],
					"payable": false,
					"stateMutability": "view",
					"type": "function"
				},
				{
					"constant": true,
					"inputs": [],
					"name": "bytesDemo3",
					"outputs": [
						{
							"internalType": "bytes",
							"name": "",
							"type": "bytes"
						}
					],
					"payable": false,
					"stateMutability": "view",
					"type": "function"
				},
				{
					"constant": true,
					"inputs": [],
					"name": "bytesDemo4",
					"outputs": [
						{
							"internalType": "bytes",
							"name": "",
							"type": "bytes"
						}
					],
					"payable": false,
					"stateMutability": "view",
					"type": "function"
				},
				{
					"constant": true,
					"inputs": [],
					"name": "bytesDemo5",
					"outputs": [
						{
							"internalType": "bytes",
							"name": "",
							"type": "bytes"
						}
					],
					"payable": false,
					"stateMutability": "view",
					"type": "function"
				},
				{
					"constant": true,
					"inputs": [
						{
							"internalType": "bytes",
							"name": "self",
							"type": "bytes"
						}
					],
					"name": "getData",
					"outputs": [
						{
							"internalType": "bytes",
							"name": "",
							"type": "bytes"
						}
					],
					"payable": false,
					"stateMutability": "view",
					"type": "function"
				},
				{
					"constant": true,
					"inputs": [
						{
							"internalType": "uint256",
							"name": "",
							"type": "uint256"
						}
					],
					"name": "self",
					"outputs": [
						{
							"internalType": "bytes",
							"name": "",
							"type": "bytes"
						}
					],
					"payable": false,
					"stateMutability": "view",
					"type": "function"
				},
				{
					"constant": false,
					"inputs": [
						{
							"internalType": "bytes",
							"name": "_data",
							"type": "bytes"
						}
					],
					"name": "setSelfData",
					"outputs": [],
					"payable": false,
					"stateMutability": "nonpayable",
					"type": "function"
				}
			],
			"devdoc": {
				"methods": {}
			},
			"evm": {
				"assembly": "    /* \"contracts/demo1.sol\":92:18184  contract Demo1{\r... */\n  mstore(0x40, 0x80)\n    /* \"contracts/demo1.sol\":171:205  bytes public bytesDemo1 = \"sdfdsf\" */\n  mload(0x40)\n  dup1\n  0x40\n  add\n  0x40\n  mstore\n  dup1\n  0x06\n  dup2\n  mstore\n  0x20\n  add\n  0x7364666473660000000000000000000000000000000000000000000000000000\n  dup2\n  mstore\n  pop\n  0x00\n  swap1\n  dup1\n  mload\n  swap1\n  0x20\n  add\n  swap1\n  tag_1\n  swap3\n  swap2\n  swap1\n  tag_2\n  jump\t// in\ntag_1:\n  pop\n    /* \"contracts/demo1.sol\":212:245  bytes public bytesDemo2 = \"13452\" */\n  mload(0x40)\n  dup1\n  0x40\n  add\n  0x40\n  mstore\n  dup1\n  0x05\n  dup2\n  mstore\n  0x20\n  add\n  0x3133343532000000000000000000000000000000000000000000000000000000\n  dup2\n  mstore\n  pop\n  0x01\n  swap1\n  dup1\n  mload\n  swap1\n  0x20\n  add\n  swap1\n  tag_3\n  swap3\n  swap2\n  swap1\n  tag_2\n  jump\t// in\ntag_3:\n  pop\n    /* \"contracts/demo1.sol\":252:287  bytes public bytesDemo3 = \"1dfsdf2\" */\n  mload(0x40)\n  dup1\n  0x40\n  add\n  0x40\n  mstore\n  dup1\n  0x07\n  dup2\n  mstore\n  0x20\n  add\n  0x3164667364663200000000000000000000000000000000000000000000000000\n  dup2\n  mstore\n  pop\n  0x02\n  swap1\n  dup1\n  mload\n  swap1\n  0x20\n  add\n  swap1\n  tag_4\n  swap3\n  swap2\n  swap1\n  tag_2\n  jump\t// in\ntag_4:\n  pop\n    /* \"contracts/demo1.sol\":294:329  bytes public bytesDemo4 = \"sdefsdf\" */\n  mload(0x40)\n  dup1\n  0x40\n  add\n  0x40\n  mstore\n  dup1\n  0x07\n  dup2\n  mstore\n  0x20\n  add\n  0x7364656673646600000000000000000000000000000000000000000000000000\n  dup2\n  mstore\n  pop\n  0x03\n  swap1\n  dup1\n  mload\n  swap1\n  0x20\n  add\n  swap1\n  tag_5\n  swap3\n  swap2\n  swap1\n  tag_2\n  jump\t// in\ntag_5:\n  pop\n    /* \"contracts/demo1.sol\":444:534  bytes public bytesDemo5 = \"dfdfdfdfAHGHGDSHDBGHSDSISGBOQBUIHKJBUISCHsdfdsfSSSSSSDSDSDSDSD\" */\n  mload(0x40)\n  dup1\n  0x60\n  add\n  0x40\n  mstore\n  dup1\n  0x3e\n  dup2\n  mstore\n  0x20\n  add\n  data_d99d57b2a63a8e679ec4622c09c3ee1dfea65c927b069900ecc6db64f0c663c9\n  0x3e\n  swap2\n  codecopy\n  0x05\n  swap1\n  dup1\n  mload\n  swap1\n  0x20\n  add\n  swap1\n  tag_6\n  swap3\n  swap2\n  swap1\n  tag_2\n  jump\t// in\ntag_6:\n  pop\n    /* \"contracts/demo1.sol\":92:18184  contract Demo1{\r... */\n  callvalue\n    /* \"--CODEGEN--\":8:17   */\n  dup1\n    /* \"--CODEGEN--\":5:7   */\n  iszero\n  tag_7\n  jumpi\n    /* \"--CODEGEN--\":30:31   */\n  0x00\n    /* \"--CODEGEN--\":27:28   */\n  dup1\n    /* \"--CODEGEN--\":20:32   */\n  revert\n    /* \"--CODEGEN--\":5:7   */\ntag_7:\n    /* \"contracts/demo1.sol\":92:18184  contract Demo1{\r... */\n  pop\n  jump(tag_8)\ntag_2:\n  dup3\n  dup1\n  sload\n  0x01\n  dup2\n  0x01\n  and\n  iszero\n  0x0100\n  mul\n  sub\n  and\n  0x02\n  swap1\n  div\n  swap1\n  0x00\n  mstore\n  keccak256(0x00, 0x20)\n  swap1\n  0x1f\n  add\n  0x20\n  swap1\n  div\n  dup2\n  add\n  swap3\n  dup3\n  0x1f\n  lt\n  tag_10\n  jumpi\n  dup1\n  mload\n  not(0xff)\n  and\n  dup4\n  dup1\n  add\n  or\n  dup6\n  sstore\n  jump(tag_9)\ntag_10:\n  dup3\n  dup1\n  add\n  0x01\n  add\n  dup6\n  sstore\n  dup3\n  iszero\n  tag_9\n  jumpi\n  swap2\n  dup3\n  add\ntag_11:\n  dup3\n  dup2\n  gt\n  iszero\n  tag_12\n  jumpi\n  dup3\n  mload\n  dup3\n  sstore\n  swap2\n  0x20\n  add\n  swap2\n  swap1\n  0x01\n  add\n  swap1\n  jump(tag_11)\ntag_12:\ntag_9:\n  pop\n  swap1\n  pop\n  tag_13\n  swap2\n  swap1\n  tag_14\n  jump\t// in\ntag_13:\n  pop\n  swap1\n  jump\t// out\ntag_14:\n  tag_15\n  swap2\n  swap1\ntag_16:\n  dup1\n  dup3\n  gt\n  iszero\n  tag_17\n  jumpi\n  0x00\n  dup2\n  0x00\n  swap1\n  sstore\n  pop\n  0x01\n  add\n  jump(tag_16)\ntag_17:\n  pop\n  swap1\n  jump\ntag_15:\n  swap1\n  jump\t// out\ntag_8:\n  dataSize(sub_0)\n  dup1\n  dataOffset(sub_0)\n  0x00\n  codecopy\n  0x00\n  return\nstop\ndata_d99d57b2a63a8e679ec4622c09c3ee1dfea65c927b069900ecc6db64f0c663c9 6466646664666466414847484744534844424748534453495347424f51425549484b4a425549534348736466647366535353535353445344534453445344\n\nsub_0: assembly {\n        /* \"contracts/demo1.sol\":92:18184  contract Demo1{\r... */\n      mstore(0x40, 0x80)\n      callvalue\n        /* \"--CODEGEN--\":8:17   */\n      dup1\n        /* \"--CODEGEN--\":5:7   */\n      iszero\n      tag_1\n      jumpi\n        /* \"--CODEGEN--\":30:31   */\n      0x00\n        /* \"--CODEGEN--\":27:28   */\n      dup1\n        /* \"--CODEGEN--\":20:32   */\n      revert\n        /* \"--CODEGEN--\":5:7   */\n    tag_1:\n        /* \"contracts/demo1.sol\":92:18184  contract Demo1{\r... */\n      pop\n      jumpi(tag_2, lt(calldatasize, 0x04))\n      shr(0xe0, calldataload(0x00))\n      dup1\n      0xaf1fba2f\n      gt\n      tag_11\n      jumpi\n      dup1\n      0xaf1fba2f\n      eq\n      tag_7\n      jumpi\n      dup1\n      0xe82f2df9\n      eq\n      tag_8\n      jumpi\n      dup1\n      0xea55583e\n      eq\n      tag_9\n      jumpi\n      dup1\n      0xf7a08e1f\n      eq\n      tag_10\n      jumpi\n      jump(tag_2)\n    tag_11:\n      dup1\n      0x1431b23a\n      eq\n      tag_3\n      jumpi\n      dup1\n      0x2f10a511\n      eq\n      tag_4\n      jumpi\n      dup1\n      0x3aeee938\n      eq\n      tag_5\n      jumpi\n      dup1\n      0x43fd8ccd\n      eq\n      tag_6\n      jumpi\n    tag_2:\n      0x00\n      dup1\n      revert\n        /* \"contracts/demo1.sol\":635:747  function getData(bytes memory self) public view returns(bytes memory){\r... */\n    tag_3:\n      tag_12\n      0x04\n      dup1\n      calldatasize\n      sub\n        /* \"--CODEGEN--\":13:15   */\n      0x20\n        /* \"--CODEGEN--\":8:11   */\n      dup2\n        /* \"--CODEGEN--\":5:16   */\n      lt\n        /* \"--CODEGEN--\":2:4   */\n      iszero\n      tag_13\n      jumpi\n        /* \"--CODEGEN--\":29:30   */\n      0x00\n        /* \"--CODEGEN--\":26:27   */\n      dup1\n        /* \"--CODEGEN--\":19:31   */\n      revert\n        /* \"--CODEGEN--\":2:4   */\n    tag_13:\n        /* \"contracts/demo1.sol\":635:747  function getData(bytes memory self) public view returns(bytes memory){\r... */\n      dup2\n      add\n      swap1\n      dup1\n      dup1\n      calldataload\n      swap1\n      0x20\n      add\n      swap1\n        /* \"--CODEGEN--\":21:32   */\n      0x0100000000\n        /* \"--CODEGEN--\":8:19   */\n      dup2\n        /* \"--CODEGEN--\":5:33   */\n      gt\n        /* \"--CODEGEN--\":2:4   */\n      iszero\n      tag_14\n      jumpi\n        /* \"--CODEGEN--\":46:47   */\n      0x00\n        /* \"--CODEGEN--\":43:44   */\n      dup1\n        /* \"--CODEGEN--\":36:48   */\n      revert\n        /* \"--CODEGEN--\":2:4   */\n    tag_14:\n        /* \"contracts/demo1.sol\":635:747  function getData(bytes memory self) public view returns(bytes memory){\r... */\n      dup3\n      add\n        /* \"--CODEGEN--\":35:44   */\n      dup4\n        /* \"--CODEGEN--\":28:32   */\n      0x20\n        /* \"--CODEGEN--\":12:26   */\n      dup3\n        /* \"--CODEGEN--\":8:33   */\n      add\n        /* \"--CODEGEN--\":5:45   */\n      gt\n        /* \"--CODEGEN--\":2:4   */\n      iszero\n      tag_15\n      jumpi\n        /* \"--CODEGEN--\":58:59   */\n      0x00\n        /* \"--CODEGEN--\":55:56   */\n      dup1\n        /* \"--CODEGEN--\":48:60   */\n      revert\n        /* \"--CODEGEN--\":2:4   */\n    tag_15:\n        /* \"contracts/demo1.sol\":635:747  function getData(bytes memory self) public view returns(bytes memory){\r... */\n      dup1\n      calldataload\n      swap1\n      0x20\n      add\n      swap2\n        /* \"--CODEGEN--\":100:109   */\n      dup5\n        /* \"--CODEGEN--\":95:96   */\n      0x01\n        /* \"--CODEGEN--\":81:93   */\n      dup4\n        /* \"--CODEGEN--\":77:97   */\n      mul\n        /* \"--CODEGEN--\":67:75   */\n      dup5\n        /* \"--CODEGEN--\":63:98   */\n      add\n        /* \"--CODEGEN--\":60:110   */\n      gt\n        /* \"--CODEGEN--\":39:50   */\n      0x0100000000\n        /* \"--CODEGEN--\":25:37   */\n      dup4\n        /* \"--CODEGEN--\":22:51   */\n      gt\n        /* \"--CODEGEN--\":11:118   */\n      or\n        /* \"--CODEGEN--\":8:10   */\n      iszero\n      tag_16\n      jumpi\n        /* \"--CODEGEN--\":131:132   */\n      0x00\n        /* \"--CODEGEN--\":128:129   */\n      dup1\n        /* \"--CODEGEN--\":121:133   */\n      revert\n        /* \"--CODEGEN--\":8:10   */\n    tag_16:\n        /* \"contracts/demo1.sol\":635:747  function getData(bytes memory self) public view returns(bytes memory){\r... */\n      swap2\n      swap1\n      dup1\n      dup1\n      0x1f\n      add\n      0x20\n      dup1\n      swap2\n      div\n      mul\n      0x20\n      add\n      mload(0x40)\n      swap1\n      dup2\n      add\n      0x40\n      mstore\n      dup1\n      swap4\n      swap3\n      swap2\n      swap1\n      dup2\n      dup2\n      mstore\n      0x20\n      add\n      dup4\n      dup4\n        /* \"--CODEGEN--\":30:33   */\n      dup1\n        /* \"--CODEGEN--\":22:28   */\n      dup3\n        /* \"--CODEGEN--\":14:20   */\n      dup5\n        /* \"--CODEGEN--\":1:34   */\n      calldatacopy\n        /* \"--CODEGEN--\":99:100   */\n      0x00\n        /* \"--CODEGEN--\":93:96   */\n      dup2\n        /* \"--CODEGEN--\":85:91   */\n      dup5\n        /* \"--CODEGEN--\":81:97   */\n      add\n        /* \"--CODEGEN--\":74:101   */\n      mstore\n        /* \"--CODEGEN--\":137:141   */\n      0x1f\n        /* \"--CODEGEN--\":133:142   */\n      not\n        /* \"--CODEGEN--\":126:130   */\n      0x1f\n        /* \"--CODEGEN--\":121:124   */\n      dup3\n        /* \"--CODEGEN--\":117:131   */\n      add\n        /* \"--CODEGEN--\":113:143   */\n      and\n        /* \"--CODEGEN--\":106:143   */\n      swap1\n      pop\n        /* \"--CODEGEN--\":169:172   */\n      dup1\n        /* \"--CODEGEN--\":161:167   */\n      dup4\n        /* \"--CODEGEN--\":157:173   */\n      add\n        /* \"--CODEGEN--\":147:173   */\n      swap3\n      pop\n        /* \"contracts/demo1.sol\":635:747  function getData(bytes memory self) public view returns(bytes memory){\r... */\n      pop\n      pop\n      pop\n      pop\n      pop\n      pop\n      swap2\n      swap3\n      swap2\n      swap3\n      swap1\n      pop\n      pop\n      pop\n      tag_17\n      jump\t// in\n    tag_12:\n      mload(0x40)\n      dup1\n      dup1\n      0x20\n      add\n      dup3\n      dup2\n      sub\n      dup3\n      mstore\n      dup4\n      dup2\n      dup2\n      mload\n      dup2\n      mstore\n      0x20\n      add\n      swap2\n      pop\n      dup1\n      mload\n      swap1\n      0x20\n      add\n      swap1\n      dup1\n      dup4\n      dup4\n        /* \"--CODEGEN--\":23:24   */\n      0x00\n        /* \"--CODEGEN--\":8:108   */\n    tag_18:\n        /* \"--CODEGEN--\":33:36   */\n      dup4\n        /* \"--CODEGEN--\":30:31   */\n      dup2\n        /* \"--CODEGEN--\":27:37   */\n      lt\n        /* \"--CODEGEN--\":8:108   */\n      iszero\n      tag_20\n      jumpi\n        /* \"--CODEGEN--\":99:100   */\n      dup1\n        /* \"--CODEGEN--\":94:97   */\n      dup3\n        /* \"--CODEGEN--\":90:101   */\n      add\n        /* \"--CODEGEN--\":84:102   */\n      mload\n        /* \"--CODEGEN--\":80:81   */\n      dup2\n        /* \"--CODEGEN--\":75:78   */\n      dup5\n        /* \"--CODEGEN--\":71:82   */\n      add\n        /* \"--CODEGEN--\":64:103   */\n      mstore\n        /* \"--CODEGEN--\":52:54   */\n      0x20\n        /* \"--CODEGEN--\":49:50   */\n      dup2\n        /* \"--CODEGEN--\":45:55   */\n      add\n        /* \"--CODEGEN--\":40:55   */\n      swap1\n      pop\n        /* \"--CODEGEN--\":8:108   */\n      jump(tag_18)\n    tag_20:\n        /* \"--CODEGEN--\":12:26   */\n      pop\n        /* \"contracts/demo1.sol\":635:747  function getData(bytes memory self) public view returns(bytes memory){\r... */\n      pop\n      pop\n      pop\n      swap1\n      pop\n      swap1\n      dup2\n      add\n      swap1\n      0x1f\n      and\n      dup1\n      iszero\n      tag_21\n      jumpi\n      dup1\n      dup3\n      sub\n      dup1\n      mload\n      0x01\n      dup4\n      0x20\n      sub\n      0x0100\n      exp\n      sub\n      not\n      and\n      dup2\n      mstore\n      0x20\n      add\n      swap2\n      pop\n    tag_21:\n      pop\n      swap3\n      pop\n      pop\n      pop\n      mload(0x40)\n      dup1\n      swap2\n      sub\n      swap1\n      return\n        /* \"contracts/demo1.sol\":444:534  bytes public bytesDemo5 = \"dfdfdfdfAHGHGDSHDBGHSDSISGBOQBUIHKJBUISCHsdfdsfSSSSSSDSDSDSDSD\" */\n    tag_4:\n      tag_22\n      tag_23\n      jump\t// in\n    tag_22:\n      mload(0x40)\n      dup1\n      dup1\n      0x20\n      add\n      dup3\n      dup2\n      sub\n      dup3\n      mstore\n      dup4\n      dup2\n      dup2\n      mload\n      dup2\n      mstore\n      0x20\n      add\n      swap2\n      pop\n      dup1\n      mload\n      swap1\n      0x20\n      add\n      swap1\n      dup1\n      dup4\n      dup4\n        /* \"--CODEGEN--\":23:24   */\n      0x00\n        /* \"--CODEGEN--\":8:108   */\n    tag_24:\n        /* \"--CODEGEN--\":33:36   */\n      dup4\n        /* \"--CODEGEN--\":30:31   */\n      dup2\n        /* \"--CODEGEN--\":27:37   */\n      lt\n        /* \"--CODEGEN--\":8:108   */\n      iszero\n      tag_26\n      jumpi\n        /* \"--CODEGEN--\":99:100   */\n      dup1\n        /* \"--CODEGEN--\":94:97   */\n      dup3\n        /* \"--CODEGEN--\":90:101   */\n      add\n        /* \"--CODEGEN--\":84:102   */\n      mload\n        /* \"--CODEGEN--\":80:81   */\n      dup2\n        /* \"--CODEGEN--\":75:78   */\n      dup5\n        /* \"--CODEGEN--\":71:82   */\n      add\n        /* \"--CODEGEN--\":64:103   */\n      mstore\n        /* \"--CODEGEN--\":52:54   */\n      0x20\n        /* \"--CODEGEN--\":49:50   */\n      dup2\n        /* \"--CODEGEN--\":45:55   */\n      add\n        /* \"--CODEGEN--\":40:55   */\n      swap1\n      pop\n        /* \"--CODEGEN--\":8:108   */\n      jump(tag_24)\n    tag_26:\n        /* \"--CODEGEN--\":12:26   */\n      pop\n        /* \"contracts/demo1.sol\":444:534  bytes public bytesDemo5 = \"dfdfdfdfAHGHGDSHDBGHSDSISGBOQBUIHKJBUISCHsdfdsfSSSSSSDSDSDSDSD\" */\n      pop\n      pop\n      pop\n      swap1\n      pop\n      swap1\n      dup2\n      add\n      swap1\n      0x1f\n      and\n      dup1\n      iszero\n      tag_27\n      jumpi\n      dup1\n      dup3\n      sub\n      dup1\n      mload\n      0x01\n      dup4\n      0x20\n      sub\n      0x0100\n      exp\n      sub\n      not\n      and\n      dup2\n      mstore\n      0x20\n      add\n      swap2\n      pop\n    tag_27:\n      pop\n      swap3\n      pop\n      pop\n      pop\n      mload(0x40)\n      dup1\n      swap2\n      sub\n      swap1\n      return\n        /* \"contracts/demo1.sol\":212:245  bytes public bytesDemo2 = \"13452\" */\n    tag_5:\n      tag_28\n      tag_29\n      jump\t// in\n    tag_28:\n      mload(0x40)\n      dup1\n      dup1\n      0x20\n      add\n      dup3\n      dup2\n      sub\n      dup3\n      mstore\n      dup4\n      dup2\n      dup2\n      mload\n      dup2\n      mstore\n      0x20\n      add\n      swap2\n      pop\n      dup1\n      mload\n      swap1\n      0x20\n      add\n      swap1\n      dup1\n      dup4\n      dup4\n        /* \"--CODEGEN--\":23:24   */\n      0x00\n        /* \"--CODEGEN--\":8:108   */\n    tag_30:\n        /* \"--CODEGEN--\":33:36   */\n      dup4\n        /* \"--CODEGEN--\":30:31   */\n      dup2\n        /* \"--CODEGEN--\":27:37   */\n      lt\n        /* \"--CODEGEN--\":8:108   */\n      iszero\n      tag_32\n      jumpi\n        /* \"--CODEGEN--\":99:100   */\n      dup1\n        /* \"--CODEGEN--\":94:97   */\n      dup3\n        /* \"--CODEGEN--\":90:101   */\n      add\n        /* \"--CODEGEN--\":84:102   */\n      mload\n        /* \"--CODEGEN--\":80:81   */\n      dup2\n        /* \"--CODEGEN--\":75:78   */\n      dup5\n        /* \"--CODEGEN--\":71:82   */\n      add\n        /* \"--CODEGEN--\":64:103   */\n      mstore\n        /* \"--CODEGEN--\":52:54   */\n      0x20\n        /* \"--CODEGEN--\":49:50   */\n      dup2\n        /* \"--CODEGEN--\":45:55   */\n      add\n        /* \"--CODEGEN--\":40:55   */\n      swap1\n      pop\n        /* \"--CODEGEN--\":8:108   */\n      jump(tag_30)\n    tag_32:\n        /* \"--CODEGEN--\":12:26   */\n      pop\n        /* \"contracts/demo1.sol\":212:245  bytes public bytesDemo2 = \"13452\" */\n      pop\n      pop\n      pop\n      swap1\n      pop\n      swap1\n      dup2\n      add\n      swap1\n      0x1f\n      and\n      dup1\n      iszero\n      tag_33\n      jumpi\n      dup1\n      dup3\n      sub\n      dup1\n      mload\n      0x01\n      dup4\n      0x20\n      sub\n      0x0100\n      exp\n      sub\n      not\n      and\n      dup2\n      mstore\n      0x20\n      add\n      swap2\n      pop\n    tag_33:\n      pop\n      swap3\n      pop\n      pop\n      pop\n      mload(0x40)\n      dup1\n      swap2\n      sub\n      swap1\n      return\n        /* \"contracts/demo1.sol\":294:329  bytes public bytesDemo4 = \"sdefsdf\" */\n    tag_6:\n      tag_34\n      tag_35\n      jump\t// in\n    tag_34:\n      mload(0x40)\n      dup1\n      dup1\n      0x20\n      add\n      dup3\n      dup2\n      sub\n      dup3\n      mstore\n      dup4\n      dup2\n      dup2\n      mload\n      dup2\n      mstore\n      0x20\n      add\n      swap2\n      pop\n      dup1\n      mload\n      swap1\n      0x20\n      add\n      swap1\n      dup1\n      dup4\n      dup4\n        /* \"--CODEGEN--\":23:24   */\n      0x00\n        /* \"--CODEGEN--\":8:108   */\n    tag_36:\n        /* \"--CODEGEN--\":33:36   */\n      dup4\n        /* \"--CODEGEN--\":30:31   */\n      dup2\n        /* \"--CODEGEN--\":27:37   */\n      lt\n        /* \"--CODEGEN--\":8:108   */\n      iszero\n      tag_38\n      jumpi\n        /* \"--CODEGEN--\":99:100   */\n      dup1\n        /* \"--CODEGEN--\":94:97   */\n      dup3\n        /* \"--CODEGEN--\":90:101   */\n      add\n        /* \"--CODEGEN--\":84:102   */\n      mload\n        /* \"--CODEGEN--\":80:81   */\n      dup2\n        /* \"--CODEGEN--\":75:78   */\n      dup5\n        /* \"--CODEGEN--\":71:82   */\n      add\n        /* \"--CODEGEN--\":64:103   */\n      mstore\n        /* \"--CODEGEN--\":52:54   */\n      0x20\n        /* \"--CODEGEN--\":49:50   */\n      dup2\n        /* \"--CODEGEN--\":45:55   */\n      add\n        /* \"--CODEGEN--\":40:55   */\n      swap1\n      pop\n        /* \"--CODEGEN--\":8:108   */\n      jump(tag_36)\n    tag_38:\n        /* \"--CODEGEN--\":12:26   */\n      pop\n        /* \"contracts/demo1.sol\":294:329  bytes public bytesDemo4 = \"sdefsdf\" */\n      pop\n      pop\n      pop\n      swap1\n      pop\n      swap1\n      dup2\n      add\n      swap1\n      0x1f\n      and\n      dup1\n      iszero\n      tag_39\n      jumpi\n      dup1\n      dup3\n      sub\n      dup1\n      mload\n      0x01\n      dup4\n      0x20\n      sub\n      0x0100\n      exp\n      sub\n      not\n      and\n      dup2\n      mstore\n      0x20\n      add\n      swap2\n      pop\n    tag_39:\n      pop\n      swap3\n      pop\n      pop\n      pop\n      mload(0x40)\n      dup1\n      swap2\n      sub\n      swap1\n      return\n        /* \"contracts/demo1.sol\":418:437  bytes[] public self */\n    tag_7:\n      tag_40\n      0x04\n      dup1\n      calldatasize\n      sub\n        /* \"--CODEGEN--\":13:15   */\n      0x20\n        /* \"--CODEGEN--\":8:11   */\n      dup2\n        /* \"--CODEGEN--\":5:16   */\n      lt\n        /* \"--CODEGEN--\":2:4   */\n      iszero\n      tag_41\n      jumpi\n        /* \"--CODEGEN--\":29:30   */\n      0x00\n        /* \"--CODEGEN--\":26:27   */\n      dup1\n        /* \"--CODEGEN--\":19:31   */\n      revert\n        /* \"--CODEGEN--\":2:4   */\n    tag_41:\n        /* \"contracts/demo1.sol\":418:437  bytes[] public self */\n      dup2\n      add\n      swap1\n      dup1\n      dup1\n      calldataload\n      swap1\n      0x20\n      add\n      swap1\n      swap3\n      swap2\n      swap1\n      pop\n      pop\n      pop\n      tag_42\n      jump\t// in\n    tag_40:\n      mload(0x40)\n      dup1\n      dup1\n      0x20\n      add\n      dup3\n      dup2\n      sub\n      dup3\n      mstore\n      dup4\n      dup2\n      dup2\n      mload\n      dup2\n      mstore\n      0x20\n      add\n      swap2\n      pop\n      dup1\n      mload\n      swap1\n      0x20\n      add\n      swap1\n      dup1\n      dup4\n      dup4\n        /* \"--CODEGEN--\":23:24   */\n      0x00\n        /* \"--CODEGEN--\":8:108   */\n    tag_43:\n        /* \"--CODEGEN--\":33:36   */\n      dup4\n        /* \"--CODEGEN--\":30:31   */\n      dup2\n        /* \"--CODEGEN--\":27:37   */\n      lt\n        /* \"--CODEGEN--\":8:108   */\n      iszero\n      tag_45\n      jumpi\n        /* \"--CODEGEN--\":99:100   */\n      dup1\n        /* \"--CODEGEN--\":94:97   */\n      dup3\n        /* \"--CODEGEN--\":90:101   */\n      add\n        /* \"--CODEGEN--\":84:102   */\n      mload\n        /* \"--CODEGEN--\":80:81   */\n      dup2\n        /* \"--CODEGEN--\":75:78   */\n      dup5\n        /* \"--CODEGEN--\":71:82   */\n      add\n        /* \"--CODEGEN--\":64:103   */\n      mstore\n        /* \"--CODEGEN--\":52:54   */\n      0x20\n        /* \"--CODEGEN--\":49:50   */\n      dup2\n        /* \"--CODEGEN--\":45:55   */\n      add\n        /* \"--CODEGEN--\":40:55   */\n      swap1\n      pop\n        /* \"--CODEGEN--\":8:108   */\n      jump(tag_43)\n    tag_45:\n        /* \"--CODEGEN--\":12:26   */\n      pop\n        /* \"contracts/demo1.sol\":418:437  bytes[] public self */\n      pop\n      pop\n      pop\n      swap1\n      pop\n      swap1\n      dup2\n      add\n      swap1\n      0x1f\n      and\n      dup1\n      iszero\n      tag_46\n      jumpi\n      dup1\n      dup3\n      sub\n      dup1\n      mload\n      0x01\n      dup4\n      0x20\n      sub\n      0x0100\n      exp\n      sub\n      not\n      and\n      dup2\n      mstore\n      0x20\n      add\n      swap2\n      pop\n    tag_46:\n      pop\n      swap3\n      pop\n      pop\n      pop\n      mload(0x40)\n      dup1\n      swap2\n      sub\n      swap1\n      return\n        /* \"contracts/demo1.sol\":252:287  bytes public bytesDemo3 = \"1dfsdf2\" */\n    tag_8:\n      tag_47\n      tag_48\n      jump\t// in\n    tag_47:\n      mload(0x40)\n      dup1\n      dup1\n      0x20\n      add\n      dup3\n      dup2\n      sub\n      dup3\n      mstore\n      dup4\n      dup2\n      dup2\n      mload\n      dup2\n      mstore\n      0x20\n      add\n      swap2\n      pop\n      dup1\n      mload\n      swap1\n      0x20\n      add\n      swap1\n      dup1\n      dup4\n      dup4\n        /* \"--CODEGEN--\":23:24   */\n      0x00\n        /* \"--CODEGEN--\":8:108   */\n    tag_49:\n        /* \"--CODEGEN--\":33:36   */\n      dup4\n        /* \"--CODEGEN--\":30:31   */\n      dup2\n        /* \"--CODEGEN--\":27:37   */\n      lt\n        /* \"--CODEGEN--\":8:108   */\n      iszero\n      tag_51\n      jumpi\n        /* \"--CODEGEN--\":99:100   */\n      dup1\n        /* \"--CODEGEN--\":94:97   */\n      dup3\n        /* \"--CODEGEN--\":90:101   */\n      add\n        /* \"--CODEGEN--\":84:102   */\n      mload\n        /* \"--CODEGEN--\":80:81   */\n      dup2\n        /* \"--CODEGEN--\":75:78   */\n      dup5\n        /* \"--CODEGEN--\":71:82   */\n      add\n        /* \"--CODEGEN--\":64:103   */\n      mstore\n        /* \"--CODEGEN--\":52:54   */\n      0x20\n        /* \"--CODEGEN--\":49:50   */\n      dup2\n        /* \"--CODEGEN--\":45:55   */\n      add\n        /* \"--CODEGEN--\":40:55   */\n      swap1\n      pop\n        /* \"--CODEGEN--\":8:108   */\n      jump(tag_49)\n    tag_51:\n        /* \"--CODEGEN--\":12:26   */\n      pop\n        /* \"contracts/demo1.sol\":252:287  bytes public bytesDemo3 = \"1dfsdf2\" */\n      pop\n      pop\n      pop\n      swap1\n      pop\n      swap1\n      dup2\n      add\n      swap1\n      0x1f\n      and\n      dup1\n      iszero\n      tag_52\n      jumpi\n      dup1\n      dup3\n      sub\n      dup1\n      mload\n      0x01\n      dup4\n      0x20\n      sub\n      0x0100\n      exp\n      sub\n      not\n      and\n      dup2\n      mstore\n      0x20\n      add\n      swap2\n      pop\n    tag_52:\n      pop\n      swap3\n      pop\n      pop\n      pop\n      mload(0x40)\n      dup1\n      swap2\n      sub\n      swap1\n      return\n        /* \"contracts/demo1.sol\":171:205  bytes public bytesDemo1 = \"sdfdsf\" */\n    tag_9:\n      tag_53\n      tag_54\n      jump\t// in\n    tag_53:\n      mload(0x40)\n      dup1\n      dup1\n      0x20\n      add\n      dup3\n      dup2\n      sub\n      dup3\n      mstore\n      dup4\n      dup2\n      dup2\n      mload\n      dup2\n      mstore\n      0x20\n      add\n      swap2\n      pop\n      dup1\n      mload\n      swap1\n      0x20\n      add\n      swap1\n      dup1\n      dup4\n      dup4\n        /* \"--CODEGEN--\":23:24   */\n      0x00\n        /* \"--CODEGEN--\":8:108   */\n    tag_55:\n        /* \"--CODEGEN--\":33:36   */\n      dup4\n        /* \"--CODEGEN--\":30:31   */\n      dup2\n        /* \"--CODEGEN--\":27:37   */\n      lt\n        /* \"--CODEGEN--\":8:108   */\n      iszero\n      tag_57\n      jumpi\n        /* \"--CODEGEN--\":99:100   */\n      dup1\n        /* \"--CODEGEN--\":94:97   */\n      dup3\n        /* \"--CODEGEN--\":90:101   */\n      add\n        /* \"--CODEGEN--\":84:102   */\n      mload\n        /* \"--CODEGEN--\":80:81   */\n      dup2\n        /* \"--CODEGEN--\":75:78   */\n      dup5\n        /* \"--CODEGEN--\":71:82   */\n      add\n        /* \"--CODEGEN--\":64:103   */\n      mstore\n        /* \"--CODEGEN--\":52:54   */\n      0x20\n        /* \"--CODEGEN--\":49:50   */\n      dup2\n        /* \"--CODEGEN--\":45:55   */\n      add\n        /* \"--CODEGEN--\":40:55   */\n      swap1\n      pop\n        /* \"--CODEGEN--\":8:108   */\n      jump(tag_55)\n    tag_57:\n        /* \"--CODEGEN--\":12:26   */\n      pop\n        /* \"contracts/demo1.sol\":171:205  bytes public bytesDemo1 = \"sdfdsf\" */\n      pop\n      pop\n      pop\n      swap1\n      pop\n      swap1\n      dup2\n      add\n      swap1\n      0x1f\n      and\n      dup1\n      iszero\n      tag_58\n      jumpi\n      dup1\n      dup3\n      sub\n      dup1\n      mload\n      0x01\n      dup4\n      0x20\n      sub\n      0x0100\n      exp\n      sub\n      not\n      and\n      dup2\n      mstore\n      0x20\n      add\n      swap2\n      pop\n    tag_58:\n      pop\n      swap3\n      pop\n      pop\n      pop\n      mload(0x40)\n      dup1\n      swap2\n      sub\n      swap1\n      return\n        /* \"contracts/demo1.sol\":543:627  function setSelfData(bytes memory _data) public {\r... */\n    tag_10:\n      tag_59\n      0x04\n      dup1\n      calldatasize\n      sub\n        /* \"--CODEGEN--\":13:15   */\n      0x20\n        /* \"--CODEGEN--\":8:11   */\n      dup2\n        /* \"--CODEGEN--\":5:16   */\n      lt\n        /* \"--CODEGEN--\":2:4   */\n      iszero\n      tag_60\n      jumpi\n        /* \"--CODEGEN--\":29:30   */\n      0x00\n        /* \"--CODEGEN--\":26:27   */\n      dup1\n        /* \"--CODEGEN--\":19:31   */\n      revert\n        /* \"--CODEGEN--\":2:4   */\n    tag_60:\n        /* \"contracts/demo1.sol\":543:627  function setSelfData(bytes memory _data) public {\r... */\n      dup2\n      add\n      swap1\n      dup1\n      dup1\n      calldataload\n      swap1\n      0x20\n      add\n      swap1\n        /* \"--CODEGEN--\":21:32   */\n      0x0100000000\n        /* \"--CODEGEN--\":8:19   */\n      dup2\n        /* \"--CODEGEN--\":5:33   */\n      gt\n        /* \"--CODEGEN--\":2:4   */\n      iszero\n      tag_61\n      jumpi\n        /* \"--CODEGEN--\":46:47   */\n      0x00\n        /* \"--CODEGEN--\":43:44   */\n      dup1\n        /* \"--CODEGEN--\":36:48   */\n      revert\n        /* \"--CODEGEN--\":2:4   */\n    tag_61:\n        /* \"contracts/demo1.sol\":543:627  function setSelfData(bytes memory _data) public {\r... */\n      dup3\n      add\n        /* \"--CODEGEN--\":35:44   */\n      dup4\n        /* \"--CODEGEN--\":28:32   */\n      0x20\n        /* \"--CODEGEN--\":12:26   */\n      dup3\n        /* \"--CODEGEN--\":8:33   */\n      add\n        /* \"--CODEGEN--\":5:45   */\n      gt\n        /* \"--CODEGEN--\":2:4   */\n      iszero\n      tag_62\n      jumpi\n        /* \"--CODEGEN--\":58:59   */\n      0x00\n        /* \"--CODEGEN--\":55:56   */\n      dup1\n        /* \"--CODEGEN--\":48:60   */\n      revert\n        /* \"--CODEGEN--\":2:4   */\n    tag_62:\n        /* \"contracts/demo1.sol\":543:627  function setSelfData(bytes memory _data) public {\r... */\n      dup1\n      calldataload\n      swap1\n      0x20\n      add\n      swap2\n        /* \"--CODEGEN--\":100:109   */\n      dup5\n        /* \"--CODEGEN--\":95:96   */\n      0x01\n        /* \"--CODEGEN--\":81:93   */\n      dup4\n        /* \"--CODEGEN--\":77:97   */\n      mul\n        /* \"--CODEGEN--\":67:75   */\n      dup5\n        /* \"--CODEGEN--\":63:98   */\n      add\n        /* \"--CODEGEN--\":60:110   */\n      gt\n        /* \"--CODEGEN--\":39:50   */\n      0x0100000000\n        /* \"--CODEGEN--\":25:37   */\n      dup4\n        /* \"--CODEGEN--\":22:51   */\n      gt\n        /* \"--CODEGEN--\":11:118   */\n      or\n        /* \"--CODEGEN--\":8:10   */\n      iszero\n      tag_63\n      jumpi\n        /* \"--CODEGEN--\":131:132   */\n      0x00\n        /* \"--CODEGEN--\":128:129   */\n      dup1\n        /* \"--CODEGEN--\":121:133   */\n      revert\n        /* \"--CODEGEN--\":8:10   */\n    tag_63:\n        /* \"contracts/demo1.sol\":543:627  function setSelfData(bytes memory _data) public {\r... */\n      swap2\n      swap1\n      dup1\n      dup1\n      0x1f\n      add\n      0x20\n      dup1\n      swap2\n      div\n      mul\n      0x20\n      add\n      mload(0x40)\n      swap1\n      dup2\n      add\n      0x40\n      mstore\n      dup1\n      swap4\n      swap3\n      swap2\n      swap1\n      dup2\n      dup2\n      mstore\n      0x20\n      add\n      dup4\n      dup4\n        /* \"--CODEGEN--\":30:33   */\n      dup1\n        /* \"--CODEGEN--\":22:28   */\n      dup3\n        /* \"--CODEGEN--\":14:20   */\n      dup5\n        /* \"--CODEGEN--\":1:34   */\n      calldatacopy\n        /* \"--CODEGEN--\":99:100   */\n      0x00\n        /* \"--CODEGEN--\":93:96   */\n      dup2\n        /* \"--CODEGEN--\":85:91   */\n      dup5\n        /* \"--CODEGEN--\":81:97   */\n      add\n        /* \"--CODEGEN--\":74:101   */\n      mstore\n        /* \"--CODEGEN--\":137:141   */\n      0x1f\n        /* \"--CODEGEN--\":133:142   */\n      not\n        /* \"--CODEGEN--\":126:130   */\n      0x1f\n        /* \"--CODEGEN--\":121:124   */\n      dup3\n        /* \"--CODEGEN--\":117:131   */\n      add\n        /* \"--CODEGEN--\":113:143   */\n      and\n        /* \"--CODEGEN--\":106:143   */\n      swap1\n      pop\n        /* \"--CODEGEN--\":169:172   */\n      dup1\n        /* \"--CODEGEN--\":161:167   */\n      dup4\n        /* \"--CODEGEN--\":157:173   */\n      add\n        /* \"--CODEGEN--\":147:173   */\n      swap3\n      pop\n        /* \"contracts/demo1.sol\":543:627  function setSelfData(bytes memory _data) public {\r... */\n      pop\n      pop\n      pop\n      pop\n      pop\n      pop\n      swap2\n      swap3\n      swap2\n      swap3\n      swap1\n      pop\n      pop\n      pop\n      tag_64\n      jump\t// in\n    tag_59:\n      stop\n        /* \"contracts/demo1.sol\":635:747  function getData(bytes memory self) public view returns(bytes memory){\r... */\n    tag_17:\n        /* \"contracts/demo1.sol\":691:703  bytes memory */\n      0x60\n        /* \"contracts/demo1.sol\":722:739  encodeBytes(self) */\n      tag_66\n        /* \"contracts/demo1.sol\":734:738  self */\n      dup3\n        /* \"contracts/demo1.sol\":722:733  encodeBytes */\n      tag_67\n        /* \"contracts/demo1.sol\":722:739  encodeBytes(self) */\n      jump\t// in\n    tag_66:\n        /* \"contracts/demo1.sol\":715:739  return encodeBytes(self) */\n      swap1\n      pop\n        /* \"contracts/demo1.sol\":635:747  function getData(bytes memory self) public view returns(bytes memory){\r... */\n      swap2\n      swap1\n      pop\n      jump\t// out\n        /* \"contracts/demo1.sol\":444:534  bytes public bytesDemo5 = \"dfdfdfdfAHGHGDSHDBGHSDSISGBOQBUIHKJBUISCHsdfdsfSSSSSSDSDSDSDSD\" */\n    tag_23:\n      0x05\n      dup1\n      sload\n      0x01\n      dup2\n      0x01\n      and\n      iszero\n      0x0100\n      mul\n      sub\n      and\n      0x02\n      swap1\n      div\n      dup1\n      0x1f\n      add\n      0x20\n      dup1\n      swap2\n      div\n      mul\n      0x20\n      add\n      mload(0x40)\n      swap1\n      dup2\n      add\n      0x40\n      mstore\n      dup1\n      swap3\n      swap2\n      swap1\n      dup2\n      dup2\n      mstore\n      0x20\n      add\n      dup3\n      dup1\n      sload\n      0x01\n      dup2\n      0x01\n      and\n      iszero\n      0x0100\n      mul\n      sub\n      and\n      0x02\n      swap1\n      div\n      dup1\n      iszero\n      tag_68\n      jumpi\n      dup1\n      0x1f\n      lt\n      tag_69\n      jumpi\n      0x0100\n      dup1\n      dup4\n      sload\n      div\n      mul\n      dup4\n      mstore\n      swap2\n      0x20\n      add\n      swap2\n      jump(tag_68)\n    tag_69:\n      dup3\n      add\n      swap2\n      swap1\n      0x00\n      mstore\n      keccak256(0x00, 0x20)\n      swap1\n    tag_70:\n      dup2\n      sload\n      dup2\n      mstore\n      swap1\n      0x01\n      add\n      swap1\n      0x20\n      add\n      dup1\n      dup4\n      gt\n      tag_70\n      jumpi\n      dup3\n      swap1\n      sub\n      0x1f\n      and\n      dup3\n      add\n      swap2\n    tag_68:\n      pop\n      pop\n      pop\n      pop\n      pop\n      dup2\n      jump\t// out\n        /* \"contracts/demo1.sol\":212:245  bytes public bytesDemo2 = \"13452\" */\n    tag_29:\n      0x01\n      dup1\n      sload\n      0x01\n      dup2\n      0x01\n      and\n      iszero\n      0x0100\n      mul\n      sub\n      and\n      0x02\n      swap1\n      div\n      dup1\n      0x1f\n      add\n      0x20\n      dup1\n      swap2\n      div\n      mul\n      0x20\n      add\n      mload(0x40)\n      swap1\n      dup2\n      add\n      0x40\n      mstore\n      dup1\n      swap3\n      swap2\n      swap1\n      dup2\n      dup2\n      mstore\n      0x20\n      add\n      dup3\n      dup1\n      sload\n      0x01\n      dup2\n      0x01\n      and\n      iszero\n      0x0100\n      mul\n      sub\n      and\n      0x02\n      swap1\n      div\n      dup1\n      iszero\n      tag_71\n      jumpi\n      dup1\n      0x1f\n      lt\n      tag_72\n      jumpi\n      0x0100\n      dup1\n      dup4\n      sload\n      div\n      mul\n      dup4\n      mstore\n      swap2\n      0x20\n      add\n      swap2\n      jump(tag_71)\n    tag_72:\n      dup3\n      add\n      swap2\n      swap1\n      0x00\n      mstore\n      keccak256(0x00, 0x20)\n      swap1\n    tag_73:\n      dup2\n      sload\n      dup2\n      mstore\n      swap1\n      0x01\n      add\n      swap1\n      0x20\n      add\n      dup1\n      dup4\n      gt\n      tag_73\n      jumpi\n      dup3\n      swap1\n      sub\n      0x1f\n      and\n      dup3\n      add\n      swap2\n    tag_71:\n      pop\n      pop\n      pop\n      pop\n      pop\n      dup2\n      jump\t// out\n        /* \"contracts/demo1.sol\":294:329  bytes public bytesDemo4 = \"sdefsdf\" */\n    tag_35:\n      0x03\n      dup1\n      sload\n      0x01\n      dup2\n      0x01\n      and\n      iszero\n      0x0100\n      mul\n      sub\n      and\n      0x02\n      swap1\n      div\n      dup1\n      0x1f\n      add\n      0x20\n      dup1\n      swap2\n      div\n      mul\n      0x20\n      add\n      mload(0x40)\n      swap1\n      dup2\n      add\n      0x40\n      mstore\n      dup1\n      swap3\n      swap2\n      swap1\n      dup2\n      dup2\n      mstore\n      0x20\n      add\n      dup3\n      dup1\n      sload\n      0x01\n      dup2\n      0x01\n      and\n      iszero\n      0x0100\n      mul\n      sub\n      and\n      0x02\n      swap1\n      div\n      dup1\n      iszero\n      tag_74\n      jumpi\n      dup1\n      0x1f\n      lt\n      tag_75\n      jumpi\n      0x0100\n      dup1\n      dup4\n      sload\n      div\n      mul\n      dup4\n      mstore\n      swap2\n      0x20\n      add\n      swap2\n      jump(tag_74)\n    tag_75:\n      dup3\n      add\n      swap2\n      swap1\n      0x00\n      mstore\n      keccak256(0x00, 0x20)\n      swap1\n    tag_76:\n      dup2\n      sload\n      dup2\n      mstore\n      swap1\n      0x01\n      add\n      swap1\n      0x20\n      add\n      dup1\n      dup4\n      gt\n      tag_76\n      jumpi\n      dup3\n      swap1\n      sub\n      0x1f\n      and\n      dup3\n      add\n      swap2\n    tag_74:\n      pop\n      pop\n      pop\n      pop\n      pop\n      dup2\n      jump\t// out\n        /* \"contracts/demo1.sol\":418:437  bytes[] public self */\n    tag_42:\n      0x04\n      dup2\n      dup2\n      sload\n      dup2\n      lt\n      tag_77\n      jumpi\n      invalid\n    tag_77:\n      swap1\n      0x00\n      mstore\n      keccak256(0x00, 0x20)\n      add\n      0x00\n      swap2\n      pop\n      swap1\n      pop\n      dup1\n      sload\n      0x01\n      dup2\n      0x01\n      and\n      iszero\n      0x0100\n      mul\n      sub\n      and\n      0x02\n      swap1\n      div\n      dup1\n      0x1f\n      add\n      0x20\n      dup1\n      swap2\n      div\n      mul\n      0x20\n      add\n      mload(0x40)\n      swap1\n      dup2\n      add\n      0x40\n      mstore\n      dup1\n      swap3\n      swap2\n      swap1\n      dup2\n      dup2\n      mstore\n      0x20\n      add\n      dup3\n      dup1\n      sload\n      0x01\n      dup2\n      0x01\n      and\n      iszero\n      0x0100\n      mul\n      sub\n      and\n      0x02\n      swap1\n      div\n      dup1\n      iszero\n      tag_79\n      jumpi\n      dup1\n      0x1f\n      lt\n      tag_80\n      jumpi\n      0x0100\n      dup1\n      dup4\n      sload\n      div\n      mul\n      dup4\n      mstore\n      swap2\n      0x20\n      add\n      swap2\n      jump(tag_79)\n    tag_80:\n      dup3\n      add\n      swap2\n      swap1\n      0x00\n      mstore\n      keccak256(0x00, 0x20)\n      swap1\n    tag_81:\n      dup2\n      sload\n      dup2\n      mstore\n      swap1\n      0x01\n      add\n      swap1\n      0x20\n      add\n      dup1\n      dup4\n      gt\n      tag_81\n      jumpi\n      dup3\n      swap1\n      sub\n      0x1f\n      and\n      dup3\n      add\n      swap2\n    tag_79:\n      pop\n      pop\n      pop\n      pop\n      pop\n      dup2\n      jump\t// out\n        /* \"contracts/demo1.sol\":252:287  bytes public bytesDemo3 = \"1dfsdf2\" */\n    tag_48:\n      0x02\n      dup1\n      sload\n      0x01\n      dup2\n      0x01\n      and\n      iszero\n      0x0100\n      mul\n      sub\n      and\n      0x02\n      swap1\n      div\n      dup1\n      0x1f\n      add\n      0x20\n      dup1\n      swap2\n      div\n      mul\n      0x20\n      add\n      mload(0x40)\n      swap1\n      dup2\n      add\n      0x40\n      mstore\n      dup1\n      swap3\n      swap2\n      swap1\n      dup2\n      dup2\n      mstore\n      0x20\n      add\n      dup3\n      dup1\n      sload\n      0x01\n      dup2\n      0x01\n      and\n      iszero\n      0x0100\n      mul\n      sub\n      and\n      0x02\n      swap1\n      div\n      dup1\n      iszero\n      tag_82\n      jumpi\n      dup1\n      0x1f\n      lt\n      tag_83\n      jumpi\n      0x0100\n      dup1\n      dup4\n      sload\n      div\n      mul\n      dup4\n      mstore\n      swap2\n      0x20\n      add\n      swap2\n      jump(tag_82)\n    tag_83:\n      dup3\n      add\n      swap2\n      swap1\n      0x00\n      mstore\n      keccak256(0x00, 0x20)\n      swap1\n    tag_84:\n      dup2\n      sload\n      dup2\n      mstore\n      swap1\n      0x01\n      add\n      swap1\n      0x20\n      add\n      dup1\n      dup4\n      gt\n      tag_84\n      jumpi\n      dup3\n      swap1\n      sub\n      0x1f\n      and\n      dup3\n      add\n      swap2\n    tag_82:\n      pop\n      pop\n      pop\n      pop\n      pop\n      dup2\n      jump\t// out\n        /* \"contracts/demo1.sol\":171:205  bytes public bytesDemo1 = \"sdfdsf\" */\n    tag_54:\n      0x00\n      dup1\n      sload\n      0x01\n      dup2\n      0x01\n      and\n      iszero\n      0x0100\n      mul\n      sub\n      and\n      0x02\n      swap1\n      div\n      dup1\n      0x1f\n      add\n      0x20\n      dup1\n      swap2\n      div\n      mul\n      0x20\n      add\n      mload(0x40)\n      swap1\n      dup2\n      add\n      0x40\n      mstore\n      dup1\n      swap3\n      swap2\n      swap1\n      dup2\n      dup2\n      mstore\n      0x20\n      add\n      dup3\n      dup1\n      sload\n      0x01\n      dup2\n      0x01\n      and\n      iszero\n      0x0100\n      mul\n      sub\n      and\n      0x02\n      swap1\n      div\n      dup1\n      iszero\n      tag_85\n      jumpi\n      dup1\n      0x1f\n      lt\n      tag_86\n      jumpi\n      0x0100\n      dup1\n      dup4\n      sload\n      div\n      mul\n      dup4\n      mstore\n      swap2\n      0x20\n      add\n      swap2\n      jump(tag_85)\n    tag_86:\n      dup3\n      add\n      swap2\n      swap1\n      0x00\n      mstore\n      keccak256(0x00, 0x20)\n      swap1\n    tag_87:\n      dup2\n      sload\n      dup2\n      mstore\n      swap1\n      0x01\n      add\n      swap1\n      0x20\n      add\n      dup1\n      dup4\n      gt\n      tag_87\n      jumpi\n      dup3\n      swap1\n      sub\n      0x1f\n      and\n      dup3\n      add\n      swap2\n    tag_85:\n      pop\n      pop\n      pop\n      pop\n      pop\n      dup2\n      jump\t// out\n        /* \"contracts/demo1.sol\":543:627  function setSelfData(bytes memory _data) public {\r... */\n    tag_64:\n        /* \"contracts/demo1.sol\":602:606  self */\n      0x04\n        /* \"contracts/demo1.sol\":612:617  _data */\n      dup2\n        /* \"contracts/demo1.sol\":602:618  self.push(_data) */\n      swap1\n      dup1\n        /* \"--CODEGEN--\":39:40   */\n      0x01\n        /* \"--CODEGEN--\":33:36   */\n      dup2\n        /* \"--CODEGEN--\":27:37   */\n      sload\n        /* \"--CODEGEN--\":23:41   */\n      add\n        /* \"--CODEGEN--\":57:67   */\n      dup1\n        /* \"--CODEGEN--\":52:55   */\n      dup3\n        /* \"--CODEGEN--\":45:68   */\n      sstore\n        /* \"--CODEGEN--\":79:89   */\n      dup1\n        /* \"--CODEGEN--\":72:89   */\n      swap2\n      pop\n        /* \"--CODEGEN--\":0:93   */\n      pop\n        /* \"contracts/demo1.sol\":602:618  self.push(_data) */\n      swap1\n      0x01\n      dup3\n      sub\n      swap1\n      0x00\n      mstore\n      keccak256(0x00, 0x20)\n      add\n      0x00\n      swap1\n      swap2\n      swap3\n      swap1\n      swap2\n      swap1\n      swap2\n      pop\n      swap1\n      dup1\n      mload\n      swap1\n      0x20\n      add\n      swap1\n      tag_90\n      swap3\n      swap2\n      swap1\n      tag_91\n      jump\t// in\n    tag_90:\n      pop\n      pop\n        /* \"contracts/demo1.sol\":543:627  function setSelfData(bytes memory _data) public {\r... */\n      pop\n      jump\t// out\n        /* \"contracts/demo1.sol\":759:1009  function encodeBytes(bytes memory self) internal pure returns (bytes memory) {\r... */\n    tag_67:\n        /* \"contracts/demo1.sol\":822:834  bytes memory */\n      0x60\n        /* \"contracts/demo1.sol\":866:867  1 */\n      0x01\n        /* \"contracts/demo1.sol\":851:855  self */\n      dup3\n        /* \"contracts/demo1.sol\":851:862  self.length */\n      mload\n        /* \"contracts/demo1.sol\":851:867  self.length == 1 */\n      eq\n        /* \"contracts/demo1.sol\":851:886  self.length == 1 && self[0] <= 0x7f */\n      dup1\n      iszero\n      tag_93\n      jumpi\n      pop\n        /* \"contracts/demo1.sol\":882:886  0x7f */\n      0x7f\n        /* \"contracts/demo1.sol\":871:886  self[0] <= 0x7f */\n      0xf8\n      shl\n        /* \"contracts/demo1.sol\":871:875  self */\n      dup3\n        /* \"contracts/demo1.sol\":876:877  0 */\n      0x00\n        /* \"contracts/demo1.sol\":871:878  self[0] */\n      dup2\n      mload\n      dup2\n      lt\n      tag_94\n      jumpi\n      invalid\n    tag_94:\n      0x20\n      add\n      add\n      mload\n      0xf8\n      shr\n      0xf8\n      shl\n        /* \"contracts/demo1.sol\":871:886  self[0] <= 0x7f */\n      not(0xffffffffffffffffffffffffffffffffffffffffffffffffffffffffffffff)\n      and\n      gt\n      iszero\n        /* \"contracts/demo1.sol\":851:886  self.length == 1 && self[0] <= 0x7f */\n    tag_93:\n        /* \"contracts/demo1.sol\":847:926  if (self.length == 1 && self[0] <= 0x7f) {\r... */\n      iszero\n      tag_95\n      jumpi\n        /* \"contracts/demo1.sol\":910:914  self */\n      dup2\n        /* \"contracts/demo1.sol\":903:914  return self */\n      swap1\n      pop\n      jump(tag_92)\n        /* \"contracts/demo1.sol\":847:926  if (self.length == 1 && self[0] <= 0x7f) {\r... */\n    tag_95:\n        /* \"contracts/demo1.sol\":943:1001  mergeBytes(encodeLength(self.length, STRING_OFFSET), self) */\n      tag_96\n        /* \"contracts/demo1.sol\":954:994  encodeLength(self.length, STRING_OFFSET) */\n      tag_97\n        /* \"contracts/demo1.sol\":967:971  self */\n      dup4\n        /* \"contracts/demo1.sol\":967:978  self.length */\n      mload\n        /* \"contracts/demo1.sol\":367:371  0x80 */\n      0x80\n        /* \"contracts/demo1.sol\":954:994  encodeLength(self.length, STRING_OFFSET) */\n      0xff\n      and\n        /* \"contracts/demo1.sol\":954:966  encodeLength */\n      tag_98\n        /* \"contracts/demo1.sol\":954:994  encodeLength(self.length, STRING_OFFSET) */\n      jump\t// in\n    tag_97:\n        /* \"contracts/demo1.sol\":996:1000  self */\n      dup4\n        /* \"contracts/demo1.sol\":943:953  mergeBytes */\n      tag_99\n        /* \"contracts/demo1.sol\":943:1001  mergeBytes(encodeLength(self.length, STRING_OFFSET), self) */\n      jump\t// in\n    tag_96:\n        /* \"contracts/demo1.sol\":936:1001  return mergeBytes(encodeLength(self.length, STRING_OFFSET), self) */\n      swap1\n      pop\n        /* \"contracts/demo1.sol\":759:1009  function encodeBytes(bytes memory self) internal pure returns (bytes memory) {\r... */\n    tag_92:\n      swap2\n      swap1\n      pop\n      jump\t// out\n        /* \"contracts/demo1.sol\":1693:2131  function encodeLength(uint length, uint offset) internal pure returns (bytes memory) {\r... */\n    tag_98:\n        /* \"contracts/demo1.sol\":1764:1776  bytes memory */\n      0x60\n        /* \"contracts/demo1.sol\":1806:1812  256**8 */\n      0x010000000000000000\n        /* \"contracts/demo1.sol\":1797:1803  length */\n      dup4\n        /* \"contracts/demo1.sol\":1797:1812  length < 256**8 */\n      lt\n        /* \"contracts/demo1.sol\":1789:1831  require(length < 256**8, \"input too long\") */\n      tag_101\n      jumpi\n      mload(0x40)\n      0x08c379a000000000000000000000000000000000000000000000000000000000\n      dup2\n      mstore\n      0x04\n      add\n      dup1\n      dup1\n      0x20\n      add\n      dup3\n      dup2\n      sub\n      dup3\n      mstore\n      0x0e\n      dup2\n      mstore\n      0x20\n      add\n      dup1\n      0x696e70757420746f6f206c6f6e67000000000000000000000000000000000000\n      dup2\n      mstore\n      pop\n      0x20\n      add\n      swap2\n      pop\n      pop\n      mload(0x40)\n      dup1\n      swap2\n      sub\n      swap1\n      revert\n    tag_101:\n        /* \"contracts/demo1.sol\":1842:1857  bytes memory rs */\n      0x60\n        /* \"contracts/demo1.sol\":1870:1871  1 */\n      0x01\n        /* \"contracts/demo1.sol\":1860:1872  new bytes(1) */\n      mload(0x40)\n      swap1\n      dup1\n      dup3\n      mstore\n      dup1\n      0x1f\n      add\n      not(0x1f)\n      and\n      0x20\n      add\n      dup3\n      add\n      0x40\n      mstore\n      dup1\n      iszero\n      tag_102\n      jumpi\n      dup2\n      0x20\n      add\n        /* \"--CODEGEN--\":29:30   */\n      0x01\n        /* \"--CODEGEN--\":21:27   */\n      dup3\n        /* \"--CODEGEN--\":17:31   */\n      mul\n        /* \"--CODEGEN--\":116:120   */\n      dup1\n        /* \"--CODEGEN--\":104:114   */\n      codesize\n        /* \"--CODEGEN--\":96:102   */\n      dup4\n        /* \"--CODEGEN--\":87:121   */\n      codecopy\n        /* \"--CODEGEN--\":147:151   */\n      dup1\n        /* \"--CODEGEN--\":139:145   */\n      dup3\n        /* \"--CODEGEN--\":135:152   */\n      add\n        /* \"--CODEGEN--\":125:152   */\n      swap2\n      pop\n        /* \"--CODEGEN--\":0:156   */\n      pop\n        /* \"contracts/demo1.sol\":1860:1872  new bytes(1) */\n      swap1\n      pop\n    tag_102:\n      pop\n        /* \"contracts/demo1.sol\":1842:1872  bytes memory rs = new bytes(1) */\n      swap1\n      pop\n        /* \"contracts/demo1.sol\":1897:1899  55 */\n      0x37\n        /* \"contracts/demo1.sol\":1887:1893  length */\n      dup5\n        /* \"contracts/demo1.sol\":1887:1899  length <= 55 */\n      gt\n        /* \"contracts/demo1.sol\":1883:1988  if (length <= 55) {\r... */\n      tag_103\n      jumpi\n        /* \"contracts/demo1.sol\":1944:1950  offset */\n      dup3\n        /* \"contracts/demo1.sol\":1935:1941  length */\n      dup5\n        /* \"contracts/demo1.sol\":1935:1950  length + offset */\n      add\n        /* \"contracts/demo1.sol\":1924:1952  byte(uint8(length + offset)) */\n      0xf8\n      shl\n        /* \"contracts/demo1.sol\":1916:1918  rs */\n      dup2\n        /* \"contracts/demo1.sol\":1919:1920  0 */\n      0x00\n        /* \"contracts/demo1.sol\":1916:1921  rs[0] */\n      dup2\n      mload\n      dup2\n      lt\n      tag_104\n      jumpi\n      invalid\n    tag_104:\n      0x20\n      add\n      add\n        /* \"contracts/demo1.sol\":1916:1952  rs[0] = byte(uint8(length + offset)) */\n      swap1\n      not(0xffffffffffffffffffffffffffffffffffffffffffffffffffffffffffffff)\n      and\n      swap1\n      dup2\n      0x00\n      byte\n      swap1\n      mstore8\n      pop\n        /* \"contracts/demo1.sol\":1974:1976  rs */\n      dup1\n        /* \"contracts/demo1.sol\":1967:1976  return rs */\n      swap2\n      pop\n      pop\n      jump(tag_100)\n        /* \"contracts/demo1.sol\":1883:1988  if (length <= 55) {\r... */\n    tag_103:\n        /* \"contracts/demo1.sol\":1998:2013  bytes memory bl */\n      0x60\n        /* \"contracts/demo1.sol\":2016:2032  toBinary(length) */\n      tag_105\n        /* \"contracts/demo1.sol\":2025:2031  length */\n      dup6\n        /* \"contracts/demo1.sol\":2016:2024  toBinary */\n      tag_106\n        /* \"contracts/demo1.sol\":2016:2032  toBinary(length) */\n      jump\t// in\n    tag_105:\n        /* \"contracts/demo1.sol\":1998:2032  bytes memory bl = toBinary(length) */\n      swap1\n      pop\n        /* \"contracts/demo1.sol\":2083:2085  55 */\n      0x37\n        /* \"contracts/demo1.sol\":2074:2080  offset */\n      dup5\n        /* \"contracts/demo1.sol\":2062:2064  bl */\n      dup3\n        /* \"contracts/demo1.sol\":2062:2071  bl.length */\n      mload\n        /* \"contracts/demo1.sol\":2062:2080  bl.length + offset */\n      add\n        /* \"contracts/demo1.sol\":2062:2085  bl.length + offset + 55 */\n      add\n        /* \"contracts/demo1.sol\":2051:2087  byte(uint8(bl.length + offset + 55)) */\n      0xf8\n      shl\n        /* \"contracts/demo1.sol\":2043:2045  rs */\n      dup3\n        /* \"contracts/demo1.sol\":2046:2047  0 */\n      0x00\n        /* \"contracts/demo1.sol\":2043:2048  rs[0] */\n      dup2\n      mload\n      dup2\n      lt\n      tag_107\n      jumpi\n      invalid\n    tag_107:\n      0x20\n      add\n      add\n        /* \"contracts/demo1.sol\":2043:2087  rs[0] = byte(uint8(bl.length + offset + 55)) */\n      swap1\n      not(0xffffffffffffffffffffffffffffffffffffffffffffffffffffffffffffff)\n      and\n      swap1\n      dup2\n      0x00\n      byte\n      swap1\n      mstore8\n      pop\n        /* \"contracts/demo1.sol\":2105:2123  mergeBytes(rs, bl) */\n      tag_108\n        /* \"contracts/demo1.sol\":2116:2118  rs */\n      dup3\n        /* \"contracts/demo1.sol\":2120:2122  bl */\n      dup3\n        /* \"contracts/demo1.sol\":2105:2115  mergeBytes */\n      tag_99\n        /* \"contracts/demo1.sol\":2105:2123  mergeBytes(rs, bl) */\n      jump\t// in\n    tag_108:\n        /* \"contracts/demo1.sol\":2098:2123  return mergeBytes(rs, bl) */\n      swap3\n      pop\n      pop\n      pop\n        /* \"contracts/demo1.sol\":1693:2131  function encodeLength(uint length, uint offset) internal pure returns (bytes memory) {\r... */\n    tag_100:\n      swap3\n      swap2\n      pop\n      pop\n      jump\t// out\n        /* \"contracts/demo1.sol\":2938:5851  function mergeBytes(bytes memory _preBytes, bytes memory _postBytes) internal pure returns (bytes memory) {\r... */\n    tag_99:\n        /* \"contracts/demo1.sol\":3030:3042  bytes memory */\n      0x60\n        /* \"contracts/demo1.sol\":3055:3077  bytes memory tempBytes */\n      dup1\n        /* \"contracts/demo1.sol\":3255:3259  0x40 */\n      0x40\n        /* \"contracts/demo1.sol\":3249:3260  mload(0x40) */\n      mload\n        /* \"contracts/demo1.sol\":3236:3260  tempBytes := mload(0x40) */\n      swap1\n      pop\n        /* \"contracts/demo1.sol\":3408:3417  _preBytes */\n      dup4\n        /* \"contracts/demo1.sol\":3402:3418  mload(_preBytes) */\n      mload\n        /* \"contracts/demo1.sol\":3450:3456  length */\n      dup1\n        /* \"contracts/demo1.sol\":3439:3448  tempBytes */\n      dup3\n        /* \"contracts/demo1.sol\":3432:3457  mstore(tempBytes, length) */\n      mstore\n        /* \"contracts/demo1.sol\":3685:3689  0x20 */\n      0x20\n        /* \"contracts/demo1.sol\":3674:3683  tempBytes */\n      dup3\n        /* \"contracts/demo1.sol\":3670:3690  add(tempBytes, 0x20) */\n      add\n        /* \"contracts/demo1.sol\":3829:3835  length */\n      dup2\n        /* \"contracts/demo1.sol\":3825:3827  mc */\n      dup2\n        /* \"contracts/demo1.sol\":3821:3836  add(mc, length) */\n      add\n        /* \"contracts/demo1.sol\":4020:4024  0x20 */\n      0x20\n        /* \"contracts/demo1.sol\":4009:4018  _preBytes */\n      dup8\n        /* \"contracts/demo1.sol\":4005:4025  add(_preBytes, 0x20) */\n      add\n        /* \"contracts/demo1.sol\":3852:4369  for {\r... */\n    tag_110:\n        /* \"contracts/demo1.sol\":4048:4051  end */\n      dup2\n        /* \"contracts/demo1.sol\":4044:4046  mc */\n      dup4\n        /* \"contracts/demo1.sol\":4041:4052  lt(mc, end) */\n      lt\n        /* \"contracts/demo1.sol\":3852:4369  for {\r... */\n      iszero\n      tag_112\n      jumpi\n        /* \"contracts/demo1.sol\":4350:4352  cc */\n      dup1\n        /* \"contracts/demo1.sol\":4344:4353  mload(cc) */\n      mload\n        /* \"contracts/demo1.sol\":4340:4342  mc */\n      dup4\n        /* \"contracts/demo1.sol\":4333:4354  mstore(mc, mload(cc)) */\n      mstore\n        /* \"contracts/demo1.sol\":4153:4157  0x20 */\n      0x20\n        /* \"contracts/demo1.sol\":4149:4151  mc */\n      dup4\n        /* \"contracts/demo1.sol\":4145:4158  add(mc, 0x20) */\n      add\n        /* \"contracts/demo1.sol\":4139:4158  mc := add(mc, 0x20) */\n      swap3\n      pop\n        /* \"contracts/demo1.sol\":4190:4194  0x20 */\n      0x20\n        /* \"contracts/demo1.sol\":4186:4188  cc */\n      dup2\n        /* \"contracts/demo1.sol\":4182:4195  add(cc, 0x20) */\n      add\n        /* \"contracts/demo1.sol\":4176:4195  cc := add(cc, 0x20) */\n      swap1\n      pop\n        /* \"contracts/demo1.sol\":3852:4369  for {\r... */\n      jump(tag_110)\n    tag_112:\n        /* \"contracts/demo1.sol\":3856:4040  {\r... */\n      pop\n        /* \"contracts/demo1.sol\":4624:4634  _postBytes */\n      dup6\n        /* \"contracts/demo1.sol\":4618:4635  mload(_postBytes) */\n      mload\n        /* \"contracts/demo1.sol\":4608:4635  length := mload(_postBytes) */\n      swap3\n      pop\n        /* \"contracts/demo1.sol\":4685:4694  tempBytes */\n      dup4\n        /* \"contracts/demo1.sol\":4679:4695  mload(tempBytes) */\n      mload\n        /* \"contracts/demo1.sol\":4671:4677  length */\n      dup4\n        /* \"contracts/demo1.sol\":4667:4696  add(length, mload(tempBytes)) */\n      add\n        /* \"contracts/demo1.sol\":4656:4665  tempBytes */\n      dup5\n        /* \"contracts/demo1.sol\":4649:4697  mstore(tempBytes, add(length, mload(tempBytes))) */\n      mstore\n        /* \"contracts/demo1.sol\":4837:4840  end */\n      dup1\n        /* \"contracts/demo1.sol\":4831:4840  mc := end */\n      swap2\n      pop\n        /* \"contracts/demo1.sol\":4977:4983  length */\n      dup3\n        /* \"contracts/demo1.sol\":4973:4975  mc */\n      dup3\n        /* \"contracts/demo1.sol\":4969:4984  add(mc, length) */\n      add\n        /* \"contracts/demo1.sol\":4962:4984  end := add(mc, length) */\n      swap1\n      pop\n        /* \"contracts/demo1.sol\":5049:5053  0x20 */\n      0x20\n        /* \"contracts/demo1.sol\":5037:5047  _postBytes */\n      dup7\n        /* \"contracts/demo1.sol\":5033:5054  add(_postBytes, 0x20) */\n      add\n        /* \"contracts/demo1.sol\":5000:5228  for {\r... */\n    tag_113:\n        /* \"contracts/demo1.sol\":5077:5080  end */\n      dup2\n        /* \"contracts/demo1.sol\":5073:5075  mc */\n      dup4\n        /* \"contracts/demo1.sol\":5070:5081  lt(mc, end) */\n      lt\n        /* \"contracts/demo1.sol\":5000:5228  for {\r... */\n      iszero\n      tag_115\n      jumpi\n        /* \"contracts/demo1.sol\":5209:5211  cc */\n      dup1\n        /* \"contracts/demo1.sol\":5203:5212  mload(cc) */\n      mload\n        /* \"contracts/demo1.sol\":5199:5201  mc */\n      dup4\n        /* \"contracts/demo1.sol\":5192:5213  mstore(mc, mload(cc)) */\n      mstore\n        /* \"contracts/demo1.sol\":5115:5119  0x20 */\n      0x20\n        /* \"contracts/demo1.sol\":5111:5113  mc */\n      dup4\n        /* \"contracts/demo1.sol\":5107:5120  add(mc, 0x20) */\n      add\n        /* \"contracts/demo1.sol\":5101:5120  mc := add(mc, 0x20) */\n      swap3\n      pop\n        /* \"contracts/demo1.sol\":5152:5156  0x20 */\n      0x20\n        /* \"contracts/demo1.sol\":5148:5150  cc */\n      dup2\n        /* \"contracts/demo1.sol\":5144:5157  add(cc, 0x20) */\n      add\n        /* \"contracts/demo1.sol\":5138:5157  cc := add(cc, 0x20) */\n      swap1\n      pop\n        /* \"contracts/demo1.sol\":5000:5228  for {\r... */\n      jump(tag_113)\n    tag_115:\n        /* \"contracts/demo1.sol\":5004:5069  {\r... */\n      pop\n        /* \"contracts/demo1.sol\":5746:5748  31 */\n      0x1f\n        /* \"contracts/demo1.sol\":5742:5749  not(31) */\n      not\n        /* \"contracts/demo1.sol\":5724:5726  31 */\n      0x1f\n        /* \"contracts/demo1.sol\":5709:5718  _preBytes */\n      dup9\n        /* \"contracts/demo1.sol\":5703:5719  mload(_preBytes) */\n      mload\n        /* \"contracts/demo1.sol\":5695:5701  length */\n      dup6\n        /* \"contracts/demo1.sol\":5691:5720  add(length, mload(_preBytes)) */\n      add\n        /* \"contracts/demo1.sol\":5684:5721  iszero(add(length, mload(_preBytes))) */\n      iszero\n        /* \"contracts/demo1.sol\":5679:5682  end */\n      dup4\n        /* \"contracts/demo1.sol\":5675:5722  add(end, iszero(add(length, mload(_preBytes)))) */\n      add\n        /* \"contracts/demo1.sol\":5671:5727  add(add(end, iszero(add(length, mload(_preBytes)))), 31) */\n      add\n        /* \"contracts/demo1.sol\":5653:5803  and(\r... */\n      and\n        /* \"contracts/demo1.sol\":5647:5651  0x40 */\n      0x40\n        /* \"contracts/demo1.sol\":5640:5804  mstore(0x40, and(\r... */\n      mstore\n        /* \"contracts/demo1.sol\":3097:5815  {\r... */\n      pop\n      pop\n      pop\n        /* \"contracts/demo1.sol\":5834:5843  tempBytes */\n      dup1\n        /* \"contracts/demo1.sol\":5827:5843  return tempBytes */\n      swap2\n      pop\n      pop\n        /* \"contracts/demo1.sol\":2938:5851  function mergeBytes(bytes memory _preBytes, bytes memory _postBytes) internal pure returns (bytes memory) {\r... */\n      swap3\n      swap2\n      pop\n      pop\n      jump\t// out\n        /* \"contracts/demo1.sol\":2139:2930  function toBinary(uint x) internal pure returns (bytes memory) {\r... */\n    tag_106:\n        /* \"contracts/demo1.sol\":2188:2200  bytes memory */\n      0x60\n        /* \"contracts/demo1.sol\":2213:2227  bytes memory b */\n      dup1\n        /* \"contracts/demo1.sol\":2240:2242  32 */\n      0x20\n        /* \"contracts/demo1.sol\":2230:2243  new bytes(32) */\n      mload(0x40)\n      swap1\n      dup1\n      dup3\n      mstore\n      dup1\n      0x1f\n      add\n      not(0x1f)\n      and\n      0x20\n      add\n      dup3\n      add\n      0x40\n      mstore\n      dup1\n      iszero\n      tag_117\n      jumpi\n      dup2\n      0x20\n      add\n        /* \"--CODEGEN--\":29:30   */\n      0x01\n        /* \"--CODEGEN--\":21:27   */\n      dup3\n        /* \"--CODEGEN--\":17:31   */\n      mul\n        /* \"--CODEGEN--\":116:120   */\n      dup1\n        /* \"--CODEGEN--\":104:114   */\n      codesize\n        /* \"--CODEGEN--\":96:102   */\n      dup4\n        /* \"--CODEGEN--\":87:121   */\n      codecopy\n        /* \"--CODEGEN--\":147:151   */\n      dup1\n        /* \"--CODEGEN--\":139:145   */\n      dup3\n        /* \"--CODEGEN--\":135:152   */\n      add\n        /* \"--CODEGEN--\":125:152   */\n      swap2\n      pop\n        /* \"--CODEGEN--\":0:156   */\n      pop\n        /* \"contracts/demo1.sol\":2230:2243  new bytes(32) */\n      swap1\n      pop\n    tag_117:\n      pop\n        /* \"contracts/demo1.sol\":2213:2243  bytes memory b = new bytes(32) */\n      swap1\n      pop\n        /* \"contracts/demo1.sol\":2297:2298  x */\n      dup3\n        /* \"contracts/demo1.sol\":2292:2294  32 */\n      0x20\n        /* \"contracts/demo1.sol\":2289:2290  b */\n      dup3\n        /* \"contracts/demo1.sol\":2285:2295  add(b, 32) */\n      add\n        /* \"contracts/demo1.sol\":2278:2299  mstore(add(b, 32), x) */\n      mstore\n        /* \"contracts/demo1.sol\":2323:2329  uint i */\n      0x00\n        /* \"contracts/demo1.sol\":2418:2419  0 */\n      dup1\n        /* \"contracts/demo1.sol\":2348:2414  0xffffffffffffffffffffffffffffffffffffffffffffffff0000000000000000 */\n      0xffffffffffffffffffffffffffffffffffffffffffffffff0000000000000000\n        /* \"contracts/demo1.sol\":2344:2345  x */\n      dup6\n        /* \"contracts/demo1.sol\":2344:2414  x & 0xffffffffffffffffffffffffffffffffffffffffffffffff0000000000000000 */\n      and\n        /* \"contracts/demo1.sol\":2344:2419  x & 0xffffffffffffffffffffffffffffffffffffffffffffffff0000000000000000 == 0 */\n      eq\n        /* \"contracts/demo1.sol\":2340:2612  if (x & 0xffffffffffffffffffffffffffffffffffffffffffffffff0000000000000000 == 0) {\r... */\n      iszero\n      tag_118\n      jumpi\n        /* \"contracts/demo1.sol\":2440:2442  24 */\n      0x18\n        /* \"contracts/demo1.sol\":2436:2442  i = 24 */\n      swap1\n      pop\n        /* \"contracts/demo1.sol\":2340:2612  if (x & 0xffffffffffffffffffffffffffffffffffffffffffffffff0000000000000000 == 0) {\r... */\n      jump(tag_119)\n    tag_118:\n        /* \"contracts/demo1.sol\":2538:2539  0 */\n      0x00\n        /* \"contracts/demo1.sol\":2468:2534  0xffffffffffffffffffffffffffffffff00000000000000000000000000000000 */\n      0xffffffffffffffffffffffffffffffff00000000000000000000000000000000\n        /* \"contracts/demo1.sol\":2464:2465  x */\n      dup6\n        /* \"contracts/demo1.sol\":2464:2534  x & 0xffffffffffffffffffffffffffffffff00000000000000000000000000000000 */\n      and\n        /* \"contracts/demo1.sol\":2464:2539  x & 0xffffffffffffffffffffffffffffffff00000000000000000000000000000000 == 0 */\n      eq\n        /* \"contracts/demo1.sol\":2460:2612  if (x & 0xffffffffffffffffffffffffffffffff00000000000000000000000000000000 == 0) {\r... */\n      iszero\n      tag_120\n      jumpi\n        /* \"contracts/demo1.sol\":2560:2562  16 */\n      0x10\n        /* \"contracts/demo1.sol\":2556:2562  i = 16 */\n      swap1\n      pop\n        /* \"contracts/demo1.sol\":2460:2612  if (x & 0xffffffffffffffffffffffffffffffff00000000000000000000000000000000 == 0) {\r... */\n      jump(tag_121)\n    tag_120:\n        /* \"contracts/demo1.sol\":2599:2600  0 */\n      0x00\n        /* \"contracts/demo1.sol\":2595:2600  i = 0 */\n      swap1\n      pop\n        /* \"contracts/demo1.sol\":2460:2612  if (x & 0xffffffffffffffffffffffffffffffff00000000000000000000000000000000 == 0) {\r... */\n    tag_121:\n        /* \"contracts/demo1.sol\":2340:2612  if (x & 0xffffffffffffffffffffffffffffffffffffffffffffffff0000000000000000 == 0) {\r... */\n    tag_119:\n        /* \"contracts/demo1.sol\":2622:2723  for (; i < 32; i++) {\r... */\n    tag_122:\n        /* \"contracts/demo1.sol\":2633:2635  32 */\n      0x20\n        /* \"contracts/demo1.sol\":2629:2630  i */\n      dup2\n        /* \"contracts/demo1.sol\":2629:2635  i < 32 */\n      lt\n        /* \"contracts/demo1.sol\":2622:2723  for (; i < 32; i++) {\r... */\n      iszero\n      tag_123\n      jumpi\n        /* \"contracts/demo1.sol\":2669:2670  0 */\n      0x00\n        /* \"contracts/demo1.sol\":2661:2670  b[i] != 0 */\n      0xf8\n      shl\n        /* \"contracts/demo1.sol\":2661:2662  b */\n      dup3\n        /* \"contracts/demo1.sol\":2663:2664  i */\n      dup3\n        /* \"contracts/demo1.sol\":2661:2665  b[i] */\n      dup2\n      mload\n      dup2\n      lt\n      tag_125\n      jumpi\n      invalid\n    tag_125:\n      0x20\n      add\n      add\n      mload\n      0xf8\n      shr\n      0xf8\n      shl\n        /* \"contracts/demo1.sol\":2661:2670  b[i] != 0 */\n      not(0xffffffffffffffffffffffffffffffffffffffffffffffffffffffffffffff)\n      and\n      eq\n        /* \"contracts/demo1.sol\":2657:2712  if (b[i] != 0) {\r... */\n      tag_126\n      jumpi\n        /* \"contracts/demo1.sol\":2691:2696  break */\n      jump(tag_123)\n        /* \"contracts/demo1.sol\":2657:2712  if (b[i] != 0) {\r... */\n    tag_126:\n        /* \"contracts/demo1.sol\":2637:2640  i++ */\n      dup1\n      dup1\n      0x01\n      add\n      swap2\n      pop\n      pop\n        /* \"contracts/demo1.sol\":2622:2723  for (; i < 32; i++) {\r... */\n      jump(tag_122)\n    tag_123:\n        /* \"contracts/demo1.sol\":2733:2744  uint length */\n      0x00\n        /* \"contracts/demo1.sol\":2752:2753  i */\n      dup2\n        /* \"contracts/demo1.sol\":2747:2749  32 */\n      0x20\n        /* \"contracts/demo1.sol\":2747:2753  32 - i */\n      sub\n        /* \"contracts/demo1.sol\":2733:2753  uint length = 32 - i */\n      swap1\n      pop\n        /* \"contracts/demo1.sol\":2764:2779  bytes memory rs */\n      0x60\n        /* \"contracts/demo1.sol\":2792:2798  length */\n      dup2\n        /* \"contracts/demo1.sol\":2782:2799  new bytes(length) */\n      mload(0x40)\n      swap1\n      dup1\n      dup3\n      mstore\n      dup1\n      0x1f\n      add\n      not(0x1f)\n      and\n      0x20\n      add\n      dup3\n      add\n      0x40\n      mstore\n      dup1\n      iszero\n      tag_127\n      jumpi\n      dup2\n      0x20\n      add\n        /* \"--CODEGEN--\":29:30   */\n      0x01\n        /* \"--CODEGEN--\":21:27   */\n      dup3\n        /* \"--CODEGEN--\":17:31   */\n      mul\n        /* \"--CODEGEN--\":116:120   */\n      dup1\n        /* \"--CODEGEN--\":104:114   */\n      codesize\n        /* \"--CODEGEN--\":96:102   */\n      dup4\n        /* \"--CODEGEN--\":87:121   */\n      codecopy\n        /* \"--CODEGEN--\":147:151   */\n      dup1\n        /* \"--CODEGEN--\":139:145   */\n      dup3\n        /* \"--CODEGEN--\":135:152   */\n      add\n        /* \"--CODEGEN--\":125:152   */\n      swap2\n      pop\n        /* \"--CODEGEN--\":0:156   */\n      pop\n        /* \"contracts/demo1.sol\":2782:2799  new bytes(length) */\n      swap1\n      pop\n    tag_127:\n      pop\n        /* \"contracts/demo1.sol\":2764:2799  bytes memory rs = new bytes(length) */\n      swap1\n      pop\n        /* \"contracts/demo1.sol\":2858:2859  x */\n      dup6\n        /* \"contracts/demo1.sol\":2849:2855  length */\n      dup3\n        /* \"contracts/demo1.sol\":2845:2847  rs */\n      dup3\n        /* \"contracts/demo1.sol\":2841:2856  add(rs, length) */\n      add\n        /* \"contracts/demo1.sol\":2834:2860  mstore(add(rs, length), x) */\n      mstore\n        /* \"contracts/demo1.sol\":2885:2891  length */\n      dup2\n        /* \"contracts/demo1.sol\":2881:2883  rs */\n      dup2\n        /* \"contracts/demo1.sol\":2874:2892  mstore(rs, length) */\n      mstore\n        /* \"contracts/demo1.sol\":2920:2922  rs */\n      dup1\n        /* \"contracts/demo1.sol\":2913:2922  return rs */\n      swap5\n      pop\n      pop\n      pop\n      pop\n      pop\n        /* \"contracts/demo1.sol\":2139:2930  function toBinary(uint x) internal pure returns (bytes memory) {\r... */\n      swap2\n      swap1\n      pop\n      jump\t// out\n        /* \"contracts/demo1.sol\":92:18184  contract Demo1{\r... */\n    tag_91:\n      dup3\n      dup1\n      sload\n      0x01\n      dup2\n      0x01\n      and\n      iszero\n      0x0100\n      mul\n      sub\n      and\n      0x02\n      swap1\n      div\n      swap1\n      0x00\n      mstore\n      keccak256(0x00, 0x20)\n      swap1\n      0x1f\n      add\n      0x20\n      swap1\n      div\n      dup2\n      add\n      swap3\n      dup3\n      0x1f\n      lt\n      tag_129\n      jumpi\n      dup1\n      mload\n      not(0xff)\n      and\n      dup4\n      dup1\n      add\n      or\n      dup6\n      sstore\n      jump(tag_128)\n    tag_129:\n      dup3\n      dup1\n      add\n      0x01\n      add\n      dup6\n      sstore\n      dup3\n      iszero\n      tag_128\n      jumpi\n      swap2\n      dup3\n      add\n    tag_130:\n      dup3\n      dup2\n      gt\n      iszero\n      tag_131\n      jumpi\n      dup3\n      mload\n      dup3\n      sstore\n      swap2\n      0x20\n      add\n      swap2\n      swap1\n      0x01\n      add\n      swap1\n      jump(tag_130)\n    tag_131:\n    tag_128:\n      pop\n      swap1\n      pop\n      tag_132\n      swap2\n      swap1\n      tag_133\n      jump\t// in\n    tag_132:\n      pop\n      swap1\n      jump\t// out\n    tag_133:\n      tag_134\n      swap2\n      swap1\n    tag_135:\n      dup1\n      dup3\n      gt\n      iszero\n      tag_136\n      jumpi\n      0x00\n      dup2\n      0x00\n      swap1\n      sstore\n      pop\n      0x01\n      add\n      jump(tag_135)\n    tag_136:\n      pop\n      swap1\n      jump\n    tag_134:\n      swap1\n      jump\t// out\n\n    auxdata: 0xa265627a7a72315820b632b3aed0f37c220b14efb388e232ff9598b42f850867273ebaa118c2cab42c64736f6c63430005100032\n}\n",
				"bytecode": {
					"linkReferences": {},
					"object": "60806040526040518060400160405280600681526020017f7364666473660000000000000000000000000000000000000000000000000000815250600090805190602001906200005192919062000182565b506040518060400160405280600581526020017f3133343532000000000000000000000000000000000000000000000000000000815250600190805190602001906200009f92919062000182565b506040518060400160405280600781526020017f316466736466320000000000000000000000000000000000000000000000000081525060029080519060200190620000ed92919062000182565b506040518060400160405280600781526020017f7364656673646600000000000000000000000000000000000000000000000000815250600390805190602001906200013b92919062000182565b506040518060600160405280603e8152602001620010cd603e9139600590805190602001906200016d92919062000182565b503480156200017b57600080fd5b5062000231565b828054600181600116156101000203166002900490600052602060002090601f016020900481019282601f10620001c557805160ff1916838001178555620001f6565b82800160010185558215620001f6579182015b82811115620001f5578251825591602001919060010190620001d8565b5b50905062000205919062000209565b5090565b6200022e91905b808211156200022a57600081600090555060010162000210565b5090565b90565b610e8c80620002416000396000f3fe608060405234801561001057600080fd5b50600436106100885760003560e01c8063af1fba2f1161005b578063af1fba2f1461034a578063e82f2df9146103f1578063ea55583e14610474578063f7a08e1f146104f757610088565b80631431b23a1461008d5780632f10a511146101c15780633aeee9381461024457806343fd8ccd146102c7575b600080fd5b610146600480360360208110156100a357600080fd5b81019080803590602001906401000000008111156100c057600080fd5b8201836020820111156100d257600080fd5b803590602001918460018302840111640100000000831117156100f457600080fd5b91908080601f016020809104026020016040519081016040528093929190818152602001838380828437600081840152601f19601f8201169050808301925050505050505091929192905050506105b2565b6040518080602001828103825283818151815260200191508051906020019080838360005b8381101561018657808201518184015260208101905061016b565b50505050905090810190601f1680156101b35780820380516001836020036101000a031916815260200191505b509250505060405180910390f35b6101c96105c4565b6040518080602001828103825283818151815260200191508051906020019080838360005b838110156102095780820151818401526020810190506101ee565b50505050905090810190601f1680156102365780820380516001836020036101000a031916815260200191505b509250505060405180910390f35b61024c610662565b6040518080602001828103825283818151815260200191508051906020019080838360005b8381101561028c578082015181840152602081019050610271565b50505050905090810190601f1680156102b95780820380516001836020036101000a031916815260200191505b509250505060405180910390f35b6102cf610700565b6040518080602001828103825283818151815260200191508051906020019080838360005b8381101561030f5780820151818401526020810190506102f4565b50505050905090810190601f16801561033c5780820380516001836020036101000a031916815260200191505b509250505060405180910390f35b6103766004803603602081101561036057600080fd5b810190808035906020019092919050505061079e565b6040518080602001828103825283818151815260200191508051906020019080838360005b838110156103b657808201518184015260208101905061039b565b50505050905090810190601f1680156103e35780820380516001836020036101000a031916815260200191505b509250505060405180910390f35b6103f9610857565b6040518080602001828103825283818151815260200191508051906020019080838360005b8381101561043957808201518184015260208101905061041e565b50505050905090810190601f1680156104665780820380516001836020036101000a031916815260200191505b509250505060405180910390f35b61047c6108f5565b6040518080602001828103825283818151815260200191508051906020019080838360005b838110156104bc5780820151818401526020810190506104a1565b50505050905090810190601f1680156104e95780820380516001836020036101000a031916815260200191505b509250505060405180910390f35b6105b06004803603602081101561050d57600080fd5b810190808035906020019064010000000081111561052a57600080fd5b82018360208201111561053c57600080fd5b8035906020019184600183028401116401000000008311171561055e57600080fd5b91908080601f016020809104026020016040519081016040528093929190818152602001838380828437600081840152601f19601f820116905080830192505050505050509192919290505050610993565b005b60606105bd826109d5565b9050919050565b60058054600181600116156101000203166002900480601f01602080910402602001604051908101604052809291908181526020018280546001816001161561010002031660029004801561065a5780601f1061062f5761010080835404028352916020019161065a565b820191906000526020600020905b81548152906001019060200180831161063d57829003601f168201915b505050505081565b60018054600181600116156101000203166002900480601f0160208091040260200160405190810160405280929190818152602001828054600181600116156101000203166002900480156106f85780601f106106cd576101008083540402835291602001916106f8565b820191906000526020600020905b8154815290600101906020018083116106db57829003601f168201915b505050505081565b60038054600181600116156101000203166002900480601f0160208091040260200160405190810160405280929190818152602001828054600181600116156101000203166002900480156107965780601f1061076b57610100808354040283529160200191610796565b820191906000526020600020905b81548152906001019060200180831161077957829003601f168201915b505050505081565b600481815481106107ab57fe5b906000526020600020016000915090508054600181600116156101000203166002900480601f01602080910402602001604051908101604052809291908181526020018280546001816001161561010002031660029004801561084f5780601f106108245761010080835404028352916020019161084f565b820191906000526020600020905b81548152906001019060200180831161083257829003601f168201915b505050505081565b60028054600181600116156101000203166002900480601f0160208091040260200160405190810160405280929190818152602001828054600181600116156101000203166002900480156108ed5780601f106108c2576101008083540402835291602001916108ed565b820191906000526020600020905b8154815290600101906020018083116108d057829003601f168201915b505050505081565b60008054600181600116156101000203166002900480601f01602080910402602001604051908101604052809291908181526020018280546001816001161561010002031660029004801561098b5780601f106109605761010080835404028352916020019161098b565b820191906000526020600020905b81548152906001019060200180831161096e57829003601f168201915b505050505081565b60048190806001815401808255809150509060018203906000526020600020016000909192909190915090805190602001906109d0929190610db2565b505050565b606060018251148015610a255750607f60f81b826000815181106109f557fe5b602001015160f81c60f81b7effffffffffffffffffffffffffffffffffffffffffffffffffffffffffffff191611155b15610a3257819050610a4d565b610a4a610a448351608060ff16610a52565b83610bc6565b90505b919050565b6060680100000000000000008310610ad2576040517f08c379a000000000000000000000000000000000000000000000000000000000815260040180806020018281038252600e8152602001807f696e70757420746f6f206c6f6e6700000000000000000000000000000000000081525060200191505060405180910390fd5b606060016040519080825280601f01601f191660200182016040528015610b085781602001600182028038833980820191505090505b50905060378411610b5e5782840160f81b81600081518110610b2657fe5b60200101907effffffffffffffffffffffffffffffffffffffffffffffffffffffffffffff1916908160001a90535080915050610bc0565b6060610b6985610c50565b90506037848251010160f81b82600081518110610b8257fe5b60200101907effffffffffffffffffffffffffffffffffffffffffffffffffffffffffffff1916908160001a905350610bbb8282610bc6565b925050505b92915050565b6060806040519050835180825260208201818101602087015b81831015610bfc5780518352602083019250602081019050610bdf565b50855192508351830184528091508282019050602086015b81831015610c315780518352602083019250602081019050610c14565b50601f19601f8851850115830101166040525050508091505092915050565b60608060206040519080825280601f01601f191660200182016040528015610c875781602001600182028038833980820191505090505b5090508260208201526000807fffffffffffffffffffffffffffffffffffffffffffffffff000000000000000085161415610cc55760189050610cff565b60007fffffffffffffffffffffffffffffffff0000000000000000000000000000000085161415610cf95760109050610cfe565b600090505b5b5b6020811015610d5e57600060f81b828281518110610d1a57fe5b602001015160f81c60f81b7effffffffffffffffffffffffffffffffffffffffffffffffffffffffffffff191614610d5157610d5e565b8080600101915050610d00565b60008160200390506060816040519080825280601f01601f191660200182016040528015610d9b5781602001600182028038833980820191505090505b509050858282015281815280945050505050919050565b828054600181600116156101000203166002900490600052602060002090601f016020900481019282601f10610df357805160ff1916838001178555610e21565b82800160010185558215610e21579182015b82811115610e20578251825591602001919060010190610e05565b5b509050610e2e9190610e32565b5090565b610e5491905b80821115610e50576000816000905550600101610e38565b5090565b9056fea265627a7a72315820b632b3aed0f37c220b14efb388e232ff9598b42f850867273ebaa118c2cab42c64736f6c634300051000326466646664666466414847484744534844424748534453495347424f51425549484b4a425549534348736466647366535353535353445344534453445344",
					"opcodes": "PUSH1 0x80 PUSH1 0x40 MSTORE PUSH1 0x40 MLOAD DUP1 PUSH1 0x40 ADD PUSH1 0x40 MSTORE DUP1 PUSH1 0x6 DUP2 MSTORE PUSH1 0x20 ADD PUSH32 0x7364666473660000000000000000000000000000000000000000000000000000 DUP2 MSTORE POP PUSH1 0x0 SWAP1 DUP1 MLOAD SWAP1 PUSH1 0x20 ADD SWAP1 PUSH3 0x51 SWAP3 SWAP2 SWAP1 PUSH3 0x182 JUMP JUMPDEST POP PUSH1 0x40 MLOAD DUP1 PUSH1 0x40 ADD PUSH1 0x40 MSTORE DUP1 PUSH1 0x5 DUP2 MSTORE PUSH1 0x20 ADD PUSH32 0x3133343532000000000000000000000000000000000000000000000000000000 DUP2 MSTORE POP PUSH1 0x1 SWAP1 DUP1 MLOAD SWAP1 PUSH1 0x20 ADD SWAP1 PUSH3 0x9F SWAP3 SWAP2 SWAP1 PUSH3 0x182 JUMP JUMPDEST POP PUSH1 0x40 MLOAD DUP1 PUSH1 0x40 ADD PUSH1 0x40 MSTORE DUP1 PUSH1 0x7 DUP2 MSTORE PUSH1 0x20 ADD PUSH32 0x3164667364663200000000000000000000000000000000000000000000000000 DUP2 MSTORE POP PUSH1 0x2 SWAP1 DUP1 MLOAD SWAP1 PUSH1 0x20 ADD SWAP1 PUSH3 0xED SWAP3 SWAP2 SWAP1 PUSH3 0x182 JUMP JUMPDEST POP PUSH1 0x40 MLOAD DUP1 PUSH1 0x40 ADD PUSH1 0x40 MSTORE DUP1 PUSH1 0x7 DUP2 MSTORE PUSH1 0x20 ADD PUSH32 0x7364656673646600000000000000000000000000000000000000000000000000 DUP2 MSTORE POP PUSH1 0x3 SWAP1 DUP1 MLOAD SWAP1 PUSH1 0x20 ADD SWAP1 PUSH3 0x13B SWAP3 SWAP2 SWAP1 PUSH3 0x182 JUMP JUMPDEST POP PUSH1 0x40 MLOAD DUP1 PUSH1 0x60 ADD PUSH1 0x40 MSTORE DUP1 PUSH1 0x3E DUP2 MSTORE PUSH1 0x20 ADD PUSH3 0x10CD PUSH1 0x3E SWAP2 CODECOPY PUSH1 0x5 SWAP1 DUP1 MLOAD SWAP1 PUSH1 0x20 ADD SWAP1 PUSH3 0x16D SWAP3 SWAP2 SWAP1 PUSH3 0x182 JUMP JUMPDEST POP CALLVALUE DUP1 ISZERO PUSH3 0x17B JUMPI PUSH1 0x0 DUP1 REVERT JUMPDEST POP PUSH3 0x231 JUMP JUMPDEST DUP3 DUP1 SLOAD PUSH1 0x1 DUP2 PUSH1 0x1 AND ISZERO PUSH2 0x100 MUL SUB AND PUSH1 0x2 SWAP1 DIV SWAP1 PUSH1 0x0 MSTORE PUSH1 0x20 PUSH1 0x0 KECCAK256 SWAP1 PUSH1 0x1F ADD PUSH1 0x20 SWAP1 DIV DUP2 ADD SWAP3 DUP3 PUSH1 0x1F LT PUSH3 0x1C5 JUMPI DUP1 MLOAD PUSH1 0xFF NOT AND DUP4 DUP1 ADD OR DUP6 SSTORE PUSH3 0x1F6 JUMP JUMPDEST DUP3 DUP1 ADD PUSH1 0x1 ADD DUP6 SSTORE DUP3 ISZERO PUSH3 0x1F6 JUMPI SWAP2 DUP3 ADD JUMPDEST DUP3 DUP2 GT ISZERO PUSH3 0x1F5 JUMPI DUP3 MLOAD DUP3 SSTORE SWAP2 PUSH1 0x20 ADD SWAP2 SWAP1 PUSH1 0x1 ADD SWAP1 PUSH3 0x1D8 JUMP JUMPDEST JUMPDEST POP SWAP1 POP PUSH3 0x205 SWAP2 SWAP1 PUSH3 0x209 JUMP JUMPDEST POP SWAP1 JUMP JUMPDEST PUSH3 0x22E SWAP2 SWAP1 JUMPDEST DUP1 DUP3 GT ISZERO PUSH3 0x22A JUMPI PUSH1 0x0 DUP2 PUSH1 0x0 SWAP1 SSTORE POP PUSH1 0x1 ADD PUSH3 0x210 JUMP JUMPDEST POP SWAP1 JUMP JUMPDEST SWAP1 JUMP JUMPDEST PUSH2 0xE8C DUP1 PUSH3 0x241 PUSH1 0x0 CODECOPY PUSH1 0x0 RETURN INVALID PUSH1 0x80 PUSH1 0x40 MSTORE CALLVALUE DUP1 ISZERO PUSH2 0x10 JUMPI PUSH1 0x0 DUP1 REVERT JUMPDEST POP PUSH1 0x4 CALLDATASIZE LT PUSH2 0x88 JUMPI PUSH1 0x0 CALLDATALOAD PUSH1 0xE0 SHR DUP1 PUSH4 0xAF1FBA2F GT PUSH2 0x5B JUMPI DUP1 PUSH4 0xAF1FBA2F EQ PUSH2 0x34A JUMPI DUP1 PUSH4 0xE82F2DF9 EQ PUSH2 0x3F1 JUMPI DUP1 PUSH4 0xEA55583E EQ PUSH2 0x474 JUMPI DUP1 PUSH4 0xF7A08E1F EQ PUSH2 0x4F7 JUMPI PUSH2 0x88 JUMP JUMPDEST DUP1 PUSH4 0x1431B23A EQ PUSH2 0x8D JUMPI DUP1 PUSH4 0x2F10A511 EQ PUSH2 0x1C1 JUMPI DUP1 PUSH4 0x3AEEE938 EQ PUSH2 0x244 JUMPI DUP1 PUSH4 0x43FD8CCD EQ PUSH2 0x2C7 JUMPI JUMPDEST PUSH1 0x0 DUP1 REVERT JUMPDEST PUSH2 0x146 PUSH1 0x4 DUP1 CALLDATASIZE SUB PUSH1 0x20 DUP2 LT ISZERO PUSH2 0xA3 JUMPI PUSH1 0x0 DUP1 REVERT JUMPDEST DUP2 ADD SWAP1 DUP1 DUP1 CALLDATALOAD SWAP1 PUSH1 0x20 ADD SWAP1 PUSH5 0x100000000 DUP2 GT ISZERO PUSH2 0xC0 JUMPI PUSH1 0x0 DUP1 REVERT JUMPDEST DUP3 ADD DUP4 PUSH1 0x20 DUP3 ADD GT ISZERO PUSH2 0xD2 JUMPI PUSH1 0x0 DUP1 REVERT JUMPDEST DUP1 CALLDATALOAD SWAP1 PUSH1 0x20 ADD SWAP2 DUP5 PUSH1 0x1 DUP4 MUL DUP5 ADD GT PUSH5 0x100000000 DUP4 GT OR ISZERO PUSH2 0xF4 JUMPI PUSH1 0x0 DUP1 REVERT JUMPDEST SWAP2 SWAP1 DUP1 DUP1 PUSH1 0x1F ADD PUSH1 0x20 DUP1 SWAP2 DIV MUL PUSH1 0x20 ADD PUSH1 0x40 MLOAD SWAP1 DUP2 ADD PUSH1 0x40 MSTORE DUP1 SWAP4 SWAP3 SWAP2 SWAP1 DUP2 DUP2 MSTORE PUSH1 0x20 ADD DUP4 DUP4 DUP1 DUP3 DUP5 CALLDATACOPY PUSH1 0x0 DUP2 DUP5 ADD MSTORE PUSH1 0x1F NOT PUSH1 0x1F DUP3 ADD AND SWAP1 POP DUP1 DUP4 ADD SWAP3 POP POP POP POP POP POP POP SWAP2 SWAP3 SWAP2 SWAP3 SWAP1 POP POP POP PUSH2 0x5B2 JUMP JUMPDEST PUSH1 0x40 MLOAD DUP1 DUP1 PUSH1 0x20 ADD DUP3 DUP2 SUB DUP3 MSTORE DUP4 DUP2 DUP2 MLOAD DUP2 MSTORE PUSH1 0x20 ADD SWAP2 POP DUP1 MLOAD SWAP1 PUSH1 0x20 ADD SWAP1 DUP1 DUP4 DUP4 PUSH1 0x0 JUMPDEST DUP4 DUP2 LT ISZERO PUSH2 0x186 JUMPI DUP1 DUP3 ADD MLOAD DUP2 DUP5 ADD MSTORE PUSH1 0x20 DUP2 ADD SWAP1 POP PUSH2 0x16B JUMP JUMPDEST POP POP POP POP SWAP1 POP SWAP1 DUP2 ADD SWAP1 PUSH1 0x1F AND DUP1 ISZERO PUSH2 0x1B3 JUMPI DUP1 DUP3 SUB DUP1 MLOAD PUSH1 0x1 DUP4 PUSH1 0x20 SUB PUSH2 0x100 EXP SUB NOT AND DUP2 MSTORE PUSH1 0x20 ADD SWAP2 POP JUMPDEST POP SWAP3 POP POP POP PUSH1 0x40 MLOAD DUP1 SWAP2 SUB SWAP1 RETURN JUMPDEST PUSH2 0x1C9 PUSH2 0x5C4 JUMP JUMPDEST PUSH1 0x40 MLOAD DUP1 DUP1 PUSH1 0x20 ADD DUP3 DUP2 SUB DUP3 MSTORE DUP4 DUP2 DUP2 MLOAD DUP2 MSTORE PUSH1 0x20 ADD SWAP2 POP DUP1 MLOAD SWAP1 PUSH1 0x20 ADD SWAP1 DUP1 DUP4 DUP4 PUSH1 0x0 JUMPDEST DUP4 DUP2 LT ISZERO PUSH2 0x209 JUMPI DUP1 DUP3 ADD MLOAD DUP2 DUP5 ADD MSTORE PUSH1 0x20 DUP2 ADD SWAP1 POP PUSH2 0x1EE JUMP JUMPDEST POP POP POP POP SWAP1 POP SWAP1 DUP2 ADD SWAP1 PUSH1 0x1F AND DUP1 ISZERO PUSH2 0x236 JUMPI DUP1 DUP3 SUB DUP1 MLOAD PUSH1 0x1 DUP4 PUSH1 0x20 SUB PUSH2 0x100 EXP SUB NOT AND DUP2 MSTORE PUSH1 0x20 ADD SWAP2 POP JUMPDEST POP SWAP3 POP POP POP PUSH1 0x40 MLOAD DUP1 SWAP2 SUB SWAP1 RETURN JUMPDEST PUSH2 0x24C PUSH2 0x662 JUMP JUMPDEST PUSH1 0x40 MLOAD DUP1 DUP1 PUSH1 0x20 ADD DUP3 DUP2 SUB DUP3 MSTORE DUP4 DUP2 DUP2 MLOAD DUP2 MSTORE PUSH1 0x20 ADD SWAP2 POP DUP1 MLOAD SWAP1 PUSH1 0x20 ADD SWAP1 DUP1 DUP4 DUP4 PUSH1 0x0 JUMPDEST DUP4 DUP2 LT ISZERO PUSH2 0x28C JUMPI DUP1 DUP3 ADD MLOAD DUP2 DUP5 ADD MSTORE PUSH1 0x20 DUP2 ADD SWAP1 POP PUSH2 0x271 JUMP JUMPDEST POP POP POP POP SWAP1 POP SWAP1 DUP2 ADD SWAP1 PUSH1 0x1F AND DUP1 ISZERO PUSH2 0x2B9 JUMPI DUP1 DUP3 SUB DUP1 MLOAD PUSH1 0x1 DUP4 PUSH1 0x20 SUB PUSH2 0x100 EXP SUB NOT AND DUP2 MSTORE PUSH1 0x20 ADD SWAP2 POP JUMPDEST POP SWAP3 POP POP POP PUSH1 0x40 MLOAD DUP1 SWAP2 SUB SWAP1 RETURN JUMPDEST PUSH2 0x2CF PUSH2 0x700 JUMP JUMPDEST PUSH1 0x40 MLOAD DUP1 DUP1 PUSH1 0x20 ADD DUP3 DUP2 SUB DUP3 MSTORE DUP4 DUP2 DUP2 MLOAD DUP2 MSTORE PUSH1 0x20 ADD SWAP2 POP DUP1 MLOAD SWAP1 PUSH1 0x20 ADD SWAP1 DUP1 DUP4 DUP4 PUSH1 0x0 JUMPDEST DUP4 DUP2 LT ISZERO PUSH2 0x30F JUMPI DUP1 DUP3 ADD MLOAD DUP2 DUP5 ADD MSTORE PUSH1 0x20 DUP2 ADD SWAP1 POP PUSH2 0x2F4 JUMP JUMPDEST POP POP POP POP SWAP1 POP SWAP1 DUP2 ADD SWAP1 PUSH1 0x1F AND DUP1 ISZERO PUSH2 0x33C JUMPI DUP1 DUP3 SUB DUP1 MLOAD PUSH1 0x1 DUP4 PUSH1 0x20 SUB PUSH2 0x100 EXP SUB NOT AND DUP2 MSTORE PUSH1 0x20 ADD SWAP2 POP JUMPDEST POP SWAP3 POP POP POP PUSH1 0x40 MLOAD DUP1 SWAP2 SUB SWAP1 RETURN JUMPDEST PUSH2 0x376 PUSH1 0x4 DUP1 CALLDATASIZE SUB PUSH1 0x20 DUP2 LT ISZERO PUSH2 0x360 JUMPI PUSH1 0x0 DUP1 REVERT JUMPDEST DUP2 ADD SWAP1 DUP1 DUP1 CALLDATALOAD SWAP1 PUSH1 0x20 ADD SWAP1 SWAP3 SWAP2 SWAP1 POP POP POP PUSH2 0x79E JUMP JUMPDEST PUSH1 0x40 MLOAD DUP1 DUP1 PUSH1 0x20 ADD DUP3 DUP2 SUB DUP3 MSTORE DUP4 DUP2 DUP2 MLOAD DUP2 MSTORE PUSH1 0x20 ADD SWAP2 POP DUP1 MLOAD SWAP1 PUSH1 0x20 ADD SWAP1 DUP1 DUP4 DUP4 PUSH1 0x0 JUMPDEST DUP4 DUP2 LT ISZERO PUSH2 0x3B6 JUMPI DUP1 DUP3 ADD MLOAD DUP2 DUP5 ADD MSTORE PUSH1 0x20 DUP2 ADD SWAP1 POP PUSH2 0x39B JUMP JUMPDEST POP POP POP POP SWAP1 POP SWAP1 DUP2 ADD SWAP1 PUSH1 0x1F AND DUP1 ISZERO PUSH2 0x3E3 JUMPI DUP1 DUP3 SUB DUP1 MLOAD PUSH1 0x1 DUP4 PUSH1 0x20 SUB PUSH2 0x100 EXP SUB NOT AND DUP2 MSTORE PUSH1 0x20 ADD SWAP2 POP JUMPDEST POP SWAP3 POP POP POP PUSH1 0x40 MLOAD DUP1 SWAP2 SUB SWAP1 RETURN JUMPDEST PUSH2 0x3F9 PUSH2 0x857 JUMP JUMPDEST PUSH1 0x40 MLOAD DUP1 DUP1 PUSH1 0x20 ADD DUP3 DUP2 SUB DUP3 MSTORE DUP4 DUP2 DUP2 MLOAD DUP2 MSTORE PUSH1 0x20 ADD SWAP2 POP DUP1 MLOAD SWAP1 PUSH1 0x20 ADD SWAP1 DUP1 DUP4 DUP4 PUSH1 0x0 JUMPDEST DUP4 DUP2 LT ISZERO PUSH2 0x439 JUMPI DUP1 DUP3 ADD MLOAD DUP2 DUP5 ADD MSTORE PUSH1 0x20 DUP2 ADD SWAP1 POP PUSH2 0x41E JUMP JUMPDEST POP POP POP POP SWAP1 POP SWAP1 DUP2 ADD SWAP1 PUSH1 0x1F AND DUP1 ISZERO PUSH2 0x466 JUMPI DUP1 DUP3 SUB DUP1 MLOAD PUSH1 0x1 DUP4 PUSH1 0x20 SUB PUSH2 0x100 EXP SUB NOT AND DUP2 MSTORE PUSH1 0x20 ADD SWAP2 POP JUMPDEST POP SWAP3 POP POP POP PUSH1 0x40 MLOAD DUP1 SWAP2 SUB SWAP1 RETURN JUMPDEST PUSH2 0x47C PUSH2 0x8F5 JUMP JUMPDEST PUSH1 0x40 MLOAD DUP1 DUP1 PUSH1 0x20 ADD DUP3 DUP2 SUB DUP3 MSTORE DUP4 DUP2 DUP2 MLOAD DUP2 MSTORE PUSH1 0x20 ADD SWAP2 POP DUP1 MLOAD SWAP1 PUSH1 0x20 ADD SWAP1 DUP1 DUP4 DUP4 PUSH1 0x0 JUMPDEST DUP4 DUP2 LT ISZERO PUSH2 0x4BC JUMPI DUP1 DUP3 ADD MLOAD DUP2 DUP5 ADD MSTORE PUSH1 0x20 DUP2 ADD SWAP1 POP PUSH2 0x4A1 JUMP JUMPDEST POP POP POP POP SWAP1 POP SWAP1 DUP2 ADD SWAP1 PUSH1 0x1F AND DUP1 ISZERO PUSH2 0x4E9 JUMPI DUP1 DUP3 SUB DUP1 MLOAD PUSH1 0x1 DUP4 PUSH1 0x20 SUB PUSH2 0x100 EXP SUB NOT AND DUP2 MSTORE PUSH1 0x20 ADD SWAP2 POP JUMPDEST POP SWAP3 POP POP POP PUSH1 0x40 MLOAD DUP1 SWAP2 SUB SWAP1 RETURN JUMPDEST PUSH2 0x5B0 PUSH1 0x4 DUP1 CALLDATASIZE SUB PUSH1 0x20 DUP2 LT ISZERO PUSH2 0x50D JUMPI PUSH1 0x0 DUP1 REVERT JUMPDEST DUP2 ADD SWAP1 DUP1 DUP1 CALLDATALOAD SWAP1 PUSH1 0x20 ADD SWAP1 PUSH5 0x100000000 DUP2 GT ISZERO PUSH2 0x52A JUMPI PUSH1 0x0 DUP1 REVERT JUMPDEST DUP3 ADD DUP4 PUSH1 0x20 DUP3 ADD GT ISZERO PUSH2 0x53C JUMPI PUSH1 0x0 DUP1 REVERT JUMPDEST DUP1 CALLDATALOAD SWAP1 PUSH1 0x20 ADD SWAP2 DUP5 PUSH1 0x1 DUP4 MUL DUP5 ADD GT PUSH5 0x100000000 DUP4 GT OR ISZERO PUSH2 0x55E JUMPI PUSH1 0x0 DUP1 REVERT JUMPDEST SWAP2 SWAP1 DUP1 DUP1 PUSH1 0x1F ADD PUSH1 0x20 DUP1 SWAP2 DIV MUL PUSH1 0x20 ADD PUSH1 0x40 MLOAD SWAP1 DUP2 ADD PUSH1 0x40 MSTORE DUP1 SWAP4 SWAP3 SWAP2 SWAP1 DUP2 DUP2 MSTORE PUSH1 0x20 ADD DUP4 DUP4 DUP1 DUP3 DUP5 CALLDATACOPY PUSH1 0x0 DUP2 DUP5 ADD MSTORE PUSH1 0x1F NOT PUSH1 0x1F DUP3 ADD AND SWAP1 POP DUP1 DUP4 ADD SWAP3 POP POP POP POP POP POP POP SWAP2 SWAP3 SWAP2 SWAP3 SWAP1 POP POP POP PUSH2 0x993 JUMP JUMPDEST STOP JUMPDEST PUSH1 0x60 PUSH2 0x5BD DUP3 PUSH2 0x9D5 JUMP JUMPDEST SWAP1 POP SWAP2 SWAP1 POP JUMP JUMPDEST PUSH1 0x5 DUP1 SLOAD PUSH1 0x1 DUP2 PUSH1 0x1 AND ISZERO PUSH2 0x100 MUL SUB AND PUSH1 0x2 SWAP1 DIV DUP1 PUSH1 0x1F ADD PUSH1 0x20 DUP1 SWAP2 DIV MUL PUSH1 0x20 ADD PUSH1 0x40 MLOAD SWAP1 DUP2 ADD PUSH1 0x40 MSTORE DUP1 SWAP3 SWAP2 SWAP1 DUP2 DUP2 MSTORE PUSH1 0x20 ADD DUP3 DUP1 SLOAD PUSH1 0x1 DUP2 PUSH1 0x1 AND ISZERO PUSH2 0x100 MUL SUB AND PUSH1 0x2 SWAP1 DIV DUP1 ISZERO PUSH2 0x65A JUMPI DUP1 PUSH1 0x1F LT PUSH2 0x62F JUMPI PUSH2 0x100 DUP1 DUP4 SLOAD DIV MUL DUP4 MSTORE SWAP2 PUSH1 0x20 ADD SWAP2 PUSH2 0x65A JUMP JUMPDEST DUP3 ADD SWAP2 SWAP1 PUSH1 0x0 MSTORE PUSH1 0x20 PUSH1 0x0 KECCAK256 SWAP1 JUMPDEST DUP2 SLOAD DUP2 MSTORE SWAP1 PUSH1 0x1 ADD SWAP1 PUSH1 0x20 ADD DUP1 DUP4 GT PUSH2 0x63D JUMPI DUP3 SWAP1 SUB PUSH1 0x1F AND DUP3 ADD SWAP2 JUMPDEST POP POP POP POP POP DUP2 JUMP JUMPDEST PUSH1 0x1 DUP1 SLOAD PUSH1 0x1 DUP2 PUSH1 0x1 AND ISZERO PUSH2 0x100 MUL SUB AND PUSH1 0x2 SWAP1 DIV DUP1 PUSH1 0x1F ADD PUSH1 0x20 DUP1 SWAP2 DIV MUL PUSH1 0x20 ADD PUSH1 0x40 MLOAD SWAP1 DUP2 ADD PUSH1 0x40 MSTORE DUP1 SWAP3 SWAP2 SWAP1 DUP2 DUP2 MSTORE PUSH1 0x20 ADD DUP3 DUP1 SLOAD PUSH1 0x1 DUP2 PUSH1 0x1 AND ISZERO PUSH2 0x100 MUL SUB AND PUSH1 0x2 SWAP1 DIV DUP1 ISZERO PUSH2 0x6F8 JUMPI DUP1 PUSH1 0x1F LT PUSH2 0x6CD JUMPI PUSH2 0x100 DUP1 DUP4 SLOAD DIV MUL DUP4 MSTORE SWAP2 PUSH1 0x20 ADD SWAP2 PUSH2 0x6F8 JUMP JUMPDEST DUP3 ADD SWAP2 SWAP1 PUSH1 0x0 MSTORE PUSH1 0x20 PUSH1 0x0 KECCAK256 SWAP1 JUMPDEST DUP2 SLOAD DUP2 MSTORE SWAP1 PUSH1 0x1 ADD SWAP1 PUSH1 0x20 ADD DUP1 DUP4 GT PUSH2 0x6DB JUMPI DUP3 SWAP1 SUB PUSH1 0x1F AND DUP3 ADD SWAP2 JUMPDEST POP POP POP POP POP DUP2 JUMP JUMPDEST PUSH1 0x3 DUP1 SLOAD PUSH1 0x1 DUP2 PUSH1 0x1 AND ISZERO PUSH2 0x100 MUL SUB AND PUSH1 0x2 SWAP1 DIV DUP1 PUSH1 0x1F ADD PUSH1 0x20 DUP1 SWAP2 DIV MUL PUSH1 0x20 ADD PUSH1 0x40 MLOAD SWAP1 DUP2 ADD PUSH1 0x40 MSTORE DUP1 SWAP3 SWAP2 SWAP1 DUP2 DUP2 MSTORE PUSH1 0x20 ADD DUP3 DUP1 SLOAD PUSH1 0x1 DUP2 PUSH1 0x1 AND ISZERO PUSH2 0x100 MUL SUB AND PUSH1 0x2 SWAP1 DIV DUP1 ISZERO PUSH2 0x796 JUMPI DUP1 PUSH1 0x1F LT PUSH2 0x76B JUMPI PUSH2 0x100 DUP1 DUP4 SLOAD DIV MUL DUP4 MSTORE SWAP2 PUSH1 0x20 ADD SWAP2 PUSH2 0x796 JUMP JUMPDEST DUP3 ADD SWAP2 SWAP1 PUSH1 0x0 MSTORE PUSH1 0x20 PUSH1 0x0 KECCAK256 SWAP1 JUMPDEST DUP2 SLOAD DUP2 MSTORE SWAP1 PUSH1 0x1 ADD SWAP1 PUSH1 0x20 ADD DUP1 DUP4 GT PUSH2 0x779 JUMPI DUP3 SWAP1 SUB PUSH1 0x1F AND DUP3 ADD SWAP2 JUMPDEST POP POP POP POP POP DUP2 JUMP JUMPDEST PUSH1 0x4 DUP2 DUP2 SLOAD DUP2 LT PUSH2 0x7AB JUMPI INVALID JUMPDEST SWAP1 PUSH1 0x0 MSTORE PUSH1 0x20 PUSH1 0x0 KECCAK256 ADD PUSH1 0x0 SWAP2 POP SWAP1 POP DUP1 SLOAD PUSH1 0x1 DUP2 PUSH1 0x1 AND ISZERO PUSH2 0x100 MUL SUB AND PUSH1 0x2 SWAP1 DIV DUP1 PUSH1 0x1F ADD PUSH1 0x20 DUP1 SWAP2 DIV MUL PUSH1 0x20 ADD PUSH1 0x40 MLOAD SWAP1 DUP2 ADD PUSH1 0x40 MSTORE DUP1 SWAP3 SWAP2 SWAP1 DUP2 DUP2 MSTORE PUSH1 0x20 ADD DUP3 DUP1 SLOAD PUSH1 0x1 DUP2 PUSH1 0x1 AND ISZERO PUSH2 0x100 MUL SUB AND PUSH1 0x2 SWAP1 DIV DUP1 ISZERO PUSH2 0x84F JUMPI DUP1 PUSH1 0x1F LT PUSH2 0x824 JUMPI PUSH2 0x100 DUP1 DUP4 SLOAD DIV MUL DUP4 MSTORE SWAP2 PUSH1 0x20 ADD SWAP2 PUSH2 0x84F JUMP JUMPDEST DUP3 ADD SWAP2 SWAP1 PUSH1 0x0 MSTORE PUSH1 0x20 PUSH1 0x0 KECCAK256 SWAP1 JUMPDEST DUP2 SLOAD DUP2 MSTORE SWAP1 PUSH1 0x1 ADD SWAP1 PUSH1 0x20 ADD DUP1 DUP4 GT PUSH2 0x832 JUMPI DUP3 SWAP1 SUB PUSH1 0x1F AND DUP3 ADD SWAP2 JUMPDEST POP POP POP POP POP DUP2 JUMP JUMPDEST PUSH1 0x2 DUP1 SLOAD PUSH1 0x1 DUP2 PUSH1 0x1 AND ISZERO PUSH2 0x100 MUL SUB AND PUSH1 0x2 SWAP1 DIV DUP1 PUSH1 0x1F ADD PUSH1 0x20 DUP1 SWAP2 DIV MUL PUSH1 0x20 ADD PUSH1 0x40 MLOAD SWAP1 DUP2 ADD PUSH1 0x40 MSTORE DUP1 SWAP3 SWAP2 SWAP1 DUP2 DUP2 MSTORE PUSH1 0x20 ADD DUP3 DUP1 SLOAD PUSH1 0x1 DUP2 PUSH1 0x1 AND ISZERO PUSH2 0x100 MUL SUB AND PUSH1 0x2 SWAP1 DIV DUP1 ISZERO PUSH2 0x8ED JUMPI DUP1 PUSH1 0x1F LT PUSH2 0x8C2 JUMPI PUSH2 0x100 DUP1 DUP4 SLOAD DIV MUL DUP4 MSTORE SWAP2 PUSH1 0x20 ADD SWAP2 PUSH2 0x8ED JUMP JUMPDEST DUP3 ADD SWAP2 SWAP1 PUSH1 0x0 MSTORE PUSH1 0x20 PUSH1 0x0 KECCAK256 SWAP1 JUMPDEST DUP2 SLOAD DUP2 MSTORE SWAP1 PUSH1 0x1 ADD SWAP1 PUSH1 0x20 ADD DUP1 DUP4 GT PUSH2 0x8D0 JUMPI DUP3 SWAP1 SUB PUSH1 0x1F AND DUP3 ADD SWAP2 JUMPDEST POP POP POP POP POP DUP2 JUMP JUMPDEST PUSH1 0x0 DUP1 SLOAD PUSH1 0x1 DUP2 PUSH1 0x1 AND ISZERO PUSH2 0x100 MUL SUB AND PUSH1 0x2 SWAP1 DIV DUP1 PUSH1 0x1F ADD PUSH1 0x20 DUP1 SWAP2 DIV MUL PUSH1 0x20 ADD PUSH1 0x40 MLOAD SWAP1 DUP2 ADD PUSH1 0x40 MSTORE DUP1 SWAP3 SWAP2 SWAP1 DUP2 DUP2 MSTORE PUSH1 0x20 ADD DUP3 DUP1 SLOAD PUSH1 0x1 DUP2 PUSH1 0x1 AND ISZERO PUSH2 0x100 MUL SUB AND PUSH1 0x2 SWAP1 DIV DUP1 ISZERO PUSH2 0x98B JUMPI DUP1 PUSH1 0x1F LT PUSH2 0x960 JUMPI PUSH2 0x100 DUP1 DUP4 SLOAD DIV MUL DUP4 MSTORE SWAP2 PUSH1 0x20 ADD SWAP2 PUSH2 0x98B JUMP JUMPDEST DUP3 ADD SWAP2 SWAP1 PUSH1 0x0 MSTORE PUSH1 0x20 PUSH1 0x0 KECCAK256 SWAP1 JUMPDEST DUP2 SLOAD DUP2 MSTORE SWAP1 PUSH1 0x1 ADD SWAP1 PUSH1 0x20 ADD DUP1 DUP4 GT PUSH2 0x96E JUMPI DUP3 SWAP1 SUB PUSH1 0x1F AND DUP3 ADD SWAP2 JUMPDEST POP POP POP POP POP DUP2 JUMP JUMPDEST PUSH1 0x4 DUP2 SWAP1 DUP1 PUSH1 0x1 DUP2 SLOAD ADD DUP1 DUP3 SSTORE DUP1 SWAP2 POP POP SWAP1 PUSH1 0x1 DUP3 SUB SWAP1 PUSH1 0x0 MSTORE PUSH1 0x20 PUSH1 0x0 KECCAK256 ADD PUSH1 0x0 SWAP1 SWAP2 SWAP3 SWAP1 SWAP2 SWAP1 SWAP2 POP SWAP1 DUP1 MLOAD SWAP1 PUSH1 0x20 ADD SWAP1 PUSH2 0x9D0 SWAP3 SWAP2 SWAP1 PUSH2 0xDB2 JUMP JUMPDEST POP POP POP JUMP JUMPDEST PUSH1 0x60 PUSH1 0x1 DUP3 MLOAD EQ DUP1 ISZERO PUSH2 0xA25 JUMPI POP PUSH1 0x7F PUSH1 0xF8 SHL DUP3 PUSH1 0x0 DUP2 MLOAD DUP2 LT PUSH2 0x9F5 JUMPI INVALID JUMPDEST PUSH1 0x20 ADD ADD MLOAD PUSH1 0xF8 SHR PUSH1 0xF8 SHL PUSH31 0xFFFFFFFFFFFFFFFFFFFFFFFFFFFFFFFFFFFFFFFFFFFFFFFFFFFFFFFFFFFFFF NOT AND GT ISZERO JUMPDEST ISZERO PUSH2 0xA32 JUMPI DUP2 SWAP1 POP PUSH2 0xA4D JUMP JUMPDEST PUSH2 0xA4A PUSH2 0xA44 DUP4 MLOAD PUSH1 0x80 PUSH1 0xFF AND PUSH2 0xA52 JUMP JUMPDEST DUP4 PUSH2 0xBC6 JUMP JUMPDEST SWAP1 POP JUMPDEST SWAP2 SWAP1 POP JUMP JUMPDEST PUSH1 0x60 PUSH9 0x10000000000000000 DUP4 LT PUSH2 0xAD2 JUMPI PUSH1 0x40 MLOAD PUSH32 0x8C379A000000000000000000000000000000000000000000000000000000000 DUP2 MSTORE PUSH1 0x4 ADD DUP1 DUP1 PUSH1 0x20 ADD DUP3 DUP2 SUB DUP3 MSTORE PUSH1 0xE DUP2 MSTORE PUSH1 0x20 ADD DUP1 PUSH32 0x696E70757420746F6F206C6F6E67000000000000000000000000000000000000 DUP2 MSTORE POP PUSH1 0x20 ADD SWAP2 POP POP PUSH1 0x40 MLOAD DUP1 SWAP2 SUB SWAP1 REVERT JUMPDEST PUSH1 0x60 PUSH1 0x1 PUSH1 0x40 MLOAD SWAP1 DUP1 DUP3 MSTORE DUP1 PUSH1 0x1F ADD PUSH1 0x1F NOT AND PUSH1 0x20 ADD DUP3 ADD PUSH1 0x40 MSTORE DUP1 ISZERO PUSH2 0xB08 JUMPI DUP2 PUSH1 0x20 ADD PUSH1 0x1 DUP3 MUL DUP1 CODESIZE DUP4 CODECOPY DUP1 DUP3 ADD SWAP2 POP POP SWAP1 POP JUMPDEST POP SWAP1 POP PUSH1 0x37 DUP5 GT PUSH2 0xB5E JUMPI DUP3 DUP5 ADD PUSH1 0xF8 SHL DUP2 PUSH1 0x0 DUP2 MLOAD DUP2 LT PUSH2 0xB26 JUMPI INVALID JUMPDEST PUSH1 0x20 ADD ADD SWAP1 PUSH31 0xFFFFFFFFFFFFFFFFFFFFFFFFFFFFFFFFFFFFFFFFFFFFFFFFFFFFFFFFFFFFFF NOT AND SWAP1 DUP2 PUSH1 0x0 BYTE SWAP1 MSTORE8 POP DUP1 SWAP2 POP POP PUSH2 0xBC0 JUMP JUMPDEST PUSH1 0x60 PUSH2 0xB69 DUP6 PUSH2 0xC50 JUMP JUMPDEST SWAP1 POP PUSH1 0x37 DUP5 DUP3 MLOAD ADD ADD PUSH1 0xF8 SHL DUP3 PUSH1 0x0 DUP2 MLOAD DUP2 LT PUSH2 0xB82 JUMPI INVALID JUMPDEST PUSH1 0x20 ADD ADD SWAP1 PUSH31 0xFFFFFFFFFFFFFFFFFFFFFFFFFFFFFFFFFFFFFFFFFFFFFFFFFFFFFFFFFFFFFF NOT AND SWAP1 DUP2 PUSH1 0x0 BYTE SWAP1 MSTORE8 POP PUSH2 0xBBB DUP3 DUP3 PUSH2 0xBC6 JUMP JUMPDEST SWAP3 POP POP POP JUMPDEST SWAP3 SWAP2 POP POP JUMP JUMPDEST PUSH1 0x60 DUP1 PUSH1 0x40 MLOAD SWAP1 POP DUP4 MLOAD DUP1 DUP3 MSTORE PUSH1 0x20 DUP3 ADD DUP2 DUP2 ADD PUSH1 0x20 DUP8 ADD JUMPDEST DUP2 DUP4 LT ISZERO PUSH2 0xBFC JUMPI DUP1 MLOAD DUP4 MSTORE PUSH1 0x20 DUP4 ADD SWAP3 POP PUSH1 0x20 DUP2 ADD SWAP1 POP PUSH2 0xBDF JUMP JUMPDEST POP DUP6 MLOAD SWAP3 POP DUP4 MLOAD DUP4 ADD DUP5 MSTORE DUP1 SWAP2 POP DUP3 DUP3 ADD SWAP1 POP PUSH1 0x20 DUP7 ADD JUMPDEST DUP2 DUP4 LT ISZERO PUSH2 0xC31 JUMPI DUP1 MLOAD DUP4 MSTORE PUSH1 0x20 DUP4 ADD SWAP3 POP PUSH1 0x20 DUP2 ADD SWAP1 POP PUSH2 0xC14 JUMP JUMPDEST POP PUSH1 0x1F NOT PUSH1 0x1F DUP9 MLOAD DUP6 ADD ISZERO DUP4 ADD ADD AND PUSH1 0x40 MSTORE POP POP POP DUP1 SWAP2 POP POP SWAP3 SWAP2 POP POP JUMP JUMPDEST PUSH1 0x60 DUP1 PUSH1 0x20 PUSH1 0x40 MLOAD SWAP1 DUP1 DUP3 MSTORE DUP1 PUSH1 0x1F ADD PUSH1 0x1F NOT AND PUSH1 0x20 ADD DUP3 ADD PUSH1 0x40 MSTORE DUP1 ISZERO PUSH2 0xC87 JUMPI DUP2 PUSH1 0x20 ADD PUSH1 0x1 DUP3 MUL DUP1 CODESIZE DUP4 CODECOPY DUP1 DUP3 ADD SWAP2 POP POP SWAP1 POP JUMPDEST POP SWAP1 POP DUP3 PUSH1 0x20 DUP3 ADD MSTORE PUSH1 0x0 DUP1 PUSH32 0xFFFFFFFFFFFFFFFFFFFFFFFFFFFFFFFFFFFFFFFFFFFFFFFF0000000000000000 DUP6 AND EQ ISZERO PUSH2 0xCC5 JUMPI PUSH1 0x18 SWAP1 POP PUSH2 0xCFF JUMP JUMPDEST PUSH1 0x0 PUSH32 0xFFFFFFFFFFFFFFFFFFFFFFFFFFFFFFFF00000000000000000000000000000000 DUP6 AND EQ ISZERO PUSH2 0xCF9 JUMPI PUSH1 0x10 SWAP1 POP PUSH2 0xCFE JUMP JUMPDEST PUSH1 0x0 SWAP1 POP JUMPDEST JUMPDEST JUMPDEST PUSH1 0x20 DUP2 LT ISZERO PUSH2 0xD5E JUMPI PUSH1 0x0 PUSH1 0xF8 SHL DUP3 DUP3 DUP2 MLOAD DUP2 LT PUSH2 0xD1A JUMPI INVALID JUMPDEST PUSH1 0x20 ADD ADD MLOAD PUSH1 0xF8 SHR PUSH1 0xF8 SHL PUSH31 0xFFFFFFFFFFFFFFFFFFFFFFFFFFFFFFFFFFFFFFFFFFFFFFFFFFFFFFFFFFFFFF NOT AND EQ PUSH2 0xD51 JUMPI PUSH2 0xD5E JUMP JUMPDEST DUP1 DUP1 PUSH1 0x1 ADD SWAP2 POP POP PUSH2 0xD00 JUMP JUMPDEST PUSH1 0x0 DUP2 PUSH1 0x20 SUB SWAP1 POP PUSH1 0x60 DUP2 PUSH1 0x40 MLOAD SWAP1 DUP1 DUP3 MSTORE DUP1 PUSH1 0x1F ADD PUSH1 0x1F NOT AND PUSH1 0x20 ADD DUP3 ADD PUSH1 0x40 MSTORE DUP1 ISZERO PUSH2 0xD9B JUMPI DUP2 PUSH1 0x20 ADD PUSH1 0x1 DUP3 MUL DUP1 CODESIZE DUP4 CODECOPY DUP1 DUP3 ADD SWAP2 POP POP SWAP1 POP JUMPDEST POP SWAP1 POP DUP6 DUP3 DUP3 ADD MSTORE DUP2 DUP2 MSTORE DUP1 SWAP5 POP POP POP POP POP SWAP2 SWAP1 POP JUMP JUMPDEST DUP3 DUP1 SLOAD PUSH1 0x1 DUP2 PUSH1 0x1 AND ISZERO PUSH2 0x100 MUL SUB AND PUSH1 0x2 SWAP1 DIV SWAP1 PUSH1 0x0 MSTORE PUSH1 0x20 PUSH1 0x0 KECCAK256 SWAP1 PUSH1 0x1F ADD PUSH1 0x20 SWAP1 DIV DUP2 ADD SWAP3 DUP3 PUSH1 0x1F LT PUSH2 0xDF3 JUMPI DUP1 MLOAD PUSH1 0xFF NOT AND DUP4 DUP1 ADD OR DUP6 SSTORE PUSH2 0xE21 JUMP JUMPDEST DUP3 DUP1 ADD PUSH1 0x1 ADD DUP6 SSTORE DUP3 ISZERO PUSH2 0xE21 JUMPI SWAP2 DUP3 ADD JUMPDEST DUP3 DUP2 GT ISZERO PUSH2 0xE20 JUMPI DUP3 MLOAD DUP3 SSTORE SWAP2 PUSH1 0x20 ADD SWAP2 SWAP1 PUSH1 0x1 ADD SWAP1 PUSH2 0xE05 JUMP JUMPDEST JUMPDEST POP SWAP1 POP PUSH2 0xE2E SWAP2 SWAP1 PUSH2 0xE32 JUMP JUMPDEST POP SWAP1 JUMP JUMPDEST PUSH2 0xE54 SWAP2 SWAP1 JUMPDEST DUP1 DUP3 GT ISZERO PUSH2 0xE50 JUMPI PUSH1 0x0 DUP2 PUSH1 0x0 SWAP1 SSTORE POP PUSH1 0x1 ADD PUSH2 0xE38 JUMP JUMPDEST POP SWAP1 JUMP JUMPDEST SWAP1 JUMP INVALID LOG2 PUSH6 0x627A7A723158 KECCAK256 0xB6 ORIGIN 0xB3 0xAE 0xD0 RETURN PUSH29 0x220B14EFB388E232FF9598B42F850867273EBAA118C2CAB42C64736F6C PUSH4 0x43000510 STOP ORIGIN PUSH5 0x6664666466 PUSH5 0x6641484748 SELFBALANCE DIFFICULTY MSTORE8 0x48 DIFFICULTY TIMESTAMP SELFBALANCE 0x48 MSTORE8 DIFFICULTY MSTORE8 0x49 MSTORE8 SELFBALANCE TIMESTAMP 0x4F MLOAD TIMESTAMP SSTORE 0x49 0x48 0x4B 0x4A TIMESTAMP SSTORE 0x49 MSTORE8 NUMBER 0x48 PUSH20 0x6466647366535353535353445344534453445344 "
				},
				"gasEstimates": {
					"creation": {
						"codeDepositCost": "744800",
						"executionCost": "infinite",
						"totalCost": "infinite"
					},
					"external": {
						"bytesDemo1()": "infinite",
						"bytesDemo2()": "infinite",
						"bytesDemo3()": "infinite",
						"bytesDemo4()": "infinite",
						"bytesDemo5()": "infinite",
						"getData(bytes)": "infinite",
						"self(uint256)": "infinite",
						"setSelfData(bytes)": "infinite"
					},
					"internal": {
						"encodeBytes(bytes memory)": "infinite",
						"encodeLength(uint256,uint256)": "infinite",
						"mergeBytes(bytes memory,bytes memory)": "infinite",
						"toBinary(uint256)": "infinite"
					}
				},
				"methodIdentifiers": {
					"bytesDemo1()": "ea55583e",
					"bytesDemo2()": "3aeee938",
					"bytesDemo3()": "e82f2df9",
					"bytesDemo4()": "43fd8ccd",
					"bytesDemo5()": "2f10a511",
					"getData(bytes)": "1431b23a",
					"self(uint256)": "af1fba2f",
					"setSelfData(bytes)": "f7a08e1f"
				}
			},
			"userdoc": {
				"methods": {}
			}
		}
	}
}