{
	"contracts/demo1.sol": {
		"CmnPkg": {
			"abi": [
				{
					"constant": true,
					"inputs": [],
					"name": "CROSS_CHAIN_KEY_PREFIX",
					"outputs": [
						{
							"internalType": "uint256",
							"name": "",
							"type": "uint256"
						}
					],
					"payable": false,
					"stateMutability": "view",
					"type": "function"
				}
			],
			"devdoc": {
				"methods": {}
			},
			"evm": {
				"assembly": "    /* \"contracts/demo1.sol\":34:701  library CmnPkg {\r... */\n  dataSize(sub_0)\n  dataOffset(sub_0)\n    /* \"--CODEGEN--\":132:134   */\n  0x0b\n    /* \"--CODEGEN--\":166:173   */\n  dup3\n    /* \"--CODEGEN--\":155:164   */\n  dup3\n    /* \"--CODEGEN--\":146:153   */\n  dup3\n    /* \"--CODEGEN--\":137:174   */\n  codecopy\n    /* \"--CODEGEN--\":255:262   */\n  dup1\n    /* \"--CODEGEN--\":249:263   */\n  mload\n    /* \"--CODEGEN--\":246:247   */\n  0x00\n    /* \"--CODEGEN--\":241:264   */\n  byte\n    /* \"--CODEGEN--\":235:239   */\n  0x73\n    /* \"--CODEGEN--\":232:265   */\n  eq\n    /* \"--CODEGEN--\":222:224   */\n  tag_1\n  jumpi\n    /* \"--CODEGEN--\":269:278   */\n  invalid\n    /* \"--CODEGEN--\":222:224   */\ntag_1:\n    /* \"--CODEGEN--\":293:302   */\n  address\n    /* \"--CODEGEN--\":290:291   */\n  0x00\n    /* \"--CODEGEN--\":283:303   */\n  mstore\n    /* \"--CODEGEN--\":323:327   */\n  0x73\n    /* \"--CODEGEN--\":314:321   */\n  dup2\n    /* \"--CODEGEN--\":306:328   */\n  mstore8\n    /* \"--CODEGEN--\":347:354   */\n  dup3\n    /* \"--CODEGEN--\":338:345   */\n  dup2\n    /* \"--CODEGEN--\":331:355   */\n  return\nstop\n\nsub_0: assembly {\n        /* \"contracts/demo1.sol\":34:701  library CmnPkg {\r... */\n      eq(address, deployTimeAddress())\n      mstore(0x40, 0x80)\n      jumpi(tag_1, lt(calldatasize, 0x04))\n      shr(0xe0, calldataload(0x00))\n      dup1\n      0x863fe4ab\n      eq\n      tag_2\n      jumpi\n    tag_1:\n      0x00\n      dup1\n      revert\n        /* \"contracts/demo1.sol\":56:115  uint256 constant public CROSS_CHAIN_KEY_PREFIX = 0x01006000 */\n    tag_2:\n      tag_3\n      tag_4\n      jump\t// in\n    tag_3:\n      mload(0x40)\n      dup1\n      dup3\n      dup2\n      mstore\n      0x20\n      add\n      swap2\n      pop\n      pop\n      mload(0x40)\n      dup1\n      swap2\n      sub\n      swap1\n      return\n    tag_4:\n        /* \"contracts/demo1.sol\":105:115  0x01006000 */\n      0x01006000\n        /* \"contracts/demo1.sol\":56:115  uint256 constant public CROSS_CHAIN_KEY_PREFIX = 0x01006000 */\n      dup2\n      jump\t// out\n\n    auxdata: 0xa265627a7a7231582087203ee98c91b7dbfab66959ea70d0409f0c4dfa762af9998824a33b12b1167164736f6c63430005100032\n}\n",
				"bytecode": {
					"linkReferences": {},
					"object": "6091610024600b82828239805160001a607314601757fe5b30600052607381538281f3fe730000000000000000000000000000000000000000301460806040526004361060335760003560e01c8063863fe4ab146038575b600080fd5b603e6054565b6040518082815260200191505060405180910390f35b63010060008156fea265627a7a7231582087203ee98c91b7dbfab66959ea70d0409f0c4dfa762af9998824a33b12b1167164736f6c63430005100032",
					"opcodes": "PUSH1 0x91 PUSH2 0x24 PUSH1 0xB DUP3 DUP3 DUP3 CODECOPY DUP1 MLOAD PUSH1 0x0 BYTE PUSH1 0x73 EQ PUSH1 0x17 JUMPI INVALID JUMPDEST ADDRESS PUSH1 0x0 MSTORE PUSH1 0x73 DUP2 MSTORE8 DUP3 DUP2 RETURN INVALID PUSH20 0x0 ADDRESS EQ PUSH1 0x80 PUSH1 0x40 MSTORE PUSH1 0x4 CALLDATASIZE LT PUSH1 0x33 JUMPI PUSH1 0x0 CALLDATALOAD PUSH1 0xE0 SHR DUP1 PUSH4 0x863FE4AB EQ PUSH1 0x38 JUMPI JUMPDEST PUSH1 0x0 DUP1 REVERT JUMPDEST PUSH1 0x3E PUSH1 0x54 JUMP JUMPDEST PUSH1 0x40 MLOAD DUP1 DUP3 DUP2 MSTORE PUSH1 0x20 ADD SWAP2 POP POP PUSH1 0x40 MLOAD DUP1 SWAP2 SUB SWAP1 RETURN JUMPDEST PUSH4 0x1006000 DUP2 JUMP INVALID LOG2 PUSH6 0x627A7A723158 KECCAK256 DUP8 KECCAK256 RETURNDATACOPY 0xE9 DUP13 SWAP2 0xB7 0xDB STATICCALL 0xB6 PUSH10 0x59EA70D0409F0C4DFA76 0x2A 0xF9 SWAP10 DUP9 0x24 LOG3 EXTCODESIZE SLT 0xB1 AND PUSH18 0x64736F6C6343000510003200000000000000 "
				},
				"gasEstimates": {
					"creation": {
						"codeDepositCost": "29000",
						"executionCost": "106",
						"totalCost": "29106"
					},
					"external": {
						"CROSS_CHAIN_KEY_PREFIX()": "167"
					},
					"internal": {
						"generateKey(uint64,uint8)": "infinite"
					}
				},
				"methodIdentifiers": {
					"CROSS_CHAIN_KEY_PREFIX()": "863fe4ab"
				}
			},
			"userdoc": {
				"methods": {}
			}
		}
	}
}