{
	"contracts/demo1.sol": {
		"Demo1": {
			"abi": [
				{
					"constant": true,
					"inputs": [],
					"name": "bytesDemo1",
					"outputs": [
						{
							"internalType": "bytes",
							"name": "",
							"type": "bytes"
						}
					],
					"payable": false,
					"stateMutability": "view",
					"type": "function"
				},
				{
					"constant": true,
					"inputs": [],
					"name": "bytesDemo2",
					"outputs": [
						{
							"internalType": "bytes",
							"name": "",
							"type": "bytes"
						}
					],
					"payable": false,
					"stateMutability": "view",
					"type": "function"
				},
				{
					"constant": true,
					"inputs": [
						{
							"internalType": "uint256",
							"name": "length",
							"type": "uint256"
						},
						{
							"internalType": "uint256",
							"name": "offset",
							"type": "uint256"
						}
					],
					"name": "getData",
					"outputs": [
						{
							"internalType": "bytes",
							"name": "",
							"type": "bytes"
						}
					],
					"payable": false,
					"stateMutability": "view",
					"type": "function"
				}
			],
			"devdoc": {
				"methods": {}
			},
			"evm": {
				"assembly": "    /* \"contracts/demo1.sol\":92:16944  contract Demo1{\r... */\n  mstore(0x40, 0x80)\n    /* \"contracts/demo1.sol\":177:207  bytes public bytesDemo1 = \"12\" */\n  mload(0x40)\n  dup1\n  0x40\n  add\n  0x40\n  mstore\n  dup1\n  0x02\n  dup2\n  mstore\n  0x20\n  add\n  0x3132000000000000000000000000000000000000000000000000000000000000\n  dup2\n  mstore\n  pop\n  0x00\n  swap1\n  dup1\n  mload\n  swap1\n  0x20\n  add\n  swap1\n  tag_1\n  swap3\n  swap2\n  swap1\n  tag_2\n  jump\t// in\ntag_1:\n  pop\n    /* \"contracts/demo1.sol\":216:306  bytes public bytesDemo2 = \"dfdfdfdfAHGHGDSHDBGHSDSISGBOQBUIHKJBUISCHsdfdsfSSSSSSDSDSDSDSD\" */\n  mload(0x40)\n  dup1\n  0x60\n  add\n  0x40\n  mstore\n  dup1\n  0x3e\n  dup2\n  mstore\n  0x20\n  add\n  data_d99d57b2a63a8e679ec4622c09c3ee1dfea65c927b069900ecc6db64f0c663c9\n  0x3e\n  swap2\n  codecopy\n  0x01\n  swap1\n  dup1\n  mload\n  swap1\n  0x20\n  add\n  swap1\n  tag_3\n  swap3\n  swap2\n  swap1\n  tag_2\n  jump\t// in\ntag_3:\n  pop\n    /* \"contracts/demo1.sol\":92:16944  contract Demo1{\r... */\n  callvalue\n    /* \"--CODEGEN--\":8:17   */\n  dup1\n    /* \"--CODEGEN--\":5:7   */\n  iszero\n  tag_4\n  jumpi\n    /* \"--CODEGEN--\":30:31   */\n  0x00\n    /* \"--CODEGEN--\":27:28   */\n  dup1\n    /* \"--CODEGEN--\":20:32   */\n  revert\n    /* \"--CODEGEN--\":5:7   */\ntag_4:\n    /* \"contracts/demo1.sol\":92:16944  contract Demo1{\r... */\n  pop\n  jump(tag_5)\ntag_2:\n  dup3\n  dup1\n  sload\n  0x01\n  dup2\n  0x01\n  and\n  iszero\n  0x0100\n  mul\n  sub\n  and\n  0x02\n  swap1\n  div\n  swap1\n  0x00\n  mstore\n  keccak256(0x00, 0x20)\n  swap1\n  0x1f\n  add\n  0x20\n  swap1\n  div\n  dup2\n  add\n  swap3\n  dup3\n  0x1f\n  lt\n  tag_7\n  jumpi\n  dup1\n  mload\n  not(0xff)\n  and\n  dup4\n  dup1\n  add\n  or\n  dup6\n  sstore\n  jump(tag_6)\ntag_7:\n  dup3\n  dup1\n  add\n  0x01\n  add\n  dup6\n  sstore\n  dup3\n  iszero\n  tag_6\n  jumpi\n  swap2\n  dup3\n  add\ntag_8:\n  dup3\n  dup2\n  gt\n  iszero\n  tag_9\n  jumpi\n  dup3\n  mload\n  dup3\n  sstore\n  swap2\n  0x20\n  add\n  swap2\n  swap1\n  0x01\n  add\n  swap1\n  jump(tag_8)\ntag_9:\ntag_6:\n  pop\n  swap1\n  pop\n  tag_10\n  swap2\n  swap1\n  tag_11\n  jump\t// in\ntag_10:\n  pop\n  swap1\n  jump\t// out\ntag_11:\n  tag_12\n  swap2\n  swap1\ntag_13:\n  dup1\n  dup3\n  gt\n  iszero\n  tag_14\n  jumpi\n  0x00\n  dup2\n  0x00\n  swap1\n  sstore\n  pop\n  0x01\n  add\n  jump(tag_13)\ntag_14:\n  pop\n  swap1\n  jump\ntag_12:\n  swap1\n  jump\t// out\ntag_5:\n  dataSize(sub_0)\n  dup1\n  dataOffset(sub_0)\n  0x00\n  codecopy\n  0x00\n  return\nstop\ndata_d99d57b2a63a8e679ec4622c09c3ee1dfea65c927b069900ecc6db64f0c663c9 6466646664666466414847484744534844424748534453495347424f51425549484b4a425549534348736466647366535353535353445344534453445344\n\nsub_0: assembly {\n        /* \"contracts/demo1.sol\":92:16944  contract Demo1{\r... */\n      mstore(0x40, 0x80)\n      callvalue\n        /* \"--CODEGEN--\":8:17   */\n      dup1\n        /* \"--CODEGEN--\":5:7   */\n      iszero\n      tag_1\n      jumpi\n        /* \"--CODEGEN--\":30:31   */\n      0x00\n        /* \"--CODEGEN--\":27:28   */\n      dup1\n        /* \"--CODEGEN--\":20:32   */\n      revert\n        /* \"--CODEGEN--\":5:7   */\n    tag_1:\n        /* \"contracts/demo1.sol\":92:16944  contract Demo1{\r... */\n      pop\n      jumpi(tag_2, lt(calldatasize, 0x04))\n      shr(0xe0, calldataload(0x00))\n      dup1\n      0x3aeee938\n      eq\n      tag_3\n      jumpi\n      dup1\n      0x4e4fe306\n      eq\n      tag_4\n      jumpi\n      dup1\n      0xea55583e\n      eq\n      tag_5\n      jumpi\n    tag_2:\n      0x00\n      dup1\n      revert\n        /* \"contracts/demo1.sol\":216:306  bytes public bytesDemo2 = \"dfdfdfdfAHGHGDSHDBGHSDSISGBOQBUIHKJBUISCHsdfdsfSSSSSSDSDSDSDSD\" */\n    tag_3:\n      tag_6\n      tag_7\n      jump\t// in\n    tag_6:\n      mload(0x40)\n      dup1\n      dup1\n      0x20\n      add\n      dup3\n      dup2\n      sub\n      dup3\n      mstore\n      dup4\n      dup2\n      dup2\n      mload\n      dup2\n      mstore\n      0x20\n      add\n      swap2\n      pop\n      dup1\n      mload\n      swap1\n      0x20\n      add\n      swap1\n      dup1\n      dup4\n      dup4\n        /* \"--CODEGEN--\":23:24   */\n      0x00\n        /* \"--CODEGEN--\":8:108   */\n    tag_8:\n        /* \"--CODEGEN--\":33:36   */\n      dup4\n        /* \"--CODEGEN--\":30:31   */\n      dup2\n        /* \"--CODEGEN--\":27:37   */\n      lt\n        /* \"--CODEGEN--\":8:108   */\n      iszero\n      tag_10\n      jumpi\n        /* \"--CODEGEN--\":99:100   */\n      dup1\n        /* \"--CODEGEN--\":94:97   */\n      dup3\n        /* \"--CODEGEN--\":90:101   */\n      add\n        /* \"--CODEGEN--\":84:102   */\n      mload\n        /* \"--CODEGEN--\":80:81   */\n      dup2\n        /* \"--CODEGEN--\":75:78   */\n      dup5\n        /* \"--CODEGEN--\":71:82   */\n      add\n        /* \"--CODEGEN--\":64:103   */\n      mstore\n        /* \"--CODEGEN--\":52:54   */\n      0x20\n        /* \"--CODEGEN--\":49:50   */\n      dup2\n        /* \"--CODEGEN--\":45:55   */\n      add\n        /* \"--CODEGEN--\":40:55   */\n      swap1\n      pop\n        /* \"--CODEGEN--\":8:108   */\n      jump(tag_8)\n    tag_10:\n        /* \"--CODEGEN--\":12:26   */\n      pop\n        /* \"contracts/demo1.sol\":216:306  bytes public bytesDemo2 = \"dfdfdfdfAHGHGDSHDBGHSDSISGBOQBUIHKJBUISCHsdfdsfSSSSSSDSDSDSDSD\" */\n      pop\n      pop\n      pop\n      swap1\n      pop\n      swap1\n      dup2\n      add\n      swap1\n      0x1f\n      and\n      dup1\n      iszero\n      tag_11\n      jumpi\n      dup1\n      dup3\n      sub\n      dup1\n      mload\n      0x01\n      dup4\n      0x20\n      sub\n      0x0100\n      exp\n      sub\n      not\n      and\n      dup2\n      mstore\n      0x20\n      add\n      swap2\n      pop\n    tag_11:\n      pop\n      swap3\n      pop\n      pop\n      pop\n      mload(0x40)\n      dup1\n      swap2\n      sub\n      swap1\n      return\n        /* \"contracts/demo1.sol\":315:445  function getData(uint length, uint offset) public view returns(bytes memory){\r... */\n    tag_4:\n      tag_12\n      0x04\n      dup1\n      calldatasize\n      sub\n        /* \"--CODEGEN--\":13:15   */\n      0x40\n        /* \"--CODEGEN--\":8:11   */\n      dup2\n        /* \"--CODEGEN--\":5:16   */\n      lt\n        /* \"--CODEGEN--\":2:4   */\n      iszero\n      tag_13\n      jumpi\n        /* \"--CODEGEN--\":29:30   */\n      0x00\n        /* \"--CODEGEN--\":26:27   */\n      dup1\n        /* \"--CODEGEN--\":19:31   */\n      revert\n        /* \"--CODEGEN--\":2:4   */\n    tag_13:\n        /* \"contracts/demo1.sol\":315:445  function getData(uint length, uint offset) public view returns(bytes memory){\r... */\n      dup2\n      add\n      swap1\n      dup1\n      dup1\n      calldataload\n      swap1\n      0x20\n      add\n      swap1\n      swap3\n      swap2\n      swap1\n      dup1\n      calldataload\n      swap1\n      0x20\n      add\n      swap1\n      swap3\n      swap2\n      swap1\n      pop\n      pop\n      pop\n      tag_14\n      jump\t// in\n    tag_12:\n      mload(0x40)\n      dup1\n      dup1\n      0x20\n      add\n      dup3\n      dup2\n      sub\n      dup3\n      mstore\n      dup4\n      dup2\n      dup2\n      mload\n      dup2\n      mstore\n      0x20\n      add\n      swap2\n      pop\n      dup1\n      mload\n      swap1\n      0x20\n      add\n      swap1\n      dup1\n      dup4\n      dup4\n        /* \"--CODEGEN--\":23:24   */\n      0x00\n        /* \"--CODEGEN--\":8:108   */\n    tag_15:\n        /* \"--CODEGEN--\":33:36   */\n      dup4\n        /* \"--CODEGEN--\":30:31   */\n      dup2\n        /* \"--CODEGEN--\":27:37   */\n      lt\n        /* \"--CODEGEN--\":8:108   */\n      iszero\n      tag_17\n      jumpi\n        /* \"--CODEGEN--\":99:100   */\n      dup1\n        /* \"--CODEGEN--\":94:97   */\n      dup3\n        /* \"--CODEGEN--\":90:101   */\n      add\n        /* \"--CODEGEN--\":84:102   */\n      mload\n        /* \"--CODEGEN--\":80:81   */\n      dup2\n        /* \"--CODEGEN--\":75:78   */\n      dup5\n        /* \"--CODEGEN--\":71:82   */\n      add\n        /* \"--CODEGEN--\":64:103   */\n      mstore\n        /* \"--CODEGEN--\":52:54   */\n      0x20\n        /* \"--CODEGEN--\":49:50   */\n      dup2\n        /* \"--CODEGEN--\":45:55   */\n      add\n        /* \"--CODEGEN--\":40:55   */\n      swap1\n      pop\n        /* \"--CODEGEN--\":8:108   */\n      jump(tag_15)\n    tag_17:\n        /* \"--CODEGEN--\":12:26   */\n      pop\n        /* \"contracts/demo1.sol\":315:445  function getData(uint length, uint offset) public view returns(bytes memory){\r... */\n      pop\n      pop\n      pop\n      swap1\n      pop\n      swap1\n      dup2\n      add\n      swap1\n      0x1f\n      and\n      dup1\n      iszero\n      tag_18\n      jumpi\n      dup1\n      dup3\n      sub\n      dup1\n      mload\n      0x01\n      dup4\n      0x20\n      sub\n      0x0100\n      exp\n      sub\n      not\n      and\n      dup2\n      mstore\n      0x20\n      add\n      swap2\n      pop\n    tag_18:\n      pop\n      swap3\n      pop\n      pop\n      pop\n      mload(0x40)\n      dup1\n      swap2\n      sub\n      swap1\n      return\n        /* \"contracts/demo1.sol\":177:207  bytes public bytesDemo1 = \"12\" */\n    tag_5:\n      tag_19\n      tag_20\n      jump\t// in\n    tag_19:\n      mload(0x40)\n      dup1\n      dup1\n      0x20\n      add\n      dup3\n      dup2\n      sub\n      dup3\n      mstore\n      dup4\n      dup2\n      dup2\n      mload\n      dup2\n      mstore\n      0x20\n      add\n      swap2\n      pop\n      dup1\n      mload\n      swap1\n      0x20\n      add\n      swap1\n      dup1\n      dup4\n      dup4\n        /* \"--CODEGEN--\":23:24   */\n      0x00\n        /* \"--CODEGEN--\":8:108   */\n    tag_21:\n        /* \"--CODEGEN--\":33:36   */\n      dup4\n        /* \"--CODEGEN--\":30:31   */\n      dup2\n        /* \"--CODEGEN--\":27:37   */\n      lt\n        /* \"--CODEGEN--\":8:108   */\n      iszero\n      tag_23\n      jumpi\n        /* \"--CODEGEN--\":99:100   */\n      dup1\n        /* \"--CODEGEN--\":94:97   */\n      dup3\n        /* \"--CODEGEN--\":90:101   */\n      add\n        /* \"--CODEGEN--\":84:102   */\n      mload\n        /* \"--CODEGEN--\":80:81   */\n      dup2\n        /* \"--CODEGEN--\":75:78   */\n      dup5\n        /* \"--CODEGEN--\":71:82   */\n      add\n        /* \"--CODEGEN--\":64:103   */\n      mstore\n        /* \"--CODEGEN--\":52:54   */\n      0x20\n        /* \"--CODEGEN--\":49:50   */\n      dup2\n        /* \"--CODEGEN--\":45:55   */\n      add\n        /* \"--CODEGEN--\":40:55   */\n      swap1\n      pop\n        /* \"--CODEGEN--\":8:108   */\n      jump(tag_21)\n    tag_23:\n        /* \"--CODEGEN--\":12:26   */\n      pop\n        /* \"contracts/demo1.sol\":177:207  bytes public bytesDemo1 = \"12\" */\n      pop\n      pop\n      pop\n      swap1\n      pop\n      swap1\n      dup2\n      add\n      swap1\n      0x1f\n      and\n      dup1\n      iszero\n      tag_24\n      jumpi\n      dup1\n      dup3\n      sub\n      dup1\n      mload\n      0x01\n      dup4\n      0x20\n      sub\n      0x0100\n      exp\n      sub\n      not\n      and\n      dup2\n      mstore\n      0x20\n      add\n      swap2\n      pop\n    tag_24:\n      pop\n      swap3\n      pop\n      pop\n      pop\n      mload(0x40)\n      dup1\n      swap2\n      sub\n      swap1\n      return\n        /* \"contracts/demo1.sol\":216:306  bytes public bytesDemo2 = \"dfdfdfdfAHGHGDSHDBGHSDSISGBOQBUIHKJBUISCHsdfdsfSSSSSSDSDSDSDSD\" */\n    tag_7:\n      0x01\n      dup1\n      sload\n      0x01\n      dup2\n      0x01\n      and\n      iszero\n      0x0100\n      mul\n      sub\n      and\n      0x02\n      swap1\n      div\n      dup1\n      0x1f\n      add\n      0x20\n      dup1\n      swap2\n      div\n      mul\n      0x20\n      add\n      mload(0x40)\n      swap1\n      dup2\n      add\n      0x40\n      mstore\n      dup1\n      swap3\n      swap2\n      swap1\n      dup2\n      dup2\n      mstore\n      0x20\n      add\n      dup3\n      dup1\n      sload\n      0x01\n      dup2\n      0x01\n      and\n      iszero\n      0x0100\n      mul\n      sub\n      and\n      0x02\n      swap1\n      div\n      dup1\n      iszero\n      tag_25\n      jumpi\n      dup1\n      0x1f\n      lt\n      tag_26\n      jumpi\n      0x0100\n      dup1\n      dup4\n      sload\n      div\n      mul\n      dup4\n      mstore\n      swap2\n      0x20\n      add\n      swap2\n      jump(tag_25)\n    tag_26:\n      dup3\n      add\n      swap2\n      swap1\n      0x00\n      mstore\n      keccak256(0x00, 0x20)\n      swap1\n    tag_27:\n      dup2\n      sload\n      dup2\n      mstore\n      swap1\n      0x01\n      add\n      swap1\n      0x20\n      add\n      dup1\n      dup4\n      gt\n      tag_27\n      jumpi\n      dup3\n      swap1\n      sub\n      0x1f\n      and\n      dup3\n      add\n      swap2\n    tag_25:\n      pop\n      pop\n      pop\n      pop\n      pop\n      dup2\n      jump\t// out\n        /* \"contracts/demo1.sol\":315:445  function getData(uint length, uint offset) public view returns(bytes memory){\r... */\n    tag_14:\n        /* \"contracts/demo1.sol\":378:390  bytes memory */\n      0x60\n        /* \"contracts/demo1.sol\":409:437  encodeLength(length, offset) */\n      tag_29\n        /* \"contracts/demo1.sol\":422:428  length */\n      dup4\n        /* \"contracts/demo1.sol\":430:436  offset */\n      dup4\n        /* \"contracts/demo1.sol\":409:421  encodeLength */\n      tag_30\n        /* \"contracts/demo1.sol\":409:437  encodeLength(length, offset) */\n      jump\t// in\n    tag_29:\n        /* \"contracts/demo1.sol\":402:437  return encodeLength(length, offset) */\n      swap1\n      pop\n        /* \"contracts/demo1.sol\":315:445  function getData(uint length, uint offset) public view returns(bytes memory){\r... */\n      swap3\n      swap2\n      pop\n      pop\n      jump\t// out\n        /* \"contracts/demo1.sol\":177:207  bytes public bytesDemo1 = \"12\" */\n    tag_20:\n      0x00\n      dup1\n      sload\n      0x01\n      dup2\n      0x01\n      and\n      iszero\n      0x0100\n      mul\n      sub\n      and\n      0x02\n      swap1\n      div\n      dup1\n      0x1f\n      add\n      0x20\n      dup1\n      swap2\n      div\n      mul\n      0x20\n      add\n      mload(0x40)\n      swap1\n      dup2\n      add\n      0x40\n      mstore\n      dup1\n      swap3\n      swap2\n      swap1\n      dup2\n      dup2\n      mstore\n      0x20\n      add\n      dup3\n      dup1\n      sload\n      0x01\n      dup2\n      0x01\n      and\n      iszero\n      0x0100\n      mul\n      sub\n      and\n      0x02\n      swap1\n      div\n      dup1\n      iszero\n      tag_31\n      jumpi\n      dup1\n      0x1f\n      lt\n      tag_32\n      jumpi\n      0x0100\n      dup1\n      dup4\n      sload\n      div\n      mul\n      dup4\n      mstore\n      swap2\n      0x20\n      add\n      swap2\n      jump(tag_31)\n    tag_32:\n      dup3\n      add\n      swap2\n      swap1\n      0x00\n      mstore\n      keccak256(0x00, 0x20)\n      swap1\n    tag_33:\n      dup2\n      sload\n      dup2\n      mstore\n      swap1\n      0x01\n      add\n      swap1\n      0x20\n      add\n      dup1\n      dup4\n      gt\n      tag_33\n      jumpi\n      dup3\n      swap1\n      sub\n      0x1f\n      and\n      dup3\n      add\n      swap2\n    tag_31:\n      pop\n      pop\n      pop\n      pop\n      pop\n      dup2\n      jump\t// out\n        /* \"contracts/demo1.sol\":453:891  function encodeLength(uint length, uint offset) internal pure returns (bytes memory) {\r... */\n    tag_30:\n        /* \"contracts/demo1.sol\":524:536  bytes memory */\n      0x60\n        /* \"contracts/demo1.sol\":566:572  256**8 */\n      0x010000000000000000\n        /* \"contracts/demo1.sol\":557:563  length */\n      dup4\n        /* \"contracts/demo1.sol\":557:572  length < 256**8 */\n      lt\n        /* \"contracts/demo1.sol\":549:591  require(length < 256**8, \"input too long\") */\n      tag_35\n      jumpi\n      mload(0x40)\n      0x08c379a000000000000000000000000000000000000000000000000000000000\n      dup2\n      mstore\n      0x04\n      add\n      dup1\n      dup1\n      0x20\n      add\n      dup3\n      dup2\n      sub\n      dup3\n      mstore\n      0x0e\n      dup2\n      mstore\n      0x20\n      add\n      dup1\n      0x696e70757420746f6f206c6f6e67000000000000000000000000000000000000\n      dup2\n      mstore\n      pop\n      0x20\n      add\n      swap2\n      pop\n      pop\n      mload(0x40)\n      dup1\n      swap2\n      sub\n      swap1\n      revert\n    tag_35:\n        /* \"contracts/demo1.sol\":602:617  bytes memory rs */\n      0x60\n        /* \"contracts/demo1.sol\":630:631  1 */\n      0x01\n        /* \"contracts/demo1.sol\":620:632  new bytes(1) */\n      mload(0x40)\n      swap1\n      dup1\n      dup3\n      mstore\n      dup1\n      0x1f\n      add\n      not(0x1f)\n      and\n      0x20\n      add\n      dup3\n      add\n      0x40\n      mstore\n      dup1\n      iszero\n      tag_36\n      jumpi\n      dup2\n      0x20\n      add\n        /* \"--CODEGEN--\":29:30   */\n      0x01\n        /* \"--CODEGEN--\":21:27   */\n      dup3\n        /* \"--CODEGEN--\":17:31   */\n      mul\n        /* \"--CODEGEN--\":116:120   */\n      dup1\n        /* \"--CODEGEN--\":104:114   */\n      codesize\n        /* \"--CODEGEN--\":96:102   */\n      dup4\n        /* \"--CODEGEN--\":87:121   */\n      codecopy\n        /* \"--CODEGEN--\":147:151   */\n      dup1\n        /* \"--CODEGEN--\":139:145   */\n      dup3\n        /* \"--CODEGEN--\":135:152   */\n      add\n        /* \"--CODEGEN--\":125:152   */\n      swap2\n      pop\n        /* \"--CODEGEN--\":0:156   */\n      pop\n        /* \"contracts/demo1.sol\":620:632  new bytes(1) */\n      swap1\n      pop\n    tag_36:\n      pop\n        /* \"contracts/demo1.sol\":602:632  bytes memory rs = new bytes(1) */\n      swap1\n      pop\n        /* \"contracts/demo1.sol\":657:659  55 */\n      0x37\n        /* \"contracts/demo1.sol\":647:653  length */\n      dup5\n        /* \"contracts/demo1.sol\":647:659  length <= 55 */\n      gt\n        /* \"contracts/demo1.sol\":643:748  if (length <= 55) {\r... */\n      tag_37\n      jumpi\n        /* \"contracts/demo1.sol\":704:710  offset */\n      dup3\n        /* \"contracts/demo1.sol\":695:701  length */\n      dup5\n        /* \"contracts/demo1.sol\":695:710  length + offset */\n      add\n        /* \"contracts/demo1.sol\":684:712  byte(uint8(length + offset)) */\n      0xf8\n      shl\n        /* \"contracts/demo1.sol\":676:678  rs */\n      dup2\n        /* \"contracts/demo1.sol\":679:680  0 */\n      0x00\n        /* \"contracts/demo1.sol\":676:681  rs[0] */\n      dup2\n      mload\n      dup2\n      lt\n      tag_38\n      jumpi\n      invalid\n    tag_38:\n      0x20\n      add\n      add\n        /* \"contracts/demo1.sol\":676:712  rs[0] = byte(uint8(length + offset)) */\n      swap1\n      not(0xffffffffffffffffffffffffffffffffffffffffffffffffffffffffffffff)\n      and\n      swap1\n      dup2\n      0x00\n      byte\n      swap1\n      mstore8\n      pop\n        /* \"contracts/demo1.sol\":734:736  rs */\n      dup1\n        /* \"contracts/demo1.sol\":727:736  return rs */\n      swap2\n      pop\n      pop\n      jump(tag_34)\n        /* \"contracts/demo1.sol\":643:748  if (length <= 55) {\r... */\n    tag_37:\n        /* \"contracts/demo1.sol\":758:773  bytes memory bl */\n      0x60\n        /* \"contracts/demo1.sol\":776:792  toBinary(length) */\n      tag_39\n        /* \"contracts/demo1.sol\":785:791  length */\n      dup6\n        /* \"contracts/demo1.sol\":776:784  toBinary */\n      tag_40\n        /* \"contracts/demo1.sol\":776:792  toBinary(length) */\n      jump\t// in\n    tag_39:\n        /* \"contracts/demo1.sol\":758:792  bytes memory bl = toBinary(length) */\n      swap1\n      pop\n        /* \"contracts/demo1.sol\":843:845  55 */\n      0x37\n        /* \"contracts/demo1.sol\":834:840  offset */\n      dup5\n        /* \"contracts/demo1.sol\":822:824  bl */\n      dup3\n        /* \"contracts/demo1.sol\":822:831  bl.length */\n      mload\n        /* \"contracts/demo1.sol\":822:840  bl.length + offset */\n      add\n        /* \"contracts/demo1.sol\":822:845  bl.length + offset + 55 */\n      add\n        /* \"contracts/demo1.sol\":811:847  byte(uint8(bl.length + offset + 55)) */\n      0xf8\n      shl\n        /* \"contracts/demo1.sol\":803:805  rs */\n      dup3\n        /* \"contracts/demo1.sol\":806:807  0 */\n      0x00\n        /* \"contracts/demo1.sol\":803:808  rs[0] */\n      dup2\n      mload\n      dup2\n      lt\n      tag_41\n      jumpi\n      invalid\n    tag_41:\n      0x20\n      add\n      add\n        /* \"contracts/demo1.sol\":803:847  rs[0] = byte(uint8(bl.length + offset + 55)) */\n      swap1\n      not(0xffffffffffffffffffffffffffffffffffffffffffffffffffffffffffffff)\n      and\n      swap1\n      dup2\n      0x00\n      byte\n      swap1\n      mstore8\n      pop\n        /* \"contracts/demo1.sol\":865:883  mergeBytes(rs, bl) */\n      tag_42\n        /* \"contracts/demo1.sol\":876:878  rs */\n      dup3\n        /* \"contracts/demo1.sol\":880:882  bl */\n      dup3\n        /* \"contracts/demo1.sol\":865:875  mergeBytes */\n      tag_43\n        /* \"contracts/demo1.sol\":865:883  mergeBytes(rs, bl) */\n      jump\t// in\n    tag_42:\n        /* \"contracts/demo1.sol\":858:883  return mergeBytes(rs, bl) */\n      swap3\n      pop\n      pop\n      pop\n        /* \"contracts/demo1.sol\":453:891  function encodeLength(uint length, uint offset) internal pure returns (bytes memory) {\r... */\n    tag_34:\n      swap3\n      swap2\n      pop\n      pop\n      jump\t// out\n        /* \"contracts/demo1.sol\":899:1690  function toBinary(uint x) internal pure returns (bytes memory) {\r... */\n    tag_40:\n        /* \"contracts/demo1.sol\":948:960  bytes memory */\n      0x60\n        /* \"contracts/demo1.sol\":973:987  bytes memory b */\n      dup1\n        /* \"contracts/demo1.sol\":1000:1002  32 */\n      0x20\n        /* \"contracts/demo1.sol\":990:1003  new bytes(32) */\n      mload(0x40)\n      swap1\n      dup1\n      dup3\n      mstore\n      dup1\n      0x1f\n      add\n      not(0x1f)\n      and\n      0x20\n      add\n      dup3\n      add\n      0x40\n      mstore\n      dup1\n      iszero\n      tag_45\n      jumpi\n      dup2\n      0x20\n      add\n        /* \"--CODEGEN--\":29:30   */\n      0x01\n        /* \"--CODEGEN--\":21:27   */\n      dup3\n        /* \"--CODEGEN--\":17:31   */\n      mul\n        /* \"--CODEGEN--\":116:120   */\n      dup1\n        /* \"--CODEGEN--\":104:114   */\n      codesize\n        /* \"--CODEGEN--\":96:102   */\n      dup4\n        /* \"--CODEGEN--\":87:121   */\n      codecopy\n        /* \"--CODEGEN--\":147:151   */\n      dup1\n        /* \"--CODEGEN--\":139:145   */\n      dup3\n        /* \"--CODEGEN--\":135:152   */\n      add\n        /* \"--CODEGEN--\":125:152   */\n      swap2\n      pop\n        /* \"--CODEGEN--\":0:156   */\n      pop\n        /* \"contracts/demo1.sol\":990:1003  new bytes(32) */\n      swap1\n      pop\n    tag_45:\n      pop\n        /* \"contracts/demo1.sol\":973:1003  bytes memory b = new bytes(32) */\n      swap1\n      pop\n        /* \"contracts/demo1.sol\":1057:1058  x */\n      dup3\n        /* \"contracts/demo1.sol\":1052:1054  32 */\n      0x20\n        /* \"contracts/demo1.sol\":1049:1050  b */\n      dup3\n        /* \"contracts/demo1.sol\":1045:1055  add(b, 32) */\n      add\n        /* \"contracts/demo1.sol\":1038:1059  mstore(add(b, 32), x) */\n      mstore\n        /* \"contracts/demo1.sol\":1083:1089  uint i */\n      0x00\n        /* \"contracts/demo1.sol\":1178:1179  0 */\n      dup1\n        /* \"contracts/demo1.sol\":1108:1174  0xffffffffffffffffffffffffffffffffffffffffffffffff0000000000000000 */\n      0xffffffffffffffffffffffffffffffffffffffffffffffff0000000000000000\n        /* \"contracts/demo1.sol\":1104:1105  x */\n      dup6\n        /* \"contracts/demo1.sol\":1104:1174  x & 0xffffffffffffffffffffffffffffffffffffffffffffffff0000000000000000 */\n      and\n        /* \"contracts/demo1.sol\":1104:1179  x & 0xffffffffffffffffffffffffffffffffffffffffffffffff0000000000000000 == 0 */\n      eq\n        /* \"contracts/demo1.sol\":1100:1372  if (x & 0xffffffffffffffffffffffffffffffffffffffffffffffff0000000000000000 == 0) {\r... */\n      iszero\n      tag_46\n      jumpi\n        /* \"contracts/demo1.sol\":1200:1202  24 */\n      0x18\n        /* \"contracts/demo1.sol\":1196:1202  i = 24 */\n      swap1\n      pop\n        /* \"contracts/demo1.sol\":1100:1372  if (x & 0xffffffffffffffffffffffffffffffffffffffffffffffff0000000000000000 == 0) {\r... */\n      jump(tag_47)\n    tag_46:\n        /* \"contracts/demo1.sol\":1298:1299  0 */\n      0x00\n        /* \"contracts/demo1.sol\":1228:1294  0xffffffffffffffffffffffffffffffff00000000000000000000000000000000 */\n      0xffffffffffffffffffffffffffffffff00000000000000000000000000000000\n        /* \"contracts/demo1.sol\":1224:1225  x */\n      dup6\n        /* \"contracts/demo1.sol\":1224:1294  x & 0xffffffffffffffffffffffffffffffff00000000000000000000000000000000 */\n      and\n        /* \"contracts/demo1.sol\":1224:1299  x & 0xffffffffffffffffffffffffffffffff00000000000000000000000000000000 == 0 */\n      eq\n        /* \"contracts/demo1.sol\":1220:1372  if (x & 0xffffffffffffffffffffffffffffffff00000000000000000000000000000000 == 0) {\r... */\n      iszero\n      tag_48\n      jumpi\n        /* \"contracts/demo1.sol\":1320:1322  16 */\n      0x10\n        /* \"contracts/demo1.sol\":1316:1322  i = 16 */\n      swap1\n      pop\n        /* \"contracts/demo1.sol\":1220:1372  if (x & 0xffffffffffffffffffffffffffffffff00000000000000000000000000000000 == 0) {\r... */\n      jump(tag_49)\n    tag_48:\n        /* \"contracts/demo1.sol\":1359:1360  0 */\n      0x00\n        /* \"contracts/demo1.sol\":1355:1360  i = 0 */\n      swap1\n      pop\n        /* \"contracts/demo1.sol\":1220:1372  if (x & 0xffffffffffffffffffffffffffffffff00000000000000000000000000000000 == 0) {\r... */\n    tag_49:\n        /* \"contracts/demo1.sol\":1100:1372  if (x & 0xffffffffffffffffffffffffffffffffffffffffffffffff0000000000000000 == 0) {\r... */\n    tag_47:\n        /* \"contracts/demo1.sol\":1382:1483  for (; i < 32; i++) {\r... */\n    tag_50:\n        /* \"contracts/demo1.sol\":1393:1395  32 */\n      0x20\n        /* \"contracts/demo1.sol\":1389:1390  i */\n      dup2\n        /* \"contracts/demo1.sol\":1389:1395  i < 32 */\n      lt\n        /* \"contracts/demo1.sol\":1382:1483  for (; i < 32; i++) {\r... */\n      iszero\n      tag_51\n      jumpi\n        /* \"contracts/demo1.sol\":1429:1430  0 */\n      0x00\n        /* \"contracts/demo1.sol\":1421:1430  b[i] != 0 */\n      0xf8\n      shl\n        /* \"contracts/demo1.sol\":1421:1422  b */\n      dup3\n        /* \"contracts/demo1.sol\":1423:1424  i */\n      dup3\n        /* \"contracts/demo1.sol\":1421:1425  b[i] */\n      dup2\n      mload\n      dup2\n      lt\n      tag_53\n      jumpi\n      invalid\n    tag_53:\n      0x20\n      add\n      add\n      mload\n      0xf8\n      shr\n      0xf8\n      shl\n        /* \"contracts/demo1.sol\":1421:1430  b[i] != 0 */\n      not(0xffffffffffffffffffffffffffffffffffffffffffffffffffffffffffffff)\n      and\n      eq\n        /* \"contracts/demo1.sol\":1417:1472  if (b[i] != 0) {\r... */\n      tag_54\n      jumpi\n        /* \"contracts/demo1.sol\":1451:1456  break */\n      jump(tag_51)\n        /* \"contracts/demo1.sol\":1417:1472  if (b[i] != 0) {\r... */\n    tag_54:\n        /* \"contracts/demo1.sol\":1397:1400  i++ */\n      dup1\n      dup1\n      0x01\n      add\n      swap2\n      pop\n      pop\n        /* \"contracts/demo1.sol\":1382:1483  for (; i < 32; i++) {\r... */\n      jump(tag_50)\n    tag_51:\n        /* \"contracts/demo1.sol\":1493:1504  uint length */\n      0x00\n        /* \"contracts/demo1.sol\":1512:1513  i */\n      dup2\n        /* \"contracts/demo1.sol\":1507:1509  32 */\n      0x20\n        /* \"contracts/demo1.sol\":1507:1513  32 - i */\n      sub\n        /* \"contracts/demo1.sol\":1493:1513  uint length = 32 - i */\n      swap1\n      pop\n        /* \"contracts/demo1.sol\":1524:1539  bytes memory rs */\n      0x60\n        /* \"contracts/demo1.sol\":1552:1558  length */\n      dup2\n        /* \"contracts/demo1.sol\":1542:1559  new bytes(length) */\n      mload(0x40)\n      swap1\n      dup1\n      dup3\n      mstore\n      dup1\n      0x1f\n      add\n      not(0x1f)\n      and\n      0x20\n      add\n      dup3\n      add\n      0x40\n      mstore\n      dup1\n      iszero\n      tag_55\n      jumpi\n      dup2\n      0x20\n      add\n        /* \"--CODEGEN--\":29:30   */\n      0x01\n        /* \"--CODEGEN--\":21:27   */\n      dup3\n        /* \"--CODEGEN--\":17:31   */\n      mul\n        /* \"--CODEGEN--\":116:120   */\n      dup1\n        /* \"--CODEGEN--\":104:114   */\n      codesize\n        /* \"--CODEGEN--\":96:102   */\n      dup4\n        /* \"--CODEGEN--\":87:121   */\n      codecopy\n        /* \"--CODEGEN--\":147:151   */\n      dup1\n        /* \"--CODEGEN--\":139:145   */\n      dup3\n        /* \"--CODEGEN--\":135:152   */\n      add\n        /* \"--CODEGEN--\":125:152   */\n      swap2\n      pop\n        /* \"--CODEGEN--\":0:156   */\n      pop\n        /* \"contracts/demo1.sol\":1542:1559  new bytes(length) */\n      swap1\n      pop\n    tag_55:\n      pop\n        /* \"contracts/demo1.sol\":1524:1559  bytes memory rs = new bytes(length) */\n      swap1\n      pop\n        /* \"contracts/demo1.sol\":1618:1619  x */\n      dup6\n        /* \"contracts/demo1.sol\":1609:1615  length */\n      dup3\n        /* \"contracts/demo1.sol\":1605:1607  rs */\n      dup3\n        /* \"contracts/demo1.sol\":1601:1616  add(rs, length) */\n      add\n        /* \"contracts/demo1.sol\":1594:1620  mstore(add(rs, length), x) */\n      mstore\n        /* \"contracts/demo1.sol\":1645:1651  length */\n      dup2\n        /* \"contracts/demo1.sol\":1641:1643  rs */\n      dup2\n        /* \"contracts/demo1.sol\":1634:1652  mstore(rs, length) */\n      mstore\n        /* \"contracts/demo1.sol\":1680:1682  rs */\n      dup1\n        /* \"contracts/demo1.sol\":1673:1682  return rs */\n      swap5\n      pop\n      pop\n      pop\n      pop\n      pop\n        /* \"contracts/demo1.sol\":899:1690  function toBinary(uint x) internal pure returns (bytes memory) {\r... */\n      swap2\n      swap1\n      pop\n      jump\t// out\n        /* \"contracts/demo1.sol\":1698:4611  function mergeBytes(bytes memory _preBytes, bytes memory _postBytes) internal pure returns (bytes memory) {\r... */\n    tag_43:\n        /* \"contracts/demo1.sol\":1790:1802  bytes memory */\n      0x60\n        /* \"contracts/demo1.sol\":1815:1837  bytes memory tempBytes */\n      dup1\n        /* \"contracts/demo1.sol\":2015:2019  0x40 */\n      0x40\n        /* \"contracts/demo1.sol\":2009:2020  mload(0x40) */\n      mload\n        /* \"contracts/demo1.sol\":1996:2020  tempBytes := mload(0x40) */\n      swap1\n      pop\n        /* \"contracts/demo1.sol\":2168:2177  _preBytes */\n      dup4\n        /* \"contracts/demo1.sol\":2162:2178  mload(_preBytes) */\n      mload\n        /* \"contracts/demo1.sol\":2210:2216  length */\n      dup1\n        /* \"contracts/demo1.sol\":2199:2208  tempBytes */\n      dup3\n        /* \"contracts/demo1.sol\":2192:2217  mstore(tempBytes, length) */\n      mstore\n        /* \"contracts/demo1.sol\":2445:2449  0x20 */\n      0x20\n        /* \"contracts/demo1.sol\":2434:2443  tempBytes */\n      dup3\n        /* \"contracts/demo1.sol\":2430:2450  add(tempBytes, 0x20) */\n      add\n        /* \"contracts/demo1.sol\":2589:2595  length */\n      dup2\n        /* \"contracts/demo1.sol\":2585:2587  mc */\n      dup2\n        /* \"contracts/demo1.sol\":2581:2596  add(mc, length) */\n      add\n        /* \"contracts/demo1.sol\":2780:2784  0x20 */\n      0x20\n        /* \"contracts/demo1.sol\":2769:2778  _preBytes */\n      dup8\n        /* \"contracts/demo1.sol\":2765:2785  add(_preBytes, 0x20) */\n      add\n        /* \"contracts/demo1.sol\":2612:3129  for {\r... */\n    tag_57:\n        /* \"contracts/demo1.sol\":2808:2811  end */\n      dup2\n        /* \"contracts/demo1.sol\":2804:2806  mc */\n      dup4\n        /* \"contracts/demo1.sol\":2801:2812  lt(mc, end) */\n      lt\n        /* \"contracts/demo1.sol\":2612:3129  for {\r... */\n      iszero\n      tag_59\n      jumpi\n        /* \"contracts/demo1.sol\":3110:3112  cc */\n      dup1\n        /* \"contracts/demo1.sol\":3104:3113  mload(cc) */\n      mload\n        /* \"contracts/demo1.sol\":3100:3102  mc */\n      dup4\n        /* \"contracts/demo1.sol\":3093:3114  mstore(mc, mload(cc)) */\n      mstore\n        /* \"contracts/demo1.sol\":2913:2917  0x20 */\n      0x20\n        /* \"contracts/demo1.sol\":2909:2911  mc */\n      dup4\n        /* \"contracts/demo1.sol\":2905:2918  add(mc, 0x20) */\n      add\n        /* \"contracts/demo1.sol\":2899:2918  mc := add(mc, 0x20) */\n      swap3\n      pop\n        /* \"contracts/demo1.sol\":2950:2954  0x20 */\n      0x20\n        /* \"contracts/demo1.sol\":2946:2948  cc */\n      dup2\n        /* \"contracts/demo1.sol\":2942:2955  add(cc, 0x20) */\n      add\n        /* \"contracts/demo1.sol\":2936:2955  cc := add(cc, 0x20) */\n      swap1\n      pop\n        /* \"contracts/demo1.sol\":2612:3129  for {\r... */\n      jump(tag_57)\n    tag_59:\n        /* \"contracts/demo1.sol\":2616:2800  {\r... */\n      pop\n        /* \"contracts/demo1.sol\":3384:3394  _postBytes */\n      dup6\n        /* \"contracts/demo1.sol\":3378:3395  mload(_postBytes) */\n      mload\n        /* \"contracts/demo1.sol\":3368:3395  length := mload(_postBytes) */\n      swap3\n      pop\n        /* \"contracts/demo1.sol\":3445:3454  tempBytes */\n      dup4\n        /* \"contracts/demo1.sol\":3439:3455  mload(tempBytes) */\n      mload\n        /* \"contracts/demo1.sol\":3431:3437  length */\n      dup4\n        /* \"contracts/demo1.sol\":3427:3456  add(length, mload(tempBytes)) */\n      add\n        /* \"contracts/demo1.sol\":3416:3425  tempBytes */\n      dup5\n        /* \"contracts/demo1.sol\":3409:3457  mstore(tempBytes, add(length, mload(tempBytes))) */\n      mstore\n        /* \"contracts/demo1.sol\":3597:3600  end */\n      dup1\n        /* \"contracts/demo1.sol\":3591:3600  mc := end */\n      swap2\n      pop\n        /* \"contracts/demo1.sol\":3737:3743  length */\n      dup3\n        /* \"contracts/demo1.sol\":3733:3735  mc */\n      dup3\n        /* \"contracts/demo1.sol\":3729:3744  add(mc, length) */\n      add\n        /* \"contracts/demo1.sol\":3722:3744  end := add(mc, length) */\n      swap1\n      pop\n        /* \"contracts/demo1.sol\":3809:3813  0x20 */\n      0x20\n        /* \"contracts/demo1.sol\":3797:3807  _postBytes */\n      dup7\n        /* \"contracts/demo1.sol\":3793:3814  add(_postBytes, 0x20) */\n      add\n        /* \"contracts/demo1.sol\":3760:3988  for {\r... */\n    tag_60:\n        /* \"contracts/demo1.sol\":3837:3840  end */\n      dup2\n        /* \"contracts/demo1.sol\":3833:3835  mc */\n      dup4\n        /* \"contracts/demo1.sol\":3830:3841  lt(mc, end) */\n      lt\n        /* \"contracts/demo1.sol\":3760:3988  for {\r... */\n      iszero\n      tag_62\n      jumpi\n        /* \"contracts/demo1.sol\":3969:3971  cc */\n      dup1\n        /* \"contracts/demo1.sol\":3963:3972  mload(cc) */\n      mload\n        /* \"contracts/demo1.sol\":3959:3961  mc */\n      dup4\n        /* \"contracts/demo1.sol\":3952:3973  mstore(mc, mload(cc)) */\n      mstore\n        /* \"contracts/demo1.sol\":3875:3879  0x20 */\n      0x20\n        /* \"contracts/demo1.sol\":3871:3873  mc */\n      dup4\n        /* \"contracts/demo1.sol\":3867:3880  add(mc, 0x20) */\n      add\n        /* \"contracts/demo1.sol\":3861:3880  mc := add(mc, 0x20) */\n      swap3\n      pop\n        /* \"contracts/demo1.sol\":3912:3916  0x20 */\n      0x20\n        /* \"contracts/demo1.sol\":3908:3910  cc */\n      dup2\n        /* \"contracts/demo1.sol\":3904:3917  add(cc, 0x20) */\n      add\n        /* \"contracts/demo1.sol\":3898:3917  cc := add(cc, 0x20) */\n      swap1\n      pop\n        /* \"contracts/demo1.sol\":3760:3988  for {\r... */\n      jump(tag_60)\n    tag_62:\n        /* \"contracts/demo1.sol\":3764:3829  {\r... */\n      pop\n        /* \"contracts/demo1.sol\":4506:4508  31 */\n      0x1f\n        /* \"contracts/demo1.sol\":4502:4509  not(31) */\n      not\n        /* \"contracts/demo1.sol\":4484:4486  31 */\n      0x1f\n        /* \"contracts/demo1.sol\":4469:4478  _preBytes */\n      dup9\n        /* \"contracts/demo1.sol\":4463:4479  mload(_preBytes) */\n      mload\n        /* \"contracts/demo1.sol\":4455:4461  length */\n      dup6\n        /* \"contracts/demo1.sol\":4451:4480  add(length, mload(_preBytes)) */\n      add\n        /* \"contracts/demo1.sol\":4444:4481  iszero(add(length, mload(_preBytes))) */\n      iszero\n        /* \"contracts/demo1.sol\":4439:4442  end */\n      dup4\n        /* \"contracts/demo1.sol\":4435:4482  add(end, iszero(add(length, mload(_preBytes)))) */\n      add\n        /* \"contracts/demo1.sol\":4431:4487  add(add(end, iszero(add(length, mload(_preBytes)))), 31) */\n      add\n        /* \"contracts/demo1.sol\":4413:4563  and(\r... */\n      and\n        /* \"contracts/demo1.sol\":4407:4411  0x40 */\n      0x40\n        /* \"contracts/demo1.sol\":4400:4564  mstore(0x40, and(\r... */\n      mstore\n        /* \"contracts/demo1.sol\":1857:4575  {\r... */\n      pop\n      pop\n      pop\n        /* \"contracts/demo1.sol\":4594:4603  tempBytes */\n      dup1\n        /* \"contracts/demo1.sol\":4587:4603  return tempBytes */\n      swap2\n      pop\n      pop\n        /* \"contracts/demo1.sol\":1698:4611  function mergeBytes(bytes memory _preBytes, bytes memory _postBytes) internal pure returns (bytes memory) {\r... */\n      swap3\n      swap2\n      pop\n      pop\n      jump\t// out\n\n    auxdata: 0xa265627a7a7231582028c2c5b51df60d42b774e16c7296ff9957d3005bb7d6444707f9d1085a44434564736f6c63430005100032\n}\n",
				"bytecode": {
					"linkReferences": {},
					"object": "60806040526040518060400160405280600281526020017f31320000000000000000000000000000000000000000000000000000000000008152506000908051906020019061004f929190610091565b506040518060600160405280603e8152602001610827603e91396001908051906020019061007e929190610091565b5034801561008b57600080fd5b50610136565b828054600181600116156101000203166002900490600052602060002090601f016020900481019282601f106100d257805160ff1916838001178555610100565b82800160010185558215610100579182015b828111156100ff5782518255916020019190600101906100e4565b5b50905061010d9190610111565b5090565b61013391905b8082111561012f576000816000905550600101610117565b5090565b90565b6106e2806101456000396000f3fe608060405234801561001057600080fd5b50600436106100415760003560e01c80633aeee938146100465780634e4fe306146100c9578063ea55583e1461017a575b600080fd5b61004e6101fd565b6040518080602001828103825283818151815260200191508051906020019080838360005b8381101561008e578082015181840152602081019050610073565b50505050905090810190601f1680156100bb5780820380516001836020036101000a031916815260200191505b509250505060405180910390f35b6100ff600480360360408110156100df57600080fd5b81019080803590602001909291908035906020019092919050505061029b565b6040518080602001828103825283818151815260200191508051906020019080838360005b8381101561013f578082015181840152602081019050610124565b50505050905090810190601f16801561016c5780820380516001836020036101000a031916815260200191505b509250505060405180910390f35b6101826102af565b6040518080602001828103825283818151815260200191508051906020019080838360005b838110156101c25780820151818401526020810190506101a7565b50505050905090810190601f1680156101ef5780820380516001836020036101000a031916815260200191505b509250505060405180910390f35b60018054600181600116156101000203166002900480601f0160208091040260200160405190810160405280929190818152602001828054600181600116156101000203166002900480156102935780601f1061026857610100808354040283529160200191610293565b820191906000526020600020905b81548152906001019060200180831161027657829003601f168201915b505050505081565b60606102a7838361034d565b905092915050565b60008054600181600116156101000203166002900480601f0160208091040260200160405190810160405280929190818152602001828054600181600116156101000203166002900480156103455780601f1061031a57610100808354040283529160200191610345565b820191906000526020600020905b81548152906001019060200180831161032857829003601f168201915b505050505081565b60606801000000000000000083106103cd576040517f08c379a000000000000000000000000000000000000000000000000000000000815260040180806020018281038252600e8152602001807f696e70757420746f6f206c6f6e6700000000000000000000000000000000000081525060200191505060405180910390fd5b606060016040519080825280601f01601f1916602001820160405280156104035781602001600182028038833980820191505090505b509050603784116104595782840160f81b8160008151811061042157fe5b60200101907effffffffffffffffffffffffffffffffffffffffffffffffffffffffffffff1916908160001a905350809150506104bb565b6060610464856104c1565b90506037848251010160f81b8260008151811061047d57fe5b60200101907effffffffffffffffffffffffffffffffffffffffffffffffffffffffffffff1916908160001a9053506104b68282610623565b925050505b92915050565b60608060206040519080825280601f01601f1916602001820160405280156104f85781602001600182028038833980820191505090505b5090508260208201526000807fffffffffffffffffffffffffffffffffffffffffffffffff0000000000000000851614156105365760189050610570565b60007fffffffffffffffffffffffffffffffff000000000000000000000000000000008516141561056a576010905061056f565b600090505b5b5b60208110156105cf57600060f81b82828151811061058b57fe5b602001015160f81c60f81b7effffffffffffffffffffffffffffffffffffffffffffffffffffffffffffff1916146105c2576105cf565b8080600101915050610571565b60008160200390506060816040519080825280601f01601f19166020018201604052801561060c5781602001600182028038833980820191505090505b509050858282015281815280945050505050919050565b6060806040519050835180825260208201818101602087015b81831015610659578051835260208301925060208101905061063c565b50855192508351830184528091508282019050602086015b8183101561068e5780518352602083019250602081019050610671565b50601f19601f885185011583010116604052505050809150509291505056fea265627a7a7231582028c2c5b51df60d42b774e16c7296ff9957d3005bb7d6444707f9d1085a44434564736f6c634300051000326466646664666466414847484744534844424748534453495347424f51425549484b4a425549534348736466647366535353535353445344534453445344",
					"opcodes": "PUSH1 0x80 PUSH1 0x40 MSTORE PUSH1 0x40 MLOAD DUP1 PUSH1 0x40 ADD PUSH1 0x40 MSTORE DUP1 PUSH1 0x2 DUP2 MSTORE PUSH1 0x20 ADD PUSH32 0x3132000000000000000000000000000000000000000000000000000000000000 DUP2 MSTORE POP PUSH1 0x0 SWAP1 DUP1 MLOAD SWAP1 PUSH1 0x20 ADD SWAP1 PUSH2 0x4F SWAP3 SWAP2 SWAP1 PUSH2 0x91 JUMP JUMPDEST POP PUSH1 0x40 MLOAD DUP1 PUSH1 0x60 ADD PUSH1 0x40 MSTORE DUP1 PUSH1 0x3E DUP2 MSTORE PUSH1 0x20 ADD PUSH2 0x827 PUSH1 0x3E SWAP2 CODECOPY PUSH1 0x1 SWAP1 DUP1 MLOAD SWAP1 PUSH1 0x20 ADD SWAP1 PUSH2 0x7E SWAP3 SWAP2 SWAP1 PUSH2 0x91 JUMP JUMPDEST POP CALLVALUE DUP1 ISZERO PUSH2 0x8B JUMPI PUSH1 0x0 DUP1 REVERT JUMPDEST POP PUSH2 0x136 JUMP JUMPDEST DUP3 DUP1 SLOAD PUSH1 0x1 DUP2 PUSH1 0x1 AND ISZERO PUSH2 0x100 MUL SUB AND PUSH1 0x2 SWAP1 DIV SWAP1 PUSH1 0x0 MSTORE PUSH1 0x20 PUSH1 0x0 KECCAK256 SWAP1 PUSH1 0x1F ADD PUSH1 0x20 SWAP1 DIV DUP2 ADD SWAP3 DUP3 PUSH1 0x1F LT PUSH2 0xD2 JUMPI DUP1 MLOAD PUSH1 0xFF NOT AND DUP4 DUP1 ADD OR DUP6 SSTORE PUSH2 0x100 JUMP JUMPDEST DUP3 DUP1 ADD PUSH1 0x1 ADD DUP6 SSTORE DUP3 ISZERO PUSH2 0x100 JUMPI SWAP2 DUP3 ADD JUMPDEST DUP3 DUP2 GT ISZERO PUSH2 0xFF JUMPI DUP3 MLOAD DUP3 SSTORE SWAP2 PUSH1 0x20 ADD SWAP2 SWAP1 PUSH1 0x1 ADD SWAP1 PUSH2 0xE4 JUMP JUMPDEST JUMPDEST POP SWAP1 POP PUSH2 0x10D SWAP2 SWAP1 PUSH2 0x111 JUMP JUMPDEST POP SWAP1 JUMP JUMPDEST PUSH2 0x133 SWAP2 SWAP1 JUMPDEST DUP1 DUP3 GT ISZERO PUSH2 0x12F JUMPI PUSH1 0x0 DUP2 PUSH1 0x0 SWAP1 SSTORE POP PUSH1 0x1 ADD PUSH2 0x117 JUMP JUMPDEST POP SWAP1 JUMP JUMPDEST SWAP1 JUMP JUMPDEST PUSH2 0x6E2 DUP1 PUSH2 0x145 PUSH1 0x0 CODECOPY PUSH1 0x0 RETURN INVALID PUSH1 0x80 PUSH1 0x40 MSTORE CALLVALUE DUP1 ISZERO PUSH2 0x10 JUMPI PUSH1 0x0 DUP1 REVERT JUMPDEST POP PUSH1 0x4 CALLDATASIZE LT PUSH2 0x41 JUMPI PUSH1 0x0 CALLDATALOAD PUSH1 0xE0 SHR DUP1 PUSH4 0x3AEEE938 EQ PUSH2 0x46 JUMPI DUP1 PUSH4 0x4E4FE306 EQ PUSH2 0xC9 JUMPI DUP1 PUSH4 0xEA55583E EQ PUSH2 0x17A JUMPI JUMPDEST PUSH1 0x0 DUP1 REVERT JUMPDEST PUSH2 0x4E PUSH2 0x1FD JUMP JUMPDEST PUSH1 0x40 MLOAD DUP1 DUP1 PUSH1 0x20 ADD DUP3 DUP2 SUB DUP3 MSTORE DUP4 DUP2 DUP2 MLOAD DUP2 MSTORE PUSH1 0x20 ADD SWAP2 POP DUP1 MLOAD SWAP1 PUSH1 0x20 ADD SWAP1 DUP1 DUP4 DUP4 PUSH1 0x0 JUMPDEST DUP4 DUP2 LT ISZERO PUSH2 0x8E JUMPI DUP1 DUP3 ADD MLOAD DUP2 DUP5 ADD MSTORE PUSH1 0x20 DUP2 ADD SWAP1 POP PUSH2 0x73 JUMP JUMPDEST POP POP POP POP SWAP1 POP SWAP1 DUP2 ADD SWAP1 PUSH1 0x1F AND DUP1 ISZERO PUSH2 0xBB JUMPI DUP1 DUP3 SUB DUP1 MLOAD PUSH1 0x1 DUP4 PUSH1 0x20 SUB PUSH2 0x100 EXP SUB NOT AND DUP2 MSTORE PUSH1 0x20 ADD SWAP2 POP JUMPDEST POP SWAP3 POP POP POP PUSH1 0x40 MLOAD DUP1 SWAP2 SUB SWAP1 RETURN JUMPDEST PUSH2 0xFF PUSH1 0x4 DUP1 CALLDATASIZE SUB PUSH1 0x40 DUP2 LT ISZERO PUSH2 0xDF JUMPI PUSH1 0x0 DUP1 REVERT JUMPDEST DUP2 ADD SWAP1 DUP1 DUP1 CALLDATALOAD SWAP1 PUSH1 0x20 ADD SWAP1 SWAP3 SWAP2 SWAP1 DUP1 CALLDATALOAD SWAP1 PUSH1 0x20 ADD SWAP1 SWAP3 SWAP2 SWAP1 POP POP POP PUSH2 0x29B JUMP JUMPDEST PUSH1 0x40 MLOAD DUP1 DUP1 PUSH1 0x20 ADD DUP3 DUP2 SUB DUP3 MSTORE DUP4 DUP2 DUP2 MLOAD DUP2 MSTORE PUSH1 0x20 ADD SWAP2 POP DUP1 MLOAD SWAP1 PUSH1 0x20 ADD SWAP1 DUP1 DUP4 DUP4 PUSH1 0x0 JUMPDEST DUP4 DUP2 LT ISZERO PUSH2 0x13F JUMPI DUP1 DUP3 ADD MLOAD DUP2 DUP5 ADD MSTORE PUSH1 0x20 DUP2 ADD SWAP1 POP PUSH2 0x124 JUMP JUMPDEST POP POP POP POP SWAP1 POP SWAP1 DUP2 ADD SWAP1 PUSH1 0x1F AND DUP1 ISZERO PUSH2 0x16C JUMPI DUP1 DUP3 SUB DUP1 MLOAD PUSH1 0x1 DUP4 PUSH1 0x20 SUB PUSH2 0x100 EXP SUB NOT AND DUP2 MSTORE PUSH1 0x20 ADD SWAP2 POP JUMPDEST POP SWAP3 POP POP POP PUSH1 0x40 MLOAD DUP1 SWAP2 SUB SWAP1 RETURN JUMPDEST PUSH2 0x182 PUSH2 0x2AF JUMP JUMPDEST PUSH1 0x40 MLOAD DUP1 DUP1 PUSH1 0x20 ADD DUP3 DUP2 SUB DUP3 MSTORE DUP4 DUP2 DUP2 MLOAD DUP2 MSTORE PUSH1 0x20 ADD SWAP2 POP DUP1 MLOAD SWAP1 PUSH1 0x20 ADD SWAP1 DUP1 DUP4 DUP4 PUSH1 0x0 JUMPDEST DUP4 DUP2 LT ISZERO PUSH2 0x1C2 JUMPI DUP1 DUP3 ADD MLOAD DUP2 DUP5 ADD MSTORE PUSH1 0x20 DUP2 ADD SWAP1 POP PUSH2 0x1A7 JUMP JUMPDEST POP POP POP POP SWAP1 POP SWAP1 DUP2 ADD SWAP1 PUSH1 0x1F AND DUP1 ISZERO PUSH2 0x1EF JUMPI DUP1 DUP3 SUB DUP1 MLOAD PUSH1 0x1 DUP4 PUSH1 0x20 SUB PUSH2 0x100 EXP SUB NOT AND DUP2 MSTORE PUSH1 0x20 ADD SWAP2 POP JUMPDEST POP SWAP3 POP POP POP PUSH1 0x40 MLOAD DUP1 SWAP2 SUB SWAP1 RETURN JUMPDEST PUSH1 0x1 DUP1 SLOAD PUSH1 0x1 DUP2 PUSH1 0x1 AND ISZERO PUSH2 0x100 MUL SUB AND PUSH1 0x2 SWAP1 DIV DUP1 PUSH1 0x1F ADD PUSH1 0x20 DUP1 SWAP2 DIV MUL PUSH1 0x20 ADD PUSH1 0x40 MLOAD SWAP1 DUP2 ADD PUSH1 0x40 MSTORE DUP1 SWAP3 SWAP2 SWAP1 DUP2 DUP2 MSTORE PUSH1 0x20 ADD DUP3 DUP1 SLOAD PUSH1 0x1 DUP2 PUSH1 0x1 AND ISZERO PUSH2 0x100 MUL SUB AND PUSH1 0x2 SWAP1 DIV DUP1 ISZERO PUSH2 0x293 JUMPI DUP1 PUSH1 0x1F LT PUSH2 0x268 JUMPI PUSH2 0x100 DUP1 DUP4 SLOAD DIV MUL DUP4 MSTORE SWAP2 PUSH1 0x20 ADD SWAP2 PUSH2 0x293 JUMP JUMPDEST DUP3 ADD SWAP2 SWAP1 PUSH1 0x0 MSTORE PUSH1 0x20 PUSH1 0x0 KECCAK256 SWAP1 JUMPDEST DUP2 SLOAD DUP2 MSTORE SWAP1 PUSH1 0x1 ADD SWAP1 PUSH1 0x20 ADD DUP1 DUP4 GT PUSH2 0x276 JUMPI DUP3 SWAP1 SUB PUSH1 0x1F AND DUP3 ADD SWAP2 JUMPDEST POP POP POP POP POP DUP2 JUMP JUMPDEST PUSH1 0x60 PUSH2 0x2A7 DUP4 DUP4 PUSH2 0x34D JUMP JUMPDEST SWAP1 POP SWAP3 SWAP2 POP POP JUMP JUMPDEST PUSH1 0x0 DUP1 SLOAD PUSH1 0x1 DUP2 PUSH1 0x1 AND ISZERO PUSH2 0x100 MUL SUB AND PUSH1 0x2 SWAP1 DIV DUP1 PUSH1 0x1F ADD PUSH1 0x20 DUP1 SWAP2 DIV MUL PUSH1 0x20 ADD PUSH1 0x40 MLOAD SWAP1 DUP2 ADD PUSH1 0x40 MSTORE DUP1 SWAP3 SWAP2 SWAP1 DUP2 DUP2 MSTORE PUSH1 0x20 ADD DUP3 DUP1 SLOAD PUSH1 0x1 DUP2 PUSH1 0x1 AND ISZERO PUSH2 0x100 MUL SUB AND PUSH1 0x2 SWAP1 DIV DUP1 ISZERO PUSH2 0x345 JUMPI DUP1 PUSH1 0x1F LT PUSH2 0x31A JUMPI PUSH2 0x100 DUP1 DUP4 SLOAD DIV MUL DUP4 MSTORE SWAP2 PUSH1 0x20 ADD SWAP2 PUSH2 0x345 JUMP JUMPDEST DUP3 ADD SWAP2 SWAP1 PUSH1 0x0 MSTORE PUSH1 0x20 PUSH1 0x0 KECCAK256 SWAP1 JUMPDEST DUP2 SLOAD DUP2 MSTORE SWAP1 PUSH1 0x1 ADD SWAP1 PUSH1 0x20 ADD DUP1 DUP4 GT PUSH2 0x328 JUMPI DUP3 SWAP1 SUB PUSH1 0x1F AND DUP3 ADD SWAP2 JUMPDEST POP POP POP POP POP DUP2 JUMP JUMPDEST PUSH1 0x60 PUSH9 0x10000000000000000 DUP4 LT PUSH2 0x3CD JUMPI PUSH1 0x40 MLOAD PUSH32 0x8C379A000000000000000000000000000000000000000000000000000000000 DUP2 MSTORE PUSH1 0x4 ADD DUP1 DUP1 PUSH1 0x20 ADD DUP3 DUP2 SUB DUP3 MSTORE PUSH1 0xE DUP2 MSTORE PUSH1 0x20 ADD DUP1 PUSH32 0x696E70757420746F6F206C6F6E67000000000000000000000000000000000000 DUP2 MSTORE POP PUSH1 0x20 ADD SWAP2 POP POP PUSH1 0x40 MLOAD DUP1 SWAP2 SUB SWAP1 REVERT JUMPDEST PUSH1 0x60 PUSH1 0x1 PUSH1 0x40 MLOAD SWAP1 DUP1 DUP3 MSTORE DUP1 PUSH1 0x1F ADD PUSH1 0x1F NOT AND PUSH1 0x20 ADD DUP3 ADD PUSH1 0x40 MSTORE DUP1 ISZERO PUSH2 0x403 JUMPI DUP2 PUSH1 0x20 ADD PUSH1 0x1 DUP3 MUL DUP1 CODESIZE DUP4 CODECOPY DUP1 DUP3 ADD SWAP2 POP POP SWAP1 POP JUMPDEST POP SWAP1 POP PUSH1 0x37 DUP5 GT PUSH2 0x459 JUMPI DUP3 DUP5 ADD PUSH1 0xF8 SHL DUP2 PUSH1 0x0 DUP2 MLOAD DUP2 LT PUSH2 0x421 JUMPI INVALID JUMPDEST PUSH1 0x20 ADD ADD SWAP1 PUSH31 0xFFFFFFFFFFFFFFFFFFFFFFFFFFFFFFFFFFFFFFFFFFFFFFFFFFFFFFFFFFFFFF NOT AND SWAP1 DUP2 PUSH1 0x0 BYTE SWAP1 MSTORE8 POP DUP1 SWAP2 POP POP PUSH2 0x4BB JUMP JUMPDEST PUSH1 0x60 PUSH2 0x464 DUP6 PUSH2 0x4C1 JUMP JUMPDEST SWAP1 POP PUSH1 0x37 DUP5 DUP3 MLOAD ADD ADD PUSH1 0xF8 SHL DUP3 PUSH1 0x0 DUP2 MLOAD DUP2 LT PUSH2 0x47D JUMPI INVALID JUMPDEST PUSH1 0x20 ADD ADD SWAP1 PUSH31 0xFFFFFFFFFFFFFFFFFFFFFFFFFFFFFFFFFFFFFFFFFFFFFFFFFFFFFFFFFFFFFF NOT AND SWAP1 DUP2 PUSH1 0x0 BYTE SWAP1 MSTORE8 POP PUSH2 0x4B6 DUP3 DUP3 PUSH2 0x623 JUMP JUMPDEST SWAP3 POP POP POP JUMPDEST SWAP3 SWAP2 POP POP JUMP JUMPDEST PUSH1 0x60 DUP1 PUSH1 0x20 PUSH1 0x40 MLOAD SWAP1 DUP1 DUP3 MSTORE DUP1 PUSH1 0x1F ADD PUSH1 0x1F NOT AND PUSH1 0x20 ADD DUP3 ADD PUSH1 0x40 MSTORE DUP1 ISZERO PUSH2 0x4F8 JUMPI DUP2 PUSH1 0x20 ADD PUSH1 0x1 DUP3 MUL DUP1 CODESIZE DUP4 CODECOPY DUP1 DUP3 ADD SWAP2 POP POP SWAP1 POP JUMPDEST POP SWAP1 POP DUP3 PUSH1 0x20 DUP3 ADD MSTORE PUSH1 0x0 DUP1 PUSH32 0xFFFFFFFFFFFFFFFFFFFFFFFFFFFFFFFFFFFFFFFFFFFFFFFF0000000000000000 DUP6 AND EQ ISZERO PUSH2 0x536 JUMPI PUSH1 0x18 SWAP1 POP PUSH2 0x570 JUMP JUMPDEST PUSH1 0x0 PUSH32 0xFFFFFFFFFFFFFFFFFFFFFFFFFFFFFFFF00000000000000000000000000000000 DUP6 AND EQ ISZERO PUSH2 0x56A JUMPI PUSH1 0x10 SWAP1 POP PUSH2 0x56F JUMP JUMPDEST PUSH1 0x0 SWAP1 POP JUMPDEST JUMPDEST JUMPDEST PUSH1 0x20 DUP2 LT ISZERO PUSH2 0x5CF JUMPI PUSH1 0x0 PUSH1 0xF8 SHL DUP3 DUP3 DUP2 MLOAD DUP2 LT PUSH2 0x58B JUMPI INVALID JUMPDEST PUSH1 0x20 ADD ADD MLOAD PUSH1 0xF8 SHR PUSH1 0xF8 SHL PUSH31 0xFFFFFFFFFFFFFFFFFFFFFFFFFFFFFFFFFFFFFFFFFFFFFFFFFFFFFFFFFFFFFF NOT AND EQ PUSH2 0x5C2 JUMPI PUSH2 0x5CF JUMP JUMPDEST DUP1 DUP1 PUSH1 0x1 ADD SWAP2 POP POP PUSH2 0x571 JUMP JUMPDEST PUSH1 0x0 DUP2 PUSH1 0x20 SUB SWAP1 POP PUSH1 0x60 DUP2 PUSH1 0x40 MLOAD SWAP1 DUP1 DUP3 MSTORE DUP1 PUSH1 0x1F ADD PUSH1 0x1F NOT AND PUSH1 0x20 ADD DUP3 ADD PUSH1 0x40 MSTORE DUP1 ISZERO PUSH2 0x60C JUMPI DUP2 PUSH1 0x20 ADD PUSH1 0x1 DUP3 MUL DUP1 CODESIZE DUP4 CODECOPY DUP1 DUP3 ADD SWAP2 POP POP SWAP1 POP JUMPDEST POP SWAP1 POP DUP6 DUP3 DUP3 ADD MSTORE DUP2 DUP2 MSTORE DUP1 SWAP5 POP POP POP POP POP SWAP2 SWAP1 POP JUMP JUMPDEST PUSH1 0x60 DUP1 PUSH1 0x40 MLOAD SWAP1 POP DUP4 MLOAD DUP1 DUP3 MSTORE PUSH1 0x20 DUP3 ADD DUP2 DUP2 ADD PUSH1 0x20 DUP8 ADD JUMPDEST DUP2 DUP4 LT ISZERO PUSH2 0x659 JUMPI DUP1 MLOAD DUP4 MSTORE PUSH1 0x20 DUP4 ADD SWAP3 POP PUSH1 0x20 DUP2 ADD SWAP1 POP PUSH2 0x63C JUMP JUMPDEST POP DUP6 MLOAD SWAP3 POP DUP4 MLOAD DUP4 ADD DUP5 MSTORE DUP1 SWAP2 POP DUP3 DUP3 ADD SWAP1 POP PUSH1 0x20 DUP7 ADD JUMPDEST DUP2 DUP4 LT ISZERO PUSH2 0x68E JUMPI DUP1 MLOAD DUP4 MSTORE PUSH1 0x20 DUP4 ADD SWAP3 POP PUSH1 0x20 DUP2 ADD SWAP1 POP PUSH2 0x671 JUMP JUMPDEST POP PUSH1 0x1F NOT PUSH1 0x1F DUP9 MLOAD DUP6 ADD ISZERO DUP4 ADD ADD AND PUSH1 0x40 MSTORE POP POP POP DUP1 SWAP2 POP POP SWAP3 SWAP2 POP POP JUMP INVALID LOG2 PUSH6 0x627A7A723158 KECCAK256 0x28 0xC2 0xC5 0xB5 SAR 0xF6 0xD TIMESTAMP 0xB7 PUSH21 0xE16C7296FF9957D3005BB7D6444707F9D1085A4443 GASLIMIT PUSH5 0x736F6C6343 STOP SDIV LT STOP ORIGIN PUSH5 0x6664666466 PUSH5 0x6641484748 SELFBALANCE DIFFICULTY MSTORE8 0x48 DIFFICULTY TIMESTAMP SELFBALANCE 0x48 MSTORE8 DIFFICULTY MSTORE8 0x49 MSTORE8 SELFBALANCE TIMESTAMP 0x4F MLOAD TIMESTAMP SSTORE 0x49 0x48 0x4B 0x4A TIMESTAMP SSTORE 0x49 MSTORE8 NUMBER 0x48 PUSH20 0x6466647366535353535353445344534453445344 "
				},
				"gasEstimates": {
					"creation": {
						"codeDepositCost": "352400",
						"executionCost": "infinite",
						"totalCost": "infinite"
					},
					"external": {
						"bytesDemo1()": "infinite",
						"bytesDemo2()": "infinite",
						"getData(uint256,uint256)": "infinite"
					},
					"internal": {
						"encodeLength(uint256,uint256)": "infinite",
						"mergeBytes(bytes memory,bytes memory)": "infinite",
						"toBinary(uint256)": "infinite"
					}
				},
				"methodIdentifiers": {
					"bytesDemo1()": "ea55583e",
					"bytesDemo2()": "3aeee938",
					"getData(uint256,uint256)": "4e4fe306"
				}
			},
			"userdoc": {
				"methods": {}
			}
		}
	}
}