{
	"contracts/demo2.sol": {
		"demo2": {
			"abi": [
				{
					"inputs": [
						{
							"internalType": "bytes",
							"name": "_preBytes",
							"type": "bytes"
						},
						{
							"internalType": "bytes",
							"name": "_postBytes",
							"type": "bytes"
						}
					],
					"name": "getData",
					"outputs": [
						{
							"internalType": "bytes",
							"name": "",
							"type": "bytes"
						}
					],
					"stateMutability": "view",
					"type": "function"
				}
			],
			"devdoc": {
				"kind": "dev",
				"methods": {},
				"version": 1
			},
			"evm": {
				"assembly": "    /* \"contracts/demo2.sol\":60:3161  contract demo2 {\r... */\n  mstore(0x40, 0x80)\n  callvalue\n  dup1\n  iszero\n  tag_1\n  jumpi\n  0x00\n  dup1\n  revert\ntag_1:\n  pop\n  dataSize(sub_0)\n  dup1\n  dataOffset(sub_0)\n  0x00\n  codecopy\n  0x00\n  return\nstop\n\nsub_0: assembly {\n        /* \"contracts/demo2.sol\":60:3161  contract demo2 {\r... */\n      mstore(0x40, 0x80)\n      callvalue\n      dup1\n      iszero\n      tag_1\n      jumpi\n      0x00\n      dup1\n      revert\n    tag_1:\n      pop\n      jumpi(tag_2, lt(calldatasize, 0x04))\n      shr(0xe0, calldataload(0x00))\n      dup1\n      0xba654d05\n      eq\n      tag_3\n      jumpi\n    tag_2:\n      0x00\n      dup1\n      revert\n        /* \"contracts/demo2.sol\":86:239  function getData(bytes memory _preBytes, bytes memory _postBytes) public view returns(bytes memory) {\r... */\n    tag_3:\n      tag_4\n      0x04\n      dup1\n      calldatasize\n      sub\n      dup2\n      add\n      swap1\n      tag_5\n      swap2\n      swap1\n      tag_6\n      jump\t// in\n    tag_5:\n      tag_7\n      jump\t// in\n    tag_4:\n      mload(0x40)\n      tag_8\n      swap2\n      swap1\n      tag_9\n      jump\t// in\n    tag_8:\n      mload(0x40)\n      dup1\n      swap2\n      sub\n      swap1\n      return\n    tag_7:\n        /* \"contracts/demo2.sol\":172:184  bytes memory */\n      0x60\n        /* \"contracts/demo2.sol\":203:232  concat(_preBytes, _postBytes) */\n      tag_11\n        /* \"contracts/demo2.sol\":210:219  _preBytes */\n      dup4\n        /* \"contracts/demo2.sol\":221:231  _postBytes */\n      dup4\n        /* \"contracts/demo2.sol\":203:209  concat */\n      tag_12\n        /* \"contracts/demo2.sol\":203:232  concat(_preBytes, _postBytes) */\n      jump\t// in\n    tag_11:\n        /* \"contracts/demo2.sol\":196:232  return concat(_preBytes, _postBytes) */\n      swap1\n      pop\n        /* \"contracts/demo2.sol\":86:239  function getData(bytes memory _preBytes, bytes memory _postBytes) public view returns(bytes memory) {\r... */\n      swap3\n      swap2\n      pop\n      pop\n      jump\t// out\n        /* \"contracts/demo2.sol\":247:3158  function concat(\r... */\n    tag_12:\n        /* \"contracts/demo2.sol\":375:387  bytes memory */\n      0x60\n        /* \"contracts/demo2.sol\":405:427  bytes memory tempBytes */\n      dup1\n        /* \"contracts/demo2.sol\":607:611  0x40 */\n      0x40\n        /* \"contracts/demo2.sol\":601:612  mload(0x40) */\n      mload\n        /* \"contracts/demo2.sol\":588:612  tempBytes := mload(0x40) */\n      swap1\n      pop\n        /* \"contracts/demo2.sol\":760:769  _preBytes */\n      dup4\n        /* \"contracts/demo2.sol\":754:770  mload(_preBytes) */\n      mload\n        /* \"contracts/demo2.sol\":802:808  length */\n      dup1\n        /* \"contracts/demo2.sol\":791:800  tempBytes */\n      dup3\n        /* \"contracts/demo2.sol\":784:809  mstore(tempBytes, length) */\n      mstore\n        /* \"contracts/demo2.sol\":1037:1041  0x20 */\n      0x20\n        /* \"contracts/demo2.sol\":1026:1035  tempBytes */\n      dup3\n        /* \"contracts/demo2.sol\":1022:1042  add(tempBytes, 0x20) */\n      add\n        /* \"contracts/demo2.sol\":1181:1187  length */\n      dup2\n        /* \"contracts/demo2.sol\":1177:1179  mc */\n      dup2\n        /* \"contracts/demo2.sol\":1173:1188  add(mc, length) */\n      add\n        /* \"contracts/demo2.sol\":1372:1376  0x20 */\n      0x20\n        /* \"contracts/demo2.sol\":1361:1370  _preBytes */\n      dup8\n        /* \"contracts/demo2.sol\":1357:1377  add(_preBytes, 0x20) */\n      add\n        /* \"contracts/demo2.sol\":1204:1721  for {\r... */\n    tag_14:\n        /* \"contracts/demo2.sol\":1400:1403  end */\n      dup2\n        /* \"contracts/demo2.sol\":1396:1398  mc */\n      dup4\n        /* \"contracts/demo2.sol\":1393:1404  lt(mc, end) */\n      lt\n        /* \"contracts/demo2.sol\":1204:1721  for {\r... */\n      iszero\n      tag_16\n      jumpi\n        /* \"contracts/demo2.sol\":1702:1704  cc */\n      dup1\n        /* \"contracts/demo2.sol\":1696:1705  mload(cc) */\n      mload\n        /* \"contracts/demo2.sol\":1692:1694  mc */\n      dup4\n        /* \"contracts/demo2.sol\":1685:1706  mstore(mc, mload(cc)) */\n      mstore\n        /* \"contracts/demo2.sol\":1505:1509  0x20 */\n      0x20\n        /* \"contracts/demo2.sol\":1501:1503  mc */\n      dup4\n        /* \"contracts/demo2.sol\":1497:1510  add(mc, 0x20) */\n      add\n        /* \"contracts/demo2.sol\":1491:1510  mc := add(mc, 0x20) */\n      swap3\n      pop\n        /* \"contracts/demo2.sol\":1542:1546  0x20 */\n      0x20\n        /* \"contracts/demo2.sol\":1538:1540  cc */\n      dup2\n        /* \"contracts/demo2.sol\":1534:1547  add(cc, 0x20) */\n      add\n        /* \"contracts/demo2.sol\":1528:1547  cc := add(cc, 0x20) */\n      swap1\n      pop\n        /* \"contracts/demo2.sol\":1204:1721  for {\r... */\n      jump(tag_14)\n    tag_16:\n        /* \"contracts/demo2.sol\":1208:1392  {\r... */\n      pop\n        /* \"contracts/demo2.sol\":1931:1941  _postBytes */\n      dup6\n        /* \"contracts/demo2.sol\":1925:1942  mload(_postBytes) */\n      mload\n        /* \"contracts/demo2.sol\":1915:1942  length := mload(_postBytes) */\n      swap3\n      pop\n        /* \"contracts/demo2.sol\":1992:2001  tempBytes */\n      dup4\n        /* \"contracts/demo2.sol\":1986:2002  mload(tempBytes) */\n      mload\n        /* \"contracts/demo2.sol\":1978:1984  length */\n      dup4\n        /* \"contracts/demo2.sol\":1974:2003  add(length, mload(tempBytes)) */\n      add\n        /* \"contracts/demo2.sol\":1963:1972  tempBytes */\n      dup5\n        /* \"contracts/demo2.sol\":1956:2004  mstore(tempBytes, add(length, mload(tempBytes))) */\n      mstore\n        /* \"contracts/demo2.sol\":2144:2147  end */\n      dup1\n        /* \"contracts/demo2.sol\":2138:2147  mc := end */\n      swap2\n      pop\n        /* \"contracts/demo2.sol\":2284:2290  length */\n      dup3\n        /* \"contracts/demo2.sol\":2280:2282  mc */\n      dup3\n        /* \"contracts/demo2.sol\":2276:2291  add(mc, length) */\n      add\n        /* \"contracts/demo2.sol\":2269:2291  end := add(mc, length) */\n      swap1\n      pop\n        /* \"contracts/demo2.sol\":2356:2360  0x20 */\n      0x20\n        /* \"contracts/demo2.sol\":2344:2354  _postBytes */\n      dup7\n        /* \"contracts/demo2.sol\":2340:2361  add(_postBytes, 0x20) */\n      add\n        /* \"contracts/demo2.sol\":2307:2535  for {\r... */\n    tag_17:\n        /* \"contracts/demo2.sol\":2384:2387  end */\n      dup2\n        /* \"contracts/demo2.sol\":2380:2382  mc */\n      dup4\n        /* \"contracts/demo2.sol\":2377:2388  lt(mc, end) */\n      lt\n        /* \"contracts/demo2.sol\":2307:2535  for {\r... */\n      iszero\n      tag_19\n      jumpi\n        /* \"contracts/demo2.sol\":2516:2518  cc */\n      dup1\n        /* \"contracts/demo2.sol\":2510:2519  mload(cc) */\n      mload\n        /* \"contracts/demo2.sol\":2506:2508  mc */\n      dup4\n        /* \"contracts/demo2.sol\":2499:2520  mstore(mc, mload(cc)) */\n      mstore\n        /* \"contracts/demo2.sol\":2422:2426  0x20 */\n      0x20\n        /* \"contracts/demo2.sol\":2418:2420  mc */\n      dup4\n        /* \"contracts/demo2.sol\":2414:2427  add(mc, 0x20) */\n      add\n        /* \"contracts/demo2.sol\":2408:2427  mc := add(mc, 0x20) */\n      swap3\n      pop\n        /* \"contracts/demo2.sol\":2459:2463  0x20 */\n      0x20\n        /* \"contracts/demo2.sol\":2455:2457  cc */\n      dup2\n        /* \"contracts/demo2.sol\":2451:2464  add(cc, 0x20) */\n      add\n        /* \"contracts/demo2.sol\":2445:2464  cc := add(cc, 0x20) */\n      swap1\n      pop\n        /* \"contracts/demo2.sol\":2307:2535  for {\r... */\n      jump(tag_17)\n    tag_19:\n        /* \"contracts/demo2.sol\":2311:2376  {\r... */\n      pop\n        /* \"contracts/demo2.sol\":3053:3055  31 */\n      0x1f\n        /* \"contracts/demo2.sol\":3049:3056  not(31) */\n      not\n        /* \"contracts/demo2.sol\":3031:3033  31 */\n      0x1f\n        /* \"contracts/demo2.sol\":3016:3025  _preBytes */\n      dup9\n        /* \"contracts/demo2.sol\":3010:3026  mload(_preBytes) */\n      mload\n        /* \"contracts/demo2.sol\":3002:3008  length */\n      dup6\n        /* \"contracts/demo2.sol\":2998:3027  add(length, mload(_preBytes)) */\n      add\n        /* \"contracts/demo2.sol\":2991:3028  iszero(add(length, mload(_preBytes))) */\n      iszero\n        /* \"contracts/demo2.sol\":2986:2989  end */\n      dup4\n        /* \"contracts/demo2.sol\":2982:3029  add(end, iszero(add(length, mload(_preBytes)))) */\n      add\n        /* \"contracts/demo2.sol\":2978:3034  add(add(end, iszero(add(length, mload(_preBytes)))), 31) */\n      add\n        /* \"contracts/demo2.sol\":2960:3110  and(\r... */\n      and\n        /* \"contracts/demo2.sol\":2954:2958  0x40 */\n      0x40\n        /* \"contracts/demo2.sol\":2947:3111  mstore(0x40, and(\r... */\n      mstore\n        /* \"contracts/demo2.sol\":449:3122  {\r... */\n      pop\n      pop\n      pop\n        /* \"contracts/demo2.sol\":3141:3150  tempBytes */\n      dup1\n        /* \"contracts/demo2.sol\":3134:3150  return tempBytes */\n      swap2\n      pop\n      pop\n        /* \"contracts/demo2.sol\":247:3158  function concat(\r... */\n      swap3\n      swap2\n      pop\n      pop\n      jump\t// out\n        /* \"#utility.yul\":7:417   */\n    tag_21:\n        /* \"#utility.yul\":84:89   */\n      0x00\n        /* \"#utility.yul\":109:174   */\n      tag_23\n        /* \"#utility.yul\":125:173   */\n      tag_24\n        /* \"#utility.yul\":166:172   */\n      dup5\n        /* \"#utility.yul\":125:173   */\n      tag_25\n      jump\t// in\n    tag_24:\n        /* \"#utility.yul\":109:174   */\n      tag_26\n      jump\t// in\n    tag_23:\n        /* \"#utility.yul\":100:174   */\n      swap1\n      pop\n        /* \"#utility.yul\":197:203   */\n      dup3\n        /* \"#utility.yul\":190:195   */\n      dup2\n        /* \"#utility.yul\":183:204   */\n      mstore\n        /* \"#utility.yul\":235:239   */\n      0x20\n        /* \"#utility.yul\":228:233   */\n      dup2\n        /* \"#utility.yul\":224:240   */\n      add\n        /* \"#utility.yul\":273:276   */\n      dup5\n        /* \"#utility.yul\":264:270   */\n      dup5\n        /* \"#utility.yul\":259:262   */\n      dup5\n        /* \"#utility.yul\":255:271   */\n      add\n        /* \"#utility.yul\":252:277   */\n      gt\n        /* \"#utility.yul\":249:361   */\n      iszero\n      tag_27\n      jumpi\n        /* \"#utility.yul\":280:359   */\n      tag_28\n      tag_29\n      jump\t// in\n    tag_28:\n        /* \"#utility.yul\":249:361   */\n    tag_27:\n        /* \"#utility.yul\":370:411   */\n      tag_30\n        /* \"#utility.yul\":404:410   */\n      dup5\n        /* \"#utility.yul\":399:402   */\n      dup3\n        /* \"#utility.yul\":394:397   */\n      dup6\n        /* \"#utility.yul\":370:411   */\n      tag_31\n      jump\t// in\n    tag_30:\n        /* \"#utility.yul\":90:417   */\n      pop\n        /* \"#utility.yul\":7:417   */\n      swap4\n      swap3\n      pop\n      pop\n      pop\n      jump\t// out\n        /* \"#utility.yul\":436:774   */\n    tag_32:\n        /* \"#utility.yul\":491:496   */\n      0x00\n        /* \"#utility.yul\":540:543   */\n      dup3\n        /* \"#utility.yul\":533:537   */\n      0x1f\n        /* \"#utility.yul\":525:531   */\n      dup4\n        /* \"#utility.yul\":521:538   */\n      add\n        /* \"#utility.yul\":517:544   */\n      slt\n        /* \"#utility.yul\":507:629   */\n      tag_34\n      jumpi\n        /* \"#utility.yul\":548:627   */\n      tag_35\n      tag_36\n      jump\t// in\n    tag_35:\n        /* \"#utility.yul\":507:629   */\n    tag_34:\n        /* \"#utility.yul\":665:671   */\n      dup2\n        /* \"#utility.yul\":652:672   */\n      calldataload\n        /* \"#utility.yul\":690:768   */\n      tag_37\n        /* \"#utility.yul\":764:767   */\n      dup5\n        /* \"#utility.yul\":756:762   */\n      dup3\n        /* \"#utility.yul\":749:753   */\n      0x20\n        /* \"#utility.yul\":741:747   */\n      dup7\n        /* \"#utility.yul\":737:754   */\n      add\n        /* \"#utility.yul\":690:768   */\n      tag_21\n      jump\t// in\n    tag_37:\n        /* \"#utility.yul\":681:768   */\n      swap2\n      pop\n        /* \"#utility.yul\":497:774   */\n      pop\n        /* \"#utility.yul\":436:774   */\n      swap3\n      swap2\n      pop\n      pop\n      jump\t// out\n        /* \"#utility.yul\":780:1610   */\n    tag_6:\n        /* \"#utility.yul\":866:872   */\n      0x00\n        /* \"#utility.yul\":874:880   */\n      dup1\n        /* \"#utility.yul\":923:925   */\n      0x40\n        /* \"#utility.yul\":911:920   */\n      dup4\n        /* \"#utility.yul\":902:909   */\n      dup6\n        /* \"#utility.yul\":898:921   */\n      sub\n        /* \"#utility.yul\":894:926   */\n      slt\n        /* \"#utility.yul\":891:1010   */\n      iszero\n      tag_39\n      jumpi\n        /* \"#utility.yul\":929:1008   */\n      tag_40\n      tag_41\n      jump\t// in\n    tag_40:\n        /* \"#utility.yul\":891:1010   */\n    tag_39:\n        /* \"#utility.yul\":1077:1078   */\n      0x00\n        /* \"#utility.yul\":1066:1075   */\n      dup4\n        /* \"#utility.yul\":1062:1079   */\n      add\n        /* \"#utility.yul\":1049:1080   */\n      calldataload\n        /* \"#utility.yul\":1107:1125   */\n      0xffffffffffffffff\n        /* \"#utility.yul\":1099:1105   */\n      dup2\n        /* \"#utility.yul\":1096:1126   */\n      gt\n        /* \"#utility.yul\":1093:1210   */\n      iszero\n      tag_42\n      jumpi\n        /* \"#utility.yul\":1129:1208   */\n      tag_43\n      tag_44\n      jump\t// in\n    tag_43:\n        /* \"#utility.yul\":1093:1210   */\n    tag_42:\n        /* \"#utility.yul\":1234:1296   */\n      tag_45\n        /* \"#utility.yul\":1288:1295   */\n      dup6\n        /* \"#utility.yul\":1279:1285   */\n      dup3\n        /* \"#utility.yul\":1268:1277   */\n      dup7\n        /* \"#utility.yul\":1264:1286   */\n      add\n        /* \"#utility.yul\":1234:1296   */\n      tag_32\n      jump\t// in\n    tag_45:\n        /* \"#utility.yul\":1224:1296   */\n      swap3\n      pop\n        /* \"#utility.yul\":1020:1306   */\n      pop\n        /* \"#utility.yul\":1373:1375   */\n      0x20\n        /* \"#utility.yul\":1362:1371   */\n      dup4\n        /* \"#utility.yul\":1358:1376   */\n      add\n        /* \"#utility.yul\":1345:1377   */\n      calldataload\n        /* \"#utility.yul\":1404:1422   */\n      0xffffffffffffffff\n        /* \"#utility.yul\":1396:1402   */\n      dup2\n        /* \"#utility.yul\":1393:1423   */\n      gt\n        /* \"#utility.yul\":1390:1507   */\n      iszero\n      tag_46\n      jumpi\n        /* \"#utility.yul\":1426:1505   */\n      tag_47\n      tag_44\n      jump\t// in\n    tag_47:\n        /* \"#utility.yul\":1390:1507   */\n    tag_46:\n        /* \"#utility.yul\":1531:1593   */\n      tag_48\n        /* \"#utility.yul\":1585:1592   */\n      dup6\n        /* \"#utility.yul\":1576:1582   */\n      dup3\n        /* \"#utility.yul\":1565:1574   */\n      dup7\n        /* \"#utility.yul\":1561:1583   */\n      add\n        /* \"#utility.yul\":1531:1593   */\n      tag_32\n      jump\t// in\n    tag_48:\n        /* \"#utility.yul\":1521:1593   */\n      swap2\n      pop\n        /* \"#utility.yul\":1316:1603   */\n      pop\n        /* \"#utility.yul\":780:1610   */\n      swap3\n      pop\n      swap3\n      swap1\n      pop\n      jump\t// out\n        /* \"#utility.yul\":1616:1976   */\n    tag_49:\n        /* \"#utility.yul\":1702:1705   */\n      0x00\n        /* \"#utility.yul\":1730:1768   */\n      tag_51\n        /* \"#utility.yul\":1762:1767   */\n      dup3\n        /* \"#utility.yul\":1730:1768   */\n      tag_52\n      jump\t// in\n    tag_51:\n        /* \"#utility.yul\":1784:1854   */\n      tag_53\n        /* \"#utility.yul\":1847:1853   */\n      dup2\n        /* \"#utility.yul\":1842:1845   */\n      dup6\n        /* \"#utility.yul\":1784:1854   */\n      tag_54\n      jump\t// in\n    tag_53:\n        /* \"#utility.yul\":1777:1854   */\n      swap4\n      pop\n        /* \"#utility.yul\":1863:1915   */\n      tag_55\n        /* \"#utility.yul\":1908:1914   */\n      dup2\n        /* \"#utility.yul\":1903:1906   */\n      dup6\n        /* \"#utility.yul\":1896:1900   */\n      0x20\n        /* \"#utility.yul\":1889:1894   */\n      dup7\n        /* \"#utility.yul\":1885:1901   */\n      add\n        /* \"#utility.yul\":1863:1915   */\n      tag_56\n      jump\t// in\n    tag_55:\n        /* \"#utility.yul\":1940:1969   */\n      tag_57\n        /* \"#utility.yul\":1962:1968   */\n      dup2\n        /* \"#utility.yul\":1940:1969   */\n      tag_58\n      jump\t// in\n    tag_57:\n        /* \"#utility.yul\":1935:1938   */\n      dup5\n        /* \"#utility.yul\":1931:1970   */\n      add\n        /* \"#utility.yul\":1924:1970   */\n      swap2\n      pop\n        /* \"#utility.yul\":1706:1976   */\n      pop\n        /* \"#utility.yul\":1616:1976   */\n      swap3\n      swap2\n      pop\n      pop\n      jump\t// out\n        /* \"#utility.yul\":1982:2291   */\n    tag_9:\n        /* \"#utility.yul\":2093:2097   */\n      0x00\n        /* \"#utility.yul\":2131:2133   */\n      0x20\n        /* \"#utility.yul\":2120:2129   */\n      dup3\n        /* \"#utility.yul\":2116:2134   */\n      add\n        /* \"#utility.yul\":2108:2134   */\n      swap1\n      pop\n        /* \"#utility.yul\":2180:2189   */\n      dup2\n        /* \"#utility.yul\":2174:2178   */\n      dup2\n        /* \"#utility.yul\":2170:2190   */\n      sub\n        /* \"#utility.yul\":2166:2167   */\n      0x00\n        /* \"#utility.yul\":2155:2164   */\n      dup4\n        /* \"#utility.yul\":2151:2168   */\n      add\n        /* \"#utility.yul\":2144:2191   */\n      mstore\n        /* \"#utility.yul\":2208:2284   */\n      tag_60\n        /* \"#utility.yul\":2279:2283   */\n      dup2\n        /* \"#utility.yul\":2270:2276   */\n      dup5\n        /* \"#utility.yul\":2208:2284   */\n      tag_49\n      jump\t// in\n    tag_60:\n        /* \"#utility.yul\":2200:2284   */\n      swap1\n      pop\n        /* \"#utility.yul\":1982:2291   */\n      swap3\n      swap2\n      pop\n      pop\n      jump\t// out\n        /* \"#utility.yul\":2297:2426   */\n    tag_26:\n        /* \"#utility.yul\":2331:2337   */\n      0x00\n        /* \"#utility.yul\":2358:2378   */\n      tag_62\n      tag_63\n      jump\t// in\n    tag_62:\n        /* \"#utility.yul\":2348:2378   */\n      swap1\n      pop\n        /* \"#utility.yul\":2387:2420   */\n      tag_64\n        /* \"#utility.yul\":2415:2419   */\n      dup3\n        /* \"#utility.yul\":2407:2413   */\n      dup3\n        /* \"#utility.yul\":2387:2420   */\n      tag_65\n      jump\t// in\n    tag_64:\n        /* \"#utility.yul\":2297:2426   */\n      swap2\n      swap1\n      pop\n      jump\t// out\n        /* \"#utility.yul\":2432:2507   */\n    tag_63:\n        /* \"#utility.yul\":2465:2471   */\n      0x00\n        /* \"#utility.yul\":2498:2500   */\n      0x40\n        /* \"#utility.yul\":2492:2501   */\n      mload\n        /* \"#utility.yul\":2482:2501   */\n      swap1\n      pop\n        /* \"#utility.yul\":2432:2507   */\n      swap1\n      jump\t// out\n        /* \"#utility.yul\":2513:2820   */\n    tag_25:\n        /* \"#utility.yul\":2574:2578   */\n      0x00\n        /* \"#utility.yul\":2664:2682   */\n      0xffffffffffffffff\n        /* \"#utility.yul\":2656:2662   */\n      dup3\n        /* \"#utility.yul\":2653:2683   */\n      gt\n        /* \"#utility.yul\":2650:2706   */\n      iszero\n      tag_68\n      jumpi\n        /* \"#utility.yul\":2686:2704   */\n      tag_69\n      tag_70\n      jump\t// in\n    tag_69:\n        /* \"#utility.yul\":2650:2706   */\n    tag_68:\n        /* \"#utility.yul\":2724:2753   */\n      tag_71\n        /* \"#utility.yul\":2746:2752   */\n      dup3\n        /* \"#utility.yul\":2724:2753   */\n      tag_58\n      jump\t// in\n    tag_71:\n        /* \"#utility.yul\":2716:2753   */\n      swap1\n      pop\n        /* \"#utility.yul\":2808:2812   */\n      0x20\n        /* \"#utility.yul\":2802:2806   */\n      dup2\n        /* \"#utility.yul\":2798:2813   */\n      add\n        /* \"#utility.yul\":2790:2813   */\n      swap1\n      pop\n        /* \"#utility.yul\":2513:2820   */\n      swap2\n      swap1\n      pop\n      jump\t// out\n        /* \"#utility.yul\":2826:2924   */\n    tag_52:\n        /* \"#utility.yul\":2877:2883   */\n      0x00\n        /* \"#utility.yul\":2911:2916   */\n      dup2\n        /* \"#utility.yul\":2905:2917   */\n      mload\n        /* \"#utility.yul\":2895:2917   */\n      swap1\n      pop\n        /* \"#utility.yul\":2826:2924   */\n      swap2\n      swap1\n      pop\n      jump\t// out\n        /* \"#utility.yul\":2930:3098   */\n    tag_54:\n        /* \"#utility.yul\":3013:3024   */\n      0x00\n        /* \"#utility.yul\":3047:3053   */\n      dup3\n        /* \"#utility.yul\":3042:3045   */\n      dup3\n        /* \"#utility.yul\":3035:3054   */\n      mstore\n        /* \"#utility.yul\":3087:3091   */\n      0x20\n        /* \"#utility.yul\":3082:3085   */\n      dup3\n        /* \"#utility.yul\":3078:3092   */\n      add\n        /* \"#utility.yul\":3063:3092   */\n      swap1\n      pop\n        /* \"#utility.yul\":2930:3098   */\n      swap3\n      swap2\n      pop\n      pop\n      jump\t// out\n        /* \"#utility.yul\":3104:3258   */\n    tag_31:\n        /* \"#utility.yul\":3188:3194   */\n      dup3\n        /* \"#utility.yul\":3183:3186   */\n      dup2\n        /* \"#utility.yul\":3178:3181   */\n      dup4\n        /* \"#utility.yul\":3165:3195   */\n      calldatacopy\n        /* \"#utility.yul\":3250:3251   */\n      0x00\n        /* \"#utility.yul\":3241:3247   */\n      dup4\n        /* \"#utility.yul\":3236:3239   */\n      dup4\n        /* \"#utility.yul\":3232:3248   */\n      add\n        /* \"#utility.yul\":3225:3252   */\n      mstore\n        /* \"#utility.yul\":3104:3258   */\n      pop\n      pop\n      pop\n      jump\t// out\n        /* \"#utility.yul\":3264:3571   */\n    tag_56:\n        /* \"#utility.yul\":3332:3333   */\n      0x00\n        /* \"#utility.yul\":3342:3455   */\n    tag_76:\n        /* \"#utility.yul\":3356:3362   */\n      dup4\n        /* \"#utility.yul\":3353:3354   */\n      dup2\n        /* \"#utility.yul\":3350:3363   */\n      lt\n        /* \"#utility.yul\":3342:3455   */\n      iszero\n      tag_78\n      jumpi\n        /* \"#utility.yul\":3441:3442   */\n      dup1\n        /* \"#utility.yul\":3436:3439   */\n      dup3\n        /* \"#utility.yul\":3432:3443   */\n      add\n        /* \"#utility.yul\":3426:3444   */\n      mload\n        /* \"#utility.yul\":3422:3423   */\n      dup2\n        /* \"#utility.yul\":3417:3420   */\n      dup5\n        /* \"#utility.yul\":3413:3424   */\n      add\n        /* \"#utility.yul\":3406:3445   */\n      mstore\n        /* \"#utility.yul\":3378:3380   */\n      0x20\n        /* \"#utility.yul\":3375:3376   */\n      dup2\n        /* \"#utility.yul\":3371:3381   */\n      add\n        /* \"#utility.yul\":3366:3381   */\n      swap1\n      pop\n        /* \"#utility.yul\":3342:3455   */\n      jump(tag_76)\n    tag_78:\n        /* \"#utility.yul\":3473:3479   */\n      dup4\n        /* \"#utility.yul\":3470:3471   */\n      dup2\n        /* \"#utility.yul\":3467:3480   */\n      gt\n        /* \"#utility.yul\":3464:3565   */\n      iszero\n      tag_79\n      jumpi\n        /* \"#utility.yul\":3553:3554   */\n      0x00\n        /* \"#utility.yul\":3544:3550   */\n      dup5\n        /* \"#utility.yul\":3539:3542   */\n      dup5\n        /* \"#utility.yul\":3535:3551   */\n      add\n        /* \"#utility.yul\":3528:3555   */\n      mstore\n        /* \"#utility.yul\":3464:3565   */\n    tag_79:\n        /* \"#utility.yul\":3313:3571   */\n      pop\n        /* \"#utility.yul\":3264:3571   */\n      pop\n      pop\n      pop\n      jump\t// out\n        /* \"#utility.yul\":3577:3858   */\n    tag_65:\n        /* \"#utility.yul\":3660:3687   */\n      tag_81\n        /* \"#utility.yul\":3682:3686   */\n      dup3\n        /* \"#utility.yul\":3660:3687   */\n      tag_58\n      jump\t// in\n    tag_81:\n        /* \"#utility.yul\":3652:3658   */\n      dup2\n        /* \"#utility.yul\":3648:3688   */\n      add\n        /* \"#utility.yul\":3790:3796   */\n      dup2\n        /* \"#utility.yul\":3778:3788   */\n      dup2\n        /* \"#utility.yul\":3775:3797   */\n      lt\n        /* \"#utility.yul\":3754:3772   */\n      0xffffffffffffffff\n        /* \"#utility.yul\":3742:3752   */\n      dup3\n        /* \"#utility.yul\":3739:3773   */\n      gt\n        /* \"#utility.yul\":3736:3798   */\n      or\n        /* \"#utility.yul\":3733:3821   */\n      iszero\n      tag_82\n      jumpi\n        /* \"#utility.yul\":3801:3819   */\n      tag_83\n      tag_70\n      jump\t// in\n    tag_83:\n        /* \"#utility.yul\":3733:3821   */\n    tag_82:\n        /* \"#utility.yul\":3841:3851   */\n      dup1\n        /* \"#utility.yul\":3837:3839   */\n      0x40\n        /* \"#utility.yul\":3830:3852   */\n      mstore\n        /* \"#utility.yul\":3620:3858   */\n      pop\n        /* \"#utility.yul\":3577:3858   */\n      pop\n      pop\n      jump\t// out\n        /* \"#utility.yul\":3864:4044   */\n    tag_70:\n        /* \"#utility.yul\":3912:3989   */\n      0x4e487b7100000000000000000000000000000000000000000000000000000000\n        /* \"#utility.yul\":3909:3910   */\n      0x00\n        /* \"#utility.yul\":3902:3990   */\n      mstore\n        /* \"#utility.yul\":4009:4013   */\n      0x41\n        /* \"#utility.yul\":4006:4007   */\n      0x04\n        /* \"#utility.yul\":3999:4014   */\n      mstore\n        /* \"#utility.yul\":4033:4037   */\n      0x24\n        /* \"#utility.yul\":4030:4031   */\n      0x00\n        /* \"#utility.yul\":4023:4038   */\n      revert\n        /* \"#utility.yul\":4050:4167   */\n    tag_36:\n        /* \"#utility.yul\":4159:4160   */\n      0x00\n        /* \"#utility.yul\":4156:4157   */\n      dup1\n        /* \"#utility.yul\":4149:4161   */\n      revert\n        /* \"#utility.yul\":4173:4290   */\n    tag_29:\n        /* \"#utility.yul\":4282:4283   */\n      0x00\n        /* \"#utility.yul\":4279:4280   */\n      dup1\n        /* \"#utility.yul\":4272:4284   */\n      revert\n        /* \"#utility.yul\":4296:4413   */\n    tag_44:\n        /* \"#utility.yul\":4405:4406   */\n      0x00\n        /* \"#utility.yul\":4402:4403   */\n      dup1\n        /* \"#utility.yul\":4395:4407   */\n      revert\n        /* \"#utility.yul\":4419:4536   */\n    tag_41:\n        /* \"#utility.yul\":4528:4529   */\n      0x00\n        /* \"#utility.yul\":4525:4526   */\n      dup1\n        /* \"#utility.yul\":4518:4530   */\n      revert\n        /* \"#utility.yul\":4542:4644   */\n    tag_58:\n        /* \"#utility.yul\":4583:4589   */\n      0x00\n        /* \"#utility.yul\":4634:4636   */\n      0x1f\n        /* \"#utility.yul\":4630:4637   */\n      not\n        /* \"#utility.yul\":4625:4627   */\n      0x1f\n        /* \"#utility.yul\":4618:4623   */\n      dup4\n        /* \"#utility.yul\":4614:4628   */\n      add\n        /* \"#utility.yul\":4610:4638   */\n      and\n        /* \"#utility.yul\":4600:4638   */\n      swap1\n      pop\n        /* \"#utility.yul\":4542:4644   */\n      swap2\n      swap1\n      pop\n      jump\t// out\n\n    auxdata: 0xa2646970667358221220e52abd2ccc4d6995e93bd3a52dac18746cd11313643e7f766eb43a8edd2d37cd64736f6c63430008070033\n}\n",
				"bytecode": {
					"linkReferences": {},
					"object": "608060405234801561001057600080fd5b506103b0806100206000396000f3fe608060405234801561001057600080fd5b506004361061002b5760003560e01c8063ba654d0514610030575b600080fd5b61004a6004803603810190610045919061016e565b610060565b604051610057919061021f565b60405180910390f35b606061006c8383610074565b905092915050565b6060806040519050835180825260208201818101602087015b818310156100aa578051835260208301925060208101905061008d565b50855192508351830184528091508282019050602086015b818310156100df57805183526020830192506020810190506100c2565b50601f19601f8851850115830101166040525050508091505092915050565b600061011161010c84610266565b610241565b90508281526020810184848401111561012d5761012c61035a565b5b6101388482856102b3565b509392505050565b600082601f83011261015557610154610355565b5b81356101658482602086016100fe565b91505092915050565b6000806040838503121561018557610184610364565b5b600083013567ffffffffffffffff8111156101a3576101a261035f565b5b6101af85828601610140565b925050602083013567ffffffffffffffff8111156101d0576101cf61035f565b5b6101dc85828601610140565b9150509250929050565b60006101f182610297565b6101fb81856102a2565b935061020b8185602086016102c2565b61021481610369565b840191505092915050565b6000602082019050818103600083015261023981846101e6565b905092915050565b600061024b61025c565b905061025782826102f5565b919050565b6000604051905090565b600067ffffffffffffffff82111561028157610280610326565b5b61028a82610369565b9050602081019050919050565b600081519050919050565b600082825260208201905092915050565b82818337600083830152505050565b60005b838110156102e05780820151818401526020810190506102c5565b838111156102ef576000848401525b50505050565b6102fe82610369565b810181811067ffffffffffffffff8211171561031d5761031c610326565b5b80604052505050565b7f4e487b7100000000000000000000000000000000000000000000000000000000600052604160045260246000fd5b600080fd5b600080fd5b600080fd5b600080fd5b6000601f19601f830116905091905056fea2646970667358221220e52abd2ccc4d6995e93bd3a52dac18746cd11313643e7f766eb43a8edd2d37cd64736f6c63430008070033",
					"opcodes": "PUSH1 0x80 PUSH1 0x40 MSTORE CALLVALUE DUP1 ISZERO PUSH2 0x10 JUMPI PUSH1 0x0 DUP1 REVERT JUMPDEST POP PUSH2 0x3B0 DUP1 PUSH2 0x20 PUSH1 0x0 CODECOPY PUSH1 0x0 RETURN INVALID PUSH1 0x80 PUSH1 0x40 MSTORE CALLVALUE DUP1 ISZERO PUSH2 0x10 JUMPI PUSH1 0x0 DUP1 REVERT JUMPDEST POP PUSH1 0x4 CALLDATASIZE LT PUSH2 0x2B JUMPI PUSH1 0x0 CALLDATALOAD PUSH1 0xE0 SHR DUP1 PUSH4 0xBA654D05 EQ PUSH2 0x30 JUMPI JUMPDEST PUSH1 0x0 DUP1 REVERT JUMPDEST PUSH2 0x4A PUSH1 0x4 DUP1 CALLDATASIZE SUB DUP2 ADD SWAP1 PUSH2 0x45 SWAP2 SWAP1 PUSH2 0x16E JUMP JUMPDEST PUSH2 0x60 JUMP JUMPDEST PUSH1 0x40 MLOAD PUSH2 0x57 SWAP2 SWAP1 PUSH2 0x21F JUMP JUMPDEST PUSH1 0x40 MLOAD DUP1 SWAP2 SUB SWAP1 RETURN JUMPDEST PUSH1 0x60 PUSH2 0x6C DUP4 DUP4 PUSH2 0x74 JUMP JUMPDEST SWAP1 POP SWAP3 SWAP2 POP POP JUMP JUMPDEST PUSH1 0x60 DUP1 PUSH1 0x40 MLOAD SWAP1 POP DUP4 MLOAD DUP1 DUP3 MSTORE PUSH1 0x20 DUP3 ADD DUP2 DUP2 ADD PUSH1 0x20 DUP8 ADD JUMPDEST DUP2 DUP4 LT ISZERO PUSH2 0xAA JUMPI DUP1 MLOAD DUP4 MSTORE PUSH1 0x20 DUP4 ADD SWAP3 POP PUSH1 0x20 DUP2 ADD SWAP1 POP PUSH2 0x8D JUMP JUMPDEST POP DUP6 MLOAD SWAP3 POP DUP4 MLOAD DUP4 ADD DUP5 MSTORE DUP1 SWAP2 POP DUP3 DUP3 ADD SWAP1 POP PUSH1 0x20 DUP7 ADD JUMPDEST DUP2 DUP4 LT ISZERO PUSH2 0xDF JUMPI DUP1 MLOAD DUP4 MSTORE PUSH1 0x20 DUP4 ADD SWAP3 POP PUSH1 0x20 DUP2 ADD SWAP1 POP PUSH2 0xC2 JUMP JUMPDEST POP PUSH1 0x1F NOT PUSH1 0x1F DUP9 MLOAD DUP6 ADD ISZERO DUP4 ADD ADD AND PUSH1 0x40 MSTORE POP POP POP DUP1 SWAP2 POP POP SWAP3 SWAP2 POP POP JUMP JUMPDEST PUSH1 0x0 PUSH2 0x111 PUSH2 0x10C DUP5 PUSH2 0x266 JUMP JUMPDEST PUSH2 0x241 JUMP JUMPDEST SWAP1 POP DUP3 DUP2 MSTORE PUSH1 0x20 DUP2 ADD DUP5 DUP5 DUP5 ADD GT ISZERO PUSH2 0x12D JUMPI PUSH2 0x12C PUSH2 0x35A JUMP JUMPDEST JUMPDEST PUSH2 0x138 DUP5 DUP3 DUP6 PUSH2 0x2B3 JUMP JUMPDEST POP SWAP4 SWAP3 POP POP POP JUMP JUMPDEST PUSH1 0x0 DUP3 PUSH1 0x1F DUP4 ADD SLT PUSH2 0x155 JUMPI PUSH2 0x154 PUSH2 0x355 JUMP JUMPDEST JUMPDEST DUP2 CALLDATALOAD PUSH2 0x165 DUP5 DUP3 PUSH1 0x20 DUP7 ADD PUSH2 0xFE JUMP JUMPDEST SWAP2 POP POP SWAP3 SWAP2 POP POP JUMP JUMPDEST PUSH1 0x0 DUP1 PUSH1 0x40 DUP4 DUP6 SUB SLT ISZERO PUSH2 0x185 JUMPI PUSH2 0x184 PUSH2 0x364 JUMP JUMPDEST JUMPDEST PUSH1 0x0 DUP4 ADD CALLDATALOAD PUSH8 0xFFFFFFFFFFFFFFFF DUP2 GT ISZERO PUSH2 0x1A3 JUMPI PUSH2 0x1A2 PUSH2 0x35F JUMP JUMPDEST JUMPDEST PUSH2 0x1AF DUP6 DUP3 DUP7 ADD PUSH2 0x140 JUMP JUMPDEST SWAP3 POP POP PUSH1 0x20 DUP4 ADD CALLDATALOAD PUSH8 0xFFFFFFFFFFFFFFFF DUP2 GT ISZERO PUSH2 0x1D0 JUMPI PUSH2 0x1CF PUSH2 0x35F JUMP JUMPDEST JUMPDEST PUSH2 0x1DC DUP6 DUP3 DUP7 ADD PUSH2 0x140 JUMP JUMPDEST SWAP2 POP POP SWAP3 POP SWAP3 SWAP1 POP JUMP JUMPDEST PUSH1 0x0 PUSH2 0x1F1 DUP3 PUSH2 0x297 JUMP JUMPDEST PUSH2 0x1FB DUP2 DUP6 PUSH2 0x2A2 JUMP JUMPDEST SWAP4 POP PUSH2 0x20B DUP2 DUP6 PUSH1 0x20 DUP7 ADD PUSH2 0x2C2 JUMP JUMPDEST PUSH2 0x214 DUP2 PUSH2 0x369 JUMP JUMPDEST DUP5 ADD SWAP2 POP POP SWAP3 SWAP2 POP POP JUMP JUMPDEST PUSH1 0x0 PUSH1 0x20 DUP3 ADD SWAP1 POP DUP2 DUP2 SUB PUSH1 0x0 DUP4 ADD MSTORE PUSH2 0x239 DUP2 DUP5 PUSH2 0x1E6 JUMP JUMPDEST SWAP1 POP SWAP3 SWAP2 POP POP JUMP JUMPDEST PUSH1 0x0 PUSH2 0x24B PUSH2 0x25C JUMP JUMPDEST SWAP1 POP PUSH2 0x257 DUP3 DUP3 PUSH2 0x2F5 JUMP JUMPDEST SWAP2 SWAP1 POP JUMP JUMPDEST PUSH1 0x0 PUSH1 0x40 MLOAD SWAP1 POP SWAP1 JUMP JUMPDEST PUSH1 0x0 PUSH8 0xFFFFFFFFFFFFFFFF DUP3 GT ISZERO PUSH2 0x281 JUMPI PUSH2 0x280 PUSH2 0x326 JUMP JUMPDEST JUMPDEST PUSH2 0x28A DUP3 PUSH2 0x369 JUMP JUMPDEST SWAP1 POP PUSH1 0x20 DUP2 ADD SWAP1 POP SWAP2 SWAP1 POP JUMP JUMPDEST PUSH1 0x0 DUP2 MLOAD SWAP1 POP SWAP2 SWAP1 POP JUMP JUMPDEST PUSH1 0x0 DUP3 DUP3 MSTORE PUSH1 0x20 DUP3 ADD SWAP1 POP SWAP3 SWAP2 POP POP JUMP JUMPDEST DUP3 DUP2 DUP4 CALLDATACOPY PUSH1 0x0 DUP4 DUP4 ADD MSTORE POP POP POP JUMP JUMPDEST PUSH1 0x0 JUMPDEST DUP4 DUP2 LT ISZERO PUSH2 0x2E0 JUMPI DUP1 DUP3 ADD MLOAD DUP2 DUP5 ADD MSTORE PUSH1 0x20 DUP2 ADD SWAP1 POP PUSH2 0x2C5 JUMP JUMPDEST DUP4 DUP2 GT ISZERO PUSH2 0x2EF JUMPI PUSH1 0x0 DUP5 DUP5 ADD MSTORE JUMPDEST POP POP POP POP JUMP JUMPDEST PUSH2 0x2FE DUP3 PUSH2 0x369 JUMP JUMPDEST DUP2 ADD DUP2 DUP2 LT PUSH8 0xFFFFFFFFFFFFFFFF DUP3 GT OR ISZERO PUSH2 0x31D JUMPI PUSH2 0x31C PUSH2 0x326 JUMP JUMPDEST JUMPDEST DUP1 PUSH1 0x40 MSTORE POP POP POP JUMP JUMPDEST PUSH32 0x4E487B7100000000000000000000000000000000000000000000000000000000 PUSH1 0x0 MSTORE PUSH1 0x41 PUSH1 0x4 MSTORE PUSH1 0x24 PUSH1 0x0 REVERT JUMPDEST PUSH1 0x0 DUP1 REVERT JUMPDEST PUSH1 0x0 DUP1 REVERT JUMPDEST PUSH1 0x0 DUP1 REVERT JUMPDEST PUSH1 0x0 DUP1 REVERT JUMPDEST PUSH1 0x0 PUSH1 0x1F NOT PUSH1 0x1F DUP4 ADD AND SWAP1 POP SWAP2 SWAP1 POP JUMP INVALID LOG2 PUSH5 0x6970667358 0x22 SLT KECCAK256 0xE5 0x2A 0xBD 0x2C 0xCC 0x4D PUSH10 0x95E93BD3A52DAC18746C 0xD1 SGT SGT PUSH5 0x3E7F766EB4 GASPRICE DUP15 0xDD 0x2D CALLDATACOPY 0xCD PUSH5 0x736F6C6343 STOP ADDMOD SMOD STOP CALLER "
				},
				"gasEstimates": {
					"creation": {
						"codeDepositCost": "188800",
						"executionCost": "232",
						"totalCost": "189032"
					},
					"external": {
						"getData(bytes,bytes)": "infinite"
					},
					"internal": {
						"concat(bytes memory,bytes memory)": "infinite"
					}
				},
				"methodIdentifiers": {
					"getData(bytes,bytes)": "ba654d05"
				}
			},
			"userdoc": {
				"kind": "user",
				"methods": {},
				"version": 1
			}
		}
	}
}