{
	"contracts/demo2.sol": {
		"demo2": {
			"abi": [
				{
					"inputs": [],
					"name": "data1",
					"outputs": [
						{
							"internalType": "bytes",
							"name": "",
							"type": "bytes"
						}
					],
					"stateMutability": "view",
					"type": "function"
				},
				{
					"inputs": [],
					"name": "data2",
					"outputs": [
						{
							"internalType": "bytes",
							"name": "",
							"type": "bytes"
						}
					],
					"stateMutability": "view",
					"type": "function"
				},
				{
					"inputs": [
						{
							"internalType": "bytes",
							"name": "_preBytes",
							"type": "bytes"
						},
						{
							"internalType": "uint256",
							"name": "_start",
							"type": "uint256"
						},
						{
							"internalType": "uint256",
							"name": "_length",
							"type": "uint256"
						}
					],
					"name": "getData",
					"outputs": [
						{
							"internalType": "bytes",
							"name": "",
							"type": "bytes"
						}
					],
					"stateMutability": "view",
					"type": "function"
				}
			],
			"devdoc": {
				"kind": "dev",
				"methods": {},
				"version": 1
			},
			"evm": {
				"assembly": "    /* \"contracts/demo2.sol\":34:5962  contract demo2 {\r... */\n  mstore(0x40, 0x80)\n    /* \"contracts/demo2.sol\":55:88  bytes public data1 = \"NALEHONGVO\" */\n  mload(0x40)\n  dup1\n  0x40\n  add\n  0x40\n  mstore\n  dup1\n  0x0a\n  dup2\n  mstore\n  0x20\n  add\n  0x4e414c45484f4e47564f00000000000000000000000000000000000000000000\n  dup2\n  mstore\n  pop\n  0x00\n  swap1\n  dup1\n  mload\n  swap1\n  0x20\n  add\n  swap1\n  tag_1\n  swap3\n  swap2\n  swap1\n  tag_2\n  jump\t// in\ntag_1:\n  pop\n    /* \"contracts/demo2.sol\":94:146  bytes public data2 = \"LEHONGVOwjnfvj3weh8vhsadfjoif\" */\n  mload(0x40)\n  dup1\n  0x40\n  add\n  0x40\n  mstore\n  dup1\n  0x1d\n  dup2\n  mstore\n  0x20\n  add\n  0x4c45484f4e47564f776a6e66766a33776568387668736164666a6f6966000000\n  dup2\n  mstore\n  pop\n  0x01\n  swap1\n  dup1\n  mload\n  swap1\n  0x20\n  add\n  swap1\n  tag_3\n  swap3\n  swap2\n  swap1\n  tag_2\n  jump\t// in\ntag_3:\n  pop\n    /* \"contracts/demo2.sol\":34:5962  contract demo2 {\r... */\n  callvalue\n  dup1\n  iszero\n  tag_4\n  jumpi\n  0x00\n  dup1\n  revert\ntag_4:\n  pop\n  jump(tag_5)\ntag_2:\n  dup3\n  dup1\n  sload\n  tag_6\n  swap1\n  tag_7\n  jump\t// in\ntag_6:\n  swap1\n  0x00\n  mstore\n  keccak256(0x00, 0x20)\n  swap1\n  0x1f\n  add\n  0x20\n  swap1\n  div\n  dup2\n  add\n  swap3\n  dup3\n  tag_9\n  jumpi\n  0x00\n  dup6\n  sstore\n  jump(tag_8)\ntag_9:\n  dup3\n  0x1f\n  lt\n  tag_10\n  jumpi\n  dup1\n  mload\n  not(0xff)\n  and\n  dup4\n  dup1\n  add\n  or\n  dup6\n  sstore\n  jump(tag_8)\ntag_10:\n  dup3\n  dup1\n  add\n  0x01\n  add\n  dup6\n  sstore\n  dup3\n  iszero\n  tag_8\n  jumpi\n  swap2\n  dup3\n  add\ntag_11:\n  dup3\n  dup2\n  gt\n  iszero\n  tag_12\n  jumpi\n  dup3\n  mload\n  dup3\n  sstore\n  swap2\n  0x20\n  add\n  swap2\n  swap1\n  0x01\n  add\n  swap1\n  jump(tag_11)\ntag_12:\ntag_8:\n  pop\n  swap1\n  pop\n  tag_13\n  swap2\n  swap1\n  tag_14\n  jump\t// in\ntag_13:\n  pop\n  swap1\n  jump\t// out\ntag_14:\ntag_15:\n  dup1\n  dup3\n  gt\n  iszero\n  tag_16\n  jumpi\n  0x00\n  dup2\n  0x00\n  swap1\n  sstore\n  pop\n  0x01\n  add\n  jump(tag_15)\ntag_16:\n  pop\n  swap1\n  jump\t// out\n    /* \"#utility.yul\":7:327   */\ntag_7:\n    /* \"#utility.yul\":51:57   */\n  0x00\n    /* \"#utility.yul\":88:89   */\n  0x02\n    /* \"#utility.yul\":82:86   */\n  dup3\n    /* \"#utility.yul\":78:90   */\n  div\n    /* \"#utility.yul\":68:90   */\n  swap1\n  pop\n    /* \"#utility.yul\":135:136   */\n  0x01\n    /* \"#utility.yul\":129:133   */\n  dup3\n    /* \"#utility.yul\":125:137   */\n  and\n    /* \"#utility.yul\":156:174   */\n  dup1\n    /* \"#utility.yul\":146:227   */\n  tag_19\n  jumpi\n    /* \"#utility.yul\":212:216   */\n  0x7f\n    /* \"#utility.yul\":204:210   */\n  dup3\n    /* \"#utility.yul\":200:217   */\n  and\n    /* \"#utility.yul\":190:217   */\n  swap2\n  pop\n    /* \"#utility.yul\":146:227   */\ntag_19:\n    /* \"#utility.yul\":274:276   */\n  0x20\n    /* \"#utility.yul\":266:272   */\n  dup3\n    /* \"#utility.yul\":263:277   */\n  lt\n    /* \"#utility.yul\":243:261   */\n  dup2\n    /* \"#utility.yul\":240:278   */\n  eq\n    /* \"#utility.yul\":237:321   */\n  iszero\n  tag_20\n  jumpi\n    /* \"#utility.yul\":293:311   */\n  tag_21\n  tag_22\n  jump\t// in\ntag_21:\n    /* \"#utility.yul\":237:321   */\ntag_20:\n    /* \"#utility.yul\":58:327   */\n  pop\n    /* \"#utility.yul\":7:327   */\n  swap2\n  swap1\n  pop\n  jump\t// out\n    /* \"#utility.yul\":333:513   */\ntag_22:\n    /* \"#utility.yul\":381:458   */\n  0x4e487b7100000000000000000000000000000000000000000000000000000000\n    /* \"#utility.yul\":378:379   */\n  0x00\n    /* \"#utility.yul\":371:459   */\n  mstore\n    /* \"#utility.yul\":478:482   */\n  0x22\n    /* \"#utility.yul\":475:476   */\n  0x04\n    /* \"#utility.yul\":468:483   */\n  mstore\n    /* \"#utility.yul\":502:506   */\n  0x24\n    /* \"#utility.yul\":499:500   */\n  0x00\n    /* \"#utility.yul\":492:507   */\n  revert\n    /* \"contracts/demo2.sol\":34:5962  contract demo2 {\r... */\ntag_5:\n  dataSize(sub_0)\n  dup1\n  dataOffset(sub_0)\n  0x00\n  codecopy\n  0x00\n  return\nstop\n\nsub_0: assembly {\n        /* \"contracts/demo2.sol\":34:5962  contract demo2 {\r... */\n      mstore(0x40, 0x80)\n      callvalue\n      dup1\n      iszero\n      tag_1\n      jumpi\n      0x00\n      dup1\n      revert\n    tag_1:\n      pop\n      jumpi(tag_2, lt(calldatasize, 0x04))\n      shr(0xe0, calldataload(0x00))\n      dup1\n      0x9ffd85c4\n      eq\n      tag_3\n      jumpi\n      dup1\n      0xb950d546\n      eq\n      tag_4\n      jumpi\n      dup1\n      0xe3a7fd75\n      eq\n      tag_5\n      jumpi\n    tag_2:\n      0x00\n      dup1\n      revert\n        /* \"contracts/demo2.sol\":55:88  bytes public data1 = \"NALEHONGVO\" */\n    tag_3:\n      tag_6\n      tag_7\n      jump\t// in\n    tag_6:\n      mload(0x40)\n      tag_8\n      swap2\n      swap1\n      tag_9\n      jump\t// in\n    tag_8:\n      mload(0x40)\n      dup1\n      swap2\n      sub\n      swap1\n      return\n        /* \"contracts/demo2.sol\":154:314  function getData(bytes memory _preBytes,  uint _start, uint _length) public view returns(bytes memory) {\r... */\n    tag_4:\n      tag_10\n      0x04\n      dup1\n      calldatasize\n      sub\n      dup2\n      add\n      swap1\n      tag_11\n      swap2\n      swap1\n      tag_12\n      jump\t// in\n    tag_11:\n      tag_13\n      jump\t// in\n    tag_10:\n      mload(0x40)\n      tag_14\n      swap2\n      swap1\n      tag_9\n      jump\t// in\n    tag_14:\n      mload(0x40)\n      dup1\n      swap2\n      sub\n      swap1\n      return\n        /* \"contracts/demo2.sol\":94:146  bytes public data2 = \"LEHONGVOwjnfvj3weh8vhsadfjoif\" */\n    tag_5:\n      tag_15\n      tag_16\n      jump\t// in\n    tag_15:\n      mload(0x40)\n      tag_17\n      swap2\n      swap1\n      tag_9\n      jump\t// in\n    tag_17:\n      mload(0x40)\n      dup1\n      swap2\n      sub\n      swap1\n      return\n        /* \"contracts/demo2.sol\":55:88  bytes public data1 = \"NALEHONGVO\" */\n    tag_7:\n      0x00\n      dup1\n      sload\n      tag_18\n      swap1\n      tag_19\n      jump\t// in\n    tag_18:\n      dup1\n      0x1f\n      add\n      0x20\n      dup1\n      swap2\n      div\n      mul\n      0x20\n      add\n      mload(0x40)\n      swap1\n      dup2\n      add\n      0x40\n      mstore\n      dup1\n      swap3\n      swap2\n      swap1\n      dup2\n      dup2\n      mstore\n      0x20\n      add\n      dup3\n      dup1\n      sload\n      tag_20\n      swap1\n      tag_19\n      jump\t// in\n    tag_20:\n      dup1\n      iszero\n      tag_21\n      jumpi\n      dup1\n      0x1f\n      lt\n      tag_22\n      jumpi\n      0x0100\n      dup1\n      dup4\n      sload\n      div\n      mul\n      dup4\n      mstore\n      swap2\n      0x20\n      add\n      swap2\n      jump(tag_21)\n    tag_22:\n      dup3\n      add\n      swap2\n      swap1\n      0x00\n      mstore\n      keccak256(0x00, 0x20)\n      swap1\n    tag_23:\n      dup2\n      sload\n      dup2\n      mstore\n      swap1\n      0x01\n      add\n      swap1\n      0x20\n      add\n      dup1\n      dup4\n      gt\n      tag_23\n      jumpi\n      dup3\n      swap1\n      sub\n      0x1f\n      and\n      dup3\n      add\n      swap2\n    tag_21:\n      pop\n      pop\n      pop\n      pop\n      pop\n      dup2\n      jump\t// out\n        /* \"contracts/demo2.sol\":154:314  function getData(bytes memory _preBytes,  uint _start, uint _length) public view returns(bytes memory) {\r... */\n    tag_13:\n        /* \"contracts/demo2.sol\":243:255  bytes memory */\n      0x60\n        /* \"contracts/demo2.sol\":274:307  slice(_preBytes, _start, _length) */\n      tag_25\n        /* \"contracts/demo2.sol\":280:289  _preBytes */\n      dup5\n        /* \"contracts/demo2.sol\":291:297  _start */\n      dup5\n        /* \"contracts/demo2.sol\":299:306  _length */\n      dup5\n        /* \"contracts/demo2.sol\":274:279  slice */\n      tag_26\n        /* \"contracts/demo2.sol\":274:307  slice(_preBytes, _start, _length) */\n      jump\t// in\n    tag_25:\n        /* \"contracts/demo2.sol\":267:307  return slice(_preBytes, _start, _length) */\n      swap1\n      pop\n        /* \"contracts/demo2.sol\":154:314  function getData(bytes memory _preBytes,  uint _start, uint _length) public view returns(bytes memory) {\r... */\n      swap4\n      swap3\n      pop\n      pop\n      pop\n      jump\t// out\n        /* \"contracts/demo2.sol\":94:146  bytes public data2 = \"LEHONGVOwjnfvj3weh8vhsadfjoif\" */\n    tag_16:\n      0x01\n      dup1\n      sload\n      tag_27\n      swap1\n      tag_19\n      jump\t// in\n    tag_27:\n      dup1\n      0x1f\n      add\n      0x20\n      dup1\n      swap2\n      div\n      mul\n      0x20\n      add\n      mload(0x40)\n      swap1\n      dup2\n      add\n      0x40\n      mstore\n      dup1\n      swap3\n      swap2\n      swap1\n      dup2\n      dup2\n      mstore\n      0x20\n      add\n      dup3\n      dup1\n      sload\n      tag_28\n      swap1\n      tag_19\n      jump\t// in\n    tag_28:\n      dup1\n      iszero\n      tag_29\n      jumpi\n      dup1\n      0x1f\n      lt\n      tag_30\n      jumpi\n      0x0100\n      dup1\n      dup4\n      sload\n      div\n      mul\n      dup4\n      mstore\n      swap2\n      0x20\n      add\n      swap2\n      jump(tag_29)\n    tag_30:\n      dup3\n      add\n      swap2\n      swap1\n      0x00\n      mstore\n      keccak256(0x00, 0x20)\n      swap1\n    tag_31:\n      dup2\n      sload\n      dup2\n      mstore\n      swap1\n      0x01\n      add\n      swap1\n      0x20\n      add\n      dup1\n      dup4\n      gt\n      tag_31\n      jumpi\n      dup3\n      swap1\n      sub\n      0x1f\n      and\n      dup3\n      add\n      swap2\n    tag_29:\n      pop\n      pop\n      pop\n      pop\n      pop\n      dup2\n      jump\t// out\n        /* \"contracts/demo2.sol\":321:2836  function slice(\r... */\n    tag_26:\n        /* \"contracts/demo2.sol\":456:468  bytes memory */\n      0x60\n        /* \"contracts/demo2.sol\":521:528  _length */\n      dup2\n        /* \"contracts/demo2.sol\":512:518  _start */\n      dup4\n        /* \"contracts/demo2.sol\":512:528  _start + _length */\n      tag_33\n      swap2\n      swap1\n      tag_34\n      jump\t// in\n    tag_33:\n        /* \"contracts/demo2.sol\":494:500  _bytes */\n      dup5\n        /* \"contracts/demo2.sol\":494:507  _bytes.length */\n      mload\n        /* \"contracts/demo2.sol\":494:529  _bytes.length >= (_start + _length) */\n      lt\n      iszero\n        /* \"contracts/demo2.sol\":486:530  require(_bytes.length >= (_start + _length)) */\n      tag_35\n      jumpi\n      0x00\n      dup1\n      revert\n    tag_35:\n        /* \"contracts/demo2.sol\":543:565  bytes memory tempBytes */\n      0x60\n        /* \"contracts/demo2.sol\":616:623  _length */\n      dup3\n        /* \"contracts/demo2.sol\":609:624  iszero(_length) */\n      iszero\n        /* \"contracts/demo2.sol\":643:644  0 */\n      0x00\n        /* \"contracts/demo2.sol\":638:2571  case 0 {\r... */\n      dup2\n      eq\n      tag_37\n      jumpi\n        /* \"contracts/demo2.sol\":2715:2719  0x40 */\n      0x40\n        /* \"contracts/demo2.sol\":2709:2720  mload(0x40) */\n      mload\n        /* \"contracts/demo2.sol\":2696:2720  tempBytes := mload(0x40) */\n      swap2\n      pop\n        /* \"contracts/demo2.sol\":2768:2772  0x20 */\n      0x20\n        /* \"contracts/demo2.sol\":2757:2766  tempBytes */\n      dup3\n        /* \"contracts/demo2.sol\":2753:2773  add(tempBytes, 0x20) */\n      add\n        /* \"contracts/demo2.sol\":2747:2751  0x40 */\n      0x40\n        /* \"contracts/demo2.sol\":2740:2774  mstore(0x40, add(tempBytes, 0x20)) */\n      mstore\n        /* \"contracts/demo2.sol\":602:2789  switch iszero(_length)\r... */\n      jump(tag_36)\n        /* \"contracts/demo2.sol\":638:2571  case 0 {\r... */\n    tag_37:\n        /* \"contracts/demo2.sol\":815:819  0x40 */\n      0x40\n        /* \"contracts/demo2.sol\":809:820  mload(0x40) */\n      mload\n        /* \"contracts/demo2.sol\":796:820  tempBytes := mload(0x40) */\n      swap2\n      pop\n        /* \"contracts/demo2.sol\":1452:1454  31 */\n      0x1f\n        /* \"contracts/demo2.sol\":1443:1450  _length */\n      dup5\n        /* \"contracts/demo2.sol\":1439:1455  and(_length, 31) */\n      and\n        /* \"contracts/demo2.sol\":1824:1833  lengthmod */\n      dup1\n        /* \"contracts/demo2.sol\":1817:1834  iszero(lengthmod) */\n      iszero\n        /* \"contracts/demo2.sol\":1811:1815  0x20 */\n      0x20\n        /* \"contracts/demo2.sol\":1807:1835  mul(0x20, iszero(lengthmod)) */\n      mul\n        /* \"contracts/demo2.sol\":1795:1804  lengthmod */\n      dup2\n        /* \"contracts/demo2.sol\":1784:1793  tempBytes */\n      dup5\n        /* \"contracts/demo2.sol\":1780:1805  add(tempBytes, lengthmod) */\n      add\n        /* \"contracts/demo2.sol\":1776:1836  add(add(tempBytes, lengthmod), mul(0x20, iszero(lengthmod))) */\n      add\n        /* \"contracts/demo2.sol\":1873:1880  _length */\n      dup6\n        /* \"contracts/demo2.sol\":1869:1871  mc */\n      dup2\n        /* \"contracts/demo2.sol\":1865:1881  add(mc, _length) */\n      add\n        /* \"contracts/demo2.sol\":2122:2128  _start */\n      dup8\n        /* \"contracts/demo2.sol\":2108:2117  lengthmod */\n      dup4\n        /* \"contracts/demo2.sol\":2101:2118  iszero(lengthmod) */\n      iszero\n        /* \"contracts/demo2.sol\":2095:2099  0x20 */\n      0x20\n        /* \"contracts/demo2.sol\":2091:2119  mul(0x20, iszero(lengthmod)) */\n      mul\n        /* \"contracts/demo2.sol\":2079:2088  lengthmod */\n      dup5\n        /* \"contracts/demo2.sol\":2071:2077  _bytes */\n      dup12\n        /* \"contracts/demo2.sol\":2067:2089  add(_bytes, lengthmod) */\n      add\n        /* \"contracts/demo2.sol\":2063:2120  add(add(_bytes, lengthmod), mul(0x20, iszero(lengthmod))) */\n      add\n        /* \"contracts/demo2.sol\":2059:2129  add(add(add(_bytes, lengthmod), mul(0x20, iszero(lengthmod))), _start) */\n      add\n        /* \"contracts/demo2.sol\":1901:2327  for {\r... */\n    tag_38:\n        /* \"contracts/demo2.sol\":2156:2159  end */\n      dup2\n        /* \"contracts/demo2.sol\":2152:2154  mc */\n      dup4\n        /* \"contracts/demo2.sol\":2149:2160  lt(mc, end) */\n      lt\n        /* \"contracts/demo2.sol\":1901:2327  for {\r... */\n      iszero\n      tag_40\n      jumpi\n        /* \"contracts/demo2.sol\":2304:2306  cc */\n      dup1\n        /* \"contracts/demo2.sol\":2298:2307  mload(cc) */\n      mload\n        /* \"contracts/demo2.sol\":2294:2296  mc */\n      dup4\n        /* \"contracts/demo2.sol\":2287:2308  mstore(mc, mload(cc)) */\n      mstore\n        /* \"contracts/demo2.sol\":2198:2202  0x20 */\n      0x20\n        /* \"contracts/demo2.sol\":2194:2196  mc */\n      dup4\n        /* \"contracts/demo2.sol\":2190:2203  add(mc, 0x20) */\n      add\n        /* \"contracts/demo2.sol\":2184:2203  mc := add(mc, 0x20) */\n      swap3\n      pop\n        /* \"contracts/demo2.sol\":2239:2243  0x20 */\n      0x20\n        /* \"contracts/demo2.sol\":2235:2237  cc */\n      dup2\n        /* \"contracts/demo2.sol\":2231:2244  add(cc, 0x20) */\n      add\n        /* \"contracts/demo2.sol\":2225:2244  cc := add(cc, 0x20) */\n      swap1\n      pop\n        /* \"contracts/demo2.sol\":1901:2327  for {\r... */\n      jump(tag_38)\n    tag_40:\n        /* \"contracts/demo2.sol\":1905:2148  {\r... */\n      pop\n        /* \"contracts/demo2.sol\":2365:2372  _length */\n      dup7\n        /* \"contracts/demo2.sol\":2354:2363  tempBytes */\n      dup6\n        /* \"contracts/demo2.sol\":2347:2373  mstore(tempBytes, _length) */\n      mstore\n        /* \"contracts/demo2.sol\":2551:2553  31 */\n      0x1f\n        /* \"contracts/demo2.sol\":2547:2554  not(31) */\n      not\n        /* \"contracts/demo2.sol\":2542:2544  31 */\n      0x1f\n        /* \"contracts/demo2.sol\":2538:2540  mc */\n      dup4\n        /* \"contracts/demo2.sol\":2534:2545  add(mc, 31) */\n      add\n        /* \"contracts/demo2.sol\":2530:2555  and(add(mc, 31), not(31)) */\n      and\n        /* \"contracts/demo2.sol\":2524:2528  0x40 */\n      0x40\n        /* \"contracts/demo2.sol\":2517:2556  mstore(0x40, and(add(mc, 31), not(31))) */\n      mstore\n        /* \"contracts/demo2.sol\":645:2571  {\r... */\n      pop\n      pop\n      pop\n        /* \"contracts/demo2.sol\":602:2789  switch iszero(_length)\r... */\n    tag_36:\n      pop\n        /* \"contracts/demo2.sol\":2819:2828  tempBytes */\n      dup1\n        /* \"contracts/demo2.sol\":2812:2828  return tempBytes */\n      swap2\n      pop\n      pop\n        /* \"contracts/demo2.sol\":321:2836  function slice(\r... */\n      swap4\n      swap3\n      pop\n      pop\n      pop\n      jump\t// out\n        /* \"#utility.yul\":7:417   */\n    tag_42:\n        /* \"#utility.yul\":84:89   */\n      0x00\n        /* \"#utility.yul\":109:174   */\n      tag_44\n        /* \"#utility.yul\":125:173   */\n      tag_45\n        /* \"#utility.yul\":166:172   */\n      dup5\n        /* \"#utility.yul\":125:173   */\n      tag_46\n      jump\t// in\n    tag_45:\n        /* \"#utility.yul\":109:174   */\n      tag_47\n      jump\t// in\n    tag_44:\n        /* \"#utility.yul\":100:174   */\n      swap1\n      pop\n        /* \"#utility.yul\":197:203   */\n      dup3\n        /* \"#utility.yul\":190:195   */\n      dup2\n        /* \"#utility.yul\":183:204   */\n      mstore\n        /* \"#utility.yul\":235:239   */\n      0x20\n        /* \"#utility.yul\":228:233   */\n      dup2\n        /* \"#utility.yul\":224:240   */\n      add\n        /* \"#utility.yul\":273:276   */\n      dup5\n        /* \"#utility.yul\":264:270   */\n      dup5\n        /* \"#utility.yul\":259:262   */\n      dup5\n        /* \"#utility.yul\":255:271   */\n      add\n        /* \"#utility.yul\":252:277   */\n      gt\n        /* \"#utility.yul\":249:361   */\n      iszero\n      tag_48\n      jumpi\n        /* \"#utility.yul\":280:359   */\n      tag_49\n      tag_50\n      jump\t// in\n    tag_49:\n        /* \"#utility.yul\":249:361   */\n    tag_48:\n        /* \"#utility.yul\":370:411   */\n      tag_51\n        /* \"#utility.yul\":404:410   */\n      dup5\n        /* \"#utility.yul\":399:402   */\n      dup3\n        /* \"#utility.yul\":394:397   */\n      dup6\n        /* \"#utility.yul\":370:411   */\n      tag_52\n      jump\t// in\n    tag_51:\n        /* \"#utility.yul\":90:417   */\n      pop\n        /* \"#utility.yul\":7:417   */\n      swap4\n      swap3\n      pop\n      pop\n      pop\n      jump\t// out\n        /* \"#utility.yul\":436:774   */\n    tag_53:\n        /* \"#utility.yul\":491:496   */\n      0x00\n        /* \"#utility.yul\":540:543   */\n      dup3\n        /* \"#utility.yul\":533:537   */\n      0x1f\n        /* \"#utility.yul\":525:531   */\n      dup4\n        /* \"#utility.yul\":521:538   */\n      add\n        /* \"#utility.yul\":517:544   */\n      slt\n        /* \"#utility.yul\":507:629   */\n      tag_55\n      jumpi\n        /* \"#utility.yul\":548:627   */\n      tag_56\n      tag_57\n      jump\t// in\n    tag_56:\n        /* \"#utility.yul\":507:629   */\n    tag_55:\n        /* \"#utility.yul\":665:671   */\n      dup2\n        /* \"#utility.yul\":652:672   */\n      calldataload\n        /* \"#utility.yul\":690:768   */\n      tag_58\n        /* \"#utility.yul\":764:767   */\n      dup5\n        /* \"#utility.yul\":756:762   */\n      dup3\n        /* \"#utility.yul\":749:753   */\n      0x20\n        /* \"#utility.yul\":741:747   */\n      dup7\n        /* \"#utility.yul\":737:754   */\n      add\n        /* \"#utility.yul\":690:768   */\n      tag_42\n      jump\t// in\n    tag_58:\n        /* \"#utility.yul\":681:768   */\n      swap2\n      pop\n        /* \"#utility.yul\":497:774   */\n      pop\n        /* \"#utility.yul\":436:774   */\n      swap3\n      swap2\n      pop\n      pop\n      jump\t// out\n        /* \"#utility.yul\":780:919   */\n    tag_59:\n        /* \"#utility.yul\":826:831   */\n      0x00\n        /* \"#utility.yul\":864:870   */\n      dup2\n        /* \"#utility.yul\":851:871   */\n      calldataload\n        /* \"#utility.yul\":842:871   */\n      swap1\n      pop\n        /* \"#utility.yul\":880:913   */\n      tag_61\n        /* \"#utility.yul\":907:912   */\n      dup2\n        /* \"#utility.yul\":880:913   */\n      tag_62\n      jump\t// in\n    tag_61:\n        /* \"#utility.yul\":780:919   */\n      swap3\n      swap2\n      pop\n      pop\n      jump\t// out\n        /* \"#utility.yul\":925:1722   */\n    tag_12:\n        /* \"#utility.yul\":1011:1017   */\n      0x00\n        /* \"#utility.yul\":1019:1025   */\n      dup1\n        /* \"#utility.yul\":1027:1033   */\n      0x00\n        /* \"#utility.yul\":1076:1078   */\n      0x60\n        /* \"#utility.yul\":1064:1073   */\n      dup5\n        /* \"#utility.yul\":1055:1062   */\n      dup7\n        /* \"#utility.yul\":1051:1074   */\n      sub\n        /* \"#utility.yul\":1047:1079   */\n      slt\n        /* \"#utility.yul\":1044:1163   */\n      iszero\n      tag_64\n      jumpi\n        /* \"#utility.yul\":1082:1161   */\n      tag_65\n      tag_66\n      jump\t// in\n    tag_65:\n        /* \"#utility.yul\":1044:1163   */\n    tag_64:\n        /* \"#utility.yul\":1230:1231   */\n      0x00\n        /* \"#utility.yul\":1219:1228   */\n      dup5\n        /* \"#utility.yul\":1215:1232   */\n      add\n        /* \"#utility.yul\":1202:1233   */\n      calldataload\n        /* \"#utility.yul\":1260:1278   */\n      0xffffffffffffffff\n        /* \"#utility.yul\":1252:1258   */\n      dup2\n        /* \"#utility.yul\":1249:1279   */\n      gt\n        /* \"#utility.yul\":1246:1363   */\n      iszero\n      tag_67\n      jumpi\n        /* \"#utility.yul\":1282:1361   */\n      tag_68\n      tag_69\n      jump\t// in\n    tag_68:\n        /* \"#utility.yul\":1246:1363   */\n    tag_67:\n        /* \"#utility.yul\":1387:1449   */\n      tag_70\n        /* \"#utility.yul\":1441:1448   */\n      dup7\n        /* \"#utility.yul\":1432:1438   */\n      dup3\n        /* \"#utility.yul\":1421:1430   */\n      dup8\n        /* \"#utility.yul\":1417:1439   */\n      add\n        /* \"#utility.yul\":1387:1449   */\n      tag_53\n      jump\t// in\n    tag_70:\n        /* \"#utility.yul\":1377:1449   */\n      swap4\n      pop\n        /* \"#utility.yul\":1173:1459   */\n      pop\n        /* \"#utility.yul\":1498:1500   */\n      0x20\n        /* \"#utility.yul\":1524:1577   */\n      tag_71\n        /* \"#utility.yul\":1569:1576   */\n      dup7\n        /* \"#utility.yul\":1560:1566   */\n      dup3\n        /* \"#utility.yul\":1549:1558   */\n      dup8\n        /* \"#utility.yul\":1545:1567   */\n      add\n        /* \"#utility.yul\":1524:1577   */\n      tag_59\n      jump\t// in\n    tag_71:\n        /* \"#utility.yul\":1514:1577   */\n      swap3\n      pop\n        /* \"#utility.yul\":1469:1587   */\n      pop\n        /* \"#utility.yul\":1626:1628   */\n      0x40\n        /* \"#utility.yul\":1652:1705   */\n      tag_72\n        /* \"#utility.yul\":1697:1704   */\n      dup7\n        /* \"#utility.yul\":1688:1694   */\n      dup3\n        /* \"#utility.yul\":1677:1686   */\n      dup8\n        /* \"#utility.yul\":1673:1695   */\n      add\n        /* \"#utility.yul\":1652:1705   */\n      tag_59\n      jump\t// in\n    tag_72:\n        /* \"#utility.yul\":1642:1705   */\n      swap2\n      pop\n        /* \"#utility.yul\":1597:1715   */\n      pop\n        /* \"#utility.yul\":925:1722   */\n      swap3\n      pop\n      swap3\n      pop\n      swap3\n      jump\t// out\n        /* \"#utility.yul\":1728:2088   */\n    tag_73:\n        /* \"#utility.yul\":1814:1817   */\n      0x00\n        /* \"#utility.yul\":1842:1880   */\n      tag_75\n        /* \"#utility.yul\":1874:1879   */\n      dup3\n        /* \"#utility.yul\":1842:1880   */\n      tag_76\n      jump\t// in\n    tag_75:\n        /* \"#utility.yul\":1896:1966   */\n      tag_77\n        /* \"#utility.yul\":1959:1965   */\n      dup2\n        /* \"#utility.yul\":1954:1957   */\n      dup6\n        /* \"#utility.yul\":1896:1966   */\n      tag_78\n      jump\t// in\n    tag_77:\n        /* \"#utility.yul\":1889:1966   */\n      swap4\n      pop\n        /* \"#utility.yul\":1975:2027   */\n      tag_79\n        /* \"#utility.yul\":2020:2026   */\n      dup2\n        /* \"#utility.yul\":2015:2018   */\n      dup6\n        /* \"#utility.yul\":2008:2012   */\n      0x20\n        /* \"#utility.yul\":2001:2006   */\n      dup7\n        /* \"#utility.yul\":1997:2013   */\n      add\n        /* \"#utility.yul\":1975:2027   */\n      tag_80\n      jump\t// in\n    tag_79:\n        /* \"#utility.yul\":2052:2081   */\n      tag_81\n        /* \"#utility.yul\":2074:2080   */\n      dup2\n        /* \"#utility.yul\":2052:2081   */\n      tag_82\n      jump\t// in\n    tag_81:\n        /* \"#utility.yul\":2047:2050   */\n      dup5\n        /* \"#utility.yul\":2043:2082   */\n      add\n        /* \"#utility.yul\":2036:2082   */\n      swap2\n      pop\n        /* \"#utility.yul\":1818:2088   */\n      pop\n        /* \"#utility.yul\":1728:2088   */\n      swap3\n      swap2\n      pop\n      pop\n      jump\t// out\n        /* \"#utility.yul\":2094:2403   */\n    tag_9:\n        /* \"#utility.yul\":2205:2209   */\n      0x00\n        /* \"#utility.yul\":2243:2245   */\n      0x20\n        /* \"#utility.yul\":2232:2241   */\n      dup3\n        /* \"#utility.yul\":2228:2246   */\n      add\n        /* \"#utility.yul\":2220:2246   */\n      swap1\n      pop\n        /* \"#utility.yul\":2292:2301   */\n      dup2\n        /* \"#utility.yul\":2286:2290   */\n      dup2\n        /* \"#utility.yul\":2282:2302   */\n      sub\n        /* \"#utility.yul\":2278:2279   */\n      0x00\n        /* \"#utility.yul\":2267:2276   */\n      dup4\n        /* \"#utility.yul\":2263:2280   */\n      add\n        /* \"#utility.yul\":2256:2303   */\n      mstore\n        /* \"#utility.yul\":2320:2396   */\n      tag_84\n        /* \"#utility.yul\":2391:2395   */\n      dup2\n        /* \"#utility.yul\":2382:2388   */\n      dup5\n        /* \"#utility.yul\":2320:2396   */\n      tag_73\n      jump\t// in\n    tag_84:\n        /* \"#utility.yul\":2312:2396   */\n      swap1\n      pop\n        /* \"#utility.yul\":2094:2403   */\n      swap3\n      swap2\n      pop\n      pop\n      jump\t// out\n        /* \"#utility.yul\":2409:2538   */\n    tag_47:\n        /* \"#utility.yul\":2443:2449   */\n      0x00\n        /* \"#utility.yul\":2470:2490   */\n      tag_86\n      tag_87\n      jump\t// in\n    tag_86:\n        /* \"#utility.yul\":2460:2490   */\n      swap1\n      pop\n        /* \"#utility.yul\":2499:2532   */\n      tag_88\n        /* \"#utility.yul\":2527:2531   */\n      dup3\n        /* \"#utility.yul\":2519:2525   */\n      dup3\n        /* \"#utility.yul\":2499:2532   */\n      tag_89\n      jump\t// in\n    tag_88:\n        /* \"#utility.yul\":2409:2538   */\n      swap2\n      swap1\n      pop\n      jump\t// out\n        /* \"#utility.yul\":2544:2619   */\n    tag_87:\n        /* \"#utility.yul\":2577:2583   */\n      0x00\n        /* \"#utility.yul\":2610:2612   */\n      0x40\n        /* \"#utility.yul\":2604:2613   */\n      mload\n        /* \"#utility.yul\":2594:2613   */\n      swap1\n      pop\n        /* \"#utility.yul\":2544:2619   */\n      swap1\n      jump\t// out\n        /* \"#utility.yul\":2625:2932   */\n    tag_46:\n        /* \"#utility.yul\":2686:2690   */\n      0x00\n        /* \"#utility.yul\":2776:2794   */\n      0xffffffffffffffff\n        /* \"#utility.yul\":2768:2774   */\n      dup3\n        /* \"#utility.yul\":2765:2795   */\n      gt\n        /* \"#utility.yul\":2762:2818   */\n      iszero\n      tag_92\n      jumpi\n        /* \"#utility.yul\":2798:2816   */\n      tag_93\n      tag_94\n      jump\t// in\n    tag_93:\n        /* \"#utility.yul\":2762:2818   */\n    tag_92:\n        /* \"#utility.yul\":2836:2865   */\n      tag_95\n        /* \"#utility.yul\":2858:2864   */\n      dup3\n        /* \"#utility.yul\":2836:2865   */\n      tag_82\n      jump\t// in\n    tag_95:\n        /* \"#utility.yul\":2828:2865   */\n      swap1\n      pop\n        /* \"#utility.yul\":2920:2924   */\n      0x20\n        /* \"#utility.yul\":2914:2918   */\n      dup2\n        /* \"#utility.yul\":2910:2925   */\n      add\n        /* \"#utility.yul\":2902:2925   */\n      swap1\n      pop\n        /* \"#utility.yul\":2625:2932   */\n      swap2\n      swap1\n      pop\n      jump\t// out\n        /* \"#utility.yul\":2938:3036   */\n    tag_76:\n        /* \"#utility.yul\":2989:2995   */\n      0x00\n        /* \"#utility.yul\":3023:3028   */\n      dup2\n        /* \"#utility.yul\":3017:3029   */\n      mload\n        /* \"#utility.yul\":3007:3029   */\n      swap1\n      pop\n        /* \"#utility.yul\":2938:3036   */\n      swap2\n      swap1\n      pop\n      jump\t// out\n        /* \"#utility.yul\":3042:3210   */\n    tag_78:\n        /* \"#utility.yul\":3125:3136   */\n      0x00\n        /* \"#utility.yul\":3159:3165   */\n      dup3\n        /* \"#utility.yul\":3154:3157   */\n      dup3\n        /* \"#utility.yul\":3147:3166   */\n      mstore\n        /* \"#utility.yul\":3199:3203   */\n      0x20\n        /* \"#utility.yul\":3194:3197   */\n      dup3\n        /* \"#utility.yul\":3190:3204   */\n      add\n        /* \"#utility.yul\":3175:3204   */\n      swap1\n      pop\n        /* \"#utility.yul\":3042:3210   */\n      swap3\n      swap2\n      pop\n      pop\n      jump\t// out\n        /* \"#utility.yul\":3216:3521   */\n    tag_34:\n        /* \"#utility.yul\":3256:3259   */\n      0x00\n        /* \"#utility.yul\":3275:3295   */\n      tag_99\n        /* \"#utility.yul\":3293:3294   */\n      dup3\n        /* \"#utility.yul\":3275:3295   */\n      tag_100\n      jump\t// in\n    tag_99:\n        /* \"#utility.yul\":3270:3295   */\n      swap2\n      pop\n        /* \"#utility.yul\":3309:3329   */\n      tag_101\n        /* \"#utility.yul\":3327:3328   */\n      dup4\n        /* \"#utility.yul\":3309:3329   */\n      tag_100\n      jump\t// in\n    tag_101:\n        /* \"#utility.yul\":3304:3329   */\n      swap3\n      pop\n        /* \"#utility.yul\":3463:3464   */\n      dup3\n        /* \"#utility.yul\":3395:3461   */\n      0xffffffffffffffffffffffffffffffffffffffffffffffffffffffffffffffff\n        /* \"#utility.yul\":3391:3465   */\n      sub\n        /* \"#utility.yul\":3388:3389   */\n      dup3\n        /* \"#utility.yul\":3385:3466   */\n      gt\n        /* \"#utility.yul\":3382:3489   */\n      iszero\n      tag_102\n      jumpi\n        /* \"#utility.yul\":3469:3487   */\n      tag_103\n      tag_104\n      jump\t// in\n    tag_103:\n        /* \"#utility.yul\":3382:3489   */\n    tag_102:\n        /* \"#utility.yul\":3513:3514   */\n      dup3\n        /* \"#utility.yul\":3510:3511   */\n      dup3\n        /* \"#utility.yul\":3506:3515   */\n      add\n        /* \"#utility.yul\":3499:3515   */\n      swap1\n      pop\n        /* \"#utility.yul\":3216:3521   */\n      swap3\n      swap2\n      pop\n      pop\n      jump\t// out\n        /* \"#utility.yul\":3527:3604   */\n    tag_100:\n        /* \"#utility.yul\":3564:3571   */\n      0x00\n        /* \"#utility.yul\":3593:3598   */\n      dup2\n        /* \"#utility.yul\":3582:3598   */\n      swap1\n      pop\n        /* \"#utility.yul\":3527:3604   */\n      swap2\n      swap1\n      pop\n      jump\t// out\n        /* \"#utility.yul\":3610:3764   */\n    tag_52:\n        /* \"#utility.yul\":3694:3700   */\n      dup3\n        /* \"#utility.yul\":3689:3692   */\n      dup2\n        /* \"#utility.yul\":3684:3687   */\n      dup4\n        /* \"#utility.yul\":3671:3701   */\n      calldatacopy\n        /* \"#utility.yul\":3756:3757   */\n      0x00\n        /* \"#utility.yul\":3747:3753   */\n      dup4\n        /* \"#utility.yul\":3742:3745   */\n      dup4\n        /* \"#utility.yul\":3738:3754   */\n      add\n        /* \"#utility.yul\":3731:3758   */\n      mstore\n        /* \"#utility.yul\":3610:3764   */\n      pop\n      pop\n      pop\n      jump\t// out\n        /* \"#utility.yul\":3770:4077   */\n    tag_80:\n        /* \"#utility.yul\":3838:3839   */\n      0x00\n        /* \"#utility.yul\":3848:3961   */\n    tag_108:\n        /* \"#utility.yul\":3862:3868   */\n      dup4\n        /* \"#utility.yul\":3859:3860   */\n      dup2\n        /* \"#utility.yul\":3856:3869   */\n      lt\n        /* \"#utility.yul\":3848:3961   */\n      iszero\n      tag_110\n      jumpi\n        /* \"#utility.yul\":3947:3948   */\n      dup1\n        /* \"#utility.yul\":3942:3945   */\n      dup3\n        /* \"#utility.yul\":3938:3949   */\n      add\n        /* \"#utility.yul\":3932:3950   */\n      mload\n        /* \"#utility.yul\":3928:3929   */\n      dup2\n        /* \"#utility.yul\":3923:3926   */\n      dup5\n        /* \"#utility.yul\":3919:3930   */\n      add\n        /* \"#utility.yul\":3912:3951   */\n      mstore\n        /* \"#utility.yul\":3884:3886   */\n      0x20\n        /* \"#utility.yul\":3881:3882   */\n      dup2\n        /* \"#utility.yul\":3877:3887   */\n      add\n        /* \"#utility.yul\":3872:3887   */\n      swap1\n      pop\n        /* \"#utility.yul\":3848:3961   */\n      jump(tag_108)\n    tag_110:\n        /* \"#utility.yul\":3979:3985   */\n      dup4\n        /* \"#utility.yul\":3976:3977   */\n      dup2\n        /* \"#utility.yul\":3973:3986   */\n      gt\n        /* \"#utility.yul\":3970:4071   */\n      iszero\n      tag_111\n      jumpi\n        /* \"#utility.yul\":4059:4060   */\n      0x00\n        /* \"#utility.yul\":4050:4056   */\n      dup5\n        /* \"#utility.yul\":4045:4048   */\n      dup5\n        /* \"#utility.yul\":4041:4057   */\n      add\n        /* \"#utility.yul\":4034:4061   */\n      mstore\n        /* \"#utility.yul\":3970:4071   */\n    tag_111:\n        /* \"#utility.yul\":3819:4077   */\n      pop\n        /* \"#utility.yul\":3770:4077   */\n      pop\n      pop\n      pop\n      jump\t// out\n        /* \"#utility.yul\":4083:4403   */\n    tag_19:\n        /* \"#utility.yul\":4127:4133   */\n      0x00\n        /* \"#utility.yul\":4164:4165   */\n      0x02\n        /* \"#utility.yul\":4158:4162   */\n      dup3\n        /* \"#utility.yul\":4154:4166   */\n      div\n        /* \"#utility.yul\":4144:4166   */\n      swap1\n      pop\n        /* \"#utility.yul\":4211:4212   */\n      0x01\n        /* \"#utility.yul\":4205:4209   */\n      dup3\n        /* \"#utility.yul\":4201:4213   */\n      and\n        /* \"#utility.yul\":4232:4250   */\n      dup1\n        /* \"#utility.yul\":4222:4303   */\n      tag_113\n      jumpi\n        /* \"#utility.yul\":4288:4292   */\n      0x7f\n        /* \"#utility.yul\":4280:4286   */\n      dup3\n        /* \"#utility.yul\":4276:4293   */\n      and\n        /* \"#utility.yul\":4266:4293   */\n      swap2\n      pop\n        /* \"#utility.yul\":4222:4303   */\n    tag_113:\n        /* \"#utility.yul\":4350:4352   */\n      0x20\n        /* \"#utility.yul\":4342:4348   */\n      dup3\n        /* \"#utility.yul\":4339:4353   */\n      lt\n        /* \"#utility.yul\":4319:4337   */\n      dup2\n        /* \"#utility.yul\":4316:4354   */\n      eq\n        /* \"#utility.yul\":4313:4397   */\n      iszero\n      tag_114\n      jumpi\n        /* \"#utility.yul\":4369:4387   */\n      tag_115\n      tag_116\n      jump\t// in\n    tag_115:\n        /* \"#utility.yul\":4313:4397   */\n    tag_114:\n        /* \"#utility.yul\":4134:4403   */\n      pop\n        /* \"#utility.yul\":4083:4403   */\n      swap2\n      swap1\n      pop\n      jump\t// out\n        /* \"#utility.yul\":4409:4690   */\n    tag_89:\n        /* \"#utility.yul\":4492:4519   */\n      tag_118\n        /* \"#utility.yul\":4514:4518   */\n      dup3\n        /* \"#utility.yul\":4492:4519   */\n      tag_82\n      jump\t// in\n    tag_118:\n        /* \"#utility.yul\":4484:4490   */\n      dup2\n        /* \"#utility.yul\":4480:4520   */\n      add\n        /* \"#utility.yul\":4622:4628   */\n      dup2\n        /* \"#utility.yul\":4610:4620   */\n      dup2\n        /* \"#utility.yul\":4607:4629   */\n      lt\n        /* \"#utility.yul\":4586:4604   */\n      0xffffffffffffffff\n        /* \"#utility.yul\":4574:4584   */\n      dup3\n        /* \"#utility.yul\":4571:4605   */\n      gt\n        /* \"#utility.yul\":4568:4630   */\n      or\n        /* \"#utility.yul\":4565:4653   */\n      iszero\n      tag_119\n      jumpi\n        /* \"#utility.yul\":4633:4651   */\n      tag_120\n      tag_94\n      jump\t// in\n    tag_120:\n        /* \"#utility.yul\":4565:4653   */\n    tag_119:\n        /* \"#utility.yul\":4673:4683   */\n      dup1\n        /* \"#utility.yul\":4669:4671   */\n      0x40\n        /* \"#utility.yul\":4662:4684   */\n      mstore\n        /* \"#utility.yul\":4452:4690   */\n      pop\n        /* \"#utility.yul\":4409:4690   */\n      pop\n      pop\n      jump\t// out\n        /* \"#utility.yul\":4696:4876   */\n    tag_104:\n        /* \"#utility.yul\":4744:4821   */\n      0x4e487b7100000000000000000000000000000000000000000000000000000000\n        /* \"#utility.yul\":4741:4742   */\n      0x00\n        /* \"#utility.yul\":4734:4822   */\n      mstore\n        /* \"#utility.yul\":4841:4845   */\n      0x11\n        /* \"#utility.yul\":4838:4839   */\n      0x04\n        /* \"#utility.yul\":4831:4846   */\n      mstore\n        /* \"#utility.yul\":4865:4869   */\n      0x24\n        /* \"#utility.yul\":4862:4863   */\n      0x00\n        /* \"#utility.yul\":4855:4870   */\n      revert\n        /* \"#utility.yul\":4882:5062   */\n    tag_116:\n        /* \"#utility.yul\":4930:5007   */\n      0x4e487b7100000000000000000000000000000000000000000000000000000000\n        /* \"#utility.yul\":4927:4928   */\n      0x00\n        /* \"#utility.yul\":4920:5008   */\n      mstore\n        /* \"#utility.yul\":5027:5031   */\n      0x22\n        /* \"#utility.yul\":5024:5025   */\n      0x04\n        /* \"#utility.yul\":5017:5032   */\n      mstore\n        /* \"#utility.yul\":5051:5055   */\n      0x24\n        /* \"#utility.yul\":5048:5049   */\n      0x00\n        /* \"#utility.yul\":5041:5056   */\n      revert\n        /* \"#utility.yul\":5068:5248   */\n    tag_94:\n        /* \"#utility.yul\":5116:5193   */\n      0x4e487b7100000000000000000000000000000000000000000000000000000000\n        /* \"#utility.yul\":5113:5114   */\n      0x00\n        /* \"#utility.yul\":5106:5194   */\n      mstore\n        /* \"#utility.yul\":5213:5217   */\n      0x41\n        /* \"#utility.yul\":5210:5211   */\n      0x04\n        /* \"#utility.yul\":5203:5218   */\n      mstore\n        /* \"#utility.yul\":5237:5241   */\n      0x24\n        /* \"#utility.yul\":5234:5235   */\n      0x00\n        /* \"#utility.yul\":5227:5242   */\n      revert\n        /* \"#utility.yul\":5254:5371   */\n    tag_57:\n        /* \"#utility.yul\":5363:5364   */\n      0x00\n        /* \"#utility.yul\":5360:5361   */\n      dup1\n        /* \"#utility.yul\":5353:5365   */\n      revert\n        /* \"#utility.yul\":5377:5494   */\n    tag_50:\n        /* \"#utility.yul\":5486:5487   */\n      0x00\n        /* \"#utility.yul\":5483:5484   */\n      dup1\n        /* \"#utility.yul\":5476:5488   */\n      revert\n        /* \"#utility.yul\":5500:5617   */\n    tag_69:\n        /* \"#utility.yul\":5609:5610   */\n      0x00\n        /* \"#utility.yul\":5606:5607   */\n      dup1\n        /* \"#utility.yul\":5599:5611   */\n      revert\n        /* \"#utility.yul\":5623:5740   */\n    tag_66:\n        /* \"#utility.yul\":5732:5733   */\n      0x00\n        /* \"#utility.yul\":5729:5730   */\n      dup1\n        /* \"#utility.yul\":5722:5734   */\n      revert\n        /* \"#utility.yul\":5746:5848   */\n    tag_82:\n        /* \"#utility.yul\":5787:5793   */\n      0x00\n        /* \"#utility.yul\":5838:5840   */\n      0x1f\n        /* \"#utility.yul\":5834:5841   */\n      not\n        /* \"#utility.yul\":5829:5831   */\n      0x1f\n        /* \"#utility.yul\":5822:5827   */\n      dup4\n        /* \"#utility.yul\":5818:5832   */\n      add\n        /* \"#utility.yul\":5814:5842   */\n      and\n        /* \"#utility.yul\":5804:5842   */\n      swap1\n      pop\n        /* \"#utility.yul\":5746:5848   */\n      swap2\n      swap1\n      pop\n      jump\t// out\n        /* \"#utility.yul\":5854:5976   */\n    tag_62:\n        /* \"#utility.yul\":5927:5951   */\n      tag_130\n        /* \"#utility.yul\":5945:5950   */\n      dup2\n        /* \"#utility.yul\":5927:5951   */\n      tag_100\n      jump\t// in\n    tag_130:\n        /* \"#utility.yul\":5920:5925   */\n      dup2\n        /* \"#utility.yul\":5917:5952   */\n      eq\n        /* \"#utility.yul\":5907:5970   */\n      tag_131\n      jumpi\n        /* \"#utility.yul\":5966:5967   */\n      0x00\n        /* \"#utility.yul\":5963:5964   */\n      dup1\n        /* \"#utility.yul\":5956:5968   */\n      revert\n        /* \"#utility.yul\":5907:5970   */\n    tag_131:\n        /* \"#utility.yul\":5854:5976   */\n      pop\n      jump\t// out\n\n    auxdata: 0xa2646970667358221220c1f8ef8dc07e3695cf266b5d47ffd6de5b5d65d02dd13518a0279bb7c201cde864736f6c63430008070033\n}\n",
				"bytecode": {
					"linkReferences": {},
					"object": "60806040526040518060400160405280600a81526020017f4e414c45484f4e47564f000000000000000000000000000000000000000000008152506000908051906020019061004f9291906100ae565b506040518060400160405280601d81526020017f4c45484f4e47564f776a6e66766a33776568387668736164666a6f69660000008152506001908051906020019061009b9291906100ae565b503480156100a857600080fd5b506101b2565b8280546100ba90610151565b90600052602060002090601f0160209004810192826100dc5760008555610123565b82601f106100f557805160ff1916838001178555610123565b82800160010185558215610123579182015b82811115610122578251825591602001919060010190610107565b5b5090506101309190610134565b5090565b5b8082111561014d576000816000905550600101610135565b5090565b6000600282049050600182168061016957607f821691505b6020821081141561017d5761017c610183565b5b50919050565b7f4e487b7100000000000000000000000000000000000000000000000000000000600052602260045260246000fd5b61063e806101c16000396000f3fe608060405234801561001057600080fd5b50600436106100415760003560e01c80639ffd85c414610046578063b950d54614610064578063e3a7fd7514610094575b600080fd5b61004e6100b2565b60405161005b91906103a6565b60405180910390f35b61007e600480360381019061007991906102fe565b610140565b60405161008b91906103a6565b60405180910390f35b61009c610156565b6040516100a991906103a6565b60405180910390f35b600080546100bf906104dc565b80601f01602080910402602001604051908101604052809291908181526020018280546100eb906104dc565b80156101385780601f1061010d57610100808354040283529160200191610138565b820191906000526020600020905b81548152906001019060200180831161011b57829003601f168201915b505050505081565b606061014d8484846101e4565b90509392505050565b60018054610163906104dc565b80601f016020809104026020016040519081016040528092919081815260200182805461018f906104dc565b80156101dc5780601f106101b1576101008083540402835291602001916101dc565b820191906000526020600020905b8154815290600101906020018083116101bf57829003601f168201915b505050505081565b606081836101f2919061043a565b845110156101ff57600080fd5b606082156000811461021c5760405191506020820160405261026d565b6040519150601f8416801560200281840101858101878315602002848b0101015b8183101561025a578051835260208301925060208101905061023d565b50868552601f19601f8301166040525050505b50809150509392505050565b600061028c610287846103ed565b6103c8565b9050828152602081018484840111156102a8576102a76105d1565b5b6102b384828561049a565b509392505050565b600082601f8301126102d0576102cf6105cc565b5b81356102e0848260208601610279565b91505092915050565b6000813590506102f8816105f1565b92915050565b600080600060608486031215610317576103166105db565b5b600084013567ffffffffffffffff811115610335576103346105d6565b5b610341868287016102bb565b9350506020610352868287016102e9565b9250506040610363868287016102e9565b9150509250925092565b60006103788261041e565b6103828185610429565b93506103928185602086016104a9565b61039b816105e0565b840191505092915050565b600060208201905081810360008301526103c0818461036d565b905092915050565b60006103d26103e3565b90506103de828261050e565b919050565b6000604051905090565b600067ffffffffffffffff8211156104085761040761059d565b5b610411826105e0565b9050602081019050919050565b600081519050919050565b600082825260208201905092915050565b600061044582610490565b915061045083610490565b9250827fffffffffffffffffffffffffffffffffffffffffffffffffffffffffffffffff038211156104855761048461053f565b5b828201905092915050565b6000819050919050565b82818337600083830152505050565b60005b838110156104c75780820151818401526020810190506104ac565b838111156104d6576000848401525b50505050565b600060028204905060018216806104f457607f821691505b602082108114156105085761050761056e565b5b50919050565b610517826105e0565b810181811067ffffffffffffffff821117156105365761053561059d565b5b80604052505050565b7f4e487b7100000000000000000000000000000000000000000000000000000000600052601160045260246000fd5b7f4e487b7100000000000000000000000000000000000000000000000000000000600052602260045260246000fd5b7f4e487b7100000000000000000000000000000000000000000000000000000000600052604160045260246000fd5b600080fd5b600080fd5b600080fd5b600080fd5b6000601f19601f8301169050919050565b6105fa81610490565b811461060557600080fd5b5056fea2646970667358221220c1f8ef8dc07e3695cf266b5d47ffd6de5b5d65d02dd13518a0279bb7c201cde864736f6c63430008070033",
					"opcodes": "PUSH1 0x80 PUSH1 0x40 MSTORE PUSH1 0x40 MLOAD DUP1 PUSH1 0x40 ADD PUSH1 0x40 MSTORE DUP1 PUSH1 0xA DUP2 MSTORE PUSH1 0x20 ADD PUSH32 0x4E414C45484F4E47564F00000000000000000000000000000000000000000000 DUP2 MSTORE POP PUSH1 0x0 SWAP1 DUP1 MLOAD SWAP1 PUSH1 0x20 ADD SWAP1 PUSH2 0x4F SWAP3 SWAP2 SWAP1 PUSH2 0xAE JUMP JUMPDEST POP PUSH1 0x40 MLOAD DUP1 PUSH1 0x40 ADD PUSH1 0x40 MSTORE DUP1 PUSH1 0x1D DUP2 MSTORE PUSH1 0x20 ADD PUSH32 0x4C45484F4E47564F776A6E66766A33776568387668736164666A6F6966000000 DUP2 MSTORE POP PUSH1 0x1 SWAP1 DUP1 MLOAD SWAP1 PUSH1 0x20 ADD SWAP1 PUSH2 0x9B SWAP3 SWAP2 SWAP1 PUSH2 0xAE JUMP JUMPDEST POP CALLVALUE DUP1 ISZERO PUSH2 0xA8 JUMPI PUSH1 0x0 DUP1 REVERT JUMPDEST POP PUSH2 0x1B2 JUMP JUMPDEST DUP3 DUP1 SLOAD PUSH2 0xBA SWAP1 PUSH2 0x151 JUMP JUMPDEST SWAP1 PUSH1 0x0 MSTORE PUSH1 0x20 PUSH1 0x0 KECCAK256 SWAP1 PUSH1 0x1F ADD PUSH1 0x20 SWAP1 DIV DUP2 ADD SWAP3 DUP3 PUSH2 0xDC JUMPI PUSH1 0x0 DUP6 SSTORE PUSH2 0x123 JUMP JUMPDEST DUP3 PUSH1 0x1F LT PUSH2 0xF5 JUMPI DUP1 MLOAD PUSH1 0xFF NOT AND DUP4 DUP1 ADD OR DUP6 SSTORE PUSH2 0x123 JUMP JUMPDEST DUP3 DUP1 ADD PUSH1 0x1 ADD DUP6 SSTORE DUP3 ISZERO PUSH2 0x123 JUMPI SWAP2 DUP3 ADD JUMPDEST DUP3 DUP2 GT ISZERO PUSH2 0x122 JUMPI DUP3 MLOAD DUP3 SSTORE SWAP2 PUSH1 0x20 ADD SWAP2 SWAP1 PUSH1 0x1 ADD SWAP1 PUSH2 0x107 JUMP JUMPDEST JUMPDEST POP SWAP1 POP PUSH2 0x130 SWAP2 SWAP1 PUSH2 0x134 JUMP JUMPDEST POP SWAP1 JUMP JUMPDEST JUMPDEST DUP1 DUP3 GT ISZERO PUSH2 0x14D JUMPI PUSH1 0x0 DUP2 PUSH1 0x0 SWAP1 SSTORE POP PUSH1 0x1 ADD PUSH2 0x135 JUMP JUMPDEST POP SWAP1 JUMP JUMPDEST PUSH1 0x0 PUSH1 0x2 DUP3 DIV SWAP1 POP PUSH1 0x1 DUP3 AND DUP1 PUSH2 0x169 JUMPI PUSH1 0x7F DUP3 AND SWAP2 POP JUMPDEST PUSH1 0x20 DUP3 LT DUP2 EQ ISZERO PUSH2 0x17D JUMPI PUSH2 0x17C PUSH2 0x183 JUMP JUMPDEST JUMPDEST POP SWAP2 SWAP1 POP JUMP JUMPDEST PUSH32 0x4E487B7100000000000000000000000000000000000000000000000000000000 PUSH1 0x0 MSTORE PUSH1 0x22 PUSH1 0x4 MSTORE PUSH1 0x24 PUSH1 0x0 REVERT JUMPDEST PUSH2 0x63E DUP1 PUSH2 0x1C1 PUSH1 0x0 CODECOPY PUSH1 0x0 RETURN INVALID PUSH1 0x80 PUSH1 0x40 MSTORE CALLVALUE DUP1 ISZERO PUSH2 0x10 JUMPI PUSH1 0x0 DUP1 REVERT JUMPDEST POP PUSH1 0x4 CALLDATASIZE LT PUSH2 0x41 JUMPI PUSH1 0x0 CALLDATALOAD PUSH1 0xE0 SHR DUP1 PUSH4 0x9FFD85C4 EQ PUSH2 0x46 JUMPI DUP1 PUSH4 0xB950D546 EQ PUSH2 0x64 JUMPI DUP1 PUSH4 0xE3A7FD75 EQ PUSH2 0x94 JUMPI JUMPDEST PUSH1 0x0 DUP1 REVERT JUMPDEST PUSH2 0x4E PUSH2 0xB2 JUMP JUMPDEST PUSH1 0x40 MLOAD PUSH2 0x5B SWAP2 SWAP1 PUSH2 0x3A6 JUMP JUMPDEST PUSH1 0x40 MLOAD DUP1 SWAP2 SUB SWAP1 RETURN JUMPDEST PUSH2 0x7E PUSH1 0x4 DUP1 CALLDATASIZE SUB DUP2 ADD SWAP1 PUSH2 0x79 SWAP2 SWAP1 PUSH2 0x2FE JUMP JUMPDEST PUSH2 0x140 JUMP JUMPDEST PUSH1 0x40 MLOAD PUSH2 0x8B SWAP2 SWAP1 PUSH2 0x3A6 JUMP JUMPDEST PUSH1 0x40 MLOAD DUP1 SWAP2 SUB SWAP1 RETURN JUMPDEST PUSH2 0x9C PUSH2 0x156 JUMP JUMPDEST PUSH1 0x40 MLOAD PUSH2 0xA9 SWAP2 SWAP1 PUSH2 0x3A6 JUMP JUMPDEST PUSH1 0x40 MLOAD DUP1 SWAP2 SUB SWAP1 RETURN JUMPDEST PUSH1 0x0 DUP1 SLOAD PUSH2 0xBF SWAP1 PUSH2 0x4DC JUMP JUMPDEST DUP1 PUSH1 0x1F ADD PUSH1 0x20 DUP1 SWAP2 DIV MUL PUSH1 0x20 ADD PUSH1 0x40 MLOAD SWAP1 DUP2 ADD PUSH1 0x40 MSTORE DUP1 SWAP3 SWAP2 SWAP1 DUP2 DUP2 MSTORE PUSH1 0x20 ADD DUP3 DUP1 SLOAD PUSH2 0xEB SWAP1 PUSH2 0x4DC JUMP JUMPDEST DUP1 ISZERO PUSH2 0x138 JUMPI DUP1 PUSH1 0x1F LT PUSH2 0x10D JUMPI PUSH2 0x100 DUP1 DUP4 SLOAD DIV MUL DUP4 MSTORE SWAP2 PUSH1 0x20 ADD SWAP2 PUSH2 0x138 JUMP JUMPDEST DUP3 ADD SWAP2 SWAP1 PUSH1 0x0 MSTORE PUSH1 0x20 PUSH1 0x0 KECCAK256 SWAP1 JUMPDEST DUP2 SLOAD DUP2 MSTORE SWAP1 PUSH1 0x1 ADD SWAP1 PUSH1 0x20 ADD DUP1 DUP4 GT PUSH2 0x11B JUMPI DUP3 SWAP1 SUB PUSH1 0x1F AND DUP3 ADD SWAP2 JUMPDEST POP POP POP POP POP DUP2 JUMP JUMPDEST PUSH1 0x60 PUSH2 0x14D DUP5 DUP5 DUP5 PUSH2 0x1E4 JUMP JUMPDEST SWAP1 POP SWAP4 SWAP3 POP POP POP JUMP JUMPDEST PUSH1 0x1 DUP1 SLOAD PUSH2 0x163 SWAP1 PUSH2 0x4DC JUMP JUMPDEST DUP1 PUSH1 0x1F ADD PUSH1 0x20 DUP1 SWAP2 DIV MUL PUSH1 0x20 ADD PUSH1 0x40 MLOAD SWAP1 DUP2 ADD PUSH1 0x40 MSTORE DUP1 SWAP3 SWAP2 SWAP1 DUP2 DUP2 MSTORE PUSH1 0x20 ADD DUP3 DUP1 SLOAD PUSH2 0x18F SWAP1 PUSH2 0x4DC JUMP JUMPDEST DUP1 ISZERO PUSH2 0x1DC JUMPI DUP1 PUSH1 0x1F LT PUSH2 0x1B1 JUMPI PUSH2 0x100 DUP1 DUP4 SLOAD DIV MUL DUP4 MSTORE SWAP2 PUSH1 0x20 ADD SWAP2 PUSH2 0x1DC JUMP JUMPDEST DUP3 ADD SWAP2 SWAP1 PUSH1 0x0 MSTORE PUSH1 0x20 PUSH1 0x0 KECCAK256 SWAP1 JUMPDEST DUP2 SLOAD DUP2 MSTORE SWAP1 PUSH1 0x1 ADD SWAP1 PUSH1 0x20 ADD DUP1 DUP4 GT PUSH2 0x1BF JUMPI DUP3 SWAP1 SUB PUSH1 0x1F AND DUP3 ADD SWAP2 JUMPDEST POP POP POP POP POP DUP2 JUMP JUMPDEST PUSH1 0x60 DUP2 DUP4 PUSH2 0x1F2 SWAP2 SWAP1 PUSH2 0x43A JUMP JUMPDEST DUP5 MLOAD LT ISZERO PUSH2 0x1FF JUMPI PUSH1 0x0 DUP1 REVERT JUMPDEST PUSH1 0x60 DUP3 ISZERO PUSH1 0x0 DUP2 EQ PUSH2 0x21C JUMPI PUSH1 0x40 MLOAD SWAP2 POP PUSH1 0x20 DUP3 ADD PUSH1 0x40 MSTORE PUSH2 0x26D JUMP JUMPDEST PUSH1 0x40 MLOAD SWAP2 POP PUSH1 0x1F DUP5 AND DUP1 ISZERO PUSH1 0x20 MUL DUP2 DUP5 ADD ADD DUP6 DUP2 ADD DUP8 DUP4 ISZERO PUSH1 0x20 MUL DUP5 DUP12 ADD ADD ADD JUMPDEST DUP2 DUP4 LT ISZERO PUSH2 0x25A JUMPI DUP1 MLOAD DUP4 MSTORE PUSH1 0x20 DUP4 ADD SWAP3 POP PUSH1 0x20 DUP2 ADD SWAP1 POP PUSH2 0x23D JUMP JUMPDEST POP DUP7 DUP6 MSTORE PUSH1 0x1F NOT PUSH1 0x1F DUP4 ADD AND PUSH1 0x40 MSTORE POP POP POP JUMPDEST POP DUP1 SWAP2 POP POP SWAP4 SWAP3 POP POP POP JUMP JUMPDEST PUSH1 0x0 PUSH2 0x28C PUSH2 0x287 DUP5 PUSH2 0x3ED JUMP JUMPDEST PUSH2 0x3C8 JUMP JUMPDEST SWAP1 POP DUP3 DUP2 MSTORE PUSH1 0x20 DUP2 ADD DUP5 DUP5 DUP5 ADD GT ISZERO PUSH2 0x2A8 JUMPI PUSH2 0x2A7 PUSH2 0x5D1 JUMP JUMPDEST JUMPDEST PUSH2 0x2B3 DUP5 DUP3 DUP6 PUSH2 0x49A JUMP JUMPDEST POP SWAP4 SWAP3 POP POP POP JUMP JUMPDEST PUSH1 0x0 DUP3 PUSH1 0x1F DUP4 ADD SLT PUSH2 0x2D0 JUMPI PUSH2 0x2CF PUSH2 0x5CC JUMP JUMPDEST JUMPDEST DUP2 CALLDATALOAD PUSH2 0x2E0 DUP5 DUP3 PUSH1 0x20 DUP7 ADD PUSH2 0x279 JUMP JUMPDEST SWAP2 POP POP SWAP3 SWAP2 POP POP JUMP JUMPDEST PUSH1 0x0 DUP2 CALLDATALOAD SWAP1 POP PUSH2 0x2F8 DUP2 PUSH2 0x5F1 JUMP JUMPDEST SWAP3 SWAP2 POP POP JUMP JUMPDEST PUSH1 0x0 DUP1 PUSH1 0x0 PUSH1 0x60 DUP5 DUP7 SUB SLT ISZERO PUSH2 0x317 JUMPI PUSH2 0x316 PUSH2 0x5DB JUMP JUMPDEST JUMPDEST PUSH1 0x0 DUP5 ADD CALLDATALOAD PUSH8 0xFFFFFFFFFFFFFFFF DUP2 GT ISZERO PUSH2 0x335 JUMPI PUSH2 0x334 PUSH2 0x5D6 JUMP JUMPDEST JUMPDEST PUSH2 0x341 DUP7 DUP3 DUP8 ADD PUSH2 0x2BB JUMP JUMPDEST SWAP4 POP POP PUSH1 0x20 PUSH2 0x352 DUP7 DUP3 DUP8 ADD PUSH2 0x2E9 JUMP JUMPDEST SWAP3 POP POP PUSH1 0x40 PUSH2 0x363 DUP7 DUP3 DUP8 ADD PUSH2 0x2E9 JUMP JUMPDEST SWAP2 POP POP SWAP3 POP SWAP3 POP SWAP3 JUMP JUMPDEST PUSH1 0x0 PUSH2 0x378 DUP3 PUSH2 0x41E JUMP JUMPDEST PUSH2 0x382 DUP2 DUP6 PUSH2 0x429 JUMP JUMPDEST SWAP4 POP PUSH2 0x392 DUP2 DUP6 PUSH1 0x20 DUP7 ADD PUSH2 0x4A9 JUMP JUMPDEST PUSH2 0x39B DUP2 PUSH2 0x5E0 JUMP JUMPDEST DUP5 ADD SWAP2 POP POP SWAP3 SWAP2 POP POP JUMP JUMPDEST PUSH1 0x0 PUSH1 0x20 DUP3 ADD SWAP1 POP DUP2 DUP2 SUB PUSH1 0x0 DUP4 ADD MSTORE PUSH2 0x3C0 DUP2 DUP5 PUSH2 0x36D JUMP JUMPDEST SWAP1 POP SWAP3 SWAP2 POP POP JUMP JUMPDEST PUSH1 0x0 PUSH2 0x3D2 PUSH2 0x3E3 JUMP JUMPDEST SWAP1 POP PUSH2 0x3DE DUP3 DUP3 PUSH2 0x50E JUMP JUMPDEST SWAP2 SWAP1 POP JUMP JUMPDEST PUSH1 0x0 PUSH1 0x40 MLOAD SWAP1 POP SWAP1 JUMP JUMPDEST PUSH1 0x0 PUSH8 0xFFFFFFFFFFFFFFFF DUP3 GT ISZERO PUSH2 0x408 JUMPI PUSH2 0x407 PUSH2 0x59D JUMP JUMPDEST JUMPDEST PUSH2 0x411 DUP3 PUSH2 0x5E0 JUMP JUMPDEST SWAP1 POP PUSH1 0x20 DUP2 ADD SWAP1 POP SWAP2 SWAP1 POP JUMP JUMPDEST PUSH1 0x0 DUP2 MLOAD SWAP1 POP SWAP2 SWAP1 POP JUMP JUMPDEST PUSH1 0x0 DUP3 DUP3 MSTORE PUSH1 0x20 DUP3 ADD SWAP1 POP SWAP3 SWAP2 POP POP JUMP JUMPDEST PUSH1 0x0 PUSH2 0x445 DUP3 PUSH2 0x490 JUMP JUMPDEST SWAP2 POP PUSH2 0x450 DUP4 PUSH2 0x490 JUMP JUMPDEST SWAP3 POP DUP3 PUSH32 0xFFFFFFFFFFFFFFFFFFFFFFFFFFFFFFFFFFFFFFFFFFFFFFFFFFFFFFFFFFFFFFFF SUB DUP3 GT ISZERO PUSH2 0x485 JUMPI PUSH2 0x484 PUSH2 0x53F JUMP JUMPDEST JUMPDEST DUP3 DUP3 ADD SWAP1 POP SWAP3 SWAP2 POP POP JUMP JUMPDEST PUSH1 0x0 DUP2 SWAP1 POP SWAP2 SWAP1 POP JUMP JUMPDEST DUP3 DUP2 DUP4 CALLDATACOPY PUSH1 0x0 DUP4 DUP4 ADD MSTORE POP POP POP JUMP JUMPDEST PUSH1 0x0 JUMPDEST DUP4 DUP2 LT ISZERO PUSH2 0x4C7 JUMPI DUP1 DUP3 ADD MLOAD DUP2 DUP5 ADD MSTORE PUSH1 0x20 DUP2 ADD SWAP1 POP PUSH2 0x4AC JUMP JUMPDEST DUP4 DUP2 GT ISZERO PUSH2 0x4D6 JUMPI PUSH1 0x0 DUP5 DUP5 ADD MSTORE JUMPDEST POP POP POP POP JUMP JUMPDEST PUSH1 0x0 PUSH1 0x2 DUP3 DIV SWAP1 POP PUSH1 0x1 DUP3 AND DUP1 PUSH2 0x4F4 JUMPI PUSH1 0x7F DUP3 AND SWAP2 POP JUMPDEST PUSH1 0x20 DUP3 LT DUP2 EQ ISZERO PUSH2 0x508 JUMPI PUSH2 0x507 PUSH2 0x56E JUMP JUMPDEST JUMPDEST POP SWAP2 SWAP1 POP JUMP JUMPDEST PUSH2 0x517 DUP3 PUSH2 0x5E0 JUMP JUMPDEST DUP2 ADD DUP2 DUP2 LT PUSH8 0xFFFFFFFFFFFFFFFF DUP3 GT OR ISZERO PUSH2 0x536 JUMPI PUSH2 0x535 PUSH2 0x59D JUMP JUMPDEST JUMPDEST DUP1 PUSH1 0x40 MSTORE POP POP POP JUMP JUMPDEST PUSH32 0x4E487B7100000000000000000000000000000000000000000000000000000000 PUSH1 0x0 MSTORE PUSH1 0x11 PUSH1 0x4 MSTORE PUSH1 0x24 PUSH1 0x0 REVERT JUMPDEST PUSH32 0x4E487B7100000000000000000000000000000000000000000000000000000000 PUSH1 0x0 MSTORE PUSH1 0x22 PUSH1 0x4 MSTORE PUSH1 0x24 PUSH1 0x0 REVERT JUMPDEST PUSH32 0x4E487B7100000000000000000000000000000000000000000000000000000000 PUSH1 0x0 MSTORE PUSH1 0x41 PUSH1 0x4 MSTORE PUSH1 0x24 PUSH1 0x0 REVERT JUMPDEST PUSH1 0x0 DUP1 REVERT JUMPDEST PUSH1 0x0 DUP1 REVERT JUMPDEST PUSH1 0x0 DUP1 REVERT JUMPDEST PUSH1 0x0 DUP1 REVERT JUMPDEST PUSH1 0x0 PUSH1 0x1F NOT PUSH1 0x1F DUP4 ADD AND SWAP1 POP SWAP2 SWAP1 POP JUMP JUMPDEST PUSH2 0x5FA DUP2 PUSH2 0x490 JUMP JUMPDEST DUP2 EQ PUSH2 0x605 JUMPI PUSH1 0x0 DUP1 REVERT JUMPDEST POP JUMP INVALID LOG2 PUSH5 0x6970667358 0x22 SLT KECCAK256 0xC1 0xF8 0xEF DUP14 0xC0 PUSH31 0x3695CF266B5D47FFD6DE5B5D65D02DD13518A0279BB7C201CDE864736F6C63 NUMBER STOP ADDMOD SMOD STOP CALLER "
				},
				"gasEstimates": {
					"creation": {
						"codeDepositCost": "319600",
						"executionCost": "infinite",
						"totalCost": "infinite"
					},
					"external": {
						"data1()": "infinite",
						"data2()": "infinite",
						"getData(bytes,uint256,uint256)": "infinite"
					},
					"internal": {
						"slice(bytes memory,uint256,uint256)": "infinite"
					}
				},
				"methodIdentifiers": {
					"data1()": "9ffd85c4",
					"data2()": "e3a7fd75",
					"getData(bytes,uint256,uint256)": "b950d546"
				}
			},
			"userdoc": {
				"kind": "user",
				"methods": {},
				"version": 1
			}
		}
	}
}