{
	"contracts/demo1.sol": {
		"CmnPkg": {
			"abi": [
				{
					"constant": true,
					"inputs": [],
					"name": "CROSS_CHAIN_KEY_PREFIX",
					"outputs": [
						{
							"internalType": "uint256",
							"name": "",
							"type": "uint256"
						}
					],
					"payable": false,
					"stateMutability": "view",
					"type": "function"
				},
				{
					"constant": true,
					"inputs": [],
					"name": "data2",
					"outputs": [
						{
							"internalType": "uint64",
							"name": "",
							"type": "uint64"
						}
					],
					"payable": false,
					"stateMutability": "view",
					"type": "function"
				},
				{
					"constant": true,
					"inputs": [],
					"name": "data3",
					"outputs": [
						{
							"internalType": "uint8",
							"name": "",
							"type": "uint8"
						}
					],
					"payable": false,
					"stateMutability": "view",
					"type": "function"
				},
				{
					"constant": true,
					"inputs": [],
					"name": "dataX",
					"outputs": [
						{
							"internalType": "bytes",
							"name": "",
							"type": "bytes"
						}
					],
					"payable": false,
					"stateMutability": "view",
					"type": "function"
				},
				{
					"constant": true,
					"inputs": [
						{
							"internalType": "bytes",
							"name": "payload",
							"type": "bytes"
						}
					],
					"name": "getDecodekey",
					"outputs": [
						{
							"internalType": "bool",
							"name": "",
							"type": "bool"
						},
						{
							"internalType": "uint8",
							"name": "",
							"type": "uint8"
						},
						{
							"internalType": "uint256",
							"name": "",
							"type": "uint256"
						},
						{
							"internalType": "bytes",
							"name": "",
							"type": "bytes"
						}
					],
					"payable": false,
					"stateMutability": "view",
					"type": "function"
				},
				{
					"constant": true,
					"inputs": [
						{
							"internalType": "uint64",
							"name": "_sequence",
							"type": "uint64"
						},
						{
							"internalType": "uint8",
							"name": "_channelID",
							"type": "uint8"
						}
					],
					"name": "getGeratekey",
					"outputs": [
						{
							"internalType": "bytes",
							"name": "",
							"type": "bytes"
						}
					],
					"payable": false,
					"stateMutability": "view",
					"type": "function"
				}
			],
			"devdoc": {
				"methods": {}
			},
			"evm": {
				"assembly": "    /* \"contracts/demo1.sol\":60:1867  contract CmnPkg {\r... */\n  mstore(0x40, 0x80)\n    /* \"contracts/demo1.sol\":173:177  3345 */\n  0x0d11\n    /* \"contracts/demo1.sol\":151:177  uint64 public data2 = 3345 */\n  0x00\n  dup1\n  0x0100\n  exp\n  dup2\n  sload\n  dup2\n  0xffffffffffffffff\n  mul\n  not\n  and\n  swap1\n  dup4\n  0xffffffffffffffff\n  and\n  mul\n  or\n  swap1\n  sstore\n  pop\n    /* \"contracts/demo1.sol\":205:207  30 */\n  0x1e\n    /* \"contracts/demo1.sol\":184:207  uint8 public data3 = 30 */\n  0x00\n  exp(0x0100, 0x08)\n  dup2\n  sload\n  dup2\n  0xff\n  mul\n  not\n  and\n  swap1\n  dup4\n  0xff\n  and\n  mul\n  or\n  swap1\n  sstore\n  pop\n    /* \"contracts/demo1.sol\":214:276  bytes public dataX = \"SIUDHSUIDB8923hdf8923hd8923efewf43f43f4\" */\n  mload(0x40)\n  dup1\n  0x60\n  add\n  0x40\n  mstore\n  dup1\n  0x27\n  dup2\n  mstore\n  0x20\n  add\n  data_86f040261acfff1e0dfbceb9d55f04ef7ff0430591b733bd922d9f06feeaf6a9\n  0x27\n  swap2\n  codecopy\n  0x01\n  swap1\n  dup1\n  mload\n  swap1\n  0x20\n  add\n  swap1\n  tag_1\n  swap3\n  swap2\n  swap1\n  tag_2\n  jump\t// in\ntag_1:\n  pop\n    /* \"contracts/demo1.sol\":60:1867  contract CmnPkg {\r... */\n  callvalue\n    /* \"--CODEGEN--\":8:17   */\n  dup1\n    /* \"--CODEGEN--\":5:7   */\n  iszero\n  tag_3\n  jumpi\n    /* \"--CODEGEN--\":30:31   */\n  0x00\n    /* \"--CODEGEN--\":27:28   */\n  dup1\n    /* \"--CODEGEN--\":20:32   */\n  revert\n    /* \"--CODEGEN--\":5:7   */\ntag_3:\n    /* \"contracts/demo1.sol\":60:1867  contract CmnPkg {\r... */\n  pop\n  jump(tag_4)\ntag_2:\n  dup3\n  dup1\n  sload\n  0x01\n  dup2\n  0x01\n  and\n  iszero\n  0x0100\n  mul\n  sub\n  and\n  0x02\n  swap1\n  div\n  swap1\n  0x00\n  mstore\n  keccak256(0x00, 0x20)\n  swap1\n  0x1f\n  add\n  0x20\n  swap1\n  div\n  dup2\n  add\n  swap3\n  dup3\n  0x1f\n  lt\n  tag_6\n  jumpi\n  dup1\n  mload\n  not(0xff)\n  and\n  dup4\n  dup1\n  add\n  or\n  dup6\n  sstore\n  jump(tag_5)\ntag_6:\n  dup3\n  dup1\n  add\n  0x01\n  add\n  dup6\n  sstore\n  dup3\n  iszero\n  tag_5\n  jumpi\n  swap2\n  dup3\n  add\ntag_7:\n  dup3\n  dup2\n  gt\n  iszero\n  tag_8\n  jumpi\n  dup3\n  mload\n  dup3\n  sstore\n  swap2\n  0x20\n  add\n  swap2\n  swap1\n  0x01\n  add\n  swap1\n  jump(tag_7)\ntag_8:\ntag_5:\n  pop\n  swap1\n  pop\n  tag_9\n  swap2\n  swap1\n  tag_10\n  jump\t// in\ntag_9:\n  pop\n  swap1\n  jump\t// out\ntag_10:\n  tag_11\n  swap2\n  swap1\ntag_12:\n  dup1\n  dup3\n  gt\n  iszero\n  tag_13\n  jumpi\n  0x00\n  dup2\n  0x00\n  swap1\n  sstore\n  pop\n  0x01\n  add\n  jump(tag_12)\ntag_13:\n  pop\n  swap1\n  jump\ntag_11:\n  swap1\n  jump\t// out\ntag_4:\n  dataSize(sub_0)\n  dup1\n  dataOffset(sub_0)\n  0x00\n  codecopy\n  0x00\n  return\nstop\ndata_86f040261acfff1e0dfbceb9d55f04ef7ff0430591b733bd922d9f06feeaf6a9 534955444853554944423839323368646638393233686438393233656665776634336634336634\n\nsub_0: assembly {\n        /* \"contracts/demo1.sol\":60:1867  contract CmnPkg {\r... */\n      mstore(0x40, 0x80)\n      callvalue\n        /* \"--CODEGEN--\":8:17   */\n      dup1\n        /* \"--CODEGEN--\":5:7   */\n      iszero\n      tag_1\n      jumpi\n        /* \"--CODEGEN--\":30:31   */\n      0x00\n        /* \"--CODEGEN--\":27:28   */\n      dup1\n        /* \"--CODEGEN--\":20:32   */\n      revert\n        /* \"--CODEGEN--\":5:7   */\n    tag_1:\n        /* \"contracts/demo1.sol\":60:1867  contract CmnPkg {\r... */\n      pop\n      jumpi(tag_2, lt(calldatasize, 0x04))\n      shr(0xe0, calldataload(0x00))\n      dup1\n      0x19d66618\n      eq\n      tag_3\n      jumpi\n      dup1\n      0x73da6c22\n      eq\n      tag_4\n      jumpi\n      dup1\n      0x863fe4ab\n      eq\n      tag_5\n      jumpi\n      dup1\n      0x9539ded9\n      eq\n      tag_6\n      jumpi\n      dup1\n      0xe3a7fd75\n      eq\n      tag_7\n      jumpi\n      dup1\n      0xfc26b0ab\n      eq\n      tag_8\n      jumpi\n    tag_2:\n      0x00\n      dup1\n      revert\n        /* \"contracts/demo1.sol\":214:276  bytes public dataX = \"SIUDHSUIDB8923hdf8923hd8923efewf43f43f4\" */\n    tag_3:\n      tag_9\n      tag_10\n      jump\t// in\n    tag_9:\n      mload(0x40)\n      dup1\n      dup1\n      0x20\n      add\n      dup3\n      dup2\n      sub\n      dup3\n      mstore\n      dup4\n      dup2\n      dup2\n      mload\n      dup2\n      mstore\n      0x20\n      add\n      swap2\n      pop\n      dup1\n      mload\n      swap1\n      0x20\n      add\n      swap1\n      dup1\n      dup4\n      dup4\n        /* \"--CODEGEN--\":23:24   */\n      0x00\n        /* \"--CODEGEN--\":8:108   */\n    tag_11:\n        /* \"--CODEGEN--\":33:36   */\n      dup4\n        /* \"--CODEGEN--\":30:31   */\n      dup2\n        /* \"--CODEGEN--\":27:37   */\n      lt\n        /* \"--CODEGEN--\":8:108   */\n      iszero\n      tag_13\n      jumpi\n        /* \"--CODEGEN--\":99:100   */\n      dup1\n        /* \"--CODEGEN--\":94:97   */\n      dup3\n        /* \"--CODEGEN--\":90:101   */\n      add\n        /* \"--CODEGEN--\":84:102   */\n      mload\n        /* \"--CODEGEN--\":80:81   */\n      dup2\n        /* \"--CODEGEN--\":75:78   */\n      dup5\n        /* \"--CODEGEN--\":71:82   */\n      add\n        /* \"--CODEGEN--\":64:103   */\n      mstore\n        /* \"--CODEGEN--\":52:54   */\n      0x20\n        /* \"--CODEGEN--\":49:50   */\n      dup2\n        /* \"--CODEGEN--\":45:55   */\n      add\n        /* \"--CODEGEN--\":40:55   */\n      swap1\n      pop\n        /* \"--CODEGEN--\":8:108   */\n      jump(tag_11)\n    tag_13:\n        /* \"--CODEGEN--\":12:26   */\n      pop\n        /* \"contracts/demo1.sol\":214:276  bytes public dataX = \"SIUDHSUIDB8923hdf8923hd8923efewf43f43f4\" */\n      pop\n      pop\n      pop\n      swap1\n      pop\n      swap1\n      dup2\n      add\n      swap1\n      0x1f\n      and\n      dup1\n      iszero\n      tag_14\n      jumpi\n      dup1\n      dup3\n      sub\n      dup1\n      mload\n      0x01\n      dup4\n      0x20\n      sub\n      0x0100\n      exp\n      sub\n      not\n      and\n      dup2\n      mstore\n      0x20\n      add\n      swap2\n      pop\n    tag_14:\n      pop\n      swap3\n      pop\n      pop\n      pop\n      mload(0x40)\n      dup1\n      swap2\n      sub\n      swap1\n      return\n        /* \"contracts/demo1.sol\":291:441  function getGeratekey(uint64 _sequence, uint8 _channelID) public view returns(bytes memory){\r... */\n    tag_4:\n      tag_15\n      0x04\n      dup1\n      calldatasize\n      sub\n        /* \"--CODEGEN--\":13:15   */\n      0x40\n        /* \"--CODEGEN--\":8:11   */\n      dup2\n        /* \"--CODEGEN--\":5:16   */\n      lt\n        /* \"--CODEGEN--\":2:4   */\n      iszero\n      tag_16\n      jumpi\n        /* \"--CODEGEN--\":29:30   */\n      0x00\n        /* \"--CODEGEN--\":26:27   */\n      dup1\n        /* \"--CODEGEN--\":19:31   */\n      revert\n        /* \"--CODEGEN--\":2:4   */\n    tag_16:\n        /* \"contracts/demo1.sol\":291:441  function getGeratekey(uint64 _sequence, uint8 _channelID) public view returns(bytes memory){\r... */\n      dup2\n      add\n      swap1\n      dup1\n      dup1\n      calldataload\n      0xffffffffffffffff\n      and\n      swap1\n      0x20\n      add\n      swap1\n      swap3\n      swap2\n      swap1\n      dup1\n      calldataload\n      0xff\n      and\n      swap1\n      0x20\n      add\n      swap1\n      swap3\n      swap2\n      swap1\n      pop\n      pop\n      pop\n      tag_17\n      jump\t// in\n    tag_15:\n      mload(0x40)\n      dup1\n      dup1\n      0x20\n      add\n      dup3\n      dup2\n      sub\n      dup3\n      mstore\n      dup4\n      dup2\n      dup2\n      mload\n      dup2\n      mstore\n      0x20\n      add\n      swap2\n      pop\n      dup1\n      mload\n      swap1\n      0x20\n      add\n      swap1\n      dup1\n      dup4\n      dup4\n        /* \"--CODEGEN--\":23:24   */\n      0x00\n        /* \"--CODEGEN--\":8:108   */\n    tag_18:\n        /* \"--CODEGEN--\":33:36   */\n      dup4\n        /* \"--CODEGEN--\":30:31   */\n      dup2\n        /* \"--CODEGEN--\":27:37   */\n      lt\n        /* \"--CODEGEN--\":8:108   */\n      iszero\n      tag_20\n      jumpi\n        /* \"--CODEGEN--\":99:100   */\n      dup1\n        /* \"--CODEGEN--\":94:97   */\n      dup3\n        /* \"--CODEGEN--\":90:101   */\n      add\n        /* \"--CODEGEN--\":84:102   */\n      mload\n        /* \"--CODEGEN--\":80:81   */\n      dup2\n        /* \"--CODEGEN--\":75:78   */\n      dup5\n        /* \"--CODEGEN--\":71:82   */\n      add\n        /* \"--CODEGEN--\":64:103   */\n      mstore\n        /* \"--CODEGEN--\":52:54   */\n      0x20\n        /* \"--CODEGEN--\":49:50   */\n      dup2\n        /* \"--CODEGEN--\":45:55   */\n      add\n        /* \"--CODEGEN--\":40:55   */\n      swap1\n      pop\n        /* \"--CODEGEN--\":8:108   */\n      jump(tag_18)\n    tag_20:\n        /* \"--CODEGEN--\":12:26   */\n      pop\n        /* \"contracts/demo1.sol\":291:441  function getGeratekey(uint64 _sequence, uint8 _channelID) public view returns(bytes memory){\r... */\n      pop\n      pop\n      pop\n      swap1\n      pop\n      swap1\n      dup2\n      add\n      swap1\n      0x1f\n      and\n      dup1\n      iszero\n      tag_21\n      jumpi\n      dup1\n      dup3\n      sub\n      dup1\n      mload\n      0x01\n      dup4\n      0x20\n      sub\n      0x0100\n      exp\n      sub\n      not\n      and\n      dup2\n      mstore\n      0x20\n      add\n      swap2\n      pop\n    tag_21:\n      pop\n      swap3\n      pop\n      pop\n      pop\n      mload(0x40)\n      dup1\n      swap2\n      sub\n      swap1\n      return\n        /* \"contracts/demo1.sol\":83:142  uint256 constant public CROSS_CHAIN_KEY_PREFIX = 0x01006000 */\n    tag_5:\n      tag_22\n      tag_23\n      jump\t// in\n    tag_22:\n      mload(0x40)\n      dup1\n      dup3\n      dup2\n      mstore\n      0x20\n      add\n      swap2\n      pop\n      pop\n      mload(0x40)\n      dup1\n      swap2\n      sub\n      swap1\n      return\n        /* \"contracts/demo1.sol\":449:602  function getDecodekey(bytes memory payload) public view returns(bool, uint8, uint256, bytes memory){\r... */\n    tag_6:\n      tag_24\n      0x04\n      dup1\n      calldatasize\n      sub\n        /* \"--CODEGEN--\":13:15   */\n      0x20\n        /* \"--CODEGEN--\":8:11   */\n      dup2\n        /* \"--CODEGEN--\":5:16   */\n      lt\n        /* \"--CODEGEN--\":2:4   */\n      iszero\n      tag_25\n      jumpi\n        /* \"--CODEGEN--\":29:30   */\n      0x00\n        /* \"--CODEGEN--\":26:27   */\n      dup1\n        /* \"--CODEGEN--\":19:31   */\n      revert\n        /* \"--CODEGEN--\":2:4   */\n    tag_25:\n        /* \"contracts/demo1.sol\":449:602  function getDecodekey(bytes memory payload) public view returns(bool, uint8, uint256, bytes memory){\r... */\n      dup2\n      add\n      swap1\n      dup1\n      dup1\n      calldataload\n      swap1\n      0x20\n      add\n      swap1\n        /* \"--CODEGEN--\":21:32   */\n      0x0100000000\n        /* \"--CODEGEN--\":8:19   */\n      dup2\n        /* \"--CODEGEN--\":5:33   */\n      gt\n        /* \"--CODEGEN--\":2:4   */\n      iszero\n      tag_26\n      jumpi\n        /* \"--CODEGEN--\":46:47   */\n      0x00\n        /* \"--CODEGEN--\":43:44   */\n      dup1\n        /* \"--CODEGEN--\":36:48   */\n      revert\n        /* \"--CODEGEN--\":2:4   */\n    tag_26:\n        /* \"contracts/demo1.sol\":449:602  function getDecodekey(bytes memory payload) public view returns(bool, uint8, uint256, bytes memory){\r... */\n      dup3\n      add\n        /* \"--CODEGEN--\":35:44   */\n      dup4\n        /* \"--CODEGEN--\":28:32   */\n      0x20\n        /* \"--CODEGEN--\":12:26   */\n      dup3\n        /* \"--CODEGEN--\":8:33   */\n      add\n        /* \"--CODEGEN--\":5:45   */\n      gt\n        /* \"--CODEGEN--\":2:4   */\n      iszero\n      tag_27\n      jumpi\n        /* \"--CODEGEN--\":58:59   */\n      0x00\n        /* \"--CODEGEN--\":55:56   */\n      dup1\n        /* \"--CODEGEN--\":48:60   */\n      revert\n        /* \"--CODEGEN--\":2:4   */\n    tag_27:\n        /* \"contracts/demo1.sol\":449:602  function getDecodekey(bytes memory payload) public view returns(bool, uint8, uint256, bytes memory){\r... */\n      dup1\n      calldataload\n      swap1\n      0x20\n      add\n      swap2\n        /* \"--CODEGEN--\":100:109   */\n      dup5\n        /* \"--CODEGEN--\":95:96   */\n      0x01\n        /* \"--CODEGEN--\":81:93   */\n      dup4\n        /* \"--CODEGEN--\":77:97   */\n      mul\n        /* \"--CODEGEN--\":67:75   */\n      dup5\n        /* \"--CODEGEN--\":63:98   */\n      add\n        /* \"--CODEGEN--\":60:110   */\n      gt\n        /* \"--CODEGEN--\":39:50   */\n      0x0100000000\n        /* \"--CODEGEN--\":25:37   */\n      dup4\n        /* \"--CODEGEN--\":22:51   */\n      gt\n        /* \"--CODEGEN--\":11:118   */\n      or\n        /* \"--CODEGEN--\":8:10   */\n      iszero\n      tag_28\n      jumpi\n        /* \"--CODEGEN--\":131:132   */\n      0x00\n        /* \"--CODEGEN--\":128:129   */\n      dup1\n        /* \"--CODEGEN--\":121:133   */\n      revert\n        /* \"--CODEGEN--\":8:10   */\n    tag_28:\n        /* \"contracts/demo1.sol\":449:602  function getDecodekey(bytes memory payload) public view returns(bool, uint8, uint256, bytes memory){\r... */\n      swap2\n      swap1\n      dup1\n      dup1\n      0x1f\n      add\n      0x20\n      dup1\n      swap2\n      div\n      mul\n      0x20\n      add\n      mload(0x40)\n      swap1\n      dup2\n      add\n      0x40\n      mstore\n      dup1\n      swap4\n      swap3\n      swap2\n      swap1\n      dup2\n      dup2\n      mstore\n      0x20\n      add\n      dup4\n      dup4\n        /* \"--CODEGEN--\":30:33   */\n      dup1\n        /* \"--CODEGEN--\":22:28   */\n      dup3\n        /* \"--CODEGEN--\":14:20   */\n      dup5\n        /* \"--CODEGEN--\":1:34   */\n      calldatacopy\n        /* \"--CODEGEN--\":99:100   */\n      0x00\n        /* \"--CODEGEN--\":93:96   */\n      dup2\n        /* \"--CODEGEN--\":85:91   */\n      dup5\n        /* \"--CODEGEN--\":81:97   */\n      add\n        /* \"--CODEGEN--\":74:101   */\n      mstore\n        /* \"--CODEGEN--\":137:141   */\n      0x1f\n        /* \"--CODEGEN--\":133:142   */\n      not\n        /* \"--CODEGEN--\":126:130   */\n      0x1f\n        /* \"--CODEGEN--\":121:124   */\n      dup3\n        /* \"--CODEGEN--\":117:131   */\n      add\n        /* \"--CODEGEN--\":113:143   */\n      and\n        /* \"--CODEGEN--\":106:143   */\n      swap1\n      pop\n        /* \"--CODEGEN--\":169:172   */\n      dup1\n        /* \"--CODEGEN--\":161:167   */\n      dup4\n        /* \"--CODEGEN--\":157:173   */\n      add\n        /* \"--CODEGEN--\":147:173   */\n      swap3\n      pop\n        /* \"contracts/demo1.sol\":449:602  function getDecodekey(bytes memory payload) public view returns(bool, uint8, uint256, bytes memory){\r... */\n      pop\n      pop\n      pop\n      pop\n      pop\n      pop\n      swap2\n      swap3\n      swap2\n      swap3\n      swap1\n      pop\n      pop\n      pop\n      tag_29\n      jump\t// in\n    tag_24:\n      mload(0x40)\n      dup1\n      dup6\n      iszero\n      iszero\n      iszero\n      iszero\n      dup2\n      mstore\n      0x20\n      add\n      dup5\n      0xff\n      and\n      0xff\n      and\n      dup2\n      mstore\n      0x20\n      add\n      dup4\n      dup2\n      mstore\n      0x20\n      add\n      dup1\n      0x20\n      add\n      dup3\n      dup2\n      sub\n      dup3\n      mstore\n      dup4\n      dup2\n      dup2\n      mload\n      dup2\n      mstore\n      0x20\n      add\n      swap2\n      pop\n      dup1\n      mload\n      swap1\n      0x20\n      add\n      swap1\n      dup1\n      dup4\n      dup4\n        /* \"--CODEGEN--\":23:24   */\n      0x00\n        /* \"--CODEGEN--\":8:108   */\n    tag_30:\n        /* \"--CODEGEN--\":33:36   */\n      dup4\n        /* \"--CODEGEN--\":30:31   */\n      dup2\n        /* \"--CODEGEN--\":27:37   */\n      lt\n        /* \"--CODEGEN--\":8:108   */\n      iszero\n      tag_32\n      jumpi\n        /* \"--CODEGEN--\":99:100   */\n      dup1\n        /* \"--CODEGEN--\":94:97   */\n      dup3\n        /* \"--CODEGEN--\":90:101   */\n      add\n        /* \"--CODEGEN--\":84:102   */\n      mload\n        /* \"--CODEGEN--\":80:81   */\n      dup2\n        /* \"--CODEGEN--\":75:78   */\n      dup5\n        /* \"--CODEGEN--\":71:82   */\n      add\n        /* \"--CODEGEN--\":64:103   */\n      mstore\n        /* \"--CODEGEN--\":52:54   */\n      0x20\n        /* \"--CODEGEN--\":49:50   */\n      dup2\n        /* \"--CODEGEN--\":45:55   */\n      add\n        /* \"--CODEGEN--\":40:55   */\n      swap1\n      pop\n        /* \"--CODEGEN--\":8:108   */\n      jump(tag_30)\n    tag_32:\n        /* \"--CODEGEN--\":12:26   */\n      pop\n        /* \"contracts/demo1.sol\":449:602  function getDecodekey(bytes memory payload) public view returns(bool, uint8, uint256, bytes memory){\r... */\n      pop\n      pop\n      pop\n      swap1\n      pop\n      swap1\n      dup2\n      add\n      swap1\n      0x1f\n      and\n      dup1\n      iszero\n      tag_33\n      jumpi\n      dup1\n      dup3\n      sub\n      dup1\n      mload\n      0x01\n      dup4\n      0x20\n      sub\n      0x0100\n      exp\n      sub\n      not\n      and\n      dup2\n      mstore\n      0x20\n      add\n      swap2\n      pop\n    tag_33:\n      pop\n      swap6\n      pop\n      pop\n      pop\n      pop\n      pop\n      pop\n      mload(0x40)\n      dup1\n      swap2\n      sub\n      swap1\n      return\n        /* \"contracts/demo1.sol\":151:177  uint64 public data2 = 3345 */\n    tag_7:\n      tag_34\n      tag_35\n      jump\t// in\n    tag_34:\n      mload(0x40)\n      dup1\n      dup3\n      0xffffffffffffffff\n      and\n      0xffffffffffffffff\n      and\n      dup2\n      mstore\n      0x20\n      add\n      swap2\n      pop\n      pop\n      mload(0x40)\n      dup1\n      swap2\n      sub\n      swap1\n      return\n        /* \"contracts/demo1.sol\":184:207  uint8 public data3 = 30 */\n    tag_8:\n      tag_36\n      tag_37\n      jump\t// in\n    tag_36:\n      mload(0x40)\n      dup1\n      dup3\n      0xff\n      and\n      0xff\n      and\n      dup2\n      mstore\n      0x20\n      add\n      swap2\n      pop\n      pop\n      mload(0x40)\n      dup1\n      swap2\n      sub\n      swap1\n      return\n        /* \"contracts/demo1.sol\":214:276  bytes public dataX = \"SIUDHSUIDB8923hdf8923hd8923efewf43f43f4\" */\n    tag_10:\n      0x01\n      dup1\n      sload\n      0x01\n      dup2\n      0x01\n      and\n      iszero\n      0x0100\n      mul\n      sub\n      and\n      0x02\n      swap1\n      div\n      dup1\n      0x1f\n      add\n      0x20\n      dup1\n      swap2\n      div\n      mul\n      0x20\n      add\n      mload(0x40)\n      swap1\n      dup2\n      add\n      0x40\n      mstore\n      dup1\n      swap3\n      swap2\n      swap1\n      dup2\n      dup2\n      mstore\n      0x20\n      add\n      dup3\n      dup1\n      sload\n      0x01\n      dup2\n      0x01\n      and\n      iszero\n      0x0100\n      mul\n      sub\n      and\n      0x02\n      swap1\n      div\n      dup1\n      iszero\n      tag_38\n      jumpi\n      dup1\n      0x1f\n      lt\n      tag_39\n      jumpi\n      0x0100\n      dup1\n      dup4\n      sload\n      div\n      mul\n      dup4\n      mstore\n      swap2\n      0x20\n      add\n      swap2\n      jump(tag_38)\n    tag_39:\n      dup3\n      add\n      swap2\n      swap1\n      0x00\n      mstore\n      keccak256(0x00, 0x20)\n      swap1\n    tag_40:\n      dup2\n      sload\n      dup2\n      mstore\n      swap1\n      0x01\n      add\n      swap1\n      0x20\n      add\n      dup1\n      dup4\n      gt\n      tag_40\n      jumpi\n      dup3\n      swap1\n      sub\n      0x1f\n      and\n      dup3\n      add\n      swap2\n    tag_38:\n      pop\n      pop\n      pop\n      pop\n      pop\n      dup2\n      jump\t// out\n        /* \"contracts/demo1.sol\":291:441  function getGeratekey(uint64 _sequence, uint8 _channelID) public view returns(bytes memory){\r... */\n    tag_17:\n        /* \"contracts/demo1.sol\":369:381  bytes memory */\n      0x60\n        /* \"contracts/demo1.sol\":400:433  generateKey(_sequence,_channelID) */\n      tag_42\n        /* \"contracts/demo1.sol\":412:421  _sequence */\n      dup4\n        /* \"contracts/demo1.sol\":422:432  _channelID */\n      dup4\n        /* \"contracts/demo1.sol\":400:411  generateKey */\n      tag_43\n        /* \"contracts/demo1.sol\":400:433  generateKey(_sequence,_channelID) */\n      jump\t// in\n    tag_42:\n        /* \"contracts/demo1.sol\":393:433  return generateKey(_sequence,_channelID) */\n      swap1\n      pop\n        /* \"contracts/demo1.sol\":291:441  function getGeratekey(uint64 _sequence, uint8 _channelID) public view returns(bytes memory){\r... */\n      swap3\n      swap2\n      pop\n      pop\n      jump\t// out\n        /* \"contracts/demo1.sol\":83:142  uint256 constant public CROSS_CHAIN_KEY_PREFIX = 0x01006000 */\n    tag_23:\n        /* \"contracts/demo1.sol\":132:142  0x01006000 */\n      0x01006000\n        /* \"contracts/demo1.sol\":83:142  uint256 constant public CROSS_CHAIN_KEY_PREFIX = 0x01006000 */\n      dup2\n      jump\t// out\n        /* \"contracts/demo1.sol\":449:602  function getDecodekey(bytes memory payload) public view returns(bool, uint8, uint256, bytes memory){\r... */\n    tag_29:\n        /* \"contracts/demo1.sol\":513:517  bool */\n      0x00\n        /* \"contracts/demo1.sol\":519:524  uint8 */\n      dup1\n        /* \"contracts/demo1.sol\":526:533  uint256 */\n      0x00\n        /* \"contracts/demo1.sol\":535:547  bytes memory */\n      0x60\n        /* \"contracts/demo1.sol\":566:594  decodePayloadHeader(payload) */\n      tag_45\n        /* \"contracts/demo1.sol\":586:593  payload */\n      dup6\n        /* \"contracts/demo1.sol\":566:585  decodePayloadHeader */\n      tag_46\n        /* \"contracts/demo1.sol\":566:594  decodePayloadHeader(payload) */\n      jump\t// in\n    tag_45:\n        /* \"contracts/demo1.sol\":559:594  return decodePayloadHeader(payload) */\n      swap4\n      pop\n      swap4\n      pop\n      swap4\n      pop\n      swap4\n      pop\n        /* \"contracts/demo1.sol\":449:602  function getDecodekey(bytes memory payload) public view returns(bool, uint8, uint256, bytes memory){\r... */\n      swap2\n      swap4\n      pop\n      swap2\n      swap4\n      jump\t// out\n        /* \"contracts/demo1.sol\":151:177  uint64 public data2 = 3345 */\n    tag_35:\n      0x00\n      dup1\n      swap1\n      sload\n      swap1\n      0x0100\n      exp\n      swap1\n      div\n      0xffffffffffffffff\n      and\n      dup2\n      jump\t// out\n        /* \"contracts/demo1.sol\":184:207  uint8 public data3 = 30 */\n    tag_37:\n      0x00\n      0x08\n      swap1\n      sload\n      swap1\n      0x0100\n      exp\n      swap1\n      div\n      0xff\n      and\n      dup2\n      jump\t// out\n        /* \"contracts/demo1.sol\":612:1179  function generateKey(uint64 _sequence, uint8 _channelID) internal pure returns(bytes memory) {\r... */\n    tag_43:\n        /* \"contracts/demo1.sol\":691:703  bytes memory */\n      0x60\n        /* \"contracts/demo1.sol\":716:750  uint256 fullCROSS_CHAIN_KEY_PREFIX */\n      0x00\n        /* \"contracts/demo1.sol\":778:788  _channelID */\n      dup3\n        /* \"contracts/demo1.sol\":753:788  CROSS_CHAIN_KEY_PREFIX | _channelID */\n      0xff\n      and\n        /* \"contracts/demo1.sol\":132:142  0x01006000 */\n      0x01006000\n        /* \"contracts/demo1.sol\":753:788  CROSS_CHAIN_KEY_PREFIX | _channelID */\n      or\n        /* \"contracts/demo1.sol\":716:788  uint256 fullCROSS_CHAIN_KEY_PREFIX = CROSS_CHAIN_KEY_PREFIX | _channelID */\n      swap1\n      pop\n        /* \"contracts/demo1.sol\":799:815  bytes memory key */\n      0x60\n        /* \"contracts/demo1.sol\":828:830  14 */\n      0x0e\n        /* \"contracts/demo1.sol\":818:831  new bytes(14) */\n      mload(0x40)\n      swap1\n      dup1\n      dup3\n      mstore\n      dup1\n      0x1f\n      add\n      not(0x1f)\n      and\n      0x20\n      add\n      dup3\n      add\n      0x40\n      mstore\n      dup1\n      iszero\n      tag_48\n      jumpi\n      dup2\n      0x20\n      add\n        /* \"--CODEGEN--\":29:30   */\n      0x01\n        /* \"--CODEGEN--\":21:27   */\n      dup3\n        /* \"--CODEGEN--\":17:31   */\n      mul\n        /* \"--CODEGEN--\":116:120   */\n      dup1\n        /* \"--CODEGEN--\":104:114   */\n      codesize\n        /* \"--CODEGEN--\":96:102   */\n      dup4\n        /* \"--CODEGEN--\":87:121   */\n      codecopy\n        /* \"--CODEGEN--\":147:151   */\n      dup1\n        /* \"--CODEGEN--\":139:145   */\n      dup3\n        /* \"--CODEGEN--\":135:152   */\n      add\n        /* \"--CODEGEN--\":125:152   */\n      swap2\n      pop\n        /* \"--CODEGEN--\":0:156   */\n      pop\n        /* \"contracts/demo1.sol\":818:831  new bytes(14) */\n      swap1\n      pop\n    tag_48:\n      pop\n        /* \"contracts/demo1.sol\":799:831  bytes memory key = new bytes(14) */\n      swap1\n      pop\n        /* \"contracts/demo1.sol\":842:853  uint256 ptr */\n      0x00\n        /* \"contracts/demo1.sol\":900:902  14 */\n      0x0e\n        /* \"contracts/demo1.sol\":895:898  key */\n      dup3\n        /* \"contracts/demo1.sol\":891:903  add(key, 14) */\n      add\n        /* \"contracts/demo1.sol\":884:903  ptr := add(key, 14) */\n      swap1\n      pop\n        /* \"contracts/demo1.sol\":956:965  _sequence */\n      dup6\n        /* \"contracts/demo1.sol\":951:954  ptr */\n      dup2\n        /* \"contracts/demo1.sol\":944:966  mstore(ptr, _sequence) */\n      mstore\n        /* \"contracts/demo1.sol\":994:995  8 */\n      0x08\n        /* \"contracts/demo1.sol\":987:995  ptr -= 8 */\n      dup2\n      sub\n      swap1\n      pop\n        /* \"contracts/demo1.sol\":1038:1064  fullCROSS_CHAIN_KEY_PREFIX */\n      dup3\n        /* \"contracts/demo1.sol\":1033:1036  ptr */\n      dup2\n        /* \"contracts/demo1.sol\":1026:1065  mstore(ptr, fullCROSS_CHAIN_KEY_PREFIX) */\n      mstore\n        /* \"contracts/demo1.sol\":1093:1094  6 */\n      0x06\n        /* \"contracts/demo1.sol\":1086:1094  ptr -= 6 */\n      dup2\n      sub\n      swap1\n      pop\n        /* \"contracts/demo1.sol\":1137:1139  14 */\n      0x0e\n        /* \"contracts/demo1.sol\":1132:1135  ptr */\n      dup2\n        /* \"contracts/demo1.sol\":1125:1140  mstore(ptr, 14) */\n      mstore\n        /* \"contracts/demo1.sol\":1168:1171  key */\n      dup2\n        /* \"contracts/demo1.sol\":1161:1171  return key */\n      swap4\n      pop\n      pop\n      pop\n      pop\n        /* \"contracts/demo1.sol\":612:1179  function generateKey(uint64 _sequence, uint8 _channelID) internal pure returns(bytes memory) {\r... */\n      swap3\n      swap2\n      pop\n      pop\n      jump\t// out\n        /* \"contracts/demo1.sol\":1187:1864  function decodePayloadHeader(bytes memory payload) internal pure returns(bool, uint8, uint256, bytes memory) {\r... */\n    tag_46:\n        /* \"contracts/demo1.sol\":1260:1264  bool */\n      0x00\n        /* \"contracts/demo1.sol\":1266:1271  uint8 */\n      dup1\n        /* \"contracts/demo1.sol\":1273:1280  uint256 */\n      0x00\n        /* \"contracts/demo1.sol\":1282:1294  bytes memory */\n      0x60\n        /* \"contracts/demo1.sol\":1324:1326  33 */\n      0x21\n        /* \"contracts/demo1.sol\":1307:1314  payload */\n      dup6\n        /* \"contracts/demo1.sol\":1307:1321  payload.length */\n      mload\n        /* \"contracts/demo1.sol\":1307:1326  payload.length < 33 */\n      lt\n        /* \"contracts/demo1.sol\":1303:1379  if (payload.length < 33) {\r... */\n      iszero\n      tag_50\n      jumpi\n        /* \"contracts/demo1.sol\":1345:1350  false */\n      0x00\n        /* \"contracts/demo1.sol\":1352:1353  0 */\n      dup1\n        /* \"contracts/demo1.sol\":1355:1356  0 */\n      0x00\n        /* \"contracts/demo1.sol\":1368:1369  0 */\n      dup1\n        /* \"contracts/demo1.sol\":1358:1370  new bytes(0) */\n      mload(0x40)\n      swap1\n      dup1\n      dup3\n      mstore\n      dup1\n      0x1f\n      add\n      not(0x1f)\n      and\n      0x20\n      add\n      dup3\n      add\n      0x40\n      mstore\n      dup1\n      iszero\n      tag_51\n      jumpi\n      dup2\n      0x20\n      add\n        /* \"--CODEGEN--\":29:30   */\n      0x01\n        /* \"--CODEGEN--\":21:27   */\n      dup3\n        /* \"--CODEGEN--\":17:31   */\n      mul\n        /* \"--CODEGEN--\":116:120   */\n      dup1\n        /* \"--CODEGEN--\":104:114   */\n      codesize\n        /* \"--CODEGEN--\":96:102   */\n      dup4\n        /* \"--CODEGEN--\":87:121   */\n      codecopy\n        /* \"--CODEGEN--\":147:151   */\n      dup1\n        /* \"--CODEGEN--\":139:145   */\n      dup3\n        /* \"--CODEGEN--\":135:152   */\n      add\n        /* \"--CODEGEN--\":125:152   */\n      swap2\n      pop\n        /* \"--CODEGEN--\":0:156   */\n      pop\n        /* \"contracts/demo1.sol\":1358:1370  new bytes(0) */\n      swap1\n      pop\n    tag_51:\n      pop\n        /* \"contracts/demo1.sol\":1337:1371  return (false, 0, 0, new bytes(0)) */\n      dup3\n      swap3\n      pop\n      dup2\n      swap2\n      pop\n      dup1\n      swap1\n      pop\n      swap4\n      pop\n      swap4\n      pop\n      swap4\n      pop\n      swap4\n      pop\n      jump(tag_49)\n        /* \"contracts/demo1.sol\":1303:1379  if (payload.length < 33) {\r... */\n    tag_50:\n        /* \"contracts/demo1.sol\":1387:1398  uint256 ptr */\n      0x00\n        /* \"contracts/demo1.sol\":1430:1437  payload */\n      dup6\n        /* \"contracts/demo1.sol\":1423:1437  ptr := payload */\n      swap1\n      pop\n        /* \"contracts/demo1.sol\":1452:1469  uint8 packageType */\n      0x00\n        /* \"contracts/demo1.sol\":1481:1482  1 */\n      0x01\n        /* \"contracts/demo1.sol\":1476:1482  ptr+=1 */\n      dup3\n      add\n      swap2\n      pop\n        /* \"contracts/demo1.sol\":1528:1531  ptr */\n      dup2\n        /* \"contracts/demo1.sol\":1522:1532  mload(ptr) */\n      mload\n        /* \"contracts/demo1.sol\":1507:1532  packageType := mload(ptr) */\n      swap1\n      pop\n        /* \"contracts/demo1.sol\":1547:1563  uint256 relayFee */\n      0x00\n        /* \"contracts/demo1.sol\":1575:1577  32 */\n      0x20\n        /* \"contracts/demo1.sol\":1570:1577  ptr+=32 */\n      dup4\n      add\n      swap3\n      pop\n        /* \"contracts/demo1.sol\":1620:1623  ptr */\n      dup3\n        /* \"contracts/demo1.sol\":1614:1624  mload(ptr) */\n      mload\n        /* \"contracts/demo1.sol\":1602:1624  relayFee := mload(ptr) */\n      swap1\n      pop\n        /* \"contracts/demo1.sol\":1644:1646  32 */\n      0x20\n        /* \"contracts/demo1.sol\":1639:1646  ptr+=32 */\n      dup4\n      add\n      swap3\n      pop\n        /* \"contracts/demo1.sol\":1653:1674  bytes memory msgBytes */\n      0x60\n        /* \"contracts/demo1.sol\":1702:1704  33 */\n      0x21\n        /* \"contracts/demo1.sol\":1687:1694  payload */\n      dup10\n        /* \"contracts/demo1.sol\":1687:1701  payload.length */\n      mload\n        /* \"contracts/demo1.sol\":1687:1704  payload.length-33 */\n      sub\n        /* \"contracts/demo1.sol\":1677:1705  new bytes(payload.length-33) */\n      mload(0x40)\n      swap1\n      dup1\n      dup3\n      mstore\n      dup1\n      0x1f\n      add\n      not(0x1f)\n      and\n      0x20\n      add\n      dup3\n      add\n      0x40\n      mstore\n      dup1\n      iszero\n      tag_52\n      jumpi\n      dup2\n      0x20\n      add\n        /* \"--CODEGEN--\":29:30   */\n      0x01\n        /* \"--CODEGEN--\":21:27   */\n      dup3\n        /* \"--CODEGEN--\":17:31   */\n      mul\n        /* \"--CODEGEN--\":116:120   */\n      dup1\n        /* \"--CODEGEN--\":104:114   */\n      codesize\n        /* \"--CODEGEN--\":96:102   */\n      dup4\n        /* \"--CODEGEN--\":87:121   */\n      codecopy\n        /* \"--CODEGEN--\":147:151   */\n      dup1\n        /* \"--CODEGEN--\":139:145   */\n      dup3\n        /* \"--CODEGEN--\":135:152   */\n      add\n        /* \"--CODEGEN--\":125:152   */\n      swap2\n      pop\n        /* \"--CODEGEN--\":0:156   */\n      pop\n        /* \"contracts/demo1.sol\":1677:1705  new bytes(payload.length-33) */\n      swap1\n      pop\n    tag_52:\n      pop\n        /* \"contracts/demo1.sol\":1653:1705  bytes memory msgBytes = new bytes(payload.length-33) */\n      swap1\n      pop\n        /* \"contracts/demo1.sol\":1713:1724  uint256 dst */\n      0x00\n        /* \"contracts/demo1.sol\":1730:1756  Memory.fromBytes(msgBytes) */\n      tag_53\n        /* \"contracts/demo1.sol\":1747:1755  msgBytes */\n      dup3\n        /* \"contracts/demo1.sol\":1730:1746  Memory.fromBytes */\n      tag_54\n        /* \"contracts/demo1.sol\":1730:1756  Memory.fromBytes(msgBytes) */\n      jump\t// in\n    tag_53:\n        /* \"contracts/demo1.sol\":1712:1756  (uint256 dst, ) = Memory.fromBytes(msgBytes) */\n      pop\n      swap1\n      pop\n        /* \"contracts/demo1.sol\":1763:1803  Memory.copy(ptr, dst, payload.length-33) */\n      tag_55\n        /* \"contracts/demo1.sol\":1775:1778  ptr */\n      dup6\n        /* \"contracts/demo1.sol\":1780:1783  dst */\n      dup3\n        /* \"contracts/demo1.sol\":1800:1802  33 */\n      0x21\n        /* \"contracts/demo1.sol\":1785:1792  payload */\n      dup14\n        /* \"contracts/demo1.sol\":1785:1799  payload.length */\n      mload\n        /* \"contracts/demo1.sol\":1785:1802  payload.length-33 */\n      sub\n        /* \"contracts/demo1.sol\":1763:1774  Memory.copy */\n      tag_56\n        /* \"contracts/demo1.sol\":1763:1803  Memory.copy(ptr, dst, payload.length-33) */\n      jump\t// in\n    tag_55:\n        /* \"contracts/demo1.sol\":1820:1824  true */\n      0x01\n        /* \"contracts/demo1.sol\":1826:1837  packageType */\n      dup5\n        /* \"contracts/demo1.sol\":1839:1847  relayFee */\n      dup5\n        /* \"contracts/demo1.sol\":1849:1857  msgBytes */\n      dup5\n        /* \"contracts/demo1.sol\":1812:1858  return (true, packageType, relayFee, msgBytes) */\n      swap9\n      pop\n      swap9\n      pop\n      swap9\n      pop\n      swap9\n      pop\n      pop\n      pop\n      pop\n      pop\n      pop\n        /* \"contracts/demo1.sol\":1187:1864  function decodePayloadHeader(bytes memory payload) internal pure returns(bool, uint8, uint256, bytes memory) {\r... */\n    tag_49:\n      swap2\n      swap4\n      pop\n      swap2\n      swap4\n      jump\t// out\n        /* \"contracts/Memory.sol\":2843:3045  function fromBytes(bytes memory bts) internal pure returns (uint addr, uint len) {\r... */\n    tag_54:\n        /* \"contracts/Memory.sol\":2903:2912  uint addr */\n      0x00\n        /* \"contracts/Memory.sol\":2914:2922  uint len */\n      dup1\n        /* \"contracts/Memory.sol\":2941:2944  bts */\n      dup3\n        /* \"contracts/Memory.sol\":2941:2951  bts.length */\n      mload\n        /* \"contracts/Memory.sol\":2935:2951  len = bts.length */\n      swap1\n      pop\n        /* \"contracts/Memory.sol\":3024:3026  32 */\n      0x20\n        /* \"contracts/Memory.sol\":2998:3001  bts */\n      dup4\n        /* \"contracts/Memory.sol\":2994:3027  add(bts, /*BYTES_HEADER_SIZE*/32) */\n      add\n        /* \"contracts/Memory.sol\":2986:3027  addr := add(bts, /*BYTES_HEADER_SIZE*/32) */\n      swap2\n      pop\n        /* \"contracts/Memory.sol\":2971:3038  {\r... */\n      swap2\n      pop\n      swap2\n      jump\t// out\n        /* \"contracts/Memory.sol\":1650:2250  function copy(uint src, uint dest, uint len) internal pure {\r... */\n    tag_56:\n        /* \"contracts/Memory.sol\":1771:1970  for (; len >= WORD_SIZE; len -= WORD_SIZE) {\r... */\n    tag_59:\n        /* \"contracts/Memory.sol\":129:131  32 */\n      0x20\n        /* \"contracts/Memory.sol\":1778:1781  len */\n      dup2\n        /* \"contracts/Memory.sol\":1778:1794  len >= WORD_SIZE */\n      lt\n        /* \"contracts/Memory.sol\":1771:1970  for (; len >= WORD_SIZE; len -= WORD_SIZE) {\r... */\n      tag_60\n      jumpi\n        /* \"contracts/Memory.sol\":1876:1879  src */\n      dup3\n        /* \"contracts/Memory.sol\":1870:1880  mload(src) */\n      mload\n        /* \"contracts/Memory.sol\":1864:1868  dest */\n      dup3\n        /* \"contracts/Memory.sol\":1857:1881  mstore(dest, mload(src)) */\n      mstore\n        /* \"contracts/Memory.sol\":129:131  32 */\n      0x20\n        /* \"contracts/Memory.sol\":1910:1927  dest += WORD_SIZE */\n      dup3\n      add\n      swap2\n      pop\n        /* \"contracts/Memory.sol\":129:131  32 */\n      0x20\n        /* \"contracts/Memory.sol\":1942:1958  src += WORD_SIZE */\n      dup4\n      add\n      swap3\n      pop\n        /* \"contracts/Memory.sol\":129:131  32 */\n      0x20\n        /* \"contracts/Memory.sol\":1796:1812  len -= WORD_SIZE */\n      dup2\n      sub\n      swap1\n      pop\n        /* \"contracts/Memory.sol\":1771:1970  for (; len >= WORD_SIZE; len -= WORD_SIZE) {\r... */\n      jump(tag_59)\n    tag_60:\n        /* \"contracts/Memory.sol\":2015:2024  uint mask */\n      0x00\n        /* \"contracts/Memory.sol\":2054:2055  1 */\n      0x01\n        /* \"contracts/Memory.sol\":2047:2050  len */\n      dup3\n        /* \"contracts/Memory.sol\":129:131  32 */\n      0x20\n        /* \"contracts/Memory.sol\":2035:2050  WORD_SIZE - len */\n      sub\n        /* \"contracts/Memory.sol\":2027:2030  256 */\n      0x0100\n        /* \"contracts/Memory.sol\":2027:2051  256 ** (WORD_SIZE - len) */\n      exp\n        /* \"contracts/Memory.sol\":2027:2055  256 ** (WORD_SIZE - len) - 1 */\n      sub\n        /* \"contracts/Memory.sol\":2015:2055  uint mask = 256 ** (WORD_SIZE - len) - 1 */\n      swap1\n      pop\n        /* \"contracts/Memory.sol\":2125:2129  mask */\n      dup1\n        /* \"contracts/Memory.sol\":2121:2130  not(mask) */\n      not\n        /* \"contracts/Memory.sol\":2115:2118  src */\n      dup5\n        /* \"contracts/Memory.sol\":2109:2119  mload(src) */\n      mload\n        /* \"contracts/Memory.sol\":2105:2131  and(mload(src), not(mask)) */\n      and\n        /* \"contracts/Memory.sol\":2178:2182  mask */\n      dup2\n        /* \"contracts/Memory.sol\":2171:2175  dest */\n      dup5\n        /* \"contracts/Memory.sol\":2165:2176  mload(dest) */\n      mload\n        /* \"contracts/Memory.sol\":2161:2183  and(mload(dest), mask) */\n      and\n        /* \"contracts/Memory.sol\":2223:2230  srcpart */\n      dup2\n        /* \"contracts/Memory.sol\":2213:2221  destpart */\n      dup2\n        /* \"contracts/Memory.sol\":2210:2231  or(destpart, srcpart) */\n      or\n        /* \"contracts/Memory.sol\":2204:2208  dest */\n      dup6\n        /* \"contracts/Memory.sol\":2197:2232  mstore(dest, or(destpart, srcpart)) */\n      mstore\n        /* \"contracts/Memory.sol\":2075:2243  {\r... */\n      pop\n      pop\n      pop\n      pop\n      pop\n      pop\n      jump\t// out\n\n    auxdata: 0xa265627a7a72315820c960fd404c177863fe767e9515eae4975b7f8c36441efb73a75fe2244e2304de64736f6c63430005100032\n}\n",
				"bytecode": {
					"linkReferences": {},
					"object": "6080604052610d116000806101000a81548167ffffffffffffffff021916908367ffffffffffffffff160217905550601e600060086101000a81548160ff021916908360ff1602179055506040518060600160405280602781526020016107ac602791396001908051906020019061007892919061008b565b5034801561008557600080fd5b50610130565b828054600181600116156101000203166002900490600052602060002090601f016020900481019282601f106100cc57805160ff19168380011785556100fa565b828001600101855582156100fa579182015b828111156100f95782518255916020019190600101906100de565b5b509050610107919061010b565b5090565b61012d91905b80821115610129576000816000905550600101610111565b5090565b90565b61066d8061013f6000396000f3fe608060405234801561001057600080fd5b50600436106100625760003560e01c806319d666181461006757806373da6c22146100ea578063863fe4ab146101a85780639539ded9146101c6578063e3a7fd7514610319578063fc26b0ab1461034b575b600080fd5b61006f61036f565b6040518080602001828103825283818151815260200191508051906020019080838360005b838110156100af578082015181840152602081019050610094565b50505050905090810190601f1680156100dc5780820380516001836020036101000a031916815260200191505b509250505060405180910390f35b61012d6004803603604081101561010057600080fd5b81019080803567ffffffffffffffff169060200190929190803560ff16906020019092919050505061040d565b6040518080602001828103825283818151815260200191508051906020019080838360005b8381101561016d578082015181840152602081019050610152565b50505050905090810190601f16801561019a5780820380516001836020036101000a031916815260200191505b509250505060405180910390f35b6101b0610421565b6040518082815260200191505060405180910390f35b61027f600480360360208110156101dc57600080fd5b81019080803590602001906401000000008111156101f957600080fd5b82018360208201111561020b57600080fd5b8035906020019184600183028401116401000000008311171561022d57600080fd5b91908080601f016020809104026020016040519081016040528093929190818152602001838380828437600081840152601f19601f820116905080830192505050505050509192919290505050610429565b60405180851515151581526020018460ff1660ff16815260200183815260200180602001828103825283818151815260200191508051906020019080838360005b838110156102db5780820151818401526020810190506102c0565b50505050905090810190601f1680156103085780820380516001836020036101000a031916815260200191505b509550505050505060405180910390f35b610321610448565b604051808267ffffffffffffffff1667ffffffffffffffff16815260200191505060405180910390f35b610353610461565b604051808260ff1660ff16815260200191505060405180910390f35b60018054600181600116156101000203166002900480601f0160208091040260200160405190810160405280929190818152602001828054600181600116156101000203166002900480156104055780601f106103da57610100808354040283529160200191610405565b820191906000526020600020905b8154815290600101906020018083116103e857829003601f168201915b505050505081565b60606104198383610474565b905092915050565b630100600081565b60008060006060610439856104e7565b93509350935093509193509193565b6000809054906101000a900467ffffffffffffffff1681565b600060089054906101000a900460ff1681565b606060008260ff1663010060001790506060600e6040519080825280601f01601f1916602001820160405280156104ba5781602001600182028038833980820191505090505b5090506000600e82019050858152600881039050828152600681039050600e815281935050505092915050565b60008060006060602185511015610547576000806000806040519080825280601f01601f1916602001820160405280156105305781602001600182028038833980820191505090505b5082925081915080905093509350935093506105d6565b6000859050600060018201915081519050600060208301925082519050602083019250606060218951036040519080825280601f01601f1916602001820160405280156105a35781602001600182028038833980820191505090505b50905060006105b1826105dd565b5090506105c3858260218d51036105ef565b6001848484985098509850985050505050505b9193509193565b60008082519050602083019150915091565b5b6020811061061357825182526020820191506020830192506020810390506105f0565b60006001826020036101000a039050801984511681845116818117855250505050505056fea265627a7a72315820c960fd404c177863fe767e9515eae4975b7f8c36441efb73a75fe2244e2304de64736f6c63430005100032534955444853554944423839323368646638393233686438393233656665776634336634336634",
					"opcodes": "PUSH1 0x80 PUSH1 0x40 MSTORE PUSH2 0xD11 PUSH1 0x0 DUP1 PUSH2 0x100 EXP DUP2 SLOAD DUP2 PUSH8 0xFFFFFFFFFFFFFFFF MUL NOT AND SWAP1 DUP4 PUSH8 0xFFFFFFFFFFFFFFFF AND MUL OR SWAP1 SSTORE POP PUSH1 0x1E PUSH1 0x0 PUSH1 0x8 PUSH2 0x100 EXP DUP2 SLOAD DUP2 PUSH1 0xFF MUL NOT AND SWAP1 DUP4 PUSH1 0xFF AND MUL OR SWAP1 SSTORE POP PUSH1 0x40 MLOAD DUP1 PUSH1 0x60 ADD PUSH1 0x40 MSTORE DUP1 PUSH1 0x27 DUP2 MSTORE PUSH1 0x20 ADD PUSH2 0x7AC PUSH1 0x27 SWAP2 CODECOPY PUSH1 0x1 SWAP1 DUP1 MLOAD SWAP1 PUSH1 0x20 ADD SWAP1 PUSH2 0x78 SWAP3 SWAP2 SWAP1 PUSH2 0x8B JUMP JUMPDEST POP CALLVALUE DUP1 ISZERO PUSH2 0x85 JUMPI PUSH1 0x0 DUP1 REVERT JUMPDEST POP PUSH2 0x130 JUMP JUMPDEST DUP3 DUP1 SLOAD PUSH1 0x1 DUP2 PUSH1 0x1 AND ISZERO PUSH2 0x100 MUL SUB AND PUSH1 0x2 SWAP1 DIV SWAP1 PUSH1 0x0 MSTORE PUSH1 0x20 PUSH1 0x0 KECCAK256 SWAP1 PUSH1 0x1F ADD PUSH1 0x20 SWAP1 DIV DUP2 ADD SWAP3 DUP3 PUSH1 0x1F LT PUSH2 0xCC JUMPI DUP1 MLOAD PUSH1 0xFF NOT AND DUP4 DUP1 ADD OR DUP6 SSTORE PUSH2 0xFA JUMP JUMPDEST DUP3 DUP1 ADD PUSH1 0x1 ADD DUP6 SSTORE DUP3 ISZERO PUSH2 0xFA JUMPI SWAP2 DUP3 ADD JUMPDEST DUP3 DUP2 GT ISZERO PUSH2 0xF9 JUMPI DUP3 MLOAD DUP3 SSTORE SWAP2 PUSH1 0x20 ADD SWAP2 SWAP1 PUSH1 0x1 ADD SWAP1 PUSH2 0xDE JUMP JUMPDEST JUMPDEST POP SWAP1 POP PUSH2 0x107 SWAP2 SWAP1 PUSH2 0x10B JUMP JUMPDEST POP SWAP1 JUMP JUMPDEST PUSH2 0x12D SWAP2 SWAP1 JUMPDEST DUP1 DUP3 GT ISZERO PUSH2 0x129 JUMPI PUSH1 0x0 DUP2 PUSH1 0x0 SWAP1 SSTORE POP PUSH1 0x1 ADD PUSH2 0x111 JUMP JUMPDEST POP SWAP1 JUMP JUMPDEST SWAP1 JUMP JUMPDEST PUSH2 0x66D DUP1 PUSH2 0x13F PUSH1 0x0 CODECOPY PUSH1 0x0 RETURN INVALID PUSH1 0x80 PUSH1 0x40 MSTORE CALLVALUE DUP1 ISZERO PUSH2 0x10 JUMPI PUSH1 0x0 DUP1 REVERT JUMPDEST POP PUSH1 0x4 CALLDATASIZE LT PUSH2 0x62 JUMPI PUSH1 0x0 CALLDATALOAD PUSH1 0xE0 SHR DUP1 PUSH4 0x19D66618 EQ PUSH2 0x67 JUMPI DUP1 PUSH4 0x73DA6C22 EQ PUSH2 0xEA JUMPI DUP1 PUSH4 0x863FE4AB EQ PUSH2 0x1A8 JUMPI DUP1 PUSH4 0x9539DED9 EQ PUSH2 0x1C6 JUMPI DUP1 PUSH4 0xE3A7FD75 EQ PUSH2 0x319 JUMPI DUP1 PUSH4 0xFC26B0AB EQ PUSH2 0x34B JUMPI JUMPDEST PUSH1 0x0 DUP1 REVERT JUMPDEST PUSH2 0x6F PUSH2 0x36F JUMP JUMPDEST PUSH1 0x40 MLOAD DUP1 DUP1 PUSH1 0x20 ADD DUP3 DUP2 SUB DUP3 MSTORE DUP4 DUP2 DUP2 MLOAD DUP2 MSTORE PUSH1 0x20 ADD SWAP2 POP DUP1 MLOAD SWAP1 PUSH1 0x20 ADD SWAP1 DUP1 DUP4 DUP4 PUSH1 0x0 JUMPDEST DUP4 DUP2 LT ISZERO PUSH2 0xAF JUMPI DUP1 DUP3 ADD MLOAD DUP2 DUP5 ADD MSTORE PUSH1 0x20 DUP2 ADD SWAP1 POP PUSH2 0x94 JUMP JUMPDEST POP POP POP POP SWAP1 POP SWAP1 DUP2 ADD SWAP1 PUSH1 0x1F AND DUP1 ISZERO PUSH2 0xDC JUMPI DUP1 DUP3 SUB DUP1 MLOAD PUSH1 0x1 DUP4 PUSH1 0x20 SUB PUSH2 0x100 EXP SUB NOT AND DUP2 MSTORE PUSH1 0x20 ADD SWAP2 POP JUMPDEST POP SWAP3 POP POP POP PUSH1 0x40 MLOAD DUP1 SWAP2 SUB SWAP1 RETURN JUMPDEST PUSH2 0x12D PUSH1 0x4 DUP1 CALLDATASIZE SUB PUSH1 0x40 DUP2 LT ISZERO PUSH2 0x100 JUMPI PUSH1 0x0 DUP1 REVERT JUMPDEST DUP2 ADD SWAP1 DUP1 DUP1 CALLDATALOAD PUSH8 0xFFFFFFFFFFFFFFFF AND SWAP1 PUSH1 0x20 ADD SWAP1 SWAP3 SWAP2 SWAP1 DUP1 CALLDATALOAD PUSH1 0xFF AND SWAP1 PUSH1 0x20 ADD SWAP1 SWAP3 SWAP2 SWAP1 POP POP POP PUSH2 0x40D JUMP JUMPDEST PUSH1 0x40 MLOAD DUP1 DUP1 PUSH1 0x20 ADD DUP3 DUP2 SUB DUP3 MSTORE DUP4 DUP2 DUP2 MLOAD DUP2 MSTORE PUSH1 0x20 ADD SWAP2 POP DUP1 MLOAD SWAP1 PUSH1 0x20 ADD SWAP1 DUP1 DUP4 DUP4 PUSH1 0x0 JUMPDEST DUP4 DUP2 LT ISZERO PUSH2 0x16D JUMPI DUP1 DUP3 ADD MLOAD DUP2 DUP5 ADD MSTORE PUSH1 0x20 DUP2 ADD SWAP1 POP PUSH2 0x152 JUMP JUMPDEST POP POP POP POP SWAP1 POP SWAP1 DUP2 ADD SWAP1 PUSH1 0x1F AND DUP1 ISZERO PUSH2 0x19A JUMPI DUP1 DUP3 SUB DUP1 MLOAD PUSH1 0x1 DUP4 PUSH1 0x20 SUB PUSH2 0x100 EXP SUB NOT AND DUP2 MSTORE PUSH1 0x20 ADD SWAP2 POP JUMPDEST POP SWAP3 POP POP POP PUSH1 0x40 MLOAD DUP1 SWAP2 SUB SWAP1 RETURN JUMPDEST PUSH2 0x1B0 PUSH2 0x421 JUMP JUMPDEST PUSH1 0x40 MLOAD DUP1 DUP3 DUP2 MSTORE PUSH1 0x20 ADD SWAP2 POP POP PUSH1 0x40 MLOAD DUP1 SWAP2 SUB SWAP1 RETURN JUMPDEST PUSH2 0x27F PUSH1 0x4 DUP1 CALLDATASIZE SUB PUSH1 0x20 DUP2 LT ISZERO PUSH2 0x1DC JUMPI PUSH1 0x0 DUP1 REVERT JUMPDEST DUP2 ADD SWAP1 DUP1 DUP1 CALLDATALOAD SWAP1 PUSH1 0x20 ADD SWAP1 PUSH5 0x100000000 DUP2 GT ISZERO PUSH2 0x1F9 JUMPI PUSH1 0x0 DUP1 REVERT JUMPDEST DUP3 ADD DUP4 PUSH1 0x20 DUP3 ADD GT ISZERO PUSH2 0x20B JUMPI PUSH1 0x0 DUP1 REVERT JUMPDEST DUP1 CALLDATALOAD SWAP1 PUSH1 0x20 ADD SWAP2 DUP5 PUSH1 0x1 DUP4 MUL DUP5 ADD GT PUSH5 0x100000000 DUP4 GT OR ISZERO PUSH2 0x22D JUMPI PUSH1 0x0 DUP1 REVERT JUMPDEST SWAP2 SWAP1 DUP1 DUP1 PUSH1 0x1F ADD PUSH1 0x20 DUP1 SWAP2 DIV MUL PUSH1 0x20 ADD PUSH1 0x40 MLOAD SWAP1 DUP2 ADD PUSH1 0x40 MSTORE DUP1 SWAP4 SWAP3 SWAP2 SWAP1 DUP2 DUP2 MSTORE PUSH1 0x20 ADD DUP4 DUP4 DUP1 DUP3 DUP5 CALLDATACOPY PUSH1 0x0 DUP2 DUP5 ADD MSTORE PUSH1 0x1F NOT PUSH1 0x1F DUP3 ADD AND SWAP1 POP DUP1 DUP4 ADD SWAP3 POP POP POP POP POP POP POP SWAP2 SWAP3 SWAP2 SWAP3 SWAP1 POP POP POP PUSH2 0x429 JUMP JUMPDEST PUSH1 0x40 MLOAD DUP1 DUP6 ISZERO ISZERO ISZERO ISZERO DUP2 MSTORE PUSH1 0x20 ADD DUP5 PUSH1 0xFF AND PUSH1 0xFF AND DUP2 MSTORE PUSH1 0x20 ADD DUP4 DUP2 MSTORE PUSH1 0x20 ADD DUP1 PUSH1 0x20 ADD DUP3 DUP2 SUB DUP3 MSTORE DUP4 DUP2 DUP2 MLOAD DUP2 MSTORE PUSH1 0x20 ADD SWAP2 POP DUP1 MLOAD SWAP1 PUSH1 0x20 ADD SWAP1 DUP1 DUP4 DUP4 PUSH1 0x0 JUMPDEST DUP4 DUP2 LT ISZERO PUSH2 0x2DB JUMPI DUP1 DUP3 ADD MLOAD DUP2 DUP5 ADD MSTORE PUSH1 0x20 DUP2 ADD SWAP1 POP PUSH2 0x2C0 JUMP JUMPDEST POP POP POP POP SWAP1 POP SWAP1 DUP2 ADD SWAP1 PUSH1 0x1F AND DUP1 ISZERO PUSH2 0x308 JUMPI DUP1 DUP3 SUB DUP1 MLOAD PUSH1 0x1 DUP4 PUSH1 0x20 SUB PUSH2 0x100 EXP SUB NOT AND DUP2 MSTORE PUSH1 0x20 ADD SWAP2 POP JUMPDEST POP SWAP6 POP POP POP POP POP POP PUSH1 0x40 MLOAD DUP1 SWAP2 SUB SWAP1 RETURN JUMPDEST PUSH2 0x321 PUSH2 0x448 JUMP JUMPDEST PUSH1 0x40 MLOAD DUP1 DUP3 PUSH8 0xFFFFFFFFFFFFFFFF AND PUSH8 0xFFFFFFFFFFFFFFFF AND DUP2 MSTORE PUSH1 0x20 ADD SWAP2 POP POP PUSH1 0x40 MLOAD DUP1 SWAP2 SUB SWAP1 RETURN JUMPDEST PUSH2 0x353 PUSH2 0x461 JUMP JUMPDEST PUSH1 0x40 MLOAD DUP1 DUP3 PUSH1 0xFF AND PUSH1 0xFF AND DUP2 MSTORE PUSH1 0x20 ADD SWAP2 POP POP PUSH1 0x40 MLOAD DUP1 SWAP2 SUB SWAP1 RETURN JUMPDEST PUSH1 0x1 DUP1 SLOAD PUSH1 0x1 DUP2 PUSH1 0x1 AND ISZERO PUSH2 0x100 MUL SUB AND PUSH1 0x2 SWAP1 DIV DUP1 PUSH1 0x1F ADD PUSH1 0x20 DUP1 SWAP2 DIV MUL PUSH1 0x20 ADD PUSH1 0x40 MLOAD SWAP1 DUP2 ADD PUSH1 0x40 MSTORE DUP1 SWAP3 SWAP2 SWAP1 DUP2 DUP2 MSTORE PUSH1 0x20 ADD DUP3 DUP1 SLOAD PUSH1 0x1 DUP2 PUSH1 0x1 AND ISZERO PUSH2 0x100 MUL SUB AND PUSH1 0x2 SWAP1 DIV DUP1 ISZERO PUSH2 0x405 JUMPI DUP1 PUSH1 0x1F LT PUSH2 0x3DA JUMPI PUSH2 0x100 DUP1 DUP4 SLOAD DIV MUL DUP4 MSTORE SWAP2 PUSH1 0x20 ADD SWAP2 PUSH2 0x405 JUMP JUMPDEST DUP3 ADD SWAP2 SWAP1 PUSH1 0x0 MSTORE PUSH1 0x20 PUSH1 0x0 KECCAK256 SWAP1 JUMPDEST DUP2 SLOAD DUP2 MSTORE SWAP1 PUSH1 0x1 ADD SWAP1 PUSH1 0x20 ADD DUP1 DUP4 GT PUSH2 0x3E8 JUMPI DUP3 SWAP1 SUB PUSH1 0x1F AND DUP3 ADD SWAP2 JUMPDEST POP POP POP POP POP DUP2 JUMP JUMPDEST PUSH1 0x60 PUSH2 0x419 DUP4 DUP4 PUSH2 0x474 JUMP JUMPDEST SWAP1 POP SWAP3 SWAP2 POP POP JUMP JUMPDEST PUSH4 0x1006000 DUP2 JUMP JUMPDEST PUSH1 0x0 DUP1 PUSH1 0x0 PUSH1 0x60 PUSH2 0x439 DUP6 PUSH2 0x4E7 JUMP JUMPDEST SWAP4 POP SWAP4 POP SWAP4 POP SWAP4 POP SWAP2 SWAP4 POP SWAP2 SWAP4 JUMP JUMPDEST PUSH1 0x0 DUP1 SWAP1 SLOAD SWAP1 PUSH2 0x100 EXP SWAP1 DIV PUSH8 0xFFFFFFFFFFFFFFFF AND DUP2 JUMP JUMPDEST PUSH1 0x0 PUSH1 0x8 SWAP1 SLOAD SWAP1 PUSH2 0x100 EXP SWAP1 DIV PUSH1 0xFF AND DUP2 JUMP JUMPDEST PUSH1 0x60 PUSH1 0x0 DUP3 PUSH1 0xFF AND PUSH4 0x1006000 OR SWAP1 POP PUSH1 0x60 PUSH1 0xE PUSH1 0x40 MLOAD SWAP1 DUP1 DUP3 MSTORE DUP1 PUSH1 0x1F ADD PUSH1 0x1F NOT AND PUSH1 0x20 ADD DUP3 ADD PUSH1 0x40 MSTORE DUP1 ISZERO PUSH2 0x4BA JUMPI DUP2 PUSH1 0x20 ADD PUSH1 0x1 DUP3 MUL DUP1 CODESIZE DUP4 CODECOPY DUP1 DUP3 ADD SWAP2 POP POP SWAP1 POP JUMPDEST POP SWAP1 POP PUSH1 0x0 PUSH1 0xE DUP3 ADD SWAP1 POP DUP6 DUP2 MSTORE PUSH1 0x8 DUP2 SUB SWAP1 POP DUP3 DUP2 MSTORE PUSH1 0x6 DUP2 SUB SWAP1 POP PUSH1 0xE DUP2 MSTORE DUP2 SWAP4 POP POP POP POP SWAP3 SWAP2 POP POP JUMP JUMPDEST PUSH1 0x0 DUP1 PUSH1 0x0 PUSH1 0x60 PUSH1 0x21 DUP6 MLOAD LT ISZERO PUSH2 0x547 JUMPI PUSH1 0x0 DUP1 PUSH1 0x0 DUP1 PUSH1 0x40 MLOAD SWAP1 DUP1 DUP3 MSTORE DUP1 PUSH1 0x1F ADD PUSH1 0x1F NOT AND PUSH1 0x20 ADD DUP3 ADD PUSH1 0x40 MSTORE DUP1 ISZERO PUSH2 0x530 JUMPI DUP2 PUSH1 0x20 ADD PUSH1 0x1 DUP3 MUL DUP1 CODESIZE DUP4 CODECOPY DUP1 DUP3 ADD SWAP2 POP POP SWAP1 POP JUMPDEST POP DUP3 SWAP3 POP DUP2 SWAP2 POP DUP1 SWAP1 POP SWAP4 POP SWAP4 POP SWAP4 POP SWAP4 POP PUSH2 0x5D6 JUMP JUMPDEST PUSH1 0x0 DUP6 SWAP1 POP PUSH1 0x0 PUSH1 0x1 DUP3 ADD SWAP2 POP DUP2 MLOAD SWAP1 POP PUSH1 0x0 PUSH1 0x20 DUP4 ADD SWAP3 POP DUP3 MLOAD SWAP1 POP PUSH1 0x20 DUP4 ADD SWAP3 POP PUSH1 0x60 PUSH1 0x21 DUP10 MLOAD SUB PUSH1 0x40 MLOAD SWAP1 DUP1 DUP3 MSTORE DUP1 PUSH1 0x1F ADD PUSH1 0x1F NOT AND PUSH1 0x20 ADD DUP3 ADD PUSH1 0x40 MSTORE DUP1 ISZERO PUSH2 0x5A3 JUMPI DUP2 PUSH1 0x20 ADD PUSH1 0x1 DUP3 MUL DUP1 CODESIZE DUP4 CODECOPY DUP1 DUP3 ADD SWAP2 POP POP SWAP1 POP JUMPDEST POP SWAP1 POP PUSH1 0x0 PUSH2 0x5B1 DUP3 PUSH2 0x5DD JUMP JUMPDEST POP SWAP1 POP PUSH2 0x5C3 DUP6 DUP3 PUSH1 0x21 DUP14 MLOAD SUB PUSH2 0x5EF JUMP JUMPDEST PUSH1 0x1 DUP5 DUP5 DUP5 SWAP9 POP SWAP9 POP SWAP9 POP SWAP9 POP POP POP POP POP POP JUMPDEST SWAP2 SWAP4 POP SWAP2 SWAP4 JUMP JUMPDEST PUSH1 0x0 DUP1 DUP3 MLOAD SWAP1 POP PUSH1 0x20 DUP4 ADD SWAP2 POP SWAP2 POP SWAP2 JUMP JUMPDEST JUMPDEST PUSH1 0x20 DUP2 LT PUSH2 0x613 JUMPI DUP3 MLOAD DUP3 MSTORE PUSH1 0x20 DUP3 ADD SWAP2 POP PUSH1 0x20 DUP4 ADD SWAP3 POP PUSH1 0x20 DUP2 SUB SWAP1 POP PUSH2 0x5F0 JUMP JUMPDEST PUSH1 0x0 PUSH1 0x1 DUP3 PUSH1 0x20 SUB PUSH2 0x100 EXP SUB SWAP1 POP DUP1 NOT DUP5 MLOAD AND DUP2 DUP5 MLOAD AND DUP2 DUP2 OR DUP6 MSTORE POP POP POP POP POP POP JUMP INVALID LOG2 PUSH6 0x627A7A723158 KECCAK256 0xC9 PUSH1 0xFD BLOCKHASH 0x4C OR PUSH25 0x63FE767E9515EAE4975B7F8C36441EFB73A75FE2244E2304DE PUSH5 0x736F6C6343 STOP SDIV LT STOP ORIGIN MSTORE8 0x49 SSTORE DIFFICULTY 0x48 MSTORE8 SSTORE 0x49 DIFFICULTY TIMESTAMP CODESIZE CODECOPY ORIGIN CALLER PUSH9 0x646638393233686438 CODECOPY ORIGIN CALLER PUSH6 0x666577663433 PUSH7 0x34336634000000 "
				},
				"gasEstimates": {
					"creation": {
						"codeDepositCost": "329000",
						"executionCost": "infinite",
						"totalCost": "infinite"
					},
					"external": {
						"CROSS_CHAIN_KEY_PREFIX()": "227",
						"data2()": "1119",
						"data3()": "1191",
						"dataX()": "infinite",
						"getDecodekey(bytes)": "infinite",
						"getGeratekey(uint64,uint8)": "infinite"
					},
					"internal": {
						"decodePayloadHeader(bytes memory)": "infinite",
						"generateKey(uint64,uint8)": "infinite"
					}
				},
				"methodIdentifiers": {
					"CROSS_CHAIN_KEY_PREFIX()": "863fe4ab",
					"data2()": "e3a7fd75",
					"data3()": "fc26b0ab",
					"dataX()": "19d66618",
					"getDecodekey(bytes)": "9539ded9",
					"getGeratekey(uint64,uint8)": "73da6c22"
				}
			},
			"userdoc": {
				"methods": {}
			}
		}
	}
}