{
	"contracts/demo2.sol": {
		"demo2": {
			"abi": [
				{
					"inputs": [],
					"name": "data1",
					"outputs": [
						{
							"internalType": "bytes",
							"name": "",
							"type": "bytes"
						}
					],
					"stateMutability": "view",
					"type": "function"
				},
				{
					"inputs": [],
					"name": "data2",
					"outputs": [
						{
							"internalType": "bytes32",
							"name": "",
							"type": "bytes32"
						}
					],
					"stateMutability": "view",
					"type": "function"
				},
				{
					"inputs": [],
					"name": "data3",
					"outputs": [
						{
							"internalType": "bytes32",
							"name": "",
							"type": "bytes32"
						}
					],
					"stateMutability": "view",
					"type": "function"
				},
				{
					"inputs": [],
					"name": "getData",
					"outputs": [
						{
							"internalType": "bytes",
							"name": "",
							"type": "bytes"
						}
					],
					"stateMutability": "view",
					"type": "function"
				}
			],
			"devdoc": {
				"methods": {}
			},
			"evm": {
				"assembly": "    /* \"contracts/demo2.sol\":38:4996  contract demo2 {\r... */\n  mstore(0x40, 0x80)\n    /* \"contracts/demo2.sol\":60:129  bytes public data1 = \"NALEHHJSGDSDGHJSDHSUHDJSHDJSHJSHJSHDSJDHJONGVO\" */\n  mload(0x40)\n  dup1\n  0x60\n  add\n  0x40\n  mstore\n  dup1\n  0x2e\n  dup2\n  mstore\n  0x20\n  add\n  data_4887836e294a2761413359597244d307bbe3f94827f6160d9e1a399e00e2d1be\n  0x2e\n  swap2\n  codecopy\n  0x00\n  swap1\n  dup1\n  mload\n  swap1\n  0x20\n  add\n  swap1\n  tag_1\n  swap3\n  swap2\n  swap1\n  tag_2\n  jump\t// in\ntag_1:\n  pop\n    /* \"contracts/demo2.sol\":136:183  bytes32 public data2 = \"LEHONGVOwjnfvj3weh8vKJ\" */\n  sstore(0x01, 0x4c45484f4e47564f776a6e66766a3377656838764b4a00000000000000000000)\n    /* \"contracts/demo2.sol\":190:246  bytes32 public data3 = \"LDUCECUEHUHCUIEHCUHEUCHEUCHUECH\" */\n  sstore(0x02, 0x4c44554345435545485548435549454843554845554348455543485545434800)\n    /* \"contracts/demo2.sol\":38:4996  contract demo2 {\r... */\n  callvalue\n    /* \"--CODEGEN--\":5:14   */\n  dup1\n    /* \"--CODEGEN--\":2:4   */\n  iszero\n  tag_3\n  jumpi\n    /* \"--CODEGEN--\":27:28   */\n  0x00\n    /* \"--CODEGEN--\":24:25   */\n  dup1\n    /* \"--CODEGEN--\":17:29   */\n  revert\n    /* \"--CODEGEN--\":2:4   */\ntag_3:\n    /* \"contracts/demo2.sol\":38:4996  contract demo2 {\r... */\n  pop\n  jump(tag_4)\ntag_2:\n  dup3\n  dup1\n  sload\n  0x01\n  dup2\n  0x01\n  and\n  iszero\n  0x0100\n  mul\n  sub\n  and\n  0x02\n  swap1\n  div\n  swap1\n  0x00\n  mstore\n  keccak256(0x00, 0x20)\n  swap1\n  0x1f\n  add\n  0x20\n  swap1\n  div\n  dup2\n  add\n  swap3\n  dup3\n  0x1f\n  lt\n  tag_6\n  jumpi\n  dup1\n  mload\n  not(0xff)\n  and\n  dup4\n  dup1\n  add\n  or\n  dup6\n  sstore\n  jump(tag_5)\ntag_6:\n  dup3\n  dup1\n  add\n  0x01\n  add\n  dup6\n  sstore\n  dup3\n  iszero\n  tag_5\n  jumpi\n  swap2\n  dup3\n  add\ntag_7:\n  dup3\n  dup2\n  gt\n  iszero\n  tag_8\n  jumpi\n  dup3\n  mload\n  dup3\n  sstore\n  swap2\n  0x20\n  add\n  swap2\n  swap1\n  0x01\n  add\n  swap1\n  jump(tag_7)\ntag_8:\ntag_5:\n  pop\n  swap1\n  pop\n  tag_9\n  swap2\n  swap1\n  tag_10\n  jump\t// in\ntag_9:\n  pop\n  swap1\n  jump\t// out\ntag_10:\n  tag_11\n  swap2\n  swap1\ntag_12:\n  dup1\n  dup3\n  gt\n  iszero\n  tag_13\n  jumpi\n  0x00\n  dup2\n  0x00\n  swap1\n  sstore\n  pop\n  0x01\n  add\n  jump(tag_12)\ntag_13:\n  pop\n  swap1\n  jump\ntag_11:\n  swap1\n  jump\t// out\ntag_4:\n  dataSize(sub_0)\n  dup1\n  dataOffset(sub_0)\n  0x00\n  codecopy\n  0x00\n  return\nstop\ndata_4887836e294a2761413359597244d307bbe3f94827f6160d9e1a399e00e2d1be 4e414c4548484a534744534447484a534448535548444a5348444a53484a53484a534844534a44484a4f4e47564f\n\nsub_0: assembly {\n        /* \"contracts/demo2.sol\":38:4996  contract demo2 {\r... */\n      mstore(0x40, 0x80)\n      callvalue\n        /* \"--CODEGEN--\":5:14   */\n      dup1\n        /* \"--CODEGEN--\":2:4   */\n      iszero\n      tag_1\n      jumpi\n        /* \"--CODEGEN--\":27:28   */\n      0x00\n        /* \"--CODEGEN--\":24:25   */\n      dup1\n        /* \"--CODEGEN--\":17:29   */\n      revert\n        /* \"--CODEGEN--\":2:4   */\n    tag_1:\n        /* \"contracts/demo2.sol\":38:4996  contract demo2 {\r... */\n      pop\n      jumpi(tag_2, lt(calldatasize, 0x04))\n      shr(0xe0, calldataload(0x00))\n      dup1\n      0x3bc5de30\n      eq\n      tag_3\n      jumpi\n      dup1\n      0x9ffd85c4\n      eq\n      tag_4\n      jumpi\n      dup1\n      0xe3a7fd75\n      eq\n      tag_5\n      jumpi\n      dup1\n      0xfc26b0ab\n      eq\n      tag_6\n      jumpi\n    tag_2:\n        /* \"--CODEGEN--\":12:13   */\n      0x00\n        /* \"--CODEGEN--\":9:10   */\n      dup1\n        /* \"--CODEGEN--\":2:14   */\n      revert\n        /* \"contracts/demo2.sol\":316:411  function getData() public view returns(bytes memory) {\r... */\n    tag_3:\n      tag_7\n      tag_8\n      jump\t// in\n    tag_7:\n      mload(0x40)\n      dup1\n      dup1\n      0x20\n      add\n      dup3\n      dup2\n      sub\n      dup3\n      mstore\n      dup4\n      dup2\n      dup2\n      mload\n      dup2\n      mstore\n      0x20\n      add\n      swap2\n      pop\n      dup1\n      mload\n      swap1\n      0x20\n      add\n      swap1\n      dup1\n      dup4\n      dup4\n        /* \"--CODEGEN--\":23:24   */\n      0x00\n        /* \"--CODEGEN--\":8:108   */\n    tag_9:\n        /* \"--CODEGEN--\":33:36   */\n      dup4\n        /* \"--CODEGEN--\":30:31   */\n      dup2\n        /* \"--CODEGEN--\":27:37   */\n      lt\n        /* \"--CODEGEN--\":8:108   */\n      iszero\n      tag_11\n      jumpi\n        /* \"--CODEGEN--\":99:100   */\n      dup1\n        /* \"--CODEGEN--\":94:97   */\n      dup3\n        /* \"--CODEGEN--\":90:101   */\n      add\n        /* \"--CODEGEN--\":84:102   */\n      mload\n        /* \"--CODEGEN--\":80:81   */\n      dup2\n        /* \"--CODEGEN--\":75:78   */\n      dup5\n        /* \"--CODEGEN--\":71:82   */\n      add\n        /* \"--CODEGEN--\":64:103   */\n      mstore\n        /* \"--CODEGEN--\":52:54   */\n      0x20\n        /* \"--CODEGEN--\":49:50   */\n      dup2\n        /* \"--CODEGEN--\":45:55   */\n      add\n        /* \"--CODEGEN--\":40:55   */\n      swap1\n      pop\n        /* \"--CODEGEN--\":8:108   */\n      jump(tag_9)\n    tag_11:\n        /* \"--CODEGEN--\":12:26   */\n      pop\n        /* \"contracts/demo2.sol\":316:411  function getData() public view returns(bytes memory) {\r... */\n      pop\n      pop\n      pop\n      swap1\n      pop\n      swap1\n      dup2\n      add\n      swap1\n      0x1f\n      and\n      dup1\n      iszero\n      tag_12\n      jumpi\n      dup1\n      dup3\n      sub\n      dup1\n      mload\n      0x01\n      dup4\n      0x20\n      sub\n      0x0100\n      exp\n      sub\n      not\n      and\n      dup2\n      mstore\n      0x20\n      add\n      swap2\n      pop\n    tag_12:\n      pop\n      swap3\n      pop\n      pop\n      pop\n      mload(0x40)\n      dup1\n      swap2\n      sub\n      swap1\n      return\n        /* \"contracts/demo2.sol\":60:129  bytes public data1 = \"NALEHHJSGDSDGHJSDHSUHDJSHDJSHJSHJSHDSJDHJONGVO\" */\n    tag_4:\n      tag_13\n      tag_14\n      jump\t// in\n    tag_13:\n      mload(0x40)\n      dup1\n      dup1\n      0x20\n      add\n      dup3\n      dup2\n      sub\n      dup3\n      mstore\n      dup4\n      dup2\n      dup2\n      mload\n      dup2\n      mstore\n      0x20\n      add\n      swap2\n      pop\n      dup1\n      mload\n      swap1\n      0x20\n      add\n      swap1\n      dup1\n      dup4\n      dup4\n        /* \"--CODEGEN--\":23:24   */\n      0x00\n        /* \"--CODEGEN--\":8:108   */\n    tag_15:\n        /* \"--CODEGEN--\":33:36   */\n      dup4\n        /* \"--CODEGEN--\":30:31   */\n      dup2\n        /* \"--CODEGEN--\":27:37   */\n      lt\n        /* \"--CODEGEN--\":8:108   */\n      iszero\n      tag_17\n      jumpi\n        /* \"--CODEGEN--\":99:100   */\n      dup1\n        /* \"--CODEGEN--\":94:97   */\n      dup3\n        /* \"--CODEGEN--\":90:101   */\n      add\n        /* \"--CODEGEN--\":84:102   */\n      mload\n        /* \"--CODEGEN--\":80:81   */\n      dup2\n        /* \"--CODEGEN--\":75:78   */\n      dup5\n        /* \"--CODEGEN--\":71:82   */\n      add\n        /* \"--CODEGEN--\":64:103   */\n      mstore\n        /* \"--CODEGEN--\":52:54   */\n      0x20\n        /* \"--CODEGEN--\":49:50   */\n      dup2\n        /* \"--CODEGEN--\":45:55   */\n      add\n        /* \"--CODEGEN--\":40:55   */\n      swap1\n      pop\n        /* \"--CODEGEN--\":8:108   */\n      jump(tag_15)\n    tag_17:\n        /* \"--CODEGEN--\":12:26   */\n      pop\n        /* \"contracts/demo2.sol\":60:129  bytes public data1 = \"NALEHHJSGDSDGHJSDHSUHDJSHDJSHJSHJSHDSJDHJONGVO\" */\n      pop\n      pop\n      pop\n      swap1\n      pop\n      swap1\n      dup2\n      add\n      swap1\n      0x1f\n      and\n      dup1\n      iszero\n      tag_18\n      jumpi\n      dup1\n      dup3\n      sub\n      dup1\n      mload\n      0x01\n      dup4\n      0x20\n      sub\n      0x0100\n      exp\n      sub\n      not\n      and\n      dup2\n      mstore\n      0x20\n      add\n      swap2\n      pop\n    tag_18:\n      pop\n      swap3\n      pop\n      pop\n      pop\n      mload(0x40)\n      dup1\n      swap2\n      sub\n      swap1\n      return\n        /* \"contracts/demo2.sol\":136:183  bytes32 public data2 = \"LEHONGVOwjnfvj3weh8vKJ\" */\n    tag_5:\n      tag_19\n      tag_20\n      jump\t// in\n    tag_19:\n      mload(0x40)\n      dup1\n      dup3\n      dup2\n      mstore\n      0x20\n      add\n      swap2\n      pop\n      pop\n      mload(0x40)\n      dup1\n      swap2\n      sub\n      swap1\n      return\n        /* \"contracts/demo2.sol\":190:246  bytes32 public data3 = \"LDUCECUEHUHCUIEHCUHEUCHEUCHUECH\" */\n    tag_6:\n      tag_21\n      tag_22\n      jump\t// in\n    tag_21:\n      mload(0x40)\n      dup1\n      dup3\n      dup2\n      mstore\n      0x20\n      add\n      swap2\n      pop\n      pop\n      mload(0x40)\n      dup1\n      swap2\n      sub\n      swap1\n      return\n        /* \"contracts/demo2.sol\":316:411  function getData() public view returns(bytes memory) {\r... */\n    tag_8:\n        /* \"contracts/demo2.sol\":355:367  bytes memory */\n      0x60\n        /* \"contracts/demo2.sol\":387:403  encodeList(self) */\n      tag_24\n        /* \"contracts/demo2.sol\":398:402  self */\n      0x03\n        /* \"contracts/demo2.sol\":387:403  encodeList(self) */\n      dup1\n      sload\n      dup1\n      0x20\n      mul\n      0x20\n      add\n      mload(0x40)\n      swap1\n      dup2\n      add\n      0x40\n      mstore\n      dup1\n      swap3\n      swap2\n      swap1\n      dup2\n      dup2\n      mstore\n      0x20\n      add\n      0x00\n      swap1\n    tag_25:\n      dup3\n      dup3\n      lt\n      iszero\n      tag_26\n      jumpi\n      dup4\n      dup3\n      swap1\n      0x00\n      mstore\n      keccak256(0x00, 0x20)\n      add\n      dup1\n      sload\n      0x01\n      dup2\n      0x01\n      and\n      iszero\n      0x0100\n      mul\n      sub\n      and\n      0x02\n      swap1\n      div\n      dup1\n      0x1f\n      add\n      0x20\n      dup1\n      swap2\n      div\n      mul\n      0x20\n      add\n      mload(0x40)\n      swap1\n      dup2\n      add\n      0x40\n      mstore\n      dup1\n      swap3\n      swap2\n      swap1\n      dup2\n      dup2\n      mstore\n      0x20\n      add\n      dup3\n      dup1\n      sload\n      0x01\n      dup2\n      0x01\n      and\n      iszero\n      0x0100\n      mul\n      sub\n      and\n      0x02\n      swap1\n      div\n      dup1\n      iszero\n      tag_28\n      jumpi\n      dup1\n      0x1f\n      lt\n      tag_29\n      jumpi\n      0x0100\n      dup1\n      dup4\n      sload\n      div\n      mul\n      dup4\n      mstore\n      swap2\n      0x20\n      add\n      swap2\n      jump(tag_28)\n    tag_29:\n      dup3\n      add\n      swap2\n      swap1\n      0x00\n      mstore\n      keccak256(0x00, 0x20)\n      swap1\n    tag_30:\n      dup2\n      sload\n      dup2\n      mstore\n      swap1\n      0x01\n      add\n      swap1\n      0x20\n      add\n      dup1\n      dup4\n      gt\n      tag_30\n      jumpi\n      dup3\n      swap1\n      sub\n      0x1f\n      and\n      dup3\n      add\n      swap2\n    tag_28:\n      pop\n      pop\n      pop\n      pop\n      pop\n      dup2\n      mstore\n      0x20\n      add\n      swap1\n      0x01\n      add\n      swap1\n      jump(tag_25)\n    tag_26:\n      pop\n      pop\n      pop\n      pop\n        /* \"contracts/demo2.sol\":387:397  encodeList */\n      tag_31\n        /* \"contracts/demo2.sol\":387:403  encodeList(self) */\n      jump\t// in\n    tag_24:\n        /* \"contracts/demo2.sol\":380:403  return encodeList(self) */\n      swap1\n      pop\n        /* \"contracts/demo2.sol\":316:411  function getData() public view returns(bytes memory) {\r... */\n      swap1\n      jump\t// out\n        /* \"contracts/demo2.sol\":60:129  bytes public data1 = \"NALEHHJSGDSDGHJSDHSUHDJSHDJSHJSHJSHDSJDHJONGVO\" */\n    tag_14:\n      0x00\n      dup1\n      sload\n      0x01\n      dup2\n      0x01\n      and\n      iszero\n      0x0100\n      mul\n      sub\n      and\n      0x02\n      swap1\n      div\n      dup1\n      0x1f\n      add\n      0x20\n      dup1\n      swap2\n      div\n      mul\n      0x20\n      add\n      mload(0x40)\n      swap1\n      dup2\n      add\n      0x40\n      mstore\n      dup1\n      swap3\n      swap2\n      swap1\n      dup2\n      dup2\n      mstore\n      0x20\n      add\n      dup3\n      dup1\n      sload\n      0x01\n      dup2\n      0x01\n      and\n      iszero\n      0x0100\n      mul\n      sub\n      and\n      0x02\n      swap1\n      div\n      dup1\n      iszero\n      tag_32\n      jumpi\n      dup1\n      0x1f\n      lt\n      tag_33\n      jumpi\n      0x0100\n      dup1\n      dup4\n      sload\n      div\n      mul\n      dup4\n      mstore\n      swap2\n      0x20\n      add\n      swap2\n      jump(tag_32)\n    tag_33:\n      dup3\n      add\n      swap2\n      swap1\n      0x00\n      mstore\n      keccak256(0x00, 0x20)\n      swap1\n    tag_34:\n      dup2\n      sload\n      dup2\n      mstore\n      swap1\n      0x01\n      add\n      swap1\n      0x20\n      add\n      dup1\n      dup4\n      gt\n      tag_34\n      jumpi\n      dup3\n      swap1\n      sub\n      0x1f\n      and\n      dup3\n      add\n      swap2\n    tag_32:\n      pop\n      pop\n      pop\n      pop\n      pop\n      dup2\n      jump\t// out\n        /* \"contracts/demo2.sol\":136:183  bytes32 public data2 = \"LEHONGVOwjnfvj3weh8vKJ\" */\n    tag_20:\n      sload(0x01)\n      dup2\n      jump\t// out\n        /* \"contracts/demo2.sol\":190:246  bytes32 public data3 = \"LDUCECUEHUHCUIEHCUHEUCHEUCHUECH\" */\n    tag_22:\n      sload(0x02)\n      dup2\n      jump\t// out\n        /* \"contracts/demo2.sol\":419:818  function encodeList(bytes[] memory self) internal pure returns (bytes memory) {\r... */\n    tag_31:\n        /* \"contracts/demo2.sol\":483:495  bytes memory */\n      0x60\n        /* \"contracts/demo2.sol\":527:528  0 */\n      0x00\n        /* \"contracts/demo2.sol\":512:516  self */\n      dup3\n        /* \"contracts/demo2.sol\":512:523  self.length */\n      mload\n        /* \"contracts/demo2.sol\":512:528  self.length == 0 */\n      eq\n        /* \"contracts/demo2.sol\":508:576  if (self.length == 0) {\r... */\n      iszero\n      tag_36\n      jumpi\n        /* \"contracts/demo2.sol\":562:563  0 */\n      0x00\n        /* \"contracts/demo2.sol\":552:564  new bytes(0) */\n      mload(0x40)\n      swap1\n      dup1\n      dup3\n      mstore\n      dup1\n      0x1f\n      add\n      not(0x1f)\n      and\n      0x20\n      add\n      dup3\n      add\n      0x40\n      mstore\n      dup1\n      iszero\n      tag_37\n      jumpi\n      dup2\n      0x20\n      add\n        /* \"--CODEGEN--\":29:30   */\n      0x01\n        /* \"--CODEGEN--\":21:27   */\n      dup3\n        /* \"--CODEGEN--\":17:31   */\n      mul\n        /* \"--CODEGEN--\":124:128   */\n      dup1\n        /* \"--CODEGEN--\":108:122   */\n      calldatasize\n        /* \"--CODEGEN--\":100:106   */\n      dup4\n        /* \"--CODEGEN--\":87:129   */\n      calldatacopy\n        /* \"--CODEGEN--\":155:159   */\n      dup1\n        /* \"--CODEGEN--\":147:153   */\n      dup3\n        /* \"--CODEGEN--\":143:160   */\n      add\n        /* \"--CODEGEN--\":133:160   */\n      swap2\n      pop\n        /* \"--CODEGEN--\":0:164   */\n      pop\n        /* \"contracts/demo2.sol\":552:564  new bytes(0) */\n      swap1\n      pop\n    tag_37:\n      pop\n        /* \"contracts/demo2.sol\":545:564  return new bytes(0) */\n      swap1\n      pop\n      jump(tag_35)\n        /* \"contracts/demo2.sol\":508:576  if (self.length == 0) {\r... */\n    tag_36:\n        /* \"contracts/demo2.sol\":586:606  bytes memory payload */\n      0x60\n        /* \"contracts/demo2.sol\":609:613  self */\n      dup3\n        /* \"contracts/demo2.sol\":614:615  0 */\n      0x00\n        /* \"contracts/demo2.sol\":609:616  self[0] */\n      dup2\n      mload\n      dup2\n      lt\n      tag_38\n      jumpi\n      invalid\n    tag_38:\n      0x20\n      mul\n      0x20\n      add\n      add\n      mload\n        /* \"contracts/demo2.sol\":586:616  bytes memory payload = self[0] */\n      swap1\n      pop\n        /* \"contracts/demo2.sol\":632:638  uint i */\n      0x00\n        /* \"contracts/demo2.sol\":641:642  1 */\n      0x01\n        /* \"contracts/demo2.sol\":632:642  uint i = 1 */\n      swap1\n      pop\n        /* \"contracts/demo2.sol\":627:731  for (uint i = 1; i < self.length; i++) {\r... */\n    tag_39:\n        /* \"contracts/demo2.sol\":648:652  self */\n      dup4\n        /* \"contracts/demo2.sol\":648:659  self.length */\n      mload\n        /* \"contracts/demo2.sol\":644:645  i */\n      dup2\n        /* \"contracts/demo2.sol\":644:659  i < self.length */\n      lt\n        /* \"contracts/demo2.sol\":627:731  for (uint i = 1; i < self.length; i++) {\r... */\n      iszero\n      tag_40\n      jumpi\n        /* \"contracts/demo2.sol\":691:719  mergeBytes(payload, self[i]) */\n      tag_42\n        /* \"contracts/demo2.sol\":702:709  payload */\n      dup3\n        /* \"contracts/demo2.sol\":711:715  self */\n      dup6\n        /* \"contracts/demo2.sol\":716:717  i */\n      dup4\n        /* \"contracts/demo2.sol\":711:718  self[i] */\n      dup2\n      mload\n      dup2\n      lt\n      tag_43\n      jumpi\n      invalid\n    tag_43:\n      0x20\n      mul\n      0x20\n      add\n      add\n      mload\n        /* \"contracts/demo2.sol\":691:701  mergeBytes */\n      tag_44\n        /* \"contracts/demo2.sol\":691:719  mergeBytes(payload, self[i]) */\n      jump\t// in\n    tag_42:\n        /* \"contracts/demo2.sol\":681:719  payload = mergeBytes(payload, self[i]) */\n      swap2\n      pop\n        /* \"contracts/demo2.sol\":661:664  i++ */\n      dup1\n      dup1\n      0x01\n      add\n      swap2\n      pop\n      pop\n        /* \"contracts/demo2.sol\":627:731  for (uint i = 1; i < self.length; i++) {\r... */\n      jump(tag_39)\n    tag_40:\n      pop\n        /* \"contracts/demo2.sol\":748:810  mergeBytes(encodeLength(payload.length, LIST_OFFSET), payload) */\n      tag_45\n        /* \"contracts/demo2.sol\":759:800  encodeLength(payload.length, LIST_OFFSET) */\n      tag_46\n        /* \"contracts/demo2.sol\":772:779  payload */\n      dup3\n        /* \"contracts/demo2.sol\":772:786  payload.length */\n      mload\n        /* \"contracts/demo2.sol\":282:286  0xc0 */\n      0xc0\n        /* \"contracts/demo2.sol\":759:800  encodeLength(payload.length, LIST_OFFSET) */\n      0xff\n      and\n        /* \"contracts/demo2.sol\":759:771  encodeLength */\n      tag_47\n        /* \"contracts/demo2.sol\":759:800  encodeLength(payload.length, LIST_OFFSET) */\n      jump\t// in\n    tag_46:\n        /* \"contracts/demo2.sol\":802:809  payload */\n      dup3\n        /* \"contracts/demo2.sol\":748:758  mergeBytes */\n      tag_44\n        /* \"contracts/demo2.sol\":748:810  mergeBytes(encodeLength(payload.length, LIST_OFFSET), payload) */\n      jump\t// in\n    tag_45:\n        /* \"contracts/demo2.sol\":741:810  return mergeBytes(encodeLength(payload.length, LIST_OFFSET), payload) */\n      swap2\n      pop\n      pop\n        /* \"contracts/demo2.sol\":419:818  function encodeList(bytes[] memory self) internal pure returns (bytes memory) {\r... */\n    tag_35:\n      swap2\n      swap1\n      pop\n      jump\t// out\n        /* \"contracts/demo2.sol\":1274:4189  function mergeBytes(\r... */\n    tag_44:\n        /* \"contracts/demo2.sol\":1406:1418  bytes memory */\n      0x60\n        /* \"contracts/demo2.sol\":1436:1458  bytes memory tempBytes */\n      dup1\n        /* \"contracts/demo2.sol\":1638:1642  0x40 */\n      0x40\n        /* \"contracts/demo2.sol\":1632:1643  mload(0x40) */\n      mload\n        /* \"contracts/demo2.sol\":1619:1643  tempBytes := mload(0x40) */\n      swap1\n      pop\n        /* \"contracts/demo2.sol\":1791:1800  _preBytes */\n      dup4\n        /* \"contracts/demo2.sol\":1785:1801  mload(_preBytes) */\n      mload\n        /* \"contracts/demo2.sol\":1833:1839  length */\n      dup1\n        /* \"contracts/demo2.sol\":1822:1831  tempBytes */\n      dup3\n        /* \"contracts/demo2.sol\":1815:1840  mstore(tempBytes, length) */\n      mstore\n        /* \"contracts/demo2.sol\":2068:2072  0x20 */\n      0x20\n        /* \"contracts/demo2.sol\":2057:2066  tempBytes */\n      dup3\n        /* \"contracts/demo2.sol\":2053:2073  add(tempBytes, 0x20) */\n      add\n        /* \"contracts/demo2.sol\":2212:2218  length */\n      dup2\n        /* \"contracts/demo2.sol\":2208:2210  mc */\n      dup2\n        /* \"contracts/demo2.sol\":2204:2219  add(mc, length) */\n      add\n        /* \"contracts/demo2.sol\":2403:2407  0x20 */\n      0x20\n        /* \"contracts/demo2.sol\":2392:2401  _preBytes */\n      dup8\n        /* \"contracts/demo2.sol\":2388:2408  add(_preBytes, 0x20) */\n      add\n        /* \"contracts/demo2.sol\":2235:2752  for {\r... */\n    tag_49:\n        /* \"contracts/demo2.sol\":2431:2434  end */\n      dup2\n        /* \"contracts/demo2.sol\":2427:2429  mc */\n      dup4\n        /* \"contracts/demo2.sol\":2424:2435  lt(mc, end) */\n      lt\n        /* \"contracts/demo2.sol\":2235:2752  for {\r... */\n      iszero\n      tag_51\n      jumpi\n        /* \"contracts/demo2.sol\":2733:2735  cc */\n      dup1\n        /* \"contracts/demo2.sol\":2727:2736  mload(cc) */\n      mload\n        /* \"contracts/demo2.sol\":2723:2725  mc */\n      dup4\n        /* \"contracts/demo2.sol\":2716:2737  mstore(mc, mload(cc)) */\n      mstore\n        /* \"contracts/demo2.sol\":2536:2540  0x20 */\n      0x20\n        /* \"contracts/demo2.sol\":2532:2534  mc */\n      dup4\n        /* \"contracts/demo2.sol\":2528:2541  add(mc, 0x20) */\n      add\n        /* \"contracts/demo2.sol\":2522:2541  mc := add(mc, 0x20) */\n      swap3\n      pop\n        /* \"contracts/demo2.sol\":2573:2577  0x20 */\n      0x20\n        /* \"contracts/demo2.sol\":2569:2571  cc */\n      dup2\n        /* \"contracts/demo2.sol\":2565:2578  add(cc, 0x20) */\n      add\n        /* \"contracts/demo2.sol\":2559:2578  cc := add(cc, 0x20) */\n      swap1\n      pop\n        /* \"contracts/demo2.sol\":2235:2752  for {\r... */\n      jump(tag_49)\n    tag_51:\n        /* \"contracts/demo2.sol\":2239:2423  {\r... */\n      pop\n        /* \"contracts/demo2.sol\":2962:2972  _postBytes */\n      dup6\n        /* \"contracts/demo2.sol\":2956:2973  mload(_postBytes) */\n      mload\n        /* \"contracts/demo2.sol\":2946:2973  length := mload(_postBytes) */\n      swap3\n      pop\n        /* \"contracts/demo2.sol\":3023:3032  tempBytes */\n      dup4\n        /* \"contracts/demo2.sol\":3017:3033  mload(tempBytes) */\n      mload\n        /* \"contracts/demo2.sol\":3009:3015  length */\n      dup4\n        /* \"contracts/demo2.sol\":3005:3034  add(length, mload(tempBytes)) */\n      add\n        /* \"contracts/demo2.sol\":2994:3003  tempBytes */\n      dup5\n        /* \"contracts/demo2.sol\":2987:3035  mstore(tempBytes, add(length, mload(tempBytes))) */\n      mstore\n        /* \"contracts/demo2.sol\":3175:3178  end */\n      dup1\n        /* \"contracts/demo2.sol\":3169:3178  mc := end */\n      swap2\n      pop\n        /* \"contracts/demo2.sol\":3315:3321  length */\n      dup3\n        /* \"contracts/demo2.sol\":3311:3313  mc */\n      dup3\n        /* \"contracts/demo2.sol\":3307:3322  add(mc, length) */\n      add\n        /* \"contracts/demo2.sol\":3300:3322  end := add(mc, length) */\n      swap1\n      pop\n        /* \"contracts/demo2.sol\":3387:3391  0x20 */\n      0x20\n        /* \"contracts/demo2.sol\":3375:3385  _postBytes */\n      dup7\n        /* \"contracts/demo2.sol\":3371:3392  add(_postBytes, 0x20) */\n      add\n        /* \"contracts/demo2.sol\":3338:3566  for {\r... */\n    tag_52:\n        /* \"contracts/demo2.sol\":3415:3418  end */\n      dup2\n        /* \"contracts/demo2.sol\":3411:3413  mc */\n      dup4\n        /* \"contracts/demo2.sol\":3408:3419  lt(mc, end) */\n      lt\n        /* \"contracts/demo2.sol\":3338:3566  for {\r... */\n      iszero\n      tag_54\n      jumpi\n        /* \"contracts/demo2.sol\":3547:3549  cc */\n      dup1\n        /* \"contracts/demo2.sol\":3541:3550  mload(cc) */\n      mload\n        /* \"contracts/demo2.sol\":3537:3539  mc */\n      dup4\n        /* \"contracts/demo2.sol\":3530:3551  mstore(mc, mload(cc)) */\n      mstore\n        /* \"contracts/demo2.sol\":3453:3457  0x20 */\n      0x20\n        /* \"contracts/demo2.sol\":3449:3451  mc */\n      dup4\n        /* \"contracts/demo2.sol\":3445:3458  add(mc, 0x20) */\n      add\n        /* \"contracts/demo2.sol\":3439:3458  mc := add(mc, 0x20) */\n      swap3\n      pop\n        /* \"contracts/demo2.sol\":3490:3494  0x20 */\n      0x20\n        /* \"contracts/demo2.sol\":3486:3488  cc */\n      dup2\n        /* \"contracts/demo2.sol\":3482:3495  add(cc, 0x20) */\n      add\n        /* \"contracts/demo2.sol\":3476:3495  cc := add(cc, 0x20) */\n      swap1\n      pop\n        /* \"contracts/demo2.sol\":3338:3566  for {\r... */\n      jump(tag_52)\n    tag_54:\n        /* \"contracts/demo2.sol\":3342:3407  {\r... */\n      pop\n        /* \"contracts/demo2.sol\":4084:4086  31 */\n      0x1f\n        /* \"contracts/demo2.sol\":4080:4087  not(31) */\n      not\n        /* \"contracts/demo2.sol\":4062:4064  31 */\n      0x1f\n        /* \"contracts/demo2.sol\":4047:4056  _preBytes */\n      dup9\n        /* \"contracts/demo2.sol\":4041:4057  mload(_preBytes) */\n      mload\n        /* \"contracts/demo2.sol\":4033:4039  length */\n      dup6\n        /* \"contracts/demo2.sol\":4029:4058  add(length, mload(_preBytes)) */\n      add\n        /* \"contracts/demo2.sol\":4022:4059  iszero(add(length, mload(_preBytes))) */\n      iszero\n        /* \"contracts/demo2.sol\":4017:4020  end */\n      dup4\n        /* \"contracts/demo2.sol\":4013:4060  add(end, iszero(add(length, mload(_preBytes)))) */\n      add\n        /* \"contracts/demo2.sol\":4009:4065  add(add(end, iszero(add(length, mload(_preBytes)))), 31) */\n      add\n        /* \"contracts/demo2.sol\":3991:4141  and(\r... */\n      and\n        /* \"contracts/demo2.sol\":3985:3989  0x40 */\n      0x40\n        /* \"contracts/demo2.sol\":3978:4142  mstore(0x40, and(\r... */\n      mstore\n        /* \"contracts/demo2.sol\":1480:4153  {\r... */\n      pop\n      pop\n      pop\n        /* \"contracts/demo2.sol\":4172:4181  tempBytes */\n      dup1\n        /* \"contracts/demo2.sol\":4165:4181  return tempBytes */\n      swap2\n      pop\n      pop\n        /* \"contracts/demo2.sol\":1274:4189  function mergeBytes(\r... */\n      swap3\n      swap2\n      pop\n      pop\n      jump\t// out\n        /* \"contracts/demo2.sol\":828:1266  function encodeLength(uint length, uint offset) internal pure returns (bytes memory) {\r... */\n    tag_47:\n        /* \"contracts/demo2.sol\":899:911  bytes memory */\n      0x60\n        /* \"contracts/demo2.sol\":941:947  256**8 */\n      0x010000000000000000\n        /* \"contracts/demo2.sol\":932:938  length */\n      dup4\n        /* \"contracts/demo2.sol\":932:947  length < 256**8 */\n      lt\n        /* \"contracts/demo2.sol\":924:966  require(length < 256**8, \"input too long\") */\n      tag_56\n      jumpi\n      mload(0x40)\n      0x08c379a000000000000000000000000000000000000000000000000000000000\n      dup2\n      mstore\n      0x04\n      add\n      dup1\n      dup1\n      0x20\n      add\n      dup3\n      dup2\n      sub\n      dup3\n      mstore\n      0x0e\n      dup2\n      mstore\n      0x20\n      add\n      dup1\n      0x696e70757420746f6f206c6f6e67000000000000000000000000000000000000\n      dup2\n      mstore\n      pop\n      0x20\n      add\n      swap2\n      pop\n      pop\n      mload(0x40)\n      dup1\n      swap2\n      sub\n      swap1\n      revert\n    tag_56:\n        /* \"contracts/demo2.sol\":977:992  bytes memory rs */\n      0x60\n        /* \"contracts/demo2.sol\":1005:1006  1 */\n      0x01\n        /* \"contracts/demo2.sol\":995:1007  new bytes(1) */\n      mload(0x40)\n      swap1\n      dup1\n      dup3\n      mstore\n      dup1\n      0x1f\n      add\n      not(0x1f)\n      and\n      0x20\n      add\n      dup3\n      add\n      0x40\n      mstore\n      dup1\n      iszero\n      tag_57\n      jumpi\n      dup2\n      0x20\n      add\n        /* \"--CODEGEN--\":29:30   */\n      0x01\n        /* \"--CODEGEN--\":21:27   */\n      dup3\n        /* \"--CODEGEN--\":17:31   */\n      mul\n        /* \"--CODEGEN--\":124:128   */\n      dup1\n        /* \"--CODEGEN--\":108:122   */\n      calldatasize\n        /* \"--CODEGEN--\":100:106   */\n      dup4\n        /* \"--CODEGEN--\":87:129   */\n      calldatacopy\n        /* \"--CODEGEN--\":155:159   */\n      dup1\n        /* \"--CODEGEN--\":147:153   */\n      dup3\n        /* \"--CODEGEN--\":143:160   */\n      add\n        /* \"--CODEGEN--\":133:160   */\n      swap2\n      pop\n        /* \"--CODEGEN--\":0:164   */\n      pop\n        /* \"contracts/demo2.sol\":995:1007  new bytes(1) */\n      swap1\n      pop\n    tag_57:\n      pop\n        /* \"contracts/demo2.sol\":977:1007  bytes memory rs = new bytes(1) */\n      swap1\n      pop\n        /* \"contracts/demo2.sol\":1032:1034  55 */\n      0x37\n        /* \"contracts/demo2.sol\":1022:1028  length */\n      dup5\n        /* \"contracts/demo2.sol\":1022:1034  length <= 55 */\n      gt\n        /* \"contracts/demo2.sol\":1018:1123  if (length <= 55) {\r... */\n      tag_58\n      jumpi\n        /* \"contracts/demo2.sol\":1079:1085  offset */\n      dup3\n        /* \"contracts/demo2.sol\":1070:1076  length */\n      dup5\n        /* \"contracts/demo2.sol\":1070:1085  length + offset */\n      add\n        /* \"contracts/demo2.sol\":1059:1087  byte(uint8(length + offset)) */\n      0xf8\n      shl\n        /* \"contracts/demo2.sol\":1051:1053  rs */\n      dup2\n        /* \"contracts/demo2.sol\":1054:1055  0 */\n      0x00\n        /* \"contracts/demo2.sol\":1051:1056  rs[0] */\n      dup2\n      mload\n      dup2\n      lt\n      tag_59\n      jumpi\n      invalid\n    tag_59:\n      0x20\n      add\n      add\n        /* \"contracts/demo2.sol\":1051:1087  rs[0] = byte(uint8(length + offset)) */\n      swap1\n      not(0xffffffffffffffffffffffffffffffffffffffffffffffffffffffffffffff)\n      and\n      swap1\n      dup2\n      0x00\n      byte\n      swap1\n      mstore8\n      pop\n        /* \"contracts/demo2.sol\":1109:1111  rs */\n      dup1\n        /* \"contracts/demo2.sol\":1102:1111  return rs */\n      swap2\n      pop\n      pop\n      jump(tag_55)\n        /* \"contracts/demo2.sol\":1018:1123  if (length <= 55) {\r... */\n    tag_58:\n        /* \"contracts/demo2.sol\":1133:1148  bytes memory bl */\n      0x60\n        /* \"contracts/demo2.sol\":1151:1167  toBinary(length) */\n      tag_60\n        /* \"contracts/demo2.sol\":1160:1166  length */\n      dup6\n        /* \"contracts/demo2.sol\":1151:1159  toBinary */\n      tag_61\n        /* \"contracts/demo2.sol\":1151:1167  toBinary(length) */\n      jump\t// in\n    tag_60:\n        /* \"contracts/demo2.sol\":1133:1167  bytes memory bl = toBinary(length) */\n      swap1\n      pop\n        /* \"contracts/demo2.sol\":1218:1220  55 */\n      0x37\n        /* \"contracts/demo2.sol\":1209:1215  offset */\n      dup5\n        /* \"contracts/demo2.sol\":1197:1199  bl */\n      dup3\n        /* \"contracts/demo2.sol\":1197:1206  bl.length */\n      mload\n        /* \"contracts/demo2.sol\":1197:1215  bl.length + offset */\n      add\n        /* \"contracts/demo2.sol\":1197:1220  bl.length + offset + 55 */\n      add\n        /* \"contracts/demo2.sol\":1186:1222  byte(uint8(bl.length + offset + 55)) */\n      0xf8\n      shl\n        /* \"contracts/demo2.sol\":1178:1180  rs */\n      dup3\n        /* \"contracts/demo2.sol\":1181:1182  0 */\n      0x00\n        /* \"contracts/demo2.sol\":1178:1183  rs[0] */\n      dup2\n      mload\n      dup2\n      lt\n      tag_62\n      jumpi\n      invalid\n    tag_62:\n      0x20\n      add\n      add\n        /* \"contracts/demo2.sol\":1178:1222  rs[0] = byte(uint8(bl.length + offset + 55)) */\n      swap1\n      not(0xffffffffffffffffffffffffffffffffffffffffffffffffffffffffffffff)\n      and\n      swap1\n      dup2\n      0x00\n      byte\n      swap1\n      mstore8\n      pop\n        /* \"contracts/demo2.sol\":1240:1258  mergeBytes(rs, bl) */\n      tag_63\n        /* \"contracts/demo2.sol\":1251:1253  rs */\n      dup3\n        /* \"contracts/demo2.sol\":1255:1257  bl */\n      dup3\n        /* \"contracts/demo2.sol\":1240:1250  mergeBytes */\n      tag_44\n        /* \"contracts/demo2.sol\":1240:1258  mergeBytes(rs, bl) */\n      jump\t// in\n    tag_63:\n        /* \"contracts/demo2.sol\":1233:1258  return mergeBytes(rs, bl) */\n      swap3\n      pop\n      pop\n      pop\n        /* \"contracts/demo2.sol\":828:1266  function encodeLength(uint length, uint offset) internal pure returns (bytes memory) {\r... */\n    tag_55:\n      swap3\n      swap2\n      pop\n      pop\n      jump\t// out\n        /* \"contracts/demo2.sol\":4201:4989  function toBinary(uint x) internal pure returns (bytes memory) {\r... */\n    tag_61:\n        /* \"contracts/demo2.sol\":4250:4262  bytes memory */\n      0x60\n        /* \"contracts/demo2.sol\":4275:4289  bytes memory b */\n      dup1\n        /* \"contracts/demo2.sol\":4302:4304  32 */\n      0x20\n        /* \"contracts/demo2.sol\":4292:4305  new bytes(32) */\n      mload(0x40)\n      swap1\n      dup1\n      dup3\n      mstore\n      dup1\n      0x1f\n      add\n      not(0x1f)\n      and\n      0x20\n      add\n      dup3\n      add\n      0x40\n      mstore\n      dup1\n      iszero\n      tag_65\n      jumpi\n      dup2\n      0x20\n      add\n        /* \"--CODEGEN--\":29:30   */\n      0x01\n        /* \"--CODEGEN--\":21:27   */\n      dup3\n        /* \"--CODEGEN--\":17:31   */\n      mul\n        /* \"--CODEGEN--\":124:128   */\n      dup1\n        /* \"--CODEGEN--\":108:122   */\n      calldatasize\n        /* \"--CODEGEN--\":100:106   */\n      dup4\n        /* \"--CODEGEN--\":87:129   */\n      calldatacopy\n        /* \"--CODEGEN--\":155:159   */\n      dup1\n        /* \"--CODEGEN--\":147:153   */\n      dup3\n        /* \"--CODEGEN--\":143:160   */\n      add\n        /* \"--CODEGEN--\":133:160   */\n      swap2\n      pop\n        /* \"--CODEGEN--\":0:164   */\n      pop\n        /* \"contracts/demo2.sol\":4292:4305  new bytes(32) */\n      swap1\n      pop\n    tag_65:\n      pop\n        /* \"contracts/demo2.sol\":4275:4305  bytes memory b = new bytes(32) */\n      swap1\n      pop\n        /* \"contracts/demo2.sol\":4359:4360  x */\n      dup3\n        /* \"contracts/demo2.sol\":4354:4356  32 */\n      0x20\n        /* \"contracts/demo2.sol\":4351:4352  b */\n      dup3\n        /* \"contracts/demo2.sol\":4347:4357  add(b, 32) */\n      add\n        /* \"contracts/demo2.sol\":4340:4361  mstore(add(b, 32), x) */\n      mstore\n        /* \"contracts/demo2.sol\":4382:4388  uint i */\n      0x00\n        /* \"contracts/demo2.sol\":4477:4478  0 */\n      dup1\n        /* \"contracts/demo2.sol\":4407:4473  0xffffffffffffffffffffffffffffffffffffffffffffffff0000000000000000 */\n      0xffffffffffffffffffffffffffffffffffffffffffffffff0000000000000000\n        /* \"contracts/demo2.sol\":4403:4404  x */\n      dup6\n        /* \"contracts/demo2.sol\":4403:4473  x & 0xffffffffffffffffffffffffffffffffffffffffffffffff0000000000000000 */\n      and\n        /* \"contracts/demo2.sol\":4403:4478  x & 0xffffffffffffffffffffffffffffffffffffffffffffffff0000000000000000 == 0 */\n      eq\n        /* \"contracts/demo2.sol\":4399:4671  if (x & 0xffffffffffffffffffffffffffffffffffffffffffffffff0000000000000000 == 0) {\r... */\n      iszero\n      tag_66\n      jumpi\n        /* \"contracts/demo2.sol\":4499:4501  24 */\n      0x18\n        /* \"contracts/demo2.sol\":4495:4501  i = 24 */\n      swap1\n      pop\n        /* \"contracts/demo2.sol\":4399:4671  if (x & 0xffffffffffffffffffffffffffffffffffffffffffffffff0000000000000000 == 0) {\r... */\n      jump(tag_67)\n    tag_66:\n        /* \"contracts/demo2.sol\":4597:4598  0 */\n      0x00\n        /* \"contracts/demo2.sol\":4527:4593  0xffffffffffffffffffffffffffffffff00000000000000000000000000000000 */\n      0xffffffffffffffffffffffffffffffff00000000000000000000000000000000\n        /* \"contracts/demo2.sol\":4523:4524  x */\n      dup6\n        /* \"contracts/demo2.sol\":4523:4593  x & 0xffffffffffffffffffffffffffffffff00000000000000000000000000000000 */\n      and\n        /* \"contracts/demo2.sol\":4523:4598  x & 0xffffffffffffffffffffffffffffffff00000000000000000000000000000000 == 0 */\n      eq\n        /* \"contracts/demo2.sol\":4519:4671  if (x & 0xffffffffffffffffffffffffffffffff00000000000000000000000000000000 == 0) {\r... */\n      iszero\n      tag_68\n      jumpi\n        /* \"contracts/demo2.sol\":4619:4621  16 */\n      0x10\n        /* \"contracts/demo2.sol\":4615:4621  i = 16 */\n      swap1\n      pop\n        /* \"contracts/demo2.sol\":4519:4671  if (x & 0xffffffffffffffffffffffffffffffff00000000000000000000000000000000 == 0) {\r... */\n      jump(tag_69)\n    tag_68:\n        /* \"contracts/demo2.sol\":4658:4659  0 */\n      0x00\n        /* \"contracts/demo2.sol\":4654:4659  i = 0 */\n      swap1\n      pop\n        /* \"contracts/demo2.sol\":4519:4671  if (x & 0xffffffffffffffffffffffffffffffff00000000000000000000000000000000 == 0) {\r... */\n    tag_69:\n        /* \"contracts/demo2.sol\":4399:4671  if (x & 0xffffffffffffffffffffffffffffffffffffffffffffffff0000000000000000 == 0) {\r... */\n    tag_67:\n        /* \"contracts/demo2.sol\":4681:4782  for (; i < 32; i++) {\r... */\n    tag_70:\n        /* \"contracts/demo2.sol\":4692:4694  32 */\n      0x20\n        /* \"contracts/demo2.sol\":4688:4689  i */\n      dup2\n        /* \"contracts/demo2.sol\":4688:4694  i < 32 */\n      lt\n        /* \"contracts/demo2.sol\":4681:4782  for (; i < 32; i++) {\r... */\n      iszero\n      tag_71\n      jumpi\n        /* \"contracts/demo2.sol\":4728:4729  0 */\n      0x00\n        /* \"contracts/demo2.sol\":4720:4729  b[i] != 0 */\n      0xf8\n      shl\n        /* \"contracts/demo2.sol\":4720:4721  b */\n      dup3\n        /* \"contracts/demo2.sol\":4722:4723  i */\n      dup3\n        /* \"contracts/demo2.sol\":4720:4724  b[i] */\n      dup2\n      mload\n      dup2\n      lt\n      tag_73\n      jumpi\n      invalid\n    tag_73:\n      0x20\n      add\n      add\n      mload\n      0xf8\n      shr\n      0xf8\n      shl\n        /* \"contracts/demo2.sol\":4720:4729  b[i] != 0 */\n      not(0xffffffffffffffffffffffffffffffffffffffffffffffffffffffffffffff)\n      and\n      eq\n        /* \"contracts/demo2.sol\":4716:4771  if (b[i] != 0) {\r... */\n      tag_74\n      jumpi\n        /* \"contracts/demo2.sol\":4750:4755  break */\n      jump(tag_71)\n        /* \"contracts/demo2.sol\":4716:4771  if (b[i] != 0) {\r... */\n    tag_74:\n        /* \"contracts/demo2.sol\":4696:4699  i++ */\n      dup1\n      dup1\n      0x01\n      add\n      swap2\n      pop\n      pop\n        /* \"contracts/demo2.sol\":4681:4782  for (; i < 32; i++) {\r... */\n      jump(tag_70)\n    tag_71:\n        /* \"contracts/demo2.sol\":4792:4803  uint length */\n      0x00\n        /* \"contracts/demo2.sol\":4811:4812  i */\n      dup2\n        /* \"contracts/demo2.sol\":4806:4808  32 */\n      0x20\n        /* \"contracts/demo2.sol\":4806:4812  32 - i */\n      sub\n        /* \"contracts/demo2.sol\":4792:4812  uint length = 32 - i */\n      swap1\n      pop\n        /* \"contracts/demo2.sol\":4823:4838  bytes memory rs */\n      0x60\n        /* \"contracts/demo2.sol\":4851:4857  length */\n      dup2\n        /* \"contracts/demo2.sol\":4841:4858  new bytes(length) */\n      mload(0x40)\n      swap1\n      dup1\n      dup3\n      mstore\n      dup1\n      0x1f\n      add\n      not(0x1f)\n      and\n      0x20\n      add\n      dup3\n      add\n      0x40\n      mstore\n      dup1\n      iszero\n      tag_75\n      jumpi\n      dup2\n      0x20\n      add\n        /* \"--CODEGEN--\":29:30   */\n      0x01\n        /* \"--CODEGEN--\":21:27   */\n      dup3\n        /* \"--CODEGEN--\":17:31   */\n      mul\n        /* \"--CODEGEN--\":124:128   */\n      dup1\n        /* \"--CODEGEN--\":108:122   */\n      calldatasize\n        /* \"--CODEGEN--\":100:106   */\n      dup4\n        /* \"--CODEGEN--\":87:129   */\n      calldatacopy\n        /* \"--CODEGEN--\":155:159   */\n      dup1\n        /* \"--CODEGEN--\":147:153   */\n      dup3\n        /* \"--CODEGEN--\":143:160   */\n      add\n        /* \"--CODEGEN--\":133:160   */\n      swap2\n      pop\n        /* \"--CODEGEN--\":0:164   */\n      pop\n        /* \"contracts/demo2.sol\":4841:4858  new bytes(length) */\n      swap1\n      pop\n    tag_75:\n      pop\n        /* \"contracts/demo2.sol\":4823:4858  bytes memory rs = new bytes(length) */\n      swap1\n      pop\n        /* \"contracts/demo2.sol\":4917:4918  x */\n      dup6\n        /* \"contracts/demo2.sol\":4908:4914  length */\n      dup3\n        /* \"contracts/demo2.sol\":4904:4906  rs */\n      dup3\n        /* \"contracts/demo2.sol\":4900:4915  add(rs, length) */\n      add\n        /* \"contracts/demo2.sol\":4893:4919  mstore(add(rs, length), x) */\n      mstore\n        /* \"contracts/demo2.sol\":4944:4950  length */\n      dup2\n        /* \"contracts/demo2.sol\":4940:4942  rs */\n      dup2\n        /* \"contracts/demo2.sol\":4933:4951  mstore(rs, length) */\n      mstore\n        /* \"contracts/demo2.sol\":4979:4981  rs */\n      dup1\n        /* \"contracts/demo2.sol\":4972:4981  return rs */\n      swap5\n      pop\n      pop\n      pop\n      pop\n      pop\n        /* \"contracts/demo2.sol\":4201:4989  function toBinary(uint x) internal pure returns (bytes memory) {\r... */\n      swap2\n      swap1\n      pop\n      jump\t// out\n\n    auxdata: 0xa26469706673582212201cb790d6a8e19c67fadfa54f079a344fb36e8ede0919f14ecab9ec0d258d793c64736f6c63430006040033\n}\n",
				"bytecode": {
					"linkReferences": {},
					"object": "60806040526040518060600160405280602e81526020016108c4602e91396000908051906020019061003292919061008d565b507f4c45484f4e47564f776a6e66766a3377656838764b4a000000000000000000006001557f4c4455434543554548554843554945484355484555434845554348554543480060025534801561008757600080fd5b50610132565b828054600181600116156101000203166002900490600052602060002090601f016020900481019282601f106100ce57805160ff19168380011785556100fc565b828001600101855582156100fc579182015b828111156100fb5782518255916020019190600101906100e0565b5b509050610109919061010d565b5090565b61012f91905b8082111561012b576000816000905550600101610113565b5090565b90565b610783806101416000396000f3fe608060405234801561001057600080fd5b506004361061004c5760003560e01c80633bc5de30146100515780639ffd85c4146100d4578063e3a7fd7514610157578063fc26b0ab14610175575b600080fd5b610059610193565b6040518080602001828103825283818151815260200191508051906020019080838360005b8381101561009957808201518184015260208101905061007e565b50505050905090810190601f1680156100c65780820380516001836020036101000a031916815260200191505b509250505060405180910390f35b6100dc610284565b6040518080602001828103825283818151815260200191508051906020019080838360005b8381101561011c578082015181840152602081019050610101565b50505050905090810190601f1680156101495780820380516001836020036101000a031916815260200191505b509250505060405180910390f35b61015f610322565b6040518082815260200191505060405180910390f35b61017d610328565b6040518082815260200191505060405180910390f35b606061027f6003805480602002602001604051908101604052809291908181526020016000905b82821015610276578382906000526020600020018054600181600116156101000203166002900480601f0160208091040260200160405190810160405280929190818152602001828054600181600116156101000203166002900480156102625780601f1061023757610100808354040283529160200191610262565b820191906000526020600020905b81548152906001019060200180831161024557829003601f168201915b5050505050815260200190600101906101ba565b5050505061032e565b905090565b60008054600181600116156101000203166002900480601f01602080910402602001604051908101604052809291908181526020018280546001816001161561010002031660029004801561031a5780601f106102ef5761010080835404028352916020019161031a565b820191906000526020600020905b8154815290600101906020018083116102fd57829003601f168201915b505050505081565b60015481565b60025481565b60606000825114156103765760006040519080825280601f01601f19166020018201604052801561036e5781602001600182028036833780820191505090505b5090506103e8565b60608260008151811061038557fe5b602002602001015190506000600190505b83518110156103cb576103bc828583815181106103af57fe5b60200260200101516103ed565b91508080600101915050610396565b506103e46103de825160c060ff16610477565b826103ed565b9150505b919050565b6060806040519050835180825260208201818101602087015b818310156104235780518352602083019250602081019050610406565b50855192508351830184528091508282019050602086015b81831015610458578051835260208301925060208101905061043b565b50601f19601f8851850115830101166040525050508091505092915050565b60606801000000000000000083106104f7576040517f08c379a000000000000000000000000000000000000000000000000000000000815260040180806020018281038252600e8152602001807f696e70757420746f6f206c6f6e6700000000000000000000000000000000000081525060200191505060405180910390fd5b606060016040519080825280601f01601f19166020018201604052801561052d5781602001600182028036833780820191505090505b509050603784116105835782840160f81b8160008151811061054b57fe5b60200101907effffffffffffffffffffffffffffffffffffffffffffffffffffffffffffff1916908160001a905350809150506105e5565b606061058e856105eb565b90506037848251010160f81b826000815181106105a757fe5b60200101907effffffffffffffffffffffffffffffffffffffffffffffffffffffffffffff1916908160001a9053506105e082826103ed565b925050505b92915050565b60608060206040519080825280601f01601f1916602001820160405280156106225781602001600182028036833780820191505090505b5090508260208201526000807fffffffffffffffffffffffffffffffffffffffffffffffff000000000000000085161415610660576018905061069a565b60007fffffffffffffffffffffffffffffffff00000000000000000000000000000000851614156106945760109050610699565b600090505b5b5b60208110156106f957600060f81b8282815181106106b557fe5b602001015160f81c60f81b7effffffffffffffffffffffffffffffffffffffffffffffffffffffffffffff1916146106ec576106f9565b808060010191505061069b565b60008160200390506060816040519080825280601f01601f1916602001820160405280156107365781602001600182028036833780820191505090505b50905085828201528181528094505050505091905056fea26469706673582212201cb790d6a8e19c67fadfa54f079a344fb36e8ede0919f14ecab9ec0d258d793c64736f6c634300060400334e414c4548484a534744534447484a534448535548444a5348444a53484a53484a534844534a44484a4f4e47564f",
					"opcodes": "PUSH1 0x80 PUSH1 0x40 MSTORE PUSH1 0x40 MLOAD DUP1 PUSH1 0x60 ADD PUSH1 0x40 MSTORE DUP1 PUSH1 0x2E DUP2 MSTORE PUSH1 0x20 ADD PUSH2 0x8C4 PUSH1 0x2E SWAP2 CODECOPY PUSH1 0x0 SWAP1 DUP1 MLOAD SWAP1 PUSH1 0x20 ADD SWAP1 PUSH2 0x32 SWAP3 SWAP2 SWAP1 PUSH2 0x8D JUMP JUMPDEST POP PUSH32 0x4C45484F4E47564F776A6E66766A3377656838764B4A00000000000000000000 PUSH1 0x1 SSTORE PUSH32 0x4C44554345435545485548435549454843554845554348455543485545434800 PUSH1 0x2 SSTORE CALLVALUE DUP1 ISZERO PUSH2 0x87 JUMPI PUSH1 0x0 DUP1 REVERT JUMPDEST POP PUSH2 0x132 JUMP JUMPDEST DUP3 DUP1 SLOAD PUSH1 0x1 DUP2 PUSH1 0x1 AND ISZERO PUSH2 0x100 MUL SUB AND PUSH1 0x2 SWAP1 DIV SWAP1 PUSH1 0x0 MSTORE PUSH1 0x20 PUSH1 0x0 KECCAK256 SWAP1 PUSH1 0x1F ADD PUSH1 0x20 SWAP1 DIV DUP2 ADD SWAP3 DUP3 PUSH1 0x1F LT PUSH2 0xCE JUMPI DUP1 MLOAD PUSH1 0xFF NOT AND DUP4 DUP1 ADD OR DUP6 SSTORE PUSH2 0xFC JUMP JUMPDEST DUP3 DUP1 ADD PUSH1 0x1 ADD DUP6 SSTORE DUP3 ISZERO PUSH2 0xFC JUMPI SWAP2 DUP3 ADD JUMPDEST DUP3 DUP2 GT ISZERO PUSH2 0xFB JUMPI DUP3 MLOAD DUP3 SSTORE SWAP2 PUSH1 0x20 ADD SWAP2 SWAP1 PUSH1 0x1 ADD SWAP1 PUSH2 0xE0 JUMP JUMPDEST JUMPDEST POP SWAP1 POP PUSH2 0x109 SWAP2 SWAP1 PUSH2 0x10D JUMP JUMPDEST POP SWAP1 JUMP JUMPDEST PUSH2 0x12F SWAP2 SWAP1 JUMPDEST DUP1 DUP3 GT ISZERO PUSH2 0x12B JUMPI PUSH1 0x0 DUP2 PUSH1 0x0 SWAP1 SSTORE POP PUSH1 0x1 ADD PUSH2 0x113 JUMP JUMPDEST POP SWAP1 JUMP JUMPDEST SWAP1 JUMP JUMPDEST PUSH2 0x783 DUP1 PUSH2 0x141 PUSH1 0x0 CODECOPY PUSH1 0x0 RETURN INVALID PUSH1 0x80 PUSH1 0x40 MSTORE CALLVALUE DUP1 ISZERO PUSH2 0x10 JUMPI PUSH1 0x0 DUP1 REVERT JUMPDEST POP PUSH1 0x4 CALLDATASIZE LT PUSH2 0x4C JUMPI PUSH1 0x0 CALLDATALOAD PUSH1 0xE0 SHR DUP1 PUSH4 0x3BC5DE30 EQ PUSH2 0x51 JUMPI DUP1 PUSH4 0x9FFD85C4 EQ PUSH2 0xD4 JUMPI DUP1 PUSH4 0xE3A7FD75 EQ PUSH2 0x157 JUMPI DUP1 PUSH4 0xFC26B0AB EQ PUSH2 0x175 JUMPI JUMPDEST PUSH1 0x0 DUP1 REVERT JUMPDEST PUSH2 0x59 PUSH2 0x193 JUMP JUMPDEST PUSH1 0x40 MLOAD DUP1 DUP1 PUSH1 0x20 ADD DUP3 DUP2 SUB DUP3 MSTORE DUP4 DUP2 DUP2 MLOAD DUP2 MSTORE PUSH1 0x20 ADD SWAP2 POP DUP1 MLOAD SWAP1 PUSH1 0x20 ADD SWAP1 DUP1 DUP4 DUP4 PUSH1 0x0 JUMPDEST DUP4 DUP2 LT ISZERO PUSH2 0x99 JUMPI DUP1 DUP3 ADD MLOAD DUP2 DUP5 ADD MSTORE PUSH1 0x20 DUP2 ADD SWAP1 POP PUSH2 0x7E JUMP JUMPDEST POP POP POP POP SWAP1 POP SWAP1 DUP2 ADD SWAP1 PUSH1 0x1F AND DUP1 ISZERO PUSH2 0xC6 JUMPI DUP1 DUP3 SUB DUP1 MLOAD PUSH1 0x1 DUP4 PUSH1 0x20 SUB PUSH2 0x100 EXP SUB NOT AND DUP2 MSTORE PUSH1 0x20 ADD SWAP2 POP JUMPDEST POP SWAP3 POP POP POP PUSH1 0x40 MLOAD DUP1 SWAP2 SUB SWAP1 RETURN JUMPDEST PUSH2 0xDC PUSH2 0x284 JUMP JUMPDEST PUSH1 0x40 MLOAD DUP1 DUP1 PUSH1 0x20 ADD DUP3 DUP2 SUB DUP3 MSTORE DUP4 DUP2 DUP2 MLOAD DUP2 MSTORE PUSH1 0x20 ADD SWAP2 POP DUP1 MLOAD SWAP1 PUSH1 0x20 ADD SWAP1 DUP1 DUP4 DUP4 PUSH1 0x0 JUMPDEST DUP4 DUP2 LT ISZERO PUSH2 0x11C JUMPI DUP1 DUP3 ADD MLOAD DUP2 DUP5 ADD MSTORE PUSH1 0x20 DUP2 ADD SWAP1 POP PUSH2 0x101 JUMP JUMPDEST POP POP POP POP SWAP1 POP SWAP1 DUP2 ADD SWAP1 PUSH1 0x1F AND DUP1 ISZERO PUSH2 0x149 JUMPI DUP1 DUP3 SUB DUP1 MLOAD PUSH1 0x1 DUP4 PUSH1 0x20 SUB PUSH2 0x100 EXP SUB NOT AND DUP2 MSTORE PUSH1 0x20 ADD SWAP2 POP JUMPDEST POP SWAP3 POP POP POP PUSH1 0x40 MLOAD DUP1 SWAP2 SUB SWAP1 RETURN JUMPDEST PUSH2 0x15F PUSH2 0x322 JUMP JUMPDEST PUSH1 0x40 MLOAD DUP1 DUP3 DUP2 MSTORE PUSH1 0x20 ADD SWAP2 POP POP PUSH1 0x40 MLOAD DUP1 SWAP2 SUB SWAP1 RETURN JUMPDEST PUSH2 0x17D PUSH2 0x328 JUMP JUMPDEST PUSH1 0x40 MLOAD DUP1 DUP3 DUP2 MSTORE PUSH1 0x20 ADD SWAP2 POP POP PUSH1 0x40 MLOAD DUP1 SWAP2 SUB SWAP1 RETURN JUMPDEST PUSH1 0x60 PUSH2 0x27F PUSH1 0x3 DUP1 SLOAD DUP1 PUSH1 0x20 MUL PUSH1 0x20 ADD PUSH1 0x40 MLOAD SWAP1 DUP2 ADD PUSH1 0x40 MSTORE DUP1 SWAP3 SWAP2 SWAP1 DUP2 DUP2 MSTORE PUSH1 0x20 ADD PUSH1 0x0 SWAP1 JUMPDEST DUP3 DUP3 LT ISZERO PUSH2 0x276 JUMPI DUP4 DUP3 SWAP1 PUSH1 0x0 MSTORE PUSH1 0x20 PUSH1 0x0 KECCAK256 ADD DUP1 SLOAD PUSH1 0x1 DUP2 PUSH1 0x1 AND ISZERO PUSH2 0x100 MUL SUB AND PUSH1 0x2 SWAP1 DIV DUP1 PUSH1 0x1F ADD PUSH1 0x20 DUP1 SWAP2 DIV MUL PUSH1 0x20 ADD PUSH1 0x40 MLOAD SWAP1 DUP2 ADD PUSH1 0x40 MSTORE DUP1 SWAP3 SWAP2 SWAP1 DUP2 DUP2 MSTORE PUSH1 0x20 ADD DUP3 DUP1 SLOAD PUSH1 0x1 DUP2 PUSH1 0x1 AND ISZERO PUSH2 0x100 MUL SUB AND PUSH1 0x2 SWAP1 DIV DUP1 ISZERO PUSH2 0x262 JUMPI DUP1 PUSH1 0x1F LT PUSH2 0x237 JUMPI PUSH2 0x100 DUP1 DUP4 SLOAD DIV MUL DUP4 MSTORE SWAP2 PUSH1 0x20 ADD SWAP2 PUSH2 0x262 JUMP JUMPDEST DUP3 ADD SWAP2 SWAP1 PUSH1 0x0 MSTORE PUSH1 0x20 PUSH1 0x0 KECCAK256 SWAP1 JUMPDEST DUP2 SLOAD DUP2 MSTORE SWAP1 PUSH1 0x1 ADD SWAP1 PUSH1 0x20 ADD DUP1 DUP4 GT PUSH2 0x245 JUMPI DUP3 SWAP1 SUB PUSH1 0x1F AND DUP3 ADD SWAP2 JUMPDEST POP POP POP POP POP DUP2 MSTORE PUSH1 0x20 ADD SWAP1 PUSH1 0x1 ADD SWAP1 PUSH2 0x1BA JUMP JUMPDEST POP POP POP POP PUSH2 0x32E JUMP JUMPDEST SWAP1 POP SWAP1 JUMP JUMPDEST PUSH1 0x0 DUP1 SLOAD PUSH1 0x1 DUP2 PUSH1 0x1 AND ISZERO PUSH2 0x100 MUL SUB AND PUSH1 0x2 SWAP1 DIV DUP1 PUSH1 0x1F ADD PUSH1 0x20 DUP1 SWAP2 DIV MUL PUSH1 0x20 ADD PUSH1 0x40 MLOAD SWAP1 DUP2 ADD PUSH1 0x40 MSTORE DUP1 SWAP3 SWAP2 SWAP1 DUP2 DUP2 MSTORE PUSH1 0x20 ADD DUP3 DUP1 SLOAD PUSH1 0x1 DUP2 PUSH1 0x1 AND ISZERO PUSH2 0x100 MUL SUB AND PUSH1 0x2 SWAP1 DIV DUP1 ISZERO PUSH2 0x31A JUMPI DUP1 PUSH1 0x1F LT PUSH2 0x2EF JUMPI PUSH2 0x100 DUP1 DUP4 SLOAD DIV MUL DUP4 MSTORE SWAP2 PUSH1 0x20 ADD SWAP2 PUSH2 0x31A JUMP JUMPDEST DUP3 ADD SWAP2 SWAP1 PUSH1 0x0 MSTORE PUSH1 0x20 PUSH1 0x0 KECCAK256 SWAP1 JUMPDEST DUP2 SLOAD DUP2 MSTORE SWAP1 PUSH1 0x1 ADD SWAP1 PUSH1 0x20 ADD DUP1 DUP4 GT PUSH2 0x2FD JUMPI DUP3 SWAP1 SUB PUSH1 0x1F AND DUP3 ADD SWAP2 JUMPDEST POP POP POP POP POP DUP2 JUMP JUMPDEST PUSH1 0x1 SLOAD DUP2 JUMP JUMPDEST PUSH1 0x2 SLOAD DUP2 JUMP JUMPDEST PUSH1 0x60 PUSH1 0x0 DUP3 MLOAD EQ ISZERO PUSH2 0x376 JUMPI PUSH1 0x0 PUSH1 0x40 MLOAD SWAP1 DUP1 DUP3 MSTORE DUP1 PUSH1 0x1F ADD PUSH1 0x1F NOT AND PUSH1 0x20 ADD DUP3 ADD PUSH1 0x40 MSTORE DUP1 ISZERO PUSH2 0x36E JUMPI DUP2 PUSH1 0x20 ADD PUSH1 0x1 DUP3 MUL DUP1 CALLDATASIZE DUP4 CALLDATACOPY DUP1 DUP3 ADD SWAP2 POP POP SWAP1 POP JUMPDEST POP SWAP1 POP PUSH2 0x3E8 JUMP JUMPDEST PUSH1 0x60 DUP3 PUSH1 0x0 DUP2 MLOAD DUP2 LT PUSH2 0x385 JUMPI INVALID JUMPDEST PUSH1 0x20 MUL PUSH1 0x20 ADD ADD MLOAD SWAP1 POP PUSH1 0x0 PUSH1 0x1 SWAP1 POP JUMPDEST DUP4 MLOAD DUP2 LT ISZERO PUSH2 0x3CB JUMPI PUSH2 0x3BC DUP3 DUP6 DUP4 DUP2 MLOAD DUP2 LT PUSH2 0x3AF JUMPI INVALID JUMPDEST PUSH1 0x20 MUL PUSH1 0x20 ADD ADD MLOAD PUSH2 0x3ED JUMP JUMPDEST SWAP2 POP DUP1 DUP1 PUSH1 0x1 ADD SWAP2 POP POP PUSH2 0x396 JUMP JUMPDEST POP PUSH2 0x3E4 PUSH2 0x3DE DUP3 MLOAD PUSH1 0xC0 PUSH1 0xFF AND PUSH2 0x477 JUMP JUMPDEST DUP3 PUSH2 0x3ED JUMP JUMPDEST SWAP2 POP POP JUMPDEST SWAP2 SWAP1 POP JUMP JUMPDEST PUSH1 0x60 DUP1 PUSH1 0x40 MLOAD SWAP1 POP DUP4 MLOAD DUP1 DUP3 MSTORE PUSH1 0x20 DUP3 ADD DUP2 DUP2 ADD PUSH1 0x20 DUP8 ADD JUMPDEST DUP2 DUP4 LT ISZERO PUSH2 0x423 JUMPI DUP1 MLOAD DUP4 MSTORE PUSH1 0x20 DUP4 ADD SWAP3 POP PUSH1 0x20 DUP2 ADD SWAP1 POP PUSH2 0x406 JUMP JUMPDEST POP DUP6 MLOAD SWAP3 POP DUP4 MLOAD DUP4 ADD DUP5 MSTORE DUP1 SWAP2 POP DUP3 DUP3 ADD SWAP1 POP PUSH1 0x20 DUP7 ADD JUMPDEST DUP2 DUP4 LT ISZERO PUSH2 0x458 JUMPI DUP1 MLOAD DUP4 MSTORE PUSH1 0x20 DUP4 ADD SWAP3 POP PUSH1 0x20 DUP2 ADD SWAP1 POP PUSH2 0x43B JUMP JUMPDEST POP PUSH1 0x1F NOT PUSH1 0x1F DUP9 MLOAD DUP6 ADD ISZERO DUP4 ADD ADD AND PUSH1 0x40 MSTORE POP POP POP DUP1 SWAP2 POP POP SWAP3 SWAP2 POP POP JUMP JUMPDEST PUSH1 0x60 PUSH9 0x10000000000000000 DUP4 LT PUSH2 0x4F7 JUMPI PUSH1 0x40 MLOAD PUSH32 0x8C379A000000000000000000000000000000000000000000000000000000000 DUP2 MSTORE PUSH1 0x4 ADD DUP1 DUP1 PUSH1 0x20 ADD DUP3 DUP2 SUB DUP3 MSTORE PUSH1 0xE DUP2 MSTORE PUSH1 0x20 ADD DUP1 PUSH32 0x696E70757420746F6F206C6F6E67000000000000000000000000000000000000 DUP2 MSTORE POP PUSH1 0x20 ADD SWAP2 POP POP PUSH1 0x40 MLOAD DUP1 SWAP2 SUB SWAP1 REVERT JUMPDEST PUSH1 0x60 PUSH1 0x1 PUSH1 0x40 MLOAD SWAP1 DUP1 DUP3 MSTORE DUP1 PUSH1 0x1F ADD PUSH1 0x1F NOT AND PUSH1 0x20 ADD DUP3 ADD PUSH1 0x40 MSTORE DUP1 ISZERO PUSH2 0x52D JUMPI DUP2 PUSH1 0x20 ADD PUSH1 0x1 DUP3 MUL DUP1 CALLDATASIZE DUP4 CALLDATACOPY DUP1 DUP3 ADD SWAP2 POP POP SWAP1 POP JUMPDEST POP SWAP1 POP PUSH1 0x37 DUP5 GT PUSH2 0x583 JUMPI DUP3 DUP5 ADD PUSH1 0xF8 SHL DUP2 PUSH1 0x0 DUP2 MLOAD DUP2 LT PUSH2 0x54B JUMPI INVALID JUMPDEST PUSH1 0x20 ADD ADD SWAP1 PUSH31 0xFFFFFFFFFFFFFFFFFFFFFFFFFFFFFFFFFFFFFFFFFFFFFFFFFFFFFFFFFFFFFF NOT AND SWAP1 DUP2 PUSH1 0x0 BYTE SWAP1 MSTORE8 POP DUP1 SWAP2 POP POP PUSH2 0x5E5 JUMP JUMPDEST PUSH1 0x60 PUSH2 0x58E DUP6 PUSH2 0x5EB JUMP JUMPDEST SWAP1 POP PUSH1 0x37 DUP5 DUP3 MLOAD ADD ADD PUSH1 0xF8 SHL DUP3 PUSH1 0x0 DUP2 MLOAD DUP2 LT PUSH2 0x5A7 JUMPI INVALID JUMPDEST PUSH1 0x20 ADD ADD SWAP1 PUSH31 0xFFFFFFFFFFFFFFFFFFFFFFFFFFFFFFFFFFFFFFFFFFFFFFFFFFFFFFFFFFFFFF NOT AND SWAP1 DUP2 PUSH1 0x0 BYTE SWAP1 MSTORE8 POP PUSH2 0x5E0 DUP3 DUP3 PUSH2 0x3ED JUMP JUMPDEST SWAP3 POP POP POP JUMPDEST SWAP3 SWAP2 POP POP JUMP JUMPDEST PUSH1 0x60 DUP1 PUSH1 0x20 PUSH1 0x40 MLOAD SWAP1 DUP1 DUP3 MSTORE DUP1 PUSH1 0x1F ADD PUSH1 0x1F NOT AND PUSH1 0x20 ADD DUP3 ADD PUSH1 0x40 MSTORE DUP1 ISZERO PUSH2 0x622 JUMPI DUP2 PUSH1 0x20 ADD PUSH1 0x1 DUP3 MUL DUP1 CALLDATASIZE DUP4 CALLDATACOPY DUP1 DUP3 ADD SWAP2 POP POP SWAP1 POP JUMPDEST POP SWAP1 POP DUP3 PUSH1 0x20 DUP3 ADD MSTORE PUSH1 0x0 DUP1 PUSH32 0xFFFFFFFFFFFFFFFFFFFFFFFFFFFFFFFFFFFFFFFFFFFFFFFF0000000000000000 DUP6 AND EQ ISZERO PUSH2 0x660 JUMPI PUSH1 0x18 SWAP1 POP PUSH2 0x69A JUMP JUMPDEST PUSH1 0x0 PUSH32 0xFFFFFFFFFFFFFFFFFFFFFFFFFFFFFFFF00000000000000000000000000000000 DUP6 AND EQ ISZERO PUSH2 0x694 JUMPI PUSH1 0x10 SWAP1 POP PUSH2 0x699 JUMP JUMPDEST PUSH1 0x0 SWAP1 POP JUMPDEST JUMPDEST JUMPDEST PUSH1 0x20 DUP2 LT ISZERO PUSH2 0x6F9 JUMPI PUSH1 0x0 PUSH1 0xF8 SHL DUP3 DUP3 DUP2 MLOAD DUP2 LT PUSH2 0x6B5 JUMPI INVALID JUMPDEST PUSH1 0x20 ADD ADD MLOAD PUSH1 0xF8 SHR PUSH1 0xF8 SHL PUSH31 0xFFFFFFFFFFFFFFFFFFFFFFFFFFFFFFFFFFFFFFFFFFFFFFFFFFFFFFFFFFFFFF NOT AND EQ PUSH2 0x6EC JUMPI PUSH2 0x6F9 JUMP JUMPDEST DUP1 DUP1 PUSH1 0x1 ADD SWAP2 POP POP PUSH2 0x69B JUMP JUMPDEST PUSH1 0x0 DUP2 PUSH1 0x20 SUB SWAP1 POP PUSH1 0x60 DUP2 PUSH1 0x40 MLOAD SWAP1 DUP1 DUP3 MSTORE DUP1 PUSH1 0x1F ADD PUSH1 0x1F NOT AND PUSH1 0x20 ADD DUP3 ADD PUSH1 0x40 MSTORE DUP1 ISZERO PUSH2 0x736 JUMPI DUP2 PUSH1 0x20 ADD PUSH1 0x1 DUP3 MUL DUP1 CALLDATASIZE DUP4 CALLDATACOPY DUP1 DUP3 ADD SWAP2 POP POP SWAP1 POP JUMPDEST POP SWAP1 POP DUP6 DUP3 DUP3 ADD MSTORE DUP2 DUP2 MSTORE DUP1 SWAP5 POP POP POP POP POP SWAP2 SWAP1 POP JUMP INVALID LOG2 PUSH5 0x6970667358 0x22 SLT KECCAK256 SHR 0xB7 SWAP1 0xD6 0xA8 0xE1 SWAP13 PUSH8 0xFADFA54F079A344F 0xB3 PUSH15 0x8EDE0919F14ECAB9EC0D258D793C64 PUSH20 0x6F6C634300060400334E414C4548484A53474453 DIFFICULTY SELFBALANCE 0x48 0x4A MSTORE8 DIFFICULTY 0x48 MSTORE8 SSTORE 0x48 DIFFICULTY 0x4A MSTORE8 0x48 DIFFICULTY 0x4A MSTORE8 0x48 0x4A MSTORE8 0x48 0x4A MSTORE8 0x48 DIFFICULTY MSTORE8 0x4A DIFFICULTY 0x48 0x4A 0x4F 0x4E SELFBALANCE JUMP 0x4F "
				},
				"gasEstimates": {
					"creation": {
						"codeDepositCost": "384600",
						"executionCost": "infinite",
						"totalCost": "infinite"
					},
					"external": {
						"data1()": "infinite",
						"data2()": "1027",
						"data3()": "1049",
						"getData()": "infinite"
					},
					"internal": {
						"encodeLength(uint256,uint256)": "infinite",
						"encodeList(bytes memory[] memory)": "infinite",
						"mergeBytes(bytes memory,bytes memory)": "infinite",
						"toBinary(uint256)": "infinite"
					}
				},
				"methodIdentifiers": {
					"data1()": "9ffd85c4",
					"data2()": "e3a7fd75",
					"data3()": "fc26b0ab",
					"getData()": "3bc5de30"
				}
			},
			"userdoc": {
				"methods": {}
			}
		}
	}
}