{
	"contracts/demo2.sol": {
		"demo2": {
			"abi": [
				{
					"inputs": [],
					"stateMutability": "nonpayable",
					"type": "constructor"
				},
				{
					"inputs": [],
					"name": "LIST_LONG_START",
					"outputs": [
						{
							"internalType": "uint8",
							"name": "",
							"type": "uint8"
						}
					],
					"stateMutability": "view",
					"type": "function"
				},
				{
					"inputs": [],
					"name": "LIST_OFFSET",
					"outputs": [
						{
							"internalType": "uint8",
							"name": "",
							"type": "uint8"
						}
					],
					"stateMutability": "view",
					"type": "function"
				},
				{
					"inputs": [],
					"name": "LIST_SHORT_START",
					"outputs": [
						{
							"internalType": "uint8",
							"name": "",
							"type": "uint8"
						}
					],
					"stateMutability": "view",
					"type": "function"
				},
				{
					"inputs": [],
					"name": "STRING_LONG_START",
					"outputs": [
						{
							"internalType": "uint8",
							"name": "",
							"type": "uint8"
						}
					],
					"stateMutability": "view",
					"type": "function"
				},
				{
					"inputs": [],
					"name": "STRING_OFFSET",
					"outputs": [
						{
							"internalType": "uint8",
							"name": "",
							"type": "uint8"
						}
					],
					"stateMutability": "view",
					"type": "function"
				},
				{
					"inputs": [],
					"name": "STRING_SHORT_START",
					"outputs": [
						{
							"internalType": "uint8",
							"name": "",
							"type": "uint8"
						}
					],
					"stateMutability": "view",
					"type": "function"
				},
				{
					"inputs": [],
					"name": "WORD_SIZE",
					"outputs": [
						{
							"internalType": "uint8",
							"name": "",
							"type": "uint8"
						}
					],
					"stateMutability": "view",
					"type": "function"
				},
				{
					"inputs": [],
					"name": "data1",
					"outputs": [
						{
							"internalType": "bytes",
							"name": "",
							"type": "bytes"
						}
					],
					"stateMutability": "view",
					"type": "function"
				},
				{
					"inputs": [],
					"name": "data2",
					"outputs": [
						{
							"internalType": "bytes32",
							"name": "",
							"type": "bytes32"
						}
					],
					"stateMutability": "view",
					"type": "function"
				},
				{
					"inputs": [],
					"name": "data3",
					"outputs": [
						{
							"internalType": "bytes",
							"name": "",
							"type": "bytes"
						}
					],
					"stateMutability": "view",
					"type": "function"
				},
				{
					"inputs": [],
					"name": "getEncodeData",
					"outputs": [
						{
							"internalType": "bytes",
							"name": "",
							"type": "bytes"
						}
					],
					"stateMutability": "view",
					"type": "function"
				},
				{
					"inputs": [],
					"name": "iterator",
					"outputs": [
						{
							"components": [
								{
									"internalType": "uint256",
									"name": "len",
									"type": "uint256"
								},
								{
									"internalType": "uint256",
									"name": "memPtr",
									"type": "uint256"
								}
							],
							"internalType": "struct demo2.RLPItem",
							"name": "item",
							"type": "tuple"
						},
						{
							"internalType": "uint256",
							"name": "nextPtr",
							"type": "uint256"
						}
					],
					"stateMutability": "view",
					"type": "function"
				},
				{
					"inputs": [],
					"name": "rlpItem",
					"outputs": [
						{
							"internalType": "uint256",
							"name": "len",
							"type": "uint256"
						},
						{
							"internalType": "uint256",
							"name": "memPtr",
							"type": "uint256"
						}
					],
					"stateMutability": "view",
					"type": "function"
				}
			],
			"devdoc": {
				"methods": {}
			},
			"evm": {
				"assembly": "    /* \"contracts/demo2.sol\":81:9610  contract demo2 {\r... */\n  mstore(0x40, 0x80)\n    /* \"contracts/demo2.sol\":107:176  bytes public data1 = \"NALEHHJSGDSDGHJSDHSUHDJSHDJSHJSHJSHDSJDHJONGVO\" */\n  mload(0x40)\n  dup1\n  0x60\n  add\n  0x40\n  mstore\n  dup1\n  0x2e\n  dup2\n  mstore\n  0x20\n  add\n  data_4887836e294a2761413359597244d307bbe3f94827f6160d9e1a399e00e2d1be\n  0x2e\n  swap2\n  codecopy\n  0x00\n  swap1\n  dup1\n  mload\n  swap1\n  0x20\n  add\n  swap1\n  tag_1\n  swap3\n  swap2\n  swap1\n  tag_2\n  jump\t// in\ntag_1:\n  pop\n    /* \"contracts/demo2.sol\":187:252  bytes public data3 = \"sdfNAsdfsdfLEHHJSGDSHDJSHJSHJSHDSJDHJONGVO\" */\n  mload(0x40)\n  dup1\n  0x60\n  add\n  0x40\n  mstore\n  dup1\n  0x2a\n  dup2\n  mstore\n  0x20\n  add\n  data_c359735a342ece061e65ab7390d246d1e53ba5f24eea70d6201f1d4a7b2f3475\n  0x2a\n  swap2\n  codecopy\n  0x01\n  swap1\n  dup1\n  mload\n  swap1\n  0x20\n  add\n  swap1\n  tag_3\n  swap3\n  swap2\n  swap1\n  tag_2\n  jump\t// in\ntag_3:\n  pop\n    /* \"contracts/demo2.sol\":263:310  bytes32 public data2 = \"LEHONGVOwjnfvj3weh8vKJ\" */\n  sstore(0x02, 0x4c45484f4e47564f776a6e66766a3377656838764b4a00000000000000000000)\n    /* \"contracts/demo2.sol\":1084:1253  constructor() public {\r... */\n  callvalue\n    /* \"--CODEGEN--\":5:14   */\n  dup1\n    /* \"--CODEGEN--\":2:4   */\n  iszero\n  tag_4\n  jumpi\n    /* \"--CODEGEN--\":27:28   */\n  0x00\n    /* \"--CODEGEN--\":24:25   */\n  dup1\n    /* \"--CODEGEN--\":17:29   */\n  revert\n    /* \"--CODEGEN--\":2:4   */\ntag_4:\n    /* \"contracts/demo2.sol\":1084:1253  constructor() public {\r... */\n  pop\n    /* \"contracts/demo2.sol\":1134:1135  6 */\n  0x06\n    /* \"contracts/demo2.sol\":1120:1127  rlpItem */\n  0x03\n    /* \"contracts/demo2.sol\":1120:1131  rlpItem.len */\n  0x00\n  add\n    /* \"contracts/demo2.sol\":1120:1135  rlpItem.len = 6 */\n  dup2\n  swap1\n  sstore\n  pop\n    /* \"contracts/demo2.sol\":1167:1168  2 */\n  0x02\n    /* \"contracts/demo2.sol\":1150:1157  rlpItem */\n  0x03\n    /* \"contracts/demo2.sol\":1150:1164  rlpItem.memPtr */\n  0x01\n  add\n    /* \"contracts/demo2.sol\":1150:1168  rlpItem.memPtr = 2 */\n  dup2\n  swap1\n  sstore\n  pop\n    /* \"contracts/demo2.sol\":1199:1206  rlpItem */\n  0x03\n    /* \"contracts/demo2.sol\":1183:1191  iterator */\n  0x05\n    /* \"contracts/demo2.sol\":1183:1196  iterator.item */\n  0x00\n  add\n    /* \"contracts/demo2.sol\":1183:1206  iterator.item = rlpItem */\n  0x00\n  dup3\n  add\n  sload\n  dup2\n  0x00\n  add\n  sstore\n  0x01\n  dup3\n  add\n  sload\n  dup2\n  0x01\n  add\n  sstore\n  swap1\n  pop\n  pop\n    /* \"contracts/demo2.sol\":1240:1241  4 */\n  0x04\n    /* \"contracts/demo2.sol\":1221:1229  iterator */\n  0x05\n    /* \"contracts/demo2.sol\":1221:1237  iterator.nextPtr */\n  0x02\n  add\n    /* \"contracts/demo2.sol\":1221:1241  iterator.nextPtr = 4 */\n  dup2\n  swap1\n  sstore\n  pop\n    /* \"contracts/demo2.sol\":81:9610  contract demo2 {\r... */\n  jump(tag_7)\ntag_2:\n  dup3\n  dup1\n  sload\n  0x01\n  dup2\n  0x01\n  and\n  iszero\n  0x0100\n  mul\n  sub\n  and\n  0x02\n  swap1\n  div\n  swap1\n  0x00\n  mstore\n  keccak256(0x00, 0x20)\n  swap1\n  0x1f\n  add\n  0x20\n  swap1\n  div\n  dup2\n  add\n  swap3\n  dup3\n  0x1f\n  lt\n  tag_9\n  jumpi\n  dup1\n  mload\n  not(0xff)\n  and\n  dup4\n  dup1\n  add\n  or\n  dup6\n  sstore\n  jump(tag_8)\ntag_9:\n  dup3\n  dup1\n  add\n  0x01\n  add\n  dup6\n  sstore\n  dup3\n  iszero\n  tag_8\n  jumpi\n  swap2\n  dup3\n  add\ntag_10:\n  dup3\n  dup2\n  gt\n  iszero\n  tag_11\n  jumpi\n  dup3\n  mload\n  dup3\n  sstore\n  swap2\n  0x20\n  add\n  swap2\n  swap1\n  0x01\n  add\n  swap1\n  jump(tag_10)\ntag_11:\ntag_8:\n  pop\n  swap1\n  pop\n  tag_12\n  swap2\n  swap1\n  tag_13\n  jump\t// in\ntag_12:\n  pop\n  swap1\n  jump\t// out\ntag_13:\n  tag_14\n  swap2\n  swap1\ntag_15:\n  dup1\n  dup3\n  gt\n  iszero\n  tag_16\n  jumpi\n  0x00\n  dup2\n  0x00\n  swap1\n  sstore\n  pop\n  0x01\n  add\n  jump(tag_15)\ntag_16:\n  pop\n  swap1\n  jump\ntag_14:\n  swap1\n  jump\t// out\ntag_7:\n  dataSize(sub_0)\n  dup1\n  dataOffset(sub_0)\n  0x00\n  codecopy\n  0x00\n  return\nstop\ndata_4887836e294a2761413359597244d307bbe3f94827f6160d9e1a399e00e2d1be 4e414c4548484a534744534447484a534448535548444a5348444a53484a53484a534844534a44484a4f4e47564f\ndata_c359735a342ece061e65ab7390d246d1e53ba5f24eea70d6201f1d4a7b2f3475 7364664e417364667364664c4548484a5347445348444a53484a53484a534844534a44484a4f4e47564f\n\nsub_0: assembly {\n        /* \"contracts/demo2.sol\":81:9610  contract demo2 {\r... */\n      mstore(0x40, 0x80)\n      callvalue\n        /* \"--CODEGEN--\":5:14   */\n      dup1\n        /* \"--CODEGEN--\":2:4   */\n      iszero\n      tag_1\n      jumpi\n        /* \"--CODEGEN--\":27:28   */\n      0x00\n        /* \"--CODEGEN--\":24:25   */\n      dup1\n        /* \"--CODEGEN--\":17:29   */\n      revert\n        /* \"--CODEGEN--\":2:4   */\n    tag_1:\n        /* \"contracts/demo2.sol\":81:9610  contract demo2 {\r... */\n      pop\n      jumpi(tag_2, lt(calldatasize, 0x04))\n      shr(0xe0, calldataload(0x00))\n      dup1\n      0xa699fb03\n      gt\n      tag_16\n      jumpi\n      dup1\n      0xe3a7fd75\n      gt\n      tag_17\n      jumpi\n      dup1\n      0xe3a7fd75\n      eq\n      tag_12\n      jumpi\n      dup1\n      0xeaacd81e\n      eq\n      tag_13\n      jumpi\n      dup1\n      0xfc26b0ab\n      eq\n      tag_14\n      jumpi\n      dup1\n      0xfddcc148\n      eq\n      tag_15\n      jumpi\n      jump(tag_2)\n    tag_17:\n      dup1\n      0xa699fb03\n      eq\n      tag_9\n      jumpi\n      dup1\n      0xb0981c80\n      eq\n      tag_10\n      jumpi\n      dup1\n      0xc177500b\n      eq\n      tag_11\n      jumpi\n      jump(tag_2)\n    tag_16:\n      dup1\n      0x033a915c\n      eq\n      tag_3\n      jumpi\n      dup1\n      0x4a0074f8\n      eq\n      tag_4\n      jumpi\n      dup1\n      0x69bc5e20\n      eq\n      tag_5\n      jumpi\n      dup1\n      0x6c0189f0\n      eq\n      tag_6\n      jumpi\n      dup1\n      0x9ffd85c4\n      eq\n      tag_7\n      jumpi\n      dup1\n      0xa033d59b\n      eq\n      tag_8\n      jumpi\n    tag_2:\n        /* \"--CODEGEN--\":12:13   */\n      0x00\n        /* \"--CODEGEN--\":9:10   */\n      dup1\n        /* \"--CODEGEN--\":2:14   */\n      revert\n        /* \"contracts/demo2.sol\":693:729  uint8 public constant WORD_SIZE = 32 */\n    tag_3:\n      tag_18\n      tag_19\n      jump\t// in\n    tag_18:\n      mload(0x40)\n      tag_20\n      swap2\n      swap1\n      jump(tag_21)\n    tag_20:\n      mload(0x40)\n      dup1\n      swap2\n      sub\n      swap1\n      return\n        /* \"contracts/demo2.sol\":629:676  uint8 public constant LIST_LONG_START    = 0xf8 */\n    tag_4:\n      tag_22\n      tag_23\n      jump\t// in\n    tag_22:\n      mload(0x40)\n      tag_24\n      swap2\n      swap1\n      jump(tag_21)\n    tag_24:\n      mload(0x40)\n      dup1\n      swap2\n      sub\n      swap1\n      return\n        /* \"contracts/demo2.sol\":565:612  uint8 public constant LIST_SHORT_START   = 0xc0 */\n    tag_5:\n      tag_25\n      tag_26\n      jump\t// in\n    tag_25:\n      mload(0x40)\n      tag_27\n      swap2\n      swap1\n      jump(tag_21)\n    tag_27:\n      mload(0x40)\n      dup1\n      swap2\n      sub\n      swap1\n      return\n        /* \"contracts/demo2.sol\":321:363  uint8 public constant STRING_OFFSET = 0x80 */\n    tag_6:\n      tag_28\n      tag_29\n      jump\t// in\n    tag_28:\n      mload(0x40)\n      tag_30\n      swap2\n      swap1\n      jump(tag_21)\n    tag_30:\n      mload(0x40)\n      dup1\n      swap2\n      sub\n      swap1\n      return\n        /* \"contracts/demo2.sol\":107:176  bytes public data1 = \"NALEHHJSGDSDGHJSDHSUHDJSHDJSHJSHJSHDSJDHJONGVO\" */\n    tag_7:\n      tag_31\n      tag_32\n      jump\t// in\n    tag_31:\n      mload(0x40)\n      tag_33\n      swap2\n      swap1\n      jump(tag_34)\n    tag_33:\n      mload(0x40)\n      dup1\n      swap2\n      sub\n      swap1\n      return\n        /* \"contracts/demo2.sol\":437:484  uint8 public constant STRING_SHORT_START = 0x80 */\n    tag_8:\n      tag_35\n      tag_36\n      jump\t// in\n    tag_35:\n      mload(0x40)\n      tag_37\n      swap2\n      swap1\n      jump(tag_21)\n    tag_37:\n      mload(0x40)\n      dup1\n      swap2\n      sub\n      swap1\n      return\n        /* \"contracts/demo2.sol\":1014:1036  RLPItem public rlpItem */\n    tag_9:\n      tag_38\n      tag_39\n      jump\t// in\n    tag_38:\n      mload(0x40)\n      tag_40\n      swap3\n      swap2\n      swap1\n      jump(tag_41)\n    tag_40:\n      mload(0x40)\n      dup1\n      swap2\n      sub\n      swap1\n      return\n        /* \"contracts/demo2.sol\":380:420  uint8 public constant LIST_OFFSET = 0xc0 */\n    tag_10:\n      tag_42\n      tag_43\n      jump\t// in\n    tag_42:\n      mload(0x40)\n      tag_44\n      swap2\n      swap1\n      jump(tag_21)\n    tag_44:\n      mload(0x40)\n      dup1\n      swap2\n      sub\n      swap1\n      return\n        /* \"contracts/demo2.sol\":501:548  uint8 public constant STRING_LONG_START  = 0xb8 */\n    tag_11:\n      tag_45\n      tag_46\n      jump\t// in\n    tag_45:\n      mload(0x40)\n      tag_47\n      swap2\n      swap1\n      jump(tag_21)\n    tag_47:\n      mload(0x40)\n      dup1\n      swap2\n      sub\n      swap1\n      return\n        /* \"contracts/demo2.sol\":263:310  bytes32 public data2 = \"LEHONGVOwjnfvj3weh8vKJ\" */\n    tag_12:\n      tag_48\n      tag_49\n      jump\t// in\n    tag_48:\n      mload(0x40)\n      tag_50\n      swap2\n      swap1\n      jump(tag_51)\n    tag_50:\n      mload(0x40)\n      dup1\n      swap2\n      sub\n      swap1\n      return\n        /* \"contracts/demo2.sol\":2086:2195  function getEncodeData() public view returns(bytes memory) {\r... */\n    tag_13:\n      tag_52\n      tag_53\n      jump\t// in\n    tag_52:\n      mload(0x40)\n      tag_54\n      swap2\n      swap1\n      jump(tag_55)\n    tag_54:\n      mload(0x40)\n      dup1\n      swap2\n      sub\n      swap1\n      return\n        /* \"contracts/demo2.sol\":187:252  bytes public data3 = \"sdfNAsdfsdfLEHHJSGDSHDJSHJSHJSHDSJDHJONGVO\" */\n    tag_14:\n      tag_56\n      tag_57\n      jump\t// in\n    tag_56:\n      mload(0x40)\n      tag_58\n      swap2\n      swap1\n      jump(tag_34)\n    tag_58:\n      mload(0x40)\n      dup1\n      swap2\n      sub\n      swap1\n      return\n        /* \"contracts/demo2.sol\":1047:1071  Iterator public iterator */\n    tag_15:\n      tag_59\n      tag_60\n      jump\t// in\n    tag_59:\n      mload(0x40)\n      tag_61\n      swap3\n      swap2\n      swap1\n      jump(tag_62)\n    tag_61:\n      mload(0x40)\n      dup1\n      swap2\n      sub\n      swap1\n      return\n        /* \"contracts/demo2.sol\":693:729  uint8 public constant WORD_SIZE = 32 */\n    tag_19:\n        /* \"contracts/demo2.sol\":727:729  32 */\n      0x20\n        /* \"contracts/demo2.sol\":693:729  uint8 public constant WORD_SIZE = 32 */\n      dup2\n      jump\t// out\n        /* \"contracts/demo2.sol\":629:676  uint8 public constant LIST_LONG_START    = 0xf8 */\n    tag_23:\n        /* \"contracts/demo2.sol\":672:676  0xf8 */\n      0xf8\n        /* \"contracts/demo2.sol\":629:676  uint8 public constant LIST_LONG_START    = 0xf8 */\n      dup2\n      jump\t// out\n        /* \"contracts/demo2.sol\":565:612  uint8 public constant LIST_SHORT_START   = 0xc0 */\n    tag_26:\n        /* \"contracts/demo2.sol\":608:612  0xc0 */\n      0xc0\n        /* \"contracts/demo2.sol\":565:612  uint8 public constant LIST_SHORT_START   = 0xc0 */\n      dup2\n      jump\t// out\n        /* \"contracts/demo2.sol\":321:363  uint8 public constant STRING_OFFSET = 0x80 */\n    tag_29:\n        /* \"contracts/demo2.sol\":359:363  0x80 */\n      0x80\n        /* \"contracts/demo2.sol\":321:363  uint8 public constant STRING_OFFSET = 0x80 */\n      dup2\n      jump\t// out\n        /* \"contracts/demo2.sol\":107:176  bytes public data1 = \"NALEHHJSGDSDGHJSDHSUHDJSHDJSHJSHJSHDSJDHJONGVO\" */\n    tag_32:\n      0x00\n      dup1\n      sload\n      0x01\n      dup2\n      0x01\n      and\n      iszero\n      0x0100\n      mul\n      sub\n      and\n      0x02\n      swap1\n      div\n      dup1\n      0x1f\n      add\n      0x20\n      dup1\n      swap2\n      div\n      mul\n      0x20\n      add\n      mload(0x40)\n      swap1\n      dup2\n      add\n      0x40\n      mstore\n      dup1\n      swap3\n      swap2\n      swap1\n      dup2\n      dup2\n      mstore\n      0x20\n      add\n      dup3\n      dup1\n      sload\n      0x01\n      dup2\n      0x01\n      and\n      iszero\n      0x0100\n      mul\n      sub\n      and\n      0x02\n      swap1\n      div\n      dup1\n      iszero\n      tag_63\n      jumpi\n      dup1\n      0x1f\n      lt\n      tag_64\n      jumpi\n      0x0100\n      dup1\n      dup4\n      sload\n      div\n      mul\n      dup4\n      mstore\n      swap2\n      0x20\n      add\n      swap2\n      jump(tag_63)\n    tag_64:\n      dup3\n      add\n      swap2\n      swap1\n      0x00\n      mstore\n      keccak256(0x00, 0x20)\n      swap1\n    tag_65:\n      dup2\n      sload\n      dup2\n      mstore\n      swap1\n      0x01\n      add\n      swap1\n      0x20\n      add\n      dup1\n      dup4\n      gt\n      tag_65\n      jumpi\n      dup3\n      swap1\n      sub\n      0x1f\n      and\n      dup3\n      add\n      swap2\n    tag_63:\n      pop\n      pop\n      pop\n      pop\n      pop\n      dup2\n      jump\t// out\n        /* \"contracts/demo2.sol\":437:484  uint8 public constant STRING_SHORT_START = 0x80 */\n    tag_36:\n        /* \"contracts/demo2.sol\":480:484  0x80 */\n      0x80\n        /* \"contracts/demo2.sol\":437:484  uint8 public constant STRING_SHORT_START = 0x80 */\n      dup2\n      jump\t// out\n        /* \"contracts/demo2.sol\":1014:1036  RLPItem public rlpItem */\n    tag_39:\n      0x03\n      dup1\n      0x00\n      add\n      sload\n      swap1\n      dup1\n      0x01\n      add\n      sload\n      swap1\n      pop\n      dup3\n      jump\t// out\n        /* \"contracts/demo2.sol\":380:420  uint8 public constant LIST_OFFSET = 0xc0 */\n    tag_43:\n        /* \"contracts/demo2.sol\":416:420  0xc0 */\n      0xc0\n        /* \"contracts/demo2.sol\":380:420  uint8 public constant LIST_OFFSET = 0xc0 */\n      dup2\n      jump\t// out\n        /* \"contracts/demo2.sol\":501:548  uint8 public constant STRING_LONG_START  = 0xb8 */\n    tag_46:\n        /* \"contracts/demo2.sol\":544:548  0xb8 */\n      0xb8\n        /* \"contracts/demo2.sol\":501:548  uint8 public constant STRING_LONG_START  = 0xb8 */\n      dup2\n      jump\t// out\n        /* \"contracts/demo2.sol\":263:310  bytes32 public data2 = \"LEHONGVOwjnfvj3weh8vKJ\" */\n    tag_49:\n      sload(0x02)\n      dup2\n      jump\t// out\n        /* \"contracts/demo2.sol\":2086:2195  function getEncodeData() public view returns(bytes memory) {\r... */\n    tag_53:\n        /* \"contracts/demo2.sol\":2131:2143  bytes memory */\n      0x60\n        /* \"contracts/demo2.sol\":2167:2183  toBytes(rlpItem) */\n      tag_67\n        /* \"contracts/demo2.sol\":2175:2182  rlpItem */\n      0x03\n        /* \"contracts/demo2.sol\":2167:2183  toBytes(rlpItem) */\n      mload(0x40)\n      dup1\n      0x40\n      add\n      0x40\n      mstore\n      swap1\n      dup2\n      0x00\n      dup3\n      add\n      sload\n      dup2\n      mstore\n      0x20\n      add\n      0x01\n      dup3\n      add\n      sload\n      dup2\n      mstore\n      pop\n      pop\n        /* \"contracts/demo2.sol\":2167:2174  toBytes */\n      tag_68\n        /* \"contracts/demo2.sol\":2167:2183  toBytes(rlpItem) */\n      jump\t// in\n    tag_67:\n        /* \"contracts/demo2.sol\":2160:2183  return toBytes(rlpItem) */\n      swap1\n      pop\n        /* \"contracts/demo2.sol\":2086:2195  function getEncodeData() public view returns(bytes memory) {\r... */\n      swap1\n      jump\t// out\n        /* \"contracts/demo2.sol\":187:252  bytes public data3 = \"sdfNAsdfsdfLEHHJSGDSHDJSHJSHJSHDSJDHJONGVO\" */\n    tag_57:\n      0x01\n      dup1\n      sload\n      0x01\n      dup2\n      0x01\n      and\n      iszero\n      0x0100\n      mul\n      sub\n      and\n      0x02\n      swap1\n      div\n      dup1\n      0x1f\n      add\n      0x20\n      dup1\n      swap2\n      div\n      mul\n      0x20\n      add\n      mload(0x40)\n      swap1\n      dup2\n      add\n      0x40\n      mstore\n      dup1\n      swap3\n      swap2\n      swap1\n      dup2\n      dup2\n      mstore\n      0x20\n      add\n      dup3\n      dup1\n      sload\n      0x01\n      dup2\n      0x01\n      and\n      iszero\n      0x0100\n      mul\n      sub\n      and\n      0x02\n      swap1\n      div\n      dup1\n      iszero\n      tag_69\n      jumpi\n      dup1\n      0x1f\n      lt\n      tag_70\n      jumpi\n      0x0100\n      dup1\n      dup4\n      sload\n      div\n      mul\n      dup4\n      mstore\n      swap2\n      0x20\n      add\n      swap2\n      jump(tag_69)\n    tag_70:\n      dup3\n      add\n      swap2\n      swap1\n      0x00\n      mstore\n      keccak256(0x00, 0x20)\n      swap1\n    tag_71:\n      dup2\n      sload\n      dup2\n      mstore\n      swap1\n      0x01\n      add\n      swap1\n      0x20\n      add\n      dup1\n      dup4\n      gt\n      tag_71\n      jumpi\n      dup3\n      swap1\n      sub\n      0x1f\n      and\n      dup3\n      add\n      swap2\n    tag_69:\n      pop\n      pop\n      pop\n      pop\n      pop\n      dup2\n      jump\t// out\n        /* \"contracts/demo2.sol\":1047:1071  Iterator public iterator */\n    tag_60:\n      0x05\n      dup1\n      0x00\n      add\n      mload(0x40)\n      dup1\n      0x40\n      add\n      0x40\n      mstore\n      swap1\n      dup2\n      0x00\n      dup3\n      add\n      sload\n      dup2\n      mstore\n      0x20\n      add\n      0x01\n      dup3\n      add\n      sload\n      dup2\n      mstore\n      pop\n      pop\n      swap1\n      dup1\n      0x02\n      add\n      sload\n      swap1\n      pop\n      dup3\n      jump\t// out\n        /* \"contracts/demo2.sol\":2468:2957  function toBytes(RLPItem memory item) internal pure returns (bytes memory) {\r... */\n    tag_68:\n        /* \"contracts/demo2.sol\":2529:2541  bytes memory */\n      0x60\n        /* \"contracts/demo2.sol\":2577:2578  0 */\n      0x00\n        /* \"contracts/demo2.sol\":2566:2570  item */\n      dup3\n        /* \"contracts/demo2.sol\":2566:2574  item.len */\n      0x00\n      add\n      mload\n        /* \"contracts/demo2.sol\":2566:2578  item.len > 0 */\n      gt\n        /* \"contracts/demo2.sol\":2558:2579  require(item.len > 0) */\n      tag_73\n      jumpi\n        /* \"--CODEGEN--\":12:13   */\n      0x00\n        /* \"--CODEGEN--\":9:10   */\n      dup1\n        /* \"--CODEGEN--\":2:14   */\n      revert\n        /* \"contracts/demo2.sol\":2558:2579  require(item.len > 0) */\n    tag_73:\n        /* \"contracts/demo2.sol\":2596:2607  uint offset */\n      0x00\n        /* \"contracts/demo2.sol\":2610:2637  _payloadOffset(item.memPtr) */\n      tag_74\n        /* \"contracts/demo2.sol\":2625:2629  item */\n      dup4\n        /* \"contracts/demo2.sol\":2625:2636  item.memPtr */\n      0x20\n      add\n      mload\n        /* \"contracts/demo2.sol\":2610:2624  _payloadOffset */\n      tag_75\n        /* \"contracts/demo2.sol\":2610:2637  _payloadOffset(item.memPtr) */\n      jump\t// in\n    tag_74:\n        /* \"contracts/demo2.sol\":2596:2637  uint offset = _payloadOffset(item.memPtr) */\n      swap1\n      pop\n        /* \"contracts/demo2.sol\":2652:2660  uint len */\n      0x00\n        /* \"contracts/demo2.sol\":2674:2680  offset */\n      dup2\n        /* \"contracts/demo2.sol\":2663:2667  item */\n      dup5\n        /* \"contracts/demo2.sol\":2663:2671  item.len */\n      0x00\n      add\n      mload\n        /* \"contracts/demo2.sol\":2663:2680  item.len - offset */\n      sub\n        /* \"contracts/demo2.sol\":2652:2680  uint len = item.len - offset */\n      swap1\n      pop\n        /* \"contracts/demo2.sol\":2710:2729  bytes memory result */\n      0x60\n        /* \"contracts/demo2.sol\":2742:2745  len */\n      dup2\n        /* \"contracts/demo2.sol\":2732:2746  new bytes(len) */\n      mload(0x40)\n      swap1\n      dup1\n      dup3\n      mstore\n      dup1\n      0x1f\n      add\n      not(0x1f)\n      and\n      0x20\n      add\n      dup3\n      add\n      0x40\n      mstore\n      dup1\n      iszero\n      tag_76\n      jumpi\n      dup2\n      0x20\n      add\n        /* \"--CODEGEN--\":29:30   */\n      0x01\n        /* \"--CODEGEN--\":21:27   */\n      dup3\n        /* \"--CODEGEN--\":17:31   */\n      mul\n        /* \"--CODEGEN--\":124:128   */\n      dup1\n        /* \"--CODEGEN--\":108:122   */\n      calldatasize\n        /* \"--CODEGEN--\":100:106   */\n      dup4\n        /* \"--CODEGEN--\":87:129   */\n      calldatacopy\n        /* \"--CODEGEN--\":155:159   */\n      dup1\n        /* \"--CODEGEN--\":147:153   */\n      dup3\n        /* \"--CODEGEN--\":143:160   */\n      add\n        /* \"--CODEGEN--\":133:160   */\n      swap2\n      pop\n        /* \"--CODEGEN--\":0:164   */\n      pop\n        /* \"contracts/demo2.sol\":2732:2746  new bytes(len) */\n      swap1\n      pop\n    tag_76:\n      pop\n        /* \"contracts/demo2.sol\":2710:2746  bytes memory result = new bytes(len) */\n      swap1\n      pop\n        /* \"contracts/demo2.sol\":2763:2775  uint destPtr */\n      0x00\n        /* \"contracts/demo2.sol\":2839:2845  result */\n      dup2\n        /* \"contracts/demo2.sol\":2833:2837  0x20 */\n      0x20\n        /* \"contracts/demo2.sol\":2829:2846  add(0x20, result) */\n      add\n        /* \"contracts/demo2.sol\":2818:2846  destPtr := add(0x20, result) */\n      swap1\n      pop\n        /* \"contracts/demo2.sol\":2877:2917  copy(item.memPtr + offset, destPtr, len) */\n      tag_77\n        /* \"contracts/demo2.sol\":2896:2902  offset */\n      dup5\n        /* \"contracts/demo2.sol\":2882:2886  item */\n      dup8\n        /* \"contracts/demo2.sol\":2882:2893  item.memPtr */\n      0x20\n      add\n      mload\n        /* \"contracts/demo2.sol\":2882:2902  item.memPtr + offset */\n      add\n        /* \"contracts/demo2.sol\":2904:2911  destPtr */\n      dup3\n        /* \"contracts/demo2.sol\":2913:2916  len */\n      dup6\n        /* \"contracts/demo2.sol\":2877:2881  copy */\n      tag_78\n        /* \"contracts/demo2.sol\":2877:2917  copy(item.memPtr + offset, destPtr, len) */\n      jump\t// in\n    tag_77:\n        /* \"contracts/demo2.sol\":2939:2945  result */\n      dup2\n        /* \"contracts/demo2.sol\":2932:2945  return result */\n      swap5\n      pop\n      pop\n      pop\n      pop\n      pop\n        /* \"contracts/demo2.sol\":2468:2957  function toBytes(RLPItem memory item) internal pure returns (bytes memory) {\r... */\n      swap2\n      swap1\n      pop\n      jump\t// out\n        /* \"contracts/demo2.sol\":8202:8805  function _payloadOffset(uint memPtr) private pure returns (uint) {\r... */\n    tag_75:\n        /* \"contracts/demo2.sol\":8261:8265  uint */\n      0x00\n        /* \"contracts/demo2.sol\":8282:8292  uint byte0 */\n      dup1\n        /* \"contracts/demo2.sol\":8358:8364  memPtr */\n      dup3\n        /* \"contracts/demo2.sol\":8352:8365  mload(memPtr) */\n      mload\n        /* \"contracts/demo2.sol\":8349:8350  0 */\n      0x00\n        /* \"contracts/demo2.sol\":8344:8366  byte(0, mload(memPtr)) */\n      byte\n        /* \"contracts/demo2.sol\":8335:8366  byte0 := byte(0, mload(memPtr)) */\n      swap1\n      pop\n        /* \"contracts/demo2.sol\":480:484  0x80 */\n      0x80\n        /* \"contracts/demo2.sol\":8401:8427  byte0 < STRING_SHORT_START */\n      0xff\n      and\n        /* \"contracts/demo2.sol\":8401:8406  byte0 */\n      dup2\n        /* \"contracts/demo2.sol\":8401:8427  byte0 < STRING_SHORT_START */\n      lt\n        /* \"contracts/demo2.sol\":8397:8793  if (byte0 < STRING_SHORT_START)\r... */\n      iszero\n      tag_80\n      jumpi\n        /* \"contracts/demo2.sol\":8453:8454  0 */\n      0x00\n        /* \"contracts/demo2.sol\":8446:8454  return 0 */\n      swap2\n      pop\n      pop\n      jump(tag_79)\n        /* \"contracts/demo2.sol\":8397:8793  if (byte0 < STRING_SHORT_START)\r... */\n    tag_80:\n        /* \"contracts/demo2.sol\":544:548  0xb8 */\n      0xb8\n        /* \"contracts/demo2.sol\":8478:8503  byte0 < STRING_LONG_START */\n      0xff\n      and\n        /* \"contracts/demo2.sol\":8478:8483  byte0 */\n      dup2\n        /* \"contracts/demo2.sol\":8478:8503  byte0 < STRING_LONG_START */\n      lt\n        /* \"contracts/demo2.sol\":8478:8561  byte0 < STRING_LONG_START || (byte0 >= LIST_SHORT_START && byte0 < LIST_LONG_START) */\n      dup1\n      tag_82\n      jumpi\n      pop\n        /* \"contracts/demo2.sol\":608:612  0xc0 */\n      0xc0\n        /* \"contracts/demo2.sol\":8508:8533  byte0 >= LIST_SHORT_START */\n      0xff\n      and\n        /* \"contracts/demo2.sol\":8508:8513  byte0 */\n      dup2\n        /* \"contracts/demo2.sol\":8508:8533  byte0 >= LIST_SHORT_START */\n      lt\n      iszero\n        /* \"contracts/demo2.sol\":8508:8560  byte0 >= LIST_SHORT_START && byte0 < LIST_LONG_START */\n      dup1\n      iszero\n      tag_83\n      jumpi\n      pop\n        /* \"contracts/demo2.sol\":672:676  0xf8 */\n      0xf8\n        /* \"contracts/demo2.sol\":8537:8560  byte0 < LIST_LONG_START */\n      0xff\n      and\n        /* \"contracts/demo2.sol\":8537:8542  byte0 */\n      dup2\n        /* \"contracts/demo2.sol\":8537:8560  byte0 < LIST_LONG_START */\n      lt\n        /* \"contracts/demo2.sol\":8508:8560  byte0 >= LIST_SHORT_START && byte0 < LIST_LONG_START */\n    tag_83:\n        /* \"contracts/demo2.sol\":8478:8561  byte0 < STRING_LONG_START || (byte0 >= LIST_SHORT_START && byte0 < LIST_LONG_START) */\n    tag_82:\n        /* \"contracts/demo2.sol\":8474:8793  if (byte0 < STRING_LONG_START || (byte0 >= LIST_SHORT_START && byte0 < LIST_LONG_START))\r... */\n      iszero\n      tag_84\n      jumpi\n        /* \"contracts/demo2.sol\":8587:8588  1 */\n      0x01\n        /* \"contracts/demo2.sol\":8580:8588  return 1 */\n      swap2\n      pop\n      pop\n      jump(tag_79)\n        /* \"contracts/demo2.sol\":8474:8793  if (byte0 < STRING_LONG_START || (byte0 >= LIST_SHORT_START && byte0 < LIST_LONG_START))\r... */\n    tag_84:\n        /* \"contracts/demo2.sol\":608:612  0xc0 */\n      0xc0\n        /* \"contracts/demo2.sol\":8612:8636  byte0 < LIST_SHORT_START */\n      0xff\n      and\n        /* \"contracts/demo2.sol\":8612:8617  byte0 */\n      dup2\n        /* \"contracts/demo2.sol\":8612:8636  byte0 < LIST_SHORT_START */\n      lt\n        /* \"contracts/demo2.sol\":8608:8793  if (byte0 < LIST_SHORT_START)  // being explicit\r... */\n      iszero\n      tag_86\n      jumpi\n        /* \"contracts/demo2.sol\":8715:8716  1 */\n      0x01\n        /* \"contracts/demo2.sol\":8710:8711  1 */\n      dup1\n        /* \"contracts/demo2.sol\":544:548  0xb8 */\n      0xb8\n        /* \"contracts/demo2.sol\":8690:8711  STRING_LONG_START - 1 */\n      sub\n        /* \"contracts/demo2.sol\":8681:8712  byte0 - (STRING_LONG_START - 1) */\n      0xff\n      and\n        /* \"contracts/demo2.sol\":8681:8686  byte0 */\n      dup3\n        /* \"contracts/demo2.sol\":8681:8712  byte0 - (STRING_LONG_START - 1) */\n      sub\n        /* \"contracts/demo2.sol\":8681:8716  byte0 - (STRING_LONG_START - 1) + 1 */\n      add\n        /* \"contracts/demo2.sol\":8674:8716  return byte0 - (STRING_LONG_START - 1) + 1 */\n      swap2\n      pop\n      pop\n      jump(tag_79)\n        /* \"contracts/demo2.sol\":8608:8793  if (byte0 < LIST_SHORT_START)  // being explicit\r... */\n    tag_86:\n        /* \"contracts/demo2.sol\":8792:8793  1 */\n      0x01\n        /* \"contracts/demo2.sol\":8787:8788  1 */\n      dup1\n        /* \"contracts/demo2.sol\":672:676  0xf8 */\n      0xf8\n        /* \"contracts/demo2.sol\":8769:8788  LIST_LONG_START - 1 */\n      sub\n        /* \"contracts/demo2.sol\":8760:8789  byte0 - (LIST_LONG_START - 1) */\n      0xff\n      and\n        /* \"contracts/demo2.sol\":8760:8765  byte0 */\n      dup3\n        /* \"contracts/demo2.sol\":8760:8789  byte0 - (LIST_LONG_START - 1) */\n      sub\n        /* \"contracts/demo2.sol\":8760:8793  byte0 - (LIST_LONG_START - 1) + 1 */\n      add\n        /* \"contracts/demo2.sol\":8753:8793  return byte0 - (LIST_LONG_START - 1) + 1 */\n      swap2\n      pop\n      pop\n        /* \"contracts/demo2.sol\":8202:8805  function _payloadOffset(uint memPtr) private pure returns (uint) {\r... */\n    tag_79:\n      swap2\n      swap1\n      pop\n      jump\t// out\n        /* \"contracts/demo2.sol\":8818:9603  function copy(uint src, uint dest, uint len) private pure {\r... */\n    tag_78:\n        /* \"contracts/demo2.sol\":8902:8903  0 */\n      0x00\n        /* \"contracts/demo2.sol\":8895:8898  len */\n      dup2\n        /* \"contracts/demo2.sol\":8895:8903  len == 0 */\n      eq\n        /* \"contracts/demo2.sol\":8891:8912  if (len == 0) return; */\n      iszero\n      tag_89\n      jumpi\n        /* \"contracts/demo2.sol\":8905:8912  return; */\n      jump(tag_88)\n        /* \"contracts/demo2.sol\":8891:8912  if (len == 0) return; */\n    tag_89:\n        /* \"contracts/demo2.sol\":8980:9205  for (; len >= WORD_SIZE; len -= WORD_SIZE) {\r... */\n    tag_90:\n        /* \"contracts/demo2.sol\":727:729  32 */\n      0x20\n        /* \"contracts/demo2.sol\":8987:9003  len >= WORD_SIZE */\n      0xff\n      and\n        /* \"contracts/demo2.sol\":8987:8990  len */\n      dup2\n        /* \"contracts/demo2.sol\":8987:9003  len >= WORD_SIZE */\n      lt\n        /* \"contracts/demo2.sol\":8980:9205  for (; len >= WORD_SIZE; len -= WORD_SIZE) {\r... */\n      tag_91\n      jumpi\n        /* \"contracts/demo2.sol\":9093:9096  src */\n      dup3\n        /* \"contracts/demo2.sol\":9087:9097  mload(src) */\n      mload\n        /* \"contracts/demo2.sol\":9081:9085  dest */\n      dup3\n        /* \"contracts/demo2.sol\":9074:9098  mstore(dest, mload(src)) */\n      mstore\n        /* \"contracts/demo2.sol\":727:729  32 */\n      0x20\n        /* \"contracts/demo2.sol\":9137:9153  src += WORD_SIZE */\n      0xff\n      and\n      dup4\n      add\n      swap3\n      pop\n        /* \"contracts/demo2.sol\":727:729  32 */\n      0x20\n        /* \"contracts/demo2.sol\":9172:9189  dest += WORD_SIZE */\n      0xff\n      and\n      dup3\n      add\n      swap2\n      pop\n        /* \"contracts/demo2.sol\":727:729  32 */\n      0x20\n        /* \"contracts/demo2.sol\":9005:9021  len -= WORD_SIZE */\n      0xff\n      and\n      dup2\n      sub\n      swap1\n      pop\n        /* \"contracts/demo2.sol\":8980:9205  for (; len >= WORD_SIZE; len -= WORD_SIZE) {\r... */\n      jump(tag_90)\n    tag_91:\n        /* \"contracts/demo2.sol\":9306:9315  uint mask */\n      0x00\n        /* \"contracts/demo2.sol\":9345:9346  1 */\n      0x01\n        /* \"contracts/demo2.sol\":9338:9341  len */\n      dup3\n        /* \"contracts/demo2.sol\":727:729  32 */\n      0x20\n        /* \"contracts/demo2.sol\":9326:9341  WORD_SIZE - len */\n      0xff\n      and\n      sub\n        /* \"contracts/demo2.sol\":9318:9321  256 */\n      0x0100\n        /* \"contracts/demo2.sol\":9318:9342  256 ** (WORD_SIZE - len) */\n      exp\n        /* \"contracts/demo2.sol\":9318:9346  256 ** (WORD_SIZE - len) - 1 */\n      sub\n        /* \"contracts/demo2.sol\":9306:9346  uint mask = 256 ** (WORD_SIZE - len) - 1 */\n      swap1\n      pop\n        /* \"contracts/demo2.sol\":9424:9428  mask */\n      dup1\n        /* \"contracts/demo2.sol\":9420:9429  not(mask) */\n      not\n        /* \"contracts/demo2.sol\":9414:9417  src */\n      dup5\n        /* \"contracts/demo2.sol\":9408:9418  mload(src) */\n      mload\n        /* \"contracts/demo2.sol\":9404:9430  and(mload(src), not(mask)) */\n      and\n        /* \"contracts/demo2.sol\":9497:9501  mask */\n      dup2\n        /* \"contracts/demo2.sol\":9490:9494  dest */\n      dup5\n        /* \"contracts/demo2.sol\":9484:9495  mload(dest) */\n      mload\n        /* \"contracts/demo2.sol\":9480:9502  and(mload(dest), mask) */\n      and\n        /* \"contracts/demo2.sol\":9568:9575  srcpart */\n      dup2\n        /* \"contracts/demo2.sol\":9558:9566  destpart */\n      dup2\n        /* \"contracts/demo2.sol\":9555:9576  or(destpart, srcpart) */\n      or\n        /* \"contracts/demo2.sol\":9549:9553  dest */\n      dup6\n        /* \"contracts/demo2.sol\":9542:9577  mstore(dest, or(destpart, srcpart)) */\n      mstore\n        /* \"contracts/demo2.sol\":9370:9592  {\r... */\n      pop\n      pop\n      pop\n    tag_88:\n      pop\n      pop\n      pop\n      jump\t// out\n        /* \"--CODEGEN--\":5:118   */\n    tag_94:\n        /* \"--CODEGEN--\":88:112   */\n      tag_96\n        /* \"--CODEGEN--\":106:111   */\n      dup2\n        /* \"--CODEGEN--\":88:112   */\n      jump(tag_97)\n    tag_96:\n        /* \"--CODEGEN--\":83:86   */\n      dup3\n        /* \"--CODEGEN--\":76:113   */\n      mstore\n        /* \"--CODEGEN--\":70:118   */\n      pop\n      pop\n      jump\n        /* \"--CODEGEN--\":125:468   */\n    tag_98:\n      0x00\n        /* \"--CODEGEN--\":235:273   */\n      tag_100\n        /* \"--CODEGEN--\":267:272   */\n      dup3\n        /* \"--CODEGEN--\":235:273   */\n      jump(tag_101)\n    tag_100:\n        /* \"--CODEGEN--\":285:355   */\n      tag_102\n        /* \"--CODEGEN--\":348:354   */\n      dup2\n        /* \"--CODEGEN--\":343:346   */\n      dup6\n        /* \"--CODEGEN--\":285:355   */\n      jump(tag_103)\n    tag_102:\n        /* \"--CODEGEN--\":278:355   */\n      swap4\n      pop\n        /* \"--CODEGEN--\":360:412   */\n      tag_104\n        /* \"--CODEGEN--\":405:411   */\n      dup2\n        /* \"--CODEGEN--\":400:403   */\n      dup6\n        /* \"--CODEGEN--\":393:397   */\n      0x20\n        /* \"--CODEGEN--\":386:391   */\n      dup7\n        /* \"--CODEGEN--\":382:398   */\n      add\n        /* \"--CODEGEN--\":360:412   */\n      jump(tag_105)\n    tag_104:\n        /* \"--CODEGEN--\":433:462   */\n      tag_106\n        /* \"--CODEGEN--\":455:461   */\n      dup2\n        /* \"--CODEGEN--\":433:462   */\n      jump(tag_107)\n    tag_106:\n        /* \"--CODEGEN--\":428:431   */\n      dup5\n        /* \"--CODEGEN--\":424:463   */\n      add\n        /* \"--CODEGEN--\":417:463   */\n      swap2\n      pop\n        /* \"--CODEGEN--\":215:468   */\n      pop\n      swap3\n      swap2\n      pop\n      pop\n      jump\n        /* \"--CODEGEN--\":475:810   */\n    tag_108:\n      0x00\n        /* \"--CODEGEN--\":581:615   */\n      tag_110\n        /* \"--CODEGEN--\":609:614   */\n      dup3\n        /* \"--CODEGEN--\":581:615   */\n      jump(tag_111)\n    tag_110:\n        /* \"--CODEGEN--\":627:697   */\n      tag_112\n        /* \"--CODEGEN--\":690:696   */\n      dup2\n        /* \"--CODEGEN--\":685:688   */\n      dup6\n        /* \"--CODEGEN--\":627:697   */\n      jump(tag_103)\n    tag_112:\n        /* \"--CODEGEN--\":620:697   */\n      swap4\n      pop\n        /* \"--CODEGEN--\":702:754   */\n      tag_113\n        /* \"--CODEGEN--\":747:753   */\n      dup2\n        /* \"--CODEGEN--\":742:745   */\n      dup6\n        /* \"--CODEGEN--\":735:739   */\n      0x20\n        /* \"--CODEGEN--\":728:733   */\n      dup7\n        /* \"--CODEGEN--\":724:740   */\n      add\n        /* \"--CODEGEN--\":702:754   */\n      jump(tag_105)\n    tag_113:\n        /* \"--CODEGEN--\":775:804   */\n      tag_114\n        /* \"--CODEGEN--\":797:803   */\n      dup2\n        /* \"--CODEGEN--\":775:804   */\n      jump(tag_107)\n    tag_114:\n        /* \"--CODEGEN--\":770:773   */\n      dup5\n        /* \"--CODEGEN--\":766:805   */\n      add\n        /* \"--CODEGEN--\":759:805   */\n      swap2\n      pop\n        /* \"--CODEGEN--\":561:810   */\n      pop\n      swap3\n      swap2\n      pop\n      pop\n      jump\n        /* \"--CODEGEN--\":868:1337   */\n    tag_115:\n        /* \"--CODEGEN--\":1003:1007   */\n      0x40\n        /* \"--CODEGEN--\":998:1001   */\n      dup3\n        /* \"--CODEGEN--\":994:1008   */\n      add\n        /* \"--CODEGEN--\":1085:1089   */\n      0x00\n        /* \"--CODEGEN--\":1078:1083   */\n      dup3\n        /* \"--CODEGEN--\":1074:1090   */\n      add\n        /* \"--CODEGEN--\":1068:1091   */\n      mload\n        /* \"--CODEGEN--\":1097:1160   */\n      tag_117\n        /* \"--CODEGEN--\":1154:1158   */\n      0x00\n        /* \"--CODEGEN--\":1149:1152   */\n      dup6\n        /* \"--CODEGEN--\":1145:1159   */\n      add\n        /* \"--CODEGEN--\":1131:1143   */\n      dup3\n        /* \"--CODEGEN--\":1097:1160   */\n      jump(tag_118)\n    tag_117:\n        /* \"--CODEGEN--\":1023:1166   */\n      pop\n        /* \"--CODEGEN--\":1241:1245   */\n      0x20\n        /* \"--CODEGEN--\":1234:1239   */\n      dup3\n        /* \"--CODEGEN--\":1230:1246   */\n      add\n        /* \"--CODEGEN--\":1224:1247   */\n      mload\n        /* \"--CODEGEN--\":1253:1316   */\n      tag_119\n        /* \"--CODEGEN--\":1310:1314   */\n      0x20\n        /* \"--CODEGEN--\":1305:1308   */\n      dup6\n        /* \"--CODEGEN--\":1301:1315   */\n      add\n        /* \"--CODEGEN--\":1287:1299   */\n      dup3\n        /* \"--CODEGEN--\":1253:1316   */\n      jump(tag_118)\n    tag_119:\n        /* \"--CODEGEN--\":1176:1322   */\n      pop\n        /* \"--CODEGEN--\":976:1337   */\n      pop\n      pop\n      pop\n      jump\n        /* \"--CODEGEN--\":1344:1447   */\n    tag_118:\n        /* \"--CODEGEN--\":1417:1441   */\n      tag_121\n        /* \"--CODEGEN--\":1435:1440   */\n      dup2\n        /* \"--CODEGEN--\":1417:1441   */\n      jump(tag_122)\n    tag_121:\n        /* \"--CODEGEN--\":1412:1415   */\n      dup3\n        /* \"--CODEGEN--\":1405:1442   */\n      mstore\n        /* \"--CODEGEN--\":1399:1447   */\n      pop\n      pop\n      jump\n        /* \"--CODEGEN--\":1454:1567   */\n    tag_123:\n        /* \"--CODEGEN--\":1537:1561   */\n      tag_125\n        /* \"--CODEGEN--\":1555:1560   */\n      dup2\n        /* \"--CODEGEN--\":1537:1561   */\n      jump(tag_122)\n    tag_125:\n        /* \"--CODEGEN--\":1532:1535   */\n      dup3\n        /* \"--CODEGEN--\":1525:1562   */\n      mstore\n        /* \"--CODEGEN--\":1519:1567   */\n      pop\n      pop\n      jump\n        /* \"--CODEGEN--\":1574:1681   */\n    tag_126:\n        /* \"--CODEGEN--\":1653:1675   */\n      tag_128\n        /* \"--CODEGEN--\":1669:1674   */\n      dup2\n        /* \"--CODEGEN--\":1653:1675   */\n      jump(tag_129)\n    tag_128:\n        /* \"--CODEGEN--\":1648:1651   */\n      dup3\n        /* \"--CODEGEN--\":1641:1676   */\n      mstore\n        /* \"--CODEGEN--\":1635:1681   */\n      pop\n      pop\n      jump\n        /* \"--CODEGEN--\":1688:1901   */\n    tag_51:\n      0x00\n        /* \"--CODEGEN--\":1806:1808   */\n      0x20\n        /* \"--CODEGEN--\":1795:1804   */\n      dup3\n        /* \"--CODEGEN--\":1791:1809   */\n      add\n        /* \"--CODEGEN--\":1783:1809   */\n      swap1\n      pop\n        /* \"--CODEGEN--\":1820:1891   */\n      tag_131\n        /* \"--CODEGEN--\":1888:1889   */\n      0x00\n        /* \"--CODEGEN--\":1877:1886   */\n      dup4\n        /* \"--CODEGEN--\":1873:1890   */\n      add\n        /* \"--CODEGEN--\":1864:1870   */\n      dup5\n        /* \"--CODEGEN--\":1820:1891   */\n      jump(tag_94)\n    tag_131:\n        /* \"--CODEGEN--\":1777:1901   */\n      swap3\n      swap2\n      pop\n      pop\n      jump\n        /* \"--CODEGEN--\":1908:2197   */\n    tag_34:\n      0x00\n        /* \"--CODEGEN--\":2040:2042   */\n      0x20\n        /* \"--CODEGEN--\":2029:2038   */\n      dup3\n        /* \"--CODEGEN--\":2025:2043   */\n      add\n        /* \"--CODEGEN--\":2017:2043   */\n      swap1\n      pop\n        /* \"--CODEGEN--\":2090:2099   */\n      dup2\n        /* \"--CODEGEN--\":2084:2088   */\n      dup2\n        /* \"--CODEGEN--\":2080:2100   */\n      sub\n        /* \"--CODEGEN--\":2076:2077   */\n      0x00\n        /* \"--CODEGEN--\":2065:2074   */\n      dup4\n        /* \"--CODEGEN--\":2061:2078   */\n      add\n        /* \"--CODEGEN--\":2054:2101   */\n      mstore\n        /* \"--CODEGEN--\":2115:2187   */\n      tag_133\n        /* \"--CODEGEN--\":2182:2186   */\n      dup2\n        /* \"--CODEGEN--\":2173:2179   */\n      dup5\n        /* \"--CODEGEN--\":2115:2187   */\n      jump(tag_108)\n    tag_133:\n        /* \"--CODEGEN--\":2107:2187   */\n      swap1\n      pop\n        /* \"--CODEGEN--\":2011:2197   */\n      swap3\n      swap2\n      pop\n      pop\n      jump\n        /* \"--CODEGEN--\":2204:2501   */\n    tag_55:\n      0x00\n        /* \"--CODEGEN--\":2340:2342   */\n      0x20\n        /* \"--CODEGEN--\":2329:2338   */\n      dup3\n        /* \"--CODEGEN--\":2325:2343   */\n      add\n        /* \"--CODEGEN--\":2317:2343   */\n      swap1\n      pop\n        /* \"--CODEGEN--\":2390:2399   */\n      dup2\n        /* \"--CODEGEN--\":2384:2388   */\n      dup2\n        /* \"--CODEGEN--\":2380:2400   */\n      sub\n        /* \"--CODEGEN--\":2376:2377   */\n      0x00\n        /* \"--CODEGEN--\":2365:2374   */\n      dup4\n        /* \"--CODEGEN--\":2361:2378   */\n      add\n        /* \"--CODEGEN--\":2354:2401   */\n      mstore\n        /* \"--CODEGEN--\":2415:2491   */\n      tag_135\n        /* \"--CODEGEN--\":2486:2490   */\n      dup2\n        /* \"--CODEGEN--\":2477:2483   */\n      dup5\n        /* \"--CODEGEN--\":2415:2491   */\n      jump(tag_98)\n    tag_135:\n        /* \"--CODEGEN--\":2407:2491   */\n      swap1\n      pop\n        /* \"--CODEGEN--\":2311:2501   */\n      swap3\n      swap2\n      pop\n      pop\n      jump\n        /* \"--CODEGEN--\":2508:2916   */\n    tag_62:\n      0x00\n        /* \"--CODEGEN--\":2696:2698   */\n      0x60\n        /* \"--CODEGEN--\":2685:2694   */\n      dup3\n        /* \"--CODEGEN--\":2681:2699   */\n      add\n        /* \"--CODEGEN--\":2673:2699   */\n      swap1\n      pop\n        /* \"--CODEGEN--\":2710:2823   */\n      tag_137\n        /* \"--CODEGEN--\":2820:2821   */\n      0x00\n        /* \"--CODEGEN--\":2809:2818   */\n      dup4\n        /* \"--CODEGEN--\":2805:2822   */\n      add\n        /* \"--CODEGEN--\":2796:2802   */\n      dup6\n        /* \"--CODEGEN--\":2710:2823   */\n      jump(tag_115)\n    tag_137:\n        /* \"--CODEGEN--\":2834:2906   */\n      tag_138\n        /* \"--CODEGEN--\":2902:2904   */\n      0x40\n        /* \"--CODEGEN--\":2891:2900   */\n      dup4\n        /* \"--CODEGEN--\":2887:2905   */\n      add\n        /* \"--CODEGEN--\":2878:2884   */\n      dup5\n        /* \"--CODEGEN--\":2834:2906   */\n      jump(tag_123)\n    tag_138:\n        /* \"--CODEGEN--\":2667:2916   */\n      swap4\n      swap3\n      pop\n      pop\n      pop\n      jump\n        /* \"--CODEGEN--\":2923:3247   */\n    tag_41:\n      0x00\n        /* \"--CODEGEN--\":3069:3071   */\n      0x40\n        /* \"--CODEGEN--\":3058:3067   */\n      dup3\n        /* \"--CODEGEN--\":3054:3072   */\n      add\n        /* \"--CODEGEN--\":3046:3072   */\n      swap1\n      pop\n        /* \"--CODEGEN--\":3083:3154   */\n      tag_140\n        /* \"--CODEGEN--\":3151:3152   */\n      0x00\n        /* \"--CODEGEN--\":3140:3149   */\n      dup4\n        /* \"--CODEGEN--\":3136:3153   */\n      add\n        /* \"--CODEGEN--\":3127:3133   */\n      dup6\n        /* \"--CODEGEN--\":3083:3154   */\n      jump(tag_123)\n    tag_140:\n        /* \"--CODEGEN--\":3165:3237   */\n      tag_141\n        /* \"--CODEGEN--\":3233:3235   */\n      0x20\n        /* \"--CODEGEN--\":3222:3231   */\n      dup4\n        /* \"--CODEGEN--\":3218:3236   */\n      add\n        /* \"--CODEGEN--\":3209:3215   */\n      dup5\n        /* \"--CODEGEN--\":3165:3237   */\n      jump(tag_123)\n    tag_141:\n        /* \"--CODEGEN--\":3040:3247   */\n      swap4\n      swap3\n      pop\n      pop\n      pop\n      jump\n        /* \"--CODEGEN--\":3254:3459   */\n    tag_21:\n      0x00\n        /* \"--CODEGEN--\":3368:3370   */\n      0x20\n        /* \"--CODEGEN--\":3357:3366   */\n      dup3\n        /* \"--CODEGEN--\":3353:3371   */\n      add\n        /* \"--CODEGEN--\":3345:3371   */\n      swap1\n      pop\n        /* \"--CODEGEN--\":3382:3449   */\n      tag_143\n        /* \"--CODEGEN--\":3446:3447   */\n      0x00\n        /* \"--CODEGEN--\":3435:3444   */\n      dup4\n        /* \"--CODEGEN--\":3431:3448   */\n      add\n        /* \"--CODEGEN--\":3422:3428   */\n      dup5\n        /* \"--CODEGEN--\":3382:3449   */\n      jump(tag_126)\n    tag_143:\n        /* \"--CODEGEN--\":3339:3459   */\n      swap3\n      swap2\n      pop\n      pop\n      jump\n        /* \"--CODEGEN--\":3466:3583   */\n    tag_111:\n      0x00\n        /* \"--CODEGEN--\":3555:3560   */\n      dup2\n        /* \"--CODEGEN--\":3549:3561   */\n      mload\n        /* \"--CODEGEN--\":3539:3561   */\n      swap1\n      pop\n        /* \"--CODEGEN--\":3520:3583   */\n      swap2\n      swap1\n      pop\n      jump\n        /* \"--CODEGEN--\":3590:3711   */\n    tag_101:\n      0x00\n        /* \"--CODEGEN--\":3683:3688   */\n      dup2\n        /* \"--CODEGEN--\":3677:3689   */\n      mload\n        /* \"--CODEGEN--\":3667:3689   */\n      swap1\n      pop\n        /* \"--CODEGEN--\":3648:3711   */\n      swap2\n      swap1\n      pop\n      jump\n        /* \"--CODEGEN--\":3719:3881   */\n    tag_103:\n      0x00\n        /* \"--CODEGEN--\":3833:3839   */\n      dup3\n        /* \"--CODEGEN--\":3828:3831   */\n      dup3\n        /* \"--CODEGEN--\":3821:3840   */\n      mstore\n        /* \"--CODEGEN--\":3870:3874   */\n      0x20\n        /* \"--CODEGEN--\":3865:3868   */\n      dup3\n        /* \"--CODEGEN--\":3861:3875   */\n      add\n        /* \"--CODEGEN--\":3846:3875   */\n      swap1\n      pop\n        /* \"--CODEGEN--\":3814:3881   */\n      swap3\n      swap2\n      pop\n      pop\n      jump\n        /* \"--CODEGEN--\":3889:3961   */\n    tag_97:\n      0x00\n        /* \"--CODEGEN--\":3951:3956   */\n      dup2\n        /* \"--CODEGEN--\":3940:3956   */\n      swap1\n      pop\n        /* \"--CODEGEN--\":3934:3961   */\n      swap2\n      swap1\n      pop\n      jump\n        /* \"--CODEGEN--\":3968:4040   */\n    tag_122:\n      0x00\n        /* \"--CODEGEN--\":4030:4035   */\n      dup2\n        /* \"--CODEGEN--\":4019:4035   */\n      swap1\n      pop\n        /* \"--CODEGEN--\":4013:4040   */\n      swap2\n      swap1\n      pop\n      jump\n        /* \"--CODEGEN--\":4047:4128   */\n    tag_129:\n      0x00\n        /* \"--CODEGEN--\":4118:4122   */\n      0xff\n        /* \"--CODEGEN--\":4111:4116   */\n      dup3\n        /* \"--CODEGEN--\":4107:4123   */\n      and\n        /* \"--CODEGEN--\":4096:4123   */\n      swap1\n      pop\n        /* \"--CODEGEN--\":4090:4128   */\n      swap2\n      swap1\n      pop\n      jump\n        /* \"--CODEGEN--\":4136:4404   */\n    tag_105:\n        /* \"--CODEGEN--\":4201:4202   */\n      0x00\n        /* \"--CODEGEN--\":4208:4309   */\n    tag_151:\n        /* \"--CODEGEN--\":4222:4228   */\n      dup4\n        /* \"--CODEGEN--\":4219:4220   */\n      dup2\n        /* \"--CODEGEN--\":4216:4229   */\n      lt\n        /* \"--CODEGEN--\":4208:4309   */\n      iszero\n      tag_153\n      jumpi\n        /* \"--CODEGEN--\":4298:4299   */\n      dup1\n        /* \"--CODEGEN--\":4293:4296   */\n      dup3\n        /* \"--CODEGEN--\":4289:4300   */\n      add\n        /* \"--CODEGEN--\":4283:4301   */\n      mload\n        /* \"--CODEGEN--\":4279:4280   */\n      dup2\n        /* \"--CODEGEN--\":4274:4277   */\n      dup5\n        /* \"--CODEGEN--\":4270:4281   */\n      add\n        /* \"--CODEGEN--\":4263:4302   */\n      mstore\n        /* \"--CODEGEN--\":4244:4246   */\n      0x20\n        /* \"--CODEGEN--\":4241:4242   */\n      dup2\n        /* \"--CODEGEN--\":4237:4247   */\n      add\n        /* \"--CODEGEN--\":4232:4247   */\n      swap1\n      pop\n        /* \"--CODEGEN--\":4208:4309   */\n      jump(tag_151)\n    tag_153:\n        /* \"--CODEGEN--\":4324:4330   */\n      dup4\n        /* \"--CODEGEN--\":4321:4322   */\n      dup2\n        /* \"--CODEGEN--\":4318:4331   */\n      gt\n        /* \"--CODEGEN--\":4315:4317   */\n      iszero\n      tag_154\n      jumpi\n        /* \"--CODEGEN--\":4389:4390   */\n      0x00\n        /* \"--CODEGEN--\":4380:4386   */\n      dup5\n        /* \"--CODEGEN--\":4375:4378   */\n      dup5\n        /* \"--CODEGEN--\":4371:4387   */\n      add\n        /* \"--CODEGEN--\":4364:4391   */\n      mstore\n        /* \"--CODEGEN--\":4315:4317   */\n    tag_154:\n        /* \"--CODEGEN--\":4185:4404   */\n      pop\n      pop\n      pop\n      pop\n      jump\n        /* \"--CODEGEN--\":4412:4509   */\n    tag_107:\n      0x00\n        /* \"--CODEGEN--\":4500:4502   */\n      0x1f\n        /* \"--CODEGEN--\":4496:4503   */\n      not\n        /* \"--CODEGEN--\":4491:4493   */\n      0x1f\n        /* \"--CODEGEN--\":4484:4489   */\n      dup4\n        /* \"--CODEGEN--\":4480:4494   */\n      add\n        /* \"--CODEGEN--\":4476:4504   */\n      and\n        /* \"--CODEGEN--\":4466:4504   */\n      swap1\n      pop\n        /* \"--CODEGEN--\":4460:4509   */\n      swap2\n      swap1\n      pop\n      jump\n\n    auxdata: 0xa264697066735822122055c0859485e16e8bcfa95655f32e2ba1bb0782a785ce2fe18cacf3433b6162c164736f6c63430006040033\n}\n",
				"bytecode": {
					"linkReferences": {},
					"object": "60806040526040518060600160405280602e81526020016109a5602e9139600090805190602001906100329291906100d7565b506040518060600160405280602a81526020016109d3602a9139600190805190602001906100619291906100d7565b507f4c45484f4e47564f776a6e66766a3377656838764b4a0000000000000000000060025534801561009257600080fd5b5060066003600001819055506002600360010181905550600360056000016000820154816000015560018201548160010155905050600460056002018190555061017c565b828054600181600116156101000203166002900490600052602060002090601f016020900481019282601f1061011857805160ff1916838001178555610146565b82800160010185558215610146579182015b8281111561014557825182559160200191906001019061012a565b5b5090506101539190610157565b5090565b61017991905b8082111561017557600081600090555060010161015d565b5090565b90565b61081a8061018b6000396000f3fe608060405234801561001057600080fd5b50600436106100cf5760003560e01c8063a699fb031161008c578063e3a7fd7511610066578063e3a7fd75146101e3578063eaacd81e14610201578063fc26b0ab1461021f578063fddcc1481461023d576100cf565b8063a699fb0314610188578063b0981c80146101a7578063c177500b146101c5576100cf565b8063033a915c146100d45780634a0074f8146100f257806369bc5e20146101105780636c0189f01461012e5780639ffd85c41461014c578063a033d59b1461016a575b600080fd5b6100dc61025c565b6040516100e9919061073d565b60405180910390f35b6100fa610261565b604051610107919061073d565b60405180910390f35b610118610266565b604051610125919061073d565b60405180910390f35b61013661026b565b604051610143919061073d565b60405180910390f35b610154610270565b60405161016191906106a7565b60405180910390f35b61017261030e565b60405161017f919061073d565b60405180910390f35b610190610313565b60405161019e929190610714565b60405180910390f35b6101af610325565b6040516101bc919061073d565b60405180910390f35b6101cd61032a565b6040516101da919061073d565b60405180910390f35b6101eb61032f565b6040516101f8919061068c565b60405180910390f35b610209610335565b60405161021691906106c9565b60405180910390f35b610227610365565b60405161023491906106a7565b60405180910390f35b610245610403565b6040516102539291906106eb565b60405180910390f35b602081565b60f881565b60c081565b608081565b60008054600181600116156101000203166002900480601f0160208091040260200160405190810160405280929190818152602001828054600181600116156101000203166002900480156103065780601f106102db57610100808354040283529160200191610306565b820191906000526020600020905b8154815290600101906020018083116102e957829003601f168201915b505050505081565b608081565b60038060000154908060010154905082565b60c081565b60b881565b60025481565b6060610360600360405180604001604052908160008201548152602001600182015481525050610433565b905090565b60018054600181600116156101000203166002900480601f0160208091040260200160405190810160405280929190818152602001828054600181600116156101000203166002900480156103fb5780601f106103d0576101008083540402835291602001916103fb565b820191906000526020600020905b8154815290600101906020018083116103de57829003601f168201915b505050505081565b60058060000160405180604001604052908160008201548152602001600182015481525050908060020154905082565b6060600082600001511161044657600080fd5b600061045583602001516104bf565b905060008184600001510390506060816040519080825280601f01601f1916602001820160405280156104975781602001600182028036833780820191505090505b50905060008160200190506104b3848760200151018285610548565b81945050505050919050565b600080825160001a9050608060ff168110156104df576000915050610543565b60b860ff16811080610504575060c060ff168110158015610503575060f860ff1681105b5b15610513576001915050610543565b60c060ff168110156105335760018060b80360ff16820301915050610543565b60018060f80360ff168203019150505b919050565b6000811415610556576105aa565b5b602060ff1681106105865782518252602060ff1683019250602060ff1682019150602060ff1681039050610557565b6000600182602060ff16036101000a03905080198451168184511681811785525050505b505050565b6105b88161077f565b82525050565b60006105c982610763565b6105d3818561076e565b93506105e38185602086016107a0565b6105ec816107d3565b840191505092915050565b600061060282610758565b61060c818561076e565b935061061c8185602086016107a0565b610625816107d3565b840191505092915050565b604082016000820151610646600085018261065f565b506020820151610659602085018261065f565b50505050565b61066881610789565b82525050565b61067781610789565b82525050565b61068681610793565b82525050565b60006020820190506106a160008301846105af565b92915050565b600060208201905081810360008301526106c181846105f7565b905092915050565b600060208201905081810360008301526106e381846105be565b905092915050565b60006060820190506107006000830185610630565b61070d604083018461066e565b9392505050565b6000604082019050610729600083018561066e565b610736602083018461066e565b9392505050565b6000602082019050610752600083018461067d565b92915050565b600081519050919050565b600081519050919050565b600082825260208201905092915050565b6000819050919050565b6000819050919050565b600060ff82169050919050565b60005b838110156107be5780820151818401526020810190506107a3565b838111156107cd576000848401525b50505050565b6000601f19601f830116905091905056fea264697066735822122055c0859485e16e8bcfa95655f32e2ba1bb0782a785ce2fe18cacf3433b6162c164736f6c634300060400334e414c4548484a534744534447484a534448535548444a5348444a53484a53484a534844534a44484a4f4e47564f7364664e417364667364664c4548484a5347445348444a53484a53484a534844534a44484a4f4e47564f",
					"opcodes": "PUSH1 0x80 PUSH1 0x40 MSTORE PUSH1 0x40 MLOAD DUP1 PUSH1 0x60 ADD PUSH1 0x40 MSTORE DUP1 PUSH1 0x2E DUP2 MSTORE PUSH1 0x20 ADD PUSH2 0x9A5 PUSH1 0x2E SWAP2 CODECOPY PUSH1 0x0 SWAP1 DUP1 MLOAD SWAP1 PUSH1 0x20 ADD SWAP1 PUSH2 0x32 SWAP3 SWAP2 SWAP1 PUSH2 0xD7 JUMP JUMPDEST POP PUSH1 0x40 MLOAD DUP1 PUSH1 0x60 ADD PUSH1 0x40 MSTORE DUP1 PUSH1 0x2A DUP2 MSTORE PUSH1 0x20 ADD PUSH2 0x9D3 PUSH1 0x2A SWAP2 CODECOPY PUSH1 0x1 SWAP1 DUP1 MLOAD SWAP1 PUSH1 0x20 ADD SWAP1 PUSH2 0x61 SWAP3 SWAP2 SWAP1 PUSH2 0xD7 JUMP JUMPDEST POP PUSH32 0x4C45484F4E47564F776A6E66766A3377656838764B4A00000000000000000000 PUSH1 0x2 SSTORE CALLVALUE DUP1 ISZERO PUSH2 0x92 JUMPI PUSH1 0x0 DUP1 REVERT JUMPDEST POP PUSH1 0x6 PUSH1 0x3 PUSH1 0x0 ADD DUP2 SWAP1 SSTORE POP PUSH1 0x2 PUSH1 0x3 PUSH1 0x1 ADD DUP2 SWAP1 SSTORE POP PUSH1 0x3 PUSH1 0x5 PUSH1 0x0 ADD PUSH1 0x0 DUP3 ADD SLOAD DUP2 PUSH1 0x0 ADD SSTORE PUSH1 0x1 DUP3 ADD SLOAD DUP2 PUSH1 0x1 ADD SSTORE SWAP1 POP POP PUSH1 0x4 PUSH1 0x5 PUSH1 0x2 ADD DUP2 SWAP1 SSTORE POP PUSH2 0x17C JUMP JUMPDEST DUP3 DUP1 SLOAD PUSH1 0x1 DUP2 PUSH1 0x1 AND ISZERO PUSH2 0x100 MUL SUB AND PUSH1 0x2 SWAP1 DIV SWAP1 PUSH1 0x0 MSTORE PUSH1 0x20 PUSH1 0x0 KECCAK256 SWAP1 PUSH1 0x1F ADD PUSH1 0x20 SWAP1 DIV DUP2 ADD SWAP3 DUP3 PUSH1 0x1F LT PUSH2 0x118 JUMPI DUP1 MLOAD PUSH1 0xFF NOT AND DUP4 DUP1 ADD OR DUP6 SSTORE PUSH2 0x146 JUMP JUMPDEST DUP3 DUP1 ADD PUSH1 0x1 ADD DUP6 SSTORE DUP3 ISZERO PUSH2 0x146 JUMPI SWAP2 DUP3 ADD JUMPDEST DUP3 DUP2 GT ISZERO PUSH2 0x145 JUMPI DUP3 MLOAD DUP3 SSTORE SWAP2 PUSH1 0x20 ADD SWAP2 SWAP1 PUSH1 0x1 ADD SWAP1 PUSH2 0x12A JUMP JUMPDEST JUMPDEST POP SWAP1 POP PUSH2 0x153 SWAP2 SWAP1 PUSH2 0x157 JUMP JUMPDEST POP SWAP1 JUMP JUMPDEST PUSH2 0x179 SWAP2 SWAP1 JUMPDEST DUP1 DUP3 GT ISZERO PUSH2 0x175 JUMPI PUSH1 0x0 DUP2 PUSH1 0x0 SWAP1 SSTORE POP PUSH1 0x1 ADD PUSH2 0x15D JUMP JUMPDEST POP SWAP1 JUMP JUMPDEST SWAP1 JUMP JUMPDEST PUSH2 0x81A DUP1 PUSH2 0x18B PUSH1 0x0 CODECOPY PUSH1 0x0 RETURN INVALID PUSH1 0x80 PUSH1 0x40 MSTORE CALLVALUE DUP1 ISZERO PUSH2 0x10 JUMPI PUSH1 0x0 DUP1 REVERT JUMPDEST POP PUSH1 0x4 CALLDATASIZE LT PUSH2 0xCF JUMPI PUSH1 0x0 CALLDATALOAD PUSH1 0xE0 SHR DUP1 PUSH4 0xA699FB03 GT PUSH2 0x8C JUMPI DUP1 PUSH4 0xE3A7FD75 GT PUSH2 0x66 JUMPI DUP1 PUSH4 0xE3A7FD75 EQ PUSH2 0x1E3 JUMPI DUP1 PUSH4 0xEAACD81E EQ PUSH2 0x201 JUMPI DUP1 PUSH4 0xFC26B0AB EQ PUSH2 0x21F JUMPI DUP1 PUSH4 0xFDDCC148 EQ PUSH2 0x23D JUMPI PUSH2 0xCF JUMP JUMPDEST DUP1 PUSH4 0xA699FB03 EQ PUSH2 0x188 JUMPI DUP1 PUSH4 0xB0981C80 EQ PUSH2 0x1A7 JUMPI DUP1 PUSH4 0xC177500B EQ PUSH2 0x1C5 JUMPI PUSH2 0xCF JUMP JUMPDEST DUP1 PUSH4 0x33A915C EQ PUSH2 0xD4 JUMPI DUP1 PUSH4 0x4A0074F8 EQ PUSH2 0xF2 JUMPI DUP1 PUSH4 0x69BC5E20 EQ PUSH2 0x110 JUMPI DUP1 PUSH4 0x6C0189F0 EQ PUSH2 0x12E JUMPI DUP1 PUSH4 0x9FFD85C4 EQ PUSH2 0x14C JUMPI DUP1 PUSH4 0xA033D59B EQ PUSH2 0x16A JUMPI JUMPDEST PUSH1 0x0 DUP1 REVERT JUMPDEST PUSH2 0xDC PUSH2 0x25C JUMP JUMPDEST PUSH1 0x40 MLOAD PUSH2 0xE9 SWAP2 SWAP1 PUSH2 0x73D JUMP JUMPDEST PUSH1 0x40 MLOAD DUP1 SWAP2 SUB SWAP1 RETURN JUMPDEST PUSH2 0xFA PUSH2 0x261 JUMP JUMPDEST PUSH1 0x40 MLOAD PUSH2 0x107 SWAP2 SWAP1 PUSH2 0x73D JUMP JUMPDEST PUSH1 0x40 MLOAD DUP1 SWAP2 SUB SWAP1 RETURN JUMPDEST PUSH2 0x118 PUSH2 0x266 JUMP JUMPDEST PUSH1 0x40 MLOAD PUSH2 0x125 SWAP2 SWAP1 PUSH2 0x73D JUMP JUMPDEST PUSH1 0x40 MLOAD DUP1 SWAP2 SUB SWAP1 RETURN JUMPDEST PUSH2 0x136 PUSH2 0x26B JUMP JUMPDEST PUSH1 0x40 MLOAD PUSH2 0x143 SWAP2 SWAP1 PUSH2 0x73D JUMP JUMPDEST PUSH1 0x40 MLOAD DUP1 SWAP2 SUB SWAP1 RETURN JUMPDEST PUSH2 0x154 PUSH2 0x270 JUMP JUMPDEST PUSH1 0x40 MLOAD PUSH2 0x161 SWAP2 SWAP1 PUSH2 0x6A7 JUMP JUMPDEST PUSH1 0x40 MLOAD DUP1 SWAP2 SUB SWAP1 RETURN JUMPDEST PUSH2 0x172 PUSH2 0x30E JUMP JUMPDEST PUSH1 0x40 MLOAD PUSH2 0x17F SWAP2 SWAP1 PUSH2 0x73D JUMP JUMPDEST PUSH1 0x40 MLOAD DUP1 SWAP2 SUB SWAP1 RETURN JUMPDEST PUSH2 0x190 PUSH2 0x313 JUMP JUMPDEST PUSH1 0x40 MLOAD PUSH2 0x19E SWAP3 SWAP2 SWAP1 PUSH2 0x714 JUMP JUMPDEST PUSH1 0x40 MLOAD DUP1 SWAP2 SUB SWAP1 RETURN JUMPDEST PUSH2 0x1AF PUSH2 0x325 JUMP JUMPDEST PUSH1 0x40 MLOAD PUSH2 0x1BC SWAP2 SWAP1 PUSH2 0x73D JUMP JUMPDEST PUSH1 0x40 MLOAD DUP1 SWAP2 SUB SWAP1 RETURN JUMPDEST PUSH2 0x1CD PUSH2 0x32A JUMP JUMPDEST PUSH1 0x40 MLOAD PUSH2 0x1DA SWAP2 SWAP1 PUSH2 0x73D JUMP JUMPDEST PUSH1 0x40 MLOAD DUP1 SWAP2 SUB SWAP1 RETURN JUMPDEST PUSH2 0x1EB PUSH2 0x32F JUMP JUMPDEST PUSH1 0x40 MLOAD PUSH2 0x1F8 SWAP2 SWAP1 PUSH2 0x68C JUMP JUMPDEST PUSH1 0x40 MLOAD DUP1 SWAP2 SUB SWAP1 RETURN JUMPDEST PUSH2 0x209 PUSH2 0x335 JUMP JUMPDEST PUSH1 0x40 MLOAD PUSH2 0x216 SWAP2 SWAP1 PUSH2 0x6C9 JUMP JUMPDEST PUSH1 0x40 MLOAD DUP1 SWAP2 SUB SWAP1 RETURN JUMPDEST PUSH2 0x227 PUSH2 0x365 JUMP JUMPDEST PUSH1 0x40 MLOAD PUSH2 0x234 SWAP2 SWAP1 PUSH2 0x6A7 JUMP JUMPDEST PUSH1 0x40 MLOAD DUP1 SWAP2 SUB SWAP1 RETURN JUMPDEST PUSH2 0x245 PUSH2 0x403 JUMP JUMPDEST PUSH1 0x40 MLOAD PUSH2 0x253 SWAP3 SWAP2 SWAP1 PUSH2 0x6EB JUMP JUMPDEST PUSH1 0x40 MLOAD DUP1 SWAP2 SUB SWAP1 RETURN JUMPDEST PUSH1 0x20 DUP2 JUMP JUMPDEST PUSH1 0xF8 DUP2 JUMP JUMPDEST PUSH1 0xC0 DUP2 JUMP JUMPDEST PUSH1 0x80 DUP2 JUMP JUMPDEST PUSH1 0x0 DUP1 SLOAD PUSH1 0x1 DUP2 PUSH1 0x1 AND ISZERO PUSH2 0x100 MUL SUB AND PUSH1 0x2 SWAP1 DIV DUP1 PUSH1 0x1F ADD PUSH1 0x20 DUP1 SWAP2 DIV MUL PUSH1 0x20 ADD PUSH1 0x40 MLOAD SWAP1 DUP2 ADD PUSH1 0x40 MSTORE DUP1 SWAP3 SWAP2 SWAP1 DUP2 DUP2 MSTORE PUSH1 0x20 ADD DUP3 DUP1 SLOAD PUSH1 0x1 DUP2 PUSH1 0x1 AND ISZERO PUSH2 0x100 MUL SUB AND PUSH1 0x2 SWAP1 DIV DUP1 ISZERO PUSH2 0x306 JUMPI DUP1 PUSH1 0x1F LT PUSH2 0x2DB JUMPI PUSH2 0x100 DUP1 DUP4 SLOAD DIV MUL DUP4 MSTORE SWAP2 PUSH1 0x20 ADD SWAP2 PUSH2 0x306 JUMP JUMPDEST DUP3 ADD SWAP2 SWAP1 PUSH1 0x0 MSTORE PUSH1 0x20 PUSH1 0x0 KECCAK256 SWAP1 JUMPDEST DUP2 SLOAD DUP2 MSTORE SWAP1 PUSH1 0x1 ADD SWAP1 PUSH1 0x20 ADD DUP1 DUP4 GT PUSH2 0x2E9 JUMPI DUP3 SWAP1 SUB PUSH1 0x1F AND DUP3 ADD SWAP2 JUMPDEST POP POP POP POP POP DUP2 JUMP JUMPDEST PUSH1 0x80 DUP2 JUMP JUMPDEST PUSH1 0x3 DUP1 PUSH1 0x0 ADD SLOAD SWAP1 DUP1 PUSH1 0x1 ADD SLOAD SWAP1 POP DUP3 JUMP JUMPDEST PUSH1 0xC0 DUP2 JUMP JUMPDEST PUSH1 0xB8 DUP2 JUMP JUMPDEST PUSH1 0x2 SLOAD DUP2 JUMP JUMPDEST PUSH1 0x60 PUSH2 0x360 PUSH1 0x3 PUSH1 0x40 MLOAD DUP1 PUSH1 0x40 ADD PUSH1 0x40 MSTORE SWAP1 DUP2 PUSH1 0x0 DUP3 ADD SLOAD DUP2 MSTORE PUSH1 0x20 ADD PUSH1 0x1 DUP3 ADD SLOAD DUP2 MSTORE POP POP PUSH2 0x433 JUMP JUMPDEST SWAP1 POP SWAP1 JUMP JUMPDEST PUSH1 0x1 DUP1 SLOAD PUSH1 0x1 DUP2 PUSH1 0x1 AND ISZERO PUSH2 0x100 MUL SUB AND PUSH1 0x2 SWAP1 DIV DUP1 PUSH1 0x1F ADD PUSH1 0x20 DUP1 SWAP2 DIV MUL PUSH1 0x20 ADD PUSH1 0x40 MLOAD SWAP1 DUP2 ADD PUSH1 0x40 MSTORE DUP1 SWAP3 SWAP2 SWAP1 DUP2 DUP2 MSTORE PUSH1 0x20 ADD DUP3 DUP1 SLOAD PUSH1 0x1 DUP2 PUSH1 0x1 AND ISZERO PUSH2 0x100 MUL SUB AND PUSH1 0x2 SWAP1 DIV DUP1 ISZERO PUSH2 0x3FB JUMPI DUP1 PUSH1 0x1F LT PUSH2 0x3D0 JUMPI PUSH2 0x100 DUP1 DUP4 SLOAD DIV MUL DUP4 MSTORE SWAP2 PUSH1 0x20 ADD SWAP2 PUSH2 0x3FB JUMP JUMPDEST DUP3 ADD SWAP2 SWAP1 PUSH1 0x0 MSTORE PUSH1 0x20 PUSH1 0x0 KECCAK256 SWAP1 JUMPDEST DUP2 SLOAD DUP2 MSTORE SWAP1 PUSH1 0x1 ADD SWAP1 PUSH1 0x20 ADD DUP1 DUP4 GT PUSH2 0x3DE JUMPI DUP3 SWAP1 SUB PUSH1 0x1F AND DUP3 ADD SWAP2 JUMPDEST POP POP POP POP POP DUP2 JUMP JUMPDEST PUSH1 0x5 DUP1 PUSH1 0x0 ADD PUSH1 0x40 MLOAD DUP1 PUSH1 0x40 ADD PUSH1 0x40 MSTORE SWAP1 DUP2 PUSH1 0x0 DUP3 ADD SLOAD DUP2 MSTORE PUSH1 0x20 ADD PUSH1 0x1 DUP3 ADD SLOAD DUP2 MSTORE POP POP SWAP1 DUP1 PUSH1 0x2 ADD SLOAD SWAP1 POP DUP3 JUMP JUMPDEST PUSH1 0x60 PUSH1 0x0 DUP3 PUSH1 0x0 ADD MLOAD GT PUSH2 0x446 JUMPI PUSH1 0x0 DUP1 REVERT JUMPDEST PUSH1 0x0 PUSH2 0x455 DUP4 PUSH1 0x20 ADD MLOAD PUSH2 0x4BF JUMP JUMPDEST SWAP1 POP PUSH1 0x0 DUP2 DUP5 PUSH1 0x0 ADD MLOAD SUB SWAP1 POP PUSH1 0x60 DUP2 PUSH1 0x40 MLOAD SWAP1 DUP1 DUP3 MSTORE DUP1 PUSH1 0x1F ADD PUSH1 0x1F NOT AND PUSH1 0x20 ADD DUP3 ADD PUSH1 0x40 MSTORE DUP1 ISZERO PUSH2 0x497 JUMPI DUP2 PUSH1 0x20 ADD PUSH1 0x1 DUP3 MUL DUP1 CALLDATASIZE DUP4 CALLDATACOPY DUP1 DUP3 ADD SWAP2 POP POP SWAP1 POP JUMPDEST POP SWAP1 POP PUSH1 0x0 DUP2 PUSH1 0x20 ADD SWAP1 POP PUSH2 0x4B3 DUP5 DUP8 PUSH1 0x20 ADD MLOAD ADD DUP3 DUP6 PUSH2 0x548 JUMP JUMPDEST DUP2 SWAP5 POP POP POP POP POP SWAP2 SWAP1 POP JUMP JUMPDEST PUSH1 0x0 DUP1 DUP3 MLOAD PUSH1 0x0 BYTE SWAP1 POP PUSH1 0x80 PUSH1 0xFF AND DUP2 LT ISZERO PUSH2 0x4DF JUMPI PUSH1 0x0 SWAP2 POP POP PUSH2 0x543 JUMP JUMPDEST PUSH1 0xB8 PUSH1 0xFF AND DUP2 LT DUP1 PUSH2 0x504 JUMPI POP PUSH1 0xC0 PUSH1 0xFF AND DUP2 LT ISZERO DUP1 ISZERO PUSH2 0x503 JUMPI POP PUSH1 0xF8 PUSH1 0xFF AND DUP2 LT JUMPDEST JUMPDEST ISZERO PUSH2 0x513 JUMPI PUSH1 0x1 SWAP2 POP POP PUSH2 0x543 JUMP JUMPDEST PUSH1 0xC0 PUSH1 0xFF AND DUP2 LT ISZERO PUSH2 0x533 JUMPI PUSH1 0x1 DUP1 PUSH1 0xB8 SUB PUSH1 0xFF AND DUP3 SUB ADD SWAP2 POP POP PUSH2 0x543 JUMP JUMPDEST PUSH1 0x1 DUP1 PUSH1 0xF8 SUB PUSH1 0xFF AND DUP3 SUB ADD SWAP2 POP POP JUMPDEST SWAP2 SWAP1 POP JUMP JUMPDEST PUSH1 0x0 DUP2 EQ ISZERO PUSH2 0x556 JUMPI PUSH2 0x5AA JUMP JUMPDEST JUMPDEST PUSH1 0x20 PUSH1 0xFF AND DUP2 LT PUSH2 0x586 JUMPI DUP3 MLOAD DUP3 MSTORE PUSH1 0x20 PUSH1 0xFF AND DUP4 ADD SWAP3 POP PUSH1 0x20 PUSH1 0xFF AND DUP3 ADD SWAP2 POP PUSH1 0x20 PUSH1 0xFF AND DUP2 SUB SWAP1 POP PUSH2 0x557 JUMP JUMPDEST PUSH1 0x0 PUSH1 0x1 DUP3 PUSH1 0x20 PUSH1 0xFF AND SUB PUSH2 0x100 EXP SUB SWAP1 POP DUP1 NOT DUP5 MLOAD AND DUP2 DUP5 MLOAD AND DUP2 DUP2 OR DUP6 MSTORE POP POP POP JUMPDEST POP POP POP JUMP JUMPDEST PUSH2 0x5B8 DUP2 PUSH2 0x77F JUMP JUMPDEST DUP3 MSTORE POP POP JUMP JUMPDEST PUSH1 0x0 PUSH2 0x5C9 DUP3 PUSH2 0x763 JUMP JUMPDEST PUSH2 0x5D3 DUP2 DUP6 PUSH2 0x76E JUMP JUMPDEST SWAP4 POP PUSH2 0x5E3 DUP2 DUP6 PUSH1 0x20 DUP7 ADD PUSH2 0x7A0 JUMP JUMPDEST PUSH2 0x5EC DUP2 PUSH2 0x7D3 JUMP JUMPDEST DUP5 ADD SWAP2 POP POP SWAP3 SWAP2 POP POP JUMP JUMPDEST PUSH1 0x0 PUSH2 0x602 DUP3 PUSH2 0x758 JUMP JUMPDEST PUSH2 0x60C DUP2 DUP6 PUSH2 0x76E JUMP JUMPDEST SWAP4 POP PUSH2 0x61C DUP2 DUP6 PUSH1 0x20 DUP7 ADD PUSH2 0x7A0 JUMP JUMPDEST PUSH2 0x625 DUP2 PUSH2 0x7D3 JUMP JUMPDEST DUP5 ADD SWAP2 POP POP SWAP3 SWAP2 POP POP JUMP JUMPDEST PUSH1 0x40 DUP3 ADD PUSH1 0x0 DUP3 ADD MLOAD PUSH2 0x646 PUSH1 0x0 DUP6 ADD DUP3 PUSH2 0x65F JUMP JUMPDEST POP PUSH1 0x20 DUP3 ADD MLOAD PUSH2 0x659 PUSH1 0x20 DUP6 ADD DUP3 PUSH2 0x65F JUMP JUMPDEST POP POP POP POP JUMP JUMPDEST PUSH2 0x668 DUP2 PUSH2 0x789 JUMP JUMPDEST DUP3 MSTORE POP POP JUMP JUMPDEST PUSH2 0x677 DUP2 PUSH2 0x789 JUMP JUMPDEST DUP3 MSTORE POP POP JUMP JUMPDEST PUSH2 0x686 DUP2 PUSH2 0x793 JUMP JUMPDEST DUP3 MSTORE POP POP JUMP JUMPDEST PUSH1 0x0 PUSH1 0x20 DUP3 ADD SWAP1 POP PUSH2 0x6A1 PUSH1 0x0 DUP4 ADD DUP5 PUSH2 0x5AF JUMP JUMPDEST SWAP3 SWAP2 POP POP JUMP JUMPDEST PUSH1 0x0 PUSH1 0x20 DUP3 ADD SWAP1 POP DUP2 DUP2 SUB PUSH1 0x0 DUP4 ADD MSTORE PUSH2 0x6C1 DUP2 DUP5 PUSH2 0x5F7 JUMP JUMPDEST SWAP1 POP SWAP3 SWAP2 POP POP JUMP JUMPDEST PUSH1 0x0 PUSH1 0x20 DUP3 ADD SWAP1 POP DUP2 DUP2 SUB PUSH1 0x0 DUP4 ADD MSTORE PUSH2 0x6E3 DUP2 DUP5 PUSH2 0x5BE JUMP JUMPDEST SWAP1 POP SWAP3 SWAP2 POP POP JUMP JUMPDEST PUSH1 0x0 PUSH1 0x60 DUP3 ADD SWAP1 POP PUSH2 0x700 PUSH1 0x0 DUP4 ADD DUP6 PUSH2 0x630 JUMP JUMPDEST PUSH2 0x70D PUSH1 0x40 DUP4 ADD DUP5 PUSH2 0x66E JUMP JUMPDEST SWAP4 SWAP3 POP POP POP JUMP JUMPDEST PUSH1 0x0 PUSH1 0x40 DUP3 ADD SWAP1 POP PUSH2 0x729 PUSH1 0x0 DUP4 ADD DUP6 PUSH2 0x66E JUMP JUMPDEST PUSH2 0x736 PUSH1 0x20 DUP4 ADD DUP5 PUSH2 0x66E JUMP JUMPDEST SWAP4 SWAP3 POP POP POP JUMP JUMPDEST PUSH1 0x0 PUSH1 0x20 DUP3 ADD SWAP1 POP PUSH2 0x752 PUSH1 0x0 DUP4 ADD DUP5 PUSH2 0x67D JUMP JUMPDEST SWAP3 SWAP2 POP POP JUMP JUMPDEST PUSH1 0x0 DUP2 MLOAD SWAP1 POP SWAP2 SWAP1 POP JUMP JUMPDEST PUSH1 0x0 DUP2 MLOAD SWAP1 POP SWAP2 SWAP1 POP JUMP JUMPDEST PUSH1 0x0 DUP3 DUP3 MSTORE PUSH1 0x20 DUP3 ADD SWAP1 POP SWAP3 SWAP2 POP POP JUMP JUMPDEST PUSH1 0x0 DUP2 SWAP1 POP SWAP2 SWAP1 POP JUMP JUMPDEST PUSH1 0x0 DUP2 SWAP1 POP SWAP2 SWAP1 POP JUMP JUMPDEST PUSH1 0x0 PUSH1 0xFF DUP3 AND SWAP1 POP SWAP2 SWAP1 POP JUMP JUMPDEST PUSH1 0x0 JUMPDEST DUP4 DUP2 LT ISZERO PUSH2 0x7BE JUMPI DUP1 DUP3 ADD MLOAD DUP2 DUP5 ADD MSTORE PUSH1 0x20 DUP2 ADD SWAP1 POP PUSH2 0x7A3 JUMP JUMPDEST DUP4 DUP2 GT ISZERO PUSH2 0x7CD JUMPI PUSH1 0x0 DUP5 DUP5 ADD MSTORE JUMPDEST POP POP POP POP JUMP JUMPDEST PUSH1 0x0 PUSH1 0x1F NOT PUSH1 0x1F DUP4 ADD AND SWAP1 POP SWAP2 SWAP1 POP JUMP INVALID LOG2 PUSH5 0x6970667358 0x22 SLT KECCAK256 SSTORE 0xC0 DUP6 SWAP5 DUP6 0xE1 PUSH15 0x8BCFA95655F32E2BA1BB0782A785CE 0x2F 0xE1 DUP13 0xAC RETURN NUMBER EXTCODESIZE PUSH2 0x62C1 PUSH5 0x736F6C6343 STOP MOD DIV STOP CALLER 0x4E COINBASE 0x4C GASLIMIT 0x48 0x48 0x4A MSTORE8 SELFBALANCE DIFFICULTY MSTORE8 DIFFICULTY SELFBALANCE 0x48 0x4A MSTORE8 DIFFICULTY 0x48 MSTORE8 SSTORE 0x48 DIFFICULTY 0x4A MSTORE8 0x48 DIFFICULTY 0x4A MSTORE8 0x48 0x4A MSTORE8 0x48 0x4A MSTORE8 0x48 DIFFICULTY MSTORE8 0x4A DIFFICULTY 0x48 0x4A 0x4F 0x4E SELFBALANCE JUMP 0x4F PUSH20 0x64664E417364667364664C4548484A5347445348 DIFFICULTY 0x4A MSTORE8 0x48 0x4A MSTORE8 0x48 0x4A MSTORE8 0x48 DIFFICULTY MSTORE8 0x4A DIFFICULTY 0x48 0x4A 0x4F 0x4E SELFBALANCE JUMP 0x4F "
				},
				"gasEstimates": {
					"creation": {
						"codeDepositCost": "414800",
						"executionCost": "infinite",
						"totalCost": "infinite"
					},
					"external": {
						"LIST_LONG_START()": "358",
						"LIST_OFFSET()": "380",
						"LIST_SHORT_START()": "380",
						"STRING_LONG_START()": "402",
						"STRING_OFFSET()": "402",
						"STRING_SHORT_START()": "446",
						"WORD_SIZE()": "336",
						"data1()": "infinite",
						"data2()": "1151",
						"data3()": "infinite",
						"getEncodeData()": "infinite",
						"iterator()": "infinite",
						"rlpItem()": "infinite"
					},
					"internal": {
						"_itemLength(uint256)": "infinite",
						"_payloadOffset(uint256)": "infinite",
						"copy(uint256,uint256,uint256)": "infinite",
						"hasNext(struct demo2.Iterator memory)": "infinite",
						"isList(struct demo2.RLPItem memory)": "infinite",
						"next(struct demo2.Iterator memory)": "infinite",
						"numItems(struct demo2.RLPItem memory)": "infinite",
						"toAddress(struct demo2.RLPItem memory)": "infinite",
						"toBoolean(struct demo2.RLPItem memory)": "infinite",
						"toBytes(struct demo2.RLPItem memory)": "infinite",
						"toRLPItem(bytes memory)": "infinite",
						"toRlpBytes(struct demo2.RLPItem memory)": "infinite",
						"toUint(struct demo2.RLPItem memory)": "infinite",
						"toUintStrict(struct demo2.RLPItem memory)": "infinite"
					}
				},
				"methodIdentifiers": {
					"LIST_LONG_START()": "4a0074f8",
					"LIST_OFFSET()": "b0981c80",
					"LIST_SHORT_START()": "69bc5e20",
					"STRING_LONG_START()": "c177500b",
					"STRING_OFFSET()": "6c0189f0",
					"STRING_SHORT_START()": "a033d59b",
					"WORD_SIZE()": "033a915c",
					"data1()": "9ffd85c4",
					"data2()": "e3a7fd75",
					"data3()": "fc26b0ab",
					"getEncodeData()": "eaacd81e",
					"iterator()": "fddcc148",
					"rlpItem()": "a699fb03"
				}
			},
			"userdoc": {
				"methods": {}
			}
		}
	}
}