{
	"contracts/demo1.sol": {
		"Demo1": {
			"abi": [
				{
					"constant": true,
					"inputs": [],
					"name": "bytesDemo1",
					"outputs": [
						{
							"internalType": "bytes",
							"name": "",
							"type": "bytes"
						}
					],
					"payable": false,
					"stateMutability": "view",
					"type": "function"
				},
				{
					"constant": true,
					"inputs": [],
					"name": "bytesDemo2",
					"outputs": [
						{
							"internalType": "bytes",
							"name": "",
							"type": "bytes"
						}
					],
					"payable": false,
					"stateMutability": "view",
					"type": "function"
				},
				{
					"constant": true,
					"inputs": [
						{
							"internalType": "bytes",
							"name": "_postBytes",
							"type": "bytes"
						},
						{
							"internalType": "uint256",
							"name": "_start",
							"type": "uint256"
						}
					],
					"name": "getAddress",
					"outputs": [
						{
							"internalType": "address",
							"name": "",
							"type": "address"
						}
					],
					"payable": false,
					"stateMutability": "view",
					"type": "function"
				},
				{
					"constant": true,
					"inputs": [
						{
							"internalType": "bytes",
							"name": "_preBytes",
							"type": "bytes"
						},
						{
							"internalType": "bytes",
							"name": "_postBytes",
							"type": "bytes"
						}
					],
					"name": "getBytes",
					"outputs": [
						{
							"internalType": "bytes",
							"name": "",
							"type": "bytes"
						}
					],
					"payable": false,
					"stateMutability": "view",
					"type": "function"
				},
				{
					"constant": true,
					"inputs": [
						{
							"internalType": "bytes",
							"name": "_postBytes",
							"type": "bytes"
						},
						{
							"internalType": "uint256",
							"name": "_start",
							"type": "uint256"
						},
						{
							"internalType": "uint256",
							"name": "_length",
							"type": "uint256"
						}
					],
					"name": "getSlide",
					"outputs": [
						{
							"internalType": "bytes",
							"name": "",
							"type": "bytes"
						}
					],
					"payable": false,
					"stateMutability": "view",
					"type": "function"
				}
			],
			"devdoc": {
				"methods": {}
			},
			"evm": {
				"assembly": "    /* \"contracts/demo1.sol\":34:6365  contract Demo1{\r... */\n  mstore(0x40, 0x80)\n    /* \"contracts/demo1.sol\":55:100  bytes public bytesDemo1 = \"ABUISGBIYASBUAISB\" */\n  mload(0x40)\n  dup1\n  0x40\n  add\n  0x40\n  mstore\n  dup1\n  0x11\n  dup2\n  mstore\n  0x20\n  add\n  0x4142554953474249594153425541495342000000000000000000000000000000\n  dup2\n  mstore\n  pop\n  0x00\n  swap1\n  dup1\n  mload\n  swap1\n  0x20\n  add\n  swap1\n  tag_1\n  swap3\n  swap2\n  swap1\n  tag_2\n  jump\t// in\ntag_1:\n  pop\n    /* \"contracts/demo1.sol\":109:151  bytes public bytesDemo2 = \"dfdfdfdfsdfdsf\" */\n  mload(0x40)\n  dup1\n  0x40\n  add\n  0x40\n  mstore\n  dup1\n  0x0e\n  dup2\n  mstore\n  0x20\n  add\n  0x6466646664666466736466647366000000000000000000000000000000000000\n  dup2\n  mstore\n  pop\n  0x01\n  swap1\n  dup1\n  mload\n  swap1\n  0x20\n  add\n  swap1\n  tag_3\n  swap3\n  swap2\n  swap1\n  tag_2\n  jump\t// in\ntag_3:\n  pop\n    /* \"contracts/demo1.sol\":34:6365  contract Demo1{\r... */\n  callvalue\n    /* \"--CODEGEN--\":8:17   */\n  dup1\n    /* \"--CODEGEN--\":5:7   */\n  iszero\n  tag_4\n  jumpi\n    /* \"--CODEGEN--\":30:31   */\n  0x00\n    /* \"--CODEGEN--\":27:28   */\n  dup1\n    /* \"--CODEGEN--\":20:32   */\n  revert\n    /* \"--CODEGEN--\":5:7   */\ntag_4:\n    /* \"contracts/demo1.sol\":34:6365  contract Demo1{\r... */\n  pop\n  jump(tag_5)\ntag_2:\n  dup3\n  dup1\n  sload\n  0x01\n  dup2\n  0x01\n  and\n  iszero\n  0x0100\n  mul\n  sub\n  and\n  0x02\n  swap1\n  div\n  swap1\n  0x00\n  mstore\n  keccak256(0x00, 0x20)\n  swap1\n  0x1f\n  add\n  0x20\n  swap1\n  div\n  dup2\n  add\n  swap3\n  dup3\n  0x1f\n  lt\n  tag_7\n  jumpi\n  dup1\n  mload\n  not(0xff)\n  and\n  dup4\n  dup1\n  add\n  or\n  dup6\n  sstore\n  jump(tag_6)\ntag_7:\n  dup3\n  dup1\n  add\n  0x01\n  add\n  dup6\n  sstore\n  dup3\n  iszero\n  tag_6\n  jumpi\n  swap2\n  dup3\n  add\ntag_8:\n  dup3\n  dup2\n  gt\n  iszero\n  tag_9\n  jumpi\n  dup3\n  mload\n  dup3\n  sstore\n  swap2\n  0x20\n  add\n  swap2\n  swap1\n  0x01\n  add\n  swap1\n  jump(tag_8)\ntag_9:\ntag_6:\n  pop\n  swap1\n  pop\n  tag_10\n  swap2\n  swap1\n  tag_11\n  jump\t// in\ntag_10:\n  pop\n  swap1\n  jump\t// out\ntag_11:\n  tag_12\n  swap2\n  swap1\ntag_13:\n  dup1\n  dup3\n  gt\n  iszero\n  tag_14\n  jumpi\n  0x00\n  dup2\n  0x00\n  swap1\n  sstore\n  pop\n  0x01\n  add\n  jump(tag_13)\ntag_14:\n  pop\n  swap1\n  jump\ntag_12:\n  swap1\n  jump\t// out\ntag_5:\n  dataSize(sub_0)\n  dup1\n  dataOffset(sub_0)\n  0x00\n  codecopy\n  0x00\n  return\nstop\n\nsub_0: assembly {\n        /* \"contracts/demo1.sol\":34:6365  contract Demo1{\r... */\n      mstore(0x40, 0x80)\n      callvalue\n        /* \"--CODEGEN--\":8:17   */\n      dup1\n        /* \"--CODEGEN--\":5:7   */\n      iszero\n      tag_1\n      jumpi\n        /* \"--CODEGEN--\":30:31   */\n      0x00\n        /* \"--CODEGEN--\":27:28   */\n      dup1\n        /* \"--CODEGEN--\":20:32   */\n      revert\n        /* \"--CODEGEN--\":5:7   */\n    tag_1:\n        /* \"contracts/demo1.sol\":34:6365  contract Demo1{\r... */\n      pop\n      jumpi(tag_2, lt(calldatasize, 0x04))\n      shr(0xe0, calldataload(0x00))\n      dup1\n      0x19c39bb7\n      eq\n      tag_3\n      jumpi\n      dup1\n      0x237e312b\n      eq\n      tag_4\n      jumpi\n      dup1\n      0x3aeee938\n      eq\n      tag_5\n      jumpi\n      dup1\n      0x94ca2cb5\n      eq\n      tag_6\n      jumpi\n      dup1\n      0xea55583e\n      eq\n      tag_7\n      jumpi\n    tag_2:\n      0x00\n      dup1\n      revert\n        /* \"contracts/demo1.sol\":323:492  function getSlide(bytes memory _postBytes, uint256 _start, uint256 _length) public view returns(bytes memory){\r... */\n    tag_3:\n      tag_8\n      0x04\n      dup1\n      calldatasize\n      sub\n        /* \"--CODEGEN--\":13:15   */\n      0x60\n        /* \"--CODEGEN--\":8:11   */\n      dup2\n        /* \"--CODEGEN--\":5:16   */\n      lt\n        /* \"--CODEGEN--\":2:4   */\n      iszero\n      tag_9\n      jumpi\n        /* \"--CODEGEN--\":29:30   */\n      0x00\n        /* \"--CODEGEN--\":26:27   */\n      dup1\n        /* \"--CODEGEN--\":19:31   */\n      revert\n        /* \"--CODEGEN--\":2:4   */\n    tag_9:\n        /* \"contracts/demo1.sol\":323:492  function getSlide(bytes memory _postBytes, uint256 _start, uint256 _length) public view returns(bytes memory){\r... */\n      dup2\n      add\n      swap1\n      dup1\n      dup1\n      calldataload\n      swap1\n      0x20\n      add\n      swap1\n        /* \"--CODEGEN--\":21:32   */\n      0x0100000000\n        /* \"--CODEGEN--\":8:19   */\n      dup2\n        /* \"--CODEGEN--\":5:33   */\n      gt\n        /* \"--CODEGEN--\":2:4   */\n      iszero\n      tag_10\n      jumpi\n        /* \"--CODEGEN--\":46:47   */\n      0x00\n        /* \"--CODEGEN--\":43:44   */\n      dup1\n        /* \"--CODEGEN--\":36:48   */\n      revert\n        /* \"--CODEGEN--\":2:4   */\n    tag_10:\n        /* \"contracts/demo1.sol\":323:492  function getSlide(bytes memory _postBytes, uint256 _start, uint256 _length) public view returns(bytes memory){\r... */\n      dup3\n      add\n        /* \"--CODEGEN--\":35:44   */\n      dup4\n        /* \"--CODEGEN--\":28:32   */\n      0x20\n        /* \"--CODEGEN--\":12:26   */\n      dup3\n        /* \"--CODEGEN--\":8:33   */\n      add\n        /* \"--CODEGEN--\":5:45   */\n      gt\n        /* \"--CODEGEN--\":2:4   */\n      iszero\n      tag_11\n      jumpi\n        /* \"--CODEGEN--\":58:59   */\n      0x00\n        /* \"--CODEGEN--\":55:56   */\n      dup1\n        /* \"--CODEGEN--\":48:60   */\n      revert\n        /* \"--CODEGEN--\":2:4   */\n    tag_11:\n        /* \"contracts/demo1.sol\":323:492  function getSlide(bytes memory _postBytes, uint256 _start, uint256 _length) public view returns(bytes memory){\r... */\n      dup1\n      calldataload\n      swap1\n      0x20\n      add\n      swap2\n        /* \"--CODEGEN--\":100:109   */\n      dup5\n        /* \"--CODEGEN--\":95:96   */\n      0x01\n        /* \"--CODEGEN--\":81:93   */\n      dup4\n        /* \"--CODEGEN--\":77:97   */\n      mul\n        /* \"--CODEGEN--\":67:75   */\n      dup5\n        /* \"--CODEGEN--\":63:98   */\n      add\n        /* \"--CODEGEN--\":60:110   */\n      gt\n        /* \"--CODEGEN--\":39:50   */\n      0x0100000000\n        /* \"--CODEGEN--\":25:37   */\n      dup4\n        /* \"--CODEGEN--\":22:51   */\n      gt\n        /* \"--CODEGEN--\":11:118   */\n      or\n        /* \"--CODEGEN--\":8:10   */\n      iszero\n      tag_12\n      jumpi\n        /* \"--CODEGEN--\":131:132   */\n      0x00\n        /* \"--CODEGEN--\":128:129   */\n      dup1\n        /* \"--CODEGEN--\":121:133   */\n      revert\n        /* \"--CODEGEN--\":8:10   */\n    tag_12:\n        /* \"contracts/demo1.sol\":323:492  function getSlide(bytes memory _postBytes, uint256 _start, uint256 _length) public view returns(bytes memory){\r... */\n      swap2\n      swap1\n      dup1\n      dup1\n      0x1f\n      add\n      0x20\n      dup1\n      swap2\n      div\n      mul\n      0x20\n      add\n      mload(0x40)\n      swap1\n      dup2\n      add\n      0x40\n      mstore\n      dup1\n      swap4\n      swap3\n      swap2\n      swap1\n      dup2\n      dup2\n      mstore\n      0x20\n      add\n      dup4\n      dup4\n        /* \"--CODEGEN--\":30:33   */\n      dup1\n        /* \"--CODEGEN--\":22:28   */\n      dup3\n        /* \"--CODEGEN--\":14:20   */\n      dup5\n        /* \"--CODEGEN--\":1:34   */\n      calldatacopy\n        /* \"--CODEGEN--\":99:100   */\n      0x00\n        /* \"--CODEGEN--\":93:96   */\n      dup2\n        /* \"--CODEGEN--\":85:91   */\n      dup5\n        /* \"--CODEGEN--\":81:97   */\n      add\n        /* \"--CODEGEN--\":74:101   */\n      mstore\n        /* \"--CODEGEN--\":137:141   */\n      0x1f\n        /* \"--CODEGEN--\":133:142   */\n      not\n        /* \"--CODEGEN--\":126:130   */\n      0x1f\n        /* \"--CODEGEN--\":121:124   */\n      dup3\n        /* \"--CODEGEN--\":117:131   */\n      add\n        /* \"--CODEGEN--\":113:143   */\n      and\n        /* \"--CODEGEN--\":106:143   */\n      swap1\n      pop\n        /* \"--CODEGEN--\":169:172   */\n      dup1\n        /* \"--CODEGEN--\":161:167   */\n      dup4\n        /* \"--CODEGEN--\":157:173   */\n      add\n        /* \"--CODEGEN--\":147:173   */\n      swap3\n      pop\n        /* \"contracts/demo1.sol\":323:492  function getSlide(bytes memory _postBytes, uint256 _start, uint256 _length) public view returns(bytes memory){\r... */\n      pop\n      pop\n      pop\n      pop\n      pop\n      pop\n      swap2\n      swap3\n      swap2\n      swap3\n      swap1\n      dup1\n      calldataload\n      swap1\n      0x20\n      add\n      swap1\n      swap3\n      swap2\n      swap1\n      dup1\n      calldataload\n      swap1\n      0x20\n      add\n      swap1\n      swap3\n      swap2\n      swap1\n      pop\n      pop\n      pop\n      tag_13\n      jump\t// in\n    tag_8:\n      mload(0x40)\n      dup1\n      dup1\n      0x20\n      add\n      dup3\n      dup2\n      sub\n      dup3\n      mstore\n      dup4\n      dup2\n      dup2\n      mload\n      dup2\n      mstore\n      0x20\n      add\n      swap2\n      pop\n      dup1\n      mload\n      swap1\n      0x20\n      add\n      swap1\n      dup1\n      dup4\n      dup4\n        /* \"--CODEGEN--\":23:24   */\n      0x00\n        /* \"--CODEGEN--\":8:108   */\n    tag_14:\n        /* \"--CODEGEN--\":33:36   */\n      dup4\n        /* \"--CODEGEN--\":30:31   */\n      dup2\n        /* \"--CODEGEN--\":27:37   */\n      lt\n        /* \"--CODEGEN--\":8:108   */\n      iszero\n      tag_16\n      jumpi\n        /* \"--CODEGEN--\":99:100   */\n      dup1\n        /* \"--CODEGEN--\":94:97   */\n      dup3\n        /* \"--CODEGEN--\":90:101   */\n      add\n        /* \"--CODEGEN--\":84:102   */\n      mload\n        /* \"--CODEGEN--\":80:81   */\n      dup2\n        /* \"--CODEGEN--\":75:78   */\n      dup5\n        /* \"--CODEGEN--\":71:82   */\n      add\n        /* \"--CODEGEN--\":64:103   */\n      mstore\n        /* \"--CODEGEN--\":52:54   */\n      0x20\n        /* \"--CODEGEN--\":49:50   */\n      dup2\n        /* \"--CODEGEN--\":45:55   */\n      add\n        /* \"--CODEGEN--\":40:55   */\n      swap1\n      pop\n        /* \"--CODEGEN--\":8:108   */\n      jump(tag_14)\n    tag_16:\n        /* \"--CODEGEN--\":12:26   */\n      pop\n        /* \"contracts/demo1.sol\":323:492  function getSlide(bytes memory _postBytes, uint256 _start, uint256 _length) public view returns(bytes memory){\r... */\n      pop\n      pop\n      pop\n      swap1\n      pop\n      swap1\n      dup2\n      add\n      swap1\n      0x1f\n      and\n      dup1\n      iszero\n      tag_17\n      jumpi\n      dup1\n      dup3\n      sub\n      dup1\n      mload\n      0x01\n      dup4\n      0x20\n      sub\n      0x0100\n      exp\n      sub\n      not\n      and\n      dup2\n      mstore\n      0x20\n      add\n      swap2\n      pop\n    tag_17:\n      pop\n      swap3\n      pop\n      pop\n      pop\n      mload(0x40)\n      dup1\n      swap2\n      sub\n      swap1\n      return\n        /* \"contracts/demo1.sol\":160:315  function getBytes(bytes memory _preBytes, bytes memory _postBytes) public view returns(bytes memory){\r... */\n    tag_4:\n      tag_18\n      0x04\n      dup1\n      calldatasize\n      sub\n        /* \"--CODEGEN--\":13:15   */\n      0x40\n        /* \"--CODEGEN--\":8:11   */\n      dup2\n        /* \"--CODEGEN--\":5:16   */\n      lt\n        /* \"--CODEGEN--\":2:4   */\n      iszero\n      tag_19\n      jumpi\n        /* \"--CODEGEN--\":29:30   */\n      0x00\n        /* \"--CODEGEN--\":26:27   */\n      dup1\n        /* \"--CODEGEN--\":19:31   */\n      revert\n        /* \"--CODEGEN--\":2:4   */\n    tag_19:\n        /* \"contracts/demo1.sol\":160:315  function getBytes(bytes memory _preBytes, bytes memory _postBytes) public view returns(bytes memory){\r... */\n      dup2\n      add\n      swap1\n      dup1\n      dup1\n      calldataload\n      swap1\n      0x20\n      add\n      swap1\n        /* \"--CODEGEN--\":21:32   */\n      0x0100000000\n        /* \"--CODEGEN--\":8:19   */\n      dup2\n        /* \"--CODEGEN--\":5:33   */\n      gt\n        /* \"--CODEGEN--\":2:4   */\n      iszero\n      tag_20\n      jumpi\n        /* \"--CODEGEN--\":46:47   */\n      0x00\n        /* \"--CODEGEN--\":43:44   */\n      dup1\n        /* \"--CODEGEN--\":36:48   */\n      revert\n        /* \"--CODEGEN--\":2:4   */\n    tag_20:\n        /* \"contracts/demo1.sol\":160:315  function getBytes(bytes memory _preBytes, bytes memory _postBytes) public view returns(bytes memory){\r... */\n      dup3\n      add\n        /* \"--CODEGEN--\":35:44   */\n      dup4\n        /* \"--CODEGEN--\":28:32   */\n      0x20\n        /* \"--CODEGEN--\":12:26   */\n      dup3\n        /* \"--CODEGEN--\":8:33   */\n      add\n        /* \"--CODEGEN--\":5:45   */\n      gt\n        /* \"--CODEGEN--\":2:4   */\n      iszero\n      tag_21\n      jumpi\n        /* \"--CODEGEN--\":58:59   */\n      0x00\n        /* \"--CODEGEN--\":55:56   */\n      dup1\n        /* \"--CODEGEN--\":48:60   */\n      revert\n        /* \"--CODEGEN--\":2:4   */\n    tag_21:\n        /* \"contracts/demo1.sol\":160:315  function getBytes(bytes memory _preBytes, bytes memory _postBytes) public view returns(bytes memory){\r... */\n      dup1\n      calldataload\n      swap1\n      0x20\n      add\n      swap2\n        /* \"--CODEGEN--\":100:109   */\n      dup5\n        /* \"--CODEGEN--\":95:96   */\n      0x01\n        /* \"--CODEGEN--\":81:93   */\n      dup4\n        /* \"--CODEGEN--\":77:97   */\n      mul\n        /* \"--CODEGEN--\":67:75   */\n      dup5\n        /* \"--CODEGEN--\":63:98   */\n      add\n        /* \"--CODEGEN--\":60:110   */\n      gt\n        /* \"--CODEGEN--\":39:50   */\n      0x0100000000\n        /* \"--CODEGEN--\":25:37   */\n      dup4\n        /* \"--CODEGEN--\":22:51   */\n      gt\n        /* \"--CODEGEN--\":11:118   */\n      or\n        /* \"--CODEGEN--\":8:10   */\n      iszero\n      tag_22\n      jumpi\n        /* \"--CODEGEN--\":131:132   */\n      0x00\n        /* \"--CODEGEN--\":128:129   */\n      dup1\n        /* \"--CODEGEN--\":121:133   */\n      revert\n        /* \"--CODEGEN--\":8:10   */\n    tag_22:\n        /* \"contracts/demo1.sol\":160:315  function getBytes(bytes memory _preBytes, bytes memory _postBytes) public view returns(bytes memory){\r... */\n      swap2\n      swap1\n      dup1\n      dup1\n      0x1f\n      add\n      0x20\n      dup1\n      swap2\n      div\n      mul\n      0x20\n      add\n      mload(0x40)\n      swap1\n      dup2\n      add\n      0x40\n      mstore\n      dup1\n      swap4\n      swap3\n      swap2\n      swap1\n      dup2\n      dup2\n      mstore\n      0x20\n      add\n      dup4\n      dup4\n        /* \"--CODEGEN--\":30:33   */\n      dup1\n        /* \"--CODEGEN--\":22:28   */\n      dup3\n        /* \"--CODEGEN--\":14:20   */\n      dup5\n        /* \"--CODEGEN--\":1:34   */\n      calldatacopy\n        /* \"--CODEGEN--\":99:100   */\n      0x00\n        /* \"--CODEGEN--\":93:96   */\n      dup2\n        /* \"--CODEGEN--\":85:91   */\n      dup5\n        /* \"--CODEGEN--\":81:97   */\n      add\n        /* \"--CODEGEN--\":74:101   */\n      mstore\n        /* \"--CODEGEN--\":137:141   */\n      0x1f\n        /* \"--CODEGEN--\":133:142   */\n      not\n        /* \"--CODEGEN--\":126:130   */\n      0x1f\n        /* \"--CODEGEN--\":121:124   */\n      dup3\n        /* \"--CODEGEN--\":117:131   */\n      add\n        /* \"--CODEGEN--\":113:143   */\n      and\n        /* \"--CODEGEN--\":106:143   */\n      swap1\n      pop\n        /* \"--CODEGEN--\":169:172   */\n      dup1\n        /* \"--CODEGEN--\":161:167   */\n      dup4\n        /* \"--CODEGEN--\":157:173   */\n      add\n        /* \"--CODEGEN--\":147:173   */\n      swap3\n      pop\n        /* \"contracts/demo1.sol\":160:315  function getBytes(bytes memory _preBytes, bytes memory _postBytes) public view returns(bytes memory){\r... */\n      pop\n      pop\n      pop\n      pop\n      pop\n      pop\n      swap2\n      swap3\n      swap2\n      swap3\n      swap1\n      dup1\n      calldataload\n      swap1\n      0x20\n      add\n      swap1\n        /* \"--CODEGEN--\":21:32   */\n      0x0100000000\n        /* \"--CODEGEN--\":8:19   */\n      dup2\n        /* \"--CODEGEN--\":5:33   */\n      gt\n        /* \"--CODEGEN--\":2:4   */\n      iszero\n      tag_23\n      jumpi\n        /* \"--CODEGEN--\":46:47   */\n      0x00\n        /* \"--CODEGEN--\":43:44   */\n      dup1\n        /* \"--CODEGEN--\":36:48   */\n      revert\n        /* \"--CODEGEN--\":2:4   */\n    tag_23:\n        /* \"contracts/demo1.sol\":160:315  function getBytes(bytes memory _preBytes, bytes memory _postBytes) public view returns(bytes memory){\r... */\n      dup3\n      add\n        /* \"--CODEGEN--\":35:44   */\n      dup4\n        /* \"--CODEGEN--\":28:32   */\n      0x20\n        /* \"--CODEGEN--\":12:26   */\n      dup3\n        /* \"--CODEGEN--\":8:33   */\n      add\n        /* \"--CODEGEN--\":5:45   */\n      gt\n        /* \"--CODEGEN--\":2:4   */\n      iszero\n      tag_24\n      jumpi\n        /* \"--CODEGEN--\":58:59   */\n      0x00\n        /* \"--CODEGEN--\":55:56   */\n      dup1\n        /* \"--CODEGEN--\":48:60   */\n      revert\n        /* \"--CODEGEN--\":2:4   */\n    tag_24:\n        /* \"contracts/demo1.sol\":160:315  function getBytes(bytes memory _preBytes, bytes memory _postBytes) public view returns(bytes memory){\r... */\n      dup1\n      calldataload\n      swap1\n      0x20\n      add\n      swap2\n        /* \"--CODEGEN--\":100:109   */\n      dup5\n        /* \"--CODEGEN--\":95:96   */\n      0x01\n        /* \"--CODEGEN--\":81:93   */\n      dup4\n        /* \"--CODEGEN--\":77:97   */\n      mul\n        /* \"--CODEGEN--\":67:75   */\n      dup5\n        /* \"--CODEGEN--\":63:98   */\n      add\n        /* \"--CODEGEN--\":60:110   */\n      gt\n        /* \"--CODEGEN--\":39:50   */\n      0x0100000000\n        /* \"--CODEGEN--\":25:37   */\n      dup4\n        /* \"--CODEGEN--\":22:51   */\n      gt\n        /* \"--CODEGEN--\":11:118   */\n      or\n        /* \"--CODEGEN--\":8:10   */\n      iszero\n      tag_25\n      jumpi\n        /* \"--CODEGEN--\":131:132   */\n      0x00\n        /* \"--CODEGEN--\":128:129   */\n      dup1\n        /* \"--CODEGEN--\":121:133   */\n      revert\n        /* \"--CODEGEN--\":8:10   */\n    tag_25:\n        /* \"contracts/demo1.sol\":160:315  function getBytes(bytes memory _preBytes, bytes memory _postBytes) public view returns(bytes memory){\r... */\n      swap2\n      swap1\n      dup1\n      dup1\n      0x1f\n      add\n      0x20\n      dup1\n      swap2\n      div\n      mul\n      0x20\n      add\n      mload(0x40)\n      swap1\n      dup2\n      add\n      0x40\n      mstore\n      dup1\n      swap4\n      swap3\n      swap2\n      swap1\n      dup2\n      dup2\n      mstore\n      0x20\n      add\n      dup4\n      dup4\n        /* \"--CODEGEN--\":30:33   */\n      dup1\n        /* \"--CODEGEN--\":22:28   */\n      dup3\n        /* \"--CODEGEN--\":14:20   */\n      dup5\n        /* \"--CODEGEN--\":1:34   */\n      calldatacopy\n        /* \"--CODEGEN--\":99:100   */\n      0x00\n        /* \"--CODEGEN--\":93:96   */\n      dup2\n        /* \"--CODEGEN--\":85:91   */\n      dup5\n        /* \"--CODEGEN--\":81:97   */\n      add\n        /* \"--CODEGEN--\":74:101   */\n      mstore\n        /* \"--CODEGEN--\":137:141   */\n      0x1f\n        /* \"--CODEGEN--\":133:142   */\n      not\n        /* \"--CODEGEN--\":126:130   */\n      0x1f\n        /* \"--CODEGEN--\":121:124   */\n      dup3\n        /* \"--CODEGEN--\":117:131   */\n      add\n        /* \"--CODEGEN--\":113:143   */\n      and\n        /* \"--CODEGEN--\":106:143   */\n      swap1\n      pop\n        /* \"--CODEGEN--\":169:172   */\n      dup1\n        /* \"--CODEGEN--\":161:167   */\n      dup4\n        /* \"--CODEGEN--\":157:173   */\n      add\n        /* \"--CODEGEN--\":147:173   */\n      swap3\n      pop\n        /* \"contracts/demo1.sol\":160:315  function getBytes(bytes memory _preBytes, bytes memory _postBytes) public view returns(bytes memory){\r... */\n      pop\n      pop\n      pop\n      pop\n      pop\n      pop\n      swap2\n      swap3\n      swap2\n      swap3\n      swap1\n      pop\n      pop\n      pop\n      tag_26\n      jump\t// in\n    tag_18:\n      mload(0x40)\n      dup1\n      dup1\n      0x20\n      add\n      dup3\n      dup2\n      sub\n      dup3\n      mstore\n      dup4\n      dup2\n      dup2\n      mload\n      dup2\n      mstore\n      0x20\n      add\n      swap2\n      pop\n      dup1\n      mload\n      swap1\n      0x20\n      add\n      swap1\n      dup1\n      dup4\n      dup4\n        /* \"--CODEGEN--\":23:24   */\n      0x00\n        /* \"--CODEGEN--\":8:108   */\n    tag_27:\n        /* \"--CODEGEN--\":33:36   */\n      dup4\n        /* \"--CODEGEN--\":30:31   */\n      dup2\n        /* \"--CODEGEN--\":27:37   */\n      lt\n        /* \"--CODEGEN--\":8:108   */\n      iszero\n      tag_29\n      jumpi\n        /* \"--CODEGEN--\":99:100   */\n      dup1\n        /* \"--CODEGEN--\":94:97   */\n      dup3\n        /* \"--CODEGEN--\":90:101   */\n      add\n        /* \"--CODEGEN--\":84:102   */\n      mload\n        /* \"--CODEGEN--\":80:81   */\n      dup2\n        /* \"--CODEGEN--\":75:78   */\n      dup5\n        /* \"--CODEGEN--\":71:82   */\n      add\n        /* \"--CODEGEN--\":64:103   */\n      mstore\n        /* \"--CODEGEN--\":52:54   */\n      0x20\n        /* \"--CODEGEN--\":49:50   */\n      dup2\n        /* \"--CODEGEN--\":45:55   */\n      add\n        /* \"--CODEGEN--\":40:55   */\n      swap1\n      pop\n        /* \"--CODEGEN--\":8:108   */\n      jump(tag_27)\n    tag_29:\n        /* \"--CODEGEN--\":12:26   */\n      pop\n        /* \"contracts/demo1.sol\":160:315  function getBytes(bytes memory _preBytes, bytes memory _postBytes) public view returns(bytes memory){\r... */\n      pop\n      pop\n      pop\n      swap1\n      pop\n      swap1\n      dup2\n      add\n      swap1\n      0x1f\n      and\n      dup1\n      iszero\n      tag_30\n      jumpi\n      dup1\n      dup3\n      sub\n      dup1\n      mload\n      0x01\n      dup4\n      0x20\n      sub\n      0x0100\n      exp\n      sub\n      not\n      and\n      dup2\n      mstore\n      0x20\n      add\n      swap2\n      pop\n    tag_30:\n      pop\n      swap3\n      pop\n      pop\n      pop\n      mload(0x40)\n      dup1\n      swap2\n      sub\n      swap1\n      return\n        /* \"contracts/demo1.sol\":109:151  bytes public bytesDemo2 = \"dfdfdfdfsdfdsf\" */\n    tag_5:\n      tag_31\n      tag_32\n      jump\t// in\n    tag_31:\n      mload(0x40)\n      dup1\n      dup1\n      0x20\n      add\n      dup3\n      dup2\n      sub\n      dup3\n      mstore\n      dup4\n      dup2\n      dup2\n      mload\n      dup2\n      mstore\n      0x20\n      add\n      swap2\n      pop\n      dup1\n      mload\n      swap1\n      0x20\n      add\n      swap1\n      dup1\n      dup4\n      dup4\n        /* \"--CODEGEN--\":23:24   */\n      0x00\n        /* \"--CODEGEN--\":8:108   */\n    tag_33:\n        /* \"--CODEGEN--\":33:36   */\n      dup4\n        /* \"--CODEGEN--\":30:31   */\n      dup2\n        /* \"--CODEGEN--\":27:37   */\n      lt\n        /* \"--CODEGEN--\":8:108   */\n      iszero\n      tag_35\n      jumpi\n        /* \"--CODEGEN--\":99:100   */\n      dup1\n        /* \"--CODEGEN--\":94:97   */\n      dup3\n        /* \"--CODEGEN--\":90:101   */\n      add\n        /* \"--CODEGEN--\":84:102   */\n      mload\n        /* \"--CODEGEN--\":80:81   */\n      dup2\n        /* \"--CODEGEN--\":75:78   */\n      dup5\n        /* \"--CODEGEN--\":71:82   */\n      add\n        /* \"--CODEGEN--\":64:103   */\n      mstore\n        /* \"--CODEGEN--\":52:54   */\n      0x20\n        /* \"--CODEGEN--\":49:50   */\n      dup2\n        /* \"--CODEGEN--\":45:55   */\n      add\n        /* \"--CODEGEN--\":40:55   */\n      swap1\n      pop\n        /* \"--CODEGEN--\":8:108   */\n      jump(tag_33)\n    tag_35:\n        /* \"--CODEGEN--\":12:26   */\n      pop\n        /* \"contracts/demo1.sol\":109:151  bytes public bytesDemo2 = \"dfdfdfdfsdfdsf\" */\n      pop\n      pop\n      pop\n      swap1\n      pop\n      swap1\n      dup2\n      add\n      swap1\n      0x1f\n      and\n      dup1\n      iszero\n      tag_36\n      jumpi\n      dup1\n      dup3\n      sub\n      dup1\n      mload\n      0x01\n      dup4\n      0x20\n      sub\n      0x0100\n      exp\n      sub\n      not\n      and\n      dup2\n      mstore\n      0x20\n      add\n      swap2\n      pop\n    tag_36:\n      pop\n      swap3\n      pop\n      pop\n      pop\n      mload(0x40)\n      dup1\n      swap2\n      sub\n      swap1\n      return\n        /* \"contracts/demo1.sol\":500:641  function getAddress(bytes memory _postBytes, uint _start) public view returns(address){\r... */\n    tag_6:\n      tag_37\n      0x04\n      dup1\n      calldatasize\n      sub\n        /* \"--CODEGEN--\":13:15   */\n      0x40\n        /* \"--CODEGEN--\":8:11   */\n      dup2\n        /* \"--CODEGEN--\":5:16   */\n      lt\n        /* \"--CODEGEN--\":2:4   */\n      iszero\n      tag_38\n      jumpi\n        /* \"--CODEGEN--\":29:30   */\n      0x00\n        /* \"--CODEGEN--\":26:27   */\n      dup1\n        /* \"--CODEGEN--\":19:31   */\n      revert\n        /* \"--CODEGEN--\":2:4   */\n    tag_38:\n        /* \"contracts/demo1.sol\":500:641  function getAddress(bytes memory _postBytes, uint _start) public view returns(address){\r... */\n      dup2\n      add\n      swap1\n      dup1\n      dup1\n      calldataload\n      swap1\n      0x20\n      add\n      swap1\n        /* \"--CODEGEN--\":21:32   */\n      0x0100000000\n        /* \"--CODEGEN--\":8:19   */\n      dup2\n        /* \"--CODEGEN--\":5:33   */\n      gt\n        /* \"--CODEGEN--\":2:4   */\n      iszero\n      tag_39\n      jumpi\n        /* \"--CODEGEN--\":46:47   */\n      0x00\n        /* \"--CODEGEN--\":43:44   */\n      dup1\n        /* \"--CODEGEN--\":36:48   */\n      revert\n        /* \"--CODEGEN--\":2:4   */\n    tag_39:\n        /* \"contracts/demo1.sol\":500:641  function getAddress(bytes memory _postBytes, uint _start) public view returns(address){\r... */\n      dup3\n      add\n        /* \"--CODEGEN--\":35:44   */\n      dup4\n        /* \"--CODEGEN--\":28:32   */\n      0x20\n        /* \"--CODEGEN--\":12:26   */\n      dup3\n        /* \"--CODEGEN--\":8:33   */\n      add\n        /* \"--CODEGEN--\":5:45   */\n      gt\n        /* \"--CODEGEN--\":2:4   */\n      iszero\n      tag_40\n      jumpi\n        /* \"--CODEGEN--\":58:59   */\n      0x00\n        /* \"--CODEGEN--\":55:56   */\n      dup1\n        /* \"--CODEGEN--\":48:60   */\n      revert\n        /* \"--CODEGEN--\":2:4   */\n    tag_40:\n        /* \"contracts/demo1.sol\":500:641  function getAddress(bytes memory _postBytes, uint _start) public view returns(address){\r... */\n      dup1\n      calldataload\n      swap1\n      0x20\n      add\n      swap2\n        /* \"--CODEGEN--\":100:109   */\n      dup5\n        /* \"--CODEGEN--\":95:96   */\n      0x01\n        /* \"--CODEGEN--\":81:93   */\n      dup4\n        /* \"--CODEGEN--\":77:97   */\n      mul\n        /* \"--CODEGEN--\":67:75   */\n      dup5\n        /* \"--CODEGEN--\":63:98   */\n      add\n        /* \"--CODEGEN--\":60:110   */\n      gt\n        /* \"--CODEGEN--\":39:50   */\n      0x0100000000\n        /* \"--CODEGEN--\":25:37   */\n      dup4\n        /* \"--CODEGEN--\":22:51   */\n      gt\n        /* \"--CODEGEN--\":11:118   */\n      or\n        /* \"--CODEGEN--\":8:10   */\n      iszero\n      tag_41\n      jumpi\n        /* \"--CODEGEN--\":131:132   */\n      0x00\n        /* \"--CODEGEN--\":128:129   */\n      dup1\n        /* \"--CODEGEN--\":121:133   */\n      revert\n        /* \"--CODEGEN--\":8:10   */\n    tag_41:\n        /* \"contracts/demo1.sol\":500:641  function getAddress(bytes memory _postBytes, uint _start) public view returns(address){\r... */\n      swap2\n      swap1\n      dup1\n      dup1\n      0x1f\n      add\n      0x20\n      dup1\n      swap2\n      div\n      mul\n      0x20\n      add\n      mload(0x40)\n      swap1\n      dup2\n      add\n      0x40\n      mstore\n      dup1\n      swap4\n      swap3\n      swap2\n      swap1\n      dup2\n      dup2\n      mstore\n      0x20\n      add\n      dup4\n      dup4\n        /* \"--CODEGEN--\":30:33   */\n      dup1\n        /* \"--CODEGEN--\":22:28   */\n      dup3\n        /* \"--CODEGEN--\":14:20   */\n      dup5\n        /* \"--CODEGEN--\":1:34   */\n      calldatacopy\n        /* \"--CODEGEN--\":99:100   */\n      0x00\n        /* \"--CODEGEN--\":93:96   */\n      dup2\n        /* \"--CODEGEN--\":85:91   */\n      dup5\n        /* \"--CODEGEN--\":81:97   */\n      add\n        /* \"--CODEGEN--\":74:101   */\n      mstore\n        /* \"--CODEGEN--\":137:141   */\n      0x1f\n        /* \"--CODEGEN--\":133:142   */\n      not\n        /* \"--CODEGEN--\":126:130   */\n      0x1f\n        /* \"--CODEGEN--\":121:124   */\n      dup3\n        /* \"--CODEGEN--\":117:131   */\n      add\n        /* \"--CODEGEN--\":113:143   */\n      and\n        /* \"--CODEGEN--\":106:143   */\n      swap1\n      pop\n        /* \"--CODEGEN--\":169:172   */\n      dup1\n        /* \"--CODEGEN--\":161:167   */\n      dup4\n        /* \"--CODEGEN--\":157:173   */\n      add\n        /* \"--CODEGEN--\":147:173   */\n      swap3\n      pop\n        /* \"contracts/demo1.sol\":500:641  function getAddress(bytes memory _postBytes, uint _start) public view returns(address){\r... */\n      pop\n      pop\n      pop\n      pop\n      pop\n      pop\n      swap2\n      swap3\n      swap2\n      swap3\n      swap1\n      dup1\n      calldataload\n      swap1\n      0x20\n      add\n      swap1\n      swap3\n      swap2\n      swap1\n      pop\n      pop\n      pop\n      tag_42\n      jump\t// in\n    tag_37:\n      mload(0x40)\n      dup1\n      dup3\n      0xffffffffffffffffffffffffffffffffffffffff\n      and\n      0xffffffffffffffffffffffffffffffffffffffff\n      and\n      dup2\n      mstore\n      0x20\n      add\n      swap2\n      pop\n      pop\n      mload(0x40)\n      dup1\n      swap2\n      sub\n      swap1\n      return\n        /* \"contracts/demo1.sol\":55:100  bytes public bytesDemo1 = \"ABUISGBIYASBUAISB\" */\n    tag_7:\n      tag_43\n      tag_44\n      jump\t// in\n    tag_43:\n      mload(0x40)\n      dup1\n      dup1\n      0x20\n      add\n      dup3\n      dup2\n      sub\n      dup3\n      mstore\n      dup4\n      dup2\n      dup2\n      mload\n      dup2\n      mstore\n      0x20\n      add\n      swap2\n      pop\n      dup1\n      mload\n      swap1\n      0x20\n      add\n      swap1\n      dup1\n      dup4\n      dup4\n        /* \"--CODEGEN--\":23:24   */\n      0x00\n        /* \"--CODEGEN--\":8:108   */\n    tag_45:\n        /* \"--CODEGEN--\":33:36   */\n      dup4\n        /* \"--CODEGEN--\":30:31   */\n      dup2\n        /* \"--CODEGEN--\":27:37   */\n      lt\n        /* \"--CODEGEN--\":8:108   */\n      iszero\n      tag_47\n      jumpi\n        /* \"--CODEGEN--\":99:100   */\n      dup1\n        /* \"--CODEGEN--\":94:97   */\n      dup3\n        /* \"--CODEGEN--\":90:101   */\n      add\n        /* \"--CODEGEN--\":84:102   */\n      mload\n        /* \"--CODEGEN--\":80:81   */\n      dup2\n        /* \"--CODEGEN--\":75:78   */\n      dup5\n        /* \"--CODEGEN--\":71:82   */\n      add\n        /* \"--CODEGEN--\":64:103   */\n      mstore\n        /* \"--CODEGEN--\":52:54   */\n      0x20\n        /* \"--CODEGEN--\":49:50   */\n      dup2\n        /* \"--CODEGEN--\":45:55   */\n      add\n        /* \"--CODEGEN--\":40:55   */\n      swap1\n      pop\n        /* \"--CODEGEN--\":8:108   */\n      jump(tag_45)\n    tag_47:\n        /* \"--CODEGEN--\":12:26   */\n      pop\n        /* \"contracts/demo1.sol\":55:100  bytes public bytesDemo1 = \"ABUISGBIYASBUAISB\" */\n      pop\n      pop\n      pop\n      swap1\n      pop\n      swap1\n      dup2\n      add\n      swap1\n      0x1f\n      and\n      dup1\n      iszero\n      tag_48\n      jumpi\n      dup1\n      dup3\n      sub\n      dup1\n      mload\n      0x01\n      dup4\n      0x20\n      sub\n      0x0100\n      exp\n      sub\n      not\n      and\n      dup2\n      mstore\n      0x20\n      add\n      swap2\n      pop\n    tag_48:\n      pop\n      swap3\n      pop\n      pop\n      pop\n      mload(0x40)\n      dup1\n      swap2\n      sub\n      swap1\n      return\n        /* \"contracts/demo1.sol\":323:492  function getSlide(bytes memory _postBytes, uint256 _start, uint256 _length) public view returns(bytes memory){\r... */\n    tag_13:\n        /* \"contracts/demo1.sol\":419:431  bytes memory */\n      0x60\n        /* \"contracts/demo1.sol\":450:484  slice(_postBytes, _start, _length) */\n      tag_50\n        /* \"contracts/demo1.sol\":456:466  _postBytes */\n      dup5\n        /* \"contracts/demo1.sol\":468:474  _start */\n      dup5\n        /* \"contracts/demo1.sol\":476:483  _length */\n      dup5\n        /* \"contracts/demo1.sol\":450:455  slice */\n      tag_51\n        /* \"contracts/demo1.sol\":450:484  slice(_postBytes, _start, _length) */\n      jump\t// in\n    tag_50:\n        /* \"contracts/demo1.sol\":443:484  return slice(_postBytes, _start, _length) */\n      swap1\n      pop\n        /* \"contracts/demo1.sol\":323:492  function getSlide(bytes memory _postBytes, uint256 _start, uint256 _length) public view returns(bytes memory){\r... */\n      swap4\n      swap3\n      pop\n      pop\n      pop\n      jump\t// out\n        /* \"contracts/demo1.sol\":160:315  function getBytes(bytes memory _preBytes, bytes memory _postBytes) public view returns(bytes memory){\r... */\n    tag_26:\n        /* \"contracts/demo1.sol\":247:259  bytes memory */\n      0x60\n        /* \"contracts/demo1.sol\":278:307  concat(_preBytes, _postBytes) */\n      tag_53\n        /* \"contracts/demo1.sol\":285:294  _preBytes */\n      dup4\n        /* \"contracts/demo1.sol\":296:306  _postBytes */\n      dup4\n        /* \"contracts/demo1.sol\":278:284  concat */\n      tag_54\n        /* \"contracts/demo1.sol\":278:307  concat(_preBytes, _postBytes) */\n      jump\t// in\n    tag_53:\n        /* \"contracts/demo1.sol\":271:307  return concat(_preBytes, _postBytes) */\n      swap1\n      pop\n        /* \"contracts/demo1.sol\":160:315  function getBytes(bytes memory _preBytes, bytes memory _postBytes) public view returns(bytes memory){\r... */\n      swap3\n      swap2\n      pop\n      pop\n      jump\t// out\n        /* \"contracts/demo1.sol\":109:151  bytes public bytesDemo2 = \"dfdfdfdfsdfdsf\" */\n    tag_32:\n      0x01\n      dup1\n      sload\n      0x01\n      dup2\n      0x01\n      and\n      iszero\n      0x0100\n      mul\n      sub\n      and\n      0x02\n      swap1\n      div\n      dup1\n      0x1f\n      add\n      0x20\n      dup1\n      swap2\n      div\n      mul\n      0x20\n      add\n      mload(0x40)\n      swap1\n      dup2\n      add\n      0x40\n      mstore\n      dup1\n      swap3\n      swap2\n      swap1\n      dup2\n      dup2\n      mstore\n      0x20\n      add\n      dup3\n      dup1\n      sload\n      0x01\n      dup2\n      0x01\n      and\n      iszero\n      0x0100\n      mul\n      sub\n      and\n      0x02\n      swap1\n      div\n      dup1\n      iszero\n      tag_55\n      jumpi\n      dup1\n      0x1f\n      lt\n      tag_56\n      jumpi\n      0x0100\n      dup1\n      dup4\n      sload\n      div\n      mul\n      dup4\n      mstore\n      swap2\n      0x20\n      add\n      swap2\n      jump(tag_55)\n    tag_56:\n      dup3\n      add\n      swap2\n      swap1\n      0x00\n      mstore\n      keccak256(0x00, 0x20)\n      swap1\n    tag_57:\n      dup2\n      sload\n      dup2\n      mstore\n      swap1\n      0x01\n      add\n      swap1\n      0x20\n      add\n      dup1\n      dup4\n      gt\n      tag_57\n      jumpi\n      dup3\n      swap1\n      sub\n      0x1f\n      and\n      dup3\n      add\n      swap2\n    tag_55:\n      pop\n      pop\n      pop\n      pop\n      pop\n      dup2\n      jump\t// out\n        /* \"contracts/demo1.sol\":500:641  function getAddress(bytes memory _postBytes, uint _start) public view returns(address){\r... */\n    tag_42:\n        /* \"contracts/demo1.sol\":578:585  address */\n      0x00\n        /* \"contracts/demo1.sol\":604:633  toAddress(_postBytes, _start) */\n      tag_59\n        /* \"contracts/demo1.sol\":614:624  _postBytes */\n      dup4\n        /* \"contracts/demo1.sol\":626:632  _start */\n      dup4\n        /* \"contracts/demo1.sol\":604:613  toAddress */\n      tag_60\n        /* \"contracts/demo1.sol\":604:633  toAddress(_postBytes, _start) */\n      jump\t// in\n    tag_59:\n        /* \"contracts/demo1.sol\":597:633  return toAddress(_postBytes, _start) */\n      swap1\n      pop\n        /* \"contracts/demo1.sol\":500:641  function getAddress(bytes memory _postBytes, uint _start) public view returns(address){\r... */\n      swap3\n      swap2\n      pop\n      pop\n      jump\t// out\n        /* \"contracts/demo1.sol\":55:100  bytes public bytesDemo1 = \"ABUISGBIYASBUAISB\" */\n    tag_44:\n      0x00\n      dup1\n      sload\n      0x01\n      dup2\n      0x01\n      and\n      iszero\n      0x0100\n      mul\n      sub\n      and\n      0x02\n      swap1\n      div\n      dup1\n      0x1f\n      add\n      0x20\n      dup1\n      swap2\n      div\n      mul\n      0x20\n      add\n      mload(0x40)\n      swap1\n      dup2\n      add\n      0x40\n      mstore\n      dup1\n      swap3\n      swap2\n      swap1\n      dup2\n      dup2\n      mstore\n      0x20\n      add\n      dup3\n      dup1\n      sload\n      0x01\n      dup2\n      0x01\n      and\n      iszero\n      0x0100\n      mul\n      sub\n      and\n      0x02\n      swap1\n      div\n      dup1\n      iszero\n      tag_61\n      jumpi\n      dup1\n      0x1f\n      lt\n      tag_62\n      jumpi\n      0x0100\n      dup1\n      dup4\n      sload\n      div\n      mul\n      dup4\n      mstore\n      swap2\n      0x20\n      add\n      swap2\n      jump(tag_61)\n    tag_62:\n      dup3\n      add\n      swap2\n      swap1\n      0x00\n      mstore\n      keccak256(0x00, 0x20)\n      swap1\n    tag_63:\n      dup2\n      sload\n      dup2\n      mstore\n      swap1\n      0x01\n      add\n      swap1\n      0x20\n      add\n      dup1\n      dup4\n      gt\n      tag_63\n      jumpi\n      dup3\n      swap1\n      sub\n      0x1f\n      and\n      dup3\n      add\n      swap2\n    tag_61:\n      pop\n      pop\n      pop\n      pop\n      pop\n      dup2\n      jump\t// out\n        /* \"contracts/demo1.sol\":3902:6362  function slice(bytes memory _bytes, uint _start, uint _length) internal pure returns (bytes memory){\r... */\n    tag_51:\n        /* \"contracts/demo1.sol\":3988:4000  bytes memory */\n      0x60\n        /* \"contracts/demo1.sol\":4047:4054  _length */\n      dup2\n        /* \"contracts/demo1.sol\":4038:4044  _start */\n      dup4\n        /* \"contracts/demo1.sol\":4038:4054  _start + _length */\n      add\n        /* \"contracts/demo1.sol\":4020:4026  _bytes */\n      dup5\n        /* \"contracts/demo1.sol\":4020:4033  _bytes.length */\n      mload\n        /* \"contracts/demo1.sol\":4020:4055  _bytes.length >= (_start + _length) */\n      lt\n      iszero\n        /* \"contracts/demo1.sol\":4012:4056  require(_bytes.length >= (_start + _length)) */\n      tag_65\n      jumpi\n      0x00\n      dup1\n      revert\n    tag_65:\n        /* \"contracts/demo1.sol\":4069:4091  bytes memory tempBytes */\n      0x60\n        /* \"contracts/demo1.sol\":4142:4149  _length */\n      dup3\n        /* \"contracts/demo1.sol\":4135:4150  iszero(_length) */\n      iszero\n        /* \"contracts/demo1.sol\":4169:4170  0 */\n      0x00\n        /* \"contracts/demo1.sol\":4164:6097  case 0 {\r... */\n      dup2\n      eq\n      tag_67\n      jumpi\n        /* \"contracts/demo1.sol\":6241:6245  0x40 */\n      0x40\n        /* \"contracts/demo1.sol\":6235:6246  mload(0x40) */\n      mload\n        /* \"contracts/demo1.sol\":6222:6246  tempBytes := mload(0x40) */\n      swap2\n      pop\n        /* \"contracts/demo1.sol\":6294:6298  0x20 */\n      0x20\n        /* \"contracts/demo1.sol\":6283:6292  tempBytes */\n      dup3\n        /* \"contracts/demo1.sol\":6279:6299  add(tempBytes, 0x20) */\n      add\n        /* \"contracts/demo1.sol\":6273:6277  0x40 */\n      0x40\n        /* \"contracts/demo1.sol\":6266:6300  mstore(0x40, add(tempBytes, 0x20)) */\n      mstore\n        /* \"contracts/demo1.sol\":4128:6315  switch iszero(_length)\r... */\n      jump(tag_66)\n        /* \"contracts/demo1.sol\":4164:6097  case 0 {\r... */\n    tag_67:\n        /* \"contracts/demo1.sol\":4341:4345  0x40 */\n      0x40\n        /* \"contracts/demo1.sol\":4335:4346  mload(0x40) */\n      mload\n        /* \"contracts/demo1.sol\":4322:4346  tempBytes := mload(0x40) */\n      swap2\n      pop\n        /* \"contracts/demo1.sol\":4978:4980  31 */\n      0x1f\n        /* \"contracts/demo1.sol\":4969:4976  _length */\n      dup5\n        /* \"contracts/demo1.sol\":4965:4981  and(_length, 31) */\n      and\n        /* \"contracts/demo1.sol\":5350:5359  lengthmod */\n      dup1\n        /* \"contracts/demo1.sol\":5343:5360  iszero(lengthmod) */\n      iszero\n        /* \"contracts/demo1.sol\":5337:5341  0x20 */\n      0x20\n        /* \"contracts/demo1.sol\":5333:5361  mul(0x20, iszero(lengthmod)) */\n      mul\n        /* \"contracts/demo1.sol\":5321:5330  lengthmod */\n      dup2\n        /* \"contracts/demo1.sol\":5310:5319  tempBytes */\n      dup5\n        /* \"contracts/demo1.sol\":5306:5331  add(tempBytes, lengthmod) */\n      add\n        /* \"contracts/demo1.sol\":5302:5362  add(add(tempBytes, lengthmod), mul(0x20, iszero(lengthmod))) */\n      add\n        /* \"contracts/demo1.sol\":5399:5406  _length */\n      dup6\n        /* \"contracts/demo1.sol\":5395:5397  mc */\n      dup2\n        /* \"contracts/demo1.sol\":5391:5407  add(mc, _length) */\n      add\n        /* \"contracts/demo1.sol\":5648:5654  _start */\n      dup8\n        /* \"contracts/demo1.sol\":5634:5643  lengthmod */\n      dup4\n        /* \"contracts/demo1.sol\":5627:5644  iszero(lengthmod) */\n      iszero\n        /* \"contracts/demo1.sol\":5621:5625  0x20 */\n      0x20\n        /* \"contracts/demo1.sol\":5617:5645  mul(0x20, iszero(lengthmod)) */\n      mul\n        /* \"contracts/demo1.sol\":5605:5614  lengthmod */\n      dup5\n        /* \"contracts/demo1.sol\":5597:5603  _bytes */\n      dup12\n        /* \"contracts/demo1.sol\":5593:5615  add(_bytes, lengthmod) */\n      add\n        /* \"contracts/demo1.sol\":5589:5646  add(add(_bytes, lengthmod), mul(0x20, iszero(lengthmod))) */\n      add\n        /* \"contracts/demo1.sol\":5585:5655  add(add(add(_bytes, lengthmod), mul(0x20, iszero(lengthmod))), _start) */\n      add\n        /* \"contracts/demo1.sol\":5427:5853  for {\r... */\n    tag_68:\n        /* \"contracts/demo1.sol\":5682:5685  end */\n      dup2\n        /* \"contracts/demo1.sol\":5678:5680  mc */\n      dup4\n        /* \"contracts/demo1.sol\":5675:5686  lt(mc, end) */\n      lt\n        /* \"contracts/demo1.sol\":5427:5853  for {\r... */\n      iszero\n      tag_70\n      jumpi\n        /* \"contracts/demo1.sol\":5830:5832  cc */\n      dup1\n        /* \"contracts/demo1.sol\":5824:5833  mload(cc) */\n      mload\n        /* \"contracts/demo1.sol\":5820:5822  mc */\n      dup4\n        /* \"contracts/demo1.sol\":5813:5834  mstore(mc, mload(cc)) */\n      mstore\n        /* \"contracts/demo1.sol\":5724:5728  0x20 */\n      0x20\n        /* \"contracts/demo1.sol\":5720:5722  mc */\n      dup4\n        /* \"contracts/demo1.sol\":5716:5729  add(mc, 0x20) */\n      add\n        /* \"contracts/demo1.sol\":5710:5729  mc := add(mc, 0x20) */\n      swap3\n      pop\n        /* \"contracts/demo1.sol\":5765:5769  0x20 */\n      0x20\n        /* \"contracts/demo1.sol\":5761:5763  cc */\n      dup2\n        /* \"contracts/demo1.sol\":5757:5770  add(cc, 0x20) */\n      add\n        /* \"contracts/demo1.sol\":5751:5770  cc := add(cc, 0x20) */\n      swap1\n      pop\n        /* \"contracts/demo1.sol\":5427:5853  for {\r... */\n      jump(tag_68)\n    tag_70:\n        /* \"contracts/demo1.sol\":5431:5674  {\r... */\n      pop\n        /* \"contracts/demo1.sol\":5891:5898  _length */\n      dup7\n        /* \"contracts/demo1.sol\":5880:5889  tempBytes */\n      dup6\n        /* \"contracts/demo1.sol\":5873:5899  mstore(tempBytes, _length) */\n      mstore\n        /* \"contracts/demo1.sol\":6077:6079  31 */\n      0x1f\n        /* \"contracts/demo1.sol\":6073:6080  not(31) */\n      not\n        /* \"contracts/demo1.sol\":6068:6070  31 */\n      0x1f\n        /* \"contracts/demo1.sol\":6064:6066  mc */\n      dup4\n        /* \"contracts/demo1.sol\":6060:6071  add(mc, 31) */\n      add\n        /* \"contracts/demo1.sol\":6056:6081  and(add(mc, 31), not(31)) */\n      and\n        /* \"contracts/demo1.sol\":6050:6054  0x40 */\n      0x40\n        /* \"contracts/demo1.sol\":6043:6082  mstore(0x40, and(add(mc, 31), not(31))) */\n      mstore\n        /* \"contracts/demo1.sol\":4171:6097  {\r... */\n      pop\n      pop\n      pop\n        /* \"contracts/demo1.sol\":4128:6315  switch iszero(_length)\r... */\n    tag_66:\n      pop\n        /* \"contracts/demo1.sol\":6345:6354  tempBytes */\n      dup1\n        /* \"contracts/demo1.sol\":6338:6354  return tempBytes */\n      swap2\n      pop\n      pop\n        /* \"contracts/demo1.sol\":3902:6362  function slice(bytes memory _bytes, uint _start, uint _length) internal pure returns (bytes memory){\r... */\n      swap4\n      swap3\n      pop\n      pop\n      pop\n      jump\t// out\n        /* \"contracts/demo1.sol\":1019:3890  function concat(bytes memory _preBytes, bytes memory _postBytes) internal pure returns (bytes memory)\r... */\n    tag_54:\n        /* \"contracts/demo1.sol\":1107:1119  bytes memory */\n      0x60\n        /* \"contracts/demo1.sol\":1137:1159  bytes memory tempBytes */\n      dup1\n        /* \"contracts/demo1.sol\":1339:1343  0x40 */\n      0x40\n        /* \"contracts/demo1.sol\":1333:1344  mload(0x40) */\n      mload\n        /* \"contracts/demo1.sol\":1320:1344  tempBytes := mload(0x40) */\n      swap1\n      pop\n        /* \"contracts/demo1.sol\":1492:1501  _preBytes */\n      dup4\n        /* \"contracts/demo1.sol\":1486:1502  mload(_preBytes) */\n      mload\n        /* \"contracts/demo1.sol\":1534:1540  length */\n      dup1\n        /* \"contracts/demo1.sol\":1523:1532  tempBytes */\n      dup3\n        /* \"contracts/demo1.sol\":1516:1541  mstore(tempBytes, length) */\n      mstore\n        /* \"contracts/demo1.sol\":1769:1773  0x20 */\n      0x20\n        /* \"contracts/demo1.sol\":1758:1767  tempBytes */\n      dup3\n        /* \"contracts/demo1.sol\":1754:1774  add(tempBytes, 0x20) */\n      add\n        /* \"contracts/demo1.sol\":1913:1919  length */\n      dup2\n        /* \"contracts/demo1.sol\":1909:1911  mc */\n      dup2\n        /* \"contracts/demo1.sol\":1905:1920  add(mc, length) */\n      add\n        /* \"contracts/demo1.sol\":2104:2108  0x20 */\n      0x20\n        /* \"contracts/demo1.sol\":2093:2102  _preBytes */\n      dup8\n        /* \"contracts/demo1.sol\":2089:2109  add(_preBytes, 0x20) */\n      add\n        /* \"contracts/demo1.sol\":1936:2453  for {\r... */\n    tag_72:\n        /* \"contracts/demo1.sol\":2132:2135  end */\n      dup2\n        /* \"contracts/demo1.sol\":2128:2130  mc */\n      dup4\n        /* \"contracts/demo1.sol\":2125:2136  lt(mc, end) */\n      lt\n        /* \"contracts/demo1.sol\":1936:2453  for {\r... */\n      iszero\n      tag_74\n      jumpi\n        /* \"contracts/demo1.sol\":2434:2436  cc */\n      dup1\n        /* \"contracts/demo1.sol\":2428:2437  mload(cc) */\n      mload\n        /* \"contracts/demo1.sol\":2424:2426  mc */\n      dup4\n        /* \"contracts/demo1.sol\":2417:2438  mstore(mc, mload(cc)) */\n      mstore\n        /* \"contracts/demo1.sol\":2237:2241  0x20 */\n      0x20\n        /* \"contracts/demo1.sol\":2233:2235  mc */\n      dup4\n        /* \"contracts/demo1.sol\":2229:2242  add(mc, 0x20) */\n      add\n        /* \"contracts/demo1.sol\":2223:2242  mc := add(mc, 0x20) */\n      swap3\n      pop\n        /* \"contracts/demo1.sol\":2274:2278  0x20 */\n      0x20\n        /* \"contracts/demo1.sol\":2270:2272  cc */\n      dup2\n        /* \"contracts/demo1.sol\":2266:2279  add(cc, 0x20) */\n      add\n        /* \"contracts/demo1.sol\":2260:2279  cc := add(cc, 0x20) */\n      swap1\n      pop\n        /* \"contracts/demo1.sol\":1936:2453  for {\r... */\n      jump(tag_72)\n    tag_74:\n        /* \"contracts/demo1.sol\":1940:2124  {\r... */\n      pop\n        /* \"contracts/demo1.sol\":2663:2673  _postBytes */\n      dup6\n        /* \"contracts/demo1.sol\":2657:2674  mload(_postBytes) */\n      mload\n        /* \"contracts/demo1.sol\":2647:2674  length := mload(_postBytes) */\n      swap3\n      pop\n        /* \"contracts/demo1.sol\":2724:2733  tempBytes */\n      dup4\n        /* \"contracts/demo1.sol\":2718:2734  mload(tempBytes) */\n      mload\n        /* \"contracts/demo1.sol\":2710:2716  length */\n      dup4\n        /* \"contracts/demo1.sol\":2706:2735  add(length, mload(tempBytes)) */\n      add\n        /* \"contracts/demo1.sol\":2695:2704  tempBytes */\n      dup5\n        /* \"contracts/demo1.sol\":2688:2736  mstore(tempBytes, add(length, mload(tempBytes))) */\n      mstore\n        /* \"contracts/demo1.sol\":2876:2879  end */\n      dup1\n        /* \"contracts/demo1.sol\":2870:2879  mc := end */\n      swap2\n      pop\n        /* \"contracts/demo1.sol\":3016:3022  length */\n      dup3\n        /* \"contracts/demo1.sol\":3012:3014  mc */\n      dup3\n        /* \"contracts/demo1.sol\":3008:3023  add(mc, length) */\n      add\n        /* \"contracts/demo1.sol\":3001:3023  end := add(mc, length) */\n      swap1\n      pop\n        /* \"contracts/demo1.sol\":3088:3092  0x20 */\n      0x20\n        /* \"contracts/demo1.sol\":3076:3086  _postBytes */\n      dup7\n        /* \"contracts/demo1.sol\":3072:3093  add(_postBytes, 0x20) */\n      add\n        /* \"contracts/demo1.sol\":3039:3267  for {\r... */\n    tag_75:\n        /* \"contracts/demo1.sol\":3116:3119  end */\n      dup2\n        /* \"contracts/demo1.sol\":3112:3114  mc */\n      dup4\n        /* \"contracts/demo1.sol\":3109:3120  lt(mc, end) */\n      lt\n        /* \"contracts/demo1.sol\":3039:3267  for {\r... */\n      iszero\n      tag_77\n      jumpi\n        /* \"contracts/demo1.sol\":3248:3250  cc */\n      dup1\n        /* \"contracts/demo1.sol\":3242:3251  mload(cc) */\n      mload\n        /* \"contracts/demo1.sol\":3238:3240  mc */\n      dup4\n        /* \"contracts/demo1.sol\":3231:3252  mstore(mc, mload(cc)) */\n      mstore\n        /* \"contracts/demo1.sol\":3154:3158  0x20 */\n      0x20\n        /* \"contracts/demo1.sol\":3150:3152  mc */\n      dup4\n        /* \"contracts/demo1.sol\":3146:3159  add(mc, 0x20) */\n      add\n        /* \"contracts/demo1.sol\":3140:3159  mc := add(mc, 0x20) */\n      swap3\n      pop\n        /* \"contracts/demo1.sol\":3191:3195  0x20 */\n      0x20\n        /* \"contracts/demo1.sol\":3187:3189  cc */\n      dup2\n        /* \"contracts/demo1.sol\":3183:3196  add(cc, 0x20) */\n      add\n        /* \"contracts/demo1.sol\":3177:3196  cc := add(cc, 0x20) */\n      swap1\n      pop\n        /* \"contracts/demo1.sol\":3039:3267  for {\r... */\n      jump(tag_75)\n    tag_77:\n        /* \"contracts/demo1.sol\":3043:3108  {\r... */\n      pop\n        /* \"contracts/demo1.sol\":3785:3787  31 */\n      0x1f\n        /* \"contracts/demo1.sol\":3781:3788  not(31) */\n      not\n        /* \"contracts/demo1.sol\":3763:3765  31 */\n      0x1f\n        /* \"contracts/demo1.sol\":3748:3757  _preBytes */\n      dup9\n        /* \"contracts/demo1.sol\":3742:3758  mload(_preBytes) */\n      mload\n        /* \"contracts/demo1.sol\":3734:3740  length */\n      dup6\n        /* \"contracts/demo1.sol\":3730:3759  add(length, mload(_preBytes)) */\n      add\n        /* \"contracts/demo1.sol\":3723:3760  iszero(add(length, mload(_preBytes))) */\n      iszero\n        /* \"contracts/demo1.sol\":3718:3721  end */\n      dup4\n        /* \"contracts/demo1.sol\":3714:3761  add(end, iszero(add(length, mload(_preBytes)))) */\n      add\n        /* \"contracts/demo1.sol\":3710:3766  add(add(end, iszero(add(length, mload(_preBytes)))), 31) */\n      add\n        /* \"contracts/demo1.sol\":3692:3842  and(\r... */\n      and\n        /* \"contracts/demo1.sol\":3686:3690  0x40 */\n      0x40\n        /* \"contracts/demo1.sol\":3679:3843  mstore(0x40, and(\r... */\n      mstore\n        /* \"contracts/demo1.sol\":1181:3854  {\r... */\n      pop\n      pop\n      pop\n        /* \"contracts/demo1.sol\":3873:3882  tempBytes */\n      dup1\n        /* \"contracts/demo1.sol\":3866:3882  return tempBytes */\n      swap2\n      pop\n      pop\n        /* \"contracts/demo1.sol\":1019:3890  function concat(bytes memory _preBytes, bytes memory _postBytes) internal pure returns (bytes memory)\r... */\n      swap3\n      swap2\n      pop\n      pop\n      jump\t// out\n        /* \"contracts/demo1.sol\":654:1009  function toAddress(bytes memory _bytes, uint _start) internal  pure returns (address) {\r... */\n    tag_60:\n        /* \"contracts/demo1.sol\":731:738  address */\n      0x00\n        /* \"contracts/demo1.sol\":786:788  20 */\n      0x14\n        /* \"contracts/demo1.sol\":777:783  _start */\n      dup3\n        /* \"contracts/demo1.sol\":777:788  _start + 20 */\n      add\n        /* \"contracts/demo1.sol\":759:765  _bytes */\n      dup4\n        /* \"contracts/demo1.sol\":759:772  _bytes.length */\n      mload\n        /* \"contracts/demo1.sol\":759:789  _bytes.length >= (_start + 20) */\n      lt\n      iszero\n        /* \"contracts/demo1.sol\":751:807  require(_bytes.length >= (_start + 20), \"Wrong address\") */\n      tag_79\n      jumpi\n      mload(0x40)\n      0x08c379a000000000000000000000000000000000000000000000000000000000\n      dup2\n      mstore\n      0x04\n      add\n      dup1\n      dup1\n      0x20\n      add\n      dup3\n      dup2\n      sub\n      dup3\n      mstore\n      0x0d\n      dup2\n      mstore\n      0x20\n      add\n      dup1\n      0x57726f6e67206164647265737300000000000000000000000000000000000000\n      dup2\n      mstore\n      pop\n      0x20\n      add\n      swap2\n      pop\n      pop\n      mload(0x40)\n      dup1\n      swap2\n      sub\n      swap1\n      revert\n    tag_79:\n        /* \"contracts/demo1.sol\":818:837  address tempAddress */\n      0x00\n        /* \"contracts/demo1.sol\":932:959  0x1000000000000000000000000 */\n      0x01000000000000000000000000\n        /* \"contracts/demo1.sol\":922:928  _start */\n      dup4\n        /* \"contracts/demo1.sol\":915:919  0x20 */\n      0x20\n        /* \"contracts/demo1.sol\":907:913  _bytes */\n      dup7\n        /* \"contracts/demo1.sol\":903:920  add(_bytes, 0x20) */\n      add\n        /* \"contracts/demo1.sol\":899:929  add(add(_bytes, 0x20), _start) */\n      add\n        /* \"contracts/demo1.sol\":893:930  mload(add(add(_bytes, 0x20), _start)) */\n      mload\n        /* \"contracts/demo1.sol\":889:960  div(mload(add(add(_bytes, 0x20), _start)), 0x1000000000000000000000000) */\n      div\n        /* \"contracts/demo1.sol\":874:960  tempAddress := div(mload(add(add(_bytes, 0x20), _start)), 0x1000000000000000000000000) */\n      swap1\n      pop\n        /* \"contracts/demo1.sol\":990:1001  tempAddress */\n      dup1\n        /* \"contracts/demo1.sol\":983:1001  return tempAddress */\n      swap2\n      pop\n      pop\n        /* \"contracts/demo1.sol\":654:1009  function toAddress(bytes memory _bytes, uint _start) internal  pure returns (address) {\r... */\n      swap3\n      swap2\n      pop\n      pop\n      jump\t// out\n\n    auxdata: 0xa265627a7a7231582051f56553906e708768c82b9b32805c7d53f95ad769d2ab62b778f9cf723b12d964736f6c63430005100032\n}\n",
				"bytecode": {
					"linkReferences": {},
					"object": "60806040526040518060400160405280601181526020017f41425549534742495941534255414953420000000000000000000000000000008152506000908051906020019061004f9291906100ae565b506040518060400160405280600e81526020017f64666466646664667364666473660000000000000000000000000000000000008152506001908051906020019061009b9291906100ae565b503480156100a857600080fd5b50610153565b828054600181600116156101000203166002900490600052602060002090601f016020900481019282601f106100ef57805160ff191683800117855561011d565b8280016001018555821561011d579182015b8281111561011c578251825591602001919060010190610101565b5b50905061012a919061012e565b5090565b61015091905b8082111561014c576000816000905550600101610134565b5090565b90565b6108df806101626000396000f3fe608060405234801561001057600080fd5b50600436106100575760003560e01c806319c39bb71461005c578063237e312b146101a45780633aeee9381461036f57806394ca2cb5146103f2578063ea55583e146104f7575b600080fd5b6101296004803603606081101561007257600080fd5b810190808035906020019064010000000081111561008f57600080fd5b8201836020820111156100a157600080fd5b803590602001918460018302840111640100000000831117156100c357600080fd5b91908080601f016020809104026020016040519081016040528093929190818152602001838380828437600081840152601f19601f820116905080830192505050505050509192919290803590602001909291908035906020019092919050505061057a565b6040518080602001828103825283818151815260200191508051906020019080838360005b8381101561016957808201518184015260208101905061014e565b50505050905090810190601f1680156101965780820380516001836020036101000a031916815260200191505b509250505060405180910390f35b6102f4600480360360408110156101ba57600080fd5b81019080803590602001906401000000008111156101d757600080fd5b8201836020820111156101e957600080fd5b8035906020019184600183028401116401000000008311171561020b57600080fd5b91908080601f016020809104026020016040519081016040528093929190818152602001838380828437600081840152601f19601f8201169050808301925050505050505091929192908035906020019064010000000081111561026e57600080fd5b82018360208201111561028057600080fd5b803590602001918460018302840111640100000000831117156102a257600080fd5b91908080601f016020809104026020016040519081016040528093929190818152602001838380828437600081840152601f19601f820116905080830192505050505050509192919290505050610590565b6040518080602001828103825283818151815260200191508051906020019080838360005b83811015610334578082015181840152602081019050610319565b50505050905090810190601f1680156103615780820380516001836020036101000a031916815260200191505b509250505060405180910390f35b6103776105a4565b6040518080602001828103825283818151815260200191508051906020019080838360005b838110156103b757808201518184015260208101905061039c565b50505050905090810190601f1680156103e45780820380516001836020036101000a031916815260200191505b509250505060405180910390f35b6104b56004803603604081101561040857600080fd5b810190808035906020019064010000000081111561042557600080fd5b82018360208201111561043757600080fd5b8035906020019184600183028401116401000000008311171561045957600080fd5b91908080601f016020809104026020016040519081016040528093929190818152602001838380828437600081840152601f19601f82011690508083019250505050505050919291929080359060200190929190505050610642565b604051808273ffffffffffffffffffffffffffffffffffffffff1673ffffffffffffffffffffffffffffffffffffffff16815260200191505060405180910390f35b6104ff610656565b6040518080602001828103825283818151815260200191508051906020019080838360005b8381101561053f578082015181840152602081019050610524565b50505050905090810190601f16801561056c5780820380516001836020036101000a031916815260200191505b509250505060405180910390f35b60606105878484846106f4565b90509392505050565b606061059c8383610780565b905092915050565b60018054600181600116156101000203166002900480601f01602080910402602001604051908101604052809291908181526020018280546001816001161561010002031660029004801561063a5780601f1061060f5761010080835404028352916020019161063a565b820191906000526020600020905b81548152906001019060200180831161061d57829003601f168201915b505050505081565b600061064e838361080a565b905092915050565b60008054600181600116156101000203166002900480601f0160208091040260200160405190810160405280929190818152602001828054600181600116156101000203166002900480156106ec5780601f106106c1576101008083540402835291602001916106ec565b820191906000526020600020905b8154815290600101906020018083116106cf57829003601f168201915b505050505081565b60608183018451101561070657600080fd5b606082156000811461072357604051915060208201604052610774565b6040519150601f8416801560200281840101858101878315602002848b0101015b818310156107615780518352602083019250602081019050610744565b50868552601f19601f8301166040525050505b50809150509392505050565b6060806040519050835180825260208201818101602087015b818310156107b65780518352602083019250602081019050610799565b50855192508351830184528091508282019050602086015b818310156107eb57805183526020830192506020810190506107ce565b50601f19601f8851850115830101166040525050508091505092915050565b60006014820183511015610886576040517f08c379a000000000000000000000000000000000000000000000000000000000815260040180806020018281038252600d8152602001807f57726f6e6720616464726573730000000000000000000000000000000000000081525060200191505060405180910390fd5b60006c0100000000000000000000000083602086010151049050809150509291505056fea265627a7a7231582051f56553906e708768c82b9b32805c7d53f95ad769d2ab62b778f9cf723b12d964736f6c63430005100032",
					"opcodes": "PUSH1 0x80 PUSH1 0x40 MSTORE PUSH1 0x40 MLOAD DUP1 PUSH1 0x40 ADD PUSH1 0x40 MSTORE DUP1 PUSH1 0x11 DUP2 MSTORE PUSH1 0x20 ADD PUSH32 0x4142554953474249594153425541495342000000000000000000000000000000 DUP2 MSTORE POP PUSH1 0x0 SWAP1 DUP1 MLOAD SWAP1 PUSH1 0x20 ADD SWAP1 PUSH2 0x4F SWAP3 SWAP2 SWAP1 PUSH2 0xAE JUMP JUMPDEST POP PUSH1 0x40 MLOAD DUP1 PUSH1 0x40 ADD PUSH1 0x40 MSTORE DUP1 PUSH1 0xE DUP2 MSTORE PUSH1 0x20 ADD PUSH32 0x6466646664666466736466647366000000000000000000000000000000000000 DUP2 MSTORE POP PUSH1 0x1 SWAP1 DUP1 MLOAD SWAP1 PUSH1 0x20 ADD SWAP1 PUSH2 0x9B SWAP3 SWAP2 SWAP1 PUSH2 0xAE JUMP JUMPDEST POP CALLVALUE DUP1 ISZERO PUSH2 0xA8 JUMPI PUSH1 0x0 DUP1 REVERT JUMPDEST POP PUSH2 0x153 JUMP JUMPDEST DUP3 DUP1 SLOAD PUSH1 0x1 DUP2 PUSH1 0x1 AND ISZERO PUSH2 0x100 MUL SUB AND PUSH1 0x2 SWAP1 DIV SWAP1 PUSH1 0x0 MSTORE PUSH1 0x20 PUSH1 0x0 KECCAK256 SWAP1 PUSH1 0x1F ADD PUSH1 0x20 SWAP1 DIV DUP2 ADD SWAP3 DUP3 PUSH1 0x1F LT PUSH2 0xEF JUMPI DUP1 MLOAD PUSH1 0xFF NOT AND DUP4 DUP1 ADD OR DUP6 SSTORE PUSH2 0x11D JUMP JUMPDEST DUP3 DUP1 ADD PUSH1 0x1 ADD DUP6 SSTORE DUP3 ISZERO PUSH2 0x11D JUMPI SWAP2 DUP3 ADD JUMPDEST DUP3 DUP2 GT ISZERO PUSH2 0x11C JUMPI DUP3 MLOAD DUP3 SSTORE SWAP2 PUSH1 0x20 ADD SWAP2 SWAP1 PUSH1 0x1 ADD SWAP1 PUSH2 0x101 JUMP JUMPDEST JUMPDEST POP SWAP1 POP PUSH2 0x12A SWAP2 SWAP1 PUSH2 0x12E JUMP JUMPDEST POP SWAP1 JUMP JUMPDEST PUSH2 0x150 SWAP2 SWAP1 JUMPDEST DUP1 DUP3 GT ISZERO PUSH2 0x14C JUMPI PUSH1 0x0 DUP2 PUSH1 0x0 SWAP1 SSTORE POP PUSH1 0x1 ADD PUSH2 0x134 JUMP JUMPDEST POP SWAP1 JUMP JUMPDEST SWAP1 JUMP JUMPDEST PUSH2 0x8DF DUP1 PUSH2 0x162 PUSH1 0x0 CODECOPY PUSH1 0x0 RETURN INVALID PUSH1 0x80 PUSH1 0x40 MSTORE CALLVALUE DUP1 ISZERO PUSH2 0x10 JUMPI PUSH1 0x0 DUP1 REVERT JUMPDEST POP PUSH1 0x4 CALLDATASIZE LT PUSH2 0x57 JUMPI PUSH1 0x0 CALLDATALOAD PUSH1 0xE0 SHR DUP1 PUSH4 0x19C39BB7 EQ PUSH2 0x5C JUMPI DUP1 PUSH4 0x237E312B EQ PUSH2 0x1A4 JUMPI DUP1 PUSH4 0x3AEEE938 EQ PUSH2 0x36F JUMPI DUP1 PUSH4 0x94CA2CB5 EQ PUSH2 0x3F2 JUMPI DUP1 PUSH4 0xEA55583E EQ PUSH2 0x4F7 JUMPI JUMPDEST PUSH1 0x0 DUP1 REVERT JUMPDEST PUSH2 0x129 PUSH1 0x4 DUP1 CALLDATASIZE SUB PUSH1 0x60 DUP2 LT ISZERO PUSH2 0x72 JUMPI PUSH1 0x0 DUP1 REVERT JUMPDEST DUP2 ADD SWAP1 DUP1 DUP1 CALLDATALOAD SWAP1 PUSH1 0x20 ADD SWAP1 PUSH5 0x100000000 DUP2 GT ISZERO PUSH2 0x8F JUMPI PUSH1 0x0 DUP1 REVERT JUMPDEST DUP3 ADD DUP4 PUSH1 0x20 DUP3 ADD GT ISZERO PUSH2 0xA1 JUMPI PUSH1 0x0 DUP1 REVERT JUMPDEST DUP1 CALLDATALOAD SWAP1 PUSH1 0x20 ADD SWAP2 DUP5 PUSH1 0x1 DUP4 MUL DUP5 ADD GT PUSH5 0x100000000 DUP4 GT OR ISZERO PUSH2 0xC3 JUMPI PUSH1 0x0 DUP1 REVERT JUMPDEST SWAP2 SWAP1 DUP1 DUP1 PUSH1 0x1F ADD PUSH1 0x20 DUP1 SWAP2 DIV MUL PUSH1 0x20 ADD PUSH1 0x40 MLOAD SWAP1 DUP2 ADD PUSH1 0x40 MSTORE DUP1 SWAP4 SWAP3 SWAP2 SWAP1 DUP2 DUP2 MSTORE PUSH1 0x20 ADD DUP4 DUP4 DUP1 DUP3 DUP5 CALLDATACOPY PUSH1 0x0 DUP2 DUP5 ADD MSTORE PUSH1 0x1F NOT PUSH1 0x1F DUP3 ADD AND SWAP1 POP DUP1 DUP4 ADD SWAP3 POP POP POP POP POP POP POP SWAP2 SWAP3 SWAP2 SWAP3 SWAP1 DUP1 CALLDATALOAD SWAP1 PUSH1 0x20 ADD SWAP1 SWAP3 SWAP2 SWAP1 DUP1 CALLDATALOAD SWAP1 PUSH1 0x20 ADD SWAP1 SWAP3 SWAP2 SWAP1 POP POP POP PUSH2 0x57A JUMP JUMPDEST PUSH1 0x40 MLOAD DUP1 DUP1 PUSH1 0x20 ADD DUP3 DUP2 SUB DUP3 MSTORE DUP4 DUP2 DUP2 MLOAD DUP2 MSTORE PUSH1 0x20 ADD SWAP2 POP DUP1 MLOAD SWAP1 PUSH1 0x20 ADD SWAP1 DUP1 DUP4 DUP4 PUSH1 0x0 JUMPDEST DUP4 DUP2 LT ISZERO PUSH2 0x169 JUMPI DUP1 DUP3 ADD MLOAD DUP2 DUP5 ADD MSTORE PUSH1 0x20 DUP2 ADD SWAP1 POP PUSH2 0x14E JUMP JUMPDEST POP POP POP POP SWAP1 POP SWAP1 DUP2 ADD SWAP1 PUSH1 0x1F AND DUP1 ISZERO PUSH2 0x196 JUMPI DUP1 DUP3 SUB DUP1 MLOAD PUSH1 0x1 DUP4 PUSH1 0x20 SUB PUSH2 0x100 EXP SUB NOT AND DUP2 MSTORE PUSH1 0x20 ADD SWAP2 POP JUMPDEST POP SWAP3 POP POP POP PUSH1 0x40 MLOAD DUP1 SWAP2 SUB SWAP1 RETURN JUMPDEST PUSH2 0x2F4 PUSH1 0x4 DUP1 CALLDATASIZE SUB PUSH1 0x40 DUP2 LT ISZERO PUSH2 0x1BA JUMPI PUSH1 0x0 DUP1 REVERT JUMPDEST DUP2 ADD SWAP1 DUP1 DUP1 CALLDATALOAD SWAP1 PUSH1 0x20 ADD SWAP1 PUSH5 0x100000000 DUP2 GT ISZERO PUSH2 0x1D7 JUMPI PUSH1 0x0 DUP1 REVERT JUMPDEST DUP3 ADD DUP4 PUSH1 0x20 DUP3 ADD GT ISZERO PUSH2 0x1E9 JUMPI PUSH1 0x0 DUP1 REVERT JUMPDEST DUP1 CALLDATALOAD SWAP1 PUSH1 0x20 ADD SWAP2 DUP5 PUSH1 0x1 DUP4 MUL DUP5 ADD GT PUSH5 0x100000000 DUP4 GT OR ISZERO PUSH2 0x20B JUMPI PUSH1 0x0 DUP1 REVERT JUMPDEST SWAP2 SWAP1 DUP1 DUP1 PUSH1 0x1F ADD PUSH1 0x20 DUP1 SWAP2 DIV MUL PUSH1 0x20 ADD PUSH1 0x40 MLOAD SWAP1 DUP2 ADD PUSH1 0x40 MSTORE DUP1 SWAP4 SWAP3 SWAP2 SWAP1 DUP2 DUP2 MSTORE PUSH1 0x20 ADD DUP4 DUP4 DUP1 DUP3 DUP5 CALLDATACOPY PUSH1 0x0 DUP2 DUP5 ADD MSTORE PUSH1 0x1F NOT PUSH1 0x1F DUP3 ADD AND SWAP1 POP DUP1 DUP4 ADD SWAP3 POP POP POP POP POP POP POP SWAP2 SWAP3 SWAP2 SWAP3 SWAP1 DUP1 CALLDATALOAD SWAP1 PUSH1 0x20 ADD SWAP1 PUSH5 0x100000000 DUP2 GT ISZERO PUSH2 0x26E JUMPI PUSH1 0x0 DUP1 REVERT JUMPDEST DUP3 ADD DUP4 PUSH1 0x20 DUP3 ADD GT ISZERO PUSH2 0x280 JUMPI PUSH1 0x0 DUP1 REVERT JUMPDEST DUP1 CALLDATALOAD SWAP1 PUSH1 0x20 ADD SWAP2 DUP5 PUSH1 0x1 DUP4 MUL DUP5 ADD GT PUSH5 0x100000000 DUP4 GT OR ISZERO PUSH2 0x2A2 JUMPI PUSH1 0x0 DUP1 REVERT JUMPDEST SWAP2 SWAP1 DUP1 DUP1 PUSH1 0x1F ADD PUSH1 0x20 DUP1 SWAP2 DIV MUL PUSH1 0x20 ADD PUSH1 0x40 MLOAD SWAP1 DUP2 ADD PUSH1 0x40 MSTORE DUP1 SWAP4 SWAP3 SWAP2 SWAP1 DUP2 DUP2 MSTORE PUSH1 0x20 ADD DUP4 DUP4 DUP1 DUP3 DUP5 CALLDATACOPY PUSH1 0x0 DUP2 DUP5 ADD MSTORE PUSH1 0x1F NOT PUSH1 0x1F DUP3 ADD AND SWAP1 POP DUP1 DUP4 ADD SWAP3 POP POP POP POP POP POP POP SWAP2 SWAP3 SWAP2 SWAP3 SWAP1 POP POP POP PUSH2 0x590 JUMP JUMPDEST PUSH1 0x40 MLOAD DUP1 DUP1 PUSH1 0x20 ADD DUP3 DUP2 SUB DUP3 MSTORE DUP4 DUP2 DUP2 MLOAD DUP2 MSTORE PUSH1 0x20 ADD SWAP2 POP DUP1 MLOAD SWAP1 PUSH1 0x20 ADD SWAP1 DUP1 DUP4 DUP4 PUSH1 0x0 JUMPDEST DUP4 DUP2 LT ISZERO PUSH2 0x334 JUMPI DUP1 DUP3 ADD MLOAD DUP2 DUP5 ADD MSTORE PUSH1 0x20 DUP2 ADD SWAP1 POP PUSH2 0x319 JUMP JUMPDEST POP POP POP POP SWAP1 POP SWAP1 DUP2 ADD SWAP1 PUSH1 0x1F AND DUP1 ISZERO PUSH2 0x361 JUMPI DUP1 DUP3 SUB DUP1 MLOAD PUSH1 0x1 DUP4 PUSH1 0x20 SUB PUSH2 0x100 EXP SUB NOT AND DUP2 MSTORE PUSH1 0x20 ADD SWAP2 POP JUMPDEST POP SWAP3 POP POP POP PUSH1 0x40 MLOAD DUP1 SWAP2 SUB SWAP1 RETURN JUMPDEST PUSH2 0x377 PUSH2 0x5A4 JUMP JUMPDEST PUSH1 0x40 MLOAD DUP1 DUP1 PUSH1 0x20 ADD DUP3 DUP2 SUB DUP3 MSTORE DUP4 DUP2 DUP2 MLOAD DUP2 MSTORE PUSH1 0x20 ADD SWAP2 POP DUP1 MLOAD SWAP1 PUSH1 0x20 ADD SWAP1 DUP1 DUP4 DUP4 PUSH1 0x0 JUMPDEST DUP4 DUP2 LT ISZERO PUSH2 0x3B7 JUMPI DUP1 DUP3 ADD MLOAD DUP2 DUP5 ADD MSTORE PUSH1 0x20 DUP2 ADD SWAP1 POP PUSH2 0x39C JUMP JUMPDEST POP POP POP POP SWAP1 POP SWAP1 DUP2 ADD SWAP1 PUSH1 0x1F AND DUP1 ISZERO PUSH2 0x3E4 JUMPI DUP1 DUP3 SUB DUP1 MLOAD PUSH1 0x1 DUP4 PUSH1 0x20 SUB PUSH2 0x100 EXP SUB NOT AND DUP2 MSTORE PUSH1 0x20 ADD SWAP2 POP JUMPDEST POP SWAP3 POP POP POP PUSH1 0x40 MLOAD DUP1 SWAP2 SUB SWAP1 RETURN JUMPDEST PUSH2 0x4B5 PUSH1 0x4 DUP1 CALLDATASIZE SUB PUSH1 0x40 DUP2 LT ISZERO PUSH2 0x408 JUMPI PUSH1 0x0 DUP1 REVERT JUMPDEST DUP2 ADD SWAP1 DUP1 DUP1 CALLDATALOAD SWAP1 PUSH1 0x20 ADD SWAP1 PUSH5 0x100000000 DUP2 GT ISZERO PUSH2 0x425 JUMPI PUSH1 0x0 DUP1 REVERT JUMPDEST DUP3 ADD DUP4 PUSH1 0x20 DUP3 ADD GT ISZERO PUSH2 0x437 JUMPI PUSH1 0x0 DUP1 REVERT JUMPDEST DUP1 CALLDATALOAD SWAP1 PUSH1 0x20 ADD SWAP2 DUP5 PUSH1 0x1 DUP4 MUL DUP5 ADD GT PUSH5 0x100000000 DUP4 GT OR ISZERO PUSH2 0x459 JUMPI PUSH1 0x0 DUP1 REVERT JUMPDEST SWAP2 SWAP1 DUP1 DUP1 PUSH1 0x1F ADD PUSH1 0x20 DUP1 SWAP2 DIV MUL PUSH1 0x20 ADD PUSH1 0x40 MLOAD SWAP1 DUP2 ADD PUSH1 0x40 MSTORE DUP1 SWAP4 SWAP3 SWAP2 SWAP1 DUP2 DUP2 MSTORE PUSH1 0x20 ADD DUP4 DUP4 DUP1 DUP3 DUP5 CALLDATACOPY PUSH1 0x0 DUP2 DUP5 ADD MSTORE PUSH1 0x1F NOT PUSH1 0x1F DUP3 ADD AND SWAP1 POP DUP1 DUP4 ADD SWAP3 POP POP POP POP POP POP POP SWAP2 SWAP3 SWAP2 SWAP3 SWAP1 DUP1 CALLDATALOAD SWAP1 PUSH1 0x20 ADD SWAP1 SWAP3 SWAP2 SWAP1 POP POP POP PUSH2 0x642 JUMP JUMPDEST PUSH1 0x40 MLOAD DUP1 DUP3 PUSH20 0xFFFFFFFFFFFFFFFFFFFFFFFFFFFFFFFFFFFFFFFF AND PUSH20 0xFFFFFFFFFFFFFFFFFFFFFFFFFFFFFFFFFFFFFFFF AND DUP2 MSTORE PUSH1 0x20 ADD SWAP2 POP POP PUSH1 0x40 MLOAD DUP1 SWAP2 SUB SWAP1 RETURN JUMPDEST PUSH2 0x4FF PUSH2 0x656 JUMP JUMPDEST PUSH1 0x40 MLOAD DUP1 DUP1 PUSH1 0x20 ADD DUP3 DUP2 SUB DUP3 MSTORE DUP4 DUP2 DUP2 MLOAD DUP2 MSTORE PUSH1 0x20 ADD SWAP2 POP DUP1 MLOAD SWAP1 PUSH1 0x20 ADD SWAP1 DUP1 DUP4 DUP4 PUSH1 0x0 JUMPDEST DUP4 DUP2 LT ISZERO PUSH2 0x53F JUMPI DUP1 DUP3 ADD MLOAD DUP2 DUP5 ADD MSTORE PUSH1 0x20 DUP2 ADD SWAP1 POP PUSH2 0x524 JUMP JUMPDEST POP POP POP POP SWAP1 POP SWAP1 DUP2 ADD SWAP1 PUSH1 0x1F AND DUP1 ISZERO PUSH2 0x56C JUMPI DUP1 DUP3 SUB DUP1 MLOAD PUSH1 0x1 DUP4 PUSH1 0x20 SUB PUSH2 0x100 EXP SUB NOT AND DUP2 MSTORE PUSH1 0x20 ADD SWAP2 POP JUMPDEST POP SWAP3 POP POP POP PUSH1 0x40 MLOAD DUP1 SWAP2 SUB SWAP1 RETURN JUMPDEST PUSH1 0x60 PUSH2 0x587 DUP5 DUP5 DUP5 PUSH2 0x6F4 JUMP JUMPDEST SWAP1 POP SWAP4 SWAP3 POP POP POP JUMP JUMPDEST PUSH1 0x60 PUSH2 0x59C DUP4 DUP4 PUSH2 0x780 JUMP JUMPDEST SWAP1 POP SWAP3 SWAP2 POP POP JUMP JUMPDEST PUSH1 0x1 DUP1 SLOAD PUSH1 0x1 DUP2 PUSH1 0x1 AND ISZERO PUSH2 0x100 MUL SUB AND PUSH1 0x2 SWAP1 DIV DUP1 PUSH1 0x1F ADD PUSH1 0x20 DUP1 SWAP2 DIV MUL PUSH1 0x20 ADD PUSH1 0x40 MLOAD SWAP1 DUP2 ADD PUSH1 0x40 MSTORE DUP1 SWAP3 SWAP2 SWAP1 DUP2 DUP2 MSTORE PUSH1 0x20 ADD DUP3 DUP1 SLOAD PUSH1 0x1 DUP2 PUSH1 0x1 AND ISZERO PUSH2 0x100 MUL SUB AND PUSH1 0x2 SWAP1 DIV DUP1 ISZERO PUSH2 0x63A JUMPI DUP1 PUSH1 0x1F LT PUSH2 0x60F JUMPI PUSH2 0x100 DUP1 DUP4 SLOAD DIV MUL DUP4 MSTORE SWAP2 PUSH1 0x20 ADD SWAP2 PUSH2 0x63A JUMP JUMPDEST DUP3 ADD SWAP2 SWAP1 PUSH1 0x0 MSTORE PUSH1 0x20 PUSH1 0x0 KECCAK256 SWAP1 JUMPDEST DUP2 SLOAD DUP2 MSTORE SWAP1 PUSH1 0x1 ADD SWAP1 PUSH1 0x20 ADD DUP1 DUP4 GT PUSH2 0x61D JUMPI DUP3 SWAP1 SUB PUSH1 0x1F AND DUP3 ADD SWAP2 JUMPDEST POP POP POP POP POP DUP2 JUMP JUMPDEST PUSH1 0x0 PUSH2 0x64E DUP4 DUP4 PUSH2 0x80A JUMP JUMPDEST SWAP1 POP SWAP3 SWAP2 POP POP JUMP JUMPDEST PUSH1 0x0 DUP1 SLOAD PUSH1 0x1 DUP2 PUSH1 0x1 AND ISZERO PUSH2 0x100 MUL SUB AND PUSH1 0x2 SWAP1 DIV DUP1 PUSH1 0x1F ADD PUSH1 0x20 DUP1 SWAP2 DIV MUL PUSH1 0x20 ADD PUSH1 0x40 MLOAD SWAP1 DUP2 ADD PUSH1 0x40 MSTORE DUP1 SWAP3 SWAP2 SWAP1 DUP2 DUP2 MSTORE PUSH1 0x20 ADD DUP3 DUP1 SLOAD PUSH1 0x1 DUP2 PUSH1 0x1 AND ISZERO PUSH2 0x100 MUL SUB AND PUSH1 0x2 SWAP1 DIV DUP1 ISZERO PUSH2 0x6EC JUMPI DUP1 PUSH1 0x1F LT PUSH2 0x6C1 JUMPI PUSH2 0x100 DUP1 DUP4 SLOAD DIV MUL DUP4 MSTORE SWAP2 PUSH1 0x20 ADD SWAP2 PUSH2 0x6EC JUMP JUMPDEST DUP3 ADD SWAP2 SWAP1 PUSH1 0x0 MSTORE PUSH1 0x20 PUSH1 0x0 KECCAK256 SWAP1 JUMPDEST DUP2 SLOAD DUP2 MSTORE SWAP1 PUSH1 0x1 ADD SWAP1 PUSH1 0x20 ADD DUP1 DUP4 GT PUSH2 0x6CF JUMPI DUP3 SWAP1 SUB PUSH1 0x1F AND DUP3 ADD SWAP2 JUMPDEST POP POP POP POP POP DUP2 JUMP JUMPDEST PUSH1 0x60 DUP2 DUP4 ADD DUP5 MLOAD LT ISZERO PUSH2 0x706 JUMPI PUSH1 0x0 DUP1 REVERT JUMPDEST PUSH1 0x60 DUP3 ISZERO PUSH1 0x0 DUP2 EQ PUSH2 0x723 JUMPI PUSH1 0x40 MLOAD SWAP2 POP PUSH1 0x20 DUP3 ADD PUSH1 0x40 MSTORE PUSH2 0x774 JUMP JUMPDEST PUSH1 0x40 MLOAD SWAP2 POP PUSH1 0x1F DUP5 AND DUP1 ISZERO PUSH1 0x20 MUL DUP2 DUP5 ADD ADD DUP6 DUP2 ADD DUP8 DUP4 ISZERO PUSH1 0x20 MUL DUP5 DUP12 ADD ADD ADD JUMPDEST DUP2 DUP4 LT ISZERO PUSH2 0x761 JUMPI DUP1 MLOAD DUP4 MSTORE PUSH1 0x20 DUP4 ADD SWAP3 POP PUSH1 0x20 DUP2 ADD SWAP1 POP PUSH2 0x744 JUMP JUMPDEST POP DUP7 DUP6 MSTORE PUSH1 0x1F NOT PUSH1 0x1F DUP4 ADD AND PUSH1 0x40 MSTORE POP POP POP JUMPDEST POP DUP1 SWAP2 POP POP SWAP4 SWAP3 POP POP POP JUMP JUMPDEST PUSH1 0x60 DUP1 PUSH1 0x40 MLOAD SWAP1 POP DUP4 MLOAD DUP1 DUP3 MSTORE PUSH1 0x20 DUP3 ADD DUP2 DUP2 ADD PUSH1 0x20 DUP8 ADD JUMPDEST DUP2 DUP4 LT ISZERO PUSH2 0x7B6 JUMPI DUP1 MLOAD DUP4 MSTORE PUSH1 0x20 DUP4 ADD SWAP3 POP PUSH1 0x20 DUP2 ADD SWAP1 POP PUSH2 0x799 JUMP JUMPDEST POP DUP6 MLOAD SWAP3 POP DUP4 MLOAD DUP4 ADD DUP5 MSTORE DUP1 SWAP2 POP DUP3 DUP3 ADD SWAP1 POP PUSH1 0x20 DUP7 ADD JUMPDEST DUP2 DUP4 LT ISZERO PUSH2 0x7EB JUMPI DUP1 MLOAD DUP4 MSTORE PUSH1 0x20 DUP4 ADD SWAP3 POP PUSH1 0x20 DUP2 ADD SWAP1 POP PUSH2 0x7CE JUMP JUMPDEST POP PUSH1 0x1F NOT PUSH1 0x1F DUP9 MLOAD DUP6 ADD ISZERO DUP4 ADD ADD AND PUSH1 0x40 MSTORE POP POP POP DUP1 SWAP2 POP POP SWAP3 SWAP2 POP POP JUMP JUMPDEST PUSH1 0x0 PUSH1 0x14 DUP3 ADD DUP4 MLOAD LT ISZERO PUSH2 0x886 JUMPI PUSH1 0x40 MLOAD PUSH32 0x8C379A000000000000000000000000000000000000000000000000000000000 DUP2 MSTORE PUSH1 0x4 ADD DUP1 DUP1 PUSH1 0x20 ADD DUP3 DUP2 SUB DUP3 MSTORE PUSH1 0xD DUP2 MSTORE PUSH1 0x20 ADD DUP1 PUSH32 0x57726F6E67206164647265737300000000000000000000000000000000000000 DUP2 MSTORE POP PUSH1 0x20 ADD SWAP2 POP POP PUSH1 0x40 MLOAD DUP1 SWAP2 SUB SWAP1 REVERT JUMPDEST PUSH1 0x0 PUSH13 0x1000000000000000000000000 DUP4 PUSH1 0x20 DUP7 ADD ADD MLOAD DIV SWAP1 POP DUP1 SWAP2 POP POP SWAP3 SWAP2 POP POP JUMP INVALID LOG2 PUSH6 0x627A7A723158 KECCAK256 MLOAD CREATE2 PUSH6 0x53906E708768 0xC8 0x2B SWAP12 ORIGIN DUP1 0x5C PUSH30 0x53F95AD769D2AB62B778F9CF723B12D964736F6C63430005100032000000 "
				},
				"gasEstimates": {
					"creation": {
						"codeDepositCost": "454200",
						"executionCost": "infinite",
						"totalCost": "infinite"
					},
					"external": {
						"bytesDemo1()": "infinite",
						"bytesDemo2()": "infinite",
						"getAddress(bytes,uint256)": "infinite",
						"getBytes(bytes,bytes)": "infinite",
						"getSlide(bytes,uint256,uint256)": "infinite"
					},
					"internal": {
						"concat(bytes memory,bytes memory)": "infinite",
						"slice(bytes memory,uint256,uint256)": "infinite",
						"toAddress(bytes memory,uint256)": "infinite"
					}
				},
				"methodIdentifiers": {
					"bytesDemo1()": "ea55583e",
					"bytesDemo2()": "3aeee938",
					"getAddress(bytes,uint256)": "94ca2cb5",
					"getBytes(bytes,bytes)": "237e312b",
					"getSlide(bytes,uint256,uint256)": "19c39bb7"
				}
			},
			"userdoc": {
				"methods": {}
			}
		}
	}
}