{
	"contracts/demo2.sol": {
		"demo2": {
			"abi": [
				{
					"inputs": [],
					"name": "data1",
					"outputs": [
						{
							"internalType": "bytes",
							"name": "",
							"type": "bytes"
						}
					],
					"stateMutability": "view",
					"type": "function"
				},
				{
					"inputs": [],
					"name": "data2",
					"outputs": [
						{
							"internalType": "bytes",
							"name": "",
							"type": "bytes"
						}
					],
					"stateMutability": "view",
					"type": "function"
				},
				{
					"inputs": [
						{
							"internalType": "bytes",
							"name": "_preBytes",
							"type": "bytes"
						},
						{
							"internalType": "bytes",
							"name": "_postBytes",
							"type": "bytes"
						}
					],
					"name": "getData",
					"outputs": [
						{
							"internalType": "bytes",
							"name": "",
							"type": "bytes"
						}
					],
					"stateMutability": "view",
					"type": "function"
				}
			],
			"devdoc": {
				"kind": "dev",
				"methods": {},
				"version": 1
			},
			"evm": {
				"assembly": "    /* \"contracts/demo2.sol\":60:3256  contract demo2 {\r... */\n  mstore(0x40, 0x80)\n    /* \"contracts/demo2.sol\":81:112  bytes public data1 = \"LEHONGVO\" */\n  mload(0x40)\n  dup1\n  0x40\n  add\n  0x40\n  mstore\n  dup1\n  0x08\n  dup2\n  mstore\n  0x20\n  add\n  0x4c45484f4e47564f000000000000000000000000000000000000000000000000\n  dup2\n  mstore\n  pop\n  0x00\n  swap1\n  dup1\n  mload\n  swap1\n  0x20\n  add\n  swap1\n  tag_1\n  swap3\n  swap2\n  swap1\n  tag_2\n  jump\t// in\ntag_1:\n  pop\n    /* \"contracts/demo2.sol\":118:170  bytes public data2 = \"LEHONGVOwjnfvj3weh8vhsadfjoif\" */\n  mload(0x40)\n  dup1\n  0x40\n  add\n  0x40\n  mstore\n  dup1\n  0x1d\n  dup2\n  mstore\n  0x20\n  add\n  0x4c45484f4e47564f776a6e66766a33776568387668736164666a6f6966000000\n  dup2\n  mstore\n  pop\n  0x01\n  swap1\n  dup1\n  mload\n  swap1\n  0x20\n  add\n  swap1\n  tag_3\n  swap3\n  swap2\n  swap1\n  tag_2\n  jump\t// in\ntag_3:\n  pop\n    /* \"contracts/demo2.sol\":60:3256  contract demo2 {\r... */\n  callvalue\n  dup1\n  iszero\n  tag_4\n  jumpi\n  0x00\n  dup1\n  revert\ntag_4:\n  pop\n  jump(tag_5)\ntag_2:\n  dup3\n  dup1\n  sload\n  tag_6\n  swap1\n  tag_7\n  jump\t// in\ntag_6:\n  swap1\n  0x00\n  mstore\n  keccak256(0x00, 0x20)\n  swap1\n  0x1f\n  add\n  0x20\n  swap1\n  div\n  dup2\n  add\n  swap3\n  dup3\n  tag_9\n  jumpi\n  0x00\n  dup6\n  sstore\n  jump(tag_8)\ntag_9:\n  dup3\n  0x1f\n  lt\n  tag_10\n  jumpi\n  dup1\n  mload\n  not(0xff)\n  and\n  dup4\n  dup1\n  add\n  or\n  dup6\n  sstore\n  jump(tag_8)\ntag_10:\n  dup3\n  dup1\n  add\n  0x01\n  add\n  dup6\n  sstore\n  dup3\n  iszero\n  tag_8\n  jumpi\n  swap2\n  dup3\n  add\ntag_11:\n  dup3\n  dup2\n  gt\n  iszero\n  tag_12\n  jumpi\n  dup3\n  mload\n  dup3\n  sstore\n  swap2\n  0x20\n  add\n  swap2\n  swap1\n  0x01\n  add\n  swap1\n  jump(tag_11)\ntag_12:\ntag_8:\n  pop\n  swap1\n  pop\n  tag_13\n  swap2\n  swap1\n  tag_14\n  jump\t// in\ntag_13:\n  pop\n  swap1\n  jump\t// out\ntag_14:\ntag_15:\n  dup1\n  dup3\n  gt\n  iszero\n  tag_16\n  jumpi\n  0x00\n  dup2\n  0x00\n  swap1\n  sstore\n  pop\n  0x01\n  add\n  jump(tag_15)\ntag_16:\n  pop\n  swap1\n  jump\t// out\n    /* \"#utility.yul\":7:327   */\ntag_7:\n    /* \"#utility.yul\":51:57   */\n  0x00\n    /* \"#utility.yul\":88:89   */\n  0x02\n    /* \"#utility.yul\":82:86   */\n  dup3\n    /* \"#utility.yul\":78:90   */\n  div\n    /* \"#utility.yul\":68:90   */\n  swap1\n  pop\n    /* \"#utility.yul\":135:136   */\n  0x01\n    /* \"#utility.yul\":129:133   */\n  dup3\n    /* \"#utility.yul\":125:137   */\n  and\n    /* \"#utility.yul\":156:174   */\n  dup1\n    /* \"#utility.yul\":146:227   */\n  tag_19\n  jumpi\n    /* \"#utility.yul\":212:216   */\n  0x7f\n    /* \"#utility.yul\":204:210   */\n  dup3\n    /* \"#utility.yul\":200:217   */\n  and\n    /* \"#utility.yul\":190:217   */\n  swap2\n  pop\n    /* \"#utility.yul\":146:227   */\ntag_19:\n    /* \"#utility.yul\":274:276   */\n  0x20\n    /* \"#utility.yul\":266:272   */\n  dup3\n    /* \"#utility.yul\":263:277   */\n  lt\n    /* \"#utility.yul\":243:261   */\n  dup2\n    /* \"#utility.yul\":240:278   */\n  eq\n    /* \"#utility.yul\":237:321   */\n  iszero\n  tag_20\n  jumpi\n    /* \"#utility.yul\":293:311   */\n  tag_21\n  tag_22\n  jump\t// in\ntag_21:\n    /* \"#utility.yul\":237:321   */\ntag_20:\n    /* \"#utility.yul\":58:327   */\n  pop\n    /* \"#utility.yul\":7:327   */\n  swap2\n  swap1\n  pop\n  jump\t// out\n    /* \"#utility.yul\":333:513   */\ntag_22:\n    /* \"#utility.yul\":381:458   */\n  0x4e487b7100000000000000000000000000000000000000000000000000000000\n    /* \"#utility.yul\":378:379   */\n  0x00\n    /* \"#utility.yul\":371:459   */\n  mstore\n    /* \"#utility.yul\":478:482   */\n  0x22\n    /* \"#utility.yul\":475:476   */\n  0x04\n    /* \"#utility.yul\":468:483   */\n  mstore\n    /* \"#utility.yul\":502:506   */\n  0x24\n    /* \"#utility.yul\":499:500   */\n  0x00\n    /* \"#utility.yul\":492:507   */\n  revert\n    /* \"contracts/demo2.sol\":60:3256  contract demo2 {\r... */\ntag_5:\n  dataSize(sub_0)\n  dup1\n  dataOffset(sub_0)\n  0x00\n  codecopy\n  0x00\n  return\nstop\n\nsub_0: assembly {\n        /* \"contracts/demo2.sol\":60:3256  contract demo2 {\r... */\n      mstore(0x40, 0x80)\n      callvalue\n      dup1\n      iszero\n      tag_1\n      jumpi\n      0x00\n      dup1\n      revert\n    tag_1:\n      pop\n      jumpi(tag_2, lt(calldatasize, 0x04))\n      shr(0xe0, calldataload(0x00))\n      dup1\n      0x9ffd85c4\n      eq\n      tag_3\n      jumpi\n      dup1\n      0xba654d05\n      eq\n      tag_4\n      jumpi\n      dup1\n      0xe3a7fd75\n      eq\n      tag_5\n      jumpi\n    tag_2:\n      0x00\n      dup1\n      revert\n        /* \"contracts/demo2.sol\":81:112  bytes public data1 = \"LEHONGVO\" */\n    tag_3:\n      tag_6\n      tag_7\n      jump\t// in\n    tag_6:\n      mload(0x40)\n      tag_8\n      swap2\n      swap1\n      tag_9\n      jump\t// in\n    tag_8:\n      mload(0x40)\n      dup1\n      swap2\n      sub\n      swap1\n      return\n        /* \"contracts/demo2.sol\":181:334  function getData(bytes memory _preBytes, bytes memory _postBytes) public view returns(bytes memory) {\r... */\n    tag_4:\n      tag_10\n      0x04\n      dup1\n      calldatasize\n      sub\n      dup2\n      add\n      swap1\n      tag_11\n      swap2\n      swap1\n      tag_12\n      jump\t// in\n    tag_11:\n      tag_13\n      jump\t// in\n    tag_10:\n      mload(0x40)\n      tag_14\n      swap2\n      swap1\n      tag_9\n      jump\t// in\n    tag_14:\n      mload(0x40)\n      dup1\n      swap2\n      sub\n      swap1\n      return\n        /* \"contracts/demo2.sol\":118:170  bytes public data2 = \"LEHONGVOwjnfvj3weh8vhsadfjoif\" */\n    tag_5:\n      tag_15\n      tag_16\n      jump\t// in\n    tag_15:\n      mload(0x40)\n      tag_17\n      swap2\n      swap1\n      tag_9\n      jump\t// in\n    tag_17:\n      mload(0x40)\n      dup1\n      swap2\n      sub\n      swap1\n      return\n        /* \"contracts/demo2.sol\":81:112  bytes public data1 = \"LEHONGVO\" */\n    tag_7:\n      0x00\n      dup1\n      sload\n      tag_18\n      swap1\n      tag_19\n      jump\t// in\n    tag_18:\n      dup1\n      0x1f\n      add\n      0x20\n      dup1\n      swap2\n      div\n      mul\n      0x20\n      add\n      mload(0x40)\n      swap1\n      dup2\n      add\n      0x40\n      mstore\n      dup1\n      swap3\n      swap2\n      swap1\n      dup2\n      dup2\n      mstore\n      0x20\n      add\n      dup3\n      dup1\n      sload\n      tag_20\n      swap1\n      tag_19\n      jump\t// in\n    tag_20:\n      dup1\n      iszero\n      tag_21\n      jumpi\n      dup1\n      0x1f\n      lt\n      tag_22\n      jumpi\n      0x0100\n      dup1\n      dup4\n      sload\n      div\n      mul\n      dup4\n      mstore\n      swap2\n      0x20\n      add\n      swap2\n      jump(tag_21)\n    tag_22:\n      dup3\n      add\n      swap2\n      swap1\n      0x00\n      mstore\n      keccak256(0x00, 0x20)\n      swap1\n    tag_23:\n      dup2\n      sload\n      dup2\n      mstore\n      swap1\n      0x01\n      add\n      swap1\n      0x20\n      add\n      dup1\n      dup4\n      gt\n      tag_23\n      jumpi\n      dup3\n      swap1\n      sub\n      0x1f\n      and\n      dup3\n      add\n      swap2\n    tag_21:\n      pop\n      pop\n      pop\n      pop\n      pop\n      dup2\n      jump\t// out\n        /* \"contracts/demo2.sol\":181:334  function getData(bytes memory _preBytes, bytes memory _postBytes) public view returns(bytes memory) {\r... */\n    tag_13:\n        /* \"contracts/demo2.sol\":267:279  bytes memory */\n      0x60\n        /* \"contracts/demo2.sol\":298:327  concat(_preBytes, _postBytes) */\n      tag_25\n        /* \"contracts/demo2.sol\":305:314  _preBytes */\n      dup4\n        /* \"contracts/demo2.sol\":316:326  _postBytes */\n      dup4\n        /* \"contracts/demo2.sol\":298:304  concat */\n      tag_26\n        /* \"contracts/demo2.sol\":298:327  concat(_preBytes, _postBytes) */\n      jump\t// in\n    tag_25:\n        /* \"contracts/demo2.sol\":291:327  return concat(_preBytes, _postBytes) */\n      swap1\n      pop\n        /* \"contracts/demo2.sol\":181:334  function getData(bytes memory _preBytes, bytes memory _postBytes) public view returns(bytes memory) {\r... */\n      swap3\n      swap2\n      pop\n      pop\n      jump\t// out\n        /* \"contracts/demo2.sol\":118:170  bytes public data2 = \"LEHONGVOwjnfvj3weh8vhsadfjoif\" */\n    tag_16:\n      0x01\n      dup1\n      sload\n      tag_27\n      swap1\n      tag_19\n      jump\t// in\n    tag_27:\n      dup1\n      0x1f\n      add\n      0x20\n      dup1\n      swap2\n      div\n      mul\n      0x20\n      add\n      mload(0x40)\n      swap1\n      dup2\n      add\n      0x40\n      mstore\n      dup1\n      swap3\n      swap2\n      swap1\n      dup2\n      dup2\n      mstore\n      0x20\n      add\n      dup3\n      dup1\n      sload\n      tag_28\n      swap1\n      tag_19\n      jump\t// in\n    tag_28:\n      dup1\n      iszero\n      tag_29\n      jumpi\n      dup1\n      0x1f\n      lt\n      tag_30\n      jumpi\n      0x0100\n      dup1\n      dup4\n      sload\n      div\n      mul\n      dup4\n      mstore\n      swap2\n      0x20\n      add\n      swap2\n      jump(tag_29)\n    tag_30:\n      dup3\n      add\n      swap2\n      swap1\n      0x00\n      mstore\n      keccak256(0x00, 0x20)\n      swap1\n    tag_31:\n      dup2\n      sload\n      dup2\n      mstore\n      swap1\n      0x01\n      add\n      swap1\n      0x20\n      add\n      dup1\n      dup4\n      gt\n      tag_31\n      jumpi\n      dup3\n      swap1\n      sub\n      0x1f\n      and\n      dup3\n      add\n      swap2\n    tag_29:\n      pop\n      pop\n      pop\n      pop\n      pop\n      dup2\n      jump\t// out\n        /* \"contracts/demo2.sol\":342:3253  function concat(\r... */\n    tag_26:\n        /* \"contracts/demo2.sol\":470:482  bytes memory */\n      0x60\n        /* \"contracts/demo2.sol\":500:522  bytes memory tempBytes */\n      dup1\n        /* \"contracts/demo2.sol\":702:706  0x40 */\n      0x40\n        /* \"contracts/demo2.sol\":696:707  mload(0x40) */\n      mload\n        /* \"contracts/demo2.sol\":683:707  tempBytes := mload(0x40) */\n      swap1\n      pop\n        /* \"contracts/demo2.sol\":855:864  _preBytes */\n      dup4\n        /* \"contracts/demo2.sol\":849:865  mload(_preBytes) */\n      mload\n        /* \"contracts/demo2.sol\":897:903  length */\n      dup1\n        /* \"contracts/demo2.sol\":886:895  tempBytes */\n      dup3\n        /* \"contracts/demo2.sol\":879:904  mstore(tempBytes, length) */\n      mstore\n        /* \"contracts/demo2.sol\":1132:1136  0x20 */\n      0x20\n        /* \"contracts/demo2.sol\":1121:1130  tempBytes */\n      dup3\n        /* \"contracts/demo2.sol\":1117:1137  add(tempBytes, 0x20) */\n      add\n        /* \"contracts/demo2.sol\":1276:1282  length */\n      dup2\n        /* \"contracts/demo2.sol\":1272:1274  mc */\n      dup2\n        /* \"contracts/demo2.sol\":1268:1283  add(mc, length) */\n      add\n        /* \"contracts/demo2.sol\":1467:1471  0x20 */\n      0x20\n        /* \"contracts/demo2.sol\":1456:1465  _preBytes */\n      dup8\n        /* \"contracts/demo2.sol\":1452:1472  add(_preBytes, 0x20) */\n      add\n        /* \"contracts/demo2.sol\":1299:1816  for {\r... */\n    tag_33:\n        /* \"contracts/demo2.sol\":1495:1498  end */\n      dup2\n        /* \"contracts/demo2.sol\":1491:1493  mc */\n      dup4\n        /* \"contracts/demo2.sol\":1488:1499  lt(mc, end) */\n      lt\n        /* \"contracts/demo2.sol\":1299:1816  for {\r... */\n      iszero\n      tag_35\n      jumpi\n        /* \"contracts/demo2.sol\":1797:1799  cc */\n      dup1\n        /* \"contracts/demo2.sol\":1791:1800  mload(cc) */\n      mload\n        /* \"contracts/demo2.sol\":1787:1789  mc */\n      dup4\n        /* \"contracts/demo2.sol\":1780:1801  mstore(mc, mload(cc)) */\n      mstore\n        /* \"contracts/demo2.sol\":1600:1604  0x20 */\n      0x20\n        /* \"contracts/demo2.sol\":1596:1598  mc */\n      dup4\n        /* \"contracts/demo2.sol\":1592:1605  add(mc, 0x20) */\n      add\n        /* \"contracts/demo2.sol\":1586:1605  mc := add(mc, 0x20) */\n      swap3\n      pop\n        /* \"contracts/demo2.sol\":1637:1641  0x20 */\n      0x20\n        /* \"contracts/demo2.sol\":1633:1635  cc */\n      dup2\n        /* \"contracts/demo2.sol\":1629:1642  add(cc, 0x20) */\n      add\n        /* \"contracts/demo2.sol\":1623:1642  cc := add(cc, 0x20) */\n      swap1\n      pop\n        /* \"contracts/demo2.sol\":1299:1816  for {\r... */\n      jump(tag_33)\n    tag_35:\n        /* \"contracts/demo2.sol\":1303:1487  {\r... */\n      pop\n        /* \"contracts/demo2.sol\":2026:2036  _postBytes */\n      dup6\n        /* \"contracts/demo2.sol\":2020:2037  mload(_postBytes) */\n      mload\n        /* \"contracts/demo2.sol\":2010:2037  length := mload(_postBytes) */\n      swap3\n      pop\n        /* \"contracts/demo2.sol\":2087:2096  tempBytes */\n      dup4\n        /* \"contracts/demo2.sol\":2081:2097  mload(tempBytes) */\n      mload\n        /* \"contracts/demo2.sol\":2073:2079  length */\n      dup4\n        /* \"contracts/demo2.sol\":2069:2098  add(length, mload(tempBytes)) */\n      add\n        /* \"contracts/demo2.sol\":2058:2067  tempBytes */\n      dup5\n        /* \"contracts/demo2.sol\":2051:2099  mstore(tempBytes, add(length, mload(tempBytes))) */\n      mstore\n        /* \"contracts/demo2.sol\":2239:2242  end */\n      dup1\n        /* \"contracts/demo2.sol\":2233:2242  mc := end */\n      swap2\n      pop\n        /* \"contracts/demo2.sol\":2379:2385  length */\n      dup3\n        /* \"contracts/demo2.sol\":2375:2377  mc */\n      dup3\n        /* \"contracts/demo2.sol\":2371:2386  add(mc, length) */\n      add\n        /* \"contracts/demo2.sol\":2364:2386  end := add(mc, length) */\n      swap1\n      pop\n        /* \"contracts/demo2.sol\":2451:2455  0x20 */\n      0x20\n        /* \"contracts/demo2.sol\":2439:2449  _postBytes */\n      dup7\n        /* \"contracts/demo2.sol\":2435:2456  add(_postBytes, 0x20) */\n      add\n        /* \"contracts/demo2.sol\":2402:2630  for {\r... */\n    tag_36:\n        /* \"contracts/demo2.sol\":2479:2482  end */\n      dup2\n        /* \"contracts/demo2.sol\":2475:2477  mc */\n      dup4\n        /* \"contracts/demo2.sol\":2472:2483  lt(mc, end) */\n      lt\n        /* \"contracts/demo2.sol\":2402:2630  for {\r... */\n      iszero\n      tag_38\n      jumpi\n        /* \"contracts/demo2.sol\":2611:2613  cc */\n      dup1\n        /* \"contracts/demo2.sol\":2605:2614  mload(cc) */\n      mload\n        /* \"contracts/demo2.sol\":2601:2603  mc */\n      dup4\n        /* \"contracts/demo2.sol\":2594:2615  mstore(mc, mload(cc)) */\n      mstore\n        /* \"contracts/demo2.sol\":2517:2521  0x20 */\n      0x20\n        /* \"contracts/demo2.sol\":2513:2515  mc */\n      dup4\n        /* \"contracts/demo2.sol\":2509:2522  add(mc, 0x20) */\n      add\n        /* \"contracts/demo2.sol\":2503:2522  mc := add(mc, 0x20) */\n      swap3\n      pop\n        /* \"contracts/demo2.sol\":2554:2558  0x20 */\n      0x20\n        /* \"contracts/demo2.sol\":2550:2552  cc */\n      dup2\n        /* \"contracts/demo2.sol\":2546:2559  add(cc, 0x20) */\n      add\n        /* \"contracts/demo2.sol\":2540:2559  cc := add(cc, 0x20) */\n      swap1\n      pop\n        /* \"contracts/demo2.sol\":2402:2630  for {\r... */\n      jump(tag_36)\n    tag_38:\n        /* \"contracts/demo2.sol\":2406:2471  {\r... */\n      pop\n        /* \"contracts/demo2.sol\":3148:3150  31 */\n      0x1f\n        /* \"contracts/demo2.sol\":3144:3151  not(31) */\n      not\n        /* \"contracts/demo2.sol\":3126:3128  31 */\n      0x1f\n        /* \"contracts/demo2.sol\":3111:3120  _preBytes */\n      dup9\n        /* \"contracts/demo2.sol\":3105:3121  mload(_preBytes) */\n      mload\n        /* \"contracts/demo2.sol\":3097:3103  length */\n      dup6\n        /* \"contracts/demo2.sol\":3093:3122  add(length, mload(_preBytes)) */\n      add\n        /* \"contracts/demo2.sol\":3086:3123  iszero(add(length, mload(_preBytes))) */\n      iszero\n        /* \"contracts/demo2.sol\":3081:3084  end */\n      dup4\n        /* \"contracts/demo2.sol\":3077:3124  add(end, iszero(add(length, mload(_preBytes)))) */\n      add\n        /* \"contracts/demo2.sol\":3073:3129  add(add(end, iszero(add(length, mload(_preBytes)))), 31) */\n      add\n        /* \"contracts/demo2.sol\":3055:3205  and(\r... */\n      and\n        /* \"contracts/demo2.sol\":3049:3053  0x40 */\n      0x40\n        /* \"contracts/demo2.sol\":3042:3206  mstore(0x40, and(\r... */\n      mstore\n        /* \"contracts/demo2.sol\":544:3217  {\r... */\n      pop\n      pop\n      pop\n        /* \"contracts/demo2.sol\":3236:3245  tempBytes */\n      dup1\n        /* \"contracts/demo2.sol\":3229:3245  return tempBytes */\n      swap2\n      pop\n      pop\n        /* \"contracts/demo2.sol\":342:3253  function concat(\r... */\n      swap3\n      swap2\n      pop\n      pop\n      jump\t// out\n        /* \"#utility.yul\":7:417   */\n    tag_40:\n        /* \"#utility.yul\":84:89   */\n      0x00\n        /* \"#utility.yul\":109:174   */\n      tag_42\n        /* \"#utility.yul\":125:173   */\n      tag_43\n        /* \"#utility.yul\":166:172   */\n      dup5\n        /* \"#utility.yul\":125:173   */\n      tag_44\n      jump\t// in\n    tag_43:\n        /* \"#utility.yul\":109:174   */\n      tag_45\n      jump\t// in\n    tag_42:\n        /* \"#utility.yul\":100:174   */\n      swap1\n      pop\n        /* \"#utility.yul\":197:203   */\n      dup3\n        /* \"#utility.yul\":190:195   */\n      dup2\n        /* \"#utility.yul\":183:204   */\n      mstore\n        /* \"#utility.yul\":235:239   */\n      0x20\n        /* \"#utility.yul\":228:233   */\n      dup2\n        /* \"#utility.yul\":224:240   */\n      add\n        /* \"#utility.yul\":273:276   */\n      dup5\n        /* \"#utility.yul\":264:270   */\n      dup5\n        /* \"#utility.yul\":259:262   */\n      dup5\n        /* \"#utility.yul\":255:271   */\n      add\n        /* \"#utility.yul\":252:277   */\n      gt\n        /* \"#utility.yul\":249:361   */\n      iszero\n      tag_46\n      jumpi\n        /* \"#utility.yul\":280:359   */\n      tag_47\n      tag_48\n      jump\t// in\n    tag_47:\n        /* \"#utility.yul\":249:361   */\n    tag_46:\n        /* \"#utility.yul\":370:411   */\n      tag_49\n        /* \"#utility.yul\":404:410   */\n      dup5\n        /* \"#utility.yul\":399:402   */\n      dup3\n        /* \"#utility.yul\":394:397   */\n      dup6\n        /* \"#utility.yul\":370:411   */\n      tag_50\n      jump\t// in\n    tag_49:\n        /* \"#utility.yul\":90:417   */\n      pop\n        /* \"#utility.yul\":7:417   */\n      swap4\n      swap3\n      pop\n      pop\n      pop\n      jump\t// out\n        /* \"#utility.yul\":436:774   */\n    tag_51:\n        /* \"#utility.yul\":491:496   */\n      0x00\n        /* \"#utility.yul\":540:543   */\n      dup3\n        /* \"#utility.yul\":533:537   */\n      0x1f\n        /* \"#utility.yul\":525:531   */\n      dup4\n        /* \"#utility.yul\":521:538   */\n      add\n        /* \"#utility.yul\":517:544   */\n      slt\n        /* \"#utility.yul\":507:629   */\n      tag_53\n      jumpi\n        /* \"#utility.yul\":548:627   */\n      tag_54\n      tag_55\n      jump\t// in\n    tag_54:\n        /* \"#utility.yul\":507:629   */\n    tag_53:\n        /* \"#utility.yul\":665:671   */\n      dup2\n        /* \"#utility.yul\":652:672   */\n      calldataload\n        /* \"#utility.yul\":690:768   */\n      tag_56\n        /* \"#utility.yul\":764:767   */\n      dup5\n        /* \"#utility.yul\":756:762   */\n      dup3\n        /* \"#utility.yul\":749:753   */\n      0x20\n        /* \"#utility.yul\":741:747   */\n      dup7\n        /* \"#utility.yul\":737:754   */\n      add\n        /* \"#utility.yul\":690:768   */\n      tag_40\n      jump\t// in\n    tag_56:\n        /* \"#utility.yul\":681:768   */\n      swap2\n      pop\n        /* \"#utility.yul\":497:774   */\n      pop\n        /* \"#utility.yul\":436:774   */\n      swap3\n      swap2\n      pop\n      pop\n      jump\t// out\n        /* \"#utility.yul\":780:1610   */\n    tag_12:\n        /* \"#utility.yul\":866:872   */\n      0x00\n        /* \"#utility.yul\":874:880   */\n      dup1\n        /* \"#utility.yul\":923:925   */\n      0x40\n        /* \"#utility.yul\":911:920   */\n      dup4\n        /* \"#utility.yul\":902:909   */\n      dup6\n        /* \"#utility.yul\":898:921   */\n      sub\n        /* \"#utility.yul\":894:926   */\n      slt\n        /* \"#utility.yul\":891:1010   */\n      iszero\n      tag_58\n      jumpi\n        /* \"#utility.yul\":929:1008   */\n      tag_59\n      tag_60\n      jump\t// in\n    tag_59:\n        /* \"#utility.yul\":891:1010   */\n    tag_58:\n        /* \"#utility.yul\":1077:1078   */\n      0x00\n        /* \"#utility.yul\":1066:1075   */\n      dup4\n        /* \"#utility.yul\":1062:1079   */\n      add\n        /* \"#utility.yul\":1049:1080   */\n      calldataload\n        /* \"#utility.yul\":1107:1125   */\n      0xffffffffffffffff\n        /* \"#utility.yul\":1099:1105   */\n      dup2\n        /* \"#utility.yul\":1096:1126   */\n      gt\n        /* \"#utility.yul\":1093:1210   */\n      iszero\n      tag_61\n      jumpi\n        /* \"#utility.yul\":1129:1208   */\n      tag_62\n      tag_63\n      jump\t// in\n    tag_62:\n        /* \"#utility.yul\":1093:1210   */\n    tag_61:\n        /* \"#utility.yul\":1234:1296   */\n      tag_64\n        /* \"#utility.yul\":1288:1295   */\n      dup6\n        /* \"#utility.yul\":1279:1285   */\n      dup3\n        /* \"#utility.yul\":1268:1277   */\n      dup7\n        /* \"#utility.yul\":1264:1286   */\n      add\n        /* \"#utility.yul\":1234:1296   */\n      tag_51\n      jump\t// in\n    tag_64:\n        /* \"#utility.yul\":1224:1296   */\n      swap3\n      pop\n        /* \"#utility.yul\":1020:1306   */\n      pop\n        /* \"#utility.yul\":1373:1375   */\n      0x20\n        /* \"#utility.yul\":1362:1371   */\n      dup4\n        /* \"#utility.yul\":1358:1376   */\n      add\n        /* \"#utility.yul\":1345:1377   */\n      calldataload\n        /* \"#utility.yul\":1404:1422   */\n      0xffffffffffffffff\n        /* \"#utility.yul\":1396:1402   */\n      dup2\n        /* \"#utility.yul\":1393:1423   */\n      gt\n        /* \"#utility.yul\":1390:1507   */\n      iszero\n      tag_65\n      jumpi\n        /* \"#utility.yul\":1426:1505   */\n      tag_66\n      tag_63\n      jump\t// in\n    tag_66:\n        /* \"#utility.yul\":1390:1507   */\n    tag_65:\n        /* \"#utility.yul\":1531:1593   */\n      tag_67\n        /* \"#utility.yul\":1585:1592   */\n      dup6\n        /* \"#utility.yul\":1576:1582   */\n      dup3\n        /* \"#utility.yul\":1565:1574   */\n      dup7\n        /* \"#utility.yul\":1561:1583   */\n      add\n        /* \"#utility.yul\":1531:1593   */\n      tag_51\n      jump\t// in\n    tag_67:\n        /* \"#utility.yul\":1521:1593   */\n      swap2\n      pop\n        /* \"#utility.yul\":1316:1603   */\n      pop\n        /* \"#utility.yul\":780:1610   */\n      swap3\n      pop\n      swap3\n      swap1\n      pop\n      jump\t// out\n        /* \"#utility.yul\":1616:1976   */\n    tag_68:\n        /* \"#utility.yul\":1702:1705   */\n      0x00\n        /* \"#utility.yul\":1730:1768   */\n      tag_70\n        /* \"#utility.yul\":1762:1767   */\n      dup3\n        /* \"#utility.yul\":1730:1768   */\n      tag_71\n      jump\t// in\n    tag_70:\n        /* \"#utility.yul\":1784:1854   */\n      tag_72\n        /* \"#utility.yul\":1847:1853   */\n      dup2\n        /* \"#utility.yul\":1842:1845   */\n      dup6\n        /* \"#utility.yul\":1784:1854   */\n      tag_73\n      jump\t// in\n    tag_72:\n        /* \"#utility.yul\":1777:1854   */\n      swap4\n      pop\n        /* \"#utility.yul\":1863:1915   */\n      tag_74\n        /* \"#utility.yul\":1908:1914   */\n      dup2\n        /* \"#utility.yul\":1903:1906   */\n      dup6\n        /* \"#utility.yul\":1896:1900   */\n      0x20\n        /* \"#utility.yul\":1889:1894   */\n      dup7\n        /* \"#utility.yul\":1885:1901   */\n      add\n        /* \"#utility.yul\":1863:1915   */\n      tag_75\n      jump\t// in\n    tag_74:\n        /* \"#utility.yul\":1940:1969   */\n      tag_76\n        /* \"#utility.yul\":1962:1968   */\n      dup2\n        /* \"#utility.yul\":1940:1969   */\n      tag_77\n      jump\t// in\n    tag_76:\n        /* \"#utility.yul\":1935:1938   */\n      dup5\n        /* \"#utility.yul\":1931:1970   */\n      add\n        /* \"#utility.yul\":1924:1970   */\n      swap2\n      pop\n        /* \"#utility.yul\":1706:1976   */\n      pop\n        /* \"#utility.yul\":1616:1976   */\n      swap3\n      swap2\n      pop\n      pop\n      jump\t// out\n        /* \"#utility.yul\":1982:2291   */\n    tag_9:\n        /* \"#utility.yul\":2093:2097   */\n      0x00\n        /* \"#utility.yul\":2131:2133   */\n      0x20\n        /* \"#utility.yul\":2120:2129   */\n      dup3\n        /* \"#utility.yul\":2116:2134   */\n      add\n        /* \"#utility.yul\":2108:2134   */\n      swap1\n      pop\n        /* \"#utility.yul\":2180:2189   */\n      dup2\n        /* \"#utility.yul\":2174:2178   */\n      dup2\n        /* \"#utility.yul\":2170:2190   */\n      sub\n        /* \"#utility.yul\":2166:2167   */\n      0x00\n        /* \"#utility.yul\":2155:2164   */\n      dup4\n        /* \"#utility.yul\":2151:2168   */\n      add\n        /* \"#utility.yul\":2144:2191   */\n      mstore\n        /* \"#utility.yul\":2208:2284   */\n      tag_79\n        /* \"#utility.yul\":2279:2283   */\n      dup2\n        /* \"#utility.yul\":2270:2276   */\n      dup5\n        /* \"#utility.yul\":2208:2284   */\n      tag_68\n      jump\t// in\n    tag_79:\n        /* \"#utility.yul\":2200:2284   */\n      swap1\n      pop\n        /* \"#utility.yul\":1982:2291   */\n      swap3\n      swap2\n      pop\n      pop\n      jump\t// out\n        /* \"#utility.yul\":2297:2426   */\n    tag_45:\n        /* \"#utility.yul\":2331:2337   */\n      0x00\n        /* \"#utility.yul\":2358:2378   */\n      tag_81\n      tag_82\n      jump\t// in\n    tag_81:\n        /* \"#utility.yul\":2348:2378   */\n      swap1\n      pop\n        /* \"#utility.yul\":2387:2420   */\n      tag_83\n        /* \"#utility.yul\":2415:2419   */\n      dup3\n        /* \"#utility.yul\":2407:2413   */\n      dup3\n        /* \"#utility.yul\":2387:2420   */\n      tag_84\n      jump\t// in\n    tag_83:\n        /* \"#utility.yul\":2297:2426   */\n      swap2\n      swap1\n      pop\n      jump\t// out\n        /* \"#utility.yul\":2432:2507   */\n    tag_82:\n        /* \"#utility.yul\":2465:2471   */\n      0x00\n        /* \"#utility.yul\":2498:2500   */\n      0x40\n        /* \"#utility.yul\":2492:2501   */\n      mload\n        /* \"#utility.yul\":2482:2501   */\n      swap1\n      pop\n        /* \"#utility.yul\":2432:2507   */\n      swap1\n      jump\t// out\n        /* \"#utility.yul\":2513:2820   */\n    tag_44:\n        /* \"#utility.yul\":2574:2578   */\n      0x00\n        /* \"#utility.yul\":2664:2682   */\n      0xffffffffffffffff\n        /* \"#utility.yul\":2656:2662   */\n      dup3\n        /* \"#utility.yul\":2653:2683   */\n      gt\n        /* \"#utility.yul\":2650:2706   */\n      iszero\n      tag_87\n      jumpi\n        /* \"#utility.yul\":2686:2704   */\n      tag_88\n      tag_89\n      jump\t// in\n    tag_88:\n        /* \"#utility.yul\":2650:2706   */\n    tag_87:\n        /* \"#utility.yul\":2724:2753   */\n      tag_90\n        /* \"#utility.yul\":2746:2752   */\n      dup3\n        /* \"#utility.yul\":2724:2753   */\n      tag_77\n      jump\t// in\n    tag_90:\n        /* \"#utility.yul\":2716:2753   */\n      swap1\n      pop\n        /* \"#utility.yul\":2808:2812   */\n      0x20\n        /* \"#utility.yul\":2802:2806   */\n      dup2\n        /* \"#utility.yul\":2798:2813   */\n      add\n        /* \"#utility.yul\":2790:2813   */\n      swap1\n      pop\n        /* \"#utility.yul\":2513:2820   */\n      swap2\n      swap1\n      pop\n      jump\t// out\n        /* \"#utility.yul\":2826:2924   */\n    tag_71:\n        /* \"#utility.yul\":2877:2883   */\n      0x00\n        /* \"#utility.yul\":2911:2916   */\n      dup2\n        /* \"#utility.yul\":2905:2917   */\n      mload\n        /* \"#utility.yul\":2895:2917   */\n      swap1\n      pop\n        /* \"#utility.yul\":2826:2924   */\n      swap2\n      swap1\n      pop\n      jump\t// out\n        /* \"#utility.yul\":2930:3098   */\n    tag_73:\n        /* \"#utility.yul\":3013:3024   */\n      0x00\n        /* \"#utility.yul\":3047:3053   */\n      dup3\n        /* \"#utility.yul\":3042:3045   */\n      dup3\n        /* \"#utility.yul\":3035:3054   */\n      mstore\n        /* \"#utility.yul\":3087:3091   */\n      0x20\n        /* \"#utility.yul\":3082:3085   */\n      dup3\n        /* \"#utility.yul\":3078:3092   */\n      add\n        /* \"#utility.yul\":3063:3092   */\n      swap1\n      pop\n        /* \"#utility.yul\":2930:3098   */\n      swap3\n      swap2\n      pop\n      pop\n      jump\t// out\n        /* \"#utility.yul\":3104:3258   */\n    tag_50:\n        /* \"#utility.yul\":3188:3194   */\n      dup3\n        /* \"#utility.yul\":3183:3186   */\n      dup2\n        /* \"#utility.yul\":3178:3181   */\n      dup4\n        /* \"#utility.yul\":3165:3195   */\n      calldatacopy\n        /* \"#utility.yul\":3250:3251   */\n      0x00\n        /* \"#utility.yul\":3241:3247   */\n      dup4\n        /* \"#utility.yul\":3236:3239   */\n      dup4\n        /* \"#utility.yul\":3232:3248   */\n      add\n        /* \"#utility.yul\":3225:3252   */\n      mstore\n        /* \"#utility.yul\":3104:3258   */\n      pop\n      pop\n      pop\n      jump\t// out\n        /* \"#utility.yul\":3264:3571   */\n    tag_75:\n        /* \"#utility.yul\":3332:3333   */\n      0x00\n        /* \"#utility.yul\":3342:3455   */\n    tag_95:\n        /* \"#utility.yul\":3356:3362   */\n      dup4\n        /* \"#utility.yul\":3353:3354   */\n      dup2\n        /* \"#utility.yul\":3350:3363   */\n      lt\n        /* \"#utility.yul\":3342:3455   */\n      iszero\n      tag_97\n      jumpi\n        /* \"#utility.yul\":3441:3442   */\n      dup1\n        /* \"#utility.yul\":3436:3439   */\n      dup3\n        /* \"#utility.yul\":3432:3443   */\n      add\n        /* \"#utility.yul\":3426:3444   */\n      mload\n        /* \"#utility.yul\":3422:3423   */\n      dup2\n        /* \"#utility.yul\":3417:3420   */\n      dup5\n        /* \"#utility.yul\":3413:3424   */\n      add\n        /* \"#utility.yul\":3406:3445   */\n      mstore\n        /* \"#utility.yul\":3378:3380   */\n      0x20\n        /* \"#utility.yul\":3375:3376   */\n      dup2\n        /* \"#utility.yul\":3371:3381   */\n      add\n        /* \"#utility.yul\":3366:3381   */\n      swap1\n      pop\n        /* \"#utility.yul\":3342:3455   */\n      jump(tag_95)\n    tag_97:\n        /* \"#utility.yul\":3473:3479   */\n      dup4\n        /* \"#utility.yul\":3470:3471   */\n      dup2\n        /* \"#utility.yul\":3467:3480   */\n      gt\n        /* \"#utility.yul\":3464:3565   */\n      iszero\n      tag_98\n      jumpi\n        /* \"#utility.yul\":3553:3554   */\n      0x00\n        /* \"#utility.yul\":3544:3550   */\n      dup5\n        /* \"#utility.yul\":3539:3542   */\n      dup5\n        /* \"#utility.yul\":3535:3551   */\n      add\n        /* \"#utility.yul\":3528:3555   */\n      mstore\n        /* \"#utility.yul\":3464:3565   */\n    tag_98:\n        /* \"#utility.yul\":3313:3571   */\n      pop\n        /* \"#utility.yul\":3264:3571   */\n      pop\n      pop\n      pop\n      jump\t// out\n        /* \"#utility.yul\":3577:3897   */\n    tag_19:\n        /* \"#utility.yul\":3621:3627   */\n      0x00\n        /* \"#utility.yul\":3658:3659   */\n      0x02\n        /* \"#utility.yul\":3652:3656   */\n      dup3\n        /* \"#utility.yul\":3648:3660   */\n      div\n        /* \"#utility.yul\":3638:3660   */\n      swap1\n      pop\n        /* \"#utility.yul\":3705:3706   */\n      0x01\n        /* \"#utility.yul\":3699:3703   */\n      dup3\n        /* \"#utility.yul\":3695:3707   */\n      and\n        /* \"#utility.yul\":3726:3744   */\n      dup1\n        /* \"#utility.yul\":3716:3797   */\n      tag_100\n      jumpi\n        /* \"#utility.yul\":3782:3786   */\n      0x7f\n        /* \"#utility.yul\":3774:3780   */\n      dup3\n        /* \"#utility.yul\":3770:3787   */\n      and\n        /* \"#utility.yul\":3760:3787   */\n      swap2\n      pop\n        /* \"#utility.yul\":3716:3797   */\n    tag_100:\n        /* \"#utility.yul\":3844:3846   */\n      0x20\n        /* \"#utility.yul\":3836:3842   */\n      dup3\n        /* \"#utility.yul\":3833:3847   */\n      lt\n        /* \"#utility.yul\":3813:3831   */\n      dup2\n        /* \"#utility.yul\":3810:3848   */\n      eq\n        /* \"#utility.yul\":3807:3891   */\n      iszero\n      tag_101\n      jumpi\n        /* \"#utility.yul\":3863:3881   */\n      tag_102\n      tag_103\n      jump\t// in\n    tag_102:\n        /* \"#utility.yul\":3807:3891   */\n    tag_101:\n        /* \"#utility.yul\":3628:3897   */\n      pop\n        /* \"#utility.yul\":3577:3897   */\n      swap2\n      swap1\n      pop\n      jump\t// out\n        /* \"#utility.yul\":3903:4184   */\n    tag_84:\n        /* \"#utility.yul\":3986:4013   */\n      tag_105\n        /* \"#utility.yul\":4008:4012   */\n      dup3\n        /* \"#utility.yul\":3986:4013   */\n      tag_77\n      jump\t// in\n    tag_105:\n        /* \"#utility.yul\":3978:3984   */\n      dup2\n        /* \"#utility.yul\":3974:4014   */\n      add\n        /* \"#utility.yul\":4116:4122   */\n      dup2\n        /* \"#utility.yul\":4104:4114   */\n      dup2\n        /* \"#utility.yul\":4101:4123   */\n      lt\n        /* \"#utility.yul\":4080:4098   */\n      0xffffffffffffffff\n        /* \"#utility.yul\":4068:4078   */\n      dup3\n        /* \"#utility.yul\":4065:4099   */\n      gt\n        /* \"#utility.yul\":4062:4124   */\n      or\n        /* \"#utility.yul\":4059:4147   */\n      iszero\n      tag_106\n      jumpi\n        /* \"#utility.yul\":4127:4145   */\n      tag_107\n      tag_89\n      jump\t// in\n    tag_107:\n        /* \"#utility.yul\":4059:4147   */\n    tag_106:\n        /* \"#utility.yul\":4167:4177   */\n      dup1\n        /* \"#utility.yul\":4163:4165   */\n      0x40\n        /* \"#utility.yul\":4156:4178   */\n      mstore\n        /* \"#utility.yul\":3946:4184   */\n      pop\n        /* \"#utility.yul\":3903:4184   */\n      pop\n      pop\n      jump\t// out\n        /* \"#utility.yul\":4190:4370   */\n    tag_103:\n        /* \"#utility.yul\":4238:4315   */\n      0x4e487b7100000000000000000000000000000000000000000000000000000000\n        /* \"#utility.yul\":4235:4236   */\n      0x00\n        /* \"#utility.yul\":4228:4316   */\n      mstore\n        /* \"#utility.yul\":4335:4339   */\n      0x22\n        /* \"#utility.yul\":4332:4333   */\n      0x04\n        /* \"#utility.yul\":4325:4340   */\n      mstore\n        /* \"#utility.yul\":4359:4363   */\n      0x24\n        /* \"#utility.yul\":4356:4357   */\n      0x00\n        /* \"#utility.yul\":4349:4364   */\n      revert\n        /* \"#utility.yul\":4376:4556   */\n    tag_89:\n        /* \"#utility.yul\":4424:4501   */\n      0x4e487b7100000000000000000000000000000000000000000000000000000000\n        /* \"#utility.yul\":4421:4422   */\n      0x00\n        /* \"#utility.yul\":4414:4502   */\n      mstore\n        /* \"#utility.yul\":4521:4525   */\n      0x41\n        /* \"#utility.yul\":4518:4519   */\n      0x04\n        /* \"#utility.yul\":4511:4526   */\n      mstore\n        /* \"#utility.yul\":4545:4549   */\n      0x24\n        /* \"#utility.yul\":4542:4543   */\n      0x00\n        /* \"#utility.yul\":4535:4550   */\n      revert\n        /* \"#utility.yul\":4562:4679   */\n    tag_55:\n        /* \"#utility.yul\":4671:4672   */\n      0x00\n        /* \"#utility.yul\":4668:4669   */\n      dup1\n        /* \"#utility.yul\":4661:4673   */\n      revert\n        /* \"#utility.yul\":4685:4802   */\n    tag_48:\n        /* \"#utility.yul\":4794:4795   */\n      0x00\n        /* \"#utility.yul\":4791:4792   */\n      dup1\n        /* \"#utility.yul\":4784:4796   */\n      revert\n        /* \"#utility.yul\":4808:4925   */\n    tag_63:\n        /* \"#utility.yul\":4917:4918   */\n      0x00\n        /* \"#utility.yul\":4914:4915   */\n      dup1\n        /* \"#utility.yul\":4907:4919   */\n      revert\n        /* \"#utility.yul\":4931:5048   */\n    tag_60:\n        /* \"#utility.yul\":5040:5041   */\n      0x00\n        /* \"#utility.yul\":5037:5038   */\n      dup1\n        /* \"#utility.yul\":5030:5042   */\n      revert\n        /* \"#utility.yul\":5054:5156   */\n    tag_77:\n        /* \"#utility.yul\":5095:5101   */\n      0x00\n        /* \"#utility.yul\":5146:5148   */\n      0x1f\n        /* \"#utility.yul\":5142:5149   */\n      not\n        /* \"#utility.yul\":5137:5139   */\n      0x1f\n        /* \"#utility.yul\":5130:5135   */\n      dup4\n        /* \"#utility.yul\":5126:5140   */\n      add\n        /* \"#utility.yul\":5122:5150   */\n      and\n        /* \"#utility.yul\":5112:5150   */\n      swap1\n      pop\n        /* \"#utility.yul\":5054:5156   */\n      swap2\n      swap1\n      pop\n      jump\t// out\n\n    auxdata: 0xa26469706673582212205f0225ee69b78e6e08eee1976bb4f15a1b2b5f3d5adc47cdf12335a7a492833964736f6c63430008070033\n}\n",
				"bytecode": {
					"linkReferences": {},
					"object": "60806040526040518060400160405280600881526020017f4c45484f4e47564f0000000000000000000000000000000000000000000000008152506000908051906020019061004f9291906100ae565b506040518060400160405280601d81526020017f4c45484f4e47564f776a6e66766a33776568387668736164666a6f69660000008152506001908051906020019061009b9291906100ae565b503480156100a857600080fd5b506101b2565b8280546100ba90610151565b90600052602060002090601f0160209004810192826100dc5760008555610123565b82601f106100f557805160ff1916838001178555610123565b82800160010185558215610123579182015b82811115610122578251825591602001919060010190610107565b5b5090506101309190610134565b5090565b5b8082111561014d576000816000905550600101610135565b5090565b6000600282049050600182168061016957607f821691505b6020821081141561017d5761017c610183565b5b50919050565b7f4e487b7100000000000000000000000000000000000000000000000000000000600052602260045260246000fd5b61057f806101c16000396000f3fe608060405234801561001057600080fd5b50600436106100415760003560e01c80639ffd85c414610046578063ba654d0514610064578063e3a7fd7514610094575b600080fd5b61004e6100b2565b60405161005b919061038d565b60405180910390f35b61007e600480360381019061007991906102dc565b610140565b60405161008b919061038d565b60405180910390f35b61009c610154565b6040516100a9919061038d565b60405180910390f35b600080546100bf90610463565b80601f01602080910402602001604051908101604052809291908181526020018280546100eb90610463565b80156101385780601f1061010d57610100808354040283529160200191610138565b820191906000526020600020905b81548152906001019060200180831161011b57829003601f168201915b505050505081565b606061014c83836101e2565b905092915050565b6001805461016190610463565b80601f016020809104026020016040519081016040528092919081815260200182805461018d90610463565b80156101da5780601f106101af576101008083540402835291602001916101da565b820191906000526020600020905b8154815290600101906020018083116101bd57829003601f168201915b505050505081565b6060806040519050835180825260208201818101602087015b8183101561021857805183526020830192506020810190506101fb565b50855192508351830184528091508282019050602086015b8183101561024d5780518352602083019250602081019050610230565b50601f19601f8851850115830101166040525050508091505092915050565b600061027f61027a846103d4565b6103af565b90508281526020810184848401111561029b5761029a610529565b5b6102a6848285610421565b509392505050565b600082601f8301126102c3576102c2610524565b5b81356102d384826020860161026c565b91505092915050565b600080604083850312156102f3576102f2610533565b5b600083013567ffffffffffffffff8111156103115761031061052e565b5b61031d858286016102ae565b925050602083013567ffffffffffffffff81111561033e5761033d61052e565b5b61034a858286016102ae565b9150509250929050565b600061035f82610405565b6103698185610410565b9350610379818560208601610430565b61038281610538565b840191505092915050565b600060208201905081810360008301526103a78184610354565b905092915050565b60006103b96103ca565b90506103c58282610495565b919050565b6000604051905090565b600067ffffffffffffffff8211156103ef576103ee6104f5565b5b6103f882610538565b9050602081019050919050565b600081519050919050565b600082825260208201905092915050565b82818337600083830152505050565b60005b8381101561044e578082015181840152602081019050610433565b8381111561045d576000848401525b50505050565b6000600282049050600182168061047b57607f821691505b6020821081141561048f5761048e6104c6565b5b50919050565b61049e82610538565b810181811067ffffffffffffffff821117156104bd576104bc6104f5565b5b80604052505050565b7f4e487b7100000000000000000000000000000000000000000000000000000000600052602260045260246000fd5b7f4e487b7100000000000000000000000000000000000000000000000000000000600052604160045260246000fd5b600080fd5b600080fd5b600080fd5b600080fd5b6000601f19601f830116905091905056fea26469706673582212205f0225ee69b78e6e08eee1976bb4f15a1b2b5f3d5adc47cdf12335a7a492833964736f6c63430008070033",
					"opcodes": "PUSH1 0x80 PUSH1 0x40 MSTORE PUSH1 0x40 MLOAD DUP1 PUSH1 0x40 ADD PUSH1 0x40 MSTORE DUP1 PUSH1 0x8 DUP2 MSTORE PUSH1 0x20 ADD PUSH32 0x4C45484F4E47564F000000000000000000000000000000000000000000000000 DUP2 MSTORE POP PUSH1 0x0 SWAP1 DUP1 MLOAD SWAP1 PUSH1 0x20 ADD SWAP1 PUSH2 0x4F SWAP3 SWAP2 SWAP1 PUSH2 0xAE JUMP JUMPDEST POP PUSH1 0x40 MLOAD DUP1 PUSH1 0x40 ADD PUSH1 0x40 MSTORE DUP1 PUSH1 0x1D DUP2 MSTORE PUSH1 0x20 ADD PUSH32 0x4C45484F4E47564F776A6E66766A33776568387668736164666A6F6966000000 DUP2 MSTORE POP PUSH1 0x1 SWAP1 DUP1 MLOAD SWAP1 PUSH1 0x20 ADD SWAP1 PUSH2 0x9B SWAP3 SWAP2 SWAP1 PUSH2 0xAE JUMP JUMPDEST POP CALLVALUE DUP1 ISZERO PUSH2 0xA8 JUMPI PUSH1 0x0 DUP1 REVERT JUMPDEST POP PUSH2 0x1B2 JUMP JUMPDEST DUP3 DUP1 SLOAD PUSH2 0xBA SWAP1 PUSH2 0x151 JUMP JUMPDEST SWAP1 PUSH1 0x0 MSTORE PUSH1 0x20 PUSH1 0x0 KECCAK256 SWAP1 PUSH1 0x1F ADD PUSH1 0x20 SWAP1 DIV DUP2 ADD SWAP3 DUP3 PUSH2 0xDC JUMPI PUSH1 0x0 DUP6 SSTORE PUSH2 0x123 JUMP JUMPDEST DUP3 PUSH1 0x1F LT PUSH2 0xF5 JUMPI DUP1 MLOAD PUSH1 0xFF NOT AND DUP4 DUP1 ADD OR DUP6 SSTORE PUSH2 0x123 JUMP JUMPDEST DUP3 DUP1 ADD PUSH1 0x1 ADD DUP6 SSTORE DUP3 ISZERO PUSH2 0x123 JUMPI SWAP2 DUP3 ADD JUMPDEST DUP3 DUP2 GT ISZERO PUSH2 0x122 JUMPI DUP3 MLOAD DUP3 SSTORE SWAP2 PUSH1 0x20 ADD SWAP2 SWAP1 PUSH1 0x1 ADD SWAP1 PUSH2 0x107 JUMP JUMPDEST JUMPDEST POP SWAP1 POP PUSH2 0x130 SWAP2 SWAP1 PUSH2 0x134 JUMP JUMPDEST POP SWAP1 JUMP JUMPDEST JUMPDEST DUP1 DUP3 GT ISZERO PUSH2 0x14D JUMPI PUSH1 0x0 DUP2 PUSH1 0x0 SWAP1 SSTORE POP PUSH1 0x1 ADD PUSH2 0x135 JUMP JUMPDEST POP SWAP1 JUMP JUMPDEST PUSH1 0x0 PUSH1 0x2 DUP3 DIV SWAP1 POP PUSH1 0x1 DUP3 AND DUP1 PUSH2 0x169 JUMPI PUSH1 0x7F DUP3 AND SWAP2 POP JUMPDEST PUSH1 0x20 DUP3 LT DUP2 EQ ISZERO PUSH2 0x17D JUMPI PUSH2 0x17C PUSH2 0x183 JUMP JUMPDEST JUMPDEST POP SWAP2 SWAP1 POP JUMP JUMPDEST PUSH32 0x4E487B7100000000000000000000000000000000000000000000000000000000 PUSH1 0x0 MSTORE PUSH1 0x22 PUSH1 0x4 MSTORE PUSH1 0x24 PUSH1 0x0 REVERT JUMPDEST PUSH2 0x57F DUP1 PUSH2 0x1C1 PUSH1 0x0 CODECOPY PUSH1 0x0 RETURN INVALID PUSH1 0x80 PUSH1 0x40 MSTORE CALLVALUE DUP1 ISZERO PUSH2 0x10 JUMPI PUSH1 0x0 DUP1 REVERT JUMPDEST POP PUSH1 0x4 CALLDATASIZE LT PUSH2 0x41 JUMPI PUSH1 0x0 CALLDATALOAD PUSH1 0xE0 SHR DUP1 PUSH4 0x9FFD85C4 EQ PUSH2 0x46 JUMPI DUP1 PUSH4 0xBA654D05 EQ PUSH2 0x64 JUMPI DUP1 PUSH4 0xE3A7FD75 EQ PUSH2 0x94 JUMPI JUMPDEST PUSH1 0x0 DUP1 REVERT JUMPDEST PUSH2 0x4E PUSH2 0xB2 JUMP JUMPDEST PUSH1 0x40 MLOAD PUSH2 0x5B SWAP2 SWAP1 PUSH2 0x38D JUMP JUMPDEST PUSH1 0x40 MLOAD DUP1 SWAP2 SUB SWAP1 RETURN JUMPDEST PUSH2 0x7E PUSH1 0x4 DUP1 CALLDATASIZE SUB DUP2 ADD SWAP1 PUSH2 0x79 SWAP2 SWAP1 PUSH2 0x2DC JUMP JUMPDEST PUSH2 0x140 JUMP JUMPDEST PUSH1 0x40 MLOAD PUSH2 0x8B SWAP2 SWAP1 PUSH2 0x38D JUMP JUMPDEST PUSH1 0x40 MLOAD DUP1 SWAP2 SUB SWAP1 RETURN JUMPDEST PUSH2 0x9C PUSH2 0x154 JUMP JUMPDEST PUSH1 0x40 MLOAD PUSH2 0xA9 SWAP2 SWAP1 PUSH2 0x38D JUMP JUMPDEST PUSH1 0x40 MLOAD DUP1 SWAP2 SUB SWAP1 RETURN JUMPDEST PUSH1 0x0 DUP1 SLOAD PUSH2 0xBF SWAP1 PUSH2 0x463 JUMP JUMPDEST DUP1 PUSH1 0x1F ADD PUSH1 0x20 DUP1 SWAP2 DIV MUL PUSH1 0x20 ADD PUSH1 0x40 MLOAD SWAP1 DUP2 ADD PUSH1 0x40 MSTORE DUP1 SWAP3 SWAP2 SWAP1 DUP2 DUP2 MSTORE PUSH1 0x20 ADD DUP3 DUP1 SLOAD PUSH2 0xEB SWAP1 PUSH2 0x463 JUMP JUMPDEST DUP1 ISZERO PUSH2 0x138 JUMPI DUP1 PUSH1 0x1F LT PUSH2 0x10D JUMPI PUSH2 0x100 DUP1 DUP4 SLOAD DIV MUL DUP4 MSTORE SWAP2 PUSH1 0x20 ADD SWAP2 PUSH2 0x138 JUMP JUMPDEST DUP3 ADD SWAP2 SWAP1 PUSH1 0x0 MSTORE PUSH1 0x20 PUSH1 0x0 KECCAK256 SWAP1 JUMPDEST DUP2 SLOAD DUP2 MSTORE SWAP1 PUSH1 0x1 ADD SWAP1 PUSH1 0x20 ADD DUP1 DUP4 GT PUSH2 0x11B JUMPI DUP3 SWAP1 SUB PUSH1 0x1F AND DUP3 ADD SWAP2 JUMPDEST POP POP POP POP POP DUP2 JUMP JUMPDEST PUSH1 0x60 PUSH2 0x14C DUP4 DUP4 PUSH2 0x1E2 JUMP JUMPDEST SWAP1 POP SWAP3 SWAP2 POP POP JUMP JUMPDEST PUSH1 0x1 DUP1 SLOAD PUSH2 0x161 SWAP1 PUSH2 0x463 JUMP JUMPDEST DUP1 PUSH1 0x1F ADD PUSH1 0x20 DUP1 SWAP2 DIV MUL PUSH1 0x20 ADD PUSH1 0x40 MLOAD SWAP1 DUP2 ADD PUSH1 0x40 MSTORE DUP1 SWAP3 SWAP2 SWAP1 DUP2 DUP2 MSTORE PUSH1 0x20 ADD DUP3 DUP1 SLOAD PUSH2 0x18D SWAP1 PUSH2 0x463 JUMP JUMPDEST DUP1 ISZERO PUSH2 0x1DA JUMPI DUP1 PUSH1 0x1F LT PUSH2 0x1AF JUMPI PUSH2 0x100 DUP1 DUP4 SLOAD DIV MUL DUP4 MSTORE SWAP2 PUSH1 0x20 ADD SWAP2 PUSH2 0x1DA JUMP JUMPDEST DUP3 ADD SWAP2 SWAP1 PUSH1 0x0 MSTORE PUSH1 0x20 PUSH1 0x0 KECCAK256 SWAP1 JUMPDEST DUP2 SLOAD DUP2 MSTORE SWAP1 PUSH1 0x1 ADD SWAP1 PUSH1 0x20 ADD DUP1 DUP4 GT PUSH2 0x1BD JUMPI DUP3 SWAP1 SUB PUSH1 0x1F AND DUP3 ADD SWAP2 JUMPDEST POP POP POP POP POP DUP2 JUMP JUMPDEST PUSH1 0x60 DUP1 PUSH1 0x40 MLOAD SWAP1 POP DUP4 MLOAD DUP1 DUP3 MSTORE PUSH1 0x20 DUP3 ADD DUP2 DUP2 ADD PUSH1 0x20 DUP8 ADD JUMPDEST DUP2 DUP4 LT ISZERO PUSH2 0x218 JUMPI DUP1 MLOAD DUP4 MSTORE PUSH1 0x20 DUP4 ADD SWAP3 POP PUSH1 0x20 DUP2 ADD SWAP1 POP PUSH2 0x1FB JUMP JUMPDEST POP DUP6 MLOAD SWAP3 POP DUP4 MLOAD DUP4 ADD DUP5 MSTORE DUP1 SWAP2 POP DUP3 DUP3 ADD SWAP1 POP PUSH1 0x20 DUP7 ADD JUMPDEST DUP2 DUP4 LT ISZERO PUSH2 0x24D JUMPI DUP1 MLOAD DUP4 MSTORE PUSH1 0x20 DUP4 ADD SWAP3 POP PUSH1 0x20 DUP2 ADD SWAP1 POP PUSH2 0x230 JUMP JUMPDEST POP PUSH1 0x1F NOT PUSH1 0x1F DUP9 MLOAD DUP6 ADD ISZERO DUP4 ADD ADD AND PUSH1 0x40 MSTORE POP POP POP DUP1 SWAP2 POP POP SWAP3 SWAP2 POP POP JUMP JUMPDEST PUSH1 0x0 PUSH2 0x27F PUSH2 0x27A DUP5 PUSH2 0x3D4 JUMP JUMPDEST PUSH2 0x3AF JUMP JUMPDEST SWAP1 POP DUP3 DUP2 MSTORE PUSH1 0x20 DUP2 ADD DUP5 DUP5 DUP5 ADD GT ISZERO PUSH2 0x29B JUMPI PUSH2 0x29A PUSH2 0x529 JUMP JUMPDEST JUMPDEST PUSH2 0x2A6 DUP5 DUP3 DUP6 PUSH2 0x421 JUMP JUMPDEST POP SWAP4 SWAP3 POP POP POP JUMP JUMPDEST PUSH1 0x0 DUP3 PUSH1 0x1F DUP4 ADD SLT PUSH2 0x2C3 JUMPI PUSH2 0x2C2 PUSH2 0x524 JUMP JUMPDEST JUMPDEST DUP2 CALLDATALOAD PUSH2 0x2D3 DUP5 DUP3 PUSH1 0x20 DUP7 ADD PUSH2 0x26C JUMP JUMPDEST SWAP2 POP POP SWAP3 SWAP2 POP POP JUMP JUMPDEST PUSH1 0x0 DUP1 PUSH1 0x40 DUP4 DUP6 SUB SLT ISZERO PUSH2 0x2F3 JUMPI PUSH2 0x2F2 PUSH2 0x533 JUMP JUMPDEST JUMPDEST PUSH1 0x0 DUP4 ADD CALLDATALOAD PUSH8 0xFFFFFFFFFFFFFFFF DUP2 GT ISZERO PUSH2 0x311 JUMPI PUSH2 0x310 PUSH2 0x52E JUMP JUMPDEST JUMPDEST PUSH2 0x31D DUP6 DUP3 DUP7 ADD PUSH2 0x2AE JUMP JUMPDEST SWAP3 POP POP PUSH1 0x20 DUP4 ADD CALLDATALOAD PUSH8 0xFFFFFFFFFFFFFFFF DUP2 GT ISZERO PUSH2 0x33E JUMPI PUSH2 0x33D PUSH2 0x52E JUMP JUMPDEST JUMPDEST PUSH2 0x34A DUP6 DUP3 DUP7 ADD PUSH2 0x2AE JUMP JUMPDEST SWAP2 POP POP SWAP3 POP SWAP3 SWAP1 POP JUMP JUMPDEST PUSH1 0x0 PUSH2 0x35F DUP3 PUSH2 0x405 JUMP JUMPDEST PUSH2 0x369 DUP2 DUP6 PUSH2 0x410 JUMP JUMPDEST SWAP4 POP PUSH2 0x379 DUP2 DUP6 PUSH1 0x20 DUP7 ADD PUSH2 0x430 JUMP JUMPDEST PUSH2 0x382 DUP2 PUSH2 0x538 JUMP JUMPDEST DUP5 ADD SWAP2 POP POP SWAP3 SWAP2 POP POP JUMP JUMPDEST PUSH1 0x0 PUSH1 0x20 DUP3 ADD SWAP1 POP DUP2 DUP2 SUB PUSH1 0x0 DUP4 ADD MSTORE PUSH2 0x3A7 DUP2 DUP5 PUSH2 0x354 JUMP JUMPDEST SWAP1 POP SWAP3 SWAP2 POP POP JUMP JUMPDEST PUSH1 0x0 PUSH2 0x3B9 PUSH2 0x3CA JUMP JUMPDEST SWAP1 POP PUSH2 0x3C5 DUP3 DUP3 PUSH2 0x495 JUMP JUMPDEST SWAP2 SWAP1 POP JUMP JUMPDEST PUSH1 0x0 PUSH1 0x40 MLOAD SWAP1 POP SWAP1 JUMP JUMPDEST PUSH1 0x0 PUSH8 0xFFFFFFFFFFFFFFFF DUP3 GT ISZERO PUSH2 0x3EF JUMPI PUSH2 0x3EE PUSH2 0x4F5 JUMP JUMPDEST JUMPDEST PUSH2 0x3F8 DUP3 PUSH2 0x538 JUMP JUMPDEST SWAP1 POP PUSH1 0x20 DUP2 ADD SWAP1 POP SWAP2 SWAP1 POP JUMP JUMPDEST PUSH1 0x0 DUP2 MLOAD SWAP1 POP SWAP2 SWAP1 POP JUMP JUMPDEST PUSH1 0x0 DUP3 DUP3 MSTORE PUSH1 0x20 DUP3 ADD SWAP1 POP SWAP3 SWAP2 POP POP JUMP JUMPDEST DUP3 DUP2 DUP4 CALLDATACOPY PUSH1 0x0 DUP4 DUP4 ADD MSTORE POP POP POP JUMP JUMPDEST PUSH1 0x0 JUMPDEST DUP4 DUP2 LT ISZERO PUSH2 0x44E JUMPI DUP1 DUP3 ADD MLOAD DUP2 DUP5 ADD MSTORE PUSH1 0x20 DUP2 ADD SWAP1 POP PUSH2 0x433 JUMP JUMPDEST DUP4 DUP2 GT ISZERO PUSH2 0x45D JUMPI PUSH1 0x0 DUP5 DUP5 ADD MSTORE JUMPDEST POP POP POP POP JUMP JUMPDEST PUSH1 0x0 PUSH1 0x2 DUP3 DIV SWAP1 POP PUSH1 0x1 DUP3 AND DUP1 PUSH2 0x47B JUMPI PUSH1 0x7F DUP3 AND SWAP2 POP JUMPDEST PUSH1 0x20 DUP3 LT DUP2 EQ ISZERO PUSH2 0x48F JUMPI PUSH2 0x48E PUSH2 0x4C6 JUMP JUMPDEST JUMPDEST POP SWAP2 SWAP1 POP JUMP JUMPDEST PUSH2 0x49E DUP3 PUSH2 0x538 JUMP JUMPDEST DUP2 ADD DUP2 DUP2 LT PUSH8 0xFFFFFFFFFFFFFFFF DUP3 GT OR ISZERO PUSH2 0x4BD JUMPI PUSH2 0x4BC PUSH2 0x4F5 JUMP JUMPDEST JUMPDEST DUP1 PUSH1 0x40 MSTORE POP POP POP JUMP JUMPDEST PUSH32 0x4E487B7100000000000000000000000000000000000000000000000000000000 PUSH1 0x0 MSTORE PUSH1 0x22 PUSH1 0x4 MSTORE PUSH1 0x24 PUSH1 0x0 REVERT JUMPDEST PUSH32 0x4E487B7100000000000000000000000000000000000000000000000000000000 PUSH1 0x0 MSTORE PUSH1 0x41 PUSH1 0x4 MSTORE PUSH1 0x24 PUSH1 0x0 REVERT JUMPDEST PUSH1 0x0 DUP1 REVERT JUMPDEST PUSH1 0x0 DUP1 REVERT JUMPDEST PUSH1 0x0 DUP1 REVERT JUMPDEST PUSH1 0x0 DUP1 REVERT JUMPDEST PUSH1 0x0 PUSH1 0x1F NOT PUSH1 0x1F DUP4 ADD AND SWAP1 POP SWAP2 SWAP1 POP JUMP INVALID LOG2 PUSH5 0x6970667358 0x22 SLT KECCAK256 0x5F MUL 0x25 0xEE PUSH10 0xB78E6E08EEE1976BB4F1 GAS SHL 0x2B 0x5F RETURNDATASIZE GAS 0xDC SELFBALANCE 0xCD CALL 0x23 CALLDATALOAD 0xA7 LOG4 SWAP3 DUP4 CODECOPY PUSH5 0x736F6C6343 STOP ADDMOD SMOD STOP CALLER "
				},
				"gasEstimates": {
					"creation": {
						"codeDepositCost": "281400",
						"executionCost": "infinite",
						"totalCost": "infinite"
					},
					"external": {
						"data1()": "infinite",
						"data2()": "infinite",
						"getData(bytes,bytes)": "infinite"
					},
					"internal": {
						"concat(bytes memory,bytes memory)": "infinite"
					}
				},
				"methodIdentifiers": {
					"data1()": "9ffd85c4",
					"data2()": "e3a7fd75",
					"getData(bytes,bytes)": "ba654d05"
				}
			},
			"userdoc": {
				"kind": "user",
				"methods": {},
				"version": 1
			}
		}
	}
}