{
	"contracts/demo1.sol": {
		"Demo1": {
			"abi": [
				{
					"constant": true,
					"inputs": [],
					"name": "bytesDemo1",
					"outputs": [
						{
							"internalType": "bytes",
							"name": "",
							"type": "bytes"
						}
					],
					"payable": false,
					"stateMutability": "view",
					"type": "function"
				},
				{
					"constant": true,
					"inputs": [],
					"name": "bytesDemo2",
					"outputs": [
						{
							"internalType": "bytes",
							"name": "",
							"type": "bytes"
						}
					],
					"payable": false,
					"stateMutability": "view",
					"type": "function"
				},
				{
					"constant": true,
					"inputs": [
						{
							"internalType": "uint32",
							"name": "code",
							"type": "uint32"
						}
					],
					"name": "getData",
					"outputs": [
						{
							"internalType": "bytes",
							"name": "",
							"type": "bytes"
						}
					],
					"payable": false,
					"stateMutability": "view",
					"type": "function"
				},
				{
					"constant": true,
					"inputs": [
						{
							"internalType": "bytes",
							"name": "_postBytes",
							"type": "bytes"
						}
					],
					"name": "getLength",
					"outputs": [
						{
							"internalType": "uint256",
							"name": "",
							"type": "uint256"
						}
					],
					"payable": false,
					"stateMutability": "view",
					"type": "function"
				}
			],
			"devdoc": {
				"methods": {}
			},
			"evm": {
				"assembly": "    /* \"contracts/demo1.sol\":92:12463  contract Demo1{\r... */\n  mstore(0x40, 0x80)\n    /* \"contracts/demo1.sol\":173:205  bytes public bytesDemo1 = \"8347\" */\n  mload(0x40)\n  dup1\n  0x40\n  add\n  0x40\n  mstore\n  dup1\n  0x04\n  dup2\n  mstore\n  0x20\n  add\n  0x3833343700000000000000000000000000000000000000000000000000000000\n  dup2\n  mstore\n  pop\n  0x00\n  swap1\n  dup1\n  mload\n  swap1\n  0x20\n  add\n  swap1\n  tag_1\n  swap3\n  swap2\n  swap1\n  tag_2\n  jump\t// in\ntag_1:\n  pop\n    /* \"contracts/demo1.sol\":214:304  bytes public bytesDemo2 = \"dfdfdfdfAHGHGDSHDBGHSDSISGBOQBUIHKJBUISCHsdfdsfSSSSSSDSDSDSDSD\" */\n  mload(0x40)\n  dup1\n  0x60\n  add\n  0x40\n  mstore\n  dup1\n  0x3e\n  dup2\n  mstore\n  0x20\n  add\n  data_d99d57b2a63a8e679ec4622c09c3ee1dfea65c927b069900ecc6db64f0c663c9\n  0x3e\n  swap2\n  codecopy\n  0x01\n  swap1\n  dup1\n  mload\n  swap1\n  0x20\n  add\n  swap1\n  tag_3\n  swap3\n  swap2\n  swap1\n  tag_2\n  jump\t// in\ntag_3:\n  pop\n    /* \"contracts/demo1.sol\":92:12463  contract Demo1{\r... */\n  callvalue\n    /* \"--CODEGEN--\":8:17   */\n  dup1\n    /* \"--CODEGEN--\":5:7   */\n  iszero\n  tag_4\n  jumpi\n    /* \"--CODEGEN--\":30:31   */\n  0x00\n    /* \"--CODEGEN--\":27:28   */\n  dup1\n    /* \"--CODEGEN--\":20:32   */\n  revert\n    /* \"--CODEGEN--\":5:7   */\ntag_4:\n    /* \"contracts/demo1.sol\":92:12463  contract Demo1{\r... */\n  pop\n  jump(tag_5)\ntag_2:\n  dup3\n  dup1\n  sload\n  0x01\n  dup2\n  0x01\n  and\n  iszero\n  0x0100\n  mul\n  sub\n  and\n  0x02\n  swap1\n  div\n  swap1\n  0x00\n  mstore\n  keccak256(0x00, 0x20)\n  swap1\n  0x1f\n  add\n  0x20\n  swap1\n  div\n  dup2\n  add\n  swap3\n  dup3\n  0x1f\n  lt\n  tag_7\n  jumpi\n  dup1\n  mload\n  not(0xff)\n  and\n  dup4\n  dup1\n  add\n  or\n  dup6\n  sstore\n  jump(tag_6)\ntag_7:\n  dup3\n  dup1\n  add\n  0x01\n  add\n  dup6\n  sstore\n  dup3\n  iszero\n  tag_6\n  jumpi\n  swap2\n  dup3\n  add\ntag_8:\n  dup3\n  dup2\n  gt\n  iszero\n  tag_9\n  jumpi\n  dup3\n  mload\n  dup3\n  sstore\n  swap2\n  0x20\n  add\n  swap2\n  swap1\n  0x01\n  add\n  swap1\n  jump(tag_8)\ntag_9:\ntag_6:\n  pop\n  swap1\n  pop\n  tag_10\n  swap2\n  swap1\n  tag_11\n  jump\t// in\ntag_10:\n  pop\n  swap1\n  jump\t// out\ntag_11:\n  tag_12\n  swap2\n  swap1\ntag_13:\n  dup1\n  dup3\n  gt\n  iszero\n  tag_14\n  jumpi\n  0x00\n  dup2\n  0x00\n  swap1\n  sstore\n  pop\n  0x01\n  add\n  jump(tag_13)\ntag_14:\n  pop\n  swap1\n  jump\ntag_12:\n  swap1\n  jump\t// out\ntag_5:\n  dataSize(sub_0)\n  dup1\n  dataOffset(sub_0)\n  0x00\n  codecopy\n  0x00\n  return\nstop\ndata_d99d57b2a63a8e679ec4622c09c3ee1dfea65c927b069900ecc6db64f0c663c9 6466646664666466414847484744534844424748534453495347424f51425549484b4a425549534348736466647366535353535353445344534453445344\n\nsub_0: assembly {\n        /* \"contracts/demo1.sol\":92:12463  contract Demo1{\r... */\n      mstore(0x40, 0x80)\n      callvalue\n        /* \"--CODEGEN--\":8:17   */\n      dup1\n        /* \"--CODEGEN--\":5:7   */\n      iszero\n      tag_1\n      jumpi\n        /* \"--CODEGEN--\":30:31   */\n      0x00\n        /* \"--CODEGEN--\":27:28   */\n      dup1\n        /* \"--CODEGEN--\":20:32   */\n      revert\n        /* \"--CODEGEN--\":5:7   */\n    tag_1:\n        /* \"contracts/demo1.sol\":92:12463  contract Demo1{\r... */\n      pop\n      jumpi(tag_2, lt(calldatasize, 0x04))\n      shr(0xe0, calldataload(0x00))\n      dup1\n      0x2eed4066\n      eq\n      tag_3\n      jumpi\n      dup1\n      0x3aeee938\n      eq\n      tag_4\n      jumpi\n      dup1\n      0x6114ceca\n      eq\n      tag_5\n      jumpi\n      dup1\n      0xea55583e\n      eq\n      tag_6\n      jumpi\n    tag_2:\n      0x00\n      dup1\n      revert\n        /* \"contracts/demo1.sol\":436:553  function getData(uint32 code) public view returns(bytes memory){\r... */\n    tag_3:\n      tag_7\n      0x04\n      dup1\n      calldatasize\n      sub\n        /* \"--CODEGEN--\":13:15   */\n      0x20\n        /* \"--CODEGEN--\":8:11   */\n      dup2\n        /* \"--CODEGEN--\":5:16   */\n      lt\n        /* \"--CODEGEN--\":2:4   */\n      iszero\n      tag_8\n      jumpi\n        /* \"--CODEGEN--\":29:30   */\n      0x00\n        /* \"--CODEGEN--\":26:27   */\n      dup1\n        /* \"--CODEGEN--\":19:31   */\n      revert\n        /* \"--CODEGEN--\":2:4   */\n    tag_8:\n        /* \"contracts/demo1.sol\":436:553  function getData(uint32 code) public view returns(bytes memory){\r... */\n      dup2\n      add\n      swap1\n      dup1\n      dup1\n      calldataload\n      0xffffffff\n      and\n      swap1\n      0x20\n      add\n      swap1\n      swap3\n      swap2\n      swap1\n      pop\n      pop\n      pop\n      tag_9\n      jump\t// in\n    tag_7:\n      mload(0x40)\n      dup1\n      dup1\n      0x20\n      add\n      dup3\n      dup2\n      sub\n      dup3\n      mstore\n      dup4\n      dup2\n      dup2\n      mload\n      dup2\n      mstore\n      0x20\n      add\n      swap2\n      pop\n      dup1\n      mload\n      swap1\n      0x20\n      add\n      swap1\n      dup1\n      dup4\n      dup4\n        /* \"--CODEGEN--\":23:24   */\n      0x00\n        /* \"--CODEGEN--\":8:108   */\n    tag_10:\n        /* \"--CODEGEN--\":33:36   */\n      dup4\n        /* \"--CODEGEN--\":30:31   */\n      dup2\n        /* \"--CODEGEN--\":27:37   */\n      lt\n        /* \"--CODEGEN--\":8:108   */\n      iszero\n      tag_12\n      jumpi\n        /* \"--CODEGEN--\":99:100   */\n      dup1\n        /* \"--CODEGEN--\":94:97   */\n      dup3\n        /* \"--CODEGEN--\":90:101   */\n      add\n        /* \"--CODEGEN--\":84:102   */\n      mload\n        /* \"--CODEGEN--\":80:81   */\n      dup2\n        /* \"--CODEGEN--\":75:78   */\n      dup5\n        /* \"--CODEGEN--\":71:82   */\n      add\n        /* \"--CODEGEN--\":64:103   */\n      mstore\n        /* \"--CODEGEN--\":52:54   */\n      0x20\n        /* \"--CODEGEN--\":49:50   */\n      dup2\n        /* \"--CODEGEN--\":45:55   */\n      add\n        /* \"--CODEGEN--\":40:55   */\n      swap1\n      pop\n        /* \"--CODEGEN--\":8:108   */\n      jump(tag_10)\n    tag_12:\n        /* \"--CODEGEN--\":12:26   */\n      pop\n        /* \"contracts/demo1.sol\":436:553  function getData(uint32 code) public view returns(bytes memory){\r... */\n      pop\n      pop\n      pop\n      swap1\n      pop\n      swap1\n      dup2\n      add\n      swap1\n      0x1f\n      and\n      dup1\n      iszero\n      tag_13\n      jumpi\n      dup1\n      dup3\n      sub\n      dup1\n      mload\n      0x01\n      dup4\n      0x20\n      sub\n      0x0100\n      exp\n      sub\n      not\n      and\n      dup2\n      mstore\n      0x20\n      add\n      swap2\n      pop\n    tag_13:\n      pop\n      swap3\n      pop\n      pop\n      pop\n      mload(0x40)\n      dup1\n      swap2\n      sub\n      swap1\n      return\n        /* \"contracts/demo1.sol\":214:304  bytes public bytesDemo2 = \"dfdfdfdfAHGHGDSHDBGHSDSISGBOQBUIHKJBUISCHsdfdsfSSSSSSDSDSDSDSD\" */\n    tag_4:\n      tag_14\n      tag_15\n      jump\t// in\n    tag_14:\n      mload(0x40)\n      dup1\n      dup1\n      0x20\n      add\n      dup3\n      dup2\n      sub\n      dup3\n      mstore\n      dup4\n      dup2\n      dup2\n      mload\n      dup2\n      mstore\n      0x20\n      add\n      swap2\n      pop\n      dup1\n      mload\n      swap1\n      0x20\n      add\n      swap1\n      dup1\n      dup4\n      dup4\n        /* \"--CODEGEN--\":23:24   */\n      0x00\n        /* \"--CODEGEN--\":8:108   */\n    tag_16:\n        /* \"--CODEGEN--\":33:36   */\n      dup4\n        /* \"--CODEGEN--\":30:31   */\n      dup2\n        /* \"--CODEGEN--\":27:37   */\n      lt\n        /* \"--CODEGEN--\":8:108   */\n      iszero\n      tag_18\n      jumpi\n        /* \"--CODEGEN--\":99:100   */\n      dup1\n        /* \"--CODEGEN--\":94:97   */\n      dup3\n        /* \"--CODEGEN--\":90:101   */\n      add\n        /* \"--CODEGEN--\":84:102   */\n      mload\n        /* \"--CODEGEN--\":80:81   */\n      dup2\n        /* \"--CODEGEN--\":75:78   */\n      dup5\n        /* \"--CODEGEN--\":71:82   */\n      add\n        /* \"--CODEGEN--\":64:103   */\n      mstore\n        /* \"--CODEGEN--\":52:54   */\n      0x20\n        /* \"--CODEGEN--\":49:50   */\n      dup2\n        /* \"--CODEGEN--\":45:55   */\n      add\n        /* \"--CODEGEN--\":40:55   */\n      swap1\n      pop\n        /* \"--CODEGEN--\":8:108   */\n      jump(tag_16)\n    tag_18:\n        /* \"--CODEGEN--\":12:26   */\n      pop\n        /* \"contracts/demo1.sol\":214:304  bytes public bytesDemo2 = \"dfdfdfdfAHGHGDSHDBGHSDSISGBOQBUIHKJBUISCHsdfdsfSSSSSSDSDSDSDSD\" */\n      pop\n      pop\n      pop\n      swap1\n      pop\n      swap1\n      dup2\n      add\n      swap1\n      0x1f\n      and\n      dup1\n      iszero\n      tag_19\n      jumpi\n      dup1\n      dup3\n      sub\n      dup1\n      mload\n      0x01\n      dup4\n      0x20\n      sub\n      0x0100\n      exp\n      sub\n      not\n      and\n      dup2\n      mstore\n      0x20\n      add\n      swap2\n      pop\n    tag_19:\n      pop\n      swap3\n      pop\n      pop\n      pop\n      mload(0x40)\n      dup1\n      swap2\n      sub\n      swap1\n      return\n        /* \"contracts/demo1.sol\":313:428  function getLength(bytes memory _postBytes) public view returns(uint256){\r... */\n    tag_5:\n      tag_20\n      0x04\n      dup1\n      calldatasize\n      sub\n        /* \"--CODEGEN--\":13:15   */\n      0x20\n        /* \"--CODEGEN--\":8:11   */\n      dup2\n        /* \"--CODEGEN--\":5:16   */\n      lt\n        /* \"--CODEGEN--\":2:4   */\n      iszero\n      tag_21\n      jumpi\n        /* \"--CODEGEN--\":29:30   */\n      0x00\n        /* \"--CODEGEN--\":26:27   */\n      dup1\n        /* \"--CODEGEN--\":19:31   */\n      revert\n        /* \"--CODEGEN--\":2:4   */\n    tag_21:\n        /* \"contracts/demo1.sol\":313:428  function getLength(bytes memory _postBytes) public view returns(uint256){\r... */\n      dup2\n      add\n      swap1\n      dup1\n      dup1\n      calldataload\n      swap1\n      0x20\n      add\n      swap1\n        /* \"--CODEGEN--\":21:32   */\n      0x0100000000\n        /* \"--CODEGEN--\":8:19   */\n      dup2\n        /* \"--CODEGEN--\":5:33   */\n      gt\n        /* \"--CODEGEN--\":2:4   */\n      iszero\n      tag_22\n      jumpi\n        /* \"--CODEGEN--\":46:47   */\n      0x00\n        /* \"--CODEGEN--\":43:44   */\n      dup1\n        /* \"--CODEGEN--\":36:48   */\n      revert\n        /* \"--CODEGEN--\":2:4   */\n    tag_22:\n        /* \"contracts/demo1.sol\":313:428  function getLength(bytes memory _postBytes) public view returns(uint256){\r... */\n      dup3\n      add\n        /* \"--CODEGEN--\":35:44   */\n      dup4\n        /* \"--CODEGEN--\":28:32   */\n      0x20\n        /* \"--CODEGEN--\":12:26   */\n      dup3\n        /* \"--CODEGEN--\":8:33   */\n      add\n        /* \"--CODEGEN--\":5:45   */\n      gt\n        /* \"--CODEGEN--\":2:4   */\n      iszero\n      tag_23\n      jumpi\n        /* \"--CODEGEN--\":58:59   */\n      0x00\n        /* \"--CODEGEN--\":55:56   */\n      dup1\n        /* \"--CODEGEN--\":48:60   */\n      revert\n        /* \"--CODEGEN--\":2:4   */\n    tag_23:\n        /* \"contracts/demo1.sol\":313:428  function getLength(bytes memory _postBytes) public view returns(uint256){\r... */\n      dup1\n      calldataload\n      swap1\n      0x20\n      add\n      swap2\n        /* \"--CODEGEN--\":100:109   */\n      dup5\n        /* \"--CODEGEN--\":95:96   */\n      0x01\n        /* \"--CODEGEN--\":81:93   */\n      dup4\n        /* \"--CODEGEN--\":77:97   */\n      mul\n        /* \"--CODEGEN--\":67:75   */\n      dup5\n        /* \"--CODEGEN--\":63:98   */\n      add\n        /* \"--CODEGEN--\":60:110   */\n      gt\n        /* \"--CODEGEN--\":39:50   */\n      0x0100000000\n        /* \"--CODEGEN--\":25:37   */\n      dup4\n        /* \"--CODEGEN--\":22:51   */\n      gt\n        /* \"--CODEGEN--\":11:118   */\n      or\n        /* \"--CODEGEN--\":8:10   */\n      iszero\n      tag_24\n      jumpi\n        /* \"--CODEGEN--\":131:132   */\n      0x00\n        /* \"--CODEGEN--\":128:129   */\n      dup1\n        /* \"--CODEGEN--\":121:133   */\n      revert\n        /* \"--CODEGEN--\":8:10   */\n    tag_24:\n        /* \"contracts/demo1.sol\":313:428  function getLength(bytes memory _postBytes) public view returns(uint256){\r... */\n      swap2\n      swap1\n      dup1\n      dup1\n      0x1f\n      add\n      0x20\n      dup1\n      swap2\n      div\n      mul\n      0x20\n      add\n      mload(0x40)\n      swap1\n      dup2\n      add\n      0x40\n      mstore\n      dup1\n      swap4\n      swap3\n      swap2\n      swap1\n      dup2\n      dup2\n      mstore\n      0x20\n      add\n      dup4\n      dup4\n        /* \"--CODEGEN--\":30:33   */\n      dup1\n        /* \"--CODEGEN--\":22:28   */\n      dup3\n        /* \"--CODEGEN--\":14:20   */\n      dup5\n        /* \"--CODEGEN--\":1:34   */\n      calldatacopy\n        /* \"--CODEGEN--\":99:100   */\n      0x00\n        /* \"--CODEGEN--\":93:96   */\n      dup2\n        /* \"--CODEGEN--\":85:91   */\n      dup5\n        /* \"--CODEGEN--\":81:97   */\n      add\n        /* \"--CODEGEN--\":74:101   */\n      mstore\n        /* \"--CODEGEN--\":137:141   */\n      0x1f\n        /* \"--CODEGEN--\":133:142   */\n      not\n        /* \"--CODEGEN--\":126:130   */\n      0x1f\n        /* \"--CODEGEN--\":121:124   */\n      dup3\n        /* \"--CODEGEN--\":117:131   */\n      add\n        /* \"--CODEGEN--\":113:143   */\n      and\n        /* \"--CODEGEN--\":106:143   */\n      swap1\n      pop\n        /* \"--CODEGEN--\":169:172   */\n      dup1\n        /* \"--CODEGEN--\":161:167   */\n      dup4\n        /* \"--CODEGEN--\":157:173   */\n      add\n        /* \"--CODEGEN--\":147:173   */\n      swap3\n      pop\n        /* \"contracts/demo1.sol\":313:428  function getLength(bytes memory _postBytes) public view returns(uint256){\r... */\n      pop\n      pop\n      pop\n      pop\n      pop\n      pop\n      swap2\n      swap3\n      swap2\n      swap3\n      swap1\n      pop\n      pop\n      pop\n      tag_25\n      jump\t// in\n    tag_20:\n      mload(0x40)\n      dup1\n      dup3\n      dup2\n      mstore\n      0x20\n      add\n      swap2\n      pop\n      pop\n      mload(0x40)\n      dup1\n      swap2\n      sub\n      swap1\n      return\n        /* \"contracts/demo1.sol\":173:205  bytes public bytesDemo1 = \"8347\" */\n    tag_6:\n      tag_26\n      tag_27\n      jump\t// in\n    tag_26:\n      mload(0x40)\n      dup1\n      dup1\n      0x20\n      add\n      dup3\n      dup2\n      sub\n      dup3\n      mstore\n      dup4\n      dup2\n      dup2\n      mload\n      dup2\n      mstore\n      0x20\n      add\n      swap2\n      pop\n      dup1\n      mload\n      swap1\n      0x20\n      add\n      swap1\n      dup1\n      dup4\n      dup4\n        /* \"--CODEGEN--\":23:24   */\n      0x00\n        /* \"--CODEGEN--\":8:108   */\n    tag_28:\n        /* \"--CODEGEN--\":33:36   */\n      dup4\n        /* \"--CODEGEN--\":30:31   */\n      dup2\n        /* \"--CODEGEN--\":27:37   */\n      lt\n        /* \"--CODEGEN--\":8:108   */\n      iszero\n      tag_30\n      jumpi\n        /* \"--CODEGEN--\":99:100   */\n      dup1\n        /* \"--CODEGEN--\":94:97   */\n      dup3\n        /* \"--CODEGEN--\":90:101   */\n      add\n        /* \"--CODEGEN--\":84:102   */\n      mload\n        /* \"--CODEGEN--\":80:81   */\n      dup2\n        /* \"--CODEGEN--\":75:78   */\n      dup5\n        /* \"--CODEGEN--\":71:82   */\n      add\n        /* \"--CODEGEN--\":64:103   */\n      mstore\n        /* \"--CODEGEN--\":52:54   */\n      0x20\n        /* \"--CODEGEN--\":49:50   */\n      dup2\n        /* \"--CODEGEN--\":45:55   */\n      add\n        /* \"--CODEGEN--\":40:55   */\n      swap1\n      pop\n        /* \"--CODEGEN--\":8:108   */\n      jump(tag_28)\n    tag_30:\n        /* \"--CODEGEN--\":12:26   */\n      pop\n        /* \"contracts/demo1.sol\":173:205  bytes public bytesDemo1 = \"8347\" */\n      pop\n      pop\n      pop\n      swap1\n      pop\n      swap1\n      dup2\n      add\n      swap1\n      0x1f\n      and\n      dup1\n      iszero\n      tag_31\n      jumpi\n      dup1\n      dup3\n      sub\n      dup1\n      mload\n      0x01\n      dup4\n      0x20\n      sub\n      0x0100\n      exp\n      sub\n      not\n      and\n      dup2\n      mstore\n      0x20\n      add\n      swap2\n      pop\n    tag_31:\n      pop\n      swap3\n      pop\n      pop\n      pop\n      mload(0x40)\n      dup1\n      swap2\n      sub\n      swap1\n      return\n        /* \"contracts/demo1.sol\":436:553  function getData(uint32 code) public view returns(bytes memory){\r... */\n    tag_9:\n        /* \"contracts/demo1.sol\":486:498  bytes memory */\n      0x60\n        /* \"contracts/demo1.sol\":517:545  encodeCommonAckPackage(code) */\n      tag_33\n        /* \"contracts/demo1.sol\":540:544  code */\n      dup3\n        /* \"contracts/demo1.sol\":517:539  encodeCommonAckPackage */\n      tag_34\n        /* \"contracts/demo1.sol\":517:545  encodeCommonAckPackage(code) */\n      jump\t// in\n    tag_33:\n        /* \"contracts/demo1.sol\":510:545  return encodeCommonAckPackage(code) */\n      swap1\n      pop\n        /* \"contracts/demo1.sol\":436:553  function getData(uint32 code) public view returns(bytes memory){\r... */\n      swap2\n      swap1\n      pop\n      jump\t// out\n        /* \"contracts/demo1.sol\":214:304  bytes public bytesDemo2 = \"dfdfdfdfAHGHGDSHDBGHSDSISGBOQBUIHKJBUISCHsdfdsfSSSSSSDSDSDSDSD\" */\n    tag_15:\n      0x01\n      dup1\n      sload\n      0x01\n      dup2\n      0x01\n      and\n      iszero\n      0x0100\n      mul\n      sub\n      and\n      0x02\n      swap1\n      div\n      dup1\n      0x1f\n      add\n      0x20\n      dup1\n      swap2\n      div\n      mul\n      0x20\n      add\n      mload(0x40)\n      swap1\n      dup2\n      add\n      0x40\n      mstore\n      dup1\n      swap3\n      swap2\n      swap1\n      dup2\n      dup2\n      mstore\n      0x20\n      add\n      dup3\n      dup1\n      sload\n      0x01\n      dup2\n      0x01\n      and\n      iszero\n      0x0100\n      mul\n      sub\n      and\n      0x02\n      swap1\n      div\n      dup1\n      iszero\n      tag_35\n      jumpi\n      dup1\n      0x1f\n      lt\n      tag_36\n      jumpi\n      0x0100\n      dup1\n      dup4\n      sload\n      div\n      mul\n      dup4\n      mstore\n      swap2\n      0x20\n      add\n      swap2\n      jump(tag_35)\n    tag_36:\n      dup3\n      add\n      swap2\n      swap1\n      0x00\n      mstore\n      keccak256(0x00, 0x20)\n      swap1\n    tag_37:\n      dup2\n      sload\n      dup2\n      mstore\n      swap1\n      0x01\n      add\n      swap1\n      0x20\n      add\n      dup1\n      dup4\n      gt\n      tag_37\n      jumpi\n      dup3\n      swap1\n      sub\n      0x1f\n      and\n      dup3\n      add\n      swap2\n    tag_35:\n      pop\n      pop\n      pop\n      pop\n      pop\n      dup2\n      jump\t// out\n        /* \"contracts/demo1.sol\":313:428  function getLength(bytes memory _postBytes) public view returns(uint256){\r... */\n    tag_25:\n        /* \"contracts/demo1.sol\":377:384  uint256 */\n      0x00\n        /* \"contracts/demo1.sol\":403:413  _postBytes */\n      dup2\n        /* \"contracts/demo1.sol\":403:420  _postBytes.length */\n      mload\n        /* \"contracts/demo1.sol\":396:420  return _postBytes.length */\n      swap1\n      pop\n        /* \"contracts/demo1.sol\":313:428  function getLength(bytes memory _postBytes) public view returns(uint256){\r... */\n      swap2\n      swap1\n      pop\n      jump\t// out\n        /* \"contracts/demo1.sol\":173:205  bytes public bytesDemo1 = \"8347\" */\n    tag_27:\n      0x00\n      dup1\n      sload\n      0x01\n      dup2\n      0x01\n      and\n      iszero\n      0x0100\n      mul\n      sub\n      and\n      0x02\n      swap1\n      div\n      dup1\n      0x1f\n      add\n      0x20\n      dup1\n      swap2\n      div\n      mul\n      0x20\n      add\n      mload(0x40)\n      swap1\n      dup2\n      add\n      0x40\n      mstore\n      dup1\n      swap3\n      swap2\n      swap1\n      dup2\n      dup2\n      mstore\n      0x20\n      add\n      dup3\n      dup1\n      sload\n      0x01\n      dup2\n      0x01\n      and\n      iszero\n      0x0100\n      mul\n      sub\n      and\n      0x02\n      swap1\n      div\n      dup1\n      iszero\n      tag_39\n      jumpi\n      dup1\n      0x1f\n      lt\n      tag_40\n      jumpi\n      0x0100\n      dup1\n      dup4\n      sload\n      div\n      mul\n      dup4\n      mstore\n      swap2\n      0x20\n      add\n      swap2\n      jump(tag_39)\n    tag_40:\n      dup3\n      add\n      swap2\n      swap1\n      0x00\n      mstore\n      keccak256(0x00, 0x20)\n      swap1\n    tag_41:\n      dup2\n      sload\n      dup2\n      mstore\n      swap1\n      0x01\n      add\n      swap1\n      0x20\n      add\n      dup1\n      dup4\n      gt\n      tag_41\n      jumpi\n      dup3\n      swap1\n      sub\n      0x1f\n      and\n      dup3\n      add\n      swap2\n    tag_39:\n      pop\n      pop\n      pop\n      pop\n      pop\n      dup2\n      jump\t// out\n        /* \"contracts/demo1.sol\":561:792  function encodeCommonAckPackage(uint32 code) internal pure returns (bytes memory) {\r... */\n    tag_34:\n        /* \"contracts/demo1.sol\":629:641  bytes memory */\n      0x60\n        /* \"contracts/demo1.sol\":654:677  bytes[] memory elements */\n      dup1\n        /* \"contracts/demo1.sol\":692:693  1 */\n      0x01\n        /* \"contracts/demo1.sol\":680:694  new bytes[](1) */\n      mload(0x40)\n      swap1\n      dup1\n      dup3\n      mstore\n      dup1\n      0x20\n      mul\n      0x20\n      add\n      dup3\n      add\n      0x40\n      mstore\n      dup1\n      iszero\n      tag_43\n      jumpi\n      dup2\n      0x20\n      add\n    tag_44:\n      0x60\n      dup2\n      mstore\n      0x20\n      add\n      swap1\n      0x01\n      swap1\n      sub\n      swap1\n      dup2\n      tag_44\n      jumpi\n      swap1\n      pop\n    tag_43:\n      pop\n        /* \"contracts/demo1.sol\":654:694  bytes[] memory elements = new bytes[](1) */\n      swap1\n      pop\n        /* \"contracts/demo1.sol\":719:745  uint256(code).encodeUint() */\n      tag_45\n        /* \"contracts/demo1.sol\":727:731  code */\n      dup4\n        /* \"contracts/demo1.sol\":719:732  uint256(code) */\n      0xffffffff\n      and\n        /* \"contracts/demo1.sol\":719:743  uint256(code).encodeUint */\n      tag_46\n        /* \"contracts/demo1.sol\":719:745  uint256(code).encodeUint() */\n      jump\t// in\n    tag_45:\n        /* \"contracts/demo1.sol\":705:713  elements */\n      dup2\n        /* \"contracts/demo1.sol\":714:715  0 */\n      0x00\n        /* \"contracts/demo1.sol\":705:716  elements[0] */\n      dup2\n      mload\n      dup2\n      lt\n      tag_47\n      jumpi\n      invalid\n    tag_47:\n      0x20\n      mul\n      0x20\n      add\n      add\n        /* \"contracts/demo1.sol\":705:745  elements[0] = uint256(code).encodeUint() */\n      dup2\n      swap1\n      mstore\n      pop\n        /* \"contracts/demo1.sol\":763:784  elements.encodeList() */\n      tag_48\n        /* \"contracts/demo1.sol\":763:771  elements */\n      dup2\n        /* \"contracts/demo1.sol\":763:782  elements.encodeList */\n      tag_49\n        /* \"contracts/demo1.sol\":763:784  elements.encodeList() */\n      jump\t// in\n    tag_48:\n        /* \"contracts/demo1.sol\":756:784  return elements.encodeList() */\n      swap2\n      pop\n      pop\n        /* \"contracts/demo1.sol\":561:792  function encodeCommonAckPackage(uint32 code) internal pure returns (bytes memory) {\r... */\n      swap2\n      swap1\n      pop\n      jump\t// out\n        /* \"contracts/RLPEncode.sol\":1198:1319  function encodeUint(uint self) internal pure returns (bytes memory) {\r... */\n    tag_46:\n        /* \"contracts/RLPEncode.sol\":1252:1264  bytes memory */\n      0x60\n        /* \"contracts/RLPEncode.sol\":1284:1311  encodeBytes(toBinary(self)) */\n      tag_51\n        /* \"contracts/RLPEncode.sol\":1296:1310  toBinary(self) */\n      tag_52\n        /* \"contracts/RLPEncode.sol\":1305:1309  self */\n      dup4\n        /* \"contracts/RLPEncode.sol\":1296:1304  toBinary */\n      tag_53\n        /* \"contracts/RLPEncode.sol\":1296:1310  toBinary(self) */\n      jump\t// in\n    tag_52:\n        /* \"contracts/RLPEncode.sol\":1284:1295  encodeBytes */\n      tag_54\n        /* \"contracts/RLPEncode.sol\":1284:1311  encodeBytes(toBinary(self)) */\n      jump\t// in\n    tag_51:\n        /* \"contracts/RLPEncode.sol\":1277:1311  return encodeBytes(toBinary(self)) */\n      swap1\n      pop\n        /* \"contracts/RLPEncode.sol\":1198:1319  function encodeUint(uint self) internal pure returns (bytes memory) {\r... */\n      swap2\n      swap1\n      pop\n      jump\t// out\n        /* \"contracts/RLPEncode.sol\":2125:2524  function encodeList(bytes[] memory self) internal pure returns (bytes memory) {\r... */\n    tag_49:\n        /* \"contracts/RLPEncode.sol\":2189:2201  bytes memory */\n      0x60\n        /* \"contracts/RLPEncode.sol\":2233:2234  0 */\n      0x00\n        /* \"contracts/RLPEncode.sol\":2218:2222  self */\n      dup3\n        /* \"contracts/RLPEncode.sol\":2218:2229  self.length */\n      mload\n        /* \"contracts/RLPEncode.sol\":2218:2234  self.length == 0 */\n      eq\n        /* \"contracts/RLPEncode.sol\":2214:2282  if (self.length == 0) {\r... */\n      iszero\n      tag_56\n      jumpi\n        /* \"contracts/RLPEncode.sol\":2268:2269  0 */\n      0x00\n        /* \"contracts/RLPEncode.sol\":2258:2270  new bytes(0) */\n      mload(0x40)\n      swap1\n      dup1\n      dup3\n      mstore\n      dup1\n      0x1f\n      add\n      not(0x1f)\n      and\n      0x20\n      add\n      dup3\n      add\n      0x40\n      mstore\n      dup1\n      iszero\n      tag_57\n      jumpi\n      dup2\n      0x20\n      add\n        /* \"--CODEGEN--\":29:30   */\n      0x01\n        /* \"--CODEGEN--\":21:27   */\n      dup3\n        /* \"--CODEGEN--\":17:31   */\n      mul\n        /* \"--CODEGEN--\":116:120   */\n      dup1\n        /* \"--CODEGEN--\":104:114   */\n      codesize\n        /* \"--CODEGEN--\":96:102   */\n      dup4\n        /* \"--CODEGEN--\":87:121   */\n      codecopy\n        /* \"--CODEGEN--\":147:151   */\n      dup1\n        /* \"--CODEGEN--\":139:145   */\n      dup3\n        /* \"--CODEGEN--\":135:152   */\n      add\n        /* \"--CODEGEN--\":125:152   */\n      swap2\n      pop\n        /* \"--CODEGEN--\":0:156   */\n      pop\n        /* \"contracts/RLPEncode.sol\":2258:2270  new bytes(0) */\n      swap1\n      pop\n    tag_57:\n      pop\n        /* \"contracts/RLPEncode.sol\":2251:2270  return new bytes(0) */\n      swap1\n      pop\n      jump(tag_55)\n        /* \"contracts/RLPEncode.sol\":2214:2282  if (self.length == 0) {\r... */\n    tag_56:\n        /* \"contracts/RLPEncode.sol\":2292:2312  bytes memory payload */\n      0x60\n        /* \"contracts/RLPEncode.sol\":2315:2319  self */\n      dup3\n        /* \"contracts/RLPEncode.sol\":2320:2321  0 */\n      0x00\n        /* \"contracts/RLPEncode.sol\":2315:2322  self[0] */\n      dup2\n      mload\n      dup2\n      lt\n      tag_58\n      jumpi\n      invalid\n    tag_58:\n      0x20\n      mul\n      0x20\n      add\n      add\n      mload\n        /* \"contracts/RLPEncode.sol\":2292:2322  bytes memory payload = self[0] */\n      swap1\n      pop\n        /* \"contracts/RLPEncode.sol\":2338:2344  uint i */\n      0x00\n        /* \"contracts/RLPEncode.sol\":2347:2348  1 */\n      0x01\n        /* \"contracts/RLPEncode.sol\":2338:2348  uint i = 1 */\n      swap1\n      pop\n        /* \"contracts/RLPEncode.sol\":2333:2437  for (uint i = 1; i < self.length; i++) {\r... */\n    tag_59:\n        /* \"contracts/RLPEncode.sol\":2354:2358  self */\n      dup4\n        /* \"contracts/RLPEncode.sol\":2354:2365  self.length */\n      mload\n        /* \"contracts/RLPEncode.sol\":2350:2351  i */\n      dup2\n        /* \"contracts/RLPEncode.sol\":2350:2365  i < self.length */\n      lt\n        /* \"contracts/RLPEncode.sol\":2333:2437  for (uint i = 1; i < self.length; i++) {\r... */\n      iszero\n      tag_60\n      jumpi\n        /* \"contracts/RLPEncode.sol\":2397:2425  mergeBytes(payload, self[i]) */\n      tag_62\n        /* \"contracts/RLPEncode.sol\":2408:2415  payload */\n      dup3\n        /* \"contracts/RLPEncode.sol\":2417:2421  self */\n      dup6\n        /* \"contracts/RLPEncode.sol\":2422:2423  i */\n      dup4\n        /* \"contracts/RLPEncode.sol\":2417:2424  self[i] */\n      dup2\n      mload\n      dup2\n      lt\n      tag_63\n      jumpi\n      invalid\n    tag_63:\n      0x20\n      mul\n      0x20\n      add\n      add\n      mload\n        /* \"contracts/RLPEncode.sol\":2397:2407  mergeBytes */\n      tag_64\n        /* \"contracts/RLPEncode.sol\":2397:2425  mergeBytes(payload, self[i]) */\n      jump\t// in\n    tag_62:\n        /* \"contracts/RLPEncode.sol\":2387:2425  payload = mergeBytes(payload, self[i]) */\n      swap2\n      pop\n        /* \"contracts/RLPEncode.sol\":2367:2370  i++ */\n      dup1\n      dup1\n      0x01\n      add\n      swap2\n      pop\n      pop\n        /* \"contracts/RLPEncode.sol\":2333:2437  for (uint i = 1; i < self.length; i++) {\r... */\n      jump(tag_59)\n    tag_60:\n      pop\n        /* \"contracts/RLPEncode.sol\":2454:2516  mergeBytes(encodeLength(payload.length, LIST_OFFSET), payload) */\n      tag_65\n        /* \"contracts/RLPEncode.sol\":2465:2506  encodeLength(payload.length, LIST_OFFSET) */\n      tag_66\n        /* \"contracts/RLPEncode.sol\":2478:2485  payload */\n      dup3\n        /* \"contracts/RLPEncode.sol\":2478:2492  payload.length */\n      mload\n        /* \"contracts/RLPEncode.sol\":133:137  0xc0 */\n      0xc0\n        /* \"contracts/RLPEncode.sol\":2465:2506  encodeLength(payload.length, LIST_OFFSET) */\n      0xff\n      and\n        /* \"contracts/RLPEncode.sol\":2465:2477  encodeLength */\n      tag_67\n        /* \"contracts/RLPEncode.sol\":2465:2506  encodeLength(payload.length, LIST_OFFSET) */\n      jump\t// in\n    tag_66:\n        /* \"contracts/RLPEncode.sol\":2508:2515  payload */\n      dup3\n        /* \"contracts/RLPEncode.sol\":2454:2464  mergeBytes */\n      tag_64\n        /* \"contracts/RLPEncode.sol\":2454:2516  mergeBytes(encodeLength(payload.length, LIST_OFFSET), payload) */\n      jump\t// in\n    tag_65:\n        /* \"contracts/RLPEncode.sol\":2447:2516  return mergeBytes(encodeLength(payload.length, LIST_OFFSET), payload) */\n      swap2\n      pop\n      pop\n        /* \"contracts/RLPEncode.sol\":2125:2524  function encodeList(bytes[] memory self) internal pure returns (bytes memory) {\r... */\n    tag_55:\n      swap2\n      swap1\n      pop\n      jump\t// out\n        /* \"contracts/RLPEncode.sol\":6574:7362  function toBinary(uint x) internal pure returns (bytes memory) {\r... */\n    tag_53:\n        /* \"contracts/RLPEncode.sol\":6623:6635  bytes memory */\n      0x60\n        /* \"contracts/RLPEncode.sol\":6648:6662  bytes memory b */\n      dup1\n        /* \"contracts/RLPEncode.sol\":6675:6677  32 */\n      0x20\n        /* \"contracts/RLPEncode.sol\":6665:6678  new bytes(32) */\n      mload(0x40)\n      swap1\n      dup1\n      dup3\n      mstore\n      dup1\n      0x1f\n      add\n      not(0x1f)\n      and\n      0x20\n      add\n      dup3\n      add\n      0x40\n      mstore\n      dup1\n      iszero\n      tag_69\n      jumpi\n      dup2\n      0x20\n      add\n        /* \"--CODEGEN--\":29:30   */\n      0x01\n        /* \"--CODEGEN--\":21:27   */\n      dup3\n        /* \"--CODEGEN--\":17:31   */\n      mul\n        /* \"--CODEGEN--\":116:120   */\n      dup1\n        /* \"--CODEGEN--\":104:114   */\n      codesize\n        /* \"--CODEGEN--\":96:102   */\n      dup4\n        /* \"--CODEGEN--\":87:121   */\n      codecopy\n        /* \"--CODEGEN--\":147:151   */\n      dup1\n        /* \"--CODEGEN--\":139:145   */\n      dup3\n        /* \"--CODEGEN--\":135:152   */\n      add\n        /* \"--CODEGEN--\":125:152   */\n      swap2\n      pop\n        /* \"--CODEGEN--\":0:156   */\n      pop\n        /* \"contracts/RLPEncode.sol\":6665:6678  new bytes(32) */\n      swap1\n      pop\n    tag_69:\n      pop\n        /* \"contracts/RLPEncode.sol\":6648:6678  bytes memory b = new bytes(32) */\n      swap1\n      pop\n        /* \"contracts/RLPEncode.sol\":6732:6733  x */\n      dup3\n        /* \"contracts/RLPEncode.sol\":6727:6729  32 */\n      0x20\n        /* \"contracts/RLPEncode.sol\":6724:6725  b */\n      dup3\n        /* \"contracts/RLPEncode.sol\":6720:6730  add(b, 32) */\n      add\n        /* \"contracts/RLPEncode.sol\":6713:6734  mstore(add(b, 32), x) */\n      mstore\n        /* \"contracts/RLPEncode.sol\":6755:6761  uint i */\n      0x00\n        /* \"contracts/RLPEncode.sol\":6850:6851  0 */\n      dup1\n        /* \"contracts/RLPEncode.sol\":6780:6846  0xffffffffffffffffffffffffffffffffffffffffffffffff0000000000000000 */\n      0xffffffffffffffffffffffffffffffffffffffffffffffff0000000000000000\n        /* \"contracts/RLPEncode.sol\":6776:6777  x */\n      dup6\n        /* \"contracts/RLPEncode.sol\":6776:6846  x & 0xffffffffffffffffffffffffffffffffffffffffffffffff0000000000000000 */\n      and\n        /* \"contracts/RLPEncode.sol\":6776:6851  x & 0xffffffffffffffffffffffffffffffffffffffffffffffff0000000000000000 == 0 */\n      eq\n        /* \"contracts/RLPEncode.sol\":6772:7044  if (x & 0xffffffffffffffffffffffffffffffffffffffffffffffff0000000000000000 == 0) {\r... */\n      iszero\n      tag_70\n      jumpi\n        /* \"contracts/RLPEncode.sol\":6872:6874  24 */\n      0x18\n        /* \"contracts/RLPEncode.sol\":6868:6874  i = 24 */\n      swap1\n      pop\n        /* \"contracts/RLPEncode.sol\":6772:7044  if (x & 0xffffffffffffffffffffffffffffffffffffffffffffffff0000000000000000 == 0) {\r... */\n      jump(tag_71)\n    tag_70:\n        /* \"contracts/RLPEncode.sol\":6970:6971  0 */\n      0x00\n        /* \"contracts/RLPEncode.sol\":6900:6966  0xffffffffffffffffffffffffffffffff00000000000000000000000000000000 */\n      0xffffffffffffffffffffffffffffffff00000000000000000000000000000000\n        /* \"contracts/RLPEncode.sol\":6896:6897  x */\n      dup6\n        /* \"contracts/RLPEncode.sol\":6896:6966  x & 0xffffffffffffffffffffffffffffffff00000000000000000000000000000000 */\n      and\n        /* \"contracts/RLPEncode.sol\":6896:6971  x & 0xffffffffffffffffffffffffffffffff00000000000000000000000000000000 == 0 */\n      eq\n        /* \"contracts/RLPEncode.sol\":6892:7044  if (x & 0xffffffffffffffffffffffffffffffff00000000000000000000000000000000 == 0) {\r... */\n      iszero\n      tag_72\n      jumpi\n        /* \"contracts/RLPEncode.sol\":6992:6994  16 */\n      0x10\n        /* \"contracts/RLPEncode.sol\":6988:6994  i = 16 */\n      swap1\n      pop\n        /* \"contracts/RLPEncode.sol\":6892:7044  if (x & 0xffffffffffffffffffffffffffffffff00000000000000000000000000000000 == 0) {\r... */\n      jump(tag_73)\n    tag_72:\n        /* \"contracts/RLPEncode.sol\":7031:7032  0 */\n      0x00\n        /* \"contracts/RLPEncode.sol\":7027:7032  i = 0 */\n      swap1\n      pop\n        /* \"contracts/RLPEncode.sol\":6892:7044  if (x & 0xffffffffffffffffffffffffffffffff00000000000000000000000000000000 == 0) {\r... */\n    tag_73:\n        /* \"contracts/RLPEncode.sol\":6772:7044  if (x & 0xffffffffffffffffffffffffffffffffffffffffffffffff0000000000000000 == 0) {\r... */\n    tag_71:\n        /* \"contracts/RLPEncode.sol\":7054:7155  for (; i < 32; i++) {\r... */\n    tag_74:\n        /* \"contracts/RLPEncode.sol\":7065:7067  32 */\n      0x20\n        /* \"contracts/RLPEncode.sol\":7061:7062  i */\n      dup2\n        /* \"contracts/RLPEncode.sol\":7061:7067  i < 32 */\n      lt\n        /* \"contracts/RLPEncode.sol\":7054:7155  for (; i < 32; i++) {\r... */\n      iszero\n      tag_75\n      jumpi\n        /* \"contracts/RLPEncode.sol\":7101:7102  0 */\n      0x00\n        /* \"contracts/RLPEncode.sol\":7093:7102  b[i] != 0 */\n      0xf8\n      shl\n        /* \"contracts/RLPEncode.sol\":7093:7094  b */\n      dup3\n        /* \"contracts/RLPEncode.sol\":7095:7096  i */\n      dup3\n        /* \"contracts/RLPEncode.sol\":7093:7097  b[i] */\n      dup2\n      mload\n      dup2\n      lt\n      tag_77\n      jumpi\n      invalid\n    tag_77:\n      0x20\n      add\n      add\n      mload\n      0xf8\n      shr\n      0xf8\n      shl\n        /* \"contracts/RLPEncode.sol\":7093:7102  b[i] != 0 */\n      not(0xffffffffffffffffffffffffffffffffffffffffffffffffffffffffffffff)\n      and\n      eq\n        /* \"contracts/RLPEncode.sol\":7089:7144  if (b[i] != 0) {\r... */\n      tag_78\n      jumpi\n        /* \"contracts/RLPEncode.sol\":7123:7128  break */\n      jump(tag_75)\n        /* \"contracts/RLPEncode.sol\":7089:7144  if (b[i] != 0) {\r... */\n    tag_78:\n        /* \"contracts/RLPEncode.sol\":7069:7072  i++ */\n      dup1\n      dup1\n      0x01\n      add\n      swap2\n      pop\n      pop\n        /* \"contracts/RLPEncode.sol\":7054:7155  for (; i < 32; i++) {\r... */\n      jump(tag_74)\n    tag_75:\n        /* \"contracts/RLPEncode.sol\":7165:7176  uint length */\n      0x00\n        /* \"contracts/RLPEncode.sol\":7184:7185  i */\n      dup2\n        /* \"contracts/RLPEncode.sol\":7179:7181  32 */\n      0x20\n        /* \"contracts/RLPEncode.sol\":7179:7185  32 - i */\n      sub\n        /* \"contracts/RLPEncode.sol\":7165:7185  uint length = 32 - i */\n      swap1\n      pop\n        /* \"contracts/RLPEncode.sol\":7196:7211  bytes memory rs */\n      0x60\n        /* \"contracts/RLPEncode.sol\":7224:7230  length */\n      dup2\n        /* \"contracts/RLPEncode.sol\":7214:7231  new bytes(length) */\n      mload(0x40)\n      swap1\n      dup1\n      dup3\n      mstore\n      dup1\n      0x1f\n      add\n      not(0x1f)\n      and\n      0x20\n      add\n      dup3\n      add\n      0x40\n      mstore\n      dup1\n      iszero\n      tag_79\n      jumpi\n      dup2\n      0x20\n      add\n        /* \"--CODEGEN--\":29:30   */\n      0x01\n        /* \"--CODEGEN--\":21:27   */\n      dup3\n        /* \"--CODEGEN--\":17:31   */\n      mul\n        /* \"--CODEGEN--\":116:120   */\n      dup1\n        /* \"--CODEGEN--\":104:114   */\n      codesize\n        /* \"--CODEGEN--\":96:102   */\n      dup4\n        /* \"--CODEGEN--\":87:121   */\n      codecopy\n        /* \"--CODEGEN--\":147:151   */\n      dup1\n        /* \"--CODEGEN--\":139:145   */\n      dup3\n        /* \"--CODEGEN--\":135:152   */\n      add\n        /* \"--CODEGEN--\":125:152   */\n      swap2\n      pop\n        /* \"--CODEGEN--\":0:156   */\n      pop\n        /* \"contracts/RLPEncode.sol\":7214:7231  new bytes(length) */\n      swap1\n      pop\n    tag_79:\n      pop\n        /* \"contracts/RLPEncode.sol\":7196:7231  bytes memory rs = new bytes(length) */\n      swap1\n      pop\n        /* \"contracts/RLPEncode.sol\":7290:7291  x */\n      dup6\n        /* \"contracts/RLPEncode.sol\":7281:7287  length */\n      dup3\n        /* \"contracts/RLPEncode.sol\":7277:7279  rs */\n      dup3\n        /* \"contracts/RLPEncode.sol\":7273:7288  add(rs, length) */\n      add\n        /* \"contracts/RLPEncode.sol\":7266:7292  mstore(add(rs, length), x) */\n      mstore\n        /* \"contracts/RLPEncode.sol\":7317:7323  length */\n      dup2\n        /* \"contracts/RLPEncode.sol\":7313:7315  rs */\n      dup2\n        /* \"contracts/RLPEncode.sol\":7306:7324  mstore(rs, length) */\n      mstore\n        /* \"contracts/RLPEncode.sol\":7352:7354  rs */\n      dup1\n        /* \"contracts/RLPEncode.sol\":7345:7354  return rs */\n      swap5\n      pop\n      pop\n      pop\n      pop\n      pop\n        /* \"contracts/RLPEncode.sol\":6574:7362  function toBinary(uint x) internal pure returns (bytes memory) {\r... */\n      swap2\n      swap1\n      pop\n      jump\t// out\n        /* \"contracts/RLPEncode.sol\":310:560  function encodeBytes(bytes memory self) internal pure returns (bytes memory) {\r... */\n    tag_54:\n        /* \"contracts/RLPEncode.sol\":373:385  bytes memory */\n      0x60\n        /* \"contracts/RLPEncode.sol\":417:418  1 */\n      0x01\n        /* \"contracts/RLPEncode.sol\":402:406  self */\n      dup3\n        /* \"contracts/RLPEncode.sol\":402:413  self.length */\n      mload\n        /* \"contracts/RLPEncode.sol\":402:418  self.length == 1 */\n      eq\n        /* \"contracts/RLPEncode.sol\":402:437  self.length == 1 && self[0] <= 0x7f */\n      dup1\n      iszero\n      tag_81\n      jumpi\n      pop\n        /* \"contracts/RLPEncode.sol\":433:437  0x7f */\n      0x7f\n        /* \"contracts/RLPEncode.sol\":422:437  self[0] <= 0x7f */\n      0xf8\n      shl\n        /* \"contracts/RLPEncode.sol\":422:426  self */\n      dup3\n        /* \"contracts/RLPEncode.sol\":427:428  0 */\n      0x00\n        /* \"contracts/RLPEncode.sol\":422:429  self[0] */\n      dup2\n      mload\n      dup2\n      lt\n      tag_82\n      jumpi\n      invalid\n    tag_82:\n      0x20\n      add\n      add\n      mload\n      0xf8\n      shr\n      0xf8\n      shl\n        /* \"contracts/RLPEncode.sol\":422:437  self[0] <= 0x7f */\n      not(0xffffffffffffffffffffffffffffffffffffffffffffffffffffffffffffff)\n      and\n      gt\n      iszero\n        /* \"contracts/RLPEncode.sol\":402:437  self.length == 1 && self[0] <= 0x7f */\n    tag_81:\n        /* \"contracts/RLPEncode.sol\":398:477  if (self.length == 1 && self[0] <= 0x7f) {\r... */\n      iszero\n      tag_83\n      jumpi\n        /* \"contracts/RLPEncode.sol\":461:465  self */\n      dup2\n        /* \"contracts/RLPEncode.sol\":454:465  return self */\n      swap1\n      pop\n      jump(tag_80)\n        /* \"contracts/RLPEncode.sol\":398:477  if (self.length == 1 && self[0] <= 0x7f) {\r... */\n    tag_83:\n        /* \"contracts/RLPEncode.sol\":494:552  mergeBytes(encodeLength(self.length, STRING_OFFSET), self) */\n      tag_84\n        /* \"contracts/RLPEncode.sol\":505:545  encodeLength(self.length, STRING_OFFSET) */\n      tag_85\n        /* \"contracts/RLPEncode.sol\":518:522  self */\n      dup4\n        /* \"contracts/RLPEncode.sol\":518:529  self.length */\n      mload\n        /* \"contracts/RLPEncode.sol\":93:97  0x80 */\n      0x80\n        /* \"contracts/RLPEncode.sol\":505:545  encodeLength(self.length, STRING_OFFSET) */\n      0xff\n      and\n        /* \"contracts/RLPEncode.sol\":505:517  encodeLength */\n      tag_67\n        /* \"contracts/RLPEncode.sol\":505:545  encodeLength(self.length, STRING_OFFSET) */\n      jump\t// in\n    tag_85:\n        /* \"contracts/RLPEncode.sol\":547:551  self */\n      dup4\n        /* \"contracts/RLPEncode.sol\":494:504  mergeBytes */\n      tag_64\n        /* \"contracts/RLPEncode.sol\":494:552  mergeBytes(encodeLength(self.length, STRING_OFFSET), self) */\n      jump\t// in\n    tag_84:\n        /* \"contracts/RLPEncode.sol\":487:552  return mergeBytes(encodeLength(self.length, STRING_OFFSET), self) */\n      swap1\n      pop\n        /* \"contracts/RLPEncode.sol\":310:560  function encodeBytes(bytes memory self) internal pure returns (bytes memory) {\r... */\n    tag_80:\n      swap2\n      swap1\n      pop\n      jump\t// out\n        /* \"contracts/RLPEncode.sol\":2725:5640  function mergeBytes(\r... */\n    tag_64:\n        /* \"contracts/RLPEncode.sol\":2857:2869  bytes memory */\n      0x60\n        /* \"contracts/RLPEncode.sol\":2887:2909  bytes memory tempBytes */\n      dup1\n        /* \"contracts/RLPEncode.sol\":3089:3093  0x40 */\n      0x40\n        /* \"contracts/RLPEncode.sol\":3083:3094  mload(0x40) */\n      mload\n        /* \"contracts/RLPEncode.sol\":3070:3094  tempBytes := mload(0x40) */\n      swap1\n      pop\n        /* \"contracts/RLPEncode.sol\":3242:3251  _preBytes */\n      dup4\n        /* \"contracts/RLPEncode.sol\":3236:3252  mload(_preBytes) */\n      mload\n        /* \"contracts/RLPEncode.sol\":3284:3290  length */\n      dup1\n        /* \"contracts/RLPEncode.sol\":3273:3282  tempBytes */\n      dup3\n        /* \"contracts/RLPEncode.sol\":3266:3291  mstore(tempBytes, length) */\n      mstore\n        /* \"contracts/RLPEncode.sol\":3519:3523  0x20 */\n      0x20\n        /* \"contracts/RLPEncode.sol\":3508:3517  tempBytes */\n      dup3\n        /* \"contracts/RLPEncode.sol\":3504:3524  add(tempBytes, 0x20) */\n      add\n        /* \"contracts/RLPEncode.sol\":3663:3669  length */\n      dup2\n        /* \"contracts/RLPEncode.sol\":3659:3661  mc */\n      dup2\n        /* \"contracts/RLPEncode.sol\":3655:3670  add(mc, length) */\n      add\n        /* \"contracts/RLPEncode.sol\":3854:3858  0x20 */\n      0x20\n        /* \"contracts/RLPEncode.sol\":3843:3852  _preBytes */\n      dup8\n        /* \"contracts/RLPEncode.sol\":3839:3859  add(_preBytes, 0x20) */\n      add\n        /* \"contracts/RLPEncode.sol\":3686:4203  for {\r... */\n    tag_87:\n        /* \"contracts/RLPEncode.sol\":3882:3885  end */\n      dup2\n        /* \"contracts/RLPEncode.sol\":3878:3880  mc */\n      dup4\n        /* \"contracts/RLPEncode.sol\":3875:3886  lt(mc, end) */\n      lt\n        /* \"contracts/RLPEncode.sol\":3686:4203  for {\r... */\n      iszero\n      tag_89\n      jumpi\n        /* \"contracts/RLPEncode.sol\":4184:4186  cc */\n      dup1\n        /* \"contracts/RLPEncode.sol\":4178:4187  mload(cc) */\n      mload\n        /* \"contracts/RLPEncode.sol\":4174:4176  mc */\n      dup4\n        /* \"contracts/RLPEncode.sol\":4167:4188  mstore(mc, mload(cc)) */\n      mstore\n        /* \"contracts/RLPEncode.sol\":3987:3991  0x20 */\n      0x20\n        /* \"contracts/RLPEncode.sol\":3983:3985  mc */\n      dup4\n        /* \"contracts/RLPEncode.sol\":3979:3992  add(mc, 0x20) */\n      add\n        /* \"contracts/RLPEncode.sol\":3973:3992  mc := add(mc, 0x20) */\n      swap3\n      pop\n        /* \"contracts/RLPEncode.sol\":4024:4028  0x20 */\n      0x20\n        /* \"contracts/RLPEncode.sol\":4020:4022  cc */\n      dup2\n        /* \"contracts/RLPEncode.sol\":4016:4029  add(cc, 0x20) */\n      add\n        /* \"contracts/RLPEncode.sol\":4010:4029  cc := add(cc, 0x20) */\n      swap1\n      pop\n        /* \"contracts/RLPEncode.sol\":3686:4203  for {\r... */\n      jump(tag_87)\n    tag_89:\n        /* \"contracts/RLPEncode.sol\":3690:3874  {\r... */\n      pop\n        /* \"contracts/RLPEncode.sol\":4413:4423  _postBytes */\n      dup6\n        /* \"contracts/RLPEncode.sol\":4407:4424  mload(_postBytes) */\n      mload\n        /* \"contracts/RLPEncode.sol\":4397:4424  length := mload(_postBytes) */\n      swap3\n      pop\n        /* \"contracts/RLPEncode.sol\":4474:4483  tempBytes */\n      dup4\n        /* \"contracts/RLPEncode.sol\":4468:4484  mload(tempBytes) */\n      mload\n        /* \"contracts/RLPEncode.sol\":4460:4466  length */\n      dup4\n        /* \"contracts/RLPEncode.sol\":4456:4485  add(length, mload(tempBytes)) */\n      add\n        /* \"contracts/RLPEncode.sol\":4445:4454  tempBytes */\n      dup5\n        /* \"contracts/RLPEncode.sol\":4438:4486  mstore(tempBytes, add(length, mload(tempBytes))) */\n      mstore\n        /* \"contracts/RLPEncode.sol\":4626:4629  end */\n      dup1\n        /* \"contracts/RLPEncode.sol\":4620:4629  mc := end */\n      swap2\n      pop\n        /* \"contracts/RLPEncode.sol\":4766:4772  length */\n      dup3\n        /* \"contracts/RLPEncode.sol\":4762:4764  mc */\n      dup3\n        /* \"contracts/RLPEncode.sol\":4758:4773  add(mc, length) */\n      add\n        /* \"contracts/RLPEncode.sol\":4751:4773  end := add(mc, length) */\n      swap1\n      pop\n        /* \"contracts/RLPEncode.sol\":4838:4842  0x20 */\n      0x20\n        /* \"contracts/RLPEncode.sol\":4826:4836  _postBytes */\n      dup7\n        /* \"contracts/RLPEncode.sol\":4822:4843  add(_postBytes, 0x20) */\n      add\n        /* \"contracts/RLPEncode.sol\":4789:5017  for {\r... */\n    tag_90:\n        /* \"contracts/RLPEncode.sol\":4866:4869  end */\n      dup2\n        /* \"contracts/RLPEncode.sol\":4862:4864  mc */\n      dup4\n        /* \"contracts/RLPEncode.sol\":4859:4870  lt(mc, end) */\n      lt\n        /* \"contracts/RLPEncode.sol\":4789:5017  for {\r... */\n      iszero\n      tag_92\n      jumpi\n        /* \"contracts/RLPEncode.sol\":4998:5000  cc */\n      dup1\n        /* \"contracts/RLPEncode.sol\":4992:5001  mload(cc) */\n      mload\n        /* \"contracts/RLPEncode.sol\":4988:4990  mc */\n      dup4\n        /* \"contracts/RLPEncode.sol\":4981:5002  mstore(mc, mload(cc)) */\n      mstore\n        /* \"contracts/RLPEncode.sol\":4904:4908  0x20 */\n      0x20\n        /* \"contracts/RLPEncode.sol\":4900:4902  mc */\n      dup4\n        /* \"contracts/RLPEncode.sol\":4896:4909  add(mc, 0x20) */\n      add\n        /* \"contracts/RLPEncode.sol\":4890:4909  mc := add(mc, 0x20) */\n      swap3\n      pop\n        /* \"contracts/RLPEncode.sol\":4941:4945  0x20 */\n      0x20\n        /* \"contracts/RLPEncode.sol\":4937:4939  cc */\n      dup2\n        /* \"contracts/RLPEncode.sol\":4933:4946  add(cc, 0x20) */\n      add\n        /* \"contracts/RLPEncode.sol\":4927:4946  cc := add(cc, 0x20) */\n      swap1\n      pop\n        /* \"contracts/RLPEncode.sol\":4789:5017  for {\r... */\n      jump(tag_90)\n    tag_92:\n        /* \"contracts/RLPEncode.sol\":4793:4858  {\r... */\n      pop\n        /* \"contracts/RLPEncode.sol\":5535:5537  31 */\n      0x1f\n        /* \"contracts/RLPEncode.sol\":5531:5538  not(31) */\n      not\n        /* \"contracts/RLPEncode.sol\":5513:5515  31 */\n      0x1f\n        /* \"contracts/RLPEncode.sol\":5498:5507  _preBytes */\n      dup9\n        /* \"contracts/RLPEncode.sol\":5492:5508  mload(_preBytes) */\n      mload\n        /* \"contracts/RLPEncode.sol\":5484:5490  length */\n      dup6\n        /* \"contracts/RLPEncode.sol\":5480:5509  add(length, mload(_preBytes)) */\n      add\n        /* \"contracts/RLPEncode.sol\":5473:5510  iszero(add(length, mload(_preBytes))) */\n      iszero\n        /* \"contracts/RLPEncode.sol\":5468:5471  end */\n      dup4\n        /* \"contracts/RLPEncode.sol\":5464:5511  add(end, iszero(add(length, mload(_preBytes)))) */\n      add\n        /* \"contracts/RLPEncode.sol\":5460:5516  add(add(end, iszero(add(length, mload(_preBytes)))), 31) */\n      add\n        /* \"contracts/RLPEncode.sol\":5442:5592  and(\r... */\n      and\n        /* \"contracts/RLPEncode.sol\":5436:5440  0x40 */\n      0x40\n        /* \"contracts/RLPEncode.sol\":5429:5593  mstore(0x40, and(\r... */\n      mstore\n        /* \"contracts/RLPEncode.sol\":2931:5604  {\r... */\n      pop\n      pop\n      pop\n        /* \"contracts/RLPEncode.sol\":5623:5632  tempBytes */\n      dup1\n        /* \"contracts/RLPEncode.sol\":5616:5632  return tempBytes */\n      swap2\n      pop\n      pop\n        /* \"contracts/RLPEncode.sol\":2725:5640  function mergeBytes(\r... */\n      swap3\n      swap2\n      pop\n      pop\n      jump\t// out\n        /* \"contracts/RLPEncode.sol\":5957:6395  function encodeLength(uint length, uint offset) internal pure returns (bytes memory) {\r... */\n    tag_67:\n        /* \"contracts/RLPEncode.sol\":6028:6040  bytes memory */\n      0x60\n        /* \"contracts/RLPEncode.sol\":6070:6076  256**8 */\n      0x010000000000000000\n        /* \"contracts/RLPEncode.sol\":6061:6067  length */\n      dup4\n        /* \"contracts/RLPEncode.sol\":6061:6076  length < 256**8 */\n      lt\n        /* \"contracts/RLPEncode.sol\":6053:6095  require(length < 256**8, \"input too long\") */\n      tag_94\n      jumpi\n      mload(0x40)\n      0x08c379a000000000000000000000000000000000000000000000000000000000\n      dup2\n      mstore\n      0x04\n      add\n      dup1\n      dup1\n      0x20\n      add\n      dup3\n      dup2\n      sub\n      dup3\n      mstore\n      0x0e\n      dup2\n      mstore\n      0x20\n      add\n      dup1\n      0x696e70757420746f6f206c6f6e67000000000000000000000000000000000000\n      dup2\n      mstore\n      pop\n      0x20\n      add\n      swap2\n      pop\n      pop\n      mload(0x40)\n      dup1\n      swap2\n      sub\n      swap1\n      revert\n    tag_94:\n        /* \"contracts/RLPEncode.sol\":6106:6121  bytes memory rs */\n      0x60\n        /* \"contracts/RLPEncode.sol\":6134:6135  1 */\n      0x01\n        /* \"contracts/RLPEncode.sol\":6124:6136  new bytes(1) */\n      mload(0x40)\n      swap1\n      dup1\n      dup3\n      mstore\n      dup1\n      0x1f\n      add\n      not(0x1f)\n      and\n      0x20\n      add\n      dup3\n      add\n      0x40\n      mstore\n      dup1\n      iszero\n      tag_95\n      jumpi\n      dup2\n      0x20\n      add\n        /* \"--CODEGEN--\":29:30   */\n      0x01\n        /* \"--CODEGEN--\":21:27   */\n      dup3\n        /* \"--CODEGEN--\":17:31   */\n      mul\n        /* \"--CODEGEN--\":116:120   */\n      dup1\n        /* \"--CODEGEN--\":104:114   */\n      codesize\n        /* \"--CODEGEN--\":96:102   */\n      dup4\n        /* \"--CODEGEN--\":87:121   */\n      codecopy\n        /* \"--CODEGEN--\":147:151   */\n      dup1\n        /* \"--CODEGEN--\":139:145   */\n      dup3\n        /* \"--CODEGEN--\":135:152   */\n      add\n        /* \"--CODEGEN--\":125:152   */\n      swap2\n      pop\n        /* \"--CODEGEN--\":0:156   */\n      pop\n        /* \"contracts/RLPEncode.sol\":6124:6136  new bytes(1) */\n      swap1\n      pop\n    tag_95:\n      pop\n        /* \"contracts/RLPEncode.sol\":6106:6136  bytes memory rs = new bytes(1) */\n      swap1\n      pop\n        /* \"contracts/RLPEncode.sol\":6161:6163  55 */\n      0x37\n        /* \"contracts/RLPEncode.sol\":6151:6157  length */\n      dup5\n        /* \"contracts/RLPEncode.sol\":6151:6163  length <= 55 */\n      gt\n        /* \"contracts/RLPEncode.sol\":6147:6252  if (length <= 55) {\r... */\n      tag_96\n      jumpi\n        /* \"contracts/RLPEncode.sol\":6208:6214  offset */\n      dup3\n        /* \"contracts/RLPEncode.sol\":6199:6205  length */\n      dup5\n        /* \"contracts/RLPEncode.sol\":6199:6214  length + offset */\n      add\n        /* \"contracts/RLPEncode.sol\":6188:6216  byte(uint8(length + offset)) */\n      0xf8\n      shl\n        /* \"contracts/RLPEncode.sol\":6180:6182  rs */\n      dup2\n        /* \"contracts/RLPEncode.sol\":6183:6184  0 */\n      0x00\n        /* \"contracts/RLPEncode.sol\":6180:6185  rs[0] */\n      dup2\n      mload\n      dup2\n      lt\n      tag_97\n      jumpi\n      invalid\n    tag_97:\n      0x20\n      add\n      add\n        /* \"contracts/RLPEncode.sol\":6180:6216  rs[0] = byte(uint8(length + offset)) */\n      swap1\n      not(0xffffffffffffffffffffffffffffffffffffffffffffffffffffffffffffff)\n      and\n      swap1\n      dup2\n      0x00\n      byte\n      swap1\n      mstore8\n      pop\n        /* \"contracts/RLPEncode.sol\":6238:6240  rs */\n      dup1\n        /* \"contracts/RLPEncode.sol\":6231:6240  return rs */\n      swap2\n      pop\n      pop\n      jump(tag_93)\n        /* \"contracts/RLPEncode.sol\":6147:6252  if (length <= 55) {\r... */\n    tag_96:\n        /* \"contracts/RLPEncode.sol\":6262:6277  bytes memory bl */\n      0x60\n        /* \"contracts/RLPEncode.sol\":6280:6296  toBinary(length) */\n      tag_98\n        /* \"contracts/RLPEncode.sol\":6289:6295  length */\n      dup6\n        /* \"contracts/RLPEncode.sol\":6280:6288  toBinary */\n      tag_53\n        /* \"contracts/RLPEncode.sol\":6280:6296  toBinary(length) */\n      jump\t// in\n    tag_98:\n        /* \"contracts/RLPEncode.sol\":6262:6296  bytes memory bl = toBinary(length) */\n      swap1\n      pop\n        /* \"contracts/RLPEncode.sol\":6347:6349  55 */\n      0x37\n        /* \"contracts/RLPEncode.sol\":6338:6344  offset */\n      dup5\n        /* \"contracts/RLPEncode.sol\":6326:6328  bl */\n      dup3\n        /* \"contracts/RLPEncode.sol\":6326:6335  bl.length */\n      mload\n        /* \"contracts/RLPEncode.sol\":6326:6344  bl.length + offset */\n      add\n        /* \"contracts/RLPEncode.sol\":6326:6349  bl.length + offset + 55 */\n      add\n        /* \"contracts/RLPEncode.sol\":6315:6351  byte(uint8(bl.length + offset + 55)) */\n      0xf8\n      shl\n        /* \"contracts/RLPEncode.sol\":6307:6309  rs */\n      dup3\n        /* \"contracts/RLPEncode.sol\":6310:6311  0 */\n      0x00\n        /* \"contracts/RLPEncode.sol\":6307:6312  rs[0] */\n      dup2\n      mload\n      dup2\n      lt\n      tag_99\n      jumpi\n      invalid\n    tag_99:\n      0x20\n      add\n      add\n        /* \"contracts/RLPEncode.sol\":6307:6351  rs[0] = byte(uint8(bl.length + offset + 55)) */\n      swap1\n      not(0xffffffffffffffffffffffffffffffffffffffffffffffffffffffffffffff)\n      and\n      swap1\n      dup2\n      0x00\n      byte\n      swap1\n      mstore8\n      pop\n        /* \"contracts/RLPEncode.sol\":6369:6387  mergeBytes(rs, bl) */\n      tag_100\n        /* \"contracts/RLPEncode.sol\":6380:6382  rs */\n      dup3\n        /* \"contracts/RLPEncode.sol\":6384:6386  bl */\n      dup3\n        /* \"contracts/RLPEncode.sol\":6369:6379  mergeBytes */\n      tag_64\n        /* \"contracts/RLPEncode.sol\":6369:6387  mergeBytes(rs, bl) */\n      jump\t// in\n    tag_100:\n        /* \"contracts/RLPEncode.sol\":6362:6387  return mergeBytes(rs, bl) */\n      swap3\n      pop\n      pop\n      pop\n        /* \"contracts/RLPEncode.sol\":5957:6395  function encodeLength(uint length, uint offset) internal pure returns (bytes memory) {\r... */\n    tag_93:\n      swap3\n      swap2\n      pop\n      pop\n      jump\t// out\n\n    auxdata: 0xa265627a7a72315820aa7dacbf96110b56fd0219d48f47710359fe042d32fa9551ecb22981302da60764736f6c63430005100032\n}\n",
				"bytecode": {
					"linkReferences": {},
					"object": "60806040526040518060400160405280600481526020017f38333437000000000000000000000000000000000000000000000000000000008152506000908051906020019061004f929190610091565b506040518060600160405280603e8152602001610acf603e91396001908051906020019061007e929190610091565b5034801561008b57600080fd5b50610136565b828054600181600116156101000203166002900490600052602060002090601f016020900481019282601f106100d257805160ff1916838001178555610100565b82800160010185558215610100579182015b828111156100ff5782518255916020019190600101906100e4565b5b50905061010d9190610111565b5090565b61013391905b8082111561012f576000816000905550600101610117565b5090565b90565b61098a806101456000396000f3fe608060405234801561001057600080fd5b506004361061004c5760003560e01c80632eed4066146100515780633aeee938146100fe5780636114ceca14610181578063ea55583e14610250575b600080fd5b6100836004803603602081101561006757600080fd5b81019080803563ffffffff1690602001909291905050506102d3565b6040518080602001828103825283818151815260200191508051906020019080838360005b838110156100c35780820151818401526020810190506100a8565b50505050905090810190601f1680156100f05780820380516001836020036101000a031916815260200191505b509250505060405180910390f35b6101066102e5565b6040518080602001828103825283818151815260200191508051906020019080838360005b8381101561014657808201518184015260208101905061012b565b50505050905090810190601f1680156101735780820380516001836020036101000a031916815260200191505b509250505060405180910390f35b61023a6004803603602081101561019757600080fd5b81019080803590602001906401000000008111156101b457600080fd5b8201836020820111156101c657600080fd5b803590602001918460018302840111640100000000831117156101e857600080fd5b91908080601f016020809104026020016040519081016040528093929190818152602001838380828437600081840152601f19601f820116905080830192505050505050509192919290505050610383565b6040518082815260200191505060405180910390f35b61025861038e565b6040518080602001828103825283818151815260200191508051906020019080838360005b8381101561029857808201518184015260208101905061027d565b50505050905090810190601f1680156102c55780820380516001836020036101000a031916815260200191505b509250505060405180910390f35b60606102de8261042c565b9050919050565b60018054600181600116156101000203166002900480601f01602080910402602001604051908101604052809291908181526020018280546001816001161561010002031660029004801561037b5780601f106103505761010080835404028352916020019161037b565b820191906000526020600020905b81548152906001019060200180831161035e57829003601f168201915b505050505081565b600081519050919050565b60008054600181600116156101000203166002900480601f0160208091040260200160405190810160405280929190818152602001828054600181600116156101000203166002900480156104245780601f106103f957610100808354040283529160200191610424565b820191906000526020600020905b81548152906001019060200180831161040757829003601f168201915b505050505081565b606080600160405190808252806020026020018201604052801561046457816020015b606081526020019060019003908161044f5790505b5090506104768363ffffffff1661049f565b8160008151811061048357fe5b6020026020010181905250610497816104b9565b915050919050565b60606104b26104ad83610578565b6106da565b9050919050565b60606000825114156105015760006040519080825280601f01601f1916602001820160405280156104f95781602001600182028038833980820191505090505b509050610573565b60608260008151811061051057fe5b602002602001015190506000600190505b8351811015610556576105478285838151811061053a57fe5b6020026020010151610757565b91508080600101915050610521565b5061056f610569825160c060ff166107e1565b82610757565b9150505b919050565b60608060206040519080825280601f01601f1916602001820160405280156105af5781602001600182028038833980820191505090505b5090508260208201526000807fffffffffffffffffffffffffffffffffffffffffffffffff0000000000000000851614156105ed5760189050610627565b60007fffffffffffffffffffffffffffffffff00000000000000000000000000000000851614156106215760109050610626565b600090505b5b5b602081101561068657600060f81b82828151811061064257fe5b602001015160f81c60f81b7effffffffffffffffffffffffffffffffffffffffffffffffffffffffffffff19161461067957610686565b8080600101915050610628565b60008160200390506060816040519080825280601f01601f1916602001820160405280156106c35781602001600182028038833980820191505090505b509050858282015281815280945050505050919050565b60606001825114801561072a5750607f60f81b826000815181106106fa57fe5b602001015160f81c60f81b7effffffffffffffffffffffffffffffffffffffffffffffffffffffffffffff191611155b1561073757819050610752565b61074f6107498351608060ff166107e1565b83610757565b90505b919050565b6060806040519050835180825260208201818101602087015b8183101561078d5780518352602083019250602081019050610770565b50855192508351830184528091508282019050602086015b818310156107c257805183526020830192506020810190506107a5565b50601f19601f8851850115830101166040525050508091505092915050565b6060680100000000000000008310610861576040517f08c379a000000000000000000000000000000000000000000000000000000000815260040180806020018281038252600e8152602001807f696e70757420746f6f206c6f6e6700000000000000000000000000000000000081525060200191505060405180910390fd5b606060016040519080825280601f01601f1916602001820160405280156108975781602001600182028038833980820191505090505b509050603784116108ed5782840160f81b816000815181106108b557fe5b60200101907effffffffffffffffffffffffffffffffffffffffffffffffffffffffffffff1916908160001a9053508091505061094f565b60606108f885610578565b90506037848251010160f81b8260008151811061091157fe5b60200101907effffffffffffffffffffffffffffffffffffffffffffffffffffffffffffff1916908160001a90535061094a8282610757565b925050505b9291505056fea265627a7a72315820aa7dacbf96110b56fd0219d48f47710359fe042d32fa9551ecb22981302da60764736f6c634300051000326466646664666466414847484744534844424748534453495347424f51425549484b4a425549534348736466647366535353535353445344534453445344",
					"opcodes": "PUSH1 0x80 PUSH1 0x40 MSTORE PUSH1 0x40 MLOAD DUP1 PUSH1 0x40 ADD PUSH1 0x40 MSTORE DUP1 PUSH1 0x4 DUP2 MSTORE PUSH1 0x20 ADD PUSH32 0x3833343700000000000000000000000000000000000000000000000000000000 DUP2 MSTORE POP PUSH1 0x0 SWAP1 DUP1 MLOAD SWAP1 PUSH1 0x20 ADD SWAP1 PUSH2 0x4F SWAP3 SWAP2 SWAP1 PUSH2 0x91 JUMP JUMPDEST POP PUSH1 0x40 MLOAD DUP1 PUSH1 0x60 ADD PUSH1 0x40 MSTORE DUP1 PUSH1 0x3E DUP2 MSTORE PUSH1 0x20 ADD PUSH2 0xACF PUSH1 0x3E SWAP2 CODECOPY PUSH1 0x1 SWAP1 DUP1 MLOAD SWAP1 PUSH1 0x20 ADD SWAP1 PUSH2 0x7E SWAP3 SWAP2 SWAP1 PUSH2 0x91 JUMP JUMPDEST POP CALLVALUE DUP1 ISZERO PUSH2 0x8B JUMPI PUSH1 0x0 DUP1 REVERT JUMPDEST POP PUSH2 0x136 JUMP JUMPDEST DUP3 DUP1 SLOAD PUSH1 0x1 DUP2 PUSH1 0x1 AND ISZERO PUSH2 0x100 MUL SUB AND PUSH1 0x2 SWAP1 DIV SWAP1 PUSH1 0x0 MSTORE PUSH1 0x20 PUSH1 0x0 KECCAK256 SWAP1 PUSH1 0x1F ADD PUSH1 0x20 SWAP1 DIV DUP2 ADD SWAP3 DUP3 PUSH1 0x1F LT PUSH2 0xD2 JUMPI DUP1 MLOAD PUSH1 0xFF NOT AND DUP4 DUP1 ADD OR DUP6 SSTORE PUSH2 0x100 JUMP JUMPDEST DUP3 DUP1 ADD PUSH1 0x1 ADD DUP6 SSTORE DUP3 ISZERO PUSH2 0x100 JUMPI SWAP2 DUP3 ADD JUMPDEST DUP3 DUP2 GT ISZERO PUSH2 0xFF JUMPI DUP3 MLOAD DUP3 SSTORE SWAP2 PUSH1 0x20 ADD SWAP2 SWAP1 PUSH1 0x1 ADD SWAP1 PUSH2 0xE4 JUMP JUMPDEST JUMPDEST POP SWAP1 POP PUSH2 0x10D SWAP2 SWAP1 PUSH2 0x111 JUMP JUMPDEST POP SWAP1 JUMP JUMPDEST PUSH2 0x133 SWAP2 SWAP1 JUMPDEST DUP1 DUP3 GT ISZERO PUSH2 0x12F JUMPI PUSH1 0x0 DUP2 PUSH1 0x0 SWAP1 SSTORE POP PUSH1 0x1 ADD PUSH2 0x117 JUMP JUMPDEST POP SWAP1 JUMP JUMPDEST SWAP1 JUMP JUMPDEST PUSH2 0x98A DUP1 PUSH2 0x145 PUSH1 0x0 CODECOPY PUSH1 0x0 RETURN INVALID PUSH1 0x80 PUSH1 0x40 MSTORE CALLVALUE DUP1 ISZERO PUSH2 0x10 JUMPI PUSH1 0x0 DUP1 REVERT JUMPDEST POP PUSH1 0x4 CALLDATASIZE LT PUSH2 0x4C JUMPI PUSH1 0x0 CALLDATALOAD PUSH1 0xE0 SHR DUP1 PUSH4 0x2EED4066 EQ PUSH2 0x51 JUMPI DUP1 PUSH4 0x3AEEE938 EQ PUSH2 0xFE JUMPI DUP1 PUSH4 0x6114CECA EQ PUSH2 0x181 JUMPI DUP1 PUSH4 0xEA55583E EQ PUSH2 0x250 JUMPI JUMPDEST PUSH1 0x0 DUP1 REVERT JUMPDEST PUSH2 0x83 PUSH1 0x4 DUP1 CALLDATASIZE SUB PUSH1 0x20 DUP2 LT ISZERO PUSH2 0x67 JUMPI PUSH1 0x0 DUP1 REVERT JUMPDEST DUP2 ADD SWAP1 DUP1 DUP1 CALLDATALOAD PUSH4 0xFFFFFFFF AND SWAP1 PUSH1 0x20 ADD SWAP1 SWAP3 SWAP2 SWAP1 POP POP POP PUSH2 0x2D3 JUMP JUMPDEST PUSH1 0x40 MLOAD DUP1 DUP1 PUSH1 0x20 ADD DUP3 DUP2 SUB DUP3 MSTORE DUP4 DUP2 DUP2 MLOAD DUP2 MSTORE PUSH1 0x20 ADD SWAP2 POP DUP1 MLOAD SWAP1 PUSH1 0x20 ADD SWAP1 DUP1 DUP4 DUP4 PUSH1 0x0 JUMPDEST DUP4 DUP2 LT ISZERO PUSH2 0xC3 JUMPI DUP1 DUP3 ADD MLOAD DUP2 DUP5 ADD MSTORE PUSH1 0x20 DUP2 ADD SWAP1 POP PUSH2 0xA8 JUMP JUMPDEST POP POP POP POP SWAP1 POP SWAP1 DUP2 ADD SWAP1 PUSH1 0x1F AND DUP1 ISZERO PUSH2 0xF0 JUMPI DUP1 DUP3 SUB DUP1 MLOAD PUSH1 0x1 DUP4 PUSH1 0x20 SUB PUSH2 0x100 EXP SUB NOT AND DUP2 MSTORE PUSH1 0x20 ADD SWAP2 POP JUMPDEST POP SWAP3 POP POP POP PUSH1 0x40 MLOAD DUP1 SWAP2 SUB SWAP1 RETURN JUMPDEST PUSH2 0x106 PUSH2 0x2E5 JUMP JUMPDEST PUSH1 0x40 MLOAD DUP1 DUP1 PUSH1 0x20 ADD DUP3 DUP2 SUB DUP3 MSTORE DUP4 DUP2 DUP2 MLOAD DUP2 MSTORE PUSH1 0x20 ADD SWAP2 POP DUP1 MLOAD SWAP1 PUSH1 0x20 ADD SWAP1 DUP1 DUP4 DUP4 PUSH1 0x0 JUMPDEST DUP4 DUP2 LT ISZERO PUSH2 0x146 JUMPI DUP1 DUP3 ADD MLOAD DUP2 DUP5 ADD MSTORE PUSH1 0x20 DUP2 ADD SWAP1 POP PUSH2 0x12B JUMP JUMPDEST POP POP POP POP SWAP1 POP SWAP1 DUP2 ADD SWAP1 PUSH1 0x1F AND DUP1 ISZERO PUSH2 0x173 JUMPI DUP1 DUP3 SUB DUP1 MLOAD PUSH1 0x1 DUP4 PUSH1 0x20 SUB PUSH2 0x100 EXP SUB NOT AND DUP2 MSTORE PUSH1 0x20 ADD SWAP2 POP JUMPDEST POP SWAP3 POP POP POP PUSH1 0x40 MLOAD DUP1 SWAP2 SUB SWAP1 RETURN JUMPDEST PUSH2 0x23A PUSH1 0x4 DUP1 CALLDATASIZE SUB PUSH1 0x20 DUP2 LT ISZERO PUSH2 0x197 JUMPI PUSH1 0x0 DUP1 REVERT JUMPDEST DUP2 ADD SWAP1 DUP1 DUP1 CALLDATALOAD SWAP1 PUSH1 0x20 ADD SWAP1 PUSH5 0x100000000 DUP2 GT ISZERO PUSH2 0x1B4 JUMPI PUSH1 0x0 DUP1 REVERT JUMPDEST DUP3 ADD DUP4 PUSH1 0x20 DUP3 ADD GT ISZERO PUSH2 0x1C6 JUMPI PUSH1 0x0 DUP1 REVERT JUMPDEST DUP1 CALLDATALOAD SWAP1 PUSH1 0x20 ADD SWAP2 DUP5 PUSH1 0x1 DUP4 MUL DUP5 ADD GT PUSH5 0x100000000 DUP4 GT OR ISZERO PUSH2 0x1E8 JUMPI PUSH1 0x0 DUP1 REVERT JUMPDEST SWAP2 SWAP1 DUP1 DUP1 PUSH1 0x1F ADD PUSH1 0x20 DUP1 SWAP2 DIV MUL PUSH1 0x20 ADD PUSH1 0x40 MLOAD SWAP1 DUP2 ADD PUSH1 0x40 MSTORE DUP1 SWAP4 SWAP3 SWAP2 SWAP1 DUP2 DUP2 MSTORE PUSH1 0x20 ADD DUP4 DUP4 DUP1 DUP3 DUP5 CALLDATACOPY PUSH1 0x0 DUP2 DUP5 ADD MSTORE PUSH1 0x1F NOT PUSH1 0x1F DUP3 ADD AND SWAP1 POP DUP1 DUP4 ADD SWAP3 POP POP POP POP POP POP POP SWAP2 SWAP3 SWAP2 SWAP3 SWAP1 POP POP POP PUSH2 0x383 JUMP JUMPDEST PUSH1 0x40 MLOAD DUP1 DUP3 DUP2 MSTORE PUSH1 0x20 ADD SWAP2 POP POP PUSH1 0x40 MLOAD DUP1 SWAP2 SUB SWAP1 RETURN JUMPDEST PUSH2 0x258 PUSH2 0x38E JUMP JUMPDEST PUSH1 0x40 MLOAD DUP1 DUP1 PUSH1 0x20 ADD DUP3 DUP2 SUB DUP3 MSTORE DUP4 DUP2 DUP2 MLOAD DUP2 MSTORE PUSH1 0x20 ADD SWAP2 POP DUP1 MLOAD SWAP1 PUSH1 0x20 ADD SWAP1 DUP1 DUP4 DUP4 PUSH1 0x0 JUMPDEST DUP4 DUP2 LT ISZERO PUSH2 0x298 JUMPI DUP1 DUP3 ADD MLOAD DUP2 DUP5 ADD MSTORE PUSH1 0x20 DUP2 ADD SWAP1 POP PUSH2 0x27D JUMP JUMPDEST POP POP POP POP SWAP1 POP SWAP1 DUP2 ADD SWAP1 PUSH1 0x1F AND DUP1 ISZERO PUSH2 0x2C5 JUMPI DUP1 DUP3 SUB DUP1 MLOAD PUSH1 0x1 DUP4 PUSH1 0x20 SUB PUSH2 0x100 EXP SUB NOT AND DUP2 MSTORE PUSH1 0x20 ADD SWAP2 POP JUMPDEST POP SWAP3 POP POP POP PUSH1 0x40 MLOAD DUP1 SWAP2 SUB SWAP1 RETURN JUMPDEST PUSH1 0x60 PUSH2 0x2DE DUP3 PUSH2 0x42C JUMP JUMPDEST SWAP1 POP SWAP2 SWAP1 POP JUMP JUMPDEST PUSH1 0x1 DUP1 SLOAD PUSH1 0x1 DUP2 PUSH1 0x1 AND ISZERO PUSH2 0x100 MUL SUB AND PUSH1 0x2 SWAP1 DIV DUP1 PUSH1 0x1F ADD PUSH1 0x20 DUP1 SWAP2 DIV MUL PUSH1 0x20 ADD PUSH1 0x40 MLOAD SWAP1 DUP2 ADD PUSH1 0x40 MSTORE DUP1 SWAP3 SWAP2 SWAP1 DUP2 DUP2 MSTORE PUSH1 0x20 ADD DUP3 DUP1 SLOAD PUSH1 0x1 DUP2 PUSH1 0x1 AND ISZERO PUSH2 0x100 MUL SUB AND PUSH1 0x2 SWAP1 DIV DUP1 ISZERO PUSH2 0x37B JUMPI DUP1 PUSH1 0x1F LT PUSH2 0x350 JUMPI PUSH2 0x100 DUP1 DUP4 SLOAD DIV MUL DUP4 MSTORE SWAP2 PUSH1 0x20 ADD SWAP2 PUSH2 0x37B JUMP JUMPDEST DUP3 ADD SWAP2 SWAP1 PUSH1 0x0 MSTORE PUSH1 0x20 PUSH1 0x0 KECCAK256 SWAP1 JUMPDEST DUP2 SLOAD DUP2 MSTORE SWAP1 PUSH1 0x1 ADD SWAP1 PUSH1 0x20 ADD DUP1 DUP4 GT PUSH2 0x35E JUMPI DUP3 SWAP1 SUB PUSH1 0x1F AND DUP3 ADD SWAP2 JUMPDEST POP POP POP POP POP DUP2 JUMP JUMPDEST PUSH1 0x0 DUP2 MLOAD SWAP1 POP SWAP2 SWAP1 POP JUMP JUMPDEST PUSH1 0x0 DUP1 SLOAD PUSH1 0x1 DUP2 PUSH1 0x1 AND ISZERO PUSH2 0x100 MUL SUB AND PUSH1 0x2 SWAP1 DIV DUP1 PUSH1 0x1F ADD PUSH1 0x20 DUP1 SWAP2 DIV MUL PUSH1 0x20 ADD PUSH1 0x40 MLOAD SWAP1 DUP2 ADD PUSH1 0x40 MSTORE DUP1 SWAP3 SWAP2 SWAP1 DUP2 DUP2 MSTORE PUSH1 0x20 ADD DUP3 DUP1 SLOAD PUSH1 0x1 DUP2 PUSH1 0x1 AND ISZERO PUSH2 0x100 MUL SUB AND PUSH1 0x2 SWAP1 DIV DUP1 ISZERO PUSH2 0x424 JUMPI DUP1 PUSH1 0x1F LT PUSH2 0x3F9 JUMPI PUSH2 0x100 DUP1 DUP4 SLOAD DIV MUL DUP4 MSTORE SWAP2 PUSH1 0x20 ADD SWAP2 PUSH2 0x424 JUMP JUMPDEST DUP3 ADD SWAP2 SWAP1 PUSH1 0x0 MSTORE PUSH1 0x20 PUSH1 0x0 KECCAK256 SWAP1 JUMPDEST DUP2 SLOAD DUP2 MSTORE SWAP1 PUSH1 0x1 ADD SWAP1 PUSH1 0x20 ADD DUP1 DUP4 GT PUSH2 0x407 JUMPI DUP3 SWAP1 SUB PUSH1 0x1F AND DUP3 ADD SWAP2 JUMPDEST POP POP POP POP POP DUP2 JUMP JUMPDEST PUSH1 0x60 DUP1 PUSH1 0x1 PUSH1 0x40 MLOAD SWAP1 DUP1 DUP3 MSTORE DUP1 PUSH1 0x20 MUL PUSH1 0x20 ADD DUP3 ADD PUSH1 0x40 MSTORE DUP1 ISZERO PUSH2 0x464 JUMPI DUP2 PUSH1 0x20 ADD JUMPDEST PUSH1 0x60 DUP2 MSTORE PUSH1 0x20 ADD SWAP1 PUSH1 0x1 SWAP1 SUB SWAP1 DUP2 PUSH2 0x44F JUMPI SWAP1 POP JUMPDEST POP SWAP1 POP PUSH2 0x476 DUP4 PUSH4 0xFFFFFFFF AND PUSH2 0x49F JUMP JUMPDEST DUP2 PUSH1 0x0 DUP2 MLOAD DUP2 LT PUSH2 0x483 JUMPI INVALID JUMPDEST PUSH1 0x20 MUL PUSH1 0x20 ADD ADD DUP2 SWAP1 MSTORE POP PUSH2 0x497 DUP2 PUSH2 0x4B9 JUMP JUMPDEST SWAP2 POP POP SWAP2 SWAP1 POP JUMP JUMPDEST PUSH1 0x60 PUSH2 0x4B2 PUSH2 0x4AD DUP4 PUSH2 0x578 JUMP JUMPDEST PUSH2 0x6DA JUMP JUMPDEST SWAP1 POP SWAP2 SWAP1 POP JUMP JUMPDEST PUSH1 0x60 PUSH1 0x0 DUP3 MLOAD EQ ISZERO PUSH2 0x501 JUMPI PUSH1 0x0 PUSH1 0x40 MLOAD SWAP1 DUP1 DUP3 MSTORE DUP1 PUSH1 0x1F ADD PUSH1 0x1F NOT AND PUSH1 0x20 ADD DUP3 ADD PUSH1 0x40 MSTORE DUP1 ISZERO PUSH2 0x4F9 JUMPI DUP2 PUSH1 0x20 ADD PUSH1 0x1 DUP3 MUL DUP1 CODESIZE DUP4 CODECOPY DUP1 DUP3 ADD SWAP2 POP POP SWAP1 POP JUMPDEST POP SWAP1 POP PUSH2 0x573 JUMP JUMPDEST PUSH1 0x60 DUP3 PUSH1 0x0 DUP2 MLOAD DUP2 LT PUSH2 0x510 JUMPI INVALID JUMPDEST PUSH1 0x20 MUL PUSH1 0x20 ADD ADD MLOAD SWAP1 POP PUSH1 0x0 PUSH1 0x1 SWAP1 POP JUMPDEST DUP4 MLOAD DUP2 LT ISZERO PUSH2 0x556 JUMPI PUSH2 0x547 DUP3 DUP6 DUP4 DUP2 MLOAD DUP2 LT PUSH2 0x53A JUMPI INVALID JUMPDEST PUSH1 0x20 MUL PUSH1 0x20 ADD ADD MLOAD PUSH2 0x757 JUMP JUMPDEST SWAP2 POP DUP1 DUP1 PUSH1 0x1 ADD SWAP2 POP POP PUSH2 0x521 JUMP JUMPDEST POP PUSH2 0x56F PUSH2 0x569 DUP3 MLOAD PUSH1 0xC0 PUSH1 0xFF AND PUSH2 0x7E1 JUMP JUMPDEST DUP3 PUSH2 0x757 JUMP JUMPDEST SWAP2 POP POP JUMPDEST SWAP2 SWAP1 POP JUMP JUMPDEST PUSH1 0x60 DUP1 PUSH1 0x20 PUSH1 0x40 MLOAD SWAP1 DUP1 DUP3 MSTORE DUP1 PUSH1 0x1F ADD PUSH1 0x1F NOT AND PUSH1 0x20 ADD DUP3 ADD PUSH1 0x40 MSTORE DUP1 ISZERO PUSH2 0x5AF JUMPI DUP2 PUSH1 0x20 ADD PUSH1 0x1 DUP3 MUL DUP1 CODESIZE DUP4 CODECOPY DUP1 DUP3 ADD SWAP2 POP POP SWAP1 POP JUMPDEST POP SWAP1 POP DUP3 PUSH1 0x20 DUP3 ADD MSTORE PUSH1 0x0 DUP1 PUSH32 0xFFFFFFFFFFFFFFFFFFFFFFFFFFFFFFFFFFFFFFFFFFFFFFFF0000000000000000 DUP6 AND EQ ISZERO PUSH2 0x5ED JUMPI PUSH1 0x18 SWAP1 POP PUSH2 0x627 JUMP JUMPDEST PUSH1 0x0 PUSH32 0xFFFFFFFFFFFFFFFFFFFFFFFFFFFFFFFF00000000000000000000000000000000 DUP6 AND EQ ISZERO PUSH2 0x621 JUMPI PUSH1 0x10 SWAP1 POP PUSH2 0x626 JUMP JUMPDEST PUSH1 0x0 SWAP1 POP JUMPDEST JUMPDEST JUMPDEST PUSH1 0x20 DUP2 LT ISZERO PUSH2 0x686 JUMPI PUSH1 0x0 PUSH1 0xF8 SHL DUP3 DUP3 DUP2 MLOAD DUP2 LT PUSH2 0x642 JUMPI INVALID JUMPDEST PUSH1 0x20 ADD ADD MLOAD PUSH1 0xF8 SHR PUSH1 0xF8 SHL PUSH31 0xFFFFFFFFFFFFFFFFFFFFFFFFFFFFFFFFFFFFFFFFFFFFFFFFFFFFFFFFFFFFFF NOT AND EQ PUSH2 0x679 JUMPI PUSH2 0x686 JUMP JUMPDEST DUP1 DUP1 PUSH1 0x1 ADD SWAP2 POP POP PUSH2 0x628 JUMP JUMPDEST PUSH1 0x0 DUP2 PUSH1 0x20 SUB SWAP1 POP PUSH1 0x60 DUP2 PUSH1 0x40 MLOAD SWAP1 DUP1 DUP3 MSTORE DUP1 PUSH1 0x1F ADD PUSH1 0x1F NOT AND PUSH1 0x20 ADD DUP3 ADD PUSH1 0x40 MSTORE DUP1 ISZERO PUSH2 0x6C3 JUMPI DUP2 PUSH1 0x20 ADD PUSH1 0x1 DUP3 MUL DUP1 CODESIZE DUP4 CODECOPY DUP1 DUP3 ADD SWAP2 POP POP SWAP1 POP JUMPDEST POP SWAP1 POP DUP6 DUP3 DUP3 ADD MSTORE DUP2 DUP2 MSTORE DUP1 SWAP5 POP POP POP POP POP SWAP2 SWAP1 POP JUMP JUMPDEST PUSH1 0x60 PUSH1 0x1 DUP3 MLOAD EQ DUP1 ISZERO PUSH2 0x72A JUMPI POP PUSH1 0x7F PUSH1 0xF8 SHL DUP3 PUSH1 0x0 DUP2 MLOAD DUP2 LT PUSH2 0x6FA JUMPI INVALID JUMPDEST PUSH1 0x20 ADD ADD MLOAD PUSH1 0xF8 SHR PUSH1 0xF8 SHL PUSH31 0xFFFFFFFFFFFFFFFFFFFFFFFFFFFFFFFFFFFFFFFFFFFFFFFFFFFFFFFFFFFFFF NOT AND GT ISZERO JUMPDEST ISZERO PUSH2 0x737 JUMPI DUP2 SWAP1 POP PUSH2 0x752 JUMP JUMPDEST PUSH2 0x74F PUSH2 0x749 DUP4 MLOAD PUSH1 0x80 PUSH1 0xFF AND PUSH2 0x7E1 JUMP JUMPDEST DUP4 PUSH2 0x757 JUMP JUMPDEST SWAP1 POP JUMPDEST SWAP2 SWAP1 POP JUMP JUMPDEST PUSH1 0x60 DUP1 PUSH1 0x40 MLOAD SWAP1 POP DUP4 MLOAD DUP1 DUP3 MSTORE PUSH1 0x20 DUP3 ADD DUP2 DUP2 ADD PUSH1 0x20 DUP8 ADD JUMPDEST DUP2 DUP4 LT ISZERO PUSH2 0x78D JUMPI DUP1 MLOAD DUP4 MSTORE PUSH1 0x20 DUP4 ADD SWAP3 POP PUSH1 0x20 DUP2 ADD SWAP1 POP PUSH2 0x770 JUMP JUMPDEST POP DUP6 MLOAD SWAP3 POP DUP4 MLOAD DUP4 ADD DUP5 MSTORE DUP1 SWAP2 POP DUP3 DUP3 ADD SWAP1 POP PUSH1 0x20 DUP7 ADD JUMPDEST DUP2 DUP4 LT ISZERO PUSH2 0x7C2 JUMPI DUP1 MLOAD DUP4 MSTORE PUSH1 0x20 DUP4 ADD SWAP3 POP PUSH1 0x20 DUP2 ADD SWAP1 POP PUSH2 0x7A5 JUMP JUMPDEST POP PUSH1 0x1F NOT PUSH1 0x1F DUP9 MLOAD DUP6 ADD ISZERO DUP4 ADD ADD AND PUSH1 0x40 MSTORE POP POP POP DUP1 SWAP2 POP POP SWAP3 SWAP2 POP POP JUMP JUMPDEST PUSH1 0x60 PUSH9 0x10000000000000000 DUP4 LT PUSH2 0x861 JUMPI PUSH1 0x40 MLOAD PUSH32 0x8C379A000000000000000000000000000000000000000000000000000000000 DUP2 MSTORE PUSH1 0x4 ADD DUP1 DUP1 PUSH1 0x20 ADD DUP3 DUP2 SUB DUP3 MSTORE PUSH1 0xE DUP2 MSTORE PUSH1 0x20 ADD DUP1 PUSH32 0x696E70757420746F6F206C6F6E67000000000000000000000000000000000000 DUP2 MSTORE POP PUSH1 0x20 ADD SWAP2 POP POP PUSH1 0x40 MLOAD DUP1 SWAP2 SUB SWAP1 REVERT JUMPDEST PUSH1 0x60 PUSH1 0x1 PUSH1 0x40 MLOAD SWAP1 DUP1 DUP3 MSTORE DUP1 PUSH1 0x1F ADD PUSH1 0x1F NOT AND PUSH1 0x20 ADD DUP3 ADD PUSH1 0x40 MSTORE DUP1 ISZERO PUSH2 0x897 JUMPI DUP2 PUSH1 0x20 ADD PUSH1 0x1 DUP3 MUL DUP1 CODESIZE DUP4 CODECOPY DUP1 DUP3 ADD SWAP2 POP POP SWAP1 POP JUMPDEST POP SWAP1 POP PUSH1 0x37 DUP5 GT PUSH2 0x8ED JUMPI DUP3 DUP5 ADD PUSH1 0xF8 SHL DUP2 PUSH1 0x0 DUP2 MLOAD DUP2 LT PUSH2 0x8B5 JUMPI INVALID JUMPDEST PUSH1 0x20 ADD ADD SWAP1 PUSH31 0xFFFFFFFFFFFFFFFFFFFFFFFFFFFFFFFFFFFFFFFFFFFFFFFFFFFFFFFFFFFFFF NOT AND SWAP1 DUP2 PUSH1 0x0 BYTE SWAP1 MSTORE8 POP DUP1 SWAP2 POP POP PUSH2 0x94F JUMP JUMPDEST PUSH1 0x60 PUSH2 0x8F8 DUP6 PUSH2 0x578 JUMP JUMPDEST SWAP1 POP PUSH1 0x37 DUP5 DUP3 MLOAD ADD ADD PUSH1 0xF8 SHL DUP3 PUSH1 0x0 DUP2 MLOAD DUP2 LT PUSH2 0x911 JUMPI INVALID JUMPDEST PUSH1 0x20 ADD ADD SWAP1 PUSH31 0xFFFFFFFFFFFFFFFFFFFFFFFFFFFFFFFFFFFFFFFFFFFFFFFFFFFFFFFFFFFFFF NOT AND SWAP1 DUP2 PUSH1 0x0 BYTE SWAP1 MSTORE8 POP PUSH2 0x94A DUP3 DUP3 PUSH2 0x757 JUMP JUMPDEST SWAP3 POP POP POP JUMPDEST SWAP3 SWAP2 POP POP JUMP INVALID LOG2 PUSH6 0x627A7A723158 KECCAK256 0xAA PUSH30 0xACBF96110B56FD0219D48F47710359FE042D32FA9551ECB22981302DA607 PUSH5 0x736F6C6343 STOP SDIV LT STOP ORIGIN PUSH5 0x6664666466 PUSH5 0x6641484748 SELFBALANCE DIFFICULTY MSTORE8 0x48 DIFFICULTY TIMESTAMP SELFBALANCE 0x48 MSTORE8 DIFFICULTY MSTORE8 0x49 MSTORE8 SELFBALANCE TIMESTAMP 0x4F MLOAD TIMESTAMP SSTORE 0x49 0x48 0x4B 0x4A TIMESTAMP SSTORE 0x49 MSTORE8 NUMBER 0x48 PUSH20 0x6466647366535353535353445344534453445344 "
				},
				"gasEstimates": {
					"creation": {
						"codeDepositCost": "488400",
						"executionCost": "infinite",
						"totalCost": "infinite"
					},
					"external": {
						"bytesDemo1()": "infinite",
						"bytesDemo2()": "infinite",
						"getData(uint32)": "infinite",
						"getLength(bytes)": "infinite"
					},
					"internal": {
						"encodeCommonAckPackage(uint32)": "infinite"
					}
				},
				"methodIdentifiers": {
					"bytesDemo1()": "ea55583e",
					"bytesDemo2()": "3aeee938",
					"getData(uint32)": "2eed4066",
					"getLength(bytes)": "6114ceca"
				}
			},
			"userdoc": {
				"methods": {}
			}
		}
	}
}