{
	"contracts/demo1.sol": {
		"CmnPkg": {
			"abi": [
				{
					"constant": true,
					"inputs": [
						{
							"internalType": "bytes",
							"name": "msgBytes",
							"type": "bytes"
						}
					],
					"name": "getDecodeCommonAckPackage",
					"outputs": [
						{
							"internalType": "uint256",
							"name": "",
							"type": "uint256"
						}
					],
					"payable": false,
					"stateMutability": "view",
					"type": "function"
				},
				{
					"constant": true,
					"inputs": [
						{
							"internalType": "uint32",
							"name": "code",
							"type": "uint32"
						}
					],
					"name": "getEncodeCommonAckPackage",
					"outputs": [
						{
							"internalType": "bytes",
							"name": "",
							"type": "bytes"
						}
					],
					"payable": false,
					"stateMutability": "view",
					"type": "function"
				}
			],
			"devdoc": {
				"methods": {}
			},
			"evm": {
				"assembly": "    /* \"contracts/demo1.sol\":92:1415  library CmnPkg {\r... */\n  dataSize(sub_0)\n  dataOffset(sub_0)\n    /* \"--CODEGEN--\":132:134   */\n  0x0b\n    /* \"--CODEGEN--\":166:173   */\n  dup3\n    /* \"--CODEGEN--\":155:164   */\n  dup3\n    /* \"--CODEGEN--\":146:153   */\n  dup3\n    /* \"--CODEGEN--\":137:174   */\n  codecopy\n    /* \"--CODEGEN--\":255:262   */\n  dup1\n    /* \"--CODEGEN--\":249:263   */\n  mload\n    /* \"--CODEGEN--\":246:247   */\n  0x00\n    /* \"--CODEGEN--\":241:264   */\n  byte\n    /* \"--CODEGEN--\":235:239   */\n  0x73\n    /* \"--CODEGEN--\":232:265   */\n  eq\n    /* \"--CODEGEN--\":222:224   */\n  tag_1\n  jumpi\n    /* \"--CODEGEN--\":269:278   */\n  invalid\n    /* \"--CODEGEN--\":222:224   */\ntag_1:\n    /* \"--CODEGEN--\":293:302   */\n  address\n    /* \"--CODEGEN--\":290:291   */\n  0x00\n    /* \"--CODEGEN--\":283:303   */\n  mstore\n    /* \"--CODEGEN--\":323:327   */\n  0x73\n    /* \"--CODEGEN--\":314:321   */\n  dup2\n    /* \"--CODEGEN--\":306:328   */\n  mstore8\n    /* \"--CODEGEN--\":347:354   */\n  dup3\n    /* \"--CODEGEN--\":338:345   */\n  dup2\n    /* \"--CODEGEN--\":331:355   */\n  return\nstop\n\nsub_0: assembly {\n        /* \"contracts/demo1.sol\":92:1415  library CmnPkg {\r... */\n      eq(address, deployTimeAddress())\n      mstore(0x40, 0x80)\n      jumpi(tag_1, lt(calldatasize, 0x04))\n      shr(0xe0, calldataload(0x00))\n      dup1\n      0x02ee5a21\n      eq\n      tag_2\n      jumpi\n      dup1\n      0xaacc9bf8\n      eq\n      tag_3\n      jumpi\n    tag_1:\n      0x00\n      dup1\n      revert\n        /* \"contracts/demo1.sol\":381:591  function getDecodeCommonAckPackage(bytes memory msgBytes) public view returns(uint){\r... */\n    tag_2:\n      tag_4\n      0x04\n      dup1\n      calldatasize\n      sub\n        /* \"--CODEGEN--\":13:15   */\n      0x20\n        /* \"--CODEGEN--\":8:11   */\n      dup2\n        /* \"--CODEGEN--\":5:16   */\n      lt\n        /* \"--CODEGEN--\":2:4   */\n      iszero\n      tag_5\n      jumpi\n        /* \"--CODEGEN--\":29:30   */\n      0x00\n        /* \"--CODEGEN--\":26:27   */\n      dup1\n        /* \"--CODEGEN--\":19:31   */\n      revert\n        /* \"--CODEGEN--\":2:4   */\n    tag_5:\n        /* \"contracts/demo1.sol\":381:591  function getDecodeCommonAckPackage(bytes memory msgBytes) public view returns(uint){\r... */\n      dup2\n      add\n      swap1\n      dup1\n      dup1\n      calldataload\n      swap1\n      0x20\n      add\n      swap1\n        /* \"--CODEGEN--\":21:32   */\n      0x0100000000\n        /* \"--CODEGEN--\":8:19   */\n      dup2\n        /* \"--CODEGEN--\":5:33   */\n      gt\n        /* \"--CODEGEN--\":2:4   */\n      iszero\n      tag_6\n      jumpi\n        /* \"--CODEGEN--\":46:47   */\n      0x00\n        /* \"--CODEGEN--\":43:44   */\n      dup1\n        /* \"--CODEGEN--\":36:48   */\n      revert\n        /* \"--CODEGEN--\":2:4   */\n    tag_6:\n        /* \"contracts/demo1.sol\":381:591  function getDecodeCommonAckPackage(bytes memory msgBytes) public view returns(uint){\r... */\n      dup3\n      add\n        /* \"--CODEGEN--\":35:44   */\n      dup4\n        /* \"--CODEGEN--\":28:32   */\n      0x20\n        /* \"--CODEGEN--\":12:26   */\n      dup3\n        /* \"--CODEGEN--\":8:33   */\n      add\n        /* \"--CODEGEN--\":5:45   */\n      gt\n        /* \"--CODEGEN--\":2:4   */\n      iszero\n      tag_7\n      jumpi\n        /* \"--CODEGEN--\":58:59   */\n      0x00\n        /* \"--CODEGEN--\":55:56   */\n      dup1\n        /* \"--CODEGEN--\":48:60   */\n      revert\n        /* \"--CODEGEN--\":2:4   */\n    tag_7:\n        /* \"contracts/demo1.sol\":381:591  function getDecodeCommonAckPackage(bytes memory msgBytes) public view returns(uint){\r... */\n      dup1\n      calldataload\n      swap1\n      0x20\n      add\n      swap2\n        /* \"--CODEGEN--\":100:109   */\n      dup5\n        /* \"--CODEGEN--\":95:96   */\n      0x01\n        /* \"--CODEGEN--\":81:93   */\n      dup4\n        /* \"--CODEGEN--\":77:97   */\n      mul\n        /* \"--CODEGEN--\":67:75   */\n      dup5\n        /* \"--CODEGEN--\":63:98   */\n      add\n        /* \"--CODEGEN--\":60:110   */\n      gt\n        /* \"--CODEGEN--\":39:50   */\n      0x0100000000\n        /* \"--CODEGEN--\":25:37   */\n      dup4\n        /* \"--CODEGEN--\":22:51   */\n      gt\n        /* \"--CODEGEN--\":11:118   */\n      or\n        /* \"--CODEGEN--\":8:10   */\n      iszero\n      tag_8\n      jumpi\n        /* \"--CODEGEN--\":131:132   */\n      0x00\n        /* \"--CODEGEN--\":128:129   */\n      dup1\n        /* \"--CODEGEN--\":121:133   */\n      revert\n        /* \"--CODEGEN--\":8:10   */\n    tag_8:\n        /* \"contracts/demo1.sol\":381:591  function getDecodeCommonAckPackage(bytes memory msgBytes) public view returns(uint){\r... */\n      swap2\n      swap1\n      dup1\n      dup1\n      0x1f\n      add\n      0x20\n      dup1\n      swap2\n      div\n      mul\n      0x20\n      add\n      mload(0x40)\n      swap1\n      dup2\n      add\n      0x40\n      mstore\n      dup1\n      swap4\n      swap3\n      swap2\n      swap1\n      dup2\n      dup2\n      mstore\n      0x20\n      add\n      dup4\n      dup4\n        /* \"--CODEGEN--\":30:33   */\n      dup1\n        /* \"--CODEGEN--\":22:28   */\n      dup3\n        /* \"--CODEGEN--\":14:20   */\n      dup5\n        /* \"--CODEGEN--\":1:34   */\n      calldatacopy\n        /* \"--CODEGEN--\":99:100   */\n      0x00\n        /* \"--CODEGEN--\":93:96   */\n      dup2\n        /* \"--CODEGEN--\":85:91   */\n      dup5\n        /* \"--CODEGEN--\":81:97   */\n      add\n        /* \"--CODEGEN--\":74:101   */\n      mstore\n        /* \"--CODEGEN--\":137:141   */\n      0x1f\n        /* \"--CODEGEN--\":133:142   */\n      not\n        /* \"--CODEGEN--\":126:130   */\n      0x1f\n        /* \"--CODEGEN--\":121:124   */\n      dup3\n        /* \"--CODEGEN--\":117:131   */\n      add\n        /* \"--CODEGEN--\":113:143   */\n      and\n        /* \"--CODEGEN--\":106:143   */\n      swap1\n      pop\n        /* \"--CODEGEN--\":169:172   */\n      dup1\n        /* \"--CODEGEN--\":161:167   */\n      dup4\n        /* \"--CODEGEN--\":157:173   */\n      add\n        /* \"--CODEGEN--\":147:173   */\n      swap3\n      pop\n        /* \"contracts/demo1.sol\":381:591  function getDecodeCommonAckPackage(bytes memory msgBytes) public view returns(uint){\r... */\n      pop\n      pop\n      pop\n      pop\n      pop\n      pop\n      swap2\n      swap3\n      swap2\n      swap3\n      swap1\n      pop\n      pop\n      pop\n      tag_9\n      jump\t// in\n    tag_4:\n      mload(0x40)\n      dup1\n      dup3\n      dup2\n      mstore\n      0x20\n      add\n      swap2\n      pop\n      pop\n      mload(0x40)\n      dup1\n      swap2\n      sub\n      swap1\n      return\n        /* \"contracts/demo1.sol\":238:373  function getEncodeCommonAckPackage(uint32 code) public view returns(bytes memory){\r... */\n    tag_3:\n      tag_10\n      0x04\n      dup1\n      calldatasize\n      sub\n        /* \"--CODEGEN--\":13:15   */\n      0x20\n        /* \"--CODEGEN--\":8:11   */\n      dup2\n        /* \"--CODEGEN--\":5:16   */\n      lt\n        /* \"--CODEGEN--\":2:4   */\n      iszero\n      tag_11\n      jumpi\n        /* \"--CODEGEN--\":29:30   */\n      0x00\n        /* \"--CODEGEN--\":26:27   */\n      dup1\n        /* \"--CODEGEN--\":19:31   */\n      revert\n        /* \"--CODEGEN--\":2:4   */\n    tag_11:\n        /* \"contracts/demo1.sol\":238:373  function getEncodeCommonAckPackage(uint32 code) public view returns(bytes memory){\r... */\n      dup2\n      add\n      swap1\n      dup1\n      dup1\n      calldataload\n      0xffffffff\n      and\n      swap1\n      0x20\n      add\n      swap1\n      swap3\n      swap2\n      swap1\n      pop\n      pop\n      pop\n      tag_12\n      jump\t// in\n    tag_10:\n      mload(0x40)\n      dup1\n      dup1\n      0x20\n      add\n      dup3\n      dup2\n      sub\n      dup3\n      mstore\n      dup4\n      dup2\n      dup2\n      mload\n      dup2\n      mstore\n      0x20\n      add\n      swap2\n      pop\n      dup1\n      mload\n      swap1\n      0x20\n      add\n      swap1\n      dup1\n      dup4\n      dup4\n        /* \"--CODEGEN--\":23:24   */\n      0x00\n        /* \"--CODEGEN--\":8:108   */\n    tag_13:\n        /* \"--CODEGEN--\":33:36   */\n      dup4\n        /* \"--CODEGEN--\":30:31   */\n      dup2\n        /* \"--CODEGEN--\":27:37   */\n      lt\n        /* \"--CODEGEN--\":8:108   */\n      iszero\n      tag_15\n      jumpi\n        /* \"--CODEGEN--\":99:100   */\n      dup1\n        /* \"--CODEGEN--\":94:97   */\n      dup3\n        /* \"--CODEGEN--\":90:101   */\n      add\n        /* \"--CODEGEN--\":84:102   */\n      mload\n        /* \"--CODEGEN--\":80:81   */\n      dup2\n        /* \"--CODEGEN--\":75:78   */\n      dup5\n        /* \"--CODEGEN--\":71:82   */\n      add\n        /* \"--CODEGEN--\":64:103   */\n      mstore\n        /* \"--CODEGEN--\":52:54   */\n      0x20\n        /* \"--CODEGEN--\":49:50   */\n      dup2\n        /* \"--CODEGEN--\":45:55   */\n      add\n        /* \"--CODEGEN--\":40:55   */\n      swap1\n      pop\n        /* \"--CODEGEN--\":8:108   */\n      jump(tag_13)\n    tag_15:\n        /* \"--CODEGEN--\":12:26   */\n      pop\n        /* \"contracts/demo1.sol\":238:373  function getEncodeCommonAckPackage(uint32 code) public view returns(bytes memory){\r... */\n      pop\n      pop\n      pop\n      swap1\n      pop\n      swap1\n      dup2\n      add\n      swap1\n      0x1f\n      and\n      dup1\n      iszero\n      tag_16\n      jumpi\n      dup1\n      dup3\n      sub\n      dup1\n      mload\n      0x01\n      dup4\n      0x20\n      sub\n      0x0100\n      exp\n      sub\n      not\n      and\n      dup2\n      mstore\n      0x20\n      add\n      swap2\n      pop\n    tag_16:\n      pop\n      swap3\n      pop\n      pop\n      pop\n      mload(0x40)\n      dup1\n      swap2\n      sub\n      swap1\n      return\n        /* \"contracts/demo1.sol\":381:591  function getDecodeCommonAckPackage(bytes memory msgBytes) public view returns(uint){\r... */\n    tag_9:\n        /* \"contracts/demo1.sol\":459:463  uint */\n      0x00\n        /* \"contracts/demo1.sol\":476:506  CommonAckPackage memory ackPkg */\n      tag_18\n      tag_19\n      jump\t// in\n    tag_18:\n        /* \"contracts/demo1.sol\":508:518  bool value */\n      0x00\n        /* \"contracts/demo1.sol\":522:554  decodeCommonAckPackage(msgBytes) */\n      tag_20\n        /* \"contracts/demo1.sol\":545:553  msgBytes */\n      dup5\n        /* \"contracts/demo1.sol\":522:544  decodeCommonAckPackage */\n      tag_21\n        /* \"contracts/demo1.sol\":522:554  decodeCommonAckPackage(msgBytes) */\n      jump\t// in\n    tag_20:\n        /* \"contracts/demo1.sol\":475:554  (CommonAckPackage memory ackPkg, bool value) = decodeCommonAckPackage(msgBytes) */\n      swap2\n      pop\n      swap2\n      pop\n        /* \"contracts/demo1.sol\":572:578  ackPkg */\n      dup2\n        /* \"contracts/demo1.sol\":572:583  ackPkg.code */\n      0x00\n      add\n      mload\n        /* \"contracts/demo1.sol\":565:583  return ackPkg.code */\n      0xffffffff\n      and\n      swap3\n      pop\n      pop\n      pop\n        /* \"contracts/demo1.sol\":381:591  function getDecodeCommonAckPackage(bytes memory msgBytes) public view returns(uint){\r... */\n      swap2\n      swap1\n      pop\n      jump\t// out\n        /* \"contracts/demo1.sol\":238:373  function getEncodeCommonAckPackage(uint32 code) public view returns(bytes memory){\r... */\n    tag_12:\n        /* \"contracts/demo1.sol\":306:318  bytes memory */\n      0x60\n        /* \"contracts/demo1.sol\":337:365  encodeCommonAckPackage(code) */\n      tag_23\n        /* \"contracts/demo1.sol\":360:364  code */\n      dup3\n        /* \"contracts/demo1.sol\":337:359  encodeCommonAckPackage */\n      tag_24\n        /* \"contracts/demo1.sol\":337:365  encodeCommonAckPackage(code) */\n      jump\t// in\n    tag_23:\n        /* \"contracts/demo1.sol\":330:365  return encodeCommonAckPackage(code) */\n      swap1\n      pop\n        /* \"contracts/demo1.sol\":238:373  function getEncodeCommonAckPackage(uint32 code) public view returns(bytes memory){\r... */\n      swap2\n      swap1\n      pop\n      jump\t// out\n        /* \"contracts/demo1.sol\":838:1412  function decodeCommonAckPackage(bytes memory msgBytes) internal pure returns (CommonAckPackage memory, bool) {\r... */\n    tag_21:\n        /* \"contracts/demo1.sol\":916:939  CommonAckPackage memory */\n      tag_25\n      tag_19\n      jump\t// in\n    tag_25:\n        /* \"contracts/demo1.sol\":941:945  bool */\n      0x00\n        /* \"contracts/demo1.sol\":958:988  CommonAckPackage memory ackPkg */\n      tag_27\n      tag_19\n      jump\t// in\n    tag_27:\n        /* \"contracts/demo1.sol\":999:1029  RLPDecode.Iterator memory iter */\n      tag_28\n      tag_29\n      jump\t// in\n    tag_28:\n        /* \"contracts/demo1.sol\":1032:1063  msgBytes.toRLPItem().iterator() */\n      tag_30\n        /* \"contracts/demo1.sol\":1032:1052  msgBytes.toRLPItem() */\n      tag_31\n        /* \"contracts/demo1.sol\":1032:1040  msgBytes */\n      dup7\n        /* \"contracts/demo1.sol\":1032:1050  msgBytes.toRLPItem */\n      tag_32\n        /* \"contracts/demo1.sol\":1032:1052  msgBytes.toRLPItem() */\n      jump\t// in\n    tag_31:\n        /* \"contracts/demo1.sol\":1032:1061  msgBytes.toRLPItem().iterator */\n      tag_33\n        /* \"contracts/demo1.sol\":1032:1063  msgBytes.toRLPItem().iterator() */\n      jump\t// in\n    tag_30:\n        /* \"contracts/demo1.sol\":999:1063  RLPDecode.Iterator memory iter = msgBytes.toRLPItem().iterator() */\n      swap1\n      pop\n        /* \"contracts/demo1.sol\":1076:1088  bool success */\n      0x00\n        /* \"contracts/demo1.sol\":1091:1096  false */\n      dup1\n        /* \"contracts/demo1.sol\":1076:1096  bool success = false */\n      swap1\n      pop\n        /* \"contracts/demo1.sol\":1107:1118  uint256 idx */\n      0x00\n        /* \"contracts/demo1.sol\":1119:1120  0 */\n      dup1\n        /* \"contracts/demo1.sol\":1107:1120  uint256 idx=0 */\n      swap1\n      pop\n        /* \"contracts/demo1.sol\":1131:1370  while (iter.hasNext()) {\r... */\n    tag_34:\n        /* \"contracts/demo1.sol\":1138:1152  iter.hasNext() */\n      tag_36\n        /* \"contracts/demo1.sol\":1138:1142  iter */\n      dup4\n        /* \"contracts/demo1.sol\":1138:1150  iter.hasNext */\n      tag_37\n        /* \"contracts/demo1.sol\":1138:1152  iter.hasNext() */\n      jump\t// in\n    tag_36:\n        /* \"contracts/demo1.sol\":1131:1370  while (iter.hasNext()) {\r... */\n      iszero\n      tag_35\n      jumpi\n        /* \"contracts/demo1.sol\":1180:1181  0 */\n      0x00\n        /* \"contracts/demo1.sol\":1173:1176  idx */\n      dup2\n        /* \"contracts/demo1.sol\":1173:1181  idx == 0 */\n      eq\n        /* \"contracts/demo1.sol\":1169:1339  if (idx == 0) {\r... */\n      iszero\n      tag_38\n      jumpi\n        /* \"contracts/demo1.sol\":1223:1243  iter.next().toUint() */\n      tag_39\n        /* \"contracts/demo1.sol\":1223:1234  iter.next() */\n      tag_40\n        /* \"contracts/demo1.sol\":1223:1227  iter */\n      dup5\n        /* \"contracts/demo1.sol\":1223:1232  iter.next */\n      tag_41\n        /* \"contracts/demo1.sol\":1223:1234  iter.next() */\n      jump\t// in\n    tag_40:\n        /* \"contracts/demo1.sol\":1223:1241  iter.next().toUint */\n      tag_42\n        /* \"contracts/demo1.sol\":1223:1243  iter.next().toUint() */\n      jump\t// in\n    tag_39:\n        /* \"contracts/demo1.sol\":1202:1208  ackPkg */\n      dup5\n        /* \"contracts/demo1.sol\":1202:1213  ackPkg.code */\n      0x00\n      add\n        /* \"contracts/demo1.sol\":1202:1244  ackPkg.code = uint32(iter.next().toUint()) */\n      swap1\n      0xffffffff\n      and\n      swap1\n      dup2\n      0xffffffff\n      and\n      dup2\n      mstore\n      pop\n      pop\n        /* \"contracts/demo1.sol\":1273:1277  true */\n      0x01\n        /* \"contracts/demo1.sol\":1263:1277  success = true */\n      swap2\n      pop\n        /* \"contracts/demo1.sol\":1169:1339  if (idx == 0) {\r... */\n      jump(tag_43)\n    tag_38:\n        /* \"contracts/demo1.sol\":1318:1323  break */\n      jump(tag_35)\n        /* \"contracts/demo1.sol\":1169:1339  if (idx == 0) {\r... */\n    tag_43:\n        /* \"contracts/demo1.sol\":1353:1358  idx++ */\n      dup1\n      dup1\n      0x01\n      add\n      swap2\n      pop\n      pop\n        /* \"contracts/demo1.sol\":1131:1370  while (iter.hasNext()) {\r... */\n      jump(tag_34)\n    tag_35:\n        /* \"contracts/demo1.sol\":1388:1394  ackPkg */\n      dup4\n        /* \"contracts/demo1.sol\":1396:1403  success */\n      dup3\n        /* \"contracts/demo1.sol\":1380:1404  return (ackPkg, success) */\n      swap6\n      pop\n      swap6\n      pop\n      pop\n      pop\n      pop\n      pop\n        /* \"contracts/demo1.sol\":838:1412  function decodeCommonAckPackage(bytes memory msgBytes) internal pure returns (CommonAckPackage memory, bool) {\r... */\n      swap2\n      pop\n      swap2\n      jump\t// out\n        /* \"contracts/demo1.sol\":599:830  function encodeCommonAckPackage(uint32 code) internal pure returns (bytes memory) {\r... */\n    tag_24:\n        /* \"contracts/demo1.sol\":667:679  bytes memory */\n      0x60\n        /* \"contracts/demo1.sol\":692:715  bytes[] memory elements */\n      dup1\n        /* \"contracts/demo1.sol\":730:731  1 */\n      0x01\n        /* \"contracts/demo1.sol\":718:732  new bytes[](1) */\n      mload(0x40)\n      swap1\n      dup1\n      dup3\n      mstore\n      dup1\n      0x20\n      mul\n      0x20\n      add\n      dup3\n      add\n      0x40\n      mstore\n      dup1\n      iszero\n      tag_45\n      jumpi\n      dup2\n      0x20\n      add\n    tag_46:\n      0x60\n      dup2\n      mstore\n      0x20\n      add\n      swap1\n      0x01\n      swap1\n      sub\n      swap1\n      dup2\n      tag_46\n      jumpi\n      swap1\n      pop\n    tag_45:\n      pop\n        /* \"contracts/demo1.sol\":692:732  bytes[] memory elements = new bytes[](1) */\n      swap1\n      pop\n        /* \"contracts/demo1.sol\":757:783  uint256(code).encodeUint() */\n      tag_47\n        /* \"contracts/demo1.sol\":765:769  code */\n      dup4\n        /* \"contracts/demo1.sol\":757:770  uint256(code) */\n      0xffffffff\n      and\n        /* \"contracts/demo1.sol\":757:781  uint256(code).encodeUint */\n      tag_48\n        /* \"contracts/demo1.sol\":757:783  uint256(code).encodeUint() */\n      jump\t// in\n    tag_47:\n        /* \"contracts/demo1.sol\":743:751  elements */\n      dup2\n        /* \"contracts/demo1.sol\":752:753  0 */\n      0x00\n        /* \"contracts/demo1.sol\":743:754  elements[0] */\n      dup2\n      mload\n      dup2\n      lt\n      tag_49\n      jumpi\n      invalid\n    tag_49:\n      0x20\n      mul\n      0x20\n      add\n      add\n        /* \"contracts/demo1.sol\":743:783  elements[0] = uint256(code).encodeUint() */\n      dup2\n      swap1\n      mstore\n      pop\n        /* \"contracts/demo1.sol\":801:822  elements.encodeList() */\n      tag_50\n        /* \"contracts/demo1.sol\":801:809  elements */\n      dup2\n        /* \"contracts/demo1.sol\":801:820  elements.encodeList */\n      tag_51\n        /* \"contracts/demo1.sol\":801:822  elements.encodeList() */\n      jump\t// in\n    tag_50:\n        /* \"contracts/demo1.sol\":794:822  return elements.encodeList() */\n      swap2\n      pop\n      pop\n        /* \"contracts/demo1.sol\":599:830  function encodeCommonAckPackage(uint32 code) internal pure returns (bytes memory) {\r... */\n      swap2\n      swap1\n      pop\n      jump\t// out\n        /* \"contracts/RLPDecode.sol\":989:1214  function toRLPItem(bytes memory self) internal pure returns (RLPItem memory) {\r... */\n    tag_32:\n        /* \"contracts/RLPDecode.sol\":1050:1064  RLPItem memory */\n      tag_52\n      tag_53\n      jump\t// in\n    tag_52:\n        /* \"contracts/RLPDecode.sol\":1077:1088  uint memPtr */\n      0x00\n        /* \"contracts/RLPDecode.sol\":1143:1147  0x20 */\n      0x20\n        /* \"contracts/RLPDecode.sol\":1137:1141  self */\n      dup4\n        /* \"contracts/RLPDecode.sol\":1133:1148  add(self, 0x20) */\n      add\n        /* \"contracts/RLPDecode.sol\":1123:1148  memPtr := add(self, 0x20) */\n      swap1\n      pop\n        /* \"contracts/RLPDecode.sol\":1178:1206  RLPItem(self.length, memPtr) */\n      mload(0x40)\n      dup1\n      0x40\n      add\n      0x40\n      mstore\n      dup1\n        /* \"contracts/RLPDecode.sol\":1186:1190  self */\n      dup5\n        /* \"contracts/RLPDecode.sol\":1186:1197  self.length */\n      mload\n        /* \"contracts/RLPDecode.sol\":1178:1206  RLPItem(self.length, memPtr) */\n      dup2\n      mstore\n      0x20\n      add\n        /* \"contracts/RLPDecode.sol\":1199:1205  memPtr */\n      dup3\n        /* \"contracts/RLPDecode.sol\":1178:1206  RLPItem(self.length, memPtr) */\n      dup2\n      mstore\n      pop\n        /* \"contracts/RLPDecode.sol\":1171:1206  return RLPItem(self.length, memPtr) */\n      swap2\n      pop\n      pop\n        /* \"contracts/RLPDecode.sol\":989:1214  function toRLPItem(bytes memory self) internal pure returns (RLPItem memory) {\r... */\n      swap2\n      swap1\n      pop\n      jump\t// out\n        /* \"contracts/RLPDecode.sol\":1222:1443  function iterator(RLPItem memory self) internal pure returns (Iterator memory) {\r... */\n    tag_33:\n        /* \"contracts/RLPDecode.sol\":1284:1299  Iterator memory */\n      tag_55\n      tag_29\n      jump\t// in\n    tag_55:\n        /* \"contracts/RLPDecode.sol\":1320:1332  isList(self) */\n      tag_57\n        /* \"contracts/RLPDecode.sol\":1327:1331  self */\n      dup3\n        /* \"contracts/RLPDecode.sol\":1320:1326  isList */\n      tag_58\n        /* \"contracts/RLPDecode.sol\":1320:1332  isList(self) */\n      jump\t// in\n    tag_57:\n        /* \"contracts/RLPDecode.sol\":1312:1333  require(isList(self)) */\n      tag_59\n      jumpi\n      0x00\n      dup1\n      revert\n    tag_59:\n        /* \"contracts/RLPDecode.sol\":1346:1354  uint ptr */\n      0x00\n        /* \"contracts/RLPDecode.sol\":1371:1398  _payloadOffset(self.memPtr) */\n      tag_60\n        /* \"contracts/RLPDecode.sol\":1386:1390  self */\n      dup4\n        /* \"contracts/RLPDecode.sol\":1386:1397  self.memPtr */\n      0x20\n      add\n      mload\n        /* \"contracts/RLPDecode.sol\":1371:1385  _payloadOffset */\n      tag_61\n        /* \"contracts/RLPDecode.sol\":1371:1398  _payloadOffset(self.memPtr) */\n      jump\t// in\n    tag_60:\n        /* \"contracts/RLPDecode.sol\":1357:1361  self */\n      dup4\n        /* \"contracts/RLPDecode.sol\":1357:1368  self.memPtr */\n      0x20\n      add\n      mload\n        /* \"contracts/RLPDecode.sol\":1357:1398  self.memPtr + _payloadOffset(self.memPtr) */\n      add\n        /* \"contracts/RLPDecode.sol\":1346:1398  uint ptr = self.memPtr + _payloadOffset(self.memPtr) */\n      swap1\n      pop\n        /* \"contracts/RLPDecode.sol\":1416:1435  Iterator(self, ptr) */\n      mload(0x40)\n      dup1\n      0x40\n      add\n      0x40\n      mstore\n      dup1\n        /* \"contracts/RLPDecode.sol\":1425:1429  self */\n      dup5\n        /* \"contracts/RLPDecode.sol\":1416:1435  Iterator(self, ptr) */\n      dup2\n      mstore\n      0x20\n      add\n        /* \"contracts/RLPDecode.sol\":1431:1434  ptr */\n      dup3\n        /* \"contracts/RLPDecode.sol\":1416:1435  Iterator(self, ptr) */\n      dup2\n      mstore\n      pop\n        /* \"contracts/RLPDecode.sol\":1409:1435  return Iterator(self, ptr) */\n      swap2\n      pop\n      pop\n        /* \"contracts/RLPDecode.sol\":1222:1443  function iterator(RLPItem memory self) internal pure returns (Iterator memory) {\r... */\n      swap2\n      swap1\n      pop\n      jump\t// out\n        /* \"contracts/RLPDecode.sol\":808:981  function hasNext(Iterator memory self) internal pure returns (bool) {\r... */\n    tag_37:\n        /* \"contracts/RLPDecode.sol\":870:874  bool */\n      0x00\n        /* \"contracts/RLPDecode.sol\":887:906  RLPItem memory item */\n      tag_63\n      tag_53\n      jump\t// in\n    tag_63:\n        /* \"contracts/RLPDecode.sol\":909:913  self */\n      dup3\n        /* \"contracts/RLPDecode.sol\":909:918  self.item */\n      0x00\n      add\n      mload\n        /* \"contracts/RLPDecode.sol\":887:918  RLPItem memory item = self.item */\n      swap1\n      pop\n        /* \"contracts/RLPDecode.sol\":965:969  item */\n      dup1\n        /* \"contracts/RLPDecode.sol\":965:973  item.len */\n      0x00\n      add\n      mload\n        /* \"contracts/RLPDecode.sol\":951:955  item */\n      dup2\n        /* \"contracts/RLPDecode.sol\":951:962  item.memPtr */\n      0x20\n      add\n      mload\n        /* \"contracts/RLPDecode.sol\":951:973  item.memPtr + item.len */\n      add\n        /* \"contracts/RLPDecode.sol\":936:940  self */\n      dup4\n        /* \"contracts/RLPDecode.sol\":936:948  self.nextPtr */\n      0x20\n      add\n      mload\n        /* \"contracts/RLPDecode.sol\":936:973  self.nextPtr < item.memPtr + item.len */\n      lt\n        /* \"contracts/RLPDecode.sol\":929:973  return self.nextPtr < item.memPtr + item.len */\n      swap2\n      pop\n      pop\n        /* \"contracts/RLPDecode.sol\":808:981  function hasNext(Iterator memory self) internal pure returns (bool) {\r... */\n      swap2\n      swap1\n      pop\n      jump\t// out\n        /* \"contracts/RLPDecode.sol\":517:800  function next(Iterator memory self) internal pure returns (RLPItem memory) {\r... */\n    tag_41:\n        /* \"contracts/RLPDecode.sol\":576:590  RLPItem memory */\n      tag_64\n      tag_53\n      jump\t// in\n    tag_64:\n        /* \"contracts/RLPDecode.sol\":611:624  hasNext(self) */\n      tag_66\n        /* \"contracts/RLPDecode.sol\":619:623  self */\n      dup3\n        /* \"contracts/RLPDecode.sol\":611:618  hasNext */\n      tag_37\n        /* \"contracts/RLPDecode.sol\":611:624  hasNext(self) */\n      jump\t// in\n    tag_66:\n        /* \"contracts/RLPDecode.sol\":603:625  require(hasNext(self)) */\n      tag_67\n      jumpi\n      0x00\n      dup1\n      revert\n    tag_67:\n        /* \"contracts/RLPDecode.sol\":638:646  uint ptr */\n      0x00\n        /* \"contracts/RLPDecode.sol\":649:653  self */\n      dup3\n        /* \"contracts/RLPDecode.sol\":649:661  self.nextPtr */\n      0x20\n      add\n      mload\n        /* \"contracts/RLPDecode.sol\":638:661  uint ptr = self.nextPtr */\n      swap1\n      pop\n        /* \"contracts/RLPDecode.sol\":672:687  uint itemLength */\n      0x00\n        /* \"contracts/RLPDecode.sol\":690:706  _itemLength(ptr) */\n      tag_68\n        /* \"contracts/RLPDecode.sol\":702:705  ptr */\n      dup3\n        /* \"contracts/RLPDecode.sol\":690:701  _itemLength */\n      tag_69\n        /* \"contracts/RLPDecode.sol\":690:706  _itemLength(ptr) */\n      jump\t// in\n    tag_68:\n        /* \"contracts/RLPDecode.sol\":672:706  uint itemLength = _itemLength(ptr) */\n      swap1\n      pop\n        /* \"contracts/RLPDecode.sol\":738:748  itemLength */\n      dup1\n        /* \"contracts/RLPDecode.sol\":732:735  ptr */\n      dup3\n        /* \"contracts/RLPDecode.sol\":732:748  ptr + itemLength */\n      add\n        /* \"contracts/RLPDecode.sol\":717:721  self */\n      dup5\n        /* \"contracts/RLPDecode.sol\":717:729  self.nextPtr */\n      0x20\n      add\n        /* \"contracts/RLPDecode.sol\":717:748  self.nextPtr = ptr + itemLength */\n      dup2\n      dup2\n      mstore\n      pop\n      pop\n        /* \"contracts/RLPDecode.sol\":768:792  RLPItem(itemLength, ptr) */\n      mload(0x40)\n      dup1\n      0x40\n      add\n      0x40\n      mstore\n      dup1\n        /* \"contracts/RLPDecode.sol\":776:786  itemLength */\n      dup3\n        /* \"contracts/RLPDecode.sol\":768:792  RLPItem(itemLength, ptr) */\n      dup2\n      mstore\n      0x20\n      add\n        /* \"contracts/RLPDecode.sol\":788:791  ptr */\n      dup4\n        /* \"contracts/RLPDecode.sol\":768:792  RLPItem(itemLength, ptr) */\n      dup2\n      mstore\n      pop\n        /* \"contracts/RLPDecode.sol\":761:792  return RLPItem(itemLength, ptr) */\n      swap3\n      pop\n      pop\n      pop\n        /* \"contracts/RLPDecode.sol\":517:800  function next(Iterator memory self) internal pure returns (RLPItem memory) {\r... */\n      swap2\n      swap1\n      pop\n      jump\t// out\n        /* \"contracts/RLPDecode.sol\":3437:4050  function toUint(RLPItem memory item) internal pure returns (uint) {\r... */\n    tag_42:\n        /* \"contracts/RLPDecode.sol\":3497:3501  uint */\n      0x00\n        /* \"contracts/RLPDecode.sol\":3533:3534  0 */\n      dup1\n        /* \"contracts/RLPDecode.sol\":3522:3526  item */\n      dup3\n        /* \"contracts/RLPDecode.sol\":3522:3530  item.len */\n      0x00\n      add\n      mload\n        /* \"contracts/RLPDecode.sol\":3522:3534  item.len > 0 */\n      gt\n        /* \"contracts/RLPDecode.sol\":3522:3552  item.len > 0 && item.len <= 33 */\n      dup1\n      iszero\n      tag_71\n      jumpi\n      pop\n        /* \"contracts/RLPDecode.sol\":3550:3552  33 */\n      0x21\n        /* \"contracts/RLPDecode.sol\":3538:3542  item */\n      dup3\n        /* \"contracts/RLPDecode.sol\":3538:3546  item.len */\n      0x00\n      add\n      mload\n        /* \"contracts/RLPDecode.sol\":3538:3552  item.len <= 33 */\n      gt\n      iszero\n        /* \"contracts/RLPDecode.sol\":3522:3552  item.len > 0 && item.len <= 33 */\n    tag_71:\n        /* \"contracts/RLPDecode.sol\":3514:3553  require(item.len > 0 && item.len <= 33) */\n      tag_72\n      jumpi\n      0x00\n      dup1\n      revert\n    tag_72:\n        /* \"contracts/RLPDecode.sol\":3566:3577  uint offset */\n      0x00\n        /* \"contracts/RLPDecode.sol\":3580:3607  _payloadOffset(item.memPtr) */\n      tag_73\n        /* \"contracts/RLPDecode.sol\":3595:3599  item */\n      dup4\n        /* \"contracts/RLPDecode.sol\":3595:3606  item.memPtr */\n      0x20\n      add\n      mload\n        /* \"contracts/RLPDecode.sol\":3580:3594  _payloadOffset */\n      tag_61\n        /* \"contracts/RLPDecode.sol\":3580:3607  _payloadOffset(item.memPtr) */\n      jump\t// in\n    tag_73:\n        /* \"contracts/RLPDecode.sol\":3566:3607  uint offset = _payloadOffset(item.memPtr) */\n      swap1\n      pop\n        /* \"contracts/RLPDecode.sol\":3638:3644  offset */\n      dup1\n        /* \"contracts/RLPDecode.sol\":3626:3630  item */\n      dup4\n        /* \"contracts/RLPDecode.sol\":3626:3634  item.len */\n      0x00\n      add\n      mload\n        /* \"contracts/RLPDecode.sol\":3626:3644  item.len >= offset */\n      lt\n      iszero\n        /* \"contracts/RLPDecode.sol\":3618:3675  require(item.len >= offset, \"length is less than offset\") */\n      tag_74\n      jumpi\n      mload(0x40)\n      0x08c379a000000000000000000000000000000000000000000000000000000000\n      dup2\n      mstore\n      0x04\n      add\n      dup1\n      dup1\n      0x20\n      add\n      dup3\n      dup2\n      sub\n      dup3\n      mstore\n      0x1a\n      dup2\n      mstore\n      0x20\n      add\n      dup1\n      0x6c656e677468206973206c657373207468616e206f6666736574000000000000\n      dup2\n      mstore\n      pop\n      0x20\n      add\n      swap2\n      pop\n      pop\n      mload(0x40)\n      dup1\n      swap2\n      sub\n      swap1\n      revert\n    tag_74:\n        /* \"contracts/RLPDecode.sol\":3686:3694  uint len */\n      0x00\n        /* \"contracts/RLPDecode.sol\":3708:3714  offset */\n      dup2\n        /* \"contracts/RLPDecode.sol\":3697:3701  item */\n      dup5\n        /* \"contracts/RLPDecode.sol\":3697:3705  item.len */\n      0x00\n      add\n      mload\n        /* \"contracts/RLPDecode.sol\":3697:3714  item.len - offset */\n      sub\n        /* \"contracts/RLPDecode.sol\":3686:3714  uint len = item.len - offset */\n      swap1\n      pop\n        /* \"contracts/RLPDecode.sol\":3727:3738  uint result */\n      0x00\n        /* \"contracts/RLPDecode.sol\":3749:3760  uint memPtr */\n      dup1\n        /* \"contracts/RLPDecode.sol\":3777:3783  offset */\n      dup4\n        /* \"contracts/RLPDecode.sol\":3763:3767  item */\n      dup7\n        /* \"contracts/RLPDecode.sol\":3763:3774  item.memPtr */\n      0x20\n      add\n      mload\n        /* \"contracts/RLPDecode.sol\":3763:3783  item.memPtr + offset */\n      add\n        /* \"contracts/RLPDecode.sol\":3749:3783  uint memPtr = item.memPtr + offset */\n      swap1\n      pop\n        /* \"contracts/RLPDecode.sol\":3834:3840  memPtr */\n      dup1\n        /* \"contracts/RLPDecode.sol\":3828:3841  mload(memPtr) */\n      mload\n        /* \"contracts/RLPDecode.sol\":3818:3841  result := mload(memPtr) */\n      swap2\n      pop\n        /* \"contracts/RLPDecode.sol\":3923:3925  32 */\n      0x20\n        /* \"contracts/RLPDecode.sol\":3918:3921  len */\n      dup4\n        /* \"contracts/RLPDecode.sol\":3915:3926  lt(len, 32) */\n      lt\n        /* \"contracts/RLPDecode.sol\":3912:3914  if */\n      iszero\n      tag_75\n      jumpi\n        /* \"contracts/RLPDecode.sol\":3985:3988  len */\n      dup3\n        /* \"contracts/RLPDecode.sol\":3981:3983  32 */\n      0x20\n        /* \"contracts/RLPDecode.sol\":3977:3989  sub(32, len) */\n      sub\n        /* \"contracts/RLPDecode.sol\":3972:3975  256 */\n      0x0100\n        /* \"contracts/RLPDecode.sol\":3968:3990  exp(256, sub(32, len)) */\n      exp\n        /* \"contracts/RLPDecode.sol\":3960:3966  result */\n      dup3\n        /* \"contracts/RLPDecode.sol\":3956:3991  div(result, exp(256, sub(32, len))) */\n      div\n        /* \"contracts/RLPDecode.sol\":3946:3991  result := div(result, exp(256, sub(32, len))) */\n      swap2\n      pop\n        /* \"contracts/RLPDecode.sol\":3912:3914  if */\n    tag_75:\n        /* \"contracts/RLPDecode.sol\":4036:4042  result */\n      dup2\n        /* \"contracts/RLPDecode.sol\":4029:4042  return result */\n      swap5\n      pop\n      pop\n      pop\n      pop\n      pop\n        /* \"contracts/RLPDecode.sol\":3437:4050  function toUint(RLPItem memory item) internal pure returns (uint) {\r... */\n      swap2\n      swap1\n      pop\n      jump\t// out\n        /* \"contracts/RLPEncode.sol\":1199:1320  function encodeUint(uint self) internal pure returns (bytes memory) {\r... */\n    tag_48:\n        /* \"contracts/RLPEncode.sol\":1253:1265  bytes memory */\n      0x60\n        /* \"contracts/RLPEncode.sol\":1285:1312  encodeBytes(toBinary(self)) */\n      tag_77\n        /* \"contracts/RLPEncode.sol\":1297:1311  toBinary(self) */\n      tag_78\n        /* \"contracts/RLPEncode.sol\":1306:1310  self */\n      dup4\n        /* \"contracts/RLPEncode.sol\":1297:1305  toBinary */\n      tag_79\n        /* \"contracts/RLPEncode.sol\":1297:1311  toBinary(self) */\n      jump\t// in\n    tag_78:\n        /* \"contracts/RLPEncode.sol\":1285:1296  encodeBytes */\n      tag_80\n        /* \"contracts/RLPEncode.sol\":1285:1312  encodeBytes(toBinary(self)) */\n      jump\t// in\n    tag_77:\n        /* \"contracts/RLPEncode.sol\":1278:1312  return encodeBytes(toBinary(self)) */\n      swap1\n      pop\n        /* \"contracts/RLPEncode.sol\":1199:1320  function encodeUint(uint self) internal pure returns (bytes memory) {\r... */\n      swap2\n      swap1\n      pop\n      jump\t// out\n        /* \"contracts/RLPEncode.sol\":2126:2525  function encodeList(bytes[] memory self) internal pure returns (bytes memory) {\r... */\n    tag_51:\n        /* \"contracts/RLPEncode.sol\":2190:2202  bytes memory */\n      0x60\n        /* \"contracts/RLPEncode.sol\":2234:2235  0 */\n      0x00\n        /* \"contracts/RLPEncode.sol\":2219:2223  self */\n      dup3\n        /* \"contracts/RLPEncode.sol\":2219:2230  self.length */\n      mload\n        /* \"contracts/RLPEncode.sol\":2219:2235  self.length == 0 */\n      eq\n        /* \"contracts/RLPEncode.sol\":2215:2283  if (self.length == 0) {\r... */\n      iszero\n      tag_82\n      jumpi\n        /* \"contracts/RLPEncode.sol\":2269:2270  0 */\n      0x00\n        /* \"contracts/RLPEncode.sol\":2259:2271  new bytes(0) */\n      mload(0x40)\n      swap1\n      dup1\n      dup3\n      mstore\n      dup1\n      0x1f\n      add\n      not(0x1f)\n      and\n      0x20\n      add\n      dup3\n      add\n      0x40\n      mstore\n      dup1\n      iszero\n      tag_83\n      jumpi\n      dup2\n      0x20\n      add\n        /* \"--CODEGEN--\":29:30   */\n      0x01\n        /* \"--CODEGEN--\":21:27   */\n      dup3\n        /* \"--CODEGEN--\":17:31   */\n      mul\n        /* \"--CODEGEN--\":116:120   */\n      dup1\n        /* \"--CODEGEN--\":104:114   */\n      codesize\n        /* \"--CODEGEN--\":96:102   */\n      dup4\n        /* \"--CODEGEN--\":87:121   */\n      codecopy\n        /* \"--CODEGEN--\":147:151   */\n      dup1\n        /* \"--CODEGEN--\":139:145   */\n      dup3\n        /* \"--CODEGEN--\":135:152   */\n      add\n        /* \"--CODEGEN--\":125:152   */\n      swap2\n      pop\n        /* \"--CODEGEN--\":0:156   */\n      pop\n        /* \"contracts/RLPEncode.sol\":2259:2271  new bytes(0) */\n      swap1\n      pop\n    tag_83:\n      pop\n        /* \"contracts/RLPEncode.sol\":2252:2271  return new bytes(0) */\n      swap1\n      pop\n      jump(tag_81)\n        /* \"contracts/RLPEncode.sol\":2215:2283  if (self.length == 0) {\r... */\n    tag_82:\n        /* \"contracts/RLPEncode.sol\":2293:2313  bytes memory payload */\n      0x60\n        /* \"contracts/RLPEncode.sol\":2316:2320  self */\n      dup3\n        /* \"contracts/RLPEncode.sol\":2321:2322  0 */\n      0x00\n        /* \"contracts/RLPEncode.sol\":2316:2323  self[0] */\n      dup2\n      mload\n      dup2\n      lt\n      tag_84\n      jumpi\n      invalid\n    tag_84:\n      0x20\n      mul\n      0x20\n      add\n      add\n      mload\n        /* \"contracts/RLPEncode.sol\":2293:2323  bytes memory payload = self[0] */\n      swap1\n      pop\n        /* \"contracts/RLPEncode.sol\":2339:2345  uint i */\n      0x00\n        /* \"contracts/RLPEncode.sol\":2348:2349  1 */\n      0x01\n        /* \"contracts/RLPEncode.sol\":2339:2349  uint i = 1 */\n      swap1\n      pop\n        /* \"contracts/RLPEncode.sol\":2334:2438  for (uint i = 1; i < self.length; i++) {\r... */\n    tag_85:\n        /* \"contracts/RLPEncode.sol\":2355:2359  self */\n      dup4\n        /* \"contracts/RLPEncode.sol\":2355:2366  self.length */\n      mload\n        /* \"contracts/RLPEncode.sol\":2351:2352  i */\n      dup2\n        /* \"contracts/RLPEncode.sol\":2351:2366  i < self.length */\n      lt\n        /* \"contracts/RLPEncode.sol\":2334:2438  for (uint i = 1; i < self.length; i++) {\r... */\n      iszero\n      tag_86\n      jumpi\n        /* \"contracts/RLPEncode.sol\":2398:2426  mergeBytes(payload, self[i]) */\n      tag_88\n        /* \"contracts/RLPEncode.sol\":2409:2416  payload */\n      dup3\n        /* \"contracts/RLPEncode.sol\":2418:2422  self */\n      dup6\n        /* \"contracts/RLPEncode.sol\":2423:2424  i */\n      dup4\n        /* \"contracts/RLPEncode.sol\":2418:2425  self[i] */\n      dup2\n      mload\n      dup2\n      lt\n      tag_89\n      jumpi\n      invalid\n    tag_89:\n      0x20\n      mul\n      0x20\n      add\n      add\n      mload\n        /* \"contracts/RLPEncode.sol\":2398:2408  mergeBytes */\n      tag_90\n        /* \"contracts/RLPEncode.sol\":2398:2426  mergeBytes(payload, self[i]) */\n      jump\t// in\n    tag_88:\n        /* \"contracts/RLPEncode.sol\":2388:2426  payload = mergeBytes(payload, self[i]) */\n      swap2\n      pop\n        /* \"contracts/RLPEncode.sol\":2368:2371  i++ */\n      dup1\n      dup1\n      0x01\n      add\n      swap2\n      pop\n      pop\n        /* \"contracts/RLPEncode.sol\":2334:2438  for (uint i = 1; i < self.length; i++) {\r... */\n      jump(tag_85)\n    tag_86:\n      pop\n        /* \"contracts/RLPEncode.sol\":2455:2517  mergeBytes(encodeLength(payload.length, LIST_OFFSET), payload) */\n      tag_91\n        /* \"contracts/RLPEncode.sol\":2466:2507  encodeLength(payload.length, LIST_OFFSET) */\n      tag_92\n        /* \"contracts/RLPEncode.sol\":2479:2486  payload */\n      dup3\n        /* \"contracts/RLPEncode.sol\":2479:2493  payload.length */\n      mload\n        /* \"contracts/RLPEncode.sol\":134:138  0xc0 */\n      0xc0\n        /* \"contracts/RLPEncode.sol\":2466:2507  encodeLength(payload.length, LIST_OFFSET) */\n      0xff\n      and\n        /* \"contracts/RLPEncode.sol\":2466:2478  encodeLength */\n      tag_93\n        /* \"contracts/RLPEncode.sol\":2466:2507  encodeLength(payload.length, LIST_OFFSET) */\n      jump\t// in\n    tag_92:\n        /* \"contracts/RLPEncode.sol\":2509:2516  payload */\n      dup3\n        /* \"contracts/RLPEncode.sol\":2455:2465  mergeBytes */\n      tag_90\n        /* \"contracts/RLPEncode.sol\":2455:2517  mergeBytes(encodeLength(payload.length, LIST_OFFSET), payload) */\n      jump\t// in\n    tag_91:\n        /* \"contracts/RLPEncode.sol\":2448:2517  return mergeBytes(encodeLength(payload.length, LIST_OFFSET), payload) */\n      swap2\n      pop\n      pop\n        /* \"contracts/RLPEncode.sol\":2126:2525  function encodeList(bytes[] memory self) internal pure returns (bytes memory) {\r... */\n    tag_81:\n      swap2\n      swap1\n      pop\n      jump\t// out\n        /* \"contracts/RLPDecode.sol\":2231:2573  function isList(RLPItem memory item) internal pure returns (bool) {\r... */\n    tag_58:\n        /* \"contracts/RLPDecode.sol\":2291:2295  bool */\n      0x00\n        /* \"contracts/RLPDecode.sol\":2324:2325  0 */\n      dup1\n        /* \"contracts/RLPDecode.sol\":2312:2316  item */\n      dup3\n        /* \"contracts/RLPDecode.sol\":2312:2320  item.len */\n      0x00\n      add\n      mload\n        /* \"contracts/RLPDecode.sol\":2312:2325  item.len == 0 */\n      eq\n        /* \"contracts/RLPDecode.sol\":2308:2339  if (item.len == 0) return false */\n      iszero\n      tag_95\n      jumpi\n        /* \"contracts/RLPDecode.sol\":2334:2339  false */\n      0x00\n        /* \"contracts/RLPDecode.sol\":2327:2339  return false */\n      swap1\n      pop\n      jump(tag_94)\n        /* \"contracts/RLPDecode.sol\":2308:2339  if (item.len == 0) return false */\n    tag_95:\n        /* \"contracts/RLPDecode.sol\":2352:2363  uint8 byte0 */\n      0x00\n        /* \"contracts/RLPDecode.sol\":2374:2385  uint memPtr */\n      dup1\n        /* \"contracts/RLPDecode.sol\":2388:2392  item */\n      dup4\n        /* \"contracts/RLPDecode.sol\":2388:2399  item.memPtr */\n      0x20\n      add\n      mload\n        /* \"contracts/RLPDecode.sol\":2374:2399  uint memPtr = item.memPtr */\n      swap1\n      pop\n        /* \"contracts/RLPDecode.sol\":2457:2463  memPtr */\n      dup1\n        /* \"contracts/RLPDecode.sol\":2451:2464  mload(memPtr) */\n      mload\n        /* \"contracts/RLPDecode.sol\":2448:2449  0 */\n      0x00\n        /* \"contracts/RLPDecode.sol\":2443:2465  byte(0, mload(memPtr)) */\n      byte\n        /* \"contracts/RLPDecode.sol\":2434:2465  byte0 := byte(0, mload(memPtr)) */\n      swap2\n      pop\n        /* \"contracts/RLPDecode.sol\":189:193  0xc0 */\n      0xc0\n        /* \"contracts/RLPDecode.sol\":2492:2516  byte0 < LIST_SHORT_START */\n      0xff\n      and\n        /* \"contracts/RLPDecode.sol\":2492:2497  byte0 */\n      dup3\n        /* \"contracts/RLPDecode.sol\":2492:2516  byte0 < LIST_SHORT_START */\n      0xff\n      and\n      lt\n        /* \"contracts/RLPDecode.sol\":2488:2543  if (byte0 < LIST_SHORT_START)\r... */\n      iszero\n      tag_96\n      jumpi\n        /* \"contracts/RLPDecode.sol\":2538:2543  false */\n      0x00\n        /* \"contracts/RLPDecode.sol\":2531:2543  return false */\n      swap3\n      pop\n      pop\n      pop\n      jump(tag_94)\n        /* \"contracts/RLPDecode.sol\":2488:2543  if (byte0 < LIST_SHORT_START)\r... */\n    tag_96:\n        /* \"contracts/RLPDecode.sol\":2561:2565  true */\n      0x01\n        /* \"contracts/RLPDecode.sol\":2554:2565  return true */\n      swap3\n      pop\n      pop\n      pop\n        /* \"contracts/RLPDecode.sol\":2231:2573  function isList(RLPItem memory item) internal pure returns (bool) {\r... */\n    tag_94:\n      swap2\n      swap1\n      pop\n      jump\t// out\n        /* \"contracts/RLPDecode.sol\":6812:7363  function _payloadOffset(uint memPtr) private pure returns (uint) {\r... */\n    tag_61:\n        /* \"contracts/RLPDecode.sol\":6871:6875  uint */\n      0x00\n        /* \"contracts/RLPDecode.sol\":6888:6898  uint byte0 */\n      dup1\n        /* \"contracts/RLPDecode.sol\":6956:6962  memPtr */\n      dup3\n        /* \"contracts/RLPDecode.sol\":6950:6963  mload(memPtr) */\n      mload\n        /* \"contracts/RLPDecode.sol\":6947:6948  0 */\n      0x00\n        /* \"contracts/RLPDecode.sol\":6942:6964  byte(0, mload(memPtr)) */\n      byte\n        /* \"contracts/RLPDecode.sol\":6933:6964  byte0 := byte(0, mload(memPtr)) */\n      swap1\n      pop\n        /* \"contracts/RLPDecode.sol\":95:99  0x80 */\n      0x80\n        /* \"contracts/RLPDecode.sol\":6991:7017  byte0 < STRING_SHORT_START */\n      0xff\n      and\n        /* \"contracts/RLPDecode.sol\":6991:6996  byte0 */\n      dup2\n        /* \"contracts/RLPDecode.sol\":6991:7017  byte0 < STRING_SHORT_START */\n      lt\n        /* \"contracts/RLPDecode.sol\":6987:7355  if (byte0 < STRING_SHORT_START)\r... */\n      iszero\n      tag_98\n      jumpi\n        /* \"contracts/RLPDecode.sol\":7039:7040  0 */\n      0x00\n        /* \"contracts/RLPDecode.sol\":7032:7040  return 0 */\n      swap2\n      pop\n      pop\n      jump(tag_97)\n        /* \"contracts/RLPDecode.sol\":6987:7355  if (byte0 < STRING_SHORT_START)\r... */\n    tag_98:\n        /* \"contracts/RLPDecode.sol\":142:146  0xb8 */\n      0xb8\n        /* \"contracts/RLPDecode.sol\":7060:7085  byte0 < STRING_LONG_START */\n      0xff\n      and\n        /* \"contracts/RLPDecode.sol\":7060:7065  byte0 */\n      dup2\n        /* \"contracts/RLPDecode.sol\":7060:7085  byte0 < STRING_LONG_START */\n      lt\n        /* \"contracts/RLPDecode.sol\":7060:7143  byte0 < STRING_LONG_START || (byte0 >= LIST_SHORT_START && byte0 < LIST_LONG_START) */\n      dup1\n      tag_100\n      jumpi\n      pop\n        /* \"contracts/RLPDecode.sol\":189:193  0xc0 */\n      0xc0\n        /* \"contracts/RLPDecode.sol\":7090:7115  byte0 >= LIST_SHORT_START */\n      0xff\n      and\n        /* \"contracts/RLPDecode.sol\":7090:7095  byte0 */\n      dup2\n        /* \"contracts/RLPDecode.sol\":7090:7115  byte0 >= LIST_SHORT_START */\n      lt\n      iszero\n        /* \"contracts/RLPDecode.sol\":7090:7142  byte0 >= LIST_SHORT_START && byte0 < LIST_LONG_START */\n      dup1\n      iszero\n      tag_101\n      jumpi\n      pop\n        /* \"contracts/RLPDecode.sol\":236:240  0xf8 */\n      0xf8\n        /* \"contracts/RLPDecode.sol\":7119:7142  byte0 < LIST_LONG_START */\n      0xff\n      and\n        /* \"contracts/RLPDecode.sol\":7119:7124  byte0 */\n      dup2\n        /* \"contracts/RLPDecode.sol\":7119:7142  byte0 < LIST_LONG_START */\n      lt\n        /* \"contracts/RLPDecode.sol\":7090:7142  byte0 >= LIST_SHORT_START && byte0 < LIST_LONG_START */\n    tag_101:\n        /* \"contracts/RLPDecode.sol\":7060:7143  byte0 < STRING_LONG_START || (byte0 >= LIST_SHORT_START && byte0 < LIST_LONG_START) */\n    tag_100:\n        /* \"contracts/RLPDecode.sol\":7056:7355  if (byte0 < STRING_LONG_START || (byte0 >= LIST_SHORT_START && byte0 < LIST_LONG_START))\r... */\n      iszero\n      tag_102\n      jumpi\n        /* \"contracts/RLPDecode.sol\":7165:7166  1 */\n      0x01\n        /* \"contracts/RLPDecode.sol\":7158:7166  return 1 */\n      swap2\n      pop\n      pop\n      jump(tag_97)\n        /* \"contracts/RLPDecode.sol\":7056:7355  if (byte0 < STRING_LONG_START || (byte0 >= LIST_SHORT_START && byte0 < LIST_LONG_START))\r... */\n    tag_102:\n        /* \"contracts/RLPDecode.sol\":189:193  0xc0 */\n      0xc0\n        /* \"contracts/RLPDecode.sol\":7186:7210  byte0 < LIST_SHORT_START */\n      0xff\n      and\n        /* \"contracts/RLPDecode.sol\":7186:7191  byte0 */\n      dup2\n        /* \"contracts/RLPDecode.sol\":7186:7210  byte0 < LIST_SHORT_START */\n      lt\n        /* \"contracts/RLPDecode.sol\":7182:7355  if (byte0 < LIST_SHORT_START)  // being explicit\r... */\n      iszero\n      tag_104\n      jumpi\n        /* \"contracts/RLPDecode.sol\":7285:7286  1 */\n      0x01\n        /* \"contracts/RLPDecode.sol\":7280:7281  1 */\n      dup1\n        /* \"contracts/RLPDecode.sol\":142:146  0xb8 */\n      0xb8\n        /* \"contracts/RLPDecode.sol\":7260:7281  STRING_LONG_START - 1 */\n      sub\n        /* \"contracts/RLPDecode.sol\":7251:7282  byte0 - (STRING_LONG_START - 1) */\n      0xff\n      and\n        /* \"contracts/RLPDecode.sol\":7251:7256  byte0 */\n      dup3\n        /* \"contracts/RLPDecode.sol\":7251:7282  byte0 - (STRING_LONG_START - 1) */\n      sub\n        /* \"contracts/RLPDecode.sol\":7251:7286  byte0 - (STRING_LONG_START - 1) + 1 */\n      add\n        /* \"contracts/RLPDecode.sol\":7244:7286  return byte0 - (STRING_LONG_START - 1) + 1 */\n      swap2\n      pop\n      pop\n      jump(tag_97)\n        /* \"contracts/RLPDecode.sol\":7182:7355  if (byte0 < LIST_SHORT_START)  // being explicit\r... */\n    tag_104:\n        /* \"contracts/RLPDecode.sol\":7354:7355  1 */\n      0x01\n        /* \"contracts/RLPDecode.sol\":7349:7350  1 */\n      dup1\n        /* \"contracts/RLPDecode.sol\":236:240  0xf8 */\n      0xf8\n        /* \"contracts/RLPDecode.sol\":7331:7350  LIST_LONG_START - 1 */\n      sub\n        /* \"contracts/RLPDecode.sol\":7322:7351  byte0 - (LIST_LONG_START - 1) */\n      0xff\n      and\n        /* \"contracts/RLPDecode.sol\":7322:7327  byte0 */\n      dup3\n        /* \"contracts/RLPDecode.sol\":7322:7351  byte0 - (LIST_LONG_START - 1) */\n      sub\n        /* \"contracts/RLPDecode.sol\":7322:7355  byte0 - (LIST_LONG_START - 1) + 1 */\n      add\n        /* \"contracts/RLPDecode.sol\":7315:7355  return byte0 - (LIST_LONG_START - 1) + 1 */\n      swap2\n      pop\n      pop\n        /* \"contracts/RLPDecode.sol\":6812:7363  function _payloadOffset(uint memPtr) private pure returns (uint) {\r... */\n    tag_97:\n      swap2\n      swap1\n      pop\n      jump\t// out\n        /* \"contracts/RLPDecode.sol\":5283:6757  function _itemLength(uint memPtr) private pure returns (uint) {\r... */\n    tag_69:\n        /* \"contracts/RLPDecode.sol\":5339:5343  uint */\n      0x00\n        /* \"contracts/RLPDecode.sol\":5356:5368  uint itemLen */\n      dup1\n        /* \"contracts/RLPDecode.sol\":5379:5389  uint byte0 */\n      0x00\n        /* \"contracts/RLPDecode.sol\":5447:5453  memPtr */\n      dup4\n        /* \"contracts/RLPDecode.sol\":5441:5454  mload(memPtr) */\n      mload\n        /* \"contracts/RLPDecode.sol\":5438:5439  0 */\n      0x00\n        /* \"contracts/RLPDecode.sol\":5433:5455  byte(0, mload(memPtr)) */\n      byte\n        /* \"contracts/RLPDecode.sol\":5424:5455  byte0 := byte(0, mload(memPtr)) */\n      swap1\n      pop\n        /* \"contracts/RLPDecode.sol\":95:99  0x80 */\n      0x80\n        /* \"contracts/RLPDecode.sol\":5482:5508  byte0 < STRING_SHORT_START */\n      0xff\n      and\n        /* \"contracts/RLPDecode.sol\":5482:5487  byte0 */\n      dup2\n        /* \"contracts/RLPDecode.sol\":5482:5508  byte0 < STRING_SHORT_START */\n      lt\n        /* \"contracts/RLPDecode.sol\":5478:6723  if (byte0 < STRING_SHORT_START)\r... */\n      iszero\n      tag_107\n      jumpi\n        /* \"contracts/RLPDecode.sol\":5533:5534  1 */\n      0x01\n        /* \"contracts/RLPDecode.sol\":5523:5534  itemLen = 1 */\n      swap2\n      pop\n        /* \"contracts/RLPDecode.sol\":5478:6723  if (byte0 < STRING_SHORT_START)\r... */\n      jump(tag_108)\n    tag_107:\n        /* \"contracts/RLPDecode.sol\":142:146  0xb8 */\n      0xb8\n        /* \"contracts/RLPDecode.sol\":5556:5581  byte0 < STRING_LONG_START */\n      0xff\n      and\n        /* \"contracts/RLPDecode.sol\":5556:5561  byte0 */\n      dup2\n        /* \"contracts/RLPDecode.sol\":5556:5581  byte0 < STRING_LONG_START */\n      lt\n        /* \"contracts/RLPDecode.sol\":5552:6723  if (byte0 < STRING_LONG_START)\r... */\n      iszero\n      tag_109\n      jumpi\n        /* \"contracts/RLPDecode.sol\":5635:5636  1 */\n      0x01\n        /* \"contracts/RLPDecode.sol\":95:99  0x80 */\n      0x80\n        /* \"contracts/RLPDecode.sol\":5606:5632  byte0 - STRING_SHORT_START */\n      0xff\n      and\n        /* \"contracts/RLPDecode.sol\":5606:5611  byte0 */\n      dup3\n        /* \"contracts/RLPDecode.sol\":5606:5632  byte0 - STRING_SHORT_START */\n      sub\n        /* \"contracts/RLPDecode.sol\":5606:5636  byte0 - STRING_SHORT_START + 1 */\n      add\n        /* \"contracts/RLPDecode.sol\":5596:5636  itemLen = byte0 - STRING_SHORT_START + 1 */\n      swap2\n      pop\n        /* \"contracts/RLPDecode.sol\":5552:6723  if (byte0 < STRING_LONG_START)\r... */\n      jump(tag_110)\n    tag_109:\n        /* \"contracts/RLPDecode.sol\":189:193  0xc0 */\n      0xc0\n        /* \"contracts/RLPDecode.sol\":5658:5682  byte0 < LIST_SHORT_START */\n      0xff\n      and\n        /* \"contracts/RLPDecode.sol\":5658:5663  byte0 */\n      dup2\n        /* \"contracts/RLPDecode.sol\":5658:5682  byte0 < LIST_SHORT_START */\n      lt\n        /* \"contracts/RLPDecode.sol\":5654:6723  if (byte0 < LIST_SHORT_START) {\r... */\n      iszero\n      tag_111\n      jumpi\n        /* \"contracts/RLPDecode.sol\":5699:5711  uint dataLen */\n      0x00\n        /* \"contracts/RLPDecode.sol\":5780:5784  0xb7 */\n      0xb7\n        /* \"contracts/RLPDecode.sol\":5773:5778  byte0 */\n      dup3\n        /* \"contracts/RLPDecode.sol\":5769:5785  sub(byte0, 0xb7) */\n      sub\n        /* \"contracts/RLPDecode.sol\":5860:5861  1 */\n      0x01\n        /* \"contracts/RLPDecode.sol\":5852:5858  memPtr */\n      dup7\n        /* \"contracts/RLPDecode.sol\":5848:5862  add(memPtr, 1) */\n      add\n        /* \"contracts/RLPDecode.sol\":5838:5862  memPtr := add(memPtr, 1) */\n      swap6\n      pop\n        /* \"contracts/RLPDecode.sol\":5998:6005  byteLen */\n      dup1\n        /* \"contracts/RLPDecode.sol\":5994:5996  32 */\n      0x20\n        /* \"contracts/RLPDecode.sol\":5990:6006  sub(32, byteLen) */\n      sub\n        /* \"contracts/RLPDecode.sol\":5985:5988  256 */\n      0x0100\n        /* \"contracts/RLPDecode.sol\":5981:6007  exp(256, sub(32, byteLen)) */\n      exp\n        /* \"contracts/RLPDecode.sol\":5972:5978  memPtr */\n      dup7\n        /* \"contracts/RLPDecode.sol\":5966:5979  mload(memPtr) */\n      mload\n        /* \"contracts/RLPDecode.sol\":5962:6008  div(mload(memPtr), exp(256, sub(32, byteLen))) */\n      div\n        /* \"contracts/RLPDecode.sol\":5951:6008  dataLen := div(mload(memPtr), exp(256, sub(32, byteLen))) */\n      swap2\n      pop\n        /* \"contracts/RLPDecode.sol\":6096:6097  1 */\n      0x01\n        /* \"contracts/RLPDecode.sol\":6087:6094  byteLen */\n      dup2\n        /* \"contracts/RLPDecode.sol\":6083:6098  add(byteLen, 1) */\n      add\n        /* \"contracts/RLPDecode.sol\":6074:6081  dataLen */\n      dup3\n        /* \"contracts/RLPDecode.sol\":6070:6099  add(dataLen, add(byteLen, 1)) */\n      add\n        /* \"contracts/RLPDecode.sol\":6059:6099  itemLen := add(dataLen, add(byteLen, 1)) */\n      swap4\n      pop\n        /* \"contracts/RLPDecode.sol\":5735:6114  {\r... */\n      pop\n        /* \"contracts/RLPDecode.sol\":6147:6154  dataLen */\n      dup1\n        /* \"contracts/RLPDecode.sol\":6136:6143  itemLen */\n      dup4\n        /* \"contracts/RLPDecode.sol\":6136:6154  itemLen >= dataLen */\n      lt\n      iszero\n        /* \"contracts/RLPDecode.sol\":6128:6176  require(itemLen >= dataLen, \"addition overflow\") */\n      tag_112\n      jumpi\n      mload(0x40)\n      0x08c379a000000000000000000000000000000000000000000000000000000000\n      dup2\n      mstore\n      0x04\n      add\n      dup1\n      dup1\n      0x20\n      add\n      dup3\n      dup2\n      sub\n      dup3\n      mstore\n      0x11\n      dup2\n      mstore\n      0x20\n      add\n      dup1\n      0x6164646974696f6e206f766572666c6f77000000000000000000000000000000\n      dup2\n      mstore\n      pop\n      0x20\n      add\n      swap2\n      pop\n      pop\n      mload(0x40)\n      dup1\n      swap2\n      sub\n      swap1\n      revert\n    tag_112:\n        /* \"contracts/RLPDecode.sol\":5654:6723  if (byte0 < LIST_SHORT_START) {\r... */\n      pop\n      jump(tag_113)\n    tag_111:\n        /* \"contracts/RLPDecode.sol\":236:240  0xf8 */\n      0xf8\n        /* \"contracts/RLPDecode.sol\":6209:6232  byte0 < LIST_LONG_START */\n      0xff\n      and\n        /* \"contracts/RLPDecode.sol\":6209:6214  byte0 */\n      dup2\n        /* \"contracts/RLPDecode.sol\":6209:6232  byte0 < LIST_LONG_START */\n      lt\n        /* \"contracts/RLPDecode.sol\":6205:6723  if (byte0 < LIST_LONG_START) {\r... */\n      iszero\n      tag_114\n      jumpi\n        /* \"contracts/RLPDecode.sol\":6286:6287  1 */\n      0x01\n        /* \"contracts/RLPDecode.sol\":189:193  0xc0 */\n      0xc0\n        /* \"contracts/RLPDecode.sol\":6259:6283  byte0 - LIST_SHORT_START */\n      0xff\n      and\n        /* \"contracts/RLPDecode.sol\":6259:6264  byte0 */\n      dup3\n        /* \"contracts/RLPDecode.sol\":6259:6283  byte0 - LIST_SHORT_START */\n      sub\n        /* \"contracts/RLPDecode.sol\":6259:6287  byte0 - LIST_SHORT_START + 1 */\n      add\n        /* \"contracts/RLPDecode.sol\":6249:6287  itemLen = byte0 - LIST_SHORT_START + 1 */\n      swap2\n      pop\n        /* \"contracts/RLPDecode.sol\":6205:6723  if (byte0 < LIST_LONG_START) {\r... */\n      jump(tag_115)\n    tag_114:\n        /* \"contracts/RLPDecode.sol\":6331:6343  uint dataLen */\n      0x00\n        /* \"contracts/RLPDecode.sol\":6412:6416  0xf7 */\n      0xf7\n        /* \"contracts/RLPDecode.sol\":6405:6410  byte0 */\n      dup3\n        /* \"contracts/RLPDecode.sol\":6401:6417  sub(byte0, 0xf7) */\n      sub\n        /* \"contracts/RLPDecode.sol\":6457:6458  1 */\n      0x01\n        /* \"contracts/RLPDecode.sol\":6449:6455  memPtr */\n      dup7\n        /* \"contracts/RLPDecode.sol\":6445:6459  add(memPtr, 1) */\n      add\n        /* \"contracts/RLPDecode.sol\":6435:6459  memPtr := add(memPtr, 1) */\n      swap6\n      pop\n        /* \"contracts/RLPDecode.sol\":6526:6533  byteLen */\n      dup1\n        /* \"contracts/RLPDecode.sol\":6522:6524  32 */\n      0x20\n        /* \"contracts/RLPDecode.sol\":6518:6534  sub(32, byteLen) */\n      sub\n        /* \"contracts/RLPDecode.sol\":6513:6516  256 */\n      0x0100\n        /* \"contracts/RLPDecode.sol\":6509:6535  exp(256, sub(32, byteLen)) */\n      exp\n        /* \"contracts/RLPDecode.sol\":6500:6506  memPtr */\n      dup7\n        /* \"contracts/RLPDecode.sol\":6494:6507  mload(memPtr) */\n      mload\n        /* \"contracts/RLPDecode.sol\":6490:6536  div(mload(memPtr), exp(256, sub(32, byteLen))) */\n      div\n        /* \"contracts/RLPDecode.sol\":6479:6536  dataLen := div(mload(memPtr), exp(256, sub(32, byteLen))) */\n      swap2\n      pop\n        /* \"contracts/RLPDecode.sol\":6631:6632  1 */\n      0x01\n        /* \"contracts/RLPDecode.sol\":6622:6629  byteLen */\n      dup2\n        /* \"contracts/RLPDecode.sol\":6618:6633  add(byteLen, 1) */\n      add\n        /* \"contracts/RLPDecode.sol\":6609:6616  dataLen */\n      dup3\n        /* \"contracts/RLPDecode.sol\":6605:6634  add(dataLen, add(byteLen, 1)) */\n      add\n        /* \"contracts/RLPDecode.sol\":6594:6634  itemLen := add(dataLen, add(byteLen, 1)) */\n      swap4\n      pop\n        /* \"contracts/RLPDecode.sol\":6367:6649  {\r... */\n      pop\n        /* \"contracts/RLPDecode.sol\":6682:6689  dataLen */\n      dup1\n        /* \"contracts/RLPDecode.sol\":6671:6678  itemLen */\n      dup4\n        /* \"contracts/RLPDecode.sol\":6671:6689  itemLen >= dataLen */\n      lt\n      iszero\n        /* \"contracts/RLPDecode.sol\":6663:6711  require(itemLen >= dataLen, \"addition overflow\") */\n      tag_116\n      jumpi\n      mload(0x40)\n      0x08c379a000000000000000000000000000000000000000000000000000000000\n      dup2\n      mstore\n      0x04\n      add\n      dup1\n      dup1\n      0x20\n      add\n      dup3\n      dup2\n      sub\n      dup3\n      mstore\n      0x11\n      dup2\n      mstore\n      0x20\n      add\n      dup1\n      0x6164646974696f6e206f766572666c6f77000000000000000000000000000000\n      dup2\n      mstore\n      pop\n      0x20\n      add\n      swap2\n      pop\n      pop\n      mload(0x40)\n      dup1\n      swap2\n      sub\n      swap1\n      revert\n    tag_116:\n        /* \"contracts/RLPDecode.sol\":6205:6723  if (byte0 < LIST_LONG_START) {\r... */\n      pop\n    tag_115:\n        /* \"contracts/RLPDecode.sol\":5654:6723  if (byte0 < LIST_SHORT_START) {\r... */\n    tag_113:\n        /* \"contracts/RLPDecode.sol\":5552:6723  if (byte0 < STRING_LONG_START)\r... */\n    tag_110:\n        /* \"contracts/RLPDecode.sol\":5478:6723  if (byte0 < STRING_SHORT_START)\r... */\n    tag_108:\n        /* \"contracts/RLPDecode.sol\":6742:6749  itemLen */\n      dup2\n        /* \"contracts/RLPDecode.sol\":6735:6749  return itemLen */\n      swap3\n      pop\n      pop\n      pop\n        /* \"contracts/RLPDecode.sol\":5283:6757  function _itemLength(uint memPtr) private pure returns (uint) {\r... */\n      swap2\n      swap1\n      pop\n      jump\t// out\n        /* \"contracts/RLPEncode.sol\":6575:7363  function toBinary(uint x) internal pure returns (bytes memory) {\r... */\n    tag_79:\n        /* \"contracts/RLPEncode.sol\":6624:6636  bytes memory */\n      0x60\n        /* \"contracts/RLPEncode.sol\":6649:6663  bytes memory b */\n      dup1\n        /* \"contracts/RLPEncode.sol\":6676:6678  32 */\n      0x20\n        /* \"contracts/RLPEncode.sol\":6666:6679  new bytes(32) */\n      mload(0x40)\n      swap1\n      dup1\n      dup3\n      mstore\n      dup1\n      0x1f\n      add\n      not(0x1f)\n      and\n      0x20\n      add\n      dup3\n      add\n      0x40\n      mstore\n      dup1\n      iszero\n      tag_118\n      jumpi\n      dup2\n      0x20\n      add\n        /* \"--CODEGEN--\":29:30   */\n      0x01\n        /* \"--CODEGEN--\":21:27   */\n      dup3\n        /* \"--CODEGEN--\":17:31   */\n      mul\n        /* \"--CODEGEN--\":116:120   */\n      dup1\n        /* \"--CODEGEN--\":104:114   */\n      codesize\n        /* \"--CODEGEN--\":96:102   */\n      dup4\n        /* \"--CODEGEN--\":87:121   */\n      codecopy\n        /* \"--CODEGEN--\":147:151   */\n      dup1\n        /* \"--CODEGEN--\":139:145   */\n      dup3\n        /* \"--CODEGEN--\":135:152   */\n      add\n        /* \"--CODEGEN--\":125:152   */\n      swap2\n      pop\n        /* \"--CODEGEN--\":0:156   */\n      pop\n        /* \"contracts/RLPEncode.sol\":6666:6679  new bytes(32) */\n      swap1\n      pop\n    tag_118:\n      pop\n        /* \"contracts/RLPEncode.sol\":6649:6679  bytes memory b = new bytes(32) */\n      swap1\n      pop\n        /* \"contracts/RLPEncode.sol\":6733:6734  x */\n      dup3\n        /* \"contracts/RLPEncode.sol\":6728:6730  32 */\n      0x20\n        /* \"contracts/RLPEncode.sol\":6725:6726  b */\n      dup3\n        /* \"contracts/RLPEncode.sol\":6721:6731  add(b, 32) */\n      add\n        /* \"contracts/RLPEncode.sol\":6714:6735  mstore(add(b, 32), x) */\n      mstore\n        /* \"contracts/RLPEncode.sol\":6756:6762  uint i */\n      0x00\n        /* \"contracts/RLPEncode.sol\":6851:6852  0 */\n      dup1\n        /* \"contracts/RLPEncode.sol\":6781:6847  0xffffffffffffffffffffffffffffffffffffffffffffffff0000000000000000 */\n      0xffffffffffffffffffffffffffffffffffffffffffffffff0000000000000000\n        /* \"contracts/RLPEncode.sol\":6777:6778  x */\n      dup6\n        /* \"contracts/RLPEncode.sol\":6777:6847  x & 0xffffffffffffffffffffffffffffffffffffffffffffffff0000000000000000 */\n      and\n        /* \"contracts/RLPEncode.sol\":6777:6852  x & 0xffffffffffffffffffffffffffffffffffffffffffffffff0000000000000000 == 0 */\n      eq\n        /* \"contracts/RLPEncode.sol\":6773:7045  if (x & 0xffffffffffffffffffffffffffffffffffffffffffffffff0000000000000000 == 0) {\r... */\n      iszero\n      tag_119\n      jumpi\n        /* \"contracts/RLPEncode.sol\":6873:6875  24 */\n      0x18\n        /* \"contracts/RLPEncode.sol\":6869:6875  i = 24 */\n      swap1\n      pop\n        /* \"contracts/RLPEncode.sol\":6773:7045  if (x & 0xffffffffffffffffffffffffffffffffffffffffffffffff0000000000000000 == 0) {\r... */\n      jump(tag_120)\n    tag_119:\n        /* \"contracts/RLPEncode.sol\":6971:6972  0 */\n      0x00\n        /* \"contracts/RLPEncode.sol\":6901:6967  0xffffffffffffffffffffffffffffffff00000000000000000000000000000000 */\n      0xffffffffffffffffffffffffffffffff00000000000000000000000000000000\n        /* \"contracts/RLPEncode.sol\":6897:6898  x */\n      dup6\n        /* \"contracts/RLPEncode.sol\":6897:6967  x & 0xffffffffffffffffffffffffffffffff00000000000000000000000000000000 */\n      and\n        /* \"contracts/RLPEncode.sol\":6897:6972  x & 0xffffffffffffffffffffffffffffffff00000000000000000000000000000000 == 0 */\n      eq\n        /* \"contracts/RLPEncode.sol\":6893:7045  if (x & 0xffffffffffffffffffffffffffffffff00000000000000000000000000000000 == 0) {\r... */\n      iszero\n      tag_121\n      jumpi\n        /* \"contracts/RLPEncode.sol\":6993:6995  16 */\n      0x10\n        /* \"contracts/RLPEncode.sol\":6989:6995  i = 16 */\n      swap1\n      pop\n        /* \"contracts/RLPEncode.sol\":6893:7045  if (x & 0xffffffffffffffffffffffffffffffff00000000000000000000000000000000 == 0) {\r... */\n      jump(tag_122)\n    tag_121:\n        /* \"contracts/RLPEncode.sol\":7032:7033  0 */\n      0x00\n        /* \"contracts/RLPEncode.sol\":7028:7033  i = 0 */\n      swap1\n      pop\n        /* \"contracts/RLPEncode.sol\":6893:7045  if (x & 0xffffffffffffffffffffffffffffffff00000000000000000000000000000000 == 0) {\r... */\n    tag_122:\n        /* \"contracts/RLPEncode.sol\":6773:7045  if (x & 0xffffffffffffffffffffffffffffffffffffffffffffffff0000000000000000 == 0) {\r... */\n    tag_120:\n        /* \"contracts/RLPEncode.sol\":7055:7156  for (; i < 32; i++) {\r... */\n    tag_123:\n        /* \"contracts/RLPEncode.sol\":7066:7068  32 */\n      0x20\n        /* \"contracts/RLPEncode.sol\":7062:7063  i */\n      dup2\n        /* \"contracts/RLPEncode.sol\":7062:7068  i < 32 */\n      lt\n        /* \"contracts/RLPEncode.sol\":7055:7156  for (; i < 32; i++) {\r... */\n      iszero\n      tag_124\n      jumpi\n        /* \"contracts/RLPEncode.sol\":7102:7103  0 */\n      0x00\n        /* \"contracts/RLPEncode.sol\":7094:7103  b[i] != 0 */\n      0xf8\n      shl\n        /* \"contracts/RLPEncode.sol\":7094:7095  b */\n      dup3\n        /* \"contracts/RLPEncode.sol\":7096:7097  i */\n      dup3\n        /* \"contracts/RLPEncode.sol\":7094:7098  b[i] */\n      dup2\n      mload\n      dup2\n      lt\n      tag_126\n      jumpi\n      invalid\n    tag_126:\n      0x20\n      add\n      add\n      mload\n      0xf8\n      shr\n      0xf8\n      shl\n        /* \"contracts/RLPEncode.sol\":7094:7103  b[i] != 0 */\n      not(0xffffffffffffffffffffffffffffffffffffffffffffffffffffffffffffff)\n      and\n      eq\n        /* \"contracts/RLPEncode.sol\":7090:7145  if (b[i] != 0) {\r... */\n      tag_127\n      jumpi\n        /* \"contracts/RLPEncode.sol\":7124:7129  break */\n      jump(tag_124)\n        /* \"contracts/RLPEncode.sol\":7090:7145  if (b[i] != 0) {\r... */\n    tag_127:\n        /* \"contracts/RLPEncode.sol\":7070:7073  i++ */\n      dup1\n      dup1\n      0x01\n      add\n      swap2\n      pop\n      pop\n        /* \"contracts/RLPEncode.sol\":7055:7156  for (; i < 32; i++) {\r... */\n      jump(tag_123)\n    tag_124:\n        /* \"contracts/RLPEncode.sol\":7166:7177  uint length */\n      0x00\n        /* \"contracts/RLPEncode.sol\":7185:7186  i */\n      dup2\n        /* \"contracts/RLPEncode.sol\":7180:7182  32 */\n      0x20\n        /* \"contracts/RLPEncode.sol\":7180:7186  32 - i */\n      sub\n        /* \"contracts/RLPEncode.sol\":7166:7186  uint length = 32 - i */\n      swap1\n      pop\n        /* \"contracts/RLPEncode.sol\":7197:7212  bytes memory rs */\n      0x60\n        /* \"contracts/RLPEncode.sol\":7225:7231  length */\n      dup2\n        /* \"contracts/RLPEncode.sol\":7215:7232  new bytes(length) */\n      mload(0x40)\n      swap1\n      dup1\n      dup3\n      mstore\n      dup1\n      0x1f\n      add\n      not(0x1f)\n      and\n      0x20\n      add\n      dup3\n      add\n      0x40\n      mstore\n      dup1\n      iszero\n      tag_128\n      jumpi\n      dup2\n      0x20\n      add\n        /* \"--CODEGEN--\":29:30   */\n      0x01\n        /* \"--CODEGEN--\":21:27   */\n      dup3\n        /* \"--CODEGEN--\":17:31   */\n      mul\n        /* \"--CODEGEN--\":116:120   */\n      dup1\n        /* \"--CODEGEN--\":104:114   */\n      codesize\n        /* \"--CODEGEN--\":96:102   */\n      dup4\n        /* \"--CODEGEN--\":87:121   */\n      codecopy\n        /* \"--CODEGEN--\":147:151   */\n      dup1\n        /* \"--CODEGEN--\":139:145   */\n      dup3\n        /* \"--CODEGEN--\":135:152   */\n      add\n        /* \"--CODEGEN--\":125:152   */\n      swap2\n      pop\n        /* \"--CODEGEN--\":0:156   */\n      pop\n        /* \"contracts/RLPEncode.sol\":7215:7232  new bytes(length) */\n      swap1\n      pop\n    tag_128:\n      pop\n        /* \"contracts/RLPEncode.sol\":7197:7232  bytes memory rs = new bytes(length) */\n      swap1\n      pop\n        /* \"contracts/RLPEncode.sol\":7291:7292  x */\n      dup6\n        /* \"contracts/RLPEncode.sol\":7282:7288  length */\n      dup3\n        /* \"contracts/RLPEncode.sol\":7278:7280  rs */\n      dup3\n        /* \"contracts/RLPEncode.sol\":7274:7289  add(rs, length) */\n      add\n        /* \"contracts/RLPEncode.sol\":7267:7293  mstore(add(rs, length), x) */\n      mstore\n        /* \"contracts/RLPEncode.sol\":7318:7324  length */\n      dup2\n        /* \"contracts/RLPEncode.sol\":7314:7316  rs */\n      dup2\n        /* \"contracts/RLPEncode.sol\":7307:7325  mstore(rs, length) */\n      mstore\n        /* \"contracts/RLPEncode.sol\":7353:7355  rs */\n      dup1\n        /* \"contracts/RLPEncode.sol\":7346:7355  return rs */\n      swap5\n      pop\n      pop\n      pop\n      pop\n      pop\n        /* \"contracts/RLPEncode.sol\":6575:7363  function toBinary(uint x) internal pure returns (bytes memory) {\r... */\n      swap2\n      swap1\n      pop\n      jump\t// out\n        /* \"contracts/RLPEncode.sol\":311:561  function encodeBytes(bytes memory self) internal pure returns (bytes memory) {\r... */\n    tag_80:\n        /* \"contracts/RLPEncode.sol\":374:386  bytes memory */\n      0x60\n        /* \"contracts/RLPEncode.sol\":418:419  1 */\n      0x01\n        /* \"contracts/RLPEncode.sol\":403:407  self */\n      dup3\n        /* \"contracts/RLPEncode.sol\":403:414  self.length */\n      mload\n        /* \"contracts/RLPEncode.sol\":403:419  self.length == 1 */\n      eq\n        /* \"contracts/RLPEncode.sol\":403:438  self.length == 1 && self[0] <= 0x7f */\n      dup1\n      iszero\n      tag_130\n      jumpi\n      pop\n        /* \"contracts/RLPEncode.sol\":434:438  0x7f */\n      0x7f\n        /* \"contracts/RLPEncode.sol\":423:438  self[0] <= 0x7f */\n      0xf8\n      shl\n        /* \"contracts/RLPEncode.sol\":423:427  self */\n      dup3\n        /* \"contracts/RLPEncode.sol\":428:429  0 */\n      0x00\n        /* \"contracts/RLPEncode.sol\":423:430  self[0] */\n      dup2\n      mload\n      dup2\n      lt\n      tag_131\n      jumpi\n      invalid\n    tag_131:\n      0x20\n      add\n      add\n      mload\n      0xf8\n      shr\n      0xf8\n      shl\n        /* \"contracts/RLPEncode.sol\":423:438  self[0] <= 0x7f */\n      not(0xffffffffffffffffffffffffffffffffffffffffffffffffffffffffffffff)\n      and\n      gt\n      iszero\n        /* \"contracts/RLPEncode.sol\":403:438  self.length == 1 && self[0] <= 0x7f */\n    tag_130:\n        /* \"contracts/RLPEncode.sol\":399:478  if (self.length == 1 && self[0] <= 0x7f) {\r... */\n      iszero\n      tag_132\n      jumpi\n        /* \"contracts/RLPEncode.sol\":462:466  self */\n      dup2\n        /* \"contracts/RLPEncode.sol\":455:466  return self */\n      swap1\n      pop\n      jump(tag_129)\n        /* \"contracts/RLPEncode.sol\":399:478  if (self.length == 1 && self[0] <= 0x7f) {\r... */\n    tag_132:\n        /* \"contracts/RLPEncode.sol\":495:553  mergeBytes(encodeLength(self.length, STRING_OFFSET), self) */\n      tag_133\n        /* \"contracts/RLPEncode.sol\":506:546  encodeLength(self.length, STRING_OFFSET) */\n      tag_134\n        /* \"contracts/RLPEncode.sol\":519:523  self */\n      dup4\n        /* \"contracts/RLPEncode.sol\":519:530  self.length */\n      mload\n        /* \"contracts/RLPEncode.sol\":94:98  0x80 */\n      0x80\n        /* \"contracts/RLPEncode.sol\":506:546  encodeLength(self.length, STRING_OFFSET) */\n      0xff\n      and\n        /* \"contracts/RLPEncode.sol\":506:518  encodeLength */\n      tag_93\n        /* \"contracts/RLPEncode.sol\":506:546  encodeLength(self.length, STRING_OFFSET) */\n      jump\t// in\n    tag_134:\n        /* \"contracts/RLPEncode.sol\":548:552  self */\n      dup4\n        /* \"contracts/RLPEncode.sol\":495:505  mergeBytes */\n      tag_90\n        /* \"contracts/RLPEncode.sol\":495:553  mergeBytes(encodeLength(self.length, STRING_OFFSET), self) */\n      jump\t// in\n    tag_133:\n        /* \"contracts/RLPEncode.sol\":488:553  return mergeBytes(encodeLength(self.length, STRING_OFFSET), self) */\n      swap1\n      pop\n        /* \"contracts/RLPEncode.sol\":311:561  function encodeBytes(bytes memory self) internal pure returns (bytes memory) {\r... */\n    tag_129:\n      swap2\n      swap1\n      pop\n      jump\t// out\n        /* \"contracts/RLPEncode.sol\":2726:5641  function mergeBytes(\r... */\n    tag_90:\n        /* \"contracts/RLPEncode.sol\":2858:2870  bytes memory */\n      0x60\n        /* \"contracts/RLPEncode.sol\":2888:2910  bytes memory tempBytes */\n      dup1\n        /* \"contracts/RLPEncode.sol\":3090:3094  0x40 */\n      0x40\n        /* \"contracts/RLPEncode.sol\":3084:3095  mload(0x40) */\n      mload\n        /* \"contracts/RLPEncode.sol\":3071:3095  tempBytes := mload(0x40) */\n      swap1\n      pop\n        /* \"contracts/RLPEncode.sol\":3243:3252  _preBytes */\n      dup4\n        /* \"contracts/RLPEncode.sol\":3237:3253  mload(_preBytes) */\n      mload\n        /* \"contracts/RLPEncode.sol\":3285:3291  length */\n      dup1\n        /* \"contracts/RLPEncode.sol\":3274:3283  tempBytes */\n      dup3\n        /* \"contracts/RLPEncode.sol\":3267:3292  mstore(tempBytes, length) */\n      mstore\n        /* \"contracts/RLPEncode.sol\":3520:3524  0x20 */\n      0x20\n        /* \"contracts/RLPEncode.sol\":3509:3518  tempBytes */\n      dup3\n        /* \"contracts/RLPEncode.sol\":3505:3525  add(tempBytes, 0x20) */\n      add\n        /* \"contracts/RLPEncode.sol\":3664:3670  length */\n      dup2\n        /* \"contracts/RLPEncode.sol\":3660:3662  mc */\n      dup2\n        /* \"contracts/RLPEncode.sol\":3656:3671  add(mc, length) */\n      add\n        /* \"contracts/RLPEncode.sol\":3855:3859  0x20 */\n      0x20\n        /* \"contracts/RLPEncode.sol\":3844:3853  _preBytes */\n      dup8\n        /* \"contracts/RLPEncode.sol\":3840:3860  add(_preBytes, 0x20) */\n      add\n        /* \"contracts/RLPEncode.sol\":3687:4204  for {\r... */\n    tag_136:\n        /* \"contracts/RLPEncode.sol\":3883:3886  end */\n      dup2\n        /* \"contracts/RLPEncode.sol\":3879:3881  mc */\n      dup4\n        /* \"contracts/RLPEncode.sol\":3876:3887  lt(mc, end) */\n      lt\n        /* \"contracts/RLPEncode.sol\":3687:4204  for {\r... */\n      iszero\n      tag_138\n      jumpi\n        /* \"contracts/RLPEncode.sol\":4185:4187  cc */\n      dup1\n        /* \"contracts/RLPEncode.sol\":4179:4188  mload(cc) */\n      mload\n        /* \"contracts/RLPEncode.sol\":4175:4177  mc */\n      dup4\n        /* \"contracts/RLPEncode.sol\":4168:4189  mstore(mc, mload(cc)) */\n      mstore\n        /* \"contracts/RLPEncode.sol\":3988:3992  0x20 */\n      0x20\n        /* \"contracts/RLPEncode.sol\":3984:3986  mc */\n      dup4\n        /* \"contracts/RLPEncode.sol\":3980:3993  add(mc, 0x20) */\n      add\n        /* \"contracts/RLPEncode.sol\":3974:3993  mc := add(mc, 0x20) */\n      swap3\n      pop\n        /* \"contracts/RLPEncode.sol\":4025:4029  0x20 */\n      0x20\n        /* \"contracts/RLPEncode.sol\":4021:4023  cc */\n      dup2\n        /* \"contracts/RLPEncode.sol\":4017:4030  add(cc, 0x20) */\n      add\n        /* \"contracts/RLPEncode.sol\":4011:4030  cc := add(cc, 0x20) */\n      swap1\n      pop\n        /* \"contracts/RLPEncode.sol\":3687:4204  for {\r... */\n      jump(tag_136)\n    tag_138:\n        /* \"contracts/RLPEncode.sol\":3691:3875  {\r... */\n      pop\n        /* \"contracts/RLPEncode.sol\":4414:4424  _postBytes */\n      dup6\n        /* \"contracts/RLPEncode.sol\":4408:4425  mload(_postBytes) */\n      mload\n        /* \"contracts/RLPEncode.sol\":4398:4425  length := mload(_postBytes) */\n      swap3\n      pop\n        /* \"contracts/RLPEncode.sol\":4475:4484  tempBytes */\n      dup4\n        /* \"contracts/RLPEncode.sol\":4469:4485  mload(tempBytes) */\n      mload\n        /* \"contracts/RLPEncode.sol\":4461:4467  length */\n      dup4\n        /* \"contracts/RLPEncode.sol\":4457:4486  add(length, mload(tempBytes)) */\n      add\n        /* \"contracts/RLPEncode.sol\":4446:4455  tempBytes */\n      dup5\n        /* \"contracts/RLPEncode.sol\":4439:4487  mstore(tempBytes, add(length, mload(tempBytes))) */\n      mstore\n        /* \"contracts/RLPEncode.sol\":4627:4630  end */\n      dup1\n        /* \"contracts/RLPEncode.sol\":4621:4630  mc := end */\n      swap2\n      pop\n        /* \"contracts/RLPEncode.sol\":4767:4773  length */\n      dup3\n        /* \"contracts/RLPEncode.sol\":4763:4765  mc */\n      dup3\n        /* \"contracts/RLPEncode.sol\":4759:4774  add(mc, length) */\n      add\n        /* \"contracts/RLPEncode.sol\":4752:4774  end := add(mc, length) */\n      swap1\n      pop\n        /* \"contracts/RLPEncode.sol\":4839:4843  0x20 */\n      0x20\n        /* \"contracts/RLPEncode.sol\":4827:4837  _postBytes */\n      dup7\n        /* \"contracts/RLPEncode.sol\":4823:4844  add(_postBytes, 0x20) */\n      add\n        /* \"contracts/RLPEncode.sol\":4790:5018  for {\r... */\n    tag_139:\n        /* \"contracts/RLPEncode.sol\":4867:4870  end */\n      dup2\n        /* \"contracts/RLPEncode.sol\":4863:4865  mc */\n      dup4\n        /* \"contracts/RLPEncode.sol\":4860:4871  lt(mc, end) */\n      lt\n        /* \"contracts/RLPEncode.sol\":4790:5018  for {\r... */\n      iszero\n      tag_141\n      jumpi\n        /* \"contracts/RLPEncode.sol\":4999:5001  cc */\n      dup1\n        /* \"contracts/RLPEncode.sol\":4993:5002  mload(cc) */\n      mload\n        /* \"contracts/RLPEncode.sol\":4989:4991  mc */\n      dup4\n        /* \"contracts/RLPEncode.sol\":4982:5003  mstore(mc, mload(cc)) */\n      mstore\n        /* \"contracts/RLPEncode.sol\":4905:4909  0x20 */\n      0x20\n        /* \"contracts/RLPEncode.sol\":4901:4903  mc */\n      dup4\n        /* \"contracts/RLPEncode.sol\":4897:4910  add(mc, 0x20) */\n      add\n        /* \"contracts/RLPEncode.sol\":4891:4910  mc := add(mc, 0x20) */\n      swap3\n      pop\n        /* \"contracts/RLPEncode.sol\":4942:4946  0x20 */\n      0x20\n        /* \"contracts/RLPEncode.sol\":4938:4940  cc */\n      dup2\n        /* \"contracts/RLPEncode.sol\":4934:4947  add(cc, 0x20) */\n      add\n        /* \"contracts/RLPEncode.sol\":4928:4947  cc := add(cc, 0x20) */\n      swap1\n      pop\n        /* \"contracts/RLPEncode.sol\":4790:5018  for {\r... */\n      jump(tag_139)\n    tag_141:\n        /* \"contracts/RLPEncode.sol\":4794:4859  {\r... */\n      pop\n        /* \"contracts/RLPEncode.sol\":5536:5538  31 */\n      0x1f\n        /* \"contracts/RLPEncode.sol\":5532:5539  not(31) */\n      not\n        /* \"contracts/RLPEncode.sol\":5514:5516  31 */\n      0x1f\n        /* \"contracts/RLPEncode.sol\":5499:5508  _preBytes */\n      dup9\n        /* \"contracts/RLPEncode.sol\":5493:5509  mload(_preBytes) */\n      mload\n        /* \"contracts/RLPEncode.sol\":5485:5491  length */\n      dup6\n        /* \"contracts/RLPEncode.sol\":5481:5510  add(length, mload(_preBytes)) */\n      add\n        /* \"contracts/RLPEncode.sol\":5474:5511  iszero(add(length, mload(_preBytes))) */\n      iszero\n        /* \"contracts/RLPEncode.sol\":5469:5472  end */\n      dup4\n        /* \"contracts/RLPEncode.sol\":5465:5512  add(end, iszero(add(length, mload(_preBytes)))) */\n      add\n        /* \"contracts/RLPEncode.sol\":5461:5517  add(add(end, iszero(add(length, mload(_preBytes)))), 31) */\n      add\n        /* \"contracts/RLPEncode.sol\":5443:5593  and(\r... */\n      and\n        /* \"contracts/RLPEncode.sol\":5437:5441  0x40 */\n      0x40\n        /* \"contracts/RLPEncode.sol\":5430:5594  mstore(0x40, and(\r... */\n      mstore\n        /* \"contracts/RLPEncode.sol\":2932:5605  {\r... */\n      pop\n      pop\n      pop\n        /* \"contracts/RLPEncode.sol\":5624:5633  tempBytes */\n      dup1\n        /* \"contracts/RLPEncode.sol\":5617:5633  return tempBytes */\n      swap2\n      pop\n      pop\n        /* \"contracts/RLPEncode.sol\":2726:5641  function mergeBytes(\r... */\n      swap3\n      swap2\n      pop\n      pop\n      jump\t// out\n        /* \"contracts/RLPEncode.sol\":5958:6396  function encodeLength(uint length, uint offset) internal pure returns (bytes memory) {\r... */\n    tag_93:\n        /* \"contracts/RLPEncode.sol\":6029:6041  bytes memory */\n      0x60\n        /* \"contracts/RLPEncode.sol\":6071:6077  256**8 */\n      0x010000000000000000\n        /* \"contracts/RLPEncode.sol\":6062:6068  length */\n      dup4\n        /* \"contracts/RLPEncode.sol\":6062:6077  length < 256**8 */\n      lt\n        /* \"contracts/RLPEncode.sol\":6054:6096  require(length < 256**8, \"input too long\") */\n      tag_143\n      jumpi\n      mload(0x40)\n      0x08c379a000000000000000000000000000000000000000000000000000000000\n      dup2\n      mstore\n      0x04\n      add\n      dup1\n      dup1\n      0x20\n      add\n      dup3\n      dup2\n      sub\n      dup3\n      mstore\n      0x0e\n      dup2\n      mstore\n      0x20\n      add\n      dup1\n      0x696e70757420746f6f206c6f6e67000000000000000000000000000000000000\n      dup2\n      mstore\n      pop\n      0x20\n      add\n      swap2\n      pop\n      pop\n      mload(0x40)\n      dup1\n      swap2\n      sub\n      swap1\n      revert\n    tag_143:\n        /* \"contracts/RLPEncode.sol\":6107:6122  bytes memory rs */\n      0x60\n        /* \"contracts/RLPEncode.sol\":6135:6136  1 */\n      0x01\n        /* \"contracts/RLPEncode.sol\":6125:6137  new bytes(1) */\n      mload(0x40)\n      swap1\n      dup1\n      dup3\n      mstore\n      dup1\n      0x1f\n      add\n      not(0x1f)\n      and\n      0x20\n      add\n      dup3\n      add\n      0x40\n      mstore\n      dup1\n      iszero\n      tag_144\n      jumpi\n      dup2\n      0x20\n      add\n        /* \"--CODEGEN--\":29:30   */\n      0x01\n        /* \"--CODEGEN--\":21:27   */\n      dup3\n        /* \"--CODEGEN--\":17:31   */\n      mul\n        /* \"--CODEGEN--\":116:120   */\n      dup1\n        /* \"--CODEGEN--\":104:114   */\n      codesize\n        /* \"--CODEGEN--\":96:102   */\n      dup4\n        /* \"--CODEGEN--\":87:121   */\n      codecopy\n        /* \"--CODEGEN--\":147:151   */\n      dup1\n        /* \"--CODEGEN--\":139:145   */\n      dup3\n        /* \"--CODEGEN--\":135:152   */\n      add\n        /* \"--CODEGEN--\":125:152   */\n      swap2\n      pop\n        /* \"--CODEGEN--\":0:156   */\n      pop\n        /* \"contracts/RLPEncode.sol\":6125:6137  new bytes(1) */\n      swap1\n      pop\n    tag_144:\n      pop\n        /* \"contracts/RLPEncode.sol\":6107:6137  bytes memory rs = new bytes(1) */\n      swap1\n      pop\n        /* \"contracts/RLPEncode.sol\":6162:6164  55 */\n      0x37\n        /* \"contracts/RLPEncode.sol\":6152:6158  length */\n      dup5\n        /* \"contracts/RLPEncode.sol\":6152:6164  length <= 55 */\n      gt\n        /* \"contracts/RLPEncode.sol\":6148:6253  if (length <= 55) {\r... */\n      tag_145\n      jumpi\n        /* \"contracts/RLPEncode.sol\":6209:6215  offset */\n      dup3\n        /* \"contracts/RLPEncode.sol\":6200:6206  length */\n      dup5\n        /* \"contracts/RLPEncode.sol\":6200:6215  length + offset */\n      add\n        /* \"contracts/RLPEncode.sol\":6189:6217  byte(uint8(length + offset)) */\n      0xf8\n      shl\n        /* \"contracts/RLPEncode.sol\":6181:6183  rs */\n      dup2\n        /* \"contracts/RLPEncode.sol\":6184:6185  0 */\n      0x00\n        /* \"contracts/RLPEncode.sol\":6181:6186  rs[0] */\n      dup2\n      mload\n      dup2\n      lt\n      tag_146\n      jumpi\n      invalid\n    tag_146:\n      0x20\n      add\n      add\n        /* \"contracts/RLPEncode.sol\":6181:6217  rs[0] = byte(uint8(length + offset)) */\n      swap1\n      not(0xffffffffffffffffffffffffffffffffffffffffffffffffffffffffffffff)\n      and\n      swap1\n      dup2\n      0x00\n      byte\n      swap1\n      mstore8\n      pop\n        /* \"contracts/RLPEncode.sol\":6239:6241  rs */\n      dup1\n        /* \"contracts/RLPEncode.sol\":6232:6241  return rs */\n      swap2\n      pop\n      pop\n      jump(tag_142)\n        /* \"contracts/RLPEncode.sol\":6148:6253  if (length <= 55) {\r... */\n    tag_145:\n        /* \"contracts/RLPEncode.sol\":6263:6278  bytes memory bl */\n      0x60\n        /* \"contracts/RLPEncode.sol\":6281:6297  toBinary(length) */\n      tag_147\n        /* \"contracts/RLPEncode.sol\":6290:6296  length */\n      dup6\n        /* \"contracts/RLPEncode.sol\":6281:6289  toBinary */\n      tag_79\n        /* \"contracts/RLPEncode.sol\":6281:6297  toBinary(length) */\n      jump\t// in\n    tag_147:\n        /* \"contracts/RLPEncode.sol\":6263:6297  bytes memory bl = toBinary(length) */\n      swap1\n      pop\n        /* \"contracts/RLPEncode.sol\":6348:6350  55 */\n      0x37\n        /* \"contracts/RLPEncode.sol\":6339:6345  offset */\n      dup5\n        /* \"contracts/RLPEncode.sol\":6327:6329  bl */\n      dup3\n        /* \"contracts/RLPEncode.sol\":6327:6336  bl.length */\n      mload\n        /* \"contracts/RLPEncode.sol\":6327:6345  bl.length + offset */\n      add\n        /* \"contracts/RLPEncode.sol\":6327:6350  bl.length + offset + 55 */\n      add\n        /* \"contracts/RLPEncode.sol\":6316:6352  byte(uint8(bl.length + offset + 55)) */\n      0xf8\n      shl\n        /* \"contracts/RLPEncode.sol\":6308:6310  rs */\n      dup3\n        /* \"contracts/RLPEncode.sol\":6311:6312  0 */\n      0x00\n        /* \"contracts/RLPEncode.sol\":6308:6313  rs[0] */\n      dup2\n      mload\n      dup2\n      lt\n      tag_148\n      jumpi\n      invalid\n    tag_148:\n      0x20\n      add\n      add\n        /* \"contracts/RLPEncode.sol\":6308:6352  rs[0] = byte(uint8(bl.length + offset + 55)) */\n      swap1\n      not(0xffffffffffffffffffffffffffffffffffffffffffffffffffffffffffffff)\n      and\n      swap1\n      dup2\n      0x00\n      byte\n      swap1\n      mstore8\n      pop\n        /* \"contracts/RLPEncode.sol\":6370:6388  mergeBytes(rs, bl) */\n      tag_149\n        /* \"contracts/RLPEncode.sol\":6381:6383  rs */\n      dup3\n        /* \"contracts/RLPEncode.sol\":6385:6387  bl */\n      dup3\n        /* \"contracts/RLPEncode.sol\":6370:6380  mergeBytes */\n      tag_90\n        /* \"contracts/RLPEncode.sol\":6370:6388  mergeBytes(rs, bl) */\n      jump\t// in\n    tag_149:\n        /* \"contracts/RLPEncode.sol\":6363:6388  return mergeBytes(rs, bl) */\n      swap3\n      pop\n      pop\n      pop\n        /* \"contracts/RLPEncode.sol\":5958:6396  function encodeLength(uint length, uint offset) internal pure returns (bytes memory) {\r... */\n    tag_142:\n      swap3\n      swap2\n      pop\n      pop\n      jump\t// out\n        /* \"contracts/demo1.sol\":92:1415  library CmnPkg {\r... */\n    tag_19:\n      mload(0x40)\n      dup1\n      0x20\n      add\n      0x40\n      mstore\n      dup1\n      and(0xffffffff, 0x00)\n      dup2\n      mstore\n      pop\n      swap1\n      jump\t// out\n    tag_29:\n      mload(0x40)\n      dup1\n      0x40\n      add\n      0x40\n      mstore\n      dup1\n      tag_150\n      tag_151\n      jump\t// in\n    tag_150:\n      dup2\n      mstore\n      0x20\n      add\n      0x00\n      dup2\n      mstore\n      pop\n      swap1\n      jump\t// out\n    tag_53:\n      mload(0x40)\n      dup1\n      0x40\n      add\n      0x40\n      mstore\n      dup1\n      0x00\n      dup2\n      mstore\n      0x20\n      add\n      0x00\n      dup2\n      mstore\n      pop\n      swap1\n      jump\t// out\n    tag_151:\n      mload(0x40)\n      dup1\n      0x40\n      add\n      0x40\n      mstore\n      dup1\n      0x00\n      dup2\n      mstore\n      0x20\n      add\n      0x00\n      dup2\n      mstore\n      pop\n      swap1\n      jump\t// out\n\n    auxdata: 0xa265627a7a72315820dc22cd6964f0a82a9b5fff2012937ee124dc1799fdf65a23d951ee8a710e163164736f6c63430005100032\n}\n",
				"bytecode": {
					"linkReferences": {},
					"object": "610cda610026600b82828239805160001a60731461001957fe5b30600052607381538281f3fe73000000000000000000000000000000000000000030146080604052600436106100405760003560e01c806302ee5a2114610045578063aacc9bf814610114575b600080fd5b6100fe6004803603602081101561005b57600080fd5b810190808035906020019064010000000081111561007857600080fd5b82018360208201111561008a57600080fd5b803590602001918460018302840111640100000000831117156100ac57600080fd5b91908080601f016020809104026020016040519081016040528093929190818152602001838380828437600081840152601f19601f8201169050808301925050505050505091929192905050506101c1565b6040518082815260200191505060405180910390f35b6101466004803603602081101561012a57600080fd5b81019080803563ffffffff1690602001909291905050506101ee565b6040518080602001828103825283818151815260200191508051906020019080838360005b8381101561018657808201518184015260208101905061016b565b50505050905090810190601f1680156101b35780820380516001836020036101000a031916815260200191505b509250505060405180910390f35b60006101cb610c38565b60006101d684610200565b91509150816000015163ffffffff1692505050919050565b60606101f9826102a1565b9050919050565b610208610c38565b6000610212610c38565b61021a610c51565b61022b61022686610314565b610342565b9050600080905060008090505b61024183610390565b156102925760008114156102805761026061025b846103ba565b610414565b846000019063ffffffff16908163ffffffff168152505060019150610285565b610292565b8080600101915050610238565b83829550955050505050915091565b60608060016040519080825280602002602001820160405280156102d957816020015b60608152602001906001900390816102c45790505b5090506102eb8363ffffffff166104ff565b816000815181106102f857fe5b602002602001018190525061030c81610519565b915050919050565b61031c610c71565b600060208301905060405180604001604052808451815260200182815250915050919050565b61034a610c51565b610353826105d8565b61035c57600080fd5b600061036b8360200151610626565b8360200151019050604051806040016040528084815260200182815250915050919050565b600061039a610c71565b826000015190508060000151816020015101836020015110915050919050565b6103c2610c71565b6103cb82610390565b6103d457600080fd5b60008260200151905060006103e8826106af565b905080820184602001818152505060405180604001604052808281526020018381525092505050919050565b600080826000015111801561042e57506021826000015111155b61043757600080fd5b60006104468360200151610626565b905080836000015110156104c2576040517f08c379a000000000000000000000000000000000000000000000000000000000815260040180806020018281038252601a8152602001807f6c656e677468206973206c657373207468616e206f666673657400000000000081525060200191505060405180910390fd5b60008184600001510390506000808386602001510190508051915060208310156104f357826020036101000a820491505b81945050505050919050565b606061051261050d8361085b565b6109bd565b9050919050565b60606000825114156105615760006040519080825280601f01601f1916602001820160405280156105595781602001600182028038833980820191505090505b5090506105d3565b60608260008151811061057057fe5b602002602001015190506000600190505b83518110156105b6576105a78285838151811061059a57fe5b6020026020010151610a3a565b91508080600101915050610581565b506105cf6105c9825160c060ff16610ac4565b82610a3a565b9150505b919050565b600080826000015114156105ef5760009050610621565b60008083602001519050805160001a915060c060ff168260ff16101561061a57600092505050610621565b6001925050505b919050565b600080825160001a9050608060ff168110156106465760009150506106aa565b60b860ff1681108061066b575060c060ff16811015801561066a575060f860ff1681105b5b1561067a5760019150506106aa565b60c060ff1681101561069a5760018060b80360ff168203019150506106aa565b60018060f80360ff168203019150505b919050565b6000806000835160001a9050608060ff168110156106d05760019150610851565b60b860ff168110156106ed576001608060ff168203019150610850565b60c060ff1681101561079757600060b78203600186019550806020036101000a865104915060018101820193505080831015610791576040517f08c379a00000000000000000000000000000000000000000000000000000000081526004018080602001828103825260118152602001807f6164646974696f6e206f766572666c6f7700000000000000000000000000000081525060200191505060405180910390fd5b5061084f565b60f860ff168110156107b457600160c060ff16820301915061084e565b600060f78203600186019550806020036101000a86510491506001810182019350508083101561084c576040517f08c379a00000000000000000000000000000000000000000000000000000000081526004018080602001828103825260118152602001807f6164646974696f6e206f766572666c6f7700000000000000000000000000000081525060200191505060405180910390fd5b505b5b5b5b8192505050919050565b60608060206040519080825280601f01601f1916602001820160405280156108925781602001600182028038833980820191505090505b5090508260208201526000807fffffffffffffffffffffffffffffffffffffffffffffffff0000000000000000851614156108d0576018905061090a565b60007fffffffffffffffffffffffffffffffff00000000000000000000000000000000851614156109045760109050610909565b600090505b5b5b602081101561096957600060f81b82828151811061092557fe5b602001015160f81c60f81b7effffffffffffffffffffffffffffffffffffffffffffffffffffffffffffff19161461095c57610969565b808060010191505061090b565b60008160200390506060816040519080825280601f01601f1916602001820160405280156109a65781602001600182028038833980820191505090505b509050858282015281815280945050505050919050565b606060018251148015610a0d5750607f60f81b826000815181106109dd57fe5b602001015160f81c60f81b7effffffffffffffffffffffffffffffffffffffffffffffffffffffffffffff191611155b15610a1a57819050610a35565b610a32610a2c8351608060ff16610ac4565b83610a3a565b90505b919050565b6060806040519050835180825260208201818101602087015b81831015610a705780518352602083019250602081019050610a53565b50855192508351830184528091508282019050602086015b81831015610aa55780518352602083019250602081019050610a88565b50601f19601f8851850115830101166040525050508091505092915050565b6060680100000000000000008310610b44576040517f08c379a000000000000000000000000000000000000000000000000000000000815260040180806020018281038252600e8152602001807f696e70757420746f6f206c6f6e6700000000000000000000000000000000000081525060200191505060405180910390fd5b606060016040519080825280601f01601f191660200182016040528015610b7a5781602001600182028038833980820191505090505b50905060378411610bd05782840160f81b81600081518110610b9857fe5b60200101907effffffffffffffffffffffffffffffffffffffffffffffffffffffffffffff1916908160001a90535080915050610c32565b6060610bdb8561085b565b90506037848251010160f81b82600081518110610bf457fe5b60200101907effffffffffffffffffffffffffffffffffffffffffffffffffffffffffffff1916908160001a905350610c2d8282610a3a565b925050505b92915050565b6040518060200160405280600063ffffffff1681525090565b6040518060400160405280610c64610c8b565b8152602001600081525090565b604051806040016040528060008152602001600081525090565b60405180604001604052806000815260200160008152509056fea265627a7a72315820dc22cd6964f0a82a9b5fff2012937ee124dc1799fdf65a23d951ee8a710e163164736f6c63430005100032",
					"opcodes": "PUSH2 0xCDA PUSH2 0x26 PUSH1 0xB DUP3 DUP3 DUP3 CODECOPY DUP1 MLOAD PUSH1 0x0 BYTE PUSH1 0x73 EQ PUSH2 0x19 JUMPI INVALID JUMPDEST ADDRESS PUSH1 0x0 MSTORE PUSH1 0x73 DUP2 MSTORE8 DUP3 DUP2 RETURN INVALID PUSH20 0x0 ADDRESS EQ PUSH1 0x80 PUSH1 0x40 MSTORE PUSH1 0x4 CALLDATASIZE LT PUSH2 0x40 JUMPI PUSH1 0x0 CALLDATALOAD PUSH1 0xE0 SHR DUP1 PUSH4 0x2EE5A21 EQ PUSH2 0x45 JUMPI DUP1 PUSH4 0xAACC9BF8 EQ PUSH2 0x114 JUMPI JUMPDEST PUSH1 0x0 DUP1 REVERT JUMPDEST PUSH2 0xFE PUSH1 0x4 DUP1 CALLDATASIZE SUB PUSH1 0x20 DUP2 LT ISZERO PUSH2 0x5B JUMPI PUSH1 0x0 DUP1 REVERT JUMPDEST DUP2 ADD SWAP1 DUP1 DUP1 CALLDATALOAD SWAP1 PUSH1 0x20 ADD SWAP1 PUSH5 0x100000000 DUP2 GT ISZERO PUSH2 0x78 JUMPI PUSH1 0x0 DUP1 REVERT JUMPDEST DUP3 ADD DUP4 PUSH1 0x20 DUP3 ADD GT ISZERO PUSH2 0x8A JUMPI PUSH1 0x0 DUP1 REVERT JUMPDEST DUP1 CALLDATALOAD SWAP1 PUSH1 0x20 ADD SWAP2 DUP5 PUSH1 0x1 DUP4 MUL DUP5 ADD GT PUSH5 0x100000000 DUP4 GT OR ISZERO PUSH2 0xAC JUMPI PUSH1 0x0 DUP1 REVERT JUMPDEST SWAP2 SWAP1 DUP1 DUP1 PUSH1 0x1F ADD PUSH1 0x20 DUP1 SWAP2 DIV MUL PUSH1 0x20 ADD PUSH1 0x40 MLOAD SWAP1 DUP2 ADD PUSH1 0x40 MSTORE DUP1 SWAP4 SWAP3 SWAP2 SWAP1 DUP2 DUP2 MSTORE PUSH1 0x20 ADD DUP4 DUP4 DUP1 DUP3 DUP5 CALLDATACOPY PUSH1 0x0 DUP2 DUP5 ADD MSTORE PUSH1 0x1F NOT PUSH1 0x1F DUP3 ADD AND SWAP1 POP DUP1 DUP4 ADD SWAP3 POP POP POP POP POP POP POP SWAP2 SWAP3 SWAP2 SWAP3 SWAP1 POP POP POP PUSH2 0x1C1 JUMP JUMPDEST PUSH1 0x40 MLOAD DUP1 DUP3 DUP2 MSTORE PUSH1 0x20 ADD SWAP2 POP POP PUSH1 0x40 MLOAD DUP1 SWAP2 SUB SWAP1 RETURN JUMPDEST PUSH2 0x146 PUSH1 0x4 DUP1 CALLDATASIZE SUB PUSH1 0x20 DUP2 LT ISZERO PUSH2 0x12A JUMPI PUSH1 0x0 DUP1 REVERT JUMPDEST DUP2 ADD SWAP1 DUP1 DUP1 CALLDATALOAD PUSH4 0xFFFFFFFF AND SWAP1 PUSH1 0x20 ADD SWAP1 SWAP3 SWAP2 SWAP1 POP POP POP PUSH2 0x1EE JUMP JUMPDEST PUSH1 0x40 MLOAD DUP1 DUP1 PUSH1 0x20 ADD DUP3 DUP2 SUB DUP3 MSTORE DUP4 DUP2 DUP2 MLOAD DUP2 MSTORE PUSH1 0x20 ADD SWAP2 POP DUP1 MLOAD SWAP1 PUSH1 0x20 ADD SWAP1 DUP1 DUP4 DUP4 PUSH1 0x0 JUMPDEST DUP4 DUP2 LT ISZERO PUSH2 0x186 JUMPI DUP1 DUP3 ADD MLOAD DUP2 DUP5 ADD MSTORE PUSH1 0x20 DUP2 ADD SWAP1 POP PUSH2 0x16B JUMP JUMPDEST POP POP POP POP SWAP1 POP SWAP1 DUP2 ADD SWAP1 PUSH1 0x1F AND DUP1 ISZERO PUSH2 0x1B3 JUMPI DUP1 DUP3 SUB DUP1 MLOAD PUSH1 0x1 DUP4 PUSH1 0x20 SUB PUSH2 0x100 EXP SUB NOT AND DUP2 MSTORE PUSH1 0x20 ADD SWAP2 POP JUMPDEST POP SWAP3 POP POP POP PUSH1 0x40 MLOAD DUP1 SWAP2 SUB SWAP1 RETURN JUMPDEST PUSH1 0x0 PUSH2 0x1CB PUSH2 0xC38 JUMP JUMPDEST PUSH1 0x0 PUSH2 0x1D6 DUP5 PUSH2 0x200 JUMP JUMPDEST SWAP2 POP SWAP2 POP DUP2 PUSH1 0x0 ADD MLOAD PUSH4 0xFFFFFFFF AND SWAP3 POP POP POP SWAP2 SWAP1 POP JUMP JUMPDEST PUSH1 0x60 PUSH2 0x1F9 DUP3 PUSH2 0x2A1 JUMP JUMPDEST SWAP1 POP SWAP2 SWAP1 POP JUMP JUMPDEST PUSH2 0x208 PUSH2 0xC38 JUMP JUMPDEST PUSH1 0x0 PUSH2 0x212 PUSH2 0xC38 JUMP JUMPDEST PUSH2 0x21A PUSH2 0xC51 JUMP JUMPDEST PUSH2 0x22B PUSH2 0x226 DUP7 PUSH2 0x314 JUMP JUMPDEST PUSH2 0x342 JUMP JUMPDEST SWAP1 POP PUSH1 0x0 DUP1 SWAP1 POP PUSH1 0x0 DUP1 SWAP1 POP JUMPDEST PUSH2 0x241 DUP4 PUSH2 0x390 JUMP JUMPDEST ISZERO PUSH2 0x292 JUMPI PUSH1 0x0 DUP2 EQ ISZERO PUSH2 0x280 JUMPI PUSH2 0x260 PUSH2 0x25B DUP5 PUSH2 0x3BA JUMP JUMPDEST PUSH2 0x414 JUMP JUMPDEST DUP5 PUSH1 0x0 ADD SWAP1 PUSH4 0xFFFFFFFF AND SWAP1 DUP2 PUSH4 0xFFFFFFFF AND DUP2 MSTORE POP POP PUSH1 0x1 SWAP2 POP PUSH2 0x285 JUMP JUMPDEST PUSH2 0x292 JUMP JUMPDEST DUP1 DUP1 PUSH1 0x1 ADD SWAP2 POP POP PUSH2 0x238 JUMP JUMPDEST DUP4 DUP3 SWAP6 POP SWAP6 POP POP POP POP POP SWAP2 POP SWAP2 JUMP JUMPDEST PUSH1 0x60 DUP1 PUSH1 0x1 PUSH1 0x40 MLOAD SWAP1 DUP1 DUP3 MSTORE DUP1 PUSH1 0x20 MUL PUSH1 0x20 ADD DUP3 ADD PUSH1 0x40 MSTORE DUP1 ISZERO PUSH2 0x2D9 JUMPI DUP2 PUSH1 0x20 ADD JUMPDEST PUSH1 0x60 DUP2 MSTORE PUSH1 0x20 ADD SWAP1 PUSH1 0x1 SWAP1 SUB SWAP1 DUP2 PUSH2 0x2C4 JUMPI SWAP1 POP JUMPDEST POP SWAP1 POP PUSH2 0x2EB DUP4 PUSH4 0xFFFFFFFF AND PUSH2 0x4FF JUMP JUMPDEST DUP2 PUSH1 0x0 DUP2 MLOAD DUP2 LT PUSH2 0x2F8 JUMPI INVALID JUMPDEST PUSH1 0x20 MUL PUSH1 0x20 ADD ADD DUP2 SWAP1 MSTORE POP PUSH2 0x30C DUP2 PUSH2 0x519 JUMP JUMPDEST SWAP2 POP POP SWAP2 SWAP1 POP JUMP JUMPDEST PUSH2 0x31C PUSH2 0xC71 JUMP JUMPDEST PUSH1 0x0 PUSH1 0x20 DUP4 ADD SWAP1 POP PUSH1 0x40 MLOAD DUP1 PUSH1 0x40 ADD PUSH1 0x40 MSTORE DUP1 DUP5 MLOAD DUP2 MSTORE PUSH1 0x20 ADD DUP3 DUP2 MSTORE POP SWAP2 POP POP SWAP2 SWAP1 POP JUMP JUMPDEST PUSH2 0x34A PUSH2 0xC51 JUMP JUMPDEST PUSH2 0x353 DUP3 PUSH2 0x5D8 JUMP JUMPDEST PUSH2 0x35C JUMPI PUSH1 0x0 DUP1 REVERT JUMPDEST PUSH1 0x0 PUSH2 0x36B DUP4 PUSH1 0x20 ADD MLOAD PUSH2 0x626 JUMP JUMPDEST DUP4 PUSH1 0x20 ADD MLOAD ADD SWAP1 POP PUSH1 0x40 MLOAD DUP1 PUSH1 0x40 ADD PUSH1 0x40 MSTORE DUP1 DUP5 DUP2 MSTORE PUSH1 0x20 ADD DUP3 DUP2 MSTORE POP SWAP2 POP POP SWAP2 SWAP1 POP JUMP JUMPDEST PUSH1 0x0 PUSH2 0x39A PUSH2 0xC71 JUMP JUMPDEST DUP3 PUSH1 0x0 ADD MLOAD SWAP1 POP DUP1 PUSH1 0x0 ADD MLOAD DUP2 PUSH1 0x20 ADD MLOAD ADD DUP4 PUSH1 0x20 ADD MLOAD LT SWAP2 POP POP SWAP2 SWAP1 POP JUMP JUMPDEST PUSH2 0x3C2 PUSH2 0xC71 JUMP JUMPDEST PUSH2 0x3CB DUP3 PUSH2 0x390 JUMP JUMPDEST PUSH2 0x3D4 JUMPI PUSH1 0x0 DUP1 REVERT JUMPDEST PUSH1 0x0 DUP3 PUSH1 0x20 ADD MLOAD SWAP1 POP PUSH1 0x0 PUSH2 0x3E8 DUP3 PUSH2 0x6AF JUMP JUMPDEST SWAP1 POP DUP1 DUP3 ADD DUP5 PUSH1 0x20 ADD DUP2 DUP2 MSTORE POP POP PUSH1 0x40 MLOAD DUP1 PUSH1 0x40 ADD PUSH1 0x40 MSTORE DUP1 DUP3 DUP2 MSTORE PUSH1 0x20 ADD DUP4 DUP2 MSTORE POP SWAP3 POP POP POP SWAP2 SWAP1 POP JUMP JUMPDEST PUSH1 0x0 DUP1 DUP3 PUSH1 0x0 ADD MLOAD GT DUP1 ISZERO PUSH2 0x42E JUMPI POP PUSH1 0x21 DUP3 PUSH1 0x0 ADD MLOAD GT ISZERO JUMPDEST PUSH2 0x437 JUMPI PUSH1 0x0 DUP1 REVERT JUMPDEST PUSH1 0x0 PUSH2 0x446 DUP4 PUSH1 0x20 ADD MLOAD PUSH2 0x626 JUMP JUMPDEST SWAP1 POP DUP1 DUP4 PUSH1 0x0 ADD MLOAD LT ISZERO PUSH2 0x4C2 JUMPI PUSH1 0x40 MLOAD PUSH32 0x8C379A000000000000000000000000000000000000000000000000000000000 DUP2 MSTORE PUSH1 0x4 ADD DUP1 DUP1 PUSH1 0x20 ADD DUP3 DUP2 SUB DUP3 MSTORE PUSH1 0x1A DUP2 MSTORE PUSH1 0x20 ADD DUP1 PUSH32 0x6C656E677468206973206C657373207468616E206F6666736574000000000000 DUP2 MSTORE POP PUSH1 0x20 ADD SWAP2 POP POP PUSH1 0x40 MLOAD DUP1 SWAP2 SUB SWAP1 REVERT JUMPDEST PUSH1 0x0 DUP2 DUP5 PUSH1 0x0 ADD MLOAD SUB SWAP1 POP PUSH1 0x0 DUP1 DUP4 DUP7 PUSH1 0x20 ADD MLOAD ADD SWAP1 POP DUP1 MLOAD SWAP2 POP PUSH1 0x20 DUP4 LT ISZERO PUSH2 0x4F3 JUMPI DUP3 PUSH1 0x20 SUB PUSH2 0x100 EXP DUP3 DIV SWAP2 POP JUMPDEST DUP2 SWAP5 POP POP POP POP POP SWAP2 SWAP1 POP JUMP JUMPDEST PUSH1 0x60 PUSH2 0x512 PUSH2 0x50D DUP4 PUSH2 0x85B JUMP JUMPDEST PUSH2 0x9BD JUMP JUMPDEST SWAP1 POP SWAP2 SWAP1 POP JUMP JUMPDEST PUSH1 0x60 PUSH1 0x0 DUP3 MLOAD EQ ISZERO PUSH2 0x561 JUMPI PUSH1 0x0 PUSH1 0x40 MLOAD SWAP1 DUP1 DUP3 MSTORE DUP1 PUSH1 0x1F ADD PUSH1 0x1F NOT AND PUSH1 0x20 ADD DUP3 ADD PUSH1 0x40 MSTORE DUP1 ISZERO PUSH2 0x559 JUMPI DUP2 PUSH1 0x20 ADD PUSH1 0x1 DUP3 MUL DUP1 CODESIZE DUP4 CODECOPY DUP1 DUP3 ADD SWAP2 POP POP SWAP1 POP JUMPDEST POP SWAP1 POP PUSH2 0x5D3 JUMP JUMPDEST PUSH1 0x60 DUP3 PUSH1 0x0 DUP2 MLOAD DUP2 LT PUSH2 0x570 JUMPI INVALID JUMPDEST PUSH1 0x20 MUL PUSH1 0x20 ADD ADD MLOAD SWAP1 POP PUSH1 0x0 PUSH1 0x1 SWAP1 POP JUMPDEST DUP4 MLOAD DUP2 LT ISZERO PUSH2 0x5B6 JUMPI PUSH2 0x5A7 DUP3 DUP6 DUP4 DUP2 MLOAD DUP2 LT PUSH2 0x59A JUMPI INVALID JUMPDEST PUSH1 0x20 MUL PUSH1 0x20 ADD ADD MLOAD PUSH2 0xA3A JUMP JUMPDEST SWAP2 POP DUP1 DUP1 PUSH1 0x1 ADD SWAP2 POP POP PUSH2 0x581 JUMP JUMPDEST POP PUSH2 0x5CF PUSH2 0x5C9 DUP3 MLOAD PUSH1 0xC0 PUSH1 0xFF AND PUSH2 0xAC4 JUMP JUMPDEST DUP3 PUSH2 0xA3A JUMP JUMPDEST SWAP2 POP POP JUMPDEST SWAP2 SWAP1 POP JUMP JUMPDEST PUSH1 0x0 DUP1 DUP3 PUSH1 0x0 ADD MLOAD EQ ISZERO PUSH2 0x5EF JUMPI PUSH1 0x0 SWAP1 POP PUSH2 0x621 JUMP JUMPDEST PUSH1 0x0 DUP1 DUP4 PUSH1 0x20 ADD MLOAD SWAP1 POP DUP1 MLOAD PUSH1 0x0 BYTE SWAP2 POP PUSH1 0xC0 PUSH1 0xFF AND DUP3 PUSH1 0xFF AND LT ISZERO PUSH2 0x61A JUMPI PUSH1 0x0 SWAP3 POP POP POP PUSH2 0x621 JUMP JUMPDEST PUSH1 0x1 SWAP3 POP POP POP JUMPDEST SWAP2 SWAP1 POP JUMP JUMPDEST PUSH1 0x0 DUP1 DUP3 MLOAD PUSH1 0x0 BYTE SWAP1 POP PUSH1 0x80 PUSH1 0xFF AND DUP2 LT ISZERO PUSH2 0x646 JUMPI PUSH1 0x0 SWAP2 POP POP PUSH2 0x6AA JUMP JUMPDEST PUSH1 0xB8 PUSH1 0xFF AND DUP2 LT DUP1 PUSH2 0x66B JUMPI POP PUSH1 0xC0 PUSH1 0xFF AND DUP2 LT ISZERO DUP1 ISZERO PUSH2 0x66A JUMPI POP PUSH1 0xF8 PUSH1 0xFF AND DUP2 LT JUMPDEST JUMPDEST ISZERO PUSH2 0x67A JUMPI PUSH1 0x1 SWAP2 POP POP PUSH2 0x6AA JUMP JUMPDEST PUSH1 0xC0 PUSH1 0xFF AND DUP2 LT ISZERO PUSH2 0x69A JUMPI PUSH1 0x1 DUP1 PUSH1 0xB8 SUB PUSH1 0xFF AND DUP3 SUB ADD SWAP2 POP POP PUSH2 0x6AA JUMP JUMPDEST PUSH1 0x1 DUP1 PUSH1 0xF8 SUB PUSH1 0xFF AND DUP3 SUB ADD SWAP2 POP POP JUMPDEST SWAP2 SWAP1 POP JUMP JUMPDEST PUSH1 0x0 DUP1 PUSH1 0x0 DUP4 MLOAD PUSH1 0x0 BYTE SWAP1 POP PUSH1 0x80 PUSH1 0xFF AND DUP2 LT ISZERO PUSH2 0x6D0 JUMPI PUSH1 0x1 SWAP2 POP PUSH2 0x851 JUMP JUMPDEST PUSH1 0xB8 PUSH1 0xFF AND DUP2 LT ISZERO PUSH2 0x6ED JUMPI PUSH1 0x1 PUSH1 0x80 PUSH1 0xFF AND DUP3 SUB ADD SWAP2 POP PUSH2 0x850 JUMP JUMPDEST PUSH1 0xC0 PUSH1 0xFF AND DUP2 LT ISZERO PUSH2 0x797 JUMPI PUSH1 0x0 PUSH1 0xB7 DUP3 SUB PUSH1 0x1 DUP7 ADD SWAP6 POP DUP1 PUSH1 0x20 SUB PUSH2 0x100 EXP DUP7 MLOAD DIV SWAP2 POP PUSH1 0x1 DUP2 ADD DUP3 ADD SWAP4 POP POP DUP1 DUP4 LT ISZERO PUSH2 0x791 JUMPI PUSH1 0x40 MLOAD PUSH32 0x8C379A000000000000000000000000000000000000000000000000000000000 DUP2 MSTORE PUSH1 0x4 ADD DUP1 DUP1 PUSH1 0x20 ADD DUP3 DUP2 SUB DUP3 MSTORE PUSH1 0x11 DUP2 MSTORE PUSH1 0x20 ADD DUP1 PUSH32 0x6164646974696F6E206F766572666C6F77000000000000000000000000000000 DUP2 MSTORE POP PUSH1 0x20 ADD SWAP2 POP POP PUSH1 0x40 MLOAD DUP1 SWAP2 SUB SWAP1 REVERT JUMPDEST POP PUSH2 0x84F JUMP JUMPDEST PUSH1 0xF8 PUSH1 0xFF AND DUP2 LT ISZERO PUSH2 0x7B4 JUMPI PUSH1 0x1 PUSH1 0xC0 PUSH1 0xFF AND DUP3 SUB ADD SWAP2 POP PUSH2 0x84E JUMP JUMPDEST PUSH1 0x0 PUSH1 0xF7 DUP3 SUB PUSH1 0x1 DUP7 ADD SWAP6 POP DUP1 PUSH1 0x20 SUB PUSH2 0x100 EXP DUP7 MLOAD DIV SWAP2 POP PUSH1 0x1 DUP2 ADD DUP3 ADD SWAP4 POP POP DUP1 DUP4 LT ISZERO PUSH2 0x84C JUMPI PUSH1 0x40 MLOAD PUSH32 0x8C379A000000000000000000000000000000000000000000000000000000000 DUP2 MSTORE PUSH1 0x4 ADD DUP1 DUP1 PUSH1 0x20 ADD DUP3 DUP2 SUB DUP3 MSTORE PUSH1 0x11 DUP2 MSTORE PUSH1 0x20 ADD DUP1 PUSH32 0x6164646974696F6E206F766572666C6F77000000000000000000000000000000 DUP2 MSTORE POP PUSH1 0x20 ADD SWAP2 POP POP PUSH1 0x40 MLOAD DUP1 SWAP2 SUB SWAP1 REVERT JUMPDEST POP JUMPDEST JUMPDEST JUMPDEST JUMPDEST DUP2 SWAP3 POP POP POP SWAP2 SWAP1 POP JUMP JUMPDEST PUSH1 0x60 DUP1 PUSH1 0x20 PUSH1 0x40 MLOAD SWAP1 DUP1 DUP3 MSTORE DUP1 PUSH1 0x1F ADD PUSH1 0x1F NOT AND PUSH1 0x20 ADD DUP3 ADD PUSH1 0x40 MSTORE DUP1 ISZERO PUSH2 0x892 JUMPI DUP2 PUSH1 0x20 ADD PUSH1 0x1 DUP3 MUL DUP1 CODESIZE DUP4 CODECOPY DUP1 DUP3 ADD SWAP2 POP POP SWAP1 POP JUMPDEST POP SWAP1 POP DUP3 PUSH1 0x20 DUP3 ADD MSTORE PUSH1 0x0 DUP1 PUSH32 0xFFFFFFFFFFFFFFFFFFFFFFFFFFFFFFFFFFFFFFFFFFFFFFFF0000000000000000 DUP6 AND EQ ISZERO PUSH2 0x8D0 JUMPI PUSH1 0x18 SWAP1 POP PUSH2 0x90A JUMP JUMPDEST PUSH1 0x0 PUSH32 0xFFFFFFFFFFFFFFFFFFFFFFFFFFFFFFFF00000000000000000000000000000000 DUP6 AND EQ ISZERO PUSH2 0x904 JUMPI PUSH1 0x10 SWAP1 POP PUSH2 0x909 JUMP JUMPDEST PUSH1 0x0 SWAP1 POP JUMPDEST JUMPDEST JUMPDEST PUSH1 0x20 DUP2 LT ISZERO PUSH2 0x969 JUMPI PUSH1 0x0 PUSH1 0xF8 SHL DUP3 DUP3 DUP2 MLOAD DUP2 LT PUSH2 0x925 JUMPI INVALID JUMPDEST PUSH1 0x20 ADD ADD MLOAD PUSH1 0xF8 SHR PUSH1 0xF8 SHL PUSH31 0xFFFFFFFFFFFFFFFFFFFFFFFFFFFFFFFFFFFFFFFFFFFFFFFFFFFFFFFFFFFFFF NOT AND EQ PUSH2 0x95C JUMPI PUSH2 0x969 JUMP JUMPDEST DUP1 DUP1 PUSH1 0x1 ADD SWAP2 POP POP PUSH2 0x90B JUMP JUMPDEST PUSH1 0x0 DUP2 PUSH1 0x20 SUB SWAP1 POP PUSH1 0x60 DUP2 PUSH1 0x40 MLOAD SWAP1 DUP1 DUP3 MSTORE DUP1 PUSH1 0x1F ADD PUSH1 0x1F NOT AND PUSH1 0x20 ADD DUP3 ADD PUSH1 0x40 MSTORE DUP1 ISZERO PUSH2 0x9A6 JUMPI DUP2 PUSH1 0x20 ADD PUSH1 0x1 DUP3 MUL DUP1 CODESIZE DUP4 CODECOPY DUP1 DUP3 ADD SWAP2 POP POP SWAP1 POP JUMPDEST POP SWAP1 POP DUP6 DUP3 DUP3 ADD MSTORE DUP2 DUP2 MSTORE DUP1 SWAP5 POP POP POP POP POP SWAP2 SWAP1 POP JUMP JUMPDEST PUSH1 0x60 PUSH1 0x1 DUP3 MLOAD EQ DUP1 ISZERO PUSH2 0xA0D JUMPI POP PUSH1 0x7F PUSH1 0xF8 SHL DUP3 PUSH1 0x0 DUP2 MLOAD DUP2 LT PUSH2 0x9DD JUMPI INVALID JUMPDEST PUSH1 0x20 ADD ADD MLOAD PUSH1 0xF8 SHR PUSH1 0xF8 SHL PUSH31 0xFFFFFFFFFFFFFFFFFFFFFFFFFFFFFFFFFFFFFFFFFFFFFFFFFFFFFFFFFFFFFF NOT AND GT ISZERO JUMPDEST ISZERO PUSH2 0xA1A JUMPI DUP2 SWAP1 POP PUSH2 0xA35 JUMP JUMPDEST PUSH2 0xA32 PUSH2 0xA2C DUP4 MLOAD PUSH1 0x80 PUSH1 0xFF AND PUSH2 0xAC4 JUMP JUMPDEST DUP4 PUSH2 0xA3A JUMP JUMPDEST SWAP1 POP JUMPDEST SWAP2 SWAP1 POP JUMP JUMPDEST PUSH1 0x60 DUP1 PUSH1 0x40 MLOAD SWAP1 POP DUP4 MLOAD DUP1 DUP3 MSTORE PUSH1 0x20 DUP3 ADD DUP2 DUP2 ADD PUSH1 0x20 DUP8 ADD JUMPDEST DUP2 DUP4 LT ISZERO PUSH2 0xA70 JUMPI DUP1 MLOAD DUP4 MSTORE PUSH1 0x20 DUP4 ADD SWAP3 POP PUSH1 0x20 DUP2 ADD SWAP1 POP PUSH2 0xA53 JUMP JUMPDEST POP DUP6 MLOAD SWAP3 POP DUP4 MLOAD DUP4 ADD DUP5 MSTORE DUP1 SWAP2 POP DUP3 DUP3 ADD SWAP1 POP PUSH1 0x20 DUP7 ADD JUMPDEST DUP2 DUP4 LT ISZERO PUSH2 0xAA5 JUMPI DUP1 MLOAD DUP4 MSTORE PUSH1 0x20 DUP4 ADD SWAP3 POP PUSH1 0x20 DUP2 ADD SWAP1 POP PUSH2 0xA88 JUMP JUMPDEST POP PUSH1 0x1F NOT PUSH1 0x1F DUP9 MLOAD DUP6 ADD ISZERO DUP4 ADD ADD AND PUSH1 0x40 MSTORE POP POP POP DUP1 SWAP2 POP POP SWAP3 SWAP2 POP POP JUMP JUMPDEST PUSH1 0x60 PUSH9 0x10000000000000000 DUP4 LT PUSH2 0xB44 JUMPI PUSH1 0x40 MLOAD PUSH32 0x8C379A000000000000000000000000000000000000000000000000000000000 DUP2 MSTORE PUSH1 0x4 ADD DUP1 DUP1 PUSH1 0x20 ADD DUP3 DUP2 SUB DUP3 MSTORE PUSH1 0xE DUP2 MSTORE PUSH1 0x20 ADD DUP1 PUSH32 0x696E70757420746F6F206C6F6E67000000000000000000000000000000000000 DUP2 MSTORE POP PUSH1 0x20 ADD SWAP2 POP POP PUSH1 0x40 MLOAD DUP1 SWAP2 SUB SWAP1 REVERT JUMPDEST PUSH1 0x60 PUSH1 0x1 PUSH1 0x40 MLOAD SWAP1 DUP1 DUP3 MSTORE DUP1 PUSH1 0x1F ADD PUSH1 0x1F NOT AND PUSH1 0x20 ADD DUP3 ADD PUSH1 0x40 MSTORE DUP1 ISZERO PUSH2 0xB7A JUMPI DUP2 PUSH1 0x20 ADD PUSH1 0x1 DUP3 MUL DUP1 CODESIZE DUP4 CODECOPY DUP1 DUP3 ADD SWAP2 POP POP SWAP1 POP JUMPDEST POP SWAP1 POP PUSH1 0x37 DUP5 GT PUSH2 0xBD0 JUMPI DUP3 DUP5 ADD PUSH1 0xF8 SHL DUP2 PUSH1 0x0 DUP2 MLOAD DUP2 LT PUSH2 0xB98 JUMPI INVALID JUMPDEST PUSH1 0x20 ADD ADD SWAP1 PUSH31 0xFFFFFFFFFFFFFFFFFFFFFFFFFFFFFFFFFFFFFFFFFFFFFFFFFFFFFFFFFFFFFF NOT AND SWAP1 DUP2 PUSH1 0x0 BYTE SWAP1 MSTORE8 POP DUP1 SWAP2 POP POP PUSH2 0xC32 JUMP JUMPDEST PUSH1 0x60 PUSH2 0xBDB DUP6 PUSH2 0x85B JUMP JUMPDEST SWAP1 POP PUSH1 0x37 DUP5 DUP3 MLOAD ADD ADD PUSH1 0xF8 SHL DUP3 PUSH1 0x0 DUP2 MLOAD DUP2 LT PUSH2 0xBF4 JUMPI INVALID JUMPDEST PUSH1 0x20 ADD ADD SWAP1 PUSH31 0xFFFFFFFFFFFFFFFFFFFFFFFFFFFFFFFFFFFFFFFFFFFFFFFFFFFFFFFFFFFFFF NOT AND SWAP1 DUP2 PUSH1 0x0 BYTE SWAP1 MSTORE8 POP PUSH2 0xC2D DUP3 DUP3 PUSH2 0xA3A JUMP JUMPDEST SWAP3 POP POP POP JUMPDEST SWAP3 SWAP2 POP POP JUMP JUMPDEST PUSH1 0x40 MLOAD DUP1 PUSH1 0x20 ADD PUSH1 0x40 MSTORE DUP1 PUSH1 0x0 PUSH4 0xFFFFFFFF AND DUP2 MSTORE POP SWAP1 JUMP JUMPDEST PUSH1 0x40 MLOAD DUP1 PUSH1 0x40 ADD PUSH1 0x40 MSTORE DUP1 PUSH2 0xC64 PUSH2 0xC8B JUMP JUMPDEST DUP2 MSTORE PUSH1 0x20 ADD PUSH1 0x0 DUP2 MSTORE POP SWAP1 JUMP JUMPDEST PUSH1 0x40 MLOAD DUP1 PUSH1 0x40 ADD PUSH1 0x40 MSTORE DUP1 PUSH1 0x0 DUP2 MSTORE PUSH1 0x20 ADD PUSH1 0x0 DUP2 MSTORE POP SWAP1 JUMP JUMPDEST PUSH1 0x40 MLOAD DUP1 PUSH1 0x40 ADD PUSH1 0x40 MSTORE DUP1 PUSH1 0x0 DUP2 MSTORE PUSH1 0x20 ADD PUSH1 0x0 DUP2 MSTORE POP SWAP1 JUMP INVALID LOG2 PUSH6 0x627A7A723158 KECCAK256 0xDC 0x22 0xCD PUSH10 0x64F0A82A9B5FFF201293 PUSH31 0xE124DC1799FDF65A23D951EE8A710E163164736F6C63430005100032000000 "
				},
				"gasEstimates": {
					"creation": {
						"codeDepositCost": "658000",
						"executionCost": "718",
						"totalCost": "658718"
					},
					"external": {
						"getDecodeCommonAckPackage(bytes)": "infinite",
						"getEncodeCommonAckPackage(uint32)": "infinite"
					},
					"internal": {
						"decodeCommonAckPackage(bytes memory)": "infinite",
						"encodeCommonAckPackage(uint32)": "infinite"
					}
				},
				"methodIdentifiers": {
					"getDecodeCommonAckPackage(bytes)": "02ee5a21",
					"getEncodeCommonAckPackage(uint32)": "aacc9bf8"
				}
			},
			"userdoc": {
				"methods": {}
			}
		}
	}
}