{
	"contracts/demo1.sol": {
		"Demo": {
			"abi": [
				{
					"inputs": [
						{
							"internalType": "uint256",
							"name": "_len",
							"type": "uint256"
						},
						{
							"internalType": "uint256",
							"name": "_menPtr",
							"type": "uint256"
						}
					],
					"stateMutability": "nonpayable",
					"type": "constructor"
				},
				{
					"inputs": [],
					"name": "rlpItem",
					"outputs": [
						{
							"internalType": "uint256",
							"name": "len",
							"type": "uint256"
						},
						{
							"internalType": "uint256",
							"name": "memPtr",
							"type": "uint256"
						}
					],
					"stateMutability": "view",
					"type": "function"
				}
			],
			"devdoc": {
				"author": "pouladzade@gmail.com",
				"details": "The SizeOf return the size of the solidity types in byte",
				"kind": "dev",
				"methods": {},
				"title": "SizeOf Copyright (c) 2016-2020 zpouladzade/Seriality",
				"version": 1
			},
			"evm": {
				"assembly": "    /* \"contracts/demo1.sol\":211:1137  contract Demo {\r... */\n  mstore(0x40, 0x80)\n    /* \"contracts/demo1.sol\":727:835  constructor(uint _len, uint _menPtr){\r... */\n  callvalue\n  dup1\n  iszero\n  tag_1\n  jumpi\n  0x00\n  dup1\n  revert\ntag_1:\n  pop\n  mload(0x40)\n  sub(codesize, bytecodeSize)\n  dup1\n  bytecodeSize\n  dup4\n  codecopy\n  dup2\n  dup2\n  add\n  0x40\n  mstore\n  dup2\n  add\n  swap1\n  tag_2\n  swap2\n  swap1\n  tag_3\n  jump\t// in\ntag_2:\n    /* \"contracts/demo1.sol\":788:792  _len */\n  dup2\n    /* \"contracts/demo1.sol\":774:781  rlpItem */\n  0x00\n    /* \"contracts/demo1.sol\":774:785  rlpItem.len */\n  dup1\n  add\n    /* \"contracts/demo1.sol\":774:792  rlpItem.len = _len */\n  dup2\n  swap1\n  sstore\n  pop\n    /* \"contracts/demo1.sol\":820:827  _menPtr */\n  dup1\n    /* \"contracts/demo1.sol\":803:810  rlpItem */\n  0x00\n    /* \"contracts/demo1.sol\":803:817  rlpItem.memPtr */\n  0x01\n  add\n    /* \"contracts/demo1.sol\":803:827  rlpItem.memPtr = _menPtr */\n  dup2\n  swap1\n  sstore\n  pop\n    /* \"contracts/demo1.sol\":727:835  constructor(uint _len, uint _menPtr){\r... */\n  pop\n  pop\n    /* \"contracts/demo1.sol\":211:1137  contract Demo {\r... */\n  jump(tag_6)\n    /* \"#utility.yul\":7:150   */\ntag_8:\n    /* \"#utility.yul\":64:69   */\n  0x00\n    /* \"#utility.yul\":95:101   */\n  dup2\n    /* \"#utility.yul\":89:102   */\n  mload\n    /* \"#utility.yul\":80:102   */\n  swap1\n  pop\n    /* \"#utility.yul\":111:144   */\n  tag_10\n    /* \"#utility.yul\":138:143   */\n  dup2\n    /* \"#utility.yul\":111:144   */\n  tag_11\n  jump\t// in\ntag_10:\n    /* \"#utility.yul\":7:150   */\n  swap3\n  swap2\n  pop\n  pop\n  jump\t// out\n    /* \"#utility.yul\":156:663   */\ntag_3:\n    /* \"#utility.yul\":235:241   */\n  0x00\n    /* \"#utility.yul\":243:249   */\n  dup1\n    /* \"#utility.yul\":292:294   */\n  0x40\n    /* \"#utility.yul\":280:289   */\n  dup4\n    /* \"#utility.yul\":271:278   */\n  dup6\n    /* \"#utility.yul\":267:290   */\n  sub\n    /* \"#utility.yul\":263:295   */\n  slt\n    /* \"#utility.yul\":260:379   */\n  iszero\n  tag_13\n  jumpi\n    /* \"#utility.yul\":298:377   */\n  tag_14\n  tag_15\n  jump\t// in\ntag_14:\n    /* \"#utility.yul\":260:379   */\ntag_13:\n    /* \"#utility.yul\":418:419   */\n  0x00\n    /* \"#utility.yul\":443:507   */\n  tag_16\n    /* \"#utility.yul\":499:506   */\n  dup6\n    /* \"#utility.yul\":490:496   */\n  dup3\n    /* \"#utility.yul\":479:488   */\n  dup7\n    /* \"#utility.yul\":475:497   */\n  add\n    /* \"#utility.yul\":443:507   */\n  tag_8\n  jump\t// in\ntag_16:\n    /* \"#utility.yul\":433:507   */\n  swap3\n  pop\n    /* \"#utility.yul\":389:517   */\n  pop\n    /* \"#utility.yul\":556:558   */\n  0x20\n    /* \"#utility.yul\":582:646   */\n  tag_17\n    /* \"#utility.yul\":638:645   */\n  dup6\n    /* \"#utility.yul\":629:635   */\n  dup3\n    /* \"#utility.yul\":618:627   */\n  dup7\n    /* \"#utility.yul\":614:636   */\n  add\n    /* \"#utility.yul\":582:646   */\n  tag_8\n  jump\t// in\ntag_17:\n    /* \"#utility.yul\":572:646   */\n  swap2\n  pop\n    /* \"#utility.yul\":527:656   */\n  pop\n    /* \"#utility.yul\":156:663   */\n  swap3\n  pop\n  swap3\n  swap1\n  pop\n  jump\t// out\n    /* \"#utility.yul\":750:827   */\ntag_20:\n    /* \"#utility.yul\":787:794   */\n  0x00\n    /* \"#utility.yul\":816:821   */\n  dup2\n    /* \"#utility.yul\":805:821   */\n  swap1\n  pop\n    /* \"#utility.yul\":750:827   */\n  swap2\n  swap1\n  pop\n  jump\t// out\n    /* \"#utility.yul\":956:1073   */\ntag_15:\n    /* \"#utility.yul\":1065:1066   */\n  0x00\n    /* \"#utility.yul\":1062:1063   */\n  dup1\n    /* \"#utility.yul\":1055:1067   */\n  revert\n    /* \"#utility.yul\":1079:1201   */\ntag_11:\n    /* \"#utility.yul\":1152:1176   */\n  tag_26\n    /* \"#utility.yul\":1170:1175   */\n  dup2\n    /* \"#utility.yul\":1152:1176   */\n  tag_20\n  jump\t// in\ntag_26:\n    /* \"#utility.yul\":1145:1150   */\n  dup2\n    /* \"#utility.yul\":1142:1177   */\n  eq\n    /* \"#utility.yul\":1132:1195   */\n  tag_27\n  jumpi\n    /* \"#utility.yul\":1191:1192   */\n  0x00\n    /* \"#utility.yul\":1188:1189   */\n  dup1\n    /* \"#utility.yul\":1181:1193   */\n  revert\n    /* \"#utility.yul\":1132:1195   */\ntag_27:\n    /* \"#utility.yul\":1079:1201   */\n  pop\n  jump\t// out\n    /* \"contracts/demo1.sol\":211:1137  contract Demo {\r... */\ntag_6:\n  dataSize(sub_0)\n  dup1\n  dataOffset(sub_0)\n  0x00\n  codecopy\n  0x00\n  return\nstop\n\nsub_0: assembly {\n        /* \"contracts/demo1.sol\":211:1137  contract Demo {\r... */\n      mstore(0x40, 0x80)\n      callvalue\n      dup1\n      iszero\n      tag_1\n      jumpi\n      0x00\n      dup1\n      revert\n    tag_1:\n      pop\n      jumpi(tag_2, lt(calldatasize, 0x04))\n      shr(0xe0, calldataload(0x00))\n      dup1\n      0xa699fb03\n      eq\n      tag_3\n      jumpi\n    tag_2:\n      0x00\n      dup1\n      revert\n        /* \"contracts/demo1.sol\":696:718  RLPItem public rlpItem */\n    tag_3:\n      tag_4\n      tag_5\n      jump\t// in\n    tag_4:\n      mload(0x40)\n      tag_6\n      swap3\n      swap2\n      swap1\n      tag_7\n      jump\t// in\n    tag_6:\n      mload(0x40)\n      dup1\n      swap2\n      sub\n      swap1\n      return\n    tag_5:\n      0x00\n      dup1\n      0x00\n      add\n      sload\n      swap1\n      dup1\n      0x01\n      add\n      sload\n      swap1\n      pop\n      dup3\n      jump\t// out\n        /* \"#utility.yul\":7:125   */\n    tag_9:\n        /* \"#utility.yul\":94:118   */\n      tag_11\n        /* \"#utility.yul\":112:117   */\n      dup2\n        /* \"#utility.yul\":94:118   */\n      tag_12\n      jump\t// in\n    tag_11:\n        /* \"#utility.yul\":89:92   */\n      dup3\n        /* \"#utility.yul\":82:119   */\n      mstore\n        /* \"#utility.yul\":7:125   */\n      pop\n      pop\n      jump\t// out\n        /* \"#utility.yul\":131:463   */\n    tag_7:\n        /* \"#utility.yul\":252:256   */\n      0x00\n        /* \"#utility.yul\":290:292   */\n      0x40\n        /* \"#utility.yul\":279:288   */\n      dup3\n        /* \"#utility.yul\":275:293   */\n      add\n        /* \"#utility.yul\":267:293   */\n      swap1\n      pop\n        /* \"#utility.yul\":303:374   */\n      tag_14\n        /* \"#utility.yul\":371:372   */\n      0x00\n        /* \"#utility.yul\":360:369   */\n      dup4\n        /* \"#utility.yul\":356:373   */\n      add\n        /* \"#utility.yul\":347:353   */\n      dup6\n        /* \"#utility.yul\":303:374   */\n      tag_9\n      jump\t// in\n    tag_14:\n        /* \"#utility.yul\":384:456   */\n      tag_15\n        /* \"#utility.yul\":452:454   */\n      0x20\n        /* \"#utility.yul\":441:450   */\n      dup4\n        /* \"#utility.yul\":437:455   */\n      add\n        /* \"#utility.yul\":428:434   */\n      dup5\n        /* \"#utility.yul\":384:456   */\n      tag_9\n      jump\t// in\n    tag_15:\n        /* \"#utility.yul\":131:463   */\n      swap4\n      swap3\n      pop\n      pop\n      pop\n      jump\t// out\n        /* \"#utility.yul\":469:546   */\n    tag_12:\n        /* \"#utility.yul\":506:513   */\n      0x00\n        /* \"#utility.yul\":535:540   */\n      dup2\n        /* \"#utility.yul\":524:540   */\n      swap1\n      pop\n        /* \"#utility.yul\":469:546   */\n      swap2\n      swap1\n      pop\n      jump\t// out\n\n    auxdata: 0xa2646970667358221220aa6e0422e667cdabbcb47b14dd3daac7c01509c6c439b628d905fb48d354667b64736f6c63430008070033\n}\n",
				"bytecode": {
					"linkReferences": {},
					"object": "608060405234801561001057600080fd5b506040516101a13803806101a183398181016040528101906100329190610061565b8160008001819055508060006001018190555050506100c7565b60008151905061005b816100b0565b92915050565b60008060408385031215610078576100776100ab565b5b60006100868582860161004c565b92505060206100978582860161004c565b9150509250929050565b6000819050919050565b600080fd5b6100b9816100a1565b81146100c457600080fd5b50565b60cc806100d56000396000f3fe6080604052348015600f57600080fd5b506004361060285760003560e01c8063a699fb0314602d575b600080fd5b60336048565b604051603f9291906067565b60405180910390f35b60008060000154908060010154905082565b606181608c565b82525050565b6000604082019050607a6000830185605a565b60856020830184605a565b9392505050565b600081905091905056fea2646970667358221220aa6e0422e667cdabbcb47b14dd3daac7c01509c6c439b628d905fb48d354667b64736f6c63430008070033",
					"opcodes": "PUSH1 0x80 PUSH1 0x40 MSTORE CALLVALUE DUP1 ISZERO PUSH2 0x10 JUMPI PUSH1 0x0 DUP1 REVERT JUMPDEST POP PUSH1 0x40 MLOAD PUSH2 0x1A1 CODESIZE SUB DUP1 PUSH2 0x1A1 DUP4 CODECOPY DUP2 DUP2 ADD PUSH1 0x40 MSTORE DUP2 ADD SWAP1 PUSH2 0x32 SWAP2 SWAP1 PUSH2 0x61 JUMP JUMPDEST DUP2 PUSH1 0x0 DUP1 ADD DUP2 SWAP1 SSTORE POP DUP1 PUSH1 0x0 PUSH1 0x1 ADD DUP2 SWAP1 SSTORE POP POP POP PUSH2 0xC7 JUMP JUMPDEST PUSH1 0x0 DUP2 MLOAD SWAP1 POP PUSH2 0x5B DUP2 PUSH2 0xB0 JUMP JUMPDEST SWAP3 SWAP2 POP POP JUMP JUMPDEST PUSH1 0x0 DUP1 PUSH1 0x40 DUP4 DUP6 SUB SLT ISZERO PUSH2 0x78 JUMPI PUSH2 0x77 PUSH2 0xAB JUMP JUMPDEST JUMPDEST PUSH1 0x0 PUSH2 0x86 DUP6 DUP3 DUP7 ADD PUSH2 0x4C JUMP JUMPDEST SWAP3 POP POP PUSH1 0x20 PUSH2 0x97 DUP6 DUP3 DUP7 ADD PUSH2 0x4C JUMP JUMPDEST SWAP2 POP POP SWAP3 POP SWAP3 SWAP1 POP JUMP JUMPDEST PUSH1 0x0 DUP2 SWAP1 POP SWAP2 SWAP1 POP JUMP JUMPDEST PUSH1 0x0 DUP1 REVERT JUMPDEST PUSH2 0xB9 DUP2 PUSH2 0xA1 JUMP JUMPDEST DUP2 EQ PUSH2 0xC4 JUMPI PUSH1 0x0 DUP1 REVERT JUMPDEST POP JUMP JUMPDEST PUSH1 0xCC DUP1 PUSH2 0xD5 PUSH1 0x0 CODECOPY PUSH1 0x0 RETURN INVALID PUSH1 0x80 PUSH1 0x40 MSTORE CALLVALUE DUP1 ISZERO PUSH1 0xF JUMPI PUSH1 0x0 DUP1 REVERT JUMPDEST POP PUSH1 0x4 CALLDATASIZE LT PUSH1 0x28 JUMPI PUSH1 0x0 CALLDATALOAD PUSH1 0xE0 SHR DUP1 PUSH4 0xA699FB03 EQ PUSH1 0x2D JUMPI JUMPDEST PUSH1 0x0 DUP1 REVERT JUMPDEST PUSH1 0x33 PUSH1 0x48 JUMP JUMPDEST PUSH1 0x40 MLOAD PUSH1 0x3F SWAP3 SWAP2 SWAP1 PUSH1 0x67 JUMP JUMPDEST PUSH1 0x40 MLOAD DUP1 SWAP2 SUB SWAP1 RETURN JUMPDEST PUSH1 0x0 DUP1 PUSH1 0x0 ADD SLOAD SWAP1 DUP1 PUSH1 0x1 ADD SLOAD SWAP1 POP DUP3 JUMP JUMPDEST PUSH1 0x61 DUP2 PUSH1 0x8C JUMP JUMPDEST DUP3 MSTORE POP POP JUMP JUMPDEST PUSH1 0x0 PUSH1 0x40 DUP3 ADD SWAP1 POP PUSH1 0x7A PUSH1 0x0 DUP4 ADD DUP6 PUSH1 0x5A JUMP JUMPDEST PUSH1 0x85 PUSH1 0x20 DUP4 ADD DUP5 PUSH1 0x5A JUMP JUMPDEST SWAP4 SWAP3 POP POP POP JUMP JUMPDEST PUSH1 0x0 DUP2 SWAP1 POP SWAP2 SWAP1 POP JUMP INVALID LOG2 PUSH5 0x6970667358 0x22 SLT KECCAK256 0xAA PUSH15 0x422E667CDABBCB47B14DD3DAAC7C0 ISZERO MULMOD 0xC6 0xC4 CODECOPY 0xB6 0x28 0xD9 SDIV 0xFB BASEFEE 0xD3 SLOAD PUSH7 0x7B64736F6C6343 STOP ADDMOD SMOD STOP CALLER "
				},
				"gasEstimates": {
					"creation": {
						"codeDepositCost": "40800",
						"executionCost": "infinite",
						"totalCost": "infinite"
					},
					"external": {
						"rlpItem()": "infinite"
					},
					"internal": {
						"toBoolean(struct Demo.RLPItem memory)": "infinite"
					}
				},
				"methodIdentifiers": {
					"rlpItem()": "a699fb03"
				}
			},
			"userdoc": {
				"kind": "user",
				"methods": {},
				"version": 1
			}
		}
	}
}