{
	"contracts/demo1.sol": {
		"Demo1": {
			"abi": [
				{
					"constant": true,
					"inputs": [
						{
							"internalType": "uint256",
							"name": "memPtr",
							"type": "uint256"
						}
					],
					"name": "getData",
					"outputs": [
						{
							"internalType": "uint256",
							"name": "",
							"type": "uint256"
						}
					],
					"payable": false,
					"stateMutability": "view",
					"type": "function"
				}
			],
			"devdoc": {
				"methods": {}
			},
			"evm": {
				"assembly": "    /* \"contracts/demo1.sol\":92:19724  contract Demo1{\r... */\n  mstore(0x40, 0x80)\n  callvalue\n    /* \"--CODEGEN--\":8:17   */\n  dup1\n    /* \"--CODEGEN--\":5:7   */\n  iszero\n  tag_1\n  jumpi\n    /* \"--CODEGEN--\":30:31   */\n  0x00\n    /* \"--CODEGEN--\":27:28   */\n  dup1\n    /* \"--CODEGEN--\":20:32   */\n  revert\n    /* \"--CODEGEN--\":5:7   */\ntag_1:\n    /* \"contracts/demo1.sol\":92:19724  contract Demo1{\r... */\n  pop\n  dataSize(sub_0)\n  dup1\n  dataOffset(sub_0)\n  0x00\n  codecopy\n  0x00\n  return\nstop\n\nsub_0: assembly {\n        /* \"contracts/demo1.sol\":92:19724  contract Demo1{\r... */\n      mstore(0x40, 0x80)\n      callvalue\n        /* \"--CODEGEN--\":8:17   */\n      dup1\n        /* \"--CODEGEN--\":5:7   */\n      iszero\n      tag_1\n      jumpi\n        /* \"--CODEGEN--\":30:31   */\n      0x00\n        /* \"--CODEGEN--\":27:28   */\n      dup1\n        /* \"--CODEGEN--\":20:32   */\n      revert\n        /* \"--CODEGEN--\":5:7   */\n    tag_1:\n        /* \"contracts/demo1.sol\":92:19724  contract Demo1{\r... */\n      pop\n      jumpi(tag_2, lt(calldatasize, 0x04))\n      shr(0xe0, calldataload(0x00))\n      dup1\n      0x0178fe3f\n      eq\n      tag_3\n      jumpi\n    tag_2:\n      0x00\n      dup1\n      revert\n        /* \"contracts/demo1.sol\":575:678  function getData(uint memPtr) public view returns(uint){\r... */\n    tag_3:\n      tag_4\n      0x04\n      dup1\n      calldatasize\n      sub\n        /* \"--CODEGEN--\":13:15   */\n      0x20\n        /* \"--CODEGEN--\":8:11   */\n      dup2\n        /* \"--CODEGEN--\":5:16   */\n      lt\n        /* \"--CODEGEN--\":2:4   */\n      iszero\n      tag_5\n      jumpi\n        /* \"--CODEGEN--\":29:30   */\n      0x00\n        /* \"--CODEGEN--\":26:27   */\n      dup1\n        /* \"--CODEGEN--\":19:31   */\n      revert\n        /* \"--CODEGEN--\":2:4   */\n    tag_5:\n        /* \"contracts/demo1.sol\":575:678  function getData(uint memPtr) public view returns(uint){\r... */\n      dup2\n      add\n      swap1\n      dup1\n      dup1\n      calldataload\n      swap1\n      0x20\n      add\n      swap1\n      swap3\n      swap2\n      swap1\n      pop\n      pop\n      pop\n      tag_6\n      jump\t// in\n    tag_4:\n      mload(0x40)\n      dup1\n      dup3\n      dup2\n      mstore\n      0x20\n      add\n      swap2\n      pop\n      pop\n      mload(0x40)\n      dup1\n      swap2\n      sub\n      swap1\n      return\n    tag_6:\n        /* \"contracts/demo1.sol\":625:629  uint */\n      0x00\n        /* \"contracts/demo1.sol\":648:670  _payloadOffset(memPtr) */\n      tag_8\n        /* \"contracts/demo1.sol\":663:669  memPtr */\n      dup3\n        /* \"contracts/demo1.sol\":648:662  _payloadOffset */\n      tag_9\n        /* \"contracts/demo1.sol\":648:670  _payloadOffset(memPtr) */\n      jump\t// in\n    tag_8:\n        /* \"contracts/demo1.sol\":641:670  return _payloadOffset(memPtr) */\n      swap1\n      pop\n        /* \"contracts/demo1.sol\":575:678  function getData(uint memPtr) public view returns(uint){\r... */\n      swap2\n      swap1\n      pop\n      jump\t// out\n        /* \"contracts/demo1.sol\":686:1282  function _payloadOffset(uint memPtr) private pure returns (uint) {\r... */\n    tag_9:\n        /* \"contracts/demo1.sol\":745:749  uint */\n      0x00\n        /* \"contracts/demo1.sol\":762:772  uint byte0 */\n      dup1\n        /* \"contracts/demo1.sol\":830:836  memPtr */\n      dup3\n        /* \"contracts/demo1.sol\":824:837  mload(memPtr) */\n      mload\n        /* \"contracts/demo1.sol\":821:822  0 */\n      0x00\n        /* \"contracts/demo1.sol\":816:838  byte(0, mload(memPtr)) */\n      byte\n        /* \"contracts/demo1.sol\":807:838  byte0 := byte(0, mload(memPtr)) */\n      swap1\n      pop\n        /* \"contracts/demo1.sol\":866:871  byte0 */\n      dup1\n        /* \"contracts/demo1.sol\":859:871  return byte0 */\n      swap2\n      pop\n      pop\n        /* \"contracts/demo1.sol\":686:1282  function _payloadOffset(uint memPtr) private pure returns (uint) {\r... */\n      swap2\n      swap1\n      pop\n      jump\t// out\n\n    auxdata: 0xa265627a7a72315820fa18c18f28786ebd4b26f7d57c0a9bc948030a016a3138c290eb94726c1c1be464736f6c63430005100032\n}\n",
				"bytecode": {
					"linkReferences": {},
					"object": "608060405234801561001057600080fd5b5060c48061001f6000396000f3fe6080604052348015600f57600080fd5b506004361060285760003560e01c80630178fe3f14602d575b600080fd5b605660048036036020811015604157600080fd5b8101908080359060200190929190505050606c565b6040518082815260200191505060405180910390f35b6000607582607c565b9050919050565b600080825160001a90508091505091905056fea265627a7a72315820fa18c18f28786ebd4b26f7d57c0a9bc948030a016a3138c290eb94726c1c1be464736f6c63430005100032",
					"opcodes": "PUSH1 0x80 PUSH1 0x40 MSTORE CALLVALUE DUP1 ISZERO PUSH2 0x10 JUMPI PUSH1 0x0 DUP1 REVERT JUMPDEST POP PUSH1 0xC4 DUP1 PUSH2 0x1F PUSH1 0x0 CODECOPY PUSH1 0x0 RETURN INVALID PUSH1 0x80 PUSH1 0x40 MSTORE CALLVALUE DUP1 ISZERO PUSH1 0xF JUMPI PUSH1 0x0 DUP1 REVERT JUMPDEST POP PUSH1 0x4 CALLDATASIZE LT PUSH1 0x28 JUMPI PUSH1 0x0 CALLDATALOAD PUSH1 0xE0 SHR DUP1 PUSH4 0x178FE3F EQ PUSH1 0x2D JUMPI JUMPDEST PUSH1 0x0 DUP1 REVERT JUMPDEST PUSH1 0x56 PUSH1 0x4 DUP1 CALLDATASIZE SUB PUSH1 0x20 DUP2 LT ISZERO PUSH1 0x41 JUMPI PUSH1 0x0 DUP1 REVERT JUMPDEST DUP2 ADD SWAP1 DUP1 DUP1 CALLDATALOAD SWAP1 PUSH1 0x20 ADD SWAP1 SWAP3 SWAP2 SWAP1 POP POP POP PUSH1 0x6C JUMP JUMPDEST PUSH1 0x40 MLOAD DUP1 DUP3 DUP2 MSTORE PUSH1 0x20 ADD SWAP2 POP POP PUSH1 0x40 MLOAD DUP1 SWAP2 SUB SWAP1 RETURN JUMPDEST PUSH1 0x0 PUSH1 0x75 DUP3 PUSH1 0x7C JUMP JUMPDEST SWAP1 POP SWAP2 SWAP1 POP JUMP JUMPDEST PUSH1 0x0 DUP1 DUP3 MLOAD PUSH1 0x0 BYTE SWAP1 POP DUP1 SWAP2 POP POP SWAP2 SWAP1 POP JUMP INVALID LOG2 PUSH6 0x627A7A723158 KECCAK256 STATICCALL XOR 0xC1 DUP16 0x28 PUSH25 0x6EBD4B26F7D57C0A9BC948030A016A3138C290EB94726C1C1B 0xE4 PUSH5 0x736F6C6343 STOP SDIV LT STOP ORIGIN "
				},
				"gasEstimates": {
					"creation": {
						"codeDepositCost": "39200",
						"executionCost": "93",
						"totalCost": "39293"
					},
					"external": {
						"getData(uint256)": "infinite"
					},
					"internal": {
						"_payloadOffset(uint256)": "infinite"
					}
				},
				"methodIdentifiers": {
					"getData(uint256)": "0178fe3f"
				}
			},
			"userdoc": {
				"methods": {}
			}
		}
	}
}