{
	"contracts/demo2.sol": {
		"demo2": {
			"abi": [
				{
					"inputs": [],
					"stateMutability": "nonpayable",
					"type": "constructor"
				},
				{
					"inputs": [],
					"name": "data1",
					"outputs": [
						{
							"internalType": "bytes",
							"name": "",
							"type": "bytes"
						}
					],
					"stateMutability": "view",
					"type": "function"
				},
				{
					"inputs": [],
					"name": "data2",
					"outputs": [
						{
							"internalType": "bytes32",
							"name": "",
							"type": "bytes32"
						}
					],
					"stateMutability": "view",
					"type": "function"
				},
				{
					"inputs": [],
					"name": "data3",
					"outputs": [
						{
							"internalType": "bytes",
							"name": "",
							"type": "bytes"
						}
					],
					"stateMutability": "view",
					"type": "function"
				},
				{
					"inputs": [
						{
							"internalType": "bytes",
							"name": "self",
							"type": "bytes"
						}
					],
					"name": "getDecodeData",
					"outputs": [
						{
							"components": [
								{
									"internalType": "uint256",
									"name": "len",
									"type": "uint256"
								},
								{
									"internalType": "uint256",
									"name": "memPtr",
									"type": "uint256"
								}
							],
							"internalType": "struct demo2.RLPItem",
							"name": "",
							"type": "tuple"
						}
					],
					"stateMutability": "view",
					"type": "function"
				},
				{
					"inputs": [],
					"name": "getEncodeData",
					"outputs": [
						{
							"internalType": "bytes",
							"name": "",
							"type": "bytes"
						}
					],
					"stateMutability": "view",
					"type": "function"
				},
				{
					"inputs": [],
					"name": "iterator",
					"outputs": [
						{
							"components": [
								{
									"internalType": "uint256",
									"name": "len",
									"type": "uint256"
								},
								{
									"internalType": "uint256",
									"name": "memPtr",
									"type": "uint256"
								}
							],
							"internalType": "struct demo2.RLPItem",
							"name": "item",
							"type": "tuple"
						},
						{
							"internalType": "uint256",
							"name": "nextPtr",
							"type": "uint256"
						}
					],
					"stateMutability": "view",
					"type": "function"
				},
				{
					"inputs": [],
					"name": "rlpItem",
					"outputs": [
						{
							"internalType": "uint256",
							"name": "len",
							"type": "uint256"
						},
						{
							"internalType": "uint256",
							"name": "memPtr",
							"type": "uint256"
						}
					],
					"stateMutability": "view",
					"type": "function"
				}
			],
			"devdoc": {
				"methods": {}
			},
			"evm": {
				"assembly": "    /* \"contracts/demo2.sol\":81:8860  contract demo2 {\r... */\n  mstore(0x40, 0x80)\n    /* \"contracts/demo2.sol\":107:176  bytes public data1 = \"NALEHHJSGDSDGHJSDHSUHDJSHDJSHJSHJSHDSJDHJONGVO\" */\n  mload(0x40)\n  dup1\n  0x60\n  add\n  0x40\n  mstore\n  dup1\n  0x2e\n  dup2\n  mstore\n  0x20\n  add\n  data_4887836e294a2761413359597244d307bbe3f94827f6160d9e1a399e00e2d1be\n  0x2e\n  swap2\n  codecopy\n  0x00\n  swap1\n  dup1\n  mload\n  swap1\n  0x20\n  add\n  swap1\n  tag_1\n  swap3\n  swap2\n  swap1\n  tag_2\n  jump\t// in\ntag_1:\n  pop\n    /* \"contracts/demo2.sol\":187:252  bytes public data3 = \"sdfNAsdfsdfLEHHJSGDSHDJSHJSHJSHDSJDHJONGVO\" */\n  mload(0x40)\n  dup1\n  0x60\n  add\n  0x40\n  mstore\n  dup1\n  0x2a\n  dup2\n  mstore\n  0x20\n  add\n  data_c359735a342ece061e65ab7390d246d1e53ba5f24eea70d6201f1d4a7b2f3475\n  0x2a\n  swap2\n  codecopy\n  0x01\n  swap1\n  dup1\n  mload\n  swap1\n  0x20\n  add\n  swap1\n  tag_3\n  swap3\n  swap2\n  swap1\n  tag_2\n  jump\t// in\ntag_3:\n  pop\n    /* \"contracts/demo2.sol\":263:310  bytes32 public data2 = \"LEHONGVOwjnfvj3weh8vKJ\" */\n  sstore(0x02, 0x4c45484f4e47564f776a6e66766a3377656838764b4a00000000000000000000)\n    /* \"contracts/demo2.sol\":999:1168  constructor() public {\r... */\n  callvalue\n    /* \"--CODEGEN--\":5:14   */\n  dup1\n    /* \"--CODEGEN--\":2:4   */\n  iszero\n  tag_4\n  jumpi\n    /* \"--CODEGEN--\":27:28   */\n  0x00\n    /* \"--CODEGEN--\":24:25   */\n  dup1\n    /* \"--CODEGEN--\":17:29   */\n  revert\n    /* \"--CODEGEN--\":2:4   */\ntag_4:\n    /* \"contracts/demo2.sol\":999:1168  constructor() public {\r... */\n  pop\n    /* \"contracts/demo2.sol\":1049:1050  6 */\n  0x06\n    /* \"contracts/demo2.sol\":1035:1042  rlpItem */\n  0x03\n    /* \"contracts/demo2.sol\":1035:1046  rlpItem.len */\n  0x00\n  add\n    /* \"contracts/demo2.sol\":1035:1050  rlpItem.len = 6 */\n  dup2\n  swap1\n  sstore\n  pop\n    /* \"contracts/demo2.sol\":1082:1083  2 */\n  0x02\n    /* \"contracts/demo2.sol\":1065:1072  rlpItem */\n  0x03\n    /* \"contracts/demo2.sol\":1065:1079  rlpItem.memPtr */\n  0x01\n  add\n    /* \"contracts/demo2.sol\":1065:1083  rlpItem.memPtr = 2 */\n  dup2\n  swap1\n  sstore\n  pop\n    /* \"contracts/demo2.sol\":1114:1121  rlpItem */\n  0x03\n    /* \"contracts/demo2.sol\":1098:1106  iterator */\n  0x05\n    /* \"contracts/demo2.sol\":1098:1111  iterator.item */\n  0x00\n  add\n    /* \"contracts/demo2.sol\":1098:1121  iterator.item = rlpItem */\n  0x00\n  dup3\n  add\n  sload\n  dup2\n  0x00\n  add\n  sstore\n  0x01\n  dup3\n  add\n  sload\n  dup2\n  0x01\n  add\n  sstore\n  swap1\n  pop\n  pop\n    /* \"contracts/demo2.sol\":1155:1156  4 */\n  0x04\n    /* \"contracts/demo2.sol\":1136:1144  iterator */\n  0x05\n    /* \"contracts/demo2.sol\":1136:1152  iterator.nextPtr */\n  0x02\n  add\n    /* \"contracts/demo2.sol\":1136:1156  iterator.nextPtr = 4 */\n  dup2\n  swap1\n  sstore\n  pop\n    /* \"contracts/demo2.sol\":81:8860  contract demo2 {\r... */\n  jump(tag_7)\ntag_2:\n  dup3\n  dup1\n  sload\n  0x01\n  dup2\n  0x01\n  and\n  iszero\n  0x0100\n  mul\n  sub\n  and\n  0x02\n  swap1\n  div\n  swap1\n  0x00\n  mstore\n  keccak256(0x00, 0x20)\n  swap1\n  0x1f\n  add\n  0x20\n  swap1\n  div\n  dup2\n  add\n  swap3\n  dup3\n  0x1f\n  lt\n  tag_9\n  jumpi\n  dup1\n  mload\n  not(0xff)\n  and\n  dup4\n  dup1\n  add\n  or\n  dup6\n  sstore\n  jump(tag_8)\ntag_9:\n  dup3\n  dup1\n  add\n  0x01\n  add\n  dup6\n  sstore\n  dup3\n  iszero\n  tag_8\n  jumpi\n  swap2\n  dup3\n  add\ntag_10:\n  dup3\n  dup2\n  gt\n  iszero\n  tag_11\n  jumpi\n  dup3\n  mload\n  dup3\n  sstore\n  swap2\n  0x20\n  add\n  swap2\n  swap1\n  0x01\n  add\n  swap1\n  jump(tag_10)\ntag_11:\ntag_8:\n  pop\n  swap1\n  pop\n  tag_12\n  swap2\n  swap1\n  tag_13\n  jump\t// in\ntag_12:\n  pop\n  swap1\n  jump\t// out\ntag_13:\n  tag_14\n  swap2\n  swap1\ntag_15:\n  dup1\n  dup3\n  gt\n  iszero\n  tag_16\n  jumpi\n  0x00\n  dup2\n  0x00\n  swap1\n  sstore\n  pop\n  0x01\n  add\n  jump(tag_15)\ntag_16:\n  pop\n  swap1\n  jump\ntag_14:\n  swap1\n  jump\t// out\ntag_7:\n  dataSize(sub_0)\n  dup1\n  dataOffset(sub_0)\n  0x00\n  codecopy\n  0x00\n  return\nstop\ndata_4887836e294a2761413359597244d307bbe3f94827f6160d9e1a399e00e2d1be 4e414c4548484a534744534447484a534448535548444a5348444a53484a53484a534844534a44484a4f4e47564f\ndata_c359735a342ece061e65ab7390d246d1e53ba5f24eea70d6201f1d4a7b2f3475 7364664e417364667364664c4548484a5347445348444a53484a53484a534844534a44484a4f4e47564f\n\nsub_0: assembly {\n        /* \"contracts/demo2.sol\":81:8860  contract demo2 {\r... */\n      mstore(0x40, 0x80)\n      callvalue\n        /* \"--CODEGEN--\":5:14   */\n      dup1\n        /* \"--CODEGEN--\":2:4   */\n      iszero\n      tag_1\n      jumpi\n        /* \"--CODEGEN--\":27:28   */\n      0x00\n        /* \"--CODEGEN--\":24:25   */\n      dup1\n        /* \"--CODEGEN--\":17:29   */\n      revert\n        /* \"--CODEGEN--\":2:4   */\n    tag_1:\n        /* \"contracts/demo2.sol\":81:8860  contract demo2 {\r... */\n      pop\n      jumpi(tag_2, lt(calldatasize, 0x04))\n      shr(0xe0, calldataload(0x00))\n      dup1\n      0xe3a7fd75\n      gt\n      tag_10\n      jumpi\n      dup1\n      0xe3a7fd75\n      eq\n      tag_6\n      jumpi\n      dup1\n      0xeaacd81e\n      eq\n      tag_7\n      jumpi\n      dup1\n      0xfc26b0ab\n      eq\n      tag_8\n      jumpi\n      dup1\n      0xfddcc148\n      eq\n      tag_9\n      jumpi\n      jump(tag_2)\n    tag_10:\n      dup1\n      0x2ed5fb83\n      eq\n      tag_3\n      jumpi\n      dup1\n      0x9ffd85c4\n      eq\n      tag_4\n      jumpi\n      dup1\n      0xa699fb03\n      eq\n      tag_5\n      jumpi\n    tag_2:\n        /* \"--CODEGEN--\":12:13   */\n      0x00\n        /* \"--CODEGEN--\":9:10   */\n      dup1\n        /* \"--CODEGEN--\":2:14   */\n      revert\n        /* \"contracts/demo2.sol\":1197:1324  function getDecodeData(bytes memory self) public view returns(RLPItem memory) {\r... */\n    tag_3:\n      tag_11\n      0x04\n      dup1\n      calldatasize\n      sub\n      dup2\n      add\n      swap1\n      tag_12\n      swap2\n      swap1\n      jump(tag_13)\n    tag_12:\n      tag_14\n      jump\t// in\n    tag_11:\n      mload(0x40)\n      tag_15\n      swap2\n      swap1\n      jump(tag_16)\n    tag_15:\n      mload(0x40)\n      dup1\n      swap2\n      sub\n      swap1\n      return\n        /* \"contracts/demo2.sol\":107:176  bytes public data1 = \"NALEHHJSGDSDGHJSDHSUHDJSHDJSHJSHJSHDSJDHJONGVO\" */\n    tag_4:\n      tag_17\n      tag_18\n      jump\t// in\n    tag_17:\n      mload(0x40)\n      tag_19\n      swap2\n      swap1\n      jump(tag_20)\n    tag_19:\n      mload(0x40)\n      dup1\n      swap2\n      sub\n      swap1\n      return\n        /* \"contracts/demo2.sol\":929:951  RLPItem public rlpItem */\n    tag_5:\n      tag_21\n      tag_22\n      jump\t// in\n    tag_21:\n      mload(0x40)\n      tag_23\n      swap3\n      swap2\n      swap1\n      jump(tag_24)\n    tag_23:\n      mload(0x40)\n      dup1\n      swap2\n      sub\n      swap1\n      return\n        /* \"contracts/demo2.sol\":263:310  bytes32 public data2 = \"LEHONGVOwjnfvj3weh8vKJ\" */\n    tag_6:\n      tag_25\n      tag_26\n      jump\t// in\n    tag_25:\n      mload(0x40)\n      tag_27\n      swap2\n      swap1\n      jump(tag_28)\n    tag_27:\n      mload(0x40)\n      dup1\n      swap2\n      sub\n      swap1\n      return\n        /* \"contracts/demo2.sol\":1336:1445  function getEncodeData() public view returns(bytes memory) {\r... */\n    tag_7:\n      tag_29\n      tag_30\n      jump\t// in\n    tag_29:\n      mload(0x40)\n      tag_31\n      swap2\n      swap1\n      jump(tag_32)\n    tag_31:\n      mload(0x40)\n      dup1\n      swap2\n      sub\n      swap1\n      return\n        /* \"contracts/demo2.sol\":187:252  bytes public data3 = \"sdfNAsdfsdfLEHHJSGDSHDJSHJSHJSHDSJDHJONGVO\" */\n    tag_8:\n      tag_33\n      tag_34\n      jump\t// in\n    tag_33:\n      mload(0x40)\n      tag_35\n      swap2\n      swap1\n      jump(tag_20)\n    tag_35:\n      mload(0x40)\n      dup1\n      swap2\n      sub\n      swap1\n      return\n        /* \"contracts/demo2.sol\":962:986  Iterator public iterator */\n    tag_9:\n      tag_36\n      tag_37\n      jump\t// in\n    tag_36:\n      mload(0x40)\n      tag_38\n      swap3\n      swap2\n      swap1\n      jump(tag_39)\n    tag_38:\n      mload(0x40)\n      dup1\n      swap2\n      sub\n      swap1\n      return\n        /* \"contracts/demo2.sol\":1197:1324  function getDecodeData(bytes memory self) public view returns(RLPItem memory) {\r... */\n    tag_14:\n        /* \"contracts/demo2.sol\":1259:1273  RLPItem memory */\n      tag_40\n      tag_41\n      jump\t// in\n    tag_40:\n        /* \"contracts/demo2.sol\":1297:1312  toRLPItem(self) */\n      tag_43\n        /* \"contracts/demo2.sol\":1307:1311  self */\n      dup3\n        /* \"contracts/demo2.sol\":1297:1306  toRLPItem */\n      tag_44\n        /* \"contracts/demo2.sol\":1297:1312  toRLPItem(self) */\n      jump\t// in\n    tag_43:\n        /* \"contracts/demo2.sol\":1290:1312  return toRLPItem(self) */\n      swap1\n      pop\n        /* \"contracts/demo2.sol\":1197:1324  function getDecodeData(bytes memory self) public view returns(RLPItem memory) {\r... */\n      swap2\n      swap1\n      pop\n      jump\t// out\n        /* \"contracts/demo2.sol\":107:176  bytes public data1 = \"NALEHHJSGDSDGHJSDHSUHDJSHDJSHJSHJSHDSJDHJONGVO\" */\n    tag_18:\n      0x00\n      dup1\n      sload\n      0x01\n      dup2\n      0x01\n      and\n      iszero\n      0x0100\n      mul\n      sub\n      and\n      0x02\n      swap1\n      div\n      dup1\n      0x1f\n      add\n      0x20\n      dup1\n      swap2\n      div\n      mul\n      0x20\n      add\n      mload(0x40)\n      swap1\n      dup2\n      add\n      0x40\n      mstore\n      dup1\n      swap3\n      swap2\n      swap1\n      dup2\n      dup2\n      mstore\n      0x20\n      add\n      dup3\n      dup1\n      sload\n      0x01\n      dup2\n      0x01\n      and\n      iszero\n      0x0100\n      mul\n      sub\n      and\n      0x02\n      swap1\n      div\n      dup1\n      iszero\n      tag_45\n      jumpi\n      dup1\n      0x1f\n      lt\n      tag_46\n      jumpi\n      0x0100\n      dup1\n      dup4\n      sload\n      div\n      mul\n      dup4\n      mstore\n      swap2\n      0x20\n      add\n      swap2\n      jump(tag_45)\n    tag_46:\n      dup3\n      add\n      swap2\n      swap1\n      0x00\n      mstore\n      keccak256(0x00, 0x20)\n      swap1\n    tag_47:\n      dup2\n      sload\n      dup2\n      mstore\n      swap1\n      0x01\n      add\n      swap1\n      0x20\n      add\n      dup1\n      dup4\n      gt\n      tag_47\n      jumpi\n      dup3\n      swap1\n      sub\n      0x1f\n      and\n      dup3\n      add\n      swap2\n    tag_45:\n      pop\n      pop\n      pop\n      pop\n      pop\n      dup2\n      jump\t// out\n        /* \"contracts/demo2.sol\":929:951  RLPItem public rlpItem */\n    tag_22:\n      0x03\n      dup1\n      0x00\n      add\n      sload\n      swap1\n      dup1\n      0x01\n      add\n      sload\n      swap1\n      pop\n      dup3\n      jump\t// out\n        /* \"contracts/demo2.sol\":263:310  bytes32 public data2 = \"LEHONGVOwjnfvj3weh8vKJ\" */\n    tag_26:\n      sload(0x02)\n      dup2\n      jump\t// out\n        /* \"contracts/demo2.sol\":1336:1445  function getEncodeData() public view returns(bytes memory) {\r... */\n    tag_30:\n        /* \"contracts/demo2.sol\":1381:1393  bytes memory */\n      0x60\n        /* \"contracts/demo2.sol\":1417:1433  toBytes(rlpItem) */\n      tag_49\n        /* \"contracts/demo2.sol\":1425:1432  rlpItem */\n      0x03\n        /* \"contracts/demo2.sol\":1417:1433  toBytes(rlpItem) */\n      mload(0x40)\n      dup1\n      0x40\n      add\n      0x40\n      mstore\n      swap1\n      dup2\n      0x00\n      dup3\n      add\n      sload\n      dup2\n      mstore\n      0x20\n      add\n      0x01\n      dup3\n      add\n      sload\n      dup2\n      mstore\n      pop\n      pop\n        /* \"contracts/demo2.sol\":1417:1424  toBytes */\n      tag_50\n        /* \"contracts/demo2.sol\":1417:1433  toBytes(rlpItem) */\n      jump\t// in\n    tag_49:\n        /* \"contracts/demo2.sol\":1410:1433  return toBytes(rlpItem) */\n      swap1\n      pop\n        /* \"contracts/demo2.sol\":1336:1445  function getEncodeData() public view returns(bytes memory) {\r... */\n      swap1\n      jump\t// out\n        /* \"contracts/demo2.sol\":187:252  bytes public data3 = \"sdfNAsdfsdfLEHHJSGDSHDJSHJSHJSHDSJDHJONGVO\" */\n    tag_34:\n      0x01\n      dup1\n      sload\n      0x01\n      dup2\n      0x01\n      and\n      iszero\n      0x0100\n      mul\n      sub\n      and\n      0x02\n      swap1\n      div\n      dup1\n      0x1f\n      add\n      0x20\n      dup1\n      swap2\n      div\n      mul\n      0x20\n      add\n      mload(0x40)\n      swap1\n      dup2\n      add\n      0x40\n      mstore\n      dup1\n      swap3\n      swap2\n      swap1\n      dup2\n      dup2\n      mstore\n      0x20\n      add\n      dup3\n      dup1\n      sload\n      0x01\n      dup2\n      0x01\n      and\n      iszero\n      0x0100\n      mul\n      sub\n      and\n      0x02\n      swap1\n      div\n      dup1\n      iszero\n      tag_51\n      jumpi\n      dup1\n      0x1f\n      lt\n      tag_52\n      jumpi\n      0x0100\n      dup1\n      dup4\n      sload\n      div\n      mul\n      dup4\n      mstore\n      swap2\n      0x20\n      add\n      swap2\n      jump(tag_51)\n    tag_52:\n      dup3\n      add\n      swap2\n      swap1\n      0x00\n      mstore\n      keccak256(0x00, 0x20)\n      swap1\n    tag_53:\n      dup2\n      sload\n      dup2\n      mstore\n      swap1\n      0x01\n      add\n      swap1\n      0x20\n      add\n      dup1\n      dup4\n      gt\n      tag_53\n      jumpi\n      dup3\n      swap1\n      sub\n      0x1f\n      and\n      dup3\n      add\n      swap2\n    tag_51:\n      pop\n      pop\n      pop\n      pop\n      pop\n      dup2\n      jump\t// out\n        /* \"contracts/demo2.sol\":962:986  Iterator public iterator */\n    tag_37:\n      0x05\n      dup1\n      0x00\n      add\n      mload(0x40)\n      dup1\n      0x40\n      add\n      0x40\n      mstore\n      swap1\n      dup2\n      0x00\n      dup3\n      add\n      sload\n      dup2\n      mstore\n      0x20\n      add\n      0x01\n      dup3\n      add\n      sload\n      dup2\n      mstore\n      pop\n      pop\n      swap1\n      dup1\n      0x02\n      add\n      sload\n      swap1\n      pop\n      dup3\n      jump\t// out\n        /* \"contracts/demo2.sol\":1457:1706  function toRLPItem(bytes memory self) internal pure returns (RLPItem memory) {\r... */\n    tag_44:\n        /* \"contracts/demo2.sol\":1518:1532  RLPItem memory */\n      tag_54\n      tag_41\n      jump\t// in\n    tag_54:\n        /* \"contracts/demo2.sol\":1549:1560  uint memPtr */\n      0x00\n        /* \"contracts/demo2.sol\":1623:1627  0x20 */\n      0x20\n        /* \"contracts/demo2.sol\":1617:1621  self */\n      dup4\n        /* \"contracts/demo2.sol\":1613:1628  add(self, 0x20) */\n      add\n        /* \"contracts/demo2.sol\":1603:1628  memPtr := add(self, 0x20) */\n      swap1\n      pop\n        /* \"contracts/demo2.sol\":1666:1694  RLPItem(self.length, memPtr) */\n      mload(0x40)\n      dup1\n      0x40\n      add\n      0x40\n      mstore\n      dup1\n        /* \"contracts/demo2.sol\":1674:1678  self */\n      dup5\n        /* \"contracts/demo2.sol\":1674:1685  self.length */\n      mload\n        /* \"contracts/demo2.sol\":1666:1694  RLPItem(self.length, memPtr) */\n      dup2\n      mstore\n      0x20\n      add\n        /* \"contracts/demo2.sol\":1687:1693  memPtr */\n      dup3\n        /* \"contracts/demo2.sol\":1666:1694  RLPItem(self.length, memPtr) */\n      dup2\n      mstore\n      pop\n        /* \"contracts/demo2.sol\":1659:1694  return RLPItem(self.length, memPtr) */\n      swap2\n      pop\n      pop\n        /* \"contracts/demo2.sol\":1457:1706  function toRLPItem(bytes memory self) internal pure returns (RLPItem memory) {\r... */\n      swap2\n      swap1\n      pop\n      jump\t// out\n        /* \"contracts/demo2.sol\":1718:2207  function toBytes(RLPItem memory item) internal pure returns (bytes memory) {\r... */\n    tag_50:\n        /* \"contracts/demo2.sol\":1779:1791  bytes memory */\n      0x60\n        /* \"contracts/demo2.sol\":1827:1828  0 */\n      0x00\n        /* \"contracts/demo2.sol\":1816:1820  item */\n      dup3\n        /* \"contracts/demo2.sol\":1816:1824  item.len */\n      0x00\n      add\n      mload\n        /* \"contracts/demo2.sol\":1816:1828  item.len > 0 */\n      gt\n        /* \"contracts/demo2.sol\":1808:1829  require(item.len > 0) */\n      tag_57\n      jumpi\n        /* \"--CODEGEN--\":12:13   */\n      0x00\n        /* \"--CODEGEN--\":9:10   */\n      dup1\n        /* \"--CODEGEN--\":2:14   */\n      revert\n        /* \"contracts/demo2.sol\":1808:1829  require(item.len > 0) */\n    tag_57:\n        /* \"contracts/demo2.sol\":1846:1857  uint offset */\n      0x00\n        /* \"contracts/demo2.sol\":1860:1887  _payloadOffset(item.memPtr) */\n      tag_58\n        /* \"contracts/demo2.sol\":1875:1879  item */\n      dup4\n        /* \"contracts/demo2.sol\":1875:1886  item.memPtr */\n      0x20\n      add\n      mload\n        /* \"contracts/demo2.sol\":1860:1874  _payloadOffset */\n      tag_59\n        /* \"contracts/demo2.sol\":1860:1887  _payloadOffset(item.memPtr) */\n      jump\t// in\n    tag_58:\n        /* \"contracts/demo2.sol\":1846:1887  uint offset = _payloadOffset(item.memPtr) */\n      swap1\n      pop\n        /* \"contracts/demo2.sol\":1902:1910  uint len */\n      0x00\n        /* \"contracts/demo2.sol\":1924:1930  offset */\n      dup2\n        /* \"contracts/demo2.sol\":1913:1917  item */\n      dup5\n        /* \"contracts/demo2.sol\":1913:1921  item.len */\n      0x00\n      add\n      mload\n        /* \"contracts/demo2.sol\":1913:1930  item.len - offset */\n      sub\n        /* \"contracts/demo2.sol\":1902:1930  uint len = item.len - offset */\n      swap1\n      pop\n        /* \"contracts/demo2.sol\":1960:1979  bytes memory result */\n      0x60\n        /* \"contracts/demo2.sol\":1992:1995  len */\n      dup2\n        /* \"contracts/demo2.sol\":1982:1996  new bytes(len) */\n      mload(0x40)\n      swap1\n      dup1\n      dup3\n      mstore\n      dup1\n      0x1f\n      add\n      not(0x1f)\n      and\n      0x20\n      add\n      dup3\n      add\n      0x40\n      mstore\n      dup1\n      iszero\n      tag_60\n      jumpi\n      dup2\n      0x20\n      add\n        /* \"--CODEGEN--\":29:30   */\n      0x01\n        /* \"--CODEGEN--\":21:27   */\n      dup3\n        /* \"--CODEGEN--\":17:31   */\n      mul\n        /* \"--CODEGEN--\":124:128   */\n      dup1\n        /* \"--CODEGEN--\":108:122   */\n      calldatasize\n        /* \"--CODEGEN--\":100:106   */\n      dup4\n        /* \"--CODEGEN--\":87:129   */\n      calldatacopy\n        /* \"--CODEGEN--\":155:159   */\n      dup1\n        /* \"--CODEGEN--\":147:153   */\n      dup3\n        /* \"--CODEGEN--\":143:160   */\n      add\n        /* \"--CODEGEN--\":133:160   */\n      swap2\n      pop\n        /* \"--CODEGEN--\":0:164   */\n      pop\n        /* \"contracts/demo2.sol\":1982:1996  new bytes(len) */\n      swap1\n      pop\n    tag_60:\n      pop\n        /* \"contracts/demo2.sol\":1960:1996  bytes memory result = new bytes(len) */\n      swap1\n      pop\n        /* \"contracts/demo2.sol\":2013:2025  uint destPtr */\n      0x00\n        /* \"contracts/demo2.sol\":2089:2095  result */\n      dup2\n        /* \"contracts/demo2.sol\":2083:2087  0x20 */\n      0x20\n        /* \"contracts/demo2.sol\":2079:2096  add(0x20, result) */\n      add\n        /* \"contracts/demo2.sol\":2068:2096  destPtr := add(0x20, result) */\n      swap1\n      pop\n        /* \"contracts/demo2.sol\":2127:2167  copy(item.memPtr + offset, destPtr, len) */\n      tag_61\n        /* \"contracts/demo2.sol\":2146:2152  offset */\n      dup5\n        /* \"contracts/demo2.sol\":2132:2136  item */\n      dup8\n        /* \"contracts/demo2.sol\":2132:2143  item.memPtr */\n      0x20\n      add\n      mload\n        /* \"contracts/demo2.sol\":2132:2152  item.memPtr + offset */\n      add\n        /* \"contracts/demo2.sol\":2154:2161  destPtr */\n      dup3\n        /* \"contracts/demo2.sol\":2163:2166  len */\n      dup6\n        /* \"contracts/demo2.sol\":2127:2131  copy */\n      tag_62\n        /* \"contracts/demo2.sol\":2127:2167  copy(item.memPtr + offset, destPtr, len) */\n      jump\t// in\n    tag_61:\n        /* \"contracts/demo2.sol\":2189:2195  result */\n      dup2\n        /* \"contracts/demo2.sol\":2182:2195  return result */\n      swap5\n      pop\n      pop\n      pop\n      pop\n      pop\n        /* \"contracts/demo2.sol\":1718:2207  function toBytes(RLPItem memory item) internal pure returns (bytes memory) {\r... */\n      swap2\n      swap1\n      pop\n      jump\t// out\n        /* \"contracts/demo2.sol\":7452:8055  function _payloadOffset(uint memPtr) private pure returns (uint) {\r... */\n    tag_59:\n        /* \"contracts/demo2.sol\":7511:7515  uint */\n      0x00\n        /* \"contracts/demo2.sol\":7532:7542  uint byte0 */\n      dup1\n        /* \"contracts/demo2.sol\":7608:7614  memPtr */\n      dup3\n        /* \"contracts/demo2.sol\":7602:7615  mload(memPtr) */\n      mload\n        /* \"contracts/demo2.sol\":7599:7600  0 */\n      0x00\n        /* \"contracts/demo2.sol\":7594:7616  byte(0, mload(memPtr)) */\n      byte\n        /* \"contracts/demo2.sol\":7585:7616  byte0 := byte(0, mload(memPtr)) */\n      swap1\n      pop\n        /* \"contracts/demo2.sol\":447:451  0x80 */\n      0x80\n        /* \"contracts/demo2.sol\":7651:7677  byte0 < STRING_SHORT_START */\n      0xff\n      and\n        /* \"contracts/demo2.sol\":7651:7656  byte0 */\n      dup2\n        /* \"contracts/demo2.sol\":7651:7677  byte0 < STRING_SHORT_START */\n      lt\n        /* \"contracts/demo2.sol\":7647:8043  if (byte0 < STRING_SHORT_START)\r... */\n      iszero\n      tag_64\n      jumpi\n        /* \"contracts/demo2.sol\":7703:7704  0 */\n      0x00\n        /* \"contracts/demo2.sol\":7696:7704  return 0 */\n      swap2\n      pop\n      pop\n      jump(tag_63)\n        /* \"contracts/demo2.sol\":7647:8043  if (byte0 < STRING_SHORT_START)\r... */\n    tag_64:\n        /* \"contracts/demo2.sol\":498:502  0xb8 */\n      0xb8\n        /* \"contracts/demo2.sol\":7728:7753  byte0 < STRING_LONG_START */\n      0xff\n      and\n        /* \"contracts/demo2.sol\":7728:7733  byte0 */\n      dup2\n        /* \"contracts/demo2.sol\":7728:7753  byte0 < STRING_LONG_START */\n      lt\n        /* \"contracts/demo2.sol\":7728:7811  byte0 < STRING_LONG_START || (byte0 >= LIST_SHORT_START && byte0 < LIST_LONG_START) */\n      dup1\n      tag_66\n      jumpi\n      pop\n        /* \"contracts/demo2.sol\":549:553  0xc0 */\n      0xc0\n        /* \"contracts/demo2.sol\":7758:7783  byte0 >= LIST_SHORT_START */\n      0xff\n      and\n        /* \"contracts/demo2.sol\":7758:7763  byte0 */\n      dup2\n        /* \"contracts/demo2.sol\":7758:7783  byte0 >= LIST_SHORT_START */\n      lt\n      iszero\n        /* \"contracts/demo2.sol\":7758:7810  byte0 >= LIST_SHORT_START && byte0 < LIST_LONG_START */\n      dup1\n      iszero\n      tag_67\n      jumpi\n      pop\n        /* \"contracts/demo2.sol\":600:604  0xf8 */\n      0xf8\n        /* \"contracts/demo2.sol\":7787:7810  byte0 < LIST_LONG_START */\n      0xff\n      and\n        /* \"contracts/demo2.sol\":7787:7792  byte0 */\n      dup2\n        /* \"contracts/demo2.sol\":7787:7810  byte0 < LIST_LONG_START */\n      lt\n        /* \"contracts/demo2.sol\":7758:7810  byte0 >= LIST_SHORT_START && byte0 < LIST_LONG_START */\n    tag_67:\n        /* \"contracts/demo2.sol\":7728:7811  byte0 < STRING_LONG_START || (byte0 >= LIST_SHORT_START && byte0 < LIST_LONG_START) */\n    tag_66:\n        /* \"contracts/demo2.sol\":7724:8043  if (byte0 < STRING_LONG_START || (byte0 >= LIST_SHORT_START && byte0 < LIST_LONG_START))\r... */\n      iszero\n      tag_68\n      jumpi\n        /* \"contracts/demo2.sol\":7837:7838  1 */\n      0x01\n        /* \"contracts/demo2.sol\":7830:7838  return 1 */\n      swap2\n      pop\n      pop\n      jump(tag_63)\n        /* \"contracts/demo2.sol\":7724:8043  if (byte0 < STRING_LONG_START || (byte0 >= LIST_SHORT_START && byte0 < LIST_LONG_START))\r... */\n    tag_68:\n        /* \"contracts/demo2.sol\":549:553  0xc0 */\n      0xc0\n        /* \"contracts/demo2.sol\":7862:7886  byte0 < LIST_SHORT_START */\n      0xff\n      and\n        /* \"contracts/demo2.sol\":7862:7867  byte0 */\n      dup2\n        /* \"contracts/demo2.sol\":7862:7886  byte0 < LIST_SHORT_START */\n      lt\n        /* \"contracts/demo2.sol\":7858:8043  if (byte0 < LIST_SHORT_START)  // being explicit\r... */\n      iszero\n      tag_70\n      jumpi\n        /* \"contracts/demo2.sol\":7965:7966  1 */\n      0x01\n        /* \"contracts/demo2.sol\":7960:7961  1 */\n      dup1\n        /* \"contracts/demo2.sol\":498:502  0xb8 */\n      0xb8\n        /* \"contracts/demo2.sol\":7940:7961  STRING_LONG_START - 1 */\n      sub\n        /* \"contracts/demo2.sol\":7931:7962  byte0 - (STRING_LONG_START - 1) */\n      0xff\n      and\n        /* \"contracts/demo2.sol\":7931:7936  byte0 */\n      dup3\n        /* \"contracts/demo2.sol\":7931:7962  byte0 - (STRING_LONG_START - 1) */\n      sub\n        /* \"contracts/demo2.sol\":7931:7966  byte0 - (STRING_LONG_START - 1) + 1 */\n      add\n        /* \"contracts/demo2.sol\":7924:7966  return byte0 - (STRING_LONG_START - 1) + 1 */\n      swap2\n      pop\n      pop\n      jump(tag_63)\n        /* \"contracts/demo2.sol\":7858:8043  if (byte0 < LIST_SHORT_START)  // being explicit\r... */\n    tag_70:\n        /* \"contracts/demo2.sol\":8042:8043  1 */\n      0x01\n        /* \"contracts/demo2.sol\":8037:8038  1 */\n      dup1\n        /* \"contracts/demo2.sol\":600:604  0xf8 */\n      0xf8\n        /* \"contracts/demo2.sol\":8019:8038  LIST_LONG_START - 1 */\n      sub\n        /* \"contracts/demo2.sol\":8010:8039  byte0 - (LIST_LONG_START - 1) */\n      0xff\n      and\n        /* \"contracts/demo2.sol\":8010:8015  byte0 */\n      dup3\n        /* \"contracts/demo2.sol\":8010:8039  byte0 - (LIST_LONG_START - 1) */\n      sub\n        /* \"contracts/demo2.sol\":8010:8043  byte0 - (LIST_LONG_START - 1) + 1 */\n      add\n        /* \"contracts/demo2.sol\":8003:8043  return byte0 - (LIST_LONG_START - 1) + 1 */\n      swap2\n      pop\n      pop\n        /* \"contracts/demo2.sol\":7452:8055  function _payloadOffset(uint memPtr) private pure returns (uint) {\r... */\n    tag_63:\n      swap2\n      swap1\n      pop\n      jump\t// out\n        /* \"contracts/demo2.sol\":8068:8853  function copy(uint src, uint dest, uint len) private pure {\r... */\n    tag_62:\n        /* \"contracts/demo2.sol\":8152:8153  0 */\n      0x00\n        /* \"contracts/demo2.sol\":8145:8148  len */\n      dup2\n        /* \"contracts/demo2.sol\":8145:8153  len == 0 */\n      eq\n        /* \"contracts/demo2.sol\":8141:8162  if (len == 0) return; */\n      iszero\n      tag_73\n      jumpi\n        /* \"contracts/demo2.sol\":8155:8162  return; */\n      jump(tag_72)\n        /* \"contracts/demo2.sol\":8141:8162  if (len == 0) return; */\n    tag_73:\n        /* \"contracts/demo2.sol\":8230:8455  for (; len >= WORD_SIZE; len -= WORD_SIZE) {\r... */\n    tag_74:\n        /* \"contracts/demo2.sol\":642:644  32 */\n      0x20\n        /* \"contracts/demo2.sol\":8237:8253  len >= WORD_SIZE */\n      0xff\n      and\n        /* \"contracts/demo2.sol\":8237:8240  len */\n      dup2\n        /* \"contracts/demo2.sol\":8237:8253  len >= WORD_SIZE */\n      lt\n        /* \"contracts/demo2.sol\":8230:8455  for (; len >= WORD_SIZE; len -= WORD_SIZE) {\r... */\n      tag_75\n      jumpi\n        /* \"contracts/demo2.sol\":8343:8346  src */\n      dup3\n        /* \"contracts/demo2.sol\":8337:8347  mload(src) */\n      mload\n        /* \"contracts/demo2.sol\":8331:8335  dest */\n      dup3\n        /* \"contracts/demo2.sol\":8324:8348  mstore(dest, mload(src)) */\n      mstore\n        /* \"contracts/demo2.sol\":642:644  32 */\n      0x20\n        /* \"contracts/demo2.sol\":8387:8403  src += WORD_SIZE */\n      0xff\n      and\n      dup4\n      add\n      swap3\n      pop\n        /* \"contracts/demo2.sol\":642:644  32 */\n      0x20\n        /* \"contracts/demo2.sol\":8422:8439  dest += WORD_SIZE */\n      0xff\n      and\n      dup3\n      add\n      swap2\n      pop\n        /* \"contracts/demo2.sol\":642:644  32 */\n      0x20\n        /* \"contracts/demo2.sol\":8255:8271  len -= WORD_SIZE */\n      0xff\n      and\n      dup2\n      sub\n      swap1\n      pop\n        /* \"contracts/demo2.sol\":8230:8455  for (; len >= WORD_SIZE; len -= WORD_SIZE) {\r... */\n      jump(tag_74)\n    tag_75:\n        /* \"contracts/demo2.sol\":8556:8565  uint mask */\n      0x00\n        /* \"contracts/demo2.sol\":8595:8596  1 */\n      0x01\n        /* \"contracts/demo2.sol\":8588:8591  len */\n      dup3\n        /* \"contracts/demo2.sol\":642:644  32 */\n      0x20\n        /* \"contracts/demo2.sol\":8576:8591  WORD_SIZE - len */\n      0xff\n      and\n      sub\n        /* \"contracts/demo2.sol\":8568:8571  256 */\n      0x0100\n        /* \"contracts/demo2.sol\":8568:8592  256 ** (WORD_SIZE - len) */\n      exp\n        /* \"contracts/demo2.sol\":8568:8596  256 ** (WORD_SIZE - len) - 1 */\n      sub\n        /* \"contracts/demo2.sol\":8556:8596  uint mask = 256 ** (WORD_SIZE - len) - 1 */\n      swap1\n      pop\n        /* \"contracts/demo2.sol\":8674:8678  mask */\n      dup1\n        /* \"contracts/demo2.sol\":8670:8679  not(mask) */\n      not\n        /* \"contracts/demo2.sol\":8664:8667  src */\n      dup5\n        /* \"contracts/demo2.sol\":8658:8668  mload(src) */\n      mload\n        /* \"contracts/demo2.sol\":8654:8680  and(mload(src), not(mask)) */\n      and\n        /* \"contracts/demo2.sol\":8747:8751  mask */\n      dup2\n        /* \"contracts/demo2.sol\":8740:8744  dest */\n      dup5\n        /* \"contracts/demo2.sol\":8734:8745  mload(dest) */\n      mload\n        /* \"contracts/demo2.sol\":8730:8752  and(mload(dest), mask) */\n      and\n        /* \"contracts/demo2.sol\":8818:8825  srcpart */\n      dup2\n        /* \"contracts/demo2.sol\":8808:8816  destpart */\n      dup2\n        /* \"contracts/demo2.sol\":8805:8826  or(destpart, srcpart) */\n      or\n        /* \"contracts/demo2.sol\":8799:8803  dest */\n      dup6\n        /* \"contracts/demo2.sol\":8792:8827  mstore(dest, or(destpart, srcpart)) */\n      mstore\n        /* \"contracts/demo2.sol\":8620:8842  {\r... */\n      pop\n      pop\n      pop\n    tag_72:\n      pop\n      pop\n      pop\n      jump\t// out\n        /* \"contracts/demo2.sol\":81:8860  contract demo2 {\r... */\n    tag_41:\n      mload(0x40)\n      dup1\n      0x40\n      add\n      0x40\n      mstore\n      dup1\n      0x00\n      dup2\n      mstore\n      0x20\n      add\n      0x00\n      dup2\n      mstore\n      pop\n      swap1\n      jump\t// out\n        /* \"--CODEGEN--\":6:446   */\n    tag_78:\n      0x00\n        /* \"--CODEGEN--\":107:110   */\n      dup3\n        /* \"--CODEGEN--\":100:104   */\n      0x1f\n        /* \"--CODEGEN--\":92:98   */\n      dup4\n        /* \"--CODEGEN--\":88:105   */\n      add\n        /* \"--CODEGEN--\":84:111   */\n      slt\n        /* \"--CODEGEN--\":74:76   */\n      tag_80\n      jumpi\n        /* \"--CODEGEN--\":125:126   */\n      0x00\n        /* \"--CODEGEN--\":122:123   */\n      dup1\n        /* \"--CODEGEN--\":115:127   */\n      revert\n        /* \"--CODEGEN--\":74:76   */\n    tag_80:\n        /* \"--CODEGEN--\":162:168   */\n      dup2\n        /* \"--CODEGEN--\":149:169   */\n      calldataload\n        /* \"--CODEGEN--\":184:248   */\n      tag_81\n        /* \"--CODEGEN--\":199:247   */\n      tag_82\n        /* \"--CODEGEN--\":240:246   */\n      dup3\n        /* \"--CODEGEN--\":199:247   */\n      jump(tag_83)\n    tag_82:\n        /* \"--CODEGEN--\":184:248   */\n      jump(tag_84)\n    tag_81:\n        /* \"--CODEGEN--\":175:248   */\n      swap2\n      pop\n        /* \"--CODEGEN--\":268:274   */\n      dup1\n        /* \"--CODEGEN--\":261:266   */\n      dup3\n        /* \"--CODEGEN--\":254:275   */\n      mstore\n        /* \"--CODEGEN--\":304:308   */\n      0x20\n        /* \"--CODEGEN--\":296:302   */\n      dup4\n        /* \"--CODEGEN--\":292:309   */\n      add\n        /* \"--CODEGEN--\":337:341   */\n      0x20\n        /* \"--CODEGEN--\":330:335   */\n      dup4\n        /* \"--CODEGEN--\":326:342   */\n      add\n        /* \"--CODEGEN--\":372:375   */\n      dup6\n        /* \"--CODEGEN--\":363:369   */\n      dup4\n        /* \"--CODEGEN--\":358:361   */\n      dup4\n        /* \"--CODEGEN--\":354:370   */\n      add\n        /* \"--CODEGEN--\":351:376   */\n      gt\n        /* \"--CODEGEN--\":348:350   */\n      iszero\n      tag_85\n      jumpi\n        /* \"--CODEGEN--\":389:390   */\n      0x00\n        /* \"--CODEGEN--\":386:387   */\n      dup1\n        /* \"--CODEGEN--\":379:391   */\n      revert\n        /* \"--CODEGEN--\":348:350   */\n    tag_85:\n        /* \"--CODEGEN--\":399:440   */\n      tag_86\n        /* \"--CODEGEN--\":433:439   */\n      dup4\n        /* \"--CODEGEN--\":428:431   */\n      dup3\n        /* \"--CODEGEN--\":423:426   */\n      dup5\n        /* \"--CODEGEN--\":399:440   */\n      jump(tag_87)\n    tag_86:\n        /* \"--CODEGEN--\":67:446   */\n      pop\n      pop\n      pop\n      swap3\n      swap2\n      pop\n      pop\n      jump\n        /* \"--CODEGEN--\":454:799   */\n    tag_13:\n      0x00\n        /* \"--CODEGEN--\":567:569   */\n      0x20\n        /* \"--CODEGEN--\":555:564   */\n      dup3\n        /* \"--CODEGEN--\":546:553   */\n      dup5\n        /* \"--CODEGEN--\":542:565   */\n      sub\n        /* \"--CODEGEN--\":538:570   */\n      slt\n        /* \"--CODEGEN--\":535:537   */\n      iszero\n      tag_89\n      jumpi\n        /* \"--CODEGEN--\":583:584   */\n      0x00\n        /* \"--CODEGEN--\":580:581   */\n      dup1\n        /* \"--CODEGEN--\":573:585   */\n      revert\n        /* \"--CODEGEN--\":535:537   */\n    tag_89:\n        /* \"--CODEGEN--\":646:647   */\n      0x00\n        /* \"--CODEGEN--\":635:644   */\n      dup3\n        /* \"--CODEGEN--\":631:648   */\n      add\n        /* \"--CODEGEN--\":618:649   */\n      calldataload\n        /* \"--CODEGEN--\":669:687   */\n      0xffffffffffffffff\n        /* \"--CODEGEN--\":661:667   */\n      dup2\n        /* \"--CODEGEN--\":658:688   */\n      gt\n        /* \"--CODEGEN--\":655:657   */\n      iszero\n      tag_90\n      jumpi\n        /* \"--CODEGEN--\":701:702   */\n      0x00\n        /* \"--CODEGEN--\":698:699   */\n      dup1\n        /* \"--CODEGEN--\":691:703   */\n      revert\n        /* \"--CODEGEN--\":655:657   */\n    tag_90:\n        /* \"--CODEGEN--\":721:783   */\n      tag_91\n        /* \"--CODEGEN--\":775:782   */\n      dup5\n        /* \"--CODEGEN--\":766:772   */\n      dup3\n        /* \"--CODEGEN--\":755:764   */\n      dup6\n        /* \"--CODEGEN--\":751:773   */\n      add\n        /* \"--CODEGEN--\":721:783   */\n      jump(tag_78)\n    tag_91:\n        /* \"--CODEGEN--\":711:783   */\n      swap2\n      pop\n        /* \"--CODEGEN--\":597:789   */\n      pop\n        /* \"--CODEGEN--\":529:799   */\n      swap3\n      swap2\n      pop\n      pop\n      jump\n        /* \"--CODEGEN--\":806:919   */\n    tag_92:\n        /* \"--CODEGEN--\":889:913   */\n      tag_94\n        /* \"--CODEGEN--\":907:912   */\n      dup2\n        /* \"--CODEGEN--\":889:913   */\n      jump(tag_95)\n    tag_94:\n        /* \"--CODEGEN--\":884:887   */\n      dup3\n        /* \"--CODEGEN--\":877:914   */\n      mstore\n        /* \"--CODEGEN--\":871:919   */\n      pop\n      pop\n      jump\n        /* \"--CODEGEN--\":926:1269   */\n    tag_96:\n      0x00\n        /* \"--CODEGEN--\":1036:1074   */\n      tag_98\n        /* \"--CODEGEN--\":1068:1073   */\n      dup3\n        /* \"--CODEGEN--\":1036:1074   */\n      jump(tag_99)\n    tag_98:\n        /* \"--CODEGEN--\":1086:1156   */\n      tag_100\n        /* \"--CODEGEN--\":1149:1155   */\n      dup2\n        /* \"--CODEGEN--\":1144:1147   */\n      dup6\n        /* \"--CODEGEN--\":1086:1156   */\n      jump(tag_101)\n    tag_100:\n        /* \"--CODEGEN--\":1079:1156   */\n      swap4\n      pop\n        /* \"--CODEGEN--\":1161:1213   */\n      tag_102\n        /* \"--CODEGEN--\":1206:1212   */\n      dup2\n        /* \"--CODEGEN--\":1201:1204   */\n      dup6\n        /* \"--CODEGEN--\":1194:1198   */\n      0x20\n        /* \"--CODEGEN--\":1187:1192   */\n      dup7\n        /* \"--CODEGEN--\":1183:1199   */\n      add\n        /* \"--CODEGEN--\":1161:1213   */\n      jump(tag_103)\n    tag_102:\n        /* \"--CODEGEN--\":1234:1263   */\n      tag_104\n        /* \"--CODEGEN--\":1256:1262   */\n      dup2\n        /* \"--CODEGEN--\":1234:1263   */\n      jump(tag_105)\n    tag_104:\n        /* \"--CODEGEN--\":1229:1232   */\n      dup5\n        /* \"--CODEGEN--\":1225:1264   */\n      add\n        /* \"--CODEGEN--\":1218:1264   */\n      swap2\n      pop\n        /* \"--CODEGEN--\":1016:1269   */\n      pop\n      swap3\n      swap2\n      pop\n      pop\n      jump\n        /* \"--CODEGEN--\":1276:1611   */\n    tag_106:\n      0x00\n        /* \"--CODEGEN--\":1382:1416   */\n      tag_108\n        /* \"--CODEGEN--\":1410:1415   */\n      dup3\n        /* \"--CODEGEN--\":1382:1416   */\n      jump(tag_109)\n    tag_108:\n        /* \"--CODEGEN--\":1428:1498   */\n      tag_110\n        /* \"--CODEGEN--\":1491:1497   */\n      dup2\n        /* \"--CODEGEN--\":1486:1489   */\n      dup6\n        /* \"--CODEGEN--\":1428:1498   */\n      jump(tag_101)\n    tag_110:\n        /* \"--CODEGEN--\":1421:1498   */\n      swap4\n      pop\n        /* \"--CODEGEN--\":1503:1555   */\n      tag_111\n        /* \"--CODEGEN--\":1548:1554   */\n      dup2\n        /* \"--CODEGEN--\":1543:1546   */\n      dup6\n        /* \"--CODEGEN--\":1536:1540   */\n      0x20\n        /* \"--CODEGEN--\":1529:1534   */\n      dup7\n        /* \"--CODEGEN--\":1525:1541   */\n      add\n        /* \"--CODEGEN--\":1503:1555   */\n      jump(tag_103)\n    tag_111:\n        /* \"--CODEGEN--\":1576:1605   */\n      tag_112\n        /* \"--CODEGEN--\":1598:1604   */\n      dup2\n        /* \"--CODEGEN--\":1576:1605   */\n      jump(tag_105)\n    tag_112:\n        /* \"--CODEGEN--\":1571:1574   */\n      dup5\n        /* \"--CODEGEN--\":1567:1606   */\n      add\n        /* \"--CODEGEN--\":1560:1606   */\n      swap2\n      pop\n        /* \"--CODEGEN--\":1362:1611   */\n      pop\n      swap3\n      swap2\n      pop\n      pop\n      jump\n        /* \"--CODEGEN--\":1669:2142   */\n    tag_113:\n        /* \"--CODEGEN--\":1808:1812   */\n      0x40\n        /* \"--CODEGEN--\":1803:1806   */\n      dup3\n        /* \"--CODEGEN--\":1799:1813   */\n      add\n        /* \"--CODEGEN--\":1890:1894   */\n      0x00\n        /* \"--CODEGEN--\":1883:1888   */\n      dup3\n        /* \"--CODEGEN--\":1879:1895   */\n      add\n        /* \"--CODEGEN--\":1873:1896   */\n      mload\n        /* \"--CODEGEN--\":1902:1965   */\n      tag_115\n        /* \"--CODEGEN--\":1959:1963   */\n      0x00\n        /* \"--CODEGEN--\":1954:1957   */\n      dup6\n        /* \"--CODEGEN--\":1950:1964   */\n      add\n        /* \"--CODEGEN--\":1936:1948   */\n      dup3\n        /* \"--CODEGEN--\":1902:1965   */\n      jump(tag_116)\n    tag_115:\n        /* \"--CODEGEN--\":1828:1971   */\n      pop\n        /* \"--CODEGEN--\":2046:2050   */\n      0x20\n        /* \"--CODEGEN--\":2039:2044   */\n      dup3\n        /* \"--CODEGEN--\":2035:2051   */\n      add\n        /* \"--CODEGEN--\":2029:2052   */\n      mload\n        /* \"--CODEGEN--\":2058:2121   */\n      tag_117\n        /* \"--CODEGEN--\":2115:2119   */\n      0x20\n        /* \"--CODEGEN--\":2110:2113   */\n      dup6\n        /* \"--CODEGEN--\":2106:2120   */\n      add\n        /* \"--CODEGEN--\":2092:2104   */\n      dup3\n        /* \"--CODEGEN--\":2058:2121   */\n      jump(tag_116)\n    tag_117:\n        /* \"--CODEGEN--\":1981:2127   */\n      pop\n        /* \"--CODEGEN--\":1781:2142   */\n      pop\n      pop\n      pop\n      jump\n        /* \"--CODEGEN--\":2200:2669   */\n    tag_118:\n        /* \"--CODEGEN--\":2335:2339   */\n      0x40\n        /* \"--CODEGEN--\":2330:2333   */\n      dup3\n        /* \"--CODEGEN--\":2326:2340   */\n      add\n        /* \"--CODEGEN--\":2417:2421   */\n      0x00\n        /* \"--CODEGEN--\":2410:2415   */\n      dup3\n        /* \"--CODEGEN--\":2406:2422   */\n      add\n        /* \"--CODEGEN--\":2400:2423   */\n      mload\n        /* \"--CODEGEN--\":2429:2492   */\n      tag_120\n        /* \"--CODEGEN--\":2486:2490   */\n      0x00\n        /* \"--CODEGEN--\":2481:2484   */\n      dup6\n        /* \"--CODEGEN--\":2477:2491   */\n      add\n        /* \"--CODEGEN--\":2463:2475   */\n      dup3\n        /* \"--CODEGEN--\":2429:2492   */\n      jump(tag_116)\n    tag_120:\n        /* \"--CODEGEN--\":2355:2498   */\n      pop\n        /* \"--CODEGEN--\":2573:2577   */\n      0x20\n        /* \"--CODEGEN--\":2566:2571   */\n      dup3\n        /* \"--CODEGEN--\":2562:2578   */\n      add\n        /* \"--CODEGEN--\":2556:2579   */\n      mload\n        /* \"--CODEGEN--\":2585:2648   */\n      tag_121\n        /* \"--CODEGEN--\":2642:2646   */\n      0x20\n        /* \"--CODEGEN--\":2637:2640   */\n      dup6\n        /* \"--CODEGEN--\":2633:2647   */\n      add\n        /* \"--CODEGEN--\":2619:2631   */\n      dup3\n        /* \"--CODEGEN--\":2585:2648   */\n      jump(tag_116)\n    tag_121:\n        /* \"--CODEGEN--\":2508:2654   */\n      pop\n        /* \"--CODEGEN--\":2308:2669   */\n      pop\n      pop\n      pop\n      jump\n        /* \"--CODEGEN--\":2676:2779   */\n    tag_116:\n        /* \"--CODEGEN--\":2749:2773   */\n      tag_123\n        /* \"--CODEGEN--\":2767:2772   */\n      dup2\n        /* \"--CODEGEN--\":2749:2773   */\n      jump(tag_124)\n    tag_123:\n        /* \"--CODEGEN--\":2744:2747   */\n      dup3\n        /* \"--CODEGEN--\":2737:2774   */\n      mstore\n        /* \"--CODEGEN--\":2731:2779   */\n      pop\n      pop\n      jump\n        /* \"--CODEGEN--\":2786:2899   */\n    tag_125:\n        /* \"--CODEGEN--\":2869:2893   */\n      tag_127\n        /* \"--CODEGEN--\":2887:2892   */\n      dup2\n        /* \"--CODEGEN--\":2869:2893   */\n      jump(tag_124)\n    tag_127:\n        /* \"--CODEGEN--\":2864:2867   */\n      dup3\n        /* \"--CODEGEN--\":2857:2894   */\n      mstore\n        /* \"--CODEGEN--\":2851:2899   */\n      pop\n      pop\n      jump\n        /* \"--CODEGEN--\":2906:3119   */\n    tag_28:\n      0x00\n        /* \"--CODEGEN--\":3024:3026   */\n      0x20\n        /* \"--CODEGEN--\":3013:3022   */\n      dup3\n        /* \"--CODEGEN--\":3009:3027   */\n      add\n        /* \"--CODEGEN--\":3001:3027   */\n      swap1\n      pop\n        /* \"--CODEGEN--\":3038:3109   */\n      tag_129\n        /* \"--CODEGEN--\":3106:3107   */\n      0x00\n        /* \"--CODEGEN--\":3095:3104   */\n      dup4\n        /* \"--CODEGEN--\":3091:3108   */\n      add\n        /* \"--CODEGEN--\":3082:3088   */\n      dup5\n        /* \"--CODEGEN--\":3038:3109   */\n      jump(tag_92)\n    tag_129:\n        /* \"--CODEGEN--\":2995:3119   */\n      swap3\n      swap2\n      pop\n      pop\n      jump\n        /* \"--CODEGEN--\":3126:3415   */\n    tag_20:\n      0x00\n        /* \"--CODEGEN--\":3258:3260   */\n      0x20\n        /* \"--CODEGEN--\":3247:3256   */\n      dup3\n        /* \"--CODEGEN--\":3243:3261   */\n      add\n        /* \"--CODEGEN--\":3235:3261   */\n      swap1\n      pop\n        /* \"--CODEGEN--\":3308:3317   */\n      dup2\n        /* \"--CODEGEN--\":3302:3306   */\n      dup2\n        /* \"--CODEGEN--\":3298:3318   */\n      sub\n        /* \"--CODEGEN--\":3294:3295   */\n      0x00\n        /* \"--CODEGEN--\":3283:3292   */\n      dup4\n        /* \"--CODEGEN--\":3279:3296   */\n      add\n        /* \"--CODEGEN--\":3272:3319   */\n      mstore\n        /* \"--CODEGEN--\":3333:3405   */\n      tag_131\n        /* \"--CODEGEN--\":3400:3404   */\n      dup2\n        /* \"--CODEGEN--\":3391:3397   */\n      dup5\n        /* \"--CODEGEN--\":3333:3405   */\n      jump(tag_106)\n    tag_131:\n        /* \"--CODEGEN--\":3325:3405   */\n      swap1\n      pop\n        /* \"--CODEGEN--\":3229:3415   */\n      swap3\n      swap2\n      pop\n      pop\n      jump\n        /* \"--CODEGEN--\":3422:3719   */\n    tag_32:\n      0x00\n        /* \"--CODEGEN--\":3558:3560   */\n      0x20\n        /* \"--CODEGEN--\":3547:3556   */\n      dup3\n        /* \"--CODEGEN--\":3543:3561   */\n      add\n        /* \"--CODEGEN--\":3535:3561   */\n      swap1\n      pop\n        /* \"--CODEGEN--\":3608:3617   */\n      dup2\n        /* \"--CODEGEN--\":3602:3606   */\n      dup2\n        /* \"--CODEGEN--\":3598:3618   */\n      sub\n        /* \"--CODEGEN--\":3594:3595   */\n      0x00\n        /* \"--CODEGEN--\":3583:3592   */\n      dup4\n        /* \"--CODEGEN--\":3579:3596   */\n      add\n        /* \"--CODEGEN--\":3572:3619   */\n      mstore\n        /* \"--CODEGEN--\":3633:3709   */\n      tag_133\n        /* \"--CODEGEN--\":3704:3708   */\n      dup2\n        /* \"--CODEGEN--\":3695:3701   */\n      dup5\n        /* \"--CODEGEN--\":3633:3709   */\n      jump(tag_96)\n    tag_133:\n        /* \"--CODEGEN--\":3625:3709   */\n      swap1\n      pop\n        /* \"--CODEGEN--\":3529:3719   */\n      swap3\n      swap2\n      pop\n      pop\n      jump\n        /* \"--CODEGEN--\":3726:4031   */\n    tag_16:\n      0x00\n        /* \"--CODEGEN--\":3890:3892   */\n      0x40\n        /* \"--CODEGEN--\":3879:3888   */\n      dup3\n        /* \"--CODEGEN--\":3875:3893   */\n      add\n        /* \"--CODEGEN--\":3867:3893   */\n      swap1\n      pop\n        /* \"--CODEGEN--\":3904:4021   */\n      tag_135\n        /* \"--CODEGEN--\":4018:4019   */\n      0x00\n        /* \"--CODEGEN--\":4007:4016   */\n      dup4\n        /* \"--CODEGEN--\":4003:4020   */\n      add\n        /* \"--CODEGEN--\":3994:4000   */\n      dup5\n        /* \"--CODEGEN--\":3904:4021   */\n      jump(tag_113)\n    tag_135:\n        /* \"--CODEGEN--\":3861:4031   */\n      swap3\n      swap2\n      pop\n      pop\n      jump\n        /* \"--CODEGEN--\":4038:4446   */\n    tag_39:\n      0x00\n        /* \"--CODEGEN--\":4226:4228   */\n      0x60\n        /* \"--CODEGEN--\":4215:4224   */\n      dup3\n        /* \"--CODEGEN--\":4211:4229   */\n      add\n        /* \"--CODEGEN--\":4203:4229   */\n      swap1\n      pop\n        /* \"--CODEGEN--\":4240:4353   */\n      tag_137\n        /* \"--CODEGEN--\":4350:4351   */\n      0x00\n        /* \"--CODEGEN--\":4339:4348   */\n      dup4\n        /* \"--CODEGEN--\":4335:4352   */\n      add\n        /* \"--CODEGEN--\":4326:4332   */\n      dup6\n        /* \"--CODEGEN--\":4240:4353   */\n      jump(tag_118)\n    tag_137:\n        /* \"--CODEGEN--\":4364:4436   */\n      tag_138\n        /* \"--CODEGEN--\":4432:4434   */\n      0x40\n        /* \"--CODEGEN--\":4421:4430   */\n      dup4\n        /* \"--CODEGEN--\":4417:4435   */\n      add\n        /* \"--CODEGEN--\":4408:4414   */\n      dup5\n        /* \"--CODEGEN--\":4364:4436   */\n      jump(tag_125)\n    tag_138:\n        /* \"--CODEGEN--\":4197:4446   */\n      swap4\n      swap3\n      pop\n      pop\n      pop\n      jump\n        /* \"--CODEGEN--\":4453:4777   */\n    tag_24:\n      0x00\n        /* \"--CODEGEN--\":4599:4601   */\n      0x40\n        /* \"--CODEGEN--\":4588:4597   */\n      dup3\n        /* \"--CODEGEN--\":4584:4602   */\n      add\n        /* \"--CODEGEN--\":4576:4602   */\n      swap1\n      pop\n        /* \"--CODEGEN--\":4613:4684   */\n      tag_140\n        /* \"--CODEGEN--\":4681:4682   */\n      0x00\n        /* \"--CODEGEN--\":4670:4679   */\n      dup4\n        /* \"--CODEGEN--\":4666:4683   */\n      add\n        /* \"--CODEGEN--\":4657:4663   */\n      dup6\n        /* \"--CODEGEN--\":4613:4684   */\n      jump(tag_125)\n    tag_140:\n        /* \"--CODEGEN--\":4695:4767   */\n      tag_141\n        /* \"--CODEGEN--\":4763:4765   */\n      0x20\n        /* \"--CODEGEN--\":4752:4761   */\n      dup4\n        /* \"--CODEGEN--\":4748:4766   */\n      add\n        /* \"--CODEGEN--\":4739:4745   */\n      dup5\n        /* \"--CODEGEN--\":4695:4767   */\n      jump(tag_125)\n    tag_141:\n        /* \"--CODEGEN--\":4570:4777   */\n      swap4\n      swap3\n      pop\n      pop\n      pop\n      jump\n        /* \"--CODEGEN--\":4784:5040   */\n    tag_84:\n      0x00\n        /* \"--CODEGEN--\":4846:4848   */\n      0x40\n        /* \"--CODEGEN--\":4840:4849   */\n      mload\n        /* \"--CODEGEN--\":4830:4849   */\n      swap1\n      pop\n        /* \"--CODEGEN--\":4884:4888   */\n      dup2\n        /* \"--CODEGEN--\":4876:4882   */\n      dup2\n        /* \"--CODEGEN--\":4872:4889   */\n      add\n        /* \"--CODEGEN--\":4983:4989   */\n      dup2\n        /* \"--CODEGEN--\":4971:4981   */\n      dup2\n        /* \"--CODEGEN--\":4968:4990   */\n      lt\n        /* \"--CODEGEN--\":4947:4965   */\n      0xffffffffffffffff\n        /* \"--CODEGEN--\":4935:4945   */\n      dup3\n        /* \"--CODEGEN--\":4932:4966   */\n      gt\n        /* \"--CODEGEN--\":4929:4991   */\n      or\n        /* \"--CODEGEN--\":4926:4928   */\n      iszero\n      tag_143\n      jumpi\n        /* \"--CODEGEN--\":5004:5005   */\n      0x00\n        /* \"--CODEGEN--\":5001:5002   */\n      dup1\n        /* \"--CODEGEN--\":4994:5006   */\n      revert\n        /* \"--CODEGEN--\":4926:4928   */\n    tag_143:\n        /* \"--CODEGEN--\":5024:5034   */\n      dup1\n        /* \"--CODEGEN--\":5020:5022   */\n      0x40\n        /* \"--CODEGEN--\":5013:5035   */\n      mstore\n        /* \"--CODEGEN--\":4824:5040   */\n      pop\n      swap2\n      swap1\n      pop\n      jump\n        /* \"--CODEGEN--\":5047:5368   */\n    tag_83:\n      0x00\n        /* \"--CODEGEN--\":5190:5208   */\n      0xffffffffffffffff\n        /* \"--CODEGEN--\":5182:5188   */\n      dup3\n        /* \"--CODEGEN--\":5179:5209   */\n      gt\n        /* \"--CODEGEN--\":5176:5178   */\n      iszero\n      tag_145\n      jumpi\n        /* \"--CODEGEN--\":5222:5223   */\n      0x00\n        /* \"--CODEGEN--\":5219:5220   */\n      dup1\n        /* \"--CODEGEN--\":5212:5224   */\n      revert\n        /* \"--CODEGEN--\":5176:5178   */\n    tag_145:\n        /* \"--CODEGEN--\":5289:5293   */\n      0x1f\n        /* \"--CODEGEN--\":5285:5294   */\n      not\n        /* \"--CODEGEN--\":5278:5282   */\n      0x1f\n        /* \"--CODEGEN--\":5270:5276   */\n      dup4\n        /* \"--CODEGEN--\":5266:5283   */\n      add\n        /* \"--CODEGEN--\":5262:5295   */\n      and\n        /* \"--CODEGEN--\":5254:5295   */\n      swap1\n      pop\n        /* \"--CODEGEN--\":5353:5357   */\n      0x20\n        /* \"--CODEGEN--\":5347:5351   */\n      dup2\n        /* \"--CODEGEN--\":5343:5358   */\n      add\n        /* \"--CODEGEN--\":5335:5358   */\n      swap1\n      pop\n        /* \"--CODEGEN--\":5113:5368   */\n      swap2\n      swap1\n      pop\n      jump\n        /* \"--CODEGEN--\":5375:5492   */\n    tag_109:\n      0x00\n        /* \"--CODEGEN--\":5464:5469   */\n      dup2\n        /* \"--CODEGEN--\":5458:5470   */\n      mload\n        /* \"--CODEGEN--\":5448:5470   */\n      swap1\n      pop\n        /* \"--CODEGEN--\":5429:5492   */\n      swap2\n      swap1\n      pop\n      jump\n        /* \"--CODEGEN--\":5499:5620   */\n    tag_99:\n      0x00\n        /* \"--CODEGEN--\":5592:5597   */\n      dup2\n        /* \"--CODEGEN--\":5586:5598   */\n      mload\n        /* \"--CODEGEN--\":5576:5598   */\n      swap1\n      pop\n        /* \"--CODEGEN--\":5557:5620   */\n      swap2\n      swap1\n      pop\n      jump\n        /* \"--CODEGEN--\":5628:5790   */\n    tag_101:\n      0x00\n        /* \"--CODEGEN--\":5742:5748   */\n      dup3\n        /* \"--CODEGEN--\":5737:5740   */\n      dup3\n        /* \"--CODEGEN--\":5730:5749   */\n      mstore\n        /* \"--CODEGEN--\":5779:5783   */\n      0x20\n        /* \"--CODEGEN--\":5774:5777   */\n      dup3\n        /* \"--CODEGEN--\":5770:5784   */\n      add\n        /* \"--CODEGEN--\":5755:5784   */\n      swap1\n      pop\n        /* \"--CODEGEN--\":5723:5790   */\n      swap3\n      swap2\n      pop\n      pop\n      jump\n        /* \"--CODEGEN--\":5798:5870   */\n    tag_95:\n      0x00\n        /* \"--CODEGEN--\":5860:5865   */\n      dup2\n        /* \"--CODEGEN--\":5849:5865   */\n      swap1\n      pop\n        /* \"--CODEGEN--\":5843:5870   */\n      swap2\n      swap1\n      pop\n      jump\n        /* \"--CODEGEN--\":5877:5949   */\n    tag_124:\n      0x00\n        /* \"--CODEGEN--\":5939:5944   */\n      dup2\n        /* \"--CODEGEN--\":5928:5944   */\n      swap1\n      pop\n        /* \"--CODEGEN--\":5922:5949   */\n      swap2\n      swap1\n      pop\n      jump\n        /* \"--CODEGEN--\":5957:6102   */\n    tag_87:\n        /* \"--CODEGEN--\":6038:6044   */\n      dup3\n        /* \"--CODEGEN--\":6033:6036   */\n      dup2\n        /* \"--CODEGEN--\":6028:6031   */\n      dup4\n        /* \"--CODEGEN--\":6015:6045   */\n      calldatacopy\n        /* \"--CODEGEN--\":6094:6095   */\n      0x00\n        /* \"--CODEGEN--\":6085:6091   */\n      dup4\n        /* \"--CODEGEN--\":6080:6083   */\n      dup4\n        /* \"--CODEGEN--\":6076:6092   */\n      add\n        /* \"--CODEGEN--\":6069:6096   */\n      mstore\n        /* \"--CODEGEN--\":6008:6102   */\n      pop\n      pop\n      pop\n      jump\n        /* \"--CODEGEN--\":6111:6379   */\n    tag_103:\n        /* \"--CODEGEN--\":6176:6177   */\n      0x00\n        /* \"--CODEGEN--\":6183:6284   */\n    tag_153:\n        /* \"--CODEGEN--\":6197:6203   */\n      dup4\n        /* \"--CODEGEN--\":6194:6195   */\n      dup2\n        /* \"--CODEGEN--\":6191:6204   */\n      lt\n        /* \"--CODEGEN--\":6183:6284   */\n      iszero\n      tag_155\n      jumpi\n        /* \"--CODEGEN--\":6273:6274   */\n      dup1\n        /* \"--CODEGEN--\":6268:6271   */\n      dup3\n        /* \"--CODEGEN--\":6264:6275   */\n      add\n        /* \"--CODEGEN--\":6258:6276   */\n      mload\n        /* \"--CODEGEN--\":6254:6255   */\n      dup2\n        /* \"--CODEGEN--\":6249:6252   */\n      dup5\n        /* \"--CODEGEN--\":6245:6256   */\n      add\n        /* \"--CODEGEN--\":6238:6277   */\n      mstore\n        /* \"--CODEGEN--\":6219:6221   */\n      0x20\n        /* \"--CODEGEN--\":6216:6217   */\n      dup2\n        /* \"--CODEGEN--\":6212:6222   */\n      add\n        /* \"--CODEGEN--\":6207:6222   */\n      swap1\n      pop\n        /* \"--CODEGEN--\":6183:6284   */\n      jump(tag_153)\n    tag_155:\n        /* \"--CODEGEN--\":6299:6305   */\n      dup4\n        /* \"--CODEGEN--\":6296:6297   */\n      dup2\n        /* \"--CODEGEN--\":6293:6306   */\n      gt\n        /* \"--CODEGEN--\":6290:6292   */\n      iszero\n      tag_156\n      jumpi\n        /* \"--CODEGEN--\":6364:6365   */\n      0x00\n        /* \"--CODEGEN--\":6355:6361   */\n      dup5\n        /* \"--CODEGEN--\":6350:6353   */\n      dup5\n        /* \"--CODEGEN--\":6346:6362   */\n      add\n        /* \"--CODEGEN--\":6339:6366   */\n      mstore\n        /* \"--CODEGEN--\":6290:6292   */\n    tag_156:\n        /* \"--CODEGEN--\":6160:6379   */\n      pop\n      pop\n      pop\n      pop\n      jump\n        /* \"--CODEGEN--\":6387:6484   */\n    tag_105:\n      0x00\n        /* \"--CODEGEN--\":6475:6477   */\n      0x1f\n        /* \"--CODEGEN--\":6471:6478   */\n      not\n        /* \"--CODEGEN--\":6466:6468   */\n      0x1f\n        /* \"--CODEGEN--\":6459:6464   */\n      dup4\n        /* \"--CODEGEN--\":6455:6469   */\n      add\n        /* \"--CODEGEN--\":6451:6479   */\n      and\n        /* \"--CODEGEN--\":6441:6479   */\n      swap1\n      pop\n        /* \"--CODEGEN--\":6435:6484   */\n      swap2\n      swap1\n      pop\n      jump\n\n    auxdata: 0xa26469706673582212201e0870a955bf232901723b4ea6728c70438a172fa8fea86816395a4be1bbe7db64736f6c63430006040033\n}\n",
				"bytecode": {
					"linkReferences": {},
					"object": "60806040526040518060600160405280602e81526020016109fe602e9139600090805190602001906100329291906100d7565b506040518060600160405280602a8152602001610a2c602a9139600190805190602001906100619291906100d7565b507f4c45484f4e47564f776a6e66766a3377656838764b4a0000000000000000000060025534801561009257600080fd5b5060066003600001819055506002600360010181905550600360056000016000820154816000015560018201548160010155905050600460056002018190555061017c565b828054600181600116156101000203166002900490600052602060002090601f016020900481019282601f1061011857805160ff1916838001178555610146565b82800160010185558215610146579182015b8281111561014557825182559160200191906001019061012a565b5b5090506101539190610157565b5090565b61017991905b8082111561017557600081600090555060010161015d565b5090565b90565b6108738061018b6000396000f3fe608060405234801561001057600080fd5b506004361061007d5760003560e01c8063e3a7fd751161005b578063e3a7fd75146100ef578063eaacd81e1461010d578063fc26b0ab1461012b578063fddcc148146101495761007d565b80632ed5fb83146100825780639ffd85c4146100b2578063a699fb03146100d0575b600080fd5b61009c6004803603810190610097919061054c565b610168565b6040516100a991906106e9565b60405180910390f35b6100ba610180565b6040516100c791906106a5565b60405180910390f35b6100d861021e565b6040516100e692919061072d565b60405180910390f35b6100f7610230565b604051610104919061068a565b60405180910390f35b610115610236565b60405161012291906106c7565b60405180910390f35b610133610266565b60405161014091906106a5565b60405180910390f35b610151610304565b60405161015f929190610704565b60405180910390f35b6101706104de565b61017982610334565b9050919050565b60008054600181600116156101000203166002900480601f0160208091040260200160405190810160405280929190818152602001828054600181600116156101000203166002900480156102165780601f106101eb57610100808354040283529160200191610216565b820191906000526020600020905b8154815290600101906020018083116101f957829003601f168201915b505050505081565b60038060000154908060010154905082565b60025481565b6060610261600360405180604001604052908160008201548152602001600182015481525050610362565b905090565b60018054600181600116156101000203166002900480601f0160208091040260200160405190810160405280929190818152602001828054600181600116156101000203166002900480156102fc5780601f106102d1576101008083540402835291602001916102fc565b820191906000526020600020905b8154815290600101906020018083116102df57829003601f168201915b505050505081565b60058060000160405180604001604052908160008201548152602001600182015481525050908060020154905082565b61033c6104de565b600060208301905060405180604001604052808451815260200182815250915050919050565b6060600082600001511161037557600080fd5b600061038483602001516103ee565b905060008184600001510390506060816040519080825280601f01601f1916602001820160405280156103c65781602001600182028036833780820191505090505b50905060008160200190506103e2848760200151018285610477565b81945050505050919050565b600080825160001a9050608060ff1681101561040e576000915050610472565b60b860ff16811080610433575060c060ff168110158015610432575060f860ff1681105b5b15610442576001915050610472565b60c060ff168110156104625760018060b80360ff16820301915050610472565b60018060f80360ff168203019150505b919050565b6000811415610485576104d9565b5b602060ff1681106104b55782518252602060ff1683019250602060ff1682019150602060ff1681039050610486565b6000600182602060ff16036101000a03905080198451168184511681811785525050505b505050565b604051806040016040528060008152602001600081525090565b600082601f83011261050957600080fd5b813561051c61051782610783565b610756565b9150808252602083016020830185838301111561053857600080fd5b6105438382846107ea565b50505092915050565b60006020828403121561055e57600080fd5b600082013567ffffffffffffffff81111561057857600080fd5b610584848285016104f8565b91505092915050565b610596816107d6565b82525050565b60006105a7826107ba565b6105b181856107c5565b93506105c18185602086016107f9565b6105ca8161082c565b840191505092915050565b60006105e0826107af565b6105ea81856107c5565b93506105fa8185602086016107f9565b6106038161082c565b840191505092915050565b604082016000820151610624600085018261066c565b506020820151610637602085018261066c565b50505050565b604082016000820151610653600085018261066c565b506020820151610666602085018261066c565b50505050565b610675816107e0565b82525050565b610684816107e0565b82525050565b600060208201905061069f600083018461058d565b92915050565b600060208201905081810360008301526106bf81846105d5565b905092915050565b600060208201905081810360008301526106e1818461059c565b905092915050565b60006040820190506106fe600083018461060e565b92915050565b6000606082019050610719600083018561063d565b610726604083018461067b565b9392505050565b6000604082019050610742600083018561067b565b61074f602083018461067b565b9392505050565b6000604051905081810181811067ffffffffffffffff8211171561077957600080fd5b8060405250919050565b600067ffffffffffffffff82111561079a57600080fd5b601f19601f8301169050602081019050919050565b600081519050919050565b600081519050919050565b600082825260208201905092915050565b6000819050919050565b6000819050919050565b82818337600083830152505050565b60005b838110156108175780820151818401526020810190506107fc565b83811115610826576000848401525b50505050565b6000601f19601f830116905091905056fea26469706673582212201e0870a955bf232901723b4ea6728c70438a172fa8fea86816395a4be1bbe7db64736f6c634300060400334e414c4548484a534744534447484a534448535548444a5348444a53484a53484a534844534a44484a4f4e47564f7364664e417364667364664c4548484a5347445348444a53484a53484a534844534a44484a4f4e47564f",
					"opcodes": "PUSH1 0x80 PUSH1 0x40 MSTORE PUSH1 0x40 MLOAD DUP1 PUSH1 0x60 ADD PUSH1 0x40 MSTORE DUP1 PUSH1 0x2E DUP2 MSTORE PUSH1 0x20 ADD PUSH2 0x9FE PUSH1 0x2E SWAP2 CODECOPY PUSH1 0x0 SWAP1 DUP1 MLOAD SWAP1 PUSH1 0x20 ADD SWAP1 PUSH2 0x32 SWAP3 SWAP2 SWAP1 PUSH2 0xD7 JUMP JUMPDEST POP PUSH1 0x40 MLOAD DUP1 PUSH1 0x60 ADD PUSH1 0x40 MSTORE DUP1 PUSH1 0x2A DUP2 MSTORE PUSH1 0x20 ADD PUSH2 0xA2C PUSH1 0x2A SWAP2 CODECOPY PUSH1 0x1 SWAP1 DUP1 MLOAD SWAP1 PUSH1 0x20 ADD SWAP1 PUSH2 0x61 SWAP3 SWAP2 SWAP1 PUSH2 0xD7 JUMP JUMPDEST POP PUSH32 0x4C45484F4E47564F776A6E66766A3377656838764B4A00000000000000000000 PUSH1 0x2 SSTORE CALLVALUE DUP1 ISZERO PUSH2 0x92 JUMPI PUSH1 0x0 DUP1 REVERT JUMPDEST POP PUSH1 0x6 PUSH1 0x3 PUSH1 0x0 ADD DUP2 SWAP1 SSTORE POP PUSH1 0x2 PUSH1 0x3 PUSH1 0x1 ADD DUP2 SWAP1 SSTORE POP PUSH1 0x3 PUSH1 0x5 PUSH1 0x0 ADD PUSH1 0x0 DUP3 ADD SLOAD DUP2 PUSH1 0x0 ADD SSTORE PUSH1 0x1 DUP3 ADD SLOAD DUP2 PUSH1 0x1 ADD SSTORE SWAP1 POP POP PUSH1 0x4 PUSH1 0x5 PUSH1 0x2 ADD DUP2 SWAP1 SSTORE POP PUSH2 0x17C JUMP JUMPDEST DUP3 DUP1 SLOAD PUSH1 0x1 DUP2 PUSH1 0x1 AND ISZERO PUSH2 0x100 MUL SUB AND PUSH1 0x2 SWAP1 DIV SWAP1 PUSH1 0x0 MSTORE PUSH1 0x20 PUSH1 0x0 KECCAK256 SWAP1 PUSH1 0x1F ADD PUSH1 0x20 SWAP1 DIV DUP2 ADD SWAP3 DUP3 PUSH1 0x1F LT PUSH2 0x118 JUMPI DUP1 MLOAD PUSH1 0xFF NOT AND DUP4 DUP1 ADD OR DUP6 SSTORE PUSH2 0x146 JUMP JUMPDEST DUP3 DUP1 ADD PUSH1 0x1 ADD DUP6 SSTORE DUP3 ISZERO PUSH2 0x146 JUMPI SWAP2 DUP3 ADD JUMPDEST DUP3 DUP2 GT ISZERO PUSH2 0x145 JUMPI DUP3 MLOAD DUP3 SSTORE SWAP2 PUSH1 0x20 ADD SWAP2 SWAP1 PUSH1 0x1 ADD SWAP1 PUSH2 0x12A JUMP JUMPDEST JUMPDEST POP SWAP1 POP PUSH2 0x153 SWAP2 SWAP1 PUSH2 0x157 JUMP JUMPDEST POP SWAP1 JUMP JUMPDEST PUSH2 0x179 SWAP2 SWAP1 JUMPDEST DUP1 DUP3 GT ISZERO PUSH2 0x175 JUMPI PUSH1 0x0 DUP2 PUSH1 0x0 SWAP1 SSTORE POP PUSH1 0x1 ADD PUSH2 0x15D JUMP JUMPDEST POP SWAP1 JUMP JUMPDEST SWAP1 JUMP JUMPDEST PUSH2 0x873 DUP1 PUSH2 0x18B PUSH1 0x0 CODECOPY PUSH1 0x0 RETURN INVALID PUSH1 0x80 PUSH1 0x40 MSTORE CALLVALUE DUP1 ISZERO PUSH2 0x10 JUMPI PUSH1 0x0 DUP1 REVERT JUMPDEST POP PUSH1 0x4 CALLDATASIZE LT PUSH2 0x7D JUMPI PUSH1 0x0 CALLDATALOAD PUSH1 0xE0 SHR DUP1 PUSH4 0xE3A7FD75 GT PUSH2 0x5B JUMPI DUP1 PUSH4 0xE3A7FD75 EQ PUSH2 0xEF JUMPI DUP1 PUSH4 0xEAACD81E EQ PUSH2 0x10D JUMPI DUP1 PUSH4 0xFC26B0AB EQ PUSH2 0x12B JUMPI DUP1 PUSH4 0xFDDCC148 EQ PUSH2 0x149 JUMPI PUSH2 0x7D JUMP JUMPDEST DUP1 PUSH4 0x2ED5FB83 EQ PUSH2 0x82 JUMPI DUP1 PUSH4 0x9FFD85C4 EQ PUSH2 0xB2 JUMPI DUP1 PUSH4 0xA699FB03 EQ PUSH2 0xD0 JUMPI JUMPDEST PUSH1 0x0 DUP1 REVERT JUMPDEST PUSH2 0x9C PUSH1 0x4 DUP1 CALLDATASIZE SUB DUP2 ADD SWAP1 PUSH2 0x97 SWAP2 SWAP1 PUSH2 0x54C JUMP JUMPDEST PUSH2 0x168 JUMP JUMPDEST PUSH1 0x40 MLOAD PUSH2 0xA9 SWAP2 SWAP1 PUSH2 0x6E9 JUMP JUMPDEST PUSH1 0x40 MLOAD DUP1 SWAP2 SUB SWAP1 RETURN JUMPDEST PUSH2 0xBA PUSH2 0x180 JUMP JUMPDEST PUSH1 0x40 MLOAD PUSH2 0xC7 SWAP2 SWAP1 PUSH2 0x6A5 JUMP JUMPDEST PUSH1 0x40 MLOAD DUP1 SWAP2 SUB SWAP1 RETURN JUMPDEST PUSH2 0xD8 PUSH2 0x21E JUMP JUMPDEST PUSH1 0x40 MLOAD PUSH2 0xE6 SWAP3 SWAP2 SWAP1 PUSH2 0x72D JUMP JUMPDEST PUSH1 0x40 MLOAD DUP1 SWAP2 SUB SWAP1 RETURN JUMPDEST PUSH2 0xF7 PUSH2 0x230 JUMP JUMPDEST PUSH1 0x40 MLOAD PUSH2 0x104 SWAP2 SWAP1 PUSH2 0x68A JUMP JUMPDEST PUSH1 0x40 MLOAD DUP1 SWAP2 SUB SWAP1 RETURN JUMPDEST PUSH2 0x115 PUSH2 0x236 JUMP JUMPDEST PUSH1 0x40 MLOAD PUSH2 0x122 SWAP2 SWAP1 PUSH2 0x6C7 JUMP JUMPDEST PUSH1 0x40 MLOAD DUP1 SWAP2 SUB SWAP1 RETURN JUMPDEST PUSH2 0x133 PUSH2 0x266 JUMP JUMPDEST PUSH1 0x40 MLOAD PUSH2 0x140 SWAP2 SWAP1 PUSH2 0x6A5 JUMP JUMPDEST PUSH1 0x40 MLOAD DUP1 SWAP2 SUB SWAP1 RETURN JUMPDEST PUSH2 0x151 PUSH2 0x304 JUMP JUMPDEST PUSH1 0x40 MLOAD PUSH2 0x15F SWAP3 SWAP2 SWAP1 PUSH2 0x704 JUMP JUMPDEST PUSH1 0x40 MLOAD DUP1 SWAP2 SUB SWAP1 RETURN JUMPDEST PUSH2 0x170 PUSH2 0x4DE JUMP JUMPDEST PUSH2 0x179 DUP3 PUSH2 0x334 JUMP JUMPDEST SWAP1 POP SWAP2 SWAP1 POP JUMP JUMPDEST PUSH1 0x0 DUP1 SLOAD PUSH1 0x1 DUP2 PUSH1 0x1 AND ISZERO PUSH2 0x100 MUL SUB AND PUSH1 0x2 SWAP1 DIV DUP1 PUSH1 0x1F ADD PUSH1 0x20 DUP1 SWAP2 DIV MUL PUSH1 0x20 ADD PUSH1 0x40 MLOAD SWAP1 DUP2 ADD PUSH1 0x40 MSTORE DUP1 SWAP3 SWAP2 SWAP1 DUP2 DUP2 MSTORE PUSH1 0x20 ADD DUP3 DUP1 SLOAD PUSH1 0x1 DUP2 PUSH1 0x1 AND ISZERO PUSH2 0x100 MUL SUB AND PUSH1 0x2 SWAP1 DIV DUP1 ISZERO PUSH2 0x216 JUMPI DUP1 PUSH1 0x1F LT PUSH2 0x1EB JUMPI PUSH2 0x100 DUP1 DUP4 SLOAD DIV MUL DUP4 MSTORE SWAP2 PUSH1 0x20 ADD SWAP2 PUSH2 0x216 JUMP JUMPDEST DUP3 ADD SWAP2 SWAP1 PUSH1 0x0 MSTORE PUSH1 0x20 PUSH1 0x0 KECCAK256 SWAP1 JUMPDEST DUP2 SLOAD DUP2 MSTORE SWAP1 PUSH1 0x1 ADD SWAP1 PUSH1 0x20 ADD DUP1 DUP4 GT PUSH2 0x1F9 JUMPI DUP3 SWAP1 SUB PUSH1 0x1F AND DUP3 ADD SWAP2 JUMPDEST POP POP POP POP POP DUP2 JUMP JUMPDEST PUSH1 0x3 DUP1 PUSH1 0x0 ADD SLOAD SWAP1 DUP1 PUSH1 0x1 ADD SLOAD SWAP1 POP DUP3 JUMP JUMPDEST PUSH1 0x2 SLOAD DUP2 JUMP JUMPDEST PUSH1 0x60 PUSH2 0x261 PUSH1 0x3 PUSH1 0x40 MLOAD DUP1 PUSH1 0x40 ADD PUSH1 0x40 MSTORE SWAP1 DUP2 PUSH1 0x0 DUP3 ADD SLOAD DUP2 MSTORE PUSH1 0x20 ADD PUSH1 0x1 DUP3 ADD SLOAD DUP2 MSTORE POP POP PUSH2 0x362 JUMP JUMPDEST SWAP1 POP SWAP1 JUMP JUMPDEST PUSH1 0x1 DUP1 SLOAD PUSH1 0x1 DUP2 PUSH1 0x1 AND ISZERO PUSH2 0x100 MUL SUB AND PUSH1 0x2 SWAP1 DIV DUP1 PUSH1 0x1F ADD PUSH1 0x20 DUP1 SWAP2 DIV MUL PUSH1 0x20 ADD PUSH1 0x40 MLOAD SWAP1 DUP2 ADD PUSH1 0x40 MSTORE DUP1 SWAP3 SWAP2 SWAP1 DUP2 DUP2 MSTORE PUSH1 0x20 ADD DUP3 DUP1 SLOAD PUSH1 0x1 DUP2 PUSH1 0x1 AND ISZERO PUSH2 0x100 MUL SUB AND PUSH1 0x2 SWAP1 DIV DUP1 ISZERO PUSH2 0x2FC JUMPI DUP1 PUSH1 0x1F LT PUSH2 0x2D1 JUMPI PUSH2 0x100 DUP1 DUP4 SLOAD DIV MUL DUP4 MSTORE SWAP2 PUSH1 0x20 ADD SWAP2 PUSH2 0x2FC JUMP JUMPDEST DUP3 ADD SWAP2 SWAP1 PUSH1 0x0 MSTORE PUSH1 0x20 PUSH1 0x0 KECCAK256 SWAP1 JUMPDEST DUP2 SLOAD DUP2 MSTORE SWAP1 PUSH1 0x1 ADD SWAP1 PUSH1 0x20 ADD DUP1 DUP4 GT PUSH2 0x2DF JUMPI DUP3 SWAP1 SUB PUSH1 0x1F AND DUP3 ADD SWAP2 JUMPDEST POP POP POP POP POP DUP2 JUMP JUMPDEST PUSH1 0x5 DUP1 PUSH1 0x0 ADD PUSH1 0x40 MLOAD DUP1 PUSH1 0x40 ADD PUSH1 0x40 MSTORE SWAP1 DUP2 PUSH1 0x0 DUP3 ADD SLOAD DUP2 MSTORE PUSH1 0x20 ADD PUSH1 0x1 DUP3 ADD SLOAD DUP2 MSTORE POP POP SWAP1 DUP1 PUSH1 0x2 ADD SLOAD SWAP1 POP DUP3 JUMP JUMPDEST PUSH2 0x33C PUSH2 0x4DE JUMP JUMPDEST PUSH1 0x0 PUSH1 0x20 DUP4 ADD SWAP1 POP PUSH1 0x40 MLOAD DUP1 PUSH1 0x40 ADD PUSH1 0x40 MSTORE DUP1 DUP5 MLOAD DUP2 MSTORE PUSH1 0x20 ADD DUP3 DUP2 MSTORE POP SWAP2 POP POP SWAP2 SWAP1 POP JUMP JUMPDEST PUSH1 0x60 PUSH1 0x0 DUP3 PUSH1 0x0 ADD MLOAD GT PUSH2 0x375 JUMPI PUSH1 0x0 DUP1 REVERT JUMPDEST PUSH1 0x0 PUSH2 0x384 DUP4 PUSH1 0x20 ADD MLOAD PUSH2 0x3EE JUMP JUMPDEST SWAP1 POP PUSH1 0x0 DUP2 DUP5 PUSH1 0x0 ADD MLOAD SUB SWAP1 POP PUSH1 0x60 DUP2 PUSH1 0x40 MLOAD SWAP1 DUP1 DUP3 MSTORE DUP1 PUSH1 0x1F ADD PUSH1 0x1F NOT AND PUSH1 0x20 ADD DUP3 ADD PUSH1 0x40 MSTORE DUP1 ISZERO PUSH2 0x3C6 JUMPI DUP2 PUSH1 0x20 ADD PUSH1 0x1 DUP3 MUL DUP1 CALLDATASIZE DUP4 CALLDATACOPY DUP1 DUP3 ADD SWAP2 POP POP SWAP1 POP JUMPDEST POP SWAP1 POP PUSH1 0x0 DUP2 PUSH1 0x20 ADD SWAP1 POP PUSH2 0x3E2 DUP5 DUP8 PUSH1 0x20 ADD MLOAD ADD DUP3 DUP6 PUSH2 0x477 JUMP JUMPDEST DUP2 SWAP5 POP POP POP POP POP SWAP2 SWAP1 POP JUMP JUMPDEST PUSH1 0x0 DUP1 DUP3 MLOAD PUSH1 0x0 BYTE SWAP1 POP PUSH1 0x80 PUSH1 0xFF AND DUP2 LT ISZERO PUSH2 0x40E JUMPI PUSH1 0x0 SWAP2 POP POP PUSH2 0x472 JUMP JUMPDEST PUSH1 0xB8 PUSH1 0xFF AND DUP2 LT DUP1 PUSH2 0x433 JUMPI POP PUSH1 0xC0 PUSH1 0xFF AND DUP2 LT ISZERO DUP1 ISZERO PUSH2 0x432 JUMPI POP PUSH1 0xF8 PUSH1 0xFF AND DUP2 LT JUMPDEST JUMPDEST ISZERO PUSH2 0x442 JUMPI PUSH1 0x1 SWAP2 POP POP PUSH2 0x472 JUMP JUMPDEST PUSH1 0xC0 PUSH1 0xFF AND DUP2 LT ISZERO PUSH2 0x462 JUMPI PUSH1 0x1 DUP1 PUSH1 0xB8 SUB PUSH1 0xFF AND DUP3 SUB ADD SWAP2 POP POP PUSH2 0x472 JUMP JUMPDEST PUSH1 0x1 DUP1 PUSH1 0xF8 SUB PUSH1 0xFF AND DUP3 SUB ADD SWAP2 POP POP JUMPDEST SWAP2 SWAP1 POP JUMP JUMPDEST PUSH1 0x0 DUP2 EQ ISZERO PUSH2 0x485 JUMPI PUSH2 0x4D9 JUMP JUMPDEST JUMPDEST PUSH1 0x20 PUSH1 0xFF AND DUP2 LT PUSH2 0x4B5 JUMPI DUP3 MLOAD DUP3 MSTORE PUSH1 0x20 PUSH1 0xFF AND DUP4 ADD SWAP3 POP PUSH1 0x20 PUSH1 0xFF AND DUP3 ADD SWAP2 POP PUSH1 0x20 PUSH1 0xFF AND DUP2 SUB SWAP1 POP PUSH2 0x486 JUMP JUMPDEST PUSH1 0x0 PUSH1 0x1 DUP3 PUSH1 0x20 PUSH1 0xFF AND SUB PUSH2 0x100 EXP SUB SWAP1 POP DUP1 NOT DUP5 MLOAD AND DUP2 DUP5 MLOAD AND DUP2 DUP2 OR DUP6 MSTORE POP POP POP JUMPDEST POP POP POP JUMP JUMPDEST PUSH1 0x40 MLOAD DUP1 PUSH1 0x40 ADD PUSH1 0x40 MSTORE DUP1 PUSH1 0x0 DUP2 MSTORE PUSH1 0x20 ADD PUSH1 0x0 DUP2 MSTORE POP SWAP1 JUMP JUMPDEST PUSH1 0x0 DUP3 PUSH1 0x1F DUP4 ADD SLT PUSH2 0x509 JUMPI PUSH1 0x0 DUP1 REVERT JUMPDEST DUP2 CALLDATALOAD PUSH2 0x51C PUSH2 0x517 DUP3 PUSH2 0x783 JUMP JUMPDEST PUSH2 0x756 JUMP JUMPDEST SWAP2 POP DUP1 DUP3 MSTORE PUSH1 0x20 DUP4 ADD PUSH1 0x20 DUP4 ADD DUP6 DUP4 DUP4 ADD GT ISZERO PUSH2 0x538 JUMPI PUSH1 0x0 DUP1 REVERT JUMPDEST PUSH2 0x543 DUP4 DUP3 DUP5 PUSH2 0x7EA JUMP JUMPDEST POP POP POP SWAP3 SWAP2 POP POP JUMP JUMPDEST PUSH1 0x0 PUSH1 0x20 DUP3 DUP5 SUB SLT ISZERO PUSH2 0x55E JUMPI PUSH1 0x0 DUP1 REVERT JUMPDEST PUSH1 0x0 DUP3 ADD CALLDATALOAD PUSH8 0xFFFFFFFFFFFFFFFF DUP2 GT ISZERO PUSH2 0x578 JUMPI PUSH1 0x0 DUP1 REVERT JUMPDEST PUSH2 0x584 DUP5 DUP3 DUP6 ADD PUSH2 0x4F8 JUMP JUMPDEST SWAP2 POP POP SWAP3 SWAP2 POP POP JUMP JUMPDEST PUSH2 0x596 DUP2 PUSH2 0x7D6 JUMP JUMPDEST DUP3 MSTORE POP POP JUMP JUMPDEST PUSH1 0x0 PUSH2 0x5A7 DUP3 PUSH2 0x7BA JUMP JUMPDEST PUSH2 0x5B1 DUP2 DUP6 PUSH2 0x7C5 JUMP JUMPDEST SWAP4 POP PUSH2 0x5C1 DUP2 DUP6 PUSH1 0x20 DUP7 ADD PUSH2 0x7F9 JUMP JUMPDEST PUSH2 0x5CA DUP2 PUSH2 0x82C JUMP JUMPDEST DUP5 ADD SWAP2 POP POP SWAP3 SWAP2 POP POP JUMP JUMPDEST PUSH1 0x0 PUSH2 0x5E0 DUP3 PUSH2 0x7AF JUMP JUMPDEST PUSH2 0x5EA DUP2 DUP6 PUSH2 0x7C5 JUMP JUMPDEST SWAP4 POP PUSH2 0x5FA DUP2 DUP6 PUSH1 0x20 DUP7 ADD PUSH2 0x7F9 JUMP JUMPDEST PUSH2 0x603 DUP2 PUSH2 0x82C JUMP JUMPDEST DUP5 ADD SWAP2 POP POP SWAP3 SWAP2 POP POP JUMP JUMPDEST PUSH1 0x40 DUP3 ADD PUSH1 0x0 DUP3 ADD MLOAD PUSH2 0x624 PUSH1 0x0 DUP6 ADD DUP3 PUSH2 0x66C JUMP JUMPDEST POP PUSH1 0x20 DUP3 ADD MLOAD PUSH2 0x637 PUSH1 0x20 DUP6 ADD DUP3 PUSH2 0x66C JUMP JUMPDEST POP POP POP POP JUMP JUMPDEST PUSH1 0x40 DUP3 ADD PUSH1 0x0 DUP3 ADD MLOAD PUSH2 0x653 PUSH1 0x0 DUP6 ADD DUP3 PUSH2 0x66C JUMP JUMPDEST POP PUSH1 0x20 DUP3 ADD MLOAD PUSH2 0x666 PUSH1 0x20 DUP6 ADD DUP3 PUSH2 0x66C JUMP JUMPDEST POP POP POP POP JUMP JUMPDEST PUSH2 0x675 DUP2 PUSH2 0x7E0 JUMP JUMPDEST DUP3 MSTORE POP POP JUMP JUMPDEST PUSH2 0x684 DUP2 PUSH2 0x7E0 JUMP JUMPDEST DUP3 MSTORE POP POP JUMP JUMPDEST PUSH1 0x0 PUSH1 0x20 DUP3 ADD SWAP1 POP PUSH2 0x69F PUSH1 0x0 DUP4 ADD DUP5 PUSH2 0x58D JUMP JUMPDEST SWAP3 SWAP2 POP POP JUMP JUMPDEST PUSH1 0x0 PUSH1 0x20 DUP3 ADD SWAP1 POP DUP2 DUP2 SUB PUSH1 0x0 DUP4 ADD MSTORE PUSH2 0x6BF DUP2 DUP5 PUSH2 0x5D5 JUMP JUMPDEST SWAP1 POP SWAP3 SWAP2 POP POP JUMP JUMPDEST PUSH1 0x0 PUSH1 0x20 DUP3 ADD SWAP1 POP DUP2 DUP2 SUB PUSH1 0x0 DUP4 ADD MSTORE PUSH2 0x6E1 DUP2 DUP5 PUSH2 0x59C JUMP JUMPDEST SWAP1 POP SWAP3 SWAP2 POP POP JUMP JUMPDEST PUSH1 0x0 PUSH1 0x40 DUP3 ADD SWAP1 POP PUSH2 0x6FE PUSH1 0x0 DUP4 ADD DUP5 PUSH2 0x60E JUMP JUMPDEST SWAP3 SWAP2 POP POP JUMP JUMPDEST PUSH1 0x0 PUSH1 0x60 DUP3 ADD SWAP1 POP PUSH2 0x719 PUSH1 0x0 DUP4 ADD DUP6 PUSH2 0x63D JUMP JUMPDEST PUSH2 0x726 PUSH1 0x40 DUP4 ADD DUP5 PUSH2 0x67B JUMP JUMPDEST SWAP4 SWAP3 POP POP POP JUMP JUMPDEST PUSH1 0x0 PUSH1 0x40 DUP3 ADD SWAP1 POP PUSH2 0x742 PUSH1 0x0 DUP4 ADD DUP6 PUSH2 0x67B JUMP JUMPDEST PUSH2 0x74F PUSH1 0x20 DUP4 ADD DUP5 PUSH2 0x67B JUMP JUMPDEST SWAP4 SWAP3 POP POP POP JUMP JUMPDEST PUSH1 0x0 PUSH1 0x40 MLOAD SWAP1 POP DUP2 DUP2 ADD DUP2 DUP2 LT PUSH8 0xFFFFFFFFFFFFFFFF DUP3 GT OR ISZERO PUSH2 0x779 JUMPI PUSH1 0x0 DUP1 REVERT JUMPDEST DUP1 PUSH1 0x40 MSTORE POP SWAP2 SWAP1 POP JUMP JUMPDEST PUSH1 0x0 PUSH8 0xFFFFFFFFFFFFFFFF DUP3 GT ISZERO PUSH2 0x79A JUMPI PUSH1 0x0 DUP1 REVERT JUMPDEST PUSH1 0x1F NOT PUSH1 0x1F DUP4 ADD AND SWAP1 POP PUSH1 0x20 DUP2 ADD SWAP1 POP SWAP2 SWAP1 POP JUMP JUMPDEST PUSH1 0x0 DUP2 MLOAD SWAP1 POP SWAP2 SWAP1 POP JUMP JUMPDEST PUSH1 0x0 DUP2 MLOAD SWAP1 POP SWAP2 SWAP1 POP JUMP JUMPDEST PUSH1 0x0 DUP3 DUP3 MSTORE PUSH1 0x20 DUP3 ADD SWAP1 POP SWAP3 SWAP2 POP POP JUMP JUMPDEST PUSH1 0x0 DUP2 SWAP1 POP SWAP2 SWAP1 POP JUMP JUMPDEST PUSH1 0x0 DUP2 SWAP1 POP SWAP2 SWAP1 POP JUMP JUMPDEST DUP3 DUP2 DUP4 CALLDATACOPY PUSH1 0x0 DUP4 DUP4 ADD MSTORE POP POP POP JUMP JUMPDEST PUSH1 0x0 JUMPDEST DUP4 DUP2 LT ISZERO PUSH2 0x817 JUMPI DUP1 DUP3 ADD MLOAD DUP2 DUP5 ADD MSTORE PUSH1 0x20 DUP2 ADD SWAP1 POP PUSH2 0x7FC JUMP JUMPDEST DUP4 DUP2 GT ISZERO PUSH2 0x826 JUMPI PUSH1 0x0 DUP5 DUP5 ADD MSTORE JUMPDEST POP POP POP POP JUMP JUMPDEST PUSH1 0x0 PUSH1 0x1F NOT PUSH1 0x1F DUP4 ADD AND SWAP1 POP SWAP2 SWAP1 POP JUMP INVALID LOG2 PUSH5 0x6970667358 0x22 SLT KECCAK256 0x1E ADDMOD PUSH17 0xA955BF232901723B4EA6728C70438A172F 0xA8 INVALID 0xA8 PUSH9 0x16395A4BE1BBE7DB64 PUSH20 0x6F6C634300060400334E414C4548484A53474453 DIFFICULTY SELFBALANCE 0x48 0x4A MSTORE8 DIFFICULTY 0x48 MSTORE8 SSTORE 0x48 DIFFICULTY 0x4A MSTORE8 0x48 DIFFICULTY 0x4A MSTORE8 0x48 0x4A MSTORE8 0x48 0x4A MSTORE8 0x48 DIFFICULTY MSTORE8 0x4A DIFFICULTY 0x48 0x4A 0x4F 0x4E SELFBALANCE JUMP 0x4F PUSH20 0x64664E417364667364664C4548484A5347445348 DIFFICULTY 0x4A MSTORE8 0x48 0x4A MSTORE8 0x48 0x4A MSTORE8 0x48 DIFFICULTY MSTORE8 0x4A DIFFICULTY 0x48 0x4A 0x4F 0x4E SELFBALANCE JUMP 0x4F "
				},
				"gasEstimates": {
					"creation": {
						"codeDepositCost": "432600",
						"executionCost": "infinite",
						"totalCost": "infinite"
					},
					"external": {
						"data1()": "infinite",
						"data2()": "1129",
						"data3()": "infinite",
						"getDecodeData(bytes)": "infinite",
						"getEncodeData()": "infinite",
						"iterator()": "infinite",
						"rlpItem()": "infinite"
					},
					"internal": {
						"_itemLength(uint256)": "infinite",
						"_payloadOffset(uint256)": "infinite",
						"copy(uint256,uint256,uint256)": "infinite",
						"hasNext(struct demo2.Iterator memory)": "infinite",
						"next(struct demo2.Iterator memory)": "infinite",
						"numItems(struct demo2.RLPItem memory)": "infinite",
						"toAddress(struct demo2.RLPItem memory)": "infinite",
						"toBoolean(struct demo2.RLPItem memory)": "infinite",
						"toBytes(struct demo2.RLPItem memory)": "infinite",
						"toRLPItem(bytes memory)": "infinite",
						"toRlpBytes(struct demo2.RLPItem memory)": "infinite",
						"toUint(struct demo2.RLPItem memory)": "infinite",
						"toUintStrict(struct demo2.RLPItem memory)": "infinite"
					}
				},
				"methodIdentifiers": {
					"data1()": "9ffd85c4",
					"data2()": "e3a7fd75",
					"data3()": "fc26b0ab",
					"getDecodeData(bytes)": "2ed5fb83",
					"getEncodeData()": "eaacd81e",
					"iterator()": "fddcc148",
					"rlpItem()": "a699fb03"
				}
			},
			"userdoc": {
				"methods": {}
			}
		}
	}
}