{
	"contracts/demo1.sol": {
		"CmnPkg": {
			"abi": [
				{
					"constant": true,
					"inputs": [
						{
							"internalType": "uint32",
							"name": "code",
							"type": "uint32"
						}
					],
					"name": "getDecodeCommonAckPackage",
					"outputs": [
						{
							"internalType": "bytes",
							"name": "",
							"type": "bytes"
						}
					],
					"payable": false,
					"stateMutability": "view",
					"type": "function"
				},
				{
					"constant": true,
					"inputs": [
						{
							"internalType": "uint32",
							"name": "code",
							"type": "uint32"
						}
					],
					"name": "getEncodeCommonAckPackage",
					"outputs": [
						{
							"internalType": "bytes",
							"name": "",
							"type": "bytes"
						}
					],
					"payable": false,
					"stateMutability": "view",
					"type": "function"
				}
			],
			"devdoc": {
				"methods": {}
			},
			"evm": {
				"assembly": "    /* \"contracts/demo1.sol\":92:1340  library CmnPkg {\r... */\n  dataSize(sub_0)\n  dataOffset(sub_0)\n    /* \"--CODEGEN--\":132:134   */\n  0x0b\n    /* \"--CODEGEN--\":166:173   */\n  dup3\n    /* \"--CODEGEN--\":155:164   */\n  dup3\n    /* \"--CODEGEN--\":146:153   */\n  dup3\n    /* \"--CODEGEN--\":137:174   */\n  codecopy\n    /* \"--CODEGEN--\":255:262   */\n  dup1\n    /* \"--CODEGEN--\":249:263   */\n  mload\n    /* \"--CODEGEN--\":246:247   */\n  0x00\n    /* \"--CODEGEN--\":241:264   */\n  byte\n    /* \"--CODEGEN--\":235:239   */\n  0x73\n    /* \"--CODEGEN--\":232:265   */\n  eq\n    /* \"--CODEGEN--\":222:224   */\n  tag_1\n  jumpi\n    /* \"--CODEGEN--\":269:278   */\n  invalid\n    /* \"--CODEGEN--\":222:224   */\ntag_1:\n    /* \"--CODEGEN--\":293:302   */\n  address\n    /* \"--CODEGEN--\":290:291   */\n  0x00\n    /* \"--CODEGEN--\":283:303   */\n  mstore\n    /* \"--CODEGEN--\":323:327   */\n  0x73\n    /* \"--CODEGEN--\":314:321   */\n  dup2\n    /* \"--CODEGEN--\":306:328   */\n  mstore8\n    /* \"--CODEGEN--\":347:354   */\n  dup3\n    /* \"--CODEGEN--\":338:345   */\n  dup2\n    /* \"--CODEGEN--\":331:355   */\n  return\nstop\n\nsub_0: assembly {\n        /* \"contracts/demo1.sol\":92:1340  library CmnPkg {\r... */\n      eq(address, deployTimeAddress())\n      mstore(0x40, 0x80)\n      jumpi(tag_1, lt(calldatasize, 0x04))\n      shr(0xe0, calldataload(0x00))\n      dup1\n      0xaacc9bf8\n      eq\n      tag_2\n      jumpi\n      dup1\n      0xb9b19786\n      eq\n      tag_3\n      jumpi\n    tag_1:\n      0x00\n      dup1\n      revert\n        /* \"contracts/demo1.sol\":238:373  function getEncodeCommonAckPackage(uint32 code) public view returns(bytes memory){\r... */\n    tag_2:\n      tag_4\n      0x04\n      dup1\n      calldatasize\n      sub\n        /* \"--CODEGEN--\":13:15   */\n      0x20\n        /* \"--CODEGEN--\":8:11   */\n      dup2\n        /* \"--CODEGEN--\":5:16   */\n      lt\n        /* \"--CODEGEN--\":2:4   */\n      iszero\n      tag_5\n      jumpi\n        /* \"--CODEGEN--\":29:30   */\n      0x00\n        /* \"--CODEGEN--\":26:27   */\n      dup1\n        /* \"--CODEGEN--\":19:31   */\n      revert\n        /* \"--CODEGEN--\":2:4   */\n    tag_5:\n        /* \"contracts/demo1.sol\":238:373  function getEncodeCommonAckPackage(uint32 code) public view returns(bytes memory){\r... */\n      dup2\n      add\n      swap1\n      dup1\n      dup1\n      calldataload\n      0xffffffff\n      and\n      swap1\n      0x20\n      add\n      swap1\n      swap3\n      swap2\n      swap1\n      pop\n      pop\n      pop\n      tag_6\n      jump\t// in\n    tag_4:\n      mload(0x40)\n      dup1\n      dup1\n      0x20\n      add\n      dup3\n      dup2\n      sub\n      dup3\n      mstore\n      dup4\n      dup2\n      dup2\n      mload\n      dup2\n      mstore\n      0x20\n      add\n      swap2\n      pop\n      dup1\n      mload\n      swap1\n      0x20\n      add\n      swap1\n      dup1\n      dup4\n      dup4\n        /* \"--CODEGEN--\":23:24   */\n      0x00\n        /* \"--CODEGEN--\":8:108   */\n    tag_7:\n        /* \"--CODEGEN--\":33:36   */\n      dup4\n        /* \"--CODEGEN--\":30:31   */\n      dup2\n        /* \"--CODEGEN--\":27:37   */\n      lt\n        /* \"--CODEGEN--\":8:108   */\n      iszero\n      tag_9\n      jumpi\n        /* \"--CODEGEN--\":99:100   */\n      dup1\n        /* \"--CODEGEN--\":94:97   */\n      dup3\n        /* \"--CODEGEN--\":90:101   */\n      add\n        /* \"--CODEGEN--\":84:102   */\n      mload\n        /* \"--CODEGEN--\":80:81   */\n      dup2\n        /* \"--CODEGEN--\":75:78   */\n      dup5\n        /* \"--CODEGEN--\":71:82   */\n      add\n        /* \"--CODEGEN--\":64:103   */\n      mstore\n        /* \"--CODEGEN--\":52:54   */\n      0x20\n        /* \"--CODEGEN--\":49:50   */\n      dup2\n        /* \"--CODEGEN--\":45:55   */\n      add\n        /* \"--CODEGEN--\":40:55   */\n      swap1\n      pop\n        /* \"--CODEGEN--\":8:108   */\n      jump(tag_7)\n    tag_9:\n        /* \"--CODEGEN--\":12:26   */\n      pop\n        /* \"contracts/demo1.sol\":238:373  function getEncodeCommonAckPackage(uint32 code) public view returns(bytes memory){\r... */\n      pop\n      pop\n      pop\n      swap1\n      pop\n      swap1\n      dup2\n      add\n      swap1\n      0x1f\n      and\n      dup1\n      iszero\n      tag_10\n      jumpi\n      dup1\n      dup3\n      sub\n      dup1\n      mload\n      0x01\n      dup4\n      0x20\n      sub\n      0x0100\n      exp\n      sub\n      not\n      and\n      dup2\n      mstore\n      0x20\n      add\n      swap2\n      pop\n    tag_10:\n      pop\n      swap3\n      pop\n      pop\n      pop\n      mload(0x40)\n      dup1\n      swap2\n      sub\n      swap1\n      return\n        /* \"contracts/demo1.sol\":381:516  function getDecodeCommonAckPackage(uint32 code) public view returns(bytes memory){\r... */\n    tag_3:\n      tag_11\n      0x04\n      dup1\n      calldatasize\n      sub\n        /* \"--CODEGEN--\":13:15   */\n      0x20\n        /* \"--CODEGEN--\":8:11   */\n      dup2\n        /* \"--CODEGEN--\":5:16   */\n      lt\n        /* \"--CODEGEN--\":2:4   */\n      iszero\n      tag_12\n      jumpi\n        /* \"--CODEGEN--\":29:30   */\n      0x00\n        /* \"--CODEGEN--\":26:27   */\n      dup1\n        /* \"--CODEGEN--\":19:31   */\n      revert\n        /* \"--CODEGEN--\":2:4   */\n    tag_12:\n        /* \"contracts/demo1.sol\":381:516  function getDecodeCommonAckPackage(uint32 code) public view returns(bytes memory){\r... */\n      dup2\n      add\n      swap1\n      dup1\n      dup1\n      calldataload\n      0xffffffff\n      and\n      swap1\n      0x20\n      add\n      swap1\n      swap3\n      swap2\n      swap1\n      pop\n      pop\n      pop\n      tag_13\n      jump\t// in\n    tag_11:\n      mload(0x40)\n      dup1\n      dup1\n      0x20\n      add\n      dup3\n      dup2\n      sub\n      dup3\n      mstore\n      dup4\n      dup2\n      dup2\n      mload\n      dup2\n      mstore\n      0x20\n      add\n      swap2\n      pop\n      dup1\n      mload\n      swap1\n      0x20\n      add\n      swap1\n      dup1\n      dup4\n      dup4\n        /* \"--CODEGEN--\":23:24   */\n      0x00\n        /* \"--CODEGEN--\":8:108   */\n    tag_14:\n        /* \"--CODEGEN--\":33:36   */\n      dup4\n        /* \"--CODEGEN--\":30:31   */\n      dup2\n        /* \"--CODEGEN--\":27:37   */\n      lt\n        /* \"--CODEGEN--\":8:108   */\n      iszero\n      tag_16\n      jumpi\n        /* \"--CODEGEN--\":99:100   */\n      dup1\n        /* \"--CODEGEN--\":94:97   */\n      dup3\n        /* \"--CODEGEN--\":90:101   */\n      add\n        /* \"--CODEGEN--\":84:102   */\n      mload\n        /* \"--CODEGEN--\":80:81   */\n      dup2\n        /* \"--CODEGEN--\":75:78   */\n      dup5\n        /* \"--CODEGEN--\":71:82   */\n      add\n        /* \"--CODEGEN--\":64:103   */\n      mstore\n        /* \"--CODEGEN--\":52:54   */\n      0x20\n        /* \"--CODEGEN--\":49:50   */\n      dup2\n        /* \"--CODEGEN--\":45:55   */\n      add\n        /* \"--CODEGEN--\":40:55   */\n      swap1\n      pop\n        /* \"--CODEGEN--\":8:108   */\n      jump(tag_14)\n    tag_16:\n        /* \"--CODEGEN--\":12:26   */\n      pop\n        /* \"contracts/demo1.sol\":381:516  function getDecodeCommonAckPackage(uint32 code) public view returns(bytes memory){\r... */\n      pop\n      pop\n      pop\n      swap1\n      pop\n      swap1\n      dup2\n      add\n      swap1\n      0x1f\n      and\n      dup1\n      iszero\n      tag_17\n      jumpi\n      dup1\n      dup3\n      sub\n      dup1\n      mload\n      0x01\n      dup4\n      0x20\n      sub\n      0x0100\n      exp\n      sub\n      not\n      and\n      dup2\n      mstore\n      0x20\n      add\n      swap2\n      pop\n    tag_17:\n      pop\n      swap3\n      pop\n      pop\n      pop\n      mload(0x40)\n      dup1\n      swap2\n      sub\n      swap1\n      return\n        /* \"contracts/demo1.sol\":238:373  function getEncodeCommonAckPackage(uint32 code) public view returns(bytes memory){\r... */\n    tag_6:\n        /* \"contracts/demo1.sol\":306:318  bytes memory */\n      0x60\n        /* \"contracts/demo1.sol\":337:365  encodeCommonAckPackage(code) */\n      tag_19\n        /* \"contracts/demo1.sol\":360:364  code */\n      dup3\n        /* \"contracts/demo1.sol\":337:359  encodeCommonAckPackage */\n      tag_20\n        /* \"contracts/demo1.sol\":337:365  encodeCommonAckPackage(code) */\n      jump\t// in\n    tag_19:\n        /* \"contracts/demo1.sol\":330:365  return encodeCommonAckPackage(code) */\n      swap1\n      pop\n        /* \"contracts/demo1.sol\":238:373  function getEncodeCommonAckPackage(uint32 code) public view returns(bytes memory){\r... */\n      swap2\n      swap1\n      pop\n      jump\t// out\n        /* \"contracts/demo1.sol\":381:516  function getDecodeCommonAckPackage(uint32 code) public view returns(bytes memory){\r... */\n    tag_13:\n        /* \"contracts/demo1.sol\":449:461  bytes memory */\n      0x60\n        /* \"contracts/demo1.sol\":480:508  encodeCommonAckPackage(code) */\n      tag_22\n        /* \"contracts/demo1.sol\":503:507  code */\n      dup3\n        /* \"contracts/demo1.sol\":480:502  encodeCommonAckPackage */\n      tag_20\n        /* \"contracts/demo1.sol\":480:508  encodeCommonAckPackage(code) */\n      jump\t// in\n    tag_22:\n        /* \"contracts/demo1.sol\":473:508  return encodeCommonAckPackage(code) */\n      swap1\n      pop\n        /* \"contracts/demo1.sol\":381:516  function getDecodeCommonAckPackage(uint32 code) public view returns(bytes memory){\r... */\n      swap2\n      swap1\n      pop\n      jump\t// out\n        /* \"contracts/demo1.sol\":524:755  function encodeCommonAckPackage(uint32 code) internal pure returns (bytes memory) {\r... */\n    tag_20:\n        /* \"contracts/demo1.sol\":592:604  bytes memory */\n      0x60\n        /* \"contracts/demo1.sol\":617:640  bytes[] memory elements */\n      dup1\n        /* \"contracts/demo1.sol\":655:656  1 */\n      0x01\n        /* \"contracts/demo1.sol\":643:657  new bytes[](1) */\n      mload(0x40)\n      swap1\n      dup1\n      dup3\n      mstore\n      dup1\n      0x20\n      mul\n      0x20\n      add\n      dup3\n      add\n      0x40\n      mstore\n      dup1\n      iszero\n      tag_24\n      jumpi\n      dup2\n      0x20\n      add\n    tag_25:\n      0x60\n      dup2\n      mstore\n      0x20\n      add\n      swap1\n      0x01\n      swap1\n      sub\n      swap1\n      dup2\n      tag_25\n      jumpi\n      swap1\n      pop\n    tag_24:\n      pop\n        /* \"contracts/demo1.sol\":617:657  bytes[] memory elements = new bytes[](1) */\n      swap1\n      pop\n        /* \"contracts/demo1.sol\":682:708  uint256(code).encodeUint() */\n      tag_26\n        /* \"contracts/demo1.sol\":690:694  code */\n      dup4\n        /* \"contracts/demo1.sol\":682:695  uint256(code) */\n      0xffffffff\n      and\n        /* \"contracts/demo1.sol\":682:706  uint256(code).encodeUint */\n      tag_27\n        /* \"contracts/demo1.sol\":682:708  uint256(code).encodeUint() */\n      jump\t// in\n    tag_26:\n        /* \"contracts/demo1.sol\":668:676  elements */\n      dup2\n        /* \"contracts/demo1.sol\":677:678  0 */\n      0x00\n        /* \"contracts/demo1.sol\":668:679  elements[0] */\n      dup2\n      mload\n      dup2\n      lt\n      tag_28\n      jumpi\n      invalid\n    tag_28:\n      0x20\n      mul\n      0x20\n      add\n      add\n        /* \"contracts/demo1.sol\":668:708  elements[0] = uint256(code).encodeUint() */\n      dup2\n      swap1\n      mstore\n      pop\n        /* \"contracts/demo1.sol\":726:747  elements.encodeList() */\n      tag_29\n        /* \"contracts/demo1.sol\":726:734  elements */\n      dup2\n        /* \"contracts/demo1.sol\":726:745  elements.encodeList */\n      tag_30\n        /* \"contracts/demo1.sol\":726:747  elements.encodeList() */\n      jump\t// in\n    tag_29:\n        /* \"contracts/demo1.sol\":719:747  return elements.encodeList() */\n      swap2\n      pop\n      pop\n        /* \"contracts/demo1.sol\":524:755  function encodeCommonAckPackage(uint32 code) internal pure returns (bytes memory) {\r... */\n      swap2\n      swap1\n      pop\n      jump\t// out\n        /* \"contracts/RLPEncode.sol\":1199:1320  function encodeUint(uint self) internal pure returns (bytes memory) {\r... */\n    tag_27:\n        /* \"contracts/RLPEncode.sol\":1253:1265  bytes memory */\n      0x60\n        /* \"contracts/RLPEncode.sol\":1285:1312  encodeBytes(toBinary(self)) */\n      tag_32\n        /* \"contracts/RLPEncode.sol\":1297:1311  toBinary(self) */\n      tag_33\n        /* \"contracts/RLPEncode.sol\":1306:1310  self */\n      dup4\n        /* \"contracts/RLPEncode.sol\":1297:1305  toBinary */\n      tag_34\n        /* \"contracts/RLPEncode.sol\":1297:1311  toBinary(self) */\n      jump\t// in\n    tag_33:\n        /* \"contracts/RLPEncode.sol\":1285:1296  encodeBytes */\n      tag_35\n        /* \"contracts/RLPEncode.sol\":1285:1312  encodeBytes(toBinary(self)) */\n      jump\t// in\n    tag_32:\n        /* \"contracts/RLPEncode.sol\":1278:1312  return encodeBytes(toBinary(self)) */\n      swap1\n      pop\n        /* \"contracts/RLPEncode.sol\":1199:1320  function encodeUint(uint self) internal pure returns (bytes memory) {\r... */\n      swap2\n      swap1\n      pop\n      jump\t// out\n        /* \"contracts/RLPEncode.sol\":2126:2525  function encodeList(bytes[] memory self) internal pure returns (bytes memory) {\r... */\n    tag_30:\n        /* \"contracts/RLPEncode.sol\":2190:2202  bytes memory */\n      0x60\n        /* \"contracts/RLPEncode.sol\":2234:2235  0 */\n      0x00\n        /* \"contracts/RLPEncode.sol\":2219:2223  self */\n      dup3\n        /* \"contracts/RLPEncode.sol\":2219:2230  self.length */\n      mload\n        /* \"contracts/RLPEncode.sol\":2219:2235  self.length == 0 */\n      eq\n        /* \"contracts/RLPEncode.sol\":2215:2283  if (self.length == 0) {\r... */\n      iszero\n      tag_37\n      jumpi\n        /* \"contracts/RLPEncode.sol\":2269:2270  0 */\n      0x00\n        /* \"contracts/RLPEncode.sol\":2259:2271  new bytes(0) */\n      mload(0x40)\n      swap1\n      dup1\n      dup3\n      mstore\n      dup1\n      0x1f\n      add\n      not(0x1f)\n      and\n      0x20\n      add\n      dup3\n      add\n      0x40\n      mstore\n      dup1\n      iszero\n      tag_38\n      jumpi\n      dup2\n      0x20\n      add\n        /* \"--CODEGEN--\":29:30   */\n      0x01\n        /* \"--CODEGEN--\":21:27   */\n      dup3\n        /* \"--CODEGEN--\":17:31   */\n      mul\n        /* \"--CODEGEN--\":116:120   */\n      dup1\n        /* \"--CODEGEN--\":104:114   */\n      codesize\n        /* \"--CODEGEN--\":96:102   */\n      dup4\n        /* \"--CODEGEN--\":87:121   */\n      codecopy\n        /* \"--CODEGEN--\":147:151   */\n      dup1\n        /* \"--CODEGEN--\":139:145   */\n      dup3\n        /* \"--CODEGEN--\":135:152   */\n      add\n        /* \"--CODEGEN--\":125:152   */\n      swap2\n      pop\n        /* \"--CODEGEN--\":0:156   */\n      pop\n        /* \"contracts/RLPEncode.sol\":2259:2271  new bytes(0) */\n      swap1\n      pop\n    tag_38:\n      pop\n        /* \"contracts/RLPEncode.sol\":2252:2271  return new bytes(0) */\n      swap1\n      pop\n      jump(tag_36)\n        /* \"contracts/RLPEncode.sol\":2215:2283  if (self.length == 0) {\r... */\n    tag_37:\n        /* \"contracts/RLPEncode.sol\":2293:2313  bytes memory payload */\n      0x60\n        /* \"contracts/RLPEncode.sol\":2316:2320  self */\n      dup3\n        /* \"contracts/RLPEncode.sol\":2321:2322  0 */\n      0x00\n        /* \"contracts/RLPEncode.sol\":2316:2323  self[0] */\n      dup2\n      mload\n      dup2\n      lt\n      tag_39\n      jumpi\n      invalid\n    tag_39:\n      0x20\n      mul\n      0x20\n      add\n      add\n      mload\n        /* \"contracts/RLPEncode.sol\":2293:2323  bytes memory payload = self[0] */\n      swap1\n      pop\n        /* \"contracts/RLPEncode.sol\":2339:2345  uint i */\n      0x00\n        /* \"contracts/RLPEncode.sol\":2348:2349  1 */\n      0x01\n        /* \"contracts/RLPEncode.sol\":2339:2349  uint i = 1 */\n      swap1\n      pop\n        /* \"contracts/RLPEncode.sol\":2334:2438  for (uint i = 1; i < self.length; i++) {\r... */\n    tag_40:\n        /* \"contracts/RLPEncode.sol\":2355:2359  self */\n      dup4\n        /* \"contracts/RLPEncode.sol\":2355:2366  self.length */\n      mload\n        /* \"contracts/RLPEncode.sol\":2351:2352  i */\n      dup2\n        /* \"contracts/RLPEncode.sol\":2351:2366  i < self.length */\n      lt\n        /* \"contracts/RLPEncode.sol\":2334:2438  for (uint i = 1; i < self.length; i++) {\r... */\n      iszero\n      tag_41\n      jumpi\n        /* \"contracts/RLPEncode.sol\":2398:2426  mergeBytes(payload, self[i]) */\n      tag_43\n        /* \"contracts/RLPEncode.sol\":2409:2416  payload */\n      dup3\n        /* \"contracts/RLPEncode.sol\":2418:2422  self */\n      dup6\n        /* \"contracts/RLPEncode.sol\":2423:2424  i */\n      dup4\n        /* \"contracts/RLPEncode.sol\":2418:2425  self[i] */\n      dup2\n      mload\n      dup2\n      lt\n      tag_44\n      jumpi\n      invalid\n    tag_44:\n      0x20\n      mul\n      0x20\n      add\n      add\n      mload\n        /* \"contracts/RLPEncode.sol\":2398:2408  mergeBytes */\n      tag_45\n        /* \"contracts/RLPEncode.sol\":2398:2426  mergeBytes(payload, self[i]) */\n      jump\t// in\n    tag_43:\n        /* \"contracts/RLPEncode.sol\":2388:2426  payload = mergeBytes(payload, self[i]) */\n      swap2\n      pop\n        /* \"contracts/RLPEncode.sol\":2368:2371  i++ */\n      dup1\n      dup1\n      0x01\n      add\n      swap2\n      pop\n      pop\n        /* \"contracts/RLPEncode.sol\":2334:2438  for (uint i = 1; i < self.length; i++) {\r... */\n      jump(tag_40)\n    tag_41:\n      pop\n        /* \"contracts/RLPEncode.sol\":2455:2517  mergeBytes(encodeLength(payload.length, LIST_OFFSET), payload) */\n      tag_46\n        /* \"contracts/RLPEncode.sol\":2466:2507  encodeLength(payload.length, LIST_OFFSET) */\n      tag_47\n        /* \"contracts/RLPEncode.sol\":2479:2486  payload */\n      dup3\n        /* \"contracts/RLPEncode.sol\":2479:2493  payload.length */\n      mload\n        /* \"contracts/RLPEncode.sol\":134:138  0xc0 */\n      0xc0\n        /* \"contracts/RLPEncode.sol\":2466:2507  encodeLength(payload.length, LIST_OFFSET) */\n      0xff\n      and\n        /* \"contracts/RLPEncode.sol\":2466:2478  encodeLength */\n      tag_48\n        /* \"contracts/RLPEncode.sol\":2466:2507  encodeLength(payload.length, LIST_OFFSET) */\n      jump\t// in\n    tag_47:\n        /* \"contracts/RLPEncode.sol\":2509:2516  payload */\n      dup3\n        /* \"contracts/RLPEncode.sol\":2455:2465  mergeBytes */\n      tag_45\n        /* \"contracts/RLPEncode.sol\":2455:2517  mergeBytes(encodeLength(payload.length, LIST_OFFSET), payload) */\n      jump\t// in\n    tag_46:\n        /* \"contracts/RLPEncode.sol\":2448:2517  return mergeBytes(encodeLength(payload.length, LIST_OFFSET), payload) */\n      swap2\n      pop\n      pop\n        /* \"contracts/RLPEncode.sol\":2126:2525  function encodeList(bytes[] memory self) internal pure returns (bytes memory) {\r... */\n    tag_36:\n      swap2\n      swap1\n      pop\n      jump\t// out\n        /* \"contracts/RLPEncode.sol\":6575:7363  function toBinary(uint x) internal pure returns (bytes memory) {\r... */\n    tag_34:\n        /* \"contracts/RLPEncode.sol\":6624:6636  bytes memory */\n      0x60\n        /* \"contracts/RLPEncode.sol\":6649:6663  bytes memory b */\n      dup1\n        /* \"contracts/RLPEncode.sol\":6676:6678  32 */\n      0x20\n        /* \"contracts/RLPEncode.sol\":6666:6679  new bytes(32) */\n      mload(0x40)\n      swap1\n      dup1\n      dup3\n      mstore\n      dup1\n      0x1f\n      add\n      not(0x1f)\n      and\n      0x20\n      add\n      dup3\n      add\n      0x40\n      mstore\n      dup1\n      iszero\n      tag_50\n      jumpi\n      dup2\n      0x20\n      add\n        /* \"--CODEGEN--\":29:30   */\n      0x01\n        /* \"--CODEGEN--\":21:27   */\n      dup3\n        /* \"--CODEGEN--\":17:31   */\n      mul\n        /* \"--CODEGEN--\":116:120   */\n      dup1\n        /* \"--CODEGEN--\":104:114   */\n      codesize\n        /* \"--CODEGEN--\":96:102   */\n      dup4\n        /* \"--CODEGEN--\":87:121   */\n      codecopy\n        /* \"--CODEGEN--\":147:151   */\n      dup1\n        /* \"--CODEGEN--\":139:145   */\n      dup3\n        /* \"--CODEGEN--\":135:152   */\n      add\n        /* \"--CODEGEN--\":125:152   */\n      swap2\n      pop\n        /* \"--CODEGEN--\":0:156   */\n      pop\n        /* \"contracts/RLPEncode.sol\":6666:6679  new bytes(32) */\n      swap1\n      pop\n    tag_50:\n      pop\n        /* \"contracts/RLPEncode.sol\":6649:6679  bytes memory b = new bytes(32) */\n      swap1\n      pop\n        /* \"contracts/RLPEncode.sol\":6733:6734  x */\n      dup3\n        /* \"contracts/RLPEncode.sol\":6728:6730  32 */\n      0x20\n        /* \"contracts/RLPEncode.sol\":6725:6726  b */\n      dup3\n        /* \"contracts/RLPEncode.sol\":6721:6731  add(b, 32) */\n      add\n        /* \"contracts/RLPEncode.sol\":6714:6735  mstore(add(b, 32), x) */\n      mstore\n        /* \"contracts/RLPEncode.sol\":6756:6762  uint i */\n      0x00\n        /* \"contracts/RLPEncode.sol\":6851:6852  0 */\n      dup1\n        /* \"contracts/RLPEncode.sol\":6781:6847  0xffffffffffffffffffffffffffffffffffffffffffffffff0000000000000000 */\n      0xffffffffffffffffffffffffffffffffffffffffffffffff0000000000000000\n        /* \"contracts/RLPEncode.sol\":6777:6778  x */\n      dup6\n        /* \"contracts/RLPEncode.sol\":6777:6847  x & 0xffffffffffffffffffffffffffffffffffffffffffffffff0000000000000000 */\n      and\n        /* \"contracts/RLPEncode.sol\":6777:6852  x & 0xffffffffffffffffffffffffffffffffffffffffffffffff0000000000000000 == 0 */\n      eq\n        /* \"contracts/RLPEncode.sol\":6773:7045  if (x & 0xffffffffffffffffffffffffffffffffffffffffffffffff0000000000000000 == 0) {\r... */\n      iszero\n      tag_51\n      jumpi\n        /* \"contracts/RLPEncode.sol\":6873:6875  24 */\n      0x18\n        /* \"contracts/RLPEncode.sol\":6869:6875  i = 24 */\n      swap1\n      pop\n        /* \"contracts/RLPEncode.sol\":6773:7045  if (x & 0xffffffffffffffffffffffffffffffffffffffffffffffff0000000000000000 == 0) {\r... */\n      jump(tag_52)\n    tag_51:\n        /* \"contracts/RLPEncode.sol\":6971:6972  0 */\n      0x00\n        /* \"contracts/RLPEncode.sol\":6901:6967  0xffffffffffffffffffffffffffffffff00000000000000000000000000000000 */\n      0xffffffffffffffffffffffffffffffff00000000000000000000000000000000\n        /* \"contracts/RLPEncode.sol\":6897:6898  x */\n      dup6\n        /* \"contracts/RLPEncode.sol\":6897:6967  x & 0xffffffffffffffffffffffffffffffff00000000000000000000000000000000 */\n      and\n        /* \"contracts/RLPEncode.sol\":6897:6972  x & 0xffffffffffffffffffffffffffffffff00000000000000000000000000000000 == 0 */\n      eq\n        /* \"contracts/RLPEncode.sol\":6893:7045  if (x & 0xffffffffffffffffffffffffffffffff00000000000000000000000000000000 == 0) {\r... */\n      iszero\n      tag_53\n      jumpi\n        /* \"contracts/RLPEncode.sol\":6993:6995  16 */\n      0x10\n        /* \"contracts/RLPEncode.sol\":6989:6995  i = 16 */\n      swap1\n      pop\n        /* \"contracts/RLPEncode.sol\":6893:7045  if (x & 0xffffffffffffffffffffffffffffffff00000000000000000000000000000000 == 0) {\r... */\n      jump(tag_54)\n    tag_53:\n        /* \"contracts/RLPEncode.sol\":7032:7033  0 */\n      0x00\n        /* \"contracts/RLPEncode.sol\":7028:7033  i = 0 */\n      swap1\n      pop\n        /* \"contracts/RLPEncode.sol\":6893:7045  if (x & 0xffffffffffffffffffffffffffffffff00000000000000000000000000000000 == 0) {\r... */\n    tag_54:\n        /* \"contracts/RLPEncode.sol\":6773:7045  if (x & 0xffffffffffffffffffffffffffffffffffffffffffffffff0000000000000000 == 0) {\r... */\n    tag_52:\n        /* \"contracts/RLPEncode.sol\":7055:7156  for (; i < 32; i++) {\r... */\n    tag_55:\n        /* \"contracts/RLPEncode.sol\":7066:7068  32 */\n      0x20\n        /* \"contracts/RLPEncode.sol\":7062:7063  i */\n      dup2\n        /* \"contracts/RLPEncode.sol\":7062:7068  i < 32 */\n      lt\n        /* \"contracts/RLPEncode.sol\":7055:7156  for (; i < 32; i++) {\r... */\n      iszero\n      tag_56\n      jumpi\n        /* \"contracts/RLPEncode.sol\":7102:7103  0 */\n      0x00\n        /* \"contracts/RLPEncode.sol\":7094:7103  b[i] != 0 */\n      0xf8\n      shl\n        /* \"contracts/RLPEncode.sol\":7094:7095  b */\n      dup3\n        /* \"contracts/RLPEncode.sol\":7096:7097  i */\n      dup3\n        /* \"contracts/RLPEncode.sol\":7094:7098  b[i] */\n      dup2\n      mload\n      dup2\n      lt\n      tag_58\n      jumpi\n      invalid\n    tag_58:\n      0x20\n      add\n      add\n      mload\n      0xf8\n      shr\n      0xf8\n      shl\n        /* \"contracts/RLPEncode.sol\":7094:7103  b[i] != 0 */\n      not(0xffffffffffffffffffffffffffffffffffffffffffffffffffffffffffffff)\n      and\n      eq\n        /* \"contracts/RLPEncode.sol\":7090:7145  if (b[i] != 0) {\r... */\n      tag_59\n      jumpi\n        /* \"contracts/RLPEncode.sol\":7124:7129  break */\n      jump(tag_56)\n        /* \"contracts/RLPEncode.sol\":7090:7145  if (b[i] != 0) {\r... */\n    tag_59:\n        /* \"contracts/RLPEncode.sol\":7070:7073  i++ */\n      dup1\n      dup1\n      0x01\n      add\n      swap2\n      pop\n      pop\n        /* \"contracts/RLPEncode.sol\":7055:7156  for (; i < 32; i++) {\r... */\n      jump(tag_55)\n    tag_56:\n        /* \"contracts/RLPEncode.sol\":7166:7177  uint length */\n      0x00\n        /* \"contracts/RLPEncode.sol\":7185:7186  i */\n      dup2\n        /* \"contracts/RLPEncode.sol\":7180:7182  32 */\n      0x20\n        /* \"contracts/RLPEncode.sol\":7180:7186  32 - i */\n      sub\n        /* \"contracts/RLPEncode.sol\":7166:7186  uint length = 32 - i */\n      swap1\n      pop\n        /* \"contracts/RLPEncode.sol\":7197:7212  bytes memory rs */\n      0x60\n        /* \"contracts/RLPEncode.sol\":7225:7231  length */\n      dup2\n        /* \"contracts/RLPEncode.sol\":7215:7232  new bytes(length) */\n      mload(0x40)\n      swap1\n      dup1\n      dup3\n      mstore\n      dup1\n      0x1f\n      add\n      not(0x1f)\n      and\n      0x20\n      add\n      dup3\n      add\n      0x40\n      mstore\n      dup1\n      iszero\n      tag_60\n      jumpi\n      dup2\n      0x20\n      add\n        /* \"--CODEGEN--\":29:30   */\n      0x01\n        /* \"--CODEGEN--\":21:27   */\n      dup3\n        /* \"--CODEGEN--\":17:31   */\n      mul\n        /* \"--CODEGEN--\":116:120   */\n      dup1\n        /* \"--CODEGEN--\":104:114   */\n      codesize\n        /* \"--CODEGEN--\":96:102   */\n      dup4\n        /* \"--CODEGEN--\":87:121   */\n      codecopy\n        /* \"--CODEGEN--\":147:151   */\n      dup1\n        /* \"--CODEGEN--\":139:145   */\n      dup3\n        /* \"--CODEGEN--\":135:152   */\n      add\n        /* \"--CODEGEN--\":125:152   */\n      swap2\n      pop\n        /* \"--CODEGEN--\":0:156   */\n      pop\n        /* \"contracts/RLPEncode.sol\":7215:7232  new bytes(length) */\n      swap1\n      pop\n    tag_60:\n      pop\n        /* \"contracts/RLPEncode.sol\":7197:7232  bytes memory rs = new bytes(length) */\n      swap1\n      pop\n        /* \"contracts/RLPEncode.sol\":7291:7292  x */\n      dup6\n        /* \"contracts/RLPEncode.sol\":7282:7288  length */\n      dup3\n        /* \"contracts/RLPEncode.sol\":7278:7280  rs */\n      dup3\n        /* \"contracts/RLPEncode.sol\":7274:7289  add(rs, length) */\n      add\n        /* \"contracts/RLPEncode.sol\":7267:7293  mstore(add(rs, length), x) */\n      mstore\n        /* \"contracts/RLPEncode.sol\":7318:7324  length */\n      dup2\n        /* \"contracts/RLPEncode.sol\":7314:7316  rs */\n      dup2\n        /* \"contracts/RLPEncode.sol\":7307:7325  mstore(rs, length) */\n      mstore\n        /* \"contracts/RLPEncode.sol\":7353:7355  rs */\n      dup1\n        /* \"contracts/RLPEncode.sol\":7346:7355  return rs */\n      swap5\n      pop\n      pop\n      pop\n      pop\n      pop\n        /* \"contracts/RLPEncode.sol\":6575:7363  function toBinary(uint x) internal pure returns (bytes memory) {\r... */\n      swap2\n      swap1\n      pop\n      jump\t// out\n        /* \"contracts/RLPEncode.sol\":311:561  function encodeBytes(bytes memory self) internal pure returns (bytes memory) {\r... */\n    tag_35:\n        /* \"contracts/RLPEncode.sol\":374:386  bytes memory */\n      0x60\n        /* \"contracts/RLPEncode.sol\":418:419  1 */\n      0x01\n        /* \"contracts/RLPEncode.sol\":403:407  self */\n      dup3\n        /* \"contracts/RLPEncode.sol\":403:414  self.length */\n      mload\n        /* \"contracts/RLPEncode.sol\":403:419  self.length == 1 */\n      eq\n        /* \"contracts/RLPEncode.sol\":403:438  self.length == 1 && self[0] <= 0x7f */\n      dup1\n      iszero\n      tag_62\n      jumpi\n      pop\n        /* \"contracts/RLPEncode.sol\":434:438  0x7f */\n      0x7f\n        /* \"contracts/RLPEncode.sol\":423:438  self[0] <= 0x7f */\n      0xf8\n      shl\n        /* \"contracts/RLPEncode.sol\":423:427  self */\n      dup3\n        /* \"contracts/RLPEncode.sol\":428:429  0 */\n      0x00\n        /* \"contracts/RLPEncode.sol\":423:430  self[0] */\n      dup2\n      mload\n      dup2\n      lt\n      tag_63\n      jumpi\n      invalid\n    tag_63:\n      0x20\n      add\n      add\n      mload\n      0xf8\n      shr\n      0xf8\n      shl\n        /* \"contracts/RLPEncode.sol\":423:438  self[0] <= 0x7f */\n      not(0xffffffffffffffffffffffffffffffffffffffffffffffffffffffffffffff)\n      and\n      gt\n      iszero\n        /* \"contracts/RLPEncode.sol\":403:438  self.length == 1 && self[0] <= 0x7f */\n    tag_62:\n        /* \"contracts/RLPEncode.sol\":399:478  if (self.length == 1 && self[0] <= 0x7f) {\r... */\n      iszero\n      tag_64\n      jumpi\n        /* \"contracts/RLPEncode.sol\":462:466  self */\n      dup2\n        /* \"contracts/RLPEncode.sol\":455:466  return self */\n      swap1\n      pop\n      jump(tag_61)\n        /* \"contracts/RLPEncode.sol\":399:478  if (self.length == 1 && self[0] <= 0x7f) {\r... */\n    tag_64:\n        /* \"contracts/RLPEncode.sol\":495:553  mergeBytes(encodeLength(self.length, STRING_OFFSET), self) */\n      tag_65\n        /* \"contracts/RLPEncode.sol\":506:546  encodeLength(self.length, STRING_OFFSET) */\n      tag_66\n        /* \"contracts/RLPEncode.sol\":519:523  self */\n      dup4\n        /* \"contracts/RLPEncode.sol\":519:530  self.length */\n      mload\n        /* \"contracts/RLPEncode.sol\":94:98  0x80 */\n      0x80\n        /* \"contracts/RLPEncode.sol\":506:546  encodeLength(self.length, STRING_OFFSET) */\n      0xff\n      and\n        /* \"contracts/RLPEncode.sol\":506:518  encodeLength */\n      tag_48\n        /* \"contracts/RLPEncode.sol\":506:546  encodeLength(self.length, STRING_OFFSET) */\n      jump\t// in\n    tag_66:\n        /* \"contracts/RLPEncode.sol\":548:552  self */\n      dup4\n        /* \"contracts/RLPEncode.sol\":495:505  mergeBytes */\n      tag_45\n        /* \"contracts/RLPEncode.sol\":495:553  mergeBytes(encodeLength(self.length, STRING_OFFSET), self) */\n      jump\t// in\n    tag_65:\n        /* \"contracts/RLPEncode.sol\":488:553  return mergeBytes(encodeLength(self.length, STRING_OFFSET), self) */\n      swap1\n      pop\n        /* \"contracts/RLPEncode.sol\":311:561  function encodeBytes(bytes memory self) internal pure returns (bytes memory) {\r... */\n    tag_61:\n      swap2\n      swap1\n      pop\n      jump\t// out\n        /* \"contracts/RLPEncode.sol\":2726:5641  function mergeBytes(\r... */\n    tag_45:\n        /* \"contracts/RLPEncode.sol\":2858:2870  bytes memory */\n      0x60\n        /* \"contracts/RLPEncode.sol\":2888:2910  bytes memory tempBytes */\n      dup1\n        /* \"contracts/RLPEncode.sol\":3090:3094  0x40 */\n      0x40\n        /* \"contracts/RLPEncode.sol\":3084:3095  mload(0x40) */\n      mload\n        /* \"contracts/RLPEncode.sol\":3071:3095  tempBytes := mload(0x40) */\n      swap1\n      pop\n        /* \"contracts/RLPEncode.sol\":3243:3252  _preBytes */\n      dup4\n        /* \"contracts/RLPEncode.sol\":3237:3253  mload(_preBytes) */\n      mload\n        /* \"contracts/RLPEncode.sol\":3285:3291  length */\n      dup1\n        /* \"contracts/RLPEncode.sol\":3274:3283  tempBytes */\n      dup3\n        /* \"contracts/RLPEncode.sol\":3267:3292  mstore(tempBytes, length) */\n      mstore\n        /* \"contracts/RLPEncode.sol\":3520:3524  0x20 */\n      0x20\n        /* \"contracts/RLPEncode.sol\":3509:3518  tempBytes */\n      dup3\n        /* \"contracts/RLPEncode.sol\":3505:3525  add(tempBytes, 0x20) */\n      add\n        /* \"contracts/RLPEncode.sol\":3664:3670  length */\n      dup2\n        /* \"contracts/RLPEncode.sol\":3660:3662  mc */\n      dup2\n        /* \"contracts/RLPEncode.sol\":3656:3671  add(mc, length) */\n      add\n        /* \"contracts/RLPEncode.sol\":3855:3859  0x20 */\n      0x20\n        /* \"contracts/RLPEncode.sol\":3844:3853  _preBytes */\n      dup8\n        /* \"contracts/RLPEncode.sol\":3840:3860  add(_preBytes, 0x20) */\n      add\n        /* \"contracts/RLPEncode.sol\":3687:4204  for {\r... */\n    tag_68:\n        /* \"contracts/RLPEncode.sol\":3883:3886  end */\n      dup2\n        /* \"contracts/RLPEncode.sol\":3879:3881  mc */\n      dup4\n        /* \"contracts/RLPEncode.sol\":3876:3887  lt(mc, end) */\n      lt\n        /* \"contracts/RLPEncode.sol\":3687:4204  for {\r... */\n      iszero\n      tag_70\n      jumpi\n        /* \"contracts/RLPEncode.sol\":4185:4187  cc */\n      dup1\n        /* \"contracts/RLPEncode.sol\":4179:4188  mload(cc) */\n      mload\n        /* \"contracts/RLPEncode.sol\":4175:4177  mc */\n      dup4\n        /* \"contracts/RLPEncode.sol\":4168:4189  mstore(mc, mload(cc)) */\n      mstore\n        /* \"contracts/RLPEncode.sol\":3988:3992  0x20 */\n      0x20\n        /* \"contracts/RLPEncode.sol\":3984:3986  mc */\n      dup4\n        /* \"contracts/RLPEncode.sol\":3980:3993  add(mc, 0x20) */\n      add\n        /* \"contracts/RLPEncode.sol\":3974:3993  mc := add(mc, 0x20) */\n      swap3\n      pop\n        /* \"contracts/RLPEncode.sol\":4025:4029  0x20 */\n      0x20\n        /* \"contracts/RLPEncode.sol\":4021:4023  cc */\n      dup2\n        /* \"contracts/RLPEncode.sol\":4017:4030  add(cc, 0x20) */\n      add\n        /* \"contracts/RLPEncode.sol\":4011:4030  cc := add(cc, 0x20) */\n      swap1\n      pop\n        /* \"contracts/RLPEncode.sol\":3687:4204  for {\r... */\n      jump(tag_68)\n    tag_70:\n        /* \"contracts/RLPEncode.sol\":3691:3875  {\r... */\n      pop\n        /* \"contracts/RLPEncode.sol\":4414:4424  _postBytes */\n      dup6\n        /* \"contracts/RLPEncode.sol\":4408:4425  mload(_postBytes) */\n      mload\n        /* \"contracts/RLPEncode.sol\":4398:4425  length := mload(_postBytes) */\n      swap3\n      pop\n        /* \"contracts/RLPEncode.sol\":4475:4484  tempBytes */\n      dup4\n        /* \"contracts/RLPEncode.sol\":4469:4485  mload(tempBytes) */\n      mload\n        /* \"contracts/RLPEncode.sol\":4461:4467  length */\n      dup4\n        /* \"contracts/RLPEncode.sol\":4457:4486  add(length, mload(tempBytes)) */\n      add\n        /* \"contracts/RLPEncode.sol\":4446:4455  tempBytes */\n      dup5\n        /* \"contracts/RLPEncode.sol\":4439:4487  mstore(tempBytes, add(length, mload(tempBytes))) */\n      mstore\n        /* \"contracts/RLPEncode.sol\":4627:4630  end */\n      dup1\n        /* \"contracts/RLPEncode.sol\":4621:4630  mc := end */\n      swap2\n      pop\n        /* \"contracts/RLPEncode.sol\":4767:4773  length */\n      dup3\n        /* \"contracts/RLPEncode.sol\":4763:4765  mc */\n      dup3\n        /* \"contracts/RLPEncode.sol\":4759:4774  add(mc, length) */\n      add\n        /* \"contracts/RLPEncode.sol\":4752:4774  end := add(mc, length) */\n      swap1\n      pop\n        /* \"contracts/RLPEncode.sol\":4839:4843  0x20 */\n      0x20\n        /* \"contracts/RLPEncode.sol\":4827:4837  _postBytes */\n      dup7\n        /* \"contracts/RLPEncode.sol\":4823:4844  add(_postBytes, 0x20) */\n      add\n        /* \"contracts/RLPEncode.sol\":4790:5018  for {\r... */\n    tag_71:\n        /* \"contracts/RLPEncode.sol\":4867:4870  end */\n      dup2\n        /* \"contracts/RLPEncode.sol\":4863:4865  mc */\n      dup4\n        /* \"contracts/RLPEncode.sol\":4860:4871  lt(mc, end) */\n      lt\n        /* \"contracts/RLPEncode.sol\":4790:5018  for {\r... */\n      iszero\n      tag_73\n      jumpi\n        /* \"contracts/RLPEncode.sol\":4999:5001  cc */\n      dup1\n        /* \"contracts/RLPEncode.sol\":4993:5002  mload(cc) */\n      mload\n        /* \"contracts/RLPEncode.sol\":4989:4991  mc */\n      dup4\n        /* \"contracts/RLPEncode.sol\":4982:5003  mstore(mc, mload(cc)) */\n      mstore\n        /* \"contracts/RLPEncode.sol\":4905:4909  0x20 */\n      0x20\n        /* \"contracts/RLPEncode.sol\":4901:4903  mc */\n      dup4\n        /* \"contracts/RLPEncode.sol\":4897:4910  add(mc, 0x20) */\n      add\n        /* \"contracts/RLPEncode.sol\":4891:4910  mc := add(mc, 0x20) */\n      swap3\n      pop\n        /* \"contracts/RLPEncode.sol\":4942:4946  0x20 */\n      0x20\n        /* \"contracts/RLPEncode.sol\":4938:4940  cc */\n      dup2\n        /* \"contracts/RLPEncode.sol\":4934:4947  add(cc, 0x20) */\n      add\n        /* \"contracts/RLPEncode.sol\":4928:4947  cc := add(cc, 0x20) */\n      swap1\n      pop\n        /* \"contracts/RLPEncode.sol\":4790:5018  for {\r... */\n      jump(tag_71)\n    tag_73:\n        /* \"contracts/RLPEncode.sol\":4794:4859  {\r... */\n      pop\n        /* \"contracts/RLPEncode.sol\":5536:5538  31 */\n      0x1f\n        /* \"contracts/RLPEncode.sol\":5532:5539  not(31) */\n      not\n        /* \"contracts/RLPEncode.sol\":5514:5516  31 */\n      0x1f\n        /* \"contracts/RLPEncode.sol\":5499:5508  _preBytes */\n      dup9\n        /* \"contracts/RLPEncode.sol\":5493:5509  mload(_preBytes) */\n      mload\n        /* \"contracts/RLPEncode.sol\":5485:5491  length */\n      dup6\n        /* \"contracts/RLPEncode.sol\":5481:5510  add(length, mload(_preBytes)) */\n      add\n        /* \"contracts/RLPEncode.sol\":5474:5511  iszero(add(length, mload(_preBytes))) */\n      iszero\n        /* \"contracts/RLPEncode.sol\":5469:5472  end */\n      dup4\n        /* \"contracts/RLPEncode.sol\":5465:5512  add(end, iszero(add(length, mload(_preBytes)))) */\n      add\n        /* \"contracts/RLPEncode.sol\":5461:5517  add(add(end, iszero(add(length, mload(_preBytes)))), 31) */\n      add\n        /* \"contracts/RLPEncode.sol\":5443:5593  and(\r... */\n      and\n        /* \"contracts/RLPEncode.sol\":5437:5441  0x40 */\n      0x40\n        /* \"contracts/RLPEncode.sol\":5430:5594  mstore(0x40, and(\r... */\n      mstore\n        /* \"contracts/RLPEncode.sol\":2932:5605  {\r... */\n      pop\n      pop\n      pop\n        /* \"contracts/RLPEncode.sol\":5624:5633  tempBytes */\n      dup1\n        /* \"contracts/RLPEncode.sol\":5617:5633  return tempBytes */\n      swap2\n      pop\n      pop\n        /* \"contracts/RLPEncode.sol\":2726:5641  function mergeBytes(\r... */\n      swap3\n      swap2\n      pop\n      pop\n      jump\t// out\n        /* \"contracts/RLPEncode.sol\":5958:6396  function encodeLength(uint length, uint offset) internal pure returns (bytes memory) {\r... */\n    tag_48:\n        /* \"contracts/RLPEncode.sol\":6029:6041  bytes memory */\n      0x60\n        /* \"contracts/RLPEncode.sol\":6071:6077  256**8 */\n      0x010000000000000000\n        /* \"contracts/RLPEncode.sol\":6062:6068  length */\n      dup4\n        /* \"contracts/RLPEncode.sol\":6062:6077  length < 256**8 */\n      lt\n        /* \"contracts/RLPEncode.sol\":6054:6096  require(length < 256**8, \"input too long\") */\n      tag_75\n      jumpi\n      mload(0x40)\n      0x08c379a000000000000000000000000000000000000000000000000000000000\n      dup2\n      mstore\n      0x04\n      add\n      dup1\n      dup1\n      0x20\n      add\n      dup3\n      dup2\n      sub\n      dup3\n      mstore\n      0x0e\n      dup2\n      mstore\n      0x20\n      add\n      dup1\n      0x696e70757420746f6f206c6f6e67000000000000000000000000000000000000\n      dup2\n      mstore\n      pop\n      0x20\n      add\n      swap2\n      pop\n      pop\n      mload(0x40)\n      dup1\n      swap2\n      sub\n      swap1\n      revert\n    tag_75:\n        /* \"contracts/RLPEncode.sol\":6107:6122  bytes memory rs */\n      0x60\n        /* \"contracts/RLPEncode.sol\":6135:6136  1 */\n      0x01\n        /* \"contracts/RLPEncode.sol\":6125:6137  new bytes(1) */\n      mload(0x40)\n      swap1\n      dup1\n      dup3\n      mstore\n      dup1\n      0x1f\n      add\n      not(0x1f)\n      and\n      0x20\n      add\n      dup3\n      add\n      0x40\n      mstore\n      dup1\n      iszero\n      tag_76\n      jumpi\n      dup2\n      0x20\n      add\n        /* \"--CODEGEN--\":29:30   */\n      0x01\n        /* \"--CODEGEN--\":21:27   */\n      dup3\n        /* \"--CODEGEN--\":17:31   */\n      mul\n        /* \"--CODEGEN--\":116:120   */\n      dup1\n        /* \"--CODEGEN--\":104:114   */\n      codesize\n        /* \"--CODEGEN--\":96:102   */\n      dup4\n        /* \"--CODEGEN--\":87:121   */\n      codecopy\n        /* \"--CODEGEN--\":147:151   */\n      dup1\n        /* \"--CODEGEN--\":139:145   */\n      dup3\n        /* \"--CODEGEN--\":135:152   */\n      add\n        /* \"--CODEGEN--\":125:152   */\n      swap2\n      pop\n        /* \"--CODEGEN--\":0:156   */\n      pop\n        /* \"contracts/RLPEncode.sol\":6125:6137  new bytes(1) */\n      swap1\n      pop\n    tag_76:\n      pop\n        /* \"contracts/RLPEncode.sol\":6107:6137  bytes memory rs = new bytes(1) */\n      swap1\n      pop\n        /* \"contracts/RLPEncode.sol\":6162:6164  55 */\n      0x37\n        /* \"contracts/RLPEncode.sol\":6152:6158  length */\n      dup5\n        /* \"contracts/RLPEncode.sol\":6152:6164  length <= 55 */\n      gt\n        /* \"contracts/RLPEncode.sol\":6148:6253  if (length <= 55) {\r... */\n      tag_77\n      jumpi\n        /* \"contracts/RLPEncode.sol\":6209:6215  offset */\n      dup3\n        /* \"contracts/RLPEncode.sol\":6200:6206  length */\n      dup5\n        /* \"contracts/RLPEncode.sol\":6200:6215  length + offset */\n      add\n        /* \"contracts/RLPEncode.sol\":6189:6217  byte(uint8(length + offset)) */\n      0xf8\n      shl\n        /* \"contracts/RLPEncode.sol\":6181:6183  rs */\n      dup2\n        /* \"contracts/RLPEncode.sol\":6184:6185  0 */\n      0x00\n        /* \"contracts/RLPEncode.sol\":6181:6186  rs[0] */\n      dup2\n      mload\n      dup2\n      lt\n      tag_78\n      jumpi\n      invalid\n    tag_78:\n      0x20\n      add\n      add\n        /* \"contracts/RLPEncode.sol\":6181:6217  rs[0] = byte(uint8(length + offset)) */\n      swap1\n      not(0xffffffffffffffffffffffffffffffffffffffffffffffffffffffffffffff)\n      and\n      swap1\n      dup2\n      0x00\n      byte\n      swap1\n      mstore8\n      pop\n        /* \"contracts/RLPEncode.sol\":6239:6241  rs */\n      dup1\n        /* \"contracts/RLPEncode.sol\":6232:6241  return rs */\n      swap2\n      pop\n      pop\n      jump(tag_74)\n        /* \"contracts/RLPEncode.sol\":6148:6253  if (length <= 55) {\r... */\n    tag_77:\n        /* \"contracts/RLPEncode.sol\":6263:6278  bytes memory bl */\n      0x60\n        /* \"contracts/RLPEncode.sol\":6281:6297  toBinary(length) */\n      tag_79\n        /* \"contracts/RLPEncode.sol\":6290:6296  length */\n      dup6\n        /* \"contracts/RLPEncode.sol\":6281:6289  toBinary */\n      tag_34\n        /* \"contracts/RLPEncode.sol\":6281:6297  toBinary(length) */\n      jump\t// in\n    tag_79:\n        /* \"contracts/RLPEncode.sol\":6263:6297  bytes memory bl = toBinary(length) */\n      swap1\n      pop\n        /* \"contracts/RLPEncode.sol\":6348:6350  55 */\n      0x37\n        /* \"contracts/RLPEncode.sol\":6339:6345  offset */\n      dup5\n        /* \"contracts/RLPEncode.sol\":6327:6329  bl */\n      dup3\n        /* \"contracts/RLPEncode.sol\":6327:6336  bl.length */\n      mload\n        /* \"contracts/RLPEncode.sol\":6327:6345  bl.length + offset */\n      add\n        /* \"contracts/RLPEncode.sol\":6327:6350  bl.length + offset + 55 */\n      add\n        /* \"contracts/RLPEncode.sol\":6316:6352  byte(uint8(bl.length + offset + 55)) */\n      0xf8\n      shl\n        /* \"contracts/RLPEncode.sol\":6308:6310  rs */\n      dup3\n        /* \"contracts/RLPEncode.sol\":6311:6312  0 */\n      0x00\n        /* \"contracts/RLPEncode.sol\":6308:6313  rs[0] */\n      dup2\n      mload\n      dup2\n      lt\n      tag_80\n      jumpi\n      invalid\n    tag_80:\n      0x20\n      add\n      add\n        /* \"contracts/RLPEncode.sol\":6308:6352  rs[0] = byte(uint8(bl.length + offset + 55)) */\n      swap1\n      not(0xffffffffffffffffffffffffffffffffffffffffffffffffffffffffffffff)\n      and\n      swap1\n      dup2\n      0x00\n      byte\n      swap1\n      mstore8\n      pop\n        /* \"contracts/RLPEncode.sol\":6370:6388  mergeBytes(rs, bl) */\n      tag_81\n        /* \"contracts/RLPEncode.sol\":6381:6383  rs */\n      dup3\n        /* \"contracts/RLPEncode.sol\":6385:6387  bl */\n      dup3\n        /* \"contracts/RLPEncode.sol\":6370:6380  mergeBytes */\n      tag_45\n        /* \"contracts/RLPEncode.sol\":6370:6388  mergeBytes(rs, bl) */\n      jump\t// in\n    tag_81:\n        /* \"contracts/RLPEncode.sol\":6363:6388  return mergeBytes(rs, bl) */\n      swap3\n      pop\n      pop\n      pop\n        /* \"contracts/RLPEncode.sol\":5958:6396  function encodeLength(uint length, uint offset) internal pure returns (bytes memory) {\r... */\n    tag_74:\n      swap3\n      swap2\n      pop\n      pop\n      jump\t// out\n\n    auxdata: 0xa265627a7a72315820001ffb1b6e33c3c9d8245fff1935c349456186e5e195306e67b5bc7ba30cb2bf64736f6c63430005100032\n}\n",
				"bytecode": {
					"linkReferences": {},
					"object": "610721610026600b82828239805160001a60731461001957fe5b30600052607381538281f3fe73000000000000000000000000000000000000000030146080604052600436106100405760003560e01c8063aacc9bf814610045578063b9b19786146100f2575b600080fd5b6100776004803603602081101561005b57600080fd5b81019080803563ffffffff16906020019092919050505061019f565b6040518080602001828103825283818151815260200191508051906020019080838360005b838110156100b757808201518184015260208101905061009c565b50505050905090810190601f1680156100e45780820380516001836020036101000a031916815260200191505b509250505060405180910390f35b6101246004803603602081101561010857600080fd5b81019080803563ffffffff1690602001909291905050506101b1565b6040518080602001828103825283818151815260200191508051906020019080838360005b83811015610164578082015181840152602081019050610149565b50505050905090810190601f1680156101915780820380516001836020036101000a031916815260200191505b509250505060405180910390f35b60606101aa826101c3565b9050919050565b60606101bc826101c3565b9050919050565b60608060016040519080825280602002602001820160405280156101fb57816020015b60608152602001906001900390816101e65790505b50905061020d8363ffffffff16610236565b8160008151811061021a57fe5b602002602001018190525061022e81610250565b915050919050565b60606102496102448361030f565b610471565b9050919050565b60606000825114156102985760006040519080825280601f01601f1916602001820160405280156102905781602001600182028038833980820191505090505b50905061030a565b6060826000815181106102a757fe5b602002602001015190506000600190505b83518110156102ed576102de828583815181106102d157fe5b60200260200101516104ee565b915080806001019150506102b8565b50610306610300825160c060ff16610578565b826104ee565b9150505b919050565b60608060206040519080825280601f01601f1916602001820160405280156103465781602001600182028038833980820191505090505b5090508260208201526000807fffffffffffffffffffffffffffffffffffffffffffffffff00000000000000008516141561038457601890506103be565b60007fffffffffffffffffffffffffffffffff00000000000000000000000000000000851614156103b857601090506103bd565b600090505b5b5b602081101561041d57600060f81b8282815181106103d957fe5b602001015160f81c60f81b7effffffffffffffffffffffffffffffffffffffffffffffffffffffffffffff1916146104105761041d565b80806001019150506103bf565b60008160200390506060816040519080825280601f01601f19166020018201604052801561045a5781602001600182028038833980820191505090505b509050858282015281815280945050505050919050565b6060600182511480156104c15750607f60f81b8260008151811061049157fe5b602001015160f81c60f81b7effffffffffffffffffffffffffffffffffffffffffffffffffffffffffffff191611155b156104ce578190506104e9565b6104e66104e08351608060ff16610578565b836104ee565b90505b919050565b6060806040519050835180825260208201818101602087015b818310156105245780518352602083019250602081019050610507565b50855192508351830184528091508282019050602086015b81831015610559578051835260208301925060208101905061053c565b50601f19601f8851850115830101166040525050508091505092915050565b60606801000000000000000083106105f8576040517f08c379a000000000000000000000000000000000000000000000000000000000815260040180806020018281038252600e8152602001807f696e70757420746f6f206c6f6e6700000000000000000000000000000000000081525060200191505060405180910390fd5b606060016040519080825280601f01601f19166020018201604052801561062e5781602001600182028038833980820191505090505b509050603784116106845782840160f81b8160008151811061064c57fe5b60200101907effffffffffffffffffffffffffffffffffffffffffffffffffffffffffffff1916908160001a905350809150506106e6565b606061068f8561030f565b90506037848251010160f81b826000815181106106a857fe5b60200101907effffffffffffffffffffffffffffffffffffffffffffffffffffffffffffff1916908160001a9053506106e182826104ee565b925050505b9291505056fea265627a7a72315820001ffb1b6e33c3c9d8245fff1935c349456186e5e195306e67b5bc7ba30cb2bf64736f6c63430005100032",
					"opcodes": "PUSH2 0x721 PUSH2 0x26 PUSH1 0xB DUP3 DUP3 DUP3 CODECOPY DUP1 MLOAD PUSH1 0x0 BYTE PUSH1 0x73 EQ PUSH2 0x19 JUMPI INVALID JUMPDEST ADDRESS PUSH1 0x0 MSTORE PUSH1 0x73 DUP2 MSTORE8 DUP3 DUP2 RETURN INVALID PUSH20 0x0 ADDRESS EQ PUSH1 0x80 PUSH1 0x40 MSTORE PUSH1 0x4 CALLDATASIZE LT PUSH2 0x40 JUMPI PUSH1 0x0 CALLDATALOAD PUSH1 0xE0 SHR DUP1 PUSH4 0xAACC9BF8 EQ PUSH2 0x45 JUMPI DUP1 PUSH4 0xB9B19786 EQ PUSH2 0xF2 JUMPI JUMPDEST PUSH1 0x0 DUP1 REVERT JUMPDEST PUSH2 0x77 PUSH1 0x4 DUP1 CALLDATASIZE SUB PUSH1 0x20 DUP2 LT ISZERO PUSH2 0x5B JUMPI PUSH1 0x0 DUP1 REVERT JUMPDEST DUP2 ADD SWAP1 DUP1 DUP1 CALLDATALOAD PUSH4 0xFFFFFFFF AND SWAP1 PUSH1 0x20 ADD SWAP1 SWAP3 SWAP2 SWAP1 POP POP POP PUSH2 0x19F JUMP JUMPDEST PUSH1 0x40 MLOAD DUP1 DUP1 PUSH1 0x20 ADD DUP3 DUP2 SUB DUP3 MSTORE DUP4 DUP2 DUP2 MLOAD DUP2 MSTORE PUSH1 0x20 ADD SWAP2 POP DUP1 MLOAD SWAP1 PUSH1 0x20 ADD SWAP1 DUP1 DUP4 DUP4 PUSH1 0x0 JUMPDEST DUP4 DUP2 LT ISZERO PUSH2 0xB7 JUMPI DUP1 DUP3 ADD MLOAD DUP2 DUP5 ADD MSTORE PUSH1 0x20 DUP2 ADD SWAP1 POP PUSH2 0x9C JUMP JUMPDEST POP POP POP POP SWAP1 POP SWAP1 DUP2 ADD SWAP1 PUSH1 0x1F AND DUP1 ISZERO PUSH2 0xE4 JUMPI DUP1 DUP3 SUB DUP1 MLOAD PUSH1 0x1 DUP4 PUSH1 0x20 SUB PUSH2 0x100 EXP SUB NOT AND DUP2 MSTORE PUSH1 0x20 ADD SWAP2 POP JUMPDEST POP SWAP3 POP POP POP PUSH1 0x40 MLOAD DUP1 SWAP2 SUB SWAP1 RETURN JUMPDEST PUSH2 0x124 PUSH1 0x4 DUP1 CALLDATASIZE SUB PUSH1 0x20 DUP2 LT ISZERO PUSH2 0x108 JUMPI PUSH1 0x0 DUP1 REVERT JUMPDEST DUP2 ADD SWAP1 DUP1 DUP1 CALLDATALOAD PUSH4 0xFFFFFFFF AND SWAP1 PUSH1 0x20 ADD SWAP1 SWAP3 SWAP2 SWAP1 POP POP POP PUSH2 0x1B1 JUMP JUMPDEST PUSH1 0x40 MLOAD DUP1 DUP1 PUSH1 0x20 ADD DUP3 DUP2 SUB DUP3 MSTORE DUP4 DUP2 DUP2 MLOAD DUP2 MSTORE PUSH1 0x20 ADD SWAP2 POP DUP1 MLOAD SWAP1 PUSH1 0x20 ADD SWAP1 DUP1 DUP4 DUP4 PUSH1 0x0 JUMPDEST DUP4 DUP2 LT ISZERO PUSH2 0x164 JUMPI DUP1 DUP3 ADD MLOAD DUP2 DUP5 ADD MSTORE PUSH1 0x20 DUP2 ADD SWAP1 POP PUSH2 0x149 JUMP JUMPDEST POP POP POP POP SWAP1 POP SWAP1 DUP2 ADD SWAP1 PUSH1 0x1F AND DUP1 ISZERO PUSH2 0x191 JUMPI DUP1 DUP3 SUB DUP1 MLOAD PUSH1 0x1 DUP4 PUSH1 0x20 SUB PUSH2 0x100 EXP SUB NOT AND DUP2 MSTORE PUSH1 0x20 ADD SWAP2 POP JUMPDEST POP SWAP3 POP POP POP PUSH1 0x40 MLOAD DUP1 SWAP2 SUB SWAP1 RETURN JUMPDEST PUSH1 0x60 PUSH2 0x1AA DUP3 PUSH2 0x1C3 JUMP JUMPDEST SWAP1 POP SWAP2 SWAP1 POP JUMP JUMPDEST PUSH1 0x60 PUSH2 0x1BC DUP3 PUSH2 0x1C3 JUMP JUMPDEST SWAP1 POP SWAP2 SWAP1 POP JUMP JUMPDEST PUSH1 0x60 DUP1 PUSH1 0x1 PUSH1 0x40 MLOAD SWAP1 DUP1 DUP3 MSTORE DUP1 PUSH1 0x20 MUL PUSH1 0x20 ADD DUP3 ADD PUSH1 0x40 MSTORE DUP1 ISZERO PUSH2 0x1FB JUMPI DUP2 PUSH1 0x20 ADD JUMPDEST PUSH1 0x60 DUP2 MSTORE PUSH1 0x20 ADD SWAP1 PUSH1 0x1 SWAP1 SUB SWAP1 DUP2 PUSH2 0x1E6 JUMPI SWAP1 POP JUMPDEST POP SWAP1 POP PUSH2 0x20D DUP4 PUSH4 0xFFFFFFFF AND PUSH2 0x236 JUMP JUMPDEST DUP2 PUSH1 0x0 DUP2 MLOAD DUP2 LT PUSH2 0x21A JUMPI INVALID JUMPDEST PUSH1 0x20 MUL PUSH1 0x20 ADD ADD DUP2 SWAP1 MSTORE POP PUSH2 0x22E DUP2 PUSH2 0x250 JUMP JUMPDEST SWAP2 POP POP SWAP2 SWAP1 POP JUMP JUMPDEST PUSH1 0x60 PUSH2 0x249 PUSH2 0x244 DUP4 PUSH2 0x30F JUMP JUMPDEST PUSH2 0x471 JUMP JUMPDEST SWAP1 POP SWAP2 SWAP1 POP JUMP JUMPDEST PUSH1 0x60 PUSH1 0x0 DUP3 MLOAD EQ ISZERO PUSH2 0x298 JUMPI PUSH1 0x0 PUSH1 0x40 MLOAD SWAP1 DUP1 DUP3 MSTORE DUP1 PUSH1 0x1F ADD PUSH1 0x1F NOT AND PUSH1 0x20 ADD DUP3 ADD PUSH1 0x40 MSTORE DUP1 ISZERO PUSH2 0x290 JUMPI DUP2 PUSH1 0x20 ADD PUSH1 0x1 DUP3 MUL DUP1 CODESIZE DUP4 CODECOPY DUP1 DUP3 ADD SWAP2 POP POP SWAP1 POP JUMPDEST POP SWAP1 POP PUSH2 0x30A JUMP JUMPDEST PUSH1 0x60 DUP3 PUSH1 0x0 DUP2 MLOAD DUP2 LT PUSH2 0x2A7 JUMPI INVALID JUMPDEST PUSH1 0x20 MUL PUSH1 0x20 ADD ADD MLOAD SWAP1 POP PUSH1 0x0 PUSH1 0x1 SWAP1 POP JUMPDEST DUP4 MLOAD DUP2 LT ISZERO PUSH2 0x2ED JUMPI PUSH2 0x2DE DUP3 DUP6 DUP4 DUP2 MLOAD DUP2 LT PUSH2 0x2D1 JUMPI INVALID JUMPDEST PUSH1 0x20 MUL PUSH1 0x20 ADD ADD MLOAD PUSH2 0x4EE JUMP JUMPDEST SWAP2 POP DUP1 DUP1 PUSH1 0x1 ADD SWAP2 POP POP PUSH2 0x2B8 JUMP JUMPDEST POP PUSH2 0x306 PUSH2 0x300 DUP3 MLOAD PUSH1 0xC0 PUSH1 0xFF AND PUSH2 0x578 JUMP JUMPDEST DUP3 PUSH2 0x4EE JUMP JUMPDEST SWAP2 POP POP JUMPDEST SWAP2 SWAP1 POP JUMP JUMPDEST PUSH1 0x60 DUP1 PUSH1 0x20 PUSH1 0x40 MLOAD SWAP1 DUP1 DUP3 MSTORE DUP1 PUSH1 0x1F ADD PUSH1 0x1F NOT AND PUSH1 0x20 ADD DUP3 ADD PUSH1 0x40 MSTORE DUP1 ISZERO PUSH2 0x346 JUMPI DUP2 PUSH1 0x20 ADD PUSH1 0x1 DUP3 MUL DUP1 CODESIZE DUP4 CODECOPY DUP1 DUP3 ADD SWAP2 POP POP SWAP1 POP JUMPDEST POP SWAP1 POP DUP3 PUSH1 0x20 DUP3 ADD MSTORE PUSH1 0x0 DUP1 PUSH32 0xFFFFFFFFFFFFFFFFFFFFFFFFFFFFFFFFFFFFFFFFFFFFFFFF0000000000000000 DUP6 AND EQ ISZERO PUSH2 0x384 JUMPI PUSH1 0x18 SWAP1 POP PUSH2 0x3BE JUMP JUMPDEST PUSH1 0x0 PUSH32 0xFFFFFFFFFFFFFFFFFFFFFFFFFFFFFFFF00000000000000000000000000000000 DUP6 AND EQ ISZERO PUSH2 0x3B8 JUMPI PUSH1 0x10 SWAP1 POP PUSH2 0x3BD JUMP JUMPDEST PUSH1 0x0 SWAP1 POP JUMPDEST JUMPDEST JUMPDEST PUSH1 0x20 DUP2 LT ISZERO PUSH2 0x41D JUMPI PUSH1 0x0 PUSH1 0xF8 SHL DUP3 DUP3 DUP2 MLOAD DUP2 LT PUSH2 0x3D9 JUMPI INVALID JUMPDEST PUSH1 0x20 ADD ADD MLOAD PUSH1 0xF8 SHR PUSH1 0xF8 SHL PUSH31 0xFFFFFFFFFFFFFFFFFFFFFFFFFFFFFFFFFFFFFFFFFFFFFFFFFFFFFFFFFFFFFF NOT AND EQ PUSH2 0x410 JUMPI PUSH2 0x41D JUMP JUMPDEST DUP1 DUP1 PUSH1 0x1 ADD SWAP2 POP POP PUSH2 0x3BF JUMP JUMPDEST PUSH1 0x0 DUP2 PUSH1 0x20 SUB SWAP1 POP PUSH1 0x60 DUP2 PUSH1 0x40 MLOAD SWAP1 DUP1 DUP3 MSTORE DUP1 PUSH1 0x1F ADD PUSH1 0x1F NOT AND PUSH1 0x20 ADD DUP3 ADD PUSH1 0x40 MSTORE DUP1 ISZERO PUSH2 0x45A JUMPI DUP2 PUSH1 0x20 ADD PUSH1 0x1 DUP3 MUL DUP1 CODESIZE DUP4 CODECOPY DUP1 DUP3 ADD SWAP2 POP POP SWAP1 POP JUMPDEST POP SWAP1 POP DUP6 DUP3 DUP3 ADD MSTORE DUP2 DUP2 MSTORE DUP1 SWAP5 POP POP POP POP POP SWAP2 SWAP1 POP JUMP JUMPDEST PUSH1 0x60 PUSH1 0x1 DUP3 MLOAD EQ DUP1 ISZERO PUSH2 0x4C1 JUMPI POP PUSH1 0x7F PUSH1 0xF8 SHL DUP3 PUSH1 0x0 DUP2 MLOAD DUP2 LT PUSH2 0x491 JUMPI INVALID JUMPDEST PUSH1 0x20 ADD ADD MLOAD PUSH1 0xF8 SHR PUSH1 0xF8 SHL PUSH31 0xFFFFFFFFFFFFFFFFFFFFFFFFFFFFFFFFFFFFFFFFFFFFFFFFFFFFFFFFFFFFFF NOT AND GT ISZERO JUMPDEST ISZERO PUSH2 0x4CE JUMPI DUP2 SWAP1 POP PUSH2 0x4E9 JUMP JUMPDEST PUSH2 0x4E6 PUSH2 0x4E0 DUP4 MLOAD PUSH1 0x80 PUSH1 0xFF AND PUSH2 0x578 JUMP JUMPDEST DUP4 PUSH2 0x4EE JUMP JUMPDEST SWAP1 POP JUMPDEST SWAP2 SWAP1 POP JUMP JUMPDEST PUSH1 0x60 DUP1 PUSH1 0x40 MLOAD SWAP1 POP DUP4 MLOAD DUP1 DUP3 MSTORE PUSH1 0x20 DUP3 ADD DUP2 DUP2 ADD PUSH1 0x20 DUP8 ADD JUMPDEST DUP2 DUP4 LT ISZERO PUSH2 0x524 JUMPI DUP1 MLOAD DUP4 MSTORE PUSH1 0x20 DUP4 ADD SWAP3 POP PUSH1 0x20 DUP2 ADD SWAP1 POP PUSH2 0x507 JUMP JUMPDEST POP DUP6 MLOAD SWAP3 POP DUP4 MLOAD DUP4 ADD DUP5 MSTORE DUP1 SWAP2 POP DUP3 DUP3 ADD SWAP1 POP PUSH1 0x20 DUP7 ADD JUMPDEST DUP2 DUP4 LT ISZERO PUSH2 0x559 JUMPI DUP1 MLOAD DUP4 MSTORE PUSH1 0x20 DUP4 ADD SWAP3 POP PUSH1 0x20 DUP2 ADD SWAP1 POP PUSH2 0x53C JUMP JUMPDEST POP PUSH1 0x1F NOT PUSH1 0x1F DUP9 MLOAD DUP6 ADD ISZERO DUP4 ADD ADD AND PUSH1 0x40 MSTORE POP POP POP DUP1 SWAP2 POP POP SWAP3 SWAP2 POP POP JUMP JUMPDEST PUSH1 0x60 PUSH9 0x10000000000000000 DUP4 LT PUSH2 0x5F8 JUMPI PUSH1 0x40 MLOAD PUSH32 0x8C379A000000000000000000000000000000000000000000000000000000000 DUP2 MSTORE PUSH1 0x4 ADD DUP1 DUP1 PUSH1 0x20 ADD DUP3 DUP2 SUB DUP3 MSTORE PUSH1 0xE DUP2 MSTORE PUSH1 0x20 ADD DUP1 PUSH32 0x696E70757420746F6F206C6F6E67000000000000000000000000000000000000 DUP2 MSTORE POP PUSH1 0x20 ADD SWAP2 POP POP PUSH1 0x40 MLOAD DUP1 SWAP2 SUB SWAP1 REVERT JUMPDEST PUSH1 0x60 PUSH1 0x1 PUSH1 0x40 MLOAD SWAP1 DUP1 DUP3 MSTORE DUP1 PUSH1 0x1F ADD PUSH1 0x1F NOT AND PUSH1 0x20 ADD DUP3 ADD PUSH1 0x40 MSTORE DUP1 ISZERO PUSH2 0x62E JUMPI DUP2 PUSH1 0x20 ADD PUSH1 0x1 DUP3 MUL DUP1 CODESIZE DUP4 CODECOPY DUP1 DUP3 ADD SWAP2 POP POP SWAP1 POP JUMPDEST POP SWAP1 POP PUSH1 0x37 DUP5 GT PUSH2 0x684 JUMPI DUP3 DUP5 ADD PUSH1 0xF8 SHL DUP2 PUSH1 0x0 DUP2 MLOAD DUP2 LT PUSH2 0x64C JUMPI INVALID JUMPDEST PUSH1 0x20 ADD ADD SWAP1 PUSH31 0xFFFFFFFFFFFFFFFFFFFFFFFFFFFFFFFFFFFFFFFFFFFFFFFFFFFFFFFFFFFFFF NOT AND SWAP1 DUP2 PUSH1 0x0 BYTE SWAP1 MSTORE8 POP DUP1 SWAP2 POP POP PUSH2 0x6E6 JUMP JUMPDEST PUSH1 0x60 PUSH2 0x68F DUP6 PUSH2 0x30F JUMP JUMPDEST SWAP1 POP PUSH1 0x37 DUP5 DUP3 MLOAD ADD ADD PUSH1 0xF8 SHL DUP3 PUSH1 0x0 DUP2 MLOAD DUP2 LT PUSH2 0x6A8 JUMPI INVALID JUMPDEST PUSH1 0x20 ADD ADD SWAP1 PUSH31 0xFFFFFFFFFFFFFFFFFFFFFFFFFFFFFFFFFFFFFFFFFFFFFFFFFFFFFFFFFFFFFF NOT AND SWAP1 DUP2 PUSH1 0x0 BYTE SWAP1 MSTORE8 POP PUSH2 0x6E1 DUP3 DUP3 PUSH2 0x4EE JUMP JUMPDEST SWAP3 POP POP POP JUMPDEST SWAP3 SWAP2 POP POP JUMP INVALID LOG2 PUSH6 0x627A7A723158 KECCAK256 STOP 0x1F 0xFB SHL PUSH15 0x33C3C9D8245FFF1935C349456186E5 0xE1 SWAP6 ADDRESS PUSH15 0x67B5BC7BA30CB2BF64736F6C634300 SDIV LT STOP ORIGIN "
				},
				"gasEstimates": {
					"creation": {
						"codeDepositCost": "365000",
						"executionCost": "430",
						"totalCost": "365430"
					},
					"external": {
						"getDecodeCommonAckPackage(uint32)": "infinite",
						"getEncodeCommonAckPackage(uint32)": "infinite"
					},
					"internal": {
						"decodeCommonAckPackage(bytes memory)": "infinite",
						"encodeCommonAckPackage(uint32)": "infinite"
					}
				},
				"methodIdentifiers": {
					"getDecodeCommonAckPackage(uint32)": "b9b19786",
					"getEncodeCommonAckPackage(uint32)": "aacc9bf8"
				}
			},
			"userdoc": {
				"methods": {}
			}
		}
	}
}