{
	"contracts/demo2.sol": {
		"demo2": {
			"abi": [
				{
					"inputs": [
						{
							"internalType": "uint256",
							"name": "_len",
							"type": "uint256"
						},
						{
							"internalType": "uint256",
							"name": "_menPtr",
							"type": "uint256"
						}
					],
					"stateMutability": "nonpayable",
					"type": "constructor"
				},
				{
					"inputs": [],
					"name": "data1",
					"outputs": [
						{
							"internalType": "bytes",
							"name": "",
							"type": "bytes"
						}
					],
					"stateMutability": "view",
					"type": "function"
				},
				{
					"inputs": [],
					"name": "data2",
					"outputs": [
						{
							"internalType": "bytes32",
							"name": "",
							"type": "bytes32"
						}
					],
					"stateMutability": "view",
					"type": "function"
				},
				{
					"inputs": [],
					"name": "data3",
					"outputs": [
						{
							"internalType": "bytes",
							"name": "",
							"type": "bytes"
						}
					],
					"stateMutability": "view",
					"type": "function"
				},
				{
					"inputs": [],
					"name": "getData",
					"outputs": [
						{
							"internalType": "bool",
							"name": "",
							"type": "bool"
						}
					],
					"stateMutability": "view",
					"type": "function"
				},
				{
					"inputs": [],
					"name": "rlpItem",
					"outputs": [
						{
							"internalType": "uint256",
							"name": "len",
							"type": "uint256"
						},
						{
							"internalType": "uint256",
							"name": "memPtr",
							"type": "uint256"
						}
					],
					"stateMutability": "view",
					"type": "function"
				}
			],
			"devdoc": {
				"methods": {}
			},
			"evm": {
				"assembly": "    /* \"contracts/demo2.sol\":81:7300  contract demo2 {\r... */\n  mstore(0x40, 0x80)\n    /* \"contracts/demo2.sol\":107:176  bytes public data1 = \"NALEHHJSGDSDGHJSDHSUHDJSHDJSHJSHJSHDSJDHJONGVO\" */\n  mload(0x40)\n  dup1\n  0x60\n  add\n  0x40\n  mstore\n  dup1\n  0x2e\n  dup2\n  mstore\n  0x20\n  add\n  data_4887836e294a2761413359597244d307bbe3f94827f6160d9e1a399e00e2d1be\n  0x2e\n  swap2\n  codecopy\n  0x00\n  swap1\n  dup1\n  mload\n  swap1\n  0x20\n  add\n  swap1\n  tag_1\n  swap3\n  swap2\n  swap1\n  tag_2\n  jump\t// in\ntag_1:\n  pop\n    /* \"contracts/demo2.sol\":187:252  bytes public data3 = \"sdfNAsdfsdfLEHHJSGDSHDJSHJSHJSHDSJDHJONGVO\" */\n  mload(0x40)\n  dup1\n  0x60\n  add\n  0x40\n  mstore\n  dup1\n  0x2a\n  dup2\n  mstore\n  0x20\n  add\n  data_c359735a342ece061e65ab7390d246d1e53ba5f24eea70d6201f1d4a7b2f3475\n  0x2a\n  swap2\n  codecopy\n  0x01\n  swap1\n  dup1\n  mload\n  swap1\n  0x20\n  add\n  swap1\n  tag_3\n  swap3\n  swap2\n  swap1\n  tag_2\n  jump\t// in\ntag_3:\n  pop\n    /* \"contracts/demo2.sol\":263:310  bytes32 public data2 = \"LEHONGVOwjnfvj3weh8vKJ\" */\n  sstore(0x02, 0x4c45484f4e47564f776a6e66766a3377656838764b4a00000000000000000000)\n    /* \"contracts/demo2.sol\":964:1092  constructor(uint _len, uint _menPtr) public {\r... */\n  callvalue\n    /* \"--CODEGEN--\":5:14   */\n  dup1\n    /* \"--CODEGEN--\":2:4   */\n  iszero\n  tag_4\n  jumpi\n    /* \"--CODEGEN--\":27:28   */\n  0x00\n    /* \"--CODEGEN--\":24:25   */\n  dup1\n    /* \"--CODEGEN--\":17:29   */\n  revert\n    /* \"--CODEGEN--\":2:4   */\ntag_4:\n    /* \"contracts/demo2.sol\":964:1092  constructor(uint _len, uint _menPtr) public {\r... */\n  pop\n  mload(0x40)\n  sub(codesize, bytecodeSize)\n  dup1\n  bytecodeSize\n  dup4\n  codecopy\n  dup2\n  dup2\n  add\n  0x40\n  mstore\n  dup2\n  add\n  swap1\n  tag_5\n  swap2\n  swap1\n  jump(tag_6)\ntag_5:\n    /* \"contracts/demo2.sol\":1037:1041  _len */\n  dup2\n    /* \"contracts/demo2.sol\":1023:1030  rlpItem */\n  0x03\n    /* \"contracts/demo2.sol\":1023:1034  rlpItem.len */\n  0x00\n  add\n    /* \"contracts/demo2.sol\":1023:1041  rlpItem.len = _len */\n  dup2\n  swap1\n  sstore\n  pop\n    /* \"contracts/demo2.sol\":1073:1080  _menPtr */\n  dup1\n    /* \"contracts/demo2.sol\":1056:1063  rlpItem */\n  0x03\n    /* \"contracts/demo2.sol\":1056:1070  rlpItem.memPtr */\n  0x01\n  add\n    /* \"contracts/demo2.sol\":1056:1080  rlpItem.memPtr = _menPtr */\n  dup2\n  swap1\n  sstore\n  pop\n    /* \"contracts/demo2.sol\":964:1092  constructor(uint _len, uint _menPtr) public {\r... */\n  pop\n  pop\n    /* \"contracts/demo2.sol\":81:7300  contract demo2 {\r... */\n  jump(tag_9)\ntag_2:\n  dup3\n  dup1\n  sload\n  0x01\n  dup2\n  0x01\n  and\n  iszero\n  0x0100\n  mul\n  sub\n  and\n  0x02\n  swap1\n  div\n  swap1\n  0x00\n  mstore\n  keccak256(0x00, 0x20)\n  swap1\n  0x1f\n  add\n  0x20\n  swap1\n  div\n  dup2\n  add\n  swap3\n  dup3\n  0x1f\n  lt\n  tag_11\n  jumpi\n  dup1\n  mload\n  not(0xff)\n  and\n  dup4\n  dup1\n  add\n  or\n  dup6\n  sstore\n  jump(tag_10)\ntag_11:\n  dup3\n  dup1\n  add\n  0x01\n  add\n  dup6\n  sstore\n  dup3\n  iszero\n  tag_10\n  jumpi\n  swap2\n  dup3\n  add\ntag_12:\n  dup3\n  dup2\n  gt\n  iszero\n  tag_13\n  jumpi\n  dup3\n  mload\n  dup3\n  sstore\n  swap2\n  0x20\n  add\n  swap2\n  swap1\n  0x01\n  add\n  swap1\n  jump(tag_12)\ntag_13:\ntag_10:\n  pop\n  swap1\n  pop\n  tag_14\n  swap2\n  swap1\n  tag_15\n  jump\t// in\ntag_14:\n  pop\n  swap1\n  jump\t// out\ntag_15:\n  tag_16\n  swap2\n  swap1\ntag_17:\n  dup1\n  dup3\n  gt\n  iszero\n  tag_18\n  jumpi\n  0x00\n  dup2\n  0x00\n  swap1\n  sstore\n  pop\n  0x01\n  add\n  jump(tag_17)\ntag_18:\n  pop\n  swap1\n  jump\ntag_16:\n  swap1\n  jump\t// out\n    /* \"--CODEGEN--\":5:139   */\ntag_20:\n  0x00\n    /* \"--CODEGEN--\":89:95   */\n  dup2\n    /* \"--CODEGEN--\":83:96   */\n  mload\n    /* \"--CODEGEN--\":74:96   */\n  swap1\n  pop\n    /* \"--CODEGEN--\":101:134   */\n  tag_22\n    /* \"--CODEGEN--\":128:133   */\n  dup2\n    /* \"--CODEGEN--\":101:134   */\n  jump(tag_23)\ntag_22:\n    /* \"--CODEGEN--\":68:139   */\n  swap3\n  swap2\n  pop\n  pop\n  jump\n    /* \"--CODEGEN--\":146:545   */\ntag_6:\n  0x00\n  dup1\n    /* \"--CODEGEN--\":278:280   */\n  0x40\n    /* \"--CODEGEN--\":266:275   */\n  dup4\n    /* \"--CODEGEN--\":257:264   */\n  dup6\n    /* \"--CODEGEN--\":253:276   */\n  sub\n    /* \"--CODEGEN--\":249:281   */\n  slt\n    /* \"--CODEGEN--\":246:248   */\n  iszero\n  tag_25\n  jumpi\n    /* \"--CODEGEN--\":294:295   */\n  0x00\n    /* \"--CODEGEN--\":291:292   */\n  dup1\n    /* \"--CODEGEN--\":284:296   */\n  revert\n    /* \"--CODEGEN--\":246:248   */\ntag_25:\n    /* \"--CODEGEN--\":329:330   */\n  0x00\n    /* \"--CODEGEN--\":346:410   */\n  tag_26\n    /* \"--CODEGEN--\":402:409   */\n  dup6\n    /* \"--CODEGEN--\":393:399   */\n  dup3\n    /* \"--CODEGEN--\":382:391   */\n  dup7\n    /* \"--CODEGEN--\":378:400   */\n  add\n    /* \"--CODEGEN--\":346:410   */\n  jump(tag_20)\ntag_26:\n    /* \"--CODEGEN--\":336:410   */\n  swap3\n  pop\n    /* \"--CODEGEN--\":308:416   */\n  pop\n    /* \"--CODEGEN--\":447:449   */\n  0x20\n    /* \"--CODEGEN--\":465:529   */\n  tag_27\n    /* \"--CODEGEN--\":521:528   */\n  dup6\n    /* \"--CODEGEN--\":512:518   */\n  dup3\n    /* \"--CODEGEN--\":501:510   */\n  dup7\n    /* \"--CODEGEN--\":497:519   */\n  add\n    /* \"--CODEGEN--\":465:529   */\n  jump(tag_20)\ntag_27:\n    /* \"--CODEGEN--\":455:529   */\n  swap2\n  pop\n    /* \"--CODEGEN--\":426:535   */\n  pop\n    /* \"--CODEGEN--\":240:545   */\n  swap3\n  pop\n  swap3\n  swap1\n  pop\n  jump\n    /* \"--CODEGEN--\":552:624   */\ntag_28:\n  0x00\n    /* \"--CODEGEN--\":614:619   */\n  dup2\n    /* \"--CODEGEN--\":603:619   */\n  swap1\n  pop\n    /* \"--CODEGEN--\":597:624   */\n  swap2\n  swap1\n  pop\n  jump\n    /* \"--CODEGEN--\":631:748   */\ntag_23:\n    /* \"--CODEGEN--\":700:724   */\n  tag_31\n    /* \"--CODEGEN--\":718:723   */\n  dup2\n    /* \"--CODEGEN--\":700:724   */\n  jump(tag_28)\ntag_31:\n    /* \"--CODEGEN--\":693:698   */\n  dup2\n    /* \"--CODEGEN--\":690:725   */\n  eq\n    /* \"--CODEGEN--\":680:682   */\n  tag_32\n  jumpi\n    /* \"--CODEGEN--\":739:740   */\n  0x00\n    /* \"--CODEGEN--\":736:737   */\n  dup1\n    /* \"--CODEGEN--\":729:741   */\n  revert\n    /* \"--CODEGEN--\":680:682   */\ntag_32:\n    /* \"--CODEGEN--\":674:748   */\n  pop\n  jump\n    /* \"contracts/demo2.sol\":81:7300  contract demo2 {\r... */\ntag_9:\n  dataSize(sub_0)\n  dup1\n  dataOffset(sub_0)\n  0x00\n  codecopy\n  0x00\n  return\nstop\ndata_4887836e294a2761413359597244d307bbe3f94827f6160d9e1a399e00e2d1be 4e414c4548484a534744534447484a534448535548444a5348444a53484a53484a534844534a44484a4f4e47564f\ndata_c359735a342ece061e65ab7390d246d1e53ba5f24eea70d6201f1d4a7b2f3475 7364664e417364667364664c4548484a5347445348444a53484a53484a534844534a44484a4f4e47564f\n\nsub_0: assembly {\n        /* \"contracts/demo2.sol\":81:7300  contract demo2 {\r... */\n      mstore(0x40, 0x80)\n      callvalue\n        /* \"--CODEGEN--\":5:14   */\n      dup1\n        /* \"--CODEGEN--\":2:4   */\n      iszero\n      tag_1\n      jumpi\n        /* \"--CODEGEN--\":27:28   */\n      0x00\n        /* \"--CODEGEN--\":24:25   */\n      dup1\n        /* \"--CODEGEN--\":17:29   */\n      revert\n        /* \"--CODEGEN--\":2:4   */\n    tag_1:\n        /* \"contracts/demo2.sol\":81:7300  contract demo2 {\r... */\n      pop\n      jumpi(tag_2, lt(calldatasize, 0x04))\n      shr(0xe0, calldataload(0x00))\n      dup1\n      0x3bc5de30\n      eq\n      tag_3\n      jumpi\n      dup1\n      0x9ffd85c4\n      eq\n      tag_4\n      jumpi\n      dup1\n      0xa699fb03\n      eq\n      tag_5\n      jumpi\n      dup1\n      0xe3a7fd75\n      eq\n      tag_6\n      jumpi\n      dup1\n      0xfc26b0ab\n      eq\n      tag_7\n      jumpi\n    tag_2:\n        /* \"--CODEGEN--\":12:13   */\n      0x00\n        /* \"--CODEGEN--\":9:10   */\n      dup1\n        /* \"--CODEGEN--\":2:14   */\n      revert\n        /* \"contracts/demo2.sol\":1114:1211  function getData() public view returns(bool) {\r... */\n    tag_3:\n      tag_8\n      tag_9\n      jump\t// in\n    tag_8:\n      mload(0x40)\n      tag_10\n      swap2\n      swap1\n      jump(tag_11)\n    tag_10:\n      mload(0x40)\n      dup1\n      swap2\n      sub\n      swap1\n      return\n        /* \"contracts/demo2.sol\":107:176  bytes public data1 = \"NALEHHJSGDSDGHJSDHSUHDJSHDJSHJSHJSHDSJDHJONGVO\" */\n    tag_4:\n      tag_12\n      tag_13\n      jump\t// in\n    tag_12:\n      mload(0x40)\n      tag_14\n      swap2\n      swap1\n      jump(tag_15)\n    tag_14:\n      mload(0x40)\n      dup1\n      swap2\n      sub\n      swap1\n      return\n        /* \"contracts/demo2.sol\":929:951  RLPItem public rlpItem */\n    tag_5:\n      tag_16\n      tag_17\n      jump\t// in\n    tag_16:\n      mload(0x40)\n      tag_18\n      swap3\n      swap2\n      swap1\n      jump(tag_19)\n    tag_18:\n      mload(0x40)\n      dup1\n      swap2\n      sub\n      swap1\n      return\n        /* \"contracts/demo2.sol\":263:310  bytes32 public data2 = \"LEHONGVOwjnfvj3weh8vKJ\" */\n    tag_6:\n      tag_20\n      tag_21\n      jump\t// in\n    tag_20:\n      mload(0x40)\n      tag_22\n      swap2\n      swap1\n      jump(tag_23)\n    tag_22:\n      mload(0x40)\n      dup1\n      swap2\n      sub\n      swap1\n      return\n        /* \"contracts/demo2.sol\":187:252  bytes public data3 = \"sdfNAsdfsdfLEHHJSGDSHDJSHJSHJSHDSJDHJONGVO\" */\n    tag_7:\n      tag_24\n      tag_25\n      jump\t// in\n    tag_24:\n      mload(0x40)\n      tag_26\n      swap2\n      swap1\n      jump(tag_15)\n    tag_26:\n      mload(0x40)\n      dup1\n      swap2\n      sub\n      swap1\n      return\n        /* \"contracts/demo2.sol\":1114:1211  function getData() public view returns(bool) {\r... */\n    tag_9:\n        /* \"contracts/demo2.sol\":1153:1157  bool */\n      0x00\n        /* \"contracts/demo2.sol\":1181:1199  toBoolean(rlpItem) */\n      tag_28\n        /* \"contracts/demo2.sol\":1191:1198  rlpItem */\n      0x03\n        /* \"contracts/demo2.sol\":1181:1199  toBoolean(rlpItem) */\n      mload(0x40)\n      dup1\n      0x40\n      add\n      0x40\n      mstore\n      swap1\n      dup2\n      0x00\n      dup3\n      add\n      sload\n      dup2\n      mstore\n      0x20\n      add\n      0x01\n      dup3\n      add\n      sload\n      dup2\n      mstore\n      pop\n      pop\n        /* \"contracts/demo2.sol\":1181:1190  toBoolean */\n      tag_29\n        /* \"contracts/demo2.sol\":1181:1199  toBoolean(rlpItem) */\n      jump\t// in\n    tag_28:\n        /* \"contracts/demo2.sol\":1174:1199  return toBoolean(rlpItem) */\n      swap1\n      pop\n        /* \"contracts/demo2.sol\":1114:1211  function getData() public view returns(bool) {\r... */\n      swap1\n      jump\t// out\n        /* \"contracts/demo2.sol\":107:176  bytes public data1 = \"NALEHHJSGDSDGHJSDHSUHDJSHDJSHJSHJSHDSJDHJONGVO\" */\n    tag_13:\n      0x00\n      dup1\n      sload\n      0x01\n      dup2\n      0x01\n      and\n      iszero\n      0x0100\n      mul\n      sub\n      and\n      0x02\n      swap1\n      div\n      dup1\n      0x1f\n      add\n      0x20\n      dup1\n      swap2\n      div\n      mul\n      0x20\n      add\n      mload(0x40)\n      swap1\n      dup2\n      add\n      0x40\n      mstore\n      dup1\n      swap3\n      swap2\n      swap1\n      dup2\n      dup2\n      mstore\n      0x20\n      add\n      dup3\n      dup1\n      sload\n      0x01\n      dup2\n      0x01\n      and\n      iszero\n      0x0100\n      mul\n      sub\n      and\n      0x02\n      swap1\n      div\n      dup1\n      iszero\n      tag_30\n      jumpi\n      dup1\n      0x1f\n      lt\n      tag_31\n      jumpi\n      0x0100\n      dup1\n      dup4\n      sload\n      div\n      mul\n      dup4\n      mstore\n      swap2\n      0x20\n      add\n      swap2\n      jump(tag_30)\n    tag_31:\n      dup3\n      add\n      swap2\n      swap1\n      0x00\n      mstore\n      keccak256(0x00, 0x20)\n      swap1\n    tag_32:\n      dup2\n      sload\n      dup2\n      mstore\n      swap1\n      0x01\n      add\n      swap1\n      0x20\n      add\n      dup1\n      dup4\n      gt\n      tag_32\n      jumpi\n      dup3\n      swap1\n      sub\n      0x1f\n      and\n      dup3\n      add\n      swap2\n    tag_30:\n      pop\n      pop\n      pop\n      pop\n      pop\n      dup2\n      jump\t// out\n        /* \"contracts/demo2.sol\":929:951  RLPItem public rlpItem */\n    tag_17:\n      0x03\n      dup1\n      0x00\n      add\n      sload\n      swap1\n      dup1\n      0x01\n      add\n      sload\n      swap1\n      pop\n      dup3\n      jump\t// out\n        /* \"contracts/demo2.sol\":263:310  bytes32 public data2 = \"LEHONGVOwjnfvj3weh8vKJ\" */\n    tag_21:\n      sload(0x02)\n      dup2\n      jump\t// out\n        /* \"contracts/demo2.sol\":187:252  bytes public data3 = \"sdfNAsdfsdfLEHHJSGDSHDJSHJSHJSHDSJDHJONGVO\" */\n    tag_25:\n      0x01\n      dup1\n      sload\n      0x01\n      dup2\n      0x01\n      and\n      iszero\n      0x0100\n      mul\n      sub\n      and\n      0x02\n      swap1\n      div\n      dup1\n      0x1f\n      add\n      0x20\n      dup1\n      swap2\n      div\n      mul\n      0x20\n      add\n      mload(0x40)\n      swap1\n      dup2\n      add\n      0x40\n      mstore\n      dup1\n      swap3\n      swap2\n      swap1\n      dup2\n      dup2\n      mstore\n      0x20\n      add\n      dup3\n      dup1\n      sload\n      0x01\n      dup2\n      0x01\n      and\n      iszero\n      0x0100\n      mul\n      sub\n      and\n      0x02\n      swap1\n      div\n      dup1\n      iszero\n      tag_33\n      jumpi\n      dup1\n      0x1f\n      lt\n      tag_34\n      jumpi\n      0x0100\n      dup1\n      dup4\n      sload\n      div\n      mul\n      dup4\n      mstore\n      swap2\n      0x20\n      add\n      swap2\n      jump(tag_33)\n    tag_34:\n      dup3\n      add\n      swap2\n      swap1\n      0x00\n      mstore\n      keccak256(0x00, 0x20)\n      swap1\n    tag_35:\n      dup2\n      sload\n      dup2\n      mstore\n      swap1\n      0x01\n      add\n      swap1\n      0x20\n      add\n      dup1\n      dup4\n      gt\n      tag_35\n      jumpi\n      dup3\n      swap1\n      sub\n      0x1f\n      and\n      dup3\n      add\n      swap2\n    tag_33:\n      pop\n      pop\n      pop\n      pop\n      pop\n      dup2\n      jump\t// out\n        /* \"contracts/demo2.sol\":1624:1947  function toBoolean(RLPItem memory item) internal pure returns (bool) {\r... */\n    tag_29:\n        /* \"contracts/demo2.sol\":1687:1691  bool */\n      0x00\n        /* \"contracts/demo2.sol\":1728:1729  1 */\n      0x01\n        /* \"contracts/demo2.sol\":1716:1720  item */\n      dup3\n        /* \"contracts/demo2.sol\":1716:1724  item.len */\n      0x00\n      add\n      mload\n        /* \"contracts/demo2.sol\":1716:1729  item.len == 1 */\n      eq\n        /* \"contracts/demo2.sol\":1708:1730  require(item.len == 1) */\n      tag_37\n      jumpi\n        /* \"--CODEGEN--\":12:13   */\n      0x00\n        /* \"--CODEGEN--\":9:10   */\n      dup1\n        /* \"--CODEGEN--\":2:14   */\n      revert\n        /* \"contracts/demo2.sol\":1708:1730  require(item.len == 1) */\n    tag_37:\n        /* \"contracts/demo2.sol\":1745:1756  uint result */\n      0x00\n        /* \"contracts/demo2.sol\":1771:1782  uint memPtr */\n      dup1\n        /* \"contracts/demo2.sol\":1785:1789  item */\n      dup4\n        /* \"contracts/demo2.sol\":1785:1796  item.memPtr */\n      0x20\n      add\n      mload\n        /* \"contracts/demo2.sol\":1771:1796  uint memPtr = item.memPtr */\n      swap1\n      pop\n        /* \"contracts/demo2.sol\":1863:1869  memPtr */\n      dup1\n        /* \"contracts/demo2.sol\":1857:1870  mload(memPtr) */\n      mload\n        /* \"contracts/demo2.sol\":1854:1855  0 */\n      0x00\n        /* \"contracts/demo2.sol\":1849:1871  byte(0, mload(memPtr)) */\n      byte\n        /* \"contracts/demo2.sol\":1839:1871  result := byte(0, mload(memPtr)) */\n      swap2\n      pop\n        /* \"contracts/demo2.sol\":1919:1920  0 */\n      0x00\n        /* \"contracts/demo2.sol\":1909:1915  result */\n      dup3\n        /* \"contracts/demo2.sol\":1909:1920  result == 0 */\n      eq\n        /* \"contracts/demo2.sol\":1909:1935  result == 0 ? false : true */\n      tag_38\n      jumpi\n        /* \"contracts/demo2.sol\":1931:1935  true */\n      0x01\n        /* \"contracts/demo2.sol\":1909:1935  result == 0 ? false : true */\n      jump(tag_39)\n    tag_38:\n        /* \"contracts/demo2.sol\":1923:1928  false */\n      0x00\n        /* \"contracts/demo2.sol\":1909:1935  result == 0 ? false : true */\n    tag_39:\n        /* \"contracts/demo2.sol\":1902:1935  return result == 0 ? false : true */\n      swap3\n      pop\n      pop\n      pop\n        /* \"contracts/demo2.sol\":1624:1947  function toBoolean(RLPItem memory item) internal pure returns (bool) {\r... */\n      swap2\n      swap1\n      pop\n      jump\t// out\n        /* \"--CODEGEN--\":5:109   */\n    tag_41:\n        /* \"--CODEGEN--\":82:103   */\n      tag_43\n        /* \"--CODEGEN--\":97:102   */\n      dup2\n        /* \"--CODEGEN--\":82:103   */\n      jump(tag_44)\n    tag_43:\n        /* \"--CODEGEN--\":77:80   */\n      dup3\n        /* \"--CODEGEN--\":70:104   */\n      mstore\n        /* \"--CODEGEN--\":64:109   */\n      pop\n      pop\n      jump\n        /* \"--CODEGEN--\":116:229   */\n    tag_45:\n        /* \"--CODEGEN--\":199:223   */\n      tag_47\n        /* \"--CODEGEN--\":217:222   */\n      dup2\n        /* \"--CODEGEN--\":199:223   */\n      jump(tag_48)\n    tag_47:\n        /* \"--CODEGEN--\":194:197   */\n      dup3\n        /* \"--CODEGEN--\":187:224   */\n      mstore\n        /* \"--CODEGEN--\":181:229   */\n      pop\n      pop\n      jump\n        /* \"--CODEGEN--\":236:571   */\n    tag_49:\n      0x00\n        /* \"--CODEGEN--\":342:376   */\n      tag_51\n        /* \"--CODEGEN--\":370:375   */\n      dup3\n        /* \"--CODEGEN--\":342:376   */\n      jump(tag_52)\n    tag_51:\n        /* \"--CODEGEN--\":388:458   */\n      tag_53\n        /* \"--CODEGEN--\":451:457   */\n      dup2\n        /* \"--CODEGEN--\":446:449   */\n      dup6\n        /* \"--CODEGEN--\":388:458   */\n      jump(tag_54)\n    tag_53:\n        /* \"--CODEGEN--\":381:458   */\n      swap4\n      pop\n        /* \"--CODEGEN--\":463:515   */\n      tag_55\n        /* \"--CODEGEN--\":508:514   */\n      dup2\n        /* \"--CODEGEN--\":503:506   */\n      dup6\n        /* \"--CODEGEN--\":496:500   */\n      0x20\n        /* \"--CODEGEN--\":489:494   */\n      dup7\n        /* \"--CODEGEN--\":485:501   */\n      add\n        /* \"--CODEGEN--\":463:515   */\n      jump(tag_56)\n    tag_55:\n        /* \"--CODEGEN--\":536:565   */\n      tag_57\n        /* \"--CODEGEN--\":558:564   */\n      dup2\n        /* \"--CODEGEN--\":536:565   */\n      jump(tag_58)\n    tag_57:\n        /* \"--CODEGEN--\":531:534   */\n      dup5\n        /* \"--CODEGEN--\":527:566   */\n      add\n        /* \"--CODEGEN--\":520:566   */\n      swap2\n      pop\n        /* \"--CODEGEN--\":322:571   */\n      pop\n      swap3\n      swap2\n      pop\n      pop\n      jump\n        /* \"--CODEGEN--\":578:691   */\n    tag_59:\n        /* \"--CODEGEN--\":661:685   */\n      tag_61\n        /* \"--CODEGEN--\":679:684   */\n      dup2\n        /* \"--CODEGEN--\":661:685   */\n      jump(tag_62)\n    tag_61:\n        /* \"--CODEGEN--\":656:659   */\n      dup3\n        /* \"--CODEGEN--\":649:686   */\n      mstore\n        /* \"--CODEGEN--\":643:691   */\n      pop\n      pop\n      jump\n        /* \"--CODEGEN--\":698:899   */\n    tag_11:\n      0x00\n        /* \"--CODEGEN--\":810:812   */\n      0x20\n        /* \"--CODEGEN--\":799:808   */\n      dup3\n        /* \"--CODEGEN--\":795:813   */\n      add\n        /* \"--CODEGEN--\":787:813   */\n      swap1\n      pop\n        /* \"--CODEGEN--\":824:889   */\n      tag_64\n        /* \"--CODEGEN--\":886:887   */\n      0x00\n        /* \"--CODEGEN--\":875:884   */\n      dup4\n        /* \"--CODEGEN--\":871:888   */\n      add\n        /* \"--CODEGEN--\":862:868   */\n      dup5\n        /* \"--CODEGEN--\":824:889   */\n      jump(tag_41)\n    tag_64:\n        /* \"--CODEGEN--\":781:899   */\n      swap3\n      swap2\n      pop\n      pop\n      jump\n        /* \"--CODEGEN--\":906:1119   */\n    tag_23:\n      0x00\n        /* \"--CODEGEN--\":1024:1026   */\n      0x20\n        /* \"--CODEGEN--\":1013:1022   */\n      dup3\n        /* \"--CODEGEN--\":1009:1027   */\n      add\n        /* \"--CODEGEN--\":1001:1027   */\n      swap1\n      pop\n        /* \"--CODEGEN--\":1038:1109   */\n      tag_66\n        /* \"--CODEGEN--\":1106:1107   */\n      0x00\n        /* \"--CODEGEN--\":1095:1104   */\n      dup4\n        /* \"--CODEGEN--\":1091:1108   */\n      add\n        /* \"--CODEGEN--\":1082:1088   */\n      dup5\n        /* \"--CODEGEN--\":1038:1109   */\n      jump(tag_45)\n    tag_66:\n        /* \"--CODEGEN--\":995:1119   */\n      swap3\n      swap2\n      pop\n      pop\n      jump\n        /* \"--CODEGEN--\":1126:1415   */\n    tag_15:\n      0x00\n        /* \"--CODEGEN--\":1258:1260   */\n      0x20\n        /* \"--CODEGEN--\":1247:1256   */\n      dup3\n        /* \"--CODEGEN--\":1243:1261   */\n      add\n        /* \"--CODEGEN--\":1235:1261   */\n      swap1\n      pop\n        /* \"--CODEGEN--\":1308:1317   */\n      dup2\n        /* \"--CODEGEN--\":1302:1306   */\n      dup2\n        /* \"--CODEGEN--\":1298:1318   */\n      sub\n        /* \"--CODEGEN--\":1294:1295   */\n      0x00\n        /* \"--CODEGEN--\":1283:1292   */\n      dup4\n        /* \"--CODEGEN--\":1279:1296   */\n      add\n        /* \"--CODEGEN--\":1272:1319   */\n      mstore\n        /* \"--CODEGEN--\":1333:1405   */\n      tag_68\n        /* \"--CODEGEN--\":1400:1404   */\n      dup2\n        /* \"--CODEGEN--\":1391:1397   */\n      dup5\n        /* \"--CODEGEN--\":1333:1405   */\n      jump(tag_49)\n    tag_68:\n        /* \"--CODEGEN--\":1325:1405   */\n      swap1\n      pop\n        /* \"--CODEGEN--\":1229:1415   */\n      swap3\n      swap2\n      pop\n      pop\n      jump\n        /* \"--CODEGEN--\":1422:1746   */\n    tag_19:\n      0x00\n        /* \"--CODEGEN--\":1568:1570   */\n      0x40\n        /* \"--CODEGEN--\":1557:1566   */\n      dup3\n        /* \"--CODEGEN--\":1553:1571   */\n      add\n        /* \"--CODEGEN--\":1545:1571   */\n      swap1\n      pop\n        /* \"--CODEGEN--\":1582:1653   */\n      tag_70\n        /* \"--CODEGEN--\":1650:1651   */\n      0x00\n        /* \"--CODEGEN--\":1639:1648   */\n      dup4\n        /* \"--CODEGEN--\":1635:1652   */\n      add\n        /* \"--CODEGEN--\":1626:1632   */\n      dup6\n        /* \"--CODEGEN--\":1582:1653   */\n      jump(tag_59)\n    tag_70:\n        /* \"--CODEGEN--\":1664:1736   */\n      tag_71\n        /* \"--CODEGEN--\":1732:1734   */\n      0x20\n        /* \"--CODEGEN--\":1721:1730   */\n      dup4\n        /* \"--CODEGEN--\":1717:1735   */\n      add\n        /* \"--CODEGEN--\":1708:1714   */\n      dup5\n        /* \"--CODEGEN--\":1664:1736   */\n      jump(tag_59)\n    tag_71:\n        /* \"--CODEGEN--\":1539:1746   */\n      swap4\n      swap3\n      pop\n      pop\n      pop\n      jump\n        /* \"--CODEGEN--\":1753:1870   */\n    tag_52:\n      0x00\n        /* \"--CODEGEN--\":1842:1847   */\n      dup2\n        /* \"--CODEGEN--\":1836:1848   */\n      mload\n        /* \"--CODEGEN--\":1826:1848   */\n      swap1\n      pop\n        /* \"--CODEGEN--\":1807:1870   */\n      swap2\n      swap1\n      pop\n      jump\n        /* \"--CODEGEN--\":1878:2040   */\n    tag_54:\n      0x00\n        /* \"--CODEGEN--\":1992:1998   */\n      dup3\n        /* \"--CODEGEN--\":1987:1990   */\n      dup3\n        /* \"--CODEGEN--\":1980:1999   */\n      mstore\n        /* \"--CODEGEN--\":2029:2033   */\n      0x20\n        /* \"--CODEGEN--\":2024:2027   */\n      dup3\n        /* \"--CODEGEN--\":2020:2034   */\n      add\n        /* \"--CODEGEN--\":2005:2034   */\n      swap1\n      pop\n        /* \"--CODEGEN--\":1973:2040   */\n      swap3\n      swap2\n      pop\n      pop\n      jump\n        /* \"--CODEGEN--\":2048:2133   */\n    tag_44:\n      0x00\n        /* \"--CODEGEN--\":2121:2126   */\n      dup2\n        /* \"--CODEGEN--\":2114:2127   */\n      iszero\n        /* \"--CODEGEN--\":2107:2128   */\n      iszero\n        /* \"--CODEGEN--\":2096:2128   */\n      swap1\n      pop\n        /* \"--CODEGEN--\":2090:2133   */\n      swap2\n      swap1\n      pop\n      jump\n        /* \"--CODEGEN--\":2140:2212   */\n    tag_48:\n      0x00\n        /* \"--CODEGEN--\":2202:2207   */\n      dup2\n        /* \"--CODEGEN--\":2191:2207   */\n      swap1\n      pop\n        /* \"--CODEGEN--\":2185:2212   */\n      swap2\n      swap1\n      pop\n      jump\n        /* \"--CODEGEN--\":2219:2291   */\n    tag_62:\n      0x00\n        /* \"--CODEGEN--\":2281:2286   */\n      dup2\n        /* \"--CODEGEN--\":2270:2286   */\n      swap1\n      pop\n        /* \"--CODEGEN--\":2264:2291   */\n      swap2\n      swap1\n      pop\n      jump\n        /* \"--CODEGEN--\":2299:2567   */\n    tag_56:\n        /* \"--CODEGEN--\":2364:2365   */\n      0x00\n        /* \"--CODEGEN--\":2371:2472   */\n    tag_78:\n        /* \"--CODEGEN--\":2385:2391   */\n      dup4\n        /* \"--CODEGEN--\":2382:2383   */\n      dup2\n        /* \"--CODEGEN--\":2379:2392   */\n      lt\n        /* \"--CODEGEN--\":2371:2472   */\n      iszero\n      tag_80\n      jumpi\n        /* \"--CODEGEN--\":2461:2462   */\n      dup1\n        /* \"--CODEGEN--\":2456:2459   */\n      dup3\n        /* \"--CODEGEN--\":2452:2463   */\n      add\n        /* \"--CODEGEN--\":2446:2464   */\n      mload\n        /* \"--CODEGEN--\":2442:2443   */\n      dup2\n        /* \"--CODEGEN--\":2437:2440   */\n      dup5\n        /* \"--CODEGEN--\":2433:2444   */\n      add\n        /* \"--CODEGEN--\":2426:2465   */\n      mstore\n        /* \"--CODEGEN--\":2407:2409   */\n      0x20\n        /* \"--CODEGEN--\":2404:2405   */\n      dup2\n        /* \"--CODEGEN--\":2400:2410   */\n      add\n        /* \"--CODEGEN--\":2395:2410   */\n      swap1\n      pop\n        /* \"--CODEGEN--\":2371:2472   */\n      jump(tag_78)\n    tag_80:\n        /* \"--CODEGEN--\":2487:2493   */\n      dup4\n        /* \"--CODEGEN--\":2484:2485   */\n      dup2\n        /* \"--CODEGEN--\":2481:2494   */\n      gt\n        /* \"--CODEGEN--\":2478:2480   */\n      iszero\n      tag_81\n      jumpi\n        /* \"--CODEGEN--\":2552:2553   */\n      0x00\n        /* \"--CODEGEN--\":2543:2549   */\n      dup5\n        /* \"--CODEGEN--\":2538:2541   */\n      dup5\n        /* \"--CODEGEN--\":2534:2550   */\n      add\n        /* \"--CODEGEN--\":2527:2554   */\n      mstore\n        /* \"--CODEGEN--\":2478:2480   */\n    tag_81:\n        /* \"--CODEGEN--\":2348:2567   */\n      pop\n      pop\n      pop\n      pop\n      jump\n        /* \"--CODEGEN--\":2575:2672   */\n    tag_58:\n      0x00\n        /* \"--CODEGEN--\":2663:2665   */\n      0x1f\n        /* \"--CODEGEN--\":2659:2666   */\n      not\n        /* \"--CODEGEN--\":2654:2656   */\n      0x1f\n        /* \"--CODEGEN--\":2647:2652   */\n      dup4\n        /* \"--CODEGEN--\":2643:2657   */\n      add\n        /* \"--CODEGEN--\":2639:2667   */\n      and\n        /* \"--CODEGEN--\":2629:2667   */\n      swap1\n      pop\n        /* \"--CODEGEN--\":2623:2672   */\n      swap2\n      swap1\n      pop\n      jump\n\n    auxdata: 0xa264697066735822122098437ab0338e5b63ba97f21777a6e0624fb8f2f3c24bbba2af24c3785a31da3864736f6c63430006040033\n}\n",
				"bytecode": {
					"linkReferences": {},
					"object": "60806040526040518060600160405280602e8152602001610648602e9139600090805190602001906100329291906100cf565b506040518060600160405280602a8152602001610676602a9139600190805190602001906100619291906100cf565b507f4c45484f4e47564f776a6e66766a3377656838764b4a0000000000000000000060025534801561009257600080fd5b506040516106a03803806106a083398181016040528101906100b49190610189565b816003600001819055508060036001018190555050506101e6565b828054600181600116156101000203166002900490600052602060002090601f016020900481019282601f1061011057805160ff191683800117855561013e565b8280016001018555821561013e579182015b8281111561013d578251825591602001919060010190610122565b5b50905061014b919061014f565b5090565b61017191905b8082111561016d576000816000905550600101610155565b5090565b90565b600081519050610183816101cf565b92915050565b6000806040838503121561019c57600080fd5b60006101aa85828601610174565b92505060206101bb85828601610174565b9150509250929050565b6000819050919050565b6101d8816101c5565b81146101e357600080fd5b50565b610453806101f56000396000f3fe608060405234801561001057600080fd5b50600436106100575760003560e01c80633bc5de301461005c5780639ffd85c41461007a578063a699fb0314610098578063e3a7fd75146100b7578063fc26b0ab146100d5575b600080fd5b6100646100f3565b604051610071919061031c565b60405180910390f35b610082610123565b60405161008f9190610352565b60405180910390f35b6100a06101c1565b6040516100ae929190610374565b60405180910390f35b6100bf6101d3565b6040516100cc9190610337565b60405180910390f35b6100dd6101d9565b6040516100ea9190610352565b60405180910390f35b600061011e600360405180604001604052908160008201548152602001600182015481525050610277565b905090565b60008054600181600116156101000203166002900480601f0160208091040260200160405190810160405280929190818152602001828054600181600116156101000203166002900480156101b95780601f1061018e576101008083540402835291602001916101b9565b820191906000526020600020905b81548152906001019060200180831161019c57829003601f168201915b505050505081565b60038060000154908060010154905082565b60025481565b60018054600181600116156101000203166002900480601f01602080910402602001604051908101604052809291908181526020018280546001816001161561010002031660029004801561026f5780601f106102445761010080835404028352916020019161026f565b820191906000526020600020905b81548152906001019060200180831161025257829003601f168201915b505050505081565b6000600182600001511461028a57600080fd5b60008083602001519050805160001a9150600082146102aa5760016102ad565b60005b92505050919050565b6102bf816103b9565b82525050565b6102ce816103c5565b82525050565b60006102df8261039d565b6102e981856103a8565b93506102f98185602086016103d9565b6103028161040c565b840191505092915050565b610316816103cf565b82525050565b600060208201905061033160008301846102b6565b92915050565b600060208201905061034c60008301846102c5565b92915050565b6000602082019050818103600083015261036c81846102d4565b905092915050565b6000604082019050610389600083018561030d565b610396602083018461030d565b9392505050565b600081519050919050565b600082825260208201905092915050565b60008115159050919050565b6000819050919050565b6000819050919050565b60005b838110156103f75780820151818401526020810190506103dc565b83811115610406576000848401525b50505050565b6000601f19601f830116905091905056fea264697066735822122098437ab0338e5b63ba97f21777a6e0624fb8f2f3c24bbba2af24c3785a31da3864736f6c634300060400334e414c4548484a534744534447484a534448535548444a5348444a53484a53484a534844534a44484a4f4e47564f7364664e417364667364664c4548484a5347445348444a53484a53484a534844534a44484a4f4e47564f",
					"opcodes": "PUSH1 0x80 PUSH1 0x40 MSTORE PUSH1 0x40 MLOAD DUP1 PUSH1 0x60 ADD PUSH1 0x40 MSTORE DUP1 PUSH1 0x2E DUP2 MSTORE PUSH1 0x20 ADD PUSH2 0x648 PUSH1 0x2E SWAP2 CODECOPY PUSH1 0x0 SWAP1 DUP1 MLOAD SWAP1 PUSH1 0x20 ADD SWAP1 PUSH2 0x32 SWAP3 SWAP2 SWAP1 PUSH2 0xCF JUMP JUMPDEST POP PUSH1 0x40 MLOAD DUP1 PUSH1 0x60 ADD PUSH1 0x40 MSTORE DUP1 PUSH1 0x2A DUP2 MSTORE PUSH1 0x20 ADD PUSH2 0x676 PUSH1 0x2A SWAP2 CODECOPY PUSH1 0x1 SWAP1 DUP1 MLOAD SWAP1 PUSH1 0x20 ADD SWAP1 PUSH2 0x61 SWAP3 SWAP2 SWAP1 PUSH2 0xCF JUMP JUMPDEST POP PUSH32 0x4C45484F4E47564F776A6E66766A3377656838764B4A00000000000000000000 PUSH1 0x2 SSTORE CALLVALUE DUP1 ISZERO PUSH2 0x92 JUMPI PUSH1 0x0 DUP1 REVERT JUMPDEST POP PUSH1 0x40 MLOAD PUSH2 0x6A0 CODESIZE SUB DUP1 PUSH2 0x6A0 DUP4 CODECOPY DUP2 DUP2 ADD PUSH1 0x40 MSTORE DUP2 ADD SWAP1 PUSH2 0xB4 SWAP2 SWAP1 PUSH2 0x189 JUMP JUMPDEST DUP2 PUSH1 0x3 PUSH1 0x0 ADD DUP2 SWAP1 SSTORE POP DUP1 PUSH1 0x3 PUSH1 0x1 ADD DUP2 SWAP1 SSTORE POP POP POP PUSH2 0x1E6 JUMP JUMPDEST DUP3 DUP1 SLOAD PUSH1 0x1 DUP2 PUSH1 0x1 AND ISZERO PUSH2 0x100 MUL SUB AND PUSH1 0x2 SWAP1 DIV SWAP1 PUSH1 0x0 MSTORE PUSH1 0x20 PUSH1 0x0 KECCAK256 SWAP1 PUSH1 0x1F ADD PUSH1 0x20 SWAP1 DIV DUP2 ADD SWAP3 DUP3 PUSH1 0x1F LT PUSH2 0x110 JUMPI DUP1 MLOAD PUSH1 0xFF NOT AND DUP4 DUP1 ADD OR DUP6 SSTORE PUSH2 0x13E JUMP JUMPDEST DUP3 DUP1 ADD PUSH1 0x1 ADD DUP6 SSTORE DUP3 ISZERO PUSH2 0x13E JUMPI SWAP2 DUP3 ADD JUMPDEST DUP3 DUP2 GT ISZERO PUSH2 0x13D JUMPI DUP3 MLOAD DUP3 SSTORE SWAP2 PUSH1 0x20 ADD SWAP2 SWAP1 PUSH1 0x1 ADD SWAP1 PUSH2 0x122 JUMP JUMPDEST JUMPDEST POP SWAP1 POP PUSH2 0x14B SWAP2 SWAP1 PUSH2 0x14F JUMP JUMPDEST POP SWAP1 JUMP JUMPDEST PUSH2 0x171 SWAP2 SWAP1 JUMPDEST DUP1 DUP3 GT ISZERO PUSH2 0x16D JUMPI PUSH1 0x0 DUP2 PUSH1 0x0 SWAP1 SSTORE POP PUSH1 0x1 ADD PUSH2 0x155 JUMP JUMPDEST POP SWAP1 JUMP JUMPDEST SWAP1 JUMP JUMPDEST PUSH1 0x0 DUP2 MLOAD SWAP1 POP PUSH2 0x183 DUP2 PUSH2 0x1CF JUMP JUMPDEST SWAP3 SWAP2 POP POP JUMP JUMPDEST PUSH1 0x0 DUP1 PUSH1 0x40 DUP4 DUP6 SUB SLT ISZERO PUSH2 0x19C JUMPI PUSH1 0x0 DUP1 REVERT JUMPDEST PUSH1 0x0 PUSH2 0x1AA DUP6 DUP3 DUP7 ADD PUSH2 0x174 JUMP JUMPDEST SWAP3 POP POP PUSH1 0x20 PUSH2 0x1BB DUP6 DUP3 DUP7 ADD PUSH2 0x174 JUMP JUMPDEST SWAP2 POP POP SWAP3 POP SWAP3 SWAP1 POP JUMP JUMPDEST PUSH1 0x0 DUP2 SWAP1 POP SWAP2 SWAP1 POP JUMP JUMPDEST PUSH2 0x1D8 DUP2 PUSH2 0x1C5 JUMP JUMPDEST DUP2 EQ PUSH2 0x1E3 JUMPI PUSH1 0x0 DUP1 REVERT JUMPDEST POP JUMP JUMPDEST PUSH2 0x453 DUP1 PUSH2 0x1F5 PUSH1 0x0 CODECOPY PUSH1 0x0 RETURN INVALID PUSH1 0x80 PUSH1 0x40 MSTORE CALLVALUE DUP1 ISZERO PUSH2 0x10 JUMPI PUSH1 0x0 DUP1 REVERT JUMPDEST POP PUSH1 0x4 CALLDATASIZE LT PUSH2 0x57 JUMPI PUSH1 0x0 CALLDATALOAD PUSH1 0xE0 SHR DUP1 PUSH4 0x3BC5DE30 EQ PUSH2 0x5C JUMPI DUP1 PUSH4 0x9FFD85C4 EQ PUSH2 0x7A JUMPI DUP1 PUSH4 0xA699FB03 EQ PUSH2 0x98 JUMPI DUP1 PUSH4 0xE3A7FD75 EQ PUSH2 0xB7 JUMPI DUP1 PUSH4 0xFC26B0AB EQ PUSH2 0xD5 JUMPI JUMPDEST PUSH1 0x0 DUP1 REVERT JUMPDEST PUSH2 0x64 PUSH2 0xF3 JUMP JUMPDEST PUSH1 0x40 MLOAD PUSH2 0x71 SWAP2 SWAP1 PUSH2 0x31C JUMP JUMPDEST PUSH1 0x40 MLOAD DUP1 SWAP2 SUB SWAP1 RETURN JUMPDEST PUSH2 0x82 PUSH2 0x123 JUMP JUMPDEST PUSH1 0x40 MLOAD PUSH2 0x8F SWAP2 SWAP1 PUSH2 0x352 JUMP JUMPDEST PUSH1 0x40 MLOAD DUP1 SWAP2 SUB SWAP1 RETURN JUMPDEST PUSH2 0xA0 PUSH2 0x1C1 JUMP JUMPDEST PUSH1 0x40 MLOAD PUSH2 0xAE SWAP3 SWAP2 SWAP1 PUSH2 0x374 JUMP JUMPDEST PUSH1 0x40 MLOAD DUP1 SWAP2 SUB SWAP1 RETURN JUMPDEST PUSH2 0xBF PUSH2 0x1D3 JUMP JUMPDEST PUSH1 0x40 MLOAD PUSH2 0xCC SWAP2 SWAP1 PUSH2 0x337 JUMP JUMPDEST PUSH1 0x40 MLOAD DUP1 SWAP2 SUB SWAP1 RETURN JUMPDEST PUSH2 0xDD PUSH2 0x1D9 JUMP JUMPDEST PUSH1 0x40 MLOAD PUSH2 0xEA SWAP2 SWAP1 PUSH2 0x352 JUMP JUMPDEST PUSH1 0x40 MLOAD DUP1 SWAP2 SUB SWAP1 RETURN JUMPDEST PUSH1 0x0 PUSH2 0x11E PUSH1 0x3 PUSH1 0x40 MLOAD DUP1 PUSH1 0x40 ADD PUSH1 0x40 MSTORE SWAP1 DUP2 PUSH1 0x0 DUP3 ADD SLOAD DUP2 MSTORE PUSH1 0x20 ADD PUSH1 0x1 DUP3 ADD SLOAD DUP2 MSTORE POP POP PUSH2 0x277 JUMP JUMPDEST SWAP1 POP SWAP1 JUMP JUMPDEST PUSH1 0x0 DUP1 SLOAD PUSH1 0x1 DUP2 PUSH1 0x1 AND ISZERO PUSH2 0x100 MUL SUB AND PUSH1 0x2 SWAP1 DIV DUP1 PUSH1 0x1F ADD PUSH1 0x20 DUP1 SWAP2 DIV MUL PUSH1 0x20 ADD PUSH1 0x40 MLOAD SWAP1 DUP2 ADD PUSH1 0x40 MSTORE DUP1 SWAP3 SWAP2 SWAP1 DUP2 DUP2 MSTORE PUSH1 0x20 ADD DUP3 DUP1 SLOAD PUSH1 0x1 DUP2 PUSH1 0x1 AND ISZERO PUSH2 0x100 MUL SUB AND PUSH1 0x2 SWAP1 DIV DUP1 ISZERO PUSH2 0x1B9 JUMPI DUP1 PUSH1 0x1F LT PUSH2 0x18E JUMPI PUSH2 0x100 DUP1 DUP4 SLOAD DIV MUL DUP4 MSTORE SWAP2 PUSH1 0x20 ADD SWAP2 PUSH2 0x1B9 JUMP JUMPDEST DUP3 ADD SWAP2 SWAP1 PUSH1 0x0 MSTORE PUSH1 0x20 PUSH1 0x0 KECCAK256 SWAP1 JUMPDEST DUP2 SLOAD DUP2 MSTORE SWAP1 PUSH1 0x1 ADD SWAP1 PUSH1 0x20 ADD DUP1 DUP4 GT PUSH2 0x19C JUMPI DUP3 SWAP1 SUB PUSH1 0x1F AND DUP3 ADD SWAP2 JUMPDEST POP POP POP POP POP DUP2 JUMP JUMPDEST PUSH1 0x3 DUP1 PUSH1 0x0 ADD SLOAD SWAP1 DUP1 PUSH1 0x1 ADD SLOAD SWAP1 POP DUP3 JUMP JUMPDEST PUSH1 0x2 SLOAD DUP2 JUMP JUMPDEST PUSH1 0x1 DUP1 SLOAD PUSH1 0x1 DUP2 PUSH1 0x1 AND ISZERO PUSH2 0x100 MUL SUB AND PUSH1 0x2 SWAP1 DIV DUP1 PUSH1 0x1F ADD PUSH1 0x20 DUP1 SWAP2 DIV MUL PUSH1 0x20 ADD PUSH1 0x40 MLOAD SWAP1 DUP2 ADD PUSH1 0x40 MSTORE DUP1 SWAP3 SWAP2 SWAP1 DUP2 DUP2 MSTORE PUSH1 0x20 ADD DUP3 DUP1 SLOAD PUSH1 0x1 DUP2 PUSH1 0x1 AND ISZERO PUSH2 0x100 MUL SUB AND PUSH1 0x2 SWAP1 DIV DUP1 ISZERO PUSH2 0x26F JUMPI DUP1 PUSH1 0x1F LT PUSH2 0x244 JUMPI PUSH2 0x100 DUP1 DUP4 SLOAD DIV MUL DUP4 MSTORE SWAP2 PUSH1 0x20 ADD SWAP2 PUSH2 0x26F JUMP JUMPDEST DUP3 ADD SWAP2 SWAP1 PUSH1 0x0 MSTORE PUSH1 0x20 PUSH1 0x0 KECCAK256 SWAP1 JUMPDEST DUP2 SLOAD DUP2 MSTORE SWAP1 PUSH1 0x1 ADD SWAP1 PUSH1 0x20 ADD DUP1 DUP4 GT PUSH2 0x252 JUMPI DUP3 SWAP1 SUB PUSH1 0x1F AND DUP3 ADD SWAP2 JUMPDEST POP POP POP POP POP DUP2 JUMP JUMPDEST PUSH1 0x0 PUSH1 0x1 DUP3 PUSH1 0x0 ADD MLOAD EQ PUSH2 0x28A JUMPI PUSH1 0x0 DUP1 REVERT JUMPDEST PUSH1 0x0 DUP1 DUP4 PUSH1 0x20 ADD MLOAD SWAP1 POP DUP1 MLOAD PUSH1 0x0 BYTE SWAP2 POP PUSH1 0x0 DUP3 EQ PUSH2 0x2AA JUMPI PUSH1 0x1 PUSH2 0x2AD JUMP JUMPDEST PUSH1 0x0 JUMPDEST SWAP3 POP POP POP SWAP2 SWAP1 POP JUMP JUMPDEST PUSH2 0x2BF DUP2 PUSH2 0x3B9 JUMP JUMPDEST DUP3 MSTORE POP POP JUMP JUMPDEST PUSH2 0x2CE DUP2 PUSH2 0x3C5 JUMP JUMPDEST DUP3 MSTORE POP POP JUMP JUMPDEST PUSH1 0x0 PUSH2 0x2DF DUP3 PUSH2 0x39D JUMP JUMPDEST PUSH2 0x2E9 DUP2 DUP6 PUSH2 0x3A8 JUMP JUMPDEST SWAP4 POP PUSH2 0x2F9 DUP2 DUP6 PUSH1 0x20 DUP7 ADD PUSH2 0x3D9 JUMP JUMPDEST PUSH2 0x302 DUP2 PUSH2 0x40C JUMP JUMPDEST DUP5 ADD SWAP2 POP POP SWAP3 SWAP2 POP POP JUMP JUMPDEST PUSH2 0x316 DUP2 PUSH2 0x3CF JUMP JUMPDEST DUP3 MSTORE POP POP JUMP JUMPDEST PUSH1 0x0 PUSH1 0x20 DUP3 ADD SWAP1 POP PUSH2 0x331 PUSH1 0x0 DUP4 ADD DUP5 PUSH2 0x2B6 JUMP JUMPDEST SWAP3 SWAP2 POP POP JUMP JUMPDEST PUSH1 0x0 PUSH1 0x20 DUP3 ADD SWAP1 POP PUSH2 0x34C PUSH1 0x0 DUP4 ADD DUP5 PUSH2 0x2C5 JUMP JUMPDEST SWAP3 SWAP2 POP POP JUMP JUMPDEST PUSH1 0x0 PUSH1 0x20 DUP3 ADD SWAP1 POP DUP2 DUP2 SUB PUSH1 0x0 DUP4 ADD MSTORE PUSH2 0x36C DUP2 DUP5 PUSH2 0x2D4 JUMP JUMPDEST SWAP1 POP SWAP3 SWAP2 POP POP JUMP JUMPDEST PUSH1 0x0 PUSH1 0x40 DUP3 ADD SWAP1 POP PUSH2 0x389 PUSH1 0x0 DUP4 ADD DUP6 PUSH2 0x30D JUMP JUMPDEST PUSH2 0x396 PUSH1 0x20 DUP4 ADD DUP5 PUSH2 0x30D JUMP JUMPDEST SWAP4 SWAP3 POP POP POP JUMP JUMPDEST PUSH1 0x0 DUP2 MLOAD SWAP1 POP SWAP2 SWAP1 POP JUMP JUMPDEST PUSH1 0x0 DUP3 DUP3 MSTORE PUSH1 0x20 DUP3 ADD SWAP1 POP SWAP3 SWAP2 POP POP JUMP JUMPDEST PUSH1 0x0 DUP2 ISZERO ISZERO SWAP1 POP SWAP2 SWAP1 POP JUMP JUMPDEST PUSH1 0x0 DUP2 SWAP1 POP SWAP2 SWAP1 POP JUMP JUMPDEST PUSH1 0x0 DUP2 SWAP1 POP SWAP2 SWAP1 POP JUMP JUMPDEST PUSH1 0x0 JUMPDEST DUP4 DUP2 LT ISZERO PUSH2 0x3F7 JUMPI DUP1 DUP3 ADD MLOAD DUP2 DUP5 ADD MSTORE PUSH1 0x20 DUP2 ADD SWAP1 POP PUSH2 0x3DC JUMP JUMPDEST DUP4 DUP2 GT ISZERO PUSH2 0x406 JUMPI PUSH1 0x0 DUP5 DUP5 ADD MSTORE JUMPDEST POP POP POP POP JUMP JUMPDEST PUSH1 0x0 PUSH1 0x1F NOT PUSH1 0x1F DUP4 ADD AND SWAP1 POP SWAP2 SWAP1 POP JUMP INVALID LOG2 PUSH5 0x6970667358 0x22 SLT KECCAK256 SWAP9 NUMBER PUSH27 0xB0338E5B63BA97F21777A6E0624FB8F2F3C24BBBA2AF24C3785A31 0xDA CODESIZE PUSH5 0x736F6C6343 STOP MOD DIV STOP CALLER 0x4E COINBASE 0x4C GASLIMIT 0x48 0x48 0x4A MSTORE8 SELFBALANCE DIFFICULTY MSTORE8 DIFFICULTY SELFBALANCE 0x48 0x4A MSTORE8 DIFFICULTY 0x48 MSTORE8 SSTORE 0x48 DIFFICULTY 0x4A MSTORE8 0x48 DIFFICULTY 0x4A MSTORE8 0x48 0x4A MSTORE8 0x48 0x4A MSTORE8 0x48 DIFFICULTY MSTORE8 0x4A DIFFICULTY 0x48 0x4A 0x4F 0x4E SELFBALANCE JUMP 0x4F PUSH20 0x64664E417364667364664C4548484A5347445348 DIFFICULTY 0x4A MSTORE8 0x48 0x4A MSTORE8 0x48 0x4A MSTORE8 0x48 DIFFICULTY MSTORE8 0x4A DIFFICULTY 0x48 0x4A 0x4F 0x4E SELFBALANCE JUMP 0x4F "
				},
				"gasEstimates": {
					"creation": {
						"codeDepositCost": "221400",
						"executionCost": "infinite",
						"totalCost": "infinite"
					},
					"external": {
						"data1()": "infinite",
						"data2()": "1173",
						"data3()": "infinite",
						"getData()": "infinite",
						"rlpItem()": "infinite"
					},
					"internal": {
						"_itemLength(uint256)": "infinite",
						"_payloadOffset(uint256)": "infinite",
						"copy(uint256,uint256,uint256)": "infinite",
						"numItems(struct demo2.RLPItem memory)": "infinite",
						"toAddress(struct demo2.RLPItem memory)": "infinite",
						"toBoolean(struct demo2.RLPItem memory)": "infinite",
						"toBytes(struct demo2.RLPItem memory)": "infinite",
						"toRlpBytes(struct demo2.RLPItem memory)": "infinite",
						"toUint(struct demo2.RLPItem memory)": "infinite",
						"toUintStrict(struct demo2.RLPItem memory)": "infinite"
					}
				},
				"methodIdentifiers": {
					"data1()": "9ffd85c4",
					"data2()": "e3a7fd75",
					"data3()": "fc26b0ab",
					"getData()": "3bc5de30",
					"rlpItem()": "a699fb03"
				}
			},
			"userdoc": {
				"methods": {}
			}
		}
	}
}