{
	"contracts/demo2.sol": {
		"demo2": {
			"abi": [
				{
					"inputs": [],
					"stateMutability": "nonpayable",
					"type": "constructor"
				},
				{
					"inputs": [],
					"name": "data1",
					"outputs": [
						{
							"internalType": "bytes",
							"name": "",
							"type": "bytes"
						}
					],
					"stateMutability": "view",
					"type": "function"
				},
				{
					"inputs": [],
					"name": "data2",
					"outputs": [
						{
							"internalType": "bytes32",
							"name": "",
							"type": "bytes32"
						}
					],
					"stateMutability": "view",
					"type": "function"
				},
				{
					"inputs": [],
					"name": "data3",
					"outputs": [
						{
							"internalType": "bytes",
							"name": "",
							"type": "bytes"
						}
					],
					"stateMutability": "view",
					"type": "function"
				},
				{
					"inputs": [],
					"name": "getData",
					"outputs": [
						{
							"internalType": "bool",
							"name": "",
							"type": "bool"
						}
					],
					"stateMutability": "view",
					"type": "function"
				},
				{
					"inputs": [],
					"name": "iterator",
					"outputs": [
						{
							"components": [
								{
									"internalType": "uint256",
									"name": "len",
									"type": "uint256"
								},
								{
									"internalType": "uint256",
									"name": "memPtr",
									"type": "uint256"
								}
							],
							"internalType": "struct demo2.RLPItem",
							"name": "item",
							"type": "tuple"
						},
						{
							"internalType": "uint256",
							"name": "nextPtr",
							"type": "uint256"
						}
					],
					"stateMutability": "view",
					"type": "function"
				},
				{
					"inputs": [],
					"name": "rlpItem",
					"outputs": [
						{
							"internalType": "uint256",
							"name": "len",
							"type": "uint256"
						},
						{
							"internalType": "uint256",
							"name": "memPtr",
							"type": "uint256"
						}
					],
					"stateMutability": "view",
					"type": "function"
				}
			],
			"devdoc": {
				"methods": {}
			},
			"evm": {
				"assembly": "    /* \"contracts/demo2.sol\":81:7573  contract demo2 {\r... */\n  mstore(0x40, 0x80)\n    /* \"contracts/demo2.sol\":107:176  bytes public data1 = \"NALEHHJSGDSDGHJSDHSUHDJSHDJSHJSHJSHDSJDHJONGVO\" */\n  mload(0x40)\n  dup1\n  0x60\n  add\n  0x40\n  mstore\n  dup1\n  0x2e\n  dup2\n  mstore\n  0x20\n  add\n  data_4887836e294a2761413359597244d307bbe3f94827f6160d9e1a399e00e2d1be\n  0x2e\n  swap2\n  codecopy\n  0x00\n  swap1\n  dup1\n  mload\n  swap1\n  0x20\n  add\n  swap1\n  tag_1\n  swap3\n  swap2\n  swap1\n  tag_2\n  jump\t// in\ntag_1:\n  pop\n    /* \"contracts/demo2.sol\":187:252  bytes public data3 = \"sdfNAsdfsdfLEHHJSGDSHDJSHJSHJSHDSJDHJONGVO\" */\n  mload(0x40)\n  dup1\n  0x60\n  add\n  0x40\n  mstore\n  dup1\n  0x2a\n  dup2\n  mstore\n  0x20\n  add\n  data_c359735a342ece061e65ab7390d246d1e53ba5f24eea70d6201f1d4a7b2f3475\n  0x2a\n  swap2\n  codecopy\n  0x01\n  swap1\n  dup1\n  mload\n  swap1\n  0x20\n  add\n  swap1\n  tag_3\n  swap3\n  swap2\n  swap1\n  tag_2\n  jump\t// in\ntag_3:\n  pop\n    /* \"contracts/demo2.sol\":263:310  bytes32 public data2 = \"LEHONGVOwjnfvj3weh8vKJ\" */\n  sstore(0x02, 0x4c45484f4e47564f776a6e66766a3377656838764b4a00000000000000000000)\n    /* \"contracts/demo2.sol\":999:1169  constructor() public {\r... */\n  callvalue\n    /* \"--CODEGEN--\":5:14   */\n  dup1\n    /* \"--CODEGEN--\":2:4   */\n  iszero\n  tag_4\n  jumpi\n    /* \"--CODEGEN--\":27:28   */\n  0x00\n    /* \"--CODEGEN--\":24:25   */\n  dup1\n    /* \"--CODEGEN--\":17:29   */\n  revert\n    /* \"--CODEGEN--\":2:4   */\ntag_4:\n    /* \"contracts/demo2.sol\":999:1169  constructor() public {\r... */\n  pop\n    /* \"contracts/demo2.sol\":1049:1050  4 */\n  0x04\n    /* \"contracts/demo2.sol\":1035:1042  rlpItem */\n  0x03\n    /* \"contracts/demo2.sol\":1035:1046  rlpItem.len */\n  0x00\n  add\n    /* \"contracts/demo2.sol\":1035:1050  rlpItem.len = 4 */\n  dup2\n  swap1\n  sstore\n  pop\n    /* \"contracts/demo2.sol\":1082:1083  3 */\n  0x03\n    /* \"contracts/demo2.sol\":1065:1072  rlpItem */\n  dup1\n    /* \"contracts/demo2.sol\":1065:1079  rlpItem.memPtr */\n  0x01\n  add\n    /* \"contracts/demo2.sol\":1065:1083  rlpItem.memPtr = 3 */\n  dup2\n  swap1\n  sstore\n  pop\n    /* \"contracts/demo2.sol\":1114:1121  rlpItem */\n  0x03\n    /* \"contracts/demo2.sol\":1098:1106  iterator */\n  0x05\n    /* \"contracts/demo2.sol\":1098:1111  iterator.item */\n  0x00\n  add\n    /* \"contracts/demo2.sol\":1098:1121  iterator.item = rlpItem */\n  0x00\n  dup3\n  add\n  sload\n  dup2\n  0x00\n  add\n  sstore\n  0x01\n  dup3\n  add\n  sload\n  dup2\n  0x01\n  add\n  sstore\n  swap1\n  pop\n  pop\n    /* \"contracts/demo2.sol\":1155:1157  10 */\n  0x0a\n    /* \"contracts/demo2.sol\":1136:1144  iterator */\n  0x05\n    /* \"contracts/demo2.sol\":1136:1152  iterator.nextPtr */\n  0x02\n  add\n    /* \"contracts/demo2.sol\":1136:1157  iterator.nextPtr = 10 */\n  dup2\n  swap1\n  sstore\n  pop\n    /* \"contracts/demo2.sol\":81:7573  contract demo2 {\r... */\n  jump(tag_7)\ntag_2:\n  dup3\n  dup1\n  sload\n  0x01\n  dup2\n  0x01\n  and\n  iszero\n  0x0100\n  mul\n  sub\n  and\n  0x02\n  swap1\n  div\n  swap1\n  0x00\n  mstore\n  keccak256(0x00, 0x20)\n  swap1\n  0x1f\n  add\n  0x20\n  swap1\n  div\n  dup2\n  add\n  swap3\n  dup3\n  0x1f\n  lt\n  tag_9\n  jumpi\n  dup1\n  mload\n  not(0xff)\n  and\n  dup4\n  dup1\n  add\n  or\n  dup6\n  sstore\n  jump(tag_8)\ntag_9:\n  dup3\n  dup1\n  add\n  0x01\n  add\n  dup6\n  sstore\n  dup3\n  iszero\n  tag_8\n  jumpi\n  swap2\n  dup3\n  add\ntag_10:\n  dup3\n  dup2\n  gt\n  iszero\n  tag_11\n  jumpi\n  dup3\n  mload\n  dup3\n  sstore\n  swap2\n  0x20\n  add\n  swap2\n  swap1\n  0x01\n  add\n  swap1\n  jump(tag_10)\ntag_11:\ntag_8:\n  pop\n  swap1\n  pop\n  tag_12\n  swap2\n  swap1\n  tag_13\n  jump\t// in\ntag_12:\n  pop\n  swap1\n  jump\t// out\ntag_13:\n  tag_14\n  swap2\n  swap1\ntag_15:\n  dup1\n  dup3\n  gt\n  iszero\n  tag_16\n  jumpi\n  0x00\n  dup2\n  0x00\n  swap1\n  sstore\n  pop\n  0x01\n  add\n  jump(tag_15)\ntag_16:\n  pop\n  swap1\n  jump\ntag_14:\n  swap1\n  jump\t// out\ntag_7:\n  dataSize(sub_0)\n  dup1\n  dataOffset(sub_0)\n  0x00\n  codecopy\n  0x00\n  return\nstop\ndata_4887836e294a2761413359597244d307bbe3f94827f6160d9e1a399e00e2d1be 4e414c4548484a534744534447484a534448535548444a5348444a53484a53484a534844534a44484a4f4e47564f\ndata_c359735a342ece061e65ab7390d246d1e53ba5f24eea70d6201f1d4a7b2f3475 7364664e417364667364664c4548484a5347445348444a53484a53484a534844534a44484a4f4e47564f\n\nsub_0: assembly {\n        /* \"contracts/demo2.sol\":81:7573  contract demo2 {\r... */\n      mstore(0x40, 0x80)\n      callvalue\n        /* \"--CODEGEN--\":5:14   */\n      dup1\n        /* \"--CODEGEN--\":2:4   */\n      iszero\n      tag_1\n      jumpi\n        /* \"--CODEGEN--\":27:28   */\n      0x00\n        /* \"--CODEGEN--\":24:25   */\n      dup1\n        /* \"--CODEGEN--\":17:29   */\n      revert\n        /* \"--CODEGEN--\":2:4   */\n    tag_1:\n        /* \"contracts/demo2.sol\":81:7573  contract demo2 {\r... */\n      pop\n      jumpi(tag_2, lt(calldatasize, 0x04))\n      shr(0xe0, calldataload(0x00))\n      dup1\n      0x3bc5de30\n      eq\n      tag_3\n      jumpi\n      dup1\n      0x9ffd85c4\n      eq\n      tag_4\n      jumpi\n      dup1\n      0xa699fb03\n      eq\n      tag_5\n      jumpi\n      dup1\n      0xe3a7fd75\n      eq\n      tag_6\n      jumpi\n      dup1\n      0xfc26b0ab\n      eq\n      tag_7\n      jumpi\n      dup1\n      0xfddcc148\n      eq\n      tag_8\n      jumpi\n    tag_2:\n        /* \"--CODEGEN--\":12:13   */\n      0x00\n        /* \"--CODEGEN--\":9:10   */\n      dup1\n        /* \"--CODEGEN--\":2:14   */\n      revert\n        /* \"contracts/demo2.sol\":1191:1287  function getData() public view returns(bool) {\r... */\n    tag_3:\n      tag_9\n      tag_10\n      jump\t// in\n    tag_9:\n      mload(0x40)\n      tag_11\n      swap2\n      swap1\n      jump(tag_12)\n    tag_11:\n      mload(0x40)\n      dup1\n      swap2\n      sub\n      swap1\n      return\n        /* \"contracts/demo2.sol\":107:176  bytes public data1 = \"NALEHHJSGDSDGHJSDHSUHDJSHDJSHJSHJSHDSJDHJONGVO\" */\n    tag_4:\n      tag_13\n      tag_14\n      jump\t// in\n    tag_13:\n      mload(0x40)\n      tag_15\n      swap2\n      swap1\n      jump(tag_16)\n    tag_15:\n      mload(0x40)\n      dup1\n      swap2\n      sub\n      swap1\n      return\n        /* \"contracts/demo2.sol\":929:951  RLPItem public rlpItem */\n    tag_5:\n      tag_17\n      tag_18\n      jump\t// in\n    tag_17:\n      mload(0x40)\n      tag_19\n      swap3\n      swap2\n      swap1\n      jump(tag_20)\n    tag_19:\n      mload(0x40)\n      dup1\n      swap2\n      sub\n      swap1\n      return\n        /* \"contracts/demo2.sol\":263:310  bytes32 public data2 = \"LEHONGVOwjnfvj3weh8vKJ\" */\n    tag_6:\n      tag_21\n      tag_22\n      jump\t// in\n    tag_21:\n      mload(0x40)\n      tag_23\n      swap2\n      swap1\n      jump(tag_24)\n    tag_23:\n      mload(0x40)\n      dup1\n      swap2\n      sub\n      swap1\n      return\n        /* \"contracts/demo2.sol\":187:252  bytes public data3 = \"sdfNAsdfsdfLEHHJSGDSHDJSHJSHJSHDSJDHJONGVO\" */\n    tag_7:\n      tag_25\n      tag_26\n      jump\t// in\n    tag_25:\n      mload(0x40)\n      tag_27\n      swap2\n      swap1\n      jump(tag_16)\n    tag_27:\n      mload(0x40)\n      dup1\n      swap2\n      sub\n      swap1\n      return\n        /* \"contracts/demo2.sol\":962:986  Iterator public iterator */\n    tag_8:\n      tag_28\n      tag_29\n      jump\t// in\n    tag_28:\n      mload(0x40)\n      tag_30\n      swap3\n      swap2\n      swap1\n      jump(tag_31)\n    tag_30:\n      mload(0x40)\n      dup1\n      swap2\n      sub\n      swap1\n      return\n        /* \"contracts/demo2.sol\":1191:1287  function getData() public view returns(bool) {\r... */\n    tag_10:\n        /* \"contracts/demo2.sol\":1230:1234  bool */\n      0x00\n        /* \"contracts/demo2.sol\":1258:1275  hasNext(iterator) */\n      tag_33\n        /* \"contracts/demo2.sol\":1266:1274  iterator */\n      0x05\n        /* \"contracts/demo2.sol\":1258:1275  hasNext(iterator) */\n      mload(0x40)\n      dup1\n      0x40\n      add\n      0x40\n      mstore\n      swap1\n      dup2\n      0x00\n      dup3\n      add\n      mload(0x40)\n      dup1\n      0x40\n      add\n      0x40\n      mstore\n      swap1\n      dup2\n      0x00\n      dup3\n      add\n      sload\n      dup2\n      mstore\n      0x20\n      add\n      0x01\n      dup3\n      add\n      sload\n      dup2\n      mstore\n      pop\n      pop\n      dup2\n      mstore\n      0x20\n      add\n      0x02\n      dup3\n      add\n      sload\n      dup2\n      mstore\n      pop\n      pop\n        /* \"contracts/demo2.sol\":1258:1265  hasNext */\n      tag_34\n        /* \"contracts/demo2.sol\":1258:1275  hasNext(iterator) */\n      jump\t// in\n    tag_33:\n        /* \"contracts/demo2.sol\":1251:1275  return hasNext(iterator) */\n      swap1\n      pop\n        /* \"contracts/demo2.sol\":1191:1287  function getData() public view returns(bool) {\r... */\n      swap1\n      jump\t// out\n        /* \"contracts/demo2.sol\":107:176  bytes public data1 = \"NALEHHJSGDSDGHJSDHSUHDJSHDJSHJSHJSHDSJDHJONGVO\" */\n    tag_14:\n      0x00\n      dup1\n      sload\n      0x01\n      dup2\n      0x01\n      and\n      iszero\n      0x0100\n      mul\n      sub\n      and\n      0x02\n      swap1\n      div\n      dup1\n      0x1f\n      add\n      0x20\n      dup1\n      swap2\n      div\n      mul\n      0x20\n      add\n      mload(0x40)\n      swap1\n      dup2\n      add\n      0x40\n      mstore\n      dup1\n      swap3\n      swap2\n      swap1\n      dup2\n      dup2\n      mstore\n      0x20\n      add\n      dup3\n      dup1\n      sload\n      0x01\n      dup2\n      0x01\n      and\n      iszero\n      0x0100\n      mul\n      sub\n      and\n      0x02\n      swap1\n      div\n      dup1\n      iszero\n      tag_35\n      jumpi\n      dup1\n      0x1f\n      lt\n      tag_36\n      jumpi\n      0x0100\n      dup1\n      dup4\n      sload\n      div\n      mul\n      dup4\n      mstore\n      swap2\n      0x20\n      add\n      swap2\n      jump(tag_35)\n    tag_36:\n      dup3\n      add\n      swap2\n      swap1\n      0x00\n      mstore\n      keccak256(0x00, 0x20)\n      swap1\n    tag_37:\n      dup2\n      sload\n      dup2\n      mstore\n      swap1\n      0x01\n      add\n      swap1\n      0x20\n      add\n      dup1\n      dup4\n      gt\n      tag_37\n      jumpi\n      dup3\n      swap1\n      sub\n      0x1f\n      and\n      dup3\n      add\n      swap2\n    tag_35:\n      pop\n      pop\n      pop\n      pop\n      pop\n      dup2\n      jump\t// out\n        /* \"contracts/demo2.sol\":929:951  RLPItem public rlpItem */\n    tag_18:\n      0x03\n      dup1\n      0x00\n      add\n      sload\n      swap1\n      dup1\n      0x01\n      add\n      sload\n      swap1\n      pop\n      dup3\n      jump\t// out\n        /* \"contracts/demo2.sol\":263:310  bytes32 public data2 = \"LEHONGVOwjnfvj3weh8vKJ\" */\n    tag_22:\n      sload(0x02)\n      dup2\n      jump\t// out\n        /* \"contracts/demo2.sol\":187:252  bytes public data3 = \"sdfNAsdfsdfLEHHJSGDSHDJSHJSHJSHDSJDHJONGVO\" */\n    tag_26:\n      0x01\n      dup1\n      sload\n      0x01\n      dup2\n      0x01\n      and\n      iszero\n      0x0100\n      mul\n      sub\n      and\n      0x02\n      swap1\n      div\n      dup1\n      0x1f\n      add\n      0x20\n      dup1\n      swap2\n      div\n      mul\n      0x20\n      add\n      mload(0x40)\n      swap1\n      dup2\n      add\n      0x40\n      mstore\n      dup1\n      swap3\n      swap2\n      swap1\n      dup2\n      dup2\n      mstore\n      0x20\n      add\n      dup3\n      dup1\n      sload\n      0x01\n      dup2\n      0x01\n      and\n      iszero\n      0x0100\n      mul\n      sub\n      and\n      0x02\n      swap1\n      div\n      dup1\n      iszero\n      tag_38\n      jumpi\n      dup1\n      0x1f\n      lt\n      tag_39\n      jumpi\n      0x0100\n      dup1\n      dup4\n      sload\n      div\n      mul\n      dup4\n      mstore\n      swap2\n      0x20\n      add\n      swap2\n      jump(tag_38)\n    tag_39:\n      dup3\n      add\n      swap2\n      swap1\n      0x00\n      mstore\n      keccak256(0x00, 0x20)\n      swap1\n    tag_40:\n      dup2\n      sload\n      dup2\n      mstore\n      swap1\n      0x01\n      add\n      swap1\n      0x20\n      add\n      dup1\n      dup4\n      gt\n      tag_40\n      jumpi\n      dup3\n      swap1\n      sub\n      0x1f\n      and\n      dup3\n      add\n      swap2\n    tag_38:\n      pop\n      pop\n      pop\n      pop\n      pop\n      dup2\n      jump\t// out\n        /* \"contracts/demo2.sol\":962:986  Iterator public iterator */\n    tag_29:\n      0x05\n      dup1\n      0x00\n      add\n      mload(0x40)\n      dup1\n      0x40\n      add\n      0x40\n      mstore\n      swap1\n      dup2\n      0x00\n      dup3\n      add\n      sload\n      dup2\n      mstore\n      0x20\n      add\n      0x01\n      dup3\n      add\n      sload\n      dup2\n      mstore\n      pop\n      pop\n      swap1\n      dup1\n      0x02\n      add\n      sload\n      swap1\n      pop\n      dup3\n      jump\t// out\n        /* \"contracts/demo2.sol\":1299:1484  function hasNext(Iterator memory self) internal pure returns (bool) {\r... */\n    tag_34:\n        /* \"contracts/demo2.sol\":1361:1365  bool */\n      0x00\n        /* \"contracts/demo2.sol\":1382:1401  RLPItem memory item */\n      tag_42\n      tag_43\n      jump\t// in\n    tag_42:\n        /* \"contracts/demo2.sol\":1404:1408  self */\n      dup3\n        /* \"contracts/demo2.sol\":1404:1413  self.item */\n      0x00\n      add\n      mload\n        /* \"contracts/demo2.sol\":1382:1413  RLPItem memory item = self.item */\n      swap1\n      pop\n        /* \"contracts/demo2.sol\":1464:1468  item */\n      dup1\n        /* \"contracts/demo2.sol\":1464:1472  item.len */\n      0x00\n      add\n      mload\n        /* \"contracts/demo2.sol\":1450:1454  item */\n      dup2\n        /* \"contracts/demo2.sol\":1450:1461  item.memPtr */\n      0x20\n      add\n      mload\n        /* \"contracts/demo2.sol\":1450:1472  item.memPtr + item.len */\n      add\n        /* \"contracts/demo2.sol\":1435:1439  self */\n      dup4\n        /* \"contracts/demo2.sol\":1435:1447  self.nextPtr */\n      0x20\n      add\n      mload\n        /* \"contracts/demo2.sol\":1435:1472  self.nextPtr < item.memPtr + item.len */\n      lt\n        /* \"contracts/demo2.sol\":1428:1472  return self.nextPtr < item.memPtr + item.len */\n      swap2\n      pop\n      pop\n        /* \"contracts/demo2.sol\":1299:1484  function hasNext(Iterator memory self) internal pure returns (bool) {\r... */\n      swap2\n      swap1\n      pop\n      jump\t// out\n        /* \"contracts/demo2.sol\":81:7573  contract demo2 {\r... */\n    tag_43:\n      mload(0x40)\n      dup1\n      0x40\n      add\n      0x40\n      mstore\n      dup1\n      0x00\n      dup2\n      mstore\n      0x20\n      add\n      0x00\n      dup2\n      mstore\n      pop\n      swap1\n      jump\t// out\n        /* \"--CODEGEN--\":5:109   */\n    tag_45:\n        /* \"--CODEGEN--\":82:103   */\n      tag_47\n        /* \"--CODEGEN--\":97:102   */\n      dup2\n        /* \"--CODEGEN--\":82:103   */\n      jump(tag_48)\n    tag_47:\n        /* \"--CODEGEN--\":77:80   */\n      dup3\n        /* \"--CODEGEN--\":70:104   */\n      mstore\n        /* \"--CODEGEN--\":64:109   */\n      pop\n      pop\n      jump\n        /* \"--CODEGEN--\":116:229   */\n    tag_49:\n        /* \"--CODEGEN--\":199:223   */\n      tag_51\n        /* \"--CODEGEN--\":217:222   */\n      dup2\n        /* \"--CODEGEN--\":199:223   */\n      jump(tag_52)\n    tag_51:\n        /* \"--CODEGEN--\":194:197   */\n      dup3\n        /* \"--CODEGEN--\":187:224   */\n      mstore\n        /* \"--CODEGEN--\":181:229   */\n      pop\n      pop\n      jump\n        /* \"--CODEGEN--\":236:571   */\n    tag_53:\n      0x00\n        /* \"--CODEGEN--\":342:376   */\n      tag_55\n        /* \"--CODEGEN--\":370:375   */\n      dup3\n        /* \"--CODEGEN--\":342:376   */\n      jump(tag_56)\n    tag_55:\n        /* \"--CODEGEN--\":388:458   */\n      tag_57\n        /* \"--CODEGEN--\":451:457   */\n      dup2\n        /* \"--CODEGEN--\":446:449   */\n      dup6\n        /* \"--CODEGEN--\":388:458   */\n      jump(tag_58)\n    tag_57:\n        /* \"--CODEGEN--\":381:458   */\n      swap4\n      pop\n        /* \"--CODEGEN--\":463:515   */\n      tag_59\n        /* \"--CODEGEN--\":508:514   */\n      dup2\n        /* \"--CODEGEN--\":503:506   */\n      dup6\n        /* \"--CODEGEN--\":496:500   */\n      0x20\n        /* \"--CODEGEN--\":489:494   */\n      dup7\n        /* \"--CODEGEN--\":485:501   */\n      add\n        /* \"--CODEGEN--\":463:515   */\n      jump(tag_60)\n    tag_59:\n        /* \"--CODEGEN--\":536:565   */\n      tag_61\n        /* \"--CODEGEN--\":558:564   */\n      dup2\n        /* \"--CODEGEN--\":536:565   */\n      jump(tag_62)\n    tag_61:\n        /* \"--CODEGEN--\":531:534   */\n      dup5\n        /* \"--CODEGEN--\":527:566   */\n      add\n        /* \"--CODEGEN--\":520:566   */\n      swap2\n      pop\n        /* \"--CODEGEN--\":322:571   */\n      pop\n      swap3\n      swap2\n      pop\n      pop\n      jump\n        /* \"--CODEGEN--\":629:1098   */\n    tag_63:\n        /* \"--CODEGEN--\":764:768   */\n      0x40\n        /* \"--CODEGEN--\":759:762   */\n      dup3\n        /* \"--CODEGEN--\":755:769   */\n      add\n        /* \"--CODEGEN--\":846:850   */\n      0x00\n        /* \"--CODEGEN--\":839:844   */\n      dup3\n        /* \"--CODEGEN--\":835:851   */\n      add\n        /* \"--CODEGEN--\":829:852   */\n      mload\n        /* \"--CODEGEN--\":858:921   */\n      tag_65\n        /* \"--CODEGEN--\":915:919   */\n      0x00\n        /* \"--CODEGEN--\":910:913   */\n      dup6\n        /* \"--CODEGEN--\":906:920   */\n      add\n        /* \"--CODEGEN--\":892:904   */\n      dup3\n        /* \"--CODEGEN--\":858:921   */\n      jump(tag_66)\n    tag_65:\n        /* \"--CODEGEN--\":784:927   */\n      pop\n        /* \"--CODEGEN--\":1002:1006   */\n      0x20\n        /* \"--CODEGEN--\":995:1000   */\n      dup3\n        /* \"--CODEGEN--\":991:1007   */\n      add\n        /* \"--CODEGEN--\":985:1008   */\n      mload\n        /* \"--CODEGEN--\":1014:1077   */\n      tag_67\n        /* \"--CODEGEN--\":1071:1075   */\n      0x20\n        /* \"--CODEGEN--\":1066:1069   */\n      dup6\n        /* \"--CODEGEN--\":1062:1076   */\n      add\n        /* \"--CODEGEN--\":1048:1060   */\n      dup3\n        /* \"--CODEGEN--\":1014:1077   */\n      jump(tag_66)\n    tag_67:\n        /* \"--CODEGEN--\":937:1083   */\n      pop\n        /* \"--CODEGEN--\":737:1098   */\n      pop\n      pop\n      pop\n      jump\n        /* \"--CODEGEN--\":1105:1208   */\n    tag_66:\n        /* \"--CODEGEN--\":1178:1202   */\n      tag_69\n        /* \"--CODEGEN--\":1196:1201   */\n      dup2\n        /* \"--CODEGEN--\":1178:1202   */\n      jump(tag_70)\n    tag_69:\n        /* \"--CODEGEN--\":1173:1176   */\n      dup3\n        /* \"--CODEGEN--\":1166:1203   */\n      mstore\n        /* \"--CODEGEN--\":1160:1208   */\n      pop\n      pop\n      jump\n        /* \"--CODEGEN--\":1215:1328   */\n    tag_71:\n        /* \"--CODEGEN--\":1298:1322   */\n      tag_73\n        /* \"--CODEGEN--\":1316:1321   */\n      dup2\n        /* \"--CODEGEN--\":1298:1322   */\n      jump(tag_70)\n    tag_73:\n        /* \"--CODEGEN--\":1293:1296   */\n      dup3\n        /* \"--CODEGEN--\":1286:1323   */\n      mstore\n        /* \"--CODEGEN--\":1280:1328   */\n      pop\n      pop\n      jump\n        /* \"--CODEGEN--\":1335:1536   */\n    tag_12:\n      0x00\n        /* \"--CODEGEN--\":1447:1449   */\n      0x20\n        /* \"--CODEGEN--\":1436:1445   */\n      dup3\n        /* \"--CODEGEN--\":1432:1450   */\n      add\n        /* \"--CODEGEN--\":1424:1450   */\n      swap1\n      pop\n        /* \"--CODEGEN--\":1461:1526   */\n      tag_75\n        /* \"--CODEGEN--\":1523:1524   */\n      0x00\n        /* \"--CODEGEN--\":1512:1521   */\n      dup4\n        /* \"--CODEGEN--\":1508:1525   */\n      add\n        /* \"--CODEGEN--\":1499:1505   */\n      dup5\n        /* \"--CODEGEN--\":1461:1526   */\n      jump(tag_45)\n    tag_75:\n        /* \"--CODEGEN--\":1418:1536   */\n      swap3\n      swap2\n      pop\n      pop\n      jump\n        /* \"--CODEGEN--\":1543:1756   */\n    tag_24:\n      0x00\n        /* \"--CODEGEN--\":1661:1663   */\n      0x20\n        /* \"--CODEGEN--\":1650:1659   */\n      dup3\n        /* \"--CODEGEN--\":1646:1664   */\n      add\n        /* \"--CODEGEN--\":1638:1664   */\n      swap1\n      pop\n        /* \"--CODEGEN--\":1675:1746   */\n      tag_77\n        /* \"--CODEGEN--\":1743:1744   */\n      0x00\n        /* \"--CODEGEN--\":1732:1741   */\n      dup4\n        /* \"--CODEGEN--\":1728:1745   */\n      add\n        /* \"--CODEGEN--\":1719:1725   */\n      dup5\n        /* \"--CODEGEN--\":1675:1746   */\n      jump(tag_49)\n    tag_77:\n        /* \"--CODEGEN--\":1632:1756   */\n      swap3\n      swap2\n      pop\n      pop\n      jump\n        /* \"--CODEGEN--\":1763:2052   */\n    tag_16:\n      0x00\n        /* \"--CODEGEN--\":1895:1897   */\n      0x20\n        /* \"--CODEGEN--\":1884:1893   */\n      dup3\n        /* \"--CODEGEN--\":1880:1898   */\n      add\n        /* \"--CODEGEN--\":1872:1898   */\n      swap1\n      pop\n        /* \"--CODEGEN--\":1945:1954   */\n      dup2\n        /* \"--CODEGEN--\":1939:1943   */\n      dup2\n        /* \"--CODEGEN--\":1935:1955   */\n      sub\n        /* \"--CODEGEN--\":1931:1932   */\n      0x00\n        /* \"--CODEGEN--\":1920:1929   */\n      dup4\n        /* \"--CODEGEN--\":1916:1933   */\n      add\n        /* \"--CODEGEN--\":1909:1956   */\n      mstore\n        /* \"--CODEGEN--\":1970:2042   */\n      tag_79\n        /* \"--CODEGEN--\":2037:2041   */\n      dup2\n        /* \"--CODEGEN--\":2028:2034   */\n      dup5\n        /* \"--CODEGEN--\":1970:2042   */\n      jump(tag_53)\n    tag_79:\n        /* \"--CODEGEN--\":1962:2042   */\n      swap1\n      pop\n        /* \"--CODEGEN--\":1866:2052   */\n      swap3\n      swap2\n      pop\n      pop\n      jump\n        /* \"--CODEGEN--\":2059:2467   */\n    tag_31:\n      0x00\n        /* \"--CODEGEN--\":2247:2249   */\n      0x60\n        /* \"--CODEGEN--\":2236:2245   */\n      dup3\n        /* \"--CODEGEN--\":2232:2250   */\n      add\n        /* \"--CODEGEN--\":2224:2250   */\n      swap1\n      pop\n        /* \"--CODEGEN--\":2261:2374   */\n      tag_81\n        /* \"--CODEGEN--\":2371:2372   */\n      0x00\n        /* \"--CODEGEN--\":2360:2369   */\n      dup4\n        /* \"--CODEGEN--\":2356:2373   */\n      add\n        /* \"--CODEGEN--\":2347:2353   */\n      dup6\n        /* \"--CODEGEN--\":2261:2374   */\n      jump(tag_63)\n    tag_81:\n        /* \"--CODEGEN--\":2385:2457   */\n      tag_82\n        /* \"--CODEGEN--\":2453:2455   */\n      0x40\n        /* \"--CODEGEN--\":2442:2451   */\n      dup4\n        /* \"--CODEGEN--\":2438:2456   */\n      add\n        /* \"--CODEGEN--\":2429:2435   */\n      dup5\n        /* \"--CODEGEN--\":2385:2457   */\n      jump(tag_71)\n    tag_82:\n        /* \"--CODEGEN--\":2218:2467   */\n      swap4\n      swap3\n      pop\n      pop\n      pop\n      jump\n        /* \"--CODEGEN--\":2474:2798   */\n    tag_20:\n      0x00\n        /* \"--CODEGEN--\":2620:2622   */\n      0x40\n        /* \"--CODEGEN--\":2609:2618   */\n      dup3\n        /* \"--CODEGEN--\":2605:2623   */\n      add\n        /* \"--CODEGEN--\":2597:2623   */\n      swap1\n      pop\n        /* \"--CODEGEN--\":2634:2705   */\n      tag_84\n        /* \"--CODEGEN--\":2702:2703   */\n      0x00\n        /* \"--CODEGEN--\":2691:2700   */\n      dup4\n        /* \"--CODEGEN--\":2687:2704   */\n      add\n        /* \"--CODEGEN--\":2678:2684   */\n      dup6\n        /* \"--CODEGEN--\":2634:2705   */\n      jump(tag_71)\n    tag_84:\n        /* \"--CODEGEN--\":2716:2788   */\n      tag_85\n        /* \"--CODEGEN--\":2784:2786   */\n      0x20\n        /* \"--CODEGEN--\":2773:2782   */\n      dup4\n        /* \"--CODEGEN--\":2769:2787   */\n      add\n        /* \"--CODEGEN--\":2760:2766   */\n      dup5\n        /* \"--CODEGEN--\":2716:2788   */\n      jump(tag_71)\n    tag_85:\n        /* \"--CODEGEN--\":2591:2798   */\n      swap4\n      swap3\n      pop\n      pop\n      pop\n      jump\n        /* \"--CODEGEN--\":2805:2922   */\n    tag_56:\n      0x00\n        /* \"--CODEGEN--\":2894:2899   */\n      dup2\n        /* \"--CODEGEN--\":2888:2900   */\n      mload\n        /* \"--CODEGEN--\":2878:2900   */\n      swap1\n      pop\n        /* \"--CODEGEN--\":2859:2922   */\n      swap2\n      swap1\n      pop\n      jump\n        /* \"--CODEGEN--\":2930:3092   */\n    tag_58:\n      0x00\n        /* \"--CODEGEN--\":3044:3050   */\n      dup3\n        /* \"--CODEGEN--\":3039:3042   */\n      dup3\n        /* \"--CODEGEN--\":3032:3051   */\n      mstore\n        /* \"--CODEGEN--\":3081:3085   */\n      0x20\n        /* \"--CODEGEN--\":3076:3079   */\n      dup3\n        /* \"--CODEGEN--\":3072:3086   */\n      add\n        /* \"--CODEGEN--\":3057:3086   */\n      swap1\n      pop\n        /* \"--CODEGEN--\":3025:3092   */\n      swap3\n      swap2\n      pop\n      pop\n      jump\n        /* \"--CODEGEN--\":3100:3185   */\n    tag_48:\n      0x00\n        /* \"--CODEGEN--\":3173:3178   */\n      dup2\n        /* \"--CODEGEN--\":3166:3179   */\n      iszero\n        /* \"--CODEGEN--\":3159:3180   */\n      iszero\n        /* \"--CODEGEN--\":3148:3180   */\n      swap1\n      pop\n        /* \"--CODEGEN--\":3142:3185   */\n      swap2\n      swap1\n      pop\n      jump\n        /* \"--CODEGEN--\":3192:3264   */\n    tag_52:\n      0x00\n        /* \"--CODEGEN--\":3254:3259   */\n      dup2\n        /* \"--CODEGEN--\":3243:3259   */\n      swap1\n      pop\n        /* \"--CODEGEN--\":3237:3264   */\n      swap2\n      swap1\n      pop\n      jump\n        /* \"--CODEGEN--\":3271:3343   */\n    tag_70:\n      0x00\n        /* \"--CODEGEN--\":3333:3338   */\n      dup2\n        /* \"--CODEGEN--\":3322:3338   */\n      swap1\n      pop\n        /* \"--CODEGEN--\":3316:3343   */\n      swap2\n      swap1\n      pop\n      jump\n        /* \"--CODEGEN--\":3351:3619   */\n    tag_60:\n        /* \"--CODEGEN--\":3416:3417   */\n      0x00\n        /* \"--CODEGEN--\":3423:3524   */\n    tag_92:\n        /* \"--CODEGEN--\":3437:3443   */\n      dup4\n        /* \"--CODEGEN--\":3434:3435   */\n      dup2\n        /* \"--CODEGEN--\":3431:3444   */\n      lt\n        /* \"--CODEGEN--\":3423:3524   */\n      iszero\n      tag_94\n      jumpi\n        /* \"--CODEGEN--\":3513:3514   */\n      dup1\n        /* \"--CODEGEN--\":3508:3511   */\n      dup3\n        /* \"--CODEGEN--\":3504:3515   */\n      add\n        /* \"--CODEGEN--\":3498:3516   */\n      mload\n        /* \"--CODEGEN--\":3494:3495   */\n      dup2\n        /* \"--CODEGEN--\":3489:3492   */\n      dup5\n        /* \"--CODEGEN--\":3485:3496   */\n      add\n        /* \"--CODEGEN--\":3478:3517   */\n      mstore\n        /* \"--CODEGEN--\":3459:3461   */\n      0x20\n        /* \"--CODEGEN--\":3456:3457   */\n      dup2\n        /* \"--CODEGEN--\":3452:3462   */\n      add\n        /* \"--CODEGEN--\":3447:3462   */\n      swap1\n      pop\n        /* \"--CODEGEN--\":3423:3524   */\n      jump(tag_92)\n    tag_94:\n        /* \"--CODEGEN--\":3539:3545   */\n      dup4\n        /* \"--CODEGEN--\":3536:3537   */\n      dup2\n        /* \"--CODEGEN--\":3533:3546   */\n      gt\n        /* \"--CODEGEN--\":3530:3532   */\n      iszero\n      tag_95\n      jumpi\n        /* \"--CODEGEN--\":3604:3605   */\n      0x00\n        /* \"--CODEGEN--\":3595:3601   */\n      dup5\n        /* \"--CODEGEN--\":3590:3593   */\n      dup5\n        /* \"--CODEGEN--\":3586:3602   */\n      add\n        /* \"--CODEGEN--\":3579:3606   */\n      mstore\n        /* \"--CODEGEN--\":3530:3532   */\n    tag_95:\n        /* \"--CODEGEN--\":3400:3619   */\n      pop\n      pop\n      pop\n      pop\n      jump\n        /* \"--CODEGEN--\":3627:3724   */\n    tag_62:\n      0x00\n        /* \"--CODEGEN--\":3715:3717   */\n      0x1f\n        /* \"--CODEGEN--\":3711:3718   */\n      not\n        /* \"--CODEGEN--\":3706:3708   */\n      0x1f\n        /* \"--CODEGEN--\":3699:3704   */\n      dup4\n        /* \"--CODEGEN--\":3695:3709   */\n      add\n        /* \"--CODEGEN--\":3691:3719   */\n      and\n        /* \"--CODEGEN--\":3681:3719   */\n      swap1\n      pop\n        /* \"--CODEGEN--\":3675:3724   */\n      swap2\n      swap1\n      pop\n      jump\n\n    auxdata: 0xa264697066735822122063c064db98d4d525be089f0dd57608f431a9c97058791e0d47a0bcfd3f00f01664736f6c63430006040033\n}\n",
				"bytecode": {
					"linkReferences": {},
					"object": "60806040526040518060600160405280602e81526020016106c1602e9139600090805190602001906100329291906100d6565b506040518060600160405280602a81526020016106ef602a9139600190805190602001906100619291906100d6565b507f4c45484f4e47564f776a6e66766a3377656838764b4a0000000000000000000060025534801561009257600080fd5b50600460036000018190555060038060010181905550600360056000016000820154816000015560018201548160010155905050600a60056002018190555061017b565b828054600181600116156101000203166002900490600052602060002090601f016020900481019282601f1061011757805160ff1916838001178555610145565b82800160010185558215610145579182015b82811115610144578251825591602001919060010190610129565b5b5090506101529190610156565b5090565b61017891905b8082111561017457600081600090555060010161015c565b5090565b90565b6105378061018a6000396000f3fe608060405234801561001057600080fd5b50600436106100625760003560e01c80633bc5de30146100675780639ffd85c414610085578063a699fb03146100a3578063e3a7fd75146100c2578063fc26b0ab146100e0578063fddcc148146100fe575b600080fd5b61006f61011d565b60405161007c91906103d7565b60405180910390f35b61008d61016b565b60405161009a919061040d565b60405180910390f35b6100ab610209565b6040516100b9929190610458565b60405180910390f35b6100ca61021b565b6040516100d791906103f2565b60405180910390f35b6100e8610221565b6040516100f5919061040d565b60405180910390f35b6101066102bf565b60405161011492919061042f565b60405180910390f35b60006101666005604051806040016040529081600082016040518060400160405290816000820154815260200160018201548152505081526020016002820154815250506102ef565b905090565b60008054600181600116156101000203166002900480601f0160208091040260200160405190810160405280929190818152602001828054600181600116156101000203166002900480156102015780601f106101d657610100808354040283529160200191610201565b820191906000526020600020905b8154815290600101906020018083116101e457829003601f168201915b505050505081565b60038060000154908060010154905082565b60025481565b60018054600181600116156101000203166002900480601f0160208091040260200160405190810160405280929190818152602001828054600181600116156101000203166002900480156102b75780601f1061028c576101008083540402835291602001916102b7565b820191906000526020600020905b81548152906001019060200180831161029a57829003601f168201915b505050505081565b60058060000160405180604001604052908160008201548152602001600182015481525050908060020154905082565b60006102f9610319565b826000015190508060000151816020015101836020015110915050919050565b604051806040016040528060008152602001600081525090565b61033c8161049d565b82525050565b61034b816104a9565b82525050565b600061035c82610481565b610366818561048c565b93506103768185602086016104bd565b61037f816104f0565b840191505092915050565b6040820160008201516103a060008501826103b9565b5060208201516103b360208501826103b9565b50505050565b6103c2816104b3565b82525050565b6103d1816104b3565b82525050565b60006020820190506103ec6000830184610333565b92915050565b60006020820190506104076000830184610342565b92915050565b600060208201905081810360008301526104278184610351565b905092915050565b6000606082019050610444600083018561038a565b61045160408301846103c8565b9392505050565b600060408201905061046d60008301856103c8565b61047a60208301846103c8565b9392505050565b600081519050919050565b600082825260208201905092915050565b60008115159050919050565b6000819050919050565b6000819050919050565b60005b838110156104db5780820151818401526020810190506104c0565b838111156104ea576000848401525b50505050565b6000601f19601f830116905091905056fea264697066735822122063c064db98d4d525be089f0dd57608f431a9c97058791e0d47a0bcfd3f00f01664736f6c634300060400334e414c4548484a534744534447484a534448535548444a5348444a53484a53484a534844534a44484a4f4e47564f7364664e417364667364664c4548484a5347445348444a53484a53484a534844534a44484a4f4e47564f",
					"opcodes": "PUSH1 0x80 PUSH1 0x40 MSTORE PUSH1 0x40 MLOAD DUP1 PUSH1 0x60 ADD PUSH1 0x40 MSTORE DUP1 PUSH1 0x2E DUP2 MSTORE PUSH1 0x20 ADD PUSH2 0x6C1 PUSH1 0x2E SWAP2 CODECOPY PUSH1 0x0 SWAP1 DUP1 MLOAD SWAP1 PUSH1 0x20 ADD SWAP1 PUSH2 0x32 SWAP3 SWAP2 SWAP1 PUSH2 0xD6 JUMP JUMPDEST POP PUSH1 0x40 MLOAD DUP1 PUSH1 0x60 ADD PUSH1 0x40 MSTORE DUP1 PUSH1 0x2A DUP2 MSTORE PUSH1 0x20 ADD PUSH2 0x6EF PUSH1 0x2A SWAP2 CODECOPY PUSH1 0x1 SWAP1 DUP1 MLOAD SWAP1 PUSH1 0x20 ADD SWAP1 PUSH2 0x61 SWAP3 SWAP2 SWAP1 PUSH2 0xD6 JUMP JUMPDEST POP PUSH32 0x4C45484F4E47564F776A6E66766A3377656838764B4A00000000000000000000 PUSH1 0x2 SSTORE CALLVALUE DUP1 ISZERO PUSH2 0x92 JUMPI PUSH1 0x0 DUP1 REVERT JUMPDEST POP PUSH1 0x4 PUSH1 0x3 PUSH1 0x0 ADD DUP2 SWAP1 SSTORE POP PUSH1 0x3 DUP1 PUSH1 0x1 ADD DUP2 SWAP1 SSTORE POP PUSH1 0x3 PUSH1 0x5 PUSH1 0x0 ADD PUSH1 0x0 DUP3 ADD SLOAD DUP2 PUSH1 0x0 ADD SSTORE PUSH1 0x1 DUP3 ADD SLOAD DUP2 PUSH1 0x1 ADD SSTORE SWAP1 POP POP PUSH1 0xA PUSH1 0x5 PUSH1 0x2 ADD DUP2 SWAP1 SSTORE POP PUSH2 0x17B JUMP JUMPDEST DUP3 DUP1 SLOAD PUSH1 0x1 DUP2 PUSH1 0x1 AND ISZERO PUSH2 0x100 MUL SUB AND PUSH1 0x2 SWAP1 DIV SWAP1 PUSH1 0x0 MSTORE PUSH1 0x20 PUSH1 0x0 KECCAK256 SWAP1 PUSH1 0x1F ADD PUSH1 0x20 SWAP1 DIV DUP2 ADD SWAP3 DUP3 PUSH1 0x1F LT PUSH2 0x117 JUMPI DUP1 MLOAD PUSH1 0xFF NOT AND DUP4 DUP1 ADD OR DUP6 SSTORE PUSH2 0x145 JUMP JUMPDEST DUP3 DUP1 ADD PUSH1 0x1 ADD DUP6 SSTORE DUP3 ISZERO PUSH2 0x145 JUMPI SWAP2 DUP3 ADD JUMPDEST DUP3 DUP2 GT ISZERO PUSH2 0x144 JUMPI DUP3 MLOAD DUP3 SSTORE SWAP2 PUSH1 0x20 ADD SWAP2 SWAP1 PUSH1 0x1 ADD SWAP1 PUSH2 0x129 JUMP JUMPDEST JUMPDEST POP SWAP1 POP PUSH2 0x152 SWAP2 SWAP1 PUSH2 0x156 JUMP JUMPDEST POP SWAP1 JUMP JUMPDEST PUSH2 0x178 SWAP2 SWAP1 JUMPDEST DUP1 DUP3 GT ISZERO PUSH2 0x174 JUMPI PUSH1 0x0 DUP2 PUSH1 0x0 SWAP1 SSTORE POP PUSH1 0x1 ADD PUSH2 0x15C JUMP JUMPDEST POP SWAP1 JUMP JUMPDEST SWAP1 JUMP JUMPDEST PUSH2 0x537 DUP1 PUSH2 0x18A PUSH1 0x0 CODECOPY PUSH1 0x0 RETURN INVALID PUSH1 0x80 PUSH1 0x40 MSTORE CALLVALUE DUP1 ISZERO PUSH2 0x10 JUMPI PUSH1 0x0 DUP1 REVERT JUMPDEST POP PUSH1 0x4 CALLDATASIZE LT PUSH2 0x62 JUMPI PUSH1 0x0 CALLDATALOAD PUSH1 0xE0 SHR DUP1 PUSH4 0x3BC5DE30 EQ PUSH2 0x67 JUMPI DUP1 PUSH4 0x9FFD85C4 EQ PUSH2 0x85 JUMPI DUP1 PUSH4 0xA699FB03 EQ PUSH2 0xA3 JUMPI DUP1 PUSH4 0xE3A7FD75 EQ PUSH2 0xC2 JUMPI DUP1 PUSH4 0xFC26B0AB EQ PUSH2 0xE0 JUMPI DUP1 PUSH4 0xFDDCC148 EQ PUSH2 0xFE JUMPI JUMPDEST PUSH1 0x0 DUP1 REVERT JUMPDEST PUSH2 0x6F PUSH2 0x11D JUMP JUMPDEST PUSH1 0x40 MLOAD PUSH2 0x7C SWAP2 SWAP1 PUSH2 0x3D7 JUMP JUMPDEST PUSH1 0x40 MLOAD DUP1 SWAP2 SUB SWAP1 RETURN JUMPDEST PUSH2 0x8D PUSH2 0x16B JUMP JUMPDEST PUSH1 0x40 MLOAD PUSH2 0x9A SWAP2 SWAP1 PUSH2 0x40D JUMP JUMPDEST PUSH1 0x40 MLOAD DUP1 SWAP2 SUB SWAP1 RETURN JUMPDEST PUSH2 0xAB PUSH2 0x209 JUMP JUMPDEST PUSH1 0x40 MLOAD PUSH2 0xB9 SWAP3 SWAP2 SWAP1 PUSH2 0x458 JUMP JUMPDEST PUSH1 0x40 MLOAD DUP1 SWAP2 SUB SWAP1 RETURN JUMPDEST PUSH2 0xCA PUSH2 0x21B JUMP JUMPDEST PUSH1 0x40 MLOAD PUSH2 0xD7 SWAP2 SWAP1 PUSH2 0x3F2 JUMP JUMPDEST PUSH1 0x40 MLOAD DUP1 SWAP2 SUB SWAP1 RETURN JUMPDEST PUSH2 0xE8 PUSH2 0x221 JUMP JUMPDEST PUSH1 0x40 MLOAD PUSH2 0xF5 SWAP2 SWAP1 PUSH2 0x40D JUMP JUMPDEST PUSH1 0x40 MLOAD DUP1 SWAP2 SUB SWAP1 RETURN JUMPDEST PUSH2 0x106 PUSH2 0x2BF JUMP JUMPDEST PUSH1 0x40 MLOAD PUSH2 0x114 SWAP3 SWAP2 SWAP1 PUSH2 0x42F JUMP JUMPDEST PUSH1 0x40 MLOAD DUP1 SWAP2 SUB SWAP1 RETURN JUMPDEST PUSH1 0x0 PUSH2 0x166 PUSH1 0x5 PUSH1 0x40 MLOAD DUP1 PUSH1 0x40 ADD PUSH1 0x40 MSTORE SWAP1 DUP2 PUSH1 0x0 DUP3 ADD PUSH1 0x40 MLOAD DUP1 PUSH1 0x40 ADD PUSH1 0x40 MSTORE SWAP1 DUP2 PUSH1 0x0 DUP3 ADD SLOAD DUP2 MSTORE PUSH1 0x20 ADD PUSH1 0x1 DUP3 ADD SLOAD DUP2 MSTORE POP POP DUP2 MSTORE PUSH1 0x20 ADD PUSH1 0x2 DUP3 ADD SLOAD DUP2 MSTORE POP POP PUSH2 0x2EF JUMP JUMPDEST SWAP1 POP SWAP1 JUMP JUMPDEST PUSH1 0x0 DUP1 SLOAD PUSH1 0x1 DUP2 PUSH1 0x1 AND ISZERO PUSH2 0x100 MUL SUB AND PUSH1 0x2 SWAP1 DIV DUP1 PUSH1 0x1F ADD PUSH1 0x20 DUP1 SWAP2 DIV MUL PUSH1 0x20 ADD PUSH1 0x40 MLOAD SWAP1 DUP2 ADD PUSH1 0x40 MSTORE DUP1 SWAP3 SWAP2 SWAP1 DUP2 DUP2 MSTORE PUSH1 0x20 ADD DUP3 DUP1 SLOAD PUSH1 0x1 DUP2 PUSH1 0x1 AND ISZERO PUSH2 0x100 MUL SUB AND PUSH1 0x2 SWAP1 DIV DUP1 ISZERO PUSH2 0x201 JUMPI DUP1 PUSH1 0x1F LT PUSH2 0x1D6 JUMPI PUSH2 0x100 DUP1 DUP4 SLOAD DIV MUL DUP4 MSTORE SWAP2 PUSH1 0x20 ADD SWAP2 PUSH2 0x201 JUMP JUMPDEST DUP3 ADD SWAP2 SWAP1 PUSH1 0x0 MSTORE PUSH1 0x20 PUSH1 0x0 KECCAK256 SWAP1 JUMPDEST DUP2 SLOAD DUP2 MSTORE SWAP1 PUSH1 0x1 ADD SWAP1 PUSH1 0x20 ADD DUP1 DUP4 GT PUSH2 0x1E4 JUMPI DUP3 SWAP1 SUB PUSH1 0x1F AND DUP3 ADD SWAP2 JUMPDEST POP POP POP POP POP DUP2 JUMP JUMPDEST PUSH1 0x3 DUP1 PUSH1 0x0 ADD SLOAD SWAP1 DUP1 PUSH1 0x1 ADD SLOAD SWAP1 POP DUP3 JUMP JUMPDEST PUSH1 0x2 SLOAD DUP2 JUMP JUMPDEST PUSH1 0x1 DUP1 SLOAD PUSH1 0x1 DUP2 PUSH1 0x1 AND ISZERO PUSH2 0x100 MUL SUB AND PUSH1 0x2 SWAP1 DIV DUP1 PUSH1 0x1F ADD PUSH1 0x20 DUP1 SWAP2 DIV MUL PUSH1 0x20 ADD PUSH1 0x40 MLOAD SWAP1 DUP2 ADD PUSH1 0x40 MSTORE DUP1 SWAP3 SWAP2 SWAP1 DUP2 DUP2 MSTORE PUSH1 0x20 ADD DUP3 DUP1 SLOAD PUSH1 0x1 DUP2 PUSH1 0x1 AND ISZERO PUSH2 0x100 MUL SUB AND PUSH1 0x2 SWAP1 DIV DUP1 ISZERO PUSH2 0x2B7 JUMPI DUP1 PUSH1 0x1F LT PUSH2 0x28C JUMPI PUSH2 0x100 DUP1 DUP4 SLOAD DIV MUL DUP4 MSTORE SWAP2 PUSH1 0x20 ADD SWAP2 PUSH2 0x2B7 JUMP JUMPDEST DUP3 ADD SWAP2 SWAP1 PUSH1 0x0 MSTORE PUSH1 0x20 PUSH1 0x0 KECCAK256 SWAP1 JUMPDEST DUP2 SLOAD DUP2 MSTORE SWAP1 PUSH1 0x1 ADD SWAP1 PUSH1 0x20 ADD DUP1 DUP4 GT PUSH2 0x29A JUMPI DUP3 SWAP1 SUB PUSH1 0x1F AND DUP3 ADD SWAP2 JUMPDEST POP POP POP POP POP DUP2 JUMP JUMPDEST PUSH1 0x5 DUP1 PUSH1 0x0 ADD PUSH1 0x40 MLOAD DUP1 PUSH1 0x40 ADD PUSH1 0x40 MSTORE SWAP1 DUP2 PUSH1 0x0 DUP3 ADD SLOAD DUP2 MSTORE PUSH1 0x20 ADD PUSH1 0x1 DUP3 ADD SLOAD DUP2 MSTORE POP POP SWAP1 DUP1 PUSH1 0x2 ADD SLOAD SWAP1 POP DUP3 JUMP JUMPDEST PUSH1 0x0 PUSH2 0x2F9 PUSH2 0x319 JUMP JUMPDEST DUP3 PUSH1 0x0 ADD MLOAD SWAP1 POP DUP1 PUSH1 0x0 ADD MLOAD DUP2 PUSH1 0x20 ADD MLOAD ADD DUP4 PUSH1 0x20 ADD MLOAD LT SWAP2 POP POP SWAP2 SWAP1 POP JUMP JUMPDEST PUSH1 0x40 MLOAD DUP1 PUSH1 0x40 ADD PUSH1 0x40 MSTORE DUP1 PUSH1 0x0 DUP2 MSTORE PUSH1 0x20 ADD PUSH1 0x0 DUP2 MSTORE POP SWAP1 JUMP JUMPDEST PUSH2 0x33C DUP2 PUSH2 0x49D JUMP JUMPDEST DUP3 MSTORE POP POP JUMP JUMPDEST PUSH2 0x34B DUP2 PUSH2 0x4A9 JUMP JUMPDEST DUP3 MSTORE POP POP JUMP JUMPDEST PUSH1 0x0 PUSH2 0x35C DUP3 PUSH2 0x481 JUMP JUMPDEST PUSH2 0x366 DUP2 DUP6 PUSH2 0x48C JUMP JUMPDEST SWAP4 POP PUSH2 0x376 DUP2 DUP6 PUSH1 0x20 DUP7 ADD PUSH2 0x4BD JUMP JUMPDEST PUSH2 0x37F DUP2 PUSH2 0x4F0 JUMP JUMPDEST DUP5 ADD SWAP2 POP POP SWAP3 SWAP2 POP POP JUMP JUMPDEST PUSH1 0x40 DUP3 ADD PUSH1 0x0 DUP3 ADD MLOAD PUSH2 0x3A0 PUSH1 0x0 DUP6 ADD DUP3 PUSH2 0x3B9 JUMP JUMPDEST POP PUSH1 0x20 DUP3 ADD MLOAD PUSH2 0x3B3 PUSH1 0x20 DUP6 ADD DUP3 PUSH2 0x3B9 JUMP JUMPDEST POP POP POP POP JUMP JUMPDEST PUSH2 0x3C2 DUP2 PUSH2 0x4B3 JUMP JUMPDEST DUP3 MSTORE POP POP JUMP JUMPDEST PUSH2 0x3D1 DUP2 PUSH2 0x4B3 JUMP JUMPDEST DUP3 MSTORE POP POP JUMP JUMPDEST PUSH1 0x0 PUSH1 0x20 DUP3 ADD SWAP1 POP PUSH2 0x3EC PUSH1 0x0 DUP4 ADD DUP5 PUSH2 0x333 JUMP JUMPDEST SWAP3 SWAP2 POP POP JUMP JUMPDEST PUSH1 0x0 PUSH1 0x20 DUP3 ADD SWAP1 POP PUSH2 0x407 PUSH1 0x0 DUP4 ADD DUP5 PUSH2 0x342 JUMP JUMPDEST SWAP3 SWAP2 POP POP JUMP JUMPDEST PUSH1 0x0 PUSH1 0x20 DUP3 ADD SWAP1 POP DUP2 DUP2 SUB PUSH1 0x0 DUP4 ADD MSTORE PUSH2 0x427 DUP2 DUP5 PUSH2 0x351 JUMP JUMPDEST SWAP1 POP SWAP3 SWAP2 POP POP JUMP JUMPDEST PUSH1 0x0 PUSH1 0x60 DUP3 ADD SWAP1 POP PUSH2 0x444 PUSH1 0x0 DUP4 ADD DUP6 PUSH2 0x38A JUMP JUMPDEST PUSH2 0x451 PUSH1 0x40 DUP4 ADD DUP5 PUSH2 0x3C8 JUMP JUMPDEST SWAP4 SWAP3 POP POP POP JUMP JUMPDEST PUSH1 0x0 PUSH1 0x40 DUP3 ADD SWAP1 POP PUSH2 0x46D PUSH1 0x0 DUP4 ADD DUP6 PUSH2 0x3C8 JUMP JUMPDEST PUSH2 0x47A PUSH1 0x20 DUP4 ADD DUP5 PUSH2 0x3C8 JUMP JUMPDEST SWAP4 SWAP3 POP POP POP JUMP JUMPDEST PUSH1 0x0 DUP2 MLOAD SWAP1 POP SWAP2 SWAP1 POP JUMP JUMPDEST PUSH1 0x0 DUP3 DUP3 MSTORE PUSH1 0x20 DUP3 ADD SWAP1 POP SWAP3 SWAP2 POP POP JUMP JUMPDEST PUSH1 0x0 DUP2 ISZERO ISZERO SWAP1 POP SWAP2 SWAP1 POP JUMP JUMPDEST PUSH1 0x0 DUP2 SWAP1 POP SWAP2 SWAP1 POP JUMP JUMPDEST PUSH1 0x0 DUP2 SWAP1 POP SWAP2 SWAP1 POP JUMP JUMPDEST PUSH1 0x0 JUMPDEST DUP4 DUP2 LT ISZERO PUSH2 0x4DB JUMPI DUP1 DUP3 ADD MLOAD DUP2 DUP5 ADD MSTORE PUSH1 0x20 DUP2 ADD SWAP1 POP PUSH2 0x4C0 JUMP JUMPDEST DUP4 DUP2 GT ISZERO PUSH2 0x4EA JUMPI PUSH1 0x0 DUP5 DUP5 ADD MSTORE JUMPDEST POP POP POP POP JUMP JUMPDEST PUSH1 0x0 PUSH1 0x1F NOT PUSH1 0x1F DUP4 ADD AND SWAP1 POP SWAP2 SWAP1 POP JUMP INVALID LOG2 PUSH5 0x6970667358 0x22 SLT KECCAK256 PUSH4 0xC064DB98 0xD4 0xD5 0x25 0xBE ADDMOD SWAP16 0xD 0xD5 PUSH23 0x8F431A9C97058791E0D47A0BCFD3F00F01664736F6C63 NUMBER STOP MOD DIV STOP CALLER 0x4E COINBASE 0x4C GASLIMIT 0x48 0x48 0x4A MSTORE8 SELFBALANCE DIFFICULTY MSTORE8 DIFFICULTY SELFBALANCE 0x48 0x4A MSTORE8 DIFFICULTY 0x48 MSTORE8 SSTORE 0x48 DIFFICULTY 0x4A MSTORE8 0x48 DIFFICULTY 0x4A MSTORE8 0x48 0x4A MSTORE8 0x48 0x4A MSTORE8 0x48 DIFFICULTY MSTORE8 0x4A DIFFICULTY 0x48 0x4A 0x4F 0x4E SELFBALANCE JUMP 0x4F PUSH20 0x64664E417364667364664C4548484A5347445348 DIFFICULTY 0x4A MSTORE8 0x48 0x4A MSTORE8 0x48 0x4A MSTORE8 0x48 DIFFICULTY MSTORE8 0x4A DIFFICULTY 0x48 0x4A 0x4F 0x4E SELFBALANCE JUMP 0x4F "
				},
				"gasEstimates": {
					"creation": {
						"codeDepositCost": "267000",
						"executionCost": "infinite",
						"totalCost": "infinite"
					},
					"external": {
						"data1()": "infinite",
						"data2()": "1173",
						"data3()": "infinite",
						"getData()": "3051",
						"iterator()": "infinite",
						"rlpItem()": "infinite"
					},
					"internal": {
						"_itemLength(uint256)": "infinite",
						"_payloadOffset(uint256)": "infinite",
						"copy(uint256,uint256,uint256)": "infinite",
						"hasNext(struct demo2.Iterator memory)": "infinite",
						"numItems(struct demo2.RLPItem memory)": "infinite",
						"toAddress(struct demo2.RLPItem memory)": "infinite",
						"toBoolean(struct demo2.RLPItem memory)": "infinite",
						"toBytes(struct demo2.RLPItem memory)": "infinite",
						"toRlpBytes(struct demo2.RLPItem memory)": "infinite",
						"toUint(struct demo2.RLPItem memory)": "infinite",
						"toUintStrict(struct demo2.RLPItem memory)": "infinite"
					}
				},
				"methodIdentifiers": {
					"data1()": "9ffd85c4",
					"data2()": "e3a7fd75",
					"data3()": "fc26b0ab",
					"getData()": "3bc5de30",
					"iterator()": "fddcc148",
					"rlpItem()": "a699fb03"
				}
			},
			"userdoc": {
				"methods": {}
			}
		}
	}
}