{
	"contracts/demo2.sol": {
		"demo2": {
			"abi": [
				{
					"inputs": [],
					"name": "data1",
					"outputs": [
						{
							"internalType": "bytes",
							"name": "",
							"type": "bytes"
						}
					],
					"stateMutability": "view",
					"type": "function"
				},
				{
					"inputs": [],
					"name": "data2",
					"outputs": [
						{
							"internalType": "bytes32",
							"name": "",
							"type": "bytes32"
						}
					],
					"stateMutability": "view",
					"type": "function"
				},
				{
					"inputs": [
						{
							"internalType": "uint256",
							"name": "_offst",
							"type": "uint256"
						}
					],
					"name": "getData",
					"outputs": [
						{
							"internalType": "bytes",
							"name": "",
							"type": "bytes"
						}
					],
					"stateMutability": "view",
					"type": "function"
				}
			],
			"devdoc": {
				"kind": "dev",
				"methods": {},
				"version": 1
			},
			"evm": {
				"assembly": "    /* \"contracts/demo2.sol\":38:1105  contract demo2 {\r... */\n  mstore(0x40, 0x80)\n    /* \"contracts/demo2.sol\":60:129  bytes public data1 = \"NALEHHJSGDSDGHJSDHSUHDJSHDJSHJSHJSHDSJDHJONGVO\" */\n  mload(0x40)\n  dup1\n  0x60\n  add\n  0x40\n  mstore\n  dup1\n  0x2e\n  dup2\n  mstore\n  0x20\n  add\n  data_4887836e294a2761413359597244d307bbe3f94827f6160d9e1a399e00e2d1be\n  0x2e\n  swap2\n  codecopy\n  0x00\n  swap1\n  dup1\n  mload\n  swap1\n  0x20\n  add\n  swap1\n  tag_1\n  swap3\n  swap2\n  swap1\n  tag_2\n  jump\t// in\ntag_1:\n  pop\n    /* \"contracts/demo2.sol\":136:183  bytes32 public data2 = \"LEHONGVOwjnfvj3weh8vKJ\" */\n  sstore(0x01, 0x4c45484f4e47564f776a6e66766a3377656838764b4a00000000000000000000)\n    /* \"contracts/demo2.sol\":38:1105  contract demo2 {\r... */\n  callvalue\n  dup1\n  iszero\n  tag_3\n  jumpi\n  0x00\n  dup1\n  revert\ntag_3:\n  pop\n  jump(tag_4)\ntag_2:\n  dup3\n  dup1\n  sload\n  tag_5\n  swap1\n  tag_6\n  jump\t// in\ntag_5:\n  swap1\n  0x00\n  mstore\n  keccak256(0x00, 0x20)\n  swap1\n  0x1f\n  add\n  0x20\n  swap1\n  div\n  dup2\n  add\n  swap3\n  dup3\n  tag_8\n  jumpi\n  0x00\n  dup6\n  sstore\n  jump(tag_7)\ntag_8:\n  dup3\n  0x1f\n  lt\n  tag_9\n  jumpi\n  dup1\n  mload\n  not(0xff)\n  and\n  dup4\n  dup1\n  add\n  or\n  dup6\n  sstore\n  jump(tag_7)\ntag_9:\n  dup3\n  dup1\n  add\n  0x01\n  add\n  dup6\n  sstore\n  dup3\n  iszero\n  tag_7\n  jumpi\n  swap2\n  dup3\n  add\ntag_10:\n  dup3\n  dup2\n  gt\n  iszero\n  tag_11\n  jumpi\n  dup3\n  mload\n  dup3\n  sstore\n  swap2\n  0x20\n  add\n  swap2\n  swap1\n  0x01\n  add\n  swap1\n  jump(tag_10)\ntag_11:\ntag_7:\n  pop\n  swap1\n  pop\n  tag_12\n  swap2\n  swap1\n  tag_13\n  jump\t// in\ntag_12:\n  pop\n  swap1\n  jump\t// out\ntag_13:\ntag_14:\n  dup1\n  dup3\n  gt\n  iszero\n  tag_15\n  jumpi\n  0x00\n  dup2\n  0x00\n  swap1\n  sstore\n  pop\n  0x01\n  add\n  jump(tag_14)\ntag_15:\n  pop\n  swap1\n  jump\t// out\n    /* \"#utility.yul\":7:327   */\ntag_6:\n    /* \"#utility.yul\":51:57   */\n  0x00\n    /* \"#utility.yul\":88:89   */\n  0x02\n    /* \"#utility.yul\":82:86   */\n  dup3\n    /* \"#utility.yul\":78:90   */\n  div\n    /* \"#utility.yul\":68:90   */\n  swap1\n  pop\n    /* \"#utility.yul\":135:136   */\n  0x01\n    /* \"#utility.yul\":129:133   */\n  dup3\n    /* \"#utility.yul\":125:137   */\n  and\n    /* \"#utility.yul\":156:174   */\n  dup1\n    /* \"#utility.yul\":146:227   */\n  tag_18\n  jumpi\n    /* \"#utility.yul\":212:216   */\n  0x7f\n    /* \"#utility.yul\":204:210   */\n  dup3\n    /* \"#utility.yul\":200:217   */\n  and\n    /* \"#utility.yul\":190:217   */\n  swap2\n  pop\n    /* \"#utility.yul\":146:227   */\ntag_18:\n    /* \"#utility.yul\":274:276   */\n  0x20\n    /* \"#utility.yul\":266:272   */\n  dup3\n    /* \"#utility.yul\":263:277   */\n  lt\n    /* \"#utility.yul\":243:261   */\n  dup2\n    /* \"#utility.yul\":240:278   */\n  eq\n    /* \"#utility.yul\":237:321   */\n  iszero\n  tag_19\n  jumpi\n    /* \"#utility.yul\":293:311   */\n  tag_20\n  tag_21\n  jump\t// in\ntag_20:\n    /* \"#utility.yul\":237:321   */\ntag_19:\n    /* \"#utility.yul\":58:327   */\n  pop\n    /* \"#utility.yul\":7:327   */\n  swap2\n  swap1\n  pop\n  jump\t// out\n    /* \"#utility.yul\":333:513   */\ntag_21:\n    /* \"#utility.yul\":381:458   */\n  0x4e487b7100000000000000000000000000000000000000000000000000000000\n    /* \"#utility.yul\":378:379   */\n  0x00\n    /* \"#utility.yul\":371:459   */\n  mstore\n    /* \"#utility.yul\":478:482   */\n  0x22\n    /* \"#utility.yul\":475:476   */\n  0x04\n    /* \"#utility.yul\":468:483   */\n  mstore\n    /* \"#utility.yul\":502:506   */\n  0x24\n    /* \"#utility.yul\":499:500   */\n  0x00\n    /* \"#utility.yul\":492:507   */\n  revert\n    /* \"contracts/demo2.sol\":38:1105  contract demo2 {\r... */\ntag_4:\n  dataSize(sub_0)\n  dup1\n  dataOffset(sub_0)\n  0x00\n  codecopy\n  0x00\n  return\nstop\ndata_4887836e294a2761413359597244d307bbe3f94827f6160d9e1a399e00e2d1be 4e414c4548484a534744534447484a534448535548444a5348444a53484a53484a534844534a44484a4f4e47564f\n\nsub_0: assembly {\n        /* \"contracts/demo2.sol\":38:1105  contract demo2 {\r... */\n      mstore(0x40, 0x80)\n      callvalue\n      dup1\n      iszero\n      tag_1\n      jumpi\n      0x00\n      dup1\n      revert\n    tag_1:\n      pop\n      jumpi(tag_2, lt(calldatasize, 0x04))\n      shr(0xe0, calldataload(0x00))\n      dup1\n      0x0178fe3f\n      eq\n      tag_3\n      jumpi\n      dup1\n      0x9ffd85c4\n      eq\n      tag_4\n      jumpi\n      dup1\n      0xe3a7fd75\n      eq\n      tag_5\n      jumpi\n    tag_2:\n      0x00\n      dup1\n      revert\n        /* \"contracts/demo2.sol\":192:298  function getData(uint _offst) public view returns(bytes memory) {\r... */\n    tag_3:\n      tag_6\n      0x04\n      dup1\n      calldatasize\n      sub\n      dup2\n      add\n      swap1\n      tag_7\n      swap2\n      swap1\n      tag_8\n      jump\t// in\n    tag_7:\n      tag_9\n      jump\t// in\n    tag_6:\n      mload(0x40)\n      tag_10\n      swap2\n      swap1\n      tag_11\n      jump\t// in\n    tag_10:\n      mload(0x40)\n      dup1\n      swap2\n      sub\n      swap1\n      return\n        /* \"contracts/demo2.sol\":60:129  bytes public data1 = \"NALEHHJSGDSDGHJSDHSUHDJSHDJSHJSHJSHDSJDHJONGVO\" */\n    tag_4:\n      tag_12\n      tag_13\n      jump\t// in\n    tag_12:\n      mload(0x40)\n      tag_14\n      swap2\n      swap1\n      tag_11\n      jump\t// in\n    tag_14:\n      mload(0x40)\n      dup1\n      swap2\n      sub\n      swap1\n      return\n        /* \"contracts/demo2.sol\":136:183  bytes32 public data2 = \"LEHONGVOwjnfvj3weh8vKJ\" */\n    tag_5:\n      tag_15\n      tag_16\n      jump\t// in\n    tag_15:\n      mload(0x40)\n      tag_17\n      swap2\n      swap1\n      tag_18\n      jump\t// in\n    tag_17:\n      mload(0x40)\n      dup1\n      swap2\n      sub\n      swap1\n      return\n        /* \"contracts/demo2.sol\":192:298  function getData(uint _offst) public view returns(bytes memory) {\r... */\n    tag_9:\n        /* \"contracts/demo2.sol\":242:254  bytes memory */\n      0x60\n        /* \"contracts/demo2.sol\":274:290  toBinary(_offst) */\n      tag_20\n        /* \"contracts/demo2.sol\":283:289  _offst */\n      dup3\n        /* \"contracts/demo2.sol\":274:282  toBinary */\n      tag_21\n        /* \"contracts/demo2.sol\":274:290  toBinary(_offst) */\n      jump\t// in\n    tag_20:\n        /* \"contracts/demo2.sol\":267:290  return toBinary(_offst) */\n      swap1\n      pop\n        /* \"contracts/demo2.sol\":192:298  function getData(uint _offst) public view returns(bytes memory) {\r... */\n      swap2\n      swap1\n      pop\n      jump\t// out\n        /* \"contracts/demo2.sol\":60:129  bytes public data1 = \"NALEHHJSGDSDGHJSDHSUHDJSHDJSHJSHJSHDSJDHJONGVO\" */\n    tag_13:\n      0x00\n      dup1\n      sload\n      tag_22\n      swap1\n      tag_23\n      jump\t// in\n    tag_22:\n      dup1\n      0x1f\n      add\n      0x20\n      dup1\n      swap2\n      div\n      mul\n      0x20\n      add\n      mload(0x40)\n      swap1\n      dup2\n      add\n      0x40\n      mstore\n      dup1\n      swap3\n      swap2\n      swap1\n      dup2\n      dup2\n      mstore\n      0x20\n      add\n      dup3\n      dup1\n      sload\n      tag_24\n      swap1\n      tag_23\n      jump\t// in\n    tag_24:\n      dup1\n      iszero\n      tag_25\n      jumpi\n      dup1\n      0x1f\n      lt\n      tag_26\n      jumpi\n      0x0100\n      dup1\n      dup4\n      sload\n      div\n      mul\n      dup4\n      mstore\n      swap2\n      0x20\n      add\n      swap2\n      jump(tag_25)\n    tag_26:\n      dup3\n      add\n      swap2\n      swap1\n      0x00\n      mstore\n      keccak256(0x00, 0x20)\n      swap1\n    tag_27:\n      dup2\n      sload\n      dup2\n      mstore\n      swap1\n      0x01\n      add\n      swap1\n      0x20\n      add\n      dup1\n      dup4\n      gt\n      tag_27\n      jumpi\n      dup3\n      swap1\n      sub\n      0x1f\n      and\n      dup3\n      add\n      swap2\n    tag_25:\n      pop\n      pop\n      pop\n      pop\n      pop\n      dup2\n      jump\t// out\n        /* \"contracts/demo2.sol\":136:183  bytes32 public data2 = \"LEHONGVOwjnfvj3weh8vKJ\" */\n    tag_16:\n      sload(0x01)\n      dup2\n      jump\t// out\n        /* \"contracts/demo2.sol\":310:1098  function toBinary(uint x) internal pure returns (bytes memory) {\r... */\n    tag_21:\n        /* \"contracts/demo2.sol\":359:371  bytes memory */\n      0x60\n        /* \"contracts/demo2.sol\":384:398  bytes memory b */\n      0x00\n        /* \"contracts/demo2.sol\":411:413  32 */\n      0x20\n        /* \"contracts/demo2.sol\":401:414  new bytes(32) */\n      0xffffffffffffffff\n      dup2\n      gt\n      iszero\n      tag_29\n      jumpi\n      tag_30\n      tag_31\n      jump\t// in\n    tag_30:\n    tag_29:\n      mload(0x40)\n      swap1\n      dup1\n      dup3\n      mstore\n      dup1\n      0x1f\n      add\n      not(0x1f)\n      and\n      0x20\n      add\n      dup3\n      add\n      0x40\n      mstore\n      dup1\n      iszero\n      tag_32\n      jumpi\n      dup2\n      0x20\n      add\n      0x01\n      dup3\n      mul\n      dup1\n      calldatasize\n      dup4\n      calldatacopy\n      dup1\n      dup3\n      add\n      swap2\n      pop\n      pop\n      swap1\n      pop\n    tag_32:\n      pop\n        /* \"contracts/demo2.sol\":384:414  bytes memory b = new bytes(32) */\n      swap1\n      pop\n        /* \"contracts/demo2.sol\":468:469  x */\n      dup3\n        /* \"contracts/demo2.sol\":463:465  32 */\n      0x20\n        /* \"contracts/demo2.sol\":460:461  b */\n      dup3\n        /* \"contracts/demo2.sol\":456:466  add(b, 32) */\n      add\n        /* \"contracts/demo2.sol\":449:470  mstore(add(b, 32), x) */\n      mstore\n        /* \"contracts/demo2.sol\":491:497  uint i */\n      0x00\n        /* \"contracts/demo2.sol\":586:587  0 */\n      dup1\n        /* \"contracts/demo2.sol\":516:582  0xffffffffffffffffffffffffffffffffffffffffffffffff0000000000000000 */\n      0xffffffffffffffffffffffffffffffffffffffffffffffff0000000000000000\n        /* \"contracts/demo2.sol\":512:513  x */\n      dup6\n        /* \"contracts/demo2.sol\":512:582  x & 0xffffffffffffffffffffffffffffffffffffffffffffffff0000000000000000 */\n      and\n        /* \"contracts/demo2.sol\":512:587  x & 0xffffffffffffffffffffffffffffffffffffffffffffffff0000000000000000 == 0 */\n      eq\n        /* \"contracts/demo2.sol\":508:780  if (x & 0xffffffffffffffffffffffffffffffffffffffffffffffff0000000000000000 == 0) {\r... */\n      iszero\n      tag_33\n      jumpi\n        /* \"contracts/demo2.sol\":608:610  24 */\n      0x18\n        /* \"contracts/demo2.sol\":604:610  i = 24 */\n      swap1\n      pop\n        /* \"contracts/demo2.sol\":508:780  if (x & 0xffffffffffffffffffffffffffffffffffffffffffffffff0000000000000000 == 0) {\r... */\n      jump(tag_34)\n    tag_33:\n        /* \"contracts/demo2.sol\":706:707  0 */\n      0x00\n        /* \"contracts/demo2.sol\":636:702  0xffffffffffffffffffffffffffffffff00000000000000000000000000000000 */\n      0xffffffffffffffffffffffffffffffff00000000000000000000000000000000\n        /* \"contracts/demo2.sol\":632:633  x */\n      dup6\n        /* \"contracts/demo2.sol\":632:702  x & 0xffffffffffffffffffffffffffffffff00000000000000000000000000000000 */\n      and\n        /* \"contracts/demo2.sol\":632:707  x & 0xffffffffffffffffffffffffffffffff00000000000000000000000000000000 == 0 */\n      eq\n        /* \"contracts/demo2.sol\":628:780  if (x & 0xffffffffffffffffffffffffffffffff00000000000000000000000000000000 == 0) {\r... */\n      iszero\n      tag_35\n      jumpi\n        /* \"contracts/demo2.sol\":728:730  16 */\n      0x10\n        /* \"contracts/demo2.sol\":724:730  i = 16 */\n      swap1\n      pop\n        /* \"contracts/demo2.sol\":628:780  if (x & 0xffffffffffffffffffffffffffffffff00000000000000000000000000000000 == 0) {\r... */\n      jump(tag_36)\n    tag_35:\n        /* \"contracts/demo2.sol\":767:768  0 */\n      0x00\n        /* \"contracts/demo2.sol\":763:768  i = 0 */\n      swap1\n      pop\n        /* \"contracts/demo2.sol\":628:780  if (x & 0xffffffffffffffffffffffffffffffff00000000000000000000000000000000 == 0) {\r... */\n    tag_36:\n        /* \"contracts/demo2.sol\":508:780  if (x & 0xffffffffffffffffffffffffffffffffffffffffffffffff0000000000000000 == 0) {\r... */\n    tag_34:\n        /* \"contracts/demo2.sol\":790:891  for (; i < 32; i++) {\r... */\n    tag_37:\n        /* \"contracts/demo2.sol\":801:803  32 */\n      0x20\n        /* \"contracts/demo2.sol\":797:798  i */\n      dup2\n        /* \"contracts/demo2.sol\":797:803  i < 32 */\n      lt\n        /* \"contracts/demo2.sol\":790:891  for (; i < 32; i++) {\r... */\n      iszero\n      tag_38\n      jumpi\n        /* \"contracts/demo2.sol\":837:838  0 */\n      0x00\n        /* \"contracts/demo2.sol\":829:838  b[i] != 0 */\n      0xf8\n      shl\n        /* \"contracts/demo2.sol\":829:830  b */\n      dup3\n        /* \"contracts/demo2.sol\":831:832  i */\n      dup3\n        /* \"contracts/demo2.sol\":829:833  b[i] */\n      dup2\n      mload\n      dup2\n      lt\n      tag_40\n      jumpi\n      tag_41\n      tag_42\n      jump\t// in\n    tag_41:\n    tag_40:\n      0x20\n      add\n      add\n      mload\n      0xf8\n      shr\n      0xf8\n      shl\n        /* \"contracts/demo2.sol\":829:838  b[i] != 0 */\n      not(0xffffffffffffffffffffffffffffffffffffffffffffffffffffffffffffff)\n      and\n      eq\n        /* \"contracts/demo2.sol\":825:880  if (b[i] != 0) {\r... */\n      tag_43\n      jumpi\n        /* \"contracts/demo2.sol\":859:864  break */\n      jump(tag_38)\n        /* \"contracts/demo2.sol\":825:880  if (b[i] != 0) {\r... */\n    tag_43:\n        /* \"contracts/demo2.sol\":805:808  i++ */\n      dup1\n      dup1\n      tag_44\n      swap1\n      tag_45\n      jump\t// in\n    tag_44:\n      swap2\n      pop\n      pop\n        /* \"contracts/demo2.sol\":790:891  for (; i < 32; i++) {\r... */\n      jump(tag_37)\n    tag_38:\n        /* \"contracts/demo2.sol\":901:912  uint length */\n      0x00\n        /* \"contracts/demo2.sol\":920:921  i */\n      dup2\n        /* \"contracts/demo2.sol\":915:917  32 */\n      0x20\n        /* \"contracts/demo2.sol\":915:921  32 - i */\n      tag_46\n      swap2\n      swap1\n      tag_47\n      jump\t// in\n    tag_46:\n        /* \"contracts/demo2.sol\":901:921  uint length = 32 - i */\n      swap1\n      pop\n        /* \"contracts/demo2.sol\":932:947  bytes memory rs */\n      0x00\n        /* \"contracts/demo2.sol\":960:966  length */\n      dup2\n        /* \"contracts/demo2.sol\":950:967  new bytes(length) */\n      0xffffffffffffffff\n      dup2\n      gt\n      iszero\n      tag_48\n      jumpi\n      tag_49\n      tag_31\n      jump\t// in\n    tag_49:\n    tag_48:\n      mload(0x40)\n      swap1\n      dup1\n      dup3\n      mstore\n      dup1\n      0x1f\n      add\n      not(0x1f)\n      and\n      0x20\n      add\n      dup3\n      add\n      0x40\n      mstore\n      dup1\n      iszero\n      tag_50\n      jumpi\n      dup2\n      0x20\n      add\n      0x01\n      dup3\n      mul\n      dup1\n      calldatasize\n      dup4\n      calldatacopy\n      dup1\n      dup3\n      add\n      swap2\n      pop\n      pop\n      swap1\n      pop\n    tag_50:\n      pop\n        /* \"contracts/demo2.sol\":932:967  bytes memory rs = new bytes(length) */\n      swap1\n      pop\n        /* \"contracts/demo2.sol\":1026:1027  x */\n      dup6\n        /* \"contracts/demo2.sol\":1017:1023  length */\n      dup3\n        /* \"contracts/demo2.sol\":1013:1015  rs */\n      dup3\n        /* \"contracts/demo2.sol\":1009:1024  add(rs, length) */\n      add\n        /* \"contracts/demo2.sol\":1002:1028  mstore(add(rs, length), x) */\n      mstore\n        /* \"contracts/demo2.sol\":1053:1059  length */\n      dup2\n        /* \"contracts/demo2.sol\":1049:1051  rs */\n      dup2\n        /* \"contracts/demo2.sol\":1042:1060  mstore(rs, length) */\n      mstore\n        /* \"contracts/demo2.sol\":1088:1090  rs */\n      dup1\n        /* \"contracts/demo2.sol\":1081:1090  return rs */\n      swap5\n      pop\n      pop\n      pop\n      pop\n      pop\n        /* \"contracts/demo2.sol\":310:1098  function toBinary(uint x) internal pure returns (bytes memory) {\r... */\n      swap2\n      swap1\n      pop\n      jump\t// out\n        /* \"#utility.yul\":7:146   */\n    tag_52:\n        /* \"#utility.yul\":53:58   */\n      0x00\n        /* \"#utility.yul\":91:97   */\n      dup2\n        /* \"#utility.yul\":78:98   */\n      calldataload\n        /* \"#utility.yul\":69:98   */\n      swap1\n      pop\n        /* \"#utility.yul\":107:140   */\n      tag_54\n        /* \"#utility.yul\":134:139   */\n      dup2\n        /* \"#utility.yul\":107:140   */\n      tag_55\n      jump\t// in\n    tag_54:\n        /* \"#utility.yul\":7:146   */\n      swap3\n      swap2\n      pop\n      pop\n      jump\t// out\n        /* \"#utility.yul\":152:481   */\n    tag_8:\n        /* \"#utility.yul\":211:217   */\n      0x00\n        /* \"#utility.yul\":260:262   */\n      0x20\n        /* \"#utility.yul\":248:257   */\n      dup3\n        /* \"#utility.yul\":239:246   */\n      dup5\n        /* \"#utility.yul\":235:258   */\n      sub\n        /* \"#utility.yul\":231:263   */\n      slt\n        /* \"#utility.yul\":228:347   */\n      iszero\n      tag_57\n      jumpi\n        /* \"#utility.yul\":266:345   */\n      tag_58\n      tag_59\n      jump\t// in\n    tag_58:\n        /* \"#utility.yul\":228:347   */\n    tag_57:\n        /* \"#utility.yul\":386:387   */\n      0x00\n        /* \"#utility.yul\":411:464   */\n      tag_60\n        /* \"#utility.yul\":456:463   */\n      dup5\n        /* \"#utility.yul\":447:453   */\n      dup3\n        /* \"#utility.yul\":436:445   */\n      dup6\n        /* \"#utility.yul\":432:454   */\n      add\n        /* \"#utility.yul\":411:464   */\n      tag_52\n      jump\t// in\n    tag_60:\n        /* \"#utility.yul\":401:464   */\n      swap2\n      pop\n        /* \"#utility.yul\":357:474   */\n      pop\n        /* \"#utility.yul\":152:481   */\n      swap3\n      swap2\n      pop\n      pop\n      jump\t// out\n        /* \"#utility.yul\":487:605   */\n    tag_61:\n        /* \"#utility.yul\":574:598   */\n      tag_63\n        /* \"#utility.yul\":592:597   */\n      dup2\n        /* \"#utility.yul\":574:598   */\n      tag_64\n      jump\t// in\n    tag_63:\n        /* \"#utility.yul\":569:572   */\n      dup3\n        /* \"#utility.yul\":562:599   */\n      mstore\n        /* \"#utility.yul\":487:605   */\n      pop\n      pop\n      jump\t// out\n        /* \"#utility.yul\":611:971   */\n    tag_65:\n        /* \"#utility.yul\":697:700   */\n      0x00\n        /* \"#utility.yul\":725:763   */\n      tag_67\n        /* \"#utility.yul\":757:762   */\n      dup3\n        /* \"#utility.yul\":725:763   */\n      tag_68\n      jump\t// in\n    tag_67:\n        /* \"#utility.yul\":779:849   */\n      tag_69\n        /* \"#utility.yul\":842:848   */\n      dup2\n        /* \"#utility.yul\":837:840   */\n      dup6\n        /* \"#utility.yul\":779:849   */\n      tag_70\n      jump\t// in\n    tag_69:\n        /* \"#utility.yul\":772:849   */\n      swap4\n      pop\n        /* \"#utility.yul\":858:910   */\n      tag_71\n        /* \"#utility.yul\":903:909   */\n      dup2\n        /* \"#utility.yul\":898:901   */\n      dup6\n        /* \"#utility.yul\":891:895   */\n      0x20\n        /* \"#utility.yul\":884:889   */\n      dup7\n        /* \"#utility.yul\":880:896   */\n      add\n        /* \"#utility.yul\":858:910   */\n      tag_72\n      jump\t// in\n    tag_71:\n        /* \"#utility.yul\":935:964   */\n      tag_73\n        /* \"#utility.yul\":957:963   */\n      dup2\n        /* \"#utility.yul\":935:964   */\n      tag_74\n      jump\t// in\n    tag_73:\n        /* \"#utility.yul\":930:933   */\n      dup5\n        /* \"#utility.yul\":926:965   */\n      add\n        /* \"#utility.yul\":919:965   */\n      swap2\n      pop\n        /* \"#utility.yul\":701:971   */\n      pop\n        /* \"#utility.yul\":611:971   */\n      swap3\n      swap2\n      pop\n      pop\n      jump\t// out\n        /* \"#utility.yul\":977:1199   */\n    tag_18:\n        /* \"#utility.yul\":1070:1074   */\n      0x00\n        /* \"#utility.yul\":1108:1110   */\n      0x20\n        /* \"#utility.yul\":1097:1106   */\n      dup3\n        /* \"#utility.yul\":1093:1111   */\n      add\n        /* \"#utility.yul\":1085:1111   */\n      swap1\n      pop\n        /* \"#utility.yul\":1121:1192   */\n      tag_76\n        /* \"#utility.yul\":1189:1190   */\n      0x00\n        /* \"#utility.yul\":1178:1187   */\n      dup4\n        /* \"#utility.yul\":1174:1191   */\n      add\n        /* \"#utility.yul\":1165:1171   */\n      dup5\n        /* \"#utility.yul\":1121:1192   */\n      tag_61\n      jump\t// in\n    tag_76:\n        /* \"#utility.yul\":977:1199   */\n      swap3\n      swap2\n      pop\n      pop\n      jump\t// out\n        /* \"#utility.yul\":1205:1514   */\n    tag_11:\n        /* \"#utility.yul\":1316:1320   */\n      0x00\n        /* \"#utility.yul\":1354:1356   */\n      0x20\n        /* \"#utility.yul\":1343:1352   */\n      dup3\n        /* \"#utility.yul\":1339:1357   */\n      add\n        /* \"#utility.yul\":1331:1357   */\n      swap1\n      pop\n        /* \"#utility.yul\":1403:1412   */\n      dup2\n        /* \"#utility.yul\":1397:1401   */\n      dup2\n        /* \"#utility.yul\":1393:1413   */\n      sub\n        /* \"#utility.yul\":1389:1390   */\n      0x00\n        /* \"#utility.yul\":1378:1387   */\n      dup4\n        /* \"#utility.yul\":1374:1391   */\n      add\n        /* \"#utility.yul\":1367:1414   */\n      mstore\n        /* \"#utility.yul\":1431:1507   */\n      tag_78\n        /* \"#utility.yul\":1502:1506   */\n      dup2\n        /* \"#utility.yul\":1493:1499   */\n      dup5\n        /* \"#utility.yul\":1431:1507   */\n      tag_65\n      jump\t// in\n    tag_78:\n        /* \"#utility.yul\":1423:1507   */\n      swap1\n      pop\n        /* \"#utility.yul\":1205:1514   */\n      swap3\n      swap2\n      pop\n      pop\n      jump\t// out\n        /* \"#utility.yul\":1601:1699   */\n    tag_68:\n        /* \"#utility.yul\":1652:1658   */\n      0x00\n        /* \"#utility.yul\":1686:1691   */\n      dup2\n        /* \"#utility.yul\":1680:1692   */\n      mload\n        /* \"#utility.yul\":1670:1692   */\n      swap1\n      pop\n        /* \"#utility.yul\":1601:1699   */\n      swap2\n      swap1\n      pop\n      jump\t// out\n        /* \"#utility.yul\":1705:1873   */\n    tag_70:\n        /* \"#utility.yul\":1788:1799   */\n      0x00\n        /* \"#utility.yul\":1822:1828   */\n      dup3\n        /* \"#utility.yul\":1817:1820   */\n      dup3\n        /* \"#utility.yul\":1810:1829   */\n      mstore\n        /* \"#utility.yul\":1862:1866   */\n      0x20\n        /* \"#utility.yul\":1857:1860   */\n      dup3\n        /* \"#utility.yul\":1853:1867   */\n      add\n        /* \"#utility.yul\":1838:1867   */\n      swap1\n      pop\n        /* \"#utility.yul\":1705:1873   */\n      swap3\n      swap2\n      pop\n      pop\n      jump\t// out\n        /* \"#utility.yul\":1879:2070   */\n    tag_47:\n        /* \"#utility.yul\":1919:1923   */\n      0x00\n        /* \"#utility.yul\":1939:1959   */\n      tag_84\n        /* \"#utility.yul\":1957:1958   */\n      dup3\n        /* \"#utility.yul\":1939:1959   */\n      tag_85\n      jump\t// in\n    tag_84:\n        /* \"#utility.yul\":1934:1959   */\n      swap2\n      pop\n        /* \"#utility.yul\":1973:1993   */\n      tag_86\n        /* \"#utility.yul\":1991:1992   */\n      dup4\n        /* \"#utility.yul\":1973:1993   */\n      tag_85\n      jump\t// in\n    tag_86:\n        /* \"#utility.yul\":1968:1993   */\n      swap3\n      pop\n        /* \"#utility.yul\":2012:2013   */\n      dup3\n        /* \"#utility.yul\":2009:2010   */\n      dup3\n        /* \"#utility.yul\":2006:2014   */\n      lt\n        /* \"#utility.yul\":2003:2037   */\n      iszero\n      tag_87\n      jumpi\n        /* \"#utility.yul\":2017:2035   */\n      tag_88\n      tag_89\n      jump\t// in\n    tag_88:\n        /* \"#utility.yul\":2003:2037   */\n    tag_87:\n        /* \"#utility.yul\":2062:2063   */\n      dup3\n        /* \"#utility.yul\":2059:2060   */\n      dup3\n        /* \"#utility.yul\":2055:2064   */\n      sub\n        /* \"#utility.yul\":2047:2064   */\n      swap1\n      pop\n        /* \"#utility.yul\":1879:2070   */\n      swap3\n      swap2\n      pop\n      pop\n      jump\t// out\n        /* \"#utility.yul\":2076:2153   */\n    tag_64:\n        /* \"#utility.yul\":2113:2120   */\n      0x00\n        /* \"#utility.yul\":2142:2147   */\n      dup2\n        /* \"#utility.yul\":2131:2147   */\n      swap1\n      pop\n        /* \"#utility.yul\":2076:2153   */\n      swap2\n      swap1\n      pop\n      jump\t// out\n        /* \"#utility.yul\":2159:2236   */\n    tag_85:\n        /* \"#utility.yul\":2196:2203   */\n      0x00\n        /* \"#utility.yul\":2225:2230   */\n      dup2\n        /* \"#utility.yul\":2214:2230   */\n      swap1\n      pop\n        /* \"#utility.yul\":2159:2236   */\n      swap2\n      swap1\n      pop\n      jump\t// out\n        /* \"#utility.yul\":2242:2549   */\n    tag_72:\n        /* \"#utility.yul\":2310:2311   */\n      0x00\n        /* \"#utility.yul\":2320:2433   */\n    tag_93:\n        /* \"#utility.yul\":2334:2340   */\n      dup4\n        /* \"#utility.yul\":2331:2332   */\n      dup2\n        /* \"#utility.yul\":2328:2341   */\n      lt\n        /* \"#utility.yul\":2320:2433   */\n      iszero\n      tag_95\n      jumpi\n        /* \"#utility.yul\":2419:2420   */\n      dup1\n        /* \"#utility.yul\":2414:2417   */\n      dup3\n        /* \"#utility.yul\":2410:2421   */\n      add\n        /* \"#utility.yul\":2404:2422   */\n      mload\n        /* \"#utility.yul\":2400:2401   */\n      dup2\n        /* \"#utility.yul\":2395:2398   */\n      dup5\n        /* \"#utility.yul\":2391:2402   */\n      add\n        /* \"#utility.yul\":2384:2423   */\n      mstore\n        /* \"#utility.yul\":2356:2358   */\n      0x20\n        /* \"#utility.yul\":2353:2354   */\n      dup2\n        /* \"#utility.yul\":2349:2359   */\n      add\n        /* \"#utility.yul\":2344:2359   */\n      swap1\n      pop\n        /* \"#utility.yul\":2320:2433   */\n      jump(tag_93)\n    tag_95:\n        /* \"#utility.yul\":2451:2457   */\n      dup4\n        /* \"#utility.yul\":2448:2449   */\n      dup2\n        /* \"#utility.yul\":2445:2458   */\n      gt\n        /* \"#utility.yul\":2442:2543   */\n      iszero\n      tag_96\n      jumpi\n        /* \"#utility.yul\":2531:2532   */\n      0x00\n        /* \"#utility.yul\":2522:2528   */\n      dup5\n        /* \"#utility.yul\":2517:2520   */\n      dup5\n        /* \"#utility.yul\":2513:2529   */\n      add\n        /* \"#utility.yul\":2506:2533   */\n      mstore\n        /* \"#utility.yul\":2442:2543   */\n    tag_96:\n        /* \"#utility.yul\":2291:2549   */\n      pop\n        /* \"#utility.yul\":2242:2549   */\n      pop\n      pop\n      pop\n      jump\t// out\n        /* \"#utility.yul\":2555:2875   */\n    tag_23:\n        /* \"#utility.yul\":2599:2605   */\n      0x00\n        /* \"#utility.yul\":2636:2637   */\n      0x02\n        /* \"#utility.yul\":2630:2634   */\n      dup3\n        /* \"#utility.yul\":2626:2638   */\n      div\n        /* \"#utility.yul\":2616:2638   */\n      swap1\n      pop\n        /* \"#utility.yul\":2683:2684   */\n      0x01\n        /* \"#utility.yul\":2677:2681   */\n      dup3\n        /* \"#utility.yul\":2673:2685   */\n      and\n        /* \"#utility.yul\":2704:2722   */\n      dup1\n        /* \"#utility.yul\":2694:2775   */\n      tag_98\n      jumpi\n        /* \"#utility.yul\":2760:2764   */\n      0x7f\n        /* \"#utility.yul\":2752:2758   */\n      dup3\n        /* \"#utility.yul\":2748:2765   */\n      and\n        /* \"#utility.yul\":2738:2765   */\n      swap2\n      pop\n        /* \"#utility.yul\":2694:2775   */\n    tag_98:\n        /* \"#utility.yul\":2822:2824   */\n      0x20\n        /* \"#utility.yul\":2814:2820   */\n      dup3\n        /* \"#utility.yul\":2811:2825   */\n      lt\n        /* \"#utility.yul\":2791:2809   */\n      dup2\n        /* \"#utility.yul\":2788:2826   */\n      eq\n        /* \"#utility.yul\":2785:2869   */\n      iszero\n      tag_99\n      jumpi\n        /* \"#utility.yul\":2841:2859   */\n      tag_100\n      tag_101\n      jump\t// in\n    tag_100:\n        /* \"#utility.yul\":2785:2869   */\n    tag_99:\n        /* \"#utility.yul\":2606:2875   */\n      pop\n        /* \"#utility.yul\":2555:2875   */\n      swap2\n      swap1\n      pop\n      jump\t// out\n        /* \"#utility.yul\":2881:3114   */\n    tag_45:\n        /* \"#utility.yul\":2920:2923   */\n      0x00\n        /* \"#utility.yul\":2943:2967   */\n      tag_103\n        /* \"#utility.yul\":2961:2966   */\n      dup3\n        /* \"#utility.yul\":2943:2967   */\n      tag_85\n      jump\t// in\n    tag_103:\n        /* \"#utility.yul\":2934:2967   */\n      swap2\n      pop\n        /* \"#utility.yul\":2989:3055   */\n      0xffffffffffffffffffffffffffffffffffffffffffffffffffffffffffffffff\n        /* \"#utility.yul\":2982:2987   */\n      dup3\n        /* \"#utility.yul\":2979:3056   */\n      eq\n        /* \"#utility.yul\":2976:3079   */\n      iszero\n      tag_104\n      jumpi\n        /* \"#utility.yul\":3059:3077   */\n      tag_105\n      tag_89\n      jump\t// in\n    tag_105:\n        /* \"#utility.yul\":2976:3079   */\n    tag_104:\n        /* \"#utility.yul\":3106:3107   */\n      0x01\n        /* \"#utility.yul\":3099:3104   */\n      dup3\n        /* \"#utility.yul\":3095:3108   */\n      add\n        /* \"#utility.yul\":3088:3108   */\n      swap1\n      pop\n        /* \"#utility.yul\":2881:3114   */\n      swap2\n      swap1\n      pop\n      jump\t// out\n        /* \"#utility.yul\":3120:3300   */\n    tag_89:\n        /* \"#utility.yul\":3168:3245   */\n      0x4e487b7100000000000000000000000000000000000000000000000000000000\n        /* \"#utility.yul\":3165:3166   */\n      0x00\n        /* \"#utility.yul\":3158:3246   */\n      mstore\n        /* \"#utility.yul\":3265:3269   */\n      0x11\n        /* \"#utility.yul\":3262:3263   */\n      0x04\n        /* \"#utility.yul\":3255:3270   */\n      mstore\n        /* \"#utility.yul\":3289:3293   */\n      0x24\n        /* \"#utility.yul\":3286:3287   */\n      0x00\n        /* \"#utility.yul\":3279:3294   */\n      revert\n        /* \"#utility.yul\":3306:3486   */\n    tag_101:\n        /* \"#utility.yul\":3354:3431   */\n      0x4e487b7100000000000000000000000000000000000000000000000000000000\n        /* \"#utility.yul\":3351:3352   */\n      0x00\n        /* \"#utility.yul\":3344:3432   */\n      mstore\n        /* \"#utility.yul\":3451:3455   */\n      0x22\n        /* \"#utility.yul\":3448:3449   */\n      0x04\n        /* \"#utility.yul\":3441:3456   */\n      mstore\n        /* \"#utility.yul\":3475:3479   */\n      0x24\n        /* \"#utility.yul\":3472:3473   */\n      0x00\n        /* \"#utility.yul\":3465:3480   */\n      revert\n        /* \"#utility.yul\":3492:3672   */\n    tag_42:\n        /* \"#utility.yul\":3540:3617   */\n      0x4e487b7100000000000000000000000000000000000000000000000000000000\n        /* \"#utility.yul\":3537:3538   */\n      0x00\n        /* \"#utility.yul\":3530:3618   */\n      mstore\n        /* \"#utility.yul\":3637:3641   */\n      0x32\n        /* \"#utility.yul\":3634:3635   */\n      0x04\n        /* \"#utility.yul\":3627:3642   */\n      mstore\n        /* \"#utility.yul\":3661:3665   */\n      0x24\n        /* \"#utility.yul\":3658:3659   */\n      0x00\n        /* \"#utility.yul\":3651:3666   */\n      revert\n        /* \"#utility.yul\":3678:3858   */\n    tag_31:\n        /* \"#utility.yul\":3726:3803   */\n      0x4e487b7100000000000000000000000000000000000000000000000000000000\n        /* \"#utility.yul\":3723:3724   */\n      0x00\n        /* \"#utility.yul\":3716:3804   */\n      mstore\n        /* \"#utility.yul\":3823:3827   */\n      0x41\n        /* \"#utility.yul\":3820:3821   */\n      0x04\n        /* \"#utility.yul\":3813:3828   */\n      mstore\n        /* \"#utility.yul\":3847:3851   */\n      0x24\n        /* \"#utility.yul\":3844:3845   */\n      0x00\n        /* \"#utility.yul\":3837:3852   */\n      revert\n        /* \"#utility.yul\":3987:4104   */\n    tag_59:\n        /* \"#utility.yul\":4096:4097   */\n      0x00\n        /* \"#utility.yul\":4093:4094   */\n      dup1\n        /* \"#utility.yul\":4086:4098   */\n      revert\n        /* \"#utility.yul\":4110:4212   */\n    tag_74:\n        /* \"#utility.yul\":4151:4157   */\n      0x00\n        /* \"#utility.yul\":4202:4204   */\n      0x1f\n        /* \"#utility.yul\":4198:4205   */\n      not\n        /* \"#utility.yul\":4193:4195   */\n      0x1f\n        /* \"#utility.yul\":4186:4191   */\n      dup4\n        /* \"#utility.yul\":4182:4196   */\n      add\n        /* \"#utility.yul\":4178:4206   */\n      and\n        /* \"#utility.yul\":4168:4206   */\n      swap1\n      pop\n        /* \"#utility.yul\":4110:4212   */\n      swap2\n      swap1\n      pop\n      jump\t// out\n        /* \"#utility.yul\":4218:4340   */\n    tag_55:\n        /* \"#utility.yul\":4291:4315   */\n      tag_115\n        /* \"#utility.yul\":4309:4314   */\n      dup2\n        /* \"#utility.yul\":4291:4315   */\n      tag_85\n      jump\t// in\n    tag_115:\n        /* \"#utility.yul\":4284:4289   */\n      dup2\n        /* \"#utility.yul\":4281:4316   */\n      eq\n        /* \"#utility.yul\":4271:4334   */\n      tag_116\n      jumpi\n        /* \"#utility.yul\":4330:4331   */\n      0x00\n        /* \"#utility.yul\":4327:4328   */\n      dup1\n        /* \"#utility.yul\":4320:4332   */\n      revert\n        /* \"#utility.yul\":4271:4334   */\n    tag_116:\n        /* \"#utility.yul\":4218:4340   */\n      pop\n      jump\t// out\n\n    auxdata: 0xa26469706673582212202fe2c04a31873f28c20254668aa4f5d15470ee99ba67ff2b453204d65b27618e64736f6c63430008070033\n}\n",
				"bytecode": {
					"linkReferences": {},
					"object": "60806040526040518060600160405280602e8152602001610777602e913960009080519060200190610032929190610069565b507f4c45484f4e47564f776a6e66766a3377656838764b4a0000000000000000000060015534801561006357600080fd5b5061016d565b8280546100759061010c565b90600052602060002090601f01602090048101928261009757600085556100de565b82601f106100b057805160ff19168380011785556100de565b828001600101855582156100de579182015b828111156100dd5782518255916020019190600101906100c2565b5b5090506100eb91906100ef565b5090565b5b808211156101085760008160009055506001016100f0565b5090565b6000600282049050600182168061012457607f821691505b602082108114156101385761013761013e565b5b50919050565b7f4e487b7100000000000000000000000000000000000000000000000000000000600052602260045260246000fd5b6105fb8061017c6000396000f3fe608060405234801561001057600080fd5b50600436106100415760003560e01c80630178fe3f146100465780639ffd85c414610076578063e3a7fd7514610094575b600080fd5b610060600480360381019061005b9190610318565b6100b2565b60405161006d91906103a8565b60405180910390f35b61007e6100c4565b60405161008b91906103a8565b60405180910390f35b61009c610152565b6040516100a9919061038d565b60405180910390f35b60606100bd82610158565b9050919050565b600080546100d190610461565b80601f01602080910402602001604051908101604052809291908181526020018280546100fd90610461565b801561014a5780601f1061011f5761010080835404028352916020019161014a565b820191906000526020600020905b81548152906001019060200180831161012d57829003601f168201915b505050505081565b60015481565b60606000602067ffffffffffffffff81111561017757610176610569565b5b6040519080825280601f01601f1916602001820160405280156101a95781602001600182028036833780820191505090505b5090508260208201526000807fffffffffffffffffffffffffffffffffffffffffffffffff0000000000000000851614156101e75760189050610221565b60007fffffffffffffffffffffffffffffffff000000000000000000000000000000008516141561021b5760109050610220565b600090505b5b5b602081101561028d57600060f81b8282815181106102435761024261053a565b5b602001015160f81c60f81b7effffffffffffffffffffffffffffffffffffffffffffffffffffffffffffff19161461027a5761028d565b808061028590610493565b915050610222565b600081602061029c91906103e6565b905060008167ffffffffffffffff8111156102ba576102b9610569565b5b6040519080825280601f01601f1916602001820160405280156102ec5781602001600182028036833780820191505090505b509050858282015281815280945050505050919050565b600081359050610312816105ae565b92915050565b60006020828403121561032e5761032d610598565b5b600061033c84828501610303565b91505092915050565b61034e8161041a565b82525050565b600061035f826103ca565b61036981856103d5565b935061037981856020860161042e565b6103828161059d565b840191505092915050565b60006020820190506103a26000830184610345565b92915050565b600060208201905081810360008301526103c28184610354565b905092915050565b600081519050919050565b600082825260208201905092915050565b60006103f182610424565b91506103fc83610424565b92508282101561040f5761040e6104dc565b5b828203905092915050565b6000819050919050565b6000819050919050565b60005b8381101561044c578082015181840152602081019050610431565b8381111561045b576000848401525b50505050565b6000600282049050600182168061047957607f821691505b6020821081141561048d5761048c61050b565b5b50919050565b600061049e82610424565b91507fffffffffffffffffffffffffffffffffffffffffffffffffffffffffffffffff8214156104d1576104d06104dc565b5b600182019050919050565b7f4e487b7100000000000000000000000000000000000000000000000000000000600052601160045260246000fd5b7f4e487b7100000000000000000000000000000000000000000000000000000000600052602260045260246000fd5b7f4e487b7100000000000000000000000000000000000000000000000000000000600052603260045260246000fd5b7f4e487b7100000000000000000000000000000000000000000000000000000000600052604160045260246000fd5b600080fd5b6000601f19601f8301169050919050565b6105b781610424565b81146105c257600080fd5b5056fea26469706673582212202fe2c04a31873f28c20254668aa4f5d15470ee99ba67ff2b453204d65b27618e64736f6c634300080700334e414c4548484a534744534447484a534448535548444a5348444a53484a53484a534844534a44484a4f4e47564f",
					"opcodes": "PUSH1 0x80 PUSH1 0x40 MSTORE PUSH1 0x40 MLOAD DUP1 PUSH1 0x60 ADD PUSH1 0x40 MSTORE DUP1 PUSH1 0x2E DUP2 MSTORE PUSH1 0x20 ADD PUSH2 0x777 PUSH1 0x2E SWAP2 CODECOPY PUSH1 0x0 SWAP1 DUP1 MLOAD SWAP1 PUSH1 0x20 ADD SWAP1 PUSH2 0x32 SWAP3 SWAP2 SWAP1 PUSH2 0x69 JUMP JUMPDEST POP PUSH32 0x4C45484F4E47564F776A6E66766A3377656838764B4A00000000000000000000 PUSH1 0x1 SSTORE CALLVALUE DUP1 ISZERO PUSH2 0x63 JUMPI PUSH1 0x0 DUP1 REVERT JUMPDEST POP PUSH2 0x16D JUMP JUMPDEST DUP3 DUP1 SLOAD PUSH2 0x75 SWAP1 PUSH2 0x10C JUMP JUMPDEST SWAP1 PUSH1 0x0 MSTORE PUSH1 0x20 PUSH1 0x0 KECCAK256 SWAP1 PUSH1 0x1F ADD PUSH1 0x20 SWAP1 DIV DUP2 ADD SWAP3 DUP3 PUSH2 0x97 JUMPI PUSH1 0x0 DUP6 SSTORE PUSH2 0xDE JUMP JUMPDEST DUP3 PUSH1 0x1F LT PUSH2 0xB0 JUMPI DUP1 MLOAD PUSH1 0xFF NOT AND DUP4 DUP1 ADD OR DUP6 SSTORE PUSH2 0xDE JUMP JUMPDEST DUP3 DUP1 ADD PUSH1 0x1 ADD DUP6 SSTORE DUP3 ISZERO PUSH2 0xDE JUMPI SWAP2 DUP3 ADD JUMPDEST DUP3 DUP2 GT ISZERO PUSH2 0xDD JUMPI DUP3 MLOAD DUP3 SSTORE SWAP2 PUSH1 0x20 ADD SWAP2 SWAP1 PUSH1 0x1 ADD SWAP1 PUSH2 0xC2 JUMP JUMPDEST JUMPDEST POP SWAP1 POP PUSH2 0xEB SWAP2 SWAP1 PUSH2 0xEF JUMP JUMPDEST POP SWAP1 JUMP JUMPDEST JUMPDEST DUP1 DUP3 GT ISZERO PUSH2 0x108 JUMPI PUSH1 0x0 DUP2 PUSH1 0x0 SWAP1 SSTORE POP PUSH1 0x1 ADD PUSH2 0xF0 JUMP JUMPDEST POP SWAP1 JUMP JUMPDEST PUSH1 0x0 PUSH1 0x2 DUP3 DIV SWAP1 POP PUSH1 0x1 DUP3 AND DUP1 PUSH2 0x124 JUMPI PUSH1 0x7F DUP3 AND SWAP2 POP JUMPDEST PUSH1 0x20 DUP3 LT DUP2 EQ ISZERO PUSH2 0x138 JUMPI PUSH2 0x137 PUSH2 0x13E JUMP JUMPDEST JUMPDEST POP SWAP2 SWAP1 POP JUMP JUMPDEST PUSH32 0x4E487B7100000000000000000000000000000000000000000000000000000000 PUSH1 0x0 MSTORE PUSH1 0x22 PUSH1 0x4 MSTORE PUSH1 0x24 PUSH1 0x0 REVERT JUMPDEST PUSH2 0x5FB DUP1 PUSH2 0x17C PUSH1 0x0 CODECOPY PUSH1 0x0 RETURN INVALID PUSH1 0x80 PUSH1 0x40 MSTORE CALLVALUE DUP1 ISZERO PUSH2 0x10 JUMPI PUSH1 0x0 DUP1 REVERT JUMPDEST POP PUSH1 0x4 CALLDATASIZE LT PUSH2 0x41 JUMPI PUSH1 0x0 CALLDATALOAD PUSH1 0xE0 SHR DUP1 PUSH4 0x178FE3F EQ PUSH2 0x46 JUMPI DUP1 PUSH4 0x9FFD85C4 EQ PUSH2 0x76 JUMPI DUP1 PUSH4 0xE3A7FD75 EQ PUSH2 0x94 JUMPI JUMPDEST PUSH1 0x0 DUP1 REVERT JUMPDEST PUSH2 0x60 PUSH1 0x4 DUP1 CALLDATASIZE SUB DUP2 ADD SWAP1 PUSH2 0x5B SWAP2 SWAP1 PUSH2 0x318 JUMP JUMPDEST PUSH2 0xB2 JUMP JUMPDEST PUSH1 0x40 MLOAD PUSH2 0x6D SWAP2 SWAP1 PUSH2 0x3A8 JUMP JUMPDEST PUSH1 0x40 MLOAD DUP1 SWAP2 SUB SWAP1 RETURN JUMPDEST PUSH2 0x7E PUSH2 0xC4 JUMP JUMPDEST PUSH1 0x40 MLOAD PUSH2 0x8B SWAP2 SWAP1 PUSH2 0x3A8 JUMP JUMPDEST PUSH1 0x40 MLOAD DUP1 SWAP2 SUB SWAP1 RETURN JUMPDEST PUSH2 0x9C PUSH2 0x152 JUMP JUMPDEST PUSH1 0x40 MLOAD PUSH2 0xA9 SWAP2 SWAP1 PUSH2 0x38D JUMP JUMPDEST PUSH1 0x40 MLOAD DUP1 SWAP2 SUB SWAP1 RETURN JUMPDEST PUSH1 0x60 PUSH2 0xBD DUP3 PUSH2 0x158 JUMP JUMPDEST SWAP1 POP SWAP2 SWAP1 POP JUMP JUMPDEST PUSH1 0x0 DUP1 SLOAD PUSH2 0xD1 SWAP1 PUSH2 0x461 JUMP JUMPDEST DUP1 PUSH1 0x1F ADD PUSH1 0x20 DUP1 SWAP2 DIV MUL PUSH1 0x20 ADD PUSH1 0x40 MLOAD SWAP1 DUP2 ADD PUSH1 0x40 MSTORE DUP1 SWAP3 SWAP2 SWAP1 DUP2 DUP2 MSTORE PUSH1 0x20 ADD DUP3 DUP1 SLOAD PUSH2 0xFD SWAP1 PUSH2 0x461 JUMP JUMPDEST DUP1 ISZERO PUSH2 0x14A JUMPI DUP1 PUSH1 0x1F LT PUSH2 0x11F JUMPI PUSH2 0x100 DUP1 DUP4 SLOAD DIV MUL DUP4 MSTORE SWAP2 PUSH1 0x20 ADD SWAP2 PUSH2 0x14A JUMP JUMPDEST DUP3 ADD SWAP2 SWAP1 PUSH1 0x0 MSTORE PUSH1 0x20 PUSH1 0x0 KECCAK256 SWAP1 JUMPDEST DUP2 SLOAD DUP2 MSTORE SWAP1 PUSH1 0x1 ADD SWAP1 PUSH1 0x20 ADD DUP1 DUP4 GT PUSH2 0x12D JUMPI DUP3 SWAP1 SUB PUSH1 0x1F AND DUP3 ADD SWAP2 JUMPDEST POP POP POP POP POP DUP2 JUMP JUMPDEST PUSH1 0x1 SLOAD DUP2 JUMP JUMPDEST PUSH1 0x60 PUSH1 0x0 PUSH1 0x20 PUSH8 0xFFFFFFFFFFFFFFFF DUP2 GT ISZERO PUSH2 0x177 JUMPI PUSH2 0x176 PUSH2 0x569 JUMP JUMPDEST JUMPDEST PUSH1 0x40 MLOAD SWAP1 DUP1 DUP3 MSTORE DUP1 PUSH1 0x1F ADD PUSH1 0x1F NOT AND PUSH1 0x20 ADD DUP3 ADD PUSH1 0x40 MSTORE DUP1 ISZERO PUSH2 0x1A9 JUMPI DUP2 PUSH1 0x20 ADD PUSH1 0x1 DUP3 MUL DUP1 CALLDATASIZE DUP4 CALLDATACOPY DUP1 DUP3 ADD SWAP2 POP POP SWAP1 POP JUMPDEST POP SWAP1 POP DUP3 PUSH1 0x20 DUP3 ADD MSTORE PUSH1 0x0 DUP1 PUSH32 0xFFFFFFFFFFFFFFFFFFFFFFFFFFFFFFFFFFFFFFFFFFFFFFFF0000000000000000 DUP6 AND EQ ISZERO PUSH2 0x1E7 JUMPI PUSH1 0x18 SWAP1 POP PUSH2 0x221 JUMP JUMPDEST PUSH1 0x0 PUSH32 0xFFFFFFFFFFFFFFFFFFFFFFFFFFFFFFFF00000000000000000000000000000000 DUP6 AND EQ ISZERO PUSH2 0x21B JUMPI PUSH1 0x10 SWAP1 POP PUSH2 0x220 JUMP JUMPDEST PUSH1 0x0 SWAP1 POP JUMPDEST JUMPDEST JUMPDEST PUSH1 0x20 DUP2 LT ISZERO PUSH2 0x28D JUMPI PUSH1 0x0 PUSH1 0xF8 SHL DUP3 DUP3 DUP2 MLOAD DUP2 LT PUSH2 0x243 JUMPI PUSH2 0x242 PUSH2 0x53A JUMP JUMPDEST JUMPDEST PUSH1 0x20 ADD ADD MLOAD PUSH1 0xF8 SHR PUSH1 0xF8 SHL PUSH31 0xFFFFFFFFFFFFFFFFFFFFFFFFFFFFFFFFFFFFFFFFFFFFFFFFFFFFFFFFFFFFFF NOT AND EQ PUSH2 0x27A JUMPI PUSH2 0x28D JUMP JUMPDEST DUP1 DUP1 PUSH2 0x285 SWAP1 PUSH2 0x493 JUMP JUMPDEST SWAP2 POP POP PUSH2 0x222 JUMP JUMPDEST PUSH1 0x0 DUP2 PUSH1 0x20 PUSH2 0x29C SWAP2 SWAP1 PUSH2 0x3E6 JUMP JUMPDEST SWAP1 POP PUSH1 0x0 DUP2 PUSH8 0xFFFFFFFFFFFFFFFF DUP2 GT ISZERO PUSH2 0x2BA JUMPI PUSH2 0x2B9 PUSH2 0x569 JUMP JUMPDEST JUMPDEST PUSH1 0x40 MLOAD SWAP1 DUP1 DUP3 MSTORE DUP1 PUSH1 0x1F ADD PUSH1 0x1F NOT AND PUSH1 0x20 ADD DUP3 ADD PUSH1 0x40 MSTORE DUP1 ISZERO PUSH2 0x2EC JUMPI DUP2 PUSH1 0x20 ADD PUSH1 0x1 DUP3 MUL DUP1 CALLDATASIZE DUP4 CALLDATACOPY DUP1 DUP3 ADD SWAP2 POP POP SWAP1 POP JUMPDEST POP SWAP1 POP DUP6 DUP3 DUP3 ADD MSTORE DUP2 DUP2 MSTORE DUP1 SWAP5 POP POP POP POP POP SWAP2 SWAP1 POP JUMP JUMPDEST PUSH1 0x0 DUP2 CALLDATALOAD SWAP1 POP PUSH2 0x312 DUP2 PUSH2 0x5AE JUMP JUMPDEST SWAP3 SWAP2 POP POP JUMP JUMPDEST PUSH1 0x0 PUSH1 0x20 DUP3 DUP5 SUB SLT ISZERO PUSH2 0x32E JUMPI PUSH2 0x32D PUSH2 0x598 JUMP JUMPDEST JUMPDEST PUSH1 0x0 PUSH2 0x33C DUP5 DUP3 DUP6 ADD PUSH2 0x303 JUMP JUMPDEST SWAP2 POP POP SWAP3 SWAP2 POP POP JUMP JUMPDEST PUSH2 0x34E DUP2 PUSH2 0x41A JUMP JUMPDEST DUP3 MSTORE POP POP JUMP JUMPDEST PUSH1 0x0 PUSH2 0x35F DUP3 PUSH2 0x3CA JUMP JUMPDEST PUSH2 0x369 DUP2 DUP6 PUSH2 0x3D5 JUMP JUMPDEST SWAP4 POP PUSH2 0x379 DUP2 DUP6 PUSH1 0x20 DUP7 ADD PUSH2 0x42E JUMP JUMPDEST PUSH2 0x382 DUP2 PUSH2 0x59D JUMP JUMPDEST DUP5 ADD SWAP2 POP POP SWAP3 SWAP2 POP POP JUMP JUMPDEST PUSH1 0x0 PUSH1 0x20 DUP3 ADD SWAP1 POP PUSH2 0x3A2 PUSH1 0x0 DUP4 ADD DUP5 PUSH2 0x345 JUMP JUMPDEST SWAP3 SWAP2 POP POP JUMP JUMPDEST PUSH1 0x0 PUSH1 0x20 DUP3 ADD SWAP1 POP DUP2 DUP2 SUB PUSH1 0x0 DUP4 ADD MSTORE PUSH2 0x3C2 DUP2 DUP5 PUSH2 0x354 JUMP JUMPDEST SWAP1 POP SWAP3 SWAP2 POP POP JUMP JUMPDEST PUSH1 0x0 DUP2 MLOAD SWAP1 POP SWAP2 SWAP1 POP JUMP JUMPDEST PUSH1 0x0 DUP3 DUP3 MSTORE PUSH1 0x20 DUP3 ADD SWAP1 POP SWAP3 SWAP2 POP POP JUMP JUMPDEST PUSH1 0x0 PUSH2 0x3F1 DUP3 PUSH2 0x424 JUMP JUMPDEST SWAP2 POP PUSH2 0x3FC DUP4 PUSH2 0x424 JUMP JUMPDEST SWAP3 POP DUP3 DUP3 LT ISZERO PUSH2 0x40F JUMPI PUSH2 0x40E PUSH2 0x4DC JUMP JUMPDEST JUMPDEST DUP3 DUP3 SUB SWAP1 POP SWAP3 SWAP2 POP POP JUMP JUMPDEST PUSH1 0x0 DUP2 SWAP1 POP SWAP2 SWAP1 POP JUMP JUMPDEST PUSH1 0x0 DUP2 SWAP1 POP SWAP2 SWAP1 POP JUMP JUMPDEST PUSH1 0x0 JUMPDEST DUP4 DUP2 LT ISZERO PUSH2 0x44C JUMPI DUP1 DUP3 ADD MLOAD DUP2 DUP5 ADD MSTORE PUSH1 0x20 DUP2 ADD SWAP1 POP PUSH2 0x431 JUMP JUMPDEST DUP4 DUP2 GT ISZERO PUSH2 0x45B JUMPI PUSH1 0x0 DUP5 DUP5 ADD MSTORE JUMPDEST POP POP POP POP JUMP JUMPDEST PUSH1 0x0 PUSH1 0x2 DUP3 DIV SWAP1 POP PUSH1 0x1 DUP3 AND DUP1 PUSH2 0x479 JUMPI PUSH1 0x7F DUP3 AND SWAP2 POP JUMPDEST PUSH1 0x20 DUP3 LT DUP2 EQ ISZERO PUSH2 0x48D JUMPI PUSH2 0x48C PUSH2 0x50B JUMP JUMPDEST JUMPDEST POP SWAP2 SWAP1 POP JUMP JUMPDEST PUSH1 0x0 PUSH2 0x49E DUP3 PUSH2 0x424 JUMP JUMPDEST SWAP2 POP PUSH32 0xFFFFFFFFFFFFFFFFFFFFFFFFFFFFFFFFFFFFFFFFFFFFFFFFFFFFFFFFFFFFFFFF DUP3 EQ ISZERO PUSH2 0x4D1 JUMPI PUSH2 0x4D0 PUSH2 0x4DC JUMP JUMPDEST JUMPDEST PUSH1 0x1 DUP3 ADD SWAP1 POP SWAP2 SWAP1 POP JUMP JUMPDEST PUSH32 0x4E487B7100000000000000000000000000000000000000000000000000000000 PUSH1 0x0 MSTORE PUSH1 0x11 PUSH1 0x4 MSTORE PUSH1 0x24 PUSH1 0x0 REVERT JUMPDEST PUSH32 0x4E487B7100000000000000000000000000000000000000000000000000000000 PUSH1 0x0 MSTORE PUSH1 0x22 PUSH1 0x4 MSTORE PUSH1 0x24 PUSH1 0x0 REVERT JUMPDEST PUSH32 0x4E487B7100000000000000000000000000000000000000000000000000000000 PUSH1 0x0 MSTORE PUSH1 0x32 PUSH1 0x4 MSTORE PUSH1 0x24 PUSH1 0x0 REVERT JUMPDEST PUSH32 0x4E487B7100000000000000000000000000000000000000000000000000000000 PUSH1 0x0 MSTORE PUSH1 0x41 PUSH1 0x4 MSTORE PUSH1 0x24 PUSH1 0x0 REVERT JUMPDEST PUSH1 0x0 DUP1 REVERT JUMPDEST PUSH1 0x0 PUSH1 0x1F NOT PUSH1 0x1F DUP4 ADD AND SWAP1 POP SWAP2 SWAP1 POP JUMP JUMPDEST PUSH2 0x5B7 DUP2 PUSH2 0x424 JUMP JUMPDEST DUP2 EQ PUSH2 0x5C2 JUMPI PUSH1 0x0 DUP1 REVERT JUMPDEST POP JUMP INVALID LOG2 PUSH5 0x6970667358 0x22 SLT KECCAK256 0x2F 0xE2 0xC0 0x4A BALANCE DUP8 EXTCODEHASH 0x28 0xC2 MUL SLOAD PUSH7 0x8AA4F5D15470EE SWAP10 0xBA PUSH8 0xFF2B453204D65B27 PUSH2 0x8E64 PUSH20 0x6F6C634300080700334E414C4548484A53474453 DIFFICULTY SELFBALANCE BASEFEE 0x4A MSTORE8 DIFFICULTY BASEFEE MSTORE8 SSTORE BASEFEE DIFFICULTY 0x4A MSTORE8 BASEFEE DIFFICULTY 0x4A MSTORE8 BASEFEE 0x4A MSTORE8 BASEFEE 0x4A MSTORE8 BASEFEE DIFFICULTY MSTORE8 0x4A DIFFICULTY BASEFEE 0x4A 0x4F 0x4E SELFBALANCE JUMP 0x4F "
				},
				"gasEstimates": {
					"creation": {
						"codeDepositCost": "306200",
						"executionCost": "infinite",
						"totalCost": "infinite"
					},
					"external": {
						"data1()": "infinite",
						"data2()": "2451",
						"getData(uint256)": "infinite"
					},
					"internal": {
						"toBinary(uint256)": "infinite"
					}
				},
				"methodIdentifiers": {
					"data1()": "9ffd85c4",
					"data2()": "e3a7fd75",
					"getData(uint256)": "0178fe3f"
				}
			},
			"userdoc": {
				"kind": "user",
				"methods": {},
				"version": 1
			}
		}
	}
}