{
	"contracts/demo1.sol": {
		"SizeOf": {
			"abi": [
				{
					"constant": true,
					"inputs": [
						{
							"internalType": "uint16",
							"name": "_data",
							"type": "uint16"
						}
					],
					"name": "getData",
					"outputs": [
						{
							"internalType": "uint256",
							"name": "",
							"type": "uint256"
						}
					],
					"payable": false,
					"stateMutability": "view",
					"type": "function"
				}
			],
			"devdoc": {
				"author": "pouladzade@gmail.com",
				"details": "The SizeOf return the size of the solidity types in byte",
				"methods": {},
				"title": "SizeOf Copyright (c) 2016-2020 zpouladzade/Seriality"
			},
			"evm": {
				"assembly": "    /* \"contracts/demo1.sol\":211:2441  contract SizeOf {\r... */\n  mstore(0x40, 0x80)\n  callvalue\n    /* \"--CODEGEN--\":8:17   */\n  dup1\n    /* \"--CODEGEN--\":5:7   */\n  iszero\n  tag_1\n  jumpi\n    /* \"--CODEGEN--\":30:31   */\n  0x00\n    /* \"--CODEGEN--\":27:28   */\n  dup1\n    /* \"--CODEGEN--\":20:32   */\n  revert\n    /* \"--CODEGEN--\":5:7   */\ntag_1:\n    /* \"contracts/demo1.sol\":211:2441  contract SizeOf {\r... */\n  pop\n  dataSize(sub_0)\n  dup1\n  dataOffset(sub_0)\n  0x00\n  codecopy\n  0x00\n  return\nstop\n\nsub_0: assembly {\n        /* \"contracts/demo1.sol\":211:2441  contract SizeOf {\r... */\n      mstore(0x40, 0x80)\n      callvalue\n        /* \"--CODEGEN--\":8:17   */\n      dup1\n        /* \"--CODEGEN--\":5:7   */\n      iszero\n      tag_1\n      jumpi\n        /* \"--CODEGEN--\":30:31   */\n      0x00\n        /* \"--CODEGEN--\":27:28   */\n      dup1\n        /* \"--CODEGEN--\":20:32   */\n      revert\n        /* \"--CODEGEN--\":5:7   */\n    tag_1:\n        /* \"contracts/demo1.sol\":211:2441  contract SizeOf {\r... */\n      pop\n      jumpi(tag_2, lt(calldatasize, 0x04))\n      shr(0xe0, calldataload(0x00))\n      dup1\n      0x753792b5\n      eq\n      tag_3\n      jumpi\n    tag_2:\n      0x00\n      dup1\n      revert\n        /* \"contracts/demo1.sol\":554:650  function getData(uint16 _data) public view returns(uint){\r... */\n    tag_3:\n      tag_4\n      0x04\n      dup1\n      calldatasize\n      sub\n        /* \"--CODEGEN--\":13:15   */\n      0x20\n        /* \"--CODEGEN--\":8:11   */\n      dup2\n        /* \"--CODEGEN--\":5:16   */\n      lt\n        /* \"--CODEGEN--\":2:4   */\n      iszero\n      tag_5\n      jumpi\n        /* \"--CODEGEN--\":29:30   */\n      0x00\n        /* \"--CODEGEN--\":26:27   */\n      dup1\n        /* \"--CODEGEN--\":19:31   */\n      revert\n        /* \"--CODEGEN--\":2:4   */\n    tag_5:\n        /* \"contracts/demo1.sol\":554:650  function getData(uint16 _data) public view returns(uint){\r... */\n      dup2\n      add\n      swap1\n      dup1\n      dup1\n      calldataload\n      0xffff\n      and\n      swap1\n      0x20\n      add\n      swap1\n      swap3\n      swap2\n      swap1\n      pop\n      pop\n      pop\n      tag_6\n      jump\t// in\n    tag_4:\n      mload(0x40)\n      dup1\n      dup3\n      dup2\n      mstore\n      0x20\n      add\n      swap2\n      pop\n      pop\n      mload(0x40)\n      dup1\n      swap2\n      sub\n      swap1\n      return\n    tag_6:\n        /* \"contracts/demo1.sol\":605:609  uint */\n      0x00\n        /* \"contracts/demo1.sol\":628:642  getData(_data) */\n      tag_8\n        /* \"contracts/demo1.sol\":636:641  _data */\n      dup3\n        /* \"contracts/demo1.sol\":628:635  getData */\n      tag_6\n        /* \"contracts/demo1.sol\":628:642  getData(_data) */\n      jump\t// in\n    tag_8:\n        /* \"contracts/demo1.sol\":621:642  return getData(_data) */\n      swap1\n      pop\n        /* \"contracts/demo1.sol\":554:650  function getData(uint16 _data) public view returns(uint){\r... */\n      swap2\n      swap1\n      pop\n      jump\t// out\n\n    auxdata: 0xa265627a7a72315820fd8efbacfea1139b3f7a4bc76b08833a32c0a8c7830546df23f0afefb18fc8e664736f6c63430005100032\n}\n",
				"bytecode": {
					"linkReferences": {},
					"object": "608060405234801561001057600080fd5b5060b58061001f6000396000f3fe6080604052348015600f57600080fd5b506004361060285760003560e01c8063753792b514602d575b600080fd5b605a60048036036020811015604157600080fd5b81019080803561ffff1690602001909291905050506070565b6040518082815260200191505060405180910390f35b60006079826070565b905091905056fea265627a7a72315820fd8efbacfea1139b3f7a4bc76b08833a32c0a8c7830546df23f0afefb18fc8e664736f6c63430005100032",
					"opcodes": "PUSH1 0x80 PUSH1 0x40 MSTORE CALLVALUE DUP1 ISZERO PUSH2 0x10 JUMPI PUSH1 0x0 DUP1 REVERT JUMPDEST POP PUSH1 0xB5 DUP1 PUSH2 0x1F PUSH1 0x0 CODECOPY PUSH1 0x0 RETURN INVALID PUSH1 0x80 PUSH1 0x40 MSTORE CALLVALUE DUP1 ISZERO PUSH1 0xF JUMPI PUSH1 0x0 DUP1 REVERT JUMPDEST POP PUSH1 0x4 CALLDATASIZE LT PUSH1 0x28 JUMPI PUSH1 0x0 CALLDATALOAD PUSH1 0xE0 SHR DUP1 PUSH4 0x753792B5 EQ PUSH1 0x2D JUMPI JUMPDEST PUSH1 0x0 DUP1 REVERT JUMPDEST PUSH1 0x5A PUSH1 0x4 DUP1 CALLDATASIZE SUB PUSH1 0x20 DUP2 LT ISZERO PUSH1 0x41 JUMPI PUSH1 0x0 DUP1 REVERT JUMPDEST DUP2 ADD SWAP1 DUP1 DUP1 CALLDATALOAD PUSH2 0xFFFF AND SWAP1 PUSH1 0x20 ADD SWAP1 SWAP3 SWAP2 SWAP1 POP POP POP PUSH1 0x70 JUMP JUMPDEST PUSH1 0x40 MLOAD DUP1 DUP3 DUP2 MSTORE PUSH1 0x20 ADD SWAP2 POP POP PUSH1 0x40 MLOAD DUP1 SWAP2 SUB SWAP1 RETURN JUMPDEST PUSH1 0x0 PUSH1 0x79 DUP3 PUSH1 0x70 JUMP JUMPDEST SWAP1 POP SWAP2 SWAP1 POP JUMP INVALID LOG2 PUSH6 0x627A7A723158 KECCAK256 REVERT DUP15 0xFB 0xAC INVALID LOG1 SGT SWAP12 EXTCODEHASH PUSH27 0x4BC76B08833A32C0A8C7830546DF23F0AFEFB18FC8E664736F6C63 NUMBER STOP SDIV LT STOP ORIGIN "
				},
				"gasEstimates": {
					"creation": {
						"codeDepositCost": "36200",
						"executionCost": "87",
						"totalCost": "36287"
					},
					"external": {
						"getData(uint16)": "infinite"
					},
					"internal": {
						"sizeOfAddress()": "infinite",
						"sizeOfBool()": "infinite",
						"sizeOfInt(uint16)": "infinite",
						"sizeOfString(string memory)": "infinite",
						"sizeOfUint(uint16)": "infinite"
					}
				},
				"methodIdentifiers": {
					"getData(uint16)": "753792b5"
				}
			},
			"userdoc": {
				"methods": {}
			}
		}
	}
}