{
	"contracts/demo2.sol": {
		"demo2": {
			"abi": [
				{
					"inputs": [
						{
							"internalType": "uint256",
							"name": "_len",
							"type": "uint256"
						},
						{
							"internalType": "uint256",
							"name": "_menPtr",
							"type": "uint256"
						}
					],
					"stateMutability": "nonpayable",
					"type": "constructor"
				},
				{
					"inputs": [],
					"name": "data1",
					"outputs": [
						{
							"internalType": "bytes",
							"name": "",
							"type": "bytes"
						}
					],
					"stateMutability": "view",
					"type": "function"
				},
				{
					"inputs": [],
					"name": "data2",
					"outputs": [
						{
							"internalType": "bytes32",
							"name": "",
							"type": "bytes32"
						}
					],
					"stateMutability": "view",
					"type": "function"
				},
				{
					"inputs": [],
					"name": "data3",
					"outputs": [
						{
							"internalType": "bytes",
							"name": "",
							"type": "bytes"
						}
					],
					"stateMutability": "view",
					"type": "function"
				},
				{
					"inputs": [],
					"name": "getData",
					"outputs": [
						{
							"internalType": "uint256",
							"name": "",
							"type": "uint256"
						}
					],
					"stateMutability": "view",
					"type": "function"
				},
				{
					"inputs": [],
					"name": "rlpItem",
					"outputs": [
						{
							"internalType": "uint256",
							"name": "len",
							"type": "uint256"
						},
						{
							"internalType": "uint256",
							"name": "memPtr",
							"type": "uint256"
						}
					],
					"stateMutability": "view",
					"type": "function"
				}
			],
			"devdoc": {
				"methods": {}
			},
			"evm": {
				"assembly": "    /* \"contracts/demo2.sol\":81:5301  contract demo2 {\r... */\n  mstore(0x40, 0x80)\n    /* \"contracts/demo2.sol\":107:176  bytes public data1 = \"NALEHHJSGDSDGHJSDHSUHDJSHDJSHJSHJSHDSJDHJONGVO\" */\n  mload(0x40)\n  dup1\n  0x60\n  add\n  0x40\n  mstore\n  dup1\n  0x2e\n  dup2\n  mstore\n  0x20\n  add\n  data_4887836e294a2761413359597244d307bbe3f94827f6160d9e1a399e00e2d1be\n  0x2e\n  swap2\n  codecopy\n  0x00\n  swap1\n  dup1\n  mload\n  swap1\n  0x20\n  add\n  swap1\n  tag_1\n  swap3\n  swap2\n  swap1\n  tag_2\n  jump\t// in\ntag_1:\n  pop\n    /* \"contracts/demo2.sol\":187:252  bytes public data3 = \"sdfNAsdfsdfLEHHJSGDSHDJSHJSHJSHDSJDHJONGVO\" */\n  mload(0x40)\n  dup1\n  0x60\n  add\n  0x40\n  mstore\n  dup1\n  0x2a\n  dup2\n  mstore\n  0x20\n  add\n  data_c359735a342ece061e65ab7390d246d1e53ba5f24eea70d6201f1d4a7b2f3475\n  0x2a\n  swap2\n  codecopy\n  0x01\n  swap1\n  dup1\n  mload\n  swap1\n  0x20\n  add\n  swap1\n  tag_3\n  swap3\n  swap2\n  swap1\n  tag_2\n  jump\t// in\ntag_3:\n  pop\n    /* \"contracts/demo2.sol\":263:310  bytes32 public data2 = \"LEHONGVOwjnfvj3weh8vKJ\" */\n  sstore(0x02, 0x4c45484f4e47564f776a6e66766a3377656838764b4a00000000000000000000)\n    /* \"contracts/demo2.sol\":964:1092  constructor(uint _len, uint _menPtr) public {\r... */\n  callvalue\n    /* \"--CODEGEN--\":5:14   */\n  dup1\n    /* \"--CODEGEN--\":2:4   */\n  iszero\n  tag_4\n  jumpi\n    /* \"--CODEGEN--\":27:28   */\n  0x00\n    /* \"--CODEGEN--\":24:25   */\n  dup1\n    /* \"--CODEGEN--\":17:29   */\n  revert\n    /* \"--CODEGEN--\":2:4   */\ntag_4:\n    /* \"contracts/demo2.sol\":964:1092  constructor(uint _len, uint _menPtr) public {\r... */\n  pop\n  mload(0x40)\n  sub(codesize, bytecodeSize)\n  dup1\n  bytecodeSize\n  dup4\n  codecopy\n  dup2\n  dup2\n  add\n  0x40\n  mstore\n  dup2\n  add\n  swap1\n  tag_5\n  swap2\n  swap1\n  jump(tag_6)\ntag_5:\n    /* \"contracts/demo2.sol\":1037:1041  _len */\n  dup2\n    /* \"contracts/demo2.sol\":1023:1030  rlpItem */\n  0x03\n    /* \"contracts/demo2.sol\":1023:1034  rlpItem.len */\n  0x00\n  add\n    /* \"contracts/demo2.sol\":1023:1041  rlpItem.len = _len */\n  dup2\n  swap1\n  sstore\n  pop\n    /* \"contracts/demo2.sol\":1073:1080  _menPtr */\n  dup1\n    /* \"contracts/demo2.sol\":1056:1063  rlpItem */\n  0x03\n    /* \"contracts/demo2.sol\":1056:1070  rlpItem.memPtr */\n  0x01\n  add\n    /* \"contracts/demo2.sol\":1056:1080  rlpItem.memPtr = _menPtr */\n  dup2\n  swap1\n  sstore\n  pop\n    /* \"contracts/demo2.sol\":964:1092  constructor(uint _len, uint _menPtr) public {\r... */\n  pop\n  pop\n    /* \"contracts/demo2.sol\":81:5301  contract demo2 {\r... */\n  jump(tag_9)\ntag_2:\n  dup3\n  dup1\n  sload\n  0x01\n  dup2\n  0x01\n  and\n  iszero\n  0x0100\n  mul\n  sub\n  and\n  0x02\n  swap1\n  div\n  swap1\n  0x00\n  mstore\n  keccak256(0x00, 0x20)\n  swap1\n  0x1f\n  add\n  0x20\n  swap1\n  div\n  dup2\n  add\n  swap3\n  dup3\n  0x1f\n  lt\n  tag_11\n  jumpi\n  dup1\n  mload\n  not(0xff)\n  and\n  dup4\n  dup1\n  add\n  or\n  dup6\n  sstore\n  jump(tag_10)\ntag_11:\n  dup3\n  dup1\n  add\n  0x01\n  add\n  dup6\n  sstore\n  dup3\n  iszero\n  tag_10\n  jumpi\n  swap2\n  dup3\n  add\ntag_12:\n  dup3\n  dup2\n  gt\n  iszero\n  tag_13\n  jumpi\n  dup3\n  mload\n  dup3\n  sstore\n  swap2\n  0x20\n  add\n  swap2\n  swap1\n  0x01\n  add\n  swap1\n  jump(tag_12)\ntag_13:\ntag_10:\n  pop\n  swap1\n  pop\n  tag_14\n  swap2\n  swap1\n  tag_15\n  jump\t// in\ntag_14:\n  pop\n  swap1\n  jump\t// out\ntag_15:\n  tag_16\n  swap2\n  swap1\ntag_17:\n  dup1\n  dup3\n  gt\n  iszero\n  tag_18\n  jumpi\n  0x00\n  dup2\n  0x00\n  swap1\n  sstore\n  pop\n  0x01\n  add\n  jump(tag_17)\ntag_18:\n  pop\n  swap1\n  jump\ntag_16:\n  swap1\n  jump\t// out\n    /* \"--CODEGEN--\":5:139   */\ntag_20:\n  0x00\n    /* \"--CODEGEN--\":89:95   */\n  dup2\n    /* \"--CODEGEN--\":83:96   */\n  mload\n    /* \"--CODEGEN--\":74:96   */\n  swap1\n  pop\n    /* \"--CODEGEN--\":101:134   */\n  tag_22\n    /* \"--CODEGEN--\":128:133   */\n  dup2\n    /* \"--CODEGEN--\":101:134   */\n  jump(tag_23)\ntag_22:\n    /* \"--CODEGEN--\":68:139   */\n  swap3\n  swap2\n  pop\n  pop\n  jump\n    /* \"--CODEGEN--\":146:545   */\ntag_6:\n  0x00\n  dup1\n    /* \"--CODEGEN--\":278:280   */\n  0x40\n    /* \"--CODEGEN--\":266:275   */\n  dup4\n    /* \"--CODEGEN--\":257:264   */\n  dup6\n    /* \"--CODEGEN--\":253:276   */\n  sub\n    /* \"--CODEGEN--\":249:281   */\n  slt\n    /* \"--CODEGEN--\":246:248   */\n  iszero\n  tag_25\n  jumpi\n    /* \"--CODEGEN--\":294:295   */\n  0x00\n    /* \"--CODEGEN--\":291:292   */\n  dup1\n    /* \"--CODEGEN--\":284:296   */\n  revert\n    /* \"--CODEGEN--\":246:248   */\ntag_25:\n    /* \"--CODEGEN--\":329:330   */\n  0x00\n    /* \"--CODEGEN--\":346:410   */\n  tag_26\n    /* \"--CODEGEN--\":402:409   */\n  dup6\n    /* \"--CODEGEN--\":393:399   */\n  dup3\n    /* \"--CODEGEN--\":382:391   */\n  dup7\n    /* \"--CODEGEN--\":378:400   */\n  add\n    /* \"--CODEGEN--\":346:410   */\n  jump(tag_20)\ntag_26:\n    /* \"--CODEGEN--\":336:410   */\n  swap3\n  pop\n    /* \"--CODEGEN--\":308:416   */\n  pop\n    /* \"--CODEGEN--\":447:449   */\n  0x20\n    /* \"--CODEGEN--\":465:529   */\n  tag_27\n    /* \"--CODEGEN--\":521:528   */\n  dup6\n    /* \"--CODEGEN--\":512:518   */\n  dup3\n    /* \"--CODEGEN--\":501:510   */\n  dup7\n    /* \"--CODEGEN--\":497:519   */\n  add\n    /* \"--CODEGEN--\":465:529   */\n  jump(tag_20)\ntag_27:\n    /* \"--CODEGEN--\":455:529   */\n  swap2\n  pop\n    /* \"--CODEGEN--\":426:535   */\n  pop\n    /* \"--CODEGEN--\":240:545   */\n  swap3\n  pop\n  swap3\n  swap1\n  pop\n  jump\n    /* \"--CODEGEN--\":552:624   */\ntag_28:\n  0x00\n    /* \"--CODEGEN--\":614:619   */\n  dup2\n    /* \"--CODEGEN--\":603:619   */\n  swap1\n  pop\n    /* \"--CODEGEN--\":597:624   */\n  swap2\n  swap1\n  pop\n  jump\n    /* \"--CODEGEN--\":631:748   */\ntag_23:\n    /* \"--CODEGEN--\":700:724   */\n  tag_31\n    /* \"--CODEGEN--\":718:723   */\n  dup2\n    /* \"--CODEGEN--\":700:724   */\n  jump(tag_28)\ntag_31:\n    /* \"--CODEGEN--\":693:698   */\n  dup2\n    /* \"--CODEGEN--\":690:725   */\n  eq\n    /* \"--CODEGEN--\":680:682   */\n  tag_32\n  jumpi\n    /* \"--CODEGEN--\":739:740   */\n  0x00\n    /* \"--CODEGEN--\":736:737   */\n  dup1\n    /* \"--CODEGEN--\":729:741   */\n  revert\n    /* \"--CODEGEN--\":680:682   */\ntag_32:\n    /* \"--CODEGEN--\":674:748   */\n  pop\n  jump\n    /* \"contracts/demo2.sol\":81:5301  contract demo2 {\r... */\ntag_9:\n  dataSize(sub_0)\n  dup1\n  dataOffset(sub_0)\n  0x00\n  codecopy\n  0x00\n  return\nstop\ndata_4887836e294a2761413359597244d307bbe3f94827f6160d9e1a399e00e2d1be 4e414c4548484a534744534447484a534448535548444a5348444a53484a53484a534844534a44484a4f4e47564f\ndata_c359735a342ece061e65ab7390d246d1e53ba5f24eea70d6201f1d4a7b2f3475 7364664e417364667364664c4548484a5347445348444a53484a53484a534844534a44484a4f4e47564f\n\nsub_0: assembly {\n        /* \"contracts/demo2.sol\":81:5301  contract demo2 {\r... */\n      mstore(0x40, 0x80)\n      callvalue\n        /* \"--CODEGEN--\":5:14   */\n      dup1\n        /* \"--CODEGEN--\":2:4   */\n      iszero\n      tag_1\n      jumpi\n        /* \"--CODEGEN--\":27:28   */\n      0x00\n        /* \"--CODEGEN--\":24:25   */\n      dup1\n        /* \"--CODEGEN--\":17:29   */\n      revert\n        /* \"--CODEGEN--\":2:4   */\n    tag_1:\n        /* \"contracts/demo2.sol\":81:5301  contract demo2 {\r... */\n      pop\n      jumpi(tag_2, lt(calldatasize, 0x04))\n      shr(0xe0, calldataload(0x00))\n      dup1\n      0x3bc5de30\n      eq\n      tag_3\n      jumpi\n      dup1\n      0x9ffd85c4\n      eq\n      tag_4\n      jumpi\n      dup1\n      0xa699fb03\n      eq\n      tag_5\n      jumpi\n      dup1\n      0xe3a7fd75\n      eq\n      tag_6\n      jumpi\n      dup1\n      0xfc26b0ab\n      eq\n      tag_7\n      jumpi\n    tag_2:\n        /* \"--CODEGEN--\":12:13   */\n      0x00\n        /* \"--CODEGEN--\":9:10   */\n      dup1\n        /* \"--CODEGEN--\":2:14   */\n      revert\n        /* \"contracts/demo2.sol\":1114:1210  function getData() public view returns(uint) {\r... */\n    tag_3:\n      tag_8\n      tag_9\n      jump\t// in\n    tag_8:\n      mload(0x40)\n      tag_10\n      swap2\n      swap1\n      jump(tag_11)\n    tag_10:\n      mload(0x40)\n      dup1\n      swap2\n      sub\n      swap1\n      return\n        /* \"contracts/demo2.sol\":107:176  bytes public data1 = \"NALEHHJSGDSDGHJSDHSUHDJSHDJSHJSHJSHDSJDHJONGVO\" */\n    tag_4:\n      tag_12\n      tag_13\n      jump\t// in\n    tag_12:\n      mload(0x40)\n      tag_14\n      swap2\n      swap1\n      jump(tag_15)\n    tag_14:\n      mload(0x40)\n      dup1\n      swap2\n      sub\n      swap1\n      return\n        /* \"contracts/demo2.sol\":929:951  RLPItem public rlpItem */\n    tag_5:\n      tag_16\n      tag_17\n      jump\t// in\n    tag_16:\n      mload(0x40)\n      tag_18\n      swap3\n      swap2\n      swap1\n      jump(tag_19)\n    tag_18:\n      mload(0x40)\n      dup1\n      swap2\n      sub\n      swap1\n      return\n        /* \"contracts/demo2.sol\":263:310  bytes32 public data2 = \"LEHONGVOwjnfvj3weh8vKJ\" */\n    tag_6:\n      tag_20\n      tag_21\n      jump\t// in\n    tag_20:\n      mload(0x40)\n      tag_22\n      swap2\n      swap1\n      jump(tag_23)\n    tag_22:\n      mload(0x40)\n      dup1\n      swap2\n      sub\n      swap1\n      return\n        /* \"contracts/demo2.sol\":187:252  bytes public data3 = \"sdfNAsdfsdfLEHHJSGDSHDJSHJSHJSHDSJDHJONGVO\" */\n    tag_7:\n      tag_24\n      tag_25\n      jump\t// in\n    tag_24:\n      mload(0x40)\n      tag_26\n      swap2\n      swap1\n      jump(tag_15)\n    tag_26:\n      mload(0x40)\n      dup1\n      swap2\n      sub\n      swap1\n      return\n        /* \"contracts/demo2.sol\":1114:1210  function getData() public view returns(uint) {\r... */\n    tag_9:\n        /* \"contracts/demo2.sol\":1153:1157  uint */\n      0x00\n        /* \"contracts/demo2.sol\":1181:1198  numItems(rlpItem) */\n      tag_28\n        /* \"contracts/demo2.sol\":1190:1197  rlpItem */\n      0x03\n        /* \"contracts/demo2.sol\":1181:1198  numItems(rlpItem) */\n      mload(0x40)\n      dup1\n      0x40\n      add\n      0x40\n      mstore\n      swap1\n      dup2\n      0x00\n      dup3\n      add\n      sload\n      dup2\n      mstore\n      0x20\n      add\n      0x01\n      dup3\n      add\n      sload\n      dup2\n      mstore\n      pop\n      pop\n        /* \"contracts/demo2.sol\":1181:1189  numItems */\n      tag_29\n        /* \"contracts/demo2.sol\":1181:1198  numItems(rlpItem) */\n      jump\t// in\n    tag_28:\n        /* \"contracts/demo2.sol\":1174:1198  return numItems(rlpItem) */\n      swap1\n      pop\n        /* \"contracts/demo2.sol\":1114:1210  function getData() public view returns(uint) {\r... */\n      swap1\n      jump\t// out\n        /* \"contracts/demo2.sol\":107:176  bytes public data1 = \"NALEHHJSGDSDGHJSDHSUHDJSHDJSHJSHJSHDSJDHJONGVO\" */\n    tag_13:\n      0x00\n      dup1\n      sload\n      0x01\n      dup2\n      0x01\n      and\n      iszero\n      0x0100\n      mul\n      sub\n      and\n      0x02\n      swap1\n      div\n      dup1\n      0x1f\n      add\n      0x20\n      dup1\n      swap2\n      div\n      mul\n      0x20\n      add\n      mload(0x40)\n      swap1\n      dup2\n      add\n      0x40\n      mstore\n      dup1\n      swap3\n      swap2\n      swap1\n      dup2\n      dup2\n      mstore\n      0x20\n      add\n      dup3\n      dup1\n      sload\n      0x01\n      dup2\n      0x01\n      and\n      iszero\n      0x0100\n      mul\n      sub\n      and\n      0x02\n      swap1\n      div\n      dup1\n      iszero\n      tag_30\n      jumpi\n      dup1\n      0x1f\n      lt\n      tag_31\n      jumpi\n      0x0100\n      dup1\n      dup4\n      sload\n      div\n      mul\n      dup4\n      mstore\n      swap2\n      0x20\n      add\n      swap2\n      jump(tag_30)\n    tag_31:\n      dup3\n      add\n      swap2\n      swap1\n      0x00\n      mstore\n      keccak256(0x00, 0x20)\n      swap1\n    tag_32:\n      dup2\n      sload\n      dup2\n      mstore\n      swap1\n      0x01\n      add\n      swap1\n      0x20\n      add\n      dup1\n      dup4\n      gt\n      tag_32\n      jumpi\n      dup3\n      swap1\n      sub\n      0x1f\n      and\n      dup3\n      add\n      swap2\n    tag_30:\n      pop\n      pop\n      pop\n      pop\n      pop\n      dup2\n      jump\t// out\n        /* \"contracts/demo2.sol\":929:951  RLPItem public rlpItem */\n    tag_17:\n      0x03\n      dup1\n      0x00\n      add\n      sload\n      swap1\n      dup1\n      0x01\n      add\n      sload\n      swap1\n      pop\n      dup3\n      jump\t// out\n        /* \"contracts/demo2.sol\":263:310  bytes32 public data2 = \"LEHONGVOwjnfvj3weh8vKJ\" */\n    tag_21:\n      sload(0x02)\n      dup2\n      jump\t// out\n        /* \"contracts/demo2.sol\":187:252  bytes public data3 = \"sdfNAsdfsdfLEHHJSGDSHDJSHJSHJSHDSJDHJONGVO\" */\n    tag_25:\n      0x01\n      dup1\n      sload\n      0x01\n      dup2\n      0x01\n      and\n      iszero\n      0x0100\n      mul\n      sub\n      and\n      0x02\n      swap1\n      div\n      dup1\n      0x1f\n      add\n      0x20\n      dup1\n      swap2\n      div\n      mul\n      0x20\n      add\n      mload(0x40)\n      swap1\n      dup2\n      add\n      0x40\n      mstore\n      dup1\n      swap3\n      swap2\n      swap1\n      dup2\n      dup2\n      mstore\n      0x20\n      add\n      dup3\n      dup1\n      sload\n      0x01\n      dup2\n      0x01\n      and\n      iszero\n      0x0100\n      mul\n      sub\n      and\n      0x02\n      swap1\n      div\n      dup1\n      iszero\n      tag_33\n      jumpi\n      dup1\n      0x1f\n      lt\n      tag_34\n      jumpi\n      0x0100\n      dup1\n      dup4\n      sload\n      div\n      mul\n      dup4\n      mstore\n      swap2\n      0x20\n      add\n      swap2\n      jump(tag_33)\n    tag_34:\n      dup3\n      add\n      swap2\n      swap1\n      0x00\n      mstore\n      keccak256(0x00, 0x20)\n      swap1\n    tag_35:\n      dup2\n      sload\n      dup2\n      mstore\n      swap1\n      0x01\n      add\n      swap1\n      0x20\n      add\n      dup1\n      dup4\n      gt\n      tag_35\n      jumpi\n      dup3\n      swap1\n      sub\n      0x1f\n      and\n      dup3\n      add\n      swap2\n    tag_33:\n      pop\n      pop\n      pop\n      pop\n      pop\n      dup2\n      jump\t// out\n        /* \"contracts/demo2.sol\":1743:2203  function numItems(RLPItem memory item) private pure returns (uint) {\r... */\n    tag_29:\n        /* \"contracts/demo2.sol\":1804:1808  uint */\n      0x00\n        /* \"contracts/demo2.sol\":1841:1842  0 */\n      dup1\n        /* \"contracts/demo2.sol\":1829:1833  item */\n      dup3\n        /* \"contracts/demo2.sol\":1829:1837  item.len */\n      0x00\n      add\n      mload\n        /* \"contracts/demo2.sol\":1829:1842  item.len == 0 */\n      eq\n        /* \"contracts/demo2.sol\":1825:1852  if (item.len == 0) return 0 */\n      iszero\n      tag_37\n      jumpi\n        /* \"contracts/demo2.sol\":1851:1852  0 */\n      0x00\n        /* \"contracts/demo2.sol\":1844:1852  return 0 */\n      swap1\n      pop\n      jump(tag_36)\n        /* \"contracts/demo2.sol\":1825:1852  if (item.len == 0) return 0 */\n    tag_37:\n        /* \"contracts/demo2.sol\":1867:1877  uint count */\n      0x00\n        /* \"contracts/demo2.sol\":1880:1881  0 */\n      dup1\n        /* \"contracts/demo2.sol\":1867:1881  uint count = 0 */\n      swap1\n      pop\n        /* \"contracts/demo2.sol\":1896:1908  uint currPtr */\n      0x00\n        /* \"contracts/demo2.sol\":1925:1952  _payloadOffset(item.memPtr) */\n      tag_38\n        /* \"contracts/demo2.sol\":1940:1944  item */\n      dup5\n        /* \"contracts/demo2.sol\":1940:1951  item.memPtr */\n      0x20\n      add\n      mload\n        /* \"contracts/demo2.sol\":1925:1939  _payloadOffset */\n      tag_39\n        /* \"contracts/demo2.sol\":1925:1952  _payloadOffset(item.memPtr) */\n      jump\t// in\n    tag_38:\n        /* \"contracts/demo2.sol\":1911:1915  item */\n      dup5\n        /* \"contracts/demo2.sol\":1911:1922  item.memPtr */\n      0x20\n      add\n      mload\n        /* \"contracts/demo2.sol\":1911:1952  item.memPtr + _payloadOffset(item.memPtr) */\n      add\n        /* \"contracts/demo2.sol\":1896:1952  uint currPtr = item.memPtr + _payloadOffset(item.memPtr) */\n      swap1\n      pop\n        /* \"contracts/demo2.sol\":1967:1978  uint endPtr */\n      0x00\n        /* \"contracts/demo2.sol\":1995:1999  item */\n      dup5\n        /* \"contracts/demo2.sol\":1995:2003  item.len */\n      0x00\n      add\n      mload\n        /* \"contracts/demo2.sol\":1981:1985  item */\n      dup6\n        /* \"contracts/demo2.sol\":1981:1992  item.memPtr */\n      0x20\n      add\n      mload\n        /* \"contracts/demo2.sol\":1981:2003  item.memPtr + item.len */\n      add\n        /* \"contracts/demo2.sol\":1967:2003  uint endPtr = item.memPtr + item.len */\n      swap1\n      pop\n        /* \"contracts/demo2.sol\":2018:2165  while (currPtr < endPtr) {\r... */\n    tag_40:\n        /* \"contracts/demo2.sol\":2035:2041  endPtr */\n      dup1\n        /* \"contracts/demo2.sol\":2025:2032  currPtr */\n      dup3\n        /* \"contracts/demo2.sol\":2025:2041  currPtr < endPtr */\n      lt\n        /* \"contracts/demo2.sol\":2018:2165  while (currPtr < endPtr) {\r... */\n      iszero\n      tag_41\n      jumpi\n        /* \"contracts/demo2.sol\":2082:2102  _itemLength(currPtr) */\n      tag_42\n        /* \"contracts/demo2.sol\":2094:2101  currPtr */\n      dup3\n        /* \"contracts/demo2.sol\":2082:2093  _itemLength */\n      tag_43\n        /* \"contracts/demo2.sol\":2082:2102  _itemLength(currPtr) */\n      jump\t// in\n    tag_42:\n        /* \"contracts/demo2.sol\":2072:2079  currPtr */\n      dup3\n        /* \"contracts/demo2.sol\":2072:2102  currPtr + _itemLength(currPtr) */\n      add\n        /* \"contracts/demo2.sol\":2062:2102  currPtr = currPtr + _itemLength(currPtr) */\n      swap2\n      pop\n        /* \"contracts/demo2.sol\":2142:2149  count++ */\n      dup3\n      dup1\n      0x01\n      add\n      swap4\n      pop\n      pop\n        /* \"contracts/demo2.sol\":2018:2165  while (currPtr < endPtr) {\r... */\n      jump(tag_40)\n    tag_41:\n        /* \"contracts/demo2.sol\":2186:2191  count */\n      dup3\n        /* \"contracts/demo2.sol\":2179:2191  return count */\n      swap4\n      pop\n      pop\n      pop\n      pop\n        /* \"contracts/demo2.sol\":1743:2203  function numItems(RLPItem memory item) private pure returns (uint) {\r... */\n    tag_36:\n      swap2\n      swap1\n      pop\n      jump\t// out\n        /* \"contracts/demo2.sol\":3893:4496  function _payloadOffset(uint memPtr) private pure returns (uint) {\r... */\n    tag_39:\n        /* \"contracts/demo2.sol\":3952:3956  uint */\n      0x00\n        /* \"contracts/demo2.sol\":3973:3983  uint byte0 */\n      dup1\n        /* \"contracts/demo2.sol\":4049:4055  memPtr */\n      dup3\n        /* \"contracts/demo2.sol\":4043:4056  mload(memPtr) */\n      mload\n        /* \"contracts/demo2.sol\":4040:4041  0 */\n      0x00\n        /* \"contracts/demo2.sol\":4035:4057  byte(0, mload(memPtr)) */\n      byte\n        /* \"contracts/demo2.sol\":4026:4057  byte0 := byte(0, mload(memPtr)) */\n      swap1\n      pop\n        /* \"contracts/demo2.sol\":447:451  0x80 */\n      0x80\n        /* \"contracts/demo2.sol\":4092:4118  byte0 < STRING_SHORT_START */\n      0xff\n      and\n        /* \"contracts/demo2.sol\":4092:4097  byte0 */\n      dup2\n        /* \"contracts/demo2.sol\":4092:4118  byte0 < STRING_SHORT_START */\n      lt\n        /* \"contracts/demo2.sol\":4088:4484  if (byte0 < STRING_SHORT_START)\r... */\n      iszero\n      tag_45\n      jumpi\n        /* \"contracts/demo2.sol\":4144:4145  0 */\n      0x00\n        /* \"contracts/demo2.sol\":4137:4145  return 0 */\n      swap2\n      pop\n      pop\n      jump(tag_44)\n        /* \"contracts/demo2.sol\":4088:4484  if (byte0 < STRING_SHORT_START)\r... */\n    tag_45:\n        /* \"contracts/demo2.sol\":498:502  0xb8 */\n      0xb8\n        /* \"contracts/demo2.sol\":4169:4194  byte0 < STRING_LONG_START */\n      0xff\n      and\n        /* \"contracts/demo2.sol\":4169:4174  byte0 */\n      dup2\n        /* \"contracts/demo2.sol\":4169:4194  byte0 < STRING_LONG_START */\n      lt\n        /* \"contracts/demo2.sol\":4169:4252  byte0 < STRING_LONG_START || (byte0 >= LIST_SHORT_START && byte0 < LIST_LONG_START) */\n      dup1\n      tag_47\n      jumpi\n      pop\n        /* \"contracts/demo2.sol\":549:553  0xc0 */\n      0xc0\n        /* \"contracts/demo2.sol\":4199:4224  byte0 >= LIST_SHORT_START */\n      0xff\n      and\n        /* \"contracts/demo2.sol\":4199:4204  byte0 */\n      dup2\n        /* \"contracts/demo2.sol\":4199:4224  byte0 >= LIST_SHORT_START */\n      lt\n      iszero\n        /* \"contracts/demo2.sol\":4199:4251  byte0 >= LIST_SHORT_START && byte0 < LIST_LONG_START */\n      dup1\n      iszero\n      tag_48\n      jumpi\n      pop\n        /* \"contracts/demo2.sol\":600:604  0xf8 */\n      0xf8\n        /* \"contracts/demo2.sol\":4228:4251  byte0 < LIST_LONG_START */\n      0xff\n      and\n        /* \"contracts/demo2.sol\":4228:4233  byte0 */\n      dup2\n        /* \"contracts/demo2.sol\":4228:4251  byte0 < LIST_LONG_START */\n      lt\n        /* \"contracts/demo2.sol\":4199:4251  byte0 >= LIST_SHORT_START && byte0 < LIST_LONG_START */\n    tag_48:\n        /* \"contracts/demo2.sol\":4169:4252  byte0 < STRING_LONG_START || (byte0 >= LIST_SHORT_START && byte0 < LIST_LONG_START) */\n    tag_47:\n        /* \"contracts/demo2.sol\":4165:4484  if (byte0 < STRING_LONG_START || (byte0 >= LIST_SHORT_START && byte0 < LIST_LONG_START))\r... */\n      iszero\n      tag_49\n      jumpi\n        /* \"contracts/demo2.sol\":4278:4279  1 */\n      0x01\n        /* \"contracts/demo2.sol\":4271:4279  return 1 */\n      swap2\n      pop\n      pop\n      jump(tag_44)\n        /* \"contracts/demo2.sol\":4165:4484  if (byte0 < STRING_LONG_START || (byte0 >= LIST_SHORT_START && byte0 < LIST_LONG_START))\r... */\n    tag_49:\n        /* \"contracts/demo2.sol\":549:553  0xc0 */\n      0xc0\n        /* \"contracts/demo2.sol\":4303:4327  byte0 < LIST_SHORT_START */\n      0xff\n      and\n        /* \"contracts/demo2.sol\":4303:4308  byte0 */\n      dup2\n        /* \"contracts/demo2.sol\":4303:4327  byte0 < LIST_SHORT_START */\n      lt\n        /* \"contracts/demo2.sol\":4299:4484  if (byte0 < LIST_SHORT_START)  // being explicit\r... */\n      iszero\n      tag_51\n      jumpi\n        /* \"contracts/demo2.sol\":4406:4407  1 */\n      0x01\n        /* \"contracts/demo2.sol\":4401:4402  1 */\n      dup1\n        /* \"contracts/demo2.sol\":498:502  0xb8 */\n      0xb8\n        /* \"contracts/demo2.sol\":4381:4402  STRING_LONG_START - 1 */\n      sub\n        /* \"contracts/demo2.sol\":4372:4403  byte0 - (STRING_LONG_START - 1) */\n      0xff\n      and\n        /* \"contracts/demo2.sol\":4372:4377  byte0 */\n      dup3\n        /* \"contracts/demo2.sol\":4372:4403  byte0 - (STRING_LONG_START - 1) */\n      sub\n        /* \"contracts/demo2.sol\":4372:4407  byte0 - (STRING_LONG_START - 1) + 1 */\n      add\n        /* \"contracts/demo2.sol\":4365:4407  return byte0 - (STRING_LONG_START - 1) + 1 */\n      swap2\n      pop\n      pop\n      jump(tag_44)\n        /* \"contracts/demo2.sol\":4299:4484  if (byte0 < LIST_SHORT_START)  // being explicit\r... */\n    tag_51:\n        /* \"contracts/demo2.sol\":4483:4484  1 */\n      0x01\n        /* \"contracts/demo2.sol\":4478:4479  1 */\n      dup1\n        /* \"contracts/demo2.sol\":600:604  0xf8 */\n      0xf8\n        /* \"contracts/demo2.sol\":4460:4479  LIST_LONG_START - 1 */\n      sub\n        /* \"contracts/demo2.sol\":4451:4480  byte0 - (LIST_LONG_START - 1) */\n      0xff\n      and\n        /* \"contracts/demo2.sol\":4451:4456  byte0 */\n      dup3\n        /* \"contracts/demo2.sol\":4451:4480  byte0 - (LIST_LONG_START - 1) */\n      sub\n        /* \"contracts/demo2.sol\":4451:4484  byte0 - (LIST_LONG_START - 1) + 1 */\n      add\n        /* \"contracts/demo2.sol\":4444:4484  return byte0 - (LIST_LONG_START - 1) + 1 */\n      swap2\n      pop\n      pop\n        /* \"contracts/demo2.sol\":3893:4496  function _payloadOffset(uint memPtr) private pure returns (uint) {\r... */\n    tag_44:\n      swap2\n      swap1\n      pop\n      jump\t// out\n        /* \"contracts/demo2.sol\":2215:3829  function _itemLength(uint memPtr) private pure returns (uint) {\r... */\n    tag_43:\n        /* \"contracts/demo2.sol\":2271:2275  uint */\n      0x00\n        /* \"contracts/demo2.sol\":2292:2304  uint itemLen */\n      dup1\n        /* \"contracts/demo2.sol\":2319:2329  uint byte0 */\n      0x00\n        /* \"contracts/demo2.sol\":2395:2401  memPtr */\n      dup4\n        /* \"contracts/demo2.sol\":2389:2402  mload(memPtr) */\n      mload\n        /* \"contracts/demo2.sol\":2386:2387  0 */\n      0x00\n        /* \"contracts/demo2.sol\":2381:2403  byte(0, mload(memPtr)) */\n      byte\n        /* \"contracts/demo2.sol\":2372:2403  byte0 := byte(0, mload(memPtr)) */\n      swap1\n      pop\n        /* \"contracts/demo2.sol\":447:451  0x80 */\n      0x80\n        /* \"contracts/demo2.sol\":2438:2464  byte0 < STRING_SHORT_START */\n      0xff\n      and\n        /* \"contracts/demo2.sol\":2438:2443  byte0 */\n      dup2\n        /* \"contracts/demo2.sol\":2438:2464  byte0 < STRING_SHORT_START */\n      lt\n        /* \"contracts/demo2.sol\":2434:3787  if (byte0 < STRING_SHORT_START)\r... */\n      iszero\n      tag_54\n      jumpi\n        /* \"contracts/demo2.sol\":2493:2494  1 */\n      0x01\n        /* \"contracts/demo2.sol\":2483:2494  itemLen = 1 */\n      swap2\n      pop\n        /* \"contracts/demo2.sol\":2434:3787  if (byte0 < STRING_SHORT_START)\r... */\n      jump(tag_55)\n    tag_54:\n        /* \"contracts/demo2.sol\":498:502  0xb8 */\n      0xb8\n        /* \"contracts/demo2.sol\":2520:2545  byte0 < STRING_LONG_START */\n      0xff\n      and\n        /* \"contracts/demo2.sol\":2520:2525  byte0 */\n      dup2\n        /* \"contracts/demo2.sol\":2520:2545  byte0 < STRING_LONG_START */\n      lt\n        /* \"contracts/demo2.sol\":2516:3787  if (byte0 < STRING_LONG_START)\r... */\n      iszero\n      tag_56\n      jumpi\n        /* \"contracts/demo2.sol\":2603:2604  1 */\n      0x01\n        /* \"contracts/demo2.sol\":447:451  0x80 */\n      0x80\n        /* \"contracts/demo2.sol\":2574:2600  byte0 - STRING_SHORT_START */\n      0xff\n      and\n        /* \"contracts/demo2.sol\":2574:2579  byte0 */\n      dup3\n        /* \"contracts/demo2.sol\":2574:2600  byte0 - STRING_SHORT_START */\n      sub\n        /* \"contracts/demo2.sol\":2574:2604  byte0 - STRING_SHORT_START + 1 */\n      add\n        /* \"contracts/demo2.sol\":2564:2604  itemLen = byte0 - STRING_SHORT_START + 1 */\n      swap2\n      pop\n        /* \"contracts/demo2.sol\":2516:3787  if (byte0 < STRING_LONG_START)\r... */\n      jump(tag_57)\n    tag_56:\n        /* \"contracts/demo2.sol\":549:553  0xc0 */\n      0xc0\n        /* \"contracts/demo2.sol\":2630:2654  byte0 < LIST_SHORT_START */\n      0xff\n      and\n        /* \"contracts/demo2.sol\":2630:2635  byte0 */\n      dup2\n        /* \"contracts/demo2.sol\":2630:2654  byte0 < LIST_SHORT_START */\n      lt\n        /* \"contracts/demo2.sol\":2626:3787  if (byte0 < LIST_SHORT_START) {\r... */\n      iszero\n      tag_58\n      jumpi\n        /* \"contracts/demo2.sol\":2675:2687  uint dataLen */\n      0x00\n        /* \"contracts/demo2.sol\":2764:2768  0xb7 */\n      0xb7\n        /* \"contracts/demo2.sol\":2757:2762  byte0 */\n      dup3\n        /* \"contracts/demo2.sol\":2753:2769  sub(byte0, 0xb7) */\n      sub\n        /* \"contracts/demo2.sol\":2848:2849  1 */\n      0x01\n        /* \"contracts/demo2.sol\":2840:2846  memPtr */\n      dup7\n        /* \"contracts/demo2.sol\":2836:2850  add(memPtr, 1) */\n      add\n        /* \"contracts/demo2.sol\":2826:2850  memPtr := add(memPtr, 1) */\n      swap6\n      pop\n        /* \"contracts/demo2.sol\":2994:3001  byteLen */\n      dup1\n        /* \"contracts/demo2.sol\":2990:2992  32 */\n      0x20\n        /* \"contracts/demo2.sol\":2986:3002  sub(32, byteLen) */\n      sub\n        /* \"contracts/demo2.sol\":2981:2984  256 */\n      0x0100\n        /* \"contracts/demo2.sol\":2977:3003  exp(256, sub(32, byteLen)) */\n      exp\n        /* \"contracts/demo2.sol\":2968:2974  memPtr */\n      dup7\n        /* \"contracts/demo2.sol\":2962:2975  mload(memPtr) */\n      mload\n        /* \"contracts/demo2.sol\":2958:3004  div(mload(memPtr), exp(256, sub(32, byteLen))) */\n      div\n        /* \"contracts/demo2.sol\":2947:3004  dataLen := div(mload(memPtr), exp(256, sub(32, byteLen))) */\n      swap2\n      pop\n        /* \"contracts/demo2.sol\":3096:3097  1 */\n      0x01\n        /* \"contracts/demo2.sol\":3087:3094  byteLen */\n      dup2\n        /* \"contracts/demo2.sol\":3083:3098  add(byteLen, 1) */\n      add\n        /* \"contracts/demo2.sol\":3074:3081  dataLen */\n      dup3\n        /* \"contracts/demo2.sol\":3070:3099  add(dataLen, add(byteLen, 1)) */\n      add\n        /* \"contracts/demo2.sol\":3059:3099  itemLen := add(dataLen, add(byteLen, 1)) */\n      swap4\n      pop\n        /* \"contracts/demo2.sol\":2715:3118  {\r... */\n      pop\n        /* \"contracts/demo2.sol\":3155:3162  dataLen */\n      dup1\n        /* \"contracts/demo2.sol\":3144:3151  itemLen */\n      dup4\n        /* \"contracts/demo2.sol\":3144:3162  itemLen >= dataLen */\n      lt\n      iszero\n        /* \"contracts/demo2.sol\":3136:3184  require(itemLen >= dataLen, \"addition overflow\") */\n      tag_59\n      jumpi\n      mload(0x40)\n      0x08c379a000000000000000000000000000000000000000000000000000000000\n      dup2\n      mstore\n      0x04\n      add\n      tag_60\n      swap1\n      jump(tag_61)\n    tag_60:\n      mload(0x40)\n      dup1\n      swap2\n      sub\n      swap1\n      revert\n    tag_59:\n        /* \"contracts/demo2.sol\":2626:3787  if (byte0 < LIST_SHORT_START) {\r... */\n      pop\n      jump(tag_62)\n    tag_58:\n        /* \"contracts/demo2.sol\":600:604  0xf8 */\n      0xf8\n        /* \"contracts/demo2.sol\":3225:3248  byte0 < LIST_LONG_START */\n      0xff\n      and\n        /* \"contracts/demo2.sol\":3225:3230  byte0 */\n      dup2\n        /* \"contracts/demo2.sol\":3225:3248  byte0 < LIST_LONG_START */\n      lt\n        /* \"contracts/demo2.sol\":3221:3787  if (byte0 < LIST_LONG_START) {\r... */\n      iszero\n      tag_63\n      jumpi\n        /* \"contracts/demo2.sol\":3306:3307  1 */\n      0x01\n        /* \"contracts/demo2.sol\":549:553  0xc0 */\n      0xc0\n        /* \"contracts/demo2.sol\":3279:3303  byte0 - LIST_SHORT_START */\n      0xff\n      and\n        /* \"contracts/demo2.sol\":3279:3284  byte0 */\n      dup3\n        /* \"contracts/demo2.sol\":3279:3303  byte0 - LIST_SHORT_START */\n      sub\n        /* \"contracts/demo2.sol\":3279:3307  byte0 - LIST_SHORT_START + 1 */\n      add\n        /* \"contracts/demo2.sol\":3269:3307  itemLen = byte0 - LIST_SHORT_START + 1 */\n      swap2\n      pop\n        /* \"contracts/demo2.sol\":3221:3787  if (byte0 < LIST_LONG_START) {\r... */\n      jump(tag_64)\n    tag_63:\n        /* \"contracts/demo2.sol\":3363:3375  uint dataLen */\n      0x00\n        /* \"contracts/demo2.sol\":3452:3456  0xf7 */\n      0xf7\n        /* \"contracts/demo2.sol\":3445:3450  byte0 */\n      dup3\n        /* \"contracts/demo2.sol\":3441:3457  sub(byte0, 0xf7) */\n      sub\n        /* \"contracts/demo2.sol\":3501:3502  1 */\n      0x01\n        /* \"contracts/demo2.sol\":3493:3499  memPtr */\n      dup7\n        /* \"contracts/demo2.sol\":3489:3503  add(memPtr, 1) */\n      add\n        /* \"contracts/demo2.sol\":3479:3503  memPtr := add(memPtr, 1) */\n      swap6\n      pop\n        /* \"contracts/demo2.sol\":3574:3581  byteLen */\n      dup1\n        /* \"contracts/demo2.sol\":3570:3572  32 */\n      0x20\n        /* \"contracts/demo2.sol\":3566:3582  sub(32, byteLen) */\n      sub\n        /* \"contracts/demo2.sol\":3561:3564  256 */\n      0x0100\n        /* \"contracts/demo2.sol\":3557:3583  exp(256, sub(32, byteLen)) */\n      exp\n        /* \"contracts/demo2.sol\":3548:3554  memPtr */\n      dup7\n        /* \"contracts/demo2.sol\":3542:3555  mload(memPtr) */\n      mload\n        /* \"contracts/demo2.sol\":3538:3584  div(mload(memPtr), exp(256, sub(32, byteLen))) */\n      div\n        /* \"contracts/demo2.sol\":3527:3584  dataLen := div(mload(memPtr), exp(256, sub(32, byteLen))) */\n      swap2\n      pop\n        /* \"contracts/demo2.sol\":3683:3684  1 */\n      0x01\n        /* \"contracts/demo2.sol\":3674:3681  byteLen */\n      dup2\n        /* \"contracts/demo2.sol\":3670:3685  add(byteLen, 1) */\n      add\n        /* \"contracts/demo2.sol\":3661:3668  dataLen */\n      dup3\n        /* \"contracts/demo2.sol\":3657:3686  add(dataLen, add(byteLen, 1)) */\n      add\n        /* \"contracts/demo2.sol\":3646:3686  itemLen := add(dataLen, add(byteLen, 1)) */\n      swap4\n      pop\n        /* \"contracts/demo2.sol\":3403:3705  {\r... */\n      pop\n        /* \"contracts/demo2.sol\":3742:3749  dataLen */\n      dup1\n        /* \"contracts/demo2.sol\":3731:3738  itemLen */\n      dup4\n        /* \"contracts/demo2.sol\":3731:3749  itemLen >= dataLen */\n      lt\n      iszero\n        /* \"contracts/demo2.sol\":3723:3771  require(itemLen >= dataLen, \"addition overflow\") */\n      tag_65\n      jumpi\n      mload(0x40)\n      0x08c379a000000000000000000000000000000000000000000000000000000000\n      dup2\n      mstore\n      0x04\n      add\n      tag_66\n      swap1\n      jump(tag_61)\n    tag_66:\n      mload(0x40)\n      dup1\n      swap2\n      sub\n      swap1\n      revert\n    tag_65:\n        /* \"contracts/demo2.sol\":3221:3787  if (byte0 < LIST_LONG_START) {\r... */\n      pop\n    tag_64:\n        /* \"contracts/demo2.sol\":2626:3787  if (byte0 < LIST_SHORT_START) {\r... */\n    tag_62:\n        /* \"contracts/demo2.sol\":2516:3787  if (byte0 < STRING_LONG_START)\r... */\n    tag_57:\n        /* \"contracts/demo2.sol\":2434:3787  if (byte0 < STRING_SHORT_START)\r... */\n    tag_55:\n        /* \"contracts/demo2.sol\":3810:3817  itemLen */\n      dup2\n        /* \"contracts/demo2.sol\":3803:3817  return itemLen */\n      swap3\n      pop\n      pop\n      pop\n        /* \"contracts/demo2.sol\":2215:3829  function _itemLength(uint memPtr) private pure returns (uint) {\r... */\n      swap2\n      swap1\n      pop\n      jump\t// out\n        /* \"--CODEGEN--\":5:118   */\n    tag_68:\n        /* \"--CODEGEN--\":88:112   */\n      tag_70\n        /* \"--CODEGEN--\":106:111   */\n      dup2\n        /* \"--CODEGEN--\":88:112   */\n      jump(tag_71)\n    tag_70:\n        /* \"--CODEGEN--\":83:86   */\n      dup3\n        /* \"--CODEGEN--\":76:113   */\n      mstore\n        /* \"--CODEGEN--\":70:118   */\n      pop\n      pop\n      jump\n        /* \"--CODEGEN--\":125:460   */\n    tag_72:\n      0x00\n        /* \"--CODEGEN--\":231:265   */\n      tag_74\n        /* \"--CODEGEN--\":259:264   */\n      dup3\n        /* \"--CODEGEN--\":231:265   */\n      jump(tag_75)\n    tag_74:\n        /* \"--CODEGEN--\":277:347   */\n      tag_76\n        /* \"--CODEGEN--\":340:346   */\n      dup2\n        /* \"--CODEGEN--\":335:338   */\n      dup6\n        /* \"--CODEGEN--\":277:347   */\n      jump(tag_77)\n    tag_76:\n        /* \"--CODEGEN--\":270:347   */\n      swap4\n      pop\n        /* \"--CODEGEN--\":352:404   */\n      tag_78\n        /* \"--CODEGEN--\":397:403   */\n      dup2\n        /* \"--CODEGEN--\":392:395   */\n      dup6\n        /* \"--CODEGEN--\":385:389   */\n      0x20\n        /* \"--CODEGEN--\":378:383   */\n      dup7\n        /* \"--CODEGEN--\":374:390   */\n      add\n        /* \"--CODEGEN--\":352:404   */\n      jump(tag_79)\n    tag_78:\n        /* \"--CODEGEN--\":425:454   */\n      tag_80\n        /* \"--CODEGEN--\":447:453   */\n      dup2\n        /* \"--CODEGEN--\":425:454   */\n      jump(tag_81)\n    tag_80:\n        /* \"--CODEGEN--\":420:423   */\n      dup5\n        /* \"--CODEGEN--\":416:455   */\n      add\n        /* \"--CODEGEN--\":409:455   */\n      swap2\n      pop\n        /* \"--CODEGEN--\":211:460   */\n      pop\n      swap3\n      swap2\n      pop\n      pop\n      jump\n        /* \"--CODEGEN--\":468:785   */\n    tag_82:\n      0x00\n        /* \"--CODEGEN--\":628:695   */\n      tag_84\n        /* \"--CODEGEN--\":692:694   */\n      0x11\n        /* \"--CODEGEN--\":687:690   */\n      dup4\n        /* \"--CODEGEN--\":628:695   */\n      jump(tag_85)\n    tag_84:\n        /* \"--CODEGEN--\":621:695   */\n      swap2\n      pop\n        /* \"--CODEGEN--\":728:747   */\n      0x6164646974696f6e206f766572666c6f77000000000000000000000000000000\n        /* \"--CODEGEN--\":724:725   */\n      0x00\n        /* \"--CODEGEN--\":719:722   */\n      dup4\n        /* \"--CODEGEN--\":715:726   */\n      add\n        /* \"--CODEGEN--\":708:748   */\n      mstore\n        /* \"--CODEGEN--\":776:778   */\n      0x20\n        /* \"--CODEGEN--\":771:774   */\n      dup3\n        /* \"--CODEGEN--\":767:779   */\n      add\n        /* \"--CODEGEN--\":760:779   */\n      swap1\n      pop\n        /* \"--CODEGEN--\":614:785   */\n      swap2\n      swap1\n      pop\n      jump\n        /* \"--CODEGEN--\":793:906   */\n    tag_86:\n        /* \"--CODEGEN--\":876:900   */\n      tag_88\n        /* \"--CODEGEN--\":894:899   */\n      dup2\n        /* \"--CODEGEN--\":876:900   */\n      jump(tag_89)\n    tag_88:\n        /* \"--CODEGEN--\":871:874   */\n      dup3\n        /* \"--CODEGEN--\":864:901   */\n      mstore\n        /* \"--CODEGEN--\":858:906   */\n      pop\n      pop\n      jump\n        /* \"--CODEGEN--\":913:1126   */\n    tag_23:\n      0x00\n        /* \"--CODEGEN--\":1031:1033   */\n      0x20\n        /* \"--CODEGEN--\":1020:1029   */\n      dup3\n        /* \"--CODEGEN--\":1016:1034   */\n      add\n        /* \"--CODEGEN--\":1008:1034   */\n      swap1\n      pop\n        /* \"--CODEGEN--\":1045:1116   */\n      tag_91\n        /* \"--CODEGEN--\":1113:1114   */\n      0x00\n        /* \"--CODEGEN--\":1102:1111   */\n      dup4\n        /* \"--CODEGEN--\":1098:1115   */\n      add\n        /* \"--CODEGEN--\":1089:1095   */\n      dup5\n        /* \"--CODEGEN--\":1045:1116   */\n      jump(tag_68)\n    tag_91:\n        /* \"--CODEGEN--\":1002:1126   */\n      swap3\n      swap2\n      pop\n      pop\n      jump\n        /* \"--CODEGEN--\":1133:1422   */\n    tag_15:\n      0x00\n        /* \"--CODEGEN--\":1265:1267   */\n      0x20\n        /* \"--CODEGEN--\":1254:1263   */\n      dup3\n        /* \"--CODEGEN--\":1250:1268   */\n      add\n        /* \"--CODEGEN--\":1242:1268   */\n      swap1\n      pop\n        /* \"--CODEGEN--\":1315:1324   */\n      dup2\n        /* \"--CODEGEN--\":1309:1313   */\n      dup2\n        /* \"--CODEGEN--\":1305:1325   */\n      sub\n        /* \"--CODEGEN--\":1301:1302   */\n      0x00\n        /* \"--CODEGEN--\":1290:1299   */\n      dup4\n        /* \"--CODEGEN--\":1286:1303   */\n      add\n        /* \"--CODEGEN--\":1279:1326   */\n      mstore\n        /* \"--CODEGEN--\":1340:1412   */\n      tag_93\n        /* \"--CODEGEN--\":1407:1411   */\n      dup2\n        /* \"--CODEGEN--\":1398:1404   */\n      dup5\n        /* \"--CODEGEN--\":1340:1412   */\n      jump(tag_72)\n    tag_93:\n        /* \"--CODEGEN--\":1332:1412   */\n      swap1\n      pop\n        /* \"--CODEGEN--\":1236:1422   */\n      swap3\n      swap2\n      pop\n      pop\n      jump\n        /* \"--CODEGEN--\":1429:1836   */\n    tag_61:\n      0x00\n        /* \"--CODEGEN--\":1620:1622   */\n      0x20\n        /* \"--CODEGEN--\":1609:1618   */\n      dup3\n        /* \"--CODEGEN--\":1605:1623   */\n      add\n        /* \"--CODEGEN--\":1597:1623   */\n      swap1\n      pop\n        /* \"--CODEGEN--\":1670:1679   */\n      dup2\n        /* \"--CODEGEN--\":1664:1668   */\n      dup2\n        /* \"--CODEGEN--\":1660:1680   */\n      sub\n        /* \"--CODEGEN--\":1656:1657   */\n      0x00\n        /* \"--CODEGEN--\":1645:1654   */\n      dup4\n        /* \"--CODEGEN--\":1641:1658   */\n      add\n        /* \"--CODEGEN--\":1634:1681   */\n      mstore\n        /* \"--CODEGEN--\":1695:1826   */\n      tag_95\n        /* \"--CODEGEN--\":1821:1825   */\n      dup2\n        /* \"--CODEGEN--\":1695:1826   */\n      jump(tag_82)\n    tag_95:\n        /* \"--CODEGEN--\":1687:1826   */\n      swap1\n      pop\n        /* \"--CODEGEN--\":1591:1836   */\n      swap2\n      swap1\n      pop\n      jump\n        /* \"--CODEGEN--\":1843:2056   */\n    tag_11:\n      0x00\n        /* \"--CODEGEN--\":1961:1963   */\n      0x20\n        /* \"--CODEGEN--\":1950:1959   */\n      dup3\n        /* \"--CODEGEN--\":1946:1964   */\n      add\n        /* \"--CODEGEN--\":1938:1964   */\n      swap1\n      pop\n        /* \"--CODEGEN--\":1975:2046   */\n      tag_97\n        /* \"--CODEGEN--\":2043:2044   */\n      0x00\n        /* \"--CODEGEN--\":2032:2041   */\n      dup4\n        /* \"--CODEGEN--\":2028:2045   */\n      add\n        /* \"--CODEGEN--\":2019:2025   */\n      dup5\n        /* \"--CODEGEN--\":1975:2046   */\n      jump(tag_86)\n    tag_97:\n        /* \"--CODEGEN--\":1932:2056   */\n      swap3\n      swap2\n      pop\n      pop\n      jump\n        /* \"--CODEGEN--\":2063:2387   */\n    tag_19:\n      0x00\n        /* \"--CODEGEN--\":2209:2211   */\n      0x40\n        /* \"--CODEGEN--\":2198:2207   */\n      dup3\n        /* \"--CODEGEN--\":2194:2212   */\n      add\n        /* \"--CODEGEN--\":2186:2212   */\n      swap1\n      pop\n        /* \"--CODEGEN--\":2223:2294   */\n      tag_99\n        /* \"--CODEGEN--\":2291:2292   */\n      0x00\n        /* \"--CODEGEN--\":2280:2289   */\n      dup4\n        /* \"--CODEGEN--\":2276:2293   */\n      add\n        /* \"--CODEGEN--\":2267:2273   */\n      dup6\n        /* \"--CODEGEN--\":2223:2294   */\n      jump(tag_86)\n    tag_99:\n        /* \"--CODEGEN--\":2305:2377   */\n      tag_100\n        /* \"--CODEGEN--\":2373:2375   */\n      0x20\n        /* \"--CODEGEN--\":2362:2371   */\n      dup4\n        /* \"--CODEGEN--\":2358:2376   */\n      add\n        /* \"--CODEGEN--\":2349:2355   */\n      dup5\n        /* \"--CODEGEN--\":2305:2377   */\n      jump(tag_86)\n    tag_100:\n        /* \"--CODEGEN--\":2180:2387   */\n      swap4\n      swap3\n      pop\n      pop\n      pop\n      jump\n        /* \"--CODEGEN--\":2394:2511   */\n    tag_75:\n      0x00\n        /* \"--CODEGEN--\":2483:2488   */\n      dup2\n        /* \"--CODEGEN--\":2477:2489   */\n      mload\n        /* \"--CODEGEN--\":2467:2489   */\n      swap1\n      pop\n        /* \"--CODEGEN--\":2448:2511   */\n      swap2\n      swap1\n      pop\n      jump\n        /* \"--CODEGEN--\":2519:2681   */\n    tag_77:\n      0x00\n        /* \"--CODEGEN--\":2633:2639   */\n      dup3\n        /* \"--CODEGEN--\":2628:2631   */\n      dup3\n        /* \"--CODEGEN--\":2621:2640   */\n      mstore\n        /* \"--CODEGEN--\":2670:2674   */\n      0x20\n        /* \"--CODEGEN--\":2665:2668   */\n      dup3\n        /* \"--CODEGEN--\":2661:2675   */\n      add\n        /* \"--CODEGEN--\":2646:2675   */\n      swap1\n      pop\n        /* \"--CODEGEN--\":2614:2681   */\n      swap3\n      swap2\n      pop\n      pop\n      jump\n        /* \"--CODEGEN--\":2690:2853   */\n    tag_85:\n      0x00\n        /* \"--CODEGEN--\":2805:2811   */\n      dup3\n        /* \"--CODEGEN--\":2800:2803   */\n      dup3\n        /* \"--CODEGEN--\":2793:2812   */\n      mstore\n        /* \"--CODEGEN--\":2842:2846   */\n      0x20\n        /* \"--CODEGEN--\":2837:2840   */\n      dup3\n        /* \"--CODEGEN--\":2833:2847   */\n      add\n        /* \"--CODEGEN--\":2818:2847   */\n      swap1\n      pop\n        /* \"--CODEGEN--\":2786:2853   */\n      swap3\n      swap2\n      pop\n      pop\n      jump\n        /* \"--CODEGEN--\":2861:2933   */\n    tag_71:\n      0x00\n        /* \"--CODEGEN--\":2923:2928   */\n      dup2\n        /* \"--CODEGEN--\":2912:2928   */\n      swap1\n      pop\n        /* \"--CODEGEN--\":2906:2933   */\n      swap2\n      swap1\n      pop\n      jump\n        /* \"--CODEGEN--\":2940:3012   */\n    tag_89:\n      0x00\n        /* \"--CODEGEN--\":3002:3007   */\n      dup2\n        /* \"--CODEGEN--\":2991:3007   */\n      swap1\n      pop\n        /* \"--CODEGEN--\":2985:3012   */\n      swap2\n      swap1\n      pop\n      jump\n        /* \"--CODEGEN--\":3020:3288   */\n    tag_79:\n        /* \"--CODEGEN--\":3085:3086   */\n      0x00\n        /* \"--CODEGEN--\":3092:3193   */\n    tag_107:\n        /* \"--CODEGEN--\":3106:3112   */\n      dup4\n        /* \"--CODEGEN--\":3103:3104   */\n      dup2\n        /* \"--CODEGEN--\":3100:3113   */\n      lt\n        /* \"--CODEGEN--\":3092:3193   */\n      iszero\n      tag_109\n      jumpi\n        /* \"--CODEGEN--\":3182:3183   */\n      dup1\n        /* \"--CODEGEN--\":3177:3180   */\n      dup3\n        /* \"--CODEGEN--\":3173:3184   */\n      add\n        /* \"--CODEGEN--\":3167:3185   */\n      mload\n        /* \"--CODEGEN--\":3163:3164   */\n      dup2\n        /* \"--CODEGEN--\":3158:3161   */\n      dup5\n        /* \"--CODEGEN--\":3154:3165   */\n      add\n        /* \"--CODEGEN--\":3147:3186   */\n      mstore\n        /* \"--CODEGEN--\":3128:3130   */\n      0x20\n        /* \"--CODEGEN--\":3125:3126   */\n      dup2\n        /* \"--CODEGEN--\":3121:3131   */\n      add\n        /* \"--CODEGEN--\":3116:3131   */\n      swap1\n      pop\n        /* \"--CODEGEN--\":3092:3193   */\n      jump(tag_107)\n    tag_109:\n        /* \"--CODEGEN--\":3208:3214   */\n      dup4\n        /* \"--CODEGEN--\":3205:3206   */\n      dup2\n        /* \"--CODEGEN--\":3202:3215   */\n      gt\n        /* \"--CODEGEN--\":3199:3201   */\n      iszero\n      tag_110\n      jumpi\n        /* \"--CODEGEN--\":3273:3274   */\n      0x00\n        /* \"--CODEGEN--\":3264:3270   */\n      dup5\n        /* \"--CODEGEN--\":3259:3262   */\n      dup5\n        /* \"--CODEGEN--\":3255:3271   */\n      add\n        /* \"--CODEGEN--\":3248:3275   */\n      mstore\n        /* \"--CODEGEN--\":3199:3201   */\n    tag_110:\n        /* \"--CODEGEN--\":3069:3288   */\n      pop\n      pop\n      pop\n      pop\n      jump\n        /* \"--CODEGEN--\":3296:3393   */\n    tag_81:\n      0x00\n        /* \"--CODEGEN--\":3384:3386   */\n      0x1f\n        /* \"--CODEGEN--\":3380:3387   */\n      not\n        /* \"--CODEGEN--\":3375:3377   */\n      0x1f\n        /* \"--CODEGEN--\":3368:3373   */\n      dup4\n        /* \"--CODEGEN--\":3364:3378   */\n      add\n        /* \"--CODEGEN--\":3360:3388   */\n      and\n        /* \"--CODEGEN--\":3350:3388   */\n      swap1\n      pop\n        /* \"--CODEGEN--\":3344:3393   */\n      swap2\n      swap1\n      pop\n      jump\n\n    auxdata: 0xa26469706673582212201bef337fa2991164a583c7d07c3f44af329431b2fc36daa5a6ba0f3f27ffb2e664736f6c63430006040033\n}\n",
				"bytecode": {
					"linkReferences": {},
					"object": "60806040526040518060600160405280602e815260200161089f602e9139600090805190602001906100329291906100cf565b506040518060600160405280602a81526020016108cd602a9139600190805190602001906100619291906100cf565b507f4c45484f4e47564f776a6e66766a3377656838764b4a0000000000000000000060025534801561009257600080fd5b506040516108f73803806108f783398181016040528101906100b49190610189565b816003600001819055508060036001018190555050506101e6565b828054600181600116156101000203166002900490600052602060002090601f016020900481019282601f1061011057805160ff191683800117855561013e565b8280016001018555821561013e579182015b8281111561013d578251825591602001919060010190610122565b5b50905061014b919061014f565b5090565b61017191905b8082111561016d576000816000905550600101610155565b5090565b90565b600081519050610183816101cf565b92915050565b6000806040838503121561019c57600080fd5b60006101aa85828601610174565b92505060206101bb85828601610174565b9150509250929050565b6000819050919050565b6101d8816101c5565b81146101e357600080fd5b50565b6106aa806101f56000396000f3fe608060405234801561001057600080fd5b50600436106100575760003560e01c80633bc5de301461005c5780639ffd85c41461007a578063a699fb0314610098578063e3a7fd75146100b7578063fc26b0ab146100d5575b600080fd5b6100646100f3565b60405161007191906105ab565b60405180910390f35b610082610123565b60405161008f9190610569565b60405180910390f35b6100a06101c1565b6040516100ae9291906105c6565b60405180910390f35b6100bf6101d3565b6040516100cc919061054e565b60405180910390f35b6100dd6101d9565b6040516100ea9190610569565b60405180910390f35b600061011e600360405180604001604052908160008201548152602001600182015481525050610277565b905090565b60008054600181600116156101000203166002900480601f0160208091040260200160405190810160405280929190818152602001828054600181600116156101000203166002900480156101b95780601f1061018e576101008083540402835291602001916101b9565b820191906000526020600020905b81548152906001019060200180831161019c57829003601f168201915b505050505081565b60038060000154908060010154905082565b60025481565b60018054600181600116156101000203166002900480601f01602080910402602001604051908101604052809291908181526020018280546001816001161561010002031660029004801561026f5780601f106102445761010080835404028352916020019161026f565b820191906000526020600020905b81548152906001019060200180831161025257829003601f168201915b505050505081565b6000808260000151141561028e57600090506102e3565b600080905060006102a284602001516102e8565b84602001510190506000846000015185602001510190505b808210156102dc576102cb82610371565b8201915082806001019350506102ba565b8293505050505b919050565b600080825160001a9050608060ff1681101561030857600091505061036c565b60b860ff1681108061032d575060c060ff16811015801561032c575060f860ff1681105b5b1561033c57600191505061036c565b60c060ff1681101561035c5760018060b80360ff1682030191505061036c565b60018060f80360ff168203019150505b919050565b6000806000835160001a9050608060ff1681101561039257600191506104ad565b60b860ff168110156103af576001608060ff1682030191506104ac565b60c060ff1681101561042657600060b78203600186019550806020036101000a865104915060018101820193505080831015610420576040517f08c379a00000000000000000000000000000000000000000000000000000000081526004016104179061058b565b60405180910390fd5b506104ab565b60f860ff1681101561044357600160c060ff1682030191506104aa565b600060f78203600186019550806020036101000a8651049150600181018201935050808310156104a8576040517f08c379a000000000000000000000000000000000000000000000000000000000815260040161049f9061058b565b60405180910390fd5b505b5b5b5b8192505050919050565b6104c08161061c565b82525050565b60006104d1826105ef565b6104db81856105fa565b93506104eb818560208601610630565b6104f481610663565b840191505092915050565b600061050c60118361060b565b91507f6164646974696f6e206f766572666c6f770000000000000000000000000000006000830152602082019050919050565b61054881610626565b82525050565b600060208201905061056360008301846104b7565b92915050565b6000602082019050818103600083015261058381846104c6565b905092915050565b600060208201905081810360008301526105a4816104ff565b9050919050565b60006020820190506105c0600083018461053f565b92915050565b60006040820190506105db600083018561053f565b6105e8602083018461053f565b9392505050565b600081519050919050565b600082825260208201905092915050565b600082825260208201905092915050565b6000819050919050565b6000819050919050565b60005b8381101561064e578082015181840152602081019050610633565b8381111561065d576000848401525b50505050565b6000601f19601f830116905091905056fea26469706673582212201bef337fa2991164a583c7d07c3f44af329431b2fc36daa5a6ba0f3f27ffb2e664736f6c634300060400334e414c4548484a534744534447484a534448535548444a5348444a53484a53484a534844534a44484a4f4e47564f7364664e417364667364664c4548484a5347445348444a53484a53484a534844534a44484a4f4e47564f",
					"opcodes": "PUSH1 0x80 PUSH1 0x40 MSTORE PUSH1 0x40 MLOAD DUP1 PUSH1 0x60 ADD PUSH1 0x40 MSTORE DUP1 PUSH1 0x2E DUP2 MSTORE PUSH1 0x20 ADD PUSH2 0x89F PUSH1 0x2E SWAP2 CODECOPY PUSH1 0x0 SWAP1 DUP1 MLOAD SWAP1 PUSH1 0x20 ADD SWAP1 PUSH2 0x32 SWAP3 SWAP2 SWAP1 PUSH2 0xCF JUMP JUMPDEST POP PUSH1 0x40 MLOAD DUP1 PUSH1 0x60 ADD PUSH1 0x40 MSTORE DUP1 PUSH1 0x2A DUP2 MSTORE PUSH1 0x20 ADD PUSH2 0x8CD PUSH1 0x2A SWAP2 CODECOPY PUSH1 0x1 SWAP1 DUP1 MLOAD SWAP1 PUSH1 0x20 ADD SWAP1 PUSH2 0x61 SWAP3 SWAP2 SWAP1 PUSH2 0xCF JUMP JUMPDEST POP PUSH32 0x4C45484F4E47564F776A6E66766A3377656838764B4A00000000000000000000 PUSH1 0x2 SSTORE CALLVALUE DUP1 ISZERO PUSH2 0x92 JUMPI PUSH1 0x0 DUP1 REVERT JUMPDEST POP PUSH1 0x40 MLOAD PUSH2 0x8F7 CODESIZE SUB DUP1 PUSH2 0x8F7 DUP4 CODECOPY DUP2 DUP2 ADD PUSH1 0x40 MSTORE DUP2 ADD SWAP1 PUSH2 0xB4 SWAP2 SWAP1 PUSH2 0x189 JUMP JUMPDEST DUP2 PUSH1 0x3 PUSH1 0x0 ADD DUP2 SWAP1 SSTORE POP DUP1 PUSH1 0x3 PUSH1 0x1 ADD DUP2 SWAP1 SSTORE POP POP POP PUSH2 0x1E6 JUMP JUMPDEST DUP3 DUP1 SLOAD PUSH1 0x1 DUP2 PUSH1 0x1 AND ISZERO PUSH2 0x100 MUL SUB AND PUSH1 0x2 SWAP1 DIV SWAP1 PUSH1 0x0 MSTORE PUSH1 0x20 PUSH1 0x0 KECCAK256 SWAP1 PUSH1 0x1F ADD PUSH1 0x20 SWAP1 DIV DUP2 ADD SWAP3 DUP3 PUSH1 0x1F LT PUSH2 0x110 JUMPI DUP1 MLOAD PUSH1 0xFF NOT AND DUP4 DUP1 ADD OR DUP6 SSTORE PUSH2 0x13E JUMP JUMPDEST DUP3 DUP1 ADD PUSH1 0x1 ADD DUP6 SSTORE DUP3 ISZERO PUSH2 0x13E JUMPI SWAP2 DUP3 ADD JUMPDEST DUP3 DUP2 GT ISZERO PUSH2 0x13D JUMPI DUP3 MLOAD DUP3 SSTORE SWAP2 PUSH1 0x20 ADD SWAP2 SWAP1 PUSH1 0x1 ADD SWAP1 PUSH2 0x122 JUMP JUMPDEST JUMPDEST POP SWAP1 POP PUSH2 0x14B SWAP2 SWAP1 PUSH2 0x14F JUMP JUMPDEST POP SWAP1 JUMP JUMPDEST PUSH2 0x171 SWAP2 SWAP1 JUMPDEST DUP1 DUP3 GT ISZERO PUSH2 0x16D JUMPI PUSH1 0x0 DUP2 PUSH1 0x0 SWAP1 SSTORE POP PUSH1 0x1 ADD PUSH2 0x155 JUMP JUMPDEST POP SWAP1 JUMP JUMPDEST SWAP1 JUMP JUMPDEST PUSH1 0x0 DUP2 MLOAD SWAP1 POP PUSH2 0x183 DUP2 PUSH2 0x1CF JUMP JUMPDEST SWAP3 SWAP2 POP POP JUMP JUMPDEST PUSH1 0x0 DUP1 PUSH1 0x40 DUP4 DUP6 SUB SLT ISZERO PUSH2 0x19C JUMPI PUSH1 0x0 DUP1 REVERT JUMPDEST PUSH1 0x0 PUSH2 0x1AA DUP6 DUP3 DUP7 ADD PUSH2 0x174 JUMP JUMPDEST SWAP3 POP POP PUSH1 0x20 PUSH2 0x1BB DUP6 DUP3 DUP7 ADD PUSH2 0x174 JUMP JUMPDEST SWAP2 POP POP SWAP3 POP SWAP3 SWAP1 POP JUMP JUMPDEST PUSH1 0x0 DUP2 SWAP1 POP SWAP2 SWAP1 POP JUMP JUMPDEST PUSH2 0x1D8 DUP2 PUSH2 0x1C5 JUMP JUMPDEST DUP2 EQ PUSH2 0x1E3 JUMPI PUSH1 0x0 DUP1 REVERT JUMPDEST POP JUMP JUMPDEST PUSH2 0x6AA DUP1 PUSH2 0x1F5 PUSH1 0x0 CODECOPY PUSH1 0x0 RETURN INVALID PUSH1 0x80 PUSH1 0x40 MSTORE CALLVALUE DUP1 ISZERO PUSH2 0x10 JUMPI PUSH1 0x0 DUP1 REVERT JUMPDEST POP PUSH1 0x4 CALLDATASIZE LT PUSH2 0x57 JUMPI PUSH1 0x0 CALLDATALOAD PUSH1 0xE0 SHR DUP1 PUSH4 0x3BC5DE30 EQ PUSH2 0x5C JUMPI DUP1 PUSH4 0x9FFD85C4 EQ PUSH2 0x7A JUMPI DUP1 PUSH4 0xA699FB03 EQ PUSH2 0x98 JUMPI DUP1 PUSH4 0xE3A7FD75 EQ PUSH2 0xB7 JUMPI DUP1 PUSH4 0xFC26B0AB EQ PUSH2 0xD5 JUMPI JUMPDEST PUSH1 0x0 DUP1 REVERT JUMPDEST PUSH2 0x64 PUSH2 0xF3 JUMP JUMPDEST PUSH1 0x40 MLOAD PUSH2 0x71 SWAP2 SWAP1 PUSH2 0x5AB JUMP JUMPDEST PUSH1 0x40 MLOAD DUP1 SWAP2 SUB SWAP1 RETURN JUMPDEST PUSH2 0x82 PUSH2 0x123 JUMP JUMPDEST PUSH1 0x40 MLOAD PUSH2 0x8F SWAP2 SWAP1 PUSH2 0x569 JUMP JUMPDEST PUSH1 0x40 MLOAD DUP1 SWAP2 SUB SWAP1 RETURN JUMPDEST PUSH2 0xA0 PUSH2 0x1C1 JUMP JUMPDEST PUSH1 0x40 MLOAD PUSH2 0xAE SWAP3 SWAP2 SWAP1 PUSH2 0x5C6 JUMP JUMPDEST PUSH1 0x40 MLOAD DUP1 SWAP2 SUB SWAP1 RETURN JUMPDEST PUSH2 0xBF PUSH2 0x1D3 JUMP JUMPDEST PUSH1 0x40 MLOAD PUSH2 0xCC SWAP2 SWAP1 PUSH2 0x54E JUMP JUMPDEST PUSH1 0x40 MLOAD DUP1 SWAP2 SUB SWAP1 RETURN JUMPDEST PUSH2 0xDD PUSH2 0x1D9 JUMP JUMPDEST PUSH1 0x40 MLOAD PUSH2 0xEA SWAP2 SWAP1 PUSH2 0x569 JUMP JUMPDEST PUSH1 0x40 MLOAD DUP1 SWAP2 SUB SWAP1 RETURN JUMPDEST PUSH1 0x0 PUSH2 0x11E PUSH1 0x3 PUSH1 0x40 MLOAD DUP1 PUSH1 0x40 ADD PUSH1 0x40 MSTORE SWAP1 DUP2 PUSH1 0x0 DUP3 ADD SLOAD DUP2 MSTORE PUSH1 0x20 ADD PUSH1 0x1 DUP3 ADD SLOAD DUP2 MSTORE POP POP PUSH2 0x277 JUMP JUMPDEST SWAP1 POP SWAP1 JUMP JUMPDEST PUSH1 0x0 DUP1 SLOAD PUSH1 0x1 DUP2 PUSH1 0x1 AND ISZERO PUSH2 0x100 MUL SUB AND PUSH1 0x2 SWAP1 DIV DUP1 PUSH1 0x1F ADD PUSH1 0x20 DUP1 SWAP2 DIV MUL PUSH1 0x20 ADD PUSH1 0x40 MLOAD SWAP1 DUP2 ADD PUSH1 0x40 MSTORE DUP1 SWAP3 SWAP2 SWAP1 DUP2 DUP2 MSTORE PUSH1 0x20 ADD DUP3 DUP1 SLOAD PUSH1 0x1 DUP2 PUSH1 0x1 AND ISZERO PUSH2 0x100 MUL SUB AND PUSH1 0x2 SWAP1 DIV DUP1 ISZERO PUSH2 0x1B9 JUMPI DUP1 PUSH1 0x1F LT PUSH2 0x18E JUMPI PUSH2 0x100 DUP1 DUP4 SLOAD DIV MUL DUP4 MSTORE SWAP2 PUSH1 0x20 ADD SWAP2 PUSH2 0x1B9 JUMP JUMPDEST DUP3 ADD SWAP2 SWAP1 PUSH1 0x0 MSTORE PUSH1 0x20 PUSH1 0x0 KECCAK256 SWAP1 JUMPDEST DUP2 SLOAD DUP2 MSTORE SWAP1 PUSH1 0x1 ADD SWAP1 PUSH1 0x20 ADD DUP1 DUP4 GT PUSH2 0x19C JUMPI DUP3 SWAP1 SUB PUSH1 0x1F AND DUP3 ADD SWAP2 JUMPDEST POP POP POP POP POP DUP2 JUMP JUMPDEST PUSH1 0x3 DUP1 PUSH1 0x0 ADD SLOAD SWAP1 DUP1 PUSH1 0x1 ADD SLOAD SWAP1 POP DUP3 JUMP JUMPDEST PUSH1 0x2 SLOAD DUP2 JUMP JUMPDEST PUSH1 0x1 DUP1 SLOAD PUSH1 0x1 DUP2 PUSH1 0x1 AND ISZERO PUSH2 0x100 MUL SUB AND PUSH1 0x2 SWAP1 DIV DUP1 PUSH1 0x1F ADD PUSH1 0x20 DUP1 SWAP2 DIV MUL PUSH1 0x20 ADD PUSH1 0x40 MLOAD SWAP1 DUP2 ADD PUSH1 0x40 MSTORE DUP1 SWAP3 SWAP2 SWAP1 DUP2 DUP2 MSTORE PUSH1 0x20 ADD DUP3 DUP1 SLOAD PUSH1 0x1 DUP2 PUSH1 0x1 AND ISZERO PUSH2 0x100 MUL SUB AND PUSH1 0x2 SWAP1 DIV DUP1 ISZERO PUSH2 0x26F JUMPI DUP1 PUSH1 0x1F LT PUSH2 0x244 JUMPI PUSH2 0x100 DUP1 DUP4 SLOAD DIV MUL DUP4 MSTORE SWAP2 PUSH1 0x20 ADD SWAP2 PUSH2 0x26F JUMP JUMPDEST DUP3 ADD SWAP2 SWAP1 PUSH1 0x0 MSTORE PUSH1 0x20 PUSH1 0x0 KECCAK256 SWAP1 JUMPDEST DUP2 SLOAD DUP2 MSTORE SWAP1 PUSH1 0x1 ADD SWAP1 PUSH1 0x20 ADD DUP1 DUP4 GT PUSH2 0x252 JUMPI DUP3 SWAP1 SUB PUSH1 0x1F AND DUP3 ADD SWAP2 JUMPDEST POP POP POP POP POP DUP2 JUMP JUMPDEST PUSH1 0x0 DUP1 DUP3 PUSH1 0x0 ADD MLOAD EQ ISZERO PUSH2 0x28E JUMPI PUSH1 0x0 SWAP1 POP PUSH2 0x2E3 JUMP JUMPDEST PUSH1 0x0 DUP1 SWAP1 POP PUSH1 0x0 PUSH2 0x2A2 DUP5 PUSH1 0x20 ADD MLOAD PUSH2 0x2E8 JUMP JUMPDEST DUP5 PUSH1 0x20 ADD MLOAD ADD SWAP1 POP PUSH1 0x0 DUP5 PUSH1 0x0 ADD MLOAD DUP6 PUSH1 0x20 ADD MLOAD ADD SWAP1 POP JUMPDEST DUP1 DUP3 LT ISZERO PUSH2 0x2DC JUMPI PUSH2 0x2CB DUP3 PUSH2 0x371 JUMP JUMPDEST DUP3 ADD SWAP2 POP DUP3 DUP1 PUSH1 0x1 ADD SWAP4 POP POP PUSH2 0x2BA JUMP JUMPDEST DUP3 SWAP4 POP POP POP POP JUMPDEST SWAP2 SWAP1 POP JUMP JUMPDEST PUSH1 0x0 DUP1 DUP3 MLOAD PUSH1 0x0 BYTE SWAP1 POP PUSH1 0x80 PUSH1 0xFF AND DUP2 LT ISZERO PUSH2 0x308 JUMPI PUSH1 0x0 SWAP2 POP POP PUSH2 0x36C JUMP JUMPDEST PUSH1 0xB8 PUSH1 0xFF AND DUP2 LT DUP1 PUSH2 0x32D JUMPI POP PUSH1 0xC0 PUSH1 0xFF AND DUP2 LT ISZERO DUP1 ISZERO PUSH2 0x32C JUMPI POP PUSH1 0xF8 PUSH1 0xFF AND DUP2 LT JUMPDEST JUMPDEST ISZERO PUSH2 0x33C JUMPI PUSH1 0x1 SWAP2 POP POP PUSH2 0x36C JUMP JUMPDEST PUSH1 0xC0 PUSH1 0xFF AND DUP2 LT ISZERO PUSH2 0x35C JUMPI PUSH1 0x1 DUP1 PUSH1 0xB8 SUB PUSH1 0xFF AND DUP3 SUB ADD SWAP2 POP POP PUSH2 0x36C JUMP JUMPDEST PUSH1 0x1 DUP1 PUSH1 0xF8 SUB PUSH1 0xFF AND DUP3 SUB ADD SWAP2 POP POP JUMPDEST SWAP2 SWAP1 POP JUMP JUMPDEST PUSH1 0x0 DUP1 PUSH1 0x0 DUP4 MLOAD PUSH1 0x0 BYTE SWAP1 POP PUSH1 0x80 PUSH1 0xFF AND DUP2 LT ISZERO PUSH2 0x392 JUMPI PUSH1 0x1 SWAP2 POP PUSH2 0x4AD JUMP JUMPDEST PUSH1 0xB8 PUSH1 0xFF AND DUP2 LT ISZERO PUSH2 0x3AF JUMPI PUSH1 0x1 PUSH1 0x80 PUSH1 0xFF AND DUP3 SUB ADD SWAP2 POP PUSH2 0x4AC JUMP JUMPDEST PUSH1 0xC0 PUSH1 0xFF AND DUP2 LT ISZERO PUSH2 0x426 JUMPI PUSH1 0x0 PUSH1 0xB7 DUP3 SUB PUSH1 0x1 DUP7 ADD SWAP6 POP DUP1 PUSH1 0x20 SUB PUSH2 0x100 EXP DUP7 MLOAD DIV SWAP2 POP PUSH1 0x1 DUP2 ADD DUP3 ADD SWAP4 POP POP DUP1 DUP4 LT ISZERO PUSH2 0x420 JUMPI PUSH1 0x40 MLOAD PUSH32 0x8C379A000000000000000000000000000000000000000000000000000000000 DUP2 MSTORE PUSH1 0x4 ADD PUSH2 0x417 SWAP1 PUSH2 0x58B JUMP JUMPDEST PUSH1 0x40 MLOAD DUP1 SWAP2 SUB SWAP1 REVERT JUMPDEST POP PUSH2 0x4AB JUMP JUMPDEST PUSH1 0xF8 PUSH1 0xFF AND DUP2 LT ISZERO PUSH2 0x443 JUMPI PUSH1 0x1 PUSH1 0xC0 PUSH1 0xFF AND DUP3 SUB ADD SWAP2 POP PUSH2 0x4AA JUMP JUMPDEST PUSH1 0x0 PUSH1 0xF7 DUP3 SUB PUSH1 0x1 DUP7 ADD SWAP6 POP DUP1 PUSH1 0x20 SUB PUSH2 0x100 EXP DUP7 MLOAD DIV SWAP2 POP PUSH1 0x1 DUP2 ADD DUP3 ADD SWAP4 POP POP DUP1 DUP4 LT ISZERO PUSH2 0x4A8 JUMPI PUSH1 0x40 MLOAD PUSH32 0x8C379A000000000000000000000000000000000000000000000000000000000 DUP2 MSTORE PUSH1 0x4 ADD PUSH2 0x49F SWAP1 PUSH2 0x58B JUMP JUMPDEST PUSH1 0x40 MLOAD DUP1 SWAP2 SUB SWAP1 REVERT JUMPDEST POP JUMPDEST JUMPDEST JUMPDEST JUMPDEST DUP2 SWAP3 POP POP POP SWAP2 SWAP1 POP JUMP JUMPDEST PUSH2 0x4C0 DUP2 PUSH2 0x61C JUMP JUMPDEST DUP3 MSTORE POP POP JUMP JUMPDEST PUSH1 0x0 PUSH2 0x4D1 DUP3 PUSH2 0x5EF JUMP JUMPDEST PUSH2 0x4DB DUP2 DUP6 PUSH2 0x5FA JUMP JUMPDEST SWAP4 POP PUSH2 0x4EB DUP2 DUP6 PUSH1 0x20 DUP7 ADD PUSH2 0x630 JUMP JUMPDEST PUSH2 0x4F4 DUP2 PUSH2 0x663 JUMP JUMPDEST DUP5 ADD SWAP2 POP POP SWAP3 SWAP2 POP POP JUMP JUMPDEST PUSH1 0x0 PUSH2 0x50C PUSH1 0x11 DUP4 PUSH2 0x60B JUMP JUMPDEST SWAP2 POP PUSH32 0x6164646974696F6E206F766572666C6F77000000000000000000000000000000 PUSH1 0x0 DUP4 ADD MSTORE PUSH1 0x20 DUP3 ADD SWAP1 POP SWAP2 SWAP1 POP JUMP JUMPDEST PUSH2 0x548 DUP2 PUSH2 0x626 JUMP JUMPDEST DUP3 MSTORE POP POP JUMP JUMPDEST PUSH1 0x0 PUSH1 0x20 DUP3 ADD SWAP1 POP PUSH2 0x563 PUSH1 0x0 DUP4 ADD DUP5 PUSH2 0x4B7 JUMP JUMPDEST SWAP3 SWAP2 POP POP JUMP JUMPDEST PUSH1 0x0 PUSH1 0x20 DUP3 ADD SWAP1 POP DUP2 DUP2 SUB PUSH1 0x0 DUP4 ADD MSTORE PUSH2 0x583 DUP2 DUP5 PUSH2 0x4C6 JUMP JUMPDEST SWAP1 POP SWAP3 SWAP2 POP POP JUMP JUMPDEST PUSH1 0x0 PUSH1 0x20 DUP3 ADD SWAP1 POP DUP2 DUP2 SUB PUSH1 0x0 DUP4 ADD MSTORE PUSH2 0x5A4 DUP2 PUSH2 0x4FF JUMP JUMPDEST SWAP1 POP SWAP2 SWAP1 POP JUMP JUMPDEST PUSH1 0x0 PUSH1 0x20 DUP3 ADD SWAP1 POP PUSH2 0x5C0 PUSH1 0x0 DUP4 ADD DUP5 PUSH2 0x53F JUMP JUMPDEST SWAP3 SWAP2 POP POP JUMP JUMPDEST PUSH1 0x0 PUSH1 0x40 DUP3 ADD SWAP1 POP PUSH2 0x5DB PUSH1 0x0 DUP4 ADD DUP6 PUSH2 0x53F JUMP JUMPDEST PUSH2 0x5E8 PUSH1 0x20 DUP4 ADD DUP5 PUSH2 0x53F JUMP JUMPDEST SWAP4 SWAP3 POP POP POP JUMP JUMPDEST PUSH1 0x0 DUP2 MLOAD SWAP1 POP SWAP2 SWAP1 POP JUMP JUMPDEST PUSH1 0x0 DUP3 DUP3 MSTORE PUSH1 0x20 DUP3 ADD SWAP1 POP SWAP3 SWAP2 POP POP JUMP JUMPDEST PUSH1 0x0 DUP3 DUP3 MSTORE PUSH1 0x20 DUP3 ADD SWAP1 POP SWAP3 SWAP2 POP POP JUMP JUMPDEST PUSH1 0x0 DUP2 SWAP1 POP SWAP2 SWAP1 POP JUMP JUMPDEST PUSH1 0x0 DUP2 SWAP1 POP SWAP2 SWAP1 POP JUMP JUMPDEST PUSH1 0x0 JUMPDEST DUP4 DUP2 LT ISZERO PUSH2 0x64E JUMPI DUP1 DUP3 ADD MLOAD DUP2 DUP5 ADD MSTORE PUSH1 0x20 DUP2 ADD SWAP1 POP PUSH2 0x633 JUMP JUMPDEST DUP4 DUP2 GT ISZERO PUSH2 0x65D JUMPI PUSH1 0x0 DUP5 DUP5 ADD MSTORE JUMPDEST POP POP POP POP JUMP JUMPDEST PUSH1 0x0 PUSH1 0x1F NOT PUSH1 0x1F DUP4 ADD AND SWAP1 POP SWAP2 SWAP1 POP JUMP INVALID LOG2 PUSH5 0x6970667358 0x22 SLT KECCAK256 SHL 0xEF CALLER PUSH32 0xA2991164A583C7D07C3F44AF329431B2FC36DAA5A6BA0F3F27FFB2E664736F6C PUSH4 0x43000604 STOP CALLER 0x4E COINBASE 0x4C GASLIMIT 0x48 0x48 0x4A MSTORE8 SELFBALANCE DIFFICULTY MSTORE8 DIFFICULTY SELFBALANCE 0x48 0x4A MSTORE8 DIFFICULTY 0x48 MSTORE8 SSTORE 0x48 DIFFICULTY 0x4A MSTORE8 0x48 DIFFICULTY 0x4A MSTORE8 0x48 0x4A MSTORE8 0x48 0x4A MSTORE8 0x48 DIFFICULTY MSTORE8 0x4A DIFFICULTY 0x48 0x4A 0x4F 0x4E SELFBALANCE JUMP 0x4F PUSH20 0x64664E417364667364664C4548484A5347445348 DIFFICULTY 0x4A MSTORE8 0x48 0x4A MSTORE8 0x48 0x4A MSTORE8 0x48 DIFFICULTY MSTORE8 0x4A DIFFICULTY 0x48 0x4A 0x4F 0x4E SELFBALANCE JUMP 0x4F "
				},
				"gasEstimates": {
					"creation": {
						"codeDepositCost": "341200",
						"executionCost": "infinite",
						"totalCost": "infinite"
					},
					"external": {
						"data1()": "infinite",
						"data2()": "1173",
						"data3()": "infinite",
						"getData()": "infinite",
						"rlpItem()": "infinite"
					},
					"internal": {
						"_itemLength(uint256)": "infinite",
						"_payloadOffset(uint256)": "infinite",
						"copy(uint256,uint256,uint256)": "infinite",
						"numItems(struct demo2.RLPItem memory)": "infinite",
						"toBytes(struct demo2.RLPItem memory)": "infinite"
					}
				},
				"methodIdentifiers": {
					"data1()": "9ffd85c4",
					"data2()": "e3a7fd75",
					"data3()": "fc26b0ab",
					"getData()": "3bc5de30",
					"rlpItem()": "a699fb03"
				}
			},
			"userdoc": {
				"methods": {}
			}
		}
	}
}