{
	"contracts/demo1.sol": {
		"SizeOf": {
			"abi": [
				{
					"inputs": [
						{
							"internalType": "uint16",
							"name": "_data",
							"type": "uint16"
						}
					],
					"name": "getData",
					"outputs": [
						{
							"internalType": "uint256",
							"name": "",
							"type": "uint256"
						}
					],
					"stateMutability": "view",
					"type": "function"
				}
			],
			"devdoc": {
				"author": "pouladzade@gmail.com",
				"details": "The SizeOf return the size of the solidity types in byte",
				"kind": "dev",
				"methods": {},
				"title": "SizeOf Copyright (c) 2016-2020 zpouladzade/Seriality",
				"version": 1
			},
			"evm": {
				"assembly": "    /* \"contracts/demo1.sol\":211:2441  contract SizeOf {\r... */\n  mstore(0x40, 0x80)\n  callvalue\n  dup1\n  iszero\n  tag_1\n  jumpi\n  0x00\n  dup1\n  revert\ntag_1:\n  pop\n  dataSize(sub_0)\n  dup1\n  dataOffset(sub_0)\n  0x00\n  codecopy\n  0x00\n  return\nstop\n\nsub_0: assembly {\n        /* \"contracts/demo1.sol\":211:2441  contract SizeOf {\r... */\n      mstore(0x40, 0x80)\n      callvalue\n      dup1\n      iszero\n      tag_1\n      jumpi\n      0x00\n      dup1\n      revert\n    tag_1:\n      pop\n      jumpi(tag_2, lt(calldatasize, 0x04))\n      shr(0xe0, calldataload(0x00))\n      dup1\n      0x753792b5\n      eq\n      tag_3\n      jumpi\n    tag_2:\n      0x00\n      dup1\n      revert\n        /* \"contracts/demo1.sol\":554:650  function getData(uint16 _data) public view returns(uint){\r... */\n    tag_3:\n      tag_4\n      0x04\n      dup1\n      calldatasize\n      sub\n      dup2\n      add\n      swap1\n      tag_5\n      swap2\n      swap1\n      tag_6\n      jump\t// in\n    tag_5:\n      tag_7\n      jump\t// in\n    tag_4:\n      mload(0x40)\n      tag_8\n      swap2\n      swap1\n      tag_9\n      jump\t// in\n    tag_8:\n      mload(0x40)\n      dup1\n      swap2\n      sub\n      swap1\n      return\n    tag_7:\n        /* \"contracts/demo1.sol\":605:609  uint */\n      0x00\n        /* \"contracts/demo1.sol\":628:642  getData(_data) */\n      tag_11\n        /* \"contracts/demo1.sol\":636:641  _data */\n      dup3\n        /* \"contracts/demo1.sol\":628:635  getData */\n      tag_7\n        /* \"contracts/demo1.sol\":628:642  getData(_data) */\n      jump\t// in\n    tag_11:\n        /* \"contracts/demo1.sol\":621:642  return getData(_data) */\n      swap1\n      pop\n        /* \"contracts/demo1.sol\":554:650  function getData(uint16 _data) public view returns(uint){\r... */\n      swap2\n      swap1\n      pop\n      jump\t// out\n        /* \"#utility.yul\":7:144   */\n    tag_13:\n        /* \"#utility.yul\":52:57   */\n      0x00\n        /* \"#utility.yul\":90:96   */\n      dup2\n        /* \"#utility.yul\":77:97   */\n      calldataload\n        /* \"#utility.yul\":68:97   */\n      swap1\n      pop\n        /* \"#utility.yul\":106:138   */\n      tag_15\n        /* \"#utility.yul\":132:137   */\n      dup2\n        /* \"#utility.yul\":106:138   */\n      tag_16\n      jump\t// in\n    tag_15:\n        /* \"#utility.yul\":7:144   */\n      swap3\n      swap2\n      pop\n      pop\n      jump\t// out\n        /* \"#utility.yul\":150:477   */\n    tag_6:\n        /* \"#utility.yul\":208:214   */\n      0x00\n        /* \"#utility.yul\":257:259   */\n      0x20\n        /* \"#utility.yul\":245:254   */\n      dup3\n        /* \"#utility.yul\":236:243   */\n      dup5\n        /* \"#utility.yul\":232:255   */\n      sub\n        /* \"#utility.yul\":228:260   */\n      slt\n        /* \"#utility.yul\":225:344   */\n      iszero\n      tag_18\n      jumpi\n        /* \"#utility.yul\":263:342   */\n      tag_19\n      tag_20\n      jump\t// in\n    tag_19:\n        /* \"#utility.yul\":225:344   */\n    tag_18:\n        /* \"#utility.yul\":383:384   */\n      0x00\n        /* \"#utility.yul\":408:460   */\n      tag_21\n        /* \"#utility.yul\":452:459   */\n      dup5\n        /* \"#utility.yul\":443:449   */\n      dup3\n        /* \"#utility.yul\":432:441   */\n      dup6\n        /* \"#utility.yul\":428:450   */\n      add\n        /* \"#utility.yul\":408:460   */\n      tag_13\n      jump\t// in\n    tag_21:\n        /* \"#utility.yul\":398:460   */\n      swap2\n      pop\n        /* \"#utility.yul\":354:470   */\n      pop\n        /* \"#utility.yul\":150:477   */\n      swap3\n      swap2\n      pop\n      pop\n      jump\t// out\n        /* \"#utility.yul\":483:601   */\n    tag_22:\n        /* \"#utility.yul\":570:594   */\n      tag_24\n        /* \"#utility.yul\":588:593   */\n      dup2\n        /* \"#utility.yul\":570:594   */\n      tag_25\n      jump\t// in\n    tag_24:\n        /* \"#utility.yul\":565:568   */\n      dup3\n        /* \"#utility.yul\":558:595   */\n      mstore\n        /* \"#utility.yul\":483:601   */\n      pop\n      pop\n      jump\t// out\n        /* \"#utility.yul\":607:829   */\n    tag_9:\n        /* \"#utility.yul\":700:704   */\n      0x00\n        /* \"#utility.yul\":738:740   */\n      0x20\n        /* \"#utility.yul\":727:736   */\n      dup3\n        /* \"#utility.yul\":723:741   */\n      add\n        /* \"#utility.yul\":715:741   */\n      swap1\n      pop\n        /* \"#utility.yul\":751:822   */\n      tag_27\n        /* \"#utility.yul\":819:820   */\n      0x00\n        /* \"#utility.yul\":808:817   */\n      dup4\n        /* \"#utility.yul\":804:821   */\n      add\n        /* \"#utility.yul\":795:801   */\n      dup5\n        /* \"#utility.yul\":751:822   */\n      tag_22\n      jump\t// in\n    tag_27:\n        /* \"#utility.yul\":607:829   */\n      swap3\n      swap2\n      pop\n      pop\n      jump\t// out\n        /* \"#utility.yul\":916:1005   */\n    tag_30:\n        /* \"#utility.yul\":952:959   */\n      0x00\n        /* \"#utility.yul\":992:998   */\n      0xffff\n        /* \"#utility.yul\":985:990   */\n      dup3\n        /* \"#utility.yul\":981:999   */\n      and\n        /* \"#utility.yul\":970:999   */\n      swap1\n      pop\n        /* \"#utility.yul\":916:1005   */\n      swap2\n      swap1\n      pop\n      jump\t// out\n        /* \"#utility.yul\":1011:1088   */\n    tag_25:\n        /* \"#utility.yul\":1048:1055   */\n      0x00\n        /* \"#utility.yul\":1077:1082   */\n      dup2\n        /* \"#utility.yul\":1066:1082   */\n      swap1\n      pop\n        /* \"#utility.yul\":1011:1088   */\n      swap2\n      swap1\n      pop\n      jump\t// out\n        /* \"#utility.yul\":1217:1334   */\n    tag_20:\n        /* \"#utility.yul\":1326:1327   */\n      0x00\n        /* \"#utility.yul\":1323:1324   */\n      dup1\n        /* \"#utility.yul\":1316:1328   */\n      revert\n        /* \"#utility.yul\":1340:1460   */\n    tag_16:\n        /* \"#utility.yul\":1412:1435   */\n      tag_37\n        /* \"#utility.yul\":1429:1434   */\n      dup2\n        /* \"#utility.yul\":1412:1435   */\n      tag_30\n      jump\t// in\n    tag_37:\n        /* \"#utility.yul\":1405:1410   */\n      dup2\n        /* \"#utility.yul\":1402:1436   */\n      eq\n        /* \"#utility.yul\":1392:1454   */\n      tag_38\n      jumpi\n        /* \"#utility.yul\":1450:1451   */\n      0x00\n        /* \"#utility.yul\":1447:1448   */\n      dup1\n        /* \"#utility.yul\":1440:1452   */\n      revert\n        /* \"#utility.yul\":1392:1454   */\n    tag_38:\n        /* \"#utility.yul\":1340:1460   */\n      pop\n      jump\t// out\n\n    auxdata: 0xa2646970667358221220786099d8861ac6cea5fc5001aa4b4df06f113aff53b2d537158175a072170d8c64736f6c63430008070033\n}\n",
				"bytecode": {
					"linkReferences": {},
					"object": "608060405234801561001057600080fd5b5061012f806100206000396000f3fe6080604052348015600f57600080fd5b506004361060285760003560e01c8063753792b514602d575b600080fd5b60436004803603810190603f9190607a565b6057565b604051604e919060af565b60405180910390f35b60006060826057565b9050919050565b60008135905060748160e5565b92915050565b600060208284031215608d57608c60e0565b5b60006099848285016067565b91505092915050565b60a98160d6565b82525050565b600060208201905060c2600083018460a2565b92915050565b600061ffff82169050919050565b6000819050919050565b600080fd5b60ec8160c8565b811460f657600080fd5b5056fea2646970667358221220786099d8861ac6cea5fc5001aa4b4df06f113aff53b2d537158175a072170d8c64736f6c63430008070033",
					"opcodes": "PUSH1 0x80 PUSH1 0x40 MSTORE CALLVALUE DUP1 ISZERO PUSH2 0x10 JUMPI PUSH1 0x0 DUP1 REVERT JUMPDEST POP PUSH2 0x12F DUP1 PUSH2 0x20 PUSH1 0x0 CODECOPY PUSH1 0x0 RETURN INVALID PUSH1 0x80 PUSH1 0x40 MSTORE CALLVALUE DUP1 ISZERO PUSH1 0xF JUMPI PUSH1 0x0 DUP1 REVERT JUMPDEST POP PUSH1 0x4 CALLDATASIZE LT PUSH1 0x28 JUMPI PUSH1 0x0 CALLDATALOAD PUSH1 0xE0 SHR DUP1 PUSH4 0x753792B5 EQ PUSH1 0x2D JUMPI JUMPDEST PUSH1 0x0 DUP1 REVERT JUMPDEST PUSH1 0x43 PUSH1 0x4 DUP1 CALLDATASIZE SUB DUP2 ADD SWAP1 PUSH1 0x3F SWAP2 SWAP1 PUSH1 0x7A JUMP JUMPDEST PUSH1 0x57 JUMP JUMPDEST PUSH1 0x40 MLOAD PUSH1 0x4E SWAP2 SWAP1 PUSH1 0xAF JUMP JUMPDEST PUSH1 0x40 MLOAD DUP1 SWAP2 SUB SWAP1 RETURN JUMPDEST PUSH1 0x0 PUSH1 0x60 DUP3 PUSH1 0x57 JUMP JUMPDEST SWAP1 POP SWAP2 SWAP1 POP JUMP JUMPDEST PUSH1 0x0 DUP2 CALLDATALOAD SWAP1 POP PUSH1 0x74 DUP2 PUSH1 0xE5 JUMP JUMPDEST SWAP3 SWAP2 POP POP JUMP JUMPDEST PUSH1 0x0 PUSH1 0x20 DUP3 DUP5 SUB SLT ISZERO PUSH1 0x8D JUMPI PUSH1 0x8C PUSH1 0xE0 JUMP JUMPDEST JUMPDEST PUSH1 0x0 PUSH1 0x99 DUP5 DUP3 DUP6 ADD PUSH1 0x67 JUMP JUMPDEST SWAP2 POP POP SWAP3 SWAP2 POP POP JUMP JUMPDEST PUSH1 0xA9 DUP2 PUSH1 0xD6 JUMP JUMPDEST DUP3 MSTORE POP POP JUMP JUMPDEST PUSH1 0x0 PUSH1 0x20 DUP3 ADD SWAP1 POP PUSH1 0xC2 PUSH1 0x0 DUP4 ADD DUP5 PUSH1 0xA2 JUMP JUMPDEST SWAP3 SWAP2 POP POP JUMP JUMPDEST PUSH1 0x0 PUSH2 0xFFFF DUP3 AND SWAP1 POP SWAP2 SWAP1 POP JUMP JUMPDEST PUSH1 0x0 DUP2 SWAP1 POP SWAP2 SWAP1 POP JUMP JUMPDEST PUSH1 0x0 DUP1 REVERT JUMPDEST PUSH1 0xEC DUP2 PUSH1 0xC8 JUMP JUMPDEST DUP2 EQ PUSH1 0xF6 JUMPI PUSH1 0x0 DUP1 REVERT JUMPDEST POP JUMP INVALID LOG2 PUSH5 0x6970667358 0x22 SLT KECCAK256 PUSH25 0x6099D8861AC6CEA5FC5001AA4B4DF06F113AFF53B2D5371581 PUSH22 0xA072170D8C64736F6C63430008070033000000000000 "
				},
				"gasEstimates": {
					"creation": {
						"codeDepositCost": "60600",
						"executionCost": "111",
						"totalCost": "60711"
					},
					"external": {
						"getData(uint16)": "infinite"
					},
					"internal": {
						"sizeOfAddress()": "infinite",
						"sizeOfBool()": "infinite",
						"sizeOfInt(uint16)": "infinite",
						"sizeOfString(string memory)": "infinite",
						"sizeOfUint(uint16)": "infinite"
					}
				},
				"methodIdentifiers": {
					"getData(uint16)": "753792b5"
				}
			},
			"userdoc": {
				"kind": "user",
				"methods": {},
				"version": 1
			}
		}
	}
}