{
	"contracts/demo2.sol": {
		"demo2": {
			"abi": [
				{
					"inputs": [],
					"name": "data1",
					"outputs": [
						{
							"internalType": "bytes",
							"name": "",
							"type": "bytes"
						}
					],
					"stateMutability": "view",
					"type": "function"
				},
				{
					"inputs": [],
					"name": "data2",
					"outputs": [
						{
							"internalType": "bytes32",
							"name": "",
							"type": "bytes32"
						}
					],
					"stateMutability": "view",
					"type": "function"
				},
				{
					"inputs": [],
					"name": "data3",
					"outputs": [
						{
							"internalType": "bytes",
							"name": "",
							"type": "bytes"
						}
					],
					"stateMutability": "view",
					"type": "function"
				},
				{
					"inputs": [
						{
							"internalType": "bool",
							"name": "self",
							"type": "bool"
						}
					],
					"name": "getData",
					"outputs": [
						{
							"internalType": "bytes",
							"name": "",
							"type": "bytes"
						}
					],
					"stateMutability": "view",
					"type": "function"
				}
			],
			"devdoc": {
				"methods": {}
			},
			"evm": {
				"assembly": "    /* \"contracts/demo2.sol\":81:5835  contract demo2 {\r... */\n  mstore(0x40, 0x80)\n    /* \"contracts/demo2.sol\":107:176  bytes public data1 = \"NALEHHJSGDSDGHJSDHSUHDJSHDJSHJSHJSHDSJDHJONGVO\" */\n  mload(0x40)\n  dup1\n  0x60\n  add\n  0x40\n  mstore\n  dup1\n  0x2e\n  dup2\n  mstore\n  0x20\n  add\n  data_4887836e294a2761413359597244d307bbe3f94827f6160d9e1a399e00e2d1be\n  0x2e\n  swap2\n  codecopy\n  0x00\n  swap1\n  dup1\n  mload\n  swap1\n  0x20\n  add\n  swap1\n  tag_1\n  swap3\n  swap2\n  swap1\n  tag_2\n  jump\t// in\ntag_1:\n  pop\n    /* \"contracts/demo2.sol\":187:252  bytes public data3 = \"sdfNAsdfsdfLEHHJSGDSHDJSHJSHJSHDSJDHJONGVO\" */\n  mload(0x40)\n  dup1\n  0x60\n  add\n  0x40\n  mstore\n  dup1\n  0x2a\n  dup2\n  mstore\n  0x20\n  add\n  data_c359735a342ece061e65ab7390d246d1e53ba5f24eea70d6201f1d4a7b2f3475\n  0x2a\n  swap2\n  codecopy\n  0x01\n  swap1\n  dup1\n  mload\n  swap1\n  0x20\n  add\n  swap1\n  tag_3\n  swap3\n  swap2\n  swap1\n  tag_2\n  jump\t// in\ntag_3:\n  pop\n    /* \"contracts/demo2.sol\":263:310  bytes32 public data2 = \"LEHONGVOwjnfvj3weh8vKJ\" */\n  sstore(0x02, 0x4c45484f4e47564f776a6e66766a3377656838764b4a00000000000000000000)\n    /* \"contracts/demo2.sol\":81:5835  contract demo2 {\r... */\n  callvalue\n    /* \"--CODEGEN--\":5:14   */\n  dup1\n    /* \"--CODEGEN--\":2:4   */\n  iszero\n  tag_4\n  jumpi\n    /* \"--CODEGEN--\":27:28   */\n  0x00\n    /* \"--CODEGEN--\":24:25   */\n  dup1\n    /* \"--CODEGEN--\":17:29   */\n  revert\n    /* \"--CODEGEN--\":2:4   */\ntag_4:\n    /* \"contracts/demo2.sol\":81:5835  contract demo2 {\r... */\n  pop\n  jump(tag_5)\ntag_2:\n  dup3\n  dup1\n  sload\n  0x01\n  dup2\n  0x01\n  and\n  iszero\n  0x0100\n  mul\n  sub\n  and\n  0x02\n  swap1\n  div\n  swap1\n  0x00\n  mstore\n  keccak256(0x00, 0x20)\n  swap1\n  0x1f\n  add\n  0x20\n  swap1\n  div\n  dup2\n  add\n  swap3\n  dup3\n  0x1f\n  lt\n  tag_7\n  jumpi\n  dup1\n  mload\n  not(0xff)\n  and\n  dup4\n  dup1\n  add\n  or\n  dup6\n  sstore\n  jump(tag_6)\ntag_7:\n  dup3\n  dup1\n  add\n  0x01\n  add\n  dup6\n  sstore\n  dup3\n  iszero\n  tag_6\n  jumpi\n  swap2\n  dup3\n  add\ntag_8:\n  dup3\n  dup2\n  gt\n  iszero\n  tag_9\n  jumpi\n  dup3\n  mload\n  dup3\n  sstore\n  swap2\n  0x20\n  add\n  swap2\n  swap1\n  0x01\n  add\n  swap1\n  jump(tag_8)\ntag_9:\ntag_6:\n  pop\n  swap1\n  pop\n  tag_10\n  swap2\n  swap1\n  tag_11\n  jump\t// in\ntag_10:\n  pop\n  swap1\n  jump\t// out\ntag_11:\n  tag_12\n  swap2\n  swap1\ntag_13:\n  dup1\n  dup3\n  gt\n  iszero\n  tag_14\n  jumpi\n  0x00\n  dup2\n  0x00\n  swap1\n  sstore\n  pop\n  0x01\n  add\n  jump(tag_13)\ntag_14:\n  pop\n  swap1\n  jump\ntag_12:\n  swap1\n  jump\t// out\ntag_5:\n  dataSize(sub_0)\n  dup1\n  dataOffset(sub_0)\n  0x00\n  codecopy\n  0x00\n  return\nstop\ndata_4887836e294a2761413359597244d307bbe3f94827f6160d9e1a399e00e2d1be 4e414c4548484a534744534447484a534448535548444a5348444a53484a53484a534844534a44484a4f4e47564f\ndata_c359735a342ece061e65ab7390d246d1e53ba5f24eea70d6201f1d4a7b2f3475 7364664e417364667364664c4548484a5347445348444a53484a53484a534844534a44484a4f4e47564f\n\nsub_0: assembly {\n        /* \"contracts/demo2.sol\":81:5835  contract demo2 {\r... */\n      mstore(0x40, 0x80)\n      callvalue\n        /* \"--CODEGEN--\":5:14   */\n      dup1\n        /* \"--CODEGEN--\":2:4   */\n      iszero\n      tag_1\n      jumpi\n        /* \"--CODEGEN--\":27:28   */\n      0x00\n        /* \"--CODEGEN--\":24:25   */\n      dup1\n        /* \"--CODEGEN--\":17:29   */\n      revert\n        /* \"--CODEGEN--\":2:4   */\n    tag_1:\n        /* \"contracts/demo2.sol\":81:5835  contract demo2 {\r... */\n      pop\n      jumpi(tag_2, lt(calldatasize, 0x04))\n      shr(0xe0, calldataload(0x00))\n      dup1\n      0x9ffd85c4\n      eq\n      tag_3\n      jumpi\n      dup1\n      0xa1973084\n      eq\n      tag_4\n      jumpi\n      dup1\n      0xe3a7fd75\n      eq\n      tag_5\n      jumpi\n      dup1\n      0xfc26b0ab\n      eq\n      tag_6\n      jumpi\n    tag_2:\n        /* \"--CODEGEN--\":12:13   */\n      0x00\n        /* \"--CODEGEN--\":9:10   */\n      dup1\n        /* \"--CODEGEN--\":2:14   */\n      revert\n        /* \"contracts/demo2.sol\":107:176  bytes public data1 = \"NALEHHJSGDSDGHJSDHSUHDJSHDJSHJSHJSHDSJDHJONGVO\" */\n    tag_3:\n      tag_7\n      tag_8\n      jump\t// in\n    tag_7:\n      mload(0x40)\n      tag_9\n      swap2\n      swap1\n      jump(tag_10)\n    tag_9:\n      mload(0x40)\n      dup1\n      swap2\n      sub\n      swap1\n      return\n        /* \"contracts/demo2.sol\":369:481  function getData(bool self) public view returns(bytes memory) {\r... */\n    tag_4:\n      tag_11\n      0x04\n      dup1\n      calldatasize\n      sub\n      dup2\n      add\n      swap1\n      tag_12\n      swap2\n      swap1\n      jump(tag_13)\n    tag_12:\n      tag_14\n      jump\t// in\n    tag_11:\n      mload(0x40)\n      tag_15\n      swap2\n      swap1\n      jump(tag_16)\n    tag_15:\n      mload(0x40)\n      dup1\n      swap2\n      sub\n      swap1\n      return\n        /* \"contracts/demo2.sol\":263:310  bytes32 public data2 = \"LEHONGVOwjnfvj3weh8vKJ\" */\n    tag_5:\n      tag_17\n      tag_18\n      jump\t// in\n    tag_17:\n      mload(0x40)\n      tag_19\n      swap2\n      swap1\n      jump(tag_20)\n    tag_19:\n      mload(0x40)\n      dup1\n      swap2\n      sub\n      swap1\n      return\n        /* \"contracts/demo2.sol\":187:252  bytes public data3 = \"sdfNAsdfsdfLEHHJSGDSHDJSHJSHJSHDSJDHJONGVO\" */\n    tag_6:\n      tag_21\n      tag_22\n      jump\t// in\n    tag_21:\n      mload(0x40)\n      tag_23\n      swap2\n      swap1\n      jump(tag_10)\n    tag_23:\n      mload(0x40)\n      dup1\n      swap2\n      sub\n      swap1\n      return\n        /* \"contracts/demo2.sol\":107:176  bytes public data1 = \"NALEHHJSGDSDGHJSDHSUHDJSHDJSHJSHJSHDSJDHJONGVO\" */\n    tag_8:\n      0x00\n      dup1\n      sload\n      0x01\n      dup2\n      0x01\n      and\n      iszero\n      0x0100\n      mul\n      sub\n      and\n      0x02\n      swap1\n      div\n      dup1\n      0x1f\n      add\n      0x20\n      dup1\n      swap2\n      div\n      mul\n      0x20\n      add\n      mload(0x40)\n      swap1\n      dup2\n      add\n      0x40\n      mstore\n      dup1\n      swap3\n      swap2\n      swap1\n      dup2\n      dup2\n      mstore\n      0x20\n      add\n      dup3\n      dup1\n      sload\n      0x01\n      dup2\n      0x01\n      and\n      iszero\n      0x0100\n      mul\n      sub\n      and\n      0x02\n      swap1\n      div\n      dup1\n      iszero\n      tag_24\n      jumpi\n      dup1\n      0x1f\n      lt\n      tag_25\n      jumpi\n      0x0100\n      dup1\n      dup4\n      sload\n      div\n      mul\n      dup4\n      mstore\n      swap2\n      0x20\n      add\n      swap2\n      jump(tag_24)\n    tag_25:\n      dup3\n      add\n      swap2\n      swap1\n      0x00\n      mstore\n      keccak256(0x00, 0x20)\n      swap1\n    tag_26:\n      dup2\n      sload\n      dup2\n      mstore\n      swap1\n      0x01\n      add\n      swap1\n      0x20\n      add\n      dup1\n      dup4\n      gt\n      tag_26\n      jumpi\n      dup3\n      swap1\n      sub\n      0x1f\n      and\n      dup3\n      add\n      swap2\n    tag_24:\n      pop\n      pop\n      pop\n      pop\n      pop\n      dup2\n      jump\t// out\n        /* \"contracts/demo2.sol\":369:481  function getData(bool self) public view returns(bytes memory) {\r... */\n    tag_14:\n        /* \"contracts/demo2.sol\":417:429  bytes memory */\n      0x60\n        /* \"contracts/demo2.sol\":453:469  encodeBool(self) */\n      tag_28\n        /* \"contracts/demo2.sol\":464:468  self */\n      dup3\n        /* \"contracts/demo2.sol\":453:463  encodeBool */\n      tag_29\n        /* \"contracts/demo2.sol\":453:469  encodeBool(self) */\n      jump\t// in\n    tag_28:\n        /* \"contracts/demo2.sol\":446:469  return encodeBool(self) */\n      swap1\n      pop\n        /* \"contracts/demo2.sol\":369:481  function getData(bool self) public view returns(bytes memory) {\r... */\n      swap2\n      swap1\n      pop\n      jump\t// out\n        /* \"contracts/demo2.sol\":263:310  bytes32 public data2 = \"LEHONGVOwjnfvj3weh8vKJ\" */\n    tag_18:\n      sload(0x02)\n      dup2\n      jump\t// out\n        /* \"contracts/demo2.sol\":187:252  bytes public data3 = \"sdfNAsdfsdfLEHHJSGDSHDJSHJSHJSHDSJDHJONGVO\" */\n    tag_22:\n      0x01\n      dup1\n      sload\n      0x01\n      dup2\n      0x01\n      and\n      iszero\n      0x0100\n      mul\n      sub\n      and\n      0x02\n      swap1\n      div\n      dup1\n      0x1f\n      add\n      0x20\n      dup1\n      swap2\n      div\n      mul\n      0x20\n      add\n      mload(0x40)\n      swap1\n      dup2\n      add\n      0x40\n      mstore\n      dup1\n      swap3\n      swap2\n      swap1\n      dup2\n      dup2\n      mstore\n      0x20\n      add\n      dup3\n      dup1\n      sload\n      0x01\n      dup2\n      0x01\n      and\n      iszero\n      0x0100\n      mul\n      sub\n      and\n      0x02\n      swap1\n      div\n      dup1\n      iszero\n      tag_30\n      jumpi\n      dup1\n      0x1f\n      lt\n      tag_31\n      jumpi\n      0x0100\n      dup1\n      dup4\n      sload\n      div\n      mul\n      dup4\n      mstore\n      swap2\n      0x20\n      add\n      swap2\n      jump(tag_30)\n    tag_31:\n      dup3\n      add\n      swap2\n      swap1\n      0x00\n      mstore\n      keccak256(0x00, 0x20)\n      swap1\n    tag_32:\n      dup2\n      sload\n      dup2\n      mstore\n      swap1\n      0x01\n      add\n      swap1\n      0x20\n      add\n      dup1\n      dup4\n      gt\n      tag_32\n      jumpi\n      dup3\n      swap1\n      sub\n      0x1f\n      and\n      dup3\n      add\n      swap2\n    tag_30:\n      pop\n      pop\n      pop\n      pop\n      pop\n      dup2\n      jump\t// out\n        /* \"contracts/demo2.sol\":548:780  function encodeBool(bool self) internal pure returns (bytes memory) {\r... */\n    tag_29:\n        /* \"contracts/demo2.sol\":602:614  bytes memory */\n      0x60\n        /* \"contracts/demo2.sol\":631:646  bytes memory rs */\n      dup1\n        /* \"contracts/demo2.sol\":659:660  1 */\n      0x01\n        /* \"contracts/demo2.sol\":649:661  new bytes(1) */\n      mload(0x40)\n      swap1\n      dup1\n      dup3\n      mstore\n      dup1\n      0x1f\n      add\n      not(0x1f)\n      and\n      0x20\n      add\n      dup3\n      add\n      0x40\n      mstore\n      dup1\n      iszero\n      tag_34\n      jumpi\n      dup2\n      0x20\n      add\n        /* \"--CODEGEN--\":29:30   */\n      0x01\n        /* \"--CODEGEN--\":21:27   */\n      dup3\n        /* \"--CODEGEN--\":17:31   */\n      mul\n        /* \"--CODEGEN--\":124:128   */\n      dup1\n        /* \"--CODEGEN--\":108:122   */\n      calldatasize\n        /* \"--CODEGEN--\":100:106   */\n      dup4\n        /* \"--CODEGEN--\":87:129   */\n      calldatacopy\n        /* \"--CODEGEN--\":155:159   */\n      dup1\n        /* \"--CODEGEN--\":147:153   */\n      dup3\n        /* \"--CODEGEN--\":143:160   */\n      add\n        /* \"--CODEGEN--\":133:160   */\n      swap2\n      pop\n        /* \"--CODEGEN--\":0:164   */\n      pop\n        /* \"contracts/demo2.sol\":649:661  new bytes(1) */\n      swap1\n      pop\n    tag_34:\n      pop\n        /* \"contracts/demo2.sol\":631:661  bytes memory rs = new bytes(1) */\n      swap1\n      pop\n        /* \"contracts/demo2.sol\":680:684  self */\n      dup3\n        /* \"contracts/demo2.sol\":676:745  if (self) {\r... */\n      iszero\n      tag_35\n      jumpi\n        /* \"contracts/demo2.sol\":726:727  1 */\n      0x01\n        /* \"contracts/demo2.sol\":713:729  bytes1(uint8(1)) */\n      0xf8\n      shl\n        /* \"contracts/demo2.sol\":705:707  rs */\n      dup2\n        /* \"contracts/demo2.sol\":708:709  0 */\n      0x00\n        /* \"contracts/demo2.sol\":705:710  rs[0] */\n      dup2\n      mload\n      dup2\n      lt\n      tag_36\n      jumpi\n      invalid\n    tag_36:\n      0x20\n      add\n      add\n        /* \"contracts/demo2.sol\":705:729  rs[0] = bytes1(uint8(1)) */\n      swap1\n      not(0xffffffffffffffffffffffffffffffffffffffffffffffffffffffffffffff)\n      and\n      swap1\n      dup2\n      0x00\n      byte\n      swap1\n      mstore8\n      pop\n        /* \"contracts/demo2.sol\":676:745  if (self) {\r... */\n    tag_35:\n        /* \"contracts/demo2.sol\":766:768  rs */\n      dup1\n        /* \"contracts/demo2.sol\":759:768  return rs */\n      swap2\n      pop\n      pop\n        /* \"contracts/demo2.sol\":548:780  function encodeBool(bool self) internal pure returns (bytes memory) {\r... */\n      swap2\n      swap1\n      pop\n      jump\t// out\n        /* \"--CODEGEN--\":5:129   */\n    tag_38:\n      0x00\n        /* \"--CODEGEN--\":82:88   */\n      dup2\n        /* \"--CODEGEN--\":69:89   */\n      calldataload\n        /* \"--CODEGEN--\":60:89   */\n      swap1\n      pop\n        /* \"--CODEGEN--\":94:124   */\n      tag_40\n        /* \"--CODEGEN--\":118:123   */\n      dup2\n        /* \"--CODEGEN--\":94:124   */\n      jump(tag_41)\n    tag_40:\n        /* \"--CODEGEN--\":54:129   */\n      swap3\n      swap2\n      pop\n      pop\n      jump\n        /* \"--CODEGEN--\":136:371   */\n    tag_13:\n      0x00\n        /* \"--CODEGEN--\":237:239   */\n      0x20\n        /* \"--CODEGEN--\":225:234   */\n      dup3\n        /* \"--CODEGEN--\":216:223   */\n      dup5\n        /* \"--CODEGEN--\":212:235   */\n      sub\n        /* \"--CODEGEN--\":208:240   */\n      slt\n        /* \"--CODEGEN--\":205:207   */\n      iszero\n      tag_43\n      jumpi\n        /* \"--CODEGEN--\":253:254   */\n      0x00\n        /* \"--CODEGEN--\":250:251   */\n      dup1\n        /* \"--CODEGEN--\":243:255   */\n      revert\n        /* \"--CODEGEN--\":205:207   */\n    tag_43:\n        /* \"--CODEGEN--\":288:289   */\n      0x00\n        /* \"--CODEGEN--\":305:355   */\n      tag_44\n        /* \"--CODEGEN--\":347:354   */\n      dup5\n        /* \"--CODEGEN--\":338:344   */\n      dup3\n        /* \"--CODEGEN--\":327:336   */\n      dup6\n        /* \"--CODEGEN--\":323:345   */\n      add\n        /* \"--CODEGEN--\":305:355   */\n      jump(tag_38)\n    tag_44:\n        /* \"--CODEGEN--\":295:355   */\n      swap2\n      pop\n        /* \"--CODEGEN--\":267:361   */\n      pop\n        /* \"--CODEGEN--\":199:371   */\n      swap3\n      swap2\n      pop\n      pop\n      jump\n        /* \"--CODEGEN--\":378:491   */\n    tag_45:\n        /* \"--CODEGEN--\":461:485   */\n      tag_47\n        /* \"--CODEGEN--\":479:484   */\n      dup2\n        /* \"--CODEGEN--\":461:485   */\n      jump(tag_48)\n    tag_47:\n        /* \"--CODEGEN--\":456:459   */\n      dup3\n        /* \"--CODEGEN--\":449:486   */\n      mstore\n        /* \"--CODEGEN--\":443:491   */\n      pop\n      pop\n      jump\n        /* \"--CODEGEN--\":498:841   */\n    tag_49:\n      0x00\n        /* \"--CODEGEN--\":608:646   */\n      tag_51\n        /* \"--CODEGEN--\":640:645   */\n      dup3\n        /* \"--CODEGEN--\":608:646   */\n      jump(tag_52)\n    tag_51:\n        /* \"--CODEGEN--\":658:728   */\n      tag_53\n        /* \"--CODEGEN--\":721:727   */\n      dup2\n        /* \"--CODEGEN--\":716:719   */\n      dup6\n        /* \"--CODEGEN--\":658:728   */\n      jump(tag_54)\n    tag_53:\n        /* \"--CODEGEN--\":651:728   */\n      swap4\n      pop\n        /* \"--CODEGEN--\":733:785   */\n      tag_55\n        /* \"--CODEGEN--\":778:784   */\n      dup2\n        /* \"--CODEGEN--\":773:776   */\n      dup6\n        /* \"--CODEGEN--\":766:770   */\n      0x20\n        /* \"--CODEGEN--\":759:764   */\n      dup7\n        /* \"--CODEGEN--\":755:771   */\n      add\n        /* \"--CODEGEN--\":733:785   */\n      jump(tag_56)\n    tag_55:\n        /* \"--CODEGEN--\":806:835   */\n      tag_57\n        /* \"--CODEGEN--\":828:834   */\n      dup2\n        /* \"--CODEGEN--\":806:835   */\n      jump(tag_58)\n    tag_57:\n        /* \"--CODEGEN--\":801:804   */\n      dup5\n        /* \"--CODEGEN--\":797:836   */\n      add\n        /* \"--CODEGEN--\":790:836   */\n      swap2\n      pop\n        /* \"--CODEGEN--\":588:841   */\n      pop\n      swap3\n      swap2\n      pop\n      pop\n      jump\n        /* \"--CODEGEN--\":848:1183   */\n    tag_59:\n      0x00\n        /* \"--CODEGEN--\":954:988   */\n      tag_61\n        /* \"--CODEGEN--\":982:987   */\n      dup3\n        /* \"--CODEGEN--\":954:988   */\n      jump(tag_62)\n    tag_61:\n        /* \"--CODEGEN--\":1000:1070   */\n      tag_63\n        /* \"--CODEGEN--\":1063:1069   */\n      dup2\n        /* \"--CODEGEN--\":1058:1061   */\n      dup6\n        /* \"--CODEGEN--\":1000:1070   */\n      jump(tag_54)\n    tag_63:\n        /* \"--CODEGEN--\":993:1070   */\n      swap4\n      pop\n        /* \"--CODEGEN--\":1075:1127   */\n      tag_64\n        /* \"--CODEGEN--\":1120:1126   */\n      dup2\n        /* \"--CODEGEN--\":1115:1118   */\n      dup6\n        /* \"--CODEGEN--\":1108:1112   */\n      0x20\n        /* \"--CODEGEN--\":1101:1106   */\n      dup7\n        /* \"--CODEGEN--\":1097:1113   */\n      add\n        /* \"--CODEGEN--\":1075:1127   */\n      jump(tag_56)\n    tag_64:\n        /* \"--CODEGEN--\":1148:1177   */\n      tag_65\n        /* \"--CODEGEN--\":1170:1176   */\n      dup2\n        /* \"--CODEGEN--\":1148:1177   */\n      jump(tag_58)\n    tag_65:\n        /* \"--CODEGEN--\":1143:1146   */\n      dup5\n        /* \"--CODEGEN--\":1139:1178   */\n      add\n        /* \"--CODEGEN--\":1132:1178   */\n      swap2\n      pop\n        /* \"--CODEGEN--\":934:1183   */\n      pop\n      swap3\n      swap2\n      pop\n      pop\n      jump\n        /* \"--CODEGEN--\":1190:1403   */\n    tag_20:\n      0x00\n        /* \"--CODEGEN--\":1308:1310   */\n      0x20\n        /* \"--CODEGEN--\":1297:1306   */\n      dup3\n        /* \"--CODEGEN--\":1293:1311   */\n      add\n        /* \"--CODEGEN--\":1285:1311   */\n      swap1\n      pop\n        /* \"--CODEGEN--\":1322:1393   */\n      tag_67\n        /* \"--CODEGEN--\":1390:1391   */\n      0x00\n        /* \"--CODEGEN--\":1379:1388   */\n      dup4\n        /* \"--CODEGEN--\":1375:1392   */\n      add\n        /* \"--CODEGEN--\":1366:1372   */\n      dup5\n        /* \"--CODEGEN--\":1322:1393   */\n      jump(tag_45)\n    tag_67:\n        /* \"--CODEGEN--\":1279:1403   */\n      swap3\n      swap2\n      pop\n      pop\n      jump\n        /* \"--CODEGEN--\":1410:1699   */\n    tag_10:\n      0x00\n        /* \"--CODEGEN--\":1542:1544   */\n      0x20\n        /* \"--CODEGEN--\":1531:1540   */\n      dup3\n        /* \"--CODEGEN--\":1527:1545   */\n      add\n        /* \"--CODEGEN--\":1519:1545   */\n      swap1\n      pop\n        /* \"--CODEGEN--\":1592:1601   */\n      dup2\n        /* \"--CODEGEN--\":1586:1590   */\n      dup2\n        /* \"--CODEGEN--\":1582:1602   */\n      sub\n        /* \"--CODEGEN--\":1578:1579   */\n      0x00\n        /* \"--CODEGEN--\":1567:1576   */\n      dup4\n        /* \"--CODEGEN--\":1563:1580   */\n      add\n        /* \"--CODEGEN--\":1556:1603   */\n      mstore\n        /* \"--CODEGEN--\":1617:1689   */\n      tag_69\n        /* \"--CODEGEN--\":1684:1688   */\n      dup2\n        /* \"--CODEGEN--\":1675:1681   */\n      dup5\n        /* \"--CODEGEN--\":1617:1689   */\n      jump(tag_59)\n    tag_69:\n        /* \"--CODEGEN--\":1609:1689   */\n      swap1\n      pop\n        /* \"--CODEGEN--\":1513:1699   */\n      swap3\n      swap2\n      pop\n      pop\n      jump\n        /* \"--CODEGEN--\":1706:2003   */\n    tag_16:\n      0x00\n        /* \"--CODEGEN--\":1842:1844   */\n      0x20\n        /* \"--CODEGEN--\":1831:1840   */\n      dup3\n        /* \"--CODEGEN--\":1827:1845   */\n      add\n        /* \"--CODEGEN--\":1819:1845   */\n      swap1\n      pop\n        /* \"--CODEGEN--\":1892:1901   */\n      dup2\n        /* \"--CODEGEN--\":1886:1890   */\n      dup2\n        /* \"--CODEGEN--\":1882:1902   */\n      sub\n        /* \"--CODEGEN--\":1878:1879   */\n      0x00\n        /* \"--CODEGEN--\":1867:1876   */\n      dup4\n        /* \"--CODEGEN--\":1863:1880   */\n      add\n        /* \"--CODEGEN--\":1856:1903   */\n      mstore\n        /* \"--CODEGEN--\":1917:1993   */\n      tag_71\n        /* \"--CODEGEN--\":1988:1992   */\n      dup2\n        /* \"--CODEGEN--\":1979:1985   */\n      dup5\n        /* \"--CODEGEN--\":1917:1993   */\n      jump(tag_49)\n    tag_71:\n        /* \"--CODEGEN--\":1909:1993   */\n      swap1\n      pop\n        /* \"--CODEGEN--\":1813:2003   */\n      swap3\n      swap2\n      pop\n      pop\n      jump\n        /* \"--CODEGEN--\":2010:2127   */\n    tag_62:\n      0x00\n        /* \"--CODEGEN--\":2099:2104   */\n      dup2\n        /* \"--CODEGEN--\":2093:2105   */\n      mload\n        /* \"--CODEGEN--\":2083:2105   */\n      swap1\n      pop\n        /* \"--CODEGEN--\":2064:2127   */\n      swap2\n      swap1\n      pop\n      jump\n        /* \"--CODEGEN--\":2134:2255   */\n    tag_52:\n      0x00\n        /* \"--CODEGEN--\":2227:2232   */\n      dup2\n        /* \"--CODEGEN--\":2221:2233   */\n      mload\n        /* \"--CODEGEN--\":2211:2233   */\n      swap1\n      pop\n        /* \"--CODEGEN--\":2192:2255   */\n      swap2\n      swap1\n      pop\n      jump\n        /* \"--CODEGEN--\":2263:2425   */\n    tag_54:\n      0x00\n        /* \"--CODEGEN--\":2377:2383   */\n      dup3\n        /* \"--CODEGEN--\":2372:2375   */\n      dup3\n        /* \"--CODEGEN--\":2365:2384   */\n      mstore\n        /* \"--CODEGEN--\":2414:2418   */\n      0x20\n        /* \"--CODEGEN--\":2409:2412   */\n      dup3\n        /* \"--CODEGEN--\":2405:2419   */\n      add\n        /* \"--CODEGEN--\":2390:2419   */\n      swap1\n      pop\n        /* \"--CODEGEN--\":2358:2425   */\n      swap3\n      swap2\n      pop\n      pop\n      jump\n        /* \"--CODEGEN--\":2433:2518   */\n    tag_75:\n      0x00\n        /* \"--CODEGEN--\":2506:2511   */\n      dup2\n        /* \"--CODEGEN--\":2499:2512   */\n      iszero\n        /* \"--CODEGEN--\":2492:2513   */\n      iszero\n        /* \"--CODEGEN--\":2481:2513   */\n      swap1\n      pop\n        /* \"--CODEGEN--\":2475:2518   */\n      swap2\n      swap1\n      pop\n      jump\n        /* \"--CODEGEN--\":2525:2597   */\n    tag_48:\n      0x00\n        /* \"--CODEGEN--\":2587:2592   */\n      dup2\n        /* \"--CODEGEN--\":2576:2592   */\n      swap1\n      pop\n        /* \"--CODEGEN--\":2570:2597   */\n      swap2\n      swap1\n      pop\n      jump\n        /* \"--CODEGEN--\":2605:2873   */\n    tag_56:\n        /* \"--CODEGEN--\":2670:2671   */\n      0x00\n        /* \"--CODEGEN--\":2677:2778   */\n    tag_79:\n        /* \"--CODEGEN--\":2691:2697   */\n      dup4\n        /* \"--CODEGEN--\":2688:2689   */\n      dup2\n        /* \"--CODEGEN--\":2685:2698   */\n      lt\n        /* \"--CODEGEN--\":2677:2778   */\n      iszero\n      tag_81\n      jumpi\n        /* \"--CODEGEN--\":2767:2768   */\n      dup1\n        /* \"--CODEGEN--\":2762:2765   */\n      dup3\n        /* \"--CODEGEN--\":2758:2769   */\n      add\n        /* \"--CODEGEN--\":2752:2770   */\n      mload\n        /* \"--CODEGEN--\":2748:2749   */\n      dup2\n        /* \"--CODEGEN--\":2743:2746   */\n      dup5\n        /* \"--CODEGEN--\":2739:2750   */\n      add\n        /* \"--CODEGEN--\":2732:2771   */\n      mstore\n        /* \"--CODEGEN--\":2713:2715   */\n      0x20\n        /* \"--CODEGEN--\":2710:2711   */\n      dup2\n        /* \"--CODEGEN--\":2706:2716   */\n      add\n        /* \"--CODEGEN--\":2701:2716   */\n      swap1\n      pop\n        /* \"--CODEGEN--\":2677:2778   */\n      jump(tag_79)\n    tag_81:\n        /* \"--CODEGEN--\":2793:2799   */\n      dup4\n        /* \"--CODEGEN--\":2790:2791   */\n      dup2\n        /* \"--CODEGEN--\":2787:2800   */\n      gt\n        /* \"--CODEGEN--\":2784:2786   */\n      iszero\n      tag_82\n      jumpi\n        /* \"--CODEGEN--\":2858:2859   */\n      0x00\n        /* \"--CODEGEN--\":2849:2855   */\n      dup5\n        /* \"--CODEGEN--\":2844:2847   */\n      dup5\n        /* \"--CODEGEN--\":2840:2856   */\n      add\n        /* \"--CODEGEN--\":2833:2860   */\n      mstore\n        /* \"--CODEGEN--\":2784:2786   */\n    tag_82:\n        /* \"--CODEGEN--\":2654:2873   */\n      pop\n      pop\n      pop\n      pop\n      jump\n        /* \"--CODEGEN--\":2881:2978   */\n    tag_58:\n      0x00\n        /* \"--CODEGEN--\":2969:2971   */\n      0x1f\n        /* \"--CODEGEN--\":2965:2972   */\n      not\n        /* \"--CODEGEN--\":2960:2962   */\n      0x1f\n        /* \"--CODEGEN--\":2953:2958   */\n      dup4\n        /* \"--CODEGEN--\":2949:2963   */\n      add\n        /* \"--CODEGEN--\":2945:2973   */\n      and\n        /* \"--CODEGEN--\":2935:2973   */\n      swap1\n      pop\n        /* \"--CODEGEN--\":2929:2978   */\n      swap2\n      swap1\n      pop\n      jump\n        /* \"--CODEGEN--\":2986:3097   */\n    tag_41:\n        /* \"--CODEGEN--\":3052:3073   */\n      tag_85\n        /* \"--CODEGEN--\":3067:3072   */\n      dup2\n        /* \"--CODEGEN--\":3052:3073   */\n      jump(tag_75)\n    tag_85:\n        /* \"--CODEGEN--\":3045:3050   */\n      dup2\n        /* \"--CODEGEN--\":3042:3074   */\n      eq\n        /* \"--CODEGEN--\":3032:3034   */\n      tag_86\n      jumpi\n        /* \"--CODEGEN--\":3088:3089   */\n      0x00\n        /* \"--CODEGEN--\":3085:3086   */\n      dup1\n        /* \"--CODEGEN--\":3078:3090   */\n      revert\n        /* \"--CODEGEN--\":3032:3034   */\n    tag_86:\n        /* \"--CODEGEN--\":3026:3097   */\n      pop\n      jump\n\n    auxdata: 0xa26469706673582212202cc33cdd06ffa8ee135f09116e62862c8b5188b883763a19b8154d2112b18b9b64736f6c63430006040033\n}\n",
				"bytecode": {
					"linkReferences": {},
					"object": "60806040526040518060600160405280602e81526020016105f2602e913960009080519060200190610032929190610098565b506040518060600160405280602a8152602001610620602a913960019080519060200190610061929190610098565b507f4c45484f4e47564f776a6e66766a3377656838764b4a0000000000000000000060025534801561009257600080fd5b5061013d565b828054600181600116156101000203166002900490600052602060002090601f016020900481019282601f106100d957805160ff1916838001178555610107565b82800160010185558215610107579182015b828111156101065782518255916020019190600101906100eb565b5b5090506101149190610118565b5090565b61013a91905b8082111561013657600081600090555060010161011e565b5090565b90565b6104a68061014c6000396000f3fe608060405234801561001057600080fd5b506004361061004c5760003560e01c80639ffd85c414610051578063a19730841461006f578063e3a7fd751461009f578063fc26b0ab146100bd575b600080fd5b6100596100db565b6040516100669190610394565b60405180910390f35b610089600480360381019061008491906102cf565b610179565b60405161009691906103b6565b60405180910390f35b6100a761018b565b6040516100b49190610379565b60405180910390f35b6100c5610191565b6040516100d29190610394565b60405180910390f35b60008054600181600116156101000203166002900480601f0160208091040260200160405190810160405280929190818152602001828054600181600116156101000203166002900480156101715780601f1061014657610100808354040283529160200191610171565b820191906000526020600020905b81548152906001019060200180831161015457829003601f168201915b505050505081565b60606101848261022f565b9050919050565b60025481565b60018054600181600116156101000203166002900480601f0160208091040260200160405190810160405280929190818152602001828054600181600116156101000203166002900480156102275780601f106101fc57610100808354040283529160200191610227565b820191906000526020600020905b81548152906001019060200180831161020a57829003601f168201915b505050505081565b60608060016040519080825280601f01601f1916602001820160405280156102665781602001600182028036833780820191505090505b50905082156102b157600160f81b8160008151811061028157fe5b60200101907effffffffffffffffffffffffffffffffffffffffffffffffffffffffffffff1916908160001a9053505b80915050919050565b6000813590506102c981610459565b92915050565b6000602082840312156102e157600080fd5b60006102ef848285016102ba565b91505092915050565b6103018161040b565b82525050565b6000610312826103e3565b61031c81856103ee565b935061032c818560208601610415565b61033581610448565b840191505092915050565b600061034b826103d8565b61035581856103ee565b9350610365818560208601610415565b61036e81610448565b840191505092915050565b600060208201905061038e60008301846102f8565b92915050565b600060208201905081810360008301526103ae8184610340565b905092915050565b600060208201905081810360008301526103d08184610307565b905092915050565b600081519050919050565b600081519050919050565b600082825260208201905092915050565b60008115159050919050565b6000819050919050565b60005b83811015610433578082015181840152602081019050610418565b83811115610442576000848401525b50505050565b6000601f19601f8301169050919050565b610462816103ff565b811461046d57600080fd5b5056fea26469706673582212202cc33cdd06ffa8ee135f09116e62862c8b5188b883763a19b8154d2112b18b9b64736f6c634300060400334e414c4548484a534744534447484a534448535548444a5348444a53484a53484a534844534a44484a4f4e47564f7364664e417364667364664c4548484a5347445348444a53484a53484a534844534a44484a4f4e47564f",
					"opcodes": "PUSH1 0x80 PUSH1 0x40 MSTORE PUSH1 0x40 MLOAD DUP1 PUSH1 0x60 ADD PUSH1 0x40 MSTORE DUP1 PUSH1 0x2E DUP2 MSTORE PUSH1 0x20 ADD PUSH2 0x5F2 PUSH1 0x2E SWAP2 CODECOPY PUSH1 0x0 SWAP1 DUP1 MLOAD SWAP1 PUSH1 0x20 ADD SWAP1 PUSH2 0x32 SWAP3 SWAP2 SWAP1 PUSH2 0x98 JUMP JUMPDEST POP PUSH1 0x40 MLOAD DUP1 PUSH1 0x60 ADD PUSH1 0x40 MSTORE DUP1 PUSH1 0x2A DUP2 MSTORE PUSH1 0x20 ADD PUSH2 0x620 PUSH1 0x2A SWAP2 CODECOPY PUSH1 0x1 SWAP1 DUP1 MLOAD SWAP1 PUSH1 0x20 ADD SWAP1 PUSH2 0x61 SWAP3 SWAP2 SWAP1 PUSH2 0x98 JUMP JUMPDEST POP PUSH32 0x4C45484F4E47564F776A6E66766A3377656838764B4A00000000000000000000 PUSH1 0x2 SSTORE CALLVALUE DUP1 ISZERO PUSH2 0x92 JUMPI PUSH1 0x0 DUP1 REVERT JUMPDEST POP PUSH2 0x13D JUMP JUMPDEST DUP3 DUP1 SLOAD PUSH1 0x1 DUP2 PUSH1 0x1 AND ISZERO PUSH2 0x100 MUL SUB AND PUSH1 0x2 SWAP1 DIV SWAP1 PUSH1 0x0 MSTORE PUSH1 0x20 PUSH1 0x0 KECCAK256 SWAP1 PUSH1 0x1F ADD PUSH1 0x20 SWAP1 DIV DUP2 ADD SWAP3 DUP3 PUSH1 0x1F LT PUSH2 0xD9 JUMPI DUP1 MLOAD PUSH1 0xFF NOT AND DUP4 DUP1 ADD OR DUP6 SSTORE PUSH2 0x107 JUMP JUMPDEST DUP3 DUP1 ADD PUSH1 0x1 ADD DUP6 SSTORE DUP3 ISZERO PUSH2 0x107 JUMPI SWAP2 DUP3 ADD JUMPDEST DUP3 DUP2 GT ISZERO PUSH2 0x106 JUMPI DUP3 MLOAD DUP3 SSTORE SWAP2 PUSH1 0x20 ADD SWAP2 SWAP1 PUSH1 0x1 ADD SWAP1 PUSH2 0xEB JUMP JUMPDEST JUMPDEST POP SWAP1 POP PUSH2 0x114 SWAP2 SWAP1 PUSH2 0x118 JUMP JUMPDEST POP SWAP1 JUMP JUMPDEST PUSH2 0x13A SWAP2 SWAP1 JUMPDEST DUP1 DUP3 GT ISZERO PUSH2 0x136 JUMPI PUSH1 0x0 DUP2 PUSH1 0x0 SWAP1 SSTORE POP PUSH1 0x1 ADD PUSH2 0x11E JUMP JUMPDEST POP SWAP1 JUMP JUMPDEST SWAP1 JUMP JUMPDEST PUSH2 0x4A6 DUP1 PUSH2 0x14C PUSH1 0x0 CODECOPY PUSH1 0x0 RETURN INVALID PUSH1 0x80 PUSH1 0x40 MSTORE CALLVALUE DUP1 ISZERO PUSH2 0x10 JUMPI PUSH1 0x0 DUP1 REVERT JUMPDEST POP PUSH1 0x4 CALLDATASIZE LT PUSH2 0x4C JUMPI PUSH1 0x0 CALLDATALOAD PUSH1 0xE0 SHR DUP1 PUSH4 0x9FFD85C4 EQ PUSH2 0x51 JUMPI DUP1 PUSH4 0xA1973084 EQ PUSH2 0x6F JUMPI DUP1 PUSH4 0xE3A7FD75 EQ PUSH2 0x9F JUMPI DUP1 PUSH4 0xFC26B0AB EQ PUSH2 0xBD JUMPI JUMPDEST PUSH1 0x0 DUP1 REVERT JUMPDEST PUSH2 0x59 PUSH2 0xDB JUMP JUMPDEST PUSH1 0x40 MLOAD PUSH2 0x66 SWAP2 SWAP1 PUSH2 0x394 JUMP JUMPDEST PUSH1 0x40 MLOAD DUP1 SWAP2 SUB SWAP1 RETURN JUMPDEST PUSH2 0x89 PUSH1 0x4 DUP1 CALLDATASIZE SUB DUP2 ADD SWAP1 PUSH2 0x84 SWAP2 SWAP1 PUSH2 0x2CF JUMP JUMPDEST PUSH2 0x179 JUMP JUMPDEST PUSH1 0x40 MLOAD PUSH2 0x96 SWAP2 SWAP1 PUSH2 0x3B6 JUMP JUMPDEST PUSH1 0x40 MLOAD DUP1 SWAP2 SUB SWAP1 RETURN JUMPDEST PUSH2 0xA7 PUSH2 0x18B JUMP JUMPDEST PUSH1 0x40 MLOAD PUSH2 0xB4 SWAP2 SWAP1 PUSH2 0x379 JUMP JUMPDEST PUSH1 0x40 MLOAD DUP1 SWAP2 SUB SWAP1 RETURN JUMPDEST PUSH2 0xC5 PUSH2 0x191 JUMP JUMPDEST PUSH1 0x40 MLOAD PUSH2 0xD2 SWAP2 SWAP1 PUSH2 0x394 JUMP JUMPDEST PUSH1 0x40 MLOAD DUP1 SWAP2 SUB SWAP1 RETURN JUMPDEST PUSH1 0x0 DUP1 SLOAD PUSH1 0x1 DUP2 PUSH1 0x1 AND ISZERO PUSH2 0x100 MUL SUB AND PUSH1 0x2 SWAP1 DIV DUP1 PUSH1 0x1F ADD PUSH1 0x20 DUP1 SWAP2 DIV MUL PUSH1 0x20 ADD PUSH1 0x40 MLOAD SWAP1 DUP2 ADD PUSH1 0x40 MSTORE DUP1 SWAP3 SWAP2 SWAP1 DUP2 DUP2 MSTORE PUSH1 0x20 ADD DUP3 DUP1 SLOAD PUSH1 0x1 DUP2 PUSH1 0x1 AND ISZERO PUSH2 0x100 MUL SUB AND PUSH1 0x2 SWAP1 DIV DUP1 ISZERO PUSH2 0x171 JUMPI DUP1 PUSH1 0x1F LT PUSH2 0x146 JUMPI PUSH2 0x100 DUP1 DUP4 SLOAD DIV MUL DUP4 MSTORE SWAP2 PUSH1 0x20 ADD SWAP2 PUSH2 0x171 JUMP JUMPDEST DUP3 ADD SWAP2 SWAP1 PUSH1 0x0 MSTORE PUSH1 0x20 PUSH1 0x0 KECCAK256 SWAP1 JUMPDEST DUP2 SLOAD DUP2 MSTORE SWAP1 PUSH1 0x1 ADD SWAP1 PUSH1 0x20 ADD DUP1 DUP4 GT PUSH2 0x154 JUMPI DUP3 SWAP1 SUB PUSH1 0x1F AND DUP3 ADD SWAP2 JUMPDEST POP POP POP POP POP DUP2 JUMP JUMPDEST PUSH1 0x60 PUSH2 0x184 DUP3 PUSH2 0x22F JUMP JUMPDEST SWAP1 POP SWAP2 SWAP1 POP JUMP JUMPDEST PUSH1 0x2 SLOAD DUP2 JUMP JUMPDEST PUSH1 0x1 DUP1 SLOAD PUSH1 0x1 DUP2 PUSH1 0x1 AND ISZERO PUSH2 0x100 MUL SUB AND PUSH1 0x2 SWAP1 DIV DUP1 PUSH1 0x1F ADD PUSH1 0x20 DUP1 SWAP2 DIV MUL PUSH1 0x20 ADD PUSH1 0x40 MLOAD SWAP1 DUP2 ADD PUSH1 0x40 MSTORE DUP1 SWAP3 SWAP2 SWAP1 DUP2 DUP2 MSTORE PUSH1 0x20 ADD DUP3 DUP1 SLOAD PUSH1 0x1 DUP2 PUSH1 0x1 AND ISZERO PUSH2 0x100 MUL SUB AND PUSH1 0x2 SWAP1 DIV DUP1 ISZERO PUSH2 0x227 JUMPI DUP1 PUSH1 0x1F LT PUSH2 0x1FC JUMPI PUSH2 0x100 DUP1 DUP4 SLOAD DIV MUL DUP4 MSTORE SWAP2 PUSH1 0x20 ADD SWAP2 PUSH2 0x227 JUMP JUMPDEST DUP3 ADD SWAP2 SWAP1 PUSH1 0x0 MSTORE PUSH1 0x20 PUSH1 0x0 KECCAK256 SWAP1 JUMPDEST DUP2 SLOAD DUP2 MSTORE SWAP1 PUSH1 0x1 ADD SWAP1 PUSH1 0x20 ADD DUP1 DUP4 GT PUSH2 0x20A JUMPI DUP3 SWAP1 SUB PUSH1 0x1F AND DUP3 ADD SWAP2 JUMPDEST POP POP POP POP POP DUP2 JUMP JUMPDEST PUSH1 0x60 DUP1 PUSH1 0x1 PUSH1 0x40 MLOAD SWAP1 DUP1 DUP3 MSTORE DUP1 PUSH1 0x1F ADD PUSH1 0x1F NOT AND PUSH1 0x20 ADD DUP3 ADD PUSH1 0x40 MSTORE DUP1 ISZERO PUSH2 0x266 JUMPI DUP2 PUSH1 0x20 ADD PUSH1 0x1 DUP3 MUL DUP1 CALLDATASIZE DUP4 CALLDATACOPY DUP1 DUP3 ADD SWAP2 POP POP SWAP1 POP JUMPDEST POP SWAP1 POP DUP3 ISZERO PUSH2 0x2B1 JUMPI PUSH1 0x1 PUSH1 0xF8 SHL DUP2 PUSH1 0x0 DUP2 MLOAD DUP2 LT PUSH2 0x281 JUMPI INVALID JUMPDEST PUSH1 0x20 ADD ADD SWAP1 PUSH31 0xFFFFFFFFFFFFFFFFFFFFFFFFFFFFFFFFFFFFFFFFFFFFFFFFFFFFFFFFFFFFFF NOT AND SWAP1 DUP2 PUSH1 0x0 BYTE SWAP1 MSTORE8 POP JUMPDEST DUP1 SWAP2 POP POP SWAP2 SWAP1 POP JUMP JUMPDEST PUSH1 0x0 DUP2 CALLDATALOAD SWAP1 POP PUSH2 0x2C9 DUP2 PUSH2 0x459 JUMP JUMPDEST SWAP3 SWAP2 POP POP JUMP JUMPDEST PUSH1 0x0 PUSH1 0x20 DUP3 DUP5 SUB SLT ISZERO PUSH2 0x2E1 JUMPI PUSH1 0x0 DUP1 REVERT JUMPDEST PUSH1 0x0 PUSH2 0x2EF DUP5 DUP3 DUP6 ADD PUSH2 0x2BA JUMP JUMPDEST SWAP2 POP POP SWAP3 SWAP2 POP POP JUMP JUMPDEST PUSH2 0x301 DUP2 PUSH2 0x40B JUMP JUMPDEST DUP3 MSTORE POP POP JUMP JUMPDEST PUSH1 0x0 PUSH2 0x312 DUP3 PUSH2 0x3E3 JUMP JUMPDEST PUSH2 0x31C DUP2 DUP6 PUSH2 0x3EE JUMP JUMPDEST SWAP4 POP PUSH2 0x32C DUP2 DUP6 PUSH1 0x20 DUP7 ADD PUSH2 0x415 JUMP JUMPDEST PUSH2 0x335 DUP2 PUSH2 0x448 JUMP JUMPDEST DUP5 ADD SWAP2 POP POP SWAP3 SWAP2 POP POP JUMP JUMPDEST PUSH1 0x0 PUSH2 0x34B DUP3 PUSH2 0x3D8 JUMP JUMPDEST PUSH2 0x355 DUP2 DUP6 PUSH2 0x3EE JUMP JUMPDEST SWAP4 POP PUSH2 0x365 DUP2 DUP6 PUSH1 0x20 DUP7 ADD PUSH2 0x415 JUMP JUMPDEST PUSH2 0x36E DUP2 PUSH2 0x448 JUMP JUMPDEST DUP5 ADD SWAP2 POP POP SWAP3 SWAP2 POP POP JUMP JUMPDEST PUSH1 0x0 PUSH1 0x20 DUP3 ADD SWAP1 POP PUSH2 0x38E PUSH1 0x0 DUP4 ADD DUP5 PUSH2 0x2F8 JUMP JUMPDEST SWAP3 SWAP2 POP POP JUMP JUMPDEST PUSH1 0x0 PUSH1 0x20 DUP3 ADD SWAP1 POP DUP2 DUP2 SUB PUSH1 0x0 DUP4 ADD MSTORE PUSH2 0x3AE DUP2 DUP5 PUSH2 0x340 JUMP JUMPDEST SWAP1 POP SWAP3 SWAP2 POP POP JUMP JUMPDEST PUSH1 0x0 PUSH1 0x20 DUP3 ADD SWAP1 POP DUP2 DUP2 SUB PUSH1 0x0 DUP4 ADD MSTORE PUSH2 0x3D0 DUP2 DUP5 PUSH2 0x307 JUMP JUMPDEST SWAP1 POP SWAP3 SWAP2 POP POP JUMP JUMPDEST PUSH1 0x0 DUP2 MLOAD SWAP1 POP SWAP2 SWAP1 POP JUMP JUMPDEST PUSH1 0x0 DUP2 MLOAD SWAP1 POP SWAP2 SWAP1 POP JUMP JUMPDEST PUSH1 0x0 DUP3 DUP3 MSTORE PUSH1 0x20 DUP3 ADD SWAP1 POP SWAP3 SWAP2 POP POP JUMP JUMPDEST PUSH1 0x0 DUP2 ISZERO ISZERO SWAP1 POP SWAP2 SWAP1 POP JUMP JUMPDEST PUSH1 0x0 DUP2 SWAP1 POP SWAP2 SWAP1 POP JUMP JUMPDEST PUSH1 0x0 JUMPDEST DUP4 DUP2 LT ISZERO PUSH2 0x433 JUMPI DUP1 DUP3 ADD MLOAD DUP2 DUP5 ADD MSTORE PUSH1 0x20 DUP2 ADD SWAP1 POP PUSH2 0x418 JUMP JUMPDEST DUP4 DUP2 GT ISZERO PUSH2 0x442 JUMPI PUSH1 0x0 DUP5 DUP5 ADD MSTORE JUMPDEST POP POP POP POP JUMP JUMPDEST PUSH1 0x0 PUSH1 0x1F NOT PUSH1 0x1F DUP4 ADD AND SWAP1 POP SWAP2 SWAP1 POP JUMP JUMPDEST PUSH2 0x462 DUP2 PUSH2 0x3FF JUMP JUMPDEST DUP2 EQ PUSH2 0x46D JUMPI PUSH1 0x0 DUP1 REVERT JUMPDEST POP JUMP INVALID LOG2 PUSH5 0x6970667358 0x22 SLT KECCAK256 0x2C 0xC3 EXTCODECOPY 0xDD MOD SELFDESTRUCT 0xA8 0xEE SGT 0x5F MULMOD GT PUSH15 0x62862C8B5188B883763A19B8154D21 SLT 0xB1 DUP12 SWAP12 PUSH5 0x736F6C6343 STOP MOD DIV STOP CALLER 0x4E COINBASE 0x4C GASLIMIT 0x48 0x48 0x4A MSTORE8 SELFBALANCE DIFFICULTY MSTORE8 DIFFICULTY SELFBALANCE 0x48 0x4A MSTORE8 DIFFICULTY 0x48 MSTORE8 SSTORE 0x48 DIFFICULTY 0x4A MSTORE8 0x48 DIFFICULTY 0x4A MSTORE8 0x48 0x4A MSTORE8 0x48 0x4A MSTORE8 0x48 DIFFICULTY MSTORE8 0x4A DIFFICULTY 0x48 0x4A 0x4F 0x4E SELFBALANCE JUMP 0x4F PUSH20 0x64664E417364667364664C4548484A5347445348 DIFFICULTY 0x4A MSTORE8 0x48 0x4A MSTORE8 0x48 0x4A MSTORE8 0x48 DIFFICULTY MSTORE8 0x4A DIFFICULTY 0x48 0x4A 0x4F 0x4E SELFBALANCE JUMP 0x4F "
				},
				"gasEstimates": {
					"creation": {
						"codeDepositCost": "238000",
						"executionCost": "infinite",
						"totalCost": "infinite"
					},
					"external": {
						"data1()": "infinite",
						"data2()": "1151",
						"data3()": "infinite",
						"getData(bool)": "infinite"
					},
					"internal": {
						"encodeBool(bool)": "infinite",
						"encodeLength(uint256,uint256)": "infinite",
						"encodeList(bytes memory[] memory)": "infinite",
						"mergeBytes(bytes memory,bytes memory)": "infinite",
						"toBinary(uint256)": "infinite"
					}
				},
				"methodIdentifiers": {
					"data1()": "9ffd85c4",
					"data2()": "e3a7fd75",
					"data3()": "fc26b0ab",
					"getData(bool)": "a1973084"
				}
			},
			"userdoc": {
				"methods": {}
			}
		}
	}
}