{
	"contracts/demo2.sol": {
		"demo2": {
			"abi": [
				{
					"inputs": [],
					"name": "data1",
					"outputs": [
						{
							"internalType": "bytes",
							"name": "",
							"type": "bytes"
						}
					],
					"stateMutability": "view",
					"type": "function"
				},
				{
					"inputs": [],
					"name": "data2",
					"outputs": [
						{
							"internalType": "bytes32",
							"name": "",
							"type": "bytes32"
						}
					],
					"stateMutability": "view",
					"type": "function"
				},
				{
					"inputs": [
						{
							"internalType": "bytes[]",
							"name": "self",
							"type": "bytes[]"
						}
					],
					"name": "getData",
					"outputs": [
						{
							"internalType": "bytes",
							"name": "",
							"type": "bytes"
						}
					],
					"stateMutability": "view",
					"type": "function"
				}
			],
			"devdoc": {
				"methods": {}
			},
			"evm": {
				"assembly": "    /* \"contracts/demo2.sol\":67:4962  contract demo2 {\r... */\n  mstore(0x40, 0x80)\n    /* \"contracts/demo2.sol\":89:158  bytes public data1 = \"NALEHHJSGDSDGHJSDHSUHDJSHDJSHJSHJSHDSJDHJONGVO\" */\n  mload(0x40)\n  dup1\n  0x60\n  add\n  0x40\n  mstore\n  dup1\n  0x2e\n  dup2\n  mstore\n  0x20\n  add\n  data_4887836e294a2761413359597244d307bbe3f94827f6160d9e1a399e00e2d1be\n  0x2e\n  swap2\n  codecopy\n  0x00\n  swap1\n  dup1\n  mload\n  swap1\n  0x20\n  add\n  swap1\n  tag_1\n  swap3\n  swap2\n  swap1\n  tag_2\n  jump\t// in\ntag_1:\n  pop\n    /* \"contracts/demo2.sol\":165:212  bytes32 public data2 = \"LEHONGVOwjnfvj3weh8vKJ\" */\n  sstore(0x01, 0x4c45484f4e47564f776a6e66766a3377656838764b4a00000000000000000000)\n    /* \"contracts/demo2.sol\":67:4962  contract demo2 {\r... */\n  callvalue\n    /* \"--CODEGEN--\":5:14   */\n  dup1\n    /* \"--CODEGEN--\":2:4   */\n  iszero\n  tag_3\n  jumpi\n    /* \"--CODEGEN--\":27:28   */\n  0x00\n    /* \"--CODEGEN--\":24:25   */\n  dup1\n    /* \"--CODEGEN--\":17:29   */\n  revert\n    /* \"--CODEGEN--\":2:4   */\ntag_3:\n    /* \"contracts/demo2.sol\":67:4962  contract demo2 {\r... */\n  pop\n  jump(tag_4)\ntag_2:\n  dup3\n  dup1\n  sload\n  0x01\n  dup2\n  0x01\n  and\n  iszero\n  0x0100\n  mul\n  sub\n  and\n  0x02\n  swap1\n  div\n  swap1\n  0x00\n  mstore\n  keccak256(0x00, 0x20)\n  swap1\n  0x1f\n  add\n  0x20\n  swap1\n  div\n  dup2\n  add\n  swap3\n  dup3\n  0x1f\n  lt\n  tag_6\n  jumpi\n  dup1\n  mload\n  not(0xff)\n  and\n  dup4\n  dup1\n  add\n  or\n  dup6\n  sstore\n  jump(tag_5)\ntag_6:\n  dup3\n  dup1\n  add\n  0x01\n  add\n  dup6\n  sstore\n  dup3\n  iszero\n  tag_5\n  jumpi\n  swap2\n  dup3\n  add\ntag_7:\n  dup3\n  dup2\n  gt\n  iszero\n  tag_8\n  jumpi\n  dup3\n  mload\n  dup3\n  sstore\n  swap2\n  0x20\n  add\n  swap2\n  swap1\n  0x01\n  add\n  swap1\n  jump(tag_7)\ntag_8:\ntag_5:\n  pop\n  swap1\n  pop\n  tag_9\n  swap2\n  swap1\n  tag_10\n  jump\t// in\ntag_9:\n  pop\n  swap1\n  jump\t// out\ntag_10:\n  tag_11\n  swap2\n  swap1\ntag_12:\n  dup1\n  dup3\n  gt\n  iszero\n  tag_13\n  jumpi\n  0x00\n  dup2\n  0x00\n  swap1\n  sstore\n  pop\n  0x01\n  add\n  jump(tag_12)\ntag_13:\n  pop\n  swap1\n  jump\ntag_11:\n  swap1\n  jump\t// out\ntag_4:\n  dataSize(sub_0)\n  dup1\n  dataOffset(sub_0)\n  0x00\n  codecopy\n  0x00\n  return\nstop\ndata_4887836e294a2761413359597244d307bbe3f94827f6160d9e1a399e00e2d1be 4e414c4548484a534744534447484a534448535548444a5348444a53484a53484a534844534a44484a4f4e47564f\n\nsub_0: assembly {\n        /* \"contracts/demo2.sol\":67:4962  contract demo2 {\r... */\n      mstore(0x40, 0x80)\n      callvalue\n        /* \"--CODEGEN--\":5:14   */\n      dup1\n        /* \"--CODEGEN--\":2:4   */\n      iszero\n      tag_1\n      jumpi\n        /* \"--CODEGEN--\":27:28   */\n      0x00\n        /* \"--CODEGEN--\":24:25   */\n      dup1\n        /* \"--CODEGEN--\":17:29   */\n      revert\n        /* \"--CODEGEN--\":2:4   */\n    tag_1:\n        /* \"contracts/demo2.sol\":67:4962  contract demo2 {\r... */\n      pop\n      jumpi(tag_2, lt(calldatasize, 0x04))\n      shr(0xe0, calldataload(0x00))\n      dup1\n      0x0a282560\n      eq\n      tag_3\n      jumpi\n      dup1\n      0x9ffd85c4\n      eq\n      tag_4\n      jumpi\n      dup1\n      0xe3a7fd75\n      eq\n      tag_5\n      jumpi\n    tag_2:\n        /* \"--CODEGEN--\":12:13   */\n      0x00\n        /* \"--CODEGEN--\":9:10   */\n      dup1\n        /* \"--CODEGEN--\":2:14   */\n      revert\n        /* \"contracts/demo2.sol\":263:377  function getData(bytes[] memory self) public view returns(bytes memory) {\r... */\n    tag_3:\n      tag_6\n      0x04\n      dup1\n      calldatasize\n      sub\n      dup2\n      add\n      swap1\n      tag_7\n      swap2\n      swap1\n      jump(tag_8)\n    tag_7:\n      tag_9\n      jump\t// in\n    tag_6:\n      mload(0x40)\n      tag_10\n      swap2\n      swap1\n      jump(tag_11)\n    tag_10:\n      mload(0x40)\n      dup1\n      swap2\n      sub\n      swap1\n      return\n        /* \"contracts/demo2.sol\":89:158  bytes public data1 = \"NALEHHJSGDSDGHJSDHSUHDJSHDJSHJSHJSHDSJDHJONGVO\" */\n    tag_4:\n      tag_12\n      tag_13\n      jump\t// in\n    tag_12:\n      mload(0x40)\n      tag_14\n      swap2\n      swap1\n      jump(tag_15)\n    tag_14:\n      mload(0x40)\n      dup1\n      swap2\n      sub\n      swap1\n      return\n        /* \"contracts/demo2.sol\":165:212  bytes32 public data2 = \"LEHONGVOwjnfvj3weh8vKJ\" */\n    tag_5:\n      tag_16\n      tag_17\n      jump\t// in\n    tag_16:\n      mload(0x40)\n      tag_18\n      swap2\n      swap1\n      jump(tag_19)\n    tag_18:\n      mload(0x40)\n      dup1\n      swap2\n      sub\n      swap1\n      return\n        /* \"contracts/demo2.sol\":263:377  function getData(bytes[] memory self) public view returns(bytes memory) {\r... */\n    tag_9:\n        /* \"contracts/demo2.sol\":321:333  bytes memory */\n      0x60\n        /* \"contracts/demo2.sol\":353:369  encodeList(self) */\n      tag_21\n        /* \"contracts/demo2.sol\":364:368  self */\n      dup3\n        /* \"contracts/demo2.sol\":353:363  encodeList */\n      tag_22\n        /* \"contracts/demo2.sol\":353:369  encodeList(self) */\n      jump\t// in\n    tag_21:\n        /* \"contracts/demo2.sol\":346:369  return encodeList(self) */\n      swap1\n      pop\n        /* \"contracts/demo2.sol\":263:377  function getData(bytes[] memory self) public view returns(bytes memory) {\r... */\n      swap2\n      swap1\n      pop\n      jump\t// out\n        /* \"contracts/demo2.sol\":89:158  bytes public data1 = \"NALEHHJSGDSDGHJSDHSUHDJSHDJSHJSHJSHDSJDHJONGVO\" */\n    tag_13:\n      0x00\n      dup1\n      sload\n      0x01\n      dup2\n      0x01\n      and\n      iszero\n      0x0100\n      mul\n      sub\n      and\n      0x02\n      swap1\n      div\n      dup1\n      0x1f\n      add\n      0x20\n      dup1\n      swap2\n      div\n      mul\n      0x20\n      add\n      mload(0x40)\n      swap1\n      dup2\n      add\n      0x40\n      mstore\n      dup1\n      swap3\n      swap2\n      swap1\n      dup2\n      dup2\n      mstore\n      0x20\n      add\n      dup3\n      dup1\n      sload\n      0x01\n      dup2\n      0x01\n      and\n      iszero\n      0x0100\n      mul\n      sub\n      and\n      0x02\n      swap1\n      div\n      dup1\n      iszero\n      tag_23\n      jumpi\n      dup1\n      0x1f\n      lt\n      tag_24\n      jumpi\n      0x0100\n      dup1\n      dup4\n      sload\n      div\n      mul\n      dup4\n      mstore\n      swap2\n      0x20\n      add\n      swap2\n      jump(tag_23)\n    tag_24:\n      dup3\n      add\n      swap2\n      swap1\n      0x00\n      mstore\n      keccak256(0x00, 0x20)\n      swap1\n    tag_25:\n      dup2\n      sload\n      dup2\n      mstore\n      swap1\n      0x01\n      add\n      swap1\n      0x20\n      add\n      dup1\n      dup4\n      gt\n      tag_25\n      jumpi\n      dup3\n      swap1\n      sub\n      0x1f\n      and\n      dup3\n      add\n      swap2\n    tag_23:\n      pop\n      pop\n      pop\n      pop\n      pop\n      dup2\n      jump\t// out\n        /* \"contracts/demo2.sol\":165:212  bytes32 public data2 = \"LEHONGVOwjnfvj3weh8vKJ\" */\n    tag_17:\n      sload(0x01)\n      dup2\n      jump\t// out\n        /* \"contracts/demo2.sol\":385:784  function encodeList(bytes[] memory self) internal pure returns (bytes memory) {\r... */\n    tag_22:\n        /* \"contracts/demo2.sol\":449:461  bytes memory */\n      0x60\n        /* \"contracts/demo2.sol\":493:494  0 */\n      0x00\n        /* \"contracts/demo2.sol\":478:482  self */\n      dup3\n        /* \"contracts/demo2.sol\":478:489  self.length */\n      mload\n        /* \"contracts/demo2.sol\":478:494  self.length == 0 */\n      eq\n        /* \"contracts/demo2.sol\":474:542  if (self.length == 0) {\r... */\n      iszero\n      tag_27\n      jumpi\n        /* \"contracts/demo2.sol\":528:529  0 */\n      0x00\n        /* \"contracts/demo2.sol\":518:530  new bytes(0) */\n      mload(0x40)\n      swap1\n      dup1\n      dup3\n      mstore\n      dup1\n      0x1f\n      add\n      not(0x1f)\n      and\n      0x20\n      add\n      dup3\n      add\n      0x40\n      mstore\n      dup1\n      iszero\n      tag_28\n      jumpi\n      dup2\n      0x20\n      add\n        /* \"--CODEGEN--\":29:30   */\n      0x01\n        /* \"--CODEGEN--\":21:27   */\n      dup3\n        /* \"--CODEGEN--\":17:31   */\n      mul\n        /* \"--CODEGEN--\":124:128   */\n      dup1\n        /* \"--CODEGEN--\":108:122   */\n      calldatasize\n        /* \"--CODEGEN--\":100:106   */\n      dup4\n        /* \"--CODEGEN--\":87:129   */\n      calldatacopy\n        /* \"--CODEGEN--\":155:159   */\n      dup1\n        /* \"--CODEGEN--\":147:153   */\n      dup3\n        /* \"--CODEGEN--\":143:160   */\n      add\n        /* \"--CODEGEN--\":133:160   */\n      swap2\n      pop\n        /* \"--CODEGEN--\":0:164   */\n      pop\n        /* \"contracts/demo2.sol\":518:530  new bytes(0) */\n      swap1\n      pop\n    tag_28:\n      pop\n        /* \"contracts/demo2.sol\":511:530  return new bytes(0) */\n      swap1\n      pop\n      jump(tag_26)\n        /* \"contracts/demo2.sol\":474:542  if (self.length == 0) {\r... */\n    tag_27:\n        /* \"contracts/demo2.sol\":552:572  bytes memory payload */\n      0x60\n        /* \"contracts/demo2.sol\":575:579  self */\n      dup3\n        /* \"contracts/demo2.sol\":580:581  0 */\n      0x00\n        /* \"contracts/demo2.sol\":575:582  self[0] */\n      dup2\n      mload\n      dup2\n      lt\n      tag_29\n      jumpi\n      invalid\n    tag_29:\n      0x20\n      mul\n      0x20\n      add\n      add\n      mload\n        /* \"contracts/demo2.sol\":552:582  bytes memory payload = self[0] */\n      swap1\n      pop\n        /* \"contracts/demo2.sol\":598:604  uint i */\n      0x00\n        /* \"contracts/demo2.sol\":607:608  1 */\n      0x01\n        /* \"contracts/demo2.sol\":598:608  uint i = 1 */\n      swap1\n      pop\n        /* \"contracts/demo2.sol\":593:697  for (uint i = 1; i < self.length; i++) {\r... */\n    tag_30:\n        /* \"contracts/demo2.sol\":614:618  self */\n      dup4\n        /* \"contracts/demo2.sol\":614:625  self.length */\n      mload\n        /* \"contracts/demo2.sol\":610:611  i */\n      dup2\n        /* \"contracts/demo2.sol\":610:625  i < self.length */\n      lt\n        /* \"contracts/demo2.sol\":593:697  for (uint i = 1; i < self.length; i++) {\r... */\n      iszero\n      tag_31\n      jumpi\n        /* \"contracts/demo2.sol\":657:685  mergeBytes(payload, self[i]) */\n      tag_33\n        /* \"contracts/demo2.sol\":668:675  payload */\n      dup3\n        /* \"contracts/demo2.sol\":677:681  self */\n      dup6\n        /* \"contracts/demo2.sol\":682:683  i */\n      dup4\n        /* \"contracts/demo2.sol\":677:684  self[i] */\n      dup2\n      mload\n      dup2\n      lt\n      tag_34\n      jumpi\n      invalid\n    tag_34:\n      0x20\n      mul\n      0x20\n      add\n      add\n      mload\n        /* \"contracts/demo2.sol\":657:667  mergeBytes */\n      tag_35\n        /* \"contracts/demo2.sol\":657:685  mergeBytes(payload, self[i]) */\n      jump\t// in\n    tag_33:\n        /* \"contracts/demo2.sol\":647:685  payload = mergeBytes(payload, self[i]) */\n      swap2\n      pop\n        /* \"contracts/demo2.sol\":627:630  i++ */\n      dup1\n      dup1\n      0x01\n      add\n      swap2\n      pop\n      pop\n        /* \"contracts/demo2.sol\":593:697  for (uint i = 1; i < self.length; i++) {\r... */\n      jump(tag_30)\n    tag_31:\n      pop\n        /* \"contracts/demo2.sol\":714:776  mergeBytes(encodeLength(payload.length, LIST_OFFSET), payload) */\n      tag_36\n        /* \"contracts/demo2.sol\":725:766  encodeLength(payload.length, LIST_OFFSET) */\n      tag_37\n        /* \"contracts/demo2.sol\":738:745  payload */\n      dup3\n        /* \"contracts/demo2.sol\":738:752  payload.length */\n      mload\n        /* \"contracts/demo2.sol\":248:252  0xc0 */\n      0xc0\n        /* \"contracts/demo2.sol\":725:766  encodeLength(payload.length, LIST_OFFSET) */\n      0xff\n      and\n        /* \"contracts/demo2.sol\":725:737  encodeLength */\n      tag_38\n        /* \"contracts/demo2.sol\":725:766  encodeLength(payload.length, LIST_OFFSET) */\n      jump\t// in\n    tag_37:\n        /* \"contracts/demo2.sol\":768:775  payload */\n      dup3\n        /* \"contracts/demo2.sol\":714:724  mergeBytes */\n      tag_35\n        /* \"contracts/demo2.sol\":714:776  mergeBytes(encodeLength(payload.length, LIST_OFFSET), payload) */\n      jump\t// in\n    tag_36:\n        /* \"contracts/demo2.sol\":707:776  return mergeBytes(encodeLength(payload.length, LIST_OFFSET), payload) */\n      swap2\n      pop\n      pop\n        /* \"contracts/demo2.sol\":385:784  function encodeList(bytes[] memory self) internal pure returns (bytes memory) {\r... */\n    tag_26:\n      swap2\n      swap1\n      pop\n      jump\t// out\n        /* \"contracts/demo2.sol\":1240:4155  function mergeBytes(\r... */\n    tag_35:\n        /* \"contracts/demo2.sol\":1372:1384  bytes memory */\n      0x60\n        /* \"contracts/demo2.sol\":1402:1424  bytes memory tempBytes */\n      dup1\n        /* \"contracts/demo2.sol\":1604:1608  0x40 */\n      0x40\n        /* \"contracts/demo2.sol\":1598:1609  mload(0x40) */\n      mload\n        /* \"contracts/demo2.sol\":1585:1609  tempBytes := mload(0x40) */\n      swap1\n      pop\n        /* \"contracts/demo2.sol\":1757:1766  _preBytes */\n      dup4\n        /* \"contracts/demo2.sol\":1751:1767  mload(_preBytes) */\n      mload\n        /* \"contracts/demo2.sol\":1799:1805  length */\n      dup1\n        /* \"contracts/demo2.sol\":1788:1797  tempBytes */\n      dup3\n        /* \"contracts/demo2.sol\":1781:1806  mstore(tempBytes, length) */\n      mstore\n        /* \"contracts/demo2.sol\":2034:2038  0x20 */\n      0x20\n        /* \"contracts/demo2.sol\":2023:2032  tempBytes */\n      dup3\n        /* \"contracts/demo2.sol\":2019:2039  add(tempBytes, 0x20) */\n      add\n        /* \"contracts/demo2.sol\":2178:2184  length */\n      dup2\n        /* \"contracts/demo2.sol\":2174:2176  mc */\n      dup2\n        /* \"contracts/demo2.sol\":2170:2185  add(mc, length) */\n      add\n        /* \"contracts/demo2.sol\":2369:2373  0x20 */\n      0x20\n        /* \"contracts/demo2.sol\":2358:2367  _preBytes */\n      dup8\n        /* \"contracts/demo2.sol\":2354:2374  add(_preBytes, 0x20) */\n      add\n        /* \"contracts/demo2.sol\":2201:2718  for {\r... */\n    tag_40:\n        /* \"contracts/demo2.sol\":2397:2400  end */\n      dup2\n        /* \"contracts/demo2.sol\":2393:2395  mc */\n      dup4\n        /* \"contracts/demo2.sol\":2390:2401  lt(mc, end) */\n      lt\n        /* \"contracts/demo2.sol\":2201:2718  for {\r... */\n      iszero\n      tag_42\n      jumpi\n        /* \"contracts/demo2.sol\":2699:2701  cc */\n      dup1\n        /* \"contracts/demo2.sol\":2693:2702  mload(cc) */\n      mload\n        /* \"contracts/demo2.sol\":2689:2691  mc */\n      dup4\n        /* \"contracts/demo2.sol\":2682:2703  mstore(mc, mload(cc)) */\n      mstore\n        /* \"contracts/demo2.sol\":2502:2506  0x20 */\n      0x20\n        /* \"contracts/demo2.sol\":2498:2500  mc */\n      dup4\n        /* \"contracts/demo2.sol\":2494:2507  add(mc, 0x20) */\n      add\n        /* \"contracts/demo2.sol\":2488:2507  mc := add(mc, 0x20) */\n      swap3\n      pop\n        /* \"contracts/demo2.sol\":2539:2543  0x20 */\n      0x20\n        /* \"contracts/demo2.sol\":2535:2537  cc */\n      dup2\n        /* \"contracts/demo2.sol\":2531:2544  add(cc, 0x20) */\n      add\n        /* \"contracts/demo2.sol\":2525:2544  cc := add(cc, 0x20) */\n      swap1\n      pop\n        /* \"contracts/demo2.sol\":2201:2718  for {\r... */\n      jump(tag_40)\n    tag_42:\n        /* \"contracts/demo2.sol\":2205:2389  {\r... */\n      pop\n        /* \"contracts/demo2.sol\":2928:2938  _postBytes */\n      dup6\n        /* \"contracts/demo2.sol\":2922:2939  mload(_postBytes) */\n      mload\n        /* \"contracts/demo2.sol\":2912:2939  length := mload(_postBytes) */\n      swap3\n      pop\n        /* \"contracts/demo2.sol\":2989:2998  tempBytes */\n      dup4\n        /* \"contracts/demo2.sol\":2983:2999  mload(tempBytes) */\n      mload\n        /* \"contracts/demo2.sol\":2975:2981  length */\n      dup4\n        /* \"contracts/demo2.sol\":2971:3000  add(length, mload(tempBytes)) */\n      add\n        /* \"contracts/demo2.sol\":2960:2969  tempBytes */\n      dup5\n        /* \"contracts/demo2.sol\":2953:3001  mstore(tempBytes, add(length, mload(tempBytes))) */\n      mstore\n        /* \"contracts/demo2.sol\":3141:3144  end */\n      dup1\n        /* \"contracts/demo2.sol\":3135:3144  mc := end */\n      swap2\n      pop\n        /* \"contracts/demo2.sol\":3281:3287  length */\n      dup3\n        /* \"contracts/demo2.sol\":3277:3279  mc */\n      dup3\n        /* \"contracts/demo2.sol\":3273:3288  add(mc, length) */\n      add\n        /* \"contracts/demo2.sol\":3266:3288  end := add(mc, length) */\n      swap1\n      pop\n        /* \"contracts/demo2.sol\":3353:3357  0x20 */\n      0x20\n        /* \"contracts/demo2.sol\":3341:3351  _postBytes */\n      dup7\n        /* \"contracts/demo2.sol\":3337:3358  add(_postBytes, 0x20) */\n      add\n        /* \"contracts/demo2.sol\":3304:3532  for {\r... */\n    tag_43:\n        /* \"contracts/demo2.sol\":3381:3384  end */\n      dup2\n        /* \"contracts/demo2.sol\":3377:3379  mc */\n      dup4\n        /* \"contracts/demo2.sol\":3374:3385  lt(mc, end) */\n      lt\n        /* \"contracts/demo2.sol\":3304:3532  for {\r... */\n      iszero\n      tag_45\n      jumpi\n        /* \"contracts/demo2.sol\":3513:3515  cc */\n      dup1\n        /* \"contracts/demo2.sol\":3507:3516  mload(cc) */\n      mload\n        /* \"contracts/demo2.sol\":3503:3505  mc */\n      dup4\n        /* \"contracts/demo2.sol\":3496:3517  mstore(mc, mload(cc)) */\n      mstore\n        /* \"contracts/demo2.sol\":3419:3423  0x20 */\n      0x20\n        /* \"contracts/demo2.sol\":3415:3417  mc */\n      dup4\n        /* \"contracts/demo2.sol\":3411:3424  add(mc, 0x20) */\n      add\n        /* \"contracts/demo2.sol\":3405:3424  mc := add(mc, 0x20) */\n      swap3\n      pop\n        /* \"contracts/demo2.sol\":3456:3460  0x20 */\n      0x20\n        /* \"contracts/demo2.sol\":3452:3454  cc */\n      dup2\n        /* \"contracts/demo2.sol\":3448:3461  add(cc, 0x20) */\n      add\n        /* \"contracts/demo2.sol\":3442:3461  cc := add(cc, 0x20) */\n      swap1\n      pop\n        /* \"contracts/demo2.sol\":3304:3532  for {\r... */\n      jump(tag_43)\n    tag_45:\n        /* \"contracts/demo2.sol\":3308:3373  {\r... */\n      pop\n        /* \"contracts/demo2.sol\":4050:4052  31 */\n      0x1f\n        /* \"contracts/demo2.sol\":4046:4053  not(31) */\n      not\n        /* \"contracts/demo2.sol\":4028:4030  31 */\n      0x1f\n        /* \"contracts/demo2.sol\":4013:4022  _preBytes */\n      dup9\n        /* \"contracts/demo2.sol\":4007:4023  mload(_preBytes) */\n      mload\n        /* \"contracts/demo2.sol\":3999:4005  length */\n      dup6\n        /* \"contracts/demo2.sol\":3995:4024  add(length, mload(_preBytes)) */\n      add\n        /* \"contracts/demo2.sol\":3988:4025  iszero(add(length, mload(_preBytes))) */\n      iszero\n        /* \"contracts/demo2.sol\":3983:3986  end */\n      dup4\n        /* \"contracts/demo2.sol\":3979:4026  add(end, iszero(add(length, mload(_preBytes)))) */\n      add\n        /* \"contracts/demo2.sol\":3975:4031  add(add(end, iszero(add(length, mload(_preBytes)))), 31) */\n      add\n        /* \"contracts/demo2.sol\":3957:4107  and(\r... */\n      and\n        /* \"contracts/demo2.sol\":3951:3955  0x40 */\n      0x40\n        /* \"contracts/demo2.sol\":3944:4108  mstore(0x40, and(\r... */\n      mstore\n        /* \"contracts/demo2.sol\":1446:4119  {\r... */\n      pop\n      pop\n      pop\n        /* \"contracts/demo2.sol\":4138:4147  tempBytes */\n      dup1\n        /* \"contracts/demo2.sol\":4131:4147  return tempBytes */\n      swap2\n      pop\n      pop\n        /* \"contracts/demo2.sol\":1240:4155  function mergeBytes(\r... */\n      swap3\n      swap2\n      pop\n      pop\n      jump\t// out\n        /* \"contracts/demo2.sol\":794:1232  function encodeLength(uint length, uint offset) internal pure returns (bytes memory) {\r... */\n    tag_38:\n        /* \"contracts/demo2.sol\":865:877  bytes memory */\n      0x60\n        /* \"contracts/demo2.sol\":907:913  256**8 */\n      0x010000000000000000\n        /* \"contracts/demo2.sol\":898:904  length */\n      dup4\n        /* \"contracts/demo2.sol\":898:913  length < 256**8 */\n      lt\n        /* \"contracts/demo2.sol\":890:932  require(length < 256**8, \"input too long\") */\n      tag_47\n      jumpi\n      mload(0x40)\n      0x08c379a000000000000000000000000000000000000000000000000000000000\n      dup2\n      mstore\n      0x04\n      add\n      tag_48\n      swap1\n      jump(tag_49)\n    tag_48:\n      mload(0x40)\n      dup1\n      swap2\n      sub\n      swap1\n      revert\n    tag_47:\n        /* \"contracts/demo2.sol\":943:958  bytes memory rs */\n      0x60\n        /* \"contracts/demo2.sol\":971:972  1 */\n      0x01\n        /* \"contracts/demo2.sol\":961:973  new bytes(1) */\n      mload(0x40)\n      swap1\n      dup1\n      dup3\n      mstore\n      dup1\n      0x1f\n      add\n      not(0x1f)\n      and\n      0x20\n      add\n      dup3\n      add\n      0x40\n      mstore\n      dup1\n      iszero\n      tag_50\n      jumpi\n      dup2\n      0x20\n      add\n        /* \"--CODEGEN--\":29:30   */\n      0x01\n        /* \"--CODEGEN--\":21:27   */\n      dup3\n        /* \"--CODEGEN--\":17:31   */\n      mul\n        /* \"--CODEGEN--\":124:128   */\n      dup1\n        /* \"--CODEGEN--\":108:122   */\n      calldatasize\n        /* \"--CODEGEN--\":100:106   */\n      dup4\n        /* \"--CODEGEN--\":87:129   */\n      calldatacopy\n        /* \"--CODEGEN--\":155:159   */\n      dup1\n        /* \"--CODEGEN--\":147:153   */\n      dup3\n        /* \"--CODEGEN--\":143:160   */\n      add\n        /* \"--CODEGEN--\":133:160   */\n      swap2\n      pop\n        /* \"--CODEGEN--\":0:164   */\n      pop\n        /* \"contracts/demo2.sol\":961:973  new bytes(1) */\n      swap1\n      pop\n    tag_50:\n      pop\n        /* \"contracts/demo2.sol\":943:973  bytes memory rs = new bytes(1) */\n      swap1\n      pop\n        /* \"contracts/demo2.sol\":998:1000  55 */\n      0x37\n        /* \"contracts/demo2.sol\":988:994  length */\n      dup5\n        /* \"contracts/demo2.sol\":988:1000  length <= 55 */\n      gt\n        /* \"contracts/demo2.sol\":984:1089  if (length <= 55) {\r... */\n      tag_51\n      jumpi\n        /* \"contracts/demo2.sol\":1045:1051  offset */\n      dup3\n        /* \"contracts/demo2.sol\":1036:1042  length */\n      dup5\n        /* \"contracts/demo2.sol\":1036:1051  length + offset */\n      add\n        /* \"contracts/demo2.sol\":1025:1053  byte(uint8(length + offset)) */\n      0xf8\n      shl\n        /* \"contracts/demo2.sol\":1017:1019  rs */\n      dup2\n        /* \"contracts/demo2.sol\":1020:1021  0 */\n      0x00\n        /* \"contracts/demo2.sol\":1017:1022  rs[0] */\n      dup2\n      mload\n      dup2\n      lt\n      tag_52\n      jumpi\n      invalid\n    tag_52:\n      0x20\n      add\n      add\n        /* \"contracts/demo2.sol\":1017:1053  rs[0] = byte(uint8(length + offset)) */\n      swap1\n      not(0xffffffffffffffffffffffffffffffffffffffffffffffffffffffffffffff)\n      and\n      swap1\n      dup2\n      0x00\n      byte\n      swap1\n      mstore8\n      pop\n        /* \"contracts/demo2.sol\":1075:1077  rs */\n      dup1\n        /* \"contracts/demo2.sol\":1068:1077  return rs */\n      swap2\n      pop\n      pop\n      jump(tag_46)\n        /* \"contracts/demo2.sol\":984:1089  if (length <= 55) {\r... */\n    tag_51:\n        /* \"contracts/demo2.sol\":1099:1114  bytes memory bl */\n      0x60\n        /* \"contracts/demo2.sol\":1117:1133  toBinary(length) */\n      tag_53\n        /* \"contracts/demo2.sol\":1126:1132  length */\n      dup6\n        /* \"contracts/demo2.sol\":1117:1125  toBinary */\n      tag_54\n        /* \"contracts/demo2.sol\":1117:1133  toBinary(length) */\n      jump\t// in\n    tag_53:\n        /* \"contracts/demo2.sol\":1099:1133  bytes memory bl = toBinary(length) */\n      swap1\n      pop\n        /* \"contracts/demo2.sol\":1184:1186  55 */\n      0x37\n        /* \"contracts/demo2.sol\":1175:1181  offset */\n      dup5\n        /* \"contracts/demo2.sol\":1163:1165  bl */\n      dup3\n        /* \"contracts/demo2.sol\":1163:1172  bl.length */\n      mload\n        /* \"contracts/demo2.sol\":1163:1181  bl.length + offset */\n      add\n        /* \"contracts/demo2.sol\":1163:1186  bl.length + offset + 55 */\n      add\n        /* \"contracts/demo2.sol\":1152:1188  byte(uint8(bl.length + offset + 55)) */\n      0xf8\n      shl\n        /* \"contracts/demo2.sol\":1144:1146  rs */\n      dup3\n        /* \"contracts/demo2.sol\":1147:1148  0 */\n      0x00\n        /* \"contracts/demo2.sol\":1144:1149  rs[0] */\n      dup2\n      mload\n      dup2\n      lt\n      tag_55\n      jumpi\n      invalid\n    tag_55:\n      0x20\n      add\n      add\n        /* \"contracts/demo2.sol\":1144:1188  rs[0] = byte(uint8(bl.length + offset + 55)) */\n      swap1\n      not(0xffffffffffffffffffffffffffffffffffffffffffffffffffffffffffffff)\n      and\n      swap1\n      dup2\n      0x00\n      byte\n      swap1\n      mstore8\n      pop\n        /* \"contracts/demo2.sol\":1206:1224  mergeBytes(rs, bl) */\n      tag_56\n        /* \"contracts/demo2.sol\":1217:1219  rs */\n      dup3\n        /* \"contracts/demo2.sol\":1221:1223  bl */\n      dup3\n        /* \"contracts/demo2.sol\":1206:1216  mergeBytes */\n      tag_35\n        /* \"contracts/demo2.sol\":1206:1224  mergeBytes(rs, bl) */\n      jump\t// in\n    tag_56:\n        /* \"contracts/demo2.sol\":1199:1224  return mergeBytes(rs, bl) */\n      swap3\n      pop\n      pop\n      pop\n        /* \"contracts/demo2.sol\":794:1232  function encodeLength(uint length, uint offset) internal pure returns (bytes memory) {\r... */\n    tag_46:\n      swap3\n      swap2\n      pop\n      pop\n      jump\t// out\n        /* \"contracts/demo2.sol\":4167:4955  function toBinary(uint x) internal pure returns (bytes memory) {\r... */\n    tag_54:\n        /* \"contracts/demo2.sol\":4216:4228  bytes memory */\n      0x60\n        /* \"contracts/demo2.sol\":4241:4255  bytes memory b */\n      dup1\n        /* \"contracts/demo2.sol\":4268:4270  32 */\n      0x20\n        /* \"contracts/demo2.sol\":4258:4271  new bytes(32) */\n      mload(0x40)\n      swap1\n      dup1\n      dup3\n      mstore\n      dup1\n      0x1f\n      add\n      not(0x1f)\n      and\n      0x20\n      add\n      dup3\n      add\n      0x40\n      mstore\n      dup1\n      iszero\n      tag_58\n      jumpi\n      dup2\n      0x20\n      add\n        /* \"--CODEGEN--\":29:30   */\n      0x01\n        /* \"--CODEGEN--\":21:27   */\n      dup3\n        /* \"--CODEGEN--\":17:31   */\n      mul\n        /* \"--CODEGEN--\":124:128   */\n      dup1\n        /* \"--CODEGEN--\":108:122   */\n      calldatasize\n        /* \"--CODEGEN--\":100:106   */\n      dup4\n        /* \"--CODEGEN--\":87:129   */\n      calldatacopy\n        /* \"--CODEGEN--\":155:159   */\n      dup1\n        /* \"--CODEGEN--\":147:153   */\n      dup3\n        /* \"--CODEGEN--\":143:160   */\n      add\n        /* \"--CODEGEN--\":133:160   */\n      swap2\n      pop\n        /* \"--CODEGEN--\":0:164   */\n      pop\n        /* \"contracts/demo2.sol\":4258:4271  new bytes(32) */\n      swap1\n      pop\n    tag_58:\n      pop\n        /* \"contracts/demo2.sol\":4241:4271  bytes memory b = new bytes(32) */\n      swap1\n      pop\n        /* \"contracts/demo2.sol\":4325:4326  x */\n      dup3\n        /* \"contracts/demo2.sol\":4320:4322  32 */\n      0x20\n        /* \"contracts/demo2.sol\":4317:4318  b */\n      dup3\n        /* \"contracts/demo2.sol\":4313:4323  add(b, 32) */\n      add\n        /* \"contracts/demo2.sol\":4306:4327  mstore(add(b, 32), x) */\n      mstore\n        /* \"contracts/demo2.sol\":4348:4354  uint i */\n      0x00\n        /* \"contracts/demo2.sol\":4443:4444  0 */\n      dup1\n        /* \"contracts/demo2.sol\":4373:4439  0xffffffffffffffffffffffffffffffffffffffffffffffff0000000000000000 */\n      0xffffffffffffffffffffffffffffffffffffffffffffffff0000000000000000\n        /* \"contracts/demo2.sol\":4369:4370  x */\n      dup6\n        /* \"contracts/demo2.sol\":4369:4439  x & 0xffffffffffffffffffffffffffffffffffffffffffffffff0000000000000000 */\n      and\n        /* \"contracts/demo2.sol\":4369:4444  x & 0xffffffffffffffffffffffffffffffffffffffffffffffff0000000000000000 == 0 */\n      eq\n        /* \"contracts/demo2.sol\":4365:4637  if (x & 0xffffffffffffffffffffffffffffffffffffffffffffffff0000000000000000 == 0) {\r... */\n      iszero\n      tag_59\n      jumpi\n        /* \"contracts/demo2.sol\":4465:4467  24 */\n      0x18\n        /* \"contracts/demo2.sol\":4461:4467  i = 24 */\n      swap1\n      pop\n        /* \"contracts/demo2.sol\":4365:4637  if (x & 0xffffffffffffffffffffffffffffffffffffffffffffffff0000000000000000 == 0) {\r... */\n      jump(tag_60)\n    tag_59:\n        /* \"contracts/demo2.sol\":4563:4564  0 */\n      0x00\n        /* \"contracts/demo2.sol\":4493:4559  0xffffffffffffffffffffffffffffffff00000000000000000000000000000000 */\n      0xffffffffffffffffffffffffffffffff00000000000000000000000000000000\n        /* \"contracts/demo2.sol\":4489:4490  x */\n      dup6\n        /* \"contracts/demo2.sol\":4489:4559  x & 0xffffffffffffffffffffffffffffffff00000000000000000000000000000000 */\n      and\n        /* \"contracts/demo2.sol\":4489:4564  x & 0xffffffffffffffffffffffffffffffff00000000000000000000000000000000 == 0 */\n      eq\n        /* \"contracts/demo2.sol\":4485:4637  if (x & 0xffffffffffffffffffffffffffffffff00000000000000000000000000000000 == 0) {\r... */\n      iszero\n      tag_61\n      jumpi\n        /* \"contracts/demo2.sol\":4585:4587  16 */\n      0x10\n        /* \"contracts/demo2.sol\":4581:4587  i = 16 */\n      swap1\n      pop\n        /* \"contracts/demo2.sol\":4485:4637  if (x & 0xffffffffffffffffffffffffffffffff00000000000000000000000000000000 == 0) {\r... */\n      jump(tag_62)\n    tag_61:\n        /* \"contracts/demo2.sol\":4624:4625  0 */\n      0x00\n        /* \"contracts/demo2.sol\":4620:4625  i = 0 */\n      swap1\n      pop\n        /* \"contracts/demo2.sol\":4485:4637  if (x & 0xffffffffffffffffffffffffffffffff00000000000000000000000000000000 == 0) {\r... */\n    tag_62:\n        /* \"contracts/demo2.sol\":4365:4637  if (x & 0xffffffffffffffffffffffffffffffffffffffffffffffff0000000000000000 == 0) {\r... */\n    tag_60:\n        /* \"contracts/demo2.sol\":4647:4748  for (; i < 32; i++) {\r... */\n    tag_63:\n        /* \"contracts/demo2.sol\":4658:4660  32 */\n      0x20\n        /* \"contracts/demo2.sol\":4654:4655  i */\n      dup2\n        /* \"contracts/demo2.sol\":4654:4660  i < 32 */\n      lt\n        /* \"contracts/demo2.sol\":4647:4748  for (; i < 32; i++) {\r... */\n      iszero\n      tag_64\n      jumpi\n        /* \"contracts/demo2.sol\":4694:4695  0 */\n      0x00\n        /* \"contracts/demo2.sol\":4686:4695  b[i] != 0 */\n      0xf8\n      shl\n        /* \"contracts/demo2.sol\":4686:4687  b */\n      dup3\n        /* \"contracts/demo2.sol\":4688:4689  i */\n      dup3\n        /* \"contracts/demo2.sol\":4686:4690  b[i] */\n      dup2\n      mload\n      dup2\n      lt\n      tag_66\n      jumpi\n      invalid\n    tag_66:\n      0x20\n      add\n      add\n      mload\n      0xf8\n      shr\n      0xf8\n      shl\n        /* \"contracts/demo2.sol\":4686:4695  b[i] != 0 */\n      not(0xffffffffffffffffffffffffffffffffffffffffffffffffffffffffffffff)\n      and\n      eq\n        /* \"contracts/demo2.sol\":4682:4737  if (b[i] != 0) {\r... */\n      tag_67\n      jumpi\n        /* \"contracts/demo2.sol\":4716:4721  break */\n      jump(tag_64)\n        /* \"contracts/demo2.sol\":4682:4737  if (b[i] != 0) {\r... */\n    tag_67:\n        /* \"contracts/demo2.sol\":4662:4665  i++ */\n      dup1\n      dup1\n      0x01\n      add\n      swap2\n      pop\n      pop\n        /* \"contracts/demo2.sol\":4647:4748  for (; i < 32; i++) {\r... */\n      jump(tag_63)\n    tag_64:\n        /* \"contracts/demo2.sol\":4758:4769  uint length */\n      0x00\n        /* \"contracts/demo2.sol\":4777:4778  i */\n      dup2\n        /* \"contracts/demo2.sol\":4772:4774  32 */\n      0x20\n        /* \"contracts/demo2.sol\":4772:4778  32 - i */\n      sub\n        /* \"contracts/demo2.sol\":4758:4778  uint length = 32 - i */\n      swap1\n      pop\n        /* \"contracts/demo2.sol\":4789:4804  bytes memory rs */\n      0x60\n        /* \"contracts/demo2.sol\":4817:4823  length */\n      dup2\n        /* \"contracts/demo2.sol\":4807:4824  new bytes(length) */\n      mload(0x40)\n      swap1\n      dup1\n      dup3\n      mstore\n      dup1\n      0x1f\n      add\n      not(0x1f)\n      and\n      0x20\n      add\n      dup3\n      add\n      0x40\n      mstore\n      dup1\n      iszero\n      tag_68\n      jumpi\n      dup2\n      0x20\n      add\n        /* \"--CODEGEN--\":29:30   */\n      0x01\n        /* \"--CODEGEN--\":21:27   */\n      dup3\n        /* \"--CODEGEN--\":17:31   */\n      mul\n        /* \"--CODEGEN--\":124:128   */\n      dup1\n        /* \"--CODEGEN--\":108:122   */\n      calldatasize\n        /* \"--CODEGEN--\":100:106   */\n      dup4\n        /* \"--CODEGEN--\":87:129   */\n      calldatacopy\n        /* \"--CODEGEN--\":155:159   */\n      dup1\n        /* \"--CODEGEN--\":147:153   */\n      dup3\n        /* \"--CODEGEN--\":143:160   */\n      add\n        /* \"--CODEGEN--\":133:160   */\n      swap2\n      pop\n        /* \"--CODEGEN--\":0:164   */\n      pop\n        /* \"contracts/demo2.sol\":4807:4824  new bytes(length) */\n      swap1\n      pop\n    tag_68:\n      pop\n        /* \"contracts/demo2.sol\":4789:4824  bytes memory rs = new bytes(length) */\n      swap1\n      pop\n        /* \"contracts/demo2.sol\":4883:4884  x */\n      dup6\n        /* \"contracts/demo2.sol\":4874:4880  length */\n      dup3\n        /* \"contracts/demo2.sol\":4870:4872  rs */\n      dup3\n        /* \"contracts/demo2.sol\":4866:4881  add(rs, length) */\n      add\n        /* \"contracts/demo2.sol\":4859:4885  mstore(add(rs, length), x) */\n      mstore\n        /* \"contracts/demo2.sol\":4910:4916  length */\n      dup2\n        /* \"contracts/demo2.sol\":4906:4908  rs */\n      dup2\n        /* \"contracts/demo2.sol\":4899:4917  mstore(rs, length) */\n      mstore\n        /* \"contracts/demo2.sol\":4945:4947  rs */\n      dup1\n        /* \"contracts/demo2.sol\":4938:4947  return rs */\n      swap5\n      pop\n      pop\n      pop\n      pop\n      pop\n        /* \"contracts/demo2.sol\":4167:4955  function toBinary(uint x) internal pure returns (bytes memory) {\r... */\n      swap2\n      swap1\n      pop\n      jump\t// out\n        /* \"--CODEGEN--\":21:714   */\n    tag_70:\n      0x00\n        /* \"--CODEGEN--\":143:146   */\n      dup3\n        /* \"--CODEGEN--\":136:140   */\n      0x1f\n        /* \"--CODEGEN--\":128:134   */\n      dup4\n        /* \"--CODEGEN--\":124:141   */\n      add\n        /* \"--CODEGEN--\":120:147   */\n      slt\n        /* \"--CODEGEN--\":110:112   */\n      tag_72\n      jumpi\n        /* \"--CODEGEN--\":161:162   */\n      0x00\n        /* \"--CODEGEN--\":158:159   */\n      dup1\n        /* \"--CODEGEN--\":151:163   */\n      revert\n        /* \"--CODEGEN--\":110:112   */\n    tag_72:\n        /* \"--CODEGEN--\":198:204   */\n      dup2\n        /* \"--CODEGEN--\":185:205   */\n      calldataload\n        /* \"--CODEGEN--\":220:305   */\n      tag_73\n        /* \"--CODEGEN--\":235:304   */\n      tag_74\n        /* \"--CODEGEN--\":297:303   */\n      dup3\n        /* \"--CODEGEN--\":235:304   */\n      jump(tag_75)\n    tag_74:\n        /* \"--CODEGEN--\":220:305   */\n      jump(tag_76)\n    tag_73:\n        /* \"--CODEGEN--\":211:305   */\n      swap2\n      pop\n        /* \"--CODEGEN--\":322:327   */\n      dup2\n        /* \"--CODEGEN--\":347:353   */\n      dup2\n        /* \"--CODEGEN--\":340:345   */\n      dup4\n        /* \"--CODEGEN--\":333:354   */\n      mstore\n        /* \"--CODEGEN--\":377:381   */\n      0x20\n        /* \"--CODEGEN--\":369:375   */\n      dup5\n        /* \"--CODEGEN--\":365:382   */\n      add\n        /* \"--CODEGEN--\":355:382   */\n      swap4\n      pop\n        /* \"--CODEGEN--\":399:403   */\n      0x20\n        /* \"--CODEGEN--\":394:397   */\n      dup2\n        /* \"--CODEGEN--\":390:404   */\n      add\n        /* \"--CODEGEN--\":383:404   */\n      swap1\n      pop\n        /* \"--CODEGEN--\":452:458   */\n      dup4\n        /* \"--CODEGEN--\":485:486   */\n      0x00\n        /* \"--CODEGEN--\":470:708   */\n    tag_77:\n        /* \"--CODEGEN--\":495:501   */\n      dup4\n        /* \"--CODEGEN--\":492:493   */\n      dup2\n        /* \"--CODEGEN--\":489:502   */\n      lt\n        /* \"--CODEGEN--\":470:708   */\n      iszero\n      tag_79\n      jumpi\n        /* \"--CODEGEN--\":578:581   */\n      dup2\n        /* \"--CODEGEN--\":565:582   */\n      calldataload\n        /* \"--CODEGEN--\":557:563   */\n      dup7\n        /* \"--CODEGEN--\":553:583   */\n      add\n        /* \"--CODEGEN--\":602:644   */\n      tag_80\n        /* \"--CODEGEN--\":640:643   */\n      dup9\n        /* \"--CODEGEN--\":628:638   */\n      dup3\n        /* \"--CODEGEN--\":602:644   */\n      jump(tag_81)\n    tag_80:\n        /* \"--CODEGEN--\":597:600   */\n      dup5\n        /* \"--CODEGEN--\":590:645   */\n      mstore\n        /* \"--CODEGEN--\":668:672   */\n      0x20\n        /* \"--CODEGEN--\":663:666   */\n      dup5\n        /* \"--CODEGEN--\":659:673   */\n      add\n        /* \"--CODEGEN--\":652:673   */\n      swap4\n      pop\n        /* \"--CODEGEN--\":696:700   */\n      0x20\n        /* \"--CODEGEN--\":691:694   */\n      dup4\n        /* \"--CODEGEN--\":687:701   */\n      add\n        /* \"--CODEGEN--\":680:701   */\n      swap3\n      pop\n        /* \"--CODEGEN--\":527:708   */\n      pop\n        /* \"--CODEGEN--\":517:518   */\n      0x01\n        /* \"--CODEGEN--\":514:515   */\n      dup2\n        /* \"--CODEGEN--\":510:519   */\n      add\n        /* \"--CODEGEN--\":505:519   */\n      swap1\n      pop\n        /* \"--CODEGEN--\":470:708   */\n      jump(tag_77)\n    tag_79:\n        /* \"--CODEGEN--\":474:488   */\n      pop\n        /* \"--CODEGEN--\":103:714   */\n      pop\n      pop\n      pop\n      swap3\n      swap2\n      pop\n      pop\n      jump\n        /* \"--CODEGEN--\":723:1155   */\n    tag_81:\n      0x00\n        /* \"--CODEGEN--\":820:823   */\n      dup3\n        /* \"--CODEGEN--\":813:817   */\n      0x1f\n        /* \"--CODEGEN--\":805:811   */\n      dup4\n        /* \"--CODEGEN--\":801:818   */\n      add\n        /* \"--CODEGEN--\":797:824   */\n      slt\n        /* \"--CODEGEN--\":787:789   */\n      tag_83\n      jumpi\n        /* \"--CODEGEN--\":838:839   */\n      0x00\n        /* \"--CODEGEN--\":835:836   */\n      dup1\n        /* \"--CODEGEN--\":828:840   */\n      revert\n        /* \"--CODEGEN--\":787:789   */\n    tag_83:\n        /* \"--CODEGEN--\":875:881   */\n      dup2\n        /* \"--CODEGEN--\":862:882   */\n      calldataload\n        /* \"--CODEGEN--\":897:957   */\n      tag_84\n        /* \"--CODEGEN--\":912:956   */\n      tag_85\n        /* \"--CODEGEN--\":949:955   */\n      dup3\n        /* \"--CODEGEN--\":912:956   */\n      jump(tag_86)\n    tag_85:\n        /* \"--CODEGEN--\":897:957   */\n      jump(tag_76)\n    tag_84:\n        /* \"--CODEGEN--\":888:957   */\n      swap2\n      pop\n        /* \"--CODEGEN--\":977:983   */\n      dup1\n        /* \"--CODEGEN--\":970:975   */\n      dup3\n        /* \"--CODEGEN--\":963:984   */\n      mstore\n        /* \"--CODEGEN--\":1013:1017   */\n      0x20\n        /* \"--CODEGEN--\":1005:1011   */\n      dup4\n        /* \"--CODEGEN--\":1001:1018   */\n      add\n        /* \"--CODEGEN--\":1046:1050   */\n      0x20\n        /* \"--CODEGEN--\":1039:1044   */\n      dup4\n        /* \"--CODEGEN--\":1035:1051   */\n      add\n        /* \"--CODEGEN--\":1081:1084   */\n      dup6\n        /* \"--CODEGEN--\":1072:1078   */\n      dup4\n        /* \"--CODEGEN--\":1067:1070   */\n      dup4\n        /* \"--CODEGEN--\":1063:1079   */\n      add\n        /* \"--CODEGEN--\":1060:1085   */\n      gt\n        /* \"--CODEGEN--\":1057:1059   */\n      iszero\n      tag_87\n      jumpi\n        /* \"--CODEGEN--\":1098:1099   */\n      0x00\n        /* \"--CODEGEN--\":1095:1096   */\n      dup1\n        /* \"--CODEGEN--\":1088:1100   */\n      revert\n        /* \"--CODEGEN--\":1057:1059   */\n    tag_87:\n        /* \"--CODEGEN--\":1108:1149   */\n      tag_88\n        /* \"--CODEGEN--\":1142:1148   */\n      dup4\n        /* \"--CODEGEN--\":1137:1140   */\n      dup3\n        /* \"--CODEGEN--\":1132:1135   */\n      dup5\n        /* \"--CODEGEN--\":1108:1149   */\n      jump(tag_89)\n    tag_88:\n        /* \"--CODEGEN--\":780:1155   */\n      pop\n      pop\n      pop\n      swap3\n      swap2\n      pop\n      pop\n      jump\n        /* \"--CODEGEN--\":1163:1550   */\n    tag_8:\n      0x00\n        /* \"--CODEGEN--\":1297:1299   */\n      0x20\n        /* \"--CODEGEN--\":1285:1294   */\n      dup3\n        /* \"--CODEGEN--\":1276:1283   */\n      dup5\n        /* \"--CODEGEN--\":1272:1295   */\n      sub\n        /* \"--CODEGEN--\":1268:1300   */\n      slt\n        /* \"--CODEGEN--\":1265:1267   */\n      iszero\n      tag_91\n      jumpi\n        /* \"--CODEGEN--\":1313:1314   */\n      0x00\n        /* \"--CODEGEN--\":1310:1311   */\n      dup1\n        /* \"--CODEGEN--\":1303:1315   */\n      revert\n        /* \"--CODEGEN--\":1265:1267   */\n    tag_91:\n        /* \"--CODEGEN--\":1376:1377   */\n      0x00\n        /* \"--CODEGEN--\":1365:1374   */\n      dup3\n        /* \"--CODEGEN--\":1361:1378   */\n      add\n        /* \"--CODEGEN--\":1348:1379   */\n      calldataload\n        /* \"--CODEGEN--\":1399:1417   */\n      0xffffffffffffffff\n        /* \"--CODEGEN--\":1391:1397   */\n      dup2\n        /* \"--CODEGEN--\":1388:1418   */\n      gt\n        /* \"--CODEGEN--\":1385:1387   */\n      iszero\n      tag_92\n      jumpi\n        /* \"--CODEGEN--\":1431:1432   */\n      0x00\n        /* \"--CODEGEN--\":1428:1429   */\n      dup1\n        /* \"--CODEGEN--\":1421:1433   */\n      revert\n        /* \"--CODEGEN--\":1385:1387   */\n    tag_92:\n        /* \"--CODEGEN--\":1451:1534   */\n      tag_93\n        /* \"--CODEGEN--\":1526:1533   */\n      dup5\n        /* \"--CODEGEN--\":1517:1523   */\n      dup3\n        /* \"--CODEGEN--\":1506:1515   */\n      dup6\n        /* \"--CODEGEN--\":1502:1524   */\n      add\n        /* \"--CODEGEN--\":1451:1534   */\n      jump(tag_70)\n    tag_93:\n        /* \"--CODEGEN--\":1441:1534   */\n      swap2\n      pop\n        /* \"--CODEGEN--\":1327:1540   */\n      pop\n        /* \"--CODEGEN--\":1259:1550   */\n      swap3\n      swap2\n      pop\n      pop\n      jump\n        /* \"--CODEGEN--\":1557:1670   */\n    tag_94:\n        /* \"--CODEGEN--\":1640:1664   */\n      tag_96\n        /* \"--CODEGEN--\":1658:1663   */\n      dup2\n        /* \"--CODEGEN--\":1640:1664   */\n      jump(tag_97)\n    tag_96:\n        /* \"--CODEGEN--\":1635:1638   */\n      dup3\n        /* \"--CODEGEN--\":1628:1665   */\n      mstore\n        /* \"--CODEGEN--\":1622:1670   */\n      pop\n      pop\n      jump\n        /* \"--CODEGEN--\":1677:2020   */\n    tag_98:\n      0x00\n        /* \"--CODEGEN--\":1787:1825   */\n      tag_100\n        /* \"--CODEGEN--\":1819:1824   */\n      dup3\n        /* \"--CODEGEN--\":1787:1825   */\n      jump(tag_101)\n    tag_100:\n        /* \"--CODEGEN--\":1837:1907   */\n      tag_102\n        /* \"--CODEGEN--\":1900:1906   */\n      dup2\n        /* \"--CODEGEN--\":1895:1898   */\n      dup6\n        /* \"--CODEGEN--\":1837:1907   */\n      jump(tag_103)\n    tag_102:\n        /* \"--CODEGEN--\":1830:1907   */\n      swap4\n      pop\n        /* \"--CODEGEN--\":1912:1964   */\n      tag_104\n        /* \"--CODEGEN--\":1957:1963   */\n      dup2\n        /* \"--CODEGEN--\":1952:1955   */\n      dup6\n        /* \"--CODEGEN--\":1945:1949   */\n      0x20\n        /* \"--CODEGEN--\":1938:1943   */\n      dup7\n        /* \"--CODEGEN--\":1934:1950   */\n      add\n        /* \"--CODEGEN--\":1912:1964   */\n      jump(tag_105)\n    tag_104:\n        /* \"--CODEGEN--\":1985:2014   */\n      tag_106\n        /* \"--CODEGEN--\":2007:2013   */\n      dup2\n        /* \"--CODEGEN--\":1985:2014   */\n      jump(tag_107)\n    tag_106:\n        /* \"--CODEGEN--\":1980:1983   */\n      dup5\n        /* \"--CODEGEN--\":1976:2015   */\n      add\n        /* \"--CODEGEN--\":1969:2015   */\n      swap2\n      pop\n        /* \"--CODEGEN--\":1767:2020   */\n      pop\n      swap3\n      swap2\n      pop\n      pop\n      jump\n        /* \"--CODEGEN--\":2027:2362   */\n    tag_108:\n      0x00\n        /* \"--CODEGEN--\":2133:2167   */\n      tag_110\n        /* \"--CODEGEN--\":2161:2166   */\n      dup3\n        /* \"--CODEGEN--\":2133:2167   */\n      jump(tag_111)\n    tag_110:\n        /* \"--CODEGEN--\":2179:2249   */\n      tag_112\n        /* \"--CODEGEN--\":2242:2248   */\n      dup2\n        /* \"--CODEGEN--\":2237:2240   */\n      dup6\n        /* \"--CODEGEN--\":2179:2249   */\n      jump(tag_103)\n    tag_112:\n        /* \"--CODEGEN--\":2172:2249   */\n      swap4\n      pop\n        /* \"--CODEGEN--\":2254:2306   */\n      tag_113\n        /* \"--CODEGEN--\":2299:2305   */\n      dup2\n        /* \"--CODEGEN--\":2294:2297   */\n      dup6\n        /* \"--CODEGEN--\":2287:2291   */\n      0x20\n        /* \"--CODEGEN--\":2280:2285   */\n      dup7\n        /* \"--CODEGEN--\":2276:2292   */\n      add\n        /* \"--CODEGEN--\":2254:2306   */\n      jump(tag_105)\n    tag_113:\n        /* \"--CODEGEN--\":2327:2356   */\n      tag_114\n        /* \"--CODEGEN--\":2349:2355   */\n      dup2\n        /* \"--CODEGEN--\":2327:2356   */\n      jump(tag_107)\n    tag_114:\n        /* \"--CODEGEN--\":2322:2325   */\n      dup5\n        /* \"--CODEGEN--\":2318:2357   */\n      add\n        /* \"--CODEGEN--\":2311:2357   */\n      swap2\n      pop\n        /* \"--CODEGEN--\":2113:2362   */\n      pop\n      swap3\n      swap2\n      pop\n      pop\n      jump\n        /* \"--CODEGEN--\":2370:2684   */\n    tag_115:\n      0x00\n        /* \"--CODEGEN--\":2530:2597   */\n      tag_117\n        /* \"--CODEGEN--\":2594:2596   */\n      0x0e\n        /* \"--CODEGEN--\":2589:2592   */\n      dup4\n        /* \"--CODEGEN--\":2530:2597   */\n      jump(tag_118)\n    tag_117:\n        /* \"--CODEGEN--\":2523:2597   */\n      swap2\n      pop\n        /* \"--CODEGEN--\":2630:2646   */\n      0x696e70757420746f6f206c6f6e67000000000000000000000000000000000000\n        /* \"--CODEGEN--\":2626:2627   */\n      0x00\n        /* \"--CODEGEN--\":2621:2624   */\n      dup4\n        /* \"--CODEGEN--\":2617:2628   */\n      add\n        /* \"--CODEGEN--\":2610:2647   */\n      mstore\n        /* \"--CODEGEN--\":2675:2677   */\n      0x20\n        /* \"--CODEGEN--\":2670:2673   */\n      dup3\n        /* \"--CODEGEN--\":2666:2678   */\n      add\n        /* \"--CODEGEN--\":2659:2678   */\n      swap1\n      pop\n        /* \"--CODEGEN--\":2516:2684   */\n      swap2\n      swap1\n      pop\n      jump\n        /* \"--CODEGEN--\":2692:2905   */\n    tag_19:\n      0x00\n        /* \"--CODEGEN--\":2810:2812   */\n      0x20\n        /* \"--CODEGEN--\":2799:2808   */\n      dup3\n        /* \"--CODEGEN--\":2795:2813   */\n      add\n        /* \"--CODEGEN--\":2787:2813   */\n      swap1\n      pop\n        /* \"--CODEGEN--\":2824:2895   */\n      tag_120\n        /* \"--CODEGEN--\":2892:2893   */\n      0x00\n        /* \"--CODEGEN--\":2881:2890   */\n      dup4\n        /* \"--CODEGEN--\":2877:2894   */\n      add\n        /* \"--CODEGEN--\":2868:2874   */\n      dup5\n        /* \"--CODEGEN--\":2824:2895   */\n      jump(tag_94)\n    tag_120:\n        /* \"--CODEGEN--\":2781:2905   */\n      swap3\n      swap2\n      pop\n      pop\n      jump\n        /* \"--CODEGEN--\":2912:3201   */\n    tag_15:\n      0x00\n        /* \"--CODEGEN--\":3044:3046   */\n      0x20\n        /* \"--CODEGEN--\":3033:3042   */\n      dup3\n        /* \"--CODEGEN--\":3029:3047   */\n      add\n        /* \"--CODEGEN--\":3021:3047   */\n      swap1\n      pop\n        /* \"--CODEGEN--\":3094:3103   */\n      dup2\n        /* \"--CODEGEN--\":3088:3092   */\n      dup2\n        /* \"--CODEGEN--\":3084:3104   */\n      sub\n        /* \"--CODEGEN--\":3080:3081   */\n      0x00\n        /* \"--CODEGEN--\":3069:3078   */\n      dup4\n        /* \"--CODEGEN--\":3065:3082   */\n      add\n        /* \"--CODEGEN--\":3058:3105   */\n      mstore\n        /* \"--CODEGEN--\":3119:3191   */\n      tag_122\n        /* \"--CODEGEN--\":3186:3190   */\n      dup2\n        /* \"--CODEGEN--\":3177:3183   */\n      dup5\n        /* \"--CODEGEN--\":3119:3191   */\n      jump(tag_108)\n    tag_122:\n        /* \"--CODEGEN--\":3111:3191   */\n      swap1\n      pop\n        /* \"--CODEGEN--\":3015:3201   */\n      swap3\n      swap2\n      pop\n      pop\n      jump\n        /* \"--CODEGEN--\":3208:3505   */\n    tag_11:\n      0x00\n        /* \"--CODEGEN--\":3344:3346   */\n      0x20\n        /* \"--CODEGEN--\":3333:3342   */\n      dup3\n        /* \"--CODEGEN--\":3329:3347   */\n      add\n        /* \"--CODEGEN--\":3321:3347   */\n      swap1\n      pop\n        /* \"--CODEGEN--\":3394:3403   */\n      dup2\n        /* \"--CODEGEN--\":3388:3392   */\n      dup2\n        /* \"--CODEGEN--\":3384:3404   */\n      sub\n        /* \"--CODEGEN--\":3380:3381   */\n      0x00\n        /* \"--CODEGEN--\":3369:3378   */\n      dup4\n        /* \"--CODEGEN--\":3365:3382   */\n      add\n        /* \"--CODEGEN--\":3358:3405   */\n      mstore\n        /* \"--CODEGEN--\":3419:3495   */\n      tag_124\n        /* \"--CODEGEN--\":3490:3494   */\n      dup2\n        /* \"--CODEGEN--\":3481:3487   */\n      dup5\n        /* \"--CODEGEN--\":3419:3495   */\n      jump(tag_98)\n    tag_124:\n        /* \"--CODEGEN--\":3411:3495   */\n      swap1\n      pop\n        /* \"--CODEGEN--\":3315:3505   */\n      swap3\n      swap2\n      pop\n      pop\n      jump\n        /* \"--CODEGEN--\":3512:3919   */\n    tag_49:\n      0x00\n        /* \"--CODEGEN--\":3703:3705   */\n      0x20\n        /* \"--CODEGEN--\":3692:3701   */\n      dup3\n        /* \"--CODEGEN--\":3688:3706   */\n      add\n        /* \"--CODEGEN--\":3680:3706   */\n      swap1\n      pop\n        /* \"--CODEGEN--\":3753:3762   */\n      dup2\n        /* \"--CODEGEN--\":3747:3751   */\n      dup2\n        /* \"--CODEGEN--\":3743:3763   */\n      sub\n        /* \"--CODEGEN--\":3739:3740   */\n      0x00\n        /* \"--CODEGEN--\":3728:3737   */\n      dup4\n        /* \"--CODEGEN--\":3724:3741   */\n      add\n        /* \"--CODEGEN--\":3717:3764   */\n      mstore\n        /* \"--CODEGEN--\":3778:3909   */\n      tag_126\n        /* \"--CODEGEN--\":3904:3908   */\n      dup2\n        /* \"--CODEGEN--\":3778:3909   */\n      jump(tag_115)\n    tag_126:\n        /* \"--CODEGEN--\":3770:3909   */\n      swap1\n      pop\n        /* \"--CODEGEN--\":3674:3919   */\n      swap2\n      swap1\n      pop\n      jump\n        /* \"--CODEGEN--\":3926:4182   */\n    tag_76:\n      0x00\n        /* \"--CODEGEN--\":3988:3990   */\n      0x40\n        /* \"--CODEGEN--\":3982:3991   */\n      mload\n        /* \"--CODEGEN--\":3972:3991   */\n      swap1\n      pop\n        /* \"--CODEGEN--\":4026:4030   */\n      dup2\n        /* \"--CODEGEN--\":4018:4024   */\n      dup2\n        /* \"--CODEGEN--\":4014:4031   */\n      add\n        /* \"--CODEGEN--\":4125:4131   */\n      dup2\n        /* \"--CODEGEN--\":4113:4123   */\n      dup2\n        /* \"--CODEGEN--\":4110:4132   */\n      lt\n        /* \"--CODEGEN--\":4089:4107   */\n      0xffffffffffffffff\n        /* \"--CODEGEN--\":4077:4087   */\n      dup3\n        /* \"--CODEGEN--\":4074:4108   */\n      gt\n        /* \"--CODEGEN--\":4071:4133   */\n      or\n        /* \"--CODEGEN--\":4068:4070   */\n      iszero\n      tag_128\n      jumpi\n        /* \"--CODEGEN--\":4146:4147   */\n      0x00\n        /* \"--CODEGEN--\":4143:4144   */\n      dup1\n        /* \"--CODEGEN--\":4136:4148   */\n      revert\n        /* \"--CODEGEN--\":4068:4070   */\n    tag_128:\n        /* \"--CODEGEN--\":4166:4176   */\n      dup1\n        /* \"--CODEGEN--\":4162:4164   */\n      0x40\n        /* \"--CODEGEN--\":4155:4177   */\n      mstore\n        /* \"--CODEGEN--\":3966:4182   */\n      pop\n      swap2\n      swap1\n      pop\n      jump\n        /* \"--CODEGEN--\":4189:4498   */\n    tag_75:\n      0x00\n        /* \"--CODEGEN--\":4353:4371   */\n      0xffffffffffffffff\n        /* \"--CODEGEN--\":4345:4351   */\n      dup3\n        /* \"--CODEGEN--\":4342:4372   */\n      gt\n        /* \"--CODEGEN--\":4339:4341   */\n      iszero\n      tag_130\n      jumpi\n        /* \"--CODEGEN--\":4385:4386   */\n      0x00\n        /* \"--CODEGEN--\":4382:4383   */\n      dup1\n        /* \"--CODEGEN--\":4375:4387   */\n      revert\n        /* \"--CODEGEN--\":4339:4341   */\n    tag_130:\n        /* \"--CODEGEN--\":4420:4424   */\n      0x20\n        /* \"--CODEGEN--\":4412:4418   */\n      dup3\n        /* \"--CODEGEN--\":4408:4425   */\n      mul\n        /* \"--CODEGEN--\":4400:4425   */\n      swap1\n      pop\n        /* \"--CODEGEN--\":4483:4487   */\n      0x20\n        /* \"--CODEGEN--\":4477:4481   */\n      dup2\n        /* \"--CODEGEN--\":4473:4488   */\n      add\n        /* \"--CODEGEN--\":4465:4488   */\n      swap1\n      pop\n        /* \"--CODEGEN--\":4276:4498   */\n      swap2\n      swap1\n      pop\n      jump\n        /* \"--CODEGEN--\":4505:4822   */\n    tag_86:\n      0x00\n        /* \"--CODEGEN--\":4644:4662   */\n      0xffffffffffffffff\n        /* \"--CODEGEN--\":4636:4642   */\n      dup3\n        /* \"--CODEGEN--\":4633:4663   */\n      gt\n        /* \"--CODEGEN--\":4630:4632   */\n      iszero\n      tag_132\n      jumpi\n        /* \"--CODEGEN--\":4676:4677   */\n      0x00\n        /* \"--CODEGEN--\":4673:4674   */\n      dup1\n        /* \"--CODEGEN--\":4666:4678   */\n      revert\n        /* \"--CODEGEN--\":4630:4632   */\n    tag_132:\n        /* \"--CODEGEN--\":4743:4747   */\n      0x1f\n        /* \"--CODEGEN--\":4739:4748   */\n      not\n        /* \"--CODEGEN--\":4732:4736   */\n      0x1f\n        /* \"--CODEGEN--\":4724:4730   */\n      dup4\n        /* \"--CODEGEN--\":4720:4737   */\n      add\n        /* \"--CODEGEN--\":4716:4749   */\n      and\n        /* \"--CODEGEN--\":4708:4749   */\n      swap1\n      pop\n        /* \"--CODEGEN--\":4807:4811   */\n      0x20\n        /* \"--CODEGEN--\":4801:4805   */\n      dup2\n        /* \"--CODEGEN--\":4797:4812   */\n      add\n        /* \"--CODEGEN--\":4789:4812   */\n      swap1\n      pop\n        /* \"--CODEGEN--\":4567:4822   */\n      swap2\n      swap1\n      pop\n      jump\n        /* \"--CODEGEN--\":4829:4946   */\n    tag_111:\n      0x00\n        /* \"--CODEGEN--\":4918:4923   */\n      dup2\n        /* \"--CODEGEN--\":4912:4924   */\n      mload\n        /* \"--CODEGEN--\":4902:4924   */\n      swap1\n      pop\n        /* \"--CODEGEN--\":4883:4946   */\n      swap2\n      swap1\n      pop\n      jump\n        /* \"--CODEGEN--\":4953:5074   */\n    tag_101:\n      0x00\n        /* \"--CODEGEN--\":5046:5051   */\n      dup2\n        /* \"--CODEGEN--\":5040:5052   */\n      mload\n        /* \"--CODEGEN--\":5030:5052   */\n      swap1\n      pop\n        /* \"--CODEGEN--\":5011:5074   */\n      swap2\n      swap1\n      pop\n      jump\n        /* \"--CODEGEN--\":5082:5244   */\n    tag_103:\n      0x00\n        /* \"--CODEGEN--\":5196:5202   */\n      dup3\n        /* \"--CODEGEN--\":5191:5194   */\n      dup3\n        /* \"--CODEGEN--\":5184:5203   */\n      mstore\n        /* \"--CODEGEN--\":5233:5237   */\n      0x20\n        /* \"--CODEGEN--\":5228:5231   */\n      dup3\n        /* \"--CODEGEN--\":5224:5238   */\n      add\n        /* \"--CODEGEN--\":5209:5238   */\n      swap1\n      pop\n        /* \"--CODEGEN--\":5177:5244   */\n      swap3\n      swap2\n      pop\n      pop\n      jump\n        /* \"--CODEGEN--\":5253:5416   */\n    tag_118:\n      0x00\n        /* \"--CODEGEN--\":5368:5374   */\n      dup3\n        /* \"--CODEGEN--\":5363:5366   */\n      dup3\n        /* \"--CODEGEN--\":5356:5375   */\n      mstore\n        /* \"--CODEGEN--\":5405:5409   */\n      0x20\n        /* \"--CODEGEN--\":5400:5403   */\n      dup3\n        /* \"--CODEGEN--\":5396:5410   */\n      add\n        /* \"--CODEGEN--\":5381:5410   */\n      swap1\n      pop\n        /* \"--CODEGEN--\":5349:5416   */\n      swap3\n      swap2\n      pop\n      pop\n      jump\n        /* \"--CODEGEN--\":5424:5496   */\n    tag_97:\n      0x00\n        /* \"--CODEGEN--\":5486:5491   */\n      dup2\n        /* \"--CODEGEN--\":5475:5491   */\n      swap1\n      pop\n        /* \"--CODEGEN--\":5469:5496   */\n      swap2\n      swap1\n      pop\n      jump\n        /* \"--CODEGEN--\":5504:5649   */\n    tag_89:\n        /* \"--CODEGEN--\":5585:5591   */\n      dup3\n        /* \"--CODEGEN--\":5580:5583   */\n      dup2\n        /* \"--CODEGEN--\":5575:5578   */\n      dup4\n        /* \"--CODEGEN--\":5562:5592   */\n      calldatacopy\n        /* \"--CODEGEN--\":5641:5642   */\n      0x00\n        /* \"--CODEGEN--\":5632:5638   */\n      dup4\n        /* \"--CODEGEN--\":5627:5630   */\n      dup4\n        /* \"--CODEGEN--\":5623:5639   */\n      add\n        /* \"--CODEGEN--\":5616:5643   */\n      mstore\n        /* \"--CODEGEN--\":5555:5649   */\n      pop\n      pop\n      pop\n      jump\n        /* \"--CODEGEN--\":5658:5926   */\n    tag_105:\n        /* \"--CODEGEN--\":5723:5724   */\n      0x00\n        /* \"--CODEGEN--\":5730:5831   */\n    tag_140:\n        /* \"--CODEGEN--\":5744:5750   */\n      dup4\n        /* \"--CODEGEN--\":5741:5742   */\n      dup2\n        /* \"--CODEGEN--\":5738:5751   */\n      lt\n        /* \"--CODEGEN--\":5730:5831   */\n      iszero\n      tag_142\n      jumpi\n        /* \"--CODEGEN--\":5820:5821   */\n      dup1\n        /* \"--CODEGEN--\":5815:5818   */\n      dup3\n        /* \"--CODEGEN--\":5811:5822   */\n      add\n        /* \"--CODEGEN--\":5805:5823   */\n      mload\n        /* \"--CODEGEN--\":5801:5802   */\n      dup2\n        /* \"--CODEGEN--\":5796:5799   */\n      dup5\n        /* \"--CODEGEN--\":5792:5803   */\n      add\n        /* \"--CODEGEN--\":5785:5824   */\n      mstore\n        /* \"--CODEGEN--\":5766:5768   */\n      0x20\n        /* \"--CODEGEN--\":5763:5764   */\n      dup2\n        /* \"--CODEGEN--\":5759:5769   */\n      add\n        /* \"--CODEGEN--\":5754:5769   */\n      swap1\n      pop\n        /* \"--CODEGEN--\":5730:5831   */\n      jump(tag_140)\n    tag_142:\n        /* \"--CODEGEN--\":5846:5852   */\n      dup4\n        /* \"--CODEGEN--\":5843:5844   */\n      dup2\n        /* \"--CODEGEN--\":5840:5853   */\n      gt\n        /* \"--CODEGEN--\":5837:5839   */\n      iszero\n      tag_143\n      jumpi\n        /* \"--CODEGEN--\":5911:5912   */\n      0x00\n        /* \"--CODEGEN--\":5902:5908   */\n      dup5\n        /* \"--CODEGEN--\":5897:5900   */\n      dup5\n        /* \"--CODEGEN--\":5893:5909   */\n      add\n        /* \"--CODEGEN--\":5886:5913   */\n      mstore\n        /* \"--CODEGEN--\":5837:5839   */\n    tag_143:\n        /* \"--CODEGEN--\":5707:5926   */\n      pop\n      pop\n      pop\n      pop\n      jump\n        /* \"--CODEGEN--\":5934:6031   */\n    tag_107:\n      0x00\n        /* \"--CODEGEN--\":6022:6024   */\n      0x1f\n        /* \"--CODEGEN--\":6018:6025   */\n      not\n        /* \"--CODEGEN--\":6013:6015   */\n      0x1f\n        /* \"--CODEGEN--\":6006:6011   */\n      dup4\n        /* \"--CODEGEN--\":6002:6016   */\n      add\n        /* \"--CODEGEN--\":5998:6026   */\n      and\n        /* \"--CODEGEN--\":5988:6026   */\n      swap1\n      pop\n        /* \"--CODEGEN--\":5982:6031   */\n      swap2\n      swap1\n      pop\n      jump\n\n    auxdata: 0xa264697066735822122035a18a0af1e8f2bd9c4488eed6e944e85470b6deb250d9ed0ac640c84769437b64736f6c63430006040033\n}\n",
				"bytecode": {
					"linkReferences": {},
					"object": "60806040526040518060600160405280602e8152602001610a06602e913960009080519060200190610032929190610069565b507f4c45484f4e47564f776a6e66766a3377656838764b4a0000000000000000000060015534801561006357600080fd5b5061010e565b828054600181600116156101000203166002900490600052602060002090601f016020900481019282601f106100aa57805160ff19168380011785556100d8565b828001600101855582156100d8579182015b828111156100d75782518255916020019190600101906100bc565b5b5090506100e591906100e9565b5090565b61010b91905b808211156101075760008160009055506001016100ef565b5090565b90565b6108e98061011d6000396000f3fe608060405234801561001057600080fd5b50600436106100415760003560e01c80630a282560146100465780639ffd85c414610076578063e3a7fd7514610094575b600080fd5b610060600480360381019061005b919061061c565b6100b2565b60405161006d919061075b565b60405180910390f35b61007e6100c4565b60405161008b9190610739565b60405180910390f35b61009c610162565b6040516100a9919061071e565b60405180910390f35b60606100bd82610168565b9050919050565b60008054600181600116156101000203166002900480601f01602080910402602001604051908101604052809291908181526020018280546001816001161561010002031660029004801561015a5780601f1061012f5761010080835404028352916020019161015a565b820191906000526020600020905b81548152906001019060200180831161013d57829003601f168201915b505050505081565b60015481565b60606000825114156101b05760006040519080825280601f01601f1916602001820160405280156101a85781602001600182028036833780820191505090505b509050610222565b6060826000815181106101bf57fe5b602002602001015190506000600190505b8351811015610205576101f6828583815181106101e957fe5b6020026020010151610227565b915080806001019150506101d0565b5061021e610218825160c060ff166102b1565b82610227565b9150505b919050565b6060806040519050835180825260208201818101602087015b8183101561025d5780518352602083019250602081019050610240565b50855192508351830184528091508282019050602086015b818310156102925780518352602083019250602081019050610275565b50601f19601f8851850115830101166040525050508091505092915050565b60606801000000000000000083106102fe576040517f08c379a00000000000000000000000000000000000000000000000000000000081526004016102f59061077d565b60405180910390fd5b606060016040519080825280601f01601f1916602001820160405280156103345781602001600182028036833780820191505090505b5090506037841161038a5782840160f81b8160008151811061035257fe5b60200101907effffffffffffffffffffffffffffffffffffffffffffffffffffffffffffff1916908160001a905350809150506103ec565b6060610395856103f2565b90506037848251010160f81b826000815181106103ae57fe5b60200101907effffffffffffffffffffffffffffffffffffffffffffffffffffffffffffff1916908160001a9053506103e78282610227565b925050505b92915050565b60608060206040519080825280601f01601f1916602001820160405280156104295781602001600182028036833780820191505090505b5090508260208201526000807fffffffffffffffffffffffffffffffffffffffffffffffff00000000000000008516141561046757601890506104a1565b60007fffffffffffffffffffffffffffffffff000000000000000000000000000000008516141561049b57601090506104a0565b600090505b5b5b602081101561050057600060f81b8282815181106104bc57fe5b602001015160f81c60f81b7effffffffffffffffffffffffffffffffffffffffffffffffffffffffffffff1916146104f357610500565b80806001019150506104a2565b60008160200390506060816040519080825280601f01601f19166020018201604052801561053d5781602001600182028036833780820191505090505b509050858282015281815280945050505050919050565b600082601f83011261056557600080fd5b8135610578610573826107ca565b61079d565b9150818183526020840193506020810190508360005b838110156105be57813586016105a488826105c8565b84526020840193506020830192505060018101905061058e565b5050505092915050565b600082601f8301126105d957600080fd5b81356105ec6105e7826107f2565b61079d565b9150808252602083016020830185838301111561060857600080fd5b610613838284610860565b50505092915050565b60006020828403121561062e57600080fd5b600082013567ffffffffffffffff81111561064857600080fd5b61065484828501610554565b91505092915050565b61066681610856565b82525050565b600061067782610829565b6106818185610834565b935061069181856020860161086f565b61069a816108a2565b840191505092915050565b60006106b08261081e565b6106ba8185610834565b93506106ca81856020860161086f565b6106d3816108a2565b840191505092915050565b60006106eb600e83610845565b91507f696e70757420746f6f206c6f6e670000000000000000000000000000000000006000830152602082019050919050565b6000602082019050610733600083018461065d565b92915050565b6000602082019050818103600083015261075381846106a5565b905092915050565b60006020820190508181036000830152610775818461066c565b905092915050565b60006020820190508181036000830152610796816106de565b9050919050565b6000604051905081810181811067ffffffffffffffff821117156107c057600080fd5b8060405250919050565b600067ffffffffffffffff8211156107e157600080fd5b602082029050602081019050919050565b600067ffffffffffffffff82111561080957600080fd5b601f19601f8301169050602081019050919050565b600081519050919050565b600081519050919050565b600082825260208201905092915050565b600082825260208201905092915050565b6000819050919050565b82818337600083830152505050565b60005b8381101561088d578082015181840152602081019050610872565b8381111561089c576000848401525b50505050565b6000601f19601f830116905091905056fea264697066735822122035a18a0af1e8f2bd9c4488eed6e944e85470b6deb250d9ed0ac640c84769437b64736f6c634300060400334e414c4548484a534744534447484a534448535548444a5348444a53484a53484a534844534a44484a4f4e47564f",
					"opcodes": "PUSH1 0x80 PUSH1 0x40 MSTORE PUSH1 0x40 MLOAD DUP1 PUSH1 0x60 ADD PUSH1 0x40 MSTORE DUP1 PUSH1 0x2E DUP2 MSTORE PUSH1 0x20 ADD PUSH2 0xA06 PUSH1 0x2E SWAP2 CODECOPY PUSH1 0x0 SWAP1 DUP1 MLOAD SWAP1 PUSH1 0x20 ADD SWAP1 PUSH2 0x32 SWAP3 SWAP2 SWAP1 PUSH2 0x69 JUMP JUMPDEST POP PUSH32 0x4C45484F4E47564F776A6E66766A3377656838764B4A00000000000000000000 PUSH1 0x1 SSTORE CALLVALUE DUP1 ISZERO PUSH2 0x63 JUMPI PUSH1 0x0 DUP1 REVERT JUMPDEST POP PUSH2 0x10E JUMP JUMPDEST DUP3 DUP1 SLOAD PUSH1 0x1 DUP2 PUSH1 0x1 AND ISZERO PUSH2 0x100 MUL SUB AND PUSH1 0x2 SWAP1 DIV SWAP1 PUSH1 0x0 MSTORE PUSH1 0x20 PUSH1 0x0 KECCAK256 SWAP1 PUSH1 0x1F ADD PUSH1 0x20 SWAP1 DIV DUP2 ADD SWAP3 DUP3 PUSH1 0x1F LT PUSH2 0xAA JUMPI DUP1 MLOAD PUSH1 0xFF NOT AND DUP4 DUP1 ADD OR DUP6 SSTORE PUSH2 0xD8 JUMP JUMPDEST DUP3 DUP1 ADD PUSH1 0x1 ADD DUP6 SSTORE DUP3 ISZERO PUSH2 0xD8 JUMPI SWAP2 DUP3 ADD JUMPDEST DUP3 DUP2 GT ISZERO PUSH2 0xD7 JUMPI DUP3 MLOAD DUP3 SSTORE SWAP2 PUSH1 0x20 ADD SWAP2 SWAP1 PUSH1 0x1 ADD SWAP1 PUSH2 0xBC JUMP JUMPDEST JUMPDEST POP SWAP1 POP PUSH2 0xE5 SWAP2 SWAP1 PUSH2 0xE9 JUMP JUMPDEST POP SWAP1 JUMP JUMPDEST PUSH2 0x10B SWAP2 SWAP1 JUMPDEST DUP1 DUP3 GT ISZERO PUSH2 0x107 JUMPI PUSH1 0x0 DUP2 PUSH1 0x0 SWAP1 SSTORE POP PUSH1 0x1 ADD PUSH2 0xEF JUMP JUMPDEST POP SWAP1 JUMP JUMPDEST SWAP1 JUMP JUMPDEST PUSH2 0x8E9 DUP1 PUSH2 0x11D PUSH1 0x0 CODECOPY PUSH1 0x0 RETURN INVALID PUSH1 0x80 PUSH1 0x40 MSTORE CALLVALUE DUP1 ISZERO PUSH2 0x10 JUMPI PUSH1 0x0 DUP1 REVERT JUMPDEST POP PUSH1 0x4 CALLDATASIZE LT PUSH2 0x41 JUMPI PUSH1 0x0 CALLDATALOAD PUSH1 0xE0 SHR DUP1 PUSH4 0xA282560 EQ PUSH2 0x46 JUMPI DUP1 PUSH4 0x9FFD85C4 EQ PUSH2 0x76 JUMPI DUP1 PUSH4 0xE3A7FD75 EQ PUSH2 0x94 JUMPI JUMPDEST PUSH1 0x0 DUP1 REVERT JUMPDEST PUSH2 0x60 PUSH1 0x4 DUP1 CALLDATASIZE SUB DUP2 ADD SWAP1 PUSH2 0x5B SWAP2 SWAP1 PUSH2 0x61C JUMP JUMPDEST PUSH2 0xB2 JUMP JUMPDEST PUSH1 0x40 MLOAD PUSH2 0x6D SWAP2 SWAP1 PUSH2 0x75B JUMP JUMPDEST PUSH1 0x40 MLOAD DUP1 SWAP2 SUB SWAP1 RETURN JUMPDEST PUSH2 0x7E PUSH2 0xC4 JUMP JUMPDEST PUSH1 0x40 MLOAD PUSH2 0x8B SWAP2 SWAP1 PUSH2 0x739 JUMP JUMPDEST PUSH1 0x40 MLOAD DUP1 SWAP2 SUB SWAP1 RETURN JUMPDEST PUSH2 0x9C PUSH2 0x162 JUMP JUMPDEST PUSH1 0x40 MLOAD PUSH2 0xA9 SWAP2 SWAP1 PUSH2 0x71E JUMP JUMPDEST PUSH1 0x40 MLOAD DUP1 SWAP2 SUB SWAP1 RETURN JUMPDEST PUSH1 0x60 PUSH2 0xBD DUP3 PUSH2 0x168 JUMP JUMPDEST SWAP1 POP SWAP2 SWAP1 POP JUMP JUMPDEST PUSH1 0x0 DUP1 SLOAD PUSH1 0x1 DUP2 PUSH1 0x1 AND ISZERO PUSH2 0x100 MUL SUB AND PUSH1 0x2 SWAP1 DIV DUP1 PUSH1 0x1F ADD PUSH1 0x20 DUP1 SWAP2 DIV MUL PUSH1 0x20 ADD PUSH1 0x40 MLOAD SWAP1 DUP2 ADD PUSH1 0x40 MSTORE DUP1 SWAP3 SWAP2 SWAP1 DUP2 DUP2 MSTORE PUSH1 0x20 ADD DUP3 DUP1 SLOAD PUSH1 0x1 DUP2 PUSH1 0x1 AND ISZERO PUSH2 0x100 MUL SUB AND PUSH1 0x2 SWAP1 DIV DUP1 ISZERO PUSH2 0x15A JUMPI DUP1 PUSH1 0x1F LT PUSH2 0x12F JUMPI PUSH2 0x100 DUP1 DUP4 SLOAD DIV MUL DUP4 MSTORE SWAP2 PUSH1 0x20 ADD SWAP2 PUSH2 0x15A JUMP JUMPDEST DUP3 ADD SWAP2 SWAP1 PUSH1 0x0 MSTORE PUSH1 0x20 PUSH1 0x0 KECCAK256 SWAP1 JUMPDEST DUP2 SLOAD DUP2 MSTORE SWAP1 PUSH1 0x1 ADD SWAP1 PUSH1 0x20 ADD DUP1 DUP4 GT PUSH2 0x13D JUMPI DUP3 SWAP1 SUB PUSH1 0x1F AND DUP3 ADD SWAP2 JUMPDEST POP POP POP POP POP DUP2 JUMP JUMPDEST PUSH1 0x1 SLOAD DUP2 JUMP JUMPDEST PUSH1 0x60 PUSH1 0x0 DUP3 MLOAD EQ ISZERO PUSH2 0x1B0 JUMPI PUSH1 0x0 PUSH1 0x40 MLOAD SWAP1 DUP1 DUP3 MSTORE DUP1 PUSH1 0x1F ADD PUSH1 0x1F NOT AND PUSH1 0x20 ADD DUP3 ADD PUSH1 0x40 MSTORE DUP1 ISZERO PUSH2 0x1A8 JUMPI DUP2 PUSH1 0x20 ADD PUSH1 0x1 DUP3 MUL DUP1 CALLDATASIZE DUP4 CALLDATACOPY DUP1 DUP3 ADD SWAP2 POP POP SWAP1 POP JUMPDEST POP SWAP1 POP PUSH2 0x222 JUMP JUMPDEST PUSH1 0x60 DUP3 PUSH1 0x0 DUP2 MLOAD DUP2 LT PUSH2 0x1BF JUMPI INVALID JUMPDEST PUSH1 0x20 MUL PUSH1 0x20 ADD ADD MLOAD SWAP1 POP PUSH1 0x0 PUSH1 0x1 SWAP1 POP JUMPDEST DUP4 MLOAD DUP2 LT ISZERO PUSH2 0x205 JUMPI PUSH2 0x1F6 DUP3 DUP6 DUP4 DUP2 MLOAD DUP2 LT PUSH2 0x1E9 JUMPI INVALID JUMPDEST PUSH1 0x20 MUL PUSH1 0x20 ADD ADD MLOAD PUSH2 0x227 JUMP JUMPDEST SWAP2 POP DUP1 DUP1 PUSH1 0x1 ADD SWAP2 POP POP PUSH2 0x1D0 JUMP JUMPDEST POP PUSH2 0x21E PUSH2 0x218 DUP3 MLOAD PUSH1 0xC0 PUSH1 0xFF AND PUSH2 0x2B1 JUMP JUMPDEST DUP3 PUSH2 0x227 JUMP JUMPDEST SWAP2 POP POP JUMPDEST SWAP2 SWAP1 POP JUMP JUMPDEST PUSH1 0x60 DUP1 PUSH1 0x40 MLOAD SWAP1 POP DUP4 MLOAD DUP1 DUP3 MSTORE PUSH1 0x20 DUP3 ADD DUP2 DUP2 ADD PUSH1 0x20 DUP8 ADD JUMPDEST DUP2 DUP4 LT ISZERO PUSH2 0x25D JUMPI DUP1 MLOAD DUP4 MSTORE PUSH1 0x20 DUP4 ADD SWAP3 POP PUSH1 0x20 DUP2 ADD SWAP1 POP PUSH2 0x240 JUMP JUMPDEST POP DUP6 MLOAD SWAP3 POP DUP4 MLOAD DUP4 ADD DUP5 MSTORE DUP1 SWAP2 POP DUP3 DUP3 ADD SWAP1 POP PUSH1 0x20 DUP7 ADD JUMPDEST DUP2 DUP4 LT ISZERO PUSH2 0x292 JUMPI DUP1 MLOAD DUP4 MSTORE PUSH1 0x20 DUP4 ADD SWAP3 POP PUSH1 0x20 DUP2 ADD SWAP1 POP PUSH2 0x275 JUMP JUMPDEST POP PUSH1 0x1F NOT PUSH1 0x1F DUP9 MLOAD DUP6 ADD ISZERO DUP4 ADD ADD AND PUSH1 0x40 MSTORE POP POP POP DUP1 SWAP2 POP POP SWAP3 SWAP2 POP POP JUMP JUMPDEST PUSH1 0x60 PUSH9 0x10000000000000000 DUP4 LT PUSH2 0x2FE JUMPI PUSH1 0x40 MLOAD PUSH32 0x8C379A000000000000000000000000000000000000000000000000000000000 DUP2 MSTORE PUSH1 0x4 ADD PUSH2 0x2F5 SWAP1 PUSH2 0x77D JUMP JUMPDEST PUSH1 0x40 MLOAD DUP1 SWAP2 SUB SWAP1 REVERT JUMPDEST PUSH1 0x60 PUSH1 0x1 PUSH1 0x40 MLOAD SWAP1 DUP1 DUP3 MSTORE DUP1 PUSH1 0x1F ADD PUSH1 0x1F NOT AND PUSH1 0x20 ADD DUP3 ADD PUSH1 0x40 MSTORE DUP1 ISZERO PUSH2 0x334 JUMPI DUP2 PUSH1 0x20 ADD PUSH1 0x1 DUP3 MUL DUP1 CALLDATASIZE DUP4 CALLDATACOPY DUP1 DUP3 ADD SWAP2 POP POP SWAP1 POP JUMPDEST POP SWAP1 POP PUSH1 0x37 DUP5 GT PUSH2 0x38A JUMPI DUP3 DUP5 ADD PUSH1 0xF8 SHL DUP2 PUSH1 0x0 DUP2 MLOAD DUP2 LT PUSH2 0x352 JUMPI INVALID JUMPDEST PUSH1 0x20 ADD ADD SWAP1 PUSH31 0xFFFFFFFFFFFFFFFFFFFFFFFFFFFFFFFFFFFFFFFFFFFFFFFFFFFFFFFFFFFFFF NOT AND SWAP1 DUP2 PUSH1 0x0 BYTE SWAP1 MSTORE8 POP DUP1 SWAP2 POP POP PUSH2 0x3EC JUMP JUMPDEST PUSH1 0x60 PUSH2 0x395 DUP6 PUSH2 0x3F2 JUMP JUMPDEST SWAP1 POP PUSH1 0x37 DUP5 DUP3 MLOAD ADD ADD PUSH1 0xF8 SHL DUP3 PUSH1 0x0 DUP2 MLOAD DUP2 LT PUSH2 0x3AE JUMPI INVALID JUMPDEST PUSH1 0x20 ADD ADD SWAP1 PUSH31 0xFFFFFFFFFFFFFFFFFFFFFFFFFFFFFFFFFFFFFFFFFFFFFFFFFFFFFFFFFFFFFF NOT AND SWAP1 DUP2 PUSH1 0x0 BYTE SWAP1 MSTORE8 POP PUSH2 0x3E7 DUP3 DUP3 PUSH2 0x227 JUMP JUMPDEST SWAP3 POP POP POP JUMPDEST SWAP3 SWAP2 POP POP JUMP JUMPDEST PUSH1 0x60 DUP1 PUSH1 0x20 PUSH1 0x40 MLOAD SWAP1 DUP1 DUP3 MSTORE DUP1 PUSH1 0x1F ADD PUSH1 0x1F NOT AND PUSH1 0x20 ADD DUP3 ADD PUSH1 0x40 MSTORE DUP1 ISZERO PUSH2 0x429 JUMPI DUP2 PUSH1 0x20 ADD PUSH1 0x1 DUP3 MUL DUP1 CALLDATASIZE DUP4 CALLDATACOPY DUP1 DUP3 ADD SWAP2 POP POP SWAP1 POP JUMPDEST POP SWAP1 POP DUP3 PUSH1 0x20 DUP3 ADD MSTORE PUSH1 0x0 DUP1 PUSH32 0xFFFFFFFFFFFFFFFFFFFFFFFFFFFFFFFFFFFFFFFFFFFFFFFF0000000000000000 DUP6 AND EQ ISZERO PUSH2 0x467 JUMPI PUSH1 0x18 SWAP1 POP PUSH2 0x4A1 JUMP JUMPDEST PUSH1 0x0 PUSH32 0xFFFFFFFFFFFFFFFFFFFFFFFFFFFFFFFF00000000000000000000000000000000 DUP6 AND EQ ISZERO PUSH2 0x49B JUMPI PUSH1 0x10 SWAP1 POP PUSH2 0x4A0 JUMP JUMPDEST PUSH1 0x0 SWAP1 POP JUMPDEST JUMPDEST JUMPDEST PUSH1 0x20 DUP2 LT ISZERO PUSH2 0x500 JUMPI PUSH1 0x0 PUSH1 0xF8 SHL DUP3 DUP3 DUP2 MLOAD DUP2 LT PUSH2 0x4BC JUMPI INVALID JUMPDEST PUSH1 0x20 ADD ADD MLOAD PUSH1 0xF8 SHR PUSH1 0xF8 SHL PUSH31 0xFFFFFFFFFFFFFFFFFFFFFFFFFFFFFFFFFFFFFFFFFFFFFFFFFFFFFFFFFFFFFF NOT AND EQ PUSH2 0x4F3 JUMPI PUSH2 0x500 JUMP JUMPDEST DUP1 DUP1 PUSH1 0x1 ADD SWAP2 POP POP PUSH2 0x4A2 JUMP JUMPDEST PUSH1 0x0 DUP2 PUSH1 0x20 SUB SWAP1 POP PUSH1 0x60 DUP2 PUSH1 0x40 MLOAD SWAP1 DUP1 DUP3 MSTORE DUP1 PUSH1 0x1F ADD PUSH1 0x1F NOT AND PUSH1 0x20 ADD DUP3 ADD PUSH1 0x40 MSTORE DUP1 ISZERO PUSH2 0x53D JUMPI DUP2 PUSH1 0x20 ADD PUSH1 0x1 DUP3 MUL DUP1 CALLDATASIZE DUP4 CALLDATACOPY DUP1 DUP3 ADD SWAP2 POP POP SWAP1 POP JUMPDEST POP SWAP1 POP DUP6 DUP3 DUP3 ADD MSTORE DUP2 DUP2 MSTORE DUP1 SWAP5 POP POP POP POP POP SWAP2 SWAP1 POP JUMP JUMPDEST PUSH1 0x0 DUP3 PUSH1 0x1F DUP4 ADD SLT PUSH2 0x565 JUMPI PUSH1 0x0 DUP1 REVERT JUMPDEST DUP2 CALLDATALOAD PUSH2 0x578 PUSH2 0x573 DUP3 PUSH2 0x7CA JUMP JUMPDEST PUSH2 0x79D JUMP JUMPDEST SWAP2 POP DUP2 DUP2 DUP4 MSTORE PUSH1 0x20 DUP5 ADD SWAP4 POP PUSH1 0x20 DUP2 ADD SWAP1 POP DUP4 PUSH1 0x0 JUMPDEST DUP4 DUP2 LT ISZERO PUSH2 0x5BE JUMPI DUP2 CALLDATALOAD DUP7 ADD PUSH2 0x5A4 DUP9 DUP3 PUSH2 0x5C8 JUMP JUMPDEST DUP5 MSTORE PUSH1 0x20 DUP5 ADD SWAP4 POP PUSH1 0x20 DUP4 ADD SWAP3 POP POP PUSH1 0x1 DUP2 ADD SWAP1 POP PUSH2 0x58E JUMP JUMPDEST POP POP POP POP SWAP3 SWAP2 POP POP JUMP JUMPDEST PUSH1 0x0 DUP3 PUSH1 0x1F DUP4 ADD SLT PUSH2 0x5D9 JUMPI PUSH1 0x0 DUP1 REVERT JUMPDEST DUP2 CALLDATALOAD PUSH2 0x5EC PUSH2 0x5E7 DUP3 PUSH2 0x7F2 JUMP JUMPDEST PUSH2 0x79D JUMP JUMPDEST SWAP2 POP DUP1 DUP3 MSTORE PUSH1 0x20 DUP4 ADD PUSH1 0x20 DUP4 ADD DUP6 DUP4 DUP4 ADD GT ISZERO PUSH2 0x608 JUMPI PUSH1 0x0 DUP1 REVERT JUMPDEST PUSH2 0x613 DUP4 DUP3 DUP5 PUSH2 0x860 JUMP JUMPDEST POP POP POP SWAP3 SWAP2 POP POP JUMP JUMPDEST PUSH1 0x0 PUSH1 0x20 DUP3 DUP5 SUB SLT ISZERO PUSH2 0x62E JUMPI PUSH1 0x0 DUP1 REVERT JUMPDEST PUSH1 0x0 DUP3 ADD CALLDATALOAD PUSH8 0xFFFFFFFFFFFFFFFF DUP2 GT ISZERO PUSH2 0x648 JUMPI PUSH1 0x0 DUP1 REVERT JUMPDEST PUSH2 0x654 DUP5 DUP3 DUP6 ADD PUSH2 0x554 JUMP JUMPDEST SWAP2 POP POP SWAP3 SWAP2 POP POP JUMP JUMPDEST PUSH2 0x666 DUP2 PUSH2 0x856 JUMP JUMPDEST DUP3 MSTORE POP POP JUMP JUMPDEST PUSH1 0x0 PUSH2 0x677 DUP3 PUSH2 0x829 JUMP JUMPDEST PUSH2 0x681 DUP2 DUP6 PUSH2 0x834 JUMP JUMPDEST SWAP4 POP PUSH2 0x691 DUP2 DUP6 PUSH1 0x20 DUP7 ADD PUSH2 0x86F JUMP JUMPDEST PUSH2 0x69A DUP2 PUSH2 0x8A2 JUMP JUMPDEST DUP5 ADD SWAP2 POP POP SWAP3 SWAP2 POP POP JUMP JUMPDEST PUSH1 0x0 PUSH2 0x6B0 DUP3 PUSH2 0x81E JUMP JUMPDEST PUSH2 0x6BA DUP2 DUP6 PUSH2 0x834 JUMP JUMPDEST SWAP4 POP PUSH2 0x6CA DUP2 DUP6 PUSH1 0x20 DUP7 ADD PUSH2 0x86F JUMP JUMPDEST PUSH2 0x6D3 DUP2 PUSH2 0x8A2 JUMP JUMPDEST DUP5 ADD SWAP2 POP POP SWAP3 SWAP2 POP POP JUMP JUMPDEST PUSH1 0x0 PUSH2 0x6EB PUSH1 0xE DUP4 PUSH2 0x845 JUMP JUMPDEST SWAP2 POP PUSH32 0x696E70757420746F6F206C6F6E67000000000000000000000000000000000000 PUSH1 0x0 DUP4 ADD MSTORE PUSH1 0x20 DUP3 ADD SWAP1 POP SWAP2 SWAP1 POP JUMP JUMPDEST PUSH1 0x0 PUSH1 0x20 DUP3 ADD SWAP1 POP PUSH2 0x733 PUSH1 0x0 DUP4 ADD DUP5 PUSH2 0x65D JUMP JUMPDEST SWAP3 SWAP2 POP POP JUMP JUMPDEST PUSH1 0x0 PUSH1 0x20 DUP3 ADD SWAP1 POP DUP2 DUP2 SUB PUSH1 0x0 DUP4 ADD MSTORE PUSH2 0x753 DUP2 DUP5 PUSH2 0x6A5 JUMP JUMPDEST SWAP1 POP SWAP3 SWAP2 POP POP JUMP JUMPDEST PUSH1 0x0 PUSH1 0x20 DUP3 ADD SWAP1 POP DUP2 DUP2 SUB PUSH1 0x0 DUP4 ADD MSTORE PUSH2 0x775 DUP2 DUP5 PUSH2 0x66C JUMP JUMPDEST SWAP1 POP SWAP3 SWAP2 POP POP JUMP JUMPDEST PUSH1 0x0 PUSH1 0x20 DUP3 ADD SWAP1 POP DUP2 DUP2 SUB PUSH1 0x0 DUP4 ADD MSTORE PUSH2 0x796 DUP2 PUSH2 0x6DE JUMP JUMPDEST SWAP1 POP SWAP2 SWAP1 POP JUMP JUMPDEST PUSH1 0x0 PUSH1 0x40 MLOAD SWAP1 POP DUP2 DUP2 ADD DUP2 DUP2 LT PUSH8 0xFFFFFFFFFFFFFFFF DUP3 GT OR ISZERO PUSH2 0x7C0 JUMPI PUSH1 0x0 DUP1 REVERT JUMPDEST DUP1 PUSH1 0x40 MSTORE POP SWAP2 SWAP1 POP JUMP JUMPDEST PUSH1 0x0 PUSH8 0xFFFFFFFFFFFFFFFF DUP3 GT ISZERO PUSH2 0x7E1 JUMPI PUSH1 0x0 DUP1 REVERT JUMPDEST PUSH1 0x20 DUP3 MUL SWAP1 POP PUSH1 0x20 DUP2 ADD SWAP1 POP SWAP2 SWAP1 POP JUMP JUMPDEST PUSH1 0x0 PUSH8 0xFFFFFFFFFFFFFFFF DUP3 GT ISZERO PUSH2 0x809 JUMPI PUSH1 0x0 DUP1 REVERT JUMPDEST PUSH1 0x1F NOT PUSH1 0x1F DUP4 ADD AND SWAP1 POP PUSH1 0x20 DUP2 ADD SWAP1 POP SWAP2 SWAP1 POP JUMP JUMPDEST PUSH1 0x0 DUP2 MLOAD SWAP1 POP SWAP2 SWAP1 POP JUMP JUMPDEST PUSH1 0x0 DUP2 MLOAD SWAP1 POP SWAP2 SWAP1 POP JUMP JUMPDEST PUSH1 0x0 DUP3 DUP3 MSTORE PUSH1 0x20 DUP3 ADD SWAP1 POP SWAP3 SWAP2 POP POP JUMP JUMPDEST PUSH1 0x0 DUP3 DUP3 MSTORE PUSH1 0x20 DUP3 ADD SWAP1 POP SWAP3 SWAP2 POP POP JUMP JUMPDEST PUSH1 0x0 DUP2 SWAP1 POP SWAP2 SWAP1 POP JUMP JUMPDEST DUP3 DUP2 DUP4 CALLDATACOPY PUSH1 0x0 DUP4 DUP4 ADD MSTORE POP POP POP JUMP JUMPDEST PUSH1 0x0 JUMPDEST DUP4 DUP2 LT ISZERO PUSH2 0x88D JUMPI DUP1 DUP3 ADD MLOAD DUP2 DUP5 ADD MSTORE PUSH1 0x20 DUP2 ADD SWAP1 POP PUSH2 0x872 JUMP JUMPDEST DUP4 DUP2 GT ISZERO PUSH2 0x89C JUMPI PUSH1 0x0 DUP5 DUP5 ADD MSTORE JUMPDEST POP POP POP POP JUMP JUMPDEST PUSH1 0x0 PUSH1 0x1F NOT PUSH1 0x1F DUP4 ADD AND SWAP1 POP SWAP2 SWAP1 POP JUMP INVALID LOG2 PUSH5 0x6970667358 0x22 SLT KECCAK256 CALLDATALOAD LOG1 DUP11 EXP CALL 0xE8 CALLCODE 0xBD SWAP13 DIFFICULTY DUP9 0xEE 0xD6 0xE9 DIFFICULTY 0xE8 SLOAD PUSH17 0xB6DEB250D9ED0AC640C84769437B64736F PUSH13 0x634300060400334E414C454848 0x4A MSTORE8 SELFBALANCE DIFFICULTY MSTORE8 DIFFICULTY SELFBALANCE 0x48 0x4A MSTORE8 DIFFICULTY 0x48 MSTORE8 SSTORE 0x48 DIFFICULTY 0x4A MSTORE8 0x48 DIFFICULTY 0x4A MSTORE8 0x48 0x4A MSTORE8 0x48 0x4A MSTORE8 0x48 DIFFICULTY MSTORE8 0x4A DIFFICULTY 0x48 0x4A 0x4F 0x4E SELFBALANCE JUMP 0x4F "
				},
				"gasEstimates": {
					"creation": {
						"codeDepositCost": "456200",
						"executionCost": "infinite",
						"totalCost": "infinite"
					},
					"external": {
						"data1()": "infinite",
						"data2()": "1151",
						"getData(bytes[])": "infinite"
					},
					"internal": {
						"encodeLength(uint256,uint256)": "infinite",
						"encodeList(bytes memory[] memory)": "infinite",
						"mergeBytes(bytes memory,bytes memory)": "infinite",
						"toBinary(uint256)": "infinite"
					}
				},
				"methodIdentifiers": {
					"data1()": "9ffd85c4",
					"data2()": "e3a7fd75",
					"getData(bytes[])": "0a282560"
				}
			},
			"userdoc": {
				"methods": {}
			}
		}
	}
}