{
	"contracts/demo1.sol": {
		"Demo1": {
			"abi": [
				{
					"inputs": [
						{
							"internalType": "uint256",
							"name": "_len",
							"type": "uint256"
						},
						{
							"internalType": "uint256",
							"name": "_memPtr",
							"type": "uint256"
						}
					],
					"payable": false,
					"stateMutability": "nonpayable",
					"type": "constructor"
				},
				{
					"constant": true,
					"inputs": [],
					"name": "getData",
					"outputs": [
						{
							"internalType": "uint256",
							"name": "",
							"type": "uint256"
						}
					],
					"payable": false,
					"stateMutability": "view",
					"type": "function"
				},
				{
					"constant": true,
					"inputs": [],
					"name": "rlpItem",
					"outputs": [
						{
							"internalType": "uint256",
							"name": "len",
							"type": "uint256"
						},
						{
							"internalType": "uint256",
							"name": "memPtr",
							"type": "uint256"
						}
					],
					"payable": false,
					"stateMutability": "view",
					"type": "function"
				}
			],
			"devdoc": {
				"methods": {}
			},
			"evm": {
				"assembly": "    /* \"contracts/demo1.sol\":92:21757  contract Demo1{\r... */\n  mstore(0x40, 0x80)\n    /* \"contracts/demo1.sol\":607:723  constructor(uint _len, uint _memPtr) public {\r... */\n  callvalue\n    /* \"--CODEGEN--\":8:17   */\n  dup1\n    /* \"--CODEGEN--\":5:7   */\n  iszero\n  tag_1\n  jumpi\n    /* \"--CODEGEN--\":30:31   */\n  0x00\n    /* \"--CODEGEN--\":27:28   */\n  dup1\n    /* \"--CODEGEN--\":20:32   */\n  revert\n    /* \"--CODEGEN--\":5:7   */\ntag_1:\n    /* \"contracts/demo1.sol\":607:723  constructor(uint _len, uint _memPtr) public {\r... */\n  pop\n  mload(0x40)\n  sub(codesize, bytecodeSize)\n  dup1\n  bytecodeSize\n  dup4\n  codecopy\n  dup2\n  dup2\n  add\n  0x40\n  mstore\n    /* \"--CODEGEN--\":13:15   */\n  0x40\n    /* \"--CODEGEN--\":8:11   */\n  dup2\n    /* \"--CODEGEN--\":5:16   */\n  lt\n    /* \"--CODEGEN--\":2:4   */\n  iszero\n  tag_2\n  jumpi\n    /* \"--CODEGEN--\":29:30   */\n  0x00\n    /* \"--CODEGEN--\":26:27   */\n  dup1\n    /* \"--CODEGEN--\":19:31   */\n  revert\n    /* \"--CODEGEN--\":2:4   */\ntag_2:\n    /* \"contracts/demo1.sol\":607:723  constructor(uint _len, uint _memPtr) public {\r... */\n  dup2\n  add\n  swap1\n  dup1\n  dup1\n  mload\n  swap1\n  0x20\n  add\n  swap1\n  swap3\n  swap2\n  swap1\n  dup1\n  mload\n  swap1\n  0x20\n  add\n  swap1\n  swap3\n  swap2\n  swap1\n  pop\n  pop\n  pop\n    /* \"contracts/demo1.sol\":676:680  _len */\n  dup2\n    /* \"contracts/demo1.sol\":662:669  rlpItem */\n  0x00\n    /* \"contracts/demo1.sol\":662:673  rlpItem.len */\n  dup1\n  add\n    /* \"contracts/demo1.sol\":662:680  rlpItem.len = _len */\n  dup2\n  swap1\n  sstore\n  pop\n    /* \"contracts/demo1.sol\":708:715  _memPtr */\n  dup1\n    /* \"contracts/demo1.sol\":691:698  rlpItem */\n  0x00\n    /* \"contracts/demo1.sol\":691:705  rlpItem.memPtr */\n  0x01\n  add\n    /* \"contracts/demo1.sol\":691:715  rlpItem.memPtr = _memPtr */\n  dup2\n  swap1\n  sstore\n  pop\n    /* \"contracts/demo1.sol\":607:723  constructor(uint _len, uint _memPtr) public {\r... */\n  pop\n  pop\n    /* \"contracts/demo1.sol\":92:21757  contract Demo1{\r... */\n  dataSize(sub_0)\n  dup1\n  dataOffset(sub_0)\n  0x00\n  codecopy\n  0x00\n  return\nstop\n\nsub_0: assembly {\n        /* \"contracts/demo1.sol\":92:21757  contract Demo1{\r... */\n      mstore(0x40, 0x80)\n      callvalue\n        /* \"--CODEGEN--\":8:17   */\n      dup1\n        /* \"--CODEGEN--\":5:7   */\n      iszero\n      tag_1\n      jumpi\n        /* \"--CODEGEN--\":30:31   */\n      0x00\n        /* \"--CODEGEN--\":27:28   */\n      dup1\n        /* \"--CODEGEN--\":20:32   */\n      revert\n        /* \"--CODEGEN--\":5:7   */\n    tag_1:\n        /* \"contracts/demo1.sol\":92:21757  contract Demo1{\r... */\n      pop\n      jumpi(tag_2, lt(calldatasize, 0x04))\n      shr(0xe0, calldataload(0x00))\n      dup1\n      0x3bc5de30\n      eq\n      tag_3\n      jumpi\n      dup1\n      0xa699fb03\n      eq\n      tag_4\n      jumpi\n    tag_2:\n      0x00\n      dup1\n      revert\n        /* \"contracts/demo1.sol\":731:819  function getData() public view returns(uint){ \r... */\n    tag_3:\n      tag_5\n      tag_6\n      jump\t// in\n    tag_5:\n      mload(0x40)\n      dup1\n      dup3\n      dup2\n      mstore\n      0x20\n      add\n      swap2\n      pop\n      pop\n      mload(0x40)\n      dup1\n      swap2\n      sub\n      swap1\n      return\n        /* \"contracts/demo1.sol\":575:597  RLPItem public rlpItem */\n    tag_4:\n      tag_7\n      tag_8\n      jump\t// in\n    tag_7:\n      mload(0x40)\n      dup1\n      dup4\n      dup2\n      mstore\n      0x20\n      add\n      dup3\n      dup2\n      mstore\n      0x20\n      add\n      swap3\n      pop\n      pop\n      pop\n      mload(0x40)\n      dup1\n      swap2\n      sub\n      swap1\n      return\n        /* \"contracts/demo1.sol\":731:819  function getData() public view returns(uint){ \r... */\n    tag_6:\n        /* \"contracts/demo1.sol\":770:774  uint */\n      0x00\n        /* \"contracts/demo1.sol\":794:811  numItems(rlpItem) */\n      tag_10\n        /* \"contracts/demo1.sol\":803:810  rlpItem */\n      0x00\n        /* \"contracts/demo1.sol\":794:811  numItems(rlpItem) */\n      mload(0x40)\n      dup1\n      0x40\n      add\n      0x40\n      mstore\n      swap1\n      dup2\n      0x00\n      dup3\n      add\n      sload\n      dup2\n      mstore\n      0x20\n      add\n      0x01\n      dup3\n      add\n      sload\n      dup2\n      mstore\n      pop\n      pop\n        /* \"contracts/demo1.sol\":794:802  numItems */\n      tag_11\n        /* \"contracts/demo1.sol\":794:811  numItems(rlpItem) */\n      jump\t// in\n    tag_10:\n        /* \"contracts/demo1.sol\":787:811  return numItems(rlpItem) */\n      swap1\n      pop\n        /* \"contracts/demo1.sol\":731:819  function getData() public view returns(uint){ \r... */\n      swap1\n      jump\t// out\n        /* \"contracts/demo1.sol\":575:597  RLPItem public rlpItem */\n    tag_8:\n      0x00\n      dup1\n      0x00\n      add\n      sload\n      swap1\n      dup1\n      0x01\n      add\n      sload\n      swap1\n      pop\n      dup3\n      jump\t// out\n        /* \"contracts/demo1.sol\":829:1251  function numItems(RLPItem memory item) private pure returns (uint) {\r... */\n    tag_11:\n        /* \"contracts/demo1.sol\":890:894  uint */\n      0x00\n        /* \"contracts/demo1.sol\":923:924  0 */\n      dup1\n        /* \"contracts/demo1.sol\":911:915  item */\n      dup3\n        /* \"contracts/demo1.sol\":911:919  item.len */\n      0x00\n      add\n      mload\n        /* \"contracts/demo1.sol\":911:924  item.len == 0 */\n      eq\n        /* \"contracts/demo1.sol\":907:934  if (item.len == 0) return 0 */\n      iszero\n      tag_13\n      jumpi\n        /* \"contracts/demo1.sol\":933:934  0 */\n      0x00\n        /* \"contracts/demo1.sol\":926:934  return 0 */\n      swap1\n      pop\n      jump(tag_12)\n        /* \"contracts/demo1.sol\":907:934  if (item.len == 0) return 0 */\n    tag_13:\n        /* \"contracts/demo1.sol\":947:957  uint count */\n      0x00\n        /* \"contracts/demo1.sol\":960:961  0 */\n      dup1\n        /* \"contracts/demo1.sol\":947:961  uint count = 0 */\n      swap1\n      pop\n        /* \"contracts/demo1.sol\":972:984  uint currPtr */\n      0x00\n        /* \"contracts/demo1.sol\":1001:1028  _payloadOffset(item.memPtr) */\n      tag_14\n        /* \"contracts/demo1.sol\":1016:1020  item */\n      dup5\n        /* \"contracts/demo1.sol\":1016:1027  item.memPtr */\n      0x20\n      add\n      mload\n        /* \"contracts/demo1.sol\":1001:1015  _payloadOffset */\n      tag_15\n        /* \"contracts/demo1.sol\":1001:1028  _payloadOffset(item.memPtr) */\n      jump\t// in\n    tag_14:\n        /* \"contracts/demo1.sol\":987:991  item */\n      dup5\n        /* \"contracts/demo1.sol\":987:998  item.memPtr */\n      0x20\n      add\n      mload\n        /* \"contracts/demo1.sol\":987:1028  item.memPtr + _payloadOffset(item.memPtr) */\n      add\n        /* \"contracts/demo1.sol\":972:1028  uint currPtr = item.memPtr + _payloadOffset(item.memPtr) */\n      swap1\n      pop\n        /* \"contracts/demo1.sol\":1039:1050  uint endPtr */\n      0x00\n        /* \"contracts/demo1.sol\":1067:1071  item */\n      dup5\n        /* \"contracts/demo1.sol\":1067:1075  item.len */\n      0x00\n      add\n      mload\n        /* \"contracts/demo1.sol\":1053:1057  item */\n      dup6\n        /* \"contracts/demo1.sol\":1053:1064  item.memPtr */\n      0x20\n      add\n      mload\n        /* \"contracts/demo1.sol\":1053:1075  item.memPtr + item.len */\n      add\n        /* \"contracts/demo1.sol\":1039:1075  uint endPtr = item.memPtr + item.len */\n      swap1\n      pop\n        /* \"contracts/demo1.sol\":1086:1221  while (currPtr < endPtr) {\r... */\n    tag_16:\n        /* \"contracts/demo1.sol\":1103:1109  endPtr */\n      dup1\n        /* \"contracts/demo1.sol\":1093:1100  currPtr */\n      dup3\n        /* \"contracts/demo1.sol\":1093:1109  currPtr < endPtr */\n      lt\n        /* \"contracts/demo1.sol\":1086:1221  while (currPtr < endPtr) {\r... */\n      iszero\n      tag_17\n      jumpi\n        /* \"contracts/demo1.sol\":1146:1166  _itemLength(currPtr) */\n      tag_18\n        /* \"contracts/demo1.sol\":1158:1165  currPtr */\n      dup3\n        /* \"contracts/demo1.sol\":1146:1157  _itemLength */\n      tag_19\n        /* \"contracts/demo1.sol\":1146:1166  _itemLength(currPtr) */\n      jump\t// in\n    tag_18:\n        /* \"contracts/demo1.sol\":1136:1143  currPtr */\n      dup3\n        /* \"contracts/demo1.sol\":1136:1166  currPtr + _itemLength(currPtr) */\n      add\n        /* \"contracts/demo1.sol\":1126:1166  currPtr = currPtr + _itemLength(currPtr) */\n      swap2\n      pop\n        /* \"contracts/demo1.sol\":1202:1209  count++ */\n      dup3\n      dup1\n      0x01\n      add\n      swap4\n      pop\n      pop\n        /* \"contracts/demo1.sol\":1086:1221  while (currPtr < endPtr) {\r... */\n      jump(tag_16)\n    tag_17:\n        /* \"contracts/demo1.sol\":1238:1243  count */\n      dup3\n        /* \"contracts/demo1.sol\":1231:1243  return count */\n      swap4\n      pop\n      pop\n      pop\n      pop\n        /* \"contracts/demo1.sol\":829:1251  function numItems(RLPItem memory item) private pure returns (uint) {\r... */\n    tag_12:\n      swap2\n      swap1\n      pop\n      jump\t// out\n        /* \"contracts/demo1.sol\":2743:3315  function _payloadOffset(uint memPtr) private pure returns (uint) {\r... */\n    tag_15:\n        /* \"contracts/demo1.sol\":2802:2806  uint */\n      0x00\n        /* \"contracts/demo1.sol\":2819:2829  uint byte0 */\n      dup1\n        /* \"contracts/demo1.sol\":2887:2893  memPtr */\n      dup3\n        /* \"contracts/demo1.sol\":2881:2894  mload(memPtr) */\n      mload\n        /* \"contracts/demo1.sol\":2878:2879  0 */\n      0x00\n        /* \"contracts/demo1.sol\":2873:2895  byte(0, mload(memPtr)) */\n      byte\n        /* \"contracts/demo1.sol\":2864:2895  byte0 := byte(0, mload(memPtr)) */\n      swap1\n      pop\n        /* \"contracts/demo1.sol\":2923:2928  byte0 */\n      dup1\n        /* \"contracts/demo1.sol\":2916:2928  return byte0 */\n      swap2\n      pop\n      pop\n        /* \"contracts/demo1.sol\":2743:3315  function _payloadOffset(uint memPtr) private pure returns (uint) {\r... */\n      swap2\n      swap1\n      pop\n      jump\t// out\n        /* \"contracts/demo1.sol\":1261:2735  function _itemLength(uint memPtr) private pure returns (uint) {\r... */\n    tag_19:\n        /* \"contracts/demo1.sol\":1317:1321  uint */\n      0x00\n        /* \"contracts/demo1.sol\":1334:1346  uint itemLen */\n      dup1\n        /* \"contracts/demo1.sol\":1357:1367  uint byte0 */\n      0x00\n        /* \"contracts/demo1.sol\":1425:1431  memPtr */\n      dup4\n        /* \"contracts/demo1.sol\":1419:1432  mload(memPtr) */\n      mload\n        /* \"contracts/demo1.sol\":1416:1417  0 */\n      0x00\n        /* \"contracts/demo1.sol\":1411:1433  byte(0, mload(memPtr)) */\n      byte\n        /* \"contracts/demo1.sol\":1402:1433  byte0 := byte(0, mload(memPtr)) */\n      swap1\n      pop\n        /* \"contracts/demo1.sol\":151:155  0x80 */\n      0x80\n        /* \"contracts/demo1.sol\":1460:1486  byte0 < STRING_SHORT_START */\n      0xff\n      and\n        /* \"contracts/demo1.sol\":1460:1465  byte0 */\n      dup2\n        /* \"contracts/demo1.sol\":1460:1486  byte0 < STRING_SHORT_START */\n      lt\n        /* \"contracts/demo1.sol\":1456:2701  if (byte0 < STRING_SHORT_START)\r... */\n      iszero\n      tag_30\n      jumpi\n        /* \"contracts/demo1.sol\":1511:1512  1 */\n      0x01\n        /* \"contracts/demo1.sol\":1501:1512  itemLen = 1 */\n      swap2\n      pop\n        /* \"contracts/demo1.sol\":1456:2701  if (byte0 < STRING_SHORT_START)\r... */\n      jump(tag_31)\n    tag_30:\n        /* \"contracts/demo1.sol\":198:202  0xb8 */\n      0xb8\n        /* \"contracts/demo1.sol\":1534:1559  byte0 < STRING_LONG_START */\n      0xff\n      and\n        /* \"contracts/demo1.sol\":1534:1539  byte0 */\n      dup2\n        /* \"contracts/demo1.sol\":1534:1559  byte0 < STRING_LONG_START */\n      lt\n        /* \"contracts/demo1.sol\":1530:2701  if (byte0 < STRING_LONG_START)\r... */\n      iszero\n      tag_32\n      jumpi\n        /* \"contracts/demo1.sol\":1613:1614  1 */\n      0x01\n        /* \"contracts/demo1.sol\":151:155  0x80 */\n      0x80\n        /* \"contracts/demo1.sol\":1584:1610  byte0 - STRING_SHORT_START */\n      0xff\n      and\n        /* \"contracts/demo1.sol\":1584:1589  byte0 */\n      dup3\n        /* \"contracts/demo1.sol\":1584:1610  byte0 - STRING_SHORT_START */\n      sub\n        /* \"contracts/demo1.sol\":1584:1614  byte0 - STRING_SHORT_START + 1 */\n      add\n        /* \"contracts/demo1.sol\":1574:1614  itemLen = byte0 - STRING_SHORT_START + 1 */\n      swap2\n      pop\n        /* \"contracts/demo1.sol\":1530:2701  if (byte0 < STRING_LONG_START)\r... */\n      jump(tag_33)\n    tag_32:\n        /* \"contracts/demo1.sol\":245:249  0xc0 */\n      0xc0\n        /* \"contracts/demo1.sol\":1636:1660  byte0 < LIST_SHORT_START */\n      0xff\n      and\n        /* \"contracts/demo1.sol\":1636:1641  byte0 */\n      dup2\n        /* \"contracts/demo1.sol\":1636:1660  byte0 < LIST_SHORT_START */\n      lt\n        /* \"contracts/demo1.sol\":1632:2701  if (byte0 < LIST_SHORT_START) {\r... */\n      iszero\n      tag_34\n      jumpi\n        /* \"contracts/demo1.sol\":1677:1689  uint dataLen */\n      0x00\n        /* \"contracts/demo1.sol\":1758:1762  0xb7 */\n      0xb7\n        /* \"contracts/demo1.sol\":1751:1756  byte0 */\n      dup3\n        /* \"contracts/demo1.sol\":1747:1763  sub(byte0, 0xb7) */\n      sub\n        /* \"contracts/demo1.sol\":1838:1839  1 */\n      0x01\n        /* \"contracts/demo1.sol\":1830:1836  memPtr */\n      dup7\n        /* \"contracts/demo1.sol\":1826:1840  add(memPtr, 1) */\n      add\n        /* \"contracts/demo1.sol\":1816:1840  memPtr := add(memPtr, 1) */\n      swap6\n      pop\n        /* \"contracts/demo1.sol\":1976:1983  byteLen */\n      dup1\n        /* \"contracts/demo1.sol\":1972:1974  32 */\n      0x20\n        /* \"contracts/demo1.sol\":1968:1984  sub(32, byteLen) */\n      sub\n        /* \"contracts/demo1.sol\":1963:1966  256 */\n      0x0100\n        /* \"contracts/demo1.sol\":1959:1985  exp(256, sub(32, byteLen)) */\n      exp\n        /* \"contracts/demo1.sol\":1950:1956  memPtr */\n      dup7\n        /* \"contracts/demo1.sol\":1944:1957  mload(memPtr) */\n      mload\n        /* \"contracts/demo1.sol\":1940:1986  div(mload(memPtr), exp(256, sub(32, byteLen))) */\n      div\n        /* \"contracts/demo1.sol\":1929:1986  dataLen := div(mload(memPtr), exp(256, sub(32, byteLen))) */\n      swap2\n      pop\n        /* \"contracts/demo1.sol\":2074:2075  1 */\n      0x01\n        /* \"contracts/demo1.sol\":2065:2072  byteLen */\n      dup2\n        /* \"contracts/demo1.sol\":2061:2076  add(byteLen, 1) */\n      add\n        /* \"contracts/demo1.sol\":2052:2059  dataLen */\n      dup3\n        /* \"contracts/demo1.sol\":2048:2077  add(dataLen, add(byteLen, 1)) */\n      add\n        /* \"contracts/demo1.sol\":2037:2077  itemLen := add(dataLen, add(byteLen, 1)) */\n      swap4\n      pop\n        /* \"contracts/demo1.sol\":1713:2092  {\r... */\n      pop\n        /* \"contracts/demo1.sol\":2125:2132  dataLen */\n      dup1\n        /* \"contracts/demo1.sol\":2114:2121  itemLen */\n      dup4\n        /* \"contracts/demo1.sol\":2114:2132  itemLen >= dataLen */\n      lt\n      iszero\n        /* \"contracts/demo1.sol\":2106:2154  require(itemLen >= dataLen, \"addition overflow\") */\n      tag_35\n      jumpi\n      mload(0x40)\n      0x08c379a000000000000000000000000000000000000000000000000000000000\n      dup2\n      mstore\n      0x04\n      add\n      dup1\n      dup1\n      0x20\n      add\n      dup3\n      dup2\n      sub\n      dup3\n      mstore\n      0x11\n      dup2\n      mstore\n      0x20\n      add\n      dup1\n      0x6164646974696f6e206f766572666c6f77000000000000000000000000000000\n      dup2\n      mstore\n      pop\n      0x20\n      add\n      swap2\n      pop\n      pop\n      mload(0x40)\n      dup1\n      swap2\n      sub\n      swap1\n      revert\n    tag_35:\n        /* \"contracts/demo1.sol\":1632:2701  if (byte0 < LIST_SHORT_START) {\r... */\n      pop\n      jump(tag_36)\n    tag_34:\n        /* \"contracts/demo1.sol\":292:296  0xf8 */\n      0xf8\n        /* \"contracts/demo1.sol\":2187:2210  byte0 < LIST_LONG_START */\n      0xff\n      and\n        /* \"contracts/demo1.sol\":2187:2192  byte0 */\n      dup2\n        /* \"contracts/demo1.sol\":2187:2210  byte0 < LIST_LONG_START */\n      lt\n        /* \"contracts/demo1.sol\":2183:2701  if (byte0 < LIST_LONG_START) {\r... */\n      iszero\n      tag_37\n      jumpi\n        /* \"contracts/demo1.sol\":2264:2265  1 */\n      0x01\n        /* \"contracts/demo1.sol\":245:249  0xc0 */\n      0xc0\n        /* \"contracts/demo1.sol\":2237:2261  byte0 - LIST_SHORT_START */\n      0xff\n      and\n        /* \"contracts/demo1.sol\":2237:2242  byte0 */\n      dup3\n        /* \"contracts/demo1.sol\":2237:2261  byte0 - LIST_SHORT_START */\n      sub\n        /* \"contracts/demo1.sol\":2237:2265  byte0 - LIST_SHORT_START + 1 */\n      add\n        /* \"contracts/demo1.sol\":2227:2265  itemLen = byte0 - LIST_SHORT_START + 1 */\n      swap2\n      pop\n        /* \"contracts/demo1.sol\":2183:2701  if (byte0 < LIST_LONG_START) {\r... */\n      jump(tag_38)\n    tag_37:\n        /* \"contracts/demo1.sol\":2309:2321  uint dataLen */\n      0x00\n        /* \"contracts/demo1.sol\":2390:2394  0xf7 */\n      0xf7\n        /* \"contracts/demo1.sol\":2383:2388  byte0 */\n      dup3\n        /* \"contracts/demo1.sol\":2379:2395  sub(byte0, 0xf7) */\n      sub\n        /* \"contracts/demo1.sol\":2435:2436  1 */\n      0x01\n        /* \"contracts/demo1.sol\":2427:2433  memPtr */\n      dup7\n        /* \"contracts/demo1.sol\":2423:2437  add(memPtr, 1) */\n      add\n        /* \"contracts/demo1.sol\":2413:2437  memPtr := add(memPtr, 1) */\n      swap6\n      pop\n        /* \"contracts/demo1.sol\":2504:2511  byteLen */\n      dup1\n        /* \"contracts/demo1.sol\":2500:2502  32 */\n      0x20\n        /* \"contracts/demo1.sol\":2496:2512  sub(32, byteLen) */\n      sub\n        /* \"contracts/demo1.sol\":2491:2494  256 */\n      0x0100\n        /* \"contracts/demo1.sol\":2487:2513  exp(256, sub(32, byteLen)) */\n      exp\n        /* \"contracts/demo1.sol\":2478:2484  memPtr */\n      dup7\n        /* \"contracts/demo1.sol\":2472:2485  mload(memPtr) */\n      mload\n        /* \"contracts/demo1.sol\":2468:2514  div(mload(memPtr), exp(256, sub(32, byteLen))) */\n      div\n        /* \"contracts/demo1.sol\":2457:2514  dataLen := div(mload(memPtr), exp(256, sub(32, byteLen))) */\n      swap2\n      pop\n        /* \"contracts/demo1.sol\":2609:2610  1 */\n      0x01\n        /* \"contracts/demo1.sol\":2600:2607  byteLen */\n      dup2\n        /* \"contracts/demo1.sol\":2596:2611  add(byteLen, 1) */\n      add\n        /* \"contracts/demo1.sol\":2587:2594  dataLen */\n      dup3\n        /* \"contracts/demo1.sol\":2583:2612  add(dataLen, add(byteLen, 1)) */\n      add\n        /* \"contracts/demo1.sol\":2572:2612  itemLen := add(dataLen, add(byteLen, 1)) */\n      swap4\n      pop\n        /* \"contracts/demo1.sol\":2345:2627  {\r... */\n      pop\n        /* \"contracts/demo1.sol\":2660:2667  dataLen */\n      dup1\n        /* \"contracts/demo1.sol\":2649:2656  itemLen */\n      dup4\n        /* \"contracts/demo1.sol\":2649:2667  itemLen >= dataLen */\n      lt\n      iszero\n        /* \"contracts/demo1.sol\":2641:2689  require(itemLen >= dataLen, \"addition overflow\") */\n      tag_39\n      jumpi\n      mload(0x40)\n      0x08c379a000000000000000000000000000000000000000000000000000000000\n      dup2\n      mstore\n      0x04\n      add\n      dup1\n      dup1\n      0x20\n      add\n      dup3\n      dup2\n      sub\n      dup3\n      mstore\n      0x11\n      dup2\n      mstore\n      0x20\n      add\n      dup1\n      0x6164646974696f6e206f766572666c6f77000000000000000000000000000000\n      dup2\n      mstore\n      pop\n      0x20\n      add\n      swap2\n      pop\n      pop\n      mload(0x40)\n      dup1\n      swap2\n      sub\n      swap1\n      revert\n    tag_39:\n        /* \"contracts/demo1.sol\":2183:2701  if (byte0 < LIST_LONG_START) {\r... */\n      pop\n    tag_38:\n        /* \"contracts/demo1.sol\":1632:2701  if (byte0 < LIST_SHORT_START) {\r... */\n    tag_36:\n        /* \"contracts/demo1.sol\":1530:2701  if (byte0 < STRING_LONG_START)\r... */\n    tag_33:\n        /* \"contracts/demo1.sol\":1456:2701  if (byte0 < STRING_SHORT_START)\r... */\n    tag_31:\n        /* \"contracts/demo1.sol\":2720:2727  itemLen */\n      dup2\n        /* \"contracts/demo1.sol\":2713:2727  return itemLen */\n      swap3\n      pop\n      pop\n      pop\n        /* \"contracts/demo1.sol\":1261:2735  function _itemLength(uint memPtr) private pure returns (uint) {\r... */\n      swap2\n      swap1\n      pop\n      jump\t// out\n\n    auxdata: 0xa265627a7a72315820dffbe3787da5e6cbfb3af50672aac9f67096782aab9044850dddc10eb61c3f0464736f6c63430005100032\n}\n",
				"bytecode": {
					"linkReferences": {},
					"object": "608060405234801561001057600080fd5b506040516103973803806103978339818101604052604081101561003357600080fd5b810190808051906020019092919080519060200190929190505050816000800181905550806000600101819055505050610325806100726000396000f3fe608060405234801561001057600080fd5b50600436106100365760003560e01c80633bc5de301461003b578063a699fb0314610059575b600080fd5b61004361007e565b6040518082815260200191505060405180910390f35b6100616100ae565b604051808381526020018281526020019250505060405180910390f35b60006100a96000604051806040016040529081600082015481526020016001820154815250506100c0565b905090565b60008060000154908060010154905082565b600080826000015114156100d7576000905061012c565b600080905060006100eb8460200151610131565b84602001510190506000846000015185602001510190505b808210156101255761011482610144565b820191508280600101935050610103565b8293505050505b919050565b600080825160001a905080915050919050565b6000806000835160001a9050608060ff1681101561016557600191506102e6565b60b860ff16811015610182576001608060ff1682030191506102e5565b60c060ff1681101561022c57600060b78203600186019550806020036101000a865104915060018101820193505080831015610226576040517f08c379a00000000000000000000000000000000000000000000000000000000081526004018080602001828103825260118152602001807f6164646974696f6e206f766572666c6f7700000000000000000000000000000081525060200191505060405180910390fd5b506102e4565b60f860ff1681101561024957600160c060ff1682030191506102e3565b600060f78203600186019550806020036101000a8651049150600181018201935050808310156102e1576040517f08c379a00000000000000000000000000000000000000000000000000000000081526004018080602001828103825260118152602001807f6164646974696f6e206f766572666c6f7700000000000000000000000000000081525060200191505060405180910390fd5b505b5b5b5b819250505091905056fea265627a7a72315820dffbe3787da5e6cbfb3af50672aac9f67096782aab9044850dddc10eb61c3f0464736f6c63430005100032",
					"opcodes": "PUSH1 0x80 PUSH1 0x40 MSTORE CALLVALUE DUP1 ISZERO PUSH2 0x10 JUMPI PUSH1 0x0 DUP1 REVERT JUMPDEST POP PUSH1 0x40 MLOAD PUSH2 0x397 CODESIZE SUB DUP1 PUSH2 0x397 DUP4 CODECOPY DUP2 DUP2 ADD PUSH1 0x40 MSTORE PUSH1 0x40 DUP2 LT ISZERO PUSH2 0x33 JUMPI PUSH1 0x0 DUP1 REVERT JUMPDEST DUP2 ADD SWAP1 DUP1 DUP1 MLOAD SWAP1 PUSH1 0x20 ADD SWAP1 SWAP3 SWAP2 SWAP1 DUP1 MLOAD SWAP1 PUSH1 0x20 ADD SWAP1 SWAP3 SWAP2 SWAP1 POP POP POP DUP2 PUSH1 0x0 DUP1 ADD DUP2 SWAP1 SSTORE POP DUP1 PUSH1 0x0 PUSH1 0x1 ADD DUP2 SWAP1 SSTORE POP POP POP PUSH2 0x325 DUP1 PUSH2 0x72 PUSH1 0x0 CODECOPY PUSH1 0x0 RETURN INVALID PUSH1 0x80 PUSH1 0x40 MSTORE CALLVALUE DUP1 ISZERO PUSH2 0x10 JUMPI PUSH1 0x0 DUP1 REVERT JUMPDEST POP PUSH1 0x4 CALLDATASIZE LT PUSH2 0x36 JUMPI PUSH1 0x0 CALLDATALOAD PUSH1 0xE0 SHR DUP1 PUSH4 0x3BC5DE30 EQ PUSH2 0x3B JUMPI DUP1 PUSH4 0xA699FB03 EQ PUSH2 0x59 JUMPI JUMPDEST PUSH1 0x0 DUP1 REVERT JUMPDEST PUSH2 0x43 PUSH2 0x7E JUMP JUMPDEST PUSH1 0x40 MLOAD DUP1 DUP3 DUP2 MSTORE PUSH1 0x20 ADD SWAP2 POP POP PUSH1 0x40 MLOAD DUP1 SWAP2 SUB SWAP1 RETURN JUMPDEST PUSH2 0x61 PUSH2 0xAE JUMP JUMPDEST PUSH1 0x40 MLOAD DUP1 DUP4 DUP2 MSTORE PUSH1 0x20 ADD DUP3 DUP2 MSTORE PUSH1 0x20 ADD SWAP3 POP POP POP PUSH1 0x40 MLOAD DUP1 SWAP2 SUB SWAP1 RETURN JUMPDEST PUSH1 0x0 PUSH2 0xA9 PUSH1 0x0 PUSH1 0x40 MLOAD DUP1 PUSH1 0x40 ADD PUSH1 0x40 MSTORE SWAP1 DUP2 PUSH1 0x0 DUP3 ADD SLOAD DUP2 MSTORE PUSH1 0x20 ADD PUSH1 0x1 DUP3 ADD SLOAD DUP2 MSTORE POP POP PUSH2 0xC0 JUMP JUMPDEST SWAP1 POP SWAP1 JUMP JUMPDEST PUSH1 0x0 DUP1 PUSH1 0x0 ADD SLOAD SWAP1 DUP1 PUSH1 0x1 ADD SLOAD SWAP1 POP DUP3 JUMP JUMPDEST PUSH1 0x0 DUP1 DUP3 PUSH1 0x0 ADD MLOAD EQ ISZERO PUSH2 0xD7 JUMPI PUSH1 0x0 SWAP1 POP PUSH2 0x12C JUMP JUMPDEST PUSH1 0x0 DUP1 SWAP1 POP PUSH1 0x0 PUSH2 0xEB DUP5 PUSH1 0x20 ADD MLOAD PUSH2 0x131 JUMP JUMPDEST DUP5 PUSH1 0x20 ADD MLOAD ADD SWAP1 POP PUSH1 0x0 DUP5 PUSH1 0x0 ADD MLOAD DUP6 PUSH1 0x20 ADD MLOAD ADD SWAP1 POP JUMPDEST DUP1 DUP3 LT ISZERO PUSH2 0x125 JUMPI PUSH2 0x114 DUP3 PUSH2 0x144 JUMP JUMPDEST DUP3 ADD SWAP2 POP DUP3 DUP1 PUSH1 0x1 ADD SWAP4 POP POP PUSH2 0x103 JUMP JUMPDEST DUP3 SWAP4 POP POP POP POP JUMPDEST SWAP2 SWAP1 POP JUMP JUMPDEST PUSH1 0x0 DUP1 DUP3 MLOAD PUSH1 0x0 BYTE SWAP1 POP DUP1 SWAP2 POP POP SWAP2 SWAP1 POP JUMP JUMPDEST PUSH1 0x0 DUP1 PUSH1 0x0 DUP4 MLOAD PUSH1 0x0 BYTE SWAP1 POP PUSH1 0x80 PUSH1 0xFF AND DUP2 LT ISZERO PUSH2 0x165 JUMPI PUSH1 0x1 SWAP2 POP PUSH2 0x2E6 JUMP JUMPDEST PUSH1 0xB8 PUSH1 0xFF AND DUP2 LT ISZERO PUSH2 0x182 JUMPI PUSH1 0x1 PUSH1 0x80 PUSH1 0xFF AND DUP3 SUB ADD SWAP2 POP PUSH2 0x2E5 JUMP JUMPDEST PUSH1 0xC0 PUSH1 0xFF AND DUP2 LT ISZERO PUSH2 0x22C JUMPI PUSH1 0x0 PUSH1 0xB7 DUP3 SUB PUSH1 0x1 DUP7 ADD SWAP6 POP DUP1 PUSH1 0x20 SUB PUSH2 0x100 EXP DUP7 MLOAD DIV SWAP2 POP PUSH1 0x1 DUP2 ADD DUP3 ADD SWAP4 POP POP DUP1 DUP4 LT ISZERO PUSH2 0x226 JUMPI PUSH1 0x40 MLOAD PUSH32 0x8C379A000000000000000000000000000000000000000000000000000000000 DUP2 MSTORE PUSH1 0x4 ADD DUP1 DUP1 PUSH1 0x20 ADD DUP3 DUP2 SUB DUP3 MSTORE PUSH1 0x11 DUP2 MSTORE PUSH1 0x20 ADD DUP1 PUSH32 0x6164646974696F6E206F766572666C6F77000000000000000000000000000000 DUP2 MSTORE POP PUSH1 0x20 ADD SWAP2 POP POP PUSH1 0x40 MLOAD DUP1 SWAP2 SUB SWAP1 REVERT JUMPDEST POP PUSH2 0x2E4 JUMP JUMPDEST PUSH1 0xF8 PUSH1 0xFF AND DUP2 LT ISZERO PUSH2 0x249 JUMPI PUSH1 0x1 PUSH1 0xC0 PUSH1 0xFF AND DUP3 SUB ADD SWAP2 POP PUSH2 0x2E3 JUMP JUMPDEST PUSH1 0x0 PUSH1 0xF7 DUP3 SUB PUSH1 0x1 DUP7 ADD SWAP6 POP DUP1 PUSH1 0x20 SUB PUSH2 0x100 EXP DUP7 MLOAD DIV SWAP2 POP PUSH1 0x1 DUP2 ADD DUP3 ADD SWAP4 POP POP DUP1 DUP4 LT ISZERO PUSH2 0x2E1 JUMPI PUSH1 0x40 MLOAD PUSH32 0x8C379A000000000000000000000000000000000000000000000000000000000 DUP2 MSTORE PUSH1 0x4 ADD DUP1 DUP1 PUSH1 0x20 ADD DUP3 DUP2 SUB DUP3 MSTORE PUSH1 0x11 DUP2 MSTORE PUSH1 0x20 ADD DUP1 PUSH32 0x6164646974696F6E206F766572666C6F77000000000000000000000000000000 DUP2 MSTORE POP PUSH1 0x20 ADD SWAP2 POP POP PUSH1 0x40 MLOAD DUP1 SWAP2 SUB SWAP1 REVERT JUMPDEST POP JUMPDEST JUMPDEST JUMPDEST JUMPDEST DUP2 SWAP3 POP POP POP SWAP2 SWAP1 POP JUMP INVALID LOG2 PUSH6 0x627A7A723158 KECCAK256 0xDF 0xFB 0xE3 PUSH25 0x7DA5E6CBFB3AF50672AAC9F67096782AAB9044850DDDC10EB6 SHR EXTCODEHASH DIV PUSH5 0x736F6C6343 STOP SDIV LT STOP ORIGIN "
				},
				"gasEstimates": {
					"creation": {
						"codeDepositCost": "161000",
						"executionCost": "infinite",
						"totalCost": "infinite"
					},
					"external": {
						"getData()": "infinite",
						"rlpItem()": "1851"
					},
					"internal": {
						"_itemLength(uint256)": "infinite",
						"_payloadOffset(uint256)": "infinite",
						"numItems(struct Demo1.RLPItem memory)": "infinite"
					}
				},
				"methodIdentifiers": {
					"getData()": "3bc5de30",
					"rlpItem()": "a699fb03"
				}
			},
			"userdoc": {
				"methods": {}
			}
		}
	}
}