{
	"contracts/demo2.sol": {
		"demo2": {
			"abi": [
				{
					"inputs": [],
					"name": "data1",
					"outputs": [
						{
							"internalType": "bytes",
							"name": "",
							"type": "bytes"
						}
					],
					"stateMutability": "view",
					"type": "function"
				},
				{
					"inputs": [],
					"name": "data2",
					"outputs": [
						{
							"internalType": "bytes",
							"name": "",
							"type": "bytes"
						}
					],
					"stateMutability": "view",
					"type": "function"
				},
				{
					"inputs": [
						{
							"internalType": "bytes",
							"name": "_preBytes",
							"type": "bytes"
						},
						{
							"internalType": "uint256",
							"name": "_start",
							"type": "uint256"
						}
					],
					"name": "getData",
					"outputs": [
						{
							"internalType": "uint8",
							"name": "",
							"type": "uint8"
						}
					],
					"stateMutability": "view",
					"type": "function"
				}
			],
			"devdoc": {
				"kind": "dev",
				"methods": {},
				"version": 1
			},
			"evm": {
				"assembly": "    /* \"contracts/demo2.sol\":34:588  contract demo2 {\r... */\n  mstore(0x40, 0x80)\n    /* \"contracts/demo2.sol\":55:88  bytes public data1 = \"NALEHONGVO\" */\n  mload(0x40)\n  dup1\n  0x40\n  add\n  0x40\n  mstore\n  dup1\n  0x0a\n  dup2\n  mstore\n  0x20\n  add\n  0x4e414c45484f4e47564f00000000000000000000000000000000000000000000\n  dup2\n  mstore\n  pop\n  0x00\n  swap1\n  dup1\n  mload\n  swap1\n  0x20\n  add\n  swap1\n  tag_1\n  swap3\n  swap2\n  swap1\n  tag_2\n  jump\t// in\ntag_1:\n  pop\n    /* \"contracts/demo2.sol\":94:146  bytes public data2 = \"LEHONGVOwjnfvj3weh8vhsadfjoif\" */\n  mload(0x40)\n  dup1\n  0x40\n  add\n  0x40\n  mstore\n  dup1\n  0x1d\n  dup2\n  mstore\n  0x20\n  add\n  0x4c45484f4e47564f776a6e66766a33776568387668736164666a6f6966000000\n  dup2\n  mstore\n  pop\n  0x01\n  swap1\n  dup1\n  mload\n  swap1\n  0x20\n  add\n  swap1\n  tag_3\n  swap3\n  swap2\n  swap1\n  tag_2\n  jump\t// in\ntag_3:\n  pop\n    /* \"contracts/demo2.sol\":34:588  contract demo2 {\r... */\n  callvalue\n  dup1\n  iszero\n  tag_4\n  jumpi\n  0x00\n  dup1\n  revert\ntag_4:\n  pop\n  jump(tag_5)\ntag_2:\n  dup3\n  dup1\n  sload\n  tag_6\n  swap1\n  tag_7\n  jump\t// in\ntag_6:\n  swap1\n  0x00\n  mstore\n  keccak256(0x00, 0x20)\n  swap1\n  0x1f\n  add\n  0x20\n  swap1\n  div\n  dup2\n  add\n  swap3\n  dup3\n  tag_9\n  jumpi\n  0x00\n  dup6\n  sstore\n  jump(tag_8)\ntag_9:\n  dup3\n  0x1f\n  lt\n  tag_10\n  jumpi\n  dup1\n  mload\n  not(0xff)\n  and\n  dup4\n  dup1\n  add\n  or\n  dup6\n  sstore\n  jump(tag_8)\ntag_10:\n  dup3\n  dup1\n  add\n  0x01\n  add\n  dup6\n  sstore\n  dup3\n  iszero\n  tag_8\n  jumpi\n  swap2\n  dup3\n  add\ntag_11:\n  dup3\n  dup2\n  gt\n  iszero\n  tag_12\n  jumpi\n  dup3\n  mload\n  dup3\n  sstore\n  swap2\n  0x20\n  add\n  swap2\n  swap1\n  0x01\n  add\n  swap1\n  jump(tag_11)\ntag_12:\ntag_8:\n  pop\n  swap1\n  pop\n  tag_13\n  swap2\n  swap1\n  tag_14\n  jump\t// in\ntag_13:\n  pop\n  swap1\n  jump\t// out\ntag_14:\ntag_15:\n  dup1\n  dup3\n  gt\n  iszero\n  tag_16\n  jumpi\n  0x00\n  dup2\n  0x00\n  swap1\n  sstore\n  pop\n  0x01\n  add\n  jump(tag_15)\ntag_16:\n  pop\n  swap1\n  jump\t// out\n    /* \"#utility.yul\":7:327   */\ntag_7:\n    /* \"#utility.yul\":51:57   */\n  0x00\n    /* \"#utility.yul\":88:89   */\n  0x02\n    /* \"#utility.yul\":82:86   */\n  dup3\n    /* \"#utility.yul\":78:90   */\n  div\n    /* \"#utility.yul\":68:90   */\n  swap1\n  pop\n    /* \"#utility.yul\":135:136   */\n  0x01\n    /* \"#utility.yul\":129:133   */\n  dup3\n    /* \"#utility.yul\":125:137   */\n  and\n    /* \"#utility.yul\":156:174   */\n  dup1\n    /* \"#utility.yul\":146:227   */\n  tag_19\n  jumpi\n    /* \"#utility.yul\":212:216   */\n  0x7f\n    /* \"#utility.yul\":204:210   */\n  dup3\n    /* \"#utility.yul\":200:217   */\n  and\n    /* \"#utility.yul\":190:217   */\n  swap2\n  pop\n    /* \"#utility.yul\":146:227   */\ntag_19:\n    /* \"#utility.yul\":274:276   */\n  0x20\n    /* \"#utility.yul\":266:272   */\n  dup3\n    /* \"#utility.yul\":263:277   */\n  lt\n    /* \"#utility.yul\":243:261   */\n  dup2\n    /* \"#utility.yul\":240:278   */\n  eq\n    /* \"#utility.yul\":237:321   */\n  iszero\n  tag_20\n  jumpi\n    /* \"#utility.yul\":293:311   */\n  tag_21\n  tag_22\n  jump\t// in\ntag_21:\n    /* \"#utility.yul\":237:321   */\ntag_20:\n    /* \"#utility.yul\":58:327   */\n  pop\n    /* \"#utility.yul\":7:327   */\n  swap2\n  swap1\n  pop\n  jump\t// out\n    /* \"#utility.yul\":333:513   */\ntag_22:\n    /* \"#utility.yul\":381:458   */\n  0x4e487b7100000000000000000000000000000000000000000000000000000000\n    /* \"#utility.yul\":378:379   */\n  0x00\n    /* \"#utility.yul\":371:459   */\n  mstore\n    /* \"#utility.yul\":478:482   */\n  0x22\n    /* \"#utility.yul\":475:476   */\n  0x04\n    /* \"#utility.yul\":468:483   */\n  mstore\n    /* \"#utility.yul\":502:506   */\n  0x24\n    /* \"#utility.yul\":499:500   */\n  0x00\n    /* \"#utility.yul\":492:507   */\n  revert\n    /* \"contracts/demo2.sol\":34:588  contract demo2 {\r... */\ntag_5:\n  dataSize(sub_0)\n  dup1\n  dataOffset(sub_0)\n  0x00\n  codecopy\n  0x00\n  return\nstop\n\nsub_0: assembly {\n        /* \"contracts/demo2.sol\":34:588  contract demo2 {\r... */\n      mstore(0x40, 0x80)\n      callvalue\n      dup1\n      iszero\n      tag_1\n      jumpi\n      0x00\n      dup1\n      revert\n    tag_1:\n      pop\n      jumpi(tag_2, lt(calldatasize, 0x04))\n      shr(0xe0, calldataload(0x00))\n      dup1\n      0x9ffd85c4\n      eq\n      tag_3\n      jumpi\n      dup1\n      0xa4799acb\n      eq\n      tag_4\n      jumpi\n      dup1\n      0xe3a7fd75\n      eq\n      tag_5\n      jumpi\n    tag_2:\n      0x00\n      dup1\n      revert\n        /* \"contracts/demo2.sol\":55:88  bytes public data1 = \"NALEHONGVO\" */\n    tag_3:\n      tag_6\n      tag_7\n      jump\t// in\n    tag_6:\n      mload(0x40)\n      tag_8\n      swap2\n      swap1\n      tag_9\n      jump\t// in\n    tag_8:\n      mload(0x40)\n      dup1\n      swap2\n      sub\n      swap1\n      return\n        /* \"contracts/demo2.sol\":154:286  function getData(bytes memory _preBytes,  uint _start) public view returns(uint8) {\r... */\n    tag_4:\n      tag_10\n      0x04\n      dup1\n      calldatasize\n      sub\n      dup2\n      add\n      swap1\n      tag_11\n      swap2\n      swap1\n      tag_12\n      jump\t// in\n    tag_11:\n      tag_13\n      jump\t// in\n    tag_10:\n      mload(0x40)\n      tag_14\n      swap2\n      swap1\n      tag_15\n      jump\t// in\n    tag_14:\n      mload(0x40)\n      dup1\n      swap2\n      sub\n      swap1\n      return\n        /* \"contracts/demo2.sol\":94:146  bytes public data2 = \"LEHONGVOwjnfvj3weh8vhsadfjoif\" */\n    tag_5:\n      tag_16\n      tag_17\n      jump\t// in\n    tag_16:\n      mload(0x40)\n      tag_18\n      swap2\n      swap1\n      tag_9\n      jump\t// in\n    tag_18:\n      mload(0x40)\n      dup1\n      swap2\n      sub\n      swap1\n      return\n        /* \"contracts/demo2.sol\":55:88  bytes public data1 = \"NALEHONGVO\" */\n    tag_7:\n      0x00\n      dup1\n      sload\n      tag_19\n      swap1\n      tag_20\n      jump\t// in\n    tag_19:\n      dup1\n      0x1f\n      add\n      0x20\n      dup1\n      swap2\n      div\n      mul\n      0x20\n      add\n      mload(0x40)\n      swap1\n      dup2\n      add\n      0x40\n      mstore\n      dup1\n      swap3\n      swap2\n      swap1\n      dup2\n      dup2\n      mstore\n      0x20\n      add\n      dup3\n      dup1\n      sload\n      tag_21\n      swap1\n      tag_20\n      jump\t// in\n    tag_21:\n      dup1\n      iszero\n      tag_22\n      jumpi\n      dup1\n      0x1f\n      lt\n      tag_23\n      jumpi\n      0x0100\n      dup1\n      dup4\n      sload\n      div\n      mul\n      dup4\n      mstore\n      swap2\n      0x20\n      add\n      swap2\n      jump(tag_22)\n    tag_23:\n      dup3\n      add\n      swap2\n      swap1\n      0x00\n      mstore\n      keccak256(0x00, 0x20)\n      swap1\n    tag_24:\n      dup2\n      sload\n      dup2\n      mstore\n      swap1\n      0x01\n      add\n      swap1\n      0x20\n      add\n      dup1\n      dup4\n      gt\n      tag_24\n      jumpi\n      dup3\n      swap1\n      sub\n      0x1f\n      and\n      dup3\n      add\n      swap2\n    tag_22:\n      pop\n      pop\n      pop\n      pop\n      pop\n      dup2\n      jump\t// out\n        /* \"contracts/demo2.sol\":154:286  function getData(bytes memory _preBytes,  uint _start) public view returns(uint8) {\r... */\n    tag_13:\n        /* \"contracts/demo2.sol\":229:234  uint8 */\n      0x00\n        /* \"contracts/demo2.sol\":253:279  toUint8(_preBytes, _start) */\n      tag_26\n        /* \"contracts/demo2.sol\":261:270  _preBytes */\n      dup4\n        /* \"contracts/demo2.sol\":272:278  _start */\n      dup4\n        /* \"contracts/demo2.sol\":253:260  toUint8 */\n      tag_27\n        /* \"contracts/demo2.sol\":253:279  toUint8(_preBytes, _start) */\n      jump\t// in\n    tag_26:\n        /* \"contracts/demo2.sol\":246:279  return toUint8(_preBytes, _start) */\n      swap1\n      pop\n        /* \"contracts/demo2.sol\":154:286  function getData(bytes memory _preBytes,  uint _start) public view returns(uint8) {\r... */\n      swap3\n      swap2\n      pop\n      pop\n      jump\t// out\n        /* \"contracts/demo2.sol\":94:146  bytes public data2 = \"LEHONGVOwjnfvj3weh8vhsadfjoif\" */\n    tag_17:\n      0x01\n      dup1\n      sload\n      tag_28\n      swap1\n      tag_20\n      jump\t// in\n    tag_28:\n      dup1\n      0x1f\n      add\n      0x20\n      dup1\n      swap2\n      div\n      mul\n      0x20\n      add\n      mload(0x40)\n      swap1\n      dup2\n      add\n      0x40\n      mstore\n      dup1\n      swap3\n      swap2\n      swap1\n      dup2\n      dup2\n      mstore\n      0x20\n      add\n      dup3\n      dup1\n      sload\n      tag_29\n      swap1\n      tag_20\n      jump\t// in\n    tag_29:\n      dup1\n      iszero\n      tag_30\n      jumpi\n      dup1\n      0x1f\n      lt\n      tag_31\n      jumpi\n      0x0100\n      dup1\n      dup4\n      sload\n      div\n      mul\n      dup4\n      mstore\n      swap2\n      0x20\n      add\n      swap2\n      jump(tag_30)\n    tag_31:\n      dup3\n      add\n      swap2\n      swap1\n      0x00\n      mstore\n      keccak256(0x00, 0x20)\n      swap1\n    tag_32:\n      dup2\n      sload\n      dup2\n      mstore\n      swap1\n      0x01\n      add\n      swap1\n      0x20\n      add\n      dup1\n      dup4\n      gt\n      tag_32\n      jumpi\n      dup3\n      swap1\n      sub\n      0x1f\n      and\n      dup3\n      add\n      swap2\n    tag_30:\n      pop\n      pop\n      pop\n      pop\n      pop\n      dup2\n      jump\t// out\n        /* \"contracts/demo2.sol\":294:583  function toUint8(bytes memory _bytes, uint _start) internal  pure returns (uint8) {\r... */\n    tag_27:\n        /* \"contracts/demo2.sol\":369:374  uint8 */\n      0x00\n        /* \"contracts/demo2.sol\":422:423  1 */\n      0x01\n        /* \"contracts/demo2.sol\":413:419  _start */\n      dup3\n        /* \"contracts/demo2.sol\":413:423  _start + 1 */\n      tag_34\n      swap2\n      swap1\n      tag_35\n      jump\t// in\n    tag_34:\n        /* \"contracts/demo2.sol\":395:401  _bytes */\n      dup4\n        /* \"contracts/demo2.sol\":395:408  _bytes.length */\n      mload\n        /* \"contracts/demo2.sol\":395:424  _bytes.length >= (_start + 1) */\n      lt\n      iszero\n        /* \"contracts/demo2.sol\":387:425  require(_bytes.length >= (_start + 1)) */\n      tag_36\n      jumpi\n      0x00\n      dup1\n      revert\n    tag_36:\n        /* \"contracts/demo2.sol\":436:450  uint8 tempUint */\n      0x00\n        /* \"contracts/demo2.sol\":527:533  _start */\n      dup3\n        /* \"contracts/demo2.sol\":521:524  0x1 */\n      0x01\n        /* \"contracts/demo2.sol\":513:519  _bytes */\n      dup6\n        /* \"contracts/demo2.sol\":509:525  add(_bytes, 0x1) */\n      add\n        /* \"contracts/demo2.sol\":505:534  add(add(_bytes, 0x1), _start) */\n      add\n        /* \"contracts/demo2.sol\":499:535  mload(add(add(_bytes, 0x1), _start)) */\n      mload\n        /* \"contracts/demo2.sol\":487:535  tempUint := mload(add(add(_bytes, 0x1), _start)) */\n      swap1\n      pop\n        /* \"contracts/demo2.sol\":567:575  tempUint */\n      dup1\n        /* \"contracts/demo2.sol\":560:575  return tempUint */\n      swap2\n      pop\n      pop\n        /* \"contracts/demo2.sol\":294:583  function toUint8(bytes memory _bytes, uint _start) internal  pure returns (uint8) {\r... */\n      swap3\n      swap2\n      pop\n      pop\n      jump\t// out\n        /* \"#utility.yul\":7:417   */\n    tag_38:\n        /* \"#utility.yul\":84:89   */\n      0x00\n        /* \"#utility.yul\":109:174   */\n      tag_40\n        /* \"#utility.yul\":125:173   */\n      tag_41\n        /* \"#utility.yul\":166:172   */\n      dup5\n        /* \"#utility.yul\":125:173   */\n      tag_42\n      jump\t// in\n    tag_41:\n        /* \"#utility.yul\":109:174   */\n      tag_43\n      jump\t// in\n    tag_40:\n        /* \"#utility.yul\":100:174   */\n      swap1\n      pop\n        /* \"#utility.yul\":197:203   */\n      dup3\n        /* \"#utility.yul\":190:195   */\n      dup2\n        /* \"#utility.yul\":183:204   */\n      mstore\n        /* \"#utility.yul\":235:239   */\n      0x20\n        /* \"#utility.yul\":228:233   */\n      dup2\n        /* \"#utility.yul\":224:240   */\n      add\n        /* \"#utility.yul\":273:276   */\n      dup5\n        /* \"#utility.yul\":264:270   */\n      dup5\n        /* \"#utility.yul\":259:262   */\n      dup5\n        /* \"#utility.yul\":255:271   */\n      add\n        /* \"#utility.yul\":252:277   */\n      gt\n        /* \"#utility.yul\":249:361   */\n      iszero\n      tag_44\n      jumpi\n        /* \"#utility.yul\":280:359   */\n      tag_45\n      tag_46\n      jump\t// in\n    tag_45:\n        /* \"#utility.yul\":249:361   */\n    tag_44:\n        /* \"#utility.yul\":370:411   */\n      tag_47\n        /* \"#utility.yul\":404:410   */\n      dup5\n        /* \"#utility.yul\":399:402   */\n      dup3\n        /* \"#utility.yul\":394:397   */\n      dup6\n        /* \"#utility.yul\":370:411   */\n      tag_48\n      jump\t// in\n    tag_47:\n        /* \"#utility.yul\":90:417   */\n      pop\n        /* \"#utility.yul\":7:417   */\n      swap4\n      swap3\n      pop\n      pop\n      pop\n      jump\t// out\n        /* \"#utility.yul\":436:774   */\n    tag_49:\n        /* \"#utility.yul\":491:496   */\n      0x00\n        /* \"#utility.yul\":540:543   */\n      dup3\n        /* \"#utility.yul\":533:537   */\n      0x1f\n        /* \"#utility.yul\":525:531   */\n      dup4\n        /* \"#utility.yul\":521:538   */\n      add\n        /* \"#utility.yul\":517:544   */\n      slt\n        /* \"#utility.yul\":507:629   */\n      tag_51\n      jumpi\n        /* \"#utility.yul\":548:627   */\n      tag_52\n      tag_53\n      jump\t// in\n    tag_52:\n        /* \"#utility.yul\":507:629   */\n    tag_51:\n        /* \"#utility.yul\":665:671   */\n      dup2\n        /* \"#utility.yul\":652:672   */\n      calldataload\n        /* \"#utility.yul\":690:768   */\n      tag_54\n        /* \"#utility.yul\":764:767   */\n      dup5\n        /* \"#utility.yul\":756:762   */\n      dup3\n        /* \"#utility.yul\":749:753   */\n      0x20\n        /* \"#utility.yul\":741:747   */\n      dup7\n        /* \"#utility.yul\":737:754   */\n      add\n        /* \"#utility.yul\":690:768   */\n      tag_38\n      jump\t// in\n    tag_54:\n        /* \"#utility.yul\":681:768   */\n      swap2\n      pop\n        /* \"#utility.yul\":497:774   */\n      pop\n        /* \"#utility.yul\":436:774   */\n      swap3\n      swap2\n      pop\n      pop\n      jump\t// out\n        /* \"#utility.yul\":780:919   */\n    tag_55:\n        /* \"#utility.yul\":826:831   */\n      0x00\n        /* \"#utility.yul\":864:870   */\n      dup2\n        /* \"#utility.yul\":851:871   */\n      calldataload\n        /* \"#utility.yul\":842:871   */\n      swap1\n      pop\n        /* \"#utility.yul\":880:913   */\n      tag_57\n        /* \"#utility.yul\":907:912   */\n      dup2\n        /* \"#utility.yul\":880:913   */\n      tag_58\n      jump\t// in\n    tag_57:\n        /* \"#utility.yul\":780:919   */\n      swap3\n      swap2\n      pop\n      pop\n      jump\t// out\n        /* \"#utility.yul\":925:1577   */\n    tag_12:\n        /* \"#utility.yul\":1002:1008   */\n      0x00\n        /* \"#utility.yul\":1010:1016   */\n      dup1\n        /* \"#utility.yul\":1059:1061   */\n      0x40\n        /* \"#utility.yul\":1047:1056   */\n      dup4\n        /* \"#utility.yul\":1038:1045   */\n      dup6\n        /* \"#utility.yul\":1034:1057   */\n      sub\n        /* \"#utility.yul\":1030:1062   */\n      slt\n        /* \"#utility.yul\":1027:1146   */\n      iszero\n      tag_60\n      jumpi\n        /* \"#utility.yul\":1065:1144   */\n      tag_61\n      tag_62\n      jump\t// in\n    tag_61:\n        /* \"#utility.yul\":1027:1146   */\n    tag_60:\n        /* \"#utility.yul\":1213:1214   */\n      0x00\n        /* \"#utility.yul\":1202:1211   */\n      dup4\n        /* \"#utility.yul\":1198:1215   */\n      add\n        /* \"#utility.yul\":1185:1216   */\n      calldataload\n        /* \"#utility.yul\":1243:1261   */\n      0xffffffffffffffff\n        /* \"#utility.yul\":1235:1241   */\n      dup2\n        /* \"#utility.yul\":1232:1262   */\n      gt\n        /* \"#utility.yul\":1229:1346   */\n      iszero\n      tag_63\n      jumpi\n        /* \"#utility.yul\":1265:1344   */\n      tag_64\n      tag_65\n      jump\t// in\n    tag_64:\n        /* \"#utility.yul\":1229:1346   */\n    tag_63:\n        /* \"#utility.yul\":1370:1432   */\n      tag_66\n        /* \"#utility.yul\":1424:1431   */\n      dup6\n        /* \"#utility.yul\":1415:1421   */\n      dup3\n        /* \"#utility.yul\":1404:1413   */\n      dup7\n        /* \"#utility.yul\":1400:1422   */\n      add\n        /* \"#utility.yul\":1370:1432   */\n      tag_49\n      jump\t// in\n    tag_66:\n        /* \"#utility.yul\":1360:1432   */\n      swap3\n      pop\n        /* \"#utility.yul\":1156:1442   */\n      pop\n        /* \"#utility.yul\":1481:1483   */\n      0x20\n        /* \"#utility.yul\":1507:1560   */\n      tag_67\n        /* \"#utility.yul\":1552:1559   */\n      dup6\n        /* \"#utility.yul\":1543:1549   */\n      dup3\n        /* \"#utility.yul\":1532:1541   */\n      dup7\n        /* \"#utility.yul\":1528:1550   */\n      add\n        /* \"#utility.yul\":1507:1560   */\n      tag_55\n      jump\t// in\n    tag_67:\n        /* \"#utility.yul\":1497:1560   */\n      swap2\n      pop\n        /* \"#utility.yul\":1452:1570   */\n      pop\n        /* \"#utility.yul\":925:1577   */\n      swap3\n      pop\n      swap3\n      swap1\n      pop\n      jump\t// out\n        /* \"#utility.yul\":1583:1943   */\n    tag_68:\n        /* \"#utility.yul\":1669:1672   */\n      0x00\n        /* \"#utility.yul\":1697:1735   */\n      tag_70\n        /* \"#utility.yul\":1729:1734   */\n      dup3\n        /* \"#utility.yul\":1697:1735   */\n      tag_71\n      jump\t// in\n    tag_70:\n        /* \"#utility.yul\":1751:1821   */\n      tag_72\n        /* \"#utility.yul\":1814:1820   */\n      dup2\n        /* \"#utility.yul\":1809:1812   */\n      dup6\n        /* \"#utility.yul\":1751:1821   */\n      tag_73\n      jump\t// in\n    tag_72:\n        /* \"#utility.yul\":1744:1821   */\n      swap4\n      pop\n        /* \"#utility.yul\":1830:1882   */\n      tag_74\n        /* \"#utility.yul\":1875:1881   */\n      dup2\n        /* \"#utility.yul\":1870:1873   */\n      dup6\n        /* \"#utility.yul\":1863:1867   */\n      0x20\n        /* \"#utility.yul\":1856:1861   */\n      dup7\n        /* \"#utility.yul\":1852:1868   */\n      add\n        /* \"#utility.yul\":1830:1882   */\n      tag_75\n      jump\t// in\n    tag_74:\n        /* \"#utility.yul\":1907:1936   */\n      tag_76\n        /* \"#utility.yul\":1929:1935   */\n      dup2\n        /* \"#utility.yul\":1907:1936   */\n      tag_77\n      jump\t// in\n    tag_76:\n        /* \"#utility.yul\":1902:1905   */\n      dup5\n        /* \"#utility.yul\":1898:1937   */\n      add\n        /* \"#utility.yul\":1891:1937   */\n      swap2\n      pop\n        /* \"#utility.yul\":1673:1943   */\n      pop\n        /* \"#utility.yul\":1583:1943   */\n      swap3\n      swap2\n      pop\n      pop\n      jump\t// out\n        /* \"#utility.yul\":1949:2061   */\n    tag_78:\n        /* \"#utility.yul\":2032:2054   */\n      tag_80\n        /* \"#utility.yul\":2048:2053   */\n      dup2\n        /* \"#utility.yul\":2032:2054   */\n      tag_81\n      jump\t// in\n    tag_80:\n        /* \"#utility.yul\":2027:2030   */\n      dup3\n        /* \"#utility.yul\":2020:2055   */\n      mstore\n        /* \"#utility.yul\":1949:2061   */\n      pop\n      pop\n      jump\t// out\n        /* \"#utility.yul\":2067:2376   */\n    tag_9:\n        /* \"#utility.yul\":2178:2182   */\n      0x00\n        /* \"#utility.yul\":2216:2218   */\n      0x20\n        /* \"#utility.yul\":2205:2214   */\n      dup3\n        /* \"#utility.yul\":2201:2219   */\n      add\n        /* \"#utility.yul\":2193:2219   */\n      swap1\n      pop\n        /* \"#utility.yul\":2265:2274   */\n      dup2\n        /* \"#utility.yul\":2259:2263   */\n      dup2\n        /* \"#utility.yul\":2255:2275   */\n      sub\n        /* \"#utility.yul\":2251:2252   */\n      0x00\n        /* \"#utility.yul\":2240:2249   */\n      dup4\n        /* \"#utility.yul\":2236:2253   */\n      add\n        /* \"#utility.yul\":2229:2276   */\n      mstore\n        /* \"#utility.yul\":2293:2369   */\n      tag_83\n        /* \"#utility.yul\":2364:2368   */\n      dup2\n        /* \"#utility.yul\":2355:2361   */\n      dup5\n        /* \"#utility.yul\":2293:2369   */\n      tag_68\n      jump\t// in\n    tag_83:\n        /* \"#utility.yul\":2285:2369   */\n      swap1\n      pop\n        /* \"#utility.yul\":2067:2376   */\n      swap3\n      swap2\n      pop\n      pop\n      jump\t// out\n        /* \"#utility.yul\":2382:2596   */\n    tag_15:\n        /* \"#utility.yul\":2471:2475   */\n      0x00\n        /* \"#utility.yul\":2509:2511   */\n      0x20\n        /* \"#utility.yul\":2498:2507   */\n      dup3\n        /* \"#utility.yul\":2494:2512   */\n      add\n        /* \"#utility.yul\":2486:2512   */\n      swap1\n      pop\n        /* \"#utility.yul\":2522:2589   */\n      tag_85\n        /* \"#utility.yul\":2586:2587   */\n      0x00\n        /* \"#utility.yul\":2575:2584   */\n      dup4\n        /* \"#utility.yul\":2571:2588   */\n      add\n        /* \"#utility.yul\":2562:2568   */\n      dup5\n        /* \"#utility.yul\":2522:2589   */\n      tag_78\n      jump\t// in\n    tag_85:\n        /* \"#utility.yul\":2382:2596   */\n      swap3\n      swap2\n      pop\n      pop\n      jump\t// out\n        /* \"#utility.yul\":2602:2731   */\n    tag_43:\n        /* \"#utility.yul\":2636:2642   */\n      0x00\n        /* \"#utility.yul\":2663:2683   */\n      tag_87\n      tag_88\n      jump\t// in\n    tag_87:\n        /* \"#utility.yul\":2653:2683   */\n      swap1\n      pop\n        /* \"#utility.yul\":2692:2725   */\n      tag_89\n        /* \"#utility.yul\":2720:2724   */\n      dup3\n        /* \"#utility.yul\":2712:2718   */\n      dup3\n        /* \"#utility.yul\":2692:2725   */\n      tag_90\n      jump\t// in\n    tag_89:\n        /* \"#utility.yul\":2602:2731   */\n      swap2\n      swap1\n      pop\n      jump\t// out\n        /* \"#utility.yul\":2737:2812   */\n    tag_88:\n        /* \"#utility.yul\":2770:2776   */\n      0x00\n        /* \"#utility.yul\":2803:2805   */\n      0x40\n        /* \"#utility.yul\":2797:2806   */\n      mload\n        /* \"#utility.yul\":2787:2806   */\n      swap1\n      pop\n        /* \"#utility.yul\":2737:2812   */\n      swap1\n      jump\t// out\n        /* \"#utility.yul\":2818:3125   */\n    tag_42:\n        /* \"#utility.yul\":2879:2883   */\n      0x00\n        /* \"#utility.yul\":2969:2987   */\n      0xffffffffffffffff\n        /* \"#utility.yul\":2961:2967   */\n      dup3\n        /* \"#utility.yul\":2958:2988   */\n      gt\n        /* \"#utility.yul\":2955:3011   */\n      iszero\n      tag_93\n      jumpi\n        /* \"#utility.yul\":2991:3009   */\n      tag_94\n      tag_95\n      jump\t// in\n    tag_94:\n        /* \"#utility.yul\":2955:3011   */\n    tag_93:\n        /* \"#utility.yul\":3029:3058   */\n      tag_96\n        /* \"#utility.yul\":3051:3057   */\n      dup3\n        /* \"#utility.yul\":3029:3058   */\n      tag_77\n      jump\t// in\n    tag_96:\n        /* \"#utility.yul\":3021:3058   */\n      swap1\n      pop\n        /* \"#utility.yul\":3113:3117   */\n      0x20\n        /* \"#utility.yul\":3107:3111   */\n      dup2\n        /* \"#utility.yul\":3103:3118   */\n      add\n        /* \"#utility.yul\":3095:3118   */\n      swap1\n      pop\n        /* \"#utility.yul\":2818:3125   */\n      swap2\n      swap1\n      pop\n      jump\t// out\n        /* \"#utility.yul\":3131:3229   */\n    tag_71:\n        /* \"#utility.yul\":3182:3188   */\n      0x00\n        /* \"#utility.yul\":3216:3221   */\n      dup2\n        /* \"#utility.yul\":3210:3222   */\n      mload\n        /* \"#utility.yul\":3200:3222   */\n      swap1\n      pop\n        /* \"#utility.yul\":3131:3229   */\n      swap2\n      swap1\n      pop\n      jump\t// out\n        /* \"#utility.yul\":3235:3403   */\n    tag_73:\n        /* \"#utility.yul\":3318:3329   */\n      0x00\n        /* \"#utility.yul\":3352:3358   */\n      dup3\n        /* \"#utility.yul\":3347:3350   */\n      dup3\n        /* \"#utility.yul\":3340:3359   */\n      mstore\n        /* \"#utility.yul\":3392:3396   */\n      0x20\n        /* \"#utility.yul\":3387:3390   */\n      dup3\n        /* \"#utility.yul\":3383:3397   */\n      add\n        /* \"#utility.yul\":3368:3397   */\n      swap1\n      pop\n        /* \"#utility.yul\":3235:3403   */\n      swap3\n      swap2\n      pop\n      pop\n      jump\t// out\n        /* \"#utility.yul\":3409:3714   */\n    tag_35:\n        /* \"#utility.yul\":3449:3452   */\n      0x00\n        /* \"#utility.yul\":3468:3488   */\n      tag_100\n        /* \"#utility.yul\":3486:3487   */\n      dup3\n        /* \"#utility.yul\":3468:3488   */\n      tag_101\n      jump\t// in\n    tag_100:\n        /* \"#utility.yul\":3463:3488   */\n      swap2\n      pop\n        /* \"#utility.yul\":3502:3522   */\n      tag_102\n        /* \"#utility.yul\":3520:3521   */\n      dup4\n        /* \"#utility.yul\":3502:3522   */\n      tag_101\n      jump\t// in\n    tag_102:\n        /* \"#utility.yul\":3497:3522   */\n      swap3\n      pop\n        /* \"#utility.yul\":3656:3657   */\n      dup3\n        /* \"#utility.yul\":3588:3654   */\n      0xffffffffffffffffffffffffffffffffffffffffffffffffffffffffffffffff\n        /* \"#utility.yul\":3584:3658   */\n      sub\n        /* \"#utility.yul\":3581:3582   */\n      dup3\n        /* \"#utility.yul\":3578:3659   */\n      gt\n        /* \"#utility.yul\":3575:3682   */\n      iszero\n      tag_103\n      jumpi\n        /* \"#utility.yul\":3662:3680   */\n      tag_104\n      tag_105\n      jump\t// in\n    tag_104:\n        /* \"#utility.yul\":3575:3682   */\n    tag_103:\n        /* \"#utility.yul\":3706:3707   */\n      dup3\n        /* \"#utility.yul\":3703:3704   */\n      dup3\n        /* \"#utility.yul\":3699:3708   */\n      add\n        /* \"#utility.yul\":3692:3708   */\n      swap1\n      pop\n        /* \"#utility.yul\":3409:3714   */\n      swap3\n      swap2\n      pop\n      pop\n      jump\t// out\n        /* \"#utility.yul\":3720:3797   */\n    tag_101:\n        /* \"#utility.yul\":3757:3764   */\n      0x00\n        /* \"#utility.yul\":3786:3791   */\n      dup2\n        /* \"#utility.yul\":3775:3791   */\n      swap1\n      pop\n        /* \"#utility.yul\":3720:3797   */\n      swap2\n      swap1\n      pop\n      jump\t// out\n        /* \"#utility.yul\":3803:3889   */\n    tag_81:\n        /* \"#utility.yul\":3838:3845   */\n      0x00\n        /* \"#utility.yul\":3878:3882   */\n      0xff\n        /* \"#utility.yul\":3871:3876   */\n      dup3\n        /* \"#utility.yul\":3867:3883   */\n      and\n        /* \"#utility.yul\":3856:3883   */\n      swap1\n      pop\n        /* \"#utility.yul\":3803:3889   */\n      swap2\n      swap1\n      pop\n      jump\t// out\n        /* \"#utility.yul\":3895:4049   */\n    tag_48:\n        /* \"#utility.yul\":3979:3985   */\n      dup3\n        /* \"#utility.yul\":3974:3977   */\n      dup2\n        /* \"#utility.yul\":3969:3972   */\n      dup4\n        /* \"#utility.yul\":3956:3986   */\n      calldatacopy\n        /* \"#utility.yul\":4041:4042   */\n      0x00\n        /* \"#utility.yul\":4032:4038   */\n      dup4\n        /* \"#utility.yul\":4027:4030   */\n      dup4\n        /* \"#utility.yul\":4023:4039   */\n      add\n        /* \"#utility.yul\":4016:4043   */\n      mstore\n        /* \"#utility.yul\":3895:4049   */\n      pop\n      pop\n      pop\n      jump\t// out\n        /* \"#utility.yul\":4055:4362   */\n    tag_75:\n        /* \"#utility.yul\":4123:4124   */\n      0x00\n        /* \"#utility.yul\":4133:4246   */\n    tag_110:\n        /* \"#utility.yul\":4147:4153   */\n      dup4\n        /* \"#utility.yul\":4144:4145   */\n      dup2\n        /* \"#utility.yul\":4141:4154   */\n      lt\n        /* \"#utility.yul\":4133:4246   */\n      iszero\n      tag_112\n      jumpi\n        /* \"#utility.yul\":4232:4233   */\n      dup1\n        /* \"#utility.yul\":4227:4230   */\n      dup3\n        /* \"#utility.yul\":4223:4234   */\n      add\n        /* \"#utility.yul\":4217:4235   */\n      mload\n        /* \"#utility.yul\":4213:4214   */\n      dup2\n        /* \"#utility.yul\":4208:4211   */\n      dup5\n        /* \"#utility.yul\":4204:4215   */\n      add\n        /* \"#utility.yul\":4197:4236   */\n      mstore\n        /* \"#utility.yul\":4169:4171   */\n      0x20\n        /* \"#utility.yul\":4166:4167   */\n      dup2\n        /* \"#utility.yul\":4162:4172   */\n      add\n        /* \"#utility.yul\":4157:4172   */\n      swap1\n      pop\n        /* \"#utility.yul\":4133:4246   */\n      jump(tag_110)\n    tag_112:\n        /* \"#utility.yul\":4264:4270   */\n      dup4\n        /* \"#utility.yul\":4261:4262   */\n      dup2\n        /* \"#utility.yul\":4258:4271   */\n      gt\n        /* \"#utility.yul\":4255:4356   */\n      iszero\n      tag_113\n      jumpi\n        /* \"#utility.yul\":4344:4345   */\n      0x00\n        /* \"#utility.yul\":4335:4341   */\n      dup5\n        /* \"#utility.yul\":4330:4333   */\n      dup5\n        /* \"#utility.yul\":4326:4342   */\n      add\n        /* \"#utility.yul\":4319:4346   */\n      mstore\n        /* \"#utility.yul\":4255:4356   */\n    tag_113:\n        /* \"#utility.yul\":4104:4362   */\n      pop\n        /* \"#utility.yul\":4055:4362   */\n      pop\n      pop\n      pop\n      jump\t// out\n        /* \"#utility.yul\":4368:4688   */\n    tag_20:\n        /* \"#utility.yul\":4412:4418   */\n      0x00\n        /* \"#utility.yul\":4449:4450   */\n      0x02\n        /* \"#utility.yul\":4443:4447   */\n      dup3\n        /* \"#utility.yul\":4439:4451   */\n      div\n        /* \"#utility.yul\":4429:4451   */\n      swap1\n      pop\n        /* \"#utility.yul\":4496:4497   */\n      0x01\n        /* \"#utility.yul\":4490:4494   */\n      dup3\n        /* \"#utility.yul\":4486:4498   */\n      and\n        /* \"#utility.yul\":4517:4535   */\n      dup1\n        /* \"#utility.yul\":4507:4588   */\n      tag_115\n      jumpi\n        /* \"#utility.yul\":4573:4577   */\n      0x7f\n        /* \"#utility.yul\":4565:4571   */\n      dup3\n        /* \"#utility.yul\":4561:4578   */\n      and\n        /* \"#utility.yul\":4551:4578   */\n      swap2\n      pop\n        /* \"#utility.yul\":4507:4588   */\n    tag_115:\n        /* \"#utility.yul\":4635:4637   */\n      0x20\n        /* \"#utility.yul\":4627:4633   */\n      dup3\n        /* \"#utility.yul\":4624:4638   */\n      lt\n        /* \"#utility.yul\":4604:4622   */\n      dup2\n        /* \"#utility.yul\":4601:4639   */\n      eq\n        /* \"#utility.yul\":4598:4682   */\n      iszero\n      tag_116\n      jumpi\n        /* \"#utility.yul\":4654:4672   */\n      tag_117\n      tag_118\n      jump\t// in\n    tag_117:\n        /* \"#utility.yul\":4598:4682   */\n    tag_116:\n        /* \"#utility.yul\":4419:4688   */\n      pop\n        /* \"#utility.yul\":4368:4688   */\n      swap2\n      swap1\n      pop\n      jump\t// out\n        /* \"#utility.yul\":4694:4975   */\n    tag_90:\n        /* \"#utility.yul\":4777:4804   */\n      tag_120\n        /* \"#utility.yul\":4799:4803   */\n      dup3\n        /* \"#utility.yul\":4777:4804   */\n      tag_77\n      jump\t// in\n    tag_120:\n        /* \"#utility.yul\":4769:4775   */\n      dup2\n        /* \"#utility.yul\":4765:4805   */\n      add\n        /* \"#utility.yul\":4907:4913   */\n      dup2\n        /* \"#utility.yul\":4895:4905   */\n      dup2\n        /* \"#utility.yul\":4892:4914   */\n      lt\n        /* \"#utility.yul\":4871:4889   */\n      0xffffffffffffffff\n        /* \"#utility.yul\":4859:4869   */\n      dup3\n        /* \"#utility.yul\":4856:4890   */\n      gt\n        /* \"#utility.yul\":4853:4915   */\n      or\n        /* \"#utility.yul\":4850:4938   */\n      iszero\n      tag_121\n      jumpi\n        /* \"#utility.yul\":4918:4936   */\n      tag_122\n      tag_95\n      jump\t// in\n    tag_122:\n        /* \"#utility.yul\":4850:4938   */\n    tag_121:\n        /* \"#utility.yul\":4958:4968   */\n      dup1\n        /* \"#utility.yul\":4954:4956   */\n      0x40\n        /* \"#utility.yul\":4947:4969   */\n      mstore\n        /* \"#utility.yul\":4737:4975   */\n      pop\n        /* \"#utility.yul\":4694:4975   */\n      pop\n      pop\n      jump\t// out\n        /* \"#utility.yul\":4981:5161   */\n    tag_105:\n        /* \"#utility.yul\":5029:5106   */\n      0x4e487b7100000000000000000000000000000000000000000000000000000000\n        /* \"#utility.yul\":5026:5027   */\n      0x00\n        /* \"#utility.yul\":5019:5107   */\n      mstore\n        /* \"#utility.yul\":5126:5130   */\n      0x11\n        /* \"#utility.yul\":5123:5124   */\n      0x04\n        /* \"#utility.yul\":5116:5131   */\n      mstore\n        /* \"#utility.yul\":5150:5154   */\n      0x24\n        /* \"#utility.yul\":5147:5148   */\n      0x00\n        /* \"#utility.yul\":5140:5155   */\n      revert\n        /* \"#utility.yul\":5167:5347   */\n    tag_118:\n        /* \"#utility.yul\":5215:5292   */\n      0x4e487b7100000000000000000000000000000000000000000000000000000000\n        /* \"#utility.yul\":5212:5213   */\n      0x00\n        /* \"#utility.yul\":5205:5293   */\n      mstore\n        /* \"#utility.yul\":5312:5316   */\n      0x22\n        /* \"#utility.yul\":5309:5310   */\n      0x04\n        /* \"#utility.yul\":5302:5317   */\n      mstore\n        /* \"#utility.yul\":5336:5340   */\n      0x24\n        /* \"#utility.yul\":5333:5334   */\n      0x00\n        /* \"#utility.yul\":5326:5341   */\n      revert\n        /* \"#utility.yul\":5353:5533   */\n    tag_95:\n        /* \"#utility.yul\":5401:5478   */\n      0x4e487b7100000000000000000000000000000000000000000000000000000000\n        /* \"#utility.yul\":5398:5399   */\n      0x00\n        /* \"#utility.yul\":5391:5479   */\n      mstore\n        /* \"#utility.yul\":5498:5502   */\n      0x41\n        /* \"#utility.yul\":5495:5496   */\n      0x04\n        /* \"#utility.yul\":5488:5503   */\n      mstore\n        /* \"#utility.yul\":5522:5526   */\n      0x24\n        /* \"#utility.yul\":5519:5520   */\n      0x00\n        /* \"#utility.yul\":5512:5527   */\n      revert\n        /* \"#utility.yul\":5539:5656   */\n    tag_53:\n        /* \"#utility.yul\":5648:5649   */\n      0x00\n        /* \"#utility.yul\":5645:5646   */\n      dup1\n        /* \"#utility.yul\":5638:5650   */\n      revert\n        /* \"#utility.yul\":5662:5779   */\n    tag_46:\n        /* \"#utility.yul\":5771:5772   */\n      0x00\n        /* \"#utility.yul\":5768:5769   */\n      dup1\n        /* \"#utility.yul\":5761:5773   */\n      revert\n        /* \"#utility.yul\":5785:5902   */\n    tag_65:\n        /* \"#utility.yul\":5894:5895   */\n      0x00\n        /* \"#utility.yul\":5891:5892   */\n      dup1\n        /* \"#utility.yul\":5884:5896   */\n      revert\n        /* \"#utility.yul\":5908:6025   */\n    tag_62:\n        /* \"#utility.yul\":6017:6018   */\n      0x00\n        /* \"#utility.yul\":6014:6015   */\n      dup1\n        /* \"#utility.yul\":6007:6019   */\n      revert\n        /* \"#utility.yul\":6031:6133   */\n    tag_77:\n        /* \"#utility.yul\":6072:6078   */\n      0x00\n        /* \"#utility.yul\":6123:6125   */\n      0x1f\n        /* \"#utility.yul\":6119:6126   */\n      not\n        /* \"#utility.yul\":6114:6116   */\n      0x1f\n        /* \"#utility.yul\":6107:6112   */\n      dup4\n        /* \"#utility.yul\":6103:6117   */\n      add\n        /* \"#utility.yul\":6099:6127   */\n      and\n        /* \"#utility.yul\":6089:6127   */\n      swap1\n      pop\n        /* \"#utility.yul\":6031:6133   */\n      swap2\n      swap1\n      pop\n      jump\t// out\n        /* \"#utility.yul\":6139:6261   */\n    tag_58:\n        /* \"#utility.yul\":6212:6236   */\n      tag_132\n        /* \"#utility.yul\":6230:6235   */\n      dup2\n        /* \"#utility.yul\":6212:6236   */\n      tag_101\n      jump\t// in\n    tag_132:\n        /* \"#utility.yul\":6205:6210   */\n      dup2\n        /* \"#utility.yul\":6202:6237   */\n      eq\n        /* \"#utility.yul\":6192:6255   */\n      tag_133\n      jumpi\n        /* \"#utility.yul\":6251:6252   */\n      0x00\n        /* \"#utility.yul\":6248:6249   */\n      dup1\n        /* \"#utility.yul\":6241:6253   */\n      revert\n        /* \"#utility.yul\":6192:6255   */\n    tag_133:\n        /* \"#utility.yul\":6139:6261   */\n      pop\n      jump\t// out\n\n    auxdata: 0xa26469706673582212202440bd7513e9c971217b63a8efa12d30bc3b70968dd42d5ee6a276ecd5731f2b64736f6c63430008070033\n}\n",
				"bytecode": {
					"linkReferences": {},
					"object": "60806040526040518060400160405280600a81526020017f4e414c45484f4e47564f000000000000000000000000000000000000000000008152506000908051906020019061004f9291906100ae565b506040518060400160405280601d81526020017f4c45484f4e47564f776a6e66766a33776568387668736164666a6f69660000008152506001908051906020019061009b9291906100ae565b503480156100a857600080fd5b506101b2565b8280546100ba90610151565b90600052602060002090601f0160209004810192826100dc5760008555610123565b82601f106100f557805160ff1916838001178555610123565b82800160010185558215610123579182015b82811115610122578251825591602001919060010190610107565b5b5090506101309190610134565b5090565b5b8082111561014d576000816000905550600101610135565b5090565b6000600282049050600182168061016957607f821691505b6020821081141561017d5761017c610183565b5b50919050565b7f4e487b7100000000000000000000000000000000000000000000000000000000600052602260045260246000fd5b6105fc806101c16000396000f3fe608060405234801561001057600080fd5b50600436106100415760003560e01c80639ffd85c414610046578063a4799acb14610064578063e3a7fd7514610094575b600080fd5b61004e6100b2565b60405161005b919061033c565b60405180910390f35b61007e60048036038101906100799190610298565b610140565b60405161008b919061035e565b60405180910390f35b61009c610154565b6040516100a9919061033c565b60405180910390f35b600080546100bf9061049a565b80601f01602080910402602001604051908101604052809291908181526020018280546100eb9061049a565b80156101385780601f1061010d57610100808354040283529160200191610138565b820191906000526020600020905b81548152906001019060200180831161011b57829003601f168201915b505050505081565b600061014c83836101e2565b905092915050565b600180546101619061049a565b80601f016020809104026020016040519081016040528092919081815260200182805461018d9061049a565b80156101da5780601f106101af576101008083540402835291602001916101da565b820191906000526020600020905b8154815290600101906020018083116101bd57829003601f168201915b505050505081565b60006001826101f191906103eb565b835110156101fe57600080fd5b60008260018501015190508091505092915050565b60006102266102218461039e565b610379565b9050828152602081018484840111156102425761024161058f565b5b61024d848285610458565b509392505050565b600082601f83011261026a5761026961058a565b5b813561027a848260208601610213565b91505092915050565b600081359050610292816105af565b92915050565b600080604083850312156102af576102ae610599565b5b600083013567ffffffffffffffff8111156102cd576102cc610594565b5b6102d985828601610255565b92505060206102ea85828601610283565b9150509250929050565b60006102ff826103cf565b61030981856103da565b9350610319818560208601610467565b6103228161059e565b840191505092915050565b6103368161044b565b82525050565b6000602082019050818103600083015261035681846102f4565b905092915050565b6000602082019050610373600083018461032d565b92915050565b6000610383610394565b905061038f82826104cc565b919050565b6000604051905090565b600067ffffffffffffffff8211156103b9576103b861055b565b5b6103c28261059e565b9050602081019050919050565b600081519050919050565b600082825260208201905092915050565b60006103f682610441565b915061040183610441565b9250827fffffffffffffffffffffffffffffffffffffffffffffffffffffffffffffffff03821115610436576104356104fd565b5b828201905092915050565b6000819050919050565b600060ff82169050919050565b82818337600083830152505050565b60005b8381101561048557808201518184015260208101905061046a565b83811115610494576000848401525b50505050565b600060028204905060018216806104b257607f821691505b602082108114156104c6576104c561052c565b5b50919050565b6104d58261059e565b810181811067ffffffffffffffff821117156104f4576104f361055b565b5b80604052505050565b7f4e487b7100000000000000000000000000000000000000000000000000000000600052601160045260246000fd5b7f4e487b7100000000000000000000000000000000000000000000000000000000600052602260045260246000fd5b7f4e487b7100000000000000000000000000000000000000000000000000000000600052604160045260246000fd5b600080fd5b600080fd5b600080fd5b600080fd5b6000601f19601f8301169050919050565b6105b881610441565b81146105c357600080fd5b5056fea26469706673582212202440bd7513e9c971217b63a8efa12d30bc3b70968dd42d5ee6a276ecd5731f2b64736f6c63430008070033",
					"opcodes": "PUSH1 0x80 PUSH1 0x40 MSTORE PUSH1 0x40 MLOAD DUP1 PUSH1 0x40 ADD PUSH1 0x40 MSTORE DUP1 PUSH1 0xA DUP2 MSTORE PUSH1 0x20 ADD PUSH32 0x4E414C45484F4E47564F00000000000000000000000000000000000000000000 DUP2 MSTORE POP PUSH1 0x0 SWAP1 DUP1 MLOAD SWAP1 PUSH1 0x20 ADD SWAP1 PUSH2 0x4F SWAP3 SWAP2 SWAP1 PUSH2 0xAE JUMP JUMPDEST POP PUSH1 0x40 MLOAD DUP1 PUSH1 0x40 ADD PUSH1 0x40 MSTORE DUP1 PUSH1 0x1D DUP2 MSTORE PUSH1 0x20 ADD PUSH32 0x4C45484F4E47564F776A6E66766A33776568387668736164666A6F6966000000 DUP2 MSTORE POP PUSH1 0x1 SWAP1 DUP1 MLOAD SWAP1 PUSH1 0x20 ADD SWAP1 PUSH2 0x9B SWAP3 SWAP2 SWAP1 PUSH2 0xAE JUMP JUMPDEST POP CALLVALUE DUP1 ISZERO PUSH2 0xA8 JUMPI PUSH1 0x0 DUP1 REVERT JUMPDEST POP PUSH2 0x1B2 JUMP JUMPDEST DUP3 DUP1 SLOAD PUSH2 0xBA SWAP1 PUSH2 0x151 JUMP JUMPDEST SWAP1 PUSH1 0x0 MSTORE PUSH1 0x20 PUSH1 0x0 KECCAK256 SWAP1 PUSH1 0x1F ADD PUSH1 0x20 SWAP1 DIV DUP2 ADD SWAP3 DUP3 PUSH2 0xDC JUMPI PUSH1 0x0 DUP6 SSTORE PUSH2 0x123 JUMP JUMPDEST DUP3 PUSH1 0x1F LT PUSH2 0xF5 JUMPI DUP1 MLOAD PUSH1 0xFF NOT AND DUP4 DUP1 ADD OR DUP6 SSTORE PUSH2 0x123 JUMP JUMPDEST DUP3 DUP1 ADD PUSH1 0x1 ADD DUP6 SSTORE DUP3 ISZERO PUSH2 0x123 JUMPI SWAP2 DUP3 ADD JUMPDEST DUP3 DUP2 GT ISZERO PUSH2 0x122 JUMPI DUP3 MLOAD DUP3 SSTORE SWAP2 PUSH1 0x20 ADD SWAP2 SWAP1 PUSH1 0x1 ADD SWAP1 PUSH2 0x107 JUMP JUMPDEST JUMPDEST POP SWAP1 POP PUSH2 0x130 SWAP2 SWAP1 PUSH2 0x134 JUMP JUMPDEST POP SWAP1 JUMP JUMPDEST JUMPDEST DUP1 DUP3 GT ISZERO PUSH2 0x14D JUMPI PUSH1 0x0 DUP2 PUSH1 0x0 SWAP1 SSTORE POP PUSH1 0x1 ADD PUSH2 0x135 JUMP JUMPDEST POP SWAP1 JUMP JUMPDEST PUSH1 0x0 PUSH1 0x2 DUP3 DIV SWAP1 POP PUSH1 0x1 DUP3 AND DUP1 PUSH2 0x169 JUMPI PUSH1 0x7F DUP3 AND SWAP2 POP JUMPDEST PUSH1 0x20 DUP3 LT DUP2 EQ ISZERO PUSH2 0x17D JUMPI PUSH2 0x17C PUSH2 0x183 JUMP JUMPDEST JUMPDEST POP SWAP2 SWAP1 POP JUMP JUMPDEST PUSH32 0x4E487B7100000000000000000000000000000000000000000000000000000000 PUSH1 0x0 MSTORE PUSH1 0x22 PUSH1 0x4 MSTORE PUSH1 0x24 PUSH1 0x0 REVERT JUMPDEST PUSH2 0x5FC DUP1 PUSH2 0x1C1 PUSH1 0x0 CODECOPY PUSH1 0x0 RETURN INVALID PUSH1 0x80 PUSH1 0x40 MSTORE CALLVALUE DUP1 ISZERO PUSH2 0x10 JUMPI PUSH1 0x0 DUP1 REVERT JUMPDEST POP PUSH1 0x4 CALLDATASIZE LT PUSH2 0x41 JUMPI PUSH1 0x0 CALLDATALOAD PUSH1 0xE0 SHR DUP1 PUSH4 0x9FFD85C4 EQ PUSH2 0x46 JUMPI DUP1 PUSH4 0xA4799ACB EQ PUSH2 0x64 JUMPI DUP1 PUSH4 0xE3A7FD75 EQ PUSH2 0x94 JUMPI JUMPDEST PUSH1 0x0 DUP1 REVERT JUMPDEST PUSH2 0x4E PUSH2 0xB2 JUMP JUMPDEST PUSH1 0x40 MLOAD PUSH2 0x5B SWAP2 SWAP1 PUSH2 0x33C JUMP JUMPDEST PUSH1 0x40 MLOAD DUP1 SWAP2 SUB SWAP1 RETURN JUMPDEST PUSH2 0x7E PUSH1 0x4 DUP1 CALLDATASIZE SUB DUP2 ADD SWAP1 PUSH2 0x79 SWAP2 SWAP1 PUSH2 0x298 JUMP JUMPDEST PUSH2 0x140 JUMP JUMPDEST PUSH1 0x40 MLOAD PUSH2 0x8B SWAP2 SWAP1 PUSH2 0x35E JUMP JUMPDEST PUSH1 0x40 MLOAD DUP1 SWAP2 SUB SWAP1 RETURN JUMPDEST PUSH2 0x9C PUSH2 0x154 JUMP JUMPDEST PUSH1 0x40 MLOAD PUSH2 0xA9 SWAP2 SWAP1 PUSH2 0x33C JUMP JUMPDEST PUSH1 0x40 MLOAD DUP1 SWAP2 SUB SWAP1 RETURN JUMPDEST PUSH1 0x0 DUP1 SLOAD PUSH2 0xBF SWAP1 PUSH2 0x49A JUMP JUMPDEST DUP1 PUSH1 0x1F ADD PUSH1 0x20 DUP1 SWAP2 DIV MUL PUSH1 0x20 ADD PUSH1 0x40 MLOAD SWAP1 DUP2 ADD PUSH1 0x40 MSTORE DUP1 SWAP3 SWAP2 SWAP1 DUP2 DUP2 MSTORE PUSH1 0x20 ADD DUP3 DUP1 SLOAD PUSH2 0xEB SWAP1 PUSH2 0x49A JUMP JUMPDEST DUP1 ISZERO PUSH2 0x138 JUMPI DUP1 PUSH1 0x1F LT PUSH2 0x10D JUMPI PUSH2 0x100 DUP1 DUP4 SLOAD DIV MUL DUP4 MSTORE SWAP2 PUSH1 0x20 ADD SWAP2 PUSH2 0x138 JUMP JUMPDEST DUP3 ADD SWAP2 SWAP1 PUSH1 0x0 MSTORE PUSH1 0x20 PUSH1 0x0 KECCAK256 SWAP1 JUMPDEST DUP2 SLOAD DUP2 MSTORE SWAP1 PUSH1 0x1 ADD SWAP1 PUSH1 0x20 ADD DUP1 DUP4 GT PUSH2 0x11B JUMPI DUP3 SWAP1 SUB PUSH1 0x1F AND DUP3 ADD SWAP2 JUMPDEST POP POP POP POP POP DUP2 JUMP JUMPDEST PUSH1 0x0 PUSH2 0x14C DUP4 DUP4 PUSH2 0x1E2 JUMP JUMPDEST SWAP1 POP SWAP3 SWAP2 POP POP JUMP JUMPDEST PUSH1 0x1 DUP1 SLOAD PUSH2 0x161 SWAP1 PUSH2 0x49A JUMP JUMPDEST DUP1 PUSH1 0x1F ADD PUSH1 0x20 DUP1 SWAP2 DIV MUL PUSH1 0x20 ADD PUSH1 0x40 MLOAD SWAP1 DUP2 ADD PUSH1 0x40 MSTORE DUP1 SWAP3 SWAP2 SWAP1 DUP2 DUP2 MSTORE PUSH1 0x20 ADD DUP3 DUP1 SLOAD PUSH2 0x18D SWAP1 PUSH2 0x49A JUMP JUMPDEST DUP1 ISZERO PUSH2 0x1DA JUMPI DUP1 PUSH1 0x1F LT PUSH2 0x1AF JUMPI PUSH2 0x100 DUP1 DUP4 SLOAD DIV MUL DUP4 MSTORE SWAP2 PUSH1 0x20 ADD SWAP2 PUSH2 0x1DA JUMP JUMPDEST DUP3 ADD SWAP2 SWAP1 PUSH1 0x0 MSTORE PUSH1 0x20 PUSH1 0x0 KECCAK256 SWAP1 JUMPDEST DUP2 SLOAD DUP2 MSTORE SWAP1 PUSH1 0x1 ADD SWAP1 PUSH1 0x20 ADD DUP1 DUP4 GT PUSH2 0x1BD JUMPI DUP3 SWAP1 SUB PUSH1 0x1F AND DUP3 ADD SWAP2 JUMPDEST POP POP POP POP POP DUP2 JUMP JUMPDEST PUSH1 0x0 PUSH1 0x1 DUP3 PUSH2 0x1F1 SWAP2 SWAP1 PUSH2 0x3EB JUMP JUMPDEST DUP4 MLOAD LT ISZERO PUSH2 0x1FE JUMPI PUSH1 0x0 DUP1 REVERT JUMPDEST PUSH1 0x0 DUP3 PUSH1 0x1 DUP6 ADD ADD MLOAD SWAP1 POP DUP1 SWAP2 POP POP SWAP3 SWAP2 POP POP JUMP JUMPDEST PUSH1 0x0 PUSH2 0x226 PUSH2 0x221 DUP5 PUSH2 0x39E JUMP JUMPDEST PUSH2 0x379 JUMP JUMPDEST SWAP1 POP DUP3 DUP2 MSTORE PUSH1 0x20 DUP2 ADD DUP5 DUP5 DUP5 ADD GT ISZERO PUSH2 0x242 JUMPI PUSH2 0x241 PUSH2 0x58F JUMP JUMPDEST JUMPDEST PUSH2 0x24D DUP5 DUP3 DUP6 PUSH2 0x458 JUMP JUMPDEST POP SWAP4 SWAP3 POP POP POP JUMP JUMPDEST PUSH1 0x0 DUP3 PUSH1 0x1F DUP4 ADD SLT PUSH2 0x26A JUMPI PUSH2 0x269 PUSH2 0x58A JUMP JUMPDEST JUMPDEST DUP2 CALLDATALOAD PUSH2 0x27A DUP5 DUP3 PUSH1 0x20 DUP7 ADD PUSH2 0x213 JUMP JUMPDEST SWAP2 POP POP SWAP3 SWAP2 POP POP JUMP JUMPDEST PUSH1 0x0 DUP2 CALLDATALOAD SWAP1 POP PUSH2 0x292 DUP2 PUSH2 0x5AF JUMP JUMPDEST SWAP3 SWAP2 POP POP JUMP JUMPDEST PUSH1 0x0 DUP1 PUSH1 0x40 DUP4 DUP6 SUB SLT ISZERO PUSH2 0x2AF JUMPI PUSH2 0x2AE PUSH2 0x599 JUMP JUMPDEST JUMPDEST PUSH1 0x0 DUP4 ADD CALLDATALOAD PUSH8 0xFFFFFFFFFFFFFFFF DUP2 GT ISZERO PUSH2 0x2CD JUMPI PUSH2 0x2CC PUSH2 0x594 JUMP JUMPDEST JUMPDEST PUSH2 0x2D9 DUP6 DUP3 DUP7 ADD PUSH2 0x255 JUMP JUMPDEST SWAP3 POP POP PUSH1 0x20 PUSH2 0x2EA DUP6 DUP3 DUP7 ADD PUSH2 0x283 JUMP JUMPDEST SWAP2 POP POP SWAP3 POP SWAP3 SWAP1 POP JUMP JUMPDEST PUSH1 0x0 PUSH2 0x2FF DUP3 PUSH2 0x3CF JUMP JUMPDEST PUSH2 0x309 DUP2 DUP6 PUSH2 0x3DA JUMP JUMPDEST SWAP4 POP PUSH2 0x319 DUP2 DUP6 PUSH1 0x20 DUP7 ADD PUSH2 0x467 JUMP JUMPDEST PUSH2 0x322 DUP2 PUSH2 0x59E JUMP JUMPDEST DUP5 ADD SWAP2 POP POP SWAP3 SWAP2 POP POP JUMP JUMPDEST PUSH2 0x336 DUP2 PUSH2 0x44B JUMP JUMPDEST DUP3 MSTORE POP POP JUMP JUMPDEST PUSH1 0x0 PUSH1 0x20 DUP3 ADD SWAP1 POP DUP2 DUP2 SUB PUSH1 0x0 DUP4 ADD MSTORE PUSH2 0x356 DUP2 DUP5 PUSH2 0x2F4 JUMP JUMPDEST SWAP1 POP SWAP3 SWAP2 POP POP JUMP JUMPDEST PUSH1 0x0 PUSH1 0x20 DUP3 ADD SWAP1 POP PUSH2 0x373 PUSH1 0x0 DUP4 ADD DUP5 PUSH2 0x32D JUMP JUMPDEST SWAP3 SWAP2 POP POP JUMP JUMPDEST PUSH1 0x0 PUSH2 0x383 PUSH2 0x394 JUMP JUMPDEST SWAP1 POP PUSH2 0x38F DUP3 DUP3 PUSH2 0x4CC JUMP JUMPDEST SWAP2 SWAP1 POP JUMP JUMPDEST PUSH1 0x0 PUSH1 0x40 MLOAD SWAP1 POP SWAP1 JUMP JUMPDEST PUSH1 0x0 PUSH8 0xFFFFFFFFFFFFFFFF DUP3 GT ISZERO PUSH2 0x3B9 JUMPI PUSH2 0x3B8 PUSH2 0x55B JUMP JUMPDEST JUMPDEST PUSH2 0x3C2 DUP3 PUSH2 0x59E JUMP JUMPDEST SWAP1 POP PUSH1 0x20 DUP2 ADD SWAP1 POP SWAP2 SWAP1 POP JUMP JUMPDEST PUSH1 0x0 DUP2 MLOAD SWAP1 POP SWAP2 SWAP1 POP JUMP JUMPDEST PUSH1 0x0 DUP3 DUP3 MSTORE PUSH1 0x20 DUP3 ADD SWAP1 POP SWAP3 SWAP2 POP POP JUMP JUMPDEST PUSH1 0x0 PUSH2 0x3F6 DUP3 PUSH2 0x441 JUMP JUMPDEST SWAP2 POP PUSH2 0x401 DUP4 PUSH2 0x441 JUMP JUMPDEST SWAP3 POP DUP3 PUSH32 0xFFFFFFFFFFFFFFFFFFFFFFFFFFFFFFFFFFFFFFFFFFFFFFFFFFFFFFFFFFFFFFFF SUB DUP3 GT ISZERO PUSH2 0x436 JUMPI PUSH2 0x435 PUSH2 0x4FD JUMP JUMPDEST JUMPDEST DUP3 DUP3 ADD SWAP1 POP SWAP3 SWAP2 POP POP JUMP JUMPDEST PUSH1 0x0 DUP2 SWAP1 POP SWAP2 SWAP1 POP JUMP JUMPDEST PUSH1 0x0 PUSH1 0xFF DUP3 AND SWAP1 POP SWAP2 SWAP1 POP JUMP JUMPDEST DUP3 DUP2 DUP4 CALLDATACOPY PUSH1 0x0 DUP4 DUP4 ADD MSTORE POP POP POP JUMP JUMPDEST PUSH1 0x0 JUMPDEST DUP4 DUP2 LT ISZERO PUSH2 0x485 JUMPI DUP1 DUP3 ADD MLOAD DUP2 DUP5 ADD MSTORE PUSH1 0x20 DUP2 ADD SWAP1 POP PUSH2 0x46A JUMP JUMPDEST DUP4 DUP2 GT ISZERO PUSH2 0x494 JUMPI PUSH1 0x0 DUP5 DUP5 ADD MSTORE JUMPDEST POP POP POP POP JUMP JUMPDEST PUSH1 0x0 PUSH1 0x2 DUP3 DIV SWAP1 POP PUSH1 0x1 DUP3 AND DUP1 PUSH2 0x4B2 JUMPI PUSH1 0x7F DUP3 AND SWAP2 POP JUMPDEST PUSH1 0x20 DUP3 LT DUP2 EQ ISZERO PUSH2 0x4C6 JUMPI PUSH2 0x4C5 PUSH2 0x52C JUMP JUMPDEST JUMPDEST POP SWAP2 SWAP1 POP JUMP JUMPDEST PUSH2 0x4D5 DUP3 PUSH2 0x59E JUMP JUMPDEST DUP2 ADD DUP2 DUP2 LT PUSH8 0xFFFFFFFFFFFFFFFF DUP3 GT OR ISZERO PUSH2 0x4F4 JUMPI PUSH2 0x4F3 PUSH2 0x55B JUMP JUMPDEST JUMPDEST DUP1 PUSH1 0x40 MSTORE POP POP POP JUMP JUMPDEST PUSH32 0x4E487B7100000000000000000000000000000000000000000000000000000000 PUSH1 0x0 MSTORE PUSH1 0x11 PUSH1 0x4 MSTORE PUSH1 0x24 PUSH1 0x0 REVERT JUMPDEST PUSH32 0x4E487B7100000000000000000000000000000000000000000000000000000000 PUSH1 0x0 MSTORE PUSH1 0x22 PUSH1 0x4 MSTORE PUSH1 0x24 PUSH1 0x0 REVERT JUMPDEST PUSH32 0x4E487B7100000000000000000000000000000000000000000000000000000000 PUSH1 0x0 MSTORE PUSH1 0x41 PUSH1 0x4 MSTORE PUSH1 0x24 PUSH1 0x0 REVERT JUMPDEST PUSH1 0x0 DUP1 REVERT JUMPDEST PUSH1 0x0 DUP1 REVERT JUMPDEST PUSH1 0x0 DUP1 REVERT JUMPDEST PUSH1 0x0 DUP1 REVERT JUMPDEST PUSH1 0x0 PUSH1 0x1F NOT PUSH1 0x1F DUP4 ADD AND SWAP1 POP SWAP2 SWAP1 POP JUMP JUMPDEST PUSH2 0x5B8 DUP2 PUSH2 0x441 JUMP JUMPDEST DUP2 EQ PUSH2 0x5C3 JUMPI PUSH1 0x0 DUP1 REVERT JUMPDEST POP JUMP INVALID LOG2 PUSH5 0x6970667358 0x22 SLT KECCAK256 0x24 BLOCKHASH 0xBD PUSH22 0x13E9C971217B63A8EFA12D30BC3B70968DD42D5EE6A2 PUSH23 0xECD5731F2B64736F6C6343000807003300000000000000 "
				},
				"gasEstimates": {
					"creation": {
						"codeDepositCost": "306400",
						"executionCost": "infinite",
						"totalCost": "infinite"
					},
					"external": {
						"data1()": "infinite",
						"data2()": "infinite",
						"getData(bytes,uint256)": "infinite"
					},
					"internal": {
						"toUint8(bytes memory,uint256)": "infinite"
					}
				},
				"methodIdentifiers": {
					"data1()": "9ffd85c4",
					"data2()": "e3a7fd75",
					"getData(bytes,uint256)": "a4799acb"
				}
			},
			"userdoc": {
				"kind": "user",
				"methods": {},
				"version": 1
			}
		}
	}
}