{
	"contracts/demo2.sol": {
		"demo2": {
			"abi": [
				{
					"inputs": [],
					"name": "data1",
					"outputs": [
						{
							"internalType": "bytes",
							"name": "",
							"type": "bytes"
						}
					],
					"stateMutability": "view",
					"type": "function"
				},
				{
					"inputs": [],
					"name": "data2",
					"outputs": [
						{
							"internalType": "bytes",
							"name": "",
							"type": "bytes"
						}
					],
					"stateMutability": "view",
					"type": "function"
				},
				{
					"inputs": [
						{
							"internalType": "bytes",
							"name": "_preBytes",
							"type": "bytes"
						},
						{
							"internalType": "uint256",
							"name": "_start",
							"type": "uint256"
						}
					],
					"name": "getData",
					"outputs": [
						{
							"internalType": "address",
							"name": "",
							"type": "address"
						}
					],
					"stateMutability": "view",
					"type": "function"
				}
			],
			"devdoc": {
				"kind": "dev",
				"methods": {},
				"version": 1
			},
			"evm": {
				"assembly": "    /* \"contracts/demo2.sol\":34:641  contract demo2 {\r... */\n  mstore(0x40, 0x80)\n    /* \"contracts/demo2.sol\":55:88  bytes public data1 = \"NALEHONGVO\" */\n  mload(0x40)\n  dup1\n  0x40\n  add\n  0x40\n  mstore\n  dup1\n  0x0a\n  dup2\n  mstore\n  0x20\n  add\n  0x4e414c45484f4e47564f00000000000000000000000000000000000000000000\n  dup2\n  mstore\n  pop\n  0x00\n  swap1\n  dup1\n  mload\n  swap1\n  0x20\n  add\n  swap1\n  tag_1\n  swap3\n  swap2\n  swap1\n  tag_2\n  jump\t// in\ntag_1:\n  pop\n    /* \"contracts/demo2.sol\":94:146  bytes public data2 = \"LEHONGVOwjnfvj3weh8vhsadfjoif\" */\n  mload(0x40)\n  dup1\n  0x40\n  add\n  0x40\n  mstore\n  dup1\n  0x1d\n  dup2\n  mstore\n  0x20\n  add\n  0x4c45484f4e47564f776a6e66766a33776568387668736164666a6f6966000000\n  dup2\n  mstore\n  pop\n  0x01\n  swap1\n  dup1\n  mload\n  swap1\n  0x20\n  add\n  swap1\n  tag_3\n  swap3\n  swap2\n  swap1\n  tag_2\n  jump\t// in\ntag_3:\n  pop\n    /* \"contracts/demo2.sol\":34:641  contract demo2 {\r... */\n  callvalue\n  dup1\n  iszero\n  tag_4\n  jumpi\n  0x00\n  dup1\n  revert\ntag_4:\n  pop\n  jump(tag_5)\ntag_2:\n  dup3\n  dup1\n  sload\n  tag_6\n  swap1\n  tag_7\n  jump\t// in\ntag_6:\n  swap1\n  0x00\n  mstore\n  keccak256(0x00, 0x20)\n  swap1\n  0x1f\n  add\n  0x20\n  swap1\n  div\n  dup2\n  add\n  swap3\n  dup3\n  tag_9\n  jumpi\n  0x00\n  dup6\n  sstore\n  jump(tag_8)\ntag_9:\n  dup3\n  0x1f\n  lt\n  tag_10\n  jumpi\n  dup1\n  mload\n  not(0xff)\n  and\n  dup4\n  dup1\n  add\n  or\n  dup6\n  sstore\n  jump(tag_8)\ntag_10:\n  dup3\n  dup1\n  add\n  0x01\n  add\n  dup6\n  sstore\n  dup3\n  iszero\n  tag_8\n  jumpi\n  swap2\n  dup3\n  add\ntag_11:\n  dup3\n  dup2\n  gt\n  iszero\n  tag_12\n  jumpi\n  dup3\n  mload\n  dup3\n  sstore\n  swap2\n  0x20\n  add\n  swap2\n  swap1\n  0x01\n  add\n  swap1\n  jump(tag_11)\ntag_12:\ntag_8:\n  pop\n  swap1\n  pop\n  tag_13\n  swap2\n  swap1\n  tag_14\n  jump\t// in\ntag_13:\n  pop\n  swap1\n  jump\t// out\ntag_14:\ntag_15:\n  dup1\n  dup3\n  gt\n  iszero\n  tag_16\n  jumpi\n  0x00\n  dup2\n  0x00\n  swap1\n  sstore\n  pop\n  0x01\n  add\n  jump(tag_15)\ntag_16:\n  pop\n  swap1\n  jump\t// out\n    /* \"#utility.yul\":7:327   */\ntag_7:\n    /* \"#utility.yul\":51:57   */\n  0x00\n    /* \"#utility.yul\":88:89   */\n  0x02\n    /* \"#utility.yul\":82:86   */\n  dup3\n    /* \"#utility.yul\":78:90   */\n  div\n    /* \"#utility.yul\":68:90   */\n  swap1\n  pop\n    /* \"#utility.yul\":135:136   */\n  0x01\n    /* \"#utility.yul\":129:133   */\n  dup3\n    /* \"#utility.yul\":125:137   */\n  and\n    /* \"#utility.yul\":156:174   */\n  dup1\n    /* \"#utility.yul\":146:227   */\n  tag_19\n  jumpi\n    /* \"#utility.yul\":212:216   */\n  0x7f\n    /* \"#utility.yul\":204:210   */\n  dup3\n    /* \"#utility.yul\":200:217   */\n  and\n    /* \"#utility.yul\":190:217   */\n  swap2\n  pop\n    /* \"#utility.yul\":146:227   */\ntag_19:\n    /* \"#utility.yul\":274:276   */\n  0x20\n    /* \"#utility.yul\":266:272   */\n  dup3\n    /* \"#utility.yul\":263:277   */\n  lt\n    /* \"#utility.yul\":243:261   */\n  dup2\n    /* \"#utility.yul\":240:278   */\n  eq\n    /* \"#utility.yul\":237:321   */\n  iszero\n  tag_20\n  jumpi\n    /* \"#utility.yul\":293:311   */\n  tag_21\n  tag_22\n  jump\t// in\ntag_21:\n    /* \"#utility.yul\":237:321   */\ntag_20:\n    /* \"#utility.yul\":58:327   */\n  pop\n    /* \"#utility.yul\":7:327   */\n  swap2\n  swap1\n  pop\n  jump\t// out\n    /* \"#utility.yul\":333:513   */\ntag_22:\n    /* \"#utility.yul\":381:458   */\n  0x4e487b7100000000000000000000000000000000000000000000000000000000\n    /* \"#utility.yul\":378:379   */\n  0x00\n    /* \"#utility.yul\":371:459   */\n  mstore\n    /* \"#utility.yul\":478:482   */\n  0x22\n    /* \"#utility.yul\":475:476   */\n  0x04\n    /* \"#utility.yul\":468:483   */\n  mstore\n    /* \"#utility.yul\":502:506   */\n  0x24\n    /* \"#utility.yul\":499:500   */\n  0x00\n    /* \"#utility.yul\":492:507   */\n  revert\n    /* \"contracts/demo2.sol\":34:641  contract demo2 {\r... */\ntag_5:\n  dataSize(sub_0)\n  dup1\n  dataOffset(sub_0)\n  0x00\n  codecopy\n  0x00\n  return\nstop\n\nsub_0: assembly {\n        /* \"contracts/demo2.sol\":34:641  contract demo2 {\r... */\n      mstore(0x40, 0x80)\n      callvalue\n      dup1\n      iszero\n      tag_1\n      jumpi\n      0x00\n      dup1\n      revert\n    tag_1:\n      pop\n      jumpi(tag_2, lt(calldatasize, 0x04))\n      shr(0xe0, calldataload(0x00))\n      dup1\n      0x9ffd85c4\n      eq\n      tag_3\n      jumpi\n      dup1\n      0xa4799acb\n      eq\n      tag_4\n      jumpi\n      dup1\n      0xe3a7fd75\n      eq\n      tag_5\n      jumpi\n    tag_2:\n      0x00\n      dup1\n      revert\n        /* \"contracts/demo2.sol\":55:88  bytes public data1 = \"NALEHONGVO\" */\n    tag_3:\n      tag_6\n      tag_7\n      jump\t// in\n    tag_6:\n      mload(0x40)\n      tag_8\n      swap2\n      swap1\n      tag_9\n      jump\t// in\n    tag_8:\n      mload(0x40)\n      dup1\n      swap2\n      sub\n      swap1\n      return\n        /* \"contracts/demo2.sol\":154:290  function getData(bytes memory _preBytes,  uint _start) public view returns(address) {\r... */\n    tag_4:\n      tag_10\n      0x04\n      dup1\n      calldatasize\n      sub\n      dup2\n      add\n      swap1\n      tag_11\n      swap2\n      swap1\n      tag_12\n      jump\t// in\n    tag_11:\n      tag_13\n      jump\t// in\n    tag_10:\n      mload(0x40)\n      tag_14\n      swap2\n      swap1\n      tag_15\n      jump\t// in\n    tag_14:\n      mload(0x40)\n      dup1\n      swap2\n      sub\n      swap1\n      return\n        /* \"contracts/demo2.sol\":94:146  bytes public data2 = \"LEHONGVOwjnfvj3weh8vhsadfjoif\" */\n    tag_5:\n      tag_16\n      tag_17\n      jump\t// in\n    tag_16:\n      mload(0x40)\n      tag_18\n      swap2\n      swap1\n      tag_9\n      jump\t// in\n    tag_18:\n      mload(0x40)\n      dup1\n      swap2\n      sub\n      swap1\n      return\n        /* \"contracts/demo2.sol\":55:88  bytes public data1 = \"NALEHONGVO\" */\n    tag_7:\n      0x00\n      dup1\n      sload\n      tag_19\n      swap1\n      tag_20\n      jump\t// in\n    tag_19:\n      dup1\n      0x1f\n      add\n      0x20\n      dup1\n      swap2\n      div\n      mul\n      0x20\n      add\n      mload(0x40)\n      swap1\n      dup2\n      add\n      0x40\n      mstore\n      dup1\n      swap3\n      swap2\n      swap1\n      dup2\n      dup2\n      mstore\n      0x20\n      add\n      dup3\n      dup1\n      sload\n      tag_21\n      swap1\n      tag_20\n      jump\t// in\n    tag_21:\n      dup1\n      iszero\n      tag_22\n      jumpi\n      dup1\n      0x1f\n      lt\n      tag_23\n      jumpi\n      0x0100\n      dup1\n      dup4\n      sload\n      div\n      mul\n      dup4\n      mstore\n      swap2\n      0x20\n      add\n      swap2\n      jump(tag_22)\n    tag_23:\n      dup3\n      add\n      swap2\n      swap1\n      0x00\n      mstore\n      keccak256(0x00, 0x20)\n      swap1\n    tag_24:\n      dup2\n      sload\n      dup2\n      mstore\n      swap1\n      0x01\n      add\n      swap1\n      0x20\n      add\n      dup1\n      dup4\n      gt\n      tag_24\n      jumpi\n      dup3\n      swap1\n      sub\n      0x1f\n      and\n      dup3\n      add\n      swap2\n    tag_22:\n      pop\n      pop\n      pop\n      pop\n      pop\n      dup2\n      jump\t// out\n        /* \"contracts/demo2.sol\":154:290  function getData(bytes memory _preBytes,  uint _start) public view returns(address) {\r... */\n    tag_13:\n        /* \"contracts/demo2.sol\":229:236  address */\n      0x00\n        /* \"contracts/demo2.sol\":255:283  toAddress(_preBytes, _start) */\n      tag_26\n        /* \"contracts/demo2.sol\":265:274  _preBytes */\n      dup4\n        /* \"contracts/demo2.sol\":276:282  _start */\n      dup4\n        /* \"contracts/demo2.sol\":255:264  toAddress */\n      tag_27\n        /* \"contracts/demo2.sol\":255:283  toAddress(_preBytes, _start) */\n      jump\t// in\n    tag_26:\n        /* \"contracts/demo2.sol\":248:283  return toAddress(_preBytes, _start) */\n      swap1\n      pop\n        /* \"contracts/demo2.sol\":154:290  function getData(bytes memory _preBytes,  uint _start) public view returns(address) {\r... */\n      swap3\n      swap2\n      pop\n      pop\n      jump\t// out\n        /* \"contracts/demo2.sol\":94:146  bytes public data2 = \"LEHONGVOwjnfvj3weh8vhsadfjoif\" */\n    tag_17:\n      0x01\n      dup1\n      sload\n      tag_28\n      swap1\n      tag_20\n      jump\t// in\n    tag_28:\n      dup1\n      0x1f\n      add\n      0x20\n      dup1\n      swap2\n      div\n      mul\n      0x20\n      add\n      mload(0x40)\n      swap1\n      dup2\n      add\n      0x40\n      mstore\n      dup1\n      swap3\n      swap2\n      swap1\n      dup2\n      dup2\n      mstore\n      0x20\n      add\n      dup3\n      dup1\n      sload\n      tag_29\n      swap1\n      tag_20\n      jump\t// in\n    tag_29:\n      dup1\n      iszero\n      tag_30\n      jumpi\n      dup1\n      0x1f\n      lt\n      tag_31\n      jumpi\n      0x0100\n      dup1\n      dup4\n      sload\n      div\n      mul\n      dup4\n      mstore\n      swap2\n      0x20\n      add\n      swap2\n      jump(tag_30)\n    tag_31:\n      dup3\n      add\n      swap2\n      swap1\n      0x00\n      mstore\n      keccak256(0x00, 0x20)\n      swap1\n    tag_32:\n      dup2\n      sload\n      dup2\n      mstore\n      swap1\n      0x01\n      add\n      swap1\n      0x20\n      add\n      dup1\n      dup4\n      gt\n      tag_32\n      jumpi\n      dup3\n      swap1\n      sub\n      0x1f\n      and\n      dup3\n      add\n      swap2\n    tag_30:\n      pop\n      pop\n      pop\n      pop\n      pop\n      dup2\n      jump\t// out\n        /* \"contracts/demo2.sol\":298:636  function toAddress(bytes memory _bytes, uint _start) internal  pure returns (address) {\r... */\n    tag_27:\n        /* \"contracts/demo2.sol\":375:382  address */\n      0x00\n        /* \"contracts/demo2.sol\":430:432  20 */\n      0x14\n        /* \"contracts/demo2.sol\":421:427  _start */\n      dup3\n        /* \"contracts/demo2.sol\":421:432  _start + 20 */\n      tag_34\n      swap2\n      swap1\n      tag_35\n      jump\t// in\n    tag_34:\n        /* \"contracts/demo2.sol\":403:409  _bytes */\n      dup4\n        /* \"contracts/demo2.sol\":403:416  _bytes.length */\n      mload\n        /* \"contracts/demo2.sol\":403:433  _bytes.length >= (_start + 20) */\n      lt\n      iszero\n        /* \"contracts/demo2.sol\":395:434  require(_bytes.length >= (_start + 20)) */\n      tag_36\n      jumpi\n      0x00\n      dup1\n      revert\n    tag_36:\n        /* \"contracts/demo2.sol\":445:464  address tempAddress */\n      0x00\n        /* \"contracts/demo2.sol\":559:586  0x1000000000000000000000000 */\n      0x01000000000000000000000000\n        /* \"contracts/demo2.sol\":549:555  _start */\n      dup4\n        /* \"contracts/demo2.sol\":542:546  0x20 */\n      0x20\n        /* \"contracts/demo2.sol\":534:540  _bytes */\n      dup7\n        /* \"contracts/demo2.sol\":530:547  add(_bytes, 0x20) */\n      add\n        /* \"contracts/demo2.sol\":526:556  add(add(_bytes, 0x20), _start) */\n      add\n        /* \"contracts/demo2.sol\":520:557  mload(add(add(_bytes, 0x20), _start)) */\n      mload\n        /* \"contracts/demo2.sol\":516:587  div(mload(add(add(_bytes, 0x20), _start)), 0x1000000000000000000000000) */\n      div\n        /* \"contracts/demo2.sol\":501:587  tempAddress := div(mload(add(add(_bytes, 0x20), _start)), 0x1000000000000000000000000) */\n      swap1\n      pop\n        /* \"contracts/demo2.sol\":617:628  tempAddress */\n      dup1\n        /* \"contracts/demo2.sol\":610:628  return tempAddress */\n      swap2\n      pop\n      pop\n        /* \"contracts/demo2.sol\":298:636  function toAddress(bytes memory _bytes, uint _start) internal  pure returns (address) {\r... */\n      swap3\n      swap2\n      pop\n      pop\n      jump\t// out\n        /* \"#utility.yul\":7:417   */\n    tag_38:\n        /* \"#utility.yul\":84:89   */\n      0x00\n        /* \"#utility.yul\":109:174   */\n      tag_40\n        /* \"#utility.yul\":125:173   */\n      tag_41\n        /* \"#utility.yul\":166:172   */\n      dup5\n        /* \"#utility.yul\":125:173   */\n      tag_42\n      jump\t// in\n    tag_41:\n        /* \"#utility.yul\":109:174   */\n      tag_43\n      jump\t// in\n    tag_40:\n        /* \"#utility.yul\":100:174   */\n      swap1\n      pop\n        /* \"#utility.yul\":197:203   */\n      dup3\n        /* \"#utility.yul\":190:195   */\n      dup2\n        /* \"#utility.yul\":183:204   */\n      mstore\n        /* \"#utility.yul\":235:239   */\n      0x20\n        /* \"#utility.yul\":228:233   */\n      dup2\n        /* \"#utility.yul\":224:240   */\n      add\n        /* \"#utility.yul\":273:276   */\n      dup5\n        /* \"#utility.yul\":264:270   */\n      dup5\n        /* \"#utility.yul\":259:262   */\n      dup5\n        /* \"#utility.yul\":255:271   */\n      add\n        /* \"#utility.yul\":252:277   */\n      gt\n        /* \"#utility.yul\":249:361   */\n      iszero\n      tag_44\n      jumpi\n        /* \"#utility.yul\":280:359   */\n      tag_45\n      tag_46\n      jump\t// in\n    tag_45:\n        /* \"#utility.yul\":249:361   */\n    tag_44:\n        /* \"#utility.yul\":370:411   */\n      tag_47\n        /* \"#utility.yul\":404:410   */\n      dup5\n        /* \"#utility.yul\":399:402   */\n      dup3\n        /* \"#utility.yul\":394:397   */\n      dup6\n        /* \"#utility.yul\":370:411   */\n      tag_48\n      jump\t// in\n    tag_47:\n        /* \"#utility.yul\":90:417   */\n      pop\n        /* \"#utility.yul\":7:417   */\n      swap4\n      swap3\n      pop\n      pop\n      pop\n      jump\t// out\n        /* \"#utility.yul\":436:774   */\n    tag_49:\n        /* \"#utility.yul\":491:496   */\n      0x00\n        /* \"#utility.yul\":540:543   */\n      dup3\n        /* \"#utility.yul\":533:537   */\n      0x1f\n        /* \"#utility.yul\":525:531   */\n      dup4\n        /* \"#utility.yul\":521:538   */\n      add\n        /* \"#utility.yul\":517:544   */\n      slt\n        /* \"#utility.yul\":507:629   */\n      tag_51\n      jumpi\n        /* \"#utility.yul\":548:627   */\n      tag_52\n      tag_53\n      jump\t// in\n    tag_52:\n        /* \"#utility.yul\":507:629   */\n    tag_51:\n        /* \"#utility.yul\":665:671   */\n      dup2\n        /* \"#utility.yul\":652:672   */\n      calldataload\n        /* \"#utility.yul\":690:768   */\n      tag_54\n        /* \"#utility.yul\":764:767   */\n      dup5\n        /* \"#utility.yul\":756:762   */\n      dup3\n        /* \"#utility.yul\":749:753   */\n      0x20\n        /* \"#utility.yul\":741:747   */\n      dup7\n        /* \"#utility.yul\":737:754   */\n      add\n        /* \"#utility.yul\":690:768   */\n      tag_38\n      jump\t// in\n    tag_54:\n        /* \"#utility.yul\":681:768   */\n      swap2\n      pop\n        /* \"#utility.yul\":497:774   */\n      pop\n        /* \"#utility.yul\":436:774   */\n      swap3\n      swap2\n      pop\n      pop\n      jump\t// out\n        /* \"#utility.yul\":780:919   */\n    tag_55:\n        /* \"#utility.yul\":826:831   */\n      0x00\n        /* \"#utility.yul\":864:870   */\n      dup2\n        /* \"#utility.yul\":851:871   */\n      calldataload\n        /* \"#utility.yul\":842:871   */\n      swap1\n      pop\n        /* \"#utility.yul\":880:913   */\n      tag_57\n        /* \"#utility.yul\":907:912   */\n      dup2\n        /* \"#utility.yul\":880:913   */\n      tag_58\n      jump\t// in\n    tag_57:\n        /* \"#utility.yul\":780:919   */\n      swap3\n      swap2\n      pop\n      pop\n      jump\t// out\n        /* \"#utility.yul\":925:1577   */\n    tag_12:\n        /* \"#utility.yul\":1002:1008   */\n      0x00\n        /* \"#utility.yul\":1010:1016   */\n      dup1\n        /* \"#utility.yul\":1059:1061   */\n      0x40\n        /* \"#utility.yul\":1047:1056   */\n      dup4\n        /* \"#utility.yul\":1038:1045   */\n      dup6\n        /* \"#utility.yul\":1034:1057   */\n      sub\n        /* \"#utility.yul\":1030:1062   */\n      slt\n        /* \"#utility.yul\":1027:1146   */\n      iszero\n      tag_60\n      jumpi\n        /* \"#utility.yul\":1065:1144   */\n      tag_61\n      tag_62\n      jump\t// in\n    tag_61:\n        /* \"#utility.yul\":1027:1146   */\n    tag_60:\n        /* \"#utility.yul\":1213:1214   */\n      0x00\n        /* \"#utility.yul\":1202:1211   */\n      dup4\n        /* \"#utility.yul\":1198:1215   */\n      add\n        /* \"#utility.yul\":1185:1216   */\n      calldataload\n        /* \"#utility.yul\":1243:1261   */\n      0xffffffffffffffff\n        /* \"#utility.yul\":1235:1241   */\n      dup2\n        /* \"#utility.yul\":1232:1262   */\n      gt\n        /* \"#utility.yul\":1229:1346   */\n      iszero\n      tag_63\n      jumpi\n        /* \"#utility.yul\":1265:1344   */\n      tag_64\n      tag_65\n      jump\t// in\n    tag_64:\n        /* \"#utility.yul\":1229:1346   */\n    tag_63:\n        /* \"#utility.yul\":1370:1432   */\n      tag_66\n        /* \"#utility.yul\":1424:1431   */\n      dup6\n        /* \"#utility.yul\":1415:1421   */\n      dup3\n        /* \"#utility.yul\":1404:1413   */\n      dup7\n        /* \"#utility.yul\":1400:1422   */\n      add\n        /* \"#utility.yul\":1370:1432   */\n      tag_49\n      jump\t// in\n    tag_66:\n        /* \"#utility.yul\":1360:1432   */\n      swap3\n      pop\n        /* \"#utility.yul\":1156:1442   */\n      pop\n        /* \"#utility.yul\":1481:1483   */\n      0x20\n        /* \"#utility.yul\":1507:1560   */\n      tag_67\n        /* \"#utility.yul\":1552:1559   */\n      dup6\n        /* \"#utility.yul\":1543:1549   */\n      dup3\n        /* \"#utility.yul\":1532:1541   */\n      dup7\n        /* \"#utility.yul\":1528:1550   */\n      add\n        /* \"#utility.yul\":1507:1560   */\n      tag_55\n      jump\t// in\n    tag_67:\n        /* \"#utility.yul\":1497:1560   */\n      swap2\n      pop\n        /* \"#utility.yul\":1452:1570   */\n      pop\n        /* \"#utility.yul\":925:1577   */\n      swap3\n      pop\n      swap3\n      swap1\n      pop\n      jump\t// out\n        /* \"#utility.yul\":1583:1701   */\n    tag_68:\n        /* \"#utility.yul\":1670:1694   */\n      tag_70\n        /* \"#utility.yul\":1688:1693   */\n      dup2\n        /* \"#utility.yul\":1670:1694   */\n      tag_71\n      jump\t// in\n    tag_70:\n        /* \"#utility.yul\":1665:1668   */\n      dup3\n        /* \"#utility.yul\":1658:1695   */\n      mstore\n        /* \"#utility.yul\":1583:1701   */\n      pop\n      pop\n      jump\t// out\n        /* \"#utility.yul\":1707:2067   */\n    tag_72:\n        /* \"#utility.yul\":1793:1796   */\n      0x00\n        /* \"#utility.yul\":1821:1859   */\n      tag_74\n        /* \"#utility.yul\":1853:1858   */\n      dup3\n        /* \"#utility.yul\":1821:1859   */\n      tag_75\n      jump\t// in\n    tag_74:\n        /* \"#utility.yul\":1875:1945   */\n      tag_76\n        /* \"#utility.yul\":1938:1944   */\n      dup2\n        /* \"#utility.yul\":1933:1936   */\n      dup6\n        /* \"#utility.yul\":1875:1945   */\n      tag_77\n      jump\t// in\n    tag_76:\n        /* \"#utility.yul\":1868:1945   */\n      swap4\n      pop\n        /* \"#utility.yul\":1954:2006   */\n      tag_78\n        /* \"#utility.yul\":1999:2005   */\n      dup2\n        /* \"#utility.yul\":1994:1997   */\n      dup6\n        /* \"#utility.yul\":1987:1991   */\n      0x20\n        /* \"#utility.yul\":1980:1985   */\n      dup7\n        /* \"#utility.yul\":1976:1992   */\n      add\n        /* \"#utility.yul\":1954:2006   */\n      tag_79\n      jump\t// in\n    tag_78:\n        /* \"#utility.yul\":2031:2060   */\n      tag_80\n        /* \"#utility.yul\":2053:2059   */\n      dup2\n        /* \"#utility.yul\":2031:2060   */\n      tag_81\n      jump\t// in\n    tag_80:\n        /* \"#utility.yul\":2026:2029   */\n      dup5\n        /* \"#utility.yul\":2022:2061   */\n      add\n        /* \"#utility.yul\":2015:2061   */\n      swap2\n      pop\n        /* \"#utility.yul\":1797:2067   */\n      pop\n        /* \"#utility.yul\":1707:2067   */\n      swap3\n      swap2\n      pop\n      pop\n      jump\t// out\n        /* \"#utility.yul\":2073:2295   */\n    tag_15:\n        /* \"#utility.yul\":2166:2170   */\n      0x00\n        /* \"#utility.yul\":2204:2206   */\n      0x20\n        /* \"#utility.yul\":2193:2202   */\n      dup3\n        /* \"#utility.yul\":2189:2207   */\n      add\n        /* \"#utility.yul\":2181:2207   */\n      swap1\n      pop\n        /* \"#utility.yul\":2217:2288   */\n      tag_83\n        /* \"#utility.yul\":2285:2286   */\n      0x00\n        /* \"#utility.yul\":2274:2283   */\n      dup4\n        /* \"#utility.yul\":2270:2287   */\n      add\n        /* \"#utility.yul\":2261:2267   */\n      dup5\n        /* \"#utility.yul\":2217:2288   */\n      tag_68\n      jump\t// in\n    tag_83:\n        /* \"#utility.yul\":2073:2295   */\n      swap3\n      swap2\n      pop\n      pop\n      jump\t// out\n        /* \"#utility.yul\":2301:2610   */\n    tag_9:\n        /* \"#utility.yul\":2412:2416   */\n      0x00\n        /* \"#utility.yul\":2450:2452   */\n      0x20\n        /* \"#utility.yul\":2439:2448   */\n      dup3\n        /* \"#utility.yul\":2435:2453   */\n      add\n        /* \"#utility.yul\":2427:2453   */\n      swap1\n      pop\n        /* \"#utility.yul\":2499:2508   */\n      dup2\n        /* \"#utility.yul\":2493:2497   */\n      dup2\n        /* \"#utility.yul\":2489:2509   */\n      sub\n        /* \"#utility.yul\":2485:2486   */\n      0x00\n        /* \"#utility.yul\":2474:2483   */\n      dup4\n        /* \"#utility.yul\":2470:2487   */\n      add\n        /* \"#utility.yul\":2463:2510   */\n      mstore\n        /* \"#utility.yul\":2527:2603   */\n      tag_85\n        /* \"#utility.yul\":2598:2602   */\n      dup2\n        /* \"#utility.yul\":2589:2595   */\n      dup5\n        /* \"#utility.yul\":2527:2603   */\n      tag_72\n      jump\t// in\n    tag_85:\n        /* \"#utility.yul\":2519:2603   */\n      swap1\n      pop\n        /* \"#utility.yul\":2301:2610   */\n      swap3\n      swap2\n      pop\n      pop\n      jump\t// out\n        /* \"#utility.yul\":2616:2745   */\n    tag_43:\n        /* \"#utility.yul\":2650:2656   */\n      0x00\n        /* \"#utility.yul\":2677:2697   */\n      tag_87\n      tag_88\n      jump\t// in\n    tag_87:\n        /* \"#utility.yul\":2667:2697   */\n      swap1\n      pop\n        /* \"#utility.yul\":2706:2739   */\n      tag_89\n        /* \"#utility.yul\":2734:2738   */\n      dup3\n        /* \"#utility.yul\":2726:2732   */\n      dup3\n        /* \"#utility.yul\":2706:2739   */\n      tag_90\n      jump\t// in\n    tag_89:\n        /* \"#utility.yul\":2616:2745   */\n      swap2\n      swap1\n      pop\n      jump\t// out\n        /* \"#utility.yul\":2751:2826   */\n    tag_88:\n        /* \"#utility.yul\":2784:2790   */\n      0x00\n        /* \"#utility.yul\":2817:2819   */\n      0x40\n        /* \"#utility.yul\":2811:2820   */\n      mload\n        /* \"#utility.yul\":2801:2820   */\n      swap1\n      pop\n        /* \"#utility.yul\":2751:2826   */\n      swap1\n      jump\t// out\n        /* \"#utility.yul\":2832:3139   */\n    tag_42:\n        /* \"#utility.yul\":2893:2897   */\n      0x00\n        /* \"#utility.yul\":2983:3001   */\n      0xffffffffffffffff\n        /* \"#utility.yul\":2975:2981   */\n      dup3\n        /* \"#utility.yul\":2972:3002   */\n      gt\n        /* \"#utility.yul\":2969:3025   */\n      iszero\n      tag_93\n      jumpi\n        /* \"#utility.yul\":3005:3023   */\n      tag_94\n      tag_95\n      jump\t// in\n    tag_94:\n        /* \"#utility.yul\":2969:3025   */\n    tag_93:\n        /* \"#utility.yul\":3043:3072   */\n      tag_96\n        /* \"#utility.yul\":3065:3071   */\n      dup3\n        /* \"#utility.yul\":3043:3072   */\n      tag_81\n      jump\t// in\n    tag_96:\n        /* \"#utility.yul\":3035:3072   */\n      swap1\n      pop\n        /* \"#utility.yul\":3127:3131   */\n      0x20\n        /* \"#utility.yul\":3121:3125   */\n      dup2\n        /* \"#utility.yul\":3117:3132   */\n      add\n        /* \"#utility.yul\":3109:3132   */\n      swap1\n      pop\n        /* \"#utility.yul\":2832:3139   */\n      swap2\n      swap1\n      pop\n      jump\t// out\n        /* \"#utility.yul\":3145:3243   */\n    tag_75:\n        /* \"#utility.yul\":3196:3202   */\n      0x00\n        /* \"#utility.yul\":3230:3235   */\n      dup2\n        /* \"#utility.yul\":3224:3236   */\n      mload\n        /* \"#utility.yul\":3214:3236   */\n      swap1\n      pop\n        /* \"#utility.yul\":3145:3243   */\n      swap2\n      swap1\n      pop\n      jump\t// out\n        /* \"#utility.yul\":3249:3417   */\n    tag_77:\n        /* \"#utility.yul\":3332:3343   */\n      0x00\n        /* \"#utility.yul\":3366:3372   */\n      dup3\n        /* \"#utility.yul\":3361:3364   */\n      dup3\n        /* \"#utility.yul\":3354:3373   */\n      mstore\n        /* \"#utility.yul\":3406:3410   */\n      0x20\n        /* \"#utility.yul\":3401:3404   */\n      dup3\n        /* \"#utility.yul\":3397:3411   */\n      add\n        /* \"#utility.yul\":3382:3411   */\n      swap1\n      pop\n        /* \"#utility.yul\":3249:3417   */\n      swap3\n      swap2\n      pop\n      pop\n      jump\t// out\n        /* \"#utility.yul\":3423:3728   */\n    tag_35:\n        /* \"#utility.yul\":3463:3466   */\n      0x00\n        /* \"#utility.yul\":3482:3502   */\n      tag_100\n        /* \"#utility.yul\":3500:3501   */\n      dup3\n        /* \"#utility.yul\":3482:3502   */\n      tag_101\n      jump\t// in\n    tag_100:\n        /* \"#utility.yul\":3477:3502   */\n      swap2\n      pop\n        /* \"#utility.yul\":3516:3536   */\n      tag_102\n        /* \"#utility.yul\":3534:3535   */\n      dup4\n        /* \"#utility.yul\":3516:3536   */\n      tag_101\n      jump\t// in\n    tag_102:\n        /* \"#utility.yul\":3511:3536   */\n      swap3\n      pop\n        /* \"#utility.yul\":3670:3671   */\n      dup3\n        /* \"#utility.yul\":3602:3668   */\n      0xffffffffffffffffffffffffffffffffffffffffffffffffffffffffffffffff\n        /* \"#utility.yul\":3598:3672   */\n      sub\n        /* \"#utility.yul\":3595:3596   */\n      dup3\n        /* \"#utility.yul\":3592:3673   */\n      gt\n        /* \"#utility.yul\":3589:3696   */\n      iszero\n      tag_103\n      jumpi\n        /* \"#utility.yul\":3676:3694   */\n      tag_104\n      tag_105\n      jump\t// in\n    tag_104:\n        /* \"#utility.yul\":3589:3696   */\n    tag_103:\n        /* \"#utility.yul\":3720:3721   */\n      dup3\n        /* \"#utility.yul\":3717:3718   */\n      dup3\n        /* \"#utility.yul\":3713:3722   */\n      add\n        /* \"#utility.yul\":3706:3722   */\n      swap1\n      pop\n        /* \"#utility.yul\":3423:3728   */\n      swap3\n      swap2\n      pop\n      pop\n      jump\t// out\n        /* \"#utility.yul\":3734:3830   */\n    tag_71:\n        /* \"#utility.yul\":3771:3778   */\n      0x00\n        /* \"#utility.yul\":3800:3824   */\n      tag_107\n        /* \"#utility.yul\":3818:3823   */\n      dup3\n        /* \"#utility.yul\":3800:3824   */\n      tag_108\n      jump\t// in\n    tag_107:\n        /* \"#utility.yul\":3789:3824   */\n      swap1\n      pop\n        /* \"#utility.yul\":3734:3830   */\n      swap2\n      swap1\n      pop\n      jump\t// out\n        /* \"#utility.yul\":3836:3962   */\n    tag_108:\n        /* \"#utility.yul\":3873:3880   */\n      0x00\n        /* \"#utility.yul\":3913:3955   */\n      0xffffffffffffffffffffffffffffffffffffffff\n        /* \"#utility.yul\":3906:3911   */\n      dup3\n        /* \"#utility.yul\":3902:3956   */\n      and\n        /* \"#utility.yul\":3891:3956   */\n      swap1\n      pop\n        /* \"#utility.yul\":3836:3962   */\n      swap2\n      swap1\n      pop\n      jump\t// out\n        /* \"#utility.yul\":3968:4045   */\n    tag_101:\n        /* \"#utility.yul\":4005:4012   */\n      0x00\n        /* \"#utility.yul\":4034:4039   */\n      dup2\n        /* \"#utility.yul\":4023:4039   */\n      swap1\n      pop\n        /* \"#utility.yul\":3968:4045   */\n      swap2\n      swap1\n      pop\n      jump\t// out\n        /* \"#utility.yul\":4051:4205   */\n    tag_48:\n        /* \"#utility.yul\":4135:4141   */\n      dup3\n        /* \"#utility.yul\":4130:4133   */\n      dup2\n        /* \"#utility.yul\":4125:4128   */\n      dup4\n        /* \"#utility.yul\":4112:4142   */\n      calldatacopy\n        /* \"#utility.yul\":4197:4198   */\n      0x00\n        /* \"#utility.yul\":4188:4194   */\n      dup4\n        /* \"#utility.yul\":4183:4186   */\n      dup4\n        /* \"#utility.yul\":4179:4195   */\n      add\n        /* \"#utility.yul\":4172:4199   */\n      mstore\n        /* \"#utility.yul\":4051:4205   */\n      pop\n      pop\n      pop\n      jump\t// out\n        /* \"#utility.yul\":4211:4518   */\n    tag_79:\n        /* \"#utility.yul\":4279:4280   */\n      0x00\n        /* \"#utility.yul\":4289:4402   */\n    tag_113:\n        /* \"#utility.yul\":4303:4309   */\n      dup4\n        /* \"#utility.yul\":4300:4301   */\n      dup2\n        /* \"#utility.yul\":4297:4310   */\n      lt\n        /* \"#utility.yul\":4289:4402   */\n      iszero\n      tag_115\n      jumpi\n        /* \"#utility.yul\":4388:4389   */\n      dup1\n        /* \"#utility.yul\":4383:4386   */\n      dup3\n        /* \"#utility.yul\":4379:4390   */\n      add\n        /* \"#utility.yul\":4373:4391   */\n      mload\n        /* \"#utility.yul\":4369:4370   */\n      dup2\n        /* \"#utility.yul\":4364:4367   */\n      dup5\n        /* \"#utility.yul\":4360:4371   */\n      add\n        /* \"#utility.yul\":4353:4392   */\n      mstore\n        /* \"#utility.yul\":4325:4327   */\n      0x20\n        /* \"#utility.yul\":4322:4323   */\n      dup2\n        /* \"#utility.yul\":4318:4328   */\n      add\n        /* \"#utility.yul\":4313:4328   */\n      swap1\n      pop\n        /* \"#utility.yul\":4289:4402   */\n      jump(tag_113)\n    tag_115:\n        /* \"#utility.yul\":4420:4426   */\n      dup4\n        /* \"#utility.yul\":4417:4418   */\n      dup2\n        /* \"#utility.yul\":4414:4427   */\n      gt\n        /* \"#utility.yul\":4411:4512   */\n      iszero\n      tag_116\n      jumpi\n        /* \"#utility.yul\":4500:4501   */\n      0x00\n        /* \"#utility.yul\":4491:4497   */\n      dup5\n        /* \"#utility.yul\":4486:4489   */\n      dup5\n        /* \"#utility.yul\":4482:4498   */\n      add\n        /* \"#utility.yul\":4475:4502   */\n      mstore\n        /* \"#utility.yul\":4411:4512   */\n    tag_116:\n        /* \"#utility.yul\":4260:4518   */\n      pop\n        /* \"#utility.yul\":4211:4518   */\n      pop\n      pop\n      pop\n      jump\t// out\n        /* \"#utility.yul\":4524:4844   */\n    tag_20:\n        /* \"#utility.yul\":4568:4574   */\n      0x00\n        /* \"#utility.yul\":4605:4606   */\n      0x02\n        /* \"#utility.yul\":4599:4603   */\n      dup3\n        /* \"#utility.yul\":4595:4607   */\n      div\n        /* \"#utility.yul\":4585:4607   */\n      swap1\n      pop\n        /* \"#utility.yul\":4652:4653   */\n      0x01\n        /* \"#utility.yul\":4646:4650   */\n      dup3\n        /* \"#utility.yul\":4642:4654   */\n      and\n        /* \"#utility.yul\":4673:4691   */\n      dup1\n        /* \"#utility.yul\":4663:4744   */\n      tag_118\n      jumpi\n        /* \"#utility.yul\":4729:4733   */\n      0x7f\n        /* \"#utility.yul\":4721:4727   */\n      dup3\n        /* \"#utility.yul\":4717:4734   */\n      and\n        /* \"#utility.yul\":4707:4734   */\n      swap2\n      pop\n        /* \"#utility.yul\":4663:4744   */\n    tag_118:\n        /* \"#utility.yul\":4791:4793   */\n      0x20\n        /* \"#utility.yul\":4783:4789   */\n      dup3\n        /* \"#utility.yul\":4780:4794   */\n      lt\n        /* \"#utility.yul\":4760:4778   */\n      dup2\n        /* \"#utility.yul\":4757:4795   */\n      eq\n        /* \"#utility.yul\":4754:4838   */\n      iszero\n      tag_119\n      jumpi\n        /* \"#utility.yul\":4810:4828   */\n      tag_120\n      tag_121\n      jump\t// in\n    tag_120:\n        /* \"#utility.yul\":4754:4838   */\n    tag_119:\n        /* \"#utility.yul\":4575:4844   */\n      pop\n        /* \"#utility.yul\":4524:4844   */\n      swap2\n      swap1\n      pop\n      jump\t// out\n        /* \"#utility.yul\":4850:5131   */\n    tag_90:\n        /* \"#utility.yul\":4933:4960   */\n      tag_123\n        /* \"#utility.yul\":4955:4959   */\n      dup3\n        /* \"#utility.yul\":4933:4960   */\n      tag_81\n      jump\t// in\n    tag_123:\n        /* \"#utility.yul\":4925:4931   */\n      dup2\n        /* \"#utility.yul\":4921:4961   */\n      add\n        /* \"#utility.yul\":5063:5069   */\n      dup2\n        /* \"#utility.yul\":5051:5061   */\n      dup2\n        /* \"#utility.yul\":5048:5070   */\n      lt\n        /* \"#utility.yul\":5027:5045   */\n      0xffffffffffffffff\n        /* \"#utility.yul\":5015:5025   */\n      dup3\n        /* \"#utility.yul\":5012:5046   */\n      gt\n        /* \"#utility.yul\":5009:5071   */\n      or\n        /* \"#utility.yul\":5006:5094   */\n      iszero\n      tag_124\n      jumpi\n        /* \"#utility.yul\":5074:5092   */\n      tag_125\n      tag_95\n      jump\t// in\n    tag_125:\n        /* \"#utility.yul\":5006:5094   */\n    tag_124:\n        /* \"#utility.yul\":5114:5124   */\n      dup1\n        /* \"#utility.yul\":5110:5112   */\n      0x40\n        /* \"#utility.yul\":5103:5125   */\n      mstore\n        /* \"#utility.yul\":4893:5131   */\n      pop\n        /* \"#utility.yul\":4850:5131   */\n      pop\n      pop\n      jump\t// out\n        /* \"#utility.yul\":5137:5317   */\n    tag_105:\n        /* \"#utility.yul\":5185:5262   */\n      0x4e487b7100000000000000000000000000000000000000000000000000000000\n        /* \"#utility.yul\":5182:5183   */\n      0x00\n        /* \"#utility.yul\":5175:5263   */\n      mstore\n        /* \"#utility.yul\":5282:5286   */\n      0x11\n        /* \"#utility.yul\":5279:5280   */\n      0x04\n        /* \"#utility.yul\":5272:5287   */\n      mstore\n        /* \"#utility.yul\":5306:5310   */\n      0x24\n        /* \"#utility.yul\":5303:5304   */\n      0x00\n        /* \"#utility.yul\":5296:5311   */\n      revert\n        /* \"#utility.yul\":5323:5503   */\n    tag_121:\n        /* \"#utility.yul\":5371:5448   */\n      0x4e487b7100000000000000000000000000000000000000000000000000000000\n        /* \"#utility.yul\":5368:5369   */\n      0x00\n        /* \"#utility.yul\":5361:5449   */\n      mstore\n        /* \"#utility.yul\":5468:5472   */\n      0x22\n        /* \"#utility.yul\":5465:5466   */\n      0x04\n        /* \"#utility.yul\":5458:5473   */\n      mstore\n        /* \"#utility.yul\":5492:5496   */\n      0x24\n        /* \"#utility.yul\":5489:5490   */\n      0x00\n        /* \"#utility.yul\":5482:5497   */\n      revert\n        /* \"#utility.yul\":5509:5689   */\n    tag_95:\n        /* \"#utility.yul\":5557:5634   */\n      0x4e487b7100000000000000000000000000000000000000000000000000000000\n        /* \"#utility.yul\":5554:5555   */\n      0x00\n        /* \"#utility.yul\":5547:5635   */\n      mstore\n        /* \"#utility.yul\":5654:5658   */\n      0x41\n        /* \"#utility.yul\":5651:5652   */\n      0x04\n        /* \"#utility.yul\":5644:5659   */\n      mstore\n        /* \"#utility.yul\":5678:5682   */\n      0x24\n        /* \"#utility.yul\":5675:5676   */\n      0x00\n        /* \"#utility.yul\":5668:5683   */\n      revert\n        /* \"#utility.yul\":5695:5812   */\n    tag_53:\n        /* \"#utility.yul\":5804:5805   */\n      0x00\n        /* \"#utility.yul\":5801:5802   */\n      dup1\n        /* \"#utility.yul\":5794:5806   */\n      revert\n        /* \"#utility.yul\":5818:5935   */\n    tag_46:\n        /* \"#utility.yul\":5927:5928   */\n      0x00\n        /* \"#utility.yul\":5924:5925   */\n      dup1\n        /* \"#utility.yul\":5917:5929   */\n      revert\n        /* \"#utility.yul\":5941:6058   */\n    tag_65:\n        /* \"#utility.yul\":6050:6051   */\n      0x00\n        /* \"#utility.yul\":6047:6048   */\n      dup1\n        /* \"#utility.yul\":6040:6052   */\n      revert\n        /* \"#utility.yul\":6064:6181   */\n    tag_62:\n        /* \"#utility.yul\":6173:6174   */\n      0x00\n        /* \"#utility.yul\":6170:6171   */\n      dup1\n        /* \"#utility.yul\":6163:6175   */\n      revert\n        /* \"#utility.yul\":6187:6289   */\n    tag_81:\n        /* \"#utility.yul\":6228:6234   */\n      0x00\n        /* \"#utility.yul\":6279:6281   */\n      0x1f\n        /* \"#utility.yul\":6275:6282   */\n      not\n        /* \"#utility.yul\":6270:6272   */\n      0x1f\n        /* \"#utility.yul\":6263:6268   */\n      dup4\n        /* \"#utility.yul\":6259:6273   */\n      add\n        /* \"#utility.yul\":6255:6283   */\n      and\n        /* \"#utility.yul\":6245:6283   */\n      swap1\n      pop\n        /* \"#utility.yul\":6187:6289   */\n      swap2\n      swap1\n      pop\n      jump\t// out\n        /* \"#utility.yul\":6295:6417   */\n    tag_58:\n        /* \"#utility.yul\":6368:6392   */\n      tag_135\n        /* \"#utility.yul\":6386:6391   */\n      dup2\n        /* \"#utility.yul\":6368:6392   */\n      tag_101\n      jump\t// in\n    tag_135:\n        /* \"#utility.yul\":6361:6366   */\n      dup2\n        /* \"#utility.yul\":6358:6393   */\n      eq\n        /* \"#utility.yul\":6348:6411   */\n      tag_136\n      jumpi\n        /* \"#utility.yul\":6407:6408   */\n      0x00\n        /* \"#utility.yul\":6404:6405   */\n      dup1\n        /* \"#utility.yul\":6397:6409   */\n      revert\n        /* \"#utility.yul\":6348:6411   */\n    tag_136:\n        /* \"#utility.yul\":6295:6417   */\n      pop\n      jump\t// out\n\n    auxdata: 0xa2646970667358221220db6f9fcdd57535a47f77aa3df7205f4a6fa16b0733dc6f4c703f21da413628d564736f6c63430008070033\n}\n",
				"bytecode": {
					"linkReferences": {},
					"object": "60806040526040518060400160405280600a81526020017f4e414c45484f4e47564f000000000000000000000000000000000000000000008152506000908051906020019061004f9291906100ae565b506040518060400160405280601d81526020017f4c45484f4e47564f776a6e66766a33776568387668736164666a6f69660000008152506001908051906020019061009b9291906100ae565b503480156100a857600080fd5b506101b2565b8280546100ba90610151565b90600052602060002090601f0160209004810192826100dc5760008555610123565b82601f106100f557805160ff1916838001178555610123565b82800160010185558215610123579182015b82811115610122578251825591602001919060010190610107565b5b5090506101309190610134565b5090565b5b8082111561014d576000816000905550600101610135565b5090565b6000600282049050600182168061016957607f821691505b6020821081141561017d5761017c610183565b5b50919050565b7f4e487b7100000000000000000000000000000000000000000000000000000000600052602260045260246000fd5b610630806101c16000396000f3fe608060405234801561001057600080fd5b50600436106100415760003560e01c80639ffd85c414610046578063a4799acb14610064578063e3a7fd7514610094575b600080fd5b61004e6100b2565b60405161005b9190610366565b60405180910390f35b61007e600480360381019061007991906102a7565b610140565b60405161008b919061034b565b60405180910390f35b61009c610154565b6040516100a99190610366565b60405180910390f35b600080546100bf906104ce565b80601f01602080910402602001604051908101604052809291908181526020018280546100eb906104ce565b80156101385780601f1061010d57610100808354040283529160200191610138565b820191906000526020600020905b81548152906001019060200180831161011b57829003601f168201915b505050505081565b600061014c83836101e2565b905092915050565b60018054610161906104ce565b80601f016020809104026020016040519081016040528092919081815260200182805461018d906104ce565b80156101da5780601f106101af576101008083540402835291602001916101da565b820191906000526020600020905b8154815290600101906020018083116101bd57829003601f168201915b505050505081565b60006014826101f191906103fa565b835110156101fe57600080fd5b60006c01000000000000000000000000836020860101510490508091505092915050565b6000610235610230846103ad565b610388565b905082815260208101848484011115610251576102506105c3565b5b61025c84828561048c565b509392505050565b600082601f830112610279576102786105be565b5b8135610289848260208601610222565b91505092915050565b6000813590506102a1816105e3565b92915050565b600080604083850312156102be576102bd6105cd565b5b600083013567ffffffffffffffff8111156102dc576102db6105c8565b5b6102e885828601610264565b92505060206102f985828601610292565b9150509250929050565b61030c81610450565b82525050565b600061031d826103de565b61032781856103e9565b935061033781856020860161049b565b610340816105d2565b840191505092915050565b60006020820190506103606000830184610303565b92915050565b600060208201905081810360008301526103808184610312565b905092915050565b60006103926103a3565b905061039e8282610500565b919050565b6000604051905090565b600067ffffffffffffffff8211156103c8576103c761058f565b5b6103d1826105d2565b9050602081019050919050565b600081519050919050565b600082825260208201905092915050565b600061040582610482565b915061041083610482565b9250827fffffffffffffffffffffffffffffffffffffffffffffffffffffffffffffffff0382111561044557610444610531565b5b828201905092915050565b600061045b82610462565b9050919050565b600073ffffffffffffffffffffffffffffffffffffffff82169050919050565b6000819050919050565b82818337600083830152505050565b60005b838110156104b957808201518184015260208101905061049e565b838111156104c8576000848401525b50505050565b600060028204905060018216806104e657607f821691505b602082108114156104fa576104f9610560565b5b50919050565b610509826105d2565b810181811067ffffffffffffffff821117156105285761052761058f565b5b80604052505050565b7f4e487b7100000000000000000000000000000000000000000000000000000000600052601160045260246000fd5b7f4e487b7100000000000000000000000000000000000000000000000000000000600052602260045260246000fd5b7f4e487b7100000000000000000000000000000000000000000000000000000000600052604160045260246000fd5b600080fd5b600080fd5b600080fd5b600080fd5b6000601f19601f8301169050919050565b6105ec81610482565b81146105f757600080fd5b5056fea2646970667358221220db6f9fcdd57535a47f77aa3df7205f4a6fa16b0733dc6f4c703f21da413628d564736f6c63430008070033",
					"opcodes": "PUSH1 0x80 PUSH1 0x40 MSTORE PUSH1 0x40 MLOAD DUP1 PUSH1 0x40 ADD PUSH1 0x40 MSTORE DUP1 PUSH1 0xA DUP2 MSTORE PUSH1 0x20 ADD PUSH32 0x4E414C45484F4E47564F00000000000000000000000000000000000000000000 DUP2 MSTORE POP PUSH1 0x0 SWAP1 DUP1 MLOAD SWAP1 PUSH1 0x20 ADD SWAP1 PUSH2 0x4F SWAP3 SWAP2 SWAP1 PUSH2 0xAE JUMP JUMPDEST POP PUSH1 0x40 MLOAD DUP1 PUSH1 0x40 ADD PUSH1 0x40 MSTORE DUP1 PUSH1 0x1D DUP2 MSTORE PUSH1 0x20 ADD PUSH32 0x4C45484F4E47564F776A6E66766A33776568387668736164666A6F6966000000 DUP2 MSTORE POP PUSH1 0x1 SWAP1 DUP1 MLOAD SWAP1 PUSH1 0x20 ADD SWAP1 PUSH2 0x9B SWAP3 SWAP2 SWAP1 PUSH2 0xAE JUMP JUMPDEST POP CALLVALUE DUP1 ISZERO PUSH2 0xA8 JUMPI PUSH1 0x0 DUP1 REVERT JUMPDEST POP PUSH2 0x1B2 JUMP JUMPDEST DUP3 DUP1 SLOAD PUSH2 0xBA SWAP1 PUSH2 0x151 JUMP JUMPDEST SWAP1 PUSH1 0x0 MSTORE PUSH1 0x20 PUSH1 0x0 KECCAK256 SWAP1 PUSH1 0x1F ADD PUSH1 0x20 SWAP1 DIV DUP2 ADD SWAP3 DUP3 PUSH2 0xDC JUMPI PUSH1 0x0 DUP6 SSTORE PUSH2 0x123 JUMP JUMPDEST DUP3 PUSH1 0x1F LT PUSH2 0xF5 JUMPI DUP1 MLOAD PUSH1 0xFF NOT AND DUP4 DUP1 ADD OR DUP6 SSTORE PUSH2 0x123 JUMP JUMPDEST DUP3 DUP1 ADD PUSH1 0x1 ADD DUP6 SSTORE DUP3 ISZERO PUSH2 0x123 JUMPI SWAP2 DUP3 ADD JUMPDEST DUP3 DUP2 GT ISZERO PUSH2 0x122 JUMPI DUP3 MLOAD DUP3 SSTORE SWAP2 PUSH1 0x20 ADD SWAP2 SWAP1 PUSH1 0x1 ADD SWAP1 PUSH2 0x107 JUMP JUMPDEST JUMPDEST POP SWAP1 POP PUSH2 0x130 SWAP2 SWAP1 PUSH2 0x134 JUMP JUMPDEST POP SWAP1 JUMP JUMPDEST JUMPDEST DUP1 DUP3 GT ISZERO PUSH2 0x14D JUMPI PUSH1 0x0 DUP2 PUSH1 0x0 SWAP1 SSTORE POP PUSH1 0x1 ADD PUSH2 0x135 JUMP JUMPDEST POP SWAP1 JUMP JUMPDEST PUSH1 0x0 PUSH1 0x2 DUP3 DIV SWAP1 POP PUSH1 0x1 DUP3 AND DUP1 PUSH2 0x169 JUMPI PUSH1 0x7F DUP3 AND SWAP2 POP JUMPDEST PUSH1 0x20 DUP3 LT DUP2 EQ ISZERO PUSH2 0x17D JUMPI PUSH2 0x17C PUSH2 0x183 JUMP JUMPDEST JUMPDEST POP SWAP2 SWAP1 POP JUMP JUMPDEST PUSH32 0x4E487B7100000000000000000000000000000000000000000000000000000000 PUSH1 0x0 MSTORE PUSH1 0x22 PUSH1 0x4 MSTORE PUSH1 0x24 PUSH1 0x0 REVERT JUMPDEST PUSH2 0x630 DUP1 PUSH2 0x1C1 PUSH1 0x0 CODECOPY PUSH1 0x0 RETURN INVALID PUSH1 0x80 PUSH1 0x40 MSTORE CALLVALUE DUP1 ISZERO PUSH2 0x10 JUMPI PUSH1 0x0 DUP1 REVERT JUMPDEST POP PUSH1 0x4 CALLDATASIZE LT PUSH2 0x41 JUMPI PUSH1 0x0 CALLDATALOAD PUSH1 0xE0 SHR DUP1 PUSH4 0x9FFD85C4 EQ PUSH2 0x46 JUMPI DUP1 PUSH4 0xA4799ACB EQ PUSH2 0x64 JUMPI DUP1 PUSH4 0xE3A7FD75 EQ PUSH2 0x94 JUMPI JUMPDEST PUSH1 0x0 DUP1 REVERT JUMPDEST PUSH2 0x4E PUSH2 0xB2 JUMP JUMPDEST PUSH1 0x40 MLOAD PUSH2 0x5B SWAP2 SWAP1 PUSH2 0x366 JUMP JUMPDEST PUSH1 0x40 MLOAD DUP1 SWAP2 SUB SWAP1 RETURN JUMPDEST PUSH2 0x7E PUSH1 0x4 DUP1 CALLDATASIZE SUB DUP2 ADD SWAP1 PUSH2 0x79 SWAP2 SWAP1 PUSH2 0x2A7 JUMP JUMPDEST PUSH2 0x140 JUMP JUMPDEST PUSH1 0x40 MLOAD PUSH2 0x8B SWAP2 SWAP1 PUSH2 0x34B JUMP JUMPDEST PUSH1 0x40 MLOAD DUP1 SWAP2 SUB SWAP1 RETURN JUMPDEST PUSH2 0x9C PUSH2 0x154 JUMP JUMPDEST PUSH1 0x40 MLOAD PUSH2 0xA9 SWAP2 SWAP1 PUSH2 0x366 JUMP JUMPDEST PUSH1 0x40 MLOAD DUP1 SWAP2 SUB SWAP1 RETURN JUMPDEST PUSH1 0x0 DUP1 SLOAD PUSH2 0xBF SWAP1 PUSH2 0x4CE JUMP JUMPDEST DUP1 PUSH1 0x1F ADD PUSH1 0x20 DUP1 SWAP2 DIV MUL PUSH1 0x20 ADD PUSH1 0x40 MLOAD SWAP1 DUP2 ADD PUSH1 0x40 MSTORE DUP1 SWAP3 SWAP2 SWAP1 DUP2 DUP2 MSTORE PUSH1 0x20 ADD DUP3 DUP1 SLOAD PUSH2 0xEB SWAP1 PUSH2 0x4CE JUMP JUMPDEST DUP1 ISZERO PUSH2 0x138 JUMPI DUP1 PUSH1 0x1F LT PUSH2 0x10D JUMPI PUSH2 0x100 DUP1 DUP4 SLOAD DIV MUL DUP4 MSTORE SWAP2 PUSH1 0x20 ADD SWAP2 PUSH2 0x138 JUMP JUMPDEST DUP3 ADD SWAP2 SWAP1 PUSH1 0x0 MSTORE PUSH1 0x20 PUSH1 0x0 KECCAK256 SWAP1 JUMPDEST DUP2 SLOAD DUP2 MSTORE SWAP1 PUSH1 0x1 ADD SWAP1 PUSH1 0x20 ADD DUP1 DUP4 GT PUSH2 0x11B JUMPI DUP3 SWAP1 SUB PUSH1 0x1F AND DUP3 ADD SWAP2 JUMPDEST POP POP POP POP POP DUP2 JUMP JUMPDEST PUSH1 0x0 PUSH2 0x14C DUP4 DUP4 PUSH2 0x1E2 JUMP JUMPDEST SWAP1 POP SWAP3 SWAP2 POP POP JUMP JUMPDEST PUSH1 0x1 DUP1 SLOAD PUSH2 0x161 SWAP1 PUSH2 0x4CE JUMP JUMPDEST DUP1 PUSH1 0x1F ADD PUSH1 0x20 DUP1 SWAP2 DIV MUL PUSH1 0x20 ADD PUSH1 0x40 MLOAD SWAP1 DUP2 ADD PUSH1 0x40 MSTORE DUP1 SWAP3 SWAP2 SWAP1 DUP2 DUP2 MSTORE PUSH1 0x20 ADD DUP3 DUP1 SLOAD PUSH2 0x18D SWAP1 PUSH2 0x4CE JUMP JUMPDEST DUP1 ISZERO PUSH2 0x1DA JUMPI DUP1 PUSH1 0x1F LT PUSH2 0x1AF JUMPI PUSH2 0x100 DUP1 DUP4 SLOAD DIV MUL DUP4 MSTORE SWAP2 PUSH1 0x20 ADD SWAP2 PUSH2 0x1DA JUMP JUMPDEST DUP3 ADD SWAP2 SWAP1 PUSH1 0x0 MSTORE PUSH1 0x20 PUSH1 0x0 KECCAK256 SWAP1 JUMPDEST DUP2 SLOAD DUP2 MSTORE SWAP1 PUSH1 0x1 ADD SWAP1 PUSH1 0x20 ADD DUP1 DUP4 GT PUSH2 0x1BD JUMPI DUP3 SWAP1 SUB PUSH1 0x1F AND DUP3 ADD SWAP2 JUMPDEST POP POP POP POP POP DUP2 JUMP JUMPDEST PUSH1 0x0 PUSH1 0x14 DUP3 PUSH2 0x1F1 SWAP2 SWAP1 PUSH2 0x3FA JUMP JUMPDEST DUP4 MLOAD LT ISZERO PUSH2 0x1FE JUMPI PUSH1 0x0 DUP1 REVERT JUMPDEST PUSH1 0x0 PUSH13 0x1000000000000000000000000 DUP4 PUSH1 0x20 DUP7 ADD ADD MLOAD DIV SWAP1 POP DUP1 SWAP2 POP POP SWAP3 SWAP2 POP POP JUMP JUMPDEST PUSH1 0x0 PUSH2 0x235 PUSH2 0x230 DUP5 PUSH2 0x3AD JUMP JUMPDEST PUSH2 0x388 JUMP JUMPDEST SWAP1 POP DUP3 DUP2 MSTORE PUSH1 0x20 DUP2 ADD DUP5 DUP5 DUP5 ADD GT ISZERO PUSH2 0x251 JUMPI PUSH2 0x250 PUSH2 0x5C3 JUMP JUMPDEST JUMPDEST PUSH2 0x25C DUP5 DUP3 DUP6 PUSH2 0x48C JUMP JUMPDEST POP SWAP4 SWAP3 POP POP POP JUMP JUMPDEST PUSH1 0x0 DUP3 PUSH1 0x1F DUP4 ADD SLT PUSH2 0x279 JUMPI PUSH2 0x278 PUSH2 0x5BE JUMP JUMPDEST JUMPDEST DUP2 CALLDATALOAD PUSH2 0x289 DUP5 DUP3 PUSH1 0x20 DUP7 ADD PUSH2 0x222 JUMP JUMPDEST SWAP2 POP POP SWAP3 SWAP2 POP POP JUMP JUMPDEST PUSH1 0x0 DUP2 CALLDATALOAD SWAP1 POP PUSH2 0x2A1 DUP2 PUSH2 0x5E3 JUMP JUMPDEST SWAP3 SWAP2 POP POP JUMP JUMPDEST PUSH1 0x0 DUP1 PUSH1 0x40 DUP4 DUP6 SUB SLT ISZERO PUSH2 0x2BE JUMPI PUSH2 0x2BD PUSH2 0x5CD JUMP JUMPDEST JUMPDEST PUSH1 0x0 DUP4 ADD CALLDATALOAD PUSH8 0xFFFFFFFFFFFFFFFF DUP2 GT ISZERO PUSH2 0x2DC JUMPI PUSH2 0x2DB PUSH2 0x5C8 JUMP JUMPDEST JUMPDEST PUSH2 0x2E8 DUP6 DUP3 DUP7 ADD PUSH2 0x264 JUMP JUMPDEST SWAP3 POP POP PUSH1 0x20 PUSH2 0x2F9 DUP6 DUP3 DUP7 ADD PUSH2 0x292 JUMP JUMPDEST SWAP2 POP POP SWAP3 POP SWAP3 SWAP1 POP JUMP JUMPDEST PUSH2 0x30C DUP2 PUSH2 0x450 JUMP JUMPDEST DUP3 MSTORE POP POP JUMP JUMPDEST PUSH1 0x0 PUSH2 0x31D DUP3 PUSH2 0x3DE JUMP JUMPDEST PUSH2 0x327 DUP2 DUP6 PUSH2 0x3E9 JUMP JUMPDEST SWAP4 POP PUSH2 0x337 DUP2 DUP6 PUSH1 0x20 DUP7 ADD PUSH2 0x49B JUMP JUMPDEST PUSH2 0x340 DUP2 PUSH2 0x5D2 JUMP JUMPDEST DUP5 ADD SWAP2 POP POP SWAP3 SWAP2 POP POP JUMP JUMPDEST PUSH1 0x0 PUSH1 0x20 DUP3 ADD SWAP1 POP PUSH2 0x360 PUSH1 0x0 DUP4 ADD DUP5 PUSH2 0x303 JUMP JUMPDEST SWAP3 SWAP2 POP POP JUMP JUMPDEST PUSH1 0x0 PUSH1 0x20 DUP3 ADD SWAP1 POP DUP2 DUP2 SUB PUSH1 0x0 DUP4 ADD MSTORE PUSH2 0x380 DUP2 DUP5 PUSH2 0x312 JUMP JUMPDEST SWAP1 POP SWAP3 SWAP2 POP POP JUMP JUMPDEST PUSH1 0x0 PUSH2 0x392 PUSH2 0x3A3 JUMP JUMPDEST SWAP1 POP PUSH2 0x39E DUP3 DUP3 PUSH2 0x500 JUMP JUMPDEST SWAP2 SWAP1 POP JUMP JUMPDEST PUSH1 0x0 PUSH1 0x40 MLOAD SWAP1 POP SWAP1 JUMP JUMPDEST PUSH1 0x0 PUSH8 0xFFFFFFFFFFFFFFFF DUP3 GT ISZERO PUSH2 0x3C8 JUMPI PUSH2 0x3C7 PUSH2 0x58F JUMP JUMPDEST JUMPDEST PUSH2 0x3D1 DUP3 PUSH2 0x5D2 JUMP JUMPDEST SWAP1 POP PUSH1 0x20 DUP2 ADD SWAP1 POP SWAP2 SWAP1 POP JUMP JUMPDEST PUSH1 0x0 DUP2 MLOAD SWAP1 POP SWAP2 SWAP1 POP JUMP JUMPDEST PUSH1 0x0 DUP3 DUP3 MSTORE PUSH1 0x20 DUP3 ADD SWAP1 POP SWAP3 SWAP2 POP POP JUMP JUMPDEST PUSH1 0x0 PUSH2 0x405 DUP3 PUSH2 0x482 JUMP JUMPDEST SWAP2 POP PUSH2 0x410 DUP4 PUSH2 0x482 JUMP JUMPDEST SWAP3 POP DUP3 PUSH32 0xFFFFFFFFFFFFFFFFFFFFFFFFFFFFFFFFFFFFFFFFFFFFFFFFFFFFFFFFFFFFFFFF SUB DUP3 GT ISZERO PUSH2 0x445 JUMPI PUSH2 0x444 PUSH2 0x531 JUMP JUMPDEST JUMPDEST DUP3 DUP3 ADD SWAP1 POP SWAP3 SWAP2 POP POP JUMP JUMPDEST PUSH1 0x0 PUSH2 0x45B DUP3 PUSH2 0x462 JUMP JUMPDEST SWAP1 POP SWAP2 SWAP1 POP JUMP JUMPDEST PUSH1 0x0 PUSH20 0xFFFFFFFFFFFFFFFFFFFFFFFFFFFFFFFFFFFFFFFF DUP3 AND SWAP1 POP SWAP2 SWAP1 POP JUMP JUMPDEST PUSH1 0x0 DUP2 SWAP1 POP SWAP2 SWAP1 POP JUMP JUMPDEST DUP3 DUP2 DUP4 CALLDATACOPY PUSH1 0x0 DUP4 DUP4 ADD MSTORE POP POP POP JUMP JUMPDEST PUSH1 0x0 JUMPDEST DUP4 DUP2 LT ISZERO PUSH2 0x4B9 JUMPI DUP1 DUP3 ADD MLOAD DUP2 DUP5 ADD MSTORE PUSH1 0x20 DUP2 ADD SWAP1 POP PUSH2 0x49E JUMP JUMPDEST DUP4 DUP2 GT ISZERO PUSH2 0x4C8 JUMPI PUSH1 0x0 DUP5 DUP5 ADD MSTORE JUMPDEST POP POP POP POP JUMP JUMPDEST PUSH1 0x0 PUSH1 0x2 DUP3 DIV SWAP1 POP PUSH1 0x1 DUP3 AND DUP1 PUSH2 0x4E6 JUMPI PUSH1 0x7F DUP3 AND SWAP2 POP JUMPDEST PUSH1 0x20 DUP3 LT DUP2 EQ ISZERO PUSH2 0x4FA JUMPI PUSH2 0x4F9 PUSH2 0x560 JUMP JUMPDEST JUMPDEST POP SWAP2 SWAP1 POP JUMP JUMPDEST PUSH2 0x509 DUP3 PUSH2 0x5D2 JUMP JUMPDEST DUP2 ADD DUP2 DUP2 LT PUSH8 0xFFFFFFFFFFFFFFFF DUP3 GT OR ISZERO PUSH2 0x528 JUMPI PUSH2 0x527 PUSH2 0x58F JUMP JUMPDEST JUMPDEST DUP1 PUSH1 0x40 MSTORE POP POP POP JUMP JUMPDEST PUSH32 0x4E487B7100000000000000000000000000000000000000000000000000000000 PUSH1 0x0 MSTORE PUSH1 0x11 PUSH1 0x4 MSTORE PUSH1 0x24 PUSH1 0x0 REVERT JUMPDEST PUSH32 0x4E487B7100000000000000000000000000000000000000000000000000000000 PUSH1 0x0 MSTORE PUSH1 0x22 PUSH1 0x4 MSTORE PUSH1 0x24 PUSH1 0x0 REVERT JUMPDEST PUSH32 0x4E487B7100000000000000000000000000000000000000000000000000000000 PUSH1 0x0 MSTORE PUSH1 0x41 PUSH1 0x4 MSTORE PUSH1 0x24 PUSH1 0x0 REVERT JUMPDEST PUSH1 0x0 DUP1 REVERT JUMPDEST PUSH1 0x0 DUP1 REVERT JUMPDEST PUSH1 0x0 DUP1 REVERT JUMPDEST PUSH1 0x0 DUP1 REVERT JUMPDEST PUSH1 0x0 PUSH1 0x1F NOT PUSH1 0x1F DUP4 ADD AND SWAP1 POP SWAP2 SWAP1 POP JUMP JUMPDEST PUSH2 0x5EC DUP2 PUSH2 0x482 JUMP JUMPDEST DUP2 EQ PUSH2 0x5F7 JUMPI PUSH1 0x0 DUP1 REVERT JUMPDEST POP JUMP INVALID LOG2 PUSH5 0x6970667358 0x22 SLT KECCAK256 0xDB PUSH16 0x9FCDD57535A47F77AA3DF7205F4A6FA1 PUSH12 0x733DC6F4C703F21DA413628 0xD5 PUSH5 0x736F6C6343 STOP ADDMOD SMOD STOP CALLER "
				},
				"gasEstimates": {
					"creation": {
						"codeDepositCost": "316800",
						"executionCost": "infinite",
						"totalCost": "infinite"
					},
					"external": {
						"data1()": "infinite",
						"data2()": "infinite",
						"getData(bytes,uint256)": "infinite"
					},
					"internal": {
						"toAddress(bytes memory,uint256)": "infinite"
					}
				},
				"methodIdentifiers": {
					"data1()": "9ffd85c4",
					"data2()": "e3a7fd75",
					"getData(bytes,uint256)": "a4799acb"
				}
			},
			"userdoc": {
				"kind": "user",
				"methods": {},
				"version": 1
			}
		}
	}
}