{
	"contracts/demo1.sol": {
		"CmnPkg": {
			"abi": [
				{
					"constant": true,
					"inputs": [],
					"name": "CROSS_CHAIN_KEY_PREFIX",
					"outputs": [
						{
							"internalType": "uint256",
							"name": "",
							"type": "uint256"
						}
					],
					"payable": false,
					"stateMutability": "view",
					"type": "function"
				},
				{
					"constant": true,
					"inputs": [],
					"name": "data2",
					"outputs": [
						{
							"internalType": "uint64",
							"name": "",
							"type": "uint64"
						}
					],
					"payable": false,
					"stateMutability": "view",
					"type": "function"
				},
				{
					"constant": true,
					"inputs": [],
					"name": "data3",
					"outputs": [
						{
							"internalType": "uint8",
							"name": "",
							"type": "uint8"
						}
					],
					"payable": false,
					"stateMutability": "view",
					"type": "function"
				},
				{
					"constant": true,
					"inputs": [
						{
							"internalType": "uint64",
							"name": "_sequence",
							"type": "uint64"
						},
						{
							"internalType": "uint8",
							"name": "_channelID",
							"type": "uint8"
						}
					],
					"name": "getGeratekey",
					"outputs": [
						{
							"internalType": "bytes",
							"name": "",
							"type": "bytes"
						}
					],
					"payable": false,
					"stateMutability": "view",
					"type": "function"
				}
			],
			"devdoc": {
				"methods": {}
			},
			"evm": {
				"assembly": "    /* \"contracts/demo1.sol\":60:1637  contract CmnPkg {\r... */\n  mstore(0x40, 0x80)\n    /* \"contracts/demo1.sol\":173:177  3345 */\n  0x0d11\n    /* \"contracts/demo1.sol\":151:177  uint64 public data2 = 3345 */\n  0x00\n  dup1\n  0x0100\n  exp\n  dup2\n  sload\n  dup2\n  0xffffffffffffffff\n  mul\n  not\n  and\n  swap1\n  dup4\n  0xffffffffffffffff\n  and\n  mul\n  or\n  swap1\n  sstore\n  pop\n    /* \"contracts/demo1.sol\":205:207  30 */\n  0x1e\n    /* \"contracts/demo1.sol\":184:207  uint8 public data3 = 30 */\n  0x00\n  exp(0x0100, 0x08)\n  dup2\n  sload\n  dup2\n  0xff\n  mul\n  not\n  and\n  swap1\n  dup4\n  0xff\n  and\n  mul\n  or\n  swap1\n  sstore\n  pop\n    /* \"contracts/demo1.sol\":60:1637  contract CmnPkg {\r... */\n  callvalue\n    /* \"--CODEGEN--\":8:17   */\n  dup1\n    /* \"--CODEGEN--\":5:7   */\n  iszero\n  tag_1\n  jumpi\n    /* \"--CODEGEN--\":30:31   */\n  0x00\n    /* \"--CODEGEN--\":27:28   */\n  dup1\n    /* \"--CODEGEN--\":20:32   */\n  revert\n    /* \"--CODEGEN--\":5:7   */\ntag_1:\n    /* \"contracts/demo1.sol\":60:1637  contract CmnPkg {\r... */\n  pop\n  dataSize(sub_0)\n  dup1\n  dataOffset(sub_0)\n  0x00\n  codecopy\n  0x00\n  return\nstop\n\nsub_0: assembly {\n        /* \"contracts/demo1.sol\":60:1637  contract CmnPkg {\r... */\n      mstore(0x40, 0x80)\n      callvalue\n        /* \"--CODEGEN--\":8:17   */\n      dup1\n        /* \"--CODEGEN--\":5:7   */\n      iszero\n      tag_1\n      jumpi\n        /* \"--CODEGEN--\":30:31   */\n      0x00\n        /* \"--CODEGEN--\":27:28   */\n      dup1\n        /* \"--CODEGEN--\":20:32   */\n      revert\n        /* \"--CODEGEN--\":5:7   */\n    tag_1:\n        /* \"contracts/demo1.sol\":60:1637  contract CmnPkg {\r... */\n      pop\n      jumpi(tag_2, lt(calldatasize, 0x04))\n      shr(0xe0, calldataload(0x00))\n      dup1\n      0x73da6c22\n      eq\n      tag_3\n      jumpi\n      dup1\n      0x863fe4ab\n      eq\n      tag_4\n      jumpi\n      dup1\n      0xe3a7fd75\n      eq\n      tag_5\n      jumpi\n      dup1\n      0xfc26b0ab\n      eq\n      tag_6\n      jumpi\n    tag_2:\n      0x00\n      dup1\n      revert\n        /* \"contracts/demo1.sol\":222:372  function getGeratekey(uint64 _sequence, uint8 _channelID) public view returns(bytes memory){\r... */\n    tag_3:\n      tag_7\n      0x04\n      dup1\n      calldatasize\n      sub\n        /* \"--CODEGEN--\":13:15   */\n      0x40\n        /* \"--CODEGEN--\":8:11   */\n      dup2\n        /* \"--CODEGEN--\":5:16   */\n      lt\n        /* \"--CODEGEN--\":2:4   */\n      iszero\n      tag_8\n      jumpi\n        /* \"--CODEGEN--\":29:30   */\n      0x00\n        /* \"--CODEGEN--\":26:27   */\n      dup1\n        /* \"--CODEGEN--\":19:31   */\n      revert\n        /* \"--CODEGEN--\":2:4   */\n    tag_8:\n        /* \"contracts/demo1.sol\":222:372  function getGeratekey(uint64 _sequence, uint8 _channelID) public view returns(bytes memory){\r... */\n      dup2\n      add\n      swap1\n      dup1\n      dup1\n      calldataload\n      0xffffffffffffffff\n      and\n      swap1\n      0x20\n      add\n      swap1\n      swap3\n      swap2\n      swap1\n      dup1\n      calldataload\n      0xff\n      and\n      swap1\n      0x20\n      add\n      swap1\n      swap3\n      swap2\n      swap1\n      pop\n      pop\n      pop\n      tag_9\n      jump\t// in\n    tag_7:\n      mload(0x40)\n      dup1\n      dup1\n      0x20\n      add\n      dup3\n      dup2\n      sub\n      dup3\n      mstore\n      dup4\n      dup2\n      dup2\n      mload\n      dup2\n      mstore\n      0x20\n      add\n      swap2\n      pop\n      dup1\n      mload\n      swap1\n      0x20\n      add\n      swap1\n      dup1\n      dup4\n      dup4\n        /* \"--CODEGEN--\":23:24   */\n      0x00\n        /* \"--CODEGEN--\":8:108   */\n    tag_10:\n        /* \"--CODEGEN--\":33:36   */\n      dup4\n        /* \"--CODEGEN--\":30:31   */\n      dup2\n        /* \"--CODEGEN--\":27:37   */\n      lt\n        /* \"--CODEGEN--\":8:108   */\n      iszero\n      tag_12\n      jumpi\n        /* \"--CODEGEN--\":99:100   */\n      dup1\n        /* \"--CODEGEN--\":94:97   */\n      dup3\n        /* \"--CODEGEN--\":90:101   */\n      add\n        /* \"--CODEGEN--\":84:102   */\n      mload\n        /* \"--CODEGEN--\":80:81   */\n      dup2\n        /* \"--CODEGEN--\":75:78   */\n      dup5\n        /* \"--CODEGEN--\":71:82   */\n      add\n        /* \"--CODEGEN--\":64:103   */\n      mstore\n        /* \"--CODEGEN--\":52:54   */\n      0x20\n        /* \"--CODEGEN--\":49:50   */\n      dup2\n        /* \"--CODEGEN--\":45:55   */\n      add\n        /* \"--CODEGEN--\":40:55   */\n      swap1\n      pop\n        /* \"--CODEGEN--\":8:108   */\n      jump(tag_10)\n    tag_12:\n        /* \"--CODEGEN--\":12:26   */\n      pop\n        /* \"contracts/demo1.sol\":222:372  function getGeratekey(uint64 _sequence, uint8 _channelID) public view returns(bytes memory){\r... */\n      pop\n      pop\n      pop\n      swap1\n      pop\n      swap1\n      dup2\n      add\n      swap1\n      0x1f\n      and\n      dup1\n      iszero\n      tag_13\n      jumpi\n      dup1\n      dup3\n      sub\n      dup1\n      mload\n      0x01\n      dup4\n      0x20\n      sub\n      0x0100\n      exp\n      sub\n      not\n      and\n      dup2\n      mstore\n      0x20\n      add\n      swap2\n      pop\n    tag_13:\n      pop\n      swap3\n      pop\n      pop\n      pop\n      mload(0x40)\n      dup1\n      swap2\n      sub\n      swap1\n      return\n        /* \"contracts/demo1.sol\":83:142  uint256 constant public CROSS_CHAIN_KEY_PREFIX = 0x01006000 */\n    tag_4:\n      tag_14\n      tag_15\n      jump\t// in\n    tag_14:\n      mload(0x40)\n      dup1\n      dup3\n      dup2\n      mstore\n      0x20\n      add\n      swap2\n      pop\n      pop\n      mload(0x40)\n      dup1\n      swap2\n      sub\n      swap1\n      return\n        /* \"contracts/demo1.sol\":151:177  uint64 public data2 = 3345 */\n    tag_5:\n      tag_16\n      tag_17\n      jump\t// in\n    tag_16:\n      mload(0x40)\n      dup1\n      dup3\n      0xffffffffffffffff\n      and\n      0xffffffffffffffff\n      and\n      dup2\n      mstore\n      0x20\n      add\n      swap2\n      pop\n      pop\n      mload(0x40)\n      dup1\n      swap2\n      sub\n      swap1\n      return\n        /* \"contracts/demo1.sol\":184:207  uint8 public data3 = 30 */\n    tag_6:\n      tag_18\n      tag_19\n      jump\t// in\n    tag_18:\n      mload(0x40)\n      dup1\n      dup3\n      0xff\n      and\n      0xff\n      and\n      dup2\n      mstore\n      0x20\n      add\n      swap2\n      pop\n      pop\n      mload(0x40)\n      dup1\n      swap2\n      sub\n      swap1\n      return\n        /* \"contracts/demo1.sol\":222:372  function getGeratekey(uint64 _sequence, uint8 _channelID) public view returns(bytes memory){\r... */\n    tag_9:\n        /* \"contracts/demo1.sol\":300:312  bytes memory */\n      0x60\n        /* \"contracts/demo1.sol\":331:364  generateKey(_sequence,_channelID) */\n      tag_21\n        /* \"contracts/demo1.sol\":343:352  _sequence */\n      dup4\n        /* \"contracts/demo1.sol\":353:363  _channelID */\n      dup4\n        /* \"contracts/demo1.sol\":331:342  generateKey */\n      tag_22\n        /* \"contracts/demo1.sol\":331:364  generateKey(_sequence,_channelID) */\n      jump\t// in\n    tag_21:\n        /* \"contracts/demo1.sol\":324:364  return generateKey(_sequence,_channelID) */\n      swap1\n      pop\n        /* \"contracts/demo1.sol\":222:372  function getGeratekey(uint64 _sequence, uint8 _channelID) public view returns(bytes memory){\r... */\n      swap3\n      swap2\n      pop\n      pop\n      jump\t// out\n        /* \"contracts/demo1.sol\":83:142  uint256 constant public CROSS_CHAIN_KEY_PREFIX = 0x01006000 */\n    tag_15:\n        /* \"contracts/demo1.sol\":132:142  0x01006000 */\n      0x01006000\n        /* \"contracts/demo1.sol\":83:142  uint256 constant public CROSS_CHAIN_KEY_PREFIX = 0x01006000 */\n      dup2\n      jump\t// out\n        /* \"contracts/demo1.sol\":151:177  uint64 public data2 = 3345 */\n    tag_17:\n      0x00\n      dup1\n      swap1\n      sload\n      swap1\n      0x0100\n      exp\n      swap1\n      div\n      0xffffffffffffffff\n      and\n      dup2\n      jump\t// out\n        /* \"contracts/demo1.sol\":184:207  uint8 public data3 = 30 */\n    tag_19:\n      0x00\n      0x08\n      swap1\n      sload\n      swap1\n      0x0100\n      exp\n      swap1\n      div\n      0xff\n      and\n      dup2\n      jump\t// out\n        /* \"contracts/demo1.sol\":380:947  function generateKey(uint64 _sequence, uint8 _channelID) internal pure returns(bytes memory) {\r... */\n    tag_22:\n        /* \"contracts/demo1.sol\":459:471  bytes memory */\n      0x60\n        /* \"contracts/demo1.sol\":484:518  uint256 fullCROSS_CHAIN_KEY_PREFIX */\n      0x00\n        /* \"contracts/demo1.sol\":546:556  _channelID */\n      dup3\n        /* \"contracts/demo1.sol\":521:556  CROSS_CHAIN_KEY_PREFIX | _channelID */\n      0xff\n      and\n        /* \"contracts/demo1.sol\":132:142  0x01006000 */\n      0x01006000\n        /* \"contracts/demo1.sol\":521:556  CROSS_CHAIN_KEY_PREFIX | _channelID */\n      or\n        /* \"contracts/demo1.sol\":484:556  uint256 fullCROSS_CHAIN_KEY_PREFIX = CROSS_CHAIN_KEY_PREFIX | _channelID */\n      swap1\n      pop\n        /* \"contracts/demo1.sol\":567:583  bytes memory key */\n      0x60\n        /* \"contracts/demo1.sol\":596:598  14 */\n      0x0e\n        /* \"contracts/demo1.sol\":586:599  new bytes(14) */\n      mload(0x40)\n      swap1\n      dup1\n      dup3\n      mstore\n      dup1\n      0x1f\n      add\n      not(0x1f)\n      and\n      0x20\n      add\n      dup3\n      add\n      0x40\n      mstore\n      dup1\n      iszero\n      tag_24\n      jumpi\n      dup2\n      0x20\n      add\n        /* \"--CODEGEN--\":29:30   */\n      0x01\n        /* \"--CODEGEN--\":21:27   */\n      dup3\n        /* \"--CODEGEN--\":17:31   */\n      mul\n        /* \"--CODEGEN--\":116:120   */\n      dup1\n        /* \"--CODEGEN--\":104:114   */\n      codesize\n        /* \"--CODEGEN--\":96:102   */\n      dup4\n        /* \"--CODEGEN--\":87:121   */\n      codecopy\n        /* \"--CODEGEN--\":147:151   */\n      dup1\n        /* \"--CODEGEN--\":139:145   */\n      dup3\n        /* \"--CODEGEN--\":135:152   */\n      add\n        /* \"--CODEGEN--\":125:152   */\n      swap2\n      pop\n        /* \"--CODEGEN--\":0:156   */\n      pop\n        /* \"contracts/demo1.sol\":586:599  new bytes(14) */\n      swap1\n      pop\n    tag_24:\n      pop\n        /* \"contracts/demo1.sol\":567:599  bytes memory key = new bytes(14) */\n      swap1\n      pop\n        /* \"contracts/demo1.sol\":610:621  uint256 ptr */\n      0x00\n        /* \"contracts/demo1.sol\":668:670  14 */\n      0x0e\n        /* \"contracts/demo1.sol\":663:666  key */\n      dup3\n        /* \"contracts/demo1.sol\":659:671  add(key, 14) */\n      add\n        /* \"contracts/demo1.sol\":652:671  ptr := add(key, 14) */\n      swap1\n      pop\n        /* \"contracts/demo1.sol\":724:733  _sequence */\n      dup6\n        /* \"contracts/demo1.sol\":719:722  ptr */\n      dup2\n        /* \"contracts/demo1.sol\":712:734  mstore(ptr, _sequence) */\n      mstore\n        /* \"contracts/demo1.sol\":762:763  8 */\n      0x08\n        /* \"contracts/demo1.sol\":755:763  ptr -= 8 */\n      dup2\n      sub\n      swap1\n      pop\n        /* \"contracts/demo1.sol\":806:832  fullCROSS_CHAIN_KEY_PREFIX */\n      dup3\n        /* \"contracts/demo1.sol\":801:804  ptr */\n      dup2\n        /* \"contracts/demo1.sol\":794:833  mstore(ptr, fullCROSS_CHAIN_KEY_PREFIX) */\n      mstore\n        /* \"contracts/demo1.sol\":861:862  6 */\n      0x06\n        /* \"contracts/demo1.sol\":854:862  ptr -= 6 */\n      dup2\n      sub\n      swap1\n      pop\n        /* \"contracts/demo1.sol\":905:907  14 */\n      0x0e\n        /* \"contracts/demo1.sol\":900:903  ptr */\n      dup2\n        /* \"contracts/demo1.sol\":893:908  mstore(ptr, 14) */\n      mstore\n        /* \"contracts/demo1.sol\":936:939  key */\n      dup2\n        /* \"contracts/demo1.sol\":929:939  return key */\n      swap4\n      pop\n      pop\n      pop\n      pop\n        /* \"contracts/demo1.sol\":380:947  function generateKey(uint64 _sequence, uint8 _channelID) internal pure returns(bytes memory) {\r... */\n      swap3\n      swap2\n      pop\n      pop\n      jump\t// out\n\n    auxdata: 0xa265627a7a723158203a5732a27c176a08c892ff3cd8e641470e2dec5cb49ddb7eb638e754fea8d06e64736f6c63430005100032\n}\n",
				"bytecode": {
					"linkReferences": {},
					"object": "6080604052610d116000806101000a81548167ffffffffffffffff021916908367ffffffffffffffff160217905550601e600060086101000a81548160ff021916908360ff16021790555034801561005657600080fd5b50610273806100666000396000f3fe608060405234801561001057600080fd5b506004361061004c5760003560e01c806373da6c2214610051578063863fe4ab1461010f578063e3a7fd751461012d578063fc26b0ab1461015f575b600080fd5b6100946004803603604081101561006757600080fd5b81019080803567ffffffffffffffff169060200190929190803560ff169060200190929190505050610183565b6040518080602001828103825283818151815260200191508051906020019080838360005b838110156100d45780820151818401526020810190506100b9565b50505050905090810190601f1680156101015780820380516001836020036101000a031916815260200191505b509250505060405180910390f35b610117610197565b6040518082815260200191505060405180910390f35b61013561019f565b604051808267ffffffffffffffff1667ffffffffffffffff16815260200191505060405180910390f35b6101676101b8565b604051808260ff1660ff16815260200191505060405180910390f35b606061018f83836101cb565b905092915050565b630100600081565b6000809054906101000a900467ffffffffffffffff1681565b600060089054906101000a900460ff1681565b606060008260ff1663010060001790506060600e6040519080825280601f01601f1916602001820160405280156102115781602001600182028038833980820191505090505b5090506000600e82019050858152600881039050828152600681039050600e81528193505050509291505056fea265627a7a723158203a5732a27c176a08c892ff3cd8e641470e2dec5cb49ddb7eb638e754fea8d06e64736f6c63430005100032",
					"opcodes": "PUSH1 0x80 PUSH1 0x40 MSTORE PUSH2 0xD11 PUSH1 0x0 DUP1 PUSH2 0x100 EXP DUP2 SLOAD DUP2 PUSH8 0xFFFFFFFFFFFFFFFF MUL NOT AND SWAP1 DUP4 PUSH8 0xFFFFFFFFFFFFFFFF AND MUL OR SWAP1 SSTORE POP PUSH1 0x1E PUSH1 0x0 PUSH1 0x8 PUSH2 0x100 EXP DUP2 SLOAD DUP2 PUSH1 0xFF MUL NOT AND SWAP1 DUP4 PUSH1 0xFF AND MUL OR SWAP1 SSTORE POP CALLVALUE DUP1 ISZERO PUSH2 0x56 JUMPI PUSH1 0x0 DUP1 REVERT JUMPDEST POP PUSH2 0x273 DUP1 PUSH2 0x66 PUSH1 0x0 CODECOPY PUSH1 0x0 RETURN INVALID PUSH1 0x80 PUSH1 0x40 MSTORE CALLVALUE DUP1 ISZERO PUSH2 0x10 JUMPI PUSH1 0x0 DUP1 REVERT JUMPDEST POP PUSH1 0x4 CALLDATASIZE LT PUSH2 0x4C JUMPI PUSH1 0x0 CALLDATALOAD PUSH1 0xE0 SHR DUP1 PUSH4 0x73DA6C22 EQ PUSH2 0x51 JUMPI DUP1 PUSH4 0x863FE4AB EQ PUSH2 0x10F JUMPI DUP1 PUSH4 0xE3A7FD75 EQ PUSH2 0x12D JUMPI DUP1 PUSH4 0xFC26B0AB EQ PUSH2 0x15F JUMPI JUMPDEST PUSH1 0x0 DUP1 REVERT JUMPDEST PUSH2 0x94 PUSH1 0x4 DUP1 CALLDATASIZE SUB PUSH1 0x40 DUP2 LT ISZERO PUSH2 0x67 JUMPI PUSH1 0x0 DUP1 REVERT JUMPDEST DUP2 ADD SWAP1 DUP1 DUP1 CALLDATALOAD PUSH8 0xFFFFFFFFFFFFFFFF AND SWAP1 PUSH1 0x20 ADD SWAP1 SWAP3 SWAP2 SWAP1 DUP1 CALLDATALOAD PUSH1 0xFF AND SWAP1 PUSH1 0x20 ADD SWAP1 SWAP3 SWAP2 SWAP1 POP POP POP PUSH2 0x183 JUMP JUMPDEST PUSH1 0x40 MLOAD DUP1 DUP1 PUSH1 0x20 ADD DUP3 DUP2 SUB DUP3 MSTORE DUP4 DUP2 DUP2 MLOAD DUP2 MSTORE PUSH1 0x20 ADD SWAP2 POP DUP1 MLOAD SWAP1 PUSH1 0x20 ADD SWAP1 DUP1 DUP4 DUP4 PUSH1 0x0 JUMPDEST DUP4 DUP2 LT ISZERO PUSH2 0xD4 JUMPI DUP1 DUP3 ADD MLOAD DUP2 DUP5 ADD MSTORE PUSH1 0x20 DUP2 ADD SWAP1 POP PUSH2 0xB9 JUMP JUMPDEST POP POP POP POP SWAP1 POP SWAP1 DUP2 ADD SWAP1 PUSH1 0x1F AND DUP1 ISZERO PUSH2 0x101 JUMPI DUP1 DUP3 SUB DUP1 MLOAD PUSH1 0x1 DUP4 PUSH1 0x20 SUB PUSH2 0x100 EXP SUB NOT AND DUP2 MSTORE PUSH1 0x20 ADD SWAP2 POP JUMPDEST POP SWAP3 POP POP POP PUSH1 0x40 MLOAD DUP1 SWAP2 SUB SWAP1 RETURN JUMPDEST PUSH2 0x117 PUSH2 0x197 JUMP JUMPDEST PUSH1 0x40 MLOAD DUP1 DUP3 DUP2 MSTORE PUSH1 0x20 ADD SWAP2 POP POP PUSH1 0x40 MLOAD DUP1 SWAP2 SUB SWAP1 RETURN JUMPDEST PUSH2 0x135 PUSH2 0x19F JUMP JUMPDEST PUSH1 0x40 MLOAD DUP1 DUP3 PUSH8 0xFFFFFFFFFFFFFFFF AND PUSH8 0xFFFFFFFFFFFFFFFF AND DUP2 MSTORE PUSH1 0x20 ADD SWAP2 POP POP PUSH1 0x40 MLOAD DUP1 SWAP2 SUB SWAP1 RETURN JUMPDEST PUSH2 0x167 PUSH2 0x1B8 JUMP JUMPDEST PUSH1 0x40 MLOAD DUP1 DUP3 PUSH1 0xFF AND PUSH1 0xFF AND DUP2 MSTORE PUSH1 0x20 ADD SWAP2 POP POP PUSH1 0x40 MLOAD DUP1 SWAP2 SUB SWAP1 RETURN JUMPDEST PUSH1 0x60 PUSH2 0x18F DUP4 DUP4 PUSH2 0x1CB JUMP JUMPDEST SWAP1 POP SWAP3 SWAP2 POP POP JUMP JUMPDEST PUSH4 0x1006000 DUP2 JUMP JUMPDEST PUSH1 0x0 DUP1 SWAP1 SLOAD SWAP1 PUSH2 0x100 EXP SWAP1 DIV PUSH8 0xFFFFFFFFFFFFFFFF AND DUP2 JUMP JUMPDEST PUSH1 0x0 PUSH1 0x8 SWAP1 SLOAD SWAP1 PUSH2 0x100 EXP SWAP1 DIV PUSH1 0xFF AND DUP2 JUMP JUMPDEST PUSH1 0x60 PUSH1 0x0 DUP3 PUSH1 0xFF AND PUSH4 0x1006000 OR SWAP1 POP PUSH1 0x60 PUSH1 0xE PUSH1 0x40 MLOAD SWAP1 DUP1 DUP3 MSTORE DUP1 PUSH1 0x1F ADD PUSH1 0x1F NOT AND PUSH1 0x20 ADD DUP3 ADD PUSH1 0x40 MSTORE DUP1 ISZERO PUSH2 0x211 JUMPI DUP2 PUSH1 0x20 ADD PUSH1 0x1 DUP3 MUL DUP1 CODESIZE DUP4 CODECOPY DUP1 DUP3 ADD SWAP2 POP POP SWAP1 POP JUMPDEST POP SWAP1 POP PUSH1 0x0 PUSH1 0xE DUP3 ADD SWAP1 POP DUP6 DUP2 MSTORE PUSH1 0x8 DUP2 SUB SWAP1 POP DUP3 DUP2 MSTORE PUSH1 0x6 DUP2 SUB SWAP1 POP PUSH1 0xE DUP2 MSTORE DUP2 SWAP4 POP POP POP POP SWAP3 SWAP2 POP POP JUMP INVALID LOG2 PUSH6 0x627A7A723158 KECCAK256 GASPRICE JUMPI ORIGIN LOG2 PUSH29 0x176A08C892FF3CD8E641470E2DEC5CB49DDB7EB638E754FEA8D06E6473 PUSH16 0x6C634300051000320000000000000000 "
				},
				"gasEstimates": {
					"creation": {
						"codeDepositCost": "125400",
						"executionCost": "41955",
						"totalCost": "167355"
					},
					"external": {
						"CROSS_CHAIN_KEY_PREFIX()": "205",
						"data2()": "1075",
						"data3()": "1147",
						"getGeratekey(uint64,uint8)": "infinite"
					},
					"internal": {
						"decodePayloadHeader(bytes memory)": "infinite",
						"generateKey(uint64,uint8)": "infinite"
					}
				},
				"methodIdentifiers": {
					"CROSS_CHAIN_KEY_PREFIX()": "863fe4ab",
					"data2()": "e3a7fd75",
					"data3()": "fc26b0ab",
					"getGeratekey(uint64,uint8)": "73da6c22"
				}
			},
			"userdoc": {
				"methods": {}
			}
		}
	}
}