{
	"contracts/demo2.sol": {
		"demo2": {
			"abi": [
				{
					"inputs": [],
					"name": "data1",
					"outputs": [
						{
							"internalType": "bytes",
							"name": "",
							"type": "bytes"
						}
					],
					"stateMutability": "view",
					"type": "function"
				},
				{
					"inputs": [],
					"name": "data2",
					"outputs": [
						{
							"internalType": "bytes32",
							"name": "",
							"type": "bytes32"
						}
					],
					"stateMutability": "view",
					"type": "function"
				},
				{
					"inputs": [],
					"name": "data3",
					"outputs": [
						{
							"internalType": "bytes",
							"name": "",
							"type": "bytes"
						}
					],
					"stateMutability": "view",
					"type": "function"
				}
			],
			"devdoc": {
				"methods": {}
			},
			"evm": {
				"assembly": "    /* \"contracts/demo2.sol\":81:1282  contract demo2 {\r... */\n  mstore(0x40, 0x80)\n    /* \"contracts/demo2.sol\":107:176  bytes public data1 = \"NALEHHJSGDSDGHJSDHSUHDJSHDJSHJSHJSHDSJDHJONGVO\" */\n  mload(0x40)\n  dup1\n  0x60\n  add\n  0x40\n  mstore\n  dup1\n  0x2e\n  dup2\n  mstore\n  0x20\n  add\n  data_4887836e294a2761413359597244d307bbe3f94827f6160d9e1a399e00e2d1be\n  0x2e\n  swap2\n  codecopy\n  0x00\n  swap1\n  dup1\n  mload\n  swap1\n  0x20\n  add\n  swap1\n  tag_1\n  swap3\n  swap2\n  swap1\n  tag_2\n  jump\t// in\ntag_1:\n  pop\n    /* \"contracts/demo2.sol\":187:252  bytes public data3 = \"sdfNAsdfsdfLEHHJSGDSHDJSHJSHJSHDSJDHJONGVO\" */\n  mload(0x40)\n  dup1\n  0x60\n  add\n  0x40\n  mstore\n  dup1\n  0x2a\n  dup2\n  mstore\n  0x20\n  add\n  data_c359735a342ece061e65ab7390d246d1e53ba5f24eea70d6201f1d4a7b2f3475\n  0x2a\n  swap2\n  codecopy\n  0x01\n  swap1\n  dup1\n  mload\n  swap1\n  0x20\n  add\n  swap1\n  tag_3\n  swap3\n  swap2\n  swap1\n  tag_2\n  jump\t// in\ntag_3:\n  pop\n    /* \"contracts/demo2.sol\":263:310  bytes32 public data2 = \"LEHONGVOwjnfvj3weh8vKJ\" */\n  sstore(0x02, 0x4c45484f4e47564f776a6e66766a3377656838764b4a00000000000000000000)\n    /* \"contracts/demo2.sol\":81:1282  contract demo2 {\r... */\n  callvalue\n    /* \"--CODEGEN--\":5:14   */\n  dup1\n    /* \"--CODEGEN--\":2:4   */\n  iszero\n  tag_4\n  jumpi\n    /* \"--CODEGEN--\":27:28   */\n  0x00\n    /* \"--CODEGEN--\":24:25   */\n  dup1\n    /* \"--CODEGEN--\":17:29   */\n  revert\n    /* \"--CODEGEN--\":2:4   */\ntag_4:\n    /* \"contracts/demo2.sol\":81:1282  contract demo2 {\r... */\n  pop\n  jump(tag_5)\ntag_2:\n  dup3\n  dup1\n  sload\n  0x01\n  dup2\n  0x01\n  and\n  iszero\n  0x0100\n  mul\n  sub\n  and\n  0x02\n  swap1\n  div\n  swap1\n  0x00\n  mstore\n  keccak256(0x00, 0x20)\n  swap1\n  0x1f\n  add\n  0x20\n  swap1\n  div\n  dup2\n  add\n  swap3\n  dup3\n  0x1f\n  lt\n  tag_7\n  jumpi\n  dup1\n  mload\n  not(0xff)\n  and\n  dup4\n  dup1\n  add\n  or\n  dup6\n  sstore\n  jump(tag_6)\ntag_7:\n  dup3\n  dup1\n  add\n  0x01\n  add\n  dup6\n  sstore\n  dup3\n  iszero\n  tag_6\n  jumpi\n  swap2\n  dup3\n  add\ntag_8:\n  dup3\n  dup2\n  gt\n  iszero\n  tag_9\n  jumpi\n  dup3\n  mload\n  dup3\n  sstore\n  swap2\n  0x20\n  add\n  swap2\n  swap1\n  0x01\n  add\n  swap1\n  jump(tag_8)\ntag_9:\ntag_6:\n  pop\n  swap1\n  pop\n  tag_10\n  swap2\n  swap1\n  tag_11\n  jump\t// in\ntag_10:\n  pop\n  swap1\n  jump\t// out\ntag_11:\n  tag_12\n  swap2\n  swap1\ntag_13:\n  dup1\n  dup3\n  gt\n  iszero\n  tag_14\n  jumpi\n  0x00\n  dup2\n  0x00\n  swap1\n  sstore\n  pop\n  0x01\n  add\n  jump(tag_13)\ntag_14:\n  pop\n  swap1\n  jump\ntag_12:\n  swap1\n  jump\t// out\ntag_5:\n  dataSize(sub_0)\n  dup1\n  dataOffset(sub_0)\n  0x00\n  codecopy\n  0x00\n  return\nstop\ndata_4887836e294a2761413359597244d307bbe3f94827f6160d9e1a399e00e2d1be 4e414c4548484a534744534447484a534448535548444a5348444a53484a53484a534844534a44484a4f4e47564f\ndata_c359735a342ece061e65ab7390d246d1e53ba5f24eea70d6201f1d4a7b2f3475 7364664e417364667364664c4548484a5347445348444a53484a53484a534844534a44484a4f4e47564f\n\nsub_0: assembly {\n        /* \"contracts/demo2.sol\":81:1282  contract demo2 {\r... */\n      mstore(0x40, 0x80)\n      callvalue\n        /* \"--CODEGEN--\":5:14   */\n      dup1\n        /* \"--CODEGEN--\":2:4   */\n      iszero\n      tag_1\n      jumpi\n        /* \"--CODEGEN--\":27:28   */\n      0x00\n        /* \"--CODEGEN--\":24:25   */\n      dup1\n        /* \"--CODEGEN--\":17:29   */\n      revert\n        /* \"--CODEGEN--\":2:4   */\n    tag_1:\n        /* \"contracts/demo2.sol\":81:1282  contract demo2 {\r... */\n      pop\n      jumpi(tag_2, lt(calldatasize, 0x04))\n      shr(0xe0, calldataload(0x00))\n      dup1\n      0x9ffd85c4\n      eq\n      tag_3\n      jumpi\n      dup1\n      0xe3a7fd75\n      eq\n      tag_4\n      jumpi\n      dup1\n      0xfc26b0ab\n      eq\n      tag_5\n      jumpi\n    tag_2:\n        /* \"--CODEGEN--\":12:13   */\n      0x00\n        /* \"--CODEGEN--\":9:10   */\n      dup1\n        /* \"--CODEGEN--\":2:14   */\n      revert\n        /* \"contracts/demo2.sol\":107:176  bytes public data1 = \"NALEHHJSGDSDGHJSDHSUHDJSHDJSHJSHJSHDSJDHJONGVO\" */\n    tag_3:\n      tag_6\n      tag_7\n      jump\t// in\n    tag_6:\n      mload(0x40)\n      tag_8\n      swap2\n      swap1\n      jump(tag_9)\n    tag_8:\n      mload(0x40)\n      dup1\n      swap2\n      sub\n      swap1\n      return\n        /* \"contracts/demo2.sol\":263:310  bytes32 public data2 = \"LEHONGVOwjnfvj3weh8vKJ\" */\n    tag_4:\n      tag_10\n      tag_11\n      jump\t// in\n    tag_10:\n      mload(0x40)\n      tag_12\n      swap2\n      swap1\n      jump(tag_13)\n    tag_12:\n      mload(0x40)\n      dup1\n      swap2\n      sub\n      swap1\n      return\n        /* \"contracts/demo2.sol\":187:252  bytes public data3 = \"sdfNAsdfsdfLEHHJSGDSHDJSHJSHJSHDSJDHJONGVO\" */\n    tag_5:\n      tag_14\n      tag_15\n      jump\t// in\n    tag_14:\n      mload(0x40)\n      tag_16\n      swap2\n      swap1\n      jump(tag_9)\n    tag_16:\n      mload(0x40)\n      dup1\n      swap2\n      sub\n      swap1\n      return\n        /* \"contracts/demo2.sol\":107:176  bytes public data1 = \"NALEHHJSGDSDGHJSDHSUHDJSHDJSHJSHJSHDSJDHJONGVO\" */\n    tag_7:\n      0x00\n      dup1\n      sload\n      0x01\n      dup2\n      0x01\n      and\n      iszero\n      0x0100\n      mul\n      sub\n      and\n      0x02\n      swap1\n      div\n      dup1\n      0x1f\n      add\n      0x20\n      dup1\n      swap2\n      div\n      mul\n      0x20\n      add\n      mload(0x40)\n      swap1\n      dup2\n      add\n      0x40\n      mstore\n      dup1\n      swap3\n      swap2\n      swap1\n      dup2\n      dup2\n      mstore\n      0x20\n      add\n      dup3\n      dup1\n      sload\n      0x01\n      dup2\n      0x01\n      and\n      iszero\n      0x0100\n      mul\n      sub\n      and\n      0x02\n      swap1\n      div\n      dup1\n      iszero\n      tag_17\n      jumpi\n      dup1\n      0x1f\n      lt\n      tag_18\n      jumpi\n      0x0100\n      dup1\n      dup4\n      sload\n      div\n      mul\n      dup4\n      mstore\n      swap2\n      0x20\n      add\n      swap2\n      jump(tag_17)\n    tag_18:\n      dup3\n      add\n      swap2\n      swap1\n      0x00\n      mstore\n      keccak256(0x00, 0x20)\n      swap1\n    tag_19:\n      dup2\n      sload\n      dup2\n      mstore\n      swap1\n      0x01\n      add\n      swap1\n      0x20\n      add\n      dup1\n      dup4\n      gt\n      tag_19\n      jumpi\n      dup3\n      swap1\n      sub\n      0x1f\n      and\n      dup3\n      add\n      swap2\n    tag_17:\n      pop\n      pop\n      pop\n      pop\n      pop\n      dup2\n      jump\t// out\n        /* \"contracts/demo2.sol\":263:310  bytes32 public data2 = \"LEHONGVOwjnfvj3weh8vKJ\" */\n    tag_11:\n      sload(0x02)\n      dup2\n      jump\t// out\n        /* \"contracts/demo2.sol\":187:252  bytes public data3 = \"sdfNAsdfsdfLEHHJSGDSHDJSHJSHJSHDSJDHJONGVO\" */\n    tag_15:\n      0x01\n      dup1\n      sload\n      0x01\n      dup2\n      0x01\n      and\n      iszero\n      0x0100\n      mul\n      sub\n      and\n      0x02\n      swap1\n      div\n      dup1\n      0x1f\n      add\n      0x20\n      dup1\n      swap2\n      div\n      mul\n      0x20\n      add\n      mload(0x40)\n      swap1\n      dup2\n      add\n      0x40\n      mstore\n      dup1\n      swap3\n      swap2\n      swap1\n      dup2\n      dup2\n      mstore\n      0x20\n      add\n      dup3\n      dup1\n      sload\n      0x01\n      dup2\n      0x01\n      and\n      iszero\n      0x0100\n      mul\n      sub\n      and\n      0x02\n      swap1\n      div\n      dup1\n      iszero\n      tag_20\n      jumpi\n      dup1\n      0x1f\n      lt\n      tag_21\n      jumpi\n      0x0100\n      dup1\n      dup4\n      sload\n      div\n      mul\n      dup4\n      mstore\n      swap2\n      0x20\n      add\n      swap2\n      jump(tag_20)\n    tag_21:\n      dup3\n      add\n      swap2\n      swap1\n      0x00\n      mstore\n      keccak256(0x00, 0x20)\n      swap1\n    tag_22:\n      dup2\n      sload\n      dup2\n      mstore\n      swap1\n      0x01\n      add\n      swap1\n      0x20\n      add\n      dup1\n      dup4\n      gt\n      tag_22\n      jumpi\n      dup3\n      swap1\n      sub\n      0x1f\n      and\n      dup3\n      add\n      swap2\n    tag_20:\n      pop\n      pop\n      pop\n      pop\n      pop\n      dup2\n      jump\t// out\n        /* \"--CODEGEN--\":5:118   */\n    tag_24:\n        /* \"--CODEGEN--\":88:112   */\n      tag_26\n        /* \"--CODEGEN--\":106:111   */\n      dup2\n        /* \"--CODEGEN--\":88:112   */\n      jump(tag_27)\n    tag_26:\n        /* \"--CODEGEN--\":83:86   */\n      dup3\n        /* \"--CODEGEN--\":76:113   */\n      mstore\n        /* \"--CODEGEN--\":70:118   */\n      pop\n      pop\n      jump\n        /* \"--CODEGEN--\":125:460   */\n    tag_28:\n      0x00\n        /* \"--CODEGEN--\":231:265   */\n      tag_30\n        /* \"--CODEGEN--\":259:264   */\n      dup3\n        /* \"--CODEGEN--\":231:265   */\n      jump(tag_31)\n    tag_30:\n        /* \"--CODEGEN--\":277:347   */\n      tag_32\n        /* \"--CODEGEN--\":340:346   */\n      dup2\n        /* \"--CODEGEN--\":335:338   */\n      dup6\n        /* \"--CODEGEN--\":277:347   */\n      jump(tag_33)\n    tag_32:\n        /* \"--CODEGEN--\":270:347   */\n      swap4\n      pop\n        /* \"--CODEGEN--\":352:404   */\n      tag_34\n        /* \"--CODEGEN--\":397:403   */\n      dup2\n        /* \"--CODEGEN--\":392:395   */\n      dup6\n        /* \"--CODEGEN--\":385:389   */\n      0x20\n        /* \"--CODEGEN--\":378:383   */\n      dup7\n        /* \"--CODEGEN--\":374:390   */\n      add\n        /* \"--CODEGEN--\":352:404   */\n      jump(tag_35)\n    tag_34:\n        /* \"--CODEGEN--\":425:454   */\n      tag_36\n        /* \"--CODEGEN--\":447:453   */\n      dup2\n        /* \"--CODEGEN--\":425:454   */\n      jump(tag_37)\n    tag_36:\n        /* \"--CODEGEN--\":420:423   */\n      dup5\n        /* \"--CODEGEN--\":416:455   */\n      add\n        /* \"--CODEGEN--\":409:455   */\n      swap2\n      pop\n        /* \"--CODEGEN--\":211:460   */\n      pop\n      swap3\n      swap2\n      pop\n      pop\n      jump\n        /* \"--CODEGEN--\":467:680   */\n    tag_13:\n      0x00\n        /* \"--CODEGEN--\":585:587   */\n      0x20\n        /* \"--CODEGEN--\":574:583   */\n      dup3\n        /* \"--CODEGEN--\":570:588   */\n      add\n        /* \"--CODEGEN--\":562:588   */\n      swap1\n      pop\n        /* \"--CODEGEN--\":599:670   */\n      tag_39\n        /* \"--CODEGEN--\":667:668   */\n      0x00\n        /* \"--CODEGEN--\":656:665   */\n      dup4\n        /* \"--CODEGEN--\":652:669   */\n      add\n        /* \"--CODEGEN--\":643:649   */\n      dup5\n        /* \"--CODEGEN--\":599:670   */\n      jump(tag_24)\n    tag_39:\n        /* \"--CODEGEN--\":556:680   */\n      swap3\n      swap2\n      pop\n      pop\n      jump\n        /* \"--CODEGEN--\":687:976   */\n    tag_9:\n      0x00\n        /* \"--CODEGEN--\":819:821   */\n      0x20\n        /* \"--CODEGEN--\":808:817   */\n      dup3\n        /* \"--CODEGEN--\":804:822   */\n      add\n        /* \"--CODEGEN--\":796:822   */\n      swap1\n      pop\n        /* \"--CODEGEN--\":869:878   */\n      dup2\n        /* \"--CODEGEN--\":863:867   */\n      dup2\n        /* \"--CODEGEN--\":859:879   */\n      sub\n        /* \"--CODEGEN--\":855:856   */\n      0x00\n        /* \"--CODEGEN--\":844:853   */\n      dup4\n        /* \"--CODEGEN--\":840:857   */\n      add\n        /* \"--CODEGEN--\":833:880   */\n      mstore\n        /* \"--CODEGEN--\":894:966   */\n      tag_41\n        /* \"--CODEGEN--\":961:965   */\n      dup2\n        /* \"--CODEGEN--\":952:958   */\n      dup5\n        /* \"--CODEGEN--\":894:966   */\n      jump(tag_28)\n    tag_41:\n        /* \"--CODEGEN--\":886:966   */\n      swap1\n      pop\n        /* \"--CODEGEN--\":790:976   */\n      swap3\n      swap2\n      pop\n      pop\n      jump\n        /* \"--CODEGEN--\":983:1100   */\n    tag_31:\n      0x00\n        /* \"--CODEGEN--\":1072:1077   */\n      dup2\n        /* \"--CODEGEN--\":1066:1078   */\n      mload\n        /* \"--CODEGEN--\":1056:1078   */\n      swap1\n      pop\n        /* \"--CODEGEN--\":1037:1100   */\n      swap2\n      swap1\n      pop\n      jump\n        /* \"--CODEGEN--\":1108:1270   */\n    tag_33:\n      0x00\n        /* \"--CODEGEN--\":1222:1228   */\n      dup3\n        /* \"--CODEGEN--\":1217:1220   */\n      dup3\n        /* \"--CODEGEN--\":1210:1229   */\n      mstore\n        /* \"--CODEGEN--\":1259:1263   */\n      0x20\n        /* \"--CODEGEN--\":1254:1257   */\n      dup3\n        /* \"--CODEGEN--\":1250:1264   */\n      add\n        /* \"--CODEGEN--\":1235:1264   */\n      swap1\n      pop\n        /* \"--CODEGEN--\":1203:1270   */\n      swap3\n      swap2\n      pop\n      pop\n      jump\n        /* \"--CODEGEN--\":1278:1350   */\n    tag_27:\n      0x00\n        /* \"--CODEGEN--\":1340:1345   */\n      dup2\n        /* \"--CODEGEN--\":1329:1345   */\n      swap1\n      pop\n        /* \"--CODEGEN--\":1323:1350   */\n      swap2\n      swap1\n      pop\n      jump\n        /* \"--CODEGEN--\":1358:1626   */\n    tag_35:\n        /* \"--CODEGEN--\":1423:1424   */\n      0x00\n        /* \"--CODEGEN--\":1430:1531   */\n    tag_46:\n        /* \"--CODEGEN--\":1444:1450   */\n      dup4\n        /* \"--CODEGEN--\":1441:1442   */\n      dup2\n        /* \"--CODEGEN--\":1438:1451   */\n      lt\n        /* \"--CODEGEN--\":1430:1531   */\n      iszero\n      tag_48\n      jumpi\n        /* \"--CODEGEN--\":1520:1521   */\n      dup1\n        /* \"--CODEGEN--\":1515:1518   */\n      dup3\n        /* \"--CODEGEN--\":1511:1522   */\n      add\n        /* \"--CODEGEN--\":1505:1523   */\n      mload\n        /* \"--CODEGEN--\":1501:1502   */\n      dup2\n        /* \"--CODEGEN--\":1496:1499   */\n      dup5\n        /* \"--CODEGEN--\":1492:1503   */\n      add\n        /* \"--CODEGEN--\":1485:1524   */\n      mstore\n        /* \"--CODEGEN--\":1466:1468   */\n      0x20\n        /* \"--CODEGEN--\":1463:1464   */\n      dup2\n        /* \"--CODEGEN--\":1459:1469   */\n      add\n        /* \"--CODEGEN--\":1454:1469   */\n      swap1\n      pop\n        /* \"--CODEGEN--\":1430:1531   */\n      jump(tag_46)\n    tag_48:\n        /* \"--CODEGEN--\":1546:1552   */\n      dup4\n        /* \"--CODEGEN--\":1543:1544   */\n      dup2\n        /* \"--CODEGEN--\":1540:1553   */\n      gt\n        /* \"--CODEGEN--\":1537:1539   */\n      iszero\n      tag_49\n      jumpi\n        /* \"--CODEGEN--\":1611:1612   */\n      0x00\n        /* \"--CODEGEN--\":1602:1608   */\n      dup5\n        /* \"--CODEGEN--\":1597:1600   */\n      dup5\n        /* \"--CODEGEN--\":1593:1609   */\n      add\n        /* \"--CODEGEN--\":1586:1613   */\n      mstore\n        /* \"--CODEGEN--\":1537:1539   */\n    tag_49:\n        /* \"--CODEGEN--\":1407:1626   */\n      pop\n      pop\n      pop\n      pop\n      jump\n        /* \"--CODEGEN--\":1634:1731   */\n    tag_37:\n      0x00\n        /* \"--CODEGEN--\":1722:1724   */\n      0x1f\n        /* \"--CODEGEN--\":1718:1725   */\n      not\n        /* \"--CODEGEN--\":1713:1715   */\n      0x1f\n        /* \"--CODEGEN--\":1706:1711   */\n      dup4\n        /* \"--CODEGEN--\":1702:1716   */\n      add\n        /* \"--CODEGEN--\":1698:1726   */\n      and\n        /* \"--CODEGEN--\":1688:1726   */\n      swap1\n      pop\n        /* \"--CODEGEN--\":1682:1731   */\n      swap2\n      swap1\n      pop\n      jump\n\n    auxdata: 0xa2646970667358221220e2105d307286d3ca9ff8da48536ecbab8b01aacefa57e4dad4f6e94183105b9564736f6c63430006040033\n}\n",
				"bytecode": {
					"linkReferences": {},
					"object": "60806040526040518060600160405280602e8152602001610453602e913960009080519060200190610032929190610098565b506040518060600160405280602a8152602001610481602a913960019080519060200190610061929190610098565b507f4c45484f4e47564f776a6e66766a3377656838764b4a0000000000000000000060025534801561009257600080fd5b5061013d565b828054600181600116156101000203166002900490600052602060002090601f016020900481019282601f106100d957805160ff1916838001178555610107565b82800160010185558215610107579182015b828111156101065782518255916020019190600101906100eb565b5b5090506101149190610118565b5090565b61013a91905b8082111561013657600081600090555060010161011e565b5090565b90565b6103078061014c6000396000f3fe608060405234801561001057600080fd5b50600436106100415760003560e01c80639ffd85c414610046578063e3a7fd7514610064578063fc26b0ab14610082575b600080fd5b61004e6100a0565b60405161005b9190610245565b60405180910390f35b61006c61013e565b604051610079919061022a565b60405180910390f35b61008a610144565b6040516100979190610245565b60405180910390f35b60008054600181600116156101000203166002900480601f0160208091040260200160405190810160405280929190818152602001828054600181600116156101000203166002900480156101365780601f1061010b57610100808354040283529160200191610136565b820191906000526020600020905b81548152906001019060200180831161011957829003601f168201915b505050505081565b60025481565b60018054600181600116156101000203166002900480601f0160208091040260200160405190810160405280929190818152602001828054600181600116156101000203166002900480156101da5780601f106101af576101008083540402835291602001916101da565b820191906000526020600020905b8154815290600101906020018083116101bd57829003601f168201915b505050505081565b6101eb81610283565b82525050565b60006101fc82610267565b6102068185610272565b935061021681856020860161028d565b61021f816102c0565b840191505092915050565b600060208201905061023f60008301846101e2565b92915050565b6000602082019050818103600083015261025f81846101f1565b905092915050565b600081519050919050565b600082825260208201905092915050565b6000819050919050565b60005b838110156102ab578082015181840152602081019050610290565b838111156102ba576000848401525b50505050565b6000601f19601f830116905091905056fea2646970667358221220e2105d307286d3ca9ff8da48536ecbab8b01aacefa57e4dad4f6e94183105b9564736f6c634300060400334e414c4548484a534744534447484a534448535548444a5348444a53484a53484a534844534a44484a4f4e47564f7364664e417364667364664c4548484a5347445348444a53484a53484a534844534a44484a4f4e47564f",
					"opcodes": "PUSH1 0x80 PUSH1 0x40 MSTORE PUSH1 0x40 MLOAD DUP1 PUSH1 0x60 ADD PUSH1 0x40 MSTORE DUP1 PUSH1 0x2E DUP2 MSTORE PUSH1 0x20 ADD PUSH2 0x453 PUSH1 0x2E SWAP2 CODECOPY PUSH1 0x0 SWAP1 DUP1 MLOAD SWAP1 PUSH1 0x20 ADD SWAP1 PUSH2 0x32 SWAP3 SWAP2 SWAP1 PUSH2 0x98 JUMP JUMPDEST POP PUSH1 0x40 MLOAD DUP1 PUSH1 0x60 ADD PUSH1 0x40 MSTORE DUP1 PUSH1 0x2A DUP2 MSTORE PUSH1 0x20 ADD PUSH2 0x481 PUSH1 0x2A SWAP2 CODECOPY PUSH1 0x1 SWAP1 DUP1 MLOAD SWAP1 PUSH1 0x20 ADD SWAP1 PUSH2 0x61 SWAP3 SWAP2 SWAP1 PUSH2 0x98 JUMP JUMPDEST POP PUSH32 0x4C45484F4E47564F776A6E66766A3377656838764B4A00000000000000000000 PUSH1 0x2 SSTORE CALLVALUE DUP1 ISZERO PUSH2 0x92 JUMPI PUSH1 0x0 DUP1 REVERT JUMPDEST POP PUSH2 0x13D JUMP JUMPDEST DUP3 DUP1 SLOAD PUSH1 0x1 DUP2 PUSH1 0x1 AND ISZERO PUSH2 0x100 MUL SUB AND PUSH1 0x2 SWAP1 DIV SWAP1 PUSH1 0x0 MSTORE PUSH1 0x20 PUSH1 0x0 KECCAK256 SWAP1 PUSH1 0x1F ADD PUSH1 0x20 SWAP1 DIV DUP2 ADD SWAP3 DUP3 PUSH1 0x1F LT PUSH2 0xD9 JUMPI DUP1 MLOAD PUSH1 0xFF NOT AND DUP4 DUP1 ADD OR DUP6 SSTORE PUSH2 0x107 JUMP JUMPDEST DUP3 DUP1 ADD PUSH1 0x1 ADD DUP6 SSTORE DUP3 ISZERO PUSH2 0x107 JUMPI SWAP2 DUP3 ADD JUMPDEST DUP3 DUP2 GT ISZERO PUSH2 0x106 JUMPI DUP3 MLOAD DUP3 SSTORE SWAP2 PUSH1 0x20 ADD SWAP2 SWAP1 PUSH1 0x1 ADD SWAP1 PUSH2 0xEB JUMP JUMPDEST JUMPDEST POP SWAP1 POP PUSH2 0x114 SWAP2 SWAP1 PUSH2 0x118 JUMP JUMPDEST POP SWAP1 JUMP JUMPDEST PUSH2 0x13A SWAP2 SWAP1 JUMPDEST DUP1 DUP3 GT ISZERO PUSH2 0x136 JUMPI PUSH1 0x0 DUP2 PUSH1 0x0 SWAP1 SSTORE POP PUSH1 0x1 ADD PUSH2 0x11E JUMP JUMPDEST POP SWAP1 JUMP JUMPDEST SWAP1 JUMP JUMPDEST PUSH2 0x307 DUP1 PUSH2 0x14C PUSH1 0x0 CODECOPY PUSH1 0x0 RETURN INVALID PUSH1 0x80 PUSH1 0x40 MSTORE CALLVALUE DUP1 ISZERO PUSH2 0x10 JUMPI PUSH1 0x0 DUP1 REVERT JUMPDEST POP PUSH1 0x4 CALLDATASIZE LT PUSH2 0x41 JUMPI PUSH1 0x0 CALLDATALOAD PUSH1 0xE0 SHR DUP1 PUSH4 0x9FFD85C4 EQ PUSH2 0x46 JUMPI DUP1 PUSH4 0xE3A7FD75 EQ PUSH2 0x64 JUMPI DUP1 PUSH4 0xFC26B0AB EQ PUSH2 0x82 JUMPI JUMPDEST PUSH1 0x0 DUP1 REVERT JUMPDEST PUSH2 0x4E PUSH2 0xA0 JUMP JUMPDEST PUSH1 0x40 MLOAD PUSH2 0x5B SWAP2 SWAP1 PUSH2 0x245 JUMP JUMPDEST PUSH1 0x40 MLOAD DUP1 SWAP2 SUB SWAP1 RETURN JUMPDEST PUSH2 0x6C PUSH2 0x13E JUMP JUMPDEST PUSH1 0x40 MLOAD PUSH2 0x79 SWAP2 SWAP1 PUSH2 0x22A JUMP JUMPDEST PUSH1 0x40 MLOAD DUP1 SWAP2 SUB SWAP1 RETURN JUMPDEST PUSH2 0x8A PUSH2 0x144 JUMP JUMPDEST PUSH1 0x40 MLOAD PUSH2 0x97 SWAP2 SWAP1 PUSH2 0x245 JUMP JUMPDEST PUSH1 0x40 MLOAD DUP1 SWAP2 SUB SWAP1 RETURN JUMPDEST PUSH1 0x0 DUP1 SLOAD PUSH1 0x1 DUP2 PUSH1 0x1 AND ISZERO PUSH2 0x100 MUL SUB AND PUSH1 0x2 SWAP1 DIV DUP1 PUSH1 0x1F ADD PUSH1 0x20 DUP1 SWAP2 DIV MUL PUSH1 0x20 ADD PUSH1 0x40 MLOAD SWAP1 DUP2 ADD PUSH1 0x40 MSTORE DUP1 SWAP3 SWAP2 SWAP1 DUP2 DUP2 MSTORE PUSH1 0x20 ADD DUP3 DUP1 SLOAD PUSH1 0x1 DUP2 PUSH1 0x1 AND ISZERO PUSH2 0x100 MUL SUB AND PUSH1 0x2 SWAP1 DIV DUP1 ISZERO PUSH2 0x136 JUMPI DUP1 PUSH1 0x1F LT PUSH2 0x10B JUMPI PUSH2 0x100 DUP1 DUP4 SLOAD DIV MUL DUP4 MSTORE SWAP2 PUSH1 0x20 ADD SWAP2 PUSH2 0x136 JUMP JUMPDEST DUP3 ADD SWAP2 SWAP1 PUSH1 0x0 MSTORE PUSH1 0x20 PUSH1 0x0 KECCAK256 SWAP1 JUMPDEST DUP2 SLOAD DUP2 MSTORE SWAP1 PUSH1 0x1 ADD SWAP1 PUSH1 0x20 ADD DUP1 DUP4 GT PUSH2 0x119 JUMPI DUP3 SWAP1 SUB PUSH1 0x1F AND DUP3 ADD SWAP2 JUMPDEST POP POP POP POP POP DUP2 JUMP JUMPDEST PUSH1 0x2 SLOAD DUP2 JUMP JUMPDEST PUSH1 0x1 DUP1 SLOAD PUSH1 0x1 DUP2 PUSH1 0x1 AND ISZERO PUSH2 0x100 MUL SUB AND PUSH1 0x2 SWAP1 DIV DUP1 PUSH1 0x1F ADD PUSH1 0x20 DUP1 SWAP2 DIV MUL PUSH1 0x20 ADD PUSH1 0x40 MLOAD SWAP1 DUP2 ADD PUSH1 0x40 MSTORE DUP1 SWAP3 SWAP2 SWAP1 DUP2 DUP2 MSTORE PUSH1 0x20 ADD DUP3 DUP1 SLOAD PUSH1 0x1 DUP2 PUSH1 0x1 AND ISZERO PUSH2 0x100 MUL SUB AND PUSH1 0x2 SWAP1 DIV DUP1 ISZERO PUSH2 0x1DA JUMPI DUP1 PUSH1 0x1F LT PUSH2 0x1AF JUMPI PUSH2 0x100 DUP1 DUP4 SLOAD DIV MUL DUP4 MSTORE SWAP2 PUSH1 0x20 ADD SWAP2 PUSH2 0x1DA JUMP JUMPDEST DUP3 ADD SWAP2 SWAP1 PUSH1 0x0 MSTORE PUSH1 0x20 PUSH1 0x0 KECCAK256 SWAP1 JUMPDEST DUP2 SLOAD DUP2 MSTORE SWAP1 PUSH1 0x1 ADD SWAP1 PUSH1 0x20 ADD DUP1 DUP4 GT PUSH2 0x1BD JUMPI DUP3 SWAP1 SUB PUSH1 0x1F AND DUP3 ADD SWAP2 JUMPDEST POP POP POP POP POP DUP2 JUMP JUMPDEST PUSH2 0x1EB DUP2 PUSH2 0x283 JUMP JUMPDEST DUP3 MSTORE POP POP JUMP JUMPDEST PUSH1 0x0 PUSH2 0x1FC DUP3 PUSH2 0x267 JUMP JUMPDEST PUSH2 0x206 DUP2 DUP6 PUSH2 0x272 JUMP JUMPDEST SWAP4 POP PUSH2 0x216 DUP2 DUP6 PUSH1 0x20 DUP7 ADD PUSH2 0x28D JUMP JUMPDEST PUSH2 0x21F DUP2 PUSH2 0x2C0 JUMP JUMPDEST DUP5 ADD SWAP2 POP POP SWAP3 SWAP2 POP POP JUMP JUMPDEST PUSH1 0x0 PUSH1 0x20 DUP3 ADD SWAP1 POP PUSH2 0x23F PUSH1 0x0 DUP4 ADD DUP5 PUSH2 0x1E2 JUMP JUMPDEST SWAP3 SWAP2 POP POP JUMP JUMPDEST PUSH1 0x0 PUSH1 0x20 DUP3 ADD SWAP1 POP DUP2 DUP2 SUB PUSH1 0x0 DUP4 ADD MSTORE PUSH2 0x25F DUP2 DUP5 PUSH2 0x1F1 JUMP JUMPDEST SWAP1 POP SWAP3 SWAP2 POP POP JUMP JUMPDEST PUSH1 0x0 DUP2 MLOAD SWAP1 POP SWAP2 SWAP1 POP JUMP JUMPDEST PUSH1 0x0 DUP3 DUP3 MSTORE PUSH1 0x20 DUP3 ADD SWAP1 POP SWAP3 SWAP2 POP POP JUMP JUMPDEST PUSH1 0x0 DUP2 SWAP1 POP SWAP2 SWAP1 POP JUMP JUMPDEST PUSH1 0x0 JUMPDEST DUP4 DUP2 LT ISZERO PUSH2 0x2AB JUMPI DUP1 DUP3 ADD MLOAD DUP2 DUP5 ADD MSTORE PUSH1 0x20 DUP2 ADD SWAP1 POP PUSH2 0x290 JUMP JUMPDEST DUP4 DUP2 GT ISZERO PUSH2 0x2BA JUMPI PUSH1 0x0 DUP5 DUP5 ADD MSTORE JUMPDEST POP POP POP POP JUMP JUMPDEST PUSH1 0x0 PUSH1 0x1F NOT PUSH1 0x1F DUP4 ADD AND SWAP1 POP SWAP2 SWAP1 POP JUMP INVALID LOG2 PUSH5 0x6970667358 0x22 SLT KECCAK256 0xE2 LT 0x5D ADDRESS PUSH19 0x86D3CA9FF8DA48536ECBAB8B01AACEFA57E4DA 0xD4 0xF6 0xE9 COINBASE DUP4 LT JUMPDEST SWAP6 PUSH5 0x736F6C6343 STOP MOD DIV STOP CALLER 0x4E COINBASE 0x4C GASLIMIT 0x48 0x48 0x4A MSTORE8 SELFBALANCE DIFFICULTY MSTORE8 DIFFICULTY SELFBALANCE 0x48 0x4A MSTORE8 DIFFICULTY 0x48 MSTORE8 SSTORE 0x48 DIFFICULTY 0x4A MSTORE8 0x48 DIFFICULTY 0x4A MSTORE8 0x48 0x4A MSTORE8 0x48 0x4A MSTORE8 0x48 DIFFICULTY MSTORE8 0x4A DIFFICULTY 0x48 0x4A 0x4F 0x4E SELFBALANCE JUMP 0x4F PUSH20 0x64664E417364667364664C4548484A5347445348 DIFFICULTY 0x4A MSTORE8 0x48 0x4A MSTORE8 0x48 0x4A MSTORE8 0x48 DIFFICULTY MSTORE8 0x4A DIFFICULTY 0x48 0x4A 0x4F 0x4E SELFBALANCE JUMP 0x4F "
				},
				"gasEstimates": {
					"creation": {
						"codeDepositCost": "155000",
						"executionCost": "infinite",
						"totalCost": "infinite"
					},
					"external": {
						"data1()": "infinite",
						"data2()": "1129",
						"data3()": "infinite"
					},
					"internal": {
						"_payloadOffset(uint256)": "infinite"
					}
				},
				"methodIdentifiers": {
					"data1()": "9ffd85c4",
					"data2()": "e3a7fd75",
					"data3()": "fc26b0ab"
				}
			},
			"userdoc": {
				"methods": {}
			}
		}
	}
}