{
	"contracts/demo1.sol": {
		"Demo": {
			"abi": [
				{
					"inputs": [
						{
							"internalType": "uint256",
							"name": "_len",
							"type": "uint256"
						},
						{
							"internalType": "bytes",
							"name": "_menPtr",
							"type": "bytes"
						}
					],
					"stateMutability": "nonpayable",
					"type": "constructor"
				},
				{
					"inputs": [],
					"name": "getDataDE",
					"outputs": [
						{
							"internalType": "bool",
							"name": "",
							"type": "bool"
						}
					],
					"stateMutability": "view",
					"type": "function"
				},
				{
					"inputs": [],
					"name": "getDataEN",
					"outputs": [
						{
							"internalType": "bytes",
							"name": "",
							"type": "bytes"
						}
					],
					"stateMutability": "view",
					"type": "function"
				},
				{
					"inputs": [],
					"name": "rlpItem",
					"outputs": [
						{
							"internalType": "uint256",
							"name": "len",
							"type": "uint256"
						},
						{
							"internalType": "bytes",
							"name": "memPtr",
							"type": "bytes"
						}
					],
					"stateMutability": "view",
					"type": "function"
				}
			],
			"devdoc": {
				"author": "pouladzade@gmail.com",
				"details": "The SizeOf return the size of the solidity types in byte",
				"kind": "dev",
				"methods": {},
				"title": "SizeOf Copyright (c) 2016-2020 zpouladzade/Seriality",
				"version": 1
			},
			"evm": {
				"assembly": "    /* \"contracts/demo1.sol\":211:1579  contract Demo {\r... */\n  mstore(0x40, 0x80)\n    /* \"contracts/demo1.sol\":728:844  constructor(uint _len, bytes memory _menPtr){\r... */\n  callvalue\n  dup1\n  iszero\n  tag_1\n  jumpi\n  0x00\n  dup1\n  revert\ntag_1:\n  pop\n  mload(0x40)\n  sub(codesize, bytecodeSize)\n  dup1\n  bytecodeSize\n  dup4\n  codecopy\n  dup2\n  dup2\n  add\n  0x40\n  mstore\n  dup2\n  add\n  swap1\n  tag_2\n  swap2\n  swap1\n  tag_3\n  jump\t// in\ntag_2:\n    /* \"contracts/demo1.sol\":797:801  _len */\n  dup2\n    /* \"contracts/demo1.sol\":783:790  rlpItem */\n  0x00\n    /* \"contracts/demo1.sol\":783:794  rlpItem.len */\n  dup1\n  add\n    /* \"contracts/demo1.sol\":783:801  rlpItem.len = _len */\n  dup2\n  swap1\n  sstore\n  pop\n    /* \"contracts/demo1.sol\":829:836  _menPtr */\n  dup1\n    /* \"contracts/demo1.sol\":812:819  rlpItem */\n  0x00\n    /* \"contracts/demo1.sol\":812:826  rlpItem.memPtr */\n  0x01\n  add\n    /* \"contracts/demo1.sol\":812:836  rlpItem.memPtr = _menPtr */\n  swap1\n  dup1\n  mload\n  swap1\n  0x20\n  add\n  swap1\n  tag_6\n  swap3\n  swap2\n  swap1\n  tag_7\n  jump\t// in\ntag_6:\n  pop\n    /* \"contracts/demo1.sol\":728:844  constructor(uint _len, bytes memory _menPtr){\r... */\n  pop\n  pop\n    /* \"contracts/demo1.sol\":211:1579  contract Demo {\r... */\n  jump(tag_8)\ntag_7:\n  dup3\n  dup1\n  sload\n  tag_9\n  swap1\n  tag_10\n  jump\t// in\ntag_9:\n  swap1\n  0x00\n  mstore\n  keccak256(0x00, 0x20)\n  swap1\n  0x1f\n  add\n  0x20\n  swap1\n  div\n  dup2\n  add\n  swap3\n  dup3\n  tag_12\n  jumpi\n  0x00\n  dup6\n  sstore\n  jump(tag_11)\ntag_12:\n  dup3\n  0x1f\n  lt\n  tag_13\n  jumpi\n  dup1\n  mload\n  not(0xff)\n  and\n  dup4\n  dup1\n  add\n  or\n  dup6\n  sstore\n  jump(tag_11)\ntag_13:\n  dup3\n  dup1\n  add\n  0x01\n  add\n  dup6\n  sstore\n  dup3\n  iszero\n  tag_11\n  jumpi\n  swap2\n  dup3\n  add\ntag_14:\n  dup3\n  dup2\n  gt\n  iszero\n  tag_15\n  jumpi\n  dup3\n  mload\n  dup3\n  sstore\n  swap2\n  0x20\n  add\n  swap2\n  swap1\n  0x01\n  add\n  swap1\n  jump(tag_14)\ntag_15:\ntag_11:\n  pop\n  swap1\n  pop\n  tag_16\n  swap2\n  swap1\n  tag_17\n  jump\t// in\ntag_16:\n  pop\n  swap1\n  jump\t// out\ntag_17:\ntag_18:\n  dup1\n  dup3\n  gt\n  iszero\n  tag_19\n  jumpi\n  0x00\n  dup2\n  0x00\n  swap1\n  sstore\n  pop\n  0x01\n  add\n  jump(tag_18)\ntag_19:\n  pop\n  swap1\n  jump\t// out\n    /* \"#utility.yul\":7:426   */\ntag_21:\n    /* \"#utility.yul\":95:100   */\n  0x00\n    /* \"#utility.yul\":120:185   */\n  tag_23\n    /* \"#utility.yul\":136:184   */\n  tag_24\n    /* \"#utility.yul\":177:183   */\n  dup5\n    /* \"#utility.yul\":136:184   */\n  tag_25\n  jump\t// in\ntag_24:\n    /* \"#utility.yul\":120:185   */\n  tag_26\n  jump\t// in\ntag_23:\n    /* \"#utility.yul\":111:185   */\n  swap1\n  pop\n    /* \"#utility.yul\":208:214   */\n  dup3\n    /* \"#utility.yul\":201:206   */\n  dup2\n    /* \"#utility.yul\":194:215   */\n  mstore\n    /* \"#utility.yul\":246:250   */\n  0x20\n    /* \"#utility.yul\":239:244   */\n  dup2\n    /* \"#utility.yul\":235:251   */\n  add\n    /* \"#utility.yul\":284:287   */\n  dup5\n    /* \"#utility.yul\":275:281   */\n  dup5\n    /* \"#utility.yul\":270:273   */\n  dup5\n    /* \"#utility.yul\":266:282   */\n  add\n    /* \"#utility.yul\":263:288   */\n  gt\n    /* \"#utility.yul\":260:372   */\n  iszero\n  tag_27\n  jumpi\n    /* \"#utility.yul\":291:370   */\n  tag_28\n  tag_29\n  jump\t// in\ntag_28:\n    /* \"#utility.yul\":260:372   */\ntag_27:\n    /* \"#utility.yul\":381:420   */\n  tag_30\n    /* \"#utility.yul\":413:419   */\n  dup5\n    /* \"#utility.yul\":408:411   */\n  dup3\n    /* \"#utility.yul\":403:406   */\n  dup6\n    /* \"#utility.yul\":381:420   */\n  tag_31\n  jump\t// in\ntag_30:\n    /* \"#utility.yul\":101:426   */\n  pop\n    /* \"#utility.yul\":7:426   */\n  swap4\n  swap3\n  pop\n  pop\n  pop\n  jump\t// out\n    /* \"#utility.yul\":445:798   */\ntag_32:\n    /* \"#utility.yul\":511:516   */\n  0x00\n    /* \"#utility.yul\":560:563   */\n  dup3\n    /* \"#utility.yul\":553:557   */\n  0x1f\n    /* \"#utility.yul\":545:551   */\n  dup4\n    /* \"#utility.yul\":541:558   */\n  add\n    /* \"#utility.yul\":537:564   */\n  slt\n    /* \"#utility.yul\":527:649   */\n  tag_34\n  jumpi\n    /* \"#utility.yul\":568:647   */\n  tag_35\n  tag_36\n  jump\t// in\ntag_35:\n    /* \"#utility.yul\":527:649   */\ntag_34:\n    /* \"#utility.yul\":678:684   */\n  dup2\n    /* \"#utility.yul\":672:685   */\n  mload\n    /* \"#utility.yul\":703:792   */\n  tag_37\n    /* \"#utility.yul\":788:791   */\n  dup5\n    /* \"#utility.yul\":780:786   */\n  dup3\n    /* \"#utility.yul\":773:777   */\n  0x20\n    /* \"#utility.yul\":765:771   */\n  dup7\n    /* \"#utility.yul\":761:778   */\n  add\n    /* \"#utility.yul\":703:792   */\n  tag_21\n  jump\t// in\ntag_37:\n    /* \"#utility.yul\":694:792   */\n  swap2\n  pop\n    /* \"#utility.yul\":517:798   */\n  pop\n    /* \"#utility.yul\":445:798   */\n  swap3\n  swap2\n  pop\n  pop\n  jump\t// out\n    /* \"#utility.yul\":804:947   */\ntag_38:\n    /* \"#utility.yul\":861:866   */\n  0x00\n    /* \"#utility.yul\":892:898   */\n  dup2\n    /* \"#utility.yul\":886:899   */\n  mload\n    /* \"#utility.yul\":877:899   */\n  swap1\n  pop\n    /* \"#utility.yul\":908:941   */\n  tag_40\n    /* \"#utility.yul\":935:940   */\n  dup2\n    /* \"#utility.yul\":908:941   */\n  tag_41\n  jump\t// in\ntag_40:\n    /* \"#utility.yul\":804:947   */\n  swap3\n  swap2\n  pop\n  pop\n  jump\t// out\n    /* \"#utility.yul\":953:1631   */\ntag_3:\n    /* \"#utility.yul\":1041:1047   */\n  0x00\n    /* \"#utility.yul\":1049:1055   */\n  dup1\n    /* \"#utility.yul\":1098:1100   */\n  0x40\n    /* \"#utility.yul\":1086:1095   */\n  dup4\n    /* \"#utility.yul\":1077:1084   */\n  dup6\n    /* \"#utility.yul\":1073:1096   */\n  sub\n    /* \"#utility.yul\":1069:1101   */\n  slt\n    /* \"#utility.yul\":1066:1185   */\n  iszero\n  tag_43\n  jumpi\n    /* \"#utility.yul\":1104:1183   */\n  tag_44\n  tag_45\n  jump\t// in\ntag_44:\n    /* \"#utility.yul\":1066:1185   */\ntag_43:\n    /* \"#utility.yul\":1224:1225   */\n  0x00\n    /* \"#utility.yul\":1249:1313   */\n  tag_46\n    /* \"#utility.yul\":1305:1312   */\n  dup6\n    /* \"#utility.yul\":1296:1302   */\n  dup3\n    /* \"#utility.yul\":1285:1294   */\n  dup7\n    /* \"#utility.yul\":1281:1303   */\n  add\n    /* \"#utility.yul\":1249:1313   */\n  tag_38\n  jump\t// in\ntag_46:\n    /* \"#utility.yul\":1239:1313   */\n  swap3\n  pop\n    /* \"#utility.yul\":1195:1323   */\n  pop\n    /* \"#utility.yul\":1383:1385   */\n  0x20\n    /* \"#utility.yul\":1372:1381   */\n  dup4\n    /* \"#utility.yul\":1368:1386   */\n  add\n    /* \"#utility.yul\":1362:1387   */\n  mload\n    /* \"#utility.yul\":1414:1432   */\n  0xffffffffffffffff\n    /* \"#utility.yul\":1406:1412   */\n  dup2\n    /* \"#utility.yul\":1403:1433   */\n  gt\n    /* \"#utility.yul\":1400:1517   */\n  iszero\n  tag_47\n  jumpi\n    /* \"#utility.yul\":1436:1515   */\n  tag_48\n  tag_49\n  jump\t// in\ntag_48:\n    /* \"#utility.yul\":1400:1517   */\ntag_47:\n    /* \"#utility.yul\":1541:1614   */\n  tag_50\n    /* \"#utility.yul\":1606:1613   */\n  dup6\n    /* \"#utility.yul\":1597:1603   */\n  dup3\n    /* \"#utility.yul\":1586:1595   */\n  dup7\n    /* \"#utility.yul\":1582:1604   */\n  add\n    /* \"#utility.yul\":1541:1614   */\n  tag_32\n  jump\t// in\ntag_50:\n    /* \"#utility.yul\":1531:1614   */\n  swap2\n  pop\n    /* \"#utility.yul\":1333:1624   */\n  pop\n    /* \"#utility.yul\":953:1631   */\n  swap3\n  pop\n  swap3\n  swap1\n  pop\n  jump\t// out\n    /* \"#utility.yul\":1637:1766   */\ntag_26:\n    /* \"#utility.yul\":1671:1677   */\n  0x00\n    /* \"#utility.yul\":1698:1718   */\n  tag_52\n  tag_53\n  jump\t// in\ntag_52:\n    /* \"#utility.yul\":1688:1718   */\n  swap1\n  pop\n    /* \"#utility.yul\":1727:1760   */\n  tag_54\n    /* \"#utility.yul\":1755:1759   */\n  dup3\n    /* \"#utility.yul\":1747:1753   */\n  dup3\n    /* \"#utility.yul\":1727:1760   */\n  tag_55\n  jump\t// in\ntag_54:\n    /* \"#utility.yul\":1637:1766   */\n  swap2\n  swap1\n  pop\n  jump\t// out\n    /* \"#utility.yul\":1772:1847   */\ntag_53:\n    /* \"#utility.yul\":1805:1811   */\n  0x00\n    /* \"#utility.yul\":1838:1840   */\n  0x40\n    /* \"#utility.yul\":1832:1841   */\n  mload\n    /* \"#utility.yul\":1822:1841   */\n  swap1\n  pop\n    /* \"#utility.yul\":1772:1847   */\n  swap1\n  jump\t// out\n    /* \"#utility.yul\":1853:2160   */\ntag_25:\n    /* \"#utility.yul\":1914:1918   */\n  0x00\n    /* \"#utility.yul\":2004:2022   */\n  0xffffffffffffffff\n    /* \"#utility.yul\":1996:2002   */\n  dup3\n    /* \"#utility.yul\":1993:2023   */\n  gt\n    /* \"#utility.yul\":1990:2046   */\n  iszero\n  tag_58\n  jumpi\n    /* \"#utility.yul\":2026:2044   */\n  tag_59\n  tag_60\n  jump\t// in\ntag_59:\n    /* \"#utility.yul\":1990:2046   */\ntag_58:\n    /* \"#utility.yul\":2064:2093   */\n  tag_61\n    /* \"#utility.yul\":2086:2092   */\n  dup3\n    /* \"#utility.yul\":2064:2093   */\n  tag_62\n  jump\t// in\ntag_61:\n    /* \"#utility.yul\":2056:2093   */\n  swap1\n  pop\n    /* \"#utility.yul\":2148:2152   */\n  0x20\n    /* \"#utility.yul\":2142:2146   */\n  dup2\n    /* \"#utility.yul\":2138:2153   */\n  add\n    /* \"#utility.yul\":2130:2153   */\n  swap1\n  pop\n    /* \"#utility.yul\":1853:2160   */\n  swap2\n  swap1\n  pop\n  jump\t// out\n    /* \"#utility.yul\":2166:2243   */\ntag_63:\n    /* \"#utility.yul\":2203:2210   */\n  0x00\n    /* \"#utility.yul\":2232:2237   */\n  dup2\n    /* \"#utility.yul\":2221:2237   */\n  swap1\n  pop\n    /* \"#utility.yul\":2166:2243   */\n  swap2\n  swap1\n  pop\n  jump\t// out\n    /* \"#utility.yul\":2249:2556   */\ntag_31:\n    /* \"#utility.yul\":2317:2318   */\n  0x00\n    /* \"#utility.yul\":2327:2440   */\ntag_66:\n    /* \"#utility.yul\":2341:2347   */\n  dup4\n    /* \"#utility.yul\":2338:2339   */\n  dup2\n    /* \"#utility.yul\":2335:2348   */\n  lt\n    /* \"#utility.yul\":2327:2440   */\n  iszero\n  tag_68\n  jumpi\n    /* \"#utility.yul\":2426:2427   */\n  dup1\n    /* \"#utility.yul\":2421:2424   */\n  dup3\n    /* \"#utility.yul\":2417:2428   */\n  add\n    /* \"#utility.yul\":2411:2429   */\n  mload\n    /* \"#utility.yul\":2407:2408   */\n  dup2\n    /* \"#utility.yul\":2402:2405   */\n  dup5\n    /* \"#utility.yul\":2398:2409   */\n  add\n    /* \"#utility.yul\":2391:2430   */\n  mstore\n    /* \"#utility.yul\":2363:2365   */\n  0x20\n    /* \"#utility.yul\":2360:2361   */\n  dup2\n    /* \"#utility.yul\":2356:2366   */\n  add\n    /* \"#utility.yul\":2351:2366   */\n  swap1\n  pop\n    /* \"#utility.yul\":2327:2440   */\n  jump(tag_66)\ntag_68:\n    /* \"#utility.yul\":2458:2464   */\n  dup4\n    /* \"#utility.yul\":2455:2456   */\n  dup2\n    /* \"#utility.yul\":2452:2465   */\n  gt\n    /* \"#utility.yul\":2449:2550   */\n  iszero\n  tag_69\n  jumpi\n    /* \"#utility.yul\":2538:2539   */\n  0x00\n    /* \"#utility.yul\":2529:2535   */\n  dup5\n    /* \"#utility.yul\":2524:2527   */\n  dup5\n    /* \"#utility.yul\":2520:2536   */\n  add\n    /* \"#utility.yul\":2513:2540   */\n  mstore\n    /* \"#utility.yul\":2449:2550   */\ntag_69:\n    /* \"#utility.yul\":2298:2556   */\n  pop\n    /* \"#utility.yul\":2249:2556   */\n  pop\n  pop\n  pop\n  jump\t// out\n    /* \"#utility.yul\":2562:2882   */\ntag_10:\n    /* \"#utility.yul\":2606:2612   */\n  0x00\n    /* \"#utility.yul\":2643:2644   */\n  0x02\n    /* \"#utility.yul\":2637:2641   */\n  dup3\n    /* \"#utility.yul\":2633:2645   */\n  div\n    /* \"#utility.yul\":2623:2645   */\n  swap1\n  pop\n    /* \"#utility.yul\":2690:2691   */\n  0x01\n    /* \"#utility.yul\":2684:2688   */\n  dup3\n    /* \"#utility.yul\":2680:2692   */\n  and\n    /* \"#utility.yul\":2711:2729   */\n  dup1\n    /* \"#utility.yul\":2701:2782   */\n  tag_71\n  jumpi\n    /* \"#utility.yul\":2767:2771   */\n  0x7f\n    /* \"#utility.yul\":2759:2765   */\n  dup3\n    /* \"#utility.yul\":2755:2772   */\n  and\n    /* \"#utility.yul\":2745:2772   */\n  swap2\n  pop\n    /* \"#utility.yul\":2701:2782   */\ntag_71:\n    /* \"#utility.yul\":2829:2831   */\n  0x20\n    /* \"#utility.yul\":2821:2827   */\n  dup3\n    /* \"#utility.yul\":2818:2832   */\n  lt\n    /* \"#utility.yul\":2798:2816   */\n  dup2\n    /* \"#utility.yul\":2795:2833   */\n  eq\n    /* \"#utility.yul\":2792:2876   */\n  iszero\n  tag_72\n  jumpi\n    /* \"#utility.yul\":2848:2866   */\n  tag_73\n  tag_74\n  jump\t// in\ntag_73:\n    /* \"#utility.yul\":2792:2876   */\ntag_72:\n    /* \"#utility.yul\":2613:2882   */\n  pop\n    /* \"#utility.yul\":2562:2882   */\n  swap2\n  swap1\n  pop\n  jump\t// out\n    /* \"#utility.yul\":2888:3169   */\ntag_55:\n    /* \"#utility.yul\":2971:2998   */\n  tag_76\n    /* \"#utility.yul\":2993:2997   */\n  dup3\n    /* \"#utility.yul\":2971:2998   */\n  tag_62\n  jump\t// in\ntag_76:\n    /* \"#utility.yul\":2963:2969   */\n  dup2\n    /* \"#utility.yul\":2959:2999   */\n  add\n    /* \"#utility.yul\":3101:3107   */\n  dup2\n    /* \"#utility.yul\":3089:3099   */\n  dup2\n    /* \"#utility.yul\":3086:3108   */\n  lt\n    /* \"#utility.yul\":3065:3083   */\n  0xffffffffffffffff\n    /* \"#utility.yul\":3053:3063   */\n  dup3\n    /* \"#utility.yul\":3050:3084   */\n  gt\n    /* \"#utility.yul\":3047:3109   */\n  or\n    /* \"#utility.yul\":3044:3132   */\n  iszero\n  tag_77\n  jumpi\n    /* \"#utility.yul\":3112:3130   */\n  tag_78\n  tag_60\n  jump\t// in\ntag_78:\n    /* \"#utility.yul\":3044:3132   */\ntag_77:\n    /* \"#utility.yul\":3152:3162   */\n  dup1\n    /* \"#utility.yul\":3148:3150   */\n  0x40\n    /* \"#utility.yul\":3141:3163   */\n  mstore\n    /* \"#utility.yul\":2931:3169   */\n  pop\n    /* \"#utility.yul\":2888:3169   */\n  pop\n  pop\n  jump\t// out\n    /* \"#utility.yul\":3175:3355   */\ntag_74:\n    /* \"#utility.yul\":3223:3300   */\n  0x4e487b7100000000000000000000000000000000000000000000000000000000\n    /* \"#utility.yul\":3220:3221   */\n  0x00\n    /* \"#utility.yul\":3213:3301   */\n  mstore\n    /* \"#utility.yul\":3320:3324   */\n  0x22\n    /* \"#utility.yul\":3317:3318   */\n  0x04\n    /* \"#utility.yul\":3310:3325   */\n  mstore\n    /* \"#utility.yul\":3344:3348   */\n  0x24\n    /* \"#utility.yul\":3341:3342   */\n  0x00\n    /* \"#utility.yul\":3334:3349   */\n  revert\n    /* \"#utility.yul\":3361:3541   */\ntag_60:\n    /* \"#utility.yul\":3409:3486   */\n  0x4e487b7100000000000000000000000000000000000000000000000000000000\n    /* \"#utility.yul\":3406:3407   */\n  0x00\n    /* \"#utility.yul\":3399:3487   */\n  mstore\n    /* \"#utility.yul\":3506:3510   */\n  0x41\n    /* \"#utility.yul\":3503:3504   */\n  0x04\n    /* \"#utility.yul\":3496:3511   */\n  mstore\n    /* \"#utility.yul\":3530:3534   */\n  0x24\n    /* \"#utility.yul\":3527:3528   */\n  0x00\n    /* \"#utility.yul\":3520:3535   */\n  revert\n    /* \"#utility.yul\":3547:3664   */\ntag_36:\n    /* \"#utility.yul\":3656:3657   */\n  0x00\n    /* \"#utility.yul\":3653:3654   */\n  dup1\n    /* \"#utility.yul\":3646:3658   */\n  revert\n    /* \"#utility.yul\":3670:3787   */\ntag_29:\n    /* \"#utility.yul\":3779:3780   */\n  0x00\n    /* \"#utility.yul\":3776:3777   */\n  dup1\n    /* \"#utility.yul\":3769:3781   */\n  revert\n    /* \"#utility.yul\":3793:3910   */\ntag_49:\n    /* \"#utility.yul\":3902:3903   */\n  0x00\n    /* \"#utility.yul\":3899:3900   */\n  dup1\n    /* \"#utility.yul\":3892:3904   */\n  revert\n    /* \"#utility.yul\":3916:4033   */\ntag_45:\n    /* \"#utility.yul\":4025:4026   */\n  0x00\n    /* \"#utility.yul\":4022:4023   */\n  dup1\n    /* \"#utility.yul\":4015:4027   */\n  revert\n    /* \"#utility.yul\":4039:4141   */\ntag_62:\n    /* \"#utility.yul\":4080:4086   */\n  0x00\n    /* \"#utility.yul\":4131:4133   */\n  0x1f\n    /* \"#utility.yul\":4127:4134   */\n  not\n    /* \"#utility.yul\":4122:4124   */\n  0x1f\n    /* \"#utility.yul\":4115:4120   */\n  dup4\n    /* \"#utility.yul\":4111:4125   */\n  add\n    /* \"#utility.yul\":4107:4135   */\n  and\n    /* \"#utility.yul\":4097:4135   */\n  swap1\n  pop\n    /* \"#utility.yul\":4039:4141   */\n  swap2\n  swap1\n  pop\n  jump\t// out\n    /* \"#utility.yul\":4147:4269   */\ntag_41:\n    /* \"#utility.yul\":4220:4244   */\n  tag_87\n    /* \"#utility.yul\":4238:4243   */\n  dup2\n    /* \"#utility.yul\":4220:4244   */\n  tag_63\n  jump\t// in\ntag_87:\n    /* \"#utility.yul\":4213:4218   */\n  dup2\n    /* \"#utility.yul\":4210:4245   */\n  eq\n    /* \"#utility.yul\":4200:4263   */\n  tag_88\n  jumpi\n    /* \"#utility.yul\":4259:4260   */\n  0x00\n    /* \"#utility.yul\":4256:4257   */\n  dup1\n    /* \"#utility.yul\":4249:4261   */\n  revert\n    /* \"#utility.yul\":4200:4263   */\ntag_88:\n    /* \"#utility.yul\":4147:4269   */\n  pop\n  jump\t// out\n    /* \"contracts/demo1.sol\":211:1579  contract Demo {\r... */\ntag_8:\n  dataSize(sub_0)\n  dup1\n  dataOffset(sub_0)\n  0x00\n  codecopy\n  0x00\n  return\nstop\n\nsub_0: assembly {\n        /* \"contracts/demo1.sol\":211:1579  contract Demo {\r... */\n      mstore(0x40, 0x80)\n      callvalue\n      dup1\n      iszero\n      tag_1\n      jumpi\n      0x00\n      dup1\n      revert\n    tag_1:\n      pop\n      jumpi(tag_2, lt(calldatasize, 0x04))\n      shr(0xe0, calldataload(0x00))\n      dup1\n      0x46f594ea\n      eq\n      tag_3\n      jumpi\n      dup1\n      0xa699fb03\n      eq\n      tag_4\n      jumpi\n      dup1\n      0xbb0bd9d5\n      eq\n      tag_5\n      jumpi\n    tag_2:\n      0x00\n      dup1\n      revert\n        /* \"contracts/demo1.sol\":952:1051  function getDataEN() public view returns(bytes memory){\r... */\n    tag_3:\n      tag_6\n      tag_7\n      jump\t// in\n    tag_6:\n      mload(0x40)\n      tag_8\n      swap2\n      swap1\n      tag_9\n      jump\t// in\n    tag_8:\n      mload(0x40)\n      dup1\n      swap2\n      sub\n      swap1\n      return\n        /* \"contracts/demo1.sol\":697:719  RLPItem public rlpItem */\n    tag_4:\n      tag_10\n      tag_11\n      jump\t// in\n    tag_10:\n      mload(0x40)\n      tag_12\n      swap3\n      swap2\n      swap1\n      tag_13\n      jump\t// in\n    tag_12:\n      mload(0x40)\n      dup1\n      swap2\n      sub\n      swap1\n      return\n        /* \"contracts/demo1.sol\":852:944  function getDataDE() public view returns(bool){\r... */\n    tag_5:\n      tag_14\n      tag_15\n      jump\t// in\n    tag_14:\n      mload(0x40)\n      tag_16\n      swap2\n      swap1\n      tag_17\n      jump\t// in\n    tag_16:\n      mload(0x40)\n      dup1\n      swap2\n      sub\n      swap1\n      return\n        /* \"contracts/demo1.sol\":952:1051  function getDataEN() public view returns(bytes memory){\r... */\n    tag_7:\n        /* \"contracts/demo1.sol\":993:1005  bytes memory */\n      0x60\n        /* \"contracts/demo1.sol\":1023:1040  encodeBool(false) */\n      tag_19\n        /* \"contracts/demo1.sol\":1034:1039  false */\n      0x00\n        /* \"contracts/demo1.sol\":1023:1033  encodeBool */\n      tag_20\n        /* \"contracts/demo1.sol\":1023:1040  encodeBool(false) */\n      jump\t// in\n    tag_19:\n        /* \"contracts/demo1.sol\":1016:1040  return encodeBool(false) */\n      swap1\n      pop\n        /* \"contracts/demo1.sol\":952:1051  function getDataEN() public view returns(bytes memory){\r... */\n      swap1\n      jump\t// out\n        /* \"contracts/demo1.sol\":697:719  RLPItem public rlpItem */\n    tag_11:\n      0x00\n      dup1\n      0x00\n      add\n      sload\n      swap1\n      dup1\n      0x01\n      add\n      dup1\n      sload\n      tag_21\n      swap1\n      tag_22\n      jump\t// in\n    tag_21:\n      dup1\n      0x1f\n      add\n      0x20\n      dup1\n      swap2\n      div\n      mul\n      0x20\n      add\n      mload(0x40)\n      swap1\n      dup2\n      add\n      0x40\n      mstore\n      dup1\n      swap3\n      swap2\n      swap1\n      dup2\n      dup2\n      mstore\n      0x20\n      add\n      dup3\n      dup1\n      sload\n      tag_23\n      swap1\n      tag_22\n      jump\t// in\n    tag_23:\n      dup1\n      iszero\n      tag_24\n      jumpi\n      dup1\n      0x1f\n      lt\n      tag_25\n      jumpi\n      0x0100\n      dup1\n      dup4\n      sload\n      div\n      mul\n      dup4\n      mstore\n      swap2\n      0x20\n      add\n      swap2\n      jump(tag_24)\n    tag_25:\n      dup3\n      add\n      swap2\n      swap1\n      0x00\n      mstore\n      keccak256(0x00, 0x20)\n      swap1\n    tag_26:\n      dup2\n      sload\n      dup2\n      mstore\n      swap1\n      0x01\n      add\n      swap1\n      0x20\n      add\n      dup1\n      dup4\n      gt\n      tag_26\n      jumpi\n      dup3\n      swap1\n      sub\n      0x1f\n      and\n      dup3\n      add\n      swap2\n    tag_24:\n      pop\n      pop\n      pop\n      pop\n      pop\n      swap1\n      pop\n      dup3\n      jump\t// out\n        /* \"contracts/demo1.sol\":852:944  function getDataDE() public view returns(bool){\r... */\n    tag_15:\n        /* \"contracts/demo1.sol\":893:897  bool */\n      0x00\n        /* \"contracts/demo1.sol\":915:933  toBoolean(rlpItem) */\n      tag_28\n        /* \"contracts/demo1.sol\":925:932  rlpItem */\n      0x00\n        /* \"contracts/demo1.sol\":915:933  toBoolean(rlpItem) */\n      mload(0x40)\n      dup1\n      0x40\n      add\n      0x40\n      mstore\n      swap1\n      dup2\n      0x00\n      dup3\n      add\n      sload\n      dup2\n      mstore\n      0x20\n      add\n      0x01\n      dup3\n      add\n      dup1\n      sload\n      tag_29\n      swap1\n      tag_22\n      jump\t// in\n    tag_29:\n      dup1\n      0x1f\n      add\n      0x20\n      dup1\n      swap2\n      div\n      mul\n      0x20\n      add\n      mload(0x40)\n      swap1\n      dup2\n      add\n      0x40\n      mstore\n      dup1\n      swap3\n      swap2\n      swap1\n      dup2\n      dup2\n      mstore\n      0x20\n      add\n      dup3\n      dup1\n      sload\n      tag_30\n      swap1\n      tag_22\n      jump\t// in\n    tag_30:\n      dup1\n      iszero\n      tag_31\n      jumpi\n      dup1\n      0x1f\n      lt\n      tag_32\n      jumpi\n      0x0100\n      dup1\n      dup4\n      sload\n      div\n      mul\n      dup4\n      mstore\n      swap2\n      0x20\n      add\n      swap2\n      jump(tag_31)\n    tag_32:\n      dup3\n      add\n      swap2\n      swap1\n      0x00\n      mstore\n      keccak256(0x00, 0x20)\n      swap1\n    tag_33:\n      dup2\n      sload\n      dup2\n      mstore\n      swap1\n      0x01\n      add\n      swap1\n      0x20\n      add\n      dup1\n      dup4\n      gt\n      tag_33\n      jumpi\n      dup3\n      swap1\n      sub\n      0x1f\n      and\n      dup3\n      add\n      swap2\n    tag_31:\n      pop\n      pop\n      pop\n      pop\n      pop\n      dup2\n      mstore\n      pop\n      pop\n        /* \"contracts/demo1.sol\":915:924  toBoolean */\n      tag_34\n        /* \"contracts/demo1.sol\":915:933  toBoolean(rlpItem) */\n      jump\t// in\n    tag_28:\n        /* \"contracts/demo1.sol\":908:933  return toBoolean(rlpItem) */\n      swap1\n      pop\n        /* \"contracts/demo1.sol\":852:944  function getDataDE() public view returns(bool){\r... */\n      swap1\n      jump\t// out\n        /* \"contracts/demo1.sol\":1368:1576  function encodeBool(bool self) internal pure returns (bytes memory) {\r... */\n    tag_20:\n        /* \"contracts/demo1.sol\":1422:1434  bytes memory */\n      0x60\n        /* \"contracts/demo1.sol\":1447:1462  bytes memory rs */\n      0x00\n        /* \"contracts/demo1.sol\":1475:1476  1 */\n      0x01\n        /* \"contracts/demo1.sol\":1465:1477  new bytes(1) */\n      0xffffffffffffffff\n      dup2\n      gt\n      iszero\n      tag_36\n      jumpi\n      tag_37\n      tag_38\n      jump\t// in\n    tag_37:\n    tag_36:\n      mload(0x40)\n      swap1\n      dup1\n      dup3\n      mstore\n      dup1\n      0x1f\n      add\n      not(0x1f)\n      and\n      0x20\n      add\n      dup3\n      add\n      0x40\n      mstore\n      dup1\n      iszero\n      tag_39\n      jumpi\n      dup2\n      0x20\n      add\n      0x01\n      dup3\n      mul\n      dup1\n      calldatasize\n      dup4\n      calldatacopy\n      dup1\n      dup3\n      add\n      swap2\n      pop\n      pop\n      swap1\n      pop\n    tag_39:\n      pop\n        /* \"contracts/demo1.sol\":1447:1477  bytes memory rs = new bytes(1) */\n      swap1\n      pop\n        /* \"contracts/demo1.sol\":1492:1496  self */\n      dup3\n        /* \"contracts/demo1.sol\":1488:1549  if (self) {\r... */\n      iszero\n      tag_40\n      jumpi\n        /* \"contracts/demo1.sol\":1534:1535  1 */\n      0x01\n        /* \"contracts/demo1.sol\":1521:1537  bytes1(uint8(1)) */\n      0xf8\n      shl\n        /* \"contracts/demo1.sol\":1513:1515  rs */\n      dup2\n        /* \"contracts/demo1.sol\":1516:1517  0 */\n      0x00\n        /* \"contracts/demo1.sol\":1513:1518  rs[0] */\n      dup2\n      mload\n      dup2\n      lt\n      tag_41\n      jumpi\n      tag_42\n      tag_43\n      jump\t// in\n    tag_42:\n    tag_41:\n      0x20\n      add\n      add\n        /* \"contracts/demo1.sol\":1513:1537  rs[0] = bytes1(uint8(1)) */\n      swap1\n      not(0xffffffffffffffffffffffffffffffffffffffffffffffffffffffffffffff)\n      and\n      swap1\n      dup2\n      0x00\n      byte\n      swap1\n      mstore8\n      pop\n        /* \"contracts/demo1.sol\":1488:1549  if (self) {\r... */\n    tag_40:\n        /* \"contracts/demo1.sol\":1566:1568  rs */\n      dup1\n        /* \"contracts/demo1.sol\":1559:1568  return rs */\n      swap2\n      pop\n      pop\n        /* \"contracts/demo1.sol\":1368:1576  function encodeBool(bool self) internal pure returns (bytes memory) {\r... */\n      swap2\n      swap1\n      pop\n      jump\t// out\n        /* \"contracts/demo1.sol\":1059:1358  function toBoolean(RLPItem memory item) internal pure returns (bool) {\r... */\n    tag_34:\n        /* \"contracts/demo1.sol\":1122:1126  bool */\n      0x00\n        /* \"contracts/demo1.sol\":1159:1160  1 */\n      0x01\n        /* \"contracts/demo1.sol\":1147:1151  item */\n      dup3\n        /* \"contracts/demo1.sol\":1147:1155  item.len */\n      0x00\n      add\n      mload\n        /* \"contracts/demo1.sol\":1147:1160  item.len == 1 */\n      eq\n        /* \"contracts/demo1.sol\":1139:1161  require(item.len == 1) */\n      tag_45\n      jumpi\n      0x00\n      dup1\n      revert\n    tag_45:\n        /* \"contracts/demo1.sol\":1172:1183  uint result */\n      0x00\n        /* \"contracts/demo1.sol\":1194:1213  bytes memory memPtr */\n      dup1\n        /* \"contracts/demo1.sol\":1216:1220  item */\n      dup4\n        /* \"contracts/demo1.sol\":1216:1227  item.memPtr */\n      0x20\n      add\n      mload\n        /* \"contracts/demo1.sol\":1194:1227  bytes memory memPtr = item.memPtr */\n      swap1\n      pop\n        /* \"contracts/demo1.sol\":1286:1292  memPtr */\n      dup1\n        /* \"contracts/demo1.sol\":1280:1293  mload(memPtr) */\n      mload\n        /* \"contracts/demo1.sol\":1277:1278  0 */\n      0x00\n        /* \"contracts/demo1.sol\":1272:1294  byte(0, mload(memPtr)) */\n      byte\n        /* \"contracts/demo1.sol\":1262:1294  result := byte(0, mload(memPtr)) */\n      swap2\n      pop\n        /* \"contracts/demo1.sol\":1334:1335  0 */\n      0x00\n        /* \"contracts/demo1.sol\":1324:1330  result */\n      dup3\n        /* \"contracts/demo1.sol\":1324:1335  result == 0 */\n      eq\n        /* \"contracts/demo1.sol\":1324:1350  result == 0 ? false : true */\n      tag_46\n      jumpi\n        /* \"contracts/demo1.sol\":1346:1350  true */\n      0x01\n        /* \"contracts/demo1.sol\":1324:1350  result == 0 ? false : true */\n      jump(tag_47)\n    tag_46:\n        /* \"contracts/demo1.sol\":1338:1343  false */\n      0x00\n        /* \"contracts/demo1.sol\":1324:1350  result == 0 ? false : true */\n    tag_47:\n        /* \"contracts/demo1.sol\":1317:1350  return result == 0 ? false : true */\n      swap3\n      pop\n      pop\n      pop\n        /* \"contracts/demo1.sol\":1059:1358  function toBoolean(RLPItem memory item) internal pure returns (bool) {\r... */\n      swap2\n      swap1\n      pop\n      jump\t// out\n        /* \"#utility.yul\":7:116   */\n    tag_49:\n        /* \"#utility.yul\":88:109   */\n      tag_51\n        /* \"#utility.yul\":103:108   */\n      dup2\n        /* \"#utility.yul\":88:109   */\n      tag_52\n      jump\t// in\n    tag_51:\n        /* \"#utility.yul\":83:86   */\n      dup3\n        /* \"#utility.yul\":76:110   */\n      mstore\n        /* \"#utility.yul\":7:116   */\n      pop\n      pop\n      jump\t// out\n        /* \"#utility.yul\":122:482   */\n    tag_53:\n        /* \"#utility.yul\":208:211   */\n      0x00\n        /* \"#utility.yul\":236:274   */\n      tag_55\n        /* \"#utility.yul\":268:273   */\n      dup3\n        /* \"#utility.yul\":236:274   */\n      tag_56\n      jump\t// in\n    tag_55:\n        /* \"#utility.yul\":290:360   */\n      tag_57\n        /* \"#utility.yul\":353:359   */\n      dup2\n        /* \"#utility.yul\":348:351   */\n      dup6\n        /* \"#utility.yul\":290:360   */\n      tag_58\n      jump\t// in\n    tag_57:\n        /* \"#utility.yul\":283:360   */\n      swap4\n      pop\n        /* \"#utility.yul\":369:421   */\n      tag_59\n        /* \"#utility.yul\":414:420   */\n      dup2\n        /* \"#utility.yul\":409:412   */\n      dup6\n        /* \"#utility.yul\":402:406   */\n      0x20\n        /* \"#utility.yul\":395:400   */\n      dup7\n        /* \"#utility.yul\":391:407   */\n      add\n        /* \"#utility.yul\":369:421   */\n      tag_60\n      jump\t// in\n    tag_59:\n        /* \"#utility.yul\":446:475   */\n      tag_61\n        /* \"#utility.yul\":468:474   */\n      dup2\n        /* \"#utility.yul\":446:475   */\n      tag_62\n      jump\t// in\n    tag_61:\n        /* \"#utility.yul\":441:444   */\n      dup5\n        /* \"#utility.yul\":437:476   */\n      add\n        /* \"#utility.yul\":430:476   */\n      swap2\n      pop\n        /* \"#utility.yul\":212:482   */\n      pop\n        /* \"#utility.yul\":122:482   */\n      swap3\n      swap2\n      pop\n      pop\n      jump\t// out\n        /* \"#utility.yul\":488:606   */\n    tag_63:\n        /* \"#utility.yul\":575:599   */\n      tag_65\n        /* \"#utility.yul\":593:598   */\n      dup2\n        /* \"#utility.yul\":575:599   */\n      tag_66\n      jump\t// in\n    tag_65:\n        /* \"#utility.yul\":570:573   */\n      dup3\n        /* \"#utility.yul\":563:600   */\n      mstore\n        /* \"#utility.yul\":488:606   */\n      pop\n      pop\n      jump\t// out\n        /* \"#utility.yul\":612:822   */\n    tag_17:\n        /* \"#utility.yul\":699:703   */\n      0x00\n        /* \"#utility.yul\":737:739   */\n      0x20\n        /* \"#utility.yul\":726:735   */\n      dup3\n        /* \"#utility.yul\":722:740   */\n      add\n        /* \"#utility.yul\":714:740   */\n      swap1\n      pop\n        /* \"#utility.yul\":750:815   */\n      tag_68\n        /* \"#utility.yul\":812:813   */\n      0x00\n        /* \"#utility.yul\":801:810   */\n      dup4\n        /* \"#utility.yul\":797:814   */\n      add\n        /* \"#utility.yul\":788:794   */\n      dup5\n        /* \"#utility.yul\":750:815   */\n      tag_49\n      jump\t// in\n    tag_68:\n        /* \"#utility.yul\":612:822   */\n      swap3\n      swap2\n      pop\n      pop\n      jump\t// out\n        /* \"#utility.yul\":828:1137   */\n    tag_9:\n        /* \"#utility.yul\":939:943   */\n      0x00\n        /* \"#utility.yul\":977:979   */\n      0x20\n        /* \"#utility.yul\":966:975   */\n      dup3\n        /* \"#utility.yul\":962:980   */\n      add\n        /* \"#utility.yul\":954:980   */\n      swap1\n      pop\n        /* \"#utility.yul\":1026:1035   */\n      dup2\n        /* \"#utility.yul\":1020:1024   */\n      dup2\n        /* \"#utility.yul\":1016:1036   */\n      sub\n        /* \"#utility.yul\":1012:1013   */\n      0x00\n        /* \"#utility.yul\":1001:1010   */\n      dup4\n        /* \"#utility.yul\":997:1014   */\n      add\n        /* \"#utility.yul\":990:1037   */\n      mstore\n        /* \"#utility.yul\":1054:1130   */\n      tag_70\n        /* \"#utility.yul\":1125:1129   */\n      dup2\n        /* \"#utility.yul\":1116:1122   */\n      dup5\n        /* \"#utility.yul\":1054:1130   */\n      tag_53\n      jump\t// in\n    tag_70:\n        /* \"#utility.yul\":1046:1130   */\n      swap1\n      pop\n        /* \"#utility.yul\":828:1137   */\n      swap3\n      swap2\n      pop\n      pop\n      jump\t// out\n        /* \"#utility.yul\":1143:1562   */\n    tag_13:\n        /* \"#utility.yul\":1282:1286   */\n      0x00\n        /* \"#utility.yul\":1320:1322   */\n      0x40\n        /* \"#utility.yul\":1309:1318   */\n      dup3\n        /* \"#utility.yul\":1305:1323   */\n      add\n        /* \"#utility.yul\":1297:1323   */\n      swap1\n      pop\n        /* \"#utility.yul\":1333:1404   */\n      tag_72\n        /* \"#utility.yul\":1401:1402   */\n      0x00\n        /* \"#utility.yul\":1390:1399   */\n      dup4\n        /* \"#utility.yul\":1386:1403   */\n      add\n        /* \"#utility.yul\":1377:1383   */\n      dup6\n        /* \"#utility.yul\":1333:1404   */\n      tag_63\n      jump\t// in\n    tag_72:\n        /* \"#utility.yul\":1451:1460   */\n      dup2\n        /* \"#utility.yul\":1445:1449   */\n      dup2\n        /* \"#utility.yul\":1441:1461   */\n      sub\n        /* \"#utility.yul\":1436:1438   */\n      0x20\n        /* \"#utility.yul\":1425:1434   */\n      dup4\n        /* \"#utility.yul\":1421:1439   */\n      add\n        /* \"#utility.yul\":1414:1462   */\n      mstore\n        /* \"#utility.yul\":1479:1555   */\n      tag_73\n        /* \"#utility.yul\":1550:1554   */\n      dup2\n        /* \"#utility.yul\":1541:1547   */\n      dup5\n        /* \"#utility.yul\":1479:1555   */\n      tag_53\n      jump\t// in\n    tag_73:\n        /* \"#utility.yul\":1471:1555   */\n      swap1\n      pop\n        /* \"#utility.yul\":1143:1562   */\n      swap4\n      swap3\n      pop\n      pop\n      pop\n      jump\t// out\n        /* \"#utility.yul\":1568:1666   */\n    tag_56:\n        /* \"#utility.yul\":1619:1625   */\n      0x00\n        /* \"#utility.yul\":1653:1658   */\n      dup2\n        /* \"#utility.yul\":1647:1659   */\n      mload\n        /* \"#utility.yul\":1637:1659   */\n      swap1\n      pop\n        /* \"#utility.yul\":1568:1666   */\n      swap2\n      swap1\n      pop\n      jump\t// out\n        /* \"#utility.yul\":1672:1840   */\n    tag_58:\n        /* \"#utility.yul\":1755:1766   */\n      0x00\n        /* \"#utility.yul\":1789:1795   */\n      dup3\n        /* \"#utility.yul\":1784:1787   */\n      dup3\n        /* \"#utility.yul\":1777:1796   */\n      mstore\n        /* \"#utility.yul\":1829:1833   */\n      0x20\n        /* \"#utility.yul\":1824:1827   */\n      dup3\n        /* \"#utility.yul\":1820:1834   */\n      add\n        /* \"#utility.yul\":1805:1834   */\n      swap1\n      pop\n        /* \"#utility.yul\":1672:1840   */\n      swap3\n      swap2\n      pop\n      pop\n      jump\t// out\n        /* \"#utility.yul\":1846:1936   */\n    tag_52:\n        /* \"#utility.yul\":1880:1887   */\n      0x00\n        /* \"#utility.yul\":1923:1928   */\n      dup2\n        /* \"#utility.yul\":1916:1929   */\n      iszero\n        /* \"#utility.yul\":1909:1930   */\n      iszero\n        /* \"#utility.yul\":1898:1930   */\n      swap1\n      pop\n        /* \"#utility.yul\":1846:1936   */\n      swap2\n      swap1\n      pop\n      jump\t// out\n        /* \"#utility.yul\":1942:2019   */\n    tag_66:\n        /* \"#utility.yul\":1979:1986   */\n      0x00\n        /* \"#utility.yul\":2008:2013   */\n      dup2\n        /* \"#utility.yul\":1997:2013   */\n      swap1\n      pop\n        /* \"#utility.yul\":1942:2019   */\n      swap2\n      swap1\n      pop\n      jump\t// out\n        /* \"#utility.yul\":2025:2332   */\n    tag_60:\n        /* \"#utility.yul\":2093:2094   */\n      0x00\n        /* \"#utility.yul\":2103:2216   */\n    tag_79:\n        /* \"#utility.yul\":2117:2123   */\n      dup4\n        /* \"#utility.yul\":2114:2115   */\n      dup2\n        /* \"#utility.yul\":2111:2124   */\n      lt\n        /* \"#utility.yul\":2103:2216   */\n      iszero\n      tag_81\n      jumpi\n        /* \"#utility.yul\":2202:2203   */\n      dup1\n        /* \"#utility.yul\":2197:2200   */\n      dup3\n        /* \"#utility.yul\":2193:2204   */\n      add\n        /* \"#utility.yul\":2187:2205   */\n      mload\n        /* \"#utility.yul\":2183:2184   */\n      dup2\n        /* \"#utility.yul\":2178:2181   */\n      dup5\n        /* \"#utility.yul\":2174:2185   */\n      add\n        /* \"#utility.yul\":2167:2206   */\n      mstore\n        /* \"#utility.yul\":2139:2141   */\n      0x20\n        /* \"#utility.yul\":2136:2137   */\n      dup2\n        /* \"#utility.yul\":2132:2142   */\n      add\n        /* \"#utility.yul\":2127:2142   */\n      swap1\n      pop\n        /* \"#utility.yul\":2103:2216   */\n      jump(tag_79)\n    tag_81:\n        /* \"#utility.yul\":2234:2240   */\n      dup4\n        /* \"#utility.yul\":2231:2232   */\n      dup2\n        /* \"#utility.yul\":2228:2241   */\n      gt\n        /* \"#utility.yul\":2225:2326   */\n      iszero\n      tag_82\n      jumpi\n        /* \"#utility.yul\":2314:2315   */\n      0x00\n        /* \"#utility.yul\":2305:2311   */\n      dup5\n        /* \"#utility.yul\":2300:2303   */\n      dup5\n        /* \"#utility.yul\":2296:2312   */\n      add\n        /* \"#utility.yul\":2289:2316   */\n      mstore\n        /* \"#utility.yul\":2225:2326   */\n    tag_82:\n        /* \"#utility.yul\":2074:2332   */\n      pop\n        /* \"#utility.yul\":2025:2332   */\n      pop\n      pop\n      pop\n      jump\t// out\n        /* \"#utility.yul\":2338:2658   */\n    tag_22:\n        /* \"#utility.yul\":2382:2388   */\n      0x00\n        /* \"#utility.yul\":2419:2420   */\n      0x02\n        /* \"#utility.yul\":2413:2417   */\n      dup3\n        /* \"#utility.yul\":2409:2421   */\n      div\n        /* \"#utility.yul\":2399:2421   */\n      swap1\n      pop\n        /* \"#utility.yul\":2466:2467   */\n      0x01\n        /* \"#utility.yul\":2460:2464   */\n      dup3\n        /* \"#utility.yul\":2456:2468   */\n      and\n        /* \"#utility.yul\":2487:2505   */\n      dup1\n        /* \"#utility.yul\":2477:2558   */\n      tag_84\n      jumpi\n        /* \"#utility.yul\":2543:2547   */\n      0x7f\n        /* \"#utility.yul\":2535:2541   */\n      dup3\n        /* \"#utility.yul\":2531:2548   */\n      and\n        /* \"#utility.yul\":2521:2548   */\n      swap2\n      pop\n        /* \"#utility.yul\":2477:2558   */\n    tag_84:\n        /* \"#utility.yul\":2605:2607   */\n      0x20\n        /* \"#utility.yul\":2597:2603   */\n      dup3\n        /* \"#utility.yul\":2594:2608   */\n      lt\n        /* \"#utility.yul\":2574:2592   */\n      dup2\n        /* \"#utility.yul\":2571:2609   */\n      eq\n        /* \"#utility.yul\":2568:2652   */\n      iszero\n      tag_85\n      jumpi\n        /* \"#utility.yul\":2624:2642   */\n      tag_86\n      tag_87\n      jump\t// in\n    tag_86:\n        /* \"#utility.yul\":2568:2652   */\n    tag_85:\n        /* \"#utility.yul\":2389:2658   */\n      pop\n        /* \"#utility.yul\":2338:2658   */\n      swap2\n      swap1\n      pop\n      jump\t// out\n        /* \"#utility.yul\":2664:2844   */\n    tag_87:\n        /* \"#utility.yul\":2712:2789   */\n      0x4e487b7100000000000000000000000000000000000000000000000000000000\n        /* \"#utility.yul\":2709:2710   */\n      0x00\n        /* \"#utility.yul\":2702:2790   */\n      mstore\n        /* \"#utility.yul\":2809:2813   */\n      0x22\n        /* \"#utility.yul\":2806:2807   */\n      0x04\n        /* \"#utility.yul\":2799:2814   */\n      mstore\n        /* \"#utility.yul\":2833:2837   */\n      0x24\n        /* \"#utility.yul\":2830:2831   */\n      0x00\n        /* \"#utility.yul\":2823:2838   */\n      revert\n        /* \"#utility.yul\":2850:3030   */\n    tag_43:\n        /* \"#utility.yul\":2898:2975   */\n      0x4e487b7100000000000000000000000000000000000000000000000000000000\n        /* \"#utility.yul\":2895:2896   */\n      0x00\n        /* \"#utility.yul\":2888:2976   */\n      mstore\n        /* \"#utility.yul\":2995:2999   */\n      0x32\n        /* \"#utility.yul\":2992:2993   */\n      0x04\n        /* \"#utility.yul\":2985:3000   */\n      mstore\n        /* \"#utility.yul\":3019:3023   */\n      0x24\n        /* \"#utility.yul\":3016:3017   */\n      0x00\n        /* \"#utility.yul\":3009:3024   */\n      revert\n        /* \"#utility.yul\":3036:3216   */\n    tag_38:\n        /* \"#utility.yul\":3084:3161   */\n      0x4e487b7100000000000000000000000000000000000000000000000000000000\n        /* \"#utility.yul\":3081:3082   */\n      0x00\n        /* \"#utility.yul\":3074:3162   */\n      mstore\n        /* \"#utility.yul\":3181:3185   */\n      0x41\n        /* \"#utility.yul\":3178:3179   */\n      0x04\n        /* \"#utility.yul\":3171:3186   */\n      mstore\n        /* \"#utility.yul\":3205:3209   */\n      0x24\n        /* \"#utility.yul\":3202:3203   */\n      0x00\n        /* \"#utility.yul\":3195:3210   */\n      revert\n        /* \"#utility.yul\":3222:3324   */\n    tag_62:\n        /* \"#utility.yul\":3263:3269   */\n      0x00\n        /* \"#utility.yul\":3314:3316   */\n      0x1f\n        /* \"#utility.yul\":3310:3317   */\n      not\n        /* \"#utility.yul\":3305:3307   */\n      0x1f\n        /* \"#utility.yul\":3298:3303   */\n      dup4\n        /* \"#utility.yul\":3294:3308   */\n      add\n        /* \"#utility.yul\":3290:3318   */\n      and\n        /* \"#utility.yul\":3280:3318   */\n      swap1\n      pop\n        /* \"#utility.yul\":3222:3324   */\n      swap2\n      swap1\n      pop\n      jump\t// out\n\n    auxdata: 0xa2646970667358221220a1f199720d188e6fdbff1c5dce2dfe84a08b0eca719956de4c2e79e218e3bab364736f6c63430008070033\n}\n",
				"bytecode": {
					"linkReferences": {},
					"object": "60806040523480156200001157600080fd5b50604051620008e5380380620008e58339818101604052810190620000379190620001a9565b81600080018190555080600060010190805190602001906200005b92919062000064565b505050620003b7565b8280546200007290620002ae565b90600052602060002090601f016020900481019282620000965760008555620000e2565b82601f10620000b157805160ff1916838001178555620000e2565b82800160010185558215620000e2579182015b82811115620000e1578251825591602001919060010190620000c4565b5b509050620000f19190620000f5565b5090565b5b8082111562000110576000816000905550600101620000f6565b5090565b60006200012b620001258462000238565b6200020f565b9050828152602081018484840111156200014a57620001496200037d565b5b6200015784828562000278565b509392505050565b600082601f83011262000177576200017662000378565b5b81516200018984826020860162000114565b91505092915050565b600081519050620001a3816200039d565b92915050565b60008060408385031215620001c357620001c262000387565b5b6000620001d38582860162000192565b925050602083015167ffffffffffffffff811115620001f757620001f662000382565b5b62000205858286016200015f565b9150509250929050565b60006200021b6200022e565b9050620002298282620002e4565b919050565b6000604051905090565b600067ffffffffffffffff82111562000256576200025562000349565b5b62000261826200038c565b9050602081019050919050565b6000819050919050565b60005b83811015620002985780820151818401526020810190506200027b565b83811115620002a8576000848401525b50505050565b60006002820490506001821680620002c757607f821691505b60208210811415620002de57620002dd6200031a565b5b50919050565b620002ef826200038c565b810181811067ffffffffffffffff8211171562000311576200031062000349565b5b80604052505050565b7f4e487b7100000000000000000000000000000000000000000000000000000000600052602260045260246000fd5b7f4e487b7100000000000000000000000000000000000000000000000000000000600052604160045260246000fd5b600080fd5b600080fd5b600080fd5b600080fd5b6000601f19601f8301169050919050565b620003a8816200026e565b8114620003b457600080fd5b50565b61051e80620003c76000396000f3fe608060405234801561001057600080fd5b50600436106100415760003560e01c806346f594ea14610046578063a699fb0314610064578063bb0bd9d514610083575b600080fd5b61004e6100a1565b60405161005b9190610361565b60405180910390f35b61006c6100b2565b60405161007a929190610383565b60405180910390f35b61008b61014c565b6040516100989190610346565b60405180910390f35b60606100ad6000610204565b905090565b60008060000154908060010180546100c990610418565b80601f01602080910402602001604051908101604052809291908181526020018280546100f590610418565b80156101425780601f1061011757610100808354040283529160200191610142565b820191906000526020600020905b81548152906001019060200180831161012557829003601f168201915b5050505050905082565b60006101ff60006040518060400160405290816000820154815260200160018201805461017890610418565b80601f01602080910402602001604051908101604052809291908181526020018280546101a490610418565b80156101f15780601f106101c6576101008083540402835291602001916101f1565b820191906000526020600020905b8154815290600101906020018083116101d457829003601f168201915b5050505050815250506102b0565b905090565b60606000600167ffffffffffffffff811115610223576102226104a8565b5b6040519080825280601f01601f1916602001820160405280156102555781602001600182028036833780820191505090505b50905082156102a757600160f81b8160008151811061027757610276610479565b5b60200101907effffffffffffffffffffffffffffffffffffffffffffffffffffffffffffff1916908160001a9053505b80915050919050565b600060018260000151146102c357600080fd5b60008083602001519050805160001a9150600082146102e35760016102e6565b60005b92505050919050565b6102f8816103cf565b82525050565b6000610309826103b3565b61031381856103be565b93506103238185602086016103e5565b61032c816104d7565b840191505092915050565b610340816103db565b82525050565b600060208201905061035b60008301846102ef565b92915050565b6000602082019050818103600083015261037b81846102fe565b905092915050565b60006040820190506103986000830185610337565b81810360208301526103aa81846102fe565b90509392505050565b600081519050919050565b600082825260208201905092915050565b60008115159050919050565b6000819050919050565b60005b838110156104035780820151818401526020810190506103e8565b83811115610412576000848401525b50505050565b6000600282049050600182168061043057607f821691505b602082108114156104445761044361044a565b5b50919050565b7f4e487b7100000000000000000000000000000000000000000000000000000000600052602260045260246000fd5b7f4e487b7100000000000000000000000000000000000000000000000000000000600052603260045260246000fd5b7f4e487b7100000000000000000000000000000000000000000000000000000000600052604160045260246000fd5b6000601f19601f830116905091905056fea2646970667358221220a1f199720d188e6fdbff1c5dce2dfe84a08b0eca719956de4c2e79e218e3bab364736f6c63430008070033",
					"opcodes": "PUSH1 0x80 PUSH1 0x40 MSTORE CALLVALUE DUP1 ISZERO PUSH3 0x11 JUMPI PUSH1 0x0 DUP1 REVERT JUMPDEST POP PUSH1 0x40 MLOAD PUSH3 0x8E5 CODESIZE SUB DUP1 PUSH3 0x8E5 DUP4 CODECOPY DUP2 DUP2 ADD PUSH1 0x40 MSTORE DUP2 ADD SWAP1 PUSH3 0x37 SWAP2 SWAP1 PUSH3 0x1A9 JUMP JUMPDEST DUP2 PUSH1 0x0 DUP1 ADD DUP2 SWAP1 SSTORE POP DUP1 PUSH1 0x0 PUSH1 0x1 ADD SWAP1 DUP1 MLOAD SWAP1 PUSH1 0x20 ADD SWAP1 PUSH3 0x5B SWAP3 SWAP2 SWAP1 PUSH3 0x64 JUMP JUMPDEST POP POP POP PUSH3 0x3B7 JUMP JUMPDEST DUP3 DUP1 SLOAD PUSH3 0x72 SWAP1 PUSH3 0x2AE JUMP JUMPDEST SWAP1 PUSH1 0x0 MSTORE PUSH1 0x20 PUSH1 0x0 KECCAK256 SWAP1 PUSH1 0x1F ADD PUSH1 0x20 SWAP1 DIV DUP2 ADD SWAP3 DUP3 PUSH3 0x96 JUMPI PUSH1 0x0 DUP6 SSTORE PUSH3 0xE2 JUMP JUMPDEST DUP3 PUSH1 0x1F LT PUSH3 0xB1 JUMPI DUP1 MLOAD PUSH1 0xFF NOT AND DUP4 DUP1 ADD OR DUP6 SSTORE PUSH3 0xE2 JUMP JUMPDEST DUP3 DUP1 ADD PUSH1 0x1 ADD DUP6 SSTORE DUP3 ISZERO PUSH3 0xE2 JUMPI SWAP2 DUP3 ADD JUMPDEST DUP3 DUP2 GT ISZERO PUSH3 0xE1 JUMPI DUP3 MLOAD DUP3 SSTORE SWAP2 PUSH1 0x20 ADD SWAP2 SWAP1 PUSH1 0x1 ADD SWAP1 PUSH3 0xC4 JUMP JUMPDEST JUMPDEST POP SWAP1 POP PUSH3 0xF1 SWAP2 SWAP1 PUSH3 0xF5 JUMP JUMPDEST POP SWAP1 JUMP JUMPDEST JUMPDEST DUP1 DUP3 GT ISZERO PUSH3 0x110 JUMPI PUSH1 0x0 DUP2 PUSH1 0x0 SWAP1 SSTORE POP PUSH1 0x1 ADD PUSH3 0xF6 JUMP JUMPDEST POP SWAP1 JUMP JUMPDEST PUSH1 0x0 PUSH3 0x12B PUSH3 0x125 DUP5 PUSH3 0x238 JUMP JUMPDEST PUSH3 0x20F JUMP JUMPDEST SWAP1 POP DUP3 DUP2 MSTORE PUSH1 0x20 DUP2 ADD DUP5 DUP5 DUP5 ADD GT ISZERO PUSH3 0x14A JUMPI PUSH3 0x149 PUSH3 0x37D JUMP JUMPDEST JUMPDEST PUSH3 0x157 DUP5 DUP3 DUP6 PUSH3 0x278 JUMP JUMPDEST POP SWAP4 SWAP3 POP POP POP JUMP JUMPDEST PUSH1 0x0 DUP3 PUSH1 0x1F DUP4 ADD SLT PUSH3 0x177 JUMPI PUSH3 0x176 PUSH3 0x378 JUMP JUMPDEST JUMPDEST DUP2 MLOAD PUSH3 0x189 DUP5 DUP3 PUSH1 0x20 DUP7 ADD PUSH3 0x114 JUMP JUMPDEST SWAP2 POP POP SWAP3 SWAP2 POP POP JUMP JUMPDEST PUSH1 0x0 DUP2 MLOAD SWAP1 POP PUSH3 0x1A3 DUP2 PUSH3 0x39D JUMP JUMPDEST SWAP3 SWAP2 POP POP JUMP JUMPDEST PUSH1 0x0 DUP1 PUSH1 0x40 DUP4 DUP6 SUB SLT ISZERO PUSH3 0x1C3 JUMPI PUSH3 0x1C2 PUSH3 0x387 JUMP JUMPDEST JUMPDEST PUSH1 0x0 PUSH3 0x1D3 DUP6 DUP3 DUP7 ADD PUSH3 0x192 JUMP JUMPDEST SWAP3 POP POP PUSH1 0x20 DUP4 ADD MLOAD PUSH8 0xFFFFFFFFFFFFFFFF DUP2 GT ISZERO PUSH3 0x1F7 JUMPI PUSH3 0x1F6 PUSH3 0x382 JUMP JUMPDEST JUMPDEST PUSH3 0x205 DUP6 DUP3 DUP7 ADD PUSH3 0x15F JUMP JUMPDEST SWAP2 POP POP SWAP3 POP SWAP3 SWAP1 POP JUMP JUMPDEST PUSH1 0x0 PUSH3 0x21B PUSH3 0x22E JUMP JUMPDEST SWAP1 POP PUSH3 0x229 DUP3 DUP3 PUSH3 0x2E4 JUMP JUMPDEST SWAP2 SWAP1 POP JUMP JUMPDEST PUSH1 0x0 PUSH1 0x40 MLOAD SWAP1 POP SWAP1 JUMP JUMPDEST PUSH1 0x0 PUSH8 0xFFFFFFFFFFFFFFFF DUP3 GT ISZERO PUSH3 0x256 JUMPI PUSH3 0x255 PUSH3 0x349 JUMP JUMPDEST JUMPDEST PUSH3 0x261 DUP3 PUSH3 0x38C JUMP JUMPDEST SWAP1 POP PUSH1 0x20 DUP2 ADD SWAP1 POP SWAP2 SWAP1 POP JUMP JUMPDEST PUSH1 0x0 DUP2 SWAP1 POP SWAP2 SWAP1 POP JUMP JUMPDEST PUSH1 0x0 JUMPDEST DUP4 DUP2 LT ISZERO PUSH3 0x298 JUMPI DUP1 DUP3 ADD MLOAD DUP2 DUP5 ADD MSTORE PUSH1 0x20 DUP2 ADD SWAP1 POP PUSH3 0x27B JUMP JUMPDEST DUP4 DUP2 GT ISZERO PUSH3 0x2A8 JUMPI PUSH1 0x0 DUP5 DUP5 ADD MSTORE JUMPDEST POP POP POP POP JUMP JUMPDEST PUSH1 0x0 PUSH1 0x2 DUP3 DIV SWAP1 POP PUSH1 0x1 DUP3 AND DUP1 PUSH3 0x2C7 JUMPI PUSH1 0x7F DUP3 AND SWAP2 POP JUMPDEST PUSH1 0x20 DUP3 LT DUP2 EQ ISZERO PUSH3 0x2DE JUMPI PUSH3 0x2DD PUSH3 0x31A JUMP JUMPDEST JUMPDEST POP SWAP2 SWAP1 POP JUMP JUMPDEST PUSH3 0x2EF DUP3 PUSH3 0x38C JUMP JUMPDEST DUP2 ADD DUP2 DUP2 LT PUSH8 0xFFFFFFFFFFFFFFFF DUP3 GT OR ISZERO PUSH3 0x311 JUMPI PUSH3 0x310 PUSH3 0x349 JUMP JUMPDEST JUMPDEST DUP1 PUSH1 0x40 MSTORE POP POP POP JUMP JUMPDEST PUSH32 0x4E487B7100000000000000000000000000000000000000000000000000000000 PUSH1 0x0 MSTORE PUSH1 0x22 PUSH1 0x4 MSTORE PUSH1 0x24 PUSH1 0x0 REVERT JUMPDEST PUSH32 0x4E487B7100000000000000000000000000000000000000000000000000000000 PUSH1 0x0 MSTORE PUSH1 0x41 PUSH1 0x4 MSTORE PUSH1 0x24 PUSH1 0x0 REVERT JUMPDEST PUSH1 0x0 DUP1 REVERT JUMPDEST PUSH1 0x0 DUP1 REVERT JUMPDEST PUSH1 0x0 DUP1 REVERT JUMPDEST PUSH1 0x0 DUP1 REVERT JUMPDEST PUSH1 0x0 PUSH1 0x1F NOT PUSH1 0x1F DUP4 ADD AND SWAP1 POP SWAP2 SWAP1 POP JUMP JUMPDEST PUSH3 0x3A8 DUP2 PUSH3 0x26E JUMP JUMPDEST DUP2 EQ PUSH3 0x3B4 JUMPI PUSH1 0x0 DUP1 REVERT JUMPDEST POP JUMP JUMPDEST PUSH2 0x51E DUP1 PUSH3 0x3C7 PUSH1 0x0 CODECOPY PUSH1 0x0 RETURN INVALID PUSH1 0x80 PUSH1 0x40 MSTORE CALLVALUE DUP1 ISZERO PUSH2 0x10 JUMPI PUSH1 0x0 DUP1 REVERT JUMPDEST POP PUSH1 0x4 CALLDATASIZE LT PUSH2 0x41 JUMPI PUSH1 0x0 CALLDATALOAD PUSH1 0xE0 SHR DUP1 PUSH4 0x46F594EA EQ PUSH2 0x46 JUMPI DUP1 PUSH4 0xA699FB03 EQ PUSH2 0x64 JUMPI DUP1 PUSH4 0xBB0BD9D5 EQ PUSH2 0x83 JUMPI JUMPDEST PUSH1 0x0 DUP1 REVERT JUMPDEST PUSH2 0x4E PUSH2 0xA1 JUMP JUMPDEST PUSH1 0x40 MLOAD PUSH2 0x5B SWAP2 SWAP1 PUSH2 0x361 JUMP JUMPDEST PUSH1 0x40 MLOAD DUP1 SWAP2 SUB SWAP1 RETURN JUMPDEST PUSH2 0x6C PUSH2 0xB2 JUMP JUMPDEST PUSH1 0x40 MLOAD PUSH2 0x7A SWAP3 SWAP2 SWAP1 PUSH2 0x383 JUMP JUMPDEST PUSH1 0x40 MLOAD DUP1 SWAP2 SUB SWAP1 RETURN JUMPDEST PUSH2 0x8B PUSH2 0x14C JUMP JUMPDEST PUSH1 0x40 MLOAD PUSH2 0x98 SWAP2 SWAP1 PUSH2 0x346 JUMP JUMPDEST PUSH1 0x40 MLOAD DUP1 SWAP2 SUB SWAP1 RETURN JUMPDEST PUSH1 0x60 PUSH2 0xAD PUSH1 0x0 PUSH2 0x204 JUMP JUMPDEST SWAP1 POP SWAP1 JUMP JUMPDEST PUSH1 0x0 DUP1 PUSH1 0x0 ADD SLOAD SWAP1 DUP1 PUSH1 0x1 ADD DUP1 SLOAD PUSH2 0xC9 SWAP1 PUSH2 0x418 JUMP JUMPDEST DUP1 PUSH1 0x1F ADD PUSH1 0x20 DUP1 SWAP2 DIV MUL PUSH1 0x20 ADD PUSH1 0x40 MLOAD SWAP1 DUP2 ADD PUSH1 0x40 MSTORE DUP1 SWAP3 SWAP2 SWAP1 DUP2 DUP2 MSTORE PUSH1 0x20 ADD DUP3 DUP1 SLOAD PUSH2 0xF5 SWAP1 PUSH2 0x418 JUMP JUMPDEST DUP1 ISZERO PUSH2 0x142 JUMPI DUP1 PUSH1 0x1F LT PUSH2 0x117 JUMPI PUSH2 0x100 DUP1 DUP4 SLOAD DIV MUL DUP4 MSTORE SWAP2 PUSH1 0x20 ADD SWAP2 PUSH2 0x142 JUMP JUMPDEST DUP3 ADD SWAP2 SWAP1 PUSH1 0x0 MSTORE PUSH1 0x20 PUSH1 0x0 KECCAK256 SWAP1 JUMPDEST DUP2 SLOAD DUP2 MSTORE SWAP1 PUSH1 0x1 ADD SWAP1 PUSH1 0x20 ADD DUP1 DUP4 GT PUSH2 0x125 JUMPI DUP3 SWAP1 SUB PUSH1 0x1F AND DUP3 ADD SWAP2 JUMPDEST POP POP POP POP POP SWAP1 POP DUP3 JUMP JUMPDEST PUSH1 0x0 PUSH2 0x1FF PUSH1 0x0 PUSH1 0x40 MLOAD DUP1 PUSH1 0x40 ADD PUSH1 0x40 MSTORE SWAP1 DUP2 PUSH1 0x0 DUP3 ADD SLOAD DUP2 MSTORE PUSH1 0x20 ADD PUSH1 0x1 DUP3 ADD DUP1 SLOAD PUSH2 0x178 SWAP1 PUSH2 0x418 JUMP JUMPDEST DUP1 PUSH1 0x1F ADD PUSH1 0x20 DUP1 SWAP2 DIV MUL PUSH1 0x20 ADD PUSH1 0x40 MLOAD SWAP1 DUP2 ADD PUSH1 0x40 MSTORE DUP1 SWAP3 SWAP2 SWAP1 DUP2 DUP2 MSTORE PUSH1 0x20 ADD DUP3 DUP1 SLOAD PUSH2 0x1A4 SWAP1 PUSH2 0x418 JUMP JUMPDEST DUP1 ISZERO PUSH2 0x1F1 JUMPI DUP1 PUSH1 0x1F LT PUSH2 0x1C6 JUMPI PUSH2 0x100 DUP1 DUP4 SLOAD DIV MUL DUP4 MSTORE SWAP2 PUSH1 0x20 ADD SWAP2 PUSH2 0x1F1 JUMP JUMPDEST DUP3 ADD SWAP2 SWAP1 PUSH1 0x0 MSTORE PUSH1 0x20 PUSH1 0x0 KECCAK256 SWAP1 JUMPDEST DUP2 SLOAD DUP2 MSTORE SWAP1 PUSH1 0x1 ADD SWAP1 PUSH1 0x20 ADD DUP1 DUP4 GT PUSH2 0x1D4 JUMPI DUP3 SWAP1 SUB PUSH1 0x1F AND DUP3 ADD SWAP2 JUMPDEST POP POP POP POP POP DUP2 MSTORE POP POP PUSH2 0x2B0 JUMP JUMPDEST SWAP1 POP SWAP1 JUMP JUMPDEST PUSH1 0x60 PUSH1 0x0 PUSH1 0x1 PUSH8 0xFFFFFFFFFFFFFFFF DUP2 GT ISZERO PUSH2 0x223 JUMPI PUSH2 0x222 PUSH2 0x4A8 JUMP JUMPDEST JUMPDEST PUSH1 0x40 MLOAD SWAP1 DUP1 DUP3 MSTORE DUP1 PUSH1 0x1F ADD PUSH1 0x1F NOT AND PUSH1 0x20 ADD DUP3 ADD PUSH1 0x40 MSTORE DUP1 ISZERO PUSH2 0x255 JUMPI DUP2 PUSH1 0x20 ADD PUSH1 0x1 DUP3 MUL DUP1 CALLDATASIZE DUP4 CALLDATACOPY DUP1 DUP3 ADD SWAP2 POP POP SWAP1 POP JUMPDEST POP SWAP1 POP DUP3 ISZERO PUSH2 0x2A7 JUMPI PUSH1 0x1 PUSH1 0xF8 SHL DUP2 PUSH1 0x0 DUP2 MLOAD DUP2 LT PUSH2 0x277 JUMPI PUSH2 0x276 PUSH2 0x479 JUMP JUMPDEST JUMPDEST PUSH1 0x20 ADD ADD SWAP1 PUSH31 0xFFFFFFFFFFFFFFFFFFFFFFFFFFFFFFFFFFFFFFFFFFFFFFFFFFFFFFFFFFFFFF NOT AND SWAP1 DUP2 PUSH1 0x0 BYTE SWAP1 MSTORE8 POP JUMPDEST DUP1 SWAP2 POP POP SWAP2 SWAP1 POP JUMP JUMPDEST PUSH1 0x0 PUSH1 0x1 DUP3 PUSH1 0x0 ADD MLOAD EQ PUSH2 0x2C3 JUMPI PUSH1 0x0 DUP1 REVERT JUMPDEST PUSH1 0x0 DUP1 DUP4 PUSH1 0x20 ADD MLOAD SWAP1 POP DUP1 MLOAD PUSH1 0x0 BYTE SWAP2 POP PUSH1 0x0 DUP3 EQ PUSH2 0x2E3 JUMPI PUSH1 0x1 PUSH2 0x2E6 JUMP JUMPDEST PUSH1 0x0 JUMPDEST SWAP3 POP POP POP SWAP2 SWAP1 POP JUMP JUMPDEST PUSH2 0x2F8 DUP2 PUSH2 0x3CF JUMP JUMPDEST DUP3 MSTORE POP POP JUMP JUMPDEST PUSH1 0x0 PUSH2 0x309 DUP3 PUSH2 0x3B3 JUMP JUMPDEST PUSH2 0x313 DUP2 DUP6 PUSH2 0x3BE JUMP JUMPDEST SWAP4 POP PUSH2 0x323 DUP2 DUP6 PUSH1 0x20 DUP7 ADD PUSH2 0x3E5 JUMP JUMPDEST PUSH2 0x32C DUP2 PUSH2 0x4D7 JUMP JUMPDEST DUP5 ADD SWAP2 POP POP SWAP3 SWAP2 POP POP JUMP JUMPDEST PUSH2 0x340 DUP2 PUSH2 0x3DB JUMP JUMPDEST DUP3 MSTORE POP POP JUMP JUMPDEST PUSH1 0x0 PUSH1 0x20 DUP3 ADD SWAP1 POP PUSH2 0x35B PUSH1 0x0 DUP4 ADD DUP5 PUSH2 0x2EF JUMP JUMPDEST SWAP3 SWAP2 POP POP JUMP JUMPDEST PUSH1 0x0 PUSH1 0x20 DUP3 ADD SWAP1 POP DUP2 DUP2 SUB PUSH1 0x0 DUP4 ADD MSTORE PUSH2 0x37B DUP2 DUP5 PUSH2 0x2FE JUMP JUMPDEST SWAP1 POP SWAP3 SWAP2 POP POP JUMP JUMPDEST PUSH1 0x0 PUSH1 0x40 DUP3 ADD SWAP1 POP PUSH2 0x398 PUSH1 0x0 DUP4 ADD DUP6 PUSH2 0x337 JUMP JUMPDEST DUP2 DUP2 SUB PUSH1 0x20 DUP4 ADD MSTORE PUSH2 0x3AA DUP2 DUP5 PUSH2 0x2FE JUMP JUMPDEST SWAP1 POP SWAP4 SWAP3 POP POP POP JUMP JUMPDEST PUSH1 0x0 DUP2 MLOAD SWAP1 POP SWAP2 SWAP1 POP JUMP JUMPDEST PUSH1 0x0 DUP3 DUP3 MSTORE PUSH1 0x20 DUP3 ADD SWAP1 POP SWAP3 SWAP2 POP POP JUMP JUMPDEST PUSH1 0x0 DUP2 ISZERO ISZERO SWAP1 POP SWAP2 SWAP1 POP JUMP JUMPDEST PUSH1 0x0 DUP2 SWAP1 POP SWAP2 SWAP1 POP JUMP JUMPDEST PUSH1 0x0 JUMPDEST DUP4 DUP2 LT ISZERO PUSH2 0x403 JUMPI DUP1 DUP3 ADD MLOAD DUP2 DUP5 ADD MSTORE PUSH1 0x20 DUP2 ADD SWAP1 POP PUSH2 0x3E8 JUMP JUMPDEST DUP4 DUP2 GT ISZERO PUSH2 0x412 JUMPI PUSH1 0x0 DUP5 DUP5 ADD MSTORE JUMPDEST POP POP POP POP JUMP JUMPDEST PUSH1 0x0 PUSH1 0x2 DUP3 DIV SWAP1 POP PUSH1 0x1 DUP3 AND DUP1 PUSH2 0x430 JUMPI PUSH1 0x7F DUP3 AND SWAP2 POP JUMPDEST PUSH1 0x20 DUP3 LT DUP2 EQ ISZERO PUSH2 0x444 JUMPI PUSH2 0x443 PUSH2 0x44A JUMP JUMPDEST JUMPDEST POP SWAP2 SWAP1 POP JUMP JUMPDEST PUSH32 0x4E487B7100000000000000000000000000000000000000000000000000000000 PUSH1 0x0 MSTORE PUSH1 0x22 PUSH1 0x4 MSTORE PUSH1 0x24 PUSH1 0x0 REVERT JUMPDEST PUSH32 0x4E487B7100000000000000000000000000000000000000000000000000000000 PUSH1 0x0 MSTORE PUSH1 0x32 PUSH1 0x4 MSTORE PUSH1 0x24 PUSH1 0x0 REVERT JUMPDEST PUSH32 0x4E487B7100000000000000000000000000000000000000000000000000000000 PUSH1 0x0 MSTORE PUSH1 0x41 PUSH1 0x4 MSTORE PUSH1 0x24 PUSH1 0x0 REVERT JUMPDEST PUSH1 0x0 PUSH1 0x1F NOT PUSH1 0x1F DUP4 ADD AND SWAP1 POP SWAP2 SWAP1 POP JUMP INVALID LOG2 PUSH5 0x6970667358 0x22 SLT KECCAK256 LOG1 CALL SWAP10 PUSH19 0xD188E6FDBFF1C5DCE2DFE84A08B0ECA719956 0xDE 0x4C 0x2E PUSH26 0xE218E3BAB364736F6C6343000807003300000000000000000000 "
				},
				"gasEstimates": {
					"creation": {
						"codeDepositCost": "262000",
						"executionCost": "infinite",
						"totalCost": "infinite"
					},
					"external": {
						"getDataDE()": "infinite",
						"getDataEN()": "infinite",
						"rlpItem()": "infinite"
					},
					"internal": {
						"encodeBool(bool)": "infinite",
						"toBoolean(struct Demo.RLPItem memory)": "infinite"
					}
				},
				"methodIdentifiers": {
					"getDataDE()": "bb0bd9d5",
					"getDataEN()": "46f594ea",
					"rlpItem()": "a699fb03"
				}
			},
			"userdoc": {
				"kind": "user",
				"methods": {},
				"version": 1
			}
		}
	}
}