{
	"contracts/demo2.sol": {
		"demo2": {
			"abi": [
				{
					"inputs": [],
					"name": "data1",
					"outputs": [
						{
							"internalType": "bytes",
							"name": "",
							"type": "bytes"
						}
					],
					"stateMutability": "view",
					"type": "function"
				},
				{
					"inputs": [],
					"name": "data2",
					"outputs": [
						{
							"internalType": "bytes32",
							"name": "",
							"type": "bytes32"
						}
					],
					"stateMutability": "view",
					"type": "function"
				},
				{
					"inputs": [],
					"name": "data3",
					"outputs": [
						{
							"internalType": "bytes",
							"name": "",
							"type": "bytes"
						}
					],
					"stateMutability": "view",
					"type": "function"
				},
				{
					"inputs": [
						{
							"internalType": "bytes[]",
							"name": "self",
							"type": "bytes[]"
						}
					],
					"name": "getData",
					"outputs": [
						{
							"internalType": "bytes",
							"name": "",
							"type": "bytes"
						}
					],
					"stateMutability": "view",
					"type": "function"
				}
			],
			"devdoc": {
				"methods": {}
			},
			"evm": {
				"assembly": "    /* \"contracts/demo2.sol\":81:5845  contract demo2 {\r... */\n  mstore(0x40, 0x80)\n    /* \"contracts/demo2.sol\":107:176  bytes public data1 = \"NALEHHJSGDSDGHJSDHSUHDJSHDJSHJSHJSHDSJDHJONGVO\" */\n  mload(0x40)\n  dup1\n  0x60\n  add\n  0x40\n  mstore\n  dup1\n  0x2e\n  dup2\n  mstore\n  0x20\n  add\n  data_4887836e294a2761413359597244d307bbe3f94827f6160d9e1a399e00e2d1be\n  0x2e\n  swap2\n  codecopy\n  0x00\n  swap1\n  dup1\n  mload\n  swap1\n  0x20\n  add\n  swap1\n  tag_1\n  swap3\n  swap2\n  swap1\n  tag_2\n  jump\t// in\ntag_1:\n  pop\n    /* \"contracts/demo2.sol\":187:252  bytes public data3 = \"sdfNAsdfsdfLEHHJSGDSHDJSHJSHJSHDSJDHJONGVO\" */\n  mload(0x40)\n  dup1\n  0x60\n  add\n  0x40\n  mstore\n  dup1\n  0x2a\n  dup2\n  mstore\n  0x20\n  add\n  data_c359735a342ece061e65ab7390d246d1e53ba5f24eea70d6201f1d4a7b2f3475\n  0x2a\n  swap2\n  codecopy\n  0x01\n  swap1\n  dup1\n  mload\n  swap1\n  0x20\n  add\n  swap1\n  tag_3\n  swap3\n  swap2\n  swap1\n  tag_2\n  jump\t// in\ntag_3:\n  pop\n    /* \"contracts/demo2.sol\":263:310  bytes32 public data2 = \"LEHONGVOwjnfvj3weh8vKJ\" */\n  sstore(0x02, 0x4c45484f4e47564f776a6e66766a3377656838764b4a00000000000000000000)\n    /* \"contracts/demo2.sol\":81:5845  contract demo2 {\r... */\n  callvalue\n    /* \"--CODEGEN--\":5:14   */\n  dup1\n    /* \"--CODEGEN--\":2:4   */\n  iszero\n  tag_4\n  jumpi\n    /* \"--CODEGEN--\":27:28   */\n  0x00\n    /* \"--CODEGEN--\":24:25   */\n  dup1\n    /* \"--CODEGEN--\":17:29   */\n  revert\n    /* \"--CODEGEN--\":2:4   */\ntag_4:\n    /* \"contracts/demo2.sol\":81:5845  contract demo2 {\r... */\n  pop\n  jump(tag_5)\ntag_2:\n  dup3\n  dup1\n  sload\n  0x01\n  dup2\n  0x01\n  and\n  iszero\n  0x0100\n  mul\n  sub\n  and\n  0x02\n  swap1\n  div\n  swap1\n  0x00\n  mstore\n  keccak256(0x00, 0x20)\n  swap1\n  0x1f\n  add\n  0x20\n  swap1\n  div\n  dup2\n  add\n  swap3\n  dup3\n  0x1f\n  lt\n  tag_7\n  jumpi\n  dup1\n  mload\n  not(0xff)\n  and\n  dup4\n  dup1\n  add\n  or\n  dup6\n  sstore\n  jump(tag_6)\ntag_7:\n  dup3\n  dup1\n  add\n  0x01\n  add\n  dup6\n  sstore\n  dup3\n  iszero\n  tag_6\n  jumpi\n  swap2\n  dup3\n  add\ntag_8:\n  dup3\n  dup2\n  gt\n  iszero\n  tag_9\n  jumpi\n  dup3\n  mload\n  dup3\n  sstore\n  swap2\n  0x20\n  add\n  swap2\n  swap1\n  0x01\n  add\n  swap1\n  jump(tag_8)\ntag_9:\ntag_6:\n  pop\n  swap1\n  pop\n  tag_10\n  swap2\n  swap1\n  tag_11\n  jump\t// in\ntag_10:\n  pop\n  swap1\n  jump\t// out\ntag_11:\n  tag_12\n  swap2\n  swap1\ntag_13:\n  dup1\n  dup3\n  gt\n  iszero\n  tag_14\n  jumpi\n  0x00\n  dup2\n  0x00\n  swap1\n  sstore\n  pop\n  0x01\n  add\n  jump(tag_13)\ntag_14:\n  pop\n  swap1\n  jump\ntag_12:\n  swap1\n  jump\t// out\ntag_5:\n  dataSize(sub_0)\n  dup1\n  dataOffset(sub_0)\n  0x00\n  codecopy\n  0x00\n  return\nstop\ndata_4887836e294a2761413359597244d307bbe3f94827f6160d9e1a399e00e2d1be 4e414c4548484a534744534447484a534448535548444a5348444a53484a53484a534844534a44484a4f4e47564f\ndata_c359735a342ece061e65ab7390d246d1e53ba5f24eea70d6201f1d4a7b2f3475 7364664e417364667364664c4548484a5347445348444a53484a53484a534844534a44484a4f4e47564f\n\nsub_0: assembly {\n        /* \"contracts/demo2.sol\":81:5845  contract demo2 {\r... */\n      mstore(0x40, 0x80)\n      callvalue\n        /* \"--CODEGEN--\":5:14   */\n      dup1\n        /* \"--CODEGEN--\":2:4   */\n      iszero\n      tag_1\n      jumpi\n        /* \"--CODEGEN--\":27:28   */\n      0x00\n        /* \"--CODEGEN--\":24:25   */\n      dup1\n        /* \"--CODEGEN--\":17:29   */\n      revert\n        /* \"--CODEGEN--\":2:4   */\n    tag_1:\n        /* \"contracts/demo2.sol\":81:5845  contract demo2 {\r... */\n      pop\n      jumpi(tag_2, lt(calldatasize, 0x04))\n      shr(0xe0, calldataload(0x00))\n      dup1\n      0x0a282560\n      eq\n      tag_3\n      jumpi\n      dup1\n      0x9ffd85c4\n      eq\n      tag_4\n      jumpi\n      dup1\n      0xe3a7fd75\n      eq\n      tag_5\n      jumpi\n      dup1\n      0xfc26b0ab\n      eq\n      tag_6\n      jumpi\n    tag_2:\n        /* \"--CODEGEN--\":12:13   */\n      0x00\n        /* \"--CODEGEN--\":9:10   */\n      dup1\n        /* \"--CODEGEN--\":2:14   */\n      revert\n        /* \"contracts/demo2.sol\":369:491  function getData(bytes[] memory self) public view returns(bytes memory) {\r... */\n    tag_3:\n      tag_7\n      0x04\n      dup1\n      calldatasize\n      sub\n      dup2\n      add\n      swap1\n      tag_8\n      swap2\n      swap1\n      jump(tag_9)\n    tag_8:\n      tag_10\n      jump\t// in\n    tag_7:\n      mload(0x40)\n      tag_11\n      swap2\n      swap1\n      jump(tag_12)\n    tag_11:\n      mload(0x40)\n      dup1\n      swap2\n      sub\n      swap1\n      return\n        /* \"contracts/demo2.sol\":107:176  bytes public data1 = \"NALEHHJSGDSDGHJSDHSUHDJSHDJSHJSHJSHDSJDHJONGVO\" */\n    tag_4:\n      tag_13\n      tag_14\n      jump\t// in\n    tag_13:\n      mload(0x40)\n      tag_15\n      swap2\n      swap1\n      jump(tag_16)\n    tag_15:\n      mload(0x40)\n      dup1\n      swap2\n      sub\n      swap1\n      return\n        /* \"contracts/demo2.sol\":263:310  bytes32 public data2 = \"LEHONGVOwjnfvj3weh8vKJ\" */\n    tag_5:\n      tag_17\n      tag_18\n      jump\t// in\n    tag_17:\n      mload(0x40)\n      tag_19\n      swap2\n      swap1\n      jump(tag_20)\n    tag_19:\n      mload(0x40)\n      dup1\n      swap2\n      sub\n      swap1\n      return\n        /* \"contracts/demo2.sol\":187:252  bytes public data3 = \"sdfNAsdfsdfLEHHJSGDSHDJSHJSHJSHDSJDHJONGVO\" */\n    tag_6:\n      tag_21\n      tag_22\n      jump\t// in\n    tag_21:\n      mload(0x40)\n      tag_23\n      swap2\n      swap1\n      jump(tag_16)\n    tag_23:\n      mload(0x40)\n      dup1\n      swap2\n      sub\n      swap1\n      return\n        /* \"contracts/demo2.sol\":369:491  function getData(bytes[] memory self) public view returns(bytes memory) {\r... */\n    tag_10:\n        /* \"contracts/demo2.sol\":427:439  bytes memory */\n      0x60\n        /* \"contracts/demo2.sol\":463:479  encodeList(self) */\n      tag_25\n        /* \"contracts/demo2.sol\":474:478  self */\n      dup3\n        /* \"contracts/demo2.sol\":463:473  encodeList */\n      tag_26\n        /* \"contracts/demo2.sol\":463:479  encodeList(self) */\n      jump\t// in\n    tag_25:\n        /* \"contracts/demo2.sol\":456:479  return encodeList(self) */\n      swap1\n      pop\n        /* \"contracts/demo2.sol\":369:491  function getData(bytes[] memory self) public view returns(bytes memory) {\r... */\n      swap2\n      swap1\n      pop\n      jump\t// out\n        /* \"contracts/demo2.sol\":107:176  bytes public data1 = \"NALEHHJSGDSDGHJSDHSUHDJSHDJSHJSHJSHDSJDHJONGVO\" */\n    tag_14:\n      0x00\n      dup1\n      sload\n      0x01\n      dup2\n      0x01\n      and\n      iszero\n      0x0100\n      mul\n      sub\n      and\n      0x02\n      swap1\n      div\n      dup1\n      0x1f\n      add\n      0x20\n      dup1\n      swap2\n      div\n      mul\n      0x20\n      add\n      mload(0x40)\n      swap1\n      dup2\n      add\n      0x40\n      mstore\n      dup1\n      swap3\n      swap2\n      swap1\n      dup2\n      dup2\n      mstore\n      0x20\n      add\n      dup3\n      dup1\n      sload\n      0x01\n      dup2\n      0x01\n      and\n      iszero\n      0x0100\n      mul\n      sub\n      and\n      0x02\n      swap1\n      div\n      dup1\n      iszero\n      tag_27\n      jumpi\n      dup1\n      0x1f\n      lt\n      tag_28\n      jumpi\n      0x0100\n      dup1\n      dup4\n      sload\n      div\n      mul\n      dup4\n      mstore\n      swap2\n      0x20\n      add\n      swap2\n      jump(tag_27)\n    tag_28:\n      dup3\n      add\n      swap2\n      swap1\n      0x00\n      mstore\n      keccak256(0x00, 0x20)\n      swap1\n    tag_29:\n      dup2\n      sload\n      dup2\n      mstore\n      swap1\n      0x01\n      add\n      swap1\n      0x20\n      add\n      dup1\n      dup4\n      gt\n      tag_29\n      jumpi\n      dup3\n      swap1\n      sub\n      0x1f\n      and\n      dup3\n      add\n      swap2\n    tag_27:\n      pop\n      pop\n      pop\n      pop\n      pop\n      dup2\n      jump\t// out\n        /* \"contracts/demo2.sol\":263:310  bytes32 public data2 = \"LEHONGVOwjnfvj3weh8vKJ\" */\n    tag_18:\n      sload(0x02)\n      dup2\n      jump\t// out\n        /* \"contracts/demo2.sol\":187:252  bytes public data3 = \"sdfNAsdfsdfLEHHJSGDSHDJSHJSHJSHDSJDHJONGVO\" */\n    tag_22:\n      0x01\n      dup1\n      sload\n      0x01\n      dup2\n      0x01\n      and\n      iszero\n      0x0100\n      mul\n      sub\n      and\n      0x02\n      swap1\n      div\n      dup1\n      0x1f\n      add\n      0x20\n      dup1\n      swap2\n      div\n      mul\n      0x20\n      add\n      mload(0x40)\n      swap1\n      dup2\n      add\n      0x40\n      mstore\n      dup1\n      swap3\n      swap2\n      swap1\n      dup2\n      dup2\n      mstore\n      0x20\n      add\n      dup3\n      dup1\n      sload\n      0x01\n      dup2\n      0x01\n      and\n      iszero\n      0x0100\n      mul\n      sub\n      and\n      0x02\n      swap1\n      div\n      dup1\n      iszero\n      tag_30\n      jumpi\n      dup1\n      0x1f\n      lt\n      tag_31\n      jumpi\n      0x0100\n      dup1\n      dup4\n      sload\n      div\n      mul\n      dup4\n      mstore\n      swap2\n      0x20\n      add\n      swap2\n      jump(tag_30)\n    tag_31:\n      dup3\n      add\n      swap2\n      swap1\n      0x00\n      mstore\n      keccak256(0x00, 0x20)\n      swap1\n    tag_32:\n      dup2\n      sload\n      dup2\n      mstore\n      swap1\n      0x01\n      add\n      swap1\n      0x20\n      add\n      dup1\n      dup4\n      gt\n      tag_32\n      jumpi\n      dup3\n      swap1\n      sub\n      0x1f\n      and\n      dup3\n      add\n      swap2\n    tag_30:\n      pop\n      pop\n      pop\n      pop\n      pop\n      dup2\n      jump\t// out\n        /* \"contracts/demo2.sol\":804:1239  function encodeList(bytes[] memory self) internal pure returns (bytes memory) {\r... */\n    tag_26:\n        /* \"contracts/demo2.sol\":868:880  bytes memory */\n      0x60\n        /* \"contracts/demo2.sol\":916:917  0 */\n      0x00\n        /* \"contracts/demo2.sol\":901:905  self */\n      dup3\n        /* \"contracts/demo2.sol\":901:912  self.length */\n      mload\n        /* \"contracts/demo2.sol\":901:917  self.length == 0 */\n      eq\n        /* \"contracts/demo2.sol\":897:973  if (self.length == 0) {\r... */\n      iszero\n      tag_34\n      jumpi\n        /* \"contracts/demo2.sol\":955:956  0 */\n      0x00\n        /* \"contracts/demo2.sol\":945:957  new bytes(0) */\n      mload(0x40)\n      swap1\n      dup1\n      dup3\n      mstore\n      dup1\n      0x1f\n      add\n      not(0x1f)\n      and\n      0x20\n      add\n      dup3\n      add\n      0x40\n      mstore\n      dup1\n      iszero\n      tag_35\n      jumpi\n      dup2\n      0x20\n      add\n        /* \"--CODEGEN--\":29:30   */\n      0x01\n        /* \"--CODEGEN--\":21:27   */\n      dup3\n        /* \"--CODEGEN--\":17:31   */\n      mul\n        /* \"--CODEGEN--\":124:128   */\n      dup1\n        /* \"--CODEGEN--\":108:122   */\n      calldatasize\n        /* \"--CODEGEN--\":100:106   */\n      dup4\n        /* \"--CODEGEN--\":87:129   */\n      calldatacopy\n        /* \"--CODEGEN--\":155:159   */\n      dup1\n        /* \"--CODEGEN--\":147:153   */\n      dup3\n        /* \"--CODEGEN--\":143:160   */\n      add\n        /* \"--CODEGEN--\":133:160   */\n      swap2\n      pop\n        /* \"--CODEGEN--\":0:164   */\n      pop\n        /* \"contracts/demo2.sol\":945:957  new bytes(0) */\n      swap1\n      pop\n    tag_35:\n      pop\n        /* \"contracts/demo2.sol\":938:957  return new bytes(0) */\n      swap1\n      pop\n      jump(tag_33)\n        /* \"contracts/demo2.sol\":897:973  if (self.length == 0) {\r... */\n    tag_34:\n        /* \"contracts/demo2.sol\":987:1007  bytes memory payload */\n      0x60\n        /* \"contracts/demo2.sol\":1010:1014  self */\n      dup3\n        /* \"contracts/demo2.sol\":1015:1016  0 */\n      0x00\n        /* \"contracts/demo2.sol\":1010:1017  self[0] */\n      dup2\n      mload\n      dup2\n      lt\n      tag_36\n      jumpi\n      invalid\n    tag_36:\n      0x20\n      mul\n      0x20\n      add\n      add\n      mload\n        /* \"contracts/demo2.sol\":987:1017  bytes memory payload = self[0] */\n      swap1\n      pop\n        /* \"contracts/demo2.sol\":1037:1043  uint i */\n      0x00\n        /* \"contracts/demo2.sol\":1046:1047  1 */\n      0x01\n        /* \"contracts/demo2.sol\":1037:1047  uint i = 1 */\n      swap1\n      pop\n        /* \"contracts/demo2.sol\":1032:1144  for (uint i = 1; i < self.length; i++) {\r... */\n    tag_37:\n        /* \"contracts/demo2.sol\":1053:1057  self */\n      dup4\n        /* \"contracts/demo2.sol\":1053:1064  self.length */\n      mload\n        /* \"contracts/demo2.sol\":1049:1050  i */\n      dup2\n        /* \"contracts/demo2.sol\":1049:1064  i < self.length */\n      lt\n        /* \"contracts/demo2.sol\":1032:1144  for (uint i = 1; i < self.length; i++) {\r... */\n      iszero\n      tag_38\n      jumpi\n        /* \"contracts/demo2.sol\":1100:1128  mergeBytes(payload, self[i]) */\n      tag_40\n        /* \"contracts/demo2.sol\":1111:1118  payload */\n      dup3\n        /* \"contracts/demo2.sol\":1120:1124  self */\n      dup6\n        /* \"contracts/demo2.sol\":1125:1126  i */\n      dup4\n        /* \"contracts/demo2.sol\":1120:1127  self[i] */\n      dup2\n      mload\n      dup2\n      lt\n      tag_41\n      jumpi\n      invalid\n    tag_41:\n      0x20\n      mul\n      0x20\n      add\n      add\n      mload\n        /* \"contracts/demo2.sol\":1100:1110  mergeBytes */\n      tag_42\n        /* \"contracts/demo2.sol\":1100:1128  mergeBytes(payload, self[i]) */\n      jump\t// in\n    tag_40:\n        /* \"contracts/demo2.sol\":1090:1128  payload = mergeBytes(payload, self[i]) */\n      swap2\n      pop\n        /* \"contracts/demo2.sol\":1066:1069  i++ */\n      dup1\n      dup1\n      0x01\n      add\n      swap2\n      pop\n      pop\n        /* \"contracts/demo2.sol\":1032:1144  for (uint i = 1; i < self.length; i++) {\r... */\n      jump(tag_37)\n    tag_38:\n      pop\n        /* \"contracts/demo2.sol\":1165:1227  mergeBytes(encodeLength(payload.length, LIST_OFFSET), payload) */\n      tag_43\n        /* \"contracts/demo2.sol\":1176:1217  encodeLength(payload.length, LIST_OFFSET) */\n      tag_44\n        /* \"contracts/demo2.sol\":1189:1196  payload */\n      dup3\n        /* \"contracts/demo2.sol\":1189:1203  payload.length */\n      mload\n        /* \"contracts/demo2.sol\":350:354  0xc0 */\n      0xc0\n        /* \"contracts/demo2.sol\":1176:1217  encodeLength(payload.length, LIST_OFFSET) */\n      0xff\n      and\n        /* \"contracts/demo2.sol\":1176:1188  encodeLength */\n      tag_45\n        /* \"contracts/demo2.sol\":1176:1217  encodeLength(payload.length, LIST_OFFSET) */\n      jump\t// in\n    tag_44:\n        /* \"contracts/demo2.sol\":1219:1226  payload */\n      dup3\n        /* \"contracts/demo2.sol\":1165:1175  mergeBytes */\n      tag_42\n        /* \"contracts/demo2.sol\":1165:1227  mergeBytes(encodeLength(payload.length, LIST_OFFSET), payload) */\n      jump\t// in\n    tag_43:\n        /* \"contracts/demo2.sol\":1158:1227  return mergeBytes(encodeLength(payload.length, LIST_OFFSET), payload) */\n      swap2\n      pop\n      pop\n        /* \"contracts/demo2.sol\":804:1239  function encodeList(bytes[] memory self) internal pure returns (bytes memory) {\r... */\n    tag_33:\n      swap2\n      swap1\n      pop\n      jump\t// out\n        /* \"contracts/demo2.sol\":1743:4926  function mergeBytes(\r... */\n    tag_42:\n        /* \"contracts/demo2.sol\":1899:1911  bytes memory */\n      0x60\n        /* \"contracts/demo2.sol\":1937:1959  bytes memory tempBytes */\n      dup1\n        /* \"contracts/demo2.sol\":2155:2159  0x40 */\n      0x40\n        /* \"contracts/demo2.sol\":2149:2160  mload(0x40) */\n      mload\n        /* \"contracts/demo2.sol\":2136:2160  tempBytes := mload(0x40) */\n      swap1\n      pop\n        /* \"contracts/demo2.sol\":2320:2329  _preBytes */\n      dup4\n        /* \"contracts/demo2.sol\":2314:2330  mload(_preBytes) */\n      mload\n        /* \"contracts/demo2.sol\":2366:2372  length */\n      dup1\n        /* \"contracts/demo2.sol\":2355:2364  tempBytes */\n      dup3\n        /* \"contracts/demo2.sol\":2348:2373  mstore(tempBytes, length) */\n      mstore\n        /* \"contracts/demo2.sol\":2617:2621  0x20 */\n      0x20\n        /* \"contracts/demo2.sol\":2606:2615  tempBytes */\n      dup3\n        /* \"contracts/demo2.sol\":2602:2622  add(tempBytes, 0x20) */\n      add\n        /* \"contracts/demo2.sol\":2773:2779  length */\n      dup2\n        /* \"contracts/demo2.sol\":2769:2771  mc */\n      dup2\n        /* \"contracts/demo2.sol\":2765:2780  add(mc, length) */\n      add\n        /* \"contracts/demo2.sol\":2980:2984  0x20 */\n      0x20\n        /* \"contracts/demo2.sol\":2969:2978  _preBytes */\n      dup8\n        /* \"contracts/demo2.sol\":2965:2985  add(_preBytes, 0x20) */\n      add\n        /* \"contracts/demo2.sol\":2800:3365  for {\r... */\n    tag_47:\n        /* \"contracts/demo2.sol\":3012:3015  end */\n      dup2\n        /* \"contracts/demo2.sol\":3008:3010  mc */\n      dup4\n        /* \"contracts/demo2.sol\":3005:3016  lt(mc, end) */\n      lt\n        /* \"contracts/demo2.sol\":2800:3365  for {\r... */\n      iszero\n      tag_49\n      jumpi\n        /* \"contracts/demo2.sol\":3342:3344  cc */\n      dup1\n        /* \"contracts/demo2.sol\":3336:3345  mload(cc) */\n      mload\n        /* \"contracts/demo2.sol\":3332:3334  mc */\n      dup4\n        /* \"contracts/demo2.sol\":3325:3346  mstore(mc, mload(cc)) */\n      mstore\n        /* \"contracts/demo2.sol\":3125:3129  0x20 */\n      0x20\n        /* \"contracts/demo2.sol\":3121:3123  mc */\n      dup4\n        /* \"contracts/demo2.sol\":3117:3130  add(mc, 0x20) */\n      add\n        /* \"contracts/demo2.sol\":3111:3130  mc := add(mc, 0x20) */\n      swap3\n      pop\n        /* \"contracts/demo2.sol\":3166:3170  0x20 */\n      0x20\n        /* \"contracts/demo2.sol\":3162:3164  cc */\n      dup2\n        /* \"contracts/demo2.sol\":3158:3171  add(cc, 0x20) */\n      add\n        /* \"contracts/demo2.sol\":3152:3171  cc := add(cc, 0x20) */\n      swap1\n      pop\n        /* \"contracts/demo2.sol\":2800:3365  for {\r... */\n      jump(tag_47)\n    tag_49:\n        /* \"contracts/demo2.sol\":2804:3004  {\r... */\n      pop\n        /* \"contracts/demo2.sol\":3591:3601  _postBytes */\n      dup6\n        /* \"contracts/demo2.sol\":3585:3602  mload(_postBytes) */\n      mload\n        /* \"contracts/demo2.sol\":3575:3602  length := mload(_postBytes) */\n      swap3\n      pop\n        /* \"contracts/demo2.sol\":3656:3665  tempBytes */\n      dup4\n        /* \"contracts/demo2.sol\":3650:3666  mload(tempBytes) */\n      mload\n        /* \"contracts/demo2.sol\":3642:3648  length */\n      dup4\n        /* \"contracts/demo2.sol\":3638:3667  add(length, mload(tempBytes)) */\n      add\n        /* \"contracts/demo2.sol\":3627:3636  tempBytes */\n      dup5\n        /* \"contracts/demo2.sol\":3620:3668  mstore(tempBytes, add(length, mload(tempBytes))) */\n      mstore\n        /* \"contracts/demo2.sol\":3820:3823  end */\n      dup1\n        /* \"contracts/demo2.sol\":3814:3823  mc := end */\n      swap2\n      pop\n        /* \"contracts/demo2.sol\":3972:3978  length */\n      dup3\n        /* \"contracts/demo2.sol\":3968:3970  mc */\n      dup3\n        /* \"contracts/demo2.sol\":3964:3979  add(mc, length) */\n      add\n        /* \"contracts/demo2.sol\":3957:3979  end := add(mc, length) */\n      swap1\n      pop\n        /* \"contracts/demo2.sol\":4052:4056  0x20 */\n      0x20\n        /* \"contracts/demo2.sol\":4040:4050  _postBytes */\n      dup7\n        /* \"contracts/demo2.sol\":4036:4057  add(_postBytes, 0x20) */\n      add\n        /* \"contracts/demo2.sol\":3999:4255  for {\r... */\n    tag_50:\n        /* \"contracts/demo2.sol\":4084:4087  end */\n      dup2\n        /* \"contracts/demo2.sol\":4080:4082  mc */\n      dup4\n        /* \"contracts/demo2.sol\":4077:4088  lt(mc, end) */\n      lt\n        /* \"contracts/demo2.sol\":3999:4255  for {\r... */\n      iszero\n      tag_52\n      jumpi\n        /* \"contracts/demo2.sol\":4232:4234  cc */\n      dup1\n        /* \"contracts/demo2.sol\":4226:4235  mload(cc) */\n      mload\n        /* \"contracts/demo2.sol\":4222:4224  mc */\n      dup4\n        /* \"contracts/demo2.sol\":4215:4236  mstore(mc, mload(cc)) */\n      mstore\n        /* \"contracts/demo2.sol\":4126:4130  0x20 */\n      0x20\n        /* \"contracts/demo2.sol\":4122:4124  mc */\n      dup4\n        /* \"contracts/demo2.sol\":4118:4131  add(mc, 0x20) */\n      add\n        /* \"contracts/demo2.sol\":4112:4131  mc := add(mc, 0x20) */\n      swap3\n      pop\n        /* \"contracts/demo2.sol\":4167:4171  0x20 */\n      0x20\n        /* \"contracts/demo2.sol\":4163:4165  cc */\n      dup2\n        /* \"contracts/demo2.sol\":4159:4172  add(cc, 0x20) */\n      add\n        /* \"contracts/demo2.sol\":4153:4172  cc := add(cc, 0x20) */\n      swap1\n      pop\n        /* \"contracts/demo2.sol\":3999:4255  for {\r... */\n      jump(tag_50)\n    tag_52:\n        /* \"contracts/demo2.sol\":4003:4076  {\r... */\n      pop\n        /* \"contracts/demo2.sol\":4805:4807  31 */\n      0x1f\n        /* \"contracts/demo2.sol\":4801:4808  not(31) */\n      not\n        /* \"contracts/demo2.sol\":4779:4781  31 */\n      0x1f\n        /* \"contracts/demo2.sol\":4764:4773  _preBytes */\n      dup9\n        /* \"contracts/demo2.sol\":4758:4774  mload(_preBytes) */\n      mload\n        /* \"contracts/demo2.sol\":4750:4756  length */\n      dup6\n        /* \"contracts/demo2.sol\":4746:4775  add(length, mload(_preBytes)) */\n      add\n        /* \"contracts/demo2.sol\":4739:4776  iszero(add(length, mload(_preBytes))) */\n      iszero\n        /* \"contracts/demo2.sol\":4734:4737  end */\n      dup4\n        /* \"contracts/demo2.sol\":4730:4777  add(end, iszero(add(length, mload(_preBytes)))) */\n      add\n        /* \"contracts/demo2.sol\":4726:4782  add(add(end, iszero(add(length, mload(_preBytes)))), 31) */\n      add\n        /* \"contracts/demo2.sol\":4704:4866  and(\r... */\n      and\n        /* \"contracts/demo2.sol\":4698:4702  0x40 */\n      0x40\n        /* \"contracts/demo2.sol\":4691:4867  mstore(0x40, and(\r... */\n      mstore\n        /* \"contracts/demo2.sol\":1985:4882  {\r... */\n      pop\n      pop\n      pop\n        /* \"contracts/demo2.sol\":4905:4914  tempBytes */\n      dup1\n        /* \"contracts/demo2.sol\":4898:4914  return tempBytes */\n      swap2\n      pop\n      pop\n        /* \"contracts/demo2.sol\":1743:4926  function mergeBytes(\r... */\n      swap3\n      swap2\n      pop\n      pop\n      jump\t// out\n        /* \"contracts/demo2.sol\":1253:1731  function encodeLength(uint length, uint offset) internal pure returns (bytes memory) {\r... */\n    tag_45:\n        /* \"contracts/demo2.sol\":1324:1336  bytes memory */\n      0x60\n        /* \"contracts/demo2.sol\":1370:1376  256**8 */\n      0x010000000000000000\n        /* \"contracts/demo2.sol\":1361:1367  length */\n      dup4\n        /* \"contracts/demo2.sol\":1361:1376  length < 256**8 */\n      lt\n        /* \"contracts/demo2.sol\":1353:1395  require(length < 256**8, \"input too long\") */\n      tag_54\n      jumpi\n      mload(0x40)\n      0x08c379a000000000000000000000000000000000000000000000000000000000\n      dup2\n      mstore\n      0x04\n      add\n      tag_55\n      swap1\n      jump(tag_56)\n    tag_55:\n      mload(0x40)\n      dup1\n      swap2\n      sub\n      swap1\n      revert\n    tag_54:\n        /* \"contracts/demo2.sol\":1410:1425  bytes memory rs */\n      0x60\n        /* \"contracts/demo2.sol\":1438:1439  1 */\n      0x01\n        /* \"contracts/demo2.sol\":1428:1440  new bytes(1) */\n      mload(0x40)\n      swap1\n      dup1\n      dup3\n      mstore\n      dup1\n      0x1f\n      add\n      not(0x1f)\n      and\n      0x20\n      add\n      dup3\n      add\n      0x40\n      mstore\n      dup1\n      iszero\n      tag_57\n      jumpi\n      dup2\n      0x20\n      add\n        /* \"--CODEGEN--\":29:30   */\n      0x01\n        /* \"--CODEGEN--\":21:27   */\n      dup3\n        /* \"--CODEGEN--\":17:31   */\n      mul\n        /* \"--CODEGEN--\":124:128   */\n      dup1\n        /* \"--CODEGEN--\":108:122   */\n      calldatasize\n        /* \"--CODEGEN--\":100:106   */\n      dup4\n        /* \"--CODEGEN--\":87:129   */\n      calldatacopy\n        /* \"--CODEGEN--\":155:159   */\n      dup1\n        /* \"--CODEGEN--\":147:153   */\n      dup3\n        /* \"--CODEGEN--\":143:160   */\n      add\n        /* \"--CODEGEN--\":133:160   */\n      swap2\n      pop\n        /* \"--CODEGEN--\":0:164   */\n      pop\n        /* \"contracts/demo2.sol\":1428:1440  new bytes(1) */\n      swap1\n      pop\n    tag_57:\n      pop\n        /* \"contracts/demo2.sol\":1410:1440  bytes memory rs = new bytes(1) */\n      swap1\n      pop\n        /* \"contracts/demo2.sol\":1469:1471  55 */\n      0x37\n        /* \"contracts/demo2.sol\":1459:1465  length */\n      dup5\n        /* \"contracts/demo2.sol\":1459:1471  length <= 55 */\n      gt\n        /* \"contracts/demo2.sol\":1455:1572  if (length <= 55) {\r... */\n      tag_58\n      jumpi\n        /* \"contracts/demo2.sol\":1520:1526  offset */\n      dup3\n        /* \"contracts/demo2.sol\":1511:1517  length */\n      dup5\n        /* \"contracts/demo2.sol\":1511:1526  length + offset */\n      add\n        /* \"contracts/demo2.sol\":1500:1528  byte(uint8(length + offset)) */\n      0xf8\n      shl\n        /* \"contracts/demo2.sol\":1492:1494  rs */\n      dup2\n        /* \"contracts/demo2.sol\":1495:1496  0 */\n      0x00\n        /* \"contracts/demo2.sol\":1492:1497  rs[0] */\n      dup2\n      mload\n      dup2\n      lt\n      tag_59\n      jumpi\n      invalid\n    tag_59:\n      0x20\n      add\n      add\n        /* \"contracts/demo2.sol\":1492:1528  rs[0] = byte(uint8(length + offset)) */\n      swap1\n      not(0xffffffffffffffffffffffffffffffffffffffffffffffffffffffffffffff)\n      and\n      swap1\n      dup2\n      0x00\n      byte\n      swap1\n      mstore8\n      pop\n        /* \"contracts/demo2.sol\":1554:1556  rs */\n      dup1\n        /* \"contracts/demo2.sol\":1547:1556  return rs */\n      swap2\n      pop\n      pop\n      jump(tag_53)\n        /* \"contracts/demo2.sol\":1455:1572  if (length <= 55) {\r... */\n    tag_58:\n        /* \"contracts/demo2.sol\":1586:1601  bytes memory bl */\n      0x60\n        /* \"contracts/demo2.sol\":1604:1620  toBinary(length) */\n      tag_60\n        /* \"contracts/demo2.sol\":1613:1619  length */\n      dup6\n        /* \"contracts/demo2.sol\":1604:1612  toBinary */\n      tag_61\n        /* \"contracts/demo2.sol\":1604:1620  toBinary(length) */\n      jump\t// in\n    tag_60:\n        /* \"contracts/demo2.sol\":1586:1620  bytes memory bl = toBinary(length) */\n      swap1\n      pop\n        /* \"contracts/demo2.sol\":1675:1677  55 */\n      0x37\n        /* \"contracts/demo2.sol\":1666:1672  offset */\n      dup5\n        /* \"contracts/demo2.sol\":1654:1656  bl */\n      dup3\n        /* \"contracts/demo2.sol\":1654:1663  bl.length */\n      mload\n        /* \"contracts/demo2.sol\":1654:1672  bl.length + offset */\n      add\n        /* \"contracts/demo2.sol\":1654:1677  bl.length + offset + 55 */\n      add\n        /* \"contracts/demo2.sol\":1643:1679  byte(uint8(bl.length + offset + 55)) */\n      0xf8\n      shl\n        /* \"contracts/demo2.sol\":1635:1637  rs */\n      dup3\n        /* \"contracts/demo2.sol\":1638:1639  0 */\n      0x00\n        /* \"contracts/demo2.sol\":1635:1640  rs[0] */\n      dup2\n      mload\n      dup2\n      lt\n      tag_62\n      jumpi\n      invalid\n    tag_62:\n      0x20\n      add\n      add\n        /* \"contracts/demo2.sol\":1635:1679  rs[0] = byte(uint8(bl.length + offset + 55)) */\n      swap1\n      not(0xffffffffffffffffffffffffffffffffffffffffffffffffffffffffffffff)\n      and\n      swap1\n      dup2\n      0x00\n      byte\n      swap1\n      mstore8\n      pop\n        /* \"contracts/demo2.sol\":1701:1719  mergeBytes(rs, bl) */\n      tag_63\n        /* \"contracts/demo2.sol\":1712:1714  rs */\n      dup3\n        /* \"contracts/demo2.sol\":1716:1718  bl */\n      dup3\n        /* \"contracts/demo2.sol\":1701:1711  mergeBytes */\n      tag_42\n        /* \"contracts/demo2.sol\":1701:1719  mergeBytes(rs, bl) */\n      jump\t// in\n    tag_63:\n        /* \"contracts/demo2.sol\":1694:1719  return mergeBytes(rs, bl) */\n      swap3\n      pop\n      pop\n      pop\n        /* \"contracts/demo2.sol\":1253:1731  function encodeLength(uint length, uint offset) internal pure returns (bytes memory) {\r... */\n    tag_53:\n      swap3\n      swap2\n      pop\n      pop\n      jump\t// out\n        /* \"contracts/demo2.sol\":4946:5834  function toBinary(uint x) internal pure returns (bytes memory) {\r... */\n    tag_61:\n        /* \"contracts/demo2.sol\":4995:5007  bytes memory */\n      0x60\n        /* \"contracts/demo2.sol\":5024:5038  bytes memory b */\n      dup1\n        /* \"contracts/demo2.sol\":5051:5053  32 */\n      0x20\n        /* \"contracts/demo2.sol\":5041:5054  new bytes(32) */\n      mload(0x40)\n      swap1\n      dup1\n      dup3\n      mstore\n      dup1\n      0x1f\n      add\n      not(0x1f)\n      and\n      0x20\n      add\n      dup3\n      add\n      0x40\n      mstore\n      dup1\n      iszero\n      tag_65\n      jumpi\n      dup2\n      0x20\n      add\n        /* \"--CODEGEN--\":29:30   */\n      0x01\n        /* \"--CODEGEN--\":21:27   */\n      dup3\n        /* \"--CODEGEN--\":17:31   */\n      mul\n        /* \"--CODEGEN--\":124:128   */\n      dup1\n        /* \"--CODEGEN--\":108:122   */\n      calldatasize\n        /* \"--CODEGEN--\":100:106   */\n      dup4\n        /* \"--CODEGEN--\":87:129   */\n      calldatacopy\n        /* \"--CODEGEN--\":155:159   */\n      dup1\n        /* \"--CODEGEN--\":147:153   */\n      dup3\n        /* \"--CODEGEN--\":143:160   */\n      add\n        /* \"--CODEGEN--\":133:160   */\n      swap2\n      pop\n        /* \"--CODEGEN--\":0:164   */\n      pop\n        /* \"contracts/demo2.sol\":5041:5054  new bytes(32) */\n      swap1\n      pop\n    tag_65:\n      pop\n        /* \"contracts/demo2.sol\":5024:5054  bytes memory b = new bytes(32) */\n      swap1\n      pop\n        /* \"contracts/demo2.sol\":5116:5117  x */\n      dup3\n        /* \"contracts/demo2.sol\":5111:5113  32 */\n      0x20\n        /* \"contracts/demo2.sol\":5108:5109  b */\n      dup3\n        /* \"contracts/demo2.sol\":5104:5114  add(b, 32) */\n      add\n        /* \"contracts/demo2.sol\":5097:5118  mstore(add(b, 32), x) */\n      mstore\n        /* \"contracts/demo2.sol\":5147:5153  uint i */\n      0x00\n        /* \"contracts/demo2.sol\":5246:5247  0 */\n      dup1\n        /* \"contracts/demo2.sol\":5176:5242  0xffffffffffffffffffffffffffffffffffffffffffffffff0000000000000000 */\n      0xffffffffffffffffffffffffffffffffffffffffffffffff0000000000000000\n        /* \"contracts/demo2.sol\":5172:5173  x */\n      dup6\n        /* \"contracts/demo2.sol\":5172:5242  x & 0xffffffffffffffffffffffffffffffffffffffffffffffff0000000000000000 */\n      and\n        /* \"contracts/demo2.sol\":5172:5247  x & 0xffffffffffffffffffffffffffffffffffffffffffffffff0000000000000000 == 0 */\n      eq\n        /* \"contracts/demo2.sol\":5168:5464  if (x & 0xffffffffffffffffffffffffffffffffffffffffffffffff0000000000000000 == 0) {\r... */\n      iszero\n      tag_66\n      jumpi\n        /* \"contracts/demo2.sol\":5272:5274  24 */\n      0x18\n        /* \"contracts/demo2.sol\":5268:5274  i = 24 */\n      swap1\n      pop\n        /* \"contracts/demo2.sol\":5168:5464  if (x & 0xffffffffffffffffffffffffffffffffffffffffffffffff0000000000000000 == 0) {\r... */\n      jump(tag_67)\n    tag_66:\n        /* \"contracts/demo2.sol\":5374:5375  0 */\n      0x00\n        /* \"contracts/demo2.sol\":5304:5370  0xffffffffffffffffffffffffffffffff00000000000000000000000000000000 */\n      0xffffffffffffffffffffffffffffffff00000000000000000000000000000000\n        /* \"contracts/demo2.sol\":5300:5301  x */\n      dup6\n        /* \"contracts/demo2.sol\":5300:5370  x & 0xffffffffffffffffffffffffffffffff00000000000000000000000000000000 */\n      and\n        /* \"contracts/demo2.sol\":5300:5375  x & 0xffffffffffffffffffffffffffffffff00000000000000000000000000000000 == 0 */\n      eq\n        /* \"contracts/demo2.sol\":5296:5464  if (x & 0xffffffffffffffffffffffffffffffff00000000000000000000000000000000 == 0) {\r... */\n      iszero\n      tag_68\n      jumpi\n        /* \"contracts/demo2.sol\":5400:5402  16 */\n      0x10\n        /* \"contracts/demo2.sol\":5396:5402  i = 16 */\n      swap1\n      pop\n        /* \"contracts/demo2.sol\":5296:5464  if (x & 0xffffffffffffffffffffffffffffffff00000000000000000000000000000000 == 0) {\r... */\n      jump(tag_69)\n    tag_68:\n        /* \"contracts/demo2.sol\":5447:5448  0 */\n      0x00\n        /* \"contracts/demo2.sol\":5443:5448  i = 0 */\n      swap1\n      pop\n        /* \"contracts/demo2.sol\":5296:5464  if (x & 0xffffffffffffffffffffffffffffffff00000000000000000000000000000000 == 0) {\r... */\n    tag_69:\n        /* \"contracts/demo2.sol\":5168:5464  if (x & 0xffffffffffffffffffffffffffffffffffffffffffffffff0000000000000000 == 0) {\r... */\n    tag_67:\n        /* \"contracts/demo2.sol\":5478:5595  for (; i < 32; i++) {\r... */\n    tag_70:\n        /* \"contracts/demo2.sol\":5489:5491  32 */\n      0x20\n        /* \"contracts/demo2.sol\":5485:5486  i */\n      dup2\n        /* \"contracts/demo2.sol\":5485:5491  i < 32 */\n      lt\n        /* \"contracts/demo2.sol\":5478:5595  for (; i < 32; i++) {\r... */\n      iszero\n      tag_71\n      jumpi\n        /* \"contracts/demo2.sol\":5529:5530  0 */\n      0x00\n        /* \"contracts/demo2.sol\":5521:5530  b[i] != 0 */\n      0xf8\n      shl\n        /* \"contracts/demo2.sol\":5521:5522  b */\n      dup3\n        /* \"contracts/demo2.sol\":5523:5524  i */\n      dup3\n        /* \"contracts/demo2.sol\":5521:5525  b[i] */\n      dup2\n      mload\n      dup2\n      lt\n      tag_73\n      jumpi\n      invalid\n    tag_73:\n      0x20\n      add\n      add\n      mload\n      0xf8\n      shr\n      0xf8\n      shl\n        /* \"contracts/demo2.sol\":5521:5530  b[i] != 0 */\n      not(0xffffffffffffffffffffffffffffffffffffffffffffffffffffffffffffff)\n      and\n      eq\n        /* \"contracts/demo2.sol\":5517:5580  if (b[i] != 0) {\r... */\n      tag_74\n      jumpi\n        /* \"contracts/demo2.sol\":5555:5560  break */\n      jump(tag_71)\n        /* \"contracts/demo2.sol\":5517:5580  if (b[i] != 0) {\r... */\n    tag_74:\n        /* \"contracts/demo2.sol\":5493:5496  i++ */\n      dup1\n      dup1\n      0x01\n      add\n      swap2\n      pop\n      pop\n        /* \"contracts/demo2.sol\":5478:5595  for (; i < 32; i++) {\r... */\n      jump(tag_70)\n    tag_71:\n        /* \"contracts/demo2.sol\":5609:5620  uint length */\n      0x00\n        /* \"contracts/demo2.sol\":5628:5629  i */\n      dup2\n        /* \"contracts/demo2.sol\":5623:5625  32 */\n      0x20\n        /* \"contracts/demo2.sol\":5623:5629  32 - i */\n      sub\n        /* \"contracts/demo2.sol\":5609:5629  uint length = 32 - i */\n      swap1\n      pop\n        /* \"contracts/demo2.sol\":5644:5659  bytes memory rs */\n      0x60\n        /* \"contracts/demo2.sol\":5672:5678  length */\n      dup2\n        /* \"contracts/demo2.sol\":5662:5679  new bytes(length) */\n      mload(0x40)\n      swap1\n      dup1\n      dup3\n      mstore\n      dup1\n      0x1f\n      add\n      not(0x1f)\n      and\n      0x20\n      add\n      dup3\n      add\n      0x40\n      mstore\n      dup1\n      iszero\n      tag_75\n      jumpi\n      dup2\n      0x20\n      add\n        /* \"--CODEGEN--\":29:30   */\n      0x01\n        /* \"--CODEGEN--\":21:27   */\n      dup3\n        /* \"--CODEGEN--\":17:31   */\n      mul\n        /* \"--CODEGEN--\":124:128   */\n      dup1\n        /* \"--CODEGEN--\":108:122   */\n      calldatasize\n        /* \"--CODEGEN--\":100:106   */\n      dup4\n        /* \"--CODEGEN--\":87:129   */\n      calldatacopy\n        /* \"--CODEGEN--\":155:159   */\n      dup1\n        /* \"--CODEGEN--\":147:153   */\n      dup3\n        /* \"--CODEGEN--\":143:160   */\n      add\n        /* \"--CODEGEN--\":133:160   */\n      swap2\n      pop\n        /* \"--CODEGEN--\":0:164   */\n      pop\n        /* \"contracts/demo2.sol\":5662:5679  new bytes(length) */\n      swap1\n      pop\n    tag_75:\n      pop\n        /* \"contracts/demo2.sol\":5644:5679  bytes memory rs = new bytes(length) */\n      swap1\n      pop\n        /* \"contracts/demo2.sol\":5746:5747  x */\n      dup6\n        /* \"contracts/demo2.sol\":5737:5743  length */\n      dup3\n        /* \"contracts/demo2.sol\":5733:5735  rs */\n      dup3\n        /* \"contracts/demo2.sol\":5729:5744  add(rs, length) */\n      add\n        /* \"contracts/demo2.sol\":5722:5748  mstore(add(rs, length), x) */\n      mstore\n        /* \"contracts/demo2.sol\":5777:5783  length */\n      dup2\n        /* \"contracts/demo2.sol\":5773:5775  rs */\n      dup2\n        /* \"contracts/demo2.sol\":5766:5784  mstore(rs, length) */\n      mstore\n        /* \"contracts/demo2.sol\":5820:5822  rs */\n      dup1\n        /* \"contracts/demo2.sol\":5813:5822  return rs */\n      swap5\n      pop\n      pop\n      pop\n      pop\n      pop\n        /* \"contracts/demo2.sol\":4946:5834  function toBinary(uint x) internal pure returns (bytes memory) {\r... */\n      swap2\n      swap1\n      pop\n      jump\t// out\n        /* \"--CODEGEN--\":21:714   */\n    tag_77:\n      0x00\n        /* \"--CODEGEN--\":143:146   */\n      dup3\n        /* \"--CODEGEN--\":136:140   */\n      0x1f\n        /* \"--CODEGEN--\":128:134   */\n      dup4\n        /* \"--CODEGEN--\":124:141   */\n      add\n        /* \"--CODEGEN--\":120:147   */\n      slt\n        /* \"--CODEGEN--\":110:112   */\n      tag_79\n      jumpi\n        /* \"--CODEGEN--\":161:162   */\n      0x00\n        /* \"--CODEGEN--\":158:159   */\n      dup1\n        /* \"--CODEGEN--\":151:163   */\n      revert\n        /* \"--CODEGEN--\":110:112   */\n    tag_79:\n        /* \"--CODEGEN--\":198:204   */\n      dup2\n        /* \"--CODEGEN--\":185:205   */\n      calldataload\n        /* \"--CODEGEN--\":220:305   */\n      tag_80\n        /* \"--CODEGEN--\":235:304   */\n      tag_81\n        /* \"--CODEGEN--\":297:303   */\n      dup3\n        /* \"--CODEGEN--\":235:304   */\n      jump(tag_82)\n    tag_81:\n        /* \"--CODEGEN--\":220:305   */\n      jump(tag_83)\n    tag_80:\n        /* \"--CODEGEN--\":211:305   */\n      swap2\n      pop\n        /* \"--CODEGEN--\":322:327   */\n      dup2\n        /* \"--CODEGEN--\":347:353   */\n      dup2\n        /* \"--CODEGEN--\":340:345   */\n      dup4\n        /* \"--CODEGEN--\":333:354   */\n      mstore\n        /* \"--CODEGEN--\":377:381   */\n      0x20\n        /* \"--CODEGEN--\":369:375   */\n      dup5\n        /* \"--CODEGEN--\":365:382   */\n      add\n        /* \"--CODEGEN--\":355:382   */\n      swap4\n      pop\n        /* \"--CODEGEN--\":399:403   */\n      0x20\n        /* \"--CODEGEN--\":394:397   */\n      dup2\n        /* \"--CODEGEN--\":390:404   */\n      add\n        /* \"--CODEGEN--\":383:404   */\n      swap1\n      pop\n        /* \"--CODEGEN--\":452:458   */\n      dup4\n        /* \"--CODEGEN--\":485:486   */\n      0x00\n        /* \"--CODEGEN--\":470:708   */\n    tag_84:\n        /* \"--CODEGEN--\":495:501   */\n      dup4\n        /* \"--CODEGEN--\":492:493   */\n      dup2\n        /* \"--CODEGEN--\":489:502   */\n      lt\n        /* \"--CODEGEN--\":470:708   */\n      iszero\n      tag_86\n      jumpi\n        /* \"--CODEGEN--\":578:581   */\n      dup2\n        /* \"--CODEGEN--\":565:582   */\n      calldataload\n        /* \"--CODEGEN--\":557:563   */\n      dup7\n        /* \"--CODEGEN--\":553:583   */\n      add\n        /* \"--CODEGEN--\":602:644   */\n      tag_87\n        /* \"--CODEGEN--\":640:643   */\n      dup9\n        /* \"--CODEGEN--\":628:638   */\n      dup3\n        /* \"--CODEGEN--\":602:644   */\n      jump(tag_88)\n    tag_87:\n        /* \"--CODEGEN--\":597:600   */\n      dup5\n        /* \"--CODEGEN--\":590:645   */\n      mstore\n        /* \"--CODEGEN--\":668:672   */\n      0x20\n        /* \"--CODEGEN--\":663:666   */\n      dup5\n        /* \"--CODEGEN--\":659:673   */\n      add\n        /* \"--CODEGEN--\":652:673   */\n      swap4\n      pop\n        /* \"--CODEGEN--\":696:700   */\n      0x20\n        /* \"--CODEGEN--\":691:694   */\n      dup4\n        /* \"--CODEGEN--\":687:701   */\n      add\n        /* \"--CODEGEN--\":680:701   */\n      swap3\n      pop\n        /* \"--CODEGEN--\":527:708   */\n      pop\n        /* \"--CODEGEN--\":517:518   */\n      0x01\n        /* \"--CODEGEN--\":514:515   */\n      dup2\n        /* \"--CODEGEN--\":510:519   */\n      add\n        /* \"--CODEGEN--\":505:519   */\n      swap1\n      pop\n        /* \"--CODEGEN--\":470:708   */\n      jump(tag_84)\n    tag_86:\n        /* \"--CODEGEN--\":474:488   */\n      pop\n        /* \"--CODEGEN--\":103:714   */\n      pop\n      pop\n      pop\n      swap3\n      swap2\n      pop\n      pop\n      jump\n        /* \"--CODEGEN--\":723:1155   */\n    tag_88:\n      0x00\n        /* \"--CODEGEN--\":820:823   */\n      dup3\n        /* \"--CODEGEN--\":813:817   */\n      0x1f\n        /* \"--CODEGEN--\":805:811   */\n      dup4\n        /* \"--CODEGEN--\":801:818   */\n      add\n        /* \"--CODEGEN--\":797:824   */\n      slt\n        /* \"--CODEGEN--\":787:789   */\n      tag_90\n      jumpi\n        /* \"--CODEGEN--\":838:839   */\n      0x00\n        /* \"--CODEGEN--\":835:836   */\n      dup1\n        /* \"--CODEGEN--\":828:840   */\n      revert\n        /* \"--CODEGEN--\":787:789   */\n    tag_90:\n        /* \"--CODEGEN--\":875:881   */\n      dup2\n        /* \"--CODEGEN--\":862:882   */\n      calldataload\n        /* \"--CODEGEN--\":897:957   */\n      tag_91\n        /* \"--CODEGEN--\":912:956   */\n      tag_92\n        /* \"--CODEGEN--\":949:955   */\n      dup3\n        /* \"--CODEGEN--\":912:956   */\n      jump(tag_93)\n    tag_92:\n        /* \"--CODEGEN--\":897:957   */\n      jump(tag_83)\n    tag_91:\n        /* \"--CODEGEN--\":888:957   */\n      swap2\n      pop\n        /* \"--CODEGEN--\":977:983   */\n      dup1\n        /* \"--CODEGEN--\":970:975   */\n      dup3\n        /* \"--CODEGEN--\":963:984   */\n      mstore\n        /* \"--CODEGEN--\":1013:1017   */\n      0x20\n        /* \"--CODEGEN--\":1005:1011   */\n      dup4\n        /* \"--CODEGEN--\":1001:1018   */\n      add\n        /* \"--CODEGEN--\":1046:1050   */\n      0x20\n        /* \"--CODEGEN--\":1039:1044   */\n      dup4\n        /* \"--CODEGEN--\":1035:1051   */\n      add\n        /* \"--CODEGEN--\":1081:1084   */\n      dup6\n        /* \"--CODEGEN--\":1072:1078   */\n      dup4\n        /* \"--CODEGEN--\":1067:1070   */\n      dup4\n        /* \"--CODEGEN--\":1063:1079   */\n      add\n        /* \"--CODEGEN--\":1060:1085   */\n      gt\n        /* \"--CODEGEN--\":1057:1059   */\n      iszero\n      tag_94\n      jumpi\n        /* \"--CODEGEN--\":1098:1099   */\n      0x00\n        /* \"--CODEGEN--\":1095:1096   */\n      dup1\n        /* \"--CODEGEN--\":1088:1100   */\n      revert\n        /* \"--CODEGEN--\":1057:1059   */\n    tag_94:\n        /* \"--CODEGEN--\":1108:1149   */\n      tag_95\n        /* \"--CODEGEN--\":1142:1148   */\n      dup4\n        /* \"--CODEGEN--\":1137:1140   */\n      dup3\n        /* \"--CODEGEN--\":1132:1135   */\n      dup5\n        /* \"--CODEGEN--\":1108:1149   */\n      jump(tag_96)\n    tag_95:\n        /* \"--CODEGEN--\":780:1155   */\n      pop\n      pop\n      pop\n      swap3\n      swap2\n      pop\n      pop\n      jump\n        /* \"--CODEGEN--\":1163:1550   */\n    tag_9:\n      0x00\n        /* \"--CODEGEN--\":1297:1299   */\n      0x20\n        /* \"--CODEGEN--\":1285:1294   */\n      dup3\n        /* \"--CODEGEN--\":1276:1283   */\n      dup5\n        /* \"--CODEGEN--\":1272:1295   */\n      sub\n        /* \"--CODEGEN--\":1268:1300   */\n      slt\n        /* \"--CODEGEN--\":1265:1267   */\n      iszero\n      tag_98\n      jumpi\n        /* \"--CODEGEN--\":1313:1314   */\n      0x00\n        /* \"--CODEGEN--\":1310:1311   */\n      dup1\n        /* \"--CODEGEN--\":1303:1315   */\n      revert\n        /* \"--CODEGEN--\":1265:1267   */\n    tag_98:\n        /* \"--CODEGEN--\":1376:1377   */\n      0x00\n        /* \"--CODEGEN--\":1365:1374   */\n      dup3\n        /* \"--CODEGEN--\":1361:1378   */\n      add\n        /* \"--CODEGEN--\":1348:1379   */\n      calldataload\n        /* \"--CODEGEN--\":1399:1417   */\n      0xffffffffffffffff\n        /* \"--CODEGEN--\":1391:1397   */\n      dup2\n        /* \"--CODEGEN--\":1388:1418   */\n      gt\n        /* \"--CODEGEN--\":1385:1387   */\n      iszero\n      tag_99\n      jumpi\n        /* \"--CODEGEN--\":1431:1432   */\n      0x00\n        /* \"--CODEGEN--\":1428:1429   */\n      dup1\n        /* \"--CODEGEN--\":1421:1433   */\n      revert\n        /* \"--CODEGEN--\":1385:1387   */\n    tag_99:\n        /* \"--CODEGEN--\":1451:1534   */\n      tag_100\n        /* \"--CODEGEN--\":1526:1533   */\n      dup5\n        /* \"--CODEGEN--\":1517:1523   */\n      dup3\n        /* \"--CODEGEN--\":1506:1515   */\n      dup6\n        /* \"--CODEGEN--\":1502:1524   */\n      add\n        /* \"--CODEGEN--\":1451:1534   */\n      jump(tag_77)\n    tag_100:\n        /* \"--CODEGEN--\":1441:1534   */\n      swap2\n      pop\n        /* \"--CODEGEN--\":1327:1540   */\n      pop\n        /* \"--CODEGEN--\":1259:1550   */\n      swap3\n      swap2\n      pop\n      pop\n      jump\n        /* \"--CODEGEN--\":1557:1670   */\n    tag_101:\n        /* \"--CODEGEN--\":1640:1664   */\n      tag_103\n        /* \"--CODEGEN--\":1658:1663   */\n      dup2\n        /* \"--CODEGEN--\":1640:1664   */\n      jump(tag_104)\n    tag_103:\n        /* \"--CODEGEN--\":1635:1638   */\n      dup3\n        /* \"--CODEGEN--\":1628:1665   */\n      mstore\n        /* \"--CODEGEN--\":1622:1670   */\n      pop\n      pop\n      jump\n        /* \"--CODEGEN--\":1677:2020   */\n    tag_105:\n      0x00\n        /* \"--CODEGEN--\":1787:1825   */\n      tag_107\n        /* \"--CODEGEN--\":1819:1824   */\n      dup3\n        /* \"--CODEGEN--\":1787:1825   */\n      jump(tag_108)\n    tag_107:\n        /* \"--CODEGEN--\":1837:1907   */\n      tag_109\n        /* \"--CODEGEN--\":1900:1906   */\n      dup2\n        /* \"--CODEGEN--\":1895:1898   */\n      dup6\n        /* \"--CODEGEN--\":1837:1907   */\n      jump(tag_110)\n    tag_109:\n        /* \"--CODEGEN--\":1830:1907   */\n      swap4\n      pop\n        /* \"--CODEGEN--\":1912:1964   */\n      tag_111\n        /* \"--CODEGEN--\":1957:1963   */\n      dup2\n        /* \"--CODEGEN--\":1952:1955   */\n      dup6\n        /* \"--CODEGEN--\":1945:1949   */\n      0x20\n        /* \"--CODEGEN--\":1938:1943   */\n      dup7\n        /* \"--CODEGEN--\":1934:1950   */\n      add\n        /* \"--CODEGEN--\":1912:1964   */\n      jump(tag_112)\n    tag_111:\n        /* \"--CODEGEN--\":1985:2014   */\n      tag_113\n        /* \"--CODEGEN--\":2007:2013   */\n      dup2\n        /* \"--CODEGEN--\":1985:2014   */\n      jump(tag_114)\n    tag_113:\n        /* \"--CODEGEN--\":1980:1983   */\n      dup5\n        /* \"--CODEGEN--\":1976:2015   */\n      add\n        /* \"--CODEGEN--\":1969:2015   */\n      swap2\n      pop\n        /* \"--CODEGEN--\":1767:2020   */\n      pop\n      swap3\n      swap2\n      pop\n      pop\n      jump\n        /* \"--CODEGEN--\":2027:2362   */\n    tag_115:\n      0x00\n        /* \"--CODEGEN--\":2133:2167   */\n      tag_117\n        /* \"--CODEGEN--\":2161:2166   */\n      dup3\n        /* \"--CODEGEN--\":2133:2167   */\n      jump(tag_118)\n    tag_117:\n        /* \"--CODEGEN--\":2179:2249   */\n      tag_119\n        /* \"--CODEGEN--\":2242:2248   */\n      dup2\n        /* \"--CODEGEN--\":2237:2240   */\n      dup6\n        /* \"--CODEGEN--\":2179:2249   */\n      jump(tag_110)\n    tag_119:\n        /* \"--CODEGEN--\":2172:2249   */\n      swap4\n      pop\n        /* \"--CODEGEN--\":2254:2306   */\n      tag_120\n        /* \"--CODEGEN--\":2299:2305   */\n      dup2\n        /* \"--CODEGEN--\":2294:2297   */\n      dup6\n        /* \"--CODEGEN--\":2287:2291   */\n      0x20\n        /* \"--CODEGEN--\":2280:2285   */\n      dup7\n        /* \"--CODEGEN--\":2276:2292   */\n      add\n        /* \"--CODEGEN--\":2254:2306   */\n      jump(tag_112)\n    tag_120:\n        /* \"--CODEGEN--\":2327:2356   */\n      tag_121\n        /* \"--CODEGEN--\":2349:2355   */\n      dup2\n        /* \"--CODEGEN--\":2327:2356   */\n      jump(tag_114)\n    tag_121:\n        /* \"--CODEGEN--\":2322:2325   */\n      dup5\n        /* \"--CODEGEN--\":2318:2357   */\n      add\n        /* \"--CODEGEN--\":2311:2357   */\n      swap2\n      pop\n        /* \"--CODEGEN--\":2113:2362   */\n      pop\n      swap3\n      swap2\n      pop\n      pop\n      jump\n        /* \"--CODEGEN--\":2370:2684   */\n    tag_122:\n      0x00\n        /* \"--CODEGEN--\":2530:2597   */\n      tag_124\n        /* \"--CODEGEN--\":2594:2596   */\n      0x0e\n        /* \"--CODEGEN--\":2589:2592   */\n      dup4\n        /* \"--CODEGEN--\":2530:2597   */\n      jump(tag_125)\n    tag_124:\n        /* \"--CODEGEN--\":2523:2597   */\n      swap2\n      pop\n        /* \"--CODEGEN--\":2630:2646   */\n      0x696e70757420746f6f206c6f6e67000000000000000000000000000000000000\n        /* \"--CODEGEN--\":2626:2627   */\n      0x00\n        /* \"--CODEGEN--\":2621:2624   */\n      dup4\n        /* \"--CODEGEN--\":2617:2628   */\n      add\n        /* \"--CODEGEN--\":2610:2647   */\n      mstore\n        /* \"--CODEGEN--\":2675:2677   */\n      0x20\n        /* \"--CODEGEN--\":2670:2673   */\n      dup3\n        /* \"--CODEGEN--\":2666:2678   */\n      add\n        /* \"--CODEGEN--\":2659:2678   */\n      swap1\n      pop\n        /* \"--CODEGEN--\":2516:2684   */\n      swap2\n      swap1\n      pop\n      jump\n        /* \"--CODEGEN--\":2692:2905   */\n    tag_20:\n      0x00\n        /* \"--CODEGEN--\":2810:2812   */\n      0x20\n        /* \"--CODEGEN--\":2799:2808   */\n      dup3\n        /* \"--CODEGEN--\":2795:2813   */\n      add\n        /* \"--CODEGEN--\":2787:2813   */\n      swap1\n      pop\n        /* \"--CODEGEN--\":2824:2895   */\n      tag_127\n        /* \"--CODEGEN--\":2892:2893   */\n      0x00\n        /* \"--CODEGEN--\":2881:2890   */\n      dup4\n        /* \"--CODEGEN--\":2877:2894   */\n      add\n        /* \"--CODEGEN--\":2868:2874   */\n      dup5\n        /* \"--CODEGEN--\":2824:2895   */\n      jump(tag_101)\n    tag_127:\n        /* \"--CODEGEN--\":2781:2905   */\n      swap3\n      swap2\n      pop\n      pop\n      jump\n        /* \"--CODEGEN--\":2912:3201   */\n    tag_16:\n      0x00\n        /* \"--CODEGEN--\":3044:3046   */\n      0x20\n        /* \"--CODEGEN--\":3033:3042   */\n      dup3\n        /* \"--CODEGEN--\":3029:3047   */\n      add\n        /* \"--CODEGEN--\":3021:3047   */\n      swap1\n      pop\n        /* \"--CODEGEN--\":3094:3103   */\n      dup2\n        /* \"--CODEGEN--\":3088:3092   */\n      dup2\n        /* \"--CODEGEN--\":3084:3104   */\n      sub\n        /* \"--CODEGEN--\":3080:3081   */\n      0x00\n        /* \"--CODEGEN--\":3069:3078   */\n      dup4\n        /* \"--CODEGEN--\":3065:3082   */\n      add\n        /* \"--CODEGEN--\":3058:3105   */\n      mstore\n        /* \"--CODEGEN--\":3119:3191   */\n      tag_129\n        /* \"--CODEGEN--\":3186:3190   */\n      dup2\n        /* \"--CODEGEN--\":3177:3183   */\n      dup5\n        /* \"--CODEGEN--\":3119:3191   */\n      jump(tag_115)\n    tag_129:\n        /* \"--CODEGEN--\":3111:3191   */\n      swap1\n      pop\n        /* \"--CODEGEN--\":3015:3201   */\n      swap3\n      swap2\n      pop\n      pop\n      jump\n        /* \"--CODEGEN--\":3208:3505   */\n    tag_12:\n      0x00\n        /* \"--CODEGEN--\":3344:3346   */\n      0x20\n        /* \"--CODEGEN--\":3333:3342   */\n      dup3\n        /* \"--CODEGEN--\":3329:3347   */\n      add\n        /* \"--CODEGEN--\":3321:3347   */\n      swap1\n      pop\n        /* \"--CODEGEN--\":3394:3403   */\n      dup2\n        /* \"--CODEGEN--\":3388:3392   */\n      dup2\n        /* \"--CODEGEN--\":3384:3404   */\n      sub\n        /* \"--CODEGEN--\":3380:3381   */\n      0x00\n        /* \"--CODEGEN--\":3369:3378   */\n      dup4\n        /* \"--CODEGEN--\":3365:3382   */\n      add\n        /* \"--CODEGEN--\":3358:3405   */\n      mstore\n        /* \"--CODEGEN--\":3419:3495   */\n      tag_131\n        /* \"--CODEGEN--\":3490:3494   */\n      dup2\n        /* \"--CODEGEN--\":3481:3487   */\n      dup5\n        /* \"--CODEGEN--\":3419:3495   */\n      jump(tag_105)\n    tag_131:\n        /* \"--CODEGEN--\":3411:3495   */\n      swap1\n      pop\n        /* \"--CODEGEN--\":3315:3505   */\n      swap3\n      swap2\n      pop\n      pop\n      jump\n        /* \"--CODEGEN--\":3512:3919   */\n    tag_56:\n      0x00\n        /* \"--CODEGEN--\":3703:3705   */\n      0x20\n        /* \"--CODEGEN--\":3692:3701   */\n      dup3\n        /* \"--CODEGEN--\":3688:3706   */\n      add\n        /* \"--CODEGEN--\":3680:3706   */\n      swap1\n      pop\n        /* \"--CODEGEN--\":3753:3762   */\n      dup2\n        /* \"--CODEGEN--\":3747:3751   */\n      dup2\n        /* \"--CODEGEN--\":3743:3763   */\n      sub\n        /* \"--CODEGEN--\":3739:3740   */\n      0x00\n        /* \"--CODEGEN--\":3728:3737   */\n      dup4\n        /* \"--CODEGEN--\":3724:3741   */\n      add\n        /* \"--CODEGEN--\":3717:3764   */\n      mstore\n        /* \"--CODEGEN--\":3778:3909   */\n      tag_133\n        /* \"--CODEGEN--\":3904:3908   */\n      dup2\n        /* \"--CODEGEN--\":3778:3909   */\n      jump(tag_122)\n    tag_133:\n        /* \"--CODEGEN--\":3770:3909   */\n      swap1\n      pop\n        /* \"--CODEGEN--\":3674:3919   */\n      swap2\n      swap1\n      pop\n      jump\n        /* \"--CODEGEN--\":3926:4182   */\n    tag_83:\n      0x00\n        /* \"--CODEGEN--\":3988:3990   */\n      0x40\n        /* \"--CODEGEN--\":3982:3991   */\n      mload\n        /* \"--CODEGEN--\":3972:3991   */\n      swap1\n      pop\n        /* \"--CODEGEN--\":4026:4030   */\n      dup2\n        /* \"--CODEGEN--\":4018:4024   */\n      dup2\n        /* \"--CODEGEN--\":4014:4031   */\n      add\n        /* \"--CODEGEN--\":4125:4131   */\n      dup2\n        /* \"--CODEGEN--\":4113:4123   */\n      dup2\n        /* \"--CODEGEN--\":4110:4132   */\n      lt\n        /* \"--CODEGEN--\":4089:4107   */\n      0xffffffffffffffff\n        /* \"--CODEGEN--\":4077:4087   */\n      dup3\n        /* \"--CODEGEN--\":4074:4108   */\n      gt\n        /* \"--CODEGEN--\":4071:4133   */\n      or\n        /* \"--CODEGEN--\":4068:4070   */\n      iszero\n      tag_135\n      jumpi\n        /* \"--CODEGEN--\":4146:4147   */\n      0x00\n        /* \"--CODEGEN--\":4143:4144   */\n      dup1\n        /* \"--CODEGEN--\":4136:4148   */\n      revert\n        /* \"--CODEGEN--\":4068:4070   */\n    tag_135:\n        /* \"--CODEGEN--\":4166:4176   */\n      dup1\n        /* \"--CODEGEN--\":4162:4164   */\n      0x40\n        /* \"--CODEGEN--\":4155:4177   */\n      mstore\n        /* \"--CODEGEN--\":3966:4182   */\n      pop\n      swap2\n      swap1\n      pop\n      jump\n        /* \"--CODEGEN--\":4189:4498   */\n    tag_82:\n      0x00\n        /* \"--CODEGEN--\":4353:4371   */\n      0xffffffffffffffff\n        /* \"--CODEGEN--\":4345:4351   */\n      dup3\n        /* \"--CODEGEN--\":4342:4372   */\n      gt\n        /* \"--CODEGEN--\":4339:4341   */\n      iszero\n      tag_137\n      jumpi\n        /* \"--CODEGEN--\":4385:4386   */\n      0x00\n        /* \"--CODEGEN--\":4382:4383   */\n      dup1\n        /* \"--CODEGEN--\":4375:4387   */\n      revert\n        /* \"--CODEGEN--\":4339:4341   */\n    tag_137:\n        /* \"--CODEGEN--\":4420:4424   */\n      0x20\n        /* \"--CODEGEN--\":4412:4418   */\n      dup3\n        /* \"--CODEGEN--\":4408:4425   */\n      mul\n        /* \"--CODEGEN--\":4400:4425   */\n      swap1\n      pop\n        /* \"--CODEGEN--\":4483:4487   */\n      0x20\n        /* \"--CODEGEN--\":4477:4481   */\n      dup2\n        /* \"--CODEGEN--\":4473:4488   */\n      add\n        /* \"--CODEGEN--\":4465:4488   */\n      swap1\n      pop\n        /* \"--CODEGEN--\":4276:4498   */\n      swap2\n      swap1\n      pop\n      jump\n        /* \"--CODEGEN--\":4505:4822   */\n    tag_93:\n      0x00\n        /* \"--CODEGEN--\":4644:4662   */\n      0xffffffffffffffff\n        /* \"--CODEGEN--\":4636:4642   */\n      dup3\n        /* \"--CODEGEN--\":4633:4663   */\n      gt\n        /* \"--CODEGEN--\":4630:4632   */\n      iszero\n      tag_139\n      jumpi\n        /* \"--CODEGEN--\":4676:4677   */\n      0x00\n        /* \"--CODEGEN--\":4673:4674   */\n      dup1\n        /* \"--CODEGEN--\":4666:4678   */\n      revert\n        /* \"--CODEGEN--\":4630:4632   */\n    tag_139:\n        /* \"--CODEGEN--\":4743:4747   */\n      0x1f\n        /* \"--CODEGEN--\":4739:4748   */\n      not\n        /* \"--CODEGEN--\":4732:4736   */\n      0x1f\n        /* \"--CODEGEN--\":4724:4730   */\n      dup4\n        /* \"--CODEGEN--\":4720:4737   */\n      add\n        /* \"--CODEGEN--\":4716:4749   */\n      and\n        /* \"--CODEGEN--\":4708:4749   */\n      swap1\n      pop\n        /* \"--CODEGEN--\":4807:4811   */\n      0x20\n        /* \"--CODEGEN--\":4801:4805   */\n      dup2\n        /* \"--CODEGEN--\":4797:4812   */\n      add\n        /* \"--CODEGEN--\":4789:4812   */\n      swap1\n      pop\n        /* \"--CODEGEN--\":4567:4822   */\n      swap2\n      swap1\n      pop\n      jump\n        /* \"--CODEGEN--\":4829:4946   */\n    tag_118:\n      0x00\n        /* \"--CODEGEN--\":4918:4923   */\n      dup2\n        /* \"--CODEGEN--\":4912:4924   */\n      mload\n        /* \"--CODEGEN--\":4902:4924   */\n      swap1\n      pop\n        /* \"--CODEGEN--\":4883:4946   */\n      swap2\n      swap1\n      pop\n      jump\n        /* \"--CODEGEN--\":4953:5074   */\n    tag_108:\n      0x00\n        /* \"--CODEGEN--\":5046:5051   */\n      dup2\n        /* \"--CODEGEN--\":5040:5052   */\n      mload\n        /* \"--CODEGEN--\":5030:5052   */\n      swap1\n      pop\n        /* \"--CODEGEN--\":5011:5074   */\n      swap2\n      swap1\n      pop\n      jump\n        /* \"--CODEGEN--\":5082:5244   */\n    tag_110:\n      0x00\n        /* \"--CODEGEN--\":5196:5202   */\n      dup3\n        /* \"--CODEGEN--\":5191:5194   */\n      dup3\n        /* \"--CODEGEN--\":5184:5203   */\n      mstore\n        /* \"--CODEGEN--\":5233:5237   */\n      0x20\n        /* \"--CODEGEN--\":5228:5231   */\n      dup3\n        /* \"--CODEGEN--\":5224:5238   */\n      add\n        /* \"--CODEGEN--\":5209:5238   */\n      swap1\n      pop\n        /* \"--CODEGEN--\":5177:5244   */\n      swap3\n      swap2\n      pop\n      pop\n      jump\n        /* \"--CODEGEN--\":5253:5416   */\n    tag_125:\n      0x00\n        /* \"--CODEGEN--\":5368:5374   */\n      dup3\n        /* \"--CODEGEN--\":5363:5366   */\n      dup3\n        /* \"--CODEGEN--\":5356:5375   */\n      mstore\n        /* \"--CODEGEN--\":5405:5409   */\n      0x20\n        /* \"--CODEGEN--\":5400:5403   */\n      dup3\n        /* \"--CODEGEN--\":5396:5410   */\n      add\n        /* \"--CODEGEN--\":5381:5410   */\n      swap1\n      pop\n        /* \"--CODEGEN--\":5349:5416   */\n      swap3\n      swap2\n      pop\n      pop\n      jump\n        /* \"--CODEGEN--\":5424:5496   */\n    tag_104:\n      0x00\n        /* \"--CODEGEN--\":5486:5491   */\n      dup2\n        /* \"--CODEGEN--\":5475:5491   */\n      swap1\n      pop\n        /* \"--CODEGEN--\":5469:5496   */\n      swap2\n      swap1\n      pop\n      jump\n        /* \"--CODEGEN--\":5504:5649   */\n    tag_96:\n        /* \"--CODEGEN--\":5585:5591   */\n      dup3\n        /* \"--CODEGEN--\":5580:5583   */\n      dup2\n        /* \"--CODEGEN--\":5575:5578   */\n      dup4\n        /* \"--CODEGEN--\":5562:5592   */\n      calldatacopy\n        /* \"--CODEGEN--\":5641:5642   */\n      0x00\n        /* \"--CODEGEN--\":5632:5638   */\n      dup4\n        /* \"--CODEGEN--\":5627:5630   */\n      dup4\n        /* \"--CODEGEN--\":5623:5639   */\n      add\n        /* \"--CODEGEN--\":5616:5643   */\n      mstore\n        /* \"--CODEGEN--\":5555:5649   */\n      pop\n      pop\n      pop\n      jump\n        /* \"--CODEGEN--\":5658:5926   */\n    tag_112:\n        /* \"--CODEGEN--\":5723:5724   */\n      0x00\n        /* \"--CODEGEN--\":5730:5831   */\n    tag_147:\n        /* \"--CODEGEN--\":5744:5750   */\n      dup4\n        /* \"--CODEGEN--\":5741:5742   */\n      dup2\n        /* \"--CODEGEN--\":5738:5751   */\n      lt\n        /* \"--CODEGEN--\":5730:5831   */\n      iszero\n      tag_149\n      jumpi\n        /* \"--CODEGEN--\":5820:5821   */\n      dup1\n        /* \"--CODEGEN--\":5815:5818   */\n      dup3\n        /* \"--CODEGEN--\":5811:5822   */\n      add\n        /* \"--CODEGEN--\":5805:5823   */\n      mload\n        /* \"--CODEGEN--\":5801:5802   */\n      dup2\n        /* \"--CODEGEN--\":5796:5799   */\n      dup5\n        /* \"--CODEGEN--\":5792:5803   */\n      add\n        /* \"--CODEGEN--\":5785:5824   */\n      mstore\n        /* \"--CODEGEN--\":5766:5768   */\n      0x20\n        /* \"--CODEGEN--\":5763:5764   */\n      dup2\n        /* \"--CODEGEN--\":5759:5769   */\n      add\n        /* \"--CODEGEN--\":5754:5769   */\n      swap1\n      pop\n        /* \"--CODEGEN--\":5730:5831   */\n      jump(tag_147)\n    tag_149:\n        /* \"--CODEGEN--\":5846:5852   */\n      dup4\n        /* \"--CODEGEN--\":5843:5844   */\n      dup2\n        /* \"--CODEGEN--\":5840:5853   */\n      gt\n        /* \"--CODEGEN--\":5837:5839   */\n      iszero\n      tag_150\n      jumpi\n        /* \"--CODEGEN--\":5911:5912   */\n      0x00\n        /* \"--CODEGEN--\":5902:5908   */\n      dup5\n        /* \"--CODEGEN--\":5897:5900   */\n      dup5\n        /* \"--CODEGEN--\":5893:5909   */\n      add\n        /* \"--CODEGEN--\":5886:5913   */\n      mstore\n        /* \"--CODEGEN--\":5837:5839   */\n    tag_150:\n        /* \"--CODEGEN--\":5707:5926   */\n      pop\n      pop\n      pop\n      pop\n      jump\n        /* \"--CODEGEN--\":5934:6031   */\n    tag_114:\n      0x00\n        /* \"--CODEGEN--\":6022:6024   */\n      0x1f\n        /* \"--CODEGEN--\":6018:6025   */\n      not\n        /* \"--CODEGEN--\":6013:6015   */\n      0x1f\n        /* \"--CODEGEN--\":6006:6011   */\n      dup4\n        /* \"--CODEGEN--\":6002:6016   */\n      add\n        /* \"--CODEGEN--\":5998:6026   */\n      and\n        /* \"--CODEGEN--\":5988:6026   */\n      swap1\n      pop\n        /* \"--CODEGEN--\":5982:6031   */\n      swap2\n      swap1\n      pop\n      jump\n\n    auxdata: 0xa264697066735822122070fcc95b2b5f37ef5985c0a6ce1af8a82029ef6b7dbe85a4af58289882c2b61064736f6c63430006040033\n}\n",
				"bytecode": {
					"linkReferences": {},
					"object": "60806040526040518060600160405280602e8152602001610afc602e913960009080519060200190610032929190610098565b506040518060600160405280602a8152602001610b2a602a913960019080519060200190610061929190610098565b507f4c45484f4e47564f776a6e66766a3377656838764b4a0000000000000000000060025534801561009257600080fd5b5061013d565b828054600181600116156101000203166002900490600052602060002090601f016020900481019282601f106100d957805160ff1916838001178555610107565b82800160010185558215610107579182015b828111156101065782518255916020019190600101906100eb565b5b5090506101149190610118565b5090565b61013a91905b8082111561013657600081600090555060010161011e565b5090565b90565b6109b08061014c6000396000f3fe608060405234801561001057600080fd5b506004361061004c5760003560e01c80630a282560146100515780639ffd85c414610081578063e3a7fd751461009f578063fc26b0ab146100bd575b600080fd5b61006b600480360381019061006691906106e3565b6100db565b6040516100789190610822565b60405180910390f35b6100896100ed565b6040516100969190610800565b60405180910390f35b6100a761018b565b6040516100b491906107e5565b60405180910390f35b6100c5610191565b6040516100d29190610800565b60405180910390f35b60606100e68261022f565b9050919050565b60008054600181600116156101000203166002900480601f0160208091040260200160405190810160405280929190818152602001828054600181600116156101000203166002900480156101835780601f1061015857610100808354040283529160200191610183565b820191906000526020600020905b81548152906001019060200180831161016657829003601f168201915b505050505081565b60025481565b60018054600181600116156101000203166002900480601f0160208091040260200160405190810160405280929190818152602001828054600181600116156101000203166002900480156102275780601f106101fc57610100808354040283529160200191610227565b820191906000526020600020905b81548152906001019060200180831161020a57829003601f168201915b505050505081565b60606000825114156102775760006040519080825280601f01601f19166020018201604052801561026f5781602001600182028036833780820191505090505b5090506102e9565b60608260008151811061028657fe5b602002602001015190506000600190505b83518110156102cc576102bd828583815181106102b057fe5b60200260200101516102ee565b91508080600101915050610297565b506102e56102df825160c060ff16610378565b826102ee565b9150505b919050565b6060806040519050835180825260208201818101602087015b818310156103245780518352602083019250602081019050610307565b50855192508351830184528091508282019050602086015b81831015610359578051835260208301925060208101905061033c565b50601f19601f8851850115830101166040525050508091505092915050565b60606801000000000000000083106103c5576040517f08c379a00000000000000000000000000000000000000000000000000000000081526004016103bc90610844565b60405180910390fd5b606060016040519080825280601f01601f1916602001820160405280156103fb5781602001600182028036833780820191505090505b509050603784116104515782840160f81b8160008151811061041957fe5b60200101907effffffffffffffffffffffffffffffffffffffffffffffffffffffffffffff1916908160001a905350809150506104b3565b606061045c856104b9565b90506037848251010160f81b8260008151811061047557fe5b60200101907effffffffffffffffffffffffffffffffffffffffffffffffffffffffffffff1916908160001a9053506104ae82826102ee565b925050505b92915050565b60608060206040519080825280601f01601f1916602001820160405280156104f05781602001600182028036833780820191505090505b5090508260208201526000807fffffffffffffffffffffffffffffffffffffffffffffffff00000000000000008516141561052e5760189050610568565b60007fffffffffffffffffffffffffffffffff00000000000000000000000000000000851614156105625760109050610567565b600090505b5b5b60208110156105c757600060f81b82828151811061058357fe5b602001015160f81c60f81b7effffffffffffffffffffffffffffffffffffffffffffffffffffffffffffff1916146105ba576105c7565b8080600101915050610569565b60008160200390506060816040519080825280601f01601f1916602001820160405280156106045781602001600182028036833780820191505090505b509050858282015281815280945050505050919050565b600082601f83011261062c57600080fd5b813561063f61063a82610891565b610864565b9150818183526020840193506020810190508360005b83811015610685578135860161066b888261068f565b845260208401935060208301925050600181019050610655565b5050505092915050565b600082601f8301126106a057600080fd5b81356106b36106ae826108b9565b610864565b915080825260208301602083018583830111156106cf57600080fd5b6106da838284610927565b50505092915050565b6000602082840312156106f557600080fd5b600082013567ffffffffffffffff81111561070f57600080fd5b61071b8482850161061b565b91505092915050565b61072d8161091d565b82525050565b600061073e826108f0565b61074881856108fb565b9350610758818560208601610936565b61076181610969565b840191505092915050565b6000610777826108e5565b61078181856108fb565b9350610791818560208601610936565b61079a81610969565b840191505092915050565b60006107b2600e8361090c565b91507f696e70757420746f6f206c6f6e670000000000000000000000000000000000006000830152602082019050919050565b60006020820190506107fa6000830184610724565b92915050565b6000602082019050818103600083015261081a818461076c565b905092915050565b6000602082019050818103600083015261083c8184610733565b905092915050565b6000602082019050818103600083015261085d816107a5565b9050919050565b6000604051905081810181811067ffffffffffffffff8211171561088757600080fd5b8060405250919050565b600067ffffffffffffffff8211156108a857600080fd5b602082029050602081019050919050565b600067ffffffffffffffff8211156108d057600080fd5b601f19601f8301169050602081019050919050565b600081519050919050565b600081519050919050565b600082825260208201905092915050565b600082825260208201905092915050565b6000819050919050565b82818337600083830152505050565b60005b83811015610954578082015181840152602081019050610939565b83811115610963576000848401525b50505050565b6000601f19601f830116905091905056fea264697066735822122070fcc95b2b5f37ef5985c0a6ce1af8a82029ef6b7dbe85a4af58289882c2b61064736f6c634300060400334e414c4548484a534744534447484a534448535548444a5348444a53484a53484a534844534a44484a4f4e47564f7364664e417364667364664c4548484a5347445348444a53484a53484a534844534a44484a4f4e47564f",
					"opcodes": "PUSH1 0x80 PUSH1 0x40 MSTORE PUSH1 0x40 MLOAD DUP1 PUSH1 0x60 ADD PUSH1 0x40 MSTORE DUP1 PUSH1 0x2E DUP2 MSTORE PUSH1 0x20 ADD PUSH2 0xAFC PUSH1 0x2E SWAP2 CODECOPY PUSH1 0x0 SWAP1 DUP1 MLOAD SWAP1 PUSH1 0x20 ADD SWAP1 PUSH2 0x32 SWAP3 SWAP2 SWAP1 PUSH2 0x98 JUMP JUMPDEST POP PUSH1 0x40 MLOAD DUP1 PUSH1 0x60 ADD PUSH1 0x40 MSTORE DUP1 PUSH1 0x2A DUP2 MSTORE PUSH1 0x20 ADD PUSH2 0xB2A PUSH1 0x2A SWAP2 CODECOPY PUSH1 0x1 SWAP1 DUP1 MLOAD SWAP1 PUSH1 0x20 ADD SWAP1 PUSH2 0x61 SWAP3 SWAP2 SWAP1 PUSH2 0x98 JUMP JUMPDEST POP PUSH32 0x4C45484F4E47564F776A6E66766A3377656838764B4A00000000000000000000 PUSH1 0x2 SSTORE CALLVALUE DUP1 ISZERO PUSH2 0x92 JUMPI PUSH1 0x0 DUP1 REVERT JUMPDEST POP PUSH2 0x13D JUMP JUMPDEST DUP3 DUP1 SLOAD PUSH1 0x1 DUP2 PUSH1 0x1 AND ISZERO PUSH2 0x100 MUL SUB AND PUSH1 0x2 SWAP1 DIV SWAP1 PUSH1 0x0 MSTORE PUSH1 0x20 PUSH1 0x0 KECCAK256 SWAP1 PUSH1 0x1F ADD PUSH1 0x20 SWAP1 DIV DUP2 ADD SWAP3 DUP3 PUSH1 0x1F LT PUSH2 0xD9 JUMPI DUP1 MLOAD PUSH1 0xFF NOT AND DUP4 DUP1 ADD OR DUP6 SSTORE PUSH2 0x107 JUMP JUMPDEST DUP3 DUP1 ADD PUSH1 0x1 ADD DUP6 SSTORE DUP3 ISZERO PUSH2 0x107 JUMPI SWAP2 DUP3 ADD JUMPDEST DUP3 DUP2 GT ISZERO PUSH2 0x106 JUMPI DUP3 MLOAD DUP3 SSTORE SWAP2 PUSH1 0x20 ADD SWAP2 SWAP1 PUSH1 0x1 ADD SWAP1 PUSH2 0xEB JUMP JUMPDEST JUMPDEST POP SWAP1 POP PUSH2 0x114 SWAP2 SWAP1 PUSH2 0x118 JUMP JUMPDEST POP SWAP1 JUMP JUMPDEST PUSH2 0x13A SWAP2 SWAP1 JUMPDEST DUP1 DUP3 GT ISZERO PUSH2 0x136 JUMPI PUSH1 0x0 DUP2 PUSH1 0x0 SWAP1 SSTORE POP PUSH1 0x1 ADD PUSH2 0x11E JUMP JUMPDEST POP SWAP1 JUMP JUMPDEST SWAP1 JUMP JUMPDEST PUSH2 0x9B0 DUP1 PUSH2 0x14C PUSH1 0x0 CODECOPY PUSH1 0x0 RETURN INVALID PUSH1 0x80 PUSH1 0x40 MSTORE CALLVALUE DUP1 ISZERO PUSH2 0x10 JUMPI PUSH1 0x0 DUP1 REVERT JUMPDEST POP PUSH1 0x4 CALLDATASIZE LT PUSH2 0x4C JUMPI PUSH1 0x0 CALLDATALOAD PUSH1 0xE0 SHR DUP1 PUSH4 0xA282560 EQ PUSH2 0x51 JUMPI DUP1 PUSH4 0x9FFD85C4 EQ PUSH2 0x81 JUMPI DUP1 PUSH4 0xE3A7FD75 EQ PUSH2 0x9F JUMPI DUP1 PUSH4 0xFC26B0AB EQ PUSH2 0xBD JUMPI JUMPDEST PUSH1 0x0 DUP1 REVERT JUMPDEST PUSH2 0x6B PUSH1 0x4 DUP1 CALLDATASIZE SUB DUP2 ADD SWAP1 PUSH2 0x66 SWAP2 SWAP1 PUSH2 0x6E3 JUMP JUMPDEST PUSH2 0xDB JUMP JUMPDEST PUSH1 0x40 MLOAD PUSH2 0x78 SWAP2 SWAP1 PUSH2 0x822 JUMP JUMPDEST PUSH1 0x40 MLOAD DUP1 SWAP2 SUB SWAP1 RETURN JUMPDEST PUSH2 0x89 PUSH2 0xED JUMP JUMPDEST PUSH1 0x40 MLOAD PUSH2 0x96 SWAP2 SWAP1 PUSH2 0x800 JUMP JUMPDEST PUSH1 0x40 MLOAD DUP1 SWAP2 SUB SWAP1 RETURN JUMPDEST PUSH2 0xA7 PUSH2 0x18B JUMP JUMPDEST PUSH1 0x40 MLOAD PUSH2 0xB4 SWAP2 SWAP1 PUSH2 0x7E5 JUMP JUMPDEST PUSH1 0x40 MLOAD DUP1 SWAP2 SUB SWAP1 RETURN JUMPDEST PUSH2 0xC5 PUSH2 0x191 JUMP JUMPDEST PUSH1 0x40 MLOAD PUSH2 0xD2 SWAP2 SWAP1 PUSH2 0x800 JUMP JUMPDEST PUSH1 0x40 MLOAD DUP1 SWAP2 SUB SWAP1 RETURN JUMPDEST PUSH1 0x60 PUSH2 0xE6 DUP3 PUSH2 0x22F JUMP JUMPDEST SWAP1 POP SWAP2 SWAP1 POP JUMP JUMPDEST PUSH1 0x0 DUP1 SLOAD PUSH1 0x1 DUP2 PUSH1 0x1 AND ISZERO PUSH2 0x100 MUL SUB AND PUSH1 0x2 SWAP1 DIV DUP1 PUSH1 0x1F ADD PUSH1 0x20 DUP1 SWAP2 DIV MUL PUSH1 0x20 ADD PUSH1 0x40 MLOAD SWAP1 DUP2 ADD PUSH1 0x40 MSTORE DUP1 SWAP3 SWAP2 SWAP1 DUP2 DUP2 MSTORE PUSH1 0x20 ADD DUP3 DUP1 SLOAD PUSH1 0x1 DUP2 PUSH1 0x1 AND ISZERO PUSH2 0x100 MUL SUB AND PUSH1 0x2 SWAP1 DIV DUP1 ISZERO PUSH2 0x183 JUMPI DUP1 PUSH1 0x1F LT PUSH2 0x158 JUMPI PUSH2 0x100 DUP1 DUP4 SLOAD DIV MUL DUP4 MSTORE SWAP2 PUSH1 0x20 ADD SWAP2 PUSH2 0x183 JUMP JUMPDEST DUP3 ADD SWAP2 SWAP1 PUSH1 0x0 MSTORE PUSH1 0x20 PUSH1 0x0 KECCAK256 SWAP1 JUMPDEST DUP2 SLOAD DUP2 MSTORE SWAP1 PUSH1 0x1 ADD SWAP1 PUSH1 0x20 ADD DUP1 DUP4 GT PUSH2 0x166 JUMPI DUP3 SWAP1 SUB PUSH1 0x1F AND DUP3 ADD SWAP2 JUMPDEST POP POP POP POP POP DUP2 JUMP JUMPDEST PUSH1 0x2 SLOAD DUP2 JUMP JUMPDEST PUSH1 0x1 DUP1 SLOAD PUSH1 0x1 DUP2 PUSH1 0x1 AND ISZERO PUSH2 0x100 MUL SUB AND PUSH1 0x2 SWAP1 DIV DUP1 PUSH1 0x1F ADD PUSH1 0x20 DUP1 SWAP2 DIV MUL PUSH1 0x20 ADD PUSH1 0x40 MLOAD SWAP1 DUP2 ADD PUSH1 0x40 MSTORE DUP1 SWAP3 SWAP2 SWAP1 DUP2 DUP2 MSTORE PUSH1 0x20 ADD DUP3 DUP1 SLOAD PUSH1 0x1 DUP2 PUSH1 0x1 AND ISZERO PUSH2 0x100 MUL SUB AND PUSH1 0x2 SWAP1 DIV DUP1 ISZERO PUSH2 0x227 JUMPI DUP1 PUSH1 0x1F LT PUSH2 0x1FC JUMPI PUSH2 0x100 DUP1 DUP4 SLOAD DIV MUL DUP4 MSTORE SWAP2 PUSH1 0x20 ADD SWAP2 PUSH2 0x227 JUMP JUMPDEST DUP3 ADD SWAP2 SWAP1 PUSH1 0x0 MSTORE PUSH1 0x20 PUSH1 0x0 KECCAK256 SWAP1 JUMPDEST DUP2 SLOAD DUP2 MSTORE SWAP1 PUSH1 0x1 ADD SWAP1 PUSH1 0x20 ADD DUP1 DUP4 GT PUSH2 0x20A JUMPI DUP3 SWAP1 SUB PUSH1 0x1F AND DUP3 ADD SWAP2 JUMPDEST POP POP POP POP POP DUP2 JUMP JUMPDEST PUSH1 0x60 PUSH1 0x0 DUP3 MLOAD EQ ISZERO PUSH2 0x277 JUMPI PUSH1 0x0 PUSH1 0x40 MLOAD SWAP1 DUP1 DUP3 MSTORE DUP1 PUSH1 0x1F ADD PUSH1 0x1F NOT AND PUSH1 0x20 ADD DUP3 ADD PUSH1 0x40 MSTORE DUP1 ISZERO PUSH2 0x26F JUMPI DUP2 PUSH1 0x20 ADD PUSH1 0x1 DUP3 MUL DUP1 CALLDATASIZE DUP4 CALLDATACOPY DUP1 DUP3 ADD SWAP2 POP POP SWAP1 POP JUMPDEST POP SWAP1 POP PUSH2 0x2E9 JUMP JUMPDEST PUSH1 0x60 DUP3 PUSH1 0x0 DUP2 MLOAD DUP2 LT PUSH2 0x286 JUMPI INVALID JUMPDEST PUSH1 0x20 MUL PUSH1 0x20 ADD ADD MLOAD SWAP1 POP PUSH1 0x0 PUSH1 0x1 SWAP1 POP JUMPDEST DUP4 MLOAD DUP2 LT ISZERO PUSH2 0x2CC JUMPI PUSH2 0x2BD DUP3 DUP6 DUP4 DUP2 MLOAD DUP2 LT PUSH2 0x2B0 JUMPI INVALID JUMPDEST PUSH1 0x20 MUL PUSH1 0x20 ADD ADD MLOAD PUSH2 0x2EE JUMP JUMPDEST SWAP2 POP DUP1 DUP1 PUSH1 0x1 ADD SWAP2 POP POP PUSH2 0x297 JUMP JUMPDEST POP PUSH2 0x2E5 PUSH2 0x2DF DUP3 MLOAD PUSH1 0xC0 PUSH1 0xFF AND PUSH2 0x378 JUMP JUMPDEST DUP3 PUSH2 0x2EE JUMP JUMPDEST SWAP2 POP POP JUMPDEST SWAP2 SWAP1 POP JUMP JUMPDEST PUSH1 0x60 DUP1 PUSH1 0x40 MLOAD SWAP1 POP DUP4 MLOAD DUP1 DUP3 MSTORE PUSH1 0x20 DUP3 ADD DUP2 DUP2 ADD PUSH1 0x20 DUP8 ADD JUMPDEST DUP2 DUP4 LT ISZERO PUSH2 0x324 JUMPI DUP1 MLOAD DUP4 MSTORE PUSH1 0x20 DUP4 ADD SWAP3 POP PUSH1 0x20 DUP2 ADD SWAP1 POP PUSH2 0x307 JUMP JUMPDEST POP DUP6 MLOAD SWAP3 POP DUP4 MLOAD DUP4 ADD DUP5 MSTORE DUP1 SWAP2 POP DUP3 DUP3 ADD SWAP1 POP PUSH1 0x20 DUP7 ADD JUMPDEST DUP2 DUP4 LT ISZERO PUSH2 0x359 JUMPI DUP1 MLOAD DUP4 MSTORE PUSH1 0x20 DUP4 ADD SWAP3 POP PUSH1 0x20 DUP2 ADD SWAP1 POP PUSH2 0x33C JUMP JUMPDEST POP PUSH1 0x1F NOT PUSH1 0x1F DUP9 MLOAD DUP6 ADD ISZERO DUP4 ADD ADD AND PUSH1 0x40 MSTORE POP POP POP DUP1 SWAP2 POP POP SWAP3 SWAP2 POP POP JUMP JUMPDEST PUSH1 0x60 PUSH9 0x10000000000000000 DUP4 LT PUSH2 0x3C5 JUMPI PUSH1 0x40 MLOAD PUSH32 0x8C379A000000000000000000000000000000000000000000000000000000000 DUP2 MSTORE PUSH1 0x4 ADD PUSH2 0x3BC SWAP1 PUSH2 0x844 JUMP JUMPDEST PUSH1 0x40 MLOAD DUP1 SWAP2 SUB SWAP1 REVERT JUMPDEST PUSH1 0x60 PUSH1 0x1 PUSH1 0x40 MLOAD SWAP1 DUP1 DUP3 MSTORE DUP1 PUSH1 0x1F ADD PUSH1 0x1F NOT AND PUSH1 0x20 ADD DUP3 ADD PUSH1 0x40 MSTORE DUP1 ISZERO PUSH2 0x3FB JUMPI DUP2 PUSH1 0x20 ADD PUSH1 0x1 DUP3 MUL DUP1 CALLDATASIZE DUP4 CALLDATACOPY DUP1 DUP3 ADD SWAP2 POP POP SWAP1 POP JUMPDEST POP SWAP1 POP PUSH1 0x37 DUP5 GT PUSH2 0x451 JUMPI DUP3 DUP5 ADD PUSH1 0xF8 SHL DUP2 PUSH1 0x0 DUP2 MLOAD DUP2 LT PUSH2 0x419 JUMPI INVALID JUMPDEST PUSH1 0x20 ADD ADD SWAP1 PUSH31 0xFFFFFFFFFFFFFFFFFFFFFFFFFFFFFFFFFFFFFFFFFFFFFFFFFFFFFFFFFFFFFF NOT AND SWAP1 DUP2 PUSH1 0x0 BYTE SWAP1 MSTORE8 POP DUP1 SWAP2 POP POP PUSH2 0x4B3 JUMP JUMPDEST PUSH1 0x60 PUSH2 0x45C DUP6 PUSH2 0x4B9 JUMP JUMPDEST SWAP1 POP PUSH1 0x37 DUP5 DUP3 MLOAD ADD ADD PUSH1 0xF8 SHL DUP3 PUSH1 0x0 DUP2 MLOAD DUP2 LT PUSH2 0x475 JUMPI INVALID JUMPDEST PUSH1 0x20 ADD ADD SWAP1 PUSH31 0xFFFFFFFFFFFFFFFFFFFFFFFFFFFFFFFFFFFFFFFFFFFFFFFFFFFFFFFFFFFFFF NOT AND SWAP1 DUP2 PUSH1 0x0 BYTE SWAP1 MSTORE8 POP PUSH2 0x4AE DUP3 DUP3 PUSH2 0x2EE JUMP JUMPDEST SWAP3 POP POP POP JUMPDEST SWAP3 SWAP2 POP POP JUMP JUMPDEST PUSH1 0x60 DUP1 PUSH1 0x20 PUSH1 0x40 MLOAD SWAP1 DUP1 DUP3 MSTORE DUP1 PUSH1 0x1F ADD PUSH1 0x1F NOT AND PUSH1 0x20 ADD DUP3 ADD PUSH1 0x40 MSTORE DUP1 ISZERO PUSH2 0x4F0 JUMPI DUP2 PUSH1 0x20 ADD PUSH1 0x1 DUP3 MUL DUP1 CALLDATASIZE DUP4 CALLDATACOPY DUP1 DUP3 ADD SWAP2 POP POP SWAP1 POP JUMPDEST POP SWAP1 POP DUP3 PUSH1 0x20 DUP3 ADD MSTORE PUSH1 0x0 DUP1 PUSH32 0xFFFFFFFFFFFFFFFFFFFFFFFFFFFFFFFFFFFFFFFFFFFFFFFF0000000000000000 DUP6 AND EQ ISZERO PUSH2 0x52E JUMPI PUSH1 0x18 SWAP1 POP PUSH2 0x568 JUMP JUMPDEST PUSH1 0x0 PUSH32 0xFFFFFFFFFFFFFFFFFFFFFFFFFFFFFFFF00000000000000000000000000000000 DUP6 AND EQ ISZERO PUSH2 0x562 JUMPI PUSH1 0x10 SWAP1 POP PUSH2 0x567 JUMP JUMPDEST PUSH1 0x0 SWAP1 POP JUMPDEST JUMPDEST JUMPDEST PUSH1 0x20 DUP2 LT ISZERO PUSH2 0x5C7 JUMPI PUSH1 0x0 PUSH1 0xF8 SHL DUP3 DUP3 DUP2 MLOAD DUP2 LT PUSH2 0x583 JUMPI INVALID JUMPDEST PUSH1 0x20 ADD ADD MLOAD PUSH1 0xF8 SHR PUSH1 0xF8 SHL PUSH31 0xFFFFFFFFFFFFFFFFFFFFFFFFFFFFFFFFFFFFFFFFFFFFFFFFFFFFFFFFFFFFFF NOT AND EQ PUSH2 0x5BA JUMPI PUSH2 0x5C7 JUMP JUMPDEST DUP1 DUP1 PUSH1 0x1 ADD SWAP2 POP POP PUSH2 0x569 JUMP JUMPDEST PUSH1 0x0 DUP2 PUSH1 0x20 SUB SWAP1 POP PUSH1 0x60 DUP2 PUSH1 0x40 MLOAD SWAP1 DUP1 DUP3 MSTORE DUP1 PUSH1 0x1F ADD PUSH1 0x1F NOT AND PUSH1 0x20 ADD DUP3 ADD PUSH1 0x40 MSTORE DUP1 ISZERO PUSH2 0x604 JUMPI DUP2 PUSH1 0x20 ADD PUSH1 0x1 DUP3 MUL DUP1 CALLDATASIZE DUP4 CALLDATACOPY DUP1 DUP3 ADD SWAP2 POP POP SWAP1 POP JUMPDEST POP SWAP1 POP DUP6 DUP3 DUP3 ADD MSTORE DUP2 DUP2 MSTORE DUP1 SWAP5 POP POP POP POP POP SWAP2 SWAP1 POP JUMP JUMPDEST PUSH1 0x0 DUP3 PUSH1 0x1F DUP4 ADD SLT PUSH2 0x62C JUMPI PUSH1 0x0 DUP1 REVERT JUMPDEST DUP2 CALLDATALOAD PUSH2 0x63F PUSH2 0x63A DUP3 PUSH2 0x891 JUMP JUMPDEST PUSH2 0x864 JUMP JUMPDEST SWAP2 POP DUP2 DUP2 DUP4 MSTORE PUSH1 0x20 DUP5 ADD SWAP4 POP PUSH1 0x20 DUP2 ADD SWAP1 POP DUP4 PUSH1 0x0 JUMPDEST DUP4 DUP2 LT ISZERO PUSH2 0x685 JUMPI DUP2 CALLDATALOAD DUP7 ADD PUSH2 0x66B DUP9 DUP3 PUSH2 0x68F JUMP JUMPDEST DUP5 MSTORE PUSH1 0x20 DUP5 ADD SWAP4 POP PUSH1 0x20 DUP4 ADD SWAP3 POP POP PUSH1 0x1 DUP2 ADD SWAP1 POP PUSH2 0x655 JUMP JUMPDEST POP POP POP POP SWAP3 SWAP2 POP POP JUMP JUMPDEST PUSH1 0x0 DUP3 PUSH1 0x1F DUP4 ADD SLT PUSH2 0x6A0 JUMPI PUSH1 0x0 DUP1 REVERT JUMPDEST DUP2 CALLDATALOAD PUSH2 0x6B3 PUSH2 0x6AE DUP3 PUSH2 0x8B9 JUMP JUMPDEST PUSH2 0x864 JUMP JUMPDEST SWAP2 POP DUP1 DUP3 MSTORE PUSH1 0x20 DUP4 ADD PUSH1 0x20 DUP4 ADD DUP6 DUP4 DUP4 ADD GT ISZERO PUSH2 0x6CF JUMPI PUSH1 0x0 DUP1 REVERT JUMPDEST PUSH2 0x6DA DUP4 DUP3 DUP5 PUSH2 0x927 JUMP JUMPDEST POP POP POP SWAP3 SWAP2 POP POP JUMP JUMPDEST PUSH1 0x0 PUSH1 0x20 DUP3 DUP5 SUB SLT ISZERO PUSH2 0x6F5 JUMPI PUSH1 0x0 DUP1 REVERT JUMPDEST PUSH1 0x0 DUP3 ADD CALLDATALOAD PUSH8 0xFFFFFFFFFFFFFFFF DUP2 GT ISZERO PUSH2 0x70F JUMPI PUSH1 0x0 DUP1 REVERT JUMPDEST PUSH2 0x71B DUP5 DUP3 DUP6 ADD PUSH2 0x61B JUMP JUMPDEST SWAP2 POP POP SWAP3 SWAP2 POP POP JUMP JUMPDEST PUSH2 0x72D DUP2 PUSH2 0x91D JUMP JUMPDEST DUP3 MSTORE POP POP JUMP JUMPDEST PUSH1 0x0 PUSH2 0x73E DUP3 PUSH2 0x8F0 JUMP JUMPDEST PUSH2 0x748 DUP2 DUP6 PUSH2 0x8FB JUMP JUMPDEST SWAP4 POP PUSH2 0x758 DUP2 DUP6 PUSH1 0x20 DUP7 ADD PUSH2 0x936 JUMP JUMPDEST PUSH2 0x761 DUP2 PUSH2 0x969 JUMP JUMPDEST DUP5 ADD SWAP2 POP POP SWAP3 SWAP2 POP POP JUMP JUMPDEST PUSH1 0x0 PUSH2 0x777 DUP3 PUSH2 0x8E5 JUMP JUMPDEST PUSH2 0x781 DUP2 DUP6 PUSH2 0x8FB JUMP JUMPDEST SWAP4 POP PUSH2 0x791 DUP2 DUP6 PUSH1 0x20 DUP7 ADD PUSH2 0x936 JUMP JUMPDEST PUSH2 0x79A DUP2 PUSH2 0x969 JUMP JUMPDEST DUP5 ADD SWAP2 POP POP SWAP3 SWAP2 POP POP JUMP JUMPDEST PUSH1 0x0 PUSH2 0x7B2 PUSH1 0xE DUP4 PUSH2 0x90C JUMP JUMPDEST SWAP2 POP PUSH32 0x696E70757420746F6F206C6F6E67000000000000000000000000000000000000 PUSH1 0x0 DUP4 ADD MSTORE PUSH1 0x20 DUP3 ADD SWAP1 POP SWAP2 SWAP1 POP JUMP JUMPDEST PUSH1 0x0 PUSH1 0x20 DUP3 ADD SWAP1 POP PUSH2 0x7FA PUSH1 0x0 DUP4 ADD DUP5 PUSH2 0x724 JUMP JUMPDEST SWAP3 SWAP2 POP POP JUMP JUMPDEST PUSH1 0x0 PUSH1 0x20 DUP3 ADD SWAP1 POP DUP2 DUP2 SUB PUSH1 0x0 DUP4 ADD MSTORE PUSH2 0x81A DUP2 DUP5 PUSH2 0x76C JUMP JUMPDEST SWAP1 POP SWAP3 SWAP2 POP POP JUMP JUMPDEST PUSH1 0x0 PUSH1 0x20 DUP3 ADD SWAP1 POP DUP2 DUP2 SUB PUSH1 0x0 DUP4 ADD MSTORE PUSH2 0x83C DUP2 DUP5 PUSH2 0x733 JUMP JUMPDEST SWAP1 POP SWAP3 SWAP2 POP POP JUMP JUMPDEST PUSH1 0x0 PUSH1 0x20 DUP3 ADD SWAP1 POP DUP2 DUP2 SUB PUSH1 0x0 DUP4 ADD MSTORE PUSH2 0x85D DUP2 PUSH2 0x7A5 JUMP JUMPDEST SWAP1 POP SWAP2 SWAP1 POP JUMP JUMPDEST PUSH1 0x0 PUSH1 0x40 MLOAD SWAP1 POP DUP2 DUP2 ADD DUP2 DUP2 LT PUSH8 0xFFFFFFFFFFFFFFFF DUP3 GT OR ISZERO PUSH2 0x887 JUMPI PUSH1 0x0 DUP1 REVERT JUMPDEST DUP1 PUSH1 0x40 MSTORE POP SWAP2 SWAP1 POP JUMP JUMPDEST PUSH1 0x0 PUSH8 0xFFFFFFFFFFFFFFFF DUP3 GT ISZERO PUSH2 0x8A8 JUMPI PUSH1 0x0 DUP1 REVERT JUMPDEST PUSH1 0x20 DUP3 MUL SWAP1 POP PUSH1 0x20 DUP2 ADD SWAP1 POP SWAP2 SWAP1 POP JUMP JUMPDEST PUSH1 0x0 PUSH8 0xFFFFFFFFFFFFFFFF DUP3 GT ISZERO PUSH2 0x8D0 JUMPI PUSH1 0x0 DUP1 REVERT JUMPDEST PUSH1 0x1F NOT PUSH1 0x1F DUP4 ADD AND SWAP1 POP PUSH1 0x20 DUP2 ADD SWAP1 POP SWAP2 SWAP1 POP JUMP JUMPDEST PUSH1 0x0 DUP2 MLOAD SWAP1 POP SWAP2 SWAP1 POP JUMP JUMPDEST PUSH1 0x0 DUP2 MLOAD SWAP1 POP SWAP2 SWAP1 POP JUMP JUMPDEST PUSH1 0x0 DUP3 DUP3 MSTORE PUSH1 0x20 DUP3 ADD SWAP1 POP SWAP3 SWAP2 POP POP JUMP JUMPDEST PUSH1 0x0 DUP3 DUP3 MSTORE PUSH1 0x20 DUP3 ADD SWAP1 POP SWAP3 SWAP2 POP POP JUMP JUMPDEST PUSH1 0x0 DUP2 SWAP1 POP SWAP2 SWAP1 POP JUMP JUMPDEST DUP3 DUP2 DUP4 CALLDATACOPY PUSH1 0x0 DUP4 DUP4 ADD MSTORE POP POP POP JUMP JUMPDEST PUSH1 0x0 JUMPDEST DUP4 DUP2 LT ISZERO PUSH2 0x954 JUMPI DUP1 DUP3 ADD MLOAD DUP2 DUP5 ADD MSTORE PUSH1 0x20 DUP2 ADD SWAP1 POP PUSH2 0x939 JUMP JUMPDEST DUP4 DUP2 GT ISZERO PUSH2 0x963 JUMPI PUSH1 0x0 DUP5 DUP5 ADD MSTORE JUMPDEST POP POP POP POP JUMP JUMPDEST PUSH1 0x0 PUSH1 0x1F NOT PUSH1 0x1F DUP4 ADD AND SWAP1 POP SWAP2 SWAP1 POP JUMP INVALID LOG2 PUSH5 0x6970667358 0x22 SLT KECCAK256 PUSH17 0xFCC95B2B5F37EF5985C0A6CE1AF8A82029 0xEF PUSH12 0x7DBE85A4AF58289882C2B610 PUSH5 0x736F6C6343 STOP MOD DIV STOP CALLER 0x4E COINBASE 0x4C GASLIMIT 0x48 0x48 0x4A MSTORE8 SELFBALANCE DIFFICULTY MSTORE8 DIFFICULTY SELFBALANCE 0x48 0x4A MSTORE8 DIFFICULTY 0x48 MSTORE8 SSTORE 0x48 DIFFICULTY 0x4A MSTORE8 0x48 DIFFICULTY 0x4A MSTORE8 0x48 0x4A MSTORE8 0x48 0x4A MSTORE8 0x48 DIFFICULTY MSTORE8 0x4A DIFFICULTY 0x48 0x4A 0x4F 0x4E SELFBALANCE JUMP 0x4F PUSH20 0x64664E417364667364664C4548484A5347445348 DIFFICULTY 0x4A MSTORE8 0x48 0x4A MSTORE8 0x48 0x4A MSTORE8 0x48 DIFFICULTY MSTORE8 0x4A DIFFICULTY 0x48 0x4A 0x4F 0x4E SELFBALANCE JUMP 0x4F "
				},
				"gasEstimates": {
					"creation": {
						"codeDepositCost": "496000",
						"executionCost": "infinite",
						"totalCost": "infinite"
					},
					"external": {
						"data1()": "infinite",
						"data2()": "1151",
						"data3()": "infinite",
						"getData(bytes[])": "infinite"
					},
					"internal": {
						"encodeBool(bool)": "infinite",
						"encodeLength(uint256,uint256)": "infinite",
						"encodeList(bytes memory[] memory)": "infinite",
						"mergeBytes(bytes memory,bytes memory)": "infinite",
						"toBinary(uint256)": "infinite"
					}
				},
				"methodIdentifiers": {
					"data1()": "9ffd85c4",
					"data2()": "e3a7fd75",
					"data3()": "fc26b0ab",
					"getData(bytes[])": "0a282560"
				}
			},
			"userdoc": {
				"methods": {}
			}
		}
	}
}