{
	"contracts/demo2.sol": {
		"demo2": {
			"abi": [
				{
					"inputs": [],
					"name": "data1",
					"outputs": [
						{
							"internalType": "bytes",
							"name": "",
							"type": "bytes"
						}
					],
					"stateMutability": "view",
					"type": "function"
				},
				{
					"inputs": [],
					"name": "data2",
					"outputs": [
						{
							"internalType": "bytes32",
							"name": "",
							"type": "bytes32"
						}
					],
					"stateMutability": "view",
					"type": "function"
				},
				{
					"inputs": [
						{
							"internalType": "bytes",
							"name": "_preBytes",
							"type": "bytes"
						},
						{
							"internalType": "bytes",
							"name": "_postBytes",
							"type": "bytes"
						}
					],
					"name": "getData",
					"outputs": [
						{
							"internalType": "bool",
							"name": "",
							"type": "bool"
						}
					],
					"stateMutability": "view",
					"type": "function"
				}
			],
			"devdoc": {
				"kind": "dev",
				"methods": {},
				"version": 1
			},
			"evm": {
				"assembly": "    /* \"contracts/demo2.sol\":34:1798  contract demo2 {\r... */\n  mstore(0x40, 0x80)\n    /* \"contracts/demo2.sol\":55:124  bytes public data1 = \"NALEHHJSGDSDGHJSDHSUHDJSHDJSHJSHJSHDSJDHJONGVO\" */\n  mload(0x40)\n  dup1\n  0x60\n  add\n  0x40\n  mstore\n  dup1\n  0x2e\n  dup2\n  mstore\n  0x20\n  add\n  data_4887836e294a2761413359597244d307bbe3f94827f6160d9e1a399e00e2d1be\n  0x2e\n  swap2\n  codecopy\n  0x00\n  swap1\n  dup1\n  mload\n  swap1\n  0x20\n  add\n  swap1\n  tag_1\n  swap3\n  swap2\n  swap1\n  tag_2\n  jump\t// in\ntag_1:\n  pop\n    /* \"contracts/demo2.sol\":130:177  bytes32 public data2 = \"LEHONGVOwjnfvj3weh8vKJ\" */\n  sstore(0x01, 0x4c45484f4e47564f776a6e66766a3377656838764b4a00000000000000000000)\n    /* \"contracts/demo2.sol\":34:1798  contract demo2 {\r... */\n  callvalue\n  dup1\n  iszero\n  tag_3\n  jumpi\n  0x00\n  dup1\n  revert\ntag_3:\n  pop\n  jump(tag_4)\ntag_2:\n  dup3\n  dup1\n  sload\n  tag_5\n  swap1\n  tag_6\n  jump\t// in\ntag_5:\n  swap1\n  0x00\n  mstore\n  keccak256(0x00, 0x20)\n  swap1\n  0x1f\n  add\n  0x20\n  swap1\n  div\n  dup2\n  add\n  swap3\n  dup3\n  tag_8\n  jumpi\n  0x00\n  dup6\n  sstore\n  jump(tag_7)\ntag_8:\n  dup3\n  0x1f\n  lt\n  tag_9\n  jumpi\n  dup1\n  mload\n  not(0xff)\n  and\n  dup4\n  dup1\n  add\n  or\n  dup6\n  sstore\n  jump(tag_7)\ntag_9:\n  dup3\n  dup1\n  add\n  0x01\n  add\n  dup6\n  sstore\n  dup3\n  iszero\n  tag_7\n  jumpi\n  swap2\n  dup3\n  add\ntag_10:\n  dup3\n  dup2\n  gt\n  iszero\n  tag_11\n  jumpi\n  dup3\n  mload\n  dup3\n  sstore\n  swap2\n  0x20\n  add\n  swap2\n  swap1\n  0x01\n  add\n  swap1\n  jump(tag_10)\ntag_11:\ntag_7:\n  pop\n  swap1\n  pop\n  tag_12\n  swap2\n  swap1\n  tag_13\n  jump\t// in\ntag_12:\n  pop\n  swap1\n  jump\t// out\ntag_13:\ntag_14:\n  dup1\n  dup3\n  gt\n  iszero\n  tag_15\n  jumpi\n  0x00\n  dup2\n  0x00\n  swap1\n  sstore\n  pop\n  0x01\n  add\n  jump(tag_14)\ntag_15:\n  pop\n  swap1\n  jump\t// out\n    /* \"#utility.yul\":7:327   */\ntag_6:\n    /* \"#utility.yul\":51:57   */\n  0x00\n    /* \"#utility.yul\":88:89   */\n  0x02\n    /* \"#utility.yul\":82:86   */\n  dup3\n    /* \"#utility.yul\":78:90   */\n  div\n    /* \"#utility.yul\":68:90   */\n  swap1\n  pop\n    /* \"#utility.yul\":135:136   */\n  0x01\n    /* \"#utility.yul\":129:133   */\n  dup3\n    /* \"#utility.yul\":125:137   */\n  and\n    /* \"#utility.yul\":156:174   */\n  dup1\n    /* \"#utility.yul\":146:227   */\n  tag_18\n  jumpi\n    /* \"#utility.yul\":212:216   */\n  0x7f\n    /* \"#utility.yul\":204:210   */\n  dup3\n    /* \"#utility.yul\":200:217   */\n  and\n    /* \"#utility.yul\":190:217   */\n  swap2\n  pop\n    /* \"#utility.yul\":146:227   */\ntag_18:\n    /* \"#utility.yul\":274:276   */\n  0x20\n    /* \"#utility.yul\":266:272   */\n  dup3\n    /* \"#utility.yul\":263:277   */\n  lt\n    /* \"#utility.yul\":243:261   */\n  dup2\n    /* \"#utility.yul\":240:278   */\n  eq\n    /* \"#utility.yul\":237:321   */\n  iszero\n  tag_19\n  jumpi\n    /* \"#utility.yul\":293:311   */\n  tag_20\n  tag_21\n  jump\t// in\ntag_20:\n    /* \"#utility.yul\":237:321   */\ntag_19:\n    /* \"#utility.yul\":58:327   */\n  pop\n    /* \"#utility.yul\":7:327   */\n  swap2\n  swap1\n  pop\n  jump\t// out\n    /* \"#utility.yul\":333:513   */\ntag_21:\n    /* \"#utility.yul\":381:458   */\n  0x4e487b7100000000000000000000000000000000000000000000000000000000\n    /* \"#utility.yul\":378:379   */\n  0x00\n    /* \"#utility.yul\":371:459   */\n  mstore\n    /* \"#utility.yul\":478:482   */\n  0x22\n    /* \"#utility.yul\":475:476   */\n  0x04\n    /* \"#utility.yul\":468:483   */\n  mstore\n    /* \"#utility.yul\":502:506   */\n  0x24\n    /* \"#utility.yul\":499:500   */\n  0x00\n    /* \"#utility.yul\":492:507   */\n  revert\n    /* \"contracts/demo2.sol\":34:1798  contract demo2 {\r... */\ntag_4:\n  dataSize(sub_0)\n  dup1\n  dataOffset(sub_0)\n  0x00\n  codecopy\n  0x00\n  return\nstop\ndata_4887836e294a2761413359597244d307bbe3f94827f6160d9e1a399e00e2d1be 4e414c4548484a534744534447484a534448535548444a5348444a53484a53484a534844534a44484a4f4e47564f\n\nsub_0: assembly {\n        /* \"contracts/demo2.sol\":34:1798  contract demo2 {\r... */\n      mstore(0x40, 0x80)\n      callvalue\n      dup1\n      iszero\n      tag_1\n      jumpi\n      0x00\n      dup1\n      revert\n    tag_1:\n      pop\n      jumpi(tag_2, lt(calldatasize, 0x04))\n      shr(0xe0, calldataload(0x00))\n      dup1\n      0x9ffd85c4\n      eq\n      tag_3\n      jumpi\n      dup1\n      0xba654d05\n      eq\n      tag_4\n      jumpi\n      dup1\n      0xe3a7fd75\n      eq\n      tag_5\n      jumpi\n    tag_2:\n      0x00\n      dup1\n      revert\n        /* \"contracts/demo2.sol\":55:124  bytes public data1 = \"NALEHHJSGDSDGHJSDHSUHDJSHDJSHJSHJSHDSJDHJONGVO\" */\n    tag_3:\n      tag_6\n      tag_7\n      jump\t// in\n    tag_6:\n      mload(0x40)\n      tag_8\n      swap2\n      swap1\n      tag_9\n      jump\t// in\n    tag_8:\n      mload(0x40)\n      dup1\n      swap2\n      sub\n      swap1\n      return\n        /* \"contracts/demo2.sol\":185:329  function getData(bytes memory _preBytes, bytes memory _postBytes) public view returns(bool) {\r... */\n    tag_4:\n      tag_10\n      0x04\n      dup1\n      calldatasize\n      sub\n      dup2\n      add\n      swap1\n      tag_11\n      swap2\n      swap1\n      tag_12\n      jump\t// in\n    tag_11:\n      tag_13\n      jump\t// in\n    tag_10:\n      mload(0x40)\n      tag_14\n      swap2\n      swap1\n      tag_15\n      jump\t// in\n    tag_14:\n      mload(0x40)\n      dup1\n      swap2\n      sub\n      swap1\n      return\n        /* \"contracts/demo2.sol\":130:177  bytes32 public data2 = \"LEHONGVOwjnfvj3weh8vKJ\" */\n    tag_5:\n      tag_16\n      tag_17\n      jump\t// in\n    tag_16:\n      mload(0x40)\n      tag_18\n      swap2\n      swap1\n      tag_19\n      jump\t// in\n    tag_18:\n      mload(0x40)\n      dup1\n      swap2\n      sub\n      swap1\n      return\n        /* \"contracts/demo2.sol\":55:124  bytes public data1 = \"NALEHHJSGDSDGHJSDHSUHDJSHDJSHJSHJSHDSJDHJONGVO\" */\n    tag_7:\n      0x00\n      dup1\n      sload\n      tag_20\n      swap1\n      tag_21\n      jump\t// in\n    tag_20:\n      dup1\n      0x1f\n      add\n      0x20\n      dup1\n      swap2\n      div\n      mul\n      0x20\n      add\n      mload(0x40)\n      swap1\n      dup2\n      add\n      0x40\n      mstore\n      dup1\n      swap3\n      swap2\n      swap1\n      dup2\n      dup2\n      mstore\n      0x20\n      add\n      dup3\n      dup1\n      sload\n      tag_22\n      swap1\n      tag_21\n      jump\t// in\n    tag_22:\n      dup1\n      iszero\n      tag_23\n      jumpi\n      dup1\n      0x1f\n      lt\n      tag_24\n      jumpi\n      0x0100\n      dup1\n      dup4\n      sload\n      div\n      mul\n      dup4\n      mstore\n      swap2\n      0x20\n      add\n      swap2\n      jump(tag_23)\n    tag_24:\n      dup3\n      add\n      swap2\n      swap1\n      0x00\n      mstore\n      keccak256(0x00, 0x20)\n      swap1\n    tag_25:\n      dup2\n      sload\n      dup2\n      mstore\n      swap1\n      0x01\n      add\n      swap1\n      0x20\n      add\n      dup1\n      dup4\n      gt\n      tag_25\n      jumpi\n      dup3\n      swap1\n      sub\n      0x1f\n      and\n      dup3\n      add\n      swap2\n    tag_23:\n      pop\n      pop\n      pop\n      pop\n      pop\n      dup2\n      jump\t// out\n        /* \"contracts/demo2.sol\":185:329  function getData(bytes memory _preBytes, bytes memory _postBytes) public view returns(bool) {\r... */\n    tag_13:\n        /* \"contracts/demo2.sol\":271:275  bool */\n      0x00\n        /* \"contracts/demo2.sol\":294:322  equal(_preBytes, _postBytes) */\n      tag_27\n        /* \"contracts/demo2.sol\":300:309  _preBytes */\n      dup4\n        /* \"contracts/demo2.sol\":311:321  _postBytes */\n      dup4\n        /* \"contracts/demo2.sol\":294:299  equal */\n      tag_28\n        /* \"contracts/demo2.sol\":294:322  equal(_preBytes, _postBytes) */\n      jump\t// in\n    tag_27:\n        /* \"contracts/demo2.sol\":287:322  return equal(_preBytes, _postBytes) */\n      swap1\n      pop\n        /* \"contracts/demo2.sol\":185:329  function getData(bytes memory _preBytes, bytes memory _postBytes) public view returns(bool) {\r... */\n      swap3\n      swap2\n      pop\n      pop\n      jump\t// out\n        /* \"contracts/demo2.sol\":130:177  bytes32 public data2 = \"LEHONGVOwjnfvj3weh8vKJ\" */\n    tag_17:\n      sload(0x01)\n      dup2\n      jump\t// out\n        /* \"contracts/demo2.sol\":370:1793  function equal(bytes memory _preBytes, bytes memory _postBytes) internal pure returns (bool) {\r... */\n    tag_28:\n        /* \"contracts/demo2.sol\":457:461  bool */\n      0x00\n        /* \"contracts/demo2.sol\":474:486  bool success */\n      dup1\n        /* \"contracts/demo2.sol\":489:493  true */\n      0x01\n        /* \"contracts/demo2.sol\":474:493  bool success = true */\n      swap1\n      pop\n        /* \"contracts/demo2.sol\":550:559  _preBytes */\n      dup4\n        /* \"contracts/demo2.sol\":544:560  mload(_preBytes) */\n      mload\n        /* \"contracts/demo2.sol\":660:670  _postBytes */\n      dup4\n        /* \"contracts/demo2.sol\":654:671  mload(_postBytes) */\n      mload\n        /* \"contracts/demo2.sol\":646:652  length */\n      dup2\n        /* \"contracts/demo2.sol\":643:672  eq(length, mload(_postBytes)) */\n      eq\n        /* \"contracts/demo2.sol\":691:692  1 */\n      0x01\n        /* \"contracts/demo2.sol\":686:1653  case 1 {\r... */\n      dup2\n      eq\n      tag_31\n      jumpi\n        /* \"contracts/demo2.sol\":1732:1733  0 */\n      0x00\n        /* \"contracts/demo2.sol\":1721:1733  success := 0 */\n      swap3\n      pop\n        /* \"contracts/demo2.sol\":636:1748  switch eq(length, mload(_postBytes))\r... */\n      jump(tag_30)\n        /* \"contracts/demo2.sol\":686:1653  case 1 {\r... */\n    tag_31:\n        /* \"contracts/demo2.sol\":921:922  1 */\n      0x01\n        /* \"contracts/demo2.sol\":967:971  0x20 */\n      0x20\n        /* \"contracts/demo2.sol\":956:965  _preBytes */\n      dup8\n        /* \"contracts/demo2.sol\":952:972  add(_preBytes, 0x20) */\n      add\n        /* \"contracts/demo2.sol\":1009:1015  length */\n      dup4\n        /* \"contracts/demo2.sol\":1005:1007  mc */\n      dup2\n        /* \"contracts/demo2.sol\":1001:1016  add(mc, length) */\n      add\n        /* \"contracts/demo2.sol\":1089:1093  0x20 */\n      0x20\n        /* \"contracts/demo2.sol\":1077:1087  _postBytes */\n      dup9\n        /* \"contracts/demo2.sol\":1073:1094  add(_postBytes, 0x20) */\n      add\n        /* \"contracts/demo2.sol\":1036:1638  for {\r... */\n    tag_32:\n        /* \"contracts/demo2.sol\":1249:1250  2 */\n      0x02\n        /* \"contracts/demo2.sol\":1244:1246  cb */\n      dup5\n        /* \"contracts/demo2.sol\":1238:1241  end */\n      dup4\n        /* \"contracts/demo2.sol\":1234:1236  mc */\n      dup6\n        /* \"contracts/demo2.sol\":1231:1242  lt(mc, end) */\n      lt\n        /* \"contracts/demo2.sol\":1227:1247  add(lt(mc, end), cb) */\n      add\n        /* \"contracts/demo2.sol\":1224:1251  eq(add(lt(mc, end), cb), 2) */\n      eq\n        /* \"contracts/demo2.sol\":1036:1638  for {\r... */\n      iszero\n      tag_34\n      jumpi\n        /* \"contracts/demo2.sol\":1483:1485  cc */\n      dup1\n        /* \"contracts/demo2.sol\":1477:1486  mload(cc) */\n      mload\n        /* \"contracts/demo2.sol\":1472:1474  mc */\n      dup4\n        /* \"contracts/demo2.sol\":1466:1475  mload(mc) */\n      mload\n        /* \"contracts/demo2.sol\":1463:1487  eq(mload(mc), mload(cc)) */\n      eq\n        /* \"contracts/demo2.sol\":1453:1619  if iszero(eq(mload(mc), mload(cc))) {\r... */\n      tag_35\n      jumpi\n        /* \"contracts/demo2.sol\":1562:1563  0 */\n      0x00\n        /* \"contracts/demo2.sol\":1551:1563  success := 0 */\n      swap7\n      pop\n        /* \"contracts/demo2.sol\":1595:1596  0 */\n      0x00\n        /* \"contracts/demo2.sol\":1589:1596  cb := 0 */\n      swap4\n      pop\n        /* \"contracts/demo2.sol\":1453:1619  if iszero(eq(mload(mc), mload(cc))) {\r... */\n    tag_35:\n        /* \"contracts/demo2.sol\":1289:1293  0x20 */\n      0x20\n        /* \"contracts/demo2.sol\":1285:1287  mc */\n      dup4\n        /* \"contracts/demo2.sol\":1281:1294  add(mc, 0x20) */\n      add\n        /* \"contracts/demo2.sol\":1275:1294  mc := add(mc, 0x20) */\n      swap3\n      pop\n        /* \"contracts/demo2.sol\":1330:1334  0x20 */\n      0x20\n        /* \"contracts/demo2.sol\":1326:1328  cc */\n      dup2\n        /* \"contracts/demo2.sol\":1322:1335  add(cc, 0x20) */\n      add\n        /* \"contracts/demo2.sol\":1316:1335  cc := add(cc, 0x20) */\n      swap1\n      pop\n        /* \"contracts/demo2.sol\":1036:1638  for {\r... */\n      jump(tag_32)\n    tag_34:\n        /* \"contracts/demo2.sol\":1040:1223  {\r... */\n      pop\n        /* \"contracts/demo2.sol\":693:1653  {\r... */\n      pop\n      pop\n      pop\n        /* \"contracts/demo2.sol\":636:1748  switch eq(length, mload(_postBytes))\r... */\n    tag_30:\n      pop\n        /* \"contracts/demo2.sol\":515:1759  {\r... */\n      pop\n        /* \"contracts/demo2.sol\":1778:1785  success */\n      dup1\n        /* \"contracts/demo2.sol\":1771:1785  return success */\n      swap2\n      pop\n      pop\n        /* \"contracts/demo2.sol\":370:1793  function equal(bytes memory _preBytes, bytes memory _postBytes) internal pure returns (bool) {\r... */\n      swap3\n      swap2\n      pop\n      pop\n      jump\t// out\n        /* \"#utility.yul\":7:417   */\n    tag_37:\n        /* \"#utility.yul\":84:89   */\n      0x00\n        /* \"#utility.yul\":109:174   */\n      tag_39\n        /* \"#utility.yul\":125:173   */\n      tag_40\n        /* \"#utility.yul\":166:172   */\n      dup5\n        /* \"#utility.yul\":125:173   */\n      tag_41\n      jump\t// in\n    tag_40:\n        /* \"#utility.yul\":109:174   */\n      tag_42\n      jump\t// in\n    tag_39:\n        /* \"#utility.yul\":100:174   */\n      swap1\n      pop\n        /* \"#utility.yul\":197:203   */\n      dup3\n        /* \"#utility.yul\":190:195   */\n      dup2\n        /* \"#utility.yul\":183:204   */\n      mstore\n        /* \"#utility.yul\":235:239   */\n      0x20\n        /* \"#utility.yul\":228:233   */\n      dup2\n        /* \"#utility.yul\":224:240   */\n      add\n        /* \"#utility.yul\":273:276   */\n      dup5\n        /* \"#utility.yul\":264:270   */\n      dup5\n        /* \"#utility.yul\":259:262   */\n      dup5\n        /* \"#utility.yul\":255:271   */\n      add\n        /* \"#utility.yul\":252:277   */\n      gt\n        /* \"#utility.yul\":249:361   */\n      iszero\n      tag_43\n      jumpi\n        /* \"#utility.yul\":280:359   */\n      tag_44\n      tag_45\n      jump\t// in\n    tag_44:\n        /* \"#utility.yul\":249:361   */\n    tag_43:\n        /* \"#utility.yul\":370:411   */\n      tag_46\n        /* \"#utility.yul\":404:410   */\n      dup5\n        /* \"#utility.yul\":399:402   */\n      dup3\n        /* \"#utility.yul\":394:397   */\n      dup6\n        /* \"#utility.yul\":370:411   */\n      tag_47\n      jump\t// in\n    tag_46:\n        /* \"#utility.yul\":90:417   */\n      pop\n        /* \"#utility.yul\":7:417   */\n      swap4\n      swap3\n      pop\n      pop\n      pop\n      jump\t// out\n        /* \"#utility.yul\":436:774   */\n    tag_48:\n        /* \"#utility.yul\":491:496   */\n      0x00\n        /* \"#utility.yul\":540:543   */\n      dup3\n        /* \"#utility.yul\":533:537   */\n      0x1f\n        /* \"#utility.yul\":525:531   */\n      dup4\n        /* \"#utility.yul\":521:538   */\n      add\n        /* \"#utility.yul\":517:544   */\n      slt\n        /* \"#utility.yul\":507:629   */\n      tag_50\n      jumpi\n        /* \"#utility.yul\":548:627   */\n      tag_51\n      tag_52\n      jump\t// in\n    tag_51:\n        /* \"#utility.yul\":507:629   */\n    tag_50:\n        /* \"#utility.yul\":665:671   */\n      dup2\n        /* \"#utility.yul\":652:672   */\n      calldataload\n        /* \"#utility.yul\":690:768   */\n      tag_53\n        /* \"#utility.yul\":764:767   */\n      dup5\n        /* \"#utility.yul\":756:762   */\n      dup3\n        /* \"#utility.yul\":749:753   */\n      0x20\n        /* \"#utility.yul\":741:747   */\n      dup7\n        /* \"#utility.yul\":737:754   */\n      add\n        /* \"#utility.yul\":690:768   */\n      tag_37\n      jump\t// in\n    tag_53:\n        /* \"#utility.yul\":681:768   */\n      swap2\n      pop\n        /* \"#utility.yul\":497:774   */\n      pop\n        /* \"#utility.yul\":436:774   */\n      swap3\n      swap2\n      pop\n      pop\n      jump\t// out\n        /* \"#utility.yul\":780:1610   */\n    tag_12:\n        /* \"#utility.yul\":866:872   */\n      0x00\n        /* \"#utility.yul\":874:880   */\n      dup1\n        /* \"#utility.yul\":923:925   */\n      0x40\n        /* \"#utility.yul\":911:920   */\n      dup4\n        /* \"#utility.yul\":902:909   */\n      dup6\n        /* \"#utility.yul\":898:921   */\n      sub\n        /* \"#utility.yul\":894:926   */\n      slt\n        /* \"#utility.yul\":891:1010   */\n      iszero\n      tag_55\n      jumpi\n        /* \"#utility.yul\":929:1008   */\n      tag_56\n      tag_57\n      jump\t// in\n    tag_56:\n        /* \"#utility.yul\":891:1010   */\n    tag_55:\n        /* \"#utility.yul\":1077:1078   */\n      0x00\n        /* \"#utility.yul\":1066:1075   */\n      dup4\n        /* \"#utility.yul\":1062:1079   */\n      add\n        /* \"#utility.yul\":1049:1080   */\n      calldataload\n        /* \"#utility.yul\":1107:1125   */\n      0xffffffffffffffff\n        /* \"#utility.yul\":1099:1105   */\n      dup2\n        /* \"#utility.yul\":1096:1126   */\n      gt\n        /* \"#utility.yul\":1093:1210   */\n      iszero\n      tag_58\n      jumpi\n        /* \"#utility.yul\":1129:1208   */\n      tag_59\n      tag_60\n      jump\t// in\n    tag_59:\n        /* \"#utility.yul\":1093:1210   */\n    tag_58:\n        /* \"#utility.yul\":1234:1296   */\n      tag_61\n        /* \"#utility.yul\":1288:1295   */\n      dup6\n        /* \"#utility.yul\":1279:1285   */\n      dup3\n        /* \"#utility.yul\":1268:1277   */\n      dup7\n        /* \"#utility.yul\":1264:1286   */\n      add\n        /* \"#utility.yul\":1234:1296   */\n      tag_48\n      jump\t// in\n    tag_61:\n        /* \"#utility.yul\":1224:1296   */\n      swap3\n      pop\n        /* \"#utility.yul\":1020:1306   */\n      pop\n        /* \"#utility.yul\":1373:1375   */\n      0x20\n        /* \"#utility.yul\":1362:1371   */\n      dup4\n        /* \"#utility.yul\":1358:1376   */\n      add\n        /* \"#utility.yul\":1345:1377   */\n      calldataload\n        /* \"#utility.yul\":1404:1422   */\n      0xffffffffffffffff\n        /* \"#utility.yul\":1396:1402   */\n      dup2\n        /* \"#utility.yul\":1393:1423   */\n      gt\n        /* \"#utility.yul\":1390:1507   */\n      iszero\n      tag_62\n      jumpi\n        /* \"#utility.yul\":1426:1505   */\n      tag_63\n      tag_60\n      jump\t// in\n    tag_63:\n        /* \"#utility.yul\":1390:1507   */\n    tag_62:\n        /* \"#utility.yul\":1531:1593   */\n      tag_64\n        /* \"#utility.yul\":1585:1592   */\n      dup6\n        /* \"#utility.yul\":1576:1582   */\n      dup3\n        /* \"#utility.yul\":1565:1574   */\n      dup7\n        /* \"#utility.yul\":1561:1583   */\n      add\n        /* \"#utility.yul\":1531:1593   */\n      tag_48\n      jump\t// in\n    tag_64:\n        /* \"#utility.yul\":1521:1593   */\n      swap2\n      pop\n        /* \"#utility.yul\":1316:1603   */\n      pop\n        /* \"#utility.yul\":780:1610   */\n      swap3\n      pop\n      swap3\n      swap1\n      pop\n      jump\t// out\n        /* \"#utility.yul\":1616:1725   */\n    tag_65:\n        /* \"#utility.yul\":1697:1718   */\n      tag_67\n        /* \"#utility.yul\":1712:1717   */\n      dup2\n        /* \"#utility.yul\":1697:1718   */\n      tag_68\n      jump\t// in\n    tag_67:\n        /* \"#utility.yul\":1692:1695   */\n      dup3\n        /* \"#utility.yul\":1685:1719   */\n      mstore\n        /* \"#utility.yul\":1616:1725   */\n      pop\n      pop\n      jump\t// out\n        /* \"#utility.yul\":1731:1849   */\n    tag_69:\n        /* \"#utility.yul\":1818:1842   */\n      tag_71\n        /* \"#utility.yul\":1836:1841   */\n      dup2\n        /* \"#utility.yul\":1818:1842   */\n      tag_72\n      jump\t// in\n    tag_71:\n        /* \"#utility.yul\":1813:1816   */\n      dup3\n        /* \"#utility.yul\":1806:1843   */\n      mstore\n        /* \"#utility.yul\":1731:1849   */\n      pop\n      pop\n      jump\t// out\n        /* \"#utility.yul\":1855:2215   */\n    tag_73:\n        /* \"#utility.yul\":1941:1944   */\n      0x00\n        /* \"#utility.yul\":1969:2007   */\n      tag_75\n        /* \"#utility.yul\":2001:2006   */\n      dup3\n        /* \"#utility.yul\":1969:2007   */\n      tag_76\n      jump\t// in\n    tag_75:\n        /* \"#utility.yul\":2023:2093   */\n      tag_77\n        /* \"#utility.yul\":2086:2092   */\n      dup2\n        /* \"#utility.yul\":2081:2084   */\n      dup6\n        /* \"#utility.yul\":2023:2093   */\n      tag_78\n      jump\t// in\n    tag_77:\n        /* \"#utility.yul\":2016:2093   */\n      swap4\n      pop\n        /* \"#utility.yul\":2102:2154   */\n      tag_79\n        /* \"#utility.yul\":2147:2153   */\n      dup2\n        /* \"#utility.yul\":2142:2145   */\n      dup6\n        /* \"#utility.yul\":2135:2139   */\n      0x20\n        /* \"#utility.yul\":2128:2133   */\n      dup7\n        /* \"#utility.yul\":2124:2140   */\n      add\n        /* \"#utility.yul\":2102:2154   */\n      tag_80\n      jump\t// in\n    tag_79:\n        /* \"#utility.yul\":2179:2208   */\n      tag_81\n        /* \"#utility.yul\":2201:2207   */\n      dup2\n        /* \"#utility.yul\":2179:2208   */\n      tag_82\n      jump\t// in\n    tag_81:\n        /* \"#utility.yul\":2174:2177   */\n      dup5\n        /* \"#utility.yul\":2170:2209   */\n      add\n        /* \"#utility.yul\":2163:2209   */\n      swap2\n      pop\n        /* \"#utility.yul\":1945:2215   */\n      pop\n        /* \"#utility.yul\":1855:2215   */\n      swap3\n      swap2\n      pop\n      pop\n      jump\t// out\n        /* \"#utility.yul\":2221:2431   */\n    tag_15:\n        /* \"#utility.yul\":2308:2312   */\n      0x00\n        /* \"#utility.yul\":2346:2348   */\n      0x20\n        /* \"#utility.yul\":2335:2344   */\n      dup3\n        /* \"#utility.yul\":2331:2349   */\n      add\n        /* \"#utility.yul\":2323:2349   */\n      swap1\n      pop\n        /* \"#utility.yul\":2359:2424   */\n      tag_84\n        /* \"#utility.yul\":2421:2422   */\n      0x00\n        /* \"#utility.yul\":2410:2419   */\n      dup4\n        /* \"#utility.yul\":2406:2423   */\n      add\n        /* \"#utility.yul\":2397:2403   */\n      dup5\n        /* \"#utility.yul\":2359:2424   */\n      tag_65\n      jump\t// in\n    tag_84:\n        /* \"#utility.yul\":2221:2431   */\n      swap3\n      swap2\n      pop\n      pop\n      jump\t// out\n        /* \"#utility.yul\":2437:2659   */\n    tag_19:\n        /* \"#utility.yul\":2530:2534   */\n      0x00\n        /* \"#utility.yul\":2568:2570   */\n      0x20\n        /* \"#utility.yul\":2557:2566   */\n      dup3\n        /* \"#utility.yul\":2553:2571   */\n      add\n        /* \"#utility.yul\":2545:2571   */\n      swap1\n      pop\n        /* \"#utility.yul\":2581:2652   */\n      tag_86\n        /* \"#utility.yul\":2649:2650   */\n      0x00\n        /* \"#utility.yul\":2638:2647   */\n      dup4\n        /* \"#utility.yul\":2634:2651   */\n      add\n        /* \"#utility.yul\":2625:2631   */\n      dup5\n        /* \"#utility.yul\":2581:2652   */\n      tag_69\n      jump\t// in\n    tag_86:\n        /* \"#utility.yul\":2437:2659   */\n      swap3\n      swap2\n      pop\n      pop\n      jump\t// out\n        /* \"#utility.yul\":2665:2974   */\n    tag_9:\n        /* \"#utility.yul\":2776:2780   */\n      0x00\n        /* \"#utility.yul\":2814:2816   */\n      0x20\n        /* \"#utility.yul\":2803:2812   */\n      dup3\n        /* \"#utility.yul\":2799:2817   */\n      add\n        /* \"#utility.yul\":2791:2817   */\n      swap1\n      pop\n        /* \"#utility.yul\":2863:2872   */\n      dup2\n        /* \"#utility.yul\":2857:2861   */\n      dup2\n        /* \"#utility.yul\":2853:2873   */\n      sub\n        /* \"#utility.yul\":2849:2850   */\n      0x00\n        /* \"#utility.yul\":2838:2847   */\n      dup4\n        /* \"#utility.yul\":2834:2851   */\n      add\n        /* \"#utility.yul\":2827:2874   */\n      mstore\n        /* \"#utility.yul\":2891:2967   */\n      tag_88\n        /* \"#utility.yul\":2962:2966   */\n      dup2\n        /* \"#utility.yul\":2953:2959   */\n      dup5\n        /* \"#utility.yul\":2891:2967   */\n      tag_73\n      jump\t// in\n    tag_88:\n        /* \"#utility.yul\":2883:2967   */\n      swap1\n      pop\n        /* \"#utility.yul\":2665:2974   */\n      swap3\n      swap2\n      pop\n      pop\n      jump\t// out\n        /* \"#utility.yul\":2980:3109   */\n    tag_42:\n        /* \"#utility.yul\":3014:3020   */\n      0x00\n        /* \"#utility.yul\":3041:3061   */\n      tag_90\n      tag_91\n      jump\t// in\n    tag_90:\n        /* \"#utility.yul\":3031:3061   */\n      swap1\n      pop\n        /* \"#utility.yul\":3070:3103   */\n      tag_92\n        /* \"#utility.yul\":3098:3102   */\n      dup3\n        /* \"#utility.yul\":3090:3096   */\n      dup3\n        /* \"#utility.yul\":3070:3103   */\n      tag_93\n      jump\t// in\n    tag_92:\n        /* \"#utility.yul\":2980:3109   */\n      swap2\n      swap1\n      pop\n      jump\t// out\n        /* \"#utility.yul\":3115:3190   */\n    tag_91:\n        /* \"#utility.yul\":3148:3154   */\n      0x00\n        /* \"#utility.yul\":3181:3183   */\n      0x40\n        /* \"#utility.yul\":3175:3184   */\n      mload\n        /* \"#utility.yul\":3165:3184   */\n      swap1\n      pop\n        /* \"#utility.yul\":3115:3190   */\n      swap1\n      jump\t// out\n        /* \"#utility.yul\":3196:3503   */\n    tag_41:\n        /* \"#utility.yul\":3257:3261   */\n      0x00\n        /* \"#utility.yul\":3347:3365   */\n      0xffffffffffffffff\n        /* \"#utility.yul\":3339:3345   */\n      dup3\n        /* \"#utility.yul\":3336:3366   */\n      gt\n        /* \"#utility.yul\":3333:3389   */\n      iszero\n      tag_96\n      jumpi\n        /* \"#utility.yul\":3369:3387   */\n      tag_97\n      tag_98\n      jump\t// in\n    tag_97:\n        /* \"#utility.yul\":3333:3389   */\n    tag_96:\n        /* \"#utility.yul\":3407:3436   */\n      tag_99\n        /* \"#utility.yul\":3429:3435   */\n      dup3\n        /* \"#utility.yul\":3407:3436   */\n      tag_82\n      jump\t// in\n    tag_99:\n        /* \"#utility.yul\":3399:3436   */\n      swap1\n      pop\n        /* \"#utility.yul\":3491:3495   */\n      0x20\n        /* \"#utility.yul\":3485:3489   */\n      dup2\n        /* \"#utility.yul\":3481:3496   */\n      add\n        /* \"#utility.yul\":3473:3496   */\n      swap1\n      pop\n        /* \"#utility.yul\":3196:3503   */\n      swap2\n      swap1\n      pop\n      jump\t// out\n        /* \"#utility.yul\":3509:3607   */\n    tag_76:\n        /* \"#utility.yul\":3560:3566   */\n      0x00\n        /* \"#utility.yul\":3594:3599   */\n      dup2\n        /* \"#utility.yul\":3588:3600   */\n      mload\n        /* \"#utility.yul\":3578:3600   */\n      swap1\n      pop\n        /* \"#utility.yul\":3509:3607   */\n      swap2\n      swap1\n      pop\n      jump\t// out\n        /* \"#utility.yul\":3613:3781   */\n    tag_78:\n        /* \"#utility.yul\":3696:3707   */\n      0x00\n        /* \"#utility.yul\":3730:3736   */\n      dup3\n        /* \"#utility.yul\":3725:3728   */\n      dup3\n        /* \"#utility.yul\":3718:3737   */\n      mstore\n        /* \"#utility.yul\":3770:3774   */\n      0x20\n        /* \"#utility.yul\":3765:3768   */\n      dup3\n        /* \"#utility.yul\":3761:3775   */\n      add\n        /* \"#utility.yul\":3746:3775   */\n      swap1\n      pop\n        /* \"#utility.yul\":3613:3781   */\n      swap3\n      swap2\n      pop\n      pop\n      jump\t// out\n        /* \"#utility.yul\":3787:3877   */\n    tag_68:\n        /* \"#utility.yul\":3821:3828   */\n      0x00\n        /* \"#utility.yul\":3864:3869   */\n      dup2\n        /* \"#utility.yul\":3857:3870   */\n      iszero\n        /* \"#utility.yul\":3850:3871   */\n      iszero\n        /* \"#utility.yul\":3839:3871   */\n      swap1\n      pop\n        /* \"#utility.yul\":3787:3877   */\n      swap2\n      swap1\n      pop\n      jump\t// out\n        /* \"#utility.yul\":3883:3960   */\n    tag_72:\n        /* \"#utility.yul\":3920:3927   */\n      0x00\n        /* \"#utility.yul\":3949:3954   */\n      dup2\n        /* \"#utility.yul\":3938:3954   */\n      swap1\n      pop\n        /* \"#utility.yul\":3883:3960   */\n      swap2\n      swap1\n      pop\n      jump\t// out\n        /* \"#utility.yul\":3966:4120   */\n    tag_47:\n        /* \"#utility.yul\":4050:4056   */\n      dup3\n        /* \"#utility.yul\":4045:4048   */\n      dup2\n        /* \"#utility.yul\":4040:4043   */\n      dup4\n        /* \"#utility.yul\":4027:4057   */\n      calldatacopy\n        /* \"#utility.yul\":4112:4113   */\n      0x00\n        /* \"#utility.yul\":4103:4109   */\n      dup4\n        /* \"#utility.yul\":4098:4101   */\n      dup4\n        /* \"#utility.yul\":4094:4110   */\n      add\n        /* \"#utility.yul\":4087:4114   */\n      mstore\n        /* \"#utility.yul\":3966:4120   */\n      pop\n      pop\n      pop\n      jump\t// out\n        /* \"#utility.yul\":4126:4433   */\n    tag_80:\n        /* \"#utility.yul\":4194:4195   */\n      0x00\n        /* \"#utility.yul\":4204:4317   */\n    tag_106:\n        /* \"#utility.yul\":4218:4224   */\n      dup4\n        /* \"#utility.yul\":4215:4216   */\n      dup2\n        /* \"#utility.yul\":4212:4225   */\n      lt\n        /* \"#utility.yul\":4204:4317   */\n      iszero\n      tag_108\n      jumpi\n        /* \"#utility.yul\":4303:4304   */\n      dup1\n        /* \"#utility.yul\":4298:4301   */\n      dup3\n        /* \"#utility.yul\":4294:4305   */\n      add\n        /* \"#utility.yul\":4288:4306   */\n      mload\n        /* \"#utility.yul\":4284:4285   */\n      dup2\n        /* \"#utility.yul\":4279:4282   */\n      dup5\n        /* \"#utility.yul\":4275:4286   */\n      add\n        /* \"#utility.yul\":4268:4307   */\n      mstore\n        /* \"#utility.yul\":4240:4242   */\n      0x20\n        /* \"#utility.yul\":4237:4238   */\n      dup2\n        /* \"#utility.yul\":4233:4243   */\n      add\n        /* \"#utility.yul\":4228:4243   */\n      swap1\n      pop\n        /* \"#utility.yul\":4204:4317   */\n      jump(tag_106)\n    tag_108:\n        /* \"#utility.yul\":4335:4341   */\n      dup4\n        /* \"#utility.yul\":4332:4333   */\n      dup2\n        /* \"#utility.yul\":4329:4342   */\n      gt\n        /* \"#utility.yul\":4326:4427   */\n      iszero\n      tag_109\n      jumpi\n        /* \"#utility.yul\":4415:4416   */\n      0x00\n        /* \"#utility.yul\":4406:4412   */\n      dup5\n        /* \"#utility.yul\":4401:4404   */\n      dup5\n        /* \"#utility.yul\":4397:4413   */\n      add\n        /* \"#utility.yul\":4390:4417   */\n      mstore\n        /* \"#utility.yul\":4326:4427   */\n    tag_109:\n        /* \"#utility.yul\":4175:4433   */\n      pop\n        /* \"#utility.yul\":4126:4433   */\n      pop\n      pop\n      pop\n      jump\t// out\n        /* \"#utility.yul\":4439:4759   */\n    tag_21:\n        /* \"#utility.yul\":4483:4489   */\n      0x00\n        /* \"#utility.yul\":4520:4521   */\n      0x02\n        /* \"#utility.yul\":4514:4518   */\n      dup3\n        /* \"#utility.yul\":4510:4522   */\n      div\n        /* \"#utility.yul\":4500:4522   */\n      swap1\n      pop\n        /* \"#utility.yul\":4567:4568   */\n      0x01\n        /* \"#utility.yul\":4561:4565   */\n      dup3\n        /* \"#utility.yul\":4557:4569   */\n      and\n        /* \"#utility.yul\":4588:4606   */\n      dup1\n        /* \"#utility.yul\":4578:4659   */\n      tag_111\n      jumpi\n        /* \"#utility.yul\":4644:4648   */\n      0x7f\n        /* \"#utility.yul\":4636:4642   */\n      dup3\n        /* \"#utility.yul\":4632:4649   */\n      and\n        /* \"#utility.yul\":4622:4649   */\n      swap2\n      pop\n        /* \"#utility.yul\":4578:4659   */\n    tag_111:\n        /* \"#utility.yul\":4706:4708   */\n      0x20\n        /* \"#utility.yul\":4698:4704   */\n      dup3\n        /* \"#utility.yul\":4695:4709   */\n      lt\n        /* \"#utility.yul\":4675:4693   */\n      dup2\n        /* \"#utility.yul\":4672:4710   */\n      eq\n        /* \"#utility.yul\":4669:4753   */\n      iszero\n      tag_112\n      jumpi\n        /* \"#utility.yul\":4725:4743   */\n      tag_113\n      tag_114\n      jump\t// in\n    tag_113:\n        /* \"#utility.yul\":4669:4753   */\n    tag_112:\n        /* \"#utility.yul\":4490:4759   */\n      pop\n        /* \"#utility.yul\":4439:4759   */\n      swap2\n      swap1\n      pop\n      jump\t// out\n        /* \"#utility.yul\":4765:5046   */\n    tag_93:\n        /* \"#utility.yul\":4848:4875   */\n      tag_116\n        /* \"#utility.yul\":4870:4874   */\n      dup3\n        /* \"#utility.yul\":4848:4875   */\n      tag_82\n      jump\t// in\n    tag_116:\n        /* \"#utility.yul\":4840:4846   */\n      dup2\n        /* \"#utility.yul\":4836:4876   */\n      add\n        /* \"#utility.yul\":4978:4984   */\n      dup2\n        /* \"#utility.yul\":4966:4976   */\n      dup2\n        /* \"#utility.yul\":4963:4985   */\n      lt\n        /* \"#utility.yul\":4942:4960   */\n      0xffffffffffffffff\n        /* \"#utility.yul\":4930:4940   */\n      dup3\n        /* \"#utility.yul\":4927:4961   */\n      gt\n        /* \"#utility.yul\":4924:4986   */\n      or\n        /* \"#utility.yul\":4921:5009   */\n      iszero\n      tag_117\n      jumpi\n        /* \"#utility.yul\":4989:5007   */\n      tag_118\n      tag_98\n      jump\t// in\n    tag_118:\n        /* \"#utility.yul\":4921:5009   */\n    tag_117:\n        /* \"#utility.yul\":5029:5039   */\n      dup1\n        /* \"#utility.yul\":5025:5027   */\n      0x40\n        /* \"#utility.yul\":5018:5040   */\n      mstore\n        /* \"#utility.yul\":4808:5046   */\n      pop\n        /* \"#utility.yul\":4765:5046   */\n      pop\n      pop\n      jump\t// out\n        /* \"#utility.yul\":5052:5232   */\n    tag_114:\n        /* \"#utility.yul\":5100:5177   */\n      0x4e487b7100000000000000000000000000000000000000000000000000000000\n        /* \"#utility.yul\":5097:5098   */\n      0x00\n        /* \"#utility.yul\":5090:5178   */\n      mstore\n        /* \"#utility.yul\":5197:5201   */\n      0x22\n        /* \"#utility.yul\":5194:5195   */\n      0x04\n        /* \"#utility.yul\":5187:5202   */\n      mstore\n        /* \"#utility.yul\":5221:5225   */\n      0x24\n        /* \"#utility.yul\":5218:5219   */\n      0x00\n        /* \"#utility.yul\":5211:5226   */\n      revert\n        /* \"#utility.yul\":5238:5418   */\n    tag_98:\n        /* \"#utility.yul\":5286:5363   */\n      0x4e487b7100000000000000000000000000000000000000000000000000000000\n        /* \"#utility.yul\":5283:5284   */\n      0x00\n        /* \"#utility.yul\":5276:5364   */\n      mstore\n        /* \"#utility.yul\":5383:5387   */\n      0x41\n        /* \"#utility.yul\":5380:5381   */\n      0x04\n        /* \"#utility.yul\":5373:5388   */\n      mstore\n        /* \"#utility.yul\":5407:5411   */\n      0x24\n        /* \"#utility.yul\":5404:5405   */\n      0x00\n        /* \"#utility.yul\":5397:5412   */\n      revert\n        /* \"#utility.yul\":5424:5541   */\n    tag_52:\n        /* \"#utility.yul\":5533:5534   */\n      0x00\n        /* \"#utility.yul\":5530:5531   */\n      dup1\n        /* \"#utility.yul\":5523:5535   */\n      revert\n        /* \"#utility.yul\":5547:5664   */\n    tag_45:\n        /* \"#utility.yul\":5656:5657   */\n      0x00\n        /* \"#utility.yul\":5653:5654   */\n      dup1\n        /* \"#utility.yul\":5646:5658   */\n      revert\n        /* \"#utility.yul\":5670:5787   */\n    tag_60:\n        /* \"#utility.yul\":5779:5780   */\n      0x00\n        /* \"#utility.yul\":5776:5777   */\n      dup1\n        /* \"#utility.yul\":5769:5781   */\n      revert\n        /* \"#utility.yul\":5793:5910   */\n    tag_57:\n        /* \"#utility.yul\":5902:5903   */\n      0x00\n        /* \"#utility.yul\":5899:5900   */\n      dup1\n        /* \"#utility.yul\":5892:5904   */\n      revert\n        /* \"#utility.yul\":5916:6018   */\n    tag_82:\n        /* \"#utility.yul\":5957:5963   */\n      0x00\n        /* \"#utility.yul\":6008:6010   */\n      0x1f\n        /* \"#utility.yul\":6004:6011   */\n      not\n        /* \"#utility.yul\":5999:6001   */\n      0x1f\n        /* \"#utility.yul\":5992:5997   */\n      dup4\n        /* \"#utility.yul\":5988:6002   */\n      add\n        /* \"#utility.yul\":5984:6012   */\n      and\n        /* \"#utility.yul\":5974:6012   */\n      swap1\n      pop\n        /* \"#utility.yul\":5916:6018   */\n      swap2\n      swap1\n      pop\n      jump\t// out\n\n    auxdata: 0xa26469706673582212207f01265dc5c9a4b6c023c9aa5fd70805e9795adb986153169ab19ca4903129a064736f6c63430008070033\n}\n",
				"bytecode": {
					"linkReferences": {},
					"object": "60806040526040518060600160405280602e81526020016106c0602e913960009080519060200190610032929190610069565b507f4c45484f4e47564f776a6e66766a3377656838764b4a0000000000000000000060015534801561006357600080fd5b5061016d565b8280546100759061010c565b90600052602060002090601f01602090048101928261009757600085556100de565b82601f106100b057805160ff19168380011785556100de565b828001600101855582156100de579182015b828111156100dd5782518255916020019190600101906100c2565b5b5090506100eb91906100ef565b5090565b5b808211156101085760008160009055506001016100f0565b5090565b6000600282049050600182168061012457607f821691505b602082108114156101385761013761013e565b5b50919050565b7f4e487b7100000000000000000000000000000000000000000000000000000000600052602260045260246000fd5b6105448061017c6000396000f3fe608060405234801561001057600080fd5b50600436106100415760003560e01c80639ffd85c414610046578063ba654d0514610064578063e3a7fd7514610094575b600080fd5b61004e6100b2565b60405161005b919061033c565b60405180910390f35b61007e60048036038101906100799190610237565b610140565b60405161008b9190610306565b60405180910390f35b61009c610154565b6040516100a99190610321565b60405180910390f35b600080546100bf90610428565b80601f01602080910402602001604051908101604052809291908181526020018280546100eb90610428565b80156101385780601f1061010d57610100808354040283529160200191610138565b820191906000526020600020905b81548152906001019060200180831161011b57829003601f168201915b505050505081565b600061014c838361015a565b905092915050565b60015481565b600080600190508351835181146001811461017857600092506101bb565b600160208701838101602088015b6002848385100114156101b65780518351146101a55760009650600093505b602083019250602081019050610186565b505050505b50508091505092915050565b60006101da6101d584610383565b61035e565b9050828152602081018484840111156101f6576101f56104ee565b5b6102018482856103e6565b509392505050565b600082601f83011261021e5761021d6104e9565b5b813561022e8482602086016101c7565b91505092915050565b6000806040838503121561024e5761024d6104f8565b5b600083013567ffffffffffffffff81111561026c5761026b6104f3565b5b61027885828601610209565b925050602083013567ffffffffffffffff811115610299576102986104f3565b5b6102a585828601610209565b9150509250929050565b6102b8816103d0565b82525050565b6102c7816103dc565b82525050565b60006102d8826103b4565b6102e281856103bf565b93506102f28185602086016103f5565b6102fb816104fd565b840191505092915050565b600060208201905061031b60008301846102af565b92915050565b600060208201905061033660008301846102be565b92915050565b6000602082019050818103600083015261035681846102cd565b905092915050565b6000610368610379565b9050610374828261045a565b919050565b6000604051905090565b600067ffffffffffffffff82111561039e5761039d6104ba565b5b6103a7826104fd565b9050602081019050919050565b600081519050919050565b600082825260208201905092915050565b60008115159050919050565b6000819050919050565b82818337600083830152505050565b60005b838110156104135780820151818401526020810190506103f8565b83811115610422576000848401525b50505050565b6000600282049050600182168061044057607f821691505b602082108114156104545761045361048b565b5b50919050565b610463826104fd565b810181811067ffffffffffffffff82111715610482576104816104ba565b5b80604052505050565b7f4e487b7100000000000000000000000000000000000000000000000000000000600052602260045260246000fd5b7f4e487b7100000000000000000000000000000000000000000000000000000000600052604160045260246000fd5b600080fd5b600080fd5b600080fd5b600080fd5b6000601f19601f830116905091905056fea26469706673582212207f01265dc5c9a4b6c023c9aa5fd70805e9795adb986153169ab19ca4903129a064736f6c634300080700334e414c4548484a534744534447484a534448535548444a5348444a53484a53484a534844534a44484a4f4e47564f",
					"opcodes": "PUSH1 0x80 PUSH1 0x40 MSTORE PUSH1 0x40 MLOAD DUP1 PUSH1 0x60 ADD PUSH1 0x40 MSTORE DUP1 PUSH1 0x2E DUP2 MSTORE PUSH1 0x20 ADD PUSH2 0x6C0 PUSH1 0x2E SWAP2 CODECOPY PUSH1 0x0 SWAP1 DUP1 MLOAD SWAP1 PUSH1 0x20 ADD SWAP1 PUSH2 0x32 SWAP3 SWAP2 SWAP1 PUSH2 0x69 JUMP JUMPDEST POP PUSH32 0x4C45484F4E47564F776A6E66766A3377656838764B4A00000000000000000000 PUSH1 0x1 SSTORE CALLVALUE DUP1 ISZERO PUSH2 0x63 JUMPI PUSH1 0x0 DUP1 REVERT JUMPDEST POP PUSH2 0x16D JUMP JUMPDEST DUP3 DUP1 SLOAD PUSH2 0x75 SWAP1 PUSH2 0x10C JUMP JUMPDEST SWAP1 PUSH1 0x0 MSTORE PUSH1 0x20 PUSH1 0x0 KECCAK256 SWAP1 PUSH1 0x1F ADD PUSH1 0x20 SWAP1 DIV DUP2 ADD SWAP3 DUP3 PUSH2 0x97 JUMPI PUSH1 0x0 DUP6 SSTORE PUSH2 0xDE JUMP JUMPDEST DUP3 PUSH1 0x1F LT PUSH2 0xB0 JUMPI DUP1 MLOAD PUSH1 0xFF NOT AND DUP4 DUP1 ADD OR DUP6 SSTORE PUSH2 0xDE JUMP JUMPDEST DUP3 DUP1 ADD PUSH1 0x1 ADD DUP6 SSTORE DUP3 ISZERO PUSH2 0xDE JUMPI SWAP2 DUP3 ADD JUMPDEST DUP3 DUP2 GT ISZERO PUSH2 0xDD JUMPI DUP3 MLOAD DUP3 SSTORE SWAP2 PUSH1 0x20 ADD SWAP2 SWAP1 PUSH1 0x1 ADD SWAP1 PUSH2 0xC2 JUMP JUMPDEST JUMPDEST POP SWAP1 POP PUSH2 0xEB SWAP2 SWAP1 PUSH2 0xEF JUMP JUMPDEST POP SWAP1 JUMP JUMPDEST JUMPDEST DUP1 DUP3 GT ISZERO PUSH2 0x108 JUMPI PUSH1 0x0 DUP2 PUSH1 0x0 SWAP1 SSTORE POP PUSH1 0x1 ADD PUSH2 0xF0 JUMP JUMPDEST POP SWAP1 JUMP JUMPDEST PUSH1 0x0 PUSH1 0x2 DUP3 DIV SWAP1 POP PUSH1 0x1 DUP3 AND DUP1 PUSH2 0x124 JUMPI PUSH1 0x7F DUP3 AND SWAP2 POP JUMPDEST PUSH1 0x20 DUP3 LT DUP2 EQ ISZERO PUSH2 0x138 JUMPI PUSH2 0x137 PUSH2 0x13E JUMP JUMPDEST JUMPDEST POP SWAP2 SWAP1 POP JUMP JUMPDEST PUSH32 0x4E487B7100000000000000000000000000000000000000000000000000000000 PUSH1 0x0 MSTORE PUSH1 0x22 PUSH1 0x4 MSTORE PUSH1 0x24 PUSH1 0x0 REVERT JUMPDEST PUSH2 0x544 DUP1 PUSH2 0x17C PUSH1 0x0 CODECOPY PUSH1 0x0 RETURN INVALID PUSH1 0x80 PUSH1 0x40 MSTORE CALLVALUE DUP1 ISZERO PUSH2 0x10 JUMPI PUSH1 0x0 DUP1 REVERT JUMPDEST POP PUSH1 0x4 CALLDATASIZE LT PUSH2 0x41 JUMPI PUSH1 0x0 CALLDATALOAD PUSH1 0xE0 SHR DUP1 PUSH4 0x9FFD85C4 EQ PUSH2 0x46 JUMPI DUP1 PUSH4 0xBA654D05 EQ PUSH2 0x64 JUMPI DUP1 PUSH4 0xE3A7FD75 EQ PUSH2 0x94 JUMPI JUMPDEST PUSH1 0x0 DUP1 REVERT JUMPDEST PUSH2 0x4E PUSH2 0xB2 JUMP JUMPDEST PUSH1 0x40 MLOAD PUSH2 0x5B SWAP2 SWAP1 PUSH2 0x33C JUMP JUMPDEST PUSH1 0x40 MLOAD DUP1 SWAP2 SUB SWAP1 RETURN JUMPDEST PUSH2 0x7E PUSH1 0x4 DUP1 CALLDATASIZE SUB DUP2 ADD SWAP1 PUSH2 0x79 SWAP2 SWAP1 PUSH2 0x237 JUMP JUMPDEST PUSH2 0x140 JUMP JUMPDEST PUSH1 0x40 MLOAD PUSH2 0x8B SWAP2 SWAP1 PUSH2 0x306 JUMP JUMPDEST PUSH1 0x40 MLOAD DUP1 SWAP2 SUB SWAP1 RETURN JUMPDEST PUSH2 0x9C PUSH2 0x154 JUMP JUMPDEST PUSH1 0x40 MLOAD PUSH2 0xA9 SWAP2 SWAP1 PUSH2 0x321 JUMP JUMPDEST PUSH1 0x40 MLOAD DUP1 SWAP2 SUB SWAP1 RETURN JUMPDEST PUSH1 0x0 DUP1 SLOAD PUSH2 0xBF SWAP1 PUSH2 0x428 JUMP JUMPDEST DUP1 PUSH1 0x1F ADD PUSH1 0x20 DUP1 SWAP2 DIV MUL PUSH1 0x20 ADD PUSH1 0x40 MLOAD SWAP1 DUP2 ADD PUSH1 0x40 MSTORE DUP1 SWAP3 SWAP2 SWAP1 DUP2 DUP2 MSTORE PUSH1 0x20 ADD DUP3 DUP1 SLOAD PUSH2 0xEB SWAP1 PUSH2 0x428 JUMP JUMPDEST DUP1 ISZERO PUSH2 0x138 JUMPI DUP1 PUSH1 0x1F LT PUSH2 0x10D JUMPI PUSH2 0x100 DUP1 DUP4 SLOAD DIV MUL DUP4 MSTORE SWAP2 PUSH1 0x20 ADD SWAP2 PUSH2 0x138 JUMP JUMPDEST DUP3 ADD SWAP2 SWAP1 PUSH1 0x0 MSTORE PUSH1 0x20 PUSH1 0x0 KECCAK256 SWAP1 JUMPDEST DUP2 SLOAD DUP2 MSTORE SWAP1 PUSH1 0x1 ADD SWAP1 PUSH1 0x20 ADD DUP1 DUP4 GT PUSH2 0x11B JUMPI DUP3 SWAP1 SUB PUSH1 0x1F AND DUP3 ADD SWAP2 JUMPDEST POP POP POP POP POP DUP2 JUMP JUMPDEST PUSH1 0x0 PUSH2 0x14C DUP4 DUP4 PUSH2 0x15A JUMP JUMPDEST SWAP1 POP SWAP3 SWAP2 POP POP JUMP JUMPDEST PUSH1 0x1 SLOAD DUP2 JUMP JUMPDEST PUSH1 0x0 DUP1 PUSH1 0x1 SWAP1 POP DUP4 MLOAD DUP4 MLOAD DUP2 EQ PUSH1 0x1 DUP2 EQ PUSH2 0x178 JUMPI PUSH1 0x0 SWAP3 POP PUSH2 0x1BB JUMP JUMPDEST PUSH1 0x1 PUSH1 0x20 DUP8 ADD DUP4 DUP2 ADD PUSH1 0x20 DUP9 ADD JUMPDEST PUSH1 0x2 DUP5 DUP4 DUP6 LT ADD EQ ISZERO PUSH2 0x1B6 JUMPI DUP1 MLOAD DUP4 MLOAD EQ PUSH2 0x1A5 JUMPI PUSH1 0x0 SWAP7 POP PUSH1 0x0 SWAP4 POP JUMPDEST PUSH1 0x20 DUP4 ADD SWAP3 POP PUSH1 0x20 DUP2 ADD SWAP1 POP PUSH2 0x186 JUMP JUMPDEST POP POP POP POP JUMPDEST POP POP DUP1 SWAP2 POP POP SWAP3 SWAP2 POP POP JUMP JUMPDEST PUSH1 0x0 PUSH2 0x1DA PUSH2 0x1D5 DUP5 PUSH2 0x383 JUMP JUMPDEST PUSH2 0x35E JUMP JUMPDEST SWAP1 POP DUP3 DUP2 MSTORE PUSH1 0x20 DUP2 ADD DUP5 DUP5 DUP5 ADD GT ISZERO PUSH2 0x1F6 JUMPI PUSH2 0x1F5 PUSH2 0x4EE JUMP JUMPDEST JUMPDEST PUSH2 0x201 DUP5 DUP3 DUP6 PUSH2 0x3E6 JUMP JUMPDEST POP SWAP4 SWAP3 POP POP POP JUMP JUMPDEST PUSH1 0x0 DUP3 PUSH1 0x1F DUP4 ADD SLT PUSH2 0x21E JUMPI PUSH2 0x21D PUSH2 0x4E9 JUMP JUMPDEST JUMPDEST DUP2 CALLDATALOAD PUSH2 0x22E DUP5 DUP3 PUSH1 0x20 DUP7 ADD PUSH2 0x1C7 JUMP JUMPDEST SWAP2 POP POP SWAP3 SWAP2 POP POP JUMP JUMPDEST PUSH1 0x0 DUP1 PUSH1 0x40 DUP4 DUP6 SUB SLT ISZERO PUSH2 0x24E JUMPI PUSH2 0x24D PUSH2 0x4F8 JUMP JUMPDEST JUMPDEST PUSH1 0x0 DUP4 ADD CALLDATALOAD PUSH8 0xFFFFFFFFFFFFFFFF DUP2 GT ISZERO PUSH2 0x26C JUMPI PUSH2 0x26B PUSH2 0x4F3 JUMP JUMPDEST JUMPDEST PUSH2 0x278 DUP6 DUP3 DUP7 ADD PUSH2 0x209 JUMP JUMPDEST SWAP3 POP POP PUSH1 0x20 DUP4 ADD CALLDATALOAD PUSH8 0xFFFFFFFFFFFFFFFF DUP2 GT ISZERO PUSH2 0x299 JUMPI PUSH2 0x298 PUSH2 0x4F3 JUMP JUMPDEST JUMPDEST PUSH2 0x2A5 DUP6 DUP3 DUP7 ADD PUSH2 0x209 JUMP JUMPDEST SWAP2 POP POP SWAP3 POP SWAP3 SWAP1 POP JUMP JUMPDEST PUSH2 0x2B8 DUP2 PUSH2 0x3D0 JUMP JUMPDEST DUP3 MSTORE POP POP JUMP JUMPDEST PUSH2 0x2C7 DUP2 PUSH2 0x3DC JUMP JUMPDEST DUP3 MSTORE POP POP JUMP JUMPDEST PUSH1 0x0 PUSH2 0x2D8 DUP3 PUSH2 0x3B4 JUMP JUMPDEST PUSH2 0x2E2 DUP2 DUP6 PUSH2 0x3BF JUMP JUMPDEST SWAP4 POP PUSH2 0x2F2 DUP2 DUP6 PUSH1 0x20 DUP7 ADD PUSH2 0x3F5 JUMP JUMPDEST PUSH2 0x2FB DUP2 PUSH2 0x4FD JUMP JUMPDEST DUP5 ADD SWAP2 POP POP SWAP3 SWAP2 POP POP JUMP JUMPDEST PUSH1 0x0 PUSH1 0x20 DUP3 ADD SWAP1 POP PUSH2 0x31B PUSH1 0x0 DUP4 ADD DUP5 PUSH2 0x2AF JUMP JUMPDEST SWAP3 SWAP2 POP POP JUMP JUMPDEST PUSH1 0x0 PUSH1 0x20 DUP3 ADD SWAP1 POP PUSH2 0x336 PUSH1 0x0 DUP4 ADD DUP5 PUSH2 0x2BE JUMP JUMPDEST SWAP3 SWAP2 POP POP JUMP JUMPDEST PUSH1 0x0 PUSH1 0x20 DUP3 ADD SWAP1 POP DUP2 DUP2 SUB PUSH1 0x0 DUP4 ADD MSTORE PUSH2 0x356 DUP2 DUP5 PUSH2 0x2CD JUMP JUMPDEST SWAP1 POP SWAP3 SWAP2 POP POP JUMP JUMPDEST PUSH1 0x0 PUSH2 0x368 PUSH2 0x379 JUMP JUMPDEST SWAP1 POP PUSH2 0x374 DUP3 DUP3 PUSH2 0x45A JUMP JUMPDEST SWAP2 SWAP1 POP JUMP JUMPDEST PUSH1 0x0 PUSH1 0x40 MLOAD SWAP1 POP SWAP1 JUMP JUMPDEST PUSH1 0x0 PUSH8 0xFFFFFFFFFFFFFFFF DUP3 GT ISZERO PUSH2 0x39E JUMPI PUSH2 0x39D PUSH2 0x4BA JUMP JUMPDEST JUMPDEST PUSH2 0x3A7 DUP3 PUSH2 0x4FD JUMP JUMPDEST SWAP1 POP PUSH1 0x20 DUP2 ADD SWAP1 POP SWAP2 SWAP1 POP JUMP JUMPDEST PUSH1 0x0 DUP2 MLOAD SWAP1 POP SWAP2 SWAP1 POP JUMP JUMPDEST PUSH1 0x0 DUP3 DUP3 MSTORE PUSH1 0x20 DUP3 ADD SWAP1 POP SWAP3 SWAP2 POP POP JUMP JUMPDEST PUSH1 0x0 DUP2 ISZERO ISZERO SWAP1 POP SWAP2 SWAP1 POP JUMP JUMPDEST PUSH1 0x0 DUP2 SWAP1 POP SWAP2 SWAP1 POP JUMP JUMPDEST DUP3 DUP2 DUP4 CALLDATACOPY PUSH1 0x0 DUP4 DUP4 ADD MSTORE POP POP POP JUMP JUMPDEST PUSH1 0x0 JUMPDEST DUP4 DUP2 LT ISZERO PUSH2 0x413 JUMPI DUP1 DUP3 ADD MLOAD DUP2 DUP5 ADD MSTORE PUSH1 0x20 DUP2 ADD SWAP1 POP PUSH2 0x3F8 JUMP JUMPDEST DUP4 DUP2 GT ISZERO PUSH2 0x422 JUMPI PUSH1 0x0 DUP5 DUP5 ADD MSTORE JUMPDEST POP POP POP POP JUMP JUMPDEST PUSH1 0x0 PUSH1 0x2 DUP3 DIV SWAP1 POP PUSH1 0x1 DUP3 AND DUP1 PUSH2 0x440 JUMPI PUSH1 0x7F DUP3 AND SWAP2 POP JUMPDEST PUSH1 0x20 DUP3 LT DUP2 EQ ISZERO PUSH2 0x454 JUMPI PUSH2 0x453 PUSH2 0x48B JUMP JUMPDEST JUMPDEST POP SWAP2 SWAP1 POP JUMP JUMPDEST PUSH2 0x463 DUP3 PUSH2 0x4FD JUMP JUMPDEST DUP2 ADD DUP2 DUP2 LT PUSH8 0xFFFFFFFFFFFFFFFF DUP3 GT OR ISZERO PUSH2 0x482 JUMPI PUSH2 0x481 PUSH2 0x4BA JUMP JUMPDEST JUMPDEST DUP1 PUSH1 0x40 MSTORE POP POP POP JUMP JUMPDEST PUSH32 0x4E487B7100000000000000000000000000000000000000000000000000000000 PUSH1 0x0 MSTORE PUSH1 0x22 PUSH1 0x4 MSTORE PUSH1 0x24 PUSH1 0x0 REVERT JUMPDEST PUSH32 0x4E487B7100000000000000000000000000000000000000000000000000000000 PUSH1 0x0 MSTORE PUSH1 0x41 PUSH1 0x4 MSTORE PUSH1 0x24 PUSH1 0x0 REVERT JUMPDEST PUSH1 0x0 DUP1 REVERT JUMPDEST PUSH1 0x0 DUP1 REVERT JUMPDEST PUSH1 0x0 DUP1 REVERT JUMPDEST PUSH1 0x0 DUP1 REVERT JUMPDEST PUSH1 0x0 PUSH1 0x1F NOT PUSH1 0x1F DUP4 ADD AND SWAP1 POP SWAP2 SWAP1 POP JUMP INVALID LOG2 PUSH5 0x6970667358 0x22 SLT KECCAK256 PUSH32 0x1265DC5C9A4B6C023C9AA5FD70805E9795ADB986153169AB19CA4903129A064 PUSH20 0x6F6C634300080700334E414C4548484A53474453 DIFFICULTY SELFBALANCE BASEFEE 0x4A MSTORE8 DIFFICULTY BASEFEE MSTORE8 SSTORE BASEFEE DIFFICULTY 0x4A MSTORE8 BASEFEE DIFFICULTY 0x4A MSTORE8 BASEFEE 0x4A MSTORE8 BASEFEE 0x4A MSTORE8 BASEFEE DIFFICULTY MSTORE8 0x4A DIFFICULTY BASEFEE 0x4A 0x4F 0x4E SELFBALANCE JUMP 0x4F "
				},
				"gasEstimates": {
					"creation": {
						"codeDepositCost": "269600",
						"executionCost": "infinite",
						"totalCost": "infinite"
					},
					"external": {
						"data1()": "infinite",
						"data2()": "2451",
						"getData(bytes,bytes)": "infinite"
					},
					"internal": {
						"equal(bytes memory,bytes memory)": "infinite"
					}
				},
				"methodIdentifiers": {
					"data1()": "9ffd85c4",
					"data2()": "e3a7fd75",
					"getData(bytes,bytes)": "ba654d05"
				}
			},
			"userdoc": {
				"kind": "user",
				"methods": {},
				"version": 1
			}
		}
	}
}