{
	"contracts/demo2.sol": {
		"demo2": {
			"abi": [
				{
					"inputs": [],
					"name": "data1",
					"outputs": [
						{
							"internalType": "bytes",
							"name": "",
							"type": "bytes"
						}
					],
					"stateMutability": "view",
					"type": "function"
				},
				{
					"inputs": [],
					"name": "data2",
					"outputs": [
						{
							"internalType": "bytes32",
							"name": "",
							"type": "bytes32"
						}
					],
					"stateMutability": "view",
					"type": "function"
				},
				{
					"inputs": [
						{
							"internalType": "uint256",
							"name": "_offst",
							"type": "uint256"
						},
						{
							"internalType": "bytes",
							"name": "_input",
							"type": "bytes"
						}
					],
					"name": "getData",
					"outputs": [
						{
							"internalType": "uint256",
							"name": "",
							"type": "uint256"
						}
					],
					"stateMutability": "view",
					"type": "function"
				}
			],
			"devdoc": {
				"kind": "dev",
				"methods": {},
				"version": 1
			},
			"evm": {
				"assembly": "    /* \"contracts/demo2.sol\":34:858  contract demo2 {\r... */\n  mstore(0x40, 0x80)\n    /* \"contracts/demo2.sol\":55:124  bytes public data1 = \"NALEHHJSGDSDGHJSDHSUHDJSHDJSHJSHJSHDSJDHJONGVO\" */\n  mload(0x40)\n  dup1\n  0x60\n  add\n  0x40\n  mstore\n  dup1\n  0x2e\n  dup2\n  mstore\n  0x20\n  add\n  data_4887836e294a2761413359597244d307bbe3f94827f6160d9e1a399e00e2d1be\n  0x2e\n  swap2\n  codecopy\n  0x00\n  swap1\n  dup1\n  mload\n  swap1\n  0x20\n  add\n  swap1\n  tag_1\n  swap3\n  swap2\n  swap1\n  tag_2\n  jump\t// in\ntag_1:\n  pop\n    /* \"contracts/demo2.sol\":130:177  bytes32 public data2 = \"LEHONGVOwjnfvj3weh8vKJ\" */\n  sstore(0x01, 0x4c45484f4e47564f776a6e66766a3377656838764b4a00000000000000000000)\n    /* \"contracts/demo2.sol\":34:858  contract demo2 {\r... */\n  callvalue\n  dup1\n  iszero\n  tag_3\n  jumpi\n  0x00\n  dup1\n  revert\ntag_3:\n  pop\n  jump(tag_4)\ntag_2:\n  dup3\n  dup1\n  sload\n  tag_5\n  swap1\n  tag_6\n  jump\t// in\ntag_5:\n  swap1\n  0x00\n  mstore\n  keccak256(0x00, 0x20)\n  swap1\n  0x1f\n  add\n  0x20\n  swap1\n  div\n  dup2\n  add\n  swap3\n  dup3\n  tag_8\n  jumpi\n  0x00\n  dup6\n  sstore\n  jump(tag_7)\ntag_8:\n  dup3\n  0x1f\n  lt\n  tag_9\n  jumpi\n  dup1\n  mload\n  not(0xff)\n  and\n  dup4\n  dup1\n  add\n  or\n  dup6\n  sstore\n  jump(tag_7)\ntag_9:\n  dup3\n  dup1\n  add\n  0x01\n  add\n  dup6\n  sstore\n  dup3\n  iszero\n  tag_7\n  jumpi\n  swap2\n  dup3\n  add\ntag_10:\n  dup3\n  dup2\n  gt\n  iszero\n  tag_11\n  jumpi\n  dup3\n  mload\n  dup3\n  sstore\n  swap2\n  0x20\n  add\n  swap2\n  swap1\n  0x01\n  add\n  swap1\n  jump(tag_10)\ntag_11:\ntag_7:\n  pop\n  swap1\n  pop\n  tag_12\n  swap2\n  swap1\n  tag_13\n  jump\t// in\ntag_12:\n  pop\n  swap1\n  jump\t// out\ntag_13:\ntag_14:\n  dup1\n  dup3\n  gt\n  iszero\n  tag_15\n  jumpi\n  0x00\n  dup2\n  0x00\n  swap1\n  sstore\n  pop\n  0x01\n  add\n  jump(tag_14)\ntag_15:\n  pop\n  swap1\n  jump\t// out\n    /* \"#utility.yul\":7:327   */\ntag_6:\n    /* \"#utility.yul\":51:57   */\n  0x00\n    /* \"#utility.yul\":88:89   */\n  0x02\n    /* \"#utility.yul\":82:86   */\n  dup3\n    /* \"#utility.yul\":78:90   */\n  div\n    /* \"#utility.yul\":68:90   */\n  swap1\n  pop\n    /* \"#utility.yul\":135:136   */\n  0x01\n    /* \"#utility.yul\":129:133   */\n  dup3\n    /* \"#utility.yul\":125:137   */\n  and\n    /* \"#utility.yul\":156:174   */\n  dup1\n    /* \"#utility.yul\":146:227   */\n  tag_18\n  jumpi\n    /* \"#utility.yul\":212:216   */\n  0x7f\n    /* \"#utility.yul\":204:210   */\n  dup3\n    /* \"#utility.yul\":200:217   */\n  and\n    /* \"#utility.yul\":190:217   */\n  swap2\n  pop\n    /* \"#utility.yul\":146:227   */\ntag_18:\n    /* \"#utility.yul\":274:276   */\n  0x20\n    /* \"#utility.yul\":266:272   */\n  dup3\n    /* \"#utility.yul\":263:277   */\n  lt\n    /* \"#utility.yul\":243:261   */\n  dup2\n    /* \"#utility.yul\":240:278   */\n  eq\n    /* \"#utility.yul\":237:321   */\n  iszero\n  tag_19\n  jumpi\n    /* \"#utility.yul\":293:311   */\n  tag_20\n  tag_21\n  jump\t// in\ntag_20:\n    /* \"#utility.yul\":237:321   */\ntag_19:\n    /* \"#utility.yul\":58:327   */\n  pop\n    /* \"#utility.yul\":7:327   */\n  swap2\n  swap1\n  pop\n  jump\t// out\n    /* \"#utility.yul\":333:513   */\ntag_21:\n    /* \"#utility.yul\":381:458   */\n  0x4e487b7100000000000000000000000000000000000000000000000000000000\n    /* \"#utility.yul\":378:379   */\n  0x00\n    /* \"#utility.yul\":371:459   */\n  mstore\n    /* \"#utility.yul\":478:482   */\n  0x22\n    /* \"#utility.yul\":475:476   */\n  0x04\n    /* \"#utility.yul\":468:483   */\n  mstore\n    /* \"#utility.yul\":502:506   */\n  0x24\n    /* \"#utility.yul\":499:500   */\n  0x00\n    /* \"#utility.yul\":492:507   */\n  revert\n    /* \"contracts/demo2.sol\":34:858  contract demo2 {\r... */\ntag_4:\n  dataSize(sub_0)\n  dup1\n  dataOffset(sub_0)\n  0x00\n  codecopy\n  0x00\n  return\nstop\ndata_4887836e294a2761413359597244d307bbe3f94827f6160d9e1a399e00e2d1be 4e414c4548484a534744534447484a534448535548444a5348444a53484a53484a534844534a44484a4f4e47564f\n\nsub_0: assembly {\n        /* \"contracts/demo2.sol\":34:858  contract demo2 {\r... */\n      mstore(0x40, 0x80)\n      callvalue\n      dup1\n      iszero\n      tag_1\n      jumpi\n      0x00\n      dup1\n      revert\n    tag_1:\n      pop\n      jumpi(tag_2, lt(calldatasize, 0x04))\n      shr(0xe0, calldataload(0x00))\n      dup1\n      0x9ffd85c4\n      eq\n      tag_3\n      jumpi\n      dup1\n      0xe3a7fd75\n      eq\n      tag_4\n      jumpi\n      dup1\n      0xe5b935b2\n      eq\n      tag_5\n      jumpi\n    tag_2:\n      0x00\n      dup1\n      revert\n        /* \"contracts/demo2.sol\":55:124  bytes public data1 = \"NALEHHJSGDSDGHJSDHSUHDJSHDJSHJSHJSHDSJDHJONGVO\" */\n    tag_3:\n      tag_6\n      tag_7\n      jump\t// in\n    tag_6:\n      mload(0x40)\n      tag_8\n      swap2\n      swap1\n      tag_9\n      jump\t// in\n    tag_8:\n      mload(0x40)\n      dup1\n      swap2\n      sub\n      swap1\n      return\n        /* \"contracts/demo2.sol\":130:177  bytes32 public data2 = \"LEHONGVOwjnfvj3weh8vKJ\" */\n    tag_4:\n      tag_10\n      tag_11\n      jump\t// in\n    tag_10:\n      mload(0x40)\n      tag_12\n      swap2\n      swap1\n      tag_13\n      jump\t// in\n    tag_12:\n      mload(0x40)\n      dup1\n      swap2\n      sub\n      swap1\n      return\n        /* \"contracts/demo2.sol\":185:315  function getData(uint _offst, bytes memory _input) public view returns(uint) {\r... */\n    tag_5:\n      tag_14\n      0x04\n      dup1\n      calldatasize\n      sub\n      dup2\n      add\n      swap1\n      tag_15\n      swap2\n      swap1\n      tag_16\n      jump\t// in\n    tag_15:\n      tag_17\n      jump\t// in\n    tag_14:\n      mload(0x40)\n      tag_18\n      swap2\n      swap1\n      tag_19\n      jump\t// in\n    tag_18:\n      mload(0x40)\n      dup1\n      swap2\n      sub\n      swap1\n      return\n        /* \"contracts/demo2.sol\":55:124  bytes public data1 = \"NALEHHJSGDSDGHJSDHSUHDJSHDJSHJSHJSHDSJDHJONGVO\" */\n    tag_7:\n      0x00\n      dup1\n      sload\n      tag_20\n      swap1\n      tag_21\n      jump\t// in\n    tag_20:\n      dup1\n      0x1f\n      add\n      0x20\n      dup1\n      swap2\n      div\n      mul\n      0x20\n      add\n      mload(0x40)\n      swap1\n      dup2\n      add\n      0x40\n      mstore\n      dup1\n      swap3\n      swap2\n      swap1\n      dup2\n      dup2\n      mstore\n      0x20\n      add\n      dup3\n      dup1\n      sload\n      tag_22\n      swap1\n      tag_21\n      jump\t// in\n    tag_22:\n      dup1\n      iszero\n      tag_23\n      jumpi\n      dup1\n      0x1f\n      lt\n      tag_24\n      jumpi\n      0x0100\n      dup1\n      dup4\n      sload\n      div\n      mul\n      dup4\n      mstore\n      swap2\n      0x20\n      add\n      swap2\n      jump(tag_23)\n    tag_24:\n      dup3\n      add\n      swap2\n      swap1\n      0x00\n      mstore\n      keccak256(0x00, 0x20)\n      swap1\n    tag_25:\n      dup2\n      sload\n      dup2\n      mstore\n      swap1\n      0x01\n      add\n      swap1\n      0x20\n      add\n      dup1\n      dup4\n      gt\n      tag_25\n      jumpi\n      dup3\n      swap1\n      sub\n      0x1f\n      and\n      dup3\n      add\n      swap2\n    tag_23:\n      pop\n      pop\n      pop\n      pop\n      pop\n      dup2\n      jump\t// out\n        /* \"contracts/demo2.sol\":130:177  bytes32 public data2 = \"LEHONGVOwjnfvj3weh8vKJ\" */\n    tag_11:\n      sload(0x01)\n      dup2\n      jump\t// out\n        /* \"contracts/demo2.sol\":185:315  function getData(uint _offst, bytes memory _input) public view returns(uint) {\r... */\n    tag_17:\n        /* \"contracts/demo2.sol\":256:260  uint */\n      0x00\n        /* \"contracts/demo2.sol\":279:308  getStringSize(_offst, _input) */\n      tag_27\n        /* \"contracts/demo2.sol\":293:299  _offst */\n      dup4\n        /* \"contracts/demo2.sol\":301:307  _input */\n      dup4\n        /* \"contracts/demo2.sol\":279:292  getStringSize */\n      tag_28\n        /* \"contracts/demo2.sol\":279:308  getStringSize(_offst, _input) */\n      jump\t// in\n    tag_27:\n        /* \"contracts/demo2.sol\":272:308  return getStringSize(_offst, _input) */\n      swap1\n      pop\n        /* \"contracts/demo2.sol\":185:315  function getData(uint _offst, bytes memory _input) public view returns(uint) {\r... */\n      swap3\n      swap2\n      pop\n      pop\n      jump\t// out\n        /* \"contracts/demo2.sol\":326:842  function getStringSize(uint _offst, bytes memory _input) internal pure returns(uint size) {\r... */\n    tag_28:\n        /* \"contracts/demo2.sol\":405:414  uint size */\n      0x00\n        /* \"contracts/demo2.sol\":499:505  _offst */\n      dup3\n        /* \"contracts/demo2.sol\":492:498  _input */\n      dup3\n        /* \"contracts/demo2.sol\":488:506  add(_input,_offst) */\n      add\n        /* \"contracts/demo2.sol\":482:507  mload(add(_input,_offst)) */\n      mload\n        /* \"contracts/demo2.sol\":474:507  size := mload(add(_input,_offst)) */\n      swap1\n      pop\n        /* \"contracts/demo2.sol\":557:558  1 */\n      0x01\n        /* \"contracts/demo2.sol\":553:555  32 */\n      0x20\n        /* \"contracts/demo2.sol\":548:552  size */\n      dup3\n        /* \"contracts/demo2.sol\":544:556  div(size,32) */\n      div\n        /* \"contracts/demo2.sol\":540:559  add(div(size,32),1) */\n      add\n        /* \"contracts/demo2.sol\":635:636  0 */\n      0x00\n        /* \"contracts/demo2.sol\":631:633  32 */\n      0x20\n        /* \"contracts/demo2.sol\":626:630  size */\n      dup4\n        /* \"contracts/demo2.sol\":622:634  mod(size,32) */\n      mod\n        /* \"contracts/demo2.sol\":619:637  gt(mod(size,32),0) */\n      gt\n        /* \"contracts/demo2.sol\":616:722  if gt(mod(size,32),0) {// if size%32 > 0\r... */\n      iszero\n      tag_30\n      jumpi\n        /* \"contracts/demo2.sol\":705:706  1 */\n      0x01\n        /* \"contracts/demo2.sol\":693:704  chunk_count */\n      dup2\n        /* \"contracts/demo2.sol\":689:707  add(chunk_count,1) */\n      add\n        /* \"contracts/demo2.sol\":674:707  chunk_count := add(chunk_count,1) */\n      swap1\n      pop\n        /* \"contracts/demo2.sol\":616:722  if gt(mod(size,32),0) {// if size%32 > 0\r... */\n    tag_30:\n        /* \"contracts/demo2.sol\":776:778  32 */\n      0x20\n        /* \"contracts/demo2.sol\":764:775  chunk_count */\n      dup2\n        /* \"contracts/demo2.sol\":760:779  mul(chunk_count,32) */\n      mul\n        /* \"contracts/demo2.sol\":752:779  size := mul(chunk_count,32) */\n      swap2\n      pop\n        /* \"contracts/demo2.sol\":445:835  {\r... */\n      pop\n        /* \"contracts/demo2.sol\":326:842  function getStringSize(uint _offst, bytes memory _input) internal pure returns(uint size) {\r... */\n      swap3\n      swap2\n      pop\n      pop\n      jump\t// out\n        /* \"#utility.yul\":7:417   */\n    tag_32:\n        /* \"#utility.yul\":84:89   */\n      0x00\n        /* \"#utility.yul\":109:174   */\n      tag_34\n        /* \"#utility.yul\":125:173   */\n      tag_35\n        /* \"#utility.yul\":166:172   */\n      dup5\n        /* \"#utility.yul\":125:173   */\n      tag_36\n      jump\t// in\n    tag_35:\n        /* \"#utility.yul\":109:174   */\n      tag_37\n      jump\t// in\n    tag_34:\n        /* \"#utility.yul\":100:174   */\n      swap1\n      pop\n        /* \"#utility.yul\":197:203   */\n      dup3\n        /* \"#utility.yul\":190:195   */\n      dup2\n        /* \"#utility.yul\":183:204   */\n      mstore\n        /* \"#utility.yul\":235:239   */\n      0x20\n        /* \"#utility.yul\":228:233   */\n      dup2\n        /* \"#utility.yul\":224:240   */\n      add\n        /* \"#utility.yul\":273:276   */\n      dup5\n        /* \"#utility.yul\":264:270   */\n      dup5\n        /* \"#utility.yul\":259:262   */\n      dup5\n        /* \"#utility.yul\":255:271   */\n      add\n        /* \"#utility.yul\":252:277   */\n      gt\n        /* \"#utility.yul\":249:361   */\n      iszero\n      tag_38\n      jumpi\n        /* \"#utility.yul\":280:359   */\n      tag_39\n      tag_40\n      jump\t// in\n    tag_39:\n        /* \"#utility.yul\":249:361   */\n    tag_38:\n        /* \"#utility.yul\":370:411   */\n      tag_41\n        /* \"#utility.yul\":404:410   */\n      dup5\n        /* \"#utility.yul\":399:402   */\n      dup3\n        /* \"#utility.yul\":394:397   */\n      dup6\n        /* \"#utility.yul\":370:411   */\n      tag_42\n      jump\t// in\n    tag_41:\n        /* \"#utility.yul\":90:417   */\n      pop\n        /* \"#utility.yul\":7:417   */\n      swap4\n      swap3\n      pop\n      pop\n      pop\n      jump\t// out\n        /* \"#utility.yul\":436:774   */\n    tag_43:\n        /* \"#utility.yul\":491:496   */\n      0x00\n        /* \"#utility.yul\":540:543   */\n      dup3\n        /* \"#utility.yul\":533:537   */\n      0x1f\n        /* \"#utility.yul\":525:531   */\n      dup4\n        /* \"#utility.yul\":521:538   */\n      add\n        /* \"#utility.yul\":517:544   */\n      slt\n        /* \"#utility.yul\":507:629   */\n      tag_45\n      jumpi\n        /* \"#utility.yul\":548:627   */\n      tag_46\n      tag_47\n      jump\t// in\n    tag_46:\n        /* \"#utility.yul\":507:629   */\n    tag_45:\n        /* \"#utility.yul\":665:671   */\n      dup2\n        /* \"#utility.yul\":652:672   */\n      calldataload\n        /* \"#utility.yul\":690:768   */\n      tag_48\n        /* \"#utility.yul\":764:767   */\n      dup5\n        /* \"#utility.yul\":756:762   */\n      dup3\n        /* \"#utility.yul\":749:753   */\n      0x20\n        /* \"#utility.yul\":741:747   */\n      dup7\n        /* \"#utility.yul\":737:754   */\n      add\n        /* \"#utility.yul\":690:768   */\n      tag_32\n      jump\t// in\n    tag_48:\n        /* \"#utility.yul\":681:768   */\n      swap2\n      pop\n        /* \"#utility.yul\":497:774   */\n      pop\n        /* \"#utility.yul\":436:774   */\n      swap3\n      swap2\n      pop\n      pop\n      jump\t// out\n        /* \"#utility.yul\":780:919   */\n    tag_49:\n        /* \"#utility.yul\":826:831   */\n      0x00\n        /* \"#utility.yul\":864:870   */\n      dup2\n        /* \"#utility.yul\":851:871   */\n      calldataload\n        /* \"#utility.yul\":842:871   */\n      swap1\n      pop\n        /* \"#utility.yul\":880:913   */\n      tag_51\n        /* \"#utility.yul\":907:912   */\n      dup2\n        /* \"#utility.yul\":880:913   */\n      tag_52\n      jump\t// in\n    tag_51:\n        /* \"#utility.yul\":780:919   */\n      swap3\n      swap2\n      pop\n      pop\n      jump\t// out\n        /* \"#utility.yul\":925:1577   */\n    tag_16:\n        /* \"#utility.yul\":1002:1008   */\n      0x00\n        /* \"#utility.yul\":1010:1016   */\n      dup1\n        /* \"#utility.yul\":1059:1061   */\n      0x40\n        /* \"#utility.yul\":1047:1056   */\n      dup4\n        /* \"#utility.yul\":1038:1045   */\n      dup6\n        /* \"#utility.yul\":1034:1057   */\n      sub\n        /* \"#utility.yul\":1030:1062   */\n      slt\n        /* \"#utility.yul\":1027:1146   */\n      iszero\n      tag_54\n      jumpi\n        /* \"#utility.yul\":1065:1144   */\n      tag_55\n      tag_56\n      jump\t// in\n    tag_55:\n        /* \"#utility.yul\":1027:1146   */\n    tag_54:\n        /* \"#utility.yul\":1185:1186   */\n      0x00\n        /* \"#utility.yul\":1210:1263   */\n      tag_57\n        /* \"#utility.yul\":1255:1262   */\n      dup6\n        /* \"#utility.yul\":1246:1252   */\n      dup3\n        /* \"#utility.yul\":1235:1244   */\n      dup7\n        /* \"#utility.yul\":1231:1253   */\n      add\n        /* \"#utility.yul\":1210:1263   */\n      tag_49\n      jump\t// in\n    tag_57:\n        /* \"#utility.yul\":1200:1263   */\n      swap3\n      pop\n        /* \"#utility.yul\":1156:1273   */\n      pop\n        /* \"#utility.yul\":1340:1342   */\n      0x20\n        /* \"#utility.yul\":1329:1338   */\n      dup4\n        /* \"#utility.yul\":1325:1343   */\n      add\n        /* \"#utility.yul\":1312:1344   */\n      calldataload\n        /* \"#utility.yul\":1371:1389   */\n      0xffffffffffffffff\n        /* \"#utility.yul\":1363:1369   */\n      dup2\n        /* \"#utility.yul\":1360:1390   */\n      gt\n        /* \"#utility.yul\":1357:1474   */\n      iszero\n      tag_58\n      jumpi\n        /* \"#utility.yul\":1393:1472   */\n      tag_59\n      tag_60\n      jump\t// in\n    tag_59:\n        /* \"#utility.yul\":1357:1474   */\n    tag_58:\n        /* \"#utility.yul\":1498:1560   */\n      tag_61\n        /* \"#utility.yul\":1552:1559   */\n      dup6\n        /* \"#utility.yul\":1543:1549   */\n      dup3\n        /* \"#utility.yul\":1532:1541   */\n      dup7\n        /* \"#utility.yul\":1528:1550   */\n      add\n        /* \"#utility.yul\":1498:1560   */\n      tag_43\n      jump\t// in\n    tag_61:\n        /* \"#utility.yul\":1488:1560   */\n      swap2\n      pop\n        /* \"#utility.yul\":1283:1570   */\n      pop\n        /* \"#utility.yul\":925:1577   */\n      swap3\n      pop\n      swap3\n      swap1\n      pop\n      jump\t// out\n        /* \"#utility.yul\":1583:1701   */\n    tag_62:\n        /* \"#utility.yul\":1670:1694   */\n      tag_64\n        /* \"#utility.yul\":1688:1693   */\n      dup2\n        /* \"#utility.yul\":1670:1694   */\n      tag_65\n      jump\t// in\n    tag_64:\n        /* \"#utility.yul\":1665:1668   */\n      dup3\n        /* \"#utility.yul\":1658:1695   */\n      mstore\n        /* \"#utility.yul\":1583:1701   */\n      pop\n      pop\n      jump\t// out\n        /* \"#utility.yul\":1707:2067   */\n    tag_66:\n        /* \"#utility.yul\":1793:1796   */\n      0x00\n        /* \"#utility.yul\":1821:1859   */\n      tag_68\n        /* \"#utility.yul\":1853:1858   */\n      dup3\n        /* \"#utility.yul\":1821:1859   */\n      tag_69\n      jump\t// in\n    tag_68:\n        /* \"#utility.yul\":1875:1945   */\n      tag_70\n        /* \"#utility.yul\":1938:1944   */\n      dup2\n        /* \"#utility.yul\":1933:1936   */\n      dup6\n        /* \"#utility.yul\":1875:1945   */\n      tag_71\n      jump\t// in\n    tag_70:\n        /* \"#utility.yul\":1868:1945   */\n      swap4\n      pop\n        /* \"#utility.yul\":1954:2006   */\n      tag_72\n        /* \"#utility.yul\":1999:2005   */\n      dup2\n        /* \"#utility.yul\":1994:1997   */\n      dup6\n        /* \"#utility.yul\":1987:1991   */\n      0x20\n        /* \"#utility.yul\":1980:1985   */\n      dup7\n        /* \"#utility.yul\":1976:1992   */\n      add\n        /* \"#utility.yul\":1954:2006   */\n      tag_73\n      jump\t// in\n    tag_72:\n        /* \"#utility.yul\":2031:2060   */\n      tag_74\n        /* \"#utility.yul\":2053:2059   */\n      dup2\n        /* \"#utility.yul\":2031:2060   */\n      tag_75\n      jump\t// in\n    tag_74:\n        /* \"#utility.yul\":2026:2029   */\n      dup5\n        /* \"#utility.yul\":2022:2061   */\n      add\n        /* \"#utility.yul\":2015:2061   */\n      swap2\n      pop\n        /* \"#utility.yul\":1797:2067   */\n      pop\n        /* \"#utility.yul\":1707:2067   */\n      swap3\n      swap2\n      pop\n      pop\n      jump\t// out\n        /* \"#utility.yul\":2073:2191   */\n    tag_76:\n        /* \"#utility.yul\":2160:2184   */\n      tag_78\n        /* \"#utility.yul\":2178:2183   */\n      dup2\n        /* \"#utility.yul\":2160:2184   */\n      tag_79\n      jump\t// in\n    tag_78:\n        /* \"#utility.yul\":2155:2158   */\n      dup3\n        /* \"#utility.yul\":2148:2185   */\n      mstore\n        /* \"#utility.yul\":2073:2191   */\n      pop\n      pop\n      jump\t// out\n        /* \"#utility.yul\":2197:2419   */\n    tag_13:\n        /* \"#utility.yul\":2290:2294   */\n      0x00\n        /* \"#utility.yul\":2328:2330   */\n      0x20\n        /* \"#utility.yul\":2317:2326   */\n      dup3\n        /* \"#utility.yul\":2313:2331   */\n      add\n        /* \"#utility.yul\":2305:2331   */\n      swap1\n      pop\n        /* \"#utility.yul\":2341:2412   */\n      tag_81\n        /* \"#utility.yul\":2409:2410   */\n      0x00\n        /* \"#utility.yul\":2398:2407   */\n      dup4\n        /* \"#utility.yul\":2394:2411   */\n      add\n        /* \"#utility.yul\":2385:2391   */\n      dup5\n        /* \"#utility.yul\":2341:2412   */\n      tag_62\n      jump\t// in\n    tag_81:\n        /* \"#utility.yul\":2197:2419   */\n      swap3\n      swap2\n      pop\n      pop\n      jump\t// out\n        /* \"#utility.yul\":2425:2734   */\n    tag_9:\n        /* \"#utility.yul\":2536:2540   */\n      0x00\n        /* \"#utility.yul\":2574:2576   */\n      0x20\n        /* \"#utility.yul\":2563:2572   */\n      dup3\n        /* \"#utility.yul\":2559:2577   */\n      add\n        /* \"#utility.yul\":2551:2577   */\n      swap1\n      pop\n        /* \"#utility.yul\":2623:2632   */\n      dup2\n        /* \"#utility.yul\":2617:2621   */\n      dup2\n        /* \"#utility.yul\":2613:2633   */\n      sub\n        /* \"#utility.yul\":2609:2610   */\n      0x00\n        /* \"#utility.yul\":2598:2607   */\n      dup4\n        /* \"#utility.yul\":2594:2611   */\n      add\n        /* \"#utility.yul\":2587:2634   */\n      mstore\n        /* \"#utility.yul\":2651:2727   */\n      tag_83\n        /* \"#utility.yul\":2722:2726   */\n      dup2\n        /* \"#utility.yul\":2713:2719   */\n      dup5\n        /* \"#utility.yul\":2651:2727   */\n      tag_66\n      jump\t// in\n    tag_83:\n        /* \"#utility.yul\":2643:2727   */\n      swap1\n      pop\n        /* \"#utility.yul\":2425:2734   */\n      swap3\n      swap2\n      pop\n      pop\n      jump\t// out\n        /* \"#utility.yul\":2740:2962   */\n    tag_19:\n        /* \"#utility.yul\":2833:2837   */\n      0x00\n        /* \"#utility.yul\":2871:2873   */\n      0x20\n        /* \"#utility.yul\":2860:2869   */\n      dup3\n        /* \"#utility.yul\":2856:2874   */\n      add\n        /* \"#utility.yul\":2848:2874   */\n      swap1\n      pop\n        /* \"#utility.yul\":2884:2955   */\n      tag_85\n        /* \"#utility.yul\":2952:2953   */\n      0x00\n        /* \"#utility.yul\":2941:2950   */\n      dup4\n        /* \"#utility.yul\":2937:2954   */\n      add\n        /* \"#utility.yul\":2928:2934   */\n      dup5\n        /* \"#utility.yul\":2884:2955   */\n      tag_76\n      jump\t// in\n    tag_85:\n        /* \"#utility.yul\":2740:2962   */\n      swap3\n      swap2\n      pop\n      pop\n      jump\t// out\n        /* \"#utility.yul\":2968:3097   */\n    tag_37:\n        /* \"#utility.yul\":3002:3008   */\n      0x00\n        /* \"#utility.yul\":3029:3049   */\n      tag_87\n      tag_88\n      jump\t// in\n    tag_87:\n        /* \"#utility.yul\":3019:3049   */\n      swap1\n      pop\n        /* \"#utility.yul\":3058:3091   */\n      tag_89\n        /* \"#utility.yul\":3086:3090   */\n      dup3\n        /* \"#utility.yul\":3078:3084   */\n      dup3\n        /* \"#utility.yul\":3058:3091   */\n      tag_90\n      jump\t// in\n    tag_89:\n        /* \"#utility.yul\":2968:3097   */\n      swap2\n      swap1\n      pop\n      jump\t// out\n        /* \"#utility.yul\":3103:3178   */\n    tag_88:\n        /* \"#utility.yul\":3136:3142   */\n      0x00\n        /* \"#utility.yul\":3169:3171   */\n      0x40\n        /* \"#utility.yul\":3163:3172   */\n      mload\n        /* \"#utility.yul\":3153:3172   */\n      swap1\n      pop\n        /* \"#utility.yul\":3103:3178   */\n      swap1\n      jump\t// out\n        /* \"#utility.yul\":3184:3491   */\n    tag_36:\n        /* \"#utility.yul\":3245:3249   */\n      0x00\n        /* \"#utility.yul\":3335:3353   */\n      0xffffffffffffffff\n        /* \"#utility.yul\":3327:3333   */\n      dup3\n        /* \"#utility.yul\":3324:3354   */\n      gt\n        /* \"#utility.yul\":3321:3377   */\n      iszero\n      tag_93\n      jumpi\n        /* \"#utility.yul\":3357:3375   */\n      tag_94\n      tag_95\n      jump\t// in\n    tag_94:\n        /* \"#utility.yul\":3321:3377   */\n    tag_93:\n        /* \"#utility.yul\":3395:3424   */\n      tag_96\n        /* \"#utility.yul\":3417:3423   */\n      dup3\n        /* \"#utility.yul\":3395:3424   */\n      tag_75\n      jump\t// in\n    tag_96:\n        /* \"#utility.yul\":3387:3424   */\n      swap1\n      pop\n        /* \"#utility.yul\":3479:3483   */\n      0x20\n        /* \"#utility.yul\":3473:3477   */\n      dup2\n        /* \"#utility.yul\":3469:3484   */\n      add\n        /* \"#utility.yul\":3461:3484   */\n      swap1\n      pop\n        /* \"#utility.yul\":3184:3491   */\n      swap2\n      swap1\n      pop\n      jump\t// out\n        /* \"#utility.yul\":3497:3595   */\n    tag_69:\n        /* \"#utility.yul\":3548:3554   */\n      0x00\n        /* \"#utility.yul\":3582:3587   */\n      dup2\n        /* \"#utility.yul\":3576:3588   */\n      mload\n        /* \"#utility.yul\":3566:3588   */\n      swap1\n      pop\n        /* \"#utility.yul\":3497:3595   */\n      swap2\n      swap1\n      pop\n      jump\t// out\n        /* \"#utility.yul\":3601:3769   */\n    tag_71:\n        /* \"#utility.yul\":3684:3695   */\n      0x00\n        /* \"#utility.yul\":3718:3724   */\n      dup3\n        /* \"#utility.yul\":3713:3716   */\n      dup3\n        /* \"#utility.yul\":3706:3725   */\n      mstore\n        /* \"#utility.yul\":3758:3762   */\n      0x20\n        /* \"#utility.yul\":3753:3756   */\n      dup3\n        /* \"#utility.yul\":3749:3763   */\n      add\n        /* \"#utility.yul\":3734:3763   */\n      swap1\n      pop\n        /* \"#utility.yul\":3601:3769   */\n      swap3\n      swap2\n      pop\n      pop\n      jump\t// out\n        /* \"#utility.yul\":3775:3852   */\n    tag_65:\n        /* \"#utility.yul\":3812:3819   */\n      0x00\n        /* \"#utility.yul\":3841:3846   */\n      dup2\n        /* \"#utility.yul\":3830:3846   */\n      swap1\n      pop\n        /* \"#utility.yul\":3775:3852   */\n      swap2\n      swap1\n      pop\n      jump\t// out\n        /* \"#utility.yul\":3858:3935   */\n    tag_79:\n        /* \"#utility.yul\":3895:3902   */\n      0x00\n        /* \"#utility.yul\":3924:3929   */\n      dup2\n        /* \"#utility.yul\":3913:3929   */\n      swap1\n      pop\n        /* \"#utility.yul\":3858:3935   */\n      swap2\n      swap1\n      pop\n      jump\t// out\n        /* \"#utility.yul\":3941:4095   */\n    tag_42:\n        /* \"#utility.yul\":4025:4031   */\n      dup3\n        /* \"#utility.yul\":4020:4023   */\n      dup2\n        /* \"#utility.yul\":4015:4018   */\n      dup4\n        /* \"#utility.yul\":4002:4032   */\n      calldatacopy\n        /* \"#utility.yul\":4087:4088   */\n      0x00\n        /* \"#utility.yul\":4078:4084   */\n      dup4\n        /* \"#utility.yul\":4073:4076   */\n      dup4\n        /* \"#utility.yul\":4069:4085   */\n      add\n        /* \"#utility.yul\":4062:4089   */\n      mstore\n        /* \"#utility.yul\":3941:4095   */\n      pop\n      pop\n      pop\n      jump\t// out\n        /* \"#utility.yul\":4101:4408   */\n    tag_73:\n        /* \"#utility.yul\":4169:4170   */\n      0x00\n        /* \"#utility.yul\":4179:4292   */\n    tag_103:\n        /* \"#utility.yul\":4193:4199   */\n      dup4\n        /* \"#utility.yul\":4190:4191   */\n      dup2\n        /* \"#utility.yul\":4187:4200   */\n      lt\n        /* \"#utility.yul\":4179:4292   */\n      iszero\n      tag_105\n      jumpi\n        /* \"#utility.yul\":4278:4279   */\n      dup1\n        /* \"#utility.yul\":4273:4276   */\n      dup3\n        /* \"#utility.yul\":4269:4280   */\n      add\n        /* \"#utility.yul\":4263:4281   */\n      mload\n        /* \"#utility.yul\":4259:4260   */\n      dup2\n        /* \"#utility.yul\":4254:4257   */\n      dup5\n        /* \"#utility.yul\":4250:4261   */\n      add\n        /* \"#utility.yul\":4243:4282   */\n      mstore\n        /* \"#utility.yul\":4215:4217   */\n      0x20\n        /* \"#utility.yul\":4212:4213   */\n      dup2\n        /* \"#utility.yul\":4208:4218   */\n      add\n        /* \"#utility.yul\":4203:4218   */\n      swap1\n      pop\n        /* \"#utility.yul\":4179:4292   */\n      jump(tag_103)\n    tag_105:\n        /* \"#utility.yul\":4310:4316   */\n      dup4\n        /* \"#utility.yul\":4307:4308   */\n      dup2\n        /* \"#utility.yul\":4304:4317   */\n      gt\n        /* \"#utility.yul\":4301:4402   */\n      iszero\n      tag_106\n      jumpi\n        /* \"#utility.yul\":4390:4391   */\n      0x00\n        /* \"#utility.yul\":4381:4387   */\n      dup5\n        /* \"#utility.yul\":4376:4379   */\n      dup5\n        /* \"#utility.yul\":4372:4388   */\n      add\n        /* \"#utility.yul\":4365:4392   */\n      mstore\n        /* \"#utility.yul\":4301:4402   */\n    tag_106:\n        /* \"#utility.yul\":4150:4408   */\n      pop\n        /* \"#utility.yul\":4101:4408   */\n      pop\n      pop\n      pop\n      jump\t// out\n        /* \"#utility.yul\":4414:4734   */\n    tag_21:\n        /* \"#utility.yul\":4458:4464   */\n      0x00\n        /* \"#utility.yul\":4495:4496   */\n      0x02\n        /* \"#utility.yul\":4489:4493   */\n      dup3\n        /* \"#utility.yul\":4485:4497   */\n      div\n        /* \"#utility.yul\":4475:4497   */\n      swap1\n      pop\n        /* \"#utility.yul\":4542:4543   */\n      0x01\n        /* \"#utility.yul\":4536:4540   */\n      dup3\n        /* \"#utility.yul\":4532:4544   */\n      and\n        /* \"#utility.yul\":4563:4581   */\n      dup1\n        /* \"#utility.yul\":4553:4634   */\n      tag_108\n      jumpi\n        /* \"#utility.yul\":4619:4623   */\n      0x7f\n        /* \"#utility.yul\":4611:4617   */\n      dup3\n        /* \"#utility.yul\":4607:4624   */\n      and\n        /* \"#utility.yul\":4597:4624   */\n      swap2\n      pop\n        /* \"#utility.yul\":4553:4634   */\n    tag_108:\n        /* \"#utility.yul\":4681:4683   */\n      0x20\n        /* \"#utility.yul\":4673:4679   */\n      dup3\n        /* \"#utility.yul\":4670:4684   */\n      lt\n        /* \"#utility.yul\":4650:4668   */\n      dup2\n        /* \"#utility.yul\":4647:4685   */\n      eq\n        /* \"#utility.yul\":4644:4728   */\n      iszero\n      tag_109\n      jumpi\n        /* \"#utility.yul\":4700:4718   */\n      tag_110\n      tag_111\n      jump\t// in\n    tag_110:\n        /* \"#utility.yul\":4644:4728   */\n    tag_109:\n        /* \"#utility.yul\":4465:4734   */\n      pop\n        /* \"#utility.yul\":4414:4734   */\n      swap2\n      swap1\n      pop\n      jump\t// out\n        /* \"#utility.yul\":4740:5021   */\n    tag_90:\n        /* \"#utility.yul\":4823:4850   */\n      tag_113\n        /* \"#utility.yul\":4845:4849   */\n      dup3\n        /* \"#utility.yul\":4823:4850   */\n      tag_75\n      jump\t// in\n    tag_113:\n        /* \"#utility.yul\":4815:4821   */\n      dup2\n        /* \"#utility.yul\":4811:4851   */\n      add\n        /* \"#utility.yul\":4953:4959   */\n      dup2\n        /* \"#utility.yul\":4941:4951   */\n      dup2\n        /* \"#utility.yul\":4938:4960   */\n      lt\n        /* \"#utility.yul\":4917:4935   */\n      0xffffffffffffffff\n        /* \"#utility.yul\":4905:4915   */\n      dup3\n        /* \"#utility.yul\":4902:4936   */\n      gt\n        /* \"#utility.yul\":4899:4961   */\n      or\n        /* \"#utility.yul\":4896:4984   */\n      iszero\n      tag_114\n      jumpi\n        /* \"#utility.yul\":4964:4982   */\n      tag_115\n      tag_95\n      jump\t// in\n    tag_115:\n        /* \"#utility.yul\":4896:4984   */\n    tag_114:\n        /* \"#utility.yul\":5004:5014   */\n      dup1\n        /* \"#utility.yul\":5000:5002   */\n      0x40\n        /* \"#utility.yul\":4993:5015   */\n      mstore\n        /* \"#utility.yul\":4783:5021   */\n      pop\n        /* \"#utility.yul\":4740:5021   */\n      pop\n      pop\n      jump\t// out\n        /* \"#utility.yul\":5027:5207   */\n    tag_111:\n        /* \"#utility.yul\":5075:5152   */\n      0x4e487b7100000000000000000000000000000000000000000000000000000000\n        /* \"#utility.yul\":5072:5073   */\n      0x00\n        /* \"#utility.yul\":5065:5153   */\n      mstore\n        /* \"#utility.yul\":5172:5176   */\n      0x22\n        /* \"#utility.yul\":5169:5170   */\n      0x04\n        /* \"#utility.yul\":5162:5177   */\n      mstore\n        /* \"#utility.yul\":5196:5200   */\n      0x24\n        /* \"#utility.yul\":5193:5194   */\n      0x00\n        /* \"#utility.yul\":5186:5201   */\n      revert\n        /* \"#utility.yul\":5213:5393   */\n    tag_95:\n        /* \"#utility.yul\":5261:5338   */\n      0x4e487b7100000000000000000000000000000000000000000000000000000000\n        /* \"#utility.yul\":5258:5259   */\n      0x00\n        /* \"#utility.yul\":5251:5339   */\n      mstore\n        /* \"#utility.yul\":5358:5362   */\n      0x41\n        /* \"#utility.yul\":5355:5356   */\n      0x04\n        /* \"#utility.yul\":5348:5363   */\n      mstore\n        /* \"#utility.yul\":5382:5386   */\n      0x24\n        /* \"#utility.yul\":5379:5380   */\n      0x00\n        /* \"#utility.yul\":5372:5387   */\n      revert\n        /* \"#utility.yul\":5399:5516   */\n    tag_47:\n        /* \"#utility.yul\":5508:5509   */\n      0x00\n        /* \"#utility.yul\":5505:5506   */\n      dup1\n        /* \"#utility.yul\":5498:5510   */\n      revert\n        /* \"#utility.yul\":5522:5639   */\n    tag_40:\n        /* \"#utility.yul\":5631:5632   */\n      0x00\n        /* \"#utility.yul\":5628:5629   */\n      dup1\n        /* \"#utility.yul\":5621:5633   */\n      revert\n        /* \"#utility.yul\":5645:5762   */\n    tag_60:\n        /* \"#utility.yul\":5754:5755   */\n      0x00\n        /* \"#utility.yul\":5751:5752   */\n      dup1\n        /* \"#utility.yul\":5744:5756   */\n      revert\n        /* \"#utility.yul\":5768:5885   */\n    tag_56:\n        /* \"#utility.yul\":5877:5878   */\n      0x00\n        /* \"#utility.yul\":5874:5875   */\n      dup1\n        /* \"#utility.yul\":5867:5879   */\n      revert\n        /* \"#utility.yul\":5891:5993   */\n    tag_75:\n        /* \"#utility.yul\":5932:5938   */\n      0x00\n        /* \"#utility.yul\":5983:5985   */\n      0x1f\n        /* \"#utility.yul\":5979:5986   */\n      not\n        /* \"#utility.yul\":5974:5976   */\n      0x1f\n        /* \"#utility.yul\":5967:5972   */\n      dup4\n        /* \"#utility.yul\":5963:5977   */\n      add\n        /* \"#utility.yul\":5959:5987   */\n      and\n        /* \"#utility.yul\":5949:5987   */\n      swap1\n      pop\n        /* \"#utility.yul\":5891:5993   */\n      swap2\n      swap1\n      pop\n      jump\t// out\n        /* \"#utility.yul\":5999:6121   */\n    tag_52:\n        /* \"#utility.yul\":6072:6096   */\n      tag_124\n        /* \"#utility.yul\":6090:6095   */\n      dup2\n        /* \"#utility.yul\":6072:6096   */\n      tag_79\n      jump\t// in\n    tag_124:\n        /* \"#utility.yul\":6065:6070   */\n      dup2\n        /* \"#utility.yul\":6062:6097   */\n      eq\n        /* \"#utility.yul\":6052:6115   */\n      tag_125\n      jumpi\n        /* \"#utility.yul\":6111:6112   */\n      0x00\n        /* \"#utility.yul\":6108:6109   */\n      dup1\n        /* \"#utility.yul\":6101:6113   */\n      revert\n        /* \"#utility.yul\":6052:6115   */\n    tag_125:\n        /* \"#utility.yul\":5999:6121   */\n      pop\n      jump\t// out\n\n    auxdata: 0xa264697066735822122085974a31ee8ab3d235787bef6fdb8fdfb7df086913eea365cf3d73ff36aca4de64736f6c63430008070033\n}\n",
				"bytecode": {
					"linkReferences": {},
					"object": "60806040526040518060600160405280602e8152602001610690602e913960009080519060200190610032929190610069565b507f4c45484f4e47564f776a6e66766a3377656838764b4a0000000000000000000060015534801561006357600080fd5b5061016d565b8280546100759061010c565b90600052602060002090601f01602090048101928261009757600085556100de565b82601f106100b057805160ff19168380011785556100de565b828001600101855582156100de579182015b828111156100dd5782518255916020019190600101906100c2565b5b5090506100eb91906100ef565b5090565b5b808211156101085760008160009055506001016100f0565b5090565b6000600282049050600182168061012457607f821691505b602082108114156101385761013761013e565b5b50919050565b7f4e487b7100000000000000000000000000000000000000000000000000000000600052602260045260246000fd5b6105148061017c6000396000f3fe608060405234801561001057600080fd5b50600436106100415760003560e01c80639ffd85c414610046578063e3a7fd7514610064578063e5b935b214610082575b600080fd5b61004e6100b2565b60405161005b91906102dc565b60405180910390f35b61006c610140565b60405161007991906102c1565b60405180910390f35b61009c6004803603810190610097919061020e565b610146565b6040516100a991906102fe565b60405180910390f35b600080546100bf906103e1565b80601f01602080910402602001604051908101604052809291908181526020018280546100eb906103e1565b80156101385780601f1061010d57610100808354040283529160200191610138565b820191906000526020600020905b81548152906001019060200180831161011b57829003601f168201915b505050505081565b60015481565b6000610152838361015a565b905092915050565b600082820151905060016020820401600060208306111561017c576001810190505b6020810291505092915050565b600061019c6101978461033e565b610319565b9050828152602081018484840111156101b8576101b76104a7565b5b6101c384828561039f565b509392505050565b600082601f8301126101e0576101df6104a2565b5b81356101f0848260208601610189565b91505092915050565b600081359050610208816104c7565b92915050565b60008060408385031215610225576102246104b1565b5b6000610233858286016101f9565b925050602083013567ffffffffffffffff811115610254576102536104ac565b5b610260858286016101cb565b9150509250929050565b6102738161038b565b82525050565b60006102848261036f565b61028e818561037a565b935061029e8185602086016103ae565b6102a7816104b6565b840191505092915050565b6102bb81610395565b82525050565b60006020820190506102d6600083018461026a565b92915050565b600060208201905081810360008301526102f68184610279565b905092915050565b600060208201905061031360008301846102b2565b92915050565b6000610323610334565b905061032f8282610413565b919050565b6000604051905090565b600067ffffffffffffffff82111561035957610358610473565b5b610362826104b6565b9050602081019050919050565b600081519050919050565b600082825260208201905092915050565b6000819050919050565b6000819050919050565b82818337600083830152505050565b60005b838110156103cc5780820151818401526020810190506103b1565b838111156103db576000848401525b50505050565b600060028204905060018216806103f957607f821691505b6020821081141561040d5761040c610444565b5b50919050565b61041c826104b6565b810181811067ffffffffffffffff8211171561043b5761043a610473565b5b80604052505050565b7f4e487b7100000000000000000000000000000000000000000000000000000000600052602260045260246000fd5b7f4e487b7100000000000000000000000000000000000000000000000000000000600052604160045260246000fd5b600080fd5b600080fd5b600080fd5b600080fd5b6000601f19601f8301169050919050565b6104d081610395565b81146104db57600080fd5b5056fea264697066735822122085974a31ee8ab3d235787bef6fdb8fdfb7df086913eea365cf3d73ff36aca4de64736f6c634300080700334e414c4548484a534744534447484a534448535548444a5348444a53484a53484a534844534a44484a4f4e47564f",
					"opcodes": "PUSH1 0x80 PUSH1 0x40 MSTORE PUSH1 0x40 MLOAD DUP1 PUSH1 0x60 ADD PUSH1 0x40 MSTORE DUP1 PUSH1 0x2E DUP2 MSTORE PUSH1 0x20 ADD PUSH2 0x690 PUSH1 0x2E SWAP2 CODECOPY PUSH1 0x0 SWAP1 DUP1 MLOAD SWAP1 PUSH1 0x20 ADD SWAP1 PUSH2 0x32 SWAP3 SWAP2 SWAP1 PUSH2 0x69 JUMP JUMPDEST POP PUSH32 0x4C45484F4E47564F776A6E66766A3377656838764B4A00000000000000000000 PUSH1 0x1 SSTORE CALLVALUE DUP1 ISZERO PUSH2 0x63 JUMPI PUSH1 0x0 DUP1 REVERT JUMPDEST POP PUSH2 0x16D JUMP JUMPDEST DUP3 DUP1 SLOAD PUSH2 0x75 SWAP1 PUSH2 0x10C JUMP JUMPDEST SWAP1 PUSH1 0x0 MSTORE PUSH1 0x20 PUSH1 0x0 KECCAK256 SWAP1 PUSH1 0x1F ADD PUSH1 0x20 SWAP1 DIV DUP2 ADD SWAP3 DUP3 PUSH2 0x97 JUMPI PUSH1 0x0 DUP6 SSTORE PUSH2 0xDE JUMP JUMPDEST DUP3 PUSH1 0x1F LT PUSH2 0xB0 JUMPI DUP1 MLOAD PUSH1 0xFF NOT AND DUP4 DUP1 ADD OR DUP6 SSTORE PUSH2 0xDE JUMP JUMPDEST DUP3 DUP1 ADD PUSH1 0x1 ADD DUP6 SSTORE DUP3 ISZERO PUSH2 0xDE JUMPI SWAP2 DUP3 ADD JUMPDEST DUP3 DUP2 GT ISZERO PUSH2 0xDD JUMPI DUP3 MLOAD DUP3 SSTORE SWAP2 PUSH1 0x20 ADD SWAP2 SWAP1 PUSH1 0x1 ADD SWAP1 PUSH2 0xC2 JUMP JUMPDEST JUMPDEST POP SWAP1 POP PUSH2 0xEB SWAP2 SWAP1 PUSH2 0xEF JUMP JUMPDEST POP SWAP1 JUMP JUMPDEST JUMPDEST DUP1 DUP3 GT ISZERO PUSH2 0x108 JUMPI PUSH1 0x0 DUP2 PUSH1 0x0 SWAP1 SSTORE POP PUSH1 0x1 ADD PUSH2 0xF0 JUMP JUMPDEST POP SWAP1 JUMP JUMPDEST PUSH1 0x0 PUSH1 0x2 DUP3 DIV SWAP1 POP PUSH1 0x1 DUP3 AND DUP1 PUSH2 0x124 JUMPI PUSH1 0x7F DUP3 AND SWAP2 POP JUMPDEST PUSH1 0x20 DUP3 LT DUP2 EQ ISZERO PUSH2 0x138 JUMPI PUSH2 0x137 PUSH2 0x13E JUMP JUMPDEST JUMPDEST POP SWAP2 SWAP1 POP JUMP JUMPDEST PUSH32 0x4E487B7100000000000000000000000000000000000000000000000000000000 PUSH1 0x0 MSTORE PUSH1 0x22 PUSH1 0x4 MSTORE PUSH1 0x24 PUSH1 0x0 REVERT JUMPDEST PUSH2 0x514 DUP1 PUSH2 0x17C PUSH1 0x0 CODECOPY PUSH1 0x0 RETURN INVALID PUSH1 0x80 PUSH1 0x40 MSTORE CALLVALUE DUP1 ISZERO PUSH2 0x10 JUMPI PUSH1 0x0 DUP1 REVERT JUMPDEST POP PUSH1 0x4 CALLDATASIZE LT PUSH2 0x41 JUMPI PUSH1 0x0 CALLDATALOAD PUSH1 0xE0 SHR DUP1 PUSH4 0x9FFD85C4 EQ PUSH2 0x46 JUMPI DUP1 PUSH4 0xE3A7FD75 EQ PUSH2 0x64 JUMPI DUP1 PUSH4 0xE5B935B2 EQ PUSH2 0x82 JUMPI JUMPDEST PUSH1 0x0 DUP1 REVERT JUMPDEST PUSH2 0x4E PUSH2 0xB2 JUMP JUMPDEST PUSH1 0x40 MLOAD PUSH2 0x5B SWAP2 SWAP1 PUSH2 0x2DC JUMP JUMPDEST PUSH1 0x40 MLOAD DUP1 SWAP2 SUB SWAP1 RETURN JUMPDEST PUSH2 0x6C PUSH2 0x140 JUMP JUMPDEST PUSH1 0x40 MLOAD PUSH2 0x79 SWAP2 SWAP1 PUSH2 0x2C1 JUMP JUMPDEST PUSH1 0x40 MLOAD DUP1 SWAP2 SUB SWAP1 RETURN JUMPDEST PUSH2 0x9C PUSH1 0x4 DUP1 CALLDATASIZE SUB DUP2 ADD SWAP1 PUSH2 0x97 SWAP2 SWAP1 PUSH2 0x20E JUMP JUMPDEST PUSH2 0x146 JUMP JUMPDEST PUSH1 0x40 MLOAD PUSH2 0xA9 SWAP2 SWAP1 PUSH2 0x2FE JUMP JUMPDEST PUSH1 0x40 MLOAD DUP1 SWAP2 SUB SWAP1 RETURN JUMPDEST PUSH1 0x0 DUP1 SLOAD PUSH2 0xBF SWAP1 PUSH2 0x3E1 JUMP JUMPDEST DUP1 PUSH1 0x1F ADD PUSH1 0x20 DUP1 SWAP2 DIV MUL PUSH1 0x20 ADD PUSH1 0x40 MLOAD SWAP1 DUP2 ADD PUSH1 0x40 MSTORE DUP1 SWAP3 SWAP2 SWAP1 DUP2 DUP2 MSTORE PUSH1 0x20 ADD DUP3 DUP1 SLOAD PUSH2 0xEB SWAP1 PUSH2 0x3E1 JUMP JUMPDEST DUP1 ISZERO PUSH2 0x138 JUMPI DUP1 PUSH1 0x1F LT PUSH2 0x10D JUMPI PUSH2 0x100 DUP1 DUP4 SLOAD DIV MUL DUP4 MSTORE SWAP2 PUSH1 0x20 ADD SWAP2 PUSH2 0x138 JUMP JUMPDEST DUP3 ADD SWAP2 SWAP1 PUSH1 0x0 MSTORE PUSH1 0x20 PUSH1 0x0 KECCAK256 SWAP1 JUMPDEST DUP2 SLOAD DUP2 MSTORE SWAP1 PUSH1 0x1 ADD SWAP1 PUSH1 0x20 ADD DUP1 DUP4 GT PUSH2 0x11B JUMPI DUP3 SWAP1 SUB PUSH1 0x1F AND DUP3 ADD SWAP2 JUMPDEST POP POP POP POP POP DUP2 JUMP JUMPDEST PUSH1 0x1 SLOAD DUP2 JUMP JUMPDEST PUSH1 0x0 PUSH2 0x152 DUP4 DUP4 PUSH2 0x15A JUMP JUMPDEST SWAP1 POP SWAP3 SWAP2 POP POP JUMP JUMPDEST PUSH1 0x0 DUP3 DUP3 ADD MLOAD SWAP1 POP PUSH1 0x1 PUSH1 0x20 DUP3 DIV ADD PUSH1 0x0 PUSH1 0x20 DUP4 MOD GT ISZERO PUSH2 0x17C JUMPI PUSH1 0x1 DUP2 ADD SWAP1 POP JUMPDEST PUSH1 0x20 DUP2 MUL SWAP2 POP POP SWAP3 SWAP2 POP POP JUMP JUMPDEST PUSH1 0x0 PUSH2 0x19C PUSH2 0x197 DUP5 PUSH2 0x33E JUMP JUMPDEST PUSH2 0x319 JUMP JUMPDEST SWAP1 POP DUP3 DUP2 MSTORE PUSH1 0x20 DUP2 ADD DUP5 DUP5 DUP5 ADD GT ISZERO PUSH2 0x1B8 JUMPI PUSH2 0x1B7 PUSH2 0x4A7 JUMP JUMPDEST JUMPDEST PUSH2 0x1C3 DUP5 DUP3 DUP6 PUSH2 0x39F JUMP JUMPDEST POP SWAP4 SWAP3 POP POP POP JUMP JUMPDEST PUSH1 0x0 DUP3 PUSH1 0x1F DUP4 ADD SLT PUSH2 0x1E0 JUMPI PUSH2 0x1DF PUSH2 0x4A2 JUMP JUMPDEST JUMPDEST DUP2 CALLDATALOAD PUSH2 0x1F0 DUP5 DUP3 PUSH1 0x20 DUP7 ADD PUSH2 0x189 JUMP JUMPDEST SWAP2 POP POP SWAP3 SWAP2 POP POP JUMP JUMPDEST PUSH1 0x0 DUP2 CALLDATALOAD SWAP1 POP PUSH2 0x208 DUP2 PUSH2 0x4C7 JUMP JUMPDEST SWAP3 SWAP2 POP POP JUMP JUMPDEST PUSH1 0x0 DUP1 PUSH1 0x40 DUP4 DUP6 SUB SLT ISZERO PUSH2 0x225 JUMPI PUSH2 0x224 PUSH2 0x4B1 JUMP JUMPDEST JUMPDEST PUSH1 0x0 PUSH2 0x233 DUP6 DUP3 DUP7 ADD PUSH2 0x1F9 JUMP JUMPDEST SWAP3 POP POP PUSH1 0x20 DUP4 ADD CALLDATALOAD PUSH8 0xFFFFFFFFFFFFFFFF DUP2 GT ISZERO PUSH2 0x254 JUMPI PUSH2 0x253 PUSH2 0x4AC JUMP JUMPDEST JUMPDEST PUSH2 0x260 DUP6 DUP3 DUP7 ADD PUSH2 0x1CB JUMP JUMPDEST SWAP2 POP POP SWAP3 POP SWAP3 SWAP1 POP JUMP JUMPDEST PUSH2 0x273 DUP2 PUSH2 0x38B JUMP JUMPDEST DUP3 MSTORE POP POP JUMP JUMPDEST PUSH1 0x0 PUSH2 0x284 DUP3 PUSH2 0x36F JUMP JUMPDEST PUSH2 0x28E DUP2 DUP6 PUSH2 0x37A JUMP JUMPDEST SWAP4 POP PUSH2 0x29E DUP2 DUP6 PUSH1 0x20 DUP7 ADD PUSH2 0x3AE JUMP JUMPDEST PUSH2 0x2A7 DUP2 PUSH2 0x4B6 JUMP JUMPDEST DUP5 ADD SWAP2 POP POP SWAP3 SWAP2 POP POP JUMP JUMPDEST PUSH2 0x2BB DUP2 PUSH2 0x395 JUMP JUMPDEST DUP3 MSTORE POP POP JUMP JUMPDEST PUSH1 0x0 PUSH1 0x20 DUP3 ADD SWAP1 POP PUSH2 0x2D6 PUSH1 0x0 DUP4 ADD DUP5 PUSH2 0x26A JUMP JUMPDEST SWAP3 SWAP2 POP POP JUMP JUMPDEST PUSH1 0x0 PUSH1 0x20 DUP3 ADD SWAP1 POP DUP2 DUP2 SUB PUSH1 0x0 DUP4 ADD MSTORE PUSH2 0x2F6 DUP2 DUP5 PUSH2 0x279 JUMP JUMPDEST SWAP1 POP SWAP3 SWAP2 POP POP JUMP JUMPDEST PUSH1 0x0 PUSH1 0x20 DUP3 ADD SWAP1 POP PUSH2 0x313 PUSH1 0x0 DUP4 ADD DUP5 PUSH2 0x2B2 JUMP JUMPDEST SWAP3 SWAP2 POP POP JUMP JUMPDEST PUSH1 0x0 PUSH2 0x323 PUSH2 0x334 JUMP JUMPDEST SWAP1 POP PUSH2 0x32F DUP3 DUP3 PUSH2 0x413 JUMP JUMPDEST SWAP2 SWAP1 POP JUMP JUMPDEST PUSH1 0x0 PUSH1 0x40 MLOAD SWAP1 POP SWAP1 JUMP JUMPDEST PUSH1 0x0 PUSH8 0xFFFFFFFFFFFFFFFF DUP3 GT ISZERO PUSH2 0x359 JUMPI PUSH2 0x358 PUSH2 0x473 JUMP JUMPDEST JUMPDEST PUSH2 0x362 DUP3 PUSH2 0x4B6 JUMP JUMPDEST SWAP1 POP PUSH1 0x20 DUP2 ADD SWAP1 POP SWAP2 SWAP1 POP JUMP JUMPDEST PUSH1 0x0 DUP2 MLOAD SWAP1 POP SWAP2 SWAP1 POP JUMP JUMPDEST PUSH1 0x0 DUP3 DUP3 MSTORE PUSH1 0x20 DUP3 ADD SWAP1 POP SWAP3 SWAP2 POP POP JUMP JUMPDEST PUSH1 0x0 DUP2 SWAP1 POP SWAP2 SWAP1 POP JUMP JUMPDEST PUSH1 0x0 DUP2 SWAP1 POP SWAP2 SWAP1 POP JUMP JUMPDEST DUP3 DUP2 DUP4 CALLDATACOPY PUSH1 0x0 DUP4 DUP4 ADD MSTORE POP POP POP JUMP JUMPDEST PUSH1 0x0 JUMPDEST DUP4 DUP2 LT ISZERO PUSH2 0x3CC JUMPI DUP1 DUP3 ADD MLOAD DUP2 DUP5 ADD MSTORE PUSH1 0x20 DUP2 ADD SWAP1 POP PUSH2 0x3B1 JUMP JUMPDEST DUP4 DUP2 GT ISZERO PUSH2 0x3DB JUMPI PUSH1 0x0 DUP5 DUP5 ADD MSTORE JUMPDEST POP POP POP POP JUMP JUMPDEST PUSH1 0x0 PUSH1 0x2 DUP3 DIV SWAP1 POP PUSH1 0x1 DUP3 AND DUP1 PUSH2 0x3F9 JUMPI PUSH1 0x7F DUP3 AND SWAP2 POP JUMPDEST PUSH1 0x20 DUP3 LT DUP2 EQ ISZERO PUSH2 0x40D JUMPI PUSH2 0x40C PUSH2 0x444 JUMP JUMPDEST JUMPDEST POP SWAP2 SWAP1 POP JUMP JUMPDEST PUSH2 0x41C DUP3 PUSH2 0x4B6 JUMP JUMPDEST DUP2 ADD DUP2 DUP2 LT PUSH8 0xFFFFFFFFFFFFFFFF DUP3 GT OR ISZERO PUSH2 0x43B JUMPI PUSH2 0x43A PUSH2 0x473 JUMP JUMPDEST JUMPDEST DUP1 PUSH1 0x40 MSTORE POP POP POP JUMP JUMPDEST PUSH32 0x4E487B7100000000000000000000000000000000000000000000000000000000 PUSH1 0x0 MSTORE PUSH1 0x22 PUSH1 0x4 MSTORE PUSH1 0x24 PUSH1 0x0 REVERT JUMPDEST PUSH32 0x4E487B7100000000000000000000000000000000000000000000000000000000 PUSH1 0x0 MSTORE PUSH1 0x41 PUSH1 0x4 MSTORE PUSH1 0x24 PUSH1 0x0 REVERT JUMPDEST PUSH1 0x0 DUP1 REVERT JUMPDEST PUSH1 0x0 DUP1 REVERT JUMPDEST PUSH1 0x0 DUP1 REVERT JUMPDEST PUSH1 0x0 DUP1 REVERT JUMPDEST PUSH1 0x0 PUSH1 0x1F NOT PUSH1 0x1F DUP4 ADD AND SWAP1 POP SWAP2 SWAP1 POP JUMP JUMPDEST PUSH2 0x4D0 DUP2 PUSH2 0x395 JUMP JUMPDEST DUP2 EQ PUSH2 0x4DB JUMPI PUSH1 0x0 DUP1 REVERT JUMPDEST POP JUMP INVALID LOG2 PUSH5 0x6970667358 0x22 SLT KECCAK256 DUP6 SWAP8 0x4A BALANCE 0xEE DUP11 0xB3 0xD2 CALLDATALOAD PUSH25 0x7BEF6FDB8FDFB7DF086913EEA365CF3D73FF36ACA4DE64736F PUSH13 0x634300080700334E414C454848 0x4A MSTORE8 SELFBALANCE DIFFICULTY MSTORE8 DIFFICULTY SELFBALANCE BASEFEE 0x4A MSTORE8 DIFFICULTY BASEFEE MSTORE8 SSTORE BASEFEE DIFFICULTY 0x4A MSTORE8 BASEFEE DIFFICULTY 0x4A MSTORE8 BASEFEE 0x4A MSTORE8 BASEFEE 0x4A MSTORE8 BASEFEE DIFFICULTY MSTORE8 0x4A DIFFICULTY BASEFEE 0x4A 0x4F 0x4E SELFBALANCE JUMP 0x4F "
				},
				"gasEstimates": {
					"creation": {
						"codeDepositCost": "260000",
						"executionCost": "infinite",
						"totalCost": "infinite"
					},
					"external": {
						"data1()": "infinite",
						"data2()": "2429",
						"getData(uint256,bytes)": "infinite"
					},
					"internal": {
						"getStringSize(uint256,bytes memory)": "infinite"
					}
				},
				"methodIdentifiers": {
					"data1()": "9ffd85c4",
					"data2()": "e3a7fd75",
					"getData(uint256,bytes)": "e5b935b2"
				}
			},
			"userdoc": {
				"kind": "user",
				"methods": {},
				"version": 1
			}
		}
	}
}