{
	"contracts/demo2.sol": {
		"demo2": {
			"abi": [
				{
					"inputs": [
						{
							"internalType": "string",
							"name": "_in",
							"type": "string"
						}
					],
					"name": "getData",
					"outputs": [
						{
							"internalType": "uint256",
							"name": "",
							"type": "uint256"
						}
					],
					"stateMutability": "view",
					"type": "function"
				}
			],
			"devdoc": {
				"methods": {}
			},
			"evm": {
				"assembly": "    /* \"contracts/demo2.sol\":69:594  contract demo2 {\r... */\n  mstore(0x40, 0x80)\n  callvalue\n    /* \"--CODEGEN--\":5:14   */\n  dup1\n    /* \"--CODEGEN--\":2:4   */\n  iszero\n  tag_1\n  jumpi\n    /* \"--CODEGEN--\":27:28   */\n  0x00\n    /* \"--CODEGEN--\":24:25   */\n  dup1\n    /* \"--CODEGEN--\":17:29   */\n  revert\n    /* \"--CODEGEN--\":2:4   */\ntag_1:\n    /* \"contracts/demo2.sol\":69:594  contract demo2 {\r... */\n  pop\n  dataSize(sub_0)\n  dup1\n  dataOffset(sub_0)\n  0x00\n  codecopy\n  0x00\n  return\nstop\n\nsub_0: assembly {\n        /* \"contracts/demo2.sol\":69:594  contract demo2 {\r... */\n      mstore(0x40, 0x80)\n      callvalue\n        /* \"--CODEGEN--\":5:14   */\n      dup1\n        /* \"--CODEGEN--\":2:4   */\n      iszero\n      tag_1\n      jumpi\n        /* \"--CODEGEN--\":27:28   */\n      0x00\n        /* \"--CODEGEN--\":24:25   */\n      dup1\n        /* \"--CODEGEN--\":17:29   */\n      revert\n        /* \"--CODEGEN--\":2:4   */\n    tag_1:\n        /* \"contracts/demo2.sol\":69:594  contract demo2 {\r... */\n      pop\n      jumpi(tag_2, lt(calldatasize, 0x04))\n      shr(0xe0, calldataload(0x00))\n      dup1\n      0xae55c888\n      eq\n      tag_3\n      jumpi\n    tag_2:\n        /* \"--CODEGEN--\":12:13   */\n      0x00\n        /* \"--CODEGEN--\":9:10   */\n      dup1\n        /* \"--CODEGEN--\":2:14   */\n      revert\n        /* \"contracts/demo2.sol\":91:195  function getData(string memory _in) public view returns(uint){\r... */\n    tag_3:\n      tag_4\n      0x04\n      dup1\n      calldatasize\n      sub\n      dup2\n      add\n      swap1\n      tag_5\n      swap2\n      swap1\n      jump(tag_6)\n    tag_5:\n      tag_7\n      jump\t// in\n    tag_4:\n      mload(0x40)\n      tag_8\n      swap2\n      swap1\n      jump(tag_9)\n    tag_8:\n      mload(0x40)\n      dup1\n      swap2\n      sub\n      swap1\n      return\n    tag_7:\n        /* \"contracts/demo2.sol\":147:151  uint */\n      0x00\n        /* \"contracts/demo2.sol\":170:187  sizeOfString(_in) */\n      tag_11\n        /* \"contracts/demo2.sol\":183:186  _in */\n      dup3\n        /* \"contracts/demo2.sol\":170:182  sizeOfString */\n      tag_12\n        /* \"contracts/demo2.sol\":170:187  sizeOfString(_in) */\n      jump\t// in\n    tag_11:\n        /* \"contracts/demo2.sol\":163:187  return sizeOfString(_in) */\n      swap1\n      pop\n        /* \"contracts/demo2.sol\":91:195  function getData(string memory _in) public view returns(uint){\r... */\n      swap2\n      swap1\n      pop\n      jump\t// out\n        /* \"contracts/demo2.sol\":285:591  function sizeOfString(string memory _in) internal pure  returns(uint _size) {\r... */\n    tag_12:\n        /* \"contracts/demo2.sol\":349:359  uint _size */\n      0x00\n        /* \"contracts/demo2.sol\":400:402  32 */\n      0x20\n        /* \"contracts/demo2.sol\":386:389  _in */\n      dup3\n        /* \"contracts/demo2.sol\":380:397  bytes(_in).length */\n      mload\n        /* \"contracts/demo2.sol\":380:402  bytes(_in).length / 32 */\n      dup2\n      tag_14\n      jumpi\n      invalid\n    tag_14:\n      div\n        /* \"contracts/demo2.sol\":372:402  _size = bytes(_in).length / 32 */\n      swap1\n      pop\n        /* \"contracts/demo2.sol\":444:445  0 */\n      0x00\n        /* \"contracts/demo2.sol\":438:440  32 */\n      0x20\n        /* \"contracts/demo2.sol\":424:427  _in */\n      dup4\n        /* \"contracts/demo2.sol\":418:435  bytes(_in).length */\n      mload\n        /* \"contracts/demo2.sol\":418:440  bytes(_in).length % 32 */\n      dup2\n      tag_15\n      jumpi\n      invalid\n    tag_15:\n      mod\n        /* \"contracts/demo2.sol\":418:445  bytes(_in).length % 32 != 0 */\n      eq\n        /* \"contracts/demo2.sol\":414:467  if (bytes(_in).length % 32 != 0)\r... */\n      tag_16\n      jumpi\n        /* \"contracts/demo2.sol\":460:467  _size++ */\n      dup1\n      dup1\n      0x01\n      add\n      swap2\n      pop\n      pop\n        /* \"contracts/demo2.sol\":414:467  if (bytes(_in).length % 32 != 0)\r... */\n    tag_16:\n        /* \"contracts/demo2.sol\":492:499  _size++ */\n      dup1\n      dup1\n      0x01\n      add\n      swap2\n      pop\n      pop\n        /* \"contracts/demo2.sol\":581:583  32 */\n      0x20\n        /* \"contracts/demo2.sol\":572:583  _size *= 32 */\n      dup2\n      mul\n      swap1\n      pop\n        /* \"contracts/demo2.sol\":285:591  function sizeOfString(string memory _in) internal pure  returns(uint _size) {\r... */\n      swap2\n      swap1\n      pop\n      jump\t// out\n        /* \"--CODEGEN--\":6:448   */\n    tag_18:\n      0x00\n        /* \"--CODEGEN--\":108:111   */\n      dup3\n        /* \"--CODEGEN--\":101:105   */\n      0x1f\n        /* \"--CODEGEN--\":93:99   */\n      dup4\n        /* \"--CODEGEN--\":89:106   */\n      add\n        /* \"--CODEGEN--\":85:112   */\n      slt\n        /* \"--CODEGEN--\":75:77   */\n      tag_20\n      jumpi\n        /* \"--CODEGEN--\":126:127   */\n      0x00\n        /* \"--CODEGEN--\":123:124   */\n      dup1\n        /* \"--CODEGEN--\":116:128   */\n      revert\n        /* \"--CODEGEN--\":75:77   */\n    tag_20:\n        /* \"--CODEGEN--\":163:169   */\n      dup2\n        /* \"--CODEGEN--\":150:170   */\n      calldataload\n        /* \"--CODEGEN--\":185:250   */\n      tag_21\n        /* \"--CODEGEN--\":200:249   */\n      tag_22\n        /* \"--CODEGEN--\":242:248   */\n      dup3\n        /* \"--CODEGEN--\":200:249   */\n      jump(tag_23)\n    tag_22:\n        /* \"--CODEGEN--\":185:250   */\n      jump(tag_24)\n    tag_21:\n        /* \"--CODEGEN--\":176:250   */\n      swap2\n      pop\n        /* \"--CODEGEN--\":270:276   */\n      dup1\n        /* \"--CODEGEN--\":263:268   */\n      dup3\n        /* \"--CODEGEN--\":256:277   */\n      mstore\n        /* \"--CODEGEN--\":306:310   */\n      0x20\n        /* \"--CODEGEN--\":298:304   */\n      dup4\n        /* \"--CODEGEN--\":294:311   */\n      add\n        /* \"--CODEGEN--\":339:343   */\n      0x20\n        /* \"--CODEGEN--\":332:337   */\n      dup4\n        /* \"--CODEGEN--\":328:344   */\n      add\n        /* \"--CODEGEN--\":374:377   */\n      dup6\n        /* \"--CODEGEN--\":365:371   */\n      dup4\n        /* \"--CODEGEN--\":360:363   */\n      dup4\n        /* \"--CODEGEN--\":356:372   */\n      add\n        /* \"--CODEGEN--\":353:378   */\n      gt\n        /* \"--CODEGEN--\":350:352   */\n      iszero\n      tag_25\n      jumpi\n        /* \"--CODEGEN--\":391:392   */\n      0x00\n        /* \"--CODEGEN--\":388:389   */\n      dup1\n        /* \"--CODEGEN--\":381:393   */\n      revert\n        /* \"--CODEGEN--\":350:352   */\n    tag_25:\n        /* \"--CODEGEN--\":401:442   */\n      tag_26\n        /* \"--CODEGEN--\":435:441   */\n      dup4\n        /* \"--CODEGEN--\":430:433   */\n      dup3\n        /* \"--CODEGEN--\":425:428   */\n      dup5\n        /* \"--CODEGEN--\":401:442   */\n      jump(tag_27)\n    tag_26:\n        /* \"--CODEGEN--\":68:448   */\n      pop\n      pop\n      pop\n      swap3\n      swap2\n      pop\n      pop\n      jump\n        /* \"--CODEGEN--\":456:803   */\n    tag_6:\n      0x00\n        /* \"--CODEGEN--\":570:572   */\n      0x20\n        /* \"--CODEGEN--\":558:567   */\n      dup3\n        /* \"--CODEGEN--\":549:556   */\n      dup5\n        /* \"--CODEGEN--\":545:568   */\n      sub\n        /* \"--CODEGEN--\":541:573   */\n      slt\n        /* \"--CODEGEN--\":538:540   */\n      iszero\n      tag_29\n      jumpi\n        /* \"--CODEGEN--\":586:587   */\n      0x00\n        /* \"--CODEGEN--\":583:584   */\n      dup1\n        /* \"--CODEGEN--\":576:588   */\n      revert\n        /* \"--CODEGEN--\":538:540   */\n    tag_29:\n        /* \"--CODEGEN--\":649:650   */\n      0x00\n        /* \"--CODEGEN--\":638:647   */\n      dup3\n        /* \"--CODEGEN--\":634:651   */\n      add\n        /* \"--CODEGEN--\":621:652   */\n      calldataload\n        /* \"--CODEGEN--\":672:690   */\n      0xffffffffffffffff\n        /* \"--CODEGEN--\":664:670   */\n      dup2\n        /* \"--CODEGEN--\":661:691   */\n      gt\n        /* \"--CODEGEN--\":658:660   */\n      iszero\n      tag_30\n      jumpi\n        /* \"--CODEGEN--\":704:705   */\n      0x00\n        /* \"--CODEGEN--\":701:702   */\n      dup1\n        /* \"--CODEGEN--\":694:706   */\n      revert\n        /* \"--CODEGEN--\":658:660   */\n    tag_30:\n        /* \"--CODEGEN--\":724:787   */\n      tag_31\n        /* \"--CODEGEN--\":779:786   */\n      dup5\n        /* \"--CODEGEN--\":770:776   */\n      dup3\n        /* \"--CODEGEN--\":759:768   */\n      dup6\n        /* \"--CODEGEN--\":755:777   */\n      add\n        /* \"--CODEGEN--\":724:787   */\n      jump(tag_18)\n    tag_31:\n        /* \"--CODEGEN--\":714:787   */\n      swap2\n      pop\n        /* \"--CODEGEN--\":600:793   */\n      pop\n        /* \"--CODEGEN--\":532:803   */\n      swap3\n      swap2\n      pop\n      pop\n      jump\n        /* \"--CODEGEN--\":810:923   */\n    tag_32:\n        /* \"--CODEGEN--\":893:917   */\n      tag_34\n        /* \"--CODEGEN--\":911:916   */\n      dup2\n        /* \"--CODEGEN--\":893:917   */\n      jump(tag_35)\n    tag_34:\n        /* \"--CODEGEN--\":888:891   */\n      dup3\n        /* \"--CODEGEN--\":881:918   */\n      mstore\n        /* \"--CODEGEN--\":875:923   */\n      pop\n      pop\n      jump\n        /* \"--CODEGEN--\":930:1143   */\n    tag_9:\n      0x00\n        /* \"--CODEGEN--\":1048:1050   */\n      0x20\n        /* \"--CODEGEN--\":1037:1046   */\n      dup3\n        /* \"--CODEGEN--\":1033:1051   */\n      add\n        /* \"--CODEGEN--\":1025:1051   */\n      swap1\n      pop\n        /* \"--CODEGEN--\":1062:1133   */\n      tag_37\n        /* \"--CODEGEN--\":1130:1131   */\n      0x00\n        /* \"--CODEGEN--\":1119:1128   */\n      dup4\n        /* \"--CODEGEN--\":1115:1132   */\n      add\n        /* \"--CODEGEN--\":1106:1112   */\n      dup5\n        /* \"--CODEGEN--\":1062:1133   */\n      jump(tag_32)\n    tag_37:\n        /* \"--CODEGEN--\":1019:1143   */\n      swap3\n      swap2\n      pop\n      pop\n      jump\n        /* \"--CODEGEN--\":1150:1406   */\n    tag_24:\n      0x00\n        /* \"--CODEGEN--\":1212:1214   */\n      0x40\n        /* \"--CODEGEN--\":1206:1215   */\n      mload\n        /* \"--CODEGEN--\":1196:1215   */\n      swap1\n      pop\n        /* \"--CODEGEN--\":1250:1254   */\n      dup2\n        /* \"--CODEGEN--\":1242:1248   */\n      dup2\n        /* \"--CODEGEN--\":1238:1255   */\n      add\n        /* \"--CODEGEN--\":1349:1355   */\n      dup2\n        /* \"--CODEGEN--\":1337:1347   */\n      dup2\n        /* \"--CODEGEN--\":1334:1356   */\n      lt\n        /* \"--CODEGEN--\":1313:1331   */\n      0xffffffffffffffff\n        /* \"--CODEGEN--\":1301:1311   */\n      dup3\n        /* \"--CODEGEN--\":1298:1332   */\n      gt\n        /* \"--CODEGEN--\":1295:1357   */\n      or\n        /* \"--CODEGEN--\":1292:1294   */\n      iszero\n      tag_39\n      jumpi\n        /* \"--CODEGEN--\":1370:1371   */\n      0x00\n        /* \"--CODEGEN--\":1367:1368   */\n      dup1\n        /* \"--CODEGEN--\":1360:1372   */\n      revert\n        /* \"--CODEGEN--\":1292:1294   */\n    tag_39:\n        /* \"--CODEGEN--\":1390:1400   */\n      dup1\n        /* \"--CODEGEN--\":1386:1388   */\n      0x40\n        /* \"--CODEGEN--\":1379:1401   */\n      mstore\n        /* \"--CODEGEN--\":1190:1406   */\n      pop\n      swap2\n      swap1\n      pop\n      jump\n        /* \"--CODEGEN--\":1413:1735   */\n    tag_23:\n      0x00\n        /* \"--CODEGEN--\":1557:1575   */\n      0xffffffffffffffff\n        /* \"--CODEGEN--\":1549:1555   */\n      dup3\n        /* \"--CODEGEN--\":1546:1576   */\n      gt\n        /* \"--CODEGEN--\":1543:1545   */\n      iszero\n      tag_41\n      jumpi\n        /* \"--CODEGEN--\":1589:1590   */\n      0x00\n        /* \"--CODEGEN--\":1586:1587   */\n      dup1\n        /* \"--CODEGEN--\":1579:1591   */\n      revert\n        /* \"--CODEGEN--\":1543:1545   */\n    tag_41:\n        /* \"--CODEGEN--\":1656:1660   */\n      0x1f\n        /* \"--CODEGEN--\":1652:1661   */\n      not\n        /* \"--CODEGEN--\":1645:1649   */\n      0x1f\n        /* \"--CODEGEN--\":1637:1643   */\n      dup4\n        /* \"--CODEGEN--\":1633:1650   */\n      add\n        /* \"--CODEGEN--\":1629:1662   */\n      and\n        /* \"--CODEGEN--\":1621:1662   */\n      swap1\n      pop\n        /* \"--CODEGEN--\":1720:1724   */\n      0x20\n        /* \"--CODEGEN--\":1714:1718   */\n      dup2\n        /* \"--CODEGEN--\":1710:1725   */\n      add\n        /* \"--CODEGEN--\":1702:1725   */\n      swap1\n      pop\n        /* \"--CODEGEN--\":1480:1735   */\n      swap2\n      swap1\n      pop\n      jump\n        /* \"--CODEGEN--\":1742:1814   */\n    tag_35:\n      0x00\n        /* \"--CODEGEN--\":1804:1809   */\n      dup2\n        /* \"--CODEGEN--\":1793:1809   */\n      swap1\n      pop\n        /* \"--CODEGEN--\":1787:1814   */\n      swap2\n      swap1\n      pop\n      jump\n        /* \"--CODEGEN--\":1822:1967   */\n    tag_27:\n        /* \"--CODEGEN--\":1903:1909   */\n      dup3\n        /* \"--CODEGEN--\":1898:1901   */\n      dup2\n        /* \"--CODEGEN--\":1893:1896   */\n      dup4\n        /* \"--CODEGEN--\":1880:1910   */\n      calldatacopy\n        /* \"--CODEGEN--\":1959:1960   */\n      0x00\n        /* \"--CODEGEN--\":1950:1956   */\n      dup4\n        /* \"--CODEGEN--\":1945:1948   */\n      dup4\n        /* \"--CODEGEN--\":1941:1957   */\n      add\n        /* \"--CODEGEN--\":1934:1961   */\n      mstore\n        /* \"--CODEGEN--\":1873:1967   */\n      pop\n      pop\n      pop\n      jump\n\n    auxdata: 0xa2646970667358221220bb6bdcc4cfb4bb6b3d0d19f43d027a4498e8f963581383f83b76ac431d072aeb64736f6c63430006040033\n}\n",
				"bytecode": {
					"linkReferences": {},
					"object": "608060405234801561001057600080fd5b50610218806100206000396000f3fe608060405234801561001057600080fd5b506004361061002b5760003560e01c8063ae55c88814610030575b600080fd5b61004a60048036038101906100459190610105565b610060565b6040516100579190610155565b60405180910390f35b600061006b82610072565b9050919050565b6000602082518161007f57fe5b0490506000602083518161008f57fe5b061461009e5780806001019150505b8080600101915050602081029050919050565b600082601f8301126100c257600080fd5b81356100d56100d08261019d565b610170565b915080825260208301602083018583830111156100f157600080fd5b6100fc8382846101d3565b50505092915050565b60006020828403121561011757600080fd5b600082013567ffffffffffffffff81111561013157600080fd5b61013d848285016100b1565b91505092915050565b61014f816101c9565b82525050565b600060208201905061016a6000830184610146565b92915050565b6000604051905081810181811067ffffffffffffffff8211171561019357600080fd5b8060405250919050565b600067ffffffffffffffff8211156101b457600080fd5b601f19601f8301169050602081019050919050565b6000819050919050565b8281833760008383015250505056fea2646970667358221220bb6bdcc4cfb4bb6b3d0d19f43d027a4498e8f963581383f83b76ac431d072aeb64736f6c63430006040033",
					"opcodes": "PUSH1 0x80 PUSH1 0x40 MSTORE CALLVALUE DUP1 ISZERO PUSH2 0x10 JUMPI PUSH1 0x0 DUP1 REVERT JUMPDEST POP PUSH2 0x218 DUP1 PUSH2 0x20 PUSH1 0x0 CODECOPY PUSH1 0x0 RETURN INVALID PUSH1 0x80 PUSH1 0x40 MSTORE CALLVALUE DUP1 ISZERO PUSH2 0x10 JUMPI PUSH1 0x0 DUP1 REVERT JUMPDEST POP PUSH1 0x4 CALLDATASIZE LT PUSH2 0x2B JUMPI PUSH1 0x0 CALLDATALOAD PUSH1 0xE0 SHR DUP1 PUSH4 0xAE55C888 EQ PUSH2 0x30 JUMPI JUMPDEST PUSH1 0x0 DUP1 REVERT JUMPDEST PUSH2 0x4A PUSH1 0x4 DUP1 CALLDATASIZE SUB DUP2 ADD SWAP1 PUSH2 0x45 SWAP2 SWAP1 PUSH2 0x105 JUMP JUMPDEST PUSH2 0x60 JUMP JUMPDEST PUSH1 0x40 MLOAD PUSH2 0x57 SWAP2 SWAP1 PUSH2 0x155 JUMP JUMPDEST PUSH1 0x40 MLOAD DUP1 SWAP2 SUB SWAP1 RETURN JUMPDEST PUSH1 0x0 PUSH2 0x6B DUP3 PUSH2 0x72 JUMP JUMPDEST SWAP1 POP SWAP2 SWAP1 POP JUMP JUMPDEST PUSH1 0x0 PUSH1 0x20 DUP3 MLOAD DUP2 PUSH2 0x7F JUMPI INVALID JUMPDEST DIV SWAP1 POP PUSH1 0x0 PUSH1 0x20 DUP4 MLOAD DUP2 PUSH2 0x8F JUMPI INVALID JUMPDEST MOD EQ PUSH2 0x9E JUMPI DUP1 DUP1 PUSH1 0x1 ADD SWAP2 POP POP JUMPDEST DUP1 DUP1 PUSH1 0x1 ADD SWAP2 POP POP PUSH1 0x20 DUP2 MUL SWAP1 POP SWAP2 SWAP1 POP JUMP JUMPDEST PUSH1 0x0 DUP3 PUSH1 0x1F DUP4 ADD SLT PUSH2 0xC2 JUMPI PUSH1 0x0 DUP1 REVERT JUMPDEST DUP2 CALLDATALOAD PUSH2 0xD5 PUSH2 0xD0 DUP3 PUSH2 0x19D JUMP JUMPDEST PUSH2 0x170 JUMP JUMPDEST SWAP2 POP DUP1 DUP3 MSTORE PUSH1 0x20 DUP4 ADD PUSH1 0x20 DUP4 ADD DUP6 DUP4 DUP4 ADD GT ISZERO PUSH2 0xF1 JUMPI PUSH1 0x0 DUP1 REVERT JUMPDEST PUSH2 0xFC DUP4 DUP3 DUP5 PUSH2 0x1D3 JUMP JUMPDEST POP POP POP SWAP3 SWAP2 POP POP JUMP JUMPDEST PUSH1 0x0 PUSH1 0x20 DUP3 DUP5 SUB SLT ISZERO PUSH2 0x117 JUMPI PUSH1 0x0 DUP1 REVERT JUMPDEST PUSH1 0x0 DUP3 ADD CALLDATALOAD PUSH8 0xFFFFFFFFFFFFFFFF DUP2 GT ISZERO PUSH2 0x131 JUMPI PUSH1 0x0 DUP1 REVERT JUMPDEST PUSH2 0x13D DUP5 DUP3 DUP6 ADD PUSH2 0xB1 JUMP JUMPDEST SWAP2 POP POP SWAP3 SWAP2 POP POP JUMP JUMPDEST PUSH2 0x14F DUP2 PUSH2 0x1C9 JUMP JUMPDEST DUP3 MSTORE POP POP JUMP JUMPDEST PUSH1 0x0 PUSH1 0x20 DUP3 ADD SWAP1 POP PUSH2 0x16A PUSH1 0x0 DUP4 ADD DUP5 PUSH2 0x146 JUMP JUMPDEST SWAP3 SWAP2 POP POP JUMP JUMPDEST PUSH1 0x0 PUSH1 0x40 MLOAD SWAP1 POP DUP2 DUP2 ADD DUP2 DUP2 LT PUSH8 0xFFFFFFFFFFFFFFFF DUP3 GT OR ISZERO PUSH2 0x193 JUMPI PUSH1 0x0 DUP1 REVERT JUMPDEST DUP1 PUSH1 0x40 MSTORE POP SWAP2 SWAP1 POP JUMP JUMPDEST PUSH1 0x0 PUSH8 0xFFFFFFFFFFFFFFFF DUP3 GT ISZERO PUSH2 0x1B4 JUMPI PUSH1 0x0 DUP1 REVERT JUMPDEST PUSH1 0x1F NOT PUSH1 0x1F DUP4 ADD AND SWAP1 POP PUSH1 0x20 DUP2 ADD SWAP1 POP SWAP2 SWAP1 POP JUMP JUMPDEST PUSH1 0x0 DUP2 SWAP1 POP SWAP2 SWAP1 POP JUMP JUMPDEST DUP3 DUP2 DUP4 CALLDATACOPY PUSH1 0x0 DUP4 DUP4 ADD MSTORE POP POP POP JUMP INVALID LOG2 PUSH5 0x6970667358 0x22 SLT KECCAK256 0xBB PUSH12 0xDCC4CFB4BB6B3D0D19F43D02 PUSH27 0x4498E8F963581383F83B76AC431D072AEB64736F6C634300060400 CALLER "
				},
				"gasEstimates": {
					"creation": {
						"codeDepositCost": "107200",
						"executionCost": "153",
						"totalCost": "107353"
					},
					"external": {
						"getData(string)": "infinite"
					},
					"internal": {
						"sizeOfString(string memory)": "infinite"
					}
				},
				"methodIdentifiers": {
					"getData(string)": "ae55c888"
				}
			},
			"userdoc": {
				"methods": {}
			}
		}
	}
}