{
	"contracts/demo2.sol": {
		"demo2": {
			"abi": [
				{
					"inputs": [],
					"name": "data1",
					"outputs": [
						{
							"internalType": "bytes",
							"name": "",
							"type": "bytes"
						}
					],
					"stateMutability": "view",
					"type": "function"
				},
				{
					"inputs": [],
					"name": "data2",
					"outputs": [
						{
							"internalType": "bytes32",
							"name": "",
							"type": "bytes32"
						}
					],
					"stateMutability": "view",
					"type": "function"
				},
				{
					"inputs": [],
					"name": "data3",
					"outputs": [
						{
							"internalType": "bytes",
							"name": "",
							"type": "bytes"
						}
					],
					"stateMutability": "view",
					"type": "function"
				},
				{
					"inputs": [
						{
							"internalType": "uint256",
							"name": "memPtr",
							"type": "uint256"
						}
					],
					"name": "getData",
					"outputs": [
						{
							"internalType": "uint256",
							"name": "",
							"type": "uint256"
						}
					],
					"stateMutability": "view",
					"type": "function"
				}
			],
			"devdoc": {
				"methods": {}
			},
			"evm": {
				"assembly": "    /* \"contracts/demo2.sol\":81:3881  contract demo2 {\r... */\n  mstore(0x40, 0x80)\n    /* \"contracts/demo2.sol\":107:176  bytes public data1 = \"NALEHHJSGDSDGHJSDHSUHDJSHDJSHJSHJSHDSJDHJONGVO\" */\n  mload(0x40)\n  dup1\n  0x60\n  add\n  0x40\n  mstore\n  dup1\n  0x2e\n  dup2\n  mstore\n  0x20\n  add\n  data_4887836e294a2761413359597244d307bbe3f94827f6160d9e1a399e00e2d1be\n  0x2e\n  swap2\n  codecopy\n  0x00\n  swap1\n  dup1\n  mload\n  swap1\n  0x20\n  add\n  swap1\n  tag_1\n  swap3\n  swap2\n  swap1\n  tag_2\n  jump\t// in\ntag_1:\n  pop\n    /* \"contracts/demo2.sol\":187:252  bytes public data3 = \"sdfNAsdfsdfLEHHJSGDSHDJSHJSHJSHDSJDHJONGVO\" */\n  mload(0x40)\n  dup1\n  0x60\n  add\n  0x40\n  mstore\n  dup1\n  0x2a\n  dup2\n  mstore\n  0x20\n  add\n  data_c359735a342ece061e65ab7390d246d1e53ba5f24eea70d6201f1d4a7b2f3475\n  0x2a\n  swap2\n  codecopy\n  0x01\n  swap1\n  dup1\n  mload\n  swap1\n  0x20\n  add\n  swap1\n  tag_3\n  swap3\n  swap2\n  swap1\n  tag_2\n  jump\t// in\ntag_3:\n  pop\n    /* \"contracts/demo2.sol\":263:310  bytes32 public data2 = \"LEHONGVOwjnfvj3weh8vKJ\" */\n  sstore(0x02, 0x4c45484f4e47564f776a6e66766a3377656838764b4a00000000000000000000)\n    /* \"contracts/demo2.sol\":81:3881  contract demo2 {\r... */\n  callvalue\n    /* \"--CODEGEN--\":5:14   */\n  dup1\n    /* \"--CODEGEN--\":2:4   */\n  iszero\n  tag_4\n  jumpi\n    /* \"--CODEGEN--\":27:28   */\n  0x00\n    /* \"--CODEGEN--\":24:25   */\n  dup1\n    /* \"--CODEGEN--\":17:29   */\n  revert\n    /* \"--CODEGEN--\":2:4   */\ntag_4:\n    /* \"contracts/demo2.sol\":81:3881  contract demo2 {\r... */\n  pop\n  jump(tag_5)\ntag_2:\n  dup3\n  dup1\n  sload\n  0x01\n  dup2\n  0x01\n  and\n  iszero\n  0x0100\n  mul\n  sub\n  and\n  0x02\n  swap1\n  div\n  swap1\n  0x00\n  mstore\n  keccak256(0x00, 0x20)\n  swap1\n  0x1f\n  add\n  0x20\n  swap1\n  div\n  dup2\n  add\n  swap3\n  dup3\n  0x1f\n  lt\n  tag_7\n  jumpi\n  dup1\n  mload\n  not(0xff)\n  and\n  dup4\n  dup1\n  add\n  or\n  dup6\n  sstore\n  jump(tag_6)\ntag_7:\n  dup3\n  dup1\n  add\n  0x01\n  add\n  dup6\n  sstore\n  dup3\n  iszero\n  tag_6\n  jumpi\n  swap2\n  dup3\n  add\ntag_8:\n  dup3\n  dup2\n  gt\n  iszero\n  tag_9\n  jumpi\n  dup3\n  mload\n  dup3\n  sstore\n  swap2\n  0x20\n  add\n  swap2\n  swap1\n  0x01\n  add\n  swap1\n  jump(tag_8)\ntag_9:\ntag_6:\n  pop\n  swap1\n  pop\n  tag_10\n  swap2\n  swap1\n  tag_11\n  jump\t// in\ntag_10:\n  pop\n  swap1\n  jump\t// out\ntag_11:\n  tag_12\n  swap2\n  swap1\ntag_13:\n  dup1\n  dup3\n  gt\n  iszero\n  tag_14\n  jumpi\n  0x00\n  dup2\n  0x00\n  swap1\n  sstore\n  pop\n  0x01\n  add\n  jump(tag_13)\ntag_14:\n  pop\n  swap1\n  jump\ntag_12:\n  swap1\n  jump\t// out\ntag_5:\n  dataSize(sub_0)\n  dup1\n  dataOffset(sub_0)\n  0x00\n  codecopy\n  0x00\n  return\nstop\ndata_4887836e294a2761413359597244d307bbe3f94827f6160d9e1a399e00e2d1be 4e414c4548484a534744534447484a534448535548444a5348444a53484a53484a534844534a44484a4f4e47564f\ndata_c359735a342ece061e65ab7390d246d1e53ba5f24eea70d6201f1d4a7b2f3475 7364664e417364667364664c4548484a5347445348444a53484a53484a534844534a44484a4f4e47564f\n\nsub_0: assembly {\n        /* \"contracts/demo2.sol\":81:3881  contract demo2 {\r... */\n      mstore(0x40, 0x80)\n      callvalue\n        /* \"--CODEGEN--\":5:14   */\n      dup1\n        /* \"--CODEGEN--\":2:4   */\n      iszero\n      tag_1\n      jumpi\n        /* \"--CODEGEN--\":27:28   */\n      0x00\n        /* \"--CODEGEN--\":24:25   */\n      dup1\n        /* \"--CODEGEN--\":17:29   */\n      revert\n        /* \"--CODEGEN--\":2:4   */\n    tag_1:\n        /* \"contracts/demo2.sol\":81:3881  contract demo2 {\r... */\n      pop\n      jumpi(tag_2, lt(calldatasize, 0x04))\n      shr(0xe0, calldataload(0x00))\n      dup1\n      0x0178fe3f\n      eq\n      tag_3\n      jumpi\n      dup1\n      0x9ffd85c4\n      eq\n      tag_4\n      jumpi\n      dup1\n      0xe3a7fd75\n      eq\n      tag_5\n      jumpi\n      dup1\n      0xfc26b0ab\n      eq\n      tag_6\n      jumpi\n    tag_2:\n        /* \"--CODEGEN--\":12:13   */\n      0x00\n        /* \"--CODEGEN--\":9:10   */\n      dup1\n        /* \"--CODEGEN--\":2:14   */\n      revert\n        /* \"contracts/demo2.sol\":665:777  function getData(uint memPtr) public view returns(uint) {\r... */\n    tag_3:\n      tag_7\n      0x04\n      dup1\n      calldatasize\n      sub\n      dup2\n      add\n      swap1\n      tag_8\n      swap2\n      swap1\n      jump(tag_9)\n    tag_8:\n      tag_10\n      jump\t// in\n    tag_7:\n      mload(0x40)\n      tag_11\n      swap2\n      swap1\n      jump(tag_12)\n    tag_11:\n      mload(0x40)\n      dup1\n      swap2\n      sub\n      swap1\n      return\n        /* \"contracts/demo2.sol\":107:176  bytes public data1 = \"NALEHHJSGDSDGHJSDHSUHDJSHDJSHJSHJSHDSJDHJONGVO\" */\n    tag_4:\n      tag_13\n      tag_14\n      jump\t// in\n    tag_13:\n      mload(0x40)\n      tag_15\n      swap2\n      swap1\n      jump(tag_16)\n    tag_15:\n      mload(0x40)\n      dup1\n      swap2\n      sub\n      swap1\n      return\n        /* \"contracts/demo2.sol\":263:310  bytes32 public data2 = \"LEHONGVOwjnfvj3weh8vKJ\" */\n    tag_5:\n      tag_17\n      tag_18\n      jump\t// in\n    tag_17:\n      mload(0x40)\n      tag_19\n      swap2\n      swap1\n      jump(tag_20)\n    tag_19:\n      mload(0x40)\n      dup1\n      swap2\n      sub\n      swap1\n      return\n        /* \"contracts/demo2.sol\":187:252  bytes public data3 = \"sdfNAsdfsdfLEHHJSGDSHDJSHJSHJSHDSJDHJONGVO\" */\n    tag_6:\n      tag_21\n      tag_22\n      jump\t// in\n    tag_21:\n      mload(0x40)\n      tag_23\n      swap2\n      swap1\n      jump(tag_16)\n    tag_23:\n      mload(0x40)\n      dup1\n      swap2\n      sub\n      swap1\n      return\n        /* \"contracts/demo2.sol\":665:777  function getData(uint memPtr) public view returns(uint) {\r... */\n    tag_10:\n        /* \"contracts/demo2.sol\":715:719  uint */\n      0x00\n        /* \"contracts/demo2.sol\":743:765  _payloadOffset(memPtr) */\n      tag_25\n        /* \"contracts/demo2.sol\":758:764  memPtr */\n      dup3\n        /* \"contracts/demo2.sol\":743:757  _payloadOffset */\n      tag_26\n        /* \"contracts/demo2.sol\":743:765  _payloadOffset(memPtr) */\n      jump\t// in\n    tag_25:\n        /* \"contracts/demo2.sol\":736:765  return _payloadOffset(memPtr) */\n      swap1\n      pop\n        /* \"contracts/demo2.sol\":665:777  function getData(uint memPtr) public view returns(uint) {\r... */\n      swap2\n      swap1\n      pop\n      jump\t// out\n        /* \"contracts/demo2.sol\":107:176  bytes public data1 = \"NALEHHJSGDSDGHJSDHSUHDJSHDJSHJSHJSHDSJDHJONGVO\" */\n    tag_14:\n      0x00\n      dup1\n      sload\n      0x01\n      dup2\n      0x01\n      and\n      iszero\n      0x0100\n      mul\n      sub\n      and\n      0x02\n      swap1\n      div\n      dup1\n      0x1f\n      add\n      0x20\n      dup1\n      swap2\n      div\n      mul\n      0x20\n      add\n      mload(0x40)\n      swap1\n      dup2\n      add\n      0x40\n      mstore\n      dup1\n      swap3\n      swap2\n      swap1\n      dup2\n      dup2\n      mstore\n      0x20\n      add\n      dup3\n      dup1\n      sload\n      0x01\n      dup2\n      0x01\n      and\n      iszero\n      0x0100\n      mul\n      sub\n      and\n      0x02\n      swap1\n      div\n      dup1\n      iszero\n      tag_27\n      jumpi\n      dup1\n      0x1f\n      lt\n      tag_28\n      jumpi\n      0x0100\n      dup1\n      dup4\n      sload\n      div\n      mul\n      dup4\n      mstore\n      swap2\n      0x20\n      add\n      swap2\n      jump(tag_27)\n    tag_28:\n      dup3\n      add\n      swap2\n      swap1\n      0x00\n      mstore\n      keccak256(0x00, 0x20)\n      swap1\n    tag_29:\n      dup2\n      sload\n      dup2\n      mstore\n      swap1\n      0x01\n      add\n      swap1\n      0x20\n      add\n      dup1\n      dup4\n      gt\n      tag_29\n      jumpi\n      dup3\n      swap1\n      sub\n      0x1f\n      and\n      dup3\n      add\n      swap2\n    tag_27:\n      pop\n      pop\n      pop\n      pop\n      pop\n      dup2\n      jump\t// out\n        /* \"contracts/demo2.sol\":263:310  bytes32 public data2 = \"LEHONGVOwjnfvj3weh8vKJ\" */\n    tag_18:\n      sload(0x02)\n      dup2\n      jump\t// out\n        /* \"contracts/demo2.sol\":187:252  bytes public data3 = \"sdfNAsdfsdfLEHHJSGDSHDJSHJSHJSHDSJDHJONGVO\" */\n    tag_22:\n      0x01\n      dup1\n      sload\n      0x01\n      dup2\n      0x01\n      and\n      iszero\n      0x0100\n      mul\n      sub\n      and\n      0x02\n      swap1\n      div\n      dup1\n      0x1f\n      add\n      0x20\n      dup1\n      swap2\n      div\n      mul\n      0x20\n      add\n      mload(0x40)\n      swap1\n      dup2\n      add\n      0x40\n      mstore\n      dup1\n      swap3\n      swap2\n      swap1\n      dup2\n      dup2\n      mstore\n      0x20\n      add\n      dup3\n      dup1\n      sload\n      0x01\n      dup2\n      0x01\n      and\n      iszero\n      0x0100\n      mul\n      sub\n      and\n      0x02\n      swap1\n      div\n      dup1\n      iszero\n      tag_30\n      jumpi\n      dup1\n      0x1f\n      lt\n      tag_31\n      jumpi\n      0x0100\n      dup1\n      dup4\n      sload\n      div\n      mul\n      dup4\n      mstore\n      swap2\n      0x20\n      add\n      swap2\n      jump(tag_30)\n    tag_31:\n      dup3\n      add\n      swap2\n      swap1\n      0x00\n      mstore\n      keccak256(0x00, 0x20)\n      swap1\n    tag_32:\n      dup2\n      sload\n      dup2\n      mstore\n      swap1\n      0x01\n      add\n      swap1\n      0x20\n      add\n      dup1\n      dup4\n      gt\n      tag_32\n      jumpi\n      dup3\n      swap1\n      sub\n      0x1f\n      and\n      dup3\n      add\n      swap2\n    tag_30:\n      pop\n      pop\n      pop\n      pop\n      pop\n      dup2\n      jump\t// out\n        /* \"contracts/demo2.sol\":2473:3076  function _payloadOffset(uint memPtr) private pure returns (uint) {\r... */\n    tag_26:\n        /* \"contracts/demo2.sol\":2532:2536  uint */\n      0x00\n        /* \"contracts/demo2.sol\":2553:2563  uint byte0 */\n      dup1\n        /* \"contracts/demo2.sol\":2629:2635  memPtr */\n      dup3\n        /* \"contracts/demo2.sol\":2623:2636  mload(memPtr) */\n      mload\n        /* \"contracts/demo2.sol\":2620:2621  0 */\n      0x00\n        /* \"contracts/demo2.sol\":2615:2637  byte(0, mload(memPtr)) */\n      byte\n        /* \"contracts/demo2.sol\":2606:2637  byte0 := byte(0, mload(memPtr)) */\n      swap1\n      pop\n        /* \"contracts/demo2.sol\":447:451  0x80 */\n      0x80\n        /* \"contracts/demo2.sol\":2672:2698  byte0 < STRING_SHORT_START */\n      0xff\n      and\n        /* \"contracts/demo2.sol\":2672:2677  byte0 */\n      dup2\n        /* \"contracts/demo2.sol\":2672:2698  byte0 < STRING_SHORT_START */\n      lt\n        /* \"contracts/demo2.sol\":2668:3064  if (byte0 < STRING_SHORT_START)\r... */\n      iszero\n      tag_34\n      jumpi\n        /* \"contracts/demo2.sol\":2724:2725  0 */\n      0x00\n        /* \"contracts/demo2.sol\":2717:2725  return 0 */\n      swap2\n      pop\n      pop\n      jump(tag_33)\n        /* \"contracts/demo2.sol\":2668:3064  if (byte0 < STRING_SHORT_START)\r... */\n    tag_34:\n        /* \"contracts/demo2.sol\":498:502  0xb8 */\n      0xb8\n        /* \"contracts/demo2.sol\":2749:2774  byte0 < STRING_LONG_START */\n      0xff\n      and\n        /* \"contracts/demo2.sol\":2749:2754  byte0 */\n      dup2\n        /* \"contracts/demo2.sol\":2749:2774  byte0 < STRING_LONG_START */\n      lt\n        /* \"contracts/demo2.sol\":2749:2832  byte0 < STRING_LONG_START || (byte0 >= LIST_SHORT_START && byte0 < LIST_LONG_START) */\n      dup1\n      tag_36\n      jumpi\n      pop\n        /* \"contracts/demo2.sol\":549:553  0xc0 */\n      0xc0\n        /* \"contracts/demo2.sol\":2779:2804  byte0 >= LIST_SHORT_START */\n      0xff\n      and\n        /* \"contracts/demo2.sol\":2779:2784  byte0 */\n      dup2\n        /* \"contracts/demo2.sol\":2779:2804  byte0 >= LIST_SHORT_START */\n      lt\n      iszero\n        /* \"contracts/demo2.sol\":2779:2831  byte0 >= LIST_SHORT_START && byte0 < LIST_LONG_START */\n      dup1\n      iszero\n      tag_37\n      jumpi\n      pop\n        /* \"contracts/demo2.sol\":600:604  0xf8 */\n      0xf8\n        /* \"contracts/demo2.sol\":2808:2831  byte0 < LIST_LONG_START */\n      0xff\n      and\n        /* \"contracts/demo2.sol\":2808:2813  byte0 */\n      dup2\n        /* \"contracts/demo2.sol\":2808:2831  byte0 < LIST_LONG_START */\n      lt\n        /* \"contracts/demo2.sol\":2779:2831  byte0 >= LIST_SHORT_START && byte0 < LIST_LONG_START */\n    tag_37:\n        /* \"contracts/demo2.sol\":2749:2832  byte0 < STRING_LONG_START || (byte0 >= LIST_SHORT_START && byte0 < LIST_LONG_START) */\n    tag_36:\n        /* \"contracts/demo2.sol\":2745:3064  if (byte0 < STRING_LONG_START || (byte0 >= LIST_SHORT_START && byte0 < LIST_LONG_START))\r... */\n      iszero\n      tag_38\n      jumpi\n        /* \"contracts/demo2.sol\":2858:2859  1 */\n      0x01\n        /* \"contracts/demo2.sol\":2851:2859  return 1 */\n      swap2\n      pop\n      pop\n      jump(tag_33)\n        /* \"contracts/demo2.sol\":2745:3064  if (byte0 < STRING_LONG_START || (byte0 >= LIST_SHORT_START && byte0 < LIST_LONG_START))\r... */\n    tag_38:\n        /* \"contracts/demo2.sol\":549:553  0xc0 */\n      0xc0\n        /* \"contracts/demo2.sol\":2883:2907  byte0 < LIST_SHORT_START */\n      0xff\n      and\n        /* \"contracts/demo2.sol\":2883:2888  byte0 */\n      dup2\n        /* \"contracts/demo2.sol\":2883:2907  byte0 < LIST_SHORT_START */\n      lt\n        /* \"contracts/demo2.sol\":2879:3064  if (byte0 < LIST_SHORT_START)  // being explicit\r... */\n      iszero\n      tag_40\n      jumpi\n        /* \"contracts/demo2.sol\":2986:2987  1 */\n      0x01\n        /* \"contracts/demo2.sol\":2981:2982  1 */\n      dup1\n        /* \"contracts/demo2.sol\":498:502  0xb8 */\n      0xb8\n        /* \"contracts/demo2.sol\":2961:2982  STRING_LONG_START - 1 */\n      sub\n        /* \"contracts/demo2.sol\":2952:2983  byte0 - (STRING_LONG_START - 1) */\n      0xff\n      and\n        /* \"contracts/demo2.sol\":2952:2957  byte0 */\n      dup3\n        /* \"contracts/demo2.sol\":2952:2983  byte0 - (STRING_LONG_START - 1) */\n      sub\n        /* \"contracts/demo2.sol\":2952:2987  byte0 - (STRING_LONG_START - 1) + 1 */\n      add\n        /* \"contracts/demo2.sol\":2945:2987  return byte0 - (STRING_LONG_START - 1) + 1 */\n      swap2\n      pop\n      pop\n      jump(tag_33)\n        /* \"contracts/demo2.sol\":2879:3064  if (byte0 < LIST_SHORT_START)  // being explicit\r... */\n    tag_40:\n        /* \"contracts/demo2.sol\":3063:3064  1 */\n      0x01\n        /* \"contracts/demo2.sol\":3058:3059  1 */\n      dup1\n        /* \"contracts/demo2.sol\":600:604  0xf8 */\n      0xf8\n        /* \"contracts/demo2.sol\":3040:3059  LIST_LONG_START - 1 */\n      sub\n        /* \"contracts/demo2.sol\":3031:3060  byte0 - (LIST_LONG_START - 1) */\n      0xff\n      and\n        /* \"contracts/demo2.sol\":3031:3036  byte0 */\n      dup3\n        /* \"contracts/demo2.sol\":3031:3060  byte0 - (LIST_LONG_START - 1) */\n      sub\n        /* \"contracts/demo2.sol\":3031:3064  byte0 - (LIST_LONG_START - 1) + 1 */\n      add\n        /* \"contracts/demo2.sol\":3024:3064  return byte0 - (LIST_LONG_START - 1) + 1 */\n      swap2\n      pop\n      pop\n        /* \"contracts/demo2.sol\":2473:3076  function _payloadOffset(uint memPtr) private pure returns (uint) {\r... */\n    tag_33:\n      swap2\n      swap1\n      pop\n      jump\t// out\n        /* \"--CODEGEN--\":5:135   */\n    tag_43:\n      0x00\n        /* \"--CODEGEN--\":85:91   */\n      dup2\n        /* \"--CODEGEN--\":72:92   */\n      calldataload\n        /* \"--CODEGEN--\":63:92   */\n      swap1\n      pop\n        /* \"--CODEGEN--\":97:130   */\n      tag_45\n        /* \"--CODEGEN--\":124:129   */\n      dup2\n        /* \"--CODEGEN--\":97:130   */\n      jump(tag_46)\n    tag_45:\n        /* \"--CODEGEN--\":57:135   */\n      swap3\n      swap2\n      pop\n      pop\n      jump\n        /* \"--CODEGEN--\":142:383   */\n    tag_9:\n      0x00\n        /* \"--CODEGEN--\":246:248   */\n      0x20\n        /* \"--CODEGEN--\":234:243   */\n      dup3\n        /* \"--CODEGEN--\":225:232   */\n      dup5\n        /* \"--CODEGEN--\":221:244   */\n      sub\n        /* \"--CODEGEN--\":217:249   */\n      slt\n        /* \"--CODEGEN--\":214:216   */\n      iszero\n      tag_48\n      jumpi\n        /* \"--CODEGEN--\":262:263   */\n      0x00\n        /* \"--CODEGEN--\":259:260   */\n      dup1\n        /* \"--CODEGEN--\":252:264   */\n      revert\n        /* \"--CODEGEN--\":214:216   */\n    tag_48:\n        /* \"--CODEGEN--\":297:298   */\n      0x00\n        /* \"--CODEGEN--\":314:367   */\n      tag_49\n        /* \"--CODEGEN--\":359:366   */\n      dup5\n        /* \"--CODEGEN--\":350:356   */\n      dup3\n        /* \"--CODEGEN--\":339:348   */\n      dup6\n        /* \"--CODEGEN--\":335:357   */\n      add\n        /* \"--CODEGEN--\":314:367   */\n      jump(tag_43)\n    tag_49:\n        /* \"--CODEGEN--\":304:367   */\n      swap2\n      pop\n        /* \"--CODEGEN--\":276:373   */\n      pop\n        /* \"--CODEGEN--\":208:383   */\n      swap3\n      swap2\n      pop\n      pop\n      jump\n        /* \"--CODEGEN--\":390:503   */\n    tag_50:\n        /* \"--CODEGEN--\":473:497   */\n      tag_52\n        /* \"--CODEGEN--\":491:496   */\n      dup2\n        /* \"--CODEGEN--\":473:497   */\n      jump(tag_53)\n    tag_52:\n        /* \"--CODEGEN--\":468:471   */\n      dup3\n        /* \"--CODEGEN--\":461:498   */\n      mstore\n        /* \"--CODEGEN--\":455:503   */\n      pop\n      pop\n      jump\n        /* \"--CODEGEN--\":510:845   */\n    tag_54:\n      0x00\n        /* \"--CODEGEN--\":616:650   */\n      tag_56\n        /* \"--CODEGEN--\":644:649   */\n      dup3\n        /* \"--CODEGEN--\":616:650   */\n      jump(tag_57)\n    tag_56:\n        /* \"--CODEGEN--\":662:732   */\n      tag_58\n        /* \"--CODEGEN--\":725:731   */\n      dup2\n        /* \"--CODEGEN--\":720:723   */\n      dup6\n        /* \"--CODEGEN--\":662:732   */\n      jump(tag_59)\n    tag_58:\n        /* \"--CODEGEN--\":655:732   */\n      swap4\n      pop\n        /* \"--CODEGEN--\":737:789   */\n      tag_60\n        /* \"--CODEGEN--\":782:788   */\n      dup2\n        /* \"--CODEGEN--\":777:780   */\n      dup6\n        /* \"--CODEGEN--\":770:774   */\n      0x20\n        /* \"--CODEGEN--\":763:768   */\n      dup7\n        /* \"--CODEGEN--\":759:775   */\n      add\n        /* \"--CODEGEN--\":737:789   */\n      jump(tag_61)\n    tag_60:\n        /* \"--CODEGEN--\":810:839   */\n      tag_62\n        /* \"--CODEGEN--\":832:838   */\n      dup2\n        /* \"--CODEGEN--\":810:839   */\n      jump(tag_63)\n    tag_62:\n        /* \"--CODEGEN--\":805:808   */\n      dup5\n        /* \"--CODEGEN--\":801:840   */\n      add\n        /* \"--CODEGEN--\":794:840   */\n      swap2\n      pop\n        /* \"--CODEGEN--\":596:845   */\n      pop\n      swap3\n      swap2\n      pop\n      pop\n      jump\n        /* \"--CODEGEN--\":852:965   */\n    tag_64:\n        /* \"--CODEGEN--\":935:959   */\n      tag_66\n        /* \"--CODEGEN--\":953:958   */\n      dup2\n        /* \"--CODEGEN--\":935:959   */\n      jump(tag_67)\n    tag_66:\n        /* \"--CODEGEN--\":930:933   */\n      dup3\n        /* \"--CODEGEN--\":923:960   */\n      mstore\n        /* \"--CODEGEN--\":917:965   */\n      pop\n      pop\n      jump\n        /* \"--CODEGEN--\":972:1185   */\n    tag_20:\n      0x00\n        /* \"--CODEGEN--\":1090:1092   */\n      0x20\n        /* \"--CODEGEN--\":1079:1088   */\n      dup3\n        /* \"--CODEGEN--\":1075:1093   */\n      add\n        /* \"--CODEGEN--\":1067:1093   */\n      swap1\n      pop\n        /* \"--CODEGEN--\":1104:1175   */\n      tag_69\n        /* \"--CODEGEN--\":1172:1173   */\n      0x00\n        /* \"--CODEGEN--\":1161:1170   */\n      dup4\n        /* \"--CODEGEN--\":1157:1174   */\n      add\n        /* \"--CODEGEN--\":1148:1154   */\n      dup5\n        /* \"--CODEGEN--\":1104:1175   */\n      jump(tag_50)\n    tag_69:\n        /* \"--CODEGEN--\":1061:1185   */\n      swap3\n      swap2\n      pop\n      pop\n      jump\n        /* \"--CODEGEN--\":1192:1481   */\n    tag_16:\n      0x00\n        /* \"--CODEGEN--\":1324:1326   */\n      0x20\n        /* \"--CODEGEN--\":1313:1322   */\n      dup3\n        /* \"--CODEGEN--\":1309:1327   */\n      add\n        /* \"--CODEGEN--\":1301:1327   */\n      swap1\n      pop\n        /* \"--CODEGEN--\":1374:1383   */\n      dup2\n        /* \"--CODEGEN--\":1368:1372   */\n      dup2\n        /* \"--CODEGEN--\":1364:1384   */\n      sub\n        /* \"--CODEGEN--\":1360:1361   */\n      0x00\n        /* \"--CODEGEN--\":1349:1358   */\n      dup4\n        /* \"--CODEGEN--\":1345:1362   */\n      add\n        /* \"--CODEGEN--\":1338:1385   */\n      mstore\n        /* \"--CODEGEN--\":1399:1471   */\n      tag_71\n        /* \"--CODEGEN--\":1466:1470   */\n      dup2\n        /* \"--CODEGEN--\":1457:1463   */\n      dup5\n        /* \"--CODEGEN--\":1399:1471   */\n      jump(tag_54)\n    tag_71:\n        /* \"--CODEGEN--\":1391:1471   */\n      swap1\n      pop\n        /* \"--CODEGEN--\":1295:1481   */\n      swap3\n      swap2\n      pop\n      pop\n      jump\n        /* \"--CODEGEN--\":1488:1701   */\n    tag_12:\n      0x00\n        /* \"--CODEGEN--\":1606:1608   */\n      0x20\n        /* \"--CODEGEN--\":1595:1604   */\n      dup3\n        /* \"--CODEGEN--\":1591:1609   */\n      add\n        /* \"--CODEGEN--\":1583:1609   */\n      swap1\n      pop\n        /* \"--CODEGEN--\":1620:1691   */\n      tag_73\n        /* \"--CODEGEN--\":1688:1689   */\n      0x00\n        /* \"--CODEGEN--\":1677:1686   */\n      dup4\n        /* \"--CODEGEN--\":1673:1690   */\n      add\n        /* \"--CODEGEN--\":1664:1670   */\n      dup5\n        /* \"--CODEGEN--\":1620:1691   */\n      jump(tag_64)\n    tag_73:\n        /* \"--CODEGEN--\":1577:1701   */\n      swap3\n      swap2\n      pop\n      pop\n      jump\n        /* \"--CODEGEN--\":1708:1825   */\n    tag_57:\n      0x00\n        /* \"--CODEGEN--\":1797:1802   */\n      dup2\n        /* \"--CODEGEN--\":1791:1803   */\n      mload\n        /* \"--CODEGEN--\":1781:1803   */\n      swap1\n      pop\n        /* \"--CODEGEN--\":1762:1825   */\n      swap2\n      swap1\n      pop\n      jump\n        /* \"--CODEGEN--\":1833:1995   */\n    tag_59:\n      0x00\n        /* \"--CODEGEN--\":1947:1953   */\n      dup3\n        /* \"--CODEGEN--\":1942:1945   */\n      dup3\n        /* \"--CODEGEN--\":1935:1954   */\n      mstore\n        /* \"--CODEGEN--\":1984:1988   */\n      0x20\n        /* \"--CODEGEN--\":1979:1982   */\n      dup3\n        /* \"--CODEGEN--\":1975:1989   */\n      add\n        /* \"--CODEGEN--\":1960:1989   */\n      swap1\n      pop\n        /* \"--CODEGEN--\":1928:1995   */\n      swap3\n      swap2\n      pop\n      pop\n      jump\n        /* \"--CODEGEN--\":2003:2075   */\n    tag_53:\n      0x00\n        /* \"--CODEGEN--\":2065:2070   */\n      dup2\n        /* \"--CODEGEN--\":2054:2070   */\n      swap1\n      pop\n        /* \"--CODEGEN--\":2048:2075   */\n      swap2\n      swap1\n      pop\n      jump\n        /* \"--CODEGEN--\":2082:2154   */\n    tag_67:\n      0x00\n        /* \"--CODEGEN--\":2144:2149   */\n      dup2\n        /* \"--CODEGEN--\":2133:2149   */\n      swap1\n      pop\n        /* \"--CODEGEN--\":2127:2154   */\n      swap2\n      swap1\n      pop\n      jump\n        /* \"--CODEGEN--\":2162:2430   */\n    tag_61:\n        /* \"--CODEGEN--\":2227:2228   */\n      0x00\n        /* \"--CODEGEN--\":2234:2335   */\n    tag_79:\n        /* \"--CODEGEN--\":2248:2254   */\n      dup4\n        /* \"--CODEGEN--\":2245:2246   */\n      dup2\n        /* \"--CODEGEN--\":2242:2255   */\n      lt\n        /* \"--CODEGEN--\":2234:2335   */\n      iszero\n      tag_81\n      jumpi\n        /* \"--CODEGEN--\":2324:2325   */\n      dup1\n        /* \"--CODEGEN--\":2319:2322   */\n      dup3\n        /* \"--CODEGEN--\":2315:2326   */\n      add\n        /* \"--CODEGEN--\":2309:2327   */\n      mload\n        /* \"--CODEGEN--\":2305:2306   */\n      dup2\n        /* \"--CODEGEN--\":2300:2303   */\n      dup5\n        /* \"--CODEGEN--\":2296:2307   */\n      add\n        /* \"--CODEGEN--\":2289:2328   */\n      mstore\n        /* \"--CODEGEN--\":2270:2272   */\n      0x20\n        /* \"--CODEGEN--\":2267:2268   */\n      dup2\n        /* \"--CODEGEN--\":2263:2273   */\n      add\n        /* \"--CODEGEN--\":2258:2273   */\n      swap1\n      pop\n        /* \"--CODEGEN--\":2234:2335   */\n      jump(tag_79)\n    tag_81:\n        /* \"--CODEGEN--\":2350:2356   */\n      dup4\n        /* \"--CODEGEN--\":2347:2348   */\n      dup2\n        /* \"--CODEGEN--\":2344:2357   */\n      gt\n        /* \"--CODEGEN--\":2341:2343   */\n      iszero\n      tag_82\n      jumpi\n        /* \"--CODEGEN--\":2415:2416   */\n      0x00\n        /* \"--CODEGEN--\":2406:2412   */\n      dup5\n        /* \"--CODEGEN--\":2401:2404   */\n      dup5\n        /* \"--CODEGEN--\":2397:2413   */\n      add\n        /* \"--CODEGEN--\":2390:2417   */\n      mstore\n        /* \"--CODEGEN--\":2341:2343   */\n    tag_82:\n        /* \"--CODEGEN--\":2211:2430   */\n      pop\n      pop\n      pop\n      pop\n      jump\n        /* \"--CODEGEN--\":2438:2535   */\n    tag_63:\n      0x00\n        /* \"--CODEGEN--\":2526:2528   */\n      0x1f\n        /* \"--CODEGEN--\":2522:2529   */\n      not\n        /* \"--CODEGEN--\":2517:2519   */\n      0x1f\n        /* \"--CODEGEN--\":2510:2515   */\n      dup4\n        /* \"--CODEGEN--\":2506:2520   */\n      add\n        /* \"--CODEGEN--\":2502:2530   */\n      and\n        /* \"--CODEGEN--\":2492:2530   */\n      swap1\n      pop\n        /* \"--CODEGEN--\":2486:2535   */\n      swap2\n      swap1\n      pop\n      jump\n        /* \"--CODEGEN--\":2543:2660   */\n    tag_46:\n        /* \"--CODEGEN--\":2612:2636   */\n      tag_85\n        /* \"--CODEGEN--\":2630:2635   */\n      dup2\n        /* \"--CODEGEN--\":2612:2636   */\n      jump(tag_67)\n    tag_85:\n        /* \"--CODEGEN--\":2605:2610   */\n      dup2\n        /* \"--CODEGEN--\":2602:2637   */\n      eq\n        /* \"--CODEGEN--\":2592:2594   */\n      tag_86\n      jumpi\n        /* \"--CODEGEN--\":2651:2652   */\n      0x00\n        /* \"--CODEGEN--\":2648:2649   */\n      dup1\n        /* \"--CODEGEN--\":2641:2653   */\n      revert\n        /* \"--CODEGEN--\":2592:2594   */\n    tag_86:\n        /* \"--CODEGEN--\":2586:2660   */\n      pop\n      jump\n\n    auxdata: 0xa2646970667358221220e3702a54a474b68c1d89b01cf388d4a48466ae5e443fcf86867f5eb66764f26364736f6c63430006040033\n}\n",
				"bytecode": {
					"linkReferences": {},
					"object": "60806040526040518060600160405280602e81526020016105b2602e913960009080519060200190610032929190610098565b506040518060600160405280602a81526020016105e0602a913960019080519060200190610061929190610098565b507f4c45484f4e47564f776a6e66766a3377656838764b4a0000000000000000000060025534801561009257600080fd5b5061013d565b828054600181600116156101000203166002900490600052602060002090601f016020900481019282601f106100d957805160ff1916838001178555610107565b82800160010185558215610107579182015b828111156101065782518255916020019190600101906100eb565b5b5090506101149190610118565b5090565b61013a91905b8082111561013657600081600090555060010161011e565b5090565b90565b6104668061014c6000396000f3fe608060405234801561001057600080fd5b506004361061004c5760003560e01c80630178fe3f146100515780639ffd85c414610081578063e3a7fd751461009f578063fc26b0ab146100bd575b600080fd5b61006b600480360381019061006691906102cd565b6100db565b604051610078919061038a565b60405180910390f35b6100896100ed565b6040516100969190610368565b60405180910390f35b6100a761018b565b6040516100b4919061034d565b60405180910390f35b6100c5610191565b6040516100d29190610368565b60405180910390f35b60006100e68261022f565b9050919050565b60008054600181600116156101000203166002900480601f0160208091040260200160405190810160405280929190818152602001828054600181600116156101000203166002900480156101835780601f1061015857610100808354040283529160200191610183565b820191906000526020600020905b81548152906001019060200180831161016657829003601f168201915b505050505081565b60025481565b60018054600181600116156101000203166002900480601f0160208091040260200160405190810160405280929190818152602001828054600181600116156101000203166002900480156102275780601f106101fc57610100808354040283529160200191610227565b820191906000526020600020905b81548152906001019060200180831161020a57829003601f168201915b505050505081565b600080825160001a9050608060ff1681101561024f5760009150506102b3565b60b860ff16811080610274575060c060ff168110158015610273575060f860ff1681105b5b156102835760019150506102b3565b60c060ff168110156102a35760018060b80360ff168203019150506102b3565b60018060f80360ff168203019150505b919050565b6000813590506102c781610419565b92915050565b6000602082840312156102df57600080fd5b60006102ed848285016102b8565b91505092915050565b6102ff816103c1565b82525050565b6000610310826103a5565b61031a81856103b0565b935061032a8185602086016103d5565b61033381610408565b840191505092915050565b610347816103cb565b82525050565b600060208201905061036260008301846102f6565b92915050565b600060208201905081810360008301526103828184610305565b905092915050565b600060208201905061039f600083018461033e565b92915050565b600081519050919050565b600082825260208201905092915050565b6000819050919050565b6000819050919050565b60005b838110156103f35780820151818401526020810190506103d8565b83811115610402576000848401525b50505050565b6000601f19601f8301169050919050565b610422816103cb565b811461042d57600080fd5b5056fea2646970667358221220e3702a54a474b68c1d89b01cf388d4a48466ae5e443fcf86867f5eb66764f26364736f6c634300060400334e414c4548484a534744534447484a534448535548444a5348444a53484a53484a534844534a44484a4f4e47564f7364664e417364667364664c4548484a5347445348444a53484a53484a534844534a44484a4f4e47564f",
					"opcodes": "PUSH1 0x80 PUSH1 0x40 MSTORE PUSH1 0x40 MLOAD DUP1 PUSH1 0x60 ADD PUSH1 0x40 MSTORE DUP1 PUSH1 0x2E DUP2 MSTORE PUSH1 0x20 ADD PUSH2 0x5B2 PUSH1 0x2E SWAP2 CODECOPY PUSH1 0x0 SWAP1 DUP1 MLOAD SWAP1 PUSH1 0x20 ADD SWAP1 PUSH2 0x32 SWAP3 SWAP2 SWAP1 PUSH2 0x98 JUMP JUMPDEST POP PUSH1 0x40 MLOAD DUP1 PUSH1 0x60 ADD PUSH1 0x40 MSTORE DUP1 PUSH1 0x2A DUP2 MSTORE PUSH1 0x20 ADD PUSH2 0x5E0 PUSH1 0x2A SWAP2 CODECOPY PUSH1 0x1 SWAP1 DUP1 MLOAD SWAP1 PUSH1 0x20 ADD SWAP1 PUSH2 0x61 SWAP3 SWAP2 SWAP1 PUSH2 0x98 JUMP JUMPDEST POP PUSH32 0x4C45484F4E47564F776A6E66766A3377656838764B4A00000000000000000000 PUSH1 0x2 SSTORE CALLVALUE DUP1 ISZERO PUSH2 0x92 JUMPI PUSH1 0x0 DUP1 REVERT JUMPDEST POP PUSH2 0x13D JUMP JUMPDEST DUP3 DUP1 SLOAD PUSH1 0x1 DUP2 PUSH1 0x1 AND ISZERO PUSH2 0x100 MUL SUB AND PUSH1 0x2 SWAP1 DIV SWAP1 PUSH1 0x0 MSTORE PUSH1 0x20 PUSH1 0x0 KECCAK256 SWAP1 PUSH1 0x1F ADD PUSH1 0x20 SWAP1 DIV DUP2 ADD SWAP3 DUP3 PUSH1 0x1F LT PUSH2 0xD9 JUMPI DUP1 MLOAD PUSH1 0xFF NOT AND DUP4 DUP1 ADD OR DUP6 SSTORE PUSH2 0x107 JUMP JUMPDEST DUP3 DUP1 ADD PUSH1 0x1 ADD DUP6 SSTORE DUP3 ISZERO PUSH2 0x107 JUMPI SWAP2 DUP3 ADD JUMPDEST DUP3 DUP2 GT ISZERO PUSH2 0x106 JUMPI DUP3 MLOAD DUP3 SSTORE SWAP2 PUSH1 0x20 ADD SWAP2 SWAP1 PUSH1 0x1 ADD SWAP1 PUSH2 0xEB JUMP JUMPDEST JUMPDEST POP SWAP1 POP PUSH2 0x114 SWAP2 SWAP1 PUSH2 0x118 JUMP JUMPDEST POP SWAP1 JUMP JUMPDEST PUSH2 0x13A SWAP2 SWAP1 JUMPDEST DUP1 DUP3 GT ISZERO PUSH2 0x136 JUMPI PUSH1 0x0 DUP2 PUSH1 0x0 SWAP1 SSTORE POP PUSH1 0x1 ADD PUSH2 0x11E JUMP JUMPDEST POP SWAP1 JUMP JUMPDEST SWAP1 JUMP JUMPDEST PUSH2 0x466 DUP1 PUSH2 0x14C PUSH1 0x0 CODECOPY PUSH1 0x0 RETURN INVALID PUSH1 0x80 PUSH1 0x40 MSTORE CALLVALUE DUP1 ISZERO PUSH2 0x10 JUMPI PUSH1 0x0 DUP1 REVERT JUMPDEST POP PUSH1 0x4 CALLDATASIZE LT PUSH2 0x4C JUMPI PUSH1 0x0 CALLDATALOAD PUSH1 0xE0 SHR DUP1 PUSH4 0x178FE3F EQ PUSH2 0x51 JUMPI DUP1 PUSH4 0x9FFD85C4 EQ PUSH2 0x81 JUMPI DUP1 PUSH4 0xE3A7FD75 EQ PUSH2 0x9F JUMPI DUP1 PUSH4 0xFC26B0AB EQ PUSH2 0xBD JUMPI JUMPDEST PUSH1 0x0 DUP1 REVERT JUMPDEST PUSH2 0x6B PUSH1 0x4 DUP1 CALLDATASIZE SUB DUP2 ADD SWAP1 PUSH2 0x66 SWAP2 SWAP1 PUSH2 0x2CD JUMP JUMPDEST PUSH2 0xDB JUMP JUMPDEST PUSH1 0x40 MLOAD PUSH2 0x78 SWAP2 SWAP1 PUSH2 0x38A JUMP JUMPDEST PUSH1 0x40 MLOAD DUP1 SWAP2 SUB SWAP1 RETURN JUMPDEST PUSH2 0x89 PUSH2 0xED JUMP JUMPDEST PUSH1 0x40 MLOAD PUSH2 0x96 SWAP2 SWAP1 PUSH2 0x368 JUMP JUMPDEST PUSH1 0x40 MLOAD DUP1 SWAP2 SUB SWAP1 RETURN JUMPDEST PUSH2 0xA7 PUSH2 0x18B JUMP JUMPDEST PUSH1 0x40 MLOAD PUSH2 0xB4 SWAP2 SWAP1 PUSH2 0x34D JUMP JUMPDEST PUSH1 0x40 MLOAD DUP1 SWAP2 SUB SWAP1 RETURN JUMPDEST PUSH2 0xC5 PUSH2 0x191 JUMP JUMPDEST PUSH1 0x40 MLOAD PUSH2 0xD2 SWAP2 SWAP1 PUSH2 0x368 JUMP JUMPDEST PUSH1 0x40 MLOAD DUP1 SWAP2 SUB SWAP1 RETURN JUMPDEST PUSH1 0x0 PUSH2 0xE6 DUP3 PUSH2 0x22F JUMP JUMPDEST SWAP1 POP SWAP2 SWAP1 POP JUMP JUMPDEST PUSH1 0x0 DUP1 SLOAD PUSH1 0x1 DUP2 PUSH1 0x1 AND ISZERO PUSH2 0x100 MUL SUB AND PUSH1 0x2 SWAP1 DIV DUP1 PUSH1 0x1F ADD PUSH1 0x20 DUP1 SWAP2 DIV MUL PUSH1 0x20 ADD PUSH1 0x40 MLOAD SWAP1 DUP2 ADD PUSH1 0x40 MSTORE DUP1 SWAP3 SWAP2 SWAP1 DUP2 DUP2 MSTORE PUSH1 0x20 ADD DUP3 DUP1 SLOAD PUSH1 0x1 DUP2 PUSH1 0x1 AND ISZERO PUSH2 0x100 MUL SUB AND PUSH1 0x2 SWAP1 DIV DUP1 ISZERO PUSH2 0x183 JUMPI DUP1 PUSH1 0x1F LT PUSH2 0x158 JUMPI PUSH2 0x100 DUP1 DUP4 SLOAD DIV MUL DUP4 MSTORE SWAP2 PUSH1 0x20 ADD SWAP2 PUSH2 0x183 JUMP JUMPDEST DUP3 ADD SWAP2 SWAP1 PUSH1 0x0 MSTORE PUSH1 0x20 PUSH1 0x0 KECCAK256 SWAP1 JUMPDEST DUP2 SLOAD DUP2 MSTORE SWAP1 PUSH1 0x1 ADD SWAP1 PUSH1 0x20 ADD DUP1 DUP4 GT PUSH2 0x166 JUMPI DUP3 SWAP1 SUB PUSH1 0x1F AND DUP3 ADD SWAP2 JUMPDEST POP POP POP POP POP DUP2 JUMP JUMPDEST PUSH1 0x2 SLOAD DUP2 JUMP JUMPDEST PUSH1 0x1 DUP1 SLOAD PUSH1 0x1 DUP2 PUSH1 0x1 AND ISZERO PUSH2 0x100 MUL SUB AND PUSH1 0x2 SWAP1 DIV DUP1 PUSH1 0x1F ADD PUSH1 0x20 DUP1 SWAP2 DIV MUL PUSH1 0x20 ADD PUSH1 0x40 MLOAD SWAP1 DUP2 ADD PUSH1 0x40 MSTORE DUP1 SWAP3 SWAP2 SWAP1 DUP2 DUP2 MSTORE PUSH1 0x20 ADD DUP3 DUP1 SLOAD PUSH1 0x1 DUP2 PUSH1 0x1 AND ISZERO PUSH2 0x100 MUL SUB AND PUSH1 0x2 SWAP1 DIV DUP1 ISZERO PUSH2 0x227 JUMPI DUP1 PUSH1 0x1F LT PUSH2 0x1FC JUMPI PUSH2 0x100 DUP1 DUP4 SLOAD DIV MUL DUP4 MSTORE SWAP2 PUSH1 0x20 ADD SWAP2 PUSH2 0x227 JUMP JUMPDEST DUP3 ADD SWAP2 SWAP1 PUSH1 0x0 MSTORE PUSH1 0x20 PUSH1 0x0 KECCAK256 SWAP1 JUMPDEST DUP2 SLOAD DUP2 MSTORE SWAP1 PUSH1 0x1 ADD SWAP1 PUSH1 0x20 ADD DUP1 DUP4 GT PUSH2 0x20A JUMPI DUP3 SWAP1 SUB PUSH1 0x1F AND DUP3 ADD SWAP2 JUMPDEST POP POP POP POP POP DUP2 JUMP JUMPDEST PUSH1 0x0 DUP1 DUP3 MLOAD PUSH1 0x0 BYTE SWAP1 POP PUSH1 0x80 PUSH1 0xFF AND DUP2 LT ISZERO PUSH2 0x24F JUMPI PUSH1 0x0 SWAP2 POP POP PUSH2 0x2B3 JUMP JUMPDEST PUSH1 0xB8 PUSH1 0xFF AND DUP2 LT DUP1 PUSH2 0x274 JUMPI POP PUSH1 0xC0 PUSH1 0xFF AND DUP2 LT ISZERO DUP1 ISZERO PUSH2 0x273 JUMPI POP PUSH1 0xF8 PUSH1 0xFF AND DUP2 LT JUMPDEST JUMPDEST ISZERO PUSH2 0x283 JUMPI PUSH1 0x1 SWAP2 POP POP PUSH2 0x2B3 JUMP JUMPDEST PUSH1 0xC0 PUSH1 0xFF AND DUP2 LT ISZERO PUSH2 0x2A3 JUMPI PUSH1 0x1 DUP1 PUSH1 0xB8 SUB PUSH1 0xFF AND DUP3 SUB ADD SWAP2 POP POP PUSH2 0x2B3 JUMP JUMPDEST PUSH1 0x1 DUP1 PUSH1 0xF8 SUB PUSH1 0xFF AND DUP3 SUB ADD SWAP2 POP POP JUMPDEST SWAP2 SWAP1 POP JUMP JUMPDEST PUSH1 0x0 DUP2 CALLDATALOAD SWAP1 POP PUSH2 0x2C7 DUP2 PUSH2 0x419 JUMP JUMPDEST SWAP3 SWAP2 POP POP JUMP JUMPDEST PUSH1 0x0 PUSH1 0x20 DUP3 DUP5 SUB SLT ISZERO PUSH2 0x2DF JUMPI PUSH1 0x0 DUP1 REVERT JUMPDEST PUSH1 0x0 PUSH2 0x2ED DUP5 DUP3 DUP6 ADD PUSH2 0x2B8 JUMP JUMPDEST SWAP2 POP POP SWAP3 SWAP2 POP POP JUMP JUMPDEST PUSH2 0x2FF DUP2 PUSH2 0x3C1 JUMP JUMPDEST DUP3 MSTORE POP POP JUMP JUMPDEST PUSH1 0x0 PUSH2 0x310 DUP3 PUSH2 0x3A5 JUMP JUMPDEST PUSH2 0x31A DUP2 DUP6 PUSH2 0x3B0 JUMP JUMPDEST SWAP4 POP PUSH2 0x32A DUP2 DUP6 PUSH1 0x20 DUP7 ADD PUSH2 0x3D5 JUMP JUMPDEST PUSH2 0x333 DUP2 PUSH2 0x408 JUMP JUMPDEST DUP5 ADD SWAP2 POP POP SWAP3 SWAP2 POP POP JUMP JUMPDEST PUSH2 0x347 DUP2 PUSH2 0x3CB JUMP JUMPDEST DUP3 MSTORE POP POP JUMP JUMPDEST PUSH1 0x0 PUSH1 0x20 DUP3 ADD SWAP1 POP PUSH2 0x362 PUSH1 0x0 DUP4 ADD DUP5 PUSH2 0x2F6 JUMP JUMPDEST SWAP3 SWAP2 POP POP JUMP JUMPDEST PUSH1 0x0 PUSH1 0x20 DUP3 ADD SWAP1 POP DUP2 DUP2 SUB PUSH1 0x0 DUP4 ADD MSTORE PUSH2 0x382 DUP2 DUP5 PUSH2 0x305 JUMP JUMPDEST SWAP1 POP SWAP3 SWAP2 POP POP JUMP JUMPDEST PUSH1 0x0 PUSH1 0x20 DUP3 ADD SWAP1 POP PUSH2 0x39F PUSH1 0x0 DUP4 ADD DUP5 PUSH2 0x33E JUMP JUMPDEST SWAP3 SWAP2 POP POP JUMP JUMPDEST PUSH1 0x0 DUP2 MLOAD SWAP1 POP SWAP2 SWAP1 POP JUMP JUMPDEST PUSH1 0x0 DUP3 DUP3 MSTORE PUSH1 0x20 DUP3 ADD SWAP1 POP SWAP3 SWAP2 POP POP JUMP JUMPDEST PUSH1 0x0 DUP2 SWAP1 POP SWAP2 SWAP1 POP JUMP JUMPDEST PUSH1 0x0 DUP2 SWAP1 POP SWAP2 SWAP1 POP JUMP JUMPDEST PUSH1 0x0 JUMPDEST DUP4 DUP2 LT ISZERO PUSH2 0x3F3 JUMPI DUP1 DUP3 ADD MLOAD DUP2 DUP5 ADD MSTORE PUSH1 0x20 DUP2 ADD SWAP1 POP PUSH2 0x3D8 JUMP JUMPDEST DUP4 DUP2 GT ISZERO PUSH2 0x402 JUMPI PUSH1 0x0 DUP5 DUP5 ADD MSTORE JUMPDEST POP POP POP POP JUMP JUMPDEST PUSH1 0x0 PUSH1 0x1F NOT PUSH1 0x1F DUP4 ADD AND SWAP1 POP SWAP2 SWAP1 POP JUMP JUMPDEST PUSH2 0x422 DUP2 PUSH2 0x3CB JUMP JUMPDEST DUP2 EQ PUSH2 0x42D JUMPI PUSH1 0x0 DUP1 REVERT JUMPDEST POP JUMP INVALID LOG2 PUSH5 0x6970667358 0x22 SLT KECCAK256 0xE3 PUSH17 0x2A54A474B68C1D89B01CF388D4A48466AE 0x5E DIFFICULTY EXTCODEHASH 0xCF DUP7 DUP7 PUSH32 0x5EB66764F26364736F6C634300060400334E414C4548484A534744534447484A MSTORE8 DIFFICULTY 0x48 MSTORE8 SSTORE 0x48 DIFFICULTY 0x4A MSTORE8 0x48 DIFFICULTY 0x4A MSTORE8 0x48 0x4A MSTORE8 0x48 0x4A MSTORE8 0x48 DIFFICULTY MSTORE8 0x4A DIFFICULTY 0x48 0x4A 0x4F 0x4E SELFBALANCE JUMP 0x4F PUSH20 0x64664E417364667364664C4548484A5347445348 DIFFICULTY 0x4A MSTORE8 0x48 0x4A MSTORE8 0x48 0x4A MSTORE8 0x48 DIFFICULTY MSTORE8 0x4A DIFFICULTY 0x48 0x4A 0x4F 0x4E SELFBALANCE JUMP 0x4F "
				},
				"gasEstimates": {
					"creation": {
						"codeDepositCost": "225200",
						"executionCost": "infinite",
						"totalCost": "infinite"
					},
					"external": {
						"data1()": "infinite",
						"data2()": "1151",
						"data3()": "infinite",
						"getData(uint256)": "infinite"
					},
					"internal": {
						"_itemLength(uint256)": "infinite",
						"_payloadOffset(uint256)": "infinite",
						"copy(uint256,uint256,uint256)": "infinite"
					}
				},
				"methodIdentifiers": {
					"data1()": "9ffd85c4",
					"data2()": "e3a7fd75",
					"data3()": "fc26b0ab",
					"getData(uint256)": "0178fe3f"
				}
			},
			"userdoc": {
				"methods": {}
			}
		}
	}
}