{
	"contracts/demo2.sol": {
		"demo2": {
			"abi": [
				{
					"inputs": [],
					"name": "data1",
					"outputs": [
						{
							"internalType": "bytes",
							"name": "",
							"type": "bytes"
						}
					],
					"stateMutability": "view",
					"type": "function"
				},
				{
					"inputs": [],
					"name": "data2",
					"outputs": [
						{
							"internalType": "bytes32",
							"name": "",
							"type": "bytes32"
						}
					],
					"stateMutability": "view",
					"type": "function"
				},
				{
					"inputs": [],
					"name": "data3",
					"outputs": [
						{
							"internalType": "bytes",
							"name": "",
							"type": "bytes"
						}
					],
					"stateMutability": "view",
					"type": "function"
				},
				{
					"inputs": [
						{
							"internalType": "address",
							"name": "self",
							"type": "address"
						}
					],
					"name": "getData",
					"outputs": [
						{
							"internalType": "bytes",
							"name": "",
							"type": "bytes"
						}
					],
					"stateMutability": "view",
					"type": "function"
				}
			],
			"devdoc": {
				"methods": {}
			},
			"evm": {
				"assembly": "    /* \"contracts/demo2.sol\":81:6580  contract demo2 {\r... */\n  mstore(0x40, 0x80)\n    /* \"contracts/demo2.sol\":107:176  bytes public data1 = \"NALEHHJSGDSDGHJSDHSUHDJSHDJSHJSHJSHDSJDHJONGVO\" */\n  mload(0x40)\n  dup1\n  0x60\n  add\n  0x40\n  mstore\n  dup1\n  0x2e\n  dup2\n  mstore\n  0x20\n  add\n  data_4887836e294a2761413359597244d307bbe3f94827f6160d9e1a399e00e2d1be\n  0x2e\n  swap2\n  codecopy\n  0x00\n  swap1\n  dup1\n  mload\n  swap1\n  0x20\n  add\n  swap1\n  tag_1\n  swap3\n  swap2\n  swap1\n  tag_2\n  jump\t// in\ntag_1:\n  pop\n    /* \"contracts/demo2.sol\":187:252  bytes public data3 = \"sdfNAsdfsdfLEHHJSGDSHDJSHJSHJSHDSJDHJONGVO\" */\n  mload(0x40)\n  dup1\n  0x60\n  add\n  0x40\n  mstore\n  dup1\n  0x2a\n  dup2\n  mstore\n  0x20\n  add\n  data_c359735a342ece061e65ab7390d246d1e53ba5f24eea70d6201f1d4a7b2f3475\n  0x2a\n  swap2\n  codecopy\n  0x01\n  swap1\n  dup1\n  mload\n  swap1\n  0x20\n  add\n  swap1\n  tag_3\n  swap3\n  swap2\n  swap1\n  tag_2\n  jump\t// in\ntag_3:\n  pop\n    /* \"contracts/demo2.sol\":263:310  bytes32 public data2 = \"LEHONGVOwjnfvj3weh8vKJ\" */\n  sstore(0x02, 0x4c45484f4e47564f776a6e66766a3377656838764b4a00000000000000000000)\n    /* \"contracts/demo2.sol\":81:6580  contract demo2 {\r... */\n  callvalue\n    /* \"--CODEGEN--\":5:14   */\n  dup1\n    /* \"--CODEGEN--\":2:4   */\n  iszero\n  tag_4\n  jumpi\n    /* \"--CODEGEN--\":27:28   */\n  0x00\n    /* \"--CODEGEN--\":24:25   */\n  dup1\n    /* \"--CODEGEN--\":17:29   */\n  revert\n    /* \"--CODEGEN--\":2:4   */\ntag_4:\n    /* \"contracts/demo2.sol\":81:6580  contract demo2 {\r... */\n  pop\n  jump(tag_5)\ntag_2:\n  dup3\n  dup1\n  sload\n  0x01\n  dup2\n  0x01\n  and\n  iszero\n  0x0100\n  mul\n  sub\n  and\n  0x02\n  swap1\n  div\n  swap1\n  0x00\n  mstore\n  keccak256(0x00, 0x20)\n  swap1\n  0x1f\n  add\n  0x20\n  swap1\n  div\n  dup2\n  add\n  swap3\n  dup3\n  0x1f\n  lt\n  tag_7\n  jumpi\n  dup1\n  mload\n  not(0xff)\n  and\n  dup4\n  dup1\n  add\n  or\n  dup6\n  sstore\n  jump(tag_6)\ntag_7:\n  dup3\n  dup1\n  add\n  0x01\n  add\n  dup6\n  sstore\n  dup3\n  iszero\n  tag_6\n  jumpi\n  swap2\n  dup3\n  add\ntag_8:\n  dup3\n  dup2\n  gt\n  iszero\n  tag_9\n  jumpi\n  dup3\n  mload\n  dup3\n  sstore\n  swap2\n  0x20\n  add\n  swap2\n  swap1\n  0x01\n  add\n  swap1\n  jump(tag_8)\ntag_9:\ntag_6:\n  pop\n  swap1\n  pop\n  tag_10\n  swap2\n  swap1\n  tag_11\n  jump\t// in\ntag_10:\n  pop\n  swap1\n  jump\t// out\ntag_11:\n  tag_12\n  swap2\n  swap1\ntag_13:\n  dup1\n  dup3\n  gt\n  iszero\n  tag_14\n  jumpi\n  0x00\n  dup2\n  0x00\n  swap1\n  sstore\n  pop\n  0x01\n  add\n  jump(tag_13)\ntag_14:\n  pop\n  swap1\n  jump\ntag_12:\n  swap1\n  jump\t// out\ntag_5:\n  dataSize(sub_0)\n  dup1\n  dataOffset(sub_0)\n  0x00\n  codecopy\n  0x00\n  return\nstop\ndata_4887836e294a2761413359597244d307bbe3f94827f6160d9e1a399e00e2d1be 4e414c4548484a534744534447484a534448535548444a5348444a53484a53484a534844534a44484a4f4e47564f\ndata_c359735a342ece061e65ab7390d246d1e53ba5f24eea70d6201f1d4a7b2f3475 7364664e417364667364664c4548484a5347445348444a53484a53484a534844534a44484a4f4e47564f\n\nsub_0: assembly {\n        /* \"contracts/demo2.sol\":81:6580  contract demo2 {\r... */\n      mstore(0x40, 0x80)\n      callvalue\n        /* \"--CODEGEN--\":5:14   */\n      dup1\n        /* \"--CODEGEN--\":2:4   */\n      iszero\n      tag_1\n      jumpi\n        /* \"--CODEGEN--\":27:28   */\n      0x00\n        /* \"--CODEGEN--\":24:25   */\n      dup1\n        /* \"--CODEGEN--\":17:29   */\n      revert\n        /* \"--CODEGEN--\":2:4   */\n    tag_1:\n        /* \"contracts/demo2.sol\":81:6580  contract demo2 {\r... */\n      pop\n      jumpi(tag_2, lt(calldatasize, 0x04))\n      shr(0xe0, calldataload(0x00))\n      dup1\n      0x38266b22\n      eq\n      tag_3\n      jumpi\n      dup1\n      0x9ffd85c4\n      eq\n      tag_4\n      jumpi\n      dup1\n      0xe3a7fd75\n      eq\n      tag_5\n      jumpi\n      dup1\n      0xfc26b0ab\n      eq\n      tag_6\n      jumpi\n    tag_2:\n        /* \"--CODEGEN--\":12:13   */\n      0x00\n        /* \"--CODEGEN--\":9:10   */\n      dup1\n        /* \"--CODEGEN--\":2:14   */\n      revert\n        /* \"contracts/demo2.sol\":417:535  function getData(address self) public view returns(bytes memory) {\r... */\n    tag_3:\n      tag_7\n      0x04\n      dup1\n      calldatasize\n      sub\n      dup2\n      add\n      swap1\n      tag_8\n      swap2\n      swap1\n      jump(tag_9)\n    tag_8:\n      tag_10\n      jump\t// in\n    tag_7:\n      mload(0x40)\n      tag_11\n      swap2\n      swap1\n      jump(tag_12)\n    tag_11:\n      mload(0x40)\n      dup1\n      swap2\n      sub\n      swap1\n      return\n        /* \"contracts/demo2.sol\":107:176  bytes public data1 = \"NALEHHJSGDSDGHJSDHSUHDJSHDJSHJSHJSHDSJDHJONGVO\" */\n    tag_4:\n      tag_13\n      tag_14\n      jump\t// in\n    tag_13:\n      mload(0x40)\n      tag_15\n      swap2\n      swap1\n      jump(tag_16)\n    tag_15:\n      mload(0x40)\n      dup1\n      swap2\n      sub\n      swap1\n      return\n        /* \"contracts/demo2.sol\":263:310  bytes32 public data2 = \"LEHONGVOwjnfvj3weh8vKJ\" */\n    tag_5:\n      tag_17\n      tag_18\n      jump\t// in\n    tag_17:\n      mload(0x40)\n      tag_19\n      swap2\n      swap1\n      jump(tag_20)\n    tag_19:\n      mload(0x40)\n      dup1\n      swap2\n      sub\n      swap1\n      return\n        /* \"contracts/demo2.sol\":187:252  bytes public data3 = \"sdfNAsdfsdfLEHHJSGDSHDJSHJSHJSHDSJDHJONGVO\" */\n    tag_6:\n      tag_21\n      tag_22\n      jump\t// in\n    tag_21:\n      mload(0x40)\n      tag_23\n      swap2\n      swap1\n      jump(tag_16)\n    tag_23:\n      mload(0x40)\n      dup1\n      swap2\n      sub\n      swap1\n      return\n        /* \"contracts/demo2.sol\":417:535  function getData(address self) public view returns(bytes memory) {\r... */\n    tag_10:\n        /* \"contracts/demo2.sol\":468:480  bytes memory */\n      0x60\n        /* \"contracts/demo2.sol\":504:523  encodeAddress(self) */\n      tag_25\n        /* \"contracts/demo2.sol\":518:522  self */\n      dup3\n        /* \"contracts/demo2.sol\":504:517  encodeAddress */\n      tag_26\n        /* \"contracts/demo2.sol\":504:523  encodeAddress(self) */\n      jump\t// in\n    tag_25:\n        /* \"contracts/demo2.sol\":497:523  return encodeAddress(self) */\n      swap1\n      pop\n        /* \"contracts/demo2.sol\":417:535  function getData(address self) public view returns(bytes memory) {\r... */\n      swap2\n      swap1\n      pop\n      jump\t// out\n        /* \"contracts/demo2.sol\":107:176  bytes public data1 = \"NALEHHJSGDSDGHJSDHSUHDJSHDJSHJSHJSHDSJDHJONGVO\" */\n    tag_14:\n      0x00\n      dup1\n      sload\n      0x01\n      dup2\n      0x01\n      and\n      iszero\n      0x0100\n      mul\n      sub\n      and\n      0x02\n      swap1\n      div\n      dup1\n      0x1f\n      add\n      0x20\n      dup1\n      swap2\n      div\n      mul\n      0x20\n      add\n      mload(0x40)\n      swap1\n      dup2\n      add\n      0x40\n      mstore\n      dup1\n      swap3\n      swap2\n      swap1\n      dup2\n      dup2\n      mstore\n      0x20\n      add\n      dup3\n      dup1\n      sload\n      0x01\n      dup2\n      0x01\n      and\n      iszero\n      0x0100\n      mul\n      sub\n      and\n      0x02\n      swap1\n      div\n      dup1\n      iszero\n      tag_27\n      jumpi\n      dup1\n      0x1f\n      lt\n      tag_28\n      jumpi\n      0x0100\n      dup1\n      dup4\n      sload\n      div\n      mul\n      dup4\n      mstore\n      swap2\n      0x20\n      add\n      swap2\n      jump(tag_27)\n    tag_28:\n      dup3\n      add\n      swap2\n      swap1\n      0x00\n      mstore\n      keccak256(0x00, 0x20)\n      swap1\n    tag_29:\n      dup2\n      sload\n      dup2\n      mstore\n      swap1\n      0x01\n      add\n      swap1\n      0x20\n      add\n      dup1\n      dup4\n      gt\n      tag_29\n      jumpi\n      dup3\n      swap1\n      sub\n      0x1f\n      and\n      dup3\n      add\n      swap2\n    tag_27:\n      pop\n      pop\n      pop\n      pop\n      pop\n      dup2\n      jump\t// out\n        /* \"contracts/demo2.sol\":263:310  bytes32 public data2 = \"LEHONGVOwjnfvj3weh8vKJ\" */\n    tag_18:\n      sload(0x02)\n      dup2\n      jump\t// out\n        /* \"contracts/demo2.sol\":187:252  bytes public data3 = \"sdfNAsdfsdfLEHHJSGDSHDJSHJSHJSHDSJDHJONGVO\" */\n    tag_22:\n      0x01\n      dup1\n      sload\n      0x01\n      dup2\n      0x01\n      and\n      iszero\n      0x0100\n      mul\n      sub\n      and\n      0x02\n      swap1\n      div\n      dup1\n      0x1f\n      add\n      0x20\n      dup1\n      swap2\n      div\n      mul\n      0x20\n      add\n      mload(0x40)\n      swap1\n      dup2\n      add\n      0x40\n      mstore\n      dup1\n      swap3\n      swap2\n      swap1\n      dup2\n      dup2\n      mstore\n      0x20\n      add\n      dup3\n      dup1\n      sload\n      0x01\n      dup2\n      0x01\n      and\n      iszero\n      0x0100\n      mul\n      sub\n      and\n      0x02\n      swap1\n      div\n      dup1\n      iszero\n      tag_30\n      jumpi\n      dup1\n      0x1f\n      lt\n      tag_31\n      jumpi\n      0x0100\n      dup1\n      dup4\n      sload\n      div\n      mul\n      dup4\n      mstore\n      swap2\n      0x20\n      add\n      swap2\n      jump(tag_30)\n    tag_31:\n      dup3\n      add\n      swap2\n      swap1\n      0x00\n      mstore\n      keccak256(0x00, 0x20)\n      swap1\n    tag_32:\n      dup2\n      sload\n      dup2\n      mstore\n      swap1\n      0x01\n      add\n      swap1\n      0x20\n      add\n      dup1\n      dup4\n      gt\n      tag_32\n      jumpi\n      dup3\n      swap1\n      sub\n      0x1f\n      and\n      dup3\n      add\n      swap2\n    tag_30:\n      pop\n      pop\n      pop\n      pop\n      pop\n      dup2\n      jump\t// out\n        /* \"contracts/demo2.sol\":839:1226  function encodeAddress(address self) internal pure returns (bytes memory) {\r... */\n    tag_26:\n        /* \"contracts/demo2.sol\":899:911  bytes memory */\n      0x60\n        /* \"contracts/demo2.sol\":928:942  bytes memory b */\n      dup1\n        /* \"contracts/demo2.sol\":1000:1004  0x40 */\n      0x40\n        /* \"contracts/demo2.sol\":994:1005  mload(0x40) */\n      mload\n        /* \"contracts/demo2.sol\":1092:1096  self */\n      dup4\n        /* \"contracts/demo2.sol\":1046:1090  0x140000000000000000000000000000000000000000 */\n      0x140000000000000000000000000000000000000000\n        /* \"contracts/demo2.sol\":1042:1097  xor(0x140000000000000000000000000000000000000000, self) */\n      xor\n        /* \"contracts/demo2.sol\":1037:1039  20 */\n      0x14\n        /* \"contracts/demo2.sol\":1034:1035  m */\n      dup3\n        /* \"contracts/demo2.sol\":1030:1040  add(m, 20) */\n      add\n        /* \"contracts/demo2.sol\":1023:1098  mstore(add(m, 20), xor(0x140000000000000000000000000000000000000000, self)) */\n      mstore\n        /* \"contracts/demo2.sol\":1136:1138  52 */\n      0x34\n        /* \"contracts/demo2.sol\":1133:1134  m */\n      dup2\n        /* \"contracts/demo2.sol\":1129:1139  add(m, 52) */\n      add\n        /* \"contracts/demo2.sol\":1123:1127  0x40 */\n      0x40\n        /* \"contracts/demo2.sol\":1116:1140  mstore(0x40, add(m, 52)) */\n      mstore\n        /* \"contracts/demo2.sol\":1163:1164  m */\n      dup1\n        /* \"contracts/demo2.sol\":1158:1164  b := m */\n      swap2\n      pop\n        /* \"contracts/demo2.sol\":966:1179  {\r... */\n      pop\n        /* \"contracts/demo2.sol\":1200:1214  encodeBytes(b) */\n      tag_34\n        /* \"contracts/demo2.sol\":1212:1213  b */\n      dup2\n        /* \"contracts/demo2.sol\":1200:1211  encodeBytes */\n      tag_35\n        /* \"contracts/demo2.sol\":1200:1214  encodeBytes(b) */\n      jump\t// in\n    tag_34:\n        /* \"contracts/demo2.sol\":1193:1214  return encodeBytes(b) */\n      swap2\n      pop\n      pop\n        /* \"contracts/demo2.sol\":839:1226  function encodeAddress(address self) internal pure returns (bytes memory) {\r... */\n      swap2\n      swap1\n      pop\n      jump\t// out\n        /* \"contracts/demo2.sol\":555:825  function encodeBytes(bytes memory self) internal pure returns (bytes memory) {\r... */\n    tag_35:\n        /* \"contracts/demo2.sol\":618:630  bytes memory */\n      0x60\n        /* \"contracts/demo2.sol\":666:667  1 */\n      0x01\n        /* \"contracts/demo2.sol\":651:655  self */\n      dup3\n        /* \"contracts/demo2.sol\":651:662  self.length */\n      mload\n        /* \"contracts/demo2.sol\":651:667  self.length == 1 */\n      eq\n        /* \"contracts/demo2.sol\":651:686  self.length == 1 && self[0] <= 0x7f */\n      dup1\n      iszero\n      tag_37\n      jumpi\n      pop\n        /* \"contracts/demo2.sol\":682:686  0x7f */\n      0x7f\n        /* \"contracts/demo2.sol\":671:686  self[0] <= 0x7f */\n      0xf8\n      shl\n        /* \"contracts/demo2.sol\":671:675  self */\n      dup3\n        /* \"contracts/demo2.sol\":676:677  0 */\n      0x00\n        /* \"contracts/demo2.sol\":671:678  self[0] */\n      dup2\n      mload\n      dup2\n      lt\n      tag_38\n      jumpi\n      invalid\n    tag_38:\n      0x20\n      add\n      add\n      mload\n      0xf8\n      shr\n      0xf8\n      shl\n        /* \"contracts/demo2.sol\":671:686  self[0] <= 0x7f */\n      not(0xffffffffffffffffffffffffffffffffffffffffffffffffffffffffffffff)\n      and\n      gt\n      iszero\n        /* \"contracts/demo2.sol\":651:686  self.length == 1 && self[0] <= 0x7f */\n    tag_37:\n        /* \"contracts/demo2.sol\":647:734  if (self.length == 1 && self[0] <= 0x7f) {\r... */\n      iszero\n      tag_39\n      jumpi\n        /* \"contracts/demo2.sol\":714:718  self */\n      dup2\n        /* \"contracts/demo2.sol\":707:718  return self */\n      swap1\n      pop\n      jump(tag_36)\n        /* \"contracts/demo2.sol\":647:734  if (self.length == 1 && self[0] <= 0x7f) {\r... */\n    tag_39:\n        /* \"contracts/demo2.sol\":755:813  mergeBytes(encodeLength(self.length, STRING_OFFSET), self) */\n      tag_40\n        /* \"contracts/demo2.sol\":766:806  encodeLength(self.length, STRING_OFFSET) */\n      tag_41\n        /* \"contracts/demo2.sol\":779:783  self */\n      dup4\n        /* \"contracts/demo2.sol\":779:790  self.length */\n      mload\n        /* \"contracts/demo2.sol\":352:356  0x80 */\n      0x80\n        /* \"contracts/demo2.sol\":766:806  encodeLength(self.length, STRING_OFFSET) */\n      0xff\n      and\n        /* \"contracts/demo2.sol\":766:778  encodeLength */\n      tag_42\n        /* \"contracts/demo2.sol\":766:806  encodeLength(self.length, STRING_OFFSET) */\n      jump\t// in\n    tag_41:\n        /* \"contracts/demo2.sol\":808:812  self */\n      dup4\n        /* \"contracts/demo2.sol\":755:765  mergeBytes */\n      tag_43\n        /* \"contracts/demo2.sol\":755:813  mergeBytes(encodeLength(self.length, STRING_OFFSET), self) */\n      jump\t// in\n    tag_40:\n        /* \"contracts/demo2.sol\":748:813  return mergeBytes(encodeLength(self.length, STRING_OFFSET), self) */\n      swap1\n      pop\n        /* \"contracts/demo2.sol\":555:825  function encodeBytes(bytes memory self) internal pure returns (bytes memory) {\r... */\n    tag_36:\n      swap2\n      swap1\n      pop\n      jump\t// out\n        /* \"contracts/demo2.sol\":1988:2466  function encodeLength(uint length, uint offset) internal pure returns (bytes memory) {\r... */\n    tag_42:\n        /* \"contracts/demo2.sol\":2059:2071  bytes memory */\n      0x60\n        /* \"contracts/demo2.sol\":2105:2111  256**8 */\n      0x010000000000000000\n        /* \"contracts/demo2.sol\":2096:2102  length */\n      dup4\n        /* \"contracts/demo2.sol\":2096:2111  length < 256**8 */\n      lt\n        /* \"contracts/demo2.sol\":2088:2130  require(length < 256**8, \"input too long\") */\n      tag_45\n      jumpi\n      mload(0x40)\n      0x08c379a000000000000000000000000000000000000000000000000000000000\n      dup2\n      mstore\n      0x04\n      add\n      tag_46\n      swap1\n      jump(tag_47)\n    tag_46:\n      mload(0x40)\n      dup1\n      swap2\n      sub\n      swap1\n      revert\n    tag_45:\n        /* \"contracts/demo2.sol\":2145:2160  bytes memory rs */\n      0x60\n        /* \"contracts/demo2.sol\":2173:2174  1 */\n      0x01\n        /* \"contracts/demo2.sol\":2163:2175  new bytes(1) */\n      mload(0x40)\n      swap1\n      dup1\n      dup3\n      mstore\n      dup1\n      0x1f\n      add\n      not(0x1f)\n      and\n      0x20\n      add\n      dup3\n      add\n      0x40\n      mstore\n      dup1\n      iszero\n      tag_48\n      jumpi\n      dup2\n      0x20\n      add\n        /* \"--CODEGEN--\":29:30   */\n      0x01\n        /* \"--CODEGEN--\":21:27   */\n      dup3\n        /* \"--CODEGEN--\":17:31   */\n      mul\n        /* \"--CODEGEN--\":124:128   */\n      dup1\n        /* \"--CODEGEN--\":108:122   */\n      calldatasize\n        /* \"--CODEGEN--\":100:106   */\n      dup4\n        /* \"--CODEGEN--\":87:129   */\n      calldatacopy\n        /* \"--CODEGEN--\":155:159   */\n      dup1\n        /* \"--CODEGEN--\":147:153   */\n      dup3\n        /* \"--CODEGEN--\":143:160   */\n      add\n        /* \"--CODEGEN--\":133:160   */\n      swap2\n      pop\n        /* \"--CODEGEN--\":0:164   */\n      pop\n        /* \"contracts/demo2.sol\":2163:2175  new bytes(1) */\n      swap1\n      pop\n    tag_48:\n      pop\n        /* \"contracts/demo2.sol\":2145:2175  bytes memory rs = new bytes(1) */\n      swap1\n      pop\n        /* \"contracts/demo2.sol\":2204:2206  55 */\n      0x37\n        /* \"contracts/demo2.sol\":2194:2200  length */\n      dup5\n        /* \"contracts/demo2.sol\":2194:2206  length <= 55 */\n      gt\n        /* \"contracts/demo2.sol\":2190:2307  if (length <= 55) {\r... */\n      tag_49\n      jumpi\n        /* \"contracts/demo2.sol\":2255:2261  offset */\n      dup3\n        /* \"contracts/demo2.sol\":2246:2252  length */\n      dup5\n        /* \"contracts/demo2.sol\":2246:2261  length + offset */\n      add\n        /* \"contracts/demo2.sol\":2235:2263  byte(uint8(length + offset)) */\n      0xf8\n      shl\n        /* \"contracts/demo2.sol\":2227:2229  rs */\n      dup2\n        /* \"contracts/demo2.sol\":2230:2231  0 */\n      0x00\n        /* \"contracts/demo2.sol\":2227:2232  rs[0] */\n      dup2\n      mload\n      dup2\n      lt\n      tag_50\n      jumpi\n      invalid\n    tag_50:\n      0x20\n      add\n      add\n        /* \"contracts/demo2.sol\":2227:2263  rs[0] = byte(uint8(length + offset)) */\n      swap1\n      not(0xffffffffffffffffffffffffffffffffffffffffffffffffffffffffffffff)\n      and\n      swap1\n      dup2\n      0x00\n      byte\n      swap1\n      mstore8\n      pop\n        /* \"contracts/demo2.sol\":2289:2291  rs */\n      dup1\n        /* \"contracts/demo2.sol\":2282:2291  return rs */\n      swap2\n      pop\n      pop\n      jump(tag_44)\n        /* \"contracts/demo2.sol\":2190:2307  if (length <= 55) {\r... */\n    tag_49:\n        /* \"contracts/demo2.sol\":2321:2336  bytes memory bl */\n      0x60\n        /* \"contracts/demo2.sol\":2339:2355  toBinary(length) */\n      tag_51\n        /* \"contracts/demo2.sol\":2348:2354  length */\n      dup6\n        /* \"contracts/demo2.sol\":2339:2347  toBinary */\n      tag_52\n        /* \"contracts/demo2.sol\":2339:2355  toBinary(length) */\n      jump\t// in\n    tag_51:\n        /* \"contracts/demo2.sol\":2321:2355  bytes memory bl = toBinary(length) */\n      swap1\n      pop\n        /* \"contracts/demo2.sol\":2410:2412  55 */\n      0x37\n        /* \"contracts/demo2.sol\":2401:2407  offset */\n      dup5\n        /* \"contracts/demo2.sol\":2389:2391  bl */\n      dup3\n        /* \"contracts/demo2.sol\":2389:2398  bl.length */\n      mload\n        /* \"contracts/demo2.sol\":2389:2407  bl.length + offset */\n      add\n        /* \"contracts/demo2.sol\":2389:2412  bl.length + offset + 55 */\n      add\n        /* \"contracts/demo2.sol\":2378:2414  byte(uint8(bl.length + offset + 55)) */\n      0xf8\n      shl\n        /* \"contracts/demo2.sol\":2370:2372  rs */\n      dup3\n        /* \"contracts/demo2.sol\":2373:2374  0 */\n      0x00\n        /* \"contracts/demo2.sol\":2370:2375  rs[0] */\n      dup2\n      mload\n      dup2\n      lt\n      tag_53\n      jumpi\n      invalid\n    tag_53:\n      0x20\n      add\n      add\n        /* \"contracts/demo2.sol\":2370:2414  rs[0] = byte(uint8(bl.length + offset + 55)) */\n      swap1\n      not(0xffffffffffffffffffffffffffffffffffffffffffffffffffffffffffffff)\n      and\n      swap1\n      dup2\n      0x00\n      byte\n      swap1\n      mstore8\n      pop\n        /* \"contracts/demo2.sol\":2436:2454  mergeBytes(rs, bl) */\n      tag_54\n        /* \"contracts/demo2.sol\":2447:2449  rs */\n      dup3\n        /* \"contracts/demo2.sol\":2451:2453  bl */\n      dup3\n        /* \"contracts/demo2.sol\":2436:2446  mergeBytes */\n      tag_43\n        /* \"contracts/demo2.sol\":2436:2454  mergeBytes(rs, bl) */\n      jump\t// in\n    tag_54:\n        /* \"contracts/demo2.sol\":2429:2454  return mergeBytes(rs, bl) */\n      swap3\n      pop\n      pop\n      pop\n        /* \"contracts/demo2.sol\":1988:2466  function encodeLength(uint length, uint offset) internal pure returns (bytes memory) {\r... */\n    tag_44:\n      swap3\n      swap2\n      pop\n      pop\n      jump\t// out\n        /* \"contracts/demo2.sol\":2478:5661  function mergeBytes(\r... */\n    tag_43:\n        /* \"contracts/demo2.sol\":2634:2646  bytes memory */\n      0x60\n        /* \"contracts/demo2.sol\":2672:2694  bytes memory tempBytes */\n      dup1\n        /* \"contracts/demo2.sol\":2890:2894  0x40 */\n      0x40\n        /* \"contracts/demo2.sol\":2884:2895  mload(0x40) */\n      mload\n        /* \"contracts/demo2.sol\":2871:2895  tempBytes := mload(0x40) */\n      swap1\n      pop\n        /* \"contracts/demo2.sol\":3055:3064  _preBytes */\n      dup4\n        /* \"contracts/demo2.sol\":3049:3065  mload(_preBytes) */\n      mload\n        /* \"contracts/demo2.sol\":3101:3107  length */\n      dup1\n        /* \"contracts/demo2.sol\":3090:3099  tempBytes */\n      dup3\n        /* \"contracts/demo2.sol\":3083:3108  mstore(tempBytes, length) */\n      mstore\n        /* \"contracts/demo2.sol\":3352:3356  0x20 */\n      0x20\n        /* \"contracts/demo2.sol\":3341:3350  tempBytes */\n      dup3\n        /* \"contracts/demo2.sol\":3337:3357  add(tempBytes, 0x20) */\n      add\n        /* \"contracts/demo2.sol\":3508:3514  length */\n      dup2\n        /* \"contracts/demo2.sol\":3504:3506  mc */\n      dup2\n        /* \"contracts/demo2.sol\":3500:3515  add(mc, length) */\n      add\n        /* \"contracts/demo2.sol\":3715:3719  0x20 */\n      0x20\n        /* \"contracts/demo2.sol\":3704:3713  _preBytes */\n      dup8\n        /* \"contracts/demo2.sol\":3700:3720  add(_preBytes, 0x20) */\n      add\n        /* \"contracts/demo2.sol\":3535:4100  for {\r... */\n    tag_56:\n        /* \"contracts/demo2.sol\":3747:3750  end */\n      dup2\n        /* \"contracts/demo2.sol\":3743:3745  mc */\n      dup4\n        /* \"contracts/demo2.sol\":3740:3751  lt(mc, end) */\n      lt\n        /* \"contracts/demo2.sol\":3535:4100  for {\r... */\n      iszero\n      tag_58\n      jumpi\n        /* \"contracts/demo2.sol\":4077:4079  cc */\n      dup1\n        /* \"contracts/demo2.sol\":4071:4080  mload(cc) */\n      mload\n        /* \"contracts/demo2.sol\":4067:4069  mc */\n      dup4\n        /* \"contracts/demo2.sol\":4060:4081  mstore(mc, mload(cc)) */\n      mstore\n        /* \"contracts/demo2.sol\":3860:3864  0x20 */\n      0x20\n        /* \"contracts/demo2.sol\":3856:3858  mc */\n      dup4\n        /* \"contracts/demo2.sol\":3852:3865  add(mc, 0x20) */\n      add\n        /* \"contracts/demo2.sol\":3846:3865  mc := add(mc, 0x20) */\n      swap3\n      pop\n        /* \"contracts/demo2.sol\":3901:3905  0x20 */\n      0x20\n        /* \"contracts/demo2.sol\":3897:3899  cc */\n      dup2\n        /* \"contracts/demo2.sol\":3893:3906  add(cc, 0x20) */\n      add\n        /* \"contracts/demo2.sol\":3887:3906  cc := add(cc, 0x20) */\n      swap1\n      pop\n        /* \"contracts/demo2.sol\":3535:4100  for {\r... */\n      jump(tag_56)\n    tag_58:\n        /* \"contracts/demo2.sol\":3539:3739  {\r... */\n      pop\n        /* \"contracts/demo2.sol\":4326:4336  _postBytes */\n      dup6\n        /* \"contracts/demo2.sol\":4320:4337  mload(_postBytes) */\n      mload\n        /* \"contracts/demo2.sol\":4310:4337  length := mload(_postBytes) */\n      swap3\n      pop\n        /* \"contracts/demo2.sol\":4391:4400  tempBytes */\n      dup4\n        /* \"contracts/demo2.sol\":4385:4401  mload(tempBytes) */\n      mload\n        /* \"contracts/demo2.sol\":4377:4383  length */\n      dup4\n        /* \"contracts/demo2.sol\":4373:4402  add(length, mload(tempBytes)) */\n      add\n        /* \"contracts/demo2.sol\":4362:4371  tempBytes */\n      dup5\n        /* \"contracts/demo2.sol\":4355:4403  mstore(tempBytes, add(length, mload(tempBytes))) */\n      mstore\n        /* \"contracts/demo2.sol\":4555:4558  end */\n      dup1\n        /* \"contracts/demo2.sol\":4549:4558  mc := end */\n      swap2\n      pop\n        /* \"contracts/demo2.sol\":4707:4713  length */\n      dup3\n        /* \"contracts/demo2.sol\":4703:4705  mc */\n      dup3\n        /* \"contracts/demo2.sol\":4699:4714  add(mc, length) */\n      add\n        /* \"contracts/demo2.sol\":4692:4714  end := add(mc, length) */\n      swap1\n      pop\n        /* \"contracts/demo2.sol\":4787:4791  0x20 */\n      0x20\n        /* \"contracts/demo2.sol\":4775:4785  _postBytes */\n      dup7\n        /* \"contracts/demo2.sol\":4771:4792  add(_postBytes, 0x20) */\n      add\n        /* \"contracts/demo2.sol\":4734:4990  for {\r... */\n    tag_59:\n        /* \"contracts/demo2.sol\":4819:4822  end */\n      dup2\n        /* \"contracts/demo2.sol\":4815:4817  mc */\n      dup4\n        /* \"contracts/demo2.sol\":4812:4823  lt(mc, end) */\n      lt\n        /* \"contracts/demo2.sol\":4734:4990  for {\r... */\n      iszero\n      tag_61\n      jumpi\n        /* \"contracts/demo2.sol\":4967:4969  cc */\n      dup1\n        /* \"contracts/demo2.sol\":4961:4970  mload(cc) */\n      mload\n        /* \"contracts/demo2.sol\":4957:4959  mc */\n      dup4\n        /* \"contracts/demo2.sol\":4950:4971  mstore(mc, mload(cc)) */\n      mstore\n        /* \"contracts/demo2.sol\":4861:4865  0x20 */\n      0x20\n        /* \"contracts/demo2.sol\":4857:4859  mc */\n      dup4\n        /* \"contracts/demo2.sol\":4853:4866  add(mc, 0x20) */\n      add\n        /* \"contracts/demo2.sol\":4847:4866  mc := add(mc, 0x20) */\n      swap3\n      pop\n        /* \"contracts/demo2.sol\":4902:4906  0x20 */\n      0x20\n        /* \"contracts/demo2.sol\":4898:4900  cc */\n      dup2\n        /* \"contracts/demo2.sol\":4894:4907  add(cc, 0x20) */\n      add\n        /* \"contracts/demo2.sol\":4888:4907  cc := add(cc, 0x20) */\n      swap1\n      pop\n        /* \"contracts/demo2.sol\":4734:4990  for {\r... */\n      jump(tag_59)\n    tag_61:\n        /* \"contracts/demo2.sol\":4738:4811  {\r... */\n      pop\n        /* \"contracts/demo2.sol\":5540:5542  31 */\n      0x1f\n        /* \"contracts/demo2.sol\":5536:5543  not(31) */\n      not\n        /* \"contracts/demo2.sol\":5514:5516  31 */\n      0x1f\n        /* \"contracts/demo2.sol\":5499:5508  _preBytes */\n      dup9\n        /* \"contracts/demo2.sol\":5493:5509  mload(_preBytes) */\n      mload\n        /* \"contracts/demo2.sol\":5485:5491  length */\n      dup6\n        /* \"contracts/demo2.sol\":5481:5510  add(length, mload(_preBytes)) */\n      add\n        /* \"contracts/demo2.sol\":5474:5511  iszero(add(length, mload(_preBytes))) */\n      iszero\n        /* \"contracts/demo2.sol\":5469:5472  end */\n      dup4\n        /* \"contracts/demo2.sol\":5465:5512  add(end, iszero(add(length, mload(_preBytes)))) */\n      add\n        /* \"contracts/demo2.sol\":5461:5517  add(add(end, iszero(add(length, mload(_preBytes)))), 31) */\n      add\n        /* \"contracts/demo2.sol\":5439:5601  and(\r... */\n      and\n        /* \"contracts/demo2.sol\":5433:5437  0x40 */\n      0x40\n        /* \"contracts/demo2.sol\":5426:5602  mstore(0x40, and(\r... */\n      mstore\n        /* \"contracts/demo2.sol\":2720:5617  {\r... */\n      pop\n      pop\n      pop\n        /* \"contracts/demo2.sol\":5640:5649  tempBytes */\n      dup1\n        /* \"contracts/demo2.sol\":5633:5649  return tempBytes */\n      swap2\n      pop\n      pop\n        /* \"contracts/demo2.sol\":2478:5661  function mergeBytes(\r... */\n      swap3\n      swap2\n      pop\n      pop\n      jump\t// out\n        /* \"contracts/demo2.sol\":5681:6569  function toBinary(uint x) internal pure returns (bytes memory) {\r... */\n    tag_52:\n        /* \"contracts/demo2.sol\":5730:5742  bytes memory */\n      0x60\n        /* \"contracts/demo2.sol\":5759:5773  bytes memory b */\n      dup1\n        /* \"contracts/demo2.sol\":5786:5788  32 */\n      0x20\n        /* \"contracts/demo2.sol\":5776:5789  new bytes(32) */\n      mload(0x40)\n      swap1\n      dup1\n      dup3\n      mstore\n      dup1\n      0x1f\n      add\n      not(0x1f)\n      and\n      0x20\n      add\n      dup3\n      add\n      0x40\n      mstore\n      dup1\n      iszero\n      tag_63\n      jumpi\n      dup2\n      0x20\n      add\n        /* \"--CODEGEN--\":29:30   */\n      0x01\n        /* \"--CODEGEN--\":21:27   */\n      dup3\n        /* \"--CODEGEN--\":17:31   */\n      mul\n        /* \"--CODEGEN--\":124:128   */\n      dup1\n        /* \"--CODEGEN--\":108:122   */\n      calldatasize\n        /* \"--CODEGEN--\":100:106   */\n      dup4\n        /* \"--CODEGEN--\":87:129   */\n      calldatacopy\n        /* \"--CODEGEN--\":155:159   */\n      dup1\n        /* \"--CODEGEN--\":147:153   */\n      dup3\n        /* \"--CODEGEN--\":143:160   */\n      add\n        /* \"--CODEGEN--\":133:160   */\n      swap2\n      pop\n        /* \"--CODEGEN--\":0:164   */\n      pop\n        /* \"contracts/demo2.sol\":5776:5789  new bytes(32) */\n      swap1\n      pop\n    tag_63:\n      pop\n        /* \"contracts/demo2.sol\":5759:5789  bytes memory b = new bytes(32) */\n      swap1\n      pop\n        /* \"contracts/demo2.sol\":5851:5852  x */\n      dup3\n        /* \"contracts/demo2.sol\":5846:5848  32 */\n      0x20\n        /* \"contracts/demo2.sol\":5843:5844  b */\n      dup3\n        /* \"contracts/demo2.sol\":5839:5849  add(b, 32) */\n      add\n        /* \"contracts/demo2.sol\":5832:5853  mstore(add(b, 32), x) */\n      mstore\n        /* \"contracts/demo2.sol\":5882:5888  uint i */\n      0x00\n        /* \"contracts/demo2.sol\":5981:5982  0 */\n      dup1\n        /* \"contracts/demo2.sol\":5911:5977  0xffffffffffffffffffffffffffffffffffffffffffffffff0000000000000000 */\n      0xffffffffffffffffffffffffffffffffffffffffffffffff0000000000000000\n        /* \"contracts/demo2.sol\":5907:5908  x */\n      dup6\n        /* \"contracts/demo2.sol\":5907:5977  x & 0xffffffffffffffffffffffffffffffffffffffffffffffff0000000000000000 */\n      and\n        /* \"contracts/demo2.sol\":5907:5982  x & 0xffffffffffffffffffffffffffffffffffffffffffffffff0000000000000000 == 0 */\n      eq\n        /* \"contracts/demo2.sol\":5903:6199  if (x & 0xffffffffffffffffffffffffffffffffffffffffffffffff0000000000000000 == 0) {\r... */\n      iszero\n      tag_64\n      jumpi\n        /* \"contracts/demo2.sol\":6007:6009  24 */\n      0x18\n        /* \"contracts/demo2.sol\":6003:6009  i = 24 */\n      swap1\n      pop\n        /* \"contracts/demo2.sol\":5903:6199  if (x & 0xffffffffffffffffffffffffffffffffffffffffffffffff0000000000000000 == 0) {\r... */\n      jump(tag_65)\n    tag_64:\n        /* \"contracts/demo2.sol\":6109:6110  0 */\n      0x00\n        /* \"contracts/demo2.sol\":6039:6105  0xffffffffffffffffffffffffffffffff00000000000000000000000000000000 */\n      0xffffffffffffffffffffffffffffffff00000000000000000000000000000000\n        /* \"contracts/demo2.sol\":6035:6036  x */\n      dup6\n        /* \"contracts/demo2.sol\":6035:6105  x & 0xffffffffffffffffffffffffffffffff00000000000000000000000000000000 */\n      and\n        /* \"contracts/demo2.sol\":6035:6110  x & 0xffffffffffffffffffffffffffffffff00000000000000000000000000000000 == 0 */\n      eq\n        /* \"contracts/demo2.sol\":6031:6199  if (x & 0xffffffffffffffffffffffffffffffff00000000000000000000000000000000 == 0) {\r... */\n      iszero\n      tag_66\n      jumpi\n        /* \"contracts/demo2.sol\":6135:6137  16 */\n      0x10\n        /* \"contracts/demo2.sol\":6131:6137  i = 16 */\n      swap1\n      pop\n        /* \"contracts/demo2.sol\":6031:6199  if (x & 0xffffffffffffffffffffffffffffffff00000000000000000000000000000000 == 0) {\r... */\n      jump(tag_67)\n    tag_66:\n        /* \"contracts/demo2.sol\":6182:6183  0 */\n      0x00\n        /* \"contracts/demo2.sol\":6178:6183  i = 0 */\n      swap1\n      pop\n        /* \"contracts/demo2.sol\":6031:6199  if (x & 0xffffffffffffffffffffffffffffffff00000000000000000000000000000000 == 0) {\r... */\n    tag_67:\n        /* \"contracts/demo2.sol\":5903:6199  if (x & 0xffffffffffffffffffffffffffffffffffffffffffffffff0000000000000000 == 0) {\r... */\n    tag_65:\n        /* \"contracts/demo2.sol\":6213:6330  for (; i < 32; i++) {\r... */\n    tag_68:\n        /* \"contracts/demo2.sol\":6224:6226  32 */\n      0x20\n        /* \"contracts/demo2.sol\":6220:6221  i */\n      dup2\n        /* \"contracts/demo2.sol\":6220:6226  i < 32 */\n      lt\n        /* \"contracts/demo2.sol\":6213:6330  for (; i < 32; i++) {\r... */\n      iszero\n      tag_69\n      jumpi\n        /* \"contracts/demo2.sol\":6264:6265  0 */\n      0x00\n        /* \"contracts/demo2.sol\":6256:6265  b[i] != 0 */\n      0xf8\n      shl\n        /* \"contracts/demo2.sol\":6256:6257  b */\n      dup3\n        /* \"contracts/demo2.sol\":6258:6259  i */\n      dup3\n        /* \"contracts/demo2.sol\":6256:6260  b[i] */\n      dup2\n      mload\n      dup2\n      lt\n      tag_71\n      jumpi\n      invalid\n    tag_71:\n      0x20\n      add\n      add\n      mload\n      0xf8\n      shr\n      0xf8\n      shl\n        /* \"contracts/demo2.sol\":6256:6265  b[i] != 0 */\n      not(0xffffffffffffffffffffffffffffffffffffffffffffffffffffffffffffff)\n      and\n      eq\n        /* \"contracts/demo2.sol\":6252:6315  if (b[i] != 0) {\r... */\n      tag_72\n      jumpi\n        /* \"contracts/demo2.sol\":6290:6295  break */\n      jump(tag_69)\n        /* \"contracts/demo2.sol\":6252:6315  if (b[i] != 0) {\r... */\n    tag_72:\n        /* \"contracts/demo2.sol\":6228:6231  i++ */\n      dup1\n      dup1\n      0x01\n      add\n      swap2\n      pop\n      pop\n        /* \"contracts/demo2.sol\":6213:6330  for (; i < 32; i++) {\r... */\n      jump(tag_68)\n    tag_69:\n        /* \"contracts/demo2.sol\":6344:6355  uint length */\n      0x00\n        /* \"contracts/demo2.sol\":6363:6364  i */\n      dup2\n        /* \"contracts/demo2.sol\":6358:6360  32 */\n      0x20\n        /* \"contracts/demo2.sol\":6358:6364  32 - i */\n      sub\n        /* \"contracts/demo2.sol\":6344:6364  uint length = 32 - i */\n      swap1\n      pop\n        /* \"contracts/demo2.sol\":6379:6394  bytes memory rs */\n      0x60\n        /* \"contracts/demo2.sol\":6407:6413  length */\n      dup2\n        /* \"contracts/demo2.sol\":6397:6414  new bytes(length) */\n      mload(0x40)\n      swap1\n      dup1\n      dup3\n      mstore\n      dup1\n      0x1f\n      add\n      not(0x1f)\n      and\n      0x20\n      add\n      dup3\n      add\n      0x40\n      mstore\n      dup1\n      iszero\n      tag_73\n      jumpi\n      dup2\n      0x20\n      add\n        /* \"--CODEGEN--\":29:30   */\n      0x01\n        /* \"--CODEGEN--\":21:27   */\n      dup3\n        /* \"--CODEGEN--\":17:31   */\n      mul\n        /* \"--CODEGEN--\":124:128   */\n      dup1\n        /* \"--CODEGEN--\":108:122   */\n      calldatasize\n        /* \"--CODEGEN--\":100:106   */\n      dup4\n        /* \"--CODEGEN--\":87:129   */\n      calldatacopy\n        /* \"--CODEGEN--\":155:159   */\n      dup1\n        /* \"--CODEGEN--\":147:153   */\n      dup3\n        /* \"--CODEGEN--\":143:160   */\n      add\n        /* \"--CODEGEN--\":133:160   */\n      swap2\n      pop\n        /* \"--CODEGEN--\":0:164   */\n      pop\n        /* \"contracts/demo2.sol\":6397:6414  new bytes(length) */\n      swap1\n      pop\n    tag_73:\n      pop\n        /* \"contracts/demo2.sol\":6379:6414  bytes memory rs = new bytes(length) */\n      swap1\n      pop\n        /* \"contracts/demo2.sol\":6481:6482  x */\n      dup6\n        /* \"contracts/demo2.sol\":6472:6478  length */\n      dup3\n        /* \"contracts/demo2.sol\":6468:6470  rs */\n      dup3\n        /* \"contracts/demo2.sol\":6464:6479  add(rs, length) */\n      add\n        /* \"contracts/demo2.sol\":6457:6483  mstore(add(rs, length), x) */\n      mstore\n        /* \"contracts/demo2.sol\":6512:6518  length */\n      dup2\n        /* \"contracts/demo2.sol\":6508:6510  rs */\n      dup2\n        /* \"contracts/demo2.sol\":6501:6519  mstore(rs, length) */\n      mstore\n        /* \"contracts/demo2.sol\":6555:6557  rs */\n      dup1\n        /* \"contracts/demo2.sol\":6548:6557  return rs */\n      swap5\n      pop\n      pop\n      pop\n      pop\n      pop\n        /* \"contracts/demo2.sol\":5681:6569  function toBinary(uint x) internal pure returns (bytes memory) {\r... */\n      swap2\n      swap1\n      pop\n      jump\t// out\n        /* \"--CODEGEN--\":5:135   */\n    tag_75:\n      0x00\n        /* \"--CODEGEN--\":85:91   */\n      dup2\n        /* \"--CODEGEN--\":72:92   */\n      calldataload\n        /* \"--CODEGEN--\":63:92   */\n      swap1\n      pop\n        /* \"--CODEGEN--\":97:130   */\n      tag_77\n        /* \"--CODEGEN--\":124:129   */\n      dup2\n        /* \"--CODEGEN--\":97:130   */\n      jump(tag_78)\n    tag_77:\n        /* \"--CODEGEN--\":57:135   */\n      swap3\n      swap2\n      pop\n      pop\n      jump\n        /* \"--CODEGEN--\":142:383   */\n    tag_9:\n      0x00\n        /* \"--CODEGEN--\":246:248   */\n      0x20\n        /* \"--CODEGEN--\":234:243   */\n      dup3\n        /* \"--CODEGEN--\":225:232   */\n      dup5\n        /* \"--CODEGEN--\":221:244   */\n      sub\n        /* \"--CODEGEN--\":217:249   */\n      slt\n        /* \"--CODEGEN--\":214:216   */\n      iszero\n      tag_80\n      jumpi\n        /* \"--CODEGEN--\":262:263   */\n      0x00\n        /* \"--CODEGEN--\":259:260   */\n      dup1\n        /* \"--CODEGEN--\":252:264   */\n      revert\n        /* \"--CODEGEN--\":214:216   */\n    tag_80:\n        /* \"--CODEGEN--\":297:298   */\n      0x00\n        /* \"--CODEGEN--\":314:367   */\n      tag_81\n        /* \"--CODEGEN--\":359:366   */\n      dup5\n        /* \"--CODEGEN--\":350:356   */\n      dup3\n        /* \"--CODEGEN--\":339:348   */\n      dup6\n        /* \"--CODEGEN--\":335:357   */\n      add\n        /* \"--CODEGEN--\":314:367   */\n      jump(tag_75)\n    tag_81:\n        /* \"--CODEGEN--\":304:367   */\n      swap2\n      pop\n        /* \"--CODEGEN--\":276:373   */\n      pop\n        /* \"--CODEGEN--\":208:383   */\n      swap3\n      swap2\n      pop\n      pop\n      jump\n        /* \"--CODEGEN--\":390:503   */\n    tag_82:\n        /* \"--CODEGEN--\":473:497   */\n      tag_84\n        /* \"--CODEGEN--\":491:496   */\n      dup2\n        /* \"--CODEGEN--\":473:497   */\n      jump(tag_85)\n    tag_84:\n        /* \"--CODEGEN--\":468:471   */\n      dup3\n        /* \"--CODEGEN--\":461:498   */\n      mstore\n        /* \"--CODEGEN--\":455:503   */\n      pop\n      pop\n      jump\n        /* \"--CODEGEN--\":510:853   */\n    tag_86:\n      0x00\n        /* \"--CODEGEN--\":620:658   */\n      tag_88\n        /* \"--CODEGEN--\":652:657   */\n      dup3\n        /* \"--CODEGEN--\":620:658   */\n      jump(tag_89)\n    tag_88:\n        /* \"--CODEGEN--\":670:740   */\n      tag_90\n        /* \"--CODEGEN--\":733:739   */\n      dup2\n        /* \"--CODEGEN--\":728:731   */\n      dup6\n        /* \"--CODEGEN--\":670:740   */\n      jump(tag_91)\n    tag_90:\n        /* \"--CODEGEN--\":663:740   */\n      swap4\n      pop\n        /* \"--CODEGEN--\":745:797   */\n      tag_92\n        /* \"--CODEGEN--\":790:796   */\n      dup2\n        /* \"--CODEGEN--\":785:788   */\n      dup6\n        /* \"--CODEGEN--\":778:782   */\n      0x20\n        /* \"--CODEGEN--\":771:776   */\n      dup7\n        /* \"--CODEGEN--\":767:783   */\n      add\n        /* \"--CODEGEN--\":745:797   */\n      jump(tag_93)\n    tag_92:\n        /* \"--CODEGEN--\":818:847   */\n      tag_94\n        /* \"--CODEGEN--\":840:846   */\n      dup2\n        /* \"--CODEGEN--\":818:847   */\n      jump(tag_95)\n    tag_94:\n        /* \"--CODEGEN--\":813:816   */\n      dup5\n        /* \"--CODEGEN--\":809:848   */\n      add\n        /* \"--CODEGEN--\":802:848   */\n      swap2\n      pop\n        /* \"--CODEGEN--\":600:853   */\n      pop\n      swap3\n      swap2\n      pop\n      pop\n      jump\n        /* \"--CODEGEN--\":860:1195   */\n    tag_96:\n      0x00\n        /* \"--CODEGEN--\":966:1000   */\n      tag_98\n        /* \"--CODEGEN--\":994:999   */\n      dup3\n        /* \"--CODEGEN--\":966:1000   */\n      jump(tag_99)\n    tag_98:\n        /* \"--CODEGEN--\":1012:1082   */\n      tag_100\n        /* \"--CODEGEN--\":1075:1081   */\n      dup2\n        /* \"--CODEGEN--\":1070:1073   */\n      dup6\n        /* \"--CODEGEN--\":1012:1082   */\n      jump(tag_91)\n    tag_100:\n        /* \"--CODEGEN--\":1005:1082   */\n      swap4\n      pop\n        /* \"--CODEGEN--\":1087:1139   */\n      tag_101\n        /* \"--CODEGEN--\":1132:1138   */\n      dup2\n        /* \"--CODEGEN--\":1127:1130   */\n      dup6\n        /* \"--CODEGEN--\":1120:1124   */\n      0x20\n        /* \"--CODEGEN--\":1113:1118   */\n      dup7\n        /* \"--CODEGEN--\":1109:1125   */\n      add\n        /* \"--CODEGEN--\":1087:1139   */\n      jump(tag_93)\n    tag_101:\n        /* \"--CODEGEN--\":1160:1189   */\n      tag_102\n        /* \"--CODEGEN--\":1182:1188   */\n      dup2\n        /* \"--CODEGEN--\":1160:1189   */\n      jump(tag_95)\n    tag_102:\n        /* \"--CODEGEN--\":1155:1158   */\n      dup5\n        /* \"--CODEGEN--\":1151:1190   */\n      add\n        /* \"--CODEGEN--\":1144:1190   */\n      swap2\n      pop\n        /* \"--CODEGEN--\":946:1195   */\n      pop\n      swap3\n      swap2\n      pop\n      pop\n      jump\n        /* \"--CODEGEN--\":1203:1517   */\n    tag_103:\n      0x00\n        /* \"--CODEGEN--\":1363:1430   */\n      tag_105\n        /* \"--CODEGEN--\":1427:1429   */\n      0x0e\n        /* \"--CODEGEN--\":1422:1425   */\n      dup4\n        /* \"--CODEGEN--\":1363:1430   */\n      jump(tag_106)\n    tag_105:\n        /* \"--CODEGEN--\":1356:1430   */\n      swap2\n      pop\n        /* \"--CODEGEN--\":1463:1479   */\n      0x696e70757420746f6f206c6f6e67000000000000000000000000000000000000\n        /* \"--CODEGEN--\":1459:1460   */\n      0x00\n        /* \"--CODEGEN--\":1454:1457   */\n      dup4\n        /* \"--CODEGEN--\":1450:1461   */\n      add\n        /* \"--CODEGEN--\":1443:1480   */\n      mstore\n        /* \"--CODEGEN--\":1508:1510   */\n      0x20\n        /* \"--CODEGEN--\":1503:1506   */\n      dup3\n        /* \"--CODEGEN--\":1499:1511   */\n      add\n        /* \"--CODEGEN--\":1492:1511   */\n      swap1\n      pop\n        /* \"--CODEGEN--\":1349:1517   */\n      swap2\n      swap1\n      pop\n      jump\n        /* \"--CODEGEN--\":1525:1738   */\n    tag_20:\n      0x00\n        /* \"--CODEGEN--\":1643:1645   */\n      0x20\n        /* \"--CODEGEN--\":1632:1641   */\n      dup3\n        /* \"--CODEGEN--\":1628:1646   */\n      add\n        /* \"--CODEGEN--\":1620:1646   */\n      swap1\n      pop\n        /* \"--CODEGEN--\":1657:1728   */\n      tag_108\n        /* \"--CODEGEN--\":1725:1726   */\n      0x00\n        /* \"--CODEGEN--\":1714:1723   */\n      dup4\n        /* \"--CODEGEN--\":1710:1727   */\n      add\n        /* \"--CODEGEN--\":1701:1707   */\n      dup5\n        /* \"--CODEGEN--\":1657:1728   */\n      jump(tag_82)\n    tag_108:\n        /* \"--CODEGEN--\":1614:1738   */\n      swap3\n      swap2\n      pop\n      pop\n      jump\n        /* \"--CODEGEN--\":1745:2034   */\n    tag_16:\n      0x00\n        /* \"--CODEGEN--\":1877:1879   */\n      0x20\n        /* \"--CODEGEN--\":1866:1875   */\n      dup3\n        /* \"--CODEGEN--\":1862:1880   */\n      add\n        /* \"--CODEGEN--\":1854:1880   */\n      swap1\n      pop\n        /* \"--CODEGEN--\":1927:1936   */\n      dup2\n        /* \"--CODEGEN--\":1921:1925   */\n      dup2\n        /* \"--CODEGEN--\":1917:1937   */\n      sub\n        /* \"--CODEGEN--\":1913:1914   */\n      0x00\n        /* \"--CODEGEN--\":1902:1911   */\n      dup4\n        /* \"--CODEGEN--\":1898:1915   */\n      add\n        /* \"--CODEGEN--\":1891:1938   */\n      mstore\n        /* \"--CODEGEN--\":1952:2024   */\n      tag_110\n        /* \"--CODEGEN--\":2019:2023   */\n      dup2\n        /* \"--CODEGEN--\":2010:2016   */\n      dup5\n        /* \"--CODEGEN--\":1952:2024   */\n      jump(tag_96)\n    tag_110:\n        /* \"--CODEGEN--\":1944:2024   */\n      swap1\n      pop\n        /* \"--CODEGEN--\":1848:2034   */\n      swap3\n      swap2\n      pop\n      pop\n      jump\n        /* \"--CODEGEN--\":2041:2338   */\n    tag_12:\n      0x00\n        /* \"--CODEGEN--\":2177:2179   */\n      0x20\n        /* \"--CODEGEN--\":2166:2175   */\n      dup3\n        /* \"--CODEGEN--\":2162:2180   */\n      add\n        /* \"--CODEGEN--\":2154:2180   */\n      swap1\n      pop\n        /* \"--CODEGEN--\":2227:2236   */\n      dup2\n        /* \"--CODEGEN--\":2221:2225   */\n      dup2\n        /* \"--CODEGEN--\":2217:2237   */\n      sub\n        /* \"--CODEGEN--\":2213:2214   */\n      0x00\n        /* \"--CODEGEN--\":2202:2211   */\n      dup4\n        /* \"--CODEGEN--\":2198:2215   */\n      add\n        /* \"--CODEGEN--\":2191:2238   */\n      mstore\n        /* \"--CODEGEN--\":2252:2328   */\n      tag_112\n        /* \"--CODEGEN--\":2323:2327   */\n      dup2\n        /* \"--CODEGEN--\":2314:2320   */\n      dup5\n        /* \"--CODEGEN--\":2252:2328   */\n      jump(tag_86)\n    tag_112:\n        /* \"--CODEGEN--\":2244:2328   */\n      swap1\n      pop\n        /* \"--CODEGEN--\":2148:2338   */\n      swap3\n      swap2\n      pop\n      pop\n      jump\n        /* \"--CODEGEN--\":2345:2752   */\n    tag_47:\n      0x00\n        /* \"--CODEGEN--\":2536:2538   */\n      0x20\n        /* \"--CODEGEN--\":2525:2534   */\n      dup3\n        /* \"--CODEGEN--\":2521:2539   */\n      add\n        /* \"--CODEGEN--\":2513:2539   */\n      swap1\n      pop\n        /* \"--CODEGEN--\":2586:2595   */\n      dup2\n        /* \"--CODEGEN--\":2580:2584   */\n      dup2\n        /* \"--CODEGEN--\":2576:2596   */\n      sub\n        /* \"--CODEGEN--\":2572:2573   */\n      0x00\n        /* \"--CODEGEN--\":2561:2570   */\n      dup4\n        /* \"--CODEGEN--\":2557:2574   */\n      add\n        /* \"--CODEGEN--\":2550:2597   */\n      mstore\n        /* \"--CODEGEN--\":2611:2742   */\n      tag_114\n        /* \"--CODEGEN--\":2737:2741   */\n      dup2\n        /* \"--CODEGEN--\":2611:2742   */\n      jump(tag_103)\n    tag_114:\n        /* \"--CODEGEN--\":2603:2742   */\n      swap1\n      pop\n        /* \"--CODEGEN--\":2507:2752   */\n      swap2\n      swap1\n      pop\n      jump\n        /* \"--CODEGEN--\":2759:2876   */\n    tag_99:\n      0x00\n        /* \"--CODEGEN--\":2848:2853   */\n      dup2\n        /* \"--CODEGEN--\":2842:2854   */\n      mload\n        /* \"--CODEGEN--\":2832:2854   */\n      swap1\n      pop\n        /* \"--CODEGEN--\":2813:2876   */\n      swap2\n      swap1\n      pop\n      jump\n        /* \"--CODEGEN--\":2883:3004   */\n    tag_89:\n      0x00\n        /* \"--CODEGEN--\":2976:2981   */\n      dup2\n        /* \"--CODEGEN--\":2970:2982   */\n      mload\n        /* \"--CODEGEN--\":2960:2982   */\n      swap1\n      pop\n        /* \"--CODEGEN--\":2941:3004   */\n      swap2\n      swap1\n      pop\n      jump\n        /* \"--CODEGEN--\":3012:3174   */\n    tag_91:\n      0x00\n        /* \"--CODEGEN--\":3126:3132   */\n      dup3\n        /* \"--CODEGEN--\":3121:3124   */\n      dup3\n        /* \"--CODEGEN--\":3114:3133   */\n      mstore\n        /* \"--CODEGEN--\":3163:3167   */\n      0x20\n        /* \"--CODEGEN--\":3158:3161   */\n      dup3\n        /* \"--CODEGEN--\":3154:3168   */\n      add\n        /* \"--CODEGEN--\":3139:3168   */\n      swap1\n      pop\n        /* \"--CODEGEN--\":3107:3174   */\n      swap3\n      swap2\n      pop\n      pop\n      jump\n        /* \"--CODEGEN--\":3183:3346   */\n    tag_106:\n      0x00\n        /* \"--CODEGEN--\":3298:3304   */\n      dup3\n        /* \"--CODEGEN--\":3293:3296   */\n      dup3\n        /* \"--CODEGEN--\":3286:3305   */\n      mstore\n        /* \"--CODEGEN--\":3335:3339   */\n      0x20\n        /* \"--CODEGEN--\":3330:3333   */\n      dup3\n        /* \"--CODEGEN--\":3326:3340   */\n      add\n        /* \"--CODEGEN--\":3311:3340   */\n      swap1\n      pop\n        /* \"--CODEGEN--\":3279:3346   */\n      swap3\n      swap2\n      pop\n      pop\n      jump\n        /* \"--CODEGEN--\":3354:3445   */\n    tag_119:\n      0x00\n        /* \"--CODEGEN--\":3416:3440   */\n      tag_121\n        /* \"--CODEGEN--\":3434:3439   */\n      dup3\n        /* \"--CODEGEN--\":3416:3440   */\n      jump(tag_122)\n    tag_121:\n        /* \"--CODEGEN--\":3405:3440   */\n      swap1\n      pop\n        /* \"--CODEGEN--\":3399:3445   */\n      swap2\n      swap1\n      pop\n      jump\n        /* \"--CODEGEN--\":3452:3524   */\n    tag_85:\n      0x00\n        /* \"--CODEGEN--\":3514:3519   */\n      dup2\n        /* \"--CODEGEN--\":3503:3519   */\n      swap1\n      pop\n        /* \"--CODEGEN--\":3497:3524   */\n      swap2\n      swap1\n      pop\n      jump\n        /* \"--CODEGEN--\":3531:3652   */\n    tag_122:\n      0x00\n        /* \"--CODEGEN--\":3604:3646   */\n      0xffffffffffffffffffffffffffffffffffffffff\n        /* \"--CODEGEN--\":3597:3602   */\n      dup3\n        /* \"--CODEGEN--\":3593:3647   */\n      and\n        /* \"--CODEGEN--\":3582:3647   */\n      swap1\n      pop\n        /* \"--CODEGEN--\":3576:3652   */\n      swap2\n      swap1\n      pop\n      jump\n        /* \"--CODEGEN--\":3660:3928   */\n    tag_93:\n        /* \"--CODEGEN--\":3725:3726   */\n      0x00\n        /* \"--CODEGEN--\":3732:3833   */\n    tag_126:\n        /* \"--CODEGEN--\":3746:3752   */\n      dup4\n        /* \"--CODEGEN--\":3743:3744   */\n      dup2\n        /* \"--CODEGEN--\":3740:3753   */\n      lt\n        /* \"--CODEGEN--\":3732:3833   */\n      iszero\n      tag_128\n      jumpi\n        /* \"--CODEGEN--\":3822:3823   */\n      dup1\n        /* \"--CODEGEN--\":3817:3820   */\n      dup3\n        /* \"--CODEGEN--\":3813:3824   */\n      add\n        /* \"--CODEGEN--\":3807:3825   */\n      mload\n        /* \"--CODEGEN--\":3803:3804   */\n      dup2\n        /* \"--CODEGEN--\":3798:3801   */\n      dup5\n        /* \"--CODEGEN--\":3794:3805   */\n      add\n        /* \"--CODEGEN--\":3787:3826   */\n      mstore\n        /* \"--CODEGEN--\":3768:3770   */\n      0x20\n        /* \"--CODEGEN--\":3765:3766   */\n      dup2\n        /* \"--CODEGEN--\":3761:3771   */\n      add\n        /* \"--CODEGEN--\":3756:3771   */\n      swap1\n      pop\n        /* \"--CODEGEN--\":3732:3833   */\n      jump(tag_126)\n    tag_128:\n        /* \"--CODEGEN--\":3848:3854   */\n      dup4\n        /* \"--CODEGEN--\":3845:3846   */\n      dup2\n        /* \"--CODEGEN--\":3842:3855   */\n      gt\n        /* \"--CODEGEN--\":3839:3841   */\n      iszero\n      tag_129\n      jumpi\n        /* \"--CODEGEN--\":3913:3914   */\n      0x00\n        /* \"--CODEGEN--\":3904:3910   */\n      dup5\n        /* \"--CODEGEN--\":3899:3902   */\n      dup5\n        /* \"--CODEGEN--\":3895:3911   */\n      add\n        /* \"--CODEGEN--\":3888:3915   */\n      mstore\n        /* \"--CODEGEN--\":3839:3841   */\n    tag_129:\n        /* \"--CODEGEN--\":3709:3928   */\n      pop\n      pop\n      pop\n      pop\n      jump\n        /* \"--CODEGEN--\":3936:4033   */\n    tag_95:\n      0x00\n        /* \"--CODEGEN--\":4024:4026   */\n      0x1f\n        /* \"--CODEGEN--\":4020:4027   */\n      not\n        /* \"--CODEGEN--\":4015:4017   */\n      0x1f\n        /* \"--CODEGEN--\":4008:4013   */\n      dup4\n        /* \"--CODEGEN--\":4004:4018   */\n      add\n        /* \"--CODEGEN--\":4000:4028   */\n      and\n        /* \"--CODEGEN--\":3990:4028   */\n      swap1\n      pop\n        /* \"--CODEGEN--\":3984:4033   */\n      swap2\n      swap1\n      pop\n      jump\n        /* \"--CODEGEN--\":4041:4158   */\n    tag_78:\n        /* \"--CODEGEN--\":4110:4134   */\n      tag_132\n        /* \"--CODEGEN--\":4128:4133   */\n      dup2\n        /* \"--CODEGEN--\":4110:4134   */\n      jump(tag_119)\n    tag_132:\n        /* \"--CODEGEN--\":4103:4108   */\n      dup2\n        /* \"--CODEGEN--\":4100:4135   */\n      eq\n        /* \"--CODEGEN--\":4090:4092   */\n      tag_133\n      jumpi\n        /* \"--CODEGEN--\":4149:4150   */\n      0x00\n        /* \"--CODEGEN--\":4146:4147   */\n      dup1\n        /* \"--CODEGEN--\":4139:4151   */\n      revert\n        /* \"--CODEGEN--\":4090:4092   */\n    tag_133:\n        /* \"--CODEGEN--\":4084:4158   */\n      pop\n      jump\n\n    auxdata: 0xa2646970667358221220aa848a08f8513318dafb26c182555890ffcb3c01800acc70cf732033c785de5c64736f6c63430006040033\n}\n",
				"bytecode": {
					"linkReferences": {},
					"object": "60806040526040518060600160405280602e81526020016109e7602e913960009080519060200190610032929190610098565b506040518060600160405280602a8152602001610a15602a913960019080519060200190610061929190610098565b507f4c45484f4e47564f776a6e66766a3377656838764b4a0000000000000000000060025534801561009257600080fd5b5061013d565b828054600181600116156101000203166002900490600052602060002090601f016020900481019282601f106100d957805160ff1916838001178555610107565b82800160010185558215610107579182015b828111156101065782518255916020019190600101906100eb565b5b5090506101149190610118565b5090565b61013a91905b8082111561013657600081600090555060010161011e565b5090565b90565b61089b8061014c6000396000f3fe608060405234801561001057600080fd5b506004361061004c5760003560e01c806338266b22146100515780639ffd85c414610081578063e3a7fd751461009f578063fc26b0ab146100bd575b600080fd5b61006b6004803603810190610066919061062d565b6100db565b6040516100789190610754565b60405180910390f35b6100896100ed565b6040516100969190610732565b60405180910390f35b6100a761018b565b6040516100b49190610717565b60405180910390f35b6100c5610191565b6040516100d29190610732565b60405180910390f35b60606100e68261022f565b9050919050565b60008054600181600116156101000203166002900480601f0160208091040260200160405190810160405280929190818152602001828054600181600116156101000203166002900480156101835780601f1061015857610100808354040283529160200191610183565b820191906000526020600020905b81548152906001019060200180831161016657829003601f168201915b505050505081565b60025481565b60018054600181600116156101000203166002900480601f0160208091040260200160405190810160405280929190818152602001828054600181600116156101000203166002900480156102275780601f106101fc57610100808354040283529160200191610227565b820191906000526020600020905b81548152906001019060200180831161020a57829003601f168201915b505050505081565b606080604051837414000000000000000000000000000000000000000018601482015260348101604052809150506102668161026e565b915050919050565b6060600182511480156102be5750607f60f81b8260008151811061028e57fe5b602001015160f81c60f81b7effffffffffffffffffffffffffffffffffffffffffffffffffffffffffffff191611155b156102cb578190506102e6565b6102e36102dd8351608060ff166102eb565b8361042c565b90505b919050565b6060680100000000000000008310610338576040517f08c379a000000000000000000000000000000000000000000000000000000000815260040161032f90610776565b60405180910390fd5b606060016040519080825280601f01601f19166020018201604052801561036e5781602001600182028036833780820191505090505b509050603784116103c45782840160f81b8160008151811061038c57fe5b60200101907effffffffffffffffffffffffffffffffffffffffffffffffffffffffffffff1916908160001a90535080915050610426565b60606103cf856104b6565b90506037848251010160f81b826000815181106103e857fe5b60200101907effffffffffffffffffffffffffffffffffffffffffffffffffffffffffffff1916908160001a905350610421828261042c565b925050505b92915050565b6060806040519050835180825260208201818101602087015b818310156104625780518352602083019250602081019050610445565b50855192508351830184528091508282019050602086015b81831015610497578051835260208301925060208101905061047a565b50601f19601f8851850115830101166040525050508091505092915050565b60608060206040519080825280601f01601f1916602001820160405280156104ed5781602001600182028036833780820191505090505b5090508260208201526000807fffffffffffffffffffffffffffffffffffffffffffffffff00000000000000008516141561052b5760189050610565565b60007fffffffffffffffffffffffffffffffff000000000000000000000000000000008516141561055f5760109050610564565b600090505b5b5b60208110156105c457600060f81b82828151811061058057fe5b602001015160f81c60f81b7effffffffffffffffffffffffffffffffffffffffffffffffffffffffffffff1916146105b7576105c4565b8080600101915050610566565b60008160200390506060816040519080825280601f01601f1916602001820160405280156106015781602001600182028036833780820191505090505b509050858282015281815280945050505050919050565b6000813590506106278161084e565b92915050565b60006020828403121561063f57600080fd5b600061064d84828501610618565b91505092915050565b61065f816107e0565b82525050565b6000610670826107a1565b61067a81856107ac565b935061068a81856020860161080a565b6106938161083d565b840191505092915050565b60006106a982610796565b6106b381856107ac565b93506106c381856020860161080a565b6106cc8161083d565b840191505092915050565b60006106e4600e836107bd565b91507f696e70757420746f6f206c6f6e670000000000000000000000000000000000006000830152602082019050919050565b600060208201905061072c6000830184610656565b92915050565b6000602082019050818103600083015261074c818461069e565b905092915050565b6000602082019050818103600083015261076e8184610665565b905092915050565b6000602082019050818103600083015261078f816106d7565b9050919050565b600081519050919050565b600081519050919050565b600082825260208201905092915050565b600082825260208201905092915050565b60006107d9826107ea565b9050919050565b6000819050919050565b600073ffffffffffffffffffffffffffffffffffffffff82169050919050565b60005b8381101561082857808201518184015260208101905061080d565b83811115610837576000848401525b50505050565b6000601f19601f8301169050919050565b610857816107ce565b811461086257600080fd5b5056fea2646970667358221220aa848a08f8513318dafb26c182555890ffcb3c01800acc70cf732033c785de5c64736f6c634300060400334e414c4548484a534744534447484a534448535548444a5348444a53484a53484a534844534a44484a4f4e47564f7364664e417364667364664c4548484a5347445348444a53484a53484a534844534a44484a4f4e47564f",
					"opcodes": "PUSH1 0x80 PUSH1 0x40 MSTORE PUSH1 0x40 MLOAD DUP1 PUSH1 0x60 ADD PUSH1 0x40 MSTORE DUP1 PUSH1 0x2E DUP2 MSTORE PUSH1 0x20 ADD PUSH2 0x9E7 PUSH1 0x2E SWAP2 CODECOPY PUSH1 0x0 SWAP1 DUP1 MLOAD SWAP1 PUSH1 0x20 ADD SWAP1 PUSH2 0x32 SWAP3 SWAP2 SWAP1 PUSH2 0x98 JUMP JUMPDEST POP PUSH1 0x40 MLOAD DUP1 PUSH1 0x60 ADD PUSH1 0x40 MSTORE DUP1 PUSH1 0x2A DUP2 MSTORE PUSH1 0x20 ADD PUSH2 0xA15 PUSH1 0x2A SWAP2 CODECOPY PUSH1 0x1 SWAP1 DUP1 MLOAD SWAP1 PUSH1 0x20 ADD SWAP1 PUSH2 0x61 SWAP3 SWAP2 SWAP1 PUSH2 0x98 JUMP JUMPDEST POP PUSH32 0x4C45484F4E47564F776A6E66766A3377656838764B4A00000000000000000000 PUSH1 0x2 SSTORE CALLVALUE DUP1 ISZERO PUSH2 0x92 JUMPI PUSH1 0x0 DUP1 REVERT JUMPDEST POP PUSH2 0x13D JUMP JUMPDEST DUP3 DUP1 SLOAD PUSH1 0x1 DUP2 PUSH1 0x1 AND ISZERO PUSH2 0x100 MUL SUB AND PUSH1 0x2 SWAP1 DIV SWAP1 PUSH1 0x0 MSTORE PUSH1 0x20 PUSH1 0x0 KECCAK256 SWAP1 PUSH1 0x1F ADD PUSH1 0x20 SWAP1 DIV DUP2 ADD SWAP3 DUP3 PUSH1 0x1F LT PUSH2 0xD9 JUMPI DUP1 MLOAD PUSH1 0xFF NOT AND DUP4 DUP1 ADD OR DUP6 SSTORE PUSH2 0x107 JUMP JUMPDEST DUP3 DUP1 ADD PUSH1 0x1 ADD DUP6 SSTORE DUP3 ISZERO PUSH2 0x107 JUMPI SWAP2 DUP3 ADD JUMPDEST DUP3 DUP2 GT ISZERO PUSH2 0x106 JUMPI DUP3 MLOAD DUP3 SSTORE SWAP2 PUSH1 0x20 ADD SWAP2 SWAP1 PUSH1 0x1 ADD SWAP1 PUSH2 0xEB JUMP JUMPDEST JUMPDEST POP SWAP1 POP PUSH2 0x114 SWAP2 SWAP1 PUSH2 0x118 JUMP JUMPDEST POP SWAP1 JUMP JUMPDEST PUSH2 0x13A SWAP2 SWAP1 JUMPDEST DUP1 DUP3 GT ISZERO PUSH2 0x136 JUMPI PUSH1 0x0 DUP2 PUSH1 0x0 SWAP1 SSTORE POP PUSH1 0x1 ADD PUSH2 0x11E JUMP JUMPDEST POP SWAP1 JUMP JUMPDEST SWAP1 JUMP JUMPDEST PUSH2 0x89B DUP1 PUSH2 0x14C PUSH1 0x0 CODECOPY PUSH1 0x0 RETURN INVALID PUSH1 0x80 PUSH1 0x40 MSTORE CALLVALUE DUP1 ISZERO PUSH2 0x10 JUMPI PUSH1 0x0 DUP1 REVERT JUMPDEST POP PUSH1 0x4 CALLDATASIZE LT PUSH2 0x4C JUMPI PUSH1 0x0 CALLDATALOAD PUSH1 0xE0 SHR DUP1 PUSH4 0x38266B22 EQ PUSH2 0x51 JUMPI DUP1 PUSH4 0x9FFD85C4 EQ PUSH2 0x81 JUMPI DUP1 PUSH4 0xE3A7FD75 EQ PUSH2 0x9F JUMPI DUP1 PUSH4 0xFC26B0AB EQ PUSH2 0xBD JUMPI JUMPDEST PUSH1 0x0 DUP1 REVERT JUMPDEST PUSH2 0x6B PUSH1 0x4 DUP1 CALLDATASIZE SUB DUP2 ADD SWAP1 PUSH2 0x66 SWAP2 SWAP1 PUSH2 0x62D JUMP JUMPDEST PUSH2 0xDB JUMP JUMPDEST PUSH1 0x40 MLOAD PUSH2 0x78 SWAP2 SWAP1 PUSH2 0x754 JUMP JUMPDEST PUSH1 0x40 MLOAD DUP1 SWAP2 SUB SWAP1 RETURN JUMPDEST PUSH2 0x89 PUSH2 0xED JUMP JUMPDEST PUSH1 0x40 MLOAD PUSH2 0x96 SWAP2 SWAP1 PUSH2 0x732 JUMP JUMPDEST PUSH1 0x40 MLOAD DUP1 SWAP2 SUB SWAP1 RETURN JUMPDEST PUSH2 0xA7 PUSH2 0x18B JUMP JUMPDEST PUSH1 0x40 MLOAD PUSH2 0xB4 SWAP2 SWAP1 PUSH2 0x717 JUMP JUMPDEST PUSH1 0x40 MLOAD DUP1 SWAP2 SUB SWAP1 RETURN JUMPDEST PUSH2 0xC5 PUSH2 0x191 JUMP JUMPDEST PUSH1 0x40 MLOAD PUSH2 0xD2 SWAP2 SWAP1 PUSH2 0x732 JUMP JUMPDEST PUSH1 0x40 MLOAD DUP1 SWAP2 SUB SWAP1 RETURN JUMPDEST PUSH1 0x60 PUSH2 0xE6 DUP3 PUSH2 0x22F JUMP JUMPDEST SWAP1 POP SWAP2 SWAP1 POP JUMP JUMPDEST PUSH1 0x0 DUP1 SLOAD PUSH1 0x1 DUP2 PUSH1 0x1 AND ISZERO PUSH2 0x100 MUL SUB AND PUSH1 0x2 SWAP1 DIV DUP1 PUSH1 0x1F ADD PUSH1 0x20 DUP1 SWAP2 DIV MUL PUSH1 0x20 ADD PUSH1 0x40 MLOAD SWAP1 DUP2 ADD PUSH1 0x40 MSTORE DUP1 SWAP3 SWAP2 SWAP1 DUP2 DUP2 MSTORE PUSH1 0x20 ADD DUP3 DUP1 SLOAD PUSH1 0x1 DUP2 PUSH1 0x1 AND ISZERO PUSH2 0x100 MUL SUB AND PUSH1 0x2 SWAP1 DIV DUP1 ISZERO PUSH2 0x183 JUMPI DUP1 PUSH1 0x1F LT PUSH2 0x158 JUMPI PUSH2 0x100 DUP1 DUP4 SLOAD DIV MUL DUP4 MSTORE SWAP2 PUSH1 0x20 ADD SWAP2 PUSH2 0x183 JUMP JUMPDEST DUP3 ADD SWAP2 SWAP1 PUSH1 0x0 MSTORE PUSH1 0x20 PUSH1 0x0 KECCAK256 SWAP1 JUMPDEST DUP2 SLOAD DUP2 MSTORE SWAP1 PUSH1 0x1 ADD SWAP1 PUSH1 0x20 ADD DUP1 DUP4 GT PUSH2 0x166 JUMPI DUP3 SWAP1 SUB PUSH1 0x1F AND DUP3 ADD SWAP2 JUMPDEST POP POP POP POP POP DUP2 JUMP JUMPDEST PUSH1 0x2 SLOAD DUP2 JUMP JUMPDEST PUSH1 0x1 DUP1 SLOAD PUSH1 0x1 DUP2 PUSH1 0x1 AND ISZERO PUSH2 0x100 MUL SUB AND PUSH1 0x2 SWAP1 DIV DUP1 PUSH1 0x1F ADD PUSH1 0x20 DUP1 SWAP2 DIV MUL PUSH1 0x20 ADD PUSH1 0x40 MLOAD SWAP1 DUP2 ADD PUSH1 0x40 MSTORE DUP1 SWAP3 SWAP2 SWAP1 DUP2 DUP2 MSTORE PUSH1 0x20 ADD DUP3 DUP1 SLOAD PUSH1 0x1 DUP2 PUSH1 0x1 AND ISZERO PUSH2 0x100 MUL SUB AND PUSH1 0x2 SWAP1 DIV DUP1 ISZERO PUSH2 0x227 JUMPI DUP1 PUSH1 0x1F LT PUSH2 0x1FC JUMPI PUSH2 0x100 DUP1 DUP4 SLOAD DIV MUL DUP4 MSTORE SWAP2 PUSH1 0x20 ADD SWAP2 PUSH2 0x227 JUMP JUMPDEST DUP3 ADD SWAP2 SWAP1 PUSH1 0x0 MSTORE PUSH1 0x20 PUSH1 0x0 KECCAK256 SWAP1 JUMPDEST DUP2 SLOAD DUP2 MSTORE SWAP1 PUSH1 0x1 ADD SWAP1 PUSH1 0x20 ADD DUP1 DUP4 GT PUSH2 0x20A JUMPI DUP3 SWAP1 SUB PUSH1 0x1F AND DUP3 ADD SWAP2 JUMPDEST POP POP POP POP POP DUP2 JUMP JUMPDEST PUSH1 0x60 DUP1 PUSH1 0x40 MLOAD DUP4 PUSH21 0x140000000000000000000000000000000000000000 XOR PUSH1 0x14 DUP3 ADD MSTORE PUSH1 0x34 DUP2 ADD PUSH1 0x40 MSTORE DUP1 SWAP2 POP POP PUSH2 0x266 DUP2 PUSH2 0x26E JUMP JUMPDEST SWAP2 POP POP SWAP2 SWAP1 POP JUMP JUMPDEST PUSH1 0x60 PUSH1 0x1 DUP3 MLOAD EQ DUP1 ISZERO PUSH2 0x2BE JUMPI POP PUSH1 0x7F PUSH1 0xF8 SHL DUP3 PUSH1 0x0 DUP2 MLOAD DUP2 LT PUSH2 0x28E JUMPI INVALID JUMPDEST PUSH1 0x20 ADD ADD MLOAD PUSH1 0xF8 SHR PUSH1 0xF8 SHL PUSH31 0xFFFFFFFFFFFFFFFFFFFFFFFFFFFFFFFFFFFFFFFFFFFFFFFFFFFFFFFFFFFFFF NOT AND GT ISZERO JUMPDEST ISZERO PUSH2 0x2CB JUMPI DUP2 SWAP1 POP PUSH2 0x2E6 JUMP JUMPDEST PUSH2 0x2E3 PUSH2 0x2DD DUP4 MLOAD PUSH1 0x80 PUSH1 0xFF AND PUSH2 0x2EB JUMP JUMPDEST DUP4 PUSH2 0x42C JUMP JUMPDEST SWAP1 POP JUMPDEST SWAP2 SWAP1 POP JUMP JUMPDEST PUSH1 0x60 PUSH9 0x10000000000000000 DUP4 LT PUSH2 0x338 JUMPI PUSH1 0x40 MLOAD PUSH32 0x8C379A000000000000000000000000000000000000000000000000000000000 DUP2 MSTORE PUSH1 0x4 ADD PUSH2 0x32F SWAP1 PUSH2 0x776 JUMP JUMPDEST PUSH1 0x40 MLOAD DUP1 SWAP2 SUB SWAP1 REVERT JUMPDEST PUSH1 0x60 PUSH1 0x1 PUSH1 0x40 MLOAD SWAP1 DUP1 DUP3 MSTORE DUP1 PUSH1 0x1F ADD PUSH1 0x1F NOT AND PUSH1 0x20 ADD DUP3 ADD PUSH1 0x40 MSTORE DUP1 ISZERO PUSH2 0x36E JUMPI DUP2 PUSH1 0x20 ADD PUSH1 0x1 DUP3 MUL DUP1 CALLDATASIZE DUP4 CALLDATACOPY DUP1 DUP3 ADD SWAP2 POP POP SWAP1 POP JUMPDEST POP SWAP1 POP PUSH1 0x37 DUP5 GT PUSH2 0x3C4 JUMPI DUP3 DUP5 ADD PUSH1 0xF8 SHL DUP2 PUSH1 0x0 DUP2 MLOAD DUP2 LT PUSH2 0x38C JUMPI INVALID JUMPDEST PUSH1 0x20 ADD ADD SWAP1 PUSH31 0xFFFFFFFFFFFFFFFFFFFFFFFFFFFFFFFFFFFFFFFFFFFFFFFFFFFFFFFFFFFFFF NOT AND SWAP1 DUP2 PUSH1 0x0 BYTE SWAP1 MSTORE8 POP DUP1 SWAP2 POP POP PUSH2 0x426 JUMP JUMPDEST PUSH1 0x60 PUSH2 0x3CF DUP6 PUSH2 0x4B6 JUMP JUMPDEST SWAP1 POP PUSH1 0x37 DUP5 DUP3 MLOAD ADD ADD PUSH1 0xF8 SHL DUP3 PUSH1 0x0 DUP2 MLOAD DUP2 LT PUSH2 0x3E8 JUMPI INVALID JUMPDEST PUSH1 0x20 ADD ADD SWAP1 PUSH31 0xFFFFFFFFFFFFFFFFFFFFFFFFFFFFFFFFFFFFFFFFFFFFFFFFFFFFFFFFFFFFFF NOT AND SWAP1 DUP2 PUSH1 0x0 BYTE SWAP1 MSTORE8 POP PUSH2 0x421 DUP3 DUP3 PUSH2 0x42C JUMP JUMPDEST SWAP3 POP POP POP JUMPDEST SWAP3 SWAP2 POP POP JUMP JUMPDEST PUSH1 0x60 DUP1 PUSH1 0x40 MLOAD SWAP1 POP DUP4 MLOAD DUP1 DUP3 MSTORE PUSH1 0x20 DUP3 ADD DUP2 DUP2 ADD PUSH1 0x20 DUP8 ADD JUMPDEST DUP2 DUP4 LT ISZERO PUSH2 0x462 JUMPI DUP1 MLOAD DUP4 MSTORE PUSH1 0x20 DUP4 ADD SWAP3 POP PUSH1 0x20 DUP2 ADD SWAP1 POP PUSH2 0x445 JUMP JUMPDEST POP DUP6 MLOAD SWAP3 POP DUP4 MLOAD DUP4 ADD DUP5 MSTORE DUP1 SWAP2 POP DUP3 DUP3 ADD SWAP1 POP PUSH1 0x20 DUP7 ADD JUMPDEST DUP2 DUP4 LT ISZERO PUSH2 0x497 JUMPI DUP1 MLOAD DUP4 MSTORE PUSH1 0x20 DUP4 ADD SWAP3 POP PUSH1 0x20 DUP2 ADD SWAP1 POP PUSH2 0x47A JUMP JUMPDEST POP PUSH1 0x1F NOT PUSH1 0x1F DUP9 MLOAD DUP6 ADD ISZERO DUP4 ADD ADD AND PUSH1 0x40 MSTORE POP POP POP DUP1 SWAP2 POP POP SWAP3 SWAP2 POP POP JUMP JUMPDEST PUSH1 0x60 DUP1 PUSH1 0x20 PUSH1 0x40 MLOAD SWAP1 DUP1 DUP3 MSTORE DUP1 PUSH1 0x1F ADD PUSH1 0x1F NOT AND PUSH1 0x20 ADD DUP3 ADD PUSH1 0x40 MSTORE DUP1 ISZERO PUSH2 0x4ED JUMPI DUP2 PUSH1 0x20 ADD PUSH1 0x1 DUP3 MUL DUP1 CALLDATASIZE DUP4 CALLDATACOPY DUP1 DUP3 ADD SWAP2 POP POP SWAP1 POP JUMPDEST POP SWAP1 POP DUP3 PUSH1 0x20 DUP3 ADD MSTORE PUSH1 0x0 DUP1 PUSH32 0xFFFFFFFFFFFFFFFFFFFFFFFFFFFFFFFFFFFFFFFFFFFFFFFF0000000000000000 DUP6 AND EQ ISZERO PUSH2 0x52B JUMPI PUSH1 0x18 SWAP1 POP PUSH2 0x565 JUMP JUMPDEST PUSH1 0x0 PUSH32 0xFFFFFFFFFFFFFFFFFFFFFFFFFFFFFFFF00000000000000000000000000000000 DUP6 AND EQ ISZERO PUSH2 0x55F JUMPI PUSH1 0x10 SWAP1 POP PUSH2 0x564 JUMP JUMPDEST PUSH1 0x0 SWAP1 POP JUMPDEST JUMPDEST JUMPDEST PUSH1 0x20 DUP2 LT ISZERO PUSH2 0x5C4 JUMPI PUSH1 0x0 PUSH1 0xF8 SHL DUP3 DUP3 DUP2 MLOAD DUP2 LT PUSH2 0x580 JUMPI INVALID JUMPDEST PUSH1 0x20 ADD ADD MLOAD PUSH1 0xF8 SHR PUSH1 0xF8 SHL PUSH31 0xFFFFFFFFFFFFFFFFFFFFFFFFFFFFFFFFFFFFFFFFFFFFFFFFFFFFFFFFFFFFFF NOT AND EQ PUSH2 0x5B7 JUMPI PUSH2 0x5C4 JUMP JUMPDEST DUP1 DUP1 PUSH1 0x1 ADD SWAP2 POP POP PUSH2 0x566 JUMP JUMPDEST PUSH1 0x0 DUP2 PUSH1 0x20 SUB SWAP1 POP PUSH1 0x60 DUP2 PUSH1 0x40 MLOAD SWAP1 DUP1 DUP3 MSTORE DUP1 PUSH1 0x1F ADD PUSH1 0x1F NOT AND PUSH1 0x20 ADD DUP3 ADD PUSH1 0x40 MSTORE DUP1 ISZERO PUSH2 0x601 JUMPI DUP2 PUSH1 0x20 ADD PUSH1 0x1 DUP3 MUL DUP1 CALLDATASIZE DUP4 CALLDATACOPY DUP1 DUP3 ADD SWAP2 POP POP SWAP1 POP JUMPDEST POP SWAP1 POP DUP6 DUP3 DUP3 ADD MSTORE DUP2 DUP2 MSTORE DUP1 SWAP5 POP POP POP POP POP SWAP2 SWAP1 POP JUMP JUMPDEST PUSH1 0x0 DUP2 CALLDATALOAD SWAP1 POP PUSH2 0x627 DUP2 PUSH2 0x84E JUMP JUMPDEST SWAP3 SWAP2 POP POP JUMP JUMPDEST PUSH1 0x0 PUSH1 0x20 DUP3 DUP5 SUB SLT ISZERO PUSH2 0x63F JUMPI PUSH1 0x0 DUP1 REVERT JUMPDEST PUSH1 0x0 PUSH2 0x64D DUP5 DUP3 DUP6 ADD PUSH2 0x618 JUMP JUMPDEST SWAP2 POP POP SWAP3 SWAP2 POP POP JUMP JUMPDEST PUSH2 0x65F DUP2 PUSH2 0x7E0 JUMP JUMPDEST DUP3 MSTORE POP POP JUMP JUMPDEST PUSH1 0x0 PUSH2 0x670 DUP3 PUSH2 0x7A1 JUMP JUMPDEST PUSH2 0x67A DUP2 DUP6 PUSH2 0x7AC JUMP JUMPDEST SWAP4 POP PUSH2 0x68A DUP2 DUP6 PUSH1 0x20 DUP7 ADD PUSH2 0x80A JUMP JUMPDEST PUSH2 0x693 DUP2 PUSH2 0x83D JUMP JUMPDEST DUP5 ADD SWAP2 POP POP SWAP3 SWAP2 POP POP JUMP JUMPDEST PUSH1 0x0 PUSH2 0x6A9 DUP3 PUSH2 0x796 JUMP JUMPDEST PUSH2 0x6B3 DUP2 DUP6 PUSH2 0x7AC JUMP JUMPDEST SWAP4 POP PUSH2 0x6C3 DUP2 DUP6 PUSH1 0x20 DUP7 ADD PUSH2 0x80A JUMP JUMPDEST PUSH2 0x6CC DUP2 PUSH2 0x83D JUMP JUMPDEST DUP5 ADD SWAP2 POP POP SWAP3 SWAP2 POP POP JUMP JUMPDEST PUSH1 0x0 PUSH2 0x6E4 PUSH1 0xE DUP4 PUSH2 0x7BD JUMP JUMPDEST SWAP2 POP PUSH32 0x696E70757420746F6F206C6F6E67000000000000000000000000000000000000 PUSH1 0x0 DUP4 ADD MSTORE PUSH1 0x20 DUP3 ADD SWAP1 POP SWAP2 SWAP1 POP JUMP JUMPDEST PUSH1 0x0 PUSH1 0x20 DUP3 ADD SWAP1 POP PUSH2 0x72C PUSH1 0x0 DUP4 ADD DUP5 PUSH2 0x656 JUMP JUMPDEST SWAP3 SWAP2 POP POP JUMP JUMPDEST PUSH1 0x0 PUSH1 0x20 DUP3 ADD SWAP1 POP DUP2 DUP2 SUB PUSH1 0x0 DUP4 ADD MSTORE PUSH2 0x74C DUP2 DUP5 PUSH2 0x69E JUMP JUMPDEST SWAP1 POP SWAP3 SWAP2 POP POP JUMP JUMPDEST PUSH1 0x0 PUSH1 0x20 DUP3 ADD SWAP1 POP DUP2 DUP2 SUB PUSH1 0x0 DUP4 ADD MSTORE PUSH2 0x76E DUP2 DUP5 PUSH2 0x665 JUMP JUMPDEST SWAP1 POP SWAP3 SWAP2 POP POP JUMP JUMPDEST PUSH1 0x0 PUSH1 0x20 DUP3 ADD SWAP1 POP DUP2 DUP2 SUB PUSH1 0x0 DUP4 ADD MSTORE PUSH2 0x78F DUP2 PUSH2 0x6D7 JUMP JUMPDEST SWAP1 POP SWAP2 SWAP1 POP JUMP JUMPDEST PUSH1 0x0 DUP2 MLOAD SWAP1 POP SWAP2 SWAP1 POP JUMP JUMPDEST PUSH1 0x0 DUP2 MLOAD SWAP1 POP SWAP2 SWAP1 POP JUMP JUMPDEST PUSH1 0x0 DUP3 DUP3 MSTORE PUSH1 0x20 DUP3 ADD SWAP1 POP SWAP3 SWAP2 POP POP JUMP JUMPDEST PUSH1 0x0 DUP3 DUP3 MSTORE PUSH1 0x20 DUP3 ADD SWAP1 POP SWAP3 SWAP2 POP POP JUMP JUMPDEST PUSH1 0x0 PUSH2 0x7D9 DUP3 PUSH2 0x7EA JUMP JUMPDEST SWAP1 POP SWAP2 SWAP1 POP JUMP JUMPDEST PUSH1 0x0 DUP2 SWAP1 POP SWAP2 SWAP1 POP JUMP JUMPDEST PUSH1 0x0 PUSH20 0xFFFFFFFFFFFFFFFFFFFFFFFFFFFFFFFFFFFFFFFF DUP3 AND SWAP1 POP SWAP2 SWAP1 POP JUMP JUMPDEST PUSH1 0x0 JUMPDEST DUP4 DUP2 LT ISZERO PUSH2 0x828 JUMPI DUP1 DUP3 ADD MLOAD DUP2 DUP5 ADD MSTORE PUSH1 0x20 DUP2 ADD SWAP1 POP PUSH2 0x80D JUMP JUMPDEST DUP4 DUP2 GT ISZERO PUSH2 0x837 JUMPI PUSH1 0x0 DUP5 DUP5 ADD MSTORE JUMPDEST POP POP POP POP JUMP JUMPDEST PUSH1 0x0 PUSH1 0x1F NOT PUSH1 0x1F DUP4 ADD AND SWAP1 POP SWAP2 SWAP1 POP JUMP JUMPDEST PUSH2 0x857 DUP2 PUSH2 0x7CE JUMP JUMPDEST DUP2 EQ PUSH2 0x862 JUMPI PUSH1 0x0 DUP1 REVERT JUMPDEST POP JUMP INVALID LOG2 PUSH5 0x6970667358 0x22 SLT KECCAK256 0xAA DUP5 DUP11 ADDMOD 0xF8 MLOAD CALLER XOR 0xDA 0xFB 0x26 0xC1 DUP3 SSTORE PC SWAP1 SELFDESTRUCT 0xCB EXTCODECOPY ADD DUP1 EXP 0xCC PUSH17 0xCF732033C785DE5C64736F6C6343000604 STOP CALLER 0x4E COINBASE 0x4C GASLIMIT 0x48 0x48 0x4A MSTORE8 SELFBALANCE DIFFICULTY MSTORE8 DIFFICULTY SELFBALANCE 0x48 0x4A MSTORE8 DIFFICULTY 0x48 MSTORE8 SSTORE 0x48 DIFFICULTY 0x4A MSTORE8 0x48 DIFFICULTY 0x4A MSTORE8 0x48 0x4A MSTORE8 0x48 0x4A MSTORE8 0x48 DIFFICULTY MSTORE8 0x4A DIFFICULTY 0x48 0x4A 0x4F 0x4E SELFBALANCE JUMP 0x4F PUSH20 0x64664E417364667364664C4548484A5347445348 DIFFICULTY 0x4A MSTORE8 0x48 0x4A MSTORE8 0x48 0x4A MSTORE8 0x48 DIFFICULTY MSTORE8 0x4A DIFFICULTY 0x48 0x4A 0x4F 0x4E SELFBALANCE JUMP 0x4F "
				},
				"gasEstimates": {
					"creation": {
						"codeDepositCost": "440600",
						"executionCost": "infinite",
						"totalCost": "infinite"
					},
					"external": {
						"data1()": "infinite",
						"data2()": "1151",
						"data3()": "infinite",
						"getData(address)": "infinite"
					},
					"internal": {
						"encodeAddress(address)": "infinite",
						"encodeBool(bool)": "infinite",
						"encodeBytes(bytes memory)": "infinite",
						"encodeLength(uint256,uint256)": "infinite",
						"encodeList(bytes memory[] memory)": "infinite",
						"mergeBytes(bytes memory,bytes memory)": "infinite",
						"toBinary(uint256)": "infinite"
					}
				},
				"methodIdentifiers": {
					"data1()": "9ffd85c4",
					"data2()": "e3a7fd75",
					"data3()": "fc26b0ab",
					"getData(address)": "38266b22"
				}
			},
			"userdoc": {
				"methods": {}
			}
		}
	}
}