{
	"contracts/demo2.sol": {
		"demo2": {
			"abi": [
				{
					"inputs": [],
					"stateMutability": "nonpayable",
					"type": "constructor"
				},
				{
					"inputs": [],
					"name": "data1",
					"outputs": [
						{
							"internalType": "bytes",
							"name": "",
							"type": "bytes"
						}
					],
					"stateMutability": "view",
					"type": "function"
				},
				{
					"inputs": [],
					"name": "data2",
					"outputs": [
						{
							"internalType": "bytes32",
							"name": "",
							"type": "bytes32"
						}
					],
					"stateMutability": "view",
					"type": "function"
				},
				{
					"inputs": [],
					"name": "data3",
					"outputs": [
						{
							"internalType": "bytes",
							"name": "",
							"type": "bytes"
						}
					],
					"stateMutability": "view",
					"type": "function"
				},
				{
					"inputs": [],
					"name": "getDecodeData",
					"outputs": [
						{
							"internalType": "bool",
							"name": "",
							"type": "bool"
						}
					],
					"stateMutability": "view",
					"type": "function"
				},
				{
					"inputs": [],
					"name": "getEncodeData",
					"outputs": [
						{
							"internalType": "bytes",
							"name": "",
							"type": "bytes"
						}
					],
					"stateMutability": "view",
					"type": "function"
				},
				{
					"inputs": [],
					"name": "iterator",
					"outputs": [
						{
							"components": [
								{
									"internalType": "uint256",
									"name": "len",
									"type": "uint256"
								},
								{
									"internalType": "uint256",
									"name": "memPtr",
									"type": "uint256"
								}
							],
							"internalType": "struct demo2.RLPItem",
							"name": "item",
							"type": "tuple"
						},
						{
							"internalType": "uint256",
							"name": "nextPtr",
							"type": "uint256"
						}
					],
					"stateMutability": "view",
					"type": "function"
				},
				{
					"inputs": [],
					"name": "rlpItem",
					"outputs": [
						{
							"internalType": "uint256",
							"name": "len",
							"type": "uint256"
						},
						{
							"internalType": "uint256",
							"name": "memPtr",
							"type": "uint256"
						}
					],
					"stateMutability": "view",
					"type": "function"
				}
			],
			"devdoc": {
				"methods": {}
			},
			"evm": {
				"assembly": "    /* \"contracts/demo2.sol\":81:9528  contract demo2 {\r... */\n  mstore(0x40, 0x80)\n    /* \"contracts/demo2.sol\":107:176  bytes public data1 = \"NALEHHJSGDSDGHJSDHSUHDJSHDJSHJSHJSHDSJDHJONGVO\" */\n  mload(0x40)\n  dup1\n  0x60\n  add\n  0x40\n  mstore\n  dup1\n  0x2e\n  dup2\n  mstore\n  0x20\n  add\n  data_4887836e294a2761413359597244d307bbe3f94827f6160d9e1a399e00e2d1be\n  0x2e\n  swap2\n  codecopy\n  0x00\n  swap1\n  dup1\n  mload\n  swap1\n  0x20\n  add\n  swap1\n  tag_1\n  swap3\n  swap2\n  swap1\n  tag_2\n  jump\t// in\ntag_1:\n  pop\n    /* \"contracts/demo2.sol\":187:252  bytes public data3 = \"sdfNAsdfsdfLEHHJSGDSHDJSHJSHJSHDSJDHJONGVO\" */\n  mload(0x40)\n  dup1\n  0x60\n  add\n  0x40\n  mstore\n  dup1\n  0x2a\n  dup2\n  mstore\n  0x20\n  add\n  data_c359735a342ece061e65ab7390d246d1e53ba5f24eea70d6201f1d4a7b2f3475\n  0x2a\n  swap2\n  codecopy\n  0x01\n  swap1\n  dup1\n  mload\n  swap1\n  0x20\n  add\n  swap1\n  tag_3\n  swap3\n  swap2\n  swap1\n  tag_2\n  jump\t// in\ntag_3:\n  pop\n    /* \"contracts/demo2.sol\":263:310  bytes32 public data2 = \"LEHONGVOwjnfvj3weh8vKJ\" */\n  sstore(0x02, 0x4c45484f4e47564f776a6e66766a3377656838764b4a00000000000000000000)\n    /* \"contracts/demo2.sol\":1035:1204  constructor() public {\r... */\n  callvalue\n    /* \"--CODEGEN--\":5:14   */\n  dup1\n    /* \"--CODEGEN--\":2:4   */\n  iszero\n  tag_4\n  jumpi\n    /* \"--CODEGEN--\":27:28   */\n  0x00\n    /* \"--CODEGEN--\":24:25   */\n  dup1\n    /* \"--CODEGEN--\":17:29   */\n  revert\n    /* \"--CODEGEN--\":2:4   */\ntag_4:\n    /* \"contracts/demo2.sol\":1035:1204  constructor() public {\r... */\n  pop\n    /* \"contracts/demo2.sol\":1085:1086  6 */\n  0x06\n    /* \"contracts/demo2.sol\":1071:1078  rlpItem */\n  0x03\n    /* \"contracts/demo2.sol\":1071:1082  rlpItem.len */\n  0x00\n  add\n    /* \"contracts/demo2.sol\":1071:1086  rlpItem.len = 6 */\n  dup2\n  swap1\n  sstore\n  pop\n    /* \"contracts/demo2.sol\":1118:1119  2 */\n  0x02\n    /* \"contracts/demo2.sol\":1101:1108  rlpItem */\n  0x03\n    /* \"contracts/demo2.sol\":1101:1115  rlpItem.memPtr */\n  0x01\n  add\n    /* \"contracts/demo2.sol\":1101:1119  rlpItem.memPtr = 2 */\n  dup2\n  swap1\n  sstore\n  pop\n    /* \"contracts/demo2.sol\":1150:1157  rlpItem */\n  0x03\n    /* \"contracts/demo2.sol\":1134:1142  iterator */\n  0x05\n    /* \"contracts/demo2.sol\":1134:1147  iterator.item */\n  0x00\n  add\n    /* \"contracts/demo2.sol\":1134:1157  iterator.item = rlpItem */\n  0x00\n  dup3\n  add\n  sload\n  dup2\n  0x00\n  add\n  sstore\n  0x01\n  dup3\n  add\n  sload\n  dup2\n  0x01\n  add\n  sstore\n  swap1\n  pop\n  pop\n    /* \"contracts/demo2.sol\":1191:1192  4 */\n  0x04\n    /* \"contracts/demo2.sol\":1172:1180  iterator */\n  0x05\n    /* \"contracts/demo2.sol\":1172:1188  iterator.nextPtr */\n  0x02\n  add\n    /* \"contracts/demo2.sol\":1172:1192  iterator.nextPtr = 4 */\n  dup2\n  swap1\n  sstore\n  pop\n    /* \"contracts/demo2.sol\":81:9528  contract demo2 {\r... */\n  jump(tag_7)\ntag_2:\n  dup3\n  dup1\n  sload\n  0x01\n  dup2\n  0x01\n  and\n  iszero\n  0x0100\n  mul\n  sub\n  and\n  0x02\n  swap1\n  div\n  swap1\n  0x00\n  mstore\n  keccak256(0x00, 0x20)\n  swap1\n  0x1f\n  add\n  0x20\n  swap1\n  div\n  dup2\n  add\n  swap3\n  dup3\n  0x1f\n  lt\n  tag_9\n  jumpi\n  dup1\n  mload\n  not(0xff)\n  and\n  dup4\n  dup1\n  add\n  or\n  dup6\n  sstore\n  jump(tag_8)\ntag_9:\n  dup3\n  dup1\n  add\n  0x01\n  add\n  dup6\n  sstore\n  dup3\n  iszero\n  tag_8\n  jumpi\n  swap2\n  dup3\n  add\ntag_10:\n  dup3\n  dup2\n  gt\n  iszero\n  tag_11\n  jumpi\n  dup3\n  mload\n  dup3\n  sstore\n  swap2\n  0x20\n  add\n  swap2\n  swap1\n  0x01\n  add\n  swap1\n  jump(tag_10)\ntag_11:\ntag_8:\n  pop\n  swap1\n  pop\n  tag_12\n  swap2\n  swap1\n  tag_13\n  jump\t// in\ntag_12:\n  pop\n  swap1\n  jump\t// out\ntag_13:\n  tag_14\n  swap2\n  swap1\ntag_15:\n  dup1\n  dup3\n  gt\n  iszero\n  tag_16\n  jumpi\n  0x00\n  dup2\n  0x00\n  swap1\n  sstore\n  pop\n  0x01\n  add\n  jump(tag_15)\ntag_16:\n  pop\n  swap1\n  jump\ntag_14:\n  swap1\n  jump\t// out\ntag_7:\n  dataSize(sub_0)\n  dup1\n  dataOffset(sub_0)\n  0x00\n  codecopy\n  0x00\n  return\nstop\ndata_4887836e294a2761413359597244d307bbe3f94827f6160d9e1a399e00e2d1be 4e414c4548484a534744534447484a534448535548444a5348444a53484a53484a534844534a44484a4f4e47564f\ndata_c359735a342ece061e65ab7390d246d1e53ba5f24eea70d6201f1d4a7b2f3475 7364664e417364667364664c4548484a5347445348444a53484a53484a534844534a44484a4f4e47564f\n\nsub_0: assembly {\n        /* \"contracts/demo2.sol\":81:9528  contract demo2 {\r... */\n      mstore(0x40, 0x80)\n      callvalue\n        /* \"--CODEGEN--\":5:14   */\n      dup1\n        /* \"--CODEGEN--\":2:4   */\n      iszero\n      tag_1\n      jumpi\n        /* \"--CODEGEN--\":27:28   */\n      0x00\n        /* \"--CODEGEN--\":24:25   */\n      dup1\n        /* \"--CODEGEN--\":17:29   */\n      revert\n        /* \"--CODEGEN--\":2:4   */\n    tag_1:\n        /* \"contracts/demo2.sol\":81:9528  contract demo2 {\r... */\n      pop\n      jumpi(tag_2, lt(calldatasize, 0x04))\n      shr(0xe0, calldataload(0x00))\n      dup1\n      0xe3a7fd75\n      gt\n      tag_10\n      jumpi\n      dup1\n      0xe3a7fd75\n      eq\n      tag_6\n      jumpi\n      dup1\n      0xeaacd81e\n      eq\n      tag_7\n      jumpi\n      dup1\n      0xfc26b0ab\n      eq\n      tag_8\n      jumpi\n      dup1\n      0xfddcc148\n      eq\n      tag_9\n      jumpi\n      jump(tag_2)\n    tag_10:\n      dup1\n      0x0ff7af0f\n      eq\n      tag_3\n      jumpi\n      dup1\n      0x9ffd85c4\n      eq\n      tag_4\n      jumpi\n      dup1\n      0xa699fb03\n      eq\n      tag_5\n      jumpi\n    tag_2:\n        /* \"--CODEGEN--\":12:13   */\n      0x00\n        /* \"--CODEGEN--\":9:10   */\n      dup1\n        /* \"--CODEGEN--\":2:14   */\n      revert\n        /* \"contracts/demo2.sol\":1233:1333  function getDecodeData() public view returns(bool) {\r... */\n    tag_3:\n      tag_11\n      tag_12\n      jump\t// in\n    tag_11:\n      mload(0x40)\n      tag_13\n      swap2\n      swap1\n      jump(tag_14)\n    tag_13:\n      mload(0x40)\n      dup1\n      swap2\n      sub\n      swap1\n      return\n        /* \"contracts/demo2.sol\":107:176  bytes public data1 = \"NALEHHJSGDSDGHJSDHSUHDJSHDJSHJSHJSHDSJDHJONGVO\" */\n    tag_4:\n      tag_15\n      tag_16\n      jump\t// in\n    tag_15:\n      mload(0x40)\n      tag_17\n      swap2\n      swap1\n      jump(tag_18)\n    tag_17:\n      mload(0x40)\n      dup1\n      swap2\n      sub\n      swap1\n      return\n        /* \"contracts/demo2.sol\":965:987  RLPItem public rlpItem */\n    tag_5:\n      tag_19\n      tag_20\n      jump\t// in\n    tag_19:\n      mload(0x40)\n      tag_21\n      swap3\n      swap2\n      swap1\n      jump(tag_22)\n    tag_21:\n      mload(0x40)\n      dup1\n      swap2\n      sub\n      swap1\n      return\n        /* \"contracts/demo2.sol\":263:310  bytes32 public data2 = \"LEHONGVOwjnfvj3weh8vKJ\" */\n    tag_6:\n      tag_23\n      tag_24\n      jump\t// in\n    tag_23:\n      mload(0x40)\n      tag_25\n      swap2\n      swap1\n      jump(tag_26)\n    tag_25:\n      mload(0x40)\n      dup1\n      swap2\n      sub\n      swap1\n      return\n        /* \"contracts/demo2.sol\":2004:2113  function getEncodeData() public view returns(bytes memory) {\r... */\n    tag_7:\n      tag_27\n      tag_28\n      jump\t// in\n    tag_27:\n      mload(0x40)\n      tag_29\n      swap2\n      swap1\n      jump(tag_30)\n    tag_29:\n      mload(0x40)\n      dup1\n      swap2\n      sub\n      swap1\n      return\n        /* \"contracts/demo2.sol\":187:252  bytes public data3 = \"sdfNAsdfsdfLEHHJSGDSHDJSHJSHJSHDSJDHJONGVO\" */\n    tag_8:\n      tag_31\n      tag_32\n      jump\t// in\n    tag_31:\n      mload(0x40)\n      tag_33\n      swap2\n      swap1\n      jump(tag_18)\n    tag_33:\n      mload(0x40)\n      dup1\n      swap2\n      sub\n      swap1\n      return\n        /* \"contracts/demo2.sol\":998:1022  Iterator public iterator */\n    tag_9:\n      tag_34\n      tag_35\n      jump\t// in\n    tag_34:\n      mload(0x40)\n      tag_36\n      swap3\n      swap2\n      swap1\n      jump(tag_37)\n    tag_36:\n      mload(0x40)\n      dup1\n      swap2\n      sub\n      swap1\n      return\n        /* \"contracts/demo2.sol\":1233:1333  function getDecodeData() public view returns(bool) {\r... */\n    tag_12:\n        /* \"contracts/demo2.sol\":1278:1282  bool */\n      0x00\n        /* \"contracts/demo2.sol\":1306:1321  isList(rlpItem) */\n      tag_39\n        /* \"contracts/demo2.sol\":1313:1320  rlpItem */\n      0x03\n        /* \"contracts/demo2.sol\":1306:1321  isList(rlpItem) */\n      mload(0x40)\n      dup1\n      0x40\n      add\n      0x40\n      mstore\n      swap1\n      dup2\n      0x00\n      dup3\n      add\n      sload\n      dup2\n      mstore\n      0x20\n      add\n      0x01\n      dup3\n      add\n      sload\n      dup2\n      mstore\n      pop\n      pop\n        /* \"contracts/demo2.sol\":1306:1312  isList */\n      tag_40\n        /* \"contracts/demo2.sol\":1306:1321  isList(rlpItem) */\n      jump\t// in\n    tag_39:\n        /* \"contracts/demo2.sol\":1299:1321  return isList(rlpItem) */\n      swap1\n      pop\n        /* \"contracts/demo2.sol\":1233:1333  function getDecodeData() public view returns(bool) {\r... */\n      swap1\n      jump\t// out\n        /* \"contracts/demo2.sol\":107:176  bytes public data1 = \"NALEHHJSGDSDGHJSDHSUHDJSHDJSHJSHJSHDSJDHJONGVO\" */\n    tag_16:\n      0x00\n      dup1\n      sload\n      0x01\n      dup2\n      0x01\n      and\n      iszero\n      0x0100\n      mul\n      sub\n      and\n      0x02\n      swap1\n      div\n      dup1\n      0x1f\n      add\n      0x20\n      dup1\n      swap2\n      div\n      mul\n      0x20\n      add\n      mload(0x40)\n      swap1\n      dup2\n      add\n      0x40\n      mstore\n      dup1\n      swap3\n      swap2\n      swap1\n      dup2\n      dup2\n      mstore\n      0x20\n      add\n      dup3\n      dup1\n      sload\n      0x01\n      dup2\n      0x01\n      and\n      iszero\n      0x0100\n      mul\n      sub\n      and\n      0x02\n      swap1\n      div\n      dup1\n      iszero\n      tag_41\n      jumpi\n      dup1\n      0x1f\n      lt\n      tag_42\n      jumpi\n      0x0100\n      dup1\n      dup4\n      sload\n      div\n      mul\n      dup4\n      mstore\n      swap2\n      0x20\n      add\n      swap2\n      jump(tag_41)\n    tag_42:\n      dup3\n      add\n      swap2\n      swap1\n      0x00\n      mstore\n      keccak256(0x00, 0x20)\n      swap1\n    tag_43:\n      dup2\n      sload\n      dup2\n      mstore\n      swap1\n      0x01\n      add\n      swap1\n      0x20\n      add\n      dup1\n      dup4\n      gt\n      tag_43\n      jumpi\n      dup3\n      swap1\n      sub\n      0x1f\n      and\n      dup3\n      add\n      swap2\n    tag_41:\n      pop\n      pop\n      pop\n      pop\n      pop\n      dup2\n      jump\t// out\n        /* \"contracts/demo2.sol\":965:987  RLPItem public rlpItem */\n    tag_20:\n      0x03\n      dup1\n      0x00\n      add\n      sload\n      swap1\n      dup1\n      0x01\n      add\n      sload\n      swap1\n      pop\n      dup3\n      jump\t// out\n        /* \"contracts/demo2.sol\":263:310  bytes32 public data2 = \"LEHONGVOwjnfvj3weh8vKJ\" */\n    tag_24:\n      sload(0x02)\n      dup2\n      jump\t// out\n        /* \"contracts/demo2.sol\":2004:2113  function getEncodeData() public view returns(bytes memory) {\r... */\n    tag_28:\n        /* \"contracts/demo2.sol\":2049:2061  bytes memory */\n      0x60\n        /* \"contracts/demo2.sol\":2085:2101  toBytes(rlpItem) */\n      tag_45\n        /* \"contracts/demo2.sol\":2093:2100  rlpItem */\n      0x03\n        /* \"contracts/demo2.sol\":2085:2101  toBytes(rlpItem) */\n      mload(0x40)\n      dup1\n      0x40\n      add\n      0x40\n      mstore\n      swap1\n      dup2\n      0x00\n      dup3\n      add\n      sload\n      dup2\n      mstore\n      0x20\n      add\n      0x01\n      dup3\n      add\n      sload\n      dup2\n      mstore\n      pop\n      pop\n        /* \"contracts/demo2.sol\":2085:2092  toBytes */\n      tag_46\n        /* \"contracts/demo2.sol\":2085:2101  toBytes(rlpItem) */\n      jump\t// in\n    tag_45:\n        /* \"contracts/demo2.sol\":2078:2101  return toBytes(rlpItem) */\n      swap1\n      pop\n        /* \"contracts/demo2.sol\":2004:2113  function getEncodeData() public view returns(bytes memory) {\r... */\n      swap1\n      jump\t// out\n        /* \"contracts/demo2.sol\":187:252  bytes public data3 = \"sdfNAsdfsdfLEHHJSGDSHDJSHJSHJSHDSJDHJONGVO\" */\n    tag_32:\n      0x01\n      dup1\n      sload\n      0x01\n      dup2\n      0x01\n      and\n      iszero\n      0x0100\n      mul\n      sub\n      and\n      0x02\n      swap1\n      div\n      dup1\n      0x1f\n      add\n      0x20\n      dup1\n      swap2\n      div\n      mul\n      0x20\n      add\n      mload(0x40)\n      swap1\n      dup2\n      add\n      0x40\n      mstore\n      dup1\n      swap3\n      swap2\n      swap1\n      dup2\n      dup2\n      mstore\n      0x20\n      add\n      dup3\n      dup1\n      sload\n      0x01\n      dup2\n      0x01\n      and\n      iszero\n      0x0100\n      mul\n      sub\n      and\n      0x02\n      swap1\n      div\n      dup1\n      iszero\n      tag_47\n      jumpi\n      dup1\n      0x1f\n      lt\n      tag_48\n      jumpi\n      0x0100\n      dup1\n      dup4\n      sload\n      div\n      mul\n      dup4\n      mstore\n      swap2\n      0x20\n      add\n      swap2\n      jump(tag_47)\n    tag_48:\n      dup3\n      add\n      swap2\n      swap1\n      0x00\n      mstore\n      keccak256(0x00, 0x20)\n      swap1\n    tag_49:\n      dup2\n      sload\n      dup2\n      mstore\n      swap1\n      0x01\n      add\n      swap1\n      0x20\n      add\n      dup1\n      dup4\n      gt\n      tag_49\n      jumpi\n      dup3\n      swap1\n      sub\n      0x1f\n      and\n      dup3\n      add\n      swap2\n    tag_47:\n      pop\n      pop\n      pop\n      pop\n      pop\n      dup2\n      jump\t// out\n        /* \"contracts/demo2.sol\":998:1022  Iterator public iterator */\n    tag_35:\n      0x05\n      dup1\n      0x00\n      add\n      mload(0x40)\n      dup1\n      0x40\n      add\n      0x40\n      mstore\n      swap1\n      dup2\n      0x00\n      dup3\n      add\n      sload\n      dup2\n      mstore\n      0x20\n      add\n      0x01\n      dup3\n      add\n      sload\n      dup2\n      mstore\n      pop\n      pop\n      swap1\n      dup1\n      0x02\n      add\n      sload\n      swap1\n      pop\n      dup3\n      jump\t// out\n        /* \"contracts/demo2.sol\":1345:1727  function isList(RLPItem memory item) internal pure returns (bool) {\r... */\n    tag_40:\n        /* \"contracts/demo2.sol\":1405:1409  bool */\n      0x00\n        /* \"contracts/demo2.sol\":1442:1443  0 */\n      dup1\n        /* \"contracts/demo2.sol\":1430:1434  item */\n      dup3\n        /* \"contracts/demo2.sol\":1430:1438  item.len */\n      0x00\n      add\n      mload\n        /* \"contracts/demo2.sol\":1430:1443  item.len == 0 */\n      eq\n        /* \"contracts/demo2.sol\":1426:1457  if (item.len == 0) return false */\n      iszero\n      tag_51\n      jumpi\n        /* \"contracts/demo2.sol\":1452:1457  false */\n      0x00\n        /* \"contracts/demo2.sol\":1445:1457  return false */\n      swap1\n      pop\n      jump(tag_50)\n        /* \"contracts/demo2.sol\":1426:1457  if (item.len == 0) return false */\n    tag_51:\n        /* \"contracts/demo2.sol\":1474:1485  uint8 byte0 */\n      0x00\n        /* \"contracts/demo2.sol\":1500:1511  uint memPtr */\n      dup1\n        /* \"contracts/demo2.sol\":1514:1518  item */\n      dup4\n        /* \"contracts/demo2.sol\":1514:1525  item.memPtr */\n      0x20\n      add\n      mload\n        /* \"contracts/demo2.sol\":1500:1525  uint memPtr = item.memPtr */\n      swap1\n      pop\n        /* \"contracts/demo2.sol\":1591:1597  memPtr */\n      dup1\n        /* \"contracts/demo2.sol\":1585:1598  mload(memPtr) */\n      mload\n        /* \"contracts/demo2.sol\":1582:1583  0 */\n      0x00\n        /* \"contracts/demo2.sol\":1577:1599  byte(0, mload(memPtr)) */\n      byte\n        /* \"contracts/demo2.sol\":1568:1599  byte0 := byte(0, mload(memPtr)) */\n      swap2\n      pop\n        /* \"contracts/demo2.sol\":573:577  0xc0 */\n      0xc0\n        /* \"contracts/demo2.sol\":1634:1658  byte0 < LIST_SHORT_START */\n      0xff\n      and\n        /* \"contracts/demo2.sol\":1634:1639  byte0 */\n      dup3\n        /* \"contracts/demo2.sol\":1634:1658  byte0 < LIST_SHORT_START */\n      0xff\n      and\n      lt\n        /* \"contracts/demo2.sol\":1630:1689  if (byte0 < LIST_SHORT_START)\r... */\n      iszero\n      tag_52\n      jumpi\n        /* \"contracts/demo2.sol\":1684:1689  false */\n      0x00\n        /* \"contracts/demo2.sol\":1677:1689  return false */\n      swap3\n      pop\n      pop\n      pop\n      jump(tag_50)\n        /* \"contracts/demo2.sol\":1630:1689  if (byte0 < LIST_SHORT_START)\r... */\n    tag_52:\n        /* \"contracts/demo2.sol\":1711:1715  true */\n      0x01\n        /* \"contracts/demo2.sol\":1704:1715  return true */\n      swap3\n      pop\n      pop\n      pop\n        /* \"contracts/demo2.sol\":1345:1727  function isList(RLPItem memory item) internal pure returns (bool) {\r... */\n    tag_50:\n      swap2\n      swap1\n      pop\n      jump\t// out\n        /* \"contracts/demo2.sol\":2386:2875  function toBytes(RLPItem memory item) internal pure returns (bytes memory) {\r... */\n    tag_46:\n        /* \"contracts/demo2.sol\":2447:2459  bytes memory */\n      0x60\n        /* \"contracts/demo2.sol\":2495:2496  0 */\n      0x00\n        /* \"contracts/demo2.sol\":2484:2488  item */\n      dup3\n        /* \"contracts/demo2.sol\":2484:2492  item.len */\n      0x00\n      add\n      mload\n        /* \"contracts/demo2.sol\":2484:2496  item.len > 0 */\n      gt\n        /* \"contracts/demo2.sol\":2476:2497  require(item.len > 0) */\n      tag_54\n      jumpi\n        /* \"--CODEGEN--\":12:13   */\n      0x00\n        /* \"--CODEGEN--\":9:10   */\n      dup1\n        /* \"--CODEGEN--\":2:14   */\n      revert\n        /* \"contracts/demo2.sol\":2476:2497  require(item.len > 0) */\n    tag_54:\n        /* \"contracts/demo2.sol\":2514:2525  uint offset */\n      0x00\n        /* \"contracts/demo2.sol\":2528:2555  _payloadOffset(item.memPtr) */\n      tag_55\n        /* \"contracts/demo2.sol\":2543:2547  item */\n      dup4\n        /* \"contracts/demo2.sol\":2543:2554  item.memPtr */\n      0x20\n      add\n      mload\n        /* \"contracts/demo2.sol\":2528:2542  _payloadOffset */\n      tag_56\n        /* \"contracts/demo2.sol\":2528:2555  _payloadOffset(item.memPtr) */\n      jump\t// in\n    tag_55:\n        /* \"contracts/demo2.sol\":2514:2555  uint offset = _payloadOffset(item.memPtr) */\n      swap1\n      pop\n        /* \"contracts/demo2.sol\":2570:2578  uint len */\n      0x00\n        /* \"contracts/demo2.sol\":2592:2598  offset */\n      dup2\n        /* \"contracts/demo2.sol\":2581:2585  item */\n      dup5\n        /* \"contracts/demo2.sol\":2581:2589  item.len */\n      0x00\n      add\n      mload\n        /* \"contracts/demo2.sol\":2581:2598  item.len - offset */\n      sub\n        /* \"contracts/demo2.sol\":2570:2598  uint len = item.len - offset */\n      swap1\n      pop\n        /* \"contracts/demo2.sol\":2628:2647  bytes memory result */\n      0x60\n        /* \"contracts/demo2.sol\":2660:2663  len */\n      dup2\n        /* \"contracts/demo2.sol\":2650:2664  new bytes(len) */\n      mload(0x40)\n      swap1\n      dup1\n      dup3\n      mstore\n      dup1\n      0x1f\n      add\n      not(0x1f)\n      and\n      0x20\n      add\n      dup3\n      add\n      0x40\n      mstore\n      dup1\n      iszero\n      tag_57\n      jumpi\n      dup2\n      0x20\n      add\n        /* \"--CODEGEN--\":29:30   */\n      0x01\n        /* \"--CODEGEN--\":21:27   */\n      dup3\n        /* \"--CODEGEN--\":17:31   */\n      mul\n        /* \"--CODEGEN--\":124:128   */\n      dup1\n        /* \"--CODEGEN--\":108:122   */\n      calldatasize\n        /* \"--CODEGEN--\":100:106   */\n      dup4\n        /* \"--CODEGEN--\":87:129   */\n      calldatacopy\n        /* \"--CODEGEN--\":155:159   */\n      dup1\n        /* \"--CODEGEN--\":147:153   */\n      dup3\n        /* \"--CODEGEN--\":143:160   */\n      add\n        /* \"--CODEGEN--\":133:160   */\n      swap2\n      pop\n        /* \"--CODEGEN--\":0:164   */\n      pop\n        /* \"contracts/demo2.sol\":2650:2664  new bytes(len) */\n      swap1\n      pop\n    tag_57:\n      pop\n        /* \"contracts/demo2.sol\":2628:2664  bytes memory result = new bytes(len) */\n      swap1\n      pop\n        /* \"contracts/demo2.sol\":2681:2693  uint destPtr */\n      0x00\n        /* \"contracts/demo2.sol\":2757:2763  result */\n      dup2\n        /* \"contracts/demo2.sol\":2751:2755  0x20 */\n      0x20\n        /* \"contracts/demo2.sol\":2747:2764  add(0x20, result) */\n      add\n        /* \"contracts/demo2.sol\":2736:2764  destPtr := add(0x20, result) */\n      swap1\n      pop\n        /* \"contracts/demo2.sol\":2795:2835  copy(item.memPtr + offset, destPtr, len) */\n      tag_58\n        /* \"contracts/demo2.sol\":2814:2820  offset */\n      dup5\n        /* \"contracts/demo2.sol\":2800:2804  item */\n      dup8\n        /* \"contracts/demo2.sol\":2800:2811  item.memPtr */\n      0x20\n      add\n      mload\n        /* \"contracts/demo2.sol\":2800:2820  item.memPtr + offset */\n      add\n        /* \"contracts/demo2.sol\":2822:2829  destPtr */\n      dup3\n        /* \"contracts/demo2.sol\":2831:2834  len */\n      dup6\n        /* \"contracts/demo2.sol\":2795:2799  copy */\n      tag_59\n        /* \"contracts/demo2.sol\":2795:2835  copy(item.memPtr + offset, destPtr, len) */\n      jump\t// in\n    tag_58:\n        /* \"contracts/demo2.sol\":2857:2863  result */\n      dup2\n        /* \"contracts/demo2.sol\":2850:2863  return result */\n      swap5\n      pop\n      pop\n      pop\n      pop\n      pop\n        /* \"contracts/demo2.sol\":2386:2875  function toBytes(RLPItem memory item) internal pure returns (bytes memory) {\r... */\n      swap2\n      swap1\n      pop\n      jump\t// out\n        /* \"contracts/demo2.sol\":8120:8723  function _payloadOffset(uint memPtr) private pure returns (uint) {\r... */\n    tag_56:\n        /* \"contracts/demo2.sol\":8179:8183  uint */\n      0x00\n        /* \"contracts/demo2.sol\":8200:8210  uint byte0 */\n      dup1\n        /* \"contracts/demo2.sol\":8276:8282  memPtr */\n      dup3\n        /* \"contracts/demo2.sol\":8270:8283  mload(memPtr) */\n      mload\n        /* \"contracts/demo2.sol\":8267:8268  0 */\n      0x00\n        /* \"contracts/demo2.sol\":8262:8284  byte(0, mload(memPtr)) */\n      byte\n        /* \"contracts/demo2.sol\":8253:8284  byte0 := byte(0, mload(memPtr)) */\n      swap1\n      pop\n        /* \"contracts/demo2.sol\":459:463  0x80 */\n      0x80\n        /* \"contracts/demo2.sol\":8319:8345  byte0 < STRING_SHORT_START */\n      0xff\n      and\n        /* \"contracts/demo2.sol\":8319:8324  byte0 */\n      dup2\n        /* \"contracts/demo2.sol\":8319:8345  byte0 < STRING_SHORT_START */\n      lt\n        /* \"contracts/demo2.sol\":8315:8711  if (byte0 < STRING_SHORT_START)\r... */\n      iszero\n      tag_61\n      jumpi\n        /* \"contracts/demo2.sol\":8371:8372  0 */\n      0x00\n        /* \"contracts/demo2.sol\":8364:8372  return 0 */\n      swap2\n      pop\n      pop\n      jump(tag_60)\n        /* \"contracts/demo2.sol\":8315:8711  if (byte0 < STRING_SHORT_START)\r... */\n    tag_61:\n        /* \"contracts/demo2.sol\":516:520  0xb8 */\n      0xb8\n        /* \"contracts/demo2.sol\":8396:8421  byte0 < STRING_LONG_START */\n      0xff\n      and\n        /* \"contracts/demo2.sol\":8396:8401  byte0 */\n      dup2\n        /* \"contracts/demo2.sol\":8396:8421  byte0 < STRING_LONG_START */\n      lt\n        /* \"contracts/demo2.sol\":8396:8479  byte0 < STRING_LONG_START || (byte0 >= LIST_SHORT_START && byte0 < LIST_LONG_START) */\n      dup1\n      tag_63\n      jumpi\n      pop\n        /* \"contracts/demo2.sol\":573:577  0xc0 */\n      0xc0\n        /* \"contracts/demo2.sol\":8426:8451  byte0 >= LIST_SHORT_START */\n      0xff\n      and\n        /* \"contracts/demo2.sol\":8426:8431  byte0 */\n      dup2\n        /* \"contracts/demo2.sol\":8426:8451  byte0 >= LIST_SHORT_START */\n      lt\n      iszero\n        /* \"contracts/demo2.sol\":8426:8478  byte0 >= LIST_SHORT_START && byte0 < LIST_LONG_START */\n      dup1\n      iszero\n      tag_64\n      jumpi\n      pop\n        /* \"contracts/demo2.sol\":630:634  0xf8 */\n      0xf8\n        /* \"contracts/demo2.sol\":8455:8478  byte0 < LIST_LONG_START */\n      0xff\n      and\n        /* \"contracts/demo2.sol\":8455:8460  byte0 */\n      dup2\n        /* \"contracts/demo2.sol\":8455:8478  byte0 < LIST_LONG_START */\n      lt\n        /* \"contracts/demo2.sol\":8426:8478  byte0 >= LIST_SHORT_START && byte0 < LIST_LONG_START */\n    tag_64:\n        /* \"contracts/demo2.sol\":8396:8479  byte0 < STRING_LONG_START || (byte0 >= LIST_SHORT_START && byte0 < LIST_LONG_START) */\n    tag_63:\n        /* \"contracts/demo2.sol\":8392:8711  if (byte0 < STRING_LONG_START || (byte0 >= LIST_SHORT_START && byte0 < LIST_LONG_START))\r... */\n      iszero\n      tag_65\n      jumpi\n        /* \"contracts/demo2.sol\":8505:8506  1 */\n      0x01\n        /* \"contracts/demo2.sol\":8498:8506  return 1 */\n      swap2\n      pop\n      pop\n      jump(tag_60)\n        /* \"contracts/demo2.sol\":8392:8711  if (byte0 < STRING_LONG_START || (byte0 >= LIST_SHORT_START && byte0 < LIST_LONG_START))\r... */\n    tag_65:\n        /* \"contracts/demo2.sol\":573:577  0xc0 */\n      0xc0\n        /* \"contracts/demo2.sol\":8530:8554  byte0 < LIST_SHORT_START */\n      0xff\n      and\n        /* \"contracts/demo2.sol\":8530:8535  byte0 */\n      dup2\n        /* \"contracts/demo2.sol\":8530:8554  byte0 < LIST_SHORT_START */\n      lt\n        /* \"contracts/demo2.sol\":8526:8711  if (byte0 < LIST_SHORT_START)  // being explicit\r... */\n      iszero\n      tag_67\n      jumpi\n        /* \"contracts/demo2.sol\":8633:8634  1 */\n      0x01\n        /* \"contracts/demo2.sol\":8628:8629  1 */\n      dup1\n        /* \"contracts/demo2.sol\":516:520  0xb8 */\n      0xb8\n        /* \"contracts/demo2.sol\":8608:8629  STRING_LONG_START - 1 */\n      sub\n        /* \"contracts/demo2.sol\":8599:8630  byte0 - (STRING_LONG_START - 1) */\n      0xff\n      and\n        /* \"contracts/demo2.sol\":8599:8604  byte0 */\n      dup3\n        /* \"contracts/demo2.sol\":8599:8630  byte0 - (STRING_LONG_START - 1) */\n      sub\n        /* \"contracts/demo2.sol\":8599:8634  byte0 - (STRING_LONG_START - 1) + 1 */\n      add\n        /* \"contracts/demo2.sol\":8592:8634  return byte0 - (STRING_LONG_START - 1) + 1 */\n      swap2\n      pop\n      pop\n      jump(tag_60)\n        /* \"contracts/demo2.sol\":8526:8711  if (byte0 < LIST_SHORT_START)  // being explicit\r... */\n    tag_67:\n        /* \"contracts/demo2.sol\":8710:8711  1 */\n      0x01\n        /* \"contracts/demo2.sol\":8705:8706  1 */\n      dup1\n        /* \"contracts/demo2.sol\":630:634  0xf8 */\n      0xf8\n        /* \"contracts/demo2.sol\":8687:8706  LIST_LONG_START - 1 */\n      sub\n        /* \"contracts/demo2.sol\":8678:8707  byte0 - (LIST_LONG_START - 1) */\n      0xff\n      and\n        /* \"contracts/demo2.sol\":8678:8683  byte0 */\n      dup3\n        /* \"contracts/demo2.sol\":8678:8707  byte0 - (LIST_LONG_START - 1) */\n      sub\n        /* \"contracts/demo2.sol\":8678:8711  byte0 - (LIST_LONG_START - 1) + 1 */\n      add\n        /* \"contracts/demo2.sol\":8671:8711  return byte0 - (LIST_LONG_START - 1) + 1 */\n      swap2\n      pop\n      pop\n        /* \"contracts/demo2.sol\":8120:8723  function _payloadOffset(uint memPtr) private pure returns (uint) {\r... */\n    tag_60:\n      swap2\n      swap1\n      pop\n      jump\t// out\n        /* \"contracts/demo2.sol\":8736:9521  function copy(uint src, uint dest, uint len) private pure {\r... */\n    tag_59:\n        /* \"contracts/demo2.sol\":8820:8821  0 */\n      0x00\n        /* \"contracts/demo2.sol\":8813:8816  len */\n      dup2\n        /* \"contracts/demo2.sol\":8813:8821  len == 0 */\n      eq\n        /* \"contracts/demo2.sol\":8809:8830  if (len == 0) return; */\n      iszero\n      tag_70\n      jumpi\n        /* \"contracts/demo2.sol\":8823:8830  return; */\n      jump(tag_69)\n        /* \"contracts/demo2.sol\":8809:8830  if (len == 0) return; */\n    tag_70:\n        /* \"contracts/demo2.sol\":8898:9123  for (; len >= WORD_SIZE; len -= WORD_SIZE) {\r... */\n    tag_71:\n        /* \"contracts/demo2.sol\":678:680  32 */\n      0x20\n        /* \"contracts/demo2.sol\":8905:8921  len >= WORD_SIZE */\n      0xff\n      and\n        /* \"contracts/demo2.sol\":8905:8908  len */\n      dup2\n        /* \"contracts/demo2.sol\":8905:8921  len >= WORD_SIZE */\n      lt\n        /* \"contracts/demo2.sol\":8898:9123  for (; len >= WORD_SIZE; len -= WORD_SIZE) {\r... */\n      tag_72\n      jumpi\n        /* \"contracts/demo2.sol\":9011:9014  src */\n      dup3\n        /* \"contracts/demo2.sol\":9005:9015  mload(src) */\n      mload\n        /* \"contracts/demo2.sol\":8999:9003  dest */\n      dup3\n        /* \"contracts/demo2.sol\":8992:9016  mstore(dest, mload(src)) */\n      mstore\n        /* \"contracts/demo2.sol\":678:680  32 */\n      0x20\n        /* \"contracts/demo2.sol\":9055:9071  src += WORD_SIZE */\n      0xff\n      and\n      dup4\n      add\n      swap3\n      pop\n        /* \"contracts/demo2.sol\":678:680  32 */\n      0x20\n        /* \"contracts/demo2.sol\":9090:9107  dest += WORD_SIZE */\n      0xff\n      and\n      dup3\n      add\n      swap2\n      pop\n        /* \"contracts/demo2.sol\":678:680  32 */\n      0x20\n        /* \"contracts/demo2.sol\":8923:8939  len -= WORD_SIZE */\n      0xff\n      and\n      dup2\n      sub\n      swap1\n      pop\n        /* \"contracts/demo2.sol\":8898:9123  for (; len >= WORD_SIZE; len -= WORD_SIZE) {\r... */\n      jump(tag_71)\n    tag_72:\n        /* \"contracts/demo2.sol\":9224:9233  uint mask */\n      0x00\n        /* \"contracts/demo2.sol\":9263:9264  1 */\n      0x01\n        /* \"contracts/demo2.sol\":9256:9259  len */\n      dup3\n        /* \"contracts/demo2.sol\":678:680  32 */\n      0x20\n        /* \"contracts/demo2.sol\":9244:9259  WORD_SIZE - len */\n      0xff\n      and\n      sub\n        /* \"contracts/demo2.sol\":9236:9239  256 */\n      0x0100\n        /* \"contracts/demo2.sol\":9236:9260  256 ** (WORD_SIZE - len) */\n      exp\n        /* \"contracts/demo2.sol\":9236:9264  256 ** (WORD_SIZE - len) - 1 */\n      sub\n        /* \"contracts/demo2.sol\":9224:9264  uint mask = 256 ** (WORD_SIZE - len) - 1 */\n      swap1\n      pop\n        /* \"contracts/demo2.sol\":9342:9346  mask */\n      dup1\n        /* \"contracts/demo2.sol\":9338:9347  not(mask) */\n      not\n        /* \"contracts/demo2.sol\":9332:9335  src */\n      dup5\n        /* \"contracts/demo2.sol\":9326:9336  mload(src) */\n      mload\n        /* \"contracts/demo2.sol\":9322:9348  and(mload(src), not(mask)) */\n      and\n        /* \"contracts/demo2.sol\":9415:9419  mask */\n      dup2\n        /* \"contracts/demo2.sol\":9408:9412  dest */\n      dup5\n        /* \"contracts/demo2.sol\":9402:9413  mload(dest) */\n      mload\n        /* \"contracts/demo2.sol\":9398:9420  and(mload(dest), mask) */\n      and\n        /* \"contracts/demo2.sol\":9486:9493  srcpart */\n      dup2\n        /* \"contracts/demo2.sol\":9476:9484  destpart */\n      dup2\n        /* \"contracts/demo2.sol\":9473:9494  or(destpart, srcpart) */\n      or\n        /* \"contracts/demo2.sol\":9467:9471  dest */\n      dup6\n        /* \"contracts/demo2.sol\":9460:9495  mstore(dest, or(destpart, srcpart)) */\n      mstore\n        /* \"contracts/demo2.sol\":9288:9510  {\r... */\n      pop\n      pop\n      pop\n    tag_69:\n      pop\n      pop\n      pop\n      jump\t// out\n        /* \"--CODEGEN--\":5:109   */\n    tag_75:\n        /* \"--CODEGEN--\":82:103   */\n      tag_77\n        /* \"--CODEGEN--\":97:102   */\n      dup2\n        /* \"--CODEGEN--\":82:103   */\n      jump(tag_78)\n    tag_77:\n        /* \"--CODEGEN--\":77:80   */\n      dup3\n        /* \"--CODEGEN--\":70:104   */\n      mstore\n        /* \"--CODEGEN--\":64:109   */\n      pop\n      pop\n      jump\n        /* \"--CODEGEN--\":116:229   */\n    tag_79:\n        /* \"--CODEGEN--\":199:223   */\n      tag_81\n        /* \"--CODEGEN--\":217:222   */\n      dup2\n        /* \"--CODEGEN--\":199:223   */\n      jump(tag_82)\n    tag_81:\n        /* \"--CODEGEN--\":194:197   */\n      dup3\n        /* \"--CODEGEN--\":187:224   */\n      mstore\n        /* \"--CODEGEN--\":181:229   */\n      pop\n      pop\n      jump\n        /* \"--CODEGEN--\":236:579   */\n    tag_83:\n      0x00\n        /* \"--CODEGEN--\":346:384   */\n      tag_85\n        /* \"--CODEGEN--\":378:383   */\n      dup3\n        /* \"--CODEGEN--\":346:384   */\n      jump(tag_86)\n    tag_85:\n        /* \"--CODEGEN--\":396:466   */\n      tag_87\n        /* \"--CODEGEN--\":459:465   */\n      dup2\n        /* \"--CODEGEN--\":454:457   */\n      dup6\n        /* \"--CODEGEN--\":396:466   */\n      jump(tag_88)\n    tag_87:\n        /* \"--CODEGEN--\":389:466   */\n      swap4\n      pop\n        /* \"--CODEGEN--\":471:523   */\n      tag_89\n        /* \"--CODEGEN--\":516:522   */\n      dup2\n        /* \"--CODEGEN--\":511:514   */\n      dup6\n        /* \"--CODEGEN--\":504:508   */\n      0x20\n        /* \"--CODEGEN--\":497:502   */\n      dup7\n        /* \"--CODEGEN--\":493:509   */\n      add\n        /* \"--CODEGEN--\":471:523   */\n      jump(tag_90)\n    tag_89:\n        /* \"--CODEGEN--\":544:573   */\n      tag_91\n        /* \"--CODEGEN--\":566:572   */\n      dup2\n        /* \"--CODEGEN--\":544:573   */\n      jump(tag_92)\n    tag_91:\n        /* \"--CODEGEN--\":539:542   */\n      dup5\n        /* \"--CODEGEN--\":535:574   */\n      add\n        /* \"--CODEGEN--\":528:574   */\n      swap2\n      pop\n        /* \"--CODEGEN--\":326:579   */\n      pop\n      swap3\n      swap2\n      pop\n      pop\n      jump\n        /* \"--CODEGEN--\":586:921   */\n    tag_93:\n      0x00\n        /* \"--CODEGEN--\":692:726   */\n      tag_95\n        /* \"--CODEGEN--\":720:725   */\n      dup3\n        /* \"--CODEGEN--\":692:726   */\n      jump(tag_96)\n    tag_95:\n        /* \"--CODEGEN--\":738:808   */\n      tag_97\n        /* \"--CODEGEN--\":801:807   */\n      dup2\n        /* \"--CODEGEN--\":796:799   */\n      dup6\n        /* \"--CODEGEN--\":738:808   */\n      jump(tag_88)\n    tag_97:\n        /* \"--CODEGEN--\":731:808   */\n      swap4\n      pop\n        /* \"--CODEGEN--\":813:865   */\n      tag_98\n        /* \"--CODEGEN--\":858:864   */\n      dup2\n        /* \"--CODEGEN--\":853:856   */\n      dup6\n        /* \"--CODEGEN--\":846:850   */\n      0x20\n        /* \"--CODEGEN--\":839:844   */\n      dup7\n        /* \"--CODEGEN--\":835:851   */\n      add\n        /* \"--CODEGEN--\":813:865   */\n      jump(tag_90)\n    tag_98:\n        /* \"--CODEGEN--\":886:915   */\n      tag_99\n        /* \"--CODEGEN--\":908:914   */\n      dup2\n        /* \"--CODEGEN--\":886:915   */\n      jump(tag_92)\n    tag_99:\n        /* \"--CODEGEN--\":881:884   */\n      dup5\n        /* \"--CODEGEN--\":877:916   */\n      add\n        /* \"--CODEGEN--\":870:916   */\n      swap2\n      pop\n        /* \"--CODEGEN--\":672:921   */\n      pop\n      swap3\n      swap2\n      pop\n      pop\n      jump\n        /* \"--CODEGEN--\":979:1448   */\n    tag_100:\n        /* \"--CODEGEN--\":1114:1118   */\n      0x40\n        /* \"--CODEGEN--\":1109:1112   */\n      dup3\n        /* \"--CODEGEN--\":1105:1119   */\n      add\n        /* \"--CODEGEN--\":1196:1200   */\n      0x00\n        /* \"--CODEGEN--\":1189:1194   */\n      dup3\n        /* \"--CODEGEN--\":1185:1201   */\n      add\n        /* \"--CODEGEN--\":1179:1202   */\n      mload\n        /* \"--CODEGEN--\":1208:1271   */\n      tag_102\n        /* \"--CODEGEN--\":1265:1269   */\n      0x00\n        /* \"--CODEGEN--\":1260:1263   */\n      dup6\n        /* \"--CODEGEN--\":1256:1270   */\n      add\n        /* \"--CODEGEN--\":1242:1254   */\n      dup3\n        /* \"--CODEGEN--\":1208:1271   */\n      jump(tag_103)\n    tag_102:\n        /* \"--CODEGEN--\":1134:1277   */\n      pop\n        /* \"--CODEGEN--\":1352:1356   */\n      0x20\n        /* \"--CODEGEN--\":1345:1350   */\n      dup3\n        /* \"--CODEGEN--\":1341:1357   */\n      add\n        /* \"--CODEGEN--\":1335:1358   */\n      mload\n        /* \"--CODEGEN--\":1364:1427   */\n      tag_104\n        /* \"--CODEGEN--\":1421:1425   */\n      0x20\n        /* \"--CODEGEN--\":1416:1419   */\n      dup6\n        /* \"--CODEGEN--\":1412:1426   */\n      add\n        /* \"--CODEGEN--\":1398:1410   */\n      dup3\n        /* \"--CODEGEN--\":1364:1427   */\n      jump(tag_103)\n    tag_104:\n        /* \"--CODEGEN--\":1287:1433   */\n      pop\n        /* \"--CODEGEN--\":1087:1448   */\n      pop\n      pop\n      pop\n      jump\n        /* \"--CODEGEN--\":1455:1558   */\n    tag_103:\n        /* \"--CODEGEN--\":1528:1552   */\n      tag_106\n        /* \"--CODEGEN--\":1546:1551   */\n      dup2\n        /* \"--CODEGEN--\":1528:1552   */\n      jump(tag_107)\n    tag_106:\n        /* \"--CODEGEN--\":1523:1526   */\n      dup3\n        /* \"--CODEGEN--\":1516:1553   */\n      mstore\n        /* \"--CODEGEN--\":1510:1558   */\n      pop\n      pop\n      jump\n        /* \"--CODEGEN--\":1565:1678   */\n    tag_108:\n        /* \"--CODEGEN--\":1648:1672   */\n      tag_110\n        /* \"--CODEGEN--\":1666:1671   */\n      dup2\n        /* \"--CODEGEN--\":1648:1672   */\n      jump(tag_107)\n    tag_110:\n        /* \"--CODEGEN--\":1643:1646   */\n      dup3\n        /* \"--CODEGEN--\":1636:1673   */\n      mstore\n        /* \"--CODEGEN--\":1630:1678   */\n      pop\n      pop\n      jump\n        /* \"--CODEGEN--\":1685:1886   */\n    tag_14:\n      0x00\n        /* \"--CODEGEN--\":1797:1799   */\n      0x20\n        /* \"--CODEGEN--\":1786:1795   */\n      dup3\n        /* \"--CODEGEN--\":1782:1800   */\n      add\n        /* \"--CODEGEN--\":1774:1800   */\n      swap1\n      pop\n        /* \"--CODEGEN--\":1811:1876   */\n      tag_112\n        /* \"--CODEGEN--\":1873:1874   */\n      0x00\n        /* \"--CODEGEN--\":1862:1871   */\n      dup4\n        /* \"--CODEGEN--\":1858:1875   */\n      add\n        /* \"--CODEGEN--\":1849:1855   */\n      dup5\n        /* \"--CODEGEN--\":1811:1876   */\n      jump(tag_75)\n    tag_112:\n        /* \"--CODEGEN--\":1768:1886   */\n      swap3\n      swap2\n      pop\n      pop\n      jump\n        /* \"--CODEGEN--\":1893:2106   */\n    tag_26:\n      0x00\n        /* \"--CODEGEN--\":2011:2013   */\n      0x20\n        /* \"--CODEGEN--\":2000:2009   */\n      dup3\n        /* \"--CODEGEN--\":1996:2014   */\n      add\n        /* \"--CODEGEN--\":1988:2014   */\n      swap1\n      pop\n        /* \"--CODEGEN--\":2025:2096   */\n      tag_114\n        /* \"--CODEGEN--\":2093:2094   */\n      0x00\n        /* \"--CODEGEN--\":2082:2091   */\n      dup4\n        /* \"--CODEGEN--\":2078:2095   */\n      add\n        /* \"--CODEGEN--\":2069:2075   */\n      dup5\n        /* \"--CODEGEN--\":2025:2096   */\n      jump(tag_79)\n    tag_114:\n        /* \"--CODEGEN--\":1982:2106   */\n      swap3\n      swap2\n      pop\n      pop\n      jump\n        /* \"--CODEGEN--\":2113:2402   */\n    tag_18:\n      0x00\n        /* \"--CODEGEN--\":2245:2247   */\n      0x20\n        /* \"--CODEGEN--\":2234:2243   */\n      dup3\n        /* \"--CODEGEN--\":2230:2248   */\n      add\n        /* \"--CODEGEN--\":2222:2248   */\n      swap1\n      pop\n        /* \"--CODEGEN--\":2295:2304   */\n      dup2\n        /* \"--CODEGEN--\":2289:2293   */\n      dup2\n        /* \"--CODEGEN--\":2285:2305   */\n      sub\n        /* \"--CODEGEN--\":2281:2282   */\n      0x00\n        /* \"--CODEGEN--\":2270:2279   */\n      dup4\n        /* \"--CODEGEN--\":2266:2283   */\n      add\n        /* \"--CODEGEN--\":2259:2306   */\n      mstore\n        /* \"--CODEGEN--\":2320:2392   */\n      tag_116\n        /* \"--CODEGEN--\":2387:2391   */\n      dup2\n        /* \"--CODEGEN--\":2378:2384   */\n      dup5\n        /* \"--CODEGEN--\":2320:2392   */\n      jump(tag_93)\n    tag_116:\n        /* \"--CODEGEN--\":2312:2392   */\n      swap1\n      pop\n        /* \"--CODEGEN--\":2216:2402   */\n      swap3\n      swap2\n      pop\n      pop\n      jump\n        /* \"--CODEGEN--\":2409:2706   */\n    tag_30:\n      0x00\n        /* \"--CODEGEN--\":2545:2547   */\n      0x20\n        /* \"--CODEGEN--\":2534:2543   */\n      dup3\n        /* \"--CODEGEN--\":2530:2548   */\n      add\n        /* \"--CODEGEN--\":2522:2548   */\n      swap1\n      pop\n        /* \"--CODEGEN--\":2595:2604   */\n      dup2\n        /* \"--CODEGEN--\":2589:2593   */\n      dup2\n        /* \"--CODEGEN--\":2585:2605   */\n      sub\n        /* \"--CODEGEN--\":2581:2582   */\n      0x00\n        /* \"--CODEGEN--\":2570:2579   */\n      dup4\n        /* \"--CODEGEN--\":2566:2583   */\n      add\n        /* \"--CODEGEN--\":2559:2606   */\n      mstore\n        /* \"--CODEGEN--\":2620:2696   */\n      tag_118\n        /* \"--CODEGEN--\":2691:2695   */\n      dup2\n        /* \"--CODEGEN--\":2682:2688   */\n      dup5\n        /* \"--CODEGEN--\":2620:2696   */\n      jump(tag_83)\n    tag_118:\n        /* \"--CODEGEN--\":2612:2696   */\n      swap1\n      pop\n        /* \"--CODEGEN--\":2516:2706   */\n      swap3\n      swap2\n      pop\n      pop\n      jump\n        /* \"--CODEGEN--\":2713:3121   */\n    tag_37:\n      0x00\n        /* \"--CODEGEN--\":2901:2903   */\n      0x60\n        /* \"--CODEGEN--\":2890:2899   */\n      dup3\n        /* \"--CODEGEN--\":2886:2904   */\n      add\n        /* \"--CODEGEN--\":2878:2904   */\n      swap1\n      pop\n        /* \"--CODEGEN--\":2915:3028   */\n      tag_120\n        /* \"--CODEGEN--\":3025:3026   */\n      0x00\n        /* \"--CODEGEN--\":3014:3023   */\n      dup4\n        /* \"--CODEGEN--\":3010:3027   */\n      add\n        /* \"--CODEGEN--\":3001:3007   */\n      dup6\n        /* \"--CODEGEN--\":2915:3028   */\n      jump(tag_100)\n    tag_120:\n        /* \"--CODEGEN--\":3039:3111   */\n      tag_121\n        /* \"--CODEGEN--\":3107:3109   */\n      0x40\n        /* \"--CODEGEN--\":3096:3105   */\n      dup4\n        /* \"--CODEGEN--\":3092:3110   */\n      add\n        /* \"--CODEGEN--\":3083:3089   */\n      dup5\n        /* \"--CODEGEN--\":3039:3111   */\n      jump(tag_108)\n    tag_121:\n        /* \"--CODEGEN--\":2872:3121   */\n      swap4\n      swap3\n      pop\n      pop\n      pop\n      jump\n        /* \"--CODEGEN--\":3128:3452   */\n    tag_22:\n      0x00\n        /* \"--CODEGEN--\":3274:3276   */\n      0x40\n        /* \"--CODEGEN--\":3263:3272   */\n      dup3\n        /* \"--CODEGEN--\":3259:3277   */\n      add\n        /* \"--CODEGEN--\":3251:3277   */\n      swap1\n      pop\n        /* \"--CODEGEN--\":3288:3359   */\n      tag_123\n        /* \"--CODEGEN--\":3356:3357   */\n      0x00\n        /* \"--CODEGEN--\":3345:3354   */\n      dup4\n        /* \"--CODEGEN--\":3341:3358   */\n      add\n        /* \"--CODEGEN--\":3332:3338   */\n      dup6\n        /* \"--CODEGEN--\":3288:3359   */\n      jump(tag_108)\n    tag_123:\n        /* \"--CODEGEN--\":3370:3442   */\n      tag_124\n        /* \"--CODEGEN--\":3438:3440   */\n      0x20\n        /* \"--CODEGEN--\":3427:3436   */\n      dup4\n        /* \"--CODEGEN--\":3423:3441   */\n      add\n        /* \"--CODEGEN--\":3414:3420   */\n      dup5\n        /* \"--CODEGEN--\":3370:3442   */\n      jump(tag_108)\n    tag_124:\n        /* \"--CODEGEN--\":3245:3452   */\n      swap4\n      swap3\n      pop\n      pop\n      pop\n      jump\n        /* \"--CODEGEN--\":3459:3576   */\n    tag_96:\n      0x00\n        /* \"--CODEGEN--\":3548:3553   */\n      dup2\n        /* \"--CODEGEN--\":3542:3554   */\n      mload\n        /* \"--CODEGEN--\":3532:3554   */\n      swap1\n      pop\n        /* \"--CODEGEN--\":3513:3576   */\n      swap2\n      swap1\n      pop\n      jump\n        /* \"--CODEGEN--\":3583:3704   */\n    tag_86:\n      0x00\n        /* \"--CODEGEN--\":3676:3681   */\n      dup2\n        /* \"--CODEGEN--\":3670:3682   */\n      mload\n        /* \"--CODEGEN--\":3660:3682   */\n      swap1\n      pop\n        /* \"--CODEGEN--\":3641:3704   */\n      swap2\n      swap1\n      pop\n      jump\n        /* \"--CODEGEN--\":3712:3874   */\n    tag_88:\n      0x00\n        /* \"--CODEGEN--\":3826:3832   */\n      dup3\n        /* \"--CODEGEN--\":3821:3824   */\n      dup3\n        /* \"--CODEGEN--\":3814:3833   */\n      mstore\n        /* \"--CODEGEN--\":3863:3867   */\n      0x20\n        /* \"--CODEGEN--\":3858:3861   */\n      dup3\n        /* \"--CODEGEN--\":3854:3868   */\n      add\n        /* \"--CODEGEN--\":3839:3868   */\n      swap1\n      pop\n        /* \"--CODEGEN--\":3807:3874   */\n      swap3\n      swap2\n      pop\n      pop\n      jump\n        /* \"--CODEGEN--\":3882:3967   */\n    tag_78:\n      0x00\n        /* \"--CODEGEN--\":3955:3960   */\n      dup2\n        /* \"--CODEGEN--\":3948:3961   */\n      iszero\n        /* \"--CODEGEN--\":3941:3962   */\n      iszero\n        /* \"--CODEGEN--\":3930:3962   */\n      swap1\n      pop\n        /* \"--CODEGEN--\":3924:3967   */\n      swap2\n      swap1\n      pop\n      jump\n        /* \"--CODEGEN--\":3974:4046   */\n    tag_82:\n      0x00\n        /* \"--CODEGEN--\":4036:4041   */\n      dup2\n        /* \"--CODEGEN--\":4025:4041   */\n      swap1\n      pop\n        /* \"--CODEGEN--\":4019:4046   */\n      swap2\n      swap1\n      pop\n      jump\n        /* \"--CODEGEN--\":4053:4125   */\n    tag_107:\n      0x00\n        /* \"--CODEGEN--\":4115:4120   */\n      dup2\n        /* \"--CODEGEN--\":4104:4120   */\n      swap1\n      pop\n        /* \"--CODEGEN--\":4098:4125   */\n      swap2\n      swap1\n      pop\n      jump\n        /* \"--CODEGEN--\":4133:4401   */\n    tag_90:\n        /* \"--CODEGEN--\":4198:4199   */\n      0x00\n        /* \"--CODEGEN--\":4205:4306   */\n    tag_132:\n        /* \"--CODEGEN--\":4219:4225   */\n      dup4\n        /* \"--CODEGEN--\":4216:4217   */\n      dup2\n        /* \"--CODEGEN--\":4213:4226   */\n      lt\n        /* \"--CODEGEN--\":4205:4306   */\n      iszero\n      tag_134\n      jumpi\n        /* \"--CODEGEN--\":4295:4296   */\n      dup1\n        /* \"--CODEGEN--\":4290:4293   */\n      dup3\n        /* \"--CODEGEN--\":4286:4297   */\n      add\n        /* \"--CODEGEN--\":4280:4298   */\n      mload\n        /* \"--CODEGEN--\":4276:4277   */\n      dup2\n        /* \"--CODEGEN--\":4271:4274   */\n      dup5\n        /* \"--CODEGEN--\":4267:4278   */\n      add\n        /* \"--CODEGEN--\":4260:4299   */\n      mstore\n        /* \"--CODEGEN--\":4241:4243   */\n      0x20\n        /* \"--CODEGEN--\":4238:4239   */\n      dup2\n        /* \"--CODEGEN--\":4234:4244   */\n      add\n        /* \"--CODEGEN--\":4229:4244   */\n      swap1\n      pop\n        /* \"--CODEGEN--\":4205:4306   */\n      jump(tag_132)\n    tag_134:\n        /* \"--CODEGEN--\":4321:4327   */\n      dup4\n        /* \"--CODEGEN--\":4318:4319   */\n      dup2\n        /* \"--CODEGEN--\":4315:4328   */\n      gt\n        /* \"--CODEGEN--\":4312:4314   */\n      iszero\n      tag_135\n      jumpi\n        /* \"--CODEGEN--\":4386:4387   */\n      0x00\n        /* \"--CODEGEN--\":4377:4383   */\n      dup5\n        /* \"--CODEGEN--\":4372:4375   */\n      dup5\n        /* \"--CODEGEN--\":4368:4384   */\n      add\n        /* \"--CODEGEN--\":4361:4388   */\n      mstore\n        /* \"--CODEGEN--\":4312:4314   */\n    tag_135:\n        /* \"--CODEGEN--\":4182:4401   */\n      pop\n      pop\n      pop\n      pop\n      jump\n        /* \"--CODEGEN--\":4409:4506   */\n    tag_92:\n      0x00\n        /* \"--CODEGEN--\":4497:4499   */\n      0x1f\n        /* \"--CODEGEN--\":4493:4500   */\n      not\n        /* \"--CODEGEN--\":4488:4490   */\n      0x1f\n        /* \"--CODEGEN--\":4481:4486   */\n      dup4\n        /* \"--CODEGEN--\":4477:4491   */\n      add\n        /* \"--CODEGEN--\":4473:4501   */\n      and\n        /* \"--CODEGEN--\":4463:4501   */\n      swap1\n      pop\n        /* \"--CODEGEN--\":4457:4506   */\n      swap2\n      swap1\n      pop\n      jump\n\n    auxdata: 0xa264697066735822122007dc402866dd2950742648112b87878a0d86fc87183d3e7f30e205830c85f76864736f6c63430006040033\n}\n",
				"bytecode": {
					"linkReferences": {},
					"object": "60806040526040518060600160405280602e81526020016108f9602e9139600090805190602001906100329291906100d7565b506040518060600160405280602a8152602001610927602a9139600190805190602001906100619291906100d7565b507f4c45484f4e47564f776a6e66766a3377656838764b4a0000000000000000000060025534801561009257600080fd5b5060066003600001819055506002600360010181905550600360056000016000820154816000015560018201548160010155905050600460056002018190555061017c565b828054600181600116156101000203166002900490600052602060002090601f016020900481019282601f1061011857805160ff1916838001178555610146565b82800160010185558215610146579182015b8281111561014557825182559160200191906001019061012a565b5b5090506101539190610157565b5090565b61017991905b8082111561017557600081600090555060010161015d565b5090565b90565b61076e8061018b6000396000f3fe608060405234801561001057600080fd5b506004361061007d5760003560e01c8063e3a7fd751161005b578063e3a7fd75146100dd578063eaacd81e146100fb578063fc26b0ab14610119578063fddcc148146101375761007d565b80630ff7af0f146100825780639ffd85c4146100a0578063a699fb03146100be575b600080fd5b61008a610156565b60405161009791906105e1565b60405180910390f35b6100a8610186565b6040516100b59190610617565b60405180910390f35b6100c6610224565b6040516100d4929190610684565b60405180910390f35b6100e5610236565b6040516100f291906105fc565b60405180910390f35b61010361023c565b6040516101109190610639565b60405180910390f35b61012161026c565b60405161012e9190610617565b60405180910390f35b61013f61030a565b60405161014d92919061065b565b60405180910390f35b600061018160036040518060400160405290816000820154815260200160018201548152505061033a565b905090565b60008054600181600116156101000203166002900480601f01602080910402602001604051908101604052809291908181526020018280546001816001161561010002031660029004801561021c5780601f106101f15761010080835404028352916020019161021c565b820191906000526020600020905b8154815290600101906020018083116101ff57829003601f168201915b505050505081565b60038060000154908060010154905082565b60025481565b6060610267600360405180604001604052908160008201548152602001600182015481525050610388565b905090565b60018054600181600116156101000203166002900480601f0160208091040260200160405190810160405280929190818152602001828054600181600116156101000203166002900480156103025780601f106102d757610100808354040283529160200191610302565b820191906000526020600020905b8154815290600101906020018083116102e557829003601f168201915b505050505081565b60058060000160405180604001604052908160008201548152602001600182015481525050908060020154905082565b600080826000015114156103515760009050610383565b60008083602001519050805160001a915060c060ff168260ff16101561037c57600092505050610383565b6001925050505b919050565b6060600082600001511161039b57600080fd5b60006103aa8360200151610414565b905060008184600001510390506060816040519080825280601f01601f1916602001820160405280156103ec5781602001600182028036833780820191505090505b509050600081602001905061040884876020015101828561049d565b81945050505050919050565b600080825160001a9050608060ff16811015610434576000915050610498565b60b860ff16811080610459575060c060ff168110158015610458575060f860ff1681105b5b15610468576001915050610498565b60c060ff168110156104885760018060b80360ff16820301915050610498565b60018060f80360ff168203019150505b919050565b60008114156104ab576104ff565b5b602060ff1681106104db5782518252602060ff1683019250602060ff1682019150602060ff16810390506104ac565b6000600182602060ff16036101000a03905080198451168184511681811785525050505b505050565b61050d816106d4565b82525050565b61051c816106e0565b82525050565b600061052d826106b8565b61053781856106c3565b93506105478185602086016106f4565b61055081610727565b840191505092915050565b6000610566826106ad565b61057081856106c3565b93506105808185602086016106f4565b61058981610727565b840191505092915050565b6040820160008201516105aa60008501826105c3565b5060208201516105bd60208501826105c3565b50505050565b6105cc816106ea565b82525050565b6105db816106ea565b82525050565b60006020820190506105f66000830184610504565b92915050565b60006020820190506106116000830184610513565b92915050565b60006020820190508181036000830152610631818461055b565b905092915050565b600060208201905081810360008301526106538184610522565b905092915050565b60006060820190506106706000830185610594565b61067d60408301846105d2565b9392505050565b600060408201905061069960008301856105d2565b6106a660208301846105d2565b9392505050565b600081519050919050565b600081519050919050565b600082825260208201905092915050565b60008115159050919050565b6000819050919050565b6000819050919050565b60005b838110156107125780820151818401526020810190506106f7565b83811115610721576000848401525b50505050565b6000601f19601f830116905091905056fea264697066735822122007dc402866dd2950742648112b87878a0d86fc87183d3e7f30e205830c85f76864736f6c634300060400334e414c4548484a534744534447484a534448535548444a5348444a53484a53484a534844534a44484a4f4e47564f7364664e417364667364664c4548484a5347445348444a53484a53484a534844534a44484a4f4e47564f",
					"opcodes": "PUSH1 0x80 PUSH1 0x40 MSTORE PUSH1 0x40 MLOAD DUP1 PUSH1 0x60 ADD PUSH1 0x40 MSTORE DUP1 PUSH1 0x2E DUP2 MSTORE PUSH1 0x20 ADD PUSH2 0x8F9 PUSH1 0x2E SWAP2 CODECOPY PUSH1 0x0 SWAP1 DUP1 MLOAD SWAP1 PUSH1 0x20 ADD SWAP1 PUSH2 0x32 SWAP3 SWAP2 SWAP1 PUSH2 0xD7 JUMP JUMPDEST POP PUSH1 0x40 MLOAD DUP1 PUSH1 0x60 ADD PUSH1 0x40 MSTORE DUP1 PUSH1 0x2A DUP2 MSTORE PUSH1 0x20 ADD PUSH2 0x927 PUSH1 0x2A SWAP2 CODECOPY PUSH1 0x1 SWAP1 DUP1 MLOAD SWAP1 PUSH1 0x20 ADD SWAP1 PUSH2 0x61 SWAP3 SWAP2 SWAP1 PUSH2 0xD7 JUMP JUMPDEST POP PUSH32 0x4C45484F4E47564F776A6E66766A3377656838764B4A00000000000000000000 PUSH1 0x2 SSTORE CALLVALUE DUP1 ISZERO PUSH2 0x92 JUMPI PUSH1 0x0 DUP1 REVERT JUMPDEST POP PUSH1 0x6 PUSH1 0x3 PUSH1 0x0 ADD DUP2 SWAP1 SSTORE POP PUSH1 0x2 PUSH1 0x3 PUSH1 0x1 ADD DUP2 SWAP1 SSTORE POP PUSH1 0x3 PUSH1 0x5 PUSH1 0x0 ADD PUSH1 0x0 DUP3 ADD SLOAD DUP2 PUSH1 0x0 ADD SSTORE PUSH1 0x1 DUP3 ADD SLOAD DUP2 PUSH1 0x1 ADD SSTORE SWAP1 POP POP PUSH1 0x4 PUSH1 0x5 PUSH1 0x2 ADD DUP2 SWAP1 SSTORE POP PUSH2 0x17C JUMP JUMPDEST DUP3 DUP1 SLOAD PUSH1 0x1 DUP2 PUSH1 0x1 AND ISZERO PUSH2 0x100 MUL SUB AND PUSH1 0x2 SWAP1 DIV SWAP1 PUSH1 0x0 MSTORE PUSH1 0x20 PUSH1 0x0 KECCAK256 SWAP1 PUSH1 0x1F ADD PUSH1 0x20 SWAP1 DIV DUP2 ADD SWAP3 DUP3 PUSH1 0x1F LT PUSH2 0x118 JUMPI DUP1 MLOAD PUSH1 0xFF NOT AND DUP4 DUP1 ADD OR DUP6 SSTORE PUSH2 0x146 JUMP JUMPDEST DUP3 DUP1 ADD PUSH1 0x1 ADD DUP6 SSTORE DUP3 ISZERO PUSH2 0x146 JUMPI SWAP2 DUP3 ADD JUMPDEST DUP3 DUP2 GT ISZERO PUSH2 0x145 JUMPI DUP3 MLOAD DUP3 SSTORE SWAP2 PUSH1 0x20 ADD SWAP2 SWAP1 PUSH1 0x1 ADD SWAP1 PUSH2 0x12A JUMP JUMPDEST JUMPDEST POP SWAP1 POP PUSH2 0x153 SWAP2 SWAP1 PUSH2 0x157 JUMP JUMPDEST POP SWAP1 JUMP JUMPDEST PUSH2 0x179 SWAP2 SWAP1 JUMPDEST DUP1 DUP3 GT ISZERO PUSH2 0x175 JUMPI PUSH1 0x0 DUP2 PUSH1 0x0 SWAP1 SSTORE POP PUSH1 0x1 ADD PUSH2 0x15D JUMP JUMPDEST POP SWAP1 JUMP JUMPDEST SWAP1 JUMP JUMPDEST PUSH2 0x76E DUP1 PUSH2 0x18B PUSH1 0x0 CODECOPY PUSH1 0x0 RETURN INVALID PUSH1 0x80 PUSH1 0x40 MSTORE CALLVALUE DUP1 ISZERO PUSH2 0x10 JUMPI PUSH1 0x0 DUP1 REVERT JUMPDEST POP PUSH1 0x4 CALLDATASIZE LT PUSH2 0x7D JUMPI PUSH1 0x0 CALLDATALOAD PUSH1 0xE0 SHR DUP1 PUSH4 0xE3A7FD75 GT PUSH2 0x5B JUMPI DUP1 PUSH4 0xE3A7FD75 EQ PUSH2 0xDD JUMPI DUP1 PUSH4 0xEAACD81E EQ PUSH2 0xFB JUMPI DUP1 PUSH4 0xFC26B0AB EQ PUSH2 0x119 JUMPI DUP1 PUSH4 0xFDDCC148 EQ PUSH2 0x137 JUMPI PUSH2 0x7D JUMP JUMPDEST DUP1 PUSH4 0xFF7AF0F EQ PUSH2 0x82 JUMPI DUP1 PUSH4 0x9FFD85C4 EQ PUSH2 0xA0 JUMPI DUP1 PUSH4 0xA699FB03 EQ PUSH2 0xBE JUMPI JUMPDEST PUSH1 0x0 DUP1 REVERT JUMPDEST PUSH2 0x8A PUSH2 0x156 JUMP JUMPDEST PUSH1 0x40 MLOAD PUSH2 0x97 SWAP2 SWAP1 PUSH2 0x5E1 JUMP JUMPDEST PUSH1 0x40 MLOAD DUP1 SWAP2 SUB SWAP1 RETURN JUMPDEST PUSH2 0xA8 PUSH2 0x186 JUMP JUMPDEST PUSH1 0x40 MLOAD PUSH2 0xB5 SWAP2 SWAP1 PUSH2 0x617 JUMP JUMPDEST PUSH1 0x40 MLOAD DUP1 SWAP2 SUB SWAP1 RETURN JUMPDEST PUSH2 0xC6 PUSH2 0x224 JUMP JUMPDEST PUSH1 0x40 MLOAD PUSH2 0xD4 SWAP3 SWAP2 SWAP1 PUSH2 0x684 JUMP JUMPDEST PUSH1 0x40 MLOAD DUP1 SWAP2 SUB SWAP1 RETURN JUMPDEST PUSH2 0xE5 PUSH2 0x236 JUMP JUMPDEST PUSH1 0x40 MLOAD PUSH2 0xF2 SWAP2 SWAP1 PUSH2 0x5FC JUMP JUMPDEST PUSH1 0x40 MLOAD DUP1 SWAP2 SUB SWAP1 RETURN JUMPDEST PUSH2 0x103 PUSH2 0x23C JUMP JUMPDEST PUSH1 0x40 MLOAD PUSH2 0x110 SWAP2 SWAP1 PUSH2 0x639 JUMP JUMPDEST PUSH1 0x40 MLOAD DUP1 SWAP2 SUB SWAP1 RETURN JUMPDEST PUSH2 0x121 PUSH2 0x26C JUMP JUMPDEST PUSH1 0x40 MLOAD PUSH2 0x12E SWAP2 SWAP1 PUSH2 0x617 JUMP JUMPDEST PUSH1 0x40 MLOAD DUP1 SWAP2 SUB SWAP1 RETURN JUMPDEST PUSH2 0x13F PUSH2 0x30A JUMP JUMPDEST PUSH1 0x40 MLOAD PUSH2 0x14D SWAP3 SWAP2 SWAP1 PUSH2 0x65B JUMP JUMPDEST PUSH1 0x40 MLOAD DUP1 SWAP2 SUB SWAP1 RETURN JUMPDEST PUSH1 0x0 PUSH2 0x181 PUSH1 0x3 PUSH1 0x40 MLOAD DUP1 PUSH1 0x40 ADD PUSH1 0x40 MSTORE SWAP1 DUP2 PUSH1 0x0 DUP3 ADD SLOAD DUP2 MSTORE PUSH1 0x20 ADD PUSH1 0x1 DUP3 ADD SLOAD DUP2 MSTORE POP POP PUSH2 0x33A JUMP JUMPDEST SWAP1 POP SWAP1 JUMP JUMPDEST PUSH1 0x0 DUP1 SLOAD PUSH1 0x1 DUP2 PUSH1 0x1 AND ISZERO PUSH2 0x100 MUL SUB AND PUSH1 0x2 SWAP1 DIV DUP1 PUSH1 0x1F ADD PUSH1 0x20 DUP1 SWAP2 DIV MUL PUSH1 0x20 ADD PUSH1 0x40 MLOAD SWAP1 DUP2 ADD PUSH1 0x40 MSTORE DUP1 SWAP3 SWAP2 SWAP1 DUP2 DUP2 MSTORE PUSH1 0x20 ADD DUP3 DUP1 SLOAD PUSH1 0x1 DUP2 PUSH1 0x1 AND ISZERO PUSH2 0x100 MUL SUB AND PUSH1 0x2 SWAP1 DIV DUP1 ISZERO PUSH2 0x21C JUMPI DUP1 PUSH1 0x1F LT PUSH2 0x1F1 JUMPI PUSH2 0x100 DUP1 DUP4 SLOAD DIV MUL DUP4 MSTORE SWAP2 PUSH1 0x20 ADD SWAP2 PUSH2 0x21C JUMP JUMPDEST DUP3 ADD SWAP2 SWAP1 PUSH1 0x0 MSTORE PUSH1 0x20 PUSH1 0x0 KECCAK256 SWAP1 JUMPDEST DUP2 SLOAD DUP2 MSTORE SWAP1 PUSH1 0x1 ADD SWAP1 PUSH1 0x20 ADD DUP1 DUP4 GT PUSH2 0x1FF JUMPI DUP3 SWAP1 SUB PUSH1 0x1F AND DUP3 ADD SWAP2 JUMPDEST POP POP POP POP POP DUP2 JUMP JUMPDEST PUSH1 0x3 DUP1 PUSH1 0x0 ADD SLOAD SWAP1 DUP1 PUSH1 0x1 ADD SLOAD SWAP1 POP DUP3 JUMP JUMPDEST PUSH1 0x2 SLOAD DUP2 JUMP JUMPDEST PUSH1 0x60 PUSH2 0x267 PUSH1 0x3 PUSH1 0x40 MLOAD DUP1 PUSH1 0x40 ADD PUSH1 0x40 MSTORE SWAP1 DUP2 PUSH1 0x0 DUP3 ADD SLOAD DUP2 MSTORE PUSH1 0x20 ADD PUSH1 0x1 DUP3 ADD SLOAD DUP2 MSTORE POP POP PUSH2 0x388 JUMP JUMPDEST SWAP1 POP SWAP1 JUMP JUMPDEST PUSH1 0x1 DUP1 SLOAD PUSH1 0x1 DUP2 PUSH1 0x1 AND ISZERO PUSH2 0x100 MUL SUB AND PUSH1 0x2 SWAP1 DIV DUP1 PUSH1 0x1F ADD PUSH1 0x20 DUP1 SWAP2 DIV MUL PUSH1 0x20 ADD PUSH1 0x40 MLOAD SWAP1 DUP2 ADD PUSH1 0x40 MSTORE DUP1 SWAP3 SWAP2 SWAP1 DUP2 DUP2 MSTORE PUSH1 0x20 ADD DUP3 DUP1 SLOAD PUSH1 0x1 DUP2 PUSH1 0x1 AND ISZERO PUSH2 0x100 MUL SUB AND PUSH1 0x2 SWAP1 DIV DUP1 ISZERO PUSH2 0x302 JUMPI DUP1 PUSH1 0x1F LT PUSH2 0x2D7 JUMPI PUSH2 0x100 DUP1 DUP4 SLOAD DIV MUL DUP4 MSTORE SWAP2 PUSH1 0x20 ADD SWAP2 PUSH2 0x302 JUMP JUMPDEST DUP3 ADD SWAP2 SWAP1 PUSH1 0x0 MSTORE PUSH1 0x20 PUSH1 0x0 KECCAK256 SWAP1 JUMPDEST DUP2 SLOAD DUP2 MSTORE SWAP1 PUSH1 0x1 ADD SWAP1 PUSH1 0x20 ADD DUP1 DUP4 GT PUSH2 0x2E5 JUMPI DUP3 SWAP1 SUB PUSH1 0x1F AND DUP3 ADD SWAP2 JUMPDEST POP POP POP POP POP DUP2 JUMP JUMPDEST PUSH1 0x5 DUP1 PUSH1 0x0 ADD PUSH1 0x40 MLOAD DUP1 PUSH1 0x40 ADD PUSH1 0x40 MSTORE SWAP1 DUP2 PUSH1 0x0 DUP3 ADD SLOAD DUP2 MSTORE PUSH1 0x20 ADD PUSH1 0x1 DUP3 ADD SLOAD DUP2 MSTORE POP POP SWAP1 DUP1 PUSH1 0x2 ADD SLOAD SWAP1 POP DUP3 JUMP JUMPDEST PUSH1 0x0 DUP1 DUP3 PUSH1 0x0 ADD MLOAD EQ ISZERO PUSH2 0x351 JUMPI PUSH1 0x0 SWAP1 POP PUSH2 0x383 JUMP JUMPDEST PUSH1 0x0 DUP1 DUP4 PUSH1 0x20 ADD MLOAD SWAP1 POP DUP1 MLOAD PUSH1 0x0 BYTE SWAP2 POP PUSH1 0xC0 PUSH1 0xFF AND DUP3 PUSH1 0xFF AND LT ISZERO PUSH2 0x37C JUMPI PUSH1 0x0 SWAP3 POP POP POP PUSH2 0x383 JUMP JUMPDEST PUSH1 0x1 SWAP3 POP POP POP JUMPDEST SWAP2 SWAP1 POP JUMP JUMPDEST PUSH1 0x60 PUSH1 0x0 DUP3 PUSH1 0x0 ADD MLOAD GT PUSH2 0x39B JUMPI PUSH1 0x0 DUP1 REVERT JUMPDEST PUSH1 0x0 PUSH2 0x3AA DUP4 PUSH1 0x20 ADD MLOAD PUSH2 0x414 JUMP JUMPDEST SWAP1 POP PUSH1 0x0 DUP2 DUP5 PUSH1 0x0 ADD MLOAD SUB SWAP1 POP PUSH1 0x60 DUP2 PUSH1 0x40 MLOAD SWAP1 DUP1 DUP3 MSTORE DUP1 PUSH1 0x1F ADD PUSH1 0x1F NOT AND PUSH1 0x20 ADD DUP3 ADD PUSH1 0x40 MSTORE DUP1 ISZERO PUSH2 0x3EC JUMPI DUP2 PUSH1 0x20 ADD PUSH1 0x1 DUP3 MUL DUP1 CALLDATASIZE DUP4 CALLDATACOPY DUP1 DUP3 ADD SWAP2 POP POP SWAP1 POP JUMPDEST POP SWAP1 POP PUSH1 0x0 DUP2 PUSH1 0x20 ADD SWAP1 POP PUSH2 0x408 DUP5 DUP8 PUSH1 0x20 ADD MLOAD ADD DUP3 DUP6 PUSH2 0x49D JUMP JUMPDEST DUP2 SWAP5 POP POP POP POP POP SWAP2 SWAP1 POP JUMP JUMPDEST PUSH1 0x0 DUP1 DUP3 MLOAD PUSH1 0x0 BYTE SWAP1 POP PUSH1 0x80 PUSH1 0xFF AND DUP2 LT ISZERO PUSH2 0x434 JUMPI PUSH1 0x0 SWAP2 POP POP PUSH2 0x498 JUMP JUMPDEST PUSH1 0xB8 PUSH1 0xFF AND DUP2 LT DUP1 PUSH2 0x459 JUMPI POP PUSH1 0xC0 PUSH1 0xFF AND DUP2 LT ISZERO DUP1 ISZERO PUSH2 0x458 JUMPI POP PUSH1 0xF8 PUSH1 0xFF AND DUP2 LT JUMPDEST JUMPDEST ISZERO PUSH2 0x468 JUMPI PUSH1 0x1 SWAP2 POP POP PUSH2 0x498 JUMP JUMPDEST PUSH1 0xC0 PUSH1 0xFF AND DUP2 LT ISZERO PUSH2 0x488 JUMPI PUSH1 0x1 DUP1 PUSH1 0xB8 SUB PUSH1 0xFF AND DUP3 SUB ADD SWAP2 POP POP PUSH2 0x498 JUMP JUMPDEST PUSH1 0x1 DUP1 PUSH1 0xF8 SUB PUSH1 0xFF AND DUP3 SUB ADD SWAP2 POP POP JUMPDEST SWAP2 SWAP1 POP JUMP JUMPDEST PUSH1 0x0 DUP2 EQ ISZERO PUSH2 0x4AB JUMPI PUSH2 0x4FF JUMP JUMPDEST JUMPDEST PUSH1 0x20 PUSH1 0xFF AND DUP2 LT PUSH2 0x4DB JUMPI DUP3 MLOAD DUP3 MSTORE PUSH1 0x20 PUSH1 0xFF AND DUP4 ADD SWAP3 POP PUSH1 0x20 PUSH1 0xFF AND DUP3 ADD SWAP2 POP PUSH1 0x20 PUSH1 0xFF AND DUP2 SUB SWAP1 POP PUSH2 0x4AC JUMP JUMPDEST PUSH1 0x0 PUSH1 0x1 DUP3 PUSH1 0x20 PUSH1 0xFF AND SUB PUSH2 0x100 EXP SUB SWAP1 POP DUP1 NOT DUP5 MLOAD AND DUP2 DUP5 MLOAD AND DUP2 DUP2 OR DUP6 MSTORE POP POP POP JUMPDEST POP POP POP JUMP JUMPDEST PUSH2 0x50D DUP2 PUSH2 0x6D4 JUMP JUMPDEST DUP3 MSTORE POP POP JUMP JUMPDEST PUSH2 0x51C DUP2 PUSH2 0x6E0 JUMP JUMPDEST DUP3 MSTORE POP POP JUMP JUMPDEST PUSH1 0x0 PUSH2 0x52D DUP3 PUSH2 0x6B8 JUMP JUMPDEST PUSH2 0x537 DUP2 DUP6 PUSH2 0x6C3 JUMP JUMPDEST SWAP4 POP PUSH2 0x547 DUP2 DUP6 PUSH1 0x20 DUP7 ADD PUSH2 0x6F4 JUMP JUMPDEST PUSH2 0x550 DUP2 PUSH2 0x727 JUMP JUMPDEST DUP5 ADD SWAP2 POP POP SWAP3 SWAP2 POP POP JUMP JUMPDEST PUSH1 0x0 PUSH2 0x566 DUP3 PUSH2 0x6AD JUMP JUMPDEST PUSH2 0x570 DUP2 DUP6 PUSH2 0x6C3 JUMP JUMPDEST SWAP4 POP PUSH2 0x580 DUP2 DUP6 PUSH1 0x20 DUP7 ADD PUSH2 0x6F4 JUMP JUMPDEST PUSH2 0x589 DUP2 PUSH2 0x727 JUMP JUMPDEST DUP5 ADD SWAP2 POP POP SWAP3 SWAP2 POP POP JUMP JUMPDEST PUSH1 0x40 DUP3 ADD PUSH1 0x0 DUP3 ADD MLOAD PUSH2 0x5AA PUSH1 0x0 DUP6 ADD DUP3 PUSH2 0x5C3 JUMP JUMPDEST POP PUSH1 0x20 DUP3 ADD MLOAD PUSH2 0x5BD PUSH1 0x20 DUP6 ADD DUP3 PUSH2 0x5C3 JUMP JUMPDEST POP POP POP POP JUMP JUMPDEST PUSH2 0x5CC DUP2 PUSH2 0x6EA JUMP JUMPDEST DUP3 MSTORE POP POP JUMP JUMPDEST PUSH2 0x5DB DUP2 PUSH2 0x6EA JUMP JUMPDEST DUP3 MSTORE POP POP JUMP JUMPDEST PUSH1 0x0 PUSH1 0x20 DUP3 ADD SWAP1 POP PUSH2 0x5F6 PUSH1 0x0 DUP4 ADD DUP5 PUSH2 0x504 JUMP JUMPDEST SWAP3 SWAP2 POP POP JUMP JUMPDEST PUSH1 0x0 PUSH1 0x20 DUP3 ADD SWAP1 POP PUSH2 0x611 PUSH1 0x0 DUP4 ADD DUP5 PUSH2 0x513 JUMP JUMPDEST SWAP3 SWAP2 POP POP JUMP JUMPDEST PUSH1 0x0 PUSH1 0x20 DUP3 ADD SWAP1 POP DUP2 DUP2 SUB PUSH1 0x0 DUP4 ADD MSTORE PUSH2 0x631 DUP2 DUP5 PUSH2 0x55B JUMP JUMPDEST SWAP1 POP SWAP3 SWAP2 POP POP JUMP JUMPDEST PUSH1 0x0 PUSH1 0x20 DUP3 ADD SWAP1 POP DUP2 DUP2 SUB PUSH1 0x0 DUP4 ADD MSTORE PUSH2 0x653 DUP2 DUP5 PUSH2 0x522 JUMP JUMPDEST SWAP1 POP SWAP3 SWAP2 POP POP JUMP JUMPDEST PUSH1 0x0 PUSH1 0x60 DUP3 ADD SWAP1 POP PUSH2 0x670 PUSH1 0x0 DUP4 ADD DUP6 PUSH2 0x594 JUMP JUMPDEST PUSH2 0x67D PUSH1 0x40 DUP4 ADD DUP5 PUSH2 0x5D2 JUMP JUMPDEST SWAP4 SWAP3 POP POP POP JUMP JUMPDEST PUSH1 0x0 PUSH1 0x40 DUP3 ADD SWAP1 POP PUSH2 0x699 PUSH1 0x0 DUP4 ADD DUP6 PUSH2 0x5D2 JUMP JUMPDEST PUSH2 0x6A6 PUSH1 0x20 DUP4 ADD DUP5 PUSH2 0x5D2 JUMP JUMPDEST SWAP4 SWAP3 POP POP POP JUMP JUMPDEST PUSH1 0x0 DUP2 MLOAD SWAP1 POP SWAP2 SWAP1 POP JUMP JUMPDEST PUSH1 0x0 DUP2 MLOAD SWAP1 POP SWAP2 SWAP1 POP JUMP JUMPDEST PUSH1 0x0 DUP3 DUP3 MSTORE PUSH1 0x20 DUP3 ADD SWAP1 POP SWAP3 SWAP2 POP POP JUMP JUMPDEST PUSH1 0x0 DUP2 ISZERO ISZERO SWAP1 POP SWAP2 SWAP1 POP JUMP JUMPDEST PUSH1 0x0 DUP2 SWAP1 POP SWAP2 SWAP1 POP JUMP JUMPDEST PUSH1 0x0 DUP2 SWAP1 POP SWAP2 SWAP1 POP JUMP JUMPDEST PUSH1 0x0 JUMPDEST DUP4 DUP2 LT ISZERO PUSH2 0x712 JUMPI DUP1 DUP3 ADD MLOAD DUP2 DUP5 ADD MSTORE PUSH1 0x20 DUP2 ADD SWAP1 POP PUSH2 0x6F7 JUMP JUMPDEST DUP4 DUP2 GT ISZERO PUSH2 0x721 JUMPI PUSH1 0x0 DUP5 DUP5 ADD MSTORE JUMPDEST POP POP POP POP JUMP JUMPDEST PUSH1 0x0 PUSH1 0x1F NOT PUSH1 0x1F DUP4 ADD AND SWAP1 POP SWAP2 SWAP1 POP JUMP INVALID LOG2 PUSH5 0x6970667358 0x22 SLT KECCAK256 SMOD 0xDC BLOCKHASH 0x28 PUSH7 0xDD295074264811 0x2B DUP8 DUP8 DUP11 0xD DUP7 0xFC DUP8 XOR RETURNDATASIZE RETURNDATACOPY PUSH32 0x30E205830C85F76864736F6C634300060400334E414C4548484A534744534447 0x48 0x4A MSTORE8 DIFFICULTY 0x48 MSTORE8 SSTORE 0x48 DIFFICULTY 0x4A MSTORE8 0x48 DIFFICULTY 0x4A MSTORE8 0x48 0x4A MSTORE8 0x48 0x4A MSTORE8 0x48 DIFFICULTY MSTORE8 0x4A DIFFICULTY 0x48 0x4A 0x4F 0x4E SELFBALANCE JUMP 0x4F PUSH20 0x64664E417364667364664C4548484A5347445348 DIFFICULTY 0x4A MSTORE8 0x48 0x4A MSTORE8 0x48 0x4A MSTORE8 0x48 DIFFICULTY MSTORE8 0x4A DIFFICULTY 0x48 0x4A 0x4F 0x4E SELFBALANCE JUMP 0x4F "
				},
				"gasEstimates": {
					"creation": {
						"codeDepositCost": "380400",
						"executionCost": "infinite",
						"totalCost": "infinite"
					},
					"external": {
						"data1()": "infinite",
						"data2()": "1129",
						"data3()": "infinite",
						"getDecodeData()": "infinite",
						"getEncodeData()": "infinite",
						"iterator()": "infinite",
						"rlpItem()": "infinite"
					},
					"internal": {
						"_itemLength(uint256)": "infinite",
						"_payloadOffset(uint256)": "infinite",
						"copy(uint256,uint256,uint256)": "infinite",
						"hasNext(struct demo2.Iterator memory)": "infinite",
						"isList(struct demo2.RLPItem memory)": "infinite",
						"next(struct demo2.Iterator memory)": "infinite",
						"numItems(struct demo2.RLPItem memory)": "infinite",
						"toAddress(struct demo2.RLPItem memory)": "infinite",
						"toBoolean(struct demo2.RLPItem memory)": "infinite",
						"toBytes(struct demo2.RLPItem memory)": "infinite",
						"toRLPItem(bytes memory)": "infinite",
						"toRlpBytes(struct demo2.RLPItem memory)": "infinite",
						"toUint(struct demo2.RLPItem memory)": "infinite",
						"toUintStrict(struct demo2.RLPItem memory)": "infinite"
					}
				},
				"methodIdentifiers": {
					"data1()": "9ffd85c4",
					"data2()": "e3a7fd75",
					"data3()": "fc26b0ab",
					"getDecodeData()": "0ff7af0f",
					"getEncodeData()": "eaacd81e",
					"iterator()": "fddcc148",
					"rlpItem()": "a699fb03"
				}
			},
			"userdoc": {
				"methods": {}
			}
		}
	}
}