{
	"contracts/demo1.sol": {
		"Demo1": {
			"abi": [
				{
					"constant": true,
					"inputs": [
						{
							"internalType": "uint256",
							"name": "memPtr",
							"type": "uint256"
						}
					],
					"name": "getData",
					"outputs": [
						{
							"internalType": "uint256",
							"name": "",
							"type": "uint256"
						}
					],
					"payable": false,
					"stateMutability": "view",
					"type": "function"
				}
			],
			"devdoc": {
				"methods": {}
			},
			"evm": {
				"assembly": "    /* \"contracts/demo1.sol\":92:21226  contract Demo1{\r... */\n  mstore(0x40, 0x80)\n  callvalue\n    /* \"--CODEGEN--\":8:17   */\n  dup1\n    /* \"--CODEGEN--\":5:7   */\n  iszero\n  tag_1\n  jumpi\n    /* \"--CODEGEN--\":30:31   */\n  0x00\n    /* \"--CODEGEN--\":27:28   */\n  dup1\n    /* \"--CODEGEN--\":20:32   */\n  revert\n    /* \"--CODEGEN--\":5:7   */\ntag_1:\n    /* \"contracts/demo1.sol\":92:21226  contract Demo1{\r... */\n  pop\n  dataSize(sub_0)\n  dup1\n  dataOffset(sub_0)\n  0x00\n  codecopy\n  0x00\n  return\nstop\n\nsub_0: assembly {\n        /* \"contracts/demo1.sol\":92:21226  contract Demo1{\r... */\n      mstore(0x40, 0x80)\n      callvalue\n        /* \"--CODEGEN--\":8:17   */\n      dup1\n        /* \"--CODEGEN--\":5:7   */\n      iszero\n      tag_1\n      jumpi\n        /* \"--CODEGEN--\":30:31   */\n      0x00\n        /* \"--CODEGEN--\":27:28   */\n      dup1\n        /* \"--CODEGEN--\":20:32   */\n      revert\n        /* \"--CODEGEN--\":5:7   */\n    tag_1:\n        /* \"contracts/demo1.sol\":92:21226  contract Demo1{\r... */\n      pop\n      jumpi(tag_2, lt(calldatasize, 0x04))\n      shr(0xe0, calldataload(0x00))\n      dup1\n      0x0178fe3f\n      eq\n      tag_3\n      jumpi\n    tag_2:\n      0x00\n      dup1\n      revert\n        /* \"contracts/demo1.sol\":575:675  function getData(uint memPtr) public view returns(uint){\r... */\n    tag_3:\n      tag_4\n      0x04\n      dup1\n      calldatasize\n      sub\n        /* \"--CODEGEN--\":13:15   */\n      0x20\n        /* \"--CODEGEN--\":8:11   */\n      dup2\n        /* \"--CODEGEN--\":5:16   */\n      lt\n        /* \"--CODEGEN--\":2:4   */\n      iszero\n      tag_5\n      jumpi\n        /* \"--CODEGEN--\":29:30   */\n      0x00\n        /* \"--CODEGEN--\":26:27   */\n      dup1\n        /* \"--CODEGEN--\":19:31   */\n      revert\n        /* \"--CODEGEN--\":2:4   */\n    tag_5:\n        /* \"contracts/demo1.sol\":575:675  function getData(uint memPtr) public view returns(uint){\r... */\n      dup2\n      add\n      swap1\n      dup1\n      dup1\n      calldataload\n      swap1\n      0x20\n      add\n      swap1\n      swap3\n      swap2\n      swap1\n      pop\n      pop\n      pop\n      tag_6\n      jump\t// in\n    tag_4:\n      mload(0x40)\n      dup1\n      dup3\n      dup2\n      mstore\n      0x20\n      add\n      swap2\n      pop\n      pop\n      mload(0x40)\n      dup1\n      swap2\n      sub\n      swap1\n      return\n    tag_6:\n        /* \"contracts/demo1.sol\":625:629  uint */\n      0x00\n        /* \"contracts/demo1.sol\":648:667  _itemLength(memPtr) */\n      tag_8\n        /* \"contracts/demo1.sol\":660:666  memPtr */\n      dup3\n        /* \"contracts/demo1.sol\":648:659  _itemLength */\n      tag_9\n        /* \"contracts/demo1.sol\":648:667  _itemLength(memPtr) */\n      jump\t// in\n    tag_8:\n        /* \"contracts/demo1.sol\":641:667  return _itemLength(memPtr) */\n      swap1\n      pop\n        /* \"contracts/demo1.sol\":575:675  function getData(uint memPtr) public view returns(uint){\r... */\n      swap2\n      swap1\n      pop\n      jump\t// out\n        /* \"contracts/demo1.sol\":685:2159  function _itemLength(uint memPtr) private pure returns (uint) {\r... */\n    tag_9:\n        /* \"contracts/demo1.sol\":741:745  uint */\n      0x00\n        /* \"contracts/demo1.sol\":758:770  uint itemLen */\n      dup1\n        /* \"contracts/demo1.sol\":781:791  uint byte0 */\n      0x00\n        /* \"contracts/demo1.sol\":849:855  memPtr */\n      dup4\n        /* \"contracts/demo1.sol\":843:856  mload(memPtr) */\n      mload\n        /* \"contracts/demo1.sol\":840:841  0 */\n      0x00\n        /* \"contracts/demo1.sol\":835:857  byte(0, mload(memPtr)) */\n      byte\n        /* \"contracts/demo1.sol\":826:857  byte0 := byte(0, mload(memPtr)) */\n      swap1\n      pop\n        /* \"contracts/demo1.sol\":151:155  0x80 */\n      0x80\n        /* \"contracts/demo1.sol\":884:910  byte0 < STRING_SHORT_START */\n      0xff\n      and\n        /* \"contracts/demo1.sol\":884:889  byte0 */\n      dup2\n        /* \"contracts/demo1.sol\":884:910  byte0 < STRING_SHORT_START */\n      lt\n        /* \"contracts/demo1.sol\":880:2125  if (byte0 < STRING_SHORT_START)\r... */\n      iszero\n      tag_11\n      jumpi\n        /* \"contracts/demo1.sol\":935:936  1 */\n      0x01\n        /* \"contracts/demo1.sol\":925:936  itemLen = 1 */\n      swap2\n      pop\n        /* \"contracts/demo1.sol\":880:2125  if (byte0 < STRING_SHORT_START)\r... */\n      jump(tag_12)\n    tag_11:\n        /* \"contracts/demo1.sol\":198:202  0xb8 */\n      0xb8\n        /* \"contracts/demo1.sol\":958:983  byte0 < STRING_LONG_START */\n      0xff\n      and\n        /* \"contracts/demo1.sol\":958:963  byte0 */\n      dup2\n        /* \"contracts/demo1.sol\":958:983  byte0 < STRING_LONG_START */\n      lt\n        /* \"contracts/demo1.sol\":954:2125  if (byte0 < STRING_LONG_START)\r... */\n      iszero\n      tag_13\n      jumpi\n        /* \"contracts/demo1.sol\":1037:1038  1 */\n      0x01\n        /* \"contracts/demo1.sol\":151:155  0x80 */\n      0x80\n        /* \"contracts/demo1.sol\":1008:1034  byte0 - STRING_SHORT_START */\n      0xff\n      and\n        /* \"contracts/demo1.sol\":1008:1013  byte0 */\n      dup3\n        /* \"contracts/demo1.sol\":1008:1034  byte0 - STRING_SHORT_START */\n      sub\n        /* \"contracts/demo1.sol\":1008:1038  byte0 - STRING_SHORT_START + 1 */\n      add\n        /* \"contracts/demo1.sol\":998:1038  itemLen = byte0 - STRING_SHORT_START + 1 */\n      swap2\n      pop\n        /* \"contracts/demo1.sol\":954:2125  if (byte0 < STRING_LONG_START)\r... */\n      jump(tag_14)\n    tag_13:\n        /* \"contracts/demo1.sol\":245:249  0xc0 */\n      0xc0\n        /* \"contracts/demo1.sol\":1060:1084  byte0 < LIST_SHORT_START */\n      0xff\n      and\n        /* \"contracts/demo1.sol\":1060:1065  byte0 */\n      dup2\n        /* \"contracts/demo1.sol\":1060:1084  byte0 < LIST_SHORT_START */\n      lt\n        /* \"contracts/demo1.sol\":1056:2125  if (byte0 < LIST_SHORT_START) {\r... */\n      iszero\n      tag_15\n      jumpi\n        /* \"contracts/demo1.sol\":1101:1113  uint dataLen */\n      0x00\n        /* \"contracts/demo1.sol\":1182:1186  0xb7 */\n      0xb7\n        /* \"contracts/demo1.sol\":1175:1180  byte0 */\n      dup3\n        /* \"contracts/demo1.sol\":1171:1187  sub(byte0, 0xb7) */\n      sub\n        /* \"contracts/demo1.sol\":1262:1263  1 */\n      0x01\n        /* \"contracts/demo1.sol\":1254:1260  memPtr */\n      dup7\n        /* \"contracts/demo1.sol\":1250:1264  add(memPtr, 1) */\n      add\n        /* \"contracts/demo1.sol\":1240:1264  memPtr := add(memPtr, 1) */\n      swap6\n      pop\n        /* \"contracts/demo1.sol\":1400:1407  byteLen */\n      dup1\n        /* \"contracts/demo1.sol\":1396:1398  32 */\n      0x20\n        /* \"contracts/demo1.sol\":1392:1408  sub(32, byteLen) */\n      sub\n        /* \"contracts/demo1.sol\":1387:1390  256 */\n      0x0100\n        /* \"contracts/demo1.sol\":1383:1409  exp(256, sub(32, byteLen)) */\n      exp\n        /* \"contracts/demo1.sol\":1374:1380  memPtr */\n      dup7\n        /* \"contracts/demo1.sol\":1368:1381  mload(memPtr) */\n      mload\n        /* \"contracts/demo1.sol\":1364:1410  div(mload(memPtr), exp(256, sub(32, byteLen))) */\n      div\n        /* \"contracts/demo1.sol\":1353:1410  dataLen := div(mload(memPtr), exp(256, sub(32, byteLen))) */\n      swap2\n      pop\n        /* \"contracts/demo1.sol\":1498:1499  1 */\n      0x01\n        /* \"contracts/demo1.sol\":1489:1496  byteLen */\n      dup2\n        /* \"contracts/demo1.sol\":1485:1500  add(byteLen, 1) */\n      add\n        /* \"contracts/demo1.sol\":1476:1483  dataLen */\n      dup3\n        /* \"contracts/demo1.sol\":1472:1501  add(dataLen, add(byteLen, 1)) */\n      add\n        /* \"contracts/demo1.sol\":1461:1501  itemLen := add(dataLen, add(byteLen, 1)) */\n      swap4\n      pop\n        /* \"contracts/demo1.sol\":1137:1516  {\r... */\n      pop\n        /* \"contracts/demo1.sol\":1549:1556  dataLen */\n      dup1\n        /* \"contracts/demo1.sol\":1538:1545  itemLen */\n      dup4\n        /* \"contracts/demo1.sol\":1538:1556  itemLen >= dataLen */\n      lt\n      iszero\n        /* \"contracts/demo1.sol\":1530:1578  require(itemLen >= dataLen, \"addition overflow\") */\n      tag_16\n      jumpi\n      mload(0x40)\n      0x08c379a000000000000000000000000000000000000000000000000000000000\n      dup2\n      mstore\n      0x04\n      add\n      dup1\n      dup1\n      0x20\n      add\n      dup3\n      dup2\n      sub\n      dup3\n      mstore\n      0x11\n      dup2\n      mstore\n      0x20\n      add\n      dup1\n      0x6164646974696f6e206f766572666c6f77000000000000000000000000000000\n      dup2\n      mstore\n      pop\n      0x20\n      add\n      swap2\n      pop\n      pop\n      mload(0x40)\n      dup1\n      swap2\n      sub\n      swap1\n      revert\n    tag_16:\n        /* \"contracts/demo1.sol\":1056:2125  if (byte0 < LIST_SHORT_START) {\r... */\n      pop\n      jump(tag_17)\n    tag_15:\n        /* \"contracts/demo1.sol\":292:296  0xf8 */\n      0xf8\n        /* \"contracts/demo1.sol\":1611:1634  byte0 < LIST_LONG_START */\n      0xff\n      and\n        /* \"contracts/demo1.sol\":1611:1616  byte0 */\n      dup2\n        /* \"contracts/demo1.sol\":1611:1634  byte0 < LIST_LONG_START */\n      lt\n        /* \"contracts/demo1.sol\":1607:2125  if (byte0 < LIST_LONG_START) {\r... */\n      iszero\n      tag_18\n      jumpi\n        /* \"contracts/demo1.sol\":1688:1689  1 */\n      0x01\n        /* \"contracts/demo1.sol\":245:249  0xc0 */\n      0xc0\n        /* \"contracts/demo1.sol\":1661:1685  byte0 - LIST_SHORT_START */\n      0xff\n      and\n        /* \"contracts/demo1.sol\":1661:1666  byte0 */\n      dup3\n        /* \"contracts/demo1.sol\":1661:1685  byte0 - LIST_SHORT_START */\n      sub\n        /* \"contracts/demo1.sol\":1661:1689  byte0 - LIST_SHORT_START + 1 */\n      add\n        /* \"contracts/demo1.sol\":1651:1689  itemLen = byte0 - LIST_SHORT_START + 1 */\n      swap2\n      pop\n        /* \"contracts/demo1.sol\":1607:2125  if (byte0 < LIST_LONG_START) {\r... */\n      jump(tag_19)\n    tag_18:\n        /* \"contracts/demo1.sol\":1733:1745  uint dataLen */\n      0x00\n        /* \"contracts/demo1.sol\":1814:1818  0xf7 */\n      0xf7\n        /* \"contracts/demo1.sol\":1807:1812  byte0 */\n      dup3\n        /* \"contracts/demo1.sol\":1803:1819  sub(byte0, 0xf7) */\n      sub\n        /* \"contracts/demo1.sol\":1859:1860  1 */\n      0x01\n        /* \"contracts/demo1.sol\":1851:1857  memPtr */\n      dup7\n        /* \"contracts/demo1.sol\":1847:1861  add(memPtr, 1) */\n      add\n        /* \"contracts/demo1.sol\":1837:1861  memPtr := add(memPtr, 1) */\n      swap6\n      pop\n        /* \"contracts/demo1.sol\":1928:1935  byteLen */\n      dup1\n        /* \"contracts/demo1.sol\":1924:1926  32 */\n      0x20\n        /* \"contracts/demo1.sol\":1920:1936  sub(32, byteLen) */\n      sub\n        /* \"contracts/demo1.sol\":1915:1918  256 */\n      0x0100\n        /* \"contracts/demo1.sol\":1911:1937  exp(256, sub(32, byteLen)) */\n      exp\n        /* \"contracts/demo1.sol\":1902:1908  memPtr */\n      dup7\n        /* \"contracts/demo1.sol\":1896:1909  mload(memPtr) */\n      mload\n        /* \"contracts/demo1.sol\":1892:1938  div(mload(memPtr), exp(256, sub(32, byteLen))) */\n      div\n        /* \"contracts/demo1.sol\":1881:1938  dataLen := div(mload(memPtr), exp(256, sub(32, byteLen))) */\n      swap2\n      pop\n        /* \"contracts/demo1.sol\":2033:2034  1 */\n      0x01\n        /* \"contracts/demo1.sol\":2024:2031  byteLen */\n      dup2\n        /* \"contracts/demo1.sol\":2020:2035  add(byteLen, 1) */\n      add\n        /* \"contracts/demo1.sol\":2011:2018  dataLen */\n      dup3\n        /* \"contracts/demo1.sol\":2007:2036  add(dataLen, add(byteLen, 1)) */\n      add\n        /* \"contracts/demo1.sol\":1996:2036  itemLen := add(dataLen, add(byteLen, 1)) */\n      swap4\n      pop\n        /* \"contracts/demo1.sol\":1769:2051  {\r... */\n      pop\n        /* \"contracts/demo1.sol\":2084:2091  dataLen */\n      dup1\n        /* \"contracts/demo1.sol\":2073:2080  itemLen */\n      dup4\n        /* \"contracts/demo1.sol\":2073:2091  itemLen >= dataLen */\n      lt\n      iszero\n        /* \"contracts/demo1.sol\":2065:2113  require(itemLen >= dataLen, \"addition overflow\") */\n      tag_20\n      jumpi\n      mload(0x40)\n      0x08c379a000000000000000000000000000000000000000000000000000000000\n      dup2\n      mstore\n      0x04\n      add\n      dup1\n      dup1\n      0x20\n      add\n      dup3\n      dup2\n      sub\n      dup3\n      mstore\n      0x11\n      dup2\n      mstore\n      0x20\n      add\n      dup1\n      0x6164646974696f6e206f766572666c6f77000000000000000000000000000000\n      dup2\n      mstore\n      pop\n      0x20\n      add\n      swap2\n      pop\n      pop\n      mload(0x40)\n      dup1\n      swap2\n      sub\n      swap1\n      revert\n    tag_20:\n        /* \"contracts/demo1.sol\":1607:2125  if (byte0 < LIST_LONG_START) {\r... */\n      pop\n    tag_19:\n        /* \"contracts/demo1.sol\":1056:2125  if (byte0 < LIST_SHORT_START) {\r... */\n    tag_17:\n        /* \"contracts/demo1.sol\":954:2125  if (byte0 < STRING_LONG_START)\r... */\n    tag_14:\n        /* \"contracts/demo1.sol\":880:2125  if (byte0 < STRING_SHORT_START)\r... */\n    tag_12:\n        /* \"contracts/demo1.sol\":2144:2151  itemLen */\n      dup2\n        /* \"contracts/demo1.sol\":2137:2151  return itemLen */\n      swap3\n      pop\n      pop\n      pop\n        /* \"contracts/demo1.sol\":685:2159  function _itemLength(uint memPtr) private pure returns (uint) {\r... */\n      swap2\n      swap1\n      pop\n      jump\t// out\n\n    auxdata: 0xa265627a7a72315820d7553f36ca0441c79f3a81016f77e082c877b928c0638f6d762793d032d2f50b64736f6c63430005100032\n}\n",
				"bytecode": {
					"linkReferences": {},
					"object": "608060405234801561001057600080fd5b50610265806100206000396000f3fe608060405234801561001057600080fd5b506004361061002b5760003560e01c80630178fe3f14610030575b600080fd5b61005c6004803603602081101561004657600080fd5b8101908080359060200190929190505050610072565b6040518082815260200191505060405180910390f35b600061007d82610084565b9050919050565b6000806000835160001a9050608060ff168110156100a55760019150610226565b60b860ff168110156100c2576001608060ff168203019150610225565b60c060ff1681101561016c57600060b78203600186019550806020036101000a865104915060018101820193505080831015610166576040517f08c379a00000000000000000000000000000000000000000000000000000000081526004018080602001828103825260118152602001807f6164646974696f6e206f766572666c6f7700000000000000000000000000000081525060200191505060405180910390fd5b50610224565b60f860ff1681101561018957600160c060ff168203019150610223565b600060f78203600186019550806020036101000a865104915060018101820193505080831015610221576040517f08c379a00000000000000000000000000000000000000000000000000000000081526004018080602001828103825260118152602001807f6164646974696f6e206f766572666c6f7700000000000000000000000000000081525060200191505060405180910390fd5b505b5b5b5b819250505091905056fea265627a7a72315820d7553f36ca0441c79f3a81016f77e082c877b928c0638f6d762793d032d2f50b64736f6c63430005100032",
					"opcodes": "PUSH1 0x80 PUSH1 0x40 MSTORE CALLVALUE DUP1 ISZERO PUSH2 0x10 JUMPI PUSH1 0x0 DUP1 REVERT JUMPDEST POP PUSH2 0x265 DUP1 PUSH2 0x20 PUSH1 0x0 CODECOPY PUSH1 0x0 RETURN INVALID PUSH1 0x80 PUSH1 0x40 MSTORE CALLVALUE DUP1 ISZERO PUSH2 0x10 JUMPI PUSH1 0x0 DUP1 REVERT JUMPDEST POP PUSH1 0x4 CALLDATASIZE LT PUSH2 0x2B JUMPI PUSH1 0x0 CALLDATALOAD PUSH1 0xE0 SHR DUP1 PUSH4 0x178FE3F EQ PUSH2 0x30 JUMPI JUMPDEST PUSH1 0x0 DUP1 REVERT JUMPDEST PUSH2 0x5C PUSH1 0x4 DUP1 CALLDATASIZE SUB PUSH1 0x20 DUP2 LT ISZERO PUSH2 0x46 JUMPI PUSH1 0x0 DUP1 REVERT JUMPDEST DUP2 ADD SWAP1 DUP1 DUP1 CALLDATALOAD SWAP1 PUSH1 0x20 ADD SWAP1 SWAP3 SWAP2 SWAP1 POP POP POP PUSH2 0x72 JUMP JUMPDEST PUSH1 0x40 MLOAD DUP1 DUP3 DUP2 MSTORE PUSH1 0x20 ADD SWAP2 POP POP PUSH1 0x40 MLOAD DUP1 SWAP2 SUB SWAP1 RETURN JUMPDEST PUSH1 0x0 PUSH2 0x7D DUP3 PUSH2 0x84 JUMP JUMPDEST SWAP1 POP SWAP2 SWAP1 POP JUMP JUMPDEST PUSH1 0x0 DUP1 PUSH1 0x0 DUP4 MLOAD PUSH1 0x0 BYTE SWAP1 POP PUSH1 0x80 PUSH1 0xFF AND DUP2 LT ISZERO PUSH2 0xA5 JUMPI PUSH1 0x1 SWAP2 POP PUSH2 0x226 JUMP JUMPDEST PUSH1 0xB8 PUSH1 0xFF AND DUP2 LT ISZERO PUSH2 0xC2 JUMPI PUSH1 0x1 PUSH1 0x80 PUSH1 0xFF AND DUP3 SUB ADD SWAP2 POP PUSH2 0x225 JUMP JUMPDEST PUSH1 0xC0 PUSH1 0xFF AND DUP2 LT ISZERO PUSH2 0x16C JUMPI PUSH1 0x0 PUSH1 0xB7 DUP3 SUB PUSH1 0x1 DUP7 ADD SWAP6 POP DUP1 PUSH1 0x20 SUB PUSH2 0x100 EXP DUP7 MLOAD DIV SWAP2 POP PUSH1 0x1 DUP2 ADD DUP3 ADD SWAP4 POP POP DUP1 DUP4 LT ISZERO PUSH2 0x166 JUMPI PUSH1 0x40 MLOAD PUSH32 0x8C379A000000000000000000000000000000000000000000000000000000000 DUP2 MSTORE PUSH1 0x4 ADD DUP1 DUP1 PUSH1 0x20 ADD DUP3 DUP2 SUB DUP3 MSTORE PUSH1 0x11 DUP2 MSTORE PUSH1 0x20 ADD DUP1 PUSH32 0x6164646974696F6E206F766572666C6F77000000000000000000000000000000 DUP2 MSTORE POP PUSH1 0x20 ADD SWAP2 POP POP PUSH1 0x40 MLOAD DUP1 SWAP2 SUB SWAP1 REVERT JUMPDEST POP PUSH2 0x224 JUMP JUMPDEST PUSH1 0xF8 PUSH1 0xFF AND DUP2 LT ISZERO PUSH2 0x189 JUMPI PUSH1 0x1 PUSH1 0xC0 PUSH1 0xFF AND DUP3 SUB ADD SWAP2 POP PUSH2 0x223 JUMP JUMPDEST PUSH1 0x0 PUSH1 0xF7 DUP3 SUB PUSH1 0x1 DUP7 ADD SWAP6 POP DUP1 PUSH1 0x20 SUB PUSH2 0x100 EXP DUP7 MLOAD DIV SWAP2 POP PUSH1 0x1 DUP2 ADD DUP3 ADD SWAP4 POP POP DUP1 DUP4 LT ISZERO PUSH2 0x221 JUMPI PUSH1 0x40 MLOAD PUSH32 0x8C379A000000000000000000000000000000000000000000000000000000000 DUP2 MSTORE PUSH1 0x4 ADD DUP1 DUP1 PUSH1 0x20 ADD DUP3 DUP2 SUB DUP3 MSTORE PUSH1 0x11 DUP2 MSTORE PUSH1 0x20 ADD DUP1 PUSH32 0x6164646974696F6E206F766572666C6F77000000000000000000000000000000 DUP2 MSTORE POP PUSH1 0x20 ADD SWAP2 POP POP PUSH1 0x40 MLOAD DUP1 SWAP2 SUB SWAP1 REVERT JUMPDEST POP JUMPDEST JUMPDEST JUMPDEST JUMPDEST DUP2 SWAP3 POP POP POP SWAP2 SWAP1 POP JUMP INVALID LOG2 PUSH6 0x627A7A723158 KECCAK256 0xD7 SSTORE EXTCODEHASH CALLDATASIZE 0xCA DIV COINBASE 0xC7 SWAP16 GASPRICE DUP2 ADD PUSH16 0x77E082C877B928C0638F6D762793D032 0xD2 CREATE2 SIGNEXTEND PUSH5 0x736F6C6343 STOP SDIV LT STOP ORIGIN "
				},
				"gasEstimates": {
					"creation": {
						"codeDepositCost": "122600",
						"executionCost": "171",
						"totalCost": "122771"
					},
					"external": {
						"getData(uint256)": "infinite"
					},
					"internal": {
						"_itemLength(uint256)": "infinite"
					}
				},
				"methodIdentifiers": {
					"getData(uint256)": "0178fe3f"
				}
			},
			"userdoc": {
				"methods": {}
			}
		}
	}
}