{
	"contracts/demo2.sol": {
		"demo2": {
			"abi": [
				{
					"inputs": [],
					"name": "data1",
					"outputs": [
						{
							"internalType": "bytes",
							"name": "",
							"type": "bytes"
						}
					],
					"stateMutability": "view",
					"type": "function"
				},
				{
					"inputs": [],
					"name": "data2",
					"outputs": [
						{
							"internalType": "bytes32",
							"name": "",
							"type": "bytes32"
						}
					],
					"stateMutability": "view",
					"type": "function"
				},
				{
					"inputs": [],
					"name": "getData",
					"outputs": [
						{
							"internalType": "bytes",
							"name": "",
							"type": "bytes"
						}
					],
					"stateMutability": "view",
					"type": "function"
				}
			],
			"devdoc": {
				"methods": {}
			},
			"evm": {
				"assembly": "    /* \"contracts/demo2.sol\":38:4931  contract demo2 {\r... */\n  mstore(0x40, 0x80)\n    /* \"contracts/demo2.sol\":60:129  bytes public data1 = \"NALEHHJSGDSDGHJSDHSUHDJSHDJSHJSHJSHDSJDHJONGVO\" */\n  mload(0x40)\n  dup1\n  0x60\n  add\n  0x40\n  mstore\n  dup1\n  0x2e\n  dup2\n  mstore\n  0x20\n  add\n  data_4887836e294a2761413359597244d307bbe3f94827f6160d9e1a399e00e2d1be\n  0x2e\n  swap2\n  codecopy\n  0x00\n  swap1\n  dup1\n  mload\n  swap1\n  0x20\n  add\n  swap1\n  tag_1\n  swap3\n  swap2\n  swap1\n  tag_2\n  jump\t// in\ntag_1:\n  pop\n    /* \"contracts/demo2.sol\":136:183  bytes32 public data2 = \"LEHONGVOwjnfvj3weh8vKJ\" */\n  sstore(0x01, 0x4c45484f4e47564f776a6e66766a3377656838764b4a00000000000000000000)\n    /* \"contracts/demo2.sol\":38:4931  contract demo2 {\r... */\n  callvalue\n    /* \"--CODEGEN--\":5:14   */\n  dup1\n    /* \"--CODEGEN--\":2:4   */\n  iszero\n  tag_3\n  jumpi\n    /* \"--CODEGEN--\":27:28   */\n  0x00\n    /* \"--CODEGEN--\":24:25   */\n  dup1\n    /* \"--CODEGEN--\":17:29   */\n  revert\n    /* \"--CODEGEN--\":2:4   */\ntag_3:\n    /* \"contracts/demo2.sol\":38:4931  contract demo2 {\r... */\n  pop\n  jump(tag_4)\ntag_2:\n  dup3\n  dup1\n  sload\n  0x01\n  dup2\n  0x01\n  and\n  iszero\n  0x0100\n  mul\n  sub\n  and\n  0x02\n  swap1\n  div\n  swap1\n  0x00\n  mstore\n  keccak256(0x00, 0x20)\n  swap1\n  0x1f\n  add\n  0x20\n  swap1\n  div\n  dup2\n  add\n  swap3\n  dup3\n  0x1f\n  lt\n  tag_6\n  jumpi\n  dup1\n  mload\n  not(0xff)\n  and\n  dup4\n  dup1\n  add\n  or\n  dup6\n  sstore\n  jump(tag_5)\ntag_6:\n  dup3\n  dup1\n  add\n  0x01\n  add\n  dup6\n  sstore\n  dup3\n  iszero\n  tag_5\n  jumpi\n  swap2\n  dup3\n  add\ntag_7:\n  dup3\n  dup2\n  gt\n  iszero\n  tag_8\n  jumpi\n  dup3\n  mload\n  dup3\n  sstore\n  swap2\n  0x20\n  add\n  swap2\n  swap1\n  0x01\n  add\n  swap1\n  jump(tag_7)\ntag_8:\ntag_5:\n  pop\n  swap1\n  pop\n  tag_9\n  swap2\n  swap1\n  tag_10\n  jump\t// in\ntag_9:\n  pop\n  swap1\n  jump\t// out\ntag_10:\n  tag_11\n  swap2\n  swap1\ntag_12:\n  dup1\n  dup3\n  gt\n  iszero\n  tag_13\n  jumpi\n  0x00\n  dup2\n  0x00\n  swap1\n  sstore\n  pop\n  0x01\n  add\n  jump(tag_12)\ntag_13:\n  pop\n  swap1\n  jump\ntag_11:\n  swap1\n  jump\t// out\ntag_4:\n  dataSize(sub_0)\n  dup1\n  dataOffset(sub_0)\n  0x00\n  codecopy\n  0x00\n  return\nstop\ndata_4887836e294a2761413359597244d307bbe3f94827f6160d9e1a399e00e2d1be 4e414c4548484a534744534447484a534448535548444a5348444a53484a53484a534844534a44484a4f4e47564f\n\nsub_0: assembly {\n        /* \"contracts/demo2.sol\":38:4931  contract demo2 {\r... */\n      mstore(0x40, 0x80)\n      callvalue\n        /* \"--CODEGEN--\":5:14   */\n      dup1\n        /* \"--CODEGEN--\":2:4   */\n      iszero\n      tag_1\n      jumpi\n        /* \"--CODEGEN--\":27:28   */\n      0x00\n        /* \"--CODEGEN--\":24:25   */\n      dup1\n        /* \"--CODEGEN--\":17:29   */\n      revert\n        /* \"--CODEGEN--\":2:4   */\n    tag_1:\n        /* \"contracts/demo2.sol\":38:4931  contract demo2 {\r... */\n      pop\n      jumpi(tag_2, lt(calldatasize, 0x04))\n      shr(0xe0, calldataload(0x00))\n      dup1\n      0x3bc5de30\n      eq\n      tag_3\n      jumpi\n      dup1\n      0x9ffd85c4\n      eq\n      tag_4\n      jumpi\n      dup1\n      0xe3a7fd75\n      eq\n      tag_5\n      jumpi\n    tag_2:\n        /* \"--CODEGEN--\":12:13   */\n      0x00\n        /* \"--CODEGEN--\":9:10   */\n      dup1\n        /* \"--CODEGEN--\":2:14   */\n      revert\n        /* \"contracts/demo2.sol\":251:346  function getData() public view returns(bytes memory) {\r... */\n    tag_3:\n      tag_6\n      tag_7\n      jump\t// in\n    tag_6:\n      mload(0x40)\n      dup1\n      dup1\n      0x20\n      add\n      dup3\n      dup2\n      sub\n      dup3\n      mstore\n      dup4\n      dup2\n      dup2\n      mload\n      dup2\n      mstore\n      0x20\n      add\n      swap2\n      pop\n      dup1\n      mload\n      swap1\n      0x20\n      add\n      swap1\n      dup1\n      dup4\n      dup4\n        /* \"--CODEGEN--\":23:24   */\n      0x00\n        /* \"--CODEGEN--\":8:108   */\n    tag_8:\n        /* \"--CODEGEN--\":33:36   */\n      dup4\n        /* \"--CODEGEN--\":30:31   */\n      dup2\n        /* \"--CODEGEN--\":27:37   */\n      lt\n        /* \"--CODEGEN--\":8:108   */\n      iszero\n      tag_10\n      jumpi\n        /* \"--CODEGEN--\":99:100   */\n      dup1\n        /* \"--CODEGEN--\":94:97   */\n      dup3\n        /* \"--CODEGEN--\":90:101   */\n      add\n        /* \"--CODEGEN--\":84:102   */\n      mload\n        /* \"--CODEGEN--\":80:81   */\n      dup2\n        /* \"--CODEGEN--\":75:78   */\n      dup5\n        /* \"--CODEGEN--\":71:82   */\n      add\n        /* \"--CODEGEN--\":64:103   */\n      mstore\n        /* \"--CODEGEN--\":52:54   */\n      0x20\n        /* \"--CODEGEN--\":49:50   */\n      dup2\n        /* \"--CODEGEN--\":45:55   */\n      add\n        /* \"--CODEGEN--\":40:55   */\n      swap1\n      pop\n        /* \"--CODEGEN--\":8:108   */\n      jump(tag_8)\n    tag_10:\n        /* \"--CODEGEN--\":12:26   */\n      pop\n        /* \"contracts/demo2.sol\":251:346  function getData() public view returns(bytes memory) {\r... */\n      pop\n      pop\n      pop\n      swap1\n      pop\n      swap1\n      dup2\n      add\n      swap1\n      0x1f\n      and\n      dup1\n      iszero\n      tag_11\n      jumpi\n      dup1\n      dup3\n      sub\n      dup1\n      mload\n      0x01\n      dup4\n      0x20\n      sub\n      0x0100\n      exp\n      sub\n      not\n      and\n      dup2\n      mstore\n      0x20\n      add\n      swap2\n      pop\n    tag_11:\n      pop\n      swap3\n      pop\n      pop\n      pop\n      mload(0x40)\n      dup1\n      swap2\n      sub\n      swap1\n      return\n        /* \"contracts/demo2.sol\":60:129  bytes public data1 = \"NALEHHJSGDSDGHJSDHSUHDJSHDJSHJSHJSHDSJDHJONGVO\" */\n    tag_4:\n      tag_12\n      tag_13\n      jump\t// in\n    tag_12:\n      mload(0x40)\n      dup1\n      dup1\n      0x20\n      add\n      dup3\n      dup2\n      sub\n      dup3\n      mstore\n      dup4\n      dup2\n      dup2\n      mload\n      dup2\n      mstore\n      0x20\n      add\n      swap2\n      pop\n      dup1\n      mload\n      swap1\n      0x20\n      add\n      swap1\n      dup1\n      dup4\n      dup4\n        /* \"--CODEGEN--\":23:24   */\n      0x00\n        /* \"--CODEGEN--\":8:108   */\n    tag_14:\n        /* \"--CODEGEN--\":33:36   */\n      dup4\n        /* \"--CODEGEN--\":30:31   */\n      dup2\n        /* \"--CODEGEN--\":27:37   */\n      lt\n        /* \"--CODEGEN--\":8:108   */\n      iszero\n      tag_16\n      jumpi\n        /* \"--CODEGEN--\":99:100   */\n      dup1\n        /* \"--CODEGEN--\":94:97   */\n      dup3\n        /* \"--CODEGEN--\":90:101   */\n      add\n        /* \"--CODEGEN--\":84:102   */\n      mload\n        /* \"--CODEGEN--\":80:81   */\n      dup2\n        /* \"--CODEGEN--\":75:78   */\n      dup5\n        /* \"--CODEGEN--\":71:82   */\n      add\n        /* \"--CODEGEN--\":64:103   */\n      mstore\n        /* \"--CODEGEN--\":52:54   */\n      0x20\n        /* \"--CODEGEN--\":49:50   */\n      dup2\n        /* \"--CODEGEN--\":45:55   */\n      add\n        /* \"--CODEGEN--\":40:55   */\n      swap1\n      pop\n        /* \"--CODEGEN--\":8:108   */\n      jump(tag_14)\n    tag_16:\n        /* \"--CODEGEN--\":12:26   */\n      pop\n        /* \"contracts/demo2.sol\":60:129  bytes public data1 = \"NALEHHJSGDSDGHJSDHSUHDJSHDJSHJSHJSHDSJDHJONGVO\" */\n      pop\n      pop\n      pop\n      swap1\n      pop\n      swap1\n      dup2\n      add\n      swap1\n      0x1f\n      and\n      dup1\n      iszero\n      tag_17\n      jumpi\n      dup1\n      dup3\n      sub\n      dup1\n      mload\n      0x01\n      dup4\n      0x20\n      sub\n      0x0100\n      exp\n      sub\n      not\n      and\n      dup2\n      mstore\n      0x20\n      add\n      swap2\n      pop\n    tag_17:\n      pop\n      swap3\n      pop\n      pop\n      pop\n      mload(0x40)\n      dup1\n      swap2\n      sub\n      swap1\n      return\n        /* \"contracts/demo2.sol\":136:183  bytes32 public data2 = \"LEHONGVOwjnfvj3weh8vKJ\" */\n    tag_5:\n      tag_18\n      tag_19\n      jump\t// in\n    tag_18:\n      mload(0x40)\n      dup1\n      dup3\n      dup2\n      mstore\n      0x20\n      add\n      swap2\n      pop\n      pop\n      mload(0x40)\n      dup1\n      swap2\n      sub\n      swap1\n      return\n        /* \"contracts/demo2.sol\":251:346  function getData() public view returns(bytes memory) {\r... */\n    tag_7:\n        /* \"contracts/demo2.sol\":290:302  bytes memory */\n      0x60\n        /* \"contracts/demo2.sol\":322:338  encodeList(self) */\n      tag_21\n        /* \"contracts/demo2.sol\":333:337  self */\n      0x02\n        /* \"contracts/demo2.sol\":322:338  encodeList(self) */\n      dup1\n      sload\n      dup1\n      0x20\n      mul\n      0x20\n      add\n      mload(0x40)\n      swap1\n      dup2\n      add\n      0x40\n      mstore\n      dup1\n      swap3\n      swap2\n      swap1\n      dup2\n      dup2\n      mstore\n      0x20\n      add\n      0x00\n      swap1\n    tag_22:\n      dup3\n      dup3\n      lt\n      iszero\n      tag_23\n      jumpi\n      dup4\n      dup3\n      swap1\n      0x00\n      mstore\n      keccak256(0x00, 0x20)\n      add\n      dup1\n      sload\n      0x01\n      dup2\n      0x01\n      and\n      iszero\n      0x0100\n      mul\n      sub\n      and\n      0x02\n      swap1\n      div\n      dup1\n      0x1f\n      add\n      0x20\n      dup1\n      swap2\n      div\n      mul\n      0x20\n      add\n      mload(0x40)\n      swap1\n      dup2\n      add\n      0x40\n      mstore\n      dup1\n      swap3\n      swap2\n      swap1\n      dup2\n      dup2\n      mstore\n      0x20\n      add\n      dup3\n      dup1\n      sload\n      0x01\n      dup2\n      0x01\n      and\n      iszero\n      0x0100\n      mul\n      sub\n      and\n      0x02\n      swap1\n      div\n      dup1\n      iszero\n      tag_25\n      jumpi\n      dup1\n      0x1f\n      lt\n      tag_26\n      jumpi\n      0x0100\n      dup1\n      dup4\n      sload\n      div\n      mul\n      dup4\n      mstore\n      swap2\n      0x20\n      add\n      swap2\n      jump(tag_25)\n    tag_26:\n      dup3\n      add\n      swap2\n      swap1\n      0x00\n      mstore\n      keccak256(0x00, 0x20)\n      swap1\n    tag_27:\n      dup2\n      sload\n      dup2\n      mstore\n      swap1\n      0x01\n      add\n      swap1\n      0x20\n      add\n      dup1\n      dup4\n      gt\n      tag_27\n      jumpi\n      dup3\n      swap1\n      sub\n      0x1f\n      and\n      dup3\n      add\n      swap2\n    tag_25:\n      pop\n      pop\n      pop\n      pop\n      pop\n      dup2\n      mstore\n      0x20\n      add\n      swap1\n      0x01\n      add\n      swap1\n      jump(tag_22)\n    tag_23:\n      pop\n      pop\n      pop\n      pop\n        /* \"contracts/demo2.sol\":322:332  encodeList */\n      tag_28\n        /* \"contracts/demo2.sol\":322:338  encodeList(self) */\n      jump\t// in\n    tag_21:\n        /* \"contracts/demo2.sol\":315:338  return encodeList(self) */\n      swap1\n      pop\n        /* \"contracts/demo2.sol\":251:346  function getData() public view returns(bytes memory) {\r... */\n      swap1\n      jump\t// out\n        /* \"contracts/demo2.sol\":60:129  bytes public data1 = \"NALEHHJSGDSDGHJSDHSUHDJSHDJSHJSHJSHDSJDHJONGVO\" */\n    tag_13:\n      0x00\n      dup1\n      sload\n      0x01\n      dup2\n      0x01\n      and\n      iszero\n      0x0100\n      mul\n      sub\n      and\n      0x02\n      swap1\n      div\n      dup1\n      0x1f\n      add\n      0x20\n      dup1\n      swap2\n      div\n      mul\n      0x20\n      add\n      mload(0x40)\n      swap1\n      dup2\n      add\n      0x40\n      mstore\n      dup1\n      swap3\n      swap2\n      swap1\n      dup2\n      dup2\n      mstore\n      0x20\n      add\n      dup3\n      dup1\n      sload\n      0x01\n      dup2\n      0x01\n      and\n      iszero\n      0x0100\n      mul\n      sub\n      and\n      0x02\n      swap1\n      div\n      dup1\n      iszero\n      tag_29\n      jumpi\n      dup1\n      0x1f\n      lt\n      tag_30\n      jumpi\n      0x0100\n      dup1\n      dup4\n      sload\n      div\n      mul\n      dup4\n      mstore\n      swap2\n      0x20\n      add\n      swap2\n      jump(tag_29)\n    tag_30:\n      dup3\n      add\n      swap2\n      swap1\n      0x00\n      mstore\n      keccak256(0x00, 0x20)\n      swap1\n    tag_31:\n      dup2\n      sload\n      dup2\n      mstore\n      swap1\n      0x01\n      add\n      swap1\n      0x20\n      add\n      dup1\n      dup4\n      gt\n      tag_31\n      jumpi\n      dup3\n      swap1\n      sub\n      0x1f\n      and\n      dup3\n      add\n      swap2\n    tag_29:\n      pop\n      pop\n      pop\n      pop\n      pop\n      dup2\n      jump\t// out\n        /* \"contracts/demo2.sol\":136:183  bytes32 public data2 = \"LEHONGVOwjnfvj3weh8vKJ\" */\n    tag_19:\n      sload(0x01)\n      dup2\n      jump\t// out\n        /* \"contracts/demo2.sol\":354:753  function encodeList(bytes[] memory self) internal pure returns (bytes memory) {\r... */\n    tag_28:\n        /* \"contracts/demo2.sol\":418:430  bytes memory */\n      0x60\n        /* \"contracts/demo2.sol\":462:463  0 */\n      0x00\n        /* \"contracts/demo2.sol\":447:451  self */\n      dup3\n        /* \"contracts/demo2.sol\":447:458  self.length */\n      mload\n        /* \"contracts/demo2.sol\":447:463  self.length == 0 */\n      eq\n        /* \"contracts/demo2.sol\":443:511  if (self.length == 0) {\r... */\n      iszero\n      tag_33\n      jumpi\n        /* \"contracts/demo2.sol\":497:498  0 */\n      0x00\n        /* \"contracts/demo2.sol\":487:499  new bytes(0) */\n      mload(0x40)\n      swap1\n      dup1\n      dup3\n      mstore\n      dup1\n      0x1f\n      add\n      not(0x1f)\n      and\n      0x20\n      add\n      dup3\n      add\n      0x40\n      mstore\n      dup1\n      iszero\n      tag_34\n      jumpi\n      dup2\n      0x20\n      add\n        /* \"--CODEGEN--\":29:30   */\n      0x01\n        /* \"--CODEGEN--\":21:27   */\n      dup3\n        /* \"--CODEGEN--\":17:31   */\n      mul\n        /* \"--CODEGEN--\":124:128   */\n      dup1\n        /* \"--CODEGEN--\":108:122   */\n      calldatasize\n        /* \"--CODEGEN--\":100:106   */\n      dup4\n        /* \"--CODEGEN--\":87:129   */\n      calldatacopy\n        /* \"--CODEGEN--\":155:159   */\n      dup1\n        /* \"--CODEGEN--\":147:153   */\n      dup3\n        /* \"--CODEGEN--\":143:160   */\n      add\n        /* \"--CODEGEN--\":133:160   */\n      swap2\n      pop\n        /* \"--CODEGEN--\":0:164   */\n      pop\n        /* \"contracts/demo2.sol\":487:499  new bytes(0) */\n      swap1\n      pop\n    tag_34:\n      pop\n        /* \"contracts/demo2.sol\":480:499  return new bytes(0) */\n      swap1\n      pop\n      jump(tag_32)\n        /* \"contracts/demo2.sol\":443:511  if (self.length == 0) {\r... */\n    tag_33:\n        /* \"contracts/demo2.sol\":521:541  bytes memory payload */\n      0x60\n        /* \"contracts/demo2.sol\":544:548  self */\n      dup3\n        /* \"contracts/demo2.sol\":549:550  0 */\n      0x00\n        /* \"contracts/demo2.sol\":544:551  self[0] */\n      dup2\n      mload\n      dup2\n      lt\n      tag_35\n      jumpi\n      invalid\n    tag_35:\n      0x20\n      mul\n      0x20\n      add\n      add\n      mload\n        /* \"contracts/demo2.sol\":521:551  bytes memory payload = self[0] */\n      swap1\n      pop\n        /* \"contracts/demo2.sol\":567:573  uint i */\n      0x00\n        /* \"contracts/demo2.sol\":576:577  1 */\n      0x01\n        /* \"contracts/demo2.sol\":567:577  uint i = 1 */\n      swap1\n      pop\n        /* \"contracts/demo2.sol\":562:666  for (uint i = 1; i < self.length; i++) {\r... */\n    tag_36:\n        /* \"contracts/demo2.sol\":583:587  self */\n      dup4\n        /* \"contracts/demo2.sol\":583:594  self.length */\n      mload\n        /* \"contracts/demo2.sol\":579:580  i */\n      dup2\n        /* \"contracts/demo2.sol\":579:594  i < self.length */\n      lt\n        /* \"contracts/demo2.sol\":562:666  for (uint i = 1; i < self.length; i++) {\r... */\n      iszero\n      tag_37\n      jumpi\n        /* \"contracts/demo2.sol\":626:654  mergeBytes(payload, self[i]) */\n      tag_39\n        /* \"contracts/demo2.sol\":637:644  payload */\n      dup3\n        /* \"contracts/demo2.sol\":646:650  self */\n      dup6\n        /* \"contracts/demo2.sol\":651:652  i */\n      dup4\n        /* \"contracts/demo2.sol\":646:653  self[i] */\n      dup2\n      mload\n      dup2\n      lt\n      tag_40\n      jumpi\n      invalid\n    tag_40:\n      0x20\n      mul\n      0x20\n      add\n      add\n      mload\n        /* \"contracts/demo2.sol\":626:636  mergeBytes */\n      tag_41\n        /* \"contracts/demo2.sol\":626:654  mergeBytes(payload, self[i]) */\n      jump\t// in\n    tag_39:\n        /* \"contracts/demo2.sol\":616:654  payload = mergeBytes(payload, self[i]) */\n      swap2\n      pop\n        /* \"contracts/demo2.sol\":596:599  i++ */\n      dup1\n      dup1\n      0x01\n      add\n      swap2\n      pop\n      pop\n        /* \"contracts/demo2.sol\":562:666  for (uint i = 1; i < self.length; i++) {\r... */\n      jump(tag_36)\n    tag_37:\n      pop\n        /* \"contracts/demo2.sol\":683:745  mergeBytes(encodeLength(payload.length, LIST_OFFSET), payload) */\n      tag_42\n        /* \"contracts/demo2.sol\":694:735  encodeLength(payload.length, LIST_OFFSET) */\n      tag_43\n        /* \"contracts/demo2.sol\":707:714  payload */\n      dup3\n        /* \"contracts/demo2.sol\":707:721  payload.length */\n      mload\n        /* \"contracts/demo2.sol\":219:223  0xc0 */\n      0xc0\n        /* \"contracts/demo2.sol\":694:735  encodeLength(payload.length, LIST_OFFSET) */\n      0xff\n      and\n        /* \"contracts/demo2.sol\":694:706  encodeLength */\n      tag_44\n        /* \"contracts/demo2.sol\":694:735  encodeLength(payload.length, LIST_OFFSET) */\n      jump\t// in\n    tag_43:\n        /* \"contracts/demo2.sol\":737:744  payload */\n      dup3\n        /* \"contracts/demo2.sol\":683:693  mergeBytes */\n      tag_41\n        /* \"contracts/demo2.sol\":683:745  mergeBytes(encodeLength(payload.length, LIST_OFFSET), payload) */\n      jump\t// in\n    tag_42:\n        /* \"contracts/demo2.sol\":676:745  return mergeBytes(encodeLength(payload.length, LIST_OFFSET), payload) */\n      swap2\n      pop\n      pop\n        /* \"contracts/demo2.sol\":354:753  function encodeList(bytes[] memory self) internal pure returns (bytes memory) {\r... */\n    tag_32:\n      swap2\n      swap1\n      pop\n      jump\t// out\n        /* \"contracts/demo2.sol\":1209:4124  function mergeBytes(\r... */\n    tag_41:\n        /* \"contracts/demo2.sol\":1341:1353  bytes memory */\n      0x60\n        /* \"contracts/demo2.sol\":1371:1393  bytes memory tempBytes */\n      dup1\n        /* \"contracts/demo2.sol\":1573:1577  0x40 */\n      0x40\n        /* \"contracts/demo2.sol\":1567:1578  mload(0x40) */\n      mload\n        /* \"contracts/demo2.sol\":1554:1578  tempBytes := mload(0x40) */\n      swap1\n      pop\n        /* \"contracts/demo2.sol\":1726:1735  _preBytes */\n      dup4\n        /* \"contracts/demo2.sol\":1720:1736  mload(_preBytes) */\n      mload\n        /* \"contracts/demo2.sol\":1768:1774  length */\n      dup1\n        /* \"contracts/demo2.sol\":1757:1766  tempBytes */\n      dup3\n        /* \"contracts/demo2.sol\":1750:1775  mstore(tempBytes, length) */\n      mstore\n        /* \"contracts/demo2.sol\":2003:2007  0x20 */\n      0x20\n        /* \"contracts/demo2.sol\":1992:2001  tempBytes */\n      dup3\n        /* \"contracts/demo2.sol\":1988:2008  add(tempBytes, 0x20) */\n      add\n        /* \"contracts/demo2.sol\":2147:2153  length */\n      dup2\n        /* \"contracts/demo2.sol\":2143:2145  mc */\n      dup2\n        /* \"contracts/demo2.sol\":2139:2154  add(mc, length) */\n      add\n        /* \"contracts/demo2.sol\":2338:2342  0x20 */\n      0x20\n        /* \"contracts/demo2.sol\":2327:2336  _preBytes */\n      dup8\n        /* \"contracts/demo2.sol\":2323:2343  add(_preBytes, 0x20) */\n      add\n        /* \"contracts/demo2.sol\":2170:2687  for {\r... */\n    tag_46:\n        /* \"contracts/demo2.sol\":2366:2369  end */\n      dup2\n        /* \"contracts/demo2.sol\":2362:2364  mc */\n      dup4\n        /* \"contracts/demo2.sol\":2359:2370  lt(mc, end) */\n      lt\n        /* \"contracts/demo2.sol\":2170:2687  for {\r... */\n      iszero\n      tag_48\n      jumpi\n        /* \"contracts/demo2.sol\":2668:2670  cc */\n      dup1\n        /* \"contracts/demo2.sol\":2662:2671  mload(cc) */\n      mload\n        /* \"contracts/demo2.sol\":2658:2660  mc */\n      dup4\n        /* \"contracts/demo2.sol\":2651:2672  mstore(mc, mload(cc)) */\n      mstore\n        /* \"contracts/demo2.sol\":2471:2475  0x20 */\n      0x20\n        /* \"contracts/demo2.sol\":2467:2469  mc */\n      dup4\n        /* \"contracts/demo2.sol\":2463:2476  add(mc, 0x20) */\n      add\n        /* \"contracts/demo2.sol\":2457:2476  mc := add(mc, 0x20) */\n      swap3\n      pop\n        /* \"contracts/demo2.sol\":2508:2512  0x20 */\n      0x20\n        /* \"contracts/demo2.sol\":2504:2506  cc */\n      dup2\n        /* \"contracts/demo2.sol\":2500:2513  add(cc, 0x20) */\n      add\n        /* \"contracts/demo2.sol\":2494:2513  cc := add(cc, 0x20) */\n      swap1\n      pop\n        /* \"contracts/demo2.sol\":2170:2687  for {\r... */\n      jump(tag_46)\n    tag_48:\n        /* \"contracts/demo2.sol\":2174:2358  {\r... */\n      pop\n        /* \"contracts/demo2.sol\":2897:2907  _postBytes */\n      dup6\n        /* \"contracts/demo2.sol\":2891:2908  mload(_postBytes) */\n      mload\n        /* \"contracts/demo2.sol\":2881:2908  length := mload(_postBytes) */\n      swap3\n      pop\n        /* \"contracts/demo2.sol\":2958:2967  tempBytes */\n      dup4\n        /* \"contracts/demo2.sol\":2952:2968  mload(tempBytes) */\n      mload\n        /* \"contracts/demo2.sol\":2944:2950  length */\n      dup4\n        /* \"contracts/demo2.sol\":2940:2969  add(length, mload(tempBytes)) */\n      add\n        /* \"contracts/demo2.sol\":2929:2938  tempBytes */\n      dup5\n        /* \"contracts/demo2.sol\":2922:2970  mstore(tempBytes, add(length, mload(tempBytes))) */\n      mstore\n        /* \"contracts/demo2.sol\":3110:3113  end */\n      dup1\n        /* \"contracts/demo2.sol\":3104:3113  mc := end */\n      swap2\n      pop\n        /* \"contracts/demo2.sol\":3250:3256  length */\n      dup3\n        /* \"contracts/demo2.sol\":3246:3248  mc */\n      dup3\n        /* \"contracts/demo2.sol\":3242:3257  add(mc, length) */\n      add\n        /* \"contracts/demo2.sol\":3235:3257  end := add(mc, length) */\n      swap1\n      pop\n        /* \"contracts/demo2.sol\":3322:3326  0x20 */\n      0x20\n        /* \"contracts/demo2.sol\":3310:3320  _postBytes */\n      dup7\n        /* \"contracts/demo2.sol\":3306:3327  add(_postBytes, 0x20) */\n      add\n        /* \"contracts/demo2.sol\":3273:3501  for {\r... */\n    tag_49:\n        /* \"contracts/demo2.sol\":3350:3353  end */\n      dup2\n        /* \"contracts/demo2.sol\":3346:3348  mc */\n      dup4\n        /* \"contracts/demo2.sol\":3343:3354  lt(mc, end) */\n      lt\n        /* \"contracts/demo2.sol\":3273:3501  for {\r... */\n      iszero\n      tag_51\n      jumpi\n        /* \"contracts/demo2.sol\":3482:3484  cc */\n      dup1\n        /* \"contracts/demo2.sol\":3476:3485  mload(cc) */\n      mload\n        /* \"contracts/demo2.sol\":3472:3474  mc */\n      dup4\n        /* \"contracts/demo2.sol\":3465:3486  mstore(mc, mload(cc)) */\n      mstore\n        /* \"contracts/demo2.sol\":3388:3392  0x20 */\n      0x20\n        /* \"contracts/demo2.sol\":3384:3386  mc */\n      dup4\n        /* \"contracts/demo2.sol\":3380:3393  add(mc, 0x20) */\n      add\n        /* \"contracts/demo2.sol\":3374:3393  mc := add(mc, 0x20) */\n      swap3\n      pop\n        /* \"contracts/demo2.sol\":3425:3429  0x20 */\n      0x20\n        /* \"contracts/demo2.sol\":3421:3423  cc */\n      dup2\n        /* \"contracts/demo2.sol\":3417:3430  add(cc, 0x20) */\n      add\n        /* \"contracts/demo2.sol\":3411:3430  cc := add(cc, 0x20) */\n      swap1\n      pop\n        /* \"contracts/demo2.sol\":3273:3501  for {\r... */\n      jump(tag_49)\n    tag_51:\n        /* \"contracts/demo2.sol\":3277:3342  {\r... */\n      pop\n        /* \"contracts/demo2.sol\":4019:4021  31 */\n      0x1f\n        /* \"contracts/demo2.sol\":4015:4022  not(31) */\n      not\n        /* \"contracts/demo2.sol\":3997:3999  31 */\n      0x1f\n        /* \"contracts/demo2.sol\":3982:3991  _preBytes */\n      dup9\n        /* \"contracts/demo2.sol\":3976:3992  mload(_preBytes) */\n      mload\n        /* \"contracts/demo2.sol\":3968:3974  length */\n      dup6\n        /* \"contracts/demo2.sol\":3964:3993  add(length, mload(_preBytes)) */\n      add\n        /* \"contracts/demo2.sol\":3957:3994  iszero(add(length, mload(_preBytes))) */\n      iszero\n        /* \"contracts/demo2.sol\":3952:3955  end */\n      dup4\n        /* \"contracts/demo2.sol\":3948:3995  add(end, iszero(add(length, mload(_preBytes)))) */\n      add\n        /* \"contracts/demo2.sol\":3944:4000  add(add(end, iszero(add(length, mload(_preBytes)))), 31) */\n      add\n        /* \"contracts/demo2.sol\":3926:4076  and(\r... */\n      and\n        /* \"contracts/demo2.sol\":3920:3924  0x40 */\n      0x40\n        /* \"contracts/demo2.sol\":3913:4077  mstore(0x40, and(\r... */\n      mstore\n        /* \"contracts/demo2.sol\":1415:4088  {\r... */\n      pop\n      pop\n      pop\n        /* \"contracts/demo2.sol\":4107:4116  tempBytes */\n      dup1\n        /* \"contracts/demo2.sol\":4100:4116  return tempBytes */\n      swap2\n      pop\n      pop\n        /* \"contracts/demo2.sol\":1209:4124  function mergeBytes(\r... */\n      swap3\n      swap2\n      pop\n      pop\n      jump\t// out\n        /* \"contracts/demo2.sol\":763:1201  function encodeLength(uint length, uint offset) internal pure returns (bytes memory) {\r... */\n    tag_44:\n        /* \"contracts/demo2.sol\":834:846  bytes memory */\n      0x60\n        /* \"contracts/demo2.sol\":876:882  256**8 */\n      0x010000000000000000\n        /* \"contracts/demo2.sol\":867:873  length */\n      dup4\n        /* \"contracts/demo2.sol\":867:882  length < 256**8 */\n      lt\n        /* \"contracts/demo2.sol\":859:901  require(length < 256**8, \"input too long\") */\n      tag_53\n      jumpi\n      mload(0x40)\n      0x08c379a000000000000000000000000000000000000000000000000000000000\n      dup2\n      mstore\n      0x04\n      add\n      dup1\n      dup1\n      0x20\n      add\n      dup3\n      dup2\n      sub\n      dup3\n      mstore\n      0x0e\n      dup2\n      mstore\n      0x20\n      add\n      dup1\n      0x696e70757420746f6f206c6f6e67000000000000000000000000000000000000\n      dup2\n      mstore\n      pop\n      0x20\n      add\n      swap2\n      pop\n      pop\n      mload(0x40)\n      dup1\n      swap2\n      sub\n      swap1\n      revert\n    tag_53:\n        /* \"contracts/demo2.sol\":912:927  bytes memory rs */\n      0x60\n        /* \"contracts/demo2.sol\":940:941  1 */\n      0x01\n        /* \"contracts/demo2.sol\":930:942  new bytes(1) */\n      mload(0x40)\n      swap1\n      dup1\n      dup3\n      mstore\n      dup1\n      0x1f\n      add\n      not(0x1f)\n      and\n      0x20\n      add\n      dup3\n      add\n      0x40\n      mstore\n      dup1\n      iszero\n      tag_54\n      jumpi\n      dup2\n      0x20\n      add\n        /* \"--CODEGEN--\":29:30   */\n      0x01\n        /* \"--CODEGEN--\":21:27   */\n      dup3\n        /* \"--CODEGEN--\":17:31   */\n      mul\n        /* \"--CODEGEN--\":124:128   */\n      dup1\n        /* \"--CODEGEN--\":108:122   */\n      calldatasize\n        /* \"--CODEGEN--\":100:106   */\n      dup4\n        /* \"--CODEGEN--\":87:129   */\n      calldatacopy\n        /* \"--CODEGEN--\":155:159   */\n      dup1\n        /* \"--CODEGEN--\":147:153   */\n      dup3\n        /* \"--CODEGEN--\":143:160   */\n      add\n        /* \"--CODEGEN--\":133:160   */\n      swap2\n      pop\n        /* \"--CODEGEN--\":0:164   */\n      pop\n        /* \"contracts/demo2.sol\":930:942  new bytes(1) */\n      swap1\n      pop\n    tag_54:\n      pop\n        /* \"contracts/demo2.sol\":912:942  bytes memory rs = new bytes(1) */\n      swap1\n      pop\n        /* \"contracts/demo2.sol\":967:969  55 */\n      0x37\n        /* \"contracts/demo2.sol\":957:963  length */\n      dup5\n        /* \"contracts/demo2.sol\":957:969  length <= 55 */\n      gt\n        /* \"contracts/demo2.sol\":953:1058  if (length <= 55) {\r... */\n      tag_55\n      jumpi\n        /* \"contracts/demo2.sol\":1014:1020  offset */\n      dup3\n        /* \"contracts/demo2.sol\":1005:1011  length */\n      dup5\n        /* \"contracts/demo2.sol\":1005:1020  length + offset */\n      add\n        /* \"contracts/demo2.sol\":994:1022  byte(uint8(length + offset)) */\n      0xf8\n      shl\n        /* \"contracts/demo2.sol\":986:988  rs */\n      dup2\n        /* \"contracts/demo2.sol\":989:990  0 */\n      0x00\n        /* \"contracts/demo2.sol\":986:991  rs[0] */\n      dup2\n      mload\n      dup2\n      lt\n      tag_56\n      jumpi\n      invalid\n    tag_56:\n      0x20\n      add\n      add\n        /* \"contracts/demo2.sol\":986:1022  rs[0] = byte(uint8(length + offset)) */\n      swap1\n      not(0xffffffffffffffffffffffffffffffffffffffffffffffffffffffffffffff)\n      and\n      swap1\n      dup2\n      0x00\n      byte\n      swap1\n      mstore8\n      pop\n        /* \"contracts/demo2.sol\":1044:1046  rs */\n      dup1\n        /* \"contracts/demo2.sol\":1037:1046  return rs */\n      swap2\n      pop\n      pop\n      jump(tag_52)\n        /* \"contracts/demo2.sol\":953:1058  if (length <= 55) {\r... */\n    tag_55:\n        /* \"contracts/demo2.sol\":1068:1083  bytes memory bl */\n      0x60\n        /* \"contracts/demo2.sol\":1086:1102  toBinary(length) */\n      tag_57\n        /* \"contracts/demo2.sol\":1095:1101  length */\n      dup6\n        /* \"contracts/demo2.sol\":1086:1094  toBinary */\n      tag_58\n        /* \"contracts/demo2.sol\":1086:1102  toBinary(length) */\n      jump\t// in\n    tag_57:\n        /* \"contracts/demo2.sol\":1068:1102  bytes memory bl = toBinary(length) */\n      swap1\n      pop\n        /* \"contracts/demo2.sol\":1153:1155  55 */\n      0x37\n        /* \"contracts/demo2.sol\":1144:1150  offset */\n      dup5\n        /* \"contracts/demo2.sol\":1132:1134  bl */\n      dup3\n        /* \"contracts/demo2.sol\":1132:1141  bl.length */\n      mload\n        /* \"contracts/demo2.sol\":1132:1150  bl.length + offset */\n      add\n        /* \"contracts/demo2.sol\":1132:1155  bl.length + offset + 55 */\n      add\n        /* \"contracts/demo2.sol\":1121:1157  byte(uint8(bl.length + offset + 55)) */\n      0xf8\n      shl\n        /* \"contracts/demo2.sol\":1113:1115  rs */\n      dup3\n        /* \"contracts/demo2.sol\":1116:1117  0 */\n      0x00\n        /* \"contracts/demo2.sol\":1113:1118  rs[0] */\n      dup2\n      mload\n      dup2\n      lt\n      tag_59\n      jumpi\n      invalid\n    tag_59:\n      0x20\n      add\n      add\n        /* \"contracts/demo2.sol\":1113:1157  rs[0] = byte(uint8(bl.length + offset + 55)) */\n      swap1\n      not(0xffffffffffffffffffffffffffffffffffffffffffffffffffffffffffffff)\n      and\n      swap1\n      dup2\n      0x00\n      byte\n      swap1\n      mstore8\n      pop\n        /* \"contracts/demo2.sol\":1175:1193  mergeBytes(rs, bl) */\n      tag_60\n        /* \"contracts/demo2.sol\":1186:1188  rs */\n      dup3\n        /* \"contracts/demo2.sol\":1190:1192  bl */\n      dup3\n        /* \"contracts/demo2.sol\":1175:1185  mergeBytes */\n      tag_41\n        /* \"contracts/demo2.sol\":1175:1193  mergeBytes(rs, bl) */\n      jump\t// in\n    tag_60:\n        /* \"contracts/demo2.sol\":1168:1193  return mergeBytes(rs, bl) */\n      swap3\n      pop\n      pop\n      pop\n        /* \"contracts/demo2.sol\":763:1201  function encodeLength(uint length, uint offset) internal pure returns (bytes memory) {\r... */\n    tag_52:\n      swap3\n      swap2\n      pop\n      pop\n      jump\t// out\n        /* \"contracts/demo2.sol\":4136:4924  function toBinary(uint x) internal pure returns (bytes memory) {\r... */\n    tag_58:\n        /* \"contracts/demo2.sol\":4185:4197  bytes memory */\n      0x60\n        /* \"contracts/demo2.sol\":4210:4224  bytes memory b */\n      dup1\n        /* \"contracts/demo2.sol\":4237:4239  32 */\n      0x20\n        /* \"contracts/demo2.sol\":4227:4240  new bytes(32) */\n      mload(0x40)\n      swap1\n      dup1\n      dup3\n      mstore\n      dup1\n      0x1f\n      add\n      not(0x1f)\n      and\n      0x20\n      add\n      dup3\n      add\n      0x40\n      mstore\n      dup1\n      iszero\n      tag_62\n      jumpi\n      dup2\n      0x20\n      add\n        /* \"--CODEGEN--\":29:30   */\n      0x01\n        /* \"--CODEGEN--\":21:27   */\n      dup3\n        /* \"--CODEGEN--\":17:31   */\n      mul\n        /* \"--CODEGEN--\":124:128   */\n      dup1\n        /* \"--CODEGEN--\":108:122   */\n      calldatasize\n        /* \"--CODEGEN--\":100:106   */\n      dup4\n        /* \"--CODEGEN--\":87:129   */\n      calldatacopy\n        /* \"--CODEGEN--\":155:159   */\n      dup1\n        /* \"--CODEGEN--\":147:153   */\n      dup3\n        /* \"--CODEGEN--\":143:160   */\n      add\n        /* \"--CODEGEN--\":133:160   */\n      swap2\n      pop\n        /* \"--CODEGEN--\":0:164   */\n      pop\n        /* \"contracts/demo2.sol\":4227:4240  new bytes(32) */\n      swap1\n      pop\n    tag_62:\n      pop\n        /* \"contracts/demo2.sol\":4210:4240  bytes memory b = new bytes(32) */\n      swap1\n      pop\n        /* \"contracts/demo2.sol\":4294:4295  x */\n      dup3\n        /* \"contracts/demo2.sol\":4289:4291  32 */\n      0x20\n        /* \"contracts/demo2.sol\":4286:4287  b */\n      dup3\n        /* \"contracts/demo2.sol\":4282:4292  add(b, 32) */\n      add\n        /* \"contracts/demo2.sol\":4275:4296  mstore(add(b, 32), x) */\n      mstore\n        /* \"contracts/demo2.sol\":4317:4323  uint i */\n      0x00\n        /* \"contracts/demo2.sol\":4412:4413  0 */\n      dup1\n        /* \"contracts/demo2.sol\":4342:4408  0xffffffffffffffffffffffffffffffffffffffffffffffff0000000000000000 */\n      0xffffffffffffffffffffffffffffffffffffffffffffffff0000000000000000\n        /* \"contracts/demo2.sol\":4338:4339  x */\n      dup6\n        /* \"contracts/demo2.sol\":4338:4408  x & 0xffffffffffffffffffffffffffffffffffffffffffffffff0000000000000000 */\n      and\n        /* \"contracts/demo2.sol\":4338:4413  x & 0xffffffffffffffffffffffffffffffffffffffffffffffff0000000000000000 == 0 */\n      eq\n        /* \"contracts/demo2.sol\":4334:4606  if (x & 0xffffffffffffffffffffffffffffffffffffffffffffffff0000000000000000 == 0) {\r... */\n      iszero\n      tag_63\n      jumpi\n        /* \"contracts/demo2.sol\":4434:4436  24 */\n      0x18\n        /* \"contracts/demo2.sol\":4430:4436  i = 24 */\n      swap1\n      pop\n        /* \"contracts/demo2.sol\":4334:4606  if (x & 0xffffffffffffffffffffffffffffffffffffffffffffffff0000000000000000 == 0) {\r... */\n      jump(tag_64)\n    tag_63:\n        /* \"contracts/demo2.sol\":4532:4533  0 */\n      0x00\n        /* \"contracts/demo2.sol\":4462:4528  0xffffffffffffffffffffffffffffffff00000000000000000000000000000000 */\n      0xffffffffffffffffffffffffffffffff00000000000000000000000000000000\n        /* \"contracts/demo2.sol\":4458:4459  x */\n      dup6\n        /* \"contracts/demo2.sol\":4458:4528  x & 0xffffffffffffffffffffffffffffffff00000000000000000000000000000000 */\n      and\n        /* \"contracts/demo2.sol\":4458:4533  x & 0xffffffffffffffffffffffffffffffff00000000000000000000000000000000 == 0 */\n      eq\n        /* \"contracts/demo2.sol\":4454:4606  if (x & 0xffffffffffffffffffffffffffffffff00000000000000000000000000000000 == 0) {\r... */\n      iszero\n      tag_65\n      jumpi\n        /* \"contracts/demo2.sol\":4554:4556  16 */\n      0x10\n        /* \"contracts/demo2.sol\":4550:4556  i = 16 */\n      swap1\n      pop\n        /* \"contracts/demo2.sol\":4454:4606  if (x & 0xffffffffffffffffffffffffffffffff00000000000000000000000000000000 == 0) {\r... */\n      jump(tag_66)\n    tag_65:\n        /* \"contracts/demo2.sol\":4593:4594  0 */\n      0x00\n        /* \"contracts/demo2.sol\":4589:4594  i = 0 */\n      swap1\n      pop\n        /* \"contracts/demo2.sol\":4454:4606  if (x & 0xffffffffffffffffffffffffffffffff00000000000000000000000000000000 == 0) {\r... */\n    tag_66:\n        /* \"contracts/demo2.sol\":4334:4606  if (x & 0xffffffffffffffffffffffffffffffffffffffffffffffff0000000000000000 == 0) {\r... */\n    tag_64:\n        /* \"contracts/demo2.sol\":4616:4717  for (; i < 32; i++) {\r... */\n    tag_67:\n        /* \"contracts/demo2.sol\":4627:4629  32 */\n      0x20\n        /* \"contracts/demo2.sol\":4623:4624  i */\n      dup2\n        /* \"contracts/demo2.sol\":4623:4629  i < 32 */\n      lt\n        /* \"contracts/demo2.sol\":4616:4717  for (; i < 32; i++) {\r... */\n      iszero\n      tag_68\n      jumpi\n        /* \"contracts/demo2.sol\":4663:4664  0 */\n      0x00\n        /* \"contracts/demo2.sol\":4655:4664  b[i] != 0 */\n      0xf8\n      shl\n        /* \"contracts/demo2.sol\":4655:4656  b */\n      dup3\n        /* \"contracts/demo2.sol\":4657:4658  i */\n      dup3\n        /* \"contracts/demo2.sol\":4655:4659  b[i] */\n      dup2\n      mload\n      dup2\n      lt\n      tag_70\n      jumpi\n      invalid\n    tag_70:\n      0x20\n      add\n      add\n      mload\n      0xf8\n      shr\n      0xf8\n      shl\n        /* \"contracts/demo2.sol\":4655:4664  b[i] != 0 */\n      not(0xffffffffffffffffffffffffffffffffffffffffffffffffffffffffffffff)\n      and\n      eq\n        /* \"contracts/demo2.sol\":4651:4706  if (b[i] != 0) {\r... */\n      tag_71\n      jumpi\n        /* \"contracts/demo2.sol\":4685:4690  break */\n      jump(tag_68)\n        /* \"contracts/demo2.sol\":4651:4706  if (b[i] != 0) {\r... */\n    tag_71:\n        /* \"contracts/demo2.sol\":4631:4634  i++ */\n      dup1\n      dup1\n      0x01\n      add\n      swap2\n      pop\n      pop\n        /* \"contracts/demo2.sol\":4616:4717  for (; i < 32; i++) {\r... */\n      jump(tag_67)\n    tag_68:\n        /* \"contracts/demo2.sol\":4727:4738  uint length */\n      0x00\n        /* \"contracts/demo2.sol\":4746:4747  i */\n      dup2\n        /* \"contracts/demo2.sol\":4741:4743  32 */\n      0x20\n        /* \"contracts/demo2.sol\":4741:4747  32 - i */\n      sub\n        /* \"contracts/demo2.sol\":4727:4747  uint length = 32 - i */\n      swap1\n      pop\n        /* \"contracts/demo2.sol\":4758:4773  bytes memory rs */\n      0x60\n        /* \"contracts/demo2.sol\":4786:4792  length */\n      dup2\n        /* \"contracts/demo2.sol\":4776:4793  new bytes(length) */\n      mload(0x40)\n      swap1\n      dup1\n      dup3\n      mstore\n      dup1\n      0x1f\n      add\n      not(0x1f)\n      and\n      0x20\n      add\n      dup3\n      add\n      0x40\n      mstore\n      dup1\n      iszero\n      tag_72\n      jumpi\n      dup2\n      0x20\n      add\n        /* \"--CODEGEN--\":29:30   */\n      0x01\n        /* \"--CODEGEN--\":21:27   */\n      dup3\n        /* \"--CODEGEN--\":17:31   */\n      mul\n        /* \"--CODEGEN--\":124:128   */\n      dup1\n        /* \"--CODEGEN--\":108:122   */\n      calldatasize\n        /* \"--CODEGEN--\":100:106   */\n      dup4\n        /* \"--CODEGEN--\":87:129   */\n      calldatacopy\n        /* \"--CODEGEN--\":155:159   */\n      dup1\n        /* \"--CODEGEN--\":147:153   */\n      dup3\n        /* \"--CODEGEN--\":143:160   */\n      add\n        /* \"--CODEGEN--\":133:160   */\n      swap2\n      pop\n        /* \"--CODEGEN--\":0:164   */\n      pop\n        /* \"contracts/demo2.sol\":4776:4793  new bytes(length) */\n      swap1\n      pop\n    tag_72:\n      pop\n        /* \"contracts/demo2.sol\":4758:4793  bytes memory rs = new bytes(length) */\n      swap1\n      pop\n        /* \"contracts/demo2.sol\":4852:4853  x */\n      dup6\n        /* \"contracts/demo2.sol\":4843:4849  length */\n      dup3\n        /* \"contracts/demo2.sol\":4839:4841  rs */\n      dup3\n        /* \"contracts/demo2.sol\":4835:4850  add(rs, length) */\n      add\n        /* \"contracts/demo2.sol\":4828:4854  mstore(add(rs, length), x) */\n      mstore\n        /* \"contracts/demo2.sol\":4879:4885  length */\n      dup2\n        /* \"contracts/demo2.sol\":4875:4877  rs */\n      dup2\n        /* \"contracts/demo2.sol\":4868:4886  mstore(rs, length) */\n      mstore\n        /* \"contracts/demo2.sol\":4914:4916  rs */\n      dup1\n        /* \"contracts/demo2.sol\":4907:4916  return rs */\n      swap5\n      pop\n      pop\n      pop\n      pop\n      pop\n        /* \"contracts/demo2.sol\":4136:4924  function toBinary(uint x) internal pure returns (bytes memory) {\r... */\n      swap2\n      swap1\n      pop\n      jump\t// out\n\n    auxdata: 0xa2646970667358221220fbb858c86592a818206e521a712f0d5f514494bb3861afddfc2c3c7f56d164f864736f6c63430006040033\n}\n",
				"bytecode": {
					"linkReferences": {},
					"object": "60806040526040518060600160405280602e8152602001610871602e913960009080519060200190610032929190610069565b507f4c45484f4e47564f776a6e66766a3377656838764b4a0000000000000000000060015534801561006357600080fd5b5061010e565b828054600181600116156101000203166002900490600052602060002090601f016020900481019282601f106100aa57805160ff19168380011785556100d8565b828001600101855582156100d8579182015b828111156100d75782518255916020019190600101906100bc565b5b5090506100e591906100e9565b5090565b61010b91905b808211156101075760008160009055506001016100ef565b5090565b90565b6107548061011d6000396000f3fe608060405234801561001057600080fd5b50600436106100415760003560e01c80633bc5de30146100465780639ffd85c4146100c9578063e3a7fd751461014c575b600080fd5b61004e61016a565b6040518080602001828103825283818151815260200191508051906020019080838360005b8381101561008e578082015181840152602081019050610073565b50505050905090810190601f1680156100bb5780820380516001836020036101000a031916815260200191505b509250505060405180910390f35b6100d161025b565b6040518080602001828103825283818151815260200191508051906020019080838360005b838110156101115780820151818401526020810190506100f6565b50505050905090810190601f16801561013e5780820380516001836020036101000a031916815260200191505b509250505060405180910390f35b6101546102f9565b6040518082815260200191505060405180910390f35b60606102566002805480602002602001604051908101604052809291908181526020016000905b8282101561024d578382906000526020600020018054600181600116156101000203166002900480601f0160208091040260200160405190810160405280929190818152602001828054600181600116156101000203166002900480156102395780601f1061020e57610100808354040283529160200191610239565b820191906000526020600020905b81548152906001019060200180831161021c57829003601f168201915b505050505081526020019060010190610191565b505050506102ff565b905090565b60008054600181600116156101000203166002900480601f0160208091040260200160405190810160405280929190818152602001828054600181600116156101000203166002900480156102f15780601f106102c6576101008083540402835291602001916102f1565b820191906000526020600020905b8154815290600101906020018083116102d457829003601f168201915b505050505081565b60015481565b60606000825114156103475760006040519080825280601f01601f19166020018201604052801561033f5781602001600182028036833780820191505090505b5090506103b9565b60608260008151811061035657fe5b602002602001015190506000600190505b835181101561039c5761038d8285838151811061038057fe5b60200260200101516103be565b91508080600101915050610367565b506103b56103af825160c060ff16610448565b826103be565b9150505b919050565b6060806040519050835180825260208201818101602087015b818310156103f457805183526020830192506020810190506103d7565b50855192508351830184528091508282019050602086015b81831015610429578051835260208301925060208101905061040c565b50601f19601f8851850115830101166040525050508091505092915050565b60606801000000000000000083106104c8576040517f08c379a000000000000000000000000000000000000000000000000000000000815260040180806020018281038252600e8152602001807f696e70757420746f6f206c6f6e6700000000000000000000000000000000000081525060200191505060405180910390fd5b606060016040519080825280601f01601f1916602001820160405280156104fe5781602001600182028036833780820191505090505b509050603784116105545782840160f81b8160008151811061051c57fe5b60200101907effffffffffffffffffffffffffffffffffffffffffffffffffffffffffffff1916908160001a905350809150506105b6565b606061055f856105bc565b90506037848251010160f81b8260008151811061057857fe5b60200101907effffffffffffffffffffffffffffffffffffffffffffffffffffffffffffff1916908160001a9053506105b182826103be565b925050505b92915050565b60608060206040519080825280601f01601f1916602001820160405280156105f35781602001600182028036833780820191505090505b5090508260208201526000807fffffffffffffffffffffffffffffffffffffffffffffffff000000000000000085161415610631576018905061066b565b60007fffffffffffffffffffffffffffffffff0000000000000000000000000000000085161415610665576010905061066a565b600090505b5b5b60208110156106ca57600060f81b82828151811061068657fe5b602001015160f81c60f81b7effffffffffffffffffffffffffffffffffffffffffffffffffffffffffffff1916146106bd576106ca565b808060010191505061066c565b60008160200390506060816040519080825280601f01601f1916602001820160405280156107075781602001600182028036833780820191505090505b50905085828201528181528094505050505091905056fea2646970667358221220fbb858c86592a818206e521a712f0d5f514494bb3861afddfc2c3c7f56d164f864736f6c634300060400334e414c4548484a534744534447484a534448535548444a5348444a53484a53484a534844534a44484a4f4e47564f",
					"opcodes": "PUSH1 0x80 PUSH1 0x40 MSTORE PUSH1 0x40 MLOAD DUP1 PUSH1 0x60 ADD PUSH1 0x40 MSTORE DUP1 PUSH1 0x2E DUP2 MSTORE PUSH1 0x20 ADD PUSH2 0x871 PUSH1 0x2E SWAP2 CODECOPY PUSH1 0x0 SWAP1 DUP1 MLOAD SWAP1 PUSH1 0x20 ADD SWAP1 PUSH2 0x32 SWAP3 SWAP2 SWAP1 PUSH2 0x69 JUMP JUMPDEST POP PUSH32 0x4C45484F4E47564F776A6E66766A3377656838764B4A00000000000000000000 PUSH1 0x1 SSTORE CALLVALUE DUP1 ISZERO PUSH2 0x63 JUMPI PUSH1 0x0 DUP1 REVERT JUMPDEST POP PUSH2 0x10E JUMP JUMPDEST DUP3 DUP1 SLOAD PUSH1 0x1 DUP2 PUSH1 0x1 AND ISZERO PUSH2 0x100 MUL SUB AND PUSH1 0x2 SWAP1 DIV SWAP1 PUSH1 0x0 MSTORE PUSH1 0x20 PUSH1 0x0 KECCAK256 SWAP1 PUSH1 0x1F ADD PUSH1 0x20 SWAP1 DIV DUP2 ADD SWAP3 DUP3 PUSH1 0x1F LT PUSH2 0xAA JUMPI DUP1 MLOAD PUSH1 0xFF NOT AND DUP4 DUP1 ADD OR DUP6 SSTORE PUSH2 0xD8 JUMP JUMPDEST DUP3 DUP1 ADD PUSH1 0x1 ADD DUP6 SSTORE DUP3 ISZERO PUSH2 0xD8 JUMPI SWAP2 DUP3 ADD JUMPDEST DUP3 DUP2 GT ISZERO PUSH2 0xD7 JUMPI DUP3 MLOAD DUP3 SSTORE SWAP2 PUSH1 0x20 ADD SWAP2 SWAP1 PUSH1 0x1 ADD SWAP1 PUSH2 0xBC JUMP JUMPDEST JUMPDEST POP SWAP1 POP PUSH2 0xE5 SWAP2 SWAP1 PUSH2 0xE9 JUMP JUMPDEST POP SWAP1 JUMP JUMPDEST PUSH2 0x10B SWAP2 SWAP1 JUMPDEST DUP1 DUP3 GT ISZERO PUSH2 0x107 JUMPI PUSH1 0x0 DUP2 PUSH1 0x0 SWAP1 SSTORE POP PUSH1 0x1 ADD PUSH2 0xEF JUMP JUMPDEST POP SWAP1 JUMP JUMPDEST SWAP1 JUMP JUMPDEST PUSH2 0x754 DUP1 PUSH2 0x11D PUSH1 0x0 CODECOPY PUSH1 0x0 RETURN INVALID PUSH1 0x80 PUSH1 0x40 MSTORE CALLVALUE DUP1 ISZERO PUSH2 0x10 JUMPI PUSH1 0x0 DUP1 REVERT JUMPDEST POP PUSH1 0x4 CALLDATASIZE LT PUSH2 0x41 JUMPI PUSH1 0x0 CALLDATALOAD PUSH1 0xE0 SHR DUP1 PUSH4 0x3BC5DE30 EQ PUSH2 0x46 JUMPI DUP1 PUSH4 0x9FFD85C4 EQ PUSH2 0xC9 JUMPI DUP1 PUSH4 0xE3A7FD75 EQ PUSH2 0x14C JUMPI JUMPDEST PUSH1 0x0 DUP1 REVERT JUMPDEST PUSH2 0x4E PUSH2 0x16A JUMP JUMPDEST PUSH1 0x40 MLOAD DUP1 DUP1 PUSH1 0x20 ADD DUP3 DUP2 SUB DUP3 MSTORE DUP4 DUP2 DUP2 MLOAD DUP2 MSTORE PUSH1 0x20 ADD SWAP2 POP DUP1 MLOAD SWAP1 PUSH1 0x20 ADD SWAP1 DUP1 DUP4 DUP4 PUSH1 0x0 JUMPDEST DUP4 DUP2 LT ISZERO PUSH2 0x8E JUMPI DUP1 DUP3 ADD MLOAD DUP2 DUP5 ADD MSTORE PUSH1 0x20 DUP2 ADD SWAP1 POP PUSH2 0x73 JUMP JUMPDEST POP POP POP POP SWAP1 POP SWAP1 DUP2 ADD SWAP1 PUSH1 0x1F AND DUP1 ISZERO PUSH2 0xBB JUMPI DUP1 DUP3 SUB DUP1 MLOAD PUSH1 0x1 DUP4 PUSH1 0x20 SUB PUSH2 0x100 EXP SUB NOT AND DUP2 MSTORE PUSH1 0x20 ADD SWAP2 POP JUMPDEST POP SWAP3 POP POP POP PUSH1 0x40 MLOAD DUP1 SWAP2 SUB SWAP1 RETURN JUMPDEST PUSH2 0xD1 PUSH2 0x25B JUMP JUMPDEST PUSH1 0x40 MLOAD DUP1 DUP1 PUSH1 0x20 ADD DUP3 DUP2 SUB DUP3 MSTORE DUP4 DUP2 DUP2 MLOAD DUP2 MSTORE PUSH1 0x20 ADD SWAP2 POP DUP1 MLOAD SWAP1 PUSH1 0x20 ADD SWAP1 DUP1 DUP4 DUP4 PUSH1 0x0 JUMPDEST DUP4 DUP2 LT ISZERO PUSH2 0x111 JUMPI DUP1 DUP3 ADD MLOAD DUP2 DUP5 ADD MSTORE PUSH1 0x20 DUP2 ADD SWAP1 POP PUSH2 0xF6 JUMP JUMPDEST POP POP POP POP SWAP1 POP SWAP1 DUP2 ADD SWAP1 PUSH1 0x1F AND DUP1 ISZERO PUSH2 0x13E JUMPI DUP1 DUP3 SUB DUP1 MLOAD PUSH1 0x1 DUP4 PUSH1 0x20 SUB PUSH2 0x100 EXP SUB NOT AND DUP2 MSTORE PUSH1 0x20 ADD SWAP2 POP JUMPDEST POP SWAP3 POP POP POP PUSH1 0x40 MLOAD DUP1 SWAP2 SUB SWAP1 RETURN JUMPDEST PUSH2 0x154 PUSH2 0x2F9 JUMP JUMPDEST PUSH1 0x40 MLOAD DUP1 DUP3 DUP2 MSTORE PUSH1 0x20 ADD SWAP2 POP POP PUSH1 0x40 MLOAD DUP1 SWAP2 SUB SWAP1 RETURN JUMPDEST PUSH1 0x60 PUSH2 0x256 PUSH1 0x2 DUP1 SLOAD DUP1 PUSH1 0x20 MUL PUSH1 0x20 ADD PUSH1 0x40 MLOAD SWAP1 DUP2 ADD PUSH1 0x40 MSTORE DUP1 SWAP3 SWAP2 SWAP1 DUP2 DUP2 MSTORE PUSH1 0x20 ADD PUSH1 0x0 SWAP1 JUMPDEST DUP3 DUP3 LT ISZERO PUSH2 0x24D JUMPI DUP4 DUP3 SWAP1 PUSH1 0x0 MSTORE PUSH1 0x20 PUSH1 0x0 KECCAK256 ADD DUP1 SLOAD PUSH1 0x1 DUP2 PUSH1 0x1 AND ISZERO PUSH2 0x100 MUL SUB AND PUSH1 0x2 SWAP1 DIV DUP1 PUSH1 0x1F ADD PUSH1 0x20 DUP1 SWAP2 DIV MUL PUSH1 0x20 ADD PUSH1 0x40 MLOAD SWAP1 DUP2 ADD PUSH1 0x40 MSTORE DUP1 SWAP3 SWAP2 SWAP1 DUP2 DUP2 MSTORE PUSH1 0x20 ADD DUP3 DUP1 SLOAD PUSH1 0x1 DUP2 PUSH1 0x1 AND ISZERO PUSH2 0x100 MUL SUB AND PUSH1 0x2 SWAP1 DIV DUP1 ISZERO PUSH2 0x239 JUMPI DUP1 PUSH1 0x1F LT PUSH2 0x20E JUMPI PUSH2 0x100 DUP1 DUP4 SLOAD DIV MUL DUP4 MSTORE SWAP2 PUSH1 0x20 ADD SWAP2 PUSH2 0x239 JUMP JUMPDEST DUP3 ADD SWAP2 SWAP1 PUSH1 0x0 MSTORE PUSH1 0x20 PUSH1 0x0 KECCAK256 SWAP1 JUMPDEST DUP2 SLOAD DUP2 MSTORE SWAP1 PUSH1 0x1 ADD SWAP1 PUSH1 0x20 ADD DUP1 DUP4 GT PUSH2 0x21C JUMPI DUP3 SWAP1 SUB PUSH1 0x1F AND DUP3 ADD SWAP2 JUMPDEST POP POP POP POP POP DUP2 MSTORE PUSH1 0x20 ADD SWAP1 PUSH1 0x1 ADD SWAP1 PUSH2 0x191 JUMP JUMPDEST POP POP POP POP PUSH2 0x2FF JUMP JUMPDEST SWAP1 POP SWAP1 JUMP JUMPDEST PUSH1 0x0 DUP1 SLOAD PUSH1 0x1 DUP2 PUSH1 0x1 AND ISZERO PUSH2 0x100 MUL SUB AND PUSH1 0x2 SWAP1 DIV DUP1 PUSH1 0x1F ADD PUSH1 0x20 DUP1 SWAP2 DIV MUL PUSH1 0x20 ADD PUSH1 0x40 MLOAD SWAP1 DUP2 ADD PUSH1 0x40 MSTORE DUP1 SWAP3 SWAP2 SWAP1 DUP2 DUP2 MSTORE PUSH1 0x20 ADD DUP3 DUP1 SLOAD PUSH1 0x1 DUP2 PUSH1 0x1 AND ISZERO PUSH2 0x100 MUL SUB AND PUSH1 0x2 SWAP1 DIV DUP1 ISZERO PUSH2 0x2F1 JUMPI DUP1 PUSH1 0x1F LT PUSH2 0x2C6 JUMPI PUSH2 0x100 DUP1 DUP4 SLOAD DIV MUL DUP4 MSTORE SWAP2 PUSH1 0x20 ADD SWAP2 PUSH2 0x2F1 JUMP JUMPDEST DUP3 ADD SWAP2 SWAP1 PUSH1 0x0 MSTORE PUSH1 0x20 PUSH1 0x0 KECCAK256 SWAP1 JUMPDEST DUP2 SLOAD DUP2 MSTORE SWAP1 PUSH1 0x1 ADD SWAP1 PUSH1 0x20 ADD DUP1 DUP4 GT PUSH2 0x2D4 JUMPI DUP3 SWAP1 SUB PUSH1 0x1F AND DUP3 ADD SWAP2 JUMPDEST POP POP POP POP POP DUP2 JUMP JUMPDEST PUSH1 0x1 SLOAD DUP2 JUMP JUMPDEST PUSH1 0x60 PUSH1 0x0 DUP3 MLOAD EQ ISZERO PUSH2 0x347 JUMPI PUSH1 0x0 PUSH1 0x40 MLOAD SWAP1 DUP1 DUP3 MSTORE DUP1 PUSH1 0x1F ADD PUSH1 0x1F NOT AND PUSH1 0x20 ADD DUP3 ADD PUSH1 0x40 MSTORE DUP1 ISZERO PUSH2 0x33F JUMPI DUP2 PUSH1 0x20 ADD PUSH1 0x1 DUP3 MUL DUP1 CALLDATASIZE DUP4 CALLDATACOPY DUP1 DUP3 ADD SWAP2 POP POP SWAP1 POP JUMPDEST POP SWAP1 POP PUSH2 0x3B9 JUMP JUMPDEST PUSH1 0x60 DUP3 PUSH1 0x0 DUP2 MLOAD DUP2 LT PUSH2 0x356 JUMPI INVALID JUMPDEST PUSH1 0x20 MUL PUSH1 0x20 ADD ADD MLOAD SWAP1 POP PUSH1 0x0 PUSH1 0x1 SWAP1 POP JUMPDEST DUP4 MLOAD DUP2 LT ISZERO PUSH2 0x39C JUMPI PUSH2 0x38D DUP3 DUP6 DUP4 DUP2 MLOAD DUP2 LT PUSH2 0x380 JUMPI INVALID JUMPDEST PUSH1 0x20 MUL PUSH1 0x20 ADD ADD MLOAD PUSH2 0x3BE JUMP JUMPDEST SWAP2 POP DUP1 DUP1 PUSH1 0x1 ADD SWAP2 POP POP PUSH2 0x367 JUMP JUMPDEST POP PUSH2 0x3B5 PUSH2 0x3AF DUP3 MLOAD PUSH1 0xC0 PUSH1 0xFF AND PUSH2 0x448 JUMP JUMPDEST DUP3 PUSH2 0x3BE JUMP JUMPDEST SWAP2 POP POP JUMPDEST SWAP2 SWAP1 POP JUMP JUMPDEST PUSH1 0x60 DUP1 PUSH1 0x40 MLOAD SWAP1 POP DUP4 MLOAD DUP1 DUP3 MSTORE PUSH1 0x20 DUP3 ADD DUP2 DUP2 ADD PUSH1 0x20 DUP8 ADD JUMPDEST DUP2 DUP4 LT ISZERO PUSH2 0x3F4 JUMPI DUP1 MLOAD DUP4 MSTORE PUSH1 0x20 DUP4 ADD SWAP3 POP PUSH1 0x20 DUP2 ADD SWAP1 POP PUSH2 0x3D7 JUMP JUMPDEST POP DUP6 MLOAD SWAP3 POP DUP4 MLOAD DUP4 ADD DUP5 MSTORE DUP1 SWAP2 POP DUP3 DUP3 ADD SWAP1 POP PUSH1 0x20 DUP7 ADD JUMPDEST DUP2 DUP4 LT ISZERO PUSH2 0x429 JUMPI DUP1 MLOAD DUP4 MSTORE PUSH1 0x20 DUP4 ADD SWAP3 POP PUSH1 0x20 DUP2 ADD SWAP1 POP PUSH2 0x40C JUMP JUMPDEST POP PUSH1 0x1F NOT PUSH1 0x1F DUP9 MLOAD DUP6 ADD ISZERO DUP4 ADD ADD AND PUSH1 0x40 MSTORE POP POP POP DUP1 SWAP2 POP POP SWAP3 SWAP2 POP POP JUMP JUMPDEST PUSH1 0x60 PUSH9 0x10000000000000000 DUP4 LT PUSH2 0x4C8 JUMPI PUSH1 0x40 MLOAD PUSH32 0x8C379A000000000000000000000000000000000000000000000000000000000 DUP2 MSTORE PUSH1 0x4 ADD DUP1 DUP1 PUSH1 0x20 ADD DUP3 DUP2 SUB DUP3 MSTORE PUSH1 0xE DUP2 MSTORE PUSH1 0x20 ADD DUP1 PUSH32 0x696E70757420746F6F206C6F6E67000000000000000000000000000000000000 DUP2 MSTORE POP PUSH1 0x20 ADD SWAP2 POP POP PUSH1 0x40 MLOAD DUP1 SWAP2 SUB SWAP1 REVERT JUMPDEST PUSH1 0x60 PUSH1 0x1 PUSH1 0x40 MLOAD SWAP1 DUP1 DUP3 MSTORE DUP1 PUSH1 0x1F ADD PUSH1 0x1F NOT AND PUSH1 0x20 ADD DUP3 ADD PUSH1 0x40 MSTORE DUP1 ISZERO PUSH2 0x4FE JUMPI DUP2 PUSH1 0x20 ADD PUSH1 0x1 DUP3 MUL DUP1 CALLDATASIZE DUP4 CALLDATACOPY DUP1 DUP3 ADD SWAP2 POP POP SWAP1 POP JUMPDEST POP SWAP1 POP PUSH1 0x37 DUP5 GT PUSH2 0x554 JUMPI DUP3 DUP5 ADD PUSH1 0xF8 SHL DUP2 PUSH1 0x0 DUP2 MLOAD DUP2 LT PUSH2 0x51C JUMPI INVALID JUMPDEST PUSH1 0x20 ADD ADD SWAP1 PUSH31 0xFFFFFFFFFFFFFFFFFFFFFFFFFFFFFFFFFFFFFFFFFFFFFFFFFFFFFFFFFFFFFF NOT AND SWAP1 DUP2 PUSH1 0x0 BYTE SWAP1 MSTORE8 POP DUP1 SWAP2 POP POP PUSH2 0x5B6 JUMP JUMPDEST PUSH1 0x60 PUSH2 0x55F DUP6 PUSH2 0x5BC JUMP JUMPDEST SWAP1 POP PUSH1 0x37 DUP5 DUP3 MLOAD ADD ADD PUSH1 0xF8 SHL DUP3 PUSH1 0x0 DUP2 MLOAD DUP2 LT PUSH2 0x578 JUMPI INVALID JUMPDEST PUSH1 0x20 ADD ADD SWAP1 PUSH31 0xFFFFFFFFFFFFFFFFFFFFFFFFFFFFFFFFFFFFFFFFFFFFFFFFFFFFFFFFFFFFFF NOT AND SWAP1 DUP2 PUSH1 0x0 BYTE SWAP1 MSTORE8 POP PUSH2 0x5B1 DUP3 DUP3 PUSH2 0x3BE JUMP JUMPDEST SWAP3 POP POP POP JUMPDEST SWAP3 SWAP2 POP POP JUMP JUMPDEST PUSH1 0x60 DUP1 PUSH1 0x20 PUSH1 0x40 MLOAD SWAP1 DUP1 DUP3 MSTORE DUP1 PUSH1 0x1F ADD PUSH1 0x1F NOT AND PUSH1 0x20 ADD DUP3 ADD PUSH1 0x40 MSTORE DUP1 ISZERO PUSH2 0x5F3 JUMPI DUP2 PUSH1 0x20 ADD PUSH1 0x1 DUP3 MUL DUP1 CALLDATASIZE DUP4 CALLDATACOPY DUP1 DUP3 ADD SWAP2 POP POP SWAP1 POP JUMPDEST POP SWAP1 POP DUP3 PUSH1 0x20 DUP3 ADD MSTORE PUSH1 0x0 DUP1 PUSH32 0xFFFFFFFFFFFFFFFFFFFFFFFFFFFFFFFFFFFFFFFFFFFFFFFF0000000000000000 DUP6 AND EQ ISZERO PUSH2 0x631 JUMPI PUSH1 0x18 SWAP1 POP PUSH2 0x66B JUMP JUMPDEST PUSH1 0x0 PUSH32 0xFFFFFFFFFFFFFFFFFFFFFFFFFFFFFFFF00000000000000000000000000000000 DUP6 AND EQ ISZERO PUSH2 0x665 JUMPI PUSH1 0x10 SWAP1 POP PUSH2 0x66A JUMP JUMPDEST PUSH1 0x0 SWAP1 POP JUMPDEST JUMPDEST JUMPDEST PUSH1 0x20 DUP2 LT ISZERO PUSH2 0x6CA JUMPI PUSH1 0x0 PUSH1 0xF8 SHL DUP3 DUP3 DUP2 MLOAD DUP2 LT PUSH2 0x686 JUMPI INVALID JUMPDEST PUSH1 0x20 ADD ADD MLOAD PUSH1 0xF8 SHR PUSH1 0xF8 SHL PUSH31 0xFFFFFFFFFFFFFFFFFFFFFFFFFFFFFFFFFFFFFFFFFFFFFFFFFFFFFFFFFFFFFF NOT AND EQ PUSH2 0x6BD JUMPI PUSH2 0x6CA JUMP JUMPDEST DUP1 DUP1 PUSH1 0x1 ADD SWAP2 POP POP PUSH2 0x66C JUMP JUMPDEST PUSH1 0x0 DUP2 PUSH1 0x20 SUB SWAP1 POP PUSH1 0x60 DUP2 PUSH1 0x40 MLOAD SWAP1 DUP1 DUP3 MSTORE DUP1 PUSH1 0x1F ADD PUSH1 0x1F NOT AND PUSH1 0x20 ADD DUP3 ADD PUSH1 0x40 MSTORE DUP1 ISZERO PUSH2 0x707 JUMPI DUP2 PUSH1 0x20 ADD PUSH1 0x1 DUP3 MUL DUP1 CALLDATASIZE DUP4 CALLDATACOPY DUP1 DUP3 ADD SWAP2 POP POP SWAP1 POP JUMPDEST POP SWAP1 POP DUP6 DUP3 DUP3 ADD MSTORE DUP2 DUP2 MSTORE DUP1 SWAP5 POP POP POP POP POP SWAP2 SWAP1 POP JUMP INVALID LOG2 PUSH5 0x6970667358 0x22 SLT KECCAK256 0xFB 0xB8 PC 0xC8 PUSH6 0x92A818206E52 BYTE PUSH18 0x2F0D5F514494BB3861AFDDFC2C3C7F56D164 0xF8 PUSH5 0x736F6C6343 STOP MOD DIV STOP CALLER 0x4E COINBASE 0x4C GASLIMIT 0x48 0x48 0x4A MSTORE8 SELFBALANCE DIFFICULTY MSTORE8 DIFFICULTY SELFBALANCE 0x48 0x4A MSTORE8 DIFFICULTY 0x48 MSTORE8 SSTORE 0x48 DIFFICULTY 0x4A MSTORE8 0x48 DIFFICULTY 0x4A MSTORE8 0x48 0x4A MSTORE8 0x48 0x4A MSTORE8 0x48 DIFFICULTY MSTORE8 0x4A DIFFICULTY 0x48 0x4A 0x4F 0x4E SELFBALANCE JUMP 0x4F "
				},
				"gasEstimates": {
					"creation": {
						"codeDepositCost": "375200",
						"executionCost": "infinite",
						"totalCost": "infinite"
					},
					"external": {
						"data1()": "infinite",
						"data2()": "1027",
						"getData()": "infinite"
					},
					"internal": {
						"encodeLength(uint256,uint256)": "infinite",
						"encodeList(bytes memory[] memory)": "infinite",
						"mergeBytes(bytes memory,bytes memory)": "infinite",
						"toBinary(uint256)": "infinite"
					}
				},
				"methodIdentifiers": {
					"data1()": "9ffd85c4",
					"data2()": "e3a7fd75",
					"getData()": "3bc5de30"
				}
			},
			"userdoc": {
				"methods": {}
			}
		}
	}
}