{
	"contracts/demo2.sol": {
		"demo2": {
			"abi": [
				{
					"inputs": [
						{
							"internalType": "uint256",
							"name": "_len",
							"type": "uint256"
						},
						{
							"internalType": "uint256",
							"name": "_menPtr",
							"type": "uint256"
						}
					],
					"stateMutability": "nonpayable",
					"type": "constructor"
				},
				{
					"inputs": [],
					"name": "data1",
					"outputs": [
						{
							"internalType": "bytes",
							"name": "",
							"type": "bytes"
						}
					],
					"stateMutability": "view",
					"type": "function"
				},
				{
					"inputs": [],
					"name": "data2",
					"outputs": [
						{
							"internalType": "bytes32",
							"name": "",
							"type": "bytes32"
						}
					],
					"stateMutability": "view",
					"type": "function"
				},
				{
					"inputs": [],
					"name": "data3",
					"outputs": [
						{
							"internalType": "bytes",
							"name": "",
							"type": "bytes"
						}
					],
					"stateMutability": "view",
					"type": "function"
				},
				{
					"inputs": [
						{
							"internalType": "uint256",
							"name": "memPtr",
							"type": "uint256"
						}
					],
					"name": "getData",
					"outputs": [
						{
							"internalType": "uint256",
							"name": "",
							"type": "uint256"
						}
					],
					"stateMutability": "view",
					"type": "function"
				},
				{
					"inputs": [],
					"name": "rlpItem",
					"outputs": [
						{
							"internalType": "uint256",
							"name": "len",
							"type": "uint256"
						},
						{
							"internalType": "uint256",
							"name": "memPtr",
							"type": "uint256"
						}
					],
					"stateMutability": "view",
					"type": "function"
				}
			],
			"devdoc": {
				"methods": {}
			},
			"evm": {
				"assembly": "    /* \"contracts/demo2.sol\":81:4791  contract demo2 {\r... */\n  mstore(0x40, 0x80)\n    /* \"contracts/demo2.sol\":107:176  bytes public data1 = \"NALEHHJSGDSDGHJSDHSUHDJSHDJSHJSHJSHDSJDHJONGVO\" */\n  mload(0x40)\n  dup1\n  0x60\n  add\n  0x40\n  mstore\n  dup1\n  0x2e\n  dup2\n  mstore\n  0x20\n  add\n  data_4887836e294a2761413359597244d307bbe3f94827f6160d9e1a399e00e2d1be\n  0x2e\n  swap2\n  codecopy\n  0x00\n  swap1\n  dup1\n  mload\n  swap1\n  0x20\n  add\n  swap1\n  tag_1\n  swap3\n  swap2\n  swap1\n  tag_2\n  jump\t// in\ntag_1:\n  pop\n    /* \"contracts/demo2.sol\":187:252  bytes public data3 = \"sdfNAsdfsdfLEHHJSGDSHDJSHJSHJSHDSJDHJONGVO\" */\n  mload(0x40)\n  dup1\n  0x60\n  add\n  0x40\n  mstore\n  dup1\n  0x2a\n  dup2\n  mstore\n  0x20\n  add\n  data_c359735a342ece061e65ab7390d246d1e53ba5f24eea70d6201f1d4a7b2f3475\n  0x2a\n  swap2\n  codecopy\n  0x01\n  swap1\n  dup1\n  mload\n  swap1\n  0x20\n  add\n  swap1\n  tag_3\n  swap3\n  swap2\n  swap1\n  tag_2\n  jump\t// in\ntag_3:\n  pop\n    /* \"contracts/demo2.sol\":263:310  bytes32 public data2 = \"LEHONGVOwjnfvj3weh8vKJ\" */\n  sstore(0x02, 0x4c45484f4e47564f776a6e66766a3377656838764b4a00000000000000000000)\n    /* \"contracts/demo2.sol\":964:1092  constructor(uint _len, uint _menPtr) public {\r... */\n  callvalue\n    /* \"--CODEGEN--\":5:14   */\n  dup1\n    /* \"--CODEGEN--\":2:4   */\n  iszero\n  tag_4\n  jumpi\n    /* \"--CODEGEN--\":27:28   */\n  0x00\n    /* \"--CODEGEN--\":24:25   */\n  dup1\n    /* \"--CODEGEN--\":17:29   */\n  revert\n    /* \"--CODEGEN--\":2:4   */\ntag_4:\n    /* \"contracts/demo2.sol\":964:1092  constructor(uint _len, uint _menPtr) public {\r... */\n  pop\n  mload(0x40)\n  sub(codesize, bytecodeSize)\n  dup1\n  bytecodeSize\n  dup4\n  codecopy\n  dup2\n  dup2\n  add\n  0x40\n  mstore\n  dup2\n  add\n  swap1\n  tag_5\n  swap2\n  swap1\n  jump(tag_6)\ntag_5:\n    /* \"contracts/demo2.sol\":1037:1041  _len */\n  dup2\n    /* \"contracts/demo2.sol\":1023:1030  rlpItem */\n  0x03\n    /* \"contracts/demo2.sol\":1023:1034  rlpItem.len */\n  0x00\n  add\n    /* \"contracts/demo2.sol\":1023:1041  rlpItem.len = _len */\n  dup2\n  swap1\n  sstore\n  pop\n    /* \"contracts/demo2.sol\":1073:1080  _menPtr */\n  dup1\n    /* \"contracts/demo2.sol\":1056:1063  rlpItem */\n  0x03\n    /* \"contracts/demo2.sol\":1056:1070  rlpItem.memPtr */\n  0x01\n  add\n    /* \"contracts/demo2.sol\":1056:1080  rlpItem.memPtr = _menPtr */\n  dup2\n  swap1\n  sstore\n  pop\n    /* \"contracts/demo2.sol\":964:1092  constructor(uint _len, uint _menPtr) public {\r... */\n  pop\n  pop\n    /* \"contracts/demo2.sol\":81:4791  contract demo2 {\r... */\n  jump(tag_9)\ntag_2:\n  dup3\n  dup1\n  sload\n  0x01\n  dup2\n  0x01\n  and\n  iszero\n  0x0100\n  mul\n  sub\n  and\n  0x02\n  swap1\n  div\n  swap1\n  0x00\n  mstore\n  keccak256(0x00, 0x20)\n  swap1\n  0x1f\n  add\n  0x20\n  swap1\n  div\n  dup2\n  add\n  swap3\n  dup3\n  0x1f\n  lt\n  tag_11\n  jumpi\n  dup1\n  mload\n  not(0xff)\n  and\n  dup4\n  dup1\n  add\n  or\n  dup6\n  sstore\n  jump(tag_10)\ntag_11:\n  dup3\n  dup1\n  add\n  0x01\n  add\n  dup6\n  sstore\n  dup3\n  iszero\n  tag_10\n  jumpi\n  swap2\n  dup3\n  add\ntag_12:\n  dup3\n  dup2\n  gt\n  iszero\n  tag_13\n  jumpi\n  dup3\n  mload\n  dup3\n  sstore\n  swap2\n  0x20\n  add\n  swap2\n  swap1\n  0x01\n  add\n  swap1\n  jump(tag_12)\ntag_13:\ntag_10:\n  pop\n  swap1\n  pop\n  tag_14\n  swap2\n  swap1\n  tag_15\n  jump\t// in\ntag_14:\n  pop\n  swap1\n  jump\t// out\ntag_15:\n  tag_16\n  swap2\n  swap1\ntag_17:\n  dup1\n  dup3\n  gt\n  iszero\n  tag_18\n  jumpi\n  0x00\n  dup2\n  0x00\n  swap1\n  sstore\n  pop\n  0x01\n  add\n  jump(tag_17)\ntag_18:\n  pop\n  swap1\n  jump\ntag_16:\n  swap1\n  jump\t// out\n    /* \"--CODEGEN--\":5:139   */\ntag_20:\n  0x00\n    /* \"--CODEGEN--\":89:95   */\n  dup2\n    /* \"--CODEGEN--\":83:96   */\n  mload\n    /* \"--CODEGEN--\":74:96   */\n  swap1\n  pop\n    /* \"--CODEGEN--\":101:134   */\n  tag_22\n    /* \"--CODEGEN--\":128:133   */\n  dup2\n    /* \"--CODEGEN--\":101:134   */\n  jump(tag_23)\ntag_22:\n    /* \"--CODEGEN--\":68:139   */\n  swap3\n  swap2\n  pop\n  pop\n  jump\n    /* \"--CODEGEN--\":146:545   */\ntag_6:\n  0x00\n  dup1\n    /* \"--CODEGEN--\":278:280   */\n  0x40\n    /* \"--CODEGEN--\":266:275   */\n  dup4\n    /* \"--CODEGEN--\":257:264   */\n  dup6\n    /* \"--CODEGEN--\":253:276   */\n  sub\n    /* \"--CODEGEN--\":249:281   */\n  slt\n    /* \"--CODEGEN--\":246:248   */\n  iszero\n  tag_25\n  jumpi\n    /* \"--CODEGEN--\":294:295   */\n  0x00\n    /* \"--CODEGEN--\":291:292   */\n  dup1\n    /* \"--CODEGEN--\":284:296   */\n  revert\n    /* \"--CODEGEN--\":246:248   */\ntag_25:\n    /* \"--CODEGEN--\":329:330   */\n  0x00\n    /* \"--CODEGEN--\":346:410   */\n  tag_26\n    /* \"--CODEGEN--\":402:409   */\n  dup6\n    /* \"--CODEGEN--\":393:399   */\n  dup3\n    /* \"--CODEGEN--\":382:391   */\n  dup7\n    /* \"--CODEGEN--\":378:400   */\n  add\n    /* \"--CODEGEN--\":346:410   */\n  jump(tag_20)\ntag_26:\n    /* \"--CODEGEN--\":336:410   */\n  swap3\n  pop\n    /* \"--CODEGEN--\":308:416   */\n  pop\n    /* \"--CODEGEN--\":447:449   */\n  0x20\n    /* \"--CODEGEN--\":465:529   */\n  tag_27\n    /* \"--CODEGEN--\":521:528   */\n  dup6\n    /* \"--CODEGEN--\":512:518   */\n  dup3\n    /* \"--CODEGEN--\":501:510   */\n  dup7\n    /* \"--CODEGEN--\":497:519   */\n  add\n    /* \"--CODEGEN--\":465:529   */\n  jump(tag_20)\ntag_27:\n    /* \"--CODEGEN--\":455:529   */\n  swap2\n  pop\n    /* \"--CODEGEN--\":426:535   */\n  pop\n    /* \"--CODEGEN--\":240:545   */\n  swap3\n  pop\n  swap3\n  swap1\n  pop\n  jump\n    /* \"--CODEGEN--\":552:624   */\ntag_28:\n  0x00\n    /* \"--CODEGEN--\":614:619   */\n  dup2\n    /* \"--CODEGEN--\":603:619   */\n  swap1\n  pop\n    /* \"--CODEGEN--\":597:624   */\n  swap2\n  swap1\n  pop\n  jump\n    /* \"--CODEGEN--\":631:748   */\ntag_23:\n    /* \"--CODEGEN--\":700:724   */\n  tag_31\n    /* \"--CODEGEN--\":718:723   */\n  dup2\n    /* \"--CODEGEN--\":700:724   */\n  jump(tag_28)\ntag_31:\n    /* \"--CODEGEN--\":693:698   */\n  dup2\n    /* \"--CODEGEN--\":690:725   */\n  eq\n    /* \"--CODEGEN--\":680:682   */\n  tag_32\n  jumpi\n    /* \"--CODEGEN--\":739:740   */\n  0x00\n    /* \"--CODEGEN--\":736:737   */\n  dup1\n    /* \"--CODEGEN--\":729:741   */\n  revert\n    /* \"--CODEGEN--\":680:682   */\ntag_32:\n    /* \"--CODEGEN--\":674:748   */\n  pop\n  jump\n    /* \"contracts/demo2.sol\":81:4791  contract demo2 {\r... */\ntag_9:\n  dataSize(sub_0)\n  dup1\n  dataOffset(sub_0)\n  0x00\n  codecopy\n  0x00\n  return\nstop\ndata_4887836e294a2761413359597244d307bbe3f94827f6160d9e1a399e00e2d1be 4e414c4548484a534744534447484a534448535548444a5348444a53484a53484a534844534a44484a4f4e47564f\ndata_c359735a342ece061e65ab7390d246d1e53ba5f24eea70d6201f1d4a7b2f3475 7364664e417364667364664c4548484a5347445348444a53484a53484a534844534a44484a4f4e47564f\n\nsub_0: assembly {\n        /* \"contracts/demo2.sol\":81:4791  contract demo2 {\r... */\n      mstore(0x40, 0x80)\n      callvalue\n        /* \"--CODEGEN--\":5:14   */\n      dup1\n        /* \"--CODEGEN--\":2:4   */\n      iszero\n      tag_1\n      jumpi\n        /* \"--CODEGEN--\":27:28   */\n      0x00\n        /* \"--CODEGEN--\":24:25   */\n      dup1\n        /* \"--CODEGEN--\":17:29   */\n      revert\n        /* \"--CODEGEN--\":2:4   */\n    tag_1:\n        /* \"contracts/demo2.sol\":81:4791  contract demo2 {\r... */\n      pop\n      jumpi(tag_2, lt(calldatasize, 0x04))\n      shr(0xe0, calldataload(0x00))\n      dup1\n      0x0178fe3f\n      eq\n      tag_3\n      jumpi\n      dup1\n      0x9ffd85c4\n      eq\n      tag_4\n      jumpi\n      dup1\n      0xa699fb03\n      eq\n      tag_5\n      jumpi\n      dup1\n      0xe3a7fd75\n      eq\n      tag_6\n      jumpi\n      dup1\n      0xfc26b0ab\n      eq\n      tag_7\n      jumpi\n    tag_2:\n        /* \"--CODEGEN--\":12:13   */\n      0x00\n        /* \"--CODEGEN--\":9:10   */\n      dup1\n        /* \"--CODEGEN--\":2:14   */\n      revert\n        /* \"contracts/demo2.sol\":1104:1213  function getData(uint memPtr) public view returns(uint) {\r... */\n    tag_3:\n      tag_8\n      0x04\n      dup1\n      calldatasize\n      sub\n      dup2\n      add\n      swap1\n      tag_9\n      swap2\n      swap1\n      jump(tag_10)\n    tag_9:\n      tag_11\n      jump\t// in\n    tag_8:\n      mload(0x40)\n      tag_12\n      swap2\n      swap1\n      jump(tag_13)\n    tag_12:\n      mload(0x40)\n      dup1\n      swap2\n      sub\n      swap1\n      return\n        /* \"contracts/demo2.sol\":107:176  bytes public data1 = \"NALEHHJSGDSDGHJSDHSUHDJSHDJSHJSHJSHDSJDHJONGVO\" */\n    tag_4:\n      tag_14\n      tag_15\n      jump\t// in\n    tag_14:\n      mload(0x40)\n      tag_16\n      swap2\n      swap1\n      jump(tag_17)\n    tag_16:\n      mload(0x40)\n      dup1\n      swap2\n      sub\n      swap1\n      return\n        /* \"contracts/demo2.sol\":929:951  RLPItem public rlpItem */\n    tag_5:\n      tag_18\n      tag_19\n      jump\t// in\n    tag_18:\n      mload(0x40)\n      tag_20\n      swap3\n      swap2\n      swap1\n      jump(tag_21)\n    tag_20:\n      mload(0x40)\n      dup1\n      swap2\n      sub\n      swap1\n      return\n        /* \"contracts/demo2.sol\":263:310  bytes32 public data2 = \"LEHONGVOwjnfvj3weh8vKJ\" */\n    tag_6:\n      tag_22\n      tag_23\n      jump\t// in\n    tag_22:\n      mload(0x40)\n      tag_24\n      swap2\n      swap1\n      jump(tag_25)\n    tag_24:\n      mload(0x40)\n      dup1\n      swap2\n      sub\n      swap1\n      return\n        /* \"contracts/demo2.sol\":187:252  bytes public data3 = \"sdfNAsdfsdfLEHHJSGDSHDJSHJSHJSHDSJDHJONGVO\" */\n    tag_7:\n      tag_26\n      tag_27\n      jump\t// in\n    tag_26:\n      mload(0x40)\n      tag_28\n      swap2\n      swap1\n      jump(tag_17)\n    tag_28:\n      mload(0x40)\n      dup1\n      swap2\n      sub\n      swap1\n      return\n        /* \"contracts/demo2.sol\":1104:1213  function getData(uint memPtr) public view returns(uint) {\r... */\n    tag_11:\n        /* \"contracts/demo2.sol\":1154:1158  uint */\n      0x00\n        /* \"contracts/demo2.sol\":1182:1201  _itemLength(memPtr) */\n      tag_30\n        /* \"contracts/demo2.sol\":1194:1200  memPtr */\n      dup3\n        /* \"contracts/demo2.sol\":1182:1193  _itemLength */\n      tag_31\n        /* \"contracts/demo2.sol\":1182:1201  _itemLength(memPtr) */\n      jump\t// in\n    tag_30:\n        /* \"contracts/demo2.sol\":1175:1201  return _itemLength(memPtr) */\n      swap1\n      pop\n        /* \"contracts/demo2.sol\":1104:1213  function getData(uint memPtr) public view returns(uint) {\r... */\n      swap2\n      swap1\n      pop\n      jump\t// out\n        /* \"contracts/demo2.sol\":107:176  bytes public data1 = \"NALEHHJSGDSDGHJSDHSUHDJSHDJSHJSHJSHDSJDHJONGVO\" */\n    tag_15:\n      0x00\n      dup1\n      sload\n      0x01\n      dup2\n      0x01\n      and\n      iszero\n      0x0100\n      mul\n      sub\n      and\n      0x02\n      swap1\n      div\n      dup1\n      0x1f\n      add\n      0x20\n      dup1\n      swap2\n      div\n      mul\n      0x20\n      add\n      mload(0x40)\n      swap1\n      dup2\n      add\n      0x40\n      mstore\n      dup1\n      swap3\n      swap2\n      swap1\n      dup2\n      dup2\n      mstore\n      0x20\n      add\n      dup3\n      dup1\n      sload\n      0x01\n      dup2\n      0x01\n      and\n      iszero\n      0x0100\n      mul\n      sub\n      and\n      0x02\n      swap1\n      div\n      dup1\n      iszero\n      tag_32\n      jumpi\n      dup1\n      0x1f\n      lt\n      tag_33\n      jumpi\n      0x0100\n      dup1\n      dup4\n      sload\n      div\n      mul\n      dup4\n      mstore\n      swap2\n      0x20\n      add\n      swap2\n      jump(tag_32)\n    tag_33:\n      dup3\n      add\n      swap2\n      swap1\n      0x00\n      mstore\n      keccak256(0x00, 0x20)\n      swap1\n    tag_34:\n      dup2\n      sload\n      dup2\n      mstore\n      swap1\n      0x01\n      add\n      swap1\n      0x20\n      add\n      dup1\n      dup4\n      gt\n      tag_34\n      jumpi\n      dup3\n      swap1\n      sub\n      0x1f\n      and\n      dup3\n      add\n      swap2\n    tag_32:\n      pop\n      pop\n      pop\n      pop\n      pop\n      dup2\n      jump\t// out\n        /* \"contracts/demo2.sol\":929:951  RLPItem public rlpItem */\n    tag_19:\n      0x03\n      dup1\n      0x00\n      add\n      sload\n      swap1\n      dup1\n      0x01\n      add\n      sload\n      swap1\n      pop\n      dup3\n      jump\t// out\n        /* \"contracts/demo2.sol\":263:310  bytes32 public data2 = \"LEHONGVOwjnfvj3weh8vKJ\" */\n    tag_23:\n      sload(0x02)\n      dup2\n      jump\t// out\n        /* \"contracts/demo2.sol\":187:252  bytes public data3 = \"sdfNAsdfsdfLEHHJSGDSHDJSHJSHJSHDSJDHJONGVO\" */\n    tag_27:\n      0x01\n      dup1\n      sload\n      0x01\n      dup2\n      0x01\n      and\n      iszero\n      0x0100\n      mul\n      sub\n      and\n      0x02\n      swap1\n      div\n      dup1\n      0x1f\n      add\n      0x20\n      dup1\n      swap2\n      div\n      mul\n      0x20\n      add\n      mload(0x40)\n      swap1\n      dup2\n      add\n      0x40\n      mstore\n      dup1\n      swap3\n      swap2\n      swap1\n      dup2\n      dup2\n      mstore\n      0x20\n      add\n      dup3\n      dup1\n      sload\n      0x01\n      dup2\n      0x01\n      and\n      iszero\n      0x0100\n      mul\n      sub\n      and\n      0x02\n      swap1\n      div\n      dup1\n      iszero\n      tag_35\n      jumpi\n      dup1\n      0x1f\n      lt\n      tag_36\n      jumpi\n      0x0100\n      dup1\n      dup4\n      sload\n      div\n      mul\n      dup4\n      mstore\n      swap2\n      0x20\n      add\n      swap2\n      jump(tag_35)\n    tag_36:\n      dup3\n      add\n      swap2\n      swap1\n      0x00\n      mstore\n      keccak256(0x00, 0x20)\n      swap1\n    tag_37:\n      dup2\n      sload\n      dup2\n      mstore\n      swap1\n      0x01\n      add\n      swap1\n      0x20\n      add\n      dup1\n      dup4\n      gt\n      tag_37\n      jumpi\n      dup3\n      swap1\n      sub\n      0x1f\n      and\n      dup3\n      add\n      swap2\n    tag_35:\n      pop\n      pop\n      pop\n      pop\n      pop\n      dup2\n      jump\t// out\n        /* \"contracts/demo2.sol\":1705:3319  function _itemLength(uint memPtr) private pure returns (uint) {\r... */\n    tag_31:\n        /* \"contracts/demo2.sol\":1761:1765  uint */\n      0x00\n        /* \"contracts/demo2.sol\":1782:1794  uint itemLen */\n      dup1\n        /* \"contracts/demo2.sol\":1809:1819  uint byte0 */\n      0x00\n        /* \"contracts/demo2.sol\":1885:1891  memPtr */\n      dup4\n        /* \"contracts/demo2.sol\":1879:1892  mload(memPtr) */\n      mload\n        /* \"contracts/demo2.sol\":1876:1877  0 */\n      0x00\n        /* \"contracts/demo2.sol\":1871:1893  byte(0, mload(memPtr)) */\n      byte\n        /* \"contracts/demo2.sol\":1862:1893  byte0 := byte(0, mload(memPtr)) */\n      swap1\n      pop\n        /* \"contracts/demo2.sol\":447:451  0x80 */\n      0x80\n        /* \"contracts/demo2.sol\":1928:1954  byte0 < STRING_SHORT_START */\n      0xff\n      and\n        /* \"contracts/demo2.sol\":1928:1933  byte0 */\n      dup2\n        /* \"contracts/demo2.sol\":1928:1954  byte0 < STRING_SHORT_START */\n      lt\n        /* \"contracts/demo2.sol\":1924:3277  if (byte0 < STRING_SHORT_START)\r... */\n      iszero\n      tag_39\n      jumpi\n        /* \"contracts/demo2.sol\":1983:1984  1 */\n      0x01\n        /* \"contracts/demo2.sol\":1973:1984  itemLen = 1 */\n      swap2\n      pop\n        /* \"contracts/demo2.sol\":1924:3277  if (byte0 < STRING_SHORT_START)\r... */\n      jump(tag_40)\n    tag_39:\n        /* \"contracts/demo2.sol\":498:502  0xb8 */\n      0xb8\n        /* \"contracts/demo2.sol\":2010:2035  byte0 < STRING_LONG_START */\n      0xff\n      and\n        /* \"contracts/demo2.sol\":2010:2015  byte0 */\n      dup2\n        /* \"contracts/demo2.sol\":2010:2035  byte0 < STRING_LONG_START */\n      lt\n        /* \"contracts/demo2.sol\":2006:3277  if (byte0 < STRING_LONG_START)\r... */\n      iszero\n      tag_41\n      jumpi\n        /* \"contracts/demo2.sol\":2093:2094  1 */\n      0x01\n        /* \"contracts/demo2.sol\":447:451  0x80 */\n      0x80\n        /* \"contracts/demo2.sol\":2064:2090  byte0 - STRING_SHORT_START */\n      0xff\n      and\n        /* \"contracts/demo2.sol\":2064:2069  byte0 */\n      dup3\n        /* \"contracts/demo2.sol\":2064:2090  byte0 - STRING_SHORT_START */\n      sub\n        /* \"contracts/demo2.sol\":2064:2094  byte0 - STRING_SHORT_START + 1 */\n      add\n        /* \"contracts/demo2.sol\":2054:2094  itemLen = byte0 - STRING_SHORT_START + 1 */\n      swap2\n      pop\n        /* \"contracts/demo2.sol\":2006:3277  if (byte0 < STRING_LONG_START)\r... */\n      jump(tag_42)\n    tag_41:\n        /* \"contracts/demo2.sol\":549:553  0xc0 */\n      0xc0\n        /* \"contracts/demo2.sol\":2120:2144  byte0 < LIST_SHORT_START */\n      0xff\n      and\n        /* \"contracts/demo2.sol\":2120:2125  byte0 */\n      dup2\n        /* \"contracts/demo2.sol\":2120:2144  byte0 < LIST_SHORT_START */\n      lt\n        /* \"contracts/demo2.sol\":2116:3277  if (byte0 < LIST_SHORT_START) {\r... */\n      iszero\n      tag_43\n      jumpi\n        /* \"contracts/demo2.sol\":2165:2177  uint dataLen */\n      0x00\n        /* \"contracts/demo2.sol\":2254:2258  0xb7 */\n      0xb7\n        /* \"contracts/demo2.sol\":2247:2252  byte0 */\n      dup3\n        /* \"contracts/demo2.sol\":2243:2259  sub(byte0, 0xb7) */\n      sub\n        /* \"contracts/demo2.sol\":2338:2339  1 */\n      0x01\n        /* \"contracts/demo2.sol\":2330:2336  memPtr */\n      dup7\n        /* \"contracts/demo2.sol\":2326:2340  add(memPtr, 1) */\n      add\n        /* \"contracts/demo2.sol\":2316:2340  memPtr := add(memPtr, 1) */\n      swap6\n      pop\n        /* \"contracts/demo2.sol\":2484:2491  byteLen */\n      dup1\n        /* \"contracts/demo2.sol\":2480:2482  32 */\n      0x20\n        /* \"contracts/demo2.sol\":2476:2492  sub(32, byteLen) */\n      sub\n        /* \"contracts/demo2.sol\":2471:2474  256 */\n      0x0100\n        /* \"contracts/demo2.sol\":2467:2493  exp(256, sub(32, byteLen)) */\n      exp\n        /* \"contracts/demo2.sol\":2458:2464  memPtr */\n      dup7\n        /* \"contracts/demo2.sol\":2452:2465  mload(memPtr) */\n      mload\n        /* \"contracts/demo2.sol\":2448:2494  div(mload(memPtr), exp(256, sub(32, byteLen))) */\n      div\n        /* \"contracts/demo2.sol\":2437:2494  dataLen := div(mload(memPtr), exp(256, sub(32, byteLen))) */\n      swap2\n      pop\n        /* \"contracts/demo2.sol\":2586:2587  1 */\n      0x01\n        /* \"contracts/demo2.sol\":2577:2584  byteLen */\n      dup2\n        /* \"contracts/demo2.sol\":2573:2588  add(byteLen, 1) */\n      add\n        /* \"contracts/demo2.sol\":2564:2571  dataLen */\n      dup3\n        /* \"contracts/demo2.sol\":2560:2589  add(dataLen, add(byteLen, 1)) */\n      add\n        /* \"contracts/demo2.sol\":2549:2589  itemLen := add(dataLen, add(byteLen, 1)) */\n      swap4\n      pop\n        /* \"contracts/demo2.sol\":2205:2608  {\r... */\n      pop\n        /* \"contracts/demo2.sol\":2645:2652  dataLen */\n      dup1\n        /* \"contracts/demo2.sol\":2634:2641  itemLen */\n      dup4\n        /* \"contracts/demo2.sol\":2634:2652  itemLen >= dataLen */\n      lt\n      iszero\n        /* \"contracts/demo2.sol\":2626:2674  require(itemLen >= dataLen, \"addition overflow\") */\n      tag_44\n      jumpi\n      mload(0x40)\n      0x08c379a000000000000000000000000000000000000000000000000000000000\n      dup2\n      mstore\n      0x04\n      add\n      tag_45\n      swap1\n      jump(tag_46)\n    tag_45:\n      mload(0x40)\n      dup1\n      swap2\n      sub\n      swap1\n      revert\n    tag_44:\n        /* \"contracts/demo2.sol\":2116:3277  if (byte0 < LIST_SHORT_START) {\r... */\n      pop\n      jump(tag_47)\n    tag_43:\n        /* \"contracts/demo2.sol\":600:604  0xf8 */\n      0xf8\n        /* \"contracts/demo2.sol\":2715:2738  byte0 < LIST_LONG_START */\n      0xff\n      and\n        /* \"contracts/demo2.sol\":2715:2720  byte0 */\n      dup2\n        /* \"contracts/demo2.sol\":2715:2738  byte0 < LIST_LONG_START */\n      lt\n        /* \"contracts/demo2.sol\":2711:3277  if (byte0 < LIST_LONG_START) {\r... */\n      iszero\n      tag_48\n      jumpi\n        /* \"contracts/demo2.sol\":2796:2797  1 */\n      0x01\n        /* \"contracts/demo2.sol\":549:553  0xc0 */\n      0xc0\n        /* \"contracts/demo2.sol\":2769:2793  byte0 - LIST_SHORT_START */\n      0xff\n      and\n        /* \"contracts/demo2.sol\":2769:2774  byte0 */\n      dup3\n        /* \"contracts/demo2.sol\":2769:2793  byte0 - LIST_SHORT_START */\n      sub\n        /* \"contracts/demo2.sol\":2769:2797  byte0 - LIST_SHORT_START + 1 */\n      add\n        /* \"contracts/demo2.sol\":2759:2797  itemLen = byte0 - LIST_SHORT_START + 1 */\n      swap2\n      pop\n        /* \"contracts/demo2.sol\":2711:3277  if (byte0 < LIST_LONG_START) {\r... */\n      jump(tag_49)\n    tag_48:\n        /* \"contracts/demo2.sol\":2853:2865  uint dataLen */\n      0x00\n        /* \"contracts/demo2.sol\":2942:2946  0xf7 */\n      0xf7\n        /* \"contracts/demo2.sol\":2935:2940  byte0 */\n      dup3\n        /* \"contracts/demo2.sol\":2931:2947  sub(byte0, 0xf7) */\n      sub\n        /* \"contracts/demo2.sol\":2991:2992  1 */\n      0x01\n        /* \"contracts/demo2.sol\":2983:2989  memPtr */\n      dup7\n        /* \"contracts/demo2.sol\":2979:2993  add(memPtr, 1) */\n      add\n        /* \"contracts/demo2.sol\":2969:2993  memPtr := add(memPtr, 1) */\n      swap6\n      pop\n        /* \"contracts/demo2.sol\":3064:3071  byteLen */\n      dup1\n        /* \"contracts/demo2.sol\":3060:3062  32 */\n      0x20\n        /* \"contracts/demo2.sol\":3056:3072  sub(32, byteLen) */\n      sub\n        /* \"contracts/demo2.sol\":3051:3054  256 */\n      0x0100\n        /* \"contracts/demo2.sol\":3047:3073  exp(256, sub(32, byteLen)) */\n      exp\n        /* \"contracts/demo2.sol\":3038:3044  memPtr */\n      dup7\n        /* \"contracts/demo2.sol\":3032:3045  mload(memPtr) */\n      mload\n        /* \"contracts/demo2.sol\":3028:3074  div(mload(memPtr), exp(256, sub(32, byteLen))) */\n      div\n        /* \"contracts/demo2.sol\":3017:3074  dataLen := div(mload(memPtr), exp(256, sub(32, byteLen))) */\n      swap2\n      pop\n        /* \"contracts/demo2.sol\":3173:3174  1 */\n      0x01\n        /* \"contracts/demo2.sol\":3164:3171  byteLen */\n      dup2\n        /* \"contracts/demo2.sol\":3160:3175  add(byteLen, 1) */\n      add\n        /* \"contracts/demo2.sol\":3151:3158  dataLen */\n      dup3\n        /* \"contracts/demo2.sol\":3147:3176  add(dataLen, add(byteLen, 1)) */\n      add\n        /* \"contracts/demo2.sol\":3136:3176  itemLen := add(dataLen, add(byteLen, 1)) */\n      swap4\n      pop\n        /* \"contracts/demo2.sol\":2893:3195  {\r... */\n      pop\n        /* \"contracts/demo2.sol\":3232:3239  dataLen */\n      dup1\n        /* \"contracts/demo2.sol\":3221:3228  itemLen */\n      dup4\n        /* \"contracts/demo2.sol\":3221:3239  itemLen >= dataLen */\n      lt\n      iszero\n        /* \"contracts/demo2.sol\":3213:3261  require(itemLen >= dataLen, \"addition overflow\") */\n      tag_50\n      jumpi\n      mload(0x40)\n      0x08c379a000000000000000000000000000000000000000000000000000000000\n      dup2\n      mstore\n      0x04\n      add\n      tag_51\n      swap1\n      jump(tag_46)\n    tag_51:\n      mload(0x40)\n      dup1\n      swap2\n      sub\n      swap1\n      revert\n    tag_50:\n        /* \"contracts/demo2.sol\":2711:3277  if (byte0 < LIST_LONG_START) {\r... */\n      pop\n    tag_49:\n        /* \"contracts/demo2.sol\":2116:3277  if (byte0 < LIST_SHORT_START) {\r... */\n    tag_47:\n        /* \"contracts/demo2.sol\":2006:3277  if (byte0 < STRING_LONG_START)\r... */\n    tag_42:\n        /* \"contracts/demo2.sol\":1924:3277  if (byte0 < STRING_SHORT_START)\r... */\n    tag_40:\n        /* \"contracts/demo2.sol\":3300:3307  itemLen */\n      dup2\n        /* \"contracts/demo2.sol\":3293:3307  return itemLen */\n      swap3\n      pop\n      pop\n      pop\n        /* \"contracts/demo2.sol\":1705:3319  function _itemLength(uint memPtr) private pure returns (uint) {\r... */\n      swap2\n      swap1\n      pop\n      jump\t// out\n        /* \"--CODEGEN--\":5:135   */\n    tag_53:\n      0x00\n        /* \"--CODEGEN--\":85:91   */\n      dup2\n        /* \"--CODEGEN--\":72:92   */\n      calldataload\n        /* \"--CODEGEN--\":63:92   */\n      swap1\n      pop\n        /* \"--CODEGEN--\":97:130   */\n      tag_55\n        /* \"--CODEGEN--\":124:129   */\n      dup2\n        /* \"--CODEGEN--\":97:130   */\n      jump(tag_56)\n    tag_55:\n        /* \"--CODEGEN--\":57:135   */\n      swap3\n      swap2\n      pop\n      pop\n      jump\n        /* \"--CODEGEN--\":142:383   */\n    tag_10:\n      0x00\n        /* \"--CODEGEN--\":246:248   */\n      0x20\n        /* \"--CODEGEN--\":234:243   */\n      dup3\n        /* \"--CODEGEN--\":225:232   */\n      dup5\n        /* \"--CODEGEN--\":221:244   */\n      sub\n        /* \"--CODEGEN--\":217:249   */\n      slt\n        /* \"--CODEGEN--\":214:216   */\n      iszero\n      tag_58\n      jumpi\n        /* \"--CODEGEN--\":262:263   */\n      0x00\n        /* \"--CODEGEN--\":259:260   */\n      dup1\n        /* \"--CODEGEN--\":252:264   */\n      revert\n        /* \"--CODEGEN--\":214:216   */\n    tag_58:\n        /* \"--CODEGEN--\":297:298   */\n      0x00\n        /* \"--CODEGEN--\":314:367   */\n      tag_59\n        /* \"--CODEGEN--\":359:366   */\n      dup5\n        /* \"--CODEGEN--\":350:356   */\n      dup3\n        /* \"--CODEGEN--\":339:348   */\n      dup6\n        /* \"--CODEGEN--\":335:357   */\n      add\n        /* \"--CODEGEN--\":314:367   */\n      jump(tag_53)\n    tag_59:\n        /* \"--CODEGEN--\":304:367   */\n      swap2\n      pop\n        /* \"--CODEGEN--\":276:373   */\n      pop\n        /* \"--CODEGEN--\":208:383   */\n      swap3\n      swap2\n      pop\n      pop\n      jump\n        /* \"--CODEGEN--\":390:503   */\n    tag_60:\n        /* \"--CODEGEN--\":473:497   */\n      tag_62\n        /* \"--CODEGEN--\":491:496   */\n      dup2\n        /* \"--CODEGEN--\":473:497   */\n      jump(tag_63)\n    tag_62:\n        /* \"--CODEGEN--\":468:471   */\n      dup3\n        /* \"--CODEGEN--\":461:498   */\n      mstore\n        /* \"--CODEGEN--\":455:503   */\n      pop\n      pop\n      jump\n        /* \"--CODEGEN--\":510:845   */\n    tag_64:\n      0x00\n        /* \"--CODEGEN--\":616:650   */\n      tag_66\n        /* \"--CODEGEN--\":644:649   */\n      dup3\n        /* \"--CODEGEN--\":616:650   */\n      jump(tag_67)\n    tag_66:\n        /* \"--CODEGEN--\":662:732   */\n      tag_68\n        /* \"--CODEGEN--\":725:731   */\n      dup2\n        /* \"--CODEGEN--\":720:723   */\n      dup6\n        /* \"--CODEGEN--\":662:732   */\n      jump(tag_69)\n    tag_68:\n        /* \"--CODEGEN--\":655:732   */\n      swap4\n      pop\n        /* \"--CODEGEN--\":737:789   */\n      tag_70\n        /* \"--CODEGEN--\":782:788   */\n      dup2\n        /* \"--CODEGEN--\":777:780   */\n      dup6\n        /* \"--CODEGEN--\":770:774   */\n      0x20\n        /* \"--CODEGEN--\":763:768   */\n      dup7\n        /* \"--CODEGEN--\":759:775   */\n      add\n        /* \"--CODEGEN--\":737:789   */\n      jump(tag_71)\n    tag_70:\n        /* \"--CODEGEN--\":810:839   */\n      tag_72\n        /* \"--CODEGEN--\":832:838   */\n      dup2\n        /* \"--CODEGEN--\":810:839   */\n      jump(tag_73)\n    tag_72:\n        /* \"--CODEGEN--\":805:808   */\n      dup5\n        /* \"--CODEGEN--\":801:840   */\n      add\n        /* \"--CODEGEN--\":794:840   */\n      swap2\n      pop\n        /* \"--CODEGEN--\":596:845   */\n      pop\n      swap3\n      swap2\n      pop\n      pop\n      jump\n        /* \"--CODEGEN--\":853:1170   */\n    tag_74:\n      0x00\n        /* \"--CODEGEN--\":1013:1080   */\n      tag_76\n        /* \"--CODEGEN--\":1077:1079   */\n      0x11\n        /* \"--CODEGEN--\":1072:1075   */\n      dup4\n        /* \"--CODEGEN--\":1013:1080   */\n      jump(tag_77)\n    tag_76:\n        /* \"--CODEGEN--\":1006:1080   */\n      swap2\n      pop\n        /* \"--CODEGEN--\":1113:1132   */\n      0x6164646974696f6e206f766572666c6f77000000000000000000000000000000\n        /* \"--CODEGEN--\":1109:1110   */\n      0x00\n        /* \"--CODEGEN--\":1104:1107   */\n      dup4\n        /* \"--CODEGEN--\":1100:1111   */\n      add\n        /* \"--CODEGEN--\":1093:1133   */\n      mstore\n        /* \"--CODEGEN--\":1161:1163   */\n      0x20\n        /* \"--CODEGEN--\":1156:1159   */\n      dup3\n        /* \"--CODEGEN--\":1152:1164   */\n      add\n        /* \"--CODEGEN--\":1145:1164   */\n      swap1\n      pop\n        /* \"--CODEGEN--\":999:1170   */\n      swap2\n      swap1\n      pop\n      jump\n        /* \"--CODEGEN--\":1178:1291   */\n    tag_78:\n        /* \"--CODEGEN--\":1261:1285   */\n      tag_80\n        /* \"--CODEGEN--\":1279:1284   */\n      dup2\n        /* \"--CODEGEN--\":1261:1285   */\n      jump(tag_81)\n    tag_80:\n        /* \"--CODEGEN--\":1256:1259   */\n      dup3\n        /* \"--CODEGEN--\":1249:1286   */\n      mstore\n        /* \"--CODEGEN--\":1243:1291   */\n      pop\n      pop\n      jump\n        /* \"--CODEGEN--\":1298:1511   */\n    tag_25:\n      0x00\n        /* \"--CODEGEN--\":1416:1418   */\n      0x20\n        /* \"--CODEGEN--\":1405:1414   */\n      dup3\n        /* \"--CODEGEN--\":1401:1419   */\n      add\n        /* \"--CODEGEN--\":1393:1419   */\n      swap1\n      pop\n        /* \"--CODEGEN--\":1430:1501   */\n      tag_83\n        /* \"--CODEGEN--\":1498:1499   */\n      0x00\n        /* \"--CODEGEN--\":1487:1496   */\n      dup4\n        /* \"--CODEGEN--\":1483:1500   */\n      add\n        /* \"--CODEGEN--\":1474:1480   */\n      dup5\n        /* \"--CODEGEN--\":1430:1501   */\n      jump(tag_60)\n    tag_83:\n        /* \"--CODEGEN--\":1387:1511   */\n      swap3\n      swap2\n      pop\n      pop\n      jump\n        /* \"--CODEGEN--\":1518:1807   */\n    tag_17:\n      0x00\n        /* \"--CODEGEN--\":1650:1652   */\n      0x20\n        /* \"--CODEGEN--\":1639:1648   */\n      dup3\n        /* \"--CODEGEN--\":1635:1653   */\n      add\n        /* \"--CODEGEN--\":1627:1653   */\n      swap1\n      pop\n        /* \"--CODEGEN--\":1700:1709   */\n      dup2\n        /* \"--CODEGEN--\":1694:1698   */\n      dup2\n        /* \"--CODEGEN--\":1690:1710   */\n      sub\n        /* \"--CODEGEN--\":1686:1687   */\n      0x00\n        /* \"--CODEGEN--\":1675:1684   */\n      dup4\n        /* \"--CODEGEN--\":1671:1688   */\n      add\n        /* \"--CODEGEN--\":1664:1711   */\n      mstore\n        /* \"--CODEGEN--\":1725:1797   */\n      tag_85\n        /* \"--CODEGEN--\":1792:1796   */\n      dup2\n        /* \"--CODEGEN--\":1783:1789   */\n      dup5\n        /* \"--CODEGEN--\":1725:1797   */\n      jump(tag_64)\n    tag_85:\n        /* \"--CODEGEN--\":1717:1797   */\n      swap1\n      pop\n        /* \"--CODEGEN--\":1621:1807   */\n      swap3\n      swap2\n      pop\n      pop\n      jump\n        /* \"--CODEGEN--\":1814:2221   */\n    tag_46:\n      0x00\n        /* \"--CODEGEN--\":2005:2007   */\n      0x20\n        /* \"--CODEGEN--\":1994:2003   */\n      dup3\n        /* \"--CODEGEN--\":1990:2008   */\n      add\n        /* \"--CODEGEN--\":1982:2008   */\n      swap1\n      pop\n        /* \"--CODEGEN--\":2055:2064   */\n      dup2\n        /* \"--CODEGEN--\":2049:2053   */\n      dup2\n        /* \"--CODEGEN--\":2045:2065   */\n      sub\n        /* \"--CODEGEN--\":2041:2042   */\n      0x00\n        /* \"--CODEGEN--\":2030:2039   */\n      dup4\n        /* \"--CODEGEN--\":2026:2043   */\n      add\n        /* \"--CODEGEN--\":2019:2066   */\n      mstore\n        /* \"--CODEGEN--\":2080:2211   */\n      tag_87\n        /* \"--CODEGEN--\":2206:2210   */\n      dup2\n        /* \"--CODEGEN--\":2080:2211   */\n      jump(tag_74)\n    tag_87:\n        /* \"--CODEGEN--\":2072:2211   */\n      swap1\n      pop\n        /* \"--CODEGEN--\":1976:2221   */\n      swap2\n      swap1\n      pop\n      jump\n        /* \"--CODEGEN--\":2228:2441   */\n    tag_13:\n      0x00\n        /* \"--CODEGEN--\":2346:2348   */\n      0x20\n        /* \"--CODEGEN--\":2335:2344   */\n      dup3\n        /* \"--CODEGEN--\":2331:2349   */\n      add\n        /* \"--CODEGEN--\":2323:2349   */\n      swap1\n      pop\n        /* \"--CODEGEN--\":2360:2431   */\n      tag_89\n        /* \"--CODEGEN--\":2428:2429   */\n      0x00\n        /* \"--CODEGEN--\":2417:2426   */\n      dup4\n        /* \"--CODEGEN--\":2413:2430   */\n      add\n        /* \"--CODEGEN--\":2404:2410   */\n      dup5\n        /* \"--CODEGEN--\":2360:2431   */\n      jump(tag_78)\n    tag_89:\n        /* \"--CODEGEN--\":2317:2441   */\n      swap3\n      swap2\n      pop\n      pop\n      jump\n        /* \"--CODEGEN--\":2448:2772   */\n    tag_21:\n      0x00\n        /* \"--CODEGEN--\":2594:2596   */\n      0x40\n        /* \"--CODEGEN--\":2583:2592   */\n      dup3\n        /* \"--CODEGEN--\":2579:2597   */\n      add\n        /* \"--CODEGEN--\":2571:2597   */\n      swap1\n      pop\n        /* \"--CODEGEN--\":2608:2679   */\n      tag_91\n        /* \"--CODEGEN--\":2676:2677   */\n      0x00\n        /* \"--CODEGEN--\":2665:2674   */\n      dup4\n        /* \"--CODEGEN--\":2661:2678   */\n      add\n        /* \"--CODEGEN--\":2652:2658   */\n      dup6\n        /* \"--CODEGEN--\":2608:2679   */\n      jump(tag_78)\n    tag_91:\n        /* \"--CODEGEN--\":2690:2762   */\n      tag_92\n        /* \"--CODEGEN--\":2758:2760   */\n      0x20\n        /* \"--CODEGEN--\":2747:2756   */\n      dup4\n        /* \"--CODEGEN--\":2743:2761   */\n      add\n        /* \"--CODEGEN--\":2734:2740   */\n      dup5\n        /* \"--CODEGEN--\":2690:2762   */\n      jump(tag_78)\n    tag_92:\n        /* \"--CODEGEN--\":2565:2772   */\n      swap4\n      swap3\n      pop\n      pop\n      pop\n      jump\n        /* \"--CODEGEN--\":2779:2896   */\n    tag_67:\n      0x00\n        /* \"--CODEGEN--\":2868:2873   */\n      dup2\n        /* \"--CODEGEN--\":2862:2874   */\n      mload\n        /* \"--CODEGEN--\":2852:2874   */\n      swap1\n      pop\n        /* \"--CODEGEN--\":2833:2896   */\n      swap2\n      swap1\n      pop\n      jump\n        /* \"--CODEGEN--\":2904:3066   */\n    tag_69:\n      0x00\n        /* \"--CODEGEN--\":3018:3024   */\n      dup3\n        /* \"--CODEGEN--\":3013:3016   */\n      dup3\n        /* \"--CODEGEN--\":3006:3025   */\n      mstore\n        /* \"--CODEGEN--\":3055:3059   */\n      0x20\n        /* \"--CODEGEN--\":3050:3053   */\n      dup3\n        /* \"--CODEGEN--\":3046:3060   */\n      add\n        /* \"--CODEGEN--\":3031:3060   */\n      swap1\n      pop\n        /* \"--CODEGEN--\":2999:3066   */\n      swap3\n      swap2\n      pop\n      pop\n      jump\n        /* \"--CODEGEN--\":3075:3238   */\n    tag_77:\n      0x00\n        /* \"--CODEGEN--\":3190:3196   */\n      dup3\n        /* \"--CODEGEN--\":3185:3188   */\n      dup3\n        /* \"--CODEGEN--\":3178:3197   */\n      mstore\n        /* \"--CODEGEN--\":3227:3231   */\n      0x20\n        /* \"--CODEGEN--\":3222:3225   */\n      dup3\n        /* \"--CODEGEN--\":3218:3232   */\n      add\n        /* \"--CODEGEN--\":3203:3232   */\n      swap1\n      pop\n        /* \"--CODEGEN--\":3171:3238   */\n      swap3\n      swap2\n      pop\n      pop\n      jump\n        /* \"--CODEGEN--\":3246:3318   */\n    tag_63:\n      0x00\n        /* \"--CODEGEN--\":3308:3313   */\n      dup2\n        /* \"--CODEGEN--\":3297:3313   */\n      swap1\n      pop\n        /* \"--CODEGEN--\":3291:3318   */\n      swap2\n      swap1\n      pop\n      jump\n        /* \"--CODEGEN--\":3325:3397   */\n    tag_81:\n      0x00\n        /* \"--CODEGEN--\":3387:3392   */\n      dup2\n        /* \"--CODEGEN--\":3376:3392   */\n      swap1\n      pop\n        /* \"--CODEGEN--\":3370:3397   */\n      swap2\n      swap1\n      pop\n      jump\n        /* \"--CODEGEN--\":3405:3673   */\n    tag_71:\n        /* \"--CODEGEN--\":3470:3471   */\n      0x00\n        /* \"--CODEGEN--\":3477:3578   */\n    tag_99:\n        /* \"--CODEGEN--\":3491:3497   */\n      dup4\n        /* \"--CODEGEN--\":3488:3489   */\n      dup2\n        /* \"--CODEGEN--\":3485:3498   */\n      lt\n        /* \"--CODEGEN--\":3477:3578   */\n      iszero\n      tag_101\n      jumpi\n        /* \"--CODEGEN--\":3567:3568   */\n      dup1\n        /* \"--CODEGEN--\":3562:3565   */\n      dup3\n        /* \"--CODEGEN--\":3558:3569   */\n      add\n        /* \"--CODEGEN--\":3552:3570   */\n      mload\n        /* \"--CODEGEN--\":3548:3549   */\n      dup2\n        /* \"--CODEGEN--\":3543:3546   */\n      dup5\n        /* \"--CODEGEN--\":3539:3550   */\n      add\n        /* \"--CODEGEN--\":3532:3571   */\n      mstore\n        /* \"--CODEGEN--\":3513:3515   */\n      0x20\n        /* \"--CODEGEN--\":3510:3511   */\n      dup2\n        /* \"--CODEGEN--\":3506:3516   */\n      add\n        /* \"--CODEGEN--\":3501:3516   */\n      swap1\n      pop\n        /* \"--CODEGEN--\":3477:3578   */\n      jump(tag_99)\n    tag_101:\n        /* \"--CODEGEN--\":3593:3599   */\n      dup4\n        /* \"--CODEGEN--\":3590:3591   */\n      dup2\n        /* \"--CODEGEN--\":3587:3600   */\n      gt\n        /* \"--CODEGEN--\":3584:3586   */\n      iszero\n      tag_102\n      jumpi\n        /* \"--CODEGEN--\":3658:3659   */\n      0x00\n        /* \"--CODEGEN--\":3649:3655   */\n      dup5\n        /* \"--CODEGEN--\":3644:3647   */\n      dup5\n        /* \"--CODEGEN--\":3640:3656   */\n      add\n        /* \"--CODEGEN--\":3633:3660   */\n      mstore\n        /* \"--CODEGEN--\":3584:3586   */\n    tag_102:\n        /* \"--CODEGEN--\":3454:3673   */\n      pop\n      pop\n      pop\n      pop\n      jump\n        /* \"--CODEGEN--\":3681:3778   */\n    tag_73:\n      0x00\n        /* \"--CODEGEN--\":3769:3771   */\n      0x1f\n        /* \"--CODEGEN--\":3765:3772   */\n      not\n        /* \"--CODEGEN--\":3760:3762   */\n      0x1f\n        /* \"--CODEGEN--\":3753:3758   */\n      dup4\n        /* \"--CODEGEN--\":3749:3763   */\n      add\n        /* \"--CODEGEN--\":3745:3773   */\n      and\n        /* \"--CODEGEN--\":3735:3773   */\n      swap1\n      pop\n        /* \"--CODEGEN--\":3729:3778   */\n      swap2\n      swap1\n      pop\n      jump\n        /* \"--CODEGEN--\":3786:3903   */\n    tag_56:\n        /* \"--CODEGEN--\":3855:3879   */\n      tag_105\n        /* \"--CODEGEN--\":3873:3878   */\n      dup2\n        /* \"--CODEGEN--\":3855:3879   */\n      jump(tag_81)\n    tag_105:\n        /* \"--CODEGEN--\":3848:3853   */\n      dup2\n        /* \"--CODEGEN--\":3845:3880   */\n      eq\n        /* \"--CODEGEN--\":3835:3837   */\n      tag_106\n      jumpi\n        /* \"--CODEGEN--\":3894:3895   */\n      0x00\n        /* \"--CODEGEN--\":3891:3892   */\n      dup1\n        /* \"--CODEGEN--\":3884:3896   */\n      revert\n        /* \"--CODEGEN--\":3835:3837   */\n    tag_106:\n        /* \"--CODEGEN--\":3829:3903   */\n      pop\n      jump\n\n    auxdata: 0xa2646970667358221220f19ae8832229e8038e0068252d76ed45bbce66b0798340cfe5460aca288c678664736f6c63430006040033\n}\n",
				"bytecode": {
					"linkReferences": {},
					"object": "60806040526040518060600160405280602e81526020016107ee602e9139600090805190602001906100329291906100cf565b506040518060600160405280602a815260200161081c602a9139600190805190602001906100619291906100cf565b507f4c45484f4e47564f776a6e66766a3377656838764b4a0000000000000000000060025534801561009257600080fd5b5060405161084638038061084683398181016040528101906100b49190610189565b816003600001819055508060036001018190555050506101e6565b828054600181600116156101000203166002900490600052602060002090601f016020900481019282601f1061011057805160ff191683800117855561013e565b8280016001018555821561013e579182015b8281111561013d578251825591602001919060010190610122565b5b50905061014b919061014f565b5090565b61017191905b8082111561016d576000816000905550600101610155565b5090565b90565b600081519050610183816101cf565b92915050565b6000806040838503121561019c57600080fd5b60006101aa85828601610174565b92505060206101bb85828601610174565b9150509250929050565b6000819050919050565b6101d8816101c5565b81146101e357600080fd5b50565b6105f9806101f56000396000f3fe608060405234801561001057600080fd5b50600436106100575760003560e01c80630178fe3f1461005c5780639ffd85c41461008c578063a699fb03146100aa578063e3a7fd75146100c9578063fc26b0ab146100e7575b600080fd5b610076600480360381019061007191906103c6565b610105565b60405161008391906104e3565b60405180910390f35b610094610117565b6040516100a191906104a1565b60405180910390f35b6100b26101b5565b6040516100c09291906104fe565b60405180910390f35b6100d16101c7565b6040516100de9190610486565b60405180910390f35b6100ef6101cd565b6040516100fc91906104a1565b60405180910390f35b60006101108261026b565b9050919050565b60008054600181600116156101000203166002900480601f0160208091040260200160405190810160405280929190818152602001828054600181600116156101000203166002900480156101ad5780601f10610182576101008083540402835291602001916101ad565b820191906000526020600020905b81548152906001019060200180831161019057829003601f168201915b505050505081565b60038060000154908060010154905082565b60025481565b60018054600181600116156101000203166002900480601f0160208091040260200160405190810160405280929190818152602001828054600181600116156101000203166002900480156102635780601f1061023857610100808354040283529160200191610263565b820191906000526020600020905b81548152906001019060200180831161024657829003601f168201915b505050505081565b6000806000835160001a9050608060ff1681101561028c57600191506103a7565b60b860ff168110156102a9576001608060ff1682030191506103a6565b60c060ff1681101561032057600060b78203600186019550806020036101000a86510491506001810182019350508083101561031a576040517f08c379a0000000000000000000000000000000000000000000000000000000008152600401610311906104c3565b60405180910390fd5b506103a5565b60f860ff1681101561033d57600160c060ff1682030191506103a4565b600060f78203600186019550806020036101000a8651049150600181018201935050808310156103a2576040517f08c379a0000000000000000000000000000000000000000000000000000000008152600401610399906104c3565b60405180910390fd5b505b5b5b5b8192505050919050565b6000813590506103c0816105ac565b92915050565b6000602082840312156103d857600080fd5b60006103e6848285016103b1565b91505092915050565b6103f881610554565b82525050565b600061040982610527565b6104138185610532565b9350610423818560208601610568565b61042c8161059b565b840191505092915050565b6000610444601183610543565b91507f6164646974696f6e206f766572666c6f770000000000000000000000000000006000830152602082019050919050565b6104808161055e565b82525050565b600060208201905061049b60008301846103ef565b92915050565b600060208201905081810360008301526104bb81846103fe565b905092915050565b600060208201905081810360008301526104dc81610437565b9050919050565b60006020820190506104f86000830184610477565b92915050565b60006040820190506105136000830185610477565b6105206020830184610477565b9392505050565b600081519050919050565b600082825260208201905092915050565b600082825260208201905092915050565b6000819050919050565b6000819050919050565b60005b8381101561058657808201518184015260208101905061056b565b83811115610595576000848401525b50505050565b6000601f19601f8301169050919050565b6105b58161055e565b81146105c057600080fd5b5056fea2646970667358221220f19ae8832229e8038e0068252d76ed45bbce66b0798340cfe5460aca288c678664736f6c634300060400334e414c4548484a534744534447484a534448535548444a5348444a53484a53484a534844534a44484a4f4e47564f7364664e417364667364664c4548484a5347445348444a53484a53484a534844534a44484a4f4e47564f",
					"opcodes": "PUSH1 0x80 PUSH1 0x40 MSTORE PUSH1 0x40 MLOAD DUP1 PUSH1 0x60 ADD PUSH1 0x40 MSTORE DUP1 PUSH1 0x2E DUP2 MSTORE PUSH1 0x20 ADD PUSH2 0x7EE PUSH1 0x2E SWAP2 CODECOPY PUSH1 0x0 SWAP1 DUP1 MLOAD SWAP1 PUSH1 0x20 ADD SWAP1 PUSH2 0x32 SWAP3 SWAP2 SWAP1 PUSH2 0xCF JUMP JUMPDEST POP PUSH1 0x40 MLOAD DUP1 PUSH1 0x60 ADD PUSH1 0x40 MSTORE DUP1 PUSH1 0x2A DUP2 MSTORE PUSH1 0x20 ADD PUSH2 0x81C PUSH1 0x2A SWAP2 CODECOPY PUSH1 0x1 SWAP1 DUP1 MLOAD SWAP1 PUSH1 0x20 ADD SWAP1 PUSH2 0x61 SWAP3 SWAP2 SWAP1 PUSH2 0xCF JUMP JUMPDEST POP PUSH32 0x4C45484F4E47564F776A6E66766A3377656838764B4A00000000000000000000 PUSH1 0x2 SSTORE CALLVALUE DUP1 ISZERO PUSH2 0x92 JUMPI PUSH1 0x0 DUP1 REVERT JUMPDEST POP PUSH1 0x40 MLOAD PUSH2 0x846 CODESIZE SUB DUP1 PUSH2 0x846 DUP4 CODECOPY DUP2 DUP2 ADD PUSH1 0x40 MSTORE DUP2 ADD SWAP1 PUSH2 0xB4 SWAP2 SWAP1 PUSH2 0x189 JUMP JUMPDEST DUP2 PUSH1 0x3 PUSH1 0x0 ADD DUP2 SWAP1 SSTORE POP DUP1 PUSH1 0x3 PUSH1 0x1 ADD DUP2 SWAP1 SSTORE POP POP POP PUSH2 0x1E6 JUMP JUMPDEST DUP3 DUP1 SLOAD PUSH1 0x1 DUP2 PUSH1 0x1 AND ISZERO PUSH2 0x100 MUL SUB AND PUSH1 0x2 SWAP1 DIV SWAP1 PUSH1 0x0 MSTORE PUSH1 0x20 PUSH1 0x0 KECCAK256 SWAP1 PUSH1 0x1F ADD PUSH1 0x20 SWAP1 DIV DUP2 ADD SWAP3 DUP3 PUSH1 0x1F LT PUSH2 0x110 JUMPI DUP1 MLOAD PUSH1 0xFF NOT AND DUP4 DUP1 ADD OR DUP6 SSTORE PUSH2 0x13E JUMP JUMPDEST DUP3 DUP1 ADD PUSH1 0x1 ADD DUP6 SSTORE DUP3 ISZERO PUSH2 0x13E JUMPI SWAP2 DUP3 ADD JUMPDEST DUP3 DUP2 GT ISZERO PUSH2 0x13D JUMPI DUP3 MLOAD DUP3 SSTORE SWAP2 PUSH1 0x20 ADD SWAP2 SWAP1 PUSH1 0x1 ADD SWAP1 PUSH2 0x122 JUMP JUMPDEST JUMPDEST POP SWAP1 POP PUSH2 0x14B SWAP2 SWAP1 PUSH2 0x14F JUMP JUMPDEST POP SWAP1 JUMP JUMPDEST PUSH2 0x171 SWAP2 SWAP1 JUMPDEST DUP1 DUP3 GT ISZERO PUSH2 0x16D JUMPI PUSH1 0x0 DUP2 PUSH1 0x0 SWAP1 SSTORE POP PUSH1 0x1 ADD PUSH2 0x155 JUMP JUMPDEST POP SWAP1 JUMP JUMPDEST SWAP1 JUMP JUMPDEST PUSH1 0x0 DUP2 MLOAD SWAP1 POP PUSH2 0x183 DUP2 PUSH2 0x1CF JUMP JUMPDEST SWAP3 SWAP2 POP POP JUMP JUMPDEST PUSH1 0x0 DUP1 PUSH1 0x40 DUP4 DUP6 SUB SLT ISZERO PUSH2 0x19C JUMPI PUSH1 0x0 DUP1 REVERT JUMPDEST PUSH1 0x0 PUSH2 0x1AA DUP6 DUP3 DUP7 ADD PUSH2 0x174 JUMP JUMPDEST SWAP3 POP POP PUSH1 0x20 PUSH2 0x1BB DUP6 DUP3 DUP7 ADD PUSH2 0x174 JUMP JUMPDEST SWAP2 POP POP SWAP3 POP SWAP3 SWAP1 POP JUMP JUMPDEST PUSH1 0x0 DUP2 SWAP1 POP SWAP2 SWAP1 POP JUMP JUMPDEST PUSH2 0x1D8 DUP2 PUSH2 0x1C5 JUMP JUMPDEST DUP2 EQ PUSH2 0x1E3 JUMPI PUSH1 0x0 DUP1 REVERT JUMPDEST POP JUMP JUMPDEST PUSH2 0x5F9 DUP1 PUSH2 0x1F5 PUSH1 0x0 CODECOPY PUSH1 0x0 RETURN INVALID PUSH1 0x80 PUSH1 0x40 MSTORE CALLVALUE DUP1 ISZERO PUSH2 0x10 JUMPI PUSH1 0x0 DUP1 REVERT JUMPDEST POP PUSH1 0x4 CALLDATASIZE LT PUSH2 0x57 JUMPI PUSH1 0x0 CALLDATALOAD PUSH1 0xE0 SHR DUP1 PUSH4 0x178FE3F EQ PUSH2 0x5C JUMPI DUP1 PUSH4 0x9FFD85C4 EQ PUSH2 0x8C JUMPI DUP1 PUSH4 0xA699FB03 EQ PUSH2 0xAA JUMPI DUP1 PUSH4 0xE3A7FD75 EQ PUSH2 0xC9 JUMPI DUP1 PUSH4 0xFC26B0AB EQ PUSH2 0xE7 JUMPI JUMPDEST PUSH1 0x0 DUP1 REVERT JUMPDEST PUSH2 0x76 PUSH1 0x4 DUP1 CALLDATASIZE SUB DUP2 ADD SWAP1 PUSH2 0x71 SWAP2 SWAP1 PUSH2 0x3C6 JUMP JUMPDEST PUSH2 0x105 JUMP JUMPDEST PUSH1 0x40 MLOAD PUSH2 0x83 SWAP2 SWAP1 PUSH2 0x4E3 JUMP JUMPDEST PUSH1 0x40 MLOAD DUP1 SWAP2 SUB SWAP1 RETURN JUMPDEST PUSH2 0x94 PUSH2 0x117 JUMP JUMPDEST PUSH1 0x40 MLOAD PUSH2 0xA1 SWAP2 SWAP1 PUSH2 0x4A1 JUMP JUMPDEST PUSH1 0x40 MLOAD DUP1 SWAP2 SUB SWAP1 RETURN JUMPDEST PUSH2 0xB2 PUSH2 0x1B5 JUMP JUMPDEST PUSH1 0x40 MLOAD PUSH2 0xC0 SWAP3 SWAP2 SWAP1 PUSH2 0x4FE JUMP JUMPDEST PUSH1 0x40 MLOAD DUP1 SWAP2 SUB SWAP1 RETURN JUMPDEST PUSH2 0xD1 PUSH2 0x1C7 JUMP JUMPDEST PUSH1 0x40 MLOAD PUSH2 0xDE SWAP2 SWAP1 PUSH2 0x486 JUMP JUMPDEST PUSH1 0x40 MLOAD DUP1 SWAP2 SUB SWAP1 RETURN JUMPDEST PUSH2 0xEF PUSH2 0x1CD JUMP JUMPDEST PUSH1 0x40 MLOAD PUSH2 0xFC SWAP2 SWAP1 PUSH2 0x4A1 JUMP JUMPDEST PUSH1 0x40 MLOAD DUP1 SWAP2 SUB SWAP1 RETURN JUMPDEST PUSH1 0x0 PUSH2 0x110 DUP3 PUSH2 0x26B JUMP JUMPDEST SWAP1 POP SWAP2 SWAP1 POP JUMP JUMPDEST PUSH1 0x0 DUP1 SLOAD PUSH1 0x1 DUP2 PUSH1 0x1 AND ISZERO PUSH2 0x100 MUL SUB AND PUSH1 0x2 SWAP1 DIV DUP1 PUSH1 0x1F ADD PUSH1 0x20 DUP1 SWAP2 DIV MUL PUSH1 0x20 ADD PUSH1 0x40 MLOAD SWAP1 DUP2 ADD PUSH1 0x40 MSTORE DUP1 SWAP3 SWAP2 SWAP1 DUP2 DUP2 MSTORE PUSH1 0x20 ADD DUP3 DUP1 SLOAD PUSH1 0x1 DUP2 PUSH1 0x1 AND ISZERO PUSH2 0x100 MUL SUB AND PUSH1 0x2 SWAP1 DIV DUP1 ISZERO PUSH2 0x1AD JUMPI DUP1 PUSH1 0x1F LT PUSH2 0x182 JUMPI PUSH2 0x100 DUP1 DUP4 SLOAD DIV MUL DUP4 MSTORE SWAP2 PUSH1 0x20 ADD SWAP2 PUSH2 0x1AD JUMP JUMPDEST DUP3 ADD SWAP2 SWAP1 PUSH1 0x0 MSTORE PUSH1 0x20 PUSH1 0x0 KECCAK256 SWAP1 JUMPDEST DUP2 SLOAD DUP2 MSTORE SWAP1 PUSH1 0x1 ADD SWAP1 PUSH1 0x20 ADD DUP1 DUP4 GT PUSH2 0x190 JUMPI DUP3 SWAP1 SUB PUSH1 0x1F AND DUP3 ADD SWAP2 JUMPDEST POP POP POP POP POP DUP2 JUMP JUMPDEST PUSH1 0x3 DUP1 PUSH1 0x0 ADD SLOAD SWAP1 DUP1 PUSH1 0x1 ADD SLOAD SWAP1 POP DUP3 JUMP JUMPDEST PUSH1 0x2 SLOAD DUP2 JUMP JUMPDEST PUSH1 0x1 DUP1 SLOAD PUSH1 0x1 DUP2 PUSH1 0x1 AND ISZERO PUSH2 0x100 MUL SUB AND PUSH1 0x2 SWAP1 DIV DUP1 PUSH1 0x1F ADD PUSH1 0x20 DUP1 SWAP2 DIV MUL PUSH1 0x20 ADD PUSH1 0x40 MLOAD SWAP1 DUP2 ADD PUSH1 0x40 MSTORE DUP1 SWAP3 SWAP2 SWAP1 DUP2 DUP2 MSTORE PUSH1 0x20 ADD DUP3 DUP1 SLOAD PUSH1 0x1 DUP2 PUSH1 0x1 AND ISZERO PUSH2 0x100 MUL SUB AND PUSH1 0x2 SWAP1 DIV DUP1 ISZERO PUSH2 0x263 JUMPI DUP1 PUSH1 0x1F LT PUSH2 0x238 JUMPI PUSH2 0x100 DUP1 DUP4 SLOAD DIV MUL DUP4 MSTORE SWAP2 PUSH1 0x20 ADD SWAP2 PUSH2 0x263 JUMP JUMPDEST DUP3 ADD SWAP2 SWAP1 PUSH1 0x0 MSTORE PUSH1 0x20 PUSH1 0x0 KECCAK256 SWAP1 JUMPDEST DUP2 SLOAD DUP2 MSTORE SWAP1 PUSH1 0x1 ADD SWAP1 PUSH1 0x20 ADD DUP1 DUP4 GT PUSH2 0x246 JUMPI DUP3 SWAP1 SUB PUSH1 0x1F AND DUP3 ADD SWAP2 JUMPDEST POP POP POP POP POP DUP2 JUMP JUMPDEST PUSH1 0x0 DUP1 PUSH1 0x0 DUP4 MLOAD PUSH1 0x0 BYTE SWAP1 POP PUSH1 0x80 PUSH1 0xFF AND DUP2 LT ISZERO PUSH2 0x28C JUMPI PUSH1 0x1 SWAP2 POP PUSH2 0x3A7 JUMP JUMPDEST PUSH1 0xB8 PUSH1 0xFF AND DUP2 LT ISZERO PUSH2 0x2A9 JUMPI PUSH1 0x1 PUSH1 0x80 PUSH1 0xFF AND DUP3 SUB ADD SWAP2 POP PUSH2 0x3A6 JUMP JUMPDEST PUSH1 0xC0 PUSH1 0xFF AND DUP2 LT ISZERO PUSH2 0x320 JUMPI PUSH1 0x0 PUSH1 0xB7 DUP3 SUB PUSH1 0x1 DUP7 ADD SWAP6 POP DUP1 PUSH1 0x20 SUB PUSH2 0x100 EXP DUP7 MLOAD DIV SWAP2 POP PUSH1 0x1 DUP2 ADD DUP3 ADD SWAP4 POP POP DUP1 DUP4 LT ISZERO PUSH2 0x31A JUMPI PUSH1 0x40 MLOAD PUSH32 0x8C379A000000000000000000000000000000000000000000000000000000000 DUP2 MSTORE PUSH1 0x4 ADD PUSH2 0x311 SWAP1 PUSH2 0x4C3 JUMP JUMPDEST PUSH1 0x40 MLOAD DUP1 SWAP2 SUB SWAP1 REVERT JUMPDEST POP PUSH2 0x3A5 JUMP JUMPDEST PUSH1 0xF8 PUSH1 0xFF AND DUP2 LT ISZERO PUSH2 0x33D JUMPI PUSH1 0x1 PUSH1 0xC0 PUSH1 0xFF AND DUP3 SUB ADD SWAP2 POP PUSH2 0x3A4 JUMP JUMPDEST PUSH1 0x0 PUSH1 0xF7 DUP3 SUB PUSH1 0x1 DUP7 ADD SWAP6 POP DUP1 PUSH1 0x20 SUB PUSH2 0x100 EXP DUP7 MLOAD DIV SWAP2 POP PUSH1 0x1 DUP2 ADD DUP3 ADD SWAP4 POP POP DUP1 DUP4 LT ISZERO PUSH2 0x3A2 JUMPI PUSH1 0x40 MLOAD PUSH32 0x8C379A000000000000000000000000000000000000000000000000000000000 DUP2 MSTORE PUSH1 0x4 ADD PUSH2 0x399 SWAP1 PUSH2 0x4C3 JUMP JUMPDEST PUSH1 0x40 MLOAD DUP1 SWAP2 SUB SWAP1 REVERT JUMPDEST POP JUMPDEST JUMPDEST JUMPDEST JUMPDEST DUP2 SWAP3 POP POP POP SWAP2 SWAP1 POP JUMP JUMPDEST PUSH1 0x0 DUP2 CALLDATALOAD SWAP1 POP PUSH2 0x3C0 DUP2 PUSH2 0x5AC JUMP JUMPDEST SWAP3 SWAP2 POP POP JUMP JUMPDEST PUSH1 0x0 PUSH1 0x20 DUP3 DUP5 SUB SLT ISZERO PUSH2 0x3D8 JUMPI PUSH1 0x0 DUP1 REVERT JUMPDEST PUSH1 0x0 PUSH2 0x3E6 DUP5 DUP3 DUP6 ADD PUSH2 0x3B1 JUMP JUMPDEST SWAP2 POP POP SWAP3 SWAP2 POP POP JUMP JUMPDEST PUSH2 0x3F8 DUP2 PUSH2 0x554 JUMP JUMPDEST DUP3 MSTORE POP POP JUMP JUMPDEST PUSH1 0x0 PUSH2 0x409 DUP3 PUSH2 0x527 JUMP JUMPDEST PUSH2 0x413 DUP2 DUP6 PUSH2 0x532 JUMP JUMPDEST SWAP4 POP PUSH2 0x423 DUP2 DUP6 PUSH1 0x20 DUP7 ADD PUSH2 0x568 JUMP JUMPDEST PUSH2 0x42C DUP2 PUSH2 0x59B JUMP JUMPDEST DUP5 ADD SWAP2 POP POP SWAP3 SWAP2 POP POP JUMP JUMPDEST PUSH1 0x0 PUSH2 0x444 PUSH1 0x11 DUP4 PUSH2 0x543 JUMP JUMPDEST SWAP2 POP PUSH32 0x6164646974696F6E206F766572666C6F77000000000000000000000000000000 PUSH1 0x0 DUP4 ADD MSTORE PUSH1 0x20 DUP3 ADD SWAP1 POP SWAP2 SWAP1 POP JUMP JUMPDEST PUSH2 0x480 DUP2 PUSH2 0x55E JUMP JUMPDEST DUP3 MSTORE POP POP JUMP JUMPDEST PUSH1 0x0 PUSH1 0x20 DUP3 ADD SWAP1 POP PUSH2 0x49B PUSH1 0x0 DUP4 ADD DUP5 PUSH2 0x3EF JUMP JUMPDEST SWAP3 SWAP2 POP POP JUMP JUMPDEST PUSH1 0x0 PUSH1 0x20 DUP3 ADD SWAP1 POP DUP2 DUP2 SUB PUSH1 0x0 DUP4 ADD MSTORE PUSH2 0x4BB DUP2 DUP5 PUSH2 0x3FE JUMP JUMPDEST SWAP1 POP SWAP3 SWAP2 POP POP JUMP JUMPDEST PUSH1 0x0 PUSH1 0x20 DUP3 ADD SWAP1 POP DUP2 DUP2 SUB PUSH1 0x0 DUP4 ADD MSTORE PUSH2 0x4DC DUP2 PUSH2 0x437 JUMP JUMPDEST SWAP1 POP SWAP2 SWAP1 POP JUMP JUMPDEST PUSH1 0x0 PUSH1 0x20 DUP3 ADD SWAP1 POP PUSH2 0x4F8 PUSH1 0x0 DUP4 ADD DUP5 PUSH2 0x477 JUMP JUMPDEST SWAP3 SWAP2 POP POP JUMP JUMPDEST PUSH1 0x0 PUSH1 0x40 DUP3 ADD SWAP1 POP PUSH2 0x513 PUSH1 0x0 DUP4 ADD DUP6 PUSH2 0x477 JUMP JUMPDEST PUSH2 0x520 PUSH1 0x20 DUP4 ADD DUP5 PUSH2 0x477 JUMP JUMPDEST SWAP4 SWAP3 POP POP POP JUMP JUMPDEST PUSH1 0x0 DUP2 MLOAD SWAP1 POP SWAP2 SWAP1 POP JUMP JUMPDEST PUSH1 0x0 DUP3 DUP3 MSTORE PUSH1 0x20 DUP3 ADD SWAP1 POP SWAP3 SWAP2 POP POP JUMP JUMPDEST PUSH1 0x0 DUP3 DUP3 MSTORE PUSH1 0x20 DUP3 ADD SWAP1 POP SWAP3 SWAP2 POP POP JUMP JUMPDEST PUSH1 0x0 DUP2 SWAP1 POP SWAP2 SWAP1 POP JUMP JUMPDEST PUSH1 0x0 DUP2 SWAP1 POP SWAP2 SWAP1 POP JUMP JUMPDEST PUSH1 0x0 JUMPDEST DUP4 DUP2 LT ISZERO PUSH2 0x586 JUMPI DUP1 DUP3 ADD MLOAD DUP2 DUP5 ADD MSTORE PUSH1 0x20 DUP2 ADD SWAP1 POP PUSH2 0x56B JUMP JUMPDEST DUP4 DUP2 GT ISZERO PUSH2 0x595 JUMPI PUSH1 0x0 DUP5 DUP5 ADD MSTORE JUMPDEST POP POP POP POP JUMP JUMPDEST PUSH1 0x0 PUSH1 0x1F NOT PUSH1 0x1F DUP4 ADD AND SWAP1 POP SWAP2 SWAP1 POP JUMP JUMPDEST PUSH2 0x5B5 DUP2 PUSH2 0x55E JUMP JUMPDEST DUP2 EQ PUSH2 0x5C0 JUMPI PUSH1 0x0 DUP1 REVERT JUMPDEST POP JUMP INVALID LOG2 PUSH5 0x6970667358 0x22 SLT KECCAK256 CALL SWAP11 0xE8 DUP4 0x22 0x29 0xE8 SUB DUP15 STOP PUSH9 0x252D76ED45BBCE66B0 PUSH26 0x8340CFE5460ACA288C678664736F6C634300060400334E414C45 0x48 0x48 0x4A MSTORE8 SELFBALANCE DIFFICULTY MSTORE8 DIFFICULTY SELFBALANCE 0x48 0x4A MSTORE8 DIFFICULTY 0x48 MSTORE8 SSTORE 0x48 DIFFICULTY 0x4A MSTORE8 0x48 DIFFICULTY 0x4A MSTORE8 0x48 0x4A MSTORE8 0x48 0x4A MSTORE8 0x48 DIFFICULTY MSTORE8 0x4A DIFFICULTY 0x48 0x4A 0x4F 0x4E SELFBALANCE JUMP 0x4F PUSH20 0x64664E417364667364664C4548484A5347445348 DIFFICULTY 0x4A MSTORE8 0x48 0x4A MSTORE8 0x48 0x4A MSTORE8 0x48 DIFFICULTY MSTORE8 0x4A DIFFICULTY 0x48 0x4A 0x4F 0x4E SELFBALANCE JUMP 0x4F "
				},
				"gasEstimates": {
					"creation": {
						"codeDepositCost": "305800",
						"executionCost": "infinite",
						"totalCost": "infinite"
					},
					"external": {
						"data1()": "infinite",
						"data2()": "1173",
						"data3()": "infinite",
						"getData(uint256)": "infinite",
						"rlpItem()": "infinite"
					},
					"internal": {
						"_itemLength(uint256)": "infinite",
						"_payloadOffset(uint256)": "infinite",
						"copy(uint256,uint256,uint256)": "infinite",
						"numItems(struct demo2.RLPItem memory)": "infinite"
					}
				},
				"methodIdentifiers": {
					"data1()": "9ffd85c4",
					"data2()": "e3a7fd75",
					"data3()": "fc26b0ab",
					"getData(uint256)": "0178fe3f",
					"rlpItem()": "a699fb03"
				}
			},
			"userdoc": {
				"methods": {}
			}
		}
	}
}