{
	"contracts/demo2.sol": {
		"demo2": {
			"abi": [
				{
					"inputs": [],
					"name": "data1",
					"outputs": [
						{
							"internalType": "bytes",
							"name": "",
							"type": "bytes"
						}
					],
					"stateMutability": "view",
					"type": "function"
				},
				{
					"inputs": [],
					"name": "data2",
					"outputs": [
						{
							"internalType": "bytes32",
							"name": "",
							"type": "bytes32"
						}
					],
					"stateMutability": "view",
					"type": "function"
				},
				{
					"inputs": [
						{
							"internalType": "uint256",
							"name": "_offst",
							"type": "uint256"
						},
						{
							"internalType": "bytes",
							"name": "_input",
							"type": "bytes"
						}
					],
					"name": "getData",
					"outputs": [
						{
							"internalType": "bool",
							"name": "",
							"type": "bool"
						}
					],
					"stateMutability": "view",
					"type": "function"
				}
			],
			"devdoc": {
				"kind": "dev",
				"methods": {},
				"version": 1
			},
			"evm": {
				"assembly": "    /* \"contracts/demo2.sol\":34:594  contract demo2 {\r... */\n  mstore(0x40, 0x80)\n    /* \"contracts/demo2.sol\":55:124  bytes public data1 = \"NALEHHJSGDSDGHJSDHSUHDJSHDJSHJSHJSHDSJDHJONGVO\" */\n  mload(0x40)\n  dup1\n  0x60\n  add\n  0x40\n  mstore\n  dup1\n  0x2e\n  dup2\n  mstore\n  0x20\n  add\n  data_4887836e294a2761413359597244d307bbe3f94827f6160d9e1a399e00e2d1be\n  0x2e\n  swap2\n  codecopy\n  0x00\n  swap1\n  dup1\n  mload\n  swap1\n  0x20\n  add\n  swap1\n  tag_1\n  swap3\n  swap2\n  swap1\n  tag_2\n  jump\t// in\ntag_1:\n  pop\n    /* \"contracts/demo2.sol\":130:177  bytes32 public data2 = \"LEHONGVOwjnfvj3weh8vKJ\" */\n  sstore(0x01, 0x4c45484f4e47564f776a6e66766a3377656838764b4a00000000000000000000)\n    /* \"contracts/demo2.sol\":34:594  contract demo2 {\r... */\n  callvalue\n  dup1\n  iszero\n  tag_3\n  jumpi\n  0x00\n  dup1\n  revert\ntag_3:\n  pop\n  jump(tag_4)\ntag_2:\n  dup3\n  dup1\n  sload\n  tag_5\n  swap1\n  tag_6\n  jump\t// in\ntag_5:\n  swap1\n  0x00\n  mstore\n  keccak256(0x00, 0x20)\n  swap1\n  0x1f\n  add\n  0x20\n  swap1\n  div\n  dup2\n  add\n  swap3\n  dup3\n  tag_8\n  jumpi\n  0x00\n  dup6\n  sstore\n  jump(tag_7)\ntag_8:\n  dup3\n  0x1f\n  lt\n  tag_9\n  jumpi\n  dup1\n  mload\n  not(0xff)\n  and\n  dup4\n  dup1\n  add\n  or\n  dup6\n  sstore\n  jump(tag_7)\ntag_9:\n  dup3\n  dup1\n  add\n  0x01\n  add\n  dup6\n  sstore\n  dup3\n  iszero\n  tag_7\n  jumpi\n  swap2\n  dup3\n  add\ntag_10:\n  dup3\n  dup2\n  gt\n  iszero\n  tag_11\n  jumpi\n  dup3\n  mload\n  dup3\n  sstore\n  swap2\n  0x20\n  add\n  swap2\n  swap1\n  0x01\n  add\n  swap1\n  jump(tag_10)\ntag_11:\ntag_7:\n  pop\n  swap1\n  pop\n  tag_12\n  swap2\n  swap1\n  tag_13\n  jump\t// in\ntag_12:\n  pop\n  swap1\n  jump\t// out\ntag_13:\ntag_14:\n  dup1\n  dup3\n  gt\n  iszero\n  tag_15\n  jumpi\n  0x00\n  dup2\n  0x00\n  swap1\n  sstore\n  pop\n  0x01\n  add\n  jump(tag_14)\ntag_15:\n  pop\n  swap1\n  jump\t// out\n    /* \"#utility.yul\":7:327   */\ntag_6:\n    /* \"#utility.yul\":51:57   */\n  0x00\n    /* \"#utility.yul\":88:89   */\n  0x02\n    /* \"#utility.yul\":82:86   */\n  dup3\n    /* \"#utility.yul\":78:90   */\n  div\n    /* \"#utility.yul\":68:90   */\n  swap1\n  pop\n    /* \"#utility.yul\":135:136   */\n  0x01\n    /* \"#utility.yul\":129:133   */\n  dup3\n    /* \"#utility.yul\":125:137   */\n  and\n    /* \"#utility.yul\":156:174   */\n  dup1\n    /* \"#utility.yul\":146:227   */\n  tag_18\n  jumpi\n    /* \"#utility.yul\":212:216   */\n  0x7f\n    /* \"#utility.yul\":204:210   */\n  dup3\n    /* \"#utility.yul\":200:217   */\n  and\n    /* \"#utility.yul\":190:217   */\n  swap2\n  pop\n    /* \"#utility.yul\":146:227   */\ntag_18:\n    /* \"#utility.yul\":274:276   */\n  0x20\n    /* \"#utility.yul\":266:272   */\n  dup3\n    /* \"#utility.yul\":263:277   */\n  lt\n    /* \"#utility.yul\":243:261   */\n  dup2\n    /* \"#utility.yul\":240:278   */\n  eq\n    /* \"#utility.yul\":237:321   */\n  iszero\n  tag_19\n  jumpi\n    /* \"#utility.yul\":293:311   */\n  tag_20\n  tag_21\n  jump\t// in\ntag_20:\n    /* \"#utility.yul\":237:321   */\ntag_19:\n    /* \"#utility.yul\":58:327   */\n  pop\n    /* \"#utility.yul\":7:327   */\n  swap2\n  swap1\n  pop\n  jump\t// out\n    /* \"#utility.yul\":333:513   */\ntag_21:\n    /* \"#utility.yul\":381:458   */\n  0x4e487b7100000000000000000000000000000000000000000000000000000000\n    /* \"#utility.yul\":378:379   */\n  0x00\n    /* \"#utility.yul\":371:459   */\n  mstore\n    /* \"#utility.yul\":478:482   */\n  0x22\n    /* \"#utility.yul\":475:476   */\n  0x04\n    /* \"#utility.yul\":468:483   */\n  mstore\n    /* \"#utility.yul\":502:506   */\n  0x24\n    /* \"#utility.yul\":499:500   */\n  0x00\n    /* \"#utility.yul\":492:507   */\n  revert\n    /* \"contracts/demo2.sol\":34:594  contract demo2 {\r... */\ntag_4:\n  dataSize(sub_0)\n  dup1\n  dataOffset(sub_0)\n  0x00\n  codecopy\n  0x00\n  return\nstop\ndata_4887836e294a2761413359597244d307bbe3f94827f6160d9e1a399e00e2d1be 4e414c4548484a534744534447484a534448535548444a5348444a53484a53484a534844534a44484a4f4e47564f\n\nsub_0: assembly {\n        /* \"contracts/demo2.sol\":34:594  contract demo2 {\r... */\n      mstore(0x40, 0x80)\n      callvalue\n      dup1\n      iszero\n      tag_1\n      jumpi\n      0x00\n      dup1\n      revert\n    tag_1:\n      pop\n      jumpi(tag_2, lt(calldatasize, 0x04))\n      shr(0xe0, calldataload(0x00))\n      dup1\n      0x9ffd85c4\n      eq\n      tag_3\n      jumpi\n      dup1\n      0xe3a7fd75\n      eq\n      tag_4\n      jumpi\n      dup1\n      0xe5b935b2\n      eq\n      tag_5\n      jumpi\n    tag_2:\n      0x00\n      dup1\n      revert\n        /* \"contracts/demo2.sol\":55:124  bytes public data1 = \"NALEHHJSGDSDGHJSDHSUHDJSHDJSHJSHJSHDSJDHJONGVO\" */\n    tag_3:\n      tag_6\n      tag_7\n      jump\t// in\n    tag_6:\n      mload(0x40)\n      tag_8\n      swap2\n      swap1\n      tag_9\n      jump\t// in\n    tag_8:\n      mload(0x40)\n      dup1\n      swap2\n      sub\n      swap1\n      return\n        /* \"contracts/demo2.sol\":130:177  bytes32 public data2 = \"LEHONGVOwjnfvj3weh8vKJ\" */\n    tag_4:\n      tag_10\n      tag_11\n      jump\t// in\n    tag_10:\n      mload(0x40)\n      tag_12\n      swap2\n      swap1\n      tag_13\n      jump\t// in\n    tag_12:\n      mload(0x40)\n      dup1\n      swap2\n      sub\n      swap1\n      return\n        /* \"contracts/demo2.sol\":185:313  function getData(uint _offst, bytes memory _input) public view returns(bool) {\r... */\n    tag_5:\n      tag_14\n      0x04\n      dup1\n      calldatasize\n      sub\n      dup2\n      add\n      swap1\n      tag_15\n      swap2\n      swap1\n      tag_16\n      jump\t// in\n    tag_15:\n      tag_17\n      jump\t// in\n    tag_14:\n      mload(0x40)\n      tag_18\n      swap2\n      swap1\n      tag_19\n      jump\t// in\n    tag_18:\n      mload(0x40)\n      dup1\n      swap2\n      sub\n      swap1\n      return\n        /* \"contracts/demo2.sol\":55:124  bytes public data1 = \"NALEHHJSGDSDGHJSDHSUHDJSHDJSHJSHJSHDSJDHJONGVO\" */\n    tag_7:\n      0x00\n      dup1\n      sload\n      tag_20\n      swap1\n      tag_21\n      jump\t// in\n    tag_20:\n      dup1\n      0x1f\n      add\n      0x20\n      dup1\n      swap2\n      div\n      mul\n      0x20\n      add\n      mload(0x40)\n      swap1\n      dup2\n      add\n      0x40\n      mstore\n      dup1\n      swap3\n      swap2\n      swap1\n      dup2\n      dup2\n      mstore\n      0x20\n      add\n      dup3\n      dup1\n      sload\n      tag_22\n      swap1\n      tag_21\n      jump\t// in\n    tag_22:\n      dup1\n      iszero\n      tag_23\n      jumpi\n      dup1\n      0x1f\n      lt\n      tag_24\n      jumpi\n      0x0100\n      dup1\n      dup4\n      sload\n      div\n      mul\n      dup4\n      mstore\n      swap2\n      0x20\n      add\n      swap2\n      jump(tag_23)\n    tag_24:\n      dup3\n      add\n      swap2\n      swap1\n      0x00\n      mstore\n      keccak256(0x00, 0x20)\n      swap1\n    tag_25:\n      dup2\n      sload\n      dup2\n      mstore\n      swap1\n      0x01\n      add\n      swap1\n      0x20\n      add\n      dup1\n      dup4\n      gt\n      tag_25\n      jumpi\n      dup3\n      swap1\n      sub\n      0x1f\n      and\n      dup3\n      add\n      swap2\n    tag_23:\n      pop\n      pop\n      pop\n      pop\n      pop\n      dup2\n      jump\t// out\n        /* \"contracts/demo2.sol\":130:177  bytes32 public data2 = \"LEHONGVOwjnfvj3weh8vKJ\" */\n    tag_11:\n      sload(0x01)\n      dup2\n      jump\t// out\n        /* \"contracts/demo2.sol\":185:313  function getData(uint _offst, bytes memory _input) public view returns(bool) {\r... */\n    tag_17:\n        /* \"contracts/demo2.sol\":256:260  bool */\n      0x00\n        /* \"contracts/demo2.sol\":279:306  bytesToBool(_offst, _input) */\n      tag_27\n        /* \"contracts/demo2.sol\":291:297  _offst */\n      dup4\n        /* \"contracts/demo2.sol\":299:305  _input */\n      dup4\n        /* \"contracts/demo2.sol\":279:290  bytesToBool */\n      tag_28\n        /* \"contracts/demo2.sol\":279:306  bytesToBool(_offst, _input) */\n      jump\t// in\n    tag_27:\n        /* \"contracts/demo2.sol\":272:306  return bytesToBool(_offst, _input) */\n      swap1\n      pop\n        /* \"contracts/demo2.sol\":185:313  function getData(uint _offst, bytes memory _input) public view returns(bool) {\r... */\n      swap3\n      swap2\n      pop\n      pop\n      jump\t// out\n        /* \"contracts/demo2.sol\":324:578  function bytesToBool(uint _offst, bytes memory _input) internal pure returns (bool _output) {\r... */\n    tag_28:\n        /* \"contracts/demo2.sol\":402:414  bool _output */\n      0x00\n        /* \"contracts/demo2.sol\":437:444  uint8 x */\n      dup1\n        /* \"contracts/demo2.sol\":502:508  _offst */\n      dup4\n        /* \"contracts/demo2.sol\":494:500  _input */\n      dup4\n        /* \"contracts/demo2.sol\":490:509  add(_input, _offst) */\n      add\n        /* \"contracts/demo2.sol\":484:510  mload(add(_input, _offst)) */\n      mload\n        /* \"contracts/demo2.sol\":479:510  x := mload(add(_input, _offst)) */\n      swap1\n      pop\n        /* \"contracts/demo2.sol\":534:535  0 */\n      0x00\n        /* \"contracts/demo2.sol\":531:532  x */\n      dup2\n        /* \"contracts/demo2.sol\":531:535  x==0 */\n      0xff\n      and\n      eq\n        /* \"contracts/demo2.sol\":531:570  x==0 ? _output = false : _output = true */\n      tag_30\n      jumpi\n        /* \"contracts/demo2.sol\":566:570  true */\n      0x01\n        /* \"contracts/demo2.sol\":556:570  _output = true */\n      swap2\n      pop\n      dup2\n        /* \"contracts/demo2.sol\":531:570  x==0 ? _output = false : _output = true */\n      jump(tag_31)\n    tag_30:\n        /* \"contracts/demo2.sol\":548:553  false */\n      0x00\n        /* \"contracts/demo2.sol\":538:553  _output = false */\n      swap2\n      pop\n      dup2\n        /* \"contracts/demo2.sol\":531:570  x==0 ? _output = false : _output = true */\n    tag_31:\n      pop\n        /* \"contracts/demo2.sol\":416:578  {\r... */\n      pop\n        /* \"contracts/demo2.sol\":324:578  function bytesToBool(uint _offst, bytes memory _input) internal pure returns (bool _output) {\r... */\n      swap3\n      swap2\n      pop\n      pop\n      jump\t// out\n        /* \"#utility.yul\":7:417   */\n    tag_33:\n        /* \"#utility.yul\":84:89   */\n      0x00\n        /* \"#utility.yul\":109:174   */\n      tag_35\n        /* \"#utility.yul\":125:173   */\n      tag_36\n        /* \"#utility.yul\":166:172   */\n      dup5\n        /* \"#utility.yul\":125:173   */\n      tag_37\n      jump\t// in\n    tag_36:\n        /* \"#utility.yul\":109:174   */\n      tag_38\n      jump\t// in\n    tag_35:\n        /* \"#utility.yul\":100:174   */\n      swap1\n      pop\n        /* \"#utility.yul\":197:203   */\n      dup3\n        /* \"#utility.yul\":190:195   */\n      dup2\n        /* \"#utility.yul\":183:204   */\n      mstore\n        /* \"#utility.yul\":235:239   */\n      0x20\n        /* \"#utility.yul\":228:233   */\n      dup2\n        /* \"#utility.yul\":224:240   */\n      add\n        /* \"#utility.yul\":273:276   */\n      dup5\n        /* \"#utility.yul\":264:270   */\n      dup5\n        /* \"#utility.yul\":259:262   */\n      dup5\n        /* \"#utility.yul\":255:271   */\n      add\n        /* \"#utility.yul\":252:277   */\n      gt\n        /* \"#utility.yul\":249:361   */\n      iszero\n      tag_39\n      jumpi\n        /* \"#utility.yul\":280:359   */\n      tag_40\n      tag_41\n      jump\t// in\n    tag_40:\n        /* \"#utility.yul\":249:361   */\n    tag_39:\n        /* \"#utility.yul\":370:411   */\n      tag_42\n        /* \"#utility.yul\":404:410   */\n      dup5\n        /* \"#utility.yul\":399:402   */\n      dup3\n        /* \"#utility.yul\":394:397   */\n      dup6\n        /* \"#utility.yul\":370:411   */\n      tag_43\n      jump\t// in\n    tag_42:\n        /* \"#utility.yul\":90:417   */\n      pop\n        /* \"#utility.yul\":7:417   */\n      swap4\n      swap3\n      pop\n      pop\n      pop\n      jump\t// out\n        /* \"#utility.yul\":436:774   */\n    tag_44:\n        /* \"#utility.yul\":491:496   */\n      0x00\n        /* \"#utility.yul\":540:543   */\n      dup3\n        /* \"#utility.yul\":533:537   */\n      0x1f\n        /* \"#utility.yul\":525:531   */\n      dup4\n        /* \"#utility.yul\":521:538   */\n      add\n        /* \"#utility.yul\":517:544   */\n      slt\n        /* \"#utility.yul\":507:629   */\n      tag_46\n      jumpi\n        /* \"#utility.yul\":548:627   */\n      tag_47\n      tag_48\n      jump\t// in\n    tag_47:\n        /* \"#utility.yul\":507:629   */\n    tag_46:\n        /* \"#utility.yul\":665:671   */\n      dup2\n        /* \"#utility.yul\":652:672   */\n      calldataload\n        /* \"#utility.yul\":690:768   */\n      tag_49\n        /* \"#utility.yul\":764:767   */\n      dup5\n        /* \"#utility.yul\":756:762   */\n      dup3\n        /* \"#utility.yul\":749:753   */\n      0x20\n        /* \"#utility.yul\":741:747   */\n      dup7\n        /* \"#utility.yul\":737:754   */\n      add\n        /* \"#utility.yul\":690:768   */\n      tag_33\n      jump\t// in\n    tag_49:\n        /* \"#utility.yul\":681:768   */\n      swap2\n      pop\n        /* \"#utility.yul\":497:774   */\n      pop\n        /* \"#utility.yul\":436:774   */\n      swap3\n      swap2\n      pop\n      pop\n      jump\t// out\n        /* \"#utility.yul\":780:919   */\n    tag_50:\n        /* \"#utility.yul\":826:831   */\n      0x00\n        /* \"#utility.yul\":864:870   */\n      dup2\n        /* \"#utility.yul\":851:871   */\n      calldataload\n        /* \"#utility.yul\":842:871   */\n      swap1\n      pop\n        /* \"#utility.yul\":880:913   */\n      tag_52\n        /* \"#utility.yul\":907:912   */\n      dup2\n        /* \"#utility.yul\":880:913   */\n      tag_53\n      jump\t// in\n    tag_52:\n        /* \"#utility.yul\":780:919   */\n      swap3\n      swap2\n      pop\n      pop\n      jump\t// out\n        /* \"#utility.yul\":925:1577   */\n    tag_16:\n        /* \"#utility.yul\":1002:1008   */\n      0x00\n        /* \"#utility.yul\":1010:1016   */\n      dup1\n        /* \"#utility.yul\":1059:1061   */\n      0x40\n        /* \"#utility.yul\":1047:1056   */\n      dup4\n        /* \"#utility.yul\":1038:1045   */\n      dup6\n        /* \"#utility.yul\":1034:1057   */\n      sub\n        /* \"#utility.yul\":1030:1062   */\n      slt\n        /* \"#utility.yul\":1027:1146   */\n      iszero\n      tag_55\n      jumpi\n        /* \"#utility.yul\":1065:1144   */\n      tag_56\n      tag_57\n      jump\t// in\n    tag_56:\n        /* \"#utility.yul\":1027:1146   */\n    tag_55:\n        /* \"#utility.yul\":1185:1186   */\n      0x00\n        /* \"#utility.yul\":1210:1263   */\n      tag_58\n        /* \"#utility.yul\":1255:1262   */\n      dup6\n        /* \"#utility.yul\":1246:1252   */\n      dup3\n        /* \"#utility.yul\":1235:1244   */\n      dup7\n        /* \"#utility.yul\":1231:1253   */\n      add\n        /* \"#utility.yul\":1210:1263   */\n      tag_50\n      jump\t// in\n    tag_58:\n        /* \"#utility.yul\":1200:1263   */\n      swap3\n      pop\n        /* \"#utility.yul\":1156:1273   */\n      pop\n        /* \"#utility.yul\":1340:1342   */\n      0x20\n        /* \"#utility.yul\":1329:1338   */\n      dup4\n        /* \"#utility.yul\":1325:1343   */\n      add\n        /* \"#utility.yul\":1312:1344   */\n      calldataload\n        /* \"#utility.yul\":1371:1389   */\n      0xffffffffffffffff\n        /* \"#utility.yul\":1363:1369   */\n      dup2\n        /* \"#utility.yul\":1360:1390   */\n      gt\n        /* \"#utility.yul\":1357:1474   */\n      iszero\n      tag_59\n      jumpi\n        /* \"#utility.yul\":1393:1472   */\n      tag_60\n      tag_61\n      jump\t// in\n    tag_60:\n        /* \"#utility.yul\":1357:1474   */\n    tag_59:\n        /* \"#utility.yul\":1498:1560   */\n      tag_62\n        /* \"#utility.yul\":1552:1559   */\n      dup6\n        /* \"#utility.yul\":1543:1549   */\n      dup3\n        /* \"#utility.yul\":1532:1541   */\n      dup7\n        /* \"#utility.yul\":1528:1550   */\n      add\n        /* \"#utility.yul\":1498:1560   */\n      tag_44\n      jump\t// in\n    tag_62:\n        /* \"#utility.yul\":1488:1560   */\n      swap2\n      pop\n        /* \"#utility.yul\":1283:1570   */\n      pop\n        /* \"#utility.yul\":925:1577   */\n      swap3\n      pop\n      swap3\n      swap1\n      pop\n      jump\t// out\n        /* \"#utility.yul\":1583:1692   */\n    tag_63:\n        /* \"#utility.yul\":1664:1685   */\n      tag_65\n        /* \"#utility.yul\":1679:1684   */\n      dup2\n        /* \"#utility.yul\":1664:1685   */\n      tag_66\n      jump\t// in\n    tag_65:\n        /* \"#utility.yul\":1659:1662   */\n      dup3\n        /* \"#utility.yul\":1652:1686   */\n      mstore\n        /* \"#utility.yul\":1583:1692   */\n      pop\n      pop\n      jump\t// out\n        /* \"#utility.yul\":1698:1816   */\n    tag_67:\n        /* \"#utility.yul\":1785:1809   */\n      tag_69\n        /* \"#utility.yul\":1803:1808   */\n      dup2\n        /* \"#utility.yul\":1785:1809   */\n      tag_70\n      jump\t// in\n    tag_69:\n        /* \"#utility.yul\":1780:1783   */\n      dup3\n        /* \"#utility.yul\":1773:1810   */\n      mstore\n        /* \"#utility.yul\":1698:1816   */\n      pop\n      pop\n      jump\t// out\n        /* \"#utility.yul\":1822:2182   */\n    tag_71:\n        /* \"#utility.yul\":1908:1911   */\n      0x00\n        /* \"#utility.yul\":1936:1974   */\n      tag_73\n        /* \"#utility.yul\":1968:1973   */\n      dup3\n        /* \"#utility.yul\":1936:1974   */\n      tag_74\n      jump\t// in\n    tag_73:\n        /* \"#utility.yul\":1990:2060   */\n      tag_75\n        /* \"#utility.yul\":2053:2059   */\n      dup2\n        /* \"#utility.yul\":2048:2051   */\n      dup6\n        /* \"#utility.yul\":1990:2060   */\n      tag_76\n      jump\t// in\n    tag_75:\n        /* \"#utility.yul\":1983:2060   */\n      swap4\n      pop\n        /* \"#utility.yul\":2069:2121   */\n      tag_77\n        /* \"#utility.yul\":2114:2120   */\n      dup2\n        /* \"#utility.yul\":2109:2112   */\n      dup6\n        /* \"#utility.yul\":2102:2106   */\n      0x20\n        /* \"#utility.yul\":2095:2100   */\n      dup7\n        /* \"#utility.yul\":2091:2107   */\n      add\n        /* \"#utility.yul\":2069:2121   */\n      tag_78\n      jump\t// in\n    tag_77:\n        /* \"#utility.yul\":2146:2175   */\n      tag_79\n        /* \"#utility.yul\":2168:2174   */\n      dup2\n        /* \"#utility.yul\":2146:2175   */\n      tag_80\n      jump\t// in\n    tag_79:\n        /* \"#utility.yul\":2141:2144   */\n      dup5\n        /* \"#utility.yul\":2137:2176   */\n      add\n        /* \"#utility.yul\":2130:2176   */\n      swap2\n      pop\n        /* \"#utility.yul\":1912:2182   */\n      pop\n        /* \"#utility.yul\":1822:2182   */\n      swap3\n      swap2\n      pop\n      pop\n      jump\t// out\n        /* \"#utility.yul\":2188:2398   */\n    tag_19:\n        /* \"#utility.yul\":2275:2279   */\n      0x00\n        /* \"#utility.yul\":2313:2315   */\n      0x20\n        /* \"#utility.yul\":2302:2311   */\n      dup3\n        /* \"#utility.yul\":2298:2316   */\n      add\n        /* \"#utility.yul\":2290:2316   */\n      swap1\n      pop\n        /* \"#utility.yul\":2326:2391   */\n      tag_82\n        /* \"#utility.yul\":2388:2389   */\n      0x00\n        /* \"#utility.yul\":2377:2386   */\n      dup4\n        /* \"#utility.yul\":2373:2390   */\n      add\n        /* \"#utility.yul\":2364:2370   */\n      dup5\n        /* \"#utility.yul\":2326:2391   */\n      tag_63\n      jump\t// in\n    tag_82:\n        /* \"#utility.yul\":2188:2398   */\n      swap3\n      swap2\n      pop\n      pop\n      jump\t// out\n        /* \"#utility.yul\":2404:2626   */\n    tag_13:\n        /* \"#utility.yul\":2497:2501   */\n      0x00\n        /* \"#utility.yul\":2535:2537   */\n      0x20\n        /* \"#utility.yul\":2524:2533   */\n      dup3\n        /* \"#utility.yul\":2520:2538   */\n      add\n        /* \"#utility.yul\":2512:2538   */\n      swap1\n      pop\n        /* \"#utility.yul\":2548:2619   */\n      tag_84\n        /* \"#utility.yul\":2616:2617   */\n      0x00\n        /* \"#utility.yul\":2605:2614   */\n      dup4\n        /* \"#utility.yul\":2601:2618   */\n      add\n        /* \"#utility.yul\":2592:2598   */\n      dup5\n        /* \"#utility.yul\":2548:2619   */\n      tag_67\n      jump\t// in\n    tag_84:\n        /* \"#utility.yul\":2404:2626   */\n      swap3\n      swap2\n      pop\n      pop\n      jump\t// out\n        /* \"#utility.yul\":2632:2941   */\n    tag_9:\n        /* \"#utility.yul\":2743:2747   */\n      0x00\n        /* \"#utility.yul\":2781:2783   */\n      0x20\n        /* \"#utility.yul\":2770:2779   */\n      dup3\n        /* \"#utility.yul\":2766:2784   */\n      add\n        /* \"#utility.yul\":2758:2784   */\n      swap1\n      pop\n        /* \"#utility.yul\":2830:2839   */\n      dup2\n        /* \"#utility.yul\":2824:2828   */\n      dup2\n        /* \"#utility.yul\":2820:2840   */\n      sub\n        /* \"#utility.yul\":2816:2817   */\n      0x00\n        /* \"#utility.yul\":2805:2814   */\n      dup4\n        /* \"#utility.yul\":2801:2818   */\n      add\n        /* \"#utility.yul\":2794:2841   */\n      mstore\n        /* \"#utility.yul\":2858:2934   */\n      tag_86\n        /* \"#utility.yul\":2929:2933   */\n      dup2\n        /* \"#utility.yul\":2920:2926   */\n      dup5\n        /* \"#utility.yul\":2858:2934   */\n      tag_71\n      jump\t// in\n    tag_86:\n        /* \"#utility.yul\":2850:2934   */\n      swap1\n      pop\n        /* \"#utility.yul\":2632:2941   */\n      swap3\n      swap2\n      pop\n      pop\n      jump\t// out\n        /* \"#utility.yul\":2947:3076   */\n    tag_38:\n        /* \"#utility.yul\":2981:2987   */\n      0x00\n        /* \"#utility.yul\":3008:3028   */\n      tag_88\n      tag_89\n      jump\t// in\n    tag_88:\n        /* \"#utility.yul\":2998:3028   */\n      swap1\n      pop\n        /* \"#utility.yul\":3037:3070   */\n      tag_90\n        /* \"#utility.yul\":3065:3069   */\n      dup3\n        /* \"#utility.yul\":3057:3063   */\n      dup3\n        /* \"#utility.yul\":3037:3070   */\n      tag_91\n      jump\t// in\n    tag_90:\n        /* \"#utility.yul\":2947:3076   */\n      swap2\n      swap1\n      pop\n      jump\t// out\n        /* \"#utility.yul\":3082:3157   */\n    tag_89:\n        /* \"#utility.yul\":3115:3121   */\n      0x00\n        /* \"#utility.yul\":3148:3150   */\n      0x40\n        /* \"#utility.yul\":3142:3151   */\n      mload\n        /* \"#utility.yul\":3132:3151   */\n      swap1\n      pop\n        /* \"#utility.yul\":3082:3157   */\n      swap1\n      jump\t// out\n        /* \"#utility.yul\":3163:3470   */\n    tag_37:\n        /* \"#utility.yul\":3224:3228   */\n      0x00\n        /* \"#utility.yul\":3314:3332   */\n      0xffffffffffffffff\n        /* \"#utility.yul\":3306:3312   */\n      dup3\n        /* \"#utility.yul\":3303:3333   */\n      gt\n        /* \"#utility.yul\":3300:3356   */\n      iszero\n      tag_94\n      jumpi\n        /* \"#utility.yul\":3336:3354   */\n      tag_95\n      tag_96\n      jump\t// in\n    tag_95:\n        /* \"#utility.yul\":3300:3356   */\n    tag_94:\n        /* \"#utility.yul\":3374:3403   */\n      tag_97\n        /* \"#utility.yul\":3396:3402   */\n      dup3\n        /* \"#utility.yul\":3374:3403   */\n      tag_80\n      jump\t// in\n    tag_97:\n        /* \"#utility.yul\":3366:3403   */\n      swap1\n      pop\n        /* \"#utility.yul\":3458:3462   */\n      0x20\n        /* \"#utility.yul\":3452:3456   */\n      dup2\n        /* \"#utility.yul\":3448:3463   */\n      add\n        /* \"#utility.yul\":3440:3463   */\n      swap1\n      pop\n        /* \"#utility.yul\":3163:3470   */\n      swap2\n      swap1\n      pop\n      jump\t// out\n        /* \"#utility.yul\":3476:3574   */\n    tag_74:\n        /* \"#utility.yul\":3527:3533   */\n      0x00\n        /* \"#utility.yul\":3561:3566   */\n      dup2\n        /* \"#utility.yul\":3555:3567   */\n      mload\n        /* \"#utility.yul\":3545:3567   */\n      swap1\n      pop\n        /* \"#utility.yul\":3476:3574   */\n      swap2\n      swap1\n      pop\n      jump\t// out\n        /* \"#utility.yul\":3580:3748   */\n    tag_76:\n        /* \"#utility.yul\":3663:3674   */\n      0x00\n        /* \"#utility.yul\":3697:3703   */\n      dup3\n        /* \"#utility.yul\":3692:3695   */\n      dup3\n        /* \"#utility.yul\":3685:3704   */\n      mstore\n        /* \"#utility.yul\":3737:3741   */\n      0x20\n        /* \"#utility.yul\":3732:3735   */\n      dup3\n        /* \"#utility.yul\":3728:3742   */\n      add\n        /* \"#utility.yul\":3713:3742   */\n      swap1\n      pop\n        /* \"#utility.yul\":3580:3748   */\n      swap3\n      swap2\n      pop\n      pop\n      jump\t// out\n        /* \"#utility.yul\":3754:3844   */\n    tag_66:\n        /* \"#utility.yul\":3788:3795   */\n      0x00\n        /* \"#utility.yul\":3831:3836   */\n      dup2\n        /* \"#utility.yul\":3824:3837   */\n      iszero\n        /* \"#utility.yul\":3817:3838   */\n      iszero\n        /* \"#utility.yul\":3806:3838   */\n      swap1\n      pop\n        /* \"#utility.yul\":3754:3844   */\n      swap2\n      swap1\n      pop\n      jump\t// out\n        /* \"#utility.yul\":3850:3927   */\n    tag_70:\n        /* \"#utility.yul\":3887:3894   */\n      0x00\n        /* \"#utility.yul\":3916:3921   */\n      dup2\n        /* \"#utility.yul\":3905:3921   */\n      swap1\n      pop\n        /* \"#utility.yul\":3850:3927   */\n      swap2\n      swap1\n      pop\n      jump\t// out\n        /* \"#utility.yul\":3933:4010   */\n    tag_102:\n        /* \"#utility.yul\":3970:3977   */\n      0x00\n        /* \"#utility.yul\":3999:4004   */\n      dup2\n        /* \"#utility.yul\":3988:4004   */\n      swap1\n      pop\n        /* \"#utility.yul\":3933:4010   */\n      swap2\n      swap1\n      pop\n      jump\t// out\n        /* \"#utility.yul\":4016:4170   */\n    tag_43:\n        /* \"#utility.yul\":4100:4106   */\n      dup3\n        /* \"#utility.yul\":4095:4098   */\n      dup2\n        /* \"#utility.yul\":4090:4093   */\n      dup4\n        /* \"#utility.yul\":4077:4107   */\n      calldatacopy\n        /* \"#utility.yul\":4162:4163   */\n      0x00\n        /* \"#utility.yul\":4153:4159   */\n      dup4\n        /* \"#utility.yul\":4148:4151   */\n      dup4\n        /* \"#utility.yul\":4144:4160   */\n      add\n        /* \"#utility.yul\":4137:4164   */\n      mstore\n        /* \"#utility.yul\":4016:4170   */\n      pop\n      pop\n      pop\n      jump\t// out\n        /* \"#utility.yul\":4176:4483   */\n    tag_78:\n        /* \"#utility.yul\":4244:4245   */\n      0x00\n        /* \"#utility.yul\":4254:4367   */\n    tag_106:\n        /* \"#utility.yul\":4268:4274   */\n      dup4\n        /* \"#utility.yul\":4265:4266   */\n      dup2\n        /* \"#utility.yul\":4262:4275   */\n      lt\n        /* \"#utility.yul\":4254:4367   */\n      iszero\n      tag_108\n      jumpi\n        /* \"#utility.yul\":4353:4354   */\n      dup1\n        /* \"#utility.yul\":4348:4351   */\n      dup3\n        /* \"#utility.yul\":4344:4355   */\n      add\n        /* \"#utility.yul\":4338:4356   */\n      mload\n        /* \"#utility.yul\":4334:4335   */\n      dup2\n        /* \"#utility.yul\":4329:4332   */\n      dup5\n        /* \"#utility.yul\":4325:4336   */\n      add\n        /* \"#utility.yul\":4318:4357   */\n      mstore\n        /* \"#utility.yul\":4290:4292   */\n      0x20\n        /* \"#utility.yul\":4287:4288   */\n      dup2\n        /* \"#utility.yul\":4283:4293   */\n      add\n        /* \"#utility.yul\":4278:4293   */\n      swap1\n      pop\n        /* \"#utility.yul\":4254:4367   */\n      jump(tag_106)\n    tag_108:\n        /* \"#utility.yul\":4385:4391   */\n      dup4\n        /* \"#utility.yul\":4382:4383   */\n      dup2\n        /* \"#utility.yul\":4379:4392   */\n      gt\n        /* \"#utility.yul\":4376:4477   */\n      iszero\n      tag_109\n      jumpi\n        /* \"#utility.yul\":4465:4466   */\n      0x00\n        /* \"#utility.yul\":4456:4462   */\n      dup5\n        /* \"#utility.yul\":4451:4454   */\n      dup5\n        /* \"#utility.yul\":4447:4463   */\n      add\n        /* \"#utility.yul\":4440:4467   */\n      mstore\n        /* \"#utility.yul\":4376:4477   */\n    tag_109:\n        /* \"#utility.yul\":4225:4483   */\n      pop\n        /* \"#utility.yul\":4176:4483   */\n      pop\n      pop\n      pop\n      jump\t// out\n        /* \"#utility.yul\":4489:4809   */\n    tag_21:\n        /* \"#utility.yul\":4533:4539   */\n      0x00\n        /* \"#utility.yul\":4570:4571   */\n      0x02\n        /* \"#utility.yul\":4564:4568   */\n      dup3\n        /* \"#utility.yul\":4560:4572   */\n      div\n        /* \"#utility.yul\":4550:4572   */\n      swap1\n      pop\n        /* \"#utility.yul\":4617:4618   */\n      0x01\n        /* \"#utility.yul\":4611:4615   */\n      dup3\n        /* \"#utility.yul\":4607:4619   */\n      and\n        /* \"#utility.yul\":4638:4656   */\n      dup1\n        /* \"#utility.yul\":4628:4709   */\n      tag_111\n      jumpi\n        /* \"#utility.yul\":4694:4698   */\n      0x7f\n        /* \"#utility.yul\":4686:4692   */\n      dup3\n        /* \"#utility.yul\":4682:4699   */\n      and\n        /* \"#utility.yul\":4672:4699   */\n      swap2\n      pop\n        /* \"#utility.yul\":4628:4709   */\n    tag_111:\n        /* \"#utility.yul\":4756:4758   */\n      0x20\n        /* \"#utility.yul\":4748:4754   */\n      dup3\n        /* \"#utility.yul\":4745:4759   */\n      lt\n        /* \"#utility.yul\":4725:4743   */\n      dup2\n        /* \"#utility.yul\":4722:4760   */\n      eq\n        /* \"#utility.yul\":4719:4803   */\n      iszero\n      tag_112\n      jumpi\n        /* \"#utility.yul\":4775:4793   */\n      tag_113\n      tag_114\n      jump\t// in\n    tag_113:\n        /* \"#utility.yul\":4719:4803   */\n    tag_112:\n        /* \"#utility.yul\":4540:4809   */\n      pop\n        /* \"#utility.yul\":4489:4809   */\n      swap2\n      swap1\n      pop\n      jump\t// out\n        /* \"#utility.yul\":4815:5096   */\n    tag_91:\n        /* \"#utility.yul\":4898:4925   */\n      tag_116\n        /* \"#utility.yul\":4920:4924   */\n      dup3\n        /* \"#utility.yul\":4898:4925   */\n      tag_80\n      jump\t// in\n    tag_116:\n        /* \"#utility.yul\":4890:4896   */\n      dup2\n        /* \"#utility.yul\":4886:4926   */\n      add\n        /* \"#utility.yul\":5028:5034   */\n      dup2\n        /* \"#utility.yul\":5016:5026   */\n      dup2\n        /* \"#utility.yul\":5013:5035   */\n      lt\n        /* \"#utility.yul\":4992:5010   */\n      0xffffffffffffffff\n        /* \"#utility.yul\":4980:4990   */\n      dup3\n        /* \"#utility.yul\":4977:5011   */\n      gt\n        /* \"#utility.yul\":4974:5036   */\n      or\n        /* \"#utility.yul\":4971:5059   */\n      iszero\n      tag_117\n      jumpi\n        /* \"#utility.yul\":5039:5057   */\n      tag_118\n      tag_96\n      jump\t// in\n    tag_118:\n        /* \"#utility.yul\":4971:5059   */\n    tag_117:\n        /* \"#utility.yul\":5079:5089   */\n      dup1\n        /* \"#utility.yul\":5075:5077   */\n      0x40\n        /* \"#utility.yul\":5068:5090   */\n      mstore\n        /* \"#utility.yul\":4858:5096   */\n      pop\n        /* \"#utility.yul\":4815:5096   */\n      pop\n      pop\n      jump\t// out\n        /* \"#utility.yul\":5102:5282   */\n    tag_114:\n        /* \"#utility.yul\":5150:5227   */\n      0x4e487b7100000000000000000000000000000000000000000000000000000000\n        /* \"#utility.yul\":5147:5148   */\n      0x00\n        /* \"#utility.yul\":5140:5228   */\n      mstore\n        /* \"#utility.yul\":5247:5251   */\n      0x22\n        /* \"#utility.yul\":5244:5245   */\n      0x04\n        /* \"#utility.yul\":5237:5252   */\n      mstore\n        /* \"#utility.yul\":5271:5275   */\n      0x24\n        /* \"#utility.yul\":5268:5269   */\n      0x00\n        /* \"#utility.yul\":5261:5276   */\n      revert\n        /* \"#utility.yul\":5288:5468   */\n    tag_96:\n        /* \"#utility.yul\":5336:5413   */\n      0x4e487b7100000000000000000000000000000000000000000000000000000000\n        /* \"#utility.yul\":5333:5334   */\n      0x00\n        /* \"#utility.yul\":5326:5414   */\n      mstore\n        /* \"#utility.yul\":5433:5437   */\n      0x41\n        /* \"#utility.yul\":5430:5431   */\n      0x04\n        /* \"#utility.yul\":5423:5438   */\n      mstore\n        /* \"#utility.yul\":5457:5461   */\n      0x24\n        /* \"#utility.yul\":5454:5455   */\n      0x00\n        /* \"#utility.yul\":5447:5462   */\n      revert\n        /* \"#utility.yul\":5474:5591   */\n    tag_48:\n        /* \"#utility.yul\":5583:5584   */\n      0x00\n        /* \"#utility.yul\":5580:5581   */\n      dup1\n        /* \"#utility.yul\":5573:5585   */\n      revert\n        /* \"#utility.yul\":5597:5714   */\n    tag_41:\n        /* \"#utility.yul\":5706:5707   */\n      0x00\n        /* \"#utility.yul\":5703:5704   */\n      dup1\n        /* \"#utility.yul\":5696:5708   */\n      revert\n        /* \"#utility.yul\":5720:5837   */\n    tag_61:\n        /* \"#utility.yul\":5829:5830   */\n      0x00\n        /* \"#utility.yul\":5826:5827   */\n      dup1\n        /* \"#utility.yul\":5819:5831   */\n      revert\n        /* \"#utility.yul\":5843:5960   */\n    tag_57:\n        /* \"#utility.yul\":5952:5953   */\n      0x00\n        /* \"#utility.yul\":5949:5950   */\n      dup1\n        /* \"#utility.yul\":5942:5954   */\n      revert\n        /* \"#utility.yul\":5966:6068   */\n    tag_80:\n        /* \"#utility.yul\":6007:6013   */\n      0x00\n        /* \"#utility.yul\":6058:6060   */\n      0x1f\n        /* \"#utility.yul\":6054:6061   */\n      not\n        /* \"#utility.yul\":6049:6051   */\n      0x1f\n        /* \"#utility.yul\":6042:6047   */\n      dup4\n        /* \"#utility.yul\":6038:6052   */\n      add\n        /* \"#utility.yul\":6034:6062   */\n      and\n        /* \"#utility.yul\":6024:6062   */\n      swap1\n      pop\n        /* \"#utility.yul\":5966:6068   */\n      swap2\n      swap1\n      pop\n      jump\t// out\n        /* \"#utility.yul\":6074:6196   */\n    tag_53:\n        /* \"#utility.yul\":6147:6171   */\n      tag_127\n        /* \"#utility.yul\":6165:6170   */\n      dup2\n        /* \"#utility.yul\":6147:6171   */\n      tag_102\n      jump\t// in\n    tag_127:\n        /* \"#utility.yul\":6140:6145   */\n      dup2\n        /* \"#utility.yul\":6137:6172   */\n      eq\n        /* \"#utility.yul\":6127:6190   */\n      tag_128\n      jumpi\n        /* \"#utility.yul\":6186:6187   */\n      0x00\n        /* \"#utility.yul\":6183:6184   */\n      dup1\n        /* \"#utility.yul\":6176:6188   */\n      revert\n        /* \"#utility.yul\":6127:6190   */\n    tag_128:\n        /* \"#utility.yul\":6074:6196   */\n      pop\n      jump\t// out\n\n    auxdata: 0xa26469706673582212209f6414b0355a008a28f6c76a6acdb4e165dbfb4cc8060ec13661a471b99bc07d64736f6c63430008070033\n}\n",
				"bytecode": {
					"linkReferences": {},
					"object": "60806040526040518060600160405280602e8152602001610699602e913960009080519060200190610032929190610069565b507f4c45484f4e47564f776a6e66766a3377656838764b4a0000000000000000000060015534801561006357600080fd5b5061016d565b8280546100759061010c565b90600052602060002090601f01602090048101928261009757600085556100de565b82601f106100b057805160ff19168380011785556100de565b828001600101855582156100de579182015b828111156100dd5782518255916020019190600101906100c2565b5b5090506100eb91906100ef565b5090565b5b808211156101085760008160009055506001016100f0565b5090565b6000600282049050600182168061012457607f821691505b602082108114156101385761013761013e565b5b50919050565b7f4e487b7100000000000000000000000000000000000000000000000000000000600052602260045260246000fd5b61051d8061017c6000396000f3fe608060405234801561001057600080fd5b50600436106100415760003560e01c80639ffd85c414610046578063e3a7fd7514610064578063e5b935b214610082575b600080fd5b61004e6100b2565b60405161005b91906102f4565b60405180910390f35b61006c610140565b60405161007991906102d9565b60405180910390f35b61009c6004803603810190610097919061020b565b610146565b6040516100a991906102be565b60405180910390f35b600080546100bf906103ea565b80601f01602080910402602001604051908101604052809291908181526020018280546100eb906103ea565b80156101385780601f1061010d57610100808354040283529160200191610138565b820191906000526020600020905b81548152906001019060200180831161011b57829003601f168201915b505050505081565b60015481565b6000610152838361015a565b905092915050565b60008083830151905060008160ff161461017857600191508161017e565b60009150815b505092915050565b60006101996101948461033b565b610316565b9050828152602081018484840111156101b5576101b46104b0565b5b6101c08482856103a8565b509392505050565b600082601f8301126101dd576101dc6104ab565b5b81356101ed848260208601610186565b91505092915050565b600081359050610205816104d0565b92915050565b60008060408385031215610222576102216104ba565b5b6000610230858286016101f6565b925050602083013567ffffffffffffffff811115610251576102506104b5565b5b61025d858286016101c8565b9150509250929050565b61027081610388565b82525050565b61027f81610394565b82525050565b60006102908261036c565b61029a8185610377565b93506102aa8185602086016103b7565b6102b3816104bf565b840191505092915050565b60006020820190506102d36000830184610267565b92915050565b60006020820190506102ee6000830184610276565b92915050565b6000602082019050818103600083015261030e8184610285565b905092915050565b6000610320610331565b905061032c828261041c565b919050565b6000604051905090565b600067ffffffffffffffff8211156103565761035561047c565b5b61035f826104bf565b9050602081019050919050565b600081519050919050565b600082825260208201905092915050565b60008115159050919050565b6000819050919050565b6000819050919050565b82818337600083830152505050565b60005b838110156103d55780820151818401526020810190506103ba565b838111156103e4576000848401525b50505050565b6000600282049050600182168061040257607f821691505b602082108114156104165761041561044d565b5b50919050565b610425826104bf565b810181811067ffffffffffffffff821117156104445761044361047c565b5b80604052505050565b7f4e487b7100000000000000000000000000000000000000000000000000000000600052602260045260246000fd5b7f4e487b7100000000000000000000000000000000000000000000000000000000600052604160045260246000fd5b600080fd5b600080fd5b600080fd5b600080fd5b6000601f19601f8301169050919050565b6104d98161039e565b81146104e457600080fd5b5056fea26469706673582212209f6414b0355a008a28f6c76a6acdb4e165dbfb4cc8060ec13661a471b99bc07d64736f6c634300080700334e414c4548484a534744534447484a534448535548444a5348444a53484a53484a534844534a44484a4f4e47564f",
					"opcodes": "PUSH1 0x80 PUSH1 0x40 MSTORE PUSH1 0x40 MLOAD DUP1 PUSH1 0x60 ADD PUSH1 0x40 MSTORE DUP1 PUSH1 0x2E DUP2 MSTORE PUSH1 0x20 ADD PUSH2 0x699 PUSH1 0x2E SWAP2 CODECOPY PUSH1 0x0 SWAP1 DUP1 MLOAD SWAP1 PUSH1 0x20 ADD SWAP1 PUSH2 0x32 SWAP3 SWAP2 SWAP1 PUSH2 0x69 JUMP JUMPDEST POP PUSH32 0x4C45484F4E47564F776A6E66766A3377656838764B4A00000000000000000000 PUSH1 0x1 SSTORE CALLVALUE DUP1 ISZERO PUSH2 0x63 JUMPI PUSH1 0x0 DUP1 REVERT JUMPDEST POP PUSH2 0x16D JUMP JUMPDEST DUP3 DUP1 SLOAD PUSH2 0x75 SWAP1 PUSH2 0x10C JUMP JUMPDEST SWAP1 PUSH1 0x0 MSTORE PUSH1 0x20 PUSH1 0x0 KECCAK256 SWAP1 PUSH1 0x1F ADD PUSH1 0x20 SWAP1 DIV DUP2 ADD SWAP3 DUP3 PUSH2 0x97 JUMPI PUSH1 0x0 DUP6 SSTORE PUSH2 0xDE JUMP JUMPDEST DUP3 PUSH1 0x1F LT PUSH2 0xB0 JUMPI DUP1 MLOAD PUSH1 0xFF NOT AND DUP4 DUP1 ADD OR DUP6 SSTORE PUSH2 0xDE JUMP JUMPDEST DUP3 DUP1 ADD PUSH1 0x1 ADD DUP6 SSTORE DUP3 ISZERO PUSH2 0xDE JUMPI SWAP2 DUP3 ADD JUMPDEST DUP3 DUP2 GT ISZERO PUSH2 0xDD JUMPI DUP3 MLOAD DUP3 SSTORE SWAP2 PUSH1 0x20 ADD SWAP2 SWAP1 PUSH1 0x1 ADD SWAP1 PUSH2 0xC2 JUMP JUMPDEST JUMPDEST POP SWAP1 POP PUSH2 0xEB SWAP2 SWAP1 PUSH2 0xEF JUMP JUMPDEST POP SWAP1 JUMP JUMPDEST JUMPDEST DUP1 DUP3 GT ISZERO PUSH2 0x108 JUMPI PUSH1 0x0 DUP2 PUSH1 0x0 SWAP1 SSTORE POP PUSH1 0x1 ADD PUSH2 0xF0 JUMP JUMPDEST POP SWAP1 JUMP JUMPDEST PUSH1 0x0 PUSH1 0x2 DUP3 DIV SWAP1 POP PUSH1 0x1 DUP3 AND DUP1 PUSH2 0x124 JUMPI PUSH1 0x7F DUP3 AND SWAP2 POP JUMPDEST PUSH1 0x20 DUP3 LT DUP2 EQ ISZERO PUSH2 0x138 JUMPI PUSH2 0x137 PUSH2 0x13E JUMP JUMPDEST JUMPDEST POP SWAP2 SWAP1 POP JUMP JUMPDEST PUSH32 0x4E487B7100000000000000000000000000000000000000000000000000000000 PUSH1 0x0 MSTORE PUSH1 0x22 PUSH1 0x4 MSTORE PUSH1 0x24 PUSH1 0x0 REVERT JUMPDEST PUSH2 0x51D DUP1 PUSH2 0x17C PUSH1 0x0 CODECOPY PUSH1 0x0 RETURN INVALID PUSH1 0x80 PUSH1 0x40 MSTORE CALLVALUE DUP1 ISZERO PUSH2 0x10 JUMPI PUSH1 0x0 DUP1 REVERT JUMPDEST POP PUSH1 0x4 CALLDATASIZE LT PUSH2 0x41 JUMPI PUSH1 0x0 CALLDATALOAD PUSH1 0xE0 SHR DUP1 PUSH4 0x9FFD85C4 EQ PUSH2 0x46 JUMPI DUP1 PUSH4 0xE3A7FD75 EQ PUSH2 0x64 JUMPI DUP1 PUSH4 0xE5B935B2 EQ PUSH2 0x82 JUMPI JUMPDEST PUSH1 0x0 DUP1 REVERT JUMPDEST PUSH2 0x4E PUSH2 0xB2 JUMP JUMPDEST PUSH1 0x40 MLOAD PUSH2 0x5B SWAP2 SWAP1 PUSH2 0x2F4 JUMP JUMPDEST PUSH1 0x40 MLOAD DUP1 SWAP2 SUB SWAP1 RETURN JUMPDEST PUSH2 0x6C PUSH2 0x140 JUMP JUMPDEST PUSH1 0x40 MLOAD PUSH2 0x79 SWAP2 SWAP1 PUSH2 0x2D9 JUMP JUMPDEST PUSH1 0x40 MLOAD DUP1 SWAP2 SUB SWAP1 RETURN JUMPDEST PUSH2 0x9C PUSH1 0x4 DUP1 CALLDATASIZE SUB DUP2 ADD SWAP1 PUSH2 0x97 SWAP2 SWAP1 PUSH2 0x20B JUMP JUMPDEST PUSH2 0x146 JUMP JUMPDEST PUSH1 0x40 MLOAD PUSH2 0xA9 SWAP2 SWAP1 PUSH2 0x2BE JUMP JUMPDEST PUSH1 0x40 MLOAD DUP1 SWAP2 SUB SWAP1 RETURN JUMPDEST PUSH1 0x0 DUP1 SLOAD PUSH2 0xBF SWAP1 PUSH2 0x3EA JUMP JUMPDEST DUP1 PUSH1 0x1F ADD PUSH1 0x20 DUP1 SWAP2 DIV MUL PUSH1 0x20 ADD PUSH1 0x40 MLOAD SWAP1 DUP2 ADD PUSH1 0x40 MSTORE DUP1 SWAP3 SWAP2 SWAP1 DUP2 DUP2 MSTORE PUSH1 0x20 ADD DUP3 DUP1 SLOAD PUSH2 0xEB SWAP1 PUSH2 0x3EA JUMP JUMPDEST DUP1 ISZERO PUSH2 0x138 JUMPI DUP1 PUSH1 0x1F LT PUSH2 0x10D JUMPI PUSH2 0x100 DUP1 DUP4 SLOAD DIV MUL DUP4 MSTORE SWAP2 PUSH1 0x20 ADD SWAP2 PUSH2 0x138 JUMP JUMPDEST DUP3 ADD SWAP2 SWAP1 PUSH1 0x0 MSTORE PUSH1 0x20 PUSH1 0x0 KECCAK256 SWAP1 JUMPDEST DUP2 SLOAD DUP2 MSTORE SWAP1 PUSH1 0x1 ADD SWAP1 PUSH1 0x20 ADD DUP1 DUP4 GT PUSH2 0x11B JUMPI DUP3 SWAP1 SUB PUSH1 0x1F AND DUP3 ADD SWAP2 JUMPDEST POP POP POP POP POP DUP2 JUMP JUMPDEST PUSH1 0x1 SLOAD DUP2 JUMP JUMPDEST PUSH1 0x0 PUSH2 0x152 DUP4 DUP4 PUSH2 0x15A JUMP JUMPDEST SWAP1 POP SWAP3 SWAP2 POP POP JUMP JUMPDEST PUSH1 0x0 DUP1 DUP4 DUP4 ADD MLOAD SWAP1 POP PUSH1 0x0 DUP2 PUSH1 0xFF AND EQ PUSH2 0x178 JUMPI PUSH1 0x1 SWAP2 POP DUP2 PUSH2 0x17E JUMP JUMPDEST PUSH1 0x0 SWAP2 POP DUP2 JUMPDEST POP POP SWAP3 SWAP2 POP POP JUMP JUMPDEST PUSH1 0x0 PUSH2 0x199 PUSH2 0x194 DUP5 PUSH2 0x33B JUMP JUMPDEST PUSH2 0x316 JUMP JUMPDEST SWAP1 POP DUP3 DUP2 MSTORE PUSH1 0x20 DUP2 ADD DUP5 DUP5 DUP5 ADD GT ISZERO PUSH2 0x1B5 JUMPI PUSH2 0x1B4 PUSH2 0x4B0 JUMP JUMPDEST JUMPDEST PUSH2 0x1C0 DUP5 DUP3 DUP6 PUSH2 0x3A8 JUMP JUMPDEST POP SWAP4 SWAP3 POP POP POP JUMP JUMPDEST PUSH1 0x0 DUP3 PUSH1 0x1F DUP4 ADD SLT PUSH2 0x1DD JUMPI PUSH2 0x1DC PUSH2 0x4AB JUMP JUMPDEST JUMPDEST DUP2 CALLDATALOAD PUSH2 0x1ED DUP5 DUP3 PUSH1 0x20 DUP7 ADD PUSH2 0x186 JUMP JUMPDEST SWAP2 POP POP SWAP3 SWAP2 POP POP JUMP JUMPDEST PUSH1 0x0 DUP2 CALLDATALOAD SWAP1 POP PUSH2 0x205 DUP2 PUSH2 0x4D0 JUMP JUMPDEST SWAP3 SWAP2 POP POP JUMP JUMPDEST PUSH1 0x0 DUP1 PUSH1 0x40 DUP4 DUP6 SUB SLT ISZERO PUSH2 0x222 JUMPI PUSH2 0x221 PUSH2 0x4BA JUMP JUMPDEST JUMPDEST PUSH1 0x0 PUSH2 0x230 DUP6 DUP3 DUP7 ADD PUSH2 0x1F6 JUMP JUMPDEST SWAP3 POP POP PUSH1 0x20 DUP4 ADD CALLDATALOAD PUSH8 0xFFFFFFFFFFFFFFFF DUP2 GT ISZERO PUSH2 0x251 JUMPI PUSH2 0x250 PUSH2 0x4B5 JUMP JUMPDEST JUMPDEST PUSH2 0x25D DUP6 DUP3 DUP7 ADD PUSH2 0x1C8 JUMP JUMPDEST SWAP2 POP POP SWAP3 POP SWAP3 SWAP1 POP JUMP JUMPDEST PUSH2 0x270 DUP2 PUSH2 0x388 JUMP JUMPDEST DUP3 MSTORE POP POP JUMP JUMPDEST PUSH2 0x27F DUP2 PUSH2 0x394 JUMP JUMPDEST DUP3 MSTORE POP POP JUMP JUMPDEST PUSH1 0x0 PUSH2 0x290 DUP3 PUSH2 0x36C JUMP JUMPDEST PUSH2 0x29A DUP2 DUP6 PUSH2 0x377 JUMP JUMPDEST SWAP4 POP PUSH2 0x2AA DUP2 DUP6 PUSH1 0x20 DUP7 ADD PUSH2 0x3B7 JUMP JUMPDEST PUSH2 0x2B3 DUP2 PUSH2 0x4BF JUMP JUMPDEST DUP5 ADD SWAP2 POP POP SWAP3 SWAP2 POP POP JUMP JUMPDEST PUSH1 0x0 PUSH1 0x20 DUP3 ADD SWAP1 POP PUSH2 0x2D3 PUSH1 0x0 DUP4 ADD DUP5 PUSH2 0x267 JUMP JUMPDEST SWAP3 SWAP2 POP POP JUMP JUMPDEST PUSH1 0x0 PUSH1 0x20 DUP3 ADD SWAP1 POP PUSH2 0x2EE PUSH1 0x0 DUP4 ADD DUP5 PUSH2 0x276 JUMP JUMPDEST SWAP3 SWAP2 POP POP JUMP JUMPDEST PUSH1 0x0 PUSH1 0x20 DUP3 ADD SWAP1 POP DUP2 DUP2 SUB PUSH1 0x0 DUP4 ADD MSTORE PUSH2 0x30E DUP2 DUP5 PUSH2 0x285 JUMP JUMPDEST SWAP1 POP SWAP3 SWAP2 POP POP JUMP JUMPDEST PUSH1 0x0 PUSH2 0x320 PUSH2 0x331 JUMP JUMPDEST SWAP1 POP PUSH2 0x32C DUP3 DUP3 PUSH2 0x41C JUMP JUMPDEST SWAP2 SWAP1 POP JUMP JUMPDEST PUSH1 0x0 PUSH1 0x40 MLOAD SWAP1 POP SWAP1 JUMP JUMPDEST PUSH1 0x0 PUSH8 0xFFFFFFFFFFFFFFFF DUP3 GT ISZERO PUSH2 0x356 JUMPI PUSH2 0x355 PUSH2 0x47C JUMP JUMPDEST JUMPDEST PUSH2 0x35F DUP3 PUSH2 0x4BF JUMP JUMPDEST SWAP1 POP PUSH1 0x20 DUP2 ADD SWAP1 POP SWAP2 SWAP1 POP JUMP JUMPDEST PUSH1 0x0 DUP2 MLOAD SWAP1 POP SWAP2 SWAP1 POP JUMP JUMPDEST PUSH1 0x0 DUP3 DUP3 MSTORE PUSH1 0x20 DUP3 ADD SWAP1 POP SWAP3 SWAP2 POP POP JUMP JUMPDEST PUSH1 0x0 DUP2 ISZERO ISZERO SWAP1 POP SWAP2 SWAP1 POP JUMP JUMPDEST PUSH1 0x0 DUP2 SWAP1 POP SWAP2 SWAP1 POP JUMP JUMPDEST PUSH1 0x0 DUP2 SWAP1 POP SWAP2 SWAP1 POP JUMP JUMPDEST DUP3 DUP2 DUP4 CALLDATACOPY PUSH1 0x0 DUP4 DUP4 ADD MSTORE POP POP POP JUMP JUMPDEST PUSH1 0x0 JUMPDEST DUP4 DUP2 LT ISZERO PUSH2 0x3D5 JUMPI DUP1 DUP3 ADD MLOAD DUP2 DUP5 ADD MSTORE PUSH1 0x20 DUP2 ADD SWAP1 POP PUSH2 0x3BA JUMP JUMPDEST DUP4 DUP2 GT ISZERO PUSH2 0x3E4 JUMPI PUSH1 0x0 DUP5 DUP5 ADD MSTORE JUMPDEST POP POP POP POP JUMP JUMPDEST PUSH1 0x0 PUSH1 0x2 DUP3 DIV SWAP1 POP PUSH1 0x1 DUP3 AND DUP1 PUSH2 0x402 JUMPI PUSH1 0x7F DUP3 AND SWAP2 POP JUMPDEST PUSH1 0x20 DUP3 LT DUP2 EQ ISZERO PUSH2 0x416 JUMPI PUSH2 0x415 PUSH2 0x44D JUMP JUMPDEST JUMPDEST POP SWAP2 SWAP1 POP JUMP JUMPDEST PUSH2 0x425 DUP3 PUSH2 0x4BF JUMP JUMPDEST DUP2 ADD DUP2 DUP2 LT PUSH8 0xFFFFFFFFFFFFFFFF DUP3 GT OR ISZERO PUSH2 0x444 JUMPI PUSH2 0x443 PUSH2 0x47C JUMP JUMPDEST JUMPDEST DUP1 PUSH1 0x40 MSTORE POP POP POP JUMP JUMPDEST PUSH32 0x4E487B7100000000000000000000000000000000000000000000000000000000 PUSH1 0x0 MSTORE PUSH1 0x22 PUSH1 0x4 MSTORE PUSH1 0x24 PUSH1 0x0 REVERT JUMPDEST PUSH32 0x4E487B7100000000000000000000000000000000000000000000000000000000 PUSH1 0x0 MSTORE PUSH1 0x41 PUSH1 0x4 MSTORE PUSH1 0x24 PUSH1 0x0 REVERT JUMPDEST PUSH1 0x0 DUP1 REVERT JUMPDEST PUSH1 0x0 DUP1 REVERT JUMPDEST PUSH1 0x0 DUP1 REVERT JUMPDEST PUSH1 0x0 DUP1 REVERT JUMPDEST PUSH1 0x0 PUSH1 0x1F NOT PUSH1 0x1F DUP4 ADD AND SWAP1 POP SWAP2 SWAP1 POP JUMP JUMPDEST PUSH2 0x4D9 DUP2 PUSH2 0x39E JUMP JUMPDEST DUP2 EQ PUSH2 0x4E4 JUMPI PUSH1 0x0 DUP1 REVERT JUMPDEST POP JUMP INVALID LOG2 PUSH5 0x6970667358 0x22 SLT KECCAK256 SWAP16 PUSH5 0x14B0355A00 DUP11 0x28 0xF6 0xC7 PUSH11 0x6ACDB4E165DBFB4CC8060E 0xC1 CALLDATASIZE PUSH2 0xA471 0xB9 SWAP12 0xC0 PUSH30 0x64736F6C634300080700334E414C4548484A534744534447484A53444853 SSTORE BASEFEE DIFFICULTY 0x4A MSTORE8 BASEFEE DIFFICULTY 0x4A MSTORE8 BASEFEE 0x4A MSTORE8 BASEFEE 0x4A MSTORE8 BASEFEE DIFFICULTY MSTORE8 0x4A DIFFICULTY BASEFEE 0x4A 0x4F 0x4E SELFBALANCE JUMP 0x4F "
				},
				"gasEstimates": {
					"creation": {
						"codeDepositCost": "261800",
						"executionCost": "infinite",
						"totalCost": "infinite"
					},
					"external": {
						"data1()": "infinite",
						"data2()": "2429",
						"getData(uint256,bytes)": "infinite"
					},
					"internal": {
						"bytesToBool(uint256,bytes memory)": "infinite"
					}
				},
				"methodIdentifiers": {
					"data1()": "9ffd85c4",
					"data2()": "e3a7fd75",
					"getData(uint256,bytes)": "e5b935b2"
				}
			},
			"userdoc": {
				"kind": "user",
				"methods": {},
				"version": 1
			}
		}
	}
}