{
	"contracts/demo2.sol": {
		"demo2": {
			"abi": [
				{
					"inputs": [],
					"name": "data1",
					"outputs": [
						{
							"internalType": "bytes",
							"name": "",
							"type": "bytes"
						}
					],
					"stateMutability": "view",
					"type": "function"
				},
				{
					"inputs": [],
					"name": "data2",
					"outputs": [
						{
							"internalType": "bytes32",
							"name": "",
							"type": "bytes32"
						}
					],
					"stateMutability": "view",
					"type": "function"
				},
				{
					"inputs": [],
					"name": "data3",
					"outputs": [
						{
							"internalType": "bytes",
							"name": "",
							"type": "bytes"
						}
					],
					"stateMutability": "view",
					"type": "function"
				},
				{
					"inputs": [
						{
							"internalType": "uint256",
							"name": "memPtr",
							"type": "uint256"
						}
					],
					"name": "getData",
					"outputs": [
						{
							"internalType": "uint256",
							"name": "",
							"type": "uint256"
						}
					],
					"stateMutability": "view",
					"type": "function"
				}
			],
			"devdoc": {
				"methods": {}
			},
			"evm": {
				"assembly": "    /* \"contracts/demo2.sol\":81:3872  contract demo2 {\r... */\n  mstore(0x40, 0x80)\n    /* \"contracts/demo2.sol\":107:176  bytes public data1 = \"NALEHHJSGDSDGHJSDHSUHDJSHDJSHJSHJSHDSJDHJONGVO\" */\n  mload(0x40)\n  dup1\n  0x60\n  add\n  0x40\n  mstore\n  dup1\n  0x2e\n  dup2\n  mstore\n  0x20\n  add\n  data_4887836e294a2761413359597244d307bbe3f94827f6160d9e1a399e00e2d1be\n  0x2e\n  swap2\n  codecopy\n  0x00\n  swap1\n  dup1\n  mload\n  swap1\n  0x20\n  add\n  swap1\n  tag_1\n  swap3\n  swap2\n  swap1\n  tag_2\n  jump\t// in\ntag_1:\n  pop\n    /* \"contracts/demo2.sol\":187:252  bytes public data3 = \"sdfNAsdfsdfLEHHJSGDSHDJSHJSHJSHDSJDHJONGVO\" */\n  mload(0x40)\n  dup1\n  0x60\n  add\n  0x40\n  mstore\n  dup1\n  0x2a\n  dup2\n  mstore\n  0x20\n  add\n  data_c359735a342ece061e65ab7390d246d1e53ba5f24eea70d6201f1d4a7b2f3475\n  0x2a\n  swap2\n  codecopy\n  0x01\n  swap1\n  dup1\n  mload\n  swap1\n  0x20\n  add\n  swap1\n  tag_3\n  swap3\n  swap2\n  swap1\n  tag_2\n  jump\t// in\ntag_3:\n  pop\n    /* \"contracts/demo2.sol\":263:310  bytes32 public data2 = \"LEHONGVOwjnfvj3weh8vKJ\" */\n  sstore(0x02, 0x4c45484f4e47564f776a6e66766a3377656838764b4a00000000000000000000)\n    /* \"contracts/demo2.sol\":81:3872  contract demo2 {\r... */\n  callvalue\n    /* \"--CODEGEN--\":5:14   */\n  dup1\n    /* \"--CODEGEN--\":2:4   */\n  iszero\n  tag_4\n  jumpi\n    /* \"--CODEGEN--\":27:28   */\n  0x00\n    /* \"--CODEGEN--\":24:25   */\n  dup1\n    /* \"--CODEGEN--\":17:29   */\n  revert\n    /* \"--CODEGEN--\":2:4   */\ntag_4:\n    /* \"contracts/demo2.sol\":81:3872  contract demo2 {\r... */\n  pop\n  jump(tag_5)\ntag_2:\n  dup3\n  dup1\n  sload\n  0x01\n  dup2\n  0x01\n  and\n  iszero\n  0x0100\n  mul\n  sub\n  and\n  0x02\n  swap1\n  div\n  swap1\n  0x00\n  mstore\n  keccak256(0x00, 0x20)\n  swap1\n  0x1f\n  add\n  0x20\n  swap1\n  div\n  dup2\n  add\n  swap3\n  dup3\n  0x1f\n  lt\n  tag_7\n  jumpi\n  dup1\n  mload\n  not(0xff)\n  and\n  dup4\n  dup1\n  add\n  or\n  dup6\n  sstore\n  jump(tag_6)\ntag_7:\n  dup3\n  dup1\n  add\n  0x01\n  add\n  dup6\n  sstore\n  dup3\n  iszero\n  tag_6\n  jumpi\n  swap2\n  dup3\n  add\ntag_8:\n  dup3\n  dup2\n  gt\n  iszero\n  tag_9\n  jumpi\n  dup3\n  mload\n  dup3\n  sstore\n  swap2\n  0x20\n  add\n  swap2\n  swap1\n  0x01\n  add\n  swap1\n  jump(tag_8)\ntag_9:\ntag_6:\n  pop\n  swap1\n  pop\n  tag_10\n  swap2\n  swap1\n  tag_11\n  jump\t// in\ntag_10:\n  pop\n  swap1\n  jump\t// out\ntag_11:\n  tag_12\n  swap2\n  swap1\ntag_13:\n  dup1\n  dup3\n  gt\n  iszero\n  tag_14\n  jumpi\n  0x00\n  dup2\n  0x00\n  swap1\n  sstore\n  pop\n  0x01\n  add\n  jump(tag_13)\ntag_14:\n  pop\n  swap1\n  jump\ntag_12:\n  swap1\n  jump\t// out\ntag_5:\n  dataSize(sub_0)\n  dup1\n  dataOffset(sub_0)\n  0x00\n  codecopy\n  0x00\n  return\nstop\ndata_4887836e294a2761413359597244d307bbe3f94827f6160d9e1a399e00e2d1be 4e414c4548484a534744534447484a534448535548444a5348444a53484a53484a534844534a44484a4f4e47564f\ndata_c359735a342ece061e65ab7390d246d1e53ba5f24eea70d6201f1d4a7b2f3475 7364664e417364667364664c4548484a5347445348444a53484a53484a534844534a44484a4f4e47564f\n\nsub_0: assembly {\n        /* \"contracts/demo2.sol\":81:3872  contract demo2 {\r... */\n      mstore(0x40, 0x80)\n      callvalue\n        /* \"--CODEGEN--\":5:14   */\n      dup1\n        /* \"--CODEGEN--\":2:4   */\n      iszero\n      tag_1\n      jumpi\n        /* \"--CODEGEN--\":27:28   */\n      0x00\n        /* \"--CODEGEN--\":24:25   */\n      dup1\n        /* \"--CODEGEN--\":17:29   */\n      revert\n        /* \"--CODEGEN--\":2:4   */\n    tag_1:\n        /* \"contracts/demo2.sol\":81:3872  contract demo2 {\r... */\n      pop\n      jumpi(tag_2, lt(calldatasize, 0x04))\n      shr(0xe0, calldataload(0x00))\n      dup1\n      0x0178fe3f\n      eq\n      tag_3\n      jumpi\n      dup1\n      0x9ffd85c4\n      eq\n      tag_4\n      jumpi\n      dup1\n      0xe3a7fd75\n      eq\n      tag_5\n      jumpi\n      dup1\n      0xfc26b0ab\n      eq\n      tag_6\n      jumpi\n    tag_2:\n        /* \"--CODEGEN--\":12:13   */\n      0x00\n        /* \"--CODEGEN--\":9:10   */\n      dup1\n        /* \"--CODEGEN--\":2:14   */\n      revert\n        /* \"contracts/demo2.sol\":665:774  function getData(uint memPtr) public view returns(uint) {\r... */\n    tag_3:\n      tag_7\n      0x04\n      dup1\n      calldatasize\n      sub\n      dup2\n      add\n      swap1\n      tag_8\n      swap2\n      swap1\n      jump(tag_9)\n    tag_8:\n      tag_10\n      jump\t// in\n    tag_7:\n      mload(0x40)\n      tag_11\n      swap2\n      swap1\n      jump(tag_12)\n    tag_11:\n      mload(0x40)\n      dup1\n      swap2\n      sub\n      swap1\n      return\n        /* \"contracts/demo2.sol\":107:176  bytes public data1 = \"NALEHHJSGDSDGHJSDHSUHDJSHDJSHJSHJSHDSJDHJONGVO\" */\n    tag_4:\n      tag_13\n      tag_14\n      jump\t// in\n    tag_13:\n      mload(0x40)\n      tag_15\n      swap2\n      swap1\n      jump(tag_16)\n    tag_15:\n      mload(0x40)\n      dup1\n      swap2\n      sub\n      swap1\n      return\n        /* \"contracts/demo2.sol\":263:310  bytes32 public data2 = \"LEHONGVOwjnfvj3weh8vKJ\" */\n    tag_5:\n      tag_17\n      tag_18\n      jump\t// in\n    tag_17:\n      mload(0x40)\n      tag_19\n      swap2\n      swap1\n      jump(tag_20)\n    tag_19:\n      mload(0x40)\n      dup1\n      swap2\n      sub\n      swap1\n      return\n        /* \"contracts/demo2.sol\":187:252  bytes public data3 = \"sdfNAsdfsdfLEHHJSGDSHDJSHJSHJSHDSJDHJONGVO\" */\n    tag_6:\n      tag_21\n      tag_22\n      jump\t// in\n    tag_21:\n      mload(0x40)\n      tag_23\n      swap2\n      swap1\n      jump(tag_16)\n    tag_23:\n      mload(0x40)\n      dup1\n      swap2\n      sub\n      swap1\n      return\n        /* \"contracts/demo2.sol\":665:774  function getData(uint memPtr) public view returns(uint) {\r... */\n    tag_10:\n        /* \"contracts/demo2.sol\":715:719  uint */\n      0x00\n        /* \"contracts/demo2.sol\":743:762  _itemLength(memPtr) */\n      tag_25\n        /* \"contracts/demo2.sol\":755:761  memPtr */\n      dup3\n        /* \"contracts/demo2.sol\":743:754  _itemLength */\n      tag_26\n        /* \"contracts/demo2.sol\":743:762  _itemLength(memPtr) */\n      jump\t// in\n    tag_25:\n        /* \"contracts/demo2.sol\":736:762  return _itemLength(memPtr) */\n      swap1\n      pop\n        /* \"contracts/demo2.sol\":665:774  function getData(uint memPtr) public view returns(uint) {\r... */\n      swap2\n      swap1\n      pop\n      jump\t// out\n        /* \"contracts/demo2.sol\":107:176  bytes public data1 = \"NALEHHJSGDSDGHJSDHSUHDJSHDJSHJSHJSHDSJDHJONGVO\" */\n    tag_14:\n      0x00\n      dup1\n      sload\n      0x01\n      dup2\n      0x01\n      and\n      iszero\n      0x0100\n      mul\n      sub\n      and\n      0x02\n      swap1\n      div\n      dup1\n      0x1f\n      add\n      0x20\n      dup1\n      swap2\n      div\n      mul\n      0x20\n      add\n      mload(0x40)\n      swap1\n      dup2\n      add\n      0x40\n      mstore\n      dup1\n      swap3\n      swap2\n      swap1\n      dup2\n      dup2\n      mstore\n      0x20\n      add\n      dup3\n      dup1\n      sload\n      0x01\n      dup2\n      0x01\n      and\n      iszero\n      0x0100\n      mul\n      sub\n      and\n      0x02\n      swap1\n      div\n      dup1\n      iszero\n      tag_27\n      jumpi\n      dup1\n      0x1f\n      lt\n      tag_28\n      jumpi\n      0x0100\n      dup1\n      dup4\n      sload\n      div\n      mul\n      dup4\n      mstore\n      swap2\n      0x20\n      add\n      swap2\n      jump(tag_27)\n    tag_28:\n      dup3\n      add\n      swap2\n      swap1\n      0x00\n      mstore\n      keccak256(0x00, 0x20)\n      swap1\n    tag_29:\n      dup2\n      sload\n      dup2\n      mstore\n      swap1\n      0x01\n      add\n      swap1\n      0x20\n      add\n      dup1\n      dup4\n      gt\n      tag_29\n      jumpi\n      dup3\n      swap1\n      sub\n      0x1f\n      and\n      dup3\n      add\n      swap2\n    tag_27:\n      pop\n      pop\n      pop\n      pop\n      pop\n      dup2\n      jump\t// out\n        /* \"contracts/demo2.sol\":263:310  bytes32 public data2 = \"LEHONGVOwjnfvj3weh8vKJ\" */\n    tag_18:\n      sload(0x02)\n      dup2\n      jump\t// out\n        /* \"contracts/demo2.sol\":187:252  bytes public data3 = \"sdfNAsdfsdfLEHHJSGDSHDJSHJSHJSHDSJDHJONGVO\" */\n    tag_22:\n      0x01\n      dup1\n      sload\n      0x01\n      dup2\n      0x01\n      and\n      iszero\n      0x0100\n      mul\n      sub\n      and\n      0x02\n      swap1\n      div\n      dup1\n      0x1f\n      add\n      0x20\n      dup1\n      swap2\n      div\n      mul\n      0x20\n      add\n      mload(0x40)\n      swap1\n      dup2\n      add\n      0x40\n      mstore\n      dup1\n      swap3\n      swap2\n      swap1\n      dup2\n      dup2\n      mstore\n      0x20\n      add\n      dup3\n      dup1\n      sload\n      0x01\n      dup2\n      0x01\n      and\n      iszero\n      0x0100\n      mul\n      sub\n      and\n      0x02\n      swap1\n      div\n      dup1\n      iszero\n      tag_30\n      jumpi\n      dup1\n      0x1f\n      lt\n      tag_31\n      jumpi\n      0x0100\n      dup1\n      dup4\n      sload\n      div\n      mul\n      dup4\n      mstore\n      swap2\n      0x20\n      add\n      swap2\n      jump(tag_30)\n    tag_31:\n      dup3\n      add\n      swap2\n      swap1\n      0x00\n      mstore\n      keccak256(0x00, 0x20)\n      swap1\n    tag_32:\n      dup2\n      sload\n      dup2\n      mstore\n      swap1\n      0x01\n      add\n      swap1\n      0x20\n      add\n      dup1\n      dup4\n      gt\n      tag_32\n      jumpi\n      dup3\n      swap1\n      sub\n      0x1f\n      and\n      dup3\n      add\n      swap2\n    tag_30:\n      pop\n      pop\n      pop\n      pop\n      pop\n      dup2\n      jump\t// out\n        /* \"contracts/demo2.sol\":786:2400  function _itemLength(uint memPtr) private pure returns (uint) {\r... */\n    tag_26:\n        /* \"contracts/demo2.sol\":842:846  uint */\n      0x00\n        /* \"contracts/demo2.sol\":863:875  uint itemLen */\n      dup1\n        /* \"contracts/demo2.sol\":890:900  uint byte0 */\n      0x00\n        /* \"contracts/demo2.sol\":966:972  memPtr */\n      dup4\n        /* \"contracts/demo2.sol\":960:973  mload(memPtr) */\n      mload\n        /* \"contracts/demo2.sol\":957:958  0 */\n      0x00\n        /* \"contracts/demo2.sol\":952:974  byte(0, mload(memPtr)) */\n      byte\n        /* \"contracts/demo2.sol\":943:974  byte0 := byte(0, mload(memPtr)) */\n      swap1\n      pop\n        /* \"contracts/demo2.sol\":447:451  0x80 */\n      0x80\n        /* \"contracts/demo2.sol\":1009:1035  byte0 < STRING_SHORT_START */\n      0xff\n      and\n        /* \"contracts/demo2.sol\":1009:1014  byte0 */\n      dup2\n        /* \"contracts/demo2.sol\":1009:1035  byte0 < STRING_SHORT_START */\n      lt\n        /* \"contracts/demo2.sol\":1005:2358  if (byte0 < STRING_SHORT_START)\r... */\n      iszero\n      tag_34\n      jumpi\n        /* \"contracts/demo2.sol\":1064:1065  1 */\n      0x01\n        /* \"contracts/demo2.sol\":1054:1065  itemLen = 1 */\n      swap2\n      pop\n        /* \"contracts/demo2.sol\":1005:2358  if (byte0 < STRING_SHORT_START)\r... */\n      jump(tag_35)\n    tag_34:\n        /* \"contracts/demo2.sol\":498:502  0xb8 */\n      0xb8\n        /* \"contracts/demo2.sol\":1091:1116  byte0 < STRING_LONG_START */\n      0xff\n      and\n        /* \"contracts/demo2.sol\":1091:1096  byte0 */\n      dup2\n        /* \"contracts/demo2.sol\":1091:1116  byte0 < STRING_LONG_START */\n      lt\n        /* \"contracts/demo2.sol\":1087:2358  if (byte0 < STRING_LONG_START)\r... */\n      iszero\n      tag_36\n      jumpi\n        /* \"contracts/demo2.sol\":1174:1175  1 */\n      0x01\n        /* \"contracts/demo2.sol\":447:451  0x80 */\n      0x80\n        /* \"contracts/demo2.sol\":1145:1171  byte0 - STRING_SHORT_START */\n      0xff\n      and\n        /* \"contracts/demo2.sol\":1145:1150  byte0 */\n      dup3\n        /* \"contracts/demo2.sol\":1145:1171  byte0 - STRING_SHORT_START */\n      sub\n        /* \"contracts/demo2.sol\":1145:1175  byte0 - STRING_SHORT_START + 1 */\n      add\n        /* \"contracts/demo2.sol\":1135:1175  itemLen = byte0 - STRING_SHORT_START + 1 */\n      swap2\n      pop\n        /* \"contracts/demo2.sol\":1087:2358  if (byte0 < STRING_LONG_START)\r... */\n      jump(tag_37)\n    tag_36:\n        /* \"contracts/demo2.sol\":549:553  0xc0 */\n      0xc0\n        /* \"contracts/demo2.sol\":1201:1225  byte0 < LIST_SHORT_START */\n      0xff\n      and\n        /* \"contracts/demo2.sol\":1201:1206  byte0 */\n      dup2\n        /* \"contracts/demo2.sol\":1201:1225  byte0 < LIST_SHORT_START */\n      lt\n        /* \"contracts/demo2.sol\":1197:2358  if (byte0 < LIST_SHORT_START) {\r... */\n      iszero\n      tag_38\n      jumpi\n        /* \"contracts/demo2.sol\":1246:1258  uint dataLen */\n      0x00\n        /* \"contracts/demo2.sol\":1335:1339  0xb7 */\n      0xb7\n        /* \"contracts/demo2.sol\":1328:1333  byte0 */\n      dup3\n        /* \"contracts/demo2.sol\":1324:1340  sub(byte0, 0xb7) */\n      sub\n        /* \"contracts/demo2.sol\":1419:1420  1 */\n      0x01\n        /* \"contracts/demo2.sol\":1411:1417  memPtr */\n      dup7\n        /* \"contracts/demo2.sol\":1407:1421  add(memPtr, 1) */\n      add\n        /* \"contracts/demo2.sol\":1397:1421  memPtr := add(memPtr, 1) */\n      swap6\n      pop\n        /* \"contracts/demo2.sol\":1565:1572  byteLen */\n      dup1\n        /* \"contracts/demo2.sol\":1561:1563  32 */\n      0x20\n        /* \"contracts/demo2.sol\":1557:1573  sub(32, byteLen) */\n      sub\n        /* \"contracts/demo2.sol\":1552:1555  256 */\n      0x0100\n        /* \"contracts/demo2.sol\":1548:1574  exp(256, sub(32, byteLen)) */\n      exp\n        /* \"contracts/demo2.sol\":1539:1545  memPtr */\n      dup7\n        /* \"contracts/demo2.sol\":1533:1546  mload(memPtr) */\n      mload\n        /* \"contracts/demo2.sol\":1529:1575  div(mload(memPtr), exp(256, sub(32, byteLen))) */\n      div\n        /* \"contracts/demo2.sol\":1518:1575  dataLen := div(mload(memPtr), exp(256, sub(32, byteLen))) */\n      swap2\n      pop\n        /* \"contracts/demo2.sol\":1667:1668  1 */\n      0x01\n        /* \"contracts/demo2.sol\":1658:1665  byteLen */\n      dup2\n        /* \"contracts/demo2.sol\":1654:1669  add(byteLen, 1) */\n      add\n        /* \"contracts/demo2.sol\":1645:1652  dataLen */\n      dup3\n        /* \"contracts/demo2.sol\":1641:1670  add(dataLen, add(byteLen, 1)) */\n      add\n        /* \"contracts/demo2.sol\":1630:1670  itemLen := add(dataLen, add(byteLen, 1)) */\n      swap4\n      pop\n        /* \"contracts/demo2.sol\":1286:1689  {\r... */\n      pop\n        /* \"contracts/demo2.sol\":1726:1733  dataLen */\n      dup1\n        /* \"contracts/demo2.sol\":1715:1722  itemLen */\n      dup4\n        /* \"contracts/demo2.sol\":1715:1733  itemLen >= dataLen */\n      lt\n      iszero\n        /* \"contracts/demo2.sol\":1707:1755  require(itemLen >= dataLen, \"addition overflow\") */\n      tag_39\n      jumpi\n      mload(0x40)\n      0x08c379a000000000000000000000000000000000000000000000000000000000\n      dup2\n      mstore\n      0x04\n      add\n      tag_40\n      swap1\n      jump(tag_41)\n    tag_40:\n      mload(0x40)\n      dup1\n      swap2\n      sub\n      swap1\n      revert\n    tag_39:\n        /* \"contracts/demo2.sol\":1197:2358  if (byte0 < LIST_SHORT_START) {\r... */\n      pop\n      jump(tag_42)\n    tag_38:\n        /* \"contracts/demo2.sol\":600:604  0xf8 */\n      0xf8\n        /* \"contracts/demo2.sol\":1796:1819  byte0 < LIST_LONG_START */\n      0xff\n      and\n        /* \"contracts/demo2.sol\":1796:1801  byte0 */\n      dup2\n        /* \"contracts/demo2.sol\":1796:1819  byte0 < LIST_LONG_START */\n      lt\n        /* \"contracts/demo2.sol\":1792:2358  if (byte0 < LIST_LONG_START) {\r... */\n      iszero\n      tag_43\n      jumpi\n        /* \"contracts/demo2.sol\":1877:1878  1 */\n      0x01\n        /* \"contracts/demo2.sol\":549:553  0xc0 */\n      0xc0\n        /* \"contracts/demo2.sol\":1850:1874  byte0 - LIST_SHORT_START */\n      0xff\n      and\n        /* \"contracts/demo2.sol\":1850:1855  byte0 */\n      dup3\n        /* \"contracts/demo2.sol\":1850:1874  byte0 - LIST_SHORT_START */\n      sub\n        /* \"contracts/demo2.sol\":1850:1878  byte0 - LIST_SHORT_START + 1 */\n      add\n        /* \"contracts/demo2.sol\":1840:1878  itemLen = byte0 - LIST_SHORT_START + 1 */\n      swap2\n      pop\n        /* \"contracts/demo2.sol\":1792:2358  if (byte0 < LIST_LONG_START) {\r... */\n      jump(tag_44)\n    tag_43:\n        /* \"contracts/demo2.sol\":1934:1946  uint dataLen */\n      0x00\n        /* \"contracts/demo2.sol\":2023:2027  0xf7 */\n      0xf7\n        /* \"contracts/demo2.sol\":2016:2021  byte0 */\n      dup3\n        /* \"contracts/demo2.sol\":2012:2028  sub(byte0, 0xf7) */\n      sub\n        /* \"contracts/demo2.sol\":2072:2073  1 */\n      0x01\n        /* \"contracts/demo2.sol\":2064:2070  memPtr */\n      dup7\n        /* \"contracts/demo2.sol\":2060:2074  add(memPtr, 1) */\n      add\n        /* \"contracts/demo2.sol\":2050:2074  memPtr := add(memPtr, 1) */\n      swap6\n      pop\n        /* \"contracts/demo2.sol\":2145:2152  byteLen */\n      dup1\n        /* \"contracts/demo2.sol\":2141:2143  32 */\n      0x20\n        /* \"contracts/demo2.sol\":2137:2153  sub(32, byteLen) */\n      sub\n        /* \"contracts/demo2.sol\":2132:2135  256 */\n      0x0100\n        /* \"contracts/demo2.sol\":2128:2154  exp(256, sub(32, byteLen)) */\n      exp\n        /* \"contracts/demo2.sol\":2119:2125  memPtr */\n      dup7\n        /* \"contracts/demo2.sol\":2113:2126  mload(memPtr) */\n      mload\n        /* \"contracts/demo2.sol\":2109:2155  div(mload(memPtr), exp(256, sub(32, byteLen))) */\n      div\n        /* \"contracts/demo2.sol\":2098:2155  dataLen := div(mload(memPtr), exp(256, sub(32, byteLen))) */\n      swap2\n      pop\n        /* \"contracts/demo2.sol\":2254:2255  1 */\n      0x01\n        /* \"contracts/demo2.sol\":2245:2252  byteLen */\n      dup2\n        /* \"contracts/demo2.sol\":2241:2256  add(byteLen, 1) */\n      add\n        /* \"contracts/demo2.sol\":2232:2239  dataLen */\n      dup3\n        /* \"contracts/demo2.sol\":2228:2257  add(dataLen, add(byteLen, 1)) */\n      add\n        /* \"contracts/demo2.sol\":2217:2257  itemLen := add(dataLen, add(byteLen, 1)) */\n      swap4\n      pop\n        /* \"contracts/demo2.sol\":1974:2276  {\r... */\n      pop\n        /* \"contracts/demo2.sol\":2313:2320  dataLen */\n      dup1\n        /* \"contracts/demo2.sol\":2302:2309  itemLen */\n      dup4\n        /* \"contracts/demo2.sol\":2302:2320  itemLen >= dataLen */\n      lt\n      iszero\n        /* \"contracts/demo2.sol\":2294:2342  require(itemLen >= dataLen, \"addition overflow\") */\n      tag_45\n      jumpi\n      mload(0x40)\n      0x08c379a000000000000000000000000000000000000000000000000000000000\n      dup2\n      mstore\n      0x04\n      add\n      tag_46\n      swap1\n      jump(tag_41)\n    tag_46:\n      mload(0x40)\n      dup1\n      swap2\n      sub\n      swap1\n      revert\n    tag_45:\n        /* \"contracts/demo2.sol\":1792:2358  if (byte0 < LIST_LONG_START) {\r... */\n      pop\n    tag_44:\n        /* \"contracts/demo2.sol\":1197:2358  if (byte0 < LIST_SHORT_START) {\r... */\n    tag_42:\n        /* \"contracts/demo2.sol\":1087:2358  if (byte0 < STRING_LONG_START)\r... */\n    tag_37:\n        /* \"contracts/demo2.sol\":1005:2358  if (byte0 < STRING_SHORT_START)\r... */\n    tag_35:\n        /* \"contracts/demo2.sol\":2381:2388  itemLen */\n      dup2\n        /* \"contracts/demo2.sol\":2374:2388  return itemLen */\n      swap3\n      pop\n      pop\n      pop\n        /* \"contracts/demo2.sol\":786:2400  function _itemLength(uint memPtr) private pure returns (uint) {\r... */\n      swap2\n      swap1\n      pop\n      jump\t// out\n        /* \"--CODEGEN--\":5:135   */\n    tag_48:\n      0x00\n        /* \"--CODEGEN--\":85:91   */\n      dup2\n        /* \"--CODEGEN--\":72:92   */\n      calldataload\n        /* \"--CODEGEN--\":63:92   */\n      swap1\n      pop\n        /* \"--CODEGEN--\":97:130   */\n      tag_50\n        /* \"--CODEGEN--\":124:129   */\n      dup2\n        /* \"--CODEGEN--\":97:130   */\n      jump(tag_51)\n    tag_50:\n        /* \"--CODEGEN--\":57:135   */\n      swap3\n      swap2\n      pop\n      pop\n      jump\n        /* \"--CODEGEN--\":142:383   */\n    tag_9:\n      0x00\n        /* \"--CODEGEN--\":246:248   */\n      0x20\n        /* \"--CODEGEN--\":234:243   */\n      dup3\n        /* \"--CODEGEN--\":225:232   */\n      dup5\n        /* \"--CODEGEN--\":221:244   */\n      sub\n        /* \"--CODEGEN--\":217:249   */\n      slt\n        /* \"--CODEGEN--\":214:216   */\n      iszero\n      tag_53\n      jumpi\n        /* \"--CODEGEN--\":262:263   */\n      0x00\n        /* \"--CODEGEN--\":259:260   */\n      dup1\n        /* \"--CODEGEN--\":252:264   */\n      revert\n        /* \"--CODEGEN--\":214:216   */\n    tag_53:\n        /* \"--CODEGEN--\":297:298   */\n      0x00\n        /* \"--CODEGEN--\":314:367   */\n      tag_54\n        /* \"--CODEGEN--\":359:366   */\n      dup5\n        /* \"--CODEGEN--\":350:356   */\n      dup3\n        /* \"--CODEGEN--\":339:348   */\n      dup6\n        /* \"--CODEGEN--\":335:357   */\n      add\n        /* \"--CODEGEN--\":314:367   */\n      jump(tag_48)\n    tag_54:\n        /* \"--CODEGEN--\":304:367   */\n      swap2\n      pop\n        /* \"--CODEGEN--\":276:373   */\n      pop\n        /* \"--CODEGEN--\":208:383   */\n      swap3\n      swap2\n      pop\n      pop\n      jump\n        /* \"--CODEGEN--\":390:503   */\n    tag_55:\n        /* \"--CODEGEN--\":473:497   */\n      tag_57\n        /* \"--CODEGEN--\":491:496   */\n      dup2\n        /* \"--CODEGEN--\":473:497   */\n      jump(tag_58)\n    tag_57:\n        /* \"--CODEGEN--\":468:471   */\n      dup3\n        /* \"--CODEGEN--\":461:498   */\n      mstore\n        /* \"--CODEGEN--\":455:503   */\n      pop\n      pop\n      jump\n        /* \"--CODEGEN--\":510:845   */\n    tag_59:\n      0x00\n        /* \"--CODEGEN--\":616:650   */\n      tag_61\n        /* \"--CODEGEN--\":644:649   */\n      dup3\n        /* \"--CODEGEN--\":616:650   */\n      jump(tag_62)\n    tag_61:\n        /* \"--CODEGEN--\":662:732   */\n      tag_63\n        /* \"--CODEGEN--\":725:731   */\n      dup2\n        /* \"--CODEGEN--\":720:723   */\n      dup6\n        /* \"--CODEGEN--\":662:732   */\n      jump(tag_64)\n    tag_63:\n        /* \"--CODEGEN--\":655:732   */\n      swap4\n      pop\n        /* \"--CODEGEN--\":737:789   */\n      tag_65\n        /* \"--CODEGEN--\":782:788   */\n      dup2\n        /* \"--CODEGEN--\":777:780   */\n      dup6\n        /* \"--CODEGEN--\":770:774   */\n      0x20\n        /* \"--CODEGEN--\":763:768   */\n      dup7\n        /* \"--CODEGEN--\":759:775   */\n      add\n        /* \"--CODEGEN--\":737:789   */\n      jump(tag_66)\n    tag_65:\n        /* \"--CODEGEN--\":810:839   */\n      tag_67\n        /* \"--CODEGEN--\":832:838   */\n      dup2\n        /* \"--CODEGEN--\":810:839   */\n      jump(tag_68)\n    tag_67:\n        /* \"--CODEGEN--\":805:808   */\n      dup5\n        /* \"--CODEGEN--\":801:840   */\n      add\n        /* \"--CODEGEN--\":794:840   */\n      swap2\n      pop\n        /* \"--CODEGEN--\":596:845   */\n      pop\n      swap3\n      swap2\n      pop\n      pop\n      jump\n        /* \"--CODEGEN--\":853:1170   */\n    tag_69:\n      0x00\n        /* \"--CODEGEN--\":1013:1080   */\n      tag_71\n        /* \"--CODEGEN--\":1077:1079   */\n      0x11\n        /* \"--CODEGEN--\":1072:1075   */\n      dup4\n        /* \"--CODEGEN--\":1013:1080   */\n      jump(tag_72)\n    tag_71:\n        /* \"--CODEGEN--\":1006:1080   */\n      swap2\n      pop\n        /* \"--CODEGEN--\":1113:1132   */\n      0x6164646974696f6e206f766572666c6f77000000000000000000000000000000\n        /* \"--CODEGEN--\":1109:1110   */\n      0x00\n        /* \"--CODEGEN--\":1104:1107   */\n      dup4\n        /* \"--CODEGEN--\":1100:1111   */\n      add\n        /* \"--CODEGEN--\":1093:1133   */\n      mstore\n        /* \"--CODEGEN--\":1161:1163   */\n      0x20\n        /* \"--CODEGEN--\":1156:1159   */\n      dup3\n        /* \"--CODEGEN--\":1152:1164   */\n      add\n        /* \"--CODEGEN--\":1145:1164   */\n      swap1\n      pop\n        /* \"--CODEGEN--\":999:1170   */\n      swap2\n      swap1\n      pop\n      jump\n        /* \"--CODEGEN--\":1178:1291   */\n    tag_73:\n        /* \"--CODEGEN--\":1261:1285   */\n      tag_75\n        /* \"--CODEGEN--\":1279:1284   */\n      dup2\n        /* \"--CODEGEN--\":1261:1285   */\n      jump(tag_76)\n    tag_75:\n        /* \"--CODEGEN--\":1256:1259   */\n      dup3\n        /* \"--CODEGEN--\":1249:1286   */\n      mstore\n        /* \"--CODEGEN--\":1243:1291   */\n      pop\n      pop\n      jump\n        /* \"--CODEGEN--\":1298:1511   */\n    tag_20:\n      0x00\n        /* \"--CODEGEN--\":1416:1418   */\n      0x20\n        /* \"--CODEGEN--\":1405:1414   */\n      dup3\n        /* \"--CODEGEN--\":1401:1419   */\n      add\n        /* \"--CODEGEN--\":1393:1419   */\n      swap1\n      pop\n        /* \"--CODEGEN--\":1430:1501   */\n      tag_78\n        /* \"--CODEGEN--\":1498:1499   */\n      0x00\n        /* \"--CODEGEN--\":1487:1496   */\n      dup4\n        /* \"--CODEGEN--\":1483:1500   */\n      add\n        /* \"--CODEGEN--\":1474:1480   */\n      dup5\n        /* \"--CODEGEN--\":1430:1501   */\n      jump(tag_55)\n    tag_78:\n        /* \"--CODEGEN--\":1387:1511   */\n      swap3\n      swap2\n      pop\n      pop\n      jump\n        /* \"--CODEGEN--\":1518:1807   */\n    tag_16:\n      0x00\n        /* \"--CODEGEN--\":1650:1652   */\n      0x20\n        /* \"--CODEGEN--\":1639:1648   */\n      dup3\n        /* \"--CODEGEN--\":1635:1653   */\n      add\n        /* \"--CODEGEN--\":1627:1653   */\n      swap1\n      pop\n        /* \"--CODEGEN--\":1700:1709   */\n      dup2\n        /* \"--CODEGEN--\":1694:1698   */\n      dup2\n        /* \"--CODEGEN--\":1690:1710   */\n      sub\n        /* \"--CODEGEN--\":1686:1687   */\n      0x00\n        /* \"--CODEGEN--\":1675:1684   */\n      dup4\n        /* \"--CODEGEN--\":1671:1688   */\n      add\n        /* \"--CODEGEN--\":1664:1711   */\n      mstore\n        /* \"--CODEGEN--\":1725:1797   */\n      tag_80\n        /* \"--CODEGEN--\":1792:1796   */\n      dup2\n        /* \"--CODEGEN--\":1783:1789   */\n      dup5\n        /* \"--CODEGEN--\":1725:1797   */\n      jump(tag_59)\n    tag_80:\n        /* \"--CODEGEN--\":1717:1797   */\n      swap1\n      pop\n        /* \"--CODEGEN--\":1621:1807   */\n      swap3\n      swap2\n      pop\n      pop\n      jump\n        /* \"--CODEGEN--\":1814:2221   */\n    tag_41:\n      0x00\n        /* \"--CODEGEN--\":2005:2007   */\n      0x20\n        /* \"--CODEGEN--\":1994:2003   */\n      dup3\n        /* \"--CODEGEN--\":1990:2008   */\n      add\n        /* \"--CODEGEN--\":1982:2008   */\n      swap1\n      pop\n        /* \"--CODEGEN--\":2055:2064   */\n      dup2\n        /* \"--CODEGEN--\":2049:2053   */\n      dup2\n        /* \"--CODEGEN--\":2045:2065   */\n      sub\n        /* \"--CODEGEN--\":2041:2042   */\n      0x00\n        /* \"--CODEGEN--\":2030:2039   */\n      dup4\n        /* \"--CODEGEN--\":2026:2043   */\n      add\n        /* \"--CODEGEN--\":2019:2066   */\n      mstore\n        /* \"--CODEGEN--\":2080:2211   */\n      tag_82\n        /* \"--CODEGEN--\":2206:2210   */\n      dup2\n        /* \"--CODEGEN--\":2080:2211   */\n      jump(tag_69)\n    tag_82:\n        /* \"--CODEGEN--\":2072:2211   */\n      swap1\n      pop\n        /* \"--CODEGEN--\":1976:2221   */\n      swap2\n      swap1\n      pop\n      jump\n        /* \"--CODEGEN--\":2228:2441   */\n    tag_12:\n      0x00\n        /* \"--CODEGEN--\":2346:2348   */\n      0x20\n        /* \"--CODEGEN--\":2335:2344   */\n      dup3\n        /* \"--CODEGEN--\":2331:2349   */\n      add\n        /* \"--CODEGEN--\":2323:2349   */\n      swap1\n      pop\n        /* \"--CODEGEN--\":2360:2431   */\n      tag_84\n        /* \"--CODEGEN--\":2428:2429   */\n      0x00\n        /* \"--CODEGEN--\":2417:2426   */\n      dup4\n        /* \"--CODEGEN--\":2413:2430   */\n      add\n        /* \"--CODEGEN--\":2404:2410   */\n      dup5\n        /* \"--CODEGEN--\":2360:2431   */\n      jump(tag_73)\n    tag_84:\n        /* \"--CODEGEN--\":2317:2441   */\n      swap3\n      swap2\n      pop\n      pop\n      jump\n        /* \"--CODEGEN--\":2448:2565   */\n    tag_62:\n      0x00\n        /* \"--CODEGEN--\":2537:2542   */\n      dup2\n        /* \"--CODEGEN--\":2531:2543   */\n      mload\n        /* \"--CODEGEN--\":2521:2543   */\n      swap1\n      pop\n        /* \"--CODEGEN--\":2502:2565   */\n      swap2\n      swap1\n      pop\n      jump\n        /* \"--CODEGEN--\":2573:2735   */\n    tag_64:\n      0x00\n        /* \"--CODEGEN--\":2687:2693   */\n      dup3\n        /* \"--CODEGEN--\":2682:2685   */\n      dup3\n        /* \"--CODEGEN--\":2675:2694   */\n      mstore\n        /* \"--CODEGEN--\":2724:2728   */\n      0x20\n        /* \"--CODEGEN--\":2719:2722   */\n      dup3\n        /* \"--CODEGEN--\":2715:2729   */\n      add\n        /* \"--CODEGEN--\":2700:2729   */\n      swap1\n      pop\n        /* \"--CODEGEN--\":2668:2735   */\n      swap3\n      swap2\n      pop\n      pop\n      jump\n        /* \"--CODEGEN--\":2744:2907   */\n    tag_72:\n      0x00\n        /* \"--CODEGEN--\":2859:2865   */\n      dup3\n        /* \"--CODEGEN--\":2854:2857   */\n      dup3\n        /* \"--CODEGEN--\":2847:2866   */\n      mstore\n        /* \"--CODEGEN--\":2896:2900   */\n      0x20\n        /* \"--CODEGEN--\":2891:2894   */\n      dup3\n        /* \"--CODEGEN--\":2887:2901   */\n      add\n        /* \"--CODEGEN--\":2872:2901   */\n      swap1\n      pop\n        /* \"--CODEGEN--\":2840:2907   */\n      swap3\n      swap2\n      pop\n      pop\n      jump\n        /* \"--CODEGEN--\":2915:2987   */\n    tag_58:\n      0x00\n        /* \"--CODEGEN--\":2977:2982   */\n      dup2\n        /* \"--CODEGEN--\":2966:2982   */\n      swap1\n      pop\n        /* \"--CODEGEN--\":2960:2987   */\n      swap2\n      swap1\n      pop\n      jump\n        /* \"--CODEGEN--\":2994:3066   */\n    tag_76:\n      0x00\n        /* \"--CODEGEN--\":3056:3061   */\n      dup2\n        /* \"--CODEGEN--\":3045:3061   */\n      swap1\n      pop\n        /* \"--CODEGEN--\":3039:3066   */\n      swap2\n      swap1\n      pop\n      jump\n        /* \"--CODEGEN--\":3074:3342   */\n    tag_66:\n        /* \"--CODEGEN--\":3139:3140   */\n      0x00\n        /* \"--CODEGEN--\":3146:3247   */\n    tag_91:\n        /* \"--CODEGEN--\":3160:3166   */\n      dup4\n        /* \"--CODEGEN--\":3157:3158   */\n      dup2\n        /* \"--CODEGEN--\":3154:3167   */\n      lt\n        /* \"--CODEGEN--\":3146:3247   */\n      iszero\n      tag_93\n      jumpi\n        /* \"--CODEGEN--\":3236:3237   */\n      dup1\n        /* \"--CODEGEN--\":3231:3234   */\n      dup3\n        /* \"--CODEGEN--\":3227:3238   */\n      add\n        /* \"--CODEGEN--\":3221:3239   */\n      mload\n        /* \"--CODEGEN--\":3217:3218   */\n      dup2\n        /* \"--CODEGEN--\":3212:3215   */\n      dup5\n        /* \"--CODEGEN--\":3208:3219   */\n      add\n        /* \"--CODEGEN--\":3201:3240   */\n      mstore\n        /* \"--CODEGEN--\":3182:3184   */\n      0x20\n        /* \"--CODEGEN--\":3179:3180   */\n      dup2\n        /* \"--CODEGEN--\":3175:3185   */\n      add\n        /* \"--CODEGEN--\":3170:3185   */\n      swap1\n      pop\n        /* \"--CODEGEN--\":3146:3247   */\n      jump(tag_91)\n    tag_93:\n        /* \"--CODEGEN--\":3262:3268   */\n      dup4\n        /* \"--CODEGEN--\":3259:3260   */\n      dup2\n        /* \"--CODEGEN--\":3256:3269   */\n      gt\n        /* \"--CODEGEN--\":3253:3255   */\n      iszero\n      tag_94\n      jumpi\n        /* \"--CODEGEN--\":3327:3328   */\n      0x00\n        /* \"--CODEGEN--\":3318:3324   */\n      dup5\n        /* \"--CODEGEN--\":3313:3316   */\n      dup5\n        /* \"--CODEGEN--\":3309:3325   */\n      add\n        /* \"--CODEGEN--\":3302:3329   */\n      mstore\n        /* \"--CODEGEN--\":3253:3255   */\n    tag_94:\n        /* \"--CODEGEN--\":3123:3342   */\n      pop\n      pop\n      pop\n      pop\n      jump\n        /* \"--CODEGEN--\":3350:3447   */\n    tag_68:\n      0x00\n        /* \"--CODEGEN--\":3438:3440   */\n      0x1f\n        /* \"--CODEGEN--\":3434:3441   */\n      not\n        /* \"--CODEGEN--\":3429:3431   */\n      0x1f\n        /* \"--CODEGEN--\":3422:3427   */\n      dup4\n        /* \"--CODEGEN--\":3418:3432   */\n      add\n        /* \"--CODEGEN--\":3414:3442   */\n      and\n        /* \"--CODEGEN--\":3404:3442   */\n      swap1\n      pop\n        /* \"--CODEGEN--\":3398:3447   */\n      swap2\n      swap1\n      pop\n      jump\n        /* \"--CODEGEN--\":3455:3572   */\n    tag_51:\n        /* \"--CODEGEN--\":3524:3548   */\n      tag_97\n        /* \"--CODEGEN--\":3542:3547   */\n      dup2\n        /* \"--CODEGEN--\":3524:3548   */\n      jump(tag_76)\n    tag_97:\n        /* \"--CODEGEN--\":3517:3522   */\n      dup2\n        /* \"--CODEGEN--\":3514:3549   */\n      eq\n        /* \"--CODEGEN--\":3504:3506   */\n      tag_98\n      jumpi\n        /* \"--CODEGEN--\":3563:3564   */\n      0x00\n        /* \"--CODEGEN--\":3560:3561   */\n      dup1\n        /* \"--CODEGEN--\":3553:3565   */\n      revert\n        /* \"--CODEGEN--\":3504:3506   */\n    tag_98:\n        /* \"--CODEGEN--\":3498:3572   */\n      pop\n      jump\n\n    auxdata: 0xa2646970667358221220b32d59a8b1648abfe0bda5204a423ff3a8a539f102228791e015f6f61e79dde664736f6c63430006040033\n}\n",
				"bytecode": {
					"linkReferences": {},
					"object": "60806040526040518060600160405280602e81526020016106e0602e913960009080519060200190610032929190610098565b506040518060600160405280602a815260200161070e602a913960019080519060200190610061929190610098565b507f4c45484f4e47564f776a6e66766a3377656838764b4a0000000000000000000060025534801561009257600080fd5b5061013d565b828054600181600116156101000203166002900490600052602060002090601f016020900481019282601f106100d957805160ff1916838001178555610107565b82800160010185558215610107579182015b828111156101065782518255916020019190600101906100eb565b5b5090506101149190610118565b5090565b61013a91905b8082111561013657600081600090555060010161011e565b5090565b90565b6105948061014c6000396000f3fe608060405234801561001057600080fd5b506004361061004c5760003560e01c80630178fe3f146100515780639ffd85c414610081578063e3a7fd751461009f578063fc26b0ab146100bd575b600080fd5b61006b6004803603810190610066919061038a565b6100db565b60405161007891906104a7565b60405180910390f35b6100896100ed565b6040516100969190610465565b60405180910390f35b6100a761018b565b6040516100b4919061044a565b60405180910390f35b6100c5610191565b6040516100d29190610465565b60405180910390f35b60006100e68261022f565b9050919050565b60008054600181600116156101000203166002900480601f0160208091040260200160405190810160405280929190818152602001828054600181600116156101000203166002900480156101835780601f1061015857610100808354040283529160200191610183565b820191906000526020600020905b81548152906001019060200180831161016657829003601f168201915b505050505081565b60025481565b60018054600181600116156101000203166002900480601f0160208091040260200160405190810160405280929190818152602001828054600181600116156101000203166002900480156102275780601f106101fc57610100808354040283529160200191610227565b820191906000526020600020905b81548152906001019060200180831161020a57829003601f168201915b505050505081565b6000806000835160001a9050608060ff16811015610250576001915061036b565b60b860ff1681101561026d576001608060ff16820301915061036a565b60c060ff168110156102e457600060b78203600186019550806020036101000a8651049150600181018201935050808310156102de576040517f08c379a00000000000000000000000000000000000000000000000000000000081526004016102d590610487565b60405180910390fd5b50610369565b60f860ff1681101561030157600160c060ff168203019150610368565b600060f78203600186019550806020036101000a865104915060018101820193505080831015610366576040517f08c379a000000000000000000000000000000000000000000000000000000000815260040161035d90610487565b60405180910390fd5b505b5b5b5b8192505050919050565b60008135905061038481610547565b92915050565b60006020828403121561039c57600080fd5b60006103aa84828501610375565b91505092915050565b6103bc816104ef565b82525050565b60006103cd826104c2565b6103d781856104cd565b93506103e7818560208601610503565b6103f081610536565b840191505092915050565b60006104086011836104de565b91507f6164646974696f6e206f766572666c6f770000000000000000000000000000006000830152602082019050919050565b610444816104f9565b82525050565b600060208201905061045f60008301846103b3565b92915050565b6000602082019050818103600083015261047f81846103c2565b905092915050565b600060208201905081810360008301526104a0816103fb565b9050919050565b60006020820190506104bc600083018461043b565b92915050565b600081519050919050565b600082825260208201905092915050565b600082825260208201905092915050565b6000819050919050565b6000819050919050565b60005b83811015610521578082015181840152602081019050610506565b83811115610530576000848401525b50505050565b6000601f19601f8301169050919050565b610550816104f9565b811461055b57600080fd5b5056fea2646970667358221220b32d59a8b1648abfe0bda5204a423ff3a8a539f102228791e015f6f61e79dde664736f6c634300060400334e414c4548484a534744534447484a534448535548444a5348444a53484a53484a534844534a44484a4f4e47564f7364664e417364667364664c4548484a5347445348444a53484a53484a534844534a44484a4f4e47564f",
					"opcodes": "PUSH1 0x80 PUSH1 0x40 MSTORE PUSH1 0x40 MLOAD DUP1 PUSH1 0x60 ADD PUSH1 0x40 MSTORE DUP1 PUSH1 0x2E DUP2 MSTORE PUSH1 0x20 ADD PUSH2 0x6E0 PUSH1 0x2E SWAP2 CODECOPY PUSH1 0x0 SWAP1 DUP1 MLOAD SWAP1 PUSH1 0x20 ADD SWAP1 PUSH2 0x32 SWAP3 SWAP2 SWAP1 PUSH2 0x98 JUMP JUMPDEST POP PUSH1 0x40 MLOAD DUP1 PUSH1 0x60 ADD PUSH1 0x40 MSTORE DUP1 PUSH1 0x2A DUP2 MSTORE PUSH1 0x20 ADD PUSH2 0x70E PUSH1 0x2A SWAP2 CODECOPY PUSH1 0x1 SWAP1 DUP1 MLOAD SWAP1 PUSH1 0x20 ADD SWAP1 PUSH2 0x61 SWAP3 SWAP2 SWAP1 PUSH2 0x98 JUMP JUMPDEST POP PUSH32 0x4C45484F4E47564F776A6E66766A3377656838764B4A00000000000000000000 PUSH1 0x2 SSTORE CALLVALUE DUP1 ISZERO PUSH2 0x92 JUMPI PUSH1 0x0 DUP1 REVERT JUMPDEST POP PUSH2 0x13D JUMP JUMPDEST DUP3 DUP1 SLOAD PUSH1 0x1 DUP2 PUSH1 0x1 AND ISZERO PUSH2 0x100 MUL SUB AND PUSH1 0x2 SWAP1 DIV SWAP1 PUSH1 0x0 MSTORE PUSH1 0x20 PUSH1 0x0 KECCAK256 SWAP1 PUSH1 0x1F ADD PUSH1 0x20 SWAP1 DIV DUP2 ADD SWAP3 DUP3 PUSH1 0x1F LT PUSH2 0xD9 JUMPI DUP1 MLOAD PUSH1 0xFF NOT AND DUP4 DUP1 ADD OR DUP6 SSTORE PUSH2 0x107 JUMP JUMPDEST DUP3 DUP1 ADD PUSH1 0x1 ADD DUP6 SSTORE DUP3 ISZERO PUSH2 0x107 JUMPI SWAP2 DUP3 ADD JUMPDEST DUP3 DUP2 GT ISZERO PUSH2 0x106 JUMPI DUP3 MLOAD DUP3 SSTORE SWAP2 PUSH1 0x20 ADD SWAP2 SWAP1 PUSH1 0x1 ADD SWAP1 PUSH2 0xEB JUMP JUMPDEST JUMPDEST POP SWAP1 POP PUSH2 0x114 SWAP2 SWAP1 PUSH2 0x118 JUMP JUMPDEST POP SWAP1 JUMP JUMPDEST PUSH2 0x13A SWAP2 SWAP1 JUMPDEST DUP1 DUP3 GT ISZERO PUSH2 0x136 JUMPI PUSH1 0x0 DUP2 PUSH1 0x0 SWAP1 SSTORE POP PUSH1 0x1 ADD PUSH2 0x11E JUMP JUMPDEST POP SWAP1 JUMP JUMPDEST SWAP1 JUMP JUMPDEST PUSH2 0x594 DUP1 PUSH2 0x14C PUSH1 0x0 CODECOPY PUSH1 0x0 RETURN INVALID PUSH1 0x80 PUSH1 0x40 MSTORE CALLVALUE DUP1 ISZERO PUSH2 0x10 JUMPI PUSH1 0x0 DUP1 REVERT JUMPDEST POP PUSH1 0x4 CALLDATASIZE LT PUSH2 0x4C JUMPI PUSH1 0x0 CALLDATALOAD PUSH1 0xE0 SHR DUP1 PUSH4 0x178FE3F EQ PUSH2 0x51 JUMPI DUP1 PUSH4 0x9FFD85C4 EQ PUSH2 0x81 JUMPI DUP1 PUSH4 0xE3A7FD75 EQ PUSH2 0x9F JUMPI DUP1 PUSH4 0xFC26B0AB EQ PUSH2 0xBD JUMPI JUMPDEST PUSH1 0x0 DUP1 REVERT JUMPDEST PUSH2 0x6B PUSH1 0x4 DUP1 CALLDATASIZE SUB DUP2 ADD SWAP1 PUSH2 0x66 SWAP2 SWAP1 PUSH2 0x38A JUMP JUMPDEST PUSH2 0xDB JUMP JUMPDEST PUSH1 0x40 MLOAD PUSH2 0x78 SWAP2 SWAP1 PUSH2 0x4A7 JUMP JUMPDEST PUSH1 0x40 MLOAD DUP1 SWAP2 SUB SWAP1 RETURN JUMPDEST PUSH2 0x89 PUSH2 0xED JUMP JUMPDEST PUSH1 0x40 MLOAD PUSH2 0x96 SWAP2 SWAP1 PUSH2 0x465 JUMP JUMPDEST PUSH1 0x40 MLOAD DUP1 SWAP2 SUB SWAP1 RETURN JUMPDEST PUSH2 0xA7 PUSH2 0x18B JUMP JUMPDEST PUSH1 0x40 MLOAD PUSH2 0xB4 SWAP2 SWAP1 PUSH2 0x44A JUMP JUMPDEST PUSH1 0x40 MLOAD DUP1 SWAP2 SUB SWAP1 RETURN JUMPDEST PUSH2 0xC5 PUSH2 0x191 JUMP JUMPDEST PUSH1 0x40 MLOAD PUSH2 0xD2 SWAP2 SWAP1 PUSH2 0x465 JUMP JUMPDEST PUSH1 0x40 MLOAD DUP1 SWAP2 SUB SWAP1 RETURN JUMPDEST PUSH1 0x0 PUSH2 0xE6 DUP3 PUSH2 0x22F JUMP JUMPDEST SWAP1 POP SWAP2 SWAP1 POP JUMP JUMPDEST PUSH1 0x0 DUP1 SLOAD PUSH1 0x1 DUP2 PUSH1 0x1 AND ISZERO PUSH2 0x100 MUL SUB AND PUSH1 0x2 SWAP1 DIV DUP1 PUSH1 0x1F ADD PUSH1 0x20 DUP1 SWAP2 DIV MUL PUSH1 0x20 ADD PUSH1 0x40 MLOAD SWAP1 DUP2 ADD PUSH1 0x40 MSTORE DUP1 SWAP3 SWAP2 SWAP1 DUP2 DUP2 MSTORE PUSH1 0x20 ADD DUP3 DUP1 SLOAD PUSH1 0x1 DUP2 PUSH1 0x1 AND ISZERO PUSH2 0x100 MUL SUB AND PUSH1 0x2 SWAP1 DIV DUP1 ISZERO PUSH2 0x183 JUMPI DUP1 PUSH1 0x1F LT PUSH2 0x158 JUMPI PUSH2 0x100 DUP1 DUP4 SLOAD DIV MUL DUP4 MSTORE SWAP2 PUSH1 0x20 ADD SWAP2 PUSH2 0x183 JUMP JUMPDEST DUP3 ADD SWAP2 SWAP1 PUSH1 0x0 MSTORE PUSH1 0x20 PUSH1 0x0 KECCAK256 SWAP1 JUMPDEST DUP2 SLOAD DUP2 MSTORE SWAP1 PUSH1 0x1 ADD SWAP1 PUSH1 0x20 ADD DUP1 DUP4 GT PUSH2 0x166 JUMPI DUP3 SWAP1 SUB PUSH1 0x1F AND DUP3 ADD SWAP2 JUMPDEST POP POP POP POP POP DUP2 JUMP JUMPDEST PUSH1 0x2 SLOAD DUP2 JUMP JUMPDEST PUSH1 0x1 DUP1 SLOAD PUSH1 0x1 DUP2 PUSH1 0x1 AND ISZERO PUSH2 0x100 MUL SUB AND PUSH1 0x2 SWAP1 DIV DUP1 PUSH1 0x1F ADD PUSH1 0x20 DUP1 SWAP2 DIV MUL PUSH1 0x20 ADD PUSH1 0x40 MLOAD SWAP1 DUP2 ADD PUSH1 0x40 MSTORE DUP1 SWAP3 SWAP2 SWAP1 DUP2 DUP2 MSTORE PUSH1 0x20 ADD DUP3 DUP1 SLOAD PUSH1 0x1 DUP2 PUSH1 0x1 AND ISZERO PUSH2 0x100 MUL SUB AND PUSH1 0x2 SWAP1 DIV DUP1 ISZERO PUSH2 0x227 JUMPI DUP1 PUSH1 0x1F LT PUSH2 0x1FC JUMPI PUSH2 0x100 DUP1 DUP4 SLOAD DIV MUL DUP4 MSTORE SWAP2 PUSH1 0x20 ADD SWAP2 PUSH2 0x227 JUMP JUMPDEST DUP3 ADD SWAP2 SWAP1 PUSH1 0x0 MSTORE PUSH1 0x20 PUSH1 0x0 KECCAK256 SWAP1 JUMPDEST DUP2 SLOAD DUP2 MSTORE SWAP1 PUSH1 0x1 ADD SWAP1 PUSH1 0x20 ADD DUP1 DUP4 GT PUSH2 0x20A JUMPI DUP3 SWAP1 SUB PUSH1 0x1F AND DUP3 ADD SWAP2 JUMPDEST POP POP POP POP POP DUP2 JUMP JUMPDEST PUSH1 0x0 DUP1 PUSH1 0x0 DUP4 MLOAD PUSH1 0x0 BYTE SWAP1 POP PUSH1 0x80 PUSH1 0xFF AND DUP2 LT ISZERO PUSH2 0x250 JUMPI PUSH1 0x1 SWAP2 POP PUSH2 0x36B JUMP JUMPDEST PUSH1 0xB8 PUSH1 0xFF AND DUP2 LT ISZERO PUSH2 0x26D JUMPI PUSH1 0x1 PUSH1 0x80 PUSH1 0xFF AND DUP3 SUB ADD SWAP2 POP PUSH2 0x36A JUMP JUMPDEST PUSH1 0xC0 PUSH1 0xFF AND DUP2 LT ISZERO PUSH2 0x2E4 JUMPI PUSH1 0x0 PUSH1 0xB7 DUP3 SUB PUSH1 0x1 DUP7 ADD SWAP6 POP DUP1 PUSH1 0x20 SUB PUSH2 0x100 EXP DUP7 MLOAD DIV SWAP2 POP PUSH1 0x1 DUP2 ADD DUP3 ADD SWAP4 POP POP DUP1 DUP4 LT ISZERO PUSH2 0x2DE JUMPI PUSH1 0x40 MLOAD PUSH32 0x8C379A000000000000000000000000000000000000000000000000000000000 DUP2 MSTORE PUSH1 0x4 ADD PUSH2 0x2D5 SWAP1 PUSH2 0x487 JUMP JUMPDEST PUSH1 0x40 MLOAD DUP1 SWAP2 SUB SWAP1 REVERT JUMPDEST POP PUSH2 0x369 JUMP JUMPDEST PUSH1 0xF8 PUSH1 0xFF AND DUP2 LT ISZERO PUSH2 0x301 JUMPI PUSH1 0x1 PUSH1 0xC0 PUSH1 0xFF AND DUP3 SUB ADD SWAP2 POP PUSH2 0x368 JUMP JUMPDEST PUSH1 0x0 PUSH1 0xF7 DUP3 SUB PUSH1 0x1 DUP7 ADD SWAP6 POP DUP1 PUSH1 0x20 SUB PUSH2 0x100 EXP DUP7 MLOAD DIV SWAP2 POP PUSH1 0x1 DUP2 ADD DUP3 ADD SWAP4 POP POP DUP1 DUP4 LT ISZERO PUSH2 0x366 JUMPI PUSH1 0x40 MLOAD PUSH32 0x8C379A000000000000000000000000000000000000000000000000000000000 DUP2 MSTORE PUSH1 0x4 ADD PUSH2 0x35D SWAP1 PUSH2 0x487 JUMP JUMPDEST PUSH1 0x40 MLOAD DUP1 SWAP2 SUB SWAP1 REVERT JUMPDEST POP JUMPDEST JUMPDEST JUMPDEST JUMPDEST DUP2 SWAP3 POP POP POP SWAP2 SWAP1 POP JUMP JUMPDEST PUSH1 0x0 DUP2 CALLDATALOAD SWAP1 POP PUSH2 0x384 DUP2 PUSH2 0x547 JUMP JUMPDEST SWAP3 SWAP2 POP POP JUMP JUMPDEST PUSH1 0x0 PUSH1 0x20 DUP3 DUP5 SUB SLT ISZERO PUSH2 0x39C JUMPI PUSH1 0x0 DUP1 REVERT JUMPDEST PUSH1 0x0 PUSH2 0x3AA DUP5 DUP3 DUP6 ADD PUSH2 0x375 JUMP JUMPDEST SWAP2 POP POP SWAP3 SWAP2 POP POP JUMP JUMPDEST PUSH2 0x3BC DUP2 PUSH2 0x4EF JUMP JUMPDEST DUP3 MSTORE POP POP JUMP JUMPDEST PUSH1 0x0 PUSH2 0x3CD DUP3 PUSH2 0x4C2 JUMP JUMPDEST PUSH2 0x3D7 DUP2 DUP6 PUSH2 0x4CD JUMP JUMPDEST SWAP4 POP PUSH2 0x3E7 DUP2 DUP6 PUSH1 0x20 DUP7 ADD PUSH2 0x503 JUMP JUMPDEST PUSH2 0x3F0 DUP2 PUSH2 0x536 JUMP JUMPDEST DUP5 ADD SWAP2 POP POP SWAP3 SWAP2 POP POP JUMP JUMPDEST PUSH1 0x0 PUSH2 0x408 PUSH1 0x11 DUP4 PUSH2 0x4DE JUMP JUMPDEST SWAP2 POP PUSH32 0x6164646974696F6E206F766572666C6F77000000000000000000000000000000 PUSH1 0x0 DUP4 ADD MSTORE PUSH1 0x20 DUP3 ADD SWAP1 POP SWAP2 SWAP1 POP JUMP JUMPDEST PUSH2 0x444 DUP2 PUSH2 0x4F9 JUMP JUMPDEST DUP3 MSTORE POP POP JUMP JUMPDEST PUSH1 0x0 PUSH1 0x20 DUP3 ADD SWAP1 POP PUSH2 0x45F PUSH1 0x0 DUP4 ADD DUP5 PUSH2 0x3B3 JUMP JUMPDEST SWAP3 SWAP2 POP POP JUMP JUMPDEST PUSH1 0x0 PUSH1 0x20 DUP3 ADD SWAP1 POP DUP2 DUP2 SUB PUSH1 0x0 DUP4 ADD MSTORE PUSH2 0x47F DUP2 DUP5 PUSH2 0x3C2 JUMP JUMPDEST SWAP1 POP SWAP3 SWAP2 POP POP JUMP JUMPDEST PUSH1 0x0 PUSH1 0x20 DUP3 ADD SWAP1 POP DUP2 DUP2 SUB PUSH1 0x0 DUP4 ADD MSTORE PUSH2 0x4A0 DUP2 PUSH2 0x3FB JUMP JUMPDEST SWAP1 POP SWAP2 SWAP1 POP JUMP JUMPDEST PUSH1 0x0 PUSH1 0x20 DUP3 ADD SWAP1 POP PUSH2 0x4BC PUSH1 0x0 DUP4 ADD DUP5 PUSH2 0x43B JUMP JUMPDEST SWAP3 SWAP2 POP POP JUMP JUMPDEST PUSH1 0x0 DUP2 MLOAD SWAP1 POP SWAP2 SWAP1 POP JUMP JUMPDEST PUSH1 0x0 DUP3 DUP3 MSTORE PUSH1 0x20 DUP3 ADD SWAP1 POP SWAP3 SWAP2 POP POP JUMP JUMPDEST PUSH1 0x0 DUP3 DUP3 MSTORE PUSH1 0x20 DUP3 ADD SWAP1 POP SWAP3 SWAP2 POP POP JUMP JUMPDEST PUSH1 0x0 DUP2 SWAP1 POP SWAP2 SWAP1 POP JUMP JUMPDEST PUSH1 0x0 DUP2 SWAP1 POP SWAP2 SWAP1 POP JUMP JUMPDEST PUSH1 0x0 JUMPDEST DUP4 DUP2 LT ISZERO PUSH2 0x521 JUMPI DUP1 DUP3 ADD MLOAD DUP2 DUP5 ADD MSTORE PUSH1 0x20 DUP2 ADD SWAP1 POP PUSH2 0x506 JUMP JUMPDEST DUP4 DUP2 GT ISZERO PUSH2 0x530 JUMPI PUSH1 0x0 DUP5 DUP5 ADD MSTORE JUMPDEST POP POP POP POP JUMP JUMPDEST PUSH1 0x0 PUSH1 0x1F NOT PUSH1 0x1F DUP4 ADD AND SWAP1 POP SWAP2 SWAP1 POP JUMP JUMPDEST PUSH2 0x550 DUP2 PUSH2 0x4F9 JUMP JUMPDEST DUP2 EQ PUSH2 0x55B JUMPI PUSH1 0x0 DUP1 REVERT JUMPDEST POP JUMP INVALID LOG2 PUSH5 0x6970667358 0x22 SLT KECCAK256 0xB3 0x2D MSIZE 0xA8 0xB1 PUSH5 0x8ABFE0BDA5 KECCAK256 0x4A TIMESTAMP EXTCODEHASH RETURN 0xA8 0xA5 CODECOPY CALL MUL 0x22 DUP8 SWAP2 0xE0 ISZERO 0xF6 0xF6 0x1E PUSH26 0xDDE664736F6C634300060400334E414C4548484A534744534447 0x48 0x4A MSTORE8 DIFFICULTY 0x48 MSTORE8 SSTORE 0x48 DIFFICULTY 0x4A MSTORE8 0x48 DIFFICULTY 0x4A MSTORE8 0x48 0x4A MSTORE8 0x48 0x4A MSTORE8 0x48 DIFFICULTY MSTORE8 0x4A DIFFICULTY 0x48 0x4A 0x4F 0x4E SELFBALANCE JUMP 0x4F PUSH20 0x64664E417364667364664C4548484A5347445348 DIFFICULTY 0x4A MSTORE8 0x48 0x4A MSTORE8 0x48 0x4A MSTORE8 0x48 DIFFICULTY MSTORE8 0x4A DIFFICULTY 0x48 0x4A 0x4F 0x4E SELFBALANCE JUMP 0x4F "
				},
				"gasEstimates": {
					"creation": {
						"codeDepositCost": "285600",
						"executionCost": "infinite",
						"totalCost": "infinite"
					},
					"external": {
						"data1()": "infinite",
						"data2()": "1151",
						"data3()": "infinite",
						"getData(uint256)": "infinite"
					},
					"internal": {
						"_itemLength(uint256)": "infinite",
						"_payloadOffset(uint256)": "infinite",
						"copy(uint256,uint256,uint256)": "infinite"
					}
				},
				"methodIdentifiers": {
					"data1()": "9ffd85c4",
					"data2()": "e3a7fd75",
					"data3()": "fc26b0ab",
					"getData(uint256)": "0178fe3f"
				}
			},
			"userdoc": {
				"methods": {}
			}
		}
	}
}