{
	"BEP/Demo.sol": {
		"Demo1": {
			"abi": [
				{
					"inputs": [],
					"name": "ACK_PACKAGE",
					"outputs": [
						{
							"internalType": "uint8",
							"name": "",
							"type": "uint8"
						}
					],
					"stateMutability": "view",
					"type": "function"
				},
				{
					"inputs": [],
					"name": "CROSS_CHAIN_KEY_PREFIX",
					"outputs": [
						{
							"internalType": "uint256",
							"name": "",
							"type": "uint256"
						}
					],
					"stateMutability": "view",
					"type": "function"
				},
				{
					"inputs": [],
					"name": "FAIL_ACK_PACKAGE",
					"outputs": [
						{
							"internalType": "uint8",
							"name": "",
							"type": "uint8"
						}
					],
					"stateMutability": "view",
					"type": "function"
				},
				{
					"inputs": [],
					"name": "INIT_BATCH_SIZE",
					"outputs": [
						{
							"internalType": "uint256",
							"name": "",
							"type": "uint256"
						}
					],
					"stateMutability": "view",
					"type": "function"
				},
				{
					"inputs": [],
					"name": "STORE_NAME",
					"outputs": [
						{
							"internalType": "string",
							"name": "",
							"type": "string"
						}
					],
					"stateMutability": "view",
					"type": "function"
				},
				{
					"inputs": [],
					"name": "SYN_PACKAGE",
					"outputs": [
						{
							"internalType": "uint8",
							"name": "",
							"type": "uint8"
						}
					],
					"stateMutability": "view",
					"type": "function"
				}
			],
			"devdoc": {
				"methods": {}
			},
			"evm": {
				"assembly": "    /* \"BEP/Demo.sol\":26:363  contract Demo1{\r... */\n  mstore(0x40, 0x80)\n  callvalue\n    /* \"--CODEGEN--\":5:14   */\n  dup1\n    /* \"--CODEGEN--\":2:4   */\n  iszero\n  tag_1\n  jumpi\n    /* \"--CODEGEN--\":27:28   */\n  0x00\n    /* \"--CODEGEN--\":24:25   */\n  dup1\n    /* \"--CODEGEN--\":17:29   */\n  revert\n    /* \"--CODEGEN--\":2:4   */\ntag_1:\n    /* \"BEP/Demo.sol\":26:363  contract Demo1{\r... */\n  pop\n  dataSize(sub_0)\n  dup1\n  dataOffset(sub_0)\n  0x00\n  codecopy\n  0x00\n  return\nstop\n\nsub_0: assembly {\n        /* \"BEP/Demo.sol\":26:363  contract Demo1{\r... */\n      mstore(0x40, 0x80)\n      callvalue\n        /* \"--CODEGEN--\":5:14   */\n      dup1\n        /* \"--CODEGEN--\":2:4   */\n      iszero\n      tag_1\n      jumpi\n        /* \"--CODEGEN--\":27:28   */\n      0x00\n        /* \"--CODEGEN--\":24:25   */\n      dup1\n        /* \"--CODEGEN--\":17:29   */\n      revert\n        /* \"--CODEGEN--\":2:4   */\n    tag_1:\n        /* \"BEP/Demo.sol\":26:363  contract Demo1{\r... */\n      pop\n      jumpi(tag_2, lt(calldatasize, 0x04))\n      shr(0xe0, calldataload(0x00))\n      dup1\n      0x05e68258\n      eq\n      tag_3\n      jumpi\n      dup1\n      0x22556cdc\n      eq\n      tag_4\n      jumpi\n      dup1\n      0x863fe4ab\n      eq\n      tag_5\n      jumpi\n      dup1\n      0x8cc8f561\n      eq\n      tag_6\n      jumpi\n      dup1\n      0xb0355f5b\n      eq\n      tag_7\n      jumpi\n      dup1\n      0xd76a8675\n      eq\n      tag_8\n      jumpi\n    tag_2:\n        /* \"--CODEGEN--\":12:13   */\n      0x00\n        /* \"--CODEGEN--\":9:10   */\n      dup1\n        /* \"--CODEGEN--\":2:14   */\n      revert\n        /* \"BEP/Demo.sol\":175:215  uint8 constant public SYN_PACKAGE = 0x00 */\n    tag_3:\n      tag_9\n      tag_10\n      jump\t// in\n    tag_9:\n      mload(0x40)\n      dup1\n      dup3\n      0xff\n      and\n      0xff\n      and\n      dup2\n      mstore\n      0x20\n      add\n      swap2\n      pop\n      pop\n      mload(0x40)\n      dup1\n      swap2\n      sub\n      swap1\n      return\n        /* \"BEP/Demo.sol\":315:359  uint256 constant public INIT_BATCH_SIZE = 50 */\n    tag_4:\n      tag_11\n      tag_12\n      jump\t// in\n    tag_11:\n      mload(0x40)\n      dup1\n      dup3\n      dup2\n      mstore\n      0x20\n      add\n      swap2\n      pop\n      pop\n      mload(0x40)\n      dup1\n      swap2\n      sub\n      swap1\n      return\n        /* \"BEP/Demo.sol\":95:154  uint256 constant public CROSS_CHAIN_KEY_PREFIX = 0x01006000 */\n    tag_5:\n      tag_13\n      tag_14\n      jump\t// in\n    tag_13:\n      mload(0x40)\n      dup1\n      dup3\n      dup2\n      mstore\n      0x20\n      add\n      swap2\n      pop\n      pop\n      mload(0x40)\n      dup1\n      swap2\n      sub\n      swap1\n      return\n        /* \"BEP/Demo.sol\":265:310  uint8 constant public FAIL_ACK_PACKAGE = 0x02 */\n    tag_6:\n      tag_15\n      tag_16\n      jump\t// in\n    tag_15:\n      mload(0x40)\n      dup1\n      dup3\n      0xff\n      and\n      0xff\n      and\n      dup2\n      mstore\n      0x20\n      add\n      swap2\n      pop\n      pop\n      mload(0x40)\n      dup1\n      swap2\n      sub\n      swap1\n      return\n        /* \"BEP/Demo.sol\":220:260  uint8 constant public ACK_PACKAGE = 0x01 */\n    tag_7:\n      tag_17\n      tag_18\n      jump\t// in\n    tag_17:\n      mload(0x40)\n      dup1\n      dup3\n      0xff\n      and\n      0xff\n      and\n      dup2\n      mstore\n      0x20\n      add\n      swap2\n      pop\n      pop\n      mload(0x40)\n      dup1\n      swap2\n      sub\n      swap1\n      return\n        /* \"BEP/Demo.sol\":49:90  string constant public STORE_NAME = \"ibc\" */\n    tag_8:\n      tag_19\n      tag_20\n      jump\t// in\n    tag_19:\n      mload(0x40)\n      dup1\n      dup1\n      0x20\n      add\n      dup3\n      dup2\n      sub\n      dup3\n      mstore\n      dup4\n      dup2\n      dup2\n      mload\n      dup2\n      mstore\n      0x20\n      add\n      swap2\n      pop\n      dup1\n      mload\n      swap1\n      0x20\n      add\n      swap1\n      dup1\n      dup4\n      dup4\n        /* \"--CODEGEN--\":23:24   */\n      0x00\n        /* \"--CODEGEN--\":8:108   */\n    tag_21:\n        /* \"--CODEGEN--\":33:36   */\n      dup4\n        /* \"--CODEGEN--\":30:31   */\n      dup2\n        /* \"--CODEGEN--\":27:37   */\n      lt\n        /* \"--CODEGEN--\":8:108   */\n      iszero\n      tag_23\n      jumpi\n        /* \"--CODEGEN--\":99:100   */\n      dup1\n        /* \"--CODEGEN--\":94:97   */\n      dup3\n        /* \"--CODEGEN--\":90:101   */\n      add\n        /* \"--CODEGEN--\":84:102   */\n      mload\n        /* \"--CODEGEN--\":80:81   */\n      dup2\n        /* \"--CODEGEN--\":75:78   */\n      dup5\n        /* \"--CODEGEN--\":71:82   */\n      add\n        /* \"--CODEGEN--\":64:103   */\n      mstore\n        /* \"--CODEGEN--\":52:54   */\n      0x20\n        /* \"--CODEGEN--\":49:50   */\n      dup2\n        /* \"--CODEGEN--\":45:55   */\n      add\n        /* \"--CODEGEN--\":40:55   */\n      swap1\n      pop\n        /* \"--CODEGEN--\":8:108   */\n      jump(tag_21)\n    tag_23:\n        /* \"--CODEGEN--\":12:26   */\n      pop\n        /* \"BEP/Demo.sol\":49:90  string constant public STORE_NAME = \"ibc\" */\n      pop\n      pop\n      pop\n      swap1\n      pop\n      swap1\n      dup2\n      add\n      swap1\n      0x1f\n      and\n      dup1\n      iszero\n      tag_24\n      jumpi\n      dup1\n      dup3\n      sub\n      dup1\n      mload\n      0x01\n      dup4\n      0x20\n      sub\n      0x0100\n      exp\n      sub\n      not\n      and\n      dup2\n      mstore\n      0x20\n      add\n      swap2\n      pop\n    tag_24:\n      pop\n      swap3\n      pop\n      pop\n      pop\n      mload(0x40)\n      dup1\n      swap2\n      sub\n      swap1\n      return\n        /* \"BEP/Demo.sol\":175:215  uint8 constant public SYN_PACKAGE = 0x00 */\n    tag_10:\n        /* \"BEP/Demo.sol\":211:215  0x00 */\n      0x00\n        /* \"BEP/Demo.sol\":175:215  uint8 constant public SYN_PACKAGE = 0x00 */\n      dup2\n      jump\t// out\n        /* \"BEP/Demo.sol\":315:359  uint256 constant public INIT_BATCH_SIZE = 50 */\n    tag_12:\n        /* \"BEP/Demo.sol\":357:359  50 */\n      0x32\n        /* \"BEP/Demo.sol\":315:359  uint256 constant public INIT_BATCH_SIZE = 50 */\n      dup2\n      jump\t// out\n        /* \"BEP/Demo.sol\":95:154  uint256 constant public CROSS_CHAIN_KEY_PREFIX = 0x01006000 */\n    tag_14:\n        /* \"BEP/Demo.sol\":144:154  0x01006000 */\n      0x01006000\n        /* \"BEP/Demo.sol\":95:154  uint256 constant public CROSS_CHAIN_KEY_PREFIX = 0x01006000 */\n      dup2\n      jump\t// out\n        /* \"BEP/Demo.sol\":265:310  uint8 constant public FAIL_ACK_PACKAGE = 0x02 */\n    tag_16:\n        /* \"BEP/Demo.sol\":306:310  0x02 */\n      0x02\n        /* \"BEP/Demo.sol\":265:310  uint8 constant public FAIL_ACK_PACKAGE = 0x02 */\n      dup2\n      jump\t// out\n        /* \"BEP/Demo.sol\":220:260  uint8 constant public ACK_PACKAGE = 0x01 */\n    tag_18:\n        /* \"BEP/Demo.sol\":256:260  0x01 */\n      0x01\n        /* \"BEP/Demo.sol\":220:260  uint8 constant public ACK_PACKAGE = 0x01 */\n      dup2\n      jump\t// out\n        /* \"BEP/Demo.sol\":49:90  string constant public STORE_NAME = \"ibc\" */\n    tag_20:\n      mload(0x40)\n      dup1\n      0x40\n      add\n      0x40\n      mstore\n      dup1\n      0x03\n      dup2\n      mstore\n      0x20\n      add\n      0x6962630000000000000000000000000000000000000000000000000000000000\n      dup2\n      mstore\n      pop\n      dup2\n      jump\t// out\n\n    auxdata: 0xa26469706673582212204204e4c824d528f490bfec8caa2f12fa7575ff2e734cdbe2a3ba4d5742e6d7c364736f6c63430006040033\n}\n",
				"bytecode": {
					"linkReferences": {},
					"object": "608060405234801561001057600080fd5b5061021d806100206000396000f3fe608060405234801561001057600080fd5b50600436106100625760003560e01c806305e682581461006757806322556cdc1461008b578063863fe4ab146100a95780638cc8f561146100c7578063b0355f5b146100eb578063d76a86751461010f575b600080fd5b61006f610192565b604051808260ff1660ff16815260200191505060405180910390f35b610093610197565b6040518082815260200191505060405180910390f35b6100b161019c565b6040518082815260200191505060405180910390f35b6100cf6101a4565b604051808260ff1660ff16815260200191505060405180910390f35b6100f36101a9565b604051808260ff1660ff16815260200191505060405180910390f35b6101176101ae565b6040518080602001828103825283818151815260200191508051906020019080838360005b8381101561015757808201518184015260208101905061013c565b50505050905090810190601f1680156101845780820380516001836020036101000a031916815260200191505b509250505060405180910390f35b600081565b603281565b630100600081565b600281565b600181565b6040518060400160405280600381526020017f69626300000000000000000000000000000000000000000000000000000000008152508156fea26469706673582212204204e4c824d528f490bfec8caa2f12fa7575ff2e734cdbe2a3ba4d5742e6d7c364736f6c63430006040033",
					"opcodes": "PUSH1 0x80 PUSH1 0x40 MSTORE CALLVALUE DUP1 ISZERO PUSH2 0x10 JUMPI PUSH1 0x0 DUP1 REVERT JUMPDEST POP PUSH2 0x21D DUP1 PUSH2 0x20 PUSH1 0x0 CODECOPY PUSH1 0x0 RETURN INVALID PUSH1 0x80 PUSH1 0x40 MSTORE CALLVALUE DUP1 ISZERO PUSH2 0x10 JUMPI PUSH1 0x0 DUP1 REVERT JUMPDEST POP PUSH1 0x4 CALLDATASIZE LT PUSH2 0x62 JUMPI PUSH1 0x0 CALLDATALOAD PUSH1 0xE0 SHR DUP1 PUSH4 0x5E68258 EQ PUSH2 0x67 JUMPI DUP1 PUSH4 0x22556CDC EQ PUSH2 0x8B JUMPI DUP1 PUSH4 0x863FE4AB EQ PUSH2 0xA9 JUMPI DUP1 PUSH4 0x8CC8F561 EQ PUSH2 0xC7 JUMPI DUP1 PUSH4 0xB0355F5B EQ PUSH2 0xEB JUMPI DUP1 PUSH4 0xD76A8675 EQ PUSH2 0x10F JUMPI JUMPDEST PUSH1 0x0 DUP1 REVERT JUMPDEST PUSH2 0x6F PUSH2 0x192 JUMP JUMPDEST PUSH1 0x40 MLOAD DUP1 DUP3 PUSH1 0xFF AND PUSH1 0xFF AND DUP2 MSTORE PUSH1 0x20 ADD SWAP2 POP POP PUSH1 0x40 MLOAD DUP1 SWAP2 SUB SWAP1 RETURN JUMPDEST PUSH2 0x93 PUSH2 0x197 JUMP JUMPDEST PUSH1 0x40 MLOAD DUP1 DUP3 DUP2 MSTORE PUSH1 0x20 ADD SWAP2 POP POP PUSH1 0x40 MLOAD DUP1 SWAP2 SUB SWAP1 RETURN JUMPDEST PUSH2 0xB1 PUSH2 0x19C JUMP JUMPDEST PUSH1 0x40 MLOAD DUP1 DUP3 DUP2 MSTORE PUSH1 0x20 ADD SWAP2 POP POP PUSH1 0x40 MLOAD DUP1 SWAP2 SUB SWAP1 RETURN JUMPDEST PUSH2 0xCF PUSH2 0x1A4 JUMP JUMPDEST PUSH1 0x40 MLOAD DUP1 DUP3 PUSH1 0xFF AND PUSH1 0xFF AND DUP2 MSTORE PUSH1 0x20 ADD SWAP2 POP POP PUSH1 0x40 MLOAD DUP1 SWAP2 SUB SWAP1 RETURN JUMPDEST PUSH2 0xF3 PUSH2 0x1A9 JUMP JUMPDEST PUSH1 0x40 MLOAD DUP1 DUP3 PUSH1 0xFF AND PUSH1 0xFF AND DUP2 MSTORE PUSH1 0x20 ADD SWAP2 POP POP PUSH1 0x40 MLOAD DUP1 SWAP2 SUB SWAP1 RETURN JUMPDEST PUSH2 0x117 PUSH2 0x1AE JUMP JUMPDEST PUSH1 0x40 MLOAD DUP1 DUP1 PUSH1 0x20 ADD DUP3 DUP2 SUB DUP3 MSTORE DUP4 DUP2 DUP2 MLOAD DUP2 MSTORE PUSH1 0x20 ADD SWAP2 POP DUP1 MLOAD SWAP1 PUSH1 0x20 ADD SWAP1 DUP1 DUP4 DUP4 PUSH1 0x0 JUMPDEST DUP4 DUP2 LT ISZERO PUSH2 0x157 JUMPI DUP1 DUP3 ADD MLOAD DUP2 DUP5 ADD MSTORE PUSH1 0x20 DUP2 ADD SWAP1 POP PUSH2 0x13C JUMP JUMPDEST POP POP POP POP SWAP1 POP SWAP1 DUP2 ADD SWAP1 PUSH1 0x1F AND DUP1 ISZERO PUSH2 0x184 JUMPI DUP1 DUP3 SUB DUP1 MLOAD PUSH1 0x1 DUP4 PUSH1 0x20 SUB PUSH2 0x100 EXP SUB NOT AND DUP2 MSTORE PUSH1 0x20 ADD SWAP2 POP JUMPDEST POP SWAP3 POP POP POP PUSH1 0x40 MLOAD DUP1 SWAP2 SUB SWAP1 RETURN JUMPDEST PUSH1 0x0 DUP2 JUMP JUMPDEST PUSH1 0x32 DUP2 JUMP JUMPDEST PUSH4 0x1006000 DUP2 JUMP JUMPDEST PUSH1 0x2 DUP2 JUMP JUMPDEST PUSH1 0x1 DUP2 JUMP JUMPDEST PUSH1 0x40 MLOAD DUP1 PUSH1 0x40 ADD PUSH1 0x40 MSTORE DUP1 PUSH1 0x3 DUP2 MSTORE PUSH1 0x20 ADD PUSH32 0x6962630000000000000000000000000000000000000000000000000000000000 DUP2 MSTORE POP DUP2 JUMP INVALID LOG2 PUSH5 0x6970667358 0x22 SLT KECCAK256 TIMESTAMP DIV 0xE4 0xC8 0x24 0xD5 0x28 DELEGATECALL SWAP1 0xBF 0xEC DUP13 0xAA 0x2F SLT STATICCALL PUSH22 0x75FF2E734CDBE2A3BA4D5742E6D7C364736F6C634300 MOD DIV STOP CALLER "
				},
				"gasEstimates": {
					"creation": {
						"codeDepositCost": "108200",
						"executionCost": "153",
						"totalCost": "108353"
					},
					"external": {
						"ACK_PACKAGE()": "283",
						"CROSS_CHAIN_KEY_PREFIX()": "227",
						"FAIL_ACK_PACKAGE()": "261",
						"INIT_BATCH_SIZE()": "205",
						"STORE_NAME()": "infinite",
						"SYN_PACKAGE()": "195"
					}
				},
				"methodIdentifiers": {
					"ACK_PACKAGE()": "b0355f5b",
					"CROSS_CHAIN_KEY_PREFIX()": "863fe4ab",
					"FAIL_ACK_PACKAGE()": "8cc8f561",
					"INIT_BATCH_SIZE()": "22556cdc",
					"STORE_NAME()": "d76a8675",
					"SYN_PACKAGE()": "05e68258"
				}
			},
			"userdoc": {
				"methods": {}
			}
		}
	}
}