{
	"BEP/Demo.sol": {
		"Demo1": {
			"abi": [
				{
					"inputs": [
						{
							"internalType": "uint256",
							"name": "addr",
							"type": "uint256"
						},
						{
							"internalType": "uint256",
							"name": "len",
							"type": "uint256"
						}
					],
					"name": "getData",
					"outputs": [
						{
							"internalType": "bytes",
							"name": "",
							"type": "bytes"
						}
					],
					"stateMutability": "view",
					"type": "function"
				}
			],
			"devdoc": {
				"methods": {}
			},
			"evm": {
				"assembly": "    /* \"BEP/Demo.sol\":26:1281  contract Demo1{\r... */\n  mstore(0x40, 0x80)\n  callvalue\n    /* \"--CODEGEN--\":5:14   */\n  dup1\n    /* \"--CODEGEN--\":2:4   */\n  iszero\n  tag_1\n  jumpi\n    /* \"--CODEGEN--\":27:28   */\n  0x00\n    /* \"--CODEGEN--\":24:25   */\n  dup1\n    /* \"--CODEGEN--\":17:29   */\n  revert\n    /* \"--CODEGEN--\":2:4   */\ntag_1:\n    /* \"BEP/Demo.sol\":26:1281  contract Demo1{\r... */\n  pop\n  dataSize(sub_0)\n  dup1\n  dataOffset(sub_0)\n  0x00\n  codecopy\n  0x00\n  return\nstop\n\nsub_0: assembly {\n        /* \"BEP/Demo.sol\":26:1281  contract Demo1{\r... */\n      mstore(0x40, 0x80)\n      callvalue\n        /* \"--CODEGEN--\":5:14   */\n      dup1\n        /* \"--CODEGEN--\":2:4   */\n      iszero\n      tag_1\n      jumpi\n        /* \"--CODEGEN--\":27:28   */\n      0x00\n        /* \"--CODEGEN--\":24:25   */\n      dup1\n        /* \"--CODEGEN--\":17:29   */\n      revert\n        /* \"--CODEGEN--\":2:4   */\n    tag_1:\n        /* \"BEP/Demo.sol\":26:1281  contract Demo1{\r... */\n      pop\n      jumpi(tag_2, lt(calldatasize, 0x04))\n      shr(0xe0, calldataload(0x00))\n      dup1\n      0x4e4fe306\n      eq\n      tag_3\n      jumpi\n    tag_2:\n        /* \"--CODEGEN--\":12:13   */\n      0x00\n        /* \"--CODEGEN--\":9:10   */\n      dup1\n        /* \"--CODEGEN--\":2:14   */\n      revert\n        /* \"BEP/Demo.sol\":285:400  function getData(uint addr, uint len) public view returns(bytes memory){\r... */\n    tag_3:\n      tag_4\n      0x04\n      dup1\n      calldatasize\n      sub\n        /* \"--CODEGEN--\":15:17   */\n      0x40\n        /* \"--CODEGEN--\":10:13   */\n      dup2\n        /* \"--CODEGEN--\":7:18   */\n      lt\n        /* \"--CODEGEN--\":4:6   */\n      iszero\n      tag_5\n      jumpi\n        /* \"--CODEGEN--\":31:32   */\n      0x00\n        /* \"--CODEGEN--\":28:29   */\n      dup1\n        /* \"--CODEGEN--\":21:33   */\n      revert\n        /* \"--CODEGEN--\":4:6   */\n    tag_5:\n        /* \"BEP/Demo.sol\":285:400  function getData(uint addr, uint len) public view returns(bytes memory){\r... */\n      dup2\n      add\n      swap1\n      dup1\n      dup1\n      calldataload\n      swap1\n      0x20\n      add\n      swap1\n      swap3\n      swap2\n      swap1\n      dup1\n      calldataload\n      swap1\n      0x20\n      add\n      swap1\n      swap3\n      swap2\n      swap1\n      pop\n      pop\n      pop\n      tag_6\n      jump\t// in\n    tag_4:\n      mload(0x40)\n      dup1\n      dup1\n      0x20\n      add\n      dup3\n      dup2\n      sub\n      dup3\n      mstore\n      dup4\n      dup2\n      dup2\n      mload\n      dup2\n      mstore\n      0x20\n      add\n      swap2\n      pop\n      dup1\n      mload\n      swap1\n      0x20\n      add\n      swap1\n      dup1\n      dup4\n      dup4\n        /* \"--CODEGEN--\":23:24   */\n      0x00\n        /* \"--CODEGEN--\":8:108   */\n    tag_7:\n        /* \"--CODEGEN--\":33:36   */\n      dup4\n        /* \"--CODEGEN--\":30:31   */\n      dup2\n        /* \"--CODEGEN--\":27:37   */\n      lt\n        /* \"--CODEGEN--\":8:108   */\n      iszero\n      tag_9\n      jumpi\n        /* \"--CODEGEN--\":99:100   */\n      dup1\n        /* \"--CODEGEN--\":94:97   */\n      dup3\n        /* \"--CODEGEN--\":90:101   */\n      add\n        /* \"--CODEGEN--\":84:102   */\n      mload\n        /* \"--CODEGEN--\":80:81   */\n      dup2\n        /* \"--CODEGEN--\":75:78   */\n      dup5\n        /* \"--CODEGEN--\":71:82   */\n      add\n        /* \"--CODEGEN--\":64:103   */\n      mstore\n        /* \"--CODEGEN--\":52:54   */\n      0x20\n        /* \"--CODEGEN--\":49:50   */\n      dup2\n        /* \"--CODEGEN--\":45:55   */\n      add\n        /* \"--CODEGEN--\":40:55   */\n      swap1\n      pop\n        /* \"--CODEGEN--\":8:108   */\n      jump(tag_7)\n    tag_9:\n        /* \"--CODEGEN--\":12:26   */\n      pop\n        /* \"BEP/Demo.sol\":285:400  function getData(uint addr, uint len) public view returns(bytes memory){\r... */\n      pop\n      pop\n      pop\n      swap1\n      pop\n      swap1\n      dup2\n      add\n      swap1\n      0x1f\n      and\n      dup1\n      iszero\n      tag_10\n      jumpi\n      dup1\n      dup3\n      sub\n      dup1\n      mload\n      0x01\n      dup4\n      0x20\n      sub\n      0x0100\n      exp\n      sub\n      not\n      and\n      dup2\n      mstore\n      0x20\n      add\n      swap2\n      pop\n    tag_10:\n      pop\n      swap3\n      pop\n      pop\n      pop\n      mload(0x40)\n      dup1\n      swap2\n      sub\n      swap1\n      return\n    tag_6:\n        /* \"BEP/Demo.sol\":343:355  bytes memory */\n      0x60\n        /* \"BEP/Demo.sol\":374:392  toBytes(addr, len) */\n      tag_12\n        /* \"BEP/Demo.sol\":382:386  addr */\n      dup4\n        /* \"BEP/Demo.sol\":388:391  len */\n      dup4\n        /* \"BEP/Demo.sol\":374:381  toBytes */\n      tag_13\n        /* \"BEP/Demo.sol\":374:392  toBytes(addr, len) */\n      jump\t// in\n    tag_12:\n        /* \"BEP/Demo.sol\":367:392  return toBytes(addr, len) */\n      swap1\n      pop\n        /* \"BEP/Demo.sol\":285:400  function getData(uint addr, uint len) public view returns(bytes memory){\r... */\n      swap3\n      swap2\n      pop\n      pop\n      jump\t// out\n        /* \"BEP/Demo.sol\":408:670  function toBytes(uint addr, uint len) internal pure returns (bytes memory bts) {\r... */\n    tag_13:\n        /* \"BEP/Demo.sol\":469:485  bytes memory bts */\n      0x60\n        /* \"BEP/Demo.sol\":514:517  len */\n      dup2\n        /* \"BEP/Demo.sol\":504:518  new bytes(len) */\n      mload(0x40)\n      swap1\n      dup1\n      dup3\n      mstore\n      dup1\n      0x1f\n      add\n      not(0x1f)\n      and\n      0x20\n      add\n      dup3\n      add\n      0x40\n      mstore\n      dup1\n      iszero\n      tag_15\n      jumpi\n      dup2\n      0x20\n      add\n        /* \"--CODEGEN--\":29:30   */\n      0x01\n        /* \"--CODEGEN--\":21:27   */\n      dup3\n        /* \"--CODEGEN--\":17:31   */\n      mul\n        /* \"--CODEGEN--\":124:128   */\n      dup1\n        /* \"--CODEGEN--\":108:122   */\n      calldatasize\n        /* \"--CODEGEN--\":100:106   */\n      dup4\n        /* \"--CODEGEN--\":87:129   */\n      calldatacopy\n        /* \"--CODEGEN--\":155:159   */\n      dup1\n        /* \"--CODEGEN--\":147:153   */\n      dup3\n        /* \"--CODEGEN--\":143:160   */\n      add\n        /* \"--CODEGEN--\":133:160   */\n      swap2\n      pop\n        /* \"--CODEGEN--\":0:164   */\n      pop\n        /* \"BEP/Demo.sol\":504:518  new bytes(len) */\n      swap1\n      pop\n    tag_15:\n      pop\n        /* \"BEP/Demo.sol\":498:518  bts = new bytes(len) */\n      swap1\n      pop\n        /* \"BEP/Demo.sol\":529:540  uint btsptr */\n      0x00\n        /* \"BEP/Demo.sol\":615:617  32 */\n      0x20\n        /* \"BEP/Demo.sol\":589:592  bts */\n      dup3\n        /* \"BEP/Demo.sol\":585:618  add(bts, /*BYTES_HEADER_SIZE*/32) */\n      add\n        /* \"BEP/Demo.sol\":575:618  btsptr := add(bts, /*BYTES_HEADER_SIZE*/32) */\n      swap1\n      pop\n        /* \"BEP/Demo.sol\":639:662  copy(addr, btsptr, len) */\n      tag_16\n        /* \"BEP/Demo.sol\":644:648  addr */\n      dup5\n        /* \"BEP/Demo.sol\":650:656  btsptr */\n      dup3\n        /* \"BEP/Demo.sol\":658:661  len */\n      dup6\n        /* \"BEP/Demo.sol\":639:643  copy */\n      tag_17\n        /* \"BEP/Demo.sol\":639:662  copy(addr, btsptr, len) */\n      jump\t// in\n    tag_16:\n        /* \"BEP/Demo.sol\":408:670  function toBytes(uint addr, uint len) internal pure returns (bytes memory bts) {\r... */\n      pop\n      swap3\n      swap2\n      pop\n      pop\n      jump\t// out\n        /* \"BEP/Demo.sol\":678:1278  function copy(uint src, uint dest, uint len) internal pure {\r... */\n    tag_17:\n        /* \"BEP/Demo.sol\":799:998  for (; len >= WORD_SIZE; len -= WORD_SIZE) {\r... */\n    tag_19:\n        /* \"BEP/Demo.sol\":82:84  32 */\n      0x20\n        /* \"BEP/Demo.sol\":806:809  len */\n      dup2\n        /* \"BEP/Demo.sol\":806:822  len >= WORD_SIZE */\n      lt\n        /* \"BEP/Demo.sol\":799:998  for (; len >= WORD_SIZE; len -= WORD_SIZE) {\r... */\n      tag_20\n      jumpi\n        /* \"BEP/Demo.sol\":904:907  src */\n      dup3\n        /* \"BEP/Demo.sol\":898:908  mload(src) */\n      mload\n        /* \"BEP/Demo.sol\":892:896  dest */\n      dup3\n        /* \"BEP/Demo.sol\":885:909  mstore(dest, mload(src)) */\n      mstore\n        /* \"BEP/Demo.sol\":82:84  32 */\n      0x20\n        /* \"BEP/Demo.sol\":938:955  dest += WORD_SIZE */\n      dup3\n      add\n      swap2\n      pop\n        /* \"BEP/Demo.sol\":82:84  32 */\n      0x20\n        /* \"BEP/Demo.sol\":970:986  src += WORD_SIZE */\n      dup4\n      add\n      swap3\n      pop\n        /* \"BEP/Demo.sol\":82:84  32 */\n      0x20\n        /* \"BEP/Demo.sol\":824:840  len -= WORD_SIZE */\n      dup2\n      sub\n      swap1\n      pop\n        /* \"BEP/Demo.sol\":799:998  for (; len >= WORD_SIZE; len -= WORD_SIZE) {\r... */\n      jump(tag_19)\n    tag_20:\n        /* \"BEP/Demo.sol\":1043:1052  uint mask */\n      0x00\n        /* \"BEP/Demo.sol\":1082:1083  1 */\n      0x01\n        /* \"BEP/Demo.sol\":1075:1078  len */\n      dup3\n        /* \"BEP/Demo.sol\":82:84  32 */\n      0x20\n        /* \"BEP/Demo.sol\":1063:1078  WORD_SIZE - len */\n      sub\n        /* \"BEP/Demo.sol\":1055:1058  256 */\n      0x0100\n        /* \"BEP/Demo.sol\":1055:1079  256 ** (WORD_SIZE - len) */\n      exp\n        /* \"BEP/Demo.sol\":1055:1083  256 ** (WORD_SIZE - len) - 1 */\n      sub\n        /* \"BEP/Demo.sol\":1043:1083  uint mask = 256 ** (WORD_SIZE - len) - 1 */\n      swap1\n      pop\n        /* \"BEP/Demo.sol\":1153:1157  mask */\n      dup1\n        /* \"BEP/Demo.sol\":1149:1158  not(mask) */\n      not\n        /* \"BEP/Demo.sol\":1143:1146  src */\n      dup5\n        /* \"BEP/Demo.sol\":1137:1147  mload(src) */\n      mload\n        /* \"BEP/Demo.sol\":1133:1159  and(mload(src), not(mask)) */\n      and\n        /* \"BEP/Demo.sol\":1206:1210  mask */\n      dup2\n        /* \"BEP/Demo.sol\":1199:1203  dest */\n      dup5\n        /* \"BEP/Demo.sol\":1193:1204  mload(dest) */\n      mload\n        /* \"BEP/Demo.sol\":1189:1211  and(mload(dest), mask) */\n      and\n        /* \"BEP/Demo.sol\":1251:1258  srcpart */\n      dup2\n        /* \"BEP/Demo.sol\":1241:1249  destpart */\n      dup2\n        /* \"BEP/Demo.sol\":1238:1259  or(destpart, srcpart) */\n      or\n        /* \"BEP/Demo.sol\":1232:1236  dest */\n      dup6\n        /* \"BEP/Demo.sol\":1225:1260  mstore(dest, or(destpart, srcpart)) */\n      mstore\n        /* \"BEP/Demo.sol\":1103:1271  {\r... */\n      pop\n      pop\n      pop\n      pop\n      pop\n      pop\n      jump\t// out\n\n    auxdata: 0xa2646970667358221220bb9c73ac26b614a093aa61d9719216c4f98906ce36a5fdcd9c949d24cbb8584b64736f6c63430006040033\n}\n",
				"bytecode": {
					"linkReferences": {},
					"object": "608060405234801561001057600080fd5b506101c6806100206000396000f3fe608060405234801561001057600080fd5b506004361061002b5760003560e01c80634e4fe30614610030575b600080fd5b6100666004803603604081101561004657600080fd5b8101908080359060200190929190803590602001909291905050506100e1565b6040518080602001828103825283818151815260200191508051906020019080838360005b838110156100a657808201518184015260208101905061008b565b50505050905090810190601f1680156100d35780820380516001836020036101000a031916815260200191505b509250505060405180910390f35b60606100ed83836100f5565b905092915050565b6060816040519080825280601f01601f19166020018201604052801561012a5781602001600182028036833780820191505090505b5090506000602082019050610140848285610147565b5092915050565b5b6020811061016b5782518252602082019150602083019250602081039050610148565b60006001826020036101000a039050801984511681845116818117855250505050505056fea2646970667358221220bb9c73ac26b614a093aa61d9719216c4f98906ce36a5fdcd9c949d24cbb8584b64736f6c63430006040033",
					"opcodes": "PUSH1 0x80 PUSH1 0x40 MSTORE CALLVALUE DUP1 ISZERO PUSH2 0x10 JUMPI PUSH1 0x0 DUP1 REVERT JUMPDEST POP PUSH2 0x1C6 DUP1 PUSH2 0x20 PUSH1 0x0 CODECOPY PUSH1 0x0 RETURN INVALID PUSH1 0x80 PUSH1 0x40 MSTORE CALLVALUE DUP1 ISZERO PUSH2 0x10 JUMPI PUSH1 0x0 DUP1 REVERT JUMPDEST POP PUSH1 0x4 CALLDATASIZE LT PUSH2 0x2B JUMPI PUSH1 0x0 CALLDATALOAD PUSH1 0xE0 SHR DUP1 PUSH4 0x4E4FE306 EQ PUSH2 0x30 JUMPI JUMPDEST PUSH1 0x0 DUP1 REVERT JUMPDEST PUSH2 0x66 PUSH1 0x4 DUP1 CALLDATASIZE SUB PUSH1 0x40 DUP2 LT ISZERO PUSH2 0x46 JUMPI PUSH1 0x0 DUP1 REVERT JUMPDEST DUP2 ADD SWAP1 DUP1 DUP1 CALLDATALOAD SWAP1 PUSH1 0x20 ADD SWAP1 SWAP3 SWAP2 SWAP1 DUP1 CALLDATALOAD SWAP1 PUSH1 0x20 ADD SWAP1 SWAP3 SWAP2 SWAP1 POP POP POP PUSH2 0xE1 JUMP JUMPDEST PUSH1 0x40 MLOAD DUP1 DUP1 PUSH1 0x20 ADD DUP3 DUP2 SUB DUP3 MSTORE DUP4 DUP2 DUP2 MLOAD DUP2 MSTORE PUSH1 0x20 ADD SWAP2 POP DUP1 MLOAD SWAP1 PUSH1 0x20 ADD SWAP1 DUP1 DUP4 DUP4 PUSH1 0x0 JUMPDEST DUP4 DUP2 LT ISZERO PUSH2 0xA6 JUMPI DUP1 DUP3 ADD MLOAD DUP2 DUP5 ADD MSTORE PUSH1 0x20 DUP2 ADD SWAP1 POP PUSH2 0x8B JUMP JUMPDEST POP POP POP POP SWAP1 POP SWAP1 DUP2 ADD SWAP1 PUSH1 0x1F AND DUP1 ISZERO PUSH2 0xD3 JUMPI DUP1 DUP3 SUB DUP1 MLOAD PUSH1 0x1 DUP4 PUSH1 0x20 SUB PUSH2 0x100 EXP SUB NOT AND DUP2 MSTORE PUSH1 0x20 ADD SWAP2 POP JUMPDEST POP SWAP3 POP POP POP PUSH1 0x40 MLOAD DUP1 SWAP2 SUB SWAP1 RETURN JUMPDEST PUSH1 0x60 PUSH2 0xED DUP4 DUP4 PUSH2 0xF5 JUMP JUMPDEST SWAP1 POP SWAP3 SWAP2 POP POP JUMP JUMPDEST PUSH1 0x60 DUP2 PUSH1 0x40 MLOAD SWAP1 DUP1 DUP3 MSTORE DUP1 PUSH1 0x1F ADD PUSH1 0x1F NOT AND PUSH1 0x20 ADD DUP3 ADD PUSH1 0x40 MSTORE DUP1 ISZERO PUSH2 0x12A JUMPI DUP2 PUSH1 0x20 ADD PUSH1 0x1 DUP3 MUL DUP1 CALLDATASIZE DUP4 CALLDATACOPY DUP1 DUP3 ADD SWAP2 POP POP SWAP1 POP JUMPDEST POP SWAP1 POP PUSH1 0x0 PUSH1 0x20 DUP3 ADD SWAP1 POP PUSH2 0x140 DUP5 DUP3 DUP6 PUSH2 0x147 JUMP JUMPDEST POP SWAP3 SWAP2 POP POP JUMP JUMPDEST JUMPDEST PUSH1 0x20 DUP2 LT PUSH2 0x16B JUMPI DUP3 MLOAD DUP3 MSTORE PUSH1 0x20 DUP3 ADD SWAP2 POP PUSH1 0x20 DUP4 ADD SWAP3 POP PUSH1 0x20 DUP2 SUB SWAP1 POP PUSH2 0x148 JUMP JUMPDEST PUSH1 0x0 PUSH1 0x1 DUP3 PUSH1 0x20 SUB PUSH2 0x100 EXP SUB SWAP1 POP DUP1 NOT DUP5 MLOAD AND DUP2 DUP5 MLOAD AND DUP2 DUP2 OR DUP6 MSTORE POP POP POP POP POP POP JUMP INVALID LOG2 PUSH5 0x6970667358 0x22 SLT KECCAK256 0xBB SWAP13 PUSH20 0xAC26B614A093AA61D9719216C4F98906CE36A5FD 0xCD SWAP13 SWAP5 SWAP14 0x24 0xCB 0xB8 PC 0x4B PUSH5 0x736F6C6343 STOP MOD DIV STOP CALLER "
				},
				"gasEstimates": {
					"creation": {
						"codeDepositCost": "90800",
						"executionCost": "141",
						"totalCost": "90941"
					},
					"external": {
						"getData(uint256,uint256)": "infinite"
					},
					"internal": {
						"copy(uint256,uint256,uint256)": "infinite",
						"toBytes(uint256,uint256)": "infinite"
					}
				},
				"methodIdentifiers": {
					"getData(uint256,uint256)": "4e4fe306"
				}
			},
			"userdoc": {
				"methods": {}
			}
		}
	}
}