{
	"BEP/Demo.sol": {
		"Demo1": {
			"abi": [
				{
					"inputs": [
						{
							"internalType": "uint256",
							"name": "addr",
							"type": "uint256"
						},
						{
							"internalType": "uint256",
							"name": "addr2",
							"type": "uint256"
						},
						{
							"internalType": "uint256",
							"name": "len",
							"type": "uint256"
						}
					],
					"name": "getData",
					"outputs": [
						{
							"internalType": "bool",
							"name": "",
							"type": "bool"
						}
					],
					"stateMutability": "view",
					"type": "function"
				}
			],
			"devdoc": {
				"methods": {}
			},
			"evm": {
				"assembly": "    /* \"BEP/Demo.sol\":26:616  contract Demo1{\r... */\n  mstore(0x40, 0x80)\n  callvalue\n    /* \"--CODEGEN--\":5:14   */\n  dup1\n    /* \"--CODEGEN--\":2:4   */\n  iszero\n  tag_1\n  jumpi\n    /* \"--CODEGEN--\":27:28   */\n  0x00\n    /* \"--CODEGEN--\":24:25   */\n  dup1\n    /* \"--CODEGEN--\":17:29   */\n  revert\n    /* \"--CODEGEN--\":2:4   */\ntag_1:\n    /* \"BEP/Demo.sol\":26:616  contract Demo1{\r... */\n  pop\n  dataSize(sub_0)\n  dup1\n  dataOffset(sub_0)\n  0x00\n  codecopy\n  0x00\n  return\nstop\n\nsub_0: assembly {\n        /* \"BEP/Demo.sol\":26:616  contract Demo1{\r... */\n      mstore(0x40, 0x80)\n      callvalue\n        /* \"--CODEGEN--\":5:14   */\n      dup1\n        /* \"--CODEGEN--\":2:4   */\n      iszero\n      tag_1\n      jumpi\n        /* \"--CODEGEN--\":27:28   */\n      0x00\n        /* \"--CODEGEN--\":24:25   */\n      dup1\n        /* \"--CODEGEN--\":17:29   */\n      revert\n        /* \"--CODEGEN--\":2:4   */\n    tag_1:\n        /* \"BEP/Demo.sol\":26:616  contract Demo1{\r... */\n      pop\n      jumpi(tag_2, lt(calldatasize, 0x04))\n      shr(0xe0, calldataload(0x00))\n      dup1\n      0x496148b6\n      eq\n      tag_3\n      jumpi\n    tag_2:\n        /* \"--CODEGEN--\":12:13   */\n      0x00\n        /* \"--CODEGEN--\":9:10   */\n      dup1\n        /* \"--CODEGEN--\":2:14   */\n      revert\n        /* \"BEP/Demo.sol\":285:410  function getData(uint addr, uint addr2, uint len) public view returns(bool){\r... */\n    tag_3:\n      tag_4\n      0x04\n      dup1\n      calldatasize\n      sub\n        /* \"--CODEGEN--\":15:17   */\n      0x60\n        /* \"--CODEGEN--\":10:13   */\n      dup2\n        /* \"--CODEGEN--\":7:18   */\n      lt\n        /* \"--CODEGEN--\":4:6   */\n      iszero\n      tag_5\n      jumpi\n        /* \"--CODEGEN--\":31:32   */\n      0x00\n        /* \"--CODEGEN--\":28:29   */\n      dup1\n        /* \"--CODEGEN--\":21:33   */\n      revert\n        /* \"--CODEGEN--\":4:6   */\n    tag_5:\n        /* \"BEP/Demo.sol\":285:410  function getData(uint addr, uint addr2, uint len) public view returns(bool){\r... */\n      dup2\n      add\n      swap1\n      dup1\n      dup1\n      calldataload\n      swap1\n      0x20\n      add\n      swap1\n      swap3\n      swap2\n      swap1\n      dup1\n      calldataload\n      swap1\n      0x20\n      add\n      swap1\n      swap3\n      swap2\n      swap1\n      dup1\n      calldataload\n      swap1\n      0x20\n      add\n      swap1\n      swap3\n      swap2\n      swap1\n      pop\n      pop\n      pop\n      tag_6\n      jump\t// in\n    tag_4:\n      mload(0x40)\n      dup1\n      dup3\n      iszero\n      iszero\n      iszero\n      iszero\n      dup2\n      mstore\n      0x20\n      add\n      swap2\n      pop\n      pop\n      mload(0x40)\n      dup1\n      swap2\n      sub\n      swap1\n      return\n    tag_6:\n        /* \"BEP/Demo.sol\":355:359  bool */\n      0x00\n        /* \"BEP/Demo.sol\":378:402  equals(addr, addr2, len) */\n      tag_8\n        /* \"BEP/Demo.sol\":385:389  addr */\n      dup5\n        /* \"BEP/Demo.sol\":391:396  addr2 */\n      dup5\n        /* \"BEP/Demo.sol\":398:401  len */\n      dup5\n        /* \"BEP/Demo.sol\":378:384  equals */\n      tag_9\n        /* \"BEP/Demo.sol\":378:402  equals(addr, addr2, len) */\n      jump\t// in\n    tag_8:\n        /* \"BEP/Demo.sol\":371:402  return equals(addr, addr2, len) */\n      swap1\n      pop\n        /* \"BEP/Demo.sol\":285:410  function getData(uint addr, uint addr2, uint len) public view returns(bool){\r... */\n      swap4\n      swap3\n      pop\n      pop\n      pop\n      jump\t// out\n        /* \"BEP/Demo.sol\":418:611  function equals(uint addr, uint addr2, uint len) internal pure returns (bool equal) {\r... */\n    tag_9:\n        /* \"BEP/Demo.sol\":490:500  bool equal */\n      0x00\n        /* \"BEP/Demo.sol\":588:591  len */\n      dup2\n        /* \"BEP/Demo.sol\":581:586  addr2 */\n      dup4\n        /* \"BEP/Demo.sol\":571:592  keccak256(addr2, len) */\n      keccak256\n        /* \"BEP/Demo.sol\":565:568  len */\n      dup3\n        /* \"BEP/Demo.sol\":559:563  addr */\n      dup6\n        /* \"BEP/Demo.sol\":549:569  keccak256(addr, len) */\n      keccak256\n        /* \"BEP/Demo.sol\":546:593  eq(keccak256(addr, len), keccak256(addr2, len)) */\n      eq\n        /* \"BEP/Demo.sol\":537:593  equal := eq(keccak256(addr, len), keccak256(addr2, len)) */\n      swap1\n      pop\n        /* \"BEP/Demo.sol\":522:604  {\r... */\n      swap4\n      swap3\n      pop\n      pop\n      pop\n      jump\t// out\n\n    auxdata: 0xa264697066735822122063a3e5d5bd06938a5f5474978c6d1c91119142c2785de111bcca29d39cfe795964736f6c63430006040033\n}\n",
				"bytecode": {
					"linkReferences": {},
					"object": "608060405234801561001057600080fd5b5060e08061001f6000396000f3fe6080604052348015600f57600080fd5b506004361060285760003560e01c8063496148b614602d575b600080fd5b606a60048036036060811015604157600080fd5b810190808035906020019092919080359060200190929190803590602001909291905050506084565b604051808215151515815260200191505060405180910390f35b6000608f8484846098565b90509392505050565b6000818320828520149050939250505056fea264697066735822122063a3e5d5bd06938a5f5474978c6d1c91119142c2785de111bcca29d39cfe795964736f6c63430006040033",
					"opcodes": "PUSH1 0x80 PUSH1 0x40 MSTORE CALLVALUE DUP1 ISZERO PUSH2 0x10 JUMPI PUSH1 0x0 DUP1 REVERT JUMPDEST POP PUSH1 0xE0 DUP1 PUSH2 0x1F PUSH1 0x0 CODECOPY PUSH1 0x0 RETURN INVALID PUSH1 0x80 PUSH1 0x40 MSTORE CALLVALUE DUP1 ISZERO PUSH1 0xF JUMPI PUSH1 0x0 DUP1 REVERT JUMPDEST POP PUSH1 0x4 CALLDATASIZE LT PUSH1 0x28 JUMPI PUSH1 0x0 CALLDATALOAD PUSH1 0xE0 SHR DUP1 PUSH4 0x496148B6 EQ PUSH1 0x2D JUMPI JUMPDEST PUSH1 0x0 DUP1 REVERT JUMPDEST PUSH1 0x6A PUSH1 0x4 DUP1 CALLDATASIZE SUB PUSH1 0x60 DUP2 LT ISZERO PUSH1 0x41 JUMPI PUSH1 0x0 DUP1 REVERT JUMPDEST DUP2 ADD SWAP1 DUP1 DUP1 CALLDATALOAD SWAP1 PUSH1 0x20 ADD SWAP1 SWAP3 SWAP2 SWAP1 DUP1 CALLDATALOAD SWAP1 PUSH1 0x20 ADD SWAP1 SWAP3 SWAP2 SWAP1 DUP1 CALLDATALOAD SWAP1 PUSH1 0x20 ADD SWAP1 SWAP3 SWAP2 SWAP1 POP POP POP PUSH1 0x84 JUMP JUMPDEST PUSH1 0x40 MLOAD DUP1 DUP3 ISZERO ISZERO ISZERO ISZERO DUP2 MSTORE PUSH1 0x20 ADD SWAP2 POP POP PUSH1 0x40 MLOAD DUP1 SWAP2 SUB SWAP1 RETURN JUMPDEST PUSH1 0x0 PUSH1 0x8F DUP5 DUP5 DUP5 PUSH1 0x98 JUMP JUMPDEST SWAP1 POP SWAP4 SWAP3 POP POP POP JUMP JUMPDEST PUSH1 0x0 DUP2 DUP4 KECCAK256 DUP3 DUP6 KECCAK256 EQ SWAP1 POP SWAP4 SWAP3 POP POP POP JUMP INVALID LOG2 PUSH5 0x6970667358 0x22 SLT KECCAK256 PUSH4 0xA3E5D5BD MOD SWAP4 DUP11 0x5F SLOAD PUSH21 0x978C6D1C91119142C2785DE111BCCA29D39CFE7959 PUSH5 0x736F6C6343 STOP MOD DIV STOP CALLER "
				},
				"gasEstimates": {
					"creation": {
						"codeDepositCost": "44800",
						"executionCost": "93",
						"totalCost": "44893"
					},
					"external": {
						"getData(uint256,uint256,uint256)": "infinite"
					},
					"internal": {
						"equals(uint256,uint256,uint256)": "infinite"
					}
				},
				"methodIdentifiers": {
					"getData(uint256,uint256,uint256)": "496148b6"
				}
			},
			"userdoc": {
				"methods": {}
			}
		}
	}
}