{
	"BEP/Demo.sol": {
		"Demo1": {
			"abi": [
				{
					"inputs": [],
					"name": "CROSS_CHAIN_KEY_PREFIX",
					"outputs": [
						{
							"internalType": "uint256",
							"name": "",
							"type": "uint256"
						}
					],
					"stateMutability": "view",
					"type": "function"
				}
			],
			"devdoc": {
				"methods": {}
			},
			"evm": {
				"assembly": "    /* \"BEP/Demo.sol\":26:706  contract Demo1{\r... */\n  mstore(0x40, 0x80)\n  callvalue\n    /* \"--CODEGEN--\":5:14   */\n  dup1\n    /* \"--CODEGEN--\":2:4   */\n  iszero\n  tag_1\n  jumpi\n    /* \"--CODEGEN--\":27:28   */\n  0x00\n    /* \"--CODEGEN--\":24:25   */\n  dup1\n    /* \"--CODEGEN--\":17:29   */\n  revert\n    /* \"--CODEGEN--\":2:4   */\ntag_1:\n    /* \"BEP/Demo.sol\":26:706  contract Demo1{\r... */\n  pop\n  dataSize(sub_0)\n  dup1\n  dataOffset(sub_0)\n  0x00\n  codecopy\n  0x00\n  return\nstop\n\nsub_0: assembly {\n        /* \"BEP/Demo.sol\":26:706  contract Demo1{\r... */\n      mstore(0x40, 0x80)\n      callvalue\n        /* \"--CODEGEN--\":5:14   */\n      dup1\n        /* \"--CODEGEN--\":2:4   */\n      iszero\n      tag_1\n      jumpi\n        /* \"--CODEGEN--\":27:28   */\n      0x00\n        /* \"--CODEGEN--\":24:25   */\n      dup1\n        /* \"--CODEGEN--\":17:29   */\n      revert\n        /* \"--CODEGEN--\":2:4   */\n    tag_1:\n        /* \"BEP/Demo.sol\":26:706  contract Demo1{\r... */\n      pop\n      jumpi(tag_2, lt(calldatasize, 0x04))\n      shr(0xe0, calldataload(0x00))\n      dup1\n      0x863fe4ab\n      eq\n      tag_3\n      jumpi\n    tag_2:\n        /* \"--CODEGEN--\":12:13   */\n      0x00\n        /* \"--CODEGEN--\":9:10   */\n      dup1\n        /* \"--CODEGEN--\":2:14   */\n      revert\n        /* \"BEP/Demo.sol\":49:108  uint256 constant public CROSS_CHAIN_KEY_PREFIX = 0x01006000 */\n    tag_3:\n      tag_4\n      tag_5\n      jump\t// in\n    tag_4:\n      mload(0x40)\n      dup1\n      dup3\n      dup2\n      mstore\n      0x20\n      add\n      swap2\n      pop\n      pop\n      mload(0x40)\n      dup1\n      swap2\n      sub\n      swap1\n      return\n    tag_5:\n        /* \"BEP/Demo.sol\":98:108  0x01006000 */\n      0x01006000\n        /* \"BEP/Demo.sol\":49:108  uint256 constant public CROSS_CHAIN_KEY_PREFIX = 0x01006000 */\n      dup2\n      jump\t// out\n\n    auxdata: 0xa2646970667358221220e56fd7a1de5105513a5b97dfa67a45b338773c88546dc7e7582edf16eff710a364736f6c63430006040033\n}\n",
				"bytecode": {
					"linkReferences": {},
					"object": "6080604052348015600f57600080fd5b5060878061001e6000396000f3fe6080604052348015600f57600080fd5b506004361060285760003560e01c8063863fe4ab14602d575b600080fd5b60336049565b6040518082815260200191505060405180910390f35b63010060008156fea2646970667358221220e56fd7a1de5105513a5b97dfa67a45b338773c88546dc7e7582edf16eff710a364736f6c63430006040033",
					"opcodes": "PUSH1 0x80 PUSH1 0x40 MSTORE CALLVALUE DUP1 ISZERO PUSH1 0xF JUMPI PUSH1 0x0 DUP1 REVERT JUMPDEST POP PUSH1 0x87 DUP1 PUSH2 0x1E PUSH1 0x0 CODECOPY PUSH1 0x0 RETURN INVALID PUSH1 0x80 PUSH1 0x40 MSTORE CALLVALUE DUP1 ISZERO PUSH1 0xF JUMPI PUSH1 0x0 DUP1 REVERT JUMPDEST POP PUSH1 0x4 CALLDATASIZE LT PUSH1 0x28 JUMPI PUSH1 0x0 CALLDATALOAD PUSH1 0xE0 SHR DUP1 PUSH4 0x863FE4AB EQ PUSH1 0x2D JUMPI JUMPDEST PUSH1 0x0 DUP1 REVERT JUMPDEST PUSH1 0x33 PUSH1 0x49 JUMP JUMPDEST PUSH1 0x40 MLOAD DUP1 DUP3 DUP2 MSTORE PUSH1 0x20 ADD SWAP2 POP POP PUSH1 0x40 MLOAD DUP1 SWAP2 SUB SWAP1 RETURN JUMPDEST PUSH4 0x1006000 DUP2 JUMP INVALID LOG2 PUSH5 0x6970667358 0x22 SLT KECCAK256 0xE5 PUSH16 0xD7A1DE5105513A5B97DFA67A45B33877 EXTCODECOPY DUP9 SLOAD PUSH14 0xC7E7582EDF16EFF710A364736F6C PUSH4 0x43000604 STOP CALLER "
				},
				"gasEstimates": {
					"creation": {
						"codeDepositCost": "27000",
						"executionCost": "81",
						"totalCost": "27081"
					},
					"external": {
						"CROSS_CHAIN_KEY_PREFIX()": "183"
					},
					"internal": {
						"generateKey(uint64,uint8)": "infinite"
					}
				},
				"methodIdentifiers": {
					"CROSS_CHAIN_KEY_PREFIX()": "863fe4ab"
				}
			},
			"userdoc": {
				"methods": {}
			}
		}
	}
}