{
	"contracts/ERC721.sol": {
		"ERC721": {
			"abi": [
				{
					"inputs": [
						{
							"internalType": "string",
							"name": "name_",
							"type": "string"
						},
						{
							"internalType": "string",
							"name": "symbol_",
							"type": "string"
						}
					],
					"stateMutability": "nonpayable",
					"type": "constructor"
				},
				{
					"anonymous": false,
					"inputs": [
						{
							"indexed": true,
							"internalType": "address",
							"name": "owner",
							"type": "address"
						},
						{
							"indexed": true,
							"internalType": "address",
							"name": "approved",
							"type": "address"
						},
						{
							"indexed": true,
							"internalType": "uint256",
							"name": "tokenId",
							"type": "uint256"
						}
					],
					"name": "Approval",
					"type": "event"
				},
				{
					"anonymous": false,
					"inputs": [
						{
							"indexed": true,
							"internalType": "address",
							"name": "owner",
							"type": "address"
						},
						{
							"indexed": true,
							"internalType": "address",
							"name": "operator",
							"type": "address"
						},
						{
							"indexed": false,
							"internalType": "bool",
							"name": "approved",
							"type": "bool"
						}
					],
					"name": "ApprovalForAll",
					"type": "event"
				},
				{
					"anonymous": false,
					"inputs": [
						{
							"indexed": true,
							"internalType": "address",
							"name": "from",
							"type": "address"
						},
						{
							"indexed": true,
							"internalType": "address",
							"name": "to",
							"type": "address"
						},
						{
							"indexed": true,
							"internalType": "uint256",
							"name": "tokenId",
							"type": "uint256"
						}
					],
					"name": "Transfer",
					"type": "event"
				},
				{
					"inputs": [
						{
							"internalType": "address",
							"name": "to",
							"type": "address"
						},
						{
							"internalType": "uint256",
							"name": "tokenId",
							"type": "uint256"
						},
						{
							"internalType": "bytes",
							"name": "_data",
							"type": "bytes"
						}
					],
					"name": "_safeMint",
					"outputs": [],
					"stateMutability": "nonpayable",
					"type": "function"
				},
				{
					"inputs": [
						{
							"internalType": "address",
							"name": "to",
							"type": "address"
						},
						{
							"internalType": "uint256",
							"name": "tokenId",
							"type": "uint256"
						}
					],
					"name": "approve",
					"outputs": [],
					"stateMutability": "nonpayable",
					"type": "function"
				},
				{
					"inputs": [
						{
							"internalType": "address",
							"name": "owner",
							"type": "address"
						}
					],
					"name": "balanceOf",
					"outputs": [
						{
							"internalType": "uint256",
							"name": "",
							"type": "uint256"
						}
					],
					"stateMutability": "view",
					"type": "function"
				},
				{
					"inputs": [
						{
							"internalType": "uint256",
							"name": "tokenId",
							"type": "uint256"
						}
					],
					"name": "getApproved",
					"outputs": [
						{
							"internalType": "address",
							"name": "",
							"type": "address"
						}
					],
					"stateMutability": "view",
					"type": "function"
				},
				{
					"inputs": [
						{
							"internalType": "address",
							"name": "owner",
							"type": "address"
						},
						{
							"internalType": "address",
							"name": "operator",
							"type": "address"
						}
					],
					"name": "isApprovedForAll",
					"outputs": [
						{
							"internalType": "bool",
							"name": "",
							"type": "bool"
						}
					],
					"stateMutability": "view",
					"type": "function"
				},
				{
					"inputs": [],
					"name": "name",
					"outputs": [
						{
							"internalType": "string",
							"name": "",
							"type": "string"
						}
					],
					"stateMutability": "view",
					"type": "function"
				},
				{
					"inputs": [
						{
							"internalType": "uint256",
							"name": "tokenId",
							"type": "uint256"
						}
					],
					"name": "ownerOf",
					"outputs": [
						{
							"internalType": "address",
							"name": "",
							"type": "address"
						}
					],
					"stateMutability": "view",
					"type": "function"
				},
				{
					"inputs": [
						{
							"internalType": "address",
							"name": "from",
							"type": "address"
						},
						{
							"internalType": "address",
							"name": "to",
							"type": "address"
						},
						{
							"internalType": "uint256",
							"name": "tokenId",
							"type": "uint256"
						}
					],
					"name": "safeTransferFrom",
					"outputs": [],
					"stateMutability": "nonpayable",
					"type": "function"
				},
				{
					"inputs": [
						{
							"internalType": "address",
							"name": "from",
							"type": "address"
						},
						{
							"internalType": "address",
							"name": "to",
							"type": "address"
						},
						{
							"internalType": "uint256",
							"name": "tokenId",
							"type": "uint256"
						},
						{
							"internalType": "bytes",
							"name": "_data",
							"type": "bytes"
						}
					],
					"name": "safeTransferFrom",
					"outputs": [],
					"stateMutability": "nonpayable",
					"type": "function"
				},
				{
					"inputs": [
						{
							"internalType": "address",
							"name": "operator",
							"type": "address"
						},
						{
							"internalType": "bool",
							"name": "approved",
							"type": "bool"
						}
					],
					"name": "setApprovalForAll",
					"outputs": [],
					"stateMutability": "nonpayable",
					"type": "function"
				},
				{
					"inputs": [
						{
							"internalType": "bytes4",
							"name": "interfaceId",
							"type": "bytes4"
						}
					],
					"name": "supportsInterface",
					"outputs": [
						{
							"internalType": "bool",
							"name": "",
							"type": "bool"
						}
					],
					"stateMutability": "view",
					"type": "function"
				},
				{
					"inputs": [],
					"name": "symbol",
					"outputs": [
						{
							"internalType": "string",
							"name": "",
							"type": "string"
						}
					],
					"stateMutability": "view",
					"type": "function"
				},
				{
					"inputs": [
						{
							"internalType": "uint256",
							"name": "tokenId",
							"type": "uint256"
						}
					],
					"name": "tokenURI",
					"outputs": [
						{
							"internalType": "string",
							"name": "",
							"type": "string"
						}
					],
					"stateMutability": "view",
					"type": "function"
				},
				{
					"inputs": [
						{
							"internalType": "address",
							"name": "from",
							"type": "address"
						},
						{
							"internalType": "address",
							"name": "to",
							"type": "address"
						},
						{
							"internalType": "uint256",
							"name": "tokenId",
							"type": "uint256"
						}
					],
					"name": "transferFrom",
					"outputs": [],
					"stateMutability": "nonpayable",
					"type": "function"
				}
			],
			"devdoc": {
				"details": "Implementation of https://eips.ethereum.org/EIPS/eip-721[ERC721] Non-Fungible Token Standard, including the Metadata extension, but not including the Enumerable extension, which is available separately as {ERC721Enumerable}.",
				"kind": "dev",
				"methods": {
					"_safeMint(address,uint256,bytes)": {
						"details": "Same as {xref-ERC721-_safeMint-address-uint256-}[`_safeMint`], with an additional `data` parameter which is forwarded in {IERC721Receiver-onERC721Received} to contract recipients."
					},
					"approve(address,uint256)": {
						"details": "See {IERC721-approve}."
					},
					"balanceOf(address)": {
						"details": "See {IERC721-balanceOf}."
					},
					"constructor": {
						"details": "Initializes the contract by setting a `name` and a `symbol` to the token collection."
					},
					"getApproved(uint256)": {
						"details": "See {IERC721-getApproved}."
					},
					"isApprovedForAll(address,address)": {
						"details": "See {IERC721-isApprovedForAll}."
					},
					"name()": {
						"details": "See {IERC721Metadata-name}."
					},
					"ownerOf(uint256)": {
						"details": "See {IERC721-ownerOf}."
					},
					"safeTransferFrom(address,address,uint256)": {
						"details": "See {IERC721-safeTransferFrom}."
					},
					"safeTransferFrom(address,address,uint256,bytes)": {
						"details": "See {IERC721-safeTransferFrom}."
					},
					"setApprovalForAll(address,bool)": {
						"details": "See {IERC721-setApprovalForAll}."
					},
					"supportsInterface(bytes4)": {
						"details": "See {IERC165-supportsInterface}."
					},
					"symbol()": {
						"details": "See {IERC721Metadata-symbol}."
					},
					"tokenURI(uint256)": {
						"details": "See {IERC721Metadata-tokenURI}."
					},
					"transferFrom(address,address,uint256)": {
						"details": "See {IERC721-transferFrom}."
					}
				},
				"version": 1
			},
			"evm": {
				"assembly": "    /* \"contracts/ERC721.sol\":581:14683  contract ERC721 is Context, ERC165, IERC721, IERC721Metadata {\r... */\n  mstore(0x40, 0x80)\n    /* \"contracts/ERC721.sol\":1368:1484  constructor(string memory name_, string memory symbol_) {\r... */\n  callvalue\n  dup1\n  iszero\n  tag_1\n  jumpi\n  0x00\n  dup1\n  revert\ntag_1:\n  pop\n  mload(0x40)\n  sub(codesize, bytecodeSize)\n  dup1\n  bytecodeSize\n  dup4\n  codecopy\n  dup2\n  dup2\n  add\n  0x40\n  mstore\n  dup2\n  add\n  swap1\n  tag_2\n  swap2\n  swap1\n  tag_3\n  jump\t// in\ntag_2:\n    /* \"contracts/ERC165.sol\":625:670  _registerInterface(type(IERC165).interfaceId) */\n  tag_7\n    /* \"contracts/ERC165.sol\":644:669  type(IERC165).interfaceId */\n  0x01ffc9a700000000000000000000000000000000000000000000000000000000\n    /* \"contracts/ERC165.sol\":625:643  _registerInterface */\n  shl(0x20, tag_8)\n    /* \"contracts/ERC165.sol\":625:670  _registerInterface(type(IERC165).interfaceId) */\n  0x20\n  shr\n  jump\t// in\ntag_7:\n    /* \"contracts/ERC721.sol\":1443:1448  name_ */\n  dup2\n    /* \"contracts/ERC721.sol\":1435:1440  _name */\n  0x01\n    /* \"contracts/ERC721.sol\":1435:1448  _name = name_ */\n  swap1\n  dup1\n  mload\n  swap1\n  0x20\n  add\n  swap1\n  tag_10\n  swap3\n  swap2\n  swap1\n  tag_11\n  jump\t// in\ntag_10:\n  pop\n    /* \"contracts/ERC721.sol\":1469:1476  symbol_ */\n  dup1\n    /* \"contracts/ERC721.sol\":1459:1466  _symbol */\n  0x02\n    /* \"contracts/ERC721.sol\":1459:1476  _symbol = symbol_ */\n  swap1\n  dup1\n  mload\n  swap1\n  0x20\n  add\n  swap1\n  tag_12\n  swap3\n  swap2\n  swap1\n  tag_11\n  jump\t// in\ntag_12:\n  pop\n    /* \"contracts/ERC721.sol\":1368:1484  constructor(string memory name_, string memory symbol_) {\r... */\n  pop\n  pop\n    /* \"contracts/ERC721.sol\":581:14683  contract ERC721 is Context, ERC165, IERC721, IERC721Metadata {\r... */\n  jump(tag_13)\n    /* \"contracts/ERC165.sol\":1392:1593  function _registerInterface(bytes4 interfaceId) internal virtual {\r... */\ntag_8:\n    /* \"contracts/ERC165.sol\":1491:1501  0xffffffff */\n  0xffffffff\n    /* \"contracts/ERC165.sol\":1476:1501  interfaceId != 0xffffffff */\n  0xe0\n  shl\n    /* \"contracts/ERC165.sol\":1476:1487  interfaceId */\n  dup2\n    /* \"contracts/ERC165.sol\":1476:1501  interfaceId != 0xffffffff */\n  not(0xffffffffffffffffffffffffffffffffffffffffffffffffffffffff)\n  and\n  eq\n  iszero\n    /* \"contracts/ERC165.sol\":1468:1534  require(interfaceId != 0xffffffff, \"ERC165: invalid interface id\") */\n  tag_15\n  jumpi\n  mload(0x40)\n  0x08c379a000000000000000000000000000000000000000000000000000000000\n  dup2\n  mstore\n  0x04\n  add\n  tag_16\n  swap1\n  tag_17\n  jump\t// in\ntag_16:\n  mload(0x40)\n  dup1\n  swap2\n  sub\n  swap1\n  revert\ntag_15:\n    /* \"contracts/ERC165.sol\":1581:1585  true */\n  0x01\n    /* \"contracts/ERC165.sol\":1545:1565  _supportedInterfaces */\n  0x00\n    /* \"contracts/ERC165.sol\":1545:1578  _supportedInterfaces[interfaceId] */\n  dup1\n    /* \"contracts/ERC165.sol\":1566:1577  interfaceId */\n  dup4\n    /* \"contracts/ERC165.sol\":1545:1578  _supportedInterfaces[interfaceId] */\n  not(0xffffffffffffffffffffffffffffffffffffffffffffffffffffffff)\n  and\n  not(0xffffffffffffffffffffffffffffffffffffffffffffffffffffffff)\n  and\n  dup2\n  mstore\n  0x20\n  add\n  swap1\n  dup2\n  mstore\n  0x20\n  add\n  0x00\n  keccak256\n  0x00\n    /* \"contracts/ERC165.sol\":1545:1585  _supportedInterfaces[interfaceId] = true */\n  0x0100\n  exp\n  dup2\n  sload\n  dup2\n  0xff\n  mul\n  not\n  and\n  swap1\n  dup4\n  iszero\n  iszero\n  mul\n  or\n  swap1\n  sstore\n  pop\n    /* \"contracts/ERC165.sol\":1392:1593  function _registerInterface(bytes4 interfaceId) internal virtual {\r... */\n  pop\n  jump\t// out\n    /* \"contracts/ERC721.sol\":581:14683  contract ERC721 is Context, ERC165, IERC721, IERC721Metadata {\r... */\ntag_11:\n  dup3\n  dup1\n  sload\n  tag_18\n  swap1\n  tag_19\n  jump\t// in\ntag_18:\n  swap1\n  0x00\n  mstore\n  keccak256(0x00, 0x20)\n  swap1\n  0x1f\n  add\n  0x20\n  swap1\n  div\n  dup2\n  add\n  swap3\n  dup3\n  tag_21\n  jumpi\n  0x00\n  dup6\n  sstore\n  jump(tag_20)\ntag_21:\n  dup3\n  0x1f\n  lt\n  tag_22\n  jumpi\n  dup1\n  mload\n  not(0xff)\n  and\n  dup4\n  dup1\n  add\n  or\n  dup6\n  sstore\n  jump(tag_20)\ntag_22:\n  dup3\n  dup1\n  add\n  0x01\n  add\n  dup6\n  sstore\n  dup3\n  iszero\n  tag_20\n  jumpi\n  swap2\n  dup3\n  add\ntag_23:\n  dup3\n  dup2\n  gt\n  iszero\n  tag_24\n  jumpi\n  dup3\n  mload\n  dup3\n  sstore\n  swap2\n  0x20\n  add\n  swap2\n  swap1\n  0x01\n  add\n  swap1\n  jump(tag_23)\ntag_24:\ntag_20:\n  pop\n  swap1\n  pop\n  tag_25\n  swap2\n  swap1\n  tag_26\n  jump\t// in\ntag_25:\n  pop\n  swap1\n  jump\t// out\ntag_26:\ntag_27:\n  dup1\n  dup3\n  gt\n  iszero\n  tag_28\n  jumpi\n  0x00\n  dup2\n  0x00\n  swap1\n  sstore\n  pop\n  0x01\n  add\n  jump(tag_27)\ntag_28:\n  pop\n  swap1\n  jump\t// out\n    /* \"#utility.yul\":7:428   */\ntag_30:\n    /* \"#utility.yul\":96:101   */\n  0x00\n    /* \"#utility.yul\":121:187   */\n  tag_32\n    /* \"#utility.yul\":137:186   */\n  tag_33\n    /* \"#utility.yul\":179:185   */\n  dup5\n    /* \"#utility.yul\":137:186   */\n  tag_34\n  jump\t// in\ntag_33:\n    /* \"#utility.yul\":121:187   */\n  tag_35\n  jump\t// in\ntag_32:\n    /* \"#utility.yul\":112:187   */\n  swap1\n  pop\n    /* \"#utility.yul\":210:216   */\n  dup3\n    /* \"#utility.yul\":203:208   */\n  dup2\n    /* \"#utility.yul\":196:217   */\n  mstore\n    /* \"#utility.yul\":248:252   */\n  0x20\n    /* \"#utility.yul\":241:246   */\n  dup2\n    /* \"#utility.yul\":237:253   */\n  add\n    /* \"#utility.yul\":286:289   */\n  dup5\n    /* \"#utility.yul\":277:283   */\n  dup5\n    /* \"#utility.yul\":272:275   */\n  dup5\n    /* \"#utility.yul\":268:284   */\n  add\n    /* \"#utility.yul\":265:290   */\n  gt\n    /* \"#utility.yul\":262:374   */\n  iszero\n  tag_36\n  jumpi\n    /* \"#utility.yul\":293:372   */\n  tag_37\n  tag_38\n  jump\t// in\ntag_37:\n    /* \"#utility.yul\":262:374   */\ntag_36:\n    /* \"#utility.yul\":383:422   */\n  tag_39\n    /* \"#utility.yul\":415:421   */\n  dup5\n    /* \"#utility.yul\":410:413   */\n  dup3\n    /* \"#utility.yul\":405:408   */\n  dup6\n    /* \"#utility.yul\":383:422   */\n  tag_40\n  jump\t// in\ntag_39:\n    /* \"#utility.yul\":102:428   */\n  pop\n    /* \"#utility.yul\":7:428   */\n  swap4\n  swap3\n  pop\n  pop\n  pop\n  jump\t// out\n    /* \"#utility.yul\":448:803   */\ntag_41:\n    /* \"#utility.yul\":515:520   */\n  0x00\n    /* \"#utility.yul\":564:567   */\n  dup3\n    /* \"#utility.yul\":557:561   */\n  0x1f\n    /* \"#utility.yul\":549:555   */\n  dup4\n    /* \"#utility.yul\":545:562   */\n  add\n    /* \"#utility.yul\":541:568   */\n  slt\n    /* \"#utility.yul\":531:653   */\n  tag_43\n  jumpi\n    /* \"#utility.yul\":572:651   */\n  tag_44\n  tag_45\n  jump\t// in\ntag_44:\n    /* \"#utility.yul\":531:653   */\ntag_43:\n    /* \"#utility.yul\":682:688   */\n  dup2\n    /* \"#utility.yul\":676:689   */\n  mload\n    /* \"#utility.yul\":707:797   */\n  tag_46\n    /* \"#utility.yul\":793:796   */\n  dup5\n    /* \"#utility.yul\":785:791   */\n  dup3\n    /* \"#utility.yul\":778:782   */\n  0x20\n    /* \"#utility.yul\":770:776   */\n  dup7\n    /* \"#utility.yul\":766:783   */\n  add\n    /* \"#utility.yul\":707:797   */\n  tag_30\n  jump\t// in\ntag_46:\n    /* \"#utility.yul\":698:797   */\n  swap2\n  pop\n    /* \"#utility.yul\":521:803   */\n  pop\n    /* \"#utility.yul\":448:803   */\n  swap3\n  swap2\n  pop\n  pop\n  jump\t// out\n    /* \"#utility.yul\":809:1662   */\ntag_3:\n    /* \"#utility.yul\":908:914   */\n  0x00\n    /* \"#utility.yul\":916:922   */\n  dup1\n    /* \"#utility.yul\":965:967   */\n  0x40\n    /* \"#utility.yul\":953:962   */\n  dup4\n    /* \"#utility.yul\":944:951   */\n  dup6\n    /* \"#utility.yul\":940:963   */\n  sub\n    /* \"#utility.yul\":936:968   */\n  slt\n    /* \"#utility.yul\":933:1052   */\n  iszero\n  tag_48\n  jumpi\n    /* \"#utility.yul\":971:1050   */\n  tag_49\n  tag_50\n  jump\t// in\ntag_49:\n    /* \"#utility.yul\":933:1052   */\ntag_48:\n    /* \"#utility.yul\":1112:1113   */\n  0x00\n    /* \"#utility.yul\":1101:1110   */\n  dup4\n    /* \"#utility.yul\":1097:1114   */\n  add\n    /* \"#utility.yul\":1091:1115   */\n  mload\n    /* \"#utility.yul\":1142:1160   */\n  0xffffffffffffffff\n    /* \"#utility.yul\":1134:1140   */\n  dup2\n    /* \"#utility.yul\":1131:1161   */\n  gt\n    /* \"#utility.yul\":1128:1245   */\n  iszero\n  tag_51\n  jumpi\n    /* \"#utility.yul\":1164:1243   */\n  tag_52\n  tag_53\n  jump\t// in\ntag_52:\n    /* \"#utility.yul\":1128:1245   */\ntag_51:\n    /* \"#utility.yul\":1269:1343   */\n  tag_54\n    /* \"#utility.yul\":1335:1342   */\n  dup6\n    /* \"#utility.yul\":1326:1332   */\n  dup3\n    /* \"#utility.yul\":1315:1324   */\n  dup7\n    /* \"#utility.yul\":1311:1333   */\n  add\n    /* \"#utility.yul\":1269:1343   */\n  tag_41\n  jump\t// in\ntag_54:\n    /* \"#utility.yul\":1259:1343   */\n  swap3\n  pop\n    /* \"#utility.yul\":1062:1353   */\n  pop\n    /* \"#utility.yul\":1413:1415   */\n  0x20\n    /* \"#utility.yul\":1402:1411   */\n  dup4\n    /* \"#utility.yul\":1398:1416   */\n  add\n    /* \"#utility.yul\":1392:1417   */\n  mload\n    /* \"#utility.yul\":1444:1462   */\n  0xffffffffffffffff\n    /* \"#utility.yul\":1436:1442   */\n  dup2\n    /* \"#utility.yul\":1433:1463   */\n  gt\n    /* \"#utility.yul\":1430:1547   */\n  iszero\n  tag_55\n  jumpi\n    /* \"#utility.yul\":1466:1545   */\n  tag_56\n  tag_53\n  jump\t// in\ntag_56:\n    /* \"#utility.yul\":1430:1547   */\ntag_55:\n    /* \"#utility.yul\":1571:1645   */\n  tag_57\n    /* \"#utility.yul\":1637:1644   */\n  dup6\n    /* \"#utility.yul\":1628:1634   */\n  dup3\n    /* \"#utility.yul\":1617:1626   */\n  dup7\n    /* \"#utility.yul\":1613:1635   */\n  add\n    /* \"#utility.yul\":1571:1645   */\n  tag_41\n  jump\t// in\ntag_57:\n    /* \"#utility.yul\":1561:1645   */\n  swap2\n  pop\n    /* \"#utility.yul\":1363:1655   */\n  pop\n    /* \"#utility.yul\":809:1662   */\n  swap3\n  pop\n  swap3\n  swap1\n  pop\n  jump\t// out\n    /* \"#utility.yul\":1668:2034   */\ntag_58:\n    /* \"#utility.yul\":1810:1813   */\n  0x00\n    /* \"#utility.yul\":1831:1898   */\n  tag_60\n    /* \"#utility.yul\":1895:1897   */\n  0x1c\n    /* \"#utility.yul\":1890:1893   */\n  dup4\n    /* \"#utility.yul\":1831:1898   */\n  tag_61\n  jump\t// in\ntag_60:\n    /* \"#utility.yul\":1824:1898   */\n  swap2\n  pop\n    /* \"#utility.yul\":1907:2000   */\n  tag_62\n    /* \"#utility.yul\":1996:1999   */\n  dup3\n    /* \"#utility.yul\":1907:2000   */\n  tag_63\n  jump\t// in\ntag_62:\n    /* \"#utility.yul\":2025:2027   */\n  0x20\n    /* \"#utility.yul\":2020:2023   */\n  dup3\n    /* \"#utility.yul\":2016:2028   */\n  add\n    /* \"#utility.yul\":2009:2028   */\n  swap1\n  pop\n    /* \"#utility.yul\":1668:2034   */\n  swap2\n  swap1\n  pop\n  jump\t// out\n    /* \"#utility.yul\":2040:2459   */\ntag_17:\n    /* \"#utility.yul\":2206:2210   */\n  0x00\n    /* \"#utility.yul\":2244:2246   */\n  0x20\n    /* \"#utility.yul\":2233:2242   */\n  dup3\n    /* \"#utility.yul\":2229:2247   */\n  add\n    /* \"#utility.yul\":2221:2247   */\n  swap1\n  pop\n    /* \"#utility.yul\":2293:2302   */\n  dup2\n    /* \"#utility.yul\":2287:2291   */\n  dup2\n    /* \"#utility.yul\":2283:2303   */\n  sub\n    /* \"#utility.yul\":2279:2280   */\n  0x00\n    /* \"#utility.yul\":2268:2277   */\n  dup4\n    /* \"#utility.yul\":2264:2281   */\n  add\n    /* \"#utility.yul\":2257:2304   */\n  mstore\n    /* \"#utility.yul\":2321:2452   */\n  tag_65\n    /* \"#utility.yul\":2447:2451   */\n  dup2\n    /* \"#utility.yul\":2321:2452   */\n  tag_58\n  jump\t// in\ntag_65:\n    /* \"#utility.yul\":2313:2452   */\n  swap1\n  pop\n    /* \"#utility.yul\":2040:2459   */\n  swap2\n  swap1\n  pop\n  jump\t// out\n    /* \"#utility.yul\":2465:2594   */\ntag_35:\n    /* \"#utility.yul\":2499:2505   */\n  0x00\n    /* \"#utility.yul\":2526:2546   */\n  tag_67\n  tag_68\n  jump\t// in\ntag_67:\n    /* \"#utility.yul\":2516:2546   */\n  swap1\n  pop\n    /* \"#utility.yul\":2555:2588   */\n  tag_69\n    /* \"#utility.yul\":2583:2587   */\n  dup3\n    /* \"#utility.yul\":2575:2581   */\n  dup3\n    /* \"#utility.yul\":2555:2588   */\n  tag_70\n  jump\t// in\ntag_69:\n    /* \"#utility.yul\":2465:2594   */\n  swap2\n  swap1\n  pop\n  jump\t// out\n    /* \"#utility.yul\":2600:2675   */\ntag_68:\n    /* \"#utility.yul\":2633:2639   */\n  0x00\n    /* \"#utility.yul\":2666:2668   */\n  0x40\n    /* \"#utility.yul\":2660:2669   */\n  mload\n    /* \"#utility.yul\":2650:2669   */\n  swap1\n  pop\n    /* \"#utility.yul\":2600:2675   */\n  swap1\n  jump\t// out\n    /* \"#utility.yul\":2681:2989   */\ntag_34:\n    /* \"#utility.yul\":2743:2747   */\n  0x00\n    /* \"#utility.yul\":2833:2851   */\n  0xffffffffffffffff\n    /* \"#utility.yul\":2825:2831   */\n  dup3\n    /* \"#utility.yul\":2822:2852   */\n  gt\n    /* \"#utility.yul\":2819:2875   */\n  iszero\n  tag_73\n  jumpi\n    /* \"#utility.yul\":2855:2873   */\n  tag_74\n  tag_75\n  jump\t// in\ntag_74:\n    /* \"#utility.yul\":2819:2875   */\ntag_73:\n    /* \"#utility.yul\":2893:2922   */\n  tag_76\n    /* \"#utility.yul\":2915:2921   */\n  dup3\n    /* \"#utility.yul\":2893:2922   */\n  tag_77\n  jump\t// in\ntag_76:\n    /* \"#utility.yul\":2885:2922   */\n  swap1\n  pop\n    /* \"#utility.yul\":2977:2981   */\n  0x20\n    /* \"#utility.yul\":2971:2975   */\n  dup2\n    /* \"#utility.yul\":2967:2982   */\n  add\n    /* \"#utility.yul\":2959:2982   */\n  swap1\n  pop\n    /* \"#utility.yul\":2681:2989   */\n  swap2\n  swap1\n  pop\n  jump\t// out\n    /* \"#utility.yul\":2995:3164   */\ntag_61:\n    /* \"#utility.yul\":3079:3090   */\n  0x00\n    /* \"#utility.yul\":3113:3119   */\n  dup3\n    /* \"#utility.yul\":3108:3111   */\n  dup3\n    /* \"#utility.yul\":3101:3120   */\n  mstore\n    /* \"#utility.yul\":3153:3157   */\n  0x20\n    /* \"#utility.yul\":3148:3151   */\n  dup3\n    /* \"#utility.yul\":3144:3158   */\n  add\n    /* \"#utility.yul\":3129:3158   */\n  swap1\n  pop\n    /* \"#utility.yul\":2995:3164   */\n  swap3\n  swap2\n  pop\n  pop\n  jump\t// out\n    /* \"#utility.yul\":3170:3477   */\ntag_40:\n    /* \"#utility.yul\":3238:3239   */\n  0x00\n    /* \"#utility.yul\":3248:3361   */\ntag_80:\n    /* \"#utility.yul\":3262:3268   */\n  dup4\n    /* \"#utility.yul\":3259:3260   */\n  dup2\n    /* \"#utility.yul\":3256:3269   */\n  lt\n    /* \"#utility.yul\":3248:3361   */\n  iszero\n  tag_82\n  jumpi\n    /* \"#utility.yul\":3347:3348   */\n  dup1\n    /* \"#utility.yul\":3342:3345   */\n  dup3\n    /* \"#utility.yul\":3338:3349   */\n  add\n    /* \"#utility.yul\":3332:3350   */\n  mload\n    /* \"#utility.yul\":3328:3329   */\n  dup2\n    /* \"#utility.yul\":3323:3326   */\n  dup5\n    /* \"#utility.yul\":3319:3330   */\n  add\n    /* \"#utility.yul\":3312:3351   */\n  mstore\n    /* \"#utility.yul\":3284:3286   */\n  0x20\n    /* \"#utility.yul\":3281:3282   */\n  dup2\n    /* \"#utility.yul\":3277:3287   */\n  add\n    /* \"#utility.yul\":3272:3287   */\n  swap1\n  pop\n    /* \"#utility.yul\":3248:3361   */\n  jump(tag_80)\ntag_82:\n    /* \"#utility.yul\":3379:3385   */\n  dup4\n    /* \"#utility.yul\":3376:3377   */\n  dup2\n    /* \"#utility.yul\":3373:3386   */\n  gt\n    /* \"#utility.yul\":3370:3471   */\n  iszero\n  tag_83\n  jumpi\n    /* \"#utility.yul\":3459:3460   */\n  0x00\n    /* \"#utility.yul\":3450:3456   */\n  dup5\n    /* \"#utility.yul\":3445:3448   */\n  dup5\n    /* \"#utility.yul\":3441:3457   */\n  add\n    /* \"#utility.yul\":3434:3461   */\n  mstore\n    /* \"#utility.yul\":3370:3471   */\ntag_83:\n    /* \"#utility.yul\":3219:3477   */\n  pop\n    /* \"#utility.yul\":3170:3477   */\n  pop\n  pop\n  pop\n  jump\t// out\n    /* \"#utility.yul\":3483:3803   */\ntag_19:\n    /* \"#utility.yul\":3527:3533   */\n  0x00\n    /* \"#utility.yul\":3564:3565   */\n  0x02\n    /* \"#utility.yul\":3558:3562   */\n  dup3\n    /* \"#utility.yul\":3554:3566   */\n  div\n    /* \"#utility.yul\":3544:3566   */\n  swap1\n  pop\n    /* \"#utility.yul\":3611:3612   */\n  0x01\n    /* \"#utility.yul\":3605:3609   */\n  dup3\n    /* \"#utility.yul\":3601:3613   */\n  and\n    /* \"#utility.yul\":3632:3650   */\n  dup1\n    /* \"#utility.yul\":3622:3703   */\n  tag_85\n  jumpi\n    /* \"#utility.yul\":3688:3692   */\n  0x7f\n    /* \"#utility.yul\":3680:3686   */\n  dup3\n    /* \"#utility.yul\":3676:3693   */\n  and\n    /* \"#utility.yul\":3666:3693   */\n  swap2\n  pop\n    /* \"#utility.yul\":3622:3703   */\ntag_85:\n    /* \"#utility.yul\":3750:3752   */\n  0x20\n    /* \"#utility.yul\":3742:3748   */\n  dup3\n    /* \"#utility.yul\":3739:3753   */\n  lt\n    /* \"#utility.yul\":3719:3737   */\n  dup2\n    /* \"#utility.yul\":3716:3754   */\n  eq\n    /* \"#utility.yul\":3713:3797   */\n  iszero\n  tag_86\n  jumpi\n    /* \"#utility.yul\":3769:3787   */\n  tag_87\n  tag_88\n  jump\t// in\ntag_87:\n    /* \"#utility.yul\":3713:3797   */\ntag_86:\n    /* \"#utility.yul\":3534:3803   */\n  pop\n    /* \"#utility.yul\":3483:3803   */\n  swap2\n  swap1\n  pop\n  jump\t// out\n    /* \"#utility.yul\":3809:4090   */\ntag_70:\n    /* \"#utility.yul\":3892:3919   */\n  tag_90\n    /* \"#utility.yul\":3914:3918   */\n  dup3\n    /* \"#utility.yul\":3892:3919   */\n  tag_77\n  jump\t// in\ntag_90:\n    /* \"#utility.yul\":3884:3890   */\n  dup2\n    /* \"#utility.yul\":3880:3920   */\n  add\n    /* \"#utility.yul\":4022:4028   */\n  dup2\n    /* \"#utility.yul\":4010:4020   */\n  dup2\n    /* \"#utility.yul\":4007:4029   */\n  lt\n    /* \"#utility.yul\":3986:4004   */\n  0xffffffffffffffff\n    /* \"#utility.yul\":3974:3984   */\n  dup3\n    /* \"#utility.yul\":3971:4005   */\n  gt\n    /* \"#utility.yul\":3968:4030   */\n  or\n    /* \"#utility.yul\":3965:4053   */\n  iszero\n  tag_91\n  jumpi\n    /* \"#utility.yul\":4033:4051   */\n  tag_92\n  tag_75\n  jump\t// in\ntag_92:\n    /* \"#utility.yul\":3965:4053   */\ntag_91:\n    /* \"#utility.yul\":4073:4083   */\n  dup1\n    /* \"#utility.yul\":4069:4071   */\n  0x40\n    /* \"#utility.yul\":4062:4084   */\n  mstore\n    /* \"#utility.yul\":3852:4090   */\n  pop\n    /* \"#utility.yul\":3809:4090   */\n  pop\n  pop\n  jump\t// out\n    /* \"#utility.yul\":4096:4276   */\ntag_88:\n    /* \"#utility.yul\":4144:4221   */\n  0x4e487b7100000000000000000000000000000000000000000000000000000000\n    /* \"#utility.yul\":4141:4142   */\n  0x00\n    /* \"#utility.yul\":4134:4222   */\n  mstore\n    /* \"#utility.yul\":4241:4245   */\n  0x22\n    /* \"#utility.yul\":4238:4239   */\n  0x04\n    /* \"#utility.yul\":4231:4246   */\n  mstore\n    /* \"#utility.yul\":4265:4269   */\n  0x24\n    /* \"#utility.yul\":4262:4263   */\n  0x00\n    /* \"#utility.yul\":4255:4270   */\n  revert\n    /* \"#utility.yul\":4282:4462   */\ntag_75:\n    /* \"#utility.yul\":4330:4407   */\n  0x4e487b7100000000000000000000000000000000000000000000000000000000\n    /* \"#utility.yul\":4327:4328   */\n  0x00\n    /* \"#utility.yul\":4320:4408   */\n  mstore\n    /* \"#utility.yul\":4427:4431   */\n  0x41\n    /* \"#utility.yul\":4424:4425   */\n  0x04\n    /* \"#utility.yul\":4417:4432   */\n  mstore\n    /* \"#utility.yul\":4451:4455   */\n  0x24\n    /* \"#utility.yul\":4448:4449   */\n  0x00\n    /* \"#utility.yul\":4441:4456   */\n  revert\n    /* \"#utility.yul\":4468:4585   */\ntag_45:\n    /* \"#utility.yul\":4577:4578   */\n  0x00\n    /* \"#utility.yul\":4574:4575   */\n  dup1\n    /* \"#utility.yul\":4567:4579   */\n  revert\n    /* \"#utility.yul\":4591:4708   */\ntag_38:\n    /* \"#utility.yul\":4700:4701   */\n  0x00\n    /* \"#utility.yul\":4697:4698   */\n  dup1\n    /* \"#utility.yul\":4690:4702   */\n  revert\n    /* \"#utility.yul\":4714:4831   */\ntag_53:\n    /* \"#utility.yul\":4823:4824   */\n  0x00\n    /* \"#utility.yul\":4820:4821   */\n  dup1\n    /* \"#utility.yul\":4813:4825   */\n  revert\n    /* \"#utility.yul\":4837:4954   */\ntag_50:\n    /* \"#utility.yul\":4946:4947   */\n  0x00\n    /* \"#utility.yul\":4943:4944   */\n  dup1\n    /* \"#utility.yul\":4936:4948   */\n  revert\n    /* \"#utility.yul\":4960:5062   */\ntag_77:\n    /* \"#utility.yul\":5001:5007   */\n  0x00\n    /* \"#utility.yul\":5052:5054   */\n  0x1f\n    /* \"#utility.yul\":5048:5055   */\n  not\n    /* \"#utility.yul\":5043:5045   */\n  0x1f\n    /* \"#utility.yul\":5036:5041   */\n  dup4\n    /* \"#utility.yul\":5032:5046   */\n  add\n    /* \"#utility.yul\":5028:5056   */\n  and\n    /* \"#utility.yul\":5018:5056   */\n  swap1\n  pop\n    /* \"#utility.yul\":4960:5062   */\n  swap2\n  swap1\n  pop\n  jump\t// out\n    /* \"#utility.yul\":5068:5246   */\ntag_63:\n    /* \"#utility.yul\":5208:5238   */\n  0x4552433136353a20696e76616c696420696e7465726661636520696400000000\n    /* \"#utility.yul\":5204:5205   */\n  0x00\n    /* \"#utility.yul\":5196:5202   */\n  dup3\n    /* \"#utility.yul\":5192:5206   */\n  add\n    /* \"#utility.yul\":5185:5239   */\n  mstore\n    /* \"#utility.yul\":5068:5246   */\n  pop\n  jump\t// out\n    /* \"contracts/ERC721.sol\":581:14683  contract ERC721 is Context, ERC165, IERC721, IERC721Metadata {\r... */\ntag_13:\n  dataSize(sub_0)\n  dup1\n  dataOffset(sub_0)\n  0x00\n  codecopy\n  0x00\n  return\nstop\n\nsub_0: assembly {\n        /* \"contracts/ERC721.sol\":581:14683  contract ERC721 is Context, ERC165, IERC721, IERC721Metadata {\r... */\n      mstore(0x40, 0x80)\n      callvalue\n      dup1\n      iszero\n      tag_1\n      jumpi\n      0x00\n      dup1\n      revert\n    tag_1:\n      pop\n      jumpi(tag_2, lt(calldatasize, 0x04))\n      shr(0xe0, calldataload(0x00))\n      dup1\n      0x6a4f832b\n      gt\n      tag_17\n      jumpi\n      dup1\n      0xa22cb465\n      gt\n      tag_18\n      jumpi\n      dup1\n      0xa22cb465\n      eq\n      tag_13\n      jumpi\n      dup1\n      0xb88d4fde\n      eq\n      tag_14\n      jumpi\n      dup1\n      0xc87b56dd\n      eq\n      tag_15\n      jumpi\n      dup1\n      0xe985e9c5\n      eq\n      tag_16\n      jumpi\n      jump(tag_2)\n    tag_18:\n      dup1\n      0x6a4f832b\n      eq\n      tag_10\n      jumpi\n      dup1\n      0x70a08231\n      eq\n      tag_11\n      jumpi\n      dup1\n      0x95d89b41\n      eq\n      tag_12\n      jumpi\n      jump(tag_2)\n    tag_17:\n      dup1\n      0x095ea7b3\n      gt\n      tag_19\n      jumpi\n      dup1\n      0x095ea7b3\n      eq\n      tag_6\n      jumpi\n      dup1\n      0x23b872dd\n      eq\n      tag_7\n      jumpi\n      dup1\n      0x42842e0e\n      eq\n      tag_8\n      jumpi\n      dup1\n      0x6352211e\n      eq\n      tag_9\n      jumpi\n      jump(tag_2)\n    tag_19:\n      dup1\n      0x01ffc9a7\n      eq\n      tag_3\n      jumpi\n      dup1\n      0x06fdde03\n      eq\n      tag_4\n      jumpi\n      dup1\n      0x081812fc\n      eq\n      tag_5\n      jumpi\n    tag_2:\n      0x00\n      dup1\n      revert\n        /* \"contracts/ERC721.sol\":1556:1861  function supportsInterface(bytes4 interfaceId) public view virtual override(ERC165, IERC165) returns (bool) {\r... */\n    tag_3:\n      tag_20\n      0x04\n      dup1\n      calldatasize\n      sub\n      dup2\n      add\n      swap1\n      tag_21\n      swap2\n      swap1\n      tag_22\n      jump\t// in\n    tag_21:\n      tag_23\n      jump\t// in\n    tag_20:\n      mload(0x40)\n      tag_24\n      swap2\n      swap1\n      tag_25\n      jump\t// in\n    tag_24:\n      mload(0x40)\n      dup1\n      swap2\n      sub\n      swap1\n      return\n        /* \"contracts/ERC721.sol\":2501:2601  function name() public view virtual override returns (string memory) {\r... */\n    tag_4:\n      tag_26\n      tag_27\n      jump\t// in\n    tag_26:\n      mload(0x40)\n      tag_28\n      swap2\n      swap1\n      tag_29\n      jump\t// in\n    tag_28:\n      mload(0x40)\n      dup1\n      swap2\n      sub\n      swap1\n      return\n        /* \"contracts/ERC721.sol\":4079:4300  function getApproved(uint256 tokenId) public view virtual override returns (address) {\r... */\n    tag_5:\n      tag_30\n      0x04\n      dup1\n      calldatasize\n      sub\n      dup2\n      add\n      swap1\n      tag_31\n      swap2\n      swap1\n      tag_32\n      jump\t// in\n    tag_31:\n      tag_33\n      jump\t// in\n    tag_30:\n      mload(0x40)\n      tag_34\n      swap2\n      swap1\n      tag_35\n      jump\t// in\n    tag_34:\n      mload(0x40)\n      dup1\n      swap2\n      sub\n      swap1\n      return\n        /* \"contracts/ERC721.sol\":3602:4013  function approve(address to, uint256 tokenId) public virtual override {\r... */\n    tag_6:\n      tag_36\n      0x04\n      dup1\n      calldatasize\n      sub\n      dup2\n      add\n      swap1\n      tag_37\n      swap2\n      swap1\n      tag_38\n      jump\t// in\n    tag_37:\n      tag_39\n      jump\t// in\n    tag_36:\n      stop\n        /* \"contracts/ERC721.sol\":4829:5168  function transferFrom(\r... */\n    tag_7:\n      tag_40\n      0x04\n      dup1\n      calldatasize\n      sub\n      dup2\n      add\n      swap1\n      tag_41\n      swap2\n      swap1\n      tag_42\n      jump\t// in\n    tag_41:\n      tag_43\n      jump\t// in\n    tag_40:\n      stop\n        /* \"contracts/ERC721.sol\":5239:5424  function safeTransferFrom(\r... */\n    tag_8:\n      tag_44\n      0x04\n      dup1\n      calldatasize\n      sub\n      dup2\n      add\n      swap1\n      tag_45\n      swap2\n      swap1\n      tag_42\n      jump\t// in\n    tag_45:\n      tag_46\n      jump\t// in\n    tag_44:\n      stop\n        /* \"contracts/ERC721.sol\":2195:2434  function ownerOf(uint256 tokenId) public view virtual override returns (address) {\r... */\n    tag_9:\n      tag_47\n      0x04\n      dup1\n      calldatasize\n      sub\n      dup2\n      add\n      swap1\n      tag_48\n      swap2\n      swap1\n      tag_32\n      jump\t// in\n    tag_48:\n      tag_49\n      jump\t// in\n    tag_47:\n      mload(0x40)\n      tag_50\n      swap2\n      swap1\n      tag_35\n      jump\t// in\n    tag_50:\n      mload(0x40)\n      dup1\n      swap2\n      sub\n      swap1\n      return\n        /* \"contracts/ERC721.sol\":8654:8973  function _safeMint(\r... */\n    tag_10:\n      tag_51\n      0x04\n      dup1\n      calldatasize\n      sub\n      dup2\n      add\n      swap1\n      tag_52\n      swap2\n      swap1\n      tag_53\n      jump\t// in\n    tag_52:\n      tag_54\n      jump\t// in\n    tag_51:\n      stop\n        /* \"contracts/ERC721.sol\":1925:2133  function balanceOf(address owner) public view virtual override returns (uint256) {\r... */\n    tag_11:\n      tag_55\n      0x04\n      dup1\n      calldatasize\n      sub\n      dup2\n      add\n      swap1\n      tag_56\n      swap2\n      swap1\n      tag_57\n      jump\t// in\n    tag_56:\n      tag_58\n      jump\t// in\n    tag_55:\n      mload(0x40)\n      tag_59\n      swap2\n      swap1\n      tag_60\n      jump\t// in\n    tag_59:\n      mload(0x40)\n      dup1\n      swap2\n      sub\n      swap1\n      return\n        /* \"contracts/ERC721.sol\":2670:2774  function symbol() public view virtual override returns (string memory) {\r... */\n    tag_12:\n      tag_61\n      tag_62\n      jump\t// in\n    tag_61:\n      mload(0x40)\n      tag_63\n      swap2\n      swap1\n      tag_29\n      jump\t// in\n    tag_63:\n      mload(0x40)\n      dup1\n      swap2\n      sub\n      swap1\n      return\n        /* \"contracts/ERC721.sol\":4372:4527  function setApprovalForAll(address operator, bool approved) public virtual override {\r... */\n    tag_13:\n      tag_64\n      0x04\n      dup1\n      calldatasize\n      sub\n      dup2\n      add\n      swap1\n      tag_65\n      swap2\n      swap1\n      tag_66\n      jump\t// in\n    tag_65:\n      tag_67\n      jump\t// in\n    tag_64:\n      stop\n        /* \"contracts/ERC721.sol\":5495:5823  function safeTransferFrom(\r... */\n    tag_14:\n      tag_68\n      0x04\n      dup1\n      calldatasize\n      sub\n      dup2\n      add\n      swap1\n      tag_69\n      swap2\n      swap1\n      tag_70\n      jump\t// in\n    tag_69:\n      tag_71\n      jump\t// in\n    tag_68:\n      stop\n        /* \"contracts/ERC721.sol\":2845:3179  function tokenURI(uint256 tokenId) public view virtual override returns (string memory) {\r... */\n    tag_15:\n      tag_72\n      0x04\n      dup1\n      calldatasize\n      sub\n      dup2\n      add\n      swap1\n      tag_73\n      swap2\n      swap1\n      tag_32\n      jump\t// in\n    tag_73:\n      tag_74\n      jump\t// in\n    tag_72:\n      mload(0x40)\n      tag_75\n      swap2\n      swap1\n      tag_29\n      jump\t// in\n    tag_75:\n      mload(0x40)\n      dup1\n      swap2\n      sub\n      swap1\n      return\n        /* \"contracts/ERC721.sol\":4598:4762  function isApprovedForAll(address owner, address operator) public view virtual override returns (bool) {\r... */\n    tag_16:\n      tag_76\n      0x04\n      dup1\n      calldatasize\n      sub\n      dup2\n      add\n      swap1\n      tag_77\n      swap2\n      swap1\n      tag_78\n      jump\t// in\n    tag_77:\n      tag_79\n      jump\t// in\n    tag_76:\n      mload(0x40)\n      tag_80\n      swap2\n      swap1\n      tag_25\n      jump\t// in\n    tag_80:\n      mload(0x40)\n      dup1\n      swap2\n      sub\n      swap1\n      return\n        /* \"contracts/ERC721.sol\":1556:1861  function supportsInterface(bytes4 interfaceId) public view virtual override(ERC165, IERC165) returns (bool) {\r... */\n    tag_23:\n        /* \"contracts/ERC721.sol\":1658:1662  bool */\n      0x00\n        /* \"contracts/ERC721.sol\":1710:1735  type(IERC721).interfaceId */\n      0x80ac58cd00000000000000000000000000000000000000000000000000000000\n        /* \"contracts/ERC721.sol\":1695:1735  interfaceId == type(IERC721).interfaceId */\n      not(0xffffffffffffffffffffffffffffffffffffffffffffffffffffffff)\n      and\n        /* \"contracts/ERC721.sol\":1695:1706  interfaceId */\n      dup3\n        /* \"contracts/ERC721.sol\":1695:1735  interfaceId == type(IERC721).interfaceId */\n      not(0xffffffffffffffffffffffffffffffffffffffffffffffffffffffff)\n      and\n      eq\n        /* \"contracts/ERC721.sol\":1695:1800  interfaceId == type(IERC721).interfaceId ||\r... */\n      dup1\n      tag_82\n      jumpi\n      pop\n        /* \"contracts/ERC721.sol\":1767:1800  type(IERC721Metadata).interfaceId */\n      0x5b5e139f00000000000000000000000000000000000000000000000000000000\n        /* \"contracts/ERC721.sol\":1752:1800  interfaceId == type(IERC721Metadata).interfaceId */\n      not(0xffffffffffffffffffffffffffffffffffffffffffffffffffffffff)\n      and\n        /* \"contracts/ERC721.sol\":1752:1763  interfaceId */\n      dup3\n        /* \"contracts/ERC721.sol\":1752:1800  interfaceId == type(IERC721Metadata).interfaceId */\n      not(0xffffffffffffffffffffffffffffffffffffffffffffffffffffffff)\n      and\n      eq\n        /* \"contracts/ERC721.sol\":1695:1800  interfaceId == type(IERC721).interfaceId ||\r... */\n    tag_82:\n        /* \"contracts/ERC721.sol\":1695:1853  interfaceId == type(IERC721).interfaceId ||\r... */\n      dup1\n      tag_83\n      jumpi\n      pop\n        /* \"contracts/ERC721.sol\":1817:1853  super.supportsInterface(interfaceId) */\n      tag_84\n        /* \"contracts/ERC721.sol\":1841:1852  interfaceId */\n      dup3\n        /* \"contracts/ERC721.sol\":1817:1840  super.supportsInterface */\n      tag_85\n        /* \"contracts/ERC721.sol\":1817:1853  super.supportsInterface(interfaceId) */\n      jump\t// in\n    tag_84:\n        /* \"contracts/ERC721.sol\":1695:1853  interfaceId == type(IERC721).interfaceId ||\r... */\n    tag_83:\n        /* \"contracts/ERC721.sol\":1675:1853  return\r... */\n      swap1\n      pop\n        /* \"contracts/ERC721.sol\":1556:1861  function supportsInterface(bytes4 interfaceId) public view virtual override(ERC165, IERC165) returns (bool) {\r... */\n      swap2\n      swap1\n      pop\n      jump\t// out\n        /* \"contracts/ERC721.sol\":2501:2601  function name() public view virtual override returns (string memory) {\r... */\n    tag_27:\n        /* \"contracts/ERC721.sol\":2555:2568  string memory */\n      0x60\n        /* \"contracts/ERC721.sol\":2588:2593  _name */\n      0x01\n        /* \"contracts/ERC721.sol\":2581:2593  return _name */\n      dup1\n      sload\n      tag_87\n      swap1\n      tag_88\n      jump\t// in\n    tag_87:\n      dup1\n      0x1f\n      add\n      0x20\n      dup1\n      swap2\n      div\n      mul\n      0x20\n      add\n      mload(0x40)\n      swap1\n      dup2\n      add\n      0x40\n      mstore\n      dup1\n      swap3\n      swap2\n      swap1\n      dup2\n      dup2\n      mstore\n      0x20\n      add\n      dup3\n      dup1\n      sload\n      tag_89\n      swap1\n      tag_88\n      jump\t// in\n    tag_89:\n      dup1\n      iszero\n      tag_90\n      jumpi\n      dup1\n      0x1f\n      lt\n      tag_91\n      jumpi\n      0x0100\n      dup1\n      dup4\n      sload\n      div\n      mul\n      dup4\n      mstore\n      swap2\n      0x20\n      add\n      swap2\n      jump(tag_90)\n    tag_91:\n      dup3\n      add\n      swap2\n      swap1\n      0x00\n      mstore\n      keccak256(0x00, 0x20)\n      swap1\n    tag_92:\n      dup2\n      sload\n      dup2\n      mstore\n      swap1\n      0x01\n      add\n      swap1\n      0x20\n      add\n      dup1\n      dup4\n      gt\n      tag_92\n      jumpi\n      dup3\n      swap1\n      sub\n      0x1f\n      and\n      dup3\n      add\n      swap2\n    tag_90:\n      pop\n      pop\n      pop\n      pop\n      pop\n      swap1\n      pop\n        /* \"contracts/ERC721.sol\":2501:2601  function name() public view virtual override returns (string memory) {\r... */\n      swap1\n      jump\t// out\n        /* \"contracts/ERC721.sol\":4079:4300  function getApproved(uint256 tokenId) public view virtual override returns (address) {\r... */\n    tag_33:\n        /* \"contracts/ERC721.sol\":4155:4162  address */\n      0x00\n        /* \"contracts/ERC721.sol\":4183:4199  _exists(tokenId) */\n      tag_94\n        /* \"contracts/ERC721.sol\":4191:4198  tokenId */\n      dup3\n        /* \"contracts/ERC721.sol\":4183:4190  _exists */\n      tag_95\n        /* \"contracts/ERC721.sol\":4183:4199  _exists(tokenId) */\n      jump\t// in\n    tag_94:\n        /* \"contracts/ERC721.sol\":4175:4248  require(_exists(tokenId), \"ERC721: approved query for nonexistent token\") */\n      tag_96\n      jumpi\n      mload(0x40)\n      0x08c379a000000000000000000000000000000000000000000000000000000000\n      dup2\n      mstore\n      0x04\n      add\n      tag_97\n      swap1\n      tag_98\n      jump\t// in\n    tag_97:\n      mload(0x40)\n      dup1\n      swap2\n      sub\n      swap1\n      revert\n    tag_96:\n        /* \"contracts/ERC721.sol\":4268:4283  _tokenApprovals */\n      0x05\n        /* \"contracts/ERC721.sol\":4268:4292  _tokenApprovals[tokenId] */\n      0x00\n        /* \"contracts/ERC721.sol\":4284:4291  tokenId */\n      dup4\n        /* \"contracts/ERC721.sol\":4268:4292  _tokenApprovals[tokenId] */\n      dup2\n      mstore\n      0x20\n      add\n      swap1\n      dup2\n      mstore\n      0x20\n      add\n      0x00\n      keccak256\n      0x00\n      swap1\n      sload\n      swap1\n      0x0100\n      exp\n      swap1\n      div\n      0xffffffffffffffffffffffffffffffffffffffff\n      and\n        /* \"contracts/ERC721.sol\":4261:4292  return _tokenApprovals[tokenId] */\n      swap1\n      pop\n        /* \"contracts/ERC721.sol\":4079:4300  function getApproved(uint256 tokenId) public view virtual override returns (address) {\r... */\n      swap2\n      swap1\n      pop\n      jump\t// out\n        /* \"contracts/ERC721.sol\":3602:4013  function approve(address to, uint256 tokenId) public virtual override {\r... */\n    tag_39:\n        /* \"contracts/ERC721.sol\":3683:3696  address owner */\n      0x00\n        /* \"contracts/ERC721.sol\":3699:3722  ERC721.ownerOf(tokenId) */\n      tag_100\n        /* \"contracts/ERC721.sol\":3714:3721  tokenId */\n      dup3\n        /* \"contracts/ERC721.sol\":3699:3713  ERC721.ownerOf */\n      tag_49\n        /* \"contracts/ERC721.sol\":3699:3722  ERC721.ownerOf(tokenId) */\n      jump\t// in\n    tag_100:\n        /* \"contracts/ERC721.sol\":3683:3722  address owner = ERC721.ownerOf(tokenId) */\n      swap1\n      pop\n        /* \"contracts/ERC721.sol\":3747:3752  owner */\n      dup1\n        /* \"contracts/ERC721.sol\":3741:3752  to != owner */\n      0xffffffffffffffffffffffffffffffffffffffff\n      and\n        /* \"contracts/ERC721.sol\":3741:3743  to */\n      dup4\n        /* \"contracts/ERC721.sol\":3741:3752  to != owner */\n      0xffffffffffffffffffffffffffffffffffffffff\n      and\n      eq\n      iszero\n        /* \"contracts/ERC721.sol\":3733:3790  require(to != owner, \"ERC721: approval to current owner\") */\n      tag_101\n      jumpi\n      mload(0x40)\n      0x08c379a000000000000000000000000000000000000000000000000000000000\n      dup2\n      mstore\n      0x04\n      add\n      tag_102\n      swap1\n      tag_103\n      jump\t// in\n    tag_102:\n      mload(0x40)\n      dup1\n      swap2\n      sub\n      swap1\n      revert\n    tag_101:\n        /* \"contracts/ERC721.sol\":3841:3846  owner */\n      dup1\n        /* \"contracts/ERC721.sol\":3825:3846  _msgSender() == owner */\n      0xffffffffffffffffffffffffffffffffffffffff\n      and\n        /* \"contracts/ERC721.sol\":3825:3837  _msgSender() */\n      tag_104\n        /* \"contracts/ERC721.sol\":3825:3835  _msgSender */\n      tag_105\n        /* \"contracts/ERC721.sol\":3825:3837  _msgSender() */\n      jump\t// in\n    tag_104:\n        /* \"contracts/ERC721.sol\":3825:3846  _msgSender() == owner */\n      0xffffffffffffffffffffffffffffffffffffffff\n      and\n      eq\n        /* \"contracts/ERC721.sol\":3825:3887  _msgSender() == owner || isApprovedForAll(owner, _msgSender()) */\n      dup1\n      tag_106\n      jumpi\n      pop\n        /* \"contracts/ERC721.sol\":3850:3887  isApprovedForAll(owner, _msgSender()) */\n      tag_107\n        /* \"contracts/ERC721.sol\":3867:3872  owner */\n      dup2\n        /* \"contracts/ERC721.sol\":3874:3886  _msgSender() */\n      tag_108\n        /* \"contracts/ERC721.sol\":3874:3884  _msgSender */\n      tag_105\n        /* \"contracts/ERC721.sol\":3874:3886  _msgSender() */\n      jump\t// in\n    tag_108:\n        /* \"contracts/ERC721.sol\":3850:3866  isApprovedForAll */\n      tag_79\n        /* \"contracts/ERC721.sol\":3850:3887  isApprovedForAll(owner, _msgSender()) */\n      jump\t// in\n    tag_107:\n        /* \"contracts/ERC721.sol\":3825:3887  _msgSender() == owner || isApprovedForAll(owner, _msgSender()) */\n    tag_106:\n        /* \"contracts/ERC721.sol\":3803:3971  require(\r... */\n      tag_109\n      jumpi\n      mload(0x40)\n      0x08c379a000000000000000000000000000000000000000000000000000000000\n      dup2\n      mstore\n      0x04\n      add\n      tag_110\n      swap1\n      tag_111\n      jump\t// in\n    tag_110:\n      mload(0x40)\n      dup1\n      swap2\n      sub\n      swap1\n      revert\n    tag_109:\n        /* \"contracts/ERC721.sol\":3984:4005  _approve(to, tokenId) */\n      tag_112\n        /* \"contracts/ERC721.sol\":3993:3995  to */\n      dup4\n        /* \"contracts/ERC721.sol\":3997:4004  tokenId */\n      dup4\n        /* \"contracts/ERC721.sol\":3984:3992  _approve */\n      tag_113\n        /* \"contracts/ERC721.sol\":3984:4005  _approve(to, tokenId) */\n      jump\t// in\n    tag_112:\n        /* \"contracts/ERC721.sol\":3672:4013  {\r... */\n      pop\n        /* \"contracts/ERC721.sol\":3602:4013  function approve(address to, uint256 tokenId) public virtual override {\r... */\n      pop\n      pop\n      jump\t// out\n        /* \"contracts/ERC721.sol\":4829:5168  function transferFrom(\r... */\n    tag_43:\n        /* \"contracts/ERC721.sol\":5024:5065  _isApprovedOrOwner(_msgSender(), tokenId) */\n      tag_115\n        /* \"contracts/ERC721.sol\":5043:5055  _msgSender() */\n      tag_116\n        /* \"contracts/ERC721.sol\":5043:5053  _msgSender */\n      tag_105\n        /* \"contracts/ERC721.sol\":5043:5055  _msgSender() */\n      jump\t// in\n    tag_116:\n        /* \"contracts/ERC721.sol\":5057:5064  tokenId */\n      dup3\n        /* \"contracts/ERC721.sol\":5024:5042  _isApprovedOrOwner */\n      tag_117\n        /* \"contracts/ERC721.sol\":5024:5065  _isApprovedOrOwner(_msgSender(), tokenId) */\n      jump\t// in\n    tag_115:\n        /* \"contracts/ERC721.sol\":5016:5119  require(_isApprovedOrOwner(_msgSender(), tokenId), \"ERC721: transfer caller is not owner nor approved\") */\n      tag_118\n      jumpi\n      mload(0x40)\n      0x08c379a000000000000000000000000000000000000000000000000000000000\n      dup2\n      mstore\n      0x04\n      add\n      tag_119\n      swap1\n      tag_120\n      jump\t// in\n    tag_119:\n      mload(0x40)\n      dup1\n      swap2\n      sub\n      swap1\n      revert\n    tag_118:\n        /* \"contracts/ERC721.sol\":5132:5160  _transfer(from, to, tokenId) */\n      tag_121\n        /* \"contracts/ERC721.sol\":5142:5146  from */\n      dup4\n        /* \"contracts/ERC721.sol\":5148:5150  to */\n      dup4\n        /* \"contracts/ERC721.sol\":5152:5159  tokenId */\n      dup4\n        /* \"contracts/ERC721.sol\":5132:5141  _transfer */\n      tag_122\n        /* \"contracts/ERC721.sol\":5132:5160  _transfer(from, to, tokenId) */\n      jump\t// in\n    tag_121:\n        /* \"contracts/ERC721.sol\":4829:5168  function transferFrom(\r... */\n      pop\n      pop\n      pop\n      jump\t// out\n        /* \"contracts/ERC721.sol\":5239:5424  function safeTransferFrom(\r... */\n    tag_46:\n        /* \"contracts/ERC721.sol\":5377:5416  safeTransferFrom(from, to, tokenId, \"\") */\n      tag_124\n        /* \"contracts/ERC721.sol\":5394:5398  from */\n      dup4\n        /* \"contracts/ERC721.sol\":5400:5402  to */\n      dup4\n        /* \"contracts/ERC721.sol\":5404:5411  tokenId */\n      dup4\n        /* \"contracts/ERC721.sol\":5377:5416  safeTransferFrom(from, to, tokenId, \"\") */\n      mload(0x40)\n      dup1\n      0x20\n      add\n      0x40\n      mstore\n      dup1\n      0x00\n      dup2\n      mstore\n      pop\n        /* \"contracts/ERC721.sol\":5377:5393  safeTransferFrom */\n      tag_71\n        /* \"contracts/ERC721.sol\":5377:5416  safeTransferFrom(from, to, tokenId, \"\") */\n      jump\t// in\n    tag_124:\n        /* \"contracts/ERC721.sol\":5239:5424  function safeTransferFrom(\r... */\n      pop\n      pop\n      pop\n      jump\t// out\n        /* \"contracts/ERC721.sol\":2195:2434  function ownerOf(uint256 tokenId) public view virtual override returns (address) {\r... */\n    tag_49:\n        /* \"contracts/ERC721.sol\":2267:2274  address */\n      0x00\n        /* \"contracts/ERC721.sol\":2287:2300  address owner */\n      dup1\n        /* \"contracts/ERC721.sol\":2303:2310  _owners */\n      0x03\n        /* \"contracts/ERC721.sol\":2303:2319  _owners[tokenId] */\n      0x00\n        /* \"contracts/ERC721.sol\":2311:2318  tokenId */\n      dup5\n        /* \"contracts/ERC721.sol\":2303:2319  _owners[tokenId] */\n      dup2\n      mstore\n      0x20\n      add\n      swap1\n      dup2\n      mstore\n      0x20\n      add\n      0x00\n      keccak256\n      0x00\n      swap1\n      sload\n      swap1\n      0x0100\n      exp\n      swap1\n      div\n      0xffffffffffffffffffffffffffffffffffffffff\n      and\n        /* \"contracts/ERC721.sol\":2287:2319  address owner = _owners[tokenId] */\n      swap1\n      pop\n        /* \"contracts/ERC721.sol\":2355:2356  0 */\n      0x00\n        /* \"contracts/ERC721.sol\":2338:2357  owner != address(0) */\n      0xffffffffffffffffffffffffffffffffffffffff\n      and\n        /* \"contracts/ERC721.sol\":2338:2343  owner */\n      dup2\n        /* \"contracts/ERC721.sol\":2338:2357  owner != address(0) */\n      0xffffffffffffffffffffffffffffffffffffffff\n      and\n      eq\n      iszero\n        /* \"contracts/ERC721.sol\":2330:2403  require(owner != address(0), \"ERC721: owner query for nonexistent token\") */\n      tag_126\n      jumpi\n      mload(0x40)\n      0x08c379a000000000000000000000000000000000000000000000000000000000\n      dup2\n      mstore\n      0x04\n      add\n      tag_127\n      swap1\n      tag_128\n      jump\t// in\n    tag_127:\n      mload(0x40)\n      dup1\n      swap2\n      sub\n      swap1\n      revert\n    tag_126:\n        /* \"contracts/ERC721.sol\":2421:2426  owner */\n      dup1\n        /* \"contracts/ERC721.sol\":2414:2426  return owner */\n      swap2\n      pop\n      pop\n        /* \"contracts/ERC721.sol\":2195:2434  function ownerOf(uint256 tokenId) public view virtual override returns (address) {\r... */\n      swap2\n      swap1\n      pop\n      jump\t// out\n        /* \"contracts/ERC721.sol\":8654:8973  function _safeMint(\r... */\n    tag_54:\n        /* \"contracts/ERC721.sol\":8782:8800  _mint(to, tokenId) */\n      tag_130\n        /* \"contracts/ERC721.sol\":8788:8790  to */\n      dup4\n        /* \"contracts/ERC721.sol\":8792:8799  tokenId */\n      dup4\n        /* \"contracts/ERC721.sol\":8782:8787  _mint */\n      tag_131\n        /* \"contracts/ERC721.sol\":8782:8800  _mint(to, tokenId) */\n      jump\t// in\n    tag_130:\n        /* \"contracts/ERC721.sol\":8833:8887  _checkOnERC721Received(address(0), to, tokenId, _data) */\n      tag_132\n        /* \"contracts/ERC721.sol\":8864:8865  0 */\n      0x00\n        /* \"contracts/ERC721.sol\":8868:8870  to */\n      dup5\n        /* \"contracts/ERC721.sol\":8872:8879  tokenId */\n      dup5\n        /* \"contracts/ERC721.sol\":8881:8886  _data */\n      dup5\n        /* \"contracts/ERC721.sol\":8833:8855  _checkOnERC721Received */\n      tag_133\n        /* \"contracts/ERC721.sol\":8833:8887  _checkOnERC721Received(address(0), to, tokenId, _data) */\n      jump\t// in\n    tag_132:\n        /* \"contracts/ERC721.sol\":8811:8965  require(\r... */\n      tag_134\n      jumpi\n      mload(0x40)\n      0x08c379a000000000000000000000000000000000000000000000000000000000\n      dup2\n      mstore\n      0x04\n      add\n      tag_135\n      swap1\n      tag_136\n      jump\t// in\n    tag_135:\n      mload(0x40)\n      dup1\n      swap2\n      sub\n      swap1\n      revert\n    tag_134:\n        /* \"contracts/ERC721.sol\":8654:8973  function _safeMint(\r... */\n      pop\n      pop\n      pop\n      jump\t// out\n        /* \"contracts/ERC721.sol\":1925:2133  function balanceOf(address owner) public view virtual override returns (uint256) {\r... */\n    tag_58:\n        /* \"contracts/ERC721.sol\":1997:2004  uint256 */\n      0x00\n        /* \"contracts/ERC721.sol\":2042:2043  0 */\n      dup1\n        /* \"contracts/ERC721.sol\":2025:2044  owner != address(0) */\n      0xffffffffffffffffffffffffffffffffffffffff\n      and\n        /* \"contracts/ERC721.sol\":2025:2030  owner */\n      dup3\n        /* \"contracts/ERC721.sol\":2025:2044  owner != address(0) */\n      0xffffffffffffffffffffffffffffffffffffffff\n      and\n      eq\n      iszero\n        /* \"contracts/ERC721.sol\":2017:2091  require(owner != address(0), \"ERC721: balance query for the zero address\") */\n      tag_138\n      jumpi\n      mload(0x40)\n      0x08c379a000000000000000000000000000000000000000000000000000000000\n      dup2\n      mstore\n      0x04\n      add\n      tag_139\n      swap1\n      tag_140\n      jump\t// in\n    tag_139:\n      mload(0x40)\n      dup1\n      swap2\n      sub\n      swap1\n      revert\n    tag_138:\n        /* \"contracts/ERC721.sol\":2109:2118  _balances */\n      0x04\n        /* \"contracts/ERC721.sol\":2109:2125  _balances[owner] */\n      0x00\n        /* \"contracts/ERC721.sol\":2119:2124  owner */\n      dup4\n        /* \"contracts/ERC721.sol\":2109:2125  _balances[owner] */\n      0xffffffffffffffffffffffffffffffffffffffff\n      and\n      0xffffffffffffffffffffffffffffffffffffffff\n      and\n      dup2\n      mstore\n      0x20\n      add\n      swap1\n      dup2\n      mstore\n      0x20\n      add\n      0x00\n      keccak256\n      sload\n        /* \"contracts/ERC721.sol\":2102:2125  return _balances[owner] */\n      swap1\n      pop\n        /* \"contracts/ERC721.sol\":1925:2133  function balanceOf(address owner) public view virtual override returns (uint256) {\r... */\n      swap2\n      swap1\n      pop\n      jump\t// out\n        /* \"contracts/ERC721.sol\":2670:2774  function symbol() public view virtual override returns (string memory) {\r... */\n    tag_62:\n        /* \"contracts/ERC721.sol\":2726:2739  string memory */\n      0x60\n        /* \"contracts/ERC721.sol\":2759:2766  _symbol */\n      0x02\n        /* \"contracts/ERC721.sol\":2752:2766  return _symbol */\n      dup1\n      sload\n      tag_142\n      swap1\n      tag_88\n      jump\t// in\n    tag_142:\n      dup1\n      0x1f\n      add\n      0x20\n      dup1\n      swap2\n      div\n      mul\n      0x20\n      add\n      mload(0x40)\n      swap1\n      dup2\n      add\n      0x40\n      mstore\n      dup1\n      swap3\n      swap2\n      swap1\n      dup2\n      dup2\n      mstore\n      0x20\n      add\n      dup3\n      dup1\n      sload\n      tag_143\n      swap1\n      tag_88\n      jump\t// in\n    tag_143:\n      dup1\n      iszero\n      tag_144\n      jumpi\n      dup1\n      0x1f\n      lt\n      tag_145\n      jumpi\n      0x0100\n      dup1\n      dup4\n      sload\n      div\n      mul\n      dup4\n      mstore\n      swap2\n      0x20\n      add\n      swap2\n      jump(tag_144)\n    tag_145:\n      dup3\n      add\n      swap2\n      swap1\n      0x00\n      mstore\n      keccak256(0x00, 0x20)\n      swap1\n    tag_146:\n      dup2\n      sload\n      dup2\n      mstore\n      swap1\n      0x01\n      add\n      swap1\n      0x20\n      add\n      dup1\n      dup4\n      gt\n      tag_146\n      jumpi\n      dup3\n      swap1\n      sub\n      0x1f\n      and\n      dup3\n      add\n      swap2\n    tag_144:\n      pop\n      pop\n      pop\n      pop\n      pop\n      swap1\n      pop\n        /* \"contracts/ERC721.sol\":2670:2774  function symbol() public view virtual override returns (string memory) {\r... */\n      swap1\n      jump\t// out\n        /* \"contracts/ERC721.sol\":4372:4527  function setApprovalForAll(address operator, bool approved) public virtual override {\r... */\n    tag_67:\n        /* \"contracts/ERC721.sol\":4467:4519  _setApprovalForAll(_msgSender(), operator, approved) */\n      tag_148\n        /* \"contracts/ERC721.sol\":4486:4498  _msgSender() */\n      tag_149\n        /* \"contracts/ERC721.sol\":4486:4496  _msgSender */\n      tag_105\n        /* \"contracts/ERC721.sol\":4486:4498  _msgSender() */\n      jump\t// in\n    tag_149:\n        /* \"contracts/ERC721.sol\":4500:4508  operator */\n      dup4\n        /* \"contracts/ERC721.sol\":4510:4518  approved */\n      dup4\n        /* \"contracts/ERC721.sol\":4467:4485  _setApprovalForAll */\n      tag_150\n        /* \"contracts/ERC721.sol\":4467:4519  _setApprovalForAll(_msgSender(), operator, approved) */\n      jump\t// in\n    tag_148:\n        /* \"contracts/ERC721.sol\":4372:4527  function setApprovalForAll(address operator, bool approved) public virtual override {\r... */\n      pop\n      pop\n      jump\t// out\n        /* \"contracts/ERC721.sol\":5495:5823  function safeTransferFrom(\r... */\n    tag_71:\n        /* \"contracts/ERC721.sol\":5670:5711  _isApprovedOrOwner(_msgSender(), tokenId) */\n      tag_152\n        /* \"contracts/ERC721.sol\":5689:5701  _msgSender() */\n      tag_153\n        /* \"contracts/ERC721.sol\":5689:5699  _msgSender */\n      tag_105\n        /* \"contracts/ERC721.sol\":5689:5701  _msgSender() */\n      jump\t// in\n    tag_153:\n        /* \"contracts/ERC721.sol\":5703:5710  tokenId */\n      dup4\n        /* \"contracts/ERC721.sol\":5670:5688  _isApprovedOrOwner */\n      tag_117\n        /* \"contracts/ERC721.sol\":5670:5711  _isApprovedOrOwner(_msgSender(), tokenId) */\n      jump\t// in\n    tag_152:\n        /* \"contracts/ERC721.sol\":5662:5765  require(_isApprovedOrOwner(_msgSender(), tokenId), \"ERC721: transfer caller is not owner nor approved\") */\n      tag_154\n      jumpi\n      mload(0x40)\n      0x08c379a000000000000000000000000000000000000000000000000000000000\n      dup2\n      mstore\n      0x04\n      add\n      tag_155\n      swap1\n      tag_120\n      jump\t// in\n    tag_155:\n      mload(0x40)\n      dup1\n      swap2\n      sub\n      swap1\n      revert\n    tag_154:\n        /* \"contracts/ERC721.sol\":5776:5815  _safeTransfer(from, to, tokenId, _data) */\n      tag_156\n        /* \"contracts/ERC721.sol\":5790:5794  from */\n      dup5\n        /* \"contracts/ERC721.sol\":5796:5798  to */\n      dup5\n        /* \"contracts/ERC721.sol\":5800:5807  tokenId */\n      dup5\n        /* \"contracts/ERC721.sol\":5809:5814  _data */\n      dup5\n        /* \"contracts/ERC721.sol\":5776:5789  _safeTransfer */\n      tag_157\n        /* \"contracts/ERC721.sol\":5776:5815  _safeTransfer(from, to, tokenId, _data) */\n      jump\t// in\n    tag_156:\n        /* \"contracts/ERC721.sol\":5495:5823  function safeTransferFrom(\r... */\n      pop\n      pop\n      pop\n      pop\n      jump\t// out\n        /* \"contracts/ERC721.sol\":2845:3179  function tokenURI(uint256 tokenId) public view virtual override returns (string memory) {\r... */\n    tag_74:\n        /* \"contracts/ERC721.sol\":2918:2931  string memory */\n      0x60\n        /* \"contracts/ERC721.sol\":2952:2968  _exists(tokenId) */\n      tag_159\n        /* \"contracts/ERC721.sol\":2960:2967  tokenId */\n      dup3\n        /* \"contracts/ERC721.sol\":2952:2959  _exists */\n      tag_95\n        /* \"contracts/ERC721.sol\":2952:2968  _exists(tokenId) */\n      jump\t// in\n    tag_159:\n        /* \"contracts/ERC721.sol\":2944:3020  require(_exists(tokenId), \"ERC721Metadata: URI query for nonexistent token\") */\n      tag_160\n      jumpi\n      mload(0x40)\n      0x08c379a000000000000000000000000000000000000000000000000000000000\n      dup2\n      mstore\n      0x04\n      add\n      tag_161\n      swap1\n      tag_162\n      jump\t// in\n    tag_161:\n      mload(0x40)\n      dup1\n      swap2\n      sub\n      swap1\n      revert\n    tag_160:\n        /* \"contracts/ERC721.sol\":3033:3054  string memory baseURI */\n      0x00\n        /* \"contracts/ERC721.sol\":3057:3067  _baseURI() */\n      tag_163\n        /* \"contracts/ERC721.sol\":3057:3065  _baseURI */\n      tag_164\n        /* \"contracts/ERC721.sol\":3057:3067  _baseURI() */\n      jump\t// in\n    tag_163:\n        /* \"contracts/ERC721.sol\":3033:3067  string memory baseURI = _baseURI() */\n      swap1\n      pop\n        /* \"contracts/ERC721.sol\":3109:3110  0 */\n      0x00\n        /* \"contracts/ERC721.sol\":3091:3098  baseURI */\n      dup2\n        /* \"contracts/ERC721.sol\":3085:3106  bytes(baseURI).length */\n      mload\n        /* \"contracts/ERC721.sol\":3085:3110  bytes(baseURI).length > 0 */\n      gt\n        /* \"contracts/ERC721.sol\":3085:3171  bytes(baseURI).length > 0 ? string(abi.encodePacked(baseURI, tokenId.toString())) : \"\" */\n      tag_165\n      jumpi\n      mload(0x40)\n      dup1\n      0x20\n      add\n      0x40\n      mstore\n      dup1\n      0x00\n      dup2\n      mstore\n      pop\n      jump(tag_166)\n    tag_165:\n        /* \"contracts/ERC721.sol\":3137:3144  baseURI */\n      dup1\n        /* \"contracts/ERC721.sol\":3146:3164  tokenId.toString() */\n      tag_167\n        /* \"contracts/ERC721.sol\":3146:3153  tokenId */\n      dup5\n        /* \"contracts/ERC721.sol\":3146:3162  tokenId.toString */\n      tag_168\n        /* \"contracts/ERC721.sol\":3146:3164  tokenId.toString() */\n      jump\t// in\n    tag_167:\n        /* \"contracts/ERC721.sol\":3120:3165  abi.encodePacked(baseURI, tokenId.toString()) */\n      add(0x20, mload(0x40))\n      tag_169\n      swap3\n      swap2\n      swap1\n      tag_170\n      jump\t// in\n    tag_169:\n      mload(0x40)\n      0x20\n      dup2\n      dup4\n      sub\n      sub\n      dup2\n      mstore\n      swap1\n      0x40\n      mstore\n        /* \"contracts/ERC721.sol\":3085:3171  bytes(baseURI).length > 0 ? string(abi.encodePacked(baseURI, tokenId.toString())) : \"\" */\n    tag_166:\n        /* \"contracts/ERC721.sol\":3078:3171  return bytes(baseURI).length > 0 ? string(abi.encodePacked(baseURI, tokenId.toString())) : \"\" */\n      swap2\n      pop\n      pop\n        /* \"contracts/ERC721.sol\":2845:3179  function tokenURI(uint256 tokenId) public view virtual override returns (string memory) {\r... */\n      swap2\n      swap1\n      pop\n      jump\t// out\n        /* \"contracts/ERC721.sol\":4598:4762  function isApprovedForAll(address owner, address operator) public view virtual override returns (bool) {\r... */\n    tag_79:\n        /* \"contracts/ERC721.sol\":4695:4699  bool */\n      0x00\n        /* \"contracts/ERC721.sol\":4719:4737  _operatorApprovals */\n      0x06\n        /* \"contracts/ERC721.sol\":4719:4744  _operatorApprovals[owner] */\n      0x00\n        /* \"contracts/ERC721.sol\":4738:4743  owner */\n      dup5\n        /* \"contracts/ERC721.sol\":4719:4744  _operatorApprovals[owner] */\n      0xffffffffffffffffffffffffffffffffffffffff\n      and\n      0xffffffffffffffffffffffffffffffffffffffff\n      and\n      dup2\n      mstore\n      0x20\n      add\n      swap1\n      dup2\n      mstore\n      0x20\n      add\n      0x00\n      keccak256\n        /* \"contracts/ERC721.sol\":4719:4754  _operatorApprovals[owner][operator] */\n      0x00\n        /* \"contracts/ERC721.sol\":4745:4753  operator */\n      dup4\n        /* \"contracts/ERC721.sol\":4719:4754  _operatorApprovals[owner][operator] */\n      0xffffffffffffffffffffffffffffffffffffffff\n      and\n      0xffffffffffffffffffffffffffffffffffffffff\n      and\n      dup2\n      mstore\n      0x20\n      add\n      swap1\n      dup2\n      mstore\n      0x20\n      add\n      0x00\n      keccak256\n      0x00\n      swap1\n      sload\n      swap1\n      0x0100\n      exp\n      swap1\n      div\n      0xff\n      and\n        /* \"contracts/ERC721.sol\":4712:4754  return _operatorApprovals[owner][operator] */\n      swap1\n      pop\n        /* \"contracts/ERC721.sol\":4598:4762  function isApprovedForAll(address owner, address operator) public view virtual override returns (bool) {\r... */\n      swap3\n      swap2\n      pop\n      pop\n      jump\t// out\n        /* \"contracts/ERC165.sol\":835:985  function supportsInterface(bytes4 interfaceId) public view virtual override returns (bool) {\r... */\n    tag_85:\n        /* \"contracts/ERC165.sol\":920:924  bool */\n      0x00\n        /* \"contracts/ERC165.sol\":944:964  _supportedInterfaces */\n      dup1\n        /* \"contracts/ERC165.sol\":944:977  _supportedInterfaces[interfaceId] */\n      0x00\n        /* \"contracts/ERC165.sol\":965:976  interfaceId */\n      dup4\n        /* \"contracts/ERC165.sol\":944:977  _supportedInterfaces[interfaceId] */\n      not(0xffffffffffffffffffffffffffffffffffffffffffffffffffffffff)\n      and\n      not(0xffffffffffffffffffffffffffffffffffffffffffffffffffffffff)\n      and\n      dup2\n      mstore\n      0x20\n      add\n      swap1\n      dup2\n      mstore\n      0x20\n      add\n      0x00\n      keccak256\n      0x00\n      swap1\n      sload\n      swap1\n      0x0100\n      exp\n      swap1\n      div\n      0xff\n      and\n        /* \"contracts/ERC165.sol\":937:977  return _supportedInterfaces[interfaceId] */\n      swap1\n      pop\n        /* \"contracts/ERC165.sol\":835:985  function supportsInterface(bytes4 interfaceId) public view virtual override returns (bool) {\r... */\n      swap2\n      swap1\n      pop\n      jump\t// out\n        /* \"contracts/ERC721.sol\":7333:7460  function _exists(uint256 tokenId) internal view virtual returns (bool) {\r... */\n    tag_95:\n        /* \"contracts/ERC721.sol\":7398:7402  bool */\n      0x00\n        /* \"contracts/ERC721.sol\":7450:7451  0 */\n      dup1\n        /* \"contracts/ERC721.sol\":7422:7452  _owners[tokenId] != address(0) */\n      0xffffffffffffffffffffffffffffffffffffffff\n      and\n        /* \"contracts/ERC721.sol\":7422:7429  _owners */\n      0x03\n        /* \"contracts/ERC721.sol\":7422:7438  _owners[tokenId] */\n      0x00\n        /* \"contracts/ERC721.sol\":7430:7437  tokenId */\n      dup5\n        /* \"contracts/ERC721.sol\":7422:7438  _owners[tokenId] */\n      dup2\n      mstore\n      0x20\n      add\n      swap1\n      dup2\n      mstore\n      0x20\n      add\n      0x00\n      keccak256\n      0x00\n      swap1\n      sload\n      swap1\n      0x0100\n      exp\n      swap1\n      div\n      0xffffffffffffffffffffffffffffffffffffffff\n      and\n        /* \"contracts/ERC721.sol\":7422:7452  _owners[tokenId] != address(0) */\n      0xffffffffffffffffffffffffffffffffffffffff\n      and\n      eq\n      iszero\n        /* \"contracts/ERC721.sol\":7415:7452  return _owners[tokenId] != address(0) */\n      swap1\n      pop\n        /* \"contracts/ERC721.sol\":7333:7460  function _exists(uint256 tokenId) internal view virtual returns (bool) {\r... */\n      swap2\n      swap1\n      pop\n      jump\t// out\n        /* \"contracts/Context.sol\":656:754  function _msgSender() internal view virtual returns (address) {\r... */\n    tag_105:\n        /* \"contracts/Context.sol\":709:716  address */\n      0x00\n        /* \"contracts/Context.sol\":736:746  msg.sender */\n      caller\n        /* \"contracts/Context.sol\":729:746  return msg.sender */\n      swap1\n      pop\n        /* \"contracts/Context.sol\":656:754  function _msgSender() internal view virtual returns (address) {\r... */\n      swap1\n      jump\t// out\n        /* \"contracts/ERC721.sol\":11477:11651  function _approve(address to, uint256 tokenId) internal virtual {\r... */\n    tag_113:\n        /* \"contracts/ERC721.sol\":11579:11581  to */\n      dup2\n        /* \"contracts/ERC721.sol\":11552:11567  _tokenApprovals */\n      0x05\n        /* \"contracts/ERC721.sol\":11552:11576  _tokenApprovals[tokenId] */\n      0x00\n        /* \"contracts/ERC721.sol\":11568:11575  tokenId */\n      dup4\n        /* \"contracts/ERC721.sol\":11552:11576  _tokenApprovals[tokenId] */\n      dup2\n      mstore\n      0x20\n      add\n      swap1\n      dup2\n      mstore\n      0x20\n      add\n      0x00\n      keccak256\n      0x00\n        /* \"contracts/ERC721.sol\":11552:11581  _tokenApprovals[tokenId] = to */\n      0x0100\n      exp\n      dup2\n      sload\n      dup2\n      0xffffffffffffffffffffffffffffffffffffffff\n      mul\n      not\n      and\n      swap1\n      dup4\n      0xffffffffffffffffffffffffffffffffffffffff\n      and\n      mul\n      or\n      swap1\n      sstore\n      pop\n        /* \"contracts/ERC721.sol\":11635:11642  tokenId */\n      dup1\n        /* \"contracts/ERC721.sol\":11631:11633  to */\n      dup3\n        /* \"contracts/ERC721.sol\":11597:11643  Approval(ERC721.ownerOf(tokenId), to, tokenId) */\n      0xffffffffffffffffffffffffffffffffffffffff\n      and\n        /* \"contracts/ERC721.sol\":11606:11629  ERC721.ownerOf(tokenId) */\n      tag_176\n        /* \"contracts/ERC721.sol\":11621:11628  tokenId */\n      dup4\n        /* \"contracts/ERC721.sol\":11606:11620  ERC721.ownerOf */\n      tag_49\n        /* \"contracts/ERC721.sol\":11606:11629  ERC721.ownerOf(tokenId) */\n      jump\t// in\n    tag_176:\n        /* \"contracts/ERC721.sol\":11597:11643  Approval(ERC721.ownerOf(tokenId), to, tokenId) */\n      0xffffffffffffffffffffffffffffffffffffffff\n      and\n      0x8c5be1e5ebec7d5bd14f71427d1e84f3dd0314c0f7b2291e5b200ac8c7c3b925\n      mload(0x40)\n      mload(0x40)\n      dup1\n      swap2\n      sub\n      swap1\n      log4\n        /* \"contracts/ERC721.sol\":11477:11651  function _approve(address to, uint256 tokenId) internal virtual {\r... */\n      pop\n      pop\n      jump\t// out\n        /* \"contracts/ERC721.sol\":7627:7975  function _isApprovedOrOwner(address spender, uint256 tokenId) internal view virtual returns (bool) {\r... */\n    tag_117:\n        /* \"contracts/ERC721.sol\":7720:7724  bool */\n      0x00\n        /* \"contracts/ERC721.sol\":7745:7761  _exists(tokenId) */\n      tag_178\n        /* \"contracts/ERC721.sol\":7753:7760  tokenId */\n      dup3\n        /* \"contracts/ERC721.sol\":7745:7752  _exists */\n      tag_95\n        /* \"contracts/ERC721.sol\":7745:7761  _exists(tokenId) */\n      jump\t// in\n    tag_178:\n        /* \"contracts/ERC721.sol\":7737:7810  require(_exists(tokenId), \"ERC721: operator query for nonexistent token\") */\n      tag_179\n      jumpi\n      mload(0x40)\n      0x08c379a000000000000000000000000000000000000000000000000000000000\n      dup2\n      mstore\n      0x04\n      add\n      tag_180\n      swap1\n      tag_181\n      jump\t// in\n    tag_180:\n      mload(0x40)\n      dup1\n      swap2\n      sub\n      swap1\n      revert\n    tag_179:\n        /* \"contracts/ERC721.sol\":7821:7834  address owner */\n      0x00\n        /* \"contracts/ERC721.sol\":7837:7860  ERC721.ownerOf(tokenId) */\n      tag_182\n        /* \"contracts/ERC721.sol\":7852:7859  tokenId */\n      dup4\n        /* \"contracts/ERC721.sol\":7837:7851  ERC721.ownerOf */\n      tag_49\n        /* \"contracts/ERC721.sol\":7837:7860  ERC721.ownerOf(tokenId) */\n      jump\t// in\n    tag_182:\n        /* \"contracts/ERC721.sol\":7821:7860  address owner = ERC721.ownerOf(tokenId) */\n      swap1\n      pop\n        /* \"contracts/ERC721.sol\":7890:7895  owner */\n      dup1\n        /* \"contracts/ERC721.sol\":7879:7895  spender == owner */\n      0xffffffffffffffffffffffffffffffffffffffff\n      and\n        /* \"contracts/ERC721.sol\":7879:7886  spender */\n      dup5\n        /* \"contracts/ERC721.sol\":7879:7895  spender == owner */\n      0xffffffffffffffffffffffffffffffffffffffff\n      and\n      eq\n        /* \"contracts/ERC721.sol\":7879:7931  spender == owner || isApprovedForAll(owner, spender) */\n      dup1\n      tag_183\n      jumpi\n      pop\n        /* \"contracts/ERC721.sol\":7899:7931  isApprovedForAll(owner, spender) */\n      tag_184\n        /* \"contracts/ERC721.sol\":7916:7921  owner */\n      dup2\n        /* \"contracts/ERC721.sol\":7923:7930  spender */\n      dup6\n        /* \"contracts/ERC721.sol\":7899:7915  isApprovedForAll */\n      tag_79\n        /* \"contracts/ERC721.sol\":7899:7931  isApprovedForAll(owner, spender) */\n      jump\t// in\n    tag_184:\n        /* \"contracts/ERC721.sol\":7879:7931  spender == owner || isApprovedForAll(owner, spender) */\n    tag_183:\n        /* \"contracts/ERC721.sol\":7879:7966  spender == owner || isApprovedForAll(owner, spender) || getApproved(tokenId) == spender */\n      dup1\n      tag_185\n      jumpi\n      pop\n        /* \"contracts/ERC721.sol\":7959:7966  spender */\n      dup4\n        /* \"contracts/ERC721.sol\":7935:7966  getApproved(tokenId) == spender */\n      0xffffffffffffffffffffffffffffffffffffffff\n      and\n        /* \"contracts/ERC721.sol\":7935:7955  getApproved(tokenId) */\n      tag_186\n        /* \"contracts/ERC721.sol\":7947:7954  tokenId */\n      dup5\n        /* \"contracts/ERC721.sol\":7935:7946  getApproved */\n      tag_33\n        /* \"contracts/ERC721.sol\":7935:7955  getApproved(tokenId) */\n      jump\t// in\n    tag_186:\n        /* \"contracts/ERC721.sol\":7935:7966  getApproved(tokenId) == spender */\n      0xffffffffffffffffffffffffffffffffffffffff\n      and\n      eq\n        /* \"contracts/ERC721.sol\":7879:7966  spender == owner || isApprovedForAll(owner, spender) || getApproved(tokenId) == spender */\n    tag_185:\n        /* \"contracts/ERC721.sol\":7871:7967  return (spender == owner || isApprovedForAll(owner, spender) || getApproved(tokenId) == spender) */\n      swap2\n      pop\n      pop\n        /* \"contracts/ERC721.sol\":7627:7975  function _isApprovedOrOwner(address spender, uint256 tokenId) internal view virtual returns (bool) {\r... */\n      swap3\n      swap2\n      pop\n      pop\n      jump\t// out\n        /* \"contracts/ERC721.sol\":10734:11359  function _transfer(\r... */\n    tag_122:\n        /* \"contracts/ERC721.sol\":10893:10897  from */\n      dup3\n        /* \"contracts/ERC721.sol\":10866:10897  ERC721.ownerOf(tokenId) == from */\n      0xffffffffffffffffffffffffffffffffffffffff\n      and\n        /* \"contracts/ERC721.sol\":10866:10889  ERC721.ownerOf(tokenId) */\n      tag_188\n        /* \"contracts/ERC721.sol\":10881:10888  tokenId */\n      dup3\n        /* \"contracts/ERC721.sol\":10866:10880  ERC721.ownerOf */\n      tag_49\n        /* \"contracts/ERC721.sol\":10866:10889  ERC721.ownerOf(tokenId) */\n      jump\t// in\n    tag_188:\n        /* \"contracts/ERC721.sol\":10866:10897  ERC721.ownerOf(tokenId) == from */\n      0xffffffffffffffffffffffffffffffffffffffff\n      and\n      eq\n        /* \"contracts/ERC721.sol\":10858:10939  require(ERC721.ownerOf(tokenId) == from, \"ERC721: transfer from incorrect owner\") */\n      tag_189\n      jumpi\n      mload(0x40)\n      0x08c379a000000000000000000000000000000000000000000000000000000000\n      dup2\n      mstore\n      0x04\n      add\n      tag_190\n      swap1\n      tag_191\n      jump\t// in\n    tag_190:\n      mload(0x40)\n      dup1\n      swap2\n      sub\n      swap1\n      revert\n    tag_189:\n        /* \"contracts/ERC721.sol\":10972:10973  0 */\n      0x00\n        /* \"contracts/ERC721.sol\":10958:10974  to != address(0) */\n      0xffffffffffffffffffffffffffffffffffffffff\n      and\n        /* \"contracts/ERC721.sol\":10958:10960  to */\n      dup3\n        /* \"contracts/ERC721.sol\":10958:10974  to != address(0) */\n      0xffffffffffffffffffffffffffffffffffffffff\n      and\n      eq\n      iszero\n        /* \"contracts/ERC721.sol\":10950:11015  require(to != address(0), \"ERC721: transfer to the zero address\") */\n      tag_192\n      jumpi\n      mload(0x40)\n      0x08c379a000000000000000000000000000000000000000000000000000000000\n      dup2\n      mstore\n      0x04\n      add\n      tag_193\n      swap1\n      tag_194\n      jump\t// in\n    tag_193:\n      mload(0x40)\n      dup1\n      swap2\n      sub\n      swap1\n      revert\n    tag_192:\n        /* \"contracts/ERC721.sol\":11028:11067  _beforeTokenTransfer(from, to, tokenId) */\n      tag_195\n        /* \"contracts/ERC721.sol\":11049:11053  from */\n      dup4\n        /* \"contracts/ERC721.sol\":11055:11057  to */\n      dup4\n        /* \"contracts/ERC721.sol\":11059:11066  tokenId */\n      dup4\n        /* \"contracts/ERC721.sol\":11028:11048  _beforeTokenTransfer */\n      tag_196\n        /* \"contracts/ERC721.sol\":11028:11067  _beforeTokenTransfer(from, to, tokenId) */\n      jump\t// in\n    tag_195:\n        /* \"contracts/ERC721.sol\":11132:11161  _approve(address(0), tokenId) */\n      tag_197\n        /* \"contracts/ERC721.sol\":11149:11150  0 */\n      0x00\n        /* \"contracts/ERC721.sol\":11153:11160  tokenId */\n      dup3\n        /* \"contracts/ERC721.sol\":11132:11140  _approve */\n      tag_113\n        /* \"contracts/ERC721.sol\":11132:11161  _approve(address(0), tokenId) */\n      jump\t// in\n    tag_197:\n        /* \"contracts/ERC721.sol\":11193:11194  1 */\n      0x01\n        /* \"contracts/ERC721.sol\":11174:11183  _balances */\n      0x04\n        /* \"contracts/ERC721.sol\":11174:11189  _balances[from] */\n      0x00\n        /* \"contracts/ERC721.sol\":11184:11188  from */\n      dup6\n        /* \"contracts/ERC721.sol\":11174:11189  _balances[from] */\n      0xffffffffffffffffffffffffffffffffffffffff\n      and\n      0xffffffffffffffffffffffffffffffffffffffff\n      and\n      dup2\n      mstore\n      0x20\n      add\n      swap1\n      dup2\n      mstore\n      0x20\n      add\n      0x00\n      keccak256\n      0x00\n        /* \"contracts/ERC721.sol\":11174:11194  _balances[from] -= 1 */\n      dup3\n      dup3\n      sload\n      tag_198\n      swap2\n      swap1\n      tag_199\n      jump\t// in\n    tag_198:\n      swap3\n      pop\n      pop\n      dup2\n      swap1\n      sstore\n      pop\n        /* \"contracts/ERC721.sol\":11222:11223  1 */\n      0x01\n        /* \"contracts/ERC721.sol\":11205:11214  _balances */\n      0x04\n        /* \"contracts/ERC721.sol\":11205:11218  _balances[to] */\n      0x00\n        /* \"contracts/ERC721.sol\":11215:11217  to */\n      dup5\n        /* \"contracts/ERC721.sol\":11205:11218  _balances[to] */\n      0xffffffffffffffffffffffffffffffffffffffff\n      and\n      0xffffffffffffffffffffffffffffffffffffffff\n      and\n      dup2\n      mstore\n      0x20\n      add\n      swap1\n      dup2\n      mstore\n      0x20\n      add\n      0x00\n      keccak256\n      0x00\n        /* \"contracts/ERC721.sol\":11205:11223  _balances[to] += 1 */\n      dup3\n      dup3\n      sload\n      tag_200\n      swap2\n      swap1\n      tag_201\n      jump\t// in\n    tag_200:\n      swap3\n      pop\n      pop\n      dup2\n      swap1\n      sstore\n      pop\n        /* \"contracts/ERC721.sol\":11253:11255  to */\n      dup2\n        /* \"contracts/ERC721.sol\":11234:11241  _owners */\n      0x03\n        /* \"contracts/ERC721.sol\":11234:11250  _owners[tokenId] */\n      0x00\n        /* \"contracts/ERC721.sol\":11242:11249  tokenId */\n      dup4\n        /* \"contracts/ERC721.sol\":11234:11250  _owners[tokenId] */\n      dup2\n      mstore\n      0x20\n      add\n      swap1\n      dup2\n      mstore\n      0x20\n      add\n      0x00\n      keccak256\n      0x00\n        /* \"contracts/ERC721.sol\":11234:11255  _owners[tokenId] = to */\n      0x0100\n      exp\n      dup2\n      sload\n      dup2\n      0xffffffffffffffffffffffffffffffffffffffff\n      mul\n      not\n      and\n      swap1\n      dup4\n      0xffffffffffffffffffffffffffffffffffffffff\n      and\n      mul\n      or\n      swap1\n      sstore\n      pop\n        /* \"contracts/ERC721.sol\":11292:11299  tokenId */\n      dup1\n        /* \"contracts/ERC721.sol\":11288:11290  to */\n      dup3\n        /* \"contracts/ERC721.sol\":11273:11300  Transfer(from, to, tokenId) */\n      0xffffffffffffffffffffffffffffffffffffffff\n      and\n        /* \"contracts/ERC721.sol\":11282:11286  from */\n      dup5\n        /* \"contracts/ERC721.sol\":11273:11300  Transfer(from, to, tokenId) */\n      0xffffffffffffffffffffffffffffffffffffffff\n      and\n      0xddf252ad1be2c89b69c2b068fc378daa952ba7f163c4a11628f55a4df523b3ef\n      mload(0x40)\n      mload(0x40)\n      dup1\n      swap2\n      sub\n      swap1\n      log4\n        /* \"contracts/ERC721.sol\":11313:11351  _afterTokenTransfer(from, to, tokenId) */\n      tag_202\n        /* \"contracts/ERC721.sol\":11333:11337  from */\n      dup4\n        /* \"contracts/ERC721.sol\":11339:11341  to */\n      dup4\n        /* \"contracts/ERC721.sol\":11343:11350  tokenId */\n      dup4\n        /* \"contracts/ERC721.sol\":11313:11332  _afterTokenTransfer */\n      tag_203\n        /* \"contracts/ERC721.sol\":11313:11351  _afterTokenTransfer(from, to, tokenId) */\n      jump\t// in\n    tag_202:\n        /* \"contracts/ERC721.sol\":10734:11359  function _transfer(\r... */\n      pop\n      pop\n      pop\n      jump\t// out\n        /* \"contracts/ERC721.sol\":9309:9748  function _mint(address to, uint256 tokenId) internal virtual {\r... */\n    tag_131:\n        /* \"contracts/ERC721.sol\":9403:9404  0 */\n      0x00\n        /* \"contracts/ERC721.sol\":9389:9405  to != address(0) */\n      0xffffffffffffffffffffffffffffffffffffffff\n      and\n        /* \"contracts/ERC721.sol\":9389:9391  to */\n      dup3\n        /* \"contracts/ERC721.sol\":9389:9405  to != address(0) */\n      0xffffffffffffffffffffffffffffffffffffffff\n      and\n      eq\n      iszero\n        /* \"contracts/ERC721.sol\":9381:9442  require(to != address(0), \"ERC721: mint to the zero address\") */\n      tag_205\n      jumpi\n      mload(0x40)\n      0x08c379a000000000000000000000000000000000000000000000000000000000\n      dup2\n      mstore\n      0x04\n      add\n      tag_206\n      swap1\n      tag_207\n      jump\t// in\n    tag_206:\n      mload(0x40)\n      dup1\n      swap2\n      sub\n      swap1\n      revert\n    tag_205:\n        /* \"contracts/ERC721.sol\":9462:9478  _exists(tokenId) */\n      tag_208\n        /* \"contracts/ERC721.sol\":9470:9477  tokenId */\n      dup2\n        /* \"contracts/ERC721.sol\":9462:9469  _exists */\n      tag_95\n        /* \"contracts/ERC721.sol\":9462:9478  _exists(tokenId) */\n      jump\t// in\n    tag_208:\n        /* \"contracts/ERC721.sol\":9461:9478  !_exists(tokenId) */\n      iszero\n        /* \"contracts/ERC721.sol\":9453:9511  require(!_exists(tokenId), \"ERC721: token already minted\") */\n      tag_209\n      jumpi\n      mload(0x40)\n      0x08c379a000000000000000000000000000000000000000000000000000000000\n      dup2\n      mstore\n      0x04\n      add\n      tag_210\n      swap1\n      tag_211\n      jump\t// in\n    tag_210:\n      mload(0x40)\n      dup1\n      swap2\n      sub\n      swap1\n      revert\n    tag_209:\n        /* \"contracts/ERC721.sol\":9524:9569  _beforeTokenTransfer(address(0), to, tokenId) */\n      tag_212\n        /* \"contracts/ERC721.sol\":9553:9554  0 */\n      0x00\n        /* \"contracts/ERC721.sol\":9557:9559  to */\n      dup4\n        /* \"contracts/ERC721.sol\":9561:9568  tokenId */\n      dup4\n        /* \"contracts/ERC721.sol\":9524:9544  _beforeTokenTransfer */\n      tag_196\n        /* \"contracts/ERC721.sol\":9524:9569  _beforeTokenTransfer(address(0), to, tokenId) */\n      jump\t// in\n    tag_212:\n        /* \"contracts/ERC721.sol\":9599:9600  1 */\n      0x01\n        /* \"contracts/ERC721.sol\":9582:9591  _balances */\n      0x04\n        /* \"contracts/ERC721.sol\":9582:9595  _balances[to] */\n      0x00\n        /* \"contracts/ERC721.sol\":9592:9594  to */\n      dup5\n        /* \"contracts/ERC721.sol\":9582:9595  _balances[to] */\n      0xffffffffffffffffffffffffffffffffffffffff\n      and\n      0xffffffffffffffffffffffffffffffffffffffff\n      and\n      dup2\n      mstore\n      0x20\n      add\n      swap1\n      dup2\n      mstore\n      0x20\n      add\n      0x00\n      keccak256\n      0x00\n        /* \"contracts/ERC721.sol\":9582:9600  _balances[to] += 1 */\n      dup3\n      dup3\n      sload\n      tag_213\n      swap2\n      swap1\n      tag_201\n      jump\t// in\n    tag_213:\n      swap3\n      pop\n      pop\n      dup2\n      swap1\n      sstore\n      pop\n        /* \"contracts/ERC721.sol\":9630:9632  to */\n      dup2\n        /* \"contracts/ERC721.sol\":9611:9618  _owners */\n      0x03\n        /* \"contracts/ERC721.sol\":9611:9627  _owners[tokenId] */\n      0x00\n        /* \"contracts/ERC721.sol\":9619:9626  tokenId */\n      dup4\n        /* \"contracts/ERC721.sol\":9611:9627  _owners[tokenId] */\n      dup2\n      mstore\n      0x20\n      add\n      swap1\n      dup2\n      mstore\n      0x20\n      add\n      0x00\n      keccak256\n      0x00\n        /* \"contracts/ERC721.sol\":9611:9632  _owners[tokenId] = to */\n      0x0100\n      exp\n      dup2\n      sload\n      dup2\n      0xffffffffffffffffffffffffffffffffffffffff\n      mul\n      not\n      and\n      swap1\n      dup4\n      0xffffffffffffffffffffffffffffffffffffffff\n      and\n      mul\n      or\n      swap1\n      sstore\n      pop\n        /* \"contracts/ERC721.sol\":9675:9682  tokenId */\n      dup1\n        /* \"contracts/ERC721.sol\":9671:9673  to */\n      dup3\n        /* \"contracts/ERC721.sol\":9650:9683  Transfer(address(0), to, tokenId) */\n      0xffffffffffffffffffffffffffffffffffffffff\n      and\n        /* \"contracts/ERC721.sol\":9667:9668  0 */\n      0x00\n        /* \"contracts/ERC721.sol\":9650:9683  Transfer(address(0), to, tokenId) */\n      0xffffffffffffffffffffffffffffffffffffffff\n      and\n      0xddf252ad1be2c89b69c2b068fc378daa952ba7f163c4a11628f55a4df523b3ef\n      mload(0x40)\n      mload(0x40)\n      dup1\n      swap2\n      sub\n      swap1\n      log4\n        /* \"contracts/ERC721.sol\":9696:9740  _afterTokenTransfer(address(0), to, tokenId) */\n      tag_214\n        /* \"contracts/ERC721.sol\":9724:9725  0 */\n      0x00\n        /* \"contracts/ERC721.sol\":9728:9730  to */\n      dup4\n        /* \"contracts/ERC721.sol\":9732:9739  tokenId */\n      dup4\n        /* \"contracts/ERC721.sol\":9696:9715  _afterTokenTransfer */\n      tag_203\n        /* \"contracts/ERC721.sol\":9696:9740  _afterTokenTransfer(address(0), to, tokenId) */\n      jump\t// in\n    tag_214:\n        /* \"contracts/ERC721.sol\":9309:9748  function _mint(address to, uint256 tokenId) internal virtual {\r... */\n      pop\n      pop\n      jump\t// out\n        /* \"contracts/ERC721.sol\":12673:13472  function _checkOnERC721Received(\r... */\n    tag_133:\n        /* \"contracts/ERC721.sol\":12828:12832  bool */\n      0x00\n        /* \"contracts/ERC721.sol\":12849:12864  to.isContract() */\n      tag_216\n        /* \"contracts/ERC721.sol\":12849:12851  to */\n      dup5\n        /* \"contracts/ERC721.sol\":12849:12862  to.isContract */\n      0xffffffffffffffffffffffffffffffffffffffff\n      and\n      tag_217\n        /* \"contracts/ERC721.sol\":12849:12864  to.isContract() */\n      jump\t// in\n    tag_216:\n        /* \"contracts/ERC721.sol\":12845:13465  if (to.isContract()) {\r... */\n      iszero\n      tag_218\n      jumpi\n        /* \"contracts/ERC721.sol\":12901:12903  to */\n      dup4\n        /* \"contracts/ERC721.sol\":12885:12921  IERC721Receiver(to).onERC721Received */\n      0xffffffffffffffffffffffffffffffffffffffff\n      and\n      0x150b7a02\n        /* \"contracts/ERC721.sol\":12922:12934  _msgSender() */\n      tag_219\n        /* \"contracts/ERC721.sol\":12922:12932  _msgSender */\n      tag_105\n        /* \"contracts/ERC721.sol\":12922:12934  _msgSender() */\n      jump\t// in\n    tag_219:\n        /* \"contracts/ERC721.sol\":12936:12940  from */\n      dup8\n        /* \"contracts/ERC721.sol\":12942:12949  tokenId */\n      dup7\n        /* \"contracts/ERC721.sol\":12951:12956  _data */\n      dup7\n        /* \"contracts/ERC721.sol\":12885:12957  IERC721Receiver(to).onERC721Received(_msgSender(), from, tokenId, _data) */\n      mload(0x40)\n      dup6\n      0xffffffff\n      and\n      0xe0\n      shl\n      dup2\n      mstore\n      0x04\n      add\n      tag_220\n      swap5\n      swap4\n      swap3\n      swap2\n      swap1\n      tag_221\n      jump\t// in\n    tag_220:\n      0x20\n      mload(0x40)\n      dup1\n      dup4\n      sub\n      dup2\n      0x00\n      dup8\n      dup1\n      extcodesize\n      iszero\n      dup1\n      iszero\n      tag_222\n      jumpi\n      0x00\n      dup1\n      revert\n    tag_222:\n      pop\n      gas\n      call\n      swap3\n      pop\n      pop\n      pop\n      dup1\n      iszero\n      tag_223\n      jumpi\n      pop\n      mload(0x40)\n      returndatasize\n      not(0x1f)\n      0x1f\n      dup3\n      add\n      and\n      dup3\n      add\n      dup1\n      0x40\n      mstore\n      pop\n      dup2\n      add\n      swap1\n      tag_224\n      swap2\n      swap1\n      tag_225\n      jump\t// in\n    tag_224:\n      0x01\n    tag_223:\n        /* \"contracts/ERC721.sol\":12881:13410  try IERC721Receiver(to).onERC721Received(_msgSender(), from, tokenId, _data) returns (bytes4 retval) {\r... */\n      tag_226\n      jumpi\n      returndatasize\n      dup1\n      0x00\n      dup2\n      eq\n      tag_231\n      jumpi\n      mload(0x40)\n      swap2\n      pop\n      and(add(returndatasize, 0x3f), not(0x1f))\n      dup3\n      add\n      0x40\n      mstore\n      returndatasize\n      dup3\n      mstore\n      returndatasize\n      0x00\n      0x20\n      dup5\n      add\n      returndatacopy\n      jump(tag_230)\n    tag_231:\n      0x60\n      swap2\n      pop\n    tag_230:\n      pop\n        /* \"contracts/ERC721.sol\":13144:13145  0 */\n      0x00\n        /* \"contracts/ERC721.sol\":13127:13133  reason */\n      dup2\n        /* \"contracts/ERC721.sol\":13127:13140  reason.length */\n      mload\n        /* \"contracts/ERC721.sol\":13127:13145  reason.length == 0 */\n      eq\n        /* \"contracts/ERC721.sol\":13123:13395  if (reason.length == 0) {\r... */\n      iszero\n      tag_232\n      jumpi\n        /* \"contracts/ERC721.sol\":13170:13230  revert(\"ERC721: transfer to non ERC721Receiver implementer\") */\n      mload(0x40)\n      0x08c379a000000000000000000000000000000000000000000000000000000000\n      dup2\n      mstore\n      0x04\n      add\n      tag_233\n      swap1\n      tag_136\n      jump\t// in\n    tag_233:\n      mload(0x40)\n      dup1\n      swap2\n      sub\n      swap1\n      revert\n        /* \"contracts/ERC721.sol\":13123:13395  if (reason.length == 0) {\r... */\n    tag_232:\n        /* \"contracts/ERC721.sol\":13345:13351  reason */\n      dup1\n        /* \"contracts/ERC721.sol\":13339:13352  mload(reason) */\n      mload\n        /* \"contracts/ERC721.sol\":13330:13336  reason */\n      dup2\n        /* \"contracts/ERC721.sol\":13326:13328  32 */\n      0x20\n        /* \"contracts/ERC721.sol\":13322:13337  add(32, reason) */\n      add\n        /* \"contracts/ERC721.sol\":13315:13353  revert(add(32, reason), mload(reason)) */\n      revert\n        /* \"contracts/ERC721.sol\":12881:13410  try IERC721Receiver(to).onERC721Received(_msgSender(), from, tokenId, _data) returns (bytes4 retval) {\r... */\n    tag_226:\n        /* \"contracts/ERC721.sol\":13018:13059  IERC721Receiver.onERC721Received.selector */\n      shl(0xe0, 0x150b7a02)\n        /* \"contracts/ERC721.sol\":13008:13059  retval == IERC721Receiver.onERC721Received.selector */\n      not(0xffffffffffffffffffffffffffffffffffffffffffffffffffffffff)\n      and\n        /* \"contracts/ERC721.sol\":13008:13014  retval */\n      dup2\n        /* \"contracts/ERC721.sol\":13008:13059  retval == IERC721Receiver.onERC721Received.selector */\n      not(0xffffffffffffffffffffffffffffffffffffffffffffffffffffffff)\n      and\n      eq\n        /* \"contracts/ERC721.sol\":13001:13059  return retval == IERC721Receiver.onERC721Received.selector */\n      swap2\n      pop\n      pop\n      jump(tag_215)\n        /* \"contracts/ERC721.sol\":12845:13465  if (to.isContract()) {\r... */\n    tag_218:\n        /* \"contracts/ERC721.sol\":13449:13453  true */\n      0x01\n        /* \"contracts/ERC721.sol\":13442:13453  return true */\n      swap1\n      pop\n        /* \"contracts/ERC721.sol\":12673:13472  function _checkOnERC721Received(\r... */\n    tag_215:\n      swap5\n      swap4\n      pop\n      pop\n      pop\n      pop\n      jump\t// out\n        /* \"contracts/ERC721.sol\":11793:12108  function _setApprovalForAll(\r... */\n    tag_150:\n        /* \"contracts/ERC721.sol\":11948:11956  operator */\n      dup2\n        /* \"contracts/ERC721.sol\":11939:11956  owner != operator */\n      0xffffffffffffffffffffffffffffffffffffffff\n      and\n        /* \"contracts/ERC721.sol\":11939:11944  owner */\n      dup4\n        /* \"contracts/ERC721.sol\":11939:11956  owner != operator */\n      0xffffffffffffffffffffffffffffffffffffffff\n      and\n      eq\n      iszero\n        /* \"contracts/ERC721.sol\":11931:11986  require(owner != operator, \"ERC721: approve to caller\") */\n      tag_238\n      jumpi\n      mload(0x40)\n      0x08c379a000000000000000000000000000000000000000000000000000000000\n      dup2\n      mstore\n      0x04\n      add\n      tag_239\n      swap1\n      tag_240\n      jump\t// in\n    tag_239:\n      mload(0x40)\n      dup1\n      swap2\n      sub\n      swap1\n      revert\n    tag_238:\n        /* \"contracts/ERC721.sol\":12035:12043  approved */\n      dup1\n        /* \"contracts/ERC721.sol\":11997:12015  _operatorApprovals */\n      0x06\n        /* \"contracts/ERC721.sol\":11997:12022  _operatorApprovals[owner] */\n      0x00\n        /* \"contracts/ERC721.sol\":12016:12021  owner */\n      dup6\n        /* \"contracts/ERC721.sol\":11997:12022  _operatorApprovals[owner] */\n      0xffffffffffffffffffffffffffffffffffffffff\n      and\n      0xffffffffffffffffffffffffffffffffffffffff\n      and\n      dup2\n      mstore\n      0x20\n      add\n      swap1\n      dup2\n      mstore\n      0x20\n      add\n      0x00\n      keccak256\n        /* \"contracts/ERC721.sol\":11997:12032  _operatorApprovals[owner][operator] */\n      0x00\n        /* \"contracts/ERC721.sol\":12023:12031  operator */\n      dup5\n        /* \"contracts/ERC721.sol\":11997:12032  _operatorApprovals[owner][operator] */\n      0xffffffffffffffffffffffffffffffffffffffff\n      and\n      0xffffffffffffffffffffffffffffffffffffffff\n      and\n      dup2\n      mstore\n      0x20\n      add\n      swap1\n      dup2\n      mstore\n      0x20\n      add\n      0x00\n      keccak256\n      0x00\n        /* \"contracts/ERC721.sol\":11997:12043  _operatorApprovals[owner][operator] = approved */\n      0x0100\n      exp\n      dup2\n      sload\n      dup2\n      0xff\n      mul\n      not\n      and\n      swap1\n      dup4\n      iszero\n      iszero\n      mul\n      or\n      swap1\n      sstore\n      pop\n        /* \"contracts/ERC721.sol\":12081:12089  operator */\n      dup2\n        /* \"contracts/ERC721.sol\":12059:12100  ApprovalForAll(owner, operator, approved) */\n      0xffffffffffffffffffffffffffffffffffffffff\n      and\n        /* \"contracts/ERC721.sol\":12074:12079  owner */\n      dup4\n        /* \"contracts/ERC721.sol\":12059:12100  ApprovalForAll(owner, operator, approved) */\n      0xffffffffffffffffffffffffffffffffffffffff\n      and\n      0x17307eab39ab6107e8899845ad3d59bd9653f200f220920489ca2b5937696c31\n        /* \"contracts/ERC721.sol\":12091:12099  approved */\n      dup4\n        /* \"contracts/ERC721.sol\":12059:12100  ApprovalForAll(owner, operator, approved) */\n      mload(0x40)\n      tag_241\n      swap2\n      swap1\n      tag_25\n      jump\t// in\n    tag_241:\n      mload(0x40)\n      dup1\n      swap2\n      sub\n      swap1\n      log3\n        /* \"contracts/ERC721.sol\":11793:12108  function _setApprovalForAll(\r... */\n      pop\n      pop\n      pop\n      jump\t// out\n        /* \"contracts/ERC721.sol\":6705:7020  function _safeTransfer(\r... */\n    tag_157:\n        /* \"contracts/ERC721.sol\":6862:6890  _transfer(from, to, tokenId) */\n      tag_243\n        /* \"contracts/ERC721.sol\":6872:6876  from */\n      dup5\n        /* \"contracts/ERC721.sol\":6878:6880  to */\n      dup5\n        /* \"contracts/ERC721.sol\":6882:6889  tokenId */\n      dup5\n        /* \"contracts/ERC721.sol\":6862:6871  _transfer */\n      tag_122\n        /* \"contracts/ERC721.sol\":6862:6890  _transfer(from, to, tokenId) */\n      jump\t// in\n    tag_243:\n        /* \"contracts/ERC721.sol\":6909:6957  _checkOnERC721Received(from, to, tokenId, _data) */\n      tag_244\n        /* \"contracts/ERC721.sol\":6932:6936  from */\n      dup5\n        /* \"contracts/ERC721.sol\":6938:6940  to */\n      dup5\n        /* \"contracts/ERC721.sol\":6942:6949  tokenId */\n      dup5\n        /* \"contracts/ERC721.sol\":6951:6956  _data */\n      dup5\n        /* \"contracts/ERC721.sol\":6909:6931  _checkOnERC721Received */\n      tag_133\n        /* \"contracts/ERC721.sol\":6909:6957  _checkOnERC721Received(from, to, tokenId, _data) */\n      jump\t// in\n    tag_244:\n        /* \"contracts/ERC721.sol\":6901:7012  require(_checkOnERC721Received(from, to, tokenId, _data), \"ERC721: transfer to non ERC721Receiver implementer\") */\n      tag_245\n      jumpi\n      mload(0x40)\n      0x08c379a000000000000000000000000000000000000000000000000000000000\n      dup2\n      mstore\n      0x04\n      add\n      tag_246\n      swap1\n      tag_136\n      jump\t// in\n    tag_246:\n      mload(0x40)\n      dup1\n      swap2\n      sub\n      swap1\n      revert\n    tag_245:\n        /* \"contracts/ERC721.sol\":6705:7020  function _safeTransfer(\r... */\n      pop\n      pop\n      pop\n      pop\n      jump\t// out\n        /* \"contracts/ERC721.sol\":3428:3540  function _baseURI() internal view virtual returns (string memory) {\r... */\n    tag_164:\n        /* \"contracts/ERC721.sol\":3479:3492  string memory */\n      0x60\n        /* \"contracts/ERC721.sol\":3505:3532  return \"Binance Smart Data\" */\n      mload(0x40)\n      dup1\n      0x40\n      add\n      0x40\n      mstore\n      dup1\n      0x12\n      dup2\n      mstore\n      0x20\n      add\n      0x42696e616e636520536d61727420446174610000000000000000000000000000\n      dup2\n      mstore\n      pop\n      swap1\n      pop\n        /* \"contracts/ERC721.sol\":3428:3540  function _baseURI() internal view virtual returns (string memory) {\r... */\n      swap1\n      jump\t// out\n        /* \"contracts/Strings.sol\":342:1065  function toString(uint256 value) internal pure returns (string memory) {\r... */\n    tag_168:\n        /* \"contracts/Strings.sol\":398:411  string memory */\n      0x60\n        /* \"contracts/Strings.sol\":628:629  0 */\n      0x00\n        /* \"contracts/Strings.sol\":619:624  value */\n      dup3\n        /* \"contracts/Strings.sol\":619:629  value == 0 */\n      eq\n        /* \"contracts/Strings.sol\":615:668  if (value == 0) {\r... */\n      iszero\n      tag_249\n      jumpi\n        /* \"contracts/Strings.sol\":646:656  return \"0\" */\n      mload(0x40)\n      dup1\n      0x40\n      add\n      0x40\n      mstore\n      dup1\n      0x01\n      dup2\n      mstore\n      0x20\n      add\n      0x3000000000000000000000000000000000000000000000000000000000000000\n      dup2\n      mstore\n      pop\n      swap1\n      pop\n      jump(tag_248)\n        /* \"contracts/Strings.sol\":615:668  if (value == 0) {\r... */\n    tag_249:\n        /* \"contracts/Strings.sol\":678:690  uint256 temp */\n      0x00\n        /* \"contracts/Strings.sol\":693:698  value */\n      dup3\n        /* \"contracts/Strings.sol\":678:698  uint256 temp = value */\n      swap1\n      pop\n        /* \"contracts/Strings.sol\":709:723  uint256 digits */\n      0x00\n        /* \"contracts/Strings.sol\":734:812  while (temp != 0) {\r... */\n    tag_250:\n        /* \"contracts/Strings.sol\":749:750  0 */\n      0x00\n        /* \"contracts/Strings.sol\":741:745  temp */\n      dup3\n        /* \"contracts/Strings.sol\":741:750  temp != 0 */\n      eq\n        /* \"contracts/Strings.sol\":734:812  while (temp != 0) {\r... */\n      tag_251\n      jumpi\n        /* \"contracts/Strings.sol\":767:775  digits++ */\n      dup1\n      dup1\n      tag_252\n      swap1\n      tag_253\n      jump\t// in\n    tag_252:\n      swap2\n      pop\n      pop\n        /* \"contracts/Strings.sol\":798:800  10 */\n      0x0a\n        /* \"contracts/Strings.sol\":790:800  temp /= 10 */\n      dup3\n      tag_254\n      swap2\n      swap1\n      tag_255\n      jump\t// in\n    tag_254:\n      swap2\n      pop\n        /* \"contracts/Strings.sol\":734:812  while (temp != 0) {\r... */\n      jump(tag_250)\n    tag_251:\n        /* \"contracts/Strings.sol\":822:841  bytes memory buffer */\n      0x00\n        /* \"contracts/Strings.sol\":854:860  digits */\n      dup2\n        /* \"contracts/Strings.sol\":844:861  new bytes(digits) */\n      0xffffffffffffffff\n      dup2\n      gt\n      iszero\n      tag_256\n      jumpi\n      tag_257\n      tag_258\n      jump\t// in\n    tag_257:\n    tag_256:\n      mload(0x40)\n      swap1\n      dup1\n      dup3\n      mstore\n      dup1\n      0x1f\n      add\n      not(0x1f)\n      and\n      0x20\n      add\n      dup3\n      add\n      0x40\n      mstore\n      dup1\n      iszero\n      tag_259\n      jumpi\n      dup2\n      0x20\n      add\n      0x01\n      dup3\n      mul\n      dup1\n      calldatasize\n      dup4\n      calldatacopy\n      dup1\n      dup3\n      add\n      swap2\n      pop\n      pop\n      swap1\n      pop\n    tag_259:\n      pop\n        /* \"contracts/Strings.sol\":822:861  bytes memory buffer = new bytes(digits) */\n      swap1\n      pop\n        /* \"contracts/Strings.sol\":872:1026  while (value != 0) {\r... */\n    tag_260:\n        /* \"contracts/Strings.sol\":888:889  0 */\n      0x00\n        /* \"contracts/Strings.sol\":879:884  value */\n      dup6\n        /* \"contracts/Strings.sol\":879:889  value != 0 */\n      eq\n        /* \"contracts/Strings.sol\":872:1026  while (value != 0) {\r... */\n      tag_261\n      jumpi\n        /* \"contracts/Strings.sol\":916:917  1 */\n      0x01\n        /* \"contracts/Strings.sol\":906:917  digits -= 1 */\n      dup3\n      tag_262\n      swap2\n      swap1\n      tag_199\n      jump\t// in\n    tag_262:\n      swap2\n      pop\n        /* \"contracts/Strings.sol\":983:985  10 */\n      0x0a\n        /* \"contracts/Strings.sol\":975:980  value */\n      dup6\n        /* \"contracts/Strings.sol\":975:985  value % 10 */\n      tag_263\n      swap2\n      swap1\n      tag_264\n      jump\t// in\n    tag_263:\n        /* \"contracts/Strings.sol\":962:964  48 */\n      0x30\n        /* \"contracts/Strings.sol\":962:986  48 + uint256(value % 10) */\n      tag_265\n      swap2\n      swap1\n      tag_201\n      jump\t// in\n    tag_265:\n        /* \"contracts/Strings.sol\":949:988  bytes1(uint8(48 + uint256(value % 10))) */\n      0xf8\n      shl\n        /* \"contracts/Strings.sol\":932:938  buffer */\n      dup2\n        /* \"contracts/Strings.sol\":939:945  digits */\n      dup4\n        /* \"contracts/Strings.sol\":932:946  buffer[digits] */\n      dup2\n      mload\n      dup2\n      lt\n      tag_266\n      jumpi\n      tag_267\n      tag_268\n      jump\t// in\n    tag_267:\n    tag_266:\n      0x20\n      add\n      add\n        /* \"contracts/Strings.sol\":932:988  buffer[digits] = bytes1(uint8(48 + uint256(value % 10))) */\n      swap1\n      not(0xffffffffffffffffffffffffffffffffffffffffffffffffffffffffffffff)\n      and\n      swap1\n      dup2\n      0x00\n      byte\n      swap1\n      mstore8\n      pop\n        /* \"contracts/Strings.sol\":1012:1014  10 */\n      0x0a\n        /* \"contracts/Strings.sol\":1003:1014  value /= 10 */\n      dup6\n      tag_269\n      swap2\n      swap1\n      tag_255\n      jump\t// in\n    tag_269:\n      swap5\n      pop\n        /* \"contracts/Strings.sol\":872:1026  while (value != 0) {\r... */\n      jump(tag_260)\n    tag_261:\n        /* \"contracts/Strings.sol\":1050:1056  buffer */\n      dup1\n        /* \"contracts/Strings.sol\":1036:1057  return string(buffer) */\n      swap4\n      pop\n      pop\n      pop\n      pop\n        /* \"contracts/Strings.sol\":342:1065  function toString(uint256 value) internal pure returns (string memory) {\r... */\n    tag_248:\n      swap2\n      swap1\n      pop\n      jump\t// out\n        /* \"contracts/ERC721.sol\":14044:14170  function _beforeTokenTransfer(\r... */\n    tag_196:\n      pop\n      pop\n      pop\n      jump\t// out\n        /* \"contracts/ERC721.sol\":14555:14680  function _afterTokenTransfer(\r... */\n    tag_203:\n      pop\n      pop\n      pop\n      jump\t// out\n        /* \"contracts/Address.sol\":1210:1536  function isContract(address account) internal view returns (bool) {\r... */\n    tag_217:\n        /* \"contracts/Address.sol\":1270:1274  bool */\n      0x00\n        /* \"contracts/Address.sol\":1527:1528  0 */\n      dup1\n        /* \"contracts/Address.sol\":1505:1512  account */\n      dup3\n        /* \"contracts/Address.sol\":1505:1524  account.code.length */\n      0xffffffffffffffffffffffffffffffffffffffff\n      and\n      extcodesize\n        /* \"contracts/Address.sol\":1505:1528  account.code.length > 0 */\n      gt\n        /* \"contracts/Address.sol\":1498:1528  return account.code.length > 0 */\n      swap1\n      pop\n        /* \"contracts/Address.sol\":1210:1536  function isContract(address account) internal view returns (bool) {\r... */\n      swap2\n      swap1\n      pop\n      jump\t// out\n        /* \"#utility.yul\":7:417   */\n    tag_274:\n        /* \"#utility.yul\":84:89   */\n      0x00\n        /* \"#utility.yul\":109:174   */\n      tag_276\n        /* \"#utility.yul\":125:173   */\n      tag_277\n        /* \"#utility.yul\":166:172   */\n      dup5\n        /* \"#utility.yul\":125:173   */\n      tag_278\n      jump\t// in\n    tag_277:\n        /* \"#utility.yul\":109:174   */\n      tag_279\n      jump\t// in\n    tag_276:\n        /* \"#utility.yul\":100:174   */\n      swap1\n      pop\n        /* \"#utility.yul\":197:203   */\n      dup3\n        /* \"#utility.yul\":190:195   */\n      dup2\n        /* \"#utility.yul\":183:204   */\n      mstore\n        /* \"#utility.yul\":235:239   */\n      0x20\n        /* \"#utility.yul\":228:233   */\n      dup2\n        /* \"#utility.yul\":224:240   */\n      add\n        /* \"#utility.yul\":273:276   */\n      dup5\n        /* \"#utility.yul\":264:270   */\n      dup5\n        /* \"#utility.yul\":259:262   */\n      dup5\n        /* \"#utility.yul\":255:271   */\n      add\n        /* \"#utility.yul\":252:277   */\n      gt\n        /* \"#utility.yul\":249:361   */\n      iszero\n      tag_280\n      jumpi\n        /* \"#utility.yul\":280:359   */\n      tag_281\n      tag_282\n      jump\t// in\n    tag_281:\n        /* \"#utility.yul\":249:361   */\n    tag_280:\n        /* \"#utility.yul\":370:411   */\n      tag_283\n        /* \"#utility.yul\":404:410   */\n      dup5\n        /* \"#utility.yul\":399:402   */\n      dup3\n        /* \"#utility.yul\":394:397   */\n      dup6\n        /* \"#utility.yul\":370:411   */\n      tag_284\n      jump\t// in\n    tag_283:\n        /* \"#utility.yul\":90:417   */\n      pop\n        /* \"#utility.yul\":7:417   */\n      swap4\n      swap3\n      pop\n      pop\n      pop\n      jump\t// out\n        /* \"#utility.yul\":423:562   */\n    tag_285:\n        /* \"#utility.yul\":469:474   */\n      0x00\n        /* \"#utility.yul\":507:513   */\n      dup2\n        /* \"#utility.yul\":494:514   */\n      calldataload\n        /* \"#utility.yul\":485:514   */\n      swap1\n      pop\n        /* \"#utility.yul\":523:556   */\n      tag_287\n        /* \"#utility.yul\":550:555   */\n      dup2\n        /* \"#utility.yul\":523:556   */\n      tag_288\n      jump\t// in\n    tag_287:\n        /* \"#utility.yul\":423:562   */\n      swap3\n      swap2\n      pop\n      pop\n      jump\t// out\n        /* \"#utility.yul\":568:701   */\n    tag_289:\n        /* \"#utility.yul\":611:616   */\n      0x00\n        /* \"#utility.yul\":649:655   */\n      dup2\n        /* \"#utility.yul\":636:656   */\n      calldataload\n        /* \"#utility.yul\":627:656   */\n      swap1\n      pop\n        /* \"#utility.yul\":665:695   */\n      tag_291\n        /* \"#utility.yul\":689:694   */\n      dup2\n        /* \"#utility.yul\":665:695   */\n      tag_292\n      jump\t// in\n    tag_291:\n        /* \"#utility.yul\":568:701   */\n      swap3\n      swap2\n      pop\n      pop\n      jump\t// out\n        /* \"#utility.yul\":707:844   */\n    tag_293:\n        /* \"#utility.yul\":752:757   */\n      0x00\n        /* \"#utility.yul\":790:796   */\n      dup2\n        /* \"#utility.yul\":777:797   */\n      calldataload\n        /* \"#utility.yul\":768:797   */\n      swap1\n      pop\n        /* \"#utility.yul\":806:838   */\n      tag_295\n        /* \"#utility.yul\":832:837   */\n      dup2\n        /* \"#utility.yul\":806:838   */\n      tag_296\n      jump\t// in\n    tag_295:\n        /* \"#utility.yul\":707:844   */\n      swap3\n      swap2\n      pop\n      pop\n      jump\t// out\n        /* \"#utility.yul\":850:991   */\n    tag_297:\n        /* \"#utility.yul\":906:911   */\n      0x00\n        /* \"#utility.yul\":937:943   */\n      dup2\n        /* \"#utility.yul\":931:944   */\n      mload\n        /* \"#utility.yul\":922:944   */\n      swap1\n      pop\n        /* \"#utility.yul\":953:985   */\n      tag_299\n        /* \"#utility.yul\":979:984   */\n      dup2\n        /* \"#utility.yul\":953:985   */\n      tag_296\n      jump\t// in\n    tag_299:\n        /* \"#utility.yul\":850:991   */\n      swap3\n      swap2\n      pop\n      pop\n      jump\t// out\n        /* \"#utility.yul\":1010:1348   */\n    tag_300:\n        /* \"#utility.yul\":1065:1070   */\n      0x00\n        /* \"#utility.yul\":1114:1117   */\n      dup3\n        /* \"#utility.yul\":1107:1111   */\n      0x1f\n        /* \"#utility.yul\":1099:1105   */\n      dup4\n        /* \"#utility.yul\":1095:1112   */\n      add\n        /* \"#utility.yul\":1091:1118   */\n      slt\n        /* \"#utility.yul\":1081:1203   */\n      tag_302\n      jumpi\n        /* \"#utility.yul\":1122:1201   */\n      tag_303\n      tag_304\n      jump\t// in\n    tag_303:\n        /* \"#utility.yul\":1081:1203   */\n    tag_302:\n        /* \"#utility.yul\":1239:1245   */\n      dup2\n        /* \"#utility.yul\":1226:1246   */\n      calldataload\n        /* \"#utility.yul\":1264:1342   */\n      tag_305\n        /* \"#utility.yul\":1338:1341   */\n      dup5\n        /* \"#utility.yul\":1330:1336   */\n      dup3\n        /* \"#utility.yul\":1323:1327   */\n      0x20\n        /* \"#utility.yul\":1315:1321   */\n      dup7\n        /* \"#utility.yul\":1311:1328   */\n      add\n        /* \"#utility.yul\":1264:1342   */\n      tag_274\n      jump\t// in\n    tag_305:\n        /* \"#utility.yul\":1255:1342   */\n      swap2\n      pop\n        /* \"#utility.yul\":1071:1348   */\n      pop\n        /* \"#utility.yul\":1010:1348   */\n      swap3\n      swap2\n      pop\n      pop\n      jump\t// out\n        /* \"#utility.yul\":1354:1493   */\n    tag_306:\n        /* \"#utility.yul\":1400:1405   */\n      0x00\n        /* \"#utility.yul\":1438:1444   */\n      dup2\n        /* \"#utility.yul\":1425:1445   */\n      calldataload\n        /* \"#utility.yul\":1416:1445   */\n      swap1\n      pop\n        /* \"#utility.yul\":1454:1487   */\n      tag_308\n        /* \"#utility.yul\":1481:1486   */\n      dup2\n        /* \"#utility.yul\":1454:1487   */\n      tag_309\n      jump\t// in\n    tag_308:\n        /* \"#utility.yul\":1354:1493   */\n      swap3\n      swap2\n      pop\n      pop\n      jump\t// out\n        /* \"#utility.yul\":1499:1828   */\n    tag_57:\n        /* \"#utility.yul\":1558:1564   */\n      0x00\n        /* \"#utility.yul\":1607:1609   */\n      0x20\n        /* \"#utility.yul\":1595:1604   */\n      dup3\n        /* \"#utility.yul\":1586:1593   */\n      dup5\n        /* \"#utility.yul\":1582:1605   */\n      sub\n        /* \"#utility.yul\":1578:1610   */\n      slt\n        /* \"#utility.yul\":1575:1694   */\n      iszero\n      tag_311\n      jumpi\n        /* \"#utility.yul\":1613:1692   */\n      tag_312\n      tag_313\n      jump\t// in\n    tag_312:\n        /* \"#utility.yul\":1575:1694   */\n    tag_311:\n        /* \"#utility.yul\":1733:1734   */\n      0x00\n        /* \"#utility.yul\":1758:1811   */\n      tag_314\n        /* \"#utility.yul\":1803:1810   */\n      dup5\n        /* \"#utility.yul\":1794:1800   */\n      dup3\n        /* \"#utility.yul\":1783:1792   */\n      dup6\n        /* \"#utility.yul\":1779:1801   */\n      add\n        /* \"#utility.yul\":1758:1811   */\n      tag_285\n      jump\t// in\n    tag_314:\n        /* \"#utility.yul\":1748:1811   */\n      swap2\n      pop\n        /* \"#utility.yul\":1704:1821   */\n      pop\n        /* \"#utility.yul\":1499:1828   */\n      swap3\n      swap2\n      pop\n      pop\n      jump\t// out\n        /* \"#utility.yul\":1834:2308   */\n    tag_78:\n        /* \"#utility.yul\":1902:1908   */\n      0x00\n        /* \"#utility.yul\":1910:1916   */\n      dup1\n        /* \"#utility.yul\":1959:1961   */\n      0x40\n        /* \"#utility.yul\":1947:1956   */\n      dup4\n        /* \"#utility.yul\":1938:1945   */\n      dup6\n        /* \"#utility.yul\":1934:1957   */\n      sub\n        /* \"#utility.yul\":1930:1962   */\n      slt\n        /* \"#utility.yul\":1927:2046   */\n      iszero\n      tag_316\n      jumpi\n        /* \"#utility.yul\":1965:2044   */\n      tag_317\n      tag_313\n      jump\t// in\n    tag_317:\n        /* \"#utility.yul\":1927:2046   */\n    tag_316:\n        /* \"#utility.yul\":2085:2086   */\n      0x00\n        /* \"#utility.yul\":2110:2163   */\n      tag_318\n        /* \"#utility.yul\":2155:2162   */\n      dup6\n        /* \"#utility.yul\":2146:2152   */\n      dup3\n        /* \"#utility.yul\":2135:2144   */\n      dup7\n        /* \"#utility.yul\":2131:2153   */\n      add\n        /* \"#utility.yul\":2110:2163   */\n      tag_285\n      jump\t// in\n    tag_318:\n        /* \"#utility.yul\":2100:2163   */\n      swap3\n      pop\n        /* \"#utility.yul\":2056:2173   */\n      pop\n        /* \"#utility.yul\":2212:2214   */\n      0x20\n        /* \"#utility.yul\":2238:2291   */\n      tag_319\n        /* \"#utility.yul\":2283:2290   */\n      dup6\n        /* \"#utility.yul\":2274:2280   */\n      dup3\n        /* \"#utility.yul\":2263:2272   */\n      dup7\n        /* \"#utility.yul\":2259:2281   */\n      add\n        /* \"#utility.yul\":2238:2291   */\n      tag_285\n      jump\t// in\n    tag_319:\n        /* \"#utility.yul\":2228:2291   */\n      swap2\n      pop\n        /* \"#utility.yul\":2183:2301   */\n      pop\n        /* \"#utility.yul\":1834:2308   */\n      swap3\n      pop\n      swap3\n      swap1\n      pop\n      jump\t// out\n        /* \"#utility.yul\":2314:2933   */\n    tag_42:\n        /* \"#utility.yul\":2391:2397   */\n      0x00\n        /* \"#utility.yul\":2399:2405   */\n      dup1\n        /* \"#utility.yul\":2407:2413   */\n      0x00\n        /* \"#utility.yul\":2456:2458   */\n      0x60\n        /* \"#utility.yul\":2444:2453   */\n      dup5\n        /* \"#utility.yul\":2435:2442   */\n      dup7\n        /* \"#utility.yul\":2431:2454   */\n      sub\n        /* \"#utility.yul\":2427:2459   */\n      slt\n        /* \"#utility.yul\":2424:2543   */\n      iszero\n      tag_321\n      jumpi\n        /* \"#utility.yul\":2462:2541   */\n      tag_322\n      tag_313\n      jump\t// in\n    tag_322:\n        /* \"#utility.yul\":2424:2543   */\n    tag_321:\n        /* \"#utility.yul\":2582:2583   */\n      0x00\n        /* \"#utility.yul\":2607:2660   */\n      tag_323\n        /* \"#utility.yul\":2652:2659   */\n      dup7\n        /* \"#utility.yul\":2643:2649   */\n      dup3\n        /* \"#utility.yul\":2632:2641   */\n      dup8\n        /* \"#utility.yul\":2628:2650   */\n      add\n        /* \"#utility.yul\":2607:2660   */\n      tag_285\n      jump\t// in\n    tag_323:\n        /* \"#utility.yul\":2597:2660   */\n      swap4\n      pop\n        /* \"#utility.yul\":2553:2670   */\n      pop\n        /* \"#utility.yul\":2709:2711   */\n      0x20\n        /* \"#utility.yul\":2735:2788   */\n      tag_324\n        /* \"#utility.yul\":2780:2787   */\n      dup7\n        /* \"#utility.yul\":2771:2777   */\n      dup3\n        /* \"#utility.yul\":2760:2769   */\n      dup8\n        /* \"#utility.yul\":2756:2778   */\n      add\n        /* \"#utility.yul\":2735:2788   */\n      tag_285\n      jump\t// in\n    tag_324:\n        /* \"#utility.yul\":2725:2788   */\n      swap3\n      pop\n        /* \"#utility.yul\":2680:2798   */\n      pop\n        /* \"#utility.yul\":2837:2839   */\n      0x40\n        /* \"#utility.yul\":2863:2916   */\n      tag_325\n        /* \"#utility.yul\":2908:2915   */\n      dup7\n        /* \"#utility.yul\":2899:2905   */\n      dup3\n        /* \"#utility.yul\":2888:2897   */\n      dup8\n        /* \"#utility.yul\":2884:2906   */\n      add\n        /* \"#utility.yul\":2863:2916   */\n      tag_306\n      jump\t// in\n    tag_325:\n        /* \"#utility.yul\":2853:2916   */\n      swap2\n      pop\n        /* \"#utility.yul\":2808:2926   */\n      pop\n        /* \"#utility.yul\":2314:2933   */\n      swap3\n      pop\n      swap3\n      pop\n      swap3\n      jump\t// out\n        /* \"#utility.yul\":2939:3882   */\n    tag_70:\n        /* \"#utility.yul\":3034:3040   */\n      0x00\n        /* \"#utility.yul\":3042:3048   */\n      dup1\n        /* \"#utility.yul\":3050:3056   */\n      0x00\n        /* \"#utility.yul\":3058:3064   */\n      dup1\n        /* \"#utility.yul\":3107:3110   */\n      0x80\n        /* \"#utility.yul\":3095:3104   */\n      dup6\n        /* \"#utility.yul\":3086:3093   */\n      dup8\n        /* \"#utility.yul\":3082:3105   */\n      sub\n        /* \"#utility.yul\":3078:3111   */\n      slt\n        /* \"#utility.yul\":3075:3195   */\n      iszero\n      tag_327\n      jumpi\n        /* \"#utility.yul\":3114:3193   */\n      tag_328\n      tag_313\n      jump\t// in\n    tag_328:\n        /* \"#utility.yul\":3075:3195   */\n    tag_327:\n        /* \"#utility.yul\":3234:3235   */\n      0x00\n        /* \"#utility.yul\":3259:3312   */\n      tag_329\n        /* \"#utility.yul\":3304:3311   */\n      dup8\n        /* \"#utility.yul\":3295:3301   */\n      dup3\n        /* \"#utility.yul\":3284:3293   */\n      dup9\n        /* \"#utility.yul\":3280:3302   */\n      add\n        /* \"#utility.yul\":3259:3312   */\n      tag_285\n      jump\t// in\n    tag_329:\n        /* \"#utility.yul\":3249:3312   */\n      swap5\n      pop\n        /* \"#utility.yul\":3205:3322   */\n      pop\n        /* \"#utility.yul\":3361:3363   */\n      0x20\n        /* \"#utility.yul\":3387:3440   */\n      tag_330\n        /* \"#utility.yul\":3432:3439   */\n      dup8\n        /* \"#utility.yul\":3423:3429   */\n      dup3\n        /* \"#utility.yul\":3412:3421   */\n      dup9\n        /* \"#utility.yul\":3408:3430   */\n      add\n        /* \"#utility.yul\":3387:3440   */\n      tag_285\n      jump\t// in\n    tag_330:\n        /* \"#utility.yul\":3377:3440   */\n      swap4\n      pop\n        /* \"#utility.yul\":3332:3450   */\n      pop\n        /* \"#utility.yul\":3489:3491   */\n      0x40\n        /* \"#utility.yul\":3515:3568   */\n      tag_331\n        /* \"#utility.yul\":3560:3567   */\n      dup8\n        /* \"#utility.yul\":3551:3557   */\n      dup3\n        /* \"#utility.yul\":3540:3549   */\n      dup9\n        /* \"#utility.yul\":3536:3558   */\n      add\n        /* \"#utility.yul\":3515:3568   */\n      tag_306\n      jump\t// in\n    tag_331:\n        /* \"#utility.yul\":3505:3568   */\n      swap3\n      pop\n        /* \"#utility.yul\":3460:3578   */\n      pop\n        /* \"#utility.yul\":3645:3647   */\n      0x60\n        /* \"#utility.yul\":3634:3643   */\n      dup6\n        /* \"#utility.yul\":3630:3648   */\n      add\n        /* \"#utility.yul\":3617:3649   */\n      calldataload\n        /* \"#utility.yul\":3676:3694   */\n      0xffffffffffffffff\n        /* \"#utility.yul\":3668:3674   */\n      dup2\n        /* \"#utility.yul\":3665:3695   */\n      gt\n        /* \"#utility.yul\":3662:3779   */\n      iszero\n      tag_332\n      jumpi\n        /* \"#utility.yul\":3698:3777   */\n      tag_333\n      tag_334\n      jump\t// in\n    tag_333:\n        /* \"#utility.yul\":3662:3779   */\n    tag_332:\n        /* \"#utility.yul\":3803:3865   */\n      tag_335\n        /* \"#utility.yul\":3857:3864   */\n      dup8\n        /* \"#utility.yul\":3848:3854   */\n      dup3\n        /* \"#utility.yul\":3837:3846   */\n      dup9\n        /* \"#utility.yul\":3833:3855   */\n      add\n        /* \"#utility.yul\":3803:3865   */\n      tag_300\n      jump\t// in\n    tag_335:\n        /* \"#utility.yul\":3793:3865   */\n      swap2\n      pop\n        /* \"#utility.yul\":3588:3875   */\n      pop\n        /* \"#utility.yul\":2939:3882   */\n      swap3\n      swap6\n      swap2\n      swap5\n      pop\n      swap3\n      pop\n      jump\t// out\n        /* \"#utility.yul\":3888:4356   */\n    tag_66:\n        /* \"#utility.yul\":3953:3959   */\n      0x00\n        /* \"#utility.yul\":3961:3967   */\n      dup1\n        /* \"#utility.yul\":4010:4012   */\n      0x40\n        /* \"#utility.yul\":3998:4007   */\n      dup4\n        /* \"#utility.yul\":3989:3996   */\n      dup6\n        /* \"#utility.yul\":3985:4008   */\n      sub\n        /* \"#utility.yul\":3981:4013   */\n      slt\n        /* \"#utility.yul\":3978:4097   */\n      iszero\n      tag_337\n      jumpi\n        /* \"#utility.yul\":4016:4095   */\n      tag_338\n      tag_313\n      jump\t// in\n    tag_338:\n        /* \"#utility.yul\":3978:4097   */\n    tag_337:\n        /* \"#utility.yul\":4136:4137   */\n      0x00\n        /* \"#utility.yul\":4161:4214   */\n      tag_339\n        /* \"#utility.yul\":4206:4213   */\n      dup6\n        /* \"#utility.yul\":4197:4203   */\n      dup3\n        /* \"#utility.yul\":4186:4195   */\n      dup7\n        /* \"#utility.yul\":4182:4204   */\n      add\n        /* \"#utility.yul\":4161:4214   */\n      tag_285\n      jump\t// in\n    tag_339:\n        /* \"#utility.yul\":4151:4214   */\n      swap3\n      pop\n        /* \"#utility.yul\":4107:4224   */\n      pop\n        /* \"#utility.yul\":4263:4265   */\n      0x20\n        /* \"#utility.yul\":4289:4339   */\n      tag_340\n        /* \"#utility.yul\":4331:4338   */\n      dup6\n        /* \"#utility.yul\":4322:4328   */\n      dup3\n        /* \"#utility.yul\":4311:4320   */\n      dup7\n        /* \"#utility.yul\":4307:4329   */\n      add\n        /* \"#utility.yul\":4289:4339   */\n      tag_289\n      jump\t// in\n    tag_340:\n        /* \"#utility.yul\":4279:4339   */\n      swap2\n      pop\n        /* \"#utility.yul\":4234:4349   */\n      pop\n        /* \"#utility.yul\":3888:4356   */\n      swap3\n      pop\n      swap3\n      swap1\n      pop\n      jump\t// out\n        /* \"#utility.yul\":4362:4836   */\n    tag_38:\n        /* \"#utility.yul\":4430:4436   */\n      0x00\n        /* \"#utility.yul\":4438:4444   */\n      dup1\n        /* \"#utility.yul\":4487:4489   */\n      0x40\n        /* \"#utility.yul\":4475:4484   */\n      dup4\n        /* \"#utility.yul\":4466:4473   */\n      dup6\n        /* \"#utility.yul\":4462:4485   */\n      sub\n        /* \"#utility.yul\":4458:4490   */\n      slt\n        /* \"#utility.yul\":4455:4574   */\n      iszero\n      tag_342\n      jumpi\n        /* \"#utility.yul\":4493:4572   */\n      tag_343\n      tag_313\n      jump\t// in\n    tag_343:\n        /* \"#utility.yul\":4455:4574   */\n    tag_342:\n        /* \"#utility.yul\":4613:4614   */\n      0x00\n        /* \"#utility.yul\":4638:4691   */\n      tag_344\n        /* \"#utility.yul\":4683:4690   */\n      dup6\n        /* \"#utility.yul\":4674:4680   */\n      dup3\n        /* \"#utility.yul\":4663:4672   */\n      dup7\n        /* \"#utility.yul\":4659:4681   */\n      add\n        /* \"#utility.yul\":4638:4691   */\n      tag_285\n      jump\t// in\n    tag_344:\n        /* \"#utility.yul\":4628:4691   */\n      swap3\n      pop\n        /* \"#utility.yul\":4584:4701   */\n      pop\n        /* \"#utility.yul\":4740:4742   */\n      0x20\n        /* \"#utility.yul\":4766:4819   */\n      tag_345\n        /* \"#utility.yul\":4811:4818   */\n      dup6\n        /* \"#utility.yul\":4802:4808   */\n      dup3\n        /* \"#utility.yul\":4791:4800   */\n      dup7\n        /* \"#utility.yul\":4787:4809   */\n      add\n        /* \"#utility.yul\":4766:4819   */\n      tag_306\n      jump\t// in\n    tag_345:\n        /* \"#utility.yul\":4756:4819   */\n      swap2\n      pop\n        /* \"#utility.yul\":4711:4829   */\n      pop\n        /* \"#utility.yul\":4362:4836   */\n      swap3\n      pop\n      swap3\n      swap1\n      pop\n      jump\t// out\n        /* \"#utility.yul\":4842:5639   */\n    tag_53:\n        /* \"#utility.yul\":4928:4934   */\n      0x00\n        /* \"#utility.yul\":4936:4942   */\n      dup1\n        /* \"#utility.yul\":4944:4950   */\n      0x00\n        /* \"#utility.yul\":4993:4995   */\n      0x60\n        /* \"#utility.yul\":4981:4990   */\n      dup5\n        /* \"#utility.yul\":4972:4979   */\n      dup7\n        /* \"#utility.yul\":4968:4991   */\n      sub\n        /* \"#utility.yul\":4964:4996   */\n      slt\n        /* \"#utility.yul\":4961:5080   */\n      iszero\n      tag_347\n      jumpi\n        /* \"#utility.yul\":4999:5078   */\n      tag_348\n      tag_313\n      jump\t// in\n    tag_348:\n        /* \"#utility.yul\":4961:5080   */\n    tag_347:\n        /* \"#utility.yul\":5119:5120   */\n      0x00\n        /* \"#utility.yul\":5144:5197   */\n      tag_349\n        /* \"#utility.yul\":5189:5196   */\n      dup7\n        /* \"#utility.yul\":5180:5186   */\n      dup3\n        /* \"#utility.yul\":5169:5178   */\n      dup8\n        /* \"#utility.yul\":5165:5187   */\n      add\n        /* \"#utility.yul\":5144:5197   */\n      tag_285\n      jump\t// in\n    tag_349:\n        /* \"#utility.yul\":5134:5197   */\n      swap4\n      pop\n        /* \"#utility.yul\":5090:5207   */\n      pop\n        /* \"#utility.yul\":5246:5248   */\n      0x20\n        /* \"#utility.yul\":5272:5325   */\n      tag_350\n        /* \"#utility.yul\":5317:5324   */\n      dup7\n        /* \"#utility.yul\":5308:5314   */\n      dup3\n        /* \"#utility.yul\":5297:5306   */\n      dup8\n        /* \"#utility.yul\":5293:5315   */\n      add\n        /* \"#utility.yul\":5272:5325   */\n      tag_306\n      jump\t// in\n    tag_350:\n        /* \"#utility.yul\":5262:5325   */\n      swap3\n      pop\n        /* \"#utility.yul\":5217:5335   */\n      pop\n        /* \"#utility.yul\":5402:5404   */\n      0x40\n        /* \"#utility.yul\":5391:5400   */\n      dup5\n        /* \"#utility.yul\":5387:5405   */\n      add\n        /* \"#utility.yul\":5374:5406   */\n      calldataload\n        /* \"#utility.yul\":5433:5451   */\n      0xffffffffffffffff\n        /* \"#utility.yul\":5425:5431   */\n      dup2\n        /* \"#utility.yul\":5422:5452   */\n      gt\n        /* \"#utility.yul\":5419:5536   */\n      iszero\n      tag_351\n      jumpi\n        /* \"#utility.yul\":5455:5534   */\n      tag_352\n      tag_334\n      jump\t// in\n    tag_352:\n        /* \"#utility.yul\":5419:5536   */\n    tag_351:\n        /* \"#utility.yul\":5560:5622   */\n      tag_353\n        /* \"#utility.yul\":5614:5621   */\n      dup7\n        /* \"#utility.yul\":5605:5611   */\n      dup3\n        /* \"#utility.yul\":5594:5603   */\n      dup8\n        /* \"#utility.yul\":5590:5612   */\n      add\n        /* \"#utility.yul\":5560:5622   */\n      tag_300\n      jump\t// in\n    tag_353:\n        /* \"#utility.yul\":5550:5622   */\n      swap2\n      pop\n        /* \"#utility.yul\":5345:5632   */\n      pop\n        /* \"#utility.yul\":4842:5639   */\n      swap3\n      pop\n      swap3\n      pop\n      swap3\n      jump\t// out\n        /* \"#utility.yul\":5645:5972   */\n    tag_22:\n        /* \"#utility.yul\":5703:5709   */\n      0x00\n        /* \"#utility.yul\":5752:5754   */\n      0x20\n        /* \"#utility.yul\":5740:5749   */\n      dup3\n        /* \"#utility.yul\":5731:5738   */\n      dup5\n        /* \"#utility.yul\":5727:5750   */\n      sub\n        /* \"#utility.yul\":5723:5755   */\n      slt\n        /* \"#utility.yul\":5720:5839   */\n      iszero\n      tag_355\n      jumpi\n        /* \"#utility.yul\":5758:5837   */\n      tag_356\n      tag_313\n      jump\t// in\n    tag_356:\n        /* \"#utility.yul\":5720:5839   */\n    tag_355:\n        /* \"#utility.yul\":5878:5879   */\n      0x00\n        /* \"#utility.yul\":5903:5955   */\n      tag_357\n        /* \"#utility.yul\":5947:5954   */\n      dup5\n        /* \"#utility.yul\":5938:5944   */\n      dup3\n        /* \"#utility.yul\":5927:5936   */\n      dup6\n        /* \"#utility.yul\":5923:5945   */\n      add\n        /* \"#utility.yul\":5903:5955   */\n      tag_293\n      jump\t// in\n    tag_357:\n        /* \"#utility.yul\":5893:5955   */\n      swap2\n      pop\n        /* \"#utility.yul\":5849:5965   */\n      pop\n        /* \"#utility.yul\":5645:5972   */\n      swap3\n      swap2\n      pop\n      pop\n      jump\t// out\n        /* \"#utility.yul\":5978:6327   */\n    tag_225:\n        /* \"#utility.yul\":6047:6053   */\n      0x00\n        /* \"#utility.yul\":6096:6098   */\n      0x20\n        /* \"#utility.yul\":6084:6093   */\n      dup3\n        /* \"#utility.yul\":6075:6082   */\n      dup5\n        /* \"#utility.yul\":6071:6094   */\n      sub\n        /* \"#utility.yul\":6067:6099   */\n      slt\n        /* \"#utility.yul\":6064:6183   */\n      iszero\n      tag_359\n      jumpi\n        /* \"#utility.yul\":6102:6181   */\n      tag_360\n      tag_313\n      jump\t// in\n    tag_360:\n        /* \"#utility.yul\":6064:6183   */\n    tag_359:\n        /* \"#utility.yul\":6222:6223   */\n      0x00\n        /* \"#utility.yul\":6247:6310   */\n      tag_361\n        /* \"#utility.yul\":6302:6309   */\n      dup5\n        /* \"#utility.yul\":6293:6299   */\n      dup3\n        /* \"#utility.yul\":6282:6291   */\n      dup6\n        /* \"#utility.yul\":6278:6300   */\n      add\n        /* \"#utility.yul\":6247:6310   */\n      tag_297\n      jump\t// in\n    tag_361:\n        /* \"#utility.yul\":6237:6310   */\n      swap2\n      pop\n        /* \"#utility.yul\":6193:6320   */\n      pop\n        /* \"#utility.yul\":5978:6327   */\n      swap3\n      swap2\n      pop\n      pop\n      jump\t// out\n        /* \"#utility.yul\":6333:6662   */\n    tag_32:\n        /* \"#utility.yul\":6392:6398   */\n      0x00\n        /* \"#utility.yul\":6441:6443   */\n      0x20\n        /* \"#utility.yul\":6429:6438   */\n      dup3\n        /* \"#utility.yul\":6420:6427   */\n      dup5\n        /* \"#utility.yul\":6416:6439   */\n      sub\n        /* \"#utility.yul\":6412:6444   */\n      slt\n        /* \"#utility.yul\":6409:6528   */\n      iszero\n      tag_363\n      jumpi\n        /* \"#utility.yul\":6447:6526   */\n      tag_364\n      tag_313\n      jump\t// in\n    tag_364:\n        /* \"#utility.yul\":6409:6528   */\n    tag_363:\n        /* \"#utility.yul\":6567:6568   */\n      0x00\n        /* \"#utility.yul\":6592:6645   */\n      tag_365\n        /* \"#utility.yul\":6637:6644   */\n      dup5\n        /* \"#utility.yul\":6628:6634   */\n      dup3\n        /* \"#utility.yul\":6617:6626   */\n      dup6\n        /* \"#utility.yul\":6613:6635   */\n      add\n        /* \"#utility.yul\":6592:6645   */\n      tag_306\n      jump\t// in\n    tag_365:\n        /* \"#utility.yul\":6582:6645   */\n      swap2\n      pop\n        /* \"#utility.yul\":6538:6655   */\n      pop\n        /* \"#utility.yul\":6333:6662   */\n      swap3\n      swap2\n      pop\n      pop\n      jump\t// out\n        /* \"#utility.yul\":6668:6786   */\n    tag_366:\n        /* \"#utility.yul\":6755:6779   */\n      tag_368\n        /* \"#utility.yul\":6773:6778   */\n      dup2\n        /* \"#utility.yul\":6755:6779   */\n      tag_369\n      jump\t// in\n    tag_368:\n        /* \"#utility.yul\":6750:6753   */\n      dup3\n        /* \"#utility.yul\":6743:6780   */\n      mstore\n        /* \"#utility.yul\":6668:6786   */\n      pop\n      pop\n      jump\t// out\n        /* \"#utility.yul\":6792:6901   */\n    tag_370:\n        /* \"#utility.yul\":6873:6894   */\n      tag_372\n        /* \"#utility.yul\":6888:6893   */\n      dup2\n        /* \"#utility.yul\":6873:6894   */\n      tag_373\n      jump\t// in\n    tag_372:\n        /* \"#utility.yul\":6868:6871   */\n      dup3\n        /* \"#utility.yul\":6861:6895   */\n      mstore\n        /* \"#utility.yul\":6792:6901   */\n      pop\n      pop\n      jump\t// out\n        /* \"#utility.yul\":6907:7267   */\n    tag_374:\n        /* \"#utility.yul\":6993:6996   */\n      0x00\n        /* \"#utility.yul\":7021:7059   */\n      tag_376\n        /* \"#utility.yul\":7053:7058   */\n      dup3\n        /* \"#utility.yul\":7021:7059   */\n      tag_377\n      jump\t// in\n    tag_376:\n        /* \"#utility.yul\":7075:7145   */\n      tag_378\n        /* \"#utility.yul\":7138:7144   */\n      dup2\n        /* \"#utility.yul\":7133:7136   */\n      dup6\n        /* \"#utility.yul\":7075:7145   */\n      tag_379\n      jump\t// in\n    tag_378:\n        /* \"#utility.yul\":7068:7145   */\n      swap4\n      pop\n        /* \"#utility.yul\":7154:7206   */\n      tag_380\n        /* \"#utility.yul\":7199:7205   */\n      dup2\n        /* \"#utility.yul\":7194:7197   */\n      dup6\n        /* \"#utility.yul\":7187:7191   */\n      0x20\n        /* \"#utility.yul\":7180:7185   */\n      dup7\n        /* \"#utility.yul\":7176:7192   */\n      add\n        /* \"#utility.yul\":7154:7206   */\n      tag_381\n      jump\t// in\n    tag_380:\n        /* \"#utility.yul\":7231:7260   */\n      tag_382\n        /* \"#utility.yul\":7253:7259   */\n      dup2\n        /* \"#utility.yul\":7231:7260   */\n      tag_383\n      jump\t// in\n    tag_382:\n        /* \"#utility.yul\":7226:7229   */\n      dup5\n        /* \"#utility.yul\":7222:7261   */\n      add\n        /* \"#utility.yul\":7215:7261   */\n      swap2\n      pop\n        /* \"#utility.yul\":6997:7267   */\n      pop\n        /* \"#utility.yul\":6907:7267   */\n      swap3\n      swap2\n      pop\n      pop\n      jump\t// out\n        /* \"#utility.yul\":7273:7637   */\n    tag_384:\n        /* \"#utility.yul\":7361:7364   */\n      0x00\n        /* \"#utility.yul\":7389:7428   */\n      tag_386\n        /* \"#utility.yul\":7422:7427   */\n      dup3\n        /* \"#utility.yul\":7389:7428   */\n      tag_387\n      jump\t// in\n    tag_386:\n        /* \"#utility.yul\":7444:7515   */\n      tag_388\n        /* \"#utility.yul\":7508:7514   */\n      dup2\n        /* \"#utility.yul\":7503:7506   */\n      dup6\n        /* \"#utility.yul\":7444:7515   */\n      tag_389\n      jump\t// in\n    tag_388:\n        /* \"#utility.yul\":7437:7515   */\n      swap4\n      pop\n        /* \"#utility.yul\":7524:7576   */\n      tag_390\n        /* \"#utility.yul\":7569:7575   */\n      dup2\n        /* \"#utility.yul\":7564:7567   */\n      dup6\n        /* \"#utility.yul\":7557:7561   */\n      0x20\n        /* \"#utility.yul\":7550:7555   */\n      dup7\n        /* \"#utility.yul\":7546:7562   */\n      add\n        /* \"#utility.yul\":7524:7576   */\n      tag_381\n      jump\t// in\n    tag_390:\n        /* \"#utility.yul\":7601:7630   */\n      tag_391\n        /* \"#utility.yul\":7623:7629   */\n      dup2\n        /* \"#utility.yul\":7601:7630   */\n      tag_383\n      jump\t// in\n    tag_391:\n        /* \"#utility.yul\":7596:7599   */\n      dup5\n        /* \"#utility.yul\":7592:7631   */\n      add\n        /* \"#utility.yul\":7585:7631   */\n      swap2\n      pop\n        /* \"#utility.yul\":7365:7637   */\n      pop\n        /* \"#utility.yul\":7273:7637   */\n      swap3\n      swap2\n      pop\n      pop\n      jump\t// out\n        /* \"#utility.yul\":7643:8020   */\n    tag_392:\n        /* \"#utility.yul\":7749:7752   */\n      0x00\n        /* \"#utility.yul\":7777:7816   */\n      tag_394\n        /* \"#utility.yul\":7810:7815   */\n      dup3\n        /* \"#utility.yul\":7777:7816   */\n      tag_387\n      jump\t// in\n    tag_394:\n        /* \"#utility.yul\":7832:7921   */\n      tag_395\n        /* \"#utility.yul\":7914:7920   */\n      dup2\n        /* \"#utility.yul\":7909:7912   */\n      dup6\n        /* \"#utility.yul\":7832:7921   */\n      tag_396\n      jump\t// in\n    tag_395:\n        /* \"#utility.yul\":7825:7921   */\n      swap4\n      pop\n        /* \"#utility.yul\":7930:7982   */\n      tag_397\n        /* \"#utility.yul\":7975:7981   */\n      dup2\n        /* \"#utility.yul\":7970:7973   */\n      dup6\n        /* \"#utility.yul\":7963:7967   */\n      0x20\n        /* \"#utility.yul\":7956:7961   */\n      dup7\n        /* \"#utility.yul\":7952:7968   */\n      add\n        /* \"#utility.yul\":7930:7982   */\n      tag_381\n      jump\t// in\n    tag_397:\n        /* \"#utility.yul\":8007:8013   */\n      dup1\n        /* \"#utility.yul\":8002:8005   */\n      dup5\n        /* \"#utility.yul\":7998:8014   */\n      add\n        /* \"#utility.yul\":7991:8014   */\n      swap2\n      pop\n        /* \"#utility.yul\":7753:8020   */\n      pop\n        /* \"#utility.yul\":7643:8020   */\n      swap3\n      swap2\n      pop\n      pop\n      jump\t// out\n        /* \"#utility.yul\":8026:8392   */\n    tag_398:\n        /* \"#utility.yul\":8168:8171   */\n      0x00\n        /* \"#utility.yul\":8189:8256   */\n      tag_400\n        /* \"#utility.yul\":8253:8255   */\n      0x32\n        /* \"#utility.yul\":8248:8251   */\n      dup4\n        /* \"#utility.yul\":8189:8256   */\n      tag_389\n      jump\t// in\n    tag_400:\n        /* \"#utility.yul\":8182:8256   */\n      swap2\n      pop\n        /* \"#utility.yul\":8265:8358   */\n      tag_401\n        /* \"#utility.yul\":8354:8357   */\n      dup3\n        /* \"#utility.yul\":8265:8358   */\n      tag_402\n      jump\t// in\n    tag_401:\n        /* \"#utility.yul\":8383:8385   */\n      0x40\n        /* \"#utility.yul\":8378:8381   */\n      dup3\n        /* \"#utility.yul\":8374:8386   */\n      add\n        /* \"#utility.yul\":8367:8386   */\n      swap1\n      pop\n        /* \"#utility.yul\":8026:8392   */\n      swap2\n      swap1\n      pop\n      jump\t// out\n        /* \"#utility.yul\":8398:8764   */\n    tag_403:\n        /* \"#utility.yul\":8540:8543   */\n      0x00\n        /* \"#utility.yul\":8561:8628   */\n      tag_405\n        /* \"#utility.yul\":8625:8627   */\n      0x25\n        /* \"#utility.yul\":8620:8623   */\n      dup4\n        /* \"#utility.yul\":8561:8628   */\n      tag_389\n      jump\t// in\n    tag_405:\n        /* \"#utility.yul\":8554:8628   */\n      swap2\n      pop\n        /* \"#utility.yul\":8637:8730   */\n      tag_406\n        /* \"#utility.yul\":8726:8729   */\n      dup3\n        /* \"#utility.yul\":8637:8730   */\n      tag_407\n      jump\t// in\n    tag_406:\n        /* \"#utility.yul\":8755:8757   */\n      0x40\n        /* \"#utility.yul\":8750:8753   */\n      dup3\n        /* \"#utility.yul\":8746:8758   */\n      add\n        /* \"#utility.yul\":8739:8758   */\n      swap1\n      pop\n        /* \"#utility.yul\":8398:8764   */\n      swap2\n      swap1\n      pop\n      jump\t// out\n        /* \"#utility.yul\":8770:9136   */\n    tag_408:\n        /* \"#utility.yul\":8912:8915   */\n      0x00\n        /* \"#utility.yul\":8933:9000   */\n      tag_410\n        /* \"#utility.yul\":8997:8999   */\n      0x1c\n        /* \"#utility.yul\":8992:8995   */\n      dup4\n        /* \"#utility.yul\":8933:9000   */\n      tag_389\n      jump\t// in\n    tag_410:\n        /* \"#utility.yul\":8926:9000   */\n      swap2\n      pop\n        /* \"#utility.yul\":9009:9102   */\n      tag_411\n        /* \"#utility.yul\":9098:9101   */\n      dup3\n        /* \"#utility.yul\":9009:9102   */\n      tag_412\n      jump\t// in\n    tag_411:\n        /* \"#utility.yul\":9127:9129   */\n      0x20\n        /* \"#utility.yul\":9122:9125   */\n      dup3\n        /* \"#utility.yul\":9118:9130   */\n      add\n        /* \"#utility.yul\":9111:9130   */\n      swap1\n      pop\n        /* \"#utility.yul\":8770:9136   */\n      swap2\n      swap1\n      pop\n      jump\t// out\n        /* \"#utility.yul\":9142:9508   */\n    tag_413:\n        /* \"#utility.yul\":9284:9287   */\n      0x00\n        /* \"#utility.yul\":9305:9372   */\n      tag_415\n        /* \"#utility.yul\":9369:9371   */\n      0x24\n        /* \"#utility.yul\":9364:9367   */\n      dup4\n        /* \"#utility.yul\":9305:9372   */\n      tag_389\n      jump\t// in\n    tag_415:\n        /* \"#utility.yul\":9298:9372   */\n      swap2\n      pop\n        /* \"#utility.yul\":9381:9474   */\n      tag_416\n        /* \"#utility.yul\":9470:9473   */\n      dup3\n        /* \"#utility.yul\":9381:9474   */\n      tag_417\n      jump\t// in\n    tag_416:\n        /* \"#utility.yul\":9499:9501   */\n      0x40\n        /* \"#utility.yul\":9494:9497   */\n      dup3\n        /* \"#utility.yul\":9490:9502   */\n      add\n        /* \"#utility.yul\":9483:9502   */\n      swap1\n      pop\n        /* \"#utility.yul\":9142:9508   */\n      swap2\n      swap1\n      pop\n      jump\t// out\n        /* \"#utility.yul\":9514:9880   */\n    tag_418:\n        /* \"#utility.yul\":9656:9659   */\n      0x00\n        /* \"#utility.yul\":9677:9744   */\n      tag_420\n        /* \"#utility.yul\":9741:9743   */\n      0x19\n        /* \"#utility.yul\":9736:9739   */\n      dup4\n        /* \"#utility.yul\":9677:9744   */\n      tag_389\n      jump\t// in\n    tag_420:\n        /* \"#utility.yul\":9670:9744   */\n      swap2\n      pop\n        /* \"#utility.yul\":9753:9846   */\n      tag_421\n        /* \"#utility.yul\":9842:9845   */\n      dup3\n        /* \"#utility.yul\":9753:9846   */\n      tag_422\n      jump\t// in\n    tag_421:\n        /* \"#utility.yul\":9871:9873   */\n      0x20\n        /* \"#utility.yul\":9866:9869   */\n      dup3\n        /* \"#utility.yul\":9862:9874   */\n      add\n        /* \"#utility.yul\":9855:9874   */\n      swap1\n      pop\n        /* \"#utility.yul\":9514:9880   */\n      swap2\n      swap1\n      pop\n      jump\t// out\n        /* \"#utility.yul\":9886:10252   */\n    tag_423:\n        /* \"#utility.yul\":10028:10031   */\n      0x00\n        /* \"#utility.yul\":10049:10116   */\n      tag_425\n        /* \"#utility.yul\":10113:10115   */\n      0x2c\n        /* \"#utility.yul\":10108:10111   */\n      dup4\n        /* \"#utility.yul\":10049:10116   */\n      tag_389\n      jump\t// in\n    tag_425:\n        /* \"#utility.yul\":10042:10116   */\n      swap2\n      pop\n        /* \"#utility.yul\":10125:10218   */\n      tag_426\n        /* \"#utility.yul\":10214:10217   */\n      dup3\n        /* \"#utility.yul\":10125:10218   */\n      tag_427\n      jump\t// in\n    tag_426:\n        /* \"#utility.yul\":10243:10245   */\n      0x40\n        /* \"#utility.yul\":10238:10241   */\n      dup3\n        /* \"#utility.yul\":10234:10246   */\n      add\n        /* \"#utility.yul\":10227:10246   */\n      swap1\n      pop\n        /* \"#utility.yul\":9886:10252   */\n      swap2\n      swap1\n      pop\n      jump\t// out\n        /* \"#utility.yul\":10258:10624   */\n    tag_428:\n        /* \"#utility.yul\":10400:10403   */\n      0x00\n        /* \"#utility.yul\":10421:10488   */\n      tag_430\n        /* \"#utility.yul\":10485:10487   */\n      0x38\n        /* \"#utility.yul\":10480:10483   */\n      dup4\n        /* \"#utility.yul\":10421:10488   */\n      tag_389\n      jump\t// in\n    tag_430:\n        /* \"#utility.yul\":10414:10488   */\n      swap2\n      pop\n        /* \"#utility.yul\":10497:10590   */\n      tag_431\n        /* \"#utility.yul\":10586:10589   */\n      dup3\n        /* \"#utility.yul\":10497:10590   */\n      tag_432\n      jump\t// in\n    tag_431:\n        /* \"#utility.yul\":10615:10617   */\n      0x40\n        /* \"#utility.yul\":10610:10613   */\n      dup3\n        /* \"#utility.yul\":10606:10618   */\n      add\n        /* \"#utility.yul\":10599:10618   */\n      swap1\n      pop\n        /* \"#utility.yul\":10258:10624   */\n      swap2\n      swap1\n      pop\n      jump\t// out\n        /* \"#utility.yul\":10630:10996   */\n    tag_433:\n        /* \"#utility.yul\":10772:10775   */\n      0x00\n        /* \"#utility.yul\":10793:10860   */\n      tag_435\n        /* \"#utility.yul\":10857:10859   */\n      0x2a\n        /* \"#utility.yul\":10852:10855   */\n      dup4\n        /* \"#utility.yul\":10793:10860   */\n      tag_389\n      jump\t// in\n    tag_435:\n        /* \"#utility.yul\":10786:10860   */\n      swap2\n      pop\n        /* \"#utility.yul\":10869:10962   */\n      tag_436\n        /* \"#utility.yul\":10958:10961   */\n      dup3\n        /* \"#utility.yul\":10869:10962   */\n      tag_437\n      jump\t// in\n    tag_436:\n        /* \"#utility.yul\":10987:10989   */\n      0x40\n        /* \"#utility.yul\":10982:10985   */\n      dup3\n        /* \"#utility.yul\":10978:10990   */\n      add\n        /* \"#utility.yul\":10971:10990   */\n      swap1\n      pop\n        /* \"#utility.yul\":10630:10996   */\n      swap2\n      swap1\n      pop\n      jump\t// out\n        /* \"#utility.yul\":11002:11368   */\n    tag_438:\n        /* \"#utility.yul\":11144:11147   */\n      0x00\n        /* \"#utility.yul\":11165:11232   */\n      tag_440\n        /* \"#utility.yul\":11229:11231   */\n      0x29\n        /* \"#utility.yul\":11224:11227   */\n      dup4\n        /* \"#utility.yul\":11165:11232   */\n      tag_389\n      jump\t// in\n    tag_440:\n        /* \"#utility.yul\":11158:11232   */\n      swap2\n      pop\n        /* \"#utility.yul\":11241:11334   */\n      tag_441\n        /* \"#utility.yul\":11330:11333   */\n      dup3\n        /* \"#utility.yul\":11241:11334   */\n      tag_442\n      jump\t// in\n    tag_441:\n        /* \"#utility.yul\":11359:11361   */\n      0x40\n        /* \"#utility.yul\":11354:11357   */\n      dup3\n        /* \"#utility.yul\":11350:11362   */\n      add\n        /* \"#utility.yul\":11343:11362   */\n      swap1\n      pop\n        /* \"#utility.yul\":11002:11368   */\n      swap2\n      swap1\n      pop\n      jump\t// out\n        /* \"#utility.yul\":11374:11740   */\n    tag_443:\n        /* \"#utility.yul\":11516:11519   */\n      0x00\n        /* \"#utility.yul\":11537:11604   */\n      tag_445\n        /* \"#utility.yul\":11601:11603   */\n      0x20\n        /* \"#utility.yul\":11596:11599   */\n      dup4\n        /* \"#utility.yul\":11537:11604   */\n      tag_389\n      jump\t// in\n    tag_445:\n        /* \"#utility.yul\":11530:11604   */\n      swap2\n      pop\n        /* \"#utility.yul\":11613:11706   */\n      tag_446\n        /* \"#utility.yul\":11702:11705   */\n      dup3\n        /* \"#utility.yul\":11613:11706   */\n      tag_447\n      jump\t// in\n    tag_446:\n        /* \"#utility.yul\":11731:11733   */\n      0x20\n        /* \"#utility.yul\":11726:11729   */\n      dup3\n        /* \"#utility.yul\":11722:11734   */\n      add\n        /* \"#utility.yul\":11715:11734   */\n      swap1\n      pop\n        /* \"#utility.yul\":11374:11740   */\n      swap2\n      swap1\n      pop\n      jump\t// out\n        /* \"#utility.yul\":11746:12112   */\n    tag_448:\n        /* \"#utility.yul\":11888:11891   */\n      0x00\n        /* \"#utility.yul\":11909:11976   */\n      tag_450\n        /* \"#utility.yul\":11973:11975   */\n      0x2c\n        /* \"#utility.yul\":11968:11971   */\n      dup4\n        /* \"#utility.yul\":11909:11976   */\n      tag_389\n      jump\t// in\n    tag_450:\n        /* \"#utility.yul\":11902:11976   */\n      swap2\n      pop\n        /* \"#utility.yul\":11985:12078   */\n      tag_451\n        /* \"#utility.yul\":12074:12077   */\n      dup3\n        /* \"#utility.yul\":11985:12078   */\n      tag_452\n      jump\t// in\n    tag_451:\n        /* \"#utility.yul\":12103:12105   */\n      0x40\n        /* \"#utility.yul\":12098:12101   */\n      dup3\n        /* \"#utility.yul\":12094:12106   */\n      add\n        /* \"#utility.yul\":12087:12106   */\n      swap1\n      pop\n        /* \"#utility.yul\":11746:12112   */\n      swap2\n      swap1\n      pop\n      jump\t// out\n        /* \"#utility.yul\":12118:12484   */\n    tag_453:\n        /* \"#utility.yul\":12260:12263   */\n      0x00\n        /* \"#utility.yul\":12281:12348   */\n      tag_455\n        /* \"#utility.yul\":12345:12347   */\n      0x2f\n        /* \"#utility.yul\":12340:12343   */\n      dup4\n        /* \"#utility.yul\":12281:12348   */\n      tag_389\n      jump\t// in\n    tag_455:\n        /* \"#utility.yul\":12274:12348   */\n      swap2\n      pop\n        /* \"#utility.yul\":12357:12450   */\n      tag_456\n        /* \"#utility.yul\":12446:12449   */\n      dup3\n        /* \"#utility.yul\":12357:12450   */\n      tag_457\n      jump\t// in\n    tag_456:\n        /* \"#utility.yul\":12475:12477   */\n      0x40\n        /* \"#utility.yul\":12470:12473   */\n      dup3\n        /* \"#utility.yul\":12466:12478   */\n      add\n        /* \"#utility.yul\":12459:12478   */\n      swap1\n      pop\n        /* \"#utility.yul\":12118:12484   */\n      swap2\n      swap1\n      pop\n      jump\t// out\n        /* \"#utility.yul\":12490:12856   */\n    tag_458:\n        /* \"#utility.yul\":12632:12635   */\n      0x00\n        /* \"#utility.yul\":12653:12720   */\n      tag_460\n        /* \"#utility.yul\":12717:12719   */\n      0x21\n        /* \"#utility.yul\":12712:12715   */\n      dup4\n        /* \"#utility.yul\":12653:12720   */\n      tag_389\n      jump\t// in\n    tag_460:\n        /* \"#utility.yul\":12646:12720   */\n      swap2\n      pop\n        /* \"#utility.yul\":12729:12822   */\n      tag_461\n        /* \"#utility.yul\":12818:12821   */\n      dup3\n        /* \"#utility.yul\":12729:12822   */\n      tag_462\n      jump\t// in\n    tag_461:\n        /* \"#utility.yul\":12847:12849   */\n      0x40\n        /* \"#utility.yul\":12842:12845   */\n      dup3\n        /* \"#utility.yul\":12838:12850   */\n      add\n        /* \"#utility.yul\":12831:12850   */\n      swap1\n      pop\n        /* \"#utility.yul\":12490:12856   */\n      swap2\n      swap1\n      pop\n      jump\t// out\n        /* \"#utility.yul\":12862:13228   */\n    tag_463:\n        /* \"#utility.yul\":13004:13007   */\n      0x00\n        /* \"#utility.yul\":13025:13092   */\n      tag_465\n        /* \"#utility.yul\":13089:13091   */\n      0x31\n        /* \"#utility.yul\":13084:13087   */\n      dup4\n        /* \"#utility.yul\":13025:13092   */\n      tag_389\n      jump\t// in\n    tag_465:\n        /* \"#utility.yul\":13018:13092   */\n      swap2\n      pop\n        /* \"#utility.yul\":13101:13194   */\n      tag_466\n        /* \"#utility.yul\":13190:13193   */\n      dup3\n        /* \"#utility.yul\":13101:13194   */\n      tag_467\n      jump\t// in\n    tag_466:\n        /* \"#utility.yul\":13219:13221   */\n      0x40\n        /* \"#utility.yul\":13214:13217   */\n      dup3\n        /* \"#utility.yul\":13210:13222   */\n      add\n        /* \"#utility.yul\":13203:13222   */\n      swap1\n      pop\n        /* \"#utility.yul\":12862:13228   */\n      swap2\n      swap1\n      pop\n      jump\t// out\n        /* \"#utility.yul\":13234:13352   */\n    tag_468:\n        /* \"#utility.yul\":13321:13345   */\n      tag_470\n        /* \"#utility.yul\":13339:13344   */\n      dup2\n        /* \"#utility.yul\":13321:13345   */\n      tag_471\n      jump\t// in\n    tag_470:\n        /* \"#utility.yul\":13316:13319   */\n      dup3\n        /* \"#utility.yul\":13309:13346   */\n      mstore\n        /* \"#utility.yul\":13234:13352   */\n      pop\n      pop\n      jump\t// out\n        /* \"#utility.yul\":13358:13793   */\n    tag_170:\n        /* \"#utility.yul\":13538:13541   */\n      0x00\n        /* \"#utility.yul\":13560:13655   */\n      tag_473\n        /* \"#utility.yul\":13651:13654   */\n      dup3\n        /* \"#utility.yul\":13642:13648   */\n      dup6\n        /* \"#utility.yul\":13560:13655   */\n      tag_392\n      jump\t// in\n    tag_473:\n        /* \"#utility.yul\":13553:13655   */\n      swap2\n      pop\n        /* \"#utility.yul\":13672:13767   */\n      tag_474\n        /* \"#utility.yul\":13763:13766   */\n      dup3\n        /* \"#utility.yul\":13754:13760   */\n      dup5\n        /* \"#utility.yul\":13672:13767   */\n      tag_392\n      jump\t// in\n    tag_474:\n        /* \"#utility.yul\":13665:13767   */\n      swap2\n      pop\n        /* \"#utility.yul\":13784:13787   */\n      dup2\n        /* \"#utility.yul\":13777:13787   */\n      swap1\n      pop\n        /* \"#utility.yul\":13358:13793   */\n      swap4\n      swap3\n      pop\n      pop\n      pop\n      jump\t// out\n        /* \"#utility.yul\":13799:14021   */\n    tag_35:\n        /* \"#utility.yul\":13892:13896   */\n      0x00\n        /* \"#utility.yul\":13930:13932   */\n      0x20\n        /* \"#utility.yul\":13919:13928   */\n      dup3\n        /* \"#utility.yul\":13915:13933   */\n      add\n        /* \"#utility.yul\":13907:13933   */\n      swap1\n      pop\n        /* \"#utility.yul\":13943:14014   */\n      tag_476\n        /* \"#utility.yul\":14011:14012   */\n      0x00\n        /* \"#utility.yul\":14000:14009   */\n      dup4\n        /* \"#utility.yul\":13996:14013   */\n      add\n        /* \"#utility.yul\":13987:13993   */\n      dup5\n        /* \"#utility.yul\":13943:14014   */\n      tag_366\n      jump\t// in\n    tag_476:\n        /* \"#utility.yul\":13799:14021   */\n      swap3\n      swap2\n      pop\n      pop\n      jump\t// out\n        /* \"#utility.yul\":14027:14667   */\n    tag_221:\n        /* \"#utility.yul\":14222:14226   */\n      0x00\n        /* \"#utility.yul\":14260:14263   */\n      0x80\n        /* \"#utility.yul\":14249:14258   */\n      dup3\n        /* \"#utility.yul\":14245:14264   */\n      add\n        /* \"#utility.yul\":14237:14264   */\n      swap1\n      pop\n        /* \"#utility.yul\":14274:14345   */\n      tag_478\n        /* \"#utility.yul\":14342:14343   */\n      0x00\n        /* \"#utility.yul\":14331:14340   */\n      dup4\n        /* \"#utility.yul\":14327:14344   */\n      add\n        /* \"#utility.yul\":14318:14324   */\n      dup8\n        /* \"#utility.yul\":14274:14345   */\n      tag_366\n      jump\t// in\n    tag_478:\n        /* \"#utility.yul\":14355:14427   */\n      tag_479\n        /* \"#utility.yul\":14423:14425   */\n      0x20\n        /* \"#utility.yul\":14412:14421   */\n      dup4\n        /* \"#utility.yul\":14408:14426   */\n      add\n        /* \"#utility.yul\":14399:14405   */\n      dup7\n        /* \"#utility.yul\":14355:14427   */\n      tag_366\n      jump\t// in\n    tag_479:\n        /* \"#utility.yul\":14437:14509   */\n      tag_480\n        /* \"#utility.yul\":14505:14507   */\n      0x40\n        /* \"#utility.yul\":14494:14503   */\n      dup4\n        /* \"#utility.yul\":14490:14508   */\n      add\n        /* \"#utility.yul\":14481:14487   */\n      dup6\n        /* \"#utility.yul\":14437:14509   */\n      tag_468\n      jump\t// in\n    tag_480:\n        /* \"#utility.yul\":14556:14565   */\n      dup2\n        /* \"#utility.yul\":14550:14554   */\n      dup2\n        /* \"#utility.yul\":14546:14566   */\n      sub\n        /* \"#utility.yul\":14541:14543   */\n      0x60\n        /* \"#utility.yul\":14530:14539   */\n      dup4\n        /* \"#utility.yul\":14526:14544   */\n      add\n        /* \"#utility.yul\":14519:14567   */\n      mstore\n        /* \"#utility.yul\":14584:14660   */\n      tag_481\n        /* \"#utility.yul\":14655:14659   */\n      dup2\n        /* \"#utility.yul\":14646:14652   */\n      dup5\n        /* \"#utility.yul\":14584:14660   */\n      tag_374\n      jump\t// in\n    tag_481:\n        /* \"#utility.yul\":14576:14660   */\n      swap1\n      pop\n        /* \"#utility.yul\":14027:14667   */\n      swap6\n      swap5\n      pop\n      pop\n      pop\n      pop\n      pop\n      jump\t// out\n        /* \"#utility.yul\":14673:14883   */\n    tag_25:\n        /* \"#utility.yul\":14760:14764   */\n      0x00\n        /* \"#utility.yul\":14798:14800   */\n      0x20\n        /* \"#utility.yul\":14787:14796   */\n      dup3\n        /* \"#utility.yul\":14783:14801   */\n      add\n        /* \"#utility.yul\":14775:14801   */\n      swap1\n      pop\n        /* \"#utility.yul\":14811:14876   */\n      tag_483\n        /* \"#utility.yul\":14873:14874   */\n      0x00\n        /* \"#utility.yul\":14862:14871   */\n      dup4\n        /* \"#utility.yul\":14858:14875   */\n      add\n        /* \"#utility.yul\":14849:14855   */\n      dup5\n        /* \"#utility.yul\":14811:14876   */\n      tag_370\n      jump\t// in\n    tag_483:\n        /* \"#utility.yul\":14673:14883   */\n      swap3\n      swap2\n      pop\n      pop\n      jump\t// out\n        /* \"#utility.yul\":14889:15202   */\n    tag_29:\n        /* \"#utility.yul\":15002:15006   */\n      0x00\n        /* \"#utility.yul\":15040:15042   */\n      0x20\n        /* \"#utility.yul\":15029:15038   */\n      dup3\n        /* \"#utility.yul\":15025:15043   */\n      add\n        /* \"#utility.yul\":15017:15043   */\n      swap1\n      pop\n        /* \"#utility.yul\":15089:15098   */\n      dup2\n        /* \"#utility.yul\":15083:15087   */\n      dup2\n        /* \"#utility.yul\":15079:15099   */\n      sub\n        /* \"#utility.yul\":15075:15076   */\n      0x00\n        /* \"#utility.yul\":15064:15073   */\n      dup4\n        /* \"#utility.yul\":15060:15077   */\n      add\n        /* \"#utility.yul\":15053:15100   */\n      mstore\n        /* \"#utility.yul\":15117:15195   */\n      tag_485\n        /* \"#utility.yul\":15190:15194   */\n      dup2\n        /* \"#utility.yul\":15181:15187   */\n      dup5\n        /* \"#utility.yul\":15117:15195   */\n      tag_384\n      jump\t// in\n    tag_485:\n        /* \"#utility.yul\":15109:15195   */\n      swap1\n      pop\n        /* \"#utility.yul\":14889:15202   */\n      swap3\n      swap2\n      pop\n      pop\n      jump\t// out\n        /* \"#utility.yul\":15208:15627   */\n    tag_136:\n        /* \"#utility.yul\":15374:15378   */\n      0x00\n        /* \"#utility.yul\":15412:15414   */\n      0x20\n        /* \"#utility.yul\":15401:15410   */\n      dup3\n        /* \"#utility.yul\":15397:15415   */\n      add\n        /* \"#utility.yul\":15389:15415   */\n      swap1\n      pop\n        /* \"#utility.yul\":15461:15470   */\n      dup2\n        /* \"#utility.yul\":15455:15459   */\n      dup2\n        /* \"#utility.yul\":15451:15471   */\n      sub\n        /* \"#utility.yul\":15447:15448   */\n      0x00\n        /* \"#utility.yul\":15436:15445   */\n      dup4\n        /* \"#utility.yul\":15432:15449   */\n      add\n        /* \"#utility.yul\":15425:15472   */\n      mstore\n        /* \"#utility.yul\":15489:15620   */\n      tag_487\n        /* \"#utility.yul\":15615:15619   */\n      dup2\n        /* \"#utility.yul\":15489:15620   */\n      tag_398\n      jump\t// in\n    tag_487:\n        /* \"#utility.yul\":15481:15620   */\n      swap1\n      pop\n        /* \"#utility.yul\":15208:15627   */\n      swap2\n      swap1\n      pop\n      jump\t// out\n        /* \"#utility.yul\":15633:16052   */\n    tag_191:\n        /* \"#utility.yul\":15799:15803   */\n      0x00\n        /* \"#utility.yul\":15837:15839   */\n      0x20\n        /* \"#utility.yul\":15826:15835   */\n      dup3\n        /* \"#utility.yul\":15822:15840   */\n      add\n        /* \"#utility.yul\":15814:15840   */\n      swap1\n      pop\n        /* \"#utility.yul\":15886:15895   */\n      dup2\n        /* \"#utility.yul\":15880:15884   */\n      dup2\n        /* \"#utility.yul\":15876:15896   */\n      sub\n        /* \"#utility.yul\":15872:15873   */\n      0x00\n        /* \"#utility.yul\":15861:15870   */\n      dup4\n        /* \"#utility.yul\":15857:15874   */\n      add\n        /* \"#utility.yul\":15850:15897   */\n      mstore\n        /* \"#utility.yul\":15914:16045   */\n      tag_489\n        /* \"#utility.yul\":16040:16044   */\n      dup2\n        /* \"#utility.yul\":15914:16045   */\n      tag_403\n      jump\t// in\n    tag_489:\n        /* \"#utility.yul\":15906:16045   */\n      swap1\n      pop\n        /* \"#utility.yul\":15633:16052   */\n      swap2\n      swap1\n      pop\n      jump\t// out\n        /* \"#utility.yul\":16058:16477   */\n    tag_211:\n        /* \"#utility.yul\":16224:16228   */\n      0x00\n        /* \"#utility.yul\":16262:16264   */\n      0x20\n        /* \"#utility.yul\":16251:16260   */\n      dup3\n        /* \"#utility.yul\":16247:16265   */\n      add\n        /* \"#utility.yul\":16239:16265   */\n      swap1\n      pop\n        /* \"#utility.yul\":16311:16320   */\n      dup2\n        /* \"#utility.yul\":16305:16309   */\n      dup2\n        /* \"#utility.yul\":16301:16321   */\n      sub\n        /* \"#utility.yul\":16297:16298   */\n      0x00\n        /* \"#utility.yul\":16286:16295   */\n      dup4\n        /* \"#utility.yul\":16282:16299   */\n      add\n        /* \"#utility.yul\":16275:16322   */\n      mstore\n        /* \"#utility.yul\":16339:16470   */\n      tag_491\n        /* \"#utility.yul\":16465:16469   */\n      dup2\n        /* \"#utility.yul\":16339:16470   */\n      tag_408\n      jump\t// in\n    tag_491:\n        /* \"#utility.yul\":16331:16470   */\n      swap1\n      pop\n        /* \"#utility.yul\":16058:16477   */\n      swap2\n      swap1\n      pop\n      jump\t// out\n        /* \"#utility.yul\":16483:16902   */\n    tag_194:\n        /* \"#utility.yul\":16649:16653   */\n      0x00\n        /* \"#utility.yul\":16687:16689   */\n      0x20\n        /* \"#utility.yul\":16676:16685   */\n      dup3\n        /* \"#utility.yul\":16672:16690   */\n      add\n        /* \"#utility.yul\":16664:16690   */\n      swap1\n      pop\n        /* \"#utility.yul\":16736:16745   */\n      dup2\n        /* \"#utility.yul\":16730:16734   */\n      dup2\n        /* \"#utility.yul\":16726:16746   */\n      sub\n        /* \"#utility.yul\":16722:16723   */\n      0x00\n        /* \"#utility.yul\":16711:16720   */\n      dup4\n        /* \"#utility.yul\":16707:16724   */\n      add\n        /* \"#utility.yul\":16700:16747   */\n      mstore\n        /* \"#utility.yul\":16764:16895   */\n      tag_493\n        /* \"#utility.yul\":16890:16894   */\n      dup2\n        /* \"#utility.yul\":16764:16895   */\n      tag_413\n      jump\t// in\n    tag_493:\n        /* \"#utility.yul\":16756:16895   */\n      swap1\n      pop\n        /* \"#utility.yul\":16483:16902   */\n      swap2\n      swap1\n      pop\n      jump\t// out\n        /* \"#utility.yul\":16908:17327   */\n    tag_240:\n        /* \"#utility.yul\":17074:17078   */\n      0x00\n        /* \"#utility.yul\":17112:17114   */\n      0x20\n        /* \"#utility.yul\":17101:17110   */\n      dup3\n        /* \"#utility.yul\":17097:17115   */\n      add\n        /* \"#utility.yul\":17089:17115   */\n      swap1\n      pop\n        /* \"#utility.yul\":17161:17170   */\n      dup2\n        /* \"#utility.yul\":17155:17159   */\n      dup2\n        /* \"#utility.yul\":17151:17171   */\n      sub\n        /* \"#utility.yul\":17147:17148   */\n      0x00\n        /* \"#utility.yul\":17136:17145   */\n      dup4\n        /* \"#utility.yul\":17132:17149   */\n      add\n        /* \"#utility.yul\":17125:17172   */\n      mstore\n        /* \"#utility.yul\":17189:17320   */\n      tag_495\n        /* \"#utility.yul\":17315:17319   */\n      dup2\n        /* \"#utility.yul\":17189:17320   */\n      tag_418\n      jump\t// in\n    tag_495:\n        /* \"#utility.yul\":17181:17320   */\n      swap1\n      pop\n        /* \"#utility.yul\":16908:17327   */\n      swap2\n      swap1\n      pop\n      jump\t// out\n        /* \"#utility.yul\":17333:17752   */\n    tag_181:\n        /* \"#utility.yul\":17499:17503   */\n      0x00\n        /* \"#utility.yul\":17537:17539   */\n      0x20\n        /* \"#utility.yul\":17526:17535   */\n      dup3\n        /* \"#utility.yul\":17522:17540   */\n      add\n        /* \"#utility.yul\":17514:17540   */\n      swap1\n      pop\n        /* \"#utility.yul\":17586:17595   */\n      dup2\n        /* \"#utility.yul\":17580:17584   */\n      dup2\n        /* \"#utility.yul\":17576:17596   */\n      sub\n        /* \"#utility.yul\":17572:17573   */\n      0x00\n        /* \"#utility.yul\":17561:17570   */\n      dup4\n        /* \"#utility.yul\":17557:17574   */\n      add\n        /* \"#utility.yul\":17550:17597   */\n      mstore\n        /* \"#utility.yul\":17614:17745   */\n      tag_497\n        /* \"#utility.yul\":17740:17744   */\n      dup2\n        /* \"#utility.yul\":17614:17745   */\n      tag_423\n      jump\t// in\n    tag_497:\n        /* \"#utility.yul\":17606:17745   */\n      swap1\n      pop\n        /* \"#utility.yul\":17333:17752   */\n      swap2\n      swap1\n      pop\n      jump\t// out\n        /* \"#utility.yul\":17758:18177   */\n    tag_111:\n        /* \"#utility.yul\":17924:17928   */\n      0x00\n        /* \"#utility.yul\":17962:17964   */\n      0x20\n        /* \"#utility.yul\":17951:17960   */\n      dup3\n        /* \"#utility.yul\":17947:17965   */\n      add\n        /* \"#utility.yul\":17939:17965   */\n      swap1\n      pop\n        /* \"#utility.yul\":18011:18020   */\n      dup2\n        /* \"#utility.yul\":18005:18009   */\n      dup2\n        /* \"#utility.yul\":18001:18021   */\n      sub\n        /* \"#utility.yul\":17997:17998   */\n      0x00\n        /* \"#utility.yul\":17986:17995   */\n      dup4\n        /* \"#utility.yul\":17982:17999   */\n      add\n        /* \"#utility.yul\":17975:18022   */\n      mstore\n        /* \"#utility.yul\":18039:18170   */\n      tag_499\n        /* \"#utility.yul\":18165:18169   */\n      dup2\n        /* \"#utility.yul\":18039:18170   */\n      tag_428\n      jump\t// in\n    tag_499:\n        /* \"#utility.yul\":18031:18170   */\n      swap1\n      pop\n        /* \"#utility.yul\":17758:18177   */\n      swap2\n      swap1\n      pop\n      jump\t// out\n        /* \"#utility.yul\":18183:18602   */\n    tag_140:\n        /* \"#utility.yul\":18349:18353   */\n      0x00\n        /* \"#utility.yul\":18387:18389   */\n      0x20\n        /* \"#utility.yul\":18376:18385   */\n      dup3\n        /* \"#utility.yul\":18372:18390   */\n      add\n        /* \"#utility.yul\":18364:18390   */\n      swap1\n      pop\n        /* \"#utility.yul\":18436:18445   */\n      dup2\n        /* \"#utility.yul\":18430:18434   */\n      dup2\n        /* \"#utility.yul\":18426:18446   */\n      sub\n        /* \"#utility.yul\":18422:18423   */\n      0x00\n        /* \"#utility.yul\":18411:18420   */\n      dup4\n        /* \"#utility.yul\":18407:18424   */\n      add\n        /* \"#utility.yul\":18400:18447   */\n      mstore\n        /* \"#utility.yul\":18464:18595   */\n      tag_501\n        /* \"#utility.yul\":18590:18594   */\n      dup2\n        /* \"#utility.yul\":18464:18595   */\n      tag_433\n      jump\t// in\n    tag_501:\n        /* \"#utility.yul\":18456:18595   */\n      swap1\n      pop\n        /* \"#utility.yul\":18183:18602   */\n      swap2\n      swap1\n      pop\n      jump\t// out\n        /* \"#utility.yul\":18608:19027   */\n    tag_128:\n        /* \"#utility.yul\":18774:18778   */\n      0x00\n        /* \"#utility.yul\":18812:18814   */\n      0x20\n        /* \"#utility.yul\":18801:18810   */\n      dup3\n        /* \"#utility.yul\":18797:18815   */\n      add\n        /* \"#utility.yul\":18789:18815   */\n      swap1\n      pop\n        /* \"#utility.yul\":18861:18870   */\n      dup2\n        /* \"#utility.yul\":18855:18859   */\n      dup2\n        /* \"#utility.yul\":18851:18871   */\n      sub\n        /* \"#utility.yul\":18847:18848   */\n      0x00\n        /* \"#utility.yul\":18836:18845   */\n      dup4\n        /* \"#utility.yul\":18832:18849   */\n      add\n        /* \"#utility.yul\":18825:18872   */\n      mstore\n        /* \"#utility.yul\":18889:19020   */\n      tag_503\n        /* \"#utility.yul\":19015:19019   */\n      dup2\n        /* \"#utility.yul\":18889:19020   */\n      tag_438\n      jump\t// in\n    tag_503:\n        /* \"#utility.yul\":18881:19020   */\n      swap1\n      pop\n        /* \"#utility.yul\":18608:19027   */\n      swap2\n      swap1\n      pop\n      jump\t// out\n        /* \"#utility.yul\":19033:19452   */\n    tag_207:\n        /* \"#utility.yul\":19199:19203   */\n      0x00\n        /* \"#utility.yul\":19237:19239   */\n      0x20\n        /* \"#utility.yul\":19226:19235   */\n      dup3\n        /* \"#utility.yul\":19222:19240   */\n      add\n        /* \"#utility.yul\":19214:19240   */\n      swap1\n      pop\n        /* \"#utility.yul\":19286:19295   */\n      dup2\n        /* \"#utility.yul\":19280:19284   */\n      dup2\n        /* \"#utility.yul\":19276:19296   */\n      sub\n        /* \"#utility.yul\":19272:19273   */\n      0x00\n        /* \"#utility.yul\":19261:19270   */\n      dup4\n        /* \"#utility.yul\":19257:19274   */\n      add\n        /* \"#utility.yul\":19250:19297   */\n      mstore\n        /* \"#utility.yul\":19314:19445   */\n      tag_505\n        /* \"#utility.yul\":19440:19444   */\n      dup2\n        /* \"#utility.yul\":19314:19445   */\n      tag_443\n      jump\t// in\n    tag_505:\n        /* \"#utility.yul\":19306:19445   */\n      swap1\n      pop\n        /* \"#utility.yul\":19033:19452   */\n      swap2\n      swap1\n      pop\n      jump\t// out\n        /* \"#utility.yul\":19458:19877   */\n    tag_98:\n        /* \"#utility.yul\":19624:19628   */\n      0x00\n        /* \"#utility.yul\":19662:19664   */\n      0x20\n        /* \"#utility.yul\":19651:19660   */\n      dup3\n        /* \"#utility.yul\":19647:19665   */\n      add\n        /* \"#utility.yul\":19639:19665   */\n      swap1\n      pop\n        /* \"#utility.yul\":19711:19720   */\n      dup2\n        /* \"#utility.yul\":19705:19709   */\n      dup2\n        /* \"#utility.yul\":19701:19721   */\n      sub\n        /* \"#utility.yul\":19697:19698   */\n      0x00\n        /* \"#utility.yul\":19686:19695   */\n      dup4\n        /* \"#utility.yul\":19682:19699   */\n      add\n        /* \"#utility.yul\":19675:19722   */\n      mstore\n        /* \"#utility.yul\":19739:19870   */\n      tag_507\n        /* \"#utility.yul\":19865:19869   */\n      dup2\n        /* \"#utility.yul\":19739:19870   */\n      tag_448\n      jump\t// in\n    tag_507:\n        /* \"#utility.yul\":19731:19870   */\n      swap1\n      pop\n        /* \"#utility.yul\":19458:19877   */\n      swap2\n      swap1\n      pop\n      jump\t// out\n        /* \"#utility.yul\":19883:20302   */\n    tag_162:\n        /* \"#utility.yul\":20049:20053   */\n      0x00\n        /* \"#utility.yul\":20087:20089   */\n      0x20\n        /* \"#utility.yul\":20076:20085   */\n      dup3\n        /* \"#utility.yul\":20072:20090   */\n      add\n        /* \"#utility.yul\":20064:20090   */\n      swap1\n      pop\n        /* \"#utility.yul\":20136:20145   */\n      dup2\n        /* \"#utility.yul\":20130:20134   */\n      dup2\n        /* \"#utility.yul\":20126:20146   */\n      sub\n        /* \"#utility.yul\":20122:20123   */\n      0x00\n        /* \"#utility.yul\":20111:20120   */\n      dup4\n        /* \"#utility.yul\":20107:20124   */\n      add\n        /* \"#utility.yul\":20100:20147   */\n      mstore\n        /* \"#utility.yul\":20164:20295   */\n      tag_509\n        /* \"#utility.yul\":20290:20294   */\n      dup2\n        /* \"#utility.yul\":20164:20295   */\n      tag_453\n      jump\t// in\n    tag_509:\n        /* \"#utility.yul\":20156:20295   */\n      swap1\n      pop\n        /* \"#utility.yul\":19883:20302   */\n      swap2\n      swap1\n      pop\n      jump\t// out\n        /* \"#utility.yul\":20308:20727   */\n    tag_103:\n        /* \"#utility.yul\":20474:20478   */\n      0x00\n        /* \"#utility.yul\":20512:20514   */\n      0x20\n        /* \"#utility.yul\":20501:20510   */\n      dup3\n        /* \"#utility.yul\":20497:20515   */\n      add\n        /* \"#utility.yul\":20489:20515   */\n      swap1\n      pop\n        /* \"#utility.yul\":20561:20570   */\n      dup2\n        /* \"#utility.yul\":20555:20559   */\n      dup2\n        /* \"#utility.yul\":20551:20571   */\n      sub\n        /* \"#utility.yul\":20547:20548   */\n      0x00\n        /* \"#utility.yul\":20536:20545   */\n      dup4\n        /* \"#utility.yul\":20532:20549   */\n      add\n        /* \"#utility.yul\":20525:20572   */\n      mstore\n        /* \"#utility.yul\":20589:20720   */\n      tag_511\n        /* \"#utility.yul\":20715:20719   */\n      dup2\n        /* \"#utility.yul\":20589:20720   */\n      tag_458\n      jump\t// in\n    tag_511:\n        /* \"#utility.yul\":20581:20720   */\n      swap1\n      pop\n        /* \"#utility.yul\":20308:20727   */\n      swap2\n      swap1\n      pop\n      jump\t// out\n        /* \"#utility.yul\":20733:21152   */\n    tag_120:\n        /* \"#utility.yul\":20899:20903   */\n      0x00\n        /* \"#utility.yul\":20937:20939   */\n      0x20\n        /* \"#utility.yul\":20926:20935   */\n      dup3\n        /* \"#utility.yul\":20922:20940   */\n      add\n        /* \"#utility.yul\":20914:20940   */\n      swap1\n      pop\n        /* \"#utility.yul\":20986:20995   */\n      dup2\n        /* \"#utility.yul\":20980:20984   */\n      dup2\n        /* \"#utility.yul\":20976:20996   */\n      sub\n        /* \"#utility.yul\":20972:20973   */\n      0x00\n        /* \"#utility.yul\":20961:20970   */\n      dup4\n        /* \"#utility.yul\":20957:20974   */\n      add\n        /* \"#utility.yul\":20950:20997   */\n      mstore\n        /* \"#utility.yul\":21014:21145   */\n      tag_513\n        /* \"#utility.yul\":21140:21144   */\n      dup2\n        /* \"#utility.yul\":21014:21145   */\n      tag_463\n      jump\t// in\n    tag_513:\n        /* \"#utility.yul\":21006:21145   */\n      swap1\n      pop\n        /* \"#utility.yul\":20733:21152   */\n      swap2\n      swap1\n      pop\n      jump\t// out\n        /* \"#utility.yul\":21158:21380   */\n    tag_60:\n        /* \"#utility.yul\":21251:21255   */\n      0x00\n        /* \"#utility.yul\":21289:21291   */\n      0x20\n        /* \"#utility.yul\":21278:21287   */\n      dup3\n        /* \"#utility.yul\":21274:21292   */\n      add\n        /* \"#utility.yul\":21266:21292   */\n      swap1\n      pop\n        /* \"#utility.yul\":21302:21373   */\n      tag_515\n        /* \"#utility.yul\":21370:21371   */\n      0x00\n        /* \"#utility.yul\":21359:21368   */\n      dup4\n        /* \"#utility.yul\":21355:21372   */\n      add\n        /* \"#utility.yul\":21346:21352   */\n      dup5\n        /* \"#utility.yul\":21302:21373   */\n      tag_468\n      jump\t// in\n    tag_515:\n        /* \"#utility.yul\":21158:21380   */\n      swap3\n      swap2\n      pop\n      pop\n      jump\t// out\n        /* \"#utility.yul\":21386:21515   */\n    tag_279:\n        /* \"#utility.yul\":21420:21426   */\n      0x00\n        /* \"#utility.yul\":21447:21467   */\n      tag_517\n      tag_518\n      jump\t// in\n    tag_517:\n        /* \"#utility.yul\":21437:21467   */\n      swap1\n      pop\n        /* \"#utility.yul\":21476:21509   */\n      tag_519\n        /* \"#utility.yul\":21504:21508   */\n      dup3\n        /* \"#utility.yul\":21496:21502   */\n      dup3\n        /* \"#utility.yul\":21476:21509   */\n      tag_520\n      jump\t// in\n    tag_519:\n        /* \"#utility.yul\":21386:21515   */\n      swap2\n      swap1\n      pop\n      jump\t// out\n        /* \"#utility.yul\":21521:21596   */\n    tag_518:\n        /* \"#utility.yul\":21554:21560   */\n      0x00\n        /* \"#utility.yul\":21587:21589   */\n      0x40\n        /* \"#utility.yul\":21581:21590   */\n      mload\n        /* \"#utility.yul\":21571:21590   */\n      swap1\n      pop\n        /* \"#utility.yul\":21521:21596   */\n      swap1\n      jump\t// out\n        /* \"#utility.yul\":21602:21909   */\n    tag_278:\n        /* \"#utility.yul\":21663:21667   */\n      0x00\n        /* \"#utility.yul\":21753:21771   */\n      0xffffffffffffffff\n        /* \"#utility.yul\":21745:21751   */\n      dup3\n        /* \"#utility.yul\":21742:21772   */\n      gt\n        /* \"#utility.yul\":21739:21795   */\n      iszero\n      tag_523\n      jumpi\n        /* \"#utility.yul\":21775:21793   */\n      tag_524\n      tag_258\n      jump\t// in\n    tag_524:\n        /* \"#utility.yul\":21739:21795   */\n    tag_523:\n        /* \"#utility.yul\":21813:21842   */\n      tag_525\n        /* \"#utility.yul\":21835:21841   */\n      dup3\n        /* \"#utility.yul\":21813:21842   */\n      tag_383\n      jump\t// in\n    tag_525:\n        /* \"#utility.yul\":21805:21842   */\n      swap1\n      pop\n        /* \"#utility.yul\":21897:21901   */\n      0x20\n        /* \"#utility.yul\":21891:21895   */\n      dup2\n        /* \"#utility.yul\":21887:21902   */\n      add\n        /* \"#utility.yul\":21879:21902   */\n      swap1\n      pop\n        /* \"#utility.yul\":21602:21909   */\n      swap2\n      swap1\n      pop\n      jump\t// out\n        /* \"#utility.yul\":21915:22013   */\n    tag_377:\n        /* \"#utility.yul\":21966:21972   */\n      0x00\n        /* \"#utility.yul\":22000:22005   */\n      dup2\n        /* \"#utility.yul\":21994:22006   */\n      mload\n        /* \"#utility.yul\":21984:22006   */\n      swap1\n      pop\n        /* \"#utility.yul\":21915:22013   */\n      swap2\n      swap1\n      pop\n      jump\t// out\n        /* \"#utility.yul\":22019:22118   */\n    tag_387:\n        /* \"#utility.yul\":22071:22077   */\n      0x00\n        /* \"#utility.yul\":22105:22110   */\n      dup2\n        /* \"#utility.yul\":22099:22111   */\n      mload\n        /* \"#utility.yul\":22089:22111   */\n      swap1\n      pop\n        /* \"#utility.yul\":22019:22118   */\n      swap2\n      swap1\n      pop\n      jump\t// out\n        /* \"#utility.yul\":22124:22292   */\n    tag_379:\n        /* \"#utility.yul\":22207:22218   */\n      0x00\n        /* \"#utility.yul\":22241:22247   */\n      dup3\n        /* \"#utility.yul\":22236:22239   */\n      dup3\n        /* \"#utility.yul\":22229:22248   */\n      mstore\n        /* \"#utility.yul\":22281:22285   */\n      0x20\n        /* \"#utility.yul\":22276:22279   */\n      dup3\n        /* \"#utility.yul\":22272:22286   */\n      add\n        /* \"#utility.yul\":22257:22286   */\n      swap1\n      pop\n        /* \"#utility.yul\":22124:22292   */\n      swap3\n      swap2\n      pop\n      pop\n      jump\t// out\n        /* \"#utility.yul\":22298:22467   */\n    tag_389:\n        /* \"#utility.yul\":22382:22393   */\n      0x00\n        /* \"#utility.yul\":22416:22422   */\n      dup3\n        /* \"#utility.yul\":22411:22414   */\n      dup3\n        /* \"#utility.yul\":22404:22423   */\n      mstore\n        /* \"#utility.yul\":22456:22460   */\n      0x20\n        /* \"#utility.yul\":22451:22454   */\n      dup3\n        /* \"#utility.yul\":22447:22461   */\n      add\n        /* \"#utility.yul\":22432:22461   */\n      swap1\n      pop\n        /* \"#utility.yul\":22298:22467   */\n      swap3\n      swap2\n      pop\n      pop\n      jump\t// out\n        /* \"#utility.yul\":22473:22621   */\n    tag_396:\n        /* \"#utility.yul\":22575:22586   */\n      0x00\n        /* \"#utility.yul\":22612:22615   */\n      dup2\n        /* \"#utility.yul\":22597:22615   */\n      swap1\n      pop\n        /* \"#utility.yul\":22473:22621   */\n      swap3\n      swap2\n      pop\n      pop\n      jump\t// out\n        /* \"#utility.yul\":22627:22932   */\n    tag_201:\n        /* \"#utility.yul\":22667:22670   */\n      0x00\n        /* \"#utility.yul\":22686:22706   */\n      tag_532\n        /* \"#utility.yul\":22704:22705   */\n      dup3\n        /* \"#utility.yul\":22686:22706   */\n      tag_471\n      jump\t// in\n    tag_532:\n        /* \"#utility.yul\":22681:22706   */\n      swap2\n      pop\n        /* \"#utility.yul\":22720:22740   */\n      tag_533\n        /* \"#utility.yul\":22738:22739   */\n      dup4\n        /* \"#utility.yul\":22720:22740   */\n      tag_471\n      jump\t// in\n    tag_533:\n        /* \"#utility.yul\":22715:22740   */\n      swap3\n      pop\n        /* \"#utility.yul\":22874:22875   */\n      dup3\n        /* \"#utility.yul\":22806:22872   */\n      0xffffffffffffffffffffffffffffffffffffffffffffffffffffffffffffffff\n        /* \"#utility.yul\":22802:22876   */\n      sub\n        /* \"#utility.yul\":22799:22800   */\n      dup3\n        /* \"#utility.yul\":22796:22877   */\n      gt\n        /* \"#utility.yul\":22793:22900   */\n      iszero\n      tag_534\n      jumpi\n        /* \"#utility.yul\":22880:22898   */\n      tag_535\n      tag_536\n      jump\t// in\n    tag_535:\n        /* \"#utility.yul\":22793:22900   */\n    tag_534:\n        /* \"#utility.yul\":22924:22925   */\n      dup3\n        /* \"#utility.yul\":22921:22922   */\n      dup3\n        /* \"#utility.yul\":22917:22926   */\n      add\n        /* \"#utility.yul\":22910:22926   */\n      swap1\n      pop\n        /* \"#utility.yul\":22627:22932   */\n      swap3\n      swap2\n      pop\n      pop\n      jump\t// out\n        /* \"#utility.yul\":22938:23123   */\n    tag_255:\n        /* \"#utility.yul\":22978:22979   */\n      0x00\n        /* \"#utility.yul\":22995:23015   */\n      tag_538\n        /* \"#utility.yul\":23013:23014   */\n      dup3\n        /* \"#utility.yul\":22995:23015   */\n      tag_471\n      jump\t// in\n    tag_538:\n        /* \"#utility.yul\":22990:23015   */\n      swap2\n      pop\n        /* \"#utility.yul\":23029:23049   */\n      tag_539\n        /* \"#utility.yul\":23047:23048   */\n      dup4\n        /* \"#utility.yul\":23029:23049   */\n      tag_471\n      jump\t// in\n    tag_539:\n        /* \"#utility.yul\":23024:23049   */\n      swap3\n      pop\n        /* \"#utility.yul\":23068:23069   */\n      dup3\n        /* \"#utility.yul\":23058:23093   */\n      tag_540\n      jumpi\n        /* \"#utility.yul\":23073:23091   */\n      tag_541\n      tag_542\n      jump\t// in\n    tag_541:\n        /* \"#utility.yul\":23058:23093   */\n    tag_540:\n        /* \"#utility.yul\":23115:23116   */\n      dup3\n        /* \"#utility.yul\":23112:23113   */\n      dup3\n        /* \"#utility.yul\":23108:23117   */\n      div\n        /* \"#utility.yul\":23103:23117   */\n      swap1\n      pop\n        /* \"#utility.yul\":22938:23123   */\n      swap3\n      swap2\n      pop\n      pop\n      jump\t// out\n        /* \"#utility.yul\":23129:23320   */\n    tag_199:\n        /* \"#utility.yul\":23169:23173   */\n      0x00\n        /* \"#utility.yul\":23189:23209   */\n      tag_544\n        /* \"#utility.yul\":23207:23208   */\n      dup3\n        /* \"#utility.yul\":23189:23209   */\n      tag_471\n      jump\t// in\n    tag_544:\n        /* \"#utility.yul\":23184:23209   */\n      swap2\n      pop\n        /* \"#utility.yul\":23223:23243   */\n      tag_545\n        /* \"#utility.yul\":23241:23242   */\n      dup4\n        /* \"#utility.yul\":23223:23243   */\n      tag_471\n      jump\t// in\n    tag_545:\n        /* \"#utility.yul\":23218:23243   */\n      swap3\n      pop\n        /* \"#utility.yul\":23262:23263   */\n      dup3\n        /* \"#utility.yul\":23259:23260   */\n      dup3\n        /* \"#utility.yul\":23256:23264   */\n      lt\n        /* \"#utility.yul\":23253:23287   */\n      iszero\n      tag_546\n      jumpi\n        /* \"#utility.yul\":23267:23285   */\n      tag_547\n      tag_536\n      jump\t// in\n    tag_547:\n        /* \"#utility.yul\":23253:23287   */\n    tag_546:\n        /* \"#utility.yul\":23312:23313   */\n      dup3\n        /* \"#utility.yul\":23309:23310   */\n      dup3\n        /* \"#utility.yul\":23305:23314   */\n      sub\n        /* \"#utility.yul\":23297:23314   */\n      swap1\n      pop\n        /* \"#utility.yul\":23129:23320   */\n      swap3\n      swap2\n      pop\n      pop\n      jump\t// out\n        /* \"#utility.yul\":23326:23422   */\n    tag_369:\n        /* \"#utility.yul\":23363:23370   */\n      0x00\n        /* \"#utility.yul\":23392:23416   */\n      tag_549\n        /* \"#utility.yul\":23410:23415   */\n      dup3\n        /* \"#utility.yul\":23392:23416   */\n      tag_550\n      jump\t// in\n    tag_549:\n        /* \"#utility.yul\":23381:23416   */\n      swap1\n      pop\n        /* \"#utility.yul\":23326:23422   */\n      swap2\n      swap1\n      pop\n      jump\t// out\n        /* \"#utility.yul\":23428:23518   */\n    tag_373:\n        /* \"#utility.yul\":23462:23469   */\n      0x00\n        /* \"#utility.yul\":23505:23510   */\n      dup2\n        /* \"#utility.yul\":23498:23511   */\n      iszero\n        /* \"#utility.yul\":23491:23512   */\n      iszero\n        /* \"#utility.yul\":23480:23512   */\n      swap1\n      pop\n        /* \"#utility.yul\":23428:23518   */\n      swap2\n      swap1\n      pop\n      jump\t// out\n        /* \"#utility.yul\":23524:23673   */\n    tag_552:\n        /* \"#utility.yul\":23560:23567   */\n      0x00\n        /* \"#utility.yul\":23600:23666   */\n      0xffffffff00000000000000000000000000000000000000000000000000000000\n        /* \"#utility.yul\":23593:23598   */\n      dup3\n        /* \"#utility.yul\":23589:23667   */\n      and\n        /* \"#utility.yul\":23578:23667   */\n      swap1\n      pop\n        /* \"#utility.yul\":23524:23673   */\n      swap2\n      swap1\n      pop\n      jump\t// out\n        /* \"#utility.yul\":23679:23805   */\n    tag_550:\n        /* \"#utility.yul\":23716:23723   */\n      0x00\n        /* \"#utility.yul\":23756:23798   */\n      0xffffffffffffffffffffffffffffffffffffffff\n        /* \"#utility.yul\":23749:23754   */\n      dup3\n        /* \"#utility.yul\":23745:23799   */\n      and\n        /* \"#utility.yul\":23734:23799   */\n      swap1\n      pop\n        /* \"#utility.yul\":23679:23805   */\n      swap2\n      swap1\n      pop\n      jump\t// out\n        /* \"#utility.yul\":23811:23888   */\n    tag_471:\n        /* \"#utility.yul\":23848:23855   */\n      0x00\n        /* \"#utility.yul\":23877:23882   */\n      dup2\n        /* \"#utility.yul\":23866:23882   */\n      swap1\n      pop\n        /* \"#utility.yul\":23811:23888   */\n      swap2\n      swap1\n      pop\n      jump\t// out\n        /* \"#utility.yul\":23894:24048   */\n    tag_284:\n        /* \"#utility.yul\":23978:23984   */\n      dup3\n        /* \"#utility.yul\":23973:23976   */\n      dup2\n        /* \"#utility.yul\":23968:23971   */\n      dup4\n        /* \"#utility.yul\":23955:23985   */\n      calldatacopy\n        /* \"#utility.yul\":24040:24041   */\n      0x00\n        /* \"#utility.yul\":24031:24037   */\n      dup4\n        /* \"#utility.yul\":24026:24029   */\n      dup4\n        /* \"#utility.yul\":24022:24038   */\n      add\n        /* \"#utility.yul\":24015:24042   */\n      mstore\n        /* \"#utility.yul\":23894:24048   */\n      pop\n      pop\n      pop\n      jump\t// out\n        /* \"#utility.yul\":24054:24361   */\n    tag_381:\n        /* \"#utility.yul\":24122:24123   */\n      0x00\n        /* \"#utility.yul\":24132:24245   */\n    tag_558:\n        /* \"#utility.yul\":24146:24152   */\n      dup4\n        /* \"#utility.yul\":24143:24144   */\n      dup2\n        /* \"#utility.yul\":24140:24153   */\n      lt\n        /* \"#utility.yul\":24132:24245   */\n      iszero\n      tag_560\n      jumpi\n        /* \"#utility.yul\":24231:24232   */\n      dup1\n        /* \"#utility.yul\":24226:24229   */\n      dup3\n        /* \"#utility.yul\":24222:24233   */\n      add\n        /* \"#utility.yul\":24216:24234   */\n      mload\n        /* \"#utility.yul\":24212:24213   */\n      dup2\n        /* \"#utility.yul\":24207:24210   */\n      dup5\n        /* \"#utility.yul\":24203:24214   */\n      add\n        /* \"#utility.yul\":24196:24235   */\n      mstore\n        /* \"#utility.yul\":24168:24170   */\n      0x20\n        /* \"#utility.yul\":24165:24166   */\n      dup2\n        /* \"#utility.yul\":24161:24171   */\n      add\n        /* \"#utility.yul\":24156:24171   */\n      swap1\n      pop\n        /* \"#utility.yul\":24132:24245   */\n      jump(tag_558)\n    tag_560:\n        /* \"#utility.yul\":24263:24269   */\n      dup4\n        /* \"#utility.yul\":24260:24261   */\n      dup2\n        /* \"#utility.yul\":24257:24270   */\n      gt\n        /* \"#utility.yul\":24254:24355   */\n      iszero\n      tag_561\n      jumpi\n        /* \"#utility.yul\":24343:24344   */\n      0x00\n        /* \"#utility.yul\":24334:24340   */\n      dup5\n        /* \"#utility.yul\":24329:24332   */\n      dup5\n        /* \"#utility.yul\":24325:24341   */\n      add\n        /* \"#utility.yul\":24318:24345   */\n      mstore\n        /* \"#utility.yul\":24254:24355   */\n    tag_561:\n        /* \"#utility.yul\":24103:24361   */\n      pop\n        /* \"#utility.yul\":24054:24361   */\n      pop\n      pop\n      pop\n      jump\t// out\n        /* \"#utility.yul\":24367:24687   */\n    tag_88:\n        /* \"#utility.yul\":24411:24417   */\n      0x00\n        /* \"#utility.yul\":24448:24449   */\n      0x02\n        /* \"#utility.yul\":24442:24446   */\n      dup3\n        /* \"#utility.yul\":24438:24450   */\n      div\n        /* \"#utility.yul\":24428:24450   */\n      swap1\n      pop\n        /* \"#utility.yul\":24495:24496   */\n      0x01\n        /* \"#utility.yul\":24489:24493   */\n      dup3\n        /* \"#utility.yul\":24485:24497   */\n      and\n        /* \"#utility.yul\":24516:24534   */\n      dup1\n        /* \"#utility.yul\":24506:24587   */\n      tag_563\n      jumpi\n        /* \"#utility.yul\":24572:24576   */\n      0x7f\n        /* \"#utility.yul\":24564:24570   */\n      dup3\n        /* \"#utility.yul\":24560:24577   */\n      and\n        /* \"#utility.yul\":24550:24577   */\n      swap2\n      pop\n        /* \"#utility.yul\":24506:24587   */\n    tag_563:\n        /* \"#utility.yul\":24634:24636   */\n      0x20\n        /* \"#utility.yul\":24626:24632   */\n      dup3\n        /* \"#utility.yul\":24623:24637   */\n      lt\n        /* \"#utility.yul\":24603:24621   */\n      dup2\n        /* \"#utility.yul\":24600:24638   */\n      eq\n        /* \"#utility.yul\":24597:24681   */\n      iszero\n      tag_564\n      jumpi\n        /* \"#utility.yul\":24653:24671   */\n      tag_565\n      tag_566\n      jump\t// in\n    tag_565:\n        /* \"#utility.yul\":24597:24681   */\n    tag_564:\n        /* \"#utility.yul\":24418:24687   */\n      pop\n        /* \"#utility.yul\":24367:24687   */\n      swap2\n      swap1\n      pop\n      jump\t// out\n        /* \"#utility.yul\":24693:24974   */\n    tag_520:\n        /* \"#utility.yul\":24776:24803   */\n      tag_568\n        /* \"#utility.yul\":24798:24802   */\n      dup3\n        /* \"#utility.yul\":24776:24803   */\n      tag_383\n      jump\t// in\n    tag_568:\n        /* \"#utility.yul\":24768:24774   */\n      dup2\n        /* \"#utility.yul\":24764:24804   */\n      add\n        /* \"#utility.yul\":24906:24912   */\n      dup2\n        /* \"#utility.yul\":24894:24904   */\n      dup2\n        /* \"#utility.yul\":24891:24913   */\n      lt\n        /* \"#utility.yul\":24870:24888   */\n      0xffffffffffffffff\n        /* \"#utility.yul\":24858:24868   */\n      dup3\n        /* \"#utility.yul\":24855:24889   */\n      gt\n        /* \"#utility.yul\":24852:24914   */\n      or\n        /* \"#utility.yul\":24849:24937   */\n      iszero\n      tag_569\n      jumpi\n        /* \"#utility.yul\":24917:24935   */\n      tag_570\n      tag_258\n      jump\t// in\n    tag_570:\n        /* \"#utility.yul\":24849:24937   */\n    tag_569:\n        /* \"#utility.yul\":24957:24967   */\n      dup1\n        /* \"#utility.yul\":24953:24955   */\n      0x40\n        /* \"#utility.yul\":24946:24968   */\n      mstore\n        /* \"#utility.yul\":24736:24974   */\n      pop\n        /* \"#utility.yul\":24693:24974   */\n      pop\n      pop\n      jump\t// out\n        /* \"#utility.yul\":24980:25213   */\n    tag_253:\n        /* \"#utility.yul\":25019:25022   */\n      0x00\n        /* \"#utility.yul\":25042:25066   */\n      tag_572\n        /* \"#utility.yul\":25060:25065   */\n      dup3\n        /* \"#utility.yul\":25042:25066   */\n      tag_471\n      jump\t// in\n    tag_572:\n        /* \"#utility.yul\":25033:25066   */\n      swap2\n      pop\n        /* \"#utility.yul\":25088:25154   */\n      0xffffffffffffffffffffffffffffffffffffffffffffffffffffffffffffffff\n        /* \"#utility.yul\":25081:25086   */\n      dup3\n        /* \"#utility.yul\":25078:25155   */\n      eq\n        /* \"#utility.yul\":25075:25178   */\n      iszero\n      tag_573\n      jumpi\n        /* \"#utility.yul\":25158:25176   */\n      tag_574\n      tag_536\n      jump\t// in\n    tag_574:\n        /* \"#utility.yul\":25075:25178   */\n    tag_573:\n        /* \"#utility.yul\":25205:25206   */\n      0x01\n        /* \"#utility.yul\":25198:25203   */\n      dup3\n        /* \"#utility.yul\":25194:25207   */\n      add\n        /* \"#utility.yul\":25187:25207   */\n      swap1\n      pop\n        /* \"#utility.yul\":24980:25213   */\n      swap2\n      swap1\n      pop\n      jump\t// out\n        /* \"#utility.yul\":25219:25395   */\n    tag_264:\n        /* \"#utility.yul\":25251:25252   */\n      0x00\n        /* \"#utility.yul\":25268:25288   */\n      tag_576\n        /* \"#utility.yul\":25286:25287   */\n      dup3\n        /* \"#utility.yul\":25268:25288   */\n      tag_471\n      jump\t// in\n    tag_576:\n        /* \"#utility.yul\":25263:25288   */\n      swap2\n      pop\n        /* \"#utility.yul\":25302:25322   */\n      tag_577\n        /* \"#utility.yul\":25320:25321   */\n      dup4\n        /* \"#utility.yul\":25302:25322   */\n      tag_471\n      jump\t// in\n    tag_577:\n        /* \"#utility.yul\":25297:25322   */\n      swap3\n      pop\n        /* \"#utility.yul\":25341:25342   */\n      dup3\n        /* \"#utility.yul\":25331:25366   */\n      tag_578\n      jumpi\n        /* \"#utility.yul\":25346:25364   */\n      tag_579\n      tag_542\n      jump\t// in\n    tag_579:\n        /* \"#utility.yul\":25331:25366   */\n    tag_578:\n        /* \"#utility.yul\":25387:25388   */\n      dup3\n        /* \"#utility.yul\":25384:25385   */\n      dup3\n        /* \"#utility.yul\":25380:25389   */\n      mod\n        /* \"#utility.yul\":25375:25389   */\n      swap1\n      pop\n        /* \"#utility.yul\":25219:25395   */\n      swap3\n      swap2\n      pop\n      pop\n      jump\t// out\n        /* \"#utility.yul\":25401:25581   */\n    tag_536:\n        /* \"#utility.yul\":25449:25526   */\n      0x4e487b7100000000000000000000000000000000000000000000000000000000\n        /* \"#utility.yul\":25446:25447   */\n      0x00\n        /* \"#utility.yul\":25439:25527   */\n      mstore\n        /* \"#utility.yul\":25546:25550   */\n      0x11\n        /* \"#utility.yul\":25543:25544   */\n      0x04\n        /* \"#utility.yul\":25536:25551   */\n      mstore\n        /* \"#utility.yul\":25570:25574   */\n      0x24\n        /* \"#utility.yul\":25567:25568   */\n      0x00\n        /* \"#utility.yul\":25560:25575   */\n      revert\n        /* \"#utility.yul\":25587:25767   */\n    tag_542:\n        /* \"#utility.yul\":25635:25712   */\n      0x4e487b7100000000000000000000000000000000000000000000000000000000\n        /* \"#utility.yul\":25632:25633   */\n      0x00\n        /* \"#utility.yul\":25625:25713   */\n      mstore\n        /* \"#utility.yul\":25732:25736   */\n      0x12\n        /* \"#utility.yul\":25729:25730   */\n      0x04\n        /* \"#utility.yul\":25722:25737   */\n      mstore\n        /* \"#utility.yul\":25756:25760   */\n      0x24\n        /* \"#utility.yul\":25753:25754   */\n      0x00\n        /* \"#utility.yul\":25746:25761   */\n      revert\n        /* \"#utility.yul\":25773:25953   */\n    tag_566:\n        /* \"#utility.yul\":25821:25898   */\n      0x4e487b7100000000000000000000000000000000000000000000000000000000\n        /* \"#utility.yul\":25818:25819   */\n      0x00\n        /* \"#utility.yul\":25811:25899   */\n      mstore\n        /* \"#utility.yul\":25918:25922   */\n      0x22\n        /* \"#utility.yul\":25915:25916   */\n      0x04\n        /* \"#utility.yul\":25908:25923   */\n      mstore\n        /* \"#utility.yul\":25942:25946   */\n      0x24\n        /* \"#utility.yul\":25939:25940   */\n      0x00\n        /* \"#utility.yul\":25932:25947   */\n      revert\n        /* \"#utility.yul\":25959:26139   */\n    tag_268:\n        /* \"#utility.yul\":26007:26084   */\n      0x4e487b7100000000000000000000000000000000000000000000000000000000\n        /* \"#utility.yul\":26004:26005   */\n      0x00\n        /* \"#utility.yul\":25997:26085   */\n      mstore\n        /* \"#utility.yul\":26104:26108   */\n      0x32\n        /* \"#utility.yul\":26101:26102   */\n      0x04\n        /* \"#utility.yul\":26094:26109   */\n      mstore\n        /* \"#utility.yul\":26128:26132   */\n      0x24\n        /* \"#utility.yul\":26125:26126   */\n      0x00\n        /* \"#utility.yul\":26118:26133   */\n      revert\n        /* \"#utility.yul\":26145:26325   */\n    tag_258:\n        /* \"#utility.yul\":26193:26270   */\n      0x4e487b7100000000000000000000000000000000000000000000000000000000\n        /* \"#utility.yul\":26190:26191   */\n      0x00\n        /* \"#utility.yul\":26183:26271   */\n      mstore\n        /* \"#utility.yul\":26290:26294   */\n      0x41\n        /* \"#utility.yul\":26287:26288   */\n      0x04\n        /* \"#utility.yul\":26280:26295   */\n      mstore\n        /* \"#utility.yul\":26314:26318   */\n      0x24\n        /* \"#utility.yul\":26311:26312   */\n      0x00\n        /* \"#utility.yul\":26304:26319   */\n      revert\n        /* \"#utility.yul\":26331:26448   */\n    tag_304:\n        /* \"#utility.yul\":26440:26441   */\n      0x00\n        /* \"#utility.yul\":26437:26438   */\n      dup1\n        /* \"#utility.yul\":26430:26442   */\n      revert\n        /* \"#utility.yul\":26454:26571   */\n    tag_282:\n        /* \"#utility.yul\":26563:26564   */\n      0x00\n        /* \"#utility.yul\":26560:26561   */\n      dup1\n        /* \"#utility.yul\":26553:26565   */\n      revert\n        /* \"#utility.yul\":26577:26694   */\n    tag_334:\n        /* \"#utility.yul\":26686:26687   */\n      0x00\n        /* \"#utility.yul\":26683:26684   */\n      dup1\n        /* \"#utility.yul\":26676:26688   */\n      revert\n        /* \"#utility.yul\":26700:26817   */\n    tag_313:\n        /* \"#utility.yul\":26809:26810   */\n      0x00\n        /* \"#utility.yul\":26806:26807   */\n      dup1\n        /* \"#utility.yul\":26799:26811   */\n      revert\n        /* \"#utility.yul\":26823:26925   */\n    tag_383:\n        /* \"#utility.yul\":26864:26870   */\n      0x00\n        /* \"#utility.yul\":26915:26917   */\n      0x1f\n        /* \"#utility.yul\":26911:26918   */\n      not\n        /* \"#utility.yul\":26906:26908   */\n      0x1f\n        /* \"#utility.yul\":26899:26904   */\n      dup4\n        /* \"#utility.yul\":26895:26909   */\n      add\n        /* \"#utility.yul\":26891:26919   */\n      and\n        /* \"#utility.yul\":26881:26919   */\n      swap1\n      pop\n        /* \"#utility.yul\":26823:26925   */\n      swap2\n      swap1\n      pop\n      jump\t// out\n        /* \"#utility.yul\":26931:27168   */\n    tag_402:\n        /* \"#utility.yul\":27071:27105   */\n      0x4552433732313a207472616e7366657220746f206e6f6e204552433732315265\n        /* \"#utility.yul\":27067:27068   */\n      0x00\n        /* \"#utility.yul\":27059:27065   */\n      dup3\n        /* \"#utility.yul\":27055:27069   */\n      add\n        /* \"#utility.yul\":27048:27106   */\n      mstore\n        /* \"#utility.yul\":27140:27160   */\n      0x63656976657220696d706c656d656e7465720000000000000000000000000000\n        /* \"#utility.yul\":27135:27137   */\n      0x20\n        /* \"#utility.yul\":27127:27133   */\n      dup3\n        /* \"#utility.yul\":27123:27138   */\n      add\n        /* \"#utility.yul\":27116:27161   */\n      mstore\n        /* \"#utility.yul\":26931:27168   */\n      pop\n      jump\t// out\n        /* \"#utility.yul\":27174:27398   */\n    tag_407:\n        /* \"#utility.yul\":27314:27348   */\n      0x4552433732313a207472616e736665722066726f6d20696e636f727265637420\n        /* \"#utility.yul\":27310:27311   */\n      0x00\n        /* \"#utility.yul\":27302:27308   */\n      dup3\n        /* \"#utility.yul\":27298:27312   */\n      add\n        /* \"#utility.yul\":27291:27349   */\n      mstore\n        /* \"#utility.yul\":27383:27390   */\n      0x6f776e6572000000000000000000000000000000000000000000000000000000\n        /* \"#utility.yul\":27378:27380   */\n      0x20\n        /* \"#utility.yul\":27370:27376   */\n      dup3\n        /* \"#utility.yul\":27366:27381   */\n      add\n        /* \"#utility.yul\":27359:27391   */\n      mstore\n        /* \"#utility.yul\":27174:27398   */\n      pop\n      jump\t// out\n        /* \"#utility.yul\":27404:27582   */\n    tag_412:\n        /* \"#utility.yul\":27544:27574   */\n      0x4552433732313a20746f6b656e20616c7265616479206d696e74656400000000\n        /* \"#utility.yul\":27540:27541   */\n      0x00\n        /* \"#utility.yul\":27532:27538   */\n      dup3\n        /* \"#utility.yul\":27528:27542   */\n      add\n        /* \"#utility.yul\":27521:27575   */\n      mstore\n        /* \"#utility.yul\":27404:27582   */\n      pop\n      jump\t// out\n        /* \"#utility.yul\":27588:27811   */\n    tag_417:\n        /* \"#utility.yul\":27728:27762   */\n      0x4552433732313a207472616e7366657220746f20746865207a65726f20616464\n        /* \"#utility.yul\":27724:27725   */\n      0x00\n        /* \"#utility.yul\":27716:27722   */\n      dup3\n        /* \"#utility.yul\":27712:27726   */\n      add\n        /* \"#utility.yul\":27705:27763   */\n      mstore\n        /* \"#utility.yul\":27797:27803   */\n      0x7265737300000000000000000000000000000000000000000000000000000000\n        /* \"#utility.yul\":27792:27794   */\n      0x20\n        /* \"#utility.yul\":27784:27790   */\n      dup3\n        /* \"#utility.yul\":27780:27795   */\n      add\n        /* \"#utility.yul\":27773:27804   */\n      mstore\n        /* \"#utility.yul\":27588:27811   */\n      pop\n      jump\t// out\n        /* \"#utility.yul\":27817:27992   */\n    tag_422:\n        /* \"#utility.yul\":27957:27984   */\n      0x4552433732313a20617070726f766520746f2063616c6c657200000000000000\n        /* \"#utility.yul\":27953:27954   */\n      0x00\n        /* \"#utility.yul\":27945:27951   */\n      dup3\n        /* \"#utility.yul\":27941:27955   */\n      add\n        /* \"#utility.yul\":27934:27985   */\n      mstore\n        /* \"#utility.yul\":27817:27992   */\n      pop\n      jump\t// out\n        /* \"#utility.yul\":27998:28229   */\n    tag_427:\n        /* \"#utility.yul\":28138:28172   */\n      0x4552433732313a206f70657261746f7220717565727920666f72206e6f6e6578\n        /* \"#utility.yul\":28134:28135   */\n      0x00\n        /* \"#utility.yul\":28126:28132   */\n      dup3\n        /* \"#utility.yul\":28122:28136   */\n      add\n        /* \"#utility.yul\":28115:28173   */\n      mstore\n        /* \"#utility.yul\":28207:28221   */\n      0x697374656e7420746f6b656e0000000000000000000000000000000000000000\n        /* \"#utility.yul\":28202:28204   */\n      0x20\n        /* \"#utility.yul\":28194:28200   */\n      dup3\n        /* \"#utility.yul\":28190:28205   */\n      add\n        /* \"#utility.yul\":28183:28222   */\n      mstore\n        /* \"#utility.yul\":27998:28229   */\n      pop\n      jump\t// out\n        /* \"#utility.yul\":28235:28478   */\n    tag_432:\n        /* \"#utility.yul\":28375:28409   */\n      0x4552433732313a20617070726f76652063616c6c6572206973206e6f74206f77\n        /* \"#utility.yul\":28371:28372   */\n      0x00\n        /* \"#utility.yul\":28363:28369   */\n      dup3\n        /* \"#utility.yul\":28359:28373   */\n      add\n        /* \"#utility.yul\":28352:28410   */\n      mstore\n        /* \"#utility.yul\":28444:28470   */\n      0x6e6572206e6f7220617070726f76656420666f7220616c6c0000000000000000\n        /* \"#utility.yul\":28439:28441   */\n      0x20\n        /* \"#utility.yul\":28431:28437   */\n      dup3\n        /* \"#utility.yul\":28427:28442   */\n      add\n        /* \"#utility.yul\":28420:28471   */\n      mstore\n        /* \"#utility.yul\":28235:28478   */\n      pop\n      jump\t// out\n        /* \"#utility.yul\":28484:28713   */\n    tag_437:\n        /* \"#utility.yul\":28624:28658   */\n      0x4552433732313a2062616c616e636520717565727920666f7220746865207a65\n        /* \"#utility.yul\":28620:28621   */\n      0x00\n        /* \"#utility.yul\":28612:28618   */\n      dup3\n        /* \"#utility.yul\":28608:28622   */\n      add\n        /* \"#utility.yul\":28601:28659   */\n      mstore\n        /* \"#utility.yul\":28693:28705   */\n      0x726f206164647265737300000000000000000000000000000000000000000000\n        /* \"#utility.yul\":28688:28690   */\n      0x20\n        /* \"#utility.yul\":28680:28686   */\n      dup3\n        /* \"#utility.yul\":28676:28691   */\n      add\n        /* \"#utility.yul\":28669:28706   */\n      mstore\n        /* \"#utility.yul\":28484:28713   */\n      pop\n      jump\t// out\n        /* \"#utility.yul\":28719:28947   */\n    tag_442:\n        /* \"#utility.yul\":28859:28893   */\n      0x4552433732313a206f776e657220717565727920666f72206e6f6e6578697374\n        /* \"#utility.yul\":28855:28856   */\n      0x00\n        /* \"#utility.yul\":28847:28853   */\n      dup3\n        /* \"#utility.yul\":28843:28857   */\n      add\n        /* \"#utility.yul\":28836:28894   */\n      mstore\n        /* \"#utility.yul\":28928:28939   */\n      0x656e7420746f6b656e0000000000000000000000000000000000000000000000\n        /* \"#utility.yul\":28923:28925   */\n      0x20\n        /* \"#utility.yul\":28915:28921   */\n      dup3\n        /* \"#utility.yul\":28911:28926   */\n      add\n        /* \"#utility.yul\":28904:28940   */\n      mstore\n        /* \"#utility.yul\":28719:28947   */\n      pop\n      jump\t// out\n        /* \"#utility.yul\":28953:29135   */\n    tag_447:\n        /* \"#utility.yul\":29093:29127   */\n      0x4552433732313a206d696e7420746f20746865207a65726f2061646472657373\n        /* \"#utility.yul\":29089:29090   */\n      0x00\n        /* \"#utility.yul\":29081:29087   */\n      dup3\n        /* \"#utility.yul\":29077:29091   */\n      add\n        /* \"#utility.yul\":29070:29128   */\n      mstore\n        /* \"#utility.yul\":28953:29135   */\n      pop\n      jump\t// out\n        /* \"#utility.yul\":29141:29372   */\n    tag_452:\n        /* \"#utility.yul\":29281:29315   */\n      0x4552433732313a20617070726f76656420717565727920666f72206e6f6e6578\n        /* \"#utility.yul\":29277:29278   */\n      0x00\n        /* \"#utility.yul\":29269:29275   */\n      dup3\n        /* \"#utility.yul\":29265:29279   */\n      add\n        /* \"#utility.yul\":29258:29316   */\n      mstore\n        /* \"#utility.yul\":29350:29364   */\n      0x697374656e7420746f6b656e0000000000000000000000000000000000000000\n        /* \"#utility.yul\":29345:29347   */\n      0x20\n        /* \"#utility.yul\":29337:29343   */\n      dup3\n        /* \"#utility.yul\":29333:29348   */\n      add\n        /* \"#utility.yul\":29326:29365   */\n      mstore\n        /* \"#utility.yul\":29141:29372   */\n      pop\n      jump\t// out\n        /* \"#utility.yul\":29378:29612   */\n    tag_457:\n        /* \"#utility.yul\":29518:29552   */\n      0x4552433732314d657461646174613a2055524920717565727920666f72206e6f\n        /* \"#utility.yul\":29514:29515   */\n      0x00\n        /* \"#utility.yul\":29506:29512   */\n      dup3\n        /* \"#utility.yul\":29502:29516   */\n      add\n        /* \"#utility.yul\":29495:29553   */\n      mstore\n        /* \"#utility.yul\":29587:29604   */\n      0x6e6578697374656e7420746f6b656e0000000000000000000000000000000000\n        /* \"#utility.yul\":29582:29584   */\n      0x20\n        /* \"#utility.yul\":29574:29580   */\n      dup3\n        /* \"#utility.yul\":29570:29585   */\n      add\n        /* \"#utility.yul\":29563:29605   */\n      mstore\n        /* \"#utility.yul\":29378:29612   */\n      pop\n      jump\t// out\n        /* \"#utility.yul\":29618:29838   */\n    tag_462:\n        /* \"#utility.yul\":29758:29792   */\n      0x4552433732313a20617070726f76616c20746f2063757272656e74206f776e65\n        /* \"#utility.yul\":29754:29755   */\n      0x00\n        /* \"#utility.yul\":29746:29752   */\n      dup3\n        /* \"#utility.yul\":29742:29756   */\n      add\n        /* \"#utility.yul\":29735:29793   */\n      mstore\n        /* \"#utility.yul\":29827:29830   */\n      0x7200000000000000000000000000000000000000000000000000000000000000\n        /* \"#utility.yul\":29822:29824   */\n      0x20\n        /* \"#utility.yul\":29814:29820   */\n      dup3\n        /* \"#utility.yul\":29810:29825   */\n      add\n        /* \"#utility.yul\":29803:29831   */\n      mstore\n        /* \"#utility.yul\":29618:29838   */\n      pop\n      jump\t// out\n        /* \"#utility.yul\":29844:30080   */\n    tag_467:\n        /* \"#utility.yul\":29984:30018   */\n      0x4552433732313a207472616e736665722063616c6c6572206973206e6f74206f\n        /* \"#utility.yul\":29980:29981   */\n      0x00\n        /* \"#utility.yul\":29972:29978   */\n      dup3\n        /* \"#utility.yul\":29968:29982   */\n      add\n        /* \"#utility.yul\":29961:30019   */\n      mstore\n        /* \"#utility.yul\":30053:30072   */\n      0x776e6572206e6f7220617070726f766564000000000000000000000000000000\n        /* \"#utility.yul\":30048:30050   */\n      0x20\n        /* \"#utility.yul\":30040:30046   */\n      dup3\n        /* \"#utility.yul\":30036:30051   */\n      add\n        /* \"#utility.yul\":30029:30073   */\n      mstore\n        /* \"#utility.yul\":29844:30080   */\n      pop\n      jump\t// out\n        /* \"#utility.yul\":30086:30208   */\n    tag_288:\n        /* \"#utility.yul\":30159:30183   */\n      tag_605\n        /* \"#utility.yul\":30177:30182   */\n      dup2\n        /* \"#utility.yul\":30159:30183   */\n      tag_369\n      jump\t// in\n    tag_605:\n        /* \"#utility.yul\":30152:30157   */\n      dup2\n        /* \"#utility.yul\":30149:30184   */\n      eq\n        /* \"#utility.yul\":30139:30202   */\n      tag_606\n      jumpi\n        /* \"#utility.yul\":30198:30199   */\n      0x00\n        /* \"#utility.yul\":30195:30196   */\n      dup1\n        /* \"#utility.yul\":30188:30200   */\n      revert\n        /* \"#utility.yul\":30139:30202   */\n    tag_606:\n        /* \"#utility.yul\":30086:30208   */\n      pop\n      jump\t// out\n        /* \"#utility.yul\":30214:30330   */\n    tag_292:\n        /* \"#utility.yul\":30284:30305   */\n      tag_608\n        /* \"#utility.yul\":30299:30304   */\n      dup2\n        /* \"#utility.yul\":30284:30305   */\n      tag_373\n      jump\t// in\n    tag_608:\n        /* \"#utility.yul\":30277:30282   */\n      dup2\n        /* \"#utility.yul\":30274:30306   */\n      eq\n        /* \"#utility.yul\":30264:30324   */\n      tag_609\n      jumpi\n        /* \"#utility.yul\":30320:30321   */\n      0x00\n        /* \"#utility.yul\":30317:30318   */\n      dup1\n        /* \"#utility.yul\":30310:30322   */\n      revert\n        /* \"#utility.yul\":30264:30324   */\n    tag_609:\n        /* \"#utility.yul\":30214:30330   */\n      pop\n      jump\t// out\n        /* \"#utility.yul\":30336:30456   */\n    tag_296:\n        /* \"#utility.yul\":30408:30431   */\n      tag_611\n        /* \"#utility.yul\":30425:30430   */\n      dup2\n        /* \"#utility.yul\":30408:30431   */\n      tag_552\n      jump\t// in\n    tag_611:\n        /* \"#utility.yul\":30401:30406   */\n      dup2\n        /* \"#utility.yul\":30398:30432   */\n      eq\n        /* \"#utility.yul\":30388:30450   */\n      tag_612\n      jumpi\n        /* \"#utility.yul\":30446:30447   */\n      0x00\n        /* \"#utility.yul\":30443:30444   */\n      dup1\n        /* \"#utility.yul\":30436:30448   */\n      revert\n        /* \"#utility.yul\":30388:30450   */\n    tag_612:\n        /* \"#utility.yul\":30336:30456   */\n      pop\n      jump\t// out\n        /* \"#utility.yul\":30462:30584   */\n    tag_309:\n        /* \"#utility.yul\":30535:30559   */\n      tag_614\n        /* \"#utility.yul\":30553:30558   */\n      dup2\n        /* \"#utility.yul\":30535:30559   */\n      tag_471\n      jump\t// in\n    tag_614:\n        /* \"#utility.yul\":30528:30533   */\n      dup2\n        /* \"#utility.yul\":30525:30560   */\n      eq\n        /* \"#utility.yul\":30515:30578   */\n      tag_615\n      jumpi\n        /* \"#utility.yul\":30574:30575   */\n      0x00\n        /* \"#utility.yul\":30571:30572   */\n      dup1\n        /* \"#utility.yul\":30564:30576   */\n      revert\n        /* \"#utility.yul\":30515:30578   */\n    tag_615:\n        /* \"#utility.yul\":30462:30584   */\n      pop\n      jump\t// out\n\n    auxdata: 0xa26469706673582212205655de98972b8f15e5229b8caefe8e5b4e2267593025aaaee1129e944e6a987c64736f6c63430008070033\n}\n",
				"bytecode": {
					"linkReferences": {},
					"object": "60806040523480156200001157600080fd5b5060405162002d0838038062002d088339818101604052810190620000379190620002a8565b620000687f01ffc9a700000000000000000000000000000000000000000000000000000000620000a260201b60201c565b8160019080519060200190620000809291906200017a565b508060029080519060200190620000999291906200017a565b50505062000534565b63ffffffff60e01b817bffffffffffffffffffffffffffffffffffffffffffffffffffffffff191614156200010e576040517f08c379a0000000000000000000000000000000000000000000000000000000008152600401620001059062000354565b60405180910390fd5b6001600080837bffffffffffffffffffffffffffffffffffffffffffffffffffffffff19167bffffffffffffffffffffffffffffffffffffffffffffffffffffffff1916815260200190815260200160002060006101000a81548160ff02191690831515021790555050565b82805462000188906200041c565b90600052602060002090601f016020900481019282620001ac5760008555620001f8565b82601f10620001c757805160ff1916838001178555620001f8565b82800160010185558215620001f8579182015b82811115620001f7578251825591602001919060010190620001da565b5b5090506200020791906200020b565b5090565b5b80821115620002265760008160009055506001016200020c565b5090565b6000620002416200023b846200039f565b62000376565b90508281526020810184848401111562000260576200025f620004eb565b5b6200026d848285620003e6565b509392505050565b600082601f8301126200028d576200028c620004e6565b5b81516200029f8482602086016200022a565b91505092915050565b60008060408385031215620002c257620002c1620004f5565b5b600083015167ffffffffffffffff811115620002e357620002e2620004f0565b5b620002f18582860162000275565b925050602083015167ffffffffffffffff811115620003155762000314620004f0565b5b620003238582860162000275565b9150509250929050565b60006200033c601c83620003d5565b915062000349826200050b565b602082019050919050565b600060208201905081810360008301526200036f816200032d565b9050919050565b60006200038262000395565b905062000390828262000452565b919050565b6000604051905090565b600067ffffffffffffffff821115620003bd57620003bc620004b7565b5b620003c882620004fa565b9050602081019050919050565b600082825260208201905092915050565b60005b8381101562000406578082015181840152602081019050620003e9565b8381111562000416576000848401525b50505050565b600060028204905060018216806200043557607f821691505b602082108114156200044c576200044b62000488565b5b50919050565b6200045d82620004fa565b810181811067ffffffffffffffff821117156200047f576200047e620004b7565b5b80604052505050565b7f4e487b7100000000000000000000000000000000000000000000000000000000600052602260045260246000fd5b7f4e487b7100000000000000000000000000000000000000000000000000000000600052604160045260246000fd5b600080fd5b600080fd5b600080fd5b600080fd5b6000601f19601f8301169050919050565b7f4552433136353a20696e76616c696420696e7465726661636520696400000000600082015250565b6127c480620005446000396000f3fe608060405234801561001057600080fd5b50600436106100ea5760003560e01c80636a4f832b1161008c578063a22cb46511610066578063a22cb4651461025b578063b88d4fde14610277578063c87b56dd14610293578063e985e9c5146102c3576100ea565b80636a4f832b146101f157806370a082311461020d57806395d89b411461023d576100ea565b8063095ea7b3116100c8578063095ea7b31461016d57806323b872dd1461018957806342842e0e146101a55780636352211e146101c1576100ea565b806301ffc9a7146100ef57806306fdde031461011f578063081812fc1461013d575b600080fd5b61010960048036038101906101049190611977565b6102f3565b6040516101169190611d43565b60405180910390f35b6101276103d5565b6040516101349190611d5e565b60405180910390f35b610157600480360381019061015291906119d1565b610467565b6040516101649190611cdc565b60405180910390f35b610187600480360381019061018291906118c8565b6104ec565b005b6101a3600480360381019061019e91906117b2565b610604565b005b6101bf60048036038101906101ba91906117b2565b610664565b005b6101db60048036038101906101d691906119d1565b610684565b6040516101e89190611cdc565b60405180910390f35b61020b60048036038101906102069190611908565b610736565b005b61022760048036038101906102229190611745565b610791565b6040516102349190611f40565b60405180910390f35b610245610849565b6040516102529190611d5e565b60405180910390f35b61027560048036038101906102709190611888565b6108db565b005b610291600480360381019061028c9190611805565b6108f1565b005b6102ad60048036038101906102a891906119d1565b610953565b6040516102ba9190611d5e565b60405180910390f35b6102dd60048036038101906102d89190611772565b6109fa565b6040516102ea9190611d43565b60405180910390f35b60007f80ac58cd000000000000000000000000000000000000000000000000000000007bffffffffffffffffffffffffffffffffffffffffffffffffffffffff1916827bffffffffffffffffffffffffffffffffffffffffffffffffffffffff191614806103be57507f5b5e139f000000000000000000000000000000000000000000000000000000007bffffffffffffffffffffffffffffffffffffffffffffffffffffffff1916827bffffffffffffffffffffffffffffffffffffffffffffffffffffffff1916145b806103ce57506103cd82610a8e565b5b9050919050565b6060600180546103e490612165565b80601f016020809104026020016040519081016040528092919081815260200182805461041090612165565b801561045d5780601f106104325761010080835404028352916020019161045d565b820191906000526020600020905b81548152906001019060200180831161044057829003601f168201915b5050505050905090565b600061047282610af5565b6104b1576040517f08c379a00000000000000000000000000000000000000000000000000000000081526004016104a890611ec0565b60405180910390fd5b6005600083815260200190815260200160002060009054906101000a900473ffffffffffffffffffffffffffffffffffffffff169050919050565b60006104f782610684565b90508073ffffffffffffffffffffffffffffffffffffffff168373ffffffffffffffffffffffffffffffffffffffff161415610568576040517f08c379a000000000000000000000000000000000000000000000000000000000815260040161055f90611f00565b60405180910390fd5b8073ffffffffffffffffffffffffffffffffffffffff16610587610b61565b73ffffffffffffffffffffffffffffffffffffffff1614806105b657506105b5816105b0610b61565b6109fa565b5b6105f5576040517f08c379a00000000000000000000000000000000000000000000000000000000081526004016105ec90611e40565b60405180910390fd5b6105ff8383610b69565b505050565b61061561060f610b61565b82610c22565b610654576040517f08c379a000000000000000000000000000000000000000000000000000000000815260040161064b90611f20565b60405180910390fd5b61065f838383610d00565b505050565b61067f838383604051806020016040528060008152506108f1565b505050565b6000806003600084815260200190815260200160002060009054906101000a900473ffffffffffffffffffffffffffffffffffffffff169050600073ffffffffffffffffffffffffffffffffffffffff168173ffffffffffffffffffffffffffffffffffffffff16141561072d576040517f08c379a000000000000000000000000000000000000000000000000000000000815260040161072490611e80565b60405180910390fd5b80915050919050565b6107408383610f67565b61074d6000848484611141565b61078c576040517f08c379a000000000000000000000000000000000000000000000000000000000815260040161078390611d80565b60405180910390fd5b505050565b60008073ffffffffffffffffffffffffffffffffffffffff168273ffffffffffffffffffffffffffffffffffffffff161415610802576040517f08c379a00000000000000000000000000000000000000000000000000000000081526004016107f990611e60565b60405180910390fd5b600460008373ffffffffffffffffffffffffffffffffffffffff1673ffffffffffffffffffffffffffffffffffffffff168152602001908152602001600020549050919050565b60606002805461085890612165565b80601f016020809104026020016040519081016040528092919081815260200182805461088490612165565b80156108d15780601f106108a6576101008083540402835291602001916108d1565b820191906000526020600020905b8154815290600101906020018083116108b457829003601f168201915b5050505050905090565b6108ed6108e6610b61565b83836112d8565b5050565b6109026108fc610b61565b83610c22565b610941576040517f08c379a000000000000000000000000000000000000000000000000000000000815260040161093890611f20565b60405180910390fd5b61094d84848484611445565b50505050565b606061095e82610af5565b61099d576040517f08c379a000000000000000000000000000000000000000000000000000000000815260040161099490611ee0565b60405180910390fd5b60006109a76114a1565b905060008151116109c757604051806020016040528060008152506109f2565b806109d1846114de565b6040516020016109e2929190611cb8565b6040516020818303038152906040525b915050919050565b6000600660008473ffffffffffffffffffffffffffffffffffffffff1673ffffffffffffffffffffffffffffffffffffffff16815260200190815260200160002060008373ffffffffffffffffffffffffffffffffffffffff1673ffffffffffffffffffffffffffffffffffffffff16815260200190815260200160002060009054906101000a900460ff16905092915050565b6000806000837bffffffffffffffffffffffffffffffffffffffffffffffffffffffff19167bffffffffffffffffffffffffffffffffffffffffffffffffffffffff1916815260200190815260200160002060009054906101000a900460ff169050919050565b60008073ffffffffffffffffffffffffffffffffffffffff166003600084815260200190815260200160002060009054906101000a900473ffffffffffffffffffffffffffffffffffffffff1673ffffffffffffffffffffffffffffffffffffffff1614159050919050565b600033905090565b816005600083815260200190815260200160002060006101000a81548173ffffffffffffffffffffffffffffffffffffffff021916908373ffffffffffffffffffffffffffffffffffffffff160217905550808273ffffffffffffffffffffffffffffffffffffffff16610bdc83610684565b73ffffffffffffffffffffffffffffffffffffffff167f8c5be1e5ebec7d5bd14f71427d1e84f3dd0314c0f7b2291e5b200ac8c7c3b92560405160405180910390a45050565b6000610c2d82610af5565b610c6c576040517f08c379a0000000000000000000000000000000000000000000000000000000008152600401610c6390611e20565b60405180910390fd5b6000610c7783610684565b90508073ffffffffffffffffffffffffffffffffffffffff168473ffffffffffffffffffffffffffffffffffffffff161480610cb95750610cb881856109fa565b5b80610cf757508373ffffffffffffffffffffffffffffffffffffffff16610cdf84610467565b73ffffffffffffffffffffffffffffffffffffffff16145b91505092915050565b8273ffffffffffffffffffffffffffffffffffffffff16610d2082610684565b73ffffffffffffffffffffffffffffffffffffffff1614610d76576040517f08c379a0000000000000000000000000000000000000000000000000000000008152600401610d6d90611da0565b60405180910390fd5b600073ffffffffffffffffffffffffffffffffffffffff168273ffffffffffffffffffffffffffffffffffffffff161415610de6576040517f08c379a0000000000000000000000000000000000000000000000000000000008152600401610ddd90611de0565b60405180910390fd5b610df183838361163f565b610dfc600082610b69565b6001600460008573ffffffffffffffffffffffffffffffffffffffff1673ffffffffffffffffffffffffffffffffffffffff1681526020019081526020016000206000828254610e4c919061207b565b925050819055506001600460008473ffffffffffffffffffffffffffffffffffffffff1673ffffffffffffffffffffffffffffffffffffffff1681526020019081526020016000206000828254610ea39190611ff4565b92505081905550816003600083815260200190815260200160002060006101000a81548173ffffffffffffffffffffffffffffffffffffffff021916908373ffffffffffffffffffffffffffffffffffffffff160217905550808273ffffffffffffffffffffffffffffffffffffffff168473ffffffffffffffffffffffffffffffffffffffff167fddf252ad1be2c89b69c2b068fc378daa952ba7f163c4a11628f55a4df523b3ef60405160405180910390a4610f62838383611644565b505050565b600073ffffffffffffffffffffffffffffffffffffffff168273ffffffffffffffffffffffffffffffffffffffff161415610fd7576040517f08c379a0000000000000000000000000000000000000000000000000000000008152600401610fce90611ea0565b60405180910390fd5b610fe081610af5565b15611020576040517f08c379a000000000000000000000000000000000000000000000000000000000815260040161101790611dc0565b60405180910390fd5b61102c6000838361163f565b6001600460008473ffffffffffffffffffffffffffffffffffffffff1673ffffffffffffffffffffffffffffffffffffffff168152602001908152602001600020600082825461107c9190611ff4565b92505081905550816003600083815260200190815260200160002060006101000a81548173ffffffffffffffffffffffffffffffffffffffff021916908373ffffffffffffffffffffffffffffffffffffffff160217905550808273ffffffffffffffffffffffffffffffffffffffff16600073ffffffffffffffffffffffffffffffffffffffff167fddf252ad1be2c89b69c2b068fc378daa952ba7f163c4a11628f55a4df523b3ef60405160405180910390a461113d60008383611644565b5050565b60006111628473ffffffffffffffffffffffffffffffffffffffff16611649565b156112cb578373ffffffffffffffffffffffffffffffffffffffff1663150b7a0261118b610b61565b8786866040518563ffffffff1660e01b81526004016111ad9493929190611cf7565b602060405180830381600087803b1580156111c757600080fd5b505af19250505080156111f857506040513d601f19601f820116820180604052508101906111f591906119a4565b60015b61127b573d8060008114611228576040519150601f19603f3d011682016040523d82523d6000602084013e61122d565b606091505b50600081511415611273576040517f08c379a000000000000000000000000000000000000000000000000000000000815260040161126a90611d80565b60405180910390fd5b805181602001fd5b63150b7a0260e01b7bffffffffffffffffffffffffffffffffffffffffffffffffffffffff1916817bffffffffffffffffffffffffffffffffffffffffffffffffffffffff1916149150506112d0565b600190505b949350505050565b8173ffffffffffffffffffffffffffffffffffffffff168373ffffffffffffffffffffffffffffffffffffffff161415611347576040517f08c379a000000000000000000000000000000000000000000000000000000000815260040161133e90611e00565b60405180910390fd5b80600660008573ffffffffffffffffffffffffffffffffffffffff1673ffffffffffffffffffffffffffffffffffffffff16815260200190815260200160002060008473ffffffffffffffffffffffffffffffffffffffff1673ffffffffffffffffffffffffffffffffffffffff16815260200190815260200160002060006101000a81548160ff0219169083151502179055508173ffffffffffffffffffffffffffffffffffffffff168373ffffffffffffffffffffffffffffffffffffffff167f17307eab39ab6107e8899845ad3d59bd9653f200f220920489ca2b5937696c31836040516114389190611d43565b60405180910390a3505050565b611450848484610d00565b61145c84848484611141565b61149b576040517f08c379a000000000000000000000000000000000000000000000000000000000815260040161149290611d80565b60405180910390fd5b50505050565b60606040518060400160405280601281526020017f42696e616e636520536d61727420446174610000000000000000000000000000815250905090565b60606000821415611526576040518060400160405280600181526020017f3000000000000000000000000000000000000000000000000000000000000000815250905061163a565b600082905060005b60008214611558578080611541906121c8565b915050600a82611551919061204a565b915061152e565b60008167ffffffffffffffff811115611574576115736122fe565b5b6040519080825280601f01601f1916602001820160405280156115a65781602001600182028036833780820191505090505b5090505b60008514611633576001826115bf919061207b565b9150600a856115ce9190612211565b60306115da9190611ff4565b60f81b8183815181106115f0576115ef6122cf565b5b60200101907effffffffffffffffffffffffffffffffffffffffffffffffffffffffffffff1916908160001a905350600a8561162c919061204a565b94506115aa565b8093505050505b919050565b505050565b505050565b6000808273ffffffffffffffffffffffffffffffffffffffff163b119050919050565b600061167f61167a84611f80565b611f5b565b90508281526020810184848401111561169b5761169a612332565b5b6116a6848285612123565b509392505050565b6000813590506116bd81612732565b92915050565b6000813590506116d281612749565b92915050565b6000813590506116e781612760565b92915050565b6000815190506116fc81612760565b92915050565b600082601f8301126117175761171661232d565b5b813561172784826020860161166c565b91505092915050565b60008135905061173f81612777565b92915050565b60006020828403121561175b5761175a61233c565b5b6000611769848285016116ae565b91505092915050565b600080604083850312156117895761178861233c565b5b6000611797858286016116ae565b92505060206117a8858286016116ae565b9150509250929050565b6000806000606084860312156117cb576117ca61233c565b5b60006117d9868287016116ae565b93505060206117ea868287016116ae565b92505060406117fb86828701611730565b9150509250925092565b6000806000806080858703121561181f5761181e61233c565b5b600061182d878288016116ae565b945050602061183e878288016116ae565b935050604061184f87828801611730565b925050606085013567ffffffffffffffff8111156118705761186f612337565b5b61187c87828801611702565b91505092959194509250565b6000806040838503121561189f5761189e61233c565b5b60006118ad858286016116ae565b92505060206118be858286016116c3565b9150509250929050565b600080604083850312156118df576118de61233c565b5b60006118ed858286016116ae565b92505060206118fe85828601611730565b9150509250929050565b6000806000606084860312156119215761192061233c565b5b600061192f868287016116ae565b935050602061194086828701611730565b925050604084013567ffffffffffffffff81111561196157611960612337565b5b61196d86828701611702565b9150509250925092565b60006020828403121561198d5761198c61233c565b5b600061199b848285016116d8565b91505092915050565b6000602082840312156119ba576119b961233c565b5b60006119c8848285016116ed565b91505092915050565b6000602082840312156119e7576119e661233c565b5b60006119f584828501611730565b91505092915050565b611a07816120af565b82525050565b611a16816120c1565b82525050565b6000611a2782611fb1565b611a318185611fc7565b9350611a41818560208601612132565b611a4a81612341565b840191505092915050565b6000611a6082611fbc565b611a6a8185611fd8565b9350611a7a818560208601612132565b611a8381612341565b840191505092915050565b6000611a9982611fbc565b611aa38185611fe9565b9350611ab3818560208601612132565b80840191505092915050565b6000611acc603283611fd8565b9150611ad782612352565b604082019050919050565b6000611aef602583611fd8565b9150611afa826123a1565b604082019050919050565b6000611b12601c83611fd8565b9150611b1d826123f0565b602082019050919050565b6000611b35602483611fd8565b9150611b4082612419565b604082019050919050565b6000611b58601983611fd8565b9150611b6382612468565b602082019050919050565b6000611b7b602c83611fd8565b9150611b8682612491565b604082019050919050565b6000611b9e603883611fd8565b9150611ba9826124e0565b604082019050919050565b6000611bc1602a83611fd8565b9150611bcc8261252f565b604082019050919050565b6000611be4602983611fd8565b9150611bef8261257e565b604082019050919050565b6000611c07602083611fd8565b9150611c12826125cd565b602082019050919050565b6000611c2a602c83611fd8565b9150611c35826125f6565b604082019050919050565b6000611c4d602f83611fd8565b9150611c5882612645565b604082019050919050565b6000611c70602183611fd8565b9150611c7b82612694565b604082019050919050565b6000611c93603183611fd8565b9150611c9e826126e3565b604082019050919050565b611cb281612119565b82525050565b6000611cc48285611a8e565b9150611cd08284611a8e565b91508190509392505050565b6000602082019050611cf160008301846119fe565b92915050565b6000608082019050611d0c60008301876119fe565b611d1960208301866119fe565b611d266040830185611ca9565b8181036060830152611d388184611a1c565b905095945050505050565b6000602082019050611d586000830184611a0d565b92915050565b60006020820190508181036000830152611d788184611a55565b905092915050565b60006020820190508181036000830152611d9981611abf565b9050919050565b60006020820190508181036000830152611db981611ae2565b9050919050565b60006020820190508181036000830152611dd981611b05565b9050919050565b60006020820190508181036000830152611df981611b28565b9050919050565b60006020820190508181036000830152611e1981611b4b565b9050919050565b60006020820190508181036000830152611e3981611b6e565b9050919050565b60006020820190508181036000830152611e5981611b91565b9050919050565b60006020820190508181036000830152611e7981611bb4565b9050919050565b60006020820190508181036000830152611e9981611bd7565b9050919050565b60006020820190508181036000830152611eb981611bfa565b9050919050565b60006020820190508181036000830152611ed981611c1d565b9050919050565b60006020820190508181036000830152611ef981611c40565b9050919050565b60006020820190508181036000830152611f1981611c63565b9050919050565b60006020820190508181036000830152611f3981611c86565b9050919050565b6000602082019050611f556000830184611ca9565b92915050565b6000611f65611f76565b9050611f718282612197565b919050565b6000604051905090565b600067ffffffffffffffff821115611f9b57611f9a6122fe565b5b611fa482612341565b9050602081019050919050565b600081519050919050565b600081519050919050565b600082825260208201905092915050565b600082825260208201905092915050565b600081905092915050565b6000611fff82612119565b915061200a83612119565b9250827fffffffffffffffffffffffffffffffffffffffffffffffffffffffffffffffff0382111561203f5761203e612242565b5b828201905092915050565b600061205582612119565b915061206083612119565b9250826120705761206f612271565b5b828204905092915050565b600061208682612119565b915061209183612119565b9250828210156120a4576120a3612242565b5b828203905092915050565b60006120ba826120f9565b9050919050565b60008115159050919050565b60007fffffffff0000000000000000000000000000000000000000000000000000000082169050919050565b600073ffffffffffffffffffffffffffffffffffffffff82169050919050565b6000819050919050565b82818337600083830152505050565b60005b83811015612150578082015181840152602081019050612135565b8381111561215f576000848401525b50505050565b6000600282049050600182168061217d57607f821691505b60208210811415612191576121906122a0565b5b50919050565b6121a082612341565b810181811067ffffffffffffffff821117156121bf576121be6122fe565b5b80604052505050565b60006121d382612119565b91507fffffffffffffffffffffffffffffffffffffffffffffffffffffffffffffffff82141561220657612205612242565b5b600182019050919050565b600061221c82612119565b915061222783612119565b92508261223757612236612271565b5b828206905092915050565b7f4e487b7100000000000000000000000000000000000000000000000000000000600052601160045260246000fd5b7f4e487b7100000000000000000000000000000000000000000000000000000000600052601260045260246000fd5b7f4e487b7100000000000000000000000000000000000000000000000000000000600052602260045260246000fd5b7f4e487b7100000000000000000000000000000000000000000000000000000000600052603260045260246000fd5b7f4e487b7100000000000000000000000000000000000000000000000000000000600052604160045260246000fd5b600080fd5b600080fd5b600080fd5b600080fd5b6000601f19601f8301169050919050565b7f4552433732313a207472616e7366657220746f206e6f6e20455243373231526560008201527f63656976657220696d706c656d656e7465720000000000000000000000000000602082015250565b7f4552433732313a207472616e736665722066726f6d20696e636f72726563742060008201527f6f776e6572000000000000000000000000000000000000000000000000000000602082015250565b7f4552433732313a20746f6b656e20616c7265616479206d696e74656400000000600082015250565b7f4552433732313a207472616e7366657220746f20746865207a65726f2061646460008201527f7265737300000000000000000000000000000000000000000000000000000000602082015250565b7f4552433732313a20617070726f766520746f2063616c6c657200000000000000600082015250565b7f4552433732313a206f70657261746f7220717565727920666f72206e6f6e657860008201527f697374656e7420746f6b656e0000000000000000000000000000000000000000602082015250565b7f4552433732313a20617070726f76652063616c6c6572206973206e6f74206f7760008201527f6e6572206e6f7220617070726f76656420666f7220616c6c0000000000000000602082015250565b7f4552433732313a2062616c616e636520717565727920666f7220746865207a6560008201527f726f206164647265737300000000000000000000000000000000000000000000602082015250565b7f4552433732313a206f776e657220717565727920666f72206e6f6e657869737460008201527f656e7420746f6b656e0000000000000000000000000000000000000000000000602082015250565b7f4552433732313a206d696e7420746f20746865207a65726f2061646472657373600082015250565b7f4552433732313a20617070726f76656420717565727920666f72206e6f6e657860008201527f697374656e7420746f6b656e0000000000000000000000000000000000000000602082015250565b7f4552433732314d657461646174613a2055524920717565727920666f72206e6f60008201527f6e6578697374656e7420746f6b656e0000000000000000000000000000000000602082015250565b7f4552433732313a20617070726f76616c20746f2063757272656e74206f776e6560008201527f7200000000000000000000000000000000000000000000000000000000000000602082015250565b7f4552433732313a207472616e736665722063616c6c6572206973206e6f74206f60008201527f776e6572206e6f7220617070726f766564000000000000000000000000000000602082015250565b61273b816120af565b811461274657600080fd5b50565b612752816120c1565b811461275d57600080fd5b50565b612769816120cd565b811461277457600080fd5b50565b61278081612119565b811461278b57600080fd5b5056fea26469706673582212205655de98972b8f15e5229b8caefe8e5b4e2267593025aaaee1129e944e6a987c64736f6c63430008070033",
					"opcodes": "PUSH1 0x80 PUSH1 0x40 MSTORE CALLVALUE DUP1 ISZERO PUSH3 0x11 JUMPI PUSH1 0x0 DUP1 REVERT JUMPDEST POP PUSH1 0x40 MLOAD PUSH3 0x2D08 CODESIZE SUB DUP1 PUSH3 0x2D08 DUP4 CODECOPY DUP2 DUP2 ADD PUSH1 0x40 MSTORE DUP2 ADD SWAP1 PUSH3 0x37 SWAP2 SWAP1 PUSH3 0x2A8 JUMP JUMPDEST PUSH3 0x68 PUSH32 0x1FFC9A700000000000000000000000000000000000000000000000000000000 PUSH3 0xA2 PUSH1 0x20 SHL PUSH1 0x20 SHR JUMP JUMPDEST DUP2 PUSH1 0x1 SWAP1 DUP1 MLOAD SWAP1 PUSH1 0x20 ADD SWAP1 PUSH3 0x80 SWAP3 SWAP2 SWAP1 PUSH3 0x17A JUMP JUMPDEST POP DUP1 PUSH1 0x2 SWAP1 DUP1 MLOAD SWAP1 PUSH1 0x20 ADD SWAP1 PUSH3 0x99 SWAP3 SWAP2 SWAP1 PUSH3 0x17A JUMP JUMPDEST POP POP POP PUSH3 0x534 JUMP JUMPDEST PUSH4 0xFFFFFFFF PUSH1 0xE0 SHL DUP2 PUSH28 0xFFFFFFFFFFFFFFFFFFFFFFFFFFFFFFFFFFFFFFFFFFFFFFFFFFFFFFFF NOT AND EQ ISZERO PUSH3 0x10E JUMPI PUSH1 0x40 MLOAD PUSH32 0x8C379A000000000000000000000000000000000000000000000000000000000 DUP2 MSTORE PUSH1 0x4 ADD PUSH3 0x105 SWAP1 PUSH3 0x354 JUMP JUMPDEST PUSH1 0x40 MLOAD DUP1 SWAP2 SUB SWAP1 REVERT JUMPDEST PUSH1 0x1 PUSH1 0x0 DUP1 DUP4 PUSH28 0xFFFFFFFFFFFFFFFFFFFFFFFFFFFFFFFFFFFFFFFFFFFFFFFFFFFFFFFF NOT AND PUSH28 0xFFFFFFFFFFFFFFFFFFFFFFFFFFFFFFFFFFFFFFFFFFFFFFFFFFFFFFFF NOT AND DUP2 MSTORE PUSH1 0x20 ADD SWAP1 DUP2 MSTORE PUSH1 0x20 ADD PUSH1 0x0 KECCAK256 PUSH1 0x0 PUSH2 0x100 EXP DUP2 SLOAD DUP2 PUSH1 0xFF MUL NOT AND SWAP1 DUP4 ISZERO ISZERO MUL OR SWAP1 SSTORE POP POP JUMP JUMPDEST DUP3 DUP1 SLOAD PUSH3 0x188 SWAP1 PUSH3 0x41C JUMP JUMPDEST SWAP1 PUSH1 0x0 MSTORE PUSH1 0x20 PUSH1 0x0 KECCAK256 SWAP1 PUSH1 0x1F ADD PUSH1 0x20 SWAP1 DIV DUP2 ADD SWAP3 DUP3 PUSH3 0x1AC JUMPI PUSH1 0x0 DUP6 SSTORE PUSH3 0x1F8 JUMP JUMPDEST DUP3 PUSH1 0x1F LT PUSH3 0x1C7 JUMPI DUP1 MLOAD PUSH1 0xFF NOT AND DUP4 DUP1 ADD OR DUP6 SSTORE PUSH3 0x1F8 JUMP JUMPDEST DUP3 DUP1 ADD PUSH1 0x1 ADD DUP6 SSTORE DUP3 ISZERO PUSH3 0x1F8 JUMPI SWAP2 DUP3 ADD JUMPDEST DUP3 DUP2 GT ISZERO PUSH3 0x1F7 JUMPI DUP3 MLOAD DUP3 SSTORE SWAP2 PUSH1 0x20 ADD SWAP2 SWAP1 PUSH1 0x1 ADD SWAP1 PUSH3 0x1DA JUMP JUMPDEST JUMPDEST POP SWAP1 POP PUSH3 0x207 SWAP2 SWAP1 PUSH3 0x20B JUMP JUMPDEST POP SWAP1 JUMP JUMPDEST JUMPDEST DUP1 DUP3 GT ISZERO PUSH3 0x226 JUMPI PUSH1 0x0 DUP2 PUSH1 0x0 SWAP1 SSTORE POP PUSH1 0x1 ADD PUSH3 0x20C JUMP JUMPDEST POP SWAP1 JUMP JUMPDEST PUSH1 0x0 PUSH3 0x241 PUSH3 0x23B DUP5 PUSH3 0x39F JUMP JUMPDEST PUSH3 0x376 JUMP JUMPDEST SWAP1 POP DUP3 DUP2 MSTORE PUSH1 0x20 DUP2 ADD DUP5 DUP5 DUP5 ADD GT ISZERO PUSH3 0x260 JUMPI PUSH3 0x25F PUSH3 0x4EB JUMP JUMPDEST JUMPDEST PUSH3 0x26D DUP5 DUP3 DUP6 PUSH3 0x3E6 JUMP JUMPDEST POP SWAP4 SWAP3 POP POP POP JUMP JUMPDEST PUSH1 0x0 DUP3 PUSH1 0x1F DUP4 ADD SLT PUSH3 0x28D JUMPI PUSH3 0x28C PUSH3 0x4E6 JUMP JUMPDEST JUMPDEST DUP2 MLOAD PUSH3 0x29F DUP5 DUP3 PUSH1 0x20 DUP7 ADD PUSH3 0x22A JUMP JUMPDEST SWAP2 POP POP SWAP3 SWAP2 POP POP JUMP JUMPDEST PUSH1 0x0 DUP1 PUSH1 0x40 DUP4 DUP6 SUB SLT ISZERO PUSH3 0x2C2 JUMPI PUSH3 0x2C1 PUSH3 0x4F5 JUMP JUMPDEST JUMPDEST PUSH1 0x0 DUP4 ADD MLOAD PUSH8 0xFFFFFFFFFFFFFFFF DUP2 GT ISZERO PUSH3 0x2E3 JUMPI PUSH3 0x2E2 PUSH3 0x4F0 JUMP JUMPDEST JUMPDEST PUSH3 0x2F1 DUP6 DUP3 DUP7 ADD PUSH3 0x275 JUMP JUMPDEST SWAP3 POP POP PUSH1 0x20 DUP4 ADD MLOAD PUSH8 0xFFFFFFFFFFFFFFFF DUP2 GT ISZERO PUSH3 0x315 JUMPI PUSH3 0x314 PUSH3 0x4F0 JUMP JUMPDEST JUMPDEST PUSH3 0x323 DUP6 DUP3 DUP7 ADD PUSH3 0x275 JUMP JUMPDEST SWAP2 POP POP SWAP3 POP SWAP3 SWAP1 POP JUMP JUMPDEST PUSH1 0x0 PUSH3 0x33C PUSH1 0x1C DUP4 PUSH3 0x3D5 JUMP JUMPDEST SWAP2 POP PUSH3 0x349 DUP3 PUSH3 0x50B JUMP JUMPDEST PUSH1 0x20 DUP3 ADD SWAP1 POP SWAP2 SWAP1 POP JUMP JUMPDEST PUSH1 0x0 PUSH1 0x20 DUP3 ADD SWAP1 POP DUP2 DUP2 SUB PUSH1 0x0 DUP4 ADD MSTORE PUSH3 0x36F DUP2 PUSH3 0x32D JUMP JUMPDEST SWAP1 POP SWAP2 SWAP1 POP JUMP JUMPDEST PUSH1 0x0 PUSH3 0x382 PUSH3 0x395 JUMP JUMPDEST SWAP1 POP PUSH3 0x390 DUP3 DUP3 PUSH3 0x452 JUMP JUMPDEST SWAP2 SWAP1 POP JUMP JUMPDEST PUSH1 0x0 PUSH1 0x40 MLOAD SWAP1 POP SWAP1 JUMP JUMPDEST PUSH1 0x0 PUSH8 0xFFFFFFFFFFFFFFFF DUP3 GT ISZERO PUSH3 0x3BD JUMPI PUSH3 0x3BC PUSH3 0x4B7 JUMP JUMPDEST JUMPDEST PUSH3 0x3C8 DUP3 PUSH3 0x4FA JUMP JUMPDEST SWAP1 POP PUSH1 0x20 DUP2 ADD SWAP1 POP SWAP2 SWAP1 POP JUMP JUMPDEST PUSH1 0x0 DUP3 DUP3 MSTORE PUSH1 0x20 DUP3 ADD SWAP1 POP SWAP3 SWAP2 POP POP JUMP JUMPDEST PUSH1 0x0 JUMPDEST DUP4 DUP2 LT ISZERO PUSH3 0x406 JUMPI DUP1 DUP3 ADD MLOAD DUP2 DUP5 ADD MSTORE PUSH1 0x20 DUP2 ADD SWAP1 POP PUSH3 0x3E9 JUMP JUMPDEST DUP4 DUP2 GT ISZERO PUSH3 0x416 JUMPI PUSH1 0x0 DUP5 DUP5 ADD MSTORE JUMPDEST POP POP POP POP JUMP JUMPDEST PUSH1 0x0 PUSH1 0x2 DUP3 DIV SWAP1 POP PUSH1 0x1 DUP3 AND DUP1 PUSH3 0x435 JUMPI PUSH1 0x7F DUP3 AND SWAP2 POP JUMPDEST PUSH1 0x20 DUP3 LT DUP2 EQ ISZERO PUSH3 0x44C JUMPI PUSH3 0x44B PUSH3 0x488 JUMP JUMPDEST JUMPDEST POP SWAP2 SWAP1 POP JUMP JUMPDEST PUSH3 0x45D DUP3 PUSH3 0x4FA JUMP JUMPDEST DUP2 ADD DUP2 DUP2 LT PUSH8 0xFFFFFFFFFFFFFFFF DUP3 GT OR ISZERO PUSH3 0x47F JUMPI PUSH3 0x47E PUSH3 0x4B7 JUMP JUMPDEST JUMPDEST DUP1 PUSH1 0x40 MSTORE POP POP POP JUMP JUMPDEST PUSH32 0x4E487B7100000000000000000000000000000000000000000000000000000000 PUSH1 0x0 MSTORE PUSH1 0x22 PUSH1 0x4 MSTORE PUSH1 0x24 PUSH1 0x0 REVERT JUMPDEST PUSH32 0x4E487B7100000000000000000000000000000000000000000000000000000000 PUSH1 0x0 MSTORE PUSH1 0x41 PUSH1 0x4 MSTORE PUSH1 0x24 PUSH1 0x0 REVERT JUMPDEST PUSH1 0x0 DUP1 REVERT JUMPDEST PUSH1 0x0 DUP1 REVERT JUMPDEST PUSH1 0x0 DUP1 REVERT JUMPDEST PUSH1 0x0 DUP1 REVERT JUMPDEST PUSH1 0x0 PUSH1 0x1F NOT PUSH1 0x1F DUP4 ADD AND SWAP1 POP SWAP2 SWAP1 POP JUMP JUMPDEST PUSH32 0x4552433136353A20696E76616C696420696E7465726661636520696400000000 PUSH1 0x0 DUP3 ADD MSTORE POP JUMP JUMPDEST PUSH2 0x27C4 DUP1 PUSH3 0x544 PUSH1 0x0 CODECOPY PUSH1 0x0 RETURN INVALID PUSH1 0x80 PUSH1 0x40 MSTORE CALLVALUE DUP1 ISZERO PUSH2 0x10 JUMPI PUSH1 0x0 DUP1 REVERT JUMPDEST POP PUSH1 0x4 CALLDATASIZE LT PUSH2 0xEA JUMPI PUSH1 0x0 CALLDATALOAD PUSH1 0xE0 SHR DUP1 PUSH4 0x6A4F832B GT PUSH2 0x8C JUMPI DUP1 PUSH4 0xA22CB465 GT PUSH2 0x66 JUMPI DUP1 PUSH4 0xA22CB465 EQ PUSH2 0x25B JUMPI DUP1 PUSH4 0xB88D4FDE EQ PUSH2 0x277 JUMPI DUP1 PUSH4 0xC87B56DD EQ PUSH2 0x293 JUMPI DUP1 PUSH4 0xE985E9C5 EQ PUSH2 0x2C3 JUMPI PUSH2 0xEA JUMP JUMPDEST DUP1 PUSH4 0x6A4F832B EQ PUSH2 0x1F1 JUMPI DUP1 PUSH4 0x70A08231 EQ PUSH2 0x20D JUMPI DUP1 PUSH4 0x95D89B41 EQ PUSH2 0x23D JUMPI PUSH2 0xEA JUMP JUMPDEST DUP1 PUSH4 0x95EA7B3 GT PUSH2 0xC8 JUMPI DUP1 PUSH4 0x95EA7B3 EQ PUSH2 0x16D JUMPI DUP1 PUSH4 0x23B872DD EQ PUSH2 0x189 JUMPI DUP1 PUSH4 0x42842E0E EQ PUSH2 0x1A5 JUMPI DUP1 PUSH4 0x6352211E EQ PUSH2 0x1C1 JUMPI PUSH2 0xEA JUMP JUMPDEST DUP1 PUSH4 0x1FFC9A7 EQ PUSH2 0xEF JUMPI DUP1 PUSH4 0x6FDDE03 EQ PUSH2 0x11F JUMPI DUP1 PUSH4 0x81812FC EQ PUSH2 0x13D JUMPI JUMPDEST PUSH1 0x0 DUP1 REVERT JUMPDEST PUSH2 0x109 PUSH1 0x4 DUP1 CALLDATASIZE SUB DUP2 ADD SWAP1 PUSH2 0x104 SWAP2 SWAP1 PUSH2 0x1977 JUMP JUMPDEST PUSH2 0x2F3 JUMP JUMPDEST PUSH1 0x40 MLOAD PUSH2 0x116 SWAP2 SWAP1 PUSH2 0x1D43 JUMP JUMPDEST PUSH1 0x40 MLOAD DUP1 SWAP2 SUB SWAP1 RETURN JUMPDEST PUSH2 0x127 PUSH2 0x3D5 JUMP JUMPDEST PUSH1 0x40 MLOAD PUSH2 0x134 SWAP2 SWAP1 PUSH2 0x1D5E JUMP JUMPDEST PUSH1 0x40 MLOAD DUP1 SWAP2 SUB SWAP1 RETURN JUMPDEST PUSH2 0x157 PUSH1 0x4 DUP1 CALLDATASIZE SUB DUP2 ADD SWAP1 PUSH2 0x152 SWAP2 SWAP1 PUSH2 0x19D1 JUMP JUMPDEST PUSH2 0x467 JUMP JUMPDEST PUSH1 0x40 MLOAD PUSH2 0x164 SWAP2 SWAP1 PUSH2 0x1CDC JUMP JUMPDEST PUSH1 0x40 MLOAD DUP1 SWAP2 SUB SWAP1 RETURN JUMPDEST PUSH2 0x187 PUSH1 0x4 DUP1 CALLDATASIZE SUB DUP2 ADD SWAP1 PUSH2 0x182 SWAP2 SWAP1 PUSH2 0x18C8 JUMP JUMPDEST PUSH2 0x4EC JUMP JUMPDEST STOP JUMPDEST PUSH2 0x1A3 PUSH1 0x4 DUP1 CALLDATASIZE SUB DUP2 ADD SWAP1 PUSH2 0x19E SWAP2 SWAP1 PUSH2 0x17B2 JUMP JUMPDEST PUSH2 0x604 JUMP JUMPDEST STOP JUMPDEST PUSH2 0x1BF PUSH1 0x4 DUP1 CALLDATASIZE SUB DUP2 ADD SWAP1 PUSH2 0x1BA SWAP2 SWAP1 PUSH2 0x17B2 JUMP JUMPDEST PUSH2 0x664 JUMP JUMPDEST STOP JUMPDEST PUSH2 0x1DB PUSH1 0x4 DUP1 CALLDATASIZE SUB DUP2 ADD SWAP1 PUSH2 0x1D6 SWAP2 SWAP1 PUSH2 0x19D1 JUMP JUMPDEST PUSH2 0x684 JUMP JUMPDEST PUSH1 0x40 MLOAD PUSH2 0x1E8 SWAP2 SWAP1 PUSH2 0x1CDC JUMP JUMPDEST PUSH1 0x40 MLOAD DUP1 SWAP2 SUB SWAP1 RETURN JUMPDEST PUSH2 0x20B PUSH1 0x4 DUP1 CALLDATASIZE SUB DUP2 ADD SWAP1 PUSH2 0x206 SWAP2 SWAP1 PUSH2 0x1908 JUMP JUMPDEST PUSH2 0x736 JUMP JUMPDEST STOP JUMPDEST PUSH2 0x227 PUSH1 0x4 DUP1 CALLDATASIZE SUB DUP2 ADD SWAP1 PUSH2 0x222 SWAP2 SWAP1 PUSH2 0x1745 JUMP JUMPDEST PUSH2 0x791 JUMP JUMPDEST PUSH1 0x40 MLOAD PUSH2 0x234 SWAP2 SWAP1 PUSH2 0x1F40 JUMP JUMPDEST PUSH1 0x40 MLOAD DUP1 SWAP2 SUB SWAP1 RETURN JUMPDEST PUSH2 0x245 PUSH2 0x849 JUMP JUMPDEST PUSH1 0x40 MLOAD PUSH2 0x252 SWAP2 SWAP1 PUSH2 0x1D5E JUMP JUMPDEST PUSH1 0x40 MLOAD DUP1 SWAP2 SUB SWAP1 RETURN JUMPDEST PUSH2 0x275 PUSH1 0x4 DUP1 CALLDATASIZE SUB DUP2 ADD SWAP1 PUSH2 0x270 SWAP2 SWAP1 PUSH2 0x1888 JUMP JUMPDEST PUSH2 0x8DB JUMP JUMPDEST STOP JUMPDEST PUSH2 0x291 PUSH1 0x4 DUP1 CALLDATASIZE SUB DUP2 ADD SWAP1 PUSH2 0x28C SWAP2 SWAP1 PUSH2 0x1805 JUMP JUMPDEST PUSH2 0x8F1 JUMP JUMPDEST STOP JUMPDEST PUSH2 0x2AD PUSH1 0x4 DUP1 CALLDATASIZE SUB DUP2 ADD SWAP1 PUSH2 0x2A8 SWAP2 SWAP1 PUSH2 0x19D1 JUMP JUMPDEST PUSH2 0x953 JUMP JUMPDEST PUSH1 0x40 MLOAD PUSH2 0x2BA SWAP2 SWAP1 PUSH2 0x1D5E JUMP JUMPDEST PUSH1 0x40 MLOAD DUP1 SWAP2 SUB SWAP1 RETURN JUMPDEST PUSH2 0x2DD PUSH1 0x4 DUP1 CALLDATASIZE SUB DUP2 ADD SWAP1 PUSH2 0x2D8 SWAP2 SWAP1 PUSH2 0x1772 JUMP JUMPDEST PUSH2 0x9FA JUMP JUMPDEST PUSH1 0x40 MLOAD PUSH2 0x2EA SWAP2 SWAP1 PUSH2 0x1D43 JUMP JUMPDEST PUSH1 0x40 MLOAD DUP1 SWAP2 SUB SWAP1 RETURN JUMPDEST PUSH1 0x0 PUSH32 0x80AC58CD00000000000000000000000000000000000000000000000000000000 PUSH28 0xFFFFFFFFFFFFFFFFFFFFFFFFFFFFFFFFFFFFFFFFFFFFFFFFFFFFFFFF NOT AND DUP3 PUSH28 0xFFFFFFFFFFFFFFFFFFFFFFFFFFFFFFFFFFFFFFFFFFFFFFFFFFFFFFFF NOT AND EQ DUP1 PUSH2 0x3BE JUMPI POP PUSH32 0x5B5E139F00000000000000000000000000000000000000000000000000000000 PUSH28 0xFFFFFFFFFFFFFFFFFFFFFFFFFFFFFFFFFFFFFFFFFFFFFFFFFFFFFFFF NOT AND DUP3 PUSH28 0xFFFFFFFFFFFFFFFFFFFFFFFFFFFFFFFFFFFFFFFFFFFFFFFFFFFFFFFF NOT AND EQ JUMPDEST DUP1 PUSH2 0x3CE JUMPI POP PUSH2 0x3CD DUP3 PUSH2 0xA8E JUMP JUMPDEST JUMPDEST SWAP1 POP SWAP2 SWAP1 POP JUMP JUMPDEST PUSH1 0x60 PUSH1 0x1 DUP1 SLOAD PUSH2 0x3E4 SWAP1 PUSH2 0x2165 JUMP JUMPDEST DUP1 PUSH1 0x1F ADD PUSH1 0x20 DUP1 SWAP2 DIV MUL PUSH1 0x20 ADD PUSH1 0x40 MLOAD SWAP1 DUP2 ADD PUSH1 0x40 MSTORE DUP1 SWAP3 SWAP2 SWAP1 DUP2 DUP2 MSTORE PUSH1 0x20 ADD DUP3 DUP1 SLOAD PUSH2 0x410 SWAP1 PUSH2 0x2165 JUMP JUMPDEST DUP1 ISZERO PUSH2 0x45D JUMPI DUP1 PUSH1 0x1F LT PUSH2 0x432 JUMPI PUSH2 0x100 DUP1 DUP4 SLOAD DIV MUL DUP4 MSTORE SWAP2 PUSH1 0x20 ADD SWAP2 PUSH2 0x45D JUMP JUMPDEST DUP3 ADD SWAP2 SWAP1 PUSH1 0x0 MSTORE PUSH1 0x20 PUSH1 0x0 KECCAK256 SWAP1 JUMPDEST DUP2 SLOAD DUP2 MSTORE SWAP1 PUSH1 0x1 ADD SWAP1 PUSH1 0x20 ADD DUP1 DUP4 GT PUSH2 0x440 JUMPI DUP3 SWAP1 SUB PUSH1 0x1F AND DUP3 ADD SWAP2 JUMPDEST POP POP POP POP POP SWAP1 POP SWAP1 JUMP JUMPDEST PUSH1 0x0 PUSH2 0x472 DUP3 PUSH2 0xAF5 JUMP JUMPDEST PUSH2 0x4B1 JUMPI PUSH1 0x40 MLOAD PUSH32 0x8C379A000000000000000000000000000000000000000000000000000000000 DUP2 MSTORE PUSH1 0x4 ADD PUSH2 0x4A8 SWAP1 PUSH2 0x1EC0 JUMP JUMPDEST PUSH1 0x40 MLOAD DUP1 SWAP2 SUB SWAP1 REVERT JUMPDEST PUSH1 0x5 PUSH1 0x0 DUP4 DUP2 MSTORE PUSH1 0x20 ADD SWAP1 DUP2 MSTORE PUSH1 0x20 ADD PUSH1 0x0 KECCAK256 PUSH1 0x0 SWAP1 SLOAD SWAP1 PUSH2 0x100 EXP SWAP1 DIV PUSH20 0xFFFFFFFFFFFFFFFFFFFFFFFFFFFFFFFFFFFFFFFF AND SWAP1 POP SWAP2 SWAP1 POP JUMP JUMPDEST PUSH1 0x0 PUSH2 0x4F7 DUP3 PUSH2 0x684 JUMP JUMPDEST SWAP1 POP DUP1 PUSH20 0xFFFFFFFFFFFFFFFFFFFFFFFFFFFFFFFFFFFFFFFF AND DUP4 PUSH20 0xFFFFFFFFFFFFFFFFFFFFFFFFFFFFFFFFFFFFFFFF AND EQ ISZERO PUSH2 0x568 JUMPI PUSH1 0x40 MLOAD PUSH32 0x8C379A000000000000000000000000000000000000000000000000000000000 DUP2 MSTORE PUSH1 0x4 ADD PUSH2 0x55F SWAP1 PUSH2 0x1F00 JUMP JUMPDEST PUSH1 0x40 MLOAD DUP1 SWAP2 SUB SWAP1 REVERT JUMPDEST DUP1 PUSH20 0xFFFFFFFFFFFFFFFFFFFFFFFFFFFFFFFFFFFFFFFF AND PUSH2 0x587 PUSH2 0xB61 JUMP JUMPDEST PUSH20 0xFFFFFFFFFFFFFFFFFFFFFFFFFFFFFFFFFFFFFFFF AND EQ DUP1 PUSH2 0x5B6 JUMPI POP PUSH2 0x5B5 DUP2 PUSH2 0x5B0 PUSH2 0xB61 JUMP JUMPDEST PUSH2 0x9FA JUMP JUMPDEST JUMPDEST PUSH2 0x5F5 JUMPI PUSH1 0x40 MLOAD PUSH32 0x8C379A000000000000000000000000000000000000000000000000000000000 DUP2 MSTORE PUSH1 0x4 ADD PUSH2 0x5EC SWAP1 PUSH2 0x1E40 JUMP JUMPDEST PUSH1 0x40 MLOAD DUP1 SWAP2 SUB SWAP1 REVERT JUMPDEST PUSH2 0x5FF DUP4 DUP4 PUSH2 0xB69 JUMP JUMPDEST POP POP POP JUMP JUMPDEST PUSH2 0x615 PUSH2 0x60F PUSH2 0xB61 JUMP JUMPDEST DUP3 PUSH2 0xC22 JUMP JUMPDEST PUSH2 0x654 JUMPI PUSH1 0x40 MLOAD PUSH32 0x8C379A000000000000000000000000000000000000000000000000000000000 DUP2 MSTORE PUSH1 0x4 ADD PUSH2 0x64B SWAP1 PUSH2 0x1F20 JUMP JUMPDEST PUSH1 0x40 MLOAD DUP1 SWAP2 SUB SWAP1 REVERT JUMPDEST PUSH2 0x65F DUP4 DUP4 DUP4 PUSH2 0xD00 JUMP JUMPDEST POP POP POP JUMP JUMPDEST PUSH2 0x67F DUP4 DUP4 DUP4 PUSH1 0x40 MLOAD DUP1 PUSH1 0x20 ADD PUSH1 0x40 MSTORE DUP1 PUSH1 0x0 DUP2 MSTORE POP PUSH2 0x8F1 JUMP JUMPDEST POP POP POP JUMP JUMPDEST PUSH1 0x0 DUP1 PUSH1 0x3 PUSH1 0x0 DUP5 DUP2 MSTORE PUSH1 0x20 ADD SWAP1 DUP2 MSTORE PUSH1 0x20 ADD PUSH1 0x0 KECCAK256 PUSH1 0x0 SWAP1 SLOAD SWAP1 PUSH2 0x100 EXP SWAP1 DIV PUSH20 0xFFFFFFFFFFFFFFFFFFFFFFFFFFFFFFFFFFFFFFFF AND SWAP1 POP PUSH1 0x0 PUSH20 0xFFFFFFFFFFFFFFFFFFFFFFFFFFFFFFFFFFFFFFFF AND DUP2 PUSH20 0xFFFFFFFFFFFFFFFFFFFFFFFFFFFFFFFFFFFFFFFF AND EQ ISZERO PUSH2 0x72D JUMPI PUSH1 0x40 MLOAD PUSH32 0x8C379A000000000000000000000000000000000000000000000000000000000 DUP2 MSTORE PUSH1 0x4 ADD PUSH2 0x724 SWAP1 PUSH2 0x1E80 JUMP JUMPDEST PUSH1 0x40 MLOAD DUP1 SWAP2 SUB SWAP1 REVERT JUMPDEST DUP1 SWAP2 POP POP SWAP2 SWAP1 POP JUMP JUMPDEST PUSH2 0x740 DUP4 DUP4 PUSH2 0xF67 JUMP JUMPDEST PUSH2 0x74D PUSH1 0x0 DUP5 DUP5 DUP5 PUSH2 0x1141 JUMP JUMPDEST PUSH2 0x78C JUMPI PUSH1 0x40 MLOAD PUSH32 0x8C379A000000000000000000000000000000000000000000000000000000000 DUP2 MSTORE PUSH1 0x4 ADD PUSH2 0x783 SWAP1 PUSH2 0x1D80 JUMP JUMPDEST PUSH1 0x40 MLOAD DUP1 SWAP2 SUB SWAP1 REVERT JUMPDEST POP POP POP JUMP JUMPDEST PUSH1 0x0 DUP1 PUSH20 0xFFFFFFFFFFFFFFFFFFFFFFFFFFFFFFFFFFFFFFFF AND DUP3 PUSH20 0xFFFFFFFFFFFFFFFFFFFFFFFFFFFFFFFFFFFFFFFF AND EQ ISZERO PUSH2 0x802 JUMPI PUSH1 0x40 MLOAD PUSH32 0x8C379A000000000000000000000000000000000000000000000000000000000 DUP2 MSTORE PUSH1 0x4 ADD PUSH2 0x7F9 SWAP1 PUSH2 0x1E60 JUMP JUMPDEST PUSH1 0x40 MLOAD DUP1 SWAP2 SUB SWAP1 REVERT JUMPDEST PUSH1 0x4 PUSH1 0x0 DUP4 PUSH20 0xFFFFFFFFFFFFFFFFFFFFFFFFFFFFFFFFFFFFFFFF AND PUSH20 0xFFFFFFFFFFFFFFFFFFFFFFFFFFFFFFFFFFFFFFFF AND DUP2 MSTORE PUSH1 0x20 ADD SWAP1 DUP2 MSTORE PUSH1 0x20 ADD PUSH1 0x0 KECCAK256 SLOAD SWAP1 POP SWAP2 SWAP1 POP JUMP JUMPDEST PUSH1 0x60 PUSH1 0x2 DUP1 SLOAD PUSH2 0x858 SWAP1 PUSH2 0x2165 JUMP JUMPDEST DUP1 PUSH1 0x1F ADD PUSH1 0x20 DUP1 SWAP2 DIV MUL PUSH1 0x20 ADD PUSH1 0x40 MLOAD SWAP1 DUP2 ADD PUSH1 0x40 MSTORE DUP1 SWAP3 SWAP2 SWAP1 DUP2 DUP2 MSTORE PUSH1 0x20 ADD DUP3 DUP1 SLOAD PUSH2 0x884 SWAP1 PUSH2 0x2165 JUMP JUMPDEST DUP1 ISZERO PUSH2 0x8D1 JUMPI DUP1 PUSH1 0x1F LT PUSH2 0x8A6 JUMPI PUSH2 0x100 DUP1 DUP4 SLOAD DIV MUL DUP4 MSTORE SWAP2 PUSH1 0x20 ADD SWAP2 PUSH2 0x8D1 JUMP JUMPDEST DUP3 ADD SWAP2 SWAP1 PUSH1 0x0 MSTORE PUSH1 0x20 PUSH1 0x0 KECCAK256 SWAP1 JUMPDEST DUP2 SLOAD DUP2 MSTORE SWAP1 PUSH1 0x1 ADD SWAP1 PUSH1 0x20 ADD DUP1 DUP4 GT PUSH2 0x8B4 JUMPI DUP3 SWAP1 SUB PUSH1 0x1F AND DUP3 ADD SWAP2 JUMPDEST POP POP POP POP POP SWAP1 POP SWAP1 JUMP JUMPDEST PUSH2 0x8ED PUSH2 0x8E6 PUSH2 0xB61 JUMP JUMPDEST DUP4 DUP4 PUSH2 0x12D8 JUMP JUMPDEST POP POP JUMP JUMPDEST PUSH2 0x902 PUSH2 0x8FC PUSH2 0xB61 JUMP JUMPDEST DUP4 PUSH2 0xC22 JUMP JUMPDEST PUSH2 0x941 JUMPI PUSH1 0x40 MLOAD PUSH32 0x8C379A000000000000000000000000000000000000000000000000000000000 DUP2 MSTORE PUSH1 0x4 ADD PUSH2 0x938 SWAP1 PUSH2 0x1F20 JUMP JUMPDEST PUSH1 0x40 MLOAD DUP1 SWAP2 SUB SWAP1 REVERT JUMPDEST PUSH2 0x94D DUP5 DUP5 DUP5 DUP5 PUSH2 0x1445 JUMP JUMPDEST POP POP POP POP JUMP JUMPDEST PUSH1 0x60 PUSH2 0x95E DUP3 PUSH2 0xAF5 JUMP JUMPDEST PUSH2 0x99D JUMPI PUSH1 0x40 MLOAD PUSH32 0x8C379A000000000000000000000000000000000000000000000000000000000 DUP2 MSTORE PUSH1 0x4 ADD PUSH2 0x994 SWAP1 PUSH2 0x1EE0 JUMP JUMPDEST PUSH1 0x40 MLOAD DUP1 SWAP2 SUB SWAP1 REVERT JUMPDEST PUSH1 0x0 PUSH2 0x9A7 PUSH2 0x14A1 JUMP JUMPDEST SWAP1 POP PUSH1 0x0 DUP2 MLOAD GT PUSH2 0x9C7 JUMPI PUSH1 0x40 MLOAD DUP1 PUSH1 0x20 ADD PUSH1 0x40 MSTORE DUP1 PUSH1 0x0 DUP2 MSTORE POP PUSH2 0x9F2 JUMP JUMPDEST DUP1 PUSH2 0x9D1 DUP5 PUSH2 0x14DE JUMP JUMPDEST PUSH1 0x40 MLOAD PUSH1 0x20 ADD PUSH2 0x9E2 SWAP3 SWAP2 SWAP1 PUSH2 0x1CB8 JUMP JUMPDEST PUSH1 0x40 MLOAD PUSH1 0x20 DUP2 DUP4 SUB SUB DUP2 MSTORE SWAP1 PUSH1 0x40 MSTORE JUMPDEST SWAP2 POP POP SWAP2 SWAP1 POP JUMP JUMPDEST PUSH1 0x0 PUSH1 0x6 PUSH1 0x0 DUP5 PUSH20 0xFFFFFFFFFFFFFFFFFFFFFFFFFFFFFFFFFFFFFFFF AND PUSH20 0xFFFFFFFFFFFFFFFFFFFFFFFFFFFFFFFFFFFFFFFF AND DUP2 MSTORE PUSH1 0x20 ADD SWAP1 DUP2 MSTORE PUSH1 0x20 ADD PUSH1 0x0 KECCAK256 PUSH1 0x0 DUP4 PUSH20 0xFFFFFFFFFFFFFFFFFFFFFFFFFFFFFFFFFFFFFFFF AND PUSH20 0xFFFFFFFFFFFFFFFFFFFFFFFFFFFFFFFFFFFFFFFF AND DUP2 MSTORE PUSH1 0x20 ADD SWAP1 DUP2 MSTORE PUSH1 0x20 ADD PUSH1 0x0 KECCAK256 PUSH1 0x0 SWAP1 SLOAD SWAP1 PUSH2 0x100 EXP SWAP1 DIV PUSH1 0xFF AND SWAP1 POP SWAP3 SWAP2 POP POP JUMP JUMPDEST PUSH1 0x0 DUP1 PUSH1 0x0 DUP4 PUSH28 0xFFFFFFFFFFFFFFFFFFFFFFFFFFFFFFFFFFFFFFFFFFFFFFFFFFFFFFFF NOT AND PUSH28 0xFFFFFFFFFFFFFFFFFFFFFFFFFFFFFFFFFFFFFFFFFFFFFFFFFFFFFFFF NOT AND DUP2 MSTORE PUSH1 0x20 ADD SWAP1 DUP2 MSTORE PUSH1 0x20 ADD PUSH1 0x0 KECCAK256 PUSH1 0x0 SWAP1 SLOAD SWAP1 PUSH2 0x100 EXP SWAP1 DIV PUSH1 0xFF AND SWAP1 POP SWAP2 SWAP1 POP JUMP JUMPDEST PUSH1 0x0 DUP1 PUSH20 0xFFFFFFFFFFFFFFFFFFFFFFFFFFFFFFFFFFFFFFFF AND PUSH1 0x3 PUSH1 0x0 DUP5 DUP2 MSTORE PUSH1 0x20 ADD SWAP1 DUP2 MSTORE PUSH1 0x20 ADD PUSH1 0x0 KECCAK256 PUSH1 0x0 SWAP1 SLOAD SWAP1 PUSH2 0x100 EXP SWAP1 DIV PUSH20 0xFFFFFFFFFFFFFFFFFFFFFFFFFFFFFFFFFFFFFFFF AND PUSH20 0xFFFFFFFFFFFFFFFFFFFFFFFFFFFFFFFFFFFFFFFF AND EQ ISZERO SWAP1 POP SWAP2 SWAP1 POP JUMP JUMPDEST PUSH1 0x0 CALLER SWAP1 POP SWAP1 JUMP JUMPDEST DUP2 PUSH1 0x5 PUSH1 0x0 DUP4 DUP2 MSTORE PUSH1 0x20 ADD SWAP1 DUP2 MSTORE PUSH1 0x20 ADD PUSH1 0x0 KECCAK256 PUSH1 0x0 PUSH2 0x100 EXP DUP2 SLOAD DUP2 PUSH20 0xFFFFFFFFFFFFFFFFFFFFFFFFFFFFFFFFFFFFFFFF MUL NOT AND SWAP1 DUP4 PUSH20 0xFFFFFFFFFFFFFFFFFFFFFFFFFFFFFFFFFFFFFFFF AND MUL OR SWAP1 SSTORE POP DUP1 DUP3 PUSH20 0xFFFFFFFFFFFFFFFFFFFFFFFFFFFFFFFFFFFFFFFF AND PUSH2 0xBDC DUP4 PUSH2 0x684 JUMP JUMPDEST PUSH20 0xFFFFFFFFFFFFFFFFFFFFFFFFFFFFFFFFFFFFFFFF AND PUSH32 0x8C5BE1E5EBEC7D5BD14F71427D1E84F3DD0314C0F7B2291E5B200AC8C7C3B925 PUSH1 0x40 MLOAD PUSH1 0x40 MLOAD DUP1 SWAP2 SUB SWAP1 LOG4 POP POP JUMP JUMPDEST PUSH1 0x0 PUSH2 0xC2D DUP3 PUSH2 0xAF5 JUMP JUMPDEST PUSH2 0xC6C JUMPI PUSH1 0x40 MLOAD PUSH32 0x8C379A000000000000000000000000000000000000000000000000000000000 DUP2 MSTORE PUSH1 0x4 ADD PUSH2 0xC63 SWAP1 PUSH2 0x1E20 JUMP JUMPDEST PUSH1 0x40 MLOAD DUP1 SWAP2 SUB SWAP1 REVERT JUMPDEST PUSH1 0x0 PUSH2 0xC77 DUP4 PUSH2 0x684 JUMP JUMPDEST SWAP1 POP DUP1 PUSH20 0xFFFFFFFFFFFFFFFFFFFFFFFFFFFFFFFFFFFFFFFF AND DUP5 PUSH20 0xFFFFFFFFFFFFFFFFFFFFFFFFFFFFFFFFFFFFFFFF AND EQ DUP1 PUSH2 0xCB9 JUMPI POP PUSH2 0xCB8 DUP2 DUP6 PUSH2 0x9FA JUMP JUMPDEST JUMPDEST DUP1 PUSH2 0xCF7 JUMPI POP DUP4 PUSH20 0xFFFFFFFFFFFFFFFFFFFFFFFFFFFFFFFFFFFFFFFF AND PUSH2 0xCDF DUP5 PUSH2 0x467 JUMP JUMPDEST PUSH20 0xFFFFFFFFFFFFFFFFFFFFFFFFFFFFFFFFFFFFFFFF AND EQ JUMPDEST SWAP2 POP POP SWAP3 SWAP2 POP POP JUMP JUMPDEST DUP3 PUSH20 0xFFFFFFFFFFFFFFFFFFFFFFFFFFFFFFFFFFFFFFFF AND PUSH2 0xD20 DUP3 PUSH2 0x684 JUMP JUMPDEST PUSH20 0xFFFFFFFFFFFFFFFFFFFFFFFFFFFFFFFFFFFFFFFF AND EQ PUSH2 0xD76 JUMPI PUSH1 0x40 MLOAD PUSH32 0x8C379A000000000000000000000000000000000000000000000000000000000 DUP2 MSTORE PUSH1 0x4 ADD PUSH2 0xD6D SWAP1 PUSH2 0x1DA0 JUMP JUMPDEST PUSH1 0x40 MLOAD DUP1 SWAP2 SUB SWAP1 REVERT JUMPDEST PUSH1 0x0 PUSH20 0xFFFFFFFFFFFFFFFFFFFFFFFFFFFFFFFFFFFFFFFF AND DUP3 PUSH20 0xFFFFFFFFFFFFFFFFFFFFFFFFFFFFFFFFFFFFFFFF AND EQ ISZERO PUSH2 0xDE6 JUMPI PUSH1 0x40 MLOAD PUSH32 0x8C379A000000000000000000000000000000000000000000000000000000000 DUP2 MSTORE PUSH1 0x4 ADD PUSH2 0xDDD SWAP1 PUSH2 0x1DE0 JUMP JUMPDEST PUSH1 0x40 MLOAD DUP1 SWAP2 SUB SWAP1 REVERT JUMPDEST PUSH2 0xDF1 DUP4 DUP4 DUP4 PUSH2 0x163F JUMP JUMPDEST PUSH2 0xDFC PUSH1 0x0 DUP3 PUSH2 0xB69 JUMP JUMPDEST PUSH1 0x1 PUSH1 0x4 PUSH1 0x0 DUP6 PUSH20 0xFFFFFFFFFFFFFFFFFFFFFFFFFFFFFFFFFFFFFFFF AND PUSH20 0xFFFFFFFFFFFFFFFFFFFFFFFFFFFFFFFFFFFFFFFF AND DUP2 MSTORE PUSH1 0x20 ADD SWAP1 DUP2 MSTORE PUSH1 0x20 ADD PUSH1 0x0 KECCAK256 PUSH1 0x0 DUP3 DUP3 SLOAD PUSH2 0xE4C SWAP2 SWAP1 PUSH2 0x207B JUMP JUMPDEST SWAP3 POP POP DUP2 SWAP1 SSTORE POP PUSH1 0x1 PUSH1 0x4 PUSH1 0x0 DUP5 PUSH20 0xFFFFFFFFFFFFFFFFFFFFFFFFFFFFFFFFFFFFFFFF AND PUSH20 0xFFFFFFFFFFFFFFFFFFFFFFFFFFFFFFFFFFFFFFFF AND DUP2 MSTORE PUSH1 0x20 ADD SWAP1 DUP2 MSTORE PUSH1 0x20 ADD PUSH1 0x0 KECCAK256 PUSH1 0x0 DUP3 DUP3 SLOAD PUSH2 0xEA3 SWAP2 SWAP1 PUSH2 0x1FF4 JUMP JUMPDEST SWAP3 POP POP DUP2 SWAP1 SSTORE POP DUP2 PUSH1 0x3 PUSH1 0x0 DUP4 DUP2 MSTORE PUSH1 0x20 ADD SWAP1 DUP2 MSTORE PUSH1 0x20 ADD PUSH1 0x0 KECCAK256 PUSH1 0x0 PUSH2 0x100 EXP DUP2 SLOAD DUP2 PUSH20 0xFFFFFFFFFFFFFFFFFFFFFFFFFFFFFFFFFFFFFFFF MUL NOT AND SWAP1 DUP4 PUSH20 0xFFFFFFFFFFFFFFFFFFFFFFFFFFFFFFFFFFFFFFFF AND MUL OR SWAP1 SSTORE POP DUP1 DUP3 PUSH20 0xFFFFFFFFFFFFFFFFFFFFFFFFFFFFFFFFFFFFFFFF AND DUP5 PUSH20 0xFFFFFFFFFFFFFFFFFFFFFFFFFFFFFFFFFFFFFFFF AND PUSH32 0xDDF252AD1BE2C89B69C2B068FC378DAA952BA7F163C4A11628F55A4DF523B3EF PUSH1 0x40 MLOAD PUSH1 0x40 MLOAD DUP1 SWAP2 SUB SWAP1 LOG4 PUSH2 0xF62 DUP4 DUP4 DUP4 PUSH2 0x1644 JUMP JUMPDEST POP POP POP JUMP JUMPDEST PUSH1 0x0 PUSH20 0xFFFFFFFFFFFFFFFFFFFFFFFFFFFFFFFFFFFFFFFF AND DUP3 PUSH20 0xFFFFFFFFFFFFFFFFFFFFFFFFFFFFFFFFFFFFFFFF AND EQ ISZERO PUSH2 0xFD7 JUMPI PUSH1 0x40 MLOAD PUSH32 0x8C379A000000000000000000000000000000000000000000000000000000000 DUP2 MSTORE PUSH1 0x4 ADD PUSH2 0xFCE SWAP1 PUSH2 0x1EA0 JUMP JUMPDEST PUSH1 0x40 MLOAD DUP1 SWAP2 SUB SWAP1 REVERT JUMPDEST PUSH2 0xFE0 DUP2 PUSH2 0xAF5 JUMP JUMPDEST ISZERO PUSH2 0x1020 JUMPI PUSH1 0x40 MLOAD PUSH32 0x8C379A000000000000000000000000000000000000000000000000000000000 DUP2 MSTORE PUSH1 0x4 ADD PUSH2 0x1017 SWAP1 PUSH2 0x1DC0 JUMP JUMPDEST PUSH1 0x40 MLOAD DUP1 SWAP2 SUB SWAP1 REVERT JUMPDEST PUSH2 0x102C PUSH1 0x0 DUP4 DUP4 PUSH2 0x163F JUMP JUMPDEST PUSH1 0x1 PUSH1 0x4 PUSH1 0x0 DUP5 PUSH20 0xFFFFFFFFFFFFFFFFFFFFFFFFFFFFFFFFFFFFFFFF AND PUSH20 0xFFFFFFFFFFFFFFFFFFFFFFFFFFFFFFFFFFFFFFFF AND DUP2 MSTORE PUSH1 0x20 ADD SWAP1 DUP2 MSTORE PUSH1 0x20 ADD PUSH1 0x0 KECCAK256 PUSH1 0x0 DUP3 DUP3 SLOAD PUSH2 0x107C SWAP2 SWAP1 PUSH2 0x1FF4 JUMP JUMPDEST SWAP3 POP POP DUP2 SWAP1 SSTORE POP DUP2 PUSH1 0x3 PUSH1 0x0 DUP4 DUP2 MSTORE PUSH1 0x20 ADD SWAP1 DUP2 MSTORE PUSH1 0x20 ADD PUSH1 0x0 KECCAK256 PUSH1 0x0 PUSH2 0x100 EXP DUP2 SLOAD DUP2 PUSH20 0xFFFFFFFFFFFFFFFFFFFFFFFFFFFFFFFFFFFFFFFF MUL NOT AND SWAP1 DUP4 PUSH20 0xFFFFFFFFFFFFFFFFFFFFFFFFFFFFFFFFFFFFFFFF AND MUL OR SWAP1 SSTORE POP DUP1 DUP3 PUSH20 0xFFFFFFFFFFFFFFFFFFFFFFFFFFFFFFFFFFFFFFFF AND PUSH1 0x0 PUSH20 0xFFFFFFFFFFFFFFFFFFFFFFFFFFFFFFFFFFFFFFFF AND PUSH32 0xDDF252AD1BE2C89B69C2B068FC378DAA952BA7F163C4A11628F55A4DF523B3EF PUSH1 0x40 MLOAD PUSH1 0x40 MLOAD DUP1 SWAP2 SUB SWAP1 LOG4 PUSH2 0x113D PUSH1 0x0 DUP4 DUP4 PUSH2 0x1644 JUMP JUMPDEST POP POP JUMP JUMPDEST PUSH1 0x0 PUSH2 0x1162 DUP5 PUSH20 0xFFFFFFFFFFFFFFFFFFFFFFFFFFFFFFFFFFFFFFFF AND PUSH2 0x1649 JUMP JUMPDEST ISZERO PUSH2 0x12CB JUMPI DUP4 PUSH20 0xFFFFFFFFFFFFFFFFFFFFFFFFFFFFFFFFFFFFFFFF AND PUSH4 0x150B7A02 PUSH2 0x118B PUSH2 0xB61 JUMP JUMPDEST DUP8 DUP7 DUP7 PUSH1 0x40 MLOAD DUP6 PUSH4 0xFFFFFFFF AND PUSH1 0xE0 SHL DUP2 MSTORE PUSH1 0x4 ADD PUSH2 0x11AD SWAP5 SWAP4 SWAP3 SWAP2 SWAP1 PUSH2 0x1CF7 JUMP JUMPDEST PUSH1 0x20 PUSH1 0x40 MLOAD DUP1 DUP4 SUB DUP2 PUSH1 0x0 DUP8 DUP1 EXTCODESIZE ISZERO DUP1 ISZERO PUSH2 0x11C7 JUMPI PUSH1 0x0 DUP1 REVERT JUMPDEST POP GAS CALL SWAP3 POP POP POP DUP1 ISZERO PUSH2 0x11F8 JUMPI POP PUSH1 0x40 MLOAD RETURNDATASIZE PUSH1 0x1F NOT PUSH1 0x1F DUP3 ADD AND DUP3 ADD DUP1 PUSH1 0x40 MSTORE POP DUP2 ADD SWAP1 PUSH2 0x11F5 SWAP2 SWAP1 PUSH2 0x19A4 JUMP JUMPDEST PUSH1 0x1 JUMPDEST PUSH2 0x127B JUMPI RETURNDATASIZE DUP1 PUSH1 0x0 DUP2 EQ PUSH2 0x1228 JUMPI PUSH1 0x40 MLOAD SWAP2 POP PUSH1 0x1F NOT PUSH1 0x3F RETURNDATASIZE ADD AND DUP3 ADD PUSH1 0x40 MSTORE RETURNDATASIZE DUP3 MSTORE RETURNDATASIZE PUSH1 0x0 PUSH1 0x20 DUP5 ADD RETURNDATACOPY PUSH2 0x122D JUMP JUMPDEST PUSH1 0x60 SWAP2 POP JUMPDEST POP PUSH1 0x0 DUP2 MLOAD EQ ISZERO PUSH2 0x1273 JUMPI PUSH1 0x40 MLOAD PUSH32 0x8C379A000000000000000000000000000000000000000000000000000000000 DUP2 MSTORE PUSH1 0x4 ADD PUSH2 0x126A SWAP1 PUSH2 0x1D80 JUMP JUMPDEST PUSH1 0x40 MLOAD DUP1 SWAP2 SUB SWAP1 REVERT JUMPDEST DUP1 MLOAD DUP2 PUSH1 0x20 ADD REVERT JUMPDEST PUSH4 0x150B7A02 PUSH1 0xE0 SHL PUSH28 0xFFFFFFFFFFFFFFFFFFFFFFFFFFFFFFFFFFFFFFFFFFFFFFFFFFFFFFFF NOT AND DUP2 PUSH28 0xFFFFFFFFFFFFFFFFFFFFFFFFFFFFFFFFFFFFFFFFFFFFFFFFFFFFFFFF NOT AND EQ SWAP2 POP POP PUSH2 0x12D0 JUMP JUMPDEST PUSH1 0x1 SWAP1 POP JUMPDEST SWAP5 SWAP4 POP POP POP POP JUMP JUMPDEST DUP2 PUSH20 0xFFFFFFFFFFFFFFFFFFFFFFFFFFFFFFFFFFFFFFFF AND DUP4 PUSH20 0xFFFFFFFFFFFFFFFFFFFFFFFFFFFFFFFFFFFFFFFF AND EQ ISZERO PUSH2 0x1347 JUMPI PUSH1 0x40 MLOAD PUSH32 0x8C379A000000000000000000000000000000000000000000000000000000000 DUP2 MSTORE PUSH1 0x4 ADD PUSH2 0x133E SWAP1 PUSH2 0x1E00 JUMP JUMPDEST PUSH1 0x40 MLOAD DUP1 SWAP2 SUB SWAP1 REVERT JUMPDEST DUP1 PUSH1 0x6 PUSH1 0x0 DUP6 PUSH20 0xFFFFFFFFFFFFFFFFFFFFFFFFFFFFFFFFFFFFFFFF AND PUSH20 0xFFFFFFFFFFFFFFFFFFFFFFFFFFFFFFFFFFFFFFFF AND DUP2 MSTORE PUSH1 0x20 ADD SWAP1 DUP2 MSTORE PUSH1 0x20 ADD PUSH1 0x0 KECCAK256 PUSH1 0x0 DUP5 PUSH20 0xFFFFFFFFFFFFFFFFFFFFFFFFFFFFFFFFFFFFFFFF AND PUSH20 0xFFFFFFFFFFFFFFFFFFFFFFFFFFFFFFFFFFFFFFFF AND DUP2 MSTORE PUSH1 0x20 ADD SWAP1 DUP2 MSTORE PUSH1 0x20 ADD PUSH1 0x0 KECCAK256 PUSH1 0x0 PUSH2 0x100 EXP DUP2 SLOAD DUP2 PUSH1 0xFF MUL NOT AND SWAP1 DUP4 ISZERO ISZERO MUL OR SWAP1 SSTORE POP DUP2 PUSH20 0xFFFFFFFFFFFFFFFFFFFFFFFFFFFFFFFFFFFFFFFF AND DUP4 PUSH20 0xFFFFFFFFFFFFFFFFFFFFFFFFFFFFFFFFFFFFFFFF AND PUSH32 0x17307EAB39AB6107E8899845AD3D59BD9653F200F220920489CA2B5937696C31 DUP4 PUSH1 0x40 MLOAD PUSH2 0x1438 SWAP2 SWAP1 PUSH2 0x1D43 JUMP JUMPDEST PUSH1 0x40 MLOAD DUP1 SWAP2 SUB SWAP1 LOG3 POP POP POP JUMP JUMPDEST PUSH2 0x1450 DUP5 DUP5 DUP5 PUSH2 0xD00 JUMP JUMPDEST PUSH2 0x145C DUP5 DUP5 DUP5 DUP5 PUSH2 0x1141 JUMP JUMPDEST PUSH2 0x149B JUMPI PUSH1 0x40 MLOAD PUSH32 0x8C379A000000000000000000000000000000000000000000000000000000000 DUP2 MSTORE PUSH1 0x4 ADD PUSH2 0x1492 SWAP1 PUSH2 0x1D80 JUMP JUMPDEST PUSH1 0x40 MLOAD DUP1 SWAP2 SUB SWAP1 REVERT JUMPDEST POP POP POP POP JUMP JUMPDEST PUSH1 0x60 PUSH1 0x40 MLOAD DUP1 PUSH1 0x40 ADD PUSH1 0x40 MSTORE DUP1 PUSH1 0x12 DUP2 MSTORE PUSH1 0x20 ADD PUSH32 0x42696E616E636520536D61727420446174610000000000000000000000000000 DUP2 MSTORE POP SWAP1 POP SWAP1 JUMP JUMPDEST PUSH1 0x60 PUSH1 0x0 DUP3 EQ ISZERO PUSH2 0x1526 JUMPI PUSH1 0x40 MLOAD DUP1 PUSH1 0x40 ADD PUSH1 0x40 MSTORE DUP1 PUSH1 0x1 DUP2 MSTORE PUSH1 0x20 ADD PUSH32 0x3000000000000000000000000000000000000000000000000000000000000000 DUP2 MSTORE POP SWAP1 POP PUSH2 0x163A JUMP JUMPDEST PUSH1 0x0 DUP3 SWAP1 POP PUSH1 0x0 JUMPDEST PUSH1 0x0 DUP3 EQ PUSH2 0x1558 JUMPI DUP1 DUP1 PUSH2 0x1541 SWAP1 PUSH2 0x21C8 JUMP JUMPDEST SWAP2 POP POP PUSH1 0xA DUP3 PUSH2 0x1551 SWAP2 SWAP1 PUSH2 0x204A JUMP JUMPDEST SWAP2 POP PUSH2 0x152E JUMP JUMPDEST PUSH1 0x0 DUP2 PUSH8 0xFFFFFFFFFFFFFFFF DUP2 GT ISZERO PUSH2 0x1574 JUMPI PUSH2 0x1573 PUSH2 0x22FE JUMP JUMPDEST JUMPDEST PUSH1 0x40 MLOAD SWAP1 DUP1 DUP3 MSTORE DUP1 PUSH1 0x1F ADD PUSH1 0x1F NOT AND PUSH1 0x20 ADD DUP3 ADD PUSH1 0x40 MSTORE DUP1 ISZERO PUSH2 0x15A6 JUMPI DUP2 PUSH1 0x20 ADD PUSH1 0x1 DUP3 MUL DUP1 CALLDATASIZE DUP4 CALLDATACOPY DUP1 DUP3 ADD SWAP2 POP POP SWAP1 POP JUMPDEST POP SWAP1 POP JUMPDEST PUSH1 0x0 DUP6 EQ PUSH2 0x1633 JUMPI PUSH1 0x1 DUP3 PUSH2 0x15BF SWAP2 SWAP1 PUSH2 0x207B JUMP JUMPDEST SWAP2 POP PUSH1 0xA DUP6 PUSH2 0x15CE SWAP2 SWAP1 PUSH2 0x2211 JUMP JUMPDEST PUSH1 0x30 PUSH2 0x15DA SWAP2 SWAP1 PUSH2 0x1FF4 JUMP JUMPDEST PUSH1 0xF8 SHL DUP2 DUP4 DUP2 MLOAD DUP2 LT PUSH2 0x15F0 JUMPI PUSH2 0x15EF PUSH2 0x22CF JUMP JUMPDEST JUMPDEST PUSH1 0x20 ADD ADD SWAP1 PUSH31 0xFFFFFFFFFFFFFFFFFFFFFFFFFFFFFFFFFFFFFFFFFFFFFFFFFFFFFFFFFFFFFF NOT AND SWAP1 DUP2 PUSH1 0x0 BYTE SWAP1 MSTORE8 POP PUSH1 0xA DUP6 PUSH2 0x162C SWAP2 SWAP1 PUSH2 0x204A JUMP JUMPDEST SWAP5 POP PUSH2 0x15AA JUMP JUMPDEST DUP1 SWAP4 POP POP POP POP JUMPDEST SWAP2 SWAP1 POP JUMP JUMPDEST POP POP POP JUMP JUMPDEST POP POP POP JUMP JUMPDEST PUSH1 0x0 DUP1 DUP3 PUSH20 0xFFFFFFFFFFFFFFFFFFFFFFFFFFFFFFFFFFFFFFFF AND EXTCODESIZE GT SWAP1 POP SWAP2 SWAP1 POP JUMP JUMPDEST PUSH1 0x0 PUSH2 0x167F PUSH2 0x167A DUP5 PUSH2 0x1F80 JUMP JUMPDEST PUSH2 0x1F5B JUMP JUMPDEST SWAP1 POP DUP3 DUP2 MSTORE PUSH1 0x20 DUP2 ADD DUP5 DUP5 DUP5 ADD GT ISZERO PUSH2 0x169B JUMPI PUSH2 0x169A PUSH2 0x2332 JUMP JUMPDEST JUMPDEST PUSH2 0x16A6 DUP5 DUP3 DUP6 PUSH2 0x2123 JUMP JUMPDEST POP SWAP4 SWAP3 POP POP POP JUMP JUMPDEST PUSH1 0x0 DUP2 CALLDATALOAD SWAP1 POP PUSH2 0x16BD DUP2 PUSH2 0x2732 JUMP JUMPDEST SWAP3 SWAP2 POP POP JUMP JUMPDEST PUSH1 0x0 DUP2 CALLDATALOAD SWAP1 POP PUSH2 0x16D2 DUP2 PUSH2 0x2749 JUMP JUMPDEST SWAP3 SWAP2 POP POP JUMP JUMPDEST PUSH1 0x0 DUP2 CALLDATALOAD SWAP1 POP PUSH2 0x16E7 DUP2 PUSH2 0x2760 JUMP JUMPDEST SWAP3 SWAP2 POP POP JUMP JUMPDEST PUSH1 0x0 DUP2 MLOAD SWAP1 POP PUSH2 0x16FC DUP2 PUSH2 0x2760 JUMP JUMPDEST SWAP3 SWAP2 POP POP JUMP JUMPDEST PUSH1 0x0 DUP3 PUSH1 0x1F DUP4 ADD SLT PUSH2 0x1717 JUMPI PUSH2 0x1716 PUSH2 0x232D JUMP JUMPDEST JUMPDEST DUP2 CALLDATALOAD PUSH2 0x1727 DUP5 DUP3 PUSH1 0x20 DUP7 ADD PUSH2 0x166C JUMP JUMPDEST SWAP2 POP POP SWAP3 SWAP2 POP POP JUMP JUMPDEST PUSH1 0x0 DUP2 CALLDATALOAD SWAP1 POP PUSH2 0x173F DUP2 PUSH2 0x2777 JUMP JUMPDEST SWAP3 SWAP2 POP POP JUMP JUMPDEST PUSH1 0x0 PUSH1 0x20 DUP3 DUP5 SUB SLT ISZERO PUSH2 0x175B JUMPI PUSH2 0x175A PUSH2 0x233C JUMP JUMPDEST JUMPDEST PUSH1 0x0 PUSH2 0x1769 DUP5 DUP3 DUP6 ADD PUSH2 0x16AE JUMP JUMPDEST SWAP2 POP POP SWAP3 SWAP2 POP POP JUMP JUMPDEST PUSH1 0x0 DUP1 PUSH1 0x40 DUP4 DUP6 SUB SLT ISZERO PUSH2 0x1789 JUMPI PUSH2 0x1788 PUSH2 0x233C JUMP JUMPDEST JUMPDEST PUSH1 0x0 PUSH2 0x1797 DUP6 DUP3 DUP7 ADD PUSH2 0x16AE JUMP JUMPDEST SWAP3 POP POP PUSH1 0x20 PUSH2 0x17A8 DUP6 DUP3 DUP7 ADD PUSH2 0x16AE JUMP JUMPDEST SWAP2 POP POP SWAP3 POP SWAP3 SWAP1 POP JUMP JUMPDEST PUSH1 0x0 DUP1 PUSH1 0x0 PUSH1 0x60 DUP5 DUP7 SUB SLT ISZERO PUSH2 0x17CB JUMPI PUSH2 0x17CA PUSH2 0x233C JUMP JUMPDEST JUMPDEST PUSH1 0x0 PUSH2 0x17D9 DUP7 DUP3 DUP8 ADD PUSH2 0x16AE JUMP JUMPDEST SWAP4 POP POP PUSH1 0x20 PUSH2 0x17EA DUP7 DUP3 DUP8 ADD PUSH2 0x16AE JUMP JUMPDEST SWAP3 POP POP PUSH1 0x40 PUSH2 0x17FB DUP7 DUP3 DUP8 ADD PUSH2 0x1730 JUMP JUMPDEST SWAP2 POP POP SWAP3 POP SWAP3 POP SWAP3 JUMP JUMPDEST PUSH1 0x0 DUP1 PUSH1 0x0 DUP1 PUSH1 0x80 DUP6 DUP8 SUB SLT ISZERO PUSH2 0x181F JUMPI PUSH2 0x181E PUSH2 0x233C JUMP JUMPDEST JUMPDEST PUSH1 0x0 PUSH2 0x182D DUP8 DUP3 DUP9 ADD PUSH2 0x16AE JUMP JUMPDEST SWAP5 POP POP PUSH1 0x20 PUSH2 0x183E DUP8 DUP3 DUP9 ADD PUSH2 0x16AE JUMP JUMPDEST SWAP4 POP POP PUSH1 0x40 PUSH2 0x184F DUP8 DUP3 DUP9 ADD PUSH2 0x1730 JUMP JUMPDEST SWAP3 POP POP PUSH1 0x60 DUP6 ADD CALLDATALOAD PUSH8 0xFFFFFFFFFFFFFFFF DUP2 GT ISZERO PUSH2 0x1870 JUMPI PUSH2 0x186F PUSH2 0x2337 JUMP JUMPDEST JUMPDEST PUSH2 0x187C DUP8 DUP3 DUP9 ADD PUSH2 0x1702 JUMP JUMPDEST SWAP2 POP POP SWAP3 SWAP6 SWAP2 SWAP5 POP SWAP3 POP JUMP JUMPDEST PUSH1 0x0 DUP1 PUSH1 0x40 DUP4 DUP6 SUB SLT ISZERO PUSH2 0x189F JUMPI PUSH2 0x189E PUSH2 0x233C JUMP JUMPDEST JUMPDEST PUSH1 0x0 PUSH2 0x18AD DUP6 DUP3 DUP7 ADD PUSH2 0x16AE JUMP JUMPDEST SWAP3 POP POP PUSH1 0x20 PUSH2 0x18BE DUP6 DUP3 DUP7 ADD PUSH2 0x16C3 JUMP JUMPDEST SWAP2 POP POP SWAP3 POP SWAP3 SWAP1 POP JUMP JUMPDEST PUSH1 0x0 DUP1 PUSH1 0x40 DUP4 DUP6 SUB SLT ISZERO PUSH2 0x18DF JUMPI PUSH2 0x18DE PUSH2 0x233C JUMP JUMPDEST JUMPDEST PUSH1 0x0 PUSH2 0x18ED DUP6 DUP3 DUP7 ADD PUSH2 0x16AE JUMP JUMPDEST SWAP3 POP POP PUSH1 0x20 PUSH2 0x18FE DUP6 DUP3 DUP7 ADD PUSH2 0x1730 JUMP JUMPDEST SWAP2 POP POP SWAP3 POP SWAP3 SWAP1 POP JUMP JUMPDEST PUSH1 0x0 DUP1 PUSH1 0x0 PUSH1 0x60 DUP5 DUP7 SUB SLT ISZERO PUSH2 0x1921 JUMPI PUSH2 0x1920 PUSH2 0x233C JUMP JUMPDEST JUMPDEST PUSH1 0x0 PUSH2 0x192F DUP7 DUP3 DUP8 ADD PUSH2 0x16AE JUMP JUMPDEST SWAP4 POP POP PUSH1 0x20 PUSH2 0x1940 DUP7 DUP3 DUP8 ADD PUSH2 0x1730 JUMP JUMPDEST SWAP3 POP POP PUSH1 0x40 DUP5 ADD CALLDATALOAD PUSH8 0xFFFFFFFFFFFFFFFF DUP2 GT ISZERO PUSH2 0x1961 JUMPI PUSH2 0x1960 PUSH2 0x2337 JUMP JUMPDEST JUMPDEST PUSH2 0x196D DUP7 DUP3 DUP8 ADD PUSH2 0x1702 JUMP JUMPDEST SWAP2 POP POP SWAP3 POP SWAP3 POP SWAP3 JUMP JUMPDEST PUSH1 0x0 PUSH1 0x20 DUP3 DUP5 SUB SLT ISZERO PUSH2 0x198D JUMPI PUSH2 0x198C PUSH2 0x233C JUMP JUMPDEST JUMPDEST PUSH1 0x0 PUSH2 0x199B DUP5 DUP3 DUP6 ADD PUSH2 0x16D8 JUMP JUMPDEST SWAP2 POP POP SWAP3 SWAP2 POP POP JUMP JUMPDEST PUSH1 0x0 PUSH1 0x20 DUP3 DUP5 SUB SLT ISZERO PUSH2 0x19BA JUMPI PUSH2 0x19B9 PUSH2 0x233C JUMP JUMPDEST JUMPDEST PUSH1 0x0 PUSH2 0x19C8 DUP5 DUP3 DUP6 ADD PUSH2 0x16ED JUMP JUMPDEST SWAP2 POP POP SWAP3 SWAP2 POP POP JUMP JUMPDEST PUSH1 0x0 PUSH1 0x20 DUP3 DUP5 SUB SLT ISZERO PUSH2 0x19E7 JUMPI PUSH2 0x19E6 PUSH2 0x233C JUMP JUMPDEST JUMPDEST PUSH1 0x0 PUSH2 0x19F5 DUP5 DUP3 DUP6 ADD PUSH2 0x1730 JUMP JUMPDEST SWAP2 POP POP SWAP3 SWAP2 POP POP JUMP JUMPDEST PUSH2 0x1A07 DUP2 PUSH2 0x20AF JUMP JUMPDEST DUP3 MSTORE POP POP JUMP JUMPDEST PUSH2 0x1A16 DUP2 PUSH2 0x20C1 JUMP JUMPDEST DUP3 MSTORE POP POP JUMP JUMPDEST PUSH1 0x0 PUSH2 0x1A27 DUP3 PUSH2 0x1FB1 JUMP JUMPDEST PUSH2 0x1A31 DUP2 DUP6 PUSH2 0x1FC7 JUMP JUMPDEST SWAP4 POP PUSH2 0x1A41 DUP2 DUP6 PUSH1 0x20 DUP7 ADD PUSH2 0x2132 JUMP JUMPDEST PUSH2 0x1A4A DUP2 PUSH2 0x2341 JUMP JUMPDEST DUP5 ADD SWAP2 POP POP SWAP3 SWAP2 POP POP JUMP JUMPDEST PUSH1 0x0 PUSH2 0x1A60 DUP3 PUSH2 0x1FBC JUMP JUMPDEST PUSH2 0x1A6A DUP2 DUP6 PUSH2 0x1FD8 JUMP JUMPDEST SWAP4 POP PUSH2 0x1A7A DUP2 DUP6 PUSH1 0x20 DUP7 ADD PUSH2 0x2132 JUMP JUMPDEST PUSH2 0x1A83 DUP2 PUSH2 0x2341 JUMP JUMPDEST DUP5 ADD SWAP2 POP POP SWAP3 SWAP2 POP POP JUMP JUMPDEST PUSH1 0x0 PUSH2 0x1A99 DUP3 PUSH2 0x1FBC JUMP JUMPDEST PUSH2 0x1AA3 DUP2 DUP6 PUSH2 0x1FE9 JUMP JUMPDEST SWAP4 POP PUSH2 0x1AB3 DUP2 DUP6 PUSH1 0x20 DUP7 ADD PUSH2 0x2132 JUMP JUMPDEST DUP1 DUP5 ADD SWAP2 POP POP SWAP3 SWAP2 POP POP JUMP JUMPDEST PUSH1 0x0 PUSH2 0x1ACC PUSH1 0x32 DUP4 PUSH2 0x1FD8 JUMP JUMPDEST SWAP2 POP PUSH2 0x1AD7 DUP3 PUSH2 0x2352 JUMP JUMPDEST PUSH1 0x40 DUP3 ADD SWAP1 POP SWAP2 SWAP1 POP JUMP JUMPDEST PUSH1 0x0 PUSH2 0x1AEF PUSH1 0x25 DUP4 PUSH2 0x1FD8 JUMP JUMPDEST SWAP2 POP PUSH2 0x1AFA DUP3 PUSH2 0x23A1 JUMP JUMPDEST PUSH1 0x40 DUP3 ADD SWAP1 POP SWAP2 SWAP1 POP JUMP JUMPDEST PUSH1 0x0 PUSH2 0x1B12 PUSH1 0x1C DUP4 PUSH2 0x1FD8 JUMP JUMPDEST SWAP2 POP PUSH2 0x1B1D DUP3 PUSH2 0x23F0 JUMP JUMPDEST PUSH1 0x20 DUP3 ADD SWAP1 POP SWAP2 SWAP1 POP JUMP JUMPDEST PUSH1 0x0 PUSH2 0x1B35 PUSH1 0x24 DUP4 PUSH2 0x1FD8 JUMP JUMPDEST SWAP2 POP PUSH2 0x1B40 DUP3 PUSH2 0x2419 JUMP JUMPDEST PUSH1 0x40 DUP3 ADD SWAP1 POP SWAP2 SWAP1 POP JUMP JUMPDEST PUSH1 0x0 PUSH2 0x1B58 PUSH1 0x19 DUP4 PUSH2 0x1FD8 JUMP JUMPDEST SWAP2 POP PUSH2 0x1B63 DUP3 PUSH2 0x2468 JUMP JUMPDEST PUSH1 0x20 DUP3 ADD SWAP1 POP SWAP2 SWAP1 POP JUMP JUMPDEST PUSH1 0x0 PUSH2 0x1B7B PUSH1 0x2C DUP4 PUSH2 0x1FD8 JUMP JUMPDEST SWAP2 POP PUSH2 0x1B86 DUP3 PUSH2 0x2491 JUMP JUMPDEST PUSH1 0x40 DUP3 ADD SWAP1 POP SWAP2 SWAP1 POP JUMP JUMPDEST PUSH1 0x0 PUSH2 0x1B9E PUSH1 0x38 DUP4 PUSH2 0x1FD8 JUMP JUMPDEST SWAP2 POP PUSH2 0x1BA9 DUP3 PUSH2 0x24E0 JUMP JUMPDEST PUSH1 0x40 DUP3 ADD SWAP1 POP SWAP2 SWAP1 POP JUMP JUMPDEST PUSH1 0x0 PUSH2 0x1BC1 PUSH1 0x2A DUP4 PUSH2 0x1FD8 JUMP JUMPDEST SWAP2 POP PUSH2 0x1BCC DUP3 PUSH2 0x252F JUMP JUMPDEST PUSH1 0x40 DUP3 ADD SWAP1 POP SWAP2 SWAP1 POP JUMP JUMPDEST PUSH1 0x0 PUSH2 0x1BE4 PUSH1 0x29 DUP4 PUSH2 0x1FD8 JUMP JUMPDEST SWAP2 POP PUSH2 0x1BEF DUP3 PUSH2 0x257E JUMP JUMPDEST PUSH1 0x40 DUP3 ADD SWAP1 POP SWAP2 SWAP1 POP JUMP JUMPDEST PUSH1 0x0 PUSH2 0x1C07 PUSH1 0x20 DUP4 PUSH2 0x1FD8 JUMP JUMPDEST SWAP2 POP PUSH2 0x1C12 DUP3 PUSH2 0x25CD JUMP JUMPDEST PUSH1 0x20 DUP3 ADD SWAP1 POP SWAP2 SWAP1 POP JUMP JUMPDEST PUSH1 0x0 PUSH2 0x1C2A PUSH1 0x2C DUP4 PUSH2 0x1FD8 JUMP JUMPDEST SWAP2 POP PUSH2 0x1C35 DUP3 PUSH2 0x25F6 JUMP JUMPDEST PUSH1 0x40 DUP3 ADD SWAP1 POP SWAP2 SWAP1 POP JUMP JUMPDEST PUSH1 0x0 PUSH2 0x1C4D PUSH1 0x2F DUP4 PUSH2 0x1FD8 JUMP JUMPDEST SWAP2 POP PUSH2 0x1C58 DUP3 PUSH2 0x2645 JUMP JUMPDEST PUSH1 0x40 DUP3 ADD SWAP1 POP SWAP2 SWAP1 POP JUMP JUMPDEST PUSH1 0x0 PUSH2 0x1C70 PUSH1 0x21 DUP4 PUSH2 0x1FD8 JUMP JUMPDEST SWAP2 POP PUSH2 0x1C7B DUP3 PUSH2 0x2694 JUMP JUMPDEST PUSH1 0x40 DUP3 ADD SWAP1 POP SWAP2 SWAP1 POP JUMP JUMPDEST PUSH1 0x0 PUSH2 0x1C93 PUSH1 0x31 DUP4 PUSH2 0x1FD8 JUMP JUMPDEST SWAP2 POP PUSH2 0x1C9E DUP3 PUSH2 0x26E3 JUMP JUMPDEST PUSH1 0x40 DUP3 ADD SWAP1 POP SWAP2 SWAP1 POP JUMP JUMPDEST PUSH2 0x1CB2 DUP2 PUSH2 0x2119 JUMP JUMPDEST DUP3 MSTORE POP POP JUMP JUMPDEST PUSH1 0x0 PUSH2 0x1CC4 DUP3 DUP6 PUSH2 0x1A8E JUMP JUMPDEST SWAP2 POP PUSH2 0x1CD0 DUP3 DUP5 PUSH2 0x1A8E JUMP JUMPDEST SWAP2 POP DUP2 SWAP1 POP SWAP4 SWAP3 POP POP POP JUMP JUMPDEST PUSH1 0x0 PUSH1 0x20 DUP3 ADD SWAP1 POP PUSH2 0x1CF1 PUSH1 0x0 DUP4 ADD DUP5 PUSH2 0x19FE JUMP JUMPDEST SWAP3 SWAP2 POP POP JUMP JUMPDEST PUSH1 0x0 PUSH1 0x80 DUP3 ADD SWAP1 POP PUSH2 0x1D0C PUSH1 0x0 DUP4 ADD DUP8 PUSH2 0x19FE JUMP JUMPDEST PUSH2 0x1D19 PUSH1 0x20 DUP4 ADD DUP7 PUSH2 0x19FE JUMP JUMPDEST PUSH2 0x1D26 PUSH1 0x40 DUP4 ADD DUP6 PUSH2 0x1CA9 JUMP JUMPDEST DUP2 DUP2 SUB PUSH1 0x60 DUP4 ADD MSTORE PUSH2 0x1D38 DUP2 DUP5 PUSH2 0x1A1C JUMP JUMPDEST SWAP1 POP SWAP6 SWAP5 POP POP POP POP POP JUMP JUMPDEST PUSH1 0x0 PUSH1 0x20 DUP3 ADD SWAP1 POP PUSH2 0x1D58 PUSH1 0x0 DUP4 ADD DUP5 PUSH2 0x1A0D JUMP JUMPDEST SWAP3 SWAP2 POP POP JUMP JUMPDEST PUSH1 0x0 PUSH1 0x20 DUP3 ADD SWAP1 POP DUP2 DUP2 SUB PUSH1 0x0 DUP4 ADD MSTORE PUSH2 0x1D78 DUP2 DUP5 PUSH2 0x1A55 JUMP JUMPDEST SWAP1 POP SWAP3 SWAP2 POP POP JUMP JUMPDEST PUSH1 0x0 PUSH1 0x20 DUP3 ADD SWAP1 POP DUP2 DUP2 SUB PUSH1 0x0 DUP4 ADD MSTORE PUSH2 0x1D99 DUP2 PUSH2 0x1ABF JUMP JUMPDEST SWAP1 POP SWAP2 SWAP1 POP JUMP JUMPDEST PUSH1 0x0 PUSH1 0x20 DUP3 ADD SWAP1 POP DUP2 DUP2 SUB PUSH1 0x0 DUP4 ADD MSTORE PUSH2 0x1DB9 DUP2 PUSH2 0x1AE2 JUMP JUMPDEST SWAP1 POP SWAP2 SWAP1 POP JUMP JUMPDEST PUSH1 0x0 PUSH1 0x20 DUP3 ADD SWAP1 POP DUP2 DUP2 SUB PUSH1 0x0 DUP4 ADD MSTORE PUSH2 0x1DD9 DUP2 PUSH2 0x1B05 JUMP JUMPDEST SWAP1 POP SWAP2 SWAP1 POP JUMP JUMPDEST PUSH1 0x0 PUSH1 0x20 DUP3 ADD SWAP1 POP DUP2 DUP2 SUB PUSH1 0x0 DUP4 ADD MSTORE PUSH2 0x1DF9 DUP2 PUSH2 0x1B28 JUMP JUMPDEST SWAP1 POP SWAP2 SWAP1 POP JUMP JUMPDEST PUSH1 0x0 PUSH1 0x20 DUP3 ADD SWAP1 POP DUP2 DUP2 SUB PUSH1 0x0 DUP4 ADD MSTORE PUSH2 0x1E19 DUP2 PUSH2 0x1B4B JUMP JUMPDEST SWAP1 POP SWAP2 SWAP1 POP JUMP JUMPDEST PUSH1 0x0 PUSH1 0x20 DUP3 ADD SWAP1 POP DUP2 DUP2 SUB PUSH1 0x0 DUP4 ADD MSTORE PUSH2 0x1E39 DUP2 PUSH2 0x1B6E JUMP JUMPDEST SWAP1 POP SWAP2 SWAP1 POP JUMP JUMPDEST PUSH1 0x0 PUSH1 0x20 DUP3 ADD SWAP1 POP DUP2 DUP2 SUB PUSH1 0x0 DUP4 ADD MSTORE PUSH2 0x1E59 DUP2 PUSH2 0x1B91 JUMP JUMPDEST SWAP1 POP SWAP2 SWAP1 POP JUMP JUMPDEST PUSH1 0x0 PUSH1 0x20 DUP3 ADD SWAP1 POP DUP2 DUP2 SUB PUSH1 0x0 DUP4 ADD MSTORE PUSH2 0x1E79 DUP2 PUSH2 0x1BB4 JUMP JUMPDEST SWAP1 POP SWAP2 SWAP1 POP JUMP JUMPDEST PUSH1 0x0 PUSH1 0x20 DUP3 ADD SWAP1 POP DUP2 DUP2 SUB PUSH1 0x0 DUP4 ADD MSTORE PUSH2 0x1E99 DUP2 PUSH2 0x1BD7 JUMP JUMPDEST SWAP1 POP SWAP2 SWAP1 POP JUMP JUMPDEST PUSH1 0x0 PUSH1 0x20 DUP3 ADD SWAP1 POP DUP2 DUP2 SUB PUSH1 0x0 DUP4 ADD MSTORE PUSH2 0x1EB9 DUP2 PUSH2 0x1BFA JUMP JUMPDEST SWAP1 POP SWAP2 SWAP1 POP JUMP JUMPDEST PUSH1 0x0 PUSH1 0x20 DUP3 ADD SWAP1 POP DUP2 DUP2 SUB PUSH1 0x0 DUP4 ADD MSTORE PUSH2 0x1ED9 DUP2 PUSH2 0x1C1D JUMP JUMPDEST SWAP1 POP SWAP2 SWAP1 POP JUMP JUMPDEST PUSH1 0x0 PUSH1 0x20 DUP3 ADD SWAP1 POP DUP2 DUP2 SUB PUSH1 0x0 DUP4 ADD MSTORE PUSH2 0x1EF9 DUP2 PUSH2 0x1C40 JUMP JUMPDEST SWAP1 POP SWAP2 SWAP1 POP JUMP JUMPDEST PUSH1 0x0 PUSH1 0x20 DUP3 ADD SWAP1 POP DUP2 DUP2 SUB PUSH1 0x0 DUP4 ADD MSTORE PUSH2 0x1F19 DUP2 PUSH2 0x1C63 JUMP JUMPDEST SWAP1 POP SWAP2 SWAP1 POP JUMP JUMPDEST PUSH1 0x0 PUSH1 0x20 DUP3 ADD SWAP1 POP DUP2 DUP2 SUB PUSH1 0x0 DUP4 ADD MSTORE PUSH2 0x1F39 DUP2 PUSH2 0x1C86 JUMP JUMPDEST SWAP1 POP SWAP2 SWAP1 POP JUMP JUMPDEST PUSH1 0x0 PUSH1 0x20 DUP3 ADD SWAP1 POP PUSH2 0x1F55 PUSH1 0x0 DUP4 ADD DUP5 PUSH2 0x1CA9 JUMP JUMPDEST SWAP3 SWAP2 POP POP JUMP JUMPDEST PUSH1 0x0 PUSH2 0x1F65 PUSH2 0x1F76 JUMP JUMPDEST SWAP1 POP PUSH2 0x1F71 DUP3 DUP3 PUSH2 0x2197 JUMP JUMPDEST SWAP2 SWAP1 POP JUMP JUMPDEST PUSH1 0x0 PUSH1 0x40 MLOAD SWAP1 POP SWAP1 JUMP JUMPDEST PUSH1 0x0 PUSH8 0xFFFFFFFFFFFFFFFF DUP3 GT ISZERO PUSH2 0x1F9B JUMPI PUSH2 0x1F9A PUSH2 0x22FE JUMP JUMPDEST JUMPDEST PUSH2 0x1FA4 DUP3 PUSH2 0x2341 JUMP JUMPDEST SWAP1 POP PUSH1 0x20 DUP2 ADD SWAP1 POP SWAP2 SWAP1 POP JUMP JUMPDEST PUSH1 0x0 DUP2 MLOAD SWAP1 POP SWAP2 SWAP1 POP JUMP JUMPDEST PUSH1 0x0 DUP2 MLOAD SWAP1 POP SWAP2 SWAP1 POP JUMP JUMPDEST PUSH1 0x0 DUP3 DUP3 MSTORE PUSH1 0x20 DUP3 ADD SWAP1 POP SWAP3 SWAP2 POP POP JUMP JUMPDEST PUSH1 0x0 DUP3 DUP3 MSTORE PUSH1 0x20 DUP3 ADD SWAP1 POP SWAP3 SWAP2 POP POP JUMP JUMPDEST PUSH1 0x0 DUP2 SWAP1 POP SWAP3 SWAP2 POP POP JUMP JUMPDEST PUSH1 0x0 PUSH2 0x1FFF DUP3 PUSH2 0x2119 JUMP JUMPDEST SWAP2 POP PUSH2 0x200A DUP4 PUSH2 0x2119 JUMP JUMPDEST SWAP3 POP DUP3 PUSH32 0xFFFFFFFFFFFFFFFFFFFFFFFFFFFFFFFFFFFFFFFFFFFFFFFFFFFFFFFFFFFFFFFF SUB DUP3 GT ISZERO PUSH2 0x203F JUMPI PUSH2 0x203E PUSH2 0x2242 JUMP JUMPDEST JUMPDEST DUP3 DUP3 ADD SWAP1 POP SWAP3 SWAP2 POP POP JUMP JUMPDEST PUSH1 0x0 PUSH2 0x2055 DUP3 PUSH2 0x2119 JUMP JUMPDEST SWAP2 POP PUSH2 0x2060 DUP4 PUSH2 0x2119 JUMP JUMPDEST SWAP3 POP DUP3 PUSH2 0x2070 JUMPI PUSH2 0x206F PUSH2 0x2271 JUMP JUMPDEST JUMPDEST DUP3 DUP3 DIV SWAP1 POP SWAP3 SWAP2 POP POP JUMP JUMPDEST PUSH1 0x0 PUSH2 0x2086 DUP3 PUSH2 0x2119 JUMP JUMPDEST SWAP2 POP PUSH2 0x2091 DUP4 PUSH2 0x2119 JUMP JUMPDEST SWAP3 POP DUP3 DUP3 LT ISZERO PUSH2 0x20A4 JUMPI PUSH2 0x20A3 PUSH2 0x2242 JUMP JUMPDEST JUMPDEST DUP3 DUP3 SUB SWAP1 POP SWAP3 SWAP2 POP POP JUMP JUMPDEST PUSH1 0x0 PUSH2 0x20BA DUP3 PUSH2 0x20F9 JUMP JUMPDEST SWAP1 POP SWAP2 SWAP1 POP JUMP JUMPDEST PUSH1 0x0 DUP2 ISZERO ISZERO SWAP1 POP SWAP2 SWAP1 POP JUMP JUMPDEST PUSH1 0x0 PUSH32 0xFFFFFFFF00000000000000000000000000000000000000000000000000000000 DUP3 AND SWAP1 POP SWAP2 SWAP1 POP JUMP JUMPDEST PUSH1 0x0 PUSH20 0xFFFFFFFFFFFFFFFFFFFFFFFFFFFFFFFFFFFFFFFF DUP3 AND SWAP1 POP SWAP2 SWAP1 POP JUMP JUMPDEST PUSH1 0x0 DUP2 SWAP1 POP SWAP2 SWAP1 POP JUMP JUMPDEST DUP3 DUP2 DUP4 CALLDATACOPY PUSH1 0x0 DUP4 DUP4 ADD MSTORE POP POP POP JUMP JUMPDEST PUSH1 0x0 JUMPDEST DUP4 DUP2 LT ISZERO PUSH2 0x2150 JUMPI DUP1 DUP3 ADD MLOAD DUP2 DUP5 ADD MSTORE PUSH1 0x20 DUP2 ADD SWAP1 POP PUSH2 0x2135 JUMP JUMPDEST DUP4 DUP2 GT ISZERO PUSH2 0x215F JUMPI PUSH1 0x0 DUP5 DUP5 ADD MSTORE JUMPDEST POP POP POP POP JUMP JUMPDEST PUSH1 0x0 PUSH1 0x2 DUP3 DIV SWAP1 POP PUSH1 0x1 DUP3 AND DUP1 PUSH2 0x217D JUMPI PUSH1 0x7F DUP3 AND SWAP2 POP JUMPDEST PUSH1 0x20 DUP3 LT DUP2 EQ ISZERO PUSH2 0x2191 JUMPI PUSH2 0x2190 PUSH2 0x22A0 JUMP JUMPDEST JUMPDEST POP SWAP2 SWAP1 POP JUMP JUMPDEST PUSH2 0x21A0 DUP3 PUSH2 0x2341 JUMP JUMPDEST DUP2 ADD DUP2 DUP2 LT PUSH8 0xFFFFFFFFFFFFFFFF DUP3 GT OR ISZERO PUSH2 0x21BF JUMPI PUSH2 0x21BE PUSH2 0x22FE JUMP JUMPDEST JUMPDEST DUP1 PUSH1 0x40 MSTORE POP POP POP JUMP JUMPDEST PUSH1 0x0 PUSH2 0x21D3 DUP3 PUSH2 0x2119 JUMP JUMPDEST SWAP2 POP PUSH32 0xFFFFFFFFFFFFFFFFFFFFFFFFFFFFFFFFFFFFFFFFFFFFFFFFFFFFFFFFFFFFFFFF DUP3 EQ ISZERO PUSH2 0x2206 JUMPI PUSH2 0x2205 PUSH2 0x2242 JUMP JUMPDEST JUMPDEST PUSH1 0x1 DUP3 ADD SWAP1 POP SWAP2 SWAP1 POP JUMP JUMPDEST PUSH1 0x0 PUSH2 0x221C DUP3 PUSH2 0x2119 JUMP JUMPDEST SWAP2 POP PUSH2 0x2227 DUP4 PUSH2 0x2119 JUMP JUMPDEST SWAP3 POP DUP3 PUSH2 0x2237 JUMPI PUSH2 0x2236 PUSH2 0x2271 JUMP JUMPDEST JUMPDEST DUP3 DUP3 MOD SWAP1 POP SWAP3 SWAP2 POP POP JUMP JUMPDEST PUSH32 0x4E487B7100000000000000000000000000000000000000000000000000000000 PUSH1 0x0 MSTORE PUSH1 0x11 PUSH1 0x4 MSTORE PUSH1 0x24 PUSH1 0x0 REVERT JUMPDEST PUSH32 0x4E487B7100000000000000000000000000000000000000000000000000000000 PUSH1 0x0 MSTORE PUSH1 0x12 PUSH1 0x4 MSTORE PUSH1 0x24 PUSH1 0x0 REVERT JUMPDEST PUSH32 0x4E487B7100000000000000000000000000000000000000000000000000000000 PUSH1 0x0 MSTORE PUSH1 0x22 PUSH1 0x4 MSTORE PUSH1 0x24 PUSH1 0x0 REVERT JUMPDEST PUSH32 0x4E487B7100000000000000000000000000000000000000000000000000000000 PUSH1 0x0 MSTORE PUSH1 0x32 PUSH1 0x4 MSTORE PUSH1 0x24 PUSH1 0x0 REVERT JUMPDEST PUSH32 0x4E487B7100000000000000000000000000000000000000000000000000000000 PUSH1 0x0 MSTORE PUSH1 0x41 PUSH1 0x4 MSTORE PUSH1 0x24 PUSH1 0x0 REVERT JUMPDEST PUSH1 0x0 DUP1 REVERT JUMPDEST PUSH1 0x0 DUP1 REVERT JUMPDEST PUSH1 0x0 DUP1 REVERT JUMPDEST PUSH1 0x0 DUP1 REVERT JUMPDEST PUSH1 0x0 PUSH1 0x1F NOT PUSH1 0x1F DUP4 ADD AND SWAP1 POP SWAP2 SWAP1 POP JUMP JUMPDEST PUSH32 0x4552433732313A207472616E7366657220746F206E6F6E204552433732315265 PUSH1 0x0 DUP3 ADD MSTORE PUSH32 0x63656976657220696D706C656D656E7465720000000000000000000000000000 PUSH1 0x20 DUP3 ADD MSTORE POP JUMP JUMPDEST PUSH32 0x4552433732313A207472616E736665722066726F6D20696E636F727265637420 PUSH1 0x0 DUP3 ADD MSTORE PUSH32 0x6F776E6572000000000000000000000000000000000000000000000000000000 PUSH1 0x20 DUP3 ADD MSTORE POP JUMP JUMPDEST PUSH32 0x4552433732313A20746F6B656E20616C7265616479206D696E74656400000000 PUSH1 0x0 DUP3 ADD MSTORE POP JUMP JUMPDEST PUSH32 0x4552433732313A207472616E7366657220746F20746865207A65726F20616464 PUSH1 0x0 DUP3 ADD MSTORE PUSH32 0x7265737300000000000000000000000000000000000000000000000000000000 PUSH1 0x20 DUP3 ADD MSTORE POP JUMP JUMPDEST PUSH32 0x4552433732313A20617070726F766520746F2063616C6C657200000000000000 PUSH1 0x0 DUP3 ADD MSTORE POP JUMP JUMPDEST PUSH32 0x4552433732313A206F70657261746F7220717565727920666F72206E6F6E6578 PUSH1 0x0 DUP3 ADD MSTORE PUSH32 0x697374656E7420746F6B656E0000000000000000000000000000000000000000 PUSH1 0x20 DUP3 ADD MSTORE POP JUMP JUMPDEST PUSH32 0x4552433732313A20617070726F76652063616C6C6572206973206E6F74206F77 PUSH1 0x0 DUP3 ADD MSTORE PUSH32 0x6E6572206E6F7220617070726F76656420666F7220616C6C0000000000000000 PUSH1 0x20 DUP3 ADD MSTORE POP JUMP JUMPDEST PUSH32 0x4552433732313A2062616C616E636520717565727920666F7220746865207A65 PUSH1 0x0 DUP3 ADD MSTORE PUSH32 0x726F206164647265737300000000000000000000000000000000000000000000 PUSH1 0x20 DUP3 ADD MSTORE POP JUMP JUMPDEST PUSH32 0x4552433732313A206F776E657220717565727920666F72206E6F6E6578697374 PUSH1 0x0 DUP3 ADD MSTORE PUSH32 0x656E7420746F6B656E0000000000000000000000000000000000000000000000 PUSH1 0x20 DUP3 ADD MSTORE POP JUMP JUMPDEST PUSH32 0x4552433732313A206D696E7420746F20746865207A65726F2061646472657373 PUSH1 0x0 DUP3 ADD MSTORE POP JUMP JUMPDEST PUSH32 0x4552433732313A20617070726F76656420717565727920666F72206E6F6E6578 PUSH1 0x0 DUP3 ADD MSTORE PUSH32 0x697374656E7420746F6B656E0000000000000000000000000000000000000000 PUSH1 0x20 DUP3 ADD MSTORE POP JUMP JUMPDEST PUSH32 0x4552433732314D657461646174613A2055524920717565727920666F72206E6F PUSH1 0x0 DUP3 ADD MSTORE PUSH32 0x6E6578697374656E7420746F6B656E0000000000000000000000000000000000 PUSH1 0x20 DUP3 ADD MSTORE POP JUMP JUMPDEST PUSH32 0x4552433732313A20617070726F76616C20746F2063757272656E74206F776E65 PUSH1 0x0 DUP3 ADD MSTORE PUSH32 0x7200000000000000000000000000000000000000000000000000000000000000 PUSH1 0x20 DUP3 ADD MSTORE POP JUMP JUMPDEST PUSH32 0x4552433732313A207472616E736665722063616C6C6572206973206E6F74206F PUSH1 0x0 DUP3 ADD MSTORE PUSH32 0x776E6572206E6F7220617070726F766564000000000000000000000000000000 PUSH1 0x20 DUP3 ADD MSTORE POP JUMP JUMPDEST PUSH2 0x273B DUP2 PUSH2 0x20AF JUMP JUMPDEST DUP2 EQ PUSH2 0x2746 JUMPI PUSH1 0x0 DUP1 REVERT JUMPDEST POP JUMP JUMPDEST PUSH2 0x2752 DUP2 PUSH2 0x20C1 JUMP JUMPDEST DUP2 EQ PUSH2 0x275D JUMPI PUSH1 0x0 DUP1 REVERT JUMPDEST POP JUMP JUMPDEST PUSH2 0x2769 DUP2 PUSH2 0x20CD JUMP JUMPDEST DUP2 EQ PUSH2 0x2774 JUMPI PUSH1 0x0 DUP1 REVERT JUMPDEST POP JUMP JUMPDEST PUSH2 0x2780 DUP2 PUSH2 0x2119 JUMP JUMPDEST DUP2 EQ PUSH2 0x278B JUMPI PUSH1 0x0 DUP1 REVERT JUMPDEST POP JUMP INVALID LOG2 PUSH5 0x6970667358 0x22 SLT KECCAK256 JUMP SSTORE 0xDE SWAP9 SWAP8 0x2B DUP16 ISZERO 0xE5 0x22 SWAP12 DUP13 0xAE INVALID DUP15 JUMPDEST 0x4E 0x22 PUSH8 0x593025AAAEE1129E SWAP5 0x4E PUSH11 0x987C64736F6C6343000807 STOP CALLER "
				},
				"gasEstimates": {
					"creation": {
						"codeDepositCost": "2036000",
						"executionCost": "infinite",
						"totalCost": "infinite"
					},
					"external": {
						"_safeMint(address,uint256,bytes)": "infinite",
						"approve(address,uint256)": "infinite",
						"balanceOf(address)": "2924",
						"getApproved(uint256)": "5228",
						"isApprovedForAll(address,address)": "infinite",
						"name()": "infinite",
						"ownerOf(uint256)": "3066",
						"safeTransferFrom(address,address,uint256)": "infinite",
						"safeTransferFrom(address,address,uint256,bytes)": "infinite",
						"setApprovalForAll(address,bool)": "infinite",
						"supportsInterface(bytes4)": "3005",
						"symbol()": "infinite",
						"tokenURI(uint256)": "infinite",
						"transferFrom(address,address,uint256)": "infinite"
					},
					"internal": {
						"_afterTokenTransfer(address,address,uint256)": "15",
						"_approve(address,uint256)": "infinite",
						"_baseURI()": "infinite",
						"_beforeTokenTransfer(address,address,uint256)": "15",
						"_burn(uint256)": "infinite",
						"_checkOnERC721Received(address,address,uint256,bytes memory)": "infinite",
						"_exists(uint256)": "2269",
						"_isApprovedOrOwner(address,uint256)": "infinite",
						"_mint(address,uint256)": "infinite",
						"_safeMint(address,uint256)": "infinite",
						"_safeTransfer(address,address,uint256,bytes memory)": "infinite",
						"_setApprovalForAll(address,address,bool)": "infinite",
						"_transfer(address,address,uint256)": "infinite"
					}
				},
				"methodIdentifiers": {
					"_safeMint(address,uint256,bytes)": "6a4f832b",
					"approve(address,uint256)": "095ea7b3",
					"balanceOf(address)": "70a08231",
					"getApproved(uint256)": "081812fc",
					"isApprovedForAll(address,address)": "e985e9c5",
					"name()": "06fdde03",
					"ownerOf(uint256)": "6352211e",
					"safeTransferFrom(address,address,uint256)": "42842e0e",
					"safeTransferFrom(address,address,uint256,bytes)": "b88d4fde",
					"setApprovalForAll(address,bool)": "a22cb465",
					"supportsInterface(bytes4)": "01ffc9a7",
					"symbol()": "95d89b41",
					"tokenURI(uint256)": "c87b56dd",
					"transferFrom(address,address,uint256)": "23b872dd"
				}
			},
			"userdoc": {
				"kind": "user",
				"methods": {},
				"version": 1
			}
		}
	}
}