{
	"contracts/ERC721.sol": {
		"ERC721": {
			"abi": [
				{
					"inputs": [
						{
							"internalType": "string",
							"name": "name_",
							"type": "string"
						},
						{
							"internalType": "string",
							"name": "symbol_",
							"type": "string"
						}
					],
					"stateMutability": "nonpayable",
					"type": "constructor"
				},
				{
					"anonymous": false,
					"inputs": [
						{
							"indexed": true,
							"internalType": "address",
							"name": "owner",
							"type": "address"
						},
						{
							"indexed": true,
							"internalType": "address",
							"name": "approved",
							"type": "address"
						},
						{
							"indexed": true,
							"internalType": "uint256",
							"name": "tokenId",
							"type": "uint256"
						}
					],
					"name": "Approval",
					"type": "event"
				},
				{
					"anonymous": false,
					"inputs": [
						{
							"indexed": true,
							"internalType": "address",
							"name": "owner",
							"type": "address"
						},
						{
							"indexed": true,
							"internalType": "address",
							"name": "operator",
							"type": "address"
						},
						{
							"indexed": false,
							"internalType": "bool",
							"name": "approved",
							"type": "bool"
						}
					],
					"name": "ApprovalForAll",
					"type": "event"
				},
				{
					"anonymous": false,
					"inputs": [
						{
							"indexed": true,
							"internalType": "address",
							"name": "from",
							"type": "address"
						},
						{
							"indexed": true,
							"internalType": "address",
							"name": "to",
							"type": "address"
						},
						{
							"indexed": true,
							"internalType": "uint256",
							"name": "tokenId",
							"type": "uint256"
						}
					],
					"name": "Transfer",
					"type": "event"
				},
				{
					"inputs": [
						{
							"internalType": "uint256",
							"name": "tokenId",
							"type": "uint256"
						}
					],
					"name": "_burn",
					"outputs": [],
					"stateMutability": "nonpayable",
					"type": "function"
				},
				{
					"inputs": [
						{
							"internalType": "address",
							"name": "to",
							"type": "address"
						},
						{
							"internalType": "uint256",
							"name": "tokenId",
							"type": "uint256"
						}
					],
					"name": "_safeMint",
					"outputs": [],
					"stateMutability": "nonpayable",
					"type": "function"
				},
				{
					"inputs": [
						{
							"internalType": "address",
							"name": "to",
							"type": "address"
						},
						{
							"internalType": "uint256",
							"name": "tokenId",
							"type": "uint256"
						}
					],
					"name": "approve",
					"outputs": [],
					"stateMutability": "nonpayable",
					"type": "function"
				},
				{
					"inputs": [
						{
							"internalType": "address",
							"name": "owner",
							"type": "address"
						}
					],
					"name": "balanceOf",
					"outputs": [
						{
							"internalType": "uint256",
							"name": "",
							"type": "uint256"
						}
					],
					"stateMutability": "view",
					"type": "function"
				},
				{
					"inputs": [
						{
							"internalType": "uint256",
							"name": "tokenId",
							"type": "uint256"
						}
					],
					"name": "getApproved",
					"outputs": [
						{
							"internalType": "address",
							"name": "",
							"type": "address"
						}
					],
					"stateMutability": "view",
					"type": "function"
				},
				{
					"inputs": [
						{
							"internalType": "address",
							"name": "owner",
							"type": "address"
						},
						{
							"internalType": "address",
							"name": "operator",
							"type": "address"
						}
					],
					"name": "isApprovedForAll",
					"outputs": [
						{
							"internalType": "bool",
							"name": "",
							"type": "bool"
						}
					],
					"stateMutability": "view",
					"type": "function"
				},
				{
					"inputs": [],
					"name": "name",
					"outputs": [
						{
							"internalType": "string",
							"name": "",
							"type": "string"
						}
					],
					"stateMutability": "view",
					"type": "function"
				},
				{
					"inputs": [
						{
							"internalType": "uint256",
							"name": "tokenId",
							"type": "uint256"
						}
					],
					"name": "ownerOf",
					"outputs": [
						{
							"internalType": "address",
							"name": "",
							"type": "address"
						}
					],
					"stateMutability": "view",
					"type": "function"
				},
				{
					"inputs": [
						{
							"internalType": "address",
							"name": "from",
							"type": "address"
						},
						{
							"internalType": "address",
							"name": "to",
							"type": "address"
						},
						{
							"internalType": "uint256",
							"name": "tokenId",
							"type": "uint256"
						}
					],
					"name": "safeTransferFrom",
					"outputs": [],
					"stateMutability": "nonpayable",
					"type": "function"
				},
				{
					"inputs": [
						{
							"internalType": "address",
							"name": "from",
							"type": "address"
						},
						{
							"internalType": "address",
							"name": "to",
							"type": "address"
						},
						{
							"internalType": "uint256",
							"name": "tokenId",
							"type": "uint256"
						},
						{
							"internalType": "bytes",
							"name": "_data",
							"type": "bytes"
						}
					],
					"name": "safeTransferFrom",
					"outputs": [],
					"stateMutability": "nonpayable",
					"type": "function"
				},
				{
					"inputs": [
						{
							"internalType": "address",
							"name": "operator",
							"type": "address"
						},
						{
							"internalType": "bool",
							"name": "approved",
							"type": "bool"
						}
					],
					"name": "setApprovalForAll",
					"outputs": [],
					"stateMutability": "nonpayable",
					"type": "function"
				},
				{
					"inputs": [
						{
							"internalType": "bytes4",
							"name": "interfaceId",
							"type": "bytes4"
						}
					],
					"name": "supportsInterface",
					"outputs": [
						{
							"internalType": "bool",
							"name": "",
							"type": "bool"
						}
					],
					"stateMutability": "view",
					"type": "function"
				},
				{
					"inputs": [],
					"name": "symbol",
					"outputs": [
						{
							"internalType": "string",
							"name": "",
							"type": "string"
						}
					],
					"stateMutability": "view",
					"type": "function"
				},
				{
					"inputs": [
						{
							"internalType": "uint256",
							"name": "tokenId",
							"type": "uint256"
						}
					],
					"name": "tokenURI",
					"outputs": [
						{
							"internalType": "string",
							"name": "",
							"type": "string"
						}
					],
					"stateMutability": "view",
					"type": "function"
				},
				{
					"inputs": [
						{
							"internalType": "address",
							"name": "from",
							"type": "address"
						},
						{
							"internalType": "address",
							"name": "to",
							"type": "address"
						},
						{
							"internalType": "uint256",
							"name": "tokenId",
							"type": "uint256"
						}
					],
					"name": "transferFrom",
					"outputs": [],
					"stateMutability": "nonpayable",
					"type": "function"
				}
			],
			"devdoc": {
				"details": "Implementation of https://eips.ethereum.org/EIPS/eip-721[ERC721] Non-Fungible Token Standard, including the Metadata extension, but not including the Enumerable extension, which is available separately as {ERC721Enumerable}.",
				"kind": "dev",
				"methods": {
					"_burn(uint256)": {
						"details": "Destroys `tokenId`. The approval is cleared when the token is burned. Requirements: - `tokenId` must exist. Emits a {Transfer} event."
					},
					"_safeMint(address,uint256)": {
						"details": "Safely mints `tokenId` and transfers it to `to`. Requirements: - `tokenId` must not exist. - If `to` refers to a smart contract, it must implement {IERC721Receiver-onERC721Received}, which is called upon a safe transfer. Emits a {Transfer} event."
					},
					"approve(address,uint256)": {
						"details": "See {IERC721-approve}."
					},
					"balanceOf(address)": {
						"details": "See {IERC721-balanceOf}."
					},
					"constructor": {
						"details": "Initializes the contract by setting a `name` and a `symbol` to the token collection."
					},
					"getApproved(uint256)": {
						"details": "See {IERC721-getApproved}."
					},
					"isApprovedForAll(address,address)": {
						"details": "See {IERC721-isApprovedForAll}."
					},
					"name()": {
						"details": "See {IERC721Metadata-name}."
					},
					"ownerOf(uint256)": {
						"details": "See {IERC721-ownerOf}."
					},
					"safeTransferFrom(address,address,uint256)": {
						"details": "See {IERC721-safeTransferFrom}."
					},
					"safeTransferFrom(address,address,uint256,bytes)": {
						"details": "See {IERC721-safeTransferFrom}."
					},
					"setApprovalForAll(address,bool)": {
						"details": "See {IERC721-setApprovalForAll}."
					},
					"supportsInterface(bytes4)": {
						"details": "See {IERC165-supportsInterface}."
					},
					"symbol()": {
						"details": "See {IERC721Metadata-symbol}."
					},
					"tokenURI(uint256)": {
						"details": "See {IERC721Metadata-tokenURI}."
					},
					"transferFrom(address,address,uint256)": {
						"details": "See {IERC721-transferFrom}."
					}
				},
				"version": 1
			},
			"evm": {
				"assembly": "    /* \"contracts/ERC721.sol\":581:14665  contract ERC721 is Context, ERC165, IERC721, IERC721Metadata {\r... */\n  mstore(0x40, 0x80)\n    /* \"contracts/ERC721.sol\":1368:1484  constructor(string memory name_, string memory symbol_) {\r... */\n  callvalue\n  dup1\n  iszero\n  tag_1\n  jumpi\n  0x00\n  dup1\n  revert\ntag_1:\n  pop\n  mload(0x40)\n  sub(codesize, bytecodeSize)\n  dup1\n  bytecodeSize\n  dup4\n  codecopy\n  dup2\n  dup2\n  add\n  0x40\n  mstore\n  dup2\n  add\n  swap1\n  tag_2\n  swap2\n  swap1\n  tag_3\n  jump\t// in\ntag_2:\n    /* \"contracts/ERC165.sol\":625:670  _registerInterface(type(IERC165).interfaceId) */\n  tag_7\n    /* \"contracts/ERC165.sol\":644:669  type(IERC165).interfaceId */\n  0x01ffc9a700000000000000000000000000000000000000000000000000000000\n    /* \"contracts/ERC165.sol\":625:643  _registerInterface */\n  shl(0x20, tag_8)\n    /* \"contracts/ERC165.sol\":625:670  _registerInterface(type(IERC165).interfaceId) */\n  0x20\n  shr\n  jump\t// in\ntag_7:\n    /* \"contracts/ERC721.sol\":1443:1448  name_ */\n  dup2\n    /* \"contracts/ERC721.sol\":1435:1440  _name */\n  0x01\n    /* \"contracts/ERC721.sol\":1435:1448  _name = name_ */\n  swap1\n  dup1\n  mload\n  swap1\n  0x20\n  add\n  swap1\n  tag_10\n  swap3\n  swap2\n  swap1\n  tag_11\n  jump\t// in\ntag_10:\n  pop\n    /* \"contracts/ERC721.sol\":1469:1476  symbol_ */\n  dup1\n    /* \"contracts/ERC721.sol\":1459:1466  _symbol */\n  0x02\n    /* \"contracts/ERC721.sol\":1459:1476  _symbol = symbol_ */\n  swap1\n  dup1\n  mload\n  swap1\n  0x20\n  add\n  swap1\n  tag_12\n  swap3\n  swap2\n  swap1\n  tag_11\n  jump\t// in\ntag_12:\n  pop\n    /* \"contracts/ERC721.sol\":1368:1484  constructor(string memory name_, string memory symbol_) {\r... */\n  pop\n  pop\n    /* \"contracts/ERC721.sol\":581:14665  contract ERC721 is Context, ERC165, IERC721, IERC721Metadata {\r... */\n  jump(tag_13)\n    /* \"contracts/ERC165.sol\":1392:1593  function _registerInterface(bytes4 interfaceId) internal virtual {\r... */\ntag_8:\n    /* \"contracts/ERC165.sol\":1491:1501  0xffffffff */\n  0xffffffff\n    /* \"contracts/ERC165.sol\":1476:1501  interfaceId != 0xffffffff */\n  0xe0\n  shl\n    /* \"contracts/ERC165.sol\":1476:1487  interfaceId */\n  dup2\n    /* \"contracts/ERC165.sol\":1476:1501  interfaceId != 0xffffffff */\n  not(0xffffffffffffffffffffffffffffffffffffffffffffffffffffffff)\n  and\n  eq\n  iszero\n    /* \"contracts/ERC165.sol\":1468:1534  require(interfaceId != 0xffffffff, \"ERC165: invalid interface id\") */\n  tag_15\n  jumpi\n  mload(0x40)\n  0x08c379a000000000000000000000000000000000000000000000000000000000\n  dup2\n  mstore\n  0x04\n  add\n  tag_16\n  swap1\n  tag_17\n  jump\t// in\ntag_16:\n  mload(0x40)\n  dup1\n  swap2\n  sub\n  swap1\n  revert\ntag_15:\n    /* \"contracts/ERC165.sol\":1581:1585  true */\n  0x01\n    /* \"contracts/ERC165.sol\":1545:1565  _supportedInterfaces */\n  0x00\n    /* \"contracts/ERC165.sol\":1545:1578  _supportedInterfaces[interfaceId] */\n  dup1\n    /* \"contracts/ERC165.sol\":1566:1577  interfaceId */\n  dup4\n    /* \"contracts/ERC165.sol\":1545:1578  _supportedInterfaces[interfaceId] */\n  not(0xffffffffffffffffffffffffffffffffffffffffffffffffffffffff)\n  and\n  not(0xffffffffffffffffffffffffffffffffffffffffffffffffffffffff)\n  and\n  dup2\n  mstore\n  0x20\n  add\n  swap1\n  dup2\n  mstore\n  0x20\n  add\n  0x00\n  keccak256\n  0x00\n    /* \"contracts/ERC165.sol\":1545:1585  _supportedInterfaces[interfaceId] = true */\n  0x0100\n  exp\n  dup2\n  sload\n  dup2\n  0xff\n  mul\n  not\n  and\n  swap1\n  dup4\n  iszero\n  iszero\n  mul\n  or\n  swap1\n  sstore\n  pop\n    /* \"contracts/ERC165.sol\":1392:1593  function _registerInterface(bytes4 interfaceId) internal virtual {\r... */\n  pop\n  jump\t// out\n    /* \"contracts/ERC721.sol\":581:14665  contract ERC721 is Context, ERC165, IERC721, IERC721Metadata {\r... */\ntag_11:\n  dup3\n  dup1\n  sload\n  tag_18\n  swap1\n  tag_19\n  jump\t// in\ntag_18:\n  swap1\n  0x00\n  mstore\n  keccak256(0x00, 0x20)\n  swap1\n  0x1f\n  add\n  0x20\n  swap1\n  div\n  dup2\n  add\n  swap3\n  dup3\n  tag_21\n  jumpi\n  0x00\n  dup6\n  sstore\n  jump(tag_20)\ntag_21:\n  dup3\n  0x1f\n  lt\n  tag_22\n  jumpi\n  dup1\n  mload\n  not(0xff)\n  and\n  dup4\n  dup1\n  add\n  or\n  dup6\n  sstore\n  jump(tag_20)\ntag_22:\n  dup3\n  dup1\n  add\n  0x01\n  add\n  dup6\n  sstore\n  dup3\n  iszero\n  tag_20\n  jumpi\n  swap2\n  dup3\n  add\ntag_23:\n  dup3\n  dup2\n  gt\n  iszero\n  tag_24\n  jumpi\n  dup3\n  mload\n  dup3\n  sstore\n  swap2\n  0x20\n  add\n  swap2\n  swap1\n  0x01\n  add\n  swap1\n  jump(tag_23)\ntag_24:\ntag_20:\n  pop\n  swap1\n  pop\n  tag_25\n  swap2\n  swap1\n  tag_26\n  jump\t// in\ntag_25:\n  pop\n  swap1\n  jump\t// out\ntag_26:\ntag_27:\n  dup1\n  dup3\n  gt\n  iszero\n  tag_28\n  jumpi\n  0x00\n  dup2\n  0x00\n  swap1\n  sstore\n  pop\n  0x01\n  add\n  jump(tag_27)\ntag_28:\n  pop\n  swap1\n  jump\t// out\n    /* \"#utility.yul\":7:428   */\ntag_30:\n    /* \"#utility.yul\":96:101   */\n  0x00\n    /* \"#utility.yul\":121:187   */\n  tag_32\n    /* \"#utility.yul\":137:186   */\n  tag_33\n    /* \"#utility.yul\":179:185   */\n  dup5\n    /* \"#utility.yul\":137:186   */\n  tag_34\n  jump\t// in\ntag_33:\n    /* \"#utility.yul\":121:187   */\n  tag_35\n  jump\t// in\ntag_32:\n    /* \"#utility.yul\":112:187   */\n  swap1\n  pop\n    /* \"#utility.yul\":210:216   */\n  dup3\n    /* \"#utility.yul\":203:208   */\n  dup2\n    /* \"#utility.yul\":196:217   */\n  mstore\n    /* \"#utility.yul\":248:252   */\n  0x20\n    /* \"#utility.yul\":241:246   */\n  dup2\n    /* \"#utility.yul\":237:253   */\n  add\n    /* \"#utility.yul\":286:289   */\n  dup5\n    /* \"#utility.yul\":277:283   */\n  dup5\n    /* \"#utility.yul\":272:275   */\n  dup5\n    /* \"#utility.yul\":268:284   */\n  add\n    /* \"#utility.yul\":265:290   */\n  gt\n    /* \"#utility.yul\":262:374   */\n  iszero\n  tag_36\n  jumpi\n    /* \"#utility.yul\":293:372   */\n  tag_37\n  tag_38\n  jump\t// in\ntag_37:\n    /* \"#utility.yul\":262:374   */\ntag_36:\n    /* \"#utility.yul\":383:422   */\n  tag_39\n    /* \"#utility.yul\":415:421   */\n  dup5\n    /* \"#utility.yul\":410:413   */\n  dup3\n    /* \"#utility.yul\":405:408   */\n  dup6\n    /* \"#utility.yul\":383:422   */\n  tag_40\n  jump\t// in\ntag_39:\n    /* \"#utility.yul\":102:428   */\n  pop\n    /* \"#utility.yul\":7:428   */\n  swap4\n  swap3\n  pop\n  pop\n  pop\n  jump\t// out\n    /* \"#utility.yul\":448:803   */\ntag_41:\n    /* \"#utility.yul\":515:520   */\n  0x00\n    /* \"#utility.yul\":564:567   */\n  dup3\n    /* \"#utility.yul\":557:561   */\n  0x1f\n    /* \"#utility.yul\":549:555   */\n  dup4\n    /* \"#utility.yul\":545:562   */\n  add\n    /* \"#utility.yul\":541:568   */\n  slt\n    /* \"#utility.yul\":531:653   */\n  tag_43\n  jumpi\n    /* \"#utility.yul\":572:651   */\n  tag_44\n  tag_45\n  jump\t// in\ntag_44:\n    /* \"#utility.yul\":531:653   */\ntag_43:\n    /* \"#utility.yul\":682:688   */\n  dup2\n    /* \"#utility.yul\":676:689   */\n  mload\n    /* \"#utility.yul\":707:797   */\n  tag_46\n    /* \"#utility.yul\":793:796   */\n  dup5\n    /* \"#utility.yul\":785:791   */\n  dup3\n    /* \"#utility.yul\":778:782   */\n  0x20\n    /* \"#utility.yul\":770:776   */\n  dup7\n    /* \"#utility.yul\":766:783   */\n  add\n    /* \"#utility.yul\":707:797   */\n  tag_30\n  jump\t// in\ntag_46:\n    /* \"#utility.yul\":698:797   */\n  swap2\n  pop\n    /* \"#utility.yul\":521:803   */\n  pop\n    /* \"#utility.yul\":448:803   */\n  swap3\n  swap2\n  pop\n  pop\n  jump\t// out\n    /* \"#utility.yul\":809:1662   */\ntag_3:\n    /* \"#utility.yul\":908:914   */\n  0x00\n    /* \"#utility.yul\":916:922   */\n  dup1\n    /* \"#utility.yul\":965:967   */\n  0x40\n    /* \"#utility.yul\":953:962   */\n  dup4\n    /* \"#utility.yul\":944:951   */\n  dup6\n    /* \"#utility.yul\":940:963   */\n  sub\n    /* \"#utility.yul\":936:968   */\n  slt\n    /* \"#utility.yul\":933:1052   */\n  iszero\n  tag_48\n  jumpi\n    /* \"#utility.yul\":971:1050   */\n  tag_49\n  tag_50\n  jump\t// in\ntag_49:\n    /* \"#utility.yul\":933:1052   */\ntag_48:\n    /* \"#utility.yul\":1112:1113   */\n  0x00\n    /* \"#utility.yul\":1101:1110   */\n  dup4\n    /* \"#utility.yul\":1097:1114   */\n  add\n    /* \"#utility.yul\":1091:1115   */\n  mload\n    /* \"#utility.yul\":1142:1160   */\n  0xffffffffffffffff\n    /* \"#utility.yul\":1134:1140   */\n  dup2\n    /* \"#utility.yul\":1131:1161   */\n  gt\n    /* \"#utility.yul\":1128:1245   */\n  iszero\n  tag_51\n  jumpi\n    /* \"#utility.yul\":1164:1243   */\n  tag_52\n  tag_53\n  jump\t// in\ntag_52:\n    /* \"#utility.yul\":1128:1245   */\ntag_51:\n    /* \"#utility.yul\":1269:1343   */\n  tag_54\n    /* \"#utility.yul\":1335:1342   */\n  dup6\n    /* \"#utility.yul\":1326:1332   */\n  dup3\n    /* \"#utility.yul\":1315:1324   */\n  dup7\n    /* \"#utility.yul\":1311:1333   */\n  add\n    /* \"#utility.yul\":1269:1343   */\n  tag_41\n  jump\t// in\ntag_54:\n    /* \"#utility.yul\":1259:1343   */\n  swap3\n  pop\n    /* \"#utility.yul\":1062:1353   */\n  pop\n    /* \"#utility.yul\":1413:1415   */\n  0x20\n    /* \"#utility.yul\":1402:1411   */\n  dup4\n    /* \"#utility.yul\":1398:1416   */\n  add\n    /* \"#utility.yul\":1392:1417   */\n  mload\n    /* \"#utility.yul\":1444:1462   */\n  0xffffffffffffffff\n    /* \"#utility.yul\":1436:1442   */\n  dup2\n    /* \"#utility.yul\":1433:1463   */\n  gt\n    /* \"#utility.yul\":1430:1547   */\n  iszero\n  tag_55\n  jumpi\n    /* \"#utility.yul\":1466:1545   */\n  tag_56\n  tag_53\n  jump\t// in\ntag_56:\n    /* \"#utility.yul\":1430:1547   */\ntag_55:\n    /* \"#utility.yul\":1571:1645   */\n  tag_57\n    /* \"#utility.yul\":1637:1644   */\n  dup6\n    /* \"#utility.yul\":1628:1634   */\n  dup3\n    /* \"#utility.yul\":1617:1626   */\n  dup7\n    /* \"#utility.yul\":1613:1635   */\n  add\n    /* \"#utility.yul\":1571:1645   */\n  tag_41\n  jump\t// in\ntag_57:\n    /* \"#utility.yul\":1561:1645   */\n  swap2\n  pop\n    /* \"#utility.yul\":1363:1655   */\n  pop\n    /* \"#utility.yul\":809:1662   */\n  swap3\n  pop\n  swap3\n  swap1\n  pop\n  jump\t// out\n    /* \"#utility.yul\":1668:2034   */\ntag_58:\n    /* \"#utility.yul\":1810:1813   */\n  0x00\n    /* \"#utility.yul\":1831:1898   */\n  tag_60\n    /* \"#utility.yul\":1895:1897   */\n  0x1c\n    /* \"#utility.yul\":1890:1893   */\n  dup4\n    /* \"#utility.yul\":1831:1898   */\n  tag_61\n  jump\t// in\ntag_60:\n    /* \"#utility.yul\":1824:1898   */\n  swap2\n  pop\n    /* \"#utility.yul\":1907:2000   */\n  tag_62\n    /* \"#utility.yul\":1996:1999   */\n  dup3\n    /* \"#utility.yul\":1907:2000   */\n  tag_63\n  jump\t// in\ntag_62:\n    /* \"#utility.yul\":2025:2027   */\n  0x20\n    /* \"#utility.yul\":2020:2023   */\n  dup3\n    /* \"#utility.yul\":2016:2028   */\n  add\n    /* \"#utility.yul\":2009:2028   */\n  swap1\n  pop\n    /* \"#utility.yul\":1668:2034   */\n  swap2\n  swap1\n  pop\n  jump\t// out\n    /* \"#utility.yul\":2040:2459   */\ntag_17:\n    /* \"#utility.yul\":2206:2210   */\n  0x00\n    /* \"#utility.yul\":2244:2246   */\n  0x20\n    /* \"#utility.yul\":2233:2242   */\n  dup3\n    /* \"#utility.yul\":2229:2247   */\n  add\n    /* \"#utility.yul\":2221:2247   */\n  swap1\n  pop\n    /* \"#utility.yul\":2293:2302   */\n  dup2\n    /* \"#utility.yul\":2287:2291   */\n  dup2\n    /* \"#utility.yul\":2283:2303   */\n  sub\n    /* \"#utility.yul\":2279:2280   */\n  0x00\n    /* \"#utility.yul\":2268:2277   */\n  dup4\n    /* \"#utility.yul\":2264:2281   */\n  add\n    /* \"#utility.yul\":2257:2304   */\n  mstore\n    /* \"#utility.yul\":2321:2452   */\n  tag_65\n    /* \"#utility.yul\":2447:2451   */\n  dup2\n    /* \"#utility.yul\":2321:2452   */\n  tag_58\n  jump\t// in\ntag_65:\n    /* \"#utility.yul\":2313:2452   */\n  swap1\n  pop\n    /* \"#utility.yul\":2040:2459   */\n  swap2\n  swap1\n  pop\n  jump\t// out\n    /* \"#utility.yul\":2465:2594   */\ntag_35:\n    /* \"#utility.yul\":2499:2505   */\n  0x00\n    /* \"#utility.yul\":2526:2546   */\n  tag_67\n  tag_68\n  jump\t// in\ntag_67:\n    /* \"#utility.yul\":2516:2546   */\n  swap1\n  pop\n    /* \"#utility.yul\":2555:2588   */\n  tag_69\n    /* \"#utility.yul\":2583:2587   */\n  dup3\n    /* \"#utility.yul\":2575:2581   */\n  dup3\n    /* \"#utility.yul\":2555:2588   */\n  tag_70\n  jump\t// in\ntag_69:\n    /* \"#utility.yul\":2465:2594   */\n  swap2\n  swap1\n  pop\n  jump\t// out\n    /* \"#utility.yul\":2600:2675   */\ntag_68:\n    /* \"#utility.yul\":2633:2639   */\n  0x00\n    /* \"#utility.yul\":2666:2668   */\n  0x40\n    /* \"#utility.yul\":2660:2669   */\n  mload\n    /* \"#utility.yul\":2650:2669   */\n  swap1\n  pop\n    /* \"#utility.yul\":2600:2675   */\n  swap1\n  jump\t// out\n    /* \"#utility.yul\":2681:2989   */\ntag_34:\n    /* \"#utility.yul\":2743:2747   */\n  0x00\n    /* \"#utility.yul\":2833:2851   */\n  0xffffffffffffffff\n    /* \"#utility.yul\":2825:2831   */\n  dup3\n    /* \"#utility.yul\":2822:2852   */\n  gt\n    /* \"#utility.yul\":2819:2875   */\n  iszero\n  tag_73\n  jumpi\n    /* \"#utility.yul\":2855:2873   */\n  tag_74\n  tag_75\n  jump\t// in\ntag_74:\n    /* \"#utility.yul\":2819:2875   */\ntag_73:\n    /* \"#utility.yul\":2893:2922   */\n  tag_76\n    /* \"#utility.yul\":2915:2921   */\n  dup3\n    /* \"#utility.yul\":2893:2922   */\n  tag_77\n  jump\t// in\ntag_76:\n    /* \"#utility.yul\":2885:2922   */\n  swap1\n  pop\n    /* \"#utility.yul\":2977:2981   */\n  0x20\n    /* \"#utility.yul\":2971:2975   */\n  dup2\n    /* \"#utility.yul\":2967:2982   */\n  add\n    /* \"#utility.yul\":2959:2982   */\n  swap1\n  pop\n    /* \"#utility.yul\":2681:2989   */\n  swap2\n  swap1\n  pop\n  jump\t// out\n    /* \"#utility.yul\":2995:3164   */\ntag_61:\n    /* \"#utility.yul\":3079:3090   */\n  0x00\n    /* \"#utility.yul\":3113:3119   */\n  dup3\n    /* \"#utility.yul\":3108:3111   */\n  dup3\n    /* \"#utility.yul\":3101:3120   */\n  mstore\n    /* \"#utility.yul\":3153:3157   */\n  0x20\n    /* \"#utility.yul\":3148:3151   */\n  dup3\n    /* \"#utility.yul\":3144:3158   */\n  add\n    /* \"#utility.yul\":3129:3158   */\n  swap1\n  pop\n    /* \"#utility.yul\":2995:3164   */\n  swap3\n  swap2\n  pop\n  pop\n  jump\t// out\n    /* \"#utility.yul\":3170:3477   */\ntag_40:\n    /* \"#utility.yul\":3238:3239   */\n  0x00\n    /* \"#utility.yul\":3248:3361   */\ntag_80:\n    /* \"#utility.yul\":3262:3268   */\n  dup4\n    /* \"#utility.yul\":3259:3260   */\n  dup2\n    /* \"#utility.yul\":3256:3269   */\n  lt\n    /* \"#utility.yul\":3248:3361   */\n  iszero\n  tag_82\n  jumpi\n    /* \"#utility.yul\":3347:3348   */\n  dup1\n    /* \"#utility.yul\":3342:3345   */\n  dup3\n    /* \"#utility.yul\":3338:3349   */\n  add\n    /* \"#utility.yul\":3332:3350   */\n  mload\n    /* \"#utility.yul\":3328:3329   */\n  dup2\n    /* \"#utility.yul\":3323:3326   */\n  dup5\n    /* \"#utility.yul\":3319:3330   */\n  add\n    /* \"#utility.yul\":3312:3351   */\n  mstore\n    /* \"#utility.yul\":3284:3286   */\n  0x20\n    /* \"#utility.yul\":3281:3282   */\n  dup2\n    /* \"#utility.yul\":3277:3287   */\n  add\n    /* \"#utility.yul\":3272:3287   */\n  swap1\n  pop\n    /* \"#utility.yul\":3248:3361   */\n  jump(tag_80)\ntag_82:\n    /* \"#utility.yul\":3379:3385   */\n  dup4\n    /* \"#utility.yul\":3376:3377   */\n  dup2\n    /* \"#utility.yul\":3373:3386   */\n  gt\n    /* \"#utility.yul\":3370:3471   */\n  iszero\n  tag_83\n  jumpi\n    /* \"#utility.yul\":3459:3460   */\n  0x00\n    /* \"#utility.yul\":3450:3456   */\n  dup5\n    /* \"#utility.yul\":3445:3448   */\n  dup5\n    /* \"#utility.yul\":3441:3457   */\n  add\n    /* \"#utility.yul\":3434:3461   */\n  mstore\n    /* \"#utility.yul\":3370:3471   */\ntag_83:\n    /* \"#utility.yul\":3219:3477   */\n  pop\n    /* \"#utility.yul\":3170:3477   */\n  pop\n  pop\n  pop\n  jump\t// out\n    /* \"#utility.yul\":3483:3803   */\ntag_19:\n    /* \"#utility.yul\":3527:3533   */\n  0x00\n    /* \"#utility.yul\":3564:3565   */\n  0x02\n    /* \"#utility.yul\":3558:3562   */\n  dup3\n    /* \"#utility.yul\":3554:3566   */\n  div\n    /* \"#utility.yul\":3544:3566   */\n  swap1\n  pop\n    /* \"#utility.yul\":3611:3612   */\n  0x01\n    /* \"#utility.yul\":3605:3609   */\n  dup3\n    /* \"#utility.yul\":3601:3613   */\n  and\n    /* \"#utility.yul\":3632:3650   */\n  dup1\n    /* \"#utility.yul\":3622:3703   */\n  tag_85\n  jumpi\n    /* \"#utility.yul\":3688:3692   */\n  0x7f\n    /* \"#utility.yul\":3680:3686   */\n  dup3\n    /* \"#utility.yul\":3676:3693   */\n  and\n    /* \"#utility.yul\":3666:3693   */\n  swap2\n  pop\n    /* \"#utility.yul\":3622:3703   */\ntag_85:\n    /* \"#utility.yul\":3750:3752   */\n  0x20\n    /* \"#utility.yul\":3742:3748   */\n  dup3\n    /* \"#utility.yul\":3739:3753   */\n  lt\n    /* \"#utility.yul\":3719:3737   */\n  dup2\n    /* \"#utility.yul\":3716:3754   */\n  eq\n    /* \"#utility.yul\":3713:3797   */\n  iszero\n  tag_86\n  jumpi\n    /* \"#utility.yul\":3769:3787   */\n  tag_87\n  tag_88\n  jump\t// in\ntag_87:\n    /* \"#utility.yul\":3713:3797   */\ntag_86:\n    /* \"#utility.yul\":3534:3803   */\n  pop\n    /* \"#utility.yul\":3483:3803   */\n  swap2\n  swap1\n  pop\n  jump\t// out\n    /* \"#utility.yul\":3809:4090   */\ntag_70:\n    /* \"#utility.yul\":3892:3919   */\n  tag_90\n    /* \"#utility.yul\":3914:3918   */\n  dup3\n    /* \"#utility.yul\":3892:3919   */\n  tag_77\n  jump\t// in\ntag_90:\n    /* \"#utility.yul\":3884:3890   */\n  dup2\n    /* \"#utility.yul\":3880:3920   */\n  add\n    /* \"#utility.yul\":4022:4028   */\n  dup2\n    /* \"#utility.yul\":4010:4020   */\n  dup2\n    /* \"#utility.yul\":4007:4029   */\n  lt\n    /* \"#utility.yul\":3986:4004   */\n  0xffffffffffffffff\n    /* \"#utility.yul\":3974:3984   */\n  dup3\n    /* \"#utility.yul\":3971:4005   */\n  gt\n    /* \"#utility.yul\":3968:4030   */\n  or\n    /* \"#utility.yul\":3965:4053   */\n  iszero\n  tag_91\n  jumpi\n    /* \"#utility.yul\":4033:4051   */\n  tag_92\n  tag_75\n  jump\t// in\ntag_92:\n    /* \"#utility.yul\":3965:4053   */\ntag_91:\n    /* \"#utility.yul\":4073:4083   */\n  dup1\n    /* \"#utility.yul\":4069:4071   */\n  0x40\n    /* \"#utility.yul\":4062:4084   */\n  mstore\n    /* \"#utility.yul\":3852:4090   */\n  pop\n    /* \"#utility.yul\":3809:4090   */\n  pop\n  pop\n  jump\t// out\n    /* \"#utility.yul\":4096:4276   */\ntag_88:\n    /* \"#utility.yul\":4144:4221   */\n  0x4e487b7100000000000000000000000000000000000000000000000000000000\n    /* \"#utility.yul\":4141:4142   */\n  0x00\n    /* \"#utility.yul\":4134:4222   */\n  mstore\n    /* \"#utility.yul\":4241:4245   */\n  0x22\n    /* \"#utility.yul\":4238:4239   */\n  0x04\n    /* \"#utility.yul\":4231:4246   */\n  mstore\n    /* \"#utility.yul\":4265:4269   */\n  0x24\n    /* \"#utility.yul\":4262:4263   */\n  0x00\n    /* \"#utility.yul\":4255:4270   */\n  revert\n    /* \"#utility.yul\":4282:4462   */\ntag_75:\n    /* \"#utility.yul\":4330:4407   */\n  0x4e487b7100000000000000000000000000000000000000000000000000000000\n    /* \"#utility.yul\":4327:4328   */\n  0x00\n    /* \"#utility.yul\":4320:4408   */\n  mstore\n    /* \"#utility.yul\":4427:4431   */\n  0x41\n    /* \"#utility.yul\":4424:4425   */\n  0x04\n    /* \"#utility.yul\":4417:4432   */\n  mstore\n    /* \"#utility.yul\":4451:4455   */\n  0x24\n    /* \"#utility.yul\":4448:4449   */\n  0x00\n    /* \"#utility.yul\":4441:4456   */\n  revert\n    /* \"#utility.yul\":4468:4585   */\ntag_45:\n    /* \"#utility.yul\":4577:4578   */\n  0x00\n    /* \"#utility.yul\":4574:4575   */\n  dup1\n    /* \"#utility.yul\":4567:4579   */\n  revert\n    /* \"#utility.yul\":4591:4708   */\ntag_38:\n    /* \"#utility.yul\":4700:4701   */\n  0x00\n    /* \"#utility.yul\":4697:4698   */\n  dup1\n    /* \"#utility.yul\":4690:4702   */\n  revert\n    /* \"#utility.yul\":4714:4831   */\ntag_53:\n    /* \"#utility.yul\":4823:4824   */\n  0x00\n    /* \"#utility.yul\":4820:4821   */\n  dup1\n    /* \"#utility.yul\":4813:4825   */\n  revert\n    /* \"#utility.yul\":4837:4954   */\ntag_50:\n    /* \"#utility.yul\":4946:4947   */\n  0x00\n    /* \"#utility.yul\":4943:4944   */\n  dup1\n    /* \"#utility.yul\":4936:4948   */\n  revert\n    /* \"#utility.yul\":4960:5062   */\ntag_77:\n    /* \"#utility.yul\":5001:5007   */\n  0x00\n    /* \"#utility.yul\":5052:5054   */\n  0x1f\n    /* \"#utility.yul\":5048:5055   */\n  not\n    /* \"#utility.yul\":5043:5045   */\n  0x1f\n    /* \"#utility.yul\":5036:5041   */\n  dup4\n    /* \"#utility.yul\":5032:5046   */\n  add\n    /* \"#utility.yul\":5028:5056   */\n  and\n    /* \"#utility.yul\":5018:5056   */\n  swap1\n  pop\n    /* \"#utility.yul\":4960:5062   */\n  swap2\n  swap1\n  pop\n  jump\t// out\n    /* \"#utility.yul\":5068:5246   */\ntag_63:\n    /* \"#utility.yul\":5208:5238   */\n  0x4552433136353a20696e76616c696420696e7465726661636520696400000000\n    /* \"#utility.yul\":5204:5205   */\n  0x00\n    /* \"#utility.yul\":5196:5202   */\n  dup3\n    /* \"#utility.yul\":5192:5206   */\n  add\n    /* \"#utility.yul\":5185:5239   */\n  mstore\n    /* \"#utility.yul\":5068:5246   */\n  pop\n  jump\t// out\n    /* \"contracts/ERC721.sol\":581:14665  contract ERC721 is Context, ERC165, IERC721, IERC721Metadata {\r... */\ntag_13:\n  dataSize(sub_0)\n  dup1\n  dataOffset(sub_0)\n  0x00\n  codecopy\n  0x00\n  return\nstop\n\nsub_0: assembly {\n        /* \"contracts/ERC721.sol\":581:14665  contract ERC721 is Context, ERC165, IERC721, IERC721Metadata {\r... */\n      mstore(0x40, 0x80)\n      callvalue\n      dup1\n      iszero\n      tag_1\n      jumpi\n      0x00\n      dup1\n      revert\n    tag_1:\n      pop\n      jumpi(tag_2, lt(calldatasize, 0x04))\n      shr(0xe0, calldataload(0x00))\n      dup1\n      0x70a08231\n      gt\n      tag_18\n      jumpi\n      dup1\n      0xb3e1c718\n      gt\n      tag_19\n      jumpi\n      dup1\n      0xb3e1c718\n      eq\n      tag_14\n      jumpi\n      dup1\n      0xb88d4fde\n      eq\n      tag_15\n      jumpi\n      dup1\n      0xc87b56dd\n      eq\n      tag_16\n      jumpi\n      dup1\n      0xe985e9c5\n      eq\n      tag_17\n      jumpi\n      jump(tag_2)\n    tag_19:\n      dup1\n      0x70a08231\n      eq\n      tag_10\n      jumpi\n      dup1\n      0x95d89b41\n      eq\n      tag_11\n      jumpi\n      dup1\n      0x9b1f9e74\n      eq\n      tag_12\n      jumpi\n      dup1\n      0xa22cb465\n      eq\n      tag_13\n      jumpi\n      jump(tag_2)\n    tag_18:\n      dup1\n      0x095ea7b3\n      gt\n      tag_20\n      jumpi\n      dup1\n      0x095ea7b3\n      eq\n      tag_6\n      jumpi\n      dup1\n      0x23b872dd\n      eq\n      tag_7\n      jumpi\n      dup1\n      0x42842e0e\n      eq\n      tag_8\n      jumpi\n      dup1\n      0x6352211e\n      eq\n      tag_9\n      jumpi\n      jump(tag_2)\n    tag_20:\n      dup1\n      0x01ffc9a7\n      eq\n      tag_3\n      jumpi\n      dup1\n      0x06fdde03\n      eq\n      tag_4\n      jumpi\n      dup1\n      0x081812fc\n      eq\n      tag_5\n      jumpi\n    tag_2:\n      0x00\n      dup1\n      revert\n        /* \"contracts/ERC721.sol\":1556:1863  function supportsInterface(bytes4 interfaceId) public view virtual override(ERC165, IERC165) returns (bool) {\r... */\n    tag_3:\n      tag_21\n      0x04\n      dup1\n      calldatasize\n      sub\n      dup2\n      add\n      swap1\n      tag_22\n      swap2\n      swap1\n      tag_23\n      jump\t// in\n    tag_22:\n      tag_24\n      jump\t// in\n    tag_21:\n      mload(0x40)\n      tag_25\n      swap2\n      swap1\n      tag_26\n      jump\t// in\n    tag_25:\n      mload(0x40)\n      dup1\n      swap2\n      sub\n      swap1\n      return\n        /* \"contracts/ERC721.sol\":2503:2603  function name() public view virtual override returns (string memory) {\r... */\n    tag_4:\n      tag_27\n      tag_28\n      jump\t// in\n    tag_27:\n      mload(0x40)\n      tag_29\n      swap2\n      swap1\n      tag_30\n      jump\t// in\n    tag_29:\n      mload(0x40)\n      dup1\n      swap2\n      sub\n      swap1\n      return\n        /* \"contracts/ERC721.sol\":4063:4284  function getApproved(uint256 tokenId) public view virtual override returns (address) {\r... */\n    tag_5:\n      tag_31\n      0x04\n      dup1\n      calldatasize\n      sub\n      dup2\n      add\n      swap1\n      tag_32\n      swap2\n      swap1\n      tag_33\n      jump\t// in\n    tag_32:\n      tag_34\n      jump\t// in\n    tag_31:\n      mload(0x40)\n      tag_35\n      swap2\n      swap1\n      tag_36\n      jump\t// in\n    tag_35:\n      mload(0x40)\n      dup1\n      swap2\n      sub\n      swap1\n      return\n        /* \"contracts/ERC721.sol\":3586:3997  function approve(address to, uint256 tokenId) public virtual override {\r... */\n    tag_6:\n      tag_37\n      0x04\n      dup1\n      calldatasize\n      sub\n      dup2\n      add\n      swap1\n      tag_38\n      swap2\n      swap1\n      tag_39\n      jump\t// in\n    tag_38:\n      tag_40\n      jump\t// in\n    tag_37:\n      stop\n        /* \"contracts/ERC721.sol\":4813:5152  function transferFrom(\r... */\n    tag_7:\n      tag_41\n      0x04\n      dup1\n      calldatasize\n      sub\n      dup2\n      add\n      swap1\n      tag_42\n      swap2\n      swap1\n      tag_43\n      jump\t// in\n    tag_42:\n      tag_44\n      jump\t// in\n    tag_41:\n      stop\n        /* \"contracts/ERC721.sol\":5223:5408  function safeTransferFrom(\r... */\n    tag_8:\n      tag_45\n      0x04\n      dup1\n      calldatasize\n      sub\n      dup2\n      add\n      swap1\n      tag_46\n      swap2\n      swap1\n      tag_43\n      jump\t// in\n    tag_46:\n      tag_47\n      jump\t// in\n    tag_45:\n      stop\n        /* \"contracts/ERC721.sol\":2197:2436  function ownerOf(uint256 tokenId) public view virtual override returns (address) {\r... */\n    tag_9:\n      tag_48\n      0x04\n      dup1\n      calldatasize\n      sub\n      dup2\n      add\n      swap1\n      tag_49\n      swap2\n      swap1\n      tag_33\n      jump\t// in\n    tag_49:\n      tag_50\n      jump\t// in\n    tag_48:\n      mload(0x40)\n      tag_51\n      swap2\n      swap1\n      tag_36\n      jump\t// in\n    tag_51:\n      mload(0x40)\n      dup1\n      swap2\n      sub\n      swap1\n      return\n        /* \"contracts/ERC721.sol\":1927:2135  function balanceOf(address owner) public view virtual override returns (uint256) {\r... */\n    tag_10:\n      tag_52\n      0x04\n      dup1\n      calldatasize\n      sub\n      dup2\n      add\n      swap1\n      tag_53\n      swap2\n      swap1\n      tag_54\n      jump\t// in\n    tag_53:\n      tag_55\n      jump\t// in\n    tag_52:\n      mload(0x40)\n      tag_56\n      swap2\n      swap1\n      tag_57\n      jump\t// in\n    tag_56:\n      mload(0x40)\n      dup1\n      swap2\n      sub\n      swap1\n      return\n        /* \"contracts/ERC721.sol\":2672:2776  function symbol() public view virtual override returns (string memory) {\r... */\n    tag_11:\n      tag_58\n      tag_59\n      jump\t// in\n    tag_58:\n      mload(0x40)\n      tag_60\n      swap2\n      swap1\n      tag_30\n      jump\t// in\n    tag_60:\n      mload(0x40)\n      dup1\n      swap2\n      sub\n      swap1\n      return\n        /* \"contracts/ERC721.sol\":9961:10379  function _burn(uint256 tokenId) public virtual {\r... */\n    tag_12:\n      tag_61\n      0x04\n      dup1\n      calldatasize\n      sub\n      dup2\n      add\n      swap1\n      tag_62\n      swap2\n      swap1\n      tag_33\n      jump\t// in\n    tag_62:\n      tag_63\n      jump\t// in\n    tag_61:\n      stop\n        /* \"contracts/ERC721.sol\":4356:4511  function setApprovalForAll(address operator, bool approved) public virtual override {\r... */\n    tag_13:\n      tag_64\n      0x04\n      dup1\n      calldatasize\n      sub\n      dup2\n      add\n      swap1\n      tag_65\n      swap2\n      swap1\n      tag_66\n      jump\t// in\n    tag_65:\n      tag_67\n      jump\t// in\n    tag_64:\n      stop\n        /* \"contracts/ERC721.sol\":8301:8409  function _safeMint(address to, uint256 tokenId) public virtual {\r... */\n    tag_14:\n      tag_68\n      0x04\n      dup1\n      calldatasize\n      sub\n      dup2\n      add\n      swap1\n      tag_69\n      swap2\n      swap1\n      tag_39\n      jump\t// in\n    tag_69:\n      tag_70\n      jump\t// in\n    tag_68:\n      stop\n        /* \"contracts/ERC721.sol\":5479:5807  function safeTransferFrom(\r... */\n    tag_15:\n      tag_71\n      0x04\n      dup1\n      calldatasize\n      sub\n      dup2\n      add\n      swap1\n      tag_72\n      swap2\n      swap1\n      tag_73\n      jump\t// in\n    tag_72:\n      tag_74\n      jump\t// in\n    tag_71:\n      stop\n        /* \"contracts/ERC721.sol\":2847:3181  function tokenURI(uint256 tokenId) public view virtual override returns (string memory) {\r... */\n    tag_16:\n      tag_75\n      0x04\n      dup1\n      calldatasize\n      sub\n      dup2\n      add\n      swap1\n      tag_76\n      swap2\n      swap1\n      tag_33\n      jump\t// in\n    tag_76:\n      tag_77\n      jump\t// in\n    tag_75:\n      mload(0x40)\n      tag_78\n      swap2\n      swap1\n      tag_30\n      jump\t// in\n    tag_78:\n      mload(0x40)\n      dup1\n      swap2\n      sub\n      swap1\n      return\n        /* \"contracts/ERC721.sol\":4582:4746  function isApprovedForAll(address owner, address operator) public view virtual override returns (bool) {\r... */\n    tag_17:\n      tag_79\n      0x04\n      dup1\n      calldatasize\n      sub\n      dup2\n      add\n      swap1\n      tag_80\n      swap2\n      swap1\n      tag_81\n      jump\t// in\n    tag_80:\n      tag_82\n      jump\t// in\n    tag_79:\n      mload(0x40)\n      tag_83\n      swap2\n      swap1\n      tag_26\n      jump\t// in\n    tag_83:\n      mload(0x40)\n      dup1\n      swap2\n      sub\n      swap1\n      return\n        /* \"contracts/ERC721.sol\":1556:1863  function supportsInterface(bytes4 interfaceId) public view virtual override(ERC165, IERC165) returns (bool) {\r... */\n    tag_24:\n        /* \"contracts/ERC721.sol\":1658:1662  bool */\n      0x00\n        /* \"contracts/ERC721.sol\":1712:1737  type(IERC721).interfaceId */\n      0x80ac58cd00000000000000000000000000000000000000000000000000000000\n        /* \"contracts/ERC721.sol\":1697:1737  interfaceId == type(IERC721).interfaceId */\n      not(0xffffffffffffffffffffffffffffffffffffffffffffffffffffffff)\n      and\n        /* \"contracts/ERC721.sol\":1697:1708  interfaceId */\n      dup3\n        /* \"contracts/ERC721.sol\":1697:1737  interfaceId == type(IERC721).interfaceId */\n      not(0xffffffffffffffffffffffffffffffffffffffffffffffffffffffff)\n      and\n      eq\n        /* \"contracts/ERC721.sol\":1697:1802  interfaceId == type(IERC721).interfaceId ||\r... */\n      dup1\n      tag_85\n      jumpi\n      pop\n        /* \"contracts/ERC721.sol\":1769:1802  type(IERC721Metadata).interfaceId */\n      0x5b5e139f00000000000000000000000000000000000000000000000000000000\n        /* \"contracts/ERC721.sol\":1754:1802  interfaceId == type(IERC721Metadata).interfaceId */\n      not(0xffffffffffffffffffffffffffffffffffffffffffffffffffffffff)\n      and\n        /* \"contracts/ERC721.sol\":1754:1765  interfaceId */\n      dup3\n        /* \"contracts/ERC721.sol\":1754:1802  interfaceId == type(IERC721Metadata).interfaceId */\n      not(0xffffffffffffffffffffffffffffffffffffffffffffffffffffffff)\n      and\n      eq\n        /* \"contracts/ERC721.sol\":1697:1802  interfaceId == type(IERC721).interfaceId ||\r... */\n    tag_85:\n        /* \"contracts/ERC721.sol\":1697:1855  interfaceId == type(IERC721).interfaceId ||\r... */\n      dup1\n      tag_86\n      jumpi\n      pop\n        /* \"contracts/ERC721.sol\":1819:1855  super.supportsInterface(interfaceId) */\n      tag_87\n        /* \"contracts/ERC721.sol\":1843:1854  interfaceId */\n      dup3\n        /* \"contracts/ERC721.sol\":1819:1842  super.supportsInterface */\n      tag_88\n        /* \"contracts/ERC721.sol\":1819:1855  super.supportsInterface(interfaceId) */\n      jump\t// in\n    tag_87:\n        /* \"contracts/ERC721.sol\":1697:1855  interfaceId == type(IERC721).interfaceId ||\r... */\n    tag_86:\n        /* \"contracts/ERC721.sol\":1675:1855  return\r... */\n      swap1\n      pop\n        /* \"contracts/ERC721.sol\":1556:1863  function supportsInterface(bytes4 interfaceId) public view virtual override(ERC165, IERC165) returns (bool) {\r... */\n      swap2\n      swap1\n      pop\n      jump\t// out\n        /* \"contracts/ERC721.sol\":2503:2603  function name() public view virtual override returns (string memory) {\r... */\n    tag_28:\n        /* \"contracts/ERC721.sol\":2557:2570  string memory */\n      0x60\n        /* \"contracts/ERC721.sol\":2590:2595  _name */\n      0x01\n        /* \"contracts/ERC721.sol\":2583:2595  return _name */\n      dup1\n      sload\n      tag_90\n      swap1\n      tag_91\n      jump\t// in\n    tag_90:\n      dup1\n      0x1f\n      add\n      0x20\n      dup1\n      swap2\n      div\n      mul\n      0x20\n      add\n      mload(0x40)\n      swap1\n      dup2\n      add\n      0x40\n      mstore\n      dup1\n      swap3\n      swap2\n      swap1\n      dup2\n      dup2\n      mstore\n      0x20\n      add\n      dup3\n      dup1\n      sload\n      tag_92\n      swap1\n      tag_91\n      jump\t// in\n    tag_92:\n      dup1\n      iszero\n      tag_93\n      jumpi\n      dup1\n      0x1f\n      lt\n      tag_94\n      jumpi\n      0x0100\n      dup1\n      dup4\n      sload\n      div\n      mul\n      dup4\n      mstore\n      swap2\n      0x20\n      add\n      swap2\n      jump(tag_93)\n    tag_94:\n      dup3\n      add\n      swap2\n      swap1\n      0x00\n      mstore\n      keccak256(0x00, 0x20)\n      swap1\n    tag_95:\n      dup2\n      sload\n      dup2\n      mstore\n      swap1\n      0x01\n      add\n      swap1\n      0x20\n      add\n      dup1\n      dup4\n      gt\n      tag_95\n      jumpi\n      dup3\n      swap1\n      sub\n      0x1f\n      and\n      dup3\n      add\n      swap2\n    tag_93:\n      pop\n      pop\n      pop\n      pop\n      pop\n      swap1\n      pop\n        /* \"contracts/ERC721.sol\":2503:2603  function name() public view virtual override returns (string memory) {\r... */\n      swap1\n      jump\t// out\n        /* \"contracts/ERC721.sol\":4063:4284  function getApproved(uint256 tokenId) public view virtual override returns (address) {\r... */\n    tag_34:\n        /* \"contracts/ERC721.sol\":4139:4146  address */\n      0x00\n        /* \"contracts/ERC721.sol\":4167:4183  _exists(tokenId) */\n      tag_97\n        /* \"contracts/ERC721.sol\":4175:4182  tokenId */\n      dup3\n        /* \"contracts/ERC721.sol\":4167:4174  _exists */\n      tag_98\n        /* \"contracts/ERC721.sol\":4167:4183  _exists(tokenId) */\n      jump\t// in\n    tag_97:\n        /* \"contracts/ERC721.sol\":4159:4232  require(_exists(tokenId), \"ERC721: approved query for nonexistent token\") */\n      tag_99\n      jumpi\n      mload(0x40)\n      0x08c379a000000000000000000000000000000000000000000000000000000000\n      dup2\n      mstore\n      0x04\n      add\n      tag_100\n      swap1\n      tag_101\n      jump\t// in\n    tag_100:\n      mload(0x40)\n      dup1\n      swap2\n      sub\n      swap1\n      revert\n    tag_99:\n        /* \"contracts/ERC721.sol\":4252:4267  _tokenApprovals */\n      0x05\n        /* \"contracts/ERC721.sol\":4252:4276  _tokenApprovals[tokenId] */\n      0x00\n        /* \"contracts/ERC721.sol\":4268:4275  tokenId */\n      dup4\n        /* \"contracts/ERC721.sol\":4252:4276  _tokenApprovals[tokenId] */\n      dup2\n      mstore\n      0x20\n      add\n      swap1\n      dup2\n      mstore\n      0x20\n      add\n      0x00\n      keccak256\n      0x00\n      swap1\n      sload\n      swap1\n      0x0100\n      exp\n      swap1\n      div\n      0xffffffffffffffffffffffffffffffffffffffff\n      and\n        /* \"contracts/ERC721.sol\":4245:4276  return _tokenApprovals[tokenId] */\n      swap1\n      pop\n        /* \"contracts/ERC721.sol\":4063:4284  function getApproved(uint256 tokenId) public view virtual override returns (address) {\r... */\n      swap2\n      swap1\n      pop\n      jump\t// out\n        /* \"contracts/ERC721.sol\":3586:3997  function approve(address to, uint256 tokenId) public virtual override {\r... */\n    tag_40:\n        /* \"contracts/ERC721.sol\":3667:3680  address owner */\n      0x00\n        /* \"contracts/ERC721.sol\":3683:3706  ERC721.ownerOf(tokenId) */\n      tag_103\n        /* \"contracts/ERC721.sol\":3698:3705  tokenId */\n      dup3\n        /* \"contracts/ERC721.sol\":3683:3697  ERC721.ownerOf */\n      tag_50\n        /* \"contracts/ERC721.sol\":3683:3706  ERC721.ownerOf(tokenId) */\n      jump\t// in\n    tag_103:\n        /* \"contracts/ERC721.sol\":3667:3706  address owner = ERC721.ownerOf(tokenId) */\n      swap1\n      pop\n        /* \"contracts/ERC721.sol\":3731:3736  owner */\n      dup1\n        /* \"contracts/ERC721.sol\":3725:3736  to != owner */\n      0xffffffffffffffffffffffffffffffffffffffff\n      and\n        /* \"contracts/ERC721.sol\":3725:3727  to */\n      dup4\n        /* \"contracts/ERC721.sol\":3725:3736  to != owner */\n      0xffffffffffffffffffffffffffffffffffffffff\n      and\n      eq\n      iszero\n        /* \"contracts/ERC721.sol\":3717:3774  require(to != owner, \"ERC721: approval to current owner\") */\n      tag_104\n      jumpi\n      mload(0x40)\n      0x08c379a000000000000000000000000000000000000000000000000000000000\n      dup2\n      mstore\n      0x04\n      add\n      tag_105\n      swap1\n      tag_106\n      jump\t// in\n    tag_105:\n      mload(0x40)\n      dup1\n      swap2\n      sub\n      swap1\n      revert\n    tag_104:\n        /* \"contracts/ERC721.sol\":3825:3830  owner */\n      dup1\n        /* \"contracts/ERC721.sol\":3809:3830  _msgSender() == owner */\n      0xffffffffffffffffffffffffffffffffffffffff\n      and\n        /* \"contracts/ERC721.sol\":3809:3821  _msgSender() */\n      tag_107\n        /* \"contracts/ERC721.sol\":3809:3819  _msgSender */\n      tag_108\n        /* \"contracts/ERC721.sol\":3809:3821  _msgSender() */\n      jump\t// in\n    tag_107:\n        /* \"contracts/ERC721.sol\":3809:3830  _msgSender() == owner */\n      0xffffffffffffffffffffffffffffffffffffffff\n      and\n      eq\n        /* \"contracts/ERC721.sol\":3809:3871  _msgSender() == owner || isApprovedForAll(owner, _msgSender()) */\n      dup1\n      tag_109\n      jumpi\n      pop\n        /* \"contracts/ERC721.sol\":3834:3871  isApprovedForAll(owner, _msgSender()) */\n      tag_110\n        /* \"contracts/ERC721.sol\":3851:3856  owner */\n      dup2\n        /* \"contracts/ERC721.sol\":3858:3870  _msgSender() */\n      tag_111\n        /* \"contracts/ERC721.sol\":3858:3868  _msgSender */\n      tag_108\n        /* \"contracts/ERC721.sol\":3858:3870  _msgSender() */\n      jump\t// in\n    tag_111:\n        /* \"contracts/ERC721.sol\":3834:3850  isApprovedForAll */\n      tag_82\n        /* \"contracts/ERC721.sol\":3834:3871  isApprovedForAll(owner, _msgSender()) */\n      jump\t// in\n    tag_110:\n        /* \"contracts/ERC721.sol\":3809:3871  _msgSender() == owner || isApprovedForAll(owner, _msgSender()) */\n    tag_109:\n        /* \"contracts/ERC721.sol\":3787:3955  require(\r... */\n      tag_112\n      jumpi\n      mload(0x40)\n      0x08c379a000000000000000000000000000000000000000000000000000000000\n      dup2\n      mstore\n      0x04\n      add\n      tag_113\n      swap1\n      tag_114\n      jump\t// in\n    tag_113:\n      mload(0x40)\n      dup1\n      swap2\n      sub\n      swap1\n      revert\n    tag_112:\n        /* \"contracts/ERC721.sol\":3968:3989  _approve(to, tokenId) */\n      tag_115\n        /* \"contracts/ERC721.sol\":3977:3979  to */\n      dup4\n        /* \"contracts/ERC721.sol\":3981:3988  tokenId */\n      dup4\n        /* \"contracts/ERC721.sol\":3968:3976  _approve */\n      tag_116\n        /* \"contracts/ERC721.sol\":3968:3989  _approve(to, tokenId) */\n      jump\t// in\n    tag_115:\n        /* \"contracts/ERC721.sol\":3656:3997  {\r... */\n      pop\n        /* \"contracts/ERC721.sol\":3586:3997  function approve(address to, uint256 tokenId) public virtual override {\r... */\n      pop\n      pop\n      jump\t// out\n        /* \"contracts/ERC721.sol\":4813:5152  function transferFrom(\r... */\n    tag_44:\n        /* \"contracts/ERC721.sol\":5008:5049  _isApprovedOrOwner(_msgSender(), tokenId) */\n      tag_118\n        /* \"contracts/ERC721.sol\":5027:5039  _msgSender() */\n      tag_119\n        /* \"contracts/ERC721.sol\":5027:5037  _msgSender */\n      tag_108\n        /* \"contracts/ERC721.sol\":5027:5039  _msgSender() */\n      jump\t// in\n    tag_119:\n        /* \"contracts/ERC721.sol\":5041:5048  tokenId */\n      dup3\n        /* \"contracts/ERC721.sol\":5008:5026  _isApprovedOrOwner */\n      tag_120\n        /* \"contracts/ERC721.sol\":5008:5049  _isApprovedOrOwner(_msgSender(), tokenId) */\n      jump\t// in\n    tag_118:\n        /* \"contracts/ERC721.sol\":5000:5103  require(_isApprovedOrOwner(_msgSender(), tokenId), \"ERC721: transfer caller is not owner nor approved\") */\n      tag_121\n      jumpi\n      mload(0x40)\n      0x08c379a000000000000000000000000000000000000000000000000000000000\n      dup2\n      mstore\n      0x04\n      add\n      tag_122\n      swap1\n      tag_123\n      jump\t// in\n    tag_122:\n      mload(0x40)\n      dup1\n      swap2\n      sub\n      swap1\n      revert\n    tag_121:\n        /* \"contracts/ERC721.sol\":5116:5144  _transfer(from, to, tokenId) */\n      tag_124\n        /* \"contracts/ERC721.sol\":5126:5130  from */\n      dup4\n        /* \"contracts/ERC721.sol\":5132:5134  to */\n      dup4\n        /* \"contracts/ERC721.sol\":5136:5143  tokenId */\n      dup4\n        /* \"contracts/ERC721.sol\":5116:5125  _transfer */\n      tag_125\n        /* \"contracts/ERC721.sol\":5116:5144  _transfer(from, to, tokenId) */\n      jump\t// in\n    tag_124:\n        /* \"contracts/ERC721.sol\":4813:5152  function transferFrom(\r... */\n      pop\n      pop\n      pop\n      jump\t// out\n        /* \"contracts/ERC721.sol\":5223:5408  function safeTransferFrom(\r... */\n    tag_47:\n        /* \"contracts/ERC721.sol\":5361:5400  safeTransferFrom(from, to, tokenId, \"\") */\n      tag_127\n        /* \"contracts/ERC721.sol\":5378:5382  from */\n      dup4\n        /* \"contracts/ERC721.sol\":5384:5386  to */\n      dup4\n        /* \"contracts/ERC721.sol\":5388:5395  tokenId */\n      dup4\n        /* \"contracts/ERC721.sol\":5361:5400  safeTransferFrom(from, to, tokenId, \"\") */\n      mload(0x40)\n      dup1\n      0x20\n      add\n      0x40\n      mstore\n      dup1\n      0x00\n      dup2\n      mstore\n      pop\n        /* \"contracts/ERC721.sol\":5361:5377  safeTransferFrom */\n      tag_74\n        /* \"contracts/ERC721.sol\":5361:5400  safeTransferFrom(from, to, tokenId, \"\") */\n      jump\t// in\n    tag_127:\n        /* \"contracts/ERC721.sol\":5223:5408  function safeTransferFrom(\r... */\n      pop\n      pop\n      pop\n      jump\t// out\n        /* \"contracts/ERC721.sol\":2197:2436  function ownerOf(uint256 tokenId) public view virtual override returns (address) {\r... */\n    tag_50:\n        /* \"contracts/ERC721.sol\":2269:2276  address */\n      0x00\n        /* \"contracts/ERC721.sol\":2289:2302  address owner */\n      dup1\n        /* \"contracts/ERC721.sol\":2305:2312  _owners */\n      0x03\n        /* \"contracts/ERC721.sol\":2305:2321  _owners[tokenId] */\n      0x00\n        /* \"contracts/ERC721.sol\":2313:2320  tokenId */\n      dup5\n        /* \"contracts/ERC721.sol\":2305:2321  _owners[tokenId] */\n      dup2\n      mstore\n      0x20\n      add\n      swap1\n      dup2\n      mstore\n      0x20\n      add\n      0x00\n      keccak256\n      0x00\n      swap1\n      sload\n      swap1\n      0x0100\n      exp\n      swap1\n      div\n      0xffffffffffffffffffffffffffffffffffffffff\n      and\n        /* \"contracts/ERC721.sol\":2289:2321  address owner = _owners[tokenId] */\n      swap1\n      pop\n        /* \"contracts/ERC721.sol\":2357:2358  0 */\n      0x00\n        /* \"contracts/ERC721.sol\":2340:2359  owner != address(0) */\n      0xffffffffffffffffffffffffffffffffffffffff\n      and\n        /* \"contracts/ERC721.sol\":2340:2345  owner */\n      dup2\n        /* \"contracts/ERC721.sol\":2340:2359  owner != address(0) */\n      0xffffffffffffffffffffffffffffffffffffffff\n      and\n      eq\n      iszero\n        /* \"contracts/ERC721.sol\":2332:2405  require(owner != address(0), \"ERC721: owner query for nonexistent token\") */\n      tag_129\n      jumpi\n      mload(0x40)\n      0x08c379a000000000000000000000000000000000000000000000000000000000\n      dup2\n      mstore\n      0x04\n      add\n      tag_130\n      swap1\n      tag_131\n      jump\t// in\n    tag_130:\n      mload(0x40)\n      dup1\n      swap2\n      sub\n      swap1\n      revert\n    tag_129:\n        /* \"contracts/ERC721.sol\":2423:2428  owner */\n      dup1\n        /* \"contracts/ERC721.sol\":2416:2428  return owner */\n      swap2\n      pop\n      pop\n        /* \"contracts/ERC721.sol\":2197:2436  function ownerOf(uint256 tokenId) public view virtual override returns (address) {\r... */\n      swap2\n      swap1\n      pop\n      jump\t// out\n        /* \"contracts/ERC721.sol\":1927:2135  function balanceOf(address owner) public view virtual override returns (uint256) {\r... */\n    tag_55:\n        /* \"contracts/ERC721.sol\":1999:2006  uint256 */\n      0x00\n        /* \"contracts/ERC721.sol\":2044:2045  0 */\n      dup1\n        /* \"contracts/ERC721.sol\":2027:2046  owner != address(0) */\n      0xffffffffffffffffffffffffffffffffffffffff\n      and\n        /* \"contracts/ERC721.sol\":2027:2032  owner */\n      dup3\n        /* \"contracts/ERC721.sol\":2027:2046  owner != address(0) */\n      0xffffffffffffffffffffffffffffffffffffffff\n      and\n      eq\n      iszero\n        /* \"contracts/ERC721.sol\":2019:2093  require(owner != address(0), \"ERC721: balance query for the zero address\") */\n      tag_133\n      jumpi\n      mload(0x40)\n      0x08c379a000000000000000000000000000000000000000000000000000000000\n      dup2\n      mstore\n      0x04\n      add\n      tag_134\n      swap1\n      tag_135\n      jump\t// in\n    tag_134:\n      mload(0x40)\n      dup1\n      swap2\n      sub\n      swap1\n      revert\n    tag_133:\n        /* \"contracts/ERC721.sol\":2111:2120  _balances */\n      0x04\n        /* \"contracts/ERC721.sol\":2111:2127  _balances[owner] */\n      0x00\n        /* \"contracts/ERC721.sol\":2121:2126  owner */\n      dup4\n        /* \"contracts/ERC721.sol\":2111:2127  _balances[owner] */\n      0xffffffffffffffffffffffffffffffffffffffff\n      and\n      0xffffffffffffffffffffffffffffffffffffffff\n      and\n      dup2\n      mstore\n      0x20\n      add\n      swap1\n      dup2\n      mstore\n      0x20\n      add\n      0x00\n      keccak256\n      sload\n        /* \"contracts/ERC721.sol\":2104:2127  return _balances[owner] */\n      swap1\n      pop\n        /* \"contracts/ERC721.sol\":1927:2135  function balanceOf(address owner) public view virtual override returns (uint256) {\r... */\n      swap2\n      swap1\n      pop\n      jump\t// out\n        /* \"contracts/ERC721.sol\":2672:2776  function symbol() public view virtual override returns (string memory) {\r... */\n    tag_59:\n        /* \"contracts/ERC721.sol\":2728:2741  string memory */\n      0x60\n        /* \"contracts/ERC721.sol\":2761:2768  _symbol */\n      0x02\n        /* \"contracts/ERC721.sol\":2754:2768  return _symbol */\n      dup1\n      sload\n      tag_137\n      swap1\n      tag_91\n      jump\t// in\n    tag_137:\n      dup1\n      0x1f\n      add\n      0x20\n      dup1\n      swap2\n      div\n      mul\n      0x20\n      add\n      mload(0x40)\n      swap1\n      dup2\n      add\n      0x40\n      mstore\n      dup1\n      swap3\n      swap2\n      swap1\n      dup2\n      dup2\n      mstore\n      0x20\n      add\n      dup3\n      dup1\n      sload\n      tag_138\n      swap1\n      tag_91\n      jump\t// in\n    tag_138:\n      dup1\n      iszero\n      tag_139\n      jumpi\n      dup1\n      0x1f\n      lt\n      tag_140\n      jumpi\n      0x0100\n      dup1\n      dup4\n      sload\n      div\n      mul\n      dup4\n      mstore\n      swap2\n      0x20\n      add\n      swap2\n      jump(tag_139)\n    tag_140:\n      dup3\n      add\n      swap2\n      swap1\n      0x00\n      mstore\n      keccak256(0x00, 0x20)\n      swap1\n    tag_141:\n      dup2\n      sload\n      dup2\n      mstore\n      swap1\n      0x01\n      add\n      swap1\n      0x20\n      add\n      dup1\n      dup4\n      gt\n      tag_141\n      jumpi\n      dup3\n      swap1\n      sub\n      0x1f\n      and\n      dup3\n      add\n      swap2\n    tag_139:\n      pop\n      pop\n      pop\n      pop\n      pop\n      swap1\n      pop\n        /* \"contracts/ERC721.sol\":2672:2776  function symbol() public view virtual override returns (string memory) {\r... */\n      swap1\n      jump\t// out\n        /* \"contracts/ERC721.sol\":9961:10379  function _burn(uint256 tokenId) public virtual {\r... */\n    tag_63:\n        /* \"contracts/ERC721.sol\":10019:10032  address owner */\n      0x00\n        /* \"contracts/ERC721.sol\":10035:10058  ERC721.ownerOf(tokenId) */\n      tag_143\n        /* \"contracts/ERC721.sol\":10050:10057  tokenId */\n      dup3\n        /* \"contracts/ERC721.sol\":10035:10049  ERC721.ownerOf */\n      tag_50\n        /* \"contracts/ERC721.sol\":10035:10058  ERC721.ownerOf(tokenId) */\n      jump\t// in\n    tag_143:\n        /* \"contracts/ERC721.sol\":10019:10058  address owner = ERC721.ownerOf(tokenId) */\n      swap1\n      pop\n        /* \"contracts/ERC721.sol\":10071:10119  _beforeTokenTransfer(owner, address(0), tokenId) */\n      tag_144\n        /* \"contracts/ERC721.sol\":10092:10097  owner */\n      dup2\n        /* \"contracts/ERC721.sol\":10107:10108  0 */\n      0x00\n        /* \"contracts/ERC721.sol\":10111:10118  tokenId */\n      dup5\n        /* \"contracts/ERC721.sol\":10071:10091  _beforeTokenTransfer */\n      tag_145\n        /* \"contracts/ERC721.sol\":10071:10119  _beforeTokenTransfer(owner, address(0), tokenId) */\n      jump\t// in\n    tag_144:\n        /* \"contracts/ERC721.sol\":10160:10189  _approve(address(0), tokenId) */\n      tag_146\n        /* \"contracts/ERC721.sol\":10177:10178  0 */\n      0x00\n        /* \"contracts/ERC721.sol\":10181:10188  tokenId */\n      dup4\n        /* \"contracts/ERC721.sol\":10160:10168  _approve */\n      tag_116\n        /* \"contracts/ERC721.sol\":10160:10189  _approve(address(0), tokenId) */\n      jump\t// in\n    tag_146:\n        /* \"contracts/ERC721.sol\":10222:10223  1 */\n      0x01\n        /* \"contracts/ERC721.sol\":10202:10211  _balances */\n      0x04\n        /* \"contracts/ERC721.sol\":10202:10218  _balances[owner] */\n      0x00\n        /* \"contracts/ERC721.sol\":10212:10217  owner */\n      dup4\n        /* \"contracts/ERC721.sol\":10202:10218  _balances[owner] */\n      0xffffffffffffffffffffffffffffffffffffffff\n      and\n      0xffffffffffffffffffffffffffffffffffffffff\n      and\n      dup2\n      mstore\n      0x20\n      add\n      swap1\n      dup2\n      mstore\n      0x20\n      add\n      0x00\n      keccak256\n      0x00\n        /* \"contracts/ERC721.sol\":10202:10223  _balances[owner] -= 1 */\n      dup3\n      dup3\n      sload\n      tag_147\n      swap2\n      swap1\n      tag_148\n      jump\t// in\n    tag_147:\n      swap3\n      pop\n      pop\n      dup2\n      swap1\n      sstore\n      pop\n        /* \"contracts/ERC721.sol\":10241:10248  _owners */\n      0x03\n        /* \"contracts/ERC721.sol\":10241:10257  _owners[tokenId] */\n      0x00\n        /* \"contracts/ERC721.sol\":10249:10256  tokenId */\n      dup4\n        /* \"contracts/ERC721.sol\":10241:10257  _owners[tokenId] */\n      dup2\n      mstore\n      0x20\n      add\n      swap1\n      dup2\n      mstore\n      0x20\n      add\n      0x00\n      keccak256\n      0x00\n        /* \"contracts/ERC721.sol\":10234:10257  delete _owners[tokenId] */\n      0x0100\n      exp\n      dup2\n      sload\n      swap1\n      0xffffffffffffffffffffffffffffffffffffffff\n      mul\n      not\n      and\n      swap1\n      sstore\n        /* \"contracts/ERC721.sol\":10303:10310  tokenId */\n      dup2\n        /* \"contracts/ERC721.sol\":10299:10300  0 */\n      0x00\n        /* \"contracts/ERC721.sol\":10275:10311  Transfer(owner, address(0), tokenId) */\n      0xffffffffffffffffffffffffffffffffffffffff\n      and\n        /* \"contracts/ERC721.sol\":10284:10289  owner */\n      dup3\n        /* \"contracts/ERC721.sol\":10275:10311  Transfer(owner, address(0), tokenId) */\n      0xffffffffffffffffffffffffffffffffffffffff\n      and\n      0xddf252ad1be2c89b69c2b068fc378daa952ba7f163c4a11628f55a4df523b3ef\n      mload(0x40)\n      mload(0x40)\n      dup1\n      swap2\n      sub\n      swap1\n      log4\n        /* \"contracts/ERC721.sol\":10324:10371  _afterTokenTransfer(owner, address(0), tokenId) */\n      tag_149\n        /* \"contracts/ERC721.sol\":10344:10349  owner */\n      dup2\n        /* \"contracts/ERC721.sol\":10359:10360  0 */\n      0x00\n        /* \"contracts/ERC721.sol\":10363:10370  tokenId */\n      dup5\n        /* \"contracts/ERC721.sol\":10324:10343  _afterTokenTransfer */\n      tag_150\n        /* \"contracts/ERC721.sol\":10324:10371  _afterTokenTransfer(owner, address(0), tokenId) */\n      jump\t// in\n    tag_149:\n        /* \"contracts/ERC721.sol\":10008:10379  {\r... */\n      pop\n        /* \"contracts/ERC721.sol\":9961:10379  function _burn(uint256 tokenId) public virtual {\r... */\n      pop\n      jump\t// out\n        /* \"contracts/ERC721.sol\":4356:4511  function setApprovalForAll(address operator, bool approved) public virtual override {\r... */\n    tag_67:\n        /* \"contracts/ERC721.sol\":4451:4503  _setApprovalForAll(_msgSender(), operator, approved) */\n      tag_152\n        /* \"contracts/ERC721.sol\":4470:4482  _msgSender() */\n      tag_153\n        /* \"contracts/ERC721.sol\":4470:4480  _msgSender */\n      tag_108\n        /* \"contracts/ERC721.sol\":4470:4482  _msgSender() */\n      jump\t// in\n    tag_153:\n        /* \"contracts/ERC721.sol\":4484:4492  operator */\n      dup4\n        /* \"contracts/ERC721.sol\":4494:4502  approved */\n      dup4\n        /* \"contracts/ERC721.sol\":4451:4469  _setApprovalForAll */\n      tag_154\n        /* \"contracts/ERC721.sol\":4451:4503  _setApprovalForAll(_msgSender(), operator, approved) */\n      jump\t// in\n    tag_152:\n        /* \"contracts/ERC721.sol\":4356:4511  function setApprovalForAll(address operator, bool approved) public virtual override {\r... */\n      pop\n      pop\n      jump\t// out\n        /* \"contracts/ERC721.sol\":8301:8409  function _safeMint(address to, uint256 tokenId) public virtual {\r... */\n    tag_70:\n        /* \"contracts/ERC721.sol\":8375:8401  _safeMint(to, tokenId, \"\") */\n      tag_156\n        /* \"contracts/ERC721.sol\":8385:8387  to */\n      dup3\n        /* \"contracts/ERC721.sol\":8389:8396  tokenId */\n      dup3\n        /* \"contracts/ERC721.sol\":8375:8401  _safeMint(to, tokenId, \"\") */\n      mload(0x40)\n      dup1\n      0x20\n      add\n      0x40\n      mstore\n      dup1\n      0x00\n      dup2\n      mstore\n      pop\n        /* \"contracts/ERC721.sol\":8375:8384  _safeMint */\n      tag_157\n        /* \"contracts/ERC721.sol\":8375:8401  _safeMint(to, tokenId, \"\") */\n      jump\t// in\n    tag_156:\n        /* \"contracts/ERC721.sol\":8301:8409  function _safeMint(address to, uint256 tokenId) public virtual {\r... */\n      pop\n      pop\n      jump\t// out\n        /* \"contracts/ERC721.sol\":5479:5807  function safeTransferFrom(\r... */\n    tag_74:\n        /* \"contracts/ERC721.sol\":5654:5695  _isApprovedOrOwner(_msgSender(), tokenId) */\n      tag_159\n        /* \"contracts/ERC721.sol\":5673:5685  _msgSender() */\n      tag_160\n        /* \"contracts/ERC721.sol\":5673:5683  _msgSender */\n      tag_108\n        /* \"contracts/ERC721.sol\":5673:5685  _msgSender() */\n      jump\t// in\n    tag_160:\n        /* \"contracts/ERC721.sol\":5687:5694  tokenId */\n      dup4\n        /* \"contracts/ERC721.sol\":5654:5672  _isApprovedOrOwner */\n      tag_120\n        /* \"contracts/ERC721.sol\":5654:5695  _isApprovedOrOwner(_msgSender(), tokenId) */\n      jump\t// in\n    tag_159:\n        /* \"contracts/ERC721.sol\":5646:5749  require(_isApprovedOrOwner(_msgSender(), tokenId), \"ERC721: transfer caller is not owner nor approved\") */\n      tag_161\n      jumpi\n      mload(0x40)\n      0x08c379a000000000000000000000000000000000000000000000000000000000\n      dup2\n      mstore\n      0x04\n      add\n      tag_162\n      swap1\n      tag_123\n      jump\t// in\n    tag_162:\n      mload(0x40)\n      dup1\n      swap2\n      sub\n      swap1\n      revert\n    tag_161:\n        /* \"contracts/ERC721.sol\":5760:5799  _safeTransfer(from, to, tokenId, _data) */\n      tag_163\n        /* \"contracts/ERC721.sol\":5774:5778  from */\n      dup5\n        /* \"contracts/ERC721.sol\":5780:5782  to */\n      dup5\n        /* \"contracts/ERC721.sol\":5784:5791  tokenId */\n      dup5\n        /* \"contracts/ERC721.sol\":5793:5798  _data */\n      dup5\n        /* \"contracts/ERC721.sol\":5760:5773  _safeTransfer */\n      tag_164\n        /* \"contracts/ERC721.sol\":5760:5799  _safeTransfer(from, to, tokenId, _data) */\n      jump\t// in\n    tag_163:\n        /* \"contracts/ERC721.sol\":5479:5807  function safeTransferFrom(\r... */\n      pop\n      pop\n      pop\n      pop\n      jump\t// out\n        /* \"contracts/ERC721.sol\":2847:3181  function tokenURI(uint256 tokenId) public view virtual override returns (string memory) {\r... */\n    tag_77:\n        /* \"contracts/ERC721.sol\":2920:2933  string memory */\n      0x60\n        /* \"contracts/ERC721.sol\":2954:2970  _exists(tokenId) */\n      tag_166\n        /* \"contracts/ERC721.sol\":2962:2969  tokenId */\n      dup3\n        /* \"contracts/ERC721.sol\":2954:2961  _exists */\n      tag_98\n        /* \"contracts/ERC721.sol\":2954:2970  _exists(tokenId) */\n      jump\t// in\n    tag_166:\n        /* \"contracts/ERC721.sol\":2946:3022  require(_exists(tokenId), \"ERC721Metadata: URI query for nonexistent token\") */\n      tag_167\n      jumpi\n      mload(0x40)\n      0x08c379a000000000000000000000000000000000000000000000000000000000\n      dup2\n      mstore\n      0x04\n      add\n      tag_168\n      swap1\n      tag_169\n      jump\t// in\n    tag_168:\n      mload(0x40)\n      dup1\n      swap2\n      sub\n      swap1\n      revert\n    tag_167:\n        /* \"contracts/ERC721.sol\":3035:3056  string memory baseURI */\n      0x00\n        /* \"contracts/ERC721.sol\":3059:3069  _baseURI() */\n      tag_170\n        /* \"contracts/ERC721.sol\":3059:3067  _baseURI */\n      tag_171\n        /* \"contracts/ERC721.sol\":3059:3069  _baseURI() */\n      jump\t// in\n    tag_170:\n        /* \"contracts/ERC721.sol\":3035:3069  string memory baseURI = _baseURI() */\n      swap1\n      pop\n        /* \"contracts/ERC721.sol\":3111:3112  0 */\n      0x00\n        /* \"contracts/ERC721.sol\":3093:3100  baseURI */\n      dup2\n        /* \"contracts/ERC721.sol\":3087:3108  bytes(baseURI).length */\n      mload\n        /* \"contracts/ERC721.sol\":3087:3112  bytes(baseURI).length > 0 */\n      gt\n        /* \"contracts/ERC721.sol\":3087:3173  bytes(baseURI).length > 0 ? string(abi.encodePacked(baseURI, tokenId.toString())) : \"\" */\n      tag_172\n      jumpi\n      mload(0x40)\n      dup1\n      0x20\n      add\n      0x40\n      mstore\n      dup1\n      0x00\n      dup2\n      mstore\n      pop\n      jump(tag_173)\n    tag_172:\n        /* \"contracts/ERC721.sol\":3139:3146  baseURI */\n      dup1\n        /* \"contracts/ERC721.sol\":3148:3166  tokenId.toString() */\n      tag_174\n        /* \"contracts/ERC721.sol\":3148:3155  tokenId */\n      dup5\n        /* \"contracts/ERC721.sol\":3148:3164  tokenId.toString */\n      tag_175\n        /* \"contracts/ERC721.sol\":3148:3166  tokenId.toString() */\n      jump\t// in\n    tag_174:\n        /* \"contracts/ERC721.sol\":3122:3167  abi.encodePacked(baseURI, tokenId.toString()) */\n      add(0x20, mload(0x40))\n      tag_176\n      swap3\n      swap2\n      swap1\n      tag_177\n      jump\t// in\n    tag_176:\n      mload(0x40)\n      0x20\n      dup2\n      dup4\n      sub\n      sub\n      dup2\n      mstore\n      swap1\n      0x40\n      mstore\n        /* \"contracts/ERC721.sol\":3087:3173  bytes(baseURI).length > 0 ? string(abi.encodePacked(baseURI, tokenId.toString())) : \"\" */\n    tag_173:\n        /* \"contracts/ERC721.sol\":3080:3173  return bytes(baseURI).length > 0 ? string(abi.encodePacked(baseURI, tokenId.toString())) : \"\" */\n      swap2\n      pop\n      pop\n        /* \"contracts/ERC721.sol\":2847:3181  function tokenURI(uint256 tokenId) public view virtual override returns (string memory) {\r... */\n      swap2\n      swap1\n      pop\n      jump\t// out\n        /* \"contracts/ERC721.sol\":4582:4746  function isApprovedForAll(address owner, address operator) public view virtual override returns (bool) {\r... */\n    tag_82:\n        /* \"contracts/ERC721.sol\":4679:4683  bool */\n      0x00\n        /* \"contracts/ERC721.sol\":4703:4721  _operatorApprovals */\n      0x06\n        /* \"contracts/ERC721.sol\":4703:4728  _operatorApprovals[owner] */\n      0x00\n        /* \"contracts/ERC721.sol\":4722:4727  owner */\n      dup5\n        /* \"contracts/ERC721.sol\":4703:4728  _operatorApprovals[owner] */\n      0xffffffffffffffffffffffffffffffffffffffff\n      and\n      0xffffffffffffffffffffffffffffffffffffffff\n      and\n      dup2\n      mstore\n      0x20\n      add\n      swap1\n      dup2\n      mstore\n      0x20\n      add\n      0x00\n      keccak256\n        /* \"contracts/ERC721.sol\":4703:4738  _operatorApprovals[owner][operator] */\n      0x00\n        /* \"contracts/ERC721.sol\":4729:4737  operator */\n      dup4\n        /* \"contracts/ERC721.sol\":4703:4738  _operatorApprovals[owner][operator] */\n      0xffffffffffffffffffffffffffffffffffffffff\n      and\n      0xffffffffffffffffffffffffffffffffffffffff\n      and\n      dup2\n      mstore\n      0x20\n      add\n      swap1\n      dup2\n      mstore\n      0x20\n      add\n      0x00\n      keccak256\n      0x00\n      swap1\n      sload\n      swap1\n      0x0100\n      exp\n      swap1\n      div\n      0xff\n      and\n        /* \"contracts/ERC721.sol\":4696:4738  return _operatorApprovals[owner][operator] */\n      swap1\n      pop\n        /* \"contracts/ERC721.sol\":4582:4746  function isApprovedForAll(address owner, address operator) public view virtual override returns (bool) {\r... */\n      swap3\n      swap2\n      pop\n      pop\n      jump\t// out\n        /* \"contracts/ERC165.sol\":835:985  function supportsInterface(bytes4 interfaceId) public view virtual override returns (bool) {\r... */\n    tag_88:\n        /* \"contracts/ERC165.sol\":920:924  bool */\n      0x00\n        /* \"contracts/ERC165.sol\":944:964  _supportedInterfaces */\n      dup1\n        /* \"contracts/ERC165.sol\":944:977  _supportedInterfaces[interfaceId] */\n      0x00\n        /* \"contracts/ERC165.sol\":965:976  interfaceId */\n      dup4\n        /* \"contracts/ERC165.sol\":944:977  _supportedInterfaces[interfaceId] */\n      not(0xffffffffffffffffffffffffffffffffffffffffffffffffffffffff)\n      and\n      not(0xffffffffffffffffffffffffffffffffffffffffffffffffffffffff)\n      and\n      dup2\n      mstore\n      0x20\n      add\n      swap1\n      dup2\n      mstore\n      0x20\n      add\n      0x00\n      keccak256\n      0x00\n      swap1\n      sload\n      swap1\n      0x0100\n      exp\n      swap1\n      div\n      0xff\n      and\n        /* \"contracts/ERC165.sol\":937:977  return _supportedInterfaces[interfaceId] */\n      swap1\n      pop\n        /* \"contracts/ERC165.sol\":835:985  function supportsInterface(bytes4 interfaceId) public view virtual override returns (bool) {\r... */\n      swap2\n      swap1\n      pop\n      jump\t// out\n        /* \"contracts/ERC721.sol\":7317:7444  function _exists(uint256 tokenId) internal view virtual returns (bool) {\r... */\n    tag_98:\n        /* \"contracts/ERC721.sol\":7382:7386  bool */\n      0x00\n        /* \"contracts/ERC721.sol\":7434:7435  0 */\n      dup1\n        /* \"contracts/ERC721.sol\":7406:7436  _owners[tokenId] != address(0) */\n      0xffffffffffffffffffffffffffffffffffffffff\n      and\n        /* \"contracts/ERC721.sol\":7406:7413  _owners */\n      0x03\n        /* \"contracts/ERC721.sol\":7406:7422  _owners[tokenId] */\n      0x00\n        /* \"contracts/ERC721.sol\":7414:7421  tokenId */\n      dup5\n        /* \"contracts/ERC721.sol\":7406:7422  _owners[tokenId] */\n      dup2\n      mstore\n      0x20\n      add\n      swap1\n      dup2\n      mstore\n      0x20\n      add\n      0x00\n      keccak256\n      0x00\n      swap1\n      sload\n      swap1\n      0x0100\n      exp\n      swap1\n      div\n      0xffffffffffffffffffffffffffffffffffffffff\n      and\n        /* \"contracts/ERC721.sol\":7406:7436  _owners[tokenId] != address(0) */\n      0xffffffffffffffffffffffffffffffffffffffff\n      and\n      eq\n      iszero\n        /* \"contracts/ERC721.sol\":7399:7436  return _owners[tokenId] != address(0) */\n      swap1\n      pop\n        /* \"contracts/ERC721.sol\":7317:7444  function _exists(uint256 tokenId) internal view virtual returns (bool) {\r... */\n      swap2\n      swap1\n      pop\n      jump\t// out\n        /* \"contracts/Context.sol\":656:754  function _msgSender() internal view virtual returns (address) {\r... */\n    tag_108:\n        /* \"contracts/Context.sol\":709:716  address */\n      0x00\n        /* \"contracts/Context.sol\":736:746  msg.sender */\n      caller\n        /* \"contracts/Context.sol\":729:746  return msg.sender */\n      swap1\n      pop\n        /* \"contracts/Context.sol\":656:754  function _msgSender() internal view virtual returns (address) {\r... */\n      swap1\n      jump\t// out\n        /* \"contracts/ERC721.sol\":11459:11633  function _approve(address to, uint256 tokenId) internal virtual {\r... */\n    tag_116:\n        /* \"contracts/ERC721.sol\":11561:11563  to */\n      dup2\n        /* \"contracts/ERC721.sol\":11534:11549  _tokenApprovals */\n      0x05\n        /* \"contracts/ERC721.sol\":11534:11558  _tokenApprovals[tokenId] */\n      0x00\n        /* \"contracts/ERC721.sol\":11550:11557  tokenId */\n      dup4\n        /* \"contracts/ERC721.sol\":11534:11558  _tokenApprovals[tokenId] */\n      dup2\n      mstore\n      0x20\n      add\n      swap1\n      dup2\n      mstore\n      0x20\n      add\n      0x00\n      keccak256\n      0x00\n        /* \"contracts/ERC721.sol\":11534:11563  _tokenApprovals[tokenId] = to */\n      0x0100\n      exp\n      dup2\n      sload\n      dup2\n      0xffffffffffffffffffffffffffffffffffffffff\n      mul\n      not\n      and\n      swap1\n      dup4\n      0xffffffffffffffffffffffffffffffffffffffff\n      and\n      mul\n      or\n      swap1\n      sstore\n      pop\n        /* \"contracts/ERC721.sol\":11617:11624  tokenId */\n      dup1\n        /* \"contracts/ERC721.sol\":11613:11615  to */\n      dup3\n        /* \"contracts/ERC721.sol\":11579:11625  Approval(ERC721.ownerOf(tokenId), to, tokenId) */\n      0xffffffffffffffffffffffffffffffffffffffff\n      and\n        /* \"contracts/ERC721.sol\":11588:11611  ERC721.ownerOf(tokenId) */\n      tag_183\n        /* \"contracts/ERC721.sol\":11603:11610  tokenId */\n      dup4\n        /* \"contracts/ERC721.sol\":11588:11602  ERC721.ownerOf */\n      tag_50\n        /* \"contracts/ERC721.sol\":11588:11611  ERC721.ownerOf(tokenId) */\n      jump\t// in\n    tag_183:\n        /* \"contracts/ERC721.sol\":11579:11625  Approval(ERC721.ownerOf(tokenId), to, tokenId) */\n      0xffffffffffffffffffffffffffffffffffffffff\n      and\n      0x8c5be1e5ebec7d5bd14f71427d1e84f3dd0314c0f7b2291e5b200ac8c7c3b925\n      mload(0x40)\n      mload(0x40)\n      dup1\n      swap2\n      sub\n      swap1\n      log4\n        /* \"contracts/ERC721.sol\":11459:11633  function _approve(address to, uint256 tokenId) internal virtual {\r... */\n      pop\n      pop\n      jump\t// out\n        /* \"contracts/ERC721.sol\":7611:7959  function _isApprovedOrOwner(address spender, uint256 tokenId) internal view virtual returns (bool) {\r... */\n    tag_120:\n        /* \"contracts/ERC721.sol\":7704:7708  bool */\n      0x00\n        /* \"contracts/ERC721.sol\":7729:7745  _exists(tokenId) */\n      tag_185\n        /* \"contracts/ERC721.sol\":7737:7744  tokenId */\n      dup3\n        /* \"contracts/ERC721.sol\":7729:7736  _exists */\n      tag_98\n        /* \"contracts/ERC721.sol\":7729:7745  _exists(tokenId) */\n      jump\t// in\n    tag_185:\n        /* \"contracts/ERC721.sol\":7721:7794  require(_exists(tokenId), \"ERC721: operator query for nonexistent token\") */\n      tag_186\n      jumpi\n      mload(0x40)\n      0x08c379a000000000000000000000000000000000000000000000000000000000\n      dup2\n      mstore\n      0x04\n      add\n      tag_187\n      swap1\n      tag_188\n      jump\t// in\n    tag_187:\n      mload(0x40)\n      dup1\n      swap2\n      sub\n      swap1\n      revert\n    tag_186:\n        /* \"contracts/ERC721.sol\":7805:7818  address owner */\n      0x00\n        /* \"contracts/ERC721.sol\":7821:7844  ERC721.ownerOf(tokenId) */\n      tag_189\n        /* \"contracts/ERC721.sol\":7836:7843  tokenId */\n      dup4\n        /* \"contracts/ERC721.sol\":7821:7835  ERC721.ownerOf */\n      tag_50\n        /* \"contracts/ERC721.sol\":7821:7844  ERC721.ownerOf(tokenId) */\n      jump\t// in\n    tag_189:\n        /* \"contracts/ERC721.sol\":7805:7844  address owner = ERC721.ownerOf(tokenId) */\n      swap1\n      pop\n        /* \"contracts/ERC721.sol\":7874:7879  owner */\n      dup1\n        /* \"contracts/ERC721.sol\":7863:7879  spender == owner */\n      0xffffffffffffffffffffffffffffffffffffffff\n      and\n        /* \"contracts/ERC721.sol\":7863:7870  spender */\n      dup5\n        /* \"contracts/ERC721.sol\":7863:7879  spender == owner */\n      0xffffffffffffffffffffffffffffffffffffffff\n      and\n      eq\n        /* \"contracts/ERC721.sol\":7863:7915  spender == owner || isApprovedForAll(owner, spender) */\n      dup1\n      tag_190\n      jumpi\n      pop\n        /* \"contracts/ERC721.sol\":7883:7915  isApprovedForAll(owner, spender) */\n      tag_191\n        /* \"contracts/ERC721.sol\":7900:7905  owner */\n      dup2\n        /* \"contracts/ERC721.sol\":7907:7914  spender */\n      dup6\n        /* \"contracts/ERC721.sol\":7883:7899  isApprovedForAll */\n      tag_82\n        /* \"contracts/ERC721.sol\":7883:7915  isApprovedForAll(owner, spender) */\n      jump\t// in\n    tag_191:\n        /* \"contracts/ERC721.sol\":7863:7915  spender == owner || isApprovedForAll(owner, spender) */\n    tag_190:\n        /* \"contracts/ERC721.sol\":7863:7950  spender == owner || isApprovedForAll(owner, spender) || getApproved(tokenId) == spender */\n      dup1\n      tag_192\n      jumpi\n      pop\n        /* \"contracts/ERC721.sol\":7943:7950  spender */\n      dup4\n        /* \"contracts/ERC721.sol\":7919:7950  getApproved(tokenId) == spender */\n      0xffffffffffffffffffffffffffffffffffffffff\n      and\n        /* \"contracts/ERC721.sol\":7919:7939  getApproved(tokenId) */\n      tag_193\n        /* \"contracts/ERC721.sol\":7931:7938  tokenId */\n      dup5\n        /* \"contracts/ERC721.sol\":7919:7930  getApproved */\n      tag_34\n        /* \"contracts/ERC721.sol\":7919:7939  getApproved(tokenId) */\n      jump\t// in\n    tag_193:\n        /* \"contracts/ERC721.sol\":7919:7950  getApproved(tokenId) == spender */\n      0xffffffffffffffffffffffffffffffffffffffff\n      and\n      eq\n        /* \"contracts/ERC721.sol\":7863:7950  spender == owner || isApprovedForAll(owner, spender) || getApproved(tokenId) == spender */\n    tag_192:\n        /* \"contracts/ERC721.sol\":7855:7951  return (spender == owner || isApprovedForAll(owner, spender) || getApproved(tokenId) == spender) */\n      swap2\n      pop\n      pop\n        /* \"contracts/ERC721.sol\":7611:7959  function _isApprovedOrOwner(address spender, uint256 tokenId) internal view virtual returns (bool) {\r... */\n      swap3\n      swap2\n      pop\n      pop\n      jump\t// out\n        /* \"contracts/ERC721.sol\":10716:11341  function _transfer(\r... */\n    tag_125:\n        /* \"contracts/ERC721.sol\":10875:10879  from */\n      dup3\n        /* \"contracts/ERC721.sol\":10848:10879  ERC721.ownerOf(tokenId) == from */\n      0xffffffffffffffffffffffffffffffffffffffff\n      and\n        /* \"contracts/ERC721.sol\":10848:10871  ERC721.ownerOf(tokenId) */\n      tag_195\n        /* \"contracts/ERC721.sol\":10863:10870  tokenId */\n      dup3\n        /* \"contracts/ERC721.sol\":10848:10862  ERC721.ownerOf */\n      tag_50\n        /* \"contracts/ERC721.sol\":10848:10871  ERC721.ownerOf(tokenId) */\n      jump\t// in\n    tag_195:\n        /* \"contracts/ERC721.sol\":10848:10879  ERC721.ownerOf(tokenId) == from */\n      0xffffffffffffffffffffffffffffffffffffffff\n      and\n      eq\n        /* \"contracts/ERC721.sol\":10840:10921  require(ERC721.ownerOf(tokenId) == from, \"ERC721: transfer from incorrect owner\") */\n      tag_196\n      jumpi\n      mload(0x40)\n      0x08c379a000000000000000000000000000000000000000000000000000000000\n      dup2\n      mstore\n      0x04\n      add\n      tag_197\n      swap1\n      tag_198\n      jump\t// in\n    tag_197:\n      mload(0x40)\n      dup1\n      swap2\n      sub\n      swap1\n      revert\n    tag_196:\n        /* \"contracts/ERC721.sol\":10954:10955  0 */\n      0x00\n        /* \"contracts/ERC721.sol\":10940:10956  to != address(0) */\n      0xffffffffffffffffffffffffffffffffffffffff\n      and\n        /* \"contracts/ERC721.sol\":10940:10942  to */\n      dup3\n        /* \"contracts/ERC721.sol\":10940:10956  to != address(0) */\n      0xffffffffffffffffffffffffffffffffffffffff\n      and\n      eq\n      iszero\n        /* \"contracts/ERC721.sol\":10932:10997  require(to != address(0), \"ERC721: transfer to the zero address\") */\n      tag_199\n      jumpi\n      mload(0x40)\n      0x08c379a000000000000000000000000000000000000000000000000000000000\n      dup2\n      mstore\n      0x04\n      add\n      tag_200\n      swap1\n      tag_201\n      jump\t// in\n    tag_200:\n      mload(0x40)\n      dup1\n      swap2\n      sub\n      swap1\n      revert\n    tag_199:\n        /* \"contracts/ERC721.sol\":11010:11049  _beforeTokenTransfer(from, to, tokenId) */\n      tag_202\n        /* \"contracts/ERC721.sol\":11031:11035  from */\n      dup4\n        /* \"contracts/ERC721.sol\":11037:11039  to */\n      dup4\n        /* \"contracts/ERC721.sol\":11041:11048  tokenId */\n      dup4\n        /* \"contracts/ERC721.sol\":11010:11030  _beforeTokenTransfer */\n      tag_145\n        /* \"contracts/ERC721.sol\":11010:11049  _beforeTokenTransfer(from, to, tokenId) */\n      jump\t// in\n    tag_202:\n        /* \"contracts/ERC721.sol\":11114:11143  _approve(address(0), tokenId) */\n      tag_203\n        /* \"contracts/ERC721.sol\":11131:11132  0 */\n      0x00\n        /* \"contracts/ERC721.sol\":11135:11142  tokenId */\n      dup3\n        /* \"contracts/ERC721.sol\":11114:11122  _approve */\n      tag_116\n        /* \"contracts/ERC721.sol\":11114:11143  _approve(address(0), tokenId) */\n      jump\t// in\n    tag_203:\n        /* \"contracts/ERC721.sol\":11175:11176  1 */\n      0x01\n        /* \"contracts/ERC721.sol\":11156:11165  _balances */\n      0x04\n        /* \"contracts/ERC721.sol\":11156:11171  _balances[from] */\n      0x00\n        /* \"contracts/ERC721.sol\":11166:11170  from */\n      dup6\n        /* \"contracts/ERC721.sol\":11156:11171  _balances[from] */\n      0xffffffffffffffffffffffffffffffffffffffff\n      and\n      0xffffffffffffffffffffffffffffffffffffffff\n      and\n      dup2\n      mstore\n      0x20\n      add\n      swap1\n      dup2\n      mstore\n      0x20\n      add\n      0x00\n      keccak256\n      0x00\n        /* \"contracts/ERC721.sol\":11156:11176  _balances[from] -= 1 */\n      dup3\n      dup3\n      sload\n      tag_204\n      swap2\n      swap1\n      tag_148\n      jump\t// in\n    tag_204:\n      swap3\n      pop\n      pop\n      dup2\n      swap1\n      sstore\n      pop\n        /* \"contracts/ERC721.sol\":11204:11205  1 */\n      0x01\n        /* \"contracts/ERC721.sol\":11187:11196  _balances */\n      0x04\n        /* \"contracts/ERC721.sol\":11187:11200  _balances[to] */\n      0x00\n        /* \"contracts/ERC721.sol\":11197:11199  to */\n      dup5\n        /* \"contracts/ERC721.sol\":11187:11200  _balances[to] */\n      0xffffffffffffffffffffffffffffffffffffffff\n      and\n      0xffffffffffffffffffffffffffffffffffffffff\n      and\n      dup2\n      mstore\n      0x20\n      add\n      swap1\n      dup2\n      mstore\n      0x20\n      add\n      0x00\n      keccak256\n      0x00\n        /* \"contracts/ERC721.sol\":11187:11205  _balances[to] += 1 */\n      dup3\n      dup3\n      sload\n      tag_205\n      swap2\n      swap1\n      tag_206\n      jump\t// in\n    tag_205:\n      swap3\n      pop\n      pop\n      dup2\n      swap1\n      sstore\n      pop\n        /* \"contracts/ERC721.sol\":11235:11237  to */\n      dup2\n        /* \"contracts/ERC721.sol\":11216:11223  _owners */\n      0x03\n        /* \"contracts/ERC721.sol\":11216:11232  _owners[tokenId] */\n      0x00\n        /* \"contracts/ERC721.sol\":11224:11231  tokenId */\n      dup4\n        /* \"contracts/ERC721.sol\":11216:11232  _owners[tokenId] */\n      dup2\n      mstore\n      0x20\n      add\n      swap1\n      dup2\n      mstore\n      0x20\n      add\n      0x00\n      keccak256\n      0x00\n        /* \"contracts/ERC721.sol\":11216:11237  _owners[tokenId] = to */\n      0x0100\n      exp\n      dup2\n      sload\n      dup2\n      0xffffffffffffffffffffffffffffffffffffffff\n      mul\n      not\n      and\n      swap1\n      dup4\n      0xffffffffffffffffffffffffffffffffffffffff\n      and\n      mul\n      or\n      swap1\n      sstore\n      pop\n        /* \"contracts/ERC721.sol\":11274:11281  tokenId */\n      dup1\n        /* \"contracts/ERC721.sol\":11270:11272  to */\n      dup3\n        /* \"contracts/ERC721.sol\":11255:11282  Transfer(from, to, tokenId) */\n      0xffffffffffffffffffffffffffffffffffffffff\n      and\n        /* \"contracts/ERC721.sol\":11264:11268  from */\n      dup5\n        /* \"contracts/ERC721.sol\":11255:11282  Transfer(from, to, tokenId) */\n      0xffffffffffffffffffffffffffffffffffffffff\n      and\n      0xddf252ad1be2c89b69c2b068fc378daa952ba7f163c4a11628f55a4df523b3ef\n      mload(0x40)\n      mload(0x40)\n      dup1\n      swap2\n      sub\n      swap1\n      log4\n        /* \"contracts/ERC721.sol\":11295:11333  _afterTokenTransfer(from, to, tokenId) */\n      tag_207\n        /* \"contracts/ERC721.sol\":11315:11319  from */\n      dup4\n        /* \"contracts/ERC721.sol\":11321:11323  to */\n      dup4\n        /* \"contracts/ERC721.sol\":11325:11332  tokenId */\n      dup4\n        /* \"contracts/ERC721.sol\":11295:11314  _afterTokenTransfer */\n      tag_150\n        /* \"contracts/ERC721.sol\":11295:11333  _afterTokenTransfer(from, to, tokenId) */\n      jump\t// in\n    tag_207:\n        /* \"contracts/ERC721.sol\":10716:11341  function _transfer(\r... */\n      pop\n      pop\n      pop\n      jump\t// out\n        /* \"contracts/ERC721.sol\":14026:14152  function _beforeTokenTransfer(\r... */\n    tag_145:\n      pop\n      pop\n      pop\n      jump\t// out\n        /* \"contracts/ERC721.sol\":14537:14662  function _afterTokenTransfer(\r... */\n    tag_150:\n      pop\n      pop\n      pop\n      jump\t// out\n        /* \"contracts/ERC721.sol\":11775:12090  function _setApprovalForAll(\r... */\n    tag_154:\n        /* \"contracts/ERC721.sol\":11930:11938  operator */\n      dup2\n        /* \"contracts/ERC721.sol\":11921:11938  owner != operator */\n      0xffffffffffffffffffffffffffffffffffffffff\n      and\n        /* \"contracts/ERC721.sol\":11921:11926  owner */\n      dup4\n        /* \"contracts/ERC721.sol\":11921:11938  owner != operator */\n      0xffffffffffffffffffffffffffffffffffffffff\n      and\n      eq\n      iszero\n        /* \"contracts/ERC721.sol\":11913:11968  require(owner != operator, \"ERC721: approve to caller\") */\n      tag_211\n      jumpi\n      mload(0x40)\n      0x08c379a000000000000000000000000000000000000000000000000000000000\n      dup2\n      mstore\n      0x04\n      add\n      tag_212\n      swap1\n      tag_213\n      jump\t// in\n    tag_212:\n      mload(0x40)\n      dup1\n      swap2\n      sub\n      swap1\n      revert\n    tag_211:\n        /* \"contracts/ERC721.sol\":12017:12025  approved */\n      dup1\n        /* \"contracts/ERC721.sol\":11979:11997  _operatorApprovals */\n      0x06\n        /* \"contracts/ERC721.sol\":11979:12004  _operatorApprovals[owner] */\n      0x00\n        /* \"contracts/ERC721.sol\":11998:12003  owner */\n      dup6\n        /* \"contracts/ERC721.sol\":11979:12004  _operatorApprovals[owner] */\n      0xffffffffffffffffffffffffffffffffffffffff\n      and\n      0xffffffffffffffffffffffffffffffffffffffff\n      and\n      dup2\n      mstore\n      0x20\n      add\n      swap1\n      dup2\n      mstore\n      0x20\n      add\n      0x00\n      keccak256\n        /* \"contracts/ERC721.sol\":11979:12014  _operatorApprovals[owner][operator] */\n      0x00\n        /* \"contracts/ERC721.sol\":12005:12013  operator */\n      dup5\n        /* \"contracts/ERC721.sol\":11979:12014  _operatorApprovals[owner][operator] */\n      0xffffffffffffffffffffffffffffffffffffffff\n      and\n      0xffffffffffffffffffffffffffffffffffffffff\n      and\n      dup2\n      mstore\n      0x20\n      add\n      swap1\n      dup2\n      mstore\n      0x20\n      add\n      0x00\n      keccak256\n      0x00\n        /* \"contracts/ERC721.sol\":11979:12025  _operatorApprovals[owner][operator] = approved */\n      0x0100\n      exp\n      dup2\n      sload\n      dup2\n      0xff\n      mul\n      not\n      and\n      swap1\n      dup4\n      iszero\n      iszero\n      mul\n      or\n      swap1\n      sstore\n      pop\n        /* \"contracts/ERC721.sol\":12063:12071  operator */\n      dup2\n        /* \"contracts/ERC721.sol\":12041:12082  ApprovalForAll(owner, operator, approved) */\n      0xffffffffffffffffffffffffffffffffffffffff\n      and\n        /* \"contracts/ERC721.sol\":12056:12061  owner */\n      dup4\n        /* \"contracts/ERC721.sol\":12041:12082  ApprovalForAll(owner, operator, approved) */\n      0xffffffffffffffffffffffffffffffffffffffff\n      and\n      0x17307eab39ab6107e8899845ad3d59bd9653f200f220920489ca2b5937696c31\n        /* \"contracts/ERC721.sol\":12073:12081  approved */\n      dup4\n        /* \"contracts/ERC721.sol\":12041:12082  ApprovalForAll(owner, operator, approved) */\n      mload(0x40)\n      tag_214\n      swap2\n      swap1\n      tag_26\n      jump\t// in\n    tag_214:\n      mload(0x40)\n      dup1\n      swap2\n      sub\n      swap1\n      log3\n        /* \"contracts/ERC721.sol\":11775:12090  function _setApprovalForAll(\r... */\n      pop\n      pop\n      pop\n      jump\t// out\n        /* \"contracts/ERC721.sol\":8636:8957  function _safeMint(\r... */\n    tag_157:\n        /* \"contracts/ERC721.sol\":8766:8784  _mint(to, tokenId) */\n      tag_216\n        /* \"contracts/ERC721.sol\":8772:8774  to */\n      dup4\n        /* \"contracts/ERC721.sol\":8776:8783  tokenId */\n      dup4\n        /* \"contracts/ERC721.sol\":8766:8771  _mint */\n      tag_217\n        /* \"contracts/ERC721.sol\":8766:8784  _mint(to, tokenId) */\n      jump\t// in\n    tag_216:\n        /* \"contracts/ERC721.sol\":8817:8871  _checkOnERC721Received(address(0), to, tokenId, _data) */\n      tag_218\n        /* \"contracts/ERC721.sol\":8848:8849  0 */\n      0x00\n        /* \"contracts/ERC721.sol\":8852:8854  to */\n      dup5\n        /* \"contracts/ERC721.sol\":8856:8863  tokenId */\n      dup5\n        /* \"contracts/ERC721.sol\":8865:8870  _data */\n      dup5\n        /* \"contracts/ERC721.sol\":8817:8839  _checkOnERC721Received */\n      tag_219\n        /* \"contracts/ERC721.sol\":8817:8871  _checkOnERC721Received(address(0), to, tokenId, _data) */\n      jump\t// in\n    tag_218:\n        /* \"contracts/ERC721.sol\":8795:8949  require(\r... */\n      tag_220\n      jumpi\n      mload(0x40)\n      0x08c379a000000000000000000000000000000000000000000000000000000000\n      dup2\n      mstore\n      0x04\n      add\n      tag_221\n      swap1\n      tag_222\n      jump\t// in\n    tag_221:\n      mload(0x40)\n      dup1\n      swap2\n      sub\n      swap1\n      revert\n    tag_220:\n        /* \"contracts/ERC721.sol\":8636:8957  function _safeMint(\r... */\n      pop\n      pop\n      pop\n      jump\t// out\n        /* \"contracts/ERC721.sol\":6689:7004  function _safeTransfer(\r... */\n    tag_164:\n        /* \"contracts/ERC721.sol\":6846:6874  _transfer(from, to, tokenId) */\n      tag_224\n        /* \"contracts/ERC721.sol\":6856:6860  from */\n      dup5\n        /* \"contracts/ERC721.sol\":6862:6864  to */\n      dup5\n        /* \"contracts/ERC721.sol\":6866:6873  tokenId */\n      dup5\n        /* \"contracts/ERC721.sol\":6846:6855  _transfer */\n      tag_125\n        /* \"contracts/ERC721.sol\":6846:6874  _transfer(from, to, tokenId) */\n      jump\t// in\n    tag_224:\n        /* \"contracts/ERC721.sol\":6893:6941  _checkOnERC721Received(from, to, tokenId, _data) */\n      tag_225\n        /* \"contracts/ERC721.sol\":6916:6920  from */\n      dup5\n        /* \"contracts/ERC721.sol\":6922:6924  to */\n      dup5\n        /* \"contracts/ERC721.sol\":6926:6933  tokenId */\n      dup5\n        /* \"contracts/ERC721.sol\":6935:6940  _data */\n      dup5\n        /* \"contracts/ERC721.sol\":6893:6915  _checkOnERC721Received */\n      tag_219\n        /* \"contracts/ERC721.sol\":6893:6941  _checkOnERC721Received(from, to, tokenId, _data) */\n      jump\t// in\n    tag_225:\n        /* \"contracts/ERC721.sol\":6885:6996  require(_checkOnERC721Received(from, to, tokenId, _data), \"ERC721: transfer to non ERC721Receiver implementer\") */\n      tag_226\n      jumpi\n      mload(0x40)\n      0x08c379a000000000000000000000000000000000000000000000000000000000\n      dup2\n      mstore\n      0x04\n      add\n      tag_227\n      swap1\n      tag_222\n      jump\t// in\n    tag_227:\n      mload(0x40)\n      dup1\n      swap2\n      sub\n      swap1\n      revert\n    tag_226:\n        /* \"contracts/ERC721.sol\":6689:7004  function _safeTransfer(\r... */\n      pop\n      pop\n      pop\n      pop\n      jump\t// out\n        /* \"contracts/ERC721.sol\":3430:3524  function _baseURI() internal view virtual returns (string memory) {\r... */\n    tag_171:\n        /* \"contracts/ERC721.sol\":3481:3494  string memory */\n      0x60\n        /* \"contracts/ERC721.sol\":3507:3516  return \"\" */\n      mload(0x40)\n      dup1\n      0x20\n      add\n      0x40\n      mstore\n      dup1\n      0x00\n      dup2\n      mstore\n      pop\n      swap1\n      pop\n        /* \"contracts/ERC721.sol\":3430:3524  function _baseURI() internal view virtual returns (string memory) {\r... */\n      swap1\n      jump\t// out\n        /* \"contracts/Strings.sol\":342:1065  function toString(uint256 value) internal pure returns (string memory) {\r... */\n    tag_175:\n        /* \"contracts/Strings.sol\":398:411  string memory */\n      0x60\n        /* \"contracts/Strings.sol\":628:629  0 */\n      0x00\n        /* \"contracts/Strings.sol\":619:624  value */\n      dup3\n        /* \"contracts/Strings.sol\":619:629  value == 0 */\n      eq\n        /* \"contracts/Strings.sol\":615:668  if (value == 0) {\r... */\n      iszero\n      tag_230\n      jumpi\n        /* \"contracts/Strings.sol\":646:656  return \"0\" */\n      mload(0x40)\n      dup1\n      0x40\n      add\n      0x40\n      mstore\n      dup1\n      0x01\n      dup2\n      mstore\n      0x20\n      add\n      0x3000000000000000000000000000000000000000000000000000000000000000\n      dup2\n      mstore\n      pop\n      swap1\n      pop\n      jump(tag_229)\n        /* \"contracts/Strings.sol\":615:668  if (value == 0) {\r... */\n    tag_230:\n        /* \"contracts/Strings.sol\":678:690  uint256 temp */\n      0x00\n        /* \"contracts/Strings.sol\":693:698  value */\n      dup3\n        /* \"contracts/Strings.sol\":678:698  uint256 temp = value */\n      swap1\n      pop\n        /* \"contracts/Strings.sol\":709:723  uint256 digits */\n      0x00\n        /* \"contracts/Strings.sol\":734:812  while (temp != 0) {\r... */\n    tag_231:\n        /* \"contracts/Strings.sol\":749:750  0 */\n      0x00\n        /* \"contracts/Strings.sol\":741:745  temp */\n      dup3\n        /* \"contracts/Strings.sol\":741:750  temp != 0 */\n      eq\n        /* \"contracts/Strings.sol\":734:812  while (temp != 0) {\r... */\n      tag_232\n      jumpi\n        /* \"contracts/Strings.sol\":767:775  digits++ */\n      dup1\n      dup1\n      tag_233\n      swap1\n      tag_234\n      jump\t// in\n    tag_233:\n      swap2\n      pop\n      pop\n        /* \"contracts/Strings.sol\":798:800  10 */\n      0x0a\n        /* \"contracts/Strings.sol\":790:800  temp /= 10 */\n      dup3\n      tag_235\n      swap2\n      swap1\n      tag_236\n      jump\t// in\n    tag_235:\n      swap2\n      pop\n        /* \"contracts/Strings.sol\":734:812  while (temp != 0) {\r... */\n      jump(tag_231)\n    tag_232:\n        /* \"contracts/Strings.sol\":822:841  bytes memory buffer */\n      0x00\n        /* \"contracts/Strings.sol\":854:860  digits */\n      dup2\n        /* \"contracts/Strings.sol\":844:861  new bytes(digits) */\n      0xffffffffffffffff\n      dup2\n      gt\n      iszero\n      tag_237\n      jumpi\n      tag_238\n      tag_239\n      jump\t// in\n    tag_238:\n    tag_237:\n      mload(0x40)\n      swap1\n      dup1\n      dup3\n      mstore\n      dup1\n      0x1f\n      add\n      not(0x1f)\n      and\n      0x20\n      add\n      dup3\n      add\n      0x40\n      mstore\n      dup1\n      iszero\n      tag_240\n      jumpi\n      dup2\n      0x20\n      add\n      0x01\n      dup3\n      mul\n      dup1\n      calldatasize\n      dup4\n      calldatacopy\n      dup1\n      dup3\n      add\n      swap2\n      pop\n      pop\n      swap1\n      pop\n    tag_240:\n      pop\n        /* \"contracts/Strings.sol\":822:861  bytes memory buffer = new bytes(digits) */\n      swap1\n      pop\n        /* \"contracts/Strings.sol\":872:1026  while (value != 0) {\r... */\n    tag_241:\n        /* \"contracts/Strings.sol\":888:889  0 */\n      0x00\n        /* \"contracts/Strings.sol\":879:884  value */\n      dup6\n        /* \"contracts/Strings.sol\":879:889  value != 0 */\n      eq\n        /* \"contracts/Strings.sol\":872:1026  while (value != 0) {\r... */\n      tag_242\n      jumpi\n        /* \"contracts/Strings.sol\":916:917  1 */\n      0x01\n        /* \"contracts/Strings.sol\":906:917  digits -= 1 */\n      dup3\n      tag_243\n      swap2\n      swap1\n      tag_148\n      jump\t// in\n    tag_243:\n      swap2\n      pop\n        /* \"contracts/Strings.sol\":983:985  10 */\n      0x0a\n        /* \"contracts/Strings.sol\":975:980  value */\n      dup6\n        /* \"contracts/Strings.sol\":975:985  value % 10 */\n      tag_244\n      swap2\n      swap1\n      tag_245\n      jump\t// in\n    tag_244:\n        /* \"contracts/Strings.sol\":962:964  48 */\n      0x30\n        /* \"contracts/Strings.sol\":962:986  48 + uint256(value % 10) */\n      tag_246\n      swap2\n      swap1\n      tag_206\n      jump\t// in\n    tag_246:\n        /* \"contracts/Strings.sol\":949:988  bytes1(uint8(48 + uint256(value % 10))) */\n      0xf8\n      shl\n        /* \"contracts/Strings.sol\":932:938  buffer */\n      dup2\n        /* \"contracts/Strings.sol\":939:945  digits */\n      dup4\n        /* \"contracts/Strings.sol\":932:946  buffer[digits] */\n      dup2\n      mload\n      dup2\n      lt\n      tag_247\n      jumpi\n      tag_248\n      tag_249\n      jump\t// in\n    tag_248:\n    tag_247:\n      0x20\n      add\n      add\n        /* \"contracts/Strings.sol\":932:988  buffer[digits] = bytes1(uint8(48 + uint256(value % 10))) */\n      swap1\n      not(0xffffffffffffffffffffffffffffffffffffffffffffffffffffffffffffff)\n      and\n      swap1\n      dup2\n      0x00\n      byte\n      swap1\n      mstore8\n      pop\n        /* \"contracts/Strings.sol\":1012:1014  10 */\n      0x0a\n        /* \"contracts/Strings.sol\":1003:1014  value /= 10 */\n      dup6\n      tag_250\n      swap2\n      swap1\n      tag_236\n      jump\t// in\n    tag_250:\n      swap5\n      pop\n        /* \"contracts/Strings.sol\":872:1026  while (value != 0) {\r... */\n      jump(tag_241)\n    tag_242:\n        /* \"contracts/Strings.sol\":1050:1056  buffer */\n      dup1\n        /* \"contracts/Strings.sol\":1036:1057  return string(buffer) */\n      swap4\n      pop\n      pop\n      pop\n      pop\n        /* \"contracts/Strings.sol\":342:1065  function toString(uint256 value) internal pure returns (string memory) {\r... */\n    tag_229:\n      swap2\n      swap1\n      pop\n      jump\t// out\n        /* \"contracts/ERC721.sol\":9293:9732  function _mint(address to, uint256 tokenId) internal virtual {\r... */\n    tag_217:\n        /* \"contracts/ERC721.sol\":9387:9388  0 */\n      0x00\n        /* \"contracts/ERC721.sol\":9373:9389  to != address(0) */\n      0xffffffffffffffffffffffffffffffffffffffff\n      and\n        /* \"contracts/ERC721.sol\":9373:9375  to */\n      dup3\n        /* \"contracts/ERC721.sol\":9373:9389  to != address(0) */\n      0xffffffffffffffffffffffffffffffffffffffff\n      and\n      eq\n      iszero\n        /* \"contracts/ERC721.sol\":9365:9426  require(to != address(0), \"ERC721: mint to the zero address\") */\n      tag_252\n      jumpi\n      mload(0x40)\n      0x08c379a000000000000000000000000000000000000000000000000000000000\n      dup2\n      mstore\n      0x04\n      add\n      tag_253\n      swap1\n      tag_254\n      jump\t// in\n    tag_253:\n      mload(0x40)\n      dup1\n      swap2\n      sub\n      swap1\n      revert\n    tag_252:\n        /* \"contracts/ERC721.sol\":9446:9462  _exists(tokenId) */\n      tag_255\n        /* \"contracts/ERC721.sol\":9454:9461  tokenId */\n      dup2\n        /* \"contracts/ERC721.sol\":9446:9453  _exists */\n      tag_98\n        /* \"contracts/ERC721.sol\":9446:9462  _exists(tokenId) */\n      jump\t// in\n    tag_255:\n        /* \"contracts/ERC721.sol\":9445:9462  !_exists(tokenId) */\n      iszero\n        /* \"contracts/ERC721.sol\":9437:9495  require(!_exists(tokenId), \"ERC721: token already minted\") */\n      tag_256\n      jumpi\n      mload(0x40)\n      0x08c379a000000000000000000000000000000000000000000000000000000000\n      dup2\n      mstore\n      0x04\n      add\n      tag_257\n      swap1\n      tag_258\n      jump\t// in\n    tag_257:\n      mload(0x40)\n      dup1\n      swap2\n      sub\n      swap1\n      revert\n    tag_256:\n        /* \"contracts/ERC721.sol\":9508:9553  _beforeTokenTransfer(address(0), to, tokenId) */\n      tag_259\n        /* \"contracts/ERC721.sol\":9537:9538  0 */\n      0x00\n        /* \"contracts/ERC721.sol\":9541:9543  to */\n      dup4\n        /* \"contracts/ERC721.sol\":9545:9552  tokenId */\n      dup4\n        /* \"contracts/ERC721.sol\":9508:9528  _beforeTokenTransfer */\n      tag_145\n        /* \"contracts/ERC721.sol\":9508:9553  _beforeTokenTransfer(address(0), to, tokenId) */\n      jump\t// in\n    tag_259:\n        /* \"contracts/ERC721.sol\":9583:9584  1 */\n      0x01\n        /* \"contracts/ERC721.sol\":9566:9575  _balances */\n      0x04\n        /* \"contracts/ERC721.sol\":9566:9579  _balances[to] */\n      0x00\n        /* \"contracts/ERC721.sol\":9576:9578  to */\n      dup5\n        /* \"contracts/ERC721.sol\":9566:9579  _balances[to] */\n      0xffffffffffffffffffffffffffffffffffffffff\n      and\n      0xffffffffffffffffffffffffffffffffffffffff\n      and\n      dup2\n      mstore\n      0x20\n      add\n      swap1\n      dup2\n      mstore\n      0x20\n      add\n      0x00\n      keccak256\n      0x00\n        /* \"contracts/ERC721.sol\":9566:9584  _balances[to] += 1 */\n      dup3\n      dup3\n      sload\n      tag_260\n      swap2\n      swap1\n      tag_206\n      jump\t// in\n    tag_260:\n      swap3\n      pop\n      pop\n      dup2\n      swap1\n      sstore\n      pop\n        /* \"contracts/ERC721.sol\":9614:9616  to */\n      dup2\n        /* \"contracts/ERC721.sol\":9595:9602  _owners */\n      0x03\n        /* \"contracts/ERC721.sol\":9595:9611  _owners[tokenId] */\n      0x00\n        /* \"contracts/ERC721.sol\":9603:9610  tokenId */\n      dup4\n        /* \"contracts/ERC721.sol\":9595:9611  _owners[tokenId] */\n      dup2\n      mstore\n      0x20\n      add\n      swap1\n      dup2\n      mstore\n      0x20\n      add\n      0x00\n      keccak256\n      0x00\n        /* \"contracts/ERC721.sol\":9595:9616  _owners[tokenId] = to */\n      0x0100\n      exp\n      dup2\n      sload\n      dup2\n      0xffffffffffffffffffffffffffffffffffffffff\n      mul\n      not\n      and\n      swap1\n      dup4\n      0xffffffffffffffffffffffffffffffffffffffff\n      and\n      mul\n      or\n      swap1\n      sstore\n      pop\n        /* \"contracts/ERC721.sol\":9659:9666  tokenId */\n      dup1\n        /* \"contracts/ERC721.sol\":9655:9657  to */\n      dup3\n        /* \"contracts/ERC721.sol\":9634:9667  Transfer(address(0), to, tokenId) */\n      0xffffffffffffffffffffffffffffffffffffffff\n      and\n        /* \"contracts/ERC721.sol\":9651:9652  0 */\n      0x00\n        /* \"contracts/ERC721.sol\":9634:9667  Transfer(address(0), to, tokenId) */\n      0xffffffffffffffffffffffffffffffffffffffff\n      and\n      0xddf252ad1be2c89b69c2b068fc378daa952ba7f163c4a11628f55a4df523b3ef\n      mload(0x40)\n      mload(0x40)\n      dup1\n      swap2\n      sub\n      swap1\n      log4\n        /* \"contracts/ERC721.sol\":9680:9724  _afterTokenTransfer(address(0), to, tokenId) */\n      tag_261\n        /* \"contracts/ERC721.sol\":9708:9709  0 */\n      0x00\n        /* \"contracts/ERC721.sol\":9712:9714  to */\n      dup4\n        /* \"contracts/ERC721.sol\":9716:9723  tokenId */\n      dup4\n        /* \"contracts/ERC721.sol\":9680:9699  _afterTokenTransfer */\n      tag_150\n        /* \"contracts/ERC721.sol\":9680:9724  _afterTokenTransfer(address(0), to, tokenId) */\n      jump\t// in\n    tag_261:\n        /* \"contracts/ERC721.sol\":9293:9732  function _mint(address to, uint256 tokenId) internal virtual {\r... */\n      pop\n      pop\n      jump\t// out\n        /* \"contracts/ERC721.sol\":12655:13454  function _checkOnERC721Received(\r... */\n    tag_219:\n        /* \"contracts/ERC721.sol\":12810:12814  bool */\n      0x00\n        /* \"contracts/ERC721.sol\":12831:12846  to.isContract() */\n      tag_263\n        /* \"contracts/ERC721.sol\":12831:12833  to */\n      dup5\n        /* \"contracts/ERC721.sol\":12831:12844  to.isContract */\n      0xffffffffffffffffffffffffffffffffffffffff\n      and\n      tag_264\n        /* \"contracts/ERC721.sol\":12831:12846  to.isContract() */\n      jump\t// in\n    tag_263:\n        /* \"contracts/ERC721.sol\":12827:13447  if (to.isContract()) {\r... */\n      iszero\n      tag_265\n      jumpi\n        /* \"contracts/ERC721.sol\":12883:12885  to */\n      dup4\n        /* \"contracts/ERC721.sol\":12867:12903  IERC721Receiver(to).onERC721Received */\n      0xffffffffffffffffffffffffffffffffffffffff\n      and\n      0x150b7a02\n        /* \"contracts/ERC721.sol\":12904:12916  _msgSender() */\n      tag_266\n        /* \"contracts/ERC721.sol\":12904:12914  _msgSender */\n      tag_108\n        /* \"contracts/ERC721.sol\":12904:12916  _msgSender() */\n      jump\t// in\n    tag_266:\n        /* \"contracts/ERC721.sol\":12918:12922  from */\n      dup8\n        /* \"contracts/ERC721.sol\":12924:12931  tokenId */\n      dup7\n        /* \"contracts/ERC721.sol\":12933:12938  _data */\n      dup7\n        /* \"contracts/ERC721.sol\":12867:12939  IERC721Receiver(to).onERC721Received(_msgSender(), from, tokenId, _data) */\n      mload(0x40)\n      dup6\n      0xffffffff\n      and\n      0xe0\n      shl\n      dup2\n      mstore\n      0x04\n      add\n      tag_267\n      swap5\n      swap4\n      swap3\n      swap2\n      swap1\n      tag_268\n      jump\t// in\n    tag_267:\n      0x20\n      mload(0x40)\n      dup1\n      dup4\n      sub\n      dup2\n      0x00\n      dup8\n      dup1\n      extcodesize\n      iszero\n      dup1\n      iszero\n      tag_269\n      jumpi\n      0x00\n      dup1\n      revert\n    tag_269:\n      pop\n      gas\n      call\n      swap3\n      pop\n      pop\n      pop\n      dup1\n      iszero\n      tag_270\n      jumpi\n      pop\n      mload(0x40)\n      returndatasize\n      not(0x1f)\n      0x1f\n      dup3\n      add\n      and\n      dup3\n      add\n      dup1\n      0x40\n      mstore\n      pop\n      dup2\n      add\n      swap1\n      tag_271\n      swap2\n      swap1\n      tag_272\n      jump\t// in\n    tag_271:\n      0x01\n    tag_270:\n        /* \"contracts/ERC721.sol\":12863:13392  try IERC721Receiver(to).onERC721Received(_msgSender(), from, tokenId, _data) returns (bytes4 retval) {\r... */\n      tag_273\n      jumpi\n      returndatasize\n      dup1\n      0x00\n      dup2\n      eq\n      tag_278\n      jumpi\n      mload(0x40)\n      swap2\n      pop\n      and(add(returndatasize, 0x3f), not(0x1f))\n      dup3\n      add\n      0x40\n      mstore\n      returndatasize\n      dup3\n      mstore\n      returndatasize\n      0x00\n      0x20\n      dup5\n      add\n      returndatacopy\n      jump(tag_277)\n    tag_278:\n      0x60\n      swap2\n      pop\n    tag_277:\n      pop\n        /* \"contracts/ERC721.sol\":13126:13127  0 */\n      0x00\n        /* \"contracts/ERC721.sol\":13109:13115  reason */\n      dup2\n        /* \"contracts/ERC721.sol\":13109:13122  reason.length */\n      mload\n        /* \"contracts/ERC721.sol\":13109:13127  reason.length == 0 */\n      eq\n        /* \"contracts/ERC721.sol\":13105:13377  if (reason.length == 0) {\r... */\n      iszero\n      tag_279\n      jumpi\n        /* \"contracts/ERC721.sol\":13152:13212  revert(\"ERC721: transfer to non ERC721Receiver implementer\") */\n      mload(0x40)\n      0x08c379a000000000000000000000000000000000000000000000000000000000\n      dup2\n      mstore\n      0x04\n      add\n      tag_280\n      swap1\n      tag_222\n      jump\t// in\n    tag_280:\n      mload(0x40)\n      dup1\n      swap2\n      sub\n      swap1\n      revert\n        /* \"contracts/ERC721.sol\":13105:13377  if (reason.length == 0) {\r... */\n    tag_279:\n        /* \"contracts/ERC721.sol\":13327:13333  reason */\n      dup1\n        /* \"contracts/ERC721.sol\":13321:13334  mload(reason) */\n      mload\n        /* \"contracts/ERC721.sol\":13312:13318  reason */\n      dup2\n        /* \"contracts/ERC721.sol\":13308:13310  32 */\n      0x20\n        /* \"contracts/ERC721.sol\":13304:13319  add(32, reason) */\n      add\n        /* \"contracts/ERC721.sol\":13297:13335  revert(add(32, reason), mload(reason)) */\n      revert\n        /* \"contracts/ERC721.sol\":12863:13392  try IERC721Receiver(to).onERC721Received(_msgSender(), from, tokenId, _data) returns (bytes4 retval) {\r... */\n    tag_273:\n        /* \"contracts/ERC721.sol\":13000:13041  IERC721Receiver.onERC721Received.selector */\n      shl(0xe0, 0x150b7a02)\n        /* \"contracts/ERC721.sol\":12990:13041  retval == IERC721Receiver.onERC721Received.selector */\n      not(0xffffffffffffffffffffffffffffffffffffffffffffffffffffffff)\n      and\n        /* \"contracts/ERC721.sol\":12990:12996  retval */\n      dup2\n        /* \"contracts/ERC721.sol\":12990:13041  retval == IERC721Receiver.onERC721Received.selector */\n      not(0xffffffffffffffffffffffffffffffffffffffffffffffffffffffff)\n      and\n      eq\n        /* \"contracts/ERC721.sol\":12983:13041  return retval == IERC721Receiver.onERC721Received.selector */\n      swap2\n      pop\n      pop\n      jump(tag_262)\n        /* \"contracts/ERC721.sol\":12827:13447  if (to.isContract()) {\r... */\n    tag_265:\n        /* \"contracts/ERC721.sol\":13431:13435  true */\n      0x01\n        /* \"contracts/ERC721.sol\":13424:13435  return true */\n      swap1\n      pop\n        /* \"contracts/ERC721.sol\":12655:13454  function _checkOnERC721Received(\r... */\n    tag_262:\n      swap5\n      swap4\n      pop\n      pop\n      pop\n      pop\n      jump\t// out\n        /* \"contracts/Address.sol\":1210:1536  function isContract(address account) internal view returns (bool) {\r... */\n    tag_264:\n        /* \"contracts/Address.sol\":1270:1274  bool */\n      0x00\n        /* \"contracts/Address.sol\":1527:1528  0 */\n      dup1\n        /* \"contracts/Address.sol\":1505:1512  account */\n      dup3\n        /* \"contracts/Address.sol\":1505:1524  account.code.length */\n      0xffffffffffffffffffffffffffffffffffffffff\n      and\n      extcodesize\n        /* \"contracts/Address.sol\":1505:1528  account.code.length > 0 */\n      gt\n        /* \"contracts/Address.sol\":1498:1528  return account.code.length > 0 */\n      swap1\n      pop\n        /* \"contracts/Address.sol\":1210:1536  function isContract(address account) internal view returns (bool) {\r... */\n      swap2\n      swap1\n      pop\n      jump\t// out\n        /* \"#utility.yul\":7:417   */\n    tag_286:\n        /* \"#utility.yul\":84:89   */\n      0x00\n        /* \"#utility.yul\":109:174   */\n      tag_288\n        /* \"#utility.yul\":125:173   */\n      tag_289\n        /* \"#utility.yul\":166:172   */\n      dup5\n        /* \"#utility.yul\":125:173   */\n      tag_290\n      jump\t// in\n    tag_289:\n        /* \"#utility.yul\":109:174   */\n      tag_291\n      jump\t// in\n    tag_288:\n        /* \"#utility.yul\":100:174   */\n      swap1\n      pop\n        /* \"#utility.yul\":197:203   */\n      dup3\n        /* \"#utility.yul\":190:195   */\n      dup2\n        /* \"#utility.yul\":183:204   */\n      mstore\n        /* \"#utility.yul\":235:239   */\n      0x20\n        /* \"#utility.yul\":228:233   */\n      dup2\n        /* \"#utility.yul\":224:240   */\n      add\n        /* \"#utility.yul\":273:276   */\n      dup5\n        /* \"#utility.yul\":264:270   */\n      dup5\n        /* \"#utility.yul\":259:262   */\n      dup5\n        /* \"#utility.yul\":255:271   */\n      add\n        /* \"#utility.yul\":252:277   */\n      gt\n        /* \"#utility.yul\":249:361   */\n      iszero\n      tag_292\n      jumpi\n        /* \"#utility.yul\":280:359   */\n      tag_293\n      tag_294\n      jump\t// in\n    tag_293:\n        /* \"#utility.yul\":249:361   */\n    tag_292:\n        /* \"#utility.yul\":370:411   */\n      tag_295\n        /* \"#utility.yul\":404:410   */\n      dup5\n        /* \"#utility.yul\":399:402   */\n      dup3\n        /* \"#utility.yul\":394:397   */\n      dup6\n        /* \"#utility.yul\":370:411   */\n      tag_296\n      jump\t// in\n    tag_295:\n        /* \"#utility.yul\":90:417   */\n      pop\n        /* \"#utility.yul\":7:417   */\n      swap4\n      swap3\n      pop\n      pop\n      pop\n      jump\t// out\n        /* \"#utility.yul\":423:562   */\n    tag_297:\n        /* \"#utility.yul\":469:474   */\n      0x00\n        /* \"#utility.yul\":507:513   */\n      dup2\n        /* \"#utility.yul\":494:514   */\n      calldataload\n        /* \"#utility.yul\":485:514   */\n      swap1\n      pop\n        /* \"#utility.yul\":523:556   */\n      tag_299\n        /* \"#utility.yul\":550:555   */\n      dup2\n        /* \"#utility.yul\":523:556   */\n      tag_300\n      jump\t// in\n    tag_299:\n        /* \"#utility.yul\":423:562   */\n      swap3\n      swap2\n      pop\n      pop\n      jump\t// out\n        /* \"#utility.yul\":568:701   */\n    tag_301:\n        /* \"#utility.yul\":611:616   */\n      0x00\n        /* \"#utility.yul\":649:655   */\n      dup2\n        /* \"#utility.yul\":636:656   */\n      calldataload\n        /* \"#utility.yul\":627:656   */\n      swap1\n      pop\n        /* \"#utility.yul\":665:695   */\n      tag_303\n        /* \"#utility.yul\":689:694   */\n      dup2\n        /* \"#utility.yul\":665:695   */\n      tag_304\n      jump\t// in\n    tag_303:\n        /* \"#utility.yul\":568:701   */\n      swap3\n      swap2\n      pop\n      pop\n      jump\t// out\n        /* \"#utility.yul\":707:844   */\n    tag_305:\n        /* \"#utility.yul\":752:757   */\n      0x00\n        /* \"#utility.yul\":790:796   */\n      dup2\n        /* \"#utility.yul\":777:797   */\n      calldataload\n        /* \"#utility.yul\":768:797   */\n      swap1\n      pop\n        /* \"#utility.yul\":806:838   */\n      tag_307\n        /* \"#utility.yul\":832:837   */\n      dup2\n        /* \"#utility.yul\":806:838   */\n      tag_308\n      jump\t// in\n    tag_307:\n        /* \"#utility.yul\":707:844   */\n      swap3\n      swap2\n      pop\n      pop\n      jump\t// out\n        /* \"#utility.yul\":850:991   */\n    tag_309:\n        /* \"#utility.yul\":906:911   */\n      0x00\n        /* \"#utility.yul\":937:943   */\n      dup2\n        /* \"#utility.yul\":931:944   */\n      mload\n        /* \"#utility.yul\":922:944   */\n      swap1\n      pop\n        /* \"#utility.yul\":953:985   */\n      tag_311\n        /* \"#utility.yul\":979:984   */\n      dup2\n        /* \"#utility.yul\":953:985   */\n      tag_308\n      jump\t// in\n    tag_311:\n        /* \"#utility.yul\":850:991   */\n      swap3\n      swap2\n      pop\n      pop\n      jump\t// out\n        /* \"#utility.yul\":1010:1348   */\n    tag_312:\n        /* \"#utility.yul\":1065:1070   */\n      0x00\n        /* \"#utility.yul\":1114:1117   */\n      dup3\n        /* \"#utility.yul\":1107:1111   */\n      0x1f\n        /* \"#utility.yul\":1099:1105   */\n      dup4\n        /* \"#utility.yul\":1095:1112   */\n      add\n        /* \"#utility.yul\":1091:1118   */\n      slt\n        /* \"#utility.yul\":1081:1203   */\n      tag_314\n      jumpi\n        /* \"#utility.yul\":1122:1201   */\n      tag_315\n      tag_316\n      jump\t// in\n    tag_315:\n        /* \"#utility.yul\":1081:1203   */\n    tag_314:\n        /* \"#utility.yul\":1239:1245   */\n      dup2\n        /* \"#utility.yul\":1226:1246   */\n      calldataload\n        /* \"#utility.yul\":1264:1342   */\n      tag_317\n        /* \"#utility.yul\":1338:1341   */\n      dup5\n        /* \"#utility.yul\":1330:1336   */\n      dup3\n        /* \"#utility.yul\":1323:1327   */\n      0x20\n        /* \"#utility.yul\":1315:1321   */\n      dup7\n        /* \"#utility.yul\":1311:1328   */\n      add\n        /* \"#utility.yul\":1264:1342   */\n      tag_286\n      jump\t// in\n    tag_317:\n        /* \"#utility.yul\":1255:1342   */\n      swap2\n      pop\n        /* \"#utility.yul\":1071:1348   */\n      pop\n        /* \"#utility.yul\":1010:1348   */\n      swap3\n      swap2\n      pop\n      pop\n      jump\t// out\n        /* \"#utility.yul\":1354:1493   */\n    tag_318:\n        /* \"#utility.yul\":1400:1405   */\n      0x00\n        /* \"#utility.yul\":1438:1444   */\n      dup2\n        /* \"#utility.yul\":1425:1445   */\n      calldataload\n        /* \"#utility.yul\":1416:1445   */\n      swap1\n      pop\n        /* \"#utility.yul\":1454:1487   */\n      tag_320\n        /* \"#utility.yul\":1481:1486   */\n      dup2\n        /* \"#utility.yul\":1454:1487   */\n      tag_321\n      jump\t// in\n    tag_320:\n        /* \"#utility.yul\":1354:1493   */\n      swap3\n      swap2\n      pop\n      pop\n      jump\t// out\n        /* \"#utility.yul\":1499:1828   */\n    tag_54:\n        /* \"#utility.yul\":1558:1564   */\n      0x00\n        /* \"#utility.yul\":1607:1609   */\n      0x20\n        /* \"#utility.yul\":1595:1604   */\n      dup3\n        /* \"#utility.yul\":1586:1593   */\n      dup5\n        /* \"#utility.yul\":1582:1605   */\n      sub\n        /* \"#utility.yul\":1578:1610   */\n      slt\n        /* \"#utility.yul\":1575:1694   */\n      iszero\n      tag_323\n      jumpi\n        /* \"#utility.yul\":1613:1692   */\n      tag_324\n      tag_325\n      jump\t// in\n    tag_324:\n        /* \"#utility.yul\":1575:1694   */\n    tag_323:\n        /* \"#utility.yul\":1733:1734   */\n      0x00\n        /* \"#utility.yul\":1758:1811   */\n      tag_326\n        /* \"#utility.yul\":1803:1810   */\n      dup5\n        /* \"#utility.yul\":1794:1800   */\n      dup3\n        /* \"#utility.yul\":1783:1792   */\n      dup6\n        /* \"#utility.yul\":1779:1801   */\n      add\n        /* \"#utility.yul\":1758:1811   */\n      tag_297\n      jump\t// in\n    tag_326:\n        /* \"#utility.yul\":1748:1811   */\n      swap2\n      pop\n        /* \"#utility.yul\":1704:1821   */\n      pop\n        /* \"#utility.yul\":1499:1828   */\n      swap3\n      swap2\n      pop\n      pop\n      jump\t// out\n        /* \"#utility.yul\":1834:2308   */\n    tag_81:\n        /* \"#utility.yul\":1902:1908   */\n      0x00\n        /* \"#utility.yul\":1910:1916   */\n      dup1\n        /* \"#utility.yul\":1959:1961   */\n      0x40\n        /* \"#utility.yul\":1947:1956   */\n      dup4\n        /* \"#utility.yul\":1938:1945   */\n      dup6\n        /* \"#utility.yul\":1934:1957   */\n      sub\n        /* \"#utility.yul\":1930:1962   */\n      slt\n        /* \"#utility.yul\":1927:2046   */\n      iszero\n      tag_328\n      jumpi\n        /* \"#utility.yul\":1965:2044   */\n      tag_329\n      tag_325\n      jump\t// in\n    tag_329:\n        /* \"#utility.yul\":1927:2046   */\n    tag_328:\n        /* \"#utility.yul\":2085:2086   */\n      0x00\n        /* \"#utility.yul\":2110:2163   */\n      tag_330\n        /* \"#utility.yul\":2155:2162   */\n      dup6\n        /* \"#utility.yul\":2146:2152   */\n      dup3\n        /* \"#utility.yul\":2135:2144   */\n      dup7\n        /* \"#utility.yul\":2131:2153   */\n      add\n        /* \"#utility.yul\":2110:2163   */\n      tag_297\n      jump\t// in\n    tag_330:\n        /* \"#utility.yul\":2100:2163   */\n      swap3\n      pop\n        /* \"#utility.yul\":2056:2173   */\n      pop\n        /* \"#utility.yul\":2212:2214   */\n      0x20\n        /* \"#utility.yul\":2238:2291   */\n      tag_331\n        /* \"#utility.yul\":2283:2290   */\n      dup6\n        /* \"#utility.yul\":2274:2280   */\n      dup3\n        /* \"#utility.yul\":2263:2272   */\n      dup7\n        /* \"#utility.yul\":2259:2281   */\n      add\n        /* \"#utility.yul\":2238:2291   */\n      tag_297\n      jump\t// in\n    tag_331:\n        /* \"#utility.yul\":2228:2291   */\n      swap2\n      pop\n        /* \"#utility.yul\":2183:2301   */\n      pop\n        /* \"#utility.yul\":1834:2308   */\n      swap3\n      pop\n      swap3\n      swap1\n      pop\n      jump\t// out\n        /* \"#utility.yul\":2314:2933   */\n    tag_43:\n        /* \"#utility.yul\":2391:2397   */\n      0x00\n        /* \"#utility.yul\":2399:2405   */\n      dup1\n        /* \"#utility.yul\":2407:2413   */\n      0x00\n        /* \"#utility.yul\":2456:2458   */\n      0x60\n        /* \"#utility.yul\":2444:2453   */\n      dup5\n        /* \"#utility.yul\":2435:2442   */\n      dup7\n        /* \"#utility.yul\":2431:2454   */\n      sub\n        /* \"#utility.yul\":2427:2459   */\n      slt\n        /* \"#utility.yul\":2424:2543   */\n      iszero\n      tag_333\n      jumpi\n        /* \"#utility.yul\":2462:2541   */\n      tag_334\n      tag_325\n      jump\t// in\n    tag_334:\n        /* \"#utility.yul\":2424:2543   */\n    tag_333:\n        /* \"#utility.yul\":2582:2583   */\n      0x00\n        /* \"#utility.yul\":2607:2660   */\n      tag_335\n        /* \"#utility.yul\":2652:2659   */\n      dup7\n        /* \"#utility.yul\":2643:2649   */\n      dup3\n        /* \"#utility.yul\":2632:2641   */\n      dup8\n        /* \"#utility.yul\":2628:2650   */\n      add\n        /* \"#utility.yul\":2607:2660   */\n      tag_297\n      jump\t// in\n    tag_335:\n        /* \"#utility.yul\":2597:2660   */\n      swap4\n      pop\n        /* \"#utility.yul\":2553:2670   */\n      pop\n        /* \"#utility.yul\":2709:2711   */\n      0x20\n        /* \"#utility.yul\":2735:2788   */\n      tag_336\n        /* \"#utility.yul\":2780:2787   */\n      dup7\n        /* \"#utility.yul\":2771:2777   */\n      dup3\n        /* \"#utility.yul\":2760:2769   */\n      dup8\n        /* \"#utility.yul\":2756:2778   */\n      add\n        /* \"#utility.yul\":2735:2788   */\n      tag_297\n      jump\t// in\n    tag_336:\n        /* \"#utility.yul\":2725:2788   */\n      swap3\n      pop\n        /* \"#utility.yul\":2680:2798   */\n      pop\n        /* \"#utility.yul\":2837:2839   */\n      0x40\n        /* \"#utility.yul\":2863:2916   */\n      tag_337\n        /* \"#utility.yul\":2908:2915   */\n      dup7\n        /* \"#utility.yul\":2899:2905   */\n      dup3\n        /* \"#utility.yul\":2888:2897   */\n      dup8\n        /* \"#utility.yul\":2884:2906   */\n      add\n        /* \"#utility.yul\":2863:2916   */\n      tag_318\n      jump\t// in\n    tag_337:\n        /* \"#utility.yul\":2853:2916   */\n      swap2\n      pop\n        /* \"#utility.yul\":2808:2926   */\n      pop\n        /* \"#utility.yul\":2314:2933   */\n      swap3\n      pop\n      swap3\n      pop\n      swap3\n      jump\t// out\n        /* \"#utility.yul\":2939:3882   */\n    tag_73:\n        /* \"#utility.yul\":3034:3040   */\n      0x00\n        /* \"#utility.yul\":3042:3048   */\n      dup1\n        /* \"#utility.yul\":3050:3056   */\n      0x00\n        /* \"#utility.yul\":3058:3064   */\n      dup1\n        /* \"#utility.yul\":3107:3110   */\n      0x80\n        /* \"#utility.yul\":3095:3104   */\n      dup6\n        /* \"#utility.yul\":3086:3093   */\n      dup8\n        /* \"#utility.yul\":3082:3105   */\n      sub\n        /* \"#utility.yul\":3078:3111   */\n      slt\n        /* \"#utility.yul\":3075:3195   */\n      iszero\n      tag_339\n      jumpi\n        /* \"#utility.yul\":3114:3193   */\n      tag_340\n      tag_325\n      jump\t// in\n    tag_340:\n        /* \"#utility.yul\":3075:3195   */\n    tag_339:\n        /* \"#utility.yul\":3234:3235   */\n      0x00\n        /* \"#utility.yul\":3259:3312   */\n      tag_341\n        /* \"#utility.yul\":3304:3311   */\n      dup8\n        /* \"#utility.yul\":3295:3301   */\n      dup3\n        /* \"#utility.yul\":3284:3293   */\n      dup9\n        /* \"#utility.yul\":3280:3302   */\n      add\n        /* \"#utility.yul\":3259:3312   */\n      tag_297\n      jump\t// in\n    tag_341:\n        /* \"#utility.yul\":3249:3312   */\n      swap5\n      pop\n        /* \"#utility.yul\":3205:3322   */\n      pop\n        /* \"#utility.yul\":3361:3363   */\n      0x20\n        /* \"#utility.yul\":3387:3440   */\n      tag_342\n        /* \"#utility.yul\":3432:3439   */\n      dup8\n        /* \"#utility.yul\":3423:3429   */\n      dup3\n        /* \"#utility.yul\":3412:3421   */\n      dup9\n        /* \"#utility.yul\":3408:3430   */\n      add\n        /* \"#utility.yul\":3387:3440   */\n      tag_297\n      jump\t// in\n    tag_342:\n        /* \"#utility.yul\":3377:3440   */\n      swap4\n      pop\n        /* \"#utility.yul\":3332:3450   */\n      pop\n        /* \"#utility.yul\":3489:3491   */\n      0x40\n        /* \"#utility.yul\":3515:3568   */\n      tag_343\n        /* \"#utility.yul\":3560:3567   */\n      dup8\n        /* \"#utility.yul\":3551:3557   */\n      dup3\n        /* \"#utility.yul\":3540:3549   */\n      dup9\n        /* \"#utility.yul\":3536:3558   */\n      add\n        /* \"#utility.yul\":3515:3568   */\n      tag_318\n      jump\t// in\n    tag_343:\n        /* \"#utility.yul\":3505:3568   */\n      swap3\n      pop\n        /* \"#utility.yul\":3460:3578   */\n      pop\n        /* \"#utility.yul\":3645:3647   */\n      0x60\n        /* \"#utility.yul\":3634:3643   */\n      dup6\n        /* \"#utility.yul\":3630:3648   */\n      add\n        /* \"#utility.yul\":3617:3649   */\n      calldataload\n        /* \"#utility.yul\":3676:3694   */\n      0xffffffffffffffff\n        /* \"#utility.yul\":3668:3674   */\n      dup2\n        /* \"#utility.yul\":3665:3695   */\n      gt\n        /* \"#utility.yul\":3662:3779   */\n      iszero\n      tag_344\n      jumpi\n        /* \"#utility.yul\":3698:3777   */\n      tag_345\n      tag_346\n      jump\t// in\n    tag_345:\n        /* \"#utility.yul\":3662:3779   */\n    tag_344:\n        /* \"#utility.yul\":3803:3865   */\n      tag_347\n        /* \"#utility.yul\":3857:3864   */\n      dup8\n        /* \"#utility.yul\":3848:3854   */\n      dup3\n        /* \"#utility.yul\":3837:3846   */\n      dup9\n        /* \"#utility.yul\":3833:3855   */\n      add\n        /* \"#utility.yul\":3803:3865   */\n      tag_312\n      jump\t// in\n    tag_347:\n        /* \"#utility.yul\":3793:3865   */\n      swap2\n      pop\n        /* \"#utility.yul\":3588:3875   */\n      pop\n        /* \"#utility.yul\":2939:3882   */\n      swap3\n      swap6\n      swap2\n      swap5\n      pop\n      swap3\n      pop\n      jump\t// out\n        /* \"#utility.yul\":3888:4356   */\n    tag_66:\n        /* \"#utility.yul\":3953:3959   */\n      0x00\n        /* \"#utility.yul\":3961:3967   */\n      dup1\n        /* \"#utility.yul\":4010:4012   */\n      0x40\n        /* \"#utility.yul\":3998:4007   */\n      dup4\n        /* \"#utility.yul\":3989:3996   */\n      dup6\n        /* \"#utility.yul\":3985:4008   */\n      sub\n        /* \"#utility.yul\":3981:4013   */\n      slt\n        /* \"#utility.yul\":3978:4097   */\n      iszero\n      tag_349\n      jumpi\n        /* \"#utility.yul\":4016:4095   */\n      tag_350\n      tag_325\n      jump\t// in\n    tag_350:\n        /* \"#utility.yul\":3978:4097   */\n    tag_349:\n        /* \"#utility.yul\":4136:4137   */\n      0x00\n        /* \"#utility.yul\":4161:4214   */\n      tag_351\n        /* \"#utility.yul\":4206:4213   */\n      dup6\n        /* \"#utility.yul\":4197:4203   */\n      dup3\n        /* \"#utility.yul\":4186:4195   */\n      dup7\n        /* \"#utility.yul\":4182:4204   */\n      add\n        /* \"#utility.yul\":4161:4214   */\n      tag_297\n      jump\t// in\n    tag_351:\n        /* \"#utility.yul\":4151:4214   */\n      swap3\n      pop\n        /* \"#utility.yul\":4107:4224   */\n      pop\n        /* \"#utility.yul\":4263:4265   */\n      0x20\n        /* \"#utility.yul\":4289:4339   */\n      tag_352\n        /* \"#utility.yul\":4331:4338   */\n      dup6\n        /* \"#utility.yul\":4322:4328   */\n      dup3\n        /* \"#utility.yul\":4311:4320   */\n      dup7\n        /* \"#utility.yul\":4307:4329   */\n      add\n        /* \"#utility.yul\":4289:4339   */\n      tag_301\n      jump\t// in\n    tag_352:\n        /* \"#utility.yul\":4279:4339   */\n      swap2\n      pop\n        /* \"#utility.yul\":4234:4349   */\n      pop\n        /* \"#utility.yul\":3888:4356   */\n      swap3\n      pop\n      swap3\n      swap1\n      pop\n      jump\t// out\n        /* \"#utility.yul\":4362:4836   */\n    tag_39:\n        /* \"#utility.yul\":4430:4436   */\n      0x00\n        /* \"#utility.yul\":4438:4444   */\n      dup1\n        /* \"#utility.yul\":4487:4489   */\n      0x40\n        /* \"#utility.yul\":4475:4484   */\n      dup4\n        /* \"#utility.yul\":4466:4473   */\n      dup6\n        /* \"#utility.yul\":4462:4485   */\n      sub\n        /* \"#utility.yul\":4458:4490   */\n      slt\n        /* \"#utility.yul\":4455:4574   */\n      iszero\n      tag_354\n      jumpi\n        /* \"#utility.yul\":4493:4572   */\n      tag_355\n      tag_325\n      jump\t// in\n    tag_355:\n        /* \"#utility.yul\":4455:4574   */\n    tag_354:\n        /* \"#utility.yul\":4613:4614   */\n      0x00\n        /* \"#utility.yul\":4638:4691   */\n      tag_356\n        /* \"#utility.yul\":4683:4690   */\n      dup6\n        /* \"#utility.yul\":4674:4680   */\n      dup3\n        /* \"#utility.yul\":4663:4672   */\n      dup7\n        /* \"#utility.yul\":4659:4681   */\n      add\n        /* \"#utility.yul\":4638:4691   */\n      tag_297\n      jump\t// in\n    tag_356:\n        /* \"#utility.yul\":4628:4691   */\n      swap3\n      pop\n        /* \"#utility.yul\":4584:4701   */\n      pop\n        /* \"#utility.yul\":4740:4742   */\n      0x20\n        /* \"#utility.yul\":4766:4819   */\n      tag_357\n        /* \"#utility.yul\":4811:4818   */\n      dup6\n        /* \"#utility.yul\":4802:4808   */\n      dup3\n        /* \"#utility.yul\":4791:4800   */\n      dup7\n        /* \"#utility.yul\":4787:4809   */\n      add\n        /* \"#utility.yul\":4766:4819   */\n      tag_318\n      jump\t// in\n    tag_357:\n        /* \"#utility.yul\":4756:4819   */\n      swap2\n      pop\n        /* \"#utility.yul\":4711:4829   */\n      pop\n        /* \"#utility.yul\":4362:4836   */\n      swap3\n      pop\n      swap3\n      swap1\n      pop\n      jump\t// out\n        /* \"#utility.yul\":4842:5169   */\n    tag_23:\n        /* \"#utility.yul\":4900:4906   */\n      0x00\n        /* \"#utility.yul\":4949:4951   */\n      0x20\n        /* \"#utility.yul\":4937:4946   */\n      dup3\n        /* \"#utility.yul\":4928:4935   */\n      dup5\n        /* \"#utility.yul\":4924:4947   */\n      sub\n        /* \"#utility.yul\":4920:4952   */\n      slt\n        /* \"#utility.yul\":4917:5036   */\n      iszero\n      tag_359\n      jumpi\n        /* \"#utility.yul\":4955:5034   */\n      tag_360\n      tag_325\n      jump\t// in\n    tag_360:\n        /* \"#utility.yul\":4917:5036   */\n    tag_359:\n        /* \"#utility.yul\":5075:5076   */\n      0x00\n        /* \"#utility.yul\":5100:5152   */\n      tag_361\n        /* \"#utility.yul\":5144:5151   */\n      dup5\n        /* \"#utility.yul\":5135:5141   */\n      dup3\n        /* \"#utility.yul\":5124:5133   */\n      dup6\n        /* \"#utility.yul\":5120:5142   */\n      add\n        /* \"#utility.yul\":5100:5152   */\n      tag_305\n      jump\t// in\n    tag_361:\n        /* \"#utility.yul\":5090:5152   */\n      swap2\n      pop\n        /* \"#utility.yul\":5046:5162   */\n      pop\n        /* \"#utility.yul\":4842:5169   */\n      swap3\n      swap2\n      pop\n      pop\n      jump\t// out\n        /* \"#utility.yul\":5175:5524   */\n    tag_272:\n        /* \"#utility.yul\":5244:5250   */\n      0x00\n        /* \"#utility.yul\":5293:5295   */\n      0x20\n        /* \"#utility.yul\":5281:5290   */\n      dup3\n        /* \"#utility.yul\":5272:5279   */\n      dup5\n        /* \"#utility.yul\":5268:5291   */\n      sub\n        /* \"#utility.yul\":5264:5296   */\n      slt\n        /* \"#utility.yul\":5261:5380   */\n      iszero\n      tag_363\n      jumpi\n        /* \"#utility.yul\":5299:5378   */\n      tag_364\n      tag_325\n      jump\t// in\n    tag_364:\n        /* \"#utility.yul\":5261:5380   */\n    tag_363:\n        /* \"#utility.yul\":5419:5420   */\n      0x00\n        /* \"#utility.yul\":5444:5507   */\n      tag_365\n        /* \"#utility.yul\":5499:5506   */\n      dup5\n        /* \"#utility.yul\":5490:5496   */\n      dup3\n        /* \"#utility.yul\":5479:5488   */\n      dup6\n        /* \"#utility.yul\":5475:5497   */\n      add\n        /* \"#utility.yul\":5444:5507   */\n      tag_309\n      jump\t// in\n    tag_365:\n        /* \"#utility.yul\":5434:5507   */\n      swap2\n      pop\n        /* \"#utility.yul\":5390:5517   */\n      pop\n        /* \"#utility.yul\":5175:5524   */\n      swap3\n      swap2\n      pop\n      pop\n      jump\t// out\n        /* \"#utility.yul\":5530:5859   */\n    tag_33:\n        /* \"#utility.yul\":5589:5595   */\n      0x00\n        /* \"#utility.yul\":5638:5640   */\n      0x20\n        /* \"#utility.yul\":5626:5635   */\n      dup3\n        /* \"#utility.yul\":5617:5624   */\n      dup5\n        /* \"#utility.yul\":5613:5636   */\n      sub\n        /* \"#utility.yul\":5609:5641   */\n      slt\n        /* \"#utility.yul\":5606:5725   */\n      iszero\n      tag_367\n      jumpi\n        /* \"#utility.yul\":5644:5723   */\n      tag_368\n      tag_325\n      jump\t// in\n    tag_368:\n        /* \"#utility.yul\":5606:5725   */\n    tag_367:\n        /* \"#utility.yul\":5764:5765   */\n      0x00\n        /* \"#utility.yul\":5789:5842   */\n      tag_369\n        /* \"#utility.yul\":5834:5841   */\n      dup5\n        /* \"#utility.yul\":5825:5831   */\n      dup3\n        /* \"#utility.yul\":5814:5823   */\n      dup6\n        /* \"#utility.yul\":5810:5832   */\n      add\n        /* \"#utility.yul\":5789:5842   */\n      tag_318\n      jump\t// in\n    tag_369:\n        /* \"#utility.yul\":5779:5842   */\n      swap2\n      pop\n        /* \"#utility.yul\":5735:5852   */\n      pop\n        /* \"#utility.yul\":5530:5859   */\n      swap3\n      swap2\n      pop\n      pop\n      jump\t// out\n        /* \"#utility.yul\":5865:5983   */\n    tag_370:\n        /* \"#utility.yul\":5952:5976   */\n      tag_372\n        /* \"#utility.yul\":5970:5975   */\n      dup2\n        /* \"#utility.yul\":5952:5976   */\n      tag_373\n      jump\t// in\n    tag_372:\n        /* \"#utility.yul\":5947:5950   */\n      dup3\n        /* \"#utility.yul\":5940:5977   */\n      mstore\n        /* \"#utility.yul\":5865:5983   */\n      pop\n      pop\n      jump\t// out\n        /* \"#utility.yul\":5989:6098   */\n    tag_374:\n        /* \"#utility.yul\":6070:6091   */\n      tag_376\n        /* \"#utility.yul\":6085:6090   */\n      dup2\n        /* \"#utility.yul\":6070:6091   */\n      tag_377\n      jump\t// in\n    tag_376:\n        /* \"#utility.yul\":6065:6068   */\n      dup3\n        /* \"#utility.yul\":6058:6092   */\n      mstore\n        /* \"#utility.yul\":5989:6098   */\n      pop\n      pop\n      jump\t// out\n        /* \"#utility.yul\":6104:6464   */\n    tag_378:\n        /* \"#utility.yul\":6190:6193   */\n      0x00\n        /* \"#utility.yul\":6218:6256   */\n      tag_380\n        /* \"#utility.yul\":6250:6255   */\n      dup3\n        /* \"#utility.yul\":6218:6256   */\n      tag_381\n      jump\t// in\n    tag_380:\n        /* \"#utility.yul\":6272:6342   */\n      tag_382\n        /* \"#utility.yul\":6335:6341   */\n      dup2\n        /* \"#utility.yul\":6330:6333   */\n      dup6\n        /* \"#utility.yul\":6272:6342   */\n      tag_383\n      jump\t// in\n    tag_382:\n        /* \"#utility.yul\":6265:6342   */\n      swap4\n      pop\n        /* \"#utility.yul\":6351:6403   */\n      tag_384\n        /* \"#utility.yul\":6396:6402   */\n      dup2\n        /* \"#utility.yul\":6391:6394   */\n      dup6\n        /* \"#utility.yul\":6384:6388   */\n      0x20\n        /* \"#utility.yul\":6377:6382   */\n      dup7\n        /* \"#utility.yul\":6373:6389   */\n      add\n        /* \"#utility.yul\":6351:6403   */\n      tag_385\n      jump\t// in\n    tag_384:\n        /* \"#utility.yul\":6428:6457   */\n      tag_386\n        /* \"#utility.yul\":6450:6456   */\n      dup2\n        /* \"#utility.yul\":6428:6457   */\n      tag_387\n      jump\t// in\n    tag_386:\n        /* \"#utility.yul\":6423:6426   */\n      dup5\n        /* \"#utility.yul\":6419:6458   */\n      add\n        /* \"#utility.yul\":6412:6458   */\n      swap2\n      pop\n        /* \"#utility.yul\":6194:6464   */\n      pop\n        /* \"#utility.yul\":6104:6464   */\n      swap3\n      swap2\n      pop\n      pop\n      jump\t// out\n        /* \"#utility.yul\":6470:6834   */\n    tag_388:\n        /* \"#utility.yul\":6558:6561   */\n      0x00\n        /* \"#utility.yul\":6586:6625   */\n      tag_390\n        /* \"#utility.yul\":6619:6624   */\n      dup3\n        /* \"#utility.yul\":6586:6625   */\n      tag_391\n      jump\t// in\n    tag_390:\n        /* \"#utility.yul\":6641:6712   */\n      tag_392\n        /* \"#utility.yul\":6705:6711   */\n      dup2\n        /* \"#utility.yul\":6700:6703   */\n      dup6\n        /* \"#utility.yul\":6641:6712   */\n      tag_393\n      jump\t// in\n    tag_392:\n        /* \"#utility.yul\":6634:6712   */\n      swap4\n      pop\n        /* \"#utility.yul\":6721:6773   */\n      tag_394\n        /* \"#utility.yul\":6766:6772   */\n      dup2\n        /* \"#utility.yul\":6761:6764   */\n      dup6\n        /* \"#utility.yul\":6754:6758   */\n      0x20\n        /* \"#utility.yul\":6747:6752   */\n      dup7\n        /* \"#utility.yul\":6743:6759   */\n      add\n        /* \"#utility.yul\":6721:6773   */\n      tag_385\n      jump\t// in\n    tag_394:\n        /* \"#utility.yul\":6798:6827   */\n      tag_395\n        /* \"#utility.yul\":6820:6826   */\n      dup2\n        /* \"#utility.yul\":6798:6827   */\n      tag_387\n      jump\t// in\n    tag_395:\n        /* \"#utility.yul\":6793:6796   */\n      dup5\n        /* \"#utility.yul\":6789:6828   */\n      add\n        /* \"#utility.yul\":6782:6828   */\n      swap2\n      pop\n        /* \"#utility.yul\":6562:6834   */\n      pop\n        /* \"#utility.yul\":6470:6834   */\n      swap3\n      swap2\n      pop\n      pop\n      jump\t// out\n        /* \"#utility.yul\":6840:7217   */\n    tag_396:\n        /* \"#utility.yul\":6946:6949   */\n      0x00\n        /* \"#utility.yul\":6974:7013   */\n      tag_398\n        /* \"#utility.yul\":7007:7012   */\n      dup3\n        /* \"#utility.yul\":6974:7013   */\n      tag_391\n      jump\t// in\n    tag_398:\n        /* \"#utility.yul\":7029:7118   */\n      tag_399\n        /* \"#utility.yul\":7111:7117   */\n      dup2\n        /* \"#utility.yul\":7106:7109   */\n      dup6\n        /* \"#utility.yul\":7029:7118   */\n      tag_400\n      jump\t// in\n    tag_399:\n        /* \"#utility.yul\":7022:7118   */\n      swap4\n      pop\n        /* \"#utility.yul\":7127:7179   */\n      tag_401\n        /* \"#utility.yul\":7172:7178   */\n      dup2\n        /* \"#utility.yul\":7167:7170   */\n      dup6\n        /* \"#utility.yul\":7160:7164   */\n      0x20\n        /* \"#utility.yul\":7153:7158   */\n      dup7\n        /* \"#utility.yul\":7149:7165   */\n      add\n        /* \"#utility.yul\":7127:7179   */\n      tag_385\n      jump\t// in\n    tag_401:\n        /* \"#utility.yul\":7204:7210   */\n      dup1\n        /* \"#utility.yul\":7199:7202   */\n      dup5\n        /* \"#utility.yul\":7195:7211   */\n      add\n        /* \"#utility.yul\":7188:7211   */\n      swap2\n      pop\n        /* \"#utility.yul\":6950:7217   */\n      pop\n        /* \"#utility.yul\":6840:7217   */\n      swap3\n      swap2\n      pop\n      pop\n      jump\t// out\n        /* \"#utility.yul\":7223:7589   */\n    tag_402:\n        /* \"#utility.yul\":7365:7368   */\n      0x00\n        /* \"#utility.yul\":7386:7453   */\n      tag_404\n        /* \"#utility.yul\":7450:7452   */\n      0x32\n        /* \"#utility.yul\":7445:7448   */\n      dup4\n        /* \"#utility.yul\":7386:7453   */\n      tag_393\n      jump\t// in\n    tag_404:\n        /* \"#utility.yul\":7379:7453   */\n      swap2\n      pop\n        /* \"#utility.yul\":7462:7555   */\n      tag_405\n        /* \"#utility.yul\":7551:7554   */\n      dup3\n        /* \"#utility.yul\":7462:7555   */\n      tag_406\n      jump\t// in\n    tag_405:\n        /* \"#utility.yul\":7580:7582   */\n      0x40\n        /* \"#utility.yul\":7575:7578   */\n      dup3\n        /* \"#utility.yul\":7571:7583   */\n      add\n        /* \"#utility.yul\":7564:7583   */\n      swap1\n      pop\n        /* \"#utility.yul\":7223:7589   */\n      swap2\n      swap1\n      pop\n      jump\t// out\n        /* \"#utility.yul\":7595:7961   */\n    tag_407:\n        /* \"#utility.yul\":7737:7740   */\n      0x00\n        /* \"#utility.yul\":7758:7825   */\n      tag_409\n        /* \"#utility.yul\":7822:7824   */\n      0x25\n        /* \"#utility.yul\":7817:7820   */\n      dup4\n        /* \"#utility.yul\":7758:7825   */\n      tag_393\n      jump\t// in\n    tag_409:\n        /* \"#utility.yul\":7751:7825   */\n      swap2\n      pop\n        /* \"#utility.yul\":7834:7927   */\n      tag_410\n        /* \"#utility.yul\":7923:7926   */\n      dup3\n        /* \"#utility.yul\":7834:7927   */\n      tag_411\n      jump\t// in\n    tag_410:\n        /* \"#utility.yul\":7952:7954   */\n      0x40\n        /* \"#utility.yul\":7947:7950   */\n      dup3\n        /* \"#utility.yul\":7943:7955   */\n      add\n        /* \"#utility.yul\":7936:7955   */\n      swap1\n      pop\n        /* \"#utility.yul\":7595:7961   */\n      swap2\n      swap1\n      pop\n      jump\t// out\n        /* \"#utility.yul\":7967:8333   */\n    tag_412:\n        /* \"#utility.yul\":8109:8112   */\n      0x00\n        /* \"#utility.yul\":8130:8197   */\n      tag_414\n        /* \"#utility.yul\":8194:8196   */\n      0x1c\n        /* \"#utility.yul\":8189:8192   */\n      dup4\n        /* \"#utility.yul\":8130:8197   */\n      tag_393\n      jump\t// in\n    tag_414:\n        /* \"#utility.yul\":8123:8197   */\n      swap2\n      pop\n        /* \"#utility.yul\":8206:8299   */\n      tag_415\n        /* \"#utility.yul\":8295:8298   */\n      dup3\n        /* \"#utility.yul\":8206:8299   */\n      tag_416\n      jump\t// in\n    tag_415:\n        /* \"#utility.yul\":8324:8326   */\n      0x20\n        /* \"#utility.yul\":8319:8322   */\n      dup3\n        /* \"#utility.yul\":8315:8327   */\n      add\n        /* \"#utility.yul\":8308:8327   */\n      swap1\n      pop\n        /* \"#utility.yul\":7967:8333   */\n      swap2\n      swap1\n      pop\n      jump\t// out\n        /* \"#utility.yul\":8339:8705   */\n    tag_417:\n        /* \"#utility.yul\":8481:8484   */\n      0x00\n        /* \"#utility.yul\":8502:8569   */\n      tag_419\n        /* \"#utility.yul\":8566:8568   */\n      0x24\n        /* \"#utility.yul\":8561:8564   */\n      dup4\n        /* \"#utility.yul\":8502:8569   */\n      tag_393\n      jump\t// in\n    tag_419:\n        /* \"#utility.yul\":8495:8569   */\n      swap2\n      pop\n        /* \"#utility.yul\":8578:8671   */\n      tag_420\n        /* \"#utility.yul\":8667:8670   */\n      dup3\n        /* \"#utility.yul\":8578:8671   */\n      tag_421\n      jump\t// in\n    tag_420:\n        /* \"#utility.yul\":8696:8698   */\n      0x40\n        /* \"#utility.yul\":8691:8694   */\n      dup3\n        /* \"#utility.yul\":8687:8699   */\n      add\n        /* \"#utility.yul\":8680:8699   */\n      swap1\n      pop\n        /* \"#utility.yul\":8339:8705   */\n      swap2\n      swap1\n      pop\n      jump\t// out\n        /* \"#utility.yul\":8711:9077   */\n    tag_422:\n        /* \"#utility.yul\":8853:8856   */\n      0x00\n        /* \"#utility.yul\":8874:8941   */\n      tag_424\n        /* \"#utility.yul\":8938:8940   */\n      0x19\n        /* \"#utility.yul\":8933:8936   */\n      dup4\n        /* \"#utility.yul\":8874:8941   */\n      tag_393\n      jump\t// in\n    tag_424:\n        /* \"#utility.yul\":8867:8941   */\n      swap2\n      pop\n        /* \"#utility.yul\":8950:9043   */\n      tag_425\n        /* \"#utility.yul\":9039:9042   */\n      dup3\n        /* \"#utility.yul\":8950:9043   */\n      tag_426\n      jump\t// in\n    tag_425:\n        /* \"#utility.yul\":9068:9070   */\n      0x20\n        /* \"#utility.yul\":9063:9066   */\n      dup3\n        /* \"#utility.yul\":9059:9071   */\n      add\n        /* \"#utility.yul\":9052:9071   */\n      swap1\n      pop\n        /* \"#utility.yul\":8711:9077   */\n      swap2\n      swap1\n      pop\n      jump\t// out\n        /* \"#utility.yul\":9083:9449   */\n    tag_427:\n        /* \"#utility.yul\":9225:9228   */\n      0x00\n        /* \"#utility.yul\":9246:9313   */\n      tag_429\n        /* \"#utility.yul\":9310:9312   */\n      0x2c\n        /* \"#utility.yul\":9305:9308   */\n      dup4\n        /* \"#utility.yul\":9246:9313   */\n      tag_393\n      jump\t// in\n    tag_429:\n        /* \"#utility.yul\":9239:9313   */\n      swap2\n      pop\n        /* \"#utility.yul\":9322:9415   */\n      tag_430\n        /* \"#utility.yul\":9411:9414   */\n      dup3\n        /* \"#utility.yul\":9322:9415   */\n      tag_431\n      jump\t// in\n    tag_430:\n        /* \"#utility.yul\":9440:9442   */\n      0x40\n        /* \"#utility.yul\":9435:9438   */\n      dup3\n        /* \"#utility.yul\":9431:9443   */\n      add\n        /* \"#utility.yul\":9424:9443   */\n      swap1\n      pop\n        /* \"#utility.yul\":9083:9449   */\n      swap2\n      swap1\n      pop\n      jump\t// out\n        /* \"#utility.yul\":9455:9821   */\n    tag_432:\n        /* \"#utility.yul\":9597:9600   */\n      0x00\n        /* \"#utility.yul\":9618:9685   */\n      tag_434\n        /* \"#utility.yul\":9682:9684   */\n      0x38\n        /* \"#utility.yul\":9677:9680   */\n      dup4\n        /* \"#utility.yul\":9618:9685   */\n      tag_393\n      jump\t// in\n    tag_434:\n        /* \"#utility.yul\":9611:9685   */\n      swap2\n      pop\n        /* \"#utility.yul\":9694:9787   */\n      tag_435\n        /* \"#utility.yul\":9783:9786   */\n      dup3\n        /* \"#utility.yul\":9694:9787   */\n      tag_436\n      jump\t// in\n    tag_435:\n        /* \"#utility.yul\":9812:9814   */\n      0x40\n        /* \"#utility.yul\":9807:9810   */\n      dup3\n        /* \"#utility.yul\":9803:9815   */\n      add\n        /* \"#utility.yul\":9796:9815   */\n      swap1\n      pop\n        /* \"#utility.yul\":9455:9821   */\n      swap2\n      swap1\n      pop\n      jump\t// out\n        /* \"#utility.yul\":9827:10193   */\n    tag_437:\n        /* \"#utility.yul\":9969:9972   */\n      0x00\n        /* \"#utility.yul\":9990:10057   */\n      tag_439\n        /* \"#utility.yul\":10054:10056   */\n      0x2a\n        /* \"#utility.yul\":10049:10052   */\n      dup4\n        /* \"#utility.yul\":9990:10057   */\n      tag_393\n      jump\t// in\n    tag_439:\n        /* \"#utility.yul\":9983:10057   */\n      swap2\n      pop\n        /* \"#utility.yul\":10066:10159   */\n      tag_440\n        /* \"#utility.yul\":10155:10158   */\n      dup3\n        /* \"#utility.yul\":10066:10159   */\n      tag_441\n      jump\t// in\n    tag_440:\n        /* \"#utility.yul\":10184:10186   */\n      0x40\n        /* \"#utility.yul\":10179:10182   */\n      dup3\n        /* \"#utility.yul\":10175:10187   */\n      add\n        /* \"#utility.yul\":10168:10187   */\n      swap1\n      pop\n        /* \"#utility.yul\":9827:10193   */\n      swap2\n      swap1\n      pop\n      jump\t// out\n        /* \"#utility.yul\":10199:10565   */\n    tag_442:\n        /* \"#utility.yul\":10341:10344   */\n      0x00\n        /* \"#utility.yul\":10362:10429   */\n      tag_444\n        /* \"#utility.yul\":10426:10428   */\n      0x29\n        /* \"#utility.yul\":10421:10424   */\n      dup4\n        /* \"#utility.yul\":10362:10429   */\n      tag_393\n      jump\t// in\n    tag_444:\n        /* \"#utility.yul\":10355:10429   */\n      swap2\n      pop\n        /* \"#utility.yul\":10438:10531   */\n      tag_445\n        /* \"#utility.yul\":10527:10530   */\n      dup3\n        /* \"#utility.yul\":10438:10531   */\n      tag_446\n      jump\t// in\n    tag_445:\n        /* \"#utility.yul\":10556:10558   */\n      0x40\n        /* \"#utility.yul\":10551:10554   */\n      dup3\n        /* \"#utility.yul\":10547:10559   */\n      add\n        /* \"#utility.yul\":10540:10559   */\n      swap1\n      pop\n        /* \"#utility.yul\":10199:10565   */\n      swap2\n      swap1\n      pop\n      jump\t// out\n        /* \"#utility.yul\":10571:10937   */\n    tag_447:\n        /* \"#utility.yul\":10713:10716   */\n      0x00\n        /* \"#utility.yul\":10734:10801   */\n      tag_449\n        /* \"#utility.yul\":10798:10800   */\n      0x20\n        /* \"#utility.yul\":10793:10796   */\n      dup4\n        /* \"#utility.yul\":10734:10801   */\n      tag_393\n      jump\t// in\n    tag_449:\n        /* \"#utility.yul\":10727:10801   */\n      swap2\n      pop\n        /* \"#utility.yul\":10810:10903   */\n      tag_450\n        /* \"#utility.yul\":10899:10902   */\n      dup3\n        /* \"#utility.yul\":10810:10903   */\n      tag_451\n      jump\t// in\n    tag_450:\n        /* \"#utility.yul\":10928:10930   */\n      0x20\n        /* \"#utility.yul\":10923:10926   */\n      dup3\n        /* \"#utility.yul\":10919:10931   */\n      add\n        /* \"#utility.yul\":10912:10931   */\n      swap1\n      pop\n        /* \"#utility.yul\":10571:10937   */\n      swap2\n      swap1\n      pop\n      jump\t// out\n        /* \"#utility.yul\":10943:11309   */\n    tag_452:\n        /* \"#utility.yul\":11085:11088   */\n      0x00\n        /* \"#utility.yul\":11106:11173   */\n      tag_454\n        /* \"#utility.yul\":11170:11172   */\n      0x2c\n        /* \"#utility.yul\":11165:11168   */\n      dup4\n        /* \"#utility.yul\":11106:11173   */\n      tag_393\n      jump\t// in\n    tag_454:\n        /* \"#utility.yul\":11099:11173   */\n      swap2\n      pop\n        /* \"#utility.yul\":11182:11275   */\n      tag_455\n        /* \"#utility.yul\":11271:11274   */\n      dup3\n        /* \"#utility.yul\":11182:11275   */\n      tag_456\n      jump\t// in\n    tag_455:\n        /* \"#utility.yul\":11300:11302   */\n      0x40\n        /* \"#utility.yul\":11295:11298   */\n      dup3\n        /* \"#utility.yul\":11291:11303   */\n      add\n        /* \"#utility.yul\":11284:11303   */\n      swap1\n      pop\n        /* \"#utility.yul\":10943:11309   */\n      swap2\n      swap1\n      pop\n      jump\t// out\n        /* \"#utility.yul\":11315:11681   */\n    tag_457:\n        /* \"#utility.yul\":11457:11460   */\n      0x00\n        /* \"#utility.yul\":11478:11545   */\n      tag_459\n        /* \"#utility.yul\":11542:11544   */\n      0x2f\n        /* \"#utility.yul\":11537:11540   */\n      dup4\n        /* \"#utility.yul\":11478:11545   */\n      tag_393\n      jump\t// in\n    tag_459:\n        /* \"#utility.yul\":11471:11545   */\n      swap2\n      pop\n        /* \"#utility.yul\":11554:11647   */\n      tag_460\n        /* \"#utility.yul\":11643:11646   */\n      dup3\n        /* \"#utility.yul\":11554:11647   */\n      tag_461\n      jump\t// in\n    tag_460:\n        /* \"#utility.yul\":11672:11674   */\n      0x40\n        /* \"#utility.yul\":11667:11670   */\n      dup3\n        /* \"#utility.yul\":11663:11675   */\n      add\n        /* \"#utility.yul\":11656:11675   */\n      swap1\n      pop\n        /* \"#utility.yul\":11315:11681   */\n      swap2\n      swap1\n      pop\n      jump\t// out\n        /* \"#utility.yul\":11687:12053   */\n    tag_462:\n        /* \"#utility.yul\":11829:11832   */\n      0x00\n        /* \"#utility.yul\":11850:11917   */\n      tag_464\n        /* \"#utility.yul\":11914:11916   */\n      0x21\n        /* \"#utility.yul\":11909:11912   */\n      dup4\n        /* \"#utility.yul\":11850:11917   */\n      tag_393\n      jump\t// in\n    tag_464:\n        /* \"#utility.yul\":11843:11917   */\n      swap2\n      pop\n        /* \"#utility.yul\":11926:12019   */\n      tag_465\n        /* \"#utility.yul\":12015:12018   */\n      dup3\n        /* \"#utility.yul\":11926:12019   */\n      tag_466\n      jump\t// in\n    tag_465:\n        /* \"#utility.yul\":12044:12046   */\n      0x40\n        /* \"#utility.yul\":12039:12042   */\n      dup3\n        /* \"#utility.yul\":12035:12047   */\n      add\n        /* \"#utility.yul\":12028:12047   */\n      swap1\n      pop\n        /* \"#utility.yul\":11687:12053   */\n      swap2\n      swap1\n      pop\n      jump\t// out\n        /* \"#utility.yul\":12059:12425   */\n    tag_467:\n        /* \"#utility.yul\":12201:12204   */\n      0x00\n        /* \"#utility.yul\":12222:12289   */\n      tag_469\n        /* \"#utility.yul\":12286:12288   */\n      0x31\n        /* \"#utility.yul\":12281:12284   */\n      dup4\n        /* \"#utility.yul\":12222:12289   */\n      tag_393\n      jump\t// in\n    tag_469:\n        /* \"#utility.yul\":12215:12289   */\n      swap2\n      pop\n        /* \"#utility.yul\":12298:12391   */\n      tag_470\n        /* \"#utility.yul\":12387:12390   */\n      dup3\n        /* \"#utility.yul\":12298:12391   */\n      tag_471\n      jump\t// in\n    tag_470:\n        /* \"#utility.yul\":12416:12418   */\n      0x40\n        /* \"#utility.yul\":12411:12414   */\n      dup3\n        /* \"#utility.yul\":12407:12419   */\n      add\n        /* \"#utility.yul\":12400:12419   */\n      swap1\n      pop\n        /* \"#utility.yul\":12059:12425   */\n      swap2\n      swap1\n      pop\n      jump\t// out\n        /* \"#utility.yul\":12431:12549   */\n    tag_472:\n        /* \"#utility.yul\":12518:12542   */\n      tag_474\n        /* \"#utility.yul\":12536:12541   */\n      dup2\n        /* \"#utility.yul\":12518:12542   */\n      tag_475\n      jump\t// in\n    tag_474:\n        /* \"#utility.yul\":12513:12516   */\n      dup3\n        /* \"#utility.yul\":12506:12543   */\n      mstore\n        /* \"#utility.yul\":12431:12549   */\n      pop\n      pop\n      jump\t// out\n        /* \"#utility.yul\":12555:12990   */\n    tag_177:\n        /* \"#utility.yul\":12735:12738   */\n      0x00\n        /* \"#utility.yul\":12757:12852   */\n      tag_477\n        /* \"#utility.yul\":12848:12851   */\n      dup3\n        /* \"#utility.yul\":12839:12845   */\n      dup6\n        /* \"#utility.yul\":12757:12852   */\n      tag_396\n      jump\t// in\n    tag_477:\n        /* \"#utility.yul\":12750:12852   */\n      swap2\n      pop\n        /* \"#utility.yul\":12869:12964   */\n      tag_478\n        /* \"#utility.yul\":12960:12963   */\n      dup3\n        /* \"#utility.yul\":12951:12957   */\n      dup5\n        /* \"#utility.yul\":12869:12964   */\n      tag_396\n      jump\t// in\n    tag_478:\n        /* \"#utility.yul\":12862:12964   */\n      swap2\n      pop\n        /* \"#utility.yul\":12981:12984   */\n      dup2\n        /* \"#utility.yul\":12974:12984   */\n      swap1\n      pop\n        /* \"#utility.yul\":12555:12990   */\n      swap4\n      swap3\n      pop\n      pop\n      pop\n      jump\t// out\n        /* \"#utility.yul\":12996:13218   */\n    tag_36:\n        /* \"#utility.yul\":13089:13093   */\n      0x00\n        /* \"#utility.yul\":13127:13129   */\n      0x20\n        /* \"#utility.yul\":13116:13125   */\n      dup3\n        /* \"#utility.yul\":13112:13130   */\n      add\n        /* \"#utility.yul\":13104:13130   */\n      swap1\n      pop\n        /* \"#utility.yul\":13140:13211   */\n      tag_480\n        /* \"#utility.yul\":13208:13209   */\n      0x00\n        /* \"#utility.yul\":13197:13206   */\n      dup4\n        /* \"#utility.yul\":13193:13210   */\n      add\n        /* \"#utility.yul\":13184:13190   */\n      dup5\n        /* \"#utility.yul\":13140:13211   */\n      tag_370\n      jump\t// in\n    tag_480:\n        /* \"#utility.yul\":12996:13218   */\n      swap3\n      swap2\n      pop\n      pop\n      jump\t// out\n        /* \"#utility.yul\":13224:13864   */\n    tag_268:\n        /* \"#utility.yul\":13419:13423   */\n      0x00\n        /* \"#utility.yul\":13457:13460   */\n      0x80\n        /* \"#utility.yul\":13446:13455   */\n      dup3\n        /* \"#utility.yul\":13442:13461   */\n      add\n        /* \"#utility.yul\":13434:13461   */\n      swap1\n      pop\n        /* \"#utility.yul\":13471:13542   */\n      tag_482\n        /* \"#utility.yul\":13539:13540   */\n      0x00\n        /* \"#utility.yul\":13528:13537   */\n      dup4\n        /* \"#utility.yul\":13524:13541   */\n      add\n        /* \"#utility.yul\":13515:13521   */\n      dup8\n        /* \"#utility.yul\":13471:13542   */\n      tag_370\n      jump\t// in\n    tag_482:\n        /* \"#utility.yul\":13552:13624   */\n      tag_483\n        /* \"#utility.yul\":13620:13622   */\n      0x20\n        /* \"#utility.yul\":13609:13618   */\n      dup4\n        /* \"#utility.yul\":13605:13623   */\n      add\n        /* \"#utility.yul\":13596:13602   */\n      dup7\n        /* \"#utility.yul\":13552:13624   */\n      tag_370\n      jump\t// in\n    tag_483:\n        /* \"#utility.yul\":13634:13706   */\n      tag_484\n        /* \"#utility.yul\":13702:13704   */\n      0x40\n        /* \"#utility.yul\":13691:13700   */\n      dup4\n        /* \"#utility.yul\":13687:13705   */\n      add\n        /* \"#utility.yul\":13678:13684   */\n      dup6\n        /* \"#utility.yul\":13634:13706   */\n      tag_472\n      jump\t// in\n    tag_484:\n        /* \"#utility.yul\":13753:13762   */\n      dup2\n        /* \"#utility.yul\":13747:13751   */\n      dup2\n        /* \"#utility.yul\":13743:13763   */\n      sub\n        /* \"#utility.yul\":13738:13740   */\n      0x60\n        /* \"#utility.yul\":13727:13736   */\n      dup4\n        /* \"#utility.yul\":13723:13741   */\n      add\n        /* \"#utility.yul\":13716:13764   */\n      mstore\n        /* \"#utility.yul\":13781:13857   */\n      tag_485\n        /* \"#utility.yul\":13852:13856   */\n      dup2\n        /* \"#utility.yul\":13843:13849   */\n      dup5\n        /* \"#utility.yul\":13781:13857   */\n      tag_378\n      jump\t// in\n    tag_485:\n        /* \"#utility.yul\":13773:13857   */\n      swap1\n      pop\n        /* \"#utility.yul\":13224:13864   */\n      swap6\n      swap5\n      pop\n      pop\n      pop\n      pop\n      pop\n      jump\t// out\n        /* \"#utility.yul\":13870:14080   */\n    tag_26:\n        /* \"#utility.yul\":13957:13961   */\n      0x00\n        /* \"#utility.yul\":13995:13997   */\n      0x20\n        /* \"#utility.yul\":13984:13993   */\n      dup3\n        /* \"#utility.yul\":13980:13998   */\n      add\n        /* \"#utility.yul\":13972:13998   */\n      swap1\n      pop\n        /* \"#utility.yul\":14008:14073   */\n      tag_487\n        /* \"#utility.yul\":14070:14071   */\n      0x00\n        /* \"#utility.yul\":14059:14068   */\n      dup4\n        /* \"#utility.yul\":14055:14072   */\n      add\n        /* \"#utility.yul\":14046:14052   */\n      dup5\n        /* \"#utility.yul\":14008:14073   */\n      tag_374\n      jump\t// in\n    tag_487:\n        /* \"#utility.yul\":13870:14080   */\n      swap3\n      swap2\n      pop\n      pop\n      jump\t// out\n        /* \"#utility.yul\":14086:14399   */\n    tag_30:\n        /* \"#utility.yul\":14199:14203   */\n      0x00\n        /* \"#utility.yul\":14237:14239   */\n      0x20\n        /* \"#utility.yul\":14226:14235   */\n      dup3\n        /* \"#utility.yul\":14222:14240   */\n      add\n        /* \"#utility.yul\":14214:14240   */\n      swap1\n      pop\n        /* \"#utility.yul\":14286:14295   */\n      dup2\n        /* \"#utility.yul\":14280:14284   */\n      dup2\n        /* \"#utility.yul\":14276:14296   */\n      sub\n        /* \"#utility.yul\":14272:14273   */\n      0x00\n        /* \"#utility.yul\":14261:14270   */\n      dup4\n        /* \"#utility.yul\":14257:14274   */\n      add\n        /* \"#utility.yul\":14250:14297   */\n      mstore\n        /* \"#utility.yul\":14314:14392   */\n      tag_489\n        /* \"#utility.yul\":14387:14391   */\n      dup2\n        /* \"#utility.yul\":14378:14384   */\n      dup5\n        /* \"#utility.yul\":14314:14392   */\n      tag_388\n      jump\t// in\n    tag_489:\n        /* \"#utility.yul\":14306:14392   */\n      swap1\n      pop\n        /* \"#utility.yul\":14086:14399   */\n      swap3\n      swap2\n      pop\n      pop\n      jump\t// out\n        /* \"#utility.yul\":14405:14824   */\n    tag_222:\n        /* \"#utility.yul\":14571:14575   */\n      0x00\n        /* \"#utility.yul\":14609:14611   */\n      0x20\n        /* \"#utility.yul\":14598:14607   */\n      dup3\n        /* \"#utility.yul\":14594:14612   */\n      add\n        /* \"#utility.yul\":14586:14612   */\n      swap1\n      pop\n        /* \"#utility.yul\":14658:14667   */\n      dup2\n        /* \"#utility.yul\":14652:14656   */\n      dup2\n        /* \"#utility.yul\":14648:14668   */\n      sub\n        /* \"#utility.yul\":14644:14645   */\n      0x00\n        /* \"#utility.yul\":14633:14642   */\n      dup4\n        /* \"#utility.yul\":14629:14646   */\n      add\n        /* \"#utility.yul\":14622:14669   */\n      mstore\n        /* \"#utility.yul\":14686:14817   */\n      tag_491\n        /* \"#utility.yul\":14812:14816   */\n      dup2\n        /* \"#utility.yul\":14686:14817   */\n      tag_402\n      jump\t// in\n    tag_491:\n        /* \"#utility.yul\":14678:14817   */\n      swap1\n      pop\n        /* \"#utility.yul\":14405:14824   */\n      swap2\n      swap1\n      pop\n      jump\t// out\n        /* \"#utility.yul\":14830:15249   */\n    tag_198:\n        /* \"#utility.yul\":14996:15000   */\n      0x00\n        /* \"#utility.yul\":15034:15036   */\n      0x20\n        /* \"#utility.yul\":15023:15032   */\n      dup3\n        /* \"#utility.yul\":15019:15037   */\n      add\n        /* \"#utility.yul\":15011:15037   */\n      swap1\n      pop\n        /* \"#utility.yul\":15083:15092   */\n      dup2\n        /* \"#utility.yul\":15077:15081   */\n      dup2\n        /* \"#utility.yul\":15073:15093   */\n      sub\n        /* \"#utility.yul\":15069:15070   */\n      0x00\n        /* \"#utility.yul\":15058:15067   */\n      dup4\n        /* \"#utility.yul\":15054:15071   */\n      add\n        /* \"#utility.yul\":15047:15094   */\n      mstore\n        /* \"#utility.yul\":15111:15242   */\n      tag_493\n        /* \"#utility.yul\":15237:15241   */\n      dup2\n        /* \"#utility.yul\":15111:15242   */\n      tag_407\n      jump\t// in\n    tag_493:\n        /* \"#utility.yul\":15103:15242   */\n      swap1\n      pop\n        /* \"#utility.yul\":14830:15249   */\n      swap2\n      swap1\n      pop\n      jump\t// out\n        /* \"#utility.yul\":15255:15674   */\n    tag_258:\n        /* \"#utility.yul\":15421:15425   */\n      0x00\n        /* \"#utility.yul\":15459:15461   */\n      0x20\n        /* \"#utility.yul\":15448:15457   */\n      dup3\n        /* \"#utility.yul\":15444:15462   */\n      add\n        /* \"#utility.yul\":15436:15462   */\n      swap1\n      pop\n        /* \"#utility.yul\":15508:15517   */\n      dup2\n        /* \"#utility.yul\":15502:15506   */\n      dup2\n        /* \"#utility.yul\":15498:15518   */\n      sub\n        /* \"#utility.yul\":15494:15495   */\n      0x00\n        /* \"#utility.yul\":15483:15492   */\n      dup4\n        /* \"#utility.yul\":15479:15496   */\n      add\n        /* \"#utility.yul\":15472:15519   */\n      mstore\n        /* \"#utility.yul\":15536:15667   */\n      tag_495\n        /* \"#utility.yul\":15662:15666   */\n      dup2\n        /* \"#utility.yul\":15536:15667   */\n      tag_412\n      jump\t// in\n    tag_495:\n        /* \"#utility.yul\":15528:15667   */\n      swap1\n      pop\n        /* \"#utility.yul\":15255:15674   */\n      swap2\n      swap1\n      pop\n      jump\t// out\n        /* \"#utility.yul\":15680:16099   */\n    tag_201:\n        /* \"#utility.yul\":15846:15850   */\n      0x00\n        /* \"#utility.yul\":15884:15886   */\n      0x20\n        /* \"#utility.yul\":15873:15882   */\n      dup3\n        /* \"#utility.yul\":15869:15887   */\n      add\n        /* \"#utility.yul\":15861:15887   */\n      swap1\n      pop\n        /* \"#utility.yul\":15933:15942   */\n      dup2\n        /* \"#utility.yul\":15927:15931   */\n      dup2\n        /* \"#utility.yul\":15923:15943   */\n      sub\n        /* \"#utility.yul\":15919:15920   */\n      0x00\n        /* \"#utility.yul\":15908:15917   */\n      dup4\n        /* \"#utility.yul\":15904:15921   */\n      add\n        /* \"#utility.yul\":15897:15944   */\n      mstore\n        /* \"#utility.yul\":15961:16092   */\n      tag_497\n        /* \"#utility.yul\":16087:16091   */\n      dup2\n        /* \"#utility.yul\":15961:16092   */\n      tag_417\n      jump\t// in\n    tag_497:\n        /* \"#utility.yul\":15953:16092   */\n      swap1\n      pop\n        /* \"#utility.yul\":15680:16099   */\n      swap2\n      swap1\n      pop\n      jump\t// out\n        /* \"#utility.yul\":16105:16524   */\n    tag_213:\n        /* \"#utility.yul\":16271:16275   */\n      0x00\n        /* \"#utility.yul\":16309:16311   */\n      0x20\n        /* \"#utility.yul\":16298:16307   */\n      dup3\n        /* \"#utility.yul\":16294:16312   */\n      add\n        /* \"#utility.yul\":16286:16312   */\n      swap1\n      pop\n        /* \"#utility.yul\":16358:16367   */\n      dup2\n        /* \"#utility.yul\":16352:16356   */\n      dup2\n        /* \"#utility.yul\":16348:16368   */\n      sub\n        /* \"#utility.yul\":16344:16345   */\n      0x00\n        /* \"#utility.yul\":16333:16342   */\n      dup4\n        /* \"#utility.yul\":16329:16346   */\n      add\n        /* \"#utility.yul\":16322:16369   */\n      mstore\n        /* \"#utility.yul\":16386:16517   */\n      tag_499\n        /* \"#utility.yul\":16512:16516   */\n      dup2\n        /* \"#utility.yul\":16386:16517   */\n      tag_422\n      jump\t// in\n    tag_499:\n        /* \"#utility.yul\":16378:16517   */\n      swap1\n      pop\n        /* \"#utility.yul\":16105:16524   */\n      swap2\n      swap1\n      pop\n      jump\t// out\n        /* \"#utility.yul\":16530:16949   */\n    tag_188:\n        /* \"#utility.yul\":16696:16700   */\n      0x00\n        /* \"#utility.yul\":16734:16736   */\n      0x20\n        /* \"#utility.yul\":16723:16732   */\n      dup3\n        /* \"#utility.yul\":16719:16737   */\n      add\n        /* \"#utility.yul\":16711:16737   */\n      swap1\n      pop\n        /* \"#utility.yul\":16783:16792   */\n      dup2\n        /* \"#utility.yul\":16777:16781   */\n      dup2\n        /* \"#utility.yul\":16773:16793   */\n      sub\n        /* \"#utility.yul\":16769:16770   */\n      0x00\n        /* \"#utility.yul\":16758:16767   */\n      dup4\n        /* \"#utility.yul\":16754:16771   */\n      add\n        /* \"#utility.yul\":16747:16794   */\n      mstore\n        /* \"#utility.yul\":16811:16942   */\n      tag_501\n        /* \"#utility.yul\":16937:16941   */\n      dup2\n        /* \"#utility.yul\":16811:16942   */\n      tag_427\n      jump\t// in\n    tag_501:\n        /* \"#utility.yul\":16803:16942   */\n      swap1\n      pop\n        /* \"#utility.yul\":16530:16949   */\n      swap2\n      swap1\n      pop\n      jump\t// out\n        /* \"#utility.yul\":16955:17374   */\n    tag_114:\n        /* \"#utility.yul\":17121:17125   */\n      0x00\n        /* \"#utility.yul\":17159:17161   */\n      0x20\n        /* \"#utility.yul\":17148:17157   */\n      dup3\n        /* \"#utility.yul\":17144:17162   */\n      add\n        /* \"#utility.yul\":17136:17162   */\n      swap1\n      pop\n        /* \"#utility.yul\":17208:17217   */\n      dup2\n        /* \"#utility.yul\":17202:17206   */\n      dup2\n        /* \"#utility.yul\":17198:17218   */\n      sub\n        /* \"#utility.yul\":17194:17195   */\n      0x00\n        /* \"#utility.yul\":17183:17192   */\n      dup4\n        /* \"#utility.yul\":17179:17196   */\n      add\n        /* \"#utility.yul\":17172:17219   */\n      mstore\n        /* \"#utility.yul\":17236:17367   */\n      tag_503\n        /* \"#utility.yul\":17362:17366   */\n      dup2\n        /* \"#utility.yul\":17236:17367   */\n      tag_432\n      jump\t// in\n    tag_503:\n        /* \"#utility.yul\":17228:17367   */\n      swap1\n      pop\n        /* \"#utility.yul\":16955:17374   */\n      swap2\n      swap1\n      pop\n      jump\t// out\n        /* \"#utility.yul\":17380:17799   */\n    tag_135:\n        /* \"#utility.yul\":17546:17550   */\n      0x00\n        /* \"#utility.yul\":17584:17586   */\n      0x20\n        /* \"#utility.yul\":17573:17582   */\n      dup3\n        /* \"#utility.yul\":17569:17587   */\n      add\n        /* \"#utility.yul\":17561:17587   */\n      swap1\n      pop\n        /* \"#utility.yul\":17633:17642   */\n      dup2\n        /* \"#utility.yul\":17627:17631   */\n      dup2\n        /* \"#utility.yul\":17623:17643   */\n      sub\n        /* \"#utility.yul\":17619:17620   */\n      0x00\n        /* \"#utility.yul\":17608:17617   */\n      dup4\n        /* \"#utility.yul\":17604:17621   */\n      add\n        /* \"#utility.yul\":17597:17644   */\n      mstore\n        /* \"#utility.yul\":17661:17792   */\n      tag_505\n        /* \"#utility.yul\":17787:17791   */\n      dup2\n        /* \"#utility.yul\":17661:17792   */\n      tag_437\n      jump\t// in\n    tag_505:\n        /* \"#utility.yul\":17653:17792   */\n      swap1\n      pop\n        /* \"#utility.yul\":17380:17799   */\n      swap2\n      swap1\n      pop\n      jump\t// out\n        /* \"#utility.yul\":17805:18224   */\n    tag_131:\n        /* \"#utility.yul\":17971:17975   */\n      0x00\n        /* \"#utility.yul\":18009:18011   */\n      0x20\n        /* \"#utility.yul\":17998:18007   */\n      dup3\n        /* \"#utility.yul\":17994:18012   */\n      add\n        /* \"#utility.yul\":17986:18012   */\n      swap1\n      pop\n        /* \"#utility.yul\":18058:18067   */\n      dup2\n        /* \"#utility.yul\":18052:18056   */\n      dup2\n        /* \"#utility.yul\":18048:18068   */\n      sub\n        /* \"#utility.yul\":18044:18045   */\n      0x00\n        /* \"#utility.yul\":18033:18042   */\n      dup4\n        /* \"#utility.yul\":18029:18046   */\n      add\n        /* \"#utility.yul\":18022:18069   */\n      mstore\n        /* \"#utility.yul\":18086:18217   */\n      tag_507\n        /* \"#utility.yul\":18212:18216   */\n      dup2\n        /* \"#utility.yul\":18086:18217   */\n      tag_442\n      jump\t// in\n    tag_507:\n        /* \"#utility.yul\":18078:18217   */\n      swap1\n      pop\n        /* \"#utility.yul\":17805:18224   */\n      swap2\n      swap1\n      pop\n      jump\t// out\n        /* \"#utility.yul\":18230:18649   */\n    tag_254:\n        /* \"#utility.yul\":18396:18400   */\n      0x00\n        /* \"#utility.yul\":18434:18436   */\n      0x20\n        /* \"#utility.yul\":18423:18432   */\n      dup3\n        /* \"#utility.yul\":18419:18437   */\n      add\n        /* \"#utility.yul\":18411:18437   */\n      swap1\n      pop\n        /* \"#utility.yul\":18483:18492   */\n      dup2\n        /* \"#utility.yul\":18477:18481   */\n      dup2\n        /* \"#utility.yul\":18473:18493   */\n      sub\n        /* \"#utility.yul\":18469:18470   */\n      0x00\n        /* \"#utility.yul\":18458:18467   */\n      dup4\n        /* \"#utility.yul\":18454:18471   */\n      add\n        /* \"#utility.yul\":18447:18494   */\n      mstore\n        /* \"#utility.yul\":18511:18642   */\n      tag_509\n        /* \"#utility.yul\":18637:18641   */\n      dup2\n        /* \"#utility.yul\":18511:18642   */\n      tag_447\n      jump\t// in\n    tag_509:\n        /* \"#utility.yul\":18503:18642   */\n      swap1\n      pop\n        /* \"#utility.yul\":18230:18649   */\n      swap2\n      swap1\n      pop\n      jump\t// out\n        /* \"#utility.yul\":18655:19074   */\n    tag_101:\n        /* \"#utility.yul\":18821:18825   */\n      0x00\n        /* \"#utility.yul\":18859:18861   */\n      0x20\n        /* \"#utility.yul\":18848:18857   */\n      dup3\n        /* \"#utility.yul\":18844:18862   */\n      add\n        /* \"#utility.yul\":18836:18862   */\n      swap1\n      pop\n        /* \"#utility.yul\":18908:18917   */\n      dup2\n        /* \"#utility.yul\":18902:18906   */\n      dup2\n        /* \"#utility.yul\":18898:18918   */\n      sub\n        /* \"#utility.yul\":18894:18895   */\n      0x00\n        /* \"#utility.yul\":18883:18892   */\n      dup4\n        /* \"#utility.yul\":18879:18896   */\n      add\n        /* \"#utility.yul\":18872:18919   */\n      mstore\n        /* \"#utility.yul\":18936:19067   */\n      tag_511\n        /* \"#utility.yul\":19062:19066   */\n      dup2\n        /* \"#utility.yul\":18936:19067   */\n      tag_452\n      jump\t// in\n    tag_511:\n        /* \"#utility.yul\":18928:19067   */\n      swap1\n      pop\n        /* \"#utility.yul\":18655:19074   */\n      swap2\n      swap1\n      pop\n      jump\t// out\n        /* \"#utility.yul\":19080:19499   */\n    tag_169:\n        /* \"#utility.yul\":19246:19250   */\n      0x00\n        /* \"#utility.yul\":19284:19286   */\n      0x20\n        /* \"#utility.yul\":19273:19282   */\n      dup3\n        /* \"#utility.yul\":19269:19287   */\n      add\n        /* \"#utility.yul\":19261:19287   */\n      swap1\n      pop\n        /* \"#utility.yul\":19333:19342   */\n      dup2\n        /* \"#utility.yul\":19327:19331   */\n      dup2\n        /* \"#utility.yul\":19323:19343   */\n      sub\n        /* \"#utility.yul\":19319:19320   */\n      0x00\n        /* \"#utility.yul\":19308:19317   */\n      dup4\n        /* \"#utility.yul\":19304:19321   */\n      add\n        /* \"#utility.yul\":19297:19344   */\n      mstore\n        /* \"#utility.yul\":19361:19492   */\n      tag_513\n        /* \"#utility.yul\":19487:19491   */\n      dup2\n        /* \"#utility.yul\":19361:19492   */\n      tag_457\n      jump\t// in\n    tag_513:\n        /* \"#utility.yul\":19353:19492   */\n      swap1\n      pop\n        /* \"#utility.yul\":19080:19499   */\n      swap2\n      swap1\n      pop\n      jump\t// out\n        /* \"#utility.yul\":19505:19924   */\n    tag_106:\n        /* \"#utility.yul\":19671:19675   */\n      0x00\n        /* \"#utility.yul\":19709:19711   */\n      0x20\n        /* \"#utility.yul\":19698:19707   */\n      dup3\n        /* \"#utility.yul\":19694:19712   */\n      add\n        /* \"#utility.yul\":19686:19712   */\n      swap1\n      pop\n        /* \"#utility.yul\":19758:19767   */\n      dup2\n        /* \"#utility.yul\":19752:19756   */\n      dup2\n        /* \"#utility.yul\":19748:19768   */\n      sub\n        /* \"#utility.yul\":19744:19745   */\n      0x00\n        /* \"#utility.yul\":19733:19742   */\n      dup4\n        /* \"#utility.yul\":19729:19746   */\n      add\n        /* \"#utility.yul\":19722:19769   */\n      mstore\n        /* \"#utility.yul\":19786:19917   */\n      tag_515\n        /* \"#utility.yul\":19912:19916   */\n      dup2\n        /* \"#utility.yul\":19786:19917   */\n      tag_462\n      jump\t// in\n    tag_515:\n        /* \"#utility.yul\":19778:19917   */\n      swap1\n      pop\n        /* \"#utility.yul\":19505:19924   */\n      swap2\n      swap1\n      pop\n      jump\t// out\n        /* \"#utility.yul\":19930:20349   */\n    tag_123:\n        /* \"#utility.yul\":20096:20100   */\n      0x00\n        /* \"#utility.yul\":20134:20136   */\n      0x20\n        /* \"#utility.yul\":20123:20132   */\n      dup3\n        /* \"#utility.yul\":20119:20137   */\n      add\n        /* \"#utility.yul\":20111:20137   */\n      swap1\n      pop\n        /* \"#utility.yul\":20183:20192   */\n      dup2\n        /* \"#utility.yul\":20177:20181   */\n      dup2\n        /* \"#utility.yul\":20173:20193   */\n      sub\n        /* \"#utility.yul\":20169:20170   */\n      0x00\n        /* \"#utility.yul\":20158:20167   */\n      dup4\n        /* \"#utility.yul\":20154:20171   */\n      add\n        /* \"#utility.yul\":20147:20194   */\n      mstore\n        /* \"#utility.yul\":20211:20342   */\n      tag_517\n        /* \"#utility.yul\":20337:20341   */\n      dup2\n        /* \"#utility.yul\":20211:20342   */\n      tag_467\n      jump\t// in\n    tag_517:\n        /* \"#utility.yul\":20203:20342   */\n      swap1\n      pop\n        /* \"#utility.yul\":19930:20349   */\n      swap2\n      swap1\n      pop\n      jump\t// out\n        /* \"#utility.yul\":20355:20577   */\n    tag_57:\n        /* \"#utility.yul\":20448:20452   */\n      0x00\n        /* \"#utility.yul\":20486:20488   */\n      0x20\n        /* \"#utility.yul\":20475:20484   */\n      dup3\n        /* \"#utility.yul\":20471:20489   */\n      add\n        /* \"#utility.yul\":20463:20489   */\n      swap1\n      pop\n        /* \"#utility.yul\":20499:20570   */\n      tag_519\n        /* \"#utility.yul\":20567:20568   */\n      0x00\n        /* \"#utility.yul\":20556:20565   */\n      dup4\n        /* \"#utility.yul\":20552:20569   */\n      add\n        /* \"#utility.yul\":20543:20549   */\n      dup5\n        /* \"#utility.yul\":20499:20570   */\n      tag_472\n      jump\t// in\n    tag_519:\n        /* \"#utility.yul\":20355:20577   */\n      swap3\n      swap2\n      pop\n      pop\n      jump\t// out\n        /* \"#utility.yul\":20583:20712   */\n    tag_291:\n        /* \"#utility.yul\":20617:20623   */\n      0x00\n        /* \"#utility.yul\":20644:20664   */\n      tag_521\n      tag_522\n      jump\t// in\n    tag_521:\n        /* \"#utility.yul\":20634:20664   */\n      swap1\n      pop\n        /* \"#utility.yul\":20673:20706   */\n      tag_523\n        /* \"#utility.yul\":20701:20705   */\n      dup3\n        /* \"#utility.yul\":20693:20699   */\n      dup3\n        /* \"#utility.yul\":20673:20706   */\n      tag_524\n      jump\t// in\n    tag_523:\n        /* \"#utility.yul\":20583:20712   */\n      swap2\n      swap1\n      pop\n      jump\t// out\n        /* \"#utility.yul\":20718:20793   */\n    tag_522:\n        /* \"#utility.yul\":20751:20757   */\n      0x00\n        /* \"#utility.yul\":20784:20786   */\n      0x40\n        /* \"#utility.yul\":20778:20787   */\n      mload\n        /* \"#utility.yul\":20768:20787   */\n      swap1\n      pop\n        /* \"#utility.yul\":20718:20793   */\n      swap1\n      jump\t// out\n        /* \"#utility.yul\":20799:21106   */\n    tag_290:\n        /* \"#utility.yul\":20860:20864   */\n      0x00\n        /* \"#utility.yul\":20950:20968   */\n      0xffffffffffffffff\n        /* \"#utility.yul\":20942:20948   */\n      dup3\n        /* \"#utility.yul\":20939:20969   */\n      gt\n        /* \"#utility.yul\":20936:20992   */\n      iszero\n      tag_527\n      jumpi\n        /* \"#utility.yul\":20972:20990   */\n      tag_528\n      tag_239\n      jump\t// in\n    tag_528:\n        /* \"#utility.yul\":20936:20992   */\n    tag_527:\n        /* \"#utility.yul\":21010:21039   */\n      tag_529\n        /* \"#utility.yul\":21032:21038   */\n      dup3\n        /* \"#utility.yul\":21010:21039   */\n      tag_387\n      jump\t// in\n    tag_529:\n        /* \"#utility.yul\":21002:21039   */\n      swap1\n      pop\n        /* \"#utility.yul\":21094:21098   */\n      0x20\n        /* \"#utility.yul\":21088:21092   */\n      dup2\n        /* \"#utility.yul\":21084:21099   */\n      add\n        /* \"#utility.yul\":21076:21099   */\n      swap1\n      pop\n        /* \"#utility.yul\":20799:21106   */\n      swap2\n      swap1\n      pop\n      jump\t// out\n        /* \"#utility.yul\":21112:21210   */\n    tag_381:\n        /* \"#utility.yul\":21163:21169   */\n      0x00\n        /* \"#utility.yul\":21197:21202   */\n      dup2\n        /* \"#utility.yul\":21191:21203   */\n      mload\n        /* \"#utility.yul\":21181:21203   */\n      swap1\n      pop\n        /* \"#utility.yul\":21112:21210   */\n      swap2\n      swap1\n      pop\n      jump\t// out\n        /* \"#utility.yul\":21216:21315   */\n    tag_391:\n        /* \"#utility.yul\":21268:21274   */\n      0x00\n        /* \"#utility.yul\":21302:21307   */\n      dup2\n        /* \"#utility.yul\":21296:21308   */\n      mload\n        /* \"#utility.yul\":21286:21308   */\n      swap1\n      pop\n        /* \"#utility.yul\":21216:21315   */\n      swap2\n      swap1\n      pop\n      jump\t// out\n        /* \"#utility.yul\":21321:21489   */\n    tag_383:\n        /* \"#utility.yul\":21404:21415   */\n      0x00\n        /* \"#utility.yul\":21438:21444   */\n      dup3\n        /* \"#utility.yul\":21433:21436   */\n      dup3\n        /* \"#utility.yul\":21426:21445   */\n      mstore\n        /* \"#utility.yul\":21478:21482   */\n      0x20\n        /* \"#utility.yul\":21473:21476   */\n      dup3\n        /* \"#utility.yul\":21469:21483   */\n      add\n        /* \"#utility.yul\":21454:21483   */\n      swap1\n      pop\n        /* \"#utility.yul\":21321:21489   */\n      swap3\n      swap2\n      pop\n      pop\n      jump\t// out\n        /* \"#utility.yul\":21495:21664   */\n    tag_393:\n        /* \"#utility.yul\":21579:21590   */\n      0x00\n        /* \"#utility.yul\":21613:21619   */\n      dup3\n        /* \"#utility.yul\":21608:21611   */\n      dup3\n        /* \"#utility.yul\":21601:21620   */\n      mstore\n        /* \"#utility.yul\":21653:21657   */\n      0x20\n        /* \"#utility.yul\":21648:21651   */\n      dup3\n        /* \"#utility.yul\":21644:21658   */\n      add\n        /* \"#utility.yul\":21629:21658   */\n      swap1\n      pop\n        /* \"#utility.yul\":21495:21664   */\n      swap3\n      swap2\n      pop\n      pop\n      jump\t// out\n        /* \"#utility.yul\":21670:21818   */\n    tag_400:\n        /* \"#utility.yul\":21772:21783   */\n      0x00\n        /* \"#utility.yul\":21809:21812   */\n      dup2\n        /* \"#utility.yul\":21794:21812   */\n      swap1\n      pop\n        /* \"#utility.yul\":21670:21818   */\n      swap3\n      swap2\n      pop\n      pop\n      jump\t// out\n        /* \"#utility.yul\":21824:22129   */\n    tag_206:\n        /* \"#utility.yul\":21864:21867   */\n      0x00\n        /* \"#utility.yul\":21883:21903   */\n      tag_536\n        /* \"#utility.yul\":21901:21902   */\n      dup3\n        /* \"#utility.yul\":21883:21903   */\n      tag_475\n      jump\t// in\n    tag_536:\n        /* \"#utility.yul\":21878:21903   */\n      swap2\n      pop\n        /* \"#utility.yul\":21917:21937   */\n      tag_537\n        /* \"#utility.yul\":21935:21936   */\n      dup4\n        /* \"#utility.yul\":21917:21937   */\n      tag_475\n      jump\t// in\n    tag_537:\n        /* \"#utility.yul\":21912:21937   */\n      swap3\n      pop\n        /* \"#utility.yul\":22071:22072   */\n      dup3\n        /* \"#utility.yul\":22003:22069   */\n      0xffffffffffffffffffffffffffffffffffffffffffffffffffffffffffffffff\n        /* \"#utility.yul\":21999:22073   */\n      sub\n        /* \"#utility.yul\":21996:21997   */\n      dup3\n        /* \"#utility.yul\":21993:22074   */\n      gt\n        /* \"#utility.yul\":21990:22097   */\n      iszero\n      tag_538\n      jumpi\n        /* \"#utility.yul\":22077:22095   */\n      tag_539\n      tag_540\n      jump\t// in\n    tag_539:\n        /* \"#utility.yul\":21990:22097   */\n    tag_538:\n        /* \"#utility.yul\":22121:22122   */\n      dup3\n        /* \"#utility.yul\":22118:22119   */\n      dup3\n        /* \"#utility.yul\":22114:22123   */\n      add\n        /* \"#utility.yul\":22107:22123   */\n      swap1\n      pop\n        /* \"#utility.yul\":21824:22129   */\n      swap3\n      swap2\n      pop\n      pop\n      jump\t// out\n        /* \"#utility.yul\":22135:22320   */\n    tag_236:\n        /* \"#utility.yul\":22175:22176   */\n      0x00\n        /* \"#utility.yul\":22192:22212   */\n      tag_542\n        /* \"#utility.yul\":22210:22211   */\n      dup3\n        /* \"#utility.yul\":22192:22212   */\n      tag_475\n      jump\t// in\n    tag_542:\n        /* \"#utility.yul\":22187:22212   */\n      swap2\n      pop\n        /* \"#utility.yul\":22226:22246   */\n      tag_543\n        /* \"#utility.yul\":22244:22245   */\n      dup4\n        /* \"#utility.yul\":22226:22246   */\n      tag_475\n      jump\t// in\n    tag_543:\n        /* \"#utility.yul\":22221:22246   */\n      swap3\n      pop\n        /* \"#utility.yul\":22265:22266   */\n      dup3\n        /* \"#utility.yul\":22255:22290   */\n      tag_544\n      jumpi\n        /* \"#utility.yul\":22270:22288   */\n      tag_545\n      tag_546\n      jump\t// in\n    tag_545:\n        /* \"#utility.yul\":22255:22290   */\n    tag_544:\n        /* \"#utility.yul\":22312:22313   */\n      dup3\n        /* \"#utility.yul\":22309:22310   */\n      dup3\n        /* \"#utility.yul\":22305:22314   */\n      div\n        /* \"#utility.yul\":22300:22314   */\n      swap1\n      pop\n        /* \"#utility.yul\":22135:22320   */\n      swap3\n      swap2\n      pop\n      pop\n      jump\t// out\n        /* \"#utility.yul\":22326:22517   */\n    tag_148:\n        /* \"#utility.yul\":22366:22370   */\n      0x00\n        /* \"#utility.yul\":22386:22406   */\n      tag_548\n        /* \"#utility.yul\":22404:22405   */\n      dup3\n        /* \"#utility.yul\":22386:22406   */\n      tag_475\n      jump\t// in\n    tag_548:\n        /* \"#utility.yul\":22381:22406   */\n      swap2\n      pop\n        /* \"#utility.yul\":22420:22440   */\n      tag_549\n        /* \"#utility.yul\":22438:22439   */\n      dup4\n        /* \"#utility.yul\":22420:22440   */\n      tag_475\n      jump\t// in\n    tag_549:\n        /* \"#utility.yul\":22415:22440   */\n      swap3\n      pop\n        /* \"#utility.yul\":22459:22460   */\n      dup3\n        /* \"#utility.yul\":22456:22457   */\n      dup3\n        /* \"#utility.yul\":22453:22461   */\n      lt\n        /* \"#utility.yul\":22450:22484   */\n      iszero\n      tag_550\n      jumpi\n        /* \"#utility.yul\":22464:22482   */\n      tag_551\n      tag_540\n      jump\t// in\n    tag_551:\n        /* \"#utility.yul\":22450:22484   */\n    tag_550:\n        /* \"#utility.yul\":22509:22510   */\n      dup3\n        /* \"#utility.yul\":22506:22507   */\n      dup3\n        /* \"#utility.yul\":22502:22511   */\n      sub\n        /* \"#utility.yul\":22494:22511   */\n      swap1\n      pop\n        /* \"#utility.yul\":22326:22517   */\n      swap3\n      swap2\n      pop\n      pop\n      jump\t// out\n        /* \"#utility.yul\":22523:22619   */\n    tag_373:\n        /* \"#utility.yul\":22560:22567   */\n      0x00\n        /* \"#utility.yul\":22589:22613   */\n      tag_553\n        /* \"#utility.yul\":22607:22612   */\n      dup3\n        /* \"#utility.yul\":22589:22613   */\n      tag_554\n      jump\t// in\n    tag_553:\n        /* \"#utility.yul\":22578:22613   */\n      swap1\n      pop\n        /* \"#utility.yul\":22523:22619   */\n      swap2\n      swap1\n      pop\n      jump\t// out\n        /* \"#utility.yul\":22625:22715   */\n    tag_377:\n        /* \"#utility.yul\":22659:22666   */\n      0x00\n        /* \"#utility.yul\":22702:22707   */\n      dup2\n        /* \"#utility.yul\":22695:22708   */\n      iszero\n        /* \"#utility.yul\":22688:22709   */\n      iszero\n        /* \"#utility.yul\":22677:22709   */\n      swap1\n      pop\n        /* \"#utility.yul\":22625:22715   */\n      swap2\n      swap1\n      pop\n      jump\t// out\n        /* \"#utility.yul\":22721:22870   */\n    tag_556:\n        /* \"#utility.yul\":22757:22764   */\n      0x00\n        /* \"#utility.yul\":22797:22863   */\n      0xffffffff00000000000000000000000000000000000000000000000000000000\n        /* \"#utility.yul\":22790:22795   */\n      dup3\n        /* \"#utility.yul\":22786:22864   */\n      and\n        /* \"#utility.yul\":22775:22864   */\n      swap1\n      pop\n        /* \"#utility.yul\":22721:22870   */\n      swap2\n      swap1\n      pop\n      jump\t// out\n        /* \"#utility.yul\":22876:23002   */\n    tag_554:\n        /* \"#utility.yul\":22913:22920   */\n      0x00\n        /* \"#utility.yul\":22953:22995   */\n      0xffffffffffffffffffffffffffffffffffffffff\n        /* \"#utility.yul\":22946:22951   */\n      dup3\n        /* \"#utility.yul\":22942:22996   */\n      and\n        /* \"#utility.yul\":22931:22996   */\n      swap1\n      pop\n        /* \"#utility.yul\":22876:23002   */\n      swap2\n      swap1\n      pop\n      jump\t// out\n        /* \"#utility.yul\":23008:23085   */\n    tag_475:\n        /* \"#utility.yul\":23045:23052   */\n      0x00\n        /* \"#utility.yul\":23074:23079   */\n      dup2\n        /* \"#utility.yul\":23063:23079   */\n      swap1\n      pop\n        /* \"#utility.yul\":23008:23085   */\n      swap2\n      swap1\n      pop\n      jump\t// out\n        /* \"#utility.yul\":23091:23245   */\n    tag_296:\n        /* \"#utility.yul\":23175:23181   */\n      dup3\n        /* \"#utility.yul\":23170:23173   */\n      dup2\n        /* \"#utility.yul\":23165:23168   */\n      dup4\n        /* \"#utility.yul\":23152:23182   */\n      calldatacopy\n        /* \"#utility.yul\":23237:23238   */\n      0x00\n        /* \"#utility.yul\":23228:23234   */\n      dup4\n        /* \"#utility.yul\":23223:23226   */\n      dup4\n        /* \"#utility.yul\":23219:23235   */\n      add\n        /* \"#utility.yul\":23212:23239   */\n      mstore\n        /* \"#utility.yul\":23091:23245   */\n      pop\n      pop\n      pop\n      jump\t// out\n        /* \"#utility.yul\":23251:23558   */\n    tag_385:\n        /* \"#utility.yul\":23319:23320   */\n      0x00\n        /* \"#utility.yul\":23329:23442   */\n    tag_562:\n        /* \"#utility.yul\":23343:23349   */\n      dup4\n        /* \"#utility.yul\":23340:23341   */\n      dup2\n        /* \"#utility.yul\":23337:23350   */\n      lt\n        /* \"#utility.yul\":23329:23442   */\n      iszero\n      tag_564\n      jumpi\n        /* \"#utility.yul\":23428:23429   */\n      dup1\n        /* \"#utility.yul\":23423:23426   */\n      dup3\n        /* \"#utility.yul\":23419:23430   */\n      add\n        /* \"#utility.yul\":23413:23431   */\n      mload\n        /* \"#utility.yul\":23409:23410   */\n      dup2\n        /* \"#utility.yul\":23404:23407   */\n      dup5\n        /* \"#utility.yul\":23400:23411   */\n      add\n        /* \"#utility.yul\":23393:23432   */\n      mstore\n        /* \"#utility.yul\":23365:23367   */\n      0x20\n        /* \"#utility.yul\":23362:23363   */\n      dup2\n        /* \"#utility.yul\":23358:23368   */\n      add\n        /* \"#utility.yul\":23353:23368   */\n      swap1\n      pop\n        /* \"#utility.yul\":23329:23442   */\n      jump(tag_562)\n    tag_564:\n        /* \"#utility.yul\":23460:23466   */\n      dup4\n        /* \"#utility.yul\":23457:23458   */\n      dup2\n        /* \"#utility.yul\":23454:23467   */\n      gt\n        /* \"#utility.yul\":23451:23552   */\n      iszero\n      tag_565\n      jumpi\n        /* \"#utility.yul\":23540:23541   */\n      0x00\n        /* \"#utility.yul\":23531:23537   */\n      dup5\n        /* \"#utility.yul\":23526:23529   */\n      dup5\n        /* \"#utility.yul\":23522:23538   */\n      add\n        /* \"#utility.yul\":23515:23542   */\n      mstore\n        /* \"#utility.yul\":23451:23552   */\n    tag_565:\n        /* \"#utility.yul\":23300:23558   */\n      pop\n        /* \"#utility.yul\":23251:23558   */\n      pop\n      pop\n      pop\n      jump\t// out\n        /* \"#utility.yul\":23564:23884   */\n    tag_91:\n        /* \"#utility.yul\":23608:23614   */\n      0x00\n        /* \"#utility.yul\":23645:23646   */\n      0x02\n        /* \"#utility.yul\":23639:23643   */\n      dup3\n        /* \"#utility.yul\":23635:23647   */\n      div\n        /* \"#utility.yul\":23625:23647   */\n      swap1\n      pop\n        /* \"#utility.yul\":23692:23693   */\n      0x01\n        /* \"#utility.yul\":23686:23690   */\n      dup3\n        /* \"#utility.yul\":23682:23694   */\n      and\n        /* \"#utility.yul\":23713:23731   */\n      dup1\n        /* \"#utility.yul\":23703:23784   */\n      tag_567\n      jumpi\n        /* \"#utility.yul\":23769:23773   */\n      0x7f\n        /* \"#utility.yul\":23761:23767   */\n      dup3\n        /* \"#utility.yul\":23757:23774   */\n      and\n        /* \"#utility.yul\":23747:23774   */\n      swap2\n      pop\n        /* \"#utility.yul\":23703:23784   */\n    tag_567:\n        /* \"#utility.yul\":23831:23833   */\n      0x20\n        /* \"#utility.yul\":23823:23829   */\n      dup3\n        /* \"#utility.yul\":23820:23834   */\n      lt\n        /* \"#utility.yul\":23800:23818   */\n      dup2\n        /* \"#utility.yul\":23797:23835   */\n      eq\n        /* \"#utility.yul\":23794:23878   */\n      iszero\n      tag_568\n      jumpi\n        /* \"#utility.yul\":23850:23868   */\n      tag_569\n      tag_570\n      jump\t// in\n    tag_569:\n        /* \"#utility.yul\":23794:23878   */\n    tag_568:\n        /* \"#utility.yul\":23615:23884   */\n      pop\n        /* \"#utility.yul\":23564:23884   */\n      swap2\n      swap1\n      pop\n      jump\t// out\n        /* \"#utility.yul\":23890:24171   */\n    tag_524:\n        /* \"#utility.yul\":23973:24000   */\n      tag_572\n        /* \"#utility.yul\":23995:23999   */\n      dup3\n        /* \"#utility.yul\":23973:24000   */\n      tag_387\n      jump\t// in\n    tag_572:\n        /* \"#utility.yul\":23965:23971   */\n      dup2\n        /* \"#utility.yul\":23961:24001   */\n      add\n        /* \"#utility.yul\":24103:24109   */\n      dup2\n        /* \"#utility.yul\":24091:24101   */\n      dup2\n        /* \"#utility.yul\":24088:24110   */\n      lt\n        /* \"#utility.yul\":24067:24085   */\n      0xffffffffffffffff\n        /* \"#utility.yul\":24055:24065   */\n      dup3\n        /* \"#utility.yul\":24052:24086   */\n      gt\n        /* \"#utility.yul\":24049:24111   */\n      or\n        /* \"#utility.yul\":24046:24134   */\n      iszero\n      tag_573\n      jumpi\n        /* \"#utility.yul\":24114:24132   */\n      tag_574\n      tag_239\n      jump\t// in\n    tag_574:\n        /* \"#utility.yul\":24046:24134   */\n    tag_573:\n        /* \"#utility.yul\":24154:24164   */\n      dup1\n        /* \"#utility.yul\":24150:24152   */\n      0x40\n        /* \"#utility.yul\":24143:24165   */\n      mstore\n        /* \"#utility.yul\":23933:24171   */\n      pop\n        /* \"#utility.yul\":23890:24171   */\n      pop\n      pop\n      jump\t// out\n        /* \"#utility.yul\":24177:24410   */\n    tag_234:\n        /* \"#utility.yul\":24216:24219   */\n      0x00\n        /* \"#utility.yul\":24239:24263   */\n      tag_576\n        /* \"#utility.yul\":24257:24262   */\n      dup3\n        /* \"#utility.yul\":24239:24263   */\n      tag_475\n      jump\t// in\n    tag_576:\n        /* \"#utility.yul\":24230:24263   */\n      swap2\n      pop\n        /* \"#utility.yul\":24285:24351   */\n      0xffffffffffffffffffffffffffffffffffffffffffffffffffffffffffffffff\n        /* \"#utility.yul\":24278:24283   */\n      dup3\n        /* \"#utility.yul\":24275:24352   */\n      eq\n        /* \"#utility.yul\":24272:24375   */\n      iszero\n      tag_577\n      jumpi\n        /* \"#utility.yul\":24355:24373   */\n      tag_578\n      tag_540\n      jump\t// in\n    tag_578:\n        /* \"#utility.yul\":24272:24375   */\n    tag_577:\n        /* \"#utility.yul\":24402:24403   */\n      0x01\n        /* \"#utility.yul\":24395:24400   */\n      dup3\n        /* \"#utility.yul\":24391:24404   */\n      add\n        /* \"#utility.yul\":24384:24404   */\n      swap1\n      pop\n        /* \"#utility.yul\":24177:24410   */\n      swap2\n      swap1\n      pop\n      jump\t// out\n        /* \"#utility.yul\":24416:24592   */\n    tag_245:\n        /* \"#utility.yul\":24448:24449   */\n      0x00\n        /* \"#utility.yul\":24465:24485   */\n      tag_580\n        /* \"#utility.yul\":24483:24484   */\n      dup3\n        /* \"#utility.yul\":24465:24485   */\n      tag_475\n      jump\t// in\n    tag_580:\n        /* \"#utility.yul\":24460:24485   */\n      swap2\n      pop\n        /* \"#utility.yul\":24499:24519   */\n      tag_581\n        /* \"#utility.yul\":24517:24518   */\n      dup4\n        /* \"#utility.yul\":24499:24519   */\n      tag_475\n      jump\t// in\n    tag_581:\n        /* \"#utility.yul\":24494:24519   */\n      swap3\n      pop\n        /* \"#utility.yul\":24538:24539   */\n      dup3\n        /* \"#utility.yul\":24528:24563   */\n      tag_582\n      jumpi\n        /* \"#utility.yul\":24543:24561   */\n      tag_583\n      tag_546\n      jump\t// in\n    tag_583:\n        /* \"#utility.yul\":24528:24563   */\n    tag_582:\n        /* \"#utility.yul\":24584:24585   */\n      dup3\n        /* \"#utility.yul\":24581:24582   */\n      dup3\n        /* \"#utility.yul\":24577:24586   */\n      mod\n        /* \"#utility.yul\":24572:24586   */\n      swap1\n      pop\n        /* \"#utility.yul\":24416:24592   */\n      swap3\n      swap2\n      pop\n      pop\n      jump\t// out\n        /* \"#utility.yul\":24598:24778   */\n    tag_540:\n        /* \"#utility.yul\":24646:24723   */\n      0x4e487b7100000000000000000000000000000000000000000000000000000000\n        /* \"#utility.yul\":24643:24644   */\n      0x00\n        /* \"#utility.yul\":24636:24724   */\n      mstore\n        /* \"#utility.yul\":24743:24747   */\n      0x11\n        /* \"#utility.yul\":24740:24741   */\n      0x04\n        /* \"#utility.yul\":24733:24748   */\n      mstore\n        /* \"#utility.yul\":24767:24771   */\n      0x24\n        /* \"#utility.yul\":24764:24765   */\n      0x00\n        /* \"#utility.yul\":24757:24772   */\n      revert\n        /* \"#utility.yul\":24784:24964   */\n    tag_546:\n        /* \"#utility.yul\":24832:24909   */\n      0x4e487b7100000000000000000000000000000000000000000000000000000000\n        /* \"#utility.yul\":24829:24830   */\n      0x00\n        /* \"#utility.yul\":24822:24910   */\n      mstore\n        /* \"#utility.yul\":24929:24933   */\n      0x12\n        /* \"#utility.yul\":24926:24927   */\n      0x04\n        /* \"#utility.yul\":24919:24934   */\n      mstore\n        /* \"#utility.yul\":24953:24957   */\n      0x24\n        /* \"#utility.yul\":24950:24951   */\n      0x00\n        /* \"#utility.yul\":24943:24958   */\n      revert\n        /* \"#utility.yul\":24970:25150   */\n    tag_570:\n        /* \"#utility.yul\":25018:25095   */\n      0x4e487b7100000000000000000000000000000000000000000000000000000000\n        /* \"#utility.yul\":25015:25016   */\n      0x00\n        /* \"#utility.yul\":25008:25096   */\n      mstore\n        /* \"#utility.yul\":25115:25119   */\n      0x22\n        /* \"#utility.yul\":25112:25113   */\n      0x04\n        /* \"#utility.yul\":25105:25120   */\n      mstore\n        /* \"#utility.yul\":25139:25143   */\n      0x24\n        /* \"#utility.yul\":25136:25137   */\n      0x00\n        /* \"#utility.yul\":25129:25144   */\n      revert\n        /* \"#utility.yul\":25156:25336   */\n    tag_249:\n        /* \"#utility.yul\":25204:25281   */\n      0x4e487b7100000000000000000000000000000000000000000000000000000000\n        /* \"#utility.yul\":25201:25202   */\n      0x00\n        /* \"#utility.yul\":25194:25282   */\n      mstore\n        /* \"#utility.yul\":25301:25305   */\n      0x32\n        /* \"#utility.yul\":25298:25299   */\n      0x04\n        /* \"#utility.yul\":25291:25306   */\n      mstore\n        /* \"#utility.yul\":25325:25329   */\n      0x24\n        /* \"#utility.yul\":25322:25323   */\n      0x00\n        /* \"#utility.yul\":25315:25330   */\n      revert\n        /* \"#utility.yul\":25342:25522   */\n    tag_239:\n        /* \"#utility.yul\":25390:25467   */\n      0x4e487b7100000000000000000000000000000000000000000000000000000000\n        /* \"#utility.yul\":25387:25388   */\n      0x00\n        /* \"#utility.yul\":25380:25468   */\n      mstore\n        /* \"#utility.yul\":25487:25491   */\n      0x41\n        /* \"#utility.yul\":25484:25485   */\n      0x04\n        /* \"#utility.yul\":25477:25492   */\n      mstore\n        /* \"#utility.yul\":25511:25515   */\n      0x24\n        /* \"#utility.yul\":25508:25509   */\n      0x00\n        /* \"#utility.yul\":25501:25516   */\n      revert\n        /* \"#utility.yul\":25528:25645   */\n    tag_316:\n        /* \"#utility.yul\":25637:25638   */\n      0x00\n        /* \"#utility.yul\":25634:25635   */\n      dup1\n        /* \"#utility.yul\":25627:25639   */\n      revert\n        /* \"#utility.yul\":25651:25768   */\n    tag_294:\n        /* \"#utility.yul\":25760:25761   */\n      0x00\n        /* \"#utility.yul\":25757:25758   */\n      dup1\n        /* \"#utility.yul\":25750:25762   */\n      revert\n        /* \"#utility.yul\":25774:25891   */\n    tag_346:\n        /* \"#utility.yul\":25883:25884   */\n      0x00\n        /* \"#utility.yul\":25880:25881   */\n      dup1\n        /* \"#utility.yul\":25873:25885   */\n      revert\n        /* \"#utility.yul\":25897:26014   */\n    tag_325:\n        /* \"#utility.yul\":26006:26007   */\n      0x00\n        /* \"#utility.yul\":26003:26004   */\n      dup1\n        /* \"#utility.yul\":25996:26008   */\n      revert\n        /* \"#utility.yul\":26020:26122   */\n    tag_387:\n        /* \"#utility.yul\":26061:26067   */\n      0x00\n        /* \"#utility.yul\":26112:26114   */\n      0x1f\n        /* \"#utility.yul\":26108:26115   */\n      not\n        /* \"#utility.yul\":26103:26105   */\n      0x1f\n        /* \"#utility.yul\":26096:26101   */\n      dup4\n        /* \"#utility.yul\":26092:26106   */\n      add\n        /* \"#utility.yul\":26088:26116   */\n      and\n        /* \"#utility.yul\":26078:26116   */\n      swap1\n      pop\n        /* \"#utility.yul\":26020:26122   */\n      swap2\n      swap1\n      pop\n      jump\t// out\n        /* \"#utility.yul\":26128:26365   */\n    tag_406:\n        /* \"#utility.yul\":26268:26302   */\n      0x4552433732313a207472616e7366657220746f206e6f6e204552433732315265\n        /* \"#utility.yul\":26264:26265   */\n      0x00\n        /* \"#utility.yul\":26256:26262   */\n      dup3\n        /* \"#utility.yul\":26252:26266   */\n      add\n        /* \"#utility.yul\":26245:26303   */\n      mstore\n        /* \"#utility.yul\":26337:26357   */\n      0x63656976657220696d706c656d656e7465720000000000000000000000000000\n        /* \"#utility.yul\":26332:26334   */\n      0x20\n        /* \"#utility.yul\":26324:26330   */\n      dup3\n        /* \"#utility.yul\":26320:26335   */\n      add\n        /* \"#utility.yul\":26313:26358   */\n      mstore\n        /* \"#utility.yul\":26128:26365   */\n      pop\n      jump\t// out\n        /* \"#utility.yul\":26371:26595   */\n    tag_411:\n        /* \"#utility.yul\":26511:26545   */\n      0x4552433732313a207472616e736665722066726f6d20696e636f727265637420\n        /* \"#utility.yul\":26507:26508   */\n      0x00\n        /* \"#utility.yul\":26499:26505   */\n      dup3\n        /* \"#utility.yul\":26495:26509   */\n      add\n        /* \"#utility.yul\":26488:26546   */\n      mstore\n        /* \"#utility.yul\":26580:26587   */\n      0x6f776e6572000000000000000000000000000000000000000000000000000000\n        /* \"#utility.yul\":26575:26577   */\n      0x20\n        /* \"#utility.yul\":26567:26573   */\n      dup3\n        /* \"#utility.yul\":26563:26578   */\n      add\n        /* \"#utility.yul\":26556:26588   */\n      mstore\n        /* \"#utility.yul\":26371:26595   */\n      pop\n      jump\t// out\n        /* \"#utility.yul\":26601:26779   */\n    tag_416:\n        /* \"#utility.yul\":26741:26771   */\n      0x4552433732313a20746f6b656e20616c7265616479206d696e74656400000000\n        /* \"#utility.yul\":26737:26738   */\n      0x00\n        /* \"#utility.yul\":26729:26735   */\n      dup3\n        /* \"#utility.yul\":26725:26739   */\n      add\n        /* \"#utility.yul\":26718:26772   */\n      mstore\n        /* \"#utility.yul\":26601:26779   */\n      pop\n      jump\t// out\n        /* \"#utility.yul\":26785:27008   */\n    tag_421:\n        /* \"#utility.yul\":26925:26959   */\n      0x4552433732313a207472616e7366657220746f20746865207a65726f20616464\n        /* \"#utility.yul\":26921:26922   */\n      0x00\n        /* \"#utility.yul\":26913:26919   */\n      dup3\n        /* \"#utility.yul\":26909:26923   */\n      add\n        /* \"#utility.yul\":26902:26960   */\n      mstore\n        /* \"#utility.yul\":26994:27000   */\n      0x7265737300000000000000000000000000000000000000000000000000000000\n        /* \"#utility.yul\":26989:26991   */\n      0x20\n        /* \"#utility.yul\":26981:26987   */\n      dup3\n        /* \"#utility.yul\":26977:26992   */\n      add\n        /* \"#utility.yul\":26970:27001   */\n      mstore\n        /* \"#utility.yul\":26785:27008   */\n      pop\n      jump\t// out\n        /* \"#utility.yul\":27014:27189   */\n    tag_426:\n        /* \"#utility.yul\":27154:27181   */\n      0x4552433732313a20617070726f766520746f2063616c6c657200000000000000\n        /* \"#utility.yul\":27150:27151   */\n      0x00\n        /* \"#utility.yul\":27142:27148   */\n      dup3\n        /* \"#utility.yul\":27138:27152   */\n      add\n        /* \"#utility.yul\":27131:27182   */\n      mstore\n        /* \"#utility.yul\":27014:27189   */\n      pop\n      jump\t// out\n        /* \"#utility.yul\":27195:27426   */\n    tag_431:\n        /* \"#utility.yul\":27335:27369   */\n      0x4552433732313a206f70657261746f7220717565727920666f72206e6f6e6578\n        /* \"#utility.yul\":27331:27332   */\n      0x00\n        /* \"#utility.yul\":27323:27329   */\n      dup3\n        /* \"#utility.yul\":27319:27333   */\n      add\n        /* \"#utility.yul\":27312:27370   */\n      mstore\n        /* \"#utility.yul\":27404:27418   */\n      0x697374656e7420746f6b656e0000000000000000000000000000000000000000\n        /* \"#utility.yul\":27399:27401   */\n      0x20\n        /* \"#utility.yul\":27391:27397   */\n      dup3\n        /* \"#utility.yul\":27387:27402   */\n      add\n        /* \"#utility.yul\":27380:27419   */\n      mstore\n        /* \"#utility.yul\":27195:27426   */\n      pop\n      jump\t// out\n        /* \"#utility.yul\":27432:27675   */\n    tag_436:\n        /* \"#utility.yul\":27572:27606   */\n      0x4552433732313a20617070726f76652063616c6c6572206973206e6f74206f77\n        /* \"#utility.yul\":27568:27569   */\n      0x00\n        /* \"#utility.yul\":27560:27566   */\n      dup3\n        /* \"#utility.yul\":27556:27570   */\n      add\n        /* \"#utility.yul\":27549:27607   */\n      mstore\n        /* \"#utility.yul\":27641:27667   */\n      0x6e6572206e6f7220617070726f76656420666f7220616c6c0000000000000000\n        /* \"#utility.yul\":27636:27638   */\n      0x20\n        /* \"#utility.yul\":27628:27634   */\n      dup3\n        /* \"#utility.yul\":27624:27639   */\n      add\n        /* \"#utility.yul\":27617:27668   */\n      mstore\n        /* \"#utility.yul\":27432:27675   */\n      pop\n      jump\t// out\n        /* \"#utility.yul\":27681:27910   */\n    tag_441:\n        /* \"#utility.yul\":27821:27855   */\n      0x4552433732313a2062616c616e636520717565727920666f7220746865207a65\n        /* \"#utility.yul\":27817:27818   */\n      0x00\n        /* \"#utility.yul\":27809:27815   */\n      dup3\n        /* \"#utility.yul\":27805:27819   */\n      add\n        /* \"#utility.yul\":27798:27856   */\n      mstore\n        /* \"#utility.yul\":27890:27902   */\n      0x726f206164647265737300000000000000000000000000000000000000000000\n        /* \"#utility.yul\":27885:27887   */\n      0x20\n        /* \"#utility.yul\":27877:27883   */\n      dup3\n        /* \"#utility.yul\":27873:27888   */\n      add\n        /* \"#utility.yul\":27866:27903   */\n      mstore\n        /* \"#utility.yul\":27681:27910   */\n      pop\n      jump\t// out\n        /* \"#utility.yul\":27916:28144   */\n    tag_446:\n        /* \"#utility.yul\":28056:28090   */\n      0x4552433732313a206f776e657220717565727920666f72206e6f6e6578697374\n        /* \"#utility.yul\":28052:28053   */\n      0x00\n        /* \"#utility.yul\":28044:28050   */\n      dup3\n        /* \"#utility.yul\":28040:28054   */\n      add\n        /* \"#utility.yul\":28033:28091   */\n      mstore\n        /* \"#utility.yul\":28125:28136   */\n      0x656e7420746f6b656e0000000000000000000000000000000000000000000000\n        /* \"#utility.yul\":28120:28122   */\n      0x20\n        /* \"#utility.yul\":28112:28118   */\n      dup3\n        /* \"#utility.yul\":28108:28123   */\n      add\n        /* \"#utility.yul\":28101:28137   */\n      mstore\n        /* \"#utility.yul\":27916:28144   */\n      pop\n      jump\t// out\n        /* \"#utility.yul\":28150:28332   */\n    tag_451:\n        /* \"#utility.yul\":28290:28324   */\n      0x4552433732313a206d696e7420746f20746865207a65726f2061646472657373\n        /* \"#utility.yul\":28286:28287   */\n      0x00\n        /* \"#utility.yul\":28278:28284   */\n      dup3\n        /* \"#utility.yul\":28274:28288   */\n      add\n        /* \"#utility.yul\":28267:28325   */\n      mstore\n        /* \"#utility.yul\":28150:28332   */\n      pop\n      jump\t// out\n        /* \"#utility.yul\":28338:28569   */\n    tag_456:\n        /* \"#utility.yul\":28478:28512   */\n      0x4552433732313a20617070726f76656420717565727920666f72206e6f6e6578\n        /* \"#utility.yul\":28474:28475   */\n      0x00\n        /* \"#utility.yul\":28466:28472   */\n      dup3\n        /* \"#utility.yul\":28462:28476   */\n      add\n        /* \"#utility.yul\":28455:28513   */\n      mstore\n        /* \"#utility.yul\":28547:28561   */\n      0x697374656e7420746f6b656e0000000000000000000000000000000000000000\n        /* \"#utility.yul\":28542:28544   */\n      0x20\n        /* \"#utility.yul\":28534:28540   */\n      dup3\n        /* \"#utility.yul\":28530:28545   */\n      add\n        /* \"#utility.yul\":28523:28562   */\n      mstore\n        /* \"#utility.yul\":28338:28569   */\n      pop\n      jump\t// out\n        /* \"#utility.yul\":28575:28809   */\n    tag_461:\n        /* \"#utility.yul\":28715:28749   */\n      0x4552433732314d657461646174613a2055524920717565727920666f72206e6f\n        /* \"#utility.yul\":28711:28712   */\n      0x00\n        /* \"#utility.yul\":28703:28709   */\n      dup3\n        /* \"#utility.yul\":28699:28713   */\n      add\n        /* \"#utility.yul\":28692:28750   */\n      mstore\n        /* \"#utility.yul\":28784:28801   */\n      0x6e6578697374656e7420746f6b656e0000000000000000000000000000000000\n        /* \"#utility.yul\":28779:28781   */\n      0x20\n        /* \"#utility.yul\":28771:28777   */\n      dup3\n        /* \"#utility.yul\":28767:28782   */\n      add\n        /* \"#utility.yul\":28760:28802   */\n      mstore\n        /* \"#utility.yul\":28575:28809   */\n      pop\n      jump\t// out\n        /* \"#utility.yul\":28815:29035   */\n    tag_466:\n        /* \"#utility.yul\":28955:28989   */\n      0x4552433732313a20617070726f76616c20746f2063757272656e74206f776e65\n        /* \"#utility.yul\":28951:28952   */\n      0x00\n        /* \"#utility.yul\":28943:28949   */\n      dup3\n        /* \"#utility.yul\":28939:28953   */\n      add\n        /* \"#utility.yul\":28932:28990   */\n      mstore\n        /* \"#utility.yul\":29024:29027   */\n      0x7200000000000000000000000000000000000000000000000000000000000000\n        /* \"#utility.yul\":29019:29021   */\n      0x20\n        /* \"#utility.yul\":29011:29017   */\n      dup3\n        /* \"#utility.yul\":29007:29022   */\n      add\n        /* \"#utility.yul\":29000:29028   */\n      mstore\n        /* \"#utility.yul\":28815:29035   */\n      pop\n      jump\t// out\n        /* \"#utility.yul\":29041:29277   */\n    tag_471:\n        /* \"#utility.yul\":29181:29215   */\n      0x4552433732313a207472616e736665722063616c6c6572206973206e6f74206f\n        /* \"#utility.yul\":29177:29178   */\n      0x00\n        /* \"#utility.yul\":29169:29175   */\n      dup3\n        /* \"#utility.yul\":29165:29179   */\n      add\n        /* \"#utility.yul\":29158:29216   */\n      mstore\n        /* \"#utility.yul\":29250:29269   */\n      0x776e6572206e6f7220617070726f766564000000000000000000000000000000\n        /* \"#utility.yul\":29245:29247   */\n      0x20\n        /* \"#utility.yul\":29237:29243   */\n      dup3\n        /* \"#utility.yul\":29233:29248   */\n      add\n        /* \"#utility.yul\":29226:29270   */\n      mstore\n        /* \"#utility.yul\":29041:29277   */\n      pop\n      jump\t// out\n        /* \"#utility.yul\":29283:29405   */\n    tag_300:\n        /* \"#utility.yul\":29356:29380   */\n      tag_609\n        /* \"#utility.yul\":29374:29379   */\n      dup2\n        /* \"#utility.yul\":29356:29380   */\n      tag_373\n      jump\t// in\n    tag_609:\n        /* \"#utility.yul\":29349:29354   */\n      dup2\n        /* \"#utility.yul\":29346:29381   */\n      eq\n        /* \"#utility.yul\":29336:29399   */\n      tag_610\n      jumpi\n        /* \"#utility.yul\":29395:29396   */\n      0x00\n        /* \"#utility.yul\":29392:29393   */\n      dup1\n        /* \"#utility.yul\":29385:29397   */\n      revert\n        /* \"#utility.yul\":29336:29399   */\n    tag_610:\n        /* \"#utility.yul\":29283:29405   */\n      pop\n      jump\t// out\n        /* \"#utility.yul\":29411:29527   */\n    tag_304:\n        /* \"#utility.yul\":29481:29502   */\n      tag_612\n        /* \"#utility.yul\":29496:29501   */\n      dup2\n        /* \"#utility.yul\":29481:29502   */\n      tag_377\n      jump\t// in\n    tag_612:\n        /* \"#utility.yul\":29474:29479   */\n      dup2\n        /* \"#utility.yul\":29471:29503   */\n      eq\n        /* \"#utility.yul\":29461:29521   */\n      tag_613\n      jumpi\n        /* \"#utility.yul\":29517:29518   */\n      0x00\n        /* \"#utility.yul\":29514:29515   */\n      dup1\n        /* \"#utility.yul\":29507:29519   */\n      revert\n        /* \"#utility.yul\":29461:29521   */\n    tag_613:\n        /* \"#utility.yul\":29411:29527   */\n      pop\n      jump\t// out\n        /* \"#utility.yul\":29533:29653   */\n    tag_308:\n        /* \"#utility.yul\":29605:29628   */\n      tag_615\n        /* \"#utility.yul\":29622:29627   */\n      dup2\n        /* \"#utility.yul\":29605:29628   */\n      tag_556\n      jump\t// in\n    tag_615:\n        /* \"#utility.yul\":29598:29603   */\n      dup2\n        /* \"#utility.yul\":29595:29629   */\n      eq\n        /* \"#utility.yul\":29585:29647   */\n      tag_616\n      jumpi\n        /* \"#utility.yul\":29643:29644   */\n      0x00\n        /* \"#utility.yul\":29640:29641   */\n      dup1\n        /* \"#utility.yul\":29633:29645   */\n      revert\n        /* \"#utility.yul\":29585:29647   */\n    tag_616:\n        /* \"#utility.yul\":29533:29653   */\n      pop\n      jump\t// out\n        /* \"#utility.yul\":29659:29781   */\n    tag_321:\n        /* \"#utility.yul\":29732:29756   */\n      tag_618\n        /* \"#utility.yul\":29750:29755   */\n      dup2\n        /* \"#utility.yul\":29732:29756   */\n      tag_475\n      jump\t// in\n    tag_618:\n        /* \"#utility.yul\":29725:29730   */\n      dup2\n        /* \"#utility.yul\":29722:29757   */\n      eq\n        /* \"#utility.yul\":29712:29775   */\n      tag_619\n      jumpi\n        /* \"#utility.yul\":29771:29772   */\n      0x00\n        /* \"#utility.yul\":29768:29769   */\n      dup1\n        /* \"#utility.yul\":29761:29773   */\n      revert\n        /* \"#utility.yul\":29712:29775   */\n    tag_619:\n        /* \"#utility.yul\":29659:29781   */\n      pop\n      jump\t// out\n\n    auxdata: 0xa26469706673582212205d3c1db9d7f5ab9917f2e498f037a21186e1109c6631b78f22154c4bac078fe764736f6c63430008070033\n}\n",
				"bytecode": {
					"linkReferences": {},
					"object": "60806040523480156200001157600080fd5b5060405162002dd538038062002dd58339818101604052810190620000379190620002a8565b620000687f01ffc9a700000000000000000000000000000000000000000000000000000000620000a260201b60201c565b8160019080519060200190620000809291906200017a565b508060029080519060200190620000999291906200017a565b50505062000534565b63ffffffff60e01b817bffffffffffffffffffffffffffffffffffffffffffffffffffffffff191614156200010e576040517f08c379a0000000000000000000000000000000000000000000000000000000008152600401620001059062000354565b60405180910390fd5b6001600080837bffffffffffffffffffffffffffffffffffffffffffffffffffffffff19167bffffffffffffffffffffffffffffffffffffffffffffffffffffffff1916815260200190815260200160002060006101000a81548160ff02191690831515021790555050565b82805462000188906200041c565b90600052602060002090601f016020900481019282620001ac5760008555620001f8565b82601f10620001c757805160ff1916838001178555620001f8565b82800160010185558215620001f8579182015b82811115620001f7578251825591602001919060010190620001da565b5b5090506200020791906200020b565b5090565b5b80821115620002265760008160009055506001016200020c565b5090565b6000620002416200023b846200039f565b62000376565b90508281526020810184848401111562000260576200025f620004eb565b5b6200026d848285620003e6565b509392505050565b600082601f8301126200028d576200028c620004e6565b5b81516200029f8482602086016200022a565b91505092915050565b60008060408385031215620002c257620002c1620004f5565b5b600083015167ffffffffffffffff811115620002e357620002e2620004f0565b5b620002f18582860162000275565b925050602083015167ffffffffffffffff811115620003155762000314620004f0565b5b620003238582860162000275565b9150509250929050565b60006200033c601c83620003d5565b915062000349826200050b565b602082019050919050565b600060208201905081810360008301526200036f816200032d565b9050919050565b60006200038262000395565b905062000390828262000452565b919050565b6000604051905090565b600067ffffffffffffffff821115620003bd57620003bc620004b7565b5b620003c882620004fa565b9050602081019050919050565b600082825260208201905092915050565b60005b8381101562000406578082015181840152602081019050620003e9565b8381111562000416576000848401525b50505050565b600060028204905060018216806200043557607f821691505b602082108114156200044c576200044b62000488565b5b50919050565b6200045d82620004fa565b810181811067ffffffffffffffff821117156200047f576200047e620004b7565b5b80604052505050565b7f4e487b7100000000000000000000000000000000000000000000000000000000600052602260045260246000fd5b7f4e487b7100000000000000000000000000000000000000000000000000000000600052604160045260246000fd5b600080fd5b600080fd5b600080fd5b600080fd5b6000601f19601f8301169050919050565b7f4552433136353a20696e76616c696420696e7465726661636520696400000000600082015250565b61289180620005446000396000f3fe608060405234801561001057600080fd5b50600436106100f55760003560e01c806370a0823111610097578063b3e1c71811610066578063b3e1c71814610282578063b88d4fde1461029e578063c87b56dd146102ba578063e985e9c5146102ea576100f5565b806370a08231146101fc57806395d89b411461022c5780639b1f9e741461024a578063a22cb46514610266576100f5565b8063095ea7b3116100d3578063095ea7b31461017857806323b872dd1461019457806342842e0e146101b05780636352211e146101cc576100f5565b806301ffc9a7146100fa57806306fdde031461012a578063081812fc14610148575b600080fd5b610114600480360381019061010f9190611a44565b61031a565b6040516101219190611e10565b60405180910390f35b6101326103fc565b60405161013f9190611e2b565b60405180910390f35b610162600480360381019061015d9190611a9e565b61048e565b60405161016f9190611da9565b60405180910390f35b610192600480360381019061018d9190611a04565b610513565b005b6101ae60048036038101906101a991906118ee565b61062b565b005b6101ca60048036038101906101c591906118ee565b61068b565b005b6101e660048036038101906101e19190611a9e565b6106ab565b6040516101f39190611da9565b60405180910390f35b61021660048036038101906102119190611881565b61075d565b604051610223919061200d565b60405180910390f35b610234610815565b6040516102419190611e2b565b60405180910390f35b610264600480360381019061025f9190611a9e565b6108a7565b005b610280600480360381019061027b91906119c4565b6109c4565b005b61029c60048036038101906102979190611a04565b6109da565b005b6102b860048036038101906102b39190611941565b6109f8565b005b6102d460048036038101906102cf9190611a9e565b610a5a565b6040516102e19190611e2b565b60405180910390f35b61030460048036038101906102ff91906118ae565b610b01565b6040516103119190611e10565b60405180910390f35b60007f80ac58cd000000000000000000000000000000000000000000000000000000007bffffffffffffffffffffffffffffffffffffffffffffffffffffffff1916827bffffffffffffffffffffffffffffffffffffffffffffffffffffffff191614806103e557507f5b5e139f000000000000000000000000000000000000000000000000000000007bffffffffffffffffffffffffffffffffffffffffffffffffffffffff1916827bffffffffffffffffffffffffffffffffffffffffffffffffffffffff1916145b806103f557506103f482610b95565b5b9050919050565b60606001805461040b90612232565b80601f016020809104026020016040519081016040528092919081815260200182805461043790612232565b80156104845780601f1061045957610100808354040283529160200191610484565b820191906000526020600020905b81548152906001019060200180831161046757829003601f168201915b5050505050905090565b600061049982610bfc565b6104d8576040517f08c379a00000000000000000000000000000000000000000000000000000000081526004016104cf90611f8d565b60405180910390fd5b6005600083815260200190815260200160002060009054906101000a900473ffffffffffffffffffffffffffffffffffffffff169050919050565b600061051e826106ab565b90508073ffffffffffffffffffffffffffffffffffffffff168373ffffffffffffffffffffffffffffffffffffffff16141561058f576040517f08c379a000000000000000000000000000000000000000000000000000000000815260040161058690611fcd565b60405180910390fd5b8073ffffffffffffffffffffffffffffffffffffffff166105ae610c68565b73ffffffffffffffffffffffffffffffffffffffff1614806105dd57506105dc816105d7610c68565b610b01565b5b61061c576040517f08c379a000000000000000000000000000000000000000000000000000000000815260040161061390611f0d565b60405180910390fd5b6106268383610c70565b505050565b61063c610636610c68565b82610d29565b61067b576040517f08c379a000000000000000000000000000000000000000000000000000000000815260040161067290611fed565b60405180910390fd5b610686838383610e07565b505050565b6106a6838383604051806020016040528060008152506109f8565b505050565b6000806003600084815260200190815260200160002060009054906101000a900473ffffffffffffffffffffffffffffffffffffffff169050600073ffffffffffffffffffffffffffffffffffffffff168173ffffffffffffffffffffffffffffffffffffffff161415610754576040517f08c379a000000000000000000000000000000000000000000000000000000000815260040161074b90611f4d565b60405180910390fd5b80915050919050565b60008073ffffffffffffffffffffffffffffffffffffffff168273ffffffffffffffffffffffffffffffffffffffff1614156107ce576040517f08c379a00000000000000000000000000000000000000000000000000000000081526004016107c590611f2d565b60405180910390fd5b600460008373ffffffffffffffffffffffffffffffffffffffff1673ffffffffffffffffffffffffffffffffffffffff168152602001908152602001600020549050919050565b60606002805461082490612232565b80601f016020809104026020016040519081016040528092919081815260200182805461085090612232565b801561089d5780601f106108725761010080835404028352916020019161089d565b820191906000526020600020905b81548152906001019060200180831161088057829003601f168201915b5050505050905090565b60006108b2826106ab565b90506108c08160008461106e565b6108cb600083610c70565b6001600460008373ffffffffffffffffffffffffffffffffffffffff1673ffffffffffffffffffffffffffffffffffffffff168152602001908152602001600020600082825461091b9190612148565b925050819055506003600083815260200190815260200160002060006101000a81549073ffffffffffffffffffffffffffffffffffffffff021916905581600073ffffffffffffffffffffffffffffffffffffffff168273ffffffffffffffffffffffffffffffffffffffff167fddf252ad1be2c89b69c2b068fc378daa952ba7f163c4a11628f55a4df523b3ef60405160405180910390a46109c081600084611073565b5050565b6109d66109cf610c68565b8383611078565b5050565b6109f48282604051806020016040528060008152506111e5565b5050565b610a09610a03610c68565b83610d29565b610a48576040517f08c379a0000000000000000000000000000000000000000000000000000000008152600401610a3f90611fed565b60405180910390fd5b610a5484848484611240565b50505050565b6060610a6582610bfc565b610aa4576040517f08c379a0000000000000000000000000000000000000000000000000000000008152600401610a9b90611fad565b60405180910390fd5b6000610aae61129c565b90506000815111610ace5760405180602001604052806000815250610af9565b80610ad8846112b3565b604051602001610ae9929190611d85565b6040516020818303038152906040525b915050919050565b6000600660008473ffffffffffffffffffffffffffffffffffffffff1673ffffffffffffffffffffffffffffffffffffffff16815260200190815260200160002060008373ffffffffffffffffffffffffffffffffffffffff1673ffffffffffffffffffffffffffffffffffffffff16815260200190815260200160002060009054906101000a900460ff16905092915050565b6000806000837bffffffffffffffffffffffffffffffffffffffffffffffffffffffff19167bffffffffffffffffffffffffffffffffffffffffffffffffffffffff1916815260200190815260200160002060009054906101000a900460ff169050919050565b60008073ffffffffffffffffffffffffffffffffffffffff166003600084815260200190815260200160002060009054906101000a900473ffffffffffffffffffffffffffffffffffffffff1673ffffffffffffffffffffffffffffffffffffffff1614159050919050565b600033905090565b816005600083815260200190815260200160002060006101000a81548173ffffffffffffffffffffffffffffffffffffffff021916908373ffffffffffffffffffffffffffffffffffffffff160217905550808273ffffffffffffffffffffffffffffffffffffffff16610ce3836106ab565b73ffffffffffffffffffffffffffffffffffffffff167f8c5be1e5ebec7d5bd14f71427d1e84f3dd0314c0f7b2291e5b200ac8c7c3b92560405160405180910390a45050565b6000610d3482610bfc565b610d73576040517f08c379a0000000000000000000000000000000000000000000000000000000008152600401610d6a90611eed565b60405180910390fd5b6000610d7e836106ab565b90508073ffffffffffffffffffffffffffffffffffffffff168473ffffffffffffffffffffffffffffffffffffffff161480610dc05750610dbf8185610b01565b5b80610dfe57508373ffffffffffffffffffffffffffffffffffffffff16610de68461048e565b73ffffffffffffffffffffffffffffffffffffffff16145b91505092915050565b8273ffffffffffffffffffffffffffffffffffffffff16610e27826106ab565b73ffffffffffffffffffffffffffffffffffffffff1614610e7d576040517f08c379a0000000000000000000000000000000000000000000000000000000008152600401610e7490611e6d565b60405180910390fd5b600073ffffffffffffffffffffffffffffffffffffffff168273ffffffffffffffffffffffffffffffffffffffff161415610eed576040517f08c379a0000000000000000000000000000000000000000000000000000000008152600401610ee490611ead565b60405180910390fd5b610ef883838361106e565b610f03600082610c70565b6001600460008573ffffffffffffffffffffffffffffffffffffffff1673ffffffffffffffffffffffffffffffffffffffff1681526020019081526020016000206000828254610f539190612148565b925050819055506001600460008473ffffffffffffffffffffffffffffffffffffffff1673ffffffffffffffffffffffffffffffffffffffff1681526020019081526020016000206000828254610faa91906120c1565b92505081905550816003600083815260200190815260200160002060006101000a81548173ffffffffffffffffffffffffffffffffffffffff021916908373ffffffffffffffffffffffffffffffffffffffff160217905550808273ffffffffffffffffffffffffffffffffffffffff168473ffffffffffffffffffffffffffffffffffffffff167fddf252ad1be2c89b69c2b068fc378daa952ba7f163c4a11628f55a4df523b3ef60405160405180910390a4611069838383611073565b505050565b505050565b505050565b8173ffffffffffffffffffffffffffffffffffffffff168373ffffffffffffffffffffffffffffffffffffffff1614156110e7576040517f08c379a00000000000000000000000000000000000000000000000000000000081526004016110de90611ecd565b60405180910390fd5b80600660008573ffffffffffffffffffffffffffffffffffffffff1673ffffffffffffffffffffffffffffffffffffffff16815260200190815260200160002060008473ffffffffffffffffffffffffffffffffffffffff1673ffffffffffffffffffffffffffffffffffffffff16815260200190815260200160002060006101000a81548160ff0219169083151502179055508173ffffffffffffffffffffffffffffffffffffffff168373ffffffffffffffffffffffffffffffffffffffff167f17307eab39ab6107e8899845ad3d59bd9653f200f220920489ca2b5937696c31836040516111d89190611e10565b60405180910390a3505050565b6111ef8383611414565b6111fc60008484846115ee565b61123b576040517f08c379a000000000000000000000000000000000000000000000000000000000815260040161123290611e4d565b60405180910390fd5b505050565b61124b848484610e07565b611257848484846115ee565b611296576040517f08c379a000000000000000000000000000000000000000000000000000000000815260040161128d90611e4d565b60405180910390fd5b50505050565b606060405180602001604052806000815250905090565b606060008214156112fb576040518060400160405280600181526020017f3000000000000000000000000000000000000000000000000000000000000000815250905061140f565b600082905060005b6000821461132d57808061131690612295565b915050600a826113269190612117565b9150611303565b60008167ffffffffffffffff811115611349576113486123cb565b5b6040519080825280601f01601f19166020018201604052801561137b5781602001600182028036833780820191505090505b5090505b60008514611408576001826113949190612148565b9150600a856113a391906122de565b60306113af91906120c1565b60f81b8183815181106113c5576113c461239c565b5b60200101907effffffffffffffffffffffffffffffffffffffffffffffffffffffffffffff1916908160001a905350600a856114019190612117565b945061137f565b8093505050505b919050565b600073ffffffffffffffffffffffffffffffffffffffff168273ffffffffffffffffffffffffffffffffffffffff161415611484576040517f08c379a000000000000000000000000000000000000000000000000000000000815260040161147b90611f6d565b60405180910390fd5b61148d81610bfc565b156114cd576040517f08c379a00000000000000000000000000000000000000000000000000000000081526004016114c490611e8d565b60405180910390fd5b6114d96000838361106e565b6001600460008473ffffffffffffffffffffffffffffffffffffffff1673ffffffffffffffffffffffffffffffffffffffff168152602001908152602001600020600082825461152991906120c1565b92505081905550816003600083815260200190815260200160002060006101000a81548173ffffffffffffffffffffffffffffffffffffffff021916908373ffffffffffffffffffffffffffffffffffffffff160217905550808273ffffffffffffffffffffffffffffffffffffffff16600073ffffffffffffffffffffffffffffffffffffffff167fddf252ad1be2c89b69c2b068fc378daa952ba7f163c4a11628f55a4df523b3ef60405160405180910390a46115ea60008383611073565b5050565b600061160f8473ffffffffffffffffffffffffffffffffffffffff16611785565b15611778578373ffffffffffffffffffffffffffffffffffffffff1663150b7a02611638610c68565b8786866040518563ffffffff1660e01b815260040161165a9493929190611dc4565b602060405180830381600087803b15801561167457600080fd5b505af19250505080156116a557506040513d601f19601f820116820180604052508101906116a29190611a71565b60015b611728573d80600081146116d5576040519150601f19603f3d011682016040523d82523d6000602084013e6116da565b606091505b50600081511415611720576040517f08c379a000000000000000000000000000000000000000000000000000000000815260040161171790611e4d565b60405180910390fd5b805181602001fd5b63150b7a0260e01b7bffffffffffffffffffffffffffffffffffffffffffffffffffffffff1916817bffffffffffffffffffffffffffffffffffffffffffffffffffffffff19161491505061177d565b600190505b949350505050565b6000808273ffffffffffffffffffffffffffffffffffffffff163b119050919050565b60006117bb6117b68461204d565b612028565b9050828152602081018484840111156117d7576117d66123ff565b5b6117e28482856121f0565b509392505050565b6000813590506117f9816127ff565b92915050565b60008135905061180e81612816565b92915050565b6000813590506118238161282d565b92915050565b6000815190506118388161282d565b92915050565b600082601f830112611853576118526123fa565b5b81356118638482602086016117a8565b91505092915050565b60008135905061187b81612844565b92915050565b60006020828403121561189757611896612409565b5b60006118a5848285016117ea565b91505092915050565b600080604083850312156118c5576118c4612409565b5b60006118d3858286016117ea565b92505060206118e4858286016117ea565b9150509250929050565b60008060006060848603121561190757611906612409565b5b6000611915868287016117ea565b9350506020611926868287016117ea565b92505060406119378682870161186c565b9150509250925092565b6000806000806080858703121561195b5761195a612409565b5b6000611969878288016117ea565b945050602061197a878288016117ea565b935050604061198b8782880161186c565b925050606085013567ffffffffffffffff8111156119ac576119ab612404565b5b6119b88782880161183e565b91505092959194509250565b600080604083850312156119db576119da612409565b5b60006119e9858286016117ea565b92505060206119fa858286016117ff565b9150509250929050565b60008060408385031215611a1b57611a1a612409565b5b6000611a29858286016117ea565b9250506020611a3a8582860161186c565b9150509250929050565b600060208284031215611a5a57611a59612409565b5b6000611a6884828501611814565b91505092915050565b600060208284031215611a8757611a86612409565b5b6000611a9584828501611829565b91505092915050565b600060208284031215611ab457611ab3612409565b5b6000611ac28482850161186c565b91505092915050565b611ad48161217c565b82525050565b611ae38161218e565b82525050565b6000611af48261207e565b611afe8185612094565b9350611b0e8185602086016121ff565b611b178161240e565b840191505092915050565b6000611b2d82612089565b611b3781856120a5565b9350611b478185602086016121ff565b611b508161240e565b840191505092915050565b6000611b6682612089565b611b7081856120b6565b9350611b808185602086016121ff565b80840191505092915050565b6000611b996032836120a5565b9150611ba48261241f565b604082019050919050565b6000611bbc6025836120a5565b9150611bc78261246e565b604082019050919050565b6000611bdf601c836120a5565b9150611bea826124bd565b602082019050919050565b6000611c026024836120a5565b9150611c0d826124e6565b604082019050919050565b6000611c256019836120a5565b9150611c3082612535565b602082019050919050565b6000611c48602c836120a5565b9150611c538261255e565b604082019050919050565b6000611c6b6038836120a5565b9150611c76826125ad565b604082019050919050565b6000611c8e602a836120a5565b9150611c99826125fc565b604082019050919050565b6000611cb16029836120a5565b9150611cbc8261264b565b604082019050919050565b6000611cd46020836120a5565b9150611cdf8261269a565b602082019050919050565b6000611cf7602c836120a5565b9150611d02826126c3565b604082019050919050565b6000611d1a602f836120a5565b9150611d2582612712565b604082019050919050565b6000611d3d6021836120a5565b9150611d4882612761565b604082019050919050565b6000611d606031836120a5565b9150611d6b826127b0565b604082019050919050565b611d7f816121e6565b82525050565b6000611d918285611b5b565b9150611d9d8284611b5b565b91508190509392505050565b6000602082019050611dbe6000830184611acb565b92915050565b6000608082019050611dd96000830187611acb565b611de66020830186611acb565b611df36040830185611d76565b8181036060830152611e058184611ae9565b905095945050505050565b6000602082019050611e256000830184611ada565b92915050565b60006020820190508181036000830152611e458184611b22565b905092915050565b60006020820190508181036000830152611e6681611b8c565b9050919050565b60006020820190508181036000830152611e8681611baf565b9050919050565b60006020820190508181036000830152611ea681611bd2565b9050919050565b60006020820190508181036000830152611ec681611bf5565b9050919050565b60006020820190508181036000830152611ee681611c18565b9050919050565b60006020820190508181036000830152611f0681611c3b565b9050919050565b60006020820190508181036000830152611f2681611c5e565b9050919050565b60006020820190508181036000830152611f4681611c81565b9050919050565b60006020820190508181036000830152611f6681611ca4565b9050919050565b60006020820190508181036000830152611f8681611cc7565b9050919050565b60006020820190508181036000830152611fa681611cea565b9050919050565b60006020820190508181036000830152611fc681611d0d565b9050919050565b60006020820190508181036000830152611fe681611d30565b9050919050565b6000602082019050818103600083015261200681611d53565b9050919050565b60006020820190506120226000830184611d76565b92915050565b6000612032612043565b905061203e8282612264565b919050565b6000604051905090565b600067ffffffffffffffff821115612068576120676123cb565b5b6120718261240e565b9050602081019050919050565b600081519050919050565b600081519050919050565b600082825260208201905092915050565b600082825260208201905092915050565b600081905092915050565b60006120cc826121e6565b91506120d7836121e6565b9250827fffffffffffffffffffffffffffffffffffffffffffffffffffffffffffffffff0382111561210c5761210b61230f565b5b828201905092915050565b6000612122826121e6565b915061212d836121e6565b92508261213d5761213c61233e565b5b828204905092915050565b6000612153826121e6565b915061215e836121e6565b9250828210156121715761217061230f565b5b828203905092915050565b6000612187826121c6565b9050919050565b60008115159050919050565b60007fffffffff0000000000000000000000000000000000000000000000000000000082169050919050565b600073ffffffffffffffffffffffffffffffffffffffff82169050919050565b6000819050919050565b82818337600083830152505050565b60005b8381101561221d578082015181840152602081019050612202565b8381111561222c576000848401525b50505050565b6000600282049050600182168061224a57607f821691505b6020821081141561225e5761225d61236d565b5b50919050565b61226d8261240e565b810181811067ffffffffffffffff8211171561228c5761228b6123cb565b5b80604052505050565b60006122a0826121e6565b91507fffffffffffffffffffffffffffffffffffffffffffffffffffffffffffffffff8214156122d3576122d261230f565b5b600182019050919050565b60006122e9826121e6565b91506122f4836121e6565b9250826123045761230361233e565b5b828206905092915050565b7f4e487b7100000000000000000000000000000000000000000000000000000000600052601160045260246000fd5b7f4e487b7100000000000000000000000000000000000000000000000000000000600052601260045260246000fd5b7f4e487b7100000000000000000000000000000000000000000000000000000000600052602260045260246000fd5b7f4e487b7100000000000000000000000000000000000000000000000000000000600052603260045260246000fd5b7f4e487b7100000000000000000000000000000000000000000000000000000000600052604160045260246000fd5b600080fd5b600080fd5b600080fd5b600080fd5b6000601f19601f8301169050919050565b7f4552433732313a207472616e7366657220746f206e6f6e20455243373231526560008201527f63656976657220696d706c656d656e7465720000000000000000000000000000602082015250565b7f4552433732313a207472616e736665722066726f6d20696e636f72726563742060008201527f6f776e6572000000000000000000000000000000000000000000000000000000602082015250565b7f4552433732313a20746f6b656e20616c7265616479206d696e74656400000000600082015250565b7f4552433732313a207472616e7366657220746f20746865207a65726f2061646460008201527f7265737300000000000000000000000000000000000000000000000000000000602082015250565b7f4552433732313a20617070726f766520746f2063616c6c657200000000000000600082015250565b7f4552433732313a206f70657261746f7220717565727920666f72206e6f6e657860008201527f697374656e7420746f6b656e0000000000000000000000000000000000000000602082015250565b7f4552433732313a20617070726f76652063616c6c6572206973206e6f74206f7760008201527f6e6572206e6f7220617070726f76656420666f7220616c6c0000000000000000602082015250565b7f4552433732313a2062616c616e636520717565727920666f7220746865207a6560008201527f726f206164647265737300000000000000000000000000000000000000000000602082015250565b7f4552433732313a206f776e657220717565727920666f72206e6f6e657869737460008201527f656e7420746f6b656e0000000000000000000000000000000000000000000000602082015250565b7f4552433732313a206d696e7420746f20746865207a65726f2061646472657373600082015250565b7f4552433732313a20617070726f76656420717565727920666f72206e6f6e657860008201527f697374656e7420746f6b656e0000000000000000000000000000000000000000602082015250565b7f4552433732314d657461646174613a2055524920717565727920666f72206e6f60008201527f6e6578697374656e7420746f6b656e0000000000000000000000000000000000602082015250565b7f4552433732313a20617070726f76616c20746f2063757272656e74206f776e6560008201527f7200000000000000000000000000000000000000000000000000000000000000602082015250565b7f4552433732313a207472616e736665722063616c6c6572206973206e6f74206f60008201527f776e6572206e6f7220617070726f766564000000000000000000000000000000602082015250565b6128088161217c565b811461281357600080fd5b50565b61281f8161218e565b811461282a57600080fd5b50565b6128368161219a565b811461284157600080fd5b50565b61284d816121e6565b811461285857600080fd5b5056fea26469706673582212205d3c1db9d7f5ab9917f2e498f037a21186e1109c6631b78f22154c4bac078fe764736f6c63430008070033",
					"opcodes": "PUSH1 0x80 PUSH1 0x40 MSTORE CALLVALUE DUP1 ISZERO PUSH3 0x11 JUMPI PUSH1 0x0 DUP1 REVERT JUMPDEST POP PUSH1 0x40 MLOAD PUSH3 0x2DD5 CODESIZE SUB DUP1 PUSH3 0x2DD5 DUP4 CODECOPY DUP2 DUP2 ADD PUSH1 0x40 MSTORE DUP2 ADD SWAP1 PUSH3 0x37 SWAP2 SWAP1 PUSH3 0x2A8 JUMP JUMPDEST PUSH3 0x68 PUSH32 0x1FFC9A700000000000000000000000000000000000000000000000000000000 PUSH3 0xA2 PUSH1 0x20 SHL PUSH1 0x20 SHR JUMP JUMPDEST DUP2 PUSH1 0x1 SWAP1 DUP1 MLOAD SWAP1 PUSH1 0x20 ADD SWAP1 PUSH3 0x80 SWAP3 SWAP2 SWAP1 PUSH3 0x17A JUMP JUMPDEST POP DUP1 PUSH1 0x2 SWAP1 DUP1 MLOAD SWAP1 PUSH1 0x20 ADD SWAP1 PUSH3 0x99 SWAP3 SWAP2 SWAP1 PUSH3 0x17A JUMP JUMPDEST POP POP POP PUSH3 0x534 JUMP JUMPDEST PUSH4 0xFFFFFFFF PUSH1 0xE0 SHL DUP2 PUSH28 0xFFFFFFFFFFFFFFFFFFFFFFFFFFFFFFFFFFFFFFFFFFFFFFFFFFFFFFFF NOT AND EQ ISZERO PUSH3 0x10E JUMPI PUSH1 0x40 MLOAD PUSH32 0x8C379A000000000000000000000000000000000000000000000000000000000 DUP2 MSTORE PUSH1 0x4 ADD PUSH3 0x105 SWAP1 PUSH3 0x354 JUMP JUMPDEST PUSH1 0x40 MLOAD DUP1 SWAP2 SUB SWAP1 REVERT JUMPDEST PUSH1 0x1 PUSH1 0x0 DUP1 DUP4 PUSH28 0xFFFFFFFFFFFFFFFFFFFFFFFFFFFFFFFFFFFFFFFFFFFFFFFFFFFFFFFF NOT AND PUSH28 0xFFFFFFFFFFFFFFFFFFFFFFFFFFFFFFFFFFFFFFFFFFFFFFFFFFFFFFFF NOT AND DUP2 MSTORE PUSH1 0x20 ADD SWAP1 DUP2 MSTORE PUSH1 0x20 ADD PUSH1 0x0 KECCAK256 PUSH1 0x0 PUSH2 0x100 EXP DUP2 SLOAD DUP2 PUSH1 0xFF MUL NOT AND SWAP1 DUP4 ISZERO ISZERO MUL OR SWAP1 SSTORE POP POP JUMP JUMPDEST DUP3 DUP1 SLOAD PUSH3 0x188 SWAP1 PUSH3 0x41C JUMP JUMPDEST SWAP1 PUSH1 0x0 MSTORE PUSH1 0x20 PUSH1 0x0 KECCAK256 SWAP1 PUSH1 0x1F ADD PUSH1 0x20 SWAP1 DIV DUP2 ADD SWAP3 DUP3 PUSH3 0x1AC JUMPI PUSH1 0x0 DUP6 SSTORE PUSH3 0x1F8 JUMP JUMPDEST DUP3 PUSH1 0x1F LT PUSH3 0x1C7 JUMPI DUP1 MLOAD PUSH1 0xFF NOT AND DUP4 DUP1 ADD OR DUP6 SSTORE PUSH3 0x1F8 JUMP JUMPDEST DUP3 DUP1 ADD PUSH1 0x1 ADD DUP6 SSTORE DUP3 ISZERO PUSH3 0x1F8 JUMPI SWAP2 DUP3 ADD JUMPDEST DUP3 DUP2 GT ISZERO PUSH3 0x1F7 JUMPI DUP3 MLOAD DUP3 SSTORE SWAP2 PUSH1 0x20 ADD SWAP2 SWAP1 PUSH1 0x1 ADD SWAP1 PUSH3 0x1DA JUMP JUMPDEST JUMPDEST POP SWAP1 POP PUSH3 0x207 SWAP2 SWAP1 PUSH3 0x20B JUMP JUMPDEST POP SWAP1 JUMP JUMPDEST JUMPDEST DUP1 DUP3 GT ISZERO PUSH3 0x226 JUMPI PUSH1 0x0 DUP2 PUSH1 0x0 SWAP1 SSTORE POP PUSH1 0x1 ADD PUSH3 0x20C JUMP JUMPDEST POP SWAP1 JUMP JUMPDEST PUSH1 0x0 PUSH3 0x241 PUSH3 0x23B DUP5 PUSH3 0x39F JUMP JUMPDEST PUSH3 0x376 JUMP JUMPDEST SWAP1 POP DUP3 DUP2 MSTORE PUSH1 0x20 DUP2 ADD DUP5 DUP5 DUP5 ADD GT ISZERO PUSH3 0x260 JUMPI PUSH3 0x25F PUSH3 0x4EB JUMP JUMPDEST JUMPDEST PUSH3 0x26D DUP5 DUP3 DUP6 PUSH3 0x3E6 JUMP JUMPDEST POP SWAP4 SWAP3 POP POP POP JUMP JUMPDEST PUSH1 0x0 DUP3 PUSH1 0x1F DUP4 ADD SLT PUSH3 0x28D JUMPI PUSH3 0x28C PUSH3 0x4E6 JUMP JUMPDEST JUMPDEST DUP2 MLOAD PUSH3 0x29F DUP5 DUP3 PUSH1 0x20 DUP7 ADD PUSH3 0x22A JUMP JUMPDEST SWAP2 POP POP SWAP3 SWAP2 POP POP JUMP JUMPDEST PUSH1 0x0 DUP1 PUSH1 0x40 DUP4 DUP6 SUB SLT ISZERO PUSH3 0x2C2 JUMPI PUSH3 0x2C1 PUSH3 0x4F5 JUMP JUMPDEST JUMPDEST PUSH1 0x0 DUP4 ADD MLOAD PUSH8 0xFFFFFFFFFFFFFFFF DUP2 GT ISZERO PUSH3 0x2E3 JUMPI PUSH3 0x2E2 PUSH3 0x4F0 JUMP JUMPDEST JUMPDEST PUSH3 0x2F1 DUP6 DUP3 DUP7 ADD PUSH3 0x275 JUMP JUMPDEST SWAP3 POP POP PUSH1 0x20 DUP4 ADD MLOAD PUSH8 0xFFFFFFFFFFFFFFFF DUP2 GT ISZERO PUSH3 0x315 JUMPI PUSH3 0x314 PUSH3 0x4F0 JUMP JUMPDEST JUMPDEST PUSH3 0x323 DUP6 DUP3 DUP7 ADD PUSH3 0x275 JUMP JUMPDEST SWAP2 POP POP SWAP3 POP SWAP3 SWAP1 POP JUMP JUMPDEST PUSH1 0x0 PUSH3 0x33C PUSH1 0x1C DUP4 PUSH3 0x3D5 JUMP JUMPDEST SWAP2 POP PUSH3 0x349 DUP3 PUSH3 0x50B JUMP JUMPDEST PUSH1 0x20 DUP3 ADD SWAP1 POP SWAP2 SWAP1 POP JUMP JUMPDEST PUSH1 0x0 PUSH1 0x20 DUP3 ADD SWAP1 POP DUP2 DUP2 SUB PUSH1 0x0 DUP4 ADD MSTORE PUSH3 0x36F DUP2 PUSH3 0x32D JUMP JUMPDEST SWAP1 POP SWAP2 SWAP1 POP JUMP JUMPDEST PUSH1 0x0 PUSH3 0x382 PUSH3 0x395 JUMP JUMPDEST SWAP1 POP PUSH3 0x390 DUP3 DUP3 PUSH3 0x452 JUMP JUMPDEST SWAP2 SWAP1 POP JUMP JUMPDEST PUSH1 0x0 PUSH1 0x40 MLOAD SWAP1 POP SWAP1 JUMP JUMPDEST PUSH1 0x0 PUSH8 0xFFFFFFFFFFFFFFFF DUP3 GT ISZERO PUSH3 0x3BD JUMPI PUSH3 0x3BC PUSH3 0x4B7 JUMP JUMPDEST JUMPDEST PUSH3 0x3C8 DUP3 PUSH3 0x4FA JUMP JUMPDEST SWAP1 POP PUSH1 0x20 DUP2 ADD SWAP1 POP SWAP2 SWAP1 POP JUMP JUMPDEST PUSH1 0x0 DUP3 DUP3 MSTORE PUSH1 0x20 DUP3 ADD SWAP1 POP SWAP3 SWAP2 POP POP JUMP JUMPDEST PUSH1 0x0 JUMPDEST DUP4 DUP2 LT ISZERO PUSH3 0x406 JUMPI DUP1 DUP3 ADD MLOAD DUP2 DUP5 ADD MSTORE PUSH1 0x20 DUP2 ADD SWAP1 POP PUSH3 0x3E9 JUMP JUMPDEST DUP4 DUP2 GT ISZERO PUSH3 0x416 JUMPI PUSH1 0x0 DUP5 DUP5 ADD MSTORE JUMPDEST POP POP POP POP JUMP JUMPDEST PUSH1 0x0 PUSH1 0x2 DUP3 DIV SWAP1 POP PUSH1 0x1 DUP3 AND DUP1 PUSH3 0x435 JUMPI PUSH1 0x7F DUP3 AND SWAP2 POP JUMPDEST PUSH1 0x20 DUP3 LT DUP2 EQ ISZERO PUSH3 0x44C JUMPI PUSH3 0x44B PUSH3 0x488 JUMP JUMPDEST JUMPDEST POP SWAP2 SWAP1 POP JUMP JUMPDEST PUSH3 0x45D DUP3 PUSH3 0x4FA JUMP JUMPDEST DUP2 ADD DUP2 DUP2 LT PUSH8 0xFFFFFFFFFFFFFFFF DUP3 GT OR ISZERO PUSH3 0x47F JUMPI PUSH3 0x47E PUSH3 0x4B7 JUMP JUMPDEST JUMPDEST DUP1 PUSH1 0x40 MSTORE POP POP POP JUMP JUMPDEST PUSH32 0x4E487B7100000000000000000000000000000000000000000000000000000000 PUSH1 0x0 MSTORE PUSH1 0x22 PUSH1 0x4 MSTORE PUSH1 0x24 PUSH1 0x0 REVERT JUMPDEST PUSH32 0x4E487B7100000000000000000000000000000000000000000000000000000000 PUSH1 0x0 MSTORE PUSH1 0x41 PUSH1 0x4 MSTORE PUSH1 0x24 PUSH1 0x0 REVERT JUMPDEST PUSH1 0x0 DUP1 REVERT JUMPDEST PUSH1 0x0 DUP1 REVERT JUMPDEST PUSH1 0x0 DUP1 REVERT JUMPDEST PUSH1 0x0 DUP1 REVERT JUMPDEST PUSH1 0x0 PUSH1 0x1F NOT PUSH1 0x1F DUP4 ADD AND SWAP1 POP SWAP2 SWAP1 POP JUMP JUMPDEST PUSH32 0x4552433136353A20696E76616C696420696E7465726661636520696400000000 PUSH1 0x0 DUP3 ADD MSTORE POP JUMP JUMPDEST PUSH2 0x2891 DUP1 PUSH3 0x544 PUSH1 0x0 CODECOPY PUSH1 0x0 RETURN INVALID PUSH1 0x80 PUSH1 0x40 MSTORE CALLVALUE DUP1 ISZERO PUSH2 0x10 JUMPI PUSH1 0x0 DUP1 REVERT JUMPDEST POP PUSH1 0x4 CALLDATASIZE LT PUSH2 0xF5 JUMPI PUSH1 0x0 CALLDATALOAD PUSH1 0xE0 SHR DUP1 PUSH4 0x70A08231 GT PUSH2 0x97 JUMPI DUP1 PUSH4 0xB3E1C718 GT PUSH2 0x66 JUMPI DUP1 PUSH4 0xB3E1C718 EQ PUSH2 0x282 JUMPI DUP1 PUSH4 0xB88D4FDE EQ PUSH2 0x29E JUMPI DUP1 PUSH4 0xC87B56DD EQ PUSH2 0x2BA JUMPI DUP1 PUSH4 0xE985E9C5 EQ PUSH2 0x2EA JUMPI PUSH2 0xF5 JUMP JUMPDEST DUP1 PUSH4 0x70A08231 EQ PUSH2 0x1FC JUMPI DUP1 PUSH4 0x95D89B41 EQ PUSH2 0x22C JUMPI DUP1 PUSH4 0x9B1F9E74 EQ PUSH2 0x24A JUMPI DUP1 PUSH4 0xA22CB465 EQ PUSH2 0x266 JUMPI PUSH2 0xF5 JUMP JUMPDEST DUP1 PUSH4 0x95EA7B3 GT PUSH2 0xD3 JUMPI DUP1 PUSH4 0x95EA7B3 EQ PUSH2 0x178 JUMPI DUP1 PUSH4 0x23B872DD EQ PUSH2 0x194 JUMPI DUP1 PUSH4 0x42842E0E EQ PUSH2 0x1B0 JUMPI DUP1 PUSH4 0x6352211E EQ PUSH2 0x1CC JUMPI PUSH2 0xF5 JUMP JUMPDEST DUP1 PUSH4 0x1FFC9A7 EQ PUSH2 0xFA JUMPI DUP1 PUSH4 0x6FDDE03 EQ PUSH2 0x12A JUMPI DUP1 PUSH4 0x81812FC EQ PUSH2 0x148 JUMPI JUMPDEST PUSH1 0x0 DUP1 REVERT JUMPDEST PUSH2 0x114 PUSH1 0x4 DUP1 CALLDATASIZE SUB DUP2 ADD SWAP1 PUSH2 0x10F SWAP2 SWAP1 PUSH2 0x1A44 JUMP JUMPDEST PUSH2 0x31A JUMP JUMPDEST PUSH1 0x40 MLOAD PUSH2 0x121 SWAP2 SWAP1 PUSH2 0x1E10 JUMP JUMPDEST PUSH1 0x40 MLOAD DUP1 SWAP2 SUB SWAP1 RETURN JUMPDEST PUSH2 0x132 PUSH2 0x3FC JUMP JUMPDEST PUSH1 0x40 MLOAD PUSH2 0x13F SWAP2 SWAP1 PUSH2 0x1E2B JUMP JUMPDEST PUSH1 0x40 MLOAD DUP1 SWAP2 SUB SWAP1 RETURN JUMPDEST PUSH2 0x162 PUSH1 0x4 DUP1 CALLDATASIZE SUB DUP2 ADD SWAP1 PUSH2 0x15D SWAP2 SWAP1 PUSH2 0x1A9E JUMP JUMPDEST PUSH2 0x48E JUMP JUMPDEST PUSH1 0x40 MLOAD PUSH2 0x16F SWAP2 SWAP1 PUSH2 0x1DA9 JUMP JUMPDEST PUSH1 0x40 MLOAD DUP1 SWAP2 SUB SWAP1 RETURN JUMPDEST PUSH2 0x192 PUSH1 0x4 DUP1 CALLDATASIZE SUB DUP2 ADD SWAP1 PUSH2 0x18D SWAP2 SWAP1 PUSH2 0x1A04 JUMP JUMPDEST PUSH2 0x513 JUMP JUMPDEST STOP JUMPDEST PUSH2 0x1AE PUSH1 0x4 DUP1 CALLDATASIZE SUB DUP2 ADD SWAP1 PUSH2 0x1A9 SWAP2 SWAP1 PUSH2 0x18EE JUMP JUMPDEST PUSH2 0x62B JUMP JUMPDEST STOP JUMPDEST PUSH2 0x1CA PUSH1 0x4 DUP1 CALLDATASIZE SUB DUP2 ADD SWAP1 PUSH2 0x1C5 SWAP2 SWAP1 PUSH2 0x18EE JUMP JUMPDEST PUSH2 0x68B JUMP JUMPDEST STOP JUMPDEST PUSH2 0x1E6 PUSH1 0x4 DUP1 CALLDATASIZE SUB DUP2 ADD SWAP1 PUSH2 0x1E1 SWAP2 SWAP1 PUSH2 0x1A9E JUMP JUMPDEST PUSH2 0x6AB JUMP JUMPDEST PUSH1 0x40 MLOAD PUSH2 0x1F3 SWAP2 SWAP1 PUSH2 0x1DA9 JUMP JUMPDEST PUSH1 0x40 MLOAD DUP1 SWAP2 SUB SWAP1 RETURN JUMPDEST PUSH2 0x216 PUSH1 0x4 DUP1 CALLDATASIZE SUB DUP2 ADD SWAP1 PUSH2 0x211 SWAP2 SWAP1 PUSH2 0x1881 JUMP JUMPDEST PUSH2 0x75D JUMP JUMPDEST PUSH1 0x40 MLOAD PUSH2 0x223 SWAP2 SWAP1 PUSH2 0x200D JUMP JUMPDEST PUSH1 0x40 MLOAD DUP1 SWAP2 SUB SWAP1 RETURN JUMPDEST PUSH2 0x234 PUSH2 0x815 JUMP JUMPDEST PUSH1 0x40 MLOAD PUSH2 0x241 SWAP2 SWAP1 PUSH2 0x1E2B JUMP JUMPDEST PUSH1 0x40 MLOAD DUP1 SWAP2 SUB SWAP1 RETURN JUMPDEST PUSH2 0x264 PUSH1 0x4 DUP1 CALLDATASIZE SUB DUP2 ADD SWAP1 PUSH2 0x25F SWAP2 SWAP1 PUSH2 0x1A9E JUMP JUMPDEST PUSH2 0x8A7 JUMP JUMPDEST STOP JUMPDEST PUSH2 0x280 PUSH1 0x4 DUP1 CALLDATASIZE SUB DUP2 ADD SWAP1 PUSH2 0x27B SWAP2 SWAP1 PUSH2 0x19C4 JUMP JUMPDEST PUSH2 0x9C4 JUMP JUMPDEST STOP JUMPDEST PUSH2 0x29C PUSH1 0x4 DUP1 CALLDATASIZE SUB DUP2 ADD SWAP1 PUSH2 0x297 SWAP2 SWAP1 PUSH2 0x1A04 JUMP JUMPDEST PUSH2 0x9DA JUMP JUMPDEST STOP JUMPDEST PUSH2 0x2B8 PUSH1 0x4 DUP1 CALLDATASIZE SUB DUP2 ADD SWAP1 PUSH2 0x2B3 SWAP2 SWAP1 PUSH2 0x1941 JUMP JUMPDEST PUSH2 0x9F8 JUMP JUMPDEST STOP JUMPDEST PUSH2 0x2D4 PUSH1 0x4 DUP1 CALLDATASIZE SUB DUP2 ADD SWAP1 PUSH2 0x2CF SWAP2 SWAP1 PUSH2 0x1A9E JUMP JUMPDEST PUSH2 0xA5A JUMP JUMPDEST PUSH1 0x40 MLOAD PUSH2 0x2E1 SWAP2 SWAP1 PUSH2 0x1E2B JUMP JUMPDEST PUSH1 0x40 MLOAD DUP1 SWAP2 SUB SWAP1 RETURN JUMPDEST PUSH2 0x304 PUSH1 0x4 DUP1 CALLDATASIZE SUB DUP2 ADD SWAP1 PUSH2 0x2FF SWAP2 SWAP1 PUSH2 0x18AE JUMP JUMPDEST PUSH2 0xB01 JUMP JUMPDEST PUSH1 0x40 MLOAD PUSH2 0x311 SWAP2 SWAP1 PUSH2 0x1E10 JUMP JUMPDEST PUSH1 0x40 MLOAD DUP1 SWAP2 SUB SWAP1 RETURN JUMPDEST PUSH1 0x0 PUSH32 0x80AC58CD00000000000000000000000000000000000000000000000000000000 PUSH28 0xFFFFFFFFFFFFFFFFFFFFFFFFFFFFFFFFFFFFFFFFFFFFFFFFFFFFFFFF NOT AND DUP3 PUSH28 0xFFFFFFFFFFFFFFFFFFFFFFFFFFFFFFFFFFFFFFFFFFFFFFFFFFFFFFFF NOT AND EQ DUP1 PUSH2 0x3E5 JUMPI POP PUSH32 0x5B5E139F00000000000000000000000000000000000000000000000000000000 PUSH28 0xFFFFFFFFFFFFFFFFFFFFFFFFFFFFFFFFFFFFFFFFFFFFFFFFFFFFFFFF NOT AND DUP3 PUSH28 0xFFFFFFFFFFFFFFFFFFFFFFFFFFFFFFFFFFFFFFFFFFFFFFFFFFFFFFFF NOT AND EQ JUMPDEST DUP1 PUSH2 0x3F5 JUMPI POP PUSH2 0x3F4 DUP3 PUSH2 0xB95 JUMP JUMPDEST JUMPDEST SWAP1 POP SWAP2 SWAP1 POP JUMP JUMPDEST PUSH1 0x60 PUSH1 0x1 DUP1 SLOAD PUSH2 0x40B SWAP1 PUSH2 0x2232 JUMP JUMPDEST DUP1 PUSH1 0x1F ADD PUSH1 0x20 DUP1 SWAP2 DIV MUL PUSH1 0x20 ADD PUSH1 0x40 MLOAD SWAP1 DUP2 ADD PUSH1 0x40 MSTORE DUP1 SWAP3 SWAP2 SWAP1 DUP2 DUP2 MSTORE PUSH1 0x20 ADD DUP3 DUP1 SLOAD PUSH2 0x437 SWAP1 PUSH2 0x2232 JUMP JUMPDEST DUP1 ISZERO PUSH2 0x484 JUMPI DUP1 PUSH1 0x1F LT PUSH2 0x459 JUMPI PUSH2 0x100 DUP1 DUP4 SLOAD DIV MUL DUP4 MSTORE SWAP2 PUSH1 0x20 ADD SWAP2 PUSH2 0x484 JUMP JUMPDEST DUP3 ADD SWAP2 SWAP1 PUSH1 0x0 MSTORE PUSH1 0x20 PUSH1 0x0 KECCAK256 SWAP1 JUMPDEST DUP2 SLOAD DUP2 MSTORE SWAP1 PUSH1 0x1 ADD SWAP1 PUSH1 0x20 ADD DUP1 DUP4 GT PUSH2 0x467 JUMPI DUP3 SWAP1 SUB PUSH1 0x1F AND DUP3 ADD SWAP2 JUMPDEST POP POP POP POP POP SWAP1 POP SWAP1 JUMP JUMPDEST PUSH1 0x0 PUSH2 0x499 DUP3 PUSH2 0xBFC JUMP JUMPDEST PUSH2 0x4D8 JUMPI PUSH1 0x40 MLOAD PUSH32 0x8C379A000000000000000000000000000000000000000000000000000000000 DUP2 MSTORE PUSH1 0x4 ADD PUSH2 0x4CF SWAP1 PUSH2 0x1F8D JUMP JUMPDEST PUSH1 0x40 MLOAD DUP1 SWAP2 SUB SWAP1 REVERT JUMPDEST PUSH1 0x5 PUSH1 0x0 DUP4 DUP2 MSTORE PUSH1 0x20 ADD SWAP1 DUP2 MSTORE PUSH1 0x20 ADD PUSH1 0x0 KECCAK256 PUSH1 0x0 SWAP1 SLOAD SWAP1 PUSH2 0x100 EXP SWAP1 DIV PUSH20 0xFFFFFFFFFFFFFFFFFFFFFFFFFFFFFFFFFFFFFFFF AND SWAP1 POP SWAP2 SWAP1 POP JUMP JUMPDEST PUSH1 0x0 PUSH2 0x51E DUP3 PUSH2 0x6AB JUMP JUMPDEST SWAP1 POP DUP1 PUSH20 0xFFFFFFFFFFFFFFFFFFFFFFFFFFFFFFFFFFFFFFFF AND DUP4 PUSH20 0xFFFFFFFFFFFFFFFFFFFFFFFFFFFFFFFFFFFFFFFF AND EQ ISZERO PUSH2 0x58F JUMPI PUSH1 0x40 MLOAD PUSH32 0x8C379A000000000000000000000000000000000000000000000000000000000 DUP2 MSTORE PUSH1 0x4 ADD PUSH2 0x586 SWAP1 PUSH2 0x1FCD JUMP JUMPDEST PUSH1 0x40 MLOAD DUP1 SWAP2 SUB SWAP1 REVERT JUMPDEST DUP1 PUSH20 0xFFFFFFFFFFFFFFFFFFFFFFFFFFFFFFFFFFFFFFFF AND PUSH2 0x5AE PUSH2 0xC68 JUMP JUMPDEST PUSH20 0xFFFFFFFFFFFFFFFFFFFFFFFFFFFFFFFFFFFFFFFF AND EQ DUP1 PUSH2 0x5DD JUMPI POP PUSH2 0x5DC DUP2 PUSH2 0x5D7 PUSH2 0xC68 JUMP JUMPDEST PUSH2 0xB01 JUMP JUMPDEST JUMPDEST PUSH2 0x61C JUMPI PUSH1 0x40 MLOAD PUSH32 0x8C379A000000000000000000000000000000000000000000000000000000000 DUP2 MSTORE PUSH1 0x4 ADD PUSH2 0x613 SWAP1 PUSH2 0x1F0D JUMP JUMPDEST PUSH1 0x40 MLOAD DUP1 SWAP2 SUB SWAP1 REVERT JUMPDEST PUSH2 0x626 DUP4 DUP4 PUSH2 0xC70 JUMP JUMPDEST POP POP POP JUMP JUMPDEST PUSH2 0x63C PUSH2 0x636 PUSH2 0xC68 JUMP JUMPDEST DUP3 PUSH2 0xD29 JUMP JUMPDEST PUSH2 0x67B JUMPI PUSH1 0x40 MLOAD PUSH32 0x8C379A000000000000000000000000000000000000000000000000000000000 DUP2 MSTORE PUSH1 0x4 ADD PUSH2 0x672 SWAP1 PUSH2 0x1FED JUMP JUMPDEST PUSH1 0x40 MLOAD DUP1 SWAP2 SUB SWAP1 REVERT JUMPDEST PUSH2 0x686 DUP4 DUP4 DUP4 PUSH2 0xE07 JUMP JUMPDEST POP POP POP JUMP JUMPDEST PUSH2 0x6A6 DUP4 DUP4 DUP4 PUSH1 0x40 MLOAD DUP1 PUSH1 0x20 ADD PUSH1 0x40 MSTORE DUP1 PUSH1 0x0 DUP2 MSTORE POP PUSH2 0x9F8 JUMP JUMPDEST POP POP POP JUMP JUMPDEST PUSH1 0x0 DUP1 PUSH1 0x3 PUSH1 0x0 DUP5 DUP2 MSTORE PUSH1 0x20 ADD SWAP1 DUP2 MSTORE PUSH1 0x20 ADD PUSH1 0x0 KECCAK256 PUSH1 0x0 SWAP1 SLOAD SWAP1 PUSH2 0x100 EXP SWAP1 DIV PUSH20 0xFFFFFFFFFFFFFFFFFFFFFFFFFFFFFFFFFFFFFFFF AND SWAP1 POP PUSH1 0x0 PUSH20 0xFFFFFFFFFFFFFFFFFFFFFFFFFFFFFFFFFFFFFFFF AND DUP2 PUSH20 0xFFFFFFFFFFFFFFFFFFFFFFFFFFFFFFFFFFFFFFFF AND EQ ISZERO PUSH2 0x754 JUMPI PUSH1 0x40 MLOAD PUSH32 0x8C379A000000000000000000000000000000000000000000000000000000000 DUP2 MSTORE PUSH1 0x4 ADD PUSH2 0x74B SWAP1 PUSH2 0x1F4D JUMP JUMPDEST PUSH1 0x40 MLOAD DUP1 SWAP2 SUB SWAP1 REVERT JUMPDEST DUP1 SWAP2 POP POP SWAP2 SWAP1 POP JUMP JUMPDEST PUSH1 0x0 DUP1 PUSH20 0xFFFFFFFFFFFFFFFFFFFFFFFFFFFFFFFFFFFFFFFF AND DUP3 PUSH20 0xFFFFFFFFFFFFFFFFFFFFFFFFFFFFFFFFFFFFFFFF AND EQ ISZERO PUSH2 0x7CE JUMPI PUSH1 0x40 MLOAD PUSH32 0x8C379A000000000000000000000000000000000000000000000000000000000 DUP2 MSTORE PUSH1 0x4 ADD PUSH2 0x7C5 SWAP1 PUSH2 0x1F2D JUMP JUMPDEST PUSH1 0x40 MLOAD DUP1 SWAP2 SUB SWAP1 REVERT JUMPDEST PUSH1 0x4 PUSH1 0x0 DUP4 PUSH20 0xFFFFFFFFFFFFFFFFFFFFFFFFFFFFFFFFFFFFFFFF AND PUSH20 0xFFFFFFFFFFFFFFFFFFFFFFFFFFFFFFFFFFFFFFFF AND DUP2 MSTORE PUSH1 0x20 ADD SWAP1 DUP2 MSTORE PUSH1 0x20 ADD PUSH1 0x0 KECCAK256 SLOAD SWAP1 POP SWAP2 SWAP1 POP JUMP JUMPDEST PUSH1 0x60 PUSH1 0x2 DUP1 SLOAD PUSH2 0x824 SWAP1 PUSH2 0x2232 JUMP JUMPDEST DUP1 PUSH1 0x1F ADD PUSH1 0x20 DUP1 SWAP2 DIV MUL PUSH1 0x20 ADD PUSH1 0x40 MLOAD SWAP1 DUP2 ADD PUSH1 0x40 MSTORE DUP1 SWAP3 SWAP2 SWAP1 DUP2 DUP2 MSTORE PUSH1 0x20 ADD DUP3 DUP1 SLOAD PUSH2 0x850 SWAP1 PUSH2 0x2232 JUMP JUMPDEST DUP1 ISZERO PUSH2 0x89D JUMPI DUP1 PUSH1 0x1F LT PUSH2 0x872 JUMPI PUSH2 0x100 DUP1 DUP4 SLOAD DIV MUL DUP4 MSTORE SWAP2 PUSH1 0x20 ADD SWAP2 PUSH2 0x89D JUMP JUMPDEST DUP3 ADD SWAP2 SWAP1 PUSH1 0x0 MSTORE PUSH1 0x20 PUSH1 0x0 KECCAK256 SWAP1 JUMPDEST DUP2 SLOAD DUP2 MSTORE SWAP1 PUSH1 0x1 ADD SWAP1 PUSH1 0x20 ADD DUP1 DUP4 GT PUSH2 0x880 JUMPI DUP3 SWAP1 SUB PUSH1 0x1F AND DUP3 ADD SWAP2 JUMPDEST POP POP POP POP POP SWAP1 POP SWAP1 JUMP JUMPDEST PUSH1 0x0 PUSH2 0x8B2 DUP3 PUSH2 0x6AB JUMP JUMPDEST SWAP1 POP PUSH2 0x8C0 DUP2 PUSH1 0x0 DUP5 PUSH2 0x106E JUMP JUMPDEST PUSH2 0x8CB PUSH1 0x0 DUP4 PUSH2 0xC70 JUMP JUMPDEST PUSH1 0x1 PUSH1 0x4 PUSH1 0x0 DUP4 PUSH20 0xFFFFFFFFFFFFFFFFFFFFFFFFFFFFFFFFFFFFFFFF AND PUSH20 0xFFFFFFFFFFFFFFFFFFFFFFFFFFFFFFFFFFFFFFFF AND DUP2 MSTORE PUSH1 0x20 ADD SWAP1 DUP2 MSTORE PUSH1 0x20 ADD PUSH1 0x0 KECCAK256 PUSH1 0x0 DUP3 DUP3 SLOAD PUSH2 0x91B SWAP2 SWAP1 PUSH2 0x2148 JUMP JUMPDEST SWAP3 POP POP DUP2 SWAP1 SSTORE POP PUSH1 0x3 PUSH1 0x0 DUP4 DUP2 MSTORE PUSH1 0x20 ADD SWAP1 DUP2 MSTORE PUSH1 0x20 ADD PUSH1 0x0 KECCAK256 PUSH1 0x0 PUSH2 0x100 EXP DUP2 SLOAD SWAP1 PUSH20 0xFFFFFFFFFFFFFFFFFFFFFFFFFFFFFFFFFFFFFFFF MUL NOT AND SWAP1 SSTORE DUP2 PUSH1 0x0 PUSH20 0xFFFFFFFFFFFFFFFFFFFFFFFFFFFFFFFFFFFFFFFF AND DUP3 PUSH20 0xFFFFFFFFFFFFFFFFFFFFFFFFFFFFFFFFFFFFFFFF AND PUSH32 0xDDF252AD1BE2C89B69C2B068FC378DAA952BA7F163C4A11628F55A4DF523B3EF PUSH1 0x40 MLOAD PUSH1 0x40 MLOAD DUP1 SWAP2 SUB SWAP1 LOG4 PUSH2 0x9C0 DUP2 PUSH1 0x0 DUP5 PUSH2 0x1073 JUMP JUMPDEST POP POP JUMP JUMPDEST PUSH2 0x9D6 PUSH2 0x9CF PUSH2 0xC68 JUMP JUMPDEST DUP4 DUP4 PUSH2 0x1078 JUMP JUMPDEST POP POP JUMP JUMPDEST PUSH2 0x9F4 DUP3 DUP3 PUSH1 0x40 MLOAD DUP1 PUSH1 0x20 ADD PUSH1 0x40 MSTORE DUP1 PUSH1 0x0 DUP2 MSTORE POP PUSH2 0x11E5 JUMP JUMPDEST POP POP JUMP JUMPDEST PUSH2 0xA09 PUSH2 0xA03 PUSH2 0xC68 JUMP JUMPDEST DUP4 PUSH2 0xD29 JUMP JUMPDEST PUSH2 0xA48 JUMPI PUSH1 0x40 MLOAD PUSH32 0x8C379A000000000000000000000000000000000000000000000000000000000 DUP2 MSTORE PUSH1 0x4 ADD PUSH2 0xA3F SWAP1 PUSH2 0x1FED JUMP JUMPDEST PUSH1 0x40 MLOAD DUP1 SWAP2 SUB SWAP1 REVERT JUMPDEST PUSH2 0xA54 DUP5 DUP5 DUP5 DUP5 PUSH2 0x1240 JUMP JUMPDEST POP POP POP POP JUMP JUMPDEST PUSH1 0x60 PUSH2 0xA65 DUP3 PUSH2 0xBFC JUMP JUMPDEST PUSH2 0xAA4 JUMPI PUSH1 0x40 MLOAD PUSH32 0x8C379A000000000000000000000000000000000000000000000000000000000 DUP2 MSTORE PUSH1 0x4 ADD PUSH2 0xA9B SWAP1 PUSH2 0x1FAD JUMP JUMPDEST PUSH1 0x40 MLOAD DUP1 SWAP2 SUB SWAP1 REVERT JUMPDEST PUSH1 0x0 PUSH2 0xAAE PUSH2 0x129C JUMP JUMPDEST SWAP1 POP PUSH1 0x0 DUP2 MLOAD GT PUSH2 0xACE JUMPI PUSH1 0x40 MLOAD DUP1 PUSH1 0x20 ADD PUSH1 0x40 MSTORE DUP1 PUSH1 0x0 DUP2 MSTORE POP PUSH2 0xAF9 JUMP JUMPDEST DUP1 PUSH2 0xAD8 DUP5 PUSH2 0x12B3 JUMP JUMPDEST PUSH1 0x40 MLOAD PUSH1 0x20 ADD PUSH2 0xAE9 SWAP3 SWAP2 SWAP1 PUSH2 0x1D85 JUMP JUMPDEST PUSH1 0x40 MLOAD PUSH1 0x20 DUP2 DUP4 SUB SUB DUP2 MSTORE SWAP1 PUSH1 0x40 MSTORE JUMPDEST SWAP2 POP POP SWAP2 SWAP1 POP JUMP JUMPDEST PUSH1 0x0 PUSH1 0x6 PUSH1 0x0 DUP5 PUSH20 0xFFFFFFFFFFFFFFFFFFFFFFFFFFFFFFFFFFFFFFFF AND PUSH20 0xFFFFFFFFFFFFFFFFFFFFFFFFFFFFFFFFFFFFFFFF AND DUP2 MSTORE PUSH1 0x20 ADD SWAP1 DUP2 MSTORE PUSH1 0x20 ADD PUSH1 0x0 KECCAK256 PUSH1 0x0 DUP4 PUSH20 0xFFFFFFFFFFFFFFFFFFFFFFFFFFFFFFFFFFFFFFFF AND PUSH20 0xFFFFFFFFFFFFFFFFFFFFFFFFFFFFFFFFFFFFFFFF AND DUP2 MSTORE PUSH1 0x20 ADD SWAP1 DUP2 MSTORE PUSH1 0x20 ADD PUSH1 0x0 KECCAK256 PUSH1 0x0 SWAP1 SLOAD SWAP1 PUSH2 0x100 EXP SWAP1 DIV PUSH1 0xFF AND SWAP1 POP SWAP3 SWAP2 POP POP JUMP JUMPDEST PUSH1 0x0 DUP1 PUSH1 0x0 DUP4 PUSH28 0xFFFFFFFFFFFFFFFFFFFFFFFFFFFFFFFFFFFFFFFFFFFFFFFFFFFFFFFF NOT AND PUSH28 0xFFFFFFFFFFFFFFFFFFFFFFFFFFFFFFFFFFFFFFFFFFFFFFFFFFFFFFFF NOT AND DUP2 MSTORE PUSH1 0x20 ADD SWAP1 DUP2 MSTORE PUSH1 0x20 ADD PUSH1 0x0 KECCAK256 PUSH1 0x0 SWAP1 SLOAD SWAP1 PUSH2 0x100 EXP SWAP1 DIV PUSH1 0xFF AND SWAP1 POP SWAP2 SWAP1 POP JUMP JUMPDEST PUSH1 0x0 DUP1 PUSH20 0xFFFFFFFFFFFFFFFFFFFFFFFFFFFFFFFFFFFFFFFF AND PUSH1 0x3 PUSH1 0x0 DUP5 DUP2 MSTORE PUSH1 0x20 ADD SWAP1 DUP2 MSTORE PUSH1 0x20 ADD PUSH1 0x0 KECCAK256 PUSH1 0x0 SWAP1 SLOAD SWAP1 PUSH2 0x100 EXP SWAP1 DIV PUSH20 0xFFFFFFFFFFFFFFFFFFFFFFFFFFFFFFFFFFFFFFFF AND PUSH20 0xFFFFFFFFFFFFFFFFFFFFFFFFFFFFFFFFFFFFFFFF AND EQ ISZERO SWAP1 POP SWAP2 SWAP1 POP JUMP JUMPDEST PUSH1 0x0 CALLER SWAP1 POP SWAP1 JUMP JUMPDEST DUP2 PUSH1 0x5 PUSH1 0x0 DUP4 DUP2 MSTORE PUSH1 0x20 ADD SWAP1 DUP2 MSTORE PUSH1 0x20 ADD PUSH1 0x0 KECCAK256 PUSH1 0x0 PUSH2 0x100 EXP DUP2 SLOAD DUP2 PUSH20 0xFFFFFFFFFFFFFFFFFFFFFFFFFFFFFFFFFFFFFFFF MUL NOT AND SWAP1 DUP4 PUSH20 0xFFFFFFFFFFFFFFFFFFFFFFFFFFFFFFFFFFFFFFFF AND MUL OR SWAP1 SSTORE POP DUP1 DUP3 PUSH20 0xFFFFFFFFFFFFFFFFFFFFFFFFFFFFFFFFFFFFFFFF AND PUSH2 0xCE3 DUP4 PUSH2 0x6AB JUMP JUMPDEST PUSH20 0xFFFFFFFFFFFFFFFFFFFFFFFFFFFFFFFFFFFFFFFF AND PUSH32 0x8C5BE1E5EBEC7D5BD14F71427D1E84F3DD0314C0F7B2291E5B200AC8C7C3B925 PUSH1 0x40 MLOAD PUSH1 0x40 MLOAD DUP1 SWAP2 SUB SWAP1 LOG4 POP POP JUMP JUMPDEST PUSH1 0x0 PUSH2 0xD34 DUP3 PUSH2 0xBFC JUMP JUMPDEST PUSH2 0xD73 JUMPI PUSH1 0x40 MLOAD PUSH32 0x8C379A000000000000000000000000000000000000000000000000000000000 DUP2 MSTORE PUSH1 0x4 ADD PUSH2 0xD6A SWAP1 PUSH2 0x1EED JUMP JUMPDEST PUSH1 0x40 MLOAD DUP1 SWAP2 SUB SWAP1 REVERT JUMPDEST PUSH1 0x0 PUSH2 0xD7E DUP4 PUSH2 0x6AB JUMP JUMPDEST SWAP1 POP DUP1 PUSH20 0xFFFFFFFFFFFFFFFFFFFFFFFFFFFFFFFFFFFFFFFF AND DUP5 PUSH20 0xFFFFFFFFFFFFFFFFFFFFFFFFFFFFFFFFFFFFFFFF AND EQ DUP1 PUSH2 0xDC0 JUMPI POP PUSH2 0xDBF DUP2 DUP6 PUSH2 0xB01 JUMP JUMPDEST JUMPDEST DUP1 PUSH2 0xDFE JUMPI POP DUP4 PUSH20 0xFFFFFFFFFFFFFFFFFFFFFFFFFFFFFFFFFFFFFFFF AND PUSH2 0xDE6 DUP5 PUSH2 0x48E JUMP JUMPDEST PUSH20 0xFFFFFFFFFFFFFFFFFFFFFFFFFFFFFFFFFFFFFFFF AND EQ JUMPDEST SWAP2 POP POP SWAP3 SWAP2 POP POP JUMP JUMPDEST DUP3 PUSH20 0xFFFFFFFFFFFFFFFFFFFFFFFFFFFFFFFFFFFFFFFF AND PUSH2 0xE27 DUP3 PUSH2 0x6AB JUMP JUMPDEST PUSH20 0xFFFFFFFFFFFFFFFFFFFFFFFFFFFFFFFFFFFFFFFF AND EQ PUSH2 0xE7D JUMPI PUSH1 0x40 MLOAD PUSH32 0x8C379A000000000000000000000000000000000000000000000000000000000 DUP2 MSTORE PUSH1 0x4 ADD PUSH2 0xE74 SWAP1 PUSH2 0x1E6D JUMP JUMPDEST PUSH1 0x40 MLOAD DUP1 SWAP2 SUB SWAP1 REVERT JUMPDEST PUSH1 0x0 PUSH20 0xFFFFFFFFFFFFFFFFFFFFFFFFFFFFFFFFFFFFFFFF AND DUP3 PUSH20 0xFFFFFFFFFFFFFFFFFFFFFFFFFFFFFFFFFFFFFFFF AND EQ ISZERO PUSH2 0xEED JUMPI PUSH1 0x40 MLOAD PUSH32 0x8C379A000000000000000000000000000000000000000000000000000000000 DUP2 MSTORE PUSH1 0x4 ADD PUSH2 0xEE4 SWAP1 PUSH2 0x1EAD JUMP JUMPDEST PUSH1 0x40 MLOAD DUP1 SWAP2 SUB SWAP1 REVERT JUMPDEST PUSH2 0xEF8 DUP4 DUP4 DUP4 PUSH2 0x106E JUMP JUMPDEST PUSH2 0xF03 PUSH1 0x0 DUP3 PUSH2 0xC70 JUMP JUMPDEST PUSH1 0x1 PUSH1 0x4 PUSH1 0x0 DUP6 PUSH20 0xFFFFFFFFFFFFFFFFFFFFFFFFFFFFFFFFFFFFFFFF AND PUSH20 0xFFFFFFFFFFFFFFFFFFFFFFFFFFFFFFFFFFFFFFFF AND DUP2 MSTORE PUSH1 0x20 ADD SWAP1 DUP2 MSTORE PUSH1 0x20 ADD PUSH1 0x0 KECCAK256 PUSH1 0x0 DUP3 DUP3 SLOAD PUSH2 0xF53 SWAP2 SWAP1 PUSH2 0x2148 JUMP JUMPDEST SWAP3 POP POP DUP2 SWAP1 SSTORE POP PUSH1 0x1 PUSH1 0x4 PUSH1 0x0 DUP5 PUSH20 0xFFFFFFFFFFFFFFFFFFFFFFFFFFFFFFFFFFFFFFFF AND PUSH20 0xFFFFFFFFFFFFFFFFFFFFFFFFFFFFFFFFFFFFFFFF AND DUP2 MSTORE PUSH1 0x20 ADD SWAP1 DUP2 MSTORE PUSH1 0x20 ADD PUSH1 0x0 KECCAK256 PUSH1 0x0 DUP3 DUP3 SLOAD PUSH2 0xFAA SWAP2 SWAP1 PUSH2 0x20C1 JUMP JUMPDEST SWAP3 POP POP DUP2 SWAP1 SSTORE POP DUP2 PUSH1 0x3 PUSH1 0x0 DUP4 DUP2 MSTORE PUSH1 0x20 ADD SWAP1 DUP2 MSTORE PUSH1 0x20 ADD PUSH1 0x0 KECCAK256 PUSH1 0x0 PUSH2 0x100 EXP DUP2 SLOAD DUP2 PUSH20 0xFFFFFFFFFFFFFFFFFFFFFFFFFFFFFFFFFFFFFFFF MUL NOT AND SWAP1 DUP4 PUSH20 0xFFFFFFFFFFFFFFFFFFFFFFFFFFFFFFFFFFFFFFFF AND MUL OR SWAP1 SSTORE POP DUP1 DUP3 PUSH20 0xFFFFFFFFFFFFFFFFFFFFFFFFFFFFFFFFFFFFFFFF AND DUP5 PUSH20 0xFFFFFFFFFFFFFFFFFFFFFFFFFFFFFFFFFFFFFFFF AND PUSH32 0xDDF252AD1BE2C89B69C2B068FC378DAA952BA7F163C4A11628F55A4DF523B3EF PUSH1 0x40 MLOAD PUSH1 0x40 MLOAD DUP1 SWAP2 SUB SWAP1 LOG4 PUSH2 0x1069 DUP4 DUP4 DUP4 PUSH2 0x1073 JUMP JUMPDEST POP POP POP JUMP JUMPDEST POP POP POP JUMP JUMPDEST POP POP POP JUMP JUMPDEST DUP2 PUSH20 0xFFFFFFFFFFFFFFFFFFFFFFFFFFFFFFFFFFFFFFFF AND DUP4 PUSH20 0xFFFFFFFFFFFFFFFFFFFFFFFFFFFFFFFFFFFFFFFF AND EQ ISZERO PUSH2 0x10E7 JUMPI PUSH1 0x40 MLOAD PUSH32 0x8C379A000000000000000000000000000000000000000000000000000000000 DUP2 MSTORE PUSH1 0x4 ADD PUSH2 0x10DE SWAP1 PUSH2 0x1ECD JUMP JUMPDEST PUSH1 0x40 MLOAD DUP1 SWAP2 SUB SWAP1 REVERT JUMPDEST DUP1 PUSH1 0x6 PUSH1 0x0 DUP6 PUSH20 0xFFFFFFFFFFFFFFFFFFFFFFFFFFFFFFFFFFFFFFFF AND PUSH20 0xFFFFFFFFFFFFFFFFFFFFFFFFFFFFFFFFFFFFFFFF AND DUP2 MSTORE PUSH1 0x20 ADD SWAP1 DUP2 MSTORE PUSH1 0x20 ADD PUSH1 0x0 KECCAK256 PUSH1 0x0 DUP5 PUSH20 0xFFFFFFFFFFFFFFFFFFFFFFFFFFFFFFFFFFFFFFFF AND PUSH20 0xFFFFFFFFFFFFFFFFFFFFFFFFFFFFFFFFFFFFFFFF AND DUP2 MSTORE PUSH1 0x20 ADD SWAP1 DUP2 MSTORE PUSH1 0x20 ADD PUSH1 0x0 KECCAK256 PUSH1 0x0 PUSH2 0x100 EXP DUP2 SLOAD DUP2 PUSH1 0xFF MUL NOT AND SWAP1 DUP4 ISZERO ISZERO MUL OR SWAP1 SSTORE POP DUP2 PUSH20 0xFFFFFFFFFFFFFFFFFFFFFFFFFFFFFFFFFFFFFFFF AND DUP4 PUSH20 0xFFFFFFFFFFFFFFFFFFFFFFFFFFFFFFFFFFFFFFFF AND PUSH32 0x17307EAB39AB6107E8899845AD3D59BD9653F200F220920489CA2B5937696C31 DUP4 PUSH1 0x40 MLOAD PUSH2 0x11D8 SWAP2 SWAP1 PUSH2 0x1E10 JUMP JUMPDEST PUSH1 0x40 MLOAD DUP1 SWAP2 SUB SWAP1 LOG3 POP POP POP JUMP JUMPDEST PUSH2 0x11EF DUP4 DUP4 PUSH2 0x1414 JUMP JUMPDEST PUSH2 0x11FC PUSH1 0x0 DUP5 DUP5 DUP5 PUSH2 0x15EE JUMP JUMPDEST PUSH2 0x123B JUMPI PUSH1 0x40 MLOAD PUSH32 0x8C379A000000000000000000000000000000000000000000000000000000000 DUP2 MSTORE PUSH1 0x4 ADD PUSH2 0x1232 SWAP1 PUSH2 0x1E4D JUMP JUMPDEST PUSH1 0x40 MLOAD DUP1 SWAP2 SUB SWAP1 REVERT JUMPDEST POP POP POP JUMP JUMPDEST PUSH2 0x124B DUP5 DUP5 DUP5 PUSH2 0xE07 JUMP JUMPDEST PUSH2 0x1257 DUP5 DUP5 DUP5 DUP5 PUSH2 0x15EE JUMP JUMPDEST PUSH2 0x1296 JUMPI PUSH1 0x40 MLOAD PUSH32 0x8C379A000000000000000000000000000000000000000000000000000000000 DUP2 MSTORE PUSH1 0x4 ADD PUSH2 0x128D SWAP1 PUSH2 0x1E4D JUMP JUMPDEST PUSH1 0x40 MLOAD DUP1 SWAP2 SUB SWAP1 REVERT JUMPDEST POP POP POP POP JUMP JUMPDEST PUSH1 0x60 PUSH1 0x40 MLOAD DUP1 PUSH1 0x20 ADD PUSH1 0x40 MSTORE DUP1 PUSH1 0x0 DUP2 MSTORE POP SWAP1 POP SWAP1 JUMP JUMPDEST PUSH1 0x60 PUSH1 0x0 DUP3 EQ ISZERO PUSH2 0x12FB JUMPI PUSH1 0x40 MLOAD DUP1 PUSH1 0x40 ADD PUSH1 0x40 MSTORE DUP1 PUSH1 0x1 DUP2 MSTORE PUSH1 0x20 ADD PUSH32 0x3000000000000000000000000000000000000000000000000000000000000000 DUP2 MSTORE POP SWAP1 POP PUSH2 0x140F JUMP JUMPDEST PUSH1 0x0 DUP3 SWAP1 POP PUSH1 0x0 JUMPDEST PUSH1 0x0 DUP3 EQ PUSH2 0x132D JUMPI DUP1 DUP1 PUSH2 0x1316 SWAP1 PUSH2 0x2295 JUMP JUMPDEST SWAP2 POP POP PUSH1 0xA DUP3 PUSH2 0x1326 SWAP2 SWAP1 PUSH2 0x2117 JUMP JUMPDEST SWAP2 POP PUSH2 0x1303 JUMP JUMPDEST PUSH1 0x0 DUP2 PUSH8 0xFFFFFFFFFFFFFFFF DUP2 GT ISZERO PUSH2 0x1349 JUMPI PUSH2 0x1348 PUSH2 0x23CB JUMP JUMPDEST JUMPDEST PUSH1 0x40 MLOAD SWAP1 DUP1 DUP3 MSTORE DUP1 PUSH1 0x1F ADD PUSH1 0x1F NOT AND PUSH1 0x20 ADD DUP3 ADD PUSH1 0x40 MSTORE DUP1 ISZERO PUSH2 0x137B JUMPI DUP2 PUSH1 0x20 ADD PUSH1 0x1 DUP3 MUL DUP1 CALLDATASIZE DUP4 CALLDATACOPY DUP1 DUP3 ADD SWAP2 POP POP SWAP1 POP JUMPDEST POP SWAP1 POP JUMPDEST PUSH1 0x0 DUP6 EQ PUSH2 0x1408 JUMPI PUSH1 0x1 DUP3 PUSH2 0x1394 SWAP2 SWAP1 PUSH2 0x2148 JUMP JUMPDEST SWAP2 POP PUSH1 0xA DUP6 PUSH2 0x13A3 SWAP2 SWAP1 PUSH2 0x22DE JUMP JUMPDEST PUSH1 0x30 PUSH2 0x13AF SWAP2 SWAP1 PUSH2 0x20C1 JUMP JUMPDEST PUSH1 0xF8 SHL DUP2 DUP4 DUP2 MLOAD DUP2 LT PUSH2 0x13C5 JUMPI PUSH2 0x13C4 PUSH2 0x239C JUMP JUMPDEST JUMPDEST PUSH1 0x20 ADD ADD SWAP1 PUSH31 0xFFFFFFFFFFFFFFFFFFFFFFFFFFFFFFFFFFFFFFFFFFFFFFFFFFFFFFFFFFFFFF NOT AND SWAP1 DUP2 PUSH1 0x0 BYTE SWAP1 MSTORE8 POP PUSH1 0xA DUP6 PUSH2 0x1401 SWAP2 SWAP1 PUSH2 0x2117 JUMP JUMPDEST SWAP5 POP PUSH2 0x137F JUMP JUMPDEST DUP1 SWAP4 POP POP POP POP JUMPDEST SWAP2 SWAP1 POP JUMP JUMPDEST PUSH1 0x0 PUSH20 0xFFFFFFFFFFFFFFFFFFFFFFFFFFFFFFFFFFFFFFFF AND DUP3 PUSH20 0xFFFFFFFFFFFFFFFFFFFFFFFFFFFFFFFFFFFFFFFF AND EQ ISZERO PUSH2 0x1484 JUMPI PUSH1 0x40 MLOAD PUSH32 0x8C379A000000000000000000000000000000000000000000000000000000000 DUP2 MSTORE PUSH1 0x4 ADD PUSH2 0x147B SWAP1 PUSH2 0x1F6D JUMP JUMPDEST PUSH1 0x40 MLOAD DUP1 SWAP2 SUB SWAP1 REVERT JUMPDEST PUSH2 0x148D DUP2 PUSH2 0xBFC JUMP JUMPDEST ISZERO PUSH2 0x14CD JUMPI PUSH1 0x40 MLOAD PUSH32 0x8C379A000000000000000000000000000000000000000000000000000000000 DUP2 MSTORE PUSH1 0x4 ADD PUSH2 0x14C4 SWAP1 PUSH2 0x1E8D JUMP JUMPDEST PUSH1 0x40 MLOAD DUP1 SWAP2 SUB SWAP1 REVERT JUMPDEST PUSH2 0x14D9 PUSH1 0x0 DUP4 DUP4 PUSH2 0x106E JUMP JUMPDEST PUSH1 0x1 PUSH1 0x4 PUSH1 0x0 DUP5 PUSH20 0xFFFFFFFFFFFFFFFFFFFFFFFFFFFFFFFFFFFFFFFF AND PUSH20 0xFFFFFFFFFFFFFFFFFFFFFFFFFFFFFFFFFFFFFFFF AND DUP2 MSTORE PUSH1 0x20 ADD SWAP1 DUP2 MSTORE PUSH1 0x20 ADD PUSH1 0x0 KECCAK256 PUSH1 0x0 DUP3 DUP3 SLOAD PUSH2 0x1529 SWAP2 SWAP1 PUSH2 0x20C1 JUMP JUMPDEST SWAP3 POP POP DUP2 SWAP1 SSTORE POP DUP2 PUSH1 0x3 PUSH1 0x0 DUP4 DUP2 MSTORE PUSH1 0x20 ADD SWAP1 DUP2 MSTORE PUSH1 0x20 ADD PUSH1 0x0 KECCAK256 PUSH1 0x0 PUSH2 0x100 EXP DUP2 SLOAD DUP2 PUSH20 0xFFFFFFFFFFFFFFFFFFFFFFFFFFFFFFFFFFFFFFFF MUL NOT AND SWAP1 DUP4 PUSH20 0xFFFFFFFFFFFFFFFFFFFFFFFFFFFFFFFFFFFFFFFF AND MUL OR SWAP1 SSTORE POP DUP1 DUP3 PUSH20 0xFFFFFFFFFFFFFFFFFFFFFFFFFFFFFFFFFFFFFFFF AND PUSH1 0x0 PUSH20 0xFFFFFFFFFFFFFFFFFFFFFFFFFFFFFFFFFFFFFFFF AND PUSH32 0xDDF252AD1BE2C89B69C2B068FC378DAA952BA7F163C4A11628F55A4DF523B3EF PUSH1 0x40 MLOAD PUSH1 0x40 MLOAD DUP1 SWAP2 SUB SWAP1 LOG4 PUSH2 0x15EA PUSH1 0x0 DUP4 DUP4 PUSH2 0x1073 JUMP JUMPDEST POP POP JUMP JUMPDEST PUSH1 0x0 PUSH2 0x160F DUP5 PUSH20 0xFFFFFFFFFFFFFFFFFFFFFFFFFFFFFFFFFFFFFFFF AND PUSH2 0x1785 JUMP JUMPDEST ISZERO PUSH2 0x1778 JUMPI DUP4 PUSH20 0xFFFFFFFFFFFFFFFFFFFFFFFFFFFFFFFFFFFFFFFF AND PUSH4 0x150B7A02 PUSH2 0x1638 PUSH2 0xC68 JUMP JUMPDEST DUP8 DUP7 DUP7 PUSH1 0x40 MLOAD DUP6 PUSH4 0xFFFFFFFF AND PUSH1 0xE0 SHL DUP2 MSTORE PUSH1 0x4 ADD PUSH2 0x165A SWAP5 SWAP4 SWAP3 SWAP2 SWAP1 PUSH2 0x1DC4 JUMP JUMPDEST PUSH1 0x20 PUSH1 0x40 MLOAD DUP1 DUP4 SUB DUP2 PUSH1 0x0 DUP8 DUP1 EXTCODESIZE ISZERO DUP1 ISZERO PUSH2 0x1674 JUMPI PUSH1 0x0 DUP1 REVERT JUMPDEST POP GAS CALL SWAP3 POP POP POP DUP1 ISZERO PUSH2 0x16A5 JUMPI POP PUSH1 0x40 MLOAD RETURNDATASIZE PUSH1 0x1F NOT PUSH1 0x1F DUP3 ADD AND DUP3 ADD DUP1 PUSH1 0x40 MSTORE POP DUP2 ADD SWAP1 PUSH2 0x16A2 SWAP2 SWAP1 PUSH2 0x1A71 JUMP JUMPDEST PUSH1 0x1 JUMPDEST PUSH2 0x1728 JUMPI RETURNDATASIZE DUP1 PUSH1 0x0 DUP2 EQ PUSH2 0x16D5 JUMPI PUSH1 0x40 MLOAD SWAP2 POP PUSH1 0x1F NOT PUSH1 0x3F RETURNDATASIZE ADD AND DUP3 ADD PUSH1 0x40 MSTORE RETURNDATASIZE DUP3 MSTORE RETURNDATASIZE PUSH1 0x0 PUSH1 0x20 DUP5 ADD RETURNDATACOPY PUSH2 0x16DA JUMP JUMPDEST PUSH1 0x60 SWAP2 POP JUMPDEST POP PUSH1 0x0 DUP2 MLOAD EQ ISZERO PUSH2 0x1720 JUMPI PUSH1 0x40 MLOAD PUSH32 0x8C379A000000000000000000000000000000000000000000000000000000000 DUP2 MSTORE PUSH1 0x4 ADD PUSH2 0x1717 SWAP1 PUSH2 0x1E4D JUMP JUMPDEST PUSH1 0x40 MLOAD DUP1 SWAP2 SUB SWAP1 REVERT JUMPDEST DUP1 MLOAD DUP2 PUSH1 0x20 ADD REVERT JUMPDEST PUSH4 0x150B7A02 PUSH1 0xE0 SHL PUSH28 0xFFFFFFFFFFFFFFFFFFFFFFFFFFFFFFFFFFFFFFFFFFFFFFFFFFFFFFFF NOT AND DUP2 PUSH28 0xFFFFFFFFFFFFFFFFFFFFFFFFFFFFFFFFFFFFFFFFFFFFFFFFFFFFFFFF NOT AND EQ SWAP2 POP POP PUSH2 0x177D JUMP JUMPDEST PUSH1 0x1 SWAP1 POP JUMPDEST SWAP5 SWAP4 POP POP POP POP JUMP JUMPDEST PUSH1 0x0 DUP1 DUP3 PUSH20 0xFFFFFFFFFFFFFFFFFFFFFFFFFFFFFFFFFFFFFFFF AND EXTCODESIZE GT SWAP1 POP SWAP2 SWAP1 POP JUMP JUMPDEST PUSH1 0x0 PUSH2 0x17BB PUSH2 0x17B6 DUP5 PUSH2 0x204D JUMP JUMPDEST PUSH2 0x2028 JUMP JUMPDEST SWAP1 POP DUP3 DUP2 MSTORE PUSH1 0x20 DUP2 ADD DUP5 DUP5 DUP5 ADD GT ISZERO PUSH2 0x17D7 JUMPI PUSH2 0x17D6 PUSH2 0x23FF JUMP JUMPDEST JUMPDEST PUSH2 0x17E2 DUP5 DUP3 DUP6 PUSH2 0x21F0 JUMP JUMPDEST POP SWAP4 SWAP3 POP POP POP JUMP JUMPDEST PUSH1 0x0 DUP2 CALLDATALOAD SWAP1 POP PUSH2 0x17F9 DUP2 PUSH2 0x27FF JUMP JUMPDEST SWAP3 SWAP2 POP POP JUMP JUMPDEST PUSH1 0x0 DUP2 CALLDATALOAD SWAP1 POP PUSH2 0x180E DUP2 PUSH2 0x2816 JUMP JUMPDEST SWAP3 SWAP2 POP POP JUMP JUMPDEST PUSH1 0x0 DUP2 CALLDATALOAD SWAP1 POP PUSH2 0x1823 DUP2 PUSH2 0x282D JUMP JUMPDEST SWAP3 SWAP2 POP POP JUMP JUMPDEST PUSH1 0x0 DUP2 MLOAD SWAP1 POP PUSH2 0x1838 DUP2 PUSH2 0x282D JUMP JUMPDEST SWAP3 SWAP2 POP POP JUMP JUMPDEST PUSH1 0x0 DUP3 PUSH1 0x1F DUP4 ADD SLT PUSH2 0x1853 JUMPI PUSH2 0x1852 PUSH2 0x23FA JUMP JUMPDEST JUMPDEST DUP2 CALLDATALOAD PUSH2 0x1863 DUP5 DUP3 PUSH1 0x20 DUP7 ADD PUSH2 0x17A8 JUMP JUMPDEST SWAP2 POP POP SWAP3 SWAP2 POP POP JUMP JUMPDEST PUSH1 0x0 DUP2 CALLDATALOAD SWAP1 POP PUSH2 0x187B DUP2 PUSH2 0x2844 JUMP JUMPDEST SWAP3 SWAP2 POP POP JUMP JUMPDEST PUSH1 0x0 PUSH1 0x20 DUP3 DUP5 SUB SLT ISZERO PUSH2 0x1897 JUMPI PUSH2 0x1896 PUSH2 0x2409 JUMP JUMPDEST JUMPDEST PUSH1 0x0 PUSH2 0x18A5 DUP5 DUP3 DUP6 ADD PUSH2 0x17EA JUMP JUMPDEST SWAP2 POP POP SWAP3 SWAP2 POP POP JUMP JUMPDEST PUSH1 0x0 DUP1 PUSH1 0x40 DUP4 DUP6 SUB SLT ISZERO PUSH2 0x18C5 JUMPI PUSH2 0x18C4 PUSH2 0x2409 JUMP JUMPDEST JUMPDEST PUSH1 0x0 PUSH2 0x18D3 DUP6 DUP3 DUP7 ADD PUSH2 0x17EA JUMP JUMPDEST SWAP3 POP POP PUSH1 0x20 PUSH2 0x18E4 DUP6 DUP3 DUP7 ADD PUSH2 0x17EA JUMP JUMPDEST SWAP2 POP POP SWAP3 POP SWAP3 SWAP1 POP JUMP JUMPDEST PUSH1 0x0 DUP1 PUSH1 0x0 PUSH1 0x60 DUP5 DUP7 SUB SLT ISZERO PUSH2 0x1907 JUMPI PUSH2 0x1906 PUSH2 0x2409 JUMP JUMPDEST JUMPDEST PUSH1 0x0 PUSH2 0x1915 DUP7 DUP3 DUP8 ADD PUSH2 0x17EA JUMP JUMPDEST SWAP4 POP POP PUSH1 0x20 PUSH2 0x1926 DUP7 DUP3 DUP8 ADD PUSH2 0x17EA JUMP JUMPDEST SWAP3 POP POP PUSH1 0x40 PUSH2 0x1937 DUP7 DUP3 DUP8 ADD PUSH2 0x186C JUMP JUMPDEST SWAP2 POP POP SWAP3 POP SWAP3 POP SWAP3 JUMP JUMPDEST PUSH1 0x0 DUP1 PUSH1 0x0 DUP1 PUSH1 0x80 DUP6 DUP8 SUB SLT ISZERO PUSH2 0x195B JUMPI PUSH2 0x195A PUSH2 0x2409 JUMP JUMPDEST JUMPDEST PUSH1 0x0 PUSH2 0x1969 DUP8 DUP3 DUP9 ADD PUSH2 0x17EA JUMP JUMPDEST SWAP5 POP POP PUSH1 0x20 PUSH2 0x197A DUP8 DUP3 DUP9 ADD PUSH2 0x17EA JUMP JUMPDEST SWAP4 POP POP PUSH1 0x40 PUSH2 0x198B DUP8 DUP3 DUP9 ADD PUSH2 0x186C JUMP JUMPDEST SWAP3 POP POP PUSH1 0x60 DUP6 ADD CALLDATALOAD PUSH8 0xFFFFFFFFFFFFFFFF DUP2 GT ISZERO PUSH2 0x19AC JUMPI PUSH2 0x19AB PUSH2 0x2404 JUMP JUMPDEST JUMPDEST PUSH2 0x19B8 DUP8 DUP3 DUP9 ADD PUSH2 0x183E JUMP JUMPDEST SWAP2 POP POP SWAP3 SWAP6 SWAP2 SWAP5 POP SWAP3 POP JUMP JUMPDEST PUSH1 0x0 DUP1 PUSH1 0x40 DUP4 DUP6 SUB SLT ISZERO PUSH2 0x19DB JUMPI PUSH2 0x19DA PUSH2 0x2409 JUMP JUMPDEST JUMPDEST PUSH1 0x0 PUSH2 0x19E9 DUP6 DUP3 DUP7 ADD PUSH2 0x17EA JUMP JUMPDEST SWAP3 POP POP PUSH1 0x20 PUSH2 0x19FA DUP6 DUP3 DUP7 ADD PUSH2 0x17FF JUMP JUMPDEST SWAP2 POP POP SWAP3 POP SWAP3 SWAP1 POP JUMP JUMPDEST PUSH1 0x0 DUP1 PUSH1 0x40 DUP4 DUP6 SUB SLT ISZERO PUSH2 0x1A1B JUMPI PUSH2 0x1A1A PUSH2 0x2409 JUMP JUMPDEST JUMPDEST PUSH1 0x0 PUSH2 0x1A29 DUP6 DUP3 DUP7 ADD PUSH2 0x17EA JUMP JUMPDEST SWAP3 POP POP PUSH1 0x20 PUSH2 0x1A3A DUP6 DUP3 DUP7 ADD PUSH2 0x186C JUMP JUMPDEST SWAP2 POP POP SWAP3 POP SWAP3 SWAP1 POP JUMP JUMPDEST PUSH1 0x0 PUSH1 0x20 DUP3 DUP5 SUB SLT ISZERO PUSH2 0x1A5A JUMPI PUSH2 0x1A59 PUSH2 0x2409 JUMP JUMPDEST JUMPDEST PUSH1 0x0 PUSH2 0x1A68 DUP5 DUP3 DUP6 ADD PUSH2 0x1814 JUMP JUMPDEST SWAP2 POP POP SWAP3 SWAP2 POP POP JUMP JUMPDEST PUSH1 0x0 PUSH1 0x20 DUP3 DUP5 SUB SLT ISZERO PUSH2 0x1A87 JUMPI PUSH2 0x1A86 PUSH2 0x2409 JUMP JUMPDEST JUMPDEST PUSH1 0x0 PUSH2 0x1A95 DUP5 DUP3 DUP6 ADD PUSH2 0x1829 JUMP JUMPDEST SWAP2 POP POP SWAP3 SWAP2 POP POP JUMP JUMPDEST PUSH1 0x0 PUSH1 0x20 DUP3 DUP5 SUB SLT ISZERO PUSH2 0x1AB4 JUMPI PUSH2 0x1AB3 PUSH2 0x2409 JUMP JUMPDEST JUMPDEST PUSH1 0x0 PUSH2 0x1AC2 DUP5 DUP3 DUP6 ADD PUSH2 0x186C JUMP JUMPDEST SWAP2 POP POP SWAP3 SWAP2 POP POP JUMP JUMPDEST PUSH2 0x1AD4 DUP2 PUSH2 0x217C JUMP JUMPDEST DUP3 MSTORE POP POP JUMP JUMPDEST PUSH2 0x1AE3 DUP2 PUSH2 0x218E JUMP JUMPDEST DUP3 MSTORE POP POP JUMP JUMPDEST PUSH1 0x0 PUSH2 0x1AF4 DUP3 PUSH2 0x207E JUMP JUMPDEST PUSH2 0x1AFE DUP2 DUP6 PUSH2 0x2094 JUMP JUMPDEST SWAP4 POP PUSH2 0x1B0E DUP2 DUP6 PUSH1 0x20 DUP7 ADD PUSH2 0x21FF JUMP JUMPDEST PUSH2 0x1B17 DUP2 PUSH2 0x240E JUMP JUMPDEST DUP5 ADD SWAP2 POP POP SWAP3 SWAP2 POP POP JUMP JUMPDEST PUSH1 0x0 PUSH2 0x1B2D DUP3 PUSH2 0x2089 JUMP JUMPDEST PUSH2 0x1B37 DUP2 DUP6 PUSH2 0x20A5 JUMP JUMPDEST SWAP4 POP PUSH2 0x1B47 DUP2 DUP6 PUSH1 0x20 DUP7 ADD PUSH2 0x21FF JUMP JUMPDEST PUSH2 0x1B50 DUP2 PUSH2 0x240E JUMP JUMPDEST DUP5 ADD SWAP2 POP POP SWAP3 SWAP2 POP POP JUMP JUMPDEST PUSH1 0x0 PUSH2 0x1B66 DUP3 PUSH2 0x2089 JUMP JUMPDEST PUSH2 0x1B70 DUP2 DUP6 PUSH2 0x20B6 JUMP JUMPDEST SWAP4 POP PUSH2 0x1B80 DUP2 DUP6 PUSH1 0x20 DUP7 ADD PUSH2 0x21FF JUMP JUMPDEST DUP1 DUP5 ADD SWAP2 POP POP SWAP3 SWAP2 POP POP JUMP JUMPDEST PUSH1 0x0 PUSH2 0x1B99 PUSH1 0x32 DUP4 PUSH2 0x20A5 JUMP JUMPDEST SWAP2 POP PUSH2 0x1BA4 DUP3 PUSH2 0x241F JUMP JUMPDEST PUSH1 0x40 DUP3 ADD SWAP1 POP SWAP2 SWAP1 POP JUMP JUMPDEST PUSH1 0x0 PUSH2 0x1BBC PUSH1 0x25 DUP4 PUSH2 0x20A5 JUMP JUMPDEST SWAP2 POP PUSH2 0x1BC7 DUP3 PUSH2 0x246E JUMP JUMPDEST PUSH1 0x40 DUP3 ADD SWAP1 POP SWAP2 SWAP1 POP JUMP JUMPDEST PUSH1 0x0 PUSH2 0x1BDF PUSH1 0x1C DUP4 PUSH2 0x20A5 JUMP JUMPDEST SWAP2 POP PUSH2 0x1BEA DUP3 PUSH2 0x24BD JUMP JUMPDEST PUSH1 0x20 DUP3 ADD SWAP1 POP SWAP2 SWAP1 POP JUMP JUMPDEST PUSH1 0x0 PUSH2 0x1C02 PUSH1 0x24 DUP4 PUSH2 0x20A5 JUMP JUMPDEST SWAP2 POP PUSH2 0x1C0D DUP3 PUSH2 0x24E6 JUMP JUMPDEST PUSH1 0x40 DUP3 ADD SWAP1 POP SWAP2 SWAP1 POP JUMP JUMPDEST PUSH1 0x0 PUSH2 0x1C25 PUSH1 0x19 DUP4 PUSH2 0x20A5 JUMP JUMPDEST SWAP2 POP PUSH2 0x1C30 DUP3 PUSH2 0x2535 JUMP JUMPDEST PUSH1 0x20 DUP3 ADD SWAP1 POP SWAP2 SWAP1 POP JUMP JUMPDEST PUSH1 0x0 PUSH2 0x1C48 PUSH1 0x2C DUP4 PUSH2 0x20A5 JUMP JUMPDEST SWAP2 POP PUSH2 0x1C53 DUP3 PUSH2 0x255E JUMP JUMPDEST PUSH1 0x40 DUP3 ADD SWAP1 POP SWAP2 SWAP1 POP JUMP JUMPDEST PUSH1 0x0 PUSH2 0x1C6B PUSH1 0x38 DUP4 PUSH2 0x20A5 JUMP JUMPDEST SWAP2 POP PUSH2 0x1C76 DUP3 PUSH2 0x25AD JUMP JUMPDEST PUSH1 0x40 DUP3 ADD SWAP1 POP SWAP2 SWAP1 POP JUMP JUMPDEST PUSH1 0x0 PUSH2 0x1C8E PUSH1 0x2A DUP4 PUSH2 0x20A5 JUMP JUMPDEST SWAP2 POP PUSH2 0x1C99 DUP3 PUSH2 0x25FC JUMP JUMPDEST PUSH1 0x40 DUP3 ADD SWAP1 POP SWAP2 SWAP1 POP JUMP JUMPDEST PUSH1 0x0 PUSH2 0x1CB1 PUSH1 0x29 DUP4 PUSH2 0x20A5 JUMP JUMPDEST SWAP2 POP PUSH2 0x1CBC DUP3 PUSH2 0x264B JUMP JUMPDEST PUSH1 0x40 DUP3 ADD SWAP1 POP SWAP2 SWAP1 POP JUMP JUMPDEST PUSH1 0x0 PUSH2 0x1CD4 PUSH1 0x20 DUP4 PUSH2 0x20A5 JUMP JUMPDEST SWAP2 POP PUSH2 0x1CDF DUP3 PUSH2 0x269A JUMP JUMPDEST PUSH1 0x20 DUP3 ADD SWAP1 POP SWAP2 SWAP1 POP JUMP JUMPDEST PUSH1 0x0 PUSH2 0x1CF7 PUSH1 0x2C DUP4 PUSH2 0x20A5 JUMP JUMPDEST SWAP2 POP PUSH2 0x1D02 DUP3 PUSH2 0x26C3 JUMP JUMPDEST PUSH1 0x40 DUP3 ADD SWAP1 POP SWAP2 SWAP1 POP JUMP JUMPDEST PUSH1 0x0 PUSH2 0x1D1A PUSH1 0x2F DUP4 PUSH2 0x20A5 JUMP JUMPDEST SWAP2 POP PUSH2 0x1D25 DUP3 PUSH2 0x2712 JUMP JUMPDEST PUSH1 0x40 DUP3 ADD SWAP1 POP SWAP2 SWAP1 POP JUMP JUMPDEST PUSH1 0x0 PUSH2 0x1D3D PUSH1 0x21 DUP4 PUSH2 0x20A5 JUMP JUMPDEST SWAP2 POP PUSH2 0x1D48 DUP3 PUSH2 0x2761 JUMP JUMPDEST PUSH1 0x40 DUP3 ADD SWAP1 POP SWAP2 SWAP1 POP JUMP JUMPDEST PUSH1 0x0 PUSH2 0x1D60 PUSH1 0x31 DUP4 PUSH2 0x20A5 JUMP JUMPDEST SWAP2 POP PUSH2 0x1D6B DUP3 PUSH2 0x27B0 JUMP JUMPDEST PUSH1 0x40 DUP3 ADD SWAP1 POP SWAP2 SWAP1 POP JUMP JUMPDEST PUSH2 0x1D7F DUP2 PUSH2 0x21E6 JUMP JUMPDEST DUP3 MSTORE POP POP JUMP JUMPDEST PUSH1 0x0 PUSH2 0x1D91 DUP3 DUP6 PUSH2 0x1B5B JUMP JUMPDEST SWAP2 POP PUSH2 0x1D9D DUP3 DUP5 PUSH2 0x1B5B JUMP JUMPDEST SWAP2 POP DUP2 SWAP1 POP SWAP4 SWAP3 POP POP POP JUMP JUMPDEST PUSH1 0x0 PUSH1 0x20 DUP3 ADD SWAP1 POP PUSH2 0x1DBE PUSH1 0x0 DUP4 ADD DUP5 PUSH2 0x1ACB JUMP JUMPDEST SWAP3 SWAP2 POP POP JUMP JUMPDEST PUSH1 0x0 PUSH1 0x80 DUP3 ADD SWAP1 POP PUSH2 0x1DD9 PUSH1 0x0 DUP4 ADD DUP8 PUSH2 0x1ACB JUMP JUMPDEST PUSH2 0x1DE6 PUSH1 0x20 DUP4 ADD DUP7 PUSH2 0x1ACB JUMP JUMPDEST PUSH2 0x1DF3 PUSH1 0x40 DUP4 ADD DUP6 PUSH2 0x1D76 JUMP JUMPDEST DUP2 DUP2 SUB PUSH1 0x60 DUP4 ADD MSTORE PUSH2 0x1E05 DUP2 DUP5 PUSH2 0x1AE9 JUMP JUMPDEST SWAP1 POP SWAP6 SWAP5 POP POP POP POP POP JUMP JUMPDEST PUSH1 0x0 PUSH1 0x20 DUP3 ADD SWAP1 POP PUSH2 0x1E25 PUSH1 0x0 DUP4 ADD DUP5 PUSH2 0x1ADA JUMP JUMPDEST SWAP3 SWAP2 POP POP JUMP JUMPDEST PUSH1 0x0 PUSH1 0x20 DUP3 ADD SWAP1 POP DUP2 DUP2 SUB PUSH1 0x0 DUP4 ADD MSTORE PUSH2 0x1E45 DUP2 DUP5 PUSH2 0x1B22 JUMP JUMPDEST SWAP1 POP SWAP3 SWAP2 POP POP JUMP JUMPDEST PUSH1 0x0 PUSH1 0x20 DUP3 ADD SWAP1 POP DUP2 DUP2 SUB PUSH1 0x0 DUP4 ADD MSTORE PUSH2 0x1E66 DUP2 PUSH2 0x1B8C JUMP JUMPDEST SWAP1 POP SWAP2 SWAP1 POP JUMP JUMPDEST PUSH1 0x0 PUSH1 0x20 DUP3 ADD SWAP1 POP DUP2 DUP2 SUB PUSH1 0x0 DUP4 ADD MSTORE PUSH2 0x1E86 DUP2 PUSH2 0x1BAF JUMP JUMPDEST SWAP1 POP SWAP2 SWAP1 POP JUMP JUMPDEST PUSH1 0x0 PUSH1 0x20 DUP3 ADD SWAP1 POP DUP2 DUP2 SUB PUSH1 0x0 DUP4 ADD MSTORE PUSH2 0x1EA6 DUP2 PUSH2 0x1BD2 JUMP JUMPDEST SWAP1 POP SWAP2 SWAP1 POP JUMP JUMPDEST PUSH1 0x0 PUSH1 0x20 DUP3 ADD SWAP1 POP DUP2 DUP2 SUB PUSH1 0x0 DUP4 ADD MSTORE PUSH2 0x1EC6 DUP2 PUSH2 0x1BF5 JUMP JUMPDEST SWAP1 POP SWAP2 SWAP1 POP JUMP JUMPDEST PUSH1 0x0 PUSH1 0x20 DUP3 ADD SWAP1 POP DUP2 DUP2 SUB PUSH1 0x0 DUP4 ADD MSTORE PUSH2 0x1EE6 DUP2 PUSH2 0x1C18 JUMP JUMPDEST SWAP1 POP SWAP2 SWAP1 POP JUMP JUMPDEST PUSH1 0x0 PUSH1 0x20 DUP3 ADD SWAP1 POP DUP2 DUP2 SUB PUSH1 0x0 DUP4 ADD MSTORE PUSH2 0x1F06 DUP2 PUSH2 0x1C3B JUMP JUMPDEST SWAP1 POP SWAP2 SWAP1 POP JUMP JUMPDEST PUSH1 0x0 PUSH1 0x20 DUP3 ADD SWAP1 POP DUP2 DUP2 SUB PUSH1 0x0 DUP4 ADD MSTORE PUSH2 0x1F26 DUP2 PUSH2 0x1C5E JUMP JUMPDEST SWAP1 POP SWAP2 SWAP1 POP JUMP JUMPDEST PUSH1 0x0 PUSH1 0x20 DUP3 ADD SWAP1 POP DUP2 DUP2 SUB PUSH1 0x0 DUP4 ADD MSTORE PUSH2 0x1F46 DUP2 PUSH2 0x1C81 JUMP JUMPDEST SWAP1 POP SWAP2 SWAP1 POP JUMP JUMPDEST PUSH1 0x0 PUSH1 0x20 DUP3 ADD SWAP1 POP DUP2 DUP2 SUB PUSH1 0x0 DUP4 ADD MSTORE PUSH2 0x1F66 DUP2 PUSH2 0x1CA4 JUMP JUMPDEST SWAP1 POP SWAP2 SWAP1 POP JUMP JUMPDEST PUSH1 0x0 PUSH1 0x20 DUP3 ADD SWAP1 POP DUP2 DUP2 SUB PUSH1 0x0 DUP4 ADD MSTORE PUSH2 0x1F86 DUP2 PUSH2 0x1CC7 JUMP JUMPDEST SWAP1 POP SWAP2 SWAP1 POP JUMP JUMPDEST PUSH1 0x0 PUSH1 0x20 DUP3 ADD SWAP1 POP DUP2 DUP2 SUB PUSH1 0x0 DUP4 ADD MSTORE PUSH2 0x1FA6 DUP2 PUSH2 0x1CEA JUMP JUMPDEST SWAP1 POP SWAP2 SWAP1 POP JUMP JUMPDEST PUSH1 0x0 PUSH1 0x20 DUP3 ADD SWAP1 POP DUP2 DUP2 SUB PUSH1 0x0 DUP4 ADD MSTORE PUSH2 0x1FC6 DUP2 PUSH2 0x1D0D JUMP JUMPDEST SWAP1 POP SWAP2 SWAP1 POP JUMP JUMPDEST PUSH1 0x0 PUSH1 0x20 DUP3 ADD SWAP1 POP DUP2 DUP2 SUB PUSH1 0x0 DUP4 ADD MSTORE PUSH2 0x1FE6 DUP2 PUSH2 0x1D30 JUMP JUMPDEST SWAP1 POP SWAP2 SWAP1 POP JUMP JUMPDEST PUSH1 0x0 PUSH1 0x20 DUP3 ADD SWAP1 POP DUP2 DUP2 SUB PUSH1 0x0 DUP4 ADD MSTORE PUSH2 0x2006 DUP2 PUSH2 0x1D53 JUMP JUMPDEST SWAP1 POP SWAP2 SWAP1 POP JUMP JUMPDEST PUSH1 0x0 PUSH1 0x20 DUP3 ADD SWAP1 POP PUSH2 0x2022 PUSH1 0x0 DUP4 ADD DUP5 PUSH2 0x1D76 JUMP JUMPDEST SWAP3 SWAP2 POP POP JUMP JUMPDEST PUSH1 0x0 PUSH2 0x2032 PUSH2 0x2043 JUMP JUMPDEST SWAP1 POP PUSH2 0x203E DUP3 DUP3 PUSH2 0x2264 JUMP JUMPDEST SWAP2 SWAP1 POP JUMP JUMPDEST PUSH1 0x0 PUSH1 0x40 MLOAD SWAP1 POP SWAP1 JUMP JUMPDEST PUSH1 0x0 PUSH8 0xFFFFFFFFFFFFFFFF DUP3 GT ISZERO PUSH2 0x2068 JUMPI PUSH2 0x2067 PUSH2 0x23CB JUMP JUMPDEST JUMPDEST PUSH2 0x2071 DUP3 PUSH2 0x240E JUMP JUMPDEST SWAP1 POP PUSH1 0x20 DUP2 ADD SWAP1 POP SWAP2 SWAP1 POP JUMP JUMPDEST PUSH1 0x0 DUP2 MLOAD SWAP1 POP SWAP2 SWAP1 POP JUMP JUMPDEST PUSH1 0x0 DUP2 MLOAD SWAP1 POP SWAP2 SWAP1 POP JUMP JUMPDEST PUSH1 0x0 DUP3 DUP3 MSTORE PUSH1 0x20 DUP3 ADD SWAP1 POP SWAP3 SWAP2 POP POP JUMP JUMPDEST PUSH1 0x0 DUP3 DUP3 MSTORE PUSH1 0x20 DUP3 ADD SWAP1 POP SWAP3 SWAP2 POP POP JUMP JUMPDEST PUSH1 0x0 DUP2 SWAP1 POP SWAP3 SWAP2 POP POP JUMP JUMPDEST PUSH1 0x0 PUSH2 0x20CC DUP3 PUSH2 0x21E6 JUMP JUMPDEST SWAP2 POP PUSH2 0x20D7 DUP4 PUSH2 0x21E6 JUMP JUMPDEST SWAP3 POP DUP3 PUSH32 0xFFFFFFFFFFFFFFFFFFFFFFFFFFFFFFFFFFFFFFFFFFFFFFFFFFFFFFFFFFFFFFFF SUB DUP3 GT ISZERO PUSH2 0x210C JUMPI PUSH2 0x210B PUSH2 0x230F JUMP JUMPDEST JUMPDEST DUP3 DUP3 ADD SWAP1 POP SWAP3 SWAP2 POP POP JUMP JUMPDEST PUSH1 0x0 PUSH2 0x2122 DUP3 PUSH2 0x21E6 JUMP JUMPDEST SWAP2 POP PUSH2 0x212D DUP4 PUSH2 0x21E6 JUMP JUMPDEST SWAP3 POP DUP3 PUSH2 0x213D JUMPI PUSH2 0x213C PUSH2 0x233E JUMP JUMPDEST JUMPDEST DUP3 DUP3 DIV SWAP1 POP SWAP3 SWAP2 POP POP JUMP JUMPDEST PUSH1 0x0 PUSH2 0x2153 DUP3 PUSH2 0x21E6 JUMP JUMPDEST SWAP2 POP PUSH2 0x215E DUP4 PUSH2 0x21E6 JUMP JUMPDEST SWAP3 POP DUP3 DUP3 LT ISZERO PUSH2 0x2171 JUMPI PUSH2 0x2170 PUSH2 0x230F JUMP JUMPDEST JUMPDEST DUP3 DUP3 SUB SWAP1 POP SWAP3 SWAP2 POP POP JUMP JUMPDEST PUSH1 0x0 PUSH2 0x2187 DUP3 PUSH2 0x21C6 JUMP JUMPDEST SWAP1 POP SWAP2 SWAP1 POP JUMP JUMPDEST PUSH1 0x0 DUP2 ISZERO ISZERO SWAP1 POP SWAP2 SWAP1 POP JUMP JUMPDEST PUSH1 0x0 PUSH32 0xFFFFFFFF00000000000000000000000000000000000000000000000000000000 DUP3 AND SWAP1 POP SWAP2 SWAP1 POP JUMP JUMPDEST PUSH1 0x0 PUSH20 0xFFFFFFFFFFFFFFFFFFFFFFFFFFFFFFFFFFFFFFFF DUP3 AND SWAP1 POP SWAP2 SWAP1 POP JUMP JUMPDEST PUSH1 0x0 DUP2 SWAP1 POP SWAP2 SWAP1 POP JUMP JUMPDEST DUP3 DUP2 DUP4 CALLDATACOPY PUSH1 0x0 DUP4 DUP4 ADD MSTORE POP POP POP JUMP JUMPDEST PUSH1 0x0 JUMPDEST DUP4 DUP2 LT ISZERO PUSH2 0x221D JUMPI DUP1 DUP3 ADD MLOAD DUP2 DUP5 ADD MSTORE PUSH1 0x20 DUP2 ADD SWAP1 POP PUSH2 0x2202 JUMP JUMPDEST DUP4 DUP2 GT ISZERO PUSH2 0x222C JUMPI PUSH1 0x0 DUP5 DUP5 ADD MSTORE JUMPDEST POP POP POP POP JUMP JUMPDEST PUSH1 0x0 PUSH1 0x2 DUP3 DIV SWAP1 POP PUSH1 0x1 DUP3 AND DUP1 PUSH2 0x224A JUMPI PUSH1 0x7F DUP3 AND SWAP2 POP JUMPDEST PUSH1 0x20 DUP3 LT DUP2 EQ ISZERO PUSH2 0x225E JUMPI PUSH2 0x225D PUSH2 0x236D JUMP JUMPDEST JUMPDEST POP SWAP2 SWAP1 POP JUMP JUMPDEST PUSH2 0x226D DUP3 PUSH2 0x240E JUMP JUMPDEST DUP2 ADD DUP2 DUP2 LT PUSH8 0xFFFFFFFFFFFFFFFF DUP3 GT OR ISZERO PUSH2 0x228C JUMPI PUSH2 0x228B PUSH2 0x23CB JUMP JUMPDEST JUMPDEST DUP1 PUSH1 0x40 MSTORE POP POP POP JUMP JUMPDEST PUSH1 0x0 PUSH2 0x22A0 DUP3 PUSH2 0x21E6 JUMP JUMPDEST SWAP2 POP PUSH32 0xFFFFFFFFFFFFFFFFFFFFFFFFFFFFFFFFFFFFFFFFFFFFFFFFFFFFFFFFFFFFFFFF DUP3 EQ ISZERO PUSH2 0x22D3 JUMPI PUSH2 0x22D2 PUSH2 0x230F JUMP JUMPDEST JUMPDEST PUSH1 0x1 DUP3 ADD SWAP1 POP SWAP2 SWAP1 POP JUMP JUMPDEST PUSH1 0x0 PUSH2 0x22E9 DUP3 PUSH2 0x21E6 JUMP JUMPDEST SWAP2 POP PUSH2 0x22F4 DUP4 PUSH2 0x21E6 JUMP JUMPDEST SWAP3 POP DUP3 PUSH2 0x2304 JUMPI PUSH2 0x2303 PUSH2 0x233E JUMP JUMPDEST JUMPDEST DUP3 DUP3 MOD SWAP1 POP SWAP3 SWAP2 POP POP JUMP JUMPDEST PUSH32 0x4E487B7100000000000000000000000000000000000000000000000000000000 PUSH1 0x0 MSTORE PUSH1 0x11 PUSH1 0x4 MSTORE PUSH1 0x24 PUSH1 0x0 REVERT JUMPDEST PUSH32 0x4E487B7100000000000000000000000000000000000000000000000000000000 PUSH1 0x0 MSTORE PUSH1 0x12 PUSH1 0x4 MSTORE PUSH1 0x24 PUSH1 0x0 REVERT JUMPDEST PUSH32 0x4E487B7100000000000000000000000000000000000000000000000000000000 PUSH1 0x0 MSTORE PUSH1 0x22 PUSH1 0x4 MSTORE PUSH1 0x24 PUSH1 0x0 REVERT JUMPDEST PUSH32 0x4E487B7100000000000000000000000000000000000000000000000000000000 PUSH1 0x0 MSTORE PUSH1 0x32 PUSH1 0x4 MSTORE PUSH1 0x24 PUSH1 0x0 REVERT JUMPDEST PUSH32 0x4E487B7100000000000000000000000000000000000000000000000000000000 PUSH1 0x0 MSTORE PUSH1 0x41 PUSH1 0x4 MSTORE PUSH1 0x24 PUSH1 0x0 REVERT JUMPDEST PUSH1 0x0 DUP1 REVERT JUMPDEST PUSH1 0x0 DUP1 REVERT JUMPDEST PUSH1 0x0 DUP1 REVERT JUMPDEST PUSH1 0x0 DUP1 REVERT JUMPDEST PUSH1 0x0 PUSH1 0x1F NOT PUSH1 0x1F DUP4 ADD AND SWAP1 POP SWAP2 SWAP1 POP JUMP JUMPDEST PUSH32 0x4552433732313A207472616E7366657220746F206E6F6E204552433732315265 PUSH1 0x0 DUP3 ADD MSTORE PUSH32 0x63656976657220696D706C656D656E7465720000000000000000000000000000 PUSH1 0x20 DUP3 ADD MSTORE POP JUMP JUMPDEST PUSH32 0x4552433732313A207472616E736665722066726F6D20696E636F727265637420 PUSH1 0x0 DUP3 ADD MSTORE PUSH32 0x6F776E6572000000000000000000000000000000000000000000000000000000 PUSH1 0x20 DUP3 ADD MSTORE POP JUMP JUMPDEST PUSH32 0x4552433732313A20746F6B656E20616C7265616479206D696E74656400000000 PUSH1 0x0 DUP3 ADD MSTORE POP JUMP JUMPDEST PUSH32 0x4552433732313A207472616E7366657220746F20746865207A65726F20616464 PUSH1 0x0 DUP3 ADD MSTORE PUSH32 0x7265737300000000000000000000000000000000000000000000000000000000 PUSH1 0x20 DUP3 ADD MSTORE POP JUMP JUMPDEST PUSH32 0x4552433732313A20617070726F766520746F2063616C6C657200000000000000 PUSH1 0x0 DUP3 ADD MSTORE POP JUMP JUMPDEST PUSH32 0x4552433732313A206F70657261746F7220717565727920666F72206E6F6E6578 PUSH1 0x0 DUP3 ADD MSTORE PUSH32 0x697374656E7420746F6B656E0000000000000000000000000000000000000000 PUSH1 0x20 DUP3 ADD MSTORE POP JUMP JUMPDEST PUSH32 0x4552433732313A20617070726F76652063616C6C6572206973206E6F74206F77 PUSH1 0x0 DUP3 ADD MSTORE PUSH32 0x6E6572206E6F7220617070726F76656420666F7220616C6C0000000000000000 PUSH1 0x20 DUP3 ADD MSTORE POP JUMP JUMPDEST PUSH32 0x4552433732313A2062616C616E636520717565727920666F7220746865207A65 PUSH1 0x0 DUP3 ADD MSTORE PUSH32 0x726F206164647265737300000000000000000000000000000000000000000000 PUSH1 0x20 DUP3 ADD MSTORE POP JUMP JUMPDEST PUSH32 0x4552433732313A206F776E657220717565727920666F72206E6F6E6578697374 PUSH1 0x0 DUP3 ADD MSTORE PUSH32 0x656E7420746F6B656E0000000000000000000000000000000000000000000000 PUSH1 0x20 DUP3 ADD MSTORE POP JUMP JUMPDEST PUSH32 0x4552433732313A206D696E7420746F20746865207A65726F2061646472657373 PUSH1 0x0 DUP3 ADD MSTORE POP JUMP JUMPDEST PUSH32 0x4552433732313A20617070726F76656420717565727920666F72206E6F6E6578 PUSH1 0x0 DUP3 ADD MSTORE PUSH32 0x697374656E7420746F6B656E0000000000000000000000000000000000000000 PUSH1 0x20 DUP3 ADD MSTORE POP JUMP JUMPDEST PUSH32 0x4552433732314D657461646174613A2055524920717565727920666F72206E6F PUSH1 0x0 DUP3 ADD MSTORE PUSH32 0x6E6578697374656E7420746F6B656E0000000000000000000000000000000000 PUSH1 0x20 DUP3 ADD MSTORE POP JUMP JUMPDEST PUSH32 0x4552433732313A20617070726F76616C20746F2063757272656E74206F776E65 PUSH1 0x0 DUP3 ADD MSTORE PUSH32 0x7200000000000000000000000000000000000000000000000000000000000000 PUSH1 0x20 DUP3 ADD MSTORE POP JUMP JUMPDEST PUSH32 0x4552433732313A207472616E736665722063616C6C6572206973206E6F74206F PUSH1 0x0 DUP3 ADD MSTORE PUSH32 0x776E6572206E6F7220617070726F766564000000000000000000000000000000 PUSH1 0x20 DUP3 ADD MSTORE POP JUMP JUMPDEST PUSH2 0x2808 DUP2 PUSH2 0x217C JUMP JUMPDEST DUP2 EQ PUSH2 0x2813 JUMPI PUSH1 0x0 DUP1 REVERT JUMPDEST POP JUMP JUMPDEST PUSH2 0x281F DUP2 PUSH2 0x218E JUMP JUMPDEST DUP2 EQ PUSH2 0x282A JUMPI PUSH1 0x0 DUP1 REVERT JUMPDEST POP JUMP JUMPDEST PUSH2 0x2836 DUP2 PUSH2 0x219A JUMP JUMPDEST DUP2 EQ PUSH2 0x2841 JUMPI PUSH1 0x0 DUP1 REVERT JUMPDEST POP JUMP JUMPDEST PUSH2 0x284D DUP2 PUSH2 0x21E6 JUMP JUMPDEST DUP2 EQ PUSH2 0x2858 JUMPI PUSH1 0x0 DUP1 REVERT JUMPDEST POP JUMP INVALID LOG2 PUSH5 0x6970667358 0x22 SLT KECCAK256 0x5D EXTCODECOPY SAR 0xB9 0xD7 CREATE2 0xAB SWAP10 OR CALLCODE 0xE4 SWAP9 CREATE CALLDATACOPY LOG2 GT DUP7 0xE1 LT SWAP13 PUSH7 0x31B78F22154C4B 0xAC SMOD DUP16 0xE7 PUSH5 0x736F6C6343 STOP ADDMOD SMOD STOP CALLER "
				},
				"gasEstimates": {
					"creation": {
						"codeDepositCost": "2077000",
						"executionCost": "infinite",
						"totalCost": "infinite"
					},
					"external": {
						"_burn(uint256)": "infinite",
						"_safeMint(address,uint256)": "infinite",
						"approve(address,uint256)": "infinite",
						"balanceOf(address)": "2902",
						"getApproved(uint256)": "5228",
						"isApprovedForAll(address,address)": "infinite",
						"name()": "infinite",
						"ownerOf(uint256)": "3066",
						"safeTransferFrom(address,address,uint256)": "infinite",
						"safeTransferFrom(address,address,uint256,bytes)": "infinite",
						"setApprovalForAll(address,bool)": "infinite",
						"supportsInterface(bytes4)": "3005",
						"symbol()": "infinite",
						"tokenURI(uint256)": "3395",
						"transferFrom(address,address,uint256)": "infinite"
					},
					"internal": {
						"_afterTokenTransfer(address,address,uint256)": "15",
						"_approve(address,uint256)": "infinite",
						"_baseURI()": "infinite",
						"_beforeTokenTransfer(address,address,uint256)": "15",
						"_checkOnERC721Received(address,address,uint256,bytes memory)": "infinite",
						"_exists(uint256)": "2269",
						"_isApprovedOrOwner(address,uint256)": "infinite",
						"_mint(address,uint256)": "infinite",
						"_safeMint(address,uint256,bytes memory)": "infinite",
						"_safeTransfer(address,address,uint256,bytes memory)": "infinite",
						"_setApprovalForAll(address,address,bool)": "infinite",
						"_transfer(address,address,uint256)": "infinite"
					}
				},
				"methodIdentifiers": {
					"_burn(uint256)": "9b1f9e74",
					"_safeMint(address,uint256)": "b3e1c718",
					"approve(address,uint256)": "095ea7b3",
					"balanceOf(address)": "70a08231",
					"getApproved(uint256)": "081812fc",
					"isApprovedForAll(address,address)": "e985e9c5",
					"name()": "06fdde03",
					"ownerOf(uint256)": "6352211e",
					"safeTransferFrom(address,address,uint256)": "42842e0e",
					"safeTransferFrom(address,address,uint256,bytes)": "b88d4fde",
					"setApprovalForAll(address,bool)": "a22cb465",
					"supportsInterface(bytes4)": "01ffc9a7",
					"symbol()": "95d89b41",
					"tokenURI(uint256)": "c87b56dd",
					"transferFrom(address,address,uint256)": "23b872dd"
				}
			},
			"userdoc": {
				"kind": "user",
				"methods": {},
				"version": 1
			}
		}
	}
}