{
	"contracts/ERC721.sol": {
		"ERC721": {
			"abi": [
				{
					"inputs": [
						{
							"internalType": "string",
							"name": "name_",
							"type": "string"
						},
						{
							"internalType": "string",
							"name": "symbol_",
							"type": "string"
						}
					],
					"stateMutability": "nonpayable",
					"type": "constructor"
				},
				{
					"anonymous": false,
					"inputs": [
						{
							"indexed": true,
							"internalType": "address",
							"name": "owner",
							"type": "address"
						},
						{
							"indexed": true,
							"internalType": "address",
							"name": "approved",
							"type": "address"
						},
						{
							"indexed": true,
							"internalType": "uint256",
							"name": "tokenId",
							"type": "uint256"
						}
					],
					"name": "Approval",
					"type": "event"
				},
				{
					"anonymous": false,
					"inputs": [
						{
							"indexed": true,
							"internalType": "address",
							"name": "owner",
							"type": "address"
						},
						{
							"indexed": true,
							"internalType": "address",
							"name": "operator",
							"type": "address"
						},
						{
							"indexed": false,
							"internalType": "bool",
							"name": "approved",
							"type": "bool"
						}
					],
					"name": "ApprovalForAll",
					"type": "event"
				},
				{
					"anonymous": false,
					"inputs": [
						{
							"indexed": true,
							"internalType": "address",
							"name": "from",
							"type": "address"
						},
						{
							"indexed": true,
							"internalType": "address",
							"name": "to",
							"type": "address"
						},
						{
							"indexed": true,
							"internalType": "uint256",
							"name": "tokenId",
							"type": "uint256"
						}
					],
					"name": "Transfer",
					"type": "event"
				},
				{
					"inputs": [
						{
							"internalType": "address",
							"name": "to",
							"type": "address"
						},
						{
							"internalType": "uint256",
							"name": "tokenId",
							"type": "uint256"
						}
					],
					"name": "_safeMint",
					"outputs": [],
					"stateMutability": "nonpayable",
					"type": "function"
				},
				{
					"inputs": [
						{
							"internalType": "address",
							"name": "to",
							"type": "address"
						},
						{
							"internalType": "uint256",
							"name": "tokenId",
							"type": "uint256"
						}
					],
					"name": "approve",
					"outputs": [],
					"stateMutability": "nonpayable",
					"type": "function"
				},
				{
					"inputs": [
						{
							"internalType": "address",
							"name": "owner",
							"type": "address"
						}
					],
					"name": "balanceOf",
					"outputs": [
						{
							"internalType": "uint256",
							"name": "",
							"type": "uint256"
						}
					],
					"stateMutability": "view",
					"type": "function"
				},
				{
					"inputs": [
						{
							"internalType": "uint256",
							"name": "tokenId",
							"type": "uint256"
						}
					],
					"name": "getApproved",
					"outputs": [
						{
							"internalType": "address",
							"name": "",
							"type": "address"
						}
					],
					"stateMutability": "view",
					"type": "function"
				},
				{
					"inputs": [
						{
							"internalType": "address",
							"name": "owner",
							"type": "address"
						},
						{
							"internalType": "address",
							"name": "operator",
							"type": "address"
						}
					],
					"name": "isApprovedForAll",
					"outputs": [
						{
							"internalType": "bool",
							"name": "",
							"type": "bool"
						}
					],
					"stateMutability": "view",
					"type": "function"
				},
				{
					"inputs": [],
					"name": "name",
					"outputs": [
						{
							"internalType": "string",
							"name": "",
							"type": "string"
						}
					],
					"stateMutability": "view",
					"type": "function"
				},
				{
					"inputs": [
						{
							"internalType": "uint256",
							"name": "tokenId",
							"type": "uint256"
						}
					],
					"name": "ownerOf",
					"outputs": [
						{
							"internalType": "address",
							"name": "",
							"type": "address"
						}
					],
					"stateMutability": "view",
					"type": "function"
				},
				{
					"inputs": [
						{
							"internalType": "address",
							"name": "from",
							"type": "address"
						},
						{
							"internalType": "address",
							"name": "to",
							"type": "address"
						},
						{
							"internalType": "uint256",
							"name": "tokenId",
							"type": "uint256"
						}
					],
					"name": "safeTransferFrom",
					"outputs": [],
					"stateMutability": "nonpayable",
					"type": "function"
				},
				{
					"inputs": [
						{
							"internalType": "address",
							"name": "from",
							"type": "address"
						},
						{
							"internalType": "address",
							"name": "to",
							"type": "address"
						},
						{
							"internalType": "uint256",
							"name": "tokenId",
							"type": "uint256"
						},
						{
							"internalType": "bytes",
							"name": "_data",
							"type": "bytes"
						}
					],
					"name": "safeTransferFrom",
					"outputs": [],
					"stateMutability": "nonpayable",
					"type": "function"
				},
				{
					"inputs": [
						{
							"internalType": "address",
							"name": "operator",
							"type": "address"
						},
						{
							"internalType": "bool",
							"name": "approved",
							"type": "bool"
						}
					],
					"name": "setApprovalForAll",
					"outputs": [],
					"stateMutability": "nonpayable",
					"type": "function"
				},
				{
					"inputs": [
						{
							"internalType": "bytes4",
							"name": "interfaceId",
							"type": "bytes4"
						}
					],
					"name": "supportsInterface",
					"outputs": [
						{
							"internalType": "bool",
							"name": "",
							"type": "bool"
						}
					],
					"stateMutability": "view",
					"type": "function"
				},
				{
					"inputs": [],
					"name": "symbol",
					"outputs": [
						{
							"internalType": "string",
							"name": "",
							"type": "string"
						}
					],
					"stateMutability": "view",
					"type": "function"
				},
				{
					"inputs": [
						{
							"internalType": "uint256",
							"name": "tokenId",
							"type": "uint256"
						}
					],
					"name": "tokenURI",
					"outputs": [
						{
							"internalType": "string",
							"name": "",
							"type": "string"
						}
					],
					"stateMutability": "view",
					"type": "function"
				},
				{
					"inputs": [
						{
							"internalType": "address",
							"name": "from",
							"type": "address"
						},
						{
							"internalType": "address",
							"name": "to",
							"type": "address"
						},
						{
							"internalType": "uint256",
							"name": "tokenId",
							"type": "uint256"
						}
					],
					"name": "transferFrom",
					"outputs": [],
					"stateMutability": "nonpayable",
					"type": "function"
				}
			],
			"devdoc": {
				"details": "Implementation of https://eips.ethereum.org/EIPS/eip-721[ERC721] Non-Fungible Token Standard, including the Metadata extension, but not including the Enumerable extension, which is available separately as {ERC721Enumerable}.",
				"kind": "dev",
				"methods": {
					"_safeMint(address,uint256)": {
						"details": "Safely mints `tokenId` and transfers it to `to`. Requirements: - `tokenId` must not exist. - If `to` refers to a smart contract, it must implement {IERC721Receiver-onERC721Received}, which is called upon a safe transfer. Emits a {Transfer} event."
					},
					"approve(address,uint256)": {
						"details": "See {IERC721-approve}."
					},
					"balanceOf(address)": {
						"details": "See {IERC721-balanceOf}."
					},
					"constructor": {
						"details": "Initializes the contract by setting a `name` and a `symbol` to the token collection."
					},
					"getApproved(uint256)": {
						"details": "See {IERC721-getApproved}."
					},
					"isApprovedForAll(address,address)": {
						"details": "See {IERC721-isApprovedForAll}."
					},
					"name()": {
						"details": "See {IERC721Metadata-name}."
					},
					"ownerOf(uint256)": {
						"details": "See {IERC721-ownerOf}."
					},
					"safeTransferFrom(address,address,uint256)": {
						"details": "See {IERC721-safeTransferFrom}."
					},
					"safeTransferFrom(address,address,uint256,bytes)": {
						"details": "See {IERC721-safeTransferFrom}."
					},
					"setApprovalForAll(address,bool)": {
						"details": "See {IERC721-setApprovalForAll}."
					},
					"supportsInterface(bytes4)": {
						"details": "See {IERC165-supportsInterface}."
					},
					"symbol()": {
						"details": "See {IERC721Metadata-symbol}."
					},
					"tokenURI(uint256)": {
						"details": "See {IERC721Metadata-tokenURI}."
					},
					"transferFrom(address,address,uint256)": {
						"details": "See {IERC721-transferFrom}."
					}
				},
				"version": 1
			},
			"evm": {
				"assembly": "    /* \"contracts/ERC721.sol\":581:14683  contract ERC721 is Context, ERC165, IERC721, IERC721Metadata {\r... */\n  mstore(0x40, 0x80)\n    /* \"contracts/ERC721.sol\":1368:1484  constructor(string memory name_, string memory symbol_) {\r... */\n  callvalue\n  dup1\n  iszero\n  tag_1\n  jumpi\n  0x00\n  dup1\n  revert\ntag_1:\n  pop\n  mload(0x40)\n  sub(codesize, bytecodeSize)\n  dup1\n  bytecodeSize\n  dup4\n  codecopy\n  dup2\n  dup2\n  add\n  0x40\n  mstore\n  dup2\n  add\n  swap1\n  tag_2\n  swap2\n  swap1\n  tag_3\n  jump\t// in\ntag_2:\n    /* \"contracts/ERC165.sol\":625:670  _registerInterface(type(IERC165).interfaceId) */\n  tag_7\n    /* \"contracts/ERC165.sol\":644:669  type(IERC165).interfaceId */\n  0x01ffc9a700000000000000000000000000000000000000000000000000000000\n    /* \"contracts/ERC165.sol\":625:643  _registerInterface */\n  shl(0x20, tag_8)\n    /* \"contracts/ERC165.sol\":625:670  _registerInterface(type(IERC165).interfaceId) */\n  0x20\n  shr\n  jump\t// in\ntag_7:\n    /* \"contracts/ERC721.sol\":1443:1448  name_ */\n  dup2\n    /* \"contracts/ERC721.sol\":1435:1440  _name */\n  0x01\n    /* \"contracts/ERC721.sol\":1435:1448  _name = name_ */\n  swap1\n  dup1\n  mload\n  swap1\n  0x20\n  add\n  swap1\n  tag_10\n  swap3\n  swap2\n  swap1\n  tag_11\n  jump\t// in\ntag_10:\n  pop\n    /* \"contracts/ERC721.sol\":1469:1476  symbol_ */\n  dup1\n    /* \"contracts/ERC721.sol\":1459:1466  _symbol */\n  0x02\n    /* \"contracts/ERC721.sol\":1459:1476  _symbol = symbol_ */\n  swap1\n  dup1\n  mload\n  swap1\n  0x20\n  add\n  swap1\n  tag_12\n  swap3\n  swap2\n  swap1\n  tag_11\n  jump\t// in\ntag_12:\n  pop\n    /* \"contracts/ERC721.sol\":1368:1484  constructor(string memory name_, string memory symbol_) {\r... */\n  pop\n  pop\n    /* \"contracts/ERC721.sol\":581:14683  contract ERC721 is Context, ERC165, IERC721, IERC721Metadata {\r... */\n  jump(tag_13)\n    /* \"contracts/ERC165.sol\":1392:1593  function _registerInterface(bytes4 interfaceId) internal virtual {\r... */\ntag_8:\n    /* \"contracts/ERC165.sol\":1491:1501  0xffffffff */\n  0xffffffff\n    /* \"contracts/ERC165.sol\":1476:1501  interfaceId != 0xffffffff */\n  0xe0\n  shl\n    /* \"contracts/ERC165.sol\":1476:1487  interfaceId */\n  dup2\n    /* \"contracts/ERC165.sol\":1476:1501  interfaceId != 0xffffffff */\n  not(0xffffffffffffffffffffffffffffffffffffffffffffffffffffffff)\n  and\n  eq\n  iszero\n    /* \"contracts/ERC165.sol\":1468:1534  require(interfaceId != 0xffffffff, \"ERC165: invalid interface id\") */\n  tag_15\n  jumpi\n  mload(0x40)\n  0x08c379a000000000000000000000000000000000000000000000000000000000\n  dup2\n  mstore\n  0x04\n  add\n  tag_16\n  swap1\n  tag_17\n  jump\t// in\ntag_16:\n  mload(0x40)\n  dup1\n  swap2\n  sub\n  swap1\n  revert\ntag_15:\n    /* \"contracts/ERC165.sol\":1581:1585  true */\n  0x01\n    /* \"contracts/ERC165.sol\":1545:1565  _supportedInterfaces */\n  0x00\n    /* \"contracts/ERC165.sol\":1545:1578  _supportedInterfaces[interfaceId] */\n  dup1\n    /* \"contracts/ERC165.sol\":1566:1577  interfaceId */\n  dup4\n    /* \"contracts/ERC165.sol\":1545:1578  _supportedInterfaces[interfaceId] */\n  not(0xffffffffffffffffffffffffffffffffffffffffffffffffffffffff)\n  and\n  not(0xffffffffffffffffffffffffffffffffffffffffffffffffffffffff)\n  and\n  dup2\n  mstore\n  0x20\n  add\n  swap1\n  dup2\n  mstore\n  0x20\n  add\n  0x00\n  keccak256\n  0x00\n    /* \"contracts/ERC165.sol\":1545:1585  _supportedInterfaces[interfaceId] = true */\n  0x0100\n  exp\n  dup2\n  sload\n  dup2\n  0xff\n  mul\n  not\n  and\n  swap1\n  dup4\n  iszero\n  iszero\n  mul\n  or\n  swap1\n  sstore\n  pop\n    /* \"contracts/ERC165.sol\":1392:1593  function _registerInterface(bytes4 interfaceId) internal virtual {\r... */\n  pop\n  jump\t// out\n    /* \"contracts/ERC721.sol\":581:14683  contract ERC721 is Context, ERC165, IERC721, IERC721Metadata {\r... */\ntag_11:\n  dup3\n  dup1\n  sload\n  tag_18\n  swap1\n  tag_19\n  jump\t// in\ntag_18:\n  swap1\n  0x00\n  mstore\n  keccak256(0x00, 0x20)\n  swap1\n  0x1f\n  add\n  0x20\n  swap1\n  div\n  dup2\n  add\n  swap3\n  dup3\n  tag_21\n  jumpi\n  0x00\n  dup6\n  sstore\n  jump(tag_20)\ntag_21:\n  dup3\n  0x1f\n  lt\n  tag_22\n  jumpi\n  dup1\n  mload\n  not(0xff)\n  and\n  dup4\n  dup1\n  add\n  or\n  dup6\n  sstore\n  jump(tag_20)\ntag_22:\n  dup3\n  dup1\n  add\n  0x01\n  add\n  dup6\n  sstore\n  dup3\n  iszero\n  tag_20\n  jumpi\n  swap2\n  dup3\n  add\ntag_23:\n  dup3\n  dup2\n  gt\n  iszero\n  tag_24\n  jumpi\n  dup3\n  mload\n  dup3\n  sstore\n  swap2\n  0x20\n  add\n  swap2\n  swap1\n  0x01\n  add\n  swap1\n  jump(tag_23)\ntag_24:\ntag_20:\n  pop\n  swap1\n  pop\n  tag_25\n  swap2\n  swap1\n  tag_26\n  jump\t// in\ntag_25:\n  pop\n  swap1\n  jump\t// out\ntag_26:\ntag_27:\n  dup1\n  dup3\n  gt\n  iszero\n  tag_28\n  jumpi\n  0x00\n  dup2\n  0x00\n  swap1\n  sstore\n  pop\n  0x01\n  add\n  jump(tag_27)\ntag_28:\n  pop\n  swap1\n  jump\t// out\n    /* \"#utility.yul\":7:428   */\ntag_30:\n    /* \"#utility.yul\":96:101   */\n  0x00\n    /* \"#utility.yul\":121:187   */\n  tag_32\n    /* \"#utility.yul\":137:186   */\n  tag_33\n    /* \"#utility.yul\":179:185   */\n  dup5\n    /* \"#utility.yul\":137:186   */\n  tag_34\n  jump\t// in\ntag_33:\n    /* \"#utility.yul\":121:187   */\n  tag_35\n  jump\t// in\ntag_32:\n    /* \"#utility.yul\":112:187   */\n  swap1\n  pop\n    /* \"#utility.yul\":210:216   */\n  dup3\n    /* \"#utility.yul\":203:208   */\n  dup2\n    /* \"#utility.yul\":196:217   */\n  mstore\n    /* \"#utility.yul\":248:252   */\n  0x20\n    /* \"#utility.yul\":241:246   */\n  dup2\n    /* \"#utility.yul\":237:253   */\n  add\n    /* \"#utility.yul\":286:289   */\n  dup5\n    /* \"#utility.yul\":277:283   */\n  dup5\n    /* \"#utility.yul\":272:275   */\n  dup5\n    /* \"#utility.yul\":268:284   */\n  add\n    /* \"#utility.yul\":265:290   */\n  gt\n    /* \"#utility.yul\":262:374   */\n  iszero\n  tag_36\n  jumpi\n    /* \"#utility.yul\":293:372   */\n  tag_37\n  tag_38\n  jump\t// in\ntag_37:\n    /* \"#utility.yul\":262:374   */\ntag_36:\n    /* \"#utility.yul\":383:422   */\n  tag_39\n    /* \"#utility.yul\":415:421   */\n  dup5\n    /* \"#utility.yul\":410:413   */\n  dup3\n    /* \"#utility.yul\":405:408   */\n  dup6\n    /* \"#utility.yul\":383:422   */\n  tag_40\n  jump\t// in\ntag_39:\n    /* \"#utility.yul\":102:428   */\n  pop\n    /* \"#utility.yul\":7:428   */\n  swap4\n  swap3\n  pop\n  pop\n  pop\n  jump\t// out\n    /* \"#utility.yul\":448:803   */\ntag_41:\n    /* \"#utility.yul\":515:520   */\n  0x00\n    /* \"#utility.yul\":564:567   */\n  dup3\n    /* \"#utility.yul\":557:561   */\n  0x1f\n    /* \"#utility.yul\":549:555   */\n  dup4\n    /* \"#utility.yul\":545:562   */\n  add\n    /* \"#utility.yul\":541:568   */\n  slt\n    /* \"#utility.yul\":531:653   */\n  tag_43\n  jumpi\n    /* \"#utility.yul\":572:651   */\n  tag_44\n  tag_45\n  jump\t// in\ntag_44:\n    /* \"#utility.yul\":531:653   */\ntag_43:\n    /* \"#utility.yul\":682:688   */\n  dup2\n    /* \"#utility.yul\":676:689   */\n  mload\n    /* \"#utility.yul\":707:797   */\n  tag_46\n    /* \"#utility.yul\":793:796   */\n  dup5\n    /* \"#utility.yul\":785:791   */\n  dup3\n    /* \"#utility.yul\":778:782   */\n  0x20\n    /* \"#utility.yul\":770:776   */\n  dup7\n    /* \"#utility.yul\":766:783   */\n  add\n    /* \"#utility.yul\":707:797   */\n  tag_30\n  jump\t// in\ntag_46:\n    /* \"#utility.yul\":698:797   */\n  swap2\n  pop\n    /* \"#utility.yul\":521:803   */\n  pop\n    /* \"#utility.yul\":448:803   */\n  swap3\n  swap2\n  pop\n  pop\n  jump\t// out\n    /* \"#utility.yul\":809:1662   */\ntag_3:\n    /* \"#utility.yul\":908:914   */\n  0x00\n    /* \"#utility.yul\":916:922   */\n  dup1\n    /* \"#utility.yul\":965:967   */\n  0x40\n    /* \"#utility.yul\":953:962   */\n  dup4\n    /* \"#utility.yul\":944:951   */\n  dup6\n    /* \"#utility.yul\":940:963   */\n  sub\n    /* \"#utility.yul\":936:968   */\n  slt\n    /* \"#utility.yul\":933:1052   */\n  iszero\n  tag_48\n  jumpi\n    /* \"#utility.yul\":971:1050   */\n  tag_49\n  tag_50\n  jump\t// in\ntag_49:\n    /* \"#utility.yul\":933:1052   */\ntag_48:\n    /* \"#utility.yul\":1112:1113   */\n  0x00\n    /* \"#utility.yul\":1101:1110   */\n  dup4\n    /* \"#utility.yul\":1097:1114   */\n  add\n    /* \"#utility.yul\":1091:1115   */\n  mload\n    /* \"#utility.yul\":1142:1160   */\n  0xffffffffffffffff\n    /* \"#utility.yul\":1134:1140   */\n  dup2\n    /* \"#utility.yul\":1131:1161   */\n  gt\n    /* \"#utility.yul\":1128:1245   */\n  iszero\n  tag_51\n  jumpi\n    /* \"#utility.yul\":1164:1243   */\n  tag_52\n  tag_53\n  jump\t// in\ntag_52:\n    /* \"#utility.yul\":1128:1245   */\ntag_51:\n    /* \"#utility.yul\":1269:1343   */\n  tag_54\n    /* \"#utility.yul\":1335:1342   */\n  dup6\n    /* \"#utility.yul\":1326:1332   */\n  dup3\n    /* \"#utility.yul\":1315:1324   */\n  dup7\n    /* \"#utility.yul\":1311:1333   */\n  add\n    /* \"#utility.yul\":1269:1343   */\n  tag_41\n  jump\t// in\ntag_54:\n    /* \"#utility.yul\":1259:1343   */\n  swap3\n  pop\n    /* \"#utility.yul\":1062:1353   */\n  pop\n    /* \"#utility.yul\":1413:1415   */\n  0x20\n    /* \"#utility.yul\":1402:1411   */\n  dup4\n    /* \"#utility.yul\":1398:1416   */\n  add\n    /* \"#utility.yul\":1392:1417   */\n  mload\n    /* \"#utility.yul\":1444:1462   */\n  0xffffffffffffffff\n    /* \"#utility.yul\":1436:1442   */\n  dup2\n    /* \"#utility.yul\":1433:1463   */\n  gt\n    /* \"#utility.yul\":1430:1547   */\n  iszero\n  tag_55\n  jumpi\n    /* \"#utility.yul\":1466:1545   */\n  tag_56\n  tag_53\n  jump\t// in\ntag_56:\n    /* \"#utility.yul\":1430:1547   */\ntag_55:\n    /* \"#utility.yul\":1571:1645   */\n  tag_57\n    /* \"#utility.yul\":1637:1644   */\n  dup6\n    /* \"#utility.yul\":1628:1634   */\n  dup3\n    /* \"#utility.yul\":1617:1626   */\n  dup7\n    /* \"#utility.yul\":1613:1635   */\n  add\n    /* \"#utility.yul\":1571:1645   */\n  tag_41\n  jump\t// in\ntag_57:\n    /* \"#utility.yul\":1561:1645   */\n  swap2\n  pop\n    /* \"#utility.yul\":1363:1655   */\n  pop\n    /* \"#utility.yul\":809:1662   */\n  swap3\n  pop\n  swap3\n  swap1\n  pop\n  jump\t// out\n    /* \"#utility.yul\":1668:2034   */\ntag_58:\n    /* \"#utility.yul\":1810:1813   */\n  0x00\n    /* \"#utility.yul\":1831:1898   */\n  tag_60\n    /* \"#utility.yul\":1895:1897   */\n  0x1c\n    /* \"#utility.yul\":1890:1893   */\n  dup4\n    /* \"#utility.yul\":1831:1898   */\n  tag_61\n  jump\t// in\ntag_60:\n    /* \"#utility.yul\":1824:1898   */\n  swap2\n  pop\n    /* \"#utility.yul\":1907:2000   */\n  tag_62\n    /* \"#utility.yul\":1996:1999   */\n  dup3\n    /* \"#utility.yul\":1907:2000   */\n  tag_63\n  jump\t// in\ntag_62:\n    /* \"#utility.yul\":2025:2027   */\n  0x20\n    /* \"#utility.yul\":2020:2023   */\n  dup3\n    /* \"#utility.yul\":2016:2028   */\n  add\n    /* \"#utility.yul\":2009:2028   */\n  swap1\n  pop\n    /* \"#utility.yul\":1668:2034   */\n  swap2\n  swap1\n  pop\n  jump\t// out\n    /* \"#utility.yul\":2040:2459   */\ntag_17:\n    /* \"#utility.yul\":2206:2210   */\n  0x00\n    /* \"#utility.yul\":2244:2246   */\n  0x20\n    /* \"#utility.yul\":2233:2242   */\n  dup3\n    /* \"#utility.yul\":2229:2247   */\n  add\n    /* \"#utility.yul\":2221:2247   */\n  swap1\n  pop\n    /* \"#utility.yul\":2293:2302   */\n  dup2\n    /* \"#utility.yul\":2287:2291   */\n  dup2\n    /* \"#utility.yul\":2283:2303   */\n  sub\n    /* \"#utility.yul\":2279:2280   */\n  0x00\n    /* \"#utility.yul\":2268:2277   */\n  dup4\n    /* \"#utility.yul\":2264:2281   */\n  add\n    /* \"#utility.yul\":2257:2304   */\n  mstore\n    /* \"#utility.yul\":2321:2452   */\n  tag_65\n    /* \"#utility.yul\":2447:2451   */\n  dup2\n    /* \"#utility.yul\":2321:2452   */\n  tag_58\n  jump\t// in\ntag_65:\n    /* \"#utility.yul\":2313:2452   */\n  swap1\n  pop\n    /* \"#utility.yul\":2040:2459   */\n  swap2\n  swap1\n  pop\n  jump\t// out\n    /* \"#utility.yul\":2465:2594   */\ntag_35:\n    /* \"#utility.yul\":2499:2505   */\n  0x00\n    /* \"#utility.yul\":2526:2546   */\n  tag_67\n  tag_68\n  jump\t// in\ntag_67:\n    /* \"#utility.yul\":2516:2546   */\n  swap1\n  pop\n    /* \"#utility.yul\":2555:2588   */\n  tag_69\n    /* \"#utility.yul\":2583:2587   */\n  dup3\n    /* \"#utility.yul\":2575:2581   */\n  dup3\n    /* \"#utility.yul\":2555:2588   */\n  tag_70\n  jump\t// in\ntag_69:\n    /* \"#utility.yul\":2465:2594   */\n  swap2\n  swap1\n  pop\n  jump\t// out\n    /* \"#utility.yul\":2600:2675   */\ntag_68:\n    /* \"#utility.yul\":2633:2639   */\n  0x00\n    /* \"#utility.yul\":2666:2668   */\n  0x40\n    /* \"#utility.yul\":2660:2669   */\n  mload\n    /* \"#utility.yul\":2650:2669   */\n  swap1\n  pop\n    /* \"#utility.yul\":2600:2675   */\n  swap1\n  jump\t// out\n    /* \"#utility.yul\":2681:2989   */\ntag_34:\n    /* \"#utility.yul\":2743:2747   */\n  0x00\n    /* \"#utility.yul\":2833:2851   */\n  0xffffffffffffffff\n    /* \"#utility.yul\":2825:2831   */\n  dup3\n    /* \"#utility.yul\":2822:2852   */\n  gt\n    /* \"#utility.yul\":2819:2875   */\n  iszero\n  tag_73\n  jumpi\n    /* \"#utility.yul\":2855:2873   */\n  tag_74\n  tag_75\n  jump\t// in\ntag_74:\n    /* \"#utility.yul\":2819:2875   */\ntag_73:\n    /* \"#utility.yul\":2893:2922   */\n  tag_76\n    /* \"#utility.yul\":2915:2921   */\n  dup3\n    /* \"#utility.yul\":2893:2922   */\n  tag_77\n  jump\t// in\ntag_76:\n    /* \"#utility.yul\":2885:2922   */\n  swap1\n  pop\n    /* \"#utility.yul\":2977:2981   */\n  0x20\n    /* \"#utility.yul\":2971:2975   */\n  dup2\n    /* \"#utility.yul\":2967:2982   */\n  add\n    /* \"#utility.yul\":2959:2982   */\n  swap1\n  pop\n    /* \"#utility.yul\":2681:2989   */\n  swap2\n  swap1\n  pop\n  jump\t// out\n    /* \"#utility.yul\":2995:3164   */\ntag_61:\n    /* \"#utility.yul\":3079:3090   */\n  0x00\n    /* \"#utility.yul\":3113:3119   */\n  dup3\n    /* \"#utility.yul\":3108:3111   */\n  dup3\n    /* \"#utility.yul\":3101:3120   */\n  mstore\n    /* \"#utility.yul\":3153:3157   */\n  0x20\n    /* \"#utility.yul\":3148:3151   */\n  dup3\n    /* \"#utility.yul\":3144:3158   */\n  add\n    /* \"#utility.yul\":3129:3158   */\n  swap1\n  pop\n    /* \"#utility.yul\":2995:3164   */\n  swap3\n  swap2\n  pop\n  pop\n  jump\t// out\n    /* \"#utility.yul\":3170:3477   */\ntag_40:\n    /* \"#utility.yul\":3238:3239   */\n  0x00\n    /* \"#utility.yul\":3248:3361   */\ntag_80:\n    /* \"#utility.yul\":3262:3268   */\n  dup4\n    /* \"#utility.yul\":3259:3260   */\n  dup2\n    /* \"#utility.yul\":3256:3269   */\n  lt\n    /* \"#utility.yul\":3248:3361   */\n  iszero\n  tag_82\n  jumpi\n    /* \"#utility.yul\":3347:3348   */\n  dup1\n    /* \"#utility.yul\":3342:3345   */\n  dup3\n    /* \"#utility.yul\":3338:3349   */\n  add\n    /* \"#utility.yul\":3332:3350   */\n  mload\n    /* \"#utility.yul\":3328:3329   */\n  dup2\n    /* \"#utility.yul\":3323:3326   */\n  dup5\n    /* \"#utility.yul\":3319:3330   */\n  add\n    /* \"#utility.yul\":3312:3351   */\n  mstore\n    /* \"#utility.yul\":3284:3286   */\n  0x20\n    /* \"#utility.yul\":3281:3282   */\n  dup2\n    /* \"#utility.yul\":3277:3287   */\n  add\n    /* \"#utility.yul\":3272:3287   */\n  swap1\n  pop\n    /* \"#utility.yul\":3248:3361   */\n  jump(tag_80)\ntag_82:\n    /* \"#utility.yul\":3379:3385   */\n  dup4\n    /* \"#utility.yul\":3376:3377   */\n  dup2\n    /* \"#utility.yul\":3373:3386   */\n  gt\n    /* \"#utility.yul\":3370:3471   */\n  iszero\n  tag_83\n  jumpi\n    /* \"#utility.yul\":3459:3460   */\n  0x00\n    /* \"#utility.yul\":3450:3456   */\n  dup5\n    /* \"#utility.yul\":3445:3448   */\n  dup5\n    /* \"#utility.yul\":3441:3457   */\n  add\n    /* \"#utility.yul\":3434:3461   */\n  mstore\n    /* \"#utility.yul\":3370:3471   */\ntag_83:\n    /* \"#utility.yul\":3219:3477   */\n  pop\n    /* \"#utility.yul\":3170:3477   */\n  pop\n  pop\n  pop\n  jump\t// out\n    /* \"#utility.yul\":3483:3803   */\ntag_19:\n    /* \"#utility.yul\":3527:3533   */\n  0x00\n    /* \"#utility.yul\":3564:3565   */\n  0x02\n    /* \"#utility.yul\":3558:3562   */\n  dup3\n    /* \"#utility.yul\":3554:3566   */\n  div\n    /* \"#utility.yul\":3544:3566   */\n  swap1\n  pop\n    /* \"#utility.yul\":3611:3612   */\n  0x01\n    /* \"#utility.yul\":3605:3609   */\n  dup3\n    /* \"#utility.yul\":3601:3613   */\n  and\n    /* \"#utility.yul\":3632:3650   */\n  dup1\n    /* \"#utility.yul\":3622:3703   */\n  tag_85\n  jumpi\n    /* \"#utility.yul\":3688:3692   */\n  0x7f\n    /* \"#utility.yul\":3680:3686   */\n  dup3\n    /* \"#utility.yul\":3676:3693   */\n  and\n    /* \"#utility.yul\":3666:3693   */\n  swap2\n  pop\n    /* \"#utility.yul\":3622:3703   */\ntag_85:\n    /* \"#utility.yul\":3750:3752   */\n  0x20\n    /* \"#utility.yul\":3742:3748   */\n  dup3\n    /* \"#utility.yul\":3739:3753   */\n  lt\n    /* \"#utility.yul\":3719:3737   */\n  dup2\n    /* \"#utility.yul\":3716:3754   */\n  eq\n    /* \"#utility.yul\":3713:3797   */\n  iszero\n  tag_86\n  jumpi\n    /* \"#utility.yul\":3769:3787   */\n  tag_87\n  tag_88\n  jump\t// in\ntag_87:\n    /* \"#utility.yul\":3713:3797   */\ntag_86:\n    /* \"#utility.yul\":3534:3803   */\n  pop\n    /* \"#utility.yul\":3483:3803   */\n  swap2\n  swap1\n  pop\n  jump\t// out\n    /* \"#utility.yul\":3809:4090   */\ntag_70:\n    /* \"#utility.yul\":3892:3919   */\n  tag_90\n    /* \"#utility.yul\":3914:3918   */\n  dup3\n    /* \"#utility.yul\":3892:3919   */\n  tag_77\n  jump\t// in\ntag_90:\n    /* \"#utility.yul\":3884:3890   */\n  dup2\n    /* \"#utility.yul\":3880:3920   */\n  add\n    /* \"#utility.yul\":4022:4028   */\n  dup2\n    /* \"#utility.yul\":4010:4020   */\n  dup2\n    /* \"#utility.yul\":4007:4029   */\n  lt\n    /* \"#utility.yul\":3986:4004   */\n  0xffffffffffffffff\n    /* \"#utility.yul\":3974:3984   */\n  dup3\n    /* \"#utility.yul\":3971:4005   */\n  gt\n    /* \"#utility.yul\":3968:4030   */\n  or\n    /* \"#utility.yul\":3965:4053   */\n  iszero\n  tag_91\n  jumpi\n    /* \"#utility.yul\":4033:4051   */\n  tag_92\n  tag_75\n  jump\t// in\ntag_92:\n    /* \"#utility.yul\":3965:4053   */\ntag_91:\n    /* \"#utility.yul\":4073:4083   */\n  dup1\n    /* \"#utility.yul\":4069:4071   */\n  0x40\n    /* \"#utility.yul\":4062:4084   */\n  mstore\n    /* \"#utility.yul\":3852:4090   */\n  pop\n    /* \"#utility.yul\":3809:4090   */\n  pop\n  pop\n  jump\t// out\n    /* \"#utility.yul\":4096:4276   */\ntag_88:\n    /* \"#utility.yul\":4144:4221   */\n  0x4e487b7100000000000000000000000000000000000000000000000000000000\n    /* \"#utility.yul\":4141:4142   */\n  0x00\n    /* \"#utility.yul\":4134:4222   */\n  mstore\n    /* \"#utility.yul\":4241:4245   */\n  0x22\n    /* \"#utility.yul\":4238:4239   */\n  0x04\n    /* \"#utility.yul\":4231:4246   */\n  mstore\n    /* \"#utility.yul\":4265:4269   */\n  0x24\n    /* \"#utility.yul\":4262:4263   */\n  0x00\n    /* \"#utility.yul\":4255:4270   */\n  revert\n    /* \"#utility.yul\":4282:4462   */\ntag_75:\n    /* \"#utility.yul\":4330:4407   */\n  0x4e487b7100000000000000000000000000000000000000000000000000000000\n    /* \"#utility.yul\":4327:4328   */\n  0x00\n    /* \"#utility.yul\":4320:4408   */\n  mstore\n    /* \"#utility.yul\":4427:4431   */\n  0x41\n    /* \"#utility.yul\":4424:4425   */\n  0x04\n    /* \"#utility.yul\":4417:4432   */\n  mstore\n    /* \"#utility.yul\":4451:4455   */\n  0x24\n    /* \"#utility.yul\":4448:4449   */\n  0x00\n    /* \"#utility.yul\":4441:4456   */\n  revert\n    /* \"#utility.yul\":4468:4585   */\ntag_45:\n    /* \"#utility.yul\":4577:4578   */\n  0x00\n    /* \"#utility.yul\":4574:4575   */\n  dup1\n    /* \"#utility.yul\":4567:4579   */\n  revert\n    /* \"#utility.yul\":4591:4708   */\ntag_38:\n    /* \"#utility.yul\":4700:4701   */\n  0x00\n    /* \"#utility.yul\":4697:4698   */\n  dup1\n    /* \"#utility.yul\":4690:4702   */\n  revert\n    /* \"#utility.yul\":4714:4831   */\ntag_53:\n    /* \"#utility.yul\":4823:4824   */\n  0x00\n    /* \"#utility.yul\":4820:4821   */\n  dup1\n    /* \"#utility.yul\":4813:4825   */\n  revert\n    /* \"#utility.yul\":4837:4954   */\ntag_50:\n    /* \"#utility.yul\":4946:4947   */\n  0x00\n    /* \"#utility.yul\":4943:4944   */\n  dup1\n    /* \"#utility.yul\":4936:4948   */\n  revert\n    /* \"#utility.yul\":4960:5062   */\ntag_77:\n    /* \"#utility.yul\":5001:5007   */\n  0x00\n    /* \"#utility.yul\":5052:5054   */\n  0x1f\n    /* \"#utility.yul\":5048:5055   */\n  not\n    /* \"#utility.yul\":5043:5045   */\n  0x1f\n    /* \"#utility.yul\":5036:5041   */\n  dup4\n    /* \"#utility.yul\":5032:5046   */\n  add\n    /* \"#utility.yul\":5028:5056   */\n  and\n    /* \"#utility.yul\":5018:5056   */\n  swap1\n  pop\n    /* \"#utility.yul\":4960:5062   */\n  swap2\n  swap1\n  pop\n  jump\t// out\n    /* \"#utility.yul\":5068:5246   */\ntag_63:\n    /* \"#utility.yul\":5208:5238   */\n  0x4552433136353a20696e76616c696420696e7465726661636520696400000000\n    /* \"#utility.yul\":5204:5205   */\n  0x00\n    /* \"#utility.yul\":5196:5202   */\n  dup3\n    /* \"#utility.yul\":5192:5206   */\n  add\n    /* \"#utility.yul\":5185:5239   */\n  mstore\n    /* \"#utility.yul\":5068:5246   */\n  pop\n  jump\t// out\n    /* \"contracts/ERC721.sol\":581:14683  contract ERC721 is Context, ERC165, IERC721, IERC721Metadata {\r... */\ntag_13:\n  dataSize(sub_0)\n  dup1\n  dataOffset(sub_0)\n  0x00\n  codecopy\n  0x00\n  return\nstop\n\nsub_0: assembly {\n        /* \"contracts/ERC721.sol\":581:14683  contract ERC721 is Context, ERC165, IERC721, IERC721Metadata {\r... */\n      mstore(0x40, 0x80)\n      callvalue\n      dup1\n      iszero\n      tag_1\n      jumpi\n      0x00\n      dup1\n      revert\n    tag_1:\n      pop\n      jumpi(tag_2, lt(calldatasize, 0x04))\n      shr(0xe0, calldataload(0x00))\n      dup1\n      0x70a08231\n      gt\n      tag_17\n      jumpi\n      dup1\n      0xb3e1c718\n      gt\n      tag_18\n      jumpi\n      dup1\n      0xb3e1c718\n      eq\n      tag_13\n      jumpi\n      dup1\n      0xb88d4fde\n      eq\n      tag_14\n      jumpi\n      dup1\n      0xc87b56dd\n      eq\n      tag_15\n      jumpi\n      dup1\n      0xe985e9c5\n      eq\n      tag_16\n      jumpi\n      jump(tag_2)\n    tag_18:\n      dup1\n      0x70a08231\n      eq\n      tag_10\n      jumpi\n      dup1\n      0x95d89b41\n      eq\n      tag_11\n      jumpi\n      dup1\n      0xa22cb465\n      eq\n      tag_12\n      jumpi\n      jump(tag_2)\n    tag_17:\n      dup1\n      0x095ea7b3\n      gt\n      tag_19\n      jumpi\n      dup1\n      0x095ea7b3\n      eq\n      tag_6\n      jumpi\n      dup1\n      0x23b872dd\n      eq\n      tag_7\n      jumpi\n      dup1\n      0x42842e0e\n      eq\n      tag_8\n      jumpi\n      dup1\n      0x6352211e\n      eq\n      tag_9\n      jumpi\n      jump(tag_2)\n    tag_19:\n      dup1\n      0x01ffc9a7\n      eq\n      tag_3\n      jumpi\n      dup1\n      0x06fdde03\n      eq\n      tag_4\n      jumpi\n      dup1\n      0x081812fc\n      eq\n      tag_5\n      jumpi\n    tag_2:\n      0x00\n      dup1\n      revert\n        /* \"contracts/ERC721.sol\":1556:1861  function supportsInterface(bytes4 interfaceId) public view virtual override(ERC165, IERC165) returns (bool) {\r... */\n    tag_3:\n      tag_20\n      0x04\n      dup1\n      calldatasize\n      sub\n      dup2\n      add\n      swap1\n      tag_21\n      swap2\n      swap1\n      tag_22\n      jump\t// in\n    tag_21:\n      tag_23\n      jump\t// in\n    tag_20:\n      mload(0x40)\n      tag_24\n      swap2\n      swap1\n      tag_25\n      jump\t// in\n    tag_24:\n      mload(0x40)\n      dup1\n      swap2\n      sub\n      swap1\n      return\n        /* \"contracts/ERC721.sol\":2501:2601  function name() public view virtual override returns (string memory) {\r... */\n    tag_4:\n      tag_26\n      tag_27\n      jump\t// in\n    tag_26:\n      mload(0x40)\n      tag_28\n      swap2\n      swap1\n      tag_29\n      jump\t// in\n    tag_28:\n      mload(0x40)\n      dup1\n      swap2\n      sub\n      swap1\n      return\n        /* \"contracts/ERC721.sol\":4079:4300  function getApproved(uint256 tokenId) public view virtual override returns (address) {\r... */\n    tag_5:\n      tag_30\n      0x04\n      dup1\n      calldatasize\n      sub\n      dup2\n      add\n      swap1\n      tag_31\n      swap2\n      swap1\n      tag_32\n      jump\t// in\n    tag_31:\n      tag_33\n      jump\t// in\n    tag_30:\n      mload(0x40)\n      tag_34\n      swap2\n      swap1\n      tag_35\n      jump\t// in\n    tag_34:\n      mload(0x40)\n      dup1\n      swap2\n      sub\n      swap1\n      return\n        /* \"contracts/ERC721.sol\":3602:4013  function approve(address to, uint256 tokenId) public virtual override {\r... */\n    tag_6:\n      tag_36\n      0x04\n      dup1\n      calldatasize\n      sub\n      dup2\n      add\n      swap1\n      tag_37\n      swap2\n      swap1\n      tag_38\n      jump\t// in\n    tag_37:\n      tag_39\n      jump\t// in\n    tag_36:\n      stop\n        /* \"contracts/ERC721.sol\":4829:5168  function transferFrom(\r... */\n    tag_7:\n      tag_40\n      0x04\n      dup1\n      calldatasize\n      sub\n      dup2\n      add\n      swap1\n      tag_41\n      swap2\n      swap1\n      tag_42\n      jump\t// in\n    tag_41:\n      tag_43\n      jump\t// in\n    tag_40:\n      stop\n        /* \"contracts/ERC721.sol\":5239:5424  function safeTransferFrom(\r... */\n    tag_8:\n      tag_44\n      0x04\n      dup1\n      calldatasize\n      sub\n      dup2\n      add\n      swap1\n      tag_45\n      swap2\n      swap1\n      tag_42\n      jump\t// in\n    tag_45:\n      tag_46\n      jump\t// in\n    tag_44:\n      stop\n        /* \"contracts/ERC721.sol\":2195:2434  function ownerOf(uint256 tokenId) public view virtual override returns (address) {\r... */\n    tag_9:\n      tag_47\n      0x04\n      dup1\n      calldatasize\n      sub\n      dup2\n      add\n      swap1\n      tag_48\n      swap2\n      swap1\n      tag_32\n      jump\t// in\n    tag_48:\n      tag_49\n      jump\t// in\n    tag_47:\n      mload(0x40)\n      tag_50\n      swap2\n      swap1\n      tag_35\n      jump\t// in\n    tag_50:\n      mload(0x40)\n      dup1\n      swap2\n      sub\n      swap1\n      return\n        /* \"contracts/ERC721.sol\":1925:2133  function balanceOf(address owner) public view virtual override returns (uint256) {\r... */\n    tag_10:\n      tag_51\n      0x04\n      dup1\n      calldatasize\n      sub\n      dup2\n      add\n      swap1\n      tag_52\n      swap2\n      swap1\n      tag_53\n      jump\t// in\n    tag_52:\n      tag_54\n      jump\t// in\n    tag_51:\n      mload(0x40)\n      tag_55\n      swap2\n      swap1\n      tag_56\n      jump\t// in\n    tag_55:\n      mload(0x40)\n      dup1\n      swap2\n      sub\n      swap1\n      return\n        /* \"contracts/ERC721.sol\":2670:2774  function symbol() public view virtual override returns (string memory) {\r... */\n    tag_11:\n      tag_57\n      tag_58\n      jump\t// in\n    tag_57:\n      mload(0x40)\n      tag_59\n      swap2\n      swap1\n      tag_29\n      jump\t// in\n    tag_59:\n      mload(0x40)\n      dup1\n      swap2\n      sub\n      swap1\n      return\n        /* \"contracts/ERC721.sol\":4372:4527  function setApprovalForAll(address operator, bool approved) public virtual override {\r... */\n    tag_12:\n      tag_60\n      0x04\n      dup1\n      calldatasize\n      sub\n      dup2\n      add\n      swap1\n      tag_61\n      swap2\n      swap1\n      tag_62\n      jump\t// in\n    tag_61:\n      tag_63\n      jump\t// in\n    tag_60:\n      stop\n        /* \"contracts/ERC721.sol\":8317:8425  function _safeMint(address to, uint256 tokenId) public virtual {\r... */\n    tag_13:\n      tag_64\n      0x04\n      dup1\n      calldatasize\n      sub\n      dup2\n      add\n      swap1\n      tag_65\n      swap2\n      swap1\n      tag_38\n      jump\t// in\n    tag_65:\n      tag_66\n      jump\t// in\n    tag_64:\n      stop\n        /* \"contracts/ERC721.sol\":5495:5823  function safeTransferFrom(\r... */\n    tag_14:\n      tag_67\n      0x04\n      dup1\n      calldatasize\n      sub\n      dup2\n      add\n      swap1\n      tag_68\n      swap2\n      swap1\n      tag_69\n      jump\t// in\n    tag_68:\n      tag_70\n      jump\t// in\n    tag_67:\n      stop\n        /* \"contracts/ERC721.sol\":2845:3179  function tokenURI(uint256 tokenId) public view virtual override returns (string memory) {\r... */\n    tag_15:\n      tag_71\n      0x04\n      dup1\n      calldatasize\n      sub\n      dup2\n      add\n      swap1\n      tag_72\n      swap2\n      swap1\n      tag_32\n      jump\t// in\n    tag_72:\n      tag_73\n      jump\t// in\n    tag_71:\n      mload(0x40)\n      tag_74\n      swap2\n      swap1\n      tag_29\n      jump\t// in\n    tag_74:\n      mload(0x40)\n      dup1\n      swap2\n      sub\n      swap1\n      return\n        /* \"contracts/ERC721.sol\":4598:4762  function isApprovedForAll(address owner, address operator) public view virtual override returns (bool) {\r... */\n    tag_16:\n      tag_75\n      0x04\n      dup1\n      calldatasize\n      sub\n      dup2\n      add\n      swap1\n      tag_76\n      swap2\n      swap1\n      tag_77\n      jump\t// in\n    tag_76:\n      tag_78\n      jump\t// in\n    tag_75:\n      mload(0x40)\n      tag_79\n      swap2\n      swap1\n      tag_25\n      jump\t// in\n    tag_79:\n      mload(0x40)\n      dup1\n      swap2\n      sub\n      swap1\n      return\n        /* \"contracts/ERC721.sol\":1556:1861  function supportsInterface(bytes4 interfaceId) public view virtual override(ERC165, IERC165) returns (bool) {\r... */\n    tag_23:\n        /* \"contracts/ERC721.sol\":1658:1662  bool */\n      0x00\n        /* \"contracts/ERC721.sol\":1710:1735  type(IERC721).interfaceId */\n      0x80ac58cd00000000000000000000000000000000000000000000000000000000\n        /* \"contracts/ERC721.sol\":1695:1735  interfaceId == type(IERC721).interfaceId */\n      not(0xffffffffffffffffffffffffffffffffffffffffffffffffffffffff)\n      and\n        /* \"contracts/ERC721.sol\":1695:1706  interfaceId */\n      dup3\n        /* \"contracts/ERC721.sol\":1695:1735  interfaceId == type(IERC721).interfaceId */\n      not(0xffffffffffffffffffffffffffffffffffffffffffffffffffffffff)\n      and\n      eq\n        /* \"contracts/ERC721.sol\":1695:1800  interfaceId == type(IERC721).interfaceId ||\r... */\n      dup1\n      tag_81\n      jumpi\n      pop\n        /* \"contracts/ERC721.sol\":1767:1800  type(IERC721Metadata).interfaceId */\n      0x5b5e139f00000000000000000000000000000000000000000000000000000000\n        /* \"contracts/ERC721.sol\":1752:1800  interfaceId == type(IERC721Metadata).interfaceId */\n      not(0xffffffffffffffffffffffffffffffffffffffffffffffffffffffff)\n      and\n        /* \"contracts/ERC721.sol\":1752:1763  interfaceId */\n      dup3\n        /* \"contracts/ERC721.sol\":1752:1800  interfaceId == type(IERC721Metadata).interfaceId */\n      not(0xffffffffffffffffffffffffffffffffffffffffffffffffffffffff)\n      and\n      eq\n        /* \"contracts/ERC721.sol\":1695:1800  interfaceId == type(IERC721).interfaceId ||\r... */\n    tag_81:\n        /* \"contracts/ERC721.sol\":1695:1853  interfaceId == type(IERC721).interfaceId ||\r... */\n      dup1\n      tag_82\n      jumpi\n      pop\n        /* \"contracts/ERC721.sol\":1817:1853  super.supportsInterface(interfaceId) */\n      tag_83\n        /* \"contracts/ERC721.sol\":1841:1852  interfaceId */\n      dup3\n        /* \"contracts/ERC721.sol\":1817:1840  super.supportsInterface */\n      tag_84\n        /* \"contracts/ERC721.sol\":1817:1853  super.supportsInterface(interfaceId) */\n      jump\t// in\n    tag_83:\n        /* \"contracts/ERC721.sol\":1695:1853  interfaceId == type(IERC721).interfaceId ||\r... */\n    tag_82:\n        /* \"contracts/ERC721.sol\":1675:1853  return\r... */\n      swap1\n      pop\n        /* \"contracts/ERC721.sol\":1556:1861  function supportsInterface(bytes4 interfaceId) public view virtual override(ERC165, IERC165) returns (bool) {\r... */\n      swap2\n      swap1\n      pop\n      jump\t// out\n        /* \"contracts/ERC721.sol\":2501:2601  function name() public view virtual override returns (string memory) {\r... */\n    tag_27:\n        /* \"contracts/ERC721.sol\":2555:2568  string memory */\n      0x60\n        /* \"contracts/ERC721.sol\":2588:2593  _name */\n      0x01\n        /* \"contracts/ERC721.sol\":2581:2593  return _name */\n      dup1\n      sload\n      tag_86\n      swap1\n      tag_87\n      jump\t// in\n    tag_86:\n      dup1\n      0x1f\n      add\n      0x20\n      dup1\n      swap2\n      div\n      mul\n      0x20\n      add\n      mload(0x40)\n      swap1\n      dup2\n      add\n      0x40\n      mstore\n      dup1\n      swap3\n      swap2\n      swap1\n      dup2\n      dup2\n      mstore\n      0x20\n      add\n      dup3\n      dup1\n      sload\n      tag_88\n      swap1\n      tag_87\n      jump\t// in\n    tag_88:\n      dup1\n      iszero\n      tag_89\n      jumpi\n      dup1\n      0x1f\n      lt\n      tag_90\n      jumpi\n      0x0100\n      dup1\n      dup4\n      sload\n      div\n      mul\n      dup4\n      mstore\n      swap2\n      0x20\n      add\n      swap2\n      jump(tag_89)\n    tag_90:\n      dup3\n      add\n      swap2\n      swap1\n      0x00\n      mstore\n      keccak256(0x00, 0x20)\n      swap1\n    tag_91:\n      dup2\n      sload\n      dup2\n      mstore\n      swap1\n      0x01\n      add\n      swap1\n      0x20\n      add\n      dup1\n      dup4\n      gt\n      tag_91\n      jumpi\n      dup3\n      swap1\n      sub\n      0x1f\n      and\n      dup3\n      add\n      swap2\n    tag_89:\n      pop\n      pop\n      pop\n      pop\n      pop\n      swap1\n      pop\n        /* \"contracts/ERC721.sol\":2501:2601  function name() public view virtual override returns (string memory) {\r... */\n      swap1\n      jump\t// out\n        /* \"contracts/ERC721.sol\":4079:4300  function getApproved(uint256 tokenId) public view virtual override returns (address) {\r... */\n    tag_33:\n        /* \"contracts/ERC721.sol\":4155:4162  address */\n      0x00\n        /* \"contracts/ERC721.sol\":4183:4199  _exists(tokenId) */\n      tag_93\n        /* \"contracts/ERC721.sol\":4191:4198  tokenId */\n      dup3\n        /* \"contracts/ERC721.sol\":4183:4190  _exists */\n      tag_94\n        /* \"contracts/ERC721.sol\":4183:4199  _exists(tokenId) */\n      jump\t// in\n    tag_93:\n        /* \"contracts/ERC721.sol\":4175:4248  require(_exists(tokenId), \"ERC721: approved query for nonexistent token\") */\n      tag_95\n      jumpi\n      mload(0x40)\n      0x08c379a000000000000000000000000000000000000000000000000000000000\n      dup2\n      mstore\n      0x04\n      add\n      tag_96\n      swap1\n      tag_97\n      jump\t// in\n    tag_96:\n      mload(0x40)\n      dup1\n      swap2\n      sub\n      swap1\n      revert\n    tag_95:\n        /* \"contracts/ERC721.sol\":4268:4283  _tokenApprovals */\n      0x05\n        /* \"contracts/ERC721.sol\":4268:4292  _tokenApprovals[tokenId] */\n      0x00\n        /* \"contracts/ERC721.sol\":4284:4291  tokenId */\n      dup4\n        /* \"contracts/ERC721.sol\":4268:4292  _tokenApprovals[tokenId] */\n      dup2\n      mstore\n      0x20\n      add\n      swap1\n      dup2\n      mstore\n      0x20\n      add\n      0x00\n      keccak256\n      0x00\n      swap1\n      sload\n      swap1\n      0x0100\n      exp\n      swap1\n      div\n      0xffffffffffffffffffffffffffffffffffffffff\n      and\n        /* \"contracts/ERC721.sol\":4261:4292  return _tokenApprovals[tokenId] */\n      swap1\n      pop\n        /* \"contracts/ERC721.sol\":4079:4300  function getApproved(uint256 tokenId) public view virtual override returns (address) {\r... */\n      swap2\n      swap1\n      pop\n      jump\t// out\n        /* \"contracts/ERC721.sol\":3602:4013  function approve(address to, uint256 tokenId) public virtual override {\r... */\n    tag_39:\n        /* \"contracts/ERC721.sol\":3683:3696  address owner */\n      0x00\n        /* \"contracts/ERC721.sol\":3699:3722  ERC721.ownerOf(tokenId) */\n      tag_99\n        /* \"contracts/ERC721.sol\":3714:3721  tokenId */\n      dup3\n        /* \"contracts/ERC721.sol\":3699:3713  ERC721.ownerOf */\n      tag_49\n        /* \"contracts/ERC721.sol\":3699:3722  ERC721.ownerOf(tokenId) */\n      jump\t// in\n    tag_99:\n        /* \"contracts/ERC721.sol\":3683:3722  address owner = ERC721.ownerOf(tokenId) */\n      swap1\n      pop\n        /* \"contracts/ERC721.sol\":3747:3752  owner */\n      dup1\n        /* \"contracts/ERC721.sol\":3741:3752  to != owner */\n      0xffffffffffffffffffffffffffffffffffffffff\n      and\n        /* \"contracts/ERC721.sol\":3741:3743  to */\n      dup4\n        /* \"contracts/ERC721.sol\":3741:3752  to != owner */\n      0xffffffffffffffffffffffffffffffffffffffff\n      and\n      eq\n      iszero\n        /* \"contracts/ERC721.sol\":3733:3790  require(to != owner, \"ERC721: approval to current owner\") */\n      tag_100\n      jumpi\n      mload(0x40)\n      0x08c379a000000000000000000000000000000000000000000000000000000000\n      dup2\n      mstore\n      0x04\n      add\n      tag_101\n      swap1\n      tag_102\n      jump\t// in\n    tag_101:\n      mload(0x40)\n      dup1\n      swap2\n      sub\n      swap1\n      revert\n    tag_100:\n        /* \"contracts/ERC721.sol\":3841:3846  owner */\n      dup1\n        /* \"contracts/ERC721.sol\":3825:3846  _msgSender() == owner */\n      0xffffffffffffffffffffffffffffffffffffffff\n      and\n        /* \"contracts/ERC721.sol\":3825:3837  _msgSender() */\n      tag_103\n        /* \"contracts/ERC721.sol\":3825:3835  _msgSender */\n      tag_104\n        /* \"contracts/ERC721.sol\":3825:3837  _msgSender() */\n      jump\t// in\n    tag_103:\n        /* \"contracts/ERC721.sol\":3825:3846  _msgSender() == owner */\n      0xffffffffffffffffffffffffffffffffffffffff\n      and\n      eq\n        /* \"contracts/ERC721.sol\":3825:3887  _msgSender() == owner || isApprovedForAll(owner, _msgSender()) */\n      dup1\n      tag_105\n      jumpi\n      pop\n        /* \"contracts/ERC721.sol\":3850:3887  isApprovedForAll(owner, _msgSender()) */\n      tag_106\n        /* \"contracts/ERC721.sol\":3867:3872  owner */\n      dup2\n        /* \"contracts/ERC721.sol\":3874:3886  _msgSender() */\n      tag_107\n        /* \"contracts/ERC721.sol\":3874:3884  _msgSender */\n      tag_104\n        /* \"contracts/ERC721.sol\":3874:3886  _msgSender() */\n      jump\t// in\n    tag_107:\n        /* \"contracts/ERC721.sol\":3850:3866  isApprovedForAll */\n      tag_78\n        /* \"contracts/ERC721.sol\":3850:3887  isApprovedForAll(owner, _msgSender()) */\n      jump\t// in\n    tag_106:\n        /* \"contracts/ERC721.sol\":3825:3887  _msgSender() == owner || isApprovedForAll(owner, _msgSender()) */\n    tag_105:\n        /* \"contracts/ERC721.sol\":3803:3971  require(\r... */\n      tag_108\n      jumpi\n      mload(0x40)\n      0x08c379a000000000000000000000000000000000000000000000000000000000\n      dup2\n      mstore\n      0x04\n      add\n      tag_109\n      swap1\n      tag_110\n      jump\t// in\n    tag_109:\n      mload(0x40)\n      dup1\n      swap2\n      sub\n      swap1\n      revert\n    tag_108:\n        /* \"contracts/ERC721.sol\":3984:4005  _approve(to, tokenId) */\n      tag_111\n        /* \"contracts/ERC721.sol\":3993:3995  to */\n      dup4\n        /* \"contracts/ERC721.sol\":3997:4004  tokenId */\n      dup4\n        /* \"contracts/ERC721.sol\":3984:3992  _approve */\n      tag_112\n        /* \"contracts/ERC721.sol\":3984:4005  _approve(to, tokenId) */\n      jump\t// in\n    tag_111:\n        /* \"contracts/ERC721.sol\":3672:4013  {\r... */\n      pop\n        /* \"contracts/ERC721.sol\":3602:4013  function approve(address to, uint256 tokenId) public virtual override {\r... */\n      pop\n      pop\n      jump\t// out\n        /* \"contracts/ERC721.sol\":4829:5168  function transferFrom(\r... */\n    tag_43:\n        /* \"contracts/ERC721.sol\":5024:5065  _isApprovedOrOwner(_msgSender(), tokenId) */\n      tag_114\n        /* \"contracts/ERC721.sol\":5043:5055  _msgSender() */\n      tag_115\n        /* \"contracts/ERC721.sol\":5043:5053  _msgSender */\n      tag_104\n        /* \"contracts/ERC721.sol\":5043:5055  _msgSender() */\n      jump\t// in\n    tag_115:\n        /* \"contracts/ERC721.sol\":5057:5064  tokenId */\n      dup3\n        /* \"contracts/ERC721.sol\":5024:5042  _isApprovedOrOwner */\n      tag_116\n        /* \"contracts/ERC721.sol\":5024:5065  _isApprovedOrOwner(_msgSender(), tokenId) */\n      jump\t// in\n    tag_114:\n        /* \"contracts/ERC721.sol\":5016:5119  require(_isApprovedOrOwner(_msgSender(), tokenId), \"ERC721: transfer caller is not owner nor approved\") */\n      tag_117\n      jumpi\n      mload(0x40)\n      0x08c379a000000000000000000000000000000000000000000000000000000000\n      dup2\n      mstore\n      0x04\n      add\n      tag_118\n      swap1\n      tag_119\n      jump\t// in\n    tag_118:\n      mload(0x40)\n      dup1\n      swap2\n      sub\n      swap1\n      revert\n    tag_117:\n        /* \"contracts/ERC721.sol\":5132:5160  _transfer(from, to, tokenId) */\n      tag_120\n        /* \"contracts/ERC721.sol\":5142:5146  from */\n      dup4\n        /* \"contracts/ERC721.sol\":5148:5150  to */\n      dup4\n        /* \"contracts/ERC721.sol\":5152:5159  tokenId */\n      dup4\n        /* \"contracts/ERC721.sol\":5132:5141  _transfer */\n      tag_121\n        /* \"contracts/ERC721.sol\":5132:5160  _transfer(from, to, tokenId) */\n      jump\t// in\n    tag_120:\n        /* \"contracts/ERC721.sol\":4829:5168  function transferFrom(\r... */\n      pop\n      pop\n      pop\n      jump\t// out\n        /* \"contracts/ERC721.sol\":5239:5424  function safeTransferFrom(\r... */\n    tag_46:\n        /* \"contracts/ERC721.sol\":5377:5416  safeTransferFrom(from, to, tokenId, \"\") */\n      tag_123\n        /* \"contracts/ERC721.sol\":5394:5398  from */\n      dup4\n        /* \"contracts/ERC721.sol\":5400:5402  to */\n      dup4\n        /* \"contracts/ERC721.sol\":5404:5411  tokenId */\n      dup4\n        /* \"contracts/ERC721.sol\":5377:5416  safeTransferFrom(from, to, tokenId, \"\") */\n      mload(0x40)\n      dup1\n      0x20\n      add\n      0x40\n      mstore\n      dup1\n      0x00\n      dup2\n      mstore\n      pop\n        /* \"contracts/ERC721.sol\":5377:5393  safeTransferFrom */\n      tag_70\n        /* \"contracts/ERC721.sol\":5377:5416  safeTransferFrom(from, to, tokenId, \"\") */\n      jump\t// in\n    tag_123:\n        /* \"contracts/ERC721.sol\":5239:5424  function safeTransferFrom(\r... */\n      pop\n      pop\n      pop\n      jump\t// out\n        /* \"contracts/ERC721.sol\":2195:2434  function ownerOf(uint256 tokenId) public view virtual override returns (address) {\r... */\n    tag_49:\n        /* \"contracts/ERC721.sol\":2267:2274  address */\n      0x00\n        /* \"contracts/ERC721.sol\":2287:2300  address owner */\n      dup1\n        /* \"contracts/ERC721.sol\":2303:2310  _owners */\n      0x03\n        /* \"contracts/ERC721.sol\":2303:2319  _owners[tokenId] */\n      0x00\n        /* \"contracts/ERC721.sol\":2311:2318  tokenId */\n      dup5\n        /* \"contracts/ERC721.sol\":2303:2319  _owners[tokenId] */\n      dup2\n      mstore\n      0x20\n      add\n      swap1\n      dup2\n      mstore\n      0x20\n      add\n      0x00\n      keccak256\n      0x00\n      swap1\n      sload\n      swap1\n      0x0100\n      exp\n      swap1\n      div\n      0xffffffffffffffffffffffffffffffffffffffff\n      and\n        /* \"contracts/ERC721.sol\":2287:2319  address owner = _owners[tokenId] */\n      swap1\n      pop\n        /* \"contracts/ERC721.sol\":2355:2356  0 */\n      0x00\n        /* \"contracts/ERC721.sol\":2338:2357  owner != address(0) */\n      0xffffffffffffffffffffffffffffffffffffffff\n      and\n        /* \"contracts/ERC721.sol\":2338:2343  owner */\n      dup2\n        /* \"contracts/ERC721.sol\":2338:2357  owner != address(0) */\n      0xffffffffffffffffffffffffffffffffffffffff\n      and\n      eq\n      iszero\n        /* \"contracts/ERC721.sol\":2330:2403  require(owner != address(0), \"ERC721: owner query for nonexistent token\") */\n      tag_125\n      jumpi\n      mload(0x40)\n      0x08c379a000000000000000000000000000000000000000000000000000000000\n      dup2\n      mstore\n      0x04\n      add\n      tag_126\n      swap1\n      tag_127\n      jump\t// in\n    tag_126:\n      mload(0x40)\n      dup1\n      swap2\n      sub\n      swap1\n      revert\n    tag_125:\n        /* \"contracts/ERC721.sol\":2421:2426  owner */\n      dup1\n        /* \"contracts/ERC721.sol\":2414:2426  return owner */\n      swap2\n      pop\n      pop\n        /* \"contracts/ERC721.sol\":2195:2434  function ownerOf(uint256 tokenId) public view virtual override returns (address) {\r... */\n      swap2\n      swap1\n      pop\n      jump\t// out\n        /* \"contracts/ERC721.sol\":1925:2133  function balanceOf(address owner) public view virtual override returns (uint256) {\r... */\n    tag_54:\n        /* \"contracts/ERC721.sol\":1997:2004  uint256 */\n      0x00\n        /* \"contracts/ERC721.sol\":2042:2043  0 */\n      dup1\n        /* \"contracts/ERC721.sol\":2025:2044  owner != address(0) */\n      0xffffffffffffffffffffffffffffffffffffffff\n      and\n        /* \"contracts/ERC721.sol\":2025:2030  owner */\n      dup3\n        /* \"contracts/ERC721.sol\":2025:2044  owner != address(0) */\n      0xffffffffffffffffffffffffffffffffffffffff\n      and\n      eq\n      iszero\n        /* \"contracts/ERC721.sol\":2017:2091  require(owner != address(0), \"ERC721: balance query for the zero address\") */\n      tag_129\n      jumpi\n      mload(0x40)\n      0x08c379a000000000000000000000000000000000000000000000000000000000\n      dup2\n      mstore\n      0x04\n      add\n      tag_130\n      swap1\n      tag_131\n      jump\t// in\n    tag_130:\n      mload(0x40)\n      dup1\n      swap2\n      sub\n      swap1\n      revert\n    tag_129:\n        /* \"contracts/ERC721.sol\":2109:2118  _balances */\n      0x04\n        /* \"contracts/ERC721.sol\":2109:2125  _balances[owner] */\n      0x00\n        /* \"contracts/ERC721.sol\":2119:2124  owner */\n      dup4\n        /* \"contracts/ERC721.sol\":2109:2125  _balances[owner] */\n      0xffffffffffffffffffffffffffffffffffffffff\n      and\n      0xffffffffffffffffffffffffffffffffffffffff\n      and\n      dup2\n      mstore\n      0x20\n      add\n      swap1\n      dup2\n      mstore\n      0x20\n      add\n      0x00\n      keccak256\n      sload\n        /* \"contracts/ERC721.sol\":2102:2125  return _balances[owner] */\n      swap1\n      pop\n        /* \"contracts/ERC721.sol\":1925:2133  function balanceOf(address owner) public view virtual override returns (uint256) {\r... */\n      swap2\n      swap1\n      pop\n      jump\t// out\n        /* \"contracts/ERC721.sol\":2670:2774  function symbol() public view virtual override returns (string memory) {\r... */\n    tag_58:\n        /* \"contracts/ERC721.sol\":2726:2739  string memory */\n      0x60\n        /* \"contracts/ERC721.sol\":2759:2766  _symbol */\n      0x02\n        /* \"contracts/ERC721.sol\":2752:2766  return _symbol */\n      dup1\n      sload\n      tag_133\n      swap1\n      tag_87\n      jump\t// in\n    tag_133:\n      dup1\n      0x1f\n      add\n      0x20\n      dup1\n      swap2\n      div\n      mul\n      0x20\n      add\n      mload(0x40)\n      swap1\n      dup2\n      add\n      0x40\n      mstore\n      dup1\n      swap3\n      swap2\n      swap1\n      dup2\n      dup2\n      mstore\n      0x20\n      add\n      dup3\n      dup1\n      sload\n      tag_134\n      swap1\n      tag_87\n      jump\t// in\n    tag_134:\n      dup1\n      iszero\n      tag_135\n      jumpi\n      dup1\n      0x1f\n      lt\n      tag_136\n      jumpi\n      0x0100\n      dup1\n      dup4\n      sload\n      div\n      mul\n      dup4\n      mstore\n      swap2\n      0x20\n      add\n      swap2\n      jump(tag_135)\n    tag_136:\n      dup3\n      add\n      swap2\n      swap1\n      0x00\n      mstore\n      keccak256(0x00, 0x20)\n      swap1\n    tag_137:\n      dup2\n      sload\n      dup2\n      mstore\n      swap1\n      0x01\n      add\n      swap1\n      0x20\n      add\n      dup1\n      dup4\n      gt\n      tag_137\n      jumpi\n      dup3\n      swap1\n      sub\n      0x1f\n      and\n      dup3\n      add\n      swap2\n    tag_135:\n      pop\n      pop\n      pop\n      pop\n      pop\n      swap1\n      pop\n        /* \"contracts/ERC721.sol\":2670:2774  function symbol() public view virtual override returns (string memory) {\r... */\n      swap1\n      jump\t// out\n        /* \"contracts/ERC721.sol\":4372:4527  function setApprovalForAll(address operator, bool approved) public virtual override {\r... */\n    tag_63:\n        /* \"contracts/ERC721.sol\":4467:4519  _setApprovalForAll(_msgSender(), operator, approved) */\n      tag_139\n        /* \"contracts/ERC721.sol\":4486:4498  _msgSender() */\n      tag_140\n        /* \"contracts/ERC721.sol\":4486:4496  _msgSender */\n      tag_104\n        /* \"contracts/ERC721.sol\":4486:4498  _msgSender() */\n      jump\t// in\n    tag_140:\n        /* \"contracts/ERC721.sol\":4500:4508  operator */\n      dup4\n        /* \"contracts/ERC721.sol\":4510:4518  approved */\n      dup4\n        /* \"contracts/ERC721.sol\":4467:4485  _setApprovalForAll */\n      tag_141\n        /* \"contracts/ERC721.sol\":4467:4519  _setApprovalForAll(_msgSender(), operator, approved) */\n      jump\t// in\n    tag_139:\n        /* \"contracts/ERC721.sol\":4372:4527  function setApprovalForAll(address operator, bool approved) public virtual override {\r... */\n      pop\n      pop\n      jump\t// out\n        /* \"contracts/ERC721.sol\":8317:8425  function _safeMint(address to, uint256 tokenId) public virtual {\r... */\n    tag_66:\n        /* \"contracts/ERC721.sol\":8391:8417  _safeMint(to, tokenId, \"\") */\n      tag_143\n        /* \"contracts/ERC721.sol\":8401:8403  to */\n      dup3\n        /* \"contracts/ERC721.sol\":8405:8412  tokenId */\n      dup3\n        /* \"contracts/ERC721.sol\":8391:8417  _safeMint(to, tokenId, \"\") */\n      mload(0x40)\n      dup1\n      0x20\n      add\n      0x40\n      mstore\n      dup1\n      0x00\n      dup2\n      mstore\n      pop\n        /* \"contracts/ERC721.sol\":8391:8400  _safeMint */\n      tag_144\n        /* \"contracts/ERC721.sol\":8391:8417  _safeMint(to, tokenId, \"\") */\n      jump\t// in\n    tag_143:\n        /* \"contracts/ERC721.sol\":8317:8425  function _safeMint(address to, uint256 tokenId) public virtual {\r... */\n      pop\n      pop\n      jump\t// out\n        /* \"contracts/ERC721.sol\":5495:5823  function safeTransferFrom(\r... */\n    tag_70:\n        /* \"contracts/ERC721.sol\":5670:5711  _isApprovedOrOwner(_msgSender(), tokenId) */\n      tag_146\n        /* \"contracts/ERC721.sol\":5689:5701  _msgSender() */\n      tag_147\n        /* \"contracts/ERC721.sol\":5689:5699  _msgSender */\n      tag_104\n        /* \"contracts/ERC721.sol\":5689:5701  _msgSender() */\n      jump\t// in\n    tag_147:\n        /* \"contracts/ERC721.sol\":5703:5710  tokenId */\n      dup4\n        /* \"contracts/ERC721.sol\":5670:5688  _isApprovedOrOwner */\n      tag_116\n        /* \"contracts/ERC721.sol\":5670:5711  _isApprovedOrOwner(_msgSender(), tokenId) */\n      jump\t// in\n    tag_146:\n        /* \"contracts/ERC721.sol\":5662:5765  require(_isApprovedOrOwner(_msgSender(), tokenId), \"ERC721: transfer caller is not owner nor approved\") */\n      tag_148\n      jumpi\n      mload(0x40)\n      0x08c379a000000000000000000000000000000000000000000000000000000000\n      dup2\n      mstore\n      0x04\n      add\n      tag_149\n      swap1\n      tag_119\n      jump\t// in\n    tag_149:\n      mload(0x40)\n      dup1\n      swap2\n      sub\n      swap1\n      revert\n    tag_148:\n        /* \"contracts/ERC721.sol\":5776:5815  _safeTransfer(from, to, tokenId, _data) */\n      tag_150\n        /* \"contracts/ERC721.sol\":5790:5794  from */\n      dup5\n        /* \"contracts/ERC721.sol\":5796:5798  to */\n      dup5\n        /* \"contracts/ERC721.sol\":5800:5807  tokenId */\n      dup5\n        /* \"contracts/ERC721.sol\":5809:5814  _data */\n      dup5\n        /* \"contracts/ERC721.sol\":5776:5789  _safeTransfer */\n      tag_151\n        /* \"contracts/ERC721.sol\":5776:5815  _safeTransfer(from, to, tokenId, _data) */\n      jump\t// in\n    tag_150:\n        /* \"contracts/ERC721.sol\":5495:5823  function safeTransferFrom(\r... */\n      pop\n      pop\n      pop\n      pop\n      jump\t// out\n        /* \"contracts/ERC721.sol\":2845:3179  function tokenURI(uint256 tokenId) public view virtual override returns (string memory) {\r... */\n    tag_73:\n        /* \"contracts/ERC721.sol\":2918:2931  string memory */\n      0x60\n        /* \"contracts/ERC721.sol\":2952:2968  _exists(tokenId) */\n      tag_153\n        /* \"contracts/ERC721.sol\":2960:2967  tokenId */\n      dup3\n        /* \"contracts/ERC721.sol\":2952:2959  _exists */\n      tag_94\n        /* \"contracts/ERC721.sol\":2952:2968  _exists(tokenId) */\n      jump\t// in\n    tag_153:\n        /* \"contracts/ERC721.sol\":2944:3020  require(_exists(tokenId), \"ERC721Metadata: URI query for nonexistent token\") */\n      tag_154\n      jumpi\n      mload(0x40)\n      0x08c379a000000000000000000000000000000000000000000000000000000000\n      dup2\n      mstore\n      0x04\n      add\n      tag_155\n      swap1\n      tag_156\n      jump\t// in\n    tag_155:\n      mload(0x40)\n      dup1\n      swap2\n      sub\n      swap1\n      revert\n    tag_154:\n        /* \"contracts/ERC721.sol\":3033:3054  string memory baseURI */\n      0x00\n        /* \"contracts/ERC721.sol\":3057:3067  _baseURI() */\n      tag_157\n        /* \"contracts/ERC721.sol\":3057:3065  _baseURI */\n      tag_158\n        /* \"contracts/ERC721.sol\":3057:3067  _baseURI() */\n      jump\t// in\n    tag_157:\n        /* \"contracts/ERC721.sol\":3033:3067  string memory baseURI = _baseURI() */\n      swap1\n      pop\n        /* \"contracts/ERC721.sol\":3109:3110  0 */\n      0x00\n        /* \"contracts/ERC721.sol\":3091:3098  baseURI */\n      dup2\n        /* \"contracts/ERC721.sol\":3085:3106  bytes(baseURI).length */\n      mload\n        /* \"contracts/ERC721.sol\":3085:3110  bytes(baseURI).length > 0 */\n      gt\n        /* \"contracts/ERC721.sol\":3085:3171  bytes(baseURI).length > 0 ? string(abi.encodePacked(baseURI, tokenId.toString())) : \"\" */\n      tag_159\n      jumpi\n      mload(0x40)\n      dup1\n      0x20\n      add\n      0x40\n      mstore\n      dup1\n      0x00\n      dup2\n      mstore\n      pop\n      jump(tag_160)\n    tag_159:\n        /* \"contracts/ERC721.sol\":3137:3144  baseURI */\n      dup1\n        /* \"contracts/ERC721.sol\":3146:3164  tokenId.toString() */\n      tag_161\n        /* \"contracts/ERC721.sol\":3146:3153  tokenId */\n      dup5\n        /* \"contracts/ERC721.sol\":3146:3162  tokenId.toString */\n      tag_162\n        /* \"contracts/ERC721.sol\":3146:3164  tokenId.toString() */\n      jump\t// in\n    tag_161:\n        /* \"contracts/ERC721.sol\":3120:3165  abi.encodePacked(baseURI, tokenId.toString()) */\n      add(0x20, mload(0x40))\n      tag_163\n      swap3\n      swap2\n      swap1\n      tag_164\n      jump\t// in\n    tag_163:\n      mload(0x40)\n      0x20\n      dup2\n      dup4\n      sub\n      sub\n      dup2\n      mstore\n      swap1\n      0x40\n      mstore\n        /* \"contracts/ERC721.sol\":3085:3171  bytes(baseURI).length > 0 ? string(abi.encodePacked(baseURI, tokenId.toString())) : \"\" */\n    tag_160:\n        /* \"contracts/ERC721.sol\":3078:3171  return bytes(baseURI).length > 0 ? string(abi.encodePacked(baseURI, tokenId.toString())) : \"\" */\n      swap2\n      pop\n      pop\n        /* \"contracts/ERC721.sol\":2845:3179  function tokenURI(uint256 tokenId) public view virtual override returns (string memory) {\r... */\n      swap2\n      swap1\n      pop\n      jump\t// out\n        /* \"contracts/ERC721.sol\":4598:4762  function isApprovedForAll(address owner, address operator) public view virtual override returns (bool) {\r... */\n    tag_78:\n        /* \"contracts/ERC721.sol\":4695:4699  bool */\n      0x00\n        /* \"contracts/ERC721.sol\":4719:4737  _operatorApprovals */\n      0x06\n        /* \"contracts/ERC721.sol\":4719:4744  _operatorApprovals[owner] */\n      0x00\n        /* \"contracts/ERC721.sol\":4738:4743  owner */\n      dup5\n        /* \"contracts/ERC721.sol\":4719:4744  _operatorApprovals[owner] */\n      0xffffffffffffffffffffffffffffffffffffffff\n      and\n      0xffffffffffffffffffffffffffffffffffffffff\n      and\n      dup2\n      mstore\n      0x20\n      add\n      swap1\n      dup2\n      mstore\n      0x20\n      add\n      0x00\n      keccak256\n        /* \"contracts/ERC721.sol\":4719:4754  _operatorApprovals[owner][operator] */\n      0x00\n        /* \"contracts/ERC721.sol\":4745:4753  operator */\n      dup4\n        /* \"contracts/ERC721.sol\":4719:4754  _operatorApprovals[owner][operator] */\n      0xffffffffffffffffffffffffffffffffffffffff\n      and\n      0xffffffffffffffffffffffffffffffffffffffff\n      and\n      dup2\n      mstore\n      0x20\n      add\n      swap1\n      dup2\n      mstore\n      0x20\n      add\n      0x00\n      keccak256\n      0x00\n      swap1\n      sload\n      swap1\n      0x0100\n      exp\n      swap1\n      div\n      0xff\n      and\n        /* \"contracts/ERC721.sol\":4712:4754  return _operatorApprovals[owner][operator] */\n      swap1\n      pop\n        /* \"contracts/ERC721.sol\":4598:4762  function isApprovedForAll(address owner, address operator) public view virtual override returns (bool) {\r... */\n      swap3\n      swap2\n      pop\n      pop\n      jump\t// out\n        /* \"contracts/ERC165.sol\":835:985  function supportsInterface(bytes4 interfaceId) public view virtual override returns (bool) {\r... */\n    tag_84:\n        /* \"contracts/ERC165.sol\":920:924  bool */\n      0x00\n        /* \"contracts/ERC165.sol\":944:964  _supportedInterfaces */\n      dup1\n        /* \"contracts/ERC165.sol\":944:977  _supportedInterfaces[interfaceId] */\n      0x00\n        /* \"contracts/ERC165.sol\":965:976  interfaceId */\n      dup4\n        /* \"contracts/ERC165.sol\":944:977  _supportedInterfaces[interfaceId] */\n      not(0xffffffffffffffffffffffffffffffffffffffffffffffffffffffff)\n      and\n      not(0xffffffffffffffffffffffffffffffffffffffffffffffffffffffff)\n      and\n      dup2\n      mstore\n      0x20\n      add\n      swap1\n      dup2\n      mstore\n      0x20\n      add\n      0x00\n      keccak256\n      0x00\n      swap1\n      sload\n      swap1\n      0x0100\n      exp\n      swap1\n      div\n      0xff\n      and\n        /* \"contracts/ERC165.sol\":937:977  return _supportedInterfaces[interfaceId] */\n      swap1\n      pop\n        /* \"contracts/ERC165.sol\":835:985  function supportsInterface(bytes4 interfaceId) public view virtual override returns (bool) {\r... */\n      swap2\n      swap1\n      pop\n      jump\t// out\n        /* \"contracts/ERC721.sol\":7333:7460  function _exists(uint256 tokenId) internal view virtual returns (bool) {\r... */\n    tag_94:\n        /* \"contracts/ERC721.sol\":7398:7402  bool */\n      0x00\n        /* \"contracts/ERC721.sol\":7450:7451  0 */\n      dup1\n        /* \"contracts/ERC721.sol\":7422:7452  _owners[tokenId] != address(0) */\n      0xffffffffffffffffffffffffffffffffffffffff\n      and\n        /* \"contracts/ERC721.sol\":7422:7429  _owners */\n      0x03\n        /* \"contracts/ERC721.sol\":7422:7438  _owners[tokenId] */\n      0x00\n        /* \"contracts/ERC721.sol\":7430:7437  tokenId */\n      dup5\n        /* \"contracts/ERC721.sol\":7422:7438  _owners[tokenId] */\n      dup2\n      mstore\n      0x20\n      add\n      swap1\n      dup2\n      mstore\n      0x20\n      add\n      0x00\n      keccak256\n      0x00\n      swap1\n      sload\n      swap1\n      0x0100\n      exp\n      swap1\n      div\n      0xffffffffffffffffffffffffffffffffffffffff\n      and\n        /* \"contracts/ERC721.sol\":7422:7452  _owners[tokenId] != address(0) */\n      0xffffffffffffffffffffffffffffffffffffffff\n      and\n      eq\n      iszero\n        /* \"contracts/ERC721.sol\":7415:7452  return _owners[tokenId] != address(0) */\n      swap1\n      pop\n        /* \"contracts/ERC721.sol\":7333:7460  function _exists(uint256 tokenId) internal view virtual returns (bool) {\r... */\n      swap2\n      swap1\n      pop\n      jump\t// out\n        /* \"contracts/Context.sol\":656:754  function _msgSender() internal view virtual returns (address) {\r... */\n    tag_104:\n        /* \"contracts/Context.sol\":709:716  address */\n      0x00\n        /* \"contracts/Context.sol\":736:746  msg.sender */\n      caller\n        /* \"contracts/Context.sol\":729:746  return msg.sender */\n      swap1\n      pop\n        /* \"contracts/Context.sol\":656:754  function _msgSender() internal view virtual returns (address) {\r... */\n      swap1\n      jump\t// out\n        /* \"contracts/ERC721.sol\":11477:11651  function _approve(address to, uint256 tokenId) internal virtual {\r... */\n    tag_112:\n        /* \"contracts/ERC721.sol\":11579:11581  to */\n      dup2\n        /* \"contracts/ERC721.sol\":11552:11567  _tokenApprovals */\n      0x05\n        /* \"contracts/ERC721.sol\":11552:11576  _tokenApprovals[tokenId] */\n      0x00\n        /* \"contracts/ERC721.sol\":11568:11575  tokenId */\n      dup4\n        /* \"contracts/ERC721.sol\":11552:11576  _tokenApprovals[tokenId] */\n      dup2\n      mstore\n      0x20\n      add\n      swap1\n      dup2\n      mstore\n      0x20\n      add\n      0x00\n      keccak256\n      0x00\n        /* \"contracts/ERC721.sol\":11552:11581  _tokenApprovals[tokenId] = to */\n      0x0100\n      exp\n      dup2\n      sload\n      dup2\n      0xffffffffffffffffffffffffffffffffffffffff\n      mul\n      not\n      and\n      swap1\n      dup4\n      0xffffffffffffffffffffffffffffffffffffffff\n      and\n      mul\n      or\n      swap1\n      sstore\n      pop\n        /* \"contracts/ERC721.sol\":11635:11642  tokenId */\n      dup1\n        /* \"contracts/ERC721.sol\":11631:11633  to */\n      dup3\n        /* \"contracts/ERC721.sol\":11597:11643  Approval(ERC721.ownerOf(tokenId), to, tokenId) */\n      0xffffffffffffffffffffffffffffffffffffffff\n      and\n        /* \"contracts/ERC721.sol\":11606:11629  ERC721.ownerOf(tokenId) */\n      tag_170\n        /* \"contracts/ERC721.sol\":11621:11628  tokenId */\n      dup4\n        /* \"contracts/ERC721.sol\":11606:11620  ERC721.ownerOf */\n      tag_49\n        /* \"contracts/ERC721.sol\":11606:11629  ERC721.ownerOf(tokenId) */\n      jump\t// in\n    tag_170:\n        /* \"contracts/ERC721.sol\":11597:11643  Approval(ERC721.ownerOf(tokenId), to, tokenId) */\n      0xffffffffffffffffffffffffffffffffffffffff\n      and\n      0x8c5be1e5ebec7d5bd14f71427d1e84f3dd0314c0f7b2291e5b200ac8c7c3b925\n      mload(0x40)\n      mload(0x40)\n      dup1\n      swap2\n      sub\n      swap1\n      log4\n        /* \"contracts/ERC721.sol\":11477:11651  function _approve(address to, uint256 tokenId) internal virtual {\r... */\n      pop\n      pop\n      jump\t// out\n        /* \"contracts/ERC721.sol\":7627:7975  function _isApprovedOrOwner(address spender, uint256 tokenId) internal view virtual returns (bool) {\r... */\n    tag_116:\n        /* \"contracts/ERC721.sol\":7720:7724  bool */\n      0x00\n        /* \"contracts/ERC721.sol\":7745:7761  _exists(tokenId) */\n      tag_172\n        /* \"contracts/ERC721.sol\":7753:7760  tokenId */\n      dup3\n        /* \"contracts/ERC721.sol\":7745:7752  _exists */\n      tag_94\n        /* \"contracts/ERC721.sol\":7745:7761  _exists(tokenId) */\n      jump\t// in\n    tag_172:\n        /* \"contracts/ERC721.sol\":7737:7810  require(_exists(tokenId), \"ERC721: operator query for nonexistent token\") */\n      tag_173\n      jumpi\n      mload(0x40)\n      0x08c379a000000000000000000000000000000000000000000000000000000000\n      dup2\n      mstore\n      0x04\n      add\n      tag_174\n      swap1\n      tag_175\n      jump\t// in\n    tag_174:\n      mload(0x40)\n      dup1\n      swap2\n      sub\n      swap1\n      revert\n    tag_173:\n        /* \"contracts/ERC721.sol\":7821:7834  address owner */\n      0x00\n        /* \"contracts/ERC721.sol\":7837:7860  ERC721.ownerOf(tokenId) */\n      tag_176\n        /* \"contracts/ERC721.sol\":7852:7859  tokenId */\n      dup4\n        /* \"contracts/ERC721.sol\":7837:7851  ERC721.ownerOf */\n      tag_49\n        /* \"contracts/ERC721.sol\":7837:7860  ERC721.ownerOf(tokenId) */\n      jump\t// in\n    tag_176:\n        /* \"contracts/ERC721.sol\":7821:7860  address owner = ERC721.ownerOf(tokenId) */\n      swap1\n      pop\n        /* \"contracts/ERC721.sol\":7890:7895  owner */\n      dup1\n        /* \"contracts/ERC721.sol\":7879:7895  spender == owner */\n      0xffffffffffffffffffffffffffffffffffffffff\n      and\n        /* \"contracts/ERC721.sol\":7879:7886  spender */\n      dup5\n        /* \"contracts/ERC721.sol\":7879:7895  spender == owner */\n      0xffffffffffffffffffffffffffffffffffffffff\n      and\n      eq\n        /* \"contracts/ERC721.sol\":7879:7931  spender == owner || isApprovedForAll(owner, spender) */\n      dup1\n      tag_177\n      jumpi\n      pop\n        /* \"contracts/ERC721.sol\":7899:7931  isApprovedForAll(owner, spender) */\n      tag_178\n        /* \"contracts/ERC721.sol\":7916:7921  owner */\n      dup2\n        /* \"contracts/ERC721.sol\":7923:7930  spender */\n      dup6\n        /* \"contracts/ERC721.sol\":7899:7915  isApprovedForAll */\n      tag_78\n        /* \"contracts/ERC721.sol\":7899:7931  isApprovedForAll(owner, spender) */\n      jump\t// in\n    tag_178:\n        /* \"contracts/ERC721.sol\":7879:7931  spender == owner || isApprovedForAll(owner, spender) */\n    tag_177:\n        /* \"contracts/ERC721.sol\":7879:7966  spender == owner || isApprovedForAll(owner, spender) || getApproved(tokenId) == spender */\n      dup1\n      tag_179\n      jumpi\n      pop\n        /* \"contracts/ERC721.sol\":7959:7966  spender */\n      dup4\n        /* \"contracts/ERC721.sol\":7935:7966  getApproved(tokenId) == spender */\n      0xffffffffffffffffffffffffffffffffffffffff\n      and\n        /* \"contracts/ERC721.sol\":7935:7955  getApproved(tokenId) */\n      tag_180\n        /* \"contracts/ERC721.sol\":7947:7954  tokenId */\n      dup5\n        /* \"contracts/ERC721.sol\":7935:7946  getApproved */\n      tag_33\n        /* \"contracts/ERC721.sol\":7935:7955  getApproved(tokenId) */\n      jump\t// in\n    tag_180:\n        /* \"contracts/ERC721.sol\":7935:7966  getApproved(tokenId) == spender */\n      0xffffffffffffffffffffffffffffffffffffffff\n      and\n      eq\n        /* \"contracts/ERC721.sol\":7879:7966  spender == owner || isApprovedForAll(owner, spender) || getApproved(tokenId) == spender */\n    tag_179:\n        /* \"contracts/ERC721.sol\":7871:7967  return (spender == owner || isApprovedForAll(owner, spender) || getApproved(tokenId) == spender) */\n      swap2\n      pop\n      pop\n        /* \"contracts/ERC721.sol\":7627:7975  function _isApprovedOrOwner(address spender, uint256 tokenId) internal view virtual returns (bool) {\r... */\n      swap3\n      swap2\n      pop\n      pop\n      jump\t// out\n        /* \"contracts/ERC721.sol\":10734:11359  function _transfer(\r... */\n    tag_121:\n        /* \"contracts/ERC721.sol\":10893:10897  from */\n      dup3\n        /* \"contracts/ERC721.sol\":10866:10897  ERC721.ownerOf(tokenId) == from */\n      0xffffffffffffffffffffffffffffffffffffffff\n      and\n        /* \"contracts/ERC721.sol\":10866:10889  ERC721.ownerOf(tokenId) */\n      tag_182\n        /* \"contracts/ERC721.sol\":10881:10888  tokenId */\n      dup3\n        /* \"contracts/ERC721.sol\":10866:10880  ERC721.ownerOf */\n      tag_49\n        /* \"contracts/ERC721.sol\":10866:10889  ERC721.ownerOf(tokenId) */\n      jump\t// in\n    tag_182:\n        /* \"contracts/ERC721.sol\":10866:10897  ERC721.ownerOf(tokenId) == from */\n      0xffffffffffffffffffffffffffffffffffffffff\n      and\n      eq\n        /* \"contracts/ERC721.sol\":10858:10939  require(ERC721.ownerOf(tokenId) == from, \"ERC721: transfer from incorrect owner\") */\n      tag_183\n      jumpi\n      mload(0x40)\n      0x08c379a000000000000000000000000000000000000000000000000000000000\n      dup2\n      mstore\n      0x04\n      add\n      tag_184\n      swap1\n      tag_185\n      jump\t// in\n    tag_184:\n      mload(0x40)\n      dup1\n      swap2\n      sub\n      swap1\n      revert\n    tag_183:\n        /* \"contracts/ERC721.sol\":10972:10973  0 */\n      0x00\n        /* \"contracts/ERC721.sol\":10958:10974  to != address(0) */\n      0xffffffffffffffffffffffffffffffffffffffff\n      and\n        /* \"contracts/ERC721.sol\":10958:10960  to */\n      dup3\n        /* \"contracts/ERC721.sol\":10958:10974  to != address(0) */\n      0xffffffffffffffffffffffffffffffffffffffff\n      and\n      eq\n      iszero\n        /* \"contracts/ERC721.sol\":10950:11015  require(to != address(0), \"ERC721: transfer to the zero address\") */\n      tag_186\n      jumpi\n      mload(0x40)\n      0x08c379a000000000000000000000000000000000000000000000000000000000\n      dup2\n      mstore\n      0x04\n      add\n      tag_187\n      swap1\n      tag_188\n      jump\t// in\n    tag_187:\n      mload(0x40)\n      dup1\n      swap2\n      sub\n      swap1\n      revert\n    tag_186:\n        /* \"contracts/ERC721.sol\":11028:11067  _beforeTokenTransfer(from, to, tokenId) */\n      tag_189\n        /* \"contracts/ERC721.sol\":11049:11053  from */\n      dup4\n        /* \"contracts/ERC721.sol\":11055:11057  to */\n      dup4\n        /* \"contracts/ERC721.sol\":11059:11066  tokenId */\n      dup4\n        /* \"contracts/ERC721.sol\":11028:11048  _beforeTokenTransfer */\n      tag_190\n        /* \"contracts/ERC721.sol\":11028:11067  _beforeTokenTransfer(from, to, tokenId) */\n      jump\t// in\n    tag_189:\n        /* \"contracts/ERC721.sol\":11132:11161  _approve(address(0), tokenId) */\n      tag_191\n        /* \"contracts/ERC721.sol\":11149:11150  0 */\n      0x00\n        /* \"contracts/ERC721.sol\":11153:11160  tokenId */\n      dup3\n        /* \"contracts/ERC721.sol\":11132:11140  _approve */\n      tag_112\n        /* \"contracts/ERC721.sol\":11132:11161  _approve(address(0), tokenId) */\n      jump\t// in\n    tag_191:\n        /* \"contracts/ERC721.sol\":11193:11194  1 */\n      0x01\n        /* \"contracts/ERC721.sol\":11174:11183  _balances */\n      0x04\n        /* \"contracts/ERC721.sol\":11174:11189  _balances[from] */\n      0x00\n        /* \"contracts/ERC721.sol\":11184:11188  from */\n      dup6\n        /* \"contracts/ERC721.sol\":11174:11189  _balances[from] */\n      0xffffffffffffffffffffffffffffffffffffffff\n      and\n      0xffffffffffffffffffffffffffffffffffffffff\n      and\n      dup2\n      mstore\n      0x20\n      add\n      swap1\n      dup2\n      mstore\n      0x20\n      add\n      0x00\n      keccak256\n      0x00\n        /* \"contracts/ERC721.sol\":11174:11194  _balances[from] -= 1 */\n      dup3\n      dup3\n      sload\n      tag_192\n      swap2\n      swap1\n      tag_193\n      jump\t// in\n    tag_192:\n      swap3\n      pop\n      pop\n      dup2\n      swap1\n      sstore\n      pop\n        /* \"contracts/ERC721.sol\":11222:11223  1 */\n      0x01\n        /* \"contracts/ERC721.sol\":11205:11214  _balances */\n      0x04\n        /* \"contracts/ERC721.sol\":11205:11218  _balances[to] */\n      0x00\n        /* \"contracts/ERC721.sol\":11215:11217  to */\n      dup5\n        /* \"contracts/ERC721.sol\":11205:11218  _balances[to] */\n      0xffffffffffffffffffffffffffffffffffffffff\n      and\n      0xffffffffffffffffffffffffffffffffffffffff\n      and\n      dup2\n      mstore\n      0x20\n      add\n      swap1\n      dup2\n      mstore\n      0x20\n      add\n      0x00\n      keccak256\n      0x00\n        /* \"contracts/ERC721.sol\":11205:11223  _balances[to] += 1 */\n      dup3\n      dup3\n      sload\n      tag_194\n      swap2\n      swap1\n      tag_195\n      jump\t// in\n    tag_194:\n      swap3\n      pop\n      pop\n      dup2\n      swap1\n      sstore\n      pop\n        /* \"contracts/ERC721.sol\":11253:11255  to */\n      dup2\n        /* \"contracts/ERC721.sol\":11234:11241  _owners */\n      0x03\n        /* \"contracts/ERC721.sol\":11234:11250  _owners[tokenId] */\n      0x00\n        /* \"contracts/ERC721.sol\":11242:11249  tokenId */\n      dup4\n        /* \"contracts/ERC721.sol\":11234:11250  _owners[tokenId] */\n      dup2\n      mstore\n      0x20\n      add\n      swap1\n      dup2\n      mstore\n      0x20\n      add\n      0x00\n      keccak256\n      0x00\n        /* \"contracts/ERC721.sol\":11234:11255  _owners[tokenId] = to */\n      0x0100\n      exp\n      dup2\n      sload\n      dup2\n      0xffffffffffffffffffffffffffffffffffffffff\n      mul\n      not\n      and\n      swap1\n      dup4\n      0xffffffffffffffffffffffffffffffffffffffff\n      and\n      mul\n      or\n      swap1\n      sstore\n      pop\n        /* \"contracts/ERC721.sol\":11292:11299  tokenId */\n      dup1\n        /* \"contracts/ERC721.sol\":11288:11290  to */\n      dup3\n        /* \"contracts/ERC721.sol\":11273:11300  Transfer(from, to, tokenId) */\n      0xffffffffffffffffffffffffffffffffffffffff\n      and\n        /* \"contracts/ERC721.sol\":11282:11286  from */\n      dup5\n        /* \"contracts/ERC721.sol\":11273:11300  Transfer(from, to, tokenId) */\n      0xffffffffffffffffffffffffffffffffffffffff\n      and\n      0xddf252ad1be2c89b69c2b068fc378daa952ba7f163c4a11628f55a4df523b3ef\n      mload(0x40)\n      mload(0x40)\n      dup1\n      swap2\n      sub\n      swap1\n      log4\n        /* \"contracts/ERC721.sol\":11313:11351  _afterTokenTransfer(from, to, tokenId) */\n      tag_196\n        /* \"contracts/ERC721.sol\":11333:11337  from */\n      dup4\n        /* \"contracts/ERC721.sol\":11339:11341  to */\n      dup4\n        /* \"contracts/ERC721.sol\":11343:11350  tokenId */\n      dup4\n        /* \"contracts/ERC721.sol\":11313:11332  _afterTokenTransfer */\n      tag_197\n        /* \"contracts/ERC721.sol\":11313:11351  _afterTokenTransfer(from, to, tokenId) */\n      jump\t// in\n    tag_196:\n        /* \"contracts/ERC721.sol\":10734:11359  function _transfer(\r... */\n      pop\n      pop\n      pop\n      jump\t// out\n        /* \"contracts/ERC721.sol\":11793:12108  function _setApprovalForAll(\r... */\n    tag_141:\n        /* \"contracts/ERC721.sol\":11948:11956  operator */\n      dup2\n        /* \"contracts/ERC721.sol\":11939:11956  owner != operator */\n      0xffffffffffffffffffffffffffffffffffffffff\n      and\n        /* \"contracts/ERC721.sol\":11939:11944  owner */\n      dup4\n        /* \"contracts/ERC721.sol\":11939:11956  owner != operator */\n      0xffffffffffffffffffffffffffffffffffffffff\n      and\n      eq\n      iszero\n        /* \"contracts/ERC721.sol\":11931:11986  require(owner != operator, \"ERC721: approve to caller\") */\n      tag_199\n      jumpi\n      mload(0x40)\n      0x08c379a000000000000000000000000000000000000000000000000000000000\n      dup2\n      mstore\n      0x04\n      add\n      tag_200\n      swap1\n      tag_201\n      jump\t// in\n    tag_200:\n      mload(0x40)\n      dup1\n      swap2\n      sub\n      swap1\n      revert\n    tag_199:\n        /* \"contracts/ERC721.sol\":12035:12043  approved */\n      dup1\n        /* \"contracts/ERC721.sol\":11997:12015  _operatorApprovals */\n      0x06\n        /* \"contracts/ERC721.sol\":11997:12022  _operatorApprovals[owner] */\n      0x00\n        /* \"contracts/ERC721.sol\":12016:12021  owner */\n      dup6\n        /* \"contracts/ERC721.sol\":11997:12022  _operatorApprovals[owner] */\n      0xffffffffffffffffffffffffffffffffffffffff\n      and\n      0xffffffffffffffffffffffffffffffffffffffff\n      and\n      dup2\n      mstore\n      0x20\n      add\n      swap1\n      dup2\n      mstore\n      0x20\n      add\n      0x00\n      keccak256\n        /* \"contracts/ERC721.sol\":11997:12032  _operatorApprovals[owner][operator] */\n      0x00\n        /* \"contracts/ERC721.sol\":12023:12031  operator */\n      dup5\n        /* \"contracts/ERC721.sol\":11997:12032  _operatorApprovals[owner][operator] */\n      0xffffffffffffffffffffffffffffffffffffffff\n      and\n      0xffffffffffffffffffffffffffffffffffffffff\n      and\n      dup2\n      mstore\n      0x20\n      add\n      swap1\n      dup2\n      mstore\n      0x20\n      add\n      0x00\n      keccak256\n      0x00\n        /* \"contracts/ERC721.sol\":11997:12043  _operatorApprovals[owner][operator] = approved */\n      0x0100\n      exp\n      dup2\n      sload\n      dup2\n      0xff\n      mul\n      not\n      and\n      swap1\n      dup4\n      iszero\n      iszero\n      mul\n      or\n      swap1\n      sstore\n      pop\n        /* \"contracts/ERC721.sol\":12081:12089  operator */\n      dup2\n        /* \"contracts/ERC721.sol\":12059:12100  ApprovalForAll(owner, operator, approved) */\n      0xffffffffffffffffffffffffffffffffffffffff\n      and\n        /* \"contracts/ERC721.sol\":12074:12079  owner */\n      dup4\n        /* \"contracts/ERC721.sol\":12059:12100  ApprovalForAll(owner, operator, approved) */\n      0xffffffffffffffffffffffffffffffffffffffff\n      and\n      0x17307eab39ab6107e8899845ad3d59bd9653f200f220920489ca2b5937696c31\n        /* \"contracts/ERC721.sol\":12091:12099  approved */\n      dup4\n        /* \"contracts/ERC721.sol\":12059:12100  ApprovalForAll(owner, operator, approved) */\n      mload(0x40)\n      tag_202\n      swap2\n      swap1\n      tag_25\n      jump\t// in\n    tag_202:\n      mload(0x40)\n      dup1\n      swap2\n      sub\n      swap1\n      log3\n        /* \"contracts/ERC721.sol\":11793:12108  function _setApprovalForAll(\r... */\n      pop\n      pop\n      pop\n      jump\t// out\n        /* \"contracts/ERC721.sol\":8652:8973  function _safeMint(\r... */\n    tag_144:\n        /* \"contracts/ERC721.sol\":8782:8800  _mint(to, tokenId) */\n      tag_204\n        /* \"contracts/ERC721.sol\":8788:8790  to */\n      dup4\n        /* \"contracts/ERC721.sol\":8792:8799  tokenId */\n      dup4\n        /* \"contracts/ERC721.sol\":8782:8787  _mint */\n      tag_205\n        /* \"contracts/ERC721.sol\":8782:8800  _mint(to, tokenId) */\n      jump\t// in\n    tag_204:\n        /* \"contracts/ERC721.sol\":8833:8887  _checkOnERC721Received(address(0), to, tokenId, _data) */\n      tag_206\n        /* \"contracts/ERC721.sol\":8864:8865  0 */\n      0x00\n        /* \"contracts/ERC721.sol\":8868:8870  to */\n      dup5\n        /* \"contracts/ERC721.sol\":8872:8879  tokenId */\n      dup5\n        /* \"contracts/ERC721.sol\":8881:8886  _data */\n      dup5\n        /* \"contracts/ERC721.sol\":8833:8855  _checkOnERC721Received */\n      tag_207\n        /* \"contracts/ERC721.sol\":8833:8887  _checkOnERC721Received(address(0), to, tokenId, _data) */\n      jump\t// in\n    tag_206:\n        /* \"contracts/ERC721.sol\":8811:8965  require(\r... */\n      tag_208\n      jumpi\n      mload(0x40)\n      0x08c379a000000000000000000000000000000000000000000000000000000000\n      dup2\n      mstore\n      0x04\n      add\n      tag_209\n      swap1\n      tag_210\n      jump\t// in\n    tag_209:\n      mload(0x40)\n      dup1\n      swap2\n      sub\n      swap1\n      revert\n    tag_208:\n        /* \"contracts/ERC721.sol\":8652:8973  function _safeMint(\r... */\n      pop\n      pop\n      pop\n      jump\t// out\n        /* \"contracts/ERC721.sol\":6705:7020  function _safeTransfer(\r... */\n    tag_151:\n        /* \"contracts/ERC721.sol\":6862:6890  _transfer(from, to, tokenId) */\n      tag_212\n        /* \"contracts/ERC721.sol\":6872:6876  from */\n      dup5\n        /* \"contracts/ERC721.sol\":6878:6880  to */\n      dup5\n        /* \"contracts/ERC721.sol\":6882:6889  tokenId */\n      dup5\n        /* \"contracts/ERC721.sol\":6862:6871  _transfer */\n      tag_121\n        /* \"contracts/ERC721.sol\":6862:6890  _transfer(from, to, tokenId) */\n      jump\t// in\n    tag_212:\n        /* \"contracts/ERC721.sol\":6909:6957  _checkOnERC721Received(from, to, tokenId, _data) */\n      tag_213\n        /* \"contracts/ERC721.sol\":6932:6936  from */\n      dup5\n        /* \"contracts/ERC721.sol\":6938:6940  to */\n      dup5\n        /* \"contracts/ERC721.sol\":6942:6949  tokenId */\n      dup5\n        /* \"contracts/ERC721.sol\":6951:6956  _data */\n      dup5\n        /* \"contracts/ERC721.sol\":6909:6931  _checkOnERC721Received */\n      tag_207\n        /* \"contracts/ERC721.sol\":6909:6957  _checkOnERC721Received(from, to, tokenId, _data) */\n      jump\t// in\n    tag_213:\n        /* \"contracts/ERC721.sol\":6901:7012  require(_checkOnERC721Received(from, to, tokenId, _data), \"ERC721: transfer to non ERC721Receiver implementer\") */\n      tag_214\n      jumpi\n      mload(0x40)\n      0x08c379a000000000000000000000000000000000000000000000000000000000\n      dup2\n      mstore\n      0x04\n      add\n      tag_215\n      swap1\n      tag_210\n      jump\t// in\n    tag_215:\n      mload(0x40)\n      dup1\n      swap2\n      sub\n      swap1\n      revert\n    tag_214:\n        /* \"contracts/ERC721.sol\":6705:7020  function _safeTransfer(\r... */\n      pop\n      pop\n      pop\n      pop\n      jump\t// out\n        /* \"contracts/ERC721.sol\":3428:3540  function _baseURI() internal view virtual returns (string memory) {\r... */\n    tag_158:\n        /* \"contracts/ERC721.sol\":3479:3492  string memory */\n      0x60\n        /* \"contracts/ERC721.sol\":3505:3532  return \"Binance Smart Data\" */\n      mload(0x40)\n      dup1\n      0x40\n      add\n      0x40\n      mstore\n      dup1\n      0x12\n      dup2\n      mstore\n      0x20\n      add\n      0x42696e616e636520536d61727420446174610000000000000000000000000000\n      dup2\n      mstore\n      pop\n      swap1\n      pop\n        /* \"contracts/ERC721.sol\":3428:3540  function _baseURI() internal view virtual returns (string memory) {\r... */\n      swap1\n      jump\t// out\n        /* \"contracts/Strings.sol\":342:1065  function toString(uint256 value) internal pure returns (string memory) {\r... */\n    tag_162:\n        /* \"contracts/Strings.sol\":398:411  string memory */\n      0x60\n        /* \"contracts/Strings.sol\":628:629  0 */\n      0x00\n        /* \"contracts/Strings.sol\":619:624  value */\n      dup3\n        /* \"contracts/Strings.sol\":619:629  value == 0 */\n      eq\n        /* \"contracts/Strings.sol\":615:668  if (value == 0) {\r... */\n      iszero\n      tag_218\n      jumpi\n        /* \"contracts/Strings.sol\":646:656  return \"0\" */\n      mload(0x40)\n      dup1\n      0x40\n      add\n      0x40\n      mstore\n      dup1\n      0x01\n      dup2\n      mstore\n      0x20\n      add\n      0x3000000000000000000000000000000000000000000000000000000000000000\n      dup2\n      mstore\n      pop\n      swap1\n      pop\n      jump(tag_217)\n        /* \"contracts/Strings.sol\":615:668  if (value == 0) {\r... */\n    tag_218:\n        /* \"contracts/Strings.sol\":678:690  uint256 temp */\n      0x00\n        /* \"contracts/Strings.sol\":693:698  value */\n      dup3\n        /* \"contracts/Strings.sol\":678:698  uint256 temp = value */\n      swap1\n      pop\n        /* \"contracts/Strings.sol\":709:723  uint256 digits */\n      0x00\n        /* \"contracts/Strings.sol\":734:812  while (temp != 0) {\r... */\n    tag_219:\n        /* \"contracts/Strings.sol\":749:750  0 */\n      0x00\n        /* \"contracts/Strings.sol\":741:745  temp */\n      dup3\n        /* \"contracts/Strings.sol\":741:750  temp != 0 */\n      eq\n        /* \"contracts/Strings.sol\":734:812  while (temp != 0) {\r... */\n      tag_220\n      jumpi\n        /* \"contracts/Strings.sol\":767:775  digits++ */\n      dup1\n      dup1\n      tag_221\n      swap1\n      tag_222\n      jump\t// in\n    tag_221:\n      swap2\n      pop\n      pop\n        /* \"contracts/Strings.sol\":798:800  10 */\n      0x0a\n        /* \"contracts/Strings.sol\":790:800  temp /= 10 */\n      dup3\n      tag_223\n      swap2\n      swap1\n      tag_224\n      jump\t// in\n    tag_223:\n      swap2\n      pop\n        /* \"contracts/Strings.sol\":734:812  while (temp != 0) {\r... */\n      jump(tag_219)\n    tag_220:\n        /* \"contracts/Strings.sol\":822:841  bytes memory buffer */\n      0x00\n        /* \"contracts/Strings.sol\":854:860  digits */\n      dup2\n        /* \"contracts/Strings.sol\":844:861  new bytes(digits) */\n      0xffffffffffffffff\n      dup2\n      gt\n      iszero\n      tag_225\n      jumpi\n      tag_226\n      tag_227\n      jump\t// in\n    tag_226:\n    tag_225:\n      mload(0x40)\n      swap1\n      dup1\n      dup3\n      mstore\n      dup1\n      0x1f\n      add\n      not(0x1f)\n      and\n      0x20\n      add\n      dup3\n      add\n      0x40\n      mstore\n      dup1\n      iszero\n      tag_228\n      jumpi\n      dup2\n      0x20\n      add\n      0x01\n      dup3\n      mul\n      dup1\n      calldatasize\n      dup4\n      calldatacopy\n      dup1\n      dup3\n      add\n      swap2\n      pop\n      pop\n      swap1\n      pop\n    tag_228:\n      pop\n        /* \"contracts/Strings.sol\":822:861  bytes memory buffer = new bytes(digits) */\n      swap1\n      pop\n        /* \"contracts/Strings.sol\":872:1026  while (value != 0) {\r... */\n    tag_229:\n        /* \"contracts/Strings.sol\":888:889  0 */\n      0x00\n        /* \"contracts/Strings.sol\":879:884  value */\n      dup6\n        /* \"contracts/Strings.sol\":879:889  value != 0 */\n      eq\n        /* \"contracts/Strings.sol\":872:1026  while (value != 0) {\r... */\n      tag_230\n      jumpi\n        /* \"contracts/Strings.sol\":916:917  1 */\n      0x01\n        /* \"contracts/Strings.sol\":906:917  digits -= 1 */\n      dup3\n      tag_231\n      swap2\n      swap1\n      tag_193\n      jump\t// in\n    tag_231:\n      swap2\n      pop\n        /* \"contracts/Strings.sol\":983:985  10 */\n      0x0a\n        /* \"contracts/Strings.sol\":975:980  value */\n      dup6\n        /* \"contracts/Strings.sol\":975:985  value % 10 */\n      tag_232\n      swap2\n      swap1\n      tag_233\n      jump\t// in\n    tag_232:\n        /* \"contracts/Strings.sol\":962:964  48 */\n      0x30\n        /* \"contracts/Strings.sol\":962:986  48 + uint256(value % 10) */\n      tag_234\n      swap2\n      swap1\n      tag_195\n      jump\t// in\n    tag_234:\n        /* \"contracts/Strings.sol\":949:988  bytes1(uint8(48 + uint256(value % 10))) */\n      0xf8\n      shl\n        /* \"contracts/Strings.sol\":932:938  buffer */\n      dup2\n        /* \"contracts/Strings.sol\":939:945  digits */\n      dup4\n        /* \"contracts/Strings.sol\":932:946  buffer[digits] */\n      dup2\n      mload\n      dup2\n      lt\n      tag_235\n      jumpi\n      tag_236\n      tag_237\n      jump\t// in\n    tag_236:\n    tag_235:\n      0x20\n      add\n      add\n        /* \"contracts/Strings.sol\":932:988  buffer[digits] = bytes1(uint8(48 + uint256(value % 10))) */\n      swap1\n      not(0xffffffffffffffffffffffffffffffffffffffffffffffffffffffffffffff)\n      and\n      swap1\n      dup2\n      0x00\n      byte\n      swap1\n      mstore8\n      pop\n        /* \"contracts/Strings.sol\":1012:1014  10 */\n      0x0a\n        /* \"contracts/Strings.sol\":1003:1014  value /= 10 */\n      dup6\n      tag_238\n      swap2\n      swap1\n      tag_224\n      jump\t// in\n    tag_238:\n      swap5\n      pop\n        /* \"contracts/Strings.sol\":872:1026  while (value != 0) {\r... */\n      jump(tag_229)\n    tag_230:\n        /* \"contracts/Strings.sol\":1050:1056  buffer */\n      dup1\n        /* \"contracts/Strings.sol\":1036:1057  return string(buffer) */\n      swap4\n      pop\n      pop\n      pop\n      pop\n        /* \"contracts/Strings.sol\":342:1065  function toString(uint256 value) internal pure returns (string memory) {\r... */\n    tag_217:\n      swap2\n      swap1\n      pop\n      jump\t// out\n        /* \"contracts/ERC721.sol\":14044:14170  function _beforeTokenTransfer(\r... */\n    tag_190:\n      pop\n      pop\n      pop\n      jump\t// out\n        /* \"contracts/ERC721.sol\":14555:14680  function _afterTokenTransfer(\r... */\n    tag_197:\n      pop\n      pop\n      pop\n      jump\t// out\n        /* \"contracts/ERC721.sol\":9309:9748  function _mint(address to, uint256 tokenId) internal virtual {\r... */\n    tag_205:\n        /* \"contracts/ERC721.sol\":9403:9404  0 */\n      0x00\n        /* \"contracts/ERC721.sol\":9389:9405  to != address(0) */\n      0xffffffffffffffffffffffffffffffffffffffff\n      and\n        /* \"contracts/ERC721.sol\":9389:9391  to */\n      dup3\n        /* \"contracts/ERC721.sol\":9389:9405  to != address(0) */\n      0xffffffffffffffffffffffffffffffffffffffff\n      and\n      eq\n      iszero\n        /* \"contracts/ERC721.sol\":9381:9442  require(to != address(0), \"ERC721: mint to the zero address\") */\n      tag_242\n      jumpi\n      mload(0x40)\n      0x08c379a000000000000000000000000000000000000000000000000000000000\n      dup2\n      mstore\n      0x04\n      add\n      tag_243\n      swap1\n      tag_244\n      jump\t// in\n    tag_243:\n      mload(0x40)\n      dup1\n      swap2\n      sub\n      swap1\n      revert\n    tag_242:\n        /* \"contracts/ERC721.sol\":9462:9478  _exists(tokenId) */\n      tag_245\n        /* \"contracts/ERC721.sol\":9470:9477  tokenId */\n      dup2\n        /* \"contracts/ERC721.sol\":9462:9469  _exists */\n      tag_94\n        /* \"contracts/ERC721.sol\":9462:9478  _exists(tokenId) */\n      jump\t// in\n    tag_245:\n        /* \"contracts/ERC721.sol\":9461:9478  !_exists(tokenId) */\n      iszero\n        /* \"contracts/ERC721.sol\":9453:9511  require(!_exists(tokenId), \"ERC721: token already minted\") */\n      tag_246\n      jumpi\n      mload(0x40)\n      0x08c379a000000000000000000000000000000000000000000000000000000000\n      dup2\n      mstore\n      0x04\n      add\n      tag_247\n      swap1\n      tag_248\n      jump\t// in\n    tag_247:\n      mload(0x40)\n      dup1\n      swap2\n      sub\n      swap1\n      revert\n    tag_246:\n        /* \"contracts/ERC721.sol\":9524:9569  _beforeTokenTransfer(address(0), to, tokenId) */\n      tag_249\n        /* \"contracts/ERC721.sol\":9553:9554  0 */\n      0x00\n        /* \"contracts/ERC721.sol\":9557:9559  to */\n      dup4\n        /* \"contracts/ERC721.sol\":9561:9568  tokenId */\n      dup4\n        /* \"contracts/ERC721.sol\":9524:9544  _beforeTokenTransfer */\n      tag_190\n        /* \"contracts/ERC721.sol\":9524:9569  _beforeTokenTransfer(address(0), to, tokenId) */\n      jump\t// in\n    tag_249:\n        /* \"contracts/ERC721.sol\":9599:9600  1 */\n      0x01\n        /* \"contracts/ERC721.sol\":9582:9591  _balances */\n      0x04\n        /* \"contracts/ERC721.sol\":9582:9595  _balances[to] */\n      0x00\n        /* \"contracts/ERC721.sol\":9592:9594  to */\n      dup5\n        /* \"contracts/ERC721.sol\":9582:9595  _balances[to] */\n      0xffffffffffffffffffffffffffffffffffffffff\n      and\n      0xffffffffffffffffffffffffffffffffffffffff\n      and\n      dup2\n      mstore\n      0x20\n      add\n      swap1\n      dup2\n      mstore\n      0x20\n      add\n      0x00\n      keccak256\n      0x00\n        /* \"contracts/ERC721.sol\":9582:9600  _balances[to] += 1 */\n      dup3\n      dup3\n      sload\n      tag_250\n      swap2\n      swap1\n      tag_195\n      jump\t// in\n    tag_250:\n      swap3\n      pop\n      pop\n      dup2\n      swap1\n      sstore\n      pop\n        /* \"contracts/ERC721.sol\":9630:9632  to */\n      dup2\n        /* \"contracts/ERC721.sol\":9611:9618  _owners */\n      0x03\n        /* \"contracts/ERC721.sol\":9611:9627  _owners[tokenId] */\n      0x00\n        /* \"contracts/ERC721.sol\":9619:9626  tokenId */\n      dup4\n        /* \"contracts/ERC721.sol\":9611:9627  _owners[tokenId] */\n      dup2\n      mstore\n      0x20\n      add\n      swap1\n      dup2\n      mstore\n      0x20\n      add\n      0x00\n      keccak256\n      0x00\n        /* \"contracts/ERC721.sol\":9611:9632  _owners[tokenId] = to */\n      0x0100\n      exp\n      dup2\n      sload\n      dup2\n      0xffffffffffffffffffffffffffffffffffffffff\n      mul\n      not\n      and\n      swap1\n      dup4\n      0xffffffffffffffffffffffffffffffffffffffff\n      and\n      mul\n      or\n      swap1\n      sstore\n      pop\n        /* \"contracts/ERC721.sol\":9675:9682  tokenId */\n      dup1\n        /* \"contracts/ERC721.sol\":9671:9673  to */\n      dup3\n        /* \"contracts/ERC721.sol\":9650:9683  Transfer(address(0), to, tokenId) */\n      0xffffffffffffffffffffffffffffffffffffffff\n      and\n        /* \"contracts/ERC721.sol\":9667:9668  0 */\n      0x00\n        /* \"contracts/ERC721.sol\":9650:9683  Transfer(address(0), to, tokenId) */\n      0xffffffffffffffffffffffffffffffffffffffff\n      and\n      0xddf252ad1be2c89b69c2b068fc378daa952ba7f163c4a11628f55a4df523b3ef\n      mload(0x40)\n      mload(0x40)\n      dup1\n      swap2\n      sub\n      swap1\n      log4\n        /* \"contracts/ERC721.sol\":9696:9740  _afterTokenTransfer(address(0), to, tokenId) */\n      tag_251\n        /* \"contracts/ERC721.sol\":9724:9725  0 */\n      0x00\n        /* \"contracts/ERC721.sol\":9728:9730  to */\n      dup4\n        /* \"contracts/ERC721.sol\":9732:9739  tokenId */\n      dup4\n        /* \"contracts/ERC721.sol\":9696:9715  _afterTokenTransfer */\n      tag_197\n        /* \"contracts/ERC721.sol\":9696:9740  _afterTokenTransfer(address(0), to, tokenId) */\n      jump\t// in\n    tag_251:\n        /* \"contracts/ERC721.sol\":9309:9748  function _mint(address to, uint256 tokenId) internal virtual {\r... */\n      pop\n      pop\n      jump\t// out\n        /* \"contracts/ERC721.sol\":12673:13472  function _checkOnERC721Received(\r... */\n    tag_207:\n        /* \"contracts/ERC721.sol\":12828:12832  bool */\n      0x00\n        /* \"contracts/ERC721.sol\":12849:12864  to.isContract() */\n      tag_253\n        /* \"contracts/ERC721.sol\":12849:12851  to */\n      dup5\n        /* \"contracts/ERC721.sol\":12849:12862  to.isContract */\n      0xffffffffffffffffffffffffffffffffffffffff\n      and\n      tag_254\n        /* \"contracts/ERC721.sol\":12849:12864  to.isContract() */\n      jump\t// in\n    tag_253:\n        /* \"contracts/ERC721.sol\":12845:13465  if (to.isContract()) {\r... */\n      iszero\n      tag_255\n      jumpi\n        /* \"contracts/ERC721.sol\":12901:12903  to */\n      dup4\n        /* \"contracts/ERC721.sol\":12885:12921  IERC721Receiver(to).onERC721Received */\n      0xffffffffffffffffffffffffffffffffffffffff\n      and\n      0x150b7a02\n        /* \"contracts/ERC721.sol\":12922:12934  _msgSender() */\n      tag_256\n        /* \"contracts/ERC721.sol\":12922:12932  _msgSender */\n      tag_104\n        /* \"contracts/ERC721.sol\":12922:12934  _msgSender() */\n      jump\t// in\n    tag_256:\n        /* \"contracts/ERC721.sol\":12936:12940  from */\n      dup8\n        /* \"contracts/ERC721.sol\":12942:12949  tokenId */\n      dup7\n        /* \"contracts/ERC721.sol\":12951:12956  _data */\n      dup7\n        /* \"contracts/ERC721.sol\":12885:12957  IERC721Receiver(to).onERC721Received(_msgSender(), from, tokenId, _data) */\n      mload(0x40)\n      dup6\n      0xffffffff\n      and\n      0xe0\n      shl\n      dup2\n      mstore\n      0x04\n      add\n      tag_257\n      swap5\n      swap4\n      swap3\n      swap2\n      swap1\n      tag_258\n      jump\t// in\n    tag_257:\n      0x20\n      mload(0x40)\n      dup1\n      dup4\n      sub\n      dup2\n      0x00\n      dup8\n      dup1\n      extcodesize\n      iszero\n      dup1\n      iszero\n      tag_259\n      jumpi\n      0x00\n      dup1\n      revert\n    tag_259:\n      pop\n      gas\n      call\n      swap3\n      pop\n      pop\n      pop\n      dup1\n      iszero\n      tag_260\n      jumpi\n      pop\n      mload(0x40)\n      returndatasize\n      not(0x1f)\n      0x1f\n      dup3\n      add\n      and\n      dup3\n      add\n      dup1\n      0x40\n      mstore\n      pop\n      dup2\n      add\n      swap1\n      tag_261\n      swap2\n      swap1\n      tag_262\n      jump\t// in\n    tag_261:\n      0x01\n    tag_260:\n        /* \"contracts/ERC721.sol\":12881:13410  try IERC721Receiver(to).onERC721Received(_msgSender(), from, tokenId, _data) returns (bytes4 retval) {\r... */\n      tag_263\n      jumpi\n      returndatasize\n      dup1\n      0x00\n      dup2\n      eq\n      tag_268\n      jumpi\n      mload(0x40)\n      swap2\n      pop\n      and(add(returndatasize, 0x3f), not(0x1f))\n      dup3\n      add\n      0x40\n      mstore\n      returndatasize\n      dup3\n      mstore\n      returndatasize\n      0x00\n      0x20\n      dup5\n      add\n      returndatacopy\n      jump(tag_267)\n    tag_268:\n      0x60\n      swap2\n      pop\n    tag_267:\n      pop\n        /* \"contracts/ERC721.sol\":13144:13145  0 */\n      0x00\n        /* \"contracts/ERC721.sol\":13127:13133  reason */\n      dup2\n        /* \"contracts/ERC721.sol\":13127:13140  reason.length */\n      mload\n        /* \"contracts/ERC721.sol\":13127:13145  reason.length == 0 */\n      eq\n        /* \"contracts/ERC721.sol\":13123:13395  if (reason.length == 0) {\r... */\n      iszero\n      tag_269\n      jumpi\n        /* \"contracts/ERC721.sol\":13170:13230  revert(\"ERC721: transfer to non ERC721Receiver implementer\") */\n      mload(0x40)\n      0x08c379a000000000000000000000000000000000000000000000000000000000\n      dup2\n      mstore\n      0x04\n      add\n      tag_270\n      swap1\n      tag_210\n      jump\t// in\n    tag_270:\n      mload(0x40)\n      dup1\n      swap2\n      sub\n      swap1\n      revert\n        /* \"contracts/ERC721.sol\":13123:13395  if (reason.length == 0) {\r... */\n    tag_269:\n        /* \"contracts/ERC721.sol\":13345:13351  reason */\n      dup1\n        /* \"contracts/ERC721.sol\":13339:13352  mload(reason) */\n      mload\n        /* \"contracts/ERC721.sol\":13330:13336  reason */\n      dup2\n        /* \"contracts/ERC721.sol\":13326:13328  32 */\n      0x20\n        /* \"contracts/ERC721.sol\":13322:13337  add(32, reason) */\n      add\n        /* \"contracts/ERC721.sol\":13315:13353  revert(add(32, reason), mload(reason)) */\n      revert\n        /* \"contracts/ERC721.sol\":12881:13410  try IERC721Receiver(to).onERC721Received(_msgSender(), from, tokenId, _data) returns (bytes4 retval) {\r... */\n    tag_263:\n        /* \"contracts/ERC721.sol\":13018:13059  IERC721Receiver.onERC721Received.selector */\n      shl(0xe0, 0x150b7a02)\n        /* \"contracts/ERC721.sol\":13008:13059  retval == IERC721Receiver.onERC721Received.selector */\n      not(0xffffffffffffffffffffffffffffffffffffffffffffffffffffffff)\n      and\n        /* \"contracts/ERC721.sol\":13008:13014  retval */\n      dup2\n        /* \"contracts/ERC721.sol\":13008:13059  retval == IERC721Receiver.onERC721Received.selector */\n      not(0xffffffffffffffffffffffffffffffffffffffffffffffffffffffff)\n      and\n      eq\n        /* \"contracts/ERC721.sol\":13001:13059  return retval == IERC721Receiver.onERC721Received.selector */\n      swap2\n      pop\n      pop\n      jump(tag_252)\n        /* \"contracts/ERC721.sol\":12845:13465  if (to.isContract()) {\r... */\n    tag_255:\n        /* \"contracts/ERC721.sol\":13449:13453  true */\n      0x01\n        /* \"contracts/ERC721.sol\":13442:13453  return true */\n      swap1\n      pop\n        /* \"contracts/ERC721.sol\":12673:13472  function _checkOnERC721Received(\r... */\n    tag_252:\n      swap5\n      swap4\n      pop\n      pop\n      pop\n      pop\n      jump\t// out\n        /* \"contracts/Address.sol\":1210:1536  function isContract(address account) internal view returns (bool) {\r... */\n    tag_254:\n        /* \"contracts/Address.sol\":1270:1274  bool */\n      0x00\n        /* \"contracts/Address.sol\":1527:1528  0 */\n      dup1\n        /* \"contracts/Address.sol\":1505:1512  account */\n      dup3\n        /* \"contracts/Address.sol\":1505:1524  account.code.length */\n      0xffffffffffffffffffffffffffffffffffffffff\n      and\n      extcodesize\n        /* \"contracts/Address.sol\":1505:1528  account.code.length > 0 */\n      gt\n        /* \"contracts/Address.sol\":1498:1528  return account.code.length > 0 */\n      swap1\n      pop\n        /* \"contracts/Address.sol\":1210:1536  function isContract(address account) internal view returns (bool) {\r... */\n      swap2\n      swap1\n      pop\n      jump\t// out\n        /* \"#utility.yul\":7:417   */\n    tag_276:\n        /* \"#utility.yul\":84:89   */\n      0x00\n        /* \"#utility.yul\":109:174   */\n      tag_278\n        /* \"#utility.yul\":125:173   */\n      tag_279\n        /* \"#utility.yul\":166:172   */\n      dup5\n        /* \"#utility.yul\":125:173   */\n      tag_280\n      jump\t// in\n    tag_279:\n        /* \"#utility.yul\":109:174   */\n      tag_281\n      jump\t// in\n    tag_278:\n        /* \"#utility.yul\":100:174   */\n      swap1\n      pop\n        /* \"#utility.yul\":197:203   */\n      dup3\n        /* \"#utility.yul\":190:195   */\n      dup2\n        /* \"#utility.yul\":183:204   */\n      mstore\n        /* \"#utility.yul\":235:239   */\n      0x20\n        /* \"#utility.yul\":228:233   */\n      dup2\n        /* \"#utility.yul\":224:240   */\n      add\n        /* \"#utility.yul\":273:276   */\n      dup5\n        /* \"#utility.yul\":264:270   */\n      dup5\n        /* \"#utility.yul\":259:262   */\n      dup5\n        /* \"#utility.yul\":255:271   */\n      add\n        /* \"#utility.yul\":252:277   */\n      gt\n        /* \"#utility.yul\":249:361   */\n      iszero\n      tag_282\n      jumpi\n        /* \"#utility.yul\":280:359   */\n      tag_283\n      tag_284\n      jump\t// in\n    tag_283:\n        /* \"#utility.yul\":249:361   */\n    tag_282:\n        /* \"#utility.yul\":370:411   */\n      tag_285\n        /* \"#utility.yul\":404:410   */\n      dup5\n        /* \"#utility.yul\":399:402   */\n      dup3\n        /* \"#utility.yul\":394:397   */\n      dup6\n        /* \"#utility.yul\":370:411   */\n      tag_286\n      jump\t// in\n    tag_285:\n        /* \"#utility.yul\":90:417   */\n      pop\n        /* \"#utility.yul\":7:417   */\n      swap4\n      swap3\n      pop\n      pop\n      pop\n      jump\t// out\n        /* \"#utility.yul\":423:562   */\n    tag_287:\n        /* \"#utility.yul\":469:474   */\n      0x00\n        /* \"#utility.yul\":507:513   */\n      dup2\n        /* \"#utility.yul\":494:514   */\n      calldataload\n        /* \"#utility.yul\":485:514   */\n      swap1\n      pop\n        /* \"#utility.yul\":523:556   */\n      tag_289\n        /* \"#utility.yul\":550:555   */\n      dup2\n        /* \"#utility.yul\":523:556   */\n      tag_290\n      jump\t// in\n    tag_289:\n        /* \"#utility.yul\":423:562   */\n      swap3\n      swap2\n      pop\n      pop\n      jump\t// out\n        /* \"#utility.yul\":568:701   */\n    tag_291:\n        /* \"#utility.yul\":611:616   */\n      0x00\n        /* \"#utility.yul\":649:655   */\n      dup2\n        /* \"#utility.yul\":636:656   */\n      calldataload\n        /* \"#utility.yul\":627:656   */\n      swap1\n      pop\n        /* \"#utility.yul\":665:695   */\n      tag_293\n        /* \"#utility.yul\":689:694   */\n      dup2\n        /* \"#utility.yul\":665:695   */\n      tag_294\n      jump\t// in\n    tag_293:\n        /* \"#utility.yul\":568:701   */\n      swap3\n      swap2\n      pop\n      pop\n      jump\t// out\n        /* \"#utility.yul\":707:844   */\n    tag_295:\n        /* \"#utility.yul\":752:757   */\n      0x00\n        /* \"#utility.yul\":790:796   */\n      dup2\n        /* \"#utility.yul\":777:797   */\n      calldataload\n        /* \"#utility.yul\":768:797   */\n      swap1\n      pop\n        /* \"#utility.yul\":806:838   */\n      tag_297\n        /* \"#utility.yul\":832:837   */\n      dup2\n        /* \"#utility.yul\":806:838   */\n      tag_298\n      jump\t// in\n    tag_297:\n        /* \"#utility.yul\":707:844   */\n      swap3\n      swap2\n      pop\n      pop\n      jump\t// out\n        /* \"#utility.yul\":850:991   */\n    tag_299:\n        /* \"#utility.yul\":906:911   */\n      0x00\n        /* \"#utility.yul\":937:943   */\n      dup2\n        /* \"#utility.yul\":931:944   */\n      mload\n        /* \"#utility.yul\":922:944   */\n      swap1\n      pop\n        /* \"#utility.yul\":953:985   */\n      tag_301\n        /* \"#utility.yul\":979:984   */\n      dup2\n        /* \"#utility.yul\":953:985   */\n      tag_298\n      jump\t// in\n    tag_301:\n        /* \"#utility.yul\":850:991   */\n      swap3\n      swap2\n      pop\n      pop\n      jump\t// out\n        /* \"#utility.yul\":1010:1348   */\n    tag_302:\n        /* \"#utility.yul\":1065:1070   */\n      0x00\n        /* \"#utility.yul\":1114:1117   */\n      dup3\n        /* \"#utility.yul\":1107:1111   */\n      0x1f\n        /* \"#utility.yul\":1099:1105   */\n      dup4\n        /* \"#utility.yul\":1095:1112   */\n      add\n        /* \"#utility.yul\":1091:1118   */\n      slt\n        /* \"#utility.yul\":1081:1203   */\n      tag_304\n      jumpi\n        /* \"#utility.yul\":1122:1201   */\n      tag_305\n      tag_306\n      jump\t// in\n    tag_305:\n        /* \"#utility.yul\":1081:1203   */\n    tag_304:\n        /* \"#utility.yul\":1239:1245   */\n      dup2\n        /* \"#utility.yul\":1226:1246   */\n      calldataload\n        /* \"#utility.yul\":1264:1342   */\n      tag_307\n        /* \"#utility.yul\":1338:1341   */\n      dup5\n        /* \"#utility.yul\":1330:1336   */\n      dup3\n        /* \"#utility.yul\":1323:1327   */\n      0x20\n        /* \"#utility.yul\":1315:1321   */\n      dup7\n        /* \"#utility.yul\":1311:1328   */\n      add\n        /* \"#utility.yul\":1264:1342   */\n      tag_276\n      jump\t// in\n    tag_307:\n        /* \"#utility.yul\":1255:1342   */\n      swap2\n      pop\n        /* \"#utility.yul\":1071:1348   */\n      pop\n        /* \"#utility.yul\":1010:1348   */\n      swap3\n      swap2\n      pop\n      pop\n      jump\t// out\n        /* \"#utility.yul\":1354:1493   */\n    tag_308:\n        /* \"#utility.yul\":1400:1405   */\n      0x00\n        /* \"#utility.yul\":1438:1444   */\n      dup2\n        /* \"#utility.yul\":1425:1445   */\n      calldataload\n        /* \"#utility.yul\":1416:1445   */\n      swap1\n      pop\n        /* \"#utility.yul\":1454:1487   */\n      tag_310\n        /* \"#utility.yul\":1481:1486   */\n      dup2\n        /* \"#utility.yul\":1454:1487   */\n      tag_311\n      jump\t// in\n    tag_310:\n        /* \"#utility.yul\":1354:1493   */\n      swap3\n      swap2\n      pop\n      pop\n      jump\t// out\n        /* \"#utility.yul\":1499:1828   */\n    tag_53:\n        /* \"#utility.yul\":1558:1564   */\n      0x00\n        /* \"#utility.yul\":1607:1609   */\n      0x20\n        /* \"#utility.yul\":1595:1604   */\n      dup3\n        /* \"#utility.yul\":1586:1593   */\n      dup5\n        /* \"#utility.yul\":1582:1605   */\n      sub\n        /* \"#utility.yul\":1578:1610   */\n      slt\n        /* \"#utility.yul\":1575:1694   */\n      iszero\n      tag_313\n      jumpi\n        /* \"#utility.yul\":1613:1692   */\n      tag_314\n      tag_315\n      jump\t// in\n    tag_314:\n        /* \"#utility.yul\":1575:1694   */\n    tag_313:\n        /* \"#utility.yul\":1733:1734   */\n      0x00\n        /* \"#utility.yul\":1758:1811   */\n      tag_316\n        /* \"#utility.yul\":1803:1810   */\n      dup5\n        /* \"#utility.yul\":1794:1800   */\n      dup3\n        /* \"#utility.yul\":1783:1792   */\n      dup6\n        /* \"#utility.yul\":1779:1801   */\n      add\n        /* \"#utility.yul\":1758:1811   */\n      tag_287\n      jump\t// in\n    tag_316:\n        /* \"#utility.yul\":1748:1811   */\n      swap2\n      pop\n        /* \"#utility.yul\":1704:1821   */\n      pop\n        /* \"#utility.yul\":1499:1828   */\n      swap3\n      swap2\n      pop\n      pop\n      jump\t// out\n        /* \"#utility.yul\":1834:2308   */\n    tag_77:\n        /* \"#utility.yul\":1902:1908   */\n      0x00\n        /* \"#utility.yul\":1910:1916   */\n      dup1\n        /* \"#utility.yul\":1959:1961   */\n      0x40\n        /* \"#utility.yul\":1947:1956   */\n      dup4\n        /* \"#utility.yul\":1938:1945   */\n      dup6\n        /* \"#utility.yul\":1934:1957   */\n      sub\n        /* \"#utility.yul\":1930:1962   */\n      slt\n        /* \"#utility.yul\":1927:2046   */\n      iszero\n      tag_318\n      jumpi\n        /* \"#utility.yul\":1965:2044   */\n      tag_319\n      tag_315\n      jump\t// in\n    tag_319:\n        /* \"#utility.yul\":1927:2046   */\n    tag_318:\n        /* \"#utility.yul\":2085:2086   */\n      0x00\n        /* \"#utility.yul\":2110:2163   */\n      tag_320\n        /* \"#utility.yul\":2155:2162   */\n      dup6\n        /* \"#utility.yul\":2146:2152   */\n      dup3\n        /* \"#utility.yul\":2135:2144   */\n      dup7\n        /* \"#utility.yul\":2131:2153   */\n      add\n        /* \"#utility.yul\":2110:2163   */\n      tag_287\n      jump\t// in\n    tag_320:\n        /* \"#utility.yul\":2100:2163   */\n      swap3\n      pop\n        /* \"#utility.yul\":2056:2173   */\n      pop\n        /* \"#utility.yul\":2212:2214   */\n      0x20\n        /* \"#utility.yul\":2238:2291   */\n      tag_321\n        /* \"#utility.yul\":2283:2290   */\n      dup6\n        /* \"#utility.yul\":2274:2280   */\n      dup3\n        /* \"#utility.yul\":2263:2272   */\n      dup7\n        /* \"#utility.yul\":2259:2281   */\n      add\n        /* \"#utility.yul\":2238:2291   */\n      tag_287\n      jump\t// in\n    tag_321:\n        /* \"#utility.yul\":2228:2291   */\n      swap2\n      pop\n        /* \"#utility.yul\":2183:2301   */\n      pop\n        /* \"#utility.yul\":1834:2308   */\n      swap3\n      pop\n      swap3\n      swap1\n      pop\n      jump\t// out\n        /* \"#utility.yul\":2314:2933   */\n    tag_42:\n        /* \"#utility.yul\":2391:2397   */\n      0x00\n        /* \"#utility.yul\":2399:2405   */\n      dup1\n        /* \"#utility.yul\":2407:2413   */\n      0x00\n        /* \"#utility.yul\":2456:2458   */\n      0x60\n        /* \"#utility.yul\":2444:2453   */\n      dup5\n        /* \"#utility.yul\":2435:2442   */\n      dup7\n        /* \"#utility.yul\":2431:2454   */\n      sub\n        /* \"#utility.yul\":2427:2459   */\n      slt\n        /* \"#utility.yul\":2424:2543   */\n      iszero\n      tag_323\n      jumpi\n        /* \"#utility.yul\":2462:2541   */\n      tag_324\n      tag_315\n      jump\t// in\n    tag_324:\n        /* \"#utility.yul\":2424:2543   */\n    tag_323:\n        /* \"#utility.yul\":2582:2583   */\n      0x00\n        /* \"#utility.yul\":2607:2660   */\n      tag_325\n        /* \"#utility.yul\":2652:2659   */\n      dup7\n        /* \"#utility.yul\":2643:2649   */\n      dup3\n        /* \"#utility.yul\":2632:2641   */\n      dup8\n        /* \"#utility.yul\":2628:2650   */\n      add\n        /* \"#utility.yul\":2607:2660   */\n      tag_287\n      jump\t// in\n    tag_325:\n        /* \"#utility.yul\":2597:2660   */\n      swap4\n      pop\n        /* \"#utility.yul\":2553:2670   */\n      pop\n        /* \"#utility.yul\":2709:2711   */\n      0x20\n        /* \"#utility.yul\":2735:2788   */\n      tag_326\n        /* \"#utility.yul\":2780:2787   */\n      dup7\n        /* \"#utility.yul\":2771:2777   */\n      dup3\n        /* \"#utility.yul\":2760:2769   */\n      dup8\n        /* \"#utility.yul\":2756:2778   */\n      add\n        /* \"#utility.yul\":2735:2788   */\n      tag_287\n      jump\t// in\n    tag_326:\n        /* \"#utility.yul\":2725:2788   */\n      swap3\n      pop\n        /* \"#utility.yul\":2680:2798   */\n      pop\n        /* \"#utility.yul\":2837:2839   */\n      0x40\n        /* \"#utility.yul\":2863:2916   */\n      tag_327\n        /* \"#utility.yul\":2908:2915   */\n      dup7\n        /* \"#utility.yul\":2899:2905   */\n      dup3\n        /* \"#utility.yul\":2888:2897   */\n      dup8\n        /* \"#utility.yul\":2884:2906   */\n      add\n        /* \"#utility.yul\":2863:2916   */\n      tag_308\n      jump\t// in\n    tag_327:\n        /* \"#utility.yul\":2853:2916   */\n      swap2\n      pop\n        /* \"#utility.yul\":2808:2926   */\n      pop\n        /* \"#utility.yul\":2314:2933   */\n      swap3\n      pop\n      swap3\n      pop\n      swap3\n      jump\t// out\n        /* \"#utility.yul\":2939:3882   */\n    tag_69:\n        /* \"#utility.yul\":3034:3040   */\n      0x00\n        /* \"#utility.yul\":3042:3048   */\n      dup1\n        /* \"#utility.yul\":3050:3056   */\n      0x00\n        /* \"#utility.yul\":3058:3064   */\n      dup1\n        /* \"#utility.yul\":3107:3110   */\n      0x80\n        /* \"#utility.yul\":3095:3104   */\n      dup6\n        /* \"#utility.yul\":3086:3093   */\n      dup8\n        /* \"#utility.yul\":3082:3105   */\n      sub\n        /* \"#utility.yul\":3078:3111   */\n      slt\n        /* \"#utility.yul\":3075:3195   */\n      iszero\n      tag_329\n      jumpi\n        /* \"#utility.yul\":3114:3193   */\n      tag_330\n      tag_315\n      jump\t// in\n    tag_330:\n        /* \"#utility.yul\":3075:3195   */\n    tag_329:\n        /* \"#utility.yul\":3234:3235   */\n      0x00\n        /* \"#utility.yul\":3259:3312   */\n      tag_331\n        /* \"#utility.yul\":3304:3311   */\n      dup8\n        /* \"#utility.yul\":3295:3301   */\n      dup3\n        /* \"#utility.yul\":3284:3293   */\n      dup9\n        /* \"#utility.yul\":3280:3302   */\n      add\n        /* \"#utility.yul\":3259:3312   */\n      tag_287\n      jump\t// in\n    tag_331:\n        /* \"#utility.yul\":3249:3312   */\n      swap5\n      pop\n        /* \"#utility.yul\":3205:3322   */\n      pop\n        /* \"#utility.yul\":3361:3363   */\n      0x20\n        /* \"#utility.yul\":3387:3440   */\n      tag_332\n        /* \"#utility.yul\":3432:3439   */\n      dup8\n        /* \"#utility.yul\":3423:3429   */\n      dup3\n        /* \"#utility.yul\":3412:3421   */\n      dup9\n        /* \"#utility.yul\":3408:3430   */\n      add\n        /* \"#utility.yul\":3387:3440   */\n      tag_287\n      jump\t// in\n    tag_332:\n        /* \"#utility.yul\":3377:3440   */\n      swap4\n      pop\n        /* \"#utility.yul\":3332:3450   */\n      pop\n        /* \"#utility.yul\":3489:3491   */\n      0x40\n        /* \"#utility.yul\":3515:3568   */\n      tag_333\n        /* \"#utility.yul\":3560:3567   */\n      dup8\n        /* \"#utility.yul\":3551:3557   */\n      dup3\n        /* \"#utility.yul\":3540:3549   */\n      dup9\n        /* \"#utility.yul\":3536:3558   */\n      add\n        /* \"#utility.yul\":3515:3568   */\n      tag_308\n      jump\t// in\n    tag_333:\n        /* \"#utility.yul\":3505:3568   */\n      swap3\n      pop\n        /* \"#utility.yul\":3460:3578   */\n      pop\n        /* \"#utility.yul\":3645:3647   */\n      0x60\n        /* \"#utility.yul\":3634:3643   */\n      dup6\n        /* \"#utility.yul\":3630:3648   */\n      add\n        /* \"#utility.yul\":3617:3649   */\n      calldataload\n        /* \"#utility.yul\":3676:3694   */\n      0xffffffffffffffff\n        /* \"#utility.yul\":3668:3674   */\n      dup2\n        /* \"#utility.yul\":3665:3695   */\n      gt\n        /* \"#utility.yul\":3662:3779   */\n      iszero\n      tag_334\n      jumpi\n        /* \"#utility.yul\":3698:3777   */\n      tag_335\n      tag_336\n      jump\t// in\n    tag_335:\n        /* \"#utility.yul\":3662:3779   */\n    tag_334:\n        /* \"#utility.yul\":3803:3865   */\n      tag_337\n        /* \"#utility.yul\":3857:3864   */\n      dup8\n        /* \"#utility.yul\":3848:3854   */\n      dup3\n        /* \"#utility.yul\":3837:3846   */\n      dup9\n        /* \"#utility.yul\":3833:3855   */\n      add\n        /* \"#utility.yul\":3803:3865   */\n      tag_302\n      jump\t// in\n    tag_337:\n        /* \"#utility.yul\":3793:3865   */\n      swap2\n      pop\n        /* \"#utility.yul\":3588:3875   */\n      pop\n        /* \"#utility.yul\":2939:3882   */\n      swap3\n      swap6\n      swap2\n      swap5\n      pop\n      swap3\n      pop\n      jump\t// out\n        /* \"#utility.yul\":3888:4356   */\n    tag_62:\n        /* \"#utility.yul\":3953:3959   */\n      0x00\n        /* \"#utility.yul\":3961:3967   */\n      dup1\n        /* \"#utility.yul\":4010:4012   */\n      0x40\n        /* \"#utility.yul\":3998:4007   */\n      dup4\n        /* \"#utility.yul\":3989:3996   */\n      dup6\n        /* \"#utility.yul\":3985:4008   */\n      sub\n        /* \"#utility.yul\":3981:4013   */\n      slt\n        /* \"#utility.yul\":3978:4097   */\n      iszero\n      tag_339\n      jumpi\n        /* \"#utility.yul\":4016:4095   */\n      tag_340\n      tag_315\n      jump\t// in\n    tag_340:\n        /* \"#utility.yul\":3978:4097   */\n    tag_339:\n        /* \"#utility.yul\":4136:4137   */\n      0x00\n        /* \"#utility.yul\":4161:4214   */\n      tag_341\n        /* \"#utility.yul\":4206:4213   */\n      dup6\n        /* \"#utility.yul\":4197:4203   */\n      dup3\n        /* \"#utility.yul\":4186:4195   */\n      dup7\n        /* \"#utility.yul\":4182:4204   */\n      add\n        /* \"#utility.yul\":4161:4214   */\n      tag_287\n      jump\t// in\n    tag_341:\n        /* \"#utility.yul\":4151:4214   */\n      swap3\n      pop\n        /* \"#utility.yul\":4107:4224   */\n      pop\n        /* \"#utility.yul\":4263:4265   */\n      0x20\n        /* \"#utility.yul\":4289:4339   */\n      tag_342\n        /* \"#utility.yul\":4331:4338   */\n      dup6\n        /* \"#utility.yul\":4322:4328   */\n      dup3\n        /* \"#utility.yul\":4311:4320   */\n      dup7\n        /* \"#utility.yul\":4307:4329   */\n      add\n        /* \"#utility.yul\":4289:4339   */\n      tag_291\n      jump\t// in\n    tag_342:\n        /* \"#utility.yul\":4279:4339   */\n      swap2\n      pop\n        /* \"#utility.yul\":4234:4349   */\n      pop\n        /* \"#utility.yul\":3888:4356   */\n      swap3\n      pop\n      swap3\n      swap1\n      pop\n      jump\t// out\n        /* \"#utility.yul\":4362:4836   */\n    tag_38:\n        /* \"#utility.yul\":4430:4436   */\n      0x00\n        /* \"#utility.yul\":4438:4444   */\n      dup1\n        /* \"#utility.yul\":4487:4489   */\n      0x40\n        /* \"#utility.yul\":4475:4484   */\n      dup4\n        /* \"#utility.yul\":4466:4473   */\n      dup6\n        /* \"#utility.yul\":4462:4485   */\n      sub\n        /* \"#utility.yul\":4458:4490   */\n      slt\n        /* \"#utility.yul\":4455:4574   */\n      iszero\n      tag_344\n      jumpi\n        /* \"#utility.yul\":4493:4572   */\n      tag_345\n      tag_315\n      jump\t// in\n    tag_345:\n        /* \"#utility.yul\":4455:4574   */\n    tag_344:\n        /* \"#utility.yul\":4613:4614   */\n      0x00\n        /* \"#utility.yul\":4638:4691   */\n      tag_346\n        /* \"#utility.yul\":4683:4690   */\n      dup6\n        /* \"#utility.yul\":4674:4680   */\n      dup3\n        /* \"#utility.yul\":4663:4672   */\n      dup7\n        /* \"#utility.yul\":4659:4681   */\n      add\n        /* \"#utility.yul\":4638:4691   */\n      tag_287\n      jump\t// in\n    tag_346:\n        /* \"#utility.yul\":4628:4691   */\n      swap3\n      pop\n        /* \"#utility.yul\":4584:4701   */\n      pop\n        /* \"#utility.yul\":4740:4742   */\n      0x20\n        /* \"#utility.yul\":4766:4819   */\n      tag_347\n        /* \"#utility.yul\":4811:4818   */\n      dup6\n        /* \"#utility.yul\":4802:4808   */\n      dup3\n        /* \"#utility.yul\":4791:4800   */\n      dup7\n        /* \"#utility.yul\":4787:4809   */\n      add\n        /* \"#utility.yul\":4766:4819   */\n      tag_308\n      jump\t// in\n    tag_347:\n        /* \"#utility.yul\":4756:4819   */\n      swap2\n      pop\n        /* \"#utility.yul\":4711:4829   */\n      pop\n        /* \"#utility.yul\":4362:4836   */\n      swap3\n      pop\n      swap3\n      swap1\n      pop\n      jump\t// out\n        /* \"#utility.yul\":4842:5169   */\n    tag_22:\n        /* \"#utility.yul\":4900:4906   */\n      0x00\n        /* \"#utility.yul\":4949:4951   */\n      0x20\n        /* \"#utility.yul\":4937:4946   */\n      dup3\n        /* \"#utility.yul\":4928:4935   */\n      dup5\n        /* \"#utility.yul\":4924:4947   */\n      sub\n        /* \"#utility.yul\":4920:4952   */\n      slt\n        /* \"#utility.yul\":4917:5036   */\n      iszero\n      tag_349\n      jumpi\n        /* \"#utility.yul\":4955:5034   */\n      tag_350\n      tag_315\n      jump\t// in\n    tag_350:\n        /* \"#utility.yul\":4917:5036   */\n    tag_349:\n        /* \"#utility.yul\":5075:5076   */\n      0x00\n        /* \"#utility.yul\":5100:5152   */\n      tag_351\n        /* \"#utility.yul\":5144:5151   */\n      dup5\n        /* \"#utility.yul\":5135:5141   */\n      dup3\n        /* \"#utility.yul\":5124:5133   */\n      dup6\n        /* \"#utility.yul\":5120:5142   */\n      add\n        /* \"#utility.yul\":5100:5152   */\n      tag_295\n      jump\t// in\n    tag_351:\n        /* \"#utility.yul\":5090:5152   */\n      swap2\n      pop\n        /* \"#utility.yul\":5046:5162   */\n      pop\n        /* \"#utility.yul\":4842:5169   */\n      swap3\n      swap2\n      pop\n      pop\n      jump\t// out\n        /* \"#utility.yul\":5175:5524   */\n    tag_262:\n        /* \"#utility.yul\":5244:5250   */\n      0x00\n        /* \"#utility.yul\":5293:5295   */\n      0x20\n        /* \"#utility.yul\":5281:5290   */\n      dup3\n        /* \"#utility.yul\":5272:5279   */\n      dup5\n        /* \"#utility.yul\":5268:5291   */\n      sub\n        /* \"#utility.yul\":5264:5296   */\n      slt\n        /* \"#utility.yul\":5261:5380   */\n      iszero\n      tag_353\n      jumpi\n        /* \"#utility.yul\":5299:5378   */\n      tag_354\n      tag_315\n      jump\t// in\n    tag_354:\n        /* \"#utility.yul\":5261:5380   */\n    tag_353:\n        /* \"#utility.yul\":5419:5420   */\n      0x00\n        /* \"#utility.yul\":5444:5507   */\n      tag_355\n        /* \"#utility.yul\":5499:5506   */\n      dup5\n        /* \"#utility.yul\":5490:5496   */\n      dup3\n        /* \"#utility.yul\":5479:5488   */\n      dup6\n        /* \"#utility.yul\":5475:5497   */\n      add\n        /* \"#utility.yul\":5444:5507   */\n      tag_299\n      jump\t// in\n    tag_355:\n        /* \"#utility.yul\":5434:5507   */\n      swap2\n      pop\n        /* \"#utility.yul\":5390:5517   */\n      pop\n        /* \"#utility.yul\":5175:5524   */\n      swap3\n      swap2\n      pop\n      pop\n      jump\t// out\n        /* \"#utility.yul\":5530:5859   */\n    tag_32:\n        /* \"#utility.yul\":5589:5595   */\n      0x00\n        /* \"#utility.yul\":5638:5640   */\n      0x20\n        /* \"#utility.yul\":5626:5635   */\n      dup3\n        /* \"#utility.yul\":5617:5624   */\n      dup5\n        /* \"#utility.yul\":5613:5636   */\n      sub\n        /* \"#utility.yul\":5609:5641   */\n      slt\n        /* \"#utility.yul\":5606:5725   */\n      iszero\n      tag_357\n      jumpi\n        /* \"#utility.yul\":5644:5723   */\n      tag_358\n      tag_315\n      jump\t// in\n    tag_358:\n        /* \"#utility.yul\":5606:5725   */\n    tag_357:\n        /* \"#utility.yul\":5764:5765   */\n      0x00\n        /* \"#utility.yul\":5789:5842   */\n      tag_359\n        /* \"#utility.yul\":5834:5841   */\n      dup5\n        /* \"#utility.yul\":5825:5831   */\n      dup3\n        /* \"#utility.yul\":5814:5823   */\n      dup6\n        /* \"#utility.yul\":5810:5832   */\n      add\n        /* \"#utility.yul\":5789:5842   */\n      tag_308\n      jump\t// in\n    tag_359:\n        /* \"#utility.yul\":5779:5842   */\n      swap2\n      pop\n        /* \"#utility.yul\":5735:5852   */\n      pop\n        /* \"#utility.yul\":5530:5859   */\n      swap3\n      swap2\n      pop\n      pop\n      jump\t// out\n        /* \"#utility.yul\":5865:5983   */\n    tag_360:\n        /* \"#utility.yul\":5952:5976   */\n      tag_362\n        /* \"#utility.yul\":5970:5975   */\n      dup2\n        /* \"#utility.yul\":5952:5976   */\n      tag_363\n      jump\t// in\n    tag_362:\n        /* \"#utility.yul\":5947:5950   */\n      dup3\n        /* \"#utility.yul\":5940:5977   */\n      mstore\n        /* \"#utility.yul\":5865:5983   */\n      pop\n      pop\n      jump\t// out\n        /* \"#utility.yul\":5989:6098   */\n    tag_364:\n        /* \"#utility.yul\":6070:6091   */\n      tag_366\n        /* \"#utility.yul\":6085:6090   */\n      dup2\n        /* \"#utility.yul\":6070:6091   */\n      tag_367\n      jump\t// in\n    tag_366:\n        /* \"#utility.yul\":6065:6068   */\n      dup3\n        /* \"#utility.yul\":6058:6092   */\n      mstore\n        /* \"#utility.yul\":5989:6098   */\n      pop\n      pop\n      jump\t// out\n        /* \"#utility.yul\":6104:6464   */\n    tag_368:\n        /* \"#utility.yul\":6190:6193   */\n      0x00\n        /* \"#utility.yul\":6218:6256   */\n      tag_370\n        /* \"#utility.yul\":6250:6255   */\n      dup3\n        /* \"#utility.yul\":6218:6256   */\n      tag_371\n      jump\t// in\n    tag_370:\n        /* \"#utility.yul\":6272:6342   */\n      tag_372\n        /* \"#utility.yul\":6335:6341   */\n      dup2\n        /* \"#utility.yul\":6330:6333   */\n      dup6\n        /* \"#utility.yul\":6272:6342   */\n      tag_373\n      jump\t// in\n    tag_372:\n        /* \"#utility.yul\":6265:6342   */\n      swap4\n      pop\n        /* \"#utility.yul\":6351:6403   */\n      tag_374\n        /* \"#utility.yul\":6396:6402   */\n      dup2\n        /* \"#utility.yul\":6391:6394   */\n      dup6\n        /* \"#utility.yul\":6384:6388   */\n      0x20\n        /* \"#utility.yul\":6377:6382   */\n      dup7\n        /* \"#utility.yul\":6373:6389   */\n      add\n        /* \"#utility.yul\":6351:6403   */\n      tag_375\n      jump\t// in\n    tag_374:\n        /* \"#utility.yul\":6428:6457   */\n      tag_376\n        /* \"#utility.yul\":6450:6456   */\n      dup2\n        /* \"#utility.yul\":6428:6457   */\n      tag_377\n      jump\t// in\n    tag_376:\n        /* \"#utility.yul\":6423:6426   */\n      dup5\n        /* \"#utility.yul\":6419:6458   */\n      add\n        /* \"#utility.yul\":6412:6458   */\n      swap2\n      pop\n        /* \"#utility.yul\":6194:6464   */\n      pop\n        /* \"#utility.yul\":6104:6464   */\n      swap3\n      swap2\n      pop\n      pop\n      jump\t// out\n        /* \"#utility.yul\":6470:6834   */\n    tag_378:\n        /* \"#utility.yul\":6558:6561   */\n      0x00\n        /* \"#utility.yul\":6586:6625   */\n      tag_380\n        /* \"#utility.yul\":6619:6624   */\n      dup3\n        /* \"#utility.yul\":6586:6625   */\n      tag_381\n      jump\t// in\n    tag_380:\n        /* \"#utility.yul\":6641:6712   */\n      tag_382\n        /* \"#utility.yul\":6705:6711   */\n      dup2\n        /* \"#utility.yul\":6700:6703   */\n      dup6\n        /* \"#utility.yul\":6641:6712   */\n      tag_383\n      jump\t// in\n    tag_382:\n        /* \"#utility.yul\":6634:6712   */\n      swap4\n      pop\n        /* \"#utility.yul\":6721:6773   */\n      tag_384\n        /* \"#utility.yul\":6766:6772   */\n      dup2\n        /* \"#utility.yul\":6761:6764   */\n      dup6\n        /* \"#utility.yul\":6754:6758   */\n      0x20\n        /* \"#utility.yul\":6747:6752   */\n      dup7\n        /* \"#utility.yul\":6743:6759   */\n      add\n        /* \"#utility.yul\":6721:6773   */\n      tag_375\n      jump\t// in\n    tag_384:\n        /* \"#utility.yul\":6798:6827   */\n      tag_385\n        /* \"#utility.yul\":6820:6826   */\n      dup2\n        /* \"#utility.yul\":6798:6827   */\n      tag_377\n      jump\t// in\n    tag_385:\n        /* \"#utility.yul\":6793:6796   */\n      dup5\n        /* \"#utility.yul\":6789:6828   */\n      add\n        /* \"#utility.yul\":6782:6828   */\n      swap2\n      pop\n        /* \"#utility.yul\":6562:6834   */\n      pop\n        /* \"#utility.yul\":6470:6834   */\n      swap3\n      swap2\n      pop\n      pop\n      jump\t// out\n        /* \"#utility.yul\":6840:7217   */\n    tag_386:\n        /* \"#utility.yul\":6946:6949   */\n      0x00\n        /* \"#utility.yul\":6974:7013   */\n      tag_388\n        /* \"#utility.yul\":7007:7012   */\n      dup3\n        /* \"#utility.yul\":6974:7013   */\n      tag_381\n      jump\t// in\n    tag_388:\n        /* \"#utility.yul\":7029:7118   */\n      tag_389\n        /* \"#utility.yul\":7111:7117   */\n      dup2\n        /* \"#utility.yul\":7106:7109   */\n      dup6\n        /* \"#utility.yul\":7029:7118   */\n      tag_390\n      jump\t// in\n    tag_389:\n        /* \"#utility.yul\":7022:7118   */\n      swap4\n      pop\n        /* \"#utility.yul\":7127:7179   */\n      tag_391\n        /* \"#utility.yul\":7172:7178   */\n      dup2\n        /* \"#utility.yul\":7167:7170   */\n      dup6\n        /* \"#utility.yul\":7160:7164   */\n      0x20\n        /* \"#utility.yul\":7153:7158   */\n      dup7\n        /* \"#utility.yul\":7149:7165   */\n      add\n        /* \"#utility.yul\":7127:7179   */\n      tag_375\n      jump\t// in\n    tag_391:\n        /* \"#utility.yul\":7204:7210   */\n      dup1\n        /* \"#utility.yul\":7199:7202   */\n      dup5\n        /* \"#utility.yul\":7195:7211   */\n      add\n        /* \"#utility.yul\":7188:7211   */\n      swap2\n      pop\n        /* \"#utility.yul\":6950:7217   */\n      pop\n        /* \"#utility.yul\":6840:7217   */\n      swap3\n      swap2\n      pop\n      pop\n      jump\t// out\n        /* \"#utility.yul\":7223:7589   */\n    tag_392:\n        /* \"#utility.yul\":7365:7368   */\n      0x00\n        /* \"#utility.yul\":7386:7453   */\n      tag_394\n        /* \"#utility.yul\":7450:7452   */\n      0x32\n        /* \"#utility.yul\":7445:7448   */\n      dup4\n        /* \"#utility.yul\":7386:7453   */\n      tag_383\n      jump\t// in\n    tag_394:\n        /* \"#utility.yul\":7379:7453   */\n      swap2\n      pop\n        /* \"#utility.yul\":7462:7555   */\n      tag_395\n        /* \"#utility.yul\":7551:7554   */\n      dup3\n        /* \"#utility.yul\":7462:7555   */\n      tag_396\n      jump\t// in\n    tag_395:\n        /* \"#utility.yul\":7580:7582   */\n      0x40\n        /* \"#utility.yul\":7575:7578   */\n      dup3\n        /* \"#utility.yul\":7571:7583   */\n      add\n        /* \"#utility.yul\":7564:7583   */\n      swap1\n      pop\n        /* \"#utility.yul\":7223:7589   */\n      swap2\n      swap1\n      pop\n      jump\t// out\n        /* \"#utility.yul\":7595:7961   */\n    tag_397:\n        /* \"#utility.yul\":7737:7740   */\n      0x00\n        /* \"#utility.yul\":7758:7825   */\n      tag_399\n        /* \"#utility.yul\":7822:7824   */\n      0x25\n        /* \"#utility.yul\":7817:7820   */\n      dup4\n        /* \"#utility.yul\":7758:7825   */\n      tag_383\n      jump\t// in\n    tag_399:\n        /* \"#utility.yul\":7751:7825   */\n      swap2\n      pop\n        /* \"#utility.yul\":7834:7927   */\n      tag_400\n        /* \"#utility.yul\":7923:7926   */\n      dup3\n        /* \"#utility.yul\":7834:7927   */\n      tag_401\n      jump\t// in\n    tag_400:\n        /* \"#utility.yul\":7952:7954   */\n      0x40\n        /* \"#utility.yul\":7947:7950   */\n      dup3\n        /* \"#utility.yul\":7943:7955   */\n      add\n        /* \"#utility.yul\":7936:7955   */\n      swap1\n      pop\n        /* \"#utility.yul\":7595:7961   */\n      swap2\n      swap1\n      pop\n      jump\t// out\n        /* \"#utility.yul\":7967:8333   */\n    tag_402:\n        /* \"#utility.yul\":8109:8112   */\n      0x00\n        /* \"#utility.yul\":8130:8197   */\n      tag_404\n        /* \"#utility.yul\":8194:8196   */\n      0x1c\n        /* \"#utility.yul\":8189:8192   */\n      dup4\n        /* \"#utility.yul\":8130:8197   */\n      tag_383\n      jump\t// in\n    tag_404:\n        /* \"#utility.yul\":8123:8197   */\n      swap2\n      pop\n        /* \"#utility.yul\":8206:8299   */\n      tag_405\n        /* \"#utility.yul\":8295:8298   */\n      dup3\n        /* \"#utility.yul\":8206:8299   */\n      tag_406\n      jump\t// in\n    tag_405:\n        /* \"#utility.yul\":8324:8326   */\n      0x20\n        /* \"#utility.yul\":8319:8322   */\n      dup3\n        /* \"#utility.yul\":8315:8327   */\n      add\n        /* \"#utility.yul\":8308:8327   */\n      swap1\n      pop\n        /* \"#utility.yul\":7967:8333   */\n      swap2\n      swap1\n      pop\n      jump\t// out\n        /* \"#utility.yul\":8339:8705   */\n    tag_407:\n        /* \"#utility.yul\":8481:8484   */\n      0x00\n        /* \"#utility.yul\":8502:8569   */\n      tag_409\n        /* \"#utility.yul\":8566:8568   */\n      0x24\n        /* \"#utility.yul\":8561:8564   */\n      dup4\n        /* \"#utility.yul\":8502:8569   */\n      tag_383\n      jump\t// in\n    tag_409:\n        /* \"#utility.yul\":8495:8569   */\n      swap2\n      pop\n        /* \"#utility.yul\":8578:8671   */\n      tag_410\n        /* \"#utility.yul\":8667:8670   */\n      dup3\n        /* \"#utility.yul\":8578:8671   */\n      tag_411\n      jump\t// in\n    tag_410:\n        /* \"#utility.yul\":8696:8698   */\n      0x40\n        /* \"#utility.yul\":8691:8694   */\n      dup3\n        /* \"#utility.yul\":8687:8699   */\n      add\n        /* \"#utility.yul\":8680:8699   */\n      swap1\n      pop\n        /* \"#utility.yul\":8339:8705   */\n      swap2\n      swap1\n      pop\n      jump\t// out\n        /* \"#utility.yul\":8711:9077   */\n    tag_412:\n        /* \"#utility.yul\":8853:8856   */\n      0x00\n        /* \"#utility.yul\":8874:8941   */\n      tag_414\n        /* \"#utility.yul\":8938:8940   */\n      0x19\n        /* \"#utility.yul\":8933:8936   */\n      dup4\n        /* \"#utility.yul\":8874:8941   */\n      tag_383\n      jump\t// in\n    tag_414:\n        /* \"#utility.yul\":8867:8941   */\n      swap2\n      pop\n        /* \"#utility.yul\":8950:9043   */\n      tag_415\n        /* \"#utility.yul\":9039:9042   */\n      dup3\n        /* \"#utility.yul\":8950:9043   */\n      tag_416\n      jump\t// in\n    tag_415:\n        /* \"#utility.yul\":9068:9070   */\n      0x20\n        /* \"#utility.yul\":9063:9066   */\n      dup3\n        /* \"#utility.yul\":9059:9071   */\n      add\n        /* \"#utility.yul\":9052:9071   */\n      swap1\n      pop\n        /* \"#utility.yul\":8711:9077   */\n      swap2\n      swap1\n      pop\n      jump\t// out\n        /* \"#utility.yul\":9083:9449   */\n    tag_417:\n        /* \"#utility.yul\":9225:9228   */\n      0x00\n        /* \"#utility.yul\":9246:9313   */\n      tag_419\n        /* \"#utility.yul\":9310:9312   */\n      0x2c\n        /* \"#utility.yul\":9305:9308   */\n      dup4\n        /* \"#utility.yul\":9246:9313   */\n      tag_383\n      jump\t// in\n    tag_419:\n        /* \"#utility.yul\":9239:9313   */\n      swap2\n      pop\n        /* \"#utility.yul\":9322:9415   */\n      tag_420\n        /* \"#utility.yul\":9411:9414   */\n      dup3\n        /* \"#utility.yul\":9322:9415   */\n      tag_421\n      jump\t// in\n    tag_420:\n        /* \"#utility.yul\":9440:9442   */\n      0x40\n        /* \"#utility.yul\":9435:9438   */\n      dup3\n        /* \"#utility.yul\":9431:9443   */\n      add\n        /* \"#utility.yul\":9424:9443   */\n      swap1\n      pop\n        /* \"#utility.yul\":9083:9449   */\n      swap2\n      swap1\n      pop\n      jump\t// out\n        /* \"#utility.yul\":9455:9821   */\n    tag_422:\n        /* \"#utility.yul\":9597:9600   */\n      0x00\n        /* \"#utility.yul\":9618:9685   */\n      tag_424\n        /* \"#utility.yul\":9682:9684   */\n      0x38\n        /* \"#utility.yul\":9677:9680   */\n      dup4\n        /* \"#utility.yul\":9618:9685   */\n      tag_383\n      jump\t// in\n    tag_424:\n        /* \"#utility.yul\":9611:9685   */\n      swap2\n      pop\n        /* \"#utility.yul\":9694:9787   */\n      tag_425\n        /* \"#utility.yul\":9783:9786   */\n      dup3\n        /* \"#utility.yul\":9694:9787   */\n      tag_426\n      jump\t// in\n    tag_425:\n        /* \"#utility.yul\":9812:9814   */\n      0x40\n        /* \"#utility.yul\":9807:9810   */\n      dup3\n        /* \"#utility.yul\":9803:9815   */\n      add\n        /* \"#utility.yul\":9796:9815   */\n      swap1\n      pop\n        /* \"#utility.yul\":9455:9821   */\n      swap2\n      swap1\n      pop\n      jump\t// out\n        /* \"#utility.yul\":9827:10193   */\n    tag_427:\n        /* \"#utility.yul\":9969:9972   */\n      0x00\n        /* \"#utility.yul\":9990:10057   */\n      tag_429\n        /* \"#utility.yul\":10054:10056   */\n      0x2a\n        /* \"#utility.yul\":10049:10052   */\n      dup4\n        /* \"#utility.yul\":9990:10057   */\n      tag_383\n      jump\t// in\n    tag_429:\n        /* \"#utility.yul\":9983:10057   */\n      swap2\n      pop\n        /* \"#utility.yul\":10066:10159   */\n      tag_430\n        /* \"#utility.yul\":10155:10158   */\n      dup3\n        /* \"#utility.yul\":10066:10159   */\n      tag_431\n      jump\t// in\n    tag_430:\n        /* \"#utility.yul\":10184:10186   */\n      0x40\n        /* \"#utility.yul\":10179:10182   */\n      dup3\n        /* \"#utility.yul\":10175:10187   */\n      add\n        /* \"#utility.yul\":10168:10187   */\n      swap1\n      pop\n        /* \"#utility.yul\":9827:10193   */\n      swap2\n      swap1\n      pop\n      jump\t// out\n        /* \"#utility.yul\":10199:10565   */\n    tag_432:\n        /* \"#utility.yul\":10341:10344   */\n      0x00\n        /* \"#utility.yul\":10362:10429   */\n      tag_434\n        /* \"#utility.yul\":10426:10428   */\n      0x29\n        /* \"#utility.yul\":10421:10424   */\n      dup4\n        /* \"#utility.yul\":10362:10429   */\n      tag_383\n      jump\t// in\n    tag_434:\n        /* \"#utility.yul\":10355:10429   */\n      swap2\n      pop\n        /* \"#utility.yul\":10438:10531   */\n      tag_435\n        /* \"#utility.yul\":10527:10530   */\n      dup3\n        /* \"#utility.yul\":10438:10531   */\n      tag_436\n      jump\t// in\n    tag_435:\n        /* \"#utility.yul\":10556:10558   */\n      0x40\n        /* \"#utility.yul\":10551:10554   */\n      dup3\n        /* \"#utility.yul\":10547:10559   */\n      add\n        /* \"#utility.yul\":10540:10559   */\n      swap1\n      pop\n        /* \"#utility.yul\":10199:10565   */\n      swap2\n      swap1\n      pop\n      jump\t// out\n        /* \"#utility.yul\":10571:10937   */\n    tag_437:\n        /* \"#utility.yul\":10713:10716   */\n      0x00\n        /* \"#utility.yul\":10734:10801   */\n      tag_439\n        /* \"#utility.yul\":10798:10800   */\n      0x20\n        /* \"#utility.yul\":10793:10796   */\n      dup4\n        /* \"#utility.yul\":10734:10801   */\n      tag_383\n      jump\t// in\n    tag_439:\n        /* \"#utility.yul\":10727:10801   */\n      swap2\n      pop\n        /* \"#utility.yul\":10810:10903   */\n      tag_440\n        /* \"#utility.yul\":10899:10902   */\n      dup3\n        /* \"#utility.yul\":10810:10903   */\n      tag_441\n      jump\t// in\n    tag_440:\n        /* \"#utility.yul\":10928:10930   */\n      0x20\n        /* \"#utility.yul\":10923:10926   */\n      dup3\n        /* \"#utility.yul\":10919:10931   */\n      add\n        /* \"#utility.yul\":10912:10931   */\n      swap1\n      pop\n        /* \"#utility.yul\":10571:10937   */\n      swap2\n      swap1\n      pop\n      jump\t// out\n        /* \"#utility.yul\":10943:11309   */\n    tag_442:\n        /* \"#utility.yul\":11085:11088   */\n      0x00\n        /* \"#utility.yul\":11106:11173   */\n      tag_444\n        /* \"#utility.yul\":11170:11172   */\n      0x2c\n        /* \"#utility.yul\":11165:11168   */\n      dup4\n        /* \"#utility.yul\":11106:11173   */\n      tag_383\n      jump\t// in\n    tag_444:\n        /* \"#utility.yul\":11099:11173   */\n      swap2\n      pop\n        /* \"#utility.yul\":11182:11275   */\n      tag_445\n        /* \"#utility.yul\":11271:11274   */\n      dup3\n        /* \"#utility.yul\":11182:11275   */\n      tag_446\n      jump\t// in\n    tag_445:\n        /* \"#utility.yul\":11300:11302   */\n      0x40\n        /* \"#utility.yul\":11295:11298   */\n      dup3\n        /* \"#utility.yul\":11291:11303   */\n      add\n        /* \"#utility.yul\":11284:11303   */\n      swap1\n      pop\n        /* \"#utility.yul\":10943:11309   */\n      swap2\n      swap1\n      pop\n      jump\t// out\n        /* \"#utility.yul\":11315:11681   */\n    tag_447:\n        /* \"#utility.yul\":11457:11460   */\n      0x00\n        /* \"#utility.yul\":11478:11545   */\n      tag_449\n        /* \"#utility.yul\":11542:11544   */\n      0x2f\n        /* \"#utility.yul\":11537:11540   */\n      dup4\n        /* \"#utility.yul\":11478:11545   */\n      tag_383\n      jump\t// in\n    tag_449:\n        /* \"#utility.yul\":11471:11545   */\n      swap2\n      pop\n        /* \"#utility.yul\":11554:11647   */\n      tag_450\n        /* \"#utility.yul\":11643:11646   */\n      dup3\n        /* \"#utility.yul\":11554:11647   */\n      tag_451\n      jump\t// in\n    tag_450:\n        /* \"#utility.yul\":11672:11674   */\n      0x40\n        /* \"#utility.yul\":11667:11670   */\n      dup3\n        /* \"#utility.yul\":11663:11675   */\n      add\n        /* \"#utility.yul\":11656:11675   */\n      swap1\n      pop\n        /* \"#utility.yul\":11315:11681   */\n      swap2\n      swap1\n      pop\n      jump\t// out\n        /* \"#utility.yul\":11687:12053   */\n    tag_452:\n        /* \"#utility.yul\":11829:11832   */\n      0x00\n        /* \"#utility.yul\":11850:11917   */\n      tag_454\n        /* \"#utility.yul\":11914:11916   */\n      0x21\n        /* \"#utility.yul\":11909:11912   */\n      dup4\n        /* \"#utility.yul\":11850:11917   */\n      tag_383\n      jump\t// in\n    tag_454:\n        /* \"#utility.yul\":11843:11917   */\n      swap2\n      pop\n        /* \"#utility.yul\":11926:12019   */\n      tag_455\n        /* \"#utility.yul\":12015:12018   */\n      dup3\n        /* \"#utility.yul\":11926:12019   */\n      tag_456\n      jump\t// in\n    tag_455:\n        /* \"#utility.yul\":12044:12046   */\n      0x40\n        /* \"#utility.yul\":12039:12042   */\n      dup3\n        /* \"#utility.yul\":12035:12047   */\n      add\n        /* \"#utility.yul\":12028:12047   */\n      swap1\n      pop\n        /* \"#utility.yul\":11687:12053   */\n      swap2\n      swap1\n      pop\n      jump\t// out\n        /* \"#utility.yul\":12059:12425   */\n    tag_457:\n        /* \"#utility.yul\":12201:12204   */\n      0x00\n        /* \"#utility.yul\":12222:12289   */\n      tag_459\n        /* \"#utility.yul\":12286:12288   */\n      0x31\n        /* \"#utility.yul\":12281:12284   */\n      dup4\n        /* \"#utility.yul\":12222:12289   */\n      tag_383\n      jump\t// in\n    tag_459:\n        /* \"#utility.yul\":12215:12289   */\n      swap2\n      pop\n        /* \"#utility.yul\":12298:12391   */\n      tag_460\n        /* \"#utility.yul\":12387:12390   */\n      dup3\n        /* \"#utility.yul\":12298:12391   */\n      tag_461\n      jump\t// in\n    tag_460:\n        /* \"#utility.yul\":12416:12418   */\n      0x40\n        /* \"#utility.yul\":12411:12414   */\n      dup3\n        /* \"#utility.yul\":12407:12419   */\n      add\n        /* \"#utility.yul\":12400:12419   */\n      swap1\n      pop\n        /* \"#utility.yul\":12059:12425   */\n      swap2\n      swap1\n      pop\n      jump\t// out\n        /* \"#utility.yul\":12431:12549   */\n    tag_462:\n        /* \"#utility.yul\":12518:12542   */\n      tag_464\n        /* \"#utility.yul\":12536:12541   */\n      dup2\n        /* \"#utility.yul\":12518:12542   */\n      tag_465\n      jump\t// in\n    tag_464:\n        /* \"#utility.yul\":12513:12516   */\n      dup3\n        /* \"#utility.yul\":12506:12543   */\n      mstore\n        /* \"#utility.yul\":12431:12549   */\n      pop\n      pop\n      jump\t// out\n        /* \"#utility.yul\":12555:12990   */\n    tag_164:\n        /* \"#utility.yul\":12735:12738   */\n      0x00\n        /* \"#utility.yul\":12757:12852   */\n      tag_467\n        /* \"#utility.yul\":12848:12851   */\n      dup3\n        /* \"#utility.yul\":12839:12845   */\n      dup6\n        /* \"#utility.yul\":12757:12852   */\n      tag_386\n      jump\t// in\n    tag_467:\n        /* \"#utility.yul\":12750:12852   */\n      swap2\n      pop\n        /* \"#utility.yul\":12869:12964   */\n      tag_468\n        /* \"#utility.yul\":12960:12963   */\n      dup3\n        /* \"#utility.yul\":12951:12957   */\n      dup5\n        /* \"#utility.yul\":12869:12964   */\n      tag_386\n      jump\t// in\n    tag_468:\n        /* \"#utility.yul\":12862:12964   */\n      swap2\n      pop\n        /* \"#utility.yul\":12981:12984   */\n      dup2\n        /* \"#utility.yul\":12974:12984   */\n      swap1\n      pop\n        /* \"#utility.yul\":12555:12990   */\n      swap4\n      swap3\n      pop\n      pop\n      pop\n      jump\t// out\n        /* \"#utility.yul\":12996:13218   */\n    tag_35:\n        /* \"#utility.yul\":13089:13093   */\n      0x00\n        /* \"#utility.yul\":13127:13129   */\n      0x20\n        /* \"#utility.yul\":13116:13125   */\n      dup3\n        /* \"#utility.yul\":13112:13130   */\n      add\n        /* \"#utility.yul\":13104:13130   */\n      swap1\n      pop\n        /* \"#utility.yul\":13140:13211   */\n      tag_470\n        /* \"#utility.yul\":13208:13209   */\n      0x00\n        /* \"#utility.yul\":13197:13206   */\n      dup4\n        /* \"#utility.yul\":13193:13210   */\n      add\n        /* \"#utility.yul\":13184:13190   */\n      dup5\n        /* \"#utility.yul\":13140:13211   */\n      tag_360\n      jump\t// in\n    tag_470:\n        /* \"#utility.yul\":12996:13218   */\n      swap3\n      swap2\n      pop\n      pop\n      jump\t// out\n        /* \"#utility.yul\":13224:13864   */\n    tag_258:\n        /* \"#utility.yul\":13419:13423   */\n      0x00\n        /* \"#utility.yul\":13457:13460   */\n      0x80\n        /* \"#utility.yul\":13446:13455   */\n      dup3\n        /* \"#utility.yul\":13442:13461   */\n      add\n        /* \"#utility.yul\":13434:13461   */\n      swap1\n      pop\n        /* \"#utility.yul\":13471:13542   */\n      tag_472\n        /* \"#utility.yul\":13539:13540   */\n      0x00\n        /* \"#utility.yul\":13528:13537   */\n      dup4\n        /* \"#utility.yul\":13524:13541   */\n      add\n        /* \"#utility.yul\":13515:13521   */\n      dup8\n        /* \"#utility.yul\":13471:13542   */\n      tag_360\n      jump\t// in\n    tag_472:\n        /* \"#utility.yul\":13552:13624   */\n      tag_473\n        /* \"#utility.yul\":13620:13622   */\n      0x20\n        /* \"#utility.yul\":13609:13618   */\n      dup4\n        /* \"#utility.yul\":13605:13623   */\n      add\n        /* \"#utility.yul\":13596:13602   */\n      dup7\n        /* \"#utility.yul\":13552:13624   */\n      tag_360\n      jump\t// in\n    tag_473:\n        /* \"#utility.yul\":13634:13706   */\n      tag_474\n        /* \"#utility.yul\":13702:13704   */\n      0x40\n        /* \"#utility.yul\":13691:13700   */\n      dup4\n        /* \"#utility.yul\":13687:13705   */\n      add\n        /* \"#utility.yul\":13678:13684   */\n      dup6\n        /* \"#utility.yul\":13634:13706   */\n      tag_462\n      jump\t// in\n    tag_474:\n        /* \"#utility.yul\":13753:13762   */\n      dup2\n        /* \"#utility.yul\":13747:13751   */\n      dup2\n        /* \"#utility.yul\":13743:13763   */\n      sub\n        /* \"#utility.yul\":13738:13740   */\n      0x60\n        /* \"#utility.yul\":13727:13736   */\n      dup4\n        /* \"#utility.yul\":13723:13741   */\n      add\n        /* \"#utility.yul\":13716:13764   */\n      mstore\n        /* \"#utility.yul\":13781:13857   */\n      tag_475\n        /* \"#utility.yul\":13852:13856   */\n      dup2\n        /* \"#utility.yul\":13843:13849   */\n      dup5\n        /* \"#utility.yul\":13781:13857   */\n      tag_368\n      jump\t// in\n    tag_475:\n        /* \"#utility.yul\":13773:13857   */\n      swap1\n      pop\n        /* \"#utility.yul\":13224:13864   */\n      swap6\n      swap5\n      pop\n      pop\n      pop\n      pop\n      pop\n      jump\t// out\n        /* \"#utility.yul\":13870:14080   */\n    tag_25:\n        /* \"#utility.yul\":13957:13961   */\n      0x00\n        /* \"#utility.yul\":13995:13997   */\n      0x20\n        /* \"#utility.yul\":13984:13993   */\n      dup3\n        /* \"#utility.yul\":13980:13998   */\n      add\n        /* \"#utility.yul\":13972:13998   */\n      swap1\n      pop\n        /* \"#utility.yul\":14008:14073   */\n      tag_477\n        /* \"#utility.yul\":14070:14071   */\n      0x00\n        /* \"#utility.yul\":14059:14068   */\n      dup4\n        /* \"#utility.yul\":14055:14072   */\n      add\n        /* \"#utility.yul\":14046:14052   */\n      dup5\n        /* \"#utility.yul\":14008:14073   */\n      tag_364\n      jump\t// in\n    tag_477:\n        /* \"#utility.yul\":13870:14080   */\n      swap3\n      swap2\n      pop\n      pop\n      jump\t// out\n        /* \"#utility.yul\":14086:14399   */\n    tag_29:\n        /* \"#utility.yul\":14199:14203   */\n      0x00\n        /* \"#utility.yul\":14237:14239   */\n      0x20\n        /* \"#utility.yul\":14226:14235   */\n      dup3\n        /* \"#utility.yul\":14222:14240   */\n      add\n        /* \"#utility.yul\":14214:14240   */\n      swap1\n      pop\n        /* \"#utility.yul\":14286:14295   */\n      dup2\n        /* \"#utility.yul\":14280:14284   */\n      dup2\n        /* \"#utility.yul\":14276:14296   */\n      sub\n        /* \"#utility.yul\":14272:14273   */\n      0x00\n        /* \"#utility.yul\":14261:14270   */\n      dup4\n        /* \"#utility.yul\":14257:14274   */\n      add\n        /* \"#utility.yul\":14250:14297   */\n      mstore\n        /* \"#utility.yul\":14314:14392   */\n      tag_479\n        /* \"#utility.yul\":14387:14391   */\n      dup2\n        /* \"#utility.yul\":14378:14384   */\n      dup5\n        /* \"#utility.yul\":14314:14392   */\n      tag_378\n      jump\t// in\n    tag_479:\n        /* \"#utility.yul\":14306:14392   */\n      swap1\n      pop\n        /* \"#utility.yul\":14086:14399   */\n      swap3\n      swap2\n      pop\n      pop\n      jump\t// out\n        /* \"#utility.yul\":14405:14824   */\n    tag_210:\n        /* \"#utility.yul\":14571:14575   */\n      0x00\n        /* \"#utility.yul\":14609:14611   */\n      0x20\n        /* \"#utility.yul\":14598:14607   */\n      dup3\n        /* \"#utility.yul\":14594:14612   */\n      add\n        /* \"#utility.yul\":14586:14612   */\n      swap1\n      pop\n        /* \"#utility.yul\":14658:14667   */\n      dup2\n        /* \"#utility.yul\":14652:14656   */\n      dup2\n        /* \"#utility.yul\":14648:14668   */\n      sub\n        /* \"#utility.yul\":14644:14645   */\n      0x00\n        /* \"#utility.yul\":14633:14642   */\n      dup4\n        /* \"#utility.yul\":14629:14646   */\n      add\n        /* \"#utility.yul\":14622:14669   */\n      mstore\n        /* \"#utility.yul\":14686:14817   */\n      tag_481\n        /* \"#utility.yul\":14812:14816   */\n      dup2\n        /* \"#utility.yul\":14686:14817   */\n      tag_392\n      jump\t// in\n    tag_481:\n        /* \"#utility.yul\":14678:14817   */\n      swap1\n      pop\n        /* \"#utility.yul\":14405:14824   */\n      swap2\n      swap1\n      pop\n      jump\t// out\n        /* \"#utility.yul\":14830:15249   */\n    tag_185:\n        /* \"#utility.yul\":14996:15000   */\n      0x00\n        /* \"#utility.yul\":15034:15036   */\n      0x20\n        /* \"#utility.yul\":15023:15032   */\n      dup3\n        /* \"#utility.yul\":15019:15037   */\n      add\n        /* \"#utility.yul\":15011:15037   */\n      swap1\n      pop\n        /* \"#utility.yul\":15083:15092   */\n      dup2\n        /* \"#utility.yul\":15077:15081   */\n      dup2\n        /* \"#utility.yul\":15073:15093   */\n      sub\n        /* \"#utility.yul\":15069:15070   */\n      0x00\n        /* \"#utility.yul\":15058:15067   */\n      dup4\n        /* \"#utility.yul\":15054:15071   */\n      add\n        /* \"#utility.yul\":15047:15094   */\n      mstore\n        /* \"#utility.yul\":15111:15242   */\n      tag_483\n        /* \"#utility.yul\":15237:15241   */\n      dup2\n        /* \"#utility.yul\":15111:15242   */\n      tag_397\n      jump\t// in\n    tag_483:\n        /* \"#utility.yul\":15103:15242   */\n      swap1\n      pop\n        /* \"#utility.yul\":14830:15249   */\n      swap2\n      swap1\n      pop\n      jump\t// out\n        /* \"#utility.yul\":15255:15674   */\n    tag_248:\n        /* \"#utility.yul\":15421:15425   */\n      0x00\n        /* \"#utility.yul\":15459:15461   */\n      0x20\n        /* \"#utility.yul\":15448:15457   */\n      dup3\n        /* \"#utility.yul\":15444:15462   */\n      add\n        /* \"#utility.yul\":15436:15462   */\n      swap1\n      pop\n        /* \"#utility.yul\":15508:15517   */\n      dup2\n        /* \"#utility.yul\":15502:15506   */\n      dup2\n        /* \"#utility.yul\":15498:15518   */\n      sub\n        /* \"#utility.yul\":15494:15495   */\n      0x00\n        /* \"#utility.yul\":15483:15492   */\n      dup4\n        /* \"#utility.yul\":15479:15496   */\n      add\n        /* \"#utility.yul\":15472:15519   */\n      mstore\n        /* \"#utility.yul\":15536:15667   */\n      tag_485\n        /* \"#utility.yul\":15662:15666   */\n      dup2\n        /* \"#utility.yul\":15536:15667   */\n      tag_402\n      jump\t// in\n    tag_485:\n        /* \"#utility.yul\":15528:15667   */\n      swap1\n      pop\n        /* \"#utility.yul\":15255:15674   */\n      swap2\n      swap1\n      pop\n      jump\t// out\n        /* \"#utility.yul\":15680:16099   */\n    tag_188:\n        /* \"#utility.yul\":15846:15850   */\n      0x00\n        /* \"#utility.yul\":15884:15886   */\n      0x20\n        /* \"#utility.yul\":15873:15882   */\n      dup3\n        /* \"#utility.yul\":15869:15887   */\n      add\n        /* \"#utility.yul\":15861:15887   */\n      swap1\n      pop\n        /* \"#utility.yul\":15933:15942   */\n      dup2\n        /* \"#utility.yul\":15927:15931   */\n      dup2\n        /* \"#utility.yul\":15923:15943   */\n      sub\n        /* \"#utility.yul\":15919:15920   */\n      0x00\n        /* \"#utility.yul\":15908:15917   */\n      dup4\n        /* \"#utility.yul\":15904:15921   */\n      add\n        /* \"#utility.yul\":15897:15944   */\n      mstore\n        /* \"#utility.yul\":15961:16092   */\n      tag_487\n        /* \"#utility.yul\":16087:16091   */\n      dup2\n        /* \"#utility.yul\":15961:16092   */\n      tag_407\n      jump\t// in\n    tag_487:\n        /* \"#utility.yul\":15953:16092   */\n      swap1\n      pop\n        /* \"#utility.yul\":15680:16099   */\n      swap2\n      swap1\n      pop\n      jump\t// out\n        /* \"#utility.yul\":16105:16524   */\n    tag_201:\n        /* \"#utility.yul\":16271:16275   */\n      0x00\n        /* \"#utility.yul\":16309:16311   */\n      0x20\n        /* \"#utility.yul\":16298:16307   */\n      dup3\n        /* \"#utility.yul\":16294:16312   */\n      add\n        /* \"#utility.yul\":16286:16312   */\n      swap1\n      pop\n        /* \"#utility.yul\":16358:16367   */\n      dup2\n        /* \"#utility.yul\":16352:16356   */\n      dup2\n        /* \"#utility.yul\":16348:16368   */\n      sub\n        /* \"#utility.yul\":16344:16345   */\n      0x00\n        /* \"#utility.yul\":16333:16342   */\n      dup4\n        /* \"#utility.yul\":16329:16346   */\n      add\n        /* \"#utility.yul\":16322:16369   */\n      mstore\n        /* \"#utility.yul\":16386:16517   */\n      tag_489\n        /* \"#utility.yul\":16512:16516   */\n      dup2\n        /* \"#utility.yul\":16386:16517   */\n      tag_412\n      jump\t// in\n    tag_489:\n        /* \"#utility.yul\":16378:16517   */\n      swap1\n      pop\n        /* \"#utility.yul\":16105:16524   */\n      swap2\n      swap1\n      pop\n      jump\t// out\n        /* \"#utility.yul\":16530:16949   */\n    tag_175:\n        /* \"#utility.yul\":16696:16700   */\n      0x00\n        /* \"#utility.yul\":16734:16736   */\n      0x20\n        /* \"#utility.yul\":16723:16732   */\n      dup3\n        /* \"#utility.yul\":16719:16737   */\n      add\n        /* \"#utility.yul\":16711:16737   */\n      swap1\n      pop\n        /* \"#utility.yul\":16783:16792   */\n      dup2\n        /* \"#utility.yul\":16777:16781   */\n      dup2\n        /* \"#utility.yul\":16773:16793   */\n      sub\n        /* \"#utility.yul\":16769:16770   */\n      0x00\n        /* \"#utility.yul\":16758:16767   */\n      dup4\n        /* \"#utility.yul\":16754:16771   */\n      add\n        /* \"#utility.yul\":16747:16794   */\n      mstore\n        /* \"#utility.yul\":16811:16942   */\n      tag_491\n        /* \"#utility.yul\":16937:16941   */\n      dup2\n        /* \"#utility.yul\":16811:16942   */\n      tag_417\n      jump\t// in\n    tag_491:\n        /* \"#utility.yul\":16803:16942   */\n      swap1\n      pop\n        /* \"#utility.yul\":16530:16949   */\n      swap2\n      swap1\n      pop\n      jump\t// out\n        /* \"#utility.yul\":16955:17374   */\n    tag_110:\n        /* \"#utility.yul\":17121:17125   */\n      0x00\n        /* \"#utility.yul\":17159:17161   */\n      0x20\n        /* \"#utility.yul\":17148:17157   */\n      dup3\n        /* \"#utility.yul\":17144:17162   */\n      add\n        /* \"#utility.yul\":17136:17162   */\n      swap1\n      pop\n        /* \"#utility.yul\":17208:17217   */\n      dup2\n        /* \"#utility.yul\":17202:17206   */\n      dup2\n        /* \"#utility.yul\":17198:17218   */\n      sub\n        /* \"#utility.yul\":17194:17195   */\n      0x00\n        /* \"#utility.yul\":17183:17192   */\n      dup4\n        /* \"#utility.yul\":17179:17196   */\n      add\n        /* \"#utility.yul\":17172:17219   */\n      mstore\n        /* \"#utility.yul\":17236:17367   */\n      tag_493\n        /* \"#utility.yul\":17362:17366   */\n      dup2\n        /* \"#utility.yul\":17236:17367   */\n      tag_422\n      jump\t// in\n    tag_493:\n        /* \"#utility.yul\":17228:17367   */\n      swap1\n      pop\n        /* \"#utility.yul\":16955:17374   */\n      swap2\n      swap1\n      pop\n      jump\t// out\n        /* \"#utility.yul\":17380:17799   */\n    tag_131:\n        /* \"#utility.yul\":17546:17550   */\n      0x00\n        /* \"#utility.yul\":17584:17586   */\n      0x20\n        /* \"#utility.yul\":17573:17582   */\n      dup3\n        /* \"#utility.yul\":17569:17587   */\n      add\n        /* \"#utility.yul\":17561:17587   */\n      swap1\n      pop\n        /* \"#utility.yul\":17633:17642   */\n      dup2\n        /* \"#utility.yul\":17627:17631   */\n      dup2\n        /* \"#utility.yul\":17623:17643   */\n      sub\n        /* \"#utility.yul\":17619:17620   */\n      0x00\n        /* \"#utility.yul\":17608:17617   */\n      dup4\n        /* \"#utility.yul\":17604:17621   */\n      add\n        /* \"#utility.yul\":17597:17644   */\n      mstore\n        /* \"#utility.yul\":17661:17792   */\n      tag_495\n        /* \"#utility.yul\":17787:17791   */\n      dup2\n        /* \"#utility.yul\":17661:17792   */\n      tag_427\n      jump\t// in\n    tag_495:\n        /* \"#utility.yul\":17653:17792   */\n      swap1\n      pop\n        /* \"#utility.yul\":17380:17799   */\n      swap2\n      swap1\n      pop\n      jump\t// out\n        /* \"#utility.yul\":17805:18224   */\n    tag_127:\n        /* \"#utility.yul\":17971:17975   */\n      0x00\n        /* \"#utility.yul\":18009:18011   */\n      0x20\n        /* \"#utility.yul\":17998:18007   */\n      dup3\n        /* \"#utility.yul\":17994:18012   */\n      add\n        /* \"#utility.yul\":17986:18012   */\n      swap1\n      pop\n        /* \"#utility.yul\":18058:18067   */\n      dup2\n        /* \"#utility.yul\":18052:18056   */\n      dup2\n        /* \"#utility.yul\":18048:18068   */\n      sub\n        /* \"#utility.yul\":18044:18045   */\n      0x00\n        /* \"#utility.yul\":18033:18042   */\n      dup4\n        /* \"#utility.yul\":18029:18046   */\n      add\n        /* \"#utility.yul\":18022:18069   */\n      mstore\n        /* \"#utility.yul\":18086:18217   */\n      tag_497\n        /* \"#utility.yul\":18212:18216   */\n      dup2\n        /* \"#utility.yul\":18086:18217   */\n      tag_432\n      jump\t// in\n    tag_497:\n        /* \"#utility.yul\":18078:18217   */\n      swap1\n      pop\n        /* \"#utility.yul\":17805:18224   */\n      swap2\n      swap1\n      pop\n      jump\t// out\n        /* \"#utility.yul\":18230:18649   */\n    tag_244:\n        /* \"#utility.yul\":18396:18400   */\n      0x00\n        /* \"#utility.yul\":18434:18436   */\n      0x20\n        /* \"#utility.yul\":18423:18432   */\n      dup3\n        /* \"#utility.yul\":18419:18437   */\n      add\n        /* \"#utility.yul\":18411:18437   */\n      swap1\n      pop\n        /* \"#utility.yul\":18483:18492   */\n      dup2\n        /* \"#utility.yul\":18477:18481   */\n      dup2\n        /* \"#utility.yul\":18473:18493   */\n      sub\n        /* \"#utility.yul\":18469:18470   */\n      0x00\n        /* \"#utility.yul\":18458:18467   */\n      dup4\n        /* \"#utility.yul\":18454:18471   */\n      add\n        /* \"#utility.yul\":18447:18494   */\n      mstore\n        /* \"#utility.yul\":18511:18642   */\n      tag_499\n        /* \"#utility.yul\":18637:18641   */\n      dup2\n        /* \"#utility.yul\":18511:18642   */\n      tag_437\n      jump\t// in\n    tag_499:\n        /* \"#utility.yul\":18503:18642   */\n      swap1\n      pop\n        /* \"#utility.yul\":18230:18649   */\n      swap2\n      swap1\n      pop\n      jump\t// out\n        /* \"#utility.yul\":18655:19074   */\n    tag_97:\n        /* \"#utility.yul\":18821:18825   */\n      0x00\n        /* \"#utility.yul\":18859:18861   */\n      0x20\n        /* \"#utility.yul\":18848:18857   */\n      dup3\n        /* \"#utility.yul\":18844:18862   */\n      add\n        /* \"#utility.yul\":18836:18862   */\n      swap1\n      pop\n        /* \"#utility.yul\":18908:18917   */\n      dup2\n        /* \"#utility.yul\":18902:18906   */\n      dup2\n        /* \"#utility.yul\":18898:18918   */\n      sub\n        /* \"#utility.yul\":18894:18895   */\n      0x00\n        /* \"#utility.yul\":18883:18892   */\n      dup4\n        /* \"#utility.yul\":18879:18896   */\n      add\n        /* \"#utility.yul\":18872:18919   */\n      mstore\n        /* \"#utility.yul\":18936:19067   */\n      tag_501\n        /* \"#utility.yul\":19062:19066   */\n      dup2\n        /* \"#utility.yul\":18936:19067   */\n      tag_442\n      jump\t// in\n    tag_501:\n        /* \"#utility.yul\":18928:19067   */\n      swap1\n      pop\n        /* \"#utility.yul\":18655:19074   */\n      swap2\n      swap1\n      pop\n      jump\t// out\n        /* \"#utility.yul\":19080:19499   */\n    tag_156:\n        /* \"#utility.yul\":19246:19250   */\n      0x00\n        /* \"#utility.yul\":19284:19286   */\n      0x20\n        /* \"#utility.yul\":19273:19282   */\n      dup3\n        /* \"#utility.yul\":19269:19287   */\n      add\n        /* \"#utility.yul\":19261:19287   */\n      swap1\n      pop\n        /* \"#utility.yul\":19333:19342   */\n      dup2\n        /* \"#utility.yul\":19327:19331   */\n      dup2\n        /* \"#utility.yul\":19323:19343   */\n      sub\n        /* \"#utility.yul\":19319:19320   */\n      0x00\n        /* \"#utility.yul\":19308:19317   */\n      dup4\n        /* \"#utility.yul\":19304:19321   */\n      add\n        /* \"#utility.yul\":19297:19344   */\n      mstore\n        /* \"#utility.yul\":19361:19492   */\n      tag_503\n        /* \"#utility.yul\":19487:19491   */\n      dup2\n        /* \"#utility.yul\":19361:19492   */\n      tag_447\n      jump\t// in\n    tag_503:\n        /* \"#utility.yul\":19353:19492   */\n      swap1\n      pop\n        /* \"#utility.yul\":19080:19499   */\n      swap2\n      swap1\n      pop\n      jump\t// out\n        /* \"#utility.yul\":19505:19924   */\n    tag_102:\n        /* \"#utility.yul\":19671:19675   */\n      0x00\n        /* \"#utility.yul\":19709:19711   */\n      0x20\n        /* \"#utility.yul\":19698:19707   */\n      dup3\n        /* \"#utility.yul\":19694:19712   */\n      add\n        /* \"#utility.yul\":19686:19712   */\n      swap1\n      pop\n        /* \"#utility.yul\":19758:19767   */\n      dup2\n        /* \"#utility.yul\":19752:19756   */\n      dup2\n        /* \"#utility.yul\":19748:19768   */\n      sub\n        /* \"#utility.yul\":19744:19745   */\n      0x00\n        /* \"#utility.yul\":19733:19742   */\n      dup4\n        /* \"#utility.yul\":19729:19746   */\n      add\n        /* \"#utility.yul\":19722:19769   */\n      mstore\n        /* \"#utility.yul\":19786:19917   */\n      tag_505\n        /* \"#utility.yul\":19912:19916   */\n      dup2\n        /* \"#utility.yul\":19786:19917   */\n      tag_452\n      jump\t// in\n    tag_505:\n        /* \"#utility.yul\":19778:19917   */\n      swap1\n      pop\n        /* \"#utility.yul\":19505:19924   */\n      swap2\n      swap1\n      pop\n      jump\t// out\n        /* \"#utility.yul\":19930:20349   */\n    tag_119:\n        /* \"#utility.yul\":20096:20100   */\n      0x00\n        /* \"#utility.yul\":20134:20136   */\n      0x20\n        /* \"#utility.yul\":20123:20132   */\n      dup3\n        /* \"#utility.yul\":20119:20137   */\n      add\n        /* \"#utility.yul\":20111:20137   */\n      swap1\n      pop\n        /* \"#utility.yul\":20183:20192   */\n      dup2\n        /* \"#utility.yul\":20177:20181   */\n      dup2\n        /* \"#utility.yul\":20173:20193   */\n      sub\n        /* \"#utility.yul\":20169:20170   */\n      0x00\n        /* \"#utility.yul\":20158:20167   */\n      dup4\n        /* \"#utility.yul\":20154:20171   */\n      add\n        /* \"#utility.yul\":20147:20194   */\n      mstore\n        /* \"#utility.yul\":20211:20342   */\n      tag_507\n        /* \"#utility.yul\":20337:20341   */\n      dup2\n        /* \"#utility.yul\":20211:20342   */\n      tag_457\n      jump\t// in\n    tag_507:\n        /* \"#utility.yul\":20203:20342   */\n      swap1\n      pop\n        /* \"#utility.yul\":19930:20349   */\n      swap2\n      swap1\n      pop\n      jump\t// out\n        /* \"#utility.yul\":20355:20577   */\n    tag_56:\n        /* \"#utility.yul\":20448:20452   */\n      0x00\n        /* \"#utility.yul\":20486:20488   */\n      0x20\n        /* \"#utility.yul\":20475:20484   */\n      dup3\n        /* \"#utility.yul\":20471:20489   */\n      add\n        /* \"#utility.yul\":20463:20489   */\n      swap1\n      pop\n        /* \"#utility.yul\":20499:20570   */\n      tag_509\n        /* \"#utility.yul\":20567:20568   */\n      0x00\n        /* \"#utility.yul\":20556:20565   */\n      dup4\n        /* \"#utility.yul\":20552:20569   */\n      add\n        /* \"#utility.yul\":20543:20549   */\n      dup5\n        /* \"#utility.yul\":20499:20570   */\n      tag_462\n      jump\t// in\n    tag_509:\n        /* \"#utility.yul\":20355:20577   */\n      swap3\n      swap2\n      pop\n      pop\n      jump\t// out\n        /* \"#utility.yul\":20583:20712   */\n    tag_281:\n        /* \"#utility.yul\":20617:20623   */\n      0x00\n        /* \"#utility.yul\":20644:20664   */\n      tag_511\n      tag_512\n      jump\t// in\n    tag_511:\n        /* \"#utility.yul\":20634:20664   */\n      swap1\n      pop\n        /* \"#utility.yul\":20673:20706   */\n      tag_513\n        /* \"#utility.yul\":20701:20705   */\n      dup3\n        /* \"#utility.yul\":20693:20699   */\n      dup3\n        /* \"#utility.yul\":20673:20706   */\n      tag_514\n      jump\t// in\n    tag_513:\n        /* \"#utility.yul\":20583:20712   */\n      swap2\n      swap1\n      pop\n      jump\t// out\n        /* \"#utility.yul\":20718:20793   */\n    tag_512:\n        /* \"#utility.yul\":20751:20757   */\n      0x00\n        /* \"#utility.yul\":20784:20786   */\n      0x40\n        /* \"#utility.yul\":20778:20787   */\n      mload\n        /* \"#utility.yul\":20768:20787   */\n      swap1\n      pop\n        /* \"#utility.yul\":20718:20793   */\n      swap1\n      jump\t// out\n        /* \"#utility.yul\":20799:21106   */\n    tag_280:\n        /* \"#utility.yul\":20860:20864   */\n      0x00\n        /* \"#utility.yul\":20950:20968   */\n      0xffffffffffffffff\n        /* \"#utility.yul\":20942:20948   */\n      dup3\n        /* \"#utility.yul\":20939:20969   */\n      gt\n        /* \"#utility.yul\":20936:20992   */\n      iszero\n      tag_517\n      jumpi\n        /* \"#utility.yul\":20972:20990   */\n      tag_518\n      tag_227\n      jump\t// in\n    tag_518:\n        /* \"#utility.yul\":20936:20992   */\n    tag_517:\n        /* \"#utility.yul\":21010:21039   */\n      tag_519\n        /* \"#utility.yul\":21032:21038   */\n      dup3\n        /* \"#utility.yul\":21010:21039   */\n      tag_377\n      jump\t// in\n    tag_519:\n        /* \"#utility.yul\":21002:21039   */\n      swap1\n      pop\n        /* \"#utility.yul\":21094:21098   */\n      0x20\n        /* \"#utility.yul\":21088:21092   */\n      dup2\n        /* \"#utility.yul\":21084:21099   */\n      add\n        /* \"#utility.yul\":21076:21099   */\n      swap1\n      pop\n        /* \"#utility.yul\":20799:21106   */\n      swap2\n      swap1\n      pop\n      jump\t// out\n        /* \"#utility.yul\":21112:21210   */\n    tag_371:\n        /* \"#utility.yul\":21163:21169   */\n      0x00\n        /* \"#utility.yul\":21197:21202   */\n      dup2\n        /* \"#utility.yul\":21191:21203   */\n      mload\n        /* \"#utility.yul\":21181:21203   */\n      swap1\n      pop\n        /* \"#utility.yul\":21112:21210   */\n      swap2\n      swap1\n      pop\n      jump\t// out\n        /* \"#utility.yul\":21216:21315   */\n    tag_381:\n        /* \"#utility.yul\":21268:21274   */\n      0x00\n        /* \"#utility.yul\":21302:21307   */\n      dup2\n        /* \"#utility.yul\":21296:21308   */\n      mload\n        /* \"#utility.yul\":21286:21308   */\n      swap1\n      pop\n        /* \"#utility.yul\":21216:21315   */\n      swap2\n      swap1\n      pop\n      jump\t// out\n        /* \"#utility.yul\":21321:21489   */\n    tag_373:\n        /* \"#utility.yul\":21404:21415   */\n      0x00\n        /* \"#utility.yul\":21438:21444   */\n      dup3\n        /* \"#utility.yul\":21433:21436   */\n      dup3\n        /* \"#utility.yul\":21426:21445   */\n      mstore\n        /* \"#utility.yul\":21478:21482   */\n      0x20\n        /* \"#utility.yul\":21473:21476   */\n      dup3\n        /* \"#utility.yul\":21469:21483   */\n      add\n        /* \"#utility.yul\":21454:21483   */\n      swap1\n      pop\n        /* \"#utility.yul\":21321:21489   */\n      swap3\n      swap2\n      pop\n      pop\n      jump\t// out\n        /* \"#utility.yul\":21495:21664   */\n    tag_383:\n        /* \"#utility.yul\":21579:21590   */\n      0x00\n        /* \"#utility.yul\":21613:21619   */\n      dup3\n        /* \"#utility.yul\":21608:21611   */\n      dup3\n        /* \"#utility.yul\":21601:21620   */\n      mstore\n        /* \"#utility.yul\":21653:21657   */\n      0x20\n        /* \"#utility.yul\":21648:21651   */\n      dup3\n        /* \"#utility.yul\":21644:21658   */\n      add\n        /* \"#utility.yul\":21629:21658   */\n      swap1\n      pop\n        /* \"#utility.yul\":21495:21664   */\n      swap3\n      swap2\n      pop\n      pop\n      jump\t// out\n        /* \"#utility.yul\":21670:21818   */\n    tag_390:\n        /* \"#utility.yul\":21772:21783   */\n      0x00\n        /* \"#utility.yul\":21809:21812   */\n      dup2\n        /* \"#utility.yul\":21794:21812   */\n      swap1\n      pop\n        /* \"#utility.yul\":21670:21818   */\n      swap3\n      swap2\n      pop\n      pop\n      jump\t// out\n        /* \"#utility.yul\":21824:22129   */\n    tag_195:\n        /* \"#utility.yul\":21864:21867   */\n      0x00\n        /* \"#utility.yul\":21883:21903   */\n      tag_526\n        /* \"#utility.yul\":21901:21902   */\n      dup3\n        /* \"#utility.yul\":21883:21903   */\n      tag_465\n      jump\t// in\n    tag_526:\n        /* \"#utility.yul\":21878:21903   */\n      swap2\n      pop\n        /* \"#utility.yul\":21917:21937   */\n      tag_527\n        /* \"#utility.yul\":21935:21936   */\n      dup4\n        /* \"#utility.yul\":21917:21937   */\n      tag_465\n      jump\t// in\n    tag_527:\n        /* \"#utility.yul\":21912:21937   */\n      swap3\n      pop\n        /* \"#utility.yul\":22071:22072   */\n      dup3\n        /* \"#utility.yul\":22003:22069   */\n      0xffffffffffffffffffffffffffffffffffffffffffffffffffffffffffffffff\n        /* \"#utility.yul\":21999:22073   */\n      sub\n        /* \"#utility.yul\":21996:21997   */\n      dup3\n        /* \"#utility.yul\":21993:22074   */\n      gt\n        /* \"#utility.yul\":21990:22097   */\n      iszero\n      tag_528\n      jumpi\n        /* \"#utility.yul\":22077:22095   */\n      tag_529\n      tag_530\n      jump\t// in\n    tag_529:\n        /* \"#utility.yul\":21990:22097   */\n    tag_528:\n        /* \"#utility.yul\":22121:22122   */\n      dup3\n        /* \"#utility.yul\":22118:22119   */\n      dup3\n        /* \"#utility.yul\":22114:22123   */\n      add\n        /* \"#utility.yul\":22107:22123   */\n      swap1\n      pop\n        /* \"#utility.yul\":21824:22129   */\n      swap3\n      swap2\n      pop\n      pop\n      jump\t// out\n        /* \"#utility.yul\":22135:22320   */\n    tag_224:\n        /* \"#utility.yul\":22175:22176   */\n      0x00\n        /* \"#utility.yul\":22192:22212   */\n      tag_532\n        /* \"#utility.yul\":22210:22211   */\n      dup3\n        /* \"#utility.yul\":22192:22212   */\n      tag_465\n      jump\t// in\n    tag_532:\n        /* \"#utility.yul\":22187:22212   */\n      swap2\n      pop\n        /* \"#utility.yul\":22226:22246   */\n      tag_533\n        /* \"#utility.yul\":22244:22245   */\n      dup4\n        /* \"#utility.yul\":22226:22246   */\n      tag_465\n      jump\t// in\n    tag_533:\n        /* \"#utility.yul\":22221:22246   */\n      swap3\n      pop\n        /* \"#utility.yul\":22265:22266   */\n      dup3\n        /* \"#utility.yul\":22255:22290   */\n      tag_534\n      jumpi\n        /* \"#utility.yul\":22270:22288   */\n      tag_535\n      tag_536\n      jump\t// in\n    tag_535:\n        /* \"#utility.yul\":22255:22290   */\n    tag_534:\n        /* \"#utility.yul\":22312:22313   */\n      dup3\n        /* \"#utility.yul\":22309:22310   */\n      dup3\n        /* \"#utility.yul\":22305:22314   */\n      div\n        /* \"#utility.yul\":22300:22314   */\n      swap1\n      pop\n        /* \"#utility.yul\":22135:22320   */\n      swap3\n      swap2\n      pop\n      pop\n      jump\t// out\n        /* \"#utility.yul\":22326:22517   */\n    tag_193:\n        /* \"#utility.yul\":22366:22370   */\n      0x00\n        /* \"#utility.yul\":22386:22406   */\n      tag_538\n        /* \"#utility.yul\":22404:22405   */\n      dup3\n        /* \"#utility.yul\":22386:22406   */\n      tag_465\n      jump\t// in\n    tag_538:\n        /* \"#utility.yul\":22381:22406   */\n      swap2\n      pop\n        /* \"#utility.yul\":22420:22440   */\n      tag_539\n        /* \"#utility.yul\":22438:22439   */\n      dup4\n        /* \"#utility.yul\":22420:22440   */\n      tag_465\n      jump\t// in\n    tag_539:\n        /* \"#utility.yul\":22415:22440   */\n      swap3\n      pop\n        /* \"#utility.yul\":22459:22460   */\n      dup3\n        /* \"#utility.yul\":22456:22457   */\n      dup3\n        /* \"#utility.yul\":22453:22461   */\n      lt\n        /* \"#utility.yul\":22450:22484   */\n      iszero\n      tag_540\n      jumpi\n        /* \"#utility.yul\":22464:22482   */\n      tag_541\n      tag_530\n      jump\t// in\n    tag_541:\n        /* \"#utility.yul\":22450:22484   */\n    tag_540:\n        /* \"#utility.yul\":22509:22510   */\n      dup3\n        /* \"#utility.yul\":22506:22507   */\n      dup3\n        /* \"#utility.yul\":22502:22511   */\n      sub\n        /* \"#utility.yul\":22494:22511   */\n      swap1\n      pop\n        /* \"#utility.yul\":22326:22517   */\n      swap3\n      swap2\n      pop\n      pop\n      jump\t// out\n        /* \"#utility.yul\":22523:22619   */\n    tag_363:\n        /* \"#utility.yul\":22560:22567   */\n      0x00\n        /* \"#utility.yul\":22589:22613   */\n      tag_543\n        /* \"#utility.yul\":22607:22612   */\n      dup3\n        /* \"#utility.yul\":22589:22613   */\n      tag_544\n      jump\t// in\n    tag_543:\n        /* \"#utility.yul\":22578:22613   */\n      swap1\n      pop\n        /* \"#utility.yul\":22523:22619   */\n      swap2\n      swap1\n      pop\n      jump\t// out\n        /* \"#utility.yul\":22625:22715   */\n    tag_367:\n        /* \"#utility.yul\":22659:22666   */\n      0x00\n        /* \"#utility.yul\":22702:22707   */\n      dup2\n        /* \"#utility.yul\":22695:22708   */\n      iszero\n        /* \"#utility.yul\":22688:22709   */\n      iszero\n        /* \"#utility.yul\":22677:22709   */\n      swap1\n      pop\n        /* \"#utility.yul\":22625:22715   */\n      swap2\n      swap1\n      pop\n      jump\t// out\n        /* \"#utility.yul\":22721:22870   */\n    tag_546:\n        /* \"#utility.yul\":22757:22764   */\n      0x00\n        /* \"#utility.yul\":22797:22863   */\n      0xffffffff00000000000000000000000000000000000000000000000000000000\n        /* \"#utility.yul\":22790:22795   */\n      dup3\n        /* \"#utility.yul\":22786:22864   */\n      and\n        /* \"#utility.yul\":22775:22864   */\n      swap1\n      pop\n        /* \"#utility.yul\":22721:22870   */\n      swap2\n      swap1\n      pop\n      jump\t// out\n        /* \"#utility.yul\":22876:23002   */\n    tag_544:\n        /* \"#utility.yul\":22913:22920   */\n      0x00\n        /* \"#utility.yul\":22953:22995   */\n      0xffffffffffffffffffffffffffffffffffffffff\n        /* \"#utility.yul\":22946:22951   */\n      dup3\n        /* \"#utility.yul\":22942:22996   */\n      and\n        /* \"#utility.yul\":22931:22996   */\n      swap1\n      pop\n        /* \"#utility.yul\":22876:23002   */\n      swap2\n      swap1\n      pop\n      jump\t// out\n        /* \"#utility.yul\":23008:23085   */\n    tag_465:\n        /* \"#utility.yul\":23045:23052   */\n      0x00\n        /* \"#utility.yul\":23074:23079   */\n      dup2\n        /* \"#utility.yul\":23063:23079   */\n      swap1\n      pop\n        /* \"#utility.yul\":23008:23085   */\n      swap2\n      swap1\n      pop\n      jump\t// out\n        /* \"#utility.yul\":23091:23245   */\n    tag_286:\n        /* \"#utility.yul\":23175:23181   */\n      dup3\n        /* \"#utility.yul\":23170:23173   */\n      dup2\n        /* \"#utility.yul\":23165:23168   */\n      dup4\n        /* \"#utility.yul\":23152:23182   */\n      calldatacopy\n        /* \"#utility.yul\":23237:23238   */\n      0x00\n        /* \"#utility.yul\":23228:23234   */\n      dup4\n        /* \"#utility.yul\":23223:23226   */\n      dup4\n        /* \"#utility.yul\":23219:23235   */\n      add\n        /* \"#utility.yul\":23212:23239   */\n      mstore\n        /* \"#utility.yul\":23091:23245   */\n      pop\n      pop\n      pop\n      jump\t// out\n        /* \"#utility.yul\":23251:23558   */\n    tag_375:\n        /* \"#utility.yul\":23319:23320   */\n      0x00\n        /* \"#utility.yul\":23329:23442   */\n    tag_552:\n        /* \"#utility.yul\":23343:23349   */\n      dup4\n        /* \"#utility.yul\":23340:23341   */\n      dup2\n        /* \"#utility.yul\":23337:23350   */\n      lt\n        /* \"#utility.yul\":23329:23442   */\n      iszero\n      tag_554\n      jumpi\n        /* \"#utility.yul\":23428:23429   */\n      dup1\n        /* \"#utility.yul\":23423:23426   */\n      dup3\n        /* \"#utility.yul\":23419:23430   */\n      add\n        /* \"#utility.yul\":23413:23431   */\n      mload\n        /* \"#utility.yul\":23409:23410   */\n      dup2\n        /* \"#utility.yul\":23404:23407   */\n      dup5\n        /* \"#utility.yul\":23400:23411   */\n      add\n        /* \"#utility.yul\":23393:23432   */\n      mstore\n        /* \"#utility.yul\":23365:23367   */\n      0x20\n        /* \"#utility.yul\":23362:23363   */\n      dup2\n        /* \"#utility.yul\":23358:23368   */\n      add\n        /* \"#utility.yul\":23353:23368   */\n      swap1\n      pop\n        /* \"#utility.yul\":23329:23442   */\n      jump(tag_552)\n    tag_554:\n        /* \"#utility.yul\":23460:23466   */\n      dup4\n        /* \"#utility.yul\":23457:23458   */\n      dup2\n        /* \"#utility.yul\":23454:23467   */\n      gt\n        /* \"#utility.yul\":23451:23552   */\n      iszero\n      tag_555\n      jumpi\n        /* \"#utility.yul\":23540:23541   */\n      0x00\n        /* \"#utility.yul\":23531:23537   */\n      dup5\n        /* \"#utility.yul\":23526:23529   */\n      dup5\n        /* \"#utility.yul\":23522:23538   */\n      add\n        /* \"#utility.yul\":23515:23542   */\n      mstore\n        /* \"#utility.yul\":23451:23552   */\n    tag_555:\n        /* \"#utility.yul\":23300:23558   */\n      pop\n        /* \"#utility.yul\":23251:23558   */\n      pop\n      pop\n      pop\n      jump\t// out\n        /* \"#utility.yul\":23564:23884   */\n    tag_87:\n        /* \"#utility.yul\":23608:23614   */\n      0x00\n        /* \"#utility.yul\":23645:23646   */\n      0x02\n        /* \"#utility.yul\":23639:23643   */\n      dup3\n        /* \"#utility.yul\":23635:23647   */\n      div\n        /* \"#utility.yul\":23625:23647   */\n      swap1\n      pop\n        /* \"#utility.yul\":23692:23693   */\n      0x01\n        /* \"#utility.yul\":23686:23690   */\n      dup3\n        /* \"#utility.yul\":23682:23694   */\n      and\n        /* \"#utility.yul\":23713:23731   */\n      dup1\n        /* \"#utility.yul\":23703:23784   */\n      tag_557\n      jumpi\n        /* \"#utility.yul\":23769:23773   */\n      0x7f\n        /* \"#utility.yul\":23761:23767   */\n      dup3\n        /* \"#utility.yul\":23757:23774   */\n      and\n        /* \"#utility.yul\":23747:23774   */\n      swap2\n      pop\n        /* \"#utility.yul\":23703:23784   */\n    tag_557:\n        /* \"#utility.yul\":23831:23833   */\n      0x20\n        /* \"#utility.yul\":23823:23829   */\n      dup3\n        /* \"#utility.yul\":23820:23834   */\n      lt\n        /* \"#utility.yul\":23800:23818   */\n      dup2\n        /* \"#utility.yul\":23797:23835   */\n      eq\n        /* \"#utility.yul\":23794:23878   */\n      iszero\n      tag_558\n      jumpi\n        /* \"#utility.yul\":23850:23868   */\n      tag_559\n      tag_560\n      jump\t// in\n    tag_559:\n        /* \"#utility.yul\":23794:23878   */\n    tag_558:\n        /* \"#utility.yul\":23615:23884   */\n      pop\n        /* \"#utility.yul\":23564:23884   */\n      swap2\n      swap1\n      pop\n      jump\t// out\n        /* \"#utility.yul\":23890:24171   */\n    tag_514:\n        /* \"#utility.yul\":23973:24000   */\n      tag_562\n        /* \"#utility.yul\":23995:23999   */\n      dup3\n        /* \"#utility.yul\":23973:24000   */\n      tag_377\n      jump\t// in\n    tag_562:\n        /* \"#utility.yul\":23965:23971   */\n      dup2\n        /* \"#utility.yul\":23961:24001   */\n      add\n        /* \"#utility.yul\":24103:24109   */\n      dup2\n        /* \"#utility.yul\":24091:24101   */\n      dup2\n        /* \"#utility.yul\":24088:24110   */\n      lt\n        /* \"#utility.yul\":24067:24085   */\n      0xffffffffffffffff\n        /* \"#utility.yul\":24055:24065   */\n      dup3\n        /* \"#utility.yul\":24052:24086   */\n      gt\n        /* \"#utility.yul\":24049:24111   */\n      or\n        /* \"#utility.yul\":24046:24134   */\n      iszero\n      tag_563\n      jumpi\n        /* \"#utility.yul\":24114:24132   */\n      tag_564\n      tag_227\n      jump\t// in\n    tag_564:\n        /* \"#utility.yul\":24046:24134   */\n    tag_563:\n        /* \"#utility.yul\":24154:24164   */\n      dup1\n        /* \"#utility.yul\":24150:24152   */\n      0x40\n        /* \"#utility.yul\":24143:24165   */\n      mstore\n        /* \"#utility.yul\":23933:24171   */\n      pop\n        /* \"#utility.yul\":23890:24171   */\n      pop\n      pop\n      jump\t// out\n        /* \"#utility.yul\":24177:24410   */\n    tag_222:\n        /* \"#utility.yul\":24216:24219   */\n      0x00\n        /* \"#utility.yul\":24239:24263   */\n      tag_566\n        /* \"#utility.yul\":24257:24262   */\n      dup3\n        /* \"#utility.yul\":24239:24263   */\n      tag_465\n      jump\t// in\n    tag_566:\n        /* \"#utility.yul\":24230:24263   */\n      swap2\n      pop\n        /* \"#utility.yul\":24285:24351   */\n      0xffffffffffffffffffffffffffffffffffffffffffffffffffffffffffffffff\n        /* \"#utility.yul\":24278:24283   */\n      dup3\n        /* \"#utility.yul\":24275:24352   */\n      eq\n        /* \"#utility.yul\":24272:24375   */\n      iszero\n      tag_567\n      jumpi\n        /* \"#utility.yul\":24355:24373   */\n      tag_568\n      tag_530\n      jump\t// in\n    tag_568:\n        /* \"#utility.yul\":24272:24375   */\n    tag_567:\n        /* \"#utility.yul\":24402:24403   */\n      0x01\n        /* \"#utility.yul\":24395:24400   */\n      dup3\n        /* \"#utility.yul\":24391:24404   */\n      add\n        /* \"#utility.yul\":24384:24404   */\n      swap1\n      pop\n        /* \"#utility.yul\":24177:24410   */\n      swap2\n      swap1\n      pop\n      jump\t// out\n        /* \"#utility.yul\":24416:24592   */\n    tag_233:\n        /* \"#utility.yul\":24448:24449   */\n      0x00\n        /* \"#utility.yul\":24465:24485   */\n      tag_570\n        /* \"#utility.yul\":24483:24484   */\n      dup3\n        /* \"#utility.yul\":24465:24485   */\n      tag_465\n      jump\t// in\n    tag_570:\n        /* \"#utility.yul\":24460:24485   */\n      swap2\n      pop\n        /* \"#utility.yul\":24499:24519   */\n      tag_571\n        /* \"#utility.yul\":24517:24518   */\n      dup4\n        /* \"#utility.yul\":24499:24519   */\n      tag_465\n      jump\t// in\n    tag_571:\n        /* \"#utility.yul\":24494:24519   */\n      swap3\n      pop\n        /* \"#utility.yul\":24538:24539   */\n      dup3\n        /* \"#utility.yul\":24528:24563   */\n      tag_572\n      jumpi\n        /* \"#utility.yul\":24543:24561   */\n      tag_573\n      tag_536\n      jump\t// in\n    tag_573:\n        /* \"#utility.yul\":24528:24563   */\n    tag_572:\n        /* \"#utility.yul\":24584:24585   */\n      dup3\n        /* \"#utility.yul\":24581:24582   */\n      dup3\n        /* \"#utility.yul\":24577:24586   */\n      mod\n        /* \"#utility.yul\":24572:24586   */\n      swap1\n      pop\n        /* \"#utility.yul\":24416:24592   */\n      swap3\n      swap2\n      pop\n      pop\n      jump\t// out\n        /* \"#utility.yul\":24598:24778   */\n    tag_530:\n        /* \"#utility.yul\":24646:24723   */\n      0x4e487b7100000000000000000000000000000000000000000000000000000000\n        /* \"#utility.yul\":24643:24644   */\n      0x00\n        /* \"#utility.yul\":24636:24724   */\n      mstore\n        /* \"#utility.yul\":24743:24747   */\n      0x11\n        /* \"#utility.yul\":24740:24741   */\n      0x04\n        /* \"#utility.yul\":24733:24748   */\n      mstore\n        /* \"#utility.yul\":24767:24771   */\n      0x24\n        /* \"#utility.yul\":24764:24765   */\n      0x00\n        /* \"#utility.yul\":24757:24772   */\n      revert\n        /* \"#utility.yul\":24784:24964   */\n    tag_536:\n        /* \"#utility.yul\":24832:24909   */\n      0x4e487b7100000000000000000000000000000000000000000000000000000000\n        /* \"#utility.yul\":24829:24830   */\n      0x00\n        /* \"#utility.yul\":24822:24910   */\n      mstore\n        /* \"#utility.yul\":24929:24933   */\n      0x12\n        /* \"#utility.yul\":24926:24927   */\n      0x04\n        /* \"#utility.yul\":24919:24934   */\n      mstore\n        /* \"#utility.yul\":24953:24957   */\n      0x24\n        /* \"#utility.yul\":24950:24951   */\n      0x00\n        /* \"#utility.yul\":24943:24958   */\n      revert\n        /* \"#utility.yul\":24970:25150   */\n    tag_560:\n        /* \"#utility.yul\":25018:25095   */\n      0x4e487b7100000000000000000000000000000000000000000000000000000000\n        /* \"#utility.yul\":25015:25016   */\n      0x00\n        /* \"#utility.yul\":25008:25096   */\n      mstore\n        /* \"#utility.yul\":25115:25119   */\n      0x22\n        /* \"#utility.yul\":25112:25113   */\n      0x04\n        /* \"#utility.yul\":25105:25120   */\n      mstore\n        /* \"#utility.yul\":25139:25143   */\n      0x24\n        /* \"#utility.yul\":25136:25137   */\n      0x00\n        /* \"#utility.yul\":25129:25144   */\n      revert\n        /* \"#utility.yul\":25156:25336   */\n    tag_237:\n        /* \"#utility.yul\":25204:25281   */\n      0x4e487b7100000000000000000000000000000000000000000000000000000000\n        /* \"#utility.yul\":25201:25202   */\n      0x00\n        /* \"#utility.yul\":25194:25282   */\n      mstore\n        /* \"#utility.yul\":25301:25305   */\n      0x32\n        /* \"#utility.yul\":25298:25299   */\n      0x04\n        /* \"#utility.yul\":25291:25306   */\n      mstore\n        /* \"#utility.yul\":25325:25329   */\n      0x24\n        /* \"#utility.yul\":25322:25323   */\n      0x00\n        /* \"#utility.yul\":25315:25330   */\n      revert\n        /* \"#utility.yul\":25342:25522   */\n    tag_227:\n        /* \"#utility.yul\":25390:25467   */\n      0x4e487b7100000000000000000000000000000000000000000000000000000000\n        /* \"#utility.yul\":25387:25388   */\n      0x00\n        /* \"#utility.yul\":25380:25468   */\n      mstore\n        /* \"#utility.yul\":25487:25491   */\n      0x41\n        /* \"#utility.yul\":25484:25485   */\n      0x04\n        /* \"#utility.yul\":25477:25492   */\n      mstore\n        /* \"#utility.yul\":25511:25515   */\n      0x24\n        /* \"#utility.yul\":25508:25509   */\n      0x00\n        /* \"#utility.yul\":25501:25516   */\n      revert\n        /* \"#utility.yul\":25528:25645   */\n    tag_306:\n        /* \"#utility.yul\":25637:25638   */\n      0x00\n        /* \"#utility.yul\":25634:25635   */\n      dup1\n        /* \"#utility.yul\":25627:25639   */\n      revert\n        /* \"#utility.yul\":25651:25768   */\n    tag_284:\n        /* \"#utility.yul\":25760:25761   */\n      0x00\n        /* \"#utility.yul\":25757:25758   */\n      dup1\n        /* \"#utility.yul\":25750:25762   */\n      revert\n        /* \"#utility.yul\":25774:25891   */\n    tag_336:\n        /* \"#utility.yul\":25883:25884   */\n      0x00\n        /* \"#utility.yul\":25880:25881   */\n      dup1\n        /* \"#utility.yul\":25873:25885   */\n      revert\n        /* \"#utility.yul\":25897:26014   */\n    tag_315:\n        /* \"#utility.yul\":26006:26007   */\n      0x00\n        /* \"#utility.yul\":26003:26004   */\n      dup1\n        /* \"#utility.yul\":25996:26008   */\n      revert\n        /* \"#utility.yul\":26020:26122   */\n    tag_377:\n        /* \"#utility.yul\":26061:26067   */\n      0x00\n        /* \"#utility.yul\":26112:26114   */\n      0x1f\n        /* \"#utility.yul\":26108:26115   */\n      not\n        /* \"#utility.yul\":26103:26105   */\n      0x1f\n        /* \"#utility.yul\":26096:26101   */\n      dup4\n        /* \"#utility.yul\":26092:26106   */\n      add\n        /* \"#utility.yul\":26088:26116   */\n      and\n        /* \"#utility.yul\":26078:26116   */\n      swap1\n      pop\n        /* \"#utility.yul\":26020:26122   */\n      swap2\n      swap1\n      pop\n      jump\t// out\n        /* \"#utility.yul\":26128:26365   */\n    tag_396:\n        /* \"#utility.yul\":26268:26302   */\n      0x4552433732313a207472616e7366657220746f206e6f6e204552433732315265\n        /* \"#utility.yul\":26264:26265   */\n      0x00\n        /* \"#utility.yul\":26256:26262   */\n      dup3\n        /* \"#utility.yul\":26252:26266   */\n      add\n        /* \"#utility.yul\":26245:26303   */\n      mstore\n        /* \"#utility.yul\":26337:26357   */\n      0x63656976657220696d706c656d656e7465720000000000000000000000000000\n        /* \"#utility.yul\":26332:26334   */\n      0x20\n        /* \"#utility.yul\":26324:26330   */\n      dup3\n        /* \"#utility.yul\":26320:26335   */\n      add\n        /* \"#utility.yul\":26313:26358   */\n      mstore\n        /* \"#utility.yul\":26128:26365   */\n      pop\n      jump\t// out\n        /* \"#utility.yul\":26371:26595   */\n    tag_401:\n        /* \"#utility.yul\":26511:26545   */\n      0x4552433732313a207472616e736665722066726f6d20696e636f727265637420\n        /* \"#utility.yul\":26507:26508   */\n      0x00\n        /* \"#utility.yul\":26499:26505   */\n      dup3\n        /* \"#utility.yul\":26495:26509   */\n      add\n        /* \"#utility.yul\":26488:26546   */\n      mstore\n        /* \"#utility.yul\":26580:26587   */\n      0x6f776e6572000000000000000000000000000000000000000000000000000000\n        /* \"#utility.yul\":26575:26577   */\n      0x20\n        /* \"#utility.yul\":26567:26573   */\n      dup3\n        /* \"#utility.yul\":26563:26578   */\n      add\n        /* \"#utility.yul\":26556:26588   */\n      mstore\n        /* \"#utility.yul\":26371:26595   */\n      pop\n      jump\t// out\n        /* \"#utility.yul\":26601:26779   */\n    tag_406:\n        /* \"#utility.yul\":26741:26771   */\n      0x4552433732313a20746f6b656e20616c7265616479206d696e74656400000000\n        /* \"#utility.yul\":26737:26738   */\n      0x00\n        /* \"#utility.yul\":26729:26735   */\n      dup3\n        /* \"#utility.yul\":26725:26739   */\n      add\n        /* \"#utility.yul\":26718:26772   */\n      mstore\n        /* \"#utility.yul\":26601:26779   */\n      pop\n      jump\t// out\n        /* \"#utility.yul\":26785:27008   */\n    tag_411:\n        /* \"#utility.yul\":26925:26959   */\n      0x4552433732313a207472616e7366657220746f20746865207a65726f20616464\n        /* \"#utility.yul\":26921:26922   */\n      0x00\n        /* \"#utility.yul\":26913:26919   */\n      dup3\n        /* \"#utility.yul\":26909:26923   */\n      add\n        /* \"#utility.yul\":26902:26960   */\n      mstore\n        /* \"#utility.yul\":26994:27000   */\n      0x7265737300000000000000000000000000000000000000000000000000000000\n        /* \"#utility.yul\":26989:26991   */\n      0x20\n        /* \"#utility.yul\":26981:26987   */\n      dup3\n        /* \"#utility.yul\":26977:26992   */\n      add\n        /* \"#utility.yul\":26970:27001   */\n      mstore\n        /* \"#utility.yul\":26785:27008   */\n      pop\n      jump\t// out\n        /* \"#utility.yul\":27014:27189   */\n    tag_416:\n        /* \"#utility.yul\":27154:27181   */\n      0x4552433732313a20617070726f766520746f2063616c6c657200000000000000\n        /* \"#utility.yul\":27150:27151   */\n      0x00\n        /* \"#utility.yul\":27142:27148   */\n      dup3\n        /* \"#utility.yul\":27138:27152   */\n      add\n        /* \"#utility.yul\":27131:27182   */\n      mstore\n        /* \"#utility.yul\":27014:27189   */\n      pop\n      jump\t// out\n        /* \"#utility.yul\":27195:27426   */\n    tag_421:\n        /* \"#utility.yul\":27335:27369   */\n      0x4552433732313a206f70657261746f7220717565727920666f72206e6f6e6578\n        /* \"#utility.yul\":27331:27332   */\n      0x00\n        /* \"#utility.yul\":27323:27329   */\n      dup3\n        /* \"#utility.yul\":27319:27333   */\n      add\n        /* \"#utility.yul\":27312:27370   */\n      mstore\n        /* \"#utility.yul\":27404:27418   */\n      0x697374656e7420746f6b656e0000000000000000000000000000000000000000\n        /* \"#utility.yul\":27399:27401   */\n      0x20\n        /* \"#utility.yul\":27391:27397   */\n      dup3\n        /* \"#utility.yul\":27387:27402   */\n      add\n        /* \"#utility.yul\":27380:27419   */\n      mstore\n        /* \"#utility.yul\":27195:27426   */\n      pop\n      jump\t// out\n        /* \"#utility.yul\":27432:27675   */\n    tag_426:\n        /* \"#utility.yul\":27572:27606   */\n      0x4552433732313a20617070726f76652063616c6c6572206973206e6f74206f77\n        /* \"#utility.yul\":27568:27569   */\n      0x00\n        /* \"#utility.yul\":27560:27566   */\n      dup3\n        /* \"#utility.yul\":27556:27570   */\n      add\n        /* \"#utility.yul\":27549:27607   */\n      mstore\n        /* \"#utility.yul\":27641:27667   */\n      0x6e6572206e6f7220617070726f76656420666f7220616c6c0000000000000000\n        /* \"#utility.yul\":27636:27638   */\n      0x20\n        /* \"#utility.yul\":27628:27634   */\n      dup3\n        /* \"#utility.yul\":27624:27639   */\n      add\n        /* \"#utility.yul\":27617:27668   */\n      mstore\n        /* \"#utility.yul\":27432:27675   */\n      pop\n      jump\t// out\n        /* \"#utility.yul\":27681:27910   */\n    tag_431:\n        /* \"#utility.yul\":27821:27855   */\n      0x4552433732313a2062616c616e636520717565727920666f7220746865207a65\n        /* \"#utility.yul\":27817:27818   */\n      0x00\n        /* \"#utility.yul\":27809:27815   */\n      dup3\n        /* \"#utility.yul\":27805:27819   */\n      add\n        /* \"#utility.yul\":27798:27856   */\n      mstore\n        /* \"#utility.yul\":27890:27902   */\n      0x726f206164647265737300000000000000000000000000000000000000000000\n        /* \"#utility.yul\":27885:27887   */\n      0x20\n        /* \"#utility.yul\":27877:27883   */\n      dup3\n        /* \"#utility.yul\":27873:27888   */\n      add\n        /* \"#utility.yul\":27866:27903   */\n      mstore\n        /* \"#utility.yul\":27681:27910   */\n      pop\n      jump\t// out\n        /* \"#utility.yul\":27916:28144   */\n    tag_436:\n        /* \"#utility.yul\":28056:28090   */\n      0x4552433732313a206f776e657220717565727920666f72206e6f6e6578697374\n        /* \"#utility.yul\":28052:28053   */\n      0x00\n        /* \"#utility.yul\":28044:28050   */\n      dup3\n        /* \"#utility.yul\":28040:28054   */\n      add\n        /* \"#utility.yul\":28033:28091   */\n      mstore\n        /* \"#utility.yul\":28125:28136   */\n      0x656e7420746f6b656e0000000000000000000000000000000000000000000000\n        /* \"#utility.yul\":28120:28122   */\n      0x20\n        /* \"#utility.yul\":28112:28118   */\n      dup3\n        /* \"#utility.yul\":28108:28123   */\n      add\n        /* \"#utility.yul\":28101:28137   */\n      mstore\n        /* \"#utility.yul\":27916:28144   */\n      pop\n      jump\t// out\n        /* \"#utility.yul\":28150:28332   */\n    tag_441:\n        /* \"#utility.yul\":28290:28324   */\n      0x4552433732313a206d696e7420746f20746865207a65726f2061646472657373\n        /* \"#utility.yul\":28286:28287   */\n      0x00\n        /* \"#utility.yul\":28278:28284   */\n      dup3\n        /* \"#utility.yul\":28274:28288   */\n      add\n        /* \"#utility.yul\":28267:28325   */\n      mstore\n        /* \"#utility.yul\":28150:28332   */\n      pop\n      jump\t// out\n        /* \"#utility.yul\":28338:28569   */\n    tag_446:\n        /* \"#utility.yul\":28478:28512   */\n      0x4552433732313a20617070726f76656420717565727920666f72206e6f6e6578\n        /* \"#utility.yul\":28474:28475   */\n      0x00\n        /* \"#utility.yul\":28466:28472   */\n      dup3\n        /* \"#utility.yul\":28462:28476   */\n      add\n        /* \"#utility.yul\":28455:28513   */\n      mstore\n        /* \"#utility.yul\":28547:28561   */\n      0x697374656e7420746f6b656e0000000000000000000000000000000000000000\n        /* \"#utility.yul\":28542:28544   */\n      0x20\n        /* \"#utility.yul\":28534:28540   */\n      dup3\n        /* \"#utility.yul\":28530:28545   */\n      add\n        /* \"#utility.yul\":28523:28562   */\n      mstore\n        /* \"#utility.yul\":28338:28569   */\n      pop\n      jump\t// out\n        /* \"#utility.yul\":28575:28809   */\n    tag_451:\n        /* \"#utility.yul\":28715:28749   */\n      0x4552433732314d657461646174613a2055524920717565727920666f72206e6f\n        /* \"#utility.yul\":28711:28712   */\n      0x00\n        /* \"#utility.yul\":28703:28709   */\n      dup3\n        /* \"#utility.yul\":28699:28713   */\n      add\n        /* \"#utility.yul\":28692:28750   */\n      mstore\n        /* \"#utility.yul\":28784:28801   */\n      0x6e6578697374656e7420746f6b656e0000000000000000000000000000000000\n        /* \"#utility.yul\":28779:28781   */\n      0x20\n        /* \"#utility.yul\":28771:28777   */\n      dup3\n        /* \"#utility.yul\":28767:28782   */\n      add\n        /* \"#utility.yul\":28760:28802   */\n      mstore\n        /* \"#utility.yul\":28575:28809   */\n      pop\n      jump\t// out\n        /* \"#utility.yul\":28815:29035   */\n    tag_456:\n        /* \"#utility.yul\":28955:28989   */\n      0x4552433732313a20617070726f76616c20746f2063757272656e74206f776e65\n        /* \"#utility.yul\":28951:28952   */\n      0x00\n        /* \"#utility.yul\":28943:28949   */\n      dup3\n        /* \"#utility.yul\":28939:28953   */\n      add\n        /* \"#utility.yul\":28932:28990   */\n      mstore\n        /* \"#utility.yul\":29024:29027   */\n      0x7200000000000000000000000000000000000000000000000000000000000000\n        /* \"#utility.yul\":29019:29021   */\n      0x20\n        /* \"#utility.yul\":29011:29017   */\n      dup3\n        /* \"#utility.yul\":29007:29022   */\n      add\n        /* \"#utility.yul\":29000:29028   */\n      mstore\n        /* \"#utility.yul\":28815:29035   */\n      pop\n      jump\t// out\n        /* \"#utility.yul\":29041:29277   */\n    tag_461:\n        /* \"#utility.yul\":29181:29215   */\n      0x4552433732313a207472616e736665722063616c6c6572206973206e6f74206f\n        /* \"#utility.yul\":29177:29178   */\n      0x00\n        /* \"#utility.yul\":29169:29175   */\n      dup3\n        /* \"#utility.yul\":29165:29179   */\n      add\n        /* \"#utility.yul\":29158:29216   */\n      mstore\n        /* \"#utility.yul\":29250:29269   */\n      0x776e6572206e6f7220617070726f766564000000000000000000000000000000\n        /* \"#utility.yul\":29245:29247   */\n      0x20\n        /* \"#utility.yul\":29237:29243   */\n      dup3\n        /* \"#utility.yul\":29233:29248   */\n      add\n        /* \"#utility.yul\":29226:29270   */\n      mstore\n        /* \"#utility.yul\":29041:29277   */\n      pop\n      jump\t// out\n        /* \"#utility.yul\":29283:29405   */\n    tag_290:\n        /* \"#utility.yul\":29356:29380   */\n      tag_599\n        /* \"#utility.yul\":29374:29379   */\n      dup2\n        /* \"#utility.yul\":29356:29380   */\n      tag_363\n      jump\t// in\n    tag_599:\n        /* \"#utility.yul\":29349:29354   */\n      dup2\n        /* \"#utility.yul\":29346:29381   */\n      eq\n        /* \"#utility.yul\":29336:29399   */\n      tag_600\n      jumpi\n        /* \"#utility.yul\":29395:29396   */\n      0x00\n        /* \"#utility.yul\":29392:29393   */\n      dup1\n        /* \"#utility.yul\":29385:29397   */\n      revert\n        /* \"#utility.yul\":29336:29399   */\n    tag_600:\n        /* \"#utility.yul\":29283:29405   */\n      pop\n      jump\t// out\n        /* \"#utility.yul\":29411:29527   */\n    tag_294:\n        /* \"#utility.yul\":29481:29502   */\n      tag_602\n        /* \"#utility.yul\":29496:29501   */\n      dup2\n        /* \"#utility.yul\":29481:29502   */\n      tag_367\n      jump\t// in\n    tag_602:\n        /* \"#utility.yul\":29474:29479   */\n      dup2\n        /* \"#utility.yul\":29471:29503   */\n      eq\n        /* \"#utility.yul\":29461:29521   */\n      tag_603\n      jumpi\n        /* \"#utility.yul\":29517:29518   */\n      0x00\n        /* \"#utility.yul\":29514:29515   */\n      dup1\n        /* \"#utility.yul\":29507:29519   */\n      revert\n        /* \"#utility.yul\":29461:29521   */\n    tag_603:\n        /* \"#utility.yul\":29411:29527   */\n      pop\n      jump\t// out\n        /* \"#utility.yul\":29533:29653   */\n    tag_298:\n        /* \"#utility.yul\":29605:29628   */\n      tag_605\n        /* \"#utility.yul\":29622:29627   */\n      dup2\n        /* \"#utility.yul\":29605:29628   */\n      tag_546\n      jump\t// in\n    tag_605:\n        /* \"#utility.yul\":29598:29603   */\n      dup2\n        /* \"#utility.yul\":29595:29629   */\n      eq\n        /* \"#utility.yul\":29585:29647   */\n      tag_606\n      jumpi\n        /* \"#utility.yul\":29643:29644   */\n      0x00\n        /* \"#utility.yul\":29640:29641   */\n      dup1\n        /* \"#utility.yul\":29633:29645   */\n      revert\n        /* \"#utility.yul\":29585:29647   */\n    tag_606:\n        /* \"#utility.yul\":29533:29653   */\n      pop\n      jump\t// out\n        /* \"#utility.yul\":29659:29781   */\n    tag_311:\n        /* \"#utility.yul\":29732:29756   */\n      tag_608\n        /* \"#utility.yul\":29750:29755   */\n      dup2\n        /* \"#utility.yul\":29732:29756   */\n      tag_465\n      jump\t// in\n    tag_608:\n        /* \"#utility.yul\":29725:29730   */\n      dup2\n        /* \"#utility.yul\":29722:29757   */\n      eq\n        /* \"#utility.yul\":29712:29775   */\n      tag_609\n      jumpi\n        /* \"#utility.yul\":29771:29772   */\n      0x00\n        /* \"#utility.yul\":29768:29769   */\n      dup1\n        /* \"#utility.yul\":29761:29773   */\n      revert\n        /* \"#utility.yul\":29712:29775   */\n    tag_609:\n        /* \"#utility.yul\":29659:29781   */\n      pop\n      jump\t// out\n\n    auxdata: 0xa26469706673582212207a31dc69a8bd64fa8f22cb9c944d82704759d4a9ae1f6729cd3e5615c92692bc64736f6c63430008070033\n}\n",
				"bytecode": {
					"linkReferences": {},
					"object": "60806040523480156200001157600080fd5b5060405162002cb738038062002cb78339818101604052810190620000379190620002a8565b620000687f01ffc9a700000000000000000000000000000000000000000000000000000000620000a260201b60201c565b8160019080519060200190620000809291906200017a565b508060029080519060200190620000999291906200017a565b50505062000534565b63ffffffff60e01b817bffffffffffffffffffffffffffffffffffffffffffffffffffffffff191614156200010e576040517f08c379a0000000000000000000000000000000000000000000000000000000008152600401620001059062000354565b60405180910390fd5b6001600080837bffffffffffffffffffffffffffffffffffffffffffffffffffffffff19167bffffffffffffffffffffffffffffffffffffffffffffffffffffffff1916815260200190815260200160002060006101000a81548160ff02191690831515021790555050565b82805462000188906200041c565b90600052602060002090601f016020900481019282620001ac5760008555620001f8565b82601f10620001c757805160ff1916838001178555620001f8565b82800160010185558215620001f8579182015b82811115620001f7578251825591602001919060010190620001da565b5b5090506200020791906200020b565b5090565b5b80821115620002265760008160009055506001016200020c565b5090565b6000620002416200023b846200039f565b62000376565b90508281526020810184848401111562000260576200025f620004eb565b5b6200026d848285620003e6565b509392505050565b600082601f8301126200028d576200028c620004e6565b5b81516200029f8482602086016200022a565b91505092915050565b60008060408385031215620002c257620002c1620004f5565b5b600083015167ffffffffffffffff811115620002e357620002e2620004f0565b5b620002f18582860162000275565b925050602083015167ffffffffffffffff811115620003155762000314620004f0565b5b620003238582860162000275565b9150509250929050565b60006200033c601c83620003d5565b915062000349826200050b565b602082019050919050565b600060208201905081810360008301526200036f816200032d565b9050919050565b60006200038262000395565b905062000390828262000452565b919050565b6000604051905090565b600067ffffffffffffffff821115620003bd57620003bc620004b7565b5b620003c882620004fa565b9050602081019050919050565b600082825260208201905092915050565b60005b8381101562000406578082015181840152602081019050620003e9565b8381111562000416576000848401525b50505050565b600060028204905060018216806200043557607f821691505b602082108114156200044c576200044b62000488565b5b50919050565b6200045d82620004fa565b810181811067ffffffffffffffff821117156200047f576200047e620004b7565b5b80604052505050565b7f4e487b7100000000000000000000000000000000000000000000000000000000600052602260045260246000fd5b7f4e487b7100000000000000000000000000000000000000000000000000000000600052604160045260246000fd5b600080fd5b600080fd5b600080fd5b600080fd5b6000601f19601f8301169050919050565b7f4552433136353a20696e76616c696420696e7465726661636520696400000000600082015250565b61277380620005446000396000f3fe608060405234801561001057600080fd5b50600436106100ea5760003560e01c806370a082311161008c578063b3e1c71811610066578063b3e1c7181461025b578063b88d4fde14610277578063c87b56dd14610293578063e985e9c5146102c3576100ea565b806370a08231146101f157806395d89b4114610221578063a22cb4651461023f576100ea565b8063095ea7b3116100c8578063095ea7b31461016d57806323b872dd1461018957806342842e0e146101a55780636352211e146101c1576100ea565b806301ffc9a7146100ef57806306fdde031461011f578063081812fc1461013d575b600080fd5b61010960048036038101906101049190611926565b6102f3565b6040516101169190611cf2565b60405180910390f35b6101276103d5565b6040516101349190611d0d565b60405180910390f35b61015760048036038101906101529190611980565b610467565b6040516101649190611c8b565b60405180910390f35b610187600480360381019061018291906118e6565b6104ec565b005b6101a3600480360381019061019e91906117d0565b610604565b005b6101bf60048036038101906101ba91906117d0565b610664565b005b6101db60048036038101906101d69190611980565b610684565b6040516101e89190611c8b565b60405180910390f35b61020b60048036038101906102069190611763565b610736565b6040516102189190611eef565b60405180910390f35b6102296107ee565b6040516102369190611d0d565b60405180910390f35b610259600480360381019061025491906118a6565b610880565b005b610275600480360381019061027091906118e6565b610896565b005b610291600480360381019061028c9190611823565b6108b4565b005b6102ad60048036038101906102a89190611980565b610916565b6040516102ba9190611d0d565b60405180910390f35b6102dd60048036038101906102d89190611790565b6109bd565b6040516102ea9190611cf2565b60405180910390f35b60007f80ac58cd000000000000000000000000000000000000000000000000000000007bffffffffffffffffffffffffffffffffffffffffffffffffffffffff1916827bffffffffffffffffffffffffffffffffffffffffffffffffffffffff191614806103be57507f5b5e139f000000000000000000000000000000000000000000000000000000007bffffffffffffffffffffffffffffffffffffffffffffffffffffffff1916827bffffffffffffffffffffffffffffffffffffffffffffffffffffffff1916145b806103ce57506103cd82610a51565b5b9050919050565b6060600180546103e490612114565b80601f016020809104026020016040519081016040528092919081815260200182805461041090612114565b801561045d5780601f106104325761010080835404028352916020019161045d565b820191906000526020600020905b81548152906001019060200180831161044057829003601f168201915b5050505050905090565b600061047282610ab8565b6104b1576040517f08c379a00000000000000000000000000000000000000000000000000000000081526004016104a890611e6f565b60405180910390fd5b6005600083815260200190815260200160002060009054906101000a900473ffffffffffffffffffffffffffffffffffffffff169050919050565b60006104f782610684565b90508073ffffffffffffffffffffffffffffffffffffffff168373ffffffffffffffffffffffffffffffffffffffff161415610568576040517f08c379a000000000000000000000000000000000000000000000000000000000815260040161055f90611eaf565b60405180910390fd5b8073ffffffffffffffffffffffffffffffffffffffff16610587610b24565b73ffffffffffffffffffffffffffffffffffffffff1614806105b657506105b5816105b0610b24565b6109bd565b5b6105f5576040517f08c379a00000000000000000000000000000000000000000000000000000000081526004016105ec90611def565b60405180910390fd5b6105ff8383610b2c565b505050565b61061561060f610b24565b82610be5565b610654576040517f08c379a000000000000000000000000000000000000000000000000000000000815260040161064b90611ecf565b60405180910390fd5b61065f838383610cc3565b505050565b61067f838383604051806020016040528060008152506108b4565b505050565b6000806003600084815260200190815260200160002060009054906101000a900473ffffffffffffffffffffffffffffffffffffffff169050600073ffffffffffffffffffffffffffffffffffffffff168173ffffffffffffffffffffffffffffffffffffffff16141561072d576040517f08c379a000000000000000000000000000000000000000000000000000000000815260040161072490611e2f565b60405180910390fd5b80915050919050565b60008073ffffffffffffffffffffffffffffffffffffffff168273ffffffffffffffffffffffffffffffffffffffff1614156107a7576040517f08c379a000000000000000000000000000000000000000000000000000000000815260040161079e90611e0f565b60405180910390fd5b600460008373ffffffffffffffffffffffffffffffffffffffff1673ffffffffffffffffffffffffffffffffffffffff168152602001908152602001600020549050919050565b6060600280546107fd90612114565b80601f016020809104026020016040519081016040528092919081815260200182805461082990612114565b80156108765780601f1061084b57610100808354040283529160200191610876565b820191906000526020600020905b81548152906001019060200180831161085957829003601f168201915b5050505050905090565b61089261088b610b24565b8383610f2a565b5050565b6108b0828260405180602001604052806000815250611097565b5050565b6108c56108bf610b24565b83610be5565b610904576040517f08c379a00000000000000000000000000000000000000000000000000000000081526004016108fb90611ecf565b60405180910390fd5b610910848484846110f2565b50505050565b606061092182610ab8565b610960576040517f08c379a000000000000000000000000000000000000000000000000000000000815260040161095790611e8f565b60405180910390fd5b600061096a61114e565b9050600081511161098a57604051806020016040528060008152506109b5565b806109948461118b565b6040516020016109a5929190611c67565b6040516020818303038152906040525b915050919050565b6000600660008473ffffffffffffffffffffffffffffffffffffffff1673ffffffffffffffffffffffffffffffffffffffff16815260200190815260200160002060008373ffffffffffffffffffffffffffffffffffffffff1673ffffffffffffffffffffffffffffffffffffffff16815260200190815260200160002060009054906101000a900460ff16905092915050565b6000806000837bffffffffffffffffffffffffffffffffffffffffffffffffffffffff19167bffffffffffffffffffffffffffffffffffffffffffffffffffffffff1916815260200190815260200160002060009054906101000a900460ff169050919050565b60008073ffffffffffffffffffffffffffffffffffffffff166003600084815260200190815260200160002060009054906101000a900473ffffffffffffffffffffffffffffffffffffffff1673ffffffffffffffffffffffffffffffffffffffff1614159050919050565b600033905090565b816005600083815260200190815260200160002060006101000a81548173ffffffffffffffffffffffffffffffffffffffff021916908373ffffffffffffffffffffffffffffffffffffffff160217905550808273ffffffffffffffffffffffffffffffffffffffff16610b9f83610684565b73ffffffffffffffffffffffffffffffffffffffff167f8c5be1e5ebec7d5bd14f71427d1e84f3dd0314c0f7b2291e5b200ac8c7c3b92560405160405180910390a45050565b6000610bf082610ab8565b610c2f576040517f08c379a0000000000000000000000000000000000000000000000000000000008152600401610c2690611dcf565b60405180910390fd5b6000610c3a83610684565b90508073ffffffffffffffffffffffffffffffffffffffff168473ffffffffffffffffffffffffffffffffffffffff161480610c7c5750610c7b81856109bd565b5b80610cba57508373ffffffffffffffffffffffffffffffffffffffff16610ca284610467565b73ffffffffffffffffffffffffffffffffffffffff16145b91505092915050565b8273ffffffffffffffffffffffffffffffffffffffff16610ce382610684565b73ffffffffffffffffffffffffffffffffffffffff1614610d39576040517f08c379a0000000000000000000000000000000000000000000000000000000008152600401610d3090611d4f565b60405180910390fd5b600073ffffffffffffffffffffffffffffffffffffffff168273ffffffffffffffffffffffffffffffffffffffff161415610da9576040517f08c379a0000000000000000000000000000000000000000000000000000000008152600401610da090611d8f565b60405180910390fd5b610db48383836112ec565b610dbf600082610b2c565b6001600460008573ffffffffffffffffffffffffffffffffffffffff1673ffffffffffffffffffffffffffffffffffffffff1681526020019081526020016000206000828254610e0f919061202a565b925050819055506001600460008473ffffffffffffffffffffffffffffffffffffffff1673ffffffffffffffffffffffffffffffffffffffff1681526020019081526020016000206000828254610e669190611fa3565b92505081905550816003600083815260200190815260200160002060006101000a81548173ffffffffffffffffffffffffffffffffffffffff021916908373ffffffffffffffffffffffffffffffffffffffff160217905550808273ffffffffffffffffffffffffffffffffffffffff168473ffffffffffffffffffffffffffffffffffffffff167fddf252ad1be2c89b69c2b068fc378daa952ba7f163c4a11628f55a4df523b3ef60405160405180910390a4610f258383836112f1565b505050565b8173ffffffffffffffffffffffffffffffffffffffff168373ffffffffffffffffffffffffffffffffffffffff161415610f99576040517f08c379a0000000000000000000000000000000000000000000000000000000008152600401610f9090611daf565b60405180910390fd5b80600660008573ffffffffffffffffffffffffffffffffffffffff1673ffffffffffffffffffffffffffffffffffffffff16815260200190815260200160002060008473ffffffffffffffffffffffffffffffffffffffff1673ffffffffffffffffffffffffffffffffffffffff16815260200190815260200160002060006101000a81548160ff0219169083151502179055508173ffffffffffffffffffffffffffffffffffffffff168373ffffffffffffffffffffffffffffffffffffffff167f17307eab39ab6107e8899845ad3d59bd9653f200f220920489ca2b5937696c318360405161108a9190611cf2565b60405180910390a3505050565b6110a183836112f6565b6110ae60008484846114d0565b6110ed576040517f08c379a00000000000000000000000000000000000000000000000000000000081526004016110e490611d2f565b60405180910390fd5b505050565b6110fd848484610cc3565b611109848484846114d0565b611148576040517f08c379a000000000000000000000000000000000000000000000000000000000815260040161113f90611d2f565b60405180910390fd5b50505050565b60606040518060400160405280601281526020017f42696e616e636520536d61727420446174610000000000000000000000000000815250905090565b606060008214156111d3576040518060400160405280600181526020017f300000000000000000000000000000000000000000000000000000000000000081525090506112e7565b600082905060005b600082146112055780806111ee90612177565b915050600a826111fe9190611ff9565b91506111db565b60008167ffffffffffffffff811115611221576112206122ad565b5b6040519080825280601f01601f1916602001820160405280156112535781602001600182028036833780820191505090505b5090505b600085146112e05760018261126c919061202a565b9150600a8561127b91906121c0565b60306112879190611fa3565b60f81b81838151811061129d5761129c61227e565b5b60200101907effffffffffffffffffffffffffffffffffffffffffffffffffffffffffffff1916908160001a905350600a856112d99190611ff9565b9450611257565b8093505050505b919050565b505050565b505050565b600073ffffffffffffffffffffffffffffffffffffffff168273ffffffffffffffffffffffffffffffffffffffff161415611366576040517f08c379a000000000000000000000000000000000000000000000000000000000815260040161135d90611e4f565b60405180910390fd5b61136f81610ab8565b156113af576040517f08c379a00000000000000000000000000000000000000000000000000000000081526004016113a690611d6f565b60405180910390fd5b6113bb600083836112ec565b6001600460008473ffffffffffffffffffffffffffffffffffffffff1673ffffffffffffffffffffffffffffffffffffffff168152602001908152602001600020600082825461140b9190611fa3565b92505081905550816003600083815260200190815260200160002060006101000a81548173ffffffffffffffffffffffffffffffffffffffff021916908373ffffffffffffffffffffffffffffffffffffffff160217905550808273ffffffffffffffffffffffffffffffffffffffff16600073ffffffffffffffffffffffffffffffffffffffff167fddf252ad1be2c89b69c2b068fc378daa952ba7f163c4a11628f55a4df523b3ef60405160405180910390a46114cc600083836112f1565b5050565b60006114f18473ffffffffffffffffffffffffffffffffffffffff16611667565b1561165a578373ffffffffffffffffffffffffffffffffffffffff1663150b7a0261151a610b24565b8786866040518563ffffffff1660e01b815260040161153c9493929190611ca6565b602060405180830381600087803b15801561155657600080fd5b505af192505050801561158757506040513d601f19601f820116820180604052508101906115849190611953565b60015b61160a573d80600081146115b7576040519150601f19603f3d011682016040523d82523d6000602084013e6115bc565b606091505b50600081511415611602576040517f08c379a00000000000000000000000000000000000000000000000000000000081526004016115f990611d2f565b60405180910390fd5b805181602001fd5b63150b7a0260e01b7bffffffffffffffffffffffffffffffffffffffffffffffffffffffff1916817bffffffffffffffffffffffffffffffffffffffffffffffffffffffff19161491505061165f565b600190505b949350505050565b6000808273ffffffffffffffffffffffffffffffffffffffff163b119050919050565b600061169d61169884611f2f565b611f0a565b9050828152602081018484840111156116b9576116b86122e1565b5b6116c48482856120d2565b509392505050565b6000813590506116db816126e1565b92915050565b6000813590506116f0816126f8565b92915050565b6000813590506117058161270f565b92915050565b60008151905061171a8161270f565b92915050565b600082601f830112611735576117346122dc565b5b813561174584826020860161168a565b91505092915050565b60008135905061175d81612726565b92915050565b600060208284031215611779576117786122eb565b5b6000611787848285016116cc565b91505092915050565b600080604083850312156117a7576117a66122eb565b5b60006117b5858286016116cc565b92505060206117c6858286016116cc565b9150509250929050565b6000806000606084860312156117e9576117e86122eb565b5b60006117f7868287016116cc565b9350506020611808868287016116cc565b92505060406118198682870161174e565b9150509250925092565b6000806000806080858703121561183d5761183c6122eb565b5b600061184b878288016116cc565b945050602061185c878288016116cc565b935050604061186d8782880161174e565b925050606085013567ffffffffffffffff81111561188e5761188d6122e6565b5b61189a87828801611720565b91505092959194509250565b600080604083850312156118bd576118bc6122eb565b5b60006118cb858286016116cc565b92505060206118dc858286016116e1565b9150509250929050565b600080604083850312156118fd576118fc6122eb565b5b600061190b858286016116cc565b925050602061191c8582860161174e565b9150509250929050565b60006020828403121561193c5761193b6122eb565b5b600061194a848285016116f6565b91505092915050565b600060208284031215611969576119686122eb565b5b60006119778482850161170b565b91505092915050565b600060208284031215611996576119956122eb565b5b60006119a48482850161174e565b91505092915050565b6119b68161205e565b82525050565b6119c581612070565b82525050565b60006119d682611f60565b6119e08185611f76565b93506119f08185602086016120e1565b6119f9816122f0565b840191505092915050565b6000611a0f82611f6b565b611a198185611f87565b9350611a298185602086016120e1565b611a32816122f0565b840191505092915050565b6000611a4882611f6b565b611a528185611f98565b9350611a628185602086016120e1565b80840191505092915050565b6000611a7b603283611f87565b9150611a8682612301565b604082019050919050565b6000611a9e602583611f87565b9150611aa982612350565b604082019050919050565b6000611ac1601c83611f87565b9150611acc8261239f565b602082019050919050565b6000611ae4602483611f87565b9150611aef826123c8565b604082019050919050565b6000611b07601983611f87565b9150611b1282612417565b602082019050919050565b6000611b2a602c83611f87565b9150611b3582612440565b604082019050919050565b6000611b4d603883611f87565b9150611b588261248f565b604082019050919050565b6000611b70602a83611f87565b9150611b7b826124de565b604082019050919050565b6000611b93602983611f87565b9150611b9e8261252d565b604082019050919050565b6000611bb6602083611f87565b9150611bc18261257c565b602082019050919050565b6000611bd9602c83611f87565b9150611be4826125a5565b604082019050919050565b6000611bfc602f83611f87565b9150611c07826125f4565b604082019050919050565b6000611c1f602183611f87565b9150611c2a82612643565b604082019050919050565b6000611c42603183611f87565b9150611c4d82612692565b604082019050919050565b611c61816120c8565b82525050565b6000611c738285611a3d565b9150611c7f8284611a3d565b91508190509392505050565b6000602082019050611ca060008301846119ad565b92915050565b6000608082019050611cbb60008301876119ad565b611cc860208301866119ad565b611cd56040830185611c58565b8181036060830152611ce781846119cb565b905095945050505050565b6000602082019050611d0760008301846119bc565b92915050565b60006020820190508181036000830152611d278184611a04565b905092915050565b60006020820190508181036000830152611d4881611a6e565b9050919050565b60006020820190508181036000830152611d6881611a91565b9050919050565b60006020820190508181036000830152611d8881611ab4565b9050919050565b60006020820190508181036000830152611da881611ad7565b9050919050565b60006020820190508181036000830152611dc881611afa565b9050919050565b60006020820190508181036000830152611de881611b1d565b9050919050565b60006020820190508181036000830152611e0881611b40565b9050919050565b60006020820190508181036000830152611e2881611b63565b9050919050565b60006020820190508181036000830152611e4881611b86565b9050919050565b60006020820190508181036000830152611e6881611ba9565b9050919050565b60006020820190508181036000830152611e8881611bcc565b9050919050565b60006020820190508181036000830152611ea881611bef565b9050919050565b60006020820190508181036000830152611ec881611c12565b9050919050565b60006020820190508181036000830152611ee881611c35565b9050919050565b6000602082019050611f046000830184611c58565b92915050565b6000611f14611f25565b9050611f208282612146565b919050565b6000604051905090565b600067ffffffffffffffff821115611f4a57611f496122ad565b5b611f53826122f0565b9050602081019050919050565b600081519050919050565b600081519050919050565b600082825260208201905092915050565b600082825260208201905092915050565b600081905092915050565b6000611fae826120c8565b9150611fb9836120c8565b9250827fffffffffffffffffffffffffffffffffffffffffffffffffffffffffffffffff03821115611fee57611fed6121f1565b5b828201905092915050565b6000612004826120c8565b915061200f836120c8565b92508261201f5761201e612220565b5b828204905092915050565b6000612035826120c8565b9150612040836120c8565b925082821015612053576120526121f1565b5b828203905092915050565b6000612069826120a8565b9050919050565b60008115159050919050565b60007fffffffff0000000000000000000000000000000000000000000000000000000082169050919050565b600073ffffffffffffffffffffffffffffffffffffffff82169050919050565b6000819050919050565b82818337600083830152505050565b60005b838110156120ff5780820151818401526020810190506120e4565b8381111561210e576000848401525b50505050565b6000600282049050600182168061212c57607f821691505b602082108114156121405761213f61224f565b5b50919050565b61214f826122f0565b810181811067ffffffffffffffff8211171561216e5761216d6122ad565b5b80604052505050565b6000612182826120c8565b91507fffffffffffffffffffffffffffffffffffffffffffffffffffffffffffffffff8214156121b5576121b46121f1565b5b600182019050919050565b60006121cb826120c8565b91506121d6836120c8565b9250826121e6576121e5612220565b5b828206905092915050565b7f4e487b7100000000000000000000000000000000000000000000000000000000600052601160045260246000fd5b7f4e487b7100000000000000000000000000000000000000000000000000000000600052601260045260246000fd5b7f4e487b7100000000000000000000000000000000000000000000000000000000600052602260045260246000fd5b7f4e487b7100000000000000000000000000000000000000000000000000000000600052603260045260246000fd5b7f4e487b7100000000000000000000000000000000000000000000000000000000600052604160045260246000fd5b600080fd5b600080fd5b600080fd5b600080fd5b6000601f19601f8301169050919050565b7f4552433732313a207472616e7366657220746f206e6f6e20455243373231526560008201527f63656976657220696d706c656d656e7465720000000000000000000000000000602082015250565b7f4552433732313a207472616e736665722066726f6d20696e636f72726563742060008201527f6f776e6572000000000000000000000000000000000000000000000000000000602082015250565b7f4552433732313a20746f6b656e20616c7265616479206d696e74656400000000600082015250565b7f4552433732313a207472616e7366657220746f20746865207a65726f2061646460008201527f7265737300000000000000000000000000000000000000000000000000000000602082015250565b7f4552433732313a20617070726f766520746f2063616c6c657200000000000000600082015250565b7f4552433732313a206f70657261746f7220717565727920666f72206e6f6e657860008201527f697374656e7420746f6b656e0000000000000000000000000000000000000000602082015250565b7f4552433732313a20617070726f76652063616c6c6572206973206e6f74206f7760008201527f6e6572206e6f7220617070726f76656420666f7220616c6c0000000000000000602082015250565b7f4552433732313a2062616c616e636520717565727920666f7220746865207a6560008201527f726f206164647265737300000000000000000000000000000000000000000000602082015250565b7f4552433732313a206f776e657220717565727920666f72206e6f6e657869737460008201527f656e7420746f6b656e0000000000000000000000000000000000000000000000602082015250565b7f4552433732313a206d696e7420746f20746865207a65726f2061646472657373600082015250565b7f4552433732313a20617070726f76656420717565727920666f72206e6f6e657860008201527f697374656e7420746f6b656e0000000000000000000000000000000000000000602082015250565b7f4552433732314d657461646174613a2055524920717565727920666f72206e6f60008201527f6e6578697374656e7420746f6b656e0000000000000000000000000000000000602082015250565b7f4552433732313a20617070726f76616c20746f2063757272656e74206f776e6560008201527f7200000000000000000000000000000000000000000000000000000000000000602082015250565b7f4552433732313a207472616e736665722063616c6c6572206973206e6f74206f60008201527f776e6572206e6f7220617070726f766564000000000000000000000000000000602082015250565b6126ea8161205e565b81146126f557600080fd5b50565b61270181612070565b811461270c57600080fd5b50565b6127188161207c565b811461272357600080fd5b50565b61272f816120c8565b811461273a57600080fd5b5056fea26469706673582212207a31dc69a8bd64fa8f22cb9c944d82704759d4a9ae1f6729cd3e5615c92692bc64736f6c63430008070033",
					"opcodes": "PUSH1 0x80 PUSH1 0x40 MSTORE CALLVALUE DUP1 ISZERO PUSH3 0x11 JUMPI PUSH1 0x0 DUP1 REVERT JUMPDEST POP PUSH1 0x40 MLOAD PUSH3 0x2CB7 CODESIZE SUB DUP1 PUSH3 0x2CB7 DUP4 CODECOPY DUP2 DUP2 ADD PUSH1 0x40 MSTORE DUP2 ADD SWAP1 PUSH3 0x37 SWAP2 SWAP1 PUSH3 0x2A8 JUMP JUMPDEST PUSH3 0x68 PUSH32 0x1FFC9A700000000000000000000000000000000000000000000000000000000 PUSH3 0xA2 PUSH1 0x20 SHL PUSH1 0x20 SHR JUMP JUMPDEST DUP2 PUSH1 0x1 SWAP1 DUP1 MLOAD SWAP1 PUSH1 0x20 ADD SWAP1 PUSH3 0x80 SWAP3 SWAP2 SWAP1 PUSH3 0x17A JUMP JUMPDEST POP DUP1 PUSH1 0x2 SWAP1 DUP1 MLOAD SWAP1 PUSH1 0x20 ADD SWAP1 PUSH3 0x99 SWAP3 SWAP2 SWAP1 PUSH3 0x17A JUMP JUMPDEST POP POP POP PUSH3 0x534 JUMP JUMPDEST PUSH4 0xFFFFFFFF PUSH1 0xE0 SHL DUP2 PUSH28 0xFFFFFFFFFFFFFFFFFFFFFFFFFFFFFFFFFFFFFFFFFFFFFFFFFFFFFFFF NOT AND EQ ISZERO PUSH3 0x10E JUMPI PUSH1 0x40 MLOAD PUSH32 0x8C379A000000000000000000000000000000000000000000000000000000000 DUP2 MSTORE PUSH1 0x4 ADD PUSH3 0x105 SWAP1 PUSH3 0x354 JUMP JUMPDEST PUSH1 0x40 MLOAD DUP1 SWAP2 SUB SWAP1 REVERT JUMPDEST PUSH1 0x1 PUSH1 0x0 DUP1 DUP4 PUSH28 0xFFFFFFFFFFFFFFFFFFFFFFFFFFFFFFFFFFFFFFFFFFFFFFFFFFFFFFFF NOT AND PUSH28 0xFFFFFFFFFFFFFFFFFFFFFFFFFFFFFFFFFFFFFFFFFFFFFFFFFFFFFFFF NOT AND DUP2 MSTORE PUSH1 0x20 ADD SWAP1 DUP2 MSTORE PUSH1 0x20 ADD PUSH1 0x0 KECCAK256 PUSH1 0x0 PUSH2 0x100 EXP DUP2 SLOAD DUP2 PUSH1 0xFF MUL NOT AND SWAP1 DUP4 ISZERO ISZERO MUL OR SWAP1 SSTORE POP POP JUMP JUMPDEST DUP3 DUP1 SLOAD PUSH3 0x188 SWAP1 PUSH3 0x41C JUMP JUMPDEST SWAP1 PUSH1 0x0 MSTORE PUSH1 0x20 PUSH1 0x0 KECCAK256 SWAP1 PUSH1 0x1F ADD PUSH1 0x20 SWAP1 DIV DUP2 ADD SWAP3 DUP3 PUSH3 0x1AC JUMPI PUSH1 0x0 DUP6 SSTORE PUSH3 0x1F8 JUMP JUMPDEST DUP3 PUSH1 0x1F LT PUSH3 0x1C7 JUMPI DUP1 MLOAD PUSH1 0xFF NOT AND DUP4 DUP1 ADD OR DUP6 SSTORE PUSH3 0x1F8 JUMP JUMPDEST DUP3 DUP1 ADD PUSH1 0x1 ADD DUP6 SSTORE DUP3 ISZERO PUSH3 0x1F8 JUMPI SWAP2 DUP3 ADD JUMPDEST DUP3 DUP2 GT ISZERO PUSH3 0x1F7 JUMPI DUP3 MLOAD DUP3 SSTORE SWAP2 PUSH1 0x20 ADD SWAP2 SWAP1 PUSH1 0x1 ADD SWAP1 PUSH3 0x1DA JUMP JUMPDEST JUMPDEST POP SWAP1 POP PUSH3 0x207 SWAP2 SWAP1 PUSH3 0x20B JUMP JUMPDEST POP SWAP1 JUMP JUMPDEST JUMPDEST DUP1 DUP3 GT ISZERO PUSH3 0x226 JUMPI PUSH1 0x0 DUP2 PUSH1 0x0 SWAP1 SSTORE POP PUSH1 0x1 ADD PUSH3 0x20C JUMP JUMPDEST POP SWAP1 JUMP JUMPDEST PUSH1 0x0 PUSH3 0x241 PUSH3 0x23B DUP5 PUSH3 0x39F JUMP JUMPDEST PUSH3 0x376 JUMP JUMPDEST SWAP1 POP DUP3 DUP2 MSTORE PUSH1 0x20 DUP2 ADD DUP5 DUP5 DUP5 ADD GT ISZERO PUSH3 0x260 JUMPI PUSH3 0x25F PUSH3 0x4EB JUMP JUMPDEST JUMPDEST PUSH3 0x26D DUP5 DUP3 DUP6 PUSH3 0x3E6 JUMP JUMPDEST POP SWAP4 SWAP3 POP POP POP JUMP JUMPDEST PUSH1 0x0 DUP3 PUSH1 0x1F DUP4 ADD SLT PUSH3 0x28D JUMPI PUSH3 0x28C PUSH3 0x4E6 JUMP JUMPDEST JUMPDEST DUP2 MLOAD PUSH3 0x29F DUP5 DUP3 PUSH1 0x20 DUP7 ADD PUSH3 0x22A JUMP JUMPDEST SWAP2 POP POP SWAP3 SWAP2 POP POP JUMP JUMPDEST PUSH1 0x0 DUP1 PUSH1 0x40 DUP4 DUP6 SUB SLT ISZERO PUSH3 0x2C2 JUMPI PUSH3 0x2C1 PUSH3 0x4F5 JUMP JUMPDEST JUMPDEST PUSH1 0x0 DUP4 ADD MLOAD PUSH8 0xFFFFFFFFFFFFFFFF DUP2 GT ISZERO PUSH3 0x2E3 JUMPI PUSH3 0x2E2 PUSH3 0x4F0 JUMP JUMPDEST JUMPDEST PUSH3 0x2F1 DUP6 DUP3 DUP7 ADD PUSH3 0x275 JUMP JUMPDEST SWAP3 POP POP PUSH1 0x20 DUP4 ADD MLOAD PUSH8 0xFFFFFFFFFFFFFFFF DUP2 GT ISZERO PUSH3 0x315 JUMPI PUSH3 0x314 PUSH3 0x4F0 JUMP JUMPDEST JUMPDEST PUSH3 0x323 DUP6 DUP3 DUP7 ADD PUSH3 0x275 JUMP JUMPDEST SWAP2 POP POP SWAP3 POP SWAP3 SWAP1 POP JUMP JUMPDEST PUSH1 0x0 PUSH3 0x33C PUSH1 0x1C DUP4 PUSH3 0x3D5 JUMP JUMPDEST SWAP2 POP PUSH3 0x349 DUP3 PUSH3 0x50B JUMP JUMPDEST PUSH1 0x20 DUP3 ADD SWAP1 POP SWAP2 SWAP1 POP JUMP JUMPDEST PUSH1 0x0 PUSH1 0x20 DUP3 ADD SWAP1 POP DUP2 DUP2 SUB PUSH1 0x0 DUP4 ADD MSTORE PUSH3 0x36F DUP2 PUSH3 0x32D JUMP JUMPDEST SWAP1 POP SWAP2 SWAP1 POP JUMP JUMPDEST PUSH1 0x0 PUSH3 0x382 PUSH3 0x395 JUMP JUMPDEST SWAP1 POP PUSH3 0x390 DUP3 DUP3 PUSH3 0x452 JUMP JUMPDEST SWAP2 SWAP1 POP JUMP JUMPDEST PUSH1 0x0 PUSH1 0x40 MLOAD SWAP1 POP SWAP1 JUMP JUMPDEST PUSH1 0x0 PUSH8 0xFFFFFFFFFFFFFFFF DUP3 GT ISZERO PUSH3 0x3BD JUMPI PUSH3 0x3BC PUSH3 0x4B7 JUMP JUMPDEST JUMPDEST PUSH3 0x3C8 DUP3 PUSH3 0x4FA JUMP JUMPDEST SWAP1 POP PUSH1 0x20 DUP2 ADD SWAP1 POP SWAP2 SWAP1 POP JUMP JUMPDEST PUSH1 0x0 DUP3 DUP3 MSTORE PUSH1 0x20 DUP3 ADD SWAP1 POP SWAP3 SWAP2 POP POP JUMP JUMPDEST PUSH1 0x0 JUMPDEST DUP4 DUP2 LT ISZERO PUSH3 0x406 JUMPI DUP1 DUP3 ADD MLOAD DUP2 DUP5 ADD MSTORE PUSH1 0x20 DUP2 ADD SWAP1 POP PUSH3 0x3E9 JUMP JUMPDEST DUP4 DUP2 GT ISZERO PUSH3 0x416 JUMPI PUSH1 0x0 DUP5 DUP5 ADD MSTORE JUMPDEST POP POP POP POP JUMP JUMPDEST PUSH1 0x0 PUSH1 0x2 DUP3 DIV SWAP1 POP PUSH1 0x1 DUP3 AND DUP1 PUSH3 0x435 JUMPI PUSH1 0x7F DUP3 AND SWAP2 POP JUMPDEST PUSH1 0x20 DUP3 LT DUP2 EQ ISZERO PUSH3 0x44C JUMPI PUSH3 0x44B PUSH3 0x488 JUMP JUMPDEST JUMPDEST POP SWAP2 SWAP1 POP JUMP JUMPDEST PUSH3 0x45D DUP3 PUSH3 0x4FA JUMP JUMPDEST DUP2 ADD DUP2 DUP2 LT PUSH8 0xFFFFFFFFFFFFFFFF DUP3 GT OR ISZERO PUSH3 0x47F JUMPI PUSH3 0x47E PUSH3 0x4B7 JUMP JUMPDEST JUMPDEST DUP1 PUSH1 0x40 MSTORE POP POP POP JUMP JUMPDEST PUSH32 0x4E487B7100000000000000000000000000000000000000000000000000000000 PUSH1 0x0 MSTORE PUSH1 0x22 PUSH1 0x4 MSTORE PUSH1 0x24 PUSH1 0x0 REVERT JUMPDEST PUSH32 0x4E487B7100000000000000000000000000000000000000000000000000000000 PUSH1 0x0 MSTORE PUSH1 0x41 PUSH1 0x4 MSTORE PUSH1 0x24 PUSH1 0x0 REVERT JUMPDEST PUSH1 0x0 DUP1 REVERT JUMPDEST PUSH1 0x0 DUP1 REVERT JUMPDEST PUSH1 0x0 DUP1 REVERT JUMPDEST PUSH1 0x0 DUP1 REVERT JUMPDEST PUSH1 0x0 PUSH1 0x1F NOT PUSH1 0x1F DUP4 ADD AND SWAP1 POP SWAP2 SWAP1 POP JUMP JUMPDEST PUSH32 0x4552433136353A20696E76616C696420696E7465726661636520696400000000 PUSH1 0x0 DUP3 ADD MSTORE POP JUMP JUMPDEST PUSH2 0x2773 DUP1 PUSH3 0x544 PUSH1 0x0 CODECOPY PUSH1 0x0 RETURN INVALID PUSH1 0x80 PUSH1 0x40 MSTORE CALLVALUE DUP1 ISZERO PUSH2 0x10 JUMPI PUSH1 0x0 DUP1 REVERT JUMPDEST POP PUSH1 0x4 CALLDATASIZE LT PUSH2 0xEA JUMPI PUSH1 0x0 CALLDATALOAD PUSH1 0xE0 SHR DUP1 PUSH4 0x70A08231 GT PUSH2 0x8C JUMPI DUP1 PUSH4 0xB3E1C718 GT PUSH2 0x66 JUMPI DUP1 PUSH4 0xB3E1C718 EQ PUSH2 0x25B JUMPI DUP1 PUSH4 0xB88D4FDE EQ PUSH2 0x277 JUMPI DUP1 PUSH4 0xC87B56DD EQ PUSH2 0x293 JUMPI DUP1 PUSH4 0xE985E9C5 EQ PUSH2 0x2C3 JUMPI PUSH2 0xEA JUMP JUMPDEST DUP1 PUSH4 0x70A08231 EQ PUSH2 0x1F1 JUMPI DUP1 PUSH4 0x95D89B41 EQ PUSH2 0x221 JUMPI DUP1 PUSH4 0xA22CB465 EQ PUSH2 0x23F JUMPI PUSH2 0xEA JUMP JUMPDEST DUP1 PUSH4 0x95EA7B3 GT PUSH2 0xC8 JUMPI DUP1 PUSH4 0x95EA7B3 EQ PUSH2 0x16D JUMPI DUP1 PUSH4 0x23B872DD EQ PUSH2 0x189 JUMPI DUP1 PUSH4 0x42842E0E EQ PUSH2 0x1A5 JUMPI DUP1 PUSH4 0x6352211E EQ PUSH2 0x1C1 JUMPI PUSH2 0xEA JUMP JUMPDEST DUP1 PUSH4 0x1FFC9A7 EQ PUSH2 0xEF JUMPI DUP1 PUSH4 0x6FDDE03 EQ PUSH2 0x11F JUMPI DUP1 PUSH4 0x81812FC EQ PUSH2 0x13D JUMPI JUMPDEST PUSH1 0x0 DUP1 REVERT JUMPDEST PUSH2 0x109 PUSH1 0x4 DUP1 CALLDATASIZE SUB DUP2 ADD SWAP1 PUSH2 0x104 SWAP2 SWAP1 PUSH2 0x1926 JUMP JUMPDEST PUSH2 0x2F3 JUMP JUMPDEST PUSH1 0x40 MLOAD PUSH2 0x116 SWAP2 SWAP1 PUSH2 0x1CF2 JUMP JUMPDEST PUSH1 0x40 MLOAD DUP1 SWAP2 SUB SWAP1 RETURN JUMPDEST PUSH2 0x127 PUSH2 0x3D5 JUMP JUMPDEST PUSH1 0x40 MLOAD PUSH2 0x134 SWAP2 SWAP1 PUSH2 0x1D0D JUMP JUMPDEST PUSH1 0x40 MLOAD DUP1 SWAP2 SUB SWAP1 RETURN JUMPDEST PUSH2 0x157 PUSH1 0x4 DUP1 CALLDATASIZE SUB DUP2 ADD SWAP1 PUSH2 0x152 SWAP2 SWAP1 PUSH2 0x1980 JUMP JUMPDEST PUSH2 0x467 JUMP JUMPDEST PUSH1 0x40 MLOAD PUSH2 0x164 SWAP2 SWAP1 PUSH2 0x1C8B JUMP JUMPDEST PUSH1 0x40 MLOAD DUP1 SWAP2 SUB SWAP1 RETURN JUMPDEST PUSH2 0x187 PUSH1 0x4 DUP1 CALLDATASIZE SUB DUP2 ADD SWAP1 PUSH2 0x182 SWAP2 SWAP1 PUSH2 0x18E6 JUMP JUMPDEST PUSH2 0x4EC JUMP JUMPDEST STOP JUMPDEST PUSH2 0x1A3 PUSH1 0x4 DUP1 CALLDATASIZE SUB DUP2 ADD SWAP1 PUSH2 0x19E SWAP2 SWAP1 PUSH2 0x17D0 JUMP JUMPDEST PUSH2 0x604 JUMP JUMPDEST STOP JUMPDEST PUSH2 0x1BF PUSH1 0x4 DUP1 CALLDATASIZE SUB DUP2 ADD SWAP1 PUSH2 0x1BA SWAP2 SWAP1 PUSH2 0x17D0 JUMP JUMPDEST PUSH2 0x664 JUMP JUMPDEST STOP JUMPDEST PUSH2 0x1DB PUSH1 0x4 DUP1 CALLDATASIZE SUB DUP2 ADD SWAP1 PUSH2 0x1D6 SWAP2 SWAP1 PUSH2 0x1980 JUMP JUMPDEST PUSH2 0x684 JUMP JUMPDEST PUSH1 0x40 MLOAD PUSH2 0x1E8 SWAP2 SWAP1 PUSH2 0x1C8B JUMP JUMPDEST PUSH1 0x40 MLOAD DUP1 SWAP2 SUB SWAP1 RETURN JUMPDEST PUSH2 0x20B PUSH1 0x4 DUP1 CALLDATASIZE SUB DUP2 ADD SWAP1 PUSH2 0x206 SWAP2 SWAP1 PUSH2 0x1763 JUMP JUMPDEST PUSH2 0x736 JUMP JUMPDEST PUSH1 0x40 MLOAD PUSH2 0x218 SWAP2 SWAP1 PUSH2 0x1EEF JUMP JUMPDEST PUSH1 0x40 MLOAD DUP1 SWAP2 SUB SWAP1 RETURN JUMPDEST PUSH2 0x229 PUSH2 0x7EE JUMP JUMPDEST PUSH1 0x40 MLOAD PUSH2 0x236 SWAP2 SWAP1 PUSH2 0x1D0D JUMP JUMPDEST PUSH1 0x40 MLOAD DUP1 SWAP2 SUB SWAP1 RETURN JUMPDEST PUSH2 0x259 PUSH1 0x4 DUP1 CALLDATASIZE SUB DUP2 ADD SWAP1 PUSH2 0x254 SWAP2 SWAP1 PUSH2 0x18A6 JUMP JUMPDEST PUSH2 0x880 JUMP JUMPDEST STOP JUMPDEST PUSH2 0x275 PUSH1 0x4 DUP1 CALLDATASIZE SUB DUP2 ADD SWAP1 PUSH2 0x270 SWAP2 SWAP1 PUSH2 0x18E6 JUMP JUMPDEST PUSH2 0x896 JUMP JUMPDEST STOP JUMPDEST PUSH2 0x291 PUSH1 0x4 DUP1 CALLDATASIZE SUB DUP2 ADD SWAP1 PUSH2 0x28C SWAP2 SWAP1 PUSH2 0x1823 JUMP JUMPDEST PUSH2 0x8B4 JUMP JUMPDEST STOP JUMPDEST PUSH2 0x2AD PUSH1 0x4 DUP1 CALLDATASIZE SUB DUP2 ADD SWAP1 PUSH2 0x2A8 SWAP2 SWAP1 PUSH2 0x1980 JUMP JUMPDEST PUSH2 0x916 JUMP JUMPDEST PUSH1 0x40 MLOAD PUSH2 0x2BA SWAP2 SWAP1 PUSH2 0x1D0D JUMP JUMPDEST PUSH1 0x40 MLOAD DUP1 SWAP2 SUB SWAP1 RETURN JUMPDEST PUSH2 0x2DD PUSH1 0x4 DUP1 CALLDATASIZE SUB DUP2 ADD SWAP1 PUSH2 0x2D8 SWAP2 SWAP1 PUSH2 0x1790 JUMP JUMPDEST PUSH2 0x9BD JUMP JUMPDEST PUSH1 0x40 MLOAD PUSH2 0x2EA SWAP2 SWAP1 PUSH2 0x1CF2 JUMP JUMPDEST PUSH1 0x40 MLOAD DUP1 SWAP2 SUB SWAP1 RETURN JUMPDEST PUSH1 0x0 PUSH32 0x80AC58CD00000000000000000000000000000000000000000000000000000000 PUSH28 0xFFFFFFFFFFFFFFFFFFFFFFFFFFFFFFFFFFFFFFFFFFFFFFFFFFFFFFFF NOT AND DUP3 PUSH28 0xFFFFFFFFFFFFFFFFFFFFFFFFFFFFFFFFFFFFFFFFFFFFFFFFFFFFFFFF NOT AND EQ DUP1 PUSH2 0x3BE JUMPI POP PUSH32 0x5B5E139F00000000000000000000000000000000000000000000000000000000 PUSH28 0xFFFFFFFFFFFFFFFFFFFFFFFFFFFFFFFFFFFFFFFFFFFFFFFFFFFFFFFF NOT AND DUP3 PUSH28 0xFFFFFFFFFFFFFFFFFFFFFFFFFFFFFFFFFFFFFFFFFFFFFFFFFFFFFFFF NOT AND EQ JUMPDEST DUP1 PUSH2 0x3CE JUMPI POP PUSH2 0x3CD DUP3 PUSH2 0xA51 JUMP JUMPDEST JUMPDEST SWAP1 POP SWAP2 SWAP1 POP JUMP JUMPDEST PUSH1 0x60 PUSH1 0x1 DUP1 SLOAD PUSH2 0x3E4 SWAP1 PUSH2 0x2114 JUMP JUMPDEST DUP1 PUSH1 0x1F ADD PUSH1 0x20 DUP1 SWAP2 DIV MUL PUSH1 0x20 ADD PUSH1 0x40 MLOAD SWAP1 DUP2 ADD PUSH1 0x40 MSTORE DUP1 SWAP3 SWAP2 SWAP1 DUP2 DUP2 MSTORE PUSH1 0x20 ADD DUP3 DUP1 SLOAD PUSH2 0x410 SWAP1 PUSH2 0x2114 JUMP JUMPDEST DUP1 ISZERO PUSH2 0x45D JUMPI DUP1 PUSH1 0x1F LT PUSH2 0x432 JUMPI PUSH2 0x100 DUP1 DUP4 SLOAD DIV MUL DUP4 MSTORE SWAP2 PUSH1 0x20 ADD SWAP2 PUSH2 0x45D JUMP JUMPDEST DUP3 ADD SWAP2 SWAP1 PUSH1 0x0 MSTORE PUSH1 0x20 PUSH1 0x0 KECCAK256 SWAP1 JUMPDEST DUP2 SLOAD DUP2 MSTORE SWAP1 PUSH1 0x1 ADD SWAP1 PUSH1 0x20 ADD DUP1 DUP4 GT PUSH2 0x440 JUMPI DUP3 SWAP1 SUB PUSH1 0x1F AND DUP3 ADD SWAP2 JUMPDEST POP POP POP POP POP SWAP1 POP SWAP1 JUMP JUMPDEST PUSH1 0x0 PUSH2 0x472 DUP3 PUSH2 0xAB8 JUMP JUMPDEST PUSH2 0x4B1 JUMPI PUSH1 0x40 MLOAD PUSH32 0x8C379A000000000000000000000000000000000000000000000000000000000 DUP2 MSTORE PUSH1 0x4 ADD PUSH2 0x4A8 SWAP1 PUSH2 0x1E6F JUMP JUMPDEST PUSH1 0x40 MLOAD DUP1 SWAP2 SUB SWAP1 REVERT JUMPDEST PUSH1 0x5 PUSH1 0x0 DUP4 DUP2 MSTORE PUSH1 0x20 ADD SWAP1 DUP2 MSTORE PUSH1 0x20 ADD PUSH1 0x0 KECCAK256 PUSH1 0x0 SWAP1 SLOAD SWAP1 PUSH2 0x100 EXP SWAP1 DIV PUSH20 0xFFFFFFFFFFFFFFFFFFFFFFFFFFFFFFFFFFFFFFFF AND SWAP1 POP SWAP2 SWAP1 POP JUMP JUMPDEST PUSH1 0x0 PUSH2 0x4F7 DUP3 PUSH2 0x684 JUMP JUMPDEST SWAP1 POP DUP1 PUSH20 0xFFFFFFFFFFFFFFFFFFFFFFFFFFFFFFFFFFFFFFFF AND DUP4 PUSH20 0xFFFFFFFFFFFFFFFFFFFFFFFFFFFFFFFFFFFFFFFF AND EQ ISZERO PUSH2 0x568 JUMPI PUSH1 0x40 MLOAD PUSH32 0x8C379A000000000000000000000000000000000000000000000000000000000 DUP2 MSTORE PUSH1 0x4 ADD PUSH2 0x55F SWAP1 PUSH2 0x1EAF JUMP JUMPDEST PUSH1 0x40 MLOAD DUP1 SWAP2 SUB SWAP1 REVERT JUMPDEST DUP1 PUSH20 0xFFFFFFFFFFFFFFFFFFFFFFFFFFFFFFFFFFFFFFFF AND PUSH2 0x587 PUSH2 0xB24 JUMP JUMPDEST PUSH20 0xFFFFFFFFFFFFFFFFFFFFFFFFFFFFFFFFFFFFFFFF AND EQ DUP1 PUSH2 0x5B6 JUMPI POP PUSH2 0x5B5 DUP2 PUSH2 0x5B0 PUSH2 0xB24 JUMP JUMPDEST PUSH2 0x9BD JUMP JUMPDEST JUMPDEST PUSH2 0x5F5 JUMPI PUSH1 0x40 MLOAD PUSH32 0x8C379A000000000000000000000000000000000000000000000000000000000 DUP2 MSTORE PUSH1 0x4 ADD PUSH2 0x5EC SWAP1 PUSH2 0x1DEF JUMP JUMPDEST PUSH1 0x40 MLOAD DUP1 SWAP2 SUB SWAP1 REVERT JUMPDEST PUSH2 0x5FF DUP4 DUP4 PUSH2 0xB2C JUMP JUMPDEST POP POP POP JUMP JUMPDEST PUSH2 0x615 PUSH2 0x60F PUSH2 0xB24 JUMP JUMPDEST DUP3 PUSH2 0xBE5 JUMP JUMPDEST PUSH2 0x654 JUMPI PUSH1 0x40 MLOAD PUSH32 0x8C379A000000000000000000000000000000000000000000000000000000000 DUP2 MSTORE PUSH1 0x4 ADD PUSH2 0x64B SWAP1 PUSH2 0x1ECF JUMP JUMPDEST PUSH1 0x40 MLOAD DUP1 SWAP2 SUB SWAP1 REVERT JUMPDEST PUSH2 0x65F DUP4 DUP4 DUP4 PUSH2 0xCC3 JUMP JUMPDEST POP POP POP JUMP JUMPDEST PUSH2 0x67F DUP4 DUP4 DUP4 PUSH1 0x40 MLOAD DUP1 PUSH1 0x20 ADD PUSH1 0x40 MSTORE DUP1 PUSH1 0x0 DUP2 MSTORE POP PUSH2 0x8B4 JUMP JUMPDEST POP POP POP JUMP JUMPDEST PUSH1 0x0 DUP1 PUSH1 0x3 PUSH1 0x0 DUP5 DUP2 MSTORE PUSH1 0x20 ADD SWAP1 DUP2 MSTORE PUSH1 0x20 ADD PUSH1 0x0 KECCAK256 PUSH1 0x0 SWAP1 SLOAD SWAP1 PUSH2 0x100 EXP SWAP1 DIV PUSH20 0xFFFFFFFFFFFFFFFFFFFFFFFFFFFFFFFFFFFFFFFF AND SWAP1 POP PUSH1 0x0 PUSH20 0xFFFFFFFFFFFFFFFFFFFFFFFFFFFFFFFFFFFFFFFF AND DUP2 PUSH20 0xFFFFFFFFFFFFFFFFFFFFFFFFFFFFFFFFFFFFFFFF AND EQ ISZERO PUSH2 0x72D JUMPI PUSH1 0x40 MLOAD PUSH32 0x8C379A000000000000000000000000000000000000000000000000000000000 DUP2 MSTORE PUSH1 0x4 ADD PUSH2 0x724 SWAP1 PUSH2 0x1E2F JUMP JUMPDEST PUSH1 0x40 MLOAD DUP1 SWAP2 SUB SWAP1 REVERT JUMPDEST DUP1 SWAP2 POP POP SWAP2 SWAP1 POP JUMP JUMPDEST PUSH1 0x0 DUP1 PUSH20 0xFFFFFFFFFFFFFFFFFFFFFFFFFFFFFFFFFFFFFFFF AND DUP3 PUSH20 0xFFFFFFFFFFFFFFFFFFFFFFFFFFFFFFFFFFFFFFFF AND EQ ISZERO PUSH2 0x7A7 JUMPI PUSH1 0x40 MLOAD PUSH32 0x8C379A000000000000000000000000000000000000000000000000000000000 DUP2 MSTORE PUSH1 0x4 ADD PUSH2 0x79E SWAP1 PUSH2 0x1E0F JUMP JUMPDEST PUSH1 0x40 MLOAD DUP1 SWAP2 SUB SWAP1 REVERT JUMPDEST PUSH1 0x4 PUSH1 0x0 DUP4 PUSH20 0xFFFFFFFFFFFFFFFFFFFFFFFFFFFFFFFFFFFFFFFF AND PUSH20 0xFFFFFFFFFFFFFFFFFFFFFFFFFFFFFFFFFFFFFFFF AND DUP2 MSTORE PUSH1 0x20 ADD SWAP1 DUP2 MSTORE PUSH1 0x20 ADD PUSH1 0x0 KECCAK256 SLOAD SWAP1 POP SWAP2 SWAP1 POP JUMP JUMPDEST PUSH1 0x60 PUSH1 0x2 DUP1 SLOAD PUSH2 0x7FD SWAP1 PUSH2 0x2114 JUMP JUMPDEST DUP1 PUSH1 0x1F ADD PUSH1 0x20 DUP1 SWAP2 DIV MUL PUSH1 0x20 ADD PUSH1 0x40 MLOAD SWAP1 DUP2 ADD PUSH1 0x40 MSTORE DUP1 SWAP3 SWAP2 SWAP1 DUP2 DUP2 MSTORE PUSH1 0x20 ADD DUP3 DUP1 SLOAD PUSH2 0x829 SWAP1 PUSH2 0x2114 JUMP JUMPDEST DUP1 ISZERO PUSH2 0x876 JUMPI DUP1 PUSH1 0x1F LT PUSH2 0x84B JUMPI PUSH2 0x100 DUP1 DUP4 SLOAD DIV MUL DUP4 MSTORE SWAP2 PUSH1 0x20 ADD SWAP2 PUSH2 0x876 JUMP JUMPDEST DUP3 ADD SWAP2 SWAP1 PUSH1 0x0 MSTORE PUSH1 0x20 PUSH1 0x0 KECCAK256 SWAP1 JUMPDEST DUP2 SLOAD DUP2 MSTORE SWAP1 PUSH1 0x1 ADD SWAP1 PUSH1 0x20 ADD DUP1 DUP4 GT PUSH2 0x859 JUMPI DUP3 SWAP1 SUB PUSH1 0x1F AND DUP3 ADD SWAP2 JUMPDEST POP POP POP POP POP SWAP1 POP SWAP1 JUMP JUMPDEST PUSH2 0x892 PUSH2 0x88B PUSH2 0xB24 JUMP JUMPDEST DUP4 DUP4 PUSH2 0xF2A JUMP JUMPDEST POP POP JUMP JUMPDEST PUSH2 0x8B0 DUP3 DUP3 PUSH1 0x40 MLOAD DUP1 PUSH1 0x20 ADD PUSH1 0x40 MSTORE DUP1 PUSH1 0x0 DUP2 MSTORE POP PUSH2 0x1097 JUMP JUMPDEST POP POP JUMP JUMPDEST PUSH2 0x8C5 PUSH2 0x8BF PUSH2 0xB24 JUMP JUMPDEST DUP4 PUSH2 0xBE5 JUMP JUMPDEST PUSH2 0x904 JUMPI PUSH1 0x40 MLOAD PUSH32 0x8C379A000000000000000000000000000000000000000000000000000000000 DUP2 MSTORE PUSH1 0x4 ADD PUSH2 0x8FB SWAP1 PUSH2 0x1ECF JUMP JUMPDEST PUSH1 0x40 MLOAD DUP1 SWAP2 SUB SWAP1 REVERT JUMPDEST PUSH2 0x910 DUP5 DUP5 DUP5 DUP5 PUSH2 0x10F2 JUMP JUMPDEST POP POP POP POP JUMP JUMPDEST PUSH1 0x60 PUSH2 0x921 DUP3 PUSH2 0xAB8 JUMP JUMPDEST PUSH2 0x960 JUMPI PUSH1 0x40 MLOAD PUSH32 0x8C379A000000000000000000000000000000000000000000000000000000000 DUP2 MSTORE PUSH1 0x4 ADD PUSH2 0x957 SWAP1 PUSH2 0x1E8F JUMP JUMPDEST PUSH1 0x40 MLOAD DUP1 SWAP2 SUB SWAP1 REVERT JUMPDEST PUSH1 0x0 PUSH2 0x96A PUSH2 0x114E JUMP JUMPDEST SWAP1 POP PUSH1 0x0 DUP2 MLOAD GT PUSH2 0x98A JUMPI PUSH1 0x40 MLOAD DUP1 PUSH1 0x20 ADD PUSH1 0x40 MSTORE DUP1 PUSH1 0x0 DUP2 MSTORE POP PUSH2 0x9B5 JUMP JUMPDEST DUP1 PUSH2 0x994 DUP5 PUSH2 0x118B JUMP JUMPDEST PUSH1 0x40 MLOAD PUSH1 0x20 ADD PUSH2 0x9A5 SWAP3 SWAP2 SWAP1 PUSH2 0x1C67 JUMP JUMPDEST PUSH1 0x40 MLOAD PUSH1 0x20 DUP2 DUP4 SUB SUB DUP2 MSTORE SWAP1 PUSH1 0x40 MSTORE JUMPDEST SWAP2 POP POP SWAP2 SWAP1 POP JUMP JUMPDEST PUSH1 0x0 PUSH1 0x6 PUSH1 0x0 DUP5 PUSH20 0xFFFFFFFFFFFFFFFFFFFFFFFFFFFFFFFFFFFFFFFF AND PUSH20 0xFFFFFFFFFFFFFFFFFFFFFFFFFFFFFFFFFFFFFFFF AND DUP2 MSTORE PUSH1 0x20 ADD SWAP1 DUP2 MSTORE PUSH1 0x20 ADD PUSH1 0x0 KECCAK256 PUSH1 0x0 DUP4 PUSH20 0xFFFFFFFFFFFFFFFFFFFFFFFFFFFFFFFFFFFFFFFF AND PUSH20 0xFFFFFFFFFFFFFFFFFFFFFFFFFFFFFFFFFFFFFFFF AND DUP2 MSTORE PUSH1 0x20 ADD SWAP1 DUP2 MSTORE PUSH1 0x20 ADD PUSH1 0x0 KECCAK256 PUSH1 0x0 SWAP1 SLOAD SWAP1 PUSH2 0x100 EXP SWAP1 DIV PUSH1 0xFF AND SWAP1 POP SWAP3 SWAP2 POP POP JUMP JUMPDEST PUSH1 0x0 DUP1 PUSH1 0x0 DUP4 PUSH28 0xFFFFFFFFFFFFFFFFFFFFFFFFFFFFFFFFFFFFFFFFFFFFFFFFFFFFFFFF NOT AND PUSH28 0xFFFFFFFFFFFFFFFFFFFFFFFFFFFFFFFFFFFFFFFFFFFFFFFFFFFFFFFF NOT AND DUP2 MSTORE PUSH1 0x20 ADD SWAP1 DUP2 MSTORE PUSH1 0x20 ADD PUSH1 0x0 KECCAK256 PUSH1 0x0 SWAP1 SLOAD SWAP1 PUSH2 0x100 EXP SWAP1 DIV PUSH1 0xFF AND SWAP1 POP SWAP2 SWAP1 POP JUMP JUMPDEST PUSH1 0x0 DUP1 PUSH20 0xFFFFFFFFFFFFFFFFFFFFFFFFFFFFFFFFFFFFFFFF AND PUSH1 0x3 PUSH1 0x0 DUP5 DUP2 MSTORE PUSH1 0x20 ADD SWAP1 DUP2 MSTORE PUSH1 0x20 ADD PUSH1 0x0 KECCAK256 PUSH1 0x0 SWAP1 SLOAD SWAP1 PUSH2 0x100 EXP SWAP1 DIV PUSH20 0xFFFFFFFFFFFFFFFFFFFFFFFFFFFFFFFFFFFFFFFF AND PUSH20 0xFFFFFFFFFFFFFFFFFFFFFFFFFFFFFFFFFFFFFFFF AND EQ ISZERO SWAP1 POP SWAP2 SWAP1 POP JUMP JUMPDEST PUSH1 0x0 CALLER SWAP1 POP SWAP1 JUMP JUMPDEST DUP2 PUSH1 0x5 PUSH1 0x0 DUP4 DUP2 MSTORE PUSH1 0x20 ADD SWAP1 DUP2 MSTORE PUSH1 0x20 ADD PUSH1 0x0 KECCAK256 PUSH1 0x0 PUSH2 0x100 EXP DUP2 SLOAD DUP2 PUSH20 0xFFFFFFFFFFFFFFFFFFFFFFFFFFFFFFFFFFFFFFFF MUL NOT AND SWAP1 DUP4 PUSH20 0xFFFFFFFFFFFFFFFFFFFFFFFFFFFFFFFFFFFFFFFF AND MUL OR SWAP1 SSTORE POP DUP1 DUP3 PUSH20 0xFFFFFFFFFFFFFFFFFFFFFFFFFFFFFFFFFFFFFFFF AND PUSH2 0xB9F DUP4 PUSH2 0x684 JUMP JUMPDEST PUSH20 0xFFFFFFFFFFFFFFFFFFFFFFFFFFFFFFFFFFFFFFFF AND PUSH32 0x8C5BE1E5EBEC7D5BD14F71427D1E84F3DD0314C0F7B2291E5B200AC8C7C3B925 PUSH1 0x40 MLOAD PUSH1 0x40 MLOAD DUP1 SWAP2 SUB SWAP1 LOG4 POP POP JUMP JUMPDEST PUSH1 0x0 PUSH2 0xBF0 DUP3 PUSH2 0xAB8 JUMP JUMPDEST PUSH2 0xC2F JUMPI PUSH1 0x40 MLOAD PUSH32 0x8C379A000000000000000000000000000000000000000000000000000000000 DUP2 MSTORE PUSH1 0x4 ADD PUSH2 0xC26 SWAP1 PUSH2 0x1DCF JUMP JUMPDEST PUSH1 0x40 MLOAD DUP1 SWAP2 SUB SWAP1 REVERT JUMPDEST PUSH1 0x0 PUSH2 0xC3A DUP4 PUSH2 0x684 JUMP JUMPDEST SWAP1 POP DUP1 PUSH20 0xFFFFFFFFFFFFFFFFFFFFFFFFFFFFFFFFFFFFFFFF AND DUP5 PUSH20 0xFFFFFFFFFFFFFFFFFFFFFFFFFFFFFFFFFFFFFFFF AND EQ DUP1 PUSH2 0xC7C JUMPI POP PUSH2 0xC7B DUP2 DUP6 PUSH2 0x9BD JUMP JUMPDEST JUMPDEST DUP1 PUSH2 0xCBA JUMPI POP DUP4 PUSH20 0xFFFFFFFFFFFFFFFFFFFFFFFFFFFFFFFFFFFFFFFF AND PUSH2 0xCA2 DUP5 PUSH2 0x467 JUMP JUMPDEST PUSH20 0xFFFFFFFFFFFFFFFFFFFFFFFFFFFFFFFFFFFFFFFF AND EQ JUMPDEST SWAP2 POP POP SWAP3 SWAP2 POP POP JUMP JUMPDEST DUP3 PUSH20 0xFFFFFFFFFFFFFFFFFFFFFFFFFFFFFFFFFFFFFFFF AND PUSH2 0xCE3 DUP3 PUSH2 0x684 JUMP JUMPDEST PUSH20 0xFFFFFFFFFFFFFFFFFFFFFFFFFFFFFFFFFFFFFFFF AND EQ PUSH2 0xD39 JUMPI PUSH1 0x40 MLOAD PUSH32 0x8C379A000000000000000000000000000000000000000000000000000000000 DUP2 MSTORE PUSH1 0x4 ADD PUSH2 0xD30 SWAP1 PUSH2 0x1D4F JUMP JUMPDEST PUSH1 0x40 MLOAD DUP1 SWAP2 SUB SWAP1 REVERT JUMPDEST PUSH1 0x0 PUSH20 0xFFFFFFFFFFFFFFFFFFFFFFFFFFFFFFFFFFFFFFFF AND DUP3 PUSH20 0xFFFFFFFFFFFFFFFFFFFFFFFFFFFFFFFFFFFFFFFF AND EQ ISZERO PUSH2 0xDA9 JUMPI PUSH1 0x40 MLOAD PUSH32 0x8C379A000000000000000000000000000000000000000000000000000000000 DUP2 MSTORE PUSH1 0x4 ADD PUSH2 0xDA0 SWAP1 PUSH2 0x1D8F JUMP JUMPDEST PUSH1 0x40 MLOAD DUP1 SWAP2 SUB SWAP1 REVERT JUMPDEST PUSH2 0xDB4 DUP4 DUP4 DUP4 PUSH2 0x12EC JUMP JUMPDEST PUSH2 0xDBF PUSH1 0x0 DUP3 PUSH2 0xB2C JUMP JUMPDEST PUSH1 0x1 PUSH1 0x4 PUSH1 0x0 DUP6 PUSH20 0xFFFFFFFFFFFFFFFFFFFFFFFFFFFFFFFFFFFFFFFF AND PUSH20 0xFFFFFFFFFFFFFFFFFFFFFFFFFFFFFFFFFFFFFFFF AND DUP2 MSTORE PUSH1 0x20 ADD SWAP1 DUP2 MSTORE PUSH1 0x20 ADD PUSH1 0x0 KECCAK256 PUSH1 0x0 DUP3 DUP3 SLOAD PUSH2 0xE0F SWAP2 SWAP1 PUSH2 0x202A JUMP JUMPDEST SWAP3 POP POP DUP2 SWAP1 SSTORE POP PUSH1 0x1 PUSH1 0x4 PUSH1 0x0 DUP5 PUSH20 0xFFFFFFFFFFFFFFFFFFFFFFFFFFFFFFFFFFFFFFFF AND PUSH20 0xFFFFFFFFFFFFFFFFFFFFFFFFFFFFFFFFFFFFFFFF AND DUP2 MSTORE PUSH1 0x20 ADD SWAP1 DUP2 MSTORE PUSH1 0x20 ADD PUSH1 0x0 KECCAK256 PUSH1 0x0 DUP3 DUP3 SLOAD PUSH2 0xE66 SWAP2 SWAP1 PUSH2 0x1FA3 JUMP JUMPDEST SWAP3 POP POP DUP2 SWAP1 SSTORE POP DUP2 PUSH1 0x3 PUSH1 0x0 DUP4 DUP2 MSTORE PUSH1 0x20 ADD SWAP1 DUP2 MSTORE PUSH1 0x20 ADD PUSH1 0x0 KECCAK256 PUSH1 0x0 PUSH2 0x100 EXP DUP2 SLOAD DUP2 PUSH20 0xFFFFFFFFFFFFFFFFFFFFFFFFFFFFFFFFFFFFFFFF MUL NOT AND SWAP1 DUP4 PUSH20 0xFFFFFFFFFFFFFFFFFFFFFFFFFFFFFFFFFFFFFFFF AND MUL OR SWAP1 SSTORE POP DUP1 DUP3 PUSH20 0xFFFFFFFFFFFFFFFFFFFFFFFFFFFFFFFFFFFFFFFF AND DUP5 PUSH20 0xFFFFFFFFFFFFFFFFFFFFFFFFFFFFFFFFFFFFFFFF AND PUSH32 0xDDF252AD1BE2C89B69C2B068FC378DAA952BA7F163C4A11628F55A4DF523B3EF PUSH1 0x40 MLOAD PUSH1 0x40 MLOAD DUP1 SWAP2 SUB SWAP1 LOG4 PUSH2 0xF25 DUP4 DUP4 DUP4 PUSH2 0x12F1 JUMP JUMPDEST POP POP POP JUMP JUMPDEST DUP2 PUSH20 0xFFFFFFFFFFFFFFFFFFFFFFFFFFFFFFFFFFFFFFFF AND DUP4 PUSH20 0xFFFFFFFFFFFFFFFFFFFFFFFFFFFFFFFFFFFFFFFF AND EQ ISZERO PUSH2 0xF99 JUMPI PUSH1 0x40 MLOAD PUSH32 0x8C379A000000000000000000000000000000000000000000000000000000000 DUP2 MSTORE PUSH1 0x4 ADD PUSH2 0xF90 SWAP1 PUSH2 0x1DAF JUMP JUMPDEST PUSH1 0x40 MLOAD DUP1 SWAP2 SUB SWAP1 REVERT JUMPDEST DUP1 PUSH1 0x6 PUSH1 0x0 DUP6 PUSH20 0xFFFFFFFFFFFFFFFFFFFFFFFFFFFFFFFFFFFFFFFF AND PUSH20 0xFFFFFFFFFFFFFFFFFFFFFFFFFFFFFFFFFFFFFFFF AND DUP2 MSTORE PUSH1 0x20 ADD SWAP1 DUP2 MSTORE PUSH1 0x20 ADD PUSH1 0x0 KECCAK256 PUSH1 0x0 DUP5 PUSH20 0xFFFFFFFFFFFFFFFFFFFFFFFFFFFFFFFFFFFFFFFF AND PUSH20 0xFFFFFFFFFFFFFFFFFFFFFFFFFFFFFFFFFFFFFFFF AND DUP2 MSTORE PUSH1 0x20 ADD SWAP1 DUP2 MSTORE PUSH1 0x20 ADD PUSH1 0x0 KECCAK256 PUSH1 0x0 PUSH2 0x100 EXP DUP2 SLOAD DUP2 PUSH1 0xFF MUL NOT AND SWAP1 DUP4 ISZERO ISZERO MUL OR SWAP1 SSTORE POP DUP2 PUSH20 0xFFFFFFFFFFFFFFFFFFFFFFFFFFFFFFFFFFFFFFFF AND DUP4 PUSH20 0xFFFFFFFFFFFFFFFFFFFFFFFFFFFFFFFFFFFFFFFF AND PUSH32 0x17307EAB39AB6107E8899845AD3D59BD9653F200F220920489CA2B5937696C31 DUP4 PUSH1 0x40 MLOAD PUSH2 0x108A SWAP2 SWAP1 PUSH2 0x1CF2 JUMP JUMPDEST PUSH1 0x40 MLOAD DUP1 SWAP2 SUB SWAP1 LOG3 POP POP POP JUMP JUMPDEST PUSH2 0x10A1 DUP4 DUP4 PUSH2 0x12F6 JUMP JUMPDEST PUSH2 0x10AE PUSH1 0x0 DUP5 DUP5 DUP5 PUSH2 0x14D0 JUMP JUMPDEST PUSH2 0x10ED JUMPI PUSH1 0x40 MLOAD PUSH32 0x8C379A000000000000000000000000000000000000000000000000000000000 DUP2 MSTORE PUSH1 0x4 ADD PUSH2 0x10E4 SWAP1 PUSH2 0x1D2F JUMP JUMPDEST PUSH1 0x40 MLOAD DUP1 SWAP2 SUB SWAP1 REVERT JUMPDEST POP POP POP JUMP JUMPDEST PUSH2 0x10FD DUP5 DUP5 DUP5 PUSH2 0xCC3 JUMP JUMPDEST PUSH2 0x1109 DUP5 DUP5 DUP5 DUP5 PUSH2 0x14D0 JUMP JUMPDEST PUSH2 0x1148 JUMPI PUSH1 0x40 MLOAD PUSH32 0x8C379A000000000000000000000000000000000000000000000000000000000 DUP2 MSTORE PUSH1 0x4 ADD PUSH2 0x113F SWAP1 PUSH2 0x1D2F JUMP JUMPDEST PUSH1 0x40 MLOAD DUP1 SWAP2 SUB SWAP1 REVERT JUMPDEST POP POP POP POP JUMP JUMPDEST PUSH1 0x60 PUSH1 0x40 MLOAD DUP1 PUSH1 0x40 ADD PUSH1 0x40 MSTORE DUP1 PUSH1 0x12 DUP2 MSTORE PUSH1 0x20 ADD PUSH32 0x42696E616E636520536D61727420446174610000000000000000000000000000 DUP2 MSTORE POP SWAP1 POP SWAP1 JUMP JUMPDEST PUSH1 0x60 PUSH1 0x0 DUP3 EQ ISZERO PUSH2 0x11D3 JUMPI PUSH1 0x40 MLOAD DUP1 PUSH1 0x40 ADD PUSH1 0x40 MSTORE DUP1 PUSH1 0x1 DUP2 MSTORE PUSH1 0x20 ADD PUSH32 0x3000000000000000000000000000000000000000000000000000000000000000 DUP2 MSTORE POP SWAP1 POP PUSH2 0x12E7 JUMP JUMPDEST PUSH1 0x0 DUP3 SWAP1 POP PUSH1 0x0 JUMPDEST PUSH1 0x0 DUP3 EQ PUSH2 0x1205 JUMPI DUP1 DUP1 PUSH2 0x11EE SWAP1 PUSH2 0x2177 JUMP JUMPDEST SWAP2 POP POP PUSH1 0xA DUP3 PUSH2 0x11FE SWAP2 SWAP1 PUSH2 0x1FF9 JUMP JUMPDEST SWAP2 POP PUSH2 0x11DB JUMP JUMPDEST PUSH1 0x0 DUP2 PUSH8 0xFFFFFFFFFFFFFFFF DUP2 GT ISZERO PUSH2 0x1221 JUMPI PUSH2 0x1220 PUSH2 0x22AD JUMP JUMPDEST JUMPDEST PUSH1 0x40 MLOAD SWAP1 DUP1 DUP3 MSTORE DUP1 PUSH1 0x1F ADD PUSH1 0x1F NOT AND PUSH1 0x20 ADD DUP3 ADD PUSH1 0x40 MSTORE DUP1 ISZERO PUSH2 0x1253 JUMPI DUP2 PUSH1 0x20 ADD PUSH1 0x1 DUP3 MUL DUP1 CALLDATASIZE DUP4 CALLDATACOPY DUP1 DUP3 ADD SWAP2 POP POP SWAP1 POP JUMPDEST POP SWAP1 POP JUMPDEST PUSH1 0x0 DUP6 EQ PUSH2 0x12E0 JUMPI PUSH1 0x1 DUP3 PUSH2 0x126C SWAP2 SWAP1 PUSH2 0x202A JUMP JUMPDEST SWAP2 POP PUSH1 0xA DUP6 PUSH2 0x127B SWAP2 SWAP1 PUSH2 0x21C0 JUMP JUMPDEST PUSH1 0x30 PUSH2 0x1287 SWAP2 SWAP1 PUSH2 0x1FA3 JUMP JUMPDEST PUSH1 0xF8 SHL DUP2 DUP4 DUP2 MLOAD DUP2 LT PUSH2 0x129D JUMPI PUSH2 0x129C PUSH2 0x227E JUMP JUMPDEST JUMPDEST PUSH1 0x20 ADD ADD SWAP1 PUSH31 0xFFFFFFFFFFFFFFFFFFFFFFFFFFFFFFFFFFFFFFFFFFFFFFFFFFFFFFFFFFFFFF NOT AND SWAP1 DUP2 PUSH1 0x0 BYTE SWAP1 MSTORE8 POP PUSH1 0xA DUP6 PUSH2 0x12D9 SWAP2 SWAP1 PUSH2 0x1FF9 JUMP JUMPDEST SWAP5 POP PUSH2 0x1257 JUMP JUMPDEST DUP1 SWAP4 POP POP POP POP JUMPDEST SWAP2 SWAP1 POP JUMP JUMPDEST POP POP POP JUMP JUMPDEST POP POP POP JUMP JUMPDEST PUSH1 0x0 PUSH20 0xFFFFFFFFFFFFFFFFFFFFFFFFFFFFFFFFFFFFFFFF AND DUP3 PUSH20 0xFFFFFFFFFFFFFFFFFFFFFFFFFFFFFFFFFFFFFFFF AND EQ ISZERO PUSH2 0x1366 JUMPI PUSH1 0x40 MLOAD PUSH32 0x8C379A000000000000000000000000000000000000000000000000000000000 DUP2 MSTORE PUSH1 0x4 ADD PUSH2 0x135D SWAP1 PUSH2 0x1E4F JUMP JUMPDEST PUSH1 0x40 MLOAD DUP1 SWAP2 SUB SWAP1 REVERT JUMPDEST PUSH2 0x136F DUP2 PUSH2 0xAB8 JUMP JUMPDEST ISZERO PUSH2 0x13AF JUMPI PUSH1 0x40 MLOAD PUSH32 0x8C379A000000000000000000000000000000000000000000000000000000000 DUP2 MSTORE PUSH1 0x4 ADD PUSH2 0x13A6 SWAP1 PUSH2 0x1D6F JUMP JUMPDEST PUSH1 0x40 MLOAD DUP1 SWAP2 SUB SWAP1 REVERT JUMPDEST PUSH2 0x13BB PUSH1 0x0 DUP4 DUP4 PUSH2 0x12EC JUMP JUMPDEST PUSH1 0x1 PUSH1 0x4 PUSH1 0x0 DUP5 PUSH20 0xFFFFFFFFFFFFFFFFFFFFFFFFFFFFFFFFFFFFFFFF AND PUSH20 0xFFFFFFFFFFFFFFFFFFFFFFFFFFFFFFFFFFFFFFFF AND DUP2 MSTORE PUSH1 0x20 ADD SWAP1 DUP2 MSTORE PUSH1 0x20 ADD PUSH1 0x0 KECCAK256 PUSH1 0x0 DUP3 DUP3 SLOAD PUSH2 0x140B SWAP2 SWAP1 PUSH2 0x1FA3 JUMP JUMPDEST SWAP3 POP POP DUP2 SWAP1 SSTORE POP DUP2 PUSH1 0x3 PUSH1 0x0 DUP4 DUP2 MSTORE PUSH1 0x20 ADD SWAP1 DUP2 MSTORE PUSH1 0x20 ADD PUSH1 0x0 KECCAK256 PUSH1 0x0 PUSH2 0x100 EXP DUP2 SLOAD DUP2 PUSH20 0xFFFFFFFFFFFFFFFFFFFFFFFFFFFFFFFFFFFFFFFF MUL NOT AND SWAP1 DUP4 PUSH20 0xFFFFFFFFFFFFFFFFFFFFFFFFFFFFFFFFFFFFFFFF AND MUL OR SWAP1 SSTORE POP DUP1 DUP3 PUSH20 0xFFFFFFFFFFFFFFFFFFFFFFFFFFFFFFFFFFFFFFFF AND PUSH1 0x0 PUSH20 0xFFFFFFFFFFFFFFFFFFFFFFFFFFFFFFFFFFFFFFFF AND PUSH32 0xDDF252AD1BE2C89B69C2B068FC378DAA952BA7F163C4A11628F55A4DF523B3EF PUSH1 0x40 MLOAD PUSH1 0x40 MLOAD DUP1 SWAP2 SUB SWAP1 LOG4 PUSH2 0x14CC PUSH1 0x0 DUP4 DUP4 PUSH2 0x12F1 JUMP JUMPDEST POP POP JUMP JUMPDEST PUSH1 0x0 PUSH2 0x14F1 DUP5 PUSH20 0xFFFFFFFFFFFFFFFFFFFFFFFFFFFFFFFFFFFFFFFF AND PUSH2 0x1667 JUMP JUMPDEST ISZERO PUSH2 0x165A JUMPI DUP4 PUSH20 0xFFFFFFFFFFFFFFFFFFFFFFFFFFFFFFFFFFFFFFFF AND PUSH4 0x150B7A02 PUSH2 0x151A PUSH2 0xB24 JUMP JUMPDEST DUP8 DUP7 DUP7 PUSH1 0x40 MLOAD DUP6 PUSH4 0xFFFFFFFF AND PUSH1 0xE0 SHL DUP2 MSTORE PUSH1 0x4 ADD PUSH2 0x153C SWAP5 SWAP4 SWAP3 SWAP2 SWAP1 PUSH2 0x1CA6 JUMP JUMPDEST PUSH1 0x20 PUSH1 0x40 MLOAD DUP1 DUP4 SUB DUP2 PUSH1 0x0 DUP8 DUP1 EXTCODESIZE ISZERO DUP1 ISZERO PUSH2 0x1556 JUMPI PUSH1 0x0 DUP1 REVERT JUMPDEST POP GAS CALL SWAP3 POP POP POP DUP1 ISZERO PUSH2 0x1587 JUMPI POP PUSH1 0x40 MLOAD RETURNDATASIZE PUSH1 0x1F NOT PUSH1 0x1F DUP3 ADD AND DUP3 ADD DUP1 PUSH1 0x40 MSTORE POP DUP2 ADD SWAP1 PUSH2 0x1584 SWAP2 SWAP1 PUSH2 0x1953 JUMP JUMPDEST PUSH1 0x1 JUMPDEST PUSH2 0x160A JUMPI RETURNDATASIZE DUP1 PUSH1 0x0 DUP2 EQ PUSH2 0x15B7 JUMPI PUSH1 0x40 MLOAD SWAP2 POP PUSH1 0x1F NOT PUSH1 0x3F RETURNDATASIZE ADD AND DUP3 ADD PUSH1 0x40 MSTORE RETURNDATASIZE DUP3 MSTORE RETURNDATASIZE PUSH1 0x0 PUSH1 0x20 DUP5 ADD RETURNDATACOPY PUSH2 0x15BC JUMP JUMPDEST PUSH1 0x60 SWAP2 POP JUMPDEST POP PUSH1 0x0 DUP2 MLOAD EQ ISZERO PUSH2 0x1602 JUMPI PUSH1 0x40 MLOAD PUSH32 0x8C379A000000000000000000000000000000000000000000000000000000000 DUP2 MSTORE PUSH1 0x4 ADD PUSH2 0x15F9 SWAP1 PUSH2 0x1D2F JUMP JUMPDEST PUSH1 0x40 MLOAD DUP1 SWAP2 SUB SWAP1 REVERT JUMPDEST DUP1 MLOAD DUP2 PUSH1 0x20 ADD REVERT JUMPDEST PUSH4 0x150B7A02 PUSH1 0xE0 SHL PUSH28 0xFFFFFFFFFFFFFFFFFFFFFFFFFFFFFFFFFFFFFFFFFFFFFFFFFFFFFFFF NOT AND DUP2 PUSH28 0xFFFFFFFFFFFFFFFFFFFFFFFFFFFFFFFFFFFFFFFFFFFFFFFFFFFFFFFF NOT AND EQ SWAP2 POP POP PUSH2 0x165F JUMP JUMPDEST PUSH1 0x1 SWAP1 POP JUMPDEST SWAP5 SWAP4 POP POP POP POP JUMP JUMPDEST PUSH1 0x0 DUP1 DUP3 PUSH20 0xFFFFFFFFFFFFFFFFFFFFFFFFFFFFFFFFFFFFFFFF AND EXTCODESIZE GT SWAP1 POP SWAP2 SWAP1 POP JUMP JUMPDEST PUSH1 0x0 PUSH2 0x169D PUSH2 0x1698 DUP5 PUSH2 0x1F2F JUMP JUMPDEST PUSH2 0x1F0A JUMP JUMPDEST SWAP1 POP DUP3 DUP2 MSTORE PUSH1 0x20 DUP2 ADD DUP5 DUP5 DUP5 ADD GT ISZERO PUSH2 0x16B9 JUMPI PUSH2 0x16B8 PUSH2 0x22E1 JUMP JUMPDEST JUMPDEST PUSH2 0x16C4 DUP5 DUP3 DUP6 PUSH2 0x20D2 JUMP JUMPDEST POP SWAP4 SWAP3 POP POP POP JUMP JUMPDEST PUSH1 0x0 DUP2 CALLDATALOAD SWAP1 POP PUSH2 0x16DB DUP2 PUSH2 0x26E1 JUMP JUMPDEST SWAP3 SWAP2 POP POP JUMP JUMPDEST PUSH1 0x0 DUP2 CALLDATALOAD SWAP1 POP PUSH2 0x16F0 DUP2 PUSH2 0x26F8 JUMP JUMPDEST SWAP3 SWAP2 POP POP JUMP JUMPDEST PUSH1 0x0 DUP2 CALLDATALOAD SWAP1 POP PUSH2 0x1705 DUP2 PUSH2 0x270F JUMP JUMPDEST SWAP3 SWAP2 POP POP JUMP JUMPDEST PUSH1 0x0 DUP2 MLOAD SWAP1 POP PUSH2 0x171A DUP2 PUSH2 0x270F JUMP JUMPDEST SWAP3 SWAP2 POP POP JUMP JUMPDEST PUSH1 0x0 DUP3 PUSH1 0x1F DUP4 ADD SLT PUSH2 0x1735 JUMPI PUSH2 0x1734 PUSH2 0x22DC JUMP JUMPDEST JUMPDEST DUP2 CALLDATALOAD PUSH2 0x1745 DUP5 DUP3 PUSH1 0x20 DUP7 ADD PUSH2 0x168A JUMP JUMPDEST SWAP2 POP POP SWAP3 SWAP2 POP POP JUMP JUMPDEST PUSH1 0x0 DUP2 CALLDATALOAD SWAP1 POP PUSH2 0x175D DUP2 PUSH2 0x2726 JUMP JUMPDEST SWAP3 SWAP2 POP POP JUMP JUMPDEST PUSH1 0x0 PUSH1 0x20 DUP3 DUP5 SUB SLT ISZERO PUSH2 0x1779 JUMPI PUSH2 0x1778 PUSH2 0x22EB JUMP JUMPDEST JUMPDEST PUSH1 0x0 PUSH2 0x1787 DUP5 DUP3 DUP6 ADD PUSH2 0x16CC JUMP JUMPDEST SWAP2 POP POP SWAP3 SWAP2 POP POP JUMP JUMPDEST PUSH1 0x0 DUP1 PUSH1 0x40 DUP4 DUP6 SUB SLT ISZERO PUSH2 0x17A7 JUMPI PUSH2 0x17A6 PUSH2 0x22EB JUMP JUMPDEST JUMPDEST PUSH1 0x0 PUSH2 0x17B5 DUP6 DUP3 DUP7 ADD PUSH2 0x16CC JUMP JUMPDEST SWAP3 POP POP PUSH1 0x20 PUSH2 0x17C6 DUP6 DUP3 DUP7 ADD PUSH2 0x16CC JUMP JUMPDEST SWAP2 POP POP SWAP3 POP SWAP3 SWAP1 POP JUMP JUMPDEST PUSH1 0x0 DUP1 PUSH1 0x0 PUSH1 0x60 DUP5 DUP7 SUB SLT ISZERO PUSH2 0x17E9 JUMPI PUSH2 0x17E8 PUSH2 0x22EB JUMP JUMPDEST JUMPDEST PUSH1 0x0 PUSH2 0x17F7 DUP7 DUP3 DUP8 ADD PUSH2 0x16CC JUMP JUMPDEST SWAP4 POP POP PUSH1 0x20 PUSH2 0x1808 DUP7 DUP3 DUP8 ADD PUSH2 0x16CC JUMP JUMPDEST SWAP3 POP POP PUSH1 0x40 PUSH2 0x1819 DUP7 DUP3 DUP8 ADD PUSH2 0x174E JUMP JUMPDEST SWAP2 POP POP SWAP3 POP SWAP3 POP SWAP3 JUMP JUMPDEST PUSH1 0x0 DUP1 PUSH1 0x0 DUP1 PUSH1 0x80 DUP6 DUP8 SUB SLT ISZERO PUSH2 0x183D JUMPI PUSH2 0x183C PUSH2 0x22EB JUMP JUMPDEST JUMPDEST PUSH1 0x0 PUSH2 0x184B DUP8 DUP3 DUP9 ADD PUSH2 0x16CC JUMP JUMPDEST SWAP5 POP POP PUSH1 0x20 PUSH2 0x185C DUP8 DUP3 DUP9 ADD PUSH2 0x16CC JUMP JUMPDEST SWAP4 POP POP PUSH1 0x40 PUSH2 0x186D DUP8 DUP3 DUP9 ADD PUSH2 0x174E JUMP JUMPDEST SWAP3 POP POP PUSH1 0x60 DUP6 ADD CALLDATALOAD PUSH8 0xFFFFFFFFFFFFFFFF DUP2 GT ISZERO PUSH2 0x188E JUMPI PUSH2 0x188D PUSH2 0x22E6 JUMP JUMPDEST JUMPDEST PUSH2 0x189A DUP8 DUP3 DUP9 ADD PUSH2 0x1720 JUMP JUMPDEST SWAP2 POP POP SWAP3 SWAP6 SWAP2 SWAP5 POP SWAP3 POP JUMP JUMPDEST PUSH1 0x0 DUP1 PUSH1 0x40 DUP4 DUP6 SUB SLT ISZERO PUSH2 0x18BD JUMPI PUSH2 0x18BC PUSH2 0x22EB JUMP JUMPDEST JUMPDEST PUSH1 0x0 PUSH2 0x18CB DUP6 DUP3 DUP7 ADD PUSH2 0x16CC JUMP JUMPDEST SWAP3 POP POP PUSH1 0x20 PUSH2 0x18DC DUP6 DUP3 DUP7 ADD PUSH2 0x16E1 JUMP JUMPDEST SWAP2 POP POP SWAP3 POP SWAP3 SWAP1 POP JUMP JUMPDEST PUSH1 0x0 DUP1 PUSH1 0x40 DUP4 DUP6 SUB SLT ISZERO PUSH2 0x18FD JUMPI PUSH2 0x18FC PUSH2 0x22EB JUMP JUMPDEST JUMPDEST PUSH1 0x0 PUSH2 0x190B DUP6 DUP3 DUP7 ADD PUSH2 0x16CC JUMP JUMPDEST SWAP3 POP POP PUSH1 0x20 PUSH2 0x191C DUP6 DUP3 DUP7 ADD PUSH2 0x174E JUMP JUMPDEST SWAP2 POP POP SWAP3 POP SWAP3 SWAP1 POP JUMP JUMPDEST PUSH1 0x0 PUSH1 0x20 DUP3 DUP5 SUB SLT ISZERO PUSH2 0x193C JUMPI PUSH2 0x193B PUSH2 0x22EB JUMP JUMPDEST JUMPDEST PUSH1 0x0 PUSH2 0x194A DUP5 DUP3 DUP6 ADD PUSH2 0x16F6 JUMP JUMPDEST SWAP2 POP POP SWAP3 SWAP2 POP POP JUMP JUMPDEST PUSH1 0x0 PUSH1 0x20 DUP3 DUP5 SUB SLT ISZERO PUSH2 0x1969 JUMPI PUSH2 0x1968 PUSH2 0x22EB JUMP JUMPDEST JUMPDEST PUSH1 0x0 PUSH2 0x1977 DUP5 DUP3 DUP6 ADD PUSH2 0x170B JUMP JUMPDEST SWAP2 POP POP SWAP3 SWAP2 POP POP JUMP JUMPDEST PUSH1 0x0 PUSH1 0x20 DUP3 DUP5 SUB SLT ISZERO PUSH2 0x1996 JUMPI PUSH2 0x1995 PUSH2 0x22EB JUMP JUMPDEST JUMPDEST PUSH1 0x0 PUSH2 0x19A4 DUP5 DUP3 DUP6 ADD PUSH2 0x174E JUMP JUMPDEST SWAP2 POP POP SWAP3 SWAP2 POP POP JUMP JUMPDEST PUSH2 0x19B6 DUP2 PUSH2 0x205E JUMP JUMPDEST DUP3 MSTORE POP POP JUMP JUMPDEST PUSH2 0x19C5 DUP2 PUSH2 0x2070 JUMP JUMPDEST DUP3 MSTORE POP POP JUMP JUMPDEST PUSH1 0x0 PUSH2 0x19D6 DUP3 PUSH2 0x1F60 JUMP JUMPDEST PUSH2 0x19E0 DUP2 DUP6 PUSH2 0x1F76 JUMP JUMPDEST SWAP4 POP PUSH2 0x19F0 DUP2 DUP6 PUSH1 0x20 DUP7 ADD PUSH2 0x20E1 JUMP JUMPDEST PUSH2 0x19F9 DUP2 PUSH2 0x22F0 JUMP JUMPDEST DUP5 ADD SWAP2 POP POP SWAP3 SWAP2 POP POP JUMP JUMPDEST PUSH1 0x0 PUSH2 0x1A0F DUP3 PUSH2 0x1F6B JUMP JUMPDEST PUSH2 0x1A19 DUP2 DUP6 PUSH2 0x1F87 JUMP JUMPDEST SWAP4 POP PUSH2 0x1A29 DUP2 DUP6 PUSH1 0x20 DUP7 ADD PUSH2 0x20E1 JUMP JUMPDEST PUSH2 0x1A32 DUP2 PUSH2 0x22F0 JUMP JUMPDEST DUP5 ADD SWAP2 POP POP SWAP3 SWAP2 POP POP JUMP JUMPDEST PUSH1 0x0 PUSH2 0x1A48 DUP3 PUSH2 0x1F6B JUMP JUMPDEST PUSH2 0x1A52 DUP2 DUP6 PUSH2 0x1F98 JUMP JUMPDEST SWAP4 POP PUSH2 0x1A62 DUP2 DUP6 PUSH1 0x20 DUP7 ADD PUSH2 0x20E1 JUMP JUMPDEST DUP1 DUP5 ADD SWAP2 POP POP SWAP3 SWAP2 POP POP JUMP JUMPDEST PUSH1 0x0 PUSH2 0x1A7B PUSH1 0x32 DUP4 PUSH2 0x1F87 JUMP JUMPDEST SWAP2 POP PUSH2 0x1A86 DUP3 PUSH2 0x2301 JUMP JUMPDEST PUSH1 0x40 DUP3 ADD SWAP1 POP SWAP2 SWAP1 POP JUMP JUMPDEST PUSH1 0x0 PUSH2 0x1A9E PUSH1 0x25 DUP4 PUSH2 0x1F87 JUMP JUMPDEST SWAP2 POP PUSH2 0x1AA9 DUP3 PUSH2 0x2350 JUMP JUMPDEST PUSH1 0x40 DUP3 ADD SWAP1 POP SWAP2 SWAP1 POP JUMP JUMPDEST PUSH1 0x0 PUSH2 0x1AC1 PUSH1 0x1C DUP4 PUSH2 0x1F87 JUMP JUMPDEST SWAP2 POP PUSH2 0x1ACC DUP3 PUSH2 0x239F JUMP JUMPDEST PUSH1 0x20 DUP3 ADD SWAP1 POP SWAP2 SWAP1 POP JUMP JUMPDEST PUSH1 0x0 PUSH2 0x1AE4 PUSH1 0x24 DUP4 PUSH2 0x1F87 JUMP JUMPDEST SWAP2 POP PUSH2 0x1AEF DUP3 PUSH2 0x23C8 JUMP JUMPDEST PUSH1 0x40 DUP3 ADD SWAP1 POP SWAP2 SWAP1 POP JUMP JUMPDEST PUSH1 0x0 PUSH2 0x1B07 PUSH1 0x19 DUP4 PUSH2 0x1F87 JUMP JUMPDEST SWAP2 POP PUSH2 0x1B12 DUP3 PUSH2 0x2417 JUMP JUMPDEST PUSH1 0x20 DUP3 ADD SWAP1 POP SWAP2 SWAP1 POP JUMP JUMPDEST PUSH1 0x0 PUSH2 0x1B2A PUSH1 0x2C DUP4 PUSH2 0x1F87 JUMP JUMPDEST SWAP2 POP PUSH2 0x1B35 DUP3 PUSH2 0x2440 JUMP JUMPDEST PUSH1 0x40 DUP3 ADD SWAP1 POP SWAP2 SWAP1 POP JUMP JUMPDEST PUSH1 0x0 PUSH2 0x1B4D PUSH1 0x38 DUP4 PUSH2 0x1F87 JUMP JUMPDEST SWAP2 POP PUSH2 0x1B58 DUP3 PUSH2 0x248F JUMP JUMPDEST PUSH1 0x40 DUP3 ADD SWAP1 POP SWAP2 SWAP1 POP JUMP JUMPDEST PUSH1 0x0 PUSH2 0x1B70 PUSH1 0x2A DUP4 PUSH2 0x1F87 JUMP JUMPDEST SWAP2 POP PUSH2 0x1B7B DUP3 PUSH2 0x24DE JUMP JUMPDEST PUSH1 0x40 DUP3 ADD SWAP1 POP SWAP2 SWAP1 POP JUMP JUMPDEST PUSH1 0x0 PUSH2 0x1B93 PUSH1 0x29 DUP4 PUSH2 0x1F87 JUMP JUMPDEST SWAP2 POP PUSH2 0x1B9E DUP3 PUSH2 0x252D JUMP JUMPDEST PUSH1 0x40 DUP3 ADD SWAP1 POP SWAP2 SWAP1 POP JUMP JUMPDEST PUSH1 0x0 PUSH2 0x1BB6 PUSH1 0x20 DUP4 PUSH2 0x1F87 JUMP JUMPDEST SWAP2 POP PUSH2 0x1BC1 DUP3 PUSH2 0x257C JUMP JUMPDEST PUSH1 0x20 DUP3 ADD SWAP1 POP SWAP2 SWAP1 POP JUMP JUMPDEST PUSH1 0x0 PUSH2 0x1BD9 PUSH1 0x2C DUP4 PUSH2 0x1F87 JUMP JUMPDEST SWAP2 POP PUSH2 0x1BE4 DUP3 PUSH2 0x25A5 JUMP JUMPDEST PUSH1 0x40 DUP3 ADD SWAP1 POP SWAP2 SWAP1 POP JUMP JUMPDEST PUSH1 0x0 PUSH2 0x1BFC PUSH1 0x2F DUP4 PUSH2 0x1F87 JUMP JUMPDEST SWAP2 POP PUSH2 0x1C07 DUP3 PUSH2 0x25F4 JUMP JUMPDEST PUSH1 0x40 DUP3 ADD SWAP1 POP SWAP2 SWAP1 POP JUMP JUMPDEST PUSH1 0x0 PUSH2 0x1C1F PUSH1 0x21 DUP4 PUSH2 0x1F87 JUMP JUMPDEST SWAP2 POP PUSH2 0x1C2A DUP3 PUSH2 0x2643 JUMP JUMPDEST PUSH1 0x40 DUP3 ADD SWAP1 POP SWAP2 SWAP1 POP JUMP JUMPDEST PUSH1 0x0 PUSH2 0x1C42 PUSH1 0x31 DUP4 PUSH2 0x1F87 JUMP JUMPDEST SWAP2 POP PUSH2 0x1C4D DUP3 PUSH2 0x2692 JUMP JUMPDEST PUSH1 0x40 DUP3 ADD SWAP1 POP SWAP2 SWAP1 POP JUMP JUMPDEST PUSH2 0x1C61 DUP2 PUSH2 0x20C8 JUMP JUMPDEST DUP3 MSTORE POP POP JUMP JUMPDEST PUSH1 0x0 PUSH2 0x1C73 DUP3 DUP6 PUSH2 0x1A3D JUMP JUMPDEST SWAP2 POP PUSH2 0x1C7F DUP3 DUP5 PUSH2 0x1A3D JUMP JUMPDEST SWAP2 POP DUP2 SWAP1 POP SWAP4 SWAP3 POP POP POP JUMP JUMPDEST PUSH1 0x0 PUSH1 0x20 DUP3 ADD SWAP1 POP PUSH2 0x1CA0 PUSH1 0x0 DUP4 ADD DUP5 PUSH2 0x19AD JUMP JUMPDEST SWAP3 SWAP2 POP POP JUMP JUMPDEST PUSH1 0x0 PUSH1 0x80 DUP3 ADD SWAP1 POP PUSH2 0x1CBB PUSH1 0x0 DUP4 ADD DUP8 PUSH2 0x19AD JUMP JUMPDEST PUSH2 0x1CC8 PUSH1 0x20 DUP4 ADD DUP7 PUSH2 0x19AD JUMP JUMPDEST PUSH2 0x1CD5 PUSH1 0x40 DUP4 ADD DUP6 PUSH2 0x1C58 JUMP JUMPDEST DUP2 DUP2 SUB PUSH1 0x60 DUP4 ADD MSTORE PUSH2 0x1CE7 DUP2 DUP5 PUSH2 0x19CB JUMP JUMPDEST SWAP1 POP SWAP6 SWAP5 POP POP POP POP POP JUMP JUMPDEST PUSH1 0x0 PUSH1 0x20 DUP3 ADD SWAP1 POP PUSH2 0x1D07 PUSH1 0x0 DUP4 ADD DUP5 PUSH2 0x19BC JUMP JUMPDEST SWAP3 SWAP2 POP POP JUMP JUMPDEST PUSH1 0x0 PUSH1 0x20 DUP3 ADD SWAP1 POP DUP2 DUP2 SUB PUSH1 0x0 DUP4 ADD MSTORE PUSH2 0x1D27 DUP2 DUP5 PUSH2 0x1A04 JUMP JUMPDEST SWAP1 POP SWAP3 SWAP2 POP POP JUMP JUMPDEST PUSH1 0x0 PUSH1 0x20 DUP3 ADD SWAP1 POP DUP2 DUP2 SUB PUSH1 0x0 DUP4 ADD MSTORE PUSH2 0x1D48 DUP2 PUSH2 0x1A6E JUMP JUMPDEST SWAP1 POP SWAP2 SWAP1 POP JUMP JUMPDEST PUSH1 0x0 PUSH1 0x20 DUP3 ADD SWAP1 POP DUP2 DUP2 SUB PUSH1 0x0 DUP4 ADD MSTORE PUSH2 0x1D68 DUP2 PUSH2 0x1A91 JUMP JUMPDEST SWAP1 POP SWAP2 SWAP1 POP JUMP JUMPDEST PUSH1 0x0 PUSH1 0x20 DUP3 ADD SWAP1 POP DUP2 DUP2 SUB PUSH1 0x0 DUP4 ADD MSTORE PUSH2 0x1D88 DUP2 PUSH2 0x1AB4 JUMP JUMPDEST SWAP1 POP SWAP2 SWAP1 POP JUMP JUMPDEST PUSH1 0x0 PUSH1 0x20 DUP3 ADD SWAP1 POP DUP2 DUP2 SUB PUSH1 0x0 DUP4 ADD MSTORE PUSH2 0x1DA8 DUP2 PUSH2 0x1AD7 JUMP JUMPDEST SWAP1 POP SWAP2 SWAP1 POP JUMP JUMPDEST PUSH1 0x0 PUSH1 0x20 DUP3 ADD SWAP1 POP DUP2 DUP2 SUB PUSH1 0x0 DUP4 ADD MSTORE PUSH2 0x1DC8 DUP2 PUSH2 0x1AFA JUMP JUMPDEST SWAP1 POP SWAP2 SWAP1 POP JUMP JUMPDEST PUSH1 0x0 PUSH1 0x20 DUP3 ADD SWAP1 POP DUP2 DUP2 SUB PUSH1 0x0 DUP4 ADD MSTORE PUSH2 0x1DE8 DUP2 PUSH2 0x1B1D JUMP JUMPDEST SWAP1 POP SWAP2 SWAP1 POP JUMP JUMPDEST PUSH1 0x0 PUSH1 0x20 DUP3 ADD SWAP1 POP DUP2 DUP2 SUB PUSH1 0x0 DUP4 ADD MSTORE PUSH2 0x1E08 DUP2 PUSH2 0x1B40 JUMP JUMPDEST SWAP1 POP SWAP2 SWAP1 POP JUMP JUMPDEST PUSH1 0x0 PUSH1 0x20 DUP3 ADD SWAP1 POP DUP2 DUP2 SUB PUSH1 0x0 DUP4 ADD MSTORE PUSH2 0x1E28 DUP2 PUSH2 0x1B63 JUMP JUMPDEST SWAP1 POP SWAP2 SWAP1 POP JUMP JUMPDEST PUSH1 0x0 PUSH1 0x20 DUP3 ADD SWAP1 POP DUP2 DUP2 SUB PUSH1 0x0 DUP4 ADD MSTORE PUSH2 0x1E48 DUP2 PUSH2 0x1B86 JUMP JUMPDEST SWAP1 POP SWAP2 SWAP1 POP JUMP JUMPDEST PUSH1 0x0 PUSH1 0x20 DUP3 ADD SWAP1 POP DUP2 DUP2 SUB PUSH1 0x0 DUP4 ADD MSTORE PUSH2 0x1E68 DUP2 PUSH2 0x1BA9 JUMP JUMPDEST SWAP1 POP SWAP2 SWAP1 POP JUMP JUMPDEST PUSH1 0x0 PUSH1 0x20 DUP3 ADD SWAP1 POP DUP2 DUP2 SUB PUSH1 0x0 DUP4 ADD MSTORE PUSH2 0x1E88 DUP2 PUSH2 0x1BCC JUMP JUMPDEST SWAP1 POP SWAP2 SWAP1 POP JUMP JUMPDEST PUSH1 0x0 PUSH1 0x20 DUP3 ADD SWAP1 POP DUP2 DUP2 SUB PUSH1 0x0 DUP4 ADD MSTORE PUSH2 0x1EA8 DUP2 PUSH2 0x1BEF JUMP JUMPDEST SWAP1 POP SWAP2 SWAP1 POP JUMP JUMPDEST PUSH1 0x0 PUSH1 0x20 DUP3 ADD SWAP1 POP DUP2 DUP2 SUB PUSH1 0x0 DUP4 ADD MSTORE PUSH2 0x1EC8 DUP2 PUSH2 0x1C12 JUMP JUMPDEST SWAP1 POP SWAP2 SWAP1 POP JUMP JUMPDEST PUSH1 0x0 PUSH1 0x20 DUP3 ADD SWAP1 POP DUP2 DUP2 SUB PUSH1 0x0 DUP4 ADD MSTORE PUSH2 0x1EE8 DUP2 PUSH2 0x1C35 JUMP JUMPDEST SWAP1 POP SWAP2 SWAP1 POP JUMP JUMPDEST PUSH1 0x0 PUSH1 0x20 DUP3 ADD SWAP1 POP PUSH2 0x1F04 PUSH1 0x0 DUP4 ADD DUP5 PUSH2 0x1C58 JUMP JUMPDEST SWAP3 SWAP2 POP POP JUMP JUMPDEST PUSH1 0x0 PUSH2 0x1F14 PUSH2 0x1F25 JUMP JUMPDEST SWAP1 POP PUSH2 0x1F20 DUP3 DUP3 PUSH2 0x2146 JUMP JUMPDEST SWAP2 SWAP1 POP JUMP JUMPDEST PUSH1 0x0 PUSH1 0x40 MLOAD SWAP1 POP SWAP1 JUMP JUMPDEST PUSH1 0x0 PUSH8 0xFFFFFFFFFFFFFFFF DUP3 GT ISZERO PUSH2 0x1F4A JUMPI PUSH2 0x1F49 PUSH2 0x22AD JUMP JUMPDEST JUMPDEST PUSH2 0x1F53 DUP3 PUSH2 0x22F0 JUMP JUMPDEST SWAP1 POP PUSH1 0x20 DUP2 ADD SWAP1 POP SWAP2 SWAP1 POP JUMP JUMPDEST PUSH1 0x0 DUP2 MLOAD SWAP1 POP SWAP2 SWAP1 POP JUMP JUMPDEST PUSH1 0x0 DUP2 MLOAD SWAP1 POP SWAP2 SWAP1 POP JUMP JUMPDEST PUSH1 0x0 DUP3 DUP3 MSTORE PUSH1 0x20 DUP3 ADD SWAP1 POP SWAP3 SWAP2 POP POP JUMP JUMPDEST PUSH1 0x0 DUP3 DUP3 MSTORE PUSH1 0x20 DUP3 ADD SWAP1 POP SWAP3 SWAP2 POP POP JUMP JUMPDEST PUSH1 0x0 DUP2 SWAP1 POP SWAP3 SWAP2 POP POP JUMP JUMPDEST PUSH1 0x0 PUSH2 0x1FAE DUP3 PUSH2 0x20C8 JUMP JUMPDEST SWAP2 POP PUSH2 0x1FB9 DUP4 PUSH2 0x20C8 JUMP JUMPDEST SWAP3 POP DUP3 PUSH32 0xFFFFFFFFFFFFFFFFFFFFFFFFFFFFFFFFFFFFFFFFFFFFFFFFFFFFFFFFFFFFFFFF SUB DUP3 GT ISZERO PUSH2 0x1FEE JUMPI PUSH2 0x1FED PUSH2 0x21F1 JUMP JUMPDEST JUMPDEST DUP3 DUP3 ADD SWAP1 POP SWAP3 SWAP2 POP POP JUMP JUMPDEST PUSH1 0x0 PUSH2 0x2004 DUP3 PUSH2 0x20C8 JUMP JUMPDEST SWAP2 POP PUSH2 0x200F DUP4 PUSH2 0x20C8 JUMP JUMPDEST SWAP3 POP DUP3 PUSH2 0x201F JUMPI PUSH2 0x201E PUSH2 0x2220 JUMP JUMPDEST JUMPDEST DUP3 DUP3 DIV SWAP1 POP SWAP3 SWAP2 POP POP JUMP JUMPDEST PUSH1 0x0 PUSH2 0x2035 DUP3 PUSH2 0x20C8 JUMP JUMPDEST SWAP2 POP PUSH2 0x2040 DUP4 PUSH2 0x20C8 JUMP JUMPDEST SWAP3 POP DUP3 DUP3 LT ISZERO PUSH2 0x2053 JUMPI PUSH2 0x2052 PUSH2 0x21F1 JUMP JUMPDEST JUMPDEST DUP3 DUP3 SUB SWAP1 POP SWAP3 SWAP2 POP POP JUMP JUMPDEST PUSH1 0x0 PUSH2 0x2069 DUP3 PUSH2 0x20A8 JUMP JUMPDEST SWAP1 POP SWAP2 SWAP1 POP JUMP JUMPDEST PUSH1 0x0 DUP2 ISZERO ISZERO SWAP1 POP SWAP2 SWAP1 POP JUMP JUMPDEST PUSH1 0x0 PUSH32 0xFFFFFFFF00000000000000000000000000000000000000000000000000000000 DUP3 AND SWAP1 POP SWAP2 SWAP1 POP JUMP JUMPDEST PUSH1 0x0 PUSH20 0xFFFFFFFFFFFFFFFFFFFFFFFFFFFFFFFFFFFFFFFF DUP3 AND SWAP1 POP SWAP2 SWAP1 POP JUMP JUMPDEST PUSH1 0x0 DUP2 SWAP1 POP SWAP2 SWAP1 POP JUMP JUMPDEST DUP3 DUP2 DUP4 CALLDATACOPY PUSH1 0x0 DUP4 DUP4 ADD MSTORE POP POP POP JUMP JUMPDEST PUSH1 0x0 JUMPDEST DUP4 DUP2 LT ISZERO PUSH2 0x20FF JUMPI DUP1 DUP3 ADD MLOAD DUP2 DUP5 ADD MSTORE PUSH1 0x20 DUP2 ADD SWAP1 POP PUSH2 0x20E4 JUMP JUMPDEST DUP4 DUP2 GT ISZERO PUSH2 0x210E JUMPI PUSH1 0x0 DUP5 DUP5 ADD MSTORE JUMPDEST POP POP POP POP JUMP JUMPDEST PUSH1 0x0 PUSH1 0x2 DUP3 DIV SWAP1 POP PUSH1 0x1 DUP3 AND DUP1 PUSH2 0x212C JUMPI PUSH1 0x7F DUP3 AND SWAP2 POP JUMPDEST PUSH1 0x20 DUP3 LT DUP2 EQ ISZERO PUSH2 0x2140 JUMPI PUSH2 0x213F PUSH2 0x224F JUMP JUMPDEST JUMPDEST POP SWAP2 SWAP1 POP JUMP JUMPDEST PUSH2 0x214F DUP3 PUSH2 0x22F0 JUMP JUMPDEST DUP2 ADD DUP2 DUP2 LT PUSH8 0xFFFFFFFFFFFFFFFF DUP3 GT OR ISZERO PUSH2 0x216E JUMPI PUSH2 0x216D PUSH2 0x22AD JUMP JUMPDEST JUMPDEST DUP1 PUSH1 0x40 MSTORE POP POP POP JUMP JUMPDEST PUSH1 0x0 PUSH2 0x2182 DUP3 PUSH2 0x20C8 JUMP JUMPDEST SWAP2 POP PUSH32 0xFFFFFFFFFFFFFFFFFFFFFFFFFFFFFFFFFFFFFFFFFFFFFFFFFFFFFFFFFFFFFFFF DUP3 EQ ISZERO PUSH2 0x21B5 JUMPI PUSH2 0x21B4 PUSH2 0x21F1 JUMP JUMPDEST JUMPDEST PUSH1 0x1 DUP3 ADD SWAP1 POP SWAP2 SWAP1 POP JUMP JUMPDEST PUSH1 0x0 PUSH2 0x21CB DUP3 PUSH2 0x20C8 JUMP JUMPDEST SWAP2 POP PUSH2 0x21D6 DUP4 PUSH2 0x20C8 JUMP JUMPDEST SWAP3 POP DUP3 PUSH2 0x21E6 JUMPI PUSH2 0x21E5 PUSH2 0x2220 JUMP JUMPDEST JUMPDEST DUP3 DUP3 MOD SWAP1 POP SWAP3 SWAP2 POP POP JUMP JUMPDEST PUSH32 0x4E487B7100000000000000000000000000000000000000000000000000000000 PUSH1 0x0 MSTORE PUSH1 0x11 PUSH1 0x4 MSTORE PUSH1 0x24 PUSH1 0x0 REVERT JUMPDEST PUSH32 0x4E487B7100000000000000000000000000000000000000000000000000000000 PUSH1 0x0 MSTORE PUSH1 0x12 PUSH1 0x4 MSTORE PUSH1 0x24 PUSH1 0x0 REVERT JUMPDEST PUSH32 0x4E487B7100000000000000000000000000000000000000000000000000000000 PUSH1 0x0 MSTORE PUSH1 0x22 PUSH1 0x4 MSTORE PUSH1 0x24 PUSH1 0x0 REVERT JUMPDEST PUSH32 0x4E487B7100000000000000000000000000000000000000000000000000000000 PUSH1 0x0 MSTORE PUSH1 0x32 PUSH1 0x4 MSTORE PUSH1 0x24 PUSH1 0x0 REVERT JUMPDEST PUSH32 0x4E487B7100000000000000000000000000000000000000000000000000000000 PUSH1 0x0 MSTORE PUSH1 0x41 PUSH1 0x4 MSTORE PUSH1 0x24 PUSH1 0x0 REVERT JUMPDEST PUSH1 0x0 DUP1 REVERT JUMPDEST PUSH1 0x0 DUP1 REVERT JUMPDEST PUSH1 0x0 DUP1 REVERT JUMPDEST PUSH1 0x0 DUP1 REVERT JUMPDEST PUSH1 0x0 PUSH1 0x1F NOT PUSH1 0x1F DUP4 ADD AND SWAP1 POP SWAP2 SWAP1 POP JUMP JUMPDEST PUSH32 0x4552433732313A207472616E7366657220746F206E6F6E204552433732315265 PUSH1 0x0 DUP3 ADD MSTORE PUSH32 0x63656976657220696D706C656D656E7465720000000000000000000000000000 PUSH1 0x20 DUP3 ADD MSTORE POP JUMP JUMPDEST PUSH32 0x4552433732313A207472616E736665722066726F6D20696E636F727265637420 PUSH1 0x0 DUP3 ADD MSTORE PUSH32 0x6F776E6572000000000000000000000000000000000000000000000000000000 PUSH1 0x20 DUP3 ADD MSTORE POP JUMP JUMPDEST PUSH32 0x4552433732313A20746F6B656E20616C7265616479206D696E74656400000000 PUSH1 0x0 DUP3 ADD MSTORE POP JUMP JUMPDEST PUSH32 0x4552433732313A207472616E7366657220746F20746865207A65726F20616464 PUSH1 0x0 DUP3 ADD MSTORE PUSH32 0x7265737300000000000000000000000000000000000000000000000000000000 PUSH1 0x20 DUP3 ADD MSTORE POP JUMP JUMPDEST PUSH32 0x4552433732313A20617070726F766520746F2063616C6C657200000000000000 PUSH1 0x0 DUP3 ADD MSTORE POP JUMP JUMPDEST PUSH32 0x4552433732313A206F70657261746F7220717565727920666F72206E6F6E6578 PUSH1 0x0 DUP3 ADD MSTORE PUSH32 0x697374656E7420746F6B656E0000000000000000000000000000000000000000 PUSH1 0x20 DUP3 ADD MSTORE POP JUMP JUMPDEST PUSH32 0x4552433732313A20617070726F76652063616C6C6572206973206E6F74206F77 PUSH1 0x0 DUP3 ADD MSTORE PUSH32 0x6E6572206E6F7220617070726F76656420666F7220616C6C0000000000000000 PUSH1 0x20 DUP3 ADD MSTORE POP JUMP JUMPDEST PUSH32 0x4552433732313A2062616C616E636520717565727920666F7220746865207A65 PUSH1 0x0 DUP3 ADD MSTORE PUSH32 0x726F206164647265737300000000000000000000000000000000000000000000 PUSH1 0x20 DUP3 ADD MSTORE POP JUMP JUMPDEST PUSH32 0x4552433732313A206F776E657220717565727920666F72206E6F6E6578697374 PUSH1 0x0 DUP3 ADD MSTORE PUSH32 0x656E7420746F6B656E0000000000000000000000000000000000000000000000 PUSH1 0x20 DUP3 ADD MSTORE POP JUMP JUMPDEST PUSH32 0x4552433732313A206D696E7420746F20746865207A65726F2061646472657373 PUSH1 0x0 DUP3 ADD MSTORE POP JUMP JUMPDEST PUSH32 0x4552433732313A20617070726F76656420717565727920666F72206E6F6E6578 PUSH1 0x0 DUP3 ADD MSTORE PUSH32 0x697374656E7420746F6B656E0000000000000000000000000000000000000000 PUSH1 0x20 DUP3 ADD MSTORE POP JUMP JUMPDEST PUSH32 0x4552433732314D657461646174613A2055524920717565727920666F72206E6F PUSH1 0x0 DUP3 ADD MSTORE PUSH32 0x6E6578697374656E7420746F6B656E0000000000000000000000000000000000 PUSH1 0x20 DUP3 ADD MSTORE POP JUMP JUMPDEST PUSH32 0x4552433732313A20617070726F76616C20746F2063757272656E74206F776E65 PUSH1 0x0 DUP3 ADD MSTORE PUSH32 0x7200000000000000000000000000000000000000000000000000000000000000 PUSH1 0x20 DUP3 ADD MSTORE POP JUMP JUMPDEST PUSH32 0x4552433732313A207472616E736665722063616C6C6572206973206E6F74206F PUSH1 0x0 DUP3 ADD MSTORE PUSH32 0x776E6572206E6F7220617070726F766564000000000000000000000000000000 PUSH1 0x20 DUP3 ADD MSTORE POP JUMP JUMPDEST PUSH2 0x26EA DUP2 PUSH2 0x205E JUMP JUMPDEST DUP2 EQ PUSH2 0x26F5 JUMPI PUSH1 0x0 DUP1 REVERT JUMPDEST POP JUMP JUMPDEST PUSH2 0x2701 DUP2 PUSH2 0x2070 JUMP JUMPDEST DUP2 EQ PUSH2 0x270C JUMPI PUSH1 0x0 DUP1 REVERT JUMPDEST POP JUMP JUMPDEST PUSH2 0x2718 DUP2 PUSH2 0x207C JUMP JUMPDEST DUP2 EQ PUSH2 0x2723 JUMPI PUSH1 0x0 DUP1 REVERT JUMPDEST POP JUMP JUMPDEST PUSH2 0x272F DUP2 PUSH2 0x20C8 JUMP JUMPDEST DUP2 EQ PUSH2 0x273A JUMPI PUSH1 0x0 DUP1 REVERT JUMPDEST POP JUMP INVALID LOG2 PUSH5 0x6970667358 0x22 SLT KECCAK256 PUSH27 0x31DC69A8BD64FA8F22CB9C944D82704759D4A9AE1F6729CD3E5615 0xC9 0x26 SWAP3 0xBC PUSH5 0x736F6C6343 STOP ADDMOD SMOD STOP CALLER "
				},
				"gasEstimates": {
					"creation": {
						"codeDepositCost": "2019800",
						"executionCost": "infinite",
						"totalCost": "infinite"
					},
					"external": {
						"_safeMint(address,uint256)": "infinite",
						"approve(address,uint256)": "infinite",
						"balanceOf(address)": "2902",
						"getApproved(uint256)": "5228",
						"isApprovedForAll(address,address)": "infinite",
						"name()": "infinite",
						"ownerOf(uint256)": "3066",
						"safeTransferFrom(address,address,uint256)": "infinite",
						"safeTransferFrom(address,address,uint256,bytes)": "infinite",
						"setApprovalForAll(address,bool)": "infinite",
						"supportsInterface(bytes4)": "3005",
						"symbol()": "infinite",
						"tokenURI(uint256)": "infinite",
						"transferFrom(address,address,uint256)": "infinite"
					},
					"internal": {
						"_afterTokenTransfer(address,address,uint256)": "15",
						"_approve(address,uint256)": "infinite",
						"_baseURI()": "infinite",
						"_beforeTokenTransfer(address,address,uint256)": "15",
						"_burn(uint256)": "infinite",
						"_checkOnERC721Received(address,address,uint256,bytes memory)": "infinite",
						"_exists(uint256)": "2269",
						"_isApprovedOrOwner(address,uint256)": "infinite",
						"_mint(address,uint256)": "infinite",
						"_safeMint(address,uint256,bytes memory)": "infinite",
						"_safeTransfer(address,address,uint256,bytes memory)": "infinite",
						"_setApprovalForAll(address,address,bool)": "infinite",
						"_transfer(address,address,uint256)": "infinite"
					}
				},
				"methodIdentifiers": {
					"_safeMint(address,uint256)": "b3e1c718",
					"approve(address,uint256)": "095ea7b3",
					"balanceOf(address)": "70a08231",
					"getApproved(uint256)": "081812fc",
					"isApprovedForAll(address,address)": "e985e9c5",
					"name()": "06fdde03",
					"ownerOf(uint256)": "6352211e",
					"safeTransferFrom(address,address,uint256)": "42842e0e",
					"safeTransferFrom(address,address,uint256,bytes)": "b88d4fde",
					"setApprovalForAll(address,bool)": "a22cb465",
					"supportsInterface(bytes4)": "01ffc9a7",
					"symbol()": "95d89b41",
					"tokenURI(uint256)": "c87b56dd",
					"transferFrom(address,address,uint256)": "23b872dd"
				}
			},
			"userdoc": {
				"kind": "user",
				"methods": {},
				"version": 1
			}
		}
	}
}