{
	"contracts/demo.sol": {
		"Demo1": {
			"abi": [
				{
					"inputs": [],
					"stateMutability": "nonpayable",
					"type": "constructor"
				},
				{
					"inputs": [
						{
							"internalType": "address",
							"name": "_address",
							"type": "address"
						}
					],
					"name": "checkData",
					"outputs": [
						{
							"internalType": "bool",
							"name": "",
							"type": "bool"
						},
						{
							"internalType": "uint256",
							"name": "",
							"type": "uint256"
						}
					],
					"stateMutability": "view",
					"type": "function"
				},
				{
					"inputs": [
						{
							"internalType": "uint256",
							"name": "",
							"type": "uint256"
						}
					],
					"name": "listArray",
					"outputs": [
						{
							"internalType": "address",
							"name": "",
							"type": "address"
						}
					],
					"stateMutability": "view",
					"type": "function"
				}
			],
			"devdoc": {
				"kind": "dev",
				"methods": {},
				"version": 1
			},
			"evm": {
				"assembly": "    /* \"contracts/demo.sol\":27:911  contract Demo1{\r... */\n  mstore(0x40, 0x80)\n    /* \"contracts/demo.sol\":88:385  constructor(){\r... */\n  callvalue\n  dup1\n  iszero\n  tag_1\n  jumpi\n  0x00\n  dup1\n  revert\ntag_1:\n  pop\n    /* \"contracts/demo.sol\":112:121  listArray */\n  0x00\n    /* \"contracts/demo.sol\":127:169  0x3Cb06A7709a2511e48a091979b9b68B27999AfaB */\n  0x3cb06a7709a2511e48a091979b9b68b27999afab\n    /* \"contracts/demo.sol\":112:170  listArray.push(0x3Cb06A7709a2511e48a091979b9b68B27999AfaB) */\n  swap1\n  dup1\n  0x01\n  dup2\n  sload\n  add\n  dup1\n  dup3\n  sstore\n  dup1\n  swap2\n  pop\n  pop\n  0x01\n  swap1\n  sub\n  swap1\n  0x00\n  mstore\n  keccak256(0x00, 0x20)\n  add\n  0x00\n  swap1\n  swap2\n  swap1\n  swap2\n  swap1\n  swap2\n  0x0100\n  exp\n  dup2\n  sload\n  dup2\n  0xffffffffffffffffffffffffffffffffffffffff\n  mul\n  not\n  and\n  swap1\n  dup4\n  0xffffffffffffffffffffffffffffffffffffffff\n  and\n  mul\n  or\n  swap1\n  sstore\n  pop\n    /* \"contracts/demo.sol\":181:190  listArray */\n  0x00\n    /* \"contracts/demo.sol\":196:238  0xCdA189005BFBe90bc2D518f69FfB937EcdFfB3f3 */\n  0xcda189005bfbe90bc2d518f69ffb937ecdffb3f3\n    /* \"contracts/demo.sol\":181:239  listArray.push(0xCdA189005BFBe90bc2D518f69FfB937EcdFfB3f3) */\n  swap1\n  dup1\n  0x01\n  dup2\n  sload\n  add\n  dup1\n  dup3\n  sstore\n  dup1\n  swap2\n  pop\n  pop\n  0x01\n  swap1\n  sub\n  swap1\n  0x00\n  mstore\n  keccak256(0x00, 0x20)\n  add\n  0x00\n  swap1\n  swap2\n  swap1\n  swap2\n  swap1\n  swap2\n  0x0100\n  exp\n  dup2\n  sload\n  dup2\n  0xffffffffffffffffffffffffffffffffffffffff\n  mul\n  not\n  and\n  swap1\n  dup4\n  0xffffffffffffffffffffffffffffffffffffffff\n  and\n  mul\n  or\n  swap1\n  sstore\n  pop\n    /* \"contracts/demo.sol\":250:259  listArray */\n  0x00\n    /* \"contracts/demo.sol\":265:307  0x441D3f30Ea410492073C9ED263adfacb0CB4C95F */\n  0x441d3f30ea410492073c9ed263adfacb0cb4c95f\n    /* \"contracts/demo.sol\":250:308  listArray.push(0x441D3f30Ea410492073C9ED263adfacb0CB4C95F) */\n  swap1\n  dup1\n  0x01\n  dup2\n  sload\n  add\n  dup1\n  dup3\n  sstore\n  dup1\n  swap2\n  pop\n  pop\n  0x01\n  swap1\n  sub\n  swap1\n  0x00\n  mstore\n  keccak256(0x00, 0x20)\n  add\n  0x00\n  swap1\n  swap2\n  swap1\n  swap2\n  swap1\n  swap2\n  0x0100\n  exp\n  dup2\n  sload\n  dup2\n  0xffffffffffffffffffffffffffffffffffffffff\n  mul\n  not\n  and\n  swap1\n  dup4\n  0xffffffffffffffffffffffffffffffffffffffff\n  and\n  mul\n  or\n  swap1\n  sstore\n  pop\n    /* \"contracts/demo.sol\":319:328  listArray */\n  0x00\n    /* \"contracts/demo.sol\":334:376  0xCcf25B3e56cA33859F20622C83CB380693092FE2 */\n  0xccf25b3e56ca33859f20622c83cb380693092fe2\n    /* \"contracts/demo.sol\":319:377  listArray.push(0xCcf25B3e56cA33859F20622C83CB380693092FE2) */\n  swap1\n  dup1\n  0x01\n  dup2\n  sload\n  add\n  dup1\n  dup3\n  sstore\n  dup1\n  swap2\n  pop\n  pop\n  0x01\n  swap1\n  sub\n  swap1\n  0x00\n  mstore\n  keccak256(0x00, 0x20)\n  add\n  0x00\n  swap1\n  swap2\n  swap1\n  swap2\n  swap1\n  swap2\n  0x0100\n  exp\n  dup2\n  sload\n  dup2\n  0xffffffffffffffffffffffffffffffffffffffff\n  mul\n  not\n  and\n  swap1\n  dup4\n  0xffffffffffffffffffffffffffffffffffffffff\n  and\n  mul\n  or\n  swap1\n  sstore\n  pop\n    /* \"contracts/demo.sol\":27:911  contract Demo1{\r... */\n  dataSize(sub_0)\n  dup1\n  dataOffset(sub_0)\n  0x00\n  codecopy\n  0x00\n  return\nstop\n\nsub_0: assembly {\n        /* \"contracts/demo.sol\":27:911  contract Demo1{\r... */\n      mstore(0x40, 0x80)\n      callvalue\n      dup1\n      iszero\n      tag_1\n      jumpi\n      0x00\n      dup1\n      revert\n    tag_1:\n      pop\n      jumpi(tag_2, lt(calldatasize, 0x04))\n      shr(0xe0, calldataload(0x00))\n      dup1\n      0x77197a57\n      eq\n      tag_3\n      jumpi\n      dup1\n      0xba7e5969\n      eq\n      tag_4\n      jumpi\n    tag_2:\n      0x00\n      dup1\n      revert\n        /* \"contracts/demo.sol\":393:618  function checkData(address _address) public view returns(bool, uint256){\r... */\n    tag_3:\n      tag_5\n      0x04\n      dup1\n      calldatasize\n      sub\n      dup2\n      add\n      swap1\n      tag_6\n      swap2\n      swap1\n      tag_7\n      jump\t// in\n    tag_6:\n      tag_8\n      jump\t// in\n    tag_5:\n      mload(0x40)\n      tag_9\n      swap3\n      swap2\n      swap1\n      tag_10\n      jump\t// in\n    tag_9:\n      mload(0x40)\n      dup1\n      swap2\n      sub\n      swap1\n      return\n        /* \"contracts/demo.sol\":53:79  address[] public listArray */\n    tag_4:\n      tag_11\n      0x04\n      dup1\n      calldatasize\n      sub\n      dup2\n      add\n      swap1\n      tag_12\n      swap2\n      swap1\n      tag_13\n      jump\t// in\n    tag_12:\n      tag_14\n      jump\t// in\n    tag_11:\n      mload(0x40)\n      tag_15\n      swap2\n      swap1\n      tag_16\n      jump\t// in\n    tag_15:\n      mload(0x40)\n      dup1\n      swap2\n      sub\n      swap1\n      return\n        /* \"contracts/demo.sol\":393:618  function checkData(address _address) public view returns(bool, uint256){\r... */\n    tag_8:\n        /* \"contracts/demo.sol\":450:454  bool */\n      0x00\n        /* \"contracts/demo.sol\":456:463  uint256 */\n      dup1\n        /* \"contracts/demo.sol\":476:491  bool foundToken */\n      0x00\n        /* \"contracts/demo.sol\":493:511  uint256 tokenIndex */\n      dup1\n        /* \"contracts/demo.sol\":515:568  findElementPosition(\r... */\n      tag_18\n        /* \"contracts/demo.sol\":549:557  _address */\n      dup6\n        /* \"contracts/demo.sol\":515:534  findElementPosition */\n      tag_19\n        /* \"contracts/demo.sol\":515:568  findElementPosition(\r... */\n      jump\t// in\n    tag_18:\n        /* \"contracts/demo.sol\":475:568  (bool foundToken, uint256 tokenIndex) = findElementPosition(\r... */\n      swap2\n      pop\n      swap2\n      pop\n        /* \"contracts/demo.sol\":587:597  foundToken */\n      dup2\n        /* \"contracts/demo.sol\":599:609  tokenIndex */\n      dup2\n        /* \"contracts/demo.sol\":579:610  return (foundToken, tokenIndex) */\n      swap4\n      pop\n      swap4\n      pop\n      pop\n      pop\n        /* \"contracts/demo.sol\":393:618  function checkData(address _address) public view returns(bool, uint256){\r... */\n      swap2\n      pop\n      swap2\n      jump\t// out\n        /* \"contracts/demo.sol\":53:79  address[] public listArray */\n    tag_14:\n      0x00\n      dup2\n      dup2\n      sload\n      dup2\n      lt\n      tag_20\n      jumpi\n      0x00\n      dup1\n      revert\n    tag_20:\n      swap1\n      0x00\n      mstore\n      keccak256(0x00, 0x20)\n      add\n      0x00\n      swap2\n      pop\n      sload\n      swap1\n      0x0100\n      exp\n      swap1\n      div\n      0xffffffffffffffffffffffffffffffffffffffff\n      and\n      dup2\n      jump\t// out\n        /* \"contracts/demo.sol\":626:906  function findElementPosition(address _token) internal view returns (bool, uint256){\r... */\n    tag_19:\n        /* \"contracts/demo.sol\":694:698  bool */\n      0x00\n        /* \"contracts/demo.sol\":700:707  uint256 */\n      dup1\n        /* \"contracts/demo.sol\":724:733  uint256 i */\n      0x00\n        /* \"contracts/demo.sol\":719:871  for (uint256 i = 0; i < listArray.length; i++) {\r... */\n    tag_23:\n        /* \"contracts/demo.sol\":743:752  listArray */\n      0x00\n        /* \"contracts/demo.sol\":743:759  listArray.length */\n      dup1\n      sload\n      swap1\n      pop\n        /* \"contracts/demo.sol\":739:740  i */\n      dup2\n        /* \"contracts/demo.sol\":739:759  i < listArray.length */\n      lt\n        /* \"contracts/demo.sol\":719:871  for (uint256 i = 0; i < listArray.length; i++) {\r... */\n      iszero\n      tag_24\n      jumpi\n        /* \"contracts/demo.sol\":801:807  _token */\n      dup4\n        /* \"contracts/demo.sol\":785:807  listArray[i] == _token */\n      0xffffffffffffffffffffffffffffffffffffffff\n      and\n        /* \"contracts/demo.sol\":785:794  listArray */\n      0x00\n        /* \"contracts/demo.sol\":795:796  i */\n      dup3\n        /* \"contracts/demo.sol\":785:797  listArray[i] */\n      dup2\n      sload\n      dup2\n      lt\n      tag_26\n      jumpi\n      tag_27\n      tag_28\n      jump\t// in\n    tag_27:\n    tag_26:\n      swap1\n      0x00\n      mstore\n      keccak256(0x00, 0x20)\n      add\n      0x00\n      swap1\n      sload\n      swap1\n      0x0100\n      exp\n      swap1\n      div\n      0xffffffffffffffffffffffffffffffffffffffff\n      and\n        /* \"contracts/demo.sol\":785:807  listArray[i] == _token */\n      0xffffffffffffffffffffffffffffffffffffffff\n      and\n      eq\n        /* \"contracts/demo.sol\":781:860  if (listArray[i] == _token) {\r... */\n      iszero\n      tag_30\n      jumpi\n        /* \"contracts/demo.sol\":836:840  true */\n      0x01\n        /* \"contracts/demo.sol\":842:843  i */\n      dup2\n        /* \"contracts/demo.sol\":828:844  return (true, i) */\n      swap3\n      pop\n      swap3\n      pop\n      pop\n      jump(tag_22)\n        /* \"contracts/demo.sol\":781:860  if (listArray[i] == _token) {\r... */\n    tag_30:\n        /* \"contracts/demo.sol\":761:764  i++ */\n      dup1\n      dup1\n      tag_31\n      swap1\n      tag_32\n      jump\t// in\n    tag_31:\n      swap2\n      pop\n      pop\n        /* \"contracts/demo.sol\":719:871  for (uint256 i = 0; i < listArray.length; i++) {\r... */\n      jump(tag_23)\n    tag_24:\n      pop\n        /* \"contracts/demo.sol\":889:894  false */\n      0x00\n        /* \"contracts/demo.sol\":896:897  0 */\n      dup1\n        /* \"contracts/demo.sol\":881:898  return (false, 0) */\n      swap2\n      pop\n      swap2\n      pop\n        /* \"contracts/demo.sol\":626:906  function findElementPosition(address _token) internal view returns (bool, uint256){\r... */\n    tag_22:\n      swap2\n      pop\n      swap2\n      jump\t// out\n        /* \"#utility.yul\":7:146   */\n    tag_34:\n        /* \"#utility.yul\":53:58   */\n      0x00\n        /* \"#utility.yul\":91:97   */\n      dup2\n        /* \"#utility.yul\":78:98   */\n      calldataload\n        /* \"#utility.yul\":69:98   */\n      swap1\n      pop\n        /* \"#utility.yul\":107:140   */\n      tag_36\n        /* \"#utility.yul\":134:139   */\n      dup2\n        /* \"#utility.yul\":107:140   */\n      tag_37\n      jump\t// in\n    tag_36:\n        /* \"#utility.yul\":7:146   */\n      swap3\n      swap2\n      pop\n      pop\n      jump\t// out\n        /* \"#utility.yul\":152:291   */\n    tag_38:\n        /* \"#utility.yul\":198:203   */\n      0x00\n        /* \"#utility.yul\":236:242   */\n      dup2\n        /* \"#utility.yul\":223:243   */\n      calldataload\n        /* \"#utility.yul\":214:243   */\n      swap1\n      pop\n        /* \"#utility.yul\":252:285   */\n      tag_40\n        /* \"#utility.yul\":279:284   */\n      dup2\n        /* \"#utility.yul\":252:285   */\n      tag_41\n      jump\t// in\n    tag_40:\n        /* \"#utility.yul\":152:291   */\n      swap3\n      swap2\n      pop\n      pop\n      jump\t// out\n        /* \"#utility.yul\":297:626   */\n    tag_7:\n        /* \"#utility.yul\":356:362   */\n      0x00\n        /* \"#utility.yul\":405:407   */\n      0x20\n        /* \"#utility.yul\":393:402   */\n      dup3\n        /* \"#utility.yul\":384:391   */\n      dup5\n        /* \"#utility.yul\":380:403   */\n      sub\n        /* \"#utility.yul\":376:408   */\n      slt\n        /* \"#utility.yul\":373:492   */\n      iszero\n      tag_43\n      jumpi\n        /* \"#utility.yul\":411:490   */\n      tag_44\n      tag_45\n      jump\t// in\n    tag_44:\n        /* \"#utility.yul\":373:492   */\n    tag_43:\n        /* \"#utility.yul\":531:532   */\n      0x00\n        /* \"#utility.yul\":556:609   */\n      tag_46\n        /* \"#utility.yul\":601:608   */\n      dup5\n        /* \"#utility.yul\":592:598   */\n      dup3\n        /* \"#utility.yul\":581:590   */\n      dup6\n        /* \"#utility.yul\":577:599   */\n      add\n        /* \"#utility.yul\":556:609   */\n      tag_34\n      jump\t// in\n    tag_46:\n        /* \"#utility.yul\":546:609   */\n      swap2\n      pop\n        /* \"#utility.yul\":502:619   */\n      pop\n        /* \"#utility.yul\":297:626   */\n      swap3\n      swap2\n      pop\n      pop\n      jump\t// out\n        /* \"#utility.yul\":632:961   */\n    tag_13:\n        /* \"#utility.yul\":691:697   */\n      0x00\n        /* \"#utility.yul\":740:742   */\n      0x20\n        /* \"#utility.yul\":728:737   */\n      dup3\n        /* \"#utility.yul\":719:726   */\n      dup5\n        /* \"#utility.yul\":715:738   */\n      sub\n        /* \"#utility.yul\":711:743   */\n      slt\n        /* \"#utility.yul\":708:827   */\n      iszero\n      tag_48\n      jumpi\n        /* \"#utility.yul\":746:825   */\n      tag_49\n      tag_45\n      jump\t// in\n    tag_49:\n        /* \"#utility.yul\":708:827   */\n    tag_48:\n        /* \"#utility.yul\":866:867   */\n      0x00\n        /* \"#utility.yul\":891:944   */\n      tag_50\n        /* \"#utility.yul\":936:943   */\n      dup5\n        /* \"#utility.yul\":927:933   */\n      dup3\n        /* \"#utility.yul\":916:925   */\n      dup6\n        /* \"#utility.yul\":912:934   */\n      add\n        /* \"#utility.yul\":891:944   */\n      tag_38\n      jump\t// in\n    tag_50:\n        /* \"#utility.yul\":881:944   */\n      swap2\n      pop\n        /* \"#utility.yul\":837:954   */\n      pop\n        /* \"#utility.yul\":632:961   */\n      swap3\n      swap2\n      pop\n      pop\n      jump\t// out\n        /* \"#utility.yul\":967:1085   */\n    tag_51:\n        /* \"#utility.yul\":1054:1078   */\n      tag_53\n        /* \"#utility.yul\":1072:1077   */\n      dup2\n        /* \"#utility.yul\":1054:1078   */\n      tag_54\n      jump\t// in\n    tag_53:\n        /* \"#utility.yul\":1049:1052   */\n      dup3\n        /* \"#utility.yul\":1042:1079   */\n      mstore\n        /* \"#utility.yul\":967:1085   */\n      pop\n      pop\n      jump\t// out\n        /* \"#utility.yul\":1091:1200   */\n    tag_55:\n        /* \"#utility.yul\":1172:1193   */\n      tag_57\n        /* \"#utility.yul\":1187:1192   */\n      dup2\n        /* \"#utility.yul\":1172:1193   */\n      tag_58\n      jump\t// in\n    tag_57:\n        /* \"#utility.yul\":1167:1170   */\n      dup3\n        /* \"#utility.yul\":1160:1194   */\n      mstore\n        /* \"#utility.yul\":1091:1200   */\n      pop\n      pop\n      jump\t// out\n        /* \"#utility.yul\":1206:1324   */\n    tag_59:\n        /* \"#utility.yul\":1293:1317   */\n      tag_61\n        /* \"#utility.yul\":1311:1316   */\n      dup2\n        /* \"#utility.yul\":1293:1317   */\n      tag_62\n      jump\t// in\n    tag_61:\n        /* \"#utility.yul\":1288:1291   */\n      dup3\n        /* \"#utility.yul\":1281:1318   */\n      mstore\n        /* \"#utility.yul\":1206:1324   */\n      pop\n      pop\n      jump\t// out\n        /* \"#utility.yul\":1330:1552   */\n    tag_16:\n        /* \"#utility.yul\":1423:1427   */\n      0x00\n        /* \"#utility.yul\":1461:1463   */\n      0x20\n        /* \"#utility.yul\":1450:1459   */\n      dup3\n        /* \"#utility.yul\":1446:1464   */\n      add\n        /* \"#utility.yul\":1438:1464   */\n      swap1\n      pop\n        /* \"#utility.yul\":1474:1545   */\n      tag_64\n        /* \"#utility.yul\":1542:1543   */\n      0x00\n        /* \"#utility.yul\":1531:1540   */\n      dup4\n        /* \"#utility.yul\":1527:1544   */\n      add\n        /* \"#utility.yul\":1518:1524   */\n      dup5\n        /* \"#utility.yul\":1474:1545   */\n      tag_51\n      jump\t// in\n    tag_64:\n        /* \"#utility.yul\":1330:1552   */\n      swap3\n      swap2\n      pop\n      pop\n      jump\t// out\n        /* \"#utility.yul\":1558:1878   */\n    tag_10:\n        /* \"#utility.yul\":1673:1677   */\n      0x00\n        /* \"#utility.yul\":1711:1713   */\n      0x40\n        /* \"#utility.yul\":1700:1709   */\n      dup3\n        /* \"#utility.yul\":1696:1714   */\n      add\n        /* \"#utility.yul\":1688:1714   */\n      swap1\n      pop\n        /* \"#utility.yul\":1724:1789   */\n      tag_66\n        /* \"#utility.yul\":1786:1787   */\n      0x00\n        /* \"#utility.yul\":1775:1784   */\n      dup4\n        /* \"#utility.yul\":1771:1788   */\n      add\n        /* \"#utility.yul\":1762:1768   */\n      dup6\n        /* \"#utility.yul\":1724:1789   */\n      tag_55\n      jump\t// in\n    tag_66:\n        /* \"#utility.yul\":1799:1871   */\n      tag_67\n        /* \"#utility.yul\":1867:1869   */\n      0x20\n        /* \"#utility.yul\":1856:1865   */\n      dup4\n        /* \"#utility.yul\":1852:1870   */\n      add\n        /* \"#utility.yul\":1843:1849   */\n      dup5\n        /* \"#utility.yul\":1799:1871   */\n      tag_59\n      jump\t// in\n    tag_67:\n        /* \"#utility.yul\":1558:1878   */\n      swap4\n      swap3\n      pop\n      pop\n      pop\n      jump\t// out\n        /* \"#utility.yul\":1965:2061   */\n    tag_54:\n        /* \"#utility.yul\":2002:2009   */\n      0x00\n        /* \"#utility.yul\":2031:2055   */\n      tag_71\n        /* \"#utility.yul\":2049:2054   */\n      dup3\n        /* \"#utility.yul\":2031:2055   */\n      tag_72\n      jump\t// in\n    tag_71:\n        /* \"#utility.yul\":2020:2055   */\n      swap1\n      pop\n        /* \"#utility.yul\":1965:2061   */\n      swap2\n      swap1\n      pop\n      jump\t// out\n        /* \"#utility.yul\":2067:2157   */\n    tag_58:\n        /* \"#utility.yul\":2101:2108   */\n      0x00\n        /* \"#utility.yul\":2144:2149   */\n      dup2\n        /* \"#utility.yul\":2137:2150   */\n      iszero\n        /* \"#utility.yul\":2130:2151   */\n      iszero\n        /* \"#utility.yul\":2119:2151   */\n      swap1\n      pop\n        /* \"#utility.yul\":2067:2157   */\n      swap2\n      swap1\n      pop\n      jump\t// out\n        /* \"#utility.yul\":2163:2289   */\n    tag_72:\n        /* \"#utility.yul\":2200:2207   */\n      0x00\n        /* \"#utility.yul\":2240:2282   */\n      0xffffffffffffffffffffffffffffffffffffffff\n        /* \"#utility.yul\":2233:2238   */\n      dup3\n        /* \"#utility.yul\":2229:2283   */\n      and\n        /* \"#utility.yul\":2218:2283   */\n      swap1\n      pop\n        /* \"#utility.yul\":2163:2289   */\n      swap2\n      swap1\n      pop\n      jump\t// out\n        /* \"#utility.yul\":2295:2372   */\n    tag_62:\n        /* \"#utility.yul\":2332:2339   */\n      0x00\n        /* \"#utility.yul\":2361:2366   */\n      dup2\n        /* \"#utility.yul\":2350:2366   */\n      swap1\n      pop\n        /* \"#utility.yul\":2295:2372   */\n      swap2\n      swap1\n      pop\n      jump\t// out\n        /* \"#utility.yul\":2378:2611   */\n    tag_32:\n        /* \"#utility.yul\":2417:2420   */\n      0x00\n        /* \"#utility.yul\":2440:2464   */\n      tag_77\n        /* \"#utility.yul\":2458:2463   */\n      dup3\n        /* \"#utility.yul\":2440:2464   */\n      tag_62\n      jump\t// in\n    tag_77:\n        /* \"#utility.yul\":2431:2464   */\n      swap2\n      pop\n        /* \"#utility.yul\":2486:2552   */\n      0xffffffffffffffffffffffffffffffffffffffffffffffffffffffffffffffff\n        /* \"#utility.yul\":2479:2484   */\n      dup3\n        /* \"#utility.yul\":2476:2553   */\n      eq\n        /* \"#utility.yul\":2473:2576   */\n      iszero\n      tag_78\n      jumpi\n        /* \"#utility.yul\":2556:2574   */\n      tag_79\n      tag_80\n      jump\t// in\n    tag_79:\n        /* \"#utility.yul\":2473:2576   */\n    tag_78:\n        /* \"#utility.yul\":2603:2604   */\n      0x01\n        /* \"#utility.yul\":2596:2601   */\n      dup3\n        /* \"#utility.yul\":2592:2605   */\n      add\n        /* \"#utility.yul\":2585:2605   */\n      swap1\n      pop\n        /* \"#utility.yul\":2378:2611   */\n      swap2\n      swap1\n      pop\n      jump\t// out\n        /* \"#utility.yul\":2617:2797   */\n    tag_80:\n        /* \"#utility.yul\":2665:2742   */\n      0x4e487b7100000000000000000000000000000000000000000000000000000000\n        /* \"#utility.yul\":2662:2663   */\n      0x00\n        /* \"#utility.yul\":2655:2743   */\n      mstore\n        /* \"#utility.yul\":2762:2766   */\n      0x11\n        /* \"#utility.yul\":2759:2760   */\n      0x04\n        /* \"#utility.yul\":2752:2767   */\n      mstore\n        /* \"#utility.yul\":2786:2790   */\n      0x24\n        /* \"#utility.yul\":2783:2784   */\n      0x00\n        /* \"#utility.yul\":2776:2791   */\n      revert\n        /* \"#utility.yul\":2803:2983   */\n    tag_28:\n        /* \"#utility.yul\":2851:2928   */\n      0x4e487b7100000000000000000000000000000000000000000000000000000000\n        /* \"#utility.yul\":2848:2849   */\n      0x00\n        /* \"#utility.yul\":2841:2929   */\n      mstore\n        /* \"#utility.yul\":2948:2952   */\n      0x32\n        /* \"#utility.yul\":2945:2946   */\n      0x04\n        /* \"#utility.yul\":2938:2953   */\n      mstore\n        /* \"#utility.yul\":2972:2976   */\n      0x24\n        /* \"#utility.yul\":2969:2970   */\n      0x00\n        /* \"#utility.yul\":2962:2977   */\n      revert\n        /* \"#utility.yul\":3112:3229   */\n    tag_45:\n        /* \"#utility.yul\":3221:3222   */\n      0x00\n        /* \"#utility.yul\":3218:3219   */\n      dup1\n        /* \"#utility.yul\":3211:3223   */\n      revert\n        /* \"#utility.yul\":3235:3357   */\n    tag_37:\n        /* \"#utility.yul\":3308:3332   */\n      tag_87\n        /* \"#utility.yul\":3326:3331   */\n      dup2\n        /* \"#utility.yul\":3308:3332   */\n      tag_54\n      jump\t// in\n    tag_87:\n        /* \"#utility.yul\":3301:3306   */\n      dup2\n        /* \"#utility.yul\":3298:3333   */\n      eq\n        /* \"#utility.yul\":3288:3351   */\n      tag_88\n      jumpi\n        /* \"#utility.yul\":3347:3348   */\n      0x00\n        /* \"#utility.yul\":3344:3345   */\n      dup1\n        /* \"#utility.yul\":3337:3349   */\n      revert\n        /* \"#utility.yul\":3288:3351   */\n    tag_88:\n        /* \"#utility.yul\":3235:3357   */\n      pop\n      jump\t// out\n        /* \"#utility.yul\":3363:3485   */\n    tag_41:\n        /* \"#utility.yul\":3436:3460   */\n      tag_90\n        /* \"#utility.yul\":3454:3459   */\n      dup2\n        /* \"#utility.yul\":3436:3460   */\n      tag_62\n      jump\t// in\n    tag_90:\n        /* \"#utility.yul\":3429:3434   */\n      dup2\n        /* \"#utility.yul\":3426:3461   */\n      eq\n        /* \"#utility.yul\":3416:3479   */\n      tag_91\n      jumpi\n        /* \"#utility.yul\":3475:3476   */\n      0x00\n        /* \"#utility.yul\":3472:3473   */\n      dup1\n        /* \"#utility.yul\":3465:3477   */\n      revert\n        /* \"#utility.yul\":3416:3479   */\n    tag_91:\n        /* \"#utility.yul\":3363:3485   */\n      pop\n      jump\t// out\n\n    auxdata: 0xa26469706673582212209bda7988c0c59e2905cc9cb7c149b0f1564a5e0daefa46ed2158ec984f6cf92164736f6c63430008070033\n}\n",
				"bytecode": {
					"linkReferences": {},
					"object": "608060405234801561001057600080fd5b506000733cb06a7709a2511e48a091979b9b68b27999afab9080600181540180825580915050600190039060005260206000200160009091909190916101000a81548173ffffffffffffffffffffffffffffffffffffffff021916908373ffffffffffffffffffffffffffffffffffffffff160217905550600073cda189005bfbe90bc2d518f69ffb937ecdffb3f39080600181540180825580915050600190039060005260206000200160009091909190916101000a81548173ffffffffffffffffffffffffffffffffffffffff021916908373ffffffffffffffffffffffffffffffffffffffff160217905550600073441d3f30ea410492073c9ed263adfacb0cb4c95f9080600181540180825580915050600190039060005260206000200160009091909190916101000a81548173ffffffffffffffffffffffffffffffffffffffff021916908373ffffffffffffffffffffffffffffffffffffffff160217905550600073ccf25b3e56ca33859f20622c83cb380693092fe29080600181540180825580915050600190039060005260206000200160009091909190916101000a81548173ffffffffffffffffffffffffffffffffffffffff021916908373ffffffffffffffffffffffffffffffffffffffff1602179055506103fb806101fc6000396000f3fe608060405234801561001057600080fd5b50600436106100365760003560e01c806377197a571461003b578063ba7e59691461006c575b600080fd5b610055600480360381019061005091906101d8565b61009c565b60405161006392919061027a565b60405180910390f35b61008660048036038101906100819190610205565b6100bc565b604051610093919061025f565b60405180910390f35b6000806000806100ab856100fb565b915091508181935093505050915091565b600081815481106100cc57600080fd5b906000526020600020016000915054906101000a900473ffffffffffffffffffffffffffffffffffffffff1681565b60008060005b6000805490508110156101a0578373ffffffffffffffffffffffffffffffffffffffff166000828154811061013957610138610363565b5b9060005260206000200160009054906101000a900473ffffffffffffffffffffffffffffffffffffffff1673ffffffffffffffffffffffffffffffffffffffff16141561018d5760018192509250506101a9565b8080610198906102eb565b915050610101565b50600080915091505b915091565b6000813590506101bd81610397565b92915050565b6000813590506101d2816103ae565b92915050565b6000602082840312156101ee576101ed610392565b5b60006101fc848285016101ae565b91505092915050565b60006020828403121561021b5761021a610392565b5b6000610229848285016101c3565b91505092915050565b61023b816102a3565b82525050565b61024a816102b5565b82525050565b610259816102e1565b82525050565b60006020820190506102746000830184610232565b92915050565b600060408201905061028f6000830185610241565b61029c6020830184610250565b9392505050565b60006102ae826102c1565b9050919050565b60008115159050919050565b600073ffffffffffffffffffffffffffffffffffffffff82169050919050565b6000819050919050565b60006102f6826102e1565b91507fffffffffffffffffffffffffffffffffffffffffffffffffffffffffffffffff82141561032957610328610334565b5b600182019050919050565b7f4e487b7100000000000000000000000000000000000000000000000000000000600052601160045260246000fd5b7f4e487b7100000000000000000000000000000000000000000000000000000000600052603260045260246000fd5b600080fd5b6103a0816102a3565b81146103ab57600080fd5b50565b6103b7816102e1565b81146103c257600080fd5b5056fea26469706673582212209bda7988c0c59e2905cc9cb7c149b0f1564a5e0daefa46ed2158ec984f6cf92164736f6c63430008070033",
					"opcodes": "PUSH1 0x80 PUSH1 0x40 MSTORE CALLVALUE DUP1 ISZERO PUSH2 0x10 JUMPI PUSH1 0x0 DUP1 REVERT JUMPDEST POP PUSH1 0x0 PUSH20 0x3CB06A7709A2511E48A091979B9B68B27999AFAB SWAP1 DUP1 PUSH1 0x1 DUP2 SLOAD ADD DUP1 DUP3 SSTORE DUP1 SWAP2 POP POP PUSH1 0x1 SWAP1 SUB SWAP1 PUSH1 0x0 MSTORE PUSH1 0x20 PUSH1 0x0 KECCAK256 ADD PUSH1 0x0 SWAP1 SWAP2 SWAP1 SWAP2 SWAP1 SWAP2 PUSH2 0x100 EXP DUP2 SLOAD DUP2 PUSH20 0xFFFFFFFFFFFFFFFFFFFFFFFFFFFFFFFFFFFFFFFF MUL NOT AND SWAP1 DUP4 PUSH20 0xFFFFFFFFFFFFFFFFFFFFFFFFFFFFFFFFFFFFFFFF AND MUL OR SWAP1 SSTORE POP PUSH1 0x0 PUSH20 0xCDA189005BFBE90BC2D518F69FFB937ECDFFB3F3 SWAP1 DUP1 PUSH1 0x1 DUP2 SLOAD ADD DUP1 DUP3 SSTORE DUP1 SWAP2 POP POP PUSH1 0x1 SWAP1 SUB SWAP1 PUSH1 0x0 MSTORE PUSH1 0x20 PUSH1 0x0 KECCAK256 ADD PUSH1 0x0 SWAP1 SWAP2 SWAP1 SWAP2 SWAP1 SWAP2 PUSH2 0x100 EXP DUP2 SLOAD DUP2 PUSH20 0xFFFFFFFFFFFFFFFFFFFFFFFFFFFFFFFFFFFFFFFF MUL NOT AND SWAP1 DUP4 PUSH20 0xFFFFFFFFFFFFFFFFFFFFFFFFFFFFFFFFFFFFFFFF AND MUL OR SWAP1 SSTORE POP PUSH1 0x0 PUSH20 0x441D3F30EA410492073C9ED263ADFACB0CB4C95F SWAP1 DUP1 PUSH1 0x1 DUP2 SLOAD ADD DUP1 DUP3 SSTORE DUP1 SWAP2 POP POP PUSH1 0x1 SWAP1 SUB SWAP1 PUSH1 0x0 MSTORE PUSH1 0x20 PUSH1 0x0 KECCAK256 ADD PUSH1 0x0 SWAP1 SWAP2 SWAP1 SWAP2 SWAP1 SWAP2 PUSH2 0x100 EXP DUP2 SLOAD DUP2 PUSH20 0xFFFFFFFFFFFFFFFFFFFFFFFFFFFFFFFFFFFFFFFF MUL NOT AND SWAP1 DUP4 PUSH20 0xFFFFFFFFFFFFFFFFFFFFFFFFFFFFFFFFFFFFFFFF AND MUL OR SWAP1 SSTORE POP PUSH1 0x0 PUSH20 0xCCF25B3E56CA33859F20622C83CB380693092FE2 SWAP1 DUP1 PUSH1 0x1 DUP2 SLOAD ADD DUP1 DUP3 SSTORE DUP1 SWAP2 POP POP PUSH1 0x1 SWAP1 SUB SWAP1 PUSH1 0x0 MSTORE PUSH1 0x20 PUSH1 0x0 KECCAK256 ADD PUSH1 0x0 SWAP1 SWAP2 SWAP1 SWAP2 SWAP1 SWAP2 PUSH2 0x100 EXP DUP2 SLOAD DUP2 PUSH20 0xFFFFFFFFFFFFFFFFFFFFFFFFFFFFFFFFFFFFFFFF MUL NOT AND SWAP1 DUP4 PUSH20 0xFFFFFFFFFFFFFFFFFFFFFFFFFFFFFFFFFFFFFFFF AND MUL OR SWAP1 SSTORE POP PUSH2 0x3FB DUP1 PUSH2 0x1FC PUSH1 0x0 CODECOPY PUSH1 0x0 RETURN INVALID PUSH1 0x80 PUSH1 0x40 MSTORE CALLVALUE DUP1 ISZERO PUSH2 0x10 JUMPI PUSH1 0x0 DUP1 REVERT JUMPDEST POP PUSH1 0x4 CALLDATASIZE LT PUSH2 0x36 JUMPI PUSH1 0x0 CALLDATALOAD PUSH1 0xE0 SHR DUP1 PUSH4 0x77197A57 EQ PUSH2 0x3B JUMPI DUP1 PUSH4 0xBA7E5969 EQ PUSH2 0x6C JUMPI JUMPDEST PUSH1 0x0 DUP1 REVERT JUMPDEST PUSH2 0x55 PUSH1 0x4 DUP1 CALLDATASIZE SUB DUP2 ADD SWAP1 PUSH2 0x50 SWAP2 SWAP1 PUSH2 0x1D8 JUMP JUMPDEST PUSH2 0x9C JUMP JUMPDEST PUSH1 0x40 MLOAD PUSH2 0x63 SWAP3 SWAP2 SWAP1 PUSH2 0x27A JUMP JUMPDEST PUSH1 0x40 MLOAD DUP1 SWAP2 SUB SWAP1 RETURN JUMPDEST PUSH2 0x86 PUSH1 0x4 DUP1 CALLDATASIZE SUB DUP2 ADD SWAP1 PUSH2 0x81 SWAP2 SWAP1 PUSH2 0x205 JUMP JUMPDEST PUSH2 0xBC JUMP JUMPDEST PUSH1 0x40 MLOAD PUSH2 0x93 SWAP2 SWAP1 PUSH2 0x25F JUMP JUMPDEST PUSH1 0x40 MLOAD DUP1 SWAP2 SUB SWAP1 RETURN JUMPDEST PUSH1 0x0 DUP1 PUSH1 0x0 DUP1 PUSH2 0xAB DUP6 PUSH2 0xFB JUMP JUMPDEST SWAP2 POP SWAP2 POP DUP2 DUP2 SWAP4 POP SWAP4 POP POP POP SWAP2 POP SWAP2 JUMP JUMPDEST PUSH1 0x0 DUP2 DUP2 SLOAD DUP2 LT PUSH2 0xCC JUMPI PUSH1 0x0 DUP1 REVERT JUMPDEST SWAP1 PUSH1 0x0 MSTORE PUSH1 0x20 PUSH1 0x0 KECCAK256 ADD PUSH1 0x0 SWAP2 POP SLOAD SWAP1 PUSH2 0x100 EXP SWAP1 DIV PUSH20 0xFFFFFFFFFFFFFFFFFFFFFFFFFFFFFFFFFFFFFFFF AND DUP2 JUMP JUMPDEST PUSH1 0x0 DUP1 PUSH1 0x0 JUMPDEST PUSH1 0x0 DUP1 SLOAD SWAP1 POP DUP2 LT ISZERO PUSH2 0x1A0 JUMPI DUP4 PUSH20 0xFFFFFFFFFFFFFFFFFFFFFFFFFFFFFFFFFFFFFFFF AND PUSH1 0x0 DUP3 DUP2 SLOAD DUP2 LT PUSH2 0x139 JUMPI PUSH2 0x138 PUSH2 0x363 JUMP JUMPDEST JUMPDEST SWAP1 PUSH1 0x0 MSTORE PUSH1 0x20 PUSH1 0x0 KECCAK256 ADD PUSH1 0x0 SWAP1 SLOAD SWAP1 PUSH2 0x100 EXP SWAP1 DIV PUSH20 0xFFFFFFFFFFFFFFFFFFFFFFFFFFFFFFFFFFFFFFFF AND PUSH20 0xFFFFFFFFFFFFFFFFFFFFFFFFFFFFFFFFFFFFFFFF AND EQ ISZERO PUSH2 0x18D JUMPI PUSH1 0x1 DUP2 SWAP3 POP SWAP3 POP POP PUSH2 0x1A9 JUMP JUMPDEST DUP1 DUP1 PUSH2 0x198 SWAP1 PUSH2 0x2EB JUMP JUMPDEST SWAP2 POP POP PUSH2 0x101 JUMP JUMPDEST POP PUSH1 0x0 DUP1 SWAP2 POP SWAP2 POP JUMPDEST SWAP2 POP SWAP2 JUMP JUMPDEST PUSH1 0x0 DUP2 CALLDATALOAD SWAP1 POP PUSH2 0x1BD DUP2 PUSH2 0x397 JUMP JUMPDEST SWAP3 SWAP2 POP POP JUMP JUMPDEST PUSH1 0x0 DUP2 CALLDATALOAD SWAP1 POP PUSH2 0x1D2 DUP2 PUSH2 0x3AE JUMP JUMPDEST SWAP3 SWAP2 POP POP JUMP JUMPDEST PUSH1 0x0 PUSH1 0x20 DUP3 DUP5 SUB SLT ISZERO PUSH2 0x1EE JUMPI PUSH2 0x1ED PUSH2 0x392 JUMP JUMPDEST JUMPDEST PUSH1 0x0 PUSH2 0x1FC DUP5 DUP3 DUP6 ADD PUSH2 0x1AE JUMP JUMPDEST SWAP2 POP POP SWAP3 SWAP2 POP POP JUMP JUMPDEST PUSH1 0x0 PUSH1 0x20 DUP3 DUP5 SUB SLT ISZERO PUSH2 0x21B JUMPI PUSH2 0x21A PUSH2 0x392 JUMP JUMPDEST JUMPDEST PUSH1 0x0 PUSH2 0x229 DUP5 DUP3 DUP6 ADD PUSH2 0x1C3 JUMP JUMPDEST SWAP2 POP POP SWAP3 SWAP2 POP POP JUMP JUMPDEST PUSH2 0x23B DUP2 PUSH2 0x2A3 JUMP JUMPDEST DUP3 MSTORE POP POP JUMP JUMPDEST PUSH2 0x24A DUP2 PUSH2 0x2B5 JUMP JUMPDEST DUP3 MSTORE POP POP JUMP JUMPDEST PUSH2 0x259 DUP2 PUSH2 0x2E1 JUMP JUMPDEST DUP3 MSTORE POP POP JUMP JUMPDEST PUSH1 0x0 PUSH1 0x20 DUP3 ADD SWAP1 POP PUSH2 0x274 PUSH1 0x0 DUP4 ADD DUP5 PUSH2 0x232 JUMP JUMPDEST SWAP3 SWAP2 POP POP JUMP JUMPDEST PUSH1 0x0 PUSH1 0x40 DUP3 ADD SWAP1 POP PUSH2 0x28F PUSH1 0x0 DUP4 ADD DUP6 PUSH2 0x241 JUMP JUMPDEST PUSH2 0x29C PUSH1 0x20 DUP4 ADD DUP5 PUSH2 0x250 JUMP JUMPDEST SWAP4 SWAP3 POP POP POP JUMP JUMPDEST PUSH1 0x0 PUSH2 0x2AE DUP3 PUSH2 0x2C1 JUMP JUMPDEST SWAP1 POP SWAP2 SWAP1 POP JUMP JUMPDEST PUSH1 0x0 DUP2 ISZERO ISZERO SWAP1 POP SWAP2 SWAP1 POP JUMP JUMPDEST PUSH1 0x0 PUSH20 0xFFFFFFFFFFFFFFFFFFFFFFFFFFFFFFFFFFFFFFFF DUP3 AND SWAP1 POP SWAP2 SWAP1 POP JUMP JUMPDEST PUSH1 0x0 DUP2 SWAP1 POP SWAP2 SWAP1 POP JUMP JUMPDEST PUSH1 0x0 PUSH2 0x2F6 DUP3 PUSH2 0x2E1 JUMP JUMPDEST SWAP2 POP PUSH32 0xFFFFFFFFFFFFFFFFFFFFFFFFFFFFFFFFFFFFFFFFFFFFFFFFFFFFFFFFFFFFFFFF DUP3 EQ ISZERO PUSH2 0x329 JUMPI PUSH2 0x328 PUSH2 0x334 JUMP JUMPDEST JUMPDEST PUSH1 0x1 DUP3 ADD SWAP1 POP SWAP2 SWAP1 POP JUMP JUMPDEST PUSH32 0x4E487B7100000000000000000000000000000000000000000000000000000000 PUSH1 0x0 MSTORE PUSH1 0x11 PUSH1 0x4 MSTORE PUSH1 0x24 PUSH1 0x0 REVERT JUMPDEST PUSH32 0x4E487B7100000000000000000000000000000000000000000000000000000000 PUSH1 0x0 MSTORE PUSH1 0x32 PUSH1 0x4 MSTORE PUSH1 0x24 PUSH1 0x0 REVERT JUMPDEST PUSH1 0x0 DUP1 REVERT JUMPDEST PUSH2 0x3A0 DUP2 PUSH2 0x2A3 JUMP JUMPDEST DUP2 EQ PUSH2 0x3AB JUMPI PUSH1 0x0 DUP1 REVERT JUMPDEST POP JUMP JUMPDEST PUSH2 0x3B7 DUP2 PUSH2 0x2E1 JUMP JUMPDEST DUP2 EQ PUSH2 0x3C2 JUMPI PUSH1 0x0 DUP1 REVERT JUMPDEST POP JUMP INVALID LOG2 PUSH5 0x6970667358 0x22 SLT KECCAK256 SWAP12 0xDA PUSH26 0x88C0C59E2905CC9CB7C149B0F1564A5E0DAEFA46ED2158EC984F PUSH13 0xF92164736F6C63430008070033 "
				},
				"gasEstimates": {
					"creation": {
						"codeDepositCost": "203800",
						"executionCost": "194561",
						"totalCost": "398361"
					},
					"external": {
						"checkData(address)": "infinite",
						"listArray(uint256)": "4956"
					},
					"internal": {
						"findElementPosition(address)": "infinite"
					}
				},
				"methodIdentifiers": {
					"checkData(address)": "77197a57",
					"listArray(uint256)": "ba7e5969"
				}
			},
			"userdoc": {
				"kind": "user",
				"methods": {},
				"version": 1
			}
		}
	}
}