{
	"contracts/ERC721.sol": {
		"ERC721": {
			"abi": [
				{
					"inputs": [
						{
							"internalType": "string",
							"name": "name_",
							"type": "string"
						},
						{
							"internalType": "string",
							"name": "symbol_",
							"type": "string"
						}
					],
					"stateMutability": "nonpayable",
					"type": "constructor"
				},
				{
					"anonymous": false,
					"inputs": [
						{
							"indexed": true,
							"internalType": "address",
							"name": "owner",
							"type": "address"
						},
						{
							"indexed": true,
							"internalType": "address",
							"name": "approved",
							"type": "address"
						},
						{
							"indexed": true,
							"internalType": "uint256",
							"name": "tokenId",
							"type": "uint256"
						}
					],
					"name": "Approval",
					"type": "event"
				},
				{
					"anonymous": false,
					"inputs": [
						{
							"indexed": true,
							"internalType": "address",
							"name": "owner",
							"type": "address"
						},
						{
							"indexed": true,
							"internalType": "address",
							"name": "operator",
							"type": "address"
						},
						{
							"indexed": false,
							"internalType": "bool",
							"name": "approved",
							"type": "bool"
						}
					],
					"name": "ApprovalForAll",
					"type": "event"
				},
				{
					"anonymous": false,
					"inputs": [
						{
							"indexed": true,
							"internalType": "address",
							"name": "from",
							"type": "address"
						},
						{
							"indexed": true,
							"internalType": "address",
							"name": "to",
							"type": "address"
						},
						{
							"indexed": true,
							"internalType": "uint256",
							"name": "tokenId",
							"type": "uint256"
						}
					],
					"name": "Transfer",
					"type": "event"
				},
				{
					"inputs": [
						{
							"internalType": "address",
							"name": "to",
							"type": "address"
						},
						{
							"internalType": "uint256",
							"name": "tokenId",
							"type": "uint256"
						}
					],
					"name": "_safeMint",
					"outputs": [],
					"stateMutability": "nonpayable",
					"type": "function"
				},
				{
					"inputs": [
						{
							"internalType": "address",
							"name": "to",
							"type": "address"
						},
						{
							"internalType": "uint256",
							"name": "tokenId",
							"type": "uint256"
						}
					],
					"name": "approve",
					"outputs": [],
					"stateMutability": "nonpayable",
					"type": "function"
				},
				{
					"inputs": [
						{
							"internalType": "address",
							"name": "owner",
							"type": "address"
						}
					],
					"name": "balanceOf",
					"outputs": [
						{
							"internalType": "uint256",
							"name": "",
							"type": "uint256"
						}
					],
					"stateMutability": "view",
					"type": "function"
				},
				{
					"inputs": [
						{
							"internalType": "uint256",
							"name": "tokenId",
							"type": "uint256"
						}
					],
					"name": "getApproved",
					"outputs": [
						{
							"internalType": "address",
							"name": "",
							"type": "address"
						}
					],
					"stateMutability": "view",
					"type": "function"
				},
				{
					"inputs": [
						{
							"internalType": "address",
							"name": "owner",
							"type": "address"
						},
						{
							"internalType": "address",
							"name": "operator",
							"type": "address"
						}
					],
					"name": "isApprovedForAll",
					"outputs": [
						{
							"internalType": "bool",
							"name": "",
							"type": "bool"
						}
					],
					"stateMutability": "view",
					"type": "function"
				},
				{
					"inputs": [],
					"name": "name",
					"outputs": [
						{
							"internalType": "string",
							"name": "",
							"type": "string"
						}
					],
					"stateMutability": "view",
					"type": "function"
				},
				{
					"inputs": [
						{
							"internalType": "uint256",
							"name": "tokenId",
							"type": "uint256"
						}
					],
					"name": "ownerOf",
					"outputs": [
						{
							"internalType": "address",
							"name": "",
							"type": "address"
						}
					],
					"stateMutability": "view",
					"type": "function"
				},
				{
					"inputs": [
						{
							"internalType": "address",
							"name": "from",
							"type": "address"
						},
						{
							"internalType": "address",
							"name": "to",
							"type": "address"
						},
						{
							"internalType": "uint256",
							"name": "tokenId",
							"type": "uint256"
						}
					],
					"name": "safeTransferFrom",
					"outputs": [],
					"stateMutability": "nonpayable",
					"type": "function"
				},
				{
					"inputs": [
						{
							"internalType": "address",
							"name": "from",
							"type": "address"
						},
						{
							"internalType": "address",
							"name": "to",
							"type": "address"
						},
						{
							"internalType": "uint256",
							"name": "tokenId",
							"type": "uint256"
						},
						{
							"internalType": "bytes",
							"name": "_data",
							"type": "bytes"
						}
					],
					"name": "safeTransferFrom",
					"outputs": [],
					"stateMutability": "nonpayable",
					"type": "function"
				},
				{
					"inputs": [
						{
							"internalType": "address",
							"name": "operator",
							"type": "address"
						},
						{
							"internalType": "bool",
							"name": "approved",
							"type": "bool"
						}
					],
					"name": "setApprovalForAll",
					"outputs": [],
					"stateMutability": "nonpayable",
					"type": "function"
				},
				{
					"inputs": [
						{
							"internalType": "bytes4",
							"name": "interfaceId",
							"type": "bytes4"
						}
					],
					"name": "supportsInterface",
					"outputs": [
						{
							"internalType": "bool",
							"name": "",
							"type": "bool"
						}
					],
					"stateMutability": "view",
					"type": "function"
				},
				{
					"inputs": [],
					"name": "symbol",
					"outputs": [
						{
							"internalType": "string",
							"name": "",
							"type": "string"
						}
					],
					"stateMutability": "view",
					"type": "function"
				},
				{
					"inputs": [
						{
							"internalType": "uint256",
							"name": "tokenId",
							"type": "uint256"
						}
					],
					"name": "tokenURI",
					"outputs": [
						{
							"internalType": "string",
							"name": "",
							"type": "string"
						}
					],
					"stateMutability": "view",
					"type": "function"
				},
				{
					"inputs": [
						{
							"internalType": "address",
							"name": "from",
							"type": "address"
						},
						{
							"internalType": "address",
							"name": "to",
							"type": "address"
						},
						{
							"internalType": "uint256",
							"name": "tokenId",
							"type": "uint256"
						}
					],
					"name": "transferFrom",
					"outputs": [],
					"stateMutability": "nonpayable",
					"type": "function"
				}
			],
			"devdoc": {
				"details": "Implementation of https://eips.ethereum.org/EIPS/eip-721[ERC721] Non-Fungible Token Standard, including the Metadata extension, but not including the Enumerable extension, which is available separately as {ERC721Enumerable}.",
				"kind": "dev",
				"methods": {
					"_safeMint(address,uint256)": {
						"details": "Safely mints `tokenId` and transfers it to `to`. Requirements: - `tokenId` must not exist. - If `to` refers to a smart contract, it must implement {IERC721Receiver-onERC721Received}, which is called upon a safe transfer. Emits a {Transfer} event."
					},
					"approve(address,uint256)": {
						"details": "See {IERC721-approve}."
					},
					"balanceOf(address)": {
						"details": "See {IERC721-balanceOf}."
					},
					"constructor": {
						"details": "Initializes the contract by setting a `name` and a `symbol` to the token collection."
					},
					"getApproved(uint256)": {
						"details": "See {IERC721-getApproved}."
					},
					"isApprovedForAll(address,address)": {
						"details": "See {IERC721-isApprovedForAll}."
					},
					"name()": {
						"details": "See {IERC721Metadata-name}."
					},
					"ownerOf(uint256)": {
						"details": "See {IERC721-ownerOf}."
					},
					"safeTransferFrom(address,address,uint256)": {
						"details": "See {IERC721-safeTransferFrom}."
					},
					"safeTransferFrom(address,address,uint256,bytes)": {
						"details": "See {IERC721-safeTransferFrom}."
					},
					"setApprovalForAll(address,bool)": {
						"details": "See {IERC721-setApprovalForAll}."
					},
					"supportsInterface(bytes4)": {
						"details": "See {IERC165-supportsInterface}."
					},
					"symbol()": {
						"details": "See {IERC721Metadata-symbol}."
					},
					"tokenURI(uint256)": {
						"details": "See {IERC721Metadata-tokenURI}."
					},
					"transferFrom(address,address,uint256)": {
						"details": "See {IERC721-transferFrom}."
					}
				},
				"version": 1
			},
			"evm": {
				"assembly": "    /* \"contracts/ERC721.sol\":581:14723  contract ERC721 is Context, ERC165, IERC721, IERC721Metadata {\r... */\n  mstore(0x40, 0x80)\n    /* \"contracts/ERC721.sol\":1368:1524  constructor(string memory name_, string memory symbol_) {\r... */\n  callvalue\n  dup1\n  iszero\n  tag_1\n  jumpi\n  0x00\n  dup1\n  revert\ntag_1:\n  pop\n  mload(0x40)\n  sub(codesize, bytecodeSize)\n  dup1\n  bytecodeSize\n  dup4\n  codecopy\n  dup2\n  dup2\n  add\n  0x40\n  mstore\n  dup2\n  add\n  swap1\n  tag_2\n  swap2\n  swap1\n  tag_3\n  jump\t// in\ntag_2:\n    /* \"contracts/ERC165.sol\":625:670  _registerInterface(type(IERC165).interfaceId) */\n  tag_7\n    /* \"contracts/ERC165.sol\":644:669  type(IERC165).interfaceId */\n  0x01ffc9a700000000000000000000000000000000000000000000000000000000\n    /* \"contracts/ERC165.sol\":625:643  _registerInterface */\n  shl(0x20, tag_8)\n    /* \"contracts/ERC165.sol\":625:670  _registerInterface(type(IERC165).interfaceId) */\n  0x20\n  shr\n  jump\t// in\ntag_7:\n    /* \"contracts/ERC721.sol\":1459:1464  10000 */\n  0x2710\n    /* \"contracts/ERC721.sol\":1435:1444  _balances */\n  0x04\n    /* \"contracts/ERC721.sol\":1435:1456  _balances[msg.sender] */\n  0x00\n    /* \"contracts/ERC721.sol\":1445:1455  msg.sender */\n  caller\n    /* \"contracts/ERC721.sol\":1435:1456  _balances[msg.sender] */\n  0xffffffffffffffffffffffffffffffffffffffff\n  and\n  0xffffffffffffffffffffffffffffffffffffffff\n  and\n  dup2\n  mstore\n  0x20\n  add\n  swap1\n  dup2\n  mstore\n  0x20\n  add\n  0x00\n  keccak256\n    /* \"contracts/ERC721.sol\":1435:1464  _balances[msg.sender] = 10000 */\n  dup2\n  swap1\n  sstore\n  pop\n    /* \"contracts/ERC721.sol\":1483:1488  name_ */\n  dup2\n    /* \"contracts/ERC721.sol\":1475:1480  _name */\n  0x01\n    /* \"contracts/ERC721.sol\":1475:1488  _name = name_ */\n  swap1\n  dup1\n  mload\n  swap1\n  0x20\n  add\n  swap1\n  tag_10\n  swap3\n  swap2\n  swap1\n  tag_11\n  jump\t// in\ntag_10:\n  pop\n    /* \"contracts/ERC721.sol\":1509:1516  symbol_ */\n  dup1\n    /* \"contracts/ERC721.sol\":1499:1506  _symbol */\n  0x02\n    /* \"contracts/ERC721.sol\":1499:1516  _symbol = symbol_ */\n  swap1\n  dup1\n  mload\n  swap1\n  0x20\n  add\n  swap1\n  tag_12\n  swap3\n  swap2\n  swap1\n  tag_11\n  jump\t// in\ntag_12:\n  pop\n    /* \"contracts/ERC721.sol\":1368:1524  constructor(string memory name_, string memory symbol_) {\r... */\n  pop\n  pop\n    /* \"contracts/ERC721.sol\":581:14723  contract ERC721 is Context, ERC165, IERC721, IERC721Metadata {\r... */\n  jump(tag_13)\n    /* \"contracts/ERC165.sol\":1392:1593  function _registerInterface(bytes4 interfaceId) internal virtual {\r... */\ntag_8:\n    /* \"contracts/ERC165.sol\":1491:1501  0xffffffff */\n  0xffffffff\n    /* \"contracts/ERC165.sol\":1476:1501  interfaceId != 0xffffffff */\n  0xe0\n  shl\n    /* \"contracts/ERC165.sol\":1476:1487  interfaceId */\n  dup2\n    /* \"contracts/ERC165.sol\":1476:1501  interfaceId != 0xffffffff */\n  not(0xffffffffffffffffffffffffffffffffffffffffffffffffffffffff)\n  and\n  eq\n  iszero\n    /* \"contracts/ERC165.sol\":1468:1534  require(interfaceId != 0xffffffff, \"ERC165: invalid interface id\") */\n  tag_15\n  jumpi\n  mload(0x40)\n  0x08c379a000000000000000000000000000000000000000000000000000000000\n  dup2\n  mstore\n  0x04\n  add\n  tag_16\n  swap1\n  tag_17\n  jump\t// in\ntag_16:\n  mload(0x40)\n  dup1\n  swap2\n  sub\n  swap1\n  revert\ntag_15:\n    /* \"contracts/ERC165.sol\":1581:1585  true */\n  0x01\n    /* \"contracts/ERC165.sol\":1545:1565  _supportedInterfaces */\n  0x00\n    /* \"contracts/ERC165.sol\":1545:1578  _supportedInterfaces[interfaceId] */\n  dup1\n    /* \"contracts/ERC165.sol\":1566:1577  interfaceId */\n  dup4\n    /* \"contracts/ERC165.sol\":1545:1578  _supportedInterfaces[interfaceId] */\n  not(0xffffffffffffffffffffffffffffffffffffffffffffffffffffffff)\n  and\n  not(0xffffffffffffffffffffffffffffffffffffffffffffffffffffffff)\n  and\n  dup2\n  mstore\n  0x20\n  add\n  swap1\n  dup2\n  mstore\n  0x20\n  add\n  0x00\n  keccak256\n  0x00\n    /* \"contracts/ERC165.sol\":1545:1585  _supportedInterfaces[interfaceId] = true */\n  0x0100\n  exp\n  dup2\n  sload\n  dup2\n  0xff\n  mul\n  not\n  and\n  swap1\n  dup4\n  iszero\n  iszero\n  mul\n  or\n  swap1\n  sstore\n  pop\n    /* \"contracts/ERC165.sol\":1392:1593  function _registerInterface(bytes4 interfaceId) internal virtual {\r... */\n  pop\n  jump\t// out\n    /* \"contracts/ERC721.sol\":581:14723  contract ERC721 is Context, ERC165, IERC721, IERC721Metadata {\r... */\ntag_11:\n  dup3\n  dup1\n  sload\n  tag_18\n  swap1\n  tag_19\n  jump\t// in\ntag_18:\n  swap1\n  0x00\n  mstore\n  keccak256(0x00, 0x20)\n  swap1\n  0x1f\n  add\n  0x20\n  swap1\n  div\n  dup2\n  add\n  swap3\n  dup3\n  tag_21\n  jumpi\n  0x00\n  dup6\n  sstore\n  jump(tag_20)\ntag_21:\n  dup3\n  0x1f\n  lt\n  tag_22\n  jumpi\n  dup1\n  mload\n  not(0xff)\n  and\n  dup4\n  dup1\n  add\n  or\n  dup6\n  sstore\n  jump(tag_20)\ntag_22:\n  dup3\n  dup1\n  add\n  0x01\n  add\n  dup6\n  sstore\n  dup3\n  iszero\n  tag_20\n  jumpi\n  swap2\n  dup3\n  add\ntag_23:\n  dup3\n  dup2\n  gt\n  iszero\n  tag_24\n  jumpi\n  dup3\n  mload\n  dup3\n  sstore\n  swap2\n  0x20\n  add\n  swap2\n  swap1\n  0x01\n  add\n  swap1\n  jump(tag_23)\ntag_24:\ntag_20:\n  pop\n  swap1\n  pop\n  tag_25\n  swap2\n  swap1\n  tag_26\n  jump\t// in\ntag_25:\n  pop\n  swap1\n  jump\t// out\ntag_26:\ntag_27:\n  dup1\n  dup3\n  gt\n  iszero\n  tag_28\n  jumpi\n  0x00\n  dup2\n  0x00\n  swap1\n  sstore\n  pop\n  0x01\n  add\n  jump(tag_27)\ntag_28:\n  pop\n  swap1\n  jump\t// out\n    /* \"#utility.yul\":7:361   */\ntag_30:\n  0x00\n    /* \"#utility.yul\":121:187   */\n  tag_32\n    /* \"#utility.yul\":137:186   */\n  tag_33\n    /* \"#utility.yul\":179:185   */\n  dup5\n    /* \"#utility.yul\":137:186   */\n  tag_34\n  jump\t// in\ntag_33:\n    /* \"#utility.yul\":121:187   */\n  tag_35\n  jump\t// in\ntag_32:\n    /* \"#utility.yul\":112:187   */\n  swap1\n  pop\n    /* \"#utility.yul\":210:216   */\n  dup3\n    /* \"#utility.yul\":203:208   */\n  dup2\n    /* \"#utility.yul\":196:217   */\n  mstore\n    /* \"#utility.yul\":248:252   */\n  0x20\n    /* \"#utility.yul\":241:246   */\n  dup2\n    /* \"#utility.yul\":237:253   */\n  add\n    /* \"#utility.yul\":286:289   */\n  dup5\n    /* \"#utility.yul\":277:283   */\n  dup5\n    /* \"#utility.yul\":272:275   */\n  dup5\n    /* \"#utility.yul\":268:284   */\n  add\n    /* \"#utility.yul\":265:290   */\n  gt\n    /* \"#utility.yul\":262:264   */\n  iszero\n  tag_36\n  jumpi\n    /* \"#utility.yul\":303:304   */\n  0x00\n    /* \"#utility.yul\":300:301   */\n  dup1\n    /* \"#utility.yul\":293:305   */\n  revert\n    /* \"#utility.yul\":262:264   */\ntag_36:\n    /* \"#utility.yul\":316:355   */\n  tag_37\n    /* \"#utility.yul\":348:354   */\n  dup5\n    /* \"#utility.yul\":343:346   */\n  dup3\n    /* \"#utility.yul\":338:341   */\n  dup6\n    /* \"#utility.yul\":316:355   */\n  tag_38\n  jump\t// in\ntag_37:\n    /* \"#utility.yul\":102:361   */\n  pop\n  swap4\n  swap3\n  pop\n  pop\n  pop\n  jump\t// out\n    /* \"#utility.yul\":381:669   */\ntag_39:\n  0x00\n    /* \"#utility.yul\":497:500   */\n  dup3\n    /* \"#utility.yul\":490:494   */\n  0x1f\n    /* \"#utility.yul\":482:488   */\n  dup4\n    /* \"#utility.yul\":478:495   */\n  add\n    /* \"#utility.yul\":474:501   */\n  slt\n    /* \"#utility.yul\":464:466   */\n  tag_41\n  jumpi\n    /* \"#utility.yul\":515:516   */\n  0x00\n    /* \"#utility.yul\":512:513   */\n  dup1\n    /* \"#utility.yul\":505:517   */\n  revert\n    /* \"#utility.yul\":464:466   */\ntag_41:\n    /* \"#utility.yul\":548:554   */\n  dup2\n    /* \"#utility.yul\":542:555   */\n  mload\n    /* \"#utility.yul\":573:663   */\n  tag_42\n    /* \"#utility.yul\":659:662   */\n  dup5\n    /* \"#utility.yul\":651:657   */\n  dup3\n    /* \"#utility.yul\":644:648   */\n  0x20\n    /* \"#utility.yul\":636:642   */\n  dup7\n    /* \"#utility.yul\":632:649   */\n  add\n    /* \"#utility.yul\":573:663   */\n  tag_30\n  jump\t// in\ntag_42:\n    /* \"#utility.yul\":564:663   */\n  swap2\n  pop\n    /* \"#utility.yul\":454:669   */\n  pop\n  swap3\n  swap2\n  pop\n  pop\n  jump\t// out\n    /* \"#utility.yul\":675:1327   */\ntag_3:\n  0x00\n  dup1\n    /* \"#utility.yul\":831:833   */\n  0x40\n    /* \"#utility.yul\":819:828   */\n  dup4\n    /* \"#utility.yul\":810:817   */\n  dup6\n    /* \"#utility.yul\":806:829   */\n  sub\n    /* \"#utility.yul\":802:834   */\n  slt\n    /* \"#utility.yul\":799:801   */\n  iszero\n  tag_44\n  jumpi\n    /* \"#utility.yul\":847:848   */\n  0x00\n    /* \"#utility.yul\":844:845   */\n  dup1\n    /* \"#utility.yul\":837:849   */\n  revert\n    /* \"#utility.yul\":799:801   */\ntag_44:\n    /* \"#utility.yul\":911:912   */\n  0x00\n    /* \"#utility.yul\":900:909   */\n  dup4\n    /* \"#utility.yul\":896:913   */\n  add\n    /* \"#utility.yul\":890:914   */\n  mload\n    /* \"#utility.yul\":941:959   */\n  0xffffffffffffffff\n    /* \"#utility.yul\":933:939   */\n  dup2\n    /* \"#utility.yul\":930:960   */\n  gt\n    /* \"#utility.yul\":927:929   */\n  iszero\n  tag_45\n  jumpi\n    /* \"#utility.yul\":973:974   */\n  0x00\n    /* \"#utility.yul\":970:971   */\n  dup1\n    /* \"#utility.yul\":963:975   */\n  revert\n    /* \"#utility.yul\":927:929   */\ntag_45:\n    /* \"#utility.yul\":1001:1075   */\n  tag_46\n    /* \"#utility.yul\":1067:1074   */\n  dup6\n    /* \"#utility.yul\":1058:1064   */\n  dup3\n    /* \"#utility.yul\":1047:1056   */\n  dup7\n    /* \"#utility.yul\":1043:1065   */\n  add\n    /* \"#utility.yul\":1001:1075   */\n  tag_39\n  jump\t// in\ntag_46:\n    /* \"#utility.yul\":991:1075   */\n  swap3\n  pop\n    /* \"#utility.yul\":861:1085   */\n  pop\n    /* \"#utility.yul\":1145:1147   */\n  0x20\n    /* \"#utility.yul\":1134:1143   */\n  dup4\n    /* \"#utility.yul\":1130:1148   */\n  add\n    /* \"#utility.yul\":1124:1149   */\n  mload\n    /* \"#utility.yul\":1176:1194   */\n  0xffffffffffffffff\n    /* \"#utility.yul\":1168:1174   */\n  dup2\n    /* \"#utility.yul\":1165:1195   */\n  gt\n    /* \"#utility.yul\":1162:1164   */\n  iszero\n  tag_47\n  jumpi\n    /* \"#utility.yul\":1208:1209   */\n  0x00\n    /* \"#utility.yul\":1205:1206   */\n  dup1\n    /* \"#utility.yul\":1198:1210   */\n  revert\n    /* \"#utility.yul\":1162:1164   */\ntag_47:\n    /* \"#utility.yul\":1236:1310   */\n  tag_48\n    /* \"#utility.yul\":1302:1309   */\n  dup6\n    /* \"#utility.yul\":1293:1299   */\n  dup3\n    /* \"#utility.yul\":1282:1291   */\n  dup7\n    /* \"#utility.yul\":1278:1300   */\n  add\n    /* \"#utility.yul\":1236:1310   */\n  tag_39\n  jump\t// in\ntag_48:\n    /* \"#utility.yul\":1226:1310   */\n  swap2\n  pop\n    /* \"#utility.yul\":1095:1320   */\n  pop\n    /* \"#utility.yul\":789:1327   */\n  swap3\n  pop\n  swap3\n  swap1\n  pop\n  jump\t// out\n    /* \"#utility.yul\":1333:1699   */\ntag_49:\n  0x00\n    /* \"#utility.yul\":1496:1563   */\n  tag_51\n    /* \"#utility.yul\":1560:1562   */\n  0x1c\n    /* \"#utility.yul\":1555:1558   */\n  dup4\n    /* \"#utility.yul\":1496:1563   */\n  tag_52\n  jump\t// in\ntag_51:\n    /* \"#utility.yul\":1489:1563   */\n  swap2\n  pop\n    /* \"#utility.yul\":1572:1665   */\n  tag_53\n    /* \"#utility.yul\":1661:1664   */\n  dup3\n    /* \"#utility.yul\":1572:1665   */\n  tag_54\n  jump\t// in\ntag_53:\n    /* \"#utility.yul\":1690:1692   */\n  0x20\n    /* \"#utility.yul\":1685:1688   */\n  dup3\n    /* \"#utility.yul\":1681:1693   */\n  add\n    /* \"#utility.yul\":1674:1693   */\n  swap1\n  pop\n    /* \"#utility.yul\":1479:1699   */\n  swap2\n  swap1\n  pop\n  jump\t// out\n    /* \"#utility.yul\":1705:2124   */\ntag_17:\n  0x00\n    /* \"#utility.yul\":1909:1911   */\n  0x20\n    /* \"#utility.yul\":1898:1907   */\n  dup3\n    /* \"#utility.yul\":1894:1912   */\n  add\n    /* \"#utility.yul\":1886:1912   */\n  swap1\n  pop\n    /* \"#utility.yul\":1958:1967   */\n  dup2\n    /* \"#utility.yul\":1952:1956   */\n  dup2\n    /* \"#utility.yul\":1948:1968   */\n  sub\n    /* \"#utility.yul\":1944:1945   */\n  0x00\n    /* \"#utility.yul\":1933:1942   */\n  dup4\n    /* \"#utility.yul\":1929:1946   */\n  add\n    /* \"#utility.yul\":1922:1969   */\n  mstore\n    /* \"#utility.yul\":1986:2117   */\n  tag_56\n    /* \"#utility.yul\":2112:2116   */\n  dup2\n    /* \"#utility.yul\":1986:2117   */\n  tag_49\n  jump\t// in\ntag_56:\n    /* \"#utility.yul\":1978:2117   */\n  swap1\n  pop\n    /* \"#utility.yul\":1876:2124   */\n  swap2\n  swap1\n  pop\n  jump\t// out\n    /* \"#utility.yul\":2130:2259   */\ntag_35:\n  0x00\n    /* \"#utility.yul\":2191:2211   */\n  tag_58\n  tag_59\n  jump\t// in\ntag_58:\n    /* \"#utility.yul\":2181:2211   */\n  swap1\n  pop\n    /* \"#utility.yul\":2220:2253   */\n  tag_60\n    /* \"#utility.yul\":2248:2252   */\n  dup3\n    /* \"#utility.yul\":2240:2246   */\n  dup3\n    /* \"#utility.yul\":2220:2253   */\n  tag_61\n  jump\t// in\ntag_60:\n    /* \"#utility.yul\":2171:2259   */\n  swap2\n  swap1\n  pop\n  jump\t// out\n    /* \"#utility.yul\":2265:2340   */\ntag_59:\n  0x00\n    /* \"#utility.yul\":2331:2333   */\n  0x40\n    /* \"#utility.yul\":2325:2334   */\n  mload\n    /* \"#utility.yul\":2315:2334   */\n  swap1\n  pop\n    /* \"#utility.yul\":2305:2340   */\n  swap1\n  jump\t// out\n    /* \"#utility.yul\":2346:2654   */\ntag_34:\n  0x00\n    /* \"#utility.yul\":2498:2516   */\n  0xffffffffffffffff\n    /* \"#utility.yul\":2490:2496   */\n  dup3\n    /* \"#utility.yul\":2487:2517   */\n  gt\n    /* \"#utility.yul\":2484:2486   */\n  iszero\n  tag_64\n  jumpi\n    /* \"#utility.yul\":2520:2538   */\n  tag_65\n  tag_66\n  jump\t// in\ntag_65:\n    /* \"#utility.yul\":2484:2486   */\ntag_64:\n    /* \"#utility.yul\":2558:2587   */\n  tag_67\n    /* \"#utility.yul\":2580:2586   */\n  dup3\n    /* \"#utility.yul\":2558:2587   */\n  tag_68\n  jump\t// in\ntag_67:\n    /* \"#utility.yul\":2550:2587   */\n  swap1\n  pop\n    /* \"#utility.yul\":2642:2646   */\n  0x20\n    /* \"#utility.yul\":2636:2640   */\n  dup2\n    /* \"#utility.yul\":2632:2647   */\n  add\n    /* \"#utility.yul\":2624:2647   */\n  swap1\n  pop\n    /* \"#utility.yul\":2413:2654   */\n  swap2\n  swap1\n  pop\n  jump\t// out\n    /* \"#utility.yul\":2660:2829   */\ntag_52:\n  0x00\n    /* \"#utility.yul\":2778:2784   */\n  dup3\n    /* \"#utility.yul\":2773:2776   */\n  dup3\n    /* \"#utility.yul\":2766:2785   */\n  mstore\n    /* \"#utility.yul\":2818:2822   */\n  0x20\n    /* \"#utility.yul\":2813:2816   */\n  dup3\n    /* \"#utility.yul\":2809:2823   */\n  add\n    /* \"#utility.yul\":2794:2823   */\n  swap1\n  pop\n    /* \"#utility.yul\":2756:2829   */\n  swap3\n  swap2\n  pop\n  pop\n  jump\t// out\n    /* \"#utility.yul\":2835:3142   */\ntag_38:\n    /* \"#utility.yul\":2903:2904   */\n  0x00\n    /* \"#utility.yul\":2913:3026   */\ntag_71:\n    /* \"#utility.yul\":2927:2933   */\n  dup4\n    /* \"#utility.yul\":2924:2925   */\n  dup2\n    /* \"#utility.yul\":2921:2934   */\n  lt\n    /* \"#utility.yul\":2913:3026   */\n  iszero\n  tag_73\n  jumpi\n    /* \"#utility.yul\":3012:3013   */\n  dup1\n    /* \"#utility.yul\":3007:3010   */\n  dup3\n    /* \"#utility.yul\":3003:3014   */\n  add\n    /* \"#utility.yul\":2997:3015   */\n  mload\n    /* \"#utility.yul\":2993:2994   */\n  dup2\n    /* \"#utility.yul\":2988:2991   */\n  dup5\n    /* \"#utility.yul\":2984:2995   */\n  add\n    /* \"#utility.yul\":2977:3016   */\n  mstore\n    /* \"#utility.yul\":2949:2951   */\n  0x20\n    /* \"#utility.yul\":2946:2947   */\n  dup2\n    /* \"#utility.yul\":2942:2952   */\n  add\n    /* \"#utility.yul\":2937:2952   */\n  swap1\n  pop\n    /* \"#utility.yul\":2913:3026   */\n  jump(tag_71)\ntag_73:\n    /* \"#utility.yul\":3044:3050   */\n  dup4\n    /* \"#utility.yul\":3041:3042   */\n  dup2\n    /* \"#utility.yul\":3038:3051   */\n  gt\n    /* \"#utility.yul\":3035:3037   */\n  iszero\n  tag_74\n  jumpi\n    /* \"#utility.yul\":3124:3125   */\n  0x00\n    /* \"#utility.yul\":3115:3121   */\n  dup5\n    /* \"#utility.yul\":3110:3113   */\n  dup5\n    /* \"#utility.yul\":3106:3122   */\n  add\n    /* \"#utility.yul\":3099:3126   */\n  mstore\n    /* \"#utility.yul\":3035:3037   */\ntag_74:\n    /* \"#utility.yul\":2884:3142   */\n  pop\n  pop\n  pop\n  pop\n  jump\t// out\n    /* \"#utility.yul\":3148:3468   */\ntag_19:\n  0x00\n    /* \"#utility.yul\":3229:3230   */\n  0x02\n    /* \"#utility.yul\":3223:3227   */\n  dup3\n    /* \"#utility.yul\":3219:3231   */\n  div\n    /* \"#utility.yul\":3209:3231   */\n  swap1\n  pop\n    /* \"#utility.yul\":3276:3277   */\n  0x01\n    /* \"#utility.yul\":3270:3274   */\n  dup3\n    /* \"#utility.yul\":3266:3278   */\n  and\n    /* \"#utility.yul\":3297:3315   */\n  dup1\n    /* \"#utility.yul\":3287:3289   */\n  tag_76\n  jumpi\n    /* \"#utility.yul\":3353:3357   */\n  0x7f\n    /* \"#utility.yul\":3345:3351   */\n  dup3\n    /* \"#utility.yul\":3341:3358   */\n  and\n    /* \"#utility.yul\":3331:3358   */\n  swap2\n  pop\n    /* \"#utility.yul\":3287:3289   */\ntag_76:\n    /* \"#utility.yul\":3415:3417   */\n  0x20\n    /* \"#utility.yul\":3407:3413   */\n  dup3\n    /* \"#utility.yul\":3404:3418   */\n  lt\n    /* \"#utility.yul\":3384:3402   */\n  dup2\n    /* \"#utility.yul\":3381:3419   */\n  eq\n    /* \"#utility.yul\":3378:3380   */\n  iszero\n  tag_77\n  jumpi\n    /* \"#utility.yul\":3434:3452   */\n  tag_78\n  tag_79\n  jump\t// in\ntag_78:\n    /* \"#utility.yul\":3378:3380   */\ntag_77:\n    /* \"#utility.yul\":3199:3468   */\n  pop\n  swap2\n  swap1\n  pop\n  jump\t// out\n    /* \"#utility.yul\":3474:3755   */\ntag_61:\n    /* \"#utility.yul\":3557:3584   */\n  tag_81\n    /* \"#utility.yul\":3579:3583   */\n  dup3\n    /* \"#utility.yul\":3557:3584   */\n  tag_68\n  jump\t// in\ntag_81:\n    /* \"#utility.yul\":3549:3555   */\n  dup2\n    /* \"#utility.yul\":3545:3585   */\n  add\n    /* \"#utility.yul\":3687:3693   */\n  dup2\n    /* \"#utility.yul\":3675:3685   */\n  dup2\n    /* \"#utility.yul\":3672:3694   */\n  lt\n    /* \"#utility.yul\":3651:3669   */\n  0xffffffffffffffff\n    /* \"#utility.yul\":3639:3649   */\n  dup3\n    /* \"#utility.yul\":3636:3670   */\n  gt\n    /* \"#utility.yul\":3633:3695   */\n  or\n    /* \"#utility.yul\":3630:3632   */\n  iszero\n  tag_82\n  jumpi\n    /* \"#utility.yul\":3698:3716   */\n  tag_83\n  tag_66\n  jump\t// in\ntag_83:\n    /* \"#utility.yul\":3630:3632   */\ntag_82:\n    /* \"#utility.yul\":3738:3748   */\n  dup1\n    /* \"#utility.yul\":3734:3736   */\n  0x40\n    /* \"#utility.yul\":3727:3749   */\n  mstore\n    /* \"#utility.yul\":3517:3755   */\n  pop\n  pop\n  pop\n  jump\t// out\n    /* \"#utility.yul\":3761:3941   */\ntag_79:\n    /* \"#utility.yul\":3809:3886   */\n  0x4e487b7100000000000000000000000000000000000000000000000000000000\n    /* \"#utility.yul\":3806:3807   */\n  0x00\n    /* \"#utility.yul\":3799:3887   */\n  mstore\n    /* \"#utility.yul\":3906:3910   */\n  0x22\n    /* \"#utility.yul\":3903:3904   */\n  0x04\n    /* \"#utility.yul\":3896:3911   */\n  mstore\n    /* \"#utility.yul\":3930:3934   */\n  0x24\n    /* \"#utility.yul\":3927:3928   */\n  0x00\n    /* \"#utility.yul\":3920:3935   */\n  revert\n    /* \"#utility.yul\":3947:4127   */\ntag_66:\n    /* \"#utility.yul\":3995:4072   */\n  0x4e487b7100000000000000000000000000000000000000000000000000000000\n    /* \"#utility.yul\":3992:3993   */\n  0x00\n    /* \"#utility.yul\":3985:4073   */\n  mstore\n    /* \"#utility.yul\":4092:4096   */\n  0x41\n    /* \"#utility.yul\":4089:4090   */\n  0x04\n    /* \"#utility.yul\":4082:4097   */\n  mstore\n    /* \"#utility.yul\":4116:4120   */\n  0x24\n    /* \"#utility.yul\":4113:4114   */\n  0x00\n    /* \"#utility.yul\":4106:4121   */\n  revert\n    /* \"#utility.yul\":4133:4235   */\ntag_68:\n  0x00\n    /* \"#utility.yul\":4225:4227   */\n  0x1f\n    /* \"#utility.yul\":4221:4228   */\n  not\n    /* \"#utility.yul\":4216:4218   */\n  0x1f\n    /* \"#utility.yul\":4209:4214   */\n  dup4\n    /* \"#utility.yul\":4205:4219   */\n  add\n    /* \"#utility.yul\":4201:4229   */\n  and\n    /* \"#utility.yul\":4191:4229   */\n  swap1\n  pop\n    /* \"#utility.yul\":4181:4235   */\n  swap2\n  swap1\n  pop\n  jump\t// out\n    /* \"#utility.yul\":4241:4419   */\ntag_54:\n    /* \"#utility.yul\":4381:4411   */\n  0x4552433136353a20696e76616c696420696e7465726661636520696400000000\n    /* \"#utility.yul\":4377:4378   */\n  0x00\n    /* \"#utility.yul\":4369:4375   */\n  dup3\n    /* \"#utility.yul\":4365:4379   */\n  add\n    /* \"#utility.yul\":4358:4412   */\n  mstore\n    /* \"#utility.yul\":4347:4419   */\n  pop\n  jump\t// out\n    /* \"contracts/ERC721.sol\":581:14723  contract ERC721 is Context, ERC165, IERC721, IERC721Metadata {\r... */\ntag_13:\n  dataSize(sub_0)\n  dup1\n  dataOffset(sub_0)\n  0x00\n  codecopy\n  0x00\n  return\nstop\n\nsub_0: assembly {\n        /* \"contracts/ERC721.sol\":581:14723  contract ERC721 is Context, ERC165, IERC721, IERC721Metadata {\r... */\n      mstore(0x40, 0x80)\n      callvalue\n      dup1\n      iszero\n      tag_1\n      jumpi\n      0x00\n      dup1\n      revert\n    tag_1:\n      pop\n      jumpi(tag_2, lt(calldatasize, 0x04))\n      shr(0xe0, calldataload(0x00))\n      dup1\n      0x70a08231\n      gt\n      tag_17\n      jumpi\n      dup1\n      0xb3e1c718\n      gt\n      tag_18\n      jumpi\n      dup1\n      0xb3e1c718\n      eq\n      tag_13\n      jumpi\n      dup1\n      0xb88d4fde\n      eq\n      tag_14\n      jumpi\n      dup1\n      0xc87b56dd\n      eq\n      tag_15\n      jumpi\n      dup1\n      0xe985e9c5\n      eq\n      tag_16\n      jumpi\n      jump(tag_2)\n    tag_18:\n      dup1\n      0x70a08231\n      eq\n      tag_10\n      jumpi\n      dup1\n      0x95d89b41\n      eq\n      tag_11\n      jumpi\n      dup1\n      0xa22cb465\n      eq\n      tag_12\n      jumpi\n      jump(tag_2)\n    tag_17:\n      dup1\n      0x095ea7b3\n      gt\n      tag_19\n      jumpi\n      dup1\n      0x095ea7b3\n      eq\n      tag_6\n      jumpi\n      dup1\n      0x23b872dd\n      eq\n      tag_7\n      jumpi\n      dup1\n      0x42842e0e\n      eq\n      tag_8\n      jumpi\n      dup1\n      0x6352211e\n      eq\n      tag_9\n      jumpi\n      jump(tag_2)\n    tag_19:\n      dup1\n      0x01ffc9a7\n      eq\n      tag_3\n      jumpi\n      dup1\n      0x06fdde03\n      eq\n      tag_4\n      jumpi\n      dup1\n      0x081812fc\n      eq\n      tag_5\n      jumpi\n    tag_2:\n      0x00\n      dup1\n      revert\n        /* \"contracts/ERC721.sol\":1596:1901  function supportsInterface(bytes4 interfaceId) public view virtual override(ERC165, IERC165) returns (bool) {\r... */\n    tag_3:\n      tag_20\n      0x04\n      dup1\n      calldatasize\n      sub\n      dup2\n      add\n      swap1\n      tag_21\n      swap2\n      swap1\n      tag_22\n      jump\t// in\n    tag_21:\n      tag_23\n      jump\t// in\n    tag_20:\n      mload(0x40)\n      tag_24\n      swap2\n      swap1\n      tag_25\n      jump\t// in\n    tag_24:\n      mload(0x40)\n      dup1\n      swap2\n      sub\n      swap1\n      return\n        /* \"contracts/ERC721.sol\":2541:2641  function name() public view virtual override returns (string memory) {\r... */\n    tag_4:\n      tag_26\n      tag_27\n      jump\t// in\n    tag_26:\n      mload(0x40)\n      tag_28\n      swap2\n      swap1\n      tag_29\n      jump\t// in\n    tag_28:\n      mload(0x40)\n      dup1\n      swap2\n      sub\n      swap1\n      return\n        /* \"contracts/ERC721.sol\":4119:4340  function getApproved(uint256 tokenId) public view virtual override returns (address) {\r... */\n    tag_5:\n      tag_30\n      0x04\n      dup1\n      calldatasize\n      sub\n      dup2\n      add\n      swap1\n      tag_31\n      swap2\n      swap1\n      tag_32\n      jump\t// in\n    tag_31:\n      tag_33\n      jump\t// in\n    tag_30:\n      mload(0x40)\n      tag_34\n      swap2\n      swap1\n      tag_35\n      jump\t// in\n    tag_34:\n      mload(0x40)\n      dup1\n      swap2\n      sub\n      swap1\n      return\n        /* \"contracts/ERC721.sol\":3642:4053  function approve(address to, uint256 tokenId) public virtual override {\r... */\n    tag_6:\n      tag_36\n      0x04\n      dup1\n      calldatasize\n      sub\n      dup2\n      add\n      swap1\n      tag_37\n      swap2\n      swap1\n      tag_38\n      jump\t// in\n    tag_37:\n      tag_39\n      jump\t// in\n    tag_36:\n      stop\n        /* \"contracts/ERC721.sol\":4869:5208  function transferFrom(\r... */\n    tag_7:\n      tag_40\n      0x04\n      dup1\n      calldatasize\n      sub\n      dup2\n      add\n      swap1\n      tag_41\n      swap2\n      swap1\n      tag_42\n      jump\t// in\n    tag_41:\n      tag_43\n      jump\t// in\n    tag_40:\n      stop\n        /* \"contracts/ERC721.sol\":5279:5464  function safeTransferFrom(\r... */\n    tag_8:\n      tag_44\n      0x04\n      dup1\n      calldatasize\n      sub\n      dup2\n      add\n      swap1\n      tag_45\n      swap2\n      swap1\n      tag_42\n      jump\t// in\n    tag_45:\n      tag_46\n      jump\t// in\n    tag_44:\n      stop\n        /* \"contracts/ERC721.sol\":2235:2474  function ownerOf(uint256 tokenId) public view virtual override returns (address) {\r... */\n    tag_9:\n      tag_47\n      0x04\n      dup1\n      calldatasize\n      sub\n      dup2\n      add\n      swap1\n      tag_48\n      swap2\n      swap1\n      tag_32\n      jump\t// in\n    tag_48:\n      tag_49\n      jump\t// in\n    tag_47:\n      mload(0x40)\n      tag_50\n      swap2\n      swap1\n      tag_35\n      jump\t// in\n    tag_50:\n      mload(0x40)\n      dup1\n      swap2\n      sub\n      swap1\n      return\n        /* \"contracts/ERC721.sol\":1965:2173  function balanceOf(address owner) public view virtual override returns (uint256) {\r... */\n    tag_10:\n      tag_51\n      0x04\n      dup1\n      calldatasize\n      sub\n      dup2\n      add\n      swap1\n      tag_52\n      swap2\n      swap1\n      tag_53\n      jump\t// in\n    tag_52:\n      tag_54\n      jump\t// in\n    tag_51:\n      mload(0x40)\n      tag_55\n      swap2\n      swap1\n      tag_56\n      jump\t// in\n    tag_55:\n      mload(0x40)\n      dup1\n      swap2\n      sub\n      swap1\n      return\n        /* \"contracts/ERC721.sol\":2710:2814  function symbol() public view virtual override returns (string memory) {\r... */\n    tag_11:\n      tag_57\n      tag_58\n      jump\t// in\n    tag_57:\n      mload(0x40)\n      tag_59\n      swap2\n      swap1\n      tag_29\n      jump\t// in\n    tag_59:\n      mload(0x40)\n      dup1\n      swap2\n      sub\n      swap1\n      return\n        /* \"contracts/ERC721.sol\":4412:4567  function setApprovalForAll(address operator, bool approved) public virtual override {\r... */\n    tag_12:\n      tag_60\n      0x04\n      dup1\n      calldatasize\n      sub\n      dup2\n      add\n      swap1\n      tag_61\n      swap2\n      swap1\n      tag_62\n      jump\t// in\n    tag_61:\n      tag_63\n      jump\t// in\n    tag_60:\n      stop\n        /* \"contracts/ERC721.sol\":8357:8465  function _safeMint(address to, uint256 tokenId) public virtual {\r... */\n    tag_13:\n      tag_64\n      0x04\n      dup1\n      calldatasize\n      sub\n      dup2\n      add\n      swap1\n      tag_65\n      swap2\n      swap1\n      tag_38\n      jump\t// in\n    tag_65:\n      tag_66\n      jump\t// in\n    tag_64:\n      stop\n        /* \"contracts/ERC721.sol\":5535:5863  function safeTransferFrom(\r... */\n    tag_14:\n      tag_67\n      0x04\n      dup1\n      calldatasize\n      sub\n      dup2\n      add\n      swap1\n      tag_68\n      swap2\n      swap1\n      tag_69\n      jump\t// in\n    tag_68:\n      tag_70\n      jump\t// in\n    tag_67:\n      stop\n        /* \"contracts/ERC721.sol\":2885:3219  function tokenURI(uint256 tokenId) public view virtual override returns (string memory) {\r... */\n    tag_15:\n      tag_71\n      0x04\n      dup1\n      calldatasize\n      sub\n      dup2\n      add\n      swap1\n      tag_72\n      swap2\n      swap1\n      tag_32\n      jump\t// in\n    tag_72:\n      tag_73\n      jump\t// in\n    tag_71:\n      mload(0x40)\n      tag_74\n      swap2\n      swap1\n      tag_29\n      jump\t// in\n    tag_74:\n      mload(0x40)\n      dup1\n      swap2\n      sub\n      swap1\n      return\n        /* \"contracts/ERC721.sol\":4638:4802  function isApprovedForAll(address owner, address operator) public view virtual override returns (bool) {\r... */\n    tag_16:\n      tag_75\n      0x04\n      dup1\n      calldatasize\n      sub\n      dup2\n      add\n      swap1\n      tag_76\n      swap2\n      swap1\n      tag_77\n      jump\t// in\n    tag_76:\n      tag_78\n      jump\t// in\n    tag_75:\n      mload(0x40)\n      tag_79\n      swap2\n      swap1\n      tag_25\n      jump\t// in\n    tag_79:\n      mload(0x40)\n      dup1\n      swap2\n      sub\n      swap1\n      return\n        /* \"contracts/ERC721.sol\":1596:1901  function supportsInterface(bytes4 interfaceId) public view virtual override(ERC165, IERC165) returns (bool) {\r... */\n    tag_23:\n        /* \"contracts/ERC721.sol\":1698:1702  bool */\n      0x00\n        /* \"contracts/ERC721.sol\":1750:1775  type(IERC721).interfaceId */\n      0x80ac58cd00000000000000000000000000000000000000000000000000000000\n        /* \"contracts/ERC721.sol\":1735:1775  interfaceId == type(IERC721).interfaceId */\n      not(0xffffffffffffffffffffffffffffffffffffffffffffffffffffffff)\n      and\n        /* \"contracts/ERC721.sol\":1735:1746  interfaceId */\n      dup3\n        /* \"contracts/ERC721.sol\":1735:1775  interfaceId == type(IERC721).interfaceId */\n      not(0xffffffffffffffffffffffffffffffffffffffffffffffffffffffff)\n      and\n      eq\n        /* \"contracts/ERC721.sol\":1735:1840  interfaceId == type(IERC721).interfaceId ||\r... */\n      dup1\n      tag_81\n      jumpi\n      pop\n        /* \"contracts/ERC721.sol\":1807:1840  type(IERC721Metadata).interfaceId */\n      0x5b5e139f00000000000000000000000000000000000000000000000000000000\n        /* \"contracts/ERC721.sol\":1792:1840  interfaceId == type(IERC721Metadata).interfaceId */\n      not(0xffffffffffffffffffffffffffffffffffffffffffffffffffffffff)\n      and\n        /* \"contracts/ERC721.sol\":1792:1803  interfaceId */\n      dup3\n        /* \"contracts/ERC721.sol\":1792:1840  interfaceId == type(IERC721Metadata).interfaceId */\n      not(0xffffffffffffffffffffffffffffffffffffffffffffffffffffffff)\n      and\n      eq\n        /* \"contracts/ERC721.sol\":1735:1840  interfaceId == type(IERC721).interfaceId ||\r... */\n    tag_81:\n        /* \"contracts/ERC721.sol\":1735:1893  interfaceId == type(IERC721).interfaceId ||\r... */\n      dup1\n      tag_82\n      jumpi\n      pop\n        /* \"contracts/ERC721.sol\":1857:1893  super.supportsInterface(interfaceId) */\n      tag_83\n        /* \"contracts/ERC721.sol\":1881:1892  interfaceId */\n      dup3\n        /* \"contracts/ERC721.sol\":1857:1880  super.supportsInterface */\n      tag_84\n        /* \"contracts/ERC721.sol\":1857:1893  super.supportsInterface(interfaceId) */\n      jump\t// in\n    tag_83:\n        /* \"contracts/ERC721.sol\":1735:1893  interfaceId == type(IERC721).interfaceId ||\r... */\n    tag_82:\n        /* \"contracts/ERC721.sol\":1715:1893  return\r... */\n      swap1\n      pop\n        /* \"contracts/ERC721.sol\":1596:1901  function supportsInterface(bytes4 interfaceId) public view virtual override(ERC165, IERC165) returns (bool) {\r... */\n      swap2\n      swap1\n      pop\n      jump\t// out\n        /* \"contracts/ERC721.sol\":2541:2641  function name() public view virtual override returns (string memory) {\r... */\n    tag_27:\n        /* \"contracts/ERC721.sol\":2595:2608  string memory */\n      0x60\n        /* \"contracts/ERC721.sol\":2628:2633  _name */\n      0x01\n        /* \"contracts/ERC721.sol\":2621:2633  return _name */\n      dup1\n      sload\n      tag_86\n      swap1\n      tag_87\n      jump\t// in\n    tag_86:\n      dup1\n      0x1f\n      add\n      0x20\n      dup1\n      swap2\n      div\n      mul\n      0x20\n      add\n      mload(0x40)\n      swap1\n      dup2\n      add\n      0x40\n      mstore\n      dup1\n      swap3\n      swap2\n      swap1\n      dup2\n      dup2\n      mstore\n      0x20\n      add\n      dup3\n      dup1\n      sload\n      tag_88\n      swap1\n      tag_87\n      jump\t// in\n    tag_88:\n      dup1\n      iszero\n      tag_89\n      jumpi\n      dup1\n      0x1f\n      lt\n      tag_90\n      jumpi\n      0x0100\n      dup1\n      dup4\n      sload\n      div\n      mul\n      dup4\n      mstore\n      swap2\n      0x20\n      add\n      swap2\n      jump(tag_89)\n    tag_90:\n      dup3\n      add\n      swap2\n      swap1\n      0x00\n      mstore\n      keccak256(0x00, 0x20)\n      swap1\n    tag_91:\n      dup2\n      sload\n      dup2\n      mstore\n      swap1\n      0x01\n      add\n      swap1\n      0x20\n      add\n      dup1\n      dup4\n      gt\n      tag_91\n      jumpi\n      dup3\n      swap1\n      sub\n      0x1f\n      and\n      dup3\n      add\n      swap2\n    tag_89:\n      pop\n      pop\n      pop\n      pop\n      pop\n      swap1\n      pop\n        /* \"contracts/ERC721.sol\":2541:2641  function name() public view virtual override returns (string memory) {\r... */\n      swap1\n      jump\t// out\n        /* \"contracts/ERC721.sol\":4119:4340  function getApproved(uint256 tokenId) public view virtual override returns (address) {\r... */\n    tag_33:\n        /* \"contracts/ERC721.sol\":4195:4202  address */\n      0x00\n        /* \"contracts/ERC721.sol\":4223:4239  _exists(tokenId) */\n      tag_93\n        /* \"contracts/ERC721.sol\":4231:4238  tokenId */\n      dup3\n        /* \"contracts/ERC721.sol\":4223:4230  _exists */\n      tag_94\n        /* \"contracts/ERC721.sol\":4223:4239  _exists(tokenId) */\n      jump\t// in\n    tag_93:\n        /* \"contracts/ERC721.sol\":4215:4288  require(_exists(tokenId), \"ERC721: approved query for nonexistent token\") */\n      tag_95\n      jumpi\n      mload(0x40)\n      0x08c379a000000000000000000000000000000000000000000000000000000000\n      dup2\n      mstore\n      0x04\n      add\n      tag_96\n      swap1\n      tag_97\n      jump\t// in\n    tag_96:\n      mload(0x40)\n      dup1\n      swap2\n      sub\n      swap1\n      revert\n    tag_95:\n        /* \"contracts/ERC721.sol\":4308:4323  _tokenApprovals */\n      0x05\n        /* \"contracts/ERC721.sol\":4308:4332  _tokenApprovals[tokenId] */\n      0x00\n        /* \"contracts/ERC721.sol\":4324:4331  tokenId */\n      dup4\n        /* \"contracts/ERC721.sol\":4308:4332  _tokenApprovals[tokenId] */\n      dup2\n      mstore\n      0x20\n      add\n      swap1\n      dup2\n      mstore\n      0x20\n      add\n      0x00\n      keccak256\n      0x00\n      swap1\n      sload\n      swap1\n      0x0100\n      exp\n      swap1\n      div\n      0xffffffffffffffffffffffffffffffffffffffff\n      and\n        /* \"contracts/ERC721.sol\":4301:4332  return _tokenApprovals[tokenId] */\n      swap1\n      pop\n        /* \"contracts/ERC721.sol\":4119:4340  function getApproved(uint256 tokenId) public view virtual override returns (address) {\r... */\n      swap2\n      swap1\n      pop\n      jump\t// out\n        /* \"contracts/ERC721.sol\":3642:4053  function approve(address to, uint256 tokenId) public virtual override {\r... */\n    tag_39:\n        /* \"contracts/ERC721.sol\":3723:3736  address owner */\n      0x00\n        /* \"contracts/ERC721.sol\":3739:3762  ERC721.ownerOf(tokenId) */\n      tag_99\n        /* \"contracts/ERC721.sol\":3754:3761  tokenId */\n      dup3\n        /* \"contracts/ERC721.sol\":3739:3753  ERC721.ownerOf */\n      tag_49\n        /* \"contracts/ERC721.sol\":3739:3762  ERC721.ownerOf(tokenId) */\n      jump\t// in\n    tag_99:\n        /* \"contracts/ERC721.sol\":3723:3762  address owner = ERC721.ownerOf(tokenId) */\n      swap1\n      pop\n        /* \"contracts/ERC721.sol\":3787:3792  owner */\n      dup1\n        /* \"contracts/ERC721.sol\":3781:3792  to != owner */\n      0xffffffffffffffffffffffffffffffffffffffff\n      and\n        /* \"contracts/ERC721.sol\":3781:3783  to */\n      dup4\n        /* \"contracts/ERC721.sol\":3781:3792  to != owner */\n      0xffffffffffffffffffffffffffffffffffffffff\n      and\n      eq\n      iszero\n        /* \"contracts/ERC721.sol\":3773:3830  require(to != owner, \"ERC721: approval to current owner\") */\n      tag_100\n      jumpi\n      mload(0x40)\n      0x08c379a000000000000000000000000000000000000000000000000000000000\n      dup2\n      mstore\n      0x04\n      add\n      tag_101\n      swap1\n      tag_102\n      jump\t// in\n    tag_101:\n      mload(0x40)\n      dup1\n      swap2\n      sub\n      swap1\n      revert\n    tag_100:\n        /* \"contracts/ERC721.sol\":3881:3886  owner */\n      dup1\n        /* \"contracts/ERC721.sol\":3865:3886  _msgSender() == owner */\n      0xffffffffffffffffffffffffffffffffffffffff\n      and\n        /* \"contracts/ERC721.sol\":3865:3877  _msgSender() */\n      tag_103\n        /* \"contracts/ERC721.sol\":3865:3875  _msgSender */\n      tag_104\n        /* \"contracts/ERC721.sol\":3865:3877  _msgSender() */\n      jump\t// in\n    tag_103:\n        /* \"contracts/ERC721.sol\":3865:3886  _msgSender() == owner */\n      0xffffffffffffffffffffffffffffffffffffffff\n      and\n      eq\n        /* \"contracts/ERC721.sol\":3865:3927  _msgSender() == owner || isApprovedForAll(owner, _msgSender()) */\n      dup1\n      tag_105\n      jumpi\n      pop\n        /* \"contracts/ERC721.sol\":3890:3927  isApprovedForAll(owner, _msgSender()) */\n      tag_106\n        /* \"contracts/ERC721.sol\":3907:3912  owner */\n      dup2\n        /* \"contracts/ERC721.sol\":3914:3926  _msgSender() */\n      tag_107\n        /* \"contracts/ERC721.sol\":3914:3924  _msgSender */\n      tag_104\n        /* \"contracts/ERC721.sol\":3914:3926  _msgSender() */\n      jump\t// in\n    tag_107:\n        /* \"contracts/ERC721.sol\":3890:3906  isApprovedForAll */\n      tag_78\n        /* \"contracts/ERC721.sol\":3890:3927  isApprovedForAll(owner, _msgSender()) */\n      jump\t// in\n    tag_106:\n        /* \"contracts/ERC721.sol\":3865:3927  _msgSender() == owner || isApprovedForAll(owner, _msgSender()) */\n    tag_105:\n        /* \"contracts/ERC721.sol\":3843:4011  require(\r... */\n      tag_108\n      jumpi\n      mload(0x40)\n      0x08c379a000000000000000000000000000000000000000000000000000000000\n      dup2\n      mstore\n      0x04\n      add\n      tag_109\n      swap1\n      tag_110\n      jump\t// in\n    tag_109:\n      mload(0x40)\n      dup1\n      swap2\n      sub\n      swap1\n      revert\n    tag_108:\n        /* \"contracts/ERC721.sol\":4024:4045  _approve(to, tokenId) */\n      tag_111\n        /* \"contracts/ERC721.sol\":4033:4035  to */\n      dup4\n        /* \"contracts/ERC721.sol\":4037:4044  tokenId */\n      dup4\n        /* \"contracts/ERC721.sol\":4024:4032  _approve */\n      tag_112\n        /* \"contracts/ERC721.sol\":4024:4045  _approve(to, tokenId) */\n      jump\t// in\n    tag_111:\n        /* \"contracts/ERC721.sol\":3642:4053  function approve(address to, uint256 tokenId) public virtual override {\r... */\n      pop\n      pop\n      pop\n      jump\t// out\n        /* \"contracts/ERC721.sol\":4869:5208  function transferFrom(\r... */\n    tag_43:\n        /* \"contracts/ERC721.sol\":5064:5105  _isApprovedOrOwner(_msgSender(), tokenId) */\n      tag_114\n        /* \"contracts/ERC721.sol\":5083:5095  _msgSender() */\n      tag_115\n        /* \"contracts/ERC721.sol\":5083:5093  _msgSender */\n      tag_104\n        /* \"contracts/ERC721.sol\":5083:5095  _msgSender() */\n      jump\t// in\n    tag_115:\n        /* \"contracts/ERC721.sol\":5097:5104  tokenId */\n      dup3\n        /* \"contracts/ERC721.sol\":5064:5082  _isApprovedOrOwner */\n      tag_116\n        /* \"contracts/ERC721.sol\":5064:5105  _isApprovedOrOwner(_msgSender(), tokenId) */\n      jump\t// in\n    tag_114:\n        /* \"contracts/ERC721.sol\":5056:5159  require(_isApprovedOrOwner(_msgSender(), tokenId), \"ERC721: transfer caller is not owner nor approved\") */\n      tag_117\n      jumpi\n      mload(0x40)\n      0x08c379a000000000000000000000000000000000000000000000000000000000\n      dup2\n      mstore\n      0x04\n      add\n      tag_118\n      swap1\n      tag_119\n      jump\t// in\n    tag_118:\n      mload(0x40)\n      dup1\n      swap2\n      sub\n      swap1\n      revert\n    tag_117:\n        /* \"contracts/ERC721.sol\":5172:5200  _transfer(from, to, tokenId) */\n      tag_120\n        /* \"contracts/ERC721.sol\":5182:5186  from */\n      dup4\n        /* \"contracts/ERC721.sol\":5188:5190  to */\n      dup4\n        /* \"contracts/ERC721.sol\":5192:5199  tokenId */\n      dup4\n        /* \"contracts/ERC721.sol\":5172:5181  _transfer */\n      tag_121\n        /* \"contracts/ERC721.sol\":5172:5200  _transfer(from, to, tokenId) */\n      jump\t// in\n    tag_120:\n        /* \"contracts/ERC721.sol\":4869:5208  function transferFrom(\r... */\n      pop\n      pop\n      pop\n      jump\t// out\n        /* \"contracts/ERC721.sol\":5279:5464  function safeTransferFrom(\r... */\n    tag_46:\n        /* \"contracts/ERC721.sol\":5417:5456  safeTransferFrom(from, to, tokenId, \"\") */\n      tag_123\n        /* \"contracts/ERC721.sol\":5434:5438  from */\n      dup4\n        /* \"contracts/ERC721.sol\":5440:5442  to */\n      dup4\n        /* \"contracts/ERC721.sol\":5444:5451  tokenId */\n      dup4\n        /* \"contracts/ERC721.sol\":5417:5456  safeTransferFrom(from, to, tokenId, \"\") */\n      mload(0x40)\n      dup1\n      0x20\n      add\n      0x40\n      mstore\n      dup1\n      0x00\n      dup2\n      mstore\n      pop\n        /* \"contracts/ERC721.sol\":5417:5433  safeTransferFrom */\n      tag_70\n        /* \"contracts/ERC721.sol\":5417:5456  safeTransferFrom(from, to, tokenId, \"\") */\n      jump\t// in\n    tag_123:\n        /* \"contracts/ERC721.sol\":5279:5464  function safeTransferFrom(\r... */\n      pop\n      pop\n      pop\n      jump\t// out\n        /* \"contracts/ERC721.sol\":2235:2474  function ownerOf(uint256 tokenId) public view virtual override returns (address) {\r... */\n    tag_49:\n        /* \"contracts/ERC721.sol\":2307:2314  address */\n      0x00\n        /* \"contracts/ERC721.sol\":2327:2340  address owner */\n      dup1\n        /* \"contracts/ERC721.sol\":2343:2350  _owners */\n      0x03\n        /* \"contracts/ERC721.sol\":2343:2359  _owners[tokenId] */\n      0x00\n        /* \"contracts/ERC721.sol\":2351:2358  tokenId */\n      dup5\n        /* \"contracts/ERC721.sol\":2343:2359  _owners[tokenId] */\n      dup2\n      mstore\n      0x20\n      add\n      swap1\n      dup2\n      mstore\n      0x20\n      add\n      0x00\n      keccak256\n      0x00\n      swap1\n      sload\n      swap1\n      0x0100\n      exp\n      swap1\n      div\n      0xffffffffffffffffffffffffffffffffffffffff\n      and\n        /* \"contracts/ERC721.sol\":2327:2359  address owner = _owners[tokenId] */\n      swap1\n      pop\n        /* \"contracts/ERC721.sol\":2395:2396  0 */\n      0x00\n        /* \"contracts/ERC721.sol\":2378:2397  owner != address(0) */\n      0xffffffffffffffffffffffffffffffffffffffff\n      and\n        /* \"contracts/ERC721.sol\":2378:2383  owner */\n      dup2\n        /* \"contracts/ERC721.sol\":2378:2397  owner != address(0) */\n      0xffffffffffffffffffffffffffffffffffffffff\n      and\n      eq\n      iszero\n        /* \"contracts/ERC721.sol\":2370:2443  require(owner != address(0), \"ERC721: owner query for nonexistent token\") */\n      tag_125\n      jumpi\n      mload(0x40)\n      0x08c379a000000000000000000000000000000000000000000000000000000000\n      dup2\n      mstore\n      0x04\n      add\n      tag_126\n      swap1\n      tag_127\n      jump\t// in\n    tag_126:\n      mload(0x40)\n      dup1\n      swap2\n      sub\n      swap1\n      revert\n    tag_125:\n        /* \"contracts/ERC721.sol\":2461:2466  owner */\n      dup1\n        /* \"contracts/ERC721.sol\":2454:2466  return owner */\n      swap2\n      pop\n      pop\n        /* \"contracts/ERC721.sol\":2235:2474  function ownerOf(uint256 tokenId) public view virtual override returns (address) {\r... */\n      swap2\n      swap1\n      pop\n      jump\t// out\n        /* \"contracts/ERC721.sol\":1965:2173  function balanceOf(address owner) public view virtual override returns (uint256) {\r... */\n    tag_54:\n        /* \"contracts/ERC721.sol\":2037:2044  uint256 */\n      0x00\n        /* \"contracts/ERC721.sol\":2082:2083  0 */\n      dup1\n        /* \"contracts/ERC721.sol\":2065:2084  owner != address(0) */\n      0xffffffffffffffffffffffffffffffffffffffff\n      and\n        /* \"contracts/ERC721.sol\":2065:2070  owner */\n      dup3\n        /* \"contracts/ERC721.sol\":2065:2084  owner != address(0) */\n      0xffffffffffffffffffffffffffffffffffffffff\n      and\n      eq\n      iszero\n        /* \"contracts/ERC721.sol\":2057:2131  require(owner != address(0), \"ERC721: balance query for the zero address\") */\n      tag_129\n      jumpi\n      mload(0x40)\n      0x08c379a000000000000000000000000000000000000000000000000000000000\n      dup2\n      mstore\n      0x04\n      add\n      tag_130\n      swap1\n      tag_131\n      jump\t// in\n    tag_130:\n      mload(0x40)\n      dup1\n      swap2\n      sub\n      swap1\n      revert\n    tag_129:\n        /* \"contracts/ERC721.sol\":2149:2158  _balances */\n      0x04\n        /* \"contracts/ERC721.sol\":2149:2165  _balances[owner] */\n      0x00\n        /* \"contracts/ERC721.sol\":2159:2164  owner */\n      dup4\n        /* \"contracts/ERC721.sol\":2149:2165  _balances[owner] */\n      0xffffffffffffffffffffffffffffffffffffffff\n      and\n      0xffffffffffffffffffffffffffffffffffffffff\n      and\n      dup2\n      mstore\n      0x20\n      add\n      swap1\n      dup2\n      mstore\n      0x20\n      add\n      0x00\n      keccak256\n      sload\n        /* \"contracts/ERC721.sol\":2142:2165  return _balances[owner] */\n      swap1\n      pop\n        /* \"contracts/ERC721.sol\":1965:2173  function balanceOf(address owner) public view virtual override returns (uint256) {\r... */\n      swap2\n      swap1\n      pop\n      jump\t// out\n        /* \"contracts/ERC721.sol\":2710:2814  function symbol() public view virtual override returns (string memory) {\r... */\n    tag_58:\n        /* \"contracts/ERC721.sol\":2766:2779  string memory */\n      0x60\n        /* \"contracts/ERC721.sol\":2799:2806  _symbol */\n      0x02\n        /* \"contracts/ERC721.sol\":2792:2806  return _symbol */\n      dup1\n      sload\n      tag_133\n      swap1\n      tag_87\n      jump\t// in\n    tag_133:\n      dup1\n      0x1f\n      add\n      0x20\n      dup1\n      swap2\n      div\n      mul\n      0x20\n      add\n      mload(0x40)\n      swap1\n      dup2\n      add\n      0x40\n      mstore\n      dup1\n      swap3\n      swap2\n      swap1\n      dup2\n      dup2\n      mstore\n      0x20\n      add\n      dup3\n      dup1\n      sload\n      tag_134\n      swap1\n      tag_87\n      jump\t// in\n    tag_134:\n      dup1\n      iszero\n      tag_135\n      jumpi\n      dup1\n      0x1f\n      lt\n      tag_136\n      jumpi\n      0x0100\n      dup1\n      dup4\n      sload\n      div\n      mul\n      dup4\n      mstore\n      swap2\n      0x20\n      add\n      swap2\n      jump(tag_135)\n    tag_136:\n      dup3\n      add\n      swap2\n      swap1\n      0x00\n      mstore\n      keccak256(0x00, 0x20)\n      swap1\n    tag_137:\n      dup2\n      sload\n      dup2\n      mstore\n      swap1\n      0x01\n      add\n      swap1\n      0x20\n      add\n      dup1\n      dup4\n      gt\n      tag_137\n      jumpi\n      dup3\n      swap1\n      sub\n      0x1f\n      and\n      dup3\n      add\n      swap2\n    tag_135:\n      pop\n      pop\n      pop\n      pop\n      pop\n      swap1\n      pop\n        /* \"contracts/ERC721.sol\":2710:2814  function symbol() public view virtual override returns (string memory) {\r... */\n      swap1\n      jump\t// out\n        /* \"contracts/ERC721.sol\":4412:4567  function setApprovalForAll(address operator, bool approved) public virtual override {\r... */\n    tag_63:\n        /* \"contracts/ERC721.sol\":4507:4559  _setApprovalForAll(_msgSender(), operator, approved) */\n      tag_139\n        /* \"contracts/ERC721.sol\":4526:4538  _msgSender() */\n      tag_140\n        /* \"contracts/ERC721.sol\":4526:4536  _msgSender */\n      tag_104\n        /* \"contracts/ERC721.sol\":4526:4538  _msgSender() */\n      jump\t// in\n    tag_140:\n        /* \"contracts/ERC721.sol\":4540:4548  operator */\n      dup4\n        /* \"contracts/ERC721.sol\":4550:4558  approved */\n      dup4\n        /* \"contracts/ERC721.sol\":4507:4525  _setApprovalForAll */\n      tag_141\n        /* \"contracts/ERC721.sol\":4507:4559  _setApprovalForAll(_msgSender(), operator, approved) */\n      jump\t// in\n    tag_139:\n        /* \"contracts/ERC721.sol\":4412:4567  function setApprovalForAll(address operator, bool approved) public virtual override {\r... */\n      pop\n      pop\n      jump\t// out\n        /* \"contracts/ERC721.sol\":8357:8465  function _safeMint(address to, uint256 tokenId) public virtual {\r... */\n    tag_66:\n        /* \"contracts/ERC721.sol\":8431:8457  _safeMint(to, tokenId, \"\") */\n      tag_143\n        /* \"contracts/ERC721.sol\":8441:8443  to */\n      dup3\n        /* \"contracts/ERC721.sol\":8445:8452  tokenId */\n      dup3\n        /* \"contracts/ERC721.sol\":8431:8457  _safeMint(to, tokenId, \"\") */\n      mload(0x40)\n      dup1\n      0x20\n      add\n      0x40\n      mstore\n      dup1\n      0x00\n      dup2\n      mstore\n      pop\n        /* \"contracts/ERC721.sol\":8431:8440  _safeMint */\n      tag_144\n        /* \"contracts/ERC721.sol\":8431:8457  _safeMint(to, tokenId, \"\") */\n      jump\t// in\n    tag_143:\n        /* \"contracts/ERC721.sol\":8357:8465  function _safeMint(address to, uint256 tokenId) public virtual {\r... */\n      pop\n      pop\n      jump\t// out\n        /* \"contracts/ERC721.sol\":5535:5863  function safeTransferFrom(\r... */\n    tag_70:\n        /* \"contracts/ERC721.sol\":5710:5751  _isApprovedOrOwner(_msgSender(), tokenId) */\n      tag_146\n        /* \"contracts/ERC721.sol\":5729:5741  _msgSender() */\n      tag_147\n        /* \"contracts/ERC721.sol\":5729:5739  _msgSender */\n      tag_104\n        /* \"contracts/ERC721.sol\":5729:5741  _msgSender() */\n      jump\t// in\n    tag_147:\n        /* \"contracts/ERC721.sol\":5743:5750  tokenId */\n      dup4\n        /* \"contracts/ERC721.sol\":5710:5728  _isApprovedOrOwner */\n      tag_116\n        /* \"contracts/ERC721.sol\":5710:5751  _isApprovedOrOwner(_msgSender(), tokenId) */\n      jump\t// in\n    tag_146:\n        /* \"contracts/ERC721.sol\":5702:5805  require(_isApprovedOrOwner(_msgSender(), tokenId), \"ERC721: transfer caller is not owner nor approved\") */\n      tag_148\n      jumpi\n      mload(0x40)\n      0x08c379a000000000000000000000000000000000000000000000000000000000\n      dup2\n      mstore\n      0x04\n      add\n      tag_149\n      swap1\n      tag_119\n      jump\t// in\n    tag_149:\n      mload(0x40)\n      dup1\n      swap2\n      sub\n      swap1\n      revert\n    tag_148:\n        /* \"contracts/ERC721.sol\":5816:5855  _safeTransfer(from, to, tokenId, _data) */\n      tag_150\n        /* \"contracts/ERC721.sol\":5830:5834  from */\n      dup5\n        /* \"contracts/ERC721.sol\":5836:5838  to */\n      dup5\n        /* \"contracts/ERC721.sol\":5840:5847  tokenId */\n      dup5\n        /* \"contracts/ERC721.sol\":5849:5854  _data */\n      dup5\n        /* \"contracts/ERC721.sol\":5816:5829  _safeTransfer */\n      tag_151\n        /* \"contracts/ERC721.sol\":5816:5855  _safeTransfer(from, to, tokenId, _data) */\n      jump\t// in\n    tag_150:\n        /* \"contracts/ERC721.sol\":5535:5863  function safeTransferFrom(\r... */\n      pop\n      pop\n      pop\n      pop\n      jump\t// out\n        /* \"contracts/ERC721.sol\":2885:3219  function tokenURI(uint256 tokenId) public view virtual override returns (string memory) {\r... */\n    tag_73:\n        /* \"contracts/ERC721.sol\":2958:2971  string memory */\n      0x60\n        /* \"contracts/ERC721.sol\":2992:3008  _exists(tokenId) */\n      tag_153\n        /* \"contracts/ERC721.sol\":3000:3007  tokenId */\n      dup3\n        /* \"contracts/ERC721.sol\":2992:2999  _exists */\n      tag_94\n        /* \"contracts/ERC721.sol\":2992:3008  _exists(tokenId) */\n      jump\t// in\n    tag_153:\n        /* \"contracts/ERC721.sol\":2984:3060  require(_exists(tokenId), \"ERC721Metadata: URI query for nonexistent token\") */\n      tag_154\n      jumpi\n      mload(0x40)\n      0x08c379a000000000000000000000000000000000000000000000000000000000\n      dup2\n      mstore\n      0x04\n      add\n      tag_155\n      swap1\n      tag_156\n      jump\t// in\n    tag_155:\n      mload(0x40)\n      dup1\n      swap2\n      sub\n      swap1\n      revert\n    tag_154:\n        /* \"contracts/ERC721.sol\":3073:3094  string memory baseURI */\n      0x00\n        /* \"contracts/ERC721.sol\":3097:3107  _baseURI() */\n      tag_157\n        /* \"contracts/ERC721.sol\":3097:3105  _baseURI */\n      tag_158\n        /* \"contracts/ERC721.sol\":3097:3107  _baseURI() */\n      jump\t// in\n    tag_157:\n        /* \"contracts/ERC721.sol\":3073:3107  string memory baseURI = _baseURI() */\n      swap1\n      pop\n        /* \"contracts/ERC721.sol\":3149:3150  0 */\n      0x00\n        /* \"contracts/ERC721.sol\":3131:3138  baseURI */\n      dup2\n        /* \"contracts/ERC721.sol\":3125:3146  bytes(baseURI).length */\n      mload\n        /* \"contracts/ERC721.sol\":3125:3150  bytes(baseURI).length > 0 */\n      gt\n        /* \"contracts/ERC721.sol\":3125:3211  bytes(baseURI).length > 0 ? string(abi.encodePacked(baseURI, tokenId.toString())) : \"\" */\n      tag_159\n      jumpi\n      mload(0x40)\n      dup1\n      0x20\n      add\n      0x40\n      mstore\n      dup1\n      0x00\n      dup2\n      mstore\n      pop\n      jump(tag_160)\n    tag_159:\n        /* \"contracts/ERC721.sol\":3177:3184  baseURI */\n      dup1\n        /* \"contracts/ERC721.sol\":3186:3204  tokenId.toString() */\n      tag_161\n        /* \"contracts/ERC721.sol\":3186:3193  tokenId */\n      dup5\n        /* \"contracts/ERC721.sol\":3186:3202  tokenId.toString */\n      tag_162\n        /* \"contracts/ERC721.sol\":3186:3204  tokenId.toString() */\n      jump\t// in\n    tag_161:\n        /* \"contracts/ERC721.sol\":3160:3205  abi.encodePacked(baseURI, tokenId.toString()) */\n      add(0x20, mload(0x40))\n      tag_163\n      swap3\n      swap2\n      swap1\n      tag_164\n      jump\t// in\n    tag_163:\n      mload(0x40)\n      0x20\n      dup2\n      dup4\n      sub\n      sub\n      dup2\n      mstore\n      swap1\n      0x40\n      mstore\n        /* \"contracts/ERC721.sol\":3125:3211  bytes(baseURI).length > 0 ? string(abi.encodePacked(baseURI, tokenId.toString())) : \"\" */\n    tag_160:\n        /* \"contracts/ERC721.sol\":3118:3211  return bytes(baseURI).length > 0 ? string(abi.encodePacked(baseURI, tokenId.toString())) : \"\" */\n      swap2\n      pop\n      pop\n        /* \"contracts/ERC721.sol\":2885:3219  function tokenURI(uint256 tokenId) public view virtual override returns (string memory) {\r... */\n      swap2\n      swap1\n      pop\n      jump\t// out\n        /* \"contracts/ERC721.sol\":4638:4802  function isApprovedForAll(address owner, address operator) public view virtual override returns (bool) {\r... */\n    tag_78:\n        /* \"contracts/ERC721.sol\":4735:4739  bool */\n      0x00\n        /* \"contracts/ERC721.sol\":4759:4777  _operatorApprovals */\n      0x06\n        /* \"contracts/ERC721.sol\":4759:4784  _operatorApprovals[owner] */\n      0x00\n        /* \"contracts/ERC721.sol\":4778:4783  owner */\n      dup5\n        /* \"contracts/ERC721.sol\":4759:4784  _operatorApprovals[owner] */\n      0xffffffffffffffffffffffffffffffffffffffff\n      and\n      0xffffffffffffffffffffffffffffffffffffffff\n      and\n      dup2\n      mstore\n      0x20\n      add\n      swap1\n      dup2\n      mstore\n      0x20\n      add\n      0x00\n      keccak256\n        /* \"contracts/ERC721.sol\":4759:4794  _operatorApprovals[owner][operator] */\n      0x00\n        /* \"contracts/ERC721.sol\":4785:4793  operator */\n      dup4\n        /* \"contracts/ERC721.sol\":4759:4794  _operatorApprovals[owner][operator] */\n      0xffffffffffffffffffffffffffffffffffffffff\n      and\n      0xffffffffffffffffffffffffffffffffffffffff\n      and\n      dup2\n      mstore\n      0x20\n      add\n      swap1\n      dup2\n      mstore\n      0x20\n      add\n      0x00\n      keccak256\n      0x00\n      swap1\n      sload\n      swap1\n      0x0100\n      exp\n      swap1\n      div\n      0xff\n      and\n        /* \"contracts/ERC721.sol\":4752:4794  return _operatorApprovals[owner][operator] */\n      swap1\n      pop\n        /* \"contracts/ERC721.sol\":4638:4802  function isApprovedForAll(address owner, address operator) public view virtual override returns (bool) {\r... */\n      swap3\n      swap2\n      pop\n      pop\n      jump\t// out\n        /* \"contracts/ERC165.sol\":835:985  function supportsInterface(bytes4 interfaceId) public view virtual override returns (bool) {\r... */\n    tag_84:\n        /* \"contracts/ERC165.sol\":920:924  bool */\n      0x00\n        /* \"contracts/ERC165.sol\":944:964  _supportedInterfaces */\n      dup1\n        /* \"contracts/ERC165.sol\":944:977  _supportedInterfaces[interfaceId] */\n      0x00\n        /* \"contracts/ERC165.sol\":965:976  interfaceId */\n      dup4\n        /* \"contracts/ERC165.sol\":944:977  _supportedInterfaces[interfaceId] */\n      not(0xffffffffffffffffffffffffffffffffffffffffffffffffffffffff)\n      and\n      not(0xffffffffffffffffffffffffffffffffffffffffffffffffffffffff)\n      and\n      dup2\n      mstore\n      0x20\n      add\n      swap1\n      dup2\n      mstore\n      0x20\n      add\n      0x00\n      keccak256\n      0x00\n      swap1\n      sload\n      swap1\n      0x0100\n      exp\n      swap1\n      div\n      0xff\n      and\n        /* \"contracts/ERC165.sol\":937:977  return _supportedInterfaces[interfaceId] */\n      swap1\n      pop\n        /* \"contracts/ERC165.sol\":835:985  function supportsInterface(bytes4 interfaceId) public view virtual override returns (bool) {\r... */\n      swap2\n      swap1\n      pop\n      jump\t// out\n        /* \"contracts/ERC721.sol\":7373:7500  function _exists(uint256 tokenId) internal view virtual returns (bool) {\r... */\n    tag_94:\n        /* \"contracts/ERC721.sol\":7438:7442  bool */\n      0x00\n        /* \"contracts/ERC721.sol\":7490:7491  0 */\n      dup1\n        /* \"contracts/ERC721.sol\":7462:7492  _owners[tokenId] != address(0) */\n      0xffffffffffffffffffffffffffffffffffffffff\n      and\n        /* \"contracts/ERC721.sol\":7462:7469  _owners */\n      0x03\n        /* \"contracts/ERC721.sol\":7462:7478  _owners[tokenId] */\n      0x00\n        /* \"contracts/ERC721.sol\":7470:7477  tokenId */\n      dup5\n        /* \"contracts/ERC721.sol\":7462:7478  _owners[tokenId] */\n      dup2\n      mstore\n      0x20\n      add\n      swap1\n      dup2\n      mstore\n      0x20\n      add\n      0x00\n      keccak256\n      0x00\n      swap1\n      sload\n      swap1\n      0x0100\n      exp\n      swap1\n      div\n      0xffffffffffffffffffffffffffffffffffffffff\n      and\n        /* \"contracts/ERC721.sol\":7462:7492  _owners[tokenId] != address(0) */\n      0xffffffffffffffffffffffffffffffffffffffff\n      and\n      eq\n      iszero\n        /* \"contracts/ERC721.sol\":7455:7492  return _owners[tokenId] != address(0) */\n      swap1\n      pop\n        /* \"contracts/ERC721.sol\":7373:7500  function _exists(uint256 tokenId) internal view virtual returns (bool) {\r... */\n      swap2\n      swap1\n      pop\n      jump\t// out\n        /* \"contracts/Context.sol\":656:754  function _msgSender() internal view virtual returns (address) {\r... */\n    tag_104:\n        /* \"contracts/Context.sol\":709:716  address */\n      0x00\n        /* \"contracts/Context.sol\":736:746  msg.sender */\n      caller\n        /* \"contracts/Context.sol\":729:746  return msg.sender */\n      swap1\n      pop\n        /* \"contracts/Context.sol\":656:754  function _msgSender() internal view virtual returns (address) {\r... */\n      swap1\n      jump\t// out\n        /* \"contracts/ERC721.sol\":11517:11691  function _approve(address to, uint256 tokenId) internal virtual {\r... */\n    tag_112:\n        /* \"contracts/ERC721.sol\":11619:11621  to */\n      dup2\n        /* \"contracts/ERC721.sol\":11592:11607  _tokenApprovals */\n      0x05\n        /* \"contracts/ERC721.sol\":11592:11616  _tokenApprovals[tokenId] */\n      0x00\n        /* \"contracts/ERC721.sol\":11608:11615  tokenId */\n      dup4\n        /* \"contracts/ERC721.sol\":11592:11616  _tokenApprovals[tokenId] */\n      dup2\n      mstore\n      0x20\n      add\n      swap1\n      dup2\n      mstore\n      0x20\n      add\n      0x00\n      keccak256\n      0x00\n        /* \"contracts/ERC721.sol\":11592:11621  _tokenApprovals[tokenId] = to */\n      0x0100\n      exp\n      dup2\n      sload\n      dup2\n      0xffffffffffffffffffffffffffffffffffffffff\n      mul\n      not\n      and\n      swap1\n      dup4\n      0xffffffffffffffffffffffffffffffffffffffff\n      and\n      mul\n      or\n      swap1\n      sstore\n      pop\n        /* \"contracts/ERC721.sol\":11675:11682  tokenId */\n      dup1\n        /* \"contracts/ERC721.sol\":11671:11673  to */\n      dup3\n        /* \"contracts/ERC721.sol\":11637:11683  Approval(ERC721.ownerOf(tokenId), to, tokenId) */\n      0xffffffffffffffffffffffffffffffffffffffff\n      and\n        /* \"contracts/ERC721.sol\":11646:11669  ERC721.ownerOf(tokenId) */\n      tag_170\n        /* \"contracts/ERC721.sol\":11661:11668  tokenId */\n      dup4\n        /* \"contracts/ERC721.sol\":11646:11660  ERC721.ownerOf */\n      tag_49\n        /* \"contracts/ERC721.sol\":11646:11669  ERC721.ownerOf(tokenId) */\n      jump\t// in\n    tag_170:\n        /* \"contracts/ERC721.sol\":11637:11683  Approval(ERC721.ownerOf(tokenId), to, tokenId) */\n      0xffffffffffffffffffffffffffffffffffffffff\n      and\n      0x8c5be1e5ebec7d5bd14f71427d1e84f3dd0314c0f7b2291e5b200ac8c7c3b925\n      mload(0x40)\n      mload(0x40)\n      dup1\n      swap2\n      sub\n      swap1\n      log4\n        /* \"contracts/ERC721.sol\":11517:11691  function _approve(address to, uint256 tokenId) internal virtual {\r... */\n      pop\n      pop\n      jump\t// out\n        /* \"contracts/ERC721.sol\":7667:8015  function _isApprovedOrOwner(address spender, uint256 tokenId) internal view virtual returns (bool) {\r... */\n    tag_116:\n        /* \"contracts/ERC721.sol\":7760:7764  bool */\n      0x00\n        /* \"contracts/ERC721.sol\":7785:7801  _exists(tokenId) */\n      tag_172\n        /* \"contracts/ERC721.sol\":7793:7800  tokenId */\n      dup3\n        /* \"contracts/ERC721.sol\":7785:7792  _exists */\n      tag_94\n        /* \"contracts/ERC721.sol\":7785:7801  _exists(tokenId) */\n      jump\t// in\n    tag_172:\n        /* \"contracts/ERC721.sol\":7777:7850  require(_exists(tokenId), \"ERC721: operator query for nonexistent token\") */\n      tag_173\n      jumpi\n      mload(0x40)\n      0x08c379a000000000000000000000000000000000000000000000000000000000\n      dup2\n      mstore\n      0x04\n      add\n      tag_174\n      swap1\n      tag_175\n      jump\t// in\n    tag_174:\n      mload(0x40)\n      dup1\n      swap2\n      sub\n      swap1\n      revert\n    tag_173:\n        /* \"contracts/ERC721.sol\":7861:7874  address owner */\n      0x00\n        /* \"contracts/ERC721.sol\":7877:7900  ERC721.ownerOf(tokenId) */\n      tag_176\n        /* \"contracts/ERC721.sol\":7892:7899  tokenId */\n      dup4\n        /* \"contracts/ERC721.sol\":7877:7891  ERC721.ownerOf */\n      tag_49\n        /* \"contracts/ERC721.sol\":7877:7900  ERC721.ownerOf(tokenId) */\n      jump\t// in\n    tag_176:\n        /* \"contracts/ERC721.sol\":7861:7900  address owner = ERC721.ownerOf(tokenId) */\n      swap1\n      pop\n        /* \"contracts/ERC721.sol\":7930:7935  owner */\n      dup1\n        /* \"contracts/ERC721.sol\":7919:7935  spender == owner */\n      0xffffffffffffffffffffffffffffffffffffffff\n      and\n        /* \"contracts/ERC721.sol\":7919:7926  spender */\n      dup5\n        /* \"contracts/ERC721.sol\":7919:7935  spender == owner */\n      0xffffffffffffffffffffffffffffffffffffffff\n      and\n      eq\n        /* \"contracts/ERC721.sol\":7919:7971  spender == owner || isApprovedForAll(owner, spender) */\n      dup1\n      tag_177\n      jumpi\n      pop\n        /* \"contracts/ERC721.sol\":7939:7971  isApprovedForAll(owner, spender) */\n      tag_178\n        /* \"contracts/ERC721.sol\":7956:7961  owner */\n      dup2\n        /* \"contracts/ERC721.sol\":7963:7970  spender */\n      dup6\n        /* \"contracts/ERC721.sol\":7939:7955  isApprovedForAll */\n      tag_78\n        /* \"contracts/ERC721.sol\":7939:7971  isApprovedForAll(owner, spender) */\n      jump\t// in\n    tag_178:\n        /* \"contracts/ERC721.sol\":7919:7971  spender == owner || isApprovedForAll(owner, spender) */\n    tag_177:\n        /* \"contracts/ERC721.sol\":7919:8006  spender == owner || isApprovedForAll(owner, spender) || getApproved(tokenId) == spender */\n      dup1\n      tag_179\n      jumpi\n      pop\n        /* \"contracts/ERC721.sol\":7999:8006  spender */\n      dup4\n        /* \"contracts/ERC721.sol\":7975:8006  getApproved(tokenId) == spender */\n      0xffffffffffffffffffffffffffffffffffffffff\n      and\n        /* \"contracts/ERC721.sol\":7975:7995  getApproved(tokenId) */\n      tag_180\n        /* \"contracts/ERC721.sol\":7987:7994  tokenId */\n      dup5\n        /* \"contracts/ERC721.sol\":7975:7986  getApproved */\n      tag_33\n        /* \"contracts/ERC721.sol\":7975:7995  getApproved(tokenId) */\n      jump\t// in\n    tag_180:\n        /* \"contracts/ERC721.sol\":7975:8006  getApproved(tokenId) == spender */\n      0xffffffffffffffffffffffffffffffffffffffff\n      and\n      eq\n        /* \"contracts/ERC721.sol\":7919:8006  spender == owner || isApprovedForAll(owner, spender) || getApproved(tokenId) == spender */\n    tag_179:\n        /* \"contracts/ERC721.sol\":7911:8007  return (spender == owner || isApprovedForAll(owner, spender) || getApproved(tokenId) == spender) */\n      swap2\n      pop\n      pop\n        /* \"contracts/ERC721.sol\":7667:8015  function _isApprovedOrOwner(address spender, uint256 tokenId) internal view virtual returns (bool) {\r... */\n      swap3\n      swap2\n      pop\n      pop\n      jump\t// out\n        /* \"contracts/ERC721.sol\":10774:11399  function _transfer(\r... */\n    tag_121:\n        /* \"contracts/ERC721.sol\":10933:10937  from */\n      dup3\n        /* \"contracts/ERC721.sol\":10906:10937  ERC721.ownerOf(tokenId) == from */\n      0xffffffffffffffffffffffffffffffffffffffff\n      and\n        /* \"contracts/ERC721.sol\":10906:10929  ERC721.ownerOf(tokenId) */\n      tag_182\n        /* \"contracts/ERC721.sol\":10921:10928  tokenId */\n      dup3\n        /* \"contracts/ERC721.sol\":10906:10920  ERC721.ownerOf */\n      tag_49\n        /* \"contracts/ERC721.sol\":10906:10929  ERC721.ownerOf(tokenId) */\n      jump\t// in\n    tag_182:\n        /* \"contracts/ERC721.sol\":10906:10937  ERC721.ownerOf(tokenId) == from */\n      0xffffffffffffffffffffffffffffffffffffffff\n      and\n      eq\n        /* \"contracts/ERC721.sol\":10898:10979  require(ERC721.ownerOf(tokenId) == from, \"ERC721: transfer from incorrect owner\") */\n      tag_183\n      jumpi\n      mload(0x40)\n      0x08c379a000000000000000000000000000000000000000000000000000000000\n      dup2\n      mstore\n      0x04\n      add\n      tag_184\n      swap1\n      tag_185\n      jump\t// in\n    tag_184:\n      mload(0x40)\n      dup1\n      swap2\n      sub\n      swap1\n      revert\n    tag_183:\n        /* \"contracts/ERC721.sol\":11012:11013  0 */\n      0x00\n        /* \"contracts/ERC721.sol\":10998:11014  to != address(0) */\n      0xffffffffffffffffffffffffffffffffffffffff\n      and\n        /* \"contracts/ERC721.sol\":10998:11000  to */\n      dup3\n        /* \"contracts/ERC721.sol\":10998:11014  to != address(0) */\n      0xffffffffffffffffffffffffffffffffffffffff\n      and\n      eq\n      iszero\n        /* \"contracts/ERC721.sol\":10990:11055  require(to != address(0), \"ERC721: transfer to the zero address\") */\n      tag_186\n      jumpi\n      mload(0x40)\n      0x08c379a000000000000000000000000000000000000000000000000000000000\n      dup2\n      mstore\n      0x04\n      add\n      tag_187\n      swap1\n      tag_188\n      jump\t// in\n    tag_187:\n      mload(0x40)\n      dup1\n      swap2\n      sub\n      swap1\n      revert\n    tag_186:\n        /* \"contracts/ERC721.sol\":11068:11107  _beforeTokenTransfer(from, to, tokenId) */\n      tag_189\n        /* \"contracts/ERC721.sol\":11089:11093  from */\n      dup4\n        /* \"contracts/ERC721.sol\":11095:11097  to */\n      dup4\n        /* \"contracts/ERC721.sol\":11099:11106  tokenId */\n      dup4\n        /* \"contracts/ERC721.sol\":11068:11088  _beforeTokenTransfer */\n      tag_190\n        /* \"contracts/ERC721.sol\":11068:11107  _beforeTokenTransfer(from, to, tokenId) */\n      jump\t// in\n    tag_189:\n        /* \"contracts/ERC721.sol\":11172:11201  _approve(address(0), tokenId) */\n      tag_191\n        /* \"contracts/ERC721.sol\":11189:11190  0 */\n      0x00\n        /* \"contracts/ERC721.sol\":11193:11200  tokenId */\n      dup3\n        /* \"contracts/ERC721.sol\":11172:11180  _approve */\n      tag_112\n        /* \"contracts/ERC721.sol\":11172:11201  _approve(address(0), tokenId) */\n      jump\t// in\n    tag_191:\n        /* \"contracts/ERC721.sol\":11233:11234  1 */\n      0x01\n        /* \"contracts/ERC721.sol\":11214:11223  _balances */\n      0x04\n        /* \"contracts/ERC721.sol\":11214:11229  _balances[from] */\n      0x00\n        /* \"contracts/ERC721.sol\":11224:11228  from */\n      dup6\n        /* \"contracts/ERC721.sol\":11214:11229  _balances[from] */\n      0xffffffffffffffffffffffffffffffffffffffff\n      and\n      0xffffffffffffffffffffffffffffffffffffffff\n      and\n      dup2\n      mstore\n      0x20\n      add\n      swap1\n      dup2\n      mstore\n      0x20\n      add\n      0x00\n      keccak256\n      0x00\n        /* \"contracts/ERC721.sol\":11214:11234  _balances[from] -= 1 */\n      dup3\n      dup3\n      sload\n      tag_192\n      swap2\n      swap1\n      tag_193\n      jump\t// in\n    tag_192:\n      swap3\n      pop\n      pop\n      dup2\n      swap1\n      sstore\n      pop\n        /* \"contracts/ERC721.sol\":11262:11263  1 */\n      0x01\n        /* \"contracts/ERC721.sol\":11245:11254  _balances */\n      0x04\n        /* \"contracts/ERC721.sol\":11245:11258  _balances[to] */\n      0x00\n        /* \"contracts/ERC721.sol\":11255:11257  to */\n      dup5\n        /* \"contracts/ERC721.sol\":11245:11258  _balances[to] */\n      0xffffffffffffffffffffffffffffffffffffffff\n      and\n      0xffffffffffffffffffffffffffffffffffffffff\n      and\n      dup2\n      mstore\n      0x20\n      add\n      swap1\n      dup2\n      mstore\n      0x20\n      add\n      0x00\n      keccak256\n      0x00\n        /* \"contracts/ERC721.sol\":11245:11263  _balances[to] += 1 */\n      dup3\n      dup3\n      sload\n      tag_194\n      swap2\n      swap1\n      tag_195\n      jump\t// in\n    tag_194:\n      swap3\n      pop\n      pop\n      dup2\n      swap1\n      sstore\n      pop\n        /* \"contracts/ERC721.sol\":11293:11295  to */\n      dup2\n        /* \"contracts/ERC721.sol\":11274:11281  _owners */\n      0x03\n        /* \"contracts/ERC721.sol\":11274:11290  _owners[tokenId] */\n      0x00\n        /* \"contracts/ERC721.sol\":11282:11289  tokenId */\n      dup4\n        /* \"contracts/ERC721.sol\":11274:11290  _owners[tokenId] */\n      dup2\n      mstore\n      0x20\n      add\n      swap1\n      dup2\n      mstore\n      0x20\n      add\n      0x00\n      keccak256\n      0x00\n        /* \"contracts/ERC721.sol\":11274:11295  _owners[tokenId] = to */\n      0x0100\n      exp\n      dup2\n      sload\n      dup2\n      0xffffffffffffffffffffffffffffffffffffffff\n      mul\n      not\n      and\n      swap1\n      dup4\n      0xffffffffffffffffffffffffffffffffffffffff\n      and\n      mul\n      or\n      swap1\n      sstore\n      pop\n        /* \"contracts/ERC721.sol\":11332:11339  tokenId */\n      dup1\n        /* \"contracts/ERC721.sol\":11328:11330  to */\n      dup3\n        /* \"contracts/ERC721.sol\":11313:11340  Transfer(from, to, tokenId) */\n      0xffffffffffffffffffffffffffffffffffffffff\n      and\n        /* \"contracts/ERC721.sol\":11322:11326  from */\n      dup5\n        /* \"contracts/ERC721.sol\":11313:11340  Transfer(from, to, tokenId) */\n      0xffffffffffffffffffffffffffffffffffffffff\n      and\n      0xddf252ad1be2c89b69c2b068fc378daa952ba7f163c4a11628f55a4df523b3ef\n      mload(0x40)\n      mload(0x40)\n      dup1\n      swap2\n      sub\n      swap1\n      log4\n        /* \"contracts/ERC721.sol\":11353:11391  _afterTokenTransfer(from, to, tokenId) */\n      tag_196\n        /* \"contracts/ERC721.sol\":11373:11377  from */\n      dup4\n        /* \"contracts/ERC721.sol\":11379:11381  to */\n      dup4\n        /* \"contracts/ERC721.sol\":11383:11390  tokenId */\n      dup4\n        /* \"contracts/ERC721.sol\":11353:11372  _afterTokenTransfer */\n      tag_197\n        /* \"contracts/ERC721.sol\":11353:11391  _afterTokenTransfer(from, to, tokenId) */\n      jump\t// in\n    tag_196:\n        /* \"contracts/ERC721.sol\":10774:11399  function _transfer(\r... */\n      pop\n      pop\n      pop\n      jump\t// out\n        /* \"contracts/ERC721.sol\":11833:12148  function _setApprovalForAll(\r... */\n    tag_141:\n        /* \"contracts/ERC721.sol\":11988:11996  operator */\n      dup2\n        /* \"contracts/ERC721.sol\":11979:11996  owner != operator */\n      0xffffffffffffffffffffffffffffffffffffffff\n      and\n        /* \"contracts/ERC721.sol\":11979:11984  owner */\n      dup4\n        /* \"contracts/ERC721.sol\":11979:11996  owner != operator */\n      0xffffffffffffffffffffffffffffffffffffffff\n      and\n      eq\n      iszero\n        /* \"contracts/ERC721.sol\":11971:12026  require(owner != operator, \"ERC721: approve to caller\") */\n      tag_199\n      jumpi\n      mload(0x40)\n      0x08c379a000000000000000000000000000000000000000000000000000000000\n      dup2\n      mstore\n      0x04\n      add\n      tag_200\n      swap1\n      tag_201\n      jump\t// in\n    tag_200:\n      mload(0x40)\n      dup1\n      swap2\n      sub\n      swap1\n      revert\n    tag_199:\n        /* \"contracts/ERC721.sol\":12075:12083  approved */\n      dup1\n        /* \"contracts/ERC721.sol\":12037:12055  _operatorApprovals */\n      0x06\n        /* \"contracts/ERC721.sol\":12037:12062  _operatorApprovals[owner] */\n      0x00\n        /* \"contracts/ERC721.sol\":12056:12061  owner */\n      dup6\n        /* \"contracts/ERC721.sol\":12037:12062  _operatorApprovals[owner] */\n      0xffffffffffffffffffffffffffffffffffffffff\n      and\n      0xffffffffffffffffffffffffffffffffffffffff\n      and\n      dup2\n      mstore\n      0x20\n      add\n      swap1\n      dup2\n      mstore\n      0x20\n      add\n      0x00\n      keccak256\n        /* \"contracts/ERC721.sol\":12037:12072  _operatorApprovals[owner][operator] */\n      0x00\n        /* \"contracts/ERC721.sol\":12063:12071  operator */\n      dup5\n        /* \"contracts/ERC721.sol\":12037:12072  _operatorApprovals[owner][operator] */\n      0xffffffffffffffffffffffffffffffffffffffff\n      and\n      0xffffffffffffffffffffffffffffffffffffffff\n      and\n      dup2\n      mstore\n      0x20\n      add\n      swap1\n      dup2\n      mstore\n      0x20\n      add\n      0x00\n      keccak256\n      0x00\n        /* \"contracts/ERC721.sol\":12037:12083  _operatorApprovals[owner][operator] = approved */\n      0x0100\n      exp\n      dup2\n      sload\n      dup2\n      0xff\n      mul\n      not\n      and\n      swap1\n      dup4\n      iszero\n      iszero\n      mul\n      or\n      swap1\n      sstore\n      pop\n        /* \"contracts/ERC721.sol\":12121:12129  operator */\n      dup2\n        /* \"contracts/ERC721.sol\":12099:12140  ApprovalForAll(owner, operator, approved) */\n      0xffffffffffffffffffffffffffffffffffffffff\n      and\n        /* \"contracts/ERC721.sol\":12114:12119  owner */\n      dup4\n        /* \"contracts/ERC721.sol\":12099:12140  ApprovalForAll(owner, operator, approved) */\n      0xffffffffffffffffffffffffffffffffffffffff\n      and\n      0x17307eab39ab6107e8899845ad3d59bd9653f200f220920489ca2b5937696c31\n        /* \"contracts/ERC721.sol\":12131:12139  approved */\n      dup4\n        /* \"contracts/ERC721.sol\":12099:12140  ApprovalForAll(owner, operator, approved) */\n      mload(0x40)\n      tag_202\n      swap2\n      swap1\n      tag_25\n      jump\t// in\n    tag_202:\n      mload(0x40)\n      dup1\n      swap2\n      sub\n      swap1\n      log3\n        /* \"contracts/ERC721.sol\":11833:12148  function _setApprovalForAll(\r... */\n      pop\n      pop\n      pop\n      jump\t// out\n        /* \"contracts/ERC721.sol\":8692:9013  function _safeMint(\r... */\n    tag_144:\n        /* \"contracts/ERC721.sol\":8822:8840  _mint(to, tokenId) */\n      tag_204\n        /* \"contracts/ERC721.sol\":8828:8830  to */\n      dup4\n        /* \"contracts/ERC721.sol\":8832:8839  tokenId */\n      dup4\n        /* \"contracts/ERC721.sol\":8822:8827  _mint */\n      tag_205\n        /* \"contracts/ERC721.sol\":8822:8840  _mint(to, tokenId) */\n      jump\t// in\n    tag_204:\n        /* \"contracts/ERC721.sol\":8873:8927  _checkOnERC721Received(address(0), to, tokenId, _data) */\n      tag_206\n        /* \"contracts/ERC721.sol\":8904:8905  0 */\n      0x00\n        /* \"contracts/ERC721.sol\":8908:8910  to */\n      dup5\n        /* \"contracts/ERC721.sol\":8912:8919  tokenId */\n      dup5\n        /* \"contracts/ERC721.sol\":8921:8926  _data */\n      dup5\n        /* \"contracts/ERC721.sol\":8873:8895  _checkOnERC721Received */\n      tag_207\n        /* \"contracts/ERC721.sol\":8873:8927  _checkOnERC721Received(address(0), to, tokenId, _data) */\n      jump\t// in\n    tag_206:\n        /* \"contracts/ERC721.sol\":8851:9005  require(\r... */\n      tag_208\n      jumpi\n      mload(0x40)\n      0x08c379a000000000000000000000000000000000000000000000000000000000\n      dup2\n      mstore\n      0x04\n      add\n      tag_209\n      swap1\n      tag_210\n      jump\t// in\n    tag_209:\n      mload(0x40)\n      dup1\n      swap2\n      sub\n      swap1\n      revert\n    tag_208:\n        /* \"contracts/ERC721.sol\":8692:9013  function _safeMint(\r... */\n      pop\n      pop\n      pop\n      jump\t// out\n        /* \"contracts/ERC721.sol\":6745:7060  function _safeTransfer(\r... */\n    tag_151:\n        /* \"contracts/ERC721.sol\":6902:6930  _transfer(from, to, tokenId) */\n      tag_212\n        /* \"contracts/ERC721.sol\":6912:6916  from */\n      dup5\n        /* \"contracts/ERC721.sol\":6918:6920  to */\n      dup5\n        /* \"contracts/ERC721.sol\":6922:6929  tokenId */\n      dup5\n        /* \"contracts/ERC721.sol\":6902:6911  _transfer */\n      tag_121\n        /* \"contracts/ERC721.sol\":6902:6930  _transfer(from, to, tokenId) */\n      jump\t// in\n    tag_212:\n        /* \"contracts/ERC721.sol\":6949:6997  _checkOnERC721Received(from, to, tokenId, _data) */\n      tag_213\n        /* \"contracts/ERC721.sol\":6972:6976  from */\n      dup5\n        /* \"contracts/ERC721.sol\":6978:6980  to */\n      dup5\n        /* \"contracts/ERC721.sol\":6982:6989  tokenId */\n      dup5\n        /* \"contracts/ERC721.sol\":6991:6996  _data */\n      dup5\n        /* \"contracts/ERC721.sol\":6949:6971  _checkOnERC721Received */\n      tag_207\n        /* \"contracts/ERC721.sol\":6949:6997  _checkOnERC721Received(from, to, tokenId, _data) */\n      jump\t// in\n    tag_213:\n        /* \"contracts/ERC721.sol\":6941:7052  require(_checkOnERC721Received(from, to, tokenId, _data), \"ERC721: transfer to non ERC721Receiver implementer\") */\n      tag_214\n      jumpi\n      mload(0x40)\n      0x08c379a000000000000000000000000000000000000000000000000000000000\n      dup2\n      mstore\n      0x04\n      add\n      tag_215\n      swap1\n      tag_210\n      jump\t// in\n    tag_215:\n      mload(0x40)\n      dup1\n      swap2\n      sub\n      swap1\n      revert\n    tag_214:\n        /* \"contracts/ERC721.sol\":6745:7060  function _safeTransfer(\r... */\n      pop\n      pop\n      pop\n      pop\n      jump\t// out\n        /* \"contracts/ERC721.sol\":3468:3580  function _baseURI() internal view virtual returns (string memory) {\r... */\n    tag_158:\n        /* \"contracts/ERC721.sol\":3519:3532  string memory */\n      0x60\n        /* \"contracts/ERC721.sol\":3545:3572  return \"Binance Smart Data\" */\n      mload(0x40)\n      dup1\n      0x40\n      add\n      0x40\n      mstore\n      dup1\n      0x12\n      dup2\n      mstore\n      0x20\n      add\n      0x42696e616e636520536d61727420446174610000000000000000000000000000\n      dup2\n      mstore\n      pop\n      swap1\n      pop\n        /* \"contracts/ERC721.sol\":3468:3580  function _baseURI() internal view virtual returns (string memory) {\r... */\n      swap1\n      jump\t// out\n        /* \"contracts/Strings.sol\":342:1065  function toString(uint256 value) internal pure returns (string memory) {\r... */\n    tag_162:\n        /* \"contracts/Strings.sol\":398:411  string memory */\n      0x60\n        /* \"contracts/Strings.sol\":628:629  0 */\n      0x00\n        /* \"contracts/Strings.sol\":619:624  value */\n      dup3\n        /* \"contracts/Strings.sol\":619:629  value == 0 */\n      eq\n        /* \"contracts/Strings.sol\":615:668  if (value == 0) {\r... */\n      iszero\n      tag_218\n      jumpi\n        /* \"contracts/Strings.sol\":646:656  return \"0\" */\n      mload(0x40)\n      dup1\n      0x40\n      add\n      0x40\n      mstore\n      dup1\n      0x01\n      dup2\n      mstore\n      0x20\n      add\n      0x3000000000000000000000000000000000000000000000000000000000000000\n      dup2\n      mstore\n      pop\n      swap1\n      pop\n      jump(tag_217)\n        /* \"contracts/Strings.sol\":615:668  if (value == 0) {\r... */\n    tag_218:\n        /* \"contracts/Strings.sol\":678:690  uint256 temp */\n      0x00\n        /* \"contracts/Strings.sol\":693:698  value */\n      dup3\n        /* \"contracts/Strings.sol\":678:698  uint256 temp = value */\n      swap1\n      pop\n        /* \"contracts/Strings.sol\":709:723  uint256 digits */\n      0x00\n        /* \"contracts/Strings.sol\":734:812  while (temp != 0) {\r... */\n    tag_219:\n        /* \"contracts/Strings.sol\":749:750  0 */\n      0x00\n        /* \"contracts/Strings.sol\":741:745  temp */\n      dup3\n        /* \"contracts/Strings.sol\":741:750  temp != 0 */\n      eq\n        /* \"contracts/Strings.sol\":734:812  while (temp != 0) {\r... */\n      tag_220\n      jumpi\n        /* \"contracts/Strings.sol\":767:775  digits++ */\n      dup1\n      dup1\n      tag_221\n      swap1\n      tag_222\n      jump\t// in\n    tag_221:\n      swap2\n      pop\n      pop\n        /* \"contracts/Strings.sol\":798:800  10 */\n      0x0a\n        /* \"contracts/Strings.sol\":790:800  temp /= 10 */\n      dup3\n      tag_223\n      swap2\n      swap1\n      tag_224\n      jump\t// in\n    tag_223:\n      swap2\n      pop\n        /* \"contracts/Strings.sol\":734:812  while (temp != 0) {\r... */\n      jump(tag_219)\n    tag_220:\n        /* \"contracts/Strings.sol\":822:841  bytes memory buffer */\n      0x00\n        /* \"contracts/Strings.sol\":854:860  digits */\n      dup2\n        /* \"contracts/Strings.sol\":844:861  new bytes(digits) */\n      0xffffffffffffffff\n      dup2\n      gt\n      iszero\n      tag_225\n      jumpi\n      mstore(0x00, 0x4e487b7100000000000000000000000000000000000000000000000000000000)\n      mstore(0x04, 0x41)\n      revert(0x00, 0x24)\n    tag_225:\n      mload(0x40)\n      swap1\n      dup1\n      dup3\n      mstore\n      dup1\n      0x1f\n      add\n      not(0x1f)\n      and\n      0x20\n      add\n      dup3\n      add\n      0x40\n      mstore\n      dup1\n      iszero\n      tag_226\n      jumpi\n      dup2\n      0x20\n      add\n      0x01\n      dup3\n      mul\n      dup1\n      calldatasize\n      dup4\n      calldatacopy\n      dup1\n      dup3\n      add\n      swap2\n      pop\n      pop\n      swap1\n      pop\n    tag_226:\n      pop\n        /* \"contracts/Strings.sol\":822:861  bytes memory buffer = new bytes(digits) */\n      swap1\n      pop\n        /* \"contracts/Strings.sol\":872:1026  while (value != 0) {\r... */\n    tag_227:\n        /* \"contracts/Strings.sol\":888:889  0 */\n      0x00\n        /* \"contracts/Strings.sol\":879:884  value */\n      dup6\n        /* \"contracts/Strings.sol\":879:889  value != 0 */\n      eq\n        /* \"contracts/Strings.sol\":872:1026  while (value != 0) {\r... */\n      tag_228\n      jumpi\n        /* \"contracts/Strings.sol\":916:917  1 */\n      0x01\n        /* \"contracts/Strings.sol\":906:917  digits -= 1 */\n      dup3\n      tag_229\n      swap2\n      swap1\n      tag_193\n      jump\t// in\n    tag_229:\n      swap2\n      pop\n        /* \"contracts/Strings.sol\":983:985  10 */\n      0x0a\n        /* \"contracts/Strings.sol\":975:980  value */\n      dup6\n        /* \"contracts/Strings.sol\":975:985  value % 10 */\n      tag_230\n      swap2\n      swap1\n      tag_231\n      jump\t// in\n    tag_230:\n        /* \"contracts/Strings.sol\":962:964  48 */\n      0x30\n        /* \"contracts/Strings.sol\":962:986  48 + uint256(value % 10) */\n      tag_232\n      swap2\n      swap1\n      tag_195\n      jump\t// in\n    tag_232:\n        /* \"contracts/Strings.sol\":949:988  bytes1(uint8(48 + uint256(value % 10))) */\n      0xf8\n      shl\n        /* \"contracts/Strings.sol\":932:938  buffer */\n      dup2\n        /* \"contracts/Strings.sol\":939:945  digits */\n      dup4\n        /* \"contracts/Strings.sol\":932:946  buffer[digits] */\n      dup2\n      mload\n      dup2\n      lt\n      tag_233\n      jumpi\n      mstore(0x00, 0x4e487b7100000000000000000000000000000000000000000000000000000000)\n      mstore(0x04, 0x32)\n      revert(0x00, 0x24)\n    tag_233:\n      0x20\n      add\n      add\n        /* \"contracts/Strings.sol\":932:988  buffer[digits] = bytes1(uint8(48 + uint256(value % 10))) */\n      swap1\n      not(0xffffffffffffffffffffffffffffffffffffffffffffffffffffffffffffff)\n      and\n      swap1\n      dup2\n      0x00\n      byte\n      swap1\n      mstore8\n      pop\n        /* \"contracts/Strings.sol\":1012:1014  10 */\n      0x0a\n        /* \"contracts/Strings.sol\":1003:1014  value /= 10 */\n      dup6\n      tag_234\n      swap2\n      swap1\n      tag_224\n      jump\t// in\n    tag_234:\n      swap5\n      pop\n        /* \"contracts/Strings.sol\":872:1026  while (value != 0) {\r... */\n      jump(tag_227)\n    tag_228:\n        /* \"contracts/Strings.sol\":1050:1056  buffer */\n      dup1\n        /* \"contracts/Strings.sol\":1036:1057  return string(buffer) */\n      swap4\n      pop\n      pop\n      pop\n      pop\n        /* \"contracts/Strings.sol\":342:1065  function toString(uint256 value) internal pure returns (string memory) {\r... */\n    tag_217:\n      swap2\n      swap1\n      pop\n      jump\t// out\n        /* \"contracts/ERC721.sol\":14084:14210  function _beforeTokenTransfer(\r... */\n    tag_190:\n      pop\n      pop\n      pop\n      jump\t// out\n        /* \"contracts/ERC721.sol\":14595:14720  function _afterTokenTransfer(\r... */\n    tag_197:\n      pop\n      pop\n      pop\n      jump\t// out\n        /* \"contracts/ERC721.sol\":9349:9788  function _mint(address to, uint256 tokenId) internal virtual {\r... */\n    tag_205:\n        /* \"contracts/ERC721.sol\":9443:9444  0 */\n      0x00\n        /* \"contracts/ERC721.sol\":9429:9445  to != address(0) */\n      0xffffffffffffffffffffffffffffffffffffffff\n      and\n        /* \"contracts/ERC721.sol\":9429:9431  to */\n      dup3\n        /* \"contracts/ERC721.sol\":9429:9445  to != address(0) */\n      0xffffffffffffffffffffffffffffffffffffffff\n      and\n      eq\n      iszero\n        /* \"contracts/ERC721.sol\":9421:9482  require(to != address(0), \"ERC721: mint to the zero address\") */\n      tag_238\n      jumpi\n      mload(0x40)\n      0x08c379a000000000000000000000000000000000000000000000000000000000\n      dup2\n      mstore\n      0x04\n      add\n      tag_239\n      swap1\n      tag_240\n      jump\t// in\n    tag_239:\n      mload(0x40)\n      dup1\n      swap2\n      sub\n      swap1\n      revert\n    tag_238:\n        /* \"contracts/ERC721.sol\":9502:9518  _exists(tokenId) */\n      tag_241\n        /* \"contracts/ERC721.sol\":9510:9517  tokenId */\n      dup2\n        /* \"contracts/ERC721.sol\":9502:9509  _exists */\n      tag_94\n        /* \"contracts/ERC721.sol\":9502:9518  _exists(tokenId) */\n      jump\t// in\n    tag_241:\n        /* \"contracts/ERC721.sol\":9501:9518  !_exists(tokenId) */\n      iszero\n        /* \"contracts/ERC721.sol\":9493:9551  require(!_exists(tokenId), \"ERC721: token already minted\") */\n      tag_242\n      jumpi\n      mload(0x40)\n      0x08c379a000000000000000000000000000000000000000000000000000000000\n      dup2\n      mstore\n      0x04\n      add\n      tag_243\n      swap1\n      tag_244\n      jump\t// in\n    tag_243:\n      mload(0x40)\n      dup1\n      swap2\n      sub\n      swap1\n      revert\n    tag_242:\n        /* \"contracts/ERC721.sol\":9564:9609  _beforeTokenTransfer(address(0), to, tokenId) */\n      tag_245\n        /* \"contracts/ERC721.sol\":9593:9594  0 */\n      0x00\n        /* \"contracts/ERC721.sol\":9597:9599  to */\n      dup4\n        /* \"contracts/ERC721.sol\":9601:9608  tokenId */\n      dup4\n        /* \"contracts/ERC721.sol\":9564:9584  _beforeTokenTransfer */\n      tag_190\n        /* \"contracts/ERC721.sol\":9564:9609  _beforeTokenTransfer(address(0), to, tokenId) */\n      jump\t// in\n    tag_245:\n        /* \"contracts/ERC721.sol\":9639:9640  1 */\n      0x01\n        /* \"contracts/ERC721.sol\":9622:9631  _balances */\n      0x04\n        /* \"contracts/ERC721.sol\":9622:9635  _balances[to] */\n      0x00\n        /* \"contracts/ERC721.sol\":9632:9634  to */\n      dup5\n        /* \"contracts/ERC721.sol\":9622:9635  _balances[to] */\n      0xffffffffffffffffffffffffffffffffffffffff\n      and\n      0xffffffffffffffffffffffffffffffffffffffff\n      and\n      dup2\n      mstore\n      0x20\n      add\n      swap1\n      dup2\n      mstore\n      0x20\n      add\n      0x00\n      keccak256\n      0x00\n        /* \"contracts/ERC721.sol\":9622:9640  _balances[to] += 1 */\n      dup3\n      dup3\n      sload\n      tag_246\n      swap2\n      swap1\n      tag_195\n      jump\t// in\n    tag_246:\n      swap3\n      pop\n      pop\n      dup2\n      swap1\n      sstore\n      pop\n        /* \"contracts/ERC721.sol\":9670:9672  to */\n      dup2\n        /* \"contracts/ERC721.sol\":9651:9658  _owners */\n      0x03\n        /* \"contracts/ERC721.sol\":9651:9667  _owners[tokenId] */\n      0x00\n        /* \"contracts/ERC721.sol\":9659:9666  tokenId */\n      dup4\n        /* \"contracts/ERC721.sol\":9651:9667  _owners[tokenId] */\n      dup2\n      mstore\n      0x20\n      add\n      swap1\n      dup2\n      mstore\n      0x20\n      add\n      0x00\n      keccak256\n      0x00\n        /* \"contracts/ERC721.sol\":9651:9672  _owners[tokenId] = to */\n      0x0100\n      exp\n      dup2\n      sload\n      dup2\n      0xffffffffffffffffffffffffffffffffffffffff\n      mul\n      not\n      and\n      swap1\n      dup4\n      0xffffffffffffffffffffffffffffffffffffffff\n      and\n      mul\n      or\n      swap1\n      sstore\n      pop\n        /* \"contracts/ERC721.sol\":9715:9722  tokenId */\n      dup1\n        /* \"contracts/ERC721.sol\":9711:9713  to */\n      dup3\n        /* \"contracts/ERC721.sol\":9690:9723  Transfer(address(0), to, tokenId) */\n      0xffffffffffffffffffffffffffffffffffffffff\n      and\n        /* \"contracts/ERC721.sol\":9707:9708  0 */\n      0x00\n        /* \"contracts/ERC721.sol\":9690:9723  Transfer(address(0), to, tokenId) */\n      0xffffffffffffffffffffffffffffffffffffffff\n      and\n      0xddf252ad1be2c89b69c2b068fc378daa952ba7f163c4a11628f55a4df523b3ef\n      mload(0x40)\n      mload(0x40)\n      dup1\n      swap2\n      sub\n      swap1\n      log4\n        /* \"contracts/ERC721.sol\":9736:9780  _afterTokenTransfer(address(0), to, tokenId) */\n      tag_247\n        /* \"contracts/ERC721.sol\":9764:9765  0 */\n      0x00\n        /* \"contracts/ERC721.sol\":9768:9770  to */\n      dup4\n        /* \"contracts/ERC721.sol\":9772:9779  tokenId */\n      dup4\n        /* \"contracts/ERC721.sol\":9736:9755  _afterTokenTransfer */\n      tag_197\n        /* \"contracts/ERC721.sol\":9736:9780  _afterTokenTransfer(address(0), to, tokenId) */\n      jump\t// in\n    tag_247:\n        /* \"contracts/ERC721.sol\":9349:9788  function _mint(address to, uint256 tokenId) internal virtual {\r... */\n      pop\n      pop\n      jump\t// out\n        /* \"contracts/ERC721.sol\":12713:13512  function _checkOnERC721Received(\r... */\n    tag_207:\n        /* \"contracts/ERC721.sol\":12868:12872  bool */\n      0x00\n        /* \"contracts/ERC721.sol\":12889:12904  to.isContract() */\n      tag_249\n        /* \"contracts/ERC721.sol\":12889:12891  to */\n      dup5\n        /* \"contracts/ERC721.sol\":12889:12902  to.isContract */\n      0xffffffffffffffffffffffffffffffffffffffff\n      and\n      tag_250\n        /* \"contracts/ERC721.sol\":12889:12904  to.isContract() */\n      jump\t// in\n    tag_249:\n        /* \"contracts/ERC721.sol\":12885:13505  if (to.isContract()) {\r... */\n      iszero\n      tag_251\n      jumpi\n        /* \"contracts/ERC721.sol\":12941:12943  to */\n      dup4\n        /* \"contracts/ERC721.sol\":12925:12961  IERC721Receiver(to).onERC721Received */\n      0xffffffffffffffffffffffffffffffffffffffff\n      and\n      0x150b7a02\n        /* \"contracts/ERC721.sol\":12962:12974  _msgSender() */\n      tag_252\n        /* \"contracts/ERC721.sol\":12962:12972  _msgSender */\n      tag_104\n        /* \"contracts/ERC721.sol\":12962:12974  _msgSender() */\n      jump\t// in\n    tag_252:\n        /* \"contracts/ERC721.sol\":12976:12980  from */\n      dup8\n        /* \"contracts/ERC721.sol\":12982:12989  tokenId */\n      dup7\n        /* \"contracts/ERC721.sol\":12991:12996  _data */\n      dup7\n        /* \"contracts/ERC721.sol\":12925:12997  IERC721Receiver(to).onERC721Received(_msgSender(), from, tokenId, _data) */\n      mload(0x40)\n      dup6\n      0xffffffff\n      and\n      0xe0\n      shl\n      dup2\n      mstore\n      0x04\n      add\n      tag_253\n      swap5\n      swap4\n      swap3\n      swap2\n      swap1\n      tag_254\n      jump\t// in\n    tag_253:\n      0x20\n      mload(0x40)\n      dup1\n      dup4\n      sub\n      dup2\n      0x00\n      dup8\n      dup1\n      extcodesize\n      iszero\n      dup1\n      iszero\n      tag_255\n      jumpi\n      0x00\n      dup1\n      revert\n    tag_255:\n      pop\n      gas\n      call\n      swap3\n      pop\n      pop\n      pop\n      dup1\n      iszero\n      tag_256\n      jumpi\n      pop\n      mload(0x40)\n      returndatasize\n      not(0x1f)\n      0x1f\n      dup3\n      add\n      and\n      dup3\n      add\n      dup1\n      0x40\n      mstore\n      pop\n      dup2\n      add\n      swap1\n      tag_257\n      swap2\n      swap1\n      tag_258\n      jump\t// in\n    tag_257:\n      0x01\n    tag_256:\n        /* \"contracts/ERC721.sol\":12921:13450  try IERC721Receiver(to).onERC721Received(_msgSender(), from, tokenId, _data) returns (bytes4 retval) {\r... */\n      tag_259\n      jumpi\n      returndatasize\n      dup1\n      0x00\n      dup2\n      eq\n      tag_264\n      jumpi\n      mload(0x40)\n      swap2\n      pop\n      and(add(returndatasize, 0x3f), not(0x1f))\n      dup3\n      add\n      0x40\n      mstore\n      returndatasize\n      dup3\n      mstore\n      returndatasize\n      0x00\n      0x20\n      dup5\n      add\n      returndatacopy\n      jump(tag_263)\n    tag_264:\n      0x60\n      swap2\n      pop\n    tag_263:\n      pop\n        /* \"contracts/ERC721.sol\":13184:13185  0 */\n      0x00\n        /* \"contracts/ERC721.sol\":13167:13173  reason */\n      dup2\n        /* \"contracts/ERC721.sol\":13167:13180  reason.length */\n      mload\n        /* \"contracts/ERC721.sol\":13167:13185  reason.length == 0 */\n      eq\n        /* \"contracts/ERC721.sol\":13163:13435  if (reason.length == 0) {\r... */\n      iszero\n      tag_265\n      jumpi\n        /* \"contracts/ERC721.sol\":13210:13270  revert(\"ERC721: transfer to non ERC721Receiver implementer\") */\n      mload(0x40)\n      0x08c379a000000000000000000000000000000000000000000000000000000000\n      dup2\n      mstore\n      0x04\n      add\n      tag_266\n      swap1\n      tag_210\n      jump\t// in\n    tag_266:\n      mload(0x40)\n      dup1\n      swap2\n      sub\n      swap1\n      revert\n        /* \"contracts/ERC721.sol\":13163:13435  if (reason.length == 0) {\r... */\n    tag_265:\n        /* \"contracts/ERC721.sol\":13385:13391  reason */\n      dup1\n        /* \"contracts/ERC721.sol\":13379:13392  mload(reason) */\n      mload\n        /* \"contracts/ERC721.sol\":13370:13376  reason */\n      dup2\n        /* \"contracts/ERC721.sol\":13366:13368  32 */\n      0x20\n        /* \"contracts/ERC721.sol\":13362:13377  add(32, reason) */\n      add\n        /* \"contracts/ERC721.sol\":13355:13393  revert(add(32, reason), mload(reason)) */\n      revert\n        /* \"contracts/ERC721.sol\":12921:13450  try IERC721Receiver(to).onERC721Received(_msgSender(), from, tokenId, _data) returns (bytes4 retval) {\r... */\n    tag_259:\n        /* \"contracts/ERC721.sol\":13058:13099  IERC721Receiver.onERC721Received.selector */\n      shl(0xe0, 0x150b7a02)\n        /* \"contracts/ERC721.sol\":13048:13099  retval == IERC721Receiver.onERC721Received.selector */\n      not(0xffffffffffffffffffffffffffffffffffffffffffffffffffffffff)\n      and\n        /* \"contracts/ERC721.sol\":13048:13054  retval */\n      dup2\n        /* \"contracts/ERC721.sol\":13048:13099  retval == IERC721Receiver.onERC721Received.selector */\n      not(0xffffffffffffffffffffffffffffffffffffffffffffffffffffffff)\n      and\n      eq\n        /* \"contracts/ERC721.sol\":13041:13099  return retval == IERC721Receiver.onERC721Received.selector */\n      swap2\n      pop\n      pop\n      jump(tag_248)\n        /* \"contracts/ERC721.sol\":12885:13505  if (to.isContract()) {\r... */\n    tag_251:\n        /* \"contracts/ERC721.sol\":13489:13493  true */\n      0x01\n        /* \"contracts/ERC721.sol\":13482:13493  return true */\n      swap1\n      pop\n        /* \"contracts/ERC721.sol\":12713:13512  function _checkOnERC721Received(\r... */\n    tag_248:\n      swap5\n      swap4\n      pop\n      pop\n      pop\n      pop\n      jump\t// out\n        /* \"contracts/Address.sol\":1210:1536  function isContract(address account) internal view returns (bool) {\r... */\n    tag_250:\n        /* \"contracts/Address.sol\":1270:1274  bool */\n      0x00\n        /* \"contracts/Address.sol\":1527:1528  0 */\n      dup1\n        /* \"contracts/Address.sol\":1505:1512  account */\n      dup3\n        /* \"contracts/Address.sol\":1505:1524  account.code.length */\n      0xffffffffffffffffffffffffffffffffffffffff\n      and\n      extcodesize\n        /* \"contracts/Address.sol\":1505:1528  account.code.length > 0 */\n      gt\n        /* \"contracts/Address.sol\":1498:1528  return account.code.length > 0 */\n      swap1\n      pop\n        /* \"contracts/Address.sol\":1210:1536  function isContract(address account) internal view returns (bool) {\r... */\n      swap2\n      swap1\n      pop\n      jump\t// out\n        /* \"#utility.yul\":7:350   */\n    tag_272:\n      0x00\n        /* \"#utility.yul\":109:174   */\n      tag_274\n        /* \"#utility.yul\":125:173   */\n      tag_275\n        /* \"#utility.yul\":166:172   */\n      dup5\n        /* \"#utility.yul\":125:173   */\n      tag_276\n      jump\t// in\n    tag_275:\n        /* \"#utility.yul\":109:174   */\n      tag_277\n      jump\t// in\n    tag_274:\n        /* \"#utility.yul\":100:174   */\n      swap1\n      pop\n        /* \"#utility.yul\":197:203   */\n      dup3\n        /* \"#utility.yul\":190:195   */\n      dup2\n        /* \"#utility.yul\":183:204   */\n      mstore\n        /* \"#utility.yul\":235:239   */\n      0x20\n        /* \"#utility.yul\":228:233   */\n      dup2\n        /* \"#utility.yul\":224:240   */\n      add\n        /* \"#utility.yul\":273:276   */\n      dup5\n        /* \"#utility.yul\":264:270   */\n      dup5\n        /* \"#utility.yul\":259:262   */\n      dup5\n        /* \"#utility.yul\":255:271   */\n      add\n        /* \"#utility.yul\":252:277   */\n      gt\n        /* \"#utility.yul\":249:251   */\n      iszero\n      tag_278\n      jumpi\n        /* \"#utility.yul\":290:291   */\n      0x00\n        /* \"#utility.yul\":287:288   */\n      dup1\n        /* \"#utility.yul\":280:292   */\n      revert\n        /* \"#utility.yul\":249:251   */\n    tag_278:\n        /* \"#utility.yul\":303:344   */\n      tag_279\n        /* \"#utility.yul\":337:343   */\n      dup5\n        /* \"#utility.yul\":332:335   */\n      dup3\n        /* \"#utility.yul\":327:330   */\n      dup6\n        /* \"#utility.yul\":303:344   */\n      tag_280\n      jump\t// in\n    tag_279:\n        /* \"#utility.yul\":90:350   */\n      pop\n      swap4\n      swap3\n      pop\n      pop\n      pop\n      jump\t// out\n        /* \"#utility.yul\":356:495   */\n    tag_281:\n      0x00\n        /* \"#utility.yul\":440:446   */\n      dup2\n        /* \"#utility.yul\":427:447   */\n      calldataload\n        /* \"#utility.yul\":418:447   */\n      swap1\n      pop\n        /* \"#utility.yul\":456:489   */\n      tag_283\n        /* \"#utility.yul\":483:488   */\n      dup2\n        /* \"#utility.yul\":456:489   */\n      tag_284\n      jump\t// in\n    tag_283:\n        /* \"#utility.yul\":408:495   */\n      swap3\n      swap2\n      pop\n      pop\n      jump\t// out\n        /* \"#utility.yul\":501:634   */\n    tag_285:\n      0x00\n        /* \"#utility.yul\":582:588   */\n      dup2\n        /* \"#utility.yul\":569:589   */\n      calldataload\n        /* \"#utility.yul\":560:589   */\n      swap1\n      pop\n        /* \"#utility.yul\":598:628   */\n      tag_287\n        /* \"#utility.yul\":622:627   */\n      dup2\n        /* \"#utility.yul\":598:628   */\n      tag_288\n      jump\t// in\n    tag_287:\n        /* \"#utility.yul\":550:634   */\n      swap3\n      swap2\n      pop\n      pop\n      jump\t// out\n        /* \"#utility.yul\":640:777   */\n    tag_289:\n      0x00\n        /* \"#utility.yul\":723:729   */\n      dup2\n        /* \"#utility.yul\":710:730   */\n      calldataload\n        /* \"#utility.yul\":701:730   */\n      swap1\n      pop\n        /* \"#utility.yul\":739:771   */\n      tag_291\n        /* \"#utility.yul\":765:770   */\n      dup2\n        /* \"#utility.yul\":739:771   */\n      tag_292\n      jump\t// in\n    tag_291:\n        /* \"#utility.yul\":691:777   */\n      swap3\n      swap2\n      pop\n      pop\n      jump\t// out\n        /* \"#utility.yul\":783:924   */\n    tag_293:\n      0x00\n        /* \"#utility.yul\":870:876   */\n      dup2\n        /* \"#utility.yul\":864:877   */\n      mload\n        /* \"#utility.yul\":855:877   */\n      swap1\n      pop\n        /* \"#utility.yul\":886:918   */\n      tag_295\n        /* \"#utility.yul\":912:917   */\n      dup2\n        /* \"#utility.yul\":886:918   */\n      tag_292\n      jump\t// in\n    tag_295:\n        /* \"#utility.yul\":845:924   */\n      swap3\n      swap2\n      pop\n      pop\n      jump\t// out\n        /* \"#utility.yul\":943:1214   */\n    tag_296:\n      0x00\n        /* \"#utility.yul\":1047:1050   */\n      dup3\n        /* \"#utility.yul\":1040:1044   */\n      0x1f\n        /* \"#utility.yul\":1032:1038   */\n      dup4\n        /* \"#utility.yul\":1028:1045   */\n      add\n        /* \"#utility.yul\":1024:1051   */\n      slt\n        /* \"#utility.yul\":1014:1016   */\n      tag_298\n      jumpi\n        /* \"#utility.yul\":1065:1066   */\n      0x00\n        /* \"#utility.yul\":1062:1063   */\n      dup1\n        /* \"#utility.yul\":1055:1067   */\n      revert\n        /* \"#utility.yul\":1014:1016   */\n    tag_298:\n        /* \"#utility.yul\":1105:1111   */\n      dup2\n        /* \"#utility.yul\":1092:1112   */\n      calldataload\n        /* \"#utility.yul\":1130:1208   */\n      tag_299\n        /* \"#utility.yul\":1204:1207   */\n      dup5\n        /* \"#utility.yul\":1196:1202   */\n      dup3\n        /* \"#utility.yul\":1189:1193   */\n      0x20\n        /* \"#utility.yul\":1181:1187   */\n      dup7\n        /* \"#utility.yul\":1177:1194   */\n      add\n        /* \"#utility.yul\":1130:1208   */\n      tag_272\n      jump\t// in\n    tag_299:\n        /* \"#utility.yul\":1121:1208   */\n      swap2\n      pop\n        /* \"#utility.yul\":1004:1214   */\n      pop\n      swap3\n      swap2\n      pop\n      pop\n      jump\t// out\n        /* \"#utility.yul\":1220:1359   */\n    tag_300:\n      0x00\n        /* \"#utility.yul\":1304:1310   */\n      dup2\n        /* \"#utility.yul\":1291:1311   */\n      calldataload\n        /* \"#utility.yul\":1282:1311   */\n      swap1\n      pop\n        /* \"#utility.yul\":1320:1353   */\n      tag_302\n        /* \"#utility.yul\":1347:1352   */\n      dup2\n        /* \"#utility.yul\":1320:1353   */\n      tag_303\n      jump\t// in\n    tag_302:\n        /* \"#utility.yul\":1272:1359   */\n      swap3\n      swap2\n      pop\n      pop\n      jump\t// out\n        /* \"#utility.yul\":1365:1627   */\n    tag_53:\n      0x00\n        /* \"#utility.yul\":1473:1475   */\n      0x20\n        /* \"#utility.yul\":1461:1470   */\n      dup3\n        /* \"#utility.yul\":1452:1459   */\n      dup5\n        /* \"#utility.yul\":1448:1471   */\n      sub\n        /* \"#utility.yul\":1444:1476   */\n      slt\n        /* \"#utility.yul\":1441:1443   */\n      iszero\n      tag_305\n      jumpi\n        /* \"#utility.yul\":1489:1490   */\n      0x00\n        /* \"#utility.yul\":1486:1487   */\n      dup1\n        /* \"#utility.yul\":1479:1491   */\n      revert\n        /* \"#utility.yul\":1441:1443   */\n    tag_305:\n        /* \"#utility.yul\":1532:1533   */\n      0x00\n        /* \"#utility.yul\":1557:1610   */\n      tag_306\n        /* \"#utility.yul\":1602:1609   */\n      dup5\n        /* \"#utility.yul\":1593:1599   */\n      dup3\n        /* \"#utility.yul\":1582:1591   */\n      dup6\n        /* \"#utility.yul\":1578:1600   */\n      add\n        /* \"#utility.yul\":1557:1610   */\n      tag_281\n      jump\t// in\n    tag_306:\n        /* \"#utility.yul\":1547:1610   */\n      swap2\n      pop\n        /* \"#utility.yul\":1503:1620   */\n      pop\n        /* \"#utility.yul\":1431:1627   */\n      swap3\n      swap2\n      pop\n      pop\n      jump\t// out\n        /* \"#utility.yul\":1633:2040   */\n    tag_77:\n      0x00\n      dup1\n        /* \"#utility.yul\":1758:1760   */\n      0x40\n        /* \"#utility.yul\":1746:1755   */\n      dup4\n        /* \"#utility.yul\":1737:1744   */\n      dup6\n        /* \"#utility.yul\":1733:1756   */\n      sub\n        /* \"#utility.yul\":1729:1761   */\n      slt\n        /* \"#utility.yul\":1726:1728   */\n      iszero\n      tag_308\n      jumpi\n        /* \"#utility.yul\":1774:1775   */\n      0x00\n        /* \"#utility.yul\":1771:1772   */\n      dup1\n        /* \"#utility.yul\":1764:1776   */\n      revert\n        /* \"#utility.yul\":1726:1728   */\n    tag_308:\n        /* \"#utility.yul\":1817:1818   */\n      0x00\n        /* \"#utility.yul\":1842:1895   */\n      tag_309\n        /* \"#utility.yul\":1887:1894   */\n      dup6\n        /* \"#utility.yul\":1878:1884   */\n      dup3\n        /* \"#utility.yul\":1867:1876   */\n      dup7\n        /* \"#utility.yul\":1863:1885   */\n      add\n        /* \"#utility.yul\":1842:1895   */\n      tag_281\n      jump\t// in\n    tag_309:\n        /* \"#utility.yul\":1832:1895   */\n      swap3\n      pop\n        /* \"#utility.yul\":1788:1905   */\n      pop\n        /* \"#utility.yul\":1944:1946   */\n      0x20\n        /* \"#utility.yul\":1970:2023   */\n      tag_310\n        /* \"#utility.yul\":2015:2022   */\n      dup6\n        /* \"#utility.yul\":2006:2012   */\n      dup3\n        /* \"#utility.yul\":1995:2004   */\n      dup7\n        /* \"#utility.yul\":1991:2013   */\n      add\n        /* \"#utility.yul\":1970:2023   */\n      tag_281\n      jump\t// in\n    tag_310:\n        /* \"#utility.yul\":1960:2023   */\n      swap2\n      pop\n        /* \"#utility.yul\":1915:2033   */\n      pop\n        /* \"#utility.yul\":1716:2040   */\n      swap3\n      pop\n      swap3\n      swap1\n      pop\n      jump\t// out\n        /* \"#utility.yul\":2046:2598   */\n    tag_42:\n      0x00\n      dup1\n      0x00\n        /* \"#utility.yul\":2188:2190   */\n      0x60\n        /* \"#utility.yul\":2176:2185   */\n      dup5\n        /* \"#utility.yul\":2167:2174   */\n      dup7\n        /* \"#utility.yul\":2163:2186   */\n      sub\n        /* \"#utility.yul\":2159:2191   */\n      slt\n        /* \"#utility.yul\":2156:2158   */\n      iszero\n      tag_312\n      jumpi\n        /* \"#utility.yul\":2204:2205   */\n      0x00\n        /* \"#utility.yul\":2201:2202   */\n      dup1\n        /* \"#utility.yul\":2194:2206   */\n      revert\n        /* \"#utility.yul\":2156:2158   */\n    tag_312:\n        /* \"#utility.yul\":2247:2248   */\n      0x00\n        /* \"#utility.yul\":2272:2325   */\n      tag_313\n        /* \"#utility.yul\":2317:2324   */\n      dup7\n        /* \"#utility.yul\":2308:2314   */\n      dup3\n        /* \"#utility.yul\":2297:2306   */\n      dup8\n        /* \"#utility.yul\":2293:2315   */\n      add\n        /* \"#utility.yul\":2272:2325   */\n      tag_281\n      jump\t// in\n    tag_313:\n        /* \"#utility.yul\":2262:2325   */\n      swap4\n      pop\n        /* \"#utility.yul\":2218:2335   */\n      pop\n        /* \"#utility.yul\":2374:2376   */\n      0x20\n        /* \"#utility.yul\":2400:2453   */\n      tag_314\n        /* \"#utility.yul\":2445:2452   */\n      dup7\n        /* \"#utility.yul\":2436:2442   */\n      dup3\n        /* \"#utility.yul\":2425:2434   */\n      dup8\n        /* \"#utility.yul\":2421:2443   */\n      add\n        /* \"#utility.yul\":2400:2453   */\n      tag_281\n      jump\t// in\n    tag_314:\n        /* \"#utility.yul\":2390:2453   */\n      swap3\n      pop\n        /* \"#utility.yul\":2345:2463   */\n      pop\n        /* \"#utility.yul\":2502:2504   */\n      0x40\n        /* \"#utility.yul\":2528:2581   */\n      tag_315\n        /* \"#utility.yul\":2573:2580   */\n      dup7\n        /* \"#utility.yul\":2564:2570   */\n      dup3\n        /* \"#utility.yul\":2553:2562   */\n      dup8\n        /* \"#utility.yul\":2549:2571   */\n      add\n        /* \"#utility.yul\":2528:2581   */\n      tag_300\n      jump\t// in\n    tag_315:\n        /* \"#utility.yul\":2518:2581   */\n      swap2\n      pop\n        /* \"#utility.yul\":2473:2591   */\n      pop\n        /* \"#utility.yul\":2146:2598   */\n      swap3\n      pop\n      swap3\n      pop\n      swap3\n      jump\t// out\n        /* \"#utility.yul\":2604:3413   */\n    tag_69:\n      0x00\n      dup1\n      0x00\n      dup1\n        /* \"#utility.yul\":2772:2775   */\n      0x80\n        /* \"#utility.yul\":2760:2769   */\n      dup6\n        /* \"#utility.yul\":2751:2758   */\n      dup8\n        /* \"#utility.yul\":2747:2770   */\n      sub\n        /* \"#utility.yul\":2743:2776   */\n      slt\n        /* \"#utility.yul\":2740:2742   */\n      iszero\n      tag_317\n      jumpi\n        /* \"#utility.yul\":2789:2790   */\n      0x00\n        /* \"#utility.yul\":2786:2787   */\n      dup1\n        /* \"#utility.yul\":2779:2791   */\n      revert\n        /* \"#utility.yul\":2740:2742   */\n    tag_317:\n        /* \"#utility.yul\":2832:2833   */\n      0x00\n        /* \"#utility.yul\":2857:2910   */\n      tag_318\n        /* \"#utility.yul\":2902:2909   */\n      dup8\n        /* \"#utility.yul\":2893:2899   */\n      dup3\n        /* \"#utility.yul\":2882:2891   */\n      dup9\n        /* \"#utility.yul\":2878:2900   */\n      add\n        /* \"#utility.yul\":2857:2910   */\n      tag_281\n      jump\t// in\n    tag_318:\n        /* \"#utility.yul\":2847:2910   */\n      swap5\n      pop\n        /* \"#utility.yul\":2803:2920   */\n      pop\n        /* \"#utility.yul\":2959:2961   */\n      0x20\n        /* \"#utility.yul\":2985:3038   */\n      tag_319\n        /* \"#utility.yul\":3030:3037   */\n      dup8\n        /* \"#utility.yul\":3021:3027   */\n      dup3\n        /* \"#utility.yul\":3010:3019   */\n      dup9\n        /* \"#utility.yul\":3006:3028   */\n      add\n        /* \"#utility.yul\":2985:3038   */\n      tag_281\n      jump\t// in\n    tag_319:\n        /* \"#utility.yul\":2975:3038   */\n      swap4\n      pop\n        /* \"#utility.yul\":2930:3048   */\n      pop\n        /* \"#utility.yul\":3087:3089   */\n      0x40\n        /* \"#utility.yul\":3113:3166   */\n      tag_320\n        /* \"#utility.yul\":3158:3165   */\n      dup8\n        /* \"#utility.yul\":3149:3155   */\n      dup3\n        /* \"#utility.yul\":3138:3147   */\n      dup9\n        /* \"#utility.yul\":3134:3156   */\n      add\n        /* \"#utility.yul\":3113:3166   */\n      tag_300\n      jump\t// in\n    tag_320:\n        /* \"#utility.yul\":3103:3166   */\n      swap3\n      pop\n        /* \"#utility.yul\":3058:3176   */\n      pop\n        /* \"#utility.yul\":3243:3245   */\n      0x60\n        /* \"#utility.yul\":3232:3241   */\n      dup6\n        /* \"#utility.yul\":3228:3246   */\n      add\n        /* \"#utility.yul\":3215:3247   */\n      calldataload\n        /* \"#utility.yul\":3274:3292   */\n      0xffffffffffffffff\n        /* \"#utility.yul\":3266:3272   */\n      dup2\n        /* \"#utility.yul\":3263:3293   */\n      gt\n        /* \"#utility.yul\":3260:3262   */\n      iszero\n      tag_321\n      jumpi\n        /* \"#utility.yul\":3306:3307   */\n      0x00\n        /* \"#utility.yul\":3303:3304   */\n      dup1\n        /* \"#utility.yul\":3296:3308   */\n      revert\n        /* \"#utility.yul\":3260:3262   */\n    tag_321:\n        /* \"#utility.yul\":3334:3396   */\n      tag_322\n        /* \"#utility.yul\":3388:3395   */\n      dup8\n        /* \"#utility.yul\":3379:3385   */\n      dup3\n        /* \"#utility.yul\":3368:3377   */\n      dup9\n        /* \"#utility.yul\":3364:3386   */\n      add\n        /* \"#utility.yul\":3334:3396   */\n      tag_296\n      jump\t// in\n    tag_322:\n        /* \"#utility.yul\":3324:3396   */\n      swap2\n      pop\n        /* \"#utility.yul\":3186:3406   */\n      pop\n        /* \"#utility.yul\":2730:3413   */\n      swap3\n      swap6\n      swap2\n      swap5\n      pop\n      swap3\n      pop\n      jump\t// out\n        /* \"#utility.yul\":3419:3820   */\n    tag_62:\n      0x00\n      dup1\n        /* \"#utility.yul\":3541:3543   */\n      0x40\n        /* \"#utility.yul\":3529:3538   */\n      dup4\n        /* \"#utility.yul\":3520:3527   */\n      dup6\n        /* \"#utility.yul\":3516:3539   */\n      sub\n        /* \"#utility.yul\":3512:3544   */\n      slt\n        /* \"#utility.yul\":3509:3511   */\n      iszero\n      tag_324\n      jumpi\n        /* \"#utility.yul\":3557:3558   */\n      0x00\n        /* \"#utility.yul\":3554:3555   */\n      dup1\n        /* \"#utility.yul\":3547:3559   */\n      revert\n        /* \"#utility.yul\":3509:3511   */\n    tag_324:\n        /* \"#utility.yul\":3600:3601   */\n      0x00\n        /* \"#utility.yul\":3625:3678   */\n      tag_325\n        /* \"#utility.yul\":3670:3677   */\n      dup6\n        /* \"#utility.yul\":3661:3667   */\n      dup3\n        /* \"#utility.yul\":3650:3659   */\n      dup7\n        /* \"#utility.yul\":3646:3668   */\n      add\n        /* \"#utility.yul\":3625:3678   */\n      tag_281\n      jump\t// in\n    tag_325:\n        /* \"#utility.yul\":3615:3678   */\n      swap3\n      pop\n        /* \"#utility.yul\":3571:3688   */\n      pop\n        /* \"#utility.yul\":3727:3729   */\n      0x20\n        /* \"#utility.yul\":3753:3803   */\n      tag_326\n        /* \"#utility.yul\":3795:3802   */\n      dup6\n        /* \"#utility.yul\":3786:3792   */\n      dup3\n        /* \"#utility.yul\":3775:3784   */\n      dup7\n        /* \"#utility.yul\":3771:3793   */\n      add\n        /* \"#utility.yul\":3753:3803   */\n      tag_285\n      jump\t// in\n    tag_326:\n        /* \"#utility.yul\":3743:3803   */\n      swap2\n      pop\n        /* \"#utility.yul\":3698:3813   */\n      pop\n        /* \"#utility.yul\":3499:3820   */\n      swap3\n      pop\n      swap3\n      swap1\n      pop\n      jump\t// out\n        /* \"#utility.yul\":3826:4233   */\n    tag_38:\n      0x00\n      dup1\n        /* \"#utility.yul\":3951:3953   */\n      0x40\n        /* \"#utility.yul\":3939:3948   */\n      dup4\n        /* \"#utility.yul\":3930:3937   */\n      dup6\n        /* \"#utility.yul\":3926:3949   */\n      sub\n        /* \"#utility.yul\":3922:3954   */\n      slt\n        /* \"#utility.yul\":3919:3921   */\n      iszero\n      tag_328\n      jumpi\n        /* \"#utility.yul\":3967:3968   */\n      0x00\n        /* \"#utility.yul\":3964:3965   */\n      dup1\n        /* \"#utility.yul\":3957:3969   */\n      revert\n        /* \"#utility.yul\":3919:3921   */\n    tag_328:\n        /* \"#utility.yul\":4010:4011   */\n      0x00\n        /* \"#utility.yul\":4035:4088   */\n      tag_329\n        /* \"#utility.yul\":4080:4087   */\n      dup6\n        /* \"#utility.yul\":4071:4077   */\n      dup3\n        /* \"#utility.yul\":4060:4069   */\n      dup7\n        /* \"#utility.yul\":4056:4078   */\n      add\n        /* \"#utility.yul\":4035:4088   */\n      tag_281\n      jump\t// in\n    tag_329:\n        /* \"#utility.yul\":4025:4088   */\n      swap3\n      pop\n        /* \"#utility.yul\":3981:4098   */\n      pop\n        /* \"#utility.yul\":4137:4139   */\n      0x20\n        /* \"#utility.yul\":4163:4216   */\n      tag_330\n        /* \"#utility.yul\":4208:4215   */\n      dup6\n        /* \"#utility.yul\":4199:4205   */\n      dup3\n        /* \"#utility.yul\":4188:4197   */\n      dup7\n        /* \"#utility.yul\":4184:4206   */\n      add\n        /* \"#utility.yul\":4163:4216   */\n      tag_300\n      jump\t// in\n    tag_330:\n        /* \"#utility.yul\":4153:4216   */\n      swap2\n      pop\n        /* \"#utility.yul\":4108:4226   */\n      pop\n        /* \"#utility.yul\":3909:4233   */\n      swap3\n      pop\n      swap3\n      swap1\n      pop\n      jump\t// out\n        /* \"#utility.yul\":4239:4499   */\n    tag_22:\n      0x00\n        /* \"#utility.yul\":4346:4348   */\n      0x20\n        /* \"#utility.yul\":4334:4343   */\n      dup3\n        /* \"#utility.yul\":4325:4332   */\n      dup5\n        /* \"#utility.yul\":4321:4344   */\n      sub\n        /* \"#utility.yul\":4317:4349   */\n      slt\n        /* \"#utility.yul\":4314:4316   */\n      iszero\n      tag_332\n      jumpi\n        /* \"#utility.yul\":4362:4363   */\n      0x00\n        /* \"#utility.yul\":4359:4360   */\n      dup1\n        /* \"#utility.yul\":4352:4364   */\n      revert\n        /* \"#utility.yul\":4314:4316   */\n    tag_332:\n        /* \"#utility.yul\":4405:4406   */\n      0x00\n        /* \"#utility.yul\":4430:4482   */\n      tag_333\n        /* \"#utility.yul\":4474:4481   */\n      dup5\n        /* \"#utility.yul\":4465:4471   */\n      dup3\n        /* \"#utility.yul\":4454:4463   */\n      dup6\n        /* \"#utility.yul\":4450:4472   */\n      add\n        /* \"#utility.yul\":4430:4482   */\n      tag_289\n      jump\t// in\n    tag_333:\n        /* \"#utility.yul\":4420:4482   */\n      swap2\n      pop\n        /* \"#utility.yul\":4376:4492   */\n      pop\n        /* \"#utility.yul\":4304:4499   */\n      swap3\n      swap2\n      pop\n      pop\n      jump\t// out\n        /* \"#utility.yul\":4505:4787   */\n    tag_258:\n      0x00\n        /* \"#utility.yul\":4623:4625   */\n      0x20\n        /* \"#utility.yul\":4611:4620   */\n      dup3\n        /* \"#utility.yul\":4602:4609   */\n      dup5\n        /* \"#utility.yul\":4598:4621   */\n      sub\n        /* \"#utility.yul\":4594:4626   */\n      slt\n        /* \"#utility.yul\":4591:4593   */\n      iszero\n      tag_335\n      jumpi\n        /* \"#utility.yul\":4639:4640   */\n      0x00\n        /* \"#utility.yul\":4636:4637   */\n      dup1\n        /* \"#utility.yul\":4629:4641   */\n      revert\n        /* \"#utility.yul\":4591:4593   */\n    tag_335:\n        /* \"#utility.yul\":4682:4683   */\n      0x00\n        /* \"#utility.yul\":4707:4770   */\n      tag_336\n        /* \"#utility.yul\":4762:4769   */\n      dup5\n        /* \"#utility.yul\":4753:4759   */\n      dup3\n        /* \"#utility.yul\":4742:4751   */\n      dup6\n        /* \"#utility.yul\":4738:4760   */\n      add\n        /* \"#utility.yul\":4707:4770   */\n      tag_293\n      jump\t// in\n    tag_336:\n        /* \"#utility.yul\":4697:4770   */\n      swap2\n      pop\n        /* \"#utility.yul\":4653:4780   */\n      pop\n        /* \"#utility.yul\":4581:4787   */\n      swap3\n      swap2\n      pop\n      pop\n      jump\t// out\n        /* \"#utility.yul\":4793:5055   */\n    tag_32:\n      0x00\n        /* \"#utility.yul\":4901:4903   */\n      0x20\n        /* \"#utility.yul\":4889:4898   */\n      dup3\n        /* \"#utility.yul\":4880:4887   */\n      dup5\n        /* \"#utility.yul\":4876:4899   */\n      sub\n        /* \"#utility.yul\":4872:4904   */\n      slt\n        /* \"#utility.yul\":4869:4871   */\n      iszero\n      tag_338\n      jumpi\n        /* \"#utility.yul\":4917:4918   */\n      0x00\n        /* \"#utility.yul\":4914:4915   */\n      dup1\n        /* \"#utility.yul\":4907:4919   */\n      revert\n        /* \"#utility.yul\":4869:4871   */\n    tag_338:\n        /* \"#utility.yul\":4960:4961   */\n      0x00\n        /* \"#utility.yul\":4985:5038   */\n      tag_339\n        /* \"#utility.yul\":5030:5037   */\n      dup5\n        /* \"#utility.yul\":5021:5027   */\n      dup3\n        /* \"#utility.yul\":5010:5019   */\n      dup6\n        /* \"#utility.yul\":5006:5028   */\n      add\n        /* \"#utility.yul\":4985:5038   */\n      tag_300\n      jump\t// in\n    tag_339:\n        /* \"#utility.yul\":4975:5038   */\n      swap2\n      pop\n        /* \"#utility.yul\":4931:5048   */\n      pop\n        /* \"#utility.yul\":4859:5055   */\n      swap3\n      swap2\n      pop\n      pop\n      jump\t// out\n        /* \"#utility.yul\":5061:5179   */\n    tag_340:\n        /* \"#utility.yul\":5148:5172   */\n      tag_342\n        /* \"#utility.yul\":5166:5171   */\n      dup2\n        /* \"#utility.yul\":5148:5172   */\n      tag_343\n      jump\t// in\n    tag_342:\n        /* \"#utility.yul\":5143:5146   */\n      dup3\n        /* \"#utility.yul\":5136:5173   */\n      mstore\n        /* \"#utility.yul\":5126:5179   */\n      pop\n      pop\n      jump\t// out\n        /* \"#utility.yul\":5185:5294   */\n    tag_344:\n        /* \"#utility.yul\":5266:5287   */\n      tag_346\n        /* \"#utility.yul\":5281:5286   */\n      dup2\n        /* \"#utility.yul\":5266:5287   */\n      tag_347\n      jump\t// in\n    tag_346:\n        /* \"#utility.yul\":5261:5264   */\n      dup3\n        /* \"#utility.yul\":5254:5288   */\n      mstore\n        /* \"#utility.yul\":5244:5294   */\n      pop\n      pop\n      jump\t// out\n        /* \"#utility.yul\":5300:5660   */\n    tag_348:\n      0x00\n        /* \"#utility.yul\":5414:5452   */\n      tag_350\n        /* \"#utility.yul\":5446:5451   */\n      dup3\n        /* \"#utility.yul\":5414:5452   */\n      tag_351\n      jump\t// in\n    tag_350:\n        /* \"#utility.yul\":5468:5538   */\n      tag_352\n        /* \"#utility.yul\":5531:5537   */\n      dup2\n        /* \"#utility.yul\":5526:5529   */\n      dup6\n        /* \"#utility.yul\":5468:5538   */\n      tag_353\n      jump\t// in\n    tag_352:\n        /* \"#utility.yul\":5461:5538   */\n      swap4\n      pop\n        /* \"#utility.yul\":5547:5599   */\n      tag_354\n        /* \"#utility.yul\":5592:5598   */\n      dup2\n        /* \"#utility.yul\":5587:5590   */\n      dup6\n        /* \"#utility.yul\":5580:5584   */\n      0x20\n        /* \"#utility.yul\":5573:5578   */\n      dup7\n        /* \"#utility.yul\":5569:5585   */\n      add\n        /* \"#utility.yul\":5547:5599   */\n      tag_355\n      jump\t// in\n    tag_354:\n        /* \"#utility.yul\":5624:5653   */\n      tag_356\n        /* \"#utility.yul\":5646:5652   */\n      dup2\n        /* \"#utility.yul\":5624:5653   */\n      tag_357\n      jump\t// in\n    tag_356:\n        /* \"#utility.yul\":5619:5622   */\n      dup5\n        /* \"#utility.yul\":5615:5654   */\n      add\n        /* \"#utility.yul\":5608:5654   */\n      swap2\n      pop\n        /* \"#utility.yul\":5390:5660   */\n      pop\n      swap3\n      swap2\n      pop\n      pop\n      jump\t// out\n        /* \"#utility.yul\":5666:6030   */\n    tag_358:\n      0x00\n        /* \"#utility.yul\":5782:5821   */\n      tag_360\n        /* \"#utility.yul\":5815:5820   */\n      dup3\n        /* \"#utility.yul\":5782:5821   */\n      tag_361\n      jump\t// in\n    tag_360:\n        /* \"#utility.yul\":5837:5908   */\n      tag_362\n        /* \"#utility.yul\":5901:5907   */\n      dup2\n        /* \"#utility.yul\":5896:5899   */\n      dup6\n        /* \"#utility.yul\":5837:5908   */\n      tag_363\n      jump\t// in\n    tag_362:\n        /* \"#utility.yul\":5830:5908   */\n      swap4\n      pop\n        /* \"#utility.yul\":5917:5969   */\n      tag_364\n        /* \"#utility.yul\":5962:5968   */\n      dup2\n        /* \"#utility.yul\":5957:5960   */\n      dup6\n        /* \"#utility.yul\":5950:5954   */\n      0x20\n        /* \"#utility.yul\":5943:5948   */\n      dup7\n        /* \"#utility.yul\":5939:5955   */\n      add\n        /* \"#utility.yul\":5917:5969   */\n      tag_355\n      jump\t// in\n    tag_364:\n        /* \"#utility.yul\":5994:6023   */\n      tag_365\n        /* \"#utility.yul\":6016:6022   */\n      dup2\n        /* \"#utility.yul\":5994:6023   */\n      tag_357\n      jump\t// in\n    tag_365:\n        /* \"#utility.yul\":5989:5992   */\n      dup5\n        /* \"#utility.yul\":5985:6024   */\n      add\n        /* \"#utility.yul\":5978:6024   */\n      swap2\n      pop\n        /* \"#utility.yul\":5758:6030   */\n      pop\n      swap3\n      swap2\n      pop\n      pop\n      jump\t// out\n        /* \"#utility.yul\":6036:6413   */\n    tag_366:\n      0x00\n        /* \"#utility.yul\":6170:6209   */\n      tag_368\n        /* \"#utility.yul\":6203:6208   */\n      dup3\n        /* \"#utility.yul\":6170:6209   */\n      tag_361\n      jump\t// in\n    tag_368:\n        /* \"#utility.yul\":6225:6314   */\n      tag_369\n        /* \"#utility.yul\":6307:6313   */\n      dup2\n        /* \"#utility.yul\":6302:6305   */\n      dup6\n        /* \"#utility.yul\":6225:6314   */\n      tag_370\n      jump\t// in\n    tag_369:\n        /* \"#utility.yul\":6218:6314   */\n      swap4\n      pop\n        /* \"#utility.yul\":6323:6375   */\n      tag_371\n        /* \"#utility.yul\":6368:6374   */\n      dup2\n        /* \"#utility.yul\":6363:6366   */\n      dup6\n        /* \"#utility.yul\":6356:6360   */\n      0x20\n        /* \"#utility.yul\":6349:6354   */\n      dup7\n        /* \"#utility.yul\":6345:6361   */\n      add\n        /* \"#utility.yul\":6323:6375   */\n      tag_355\n      jump\t// in\n    tag_371:\n        /* \"#utility.yul\":6400:6406   */\n      dup1\n        /* \"#utility.yul\":6395:6398   */\n      dup5\n        /* \"#utility.yul\":6391:6407   */\n      add\n        /* \"#utility.yul\":6384:6407   */\n      swap2\n      pop\n        /* \"#utility.yul\":6146:6413   */\n      pop\n      swap3\n      swap2\n      pop\n      pop\n      jump\t// out\n        /* \"#utility.yul\":6419:6785   */\n    tag_372:\n      0x00\n        /* \"#utility.yul\":6582:6649   */\n      tag_374\n        /* \"#utility.yul\":6646:6648   */\n      0x32\n        /* \"#utility.yul\":6641:6644   */\n      dup4\n        /* \"#utility.yul\":6582:6649   */\n      tag_363\n      jump\t// in\n    tag_374:\n        /* \"#utility.yul\":6575:6649   */\n      swap2\n      pop\n        /* \"#utility.yul\":6658:6751   */\n      tag_375\n        /* \"#utility.yul\":6747:6750   */\n      dup3\n        /* \"#utility.yul\":6658:6751   */\n      tag_376\n      jump\t// in\n    tag_375:\n        /* \"#utility.yul\":6776:6778   */\n      0x40\n        /* \"#utility.yul\":6771:6774   */\n      dup3\n        /* \"#utility.yul\":6767:6779   */\n      add\n        /* \"#utility.yul\":6760:6779   */\n      swap1\n      pop\n        /* \"#utility.yul\":6565:6785   */\n      swap2\n      swap1\n      pop\n      jump\t// out\n        /* \"#utility.yul\":6791:7157   */\n    tag_377:\n      0x00\n        /* \"#utility.yul\":6954:7021   */\n      tag_379\n        /* \"#utility.yul\":7018:7020   */\n      0x25\n        /* \"#utility.yul\":7013:7016   */\n      dup4\n        /* \"#utility.yul\":6954:7021   */\n      tag_363\n      jump\t// in\n    tag_379:\n        /* \"#utility.yul\":6947:7021   */\n      swap2\n      pop\n        /* \"#utility.yul\":7030:7123   */\n      tag_380\n        /* \"#utility.yul\":7119:7122   */\n      dup3\n        /* \"#utility.yul\":7030:7123   */\n      tag_381\n      jump\t// in\n    tag_380:\n        /* \"#utility.yul\":7148:7150   */\n      0x40\n        /* \"#utility.yul\":7143:7146   */\n      dup3\n        /* \"#utility.yul\":7139:7151   */\n      add\n        /* \"#utility.yul\":7132:7151   */\n      swap1\n      pop\n        /* \"#utility.yul\":6937:7157   */\n      swap2\n      swap1\n      pop\n      jump\t// out\n        /* \"#utility.yul\":7163:7529   */\n    tag_382:\n      0x00\n        /* \"#utility.yul\":7326:7393   */\n      tag_384\n        /* \"#utility.yul\":7390:7392   */\n      0x1c\n        /* \"#utility.yul\":7385:7388   */\n      dup4\n        /* \"#utility.yul\":7326:7393   */\n      tag_363\n      jump\t// in\n    tag_384:\n        /* \"#utility.yul\":7319:7393   */\n      swap2\n      pop\n        /* \"#utility.yul\":7402:7495   */\n      tag_385\n        /* \"#utility.yul\":7491:7494   */\n      dup3\n        /* \"#utility.yul\":7402:7495   */\n      tag_386\n      jump\t// in\n    tag_385:\n        /* \"#utility.yul\":7520:7522   */\n      0x20\n        /* \"#utility.yul\":7515:7518   */\n      dup3\n        /* \"#utility.yul\":7511:7523   */\n      add\n        /* \"#utility.yul\":7504:7523   */\n      swap1\n      pop\n        /* \"#utility.yul\":7309:7529   */\n      swap2\n      swap1\n      pop\n      jump\t// out\n        /* \"#utility.yul\":7535:7901   */\n    tag_387:\n      0x00\n        /* \"#utility.yul\":7698:7765   */\n      tag_389\n        /* \"#utility.yul\":7762:7764   */\n      0x24\n        /* \"#utility.yul\":7757:7760   */\n      dup4\n        /* \"#utility.yul\":7698:7765   */\n      tag_363\n      jump\t// in\n    tag_389:\n        /* \"#utility.yul\":7691:7765   */\n      swap2\n      pop\n        /* \"#utility.yul\":7774:7867   */\n      tag_390\n        /* \"#utility.yul\":7863:7866   */\n      dup3\n        /* \"#utility.yul\":7774:7867   */\n      tag_391\n      jump\t// in\n    tag_390:\n        /* \"#utility.yul\":7892:7894   */\n      0x40\n        /* \"#utility.yul\":7887:7890   */\n      dup3\n        /* \"#utility.yul\":7883:7895   */\n      add\n        /* \"#utility.yul\":7876:7895   */\n      swap1\n      pop\n        /* \"#utility.yul\":7681:7901   */\n      swap2\n      swap1\n      pop\n      jump\t// out\n        /* \"#utility.yul\":7907:8273   */\n    tag_392:\n      0x00\n        /* \"#utility.yul\":8070:8137   */\n      tag_394\n        /* \"#utility.yul\":8134:8136   */\n      0x19\n        /* \"#utility.yul\":8129:8132   */\n      dup4\n        /* \"#utility.yul\":8070:8137   */\n      tag_363\n      jump\t// in\n    tag_394:\n        /* \"#utility.yul\":8063:8137   */\n      swap2\n      pop\n        /* \"#utility.yul\":8146:8239   */\n      tag_395\n        /* \"#utility.yul\":8235:8238   */\n      dup3\n        /* \"#utility.yul\":8146:8239   */\n      tag_396\n      jump\t// in\n    tag_395:\n        /* \"#utility.yul\":8264:8266   */\n      0x20\n        /* \"#utility.yul\":8259:8262   */\n      dup3\n        /* \"#utility.yul\":8255:8267   */\n      add\n        /* \"#utility.yul\":8248:8267   */\n      swap1\n      pop\n        /* \"#utility.yul\":8053:8273   */\n      swap2\n      swap1\n      pop\n      jump\t// out\n        /* \"#utility.yul\":8279:8645   */\n    tag_397:\n      0x00\n        /* \"#utility.yul\":8442:8509   */\n      tag_399\n        /* \"#utility.yul\":8506:8508   */\n      0x2c\n        /* \"#utility.yul\":8501:8504   */\n      dup4\n        /* \"#utility.yul\":8442:8509   */\n      tag_363\n      jump\t// in\n    tag_399:\n        /* \"#utility.yul\":8435:8509   */\n      swap2\n      pop\n        /* \"#utility.yul\":8518:8611   */\n      tag_400\n        /* \"#utility.yul\":8607:8610   */\n      dup3\n        /* \"#utility.yul\":8518:8611   */\n      tag_401\n      jump\t// in\n    tag_400:\n        /* \"#utility.yul\":8636:8638   */\n      0x40\n        /* \"#utility.yul\":8631:8634   */\n      dup3\n        /* \"#utility.yul\":8627:8639   */\n      add\n        /* \"#utility.yul\":8620:8639   */\n      swap1\n      pop\n        /* \"#utility.yul\":8425:8645   */\n      swap2\n      swap1\n      pop\n      jump\t// out\n        /* \"#utility.yul\":8651:9017   */\n    tag_402:\n      0x00\n        /* \"#utility.yul\":8814:8881   */\n      tag_404\n        /* \"#utility.yul\":8878:8880   */\n      0x38\n        /* \"#utility.yul\":8873:8876   */\n      dup4\n        /* \"#utility.yul\":8814:8881   */\n      tag_363\n      jump\t// in\n    tag_404:\n        /* \"#utility.yul\":8807:8881   */\n      swap2\n      pop\n        /* \"#utility.yul\":8890:8983   */\n      tag_405\n        /* \"#utility.yul\":8979:8982   */\n      dup3\n        /* \"#utility.yul\":8890:8983   */\n      tag_406\n      jump\t// in\n    tag_405:\n        /* \"#utility.yul\":9008:9010   */\n      0x40\n        /* \"#utility.yul\":9003:9006   */\n      dup3\n        /* \"#utility.yul\":8999:9011   */\n      add\n        /* \"#utility.yul\":8992:9011   */\n      swap1\n      pop\n        /* \"#utility.yul\":8797:9017   */\n      swap2\n      swap1\n      pop\n      jump\t// out\n        /* \"#utility.yul\":9023:9389   */\n    tag_407:\n      0x00\n        /* \"#utility.yul\":9186:9253   */\n      tag_409\n        /* \"#utility.yul\":9250:9252   */\n      0x2a\n        /* \"#utility.yul\":9245:9248   */\n      dup4\n        /* \"#utility.yul\":9186:9253   */\n      tag_363\n      jump\t// in\n    tag_409:\n        /* \"#utility.yul\":9179:9253   */\n      swap2\n      pop\n        /* \"#utility.yul\":9262:9355   */\n      tag_410\n        /* \"#utility.yul\":9351:9354   */\n      dup3\n        /* \"#utility.yul\":9262:9355   */\n      tag_411\n      jump\t// in\n    tag_410:\n        /* \"#utility.yul\":9380:9382   */\n      0x40\n        /* \"#utility.yul\":9375:9378   */\n      dup3\n        /* \"#utility.yul\":9371:9383   */\n      add\n        /* \"#utility.yul\":9364:9383   */\n      swap1\n      pop\n        /* \"#utility.yul\":9169:9389   */\n      swap2\n      swap1\n      pop\n      jump\t// out\n        /* \"#utility.yul\":9395:9761   */\n    tag_412:\n      0x00\n        /* \"#utility.yul\":9558:9625   */\n      tag_414\n        /* \"#utility.yul\":9622:9624   */\n      0x29\n        /* \"#utility.yul\":9617:9620   */\n      dup4\n        /* \"#utility.yul\":9558:9625   */\n      tag_363\n      jump\t// in\n    tag_414:\n        /* \"#utility.yul\":9551:9625   */\n      swap2\n      pop\n        /* \"#utility.yul\":9634:9727   */\n      tag_415\n        /* \"#utility.yul\":9723:9726   */\n      dup3\n        /* \"#utility.yul\":9634:9727   */\n      tag_416\n      jump\t// in\n    tag_415:\n        /* \"#utility.yul\":9752:9754   */\n      0x40\n        /* \"#utility.yul\":9747:9750   */\n      dup3\n        /* \"#utility.yul\":9743:9755   */\n      add\n        /* \"#utility.yul\":9736:9755   */\n      swap1\n      pop\n        /* \"#utility.yul\":9541:9761   */\n      swap2\n      swap1\n      pop\n      jump\t// out\n        /* \"#utility.yul\":9767:10133   */\n    tag_417:\n      0x00\n        /* \"#utility.yul\":9930:9997   */\n      tag_419\n        /* \"#utility.yul\":9994:9996   */\n      0x20\n        /* \"#utility.yul\":9989:9992   */\n      dup4\n        /* \"#utility.yul\":9930:9997   */\n      tag_363\n      jump\t// in\n    tag_419:\n        /* \"#utility.yul\":9923:9997   */\n      swap2\n      pop\n        /* \"#utility.yul\":10006:10099   */\n      tag_420\n        /* \"#utility.yul\":10095:10098   */\n      dup3\n        /* \"#utility.yul\":10006:10099   */\n      tag_421\n      jump\t// in\n    tag_420:\n        /* \"#utility.yul\":10124:10126   */\n      0x20\n        /* \"#utility.yul\":10119:10122   */\n      dup3\n        /* \"#utility.yul\":10115:10127   */\n      add\n        /* \"#utility.yul\":10108:10127   */\n      swap1\n      pop\n        /* \"#utility.yul\":9913:10133   */\n      swap2\n      swap1\n      pop\n      jump\t// out\n        /* \"#utility.yul\":10139:10505   */\n    tag_422:\n      0x00\n        /* \"#utility.yul\":10302:10369   */\n      tag_424\n        /* \"#utility.yul\":10366:10368   */\n      0x2c\n        /* \"#utility.yul\":10361:10364   */\n      dup4\n        /* \"#utility.yul\":10302:10369   */\n      tag_363\n      jump\t// in\n    tag_424:\n        /* \"#utility.yul\":10295:10369   */\n      swap2\n      pop\n        /* \"#utility.yul\":10378:10471   */\n      tag_425\n        /* \"#utility.yul\":10467:10470   */\n      dup3\n        /* \"#utility.yul\":10378:10471   */\n      tag_426\n      jump\t// in\n    tag_425:\n        /* \"#utility.yul\":10496:10498   */\n      0x40\n        /* \"#utility.yul\":10491:10494   */\n      dup3\n        /* \"#utility.yul\":10487:10499   */\n      add\n        /* \"#utility.yul\":10480:10499   */\n      swap1\n      pop\n        /* \"#utility.yul\":10285:10505   */\n      swap2\n      swap1\n      pop\n      jump\t// out\n        /* \"#utility.yul\":10511:10877   */\n    tag_427:\n      0x00\n        /* \"#utility.yul\":10674:10741   */\n      tag_429\n        /* \"#utility.yul\":10738:10740   */\n      0x2f\n        /* \"#utility.yul\":10733:10736   */\n      dup4\n        /* \"#utility.yul\":10674:10741   */\n      tag_363\n      jump\t// in\n    tag_429:\n        /* \"#utility.yul\":10667:10741   */\n      swap2\n      pop\n        /* \"#utility.yul\":10750:10843   */\n      tag_430\n        /* \"#utility.yul\":10839:10842   */\n      dup3\n        /* \"#utility.yul\":10750:10843   */\n      tag_431\n      jump\t// in\n    tag_430:\n        /* \"#utility.yul\":10868:10870   */\n      0x40\n        /* \"#utility.yul\":10863:10866   */\n      dup3\n        /* \"#utility.yul\":10859:10871   */\n      add\n        /* \"#utility.yul\":10852:10871   */\n      swap1\n      pop\n        /* \"#utility.yul\":10657:10877   */\n      swap2\n      swap1\n      pop\n      jump\t// out\n        /* \"#utility.yul\":10883:11249   */\n    tag_432:\n      0x00\n        /* \"#utility.yul\":11046:11113   */\n      tag_434\n        /* \"#utility.yul\":11110:11112   */\n      0x21\n        /* \"#utility.yul\":11105:11108   */\n      dup4\n        /* \"#utility.yul\":11046:11113   */\n      tag_363\n      jump\t// in\n    tag_434:\n        /* \"#utility.yul\":11039:11113   */\n      swap2\n      pop\n        /* \"#utility.yul\":11122:11215   */\n      tag_435\n        /* \"#utility.yul\":11211:11214   */\n      dup3\n        /* \"#utility.yul\":11122:11215   */\n      tag_436\n      jump\t// in\n    tag_435:\n        /* \"#utility.yul\":11240:11242   */\n      0x40\n        /* \"#utility.yul\":11235:11238   */\n      dup3\n        /* \"#utility.yul\":11231:11243   */\n      add\n        /* \"#utility.yul\":11224:11243   */\n      swap1\n      pop\n        /* \"#utility.yul\":11029:11249   */\n      swap2\n      swap1\n      pop\n      jump\t// out\n        /* \"#utility.yul\":11255:11621   */\n    tag_437:\n      0x00\n        /* \"#utility.yul\":11418:11485   */\n      tag_439\n        /* \"#utility.yul\":11482:11484   */\n      0x31\n        /* \"#utility.yul\":11477:11480   */\n      dup4\n        /* \"#utility.yul\":11418:11485   */\n      tag_363\n      jump\t// in\n    tag_439:\n        /* \"#utility.yul\":11411:11485   */\n      swap2\n      pop\n        /* \"#utility.yul\":11494:11587   */\n      tag_440\n        /* \"#utility.yul\":11583:11586   */\n      dup3\n        /* \"#utility.yul\":11494:11587   */\n      tag_441\n      jump\t// in\n    tag_440:\n        /* \"#utility.yul\":11612:11614   */\n      0x40\n        /* \"#utility.yul\":11607:11610   */\n      dup3\n        /* \"#utility.yul\":11603:11615   */\n      add\n        /* \"#utility.yul\":11596:11615   */\n      swap1\n      pop\n        /* \"#utility.yul\":11401:11621   */\n      swap2\n      swap1\n      pop\n      jump\t// out\n        /* \"#utility.yul\":11627:11745   */\n    tag_442:\n        /* \"#utility.yul\":11714:11738   */\n      tag_444\n        /* \"#utility.yul\":11732:11737   */\n      dup2\n        /* \"#utility.yul\":11714:11738   */\n      tag_445\n      jump\t// in\n    tag_444:\n        /* \"#utility.yul\":11709:11712   */\n      dup3\n        /* \"#utility.yul\":11702:11739   */\n      mstore\n        /* \"#utility.yul\":11692:11745   */\n      pop\n      pop\n      jump\t// out\n        /* \"#utility.yul\":11751:12186   */\n    tag_164:\n      0x00\n        /* \"#utility.yul\":11953:12048   */\n      tag_447\n        /* \"#utility.yul\":12044:12047   */\n      dup3\n        /* \"#utility.yul\":12035:12041   */\n      dup6\n        /* \"#utility.yul\":11953:12048   */\n      tag_366\n      jump\t// in\n    tag_447:\n        /* \"#utility.yul\":11946:12048   */\n      swap2\n      pop\n        /* \"#utility.yul\":12065:12160   */\n      tag_448\n        /* \"#utility.yul\":12156:12159   */\n      dup3\n        /* \"#utility.yul\":12147:12153   */\n      dup5\n        /* \"#utility.yul\":12065:12160   */\n      tag_366\n      jump\t// in\n    tag_448:\n        /* \"#utility.yul\":12058:12160   */\n      swap2\n      pop\n        /* \"#utility.yul\":12177:12180   */\n      dup2\n        /* \"#utility.yul\":12170:12180   */\n      swap1\n      pop\n        /* \"#utility.yul\":11935:12186   */\n      swap4\n      swap3\n      pop\n      pop\n      pop\n      jump\t// out\n        /* \"#utility.yul\":12192:12414   */\n    tag_35:\n      0x00\n        /* \"#utility.yul\":12323:12325   */\n      0x20\n        /* \"#utility.yul\":12312:12321   */\n      dup3\n        /* \"#utility.yul\":12308:12326   */\n      add\n        /* \"#utility.yul\":12300:12326   */\n      swap1\n      pop\n        /* \"#utility.yul\":12336:12407   */\n      tag_450\n        /* \"#utility.yul\":12404:12405   */\n      0x00\n        /* \"#utility.yul\":12393:12402   */\n      dup4\n        /* \"#utility.yul\":12389:12406   */\n      add\n        /* \"#utility.yul\":12380:12386   */\n      dup5\n        /* \"#utility.yul\":12336:12407   */\n      tag_340\n      jump\t// in\n    tag_450:\n        /* \"#utility.yul\":12290:12414   */\n      swap3\n      swap2\n      pop\n      pop\n      jump\t// out\n        /* \"#utility.yul\":12420:13060   */\n    tag_254:\n      0x00\n        /* \"#utility.yul\":12653:12656   */\n      0x80\n        /* \"#utility.yul\":12642:12651   */\n      dup3\n        /* \"#utility.yul\":12638:12657   */\n      add\n        /* \"#utility.yul\":12630:12657   */\n      swap1\n      pop\n        /* \"#utility.yul\":12667:12738   */\n      tag_452\n        /* \"#utility.yul\":12735:12736   */\n      0x00\n        /* \"#utility.yul\":12724:12733   */\n      dup4\n        /* \"#utility.yul\":12720:12737   */\n      add\n        /* \"#utility.yul\":12711:12717   */\n      dup8\n        /* \"#utility.yul\":12667:12738   */\n      tag_340\n      jump\t// in\n    tag_452:\n        /* \"#utility.yul\":12748:12820   */\n      tag_453\n        /* \"#utility.yul\":12816:12818   */\n      0x20\n        /* \"#utility.yul\":12805:12814   */\n      dup4\n        /* \"#utility.yul\":12801:12819   */\n      add\n        /* \"#utility.yul\":12792:12798   */\n      dup7\n        /* \"#utility.yul\":12748:12820   */\n      tag_340\n      jump\t// in\n    tag_453:\n        /* \"#utility.yul\":12830:12902   */\n      tag_454\n        /* \"#utility.yul\":12898:12900   */\n      0x40\n        /* \"#utility.yul\":12887:12896   */\n      dup4\n        /* \"#utility.yul\":12883:12901   */\n      add\n        /* \"#utility.yul\":12874:12880   */\n      dup6\n        /* \"#utility.yul\":12830:12902   */\n      tag_442\n      jump\t// in\n    tag_454:\n        /* \"#utility.yul\":12949:12958   */\n      dup2\n        /* \"#utility.yul\":12943:12947   */\n      dup2\n        /* \"#utility.yul\":12939:12959   */\n      sub\n        /* \"#utility.yul\":12934:12936   */\n      0x60\n        /* \"#utility.yul\":12923:12932   */\n      dup4\n        /* \"#utility.yul\":12919:12937   */\n      add\n        /* \"#utility.yul\":12912:12960   */\n      mstore\n        /* \"#utility.yul\":12977:13053   */\n      tag_455\n        /* \"#utility.yul\":13048:13052   */\n      dup2\n        /* \"#utility.yul\":13039:13045   */\n      dup5\n        /* \"#utility.yul\":12977:13053   */\n      tag_348\n      jump\t// in\n    tag_455:\n        /* \"#utility.yul\":12969:13053   */\n      swap1\n      pop\n        /* \"#utility.yul\":12620:13060   */\n      swap6\n      swap5\n      pop\n      pop\n      pop\n      pop\n      pop\n      jump\t// out\n        /* \"#utility.yul\":13066:13276   */\n    tag_25:\n      0x00\n        /* \"#utility.yul\":13191:13193   */\n      0x20\n        /* \"#utility.yul\":13180:13189   */\n      dup3\n        /* \"#utility.yul\":13176:13194   */\n      add\n        /* \"#utility.yul\":13168:13194   */\n      swap1\n      pop\n        /* \"#utility.yul\":13204:13269   */\n      tag_457\n        /* \"#utility.yul\":13266:13267   */\n      0x00\n        /* \"#utility.yul\":13255:13264   */\n      dup4\n        /* \"#utility.yul\":13251:13268   */\n      add\n        /* \"#utility.yul\":13242:13248   */\n      dup5\n        /* \"#utility.yul\":13204:13269   */\n      tag_344\n      jump\t// in\n    tag_457:\n        /* \"#utility.yul\":13158:13276   */\n      swap3\n      swap2\n      pop\n      pop\n      jump\t// out\n        /* \"#utility.yul\":13282:13595   */\n    tag_29:\n      0x00\n        /* \"#utility.yul\":13433:13435   */\n      0x20\n        /* \"#utility.yul\":13422:13431   */\n      dup3\n        /* \"#utility.yul\":13418:13436   */\n      add\n        /* \"#utility.yul\":13410:13436   */\n      swap1\n      pop\n        /* \"#utility.yul\":13482:13491   */\n      dup2\n        /* \"#utility.yul\":13476:13480   */\n      dup2\n        /* \"#utility.yul\":13472:13492   */\n      sub\n        /* \"#utility.yul\":13468:13469   */\n      0x00\n        /* \"#utility.yul\":13457:13466   */\n      dup4\n        /* \"#utility.yul\":13453:13470   */\n      add\n        /* \"#utility.yul\":13446:13493   */\n      mstore\n        /* \"#utility.yul\":13510:13588   */\n      tag_459\n        /* \"#utility.yul\":13583:13587   */\n      dup2\n        /* \"#utility.yul\":13574:13580   */\n      dup5\n        /* \"#utility.yul\":13510:13588   */\n      tag_358\n      jump\t// in\n    tag_459:\n        /* \"#utility.yul\":13502:13588   */\n      swap1\n      pop\n        /* \"#utility.yul\":13400:13595   */\n      swap3\n      swap2\n      pop\n      pop\n      jump\t// out\n        /* \"#utility.yul\":13601:14020   */\n    tag_210:\n      0x00\n        /* \"#utility.yul\":13805:13807   */\n      0x20\n        /* \"#utility.yul\":13794:13803   */\n      dup3\n        /* \"#utility.yul\":13790:13808   */\n      add\n        /* \"#utility.yul\":13782:13808   */\n      swap1\n      pop\n        /* \"#utility.yul\":13854:13863   */\n      dup2\n        /* \"#utility.yul\":13848:13852   */\n      dup2\n        /* \"#utility.yul\":13844:13864   */\n      sub\n        /* \"#utility.yul\":13840:13841   */\n      0x00\n        /* \"#utility.yul\":13829:13838   */\n      dup4\n        /* \"#utility.yul\":13825:13842   */\n      add\n        /* \"#utility.yul\":13818:13865   */\n      mstore\n        /* \"#utility.yul\":13882:14013   */\n      tag_461\n        /* \"#utility.yul\":14008:14012   */\n      dup2\n        /* \"#utility.yul\":13882:14013   */\n      tag_372\n      jump\t// in\n    tag_461:\n        /* \"#utility.yul\":13874:14013   */\n      swap1\n      pop\n        /* \"#utility.yul\":13772:14020   */\n      swap2\n      swap1\n      pop\n      jump\t// out\n        /* \"#utility.yul\":14026:14445   */\n    tag_185:\n      0x00\n        /* \"#utility.yul\":14230:14232   */\n      0x20\n        /* \"#utility.yul\":14219:14228   */\n      dup3\n        /* \"#utility.yul\":14215:14233   */\n      add\n        /* \"#utility.yul\":14207:14233   */\n      swap1\n      pop\n        /* \"#utility.yul\":14279:14288   */\n      dup2\n        /* \"#utility.yul\":14273:14277   */\n      dup2\n        /* \"#utility.yul\":14269:14289   */\n      sub\n        /* \"#utility.yul\":14265:14266   */\n      0x00\n        /* \"#utility.yul\":14254:14263   */\n      dup4\n        /* \"#utility.yul\":14250:14267   */\n      add\n        /* \"#utility.yul\":14243:14290   */\n      mstore\n        /* \"#utility.yul\":14307:14438   */\n      tag_463\n        /* \"#utility.yul\":14433:14437   */\n      dup2\n        /* \"#utility.yul\":14307:14438   */\n      tag_377\n      jump\t// in\n    tag_463:\n        /* \"#utility.yul\":14299:14438   */\n      swap1\n      pop\n        /* \"#utility.yul\":14197:14445   */\n      swap2\n      swap1\n      pop\n      jump\t// out\n        /* \"#utility.yul\":14451:14870   */\n    tag_244:\n      0x00\n        /* \"#utility.yul\":14655:14657   */\n      0x20\n        /* \"#utility.yul\":14644:14653   */\n      dup3\n        /* \"#utility.yul\":14640:14658   */\n      add\n        /* \"#utility.yul\":14632:14658   */\n      swap1\n      pop\n        /* \"#utility.yul\":14704:14713   */\n      dup2\n        /* \"#utility.yul\":14698:14702   */\n      dup2\n        /* \"#utility.yul\":14694:14714   */\n      sub\n        /* \"#utility.yul\":14690:14691   */\n      0x00\n        /* \"#utility.yul\":14679:14688   */\n      dup4\n        /* \"#utility.yul\":14675:14692   */\n      add\n        /* \"#utility.yul\":14668:14715   */\n      mstore\n        /* \"#utility.yul\":14732:14863   */\n      tag_465\n        /* \"#utility.yul\":14858:14862   */\n      dup2\n        /* \"#utility.yul\":14732:14863   */\n      tag_382\n      jump\t// in\n    tag_465:\n        /* \"#utility.yul\":14724:14863   */\n      swap1\n      pop\n        /* \"#utility.yul\":14622:14870   */\n      swap2\n      swap1\n      pop\n      jump\t// out\n        /* \"#utility.yul\":14876:15295   */\n    tag_188:\n      0x00\n        /* \"#utility.yul\":15080:15082   */\n      0x20\n        /* \"#utility.yul\":15069:15078   */\n      dup3\n        /* \"#utility.yul\":15065:15083   */\n      add\n        /* \"#utility.yul\":15057:15083   */\n      swap1\n      pop\n        /* \"#utility.yul\":15129:15138   */\n      dup2\n        /* \"#utility.yul\":15123:15127   */\n      dup2\n        /* \"#utility.yul\":15119:15139   */\n      sub\n        /* \"#utility.yul\":15115:15116   */\n      0x00\n        /* \"#utility.yul\":15104:15113   */\n      dup4\n        /* \"#utility.yul\":15100:15117   */\n      add\n        /* \"#utility.yul\":15093:15140   */\n      mstore\n        /* \"#utility.yul\":15157:15288   */\n      tag_467\n        /* \"#utility.yul\":15283:15287   */\n      dup2\n        /* \"#utility.yul\":15157:15288   */\n      tag_387\n      jump\t// in\n    tag_467:\n        /* \"#utility.yul\":15149:15288   */\n      swap1\n      pop\n        /* \"#utility.yul\":15047:15295   */\n      swap2\n      swap1\n      pop\n      jump\t// out\n        /* \"#utility.yul\":15301:15720   */\n    tag_201:\n      0x00\n        /* \"#utility.yul\":15505:15507   */\n      0x20\n        /* \"#utility.yul\":15494:15503   */\n      dup3\n        /* \"#utility.yul\":15490:15508   */\n      add\n        /* \"#utility.yul\":15482:15508   */\n      swap1\n      pop\n        /* \"#utility.yul\":15554:15563   */\n      dup2\n        /* \"#utility.yul\":15548:15552   */\n      dup2\n        /* \"#utility.yul\":15544:15564   */\n      sub\n        /* \"#utility.yul\":15540:15541   */\n      0x00\n        /* \"#utility.yul\":15529:15538   */\n      dup4\n        /* \"#utility.yul\":15525:15542   */\n      add\n        /* \"#utility.yul\":15518:15565   */\n      mstore\n        /* \"#utility.yul\":15582:15713   */\n      tag_469\n        /* \"#utility.yul\":15708:15712   */\n      dup2\n        /* \"#utility.yul\":15582:15713   */\n      tag_392\n      jump\t// in\n    tag_469:\n        /* \"#utility.yul\":15574:15713   */\n      swap1\n      pop\n        /* \"#utility.yul\":15472:15720   */\n      swap2\n      swap1\n      pop\n      jump\t// out\n        /* \"#utility.yul\":15726:16145   */\n    tag_175:\n      0x00\n        /* \"#utility.yul\":15930:15932   */\n      0x20\n        /* \"#utility.yul\":15919:15928   */\n      dup3\n        /* \"#utility.yul\":15915:15933   */\n      add\n        /* \"#utility.yul\":15907:15933   */\n      swap1\n      pop\n        /* \"#utility.yul\":15979:15988   */\n      dup2\n        /* \"#utility.yul\":15973:15977   */\n      dup2\n        /* \"#utility.yul\":15969:15989   */\n      sub\n        /* \"#utility.yul\":15965:15966   */\n      0x00\n        /* \"#utility.yul\":15954:15963   */\n      dup4\n        /* \"#utility.yul\":15950:15967   */\n      add\n        /* \"#utility.yul\":15943:15990   */\n      mstore\n        /* \"#utility.yul\":16007:16138   */\n      tag_471\n        /* \"#utility.yul\":16133:16137   */\n      dup2\n        /* \"#utility.yul\":16007:16138   */\n      tag_397\n      jump\t// in\n    tag_471:\n        /* \"#utility.yul\":15999:16138   */\n      swap1\n      pop\n        /* \"#utility.yul\":15897:16145   */\n      swap2\n      swap1\n      pop\n      jump\t// out\n        /* \"#utility.yul\":16151:16570   */\n    tag_110:\n      0x00\n        /* \"#utility.yul\":16355:16357   */\n      0x20\n        /* \"#utility.yul\":16344:16353   */\n      dup3\n        /* \"#utility.yul\":16340:16358   */\n      add\n        /* \"#utility.yul\":16332:16358   */\n      swap1\n      pop\n        /* \"#utility.yul\":16404:16413   */\n      dup2\n        /* \"#utility.yul\":16398:16402   */\n      dup2\n        /* \"#utility.yul\":16394:16414   */\n      sub\n        /* \"#utility.yul\":16390:16391   */\n      0x00\n        /* \"#utility.yul\":16379:16388   */\n      dup4\n        /* \"#utility.yul\":16375:16392   */\n      add\n        /* \"#utility.yul\":16368:16415   */\n      mstore\n        /* \"#utility.yul\":16432:16563   */\n      tag_473\n        /* \"#utility.yul\":16558:16562   */\n      dup2\n        /* \"#utility.yul\":16432:16563   */\n      tag_402\n      jump\t// in\n    tag_473:\n        /* \"#utility.yul\":16424:16563   */\n      swap1\n      pop\n        /* \"#utility.yul\":16322:16570   */\n      swap2\n      swap1\n      pop\n      jump\t// out\n        /* \"#utility.yul\":16576:16995   */\n    tag_131:\n      0x00\n        /* \"#utility.yul\":16780:16782   */\n      0x20\n        /* \"#utility.yul\":16769:16778   */\n      dup3\n        /* \"#utility.yul\":16765:16783   */\n      add\n        /* \"#utility.yul\":16757:16783   */\n      swap1\n      pop\n        /* \"#utility.yul\":16829:16838   */\n      dup2\n        /* \"#utility.yul\":16823:16827   */\n      dup2\n        /* \"#utility.yul\":16819:16839   */\n      sub\n        /* \"#utility.yul\":16815:16816   */\n      0x00\n        /* \"#utility.yul\":16804:16813   */\n      dup4\n        /* \"#utility.yul\":16800:16817   */\n      add\n        /* \"#utility.yul\":16793:16840   */\n      mstore\n        /* \"#utility.yul\":16857:16988   */\n      tag_475\n        /* \"#utility.yul\":16983:16987   */\n      dup2\n        /* \"#utility.yul\":16857:16988   */\n      tag_407\n      jump\t// in\n    tag_475:\n        /* \"#utility.yul\":16849:16988   */\n      swap1\n      pop\n        /* \"#utility.yul\":16747:16995   */\n      swap2\n      swap1\n      pop\n      jump\t// out\n        /* \"#utility.yul\":17001:17420   */\n    tag_127:\n      0x00\n        /* \"#utility.yul\":17205:17207   */\n      0x20\n        /* \"#utility.yul\":17194:17203   */\n      dup3\n        /* \"#utility.yul\":17190:17208   */\n      add\n        /* \"#utility.yul\":17182:17208   */\n      swap1\n      pop\n        /* \"#utility.yul\":17254:17263   */\n      dup2\n        /* \"#utility.yul\":17248:17252   */\n      dup2\n        /* \"#utility.yul\":17244:17264   */\n      sub\n        /* \"#utility.yul\":17240:17241   */\n      0x00\n        /* \"#utility.yul\":17229:17238   */\n      dup4\n        /* \"#utility.yul\":17225:17242   */\n      add\n        /* \"#utility.yul\":17218:17265   */\n      mstore\n        /* \"#utility.yul\":17282:17413   */\n      tag_477\n        /* \"#utility.yul\":17408:17412   */\n      dup2\n        /* \"#utility.yul\":17282:17413   */\n      tag_412\n      jump\t// in\n    tag_477:\n        /* \"#utility.yul\":17274:17413   */\n      swap1\n      pop\n        /* \"#utility.yul\":17172:17420   */\n      swap2\n      swap1\n      pop\n      jump\t// out\n        /* \"#utility.yul\":17426:17845   */\n    tag_240:\n      0x00\n        /* \"#utility.yul\":17630:17632   */\n      0x20\n        /* \"#utility.yul\":17619:17628   */\n      dup3\n        /* \"#utility.yul\":17615:17633   */\n      add\n        /* \"#utility.yul\":17607:17633   */\n      swap1\n      pop\n        /* \"#utility.yul\":17679:17688   */\n      dup2\n        /* \"#utility.yul\":17673:17677   */\n      dup2\n        /* \"#utility.yul\":17669:17689   */\n      sub\n        /* \"#utility.yul\":17665:17666   */\n      0x00\n        /* \"#utility.yul\":17654:17663   */\n      dup4\n        /* \"#utility.yul\":17650:17667   */\n      add\n        /* \"#utility.yul\":17643:17690   */\n      mstore\n        /* \"#utility.yul\":17707:17838   */\n      tag_479\n        /* \"#utility.yul\":17833:17837   */\n      dup2\n        /* \"#utility.yul\":17707:17838   */\n      tag_417\n      jump\t// in\n    tag_479:\n        /* \"#utility.yul\":17699:17838   */\n      swap1\n      pop\n        /* \"#utility.yul\":17597:17845   */\n      swap2\n      swap1\n      pop\n      jump\t// out\n        /* \"#utility.yul\":17851:18270   */\n    tag_97:\n      0x00\n        /* \"#utility.yul\":18055:18057   */\n      0x20\n        /* \"#utility.yul\":18044:18053   */\n      dup3\n        /* \"#utility.yul\":18040:18058   */\n      add\n        /* \"#utility.yul\":18032:18058   */\n      swap1\n      pop\n        /* \"#utility.yul\":18104:18113   */\n      dup2\n        /* \"#utility.yul\":18098:18102   */\n      dup2\n        /* \"#utility.yul\":18094:18114   */\n      sub\n        /* \"#utility.yul\":18090:18091   */\n      0x00\n        /* \"#utility.yul\":18079:18088   */\n      dup4\n        /* \"#utility.yul\":18075:18092   */\n      add\n        /* \"#utility.yul\":18068:18115   */\n      mstore\n        /* \"#utility.yul\":18132:18263   */\n      tag_481\n        /* \"#utility.yul\":18258:18262   */\n      dup2\n        /* \"#utility.yul\":18132:18263   */\n      tag_422\n      jump\t// in\n    tag_481:\n        /* \"#utility.yul\":18124:18263   */\n      swap1\n      pop\n        /* \"#utility.yul\":18022:18270   */\n      swap2\n      swap1\n      pop\n      jump\t// out\n        /* \"#utility.yul\":18276:18695   */\n    tag_156:\n      0x00\n        /* \"#utility.yul\":18480:18482   */\n      0x20\n        /* \"#utility.yul\":18469:18478   */\n      dup3\n        /* \"#utility.yul\":18465:18483   */\n      add\n        /* \"#utility.yul\":18457:18483   */\n      swap1\n      pop\n        /* \"#utility.yul\":18529:18538   */\n      dup2\n        /* \"#utility.yul\":18523:18527   */\n      dup2\n        /* \"#utility.yul\":18519:18539   */\n      sub\n        /* \"#utility.yul\":18515:18516   */\n      0x00\n        /* \"#utility.yul\":18504:18513   */\n      dup4\n        /* \"#utility.yul\":18500:18517   */\n      add\n        /* \"#utility.yul\":18493:18540   */\n      mstore\n        /* \"#utility.yul\":18557:18688   */\n      tag_483\n        /* \"#utility.yul\":18683:18687   */\n      dup2\n        /* \"#utility.yul\":18557:18688   */\n      tag_427\n      jump\t// in\n    tag_483:\n        /* \"#utility.yul\":18549:18688   */\n      swap1\n      pop\n        /* \"#utility.yul\":18447:18695   */\n      swap2\n      swap1\n      pop\n      jump\t// out\n        /* \"#utility.yul\":18701:19120   */\n    tag_102:\n      0x00\n        /* \"#utility.yul\":18905:18907   */\n      0x20\n        /* \"#utility.yul\":18894:18903   */\n      dup3\n        /* \"#utility.yul\":18890:18908   */\n      add\n        /* \"#utility.yul\":18882:18908   */\n      swap1\n      pop\n        /* \"#utility.yul\":18954:18963   */\n      dup2\n        /* \"#utility.yul\":18948:18952   */\n      dup2\n        /* \"#utility.yul\":18944:18964   */\n      sub\n        /* \"#utility.yul\":18940:18941   */\n      0x00\n        /* \"#utility.yul\":18929:18938   */\n      dup4\n        /* \"#utility.yul\":18925:18942   */\n      add\n        /* \"#utility.yul\":18918:18965   */\n      mstore\n        /* \"#utility.yul\":18982:19113   */\n      tag_485\n        /* \"#utility.yul\":19108:19112   */\n      dup2\n        /* \"#utility.yul\":18982:19113   */\n      tag_432\n      jump\t// in\n    tag_485:\n        /* \"#utility.yul\":18974:19113   */\n      swap1\n      pop\n        /* \"#utility.yul\":18872:19120   */\n      swap2\n      swap1\n      pop\n      jump\t// out\n        /* \"#utility.yul\":19126:19545   */\n    tag_119:\n      0x00\n        /* \"#utility.yul\":19330:19332   */\n      0x20\n        /* \"#utility.yul\":19319:19328   */\n      dup3\n        /* \"#utility.yul\":19315:19333   */\n      add\n        /* \"#utility.yul\":19307:19333   */\n      swap1\n      pop\n        /* \"#utility.yul\":19379:19388   */\n      dup2\n        /* \"#utility.yul\":19373:19377   */\n      dup2\n        /* \"#utility.yul\":19369:19389   */\n      sub\n        /* \"#utility.yul\":19365:19366   */\n      0x00\n        /* \"#utility.yul\":19354:19363   */\n      dup4\n        /* \"#utility.yul\":19350:19367   */\n      add\n        /* \"#utility.yul\":19343:19390   */\n      mstore\n        /* \"#utility.yul\":19407:19538   */\n      tag_487\n        /* \"#utility.yul\":19533:19537   */\n      dup2\n        /* \"#utility.yul\":19407:19538   */\n      tag_437\n      jump\t// in\n    tag_487:\n        /* \"#utility.yul\":19399:19538   */\n      swap1\n      pop\n        /* \"#utility.yul\":19297:19545   */\n      swap2\n      swap1\n      pop\n      jump\t// out\n        /* \"#utility.yul\":19551:19773   */\n    tag_56:\n      0x00\n        /* \"#utility.yul\":19682:19684   */\n      0x20\n        /* \"#utility.yul\":19671:19680   */\n      dup3\n        /* \"#utility.yul\":19667:19685   */\n      add\n        /* \"#utility.yul\":19659:19685   */\n      swap1\n      pop\n        /* \"#utility.yul\":19695:19766   */\n      tag_489\n        /* \"#utility.yul\":19763:19764   */\n      0x00\n        /* \"#utility.yul\":19752:19761   */\n      dup4\n        /* \"#utility.yul\":19748:19765   */\n      add\n        /* \"#utility.yul\":19739:19745   */\n      dup5\n        /* \"#utility.yul\":19695:19766   */\n      tag_442\n      jump\t// in\n    tag_489:\n        /* \"#utility.yul\":19649:19773   */\n      swap3\n      swap2\n      pop\n      pop\n      jump\t// out\n        /* \"#utility.yul\":19779:19908   */\n    tag_277:\n      0x00\n        /* \"#utility.yul\":19840:19860   */\n      tag_491\n      tag_492\n      jump\t// in\n    tag_491:\n        /* \"#utility.yul\":19830:19860   */\n      swap1\n      pop\n        /* \"#utility.yul\":19869:19902   */\n      tag_493\n        /* \"#utility.yul\":19897:19901   */\n      dup3\n        /* \"#utility.yul\":19889:19895   */\n      dup3\n        /* \"#utility.yul\":19869:19902   */\n      tag_494\n      jump\t// in\n    tag_493:\n        /* \"#utility.yul\":19820:19908   */\n      swap2\n      swap1\n      pop\n      jump\t// out\n        /* \"#utility.yul\":19914:19989   */\n    tag_492:\n      0x00\n        /* \"#utility.yul\":19980:19982   */\n      0x40\n        /* \"#utility.yul\":19974:19983   */\n      mload\n        /* \"#utility.yul\":19964:19983   */\n      swap1\n      pop\n        /* \"#utility.yul\":19954:19989   */\n      swap1\n      jump\t// out\n        /* \"#utility.yul\":19995:20302   */\n    tag_276:\n      0x00\n        /* \"#utility.yul\":20146:20164   */\n      0xffffffffffffffff\n        /* \"#utility.yul\":20138:20144   */\n      dup3\n        /* \"#utility.yul\":20135:20165   */\n      gt\n        /* \"#utility.yul\":20132:20134   */\n      iszero\n      tag_497\n      jumpi\n        /* \"#utility.yul\":20168:20186   */\n      tag_498\n      tag_499\n      jump\t// in\n    tag_498:\n        /* \"#utility.yul\":20132:20134   */\n    tag_497:\n        /* \"#utility.yul\":20206:20235   */\n      tag_500\n        /* \"#utility.yul\":20228:20234   */\n      dup3\n        /* \"#utility.yul\":20206:20235   */\n      tag_357\n      jump\t// in\n    tag_500:\n        /* \"#utility.yul\":20198:20235   */\n      swap1\n      pop\n        /* \"#utility.yul\":20290:20294   */\n      0x20\n        /* \"#utility.yul\":20284:20288   */\n      dup2\n        /* \"#utility.yul\":20280:20295   */\n      add\n        /* \"#utility.yul\":20272:20295   */\n      swap1\n      pop\n        /* \"#utility.yul\":20061:20302   */\n      swap2\n      swap1\n      pop\n      jump\t// out\n        /* \"#utility.yul\":20308:20406   */\n    tag_351:\n      0x00\n        /* \"#utility.yul\":20393:20398   */\n      dup2\n        /* \"#utility.yul\":20387:20399   */\n      mload\n        /* \"#utility.yul\":20377:20399   */\n      swap1\n      pop\n        /* \"#utility.yul\":20366:20406   */\n      swap2\n      swap1\n      pop\n      jump\t// out\n        /* \"#utility.yul\":20412:20511   */\n    tag_361:\n      0x00\n        /* \"#utility.yul\":20498:20503   */\n      dup2\n        /* \"#utility.yul\":20492:20504   */\n      mload\n        /* \"#utility.yul\":20482:20504   */\n      swap1\n      pop\n        /* \"#utility.yul\":20471:20511   */\n      swap2\n      swap1\n      pop\n      jump\t// out\n        /* \"#utility.yul\":20517:20685   */\n    tag_353:\n      0x00\n        /* \"#utility.yul\":20634:20640   */\n      dup3\n        /* \"#utility.yul\":20629:20632   */\n      dup3\n        /* \"#utility.yul\":20622:20641   */\n      mstore\n        /* \"#utility.yul\":20674:20678   */\n      0x20\n        /* \"#utility.yul\":20669:20672   */\n      dup3\n        /* \"#utility.yul\":20665:20679   */\n      add\n        /* \"#utility.yul\":20650:20679   */\n      swap1\n      pop\n        /* \"#utility.yul\":20612:20685   */\n      swap3\n      swap2\n      pop\n      pop\n      jump\t// out\n        /* \"#utility.yul\":20691:20860   */\n    tag_363:\n      0x00\n        /* \"#utility.yul\":20809:20815   */\n      dup3\n        /* \"#utility.yul\":20804:20807   */\n      dup3\n        /* \"#utility.yul\":20797:20816   */\n      mstore\n        /* \"#utility.yul\":20849:20853   */\n      0x20\n        /* \"#utility.yul\":20844:20847   */\n      dup3\n        /* \"#utility.yul\":20840:20854   */\n      add\n        /* \"#utility.yul\":20825:20854   */\n      swap1\n      pop\n        /* \"#utility.yul\":20787:20860   */\n      swap3\n      swap2\n      pop\n      pop\n      jump\t// out\n        /* \"#utility.yul\":20866:21014   */\n    tag_370:\n      0x00\n        /* \"#utility.yul\":21005:21008   */\n      dup2\n        /* \"#utility.yul\":20990:21008   */\n      swap1\n      pop\n        /* \"#utility.yul\":20980:21014   */\n      swap3\n      swap2\n      pop\n      pop\n      jump\t// out\n        /* \"#utility.yul\":21020:21325   */\n    tag_195:\n      0x00\n        /* \"#utility.yul\":21079:21099   */\n      tag_507\n        /* \"#utility.yul\":21097:21098   */\n      dup3\n        /* \"#utility.yul\":21079:21099   */\n      tag_445\n      jump\t// in\n    tag_507:\n        /* \"#utility.yul\":21074:21099   */\n      swap2\n      pop\n        /* \"#utility.yul\":21113:21133   */\n      tag_508\n        /* \"#utility.yul\":21131:21132   */\n      dup4\n        /* \"#utility.yul\":21113:21133   */\n      tag_445\n      jump\t// in\n    tag_508:\n        /* \"#utility.yul\":21108:21133   */\n      swap3\n      pop\n        /* \"#utility.yul\":21267:21268   */\n      dup3\n        /* \"#utility.yul\":21199:21265   */\n      0xffffffffffffffffffffffffffffffffffffffffffffffffffffffffffffffff\n        /* \"#utility.yul\":21195:21269   */\n      sub\n        /* \"#utility.yul\":21192:21193   */\n      dup3\n        /* \"#utility.yul\":21189:21270   */\n      gt\n        /* \"#utility.yul\":21186:21188   */\n      iszero\n      tag_509\n      jumpi\n        /* \"#utility.yul\":21273:21291   */\n      tag_510\n      tag_511\n      jump\t// in\n    tag_510:\n        /* \"#utility.yul\":21186:21188   */\n    tag_509:\n        /* \"#utility.yul\":21317:21318   */\n      dup3\n        /* \"#utility.yul\":21314:21315   */\n      dup3\n        /* \"#utility.yul\":21310:21319   */\n      add\n        /* \"#utility.yul\":21303:21319   */\n      swap1\n      pop\n        /* \"#utility.yul\":21064:21325   */\n      swap3\n      swap2\n      pop\n      pop\n      jump\t// out\n        /* \"#utility.yul\":21331:21516   */\n    tag_224:\n      0x00\n        /* \"#utility.yul\":21388:21408   */\n      tag_513\n        /* \"#utility.yul\":21406:21407   */\n      dup3\n        /* \"#utility.yul\":21388:21408   */\n      tag_445\n      jump\t// in\n    tag_513:\n        /* \"#utility.yul\":21383:21408   */\n      swap2\n      pop\n        /* \"#utility.yul\":21422:21442   */\n      tag_514\n        /* \"#utility.yul\":21440:21441   */\n      dup4\n        /* \"#utility.yul\":21422:21442   */\n      tag_445\n      jump\t// in\n    tag_514:\n        /* \"#utility.yul\":21417:21442   */\n      swap3\n      pop\n        /* \"#utility.yul\":21461:21462   */\n      dup3\n        /* \"#utility.yul\":21451:21453   */\n      tag_515\n      jumpi\n        /* \"#utility.yul\":21466:21484   */\n      tag_516\n      tag_517\n      jump\t// in\n    tag_516:\n        /* \"#utility.yul\":21451:21453   */\n    tag_515:\n        /* \"#utility.yul\":21508:21509   */\n      dup3\n        /* \"#utility.yul\":21505:21506   */\n      dup3\n        /* \"#utility.yul\":21501:21510   */\n      div\n        /* \"#utility.yul\":21496:21510   */\n      swap1\n      pop\n        /* \"#utility.yul\":21373:21516   */\n      swap3\n      swap2\n      pop\n      pop\n      jump\t// out\n        /* \"#utility.yul\":21522:21713   */\n    tag_193:\n      0x00\n        /* \"#utility.yul\":21582:21602   */\n      tag_519\n        /* \"#utility.yul\":21600:21601   */\n      dup3\n        /* \"#utility.yul\":21582:21602   */\n      tag_445\n      jump\t// in\n    tag_519:\n        /* \"#utility.yul\":21577:21602   */\n      swap2\n      pop\n        /* \"#utility.yul\":21616:21636   */\n      tag_520\n        /* \"#utility.yul\":21634:21635   */\n      dup4\n        /* \"#utility.yul\":21616:21636   */\n      tag_445\n      jump\t// in\n    tag_520:\n        /* \"#utility.yul\":21611:21636   */\n      swap3\n      pop\n        /* \"#utility.yul\":21655:21656   */\n      dup3\n        /* \"#utility.yul\":21652:21653   */\n      dup3\n        /* \"#utility.yul\":21649:21657   */\n      lt\n        /* \"#utility.yul\":21646:21648   */\n      iszero\n      tag_521\n      jumpi\n        /* \"#utility.yul\":21660:21678   */\n      tag_522\n      tag_511\n      jump\t// in\n    tag_522:\n        /* \"#utility.yul\":21646:21648   */\n    tag_521:\n        /* \"#utility.yul\":21705:21706   */\n      dup3\n        /* \"#utility.yul\":21702:21703   */\n      dup3\n        /* \"#utility.yul\":21698:21707   */\n      sub\n        /* \"#utility.yul\":21690:21707   */\n      swap1\n      pop\n        /* \"#utility.yul\":21567:21713   */\n      swap3\n      swap2\n      pop\n      pop\n      jump\t// out\n        /* \"#utility.yul\":21719:21815   */\n    tag_343:\n      0x00\n        /* \"#utility.yul\":21785:21809   */\n      tag_524\n        /* \"#utility.yul\":21803:21808   */\n      dup3\n        /* \"#utility.yul\":21785:21809   */\n      tag_525\n      jump\t// in\n    tag_524:\n        /* \"#utility.yul\":21774:21809   */\n      swap1\n      pop\n        /* \"#utility.yul\":21764:21815   */\n      swap2\n      swap1\n      pop\n      jump\t// out\n        /* \"#utility.yul\":21821:21911   */\n    tag_347:\n      0x00\n        /* \"#utility.yul\":21898:21903   */\n      dup2\n        /* \"#utility.yul\":21891:21904   */\n      iszero\n        /* \"#utility.yul\":21884:21905   */\n      iszero\n        /* \"#utility.yul\":21873:21905   */\n      swap1\n      pop\n        /* \"#utility.yul\":21863:21911   */\n      swap2\n      swap1\n      pop\n      jump\t// out\n        /* \"#utility.yul\":21917:22066   */\n    tag_527:\n      0x00\n        /* \"#utility.yul\":21993:22059   */\n      0xffffffff00000000000000000000000000000000000000000000000000000000\n        /* \"#utility.yul\":21986:21991   */\n      dup3\n        /* \"#utility.yul\":21982:22060   */\n      and\n        /* \"#utility.yul\":21971:22060   */\n      swap1\n      pop\n        /* \"#utility.yul\":21961:22066   */\n      swap2\n      swap1\n      pop\n      jump\t// out\n        /* \"#utility.yul\":22072:22198   */\n    tag_525:\n      0x00\n        /* \"#utility.yul\":22149:22191   */\n      0xffffffffffffffffffffffffffffffffffffffff\n        /* \"#utility.yul\":22142:22147   */\n      dup3\n        /* \"#utility.yul\":22138:22192   */\n      and\n        /* \"#utility.yul\":22127:22192   */\n      swap1\n      pop\n        /* \"#utility.yul\":22117:22198   */\n      swap2\n      swap1\n      pop\n      jump\t// out\n        /* \"#utility.yul\":22204:22281   */\n    tag_445:\n      0x00\n        /* \"#utility.yul\":22270:22275   */\n      dup2\n        /* \"#utility.yul\":22259:22275   */\n      swap1\n      pop\n        /* \"#utility.yul\":22249:22281   */\n      swap2\n      swap1\n      pop\n      jump\t// out\n        /* \"#utility.yul\":22287:22441   */\n    tag_280:\n        /* \"#utility.yul\":22371:22377   */\n      dup3\n        /* \"#utility.yul\":22366:22369   */\n      dup2\n        /* \"#utility.yul\":22361:22364   */\n      dup4\n        /* \"#utility.yul\":22348:22378   */\n      calldatacopy\n        /* \"#utility.yul\":22433:22434   */\n      0x00\n        /* \"#utility.yul\":22424:22430   */\n      dup4\n        /* \"#utility.yul\":22419:22422   */\n      dup4\n        /* \"#utility.yul\":22415:22431   */\n      add\n        /* \"#utility.yul\":22408:22435   */\n      mstore\n        /* \"#utility.yul\":22338:22441   */\n      pop\n      pop\n      pop\n      jump\t// out\n        /* \"#utility.yul\":22447:22754   */\n    tag_355:\n        /* \"#utility.yul\":22515:22516   */\n      0x00\n        /* \"#utility.yul\":22525:22638   */\n    tag_533:\n        /* \"#utility.yul\":22539:22545   */\n      dup4\n        /* \"#utility.yul\":22536:22537   */\n      dup2\n        /* \"#utility.yul\":22533:22546   */\n      lt\n        /* \"#utility.yul\":22525:22638   */\n      iszero\n      tag_535\n      jumpi\n        /* \"#utility.yul\":22624:22625   */\n      dup1\n        /* \"#utility.yul\":22619:22622   */\n      dup3\n        /* \"#utility.yul\":22615:22626   */\n      add\n        /* \"#utility.yul\":22609:22627   */\n      mload\n        /* \"#utility.yul\":22605:22606   */\n      dup2\n        /* \"#utility.yul\":22600:22603   */\n      dup5\n        /* \"#utility.yul\":22596:22607   */\n      add\n        /* \"#utility.yul\":22589:22628   */\n      mstore\n        /* \"#utility.yul\":22561:22563   */\n      0x20\n        /* \"#utility.yul\":22558:22559   */\n      dup2\n        /* \"#utility.yul\":22554:22564   */\n      add\n        /* \"#utility.yul\":22549:22564   */\n      swap1\n      pop\n        /* \"#utility.yul\":22525:22638   */\n      jump(tag_533)\n    tag_535:\n        /* \"#utility.yul\":22656:22662   */\n      dup4\n        /* \"#utility.yul\":22653:22654   */\n      dup2\n        /* \"#utility.yul\":22650:22663   */\n      gt\n        /* \"#utility.yul\":22647:22649   */\n      iszero\n      tag_536\n      jumpi\n        /* \"#utility.yul\":22736:22737   */\n      0x00\n        /* \"#utility.yul\":22727:22733   */\n      dup5\n        /* \"#utility.yul\":22722:22725   */\n      dup5\n        /* \"#utility.yul\":22718:22734   */\n      add\n        /* \"#utility.yul\":22711:22738   */\n      mstore\n        /* \"#utility.yul\":22647:22649   */\n    tag_536:\n        /* \"#utility.yul\":22496:22754   */\n      pop\n      pop\n      pop\n      pop\n      jump\t// out\n        /* \"#utility.yul\":22760:23080   */\n    tag_87:\n      0x00\n        /* \"#utility.yul\":22841:22842   */\n      0x02\n        /* \"#utility.yul\":22835:22839   */\n      dup3\n        /* \"#utility.yul\":22831:22843   */\n      div\n        /* \"#utility.yul\":22821:22843   */\n      swap1\n      pop\n        /* \"#utility.yul\":22888:22889   */\n      0x01\n        /* \"#utility.yul\":22882:22886   */\n      dup3\n        /* \"#utility.yul\":22878:22890   */\n      and\n        /* \"#utility.yul\":22909:22927   */\n      dup1\n        /* \"#utility.yul\":22899:22901   */\n      tag_538\n      jumpi\n        /* \"#utility.yul\":22965:22969   */\n      0x7f\n        /* \"#utility.yul\":22957:22963   */\n      dup3\n        /* \"#utility.yul\":22953:22970   */\n      and\n        /* \"#utility.yul\":22943:22970   */\n      swap2\n      pop\n        /* \"#utility.yul\":22899:22901   */\n    tag_538:\n        /* \"#utility.yul\":23027:23029   */\n      0x20\n        /* \"#utility.yul\":23019:23025   */\n      dup3\n        /* \"#utility.yul\":23016:23030   */\n      lt\n        /* \"#utility.yul\":22996:23014   */\n      dup2\n        /* \"#utility.yul\":22993:23031   */\n      eq\n        /* \"#utility.yul\":22990:22992   */\n      iszero\n      tag_539\n      jumpi\n        /* \"#utility.yul\":23046:23064   */\n      tag_540\n      tag_541\n      jump\t// in\n    tag_540:\n        /* \"#utility.yul\":22990:22992   */\n    tag_539:\n        /* \"#utility.yul\":22811:23080   */\n      pop\n      swap2\n      swap1\n      pop\n      jump\t// out\n        /* \"#utility.yul\":23086:23367   */\n    tag_494:\n        /* \"#utility.yul\":23169:23196   */\n      tag_543\n        /* \"#utility.yul\":23191:23195   */\n      dup3\n        /* \"#utility.yul\":23169:23196   */\n      tag_357\n      jump\t// in\n    tag_543:\n        /* \"#utility.yul\":23161:23167   */\n      dup2\n        /* \"#utility.yul\":23157:23197   */\n      add\n        /* \"#utility.yul\":23299:23305   */\n      dup2\n        /* \"#utility.yul\":23287:23297   */\n      dup2\n        /* \"#utility.yul\":23284:23306   */\n      lt\n        /* \"#utility.yul\":23263:23281   */\n      0xffffffffffffffff\n        /* \"#utility.yul\":23251:23261   */\n      dup3\n        /* \"#utility.yul\":23248:23282   */\n      gt\n        /* \"#utility.yul\":23245:23307   */\n      or\n        /* \"#utility.yul\":23242:23244   */\n      iszero\n      tag_544\n      jumpi\n        /* \"#utility.yul\":23310:23328   */\n      tag_545\n      tag_499\n      jump\t// in\n    tag_545:\n        /* \"#utility.yul\":23242:23244   */\n    tag_544:\n        /* \"#utility.yul\":23350:23360   */\n      dup1\n        /* \"#utility.yul\":23346:23348   */\n      0x40\n        /* \"#utility.yul\":23339:23361   */\n      mstore\n        /* \"#utility.yul\":23129:23367   */\n      pop\n      pop\n      pop\n      jump\t// out\n        /* \"#utility.yul\":23373:23606   */\n    tag_222:\n      0x00\n        /* \"#utility.yul\":23435:23459   */\n      tag_547\n        /* \"#utility.yul\":23453:23458   */\n      dup3\n        /* \"#utility.yul\":23435:23459   */\n      tag_445\n      jump\t// in\n    tag_547:\n        /* \"#utility.yul\":23426:23459   */\n      swap2\n      pop\n        /* \"#utility.yul\":23481:23547   */\n      0xffffffffffffffffffffffffffffffffffffffffffffffffffffffffffffffff\n        /* \"#utility.yul\":23474:23479   */\n      dup3\n        /* \"#utility.yul\":23471:23548   */\n      eq\n        /* \"#utility.yul\":23468:23470   */\n      iszero\n      tag_548\n      jumpi\n        /* \"#utility.yul\":23551:23569   */\n      tag_549\n      tag_511\n      jump\t// in\n    tag_549:\n        /* \"#utility.yul\":23468:23470   */\n    tag_548:\n        /* \"#utility.yul\":23598:23599   */\n      0x01\n        /* \"#utility.yul\":23591:23596   */\n      dup3\n        /* \"#utility.yul\":23587:23600   */\n      add\n        /* \"#utility.yul\":23580:23600   */\n      swap1\n      pop\n        /* \"#utility.yul\":23416:23606   */\n      swap2\n      swap1\n      pop\n      jump\t// out\n        /* \"#utility.yul\":23612:23788   */\n    tag_231:\n      0x00\n        /* \"#utility.yul\":23661:23681   */\n      tag_551\n        /* \"#utility.yul\":23679:23680   */\n      dup3\n        /* \"#utility.yul\":23661:23681   */\n      tag_445\n      jump\t// in\n    tag_551:\n        /* \"#utility.yul\":23656:23681   */\n      swap2\n      pop\n        /* \"#utility.yul\":23695:23715   */\n      tag_552\n        /* \"#utility.yul\":23713:23714   */\n      dup4\n        /* \"#utility.yul\":23695:23715   */\n      tag_445\n      jump\t// in\n    tag_552:\n        /* \"#utility.yul\":23690:23715   */\n      swap3\n      pop\n        /* \"#utility.yul\":23734:23735   */\n      dup3\n        /* \"#utility.yul\":23724:23726   */\n      tag_553\n      jumpi\n        /* \"#utility.yul\":23739:23757   */\n      tag_554\n      tag_517\n      jump\t// in\n    tag_554:\n        /* \"#utility.yul\":23724:23726   */\n    tag_553:\n        /* \"#utility.yul\":23780:23781   */\n      dup3\n        /* \"#utility.yul\":23777:23778   */\n      dup3\n        /* \"#utility.yul\":23773:23782   */\n      mod\n        /* \"#utility.yul\":23768:23782   */\n      swap1\n      pop\n        /* \"#utility.yul\":23646:23788   */\n      swap3\n      swap2\n      pop\n      pop\n      jump\t// out\n        /* \"#utility.yul\":23794:23974   */\n    tag_511:\n        /* \"#utility.yul\":23842:23919   */\n      0x4e487b7100000000000000000000000000000000000000000000000000000000\n        /* \"#utility.yul\":23839:23840   */\n      0x00\n        /* \"#utility.yul\":23832:23920   */\n      mstore\n        /* \"#utility.yul\":23939:23943   */\n      0x11\n        /* \"#utility.yul\":23936:23937   */\n      0x04\n        /* \"#utility.yul\":23929:23944   */\n      mstore\n        /* \"#utility.yul\":23963:23967   */\n      0x24\n        /* \"#utility.yul\":23960:23961   */\n      0x00\n        /* \"#utility.yul\":23953:23968   */\n      revert\n        /* \"#utility.yul\":23980:24160   */\n    tag_517:\n        /* \"#utility.yul\":24028:24105   */\n      0x4e487b7100000000000000000000000000000000000000000000000000000000\n        /* \"#utility.yul\":24025:24026   */\n      0x00\n        /* \"#utility.yul\":24018:24106   */\n      mstore\n        /* \"#utility.yul\":24125:24129   */\n      0x12\n        /* \"#utility.yul\":24122:24123   */\n      0x04\n        /* \"#utility.yul\":24115:24130   */\n      mstore\n        /* \"#utility.yul\":24149:24153   */\n      0x24\n        /* \"#utility.yul\":24146:24147   */\n      0x00\n        /* \"#utility.yul\":24139:24154   */\n      revert\n        /* \"#utility.yul\":24166:24346   */\n    tag_541:\n        /* \"#utility.yul\":24214:24291   */\n      0x4e487b7100000000000000000000000000000000000000000000000000000000\n        /* \"#utility.yul\":24211:24212   */\n      0x00\n        /* \"#utility.yul\":24204:24292   */\n      mstore\n        /* \"#utility.yul\":24311:24315   */\n      0x22\n        /* \"#utility.yul\":24308:24309   */\n      0x04\n        /* \"#utility.yul\":24301:24316   */\n      mstore\n        /* \"#utility.yul\":24335:24339   */\n      0x24\n        /* \"#utility.yul\":24332:24333   */\n      0x00\n        /* \"#utility.yul\":24325:24340   */\n      revert\n        /* \"#utility.yul\":24352:24532   */\n    tag_499:\n        /* \"#utility.yul\":24400:24477   */\n      0x4e487b7100000000000000000000000000000000000000000000000000000000\n        /* \"#utility.yul\":24397:24398   */\n      0x00\n        /* \"#utility.yul\":24390:24478   */\n      mstore\n        /* \"#utility.yul\":24497:24501   */\n      0x41\n        /* \"#utility.yul\":24494:24495   */\n      0x04\n        /* \"#utility.yul\":24487:24502   */\n      mstore\n        /* \"#utility.yul\":24521:24525   */\n      0x24\n        /* \"#utility.yul\":24518:24519   */\n      0x00\n        /* \"#utility.yul\":24511:24526   */\n      revert\n        /* \"#utility.yul\":24538:24640   */\n    tag_357:\n      0x00\n        /* \"#utility.yul\":24630:24632   */\n      0x1f\n        /* \"#utility.yul\":24626:24633   */\n      not\n        /* \"#utility.yul\":24621:24623   */\n      0x1f\n        /* \"#utility.yul\":24614:24619   */\n      dup4\n        /* \"#utility.yul\":24610:24624   */\n      add\n        /* \"#utility.yul\":24606:24634   */\n      and\n        /* \"#utility.yul\":24596:24634   */\n      swap1\n      pop\n        /* \"#utility.yul\":24586:24640   */\n      swap2\n      swap1\n      pop\n      jump\t// out\n        /* \"#utility.yul\":24646:24883   */\n    tag_376:\n        /* \"#utility.yul\":24786:24820   */\n      0x4552433732313a207472616e7366657220746f206e6f6e204552433732315265\n        /* \"#utility.yul\":24782:24783   */\n      0x00\n        /* \"#utility.yul\":24774:24780   */\n      dup3\n        /* \"#utility.yul\":24770:24784   */\n      add\n        /* \"#utility.yul\":24763:24821   */\n      mstore\n        /* \"#utility.yul\":24855:24875   */\n      0x63656976657220696d706c656d656e7465720000000000000000000000000000\n        /* \"#utility.yul\":24850:24852   */\n      0x20\n        /* \"#utility.yul\":24842:24848   */\n      dup3\n        /* \"#utility.yul\":24838:24853   */\n      add\n        /* \"#utility.yul\":24831:24876   */\n      mstore\n        /* \"#utility.yul\":24752:24883   */\n      pop\n      jump\t// out\n        /* \"#utility.yul\":24889:25113   */\n    tag_381:\n        /* \"#utility.yul\":25029:25063   */\n      0x4552433732313a207472616e736665722066726f6d20696e636f727265637420\n        /* \"#utility.yul\":25025:25026   */\n      0x00\n        /* \"#utility.yul\":25017:25023   */\n      dup3\n        /* \"#utility.yul\":25013:25027   */\n      add\n        /* \"#utility.yul\":25006:25064   */\n      mstore\n        /* \"#utility.yul\":25098:25105   */\n      0x6f776e6572000000000000000000000000000000000000000000000000000000\n        /* \"#utility.yul\":25093:25095   */\n      0x20\n        /* \"#utility.yul\":25085:25091   */\n      dup3\n        /* \"#utility.yul\":25081:25096   */\n      add\n        /* \"#utility.yul\":25074:25106   */\n      mstore\n        /* \"#utility.yul\":24995:25113   */\n      pop\n      jump\t// out\n        /* \"#utility.yul\":25119:25297   */\n    tag_386:\n        /* \"#utility.yul\":25259:25289   */\n      0x4552433732313a20746f6b656e20616c7265616479206d696e74656400000000\n        /* \"#utility.yul\":25255:25256   */\n      0x00\n        /* \"#utility.yul\":25247:25253   */\n      dup3\n        /* \"#utility.yul\":25243:25257   */\n      add\n        /* \"#utility.yul\":25236:25290   */\n      mstore\n        /* \"#utility.yul\":25225:25297   */\n      pop\n      jump\t// out\n        /* \"#utility.yul\":25303:25526   */\n    tag_391:\n        /* \"#utility.yul\":25443:25477   */\n      0x4552433732313a207472616e7366657220746f20746865207a65726f20616464\n        /* \"#utility.yul\":25439:25440   */\n      0x00\n        /* \"#utility.yul\":25431:25437   */\n      dup3\n        /* \"#utility.yul\":25427:25441   */\n      add\n        /* \"#utility.yul\":25420:25478   */\n      mstore\n        /* \"#utility.yul\":25512:25518   */\n      0x7265737300000000000000000000000000000000000000000000000000000000\n        /* \"#utility.yul\":25507:25509   */\n      0x20\n        /* \"#utility.yul\":25499:25505   */\n      dup3\n        /* \"#utility.yul\":25495:25510   */\n      add\n        /* \"#utility.yul\":25488:25519   */\n      mstore\n        /* \"#utility.yul\":25409:25526   */\n      pop\n      jump\t// out\n        /* \"#utility.yul\":25532:25707   */\n    tag_396:\n        /* \"#utility.yul\":25672:25699   */\n      0x4552433732313a20617070726f766520746f2063616c6c657200000000000000\n        /* \"#utility.yul\":25668:25669   */\n      0x00\n        /* \"#utility.yul\":25660:25666   */\n      dup3\n        /* \"#utility.yul\":25656:25670   */\n      add\n        /* \"#utility.yul\":25649:25700   */\n      mstore\n        /* \"#utility.yul\":25638:25707   */\n      pop\n      jump\t// out\n        /* \"#utility.yul\":25713:25944   */\n    tag_401:\n        /* \"#utility.yul\":25853:25887   */\n      0x4552433732313a206f70657261746f7220717565727920666f72206e6f6e6578\n        /* \"#utility.yul\":25849:25850   */\n      0x00\n        /* \"#utility.yul\":25841:25847   */\n      dup3\n        /* \"#utility.yul\":25837:25851   */\n      add\n        /* \"#utility.yul\":25830:25888   */\n      mstore\n        /* \"#utility.yul\":25922:25936   */\n      0x697374656e7420746f6b656e0000000000000000000000000000000000000000\n        /* \"#utility.yul\":25917:25919   */\n      0x20\n        /* \"#utility.yul\":25909:25915   */\n      dup3\n        /* \"#utility.yul\":25905:25920   */\n      add\n        /* \"#utility.yul\":25898:25937   */\n      mstore\n        /* \"#utility.yul\":25819:25944   */\n      pop\n      jump\t// out\n        /* \"#utility.yul\":25950:26193   */\n    tag_406:\n        /* \"#utility.yul\":26090:26124   */\n      0x4552433732313a20617070726f76652063616c6c6572206973206e6f74206f77\n        /* \"#utility.yul\":26086:26087   */\n      0x00\n        /* \"#utility.yul\":26078:26084   */\n      dup3\n        /* \"#utility.yul\":26074:26088   */\n      add\n        /* \"#utility.yul\":26067:26125   */\n      mstore\n        /* \"#utility.yul\":26159:26185   */\n      0x6e6572206e6f7220617070726f76656420666f7220616c6c0000000000000000\n        /* \"#utility.yul\":26154:26156   */\n      0x20\n        /* \"#utility.yul\":26146:26152   */\n      dup3\n        /* \"#utility.yul\":26142:26157   */\n      add\n        /* \"#utility.yul\":26135:26186   */\n      mstore\n        /* \"#utility.yul\":26056:26193   */\n      pop\n      jump\t// out\n        /* \"#utility.yul\":26199:26428   */\n    tag_411:\n        /* \"#utility.yul\":26339:26373   */\n      0x4552433732313a2062616c616e636520717565727920666f7220746865207a65\n        /* \"#utility.yul\":26335:26336   */\n      0x00\n        /* \"#utility.yul\":26327:26333   */\n      dup3\n        /* \"#utility.yul\":26323:26337   */\n      add\n        /* \"#utility.yul\":26316:26374   */\n      mstore\n        /* \"#utility.yul\":26408:26420   */\n      0x726f206164647265737300000000000000000000000000000000000000000000\n        /* \"#utility.yul\":26403:26405   */\n      0x20\n        /* \"#utility.yul\":26395:26401   */\n      dup3\n        /* \"#utility.yul\":26391:26406   */\n      add\n        /* \"#utility.yul\":26384:26421   */\n      mstore\n        /* \"#utility.yul\":26305:26428   */\n      pop\n      jump\t// out\n        /* \"#utility.yul\":26434:26662   */\n    tag_416:\n        /* \"#utility.yul\":26574:26608   */\n      0x4552433732313a206f776e657220717565727920666f72206e6f6e6578697374\n        /* \"#utility.yul\":26570:26571   */\n      0x00\n        /* \"#utility.yul\":26562:26568   */\n      dup3\n        /* \"#utility.yul\":26558:26572   */\n      add\n        /* \"#utility.yul\":26551:26609   */\n      mstore\n        /* \"#utility.yul\":26643:26654   */\n      0x656e7420746f6b656e0000000000000000000000000000000000000000000000\n        /* \"#utility.yul\":26638:26640   */\n      0x20\n        /* \"#utility.yul\":26630:26636   */\n      dup3\n        /* \"#utility.yul\":26626:26641   */\n      add\n        /* \"#utility.yul\":26619:26655   */\n      mstore\n        /* \"#utility.yul\":26540:26662   */\n      pop\n      jump\t// out\n        /* \"#utility.yul\":26668:26850   */\n    tag_421:\n        /* \"#utility.yul\":26808:26842   */\n      0x4552433732313a206d696e7420746f20746865207a65726f2061646472657373\n        /* \"#utility.yul\":26804:26805   */\n      0x00\n        /* \"#utility.yul\":26796:26802   */\n      dup3\n        /* \"#utility.yul\":26792:26806   */\n      add\n        /* \"#utility.yul\":26785:26843   */\n      mstore\n        /* \"#utility.yul\":26774:26850   */\n      pop\n      jump\t// out\n        /* \"#utility.yul\":26856:27087   */\n    tag_426:\n        /* \"#utility.yul\":26996:27030   */\n      0x4552433732313a20617070726f76656420717565727920666f72206e6f6e6578\n        /* \"#utility.yul\":26992:26993   */\n      0x00\n        /* \"#utility.yul\":26984:26990   */\n      dup3\n        /* \"#utility.yul\":26980:26994   */\n      add\n        /* \"#utility.yul\":26973:27031   */\n      mstore\n        /* \"#utility.yul\":27065:27079   */\n      0x697374656e7420746f6b656e0000000000000000000000000000000000000000\n        /* \"#utility.yul\":27060:27062   */\n      0x20\n        /* \"#utility.yul\":27052:27058   */\n      dup3\n        /* \"#utility.yul\":27048:27063   */\n      add\n        /* \"#utility.yul\":27041:27080   */\n      mstore\n        /* \"#utility.yul\":26962:27087   */\n      pop\n      jump\t// out\n        /* \"#utility.yul\":27093:27327   */\n    tag_431:\n        /* \"#utility.yul\":27233:27267   */\n      0x4552433732314d657461646174613a2055524920717565727920666f72206e6f\n        /* \"#utility.yul\":27229:27230   */\n      0x00\n        /* \"#utility.yul\":27221:27227   */\n      dup3\n        /* \"#utility.yul\":27217:27231   */\n      add\n        /* \"#utility.yul\":27210:27268   */\n      mstore\n        /* \"#utility.yul\":27302:27319   */\n      0x6e6578697374656e7420746f6b656e0000000000000000000000000000000000\n        /* \"#utility.yul\":27297:27299   */\n      0x20\n        /* \"#utility.yul\":27289:27295   */\n      dup3\n        /* \"#utility.yul\":27285:27300   */\n      add\n        /* \"#utility.yul\":27278:27320   */\n      mstore\n        /* \"#utility.yul\":27199:27327   */\n      pop\n      jump\t// out\n        /* \"#utility.yul\":27333:27553   */\n    tag_436:\n        /* \"#utility.yul\":27473:27507   */\n      0x4552433732313a20617070726f76616c20746f2063757272656e74206f776e65\n        /* \"#utility.yul\":27469:27470   */\n      0x00\n        /* \"#utility.yul\":27461:27467   */\n      dup3\n        /* \"#utility.yul\":27457:27471   */\n      add\n        /* \"#utility.yul\":27450:27508   */\n      mstore\n        /* \"#utility.yul\":27542:27545   */\n      0x7200000000000000000000000000000000000000000000000000000000000000\n        /* \"#utility.yul\":27537:27539   */\n      0x20\n        /* \"#utility.yul\":27529:27535   */\n      dup3\n        /* \"#utility.yul\":27525:27540   */\n      add\n        /* \"#utility.yul\":27518:27546   */\n      mstore\n        /* \"#utility.yul\":27439:27553   */\n      pop\n      jump\t// out\n        /* \"#utility.yul\":27559:27795   */\n    tag_441:\n        /* \"#utility.yul\":27699:27733   */\n      0x4552433732313a207472616e736665722063616c6c6572206973206e6f74206f\n        /* \"#utility.yul\":27695:27696   */\n      0x00\n        /* \"#utility.yul\":27687:27693   */\n      dup3\n        /* \"#utility.yul\":27683:27697   */\n      add\n        /* \"#utility.yul\":27676:27734   */\n      mstore\n        /* \"#utility.yul\":27768:27787   */\n      0x776e6572206e6f7220617070726f766564000000000000000000000000000000\n        /* \"#utility.yul\":27763:27765   */\n      0x20\n        /* \"#utility.yul\":27755:27761   */\n      dup3\n        /* \"#utility.yul\":27751:27766   */\n      add\n        /* \"#utility.yul\":27744:27788   */\n      mstore\n        /* \"#utility.yul\":27665:27795   */\n      pop\n      jump\t// out\n        /* \"#utility.yul\":27801:27923   */\n    tag_284:\n        /* \"#utility.yul\":27874:27898   */\n      tag_575\n        /* \"#utility.yul\":27892:27897   */\n      dup2\n        /* \"#utility.yul\":27874:27898   */\n      tag_343\n      jump\t// in\n    tag_575:\n        /* \"#utility.yul\":27867:27872   */\n      dup2\n        /* \"#utility.yul\":27864:27899   */\n      eq\n        /* \"#utility.yul\":27854:27856   */\n      tag_576\n      jumpi\n        /* \"#utility.yul\":27913:27914   */\n      0x00\n        /* \"#utility.yul\":27910:27911   */\n      dup1\n        /* \"#utility.yul\":27903:27915   */\n      revert\n        /* \"#utility.yul\":27854:27856   */\n    tag_576:\n        /* \"#utility.yul\":27844:27923   */\n      pop\n      jump\t// out\n        /* \"#utility.yul\":27929:28045   */\n    tag_288:\n        /* \"#utility.yul\":27999:28020   */\n      tag_578\n        /* \"#utility.yul\":28014:28019   */\n      dup2\n        /* \"#utility.yul\":27999:28020   */\n      tag_347\n      jump\t// in\n    tag_578:\n        /* \"#utility.yul\":27992:27997   */\n      dup2\n        /* \"#utility.yul\":27989:28021   */\n      eq\n        /* \"#utility.yul\":27979:27981   */\n      tag_579\n      jumpi\n        /* \"#utility.yul\":28035:28036   */\n      0x00\n        /* \"#utility.yul\":28032:28033   */\n      dup1\n        /* \"#utility.yul\":28025:28037   */\n      revert\n        /* \"#utility.yul\":27979:27981   */\n    tag_579:\n        /* \"#utility.yul\":27969:28045   */\n      pop\n      jump\t// out\n        /* \"#utility.yul\":28051:28171   */\n    tag_292:\n        /* \"#utility.yul\":28123:28146   */\n      tag_581\n        /* \"#utility.yul\":28140:28145   */\n      dup2\n        /* \"#utility.yul\":28123:28146   */\n      tag_527\n      jump\t// in\n    tag_581:\n        /* \"#utility.yul\":28116:28121   */\n      dup2\n        /* \"#utility.yul\":28113:28147   */\n      eq\n        /* \"#utility.yul\":28103:28105   */\n      tag_582\n      jumpi\n        /* \"#utility.yul\":28161:28162   */\n      0x00\n        /* \"#utility.yul\":28158:28159   */\n      dup1\n        /* \"#utility.yul\":28151:28163   */\n      revert\n        /* \"#utility.yul\":28103:28105   */\n    tag_582:\n        /* \"#utility.yul\":28093:28171   */\n      pop\n      jump\t// out\n        /* \"#utility.yul\":28177:28299   */\n    tag_303:\n        /* \"#utility.yul\":28250:28274   */\n      tag_584\n        /* \"#utility.yul\":28268:28273   */\n      dup2\n        /* \"#utility.yul\":28250:28274   */\n      tag_445\n      jump\t// in\n    tag_584:\n        /* \"#utility.yul\":28243:28248   */\n      dup2\n        /* \"#utility.yul\":28240:28275   */\n      eq\n        /* \"#utility.yul\":28230:28232   */\n      tag_585\n      jumpi\n        /* \"#utility.yul\":28289:28290   */\n      0x00\n        /* \"#utility.yul\":28286:28287   */\n      dup1\n        /* \"#utility.yul\":28279:28291   */\n      revert\n        /* \"#utility.yul\":28230:28232   */\n    tag_585:\n        /* \"#utility.yul\":28220:28299   */\n      pop\n      jump\t// out\n\n    auxdata: 0xa2646970667358221220665b1518b898ece6c3de37d3491764bf8763ba48f50a5e09c89ad6d63f3e8cc364736f6c63430008010033\n}\n",
				"bytecode": {
					"linkReferences": {},
					"object": "60806040523480156200001157600080fd5b5060405162002ca438038062002ca48339818101604052810190620000379190620002e2565b620000687f01ffc9a700000000000000000000000000000000000000000000000000000000620000e860201b60201c565b612710600460003373ffffffffffffffffffffffffffffffffffffffff1673ffffffffffffffffffffffffffffffffffffffff168152602001908152602001600020819055508160019080519060200190620000c6929190620001c0565b508060029080519060200190620000df929190620001c0565b50505062000548565b63ffffffff60e01b817bffffffffffffffffffffffffffffffffffffffffffffffffffffffff1916141562000154576040517f08c379a00000000000000000000000000000000000000000000000000000000081526004016200014b906200037c565b60405180910390fd5b6001600080837bffffffffffffffffffffffffffffffffffffffffffffffffffffffff19167bffffffffffffffffffffffffffffffffffffffffffffffffffffffff1916815260200190815260200160002060006101000a81548160ff02191690831515021790555050565b828054620001ce9062000444565b90600052602060002090601f016020900481019282620001f257600085556200023e565b82601f106200020d57805160ff19168380011785556200023e565b828001600101855582156200023e579182015b828111156200023d57825182559160200191906001019062000220565b5b5090506200024d919062000251565b5090565b5b808211156200026c57600081600090555060010162000252565b5090565b6000620002876200028184620003c7565b6200039e565b905082815260208101848484011115620002a057600080fd5b620002ad8482856200040e565b509392505050565b600082601f830112620002c757600080fd5b8151620002d984826020860162000270565b91505092915050565b60008060408385031215620002f657600080fd5b600083015167ffffffffffffffff8111156200031157600080fd5b6200031f85828601620002b5565b925050602083015167ffffffffffffffff8111156200033d57600080fd5b6200034b85828601620002b5565b9150509250929050565b600062000364601c83620003fd565b915062000371826200051f565b602082019050919050565b60006020820190508181036000830152620003978162000355565b9050919050565b6000620003aa620003bd565b9050620003b882826200047a565b919050565b6000604051905090565b600067ffffffffffffffff821115620003e557620003e4620004df565b5b620003f0826200050e565b9050602081019050919050565b600082825260208201905092915050565b60005b838110156200042e57808201518184015260208101905062000411565b838111156200043e576000848401525b50505050565b600060028204905060018216806200045d57607f821691505b60208210811415620004745762000473620004b0565b5b50919050565b62000485826200050e565b810181811067ffffffffffffffff82111715620004a757620004a6620004df565b5b80604052505050565b7f4e487b7100000000000000000000000000000000000000000000000000000000600052602260045260246000fd5b7f4e487b7100000000000000000000000000000000000000000000000000000000600052604160045260246000fd5b6000601f19601f8301169050919050565b7f4552433136353a20696e76616c696420696e7465726661636520696400000000600082015250565b61274c80620005586000396000f3fe608060405234801561001057600080fd5b50600436106100ea5760003560e01c806370a082311161008c578063b3e1c71811610066578063b3e1c7181461025b578063b88d4fde14610277578063c87b56dd14610293578063e985e9c5146102c3576100ea565b806370a08231146101f157806395d89b4114610221578063a22cb4651461023f576100ea565b8063095ea7b3116100c8578063095ea7b31461016d57806323b872dd1461018957806342842e0e146101a55780636352211e146101c1576100ea565b806301ffc9a7146100ef57806306fdde031461011f578063081812fc1461013d575b600080fd5b6101096004803603810190610104919061194e565b6102f3565b6040516101169190611d0e565b60405180910390f35b6101276103d5565b6040516101349190611d29565b60405180910390f35b610157600480360381019061015291906119a0565b610467565b6040516101649190611ca7565b60405180910390f35b61018760048036038101906101829190611912565b6104ec565b005b6101a3600480360381019061019e919061180c565b610604565b005b6101bf60048036038101906101ba919061180c565b610664565b005b6101db60048036038101906101d691906119a0565b610684565b6040516101e89190611ca7565b60405180910390f35b61020b600480360381019061020691906117a7565b610736565b6040516102189190611f0b565b60405180910390f35b6102296107ee565b6040516102369190611d29565b60405180910390f35b610259600480360381019061025491906118d6565b610880565b005b61027560048036038101906102709190611912565b610896565b005b610291600480360381019061028c919061185b565b6108b4565b005b6102ad60048036038101906102a891906119a0565b610916565b6040516102ba9190611d29565b60405180910390f35b6102dd60048036038101906102d891906117d0565b6109bd565b6040516102ea9190611d0e565b60405180910390f35b60007f80ac58cd000000000000000000000000000000000000000000000000000000007bffffffffffffffffffffffffffffffffffffffffffffffffffffffff1916827bffffffffffffffffffffffffffffffffffffffffffffffffffffffff191614806103be57507f5b5e139f000000000000000000000000000000000000000000000000000000007bffffffffffffffffffffffffffffffffffffffffffffffffffffffff1916827bffffffffffffffffffffffffffffffffffffffffffffffffffffffff1916145b806103ce57506103cd82610a51565b5b9050919050565b6060600180546103e490612130565b80601f016020809104026020016040519081016040528092919081815260200182805461041090612130565b801561045d5780601f106104325761010080835404028352916020019161045d565b820191906000526020600020905b81548152906001019060200180831161044057829003601f168201915b5050505050905090565b600061047282610ab8565b6104b1576040517f08c379a00000000000000000000000000000000000000000000000000000000081526004016104a890611e8b565b60405180910390fd5b6005600083815260200190815260200160002060009054906101000a900473ffffffffffffffffffffffffffffffffffffffff169050919050565b60006104f782610684565b90508073ffffffffffffffffffffffffffffffffffffffff168373ffffffffffffffffffffffffffffffffffffffff161415610568576040517f08c379a000000000000000000000000000000000000000000000000000000000815260040161055f90611ecb565b60405180910390fd5b8073ffffffffffffffffffffffffffffffffffffffff16610587610b24565b73ffffffffffffffffffffffffffffffffffffffff1614806105b657506105b5816105b0610b24565b6109bd565b5b6105f5576040517f08c379a00000000000000000000000000000000000000000000000000000000081526004016105ec90611e0b565b60405180910390fd5b6105ff8383610b2c565b505050565b61061561060f610b24565b82610be5565b610654576040517f08c379a000000000000000000000000000000000000000000000000000000000815260040161064b90611eeb565b60405180910390fd5b61065f838383610cc3565b505050565b61067f838383604051806020016040528060008152506108b4565b505050565b6000806003600084815260200190815260200160002060009054906101000a900473ffffffffffffffffffffffffffffffffffffffff169050600073ffffffffffffffffffffffffffffffffffffffff168173ffffffffffffffffffffffffffffffffffffffff16141561072d576040517f08c379a000000000000000000000000000000000000000000000000000000000815260040161072490611e4b565b60405180910390fd5b80915050919050565b60008073ffffffffffffffffffffffffffffffffffffffff168273ffffffffffffffffffffffffffffffffffffffff1614156107a7576040517f08c379a000000000000000000000000000000000000000000000000000000000815260040161079e90611e2b565b60405180910390fd5b600460008373ffffffffffffffffffffffffffffffffffffffff1673ffffffffffffffffffffffffffffffffffffffff168152602001908152602001600020549050919050565b6060600280546107fd90612130565b80601f016020809104026020016040519081016040528092919081815260200182805461082990612130565b80156108765780601f1061084b57610100808354040283529160200191610876565b820191906000526020600020905b81548152906001019060200180831161085957829003601f168201915b5050505050905090565b61089261088b610b24565b8383610f2a565b5050565b6108b0828260405180602001604052806000815250611097565b5050565b6108c56108bf610b24565b83610be5565b610904576040517f08c379a00000000000000000000000000000000000000000000000000000000081526004016108fb90611eeb565b60405180910390fd5b610910848484846110f2565b50505050565b606061092182610ab8565b610960576040517f08c379a000000000000000000000000000000000000000000000000000000000815260040161095790611eab565b60405180910390fd5b600061096a61114e565b9050600081511161098a57604051806020016040528060008152506109b5565b806109948461118b565b6040516020016109a5929190611c83565b6040516020818303038152906040525b915050919050565b6000600660008473ffffffffffffffffffffffffffffffffffffffff1673ffffffffffffffffffffffffffffffffffffffff16815260200190815260200160002060008373ffffffffffffffffffffffffffffffffffffffff1673ffffffffffffffffffffffffffffffffffffffff16815260200190815260200160002060009054906101000a900460ff16905092915050565b6000806000837bffffffffffffffffffffffffffffffffffffffffffffffffffffffff19167bffffffffffffffffffffffffffffffffffffffffffffffffffffffff1916815260200190815260200160002060009054906101000a900460ff169050919050565b60008073ffffffffffffffffffffffffffffffffffffffff166003600084815260200190815260200160002060009054906101000a900473ffffffffffffffffffffffffffffffffffffffff1673ffffffffffffffffffffffffffffffffffffffff1614159050919050565b600033905090565b816005600083815260200190815260200160002060006101000a81548173ffffffffffffffffffffffffffffffffffffffff021916908373ffffffffffffffffffffffffffffffffffffffff160217905550808273ffffffffffffffffffffffffffffffffffffffff16610b9f83610684565b73ffffffffffffffffffffffffffffffffffffffff167f8c5be1e5ebec7d5bd14f71427d1e84f3dd0314c0f7b2291e5b200ac8c7c3b92560405160405180910390a45050565b6000610bf082610ab8565b610c2f576040517f08c379a0000000000000000000000000000000000000000000000000000000008152600401610c2690611deb565b60405180910390fd5b6000610c3a83610684565b90508073ffffffffffffffffffffffffffffffffffffffff168473ffffffffffffffffffffffffffffffffffffffff161480610c7c5750610c7b81856109bd565b5b80610cba57508373ffffffffffffffffffffffffffffffffffffffff16610ca284610467565b73ffffffffffffffffffffffffffffffffffffffff16145b91505092915050565b8273ffffffffffffffffffffffffffffffffffffffff16610ce382610684565b73ffffffffffffffffffffffffffffffffffffffff1614610d39576040517f08c379a0000000000000000000000000000000000000000000000000000000008152600401610d3090611d6b565b60405180910390fd5b600073ffffffffffffffffffffffffffffffffffffffff168273ffffffffffffffffffffffffffffffffffffffff161415610da9576040517f08c379a0000000000000000000000000000000000000000000000000000000008152600401610da090611dab565b60405180910390fd5b610db4838383611338565b610dbf600082610b2c565b6001600460008573ffffffffffffffffffffffffffffffffffffffff1673ffffffffffffffffffffffffffffffffffffffff1681526020019081526020016000206000828254610e0f9190612046565b925050819055506001600460008473ffffffffffffffffffffffffffffffffffffffff1673ffffffffffffffffffffffffffffffffffffffff1681526020019081526020016000206000828254610e669190611fbf565b92505081905550816003600083815260200190815260200160002060006101000a81548173ffffffffffffffffffffffffffffffffffffffff021916908373ffffffffffffffffffffffffffffffffffffffff160217905550808273ffffffffffffffffffffffffffffffffffffffff168473ffffffffffffffffffffffffffffffffffffffff167fddf252ad1be2c89b69c2b068fc378daa952ba7f163c4a11628f55a4df523b3ef60405160405180910390a4610f2583838361133d565b505050565b8173ffffffffffffffffffffffffffffffffffffffff168373ffffffffffffffffffffffffffffffffffffffff161415610f99576040517f08c379a0000000000000000000000000000000000000000000000000000000008152600401610f9090611dcb565b60405180910390fd5b80600660008573ffffffffffffffffffffffffffffffffffffffff1673ffffffffffffffffffffffffffffffffffffffff16815260200190815260200160002060008473ffffffffffffffffffffffffffffffffffffffff1673ffffffffffffffffffffffffffffffffffffffff16815260200190815260200160002060006101000a81548160ff0219169083151502179055508173ffffffffffffffffffffffffffffffffffffffff168373ffffffffffffffffffffffffffffffffffffffff167f17307eab39ab6107e8899845ad3d59bd9653f200f220920489ca2b5937696c318360405161108a9190611d0e565b60405180910390a3505050565b6110a18383611342565b6110ae600084848461151c565b6110ed576040517f08c379a00000000000000000000000000000000000000000000000000000000081526004016110e490611d4b565b60405180910390fd5b505050565b6110fd848484610cc3565b6111098484848461151c565b611148576040517f08c379a000000000000000000000000000000000000000000000000000000000815260040161113f90611d4b565b60405180910390fd5b50505050565b60606040518060400160405280601281526020017f42696e616e636520536d61727420446174610000000000000000000000000000815250905090565b606060008214156111d3576040518060400160405280600181526020017f30000000000000000000000000000000000000000000000000000000000000008152509050611333565b600082905060005b600082146112055780806111ee90612193565b915050600a826111fe9190612015565b91506111db565b60008167ffffffffffffffff811115611247577f4e487b7100000000000000000000000000000000000000000000000000000000600052604160045260246000fd5b6040519080825280601f01601f1916602001820160405280156112795781602001600182028036833780820191505090505b5090505b6000851461132c576001826112929190612046565b9150600a856112a191906121dc565b60306112ad9190611fbf565b60f81b8183815181106112e9577f4e487b7100000000000000000000000000000000000000000000000000000000600052603260045260246000fd5b60200101907effffffffffffffffffffffffffffffffffffffffffffffffffffffffffffff1916908160001a905350600a856113259190612015565b945061127d565b8093505050505b919050565b505050565b505050565b600073ffffffffffffffffffffffffffffffffffffffff168273ffffffffffffffffffffffffffffffffffffffff1614156113b2576040517f08c379a00000000000000000000000000000000000000000000000000000000081526004016113a990611e6b565b60405180910390fd5b6113bb81610ab8565b156113fb576040517f08c379a00000000000000000000000000000000000000000000000000000000081526004016113f290611d8b565b60405180910390fd5b61140760008383611338565b6001600460008473ffffffffffffffffffffffffffffffffffffffff1673ffffffffffffffffffffffffffffffffffffffff16815260200190815260200160002060008282546114579190611fbf565b92505081905550816003600083815260200190815260200160002060006101000a81548173ffffffffffffffffffffffffffffffffffffffff021916908373ffffffffffffffffffffffffffffffffffffffff160217905550808273ffffffffffffffffffffffffffffffffffffffff16600073ffffffffffffffffffffffffffffffffffffffff167fddf252ad1be2c89b69c2b068fc378daa952ba7f163c4a11628f55a4df523b3ef60405160405180910390a46115186000838361133d565b5050565b600061153d8473ffffffffffffffffffffffffffffffffffffffff166116b3565b156116a6578373ffffffffffffffffffffffffffffffffffffffff1663150b7a02611566610b24565b8786866040518563ffffffff1660e01b81526004016115889493929190611cc2565b602060405180830381600087803b1580156115a257600080fd5b505af19250505080156115d357506040513d601f19601f820116820180604052508101906115d09190611977565b60015b611656573d8060008114611603576040519150601f19603f3d011682016040523d82523d6000602084013e611608565b606091505b5060008151141561164e576040517f08c379a000000000000000000000000000000000000000000000000000000000815260040161164590611d4b565b60405180910390fd5b805181602001fd5b63150b7a0260e01b7bffffffffffffffffffffffffffffffffffffffffffffffffffffffff1916817bffffffffffffffffffffffffffffffffffffffffffffffffffffffff1916149150506116ab565b600190505b949350505050565b6000808273ffffffffffffffffffffffffffffffffffffffff163b119050919050565b60006116e96116e484611f4b565b611f26565b90508281526020810184848401111561170157600080fd5b61170c8482856120ee565b509392505050565b600081359050611723816126ba565b92915050565b600081359050611738816126d1565b92915050565b60008135905061174d816126e8565b92915050565b600081519050611762816126e8565b92915050565b600082601f83011261177957600080fd5b81356117898482602086016116d6565b91505092915050565b6000813590506117a1816126ff565b92915050565b6000602082840312156117b957600080fd5b60006117c784828501611714565b91505092915050565b600080604083850312156117e357600080fd5b60006117f185828601611714565b925050602061180285828601611714565b9150509250929050565b60008060006060848603121561182157600080fd5b600061182f86828701611714565b935050602061184086828701611714565b925050604061185186828701611792565b9150509250925092565b6000806000806080858703121561187157600080fd5b600061187f87828801611714565b945050602061189087828801611714565b93505060406118a187828801611792565b925050606085013567ffffffffffffffff8111156118be57600080fd5b6118ca87828801611768565b91505092959194509250565b600080604083850312156118e957600080fd5b60006118f785828601611714565b925050602061190885828601611729565b9150509250929050565b6000806040838503121561192557600080fd5b600061193385828601611714565b925050602061194485828601611792565b9150509250929050565b60006020828403121561196057600080fd5b600061196e8482850161173e565b91505092915050565b60006020828403121561198957600080fd5b600061199784828501611753565b91505092915050565b6000602082840312156119b257600080fd5b60006119c084828501611792565b91505092915050565b6119d28161207a565b82525050565b6119e18161208c565b82525050565b60006119f282611f7c565b6119fc8185611f92565b9350611a0c8185602086016120fd565b611a15816122c9565b840191505092915050565b6000611a2b82611f87565b611a358185611fa3565b9350611a458185602086016120fd565b611a4e816122c9565b840191505092915050565b6000611a6482611f87565b611a6e8185611fb4565b9350611a7e8185602086016120fd565b80840191505092915050565b6000611a97603283611fa3565b9150611aa2826122da565b604082019050919050565b6000611aba602583611fa3565b9150611ac582612329565b604082019050919050565b6000611add601c83611fa3565b9150611ae882612378565b602082019050919050565b6000611b00602483611fa3565b9150611b0b826123a1565b604082019050919050565b6000611b23601983611fa3565b9150611b2e826123f0565b602082019050919050565b6000611b46602c83611fa3565b9150611b5182612419565b604082019050919050565b6000611b69603883611fa3565b9150611b7482612468565b604082019050919050565b6000611b8c602a83611fa3565b9150611b97826124b7565b604082019050919050565b6000611baf602983611fa3565b9150611bba82612506565b604082019050919050565b6000611bd2602083611fa3565b9150611bdd82612555565b602082019050919050565b6000611bf5602c83611fa3565b9150611c008261257e565b604082019050919050565b6000611c18602f83611fa3565b9150611c23826125cd565b604082019050919050565b6000611c3b602183611fa3565b9150611c468261261c565b604082019050919050565b6000611c5e603183611fa3565b9150611c698261266b565b604082019050919050565b611c7d816120e4565b82525050565b6000611c8f8285611a59565b9150611c9b8284611a59565b91508190509392505050565b6000602082019050611cbc60008301846119c9565b92915050565b6000608082019050611cd760008301876119c9565b611ce460208301866119c9565b611cf16040830185611c74565b8181036060830152611d0381846119e7565b905095945050505050565b6000602082019050611d2360008301846119d8565b92915050565b60006020820190508181036000830152611d438184611a20565b905092915050565b60006020820190508181036000830152611d6481611a8a565b9050919050565b60006020820190508181036000830152611d8481611aad565b9050919050565b60006020820190508181036000830152611da481611ad0565b9050919050565b60006020820190508181036000830152611dc481611af3565b9050919050565b60006020820190508181036000830152611de481611b16565b9050919050565b60006020820190508181036000830152611e0481611b39565b9050919050565b60006020820190508181036000830152611e2481611b5c565b9050919050565b60006020820190508181036000830152611e4481611b7f565b9050919050565b60006020820190508181036000830152611e6481611ba2565b9050919050565b60006020820190508181036000830152611e8481611bc5565b9050919050565b60006020820190508181036000830152611ea481611be8565b9050919050565b60006020820190508181036000830152611ec481611c0b565b9050919050565b60006020820190508181036000830152611ee481611c2e565b9050919050565b60006020820190508181036000830152611f0481611c51565b9050919050565b6000602082019050611f206000830184611c74565b92915050565b6000611f30611f41565b9050611f3c8282612162565b919050565b6000604051905090565b600067ffffffffffffffff821115611f6657611f6561229a565b5b611f6f826122c9565b9050602081019050919050565b600081519050919050565b600081519050919050565b600082825260208201905092915050565b600082825260208201905092915050565b600081905092915050565b6000611fca826120e4565b9150611fd5836120e4565b9250827fffffffffffffffffffffffffffffffffffffffffffffffffffffffffffffffff0382111561200a5761200961220d565b5b828201905092915050565b6000612020826120e4565b915061202b836120e4565b92508261203b5761203a61223c565b5b828204905092915050565b6000612051826120e4565b915061205c836120e4565b92508282101561206f5761206e61220d565b5b828203905092915050565b6000612085826120c4565b9050919050565b60008115159050919050565b60007fffffffff0000000000000000000000000000000000000000000000000000000082169050919050565b600073ffffffffffffffffffffffffffffffffffffffff82169050919050565b6000819050919050565b82818337600083830152505050565b60005b8381101561211b578082015181840152602081019050612100565b8381111561212a576000848401525b50505050565b6000600282049050600182168061214857607f821691505b6020821081141561215c5761215b61226b565b5b50919050565b61216b826122c9565b810181811067ffffffffffffffff8211171561218a5761218961229a565b5b80604052505050565b600061219e826120e4565b91507fffffffffffffffffffffffffffffffffffffffffffffffffffffffffffffffff8214156121d1576121d061220d565b5b600182019050919050565b60006121e7826120e4565b91506121f2836120e4565b9250826122025761220161223c565b5b828206905092915050565b7f4e487b7100000000000000000000000000000000000000000000000000000000600052601160045260246000fd5b7f4e487b7100000000000000000000000000000000000000000000000000000000600052601260045260246000fd5b7f4e487b7100000000000000000000000000000000000000000000000000000000600052602260045260246000fd5b7f4e487b7100000000000000000000000000000000000000000000000000000000600052604160045260246000fd5b6000601f19601f8301169050919050565b7f4552433732313a207472616e7366657220746f206e6f6e20455243373231526560008201527f63656976657220696d706c656d656e7465720000000000000000000000000000602082015250565b7f4552433732313a207472616e736665722066726f6d20696e636f72726563742060008201527f6f776e6572000000000000000000000000000000000000000000000000000000602082015250565b7f4552433732313a20746f6b656e20616c7265616479206d696e74656400000000600082015250565b7f4552433732313a207472616e7366657220746f20746865207a65726f2061646460008201527f7265737300000000000000000000000000000000000000000000000000000000602082015250565b7f4552433732313a20617070726f766520746f2063616c6c657200000000000000600082015250565b7f4552433732313a206f70657261746f7220717565727920666f72206e6f6e657860008201527f697374656e7420746f6b656e0000000000000000000000000000000000000000602082015250565b7f4552433732313a20617070726f76652063616c6c6572206973206e6f74206f7760008201527f6e6572206e6f7220617070726f76656420666f7220616c6c0000000000000000602082015250565b7f4552433732313a2062616c616e636520717565727920666f7220746865207a6560008201527f726f206164647265737300000000000000000000000000000000000000000000602082015250565b7f4552433732313a206f776e657220717565727920666f72206e6f6e657869737460008201527f656e7420746f6b656e0000000000000000000000000000000000000000000000602082015250565b7f4552433732313a206d696e7420746f20746865207a65726f2061646472657373600082015250565b7f4552433732313a20617070726f76656420717565727920666f72206e6f6e657860008201527f697374656e7420746f6b656e0000000000000000000000000000000000000000602082015250565b7f4552433732314d657461646174613a2055524920717565727920666f72206e6f60008201527f6e6578697374656e7420746f6b656e0000000000000000000000000000000000602082015250565b7f4552433732313a20617070726f76616c20746f2063757272656e74206f776e6560008201527f7200000000000000000000000000000000000000000000000000000000000000602082015250565b7f4552433732313a207472616e736665722063616c6c6572206973206e6f74206f60008201527f776e6572206e6f7220617070726f766564000000000000000000000000000000602082015250565b6126c38161207a565b81146126ce57600080fd5b50565b6126da8161208c565b81146126e557600080fd5b50565b6126f181612098565b81146126fc57600080fd5b50565b612708816120e4565b811461271357600080fd5b5056fea2646970667358221220665b1518b898ece6c3de37d3491764bf8763ba48f50a5e09c89ad6d63f3e8cc364736f6c63430008010033",
					"opcodes": "PUSH1 0x80 PUSH1 0x40 MSTORE CALLVALUE DUP1 ISZERO PUSH3 0x11 JUMPI PUSH1 0x0 DUP1 REVERT JUMPDEST POP PUSH1 0x40 MLOAD PUSH3 0x2CA4 CODESIZE SUB DUP1 PUSH3 0x2CA4 DUP4 CODECOPY DUP2 DUP2 ADD PUSH1 0x40 MSTORE DUP2 ADD SWAP1 PUSH3 0x37 SWAP2 SWAP1 PUSH3 0x2E2 JUMP JUMPDEST PUSH3 0x68 PUSH32 0x1FFC9A700000000000000000000000000000000000000000000000000000000 PUSH3 0xE8 PUSH1 0x20 SHL PUSH1 0x20 SHR JUMP JUMPDEST PUSH2 0x2710 PUSH1 0x4 PUSH1 0x0 CALLER PUSH20 0xFFFFFFFFFFFFFFFFFFFFFFFFFFFFFFFFFFFFFFFF AND PUSH20 0xFFFFFFFFFFFFFFFFFFFFFFFFFFFFFFFFFFFFFFFF AND DUP2 MSTORE PUSH1 0x20 ADD SWAP1 DUP2 MSTORE PUSH1 0x20 ADD PUSH1 0x0 KECCAK256 DUP2 SWAP1 SSTORE POP DUP2 PUSH1 0x1 SWAP1 DUP1 MLOAD SWAP1 PUSH1 0x20 ADD SWAP1 PUSH3 0xC6 SWAP3 SWAP2 SWAP1 PUSH3 0x1C0 JUMP JUMPDEST POP DUP1 PUSH1 0x2 SWAP1 DUP1 MLOAD SWAP1 PUSH1 0x20 ADD SWAP1 PUSH3 0xDF SWAP3 SWAP2 SWAP1 PUSH3 0x1C0 JUMP JUMPDEST POP POP POP PUSH3 0x548 JUMP JUMPDEST PUSH4 0xFFFFFFFF PUSH1 0xE0 SHL DUP2 PUSH28 0xFFFFFFFFFFFFFFFFFFFFFFFFFFFFFFFFFFFFFFFFFFFFFFFFFFFFFFFF NOT AND EQ ISZERO PUSH3 0x154 JUMPI PUSH1 0x40 MLOAD PUSH32 0x8C379A000000000000000000000000000000000000000000000000000000000 DUP2 MSTORE PUSH1 0x4 ADD PUSH3 0x14B SWAP1 PUSH3 0x37C JUMP JUMPDEST PUSH1 0x40 MLOAD DUP1 SWAP2 SUB SWAP1 REVERT JUMPDEST PUSH1 0x1 PUSH1 0x0 DUP1 DUP4 PUSH28 0xFFFFFFFFFFFFFFFFFFFFFFFFFFFFFFFFFFFFFFFFFFFFFFFFFFFFFFFF NOT AND PUSH28 0xFFFFFFFFFFFFFFFFFFFFFFFFFFFFFFFFFFFFFFFFFFFFFFFFFFFFFFFF NOT AND DUP2 MSTORE PUSH1 0x20 ADD SWAP1 DUP2 MSTORE PUSH1 0x20 ADD PUSH1 0x0 KECCAK256 PUSH1 0x0 PUSH2 0x100 EXP DUP2 SLOAD DUP2 PUSH1 0xFF MUL NOT AND SWAP1 DUP4 ISZERO ISZERO MUL OR SWAP1 SSTORE POP POP JUMP JUMPDEST DUP3 DUP1 SLOAD PUSH3 0x1CE SWAP1 PUSH3 0x444 JUMP JUMPDEST SWAP1 PUSH1 0x0 MSTORE PUSH1 0x20 PUSH1 0x0 KECCAK256 SWAP1 PUSH1 0x1F ADD PUSH1 0x20 SWAP1 DIV DUP2 ADD SWAP3 DUP3 PUSH3 0x1F2 JUMPI PUSH1 0x0 DUP6 SSTORE PUSH3 0x23E JUMP JUMPDEST DUP3 PUSH1 0x1F LT PUSH3 0x20D JUMPI DUP1 MLOAD PUSH1 0xFF NOT AND DUP4 DUP1 ADD OR DUP6 SSTORE PUSH3 0x23E JUMP JUMPDEST DUP3 DUP1 ADD PUSH1 0x1 ADD DUP6 SSTORE DUP3 ISZERO PUSH3 0x23E JUMPI SWAP2 DUP3 ADD JUMPDEST DUP3 DUP2 GT ISZERO PUSH3 0x23D JUMPI DUP3 MLOAD DUP3 SSTORE SWAP2 PUSH1 0x20 ADD SWAP2 SWAP1 PUSH1 0x1 ADD SWAP1 PUSH3 0x220 JUMP JUMPDEST JUMPDEST POP SWAP1 POP PUSH3 0x24D SWAP2 SWAP1 PUSH3 0x251 JUMP JUMPDEST POP SWAP1 JUMP JUMPDEST JUMPDEST DUP1 DUP3 GT ISZERO PUSH3 0x26C JUMPI PUSH1 0x0 DUP2 PUSH1 0x0 SWAP1 SSTORE POP PUSH1 0x1 ADD PUSH3 0x252 JUMP JUMPDEST POP SWAP1 JUMP JUMPDEST PUSH1 0x0 PUSH3 0x287 PUSH3 0x281 DUP5 PUSH3 0x3C7 JUMP JUMPDEST PUSH3 0x39E JUMP JUMPDEST SWAP1 POP DUP3 DUP2 MSTORE PUSH1 0x20 DUP2 ADD DUP5 DUP5 DUP5 ADD GT ISZERO PUSH3 0x2A0 JUMPI PUSH1 0x0 DUP1 REVERT JUMPDEST PUSH3 0x2AD DUP5 DUP3 DUP6 PUSH3 0x40E JUMP JUMPDEST POP SWAP4 SWAP3 POP POP POP JUMP JUMPDEST PUSH1 0x0 DUP3 PUSH1 0x1F DUP4 ADD SLT PUSH3 0x2C7 JUMPI PUSH1 0x0 DUP1 REVERT JUMPDEST DUP2 MLOAD PUSH3 0x2D9 DUP5 DUP3 PUSH1 0x20 DUP7 ADD PUSH3 0x270 JUMP JUMPDEST SWAP2 POP POP SWAP3 SWAP2 POP POP JUMP JUMPDEST PUSH1 0x0 DUP1 PUSH1 0x40 DUP4 DUP6 SUB SLT ISZERO PUSH3 0x2F6 JUMPI PUSH1 0x0 DUP1 REVERT JUMPDEST PUSH1 0x0 DUP4 ADD MLOAD PUSH8 0xFFFFFFFFFFFFFFFF DUP2 GT ISZERO PUSH3 0x311 JUMPI PUSH1 0x0 DUP1 REVERT JUMPDEST PUSH3 0x31F DUP6 DUP3 DUP7 ADD PUSH3 0x2B5 JUMP JUMPDEST SWAP3 POP POP PUSH1 0x20 DUP4 ADD MLOAD PUSH8 0xFFFFFFFFFFFFFFFF DUP2 GT ISZERO PUSH3 0x33D JUMPI PUSH1 0x0 DUP1 REVERT JUMPDEST PUSH3 0x34B DUP6 DUP3 DUP7 ADD PUSH3 0x2B5 JUMP JUMPDEST SWAP2 POP POP SWAP3 POP SWAP3 SWAP1 POP JUMP JUMPDEST PUSH1 0x0 PUSH3 0x364 PUSH1 0x1C DUP4 PUSH3 0x3FD JUMP JUMPDEST SWAP2 POP PUSH3 0x371 DUP3 PUSH3 0x51F JUMP JUMPDEST PUSH1 0x20 DUP3 ADD SWAP1 POP SWAP2 SWAP1 POP JUMP JUMPDEST PUSH1 0x0 PUSH1 0x20 DUP3 ADD SWAP1 POP DUP2 DUP2 SUB PUSH1 0x0 DUP4 ADD MSTORE PUSH3 0x397 DUP2 PUSH3 0x355 JUMP JUMPDEST SWAP1 POP SWAP2 SWAP1 POP JUMP JUMPDEST PUSH1 0x0 PUSH3 0x3AA PUSH3 0x3BD JUMP JUMPDEST SWAP1 POP PUSH3 0x3B8 DUP3 DUP3 PUSH3 0x47A JUMP JUMPDEST SWAP2 SWAP1 POP JUMP JUMPDEST PUSH1 0x0 PUSH1 0x40 MLOAD SWAP1 POP SWAP1 JUMP JUMPDEST PUSH1 0x0 PUSH8 0xFFFFFFFFFFFFFFFF DUP3 GT ISZERO PUSH3 0x3E5 JUMPI PUSH3 0x3E4 PUSH3 0x4DF JUMP JUMPDEST JUMPDEST PUSH3 0x3F0 DUP3 PUSH3 0x50E JUMP JUMPDEST SWAP1 POP PUSH1 0x20 DUP2 ADD SWAP1 POP SWAP2 SWAP1 POP JUMP JUMPDEST PUSH1 0x0 DUP3 DUP3 MSTORE PUSH1 0x20 DUP3 ADD SWAP1 POP SWAP3 SWAP2 POP POP JUMP JUMPDEST PUSH1 0x0 JUMPDEST DUP4 DUP2 LT ISZERO PUSH3 0x42E JUMPI DUP1 DUP3 ADD MLOAD DUP2 DUP5 ADD MSTORE PUSH1 0x20 DUP2 ADD SWAP1 POP PUSH3 0x411 JUMP JUMPDEST DUP4 DUP2 GT ISZERO PUSH3 0x43E JUMPI PUSH1 0x0 DUP5 DUP5 ADD MSTORE JUMPDEST POP POP POP POP JUMP JUMPDEST PUSH1 0x0 PUSH1 0x2 DUP3 DIV SWAP1 POP PUSH1 0x1 DUP3 AND DUP1 PUSH3 0x45D JUMPI PUSH1 0x7F DUP3 AND SWAP2 POP JUMPDEST PUSH1 0x20 DUP3 LT DUP2 EQ ISZERO PUSH3 0x474 JUMPI PUSH3 0x473 PUSH3 0x4B0 JUMP JUMPDEST JUMPDEST POP SWAP2 SWAP1 POP JUMP JUMPDEST PUSH3 0x485 DUP3 PUSH3 0x50E JUMP JUMPDEST DUP2 ADD DUP2 DUP2 LT PUSH8 0xFFFFFFFFFFFFFFFF DUP3 GT OR ISZERO PUSH3 0x4A7 JUMPI PUSH3 0x4A6 PUSH3 0x4DF JUMP JUMPDEST JUMPDEST DUP1 PUSH1 0x40 MSTORE POP POP POP JUMP JUMPDEST PUSH32 0x4E487B7100000000000000000000000000000000000000000000000000000000 PUSH1 0x0 MSTORE PUSH1 0x22 PUSH1 0x4 MSTORE PUSH1 0x24 PUSH1 0x0 REVERT JUMPDEST PUSH32 0x4E487B7100000000000000000000000000000000000000000000000000000000 PUSH1 0x0 MSTORE PUSH1 0x41 PUSH1 0x4 MSTORE PUSH1 0x24 PUSH1 0x0 REVERT JUMPDEST PUSH1 0x0 PUSH1 0x1F NOT PUSH1 0x1F DUP4 ADD AND SWAP1 POP SWAP2 SWAP1 POP JUMP JUMPDEST PUSH32 0x4552433136353A20696E76616C696420696E7465726661636520696400000000 PUSH1 0x0 DUP3 ADD MSTORE POP JUMP JUMPDEST PUSH2 0x274C DUP1 PUSH3 0x558 PUSH1 0x0 CODECOPY PUSH1 0x0 RETURN INVALID PUSH1 0x80 PUSH1 0x40 MSTORE CALLVALUE DUP1 ISZERO PUSH2 0x10 JUMPI PUSH1 0x0 DUP1 REVERT JUMPDEST POP PUSH1 0x4 CALLDATASIZE LT PUSH2 0xEA JUMPI PUSH1 0x0 CALLDATALOAD PUSH1 0xE0 SHR DUP1 PUSH4 0x70A08231 GT PUSH2 0x8C JUMPI DUP1 PUSH4 0xB3E1C718 GT PUSH2 0x66 JUMPI DUP1 PUSH4 0xB3E1C718 EQ PUSH2 0x25B JUMPI DUP1 PUSH4 0xB88D4FDE EQ PUSH2 0x277 JUMPI DUP1 PUSH4 0xC87B56DD EQ PUSH2 0x293 JUMPI DUP1 PUSH4 0xE985E9C5 EQ PUSH2 0x2C3 JUMPI PUSH2 0xEA JUMP JUMPDEST DUP1 PUSH4 0x70A08231 EQ PUSH2 0x1F1 JUMPI DUP1 PUSH4 0x95D89B41 EQ PUSH2 0x221 JUMPI DUP1 PUSH4 0xA22CB465 EQ PUSH2 0x23F JUMPI PUSH2 0xEA JUMP JUMPDEST DUP1 PUSH4 0x95EA7B3 GT PUSH2 0xC8 JUMPI DUP1 PUSH4 0x95EA7B3 EQ PUSH2 0x16D JUMPI DUP1 PUSH4 0x23B872DD EQ PUSH2 0x189 JUMPI DUP1 PUSH4 0x42842E0E EQ PUSH2 0x1A5 JUMPI DUP1 PUSH4 0x6352211E EQ PUSH2 0x1C1 JUMPI PUSH2 0xEA JUMP JUMPDEST DUP1 PUSH4 0x1FFC9A7 EQ PUSH2 0xEF JUMPI DUP1 PUSH4 0x6FDDE03 EQ PUSH2 0x11F JUMPI DUP1 PUSH4 0x81812FC EQ PUSH2 0x13D JUMPI JUMPDEST PUSH1 0x0 DUP1 REVERT JUMPDEST PUSH2 0x109 PUSH1 0x4 DUP1 CALLDATASIZE SUB DUP2 ADD SWAP1 PUSH2 0x104 SWAP2 SWAP1 PUSH2 0x194E JUMP JUMPDEST PUSH2 0x2F3 JUMP JUMPDEST PUSH1 0x40 MLOAD PUSH2 0x116 SWAP2 SWAP1 PUSH2 0x1D0E JUMP JUMPDEST PUSH1 0x40 MLOAD DUP1 SWAP2 SUB SWAP1 RETURN JUMPDEST PUSH2 0x127 PUSH2 0x3D5 JUMP JUMPDEST PUSH1 0x40 MLOAD PUSH2 0x134 SWAP2 SWAP1 PUSH2 0x1D29 JUMP JUMPDEST PUSH1 0x40 MLOAD DUP1 SWAP2 SUB SWAP1 RETURN JUMPDEST PUSH2 0x157 PUSH1 0x4 DUP1 CALLDATASIZE SUB DUP2 ADD SWAP1 PUSH2 0x152 SWAP2 SWAP1 PUSH2 0x19A0 JUMP JUMPDEST PUSH2 0x467 JUMP JUMPDEST PUSH1 0x40 MLOAD PUSH2 0x164 SWAP2 SWAP1 PUSH2 0x1CA7 JUMP JUMPDEST PUSH1 0x40 MLOAD DUP1 SWAP2 SUB SWAP1 RETURN JUMPDEST PUSH2 0x187 PUSH1 0x4 DUP1 CALLDATASIZE SUB DUP2 ADD SWAP1 PUSH2 0x182 SWAP2 SWAP1 PUSH2 0x1912 JUMP JUMPDEST PUSH2 0x4EC JUMP JUMPDEST STOP JUMPDEST PUSH2 0x1A3 PUSH1 0x4 DUP1 CALLDATASIZE SUB DUP2 ADD SWAP1 PUSH2 0x19E SWAP2 SWAP1 PUSH2 0x180C JUMP JUMPDEST PUSH2 0x604 JUMP JUMPDEST STOP JUMPDEST PUSH2 0x1BF PUSH1 0x4 DUP1 CALLDATASIZE SUB DUP2 ADD SWAP1 PUSH2 0x1BA SWAP2 SWAP1 PUSH2 0x180C JUMP JUMPDEST PUSH2 0x664 JUMP JUMPDEST STOP JUMPDEST PUSH2 0x1DB PUSH1 0x4 DUP1 CALLDATASIZE SUB DUP2 ADD SWAP1 PUSH2 0x1D6 SWAP2 SWAP1 PUSH2 0x19A0 JUMP JUMPDEST PUSH2 0x684 JUMP JUMPDEST PUSH1 0x40 MLOAD PUSH2 0x1E8 SWAP2 SWAP1 PUSH2 0x1CA7 JUMP JUMPDEST PUSH1 0x40 MLOAD DUP1 SWAP2 SUB SWAP1 RETURN JUMPDEST PUSH2 0x20B PUSH1 0x4 DUP1 CALLDATASIZE SUB DUP2 ADD SWAP1 PUSH2 0x206 SWAP2 SWAP1 PUSH2 0x17A7 JUMP JUMPDEST PUSH2 0x736 JUMP JUMPDEST PUSH1 0x40 MLOAD PUSH2 0x218 SWAP2 SWAP1 PUSH2 0x1F0B JUMP JUMPDEST PUSH1 0x40 MLOAD DUP1 SWAP2 SUB SWAP1 RETURN JUMPDEST PUSH2 0x229 PUSH2 0x7EE JUMP JUMPDEST PUSH1 0x40 MLOAD PUSH2 0x236 SWAP2 SWAP1 PUSH2 0x1D29 JUMP JUMPDEST PUSH1 0x40 MLOAD DUP1 SWAP2 SUB SWAP1 RETURN JUMPDEST PUSH2 0x259 PUSH1 0x4 DUP1 CALLDATASIZE SUB DUP2 ADD SWAP1 PUSH2 0x254 SWAP2 SWAP1 PUSH2 0x18D6 JUMP JUMPDEST PUSH2 0x880 JUMP JUMPDEST STOP JUMPDEST PUSH2 0x275 PUSH1 0x4 DUP1 CALLDATASIZE SUB DUP2 ADD SWAP1 PUSH2 0x270 SWAP2 SWAP1 PUSH2 0x1912 JUMP JUMPDEST PUSH2 0x896 JUMP JUMPDEST STOP JUMPDEST PUSH2 0x291 PUSH1 0x4 DUP1 CALLDATASIZE SUB DUP2 ADD SWAP1 PUSH2 0x28C SWAP2 SWAP1 PUSH2 0x185B JUMP JUMPDEST PUSH2 0x8B4 JUMP JUMPDEST STOP JUMPDEST PUSH2 0x2AD PUSH1 0x4 DUP1 CALLDATASIZE SUB DUP2 ADD SWAP1 PUSH2 0x2A8 SWAP2 SWAP1 PUSH2 0x19A0 JUMP JUMPDEST PUSH2 0x916 JUMP JUMPDEST PUSH1 0x40 MLOAD PUSH2 0x2BA SWAP2 SWAP1 PUSH2 0x1D29 JUMP JUMPDEST PUSH1 0x40 MLOAD DUP1 SWAP2 SUB SWAP1 RETURN JUMPDEST PUSH2 0x2DD PUSH1 0x4 DUP1 CALLDATASIZE SUB DUP2 ADD SWAP1 PUSH2 0x2D8 SWAP2 SWAP1 PUSH2 0x17D0 JUMP JUMPDEST PUSH2 0x9BD JUMP JUMPDEST PUSH1 0x40 MLOAD PUSH2 0x2EA SWAP2 SWAP1 PUSH2 0x1D0E JUMP JUMPDEST PUSH1 0x40 MLOAD DUP1 SWAP2 SUB SWAP1 RETURN JUMPDEST PUSH1 0x0 PUSH32 0x80AC58CD00000000000000000000000000000000000000000000000000000000 PUSH28 0xFFFFFFFFFFFFFFFFFFFFFFFFFFFFFFFFFFFFFFFFFFFFFFFFFFFFFFFF NOT AND DUP3 PUSH28 0xFFFFFFFFFFFFFFFFFFFFFFFFFFFFFFFFFFFFFFFFFFFFFFFFFFFFFFFF NOT AND EQ DUP1 PUSH2 0x3BE JUMPI POP PUSH32 0x5B5E139F00000000000000000000000000000000000000000000000000000000 PUSH28 0xFFFFFFFFFFFFFFFFFFFFFFFFFFFFFFFFFFFFFFFFFFFFFFFFFFFFFFFF NOT AND DUP3 PUSH28 0xFFFFFFFFFFFFFFFFFFFFFFFFFFFFFFFFFFFFFFFFFFFFFFFFFFFFFFFF NOT AND EQ JUMPDEST DUP1 PUSH2 0x3CE JUMPI POP PUSH2 0x3CD DUP3 PUSH2 0xA51 JUMP JUMPDEST JUMPDEST SWAP1 POP SWAP2 SWAP1 POP JUMP JUMPDEST PUSH1 0x60 PUSH1 0x1 DUP1 SLOAD PUSH2 0x3E4 SWAP1 PUSH2 0x2130 JUMP JUMPDEST DUP1 PUSH1 0x1F ADD PUSH1 0x20 DUP1 SWAP2 DIV MUL PUSH1 0x20 ADD PUSH1 0x40 MLOAD SWAP1 DUP2 ADD PUSH1 0x40 MSTORE DUP1 SWAP3 SWAP2 SWAP1 DUP2 DUP2 MSTORE PUSH1 0x20 ADD DUP3 DUP1 SLOAD PUSH2 0x410 SWAP1 PUSH2 0x2130 JUMP JUMPDEST DUP1 ISZERO PUSH2 0x45D JUMPI DUP1 PUSH1 0x1F LT PUSH2 0x432 JUMPI PUSH2 0x100 DUP1 DUP4 SLOAD DIV MUL DUP4 MSTORE SWAP2 PUSH1 0x20 ADD SWAP2 PUSH2 0x45D JUMP JUMPDEST DUP3 ADD SWAP2 SWAP1 PUSH1 0x0 MSTORE PUSH1 0x20 PUSH1 0x0 KECCAK256 SWAP1 JUMPDEST DUP2 SLOAD DUP2 MSTORE SWAP1 PUSH1 0x1 ADD SWAP1 PUSH1 0x20 ADD DUP1 DUP4 GT PUSH2 0x440 JUMPI DUP3 SWAP1 SUB PUSH1 0x1F AND DUP3 ADD SWAP2 JUMPDEST POP POP POP POP POP SWAP1 POP SWAP1 JUMP JUMPDEST PUSH1 0x0 PUSH2 0x472 DUP3 PUSH2 0xAB8 JUMP JUMPDEST PUSH2 0x4B1 JUMPI PUSH1 0x40 MLOAD PUSH32 0x8C379A000000000000000000000000000000000000000000000000000000000 DUP2 MSTORE PUSH1 0x4 ADD PUSH2 0x4A8 SWAP1 PUSH2 0x1E8B JUMP JUMPDEST PUSH1 0x40 MLOAD DUP1 SWAP2 SUB SWAP1 REVERT JUMPDEST PUSH1 0x5 PUSH1 0x0 DUP4 DUP2 MSTORE PUSH1 0x20 ADD SWAP1 DUP2 MSTORE PUSH1 0x20 ADD PUSH1 0x0 KECCAK256 PUSH1 0x0 SWAP1 SLOAD SWAP1 PUSH2 0x100 EXP SWAP1 DIV PUSH20 0xFFFFFFFFFFFFFFFFFFFFFFFFFFFFFFFFFFFFFFFF AND SWAP1 POP SWAP2 SWAP1 POP JUMP JUMPDEST PUSH1 0x0 PUSH2 0x4F7 DUP3 PUSH2 0x684 JUMP JUMPDEST SWAP1 POP DUP1 PUSH20 0xFFFFFFFFFFFFFFFFFFFFFFFFFFFFFFFFFFFFFFFF AND DUP4 PUSH20 0xFFFFFFFFFFFFFFFFFFFFFFFFFFFFFFFFFFFFFFFF AND EQ ISZERO PUSH2 0x568 JUMPI PUSH1 0x40 MLOAD PUSH32 0x8C379A000000000000000000000000000000000000000000000000000000000 DUP2 MSTORE PUSH1 0x4 ADD PUSH2 0x55F SWAP1 PUSH2 0x1ECB JUMP JUMPDEST PUSH1 0x40 MLOAD DUP1 SWAP2 SUB SWAP1 REVERT JUMPDEST DUP1 PUSH20 0xFFFFFFFFFFFFFFFFFFFFFFFFFFFFFFFFFFFFFFFF AND PUSH2 0x587 PUSH2 0xB24 JUMP JUMPDEST PUSH20 0xFFFFFFFFFFFFFFFFFFFFFFFFFFFFFFFFFFFFFFFF AND EQ DUP1 PUSH2 0x5B6 JUMPI POP PUSH2 0x5B5 DUP2 PUSH2 0x5B0 PUSH2 0xB24 JUMP JUMPDEST PUSH2 0x9BD JUMP JUMPDEST JUMPDEST PUSH2 0x5F5 JUMPI PUSH1 0x40 MLOAD PUSH32 0x8C379A000000000000000000000000000000000000000000000000000000000 DUP2 MSTORE PUSH1 0x4 ADD PUSH2 0x5EC SWAP1 PUSH2 0x1E0B JUMP JUMPDEST PUSH1 0x40 MLOAD DUP1 SWAP2 SUB SWAP1 REVERT JUMPDEST PUSH2 0x5FF DUP4 DUP4 PUSH2 0xB2C JUMP JUMPDEST POP POP POP JUMP JUMPDEST PUSH2 0x615 PUSH2 0x60F PUSH2 0xB24 JUMP JUMPDEST DUP3 PUSH2 0xBE5 JUMP JUMPDEST PUSH2 0x654 JUMPI PUSH1 0x40 MLOAD PUSH32 0x8C379A000000000000000000000000000000000000000000000000000000000 DUP2 MSTORE PUSH1 0x4 ADD PUSH2 0x64B SWAP1 PUSH2 0x1EEB JUMP JUMPDEST PUSH1 0x40 MLOAD DUP1 SWAP2 SUB SWAP1 REVERT JUMPDEST PUSH2 0x65F DUP4 DUP4 DUP4 PUSH2 0xCC3 JUMP JUMPDEST POP POP POP JUMP JUMPDEST PUSH2 0x67F DUP4 DUP4 DUP4 PUSH1 0x40 MLOAD DUP1 PUSH1 0x20 ADD PUSH1 0x40 MSTORE DUP1 PUSH1 0x0 DUP2 MSTORE POP PUSH2 0x8B4 JUMP JUMPDEST POP POP POP JUMP JUMPDEST PUSH1 0x0 DUP1 PUSH1 0x3 PUSH1 0x0 DUP5 DUP2 MSTORE PUSH1 0x20 ADD SWAP1 DUP2 MSTORE PUSH1 0x20 ADD PUSH1 0x0 KECCAK256 PUSH1 0x0 SWAP1 SLOAD SWAP1 PUSH2 0x100 EXP SWAP1 DIV PUSH20 0xFFFFFFFFFFFFFFFFFFFFFFFFFFFFFFFFFFFFFFFF AND SWAP1 POP PUSH1 0x0 PUSH20 0xFFFFFFFFFFFFFFFFFFFFFFFFFFFFFFFFFFFFFFFF AND DUP2 PUSH20 0xFFFFFFFFFFFFFFFFFFFFFFFFFFFFFFFFFFFFFFFF AND EQ ISZERO PUSH2 0x72D JUMPI PUSH1 0x40 MLOAD PUSH32 0x8C379A000000000000000000000000000000000000000000000000000000000 DUP2 MSTORE PUSH1 0x4 ADD PUSH2 0x724 SWAP1 PUSH2 0x1E4B JUMP JUMPDEST PUSH1 0x40 MLOAD DUP1 SWAP2 SUB SWAP1 REVERT JUMPDEST DUP1 SWAP2 POP POP SWAP2 SWAP1 POP JUMP JUMPDEST PUSH1 0x0 DUP1 PUSH20 0xFFFFFFFFFFFFFFFFFFFFFFFFFFFFFFFFFFFFFFFF AND DUP3 PUSH20 0xFFFFFFFFFFFFFFFFFFFFFFFFFFFFFFFFFFFFFFFF AND EQ ISZERO PUSH2 0x7A7 JUMPI PUSH1 0x40 MLOAD PUSH32 0x8C379A000000000000000000000000000000000000000000000000000000000 DUP2 MSTORE PUSH1 0x4 ADD PUSH2 0x79E SWAP1 PUSH2 0x1E2B JUMP JUMPDEST PUSH1 0x40 MLOAD DUP1 SWAP2 SUB SWAP1 REVERT JUMPDEST PUSH1 0x4 PUSH1 0x0 DUP4 PUSH20 0xFFFFFFFFFFFFFFFFFFFFFFFFFFFFFFFFFFFFFFFF AND PUSH20 0xFFFFFFFFFFFFFFFFFFFFFFFFFFFFFFFFFFFFFFFF AND DUP2 MSTORE PUSH1 0x20 ADD SWAP1 DUP2 MSTORE PUSH1 0x20 ADD PUSH1 0x0 KECCAK256 SLOAD SWAP1 POP SWAP2 SWAP1 POP JUMP JUMPDEST PUSH1 0x60 PUSH1 0x2 DUP1 SLOAD PUSH2 0x7FD SWAP1 PUSH2 0x2130 JUMP JUMPDEST DUP1 PUSH1 0x1F ADD PUSH1 0x20 DUP1 SWAP2 DIV MUL PUSH1 0x20 ADD PUSH1 0x40 MLOAD SWAP1 DUP2 ADD PUSH1 0x40 MSTORE DUP1 SWAP3 SWAP2 SWAP1 DUP2 DUP2 MSTORE PUSH1 0x20 ADD DUP3 DUP1 SLOAD PUSH2 0x829 SWAP1 PUSH2 0x2130 JUMP JUMPDEST DUP1 ISZERO PUSH2 0x876 JUMPI DUP1 PUSH1 0x1F LT PUSH2 0x84B JUMPI PUSH2 0x100 DUP1 DUP4 SLOAD DIV MUL DUP4 MSTORE SWAP2 PUSH1 0x20 ADD SWAP2 PUSH2 0x876 JUMP JUMPDEST DUP3 ADD SWAP2 SWAP1 PUSH1 0x0 MSTORE PUSH1 0x20 PUSH1 0x0 KECCAK256 SWAP1 JUMPDEST DUP2 SLOAD DUP2 MSTORE SWAP1 PUSH1 0x1 ADD SWAP1 PUSH1 0x20 ADD DUP1 DUP4 GT PUSH2 0x859 JUMPI DUP3 SWAP1 SUB PUSH1 0x1F AND DUP3 ADD SWAP2 JUMPDEST POP POP POP POP POP SWAP1 POP SWAP1 JUMP JUMPDEST PUSH2 0x892 PUSH2 0x88B PUSH2 0xB24 JUMP JUMPDEST DUP4 DUP4 PUSH2 0xF2A JUMP JUMPDEST POP POP JUMP JUMPDEST PUSH2 0x8B0 DUP3 DUP3 PUSH1 0x40 MLOAD DUP1 PUSH1 0x20 ADD PUSH1 0x40 MSTORE DUP1 PUSH1 0x0 DUP2 MSTORE POP PUSH2 0x1097 JUMP JUMPDEST POP POP JUMP JUMPDEST PUSH2 0x8C5 PUSH2 0x8BF PUSH2 0xB24 JUMP JUMPDEST DUP4 PUSH2 0xBE5 JUMP JUMPDEST PUSH2 0x904 JUMPI PUSH1 0x40 MLOAD PUSH32 0x8C379A000000000000000000000000000000000000000000000000000000000 DUP2 MSTORE PUSH1 0x4 ADD PUSH2 0x8FB SWAP1 PUSH2 0x1EEB JUMP JUMPDEST PUSH1 0x40 MLOAD DUP1 SWAP2 SUB SWAP1 REVERT JUMPDEST PUSH2 0x910 DUP5 DUP5 DUP5 DUP5 PUSH2 0x10F2 JUMP JUMPDEST POP POP POP POP JUMP JUMPDEST PUSH1 0x60 PUSH2 0x921 DUP3 PUSH2 0xAB8 JUMP JUMPDEST PUSH2 0x960 JUMPI PUSH1 0x40 MLOAD PUSH32 0x8C379A000000000000000000000000000000000000000000000000000000000 DUP2 MSTORE PUSH1 0x4 ADD PUSH2 0x957 SWAP1 PUSH2 0x1EAB JUMP JUMPDEST PUSH1 0x40 MLOAD DUP1 SWAP2 SUB SWAP1 REVERT JUMPDEST PUSH1 0x0 PUSH2 0x96A PUSH2 0x114E JUMP JUMPDEST SWAP1 POP PUSH1 0x0 DUP2 MLOAD GT PUSH2 0x98A JUMPI PUSH1 0x40 MLOAD DUP1 PUSH1 0x20 ADD PUSH1 0x40 MSTORE DUP1 PUSH1 0x0 DUP2 MSTORE POP PUSH2 0x9B5 JUMP JUMPDEST DUP1 PUSH2 0x994 DUP5 PUSH2 0x118B JUMP JUMPDEST PUSH1 0x40 MLOAD PUSH1 0x20 ADD PUSH2 0x9A5 SWAP3 SWAP2 SWAP1 PUSH2 0x1C83 JUMP JUMPDEST PUSH1 0x40 MLOAD PUSH1 0x20 DUP2 DUP4 SUB SUB DUP2 MSTORE SWAP1 PUSH1 0x40 MSTORE JUMPDEST SWAP2 POP POP SWAP2 SWAP1 POP JUMP JUMPDEST PUSH1 0x0 PUSH1 0x6 PUSH1 0x0 DUP5 PUSH20 0xFFFFFFFFFFFFFFFFFFFFFFFFFFFFFFFFFFFFFFFF AND PUSH20 0xFFFFFFFFFFFFFFFFFFFFFFFFFFFFFFFFFFFFFFFF AND DUP2 MSTORE PUSH1 0x20 ADD SWAP1 DUP2 MSTORE PUSH1 0x20 ADD PUSH1 0x0 KECCAK256 PUSH1 0x0 DUP4 PUSH20 0xFFFFFFFFFFFFFFFFFFFFFFFFFFFFFFFFFFFFFFFF AND PUSH20 0xFFFFFFFFFFFFFFFFFFFFFFFFFFFFFFFFFFFFFFFF AND DUP2 MSTORE PUSH1 0x20 ADD SWAP1 DUP2 MSTORE PUSH1 0x20 ADD PUSH1 0x0 KECCAK256 PUSH1 0x0 SWAP1 SLOAD SWAP1 PUSH2 0x100 EXP SWAP1 DIV PUSH1 0xFF AND SWAP1 POP SWAP3 SWAP2 POP POP JUMP JUMPDEST PUSH1 0x0 DUP1 PUSH1 0x0 DUP4 PUSH28 0xFFFFFFFFFFFFFFFFFFFFFFFFFFFFFFFFFFFFFFFFFFFFFFFFFFFFFFFF NOT AND PUSH28 0xFFFFFFFFFFFFFFFFFFFFFFFFFFFFFFFFFFFFFFFFFFFFFFFFFFFFFFFF NOT AND DUP2 MSTORE PUSH1 0x20 ADD SWAP1 DUP2 MSTORE PUSH1 0x20 ADD PUSH1 0x0 KECCAK256 PUSH1 0x0 SWAP1 SLOAD SWAP1 PUSH2 0x100 EXP SWAP1 DIV PUSH1 0xFF AND SWAP1 POP SWAP2 SWAP1 POP JUMP JUMPDEST PUSH1 0x0 DUP1 PUSH20 0xFFFFFFFFFFFFFFFFFFFFFFFFFFFFFFFFFFFFFFFF AND PUSH1 0x3 PUSH1 0x0 DUP5 DUP2 MSTORE PUSH1 0x20 ADD SWAP1 DUP2 MSTORE PUSH1 0x20 ADD PUSH1 0x0 KECCAK256 PUSH1 0x0 SWAP1 SLOAD SWAP1 PUSH2 0x100 EXP SWAP1 DIV PUSH20 0xFFFFFFFFFFFFFFFFFFFFFFFFFFFFFFFFFFFFFFFF AND PUSH20 0xFFFFFFFFFFFFFFFFFFFFFFFFFFFFFFFFFFFFFFFF AND EQ ISZERO SWAP1 POP SWAP2 SWAP1 POP JUMP JUMPDEST PUSH1 0x0 CALLER SWAP1 POP SWAP1 JUMP JUMPDEST DUP2 PUSH1 0x5 PUSH1 0x0 DUP4 DUP2 MSTORE PUSH1 0x20 ADD SWAP1 DUP2 MSTORE PUSH1 0x20 ADD PUSH1 0x0 KECCAK256 PUSH1 0x0 PUSH2 0x100 EXP DUP2 SLOAD DUP2 PUSH20 0xFFFFFFFFFFFFFFFFFFFFFFFFFFFFFFFFFFFFFFFF MUL NOT AND SWAP1 DUP4 PUSH20 0xFFFFFFFFFFFFFFFFFFFFFFFFFFFFFFFFFFFFFFFF AND MUL OR SWAP1 SSTORE POP DUP1 DUP3 PUSH20 0xFFFFFFFFFFFFFFFFFFFFFFFFFFFFFFFFFFFFFFFF AND PUSH2 0xB9F DUP4 PUSH2 0x684 JUMP JUMPDEST PUSH20 0xFFFFFFFFFFFFFFFFFFFFFFFFFFFFFFFFFFFFFFFF AND PUSH32 0x8C5BE1E5EBEC7D5BD14F71427D1E84F3DD0314C0F7B2291E5B200AC8C7C3B925 PUSH1 0x40 MLOAD PUSH1 0x40 MLOAD DUP1 SWAP2 SUB SWAP1 LOG4 POP POP JUMP JUMPDEST PUSH1 0x0 PUSH2 0xBF0 DUP3 PUSH2 0xAB8 JUMP JUMPDEST PUSH2 0xC2F JUMPI PUSH1 0x40 MLOAD PUSH32 0x8C379A000000000000000000000000000000000000000000000000000000000 DUP2 MSTORE PUSH1 0x4 ADD PUSH2 0xC26 SWAP1 PUSH2 0x1DEB JUMP JUMPDEST PUSH1 0x40 MLOAD DUP1 SWAP2 SUB SWAP1 REVERT JUMPDEST PUSH1 0x0 PUSH2 0xC3A DUP4 PUSH2 0x684 JUMP JUMPDEST SWAP1 POP DUP1 PUSH20 0xFFFFFFFFFFFFFFFFFFFFFFFFFFFFFFFFFFFFFFFF AND DUP5 PUSH20 0xFFFFFFFFFFFFFFFFFFFFFFFFFFFFFFFFFFFFFFFF AND EQ DUP1 PUSH2 0xC7C JUMPI POP PUSH2 0xC7B DUP2 DUP6 PUSH2 0x9BD JUMP JUMPDEST JUMPDEST DUP1 PUSH2 0xCBA JUMPI POP DUP4 PUSH20 0xFFFFFFFFFFFFFFFFFFFFFFFFFFFFFFFFFFFFFFFF AND PUSH2 0xCA2 DUP5 PUSH2 0x467 JUMP JUMPDEST PUSH20 0xFFFFFFFFFFFFFFFFFFFFFFFFFFFFFFFFFFFFFFFF AND EQ JUMPDEST SWAP2 POP POP SWAP3 SWAP2 POP POP JUMP JUMPDEST DUP3 PUSH20 0xFFFFFFFFFFFFFFFFFFFFFFFFFFFFFFFFFFFFFFFF AND PUSH2 0xCE3 DUP3 PUSH2 0x684 JUMP JUMPDEST PUSH20 0xFFFFFFFFFFFFFFFFFFFFFFFFFFFFFFFFFFFFFFFF AND EQ PUSH2 0xD39 JUMPI PUSH1 0x40 MLOAD PUSH32 0x8C379A000000000000000000000000000000000000000000000000000000000 DUP2 MSTORE PUSH1 0x4 ADD PUSH2 0xD30 SWAP1 PUSH2 0x1D6B JUMP JUMPDEST PUSH1 0x40 MLOAD DUP1 SWAP2 SUB SWAP1 REVERT JUMPDEST PUSH1 0x0 PUSH20 0xFFFFFFFFFFFFFFFFFFFFFFFFFFFFFFFFFFFFFFFF AND DUP3 PUSH20 0xFFFFFFFFFFFFFFFFFFFFFFFFFFFFFFFFFFFFFFFF AND EQ ISZERO PUSH2 0xDA9 JUMPI PUSH1 0x40 MLOAD PUSH32 0x8C379A000000000000000000000000000000000000000000000000000000000 DUP2 MSTORE PUSH1 0x4 ADD PUSH2 0xDA0 SWAP1 PUSH2 0x1DAB JUMP JUMPDEST PUSH1 0x40 MLOAD DUP1 SWAP2 SUB SWAP1 REVERT JUMPDEST PUSH2 0xDB4 DUP4 DUP4 DUP4 PUSH2 0x1338 JUMP JUMPDEST PUSH2 0xDBF PUSH1 0x0 DUP3 PUSH2 0xB2C JUMP JUMPDEST PUSH1 0x1 PUSH1 0x4 PUSH1 0x0 DUP6 PUSH20 0xFFFFFFFFFFFFFFFFFFFFFFFFFFFFFFFFFFFFFFFF AND PUSH20 0xFFFFFFFFFFFFFFFFFFFFFFFFFFFFFFFFFFFFFFFF AND DUP2 MSTORE PUSH1 0x20 ADD SWAP1 DUP2 MSTORE PUSH1 0x20 ADD PUSH1 0x0 KECCAK256 PUSH1 0x0 DUP3 DUP3 SLOAD PUSH2 0xE0F SWAP2 SWAP1 PUSH2 0x2046 JUMP JUMPDEST SWAP3 POP POP DUP2 SWAP1 SSTORE POP PUSH1 0x1 PUSH1 0x4 PUSH1 0x0 DUP5 PUSH20 0xFFFFFFFFFFFFFFFFFFFFFFFFFFFFFFFFFFFFFFFF AND PUSH20 0xFFFFFFFFFFFFFFFFFFFFFFFFFFFFFFFFFFFFFFFF AND DUP2 MSTORE PUSH1 0x20 ADD SWAP1 DUP2 MSTORE PUSH1 0x20 ADD PUSH1 0x0 KECCAK256 PUSH1 0x0 DUP3 DUP3 SLOAD PUSH2 0xE66 SWAP2 SWAP1 PUSH2 0x1FBF JUMP JUMPDEST SWAP3 POP POP DUP2 SWAP1 SSTORE POP DUP2 PUSH1 0x3 PUSH1 0x0 DUP4 DUP2 MSTORE PUSH1 0x20 ADD SWAP1 DUP2 MSTORE PUSH1 0x20 ADD PUSH1 0x0 KECCAK256 PUSH1 0x0 PUSH2 0x100 EXP DUP2 SLOAD DUP2 PUSH20 0xFFFFFFFFFFFFFFFFFFFFFFFFFFFFFFFFFFFFFFFF MUL NOT AND SWAP1 DUP4 PUSH20 0xFFFFFFFFFFFFFFFFFFFFFFFFFFFFFFFFFFFFFFFF AND MUL OR SWAP1 SSTORE POP DUP1 DUP3 PUSH20 0xFFFFFFFFFFFFFFFFFFFFFFFFFFFFFFFFFFFFFFFF AND DUP5 PUSH20 0xFFFFFFFFFFFFFFFFFFFFFFFFFFFFFFFFFFFFFFFF AND PUSH32 0xDDF252AD1BE2C89B69C2B068FC378DAA952BA7F163C4A11628F55A4DF523B3EF PUSH1 0x40 MLOAD PUSH1 0x40 MLOAD DUP1 SWAP2 SUB SWAP1 LOG4 PUSH2 0xF25 DUP4 DUP4 DUP4 PUSH2 0x133D JUMP JUMPDEST POP POP POP JUMP JUMPDEST DUP2 PUSH20 0xFFFFFFFFFFFFFFFFFFFFFFFFFFFFFFFFFFFFFFFF AND DUP4 PUSH20 0xFFFFFFFFFFFFFFFFFFFFFFFFFFFFFFFFFFFFFFFF AND EQ ISZERO PUSH2 0xF99 JUMPI PUSH1 0x40 MLOAD PUSH32 0x8C379A000000000000000000000000000000000000000000000000000000000 DUP2 MSTORE PUSH1 0x4 ADD PUSH2 0xF90 SWAP1 PUSH2 0x1DCB JUMP JUMPDEST PUSH1 0x40 MLOAD DUP1 SWAP2 SUB SWAP1 REVERT JUMPDEST DUP1 PUSH1 0x6 PUSH1 0x0 DUP6 PUSH20 0xFFFFFFFFFFFFFFFFFFFFFFFFFFFFFFFFFFFFFFFF AND PUSH20 0xFFFFFFFFFFFFFFFFFFFFFFFFFFFFFFFFFFFFFFFF AND DUP2 MSTORE PUSH1 0x20 ADD SWAP1 DUP2 MSTORE PUSH1 0x20 ADD PUSH1 0x0 KECCAK256 PUSH1 0x0 DUP5 PUSH20 0xFFFFFFFFFFFFFFFFFFFFFFFFFFFFFFFFFFFFFFFF AND PUSH20 0xFFFFFFFFFFFFFFFFFFFFFFFFFFFFFFFFFFFFFFFF AND DUP2 MSTORE PUSH1 0x20 ADD SWAP1 DUP2 MSTORE PUSH1 0x20 ADD PUSH1 0x0 KECCAK256 PUSH1 0x0 PUSH2 0x100 EXP DUP2 SLOAD DUP2 PUSH1 0xFF MUL NOT AND SWAP1 DUP4 ISZERO ISZERO MUL OR SWAP1 SSTORE POP DUP2 PUSH20 0xFFFFFFFFFFFFFFFFFFFFFFFFFFFFFFFFFFFFFFFF AND DUP4 PUSH20 0xFFFFFFFFFFFFFFFFFFFFFFFFFFFFFFFFFFFFFFFF AND PUSH32 0x17307EAB39AB6107E8899845AD3D59BD9653F200F220920489CA2B5937696C31 DUP4 PUSH1 0x40 MLOAD PUSH2 0x108A SWAP2 SWAP1 PUSH2 0x1D0E JUMP JUMPDEST PUSH1 0x40 MLOAD DUP1 SWAP2 SUB SWAP1 LOG3 POP POP POP JUMP JUMPDEST PUSH2 0x10A1 DUP4 DUP4 PUSH2 0x1342 JUMP JUMPDEST PUSH2 0x10AE PUSH1 0x0 DUP5 DUP5 DUP5 PUSH2 0x151C JUMP JUMPDEST PUSH2 0x10ED JUMPI PUSH1 0x40 MLOAD PUSH32 0x8C379A000000000000000000000000000000000000000000000000000000000 DUP2 MSTORE PUSH1 0x4 ADD PUSH2 0x10E4 SWAP1 PUSH2 0x1D4B JUMP JUMPDEST PUSH1 0x40 MLOAD DUP1 SWAP2 SUB SWAP1 REVERT JUMPDEST POP POP POP JUMP JUMPDEST PUSH2 0x10FD DUP5 DUP5 DUP5 PUSH2 0xCC3 JUMP JUMPDEST PUSH2 0x1109 DUP5 DUP5 DUP5 DUP5 PUSH2 0x151C JUMP JUMPDEST PUSH2 0x1148 JUMPI PUSH1 0x40 MLOAD PUSH32 0x8C379A000000000000000000000000000000000000000000000000000000000 DUP2 MSTORE PUSH1 0x4 ADD PUSH2 0x113F SWAP1 PUSH2 0x1D4B JUMP JUMPDEST PUSH1 0x40 MLOAD DUP1 SWAP2 SUB SWAP1 REVERT JUMPDEST POP POP POP POP JUMP JUMPDEST PUSH1 0x60 PUSH1 0x40 MLOAD DUP1 PUSH1 0x40 ADD PUSH1 0x40 MSTORE DUP1 PUSH1 0x12 DUP2 MSTORE PUSH1 0x20 ADD PUSH32 0x42696E616E636520536D61727420446174610000000000000000000000000000 DUP2 MSTORE POP SWAP1 POP SWAP1 JUMP JUMPDEST PUSH1 0x60 PUSH1 0x0 DUP3 EQ ISZERO PUSH2 0x11D3 JUMPI PUSH1 0x40 MLOAD DUP1 PUSH1 0x40 ADD PUSH1 0x40 MSTORE DUP1 PUSH1 0x1 DUP2 MSTORE PUSH1 0x20 ADD PUSH32 0x3000000000000000000000000000000000000000000000000000000000000000 DUP2 MSTORE POP SWAP1 POP PUSH2 0x1333 JUMP JUMPDEST PUSH1 0x0 DUP3 SWAP1 POP PUSH1 0x0 JUMPDEST PUSH1 0x0 DUP3 EQ PUSH2 0x1205 JUMPI DUP1 DUP1 PUSH2 0x11EE SWAP1 PUSH2 0x2193 JUMP JUMPDEST SWAP2 POP POP PUSH1 0xA DUP3 PUSH2 0x11FE SWAP2 SWAP1 PUSH2 0x2015 JUMP JUMPDEST SWAP2 POP PUSH2 0x11DB JUMP JUMPDEST PUSH1 0x0 DUP2 PUSH8 0xFFFFFFFFFFFFFFFF DUP2 GT ISZERO PUSH2 0x1247 JUMPI PUSH32 0x4E487B7100000000000000000000000000000000000000000000000000000000 PUSH1 0x0 MSTORE PUSH1 0x41 PUSH1 0x4 MSTORE PUSH1 0x24 PUSH1 0x0 REVERT JUMPDEST PUSH1 0x40 MLOAD SWAP1 DUP1 DUP3 MSTORE DUP1 PUSH1 0x1F ADD PUSH1 0x1F NOT AND PUSH1 0x20 ADD DUP3 ADD PUSH1 0x40 MSTORE DUP1 ISZERO PUSH2 0x1279 JUMPI DUP2 PUSH1 0x20 ADD PUSH1 0x1 DUP3 MUL DUP1 CALLDATASIZE DUP4 CALLDATACOPY DUP1 DUP3 ADD SWAP2 POP POP SWAP1 POP JUMPDEST POP SWAP1 POP JUMPDEST PUSH1 0x0 DUP6 EQ PUSH2 0x132C JUMPI PUSH1 0x1 DUP3 PUSH2 0x1292 SWAP2 SWAP1 PUSH2 0x2046 JUMP JUMPDEST SWAP2 POP PUSH1 0xA DUP6 PUSH2 0x12A1 SWAP2 SWAP1 PUSH2 0x21DC JUMP JUMPDEST PUSH1 0x30 PUSH2 0x12AD SWAP2 SWAP1 PUSH2 0x1FBF JUMP JUMPDEST PUSH1 0xF8 SHL DUP2 DUP4 DUP2 MLOAD DUP2 LT PUSH2 0x12E9 JUMPI PUSH32 0x4E487B7100000000000000000000000000000000000000000000000000000000 PUSH1 0x0 MSTORE PUSH1 0x32 PUSH1 0x4 MSTORE PUSH1 0x24 PUSH1 0x0 REVERT JUMPDEST PUSH1 0x20 ADD ADD SWAP1 PUSH31 0xFFFFFFFFFFFFFFFFFFFFFFFFFFFFFFFFFFFFFFFFFFFFFFFFFFFFFFFFFFFFFF NOT AND SWAP1 DUP2 PUSH1 0x0 BYTE SWAP1 MSTORE8 POP PUSH1 0xA DUP6 PUSH2 0x1325 SWAP2 SWAP1 PUSH2 0x2015 JUMP JUMPDEST SWAP5 POP PUSH2 0x127D JUMP JUMPDEST DUP1 SWAP4 POP POP POP POP JUMPDEST SWAP2 SWAP1 POP JUMP JUMPDEST POP POP POP JUMP JUMPDEST POP POP POP JUMP JUMPDEST PUSH1 0x0 PUSH20 0xFFFFFFFFFFFFFFFFFFFFFFFFFFFFFFFFFFFFFFFF AND DUP3 PUSH20 0xFFFFFFFFFFFFFFFFFFFFFFFFFFFFFFFFFFFFFFFF AND EQ ISZERO PUSH2 0x13B2 JUMPI PUSH1 0x40 MLOAD PUSH32 0x8C379A000000000000000000000000000000000000000000000000000000000 DUP2 MSTORE PUSH1 0x4 ADD PUSH2 0x13A9 SWAP1 PUSH2 0x1E6B JUMP JUMPDEST PUSH1 0x40 MLOAD DUP1 SWAP2 SUB SWAP1 REVERT JUMPDEST PUSH2 0x13BB DUP2 PUSH2 0xAB8 JUMP JUMPDEST ISZERO PUSH2 0x13FB JUMPI PUSH1 0x40 MLOAD PUSH32 0x8C379A000000000000000000000000000000000000000000000000000000000 DUP2 MSTORE PUSH1 0x4 ADD PUSH2 0x13F2 SWAP1 PUSH2 0x1D8B JUMP JUMPDEST PUSH1 0x40 MLOAD DUP1 SWAP2 SUB SWAP1 REVERT JUMPDEST PUSH2 0x1407 PUSH1 0x0 DUP4 DUP4 PUSH2 0x1338 JUMP JUMPDEST PUSH1 0x1 PUSH1 0x4 PUSH1 0x0 DUP5 PUSH20 0xFFFFFFFFFFFFFFFFFFFFFFFFFFFFFFFFFFFFFFFF AND PUSH20 0xFFFFFFFFFFFFFFFFFFFFFFFFFFFFFFFFFFFFFFFF AND DUP2 MSTORE PUSH1 0x20 ADD SWAP1 DUP2 MSTORE PUSH1 0x20 ADD PUSH1 0x0 KECCAK256 PUSH1 0x0 DUP3 DUP3 SLOAD PUSH2 0x1457 SWAP2 SWAP1 PUSH2 0x1FBF JUMP JUMPDEST SWAP3 POP POP DUP2 SWAP1 SSTORE POP DUP2 PUSH1 0x3 PUSH1 0x0 DUP4 DUP2 MSTORE PUSH1 0x20 ADD SWAP1 DUP2 MSTORE PUSH1 0x20 ADD PUSH1 0x0 KECCAK256 PUSH1 0x0 PUSH2 0x100 EXP DUP2 SLOAD DUP2 PUSH20 0xFFFFFFFFFFFFFFFFFFFFFFFFFFFFFFFFFFFFFFFF MUL NOT AND SWAP1 DUP4 PUSH20 0xFFFFFFFFFFFFFFFFFFFFFFFFFFFFFFFFFFFFFFFF AND MUL OR SWAP1 SSTORE POP DUP1 DUP3 PUSH20 0xFFFFFFFFFFFFFFFFFFFFFFFFFFFFFFFFFFFFFFFF AND PUSH1 0x0 PUSH20 0xFFFFFFFFFFFFFFFFFFFFFFFFFFFFFFFFFFFFFFFF AND PUSH32 0xDDF252AD1BE2C89B69C2B068FC378DAA952BA7F163C4A11628F55A4DF523B3EF PUSH1 0x40 MLOAD PUSH1 0x40 MLOAD DUP1 SWAP2 SUB SWAP1 LOG4 PUSH2 0x1518 PUSH1 0x0 DUP4 DUP4 PUSH2 0x133D JUMP JUMPDEST POP POP JUMP JUMPDEST PUSH1 0x0 PUSH2 0x153D DUP5 PUSH20 0xFFFFFFFFFFFFFFFFFFFFFFFFFFFFFFFFFFFFFFFF AND PUSH2 0x16B3 JUMP JUMPDEST ISZERO PUSH2 0x16A6 JUMPI DUP4 PUSH20 0xFFFFFFFFFFFFFFFFFFFFFFFFFFFFFFFFFFFFFFFF AND PUSH4 0x150B7A02 PUSH2 0x1566 PUSH2 0xB24 JUMP JUMPDEST DUP8 DUP7 DUP7 PUSH1 0x40 MLOAD DUP6 PUSH4 0xFFFFFFFF AND PUSH1 0xE0 SHL DUP2 MSTORE PUSH1 0x4 ADD PUSH2 0x1588 SWAP5 SWAP4 SWAP3 SWAP2 SWAP1 PUSH2 0x1CC2 JUMP JUMPDEST PUSH1 0x20 PUSH1 0x40 MLOAD DUP1 DUP4 SUB DUP2 PUSH1 0x0 DUP8 DUP1 EXTCODESIZE ISZERO DUP1 ISZERO PUSH2 0x15A2 JUMPI PUSH1 0x0 DUP1 REVERT JUMPDEST POP GAS CALL SWAP3 POP POP POP DUP1 ISZERO PUSH2 0x15D3 JUMPI POP PUSH1 0x40 MLOAD RETURNDATASIZE PUSH1 0x1F NOT PUSH1 0x1F DUP3 ADD AND DUP3 ADD DUP1 PUSH1 0x40 MSTORE POP DUP2 ADD SWAP1 PUSH2 0x15D0 SWAP2 SWAP1 PUSH2 0x1977 JUMP JUMPDEST PUSH1 0x1 JUMPDEST PUSH2 0x1656 JUMPI RETURNDATASIZE DUP1 PUSH1 0x0 DUP2 EQ PUSH2 0x1603 JUMPI PUSH1 0x40 MLOAD SWAP2 POP PUSH1 0x1F NOT PUSH1 0x3F RETURNDATASIZE ADD AND DUP3 ADD PUSH1 0x40 MSTORE RETURNDATASIZE DUP3 MSTORE RETURNDATASIZE PUSH1 0x0 PUSH1 0x20 DUP5 ADD RETURNDATACOPY PUSH2 0x1608 JUMP JUMPDEST PUSH1 0x60 SWAP2 POP JUMPDEST POP PUSH1 0x0 DUP2 MLOAD EQ ISZERO PUSH2 0x164E JUMPI PUSH1 0x40 MLOAD PUSH32 0x8C379A000000000000000000000000000000000000000000000000000000000 DUP2 MSTORE PUSH1 0x4 ADD PUSH2 0x1645 SWAP1 PUSH2 0x1D4B JUMP JUMPDEST PUSH1 0x40 MLOAD DUP1 SWAP2 SUB SWAP1 REVERT JUMPDEST DUP1 MLOAD DUP2 PUSH1 0x20 ADD REVERT JUMPDEST PUSH4 0x150B7A02 PUSH1 0xE0 SHL PUSH28 0xFFFFFFFFFFFFFFFFFFFFFFFFFFFFFFFFFFFFFFFFFFFFFFFFFFFFFFFF NOT AND DUP2 PUSH28 0xFFFFFFFFFFFFFFFFFFFFFFFFFFFFFFFFFFFFFFFFFFFFFFFFFFFFFFFF NOT AND EQ SWAP2 POP POP PUSH2 0x16AB JUMP JUMPDEST PUSH1 0x1 SWAP1 POP JUMPDEST SWAP5 SWAP4 POP POP POP POP JUMP JUMPDEST PUSH1 0x0 DUP1 DUP3 PUSH20 0xFFFFFFFFFFFFFFFFFFFFFFFFFFFFFFFFFFFFFFFF AND EXTCODESIZE GT SWAP1 POP SWAP2 SWAP1 POP JUMP JUMPDEST PUSH1 0x0 PUSH2 0x16E9 PUSH2 0x16E4 DUP5 PUSH2 0x1F4B JUMP JUMPDEST PUSH2 0x1F26 JUMP JUMPDEST SWAP1 POP DUP3 DUP2 MSTORE PUSH1 0x20 DUP2 ADD DUP5 DUP5 DUP5 ADD GT ISZERO PUSH2 0x1701 JUMPI PUSH1 0x0 DUP1 REVERT JUMPDEST PUSH2 0x170C DUP5 DUP3 DUP6 PUSH2 0x20EE JUMP JUMPDEST POP SWAP4 SWAP3 POP POP POP JUMP JUMPDEST PUSH1 0x0 DUP2 CALLDATALOAD SWAP1 POP PUSH2 0x1723 DUP2 PUSH2 0x26BA JUMP JUMPDEST SWAP3 SWAP2 POP POP JUMP JUMPDEST PUSH1 0x0 DUP2 CALLDATALOAD SWAP1 POP PUSH2 0x1738 DUP2 PUSH2 0x26D1 JUMP JUMPDEST SWAP3 SWAP2 POP POP JUMP JUMPDEST PUSH1 0x0 DUP2 CALLDATALOAD SWAP1 POP PUSH2 0x174D DUP2 PUSH2 0x26E8 JUMP JUMPDEST SWAP3 SWAP2 POP POP JUMP JUMPDEST PUSH1 0x0 DUP2 MLOAD SWAP1 POP PUSH2 0x1762 DUP2 PUSH2 0x26E8 JUMP JUMPDEST SWAP3 SWAP2 POP POP JUMP JUMPDEST PUSH1 0x0 DUP3 PUSH1 0x1F DUP4 ADD SLT PUSH2 0x1779 JUMPI PUSH1 0x0 DUP1 REVERT JUMPDEST DUP2 CALLDATALOAD PUSH2 0x1789 DUP5 DUP3 PUSH1 0x20 DUP7 ADD PUSH2 0x16D6 JUMP JUMPDEST SWAP2 POP POP SWAP3 SWAP2 POP POP JUMP JUMPDEST PUSH1 0x0 DUP2 CALLDATALOAD SWAP1 POP PUSH2 0x17A1 DUP2 PUSH2 0x26FF JUMP JUMPDEST SWAP3 SWAP2 POP POP JUMP JUMPDEST PUSH1 0x0 PUSH1 0x20 DUP3 DUP5 SUB SLT ISZERO PUSH2 0x17B9 JUMPI PUSH1 0x0 DUP1 REVERT JUMPDEST PUSH1 0x0 PUSH2 0x17C7 DUP5 DUP3 DUP6 ADD PUSH2 0x1714 JUMP JUMPDEST SWAP2 POP POP SWAP3 SWAP2 POP POP JUMP JUMPDEST PUSH1 0x0 DUP1 PUSH1 0x40 DUP4 DUP6 SUB SLT ISZERO PUSH2 0x17E3 JUMPI PUSH1 0x0 DUP1 REVERT JUMPDEST PUSH1 0x0 PUSH2 0x17F1 DUP6 DUP3 DUP7 ADD PUSH2 0x1714 JUMP JUMPDEST SWAP3 POP POP PUSH1 0x20 PUSH2 0x1802 DUP6 DUP3 DUP7 ADD PUSH2 0x1714 JUMP JUMPDEST SWAP2 POP POP SWAP3 POP SWAP3 SWAP1 POP JUMP JUMPDEST PUSH1 0x0 DUP1 PUSH1 0x0 PUSH1 0x60 DUP5 DUP7 SUB SLT ISZERO PUSH2 0x1821 JUMPI PUSH1 0x0 DUP1 REVERT JUMPDEST PUSH1 0x0 PUSH2 0x182F DUP7 DUP3 DUP8 ADD PUSH2 0x1714 JUMP JUMPDEST SWAP4 POP POP PUSH1 0x20 PUSH2 0x1840 DUP7 DUP3 DUP8 ADD PUSH2 0x1714 JUMP JUMPDEST SWAP3 POP POP PUSH1 0x40 PUSH2 0x1851 DUP7 DUP3 DUP8 ADD PUSH2 0x1792 JUMP JUMPDEST SWAP2 POP POP SWAP3 POP SWAP3 POP SWAP3 JUMP JUMPDEST PUSH1 0x0 DUP1 PUSH1 0x0 DUP1 PUSH1 0x80 DUP6 DUP8 SUB SLT ISZERO PUSH2 0x1871 JUMPI PUSH1 0x0 DUP1 REVERT JUMPDEST PUSH1 0x0 PUSH2 0x187F DUP8 DUP3 DUP9 ADD PUSH2 0x1714 JUMP JUMPDEST SWAP5 POP POP PUSH1 0x20 PUSH2 0x1890 DUP8 DUP3 DUP9 ADD PUSH2 0x1714 JUMP JUMPDEST SWAP4 POP POP PUSH1 0x40 PUSH2 0x18A1 DUP8 DUP3 DUP9 ADD PUSH2 0x1792 JUMP JUMPDEST SWAP3 POP POP PUSH1 0x60 DUP6 ADD CALLDATALOAD PUSH8 0xFFFFFFFFFFFFFFFF DUP2 GT ISZERO PUSH2 0x18BE JUMPI PUSH1 0x0 DUP1 REVERT JUMPDEST PUSH2 0x18CA DUP8 DUP3 DUP9 ADD PUSH2 0x1768 JUMP JUMPDEST SWAP2 POP POP SWAP3 SWAP6 SWAP2 SWAP5 POP SWAP3 POP JUMP JUMPDEST PUSH1 0x0 DUP1 PUSH1 0x40 DUP4 DUP6 SUB SLT ISZERO PUSH2 0x18E9 JUMPI PUSH1 0x0 DUP1 REVERT JUMPDEST PUSH1 0x0 PUSH2 0x18F7 DUP6 DUP3 DUP7 ADD PUSH2 0x1714 JUMP JUMPDEST SWAP3 POP POP PUSH1 0x20 PUSH2 0x1908 DUP6 DUP3 DUP7 ADD PUSH2 0x1729 JUMP JUMPDEST SWAP2 POP POP SWAP3 POP SWAP3 SWAP1 POP JUMP JUMPDEST PUSH1 0x0 DUP1 PUSH1 0x40 DUP4 DUP6 SUB SLT ISZERO PUSH2 0x1925 JUMPI PUSH1 0x0 DUP1 REVERT JUMPDEST PUSH1 0x0 PUSH2 0x1933 DUP6 DUP3 DUP7 ADD PUSH2 0x1714 JUMP JUMPDEST SWAP3 POP POP PUSH1 0x20 PUSH2 0x1944 DUP6 DUP3 DUP7 ADD PUSH2 0x1792 JUMP JUMPDEST SWAP2 POP POP SWAP3 POP SWAP3 SWAP1 POP JUMP JUMPDEST PUSH1 0x0 PUSH1 0x20 DUP3 DUP5 SUB SLT ISZERO PUSH2 0x1960 JUMPI PUSH1 0x0 DUP1 REVERT JUMPDEST PUSH1 0x0 PUSH2 0x196E DUP5 DUP3 DUP6 ADD PUSH2 0x173E JUMP JUMPDEST SWAP2 POP POP SWAP3 SWAP2 POP POP JUMP JUMPDEST PUSH1 0x0 PUSH1 0x20 DUP3 DUP5 SUB SLT ISZERO PUSH2 0x1989 JUMPI PUSH1 0x0 DUP1 REVERT JUMPDEST PUSH1 0x0 PUSH2 0x1997 DUP5 DUP3 DUP6 ADD PUSH2 0x1753 JUMP JUMPDEST SWAP2 POP POP SWAP3 SWAP2 POP POP JUMP JUMPDEST PUSH1 0x0 PUSH1 0x20 DUP3 DUP5 SUB SLT ISZERO PUSH2 0x19B2 JUMPI PUSH1 0x0 DUP1 REVERT JUMPDEST PUSH1 0x0 PUSH2 0x19C0 DUP5 DUP3 DUP6 ADD PUSH2 0x1792 JUMP JUMPDEST SWAP2 POP POP SWAP3 SWAP2 POP POP JUMP JUMPDEST PUSH2 0x19D2 DUP2 PUSH2 0x207A JUMP JUMPDEST DUP3 MSTORE POP POP JUMP JUMPDEST PUSH2 0x19E1 DUP2 PUSH2 0x208C JUMP JUMPDEST DUP3 MSTORE POP POP JUMP JUMPDEST PUSH1 0x0 PUSH2 0x19F2 DUP3 PUSH2 0x1F7C JUMP JUMPDEST PUSH2 0x19FC DUP2 DUP6 PUSH2 0x1F92 JUMP JUMPDEST SWAP4 POP PUSH2 0x1A0C DUP2 DUP6 PUSH1 0x20 DUP7 ADD PUSH2 0x20FD JUMP JUMPDEST PUSH2 0x1A15 DUP2 PUSH2 0x22C9 JUMP JUMPDEST DUP5 ADD SWAP2 POP POP SWAP3 SWAP2 POP POP JUMP JUMPDEST PUSH1 0x0 PUSH2 0x1A2B DUP3 PUSH2 0x1F87 JUMP JUMPDEST PUSH2 0x1A35 DUP2 DUP6 PUSH2 0x1FA3 JUMP JUMPDEST SWAP4 POP PUSH2 0x1A45 DUP2 DUP6 PUSH1 0x20 DUP7 ADD PUSH2 0x20FD JUMP JUMPDEST PUSH2 0x1A4E DUP2 PUSH2 0x22C9 JUMP JUMPDEST DUP5 ADD SWAP2 POP POP SWAP3 SWAP2 POP POP JUMP JUMPDEST PUSH1 0x0 PUSH2 0x1A64 DUP3 PUSH2 0x1F87 JUMP JUMPDEST PUSH2 0x1A6E DUP2 DUP6 PUSH2 0x1FB4 JUMP JUMPDEST SWAP4 POP PUSH2 0x1A7E DUP2 DUP6 PUSH1 0x20 DUP7 ADD PUSH2 0x20FD JUMP JUMPDEST DUP1 DUP5 ADD SWAP2 POP POP SWAP3 SWAP2 POP POP JUMP JUMPDEST PUSH1 0x0 PUSH2 0x1A97 PUSH1 0x32 DUP4 PUSH2 0x1FA3 JUMP JUMPDEST SWAP2 POP PUSH2 0x1AA2 DUP3 PUSH2 0x22DA JUMP JUMPDEST PUSH1 0x40 DUP3 ADD SWAP1 POP SWAP2 SWAP1 POP JUMP JUMPDEST PUSH1 0x0 PUSH2 0x1ABA PUSH1 0x25 DUP4 PUSH2 0x1FA3 JUMP JUMPDEST SWAP2 POP PUSH2 0x1AC5 DUP3 PUSH2 0x2329 JUMP JUMPDEST PUSH1 0x40 DUP3 ADD SWAP1 POP SWAP2 SWAP1 POP JUMP JUMPDEST PUSH1 0x0 PUSH2 0x1ADD PUSH1 0x1C DUP4 PUSH2 0x1FA3 JUMP JUMPDEST SWAP2 POP PUSH2 0x1AE8 DUP3 PUSH2 0x2378 JUMP JUMPDEST PUSH1 0x20 DUP3 ADD SWAP1 POP SWAP2 SWAP1 POP JUMP JUMPDEST PUSH1 0x0 PUSH2 0x1B00 PUSH1 0x24 DUP4 PUSH2 0x1FA3 JUMP JUMPDEST SWAP2 POP PUSH2 0x1B0B DUP3 PUSH2 0x23A1 JUMP JUMPDEST PUSH1 0x40 DUP3 ADD SWAP1 POP SWAP2 SWAP1 POP JUMP JUMPDEST PUSH1 0x0 PUSH2 0x1B23 PUSH1 0x19 DUP4 PUSH2 0x1FA3 JUMP JUMPDEST SWAP2 POP PUSH2 0x1B2E DUP3 PUSH2 0x23F0 JUMP JUMPDEST PUSH1 0x20 DUP3 ADD SWAP1 POP SWAP2 SWAP1 POP JUMP JUMPDEST PUSH1 0x0 PUSH2 0x1B46 PUSH1 0x2C DUP4 PUSH2 0x1FA3 JUMP JUMPDEST SWAP2 POP PUSH2 0x1B51 DUP3 PUSH2 0x2419 JUMP JUMPDEST PUSH1 0x40 DUP3 ADD SWAP1 POP SWAP2 SWAP1 POP JUMP JUMPDEST PUSH1 0x0 PUSH2 0x1B69 PUSH1 0x38 DUP4 PUSH2 0x1FA3 JUMP JUMPDEST SWAP2 POP PUSH2 0x1B74 DUP3 PUSH2 0x2468 JUMP JUMPDEST PUSH1 0x40 DUP3 ADD SWAP1 POP SWAP2 SWAP1 POP JUMP JUMPDEST PUSH1 0x0 PUSH2 0x1B8C PUSH1 0x2A DUP4 PUSH2 0x1FA3 JUMP JUMPDEST SWAP2 POP PUSH2 0x1B97 DUP3 PUSH2 0x24B7 JUMP JUMPDEST PUSH1 0x40 DUP3 ADD SWAP1 POP SWAP2 SWAP1 POP JUMP JUMPDEST PUSH1 0x0 PUSH2 0x1BAF PUSH1 0x29 DUP4 PUSH2 0x1FA3 JUMP JUMPDEST SWAP2 POP PUSH2 0x1BBA DUP3 PUSH2 0x2506 JUMP JUMPDEST PUSH1 0x40 DUP3 ADD SWAP1 POP SWAP2 SWAP1 POP JUMP JUMPDEST PUSH1 0x0 PUSH2 0x1BD2 PUSH1 0x20 DUP4 PUSH2 0x1FA3 JUMP JUMPDEST SWAP2 POP PUSH2 0x1BDD DUP3 PUSH2 0x2555 JUMP JUMPDEST PUSH1 0x20 DUP3 ADD SWAP1 POP SWAP2 SWAP1 POP JUMP JUMPDEST PUSH1 0x0 PUSH2 0x1BF5 PUSH1 0x2C DUP4 PUSH2 0x1FA3 JUMP JUMPDEST SWAP2 POP PUSH2 0x1C00 DUP3 PUSH2 0x257E JUMP JUMPDEST PUSH1 0x40 DUP3 ADD SWAP1 POP SWAP2 SWAP1 POP JUMP JUMPDEST PUSH1 0x0 PUSH2 0x1C18 PUSH1 0x2F DUP4 PUSH2 0x1FA3 JUMP JUMPDEST SWAP2 POP PUSH2 0x1C23 DUP3 PUSH2 0x25CD JUMP JUMPDEST PUSH1 0x40 DUP3 ADD SWAP1 POP SWAP2 SWAP1 POP JUMP JUMPDEST PUSH1 0x0 PUSH2 0x1C3B PUSH1 0x21 DUP4 PUSH2 0x1FA3 JUMP JUMPDEST SWAP2 POP PUSH2 0x1C46 DUP3 PUSH2 0x261C JUMP JUMPDEST PUSH1 0x40 DUP3 ADD SWAP1 POP SWAP2 SWAP1 POP JUMP JUMPDEST PUSH1 0x0 PUSH2 0x1C5E PUSH1 0x31 DUP4 PUSH2 0x1FA3 JUMP JUMPDEST SWAP2 POP PUSH2 0x1C69 DUP3 PUSH2 0x266B JUMP JUMPDEST PUSH1 0x40 DUP3 ADD SWAP1 POP SWAP2 SWAP1 POP JUMP JUMPDEST PUSH2 0x1C7D DUP2 PUSH2 0x20E4 JUMP JUMPDEST DUP3 MSTORE POP POP JUMP JUMPDEST PUSH1 0x0 PUSH2 0x1C8F DUP3 DUP6 PUSH2 0x1A59 JUMP JUMPDEST SWAP2 POP PUSH2 0x1C9B DUP3 DUP5 PUSH2 0x1A59 JUMP JUMPDEST SWAP2 POP DUP2 SWAP1 POP SWAP4 SWAP3 POP POP POP JUMP JUMPDEST PUSH1 0x0 PUSH1 0x20 DUP3 ADD SWAP1 POP PUSH2 0x1CBC PUSH1 0x0 DUP4 ADD DUP5 PUSH2 0x19C9 JUMP JUMPDEST SWAP3 SWAP2 POP POP JUMP JUMPDEST PUSH1 0x0 PUSH1 0x80 DUP3 ADD SWAP1 POP PUSH2 0x1CD7 PUSH1 0x0 DUP4 ADD DUP8 PUSH2 0x19C9 JUMP JUMPDEST PUSH2 0x1CE4 PUSH1 0x20 DUP4 ADD DUP7 PUSH2 0x19C9 JUMP JUMPDEST PUSH2 0x1CF1 PUSH1 0x40 DUP4 ADD DUP6 PUSH2 0x1C74 JUMP JUMPDEST DUP2 DUP2 SUB PUSH1 0x60 DUP4 ADD MSTORE PUSH2 0x1D03 DUP2 DUP5 PUSH2 0x19E7 JUMP JUMPDEST SWAP1 POP SWAP6 SWAP5 POP POP POP POP POP JUMP JUMPDEST PUSH1 0x0 PUSH1 0x20 DUP3 ADD SWAP1 POP PUSH2 0x1D23 PUSH1 0x0 DUP4 ADD DUP5 PUSH2 0x19D8 JUMP JUMPDEST SWAP3 SWAP2 POP POP JUMP JUMPDEST PUSH1 0x0 PUSH1 0x20 DUP3 ADD SWAP1 POP DUP2 DUP2 SUB PUSH1 0x0 DUP4 ADD MSTORE PUSH2 0x1D43 DUP2 DUP5 PUSH2 0x1A20 JUMP JUMPDEST SWAP1 POP SWAP3 SWAP2 POP POP JUMP JUMPDEST PUSH1 0x0 PUSH1 0x20 DUP3 ADD SWAP1 POP DUP2 DUP2 SUB PUSH1 0x0 DUP4 ADD MSTORE PUSH2 0x1D64 DUP2 PUSH2 0x1A8A JUMP JUMPDEST SWAP1 POP SWAP2 SWAP1 POP JUMP JUMPDEST PUSH1 0x0 PUSH1 0x20 DUP3 ADD SWAP1 POP DUP2 DUP2 SUB PUSH1 0x0 DUP4 ADD MSTORE PUSH2 0x1D84 DUP2 PUSH2 0x1AAD JUMP JUMPDEST SWAP1 POP SWAP2 SWAP1 POP JUMP JUMPDEST PUSH1 0x0 PUSH1 0x20 DUP3 ADD SWAP1 POP DUP2 DUP2 SUB PUSH1 0x0 DUP4 ADD MSTORE PUSH2 0x1DA4 DUP2 PUSH2 0x1AD0 JUMP JUMPDEST SWAP1 POP SWAP2 SWAP1 POP JUMP JUMPDEST PUSH1 0x0 PUSH1 0x20 DUP3 ADD SWAP1 POP DUP2 DUP2 SUB PUSH1 0x0 DUP4 ADD MSTORE PUSH2 0x1DC4 DUP2 PUSH2 0x1AF3 JUMP JUMPDEST SWAP1 POP SWAP2 SWAP1 POP JUMP JUMPDEST PUSH1 0x0 PUSH1 0x20 DUP3 ADD SWAP1 POP DUP2 DUP2 SUB PUSH1 0x0 DUP4 ADD MSTORE PUSH2 0x1DE4 DUP2 PUSH2 0x1B16 JUMP JUMPDEST SWAP1 POP SWAP2 SWAP1 POP JUMP JUMPDEST PUSH1 0x0 PUSH1 0x20 DUP3 ADD SWAP1 POP DUP2 DUP2 SUB PUSH1 0x0 DUP4 ADD MSTORE PUSH2 0x1E04 DUP2 PUSH2 0x1B39 JUMP JUMPDEST SWAP1 POP SWAP2 SWAP1 POP JUMP JUMPDEST PUSH1 0x0 PUSH1 0x20 DUP3 ADD SWAP1 POP DUP2 DUP2 SUB PUSH1 0x0 DUP4 ADD MSTORE PUSH2 0x1E24 DUP2 PUSH2 0x1B5C JUMP JUMPDEST SWAP1 POP SWAP2 SWAP1 POP JUMP JUMPDEST PUSH1 0x0 PUSH1 0x20 DUP3 ADD SWAP1 POP DUP2 DUP2 SUB PUSH1 0x0 DUP4 ADD MSTORE PUSH2 0x1E44 DUP2 PUSH2 0x1B7F JUMP JUMPDEST SWAP1 POP SWAP2 SWAP1 POP JUMP JUMPDEST PUSH1 0x0 PUSH1 0x20 DUP3 ADD SWAP1 POP DUP2 DUP2 SUB PUSH1 0x0 DUP4 ADD MSTORE PUSH2 0x1E64 DUP2 PUSH2 0x1BA2 JUMP JUMPDEST SWAP1 POP SWAP2 SWAP1 POP JUMP JUMPDEST PUSH1 0x0 PUSH1 0x20 DUP3 ADD SWAP1 POP DUP2 DUP2 SUB PUSH1 0x0 DUP4 ADD MSTORE PUSH2 0x1E84 DUP2 PUSH2 0x1BC5 JUMP JUMPDEST SWAP1 POP SWAP2 SWAP1 POP JUMP JUMPDEST PUSH1 0x0 PUSH1 0x20 DUP3 ADD SWAP1 POP DUP2 DUP2 SUB PUSH1 0x0 DUP4 ADD MSTORE PUSH2 0x1EA4 DUP2 PUSH2 0x1BE8 JUMP JUMPDEST SWAP1 POP SWAP2 SWAP1 POP JUMP JUMPDEST PUSH1 0x0 PUSH1 0x20 DUP3 ADD SWAP1 POP DUP2 DUP2 SUB PUSH1 0x0 DUP4 ADD MSTORE PUSH2 0x1EC4 DUP2 PUSH2 0x1C0B JUMP JUMPDEST SWAP1 POP SWAP2 SWAP1 POP JUMP JUMPDEST PUSH1 0x0 PUSH1 0x20 DUP3 ADD SWAP1 POP DUP2 DUP2 SUB PUSH1 0x0 DUP4 ADD MSTORE PUSH2 0x1EE4 DUP2 PUSH2 0x1C2E JUMP JUMPDEST SWAP1 POP SWAP2 SWAP1 POP JUMP JUMPDEST PUSH1 0x0 PUSH1 0x20 DUP3 ADD SWAP1 POP DUP2 DUP2 SUB PUSH1 0x0 DUP4 ADD MSTORE PUSH2 0x1F04 DUP2 PUSH2 0x1C51 JUMP JUMPDEST SWAP1 POP SWAP2 SWAP1 POP JUMP JUMPDEST PUSH1 0x0 PUSH1 0x20 DUP3 ADD SWAP1 POP PUSH2 0x1F20 PUSH1 0x0 DUP4 ADD DUP5 PUSH2 0x1C74 JUMP JUMPDEST SWAP3 SWAP2 POP POP JUMP JUMPDEST PUSH1 0x0 PUSH2 0x1F30 PUSH2 0x1F41 JUMP JUMPDEST SWAP1 POP PUSH2 0x1F3C DUP3 DUP3 PUSH2 0x2162 JUMP JUMPDEST SWAP2 SWAP1 POP JUMP JUMPDEST PUSH1 0x0 PUSH1 0x40 MLOAD SWAP1 POP SWAP1 JUMP JUMPDEST PUSH1 0x0 PUSH8 0xFFFFFFFFFFFFFFFF DUP3 GT ISZERO PUSH2 0x1F66 JUMPI PUSH2 0x1F65 PUSH2 0x229A JUMP JUMPDEST JUMPDEST PUSH2 0x1F6F DUP3 PUSH2 0x22C9 JUMP JUMPDEST SWAP1 POP PUSH1 0x20 DUP2 ADD SWAP1 POP SWAP2 SWAP1 POP JUMP JUMPDEST PUSH1 0x0 DUP2 MLOAD SWAP1 POP SWAP2 SWAP1 POP JUMP JUMPDEST PUSH1 0x0 DUP2 MLOAD SWAP1 POP SWAP2 SWAP1 POP JUMP JUMPDEST PUSH1 0x0 DUP3 DUP3 MSTORE PUSH1 0x20 DUP3 ADD SWAP1 POP SWAP3 SWAP2 POP POP JUMP JUMPDEST PUSH1 0x0 DUP3 DUP3 MSTORE PUSH1 0x20 DUP3 ADD SWAP1 POP SWAP3 SWAP2 POP POP JUMP JUMPDEST PUSH1 0x0 DUP2 SWAP1 POP SWAP3 SWAP2 POP POP JUMP JUMPDEST PUSH1 0x0 PUSH2 0x1FCA DUP3 PUSH2 0x20E4 JUMP JUMPDEST SWAP2 POP PUSH2 0x1FD5 DUP4 PUSH2 0x20E4 JUMP JUMPDEST SWAP3 POP DUP3 PUSH32 0xFFFFFFFFFFFFFFFFFFFFFFFFFFFFFFFFFFFFFFFFFFFFFFFFFFFFFFFFFFFFFFFF SUB DUP3 GT ISZERO PUSH2 0x200A JUMPI PUSH2 0x2009 PUSH2 0x220D JUMP JUMPDEST JUMPDEST DUP3 DUP3 ADD SWAP1 POP SWAP3 SWAP2 POP POP JUMP JUMPDEST PUSH1 0x0 PUSH2 0x2020 DUP3 PUSH2 0x20E4 JUMP JUMPDEST SWAP2 POP PUSH2 0x202B DUP4 PUSH2 0x20E4 JUMP JUMPDEST SWAP3 POP DUP3 PUSH2 0x203B JUMPI PUSH2 0x203A PUSH2 0x223C JUMP JUMPDEST JUMPDEST DUP3 DUP3 DIV SWAP1 POP SWAP3 SWAP2 POP POP JUMP JUMPDEST PUSH1 0x0 PUSH2 0x2051 DUP3 PUSH2 0x20E4 JUMP JUMPDEST SWAP2 POP PUSH2 0x205C DUP4 PUSH2 0x20E4 JUMP JUMPDEST SWAP3 POP DUP3 DUP3 LT ISZERO PUSH2 0x206F JUMPI PUSH2 0x206E PUSH2 0x220D JUMP JUMPDEST JUMPDEST DUP3 DUP3 SUB SWAP1 POP SWAP3 SWAP2 POP POP JUMP JUMPDEST PUSH1 0x0 PUSH2 0x2085 DUP3 PUSH2 0x20C4 JUMP JUMPDEST SWAP1 POP SWAP2 SWAP1 POP JUMP JUMPDEST PUSH1 0x0 DUP2 ISZERO ISZERO SWAP1 POP SWAP2 SWAP1 POP JUMP JUMPDEST PUSH1 0x0 PUSH32 0xFFFFFFFF00000000000000000000000000000000000000000000000000000000 DUP3 AND SWAP1 POP SWAP2 SWAP1 POP JUMP JUMPDEST PUSH1 0x0 PUSH20 0xFFFFFFFFFFFFFFFFFFFFFFFFFFFFFFFFFFFFFFFF DUP3 AND SWAP1 POP SWAP2 SWAP1 POP JUMP JUMPDEST PUSH1 0x0 DUP2 SWAP1 POP SWAP2 SWAP1 POP JUMP JUMPDEST DUP3 DUP2 DUP4 CALLDATACOPY PUSH1 0x0 DUP4 DUP4 ADD MSTORE POP POP POP JUMP JUMPDEST PUSH1 0x0 JUMPDEST DUP4 DUP2 LT ISZERO PUSH2 0x211B JUMPI DUP1 DUP3 ADD MLOAD DUP2 DUP5 ADD MSTORE PUSH1 0x20 DUP2 ADD SWAP1 POP PUSH2 0x2100 JUMP JUMPDEST DUP4 DUP2 GT ISZERO PUSH2 0x212A JUMPI PUSH1 0x0 DUP5 DUP5 ADD MSTORE JUMPDEST POP POP POP POP JUMP JUMPDEST PUSH1 0x0 PUSH1 0x2 DUP3 DIV SWAP1 POP PUSH1 0x1 DUP3 AND DUP1 PUSH2 0x2148 JUMPI PUSH1 0x7F DUP3 AND SWAP2 POP JUMPDEST PUSH1 0x20 DUP3 LT DUP2 EQ ISZERO PUSH2 0x215C JUMPI PUSH2 0x215B PUSH2 0x226B JUMP JUMPDEST JUMPDEST POP SWAP2 SWAP1 POP JUMP JUMPDEST PUSH2 0x216B DUP3 PUSH2 0x22C9 JUMP JUMPDEST DUP2 ADD DUP2 DUP2 LT PUSH8 0xFFFFFFFFFFFFFFFF DUP3 GT OR ISZERO PUSH2 0x218A JUMPI PUSH2 0x2189 PUSH2 0x229A JUMP JUMPDEST JUMPDEST DUP1 PUSH1 0x40 MSTORE POP POP POP JUMP JUMPDEST PUSH1 0x0 PUSH2 0x219E DUP3 PUSH2 0x20E4 JUMP JUMPDEST SWAP2 POP PUSH32 0xFFFFFFFFFFFFFFFFFFFFFFFFFFFFFFFFFFFFFFFFFFFFFFFFFFFFFFFFFFFFFFFF DUP3 EQ ISZERO PUSH2 0x21D1 JUMPI PUSH2 0x21D0 PUSH2 0x220D JUMP JUMPDEST JUMPDEST PUSH1 0x1 DUP3 ADD SWAP1 POP SWAP2 SWAP1 POP JUMP JUMPDEST PUSH1 0x0 PUSH2 0x21E7 DUP3 PUSH2 0x20E4 JUMP JUMPDEST SWAP2 POP PUSH2 0x21F2 DUP4 PUSH2 0x20E4 JUMP JUMPDEST SWAP3 POP DUP3 PUSH2 0x2202 JUMPI PUSH2 0x2201 PUSH2 0x223C JUMP JUMPDEST JUMPDEST DUP3 DUP3 MOD SWAP1 POP SWAP3 SWAP2 POP POP JUMP JUMPDEST PUSH32 0x4E487B7100000000000000000000000000000000000000000000000000000000 PUSH1 0x0 MSTORE PUSH1 0x11 PUSH1 0x4 MSTORE PUSH1 0x24 PUSH1 0x0 REVERT JUMPDEST PUSH32 0x4E487B7100000000000000000000000000000000000000000000000000000000 PUSH1 0x0 MSTORE PUSH1 0x12 PUSH1 0x4 MSTORE PUSH1 0x24 PUSH1 0x0 REVERT JUMPDEST PUSH32 0x4E487B7100000000000000000000000000000000000000000000000000000000 PUSH1 0x0 MSTORE PUSH1 0x22 PUSH1 0x4 MSTORE PUSH1 0x24 PUSH1 0x0 REVERT JUMPDEST PUSH32 0x4E487B7100000000000000000000000000000000000000000000000000000000 PUSH1 0x0 MSTORE PUSH1 0x41 PUSH1 0x4 MSTORE PUSH1 0x24 PUSH1 0x0 REVERT JUMPDEST PUSH1 0x0 PUSH1 0x1F NOT PUSH1 0x1F DUP4 ADD AND SWAP1 POP SWAP2 SWAP1 POP JUMP JUMPDEST PUSH32 0x4552433732313A207472616E7366657220746F206E6F6E204552433732315265 PUSH1 0x0 DUP3 ADD MSTORE PUSH32 0x63656976657220696D706C656D656E7465720000000000000000000000000000 PUSH1 0x20 DUP3 ADD MSTORE POP JUMP JUMPDEST PUSH32 0x4552433732313A207472616E736665722066726F6D20696E636F727265637420 PUSH1 0x0 DUP3 ADD MSTORE PUSH32 0x6F776E6572000000000000000000000000000000000000000000000000000000 PUSH1 0x20 DUP3 ADD MSTORE POP JUMP JUMPDEST PUSH32 0x4552433732313A20746F6B656E20616C7265616479206D696E74656400000000 PUSH1 0x0 DUP3 ADD MSTORE POP JUMP JUMPDEST PUSH32 0x4552433732313A207472616E7366657220746F20746865207A65726F20616464 PUSH1 0x0 DUP3 ADD MSTORE PUSH32 0x7265737300000000000000000000000000000000000000000000000000000000 PUSH1 0x20 DUP3 ADD MSTORE POP JUMP JUMPDEST PUSH32 0x4552433732313A20617070726F766520746F2063616C6C657200000000000000 PUSH1 0x0 DUP3 ADD MSTORE POP JUMP JUMPDEST PUSH32 0x4552433732313A206F70657261746F7220717565727920666F72206E6F6E6578 PUSH1 0x0 DUP3 ADD MSTORE PUSH32 0x697374656E7420746F6B656E0000000000000000000000000000000000000000 PUSH1 0x20 DUP3 ADD MSTORE POP JUMP JUMPDEST PUSH32 0x4552433732313A20617070726F76652063616C6C6572206973206E6F74206F77 PUSH1 0x0 DUP3 ADD MSTORE PUSH32 0x6E6572206E6F7220617070726F76656420666F7220616C6C0000000000000000 PUSH1 0x20 DUP3 ADD MSTORE POP JUMP JUMPDEST PUSH32 0x4552433732313A2062616C616E636520717565727920666F7220746865207A65 PUSH1 0x0 DUP3 ADD MSTORE PUSH32 0x726F206164647265737300000000000000000000000000000000000000000000 PUSH1 0x20 DUP3 ADD MSTORE POP JUMP JUMPDEST PUSH32 0x4552433732313A206F776E657220717565727920666F72206E6F6E6578697374 PUSH1 0x0 DUP3 ADD MSTORE PUSH32 0x656E7420746F6B656E0000000000000000000000000000000000000000000000 PUSH1 0x20 DUP3 ADD MSTORE POP JUMP JUMPDEST PUSH32 0x4552433732313A206D696E7420746F20746865207A65726F2061646472657373 PUSH1 0x0 DUP3 ADD MSTORE POP JUMP JUMPDEST PUSH32 0x4552433732313A20617070726F76656420717565727920666F72206E6F6E6578 PUSH1 0x0 DUP3 ADD MSTORE PUSH32 0x697374656E7420746F6B656E0000000000000000000000000000000000000000 PUSH1 0x20 DUP3 ADD MSTORE POP JUMP JUMPDEST PUSH32 0x4552433732314D657461646174613A2055524920717565727920666F72206E6F PUSH1 0x0 DUP3 ADD MSTORE PUSH32 0x6E6578697374656E7420746F6B656E0000000000000000000000000000000000 PUSH1 0x20 DUP3 ADD MSTORE POP JUMP JUMPDEST PUSH32 0x4552433732313A20617070726F76616C20746F2063757272656E74206F776E65 PUSH1 0x0 DUP3 ADD MSTORE PUSH32 0x7200000000000000000000000000000000000000000000000000000000000000 PUSH1 0x20 DUP3 ADD MSTORE POP JUMP JUMPDEST PUSH32 0x4552433732313A207472616E736665722063616C6C6572206973206E6F74206F PUSH1 0x0 DUP3 ADD MSTORE PUSH32 0x776E6572206E6F7220617070726F766564000000000000000000000000000000 PUSH1 0x20 DUP3 ADD MSTORE POP JUMP JUMPDEST PUSH2 0x26C3 DUP2 PUSH2 0x207A JUMP JUMPDEST DUP2 EQ PUSH2 0x26CE JUMPI PUSH1 0x0 DUP1 REVERT JUMPDEST POP JUMP JUMPDEST PUSH2 0x26DA DUP2 PUSH2 0x208C JUMP JUMPDEST DUP2 EQ PUSH2 0x26E5 JUMPI PUSH1 0x0 DUP1 REVERT JUMPDEST POP JUMP JUMPDEST PUSH2 0x26F1 DUP2 PUSH2 0x2098 JUMP JUMPDEST DUP2 EQ PUSH2 0x26FC JUMPI PUSH1 0x0 DUP1 REVERT JUMPDEST POP JUMP JUMPDEST PUSH2 0x2708 DUP2 PUSH2 0x20E4 JUMP JUMPDEST DUP2 EQ PUSH2 0x2713 JUMPI PUSH1 0x0 DUP1 REVERT JUMPDEST POP JUMP INVALID LOG2 PUSH5 0x6970667358 0x22 SLT KECCAK256 PUSH7 0x5B1518B898ECE6 0xC3 0xDE CALLDATACOPY 0xD3 0x49 OR PUSH5 0xBF8763BA48 CREATE2 EXP 0x5E MULMOD 0xC8 SWAP11 0xD6 0xD6 EXTCODEHASH RETURNDATACOPY DUP13 0xC3 PUSH5 0x736F6C6343 STOP ADDMOD ADD STOP CALLER "
				},
				"gasEstimates": {
					"creation": {
						"codeDepositCost": "2012000",
						"executionCost": "infinite",
						"totalCost": "infinite"
					},
					"external": {
						"_safeMint(address,uint256)": "infinite",
						"approve(address,uint256)": "infinite",
						"balanceOf(address)": "1602",
						"getApproved(uint256)": "2628",
						"isApprovedForAll(address,address)": "infinite",
						"name()": "infinite",
						"ownerOf(uint256)": "1766",
						"safeTransferFrom(address,address,uint256)": "infinite",
						"safeTransferFrom(address,address,uint256,bytes)": "infinite",
						"setApprovalForAll(address,bool)": "infinite",
						"supportsInterface(bytes4)": "1705",
						"symbol()": "infinite",
						"tokenURI(uint256)": "infinite",
						"transferFrom(address,address,uint256)": "infinite"
					},
					"internal": {
						"_afterTokenTransfer(address,address,uint256)": "15",
						"_approve(address,uint256)": "infinite",
						"_baseURI()": "infinite",
						"_beforeTokenTransfer(address,address,uint256)": "15",
						"_burn(uint256)": "infinite",
						"_checkOnERC721Received(address,address,uint256,bytes memory)": "infinite",
						"_exists(uint256)": "969",
						"_isApprovedOrOwner(address,uint256)": "infinite",
						"_mint(address,uint256)": "infinite",
						"_safeMint(address,uint256,bytes memory)": "infinite",
						"_safeTransfer(address,address,uint256,bytes memory)": "infinite",
						"_setApprovalForAll(address,address,bool)": "infinite",
						"_transfer(address,address,uint256)": "infinite"
					}
				},
				"methodIdentifiers": {
					"_safeMint(address,uint256)": "b3e1c718",
					"approve(address,uint256)": "095ea7b3",
					"balanceOf(address)": "70a08231",
					"getApproved(uint256)": "081812fc",
					"isApprovedForAll(address,address)": "e985e9c5",
					"name()": "06fdde03",
					"ownerOf(uint256)": "6352211e",
					"safeTransferFrom(address,address,uint256)": "42842e0e",
					"safeTransferFrom(address,address,uint256,bytes)": "b88d4fde",
					"setApprovalForAll(address,bool)": "a22cb465",
					"supportsInterface(bytes4)": "01ffc9a7",
					"symbol()": "95d89b41",
					"tokenURI(uint256)": "c87b56dd",
					"transferFrom(address,address,uint256)": "23b872dd"
				}
			},
			"userdoc": {
				"kind": "user",
				"methods": {},
				"version": 1
			}
		}
	}
}