{
	"contracts/demo.sol": {
		"Demo1": {
			"abi": [
				{
					"inputs": [],
					"stateMutability": "nonpayable",
					"type": "constructor"
				},
				{
					"inputs": [
						{
							"internalType": "address",
							"name": "_address",
							"type": "address"
						}
					],
					"name": "checkData",
					"outputs": [
						{
							"internalType": "bool",
							"name": "",
							"type": "bool"
						}
					],
					"stateMutability": "view",
					"type": "function"
				},
				{
					"inputs": [
						{
							"internalType": "uint256",
							"name": "",
							"type": "uint256"
						}
					],
					"name": "listArray",
					"outputs": [
						{
							"internalType": "address",
							"name": "",
							"type": "address"
						}
					],
					"stateMutability": "view",
					"type": "function"
				}
			],
			"devdoc": {
				"kind": "dev",
				"methods": {},
				"version": 1
			},
			"evm": {
				"assembly": "    /* \"contracts/demo.sol\":27:888  contract Demo1{\r... */\n  mstore(0x40, 0x80)\n    /* \"contracts/demo.sol\":88:385  constructor(){\r... */\n  callvalue\n  dup1\n  iszero\n  tag_1\n  jumpi\n  0x00\n  dup1\n  revert\ntag_1:\n  pop\n    /* \"contracts/demo.sol\":112:121  listArray */\n  0x00\n    /* \"contracts/demo.sol\":127:169  0x3Cb06A7709a2511e48a091979b9b68B27999AfaB */\n  0x3cb06a7709a2511e48a091979b9b68b27999afab\n    /* \"contracts/demo.sol\":112:170  listArray.push(0x3Cb06A7709a2511e48a091979b9b68B27999AfaB) */\n  swap1\n  dup1\n  0x01\n  dup2\n  sload\n  add\n  dup1\n  dup3\n  sstore\n  dup1\n  swap2\n  pop\n  pop\n  0x01\n  swap1\n  sub\n  swap1\n  0x00\n  mstore\n  keccak256(0x00, 0x20)\n  add\n  0x00\n  swap1\n  swap2\n  swap1\n  swap2\n  swap1\n  swap2\n  0x0100\n  exp\n  dup2\n  sload\n  dup2\n  0xffffffffffffffffffffffffffffffffffffffff\n  mul\n  not\n  and\n  swap1\n  dup4\n  0xffffffffffffffffffffffffffffffffffffffff\n  and\n  mul\n  or\n  swap1\n  sstore\n  pop\n    /* \"contracts/demo.sol\":181:190  listArray */\n  0x00\n    /* \"contracts/demo.sol\":196:238  0xCdA189005BFBe90bc2D518f69FfB937EcdFfB3f3 */\n  0xcda189005bfbe90bc2d518f69ffb937ecdffb3f3\n    /* \"contracts/demo.sol\":181:239  listArray.push(0xCdA189005BFBe90bc2D518f69FfB937EcdFfB3f3) */\n  swap1\n  dup1\n  0x01\n  dup2\n  sload\n  add\n  dup1\n  dup3\n  sstore\n  dup1\n  swap2\n  pop\n  pop\n  0x01\n  swap1\n  sub\n  swap1\n  0x00\n  mstore\n  keccak256(0x00, 0x20)\n  add\n  0x00\n  swap1\n  swap2\n  swap1\n  swap2\n  swap1\n  swap2\n  0x0100\n  exp\n  dup2\n  sload\n  dup2\n  0xffffffffffffffffffffffffffffffffffffffff\n  mul\n  not\n  and\n  swap1\n  dup4\n  0xffffffffffffffffffffffffffffffffffffffff\n  and\n  mul\n  or\n  swap1\n  sstore\n  pop\n    /* \"contracts/demo.sol\":250:259  listArray */\n  0x00\n    /* \"contracts/demo.sol\":265:307  0x441D3f30Ea410492073C9ED263adfacb0CB4C95F */\n  0x441d3f30ea410492073c9ed263adfacb0cb4c95f\n    /* \"contracts/demo.sol\":250:308  listArray.push(0x441D3f30Ea410492073C9ED263adfacb0CB4C95F) */\n  swap1\n  dup1\n  0x01\n  dup2\n  sload\n  add\n  dup1\n  dup3\n  sstore\n  dup1\n  swap2\n  pop\n  pop\n  0x01\n  swap1\n  sub\n  swap1\n  0x00\n  mstore\n  keccak256(0x00, 0x20)\n  add\n  0x00\n  swap1\n  swap2\n  swap1\n  swap2\n  swap1\n  swap2\n  0x0100\n  exp\n  dup2\n  sload\n  dup2\n  0xffffffffffffffffffffffffffffffffffffffff\n  mul\n  not\n  and\n  swap1\n  dup4\n  0xffffffffffffffffffffffffffffffffffffffff\n  and\n  mul\n  or\n  swap1\n  sstore\n  pop\n    /* \"contracts/demo.sol\":319:328  listArray */\n  0x00\n    /* \"contracts/demo.sol\":334:376  0xCcf25B3e56cA33859F20622C83CB380693092FE2 */\n  0xccf25b3e56ca33859f20622c83cb380693092fe2\n    /* \"contracts/demo.sol\":319:377  listArray.push(0xCcf25B3e56cA33859F20622C83CB380693092FE2) */\n  swap1\n  dup1\n  0x01\n  dup2\n  sload\n  add\n  dup1\n  dup3\n  sstore\n  dup1\n  swap2\n  pop\n  pop\n  0x01\n  swap1\n  sub\n  swap1\n  0x00\n  mstore\n  keccak256(0x00, 0x20)\n  add\n  0x00\n  swap1\n  swap2\n  swap1\n  swap2\n  swap1\n  swap2\n  0x0100\n  exp\n  dup2\n  sload\n  dup2\n  0xffffffffffffffffffffffffffffffffffffffff\n  mul\n  not\n  and\n  swap1\n  dup4\n  0xffffffffffffffffffffffffffffffffffffffff\n  and\n  mul\n  or\n  swap1\n  sstore\n  pop\n    /* \"contracts/demo.sol\":27:888  contract Demo1{\r... */\n  dataSize(sub_0)\n  dup1\n  dataOffset(sub_0)\n  0x00\n  codecopy\n  0x00\n  return\nstop\n\nsub_0: assembly {\n        /* \"contracts/demo.sol\":27:888  contract Demo1{\r... */\n      mstore(0x40, 0x80)\n      callvalue\n      dup1\n      iszero\n      tag_1\n      jumpi\n      0x00\n      dup1\n      revert\n    tag_1:\n      pop\n      jumpi(tag_2, lt(calldatasize, 0x04))\n      shr(0xe0, calldataload(0x00))\n      dup1\n      0x77197a57\n      eq\n      tag_3\n      jumpi\n      dup1\n      0xba7e5969\n      eq\n      tag_4\n      jumpi\n    tag_2:\n      0x00\n      dup1\n      revert\n        /* \"contracts/demo.sol\":393:595  function checkData(address _address) public view returns(bool){\r... */\n    tag_3:\n      tag_5\n      0x04\n      dup1\n      calldatasize\n      sub\n      dup2\n      add\n      swap1\n      tag_6\n      swap2\n      swap1\n      tag_7\n      jump\t// in\n    tag_6:\n      tag_8\n      jump\t// in\n    tag_5:\n      mload(0x40)\n      tag_9\n      swap2\n      swap1\n      tag_10\n      jump\t// in\n    tag_9:\n      mload(0x40)\n      dup1\n      swap2\n      sub\n      swap1\n      return\n        /* \"contracts/demo.sol\":53:79  address[] public listArray */\n    tag_4:\n      tag_11\n      0x04\n      dup1\n      calldatasize\n      sub\n      dup2\n      add\n      swap1\n      tag_12\n      swap2\n      swap1\n      tag_13\n      jump\t// in\n    tag_12:\n      tag_14\n      jump\t// in\n    tag_11:\n      mload(0x40)\n      tag_15\n      swap2\n      swap1\n      tag_16\n      jump\t// in\n    tag_15:\n      mload(0x40)\n      dup1\n      swap2\n      sub\n      swap1\n      return\n        /* \"contracts/demo.sol\":393:595  function checkData(address _address) public view returns(bool){\r... */\n    tag_8:\n        /* \"contracts/demo.sol\":450:454  bool */\n      0x00\n        /* \"contracts/demo.sol\":467:482  bool foundToken */\n      dup1\n        /* \"contracts/demo.sol\":484:502  uint256 tokenIndex */\n      0x00\n        /* \"contracts/demo.sol\":506:559  findElementPosition(\r... */\n      tag_18\n        /* \"contracts/demo.sol\":540:548  _address */\n      dup5\n        /* \"contracts/demo.sol\":506:525  findElementPosition */\n      tag_19\n        /* \"contracts/demo.sol\":506:559  findElementPosition(\r... */\n      jump\t// in\n    tag_18:\n        /* \"contracts/demo.sol\":466:559  (bool foundToken, uint256 tokenIndex) = findElementPosition(\r... */\n      swap2\n      pop\n      swap2\n      pop\n        /* \"contracts/demo.sol\":577:587  foundToken */\n      dup2\n        /* \"contracts/demo.sol\":570:587  return foundToken */\n      swap3\n      pop\n      pop\n      pop\n        /* \"contracts/demo.sol\":393:595  function checkData(address _address) public view returns(bool){\r... */\n      swap2\n      swap1\n      pop\n      jump\t// out\n        /* \"contracts/demo.sol\":53:79  address[] public listArray */\n    tag_14:\n      0x00\n      dup2\n      dup2\n      sload\n      dup2\n      lt\n      tag_20\n      jumpi\n      0x00\n      dup1\n      revert\n    tag_20:\n      swap1\n      0x00\n      mstore\n      keccak256(0x00, 0x20)\n      add\n      0x00\n      swap2\n      pop\n      sload\n      swap1\n      0x0100\n      exp\n      swap1\n      div\n      0xffffffffffffffffffffffffffffffffffffffff\n      and\n      dup2\n      jump\t// out\n        /* \"contracts/demo.sol\":603:883  function findElementPosition(address _token) internal view returns (bool, uint256){\r... */\n    tag_19:\n        /* \"contracts/demo.sol\":671:675  bool */\n      0x00\n        /* \"contracts/demo.sol\":677:684  uint256 */\n      dup1\n        /* \"contracts/demo.sol\":701:710  uint256 i */\n      0x00\n        /* \"contracts/demo.sol\":696:848  for (uint256 i = 0; i < listArray.length; i++) {\r... */\n    tag_23:\n        /* \"contracts/demo.sol\":720:729  listArray */\n      0x00\n        /* \"contracts/demo.sol\":720:736  listArray.length */\n      dup1\n      sload\n      swap1\n      pop\n        /* \"contracts/demo.sol\":716:717  i */\n      dup2\n        /* \"contracts/demo.sol\":716:736  i < listArray.length */\n      lt\n        /* \"contracts/demo.sol\":696:848  for (uint256 i = 0; i < listArray.length; i++) {\r... */\n      iszero\n      tag_24\n      jumpi\n        /* \"contracts/demo.sol\":778:784  _token */\n      dup4\n        /* \"contracts/demo.sol\":762:784  listArray[i] == _token */\n      0xffffffffffffffffffffffffffffffffffffffff\n      and\n        /* \"contracts/demo.sol\":762:771  listArray */\n      0x00\n        /* \"contracts/demo.sol\":772:773  i */\n      dup3\n        /* \"contracts/demo.sol\":762:774  listArray[i] */\n      dup2\n      sload\n      dup2\n      lt\n      tag_26\n      jumpi\n      tag_27\n      tag_28\n      jump\t// in\n    tag_27:\n    tag_26:\n      swap1\n      0x00\n      mstore\n      keccak256(0x00, 0x20)\n      add\n      0x00\n      swap1\n      sload\n      swap1\n      0x0100\n      exp\n      swap1\n      div\n      0xffffffffffffffffffffffffffffffffffffffff\n      and\n        /* \"contracts/demo.sol\":762:784  listArray[i] == _token */\n      0xffffffffffffffffffffffffffffffffffffffff\n      and\n      eq\n        /* \"contracts/demo.sol\":758:837  if (listArray[i] == _token) {\r... */\n      iszero\n      tag_30\n      jumpi\n        /* \"contracts/demo.sol\":813:817  true */\n      0x01\n        /* \"contracts/demo.sol\":819:820  i */\n      dup2\n        /* \"contracts/demo.sol\":805:821  return (true, i) */\n      swap3\n      pop\n      swap3\n      pop\n      pop\n      jump(tag_22)\n        /* \"contracts/demo.sol\":758:837  if (listArray[i] == _token) {\r... */\n    tag_30:\n        /* \"contracts/demo.sol\":738:741  i++ */\n      dup1\n      dup1\n      tag_31\n      swap1\n      tag_32\n      jump\t// in\n    tag_31:\n      swap2\n      pop\n      pop\n        /* \"contracts/demo.sol\":696:848  for (uint256 i = 0; i < listArray.length; i++) {\r... */\n      jump(tag_23)\n    tag_24:\n      pop\n        /* \"contracts/demo.sol\":866:871  false */\n      0x00\n        /* \"contracts/demo.sol\":873:874  0 */\n      dup1\n        /* \"contracts/demo.sol\":858:875  return (false, 0) */\n      swap2\n      pop\n      swap2\n      pop\n        /* \"contracts/demo.sol\":603:883  function findElementPosition(address _token) internal view returns (bool, uint256){\r... */\n    tag_22:\n      swap2\n      pop\n      swap2\n      jump\t// out\n        /* \"#utility.yul\":7:146   */\n    tag_34:\n        /* \"#utility.yul\":53:58   */\n      0x00\n        /* \"#utility.yul\":91:97   */\n      dup2\n        /* \"#utility.yul\":78:98   */\n      calldataload\n        /* \"#utility.yul\":69:98   */\n      swap1\n      pop\n        /* \"#utility.yul\":107:140   */\n      tag_36\n        /* \"#utility.yul\":134:139   */\n      dup2\n        /* \"#utility.yul\":107:140   */\n      tag_37\n      jump\t// in\n    tag_36:\n        /* \"#utility.yul\":7:146   */\n      swap3\n      swap2\n      pop\n      pop\n      jump\t// out\n        /* \"#utility.yul\":152:291   */\n    tag_38:\n        /* \"#utility.yul\":198:203   */\n      0x00\n        /* \"#utility.yul\":236:242   */\n      dup2\n        /* \"#utility.yul\":223:243   */\n      calldataload\n        /* \"#utility.yul\":214:243   */\n      swap1\n      pop\n        /* \"#utility.yul\":252:285   */\n      tag_40\n        /* \"#utility.yul\":279:284   */\n      dup2\n        /* \"#utility.yul\":252:285   */\n      tag_41\n      jump\t// in\n    tag_40:\n        /* \"#utility.yul\":152:291   */\n      swap3\n      swap2\n      pop\n      pop\n      jump\t// out\n        /* \"#utility.yul\":297:626   */\n    tag_7:\n        /* \"#utility.yul\":356:362   */\n      0x00\n        /* \"#utility.yul\":405:407   */\n      0x20\n        /* \"#utility.yul\":393:402   */\n      dup3\n        /* \"#utility.yul\":384:391   */\n      dup5\n        /* \"#utility.yul\":380:403   */\n      sub\n        /* \"#utility.yul\":376:408   */\n      slt\n        /* \"#utility.yul\":373:492   */\n      iszero\n      tag_43\n      jumpi\n        /* \"#utility.yul\":411:490   */\n      tag_44\n      tag_45\n      jump\t// in\n    tag_44:\n        /* \"#utility.yul\":373:492   */\n    tag_43:\n        /* \"#utility.yul\":531:532   */\n      0x00\n        /* \"#utility.yul\":556:609   */\n      tag_46\n        /* \"#utility.yul\":601:608   */\n      dup5\n        /* \"#utility.yul\":592:598   */\n      dup3\n        /* \"#utility.yul\":581:590   */\n      dup6\n        /* \"#utility.yul\":577:599   */\n      add\n        /* \"#utility.yul\":556:609   */\n      tag_34\n      jump\t// in\n    tag_46:\n        /* \"#utility.yul\":546:609   */\n      swap2\n      pop\n        /* \"#utility.yul\":502:619   */\n      pop\n        /* \"#utility.yul\":297:626   */\n      swap3\n      swap2\n      pop\n      pop\n      jump\t// out\n        /* \"#utility.yul\":632:961   */\n    tag_13:\n        /* \"#utility.yul\":691:697   */\n      0x00\n        /* \"#utility.yul\":740:742   */\n      0x20\n        /* \"#utility.yul\":728:737   */\n      dup3\n        /* \"#utility.yul\":719:726   */\n      dup5\n        /* \"#utility.yul\":715:738   */\n      sub\n        /* \"#utility.yul\":711:743   */\n      slt\n        /* \"#utility.yul\":708:827   */\n      iszero\n      tag_48\n      jumpi\n        /* \"#utility.yul\":746:825   */\n      tag_49\n      tag_45\n      jump\t// in\n    tag_49:\n        /* \"#utility.yul\":708:827   */\n    tag_48:\n        /* \"#utility.yul\":866:867   */\n      0x00\n        /* \"#utility.yul\":891:944   */\n      tag_50\n        /* \"#utility.yul\":936:943   */\n      dup5\n        /* \"#utility.yul\":927:933   */\n      dup3\n        /* \"#utility.yul\":916:925   */\n      dup6\n        /* \"#utility.yul\":912:934   */\n      add\n        /* \"#utility.yul\":891:944   */\n      tag_38\n      jump\t// in\n    tag_50:\n        /* \"#utility.yul\":881:944   */\n      swap2\n      pop\n        /* \"#utility.yul\":837:954   */\n      pop\n        /* \"#utility.yul\":632:961   */\n      swap3\n      swap2\n      pop\n      pop\n      jump\t// out\n        /* \"#utility.yul\":967:1085   */\n    tag_51:\n        /* \"#utility.yul\":1054:1078   */\n      tag_53\n        /* \"#utility.yul\":1072:1077   */\n      dup2\n        /* \"#utility.yul\":1054:1078   */\n      tag_54\n      jump\t// in\n    tag_53:\n        /* \"#utility.yul\":1049:1052   */\n      dup3\n        /* \"#utility.yul\":1042:1079   */\n      mstore\n        /* \"#utility.yul\":967:1085   */\n      pop\n      pop\n      jump\t// out\n        /* \"#utility.yul\":1091:1200   */\n    tag_55:\n        /* \"#utility.yul\":1172:1193   */\n      tag_57\n        /* \"#utility.yul\":1187:1192   */\n      dup2\n        /* \"#utility.yul\":1172:1193   */\n      tag_58\n      jump\t// in\n    tag_57:\n        /* \"#utility.yul\":1167:1170   */\n      dup3\n        /* \"#utility.yul\":1160:1194   */\n      mstore\n        /* \"#utility.yul\":1091:1200   */\n      pop\n      pop\n      jump\t// out\n        /* \"#utility.yul\":1206:1428   */\n    tag_16:\n        /* \"#utility.yul\":1299:1303   */\n      0x00\n        /* \"#utility.yul\":1337:1339   */\n      0x20\n        /* \"#utility.yul\":1326:1335   */\n      dup3\n        /* \"#utility.yul\":1322:1340   */\n      add\n        /* \"#utility.yul\":1314:1340   */\n      swap1\n      pop\n        /* \"#utility.yul\":1350:1421   */\n      tag_60\n        /* \"#utility.yul\":1418:1419   */\n      0x00\n        /* \"#utility.yul\":1407:1416   */\n      dup4\n        /* \"#utility.yul\":1403:1420   */\n      add\n        /* \"#utility.yul\":1394:1400   */\n      dup5\n        /* \"#utility.yul\":1350:1421   */\n      tag_51\n      jump\t// in\n    tag_60:\n        /* \"#utility.yul\":1206:1428   */\n      swap3\n      swap2\n      pop\n      pop\n      jump\t// out\n        /* \"#utility.yul\":1434:1644   */\n    tag_10:\n        /* \"#utility.yul\":1521:1525   */\n      0x00\n        /* \"#utility.yul\":1559:1561   */\n      0x20\n        /* \"#utility.yul\":1548:1557   */\n      dup3\n        /* \"#utility.yul\":1544:1562   */\n      add\n        /* \"#utility.yul\":1536:1562   */\n      swap1\n      pop\n        /* \"#utility.yul\":1572:1637   */\n      tag_62\n        /* \"#utility.yul\":1634:1635   */\n      0x00\n        /* \"#utility.yul\":1623:1632   */\n      dup4\n        /* \"#utility.yul\":1619:1636   */\n      add\n        /* \"#utility.yul\":1610:1616   */\n      dup5\n        /* \"#utility.yul\":1572:1637   */\n      tag_55\n      jump\t// in\n    tag_62:\n        /* \"#utility.yul\":1434:1644   */\n      swap3\n      swap2\n      pop\n      pop\n      jump\t// out\n        /* \"#utility.yul\":1731:1827   */\n    tag_54:\n        /* \"#utility.yul\":1768:1775   */\n      0x00\n        /* \"#utility.yul\":1797:1821   */\n      tag_66\n        /* \"#utility.yul\":1815:1820   */\n      dup3\n        /* \"#utility.yul\":1797:1821   */\n      tag_67\n      jump\t// in\n    tag_66:\n        /* \"#utility.yul\":1786:1821   */\n      swap1\n      pop\n        /* \"#utility.yul\":1731:1827   */\n      swap2\n      swap1\n      pop\n      jump\t// out\n        /* \"#utility.yul\":1833:1923   */\n    tag_58:\n        /* \"#utility.yul\":1867:1874   */\n      0x00\n        /* \"#utility.yul\":1910:1915   */\n      dup2\n        /* \"#utility.yul\":1903:1916   */\n      iszero\n        /* \"#utility.yul\":1896:1917   */\n      iszero\n        /* \"#utility.yul\":1885:1917   */\n      swap1\n      pop\n        /* \"#utility.yul\":1833:1923   */\n      swap2\n      swap1\n      pop\n      jump\t// out\n        /* \"#utility.yul\":1929:2055   */\n    tag_67:\n        /* \"#utility.yul\":1966:1973   */\n      0x00\n        /* \"#utility.yul\":2006:2048   */\n      0xffffffffffffffffffffffffffffffffffffffff\n        /* \"#utility.yul\":1999:2004   */\n      dup3\n        /* \"#utility.yul\":1995:2049   */\n      and\n        /* \"#utility.yul\":1984:2049   */\n      swap1\n      pop\n        /* \"#utility.yul\":1929:2055   */\n      swap2\n      swap1\n      pop\n      jump\t// out\n        /* \"#utility.yul\":2061:2138   */\n    tag_70:\n        /* \"#utility.yul\":2098:2105   */\n      0x00\n        /* \"#utility.yul\":2127:2132   */\n      dup2\n        /* \"#utility.yul\":2116:2132   */\n      swap1\n      pop\n        /* \"#utility.yul\":2061:2138   */\n      swap2\n      swap1\n      pop\n      jump\t// out\n        /* \"#utility.yul\":2144:2377   */\n    tag_32:\n        /* \"#utility.yul\":2183:2186   */\n      0x00\n        /* \"#utility.yul\":2206:2230   */\n      tag_73\n        /* \"#utility.yul\":2224:2229   */\n      dup3\n        /* \"#utility.yul\":2206:2230   */\n      tag_70\n      jump\t// in\n    tag_73:\n        /* \"#utility.yul\":2197:2230   */\n      swap2\n      pop\n        /* \"#utility.yul\":2252:2318   */\n      0xffffffffffffffffffffffffffffffffffffffffffffffffffffffffffffffff\n        /* \"#utility.yul\":2245:2250   */\n      dup3\n        /* \"#utility.yul\":2242:2319   */\n      eq\n        /* \"#utility.yul\":2239:2342   */\n      iszero\n      tag_74\n      jumpi\n        /* \"#utility.yul\":2322:2340   */\n      tag_75\n      tag_76\n      jump\t// in\n    tag_75:\n        /* \"#utility.yul\":2239:2342   */\n    tag_74:\n        /* \"#utility.yul\":2369:2370   */\n      0x01\n        /* \"#utility.yul\":2362:2367   */\n      dup3\n        /* \"#utility.yul\":2358:2371   */\n      add\n        /* \"#utility.yul\":2351:2371   */\n      swap1\n      pop\n        /* \"#utility.yul\":2144:2377   */\n      swap2\n      swap1\n      pop\n      jump\t// out\n        /* \"#utility.yul\":2383:2563   */\n    tag_76:\n        /* \"#utility.yul\":2431:2508   */\n      0x4e487b7100000000000000000000000000000000000000000000000000000000\n        /* \"#utility.yul\":2428:2429   */\n      0x00\n        /* \"#utility.yul\":2421:2509   */\n      mstore\n        /* \"#utility.yul\":2528:2532   */\n      0x11\n        /* \"#utility.yul\":2525:2526   */\n      0x04\n        /* \"#utility.yul\":2518:2533   */\n      mstore\n        /* \"#utility.yul\":2552:2556   */\n      0x24\n        /* \"#utility.yul\":2549:2550   */\n      0x00\n        /* \"#utility.yul\":2542:2557   */\n      revert\n        /* \"#utility.yul\":2569:2749   */\n    tag_28:\n        /* \"#utility.yul\":2617:2694   */\n      0x4e487b7100000000000000000000000000000000000000000000000000000000\n        /* \"#utility.yul\":2614:2615   */\n      0x00\n        /* \"#utility.yul\":2607:2695   */\n      mstore\n        /* \"#utility.yul\":2714:2718   */\n      0x32\n        /* \"#utility.yul\":2711:2712   */\n      0x04\n        /* \"#utility.yul\":2704:2719   */\n      mstore\n        /* \"#utility.yul\":2738:2742   */\n      0x24\n        /* \"#utility.yul\":2735:2736   */\n      0x00\n        /* \"#utility.yul\":2728:2743   */\n      revert\n        /* \"#utility.yul\":2878:2995   */\n    tag_45:\n        /* \"#utility.yul\":2987:2988   */\n      0x00\n        /* \"#utility.yul\":2984:2985   */\n      dup1\n        /* \"#utility.yul\":2977:2989   */\n      revert\n        /* \"#utility.yul\":3001:3123   */\n    tag_37:\n        /* \"#utility.yul\":3074:3098   */\n      tag_83\n        /* \"#utility.yul\":3092:3097   */\n      dup2\n        /* \"#utility.yul\":3074:3098   */\n      tag_54\n      jump\t// in\n    tag_83:\n        /* \"#utility.yul\":3067:3072   */\n      dup2\n        /* \"#utility.yul\":3064:3099   */\n      eq\n        /* \"#utility.yul\":3054:3117   */\n      tag_84\n      jumpi\n        /* \"#utility.yul\":3113:3114   */\n      0x00\n        /* \"#utility.yul\":3110:3111   */\n      dup1\n        /* \"#utility.yul\":3103:3115   */\n      revert\n        /* \"#utility.yul\":3054:3117   */\n    tag_84:\n        /* \"#utility.yul\":3001:3123   */\n      pop\n      jump\t// out\n        /* \"#utility.yul\":3129:3251   */\n    tag_41:\n        /* \"#utility.yul\":3202:3226   */\n      tag_86\n        /* \"#utility.yul\":3220:3225   */\n      dup2\n        /* \"#utility.yul\":3202:3226   */\n      tag_70\n      jump\t// in\n    tag_86:\n        /* \"#utility.yul\":3195:3200   */\n      dup2\n        /* \"#utility.yul\":3192:3227   */\n      eq\n        /* \"#utility.yul\":3182:3245   */\n      tag_87\n      jumpi\n        /* \"#utility.yul\":3241:3242   */\n      0x00\n        /* \"#utility.yul\":3238:3239   */\n      dup1\n        /* \"#utility.yul\":3231:3243   */\n      revert\n        /* \"#utility.yul\":3182:3245   */\n    tag_87:\n        /* \"#utility.yul\":3129:3251   */\n      pop\n      jump\t// out\n\n    auxdata: 0xa2646970667358221220dc66df7598b6d1f1c5d59b7a95f1fd49b3ff3b1ff296003450ccea4849aedc5364736f6c63430008070033\n}\n",
				"bytecode": {
					"linkReferences": {},
					"object": "608060405234801561001057600080fd5b506000733cb06a7709a2511e48a091979b9b68b27999afab9080600181540180825580915050600190039060005260206000200160009091909190916101000a81548173ffffffffffffffffffffffffffffffffffffffff021916908373ffffffffffffffffffffffffffffffffffffffff160217905550600073cda189005bfbe90bc2d518f69ffb937ecdffb3f39080600181540180825580915050600190039060005260206000200160009091909190916101000a81548173ffffffffffffffffffffffffffffffffffffffff021916908373ffffffffffffffffffffffffffffffffffffffff160217905550600073441d3f30ea410492073c9ed263adfacb0cb4c95f9080600181540180825580915050600190039060005260206000200160009091909190916101000a81548173ffffffffffffffffffffffffffffffffffffffff021916908373ffffffffffffffffffffffffffffffffffffffff160217905550600073ccf25b3e56ca33859f20622c83cb380693092fe29080600181540180825580915050600190039060005260206000200160009091909190916101000a81548173ffffffffffffffffffffffffffffffffffffffff021916908373ffffffffffffffffffffffffffffffffffffffff1602179055506103d9806101fc6000396000f3fe608060405234801561001057600080fd5b50600436106100365760003560e01c806377197a571461003b578063ba7e59691461006b575b600080fd5b610055600480360381019061005091906101d3565b61009b565b6040516100629190610266565b60405180910390f35b61008560048036038101906100809190610200565b6100b7565b604051610092919061024b565b60405180910390f35b60008060006100a9846100f6565b915091508192505050919050565b600081815481106100c757600080fd5b906000526020600020016000915054906101000a900473ffffffffffffffffffffffffffffffffffffffff1681565b60008060005b60008054905081101561019b578373ffffffffffffffffffffffffffffffffffffffff166000828154811061013457610133610341565b5b9060005260206000200160009054906101000a900473ffffffffffffffffffffffffffffffffffffffff1673ffffffffffffffffffffffffffffffffffffffff1614156101885760018192509250506101a4565b8080610193906102c9565b9150506100fc565b50600080915091505b915091565b6000813590506101b881610375565b92915050565b6000813590506101cd8161038c565b92915050565b6000602082840312156101e9576101e8610370565b5b60006101f7848285016101a9565b91505092915050565b60006020828403121561021657610215610370565b5b6000610224848285016101be565b91505092915050565b61023681610281565b82525050565b61024581610293565b82525050565b6000602082019050610260600083018461022d565b92915050565b600060208201905061027b600083018461023c565b92915050565b600061028c8261029f565b9050919050565b60008115159050919050565b600073ffffffffffffffffffffffffffffffffffffffff82169050919050565b6000819050919050565b60006102d4826102bf565b91507fffffffffffffffffffffffffffffffffffffffffffffffffffffffffffffffff82141561030757610306610312565b5b600182019050919050565b7f4e487b7100000000000000000000000000000000000000000000000000000000600052601160045260246000fd5b7f4e487b7100000000000000000000000000000000000000000000000000000000600052603260045260246000fd5b600080fd5b61037e81610281565b811461038957600080fd5b50565b610395816102bf565b81146103a057600080fd5b5056fea2646970667358221220dc66df7598b6d1f1c5d59b7a95f1fd49b3ff3b1ff296003450ccea4849aedc5364736f6c63430008070033",
					"opcodes": "PUSH1 0x80 PUSH1 0x40 MSTORE CALLVALUE DUP1 ISZERO PUSH2 0x10 JUMPI PUSH1 0x0 DUP1 REVERT JUMPDEST POP PUSH1 0x0 PUSH20 0x3CB06A7709A2511E48A091979B9B68B27999AFAB SWAP1 DUP1 PUSH1 0x1 DUP2 SLOAD ADD DUP1 DUP3 SSTORE DUP1 SWAP2 POP POP PUSH1 0x1 SWAP1 SUB SWAP1 PUSH1 0x0 MSTORE PUSH1 0x20 PUSH1 0x0 KECCAK256 ADD PUSH1 0x0 SWAP1 SWAP2 SWAP1 SWAP2 SWAP1 SWAP2 PUSH2 0x100 EXP DUP2 SLOAD DUP2 PUSH20 0xFFFFFFFFFFFFFFFFFFFFFFFFFFFFFFFFFFFFFFFF MUL NOT AND SWAP1 DUP4 PUSH20 0xFFFFFFFFFFFFFFFFFFFFFFFFFFFFFFFFFFFFFFFF AND MUL OR SWAP1 SSTORE POP PUSH1 0x0 PUSH20 0xCDA189005BFBE90BC2D518F69FFB937ECDFFB3F3 SWAP1 DUP1 PUSH1 0x1 DUP2 SLOAD ADD DUP1 DUP3 SSTORE DUP1 SWAP2 POP POP PUSH1 0x1 SWAP1 SUB SWAP1 PUSH1 0x0 MSTORE PUSH1 0x20 PUSH1 0x0 KECCAK256 ADD PUSH1 0x0 SWAP1 SWAP2 SWAP1 SWAP2 SWAP1 SWAP2 PUSH2 0x100 EXP DUP2 SLOAD DUP2 PUSH20 0xFFFFFFFFFFFFFFFFFFFFFFFFFFFFFFFFFFFFFFFF MUL NOT AND SWAP1 DUP4 PUSH20 0xFFFFFFFFFFFFFFFFFFFFFFFFFFFFFFFFFFFFFFFF AND MUL OR SWAP1 SSTORE POP PUSH1 0x0 PUSH20 0x441D3F30EA410492073C9ED263ADFACB0CB4C95F SWAP1 DUP1 PUSH1 0x1 DUP2 SLOAD ADD DUP1 DUP3 SSTORE DUP1 SWAP2 POP POP PUSH1 0x1 SWAP1 SUB SWAP1 PUSH1 0x0 MSTORE PUSH1 0x20 PUSH1 0x0 KECCAK256 ADD PUSH1 0x0 SWAP1 SWAP2 SWAP1 SWAP2 SWAP1 SWAP2 PUSH2 0x100 EXP DUP2 SLOAD DUP2 PUSH20 0xFFFFFFFFFFFFFFFFFFFFFFFFFFFFFFFFFFFFFFFF MUL NOT AND SWAP1 DUP4 PUSH20 0xFFFFFFFFFFFFFFFFFFFFFFFFFFFFFFFFFFFFFFFF AND MUL OR SWAP1 SSTORE POP PUSH1 0x0 PUSH20 0xCCF25B3E56CA33859F20622C83CB380693092FE2 SWAP1 DUP1 PUSH1 0x1 DUP2 SLOAD ADD DUP1 DUP3 SSTORE DUP1 SWAP2 POP POP PUSH1 0x1 SWAP1 SUB SWAP1 PUSH1 0x0 MSTORE PUSH1 0x20 PUSH1 0x0 KECCAK256 ADD PUSH1 0x0 SWAP1 SWAP2 SWAP1 SWAP2 SWAP1 SWAP2 PUSH2 0x100 EXP DUP2 SLOAD DUP2 PUSH20 0xFFFFFFFFFFFFFFFFFFFFFFFFFFFFFFFFFFFFFFFF MUL NOT AND SWAP1 DUP4 PUSH20 0xFFFFFFFFFFFFFFFFFFFFFFFFFFFFFFFFFFFFFFFF AND MUL OR SWAP1 SSTORE POP PUSH2 0x3D9 DUP1 PUSH2 0x1FC PUSH1 0x0 CODECOPY PUSH1 0x0 RETURN INVALID PUSH1 0x80 PUSH1 0x40 MSTORE CALLVALUE DUP1 ISZERO PUSH2 0x10 JUMPI PUSH1 0x0 DUP1 REVERT JUMPDEST POP PUSH1 0x4 CALLDATASIZE LT PUSH2 0x36 JUMPI PUSH1 0x0 CALLDATALOAD PUSH1 0xE0 SHR DUP1 PUSH4 0x77197A57 EQ PUSH2 0x3B JUMPI DUP1 PUSH4 0xBA7E5969 EQ PUSH2 0x6B JUMPI JUMPDEST PUSH1 0x0 DUP1 REVERT JUMPDEST PUSH2 0x55 PUSH1 0x4 DUP1 CALLDATASIZE SUB DUP2 ADD SWAP1 PUSH2 0x50 SWAP2 SWAP1 PUSH2 0x1D3 JUMP JUMPDEST PUSH2 0x9B JUMP JUMPDEST PUSH1 0x40 MLOAD PUSH2 0x62 SWAP2 SWAP1 PUSH2 0x266 JUMP JUMPDEST PUSH1 0x40 MLOAD DUP1 SWAP2 SUB SWAP1 RETURN JUMPDEST PUSH2 0x85 PUSH1 0x4 DUP1 CALLDATASIZE SUB DUP2 ADD SWAP1 PUSH2 0x80 SWAP2 SWAP1 PUSH2 0x200 JUMP JUMPDEST PUSH2 0xB7 JUMP JUMPDEST PUSH1 0x40 MLOAD PUSH2 0x92 SWAP2 SWAP1 PUSH2 0x24B JUMP JUMPDEST PUSH1 0x40 MLOAD DUP1 SWAP2 SUB SWAP1 RETURN JUMPDEST PUSH1 0x0 DUP1 PUSH1 0x0 PUSH2 0xA9 DUP5 PUSH2 0xF6 JUMP JUMPDEST SWAP2 POP SWAP2 POP DUP2 SWAP3 POP POP POP SWAP2 SWAP1 POP JUMP JUMPDEST PUSH1 0x0 DUP2 DUP2 SLOAD DUP2 LT PUSH2 0xC7 JUMPI PUSH1 0x0 DUP1 REVERT JUMPDEST SWAP1 PUSH1 0x0 MSTORE PUSH1 0x20 PUSH1 0x0 KECCAK256 ADD PUSH1 0x0 SWAP2 POP SLOAD SWAP1 PUSH2 0x100 EXP SWAP1 DIV PUSH20 0xFFFFFFFFFFFFFFFFFFFFFFFFFFFFFFFFFFFFFFFF AND DUP2 JUMP JUMPDEST PUSH1 0x0 DUP1 PUSH1 0x0 JUMPDEST PUSH1 0x0 DUP1 SLOAD SWAP1 POP DUP2 LT ISZERO PUSH2 0x19B JUMPI DUP4 PUSH20 0xFFFFFFFFFFFFFFFFFFFFFFFFFFFFFFFFFFFFFFFF AND PUSH1 0x0 DUP3 DUP2 SLOAD DUP2 LT PUSH2 0x134 JUMPI PUSH2 0x133 PUSH2 0x341 JUMP JUMPDEST JUMPDEST SWAP1 PUSH1 0x0 MSTORE PUSH1 0x20 PUSH1 0x0 KECCAK256 ADD PUSH1 0x0 SWAP1 SLOAD SWAP1 PUSH2 0x100 EXP SWAP1 DIV PUSH20 0xFFFFFFFFFFFFFFFFFFFFFFFFFFFFFFFFFFFFFFFF AND PUSH20 0xFFFFFFFFFFFFFFFFFFFFFFFFFFFFFFFFFFFFFFFF AND EQ ISZERO PUSH2 0x188 JUMPI PUSH1 0x1 DUP2 SWAP3 POP SWAP3 POP POP PUSH2 0x1A4 JUMP JUMPDEST DUP1 DUP1 PUSH2 0x193 SWAP1 PUSH2 0x2C9 JUMP JUMPDEST SWAP2 POP POP PUSH2 0xFC JUMP JUMPDEST POP PUSH1 0x0 DUP1 SWAP2 POP SWAP2 POP JUMPDEST SWAP2 POP SWAP2 JUMP JUMPDEST PUSH1 0x0 DUP2 CALLDATALOAD SWAP1 POP PUSH2 0x1B8 DUP2 PUSH2 0x375 JUMP JUMPDEST SWAP3 SWAP2 POP POP JUMP JUMPDEST PUSH1 0x0 DUP2 CALLDATALOAD SWAP1 POP PUSH2 0x1CD DUP2 PUSH2 0x38C JUMP JUMPDEST SWAP3 SWAP2 POP POP JUMP JUMPDEST PUSH1 0x0 PUSH1 0x20 DUP3 DUP5 SUB SLT ISZERO PUSH2 0x1E9 JUMPI PUSH2 0x1E8 PUSH2 0x370 JUMP JUMPDEST JUMPDEST PUSH1 0x0 PUSH2 0x1F7 DUP5 DUP3 DUP6 ADD PUSH2 0x1A9 JUMP JUMPDEST SWAP2 POP POP SWAP3 SWAP2 POP POP JUMP JUMPDEST PUSH1 0x0 PUSH1 0x20 DUP3 DUP5 SUB SLT ISZERO PUSH2 0x216 JUMPI PUSH2 0x215 PUSH2 0x370 JUMP JUMPDEST JUMPDEST PUSH1 0x0 PUSH2 0x224 DUP5 DUP3 DUP6 ADD PUSH2 0x1BE JUMP JUMPDEST SWAP2 POP POP SWAP3 SWAP2 POP POP JUMP JUMPDEST PUSH2 0x236 DUP2 PUSH2 0x281 JUMP JUMPDEST DUP3 MSTORE POP POP JUMP JUMPDEST PUSH2 0x245 DUP2 PUSH2 0x293 JUMP JUMPDEST DUP3 MSTORE POP POP JUMP JUMPDEST PUSH1 0x0 PUSH1 0x20 DUP3 ADD SWAP1 POP PUSH2 0x260 PUSH1 0x0 DUP4 ADD DUP5 PUSH2 0x22D JUMP JUMPDEST SWAP3 SWAP2 POP POP JUMP JUMPDEST PUSH1 0x0 PUSH1 0x20 DUP3 ADD SWAP1 POP PUSH2 0x27B PUSH1 0x0 DUP4 ADD DUP5 PUSH2 0x23C JUMP JUMPDEST SWAP3 SWAP2 POP POP JUMP JUMPDEST PUSH1 0x0 PUSH2 0x28C DUP3 PUSH2 0x29F JUMP JUMPDEST SWAP1 POP SWAP2 SWAP1 POP JUMP JUMPDEST PUSH1 0x0 DUP2 ISZERO ISZERO SWAP1 POP SWAP2 SWAP1 POP JUMP JUMPDEST PUSH1 0x0 PUSH20 0xFFFFFFFFFFFFFFFFFFFFFFFFFFFFFFFFFFFFFFFF DUP3 AND SWAP1 POP SWAP2 SWAP1 POP JUMP JUMPDEST PUSH1 0x0 DUP2 SWAP1 POP SWAP2 SWAP1 POP JUMP JUMPDEST PUSH1 0x0 PUSH2 0x2D4 DUP3 PUSH2 0x2BF JUMP JUMPDEST SWAP2 POP PUSH32 0xFFFFFFFFFFFFFFFFFFFFFFFFFFFFFFFFFFFFFFFFFFFFFFFFFFFFFFFFFFFFFFFF DUP3 EQ ISZERO PUSH2 0x307 JUMPI PUSH2 0x306 PUSH2 0x312 JUMP JUMPDEST JUMPDEST PUSH1 0x1 DUP3 ADD SWAP1 POP SWAP2 SWAP1 POP JUMP JUMPDEST PUSH32 0x4E487B7100000000000000000000000000000000000000000000000000000000 PUSH1 0x0 MSTORE PUSH1 0x11 PUSH1 0x4 MSTORE PUSH1 0x24 PUSH1 0x0 REVERT JUMPDEST PUSH32 0x4E487B7100000000000000000000000000000000000000000000000000000000 PUSH1 0x0 MSTORE PUSH1 0x32 PUSH1 0x4 MSTORE PUSH1 0x24 PUSH1 0x0 REVERT JUMPDEST PUSH1 0x0 DUP1 REVERT JUMPDEST PUSH2 0x37E DUP2 PUSH2 0x281 JUMP JUMPDEST DUP2 EQ PUSH2 0x389 JUMPI PUSH1 0x0 DUP1 REVERT JUMPDEST POP JUMP JUMPDEST PUSH2 0x395 DUP2 PUSH2 0x2BF JUMP JUMPDEST DUP2 EQ PUSH2 0x3A0 JUMPI PUSH1 0x0 DUP1 REVERT JUMPDEST POP JUMP INVALID LOG2 PUSH5 0x6970667358 0x22 SLT KECCAK256 0xDC PUSH7 0xDF7598B6D1F1C5 0xD5 SWAP12 PUSH27 0x95F1FD49B3FF3B1FF296003450CCEA4849AEDC5364736F6C634300 ADDMOD SMOD STOP CALLER "
				},
				"gasEstimates": {
					"creation": {
						"codeDepositCost": "197000",
						"executionCost": "194554",
						"totalCost": "391554"
					},
					"external": {
						"checkData(address)": "infinite",
						"listArray(uint256)": "4956"
					},
					"internal": {
						"findElementPosition(address)": "infinite"
					}
				},
				"methodIdentifiers": {
					"checkData(address)": "77197a57",
					"listArray(uint256)": "ba7e5969"
				}
			},
			"userdoc": {
				"kind": "user",
				"methods": {},
				"version": 1
			}
		}
	}
}