{
	"data": {
		"bytecode": {
			"linkReferences": {},
			"object": "608060405234801561001057600080fd5b506040518060400160405280600281526020017f566f00000000000000000000000000000000000000000000000000000000000081525060008001908051906020019061005e9291906100b3565b506040518060400160405280600681526020017f4841204e4f490000000000000000000000000000000000000000000000000000815250600060010190805190602001906100ad9291906100b3565b506101b7565b8280546100bf90610156565b90600052602060002090601f0160209004810192826100e15760008555610128565b82601f106100fa57805160ff1916838001178555610128565b82800160010185558215610128579182015b8281111561012757825182559160200191906001019061010c565b5b5090506101359190610139565b5090565b5b8082111561015257600081600090555060010161013a565b5090565b6000600282049050600182168061016e57607f821691505b6020821081141561018257610181610188565b5b50919050565b7f4e487b7100000000000000000000000000000000000000000000000000000000600052602260045260246000fd5b6105f7806101c66000396000f3fe608060405234801561001057600080fd5b50600436106100415760003560e01c80631b8b96671461004657806322a1ded914610077578063f31604c714610096575b600080fd5b610060600480360381019061005b9190610415565b6100a0565b60405161006e92919061047b565b60405180910390f35b61007f6101d4565b60405161008d92919061047b565b60405180910390f35b61009e6102f6565b005b60026020528060005260406000206000915090508060000180546100c390610533565b80601f01602080910402602001604051908101604052809291908181526020018280546100ef90610533565b801561013c5780601f106101115761010080835404028352916020019161013c565b820191906000526020600020905b81548152906001019060200180831161011f57829003601f168201915b50505050509080600101805461015190610533565b80601f016020809104026020016040519081016040528092919081815260200182805461017d90610533565b80156101ca5780601f1061019f576101008083540402835291602001916101ca565b820191906000526020600020905b8154815290600101906020018083116101ad57829003601f168201915b5050505050905082565b60008060000180546101e590610533565b80601f016020809104026020016040519081016040528092919081815260200182805461021190610533565b801561025e5780601f106102335761010080835404028352916020019161025e565b820191906000526020600020905b81548152906001019060200180831161024157829003601f168201915b50505050509080600101805461027390610533565b80601f016020809104026020016040519081016040528092919081815260200182805461029f90610533565b80156102ec5780601f106102c1576101008083540402835291602001916102ec565b820191906000526020600020905b8154815290600101906020018083116102cf57829003601f168201915b5050505050905082565b60008001600260003373ffffffffffffffffffffffffffffffffffffffff1673ffffffffffffffffffffffffffffffffffffffff16815260200190815260200160002060000190805461034890610533565b610353929190610356565b50565b82805461036290610533565b90600052602060002090601f01602090048101928261038457600085556103d2565b82601f1061039557805485556103d2565b828001600101855582156103d257600052602060002091601f016020900482015b828111156103d15782548255916001019190600101906103b6565b5b5090506103df91906103e3565b5090565b5b808211156103fc5760008160009055506001016103e4565b5090565b60008135905061040f816105aa565b92915050565b60006020828403121561042b5761042a610594565b5b600061043984828501610400565b91505092915050565b600061044d826104b2565b61045781856104bd565b9350610467818560208601610500565b61047081610599565b840191505092915050565b600060408201905081810360008301526104958185610442565b905081810360208301526104a98184610442565b90509392505050565b600081519050919050565b600082825260208201905092915050565b60006104d9826104e0565b9050919050565b600073ffffffffffffffffffffffffffffffffffffffff82169050919050565b60005b8381101561051e578082015181840152602081019050610503565b8381111561052d576000848401525b50505050565b6000600282049050600182168061054b57607f821691505b6020821081141561055f5761055e610565565b5b50919050565b7f4e487b7100000000000000000000000000000000000000000000000000000000600052602260045260246000fd5b600080fd5b6000601f19601f8301169050919050565b6105b3816104ce565b81146105be57600080fd5b5056fea2646970667358221220c8bf30f619799209d72ea39aabe26b9ab17c2338cae656817a8abf5f084be53d64736f6c63430008070033",
			"opcodes": "PUSH1 0x80 PUSH1 0x40 MSTORE CALLVALUE DUP1 ISZERO PUSH2 0x10 JUMPI PUSH1 0x0 DUP1 REVERT JUMPDEST POP PUSH1 0x40 MLOAD DUP1 PUSH1 0x40 ADD PUSH1 0x40 MSTORE DUP1 PUSH1 0x2 DUP2 MSTORE PUSH1 0x20 ADD PUSH32 0x566F000000000000000000000000000000000000000000000000000000000000 DUP2 MSTORE POP PUSH1 0x0 DUP1 ADD SWAP1 DUP1 MLOAD SWAP1 PUSH1 0x20 ADD SWAP1 PUSH2 0x5E SWAP3 SWAP2 SWAP1 PUSH2 0xB3 JUMP JUMPDEST POP PUSH1 0x40 MLOAD DUP1 PUSH1 0x40 ADD PUSH1 0x40 MSTORE DUP1 PUSH1 0x6 DUP2 MSTORE PUSH1 0x20 ADD PUSH32 0x4841204E4F490000000000000000000000000000000000000000000000000000 DUP2 MSTORE POP PUSH1 0x0 PUSH1 0x1 ADD SWAP1 DUP1 MLOAD SWAP1 PUSH1 0x20 ADD SWAP1 PUSH2 0xAD SWAP3 SWAP2 SWAP1 PUSH2 0xB3 JUMP JUMPDEST POP PUSH2 0x1B7 JUMP JUMPDEST DUP3 DUP1 SLOAD PUSH2 0xBF SWAP1 PUSH2 0x156 JUMP JUMPDEST SWAP1 PUSH1 0x0 MSTORE PUSH1 0x20 PUSH1 0x0 KECCAK256 SWAP1 PUSH1 0x1F ADD PUSH1 0x20 SWAP1 DIV DUP2 ADD SWAP3 DUP3 PUSH2 0xE1 JUMPI PUSH1 0x0 DUP6 SSTORE PUSH2 0x128 JUMP JUMPDEST DUP3 PUSH1 0x1F LT PUSH2 0xFA JUMPI DUP1 MLOAD PUSH1 0xFF NOT AND DUP4 DUP1 ADD OR DUP6 SSTORE PUSH2 0x128 JUMP JUMPDEST DUP3 DUP1 ADD PUSH1 0x1 ADD DUP6 SSTORE DUP3 ISZERO PUSH2 0x128 JUMPI SWAP2 DUP3 ADD JUMPDEST DUP3 DUP2 GT ISZERO PUSH2 0x127 JUMPI DUP3 MLOAD DUP3 SSTORE SWAP2 PUSH1 0x20 ADD SWAP2 SWAP1 PUSH1 0x1 ADD SWAP1 PUSH2 0x10C JUMP JUMPDEST JUMPDEST POP SWAP1 POP PUSH2 0x135 SWAP2 SWAP1 PUSH2 0x139 JUMP JUMPDEST POP SWAP1 JUMP JUMPDEST JUMPDEST DUP1 DUP3 GT ISZERO PUSH2 0x152 JUMPI PUSH1 0x0 DUP2 PUSH1 0x0 SWAP1 SSTORE POP PUSH1 0x1 ADD PUSH2 0x13A JUMP JUMPDEST POP SWAP1 JUMP JUMPDEST PUSH1 0x0 PUSH1 0x2 DUP3 DIV SWAP1 POP PUSH1 0x1 DUP3 AND DUP1 PUSH2 0x16E JUMPI PUSH1 0x7F DUP3 AND SWAP2 POP JUMPDEST PUSH1 0x20 DUP3 LT DUP2 EQ ISZERO PUSH2 0x182 JUMPI PUSH2 0x181 PUSH2 0x188 JUMP JUMPDEST JUMPDEST POP SWAP2 SWAP1 POP JUMP JUMPDEST PUSH32 0x4E487B7100000000000000000000000000000000000000000000000000000000 PUSH1 0x0 MSTORE PUSH1 0x22 PUSH1 0x4 MSTORE PUSH1 0x24 PUSH1 0x0 REVERT JUMPDEST PUSH2 0x5F7 DUP1 PUSH2 0x1C6 PUSH1 0x0 CODECOPY PUSH1 0x0 RETURN INVALID PUSH1 0x80 PUSH1 0x40 MSTORE CALLVALUE DUP1 ISZERO PUSH2 0x10 JUMPI PUSH1 0x0 DUP1 REVERT JUMPDEST POP PUSH1 0x4 CALLDATASIZE LT PUSH2 0x41 JUMPI PUSH1 0x0 CALLDATALOAD PUSH1 0xE0 SHR DUP1 PUSH4 0x1B8B9667 EQ PUSH2 0x46 JUMPI DUP1 PUSH4 0x22A1DED9 EQ PUSH2 0x77 JUMPI DUP1 PUSH4 0xF31604C7 EQ PUSH2 0x96 JUMPI JUMPDEST PUSH1 0x0 DUP1 REVERT JUMPDEST PUSH2 0x60 PUSH1 0x4 DUP1 CALLDATASIZE SUB DUP2 ADD SWAP1 PUSH2 0x5B SWAP2 SWAP1 PUSH2 0x415 JUMP JUMPDEST PUSH2 0xA0 JUMP JUMPDEST PUSH1 0x40 MLOAD PUSH2 0x6E SWAP3 SWAP2 SWAP1 PUSH2 0x47B JUMP JUMPDEST PUSH1 0x40 MLOAD DUP1 SWAP2 SUB SWAP1 RETURN JUMPDEST PUSH2 0x7F PUSH2 0x1D4 JUMP JUMPDEST PUSH1 0x40 MLOAD PUSH2 0x8D SWAP3 SWAP2 SWAP1 PUSH2 0x47B JUMP JUMPDEST PUSH1 0x40 MLOAD DUP1 SWAP2 SUB SWAP1 RETURN JUMPDEST PUSH2 0x9E PUSH2 0x2F6 JUMP JUMPDEST STOP JUMPDEST PUSH1 0x2 PUSH1 0x20 MSTORE DUP1 PUSH1 0x0 MSTORE PUSH1 0x40 PUSH1 0x0 KECCAK256 PUSH1 0x0 SWAP2 POP SWAP1 POP DUP1 PUSH1 0x0 ADD DUP1 SLOAD PUSH2 0xC3 SWAP1 PUSH2 0x533 JUMP JUMPDEST DUP1 PUSH1 0x1F ADD PUSH1 0x20 DUP1 SWAP2 DIV MUL PUSH1 0x20 ADD PUSH1 0x40 MLOAD SWAP1 DUP2 ADD PUSH1 0x40 MSTORE DUP1 SWAP3 SWAP2 SWAP1 DUP2 DUP2 MSTORE PUSH1 0x20 ADD DUP3 DUP1 SLOAD PUSH2 0xEF SWAP1 PUSH2 0x533 JUMP JUMPDEST DUP1 ISZERO PUSH2 0x13C JUMPI DUP1 PUSH1 0x1F LT PUSH2 0x111 JUMPI PUSH2 0x100 DUP1 DUP4 SLOAD DIV MUL DUP4 MSTORE SWAP2 PUSH1 0x20 ADD SWAP2 PUSH2 0x13C JUMP JUMPDEST DUP3 ADD SWAP2 SWAP1 PUSH1 0x0 MSTORE PUSH1 0x20 PUSH1 0x0 KECCAK256 SWAP1 JUMPDEST DUP2 SLOAD DUP2 MSTORE SWAP1 PUSH1 0x1 ADD SWAP1 PUSH1 0x20 ADD DUP1 DUP4 GT PUSH2 0x11F JUMPI DUP3 SWAP1 SUB PUSH1 0x1F AND DUP3 ADD SWAP2 JUMPDEST POP POP POP POP POP SWAP1 DUP1 PUSH1 0x1 ADD DUP1 SLOAD PUSH2 0x151 SWAP1 PUSH2 0x533 JUMP JUMPDEST DUP1 PUSH1 0x1F ADD PUSH1 0x20 DUP1 SWAP2 DIV MUL PUSH1 0x20 ADD PUSH1 0x40 MLOAD SWAP1 DUP2 ADD PUSH1 0x40 MSTORE DUP1 SWAP3 SWAP2 SWAP1 DUP2 DUP2 MSTORE PUSH1 0x20 ADD DUP3 DUP1 SLOAD PUSH2 0x17D SWAP1 PUSH2 0x533 JUMP JUMPDEST DUP1 ISZERO PUSH2 0x1CA JUMPI DUP1 PUSH1 0x1F LT PUSH2 0x19F JUMPI PUSH2 0x100 DUP1 DUP4 SLOAD DIV MUL DUP4 MSTORE SWAP2 PUSH1 0x20 ADD SWAP2 PUSH2 0x1CA JUMP JUMPDEST DUP3 ADD SWAP2 SWAP1 PUSH1 0x0 MSTORE PUSH1 0x20 PUSH1 0x0 KECCAK256 SWAP1 JUMPDEST DUP2 SLOAD DUP2 MSTORE SWAP1 PUSH1 0x1 ADD SWAP1 PUSH1 0x20 ADD DUP1 DUP4 GT PUSH2 0x1AD JUMPI DUP3 SWAP1 SUB PUSH1 0x1F AND DUP3 ADD SWAP2 JUMPDEST POP POP POP POP POP SWAP1 POP DUP3 JUMP JUMPDEST PUSH1 0x0 DUP1 PUSH1 0x0 ADD DUP1 SLOAD PUSH2 0x1E5 SWAP1 PUSH2 0x533 JUMP JUMPDEST DUP1 PUSH1 0x1F ADD PUSH1 0x20 DUP1 SWAP2 DIV MUL PUSH1 0x20 ADD PUSH1 0x40 MLOAD SWAP1 DUP2 ADD PUSH1 0x40 MSTORE DUP1 SWAP3 SWAP2 SWAP1 DUP2 DUP2 MSTORE PUSH1 0x20 ADD DUP3 DUP1 SLOAD PUSH2 0x211 SWAP1 PUSH2 0x533 JUMP JUMPDEST DUP1 ISZERO PUSH2 0x25E JUMPI DUP1 PUSH1 0x1F LT PUSH2 0x233 JUMPI PUSH2 0x100 DUP1 DUP4 SLOAD DIV MUL DUP4 MSTORE SWAP2 PUSH1 0x20 ADD SWAP2 PUSH2 0x25E JUMP JUMPDEST DUP3 ADD SWAP2 SWAP1 PUSH1 0x0 MSTORE PUSH1 0x20 PUSH1 0x0 KECCAK256 SWAP1 JUMPDEST DUP2 SLOAD DUP2 MSTORE SWAP1 PUSH1 0x1 ADD SWAP1 PUSH1 0x20 ADD DUP1 DUP4 GT PUSH2 0x241 JUMPI DUP3 SWAP1 SUB PUSH1 0x1F AND DUP3 ADD SWAP2 JUMPDEST POP POP POP POP POP SWAP1 DUP1 PUSH1 0x1 ADD DUP1 SLOAD PUSH2 0x273 SWAP1 PUSH2 0x533 JUMP JUMPDEST DUP1 PUSH1 0x1F ADD PUSH1 0x20 DUP1 SWAP2 DIV MUL PUSH1 0x20 ADD PUSH1 0x40 MLOAD SWAP1 DUP2 ADD PUSH1 0x40 MSTORE DUP1 SWAP3 SWAP2 SWAP1 DUP2 DUP2 MSTORE PUSH1 0x20 ADD DUP3 DUP1 SLOAD PUSH2 0x29F SWAP1 PUSH2 0x533 JUMP JUMPDEST DUP1 ISZERO PUSH2 0x2EC JUMPI DUP1 PUSH1 0x1F LT PUSH2 0x2C1 JUMPI PUSH2 0x100 DUP1 DUP4 SLOAD DIV MUL DUP4 MSTORE SWAP2 PUSH1 0x20 ADD SWAP2 PUSH2 0x2EC JUMP JUMPDEST DUP3 ADD SWAP2 SWAP1 PUSH1 0x0 MSTORE PUSH1 0x20 PUSH1 0x0 KECCAK256 SWAP1 JUMPDEST DUP2 SLOAD DUP2 MSTORE SWAP1 PUSH1 0x1 ADD SWAP1 PUSH1 0x20 ADD DUP1 DUP4 GT PUSH2 0x2CF JUMPI DUP3 SWAP1 SUB PUSH1 0x1F AND DUP3 ADD SWAP2 JUMPDEST POP POP POP POP POP SWAP1 POP DUP3 JUMP JUMPDEST PUSH1 0x0 DUP1 ADD PUSH1 0x2 PUSH1 0x0 CALLER PUSH20 0xFFFFFFFFFFFFFFFFFFFFFFFFFFFFFFFFFFFFFFFF AND PUSH20 0xFFFFFFFFFFFFFFFFFFFFFFFFFFFFFFFFFFFFFFFF AND DUP2 MSTORE PUSH1 0x20 ADD SWAP1 DUP2 MSTORE PUSH1 0x20 ADD PUSH1 0x0 KECCAK256 PUSH1 0x0 ADD SWAP1 DUP1 SLOAD PUSH2 0x348 SWAP1 PUSH2 0x533 JUMP JUMPDEST PUSH2 0x353 SWAP3 SWAP2 SWAP1 PUSH2 0x356 JUMP JUMPDEST POP JUMP JUMPDEST DUP3 DUP1 SLOAD PUSH2 0x362 SWAP1 PUSH2 0x533 JUMP JUMPDEST SWAP1 PUSH1 0x0 MSTORE PUSH1 0x20 PUSH1 0x0 KECCAK256 SWAP1 PUSH1 0x1F ADD PUSH1 0x20 SWAP1 DIV DUP2 ADD SWAP3 DUP3 PUSH2 0x384 JUMPI PUSH1 0x0 DUP6 SSTORE PUSH2 0x3D2 JUMP JUMPDEST DUP3 PUSH1 0x1F LT PUSH2 0x395 JUMPI DUP1 SLOAD DUP6 SSTORE PUSH2 0x3D2 JUMP JUMPDEST DUP3 DUP1 ADD PUSH1 0x1 ADD DUP6 SSTORE DUP3 ISZERO PUSH2 0x3D2 JUMPI PUSH1 0x0 MSTORE PUSH1 0x20 PUSH1 0x0 KECCAK256 SWAP2 PUSH1 0x1F ADD PUSH1 0x20 SWAP1 DIV DUP3 ADD JUMPDEST DUP3 DUP2 GT ISZERO PUSH2 0x3D1 JUMPI DUP3 SLOAD DUP3 SSTORE SWAP2 PUSH1 0x1 ADD SWAP2 SWAP1 PUSH1 0x1 ADD SWAP1 PUSH2 0x3B6 JUMP JUMPDEST JUMPDEST POP SWAP1 POP PUSH2 0x3DF SWAP2 SWAP1 PUSH2 0x3E3 JUMP JUMPDEST POP SWAP1 JUMP JUMPDEST JUMPDEST DUP1 DUP3 GT ISZERO PUSH2 0x3FC JUMPI PUSH1 0x0 DUP2 PUSH1 0x0 SWAP1 SSTORE POP PUSH1 0x1 ADD PUSH2 0x3E4 JUMP JUMPDEST POP SWAP1 JUMP JUMPDEST PUSH1 0x0 DUP2 CALLDATALOAD SWAP1 POP PUSH2 0x40F DUP2 PUSH2 0x5AA JUMP JUMPDEST SWAP3 SWAP2 POP POP JUMP JUMPDEST PUSH1 0x0 PUSH1 0x20 DUP3 DUP5 SUB SLT ISZERO PUSH2 0x42B JUMPI PUSH2 0x42A PUSH2 0x594 JUMP JUMPDEST JUMPDEST PUSH1 0x0 PUSH2 0x439 DUP5 DUP3 DUP6 ADD PUSH2 0x400 JUMP JUMPDEST SWAP2 POP POP SWAP3 SWAP2 POP POP JUMP JUMPDEST PUSH1 0x0 PUSH2 0x44D DUP3 PUSH2 0x4B2 JUMP JUMPDEST PUSH2 0x457 DUP2 DUP6 PUSH2 0x4BD JUMP JUMPDEST SWAP4 POP PUSH2 0x467 DUP2 DUP6 PUSH1 0x20 DUP7 ADD PUSH2 0x500 JUMP JUMPDEST PUSH2 0x470 DUP2 PUSH2 0x599 JUMP JUMPDEST DUP5 ADD SWAP2 POP POP SWAP3 SWAP2 POP POP JUMP JUMPDEST PUSH1 0x0 PUSH1 0x40 DUP3 ADD SWAP1 POP DUP2 DUP2 SUB PUSH1 0x0 DUP4 ADD MSTORE PUSH2 0x495 DUP2 DUP6 PUSH2 0x442 JUMP JUMPDEST SWAP1 POP DUP2 DUP2 SUB PUSH1 0x20 DUP4 ADD MSTORE PUSH2 0x4A9 DUP2 DUP5 PUSH2 0x442 JUMP JUMPDEST SWAP1 POP SWAP4 SWAP3 POP POP POP JUMP JUMPDEST PUSH1 0x0 DUP2 MLOAD SWAP1 POP SWAP2 SWAP1 POP JUMP JUMPDEST PUSH1 0x0 DUP3 DUP3 MSTORE PUSH1 0x20 DUP3 ADD SWAP1 POP SWAP3 SWAP2 POP POP JUMP JUMPDEST PUSH1 0x0 PUSH2 0x4D9 DUP3 PUSH2 0x4E0 JUMP JUMPDEST SWAP1 POP SWAP2 SWAP1 POP JUMP JUMPDEST PUSH1 0x0 PUSH20 0xFFFFFFFFFFFFFFFFFFFFFFFFFFFFFFFFFFFFFFFF DUP3 AND SWAP1 POP SWAP2 SWAP1 POP JUMP JUMPDEST PUSH1 0x0 JUMPDEST DUP4 DUP2 LT ISZERO PUSH2 0x51E JUMPI DUP1 DUP3 ADD MLOAD DUP2 DUP5 ADD MSTORE PUSH1 0x20 DUP2 ADD SWAP1 POP PUSH2 0x503 JUMP JUMPDEST DUP4 DUP2 GT ISZERO PUSH2 0x52D JUMPI PUSH1 0x0 DUP5 DUP5 ADD MSTORE JUMPDEST POP POP POP POP JUMP JUMPDEST PUSH1 0x0 PUSH1 0x2 DUP3 DIV SWAP1 POP PUSH1 0x1 DUP3 AND DUP1 PUSH2 0x54B JUMPI PUSH1 0x7F DUP3 AND SWAP2 POP JUMPDEST PUSH1 0x20 DUP3 LT DUP2 EQ ISZERO PUSH2 0x55F JUMPI PUSH2 0x55E PUSH2 0x565 JUMP JUMPDEST JUMPDEST POP SWAP2 SWAP1 POP JUMP JUMPDEST PUSH32 0x4E487B7100000000000000000000000000000000000000000000000000000000 PUSH1 0x0 MSTORE PUSH1 0x22 PUSH1 0x4 MSTORE PUSH1 0x24 PUSH1 0x0 REVERT JUMPDEST PUSH1 0x0 DUP1 REVERT JUMPDEST PUSH1 0x0 PUSH1 0x1F NOT PUSH1 0x1F DUP4 ADD AND SWAP1 POP SWAP2 SWAP1 POP JUMP JUMPDEST PUSH2 0x5B3 DUP2 PUSH2 0x4CE JUMP JUMPDEST DUP2 EQ PUSH2 0x5BE JUMPI PUSH1 0x0 DUP1 REVERT JUMPDEST POP JUMP INVALID LOG2 PUSH5 0x6970667358 0x22 SLT KECCAK256 0xC8 0xBF ADDRESS 0xF6 NOT PUSH26 0x9209D72EA39AABE26B9AB17C2338CAE656817A8ABF5F084BE53D PUSH5 0x736F6C6343 STOP ADDMOD SMOD STOP CALLER "
		},
		"gasEstimates": {
			"creation": {
				"codeDepositCost": "305400",
				"executionCost": "infinite",
				"totalCost": "infinite"
			},
			"external": {
				"objectName(address)": "infinite",
				"objectNameDefault()": "infinite",
				"setData()": "infinite"
			}
		},
		"methodIdentifiers": {
			"objectName(address)": "1b8b9667",
			"objectNameDefault()": "22a1ded9",
			"setData()": "f31604c7"
		}
	},
	"abi": [
		{
			"inputs": [],
			"stateMutability": "nonpayable",
			"type": "constructor"
		},
		{
			"inputs": [
				{
					"internalType": "address",
					"name": "",
					"type": "address"
				}
			],
			"name": "objectName",
			"outputs": [
				{
					"internalType": "string",
					"name": "name",
					"type": "string"
				},
				{
					"internalType": "string",
					"name": "addressName",
					"type": "string"
				}
			],
			"stateMutability": "view",
			"type": "function"
		},
		{
			"inputs": [],
			"name": "objectNameDefault",
			"outputs": [
				{
					"internalType": "string",
					"name": "name",
					"type": "string"
				},
				{
					"internalType": "string",
					"name": "addressName",
					"type": "string"
				}
			],
			"stateMutability": "view",
			"type": "function"
		},
		{
			"inputs": [],
			"name": "setData",
			"outputs": [],
			"stateMutability": "nonpayable",
			"type": "function"
		}
	]
}