{
	"data": {
		"bytecode": {
			"linkReferences": {},
			"object": "608060405234801561001057600080fd5b506040516101893803806101898339818101604052604081101561003357600080fd5b810190808051906020019092919080519060200190929190505050816000800181905550806000600101819055505050610117806100726000396000f3fe6080604052348015600f57600080fd5b506004361060325760003560e01c80633bc5de30146037578063a699fb03146053575b600080fd5b603d6076565b6040518082815260200191505060405180910390f35b605960a3565b604051808381526020018281526020019250505060405180910390f35b6000609f60006040518060400160405290816000820154815260200160018201548152505060b5565b5090565b60008060000154908060010154905082565b6000602182600001511460c757600080fd5b6000806001846020015101905080519150819250505091905056fea265627a7a72315820f680200fd9a1a10a964f6dfa2648046b5f9a70c119960a0dd52156dcca4a34a864736f6c63430005100032",
			"opcodes": "PUSH1 0x80 PUSH1 0x40 MSTORE CALLVALUE DUP1 ISZERO PUSH2 0x10 JUMPI PUSH1 0x0 DUP1 REVERT JUMPDEST POP PUSH1 0x40 MLOAD PUSH2 0x189 CODESIZE SUB DUP1 PUSH2 0x189 DUP4 CODECOPY DUP2 DUP2 ADD PUSH1 0x40 MSTORE PUSH1 0x40 DUP2 LT ISZERO PUSH2 0x33 JUMPI PUSH1 0x0 DUP1 REVERT JUMPDEST DUP2 ADD SWAP1 DUP1 DUP1 MLOAD SWAP1 PUSH1 0x20 ADD SWAP1 SWAP3 SWAP2 SWAP1 DUP1 MLOAD SWAP1 PUSH1 0x20 ADD SWAP1 SWAP3 SWAP2 SWAP1 POP POP POP DUP2 PUSH1 0x0 DUP1 ADD DUP2 SWAP1 SSTORE POP DUP1 PUSH1 0x0 PUSH1 0x1 ADD DUP2 SWAP1 SSTORE POP POP POP PUSH2 0x117 DUP1 PUSH2 0x72 PUSH1 0x0 CODECOPY PUSH1 0x0 RETURN INVALID PUSH1 0x80 PUSH1 0x40 MSTORE CALLVALUE DUP1 ISZERO PUSH1 0xF JUMPI PUSH1 0x0 DUP1 REVERT JUMPDEST POP PUSH1 0x4 CALLDATASIZE LT PUSH1 0x32 JUMPI PUSH1 0x0 CALLDATALOAD PUSH1 0xE0 SHR DUP1 PUSH4 0x3BC5DE30 EQ PUSH1 0x37 JUMPI DUP1 PUSH4 0xA699FB03 EQ PUSH1 0x53 JUMPI JUMPDEST PUSH1 0x0 DUP1 REVERT JUMPDEST PUSH1 0x3D PUSH1 0x76 JUMP JUMPDEST PUSH1 0x40 MLOAD DUP1 DUP3 DUP2 MSTORE PUSH1 0x20 ADD SWAP2 POP POP PUSH1 0x40 MLOAD DUP1 SWAP2 SUB SWAP1 RETURN JUMPDEST PUSH1 0x59 PUSH1 0xA3 JUMP JUMPDEST PUSH1 0x40 MLOAD DUP1 DUP4 DUP2 MSTORE PUSH1 0x20 ADD DUP3 DUP2 MSTORE PUSH1 0x20 ADD SWAP3 POP POP POP PUSH1 0x40 MLOAD DUP1 SWAP2 SUB SWAP1 RETURN JUMPDEST PUSH1 0x0 PUSH1 0x9F PUSH1 0x0 PUSH1 0x40 MLOAD DUP1 PUSH1 0x40 ADD PUSH1 0x40 MSTORE SWAP1 DUP2 PUSH1 0x0 DUP3 ADD SLOAD DUP2 MSTORE PUSH1 0x20 ADD PUSH1 0x1 DUP3 ADD SLOAD DUP2 MSTORE POP POP PUSH1 0xB5 JUMP JUMPDEST POP SWAP1 JUMP JUMPDEST PUSH1 0x0 DUP1 PUSH1 0x0 ADD SLOAD SWAP1 DUP1 PUSH1 0x1 ADD SLOAD SWAP1 POP DUP3 JUMP JUMPDEST PUSH1 0x0 PUSH1 0x21 DUP3 PUSH1 0x0 ADD MLOAD EQ PUSH1 0xC7 JUMPI PUSH1 0x0 DUP1 REVERT JUMPDEST PUSH1 0x0 DUP1 PUSH1 0x1 DUP5 PUSH1 0x20 ADD MLOAD ADD SWAP1 POP DUP1 MLOAD SWAP2 POP DUP2 SWAP3 POP POP POP SWAP2 SWAP1 POP JUMP INVALID LOG2 PUSH6 0x627A7A723158 KECCAK256 0xF6 DUP1 KECCAK256 0xF 0xD9 LOG1 LOG1 EXP SWAP7 0x4F PUSH14 0xFA2648046B5F9A70C119960A0DD5 0x21 JUMP 0xDC 0xCA 0x4A CALLVALUE 0xA8 PUSH5 0x736F6C6343 STOP SDIV LT STOP ORIGIN "
		},
		"gasEstimates": {
			"creation": {
				"codeDepositCost": "55800",
				"executionCost": "infinite",
				"totalCost": "infinite"
			},
			"external": {
				"getData()": "infinite",
				"rlpItem()": "1851"
			},
			"internal": {
				"toUintStrict(struct Demo1.RLPItem memory)": "infinite"
			}
		},
		"methodIdentifiers": {
			"getData()": "3bc5de30",
			"rlpItem()": "a699fb03"
		}
	},
	"abi": [
		{
			"inputs": [
				{
					"internalType": "uint256",
					"name": "_len",
					"type": "uint256"
				},
				{
					"internalType": "uint256",
					"name": "_memPtr",
					"type": "uint256"
				}
			],
			"payable": false,
			"stateMutability": "nonpayable",
			"type": "constructor"
		},
		{
			"constant": true,
			"inputs": [],
			"name": "getData",
			"outputs": [
				{
					"internalType": "uint256",
					"name": "",
					"type": "uint256"
				}
			],
			"payable": false,
			"stateMutability": "view",
			"type": "function"
		},
		{
			"constant": true,
			"inputs": [],
			"name": "rlpItem",
			"outputs": [
				{
					"internalType": "uint256",
					"name": "len",
					"type": "uint256"
				},
				{
					"internalType": "uint256",
					"name": "memPtr",
					"type": "uint256"
				}
			],
			"payable": false,
			"stateMutability": "view",
			"type": "function"
		}
	]
}