{
	"contracts/WETH10.sol": {
		"WETH10": {
			"abi": [
				{
					"inputs": [],
					"stateMutability": "nonpayable",
					"type": "constructor"
				},
				{
					"anonymous": false,
					"inputs": [
						{
							"indexed": true,
							"internalType": "address",
							"name": "owner",
							"type": "address"
						},
						{
							"indexed": true,
							"internalType": "address",
							"name": "spender",
							"type": "address"
						},
						{
							"indexed": false,
							"internalType": "uint256",
							"name": "value",
							"type": "uint256"
						}
					],
					"name": "Approval",
					"type": "event"
				},
				{
					"anonymous": false,
					"inputs": [
						{
							"indexed": true,
							"internalType": "address",
							"name": "from",
							"type": "address"
						},
						{
							"indexed": true,
							"internalType": "address",
							"name": "to",
							"type": "address"
						},
						{
							"indexed": false,
							"internalType": "uint256",
							"name": "value",
							"type": "uint256"
						}
					],
					"name": "Transfer",
					"type": "event"
				},
				{
					"inputs": [],
					"name": "CALLBACK_SUCCESS",
					"outputs": [
						{
							"internalType": "bytes32",
							"name": "",
							"type": "bytes32"
						}
					],
					"stateMutability": "view",
					"type": "function"
				},
				{
					"inputs": [],
					"name": "DOMAIN_SEPARATOR",
					"outputs": [
						{
							"internalType": "bytes32",
							"name": "",
							"type": "bytes32"
						}
					],
					"stateMutability": "view",
					"type": "function"
				},
				{
					"inputs": [],
					"name": "PERMIT_TYPEHASH",
					"outputs": [
						{
							"internalType": "bytes32",
							"name": "",
							"type": "bytes32"
						}
					],
					"stateMutability": "view",
					"type": "function"
				},
				{
					"inputs": [
						{
							"internalType": "address",
							"name": "",
							"type": "address"
						},
						{
							"internalType": "address",
							"name": "",
							"type": "address"
						}
					],
					"name": "allowance",
					"outputs": [
						{
							"internalType": "uint256",
							"name": "",
							"type": "uint256"
						}
					],
					"stateMutability": "view",
					"type": "function"
				},
				{
					"inputs": [
						{
							"internalType": "address",
							"name": "spender",
							"type": "address"
						},
						{
							"internalType": "uint256",
							"name": "value",
							"type": "uint256"
						}
					],
					"name": "approve",
					"outputs": [
						{
							"internalType": "bool",
							"name": "",
							"type": "bool"
						}
					],
					"stateMutability": "nonpayable",
					"type": "function"
				},
				{
					"inputs": [
						{
							"internalType": "address",
							"name": "spender",
							"type": "address"
						},
						{
							"internalType": "uint256",
							"name": "value",
							"type": "uint256"
						},
						{
							"internalType": "bytes",
							"name": "data",
							"type": "bytes"
						}
					],
					"name": "approveAndCall",
					"outputs": [
						{
							"internalType": "bool",
							"name": "",
							"type": "bool"
						}
					],
					"stateMutability": "nonpayable",
					"type": "function"
				},
				{
					"inputs": [
						{
							"internalType": "address",
							"name": "",
							"type": "address"
						}
					],
					"name": "balanceOf",
					"outputs": [
						{
							"internalType": "uint256",
							"name": "",
							"type": "uint256"
						}
					],
					"stateMutability": "view",
					"type": "function"
				},
				{
					"inputs": [],
					"name": "decimals",
					"outputs": [
						{
							"internalType": "uint8",
							"name": "",
							"type": "uint8"
						}
					],
					"stateMutability": "view",
					"type": "function"
				},
				{
					"inputs": [],
					"name": "deploymentChainId",
					"outputs": [
						{
							"internalType": "uint256",
							"name": "",
							"type": "uint256"
						}
					],
					"stateMutability": "view",
					"type": "function"
				},
				{
					"inputs": [],
					"name": "deposit",
					"outputs": [],
					"stateMutability": "payable",
					"type": "function"
				},
				{
					"inputs": [
						{
							"internalType": "address",
							"name": "to",
							"type": "address"
						}
					],
					"name": "depositTo",
					"outputs": [],
					"stateMutability": "payable",
					"type": "function"
				},
				{
					"inputs": [
						{
							"internalType": "address",
							"name": "to",
							"type": "address"
						},
						{
							"internalType": "bytes",
							"name": "data",
							"type": "bytes"
						}
					],
					"name": "depositToAndCall",
					"outputs": [
						{
							"internalType": "bool",
							"name": "success",
							"type": "bool"
						}
					],
					"stateMutability": "payable",
					"type": "function"
				},
				{
					"inputs": [
						{
							"internalType": "address",
							"name": "token",
							"type": "address"
						},
						{
							"internalType": "uint256",
							"name": "",
							"type": "uint256"
						}
					],
					"name": "flashFee",
					"outputs": [
						{
							"internalType": "uint256",
							"name": "",
							"type": "uint256"
						}
					],
					"stateMutability": "view",
					"type": "function"
				},
				{
					"inputs": [
						{
							"internalType": "contract IERC3156FlashBorrower",
							"name": "receiver",
							"type": "address"
						},
						{
							"internalType": "address",
							"name": "token",
							"type": "address"
						},
						{
							"internalType": "uint256",
							"name": "value",
							"type": "uint256"
						},
						{
							"internalType": "bytes",
							"name": "data",
							"type": "bytes"
						}
					],
					"name": "flashLoan",
					"outputs": [
						{
							"internalType": "bool",
							"name": "",
							"type": "bool"
						}
					],
					"stateMutability": "nonpayable",
					"type": "function"
				},
				{
					"inputs": [],
					"name": "flashMinted",
					"outputs": [
						{
							"internalType": "uint256",
							"name": "",
							"type": "uint256"
						}
					],
					"stateMutability": "view",
					"type": "function"
				},
				{
					"inputs": [
						{
							"internalType": "address",
							"name": "token",
							"type": "address"
						}
					],
					"name": "maxFlashLoan",
					"outputs": [
						{
							"internalType": "uint256",
							"name": "",
							"type": "uint256"
						}
					],
					"stateMutability": "view",
					"type": "function"
				},
				{
					"inputs": [],
					"name": "name",
					"outputs": [
						{
							"internalType": "string",
							"name": "",
							"type": "string"
						}
					],
					"stateMutability": "view",
					"type": "function"
				},
				{
					"inputs": [
						{
							"internalType": "address",
							"name": "",
							"type": "address"
						}
					],
					"name": "nonces",
					"outputs": [
						{
							"internalType": "uint256",
							"name": "",
							"type": "uint256"
						}
					],
					"stateMutability": "view",
					"type": "function"
				},
				{
					"inputs": [
						{
							"internalType": "address",
							"name": "owner",
							"type": "address"
						},
						{
							"internalType": "address",
							"name": "spender",
							"type": "address"
						},
						{
							"internalType": "uint256",
							"name": "value",
							"type": "uint256"
						},
						{
							"internalType": "uint256",
							"name": "deadline",
							"type": "uint256"
						},
						{
							"internalType": "uint8",
							"name": "v",
							"type": "uint8"
						},
						{
							"internalType": "bytes32",
							"name": "r",
							"type": "bytes32"
						},
						{
							"internalType": "bytes32",
							"name": "s",
							"type": "bytes32"
						}
					],
					"name": "permit",
					"outputs": [],
					"stateMutability": "nonpayable",
					"type": "function"
				},
				{
					"inputs": [],
					"name": "symbol",
					"outputs": [
						{
							"internalType": "string",
							"name": "",
							"type": "string"
						}
					],
					"stateMutability": "view",
					"type": "function"
				},
				{
					"inputs": [],
					"name": "totalSupply",
					"outputs": [
						{
							"internalType": "uint256",
							"name": "",
							"type": "uint256"
						}
					],
					"stateMutability": "view",
					"type": "function"
				},
				{
					"inputs": [
						{
							"internalType": "address",
							"name": "to",
							"type": "address"
						},
						{
							"internalType": "uint256",
							"name": "value",
							"type": "uint256"
						}
					],
					"name": "transfer",
					"outputs": [
						{
							"internalType": "bool",
							"name": "",
							"type": "bool"
						}
					],
					"stateMutability": "nonpayable",
					"type": "function"
				},
				{
					"inputs": [
						{
							"internalType": "address",
							"name": "to",
							"type": "address"
						},
						{
							"internalType": "uint256",
							"name": "value",
							"type": "uint256"
						},
						{
							"internalType": "bytes",
							"name": "data",
							"type": "bytes"
						}
					],
					"name": "transferAndCall",
					"outputs": [
						{
							"internalType": "bool",
							"name": "",
							"type": "bool"
						}
					],
					"stateMutability": "nonpayable",
					"type": "function"
				},
				{
					"inputs": [
						{
							"internalType": "address",
							"name": "from",
							"type": "address"
						},
						{
							"internalType": "address",
							"name": "to",
							"type": "address"
						},
						{
							"internalType": "uint256",
							"name": "value",
							"type": "uint256"
						}
					],
					"name": "transferFrom",
					"outputs": [
						{
							"internalType": "bool",
							"name": "",
							"type": "bool"
						}
					],
					"stateMutability": "nonpayable",
					"type": "function"
				},
				{
					"inputs": [
						{
							"internalType": "uint256",
							"name": "value",
							"type": "uint256"
						}
					],
					"name": "withdraw",
					"outputs": [],
					"stateMutability": "nonpayable",
					"type": "function"
				},
				{
					"inputs": [
						{
							"internalType": "address",
							"name": "from",
							"type": "address"
						},
						{
							"internalType": "address payable",
							"name": "to",
							"type": "address"
						},
						{
							"internalType": "uint256",
							"name": "value",
							"type": "uint256"
						}
					],
					"name": "withdrawFrom",
					"outputs": [],
					"stateMutability": "nonpayable",
					"type": "function"
				},
				{
					"inputs": [
						{
							"internalType": "address payable",
							"name": "to",
							"type": "address"
						},
						{
							"internalType": "uint256",
							"name": "value",
							"type": "uint256"
						}
					],
					"name": "withdrawTo",
					"outputs": [],
					"stateMutability": "nonpayable",
					"type": "function"
				},
				{
					"stateMutability": "payable",
					"type": "receive"
				}
			],
			"devdoc": {
				"details": "Wrapped Ether v10 (WETH10) is an Ether (ETH) ERC-20 wrapper. You can `deposit` ETH and obtain a WETH10 balance which can then be operated as an ERC-20 token. You can `withdraw` ETH from WETH10, which will then burn WETH10 token in your wallet. The amount of WETH10 token in any wallet is always identical to the balance of ETH deposited minus the ETH withdrawn with that specific wallet.",
				"kind": "dev",
				"methods": {
					"DOMAIN_SEPARATOR()": {
						"details": "Return the DOMAIN_SEPARATOR."
					},
					"approve(address,uint256)": {
						"details": "Sets `value` as allowance of `spender` account over caller account's WETH10 token. Emits {Approval} event. Returns boolean value indicating whether operation succeeded."
					},
					"approveAndCall(address,uint256,bytes)": {
						"details": "Sets `value` as allowance of `spender` account over caller account's WETH10 token, after which a call is executed to an ERC677-compliant contract with the `data` parameter. Emits {Approval} event. Returns boolean value indicating whether operation succeeded. For more information on {approveAndCall} format, see https://github.com/ethereum/EIPs/issues/677."
					},
					"deposit()": {
						"details": "`msg.value` of ETH sent to this contract grants caller account a matching increase in WETH10 token balance. Emits {Transfer} event to reflect WETH10 token mint of `msg.value` from `address(0)` to caller account."
					},
					"depositTo(address)": {
						"details": "`msg.value` of ETH sent to this contract grants `to` account a matching increase in WETH10 token balance. Emits {Transfer} event to reflect WETH10 token mint of `msg.value` from `address(0)` to `to` account."
					},
					"depositToAndCall(address,bytes)": {
						"details": "`msg.value` of ETH sent to this contract grants `to` account a matching increase in WETH10 token balance, after which a call is executed to an ERC677-compliant contract with the `data` parameter. Emits {Transfer} event. Returns boolean value indicating whether operation succeeded. For more information on {transferAndCall} format, see https://github.com/ethereum/EIPs/issues/677."
					},
					"flashFee(address,uint256)": {
						"details": "Return the fee (zero) for flash lending an amount of WETH10 token."
					},
					"flashLoan(address,address,uint256,bytes)": {
						"details": "Flash lends `value` WETH10 token to the receiver address. By the end of the transaction, `value` WETH10 token will be burned from the receiver. The flash-minted WETH10 token is not backed by real ETH, but can be withdrawn as such up to the ETH balance of this contract. Arbitrary data can be passed as a bytes calldata parameter. Emits {Approval} event to reflect reduced allowance `value` for this contract to spend from receiver account (`receiver`), unless allowance is set to `type(uint256).max` Emits two {Transfer} events for minting and burning of the flash-minted amount. Returns boolean value indicating whether operation succeeded. Requirements:   - `value` must be less or equal to type(uint112).max.   - The total of all flash loans in a tx must be less or equal to type(uint112).max."
					},
					"maxFlashLoan(address)": {
						"details": "Return the amount of WETH10 token that can be flash-lent."
					},
					"permit(address,address,uint256,uint256,uint8,bytes32,bytes32)": {
						"details": "Sets `value` as allowance of `spender` account over `owner` account's WETH10 token, given `owner` account's signed approval. Emits {Approval} event. Requirements:   - `deadline` must be timestamp in future.   - `v`, `r` and `s` must be valid `secp256k1` signature from `owner` account over EIP712-formatted function arguments.   - the signature must use `owner` account's current nonce (see {nonces}).   - the signer cannot be `address(0)` and must be `owner` account. For more information on signature format, see https://eips.ethereum.org/EIPS/eip-2612#specification[relevant EIP section]. WETH10 token implementation adapted from https://github.com/albertocuestacanada/ERC20Permit/blob/master/contracts/ERC20Permit.sol."
					},
					"totalSupply()": {
						"details": "Returns the total supply of WETH10 token as the ETH held in this contract."
					},
					"transfer(address,uint256)": {
						"details": "Moves `value` WETH10 token from caller's account to account (`to`). A transfer to `address(0)` triggers an ETH withdraw matching the sent WETH10 token in favor of caller. Emits {Transfer} event. Returns boolean value indicating whether operation succeeded. Requirements:   - caller account must have at least `value` WETH10 token."
					},
					"transferAndCall(address,uint256,bytes)": {
						"details": "Moves `value` WETH10 token from caller's account to account (`to`),  after which a call is executed to an ERC677-compliant contract with the `data` parameter. A transfer to `address(0)` triggers an ETH withdraw matching the sent WETH10 token in favor of caller. Emits {Transfer} event. Returns boolean value indicating whether operation succeeded. Requirements:   - caller account must have at least `value` WETH10 token. For more information on {transferAndCall} format, see https://github.com/ethereum/EIPs/issues/677."
					},
					"transferFrom(address,address,uint256)": {
						"details": "Moves `value` WETH10 token from account (`from`) to account (`to`) using allowance mechanism. `value` is then deducted from caller account's allowance, unless set to `type(uint256).max`. A transfer to `address(0)` triggers an ETH withdraw matching the sent WETH10 token in favor of caller. Emits {Approval} event to reflect reduced allowance `value` for caller account to spend from account (`from`), unless allowance is set to `type(uint256).max` Emits {Transfer} event. Returns boolean value indicating whether operation succeeded. Requirements:   - `from` account must have at least `value` balance of WETH10 token.   - `from` account must have approved caller to spend at least `value` of WETH10 token, unless `from` and caller are the same account."
					},
					"withdraw(uint256)": {
						"details": "Burn `value` WETH10 token from caller account and withdraw matching ETH to the same. Emits {Transfer} event to reflect WETH10 token burn of `value` to `address(0)` from caller account.  Requirements:   - caller account must have at least `value` balance of WETH10 token."
					},
					"withdrawFrom(address,address,uint256)": {
						"details": "Burn `value` WETH10 token from account (`from`) and withdraw matching ETH to account (`to`). Emits {Approval} event to reflect reduced allowance `value` for caller account to spend from account (`from`), unless allowance is set to `type(uint256).max` Emits {Transfer} event to reflect WETH10 token burn of `value` to `address(0)` from account (`from`). Requirements:   - `from` account must have at least `value` balance of WETH10 token.   - `from` account must have approved caller to spend at least `value` of WETH10 token, unless `from` and caller are the same account."
					},
					"withdrawTo(address,uint256)": {
						"details": "Burn `value` WETH10 token from caller account and withdraw matching ETH to account (`to`). Emits {Transfer} event to reflect WETH10 token burn of `value` to `address(0)` from caller account. Requirements:   - caller account must have at least `value` balance of WETH10 token."
					}
				},
				"stateVariables": {
					"allowance": {
						"details": "Records number of WETH10 token that account (second) will be allowed to spend on behalf of another account (first) through {transferFrom}."
					},
					"balanceOf": {
						"details": "Records amount of WETH10 token owned by account."
					},
					"flashMinted": {
						"details": "Current amount of flash-minted WETH10 token."
					},
					"nonces": {
						"details": "Records current ERC2612 nonce for account. This value must be included whenever signature is generated for {permit}. Every successful call to {permit} increases account's nonce by one. This prevents signature from being used multiple times."
					}
				},
				"version": 1
			},
			"evm": {
				"assembly": "    /* \"contracts/WETH10.sol\":894:20397  contract WETH10 is IWETH10 {\r... */\n  mstore(0x40, 0x0100)\n    /* \"contracts/WETH10.sol\":1147:1192  keccak256(\"ERC3156FlashBorrower.onFlashLoan\") */\n  0x439148f0bbc682ca079e46d6e2c2f0c1e3b820f1a291b069d8882abf8cf18dd9\n    /* \"contracts/WETH10.sol\":1103:1192  bytes32 public immutable CALLBACK_SUCCESS = keccak256(\"ERC3156FlashBorrower.onFlashLoan\") */\n  0x80\n  swap1\n  dup2\n  mstore\n  pop\n    /* \"contracts/WETH10.sol\":1242:1337  keccak256(\"Permit(address owner,address spender,uint256 value,uint256 nonce,uint256 deadline)\") */\n  0x6e71edae12b1b97f4d1f60370fef10105fa2faae0126114a169c64845d6126c9\n    /* \"contracts/WETH10.sol\":1199:1337  bytes32 public immutable PERMIT_TYPEHASH = keccak256(\"Permit(address owner,address spender,uint256 value,uint256 nonce,uint256 deadline)\") */\n  0xa0\n  swap1\n  dup2\n  mstore\n  pop\n    /* \"contracts/WETH10.sol\":2239:2431  constructor() {\r... */\n  callvalue\n  dup1\n  iszero\n  tag_1\n  jumpi\n  0x00\n  dup1\n  revert\ntag_1:\n  pop\n    /* \"contracts/WETH10.sol\":2264:2279  uint256 chainId */\n  0x00\n    /* \"contracts/WETH10.sol\":2311:2320  chainid() */\n  chainid\n    /* \"contracts/WETH10.sol\":2300:2320  chainId := chainid() */\n  swap1\n  pop\n    /* \"contracts/WETH10.sol\":2351:2358  chainId */\n  dup1\n    /* \"contracts/WETH10.sol\":2331:2358  deploymentChainId = chainId */\n  0xc0\n  dup2\n  dup2\n  mstore\n  pop\n  pop\n    /* \"contracts/WETH10.sol\":2389:2423  _calculateDomainSeparator(chainId) */\n  tag_4\n    /* \"contracts/WETH10.sol\":2415:2422  chainId */\n  dup2\n    /* \"contracts/WETH10.sol\":2389:2414  _calculateDomainSeparator */\n  shl(0x20, tag_5)\n    /* \"contracts/WETH10.sol\":2389:2423  _calculateDomainSeparator(chainId) */\n  0x20\n  shr\n  jump\t// in\ntag_4:\n    /* \"contracts/WETH10.sol\":2369:2423  _DOMAIN_SEPARATOR = _calculateDomainSeparator(chainId) */\n  0xe0\n  dup2\n  dup2\n  mstore\n  pop\n  pop\n    /* \"contracts/WETH10.sol\":2239:2431  constructor() {\r... */\n  pop\n    /* \"contracts/WETH10.sol\":894:20397  contract WETH10 is IWETH10 {\r... */\n  jump(tag_6)\n    /* \"contracts/WETH10.sol\":2485:2907  function _calculateDomainSeparator(uint256 chainId) private view returns (bytes32) {\r... */\ntag_5:\n    /* \"contracts/WETH10.sol\":2559:2566  bytes32 */\n  0x00\n    /* \"contracts/WETH10.sol\":2639:2734  keccak256(\"EIP712Domain(string name,string version,uint256 chainId,address verifyingContract)\") */\n  0x8b73c3c69bb8fe3d512ecc4cf759cc79239f7b179b0ffacaa9a75d522b39400f\n    /* \"contracts/WETH10.sol\":2769:2773  name */\n  mload(0x40)\n  dup1\n  0x40\n  add\n  0x40\n  mstore\n  dup1\n  0x11\n  dup2\n  mstore\n  0x20\n  add\n  0x5772617070656420457468657220763130000000000000000000000000000000\n  dup2\n  mstore\n  pop\n    /* \"contracts/WETH10.sol\":2753:2775  keccak256(bytes(name)) */\n  dup1\n  mload\n  swap1\n  0x20\n  add\n  keccak256\n    /* \"contracts/WETH10.sol\":2804:2814  bytes(\"1\") */\n  mload(0x40)\n  dup1\n  0x40\n  add\n  0x40\n  mstore\n  dup1\n  0x01\n  dup2\n  mstore\n  0x20\n  add\n  0x3100000000000000000000000000000000000000000000000000000000000000\n  dup2\n  mstore\n  pop\n    /* \"contracts/WETH10.sol\":2794:2815  keccak256(bytes(\"1\")) */\n  dup1\n  mload\n  swap1\n  0x20\n  add\n  keccak256\n    /* \"contracts/WETH10.sol\":2834:2841  chainId */\n  dup5\n    /* \"contracts/WETH10.sol\":2868:2872  this */\n  address\n    /* \"contracts/WETH10.sol\":2610:2888  abi.encode(\r... */\n  add(0x20, mload(0x40))\n  dup1\n  dup7\n  dup2\n  mstore\n  0x20\n  add\n  dup6\n  dup2\n  mstore\n  0x20\n  add\n  dup5\n  dup2\n  mstore\n  0x20\n  add\n  dup4\n  dup2\n  mstore\n  0x20\n  add\n  dup3\n  0xffffffffffffffffffffffffffffffffffffffff\n  and\n  dup2\n  mstore\n  0x20\n  add\n  swap6\n  pop\n  pop\n  pop\n  pop\n  pop\n  pop\n  mload(0x40)\n  0x20\n  dup2\n  dup4\n  sub\n  sub\n  dup2\n  mstore\n  swap1\n  0x40\n  mstore\n    /* \"contracts/WETH10.sol\":2586:2899  keccak256(\r... */\n  dup1\n  mload\n  swap1\n  0x20\n  add\n  keccak256\n    /* \"contracts/WETH10.sol\":2579:2899  return keccak256(\r... */\n  swap1\n  pop\n    /* \"contracts/WETH10.sol\":2485:2907  function _calculateDomainSeparator(uint256 chainId) private view returns (bytes32) {\r... */\n  swap2\n  swap1\n  pop\n  jump\t// out\n    /* \"contracts/WETH10.sol\":894:20397  contract WETH10 is IWETH10 {\r... */\ntag_6:\n  mload(0x80)\n  mload(0xa0)\n  mload(0xc0)\n  mload(0xe0)\n  codecopy(0x00, dataOffset(sub_0), dataSize(sub_0))\n  assignImmutable(\"0xbbd48b257be1b8216d144ef9be5734f8d11697959c9e0f7768bec89db74a63a3\")\n  assignImmutable(\"0xf928ede1c39c5595ff22fe845412ee05a93eeaa584f8ef0c46b5eeb14cb99ec8\")\n  assignImmutable(\"0x59c0d2b7af0a8e6d3d8e710a078764bd67b7223777026c424cdb4f599824bb79\")\n  assignImmutable(\"0x2e9b7c94e032d8b3b8b30bd825717a5ac74958b53e7c37a892a4fd7dc56e4975\")\n  return(0x00, dataSize(sub_0))\nstop\n\nsub_0: assembly {\n        /* \"contracts/WETH10.sol\":894:20397  contract WETH10 is IWETH10 {\r... */\n      mstore(0x40, 0x80)\n      jumpi(tag_1, lt(calldatasize, 0x04))\n      shr(0xe0, calldataload(0x00))\n      dup1\n      0x70a08231\n      gt\n      tag_30\n      jumpi\n      dup1\n      0xb760faf9\n      gt\n      tag_31\n      jumpi\n      dup1\n      0xd0e30db0\n      gt\n      tag_32\n      jumpi\n      dup1\n      0xd0e30db0\n      eq\n      tag_26\n      jumpi\n      dup1\n      0xd505accf\n      eq\n      tag_27\n      jumpi\n      dup1\n      0xd9d98ce4\n      eq\n      tag_28\n      jumpi\n      dup1\n      0xdd62ed3e\n      eq\n      tag_29\n      jumpi\n      jump(tag_2)\n    tag_32:\n      dup1\n      0xb760faf9\n      eq\n      tag_23\n      jumpi\n      dup1\n      0xcae9ca51\n      eq\n      tag_24\n      jumpi\n      dup1\n      0xcd0d0096\n      eq\n      tag_25\n      jumpi\n      jump(tag_2)\n    tag_31:\n      dup1\n      0x8b28d32f\n      gt\n      tag_33\n      jumpi\n      dup1\n      0x8b28d32f\n      eq\n      tag_19\n      jumpi\n      dup1\n      0x9555a942\n      eq\n      tag_20\n      jumpi\n      dup1\n      0x95d89b41\n      eq\n      tag_21\n      jumpi\n      dup1\n      0xa9059cbb\n      eq\n      tag_22\n      jumpi\n      jump(tag_2)\n    tag_33:\n      dup1\n      0x70a08231\n      eq\n      tag_16\n      jumpi\n      dup1\n      0x7ecebe00\n      eq\n      tag_17\n      jumpi\n      dup1\n      0x8237e538\n      eq\n      tag_18\n      jumpi\n      jump(tag_2)\n    tag_30:\n      dup1\n      0x30adf81f\n      gt\n      tag_34\n      jumpi\n      dup1\n      0x4000aea0\n      gt\n      tag_35\n      jumpi\n      dup1\n      0x4000aea0\n      eq\n      tag_12\n      jumpi\n      dup1\n      0x5cffe9de\n      eq\n      tag_13\n      jumpi\n      dup1\n      0x5ddb7d7e\n      eq\n      tag_14\n      jumpi\n      dup1\n      0x613255ab\n      eq\n      tag_15\n      jumpi\n      jump(tag_2)\n    tag_35:\n      dup1\n      0x30adf81f\n      eq\n      tag_9\n      jumpi\n      dup1\n      0x313ce567\n      eq\n      tag_10\n      jumpi\n      dup1\n      0x3644e515\n      eq\n      tag_11\n      jumpi\n      jump(tag_2)\n    tag_34:\n      dup1\n      0x06fdde03\n      eq\n      tag_3\n      jumpi\n      dup1\n      0x095ea7b3\n      eq\n      tag_4\n      jumpi\n      dup1\n      0x18160ddd\n      eq\n      tag_5\n      jumpi\n      dup1\n      0x205c2878\n      eq\n      tag_6\n      jumpi\n      dup1\n      0x23b872dd\n      eq\n      tag_7\n      jumpi\n      dup1\n      0x2e1a7d4d\n      eq\n      tag_8\n      jumpi\n      jump(tag_2)\n    tag_1:\n      jumpi(tag_2, calldatasize)\n        /* \"contracts/WETH10.sol\":3791:3800  msg.value */\n      callvalue\n        /* \"contracts/WETH10.sol\":3766:3775  balanceOf */\n      0x00\n        /* \"contracts/WETH10.sol\":3766:3787  balanceOf[msg.sender] */\n      dup1\n        /* \"contracts/WETH10.sol\":3776:3786  msg.sender */\n      caller\n        /* \"contracts/WETH10.sol\":3766:3787  balanceOf[msg.sender] */\n      0xffffffffffffffffffffffffffffffffffffffff\n      and\n      0xffffffffffffffffffffffffffffffffffffffff\n      and\n      dup2\n      mstore\n      0x20\n      add\n      swap1\n      dup2\n      mstore\n      0x20\n      add\n      0x00\n      keccak256\n      0x00\n        /* \"contracts/WETH10.sol\":3766:3800  balanceOf[msg.sender] += msg.value */\n      dup3\n      dup3\n      sload\n      add\n      swap3\n      pop\n      pop\n      dup2\n      swap1\n      sstore\n      pop\n        /* \"contracts/WETH10.sol\":3837:3847  msg.sender */\n      caller\n        /* \"contracts/WETH10.sol\":3816:3859  Transfer(address(0), msg.sender, msg.value) */\n      0xffffffffffffffffffffffffffffffffffffffff\n      and\n        /* \"contracts/WETH10.sol\":3833:3834  0 */\n      0x00\n        /* \"contracts/WETH10.sol\":3816:3859  Transfer(address(0), msg.sender, msg.value) */\n      0xffffffffffffffffffffffffffffffffffffffff\n      and\n      0xddf252ad1be2c89b69c2b068fc378daa952ba7f163c4a11628f55a4df523b3ef\n        /* \"contracts/WETH10.sol\":3849:3858  msg.value */\n      callvalue\n        /* \"contracts/WETH10.sol\":3816:3859  Transfer(address(0), msg.sender, msg.value) */\n      mload(0x40)\n      dup1\n      dup3\n      dup2\n      mstore\n      0x20\n      add\n      swap2\n      pop\n      pop\n      mload(0x40)\n      dup1\n      swap2\n      sub\n      swap1\n      log3\n        /* \"contracts/WETH10.sol\":894:20397  contract WETH10 is IWETH10 {\r... */\n      stop\n    tag_2:\n      0x00\n      dup1\n      revert\n        /* \"contracts/WETH10.sol\":933:982  string public constant name = \"Wrapped Ether v10\" */\n    tag_3:\n      callvalue\n      dup1\n      iszero\n      tag_38\n      jumpi\n      0x00\n      dup1\n      revert\n    tag_38:\n      pop\n      tag_39\n      tag_40\n      jump\t// in\n    tag_39:\n      mload(0x40)\n      dup1\n      dup1\n      0x20\n      add\n      dup3\n      dup2\n      sub\n      dup3\n      mstore\n      dup4\n      dup2\n      dup2\n      mload\n      dup2\n      mstore\n      0x20\n      add\n      swap2\n      pop\n      dup1\n      mload\n      swap1\n      0x20\n      add\n      swap1\n      dup1\n      dup4\n      dup4\n      0x00\n    tag_41:\n      dup4\n      dup2\n      lt\n      iszero\n      tag_43\n      jumpi\n      dup1\n      dup3\n      add\n      mload\n      dup2\n      dup5\n      add\n      mstore\n      0x20\n      dup2\n      add\n      swap1\n      pop\n      jump(tag_41)\n    tag_43:\n      pop\n      pop\n      pop\n      pop\n      swap1\n      pop\n      swap1\n      dup2\n      add\n      swap1\n      0x1f\n      and\n      dup1\n      iszero\n      tag_44\n      jumpi\n      dup1\n      dup3\n      sub\n      dup1\n      mload\n      0x01\n      dup4\n      0x20\n      sub\n      0x0100\n      exp\n      sub\n      not\n      and\n      dup2\n      mstore\n      0x20\n      add\n      swap2\n      pop\n    tag_44:\n      pop\n      swap3\n      pop\n      pop\n      pop\n      mload(0x40)\n      dup1\n      swap2\n      sub\n      swap1\n      return\n        /* \"contracts/WETH10.sol\":12364:12629  function approve(address spender, uint256 value) external override returns (bool) {\r... */\n    tag_4:\n      callvalue\n      dup1\n      iszero\n      tag_45\n      jumpi\n      0x00\n      dup1\n      revert\n    tag_45:\n      pop\n      tag_46\n      0x04\n      dup1\n      calldatasize\n      sub\n      0x40\n      dup2\n      lt\n      iszero\n      tag_47\n      jumpi\n      0x00\n      dup1\n      revert\n    tag_47:\n      dup2\n      add\n      swap1\n      dup1\n      dup1\n      calldataload\n      0xffffffffffffffffffffffffffffffffffffffff\n      and\n      swap1\n      0x20\n      add\n      swap1\n      swap3\n      swap2\n      swap1\n      dup1\n      calldataload\n      swap1\n      0x20\n      add\n      swap1\n      swap3\n      swap2\n      swap1\n      pop\n      pop\n      pop\n      tag_48\n      jump\t// in\n    tag_46:\n      mload(0x40)\n      dup1\n      dup3\n      iszero\n      iszero\n      dup2\n      mstore\n      0x20\n      add\n      swap2\n      pop\n      pop\n      mload(0x40)\n      dup1\n      swap2\n      sub\n      swap1\n      return\n        /* \"contracts/WETH10.sol\":3306:3431  function totalSupply() external view override returns (uint256) {\r... */\n    tag_5:\n      callvalue\n      dup1\n      iszero\n      tag_49\n      jumpi\n      0x00\n      dup1\n      revert\n    tag_49:\n      pop\n      tag_50\n      tag_51\n      jump\t// in\n    tag_50:\n      mload(0x40)\n      dup1\n      dup3\n      dup2\n      mstore\n      0x20\n      add\n      swap2\n      pop\n      pop\n      mload(0x40)\n      dup1\n      swap2\n      sub\n      swap1\n      return\n        /* \"contracts/WETH10.sol\":10003:10514  function withdrawTo(address payable to, uint256 value) external override {\r... */\n    tag_6:\n      callvalue\n      dup1\n      iszero\n      tag_52\n      jumpi\n      0x00\n      dup1\n      revert\n    tag_52:\n      pop\n      tag_53\n      0x04\n      dup1\n      calldatasize\n      sub\n      0x40\n      dup2\n      lt\n      iszero\n      tag_54\n      jumpi\n      0x00\n      dup1\n      revert\n    tag_54:\n      dup2\n      add\n      swap1\n      dup1\n      dup1\n      calldataload\n      0xffffffffffffffffffffffffffffffffffffffff\n      and\n      swap1\n      0x20\n      add\n      swap1\n      swap3\n      swap2\n      swap1\n      dup1\n      calldataload\n      swap1\n      0x20\n      add\n      swap1\n      swap3\n      swap2\n      swap1\n      pop\n      pop\n      pop\n      tag_55\n      jump\t// in\n    tag_53:\n      stop\n        /* \"contracts/WETH10.sol\":17422:18799  function transferFrom(address from, address to, uint256 value) external override returns (bool) {\r... */\n    tag_7:\n      callvalue\n      dup1\n      iszero\n      tag_56\n      jumpi\n      0x00\n      dup1\n      revert\n    tag_56:\n      pop\n      tag_57\n      0x04\n      dup1\n      calldatasize\n      sub\n      0x60\n      dup2\n      lt\n      iszero\n      tag_58\n      jumpi\n      0x00\n      dup1\n      revert\n    tag_58:\n      dup2\n      add\n      swap1\n      dup1\n      dup1\n      calldataload\n      0xffffffffffffffffffffffffffffffffffffffff\n      and\n      swap1\n      0x20\n      add\n      swap1\n      swap3\n      swap2\n      swap1\n      dup1\n      calldataload\n      0xffffffffffffffffffffffffffffffffffffffff\n      and\n      swap1\n      0x20\n      add\n      swap1\n      swap3\n      swap2\n      swap1\n      dup1\n      calldataload\n      swap1\n      0x20\n      add\n      swap1\n      swap3\n      swap2\n      swap1\n      pop\n      pop\n      pop\n      tag_59\n      jump\t// in\n    tag_57:\n      mload(0x40)\n      dup1\n      dup3\n      iszero\n      iszero\n      dup2\n      mstore\n      0x20\n      add\n      swap2\n      pop\n      pop\n      mload(0x40)\n      dup1\n      swap2\n      sub\n      swap1\n      return\n        /* \"contracts/WETH10.sol\":9173:9678  function withdraw(uint256 value) external override {\r... */\n    tag_8:\n      callvalue\n      dup1\n      iszero\n      tag_60\n      jumpi\n      0x00\n      dup1\n      revert\n    tag_60:\n      pop\n      tag_61\n      0x04\n      dup1\n      calldatasize\n      sub\n      0x20\n      dup2\n      lt\n      iszero\n      tag_62\n      jumpi\n      0x00\n      dup1\n      revert\n    tag_62:\n      dup2\n      add\n      swap1\n      dup1\n      dup1\n      calldataload\n      swap1\n      0x20\n      add\n      swap1\n      swap3\n      swap2\n      swap1\n      pop\n      pop\n      pop\n      tag_63\n      jump\t// in\n    tag_61:\n      stop\n        /* \"contracts/WETH10.sol\":1199:1337  bytes32 public immutable PERMIT_TYPEHASH = keccak256(\"Permit(address owner,address spender,uint256 value,uint256 nonce,uint256 deadline)\") */\n    tag_9:\n      callvalue\n      dup1\n      iszero\n      tag_64\n      jumpi\n      0x00\n      dup1\n      revert\n    tag_64:\n      pop\n      tag_65\n      tag_66\n      jump\t// in\n    tag_65:\n      mload(0x40)\n      dup1\n      dup3\n      dup2\n      mstore\n      0x20\n      add\n      swap2\n      pop\n      pop\n      mload(0x40)\n      dup1\n      swap2\n      sub\n      swap1\n      return\n        /* \"contracts/WETH10.sol\":1036:1072  uint8  public constant decimals = 18 */\n    tag_10:\n      callvalue\n      dup1\n      iszero\n      tag_67\n      jumpi\n      0x00\n      dup1\n      revert\n    tag_67:\n      pop\n      tag_68\n      tag_69\n      jump\t// in\n    tag_68:\n      mload(0x40)\n      dup1\n      dup3\n      0xff\n      and\n      dup2\n      mstore\n      0x20\n      add\n      swap2\n      pop\n      pop\n      mload(0x40)\n      dup1\n      swap2\n      sub\n      swap1\n      return\n        /* \"contracts/WETH10.sol\":2958:3205  function DOMAIN_SEPARATOR() external view override returns (bytes32) {\r... */\n    tag_11:\n      callvalue\n      dup1\n      iszero\n      tag_70\n      jumpi\n      0x00\n      dup1\n      revert\n    tag_70:\n      pop\n      tag_71\n      tag_72\n      jump\t// in\n    tag_71:\n      mload(0x40)\n      dup1\n      dup3\n      dup2\n      mstore\n      0x20\n      add\n      swap2\n      pop\n      pop\n      mload(0x40)\n      dup1\n      swap2\n      sub\n      swap1\n      return\n        /* \"contracts/WETH10.sol\":19405:20394  function transferAndCall(address to, uint value, bytes calldata data) external override returns (bool) {\r... */\n    tag_12:\n      callvalue\n      dup1\n      iszero\n      tag_73\n      jumpi\n      0x00\n      dup1\n      revert\n    tag_73:\n      pop\n      tag_74\n      0x04\n      dup1\n      calldatasize\n      sub\n      0x60\n      dup2\n      lt\n      iszero\n      tag_75\n      jumpi\n      0x00\n      dup1\n      revert\n    tag_75:\n      dup2\n      add\n      swap1\n      dup1\n      dup1\n      calldataload\n      0xffffffffffffffffffffffffffffffffffffffff\n      and\n      swap1\n      0x20\n      add\n      swap1\n      swap3\n      swap2\n      swap1\n      dup1\n      calldataload\n      swap1\n      0x20\n      add\n      swap1\n      swap3\n      swap2\n      swap1\n      dup1\n      calldataload\n      swap1\n      0x20\n      add\n      swap1\n      0x0100000000\n      dup2\n      gt\n      iszero\n      tag_76\n      jumpi\n      0x00\n      dup1\n      revert\n    tag_76:\n      dup3\n      add\n      dup4\n      0x20\n      dup3\n      add\n      gt\n      iszero\n      tag_77\n      jumpi\n      0x00\n      dup1\n      revert\n    tag_77:\n      dup1\n      calldataload\n      swap1\n      0x20\n      add\n      swap2\n      dup5\n      0x01\n      dup4\n      mul\n      dup5\n      add\n      gt\n      0x0100000000\n      dup4\n      gt\n      or\n      iszero\n      tag_78\n      jumpi\n      0x00\n      dup1\n      revert\n    tag_78:\n      swap1\n      swap2\n      swap3\n      swap4\n      swap2\n      swap3\n      swap4\n      swap1\n      pop\n      pop\n      pop\n      tag_79\n      jump\t// in\n    tag_74:\n      mload(0x40)\n      dup1\n      dup3\n      iszero\n      iszero\n      dup2\n      mstore\n      0x20\n      add\n      swap2\n      pop\n      pop\n      mload(0x40)\n      dup1\n      swap2\n      sub\n      swap1\n      return\n        /* \"contracts/WETH10.sol\":6951:8853  function flashLoan(IERC3156FlashBorrower receiver, address token, uint256 value, bytes calldata data) \r... */\n    tag_13:\n      callvalue\n      dup1\n      iszero\n      tag_80\n      jumpi\n      0x00\n      dup1\n      revert\n    tag_80:\n      pop\n      tag_81\n      0x04\n      dup1\n      calldatasize\n      sub\n      0x80\n      dup2\n      lt\n      iszero\n      tag_82\n      jumpi\n      0x00\n      dup1\n      revert\n    tag_82:\n      dup2\n      add\n      swap1\n      dup1\n      dup1\n      calldataload\n      0xffffffffffffffffffffffffffffffffffffffff\n      and\n      swap1\n      0x20\n      add\n      swap1\n      swap3\n      swap2\n      swap1\n      dup1\n      calldataload\n      0xffffffffffffffffffffffffffffffffffffffff\n      and\n      swap1\n      0x20\n      add\n      swap1\n      swap3\n      swap2\n      swap1\n      dup1\n      calldataload\n      swap1\n      0x20\n      add\n      swap1\n      swap3\n      swap2\n      swap1\n      dup1\n      calldataload\n      swap1\n      0x20\n      add\n      swap1\n      0x0100000000\n      dup2\n      gt\n      iszero\n      tag_83\n      jumpi\n      0x00\n      dup1\n      revert\n    tag_83:\n      dup3\n      add\n      dup4\n      0x20\n      dup3\n      add\n      gt\n      iszero\n      tag_84\n      jumpi\n      0x00\n      dup1\n      revert\n    tag_84:\n      dup1\n      calldataload\n      swap1\n      0x20\n      add\n      swap2\n      dup5\n      0x01\n      dup4\n      mul\n      dup5\n      add\n      gt\n      0x0100000000\n      dup4\n      gt\n      or\n      iszero\n      tag_85\n      jumpi\n      0x00\n      dup1\n      revert\n    tag_85:\n      swap1\n      swap2\n      swap3\n      swap4\n      swap2\n      swap3\n      swap4\n      swap1\n      pop\n      pop\n      pop\n      tag_86\n      jump\t// in\n    tag_81:\n      mload(0x40)\n      dup1\n      dup3\n      iszero\n      iszero\n      dup2\n      mstore\n      0x20\n      add\n      swap2\n      pop\n      pop\n      mload(0x40)\n      dup1\n      swap2\n      sub\n      swap1\n      return\n        /* \"contracts/WETH10.sol\":5178:5504  function depositToAndCall(address to, bytes calldata data) external override payable returns (bool success) {\r... */\n    tag_14:\n      tag_87\n      0x04\n      dup1\n      calldatasize\n      sub\n      0x40\n      dup2\n      lt\n      iszero\n      tag_88\n      jumpi\n      0x00\n      dup1\n      revert\n    tag_88:\n      dup2\n      add\n      swap1\n      dup1\n      dup1\n      calldataload\n      0xffffffffffffffffffffffffffffffffffffffff\n      and\n      swap1\n      0x20\n      add\n      swap1\n      swap3\n      swap2\n      swap1\n      dup1\n      calldataload\n      swap1\n      0x20\n      add\n      swap1\n      0x0100000000\n      dup2\n      gt\n      iszero\n      tag_89\n      jumpi\n      0x00\n      dup1\n      revert\n    tag_89:\n      dup3\n      add\n      dup4\n      0x20\n      dup3\n      add\n      gt\n      iszero\n      tag_90\n      jumpi\n      0x00\n      dup1\n      revert\n    tag_90:\n      dup1\n      calldataload\n      swap1\n      0x20\n      add\n      swap2\n      dup5\n      0x01\n      dup4\n      mul\n      dup5\n      add\n      gt\n      0x0100000000\n      dup4\n      gt\n      or\n      iszero\n      tag_91\n      jumpi\n      0x00\n      dup1\n      revert\n    tag_91:\n      swap1\n      swap2\n      swap3\n      swap4\n      swap2\n      swap3\n      swap4\n      swap1\n      pop\n      pop\n      pop\n      tag_92\n      jump\t// in\n    tag_87:\n      mload(0x40)\n      dup1\n      dup3\n      iszero\n      iszero\n      dup2\n      mstore\n      0x20\n      add\n      swap2\n      pop\n      pop\n      mload(0x40)\n      dup1\n      swap2\n      sub\n      swap1\n      return\n        /* \"contracts/WETH10.sol\":5584:5767  function maxFlashLoan(address token) external view override returns (uint256) {\r... */\n    tag_15:\n      callvalue\n      dup1\n      iszero\n      tag_93\n      jumpi\n      0x00\n      dup1\n      revert\n    tag_93:\n      pop\n      tag_94\n      0x04\n      dup1\n      calldatasize\n      sub\n      0x20\n      dup2\n      lt\n      iszero\n      tag_95\n      jumpi\n      0x00\n      dup1\n      revert\n    tag_95:\n      dup2\n      add\n      swap1\n      dup1\n      dup1\n      calldataload\n      0xffffffffffffffffffffffffffffffffffffffff\n      and\n      swap1\n      0x20\n      add\n      swap1\n      swap3\n      swap2\n      swap1\n      pop\n      pop\n      pop\n      tag_96\n      jump\t// in\n    tag_94:\n      mload(0x40)\n      dup1\n      dup3\n      dup2\n      mstore\n      0x20\n      add\n      swap2\n      pop\n      pop\n      mload(0x40)\n      dup1\n      swap2\n      sub\n      swap1\n      return\n        /* \"contracts/WETH10.sol\":1508:1562  mapping (address => uint256) public override balanceOf */\n    tag_16:\n      callvalue\n      dup1\n      iszero\n      tag_97\n      jumpi\n      0x00\n      dup1\n      revert\n    tag_97:\n      pop\n      tag_98\n      0x04\n      dup1\n      calldatasize\n      sub\n      0x20\n      dup2\n      lt\n      iszero\n      tag_99\n      jumpi\n      0x00\n      dup1\n      revert\n    tag_99:\n      dup2\n      add\n      swap1\n      dup1\n      dup1\n      calldataload\n      0xffffffffffffffffffffffffffffffffffffffff\n      and\n      swap1\n      0x20\n      add\n      swap1\n      swap3\n      swap2\n      swap1\n      pop\n      pop\n      pop\n      tag_100\n      jump\t// in\n    tag_98:\n      mload(0x40)\n      dup1\n      dup3\n      dup2\n      mstore\n      0x20\n      add\n      swap2\n      pop\n      pop\n      mload(0x40)\n      dup1\n      swap2\n      sub\n      swap1\n      return\n        /* \"contracts/WETH10.sol\":1835:1886  mapping (address => uint256) public override nonces */\n    tag_17:\n      callvalue\n      dup1\n      iszero\n      tag_101\n      jumpi\n      0x00\n      dup1\n      revert\n    tag_101:\n      pop\n      tag_102\n      0x04\n      dup1\n      calldatasize\n      sub\n      0x20\n      dup2\n      lt\n      iszero\n      tag_103\n      jumpi\n      0x00\n      dup1\n      revert\n    tag_103:\n      dup2\n      add\n      swap1\n      dup1\n      dup1\n      calldataload\n      0xffffffffffffffffffffffffffffffffffffffff\n      and\n      swap1\n      0x20\n      add\n      swap1\n      swap3\n      swap2\n      swap1\n      pop\n      pop\n      pop\n      tag_104\n      jump\t// in\n    tag_102:\n      mload(0x40)\n      dup1\n      dup3\n      dup2\n      mstore\n      0x20\n      add\n      swap2\n      pop\n      pop\n      mload(0x40)\n      dup1\n      swap2\n      sub\n      swap1\n      return\n        /* \"contracts/WETH10.sol\":1103:1192  bytes32 public immutable CALLBACK_SUCCESS = keccak256(\"ERC3156FlashBorrower.onFlashLoan\") */\n    tag_18:\n      callvalue\n      dup1\n      iszero\n      tag_105\n      jumpi\n      0x00\n      dup1\n      revert\n    tag_105:\n      pop\n      tag_106\n      tag_107\n      jump\t// in\n    tag_106:\n      mload(0x40)\n      dup1\n      dup3\n      dup2\n      mstore\n      0x20\n      add\n      swap2\n      pop\n      pop\n      mload(0x40)\n      dup1\n      swap2\n      sub\n      swap1\n      return\n        /* \"contracts/WETH10.sol\":2191:2226  uint256 public override flashMinted */\n    tag_19:\n      callvalue\n      dup1\n      iszero\n      tag_108\n      jumpi\n      0x00\n      dup1\n      revert\n    tag_108:\n      pop\n      tag_109\n      tag_110\n      jump\t// in\n    tag_109:\n      mload(0x40)\n      dup1\n      dup3\n      dup2\n      mstore\n      0x20\n      add\n      swap2\n      pop\n      pop\n      mload(0x40)\n      dup1\n      swap2\n      sub\n      swap1\n      return\n        /* \"contracts/WETH10.sol\":11163:12155  function withdrawFrom(address from, address payable to, uint256 value) external override {\r... */\n    tag_20:\n      callvalue\n      dup1\n      iszero\n      tag_111\n      jumpi\n      0x00\n      dup1\n      revert\n    tag_111:\n      pop\n      tag_112\n      0x04\n      dup1\n      calldatasize\n      sub\n      0x60\n      dup2\n      lt\n      iszero\n      tag_113\n      jumpi\n      0x00\n      dup1\n      revert\n    tag_113:\n      dup2\n      add\n      swap1\n      dup1\n      dup1\n      calldataload\n      0xffffffffffffffffffffffffffffffffffffffff\n      and\n      swap1\n      0x20\n      add\n      swap1\n      swap3\n      swap2\n      swap1\n      dup1\n      calldataload\n      0xffffffffffffffffffffffffffffffffffffffff\n      and\n      swap1\n      0x20\n      add\n      swap1\n      swap3\n      swap2\n      swap1\n      dup1\n      calldataload\n      swap1\n      0x20\n      add\n      swap1\n      swap3\n      swap2\n      swap1\n      pop\n      pop\n      pop\n      tag_114\n      jump\t// in\n    tag_112:\n      stop\n        /* \"contracts/WETH10.sol\":989:1029  string public constant symbol = \"WETH10\" */\n    tag_21:\n      callvalue\n      dup1\n      iszero\n      tag_115\n      jumpi\n      0x00\n      dup1\n      revert\n    tag_115:\n      pop\n      tag_116\n      tag_117\n      jump\t// in\n    tag_116:\n      mload(0x40)\n      dup1\n      dup1\n      0x20\n      add\n      dup3\n      dup2\n      sub\n      dup3\n      mstore\n      dup4\n      dup2\n      dup2\n      mload\n      dup2\n      mstore\n      0x20\n      add\n      swap2\n      pop\n      dup1\n      mload\n      swap1\n      0x20\n      add\n      swap1\n      dup1\n      dup4\n      dup4\n      0x00\n    tag_118:\n      dup4\n      dup2\n      lt\n      iszero\n      tag_120\n      jumpi\n      dup1\n      dup3\n      add\n      mload\n      dup2\n      dup5\n      add\n      mstore\n      0x20\n      dup2\n      add\n      swap1\n      pop\n      jump(tag_118)\n    tag_120:\n      pop\n      pop\n      pop\n      pop\n      swap1\n      pop\n      swap1\n      dup2\n      add\n      swap1\n      0x1f\n      and\n      dup1\n      iszero\n      tag_121\n      jumpi\n      dup1\n      dup3\n      sub\n      dup1\n      mload\n      0x01\n      dup4\n      0x20\n      sub\n      0x0100\n      exp\n      sub\n      not\n      and\n      dup2\n      mstore\n      0x20\n      add\n      swap2\n      pop\n    tag_121:\n      pop\n      swap3\n      pop\n      pop\n      pop\n      mload(0x40)\n      dup1\n      swap2\n      sub\n      swap1\n      return\n        /* \"contracts/WETH10.sol\":15647:16565  function transfer(address to, uint256 value) external override returns (bool) {\r... */\n    tag_22:\n      callvalue\n      dup1\n      iszero\n      tag_122\n      jumpi\n      0x00\n      dup1\n      revert\n    tag_122:\n      pop\n      tag_123\n      0x04\n      dup1\n      calldatasize\n      sub\n      0x40\n      dup2\n      lt\n      iszero\n      tag_124\n      jumpi\n      0x00\n      dup1\n      revert\n    tag_124:\n      dup2\n      add\n      swap1\n      dup1\n      dup1\n      calldataload\n      0xffffffffffffffffffffffffffffffffffffffff\n      and\n      swap1\n      0x20\n      add\n      swap1\n      swap3\n      swap2\n      swap1\n      dup1\n      calldataload\n      swap1\n      0x20\n      add\n      swap1\n      swap3\n      swap2\n      swap1\n      pop\n      pop\n      pop\n      tag_125\n      jump\t// in\n    tag_123:\n      mload(0x40)\n      dup1\n      dup3\n      iszero\n      iszero\n      dup2\n      mstore\n      0x20\n      add\n      swap2\n      pop\n      pop\n      mload(0x40)\n      dup1\n      swap2\n      sub\n      swap1\n      return\n        /* \"contracts/WETH10.sol\":4550:4739  function depositTo(address to) external override payable {\r... */\n    tag_23:\n      tag_126\n      0x04\n      dup1\n      calldatasize\n      sub\n      0x20\n      dup2\n      lt\n      iszero\n      tag_127\n      jumpi\n      0x00\n      dup1\n      revert\n    tag_127:\n      dup2\n      add\n      swap1\n      dup1\n      dup1\n      calldataload\n      0xffffffffffffffffffffffffffffffffffffffff\n      and\n      swap1\n      0x20\n      add\n      swap1\n      swap3\n      swap2\n      swap1\n      pop\n      pop\n      pop\n      tag_128\n      jump\t// in\n    tag_126:\n      stop\n        /* \"contracts/WETH10.sol\":13044:13408  function approveAndCall(address spender, uint256 value, bytes calldata data) external override returns (bool) {\r... */\n    tag_24:\n      callvalue\n      dup1\n      iszero\n      tag_129\n      jumpi\n      0x00\n      dup1\n      revert\n    tag_129:\n      pop\n      tag_130\n      0x04\n      dup1\n      calldatasize\n      sub\n      0x60\n      dup2\n      lt\n      iszero\n      tag_131\n      jumpi\n      0x00\n      dup1\n      revert\n    tag_131:\n      dup2\n      add\n      swap1\n      dup1\n      dup1\n      calldataload\n      0xffffffffffffffffffffffffffffffffffffffff\n      and\n      swap1\n      0x20\n      add\n      swap1\n      swap3\n      swap2\n      swap1\n      dup1\n      calldataload\n      swap1\n      0x20\n      add\n      swap1\n      swap3\n      swap2\n      swap1\n      dup1\n      calldataload\n      swap1\n      0x20\n      add\n      swap1\n      0x0100000000\n      dup2\n      gt\n      iszero\n      tag_132\n      jumpi\n      0x00\n      dup1\n      revert\n    tag_132:\n      dup3\n      add\n      dup4\n      0x20\n      dup3\n      add\n      gt\n      iszero\n      tag_133\n      jumpi\n      0x00\n      dup1\n      revert\n    tag_133:\n      dup1\n      calldataload\n      swap1\n      0x20\n      add\n      swap2\n      dup5\n      0x01\n      dup4\n      mul\n      dup5\n      add\n      gt\n      0x0100000000\n      dup4\n      gt\n      or\n      iszero\n      tag_134\n      jumpi\n      0x00\n      dup1\n      revert\n    tag_134:\n      swap1\n      swap2\n      swap3\n      swap4\n      swap2\n      swap3\n      swap4\n      swap1\n      pop\n      pop\n      pop\n      tag_135\n      jump\t// in\n    tag_130:\n      mload(0x40)\n      dup1\n      dup3\n      iszero\n      iszero\n      dup2\n      mstore\n      0x20\n      add\n      swap2\n      pop\n      pop\n      mload(0x40)\n      dup1\n      swap2\n      sub\n      swap1\n      return\n        /* \"contracts/WETH10.sol\":1344:1386  uint256 public immutable deploymentChainId */\n    tag_25:\n      callvalue\n      dup1\n      iszero\n      tag_136\n      jumpi\n      0x00\n      dup1\n      revert\n    tag_136:\n      pop\n      tag_137\n      tag_138\n      jump\t// in\n    tag_137:\n      mload(0x40)\n      dup1\n      dup3\n      dup2\n      mstore\n      0x20\n      add\n      swap2\n      pop\n      pop\n      mload(0x40)\n      dup1\n      swap2\n      sub\n      swap1\n      return\n        /* \"contracts/WETH10.sol\":4110:4311  function deposit() external override payable {\r... */\n    tag_26:\n      tag_139\n      tag_140\n      jump\t// in\n    tag_139:\n      stop\n        /* \"contracts/WETH10.sol\":14225:15249  function permit(address owner, address spender, uint256 value, uint256 deadline, uint8 v, bytes32 r, bytes32 s) external override {\r... */\n    tag_27:\n      callvalue\n      dup1\n      iszero\n      tag_141\n      jumpi\n      0x00\n      dup1\n      revert\n    tag_141:\n      pop\n      tag_142\n      0x04\n      dup1\n      calldatasize\n      sub\n      0xe0\n      dup2\n      lt\n      iszero\n      tag_143\n      jumpi\n      0x00\n      dup1\n      revert\n    tag_143:\n      dup2\n      add\n      swap1\n      dup1\n      dup1\n      calldataload\n      0xffffffffffffffffffffffffffffffffffffffff\n      and\n      swap1\n      0x20\n      add\n      swap1\n      swap3\n      swap2\n      swap1\n      dup1\n      calldataload\n      0xffffffffffffffffffffffffffffffffffffffff\n      and\n      swap1\n      0x20\n      add\n      swap1\n      swap3\n      swap2\n      swap1\n      dup1\n      calldataload\n      swap1\n      0x20\n      add\n      swap1\n      swap3\n      swap2\n      swap1\n      dup1\n      calldataload\n      swap1\n      0x20\n      add\n      swap1\n      swap3\n      swap2\n      swap1\n      dup1\n      calldataload\n      0xff\n      and\n      swap1\n      0x20\n      add\n      swap1\n      swap3\n      swap2\n      swap1\n      dup1\n      calldataload\n      swap1\n      0x20\n      add\n      swap1\n      swap3\n      swap2\n      swap1\n      dup1\n      calldataload\n      swap1\n      0x20\n      add\n      swap1\n      swap3\n      swap2\n      swap1\n      pop\n      pop\n      pop\n      tag_144\n      jump\t// in\n    tag_142:\n      stop\n        /* \"contracts/WETH10.sol\":5856:6040  function flashFee(address token, uint256) external view override returns (uint256) {\r... */\n    tag_28:\n      callvalue\n      dup1\n      iszero\n      tag_145\n      jumpi\n      0x00\n      dup1\n      revert\n    tag_145:\n      pop\n      tag_146\n      0x04\n      dup1\n      calldatasize\n      sub\n      0x40\n      dup2\n      lt\n      iszero\n      tag_147\n      jumpi\n      0x00\n      dup1\n      revert\n    tag_147:\n      dup2\n      add\n      swap1\n      dup1\n      dup1\n      calldataload\n      0xffffffffffffffffffffffffffffffffffffffff\n      and\n      swap1\n      0x20\n      add\n      swap1\n      swap3\n      swap2\n      swap1\n      dup1\n      calldataload\n      swap1\n      0x20\n      add\n      swap1\n      swap3\n      swap2\n      swap1\n      pop\n      pop\n      pop\n      tag_148\n      jump\t// in\n    tag_146:\n      mload(0x40)\n      dup1\n      dup3\n      dup2\n      mstore\n      0x20\n      add\n      swap2\n      pop\n      pop\n      mload(0x40)\n      dup1\n      swap2\n      sub\n      swap1\n      return\n        /* \"contracts/WETH10.sol\":2048:2123  mapping (address => mapping (address => uint256)) public override allowance */\n    tag_29:\n      callvalue\n      dup1\n      iszero\n      tag_149\n      jumpi\n      0x00\n      dup1\n      revert\n    tag_149:\n      pop\n      tag_150\n      0x04\n      dup1\n      calldatasize\n      sub\n      0x40\n      dup2\n      lt\n      iszero\n      tag_151\n      jumpi\n      0x00\n      dup1\n      revert\n    tag_151:\n      dup2\n      add\n      swap1\n      dup1\n      dup1\n      calldataload\n      0xffffffffffffffffffffffffffffffffffffffff\n      and\n      swap1\n      0x20\n      add\n      swap1\n      swap3\n      swap2\n      swap1\n      dup1\n      calldataload\n      0xffffffffffffffffffffffffffffffffffffffff\n      and\n      swap1\n      0x20\n      add\n      swap1\n      swap3\n      swap2\n      swap1\n      pop\n      pop\n      pop\n      tag_152\n      jump\t// in\n    tag_150:\n      mload(0x40)\n      dup1\n      dup3\n      dup2\n      mstore\n      0x20\n      add\n      swap2\n      pop\n      pop\n      mload(0x40)\n      dup1\n      swap2\n      sub\n      swap1\n      return\n        /* \"contracts/WETH10.sol\":933:982  string public constant name = \"Wrapped Ether v10\" */\n    tag_40:\n      mload(0x40)\n      dup1\n      0x40\n      add\n      0x40\n      mstore\n      dup1\n      0x11\n      dup2\n      mstore\n      0x20\n      add\n      0x5772617070656420457468657220763130000000000000000000000000000000\n      dup2\n      mstore\n      pop\n      dup2\n      jump\t// out\n        /* \"contracts/WETH10.sol\":12364:12629  function approve(address spender, uint256 value) external override returns (bool) {\r... */\n    tag_48:\n        /* \"contracts/WETH10.sol\":12440:12444  bool */\n      0x00\n        /* \"contracts/WETH10.sol\":12540:12545  value */\n      dup2\n        /* \"contracts/WETH10.sol\":12507:12516  allowance */\n      0x02\n        /* \"contracts/WETH10.sol\":12507:12528  allowance[msg.sender] */\n      0x00\n        /* \"contracts/WETH10.sol\":12517:12527  msg.sender */\n      caller\n        /* \"contracts/WETH10.sol\":12507:12528  allowance[msg.sender] */\n      0xffffffffffffffffffffffffffffffffffffffff\n      and\n      0xffffffffffffffffffffffffffffffffffffffff\n      and\n      dup2\n      mstore\n      0x20\n      add\n      swap1\n      dup2\n      mstore\n      0x20\n      add\n      0x00\n      keccak256\n        /* \"contracts/WETH10.sol\":12507:12537  allowance[msg.sender][spender] */\n      0x00\n        /* \"contracts/WETH10.sol\":12529:12536  spender */\n      dup6\n        /* \"contracts/WETH10.sol\":12507:12537  allowance[msg.sender][spender] */\n      0xffffffffffffffffffffffffffffffffffffffff\n      and\n      0xffffffffffffffffffffffffffffffffffffffff\n      and\n      dup2\n      mstore\n      0x20\n      add\n      swap1\n      dup2\n      mstore\n      0x20\n      add\n      0x00\n      keccak256\n        /* \"contracts/WETH10.sol\":12507:12545  allowance[msg.sender][spender] = value */\n      dup2\n      swap1\n      sstore\n      pop\n        /* \"contracts/WETH10.sol\":12582:12589  spender */\n      dup3\n        /* \"contracts/WETH10.sol\":12561:12597  Approval(msg.sender, spender, value) */\n      0xffffffffffffffffffffffffffffffffffffffff\n      and\n        /* \"contracts/WETH10.sol\":12570:12580  msg.sender */\n      caller\n        /* \"contracts/WETH10.sol\":12561:12597  Approval(msg.sender, spender, value) */\n      0xffffffffffffffffffffffffffffffffffffffff\n      and\n      0x8c5be1e5ebec7d5bd14f71427d1e84f3dd0314c0f7b2291e5b200ac8c7c3b925\n        /* \"contracts/WETH10.sol\":12591:12596  value */\n      dup5\n        /* \"contracts/WETH10.sol\":12561:12597  Approval(msg.sender, spender, value) */\n      mload(0x40)\n      dup1\n      dup3\n      dup2\n      mstore\n      0x20\n      add\n      swap2\n      pop\n      pop\n      mload(0x40)\n      dup1\n      swap2\n      sub\n      swap1\n      log3\n        /* \"contracts/WETH10.sol\":12617:12621  true */\n      0x01\n        /* \"contracts/WETH10.sol\":12610:12621  return true */\n      swap1\n      pop\n        /* \"contracts/WETH10.sol\":12364:12629  function approve(address spender, uint256 value) external override returns (bool) {\r... */\n      swap3\n      swap2\n      pop\n      pop\n      jump\t// out\n        /* \"contracts/WETH10.sol\":3306:3431  function totalSupply() external view override returns (uint256) {\r... */\n    tag_51:\n        /* \"contracts/WETH10.sol\":3361:3368  uint256 */\n      0x00\n        /* \"contracts/WETH10.sol\":3412:3423  flashMinted */\n      sload(0x03)\n        /* \"contracts/WETH10.sol\":3388:3409  address(this).balance */\n      selfbalance\n        /* \"contracts/WETH10.sol\":3388:3423  address(this).balance + flashMinted */\n      add\n        /* \"contracts/WETH10.sol\":3381:3423  return address(this).balance + flashMinted */\n      swap1\n      pop\n        /* \"contracts/WETH10.sol\":3306:3431  function totalSupply() external view override returns (uint256) {\r... */\n      swap1\n      jump\t// out\n        /* \"contracts/WETH10.sol\":10003:10514  function withdrawTo(address payable to, uint256 value) external override {\r... */\n    tag_55:\n        /* \"contracts/WETH10.sol\":10129:10144  uint256 balance */\n      0x00\n        /* \"contracts/WETH10.sol\":10147:10156  balanceOf */\n      dup1\n        /* \"contracts/WETH10.sol\":10147:10168  balanceOf[msg.sender] */\n      0x00\n        /* \"contracts/WETH10.sol\":10157:10167  msg.sender */\n      caller\n        /* \"contracts/WETH10.sol\":10147:10168  balanceOf[msg.sender] */\n      0xffffffffffffffffffffffffffffffffffffffff\n      and\n      0xffffffffffffffffffffffffffffffffffffffff\n      and\n      dup2\n      mstore\n      0x20\n      add\n      swap1\n      dup2\n      mstore\n      0x20\n      add\n      0x00\n      keccak256\n      sload\n        /* \"contracts/WETH10.sol\":10129:10168  uint256 balance = balanceOf[msg.sender] */\n      swap1\n      pop\n        /* \"contracts/WETH10.sol\":10198:10203  value */\n      dup2\n        /* \"contracts/WETH10.sol\":10187:10194  balance */\n      dup2\n        /* \"contracts/WETH10.sol\":10187:10203  balance >= value */\n      lt\n      iszero\n        /* \"contracts/WETH10.sol\":10179:10241  require(balance >= value, \"WETH: burn amount exceeds balance\") */\n      tag_156\n      jumpi\n      mload(0x40)\n      0x08c379a000000000000000000000000000000000000000000000000000000000\n      dup2\n      mstore\n      0x04\n      add\n      dup1\n      dup1\n      0x20\n      add\n      dup3\n      dup2\n      sub\n      dup3\n      mstore\n      0x21\n      dup2\n      mstore\n      0x20\n      add\n      dup1\n      data_e0a0905d916284ada246e39c08708cc92c829e81715f2d58402cb8d8e6454242\n      0x21\n      swap2\n      codecopy\n      0x40\n      add\n      swap2\n      pop\n      pop\n      mload(0x40)\n      dup1\n      swap2\n      sub\n      swap1\n      revert\n    tag_156:\n        /* \"contracts/WETH10.sol\":10286:10291  value */\n      dup2\n        /* \"contracts/WETH10.sol\":10276:10283  balance */\n      dup2\n        /* \"contracts/WETH10.sol\":10276:10291  balance - value */\n      sub\n        /* \"contracts/WETH10.sol\":10252:10261  balanceOf */\n      0x00\n        /* \"contracts/WETH10.sol\":10252:10273  balanceOf[msg.sender] */\n      dup1\n        /* \"contracts/WETH10.sol\":10262:10272  msg.sender */\n      caller\n        /* \"contracts/WETH10.sol\":10252:10273  balanceOf[msg.sender] */\n      0xffffffffffffffffffffffffffffffffffffffff\n      and\n      0xffffffffffffffffffffffffffffffffffffffff\n      and\n      dup2\n      mstore\n      0x20\n      add\n      swap1\n      dup2\n      mstore\n      0x20\n      add\n      0x00\n      keccak256\n        /* \"contracts/WETH10.sol\":10252:10291  balanceOf[msg.sender] = balance - value */\n      dup2\n      swap1\n      sstore\n      pop\n        /* \"contracts/WETH10.sol\":10336:10337  0 */\n      0x00\n        /* \"contracts/WETH10.sol\":10307:10346  Transfer(msg.sender, address(0), value) */\n      0xffffffffffffffffffffffffffffffffffffffff\n      and\n        /* \"contracts/WETH10.sol\":10316:10326  msg.sender */\n      caller\n        /* \"contracts/WETH10.sol\":10307:10346  Transfer(msg.sender, address(0), value) */\n      0xffffffffffffffffffffffffffffffffffffffff\n      and\n      0xddf252ad1be2c89b69c2b068fc378daa952ba7f163c4a11628f55a4df523b3ef\n        /* \"contracts/WETH10.sol\":10340:10345  value */\n      dup5\n        /* \"contracts/WETH10.sol\":10307:10346  Transfer(msg.sender, address(0), value) */\n      mload(0x40)\n      dup1\n      dup3\n      dup2\n      mstore\n      0x20\n      add\n      swap2\n      pop\n      pop\n      mload(0x40)\n      dup1\n      swap2\n      sub\n      swap1\n      log3\n        /* \"contracts/WETH10.sol\":10407:10419  bool success */\n      0x00\n        /* \"contracts/WETH10.sol\":10425:10427  to */\n      dup4\n        /* \"contracts/WETH10.sol\":10425:10432  to.call */\n      0xffffffffffffffffffffffffffffffffffffffff\n      and\n        /* \"contracts/WETH10.sol\":10440:10445  value */\n      dup4\n        /* \"contracts/WETH10.sol\":10425:10450  to.call{value: value}(\"\") */\n      mload(0x40)\n      dup1\n      0x00\n      add\n      swap1\n      pop\n      0x00\n      mload(0x40)\n      dup1\n      dup4\n      sub\n      dup2\n      dup6\n      dup8\n      gas\n      call\n      swap3\n      pop\n      pop\n      pop\n      returndatasize\n      dup1\n      0x00\n      dup2\n      eq\n      tag_159\n      jumpi\n      mload(0x40)\n      swap2\n      pop\n      and(add(returndatasize, 0x3f), not(0x1f))\n      dup3\n      add\n      0x40\n      mstore\n      returndatasize\n      dup3\n      mstore\n      returndatasize\n      0x00\n      0x20\n      dup5\n      add\n      returndatacopy\n      jump(tag_158)\n    tag_159:\n      0x60\n      swap2\n      pop\n    tag_158:\n      pop\n        /* \"contracts/WETH10.sol\":10406:10450  (bool success, ) = to.call{value: value}(\"\") */\n      pop\n      swap1\n      pop\n        /* \"contracts/WETH10.sol\":10469:10476  success */\n      dup1\n        /* \"contracts/WETH10.sol\":10461:10506  require(success, \"WETH: ETH transfer failed\") */\n      tag_160\n      jumpi\n      mload(0x40)\n      0x08c379a000000000000000000000000000000000000000000000000000000000\n      dup2\n      mstore\n      0x04\n      add\n      dup1\n      dup1\n      0x20\n      add\n      dup3\n      dup2\n      sub\n      dup3\n      mstore\n      0x19\n      dup2\n      mstore\n      0x20\n      add\n      dup1\n      0x574554483a20455448207472616e73666572206661696c656400000000000000\n      dup2\n      mstore\n      pop\n      0x20\n      add\n      swap2\n      pop\n      pop\n      mload(0x40)\n      dup1\n      swap2\n      sub\n      swap1\n      revert\n    tag_160:\n        /* \"contracts/WETH10.sol\":10003:10514  function withdrawTo(address payable to, uint256 value) external override {\r... */\n      pop\n      pop\n      pop\n      pop\n      jump\t// out\n        /* \"contracts/WETH10.sol\":17422:18799  function transferFrom(address from, address to, uint256 value) external override returns (bool) {\r... */\n    tag_59:\n        /* \"contracts/WETH10.sol\":17512:17516  bool */\n      0x00\n        /* \"contracts/WETH10.sol\":17541:17551  msg.sender */\n      caller\n        /* \"contracts/WETH10.sol\":17533:17551  from != msg.sender */\n      0xffffffffffffffffffffffffffffffffffffffff\n      and\n        /* \"contracts/WETH10.sol\":17533:17537  from */\n      dup5\n        /* \"contracts/WETH10.sol\":17533:17551  from != msg.sender */\n      0xffffffffffffffffffffffffffffffffffffffff\n      and\n      eq\n        /* \"contracts/WETH10.sol\":17529:17996  if (from != msg.sender) {\r... */\n      tag_162\n      jumpi\n        /* \"contracts/WETH10.sol\":17629:17644  uint256 allowed */\n      0x00\n        /* \"contracts/WETH10.sol\":17647:17656  allowance */\n      0x02\n        /* \"contracts/WETH10.sol\":17647:17662  allowance[from] */\n      0x00\n        /* \"contracts/WETH10.sol\":17657:17661  from */\n      dup7\n        /* \"contracts/WETH10.sol\":17647:17662  allowance[from] */\n      0xffffffffffffffffffffffffffffffffffffffff\n      and\n      0xffffffffffffffffffffffffffffffffffffffff\n      and\n      dup2\n      mstore\n      0x20\n      add\n      swap1\n      dup2\n      mstore\n      0x20\n      add\n      0x00\n      keccak256\n        /* \"contracts/WETH10.sol\":17647:17674  allowance[from][msg.sender] */\n      0x00\n        /* \"contracts/WETH10.sol\":17663:17673  msg.sender */\n      caller\n        /* \"contracts/WETH10.sol\":17647:17674  allowance[from][msg.sender] */\n      0xffffffffffffffffffffffffffffffffffffffff\n      and\n      0xffffffffffffffffffffffffffffffffffffffff\n      and\n      dup2\n      mstore\n      0x20\n      add\n      swap1\n      dup2\n      mstore\n      0x20\n      add\n      0x00\n      keccak256\n      sload\n        /* \"contracts/WETH10.sol\":17629:17674  uint256 allowed = allowance[from][msg.sender] */\n      swap1\n      pop\n        /* \"contracts/WETH10.sol\":17704:17721  type(uint256).max */\n      0xffffffffffffffffffffffffffffffffffffffffffffffffffffffffffffffff\n        /* \"contracts/WETH10.sol\":17693:17700  allowed */\n      dup2\n        /* \"contracts/WETH10.sol\":17693:17721  allowed != type(uint256).max */\n      eq\n        /* \"contracts/WETH10.sol\":17689:17985  if (allowed != type(uint256).max) {\r... */\n      tag_163\n      jumpi\n        /* \"contracts/WETH10.sol\":17761:17766  value */\n      dup3\n        /* \"contracts/WETH10.sol\":17750:17757  allowed */\n      dup2\n        /* \"contracts/WETH10.sol\":17750:17766  allowed >= value */\n      lt\n      iszero\n        /* \"contracts/WETH10.sol\":17742:17802  require(allowed >= value, \"WETH: request exceeds allowance\") */\n      tag_164\n      jumpi\n      mload(0x40)\n      0x08c379a000000000000000000000000000000000000000000000000000000000\n      dup2\n      mstore\n      0x04\n      add\n      dup1\n      dup1\n      0x20\n      add\n      dup3\n      dup2\n      sub\n      dup3\n      mstore\n      0x1f\n      dup2\n      mstore\n      0x20\n      add\n      dup1\n      0x574554483a2072657175657374206578636565647320616c6c6f77616e636500\n      dup2\n      mstore\n      pop\n      0x20\n      add\n      swap2\n      pop\n      pop\n      mload(0x40)\n      dup1\n      swap2\n      sub\n      swap1\n      revert\n    tag_164:\n        /* \"contracts/WETH10.sol\":17821:17836  uint256 reduced */\n      0x00\n        /* \"contracts/WETH10.sol\":17849:17854  value */\n      dup4\n        /* \"contracts/WETH10.sol\":17839:17846  allowed */\n      dup3\n        /* \"contracts/WETH10.sol\":17839:17854  allowed - value */\n      sub\n        /* \"contracts/WETH10.sol\":17821:17854  uint256 reduced = allowed - value */\n      swap1\n      pop\n        /* \"contracts/WETH10.sol\":17903:17910  reduced */\n      dup1\n        /* \"contracts/WETH10.sol\":17873:17882  allowance */\n      0x02\n        /* \"contracts/WETH10.sol\":17873:17888  allowance[from] */\n      0x00\n        /* \"contracts/WETH10.sol\":17883:17887  from */\n      dup9\n        /* \"contracts/WETH10.sol\":17873:17888  allowance[from] */\n      0xffffffffffffffffffffffffffffffffffffffff\n      and\n      0xffffffffffffffffffffffffffffffffffffffff\n      and\n      dup2\n      mstore\n      0x20\n      add\n      swap1\n      dup2\n      mstore\n      0x20\n      add\n      0x00\n      keccak256\n        /* \"contracts/WETH10.sol\":17873:17900  allowance[from][msg.sender] */\n      0x00\n        /* \"contracts/WETH10.sol\":17889:17899  msg.sender */\n      caller\n        /* \"contracts/WETH10.sol\":17873:17900  allowance[from][msg.sender] */\n      0xffffffffffffffffffffffffffffffffffffffff\n      and\n      0xffffffffffffffffffffffffffffffffffffffff\n      and\n      dup2\n      mstore\n      0x20\n      add\n      swap1\n      dup2\n      mstore\n      0x20\n      add\n      0x00\n      keccak256\n        /* \"contracts/WETH10.sol\":17873:17910  allowance[from][msg.sender] = reduced */\n      dup2\n      swap1\n      sstore\n      pop\n        /* \"contracts/WETH10.sol\":17949:17959  msg.sender */\n      caller\n        /* \"contracts/WETH10.sol\":17934:17969  Approval(from, msg.sender, reduced) */\n      0xffffffffffffffffffffffffffffffffffffffff\n      and\n        /* \"contracts/WETH10.sol\":17943:17947  from */\n      dup7\n        /* \"contracts/WETH10.sol\":17934:17969  Approval(from, msg.sender, reduced) */\n      0xffffffffffffffffffffffffffffffffffffffff\n      and\n      0x8c5be1e5ebec7d5bd14f71427d1e84f3dd0314c0f7b2291e5b200ac8c7c3b925\n        /* \"contracts/WETH10.sol\":17961:17968  reduced */\n      dup4\n        /* \"contracts/WETH10.sol\":17934:17969  Approval(from, msg.sender, reduced) */\n      mload(0x40)\n      dup1\n      dup3\n      dup2\n      mstore\n      0x20\n      add\n      swap2\n      pop\n      pop\n      mload(0x40)\n      dup1\n      swap2\n      sub\n      swap1\n      log3\n        /* \"contracts/WETH10.sol\":17689:17985  if (allowed != type(uint256).max) {\r... */\n      pop\n    tag_163:\n        /* \"contracts/WETH10.sol\":17529:17996  if (from != msg.sender) {\r... */\n      pop\n    tag_162:\n        /* \"contracts/WETH10.sol\":18078:18079  0 */\n      0x00\n        /* \"contracts/WETH10.sol\":18064:18080  to != address(0) */\n      0xffffffffffffffffffffffffffffffffffffffff\n      and\n        /* \"contracts/WETH10.sol\":18064:18066  to */\n      dup4\n        /* \"contracts/WETH10.sol\":18064:18080  to != address(0) */\n      0xffffffffffffffffffffffffffffffffffffffff\n      and\n      eq\n        /* \"contracts/WETH10.sol\":18060:18760  if (to != address(0)) { // Transfer\r... */\n      tag_165\n      jumpi\n        /* \"contracts/WETH10.sol\":18109:18124  uint256 balance */\n      0x00\n        /* \"contracts/WETH10.sol\":18127:18136  balanceOf */\n      dup1\n        /* \"contracts/WETH10.sol\":18127:18142  balanceOf[from] */\n      0x00\n        /* \"contracts/WETH10.sol\":18137:18141  from */\n      dup7\n        /* \"contracts/WETH10.sol\":18127:18142  balanceOf[from] */\n      0xffffffffffffffffffffffffffffffffffffffff\n      and\n      0xffffffffffffffffffffffffffffffffffffffff\n      and\n      dup2\n      mstore\n      0x20\n      add\n      swap1\n      dup2\n      mstore\n      0x20\n      add\n      0x00\n      keccak256\n      sload\n        /* \"contracts/WETH10.sol\":18109:18142  uint256 balance = balanceOf[from] */\n      swap1\n      pop\n        /* \"contracts/WETH10.sol\":18176:18181  value */\n      dup3\n        /* \"contracts/WETH10.sol\":18165:18172  balance */\n      dup2\n        /* \"contracts/WETH10.sol\":18165:18181  balance >= value */\n      lt\n      iszero\n        /* \"contracts/WETH10.sol\":18157:18223  require(balance >= value, \"WETH: transfer amount exceeds balance\") */\n      tag_166\n      jumpi\n      mload(0x40)\n      0x08c379a000000000000000000000000000000000000000000000000000000000\n      dup2\n      mstore\n      0x04\n      add\n      dup1\n      dup1\n      0x20\n      add\n      dup3\n      dup2\n      sub\n      dup3\n      mstore\n      0x25\n      dup2\n      mstore\n      0x20\n      add\n      dup1\n      data_391bd9858d691b2fb04b43168eb6c31973f0951c8dda7fcdcf0232f5206b45da\n      0x25\n      swap2\n      codecopy\n      0x40\n      add\n      swap2\n      pop\n      pop\n      mload(0x40)\n      dup1\n      swap2\n      sub\n      swap1\n      revert\n    tag_166:\n        /* \"contracts/WETH10.sol\":18268:18273  value */\n      dup3\n        /* \"contracts/WETH10.sol\":18258:18265  balance */\n      dup2\n        /* \"contracts/WETH10.sol\":18258:18273  balance - value */\n      sub\n        /* \"contracts/WETH10.sol\":18240:18249  balanceOf */\n      0x00\n        /* \"contracts/WETH10.sol\":18240:18255  balanceOf[from] */\n      dup1\n        /* \"contracts/WETH10.sol\":18250:18254  from */\n      dup8\n        /* \"contracts/WETH10.sol\":18240:18255  balanceOf[from] */\n      0xffffffffffffffffffffffffffffffffffffffff\n      and\n      0xffffffffffffffffffffffffffffffffffffffff\n      and\n      dup2\n      mstore\n      0x20\n      add\n      swap1\n      dup2\n      mstore\n      0x20\n      add\n      0x00\n      keccak256\n        /* \"contracts/WETH10.sol\":18240:18273  balanceOf[from] = balance - value */\n      dup2\n      swap1\n      sstore\n      pop\n        /* \"contracts/WETH10.sol\":18305:18310  value */\n      dup3\n        /* \"contracts/WETH10.sol\":18288:18297  balanceOf */\n      0x00\n        /* \"contracts/WETH10.sol\":18288:18301  balanceOf[to] */\n      dup1\n        /* \"contracts/WETH10.sol\":18298:18300  to */\n      dup7\n        /* \"contracts/WETH10.sol\":18288:18301  balanceOf[to] */\n      0xffffffffffffffffffffffffffffffffffffffff\n      and\n      0xffffffffffffffffffffffffffffffffffffffff\n      and\n      dup2\n      mstore\n      0x20\n      add\n      swap1\n      dup2\n      mstore\n      0x20\n      add\n      0x00\n      keccak256\n      0x00\n        /* \"contracts/WETH10.sol\":18288:18310  balanceOf[to] += value */\n      dup3\n      dup3\n      sload\n      add\n      swap3\n      pop\n      pop\n      dup2\n      swap1\n      sstore\n      pop\n        /* \"contracts/WETH10.sol\":18345:18347  to */\n      dup4\n        /* \"contracts/WETH10.sol\":18330:18355  Transfer(from, to, value) */\n      0xffffffffffffffffffffffffffffffffffffffff\n      and\n        /* \"contracts/WETH10.sol\":18339:18343  from */\n      dup6\n        /* \"contracts/WETH10.sol\":18330:18355  Transfer(from, to, value) */\n      0xffffffffffffffffffffffffffffffffffffffff\n      and\n      0xddf252ad1be2c89b69c2b068fc378daa952ba7f163c4a11628f55a4df523b3ef\n        /* \"contracts/WETH10.sol\":18349:18354  value */\n      dup6\n        /* \"contracts/WETH10.sol\":18330:18355  Transfer(from, to, value) */\n      mload(0x40)\n      dup1\n      dup3\n      dup2\n      mstore\n      0x20\n      add\n      swap2\n      pop\n      pop\n      mload(0x40)\n      dup1\n      swap2\n      sub\n      swap1\n      log3\n        /* \"contracts/WETH10.sol\":18060:18760  if (to != address(0)) { // Transfer\r... */\n      pop\n      jump(tag_167)\n    tag_165:\n        /* \"contracts/WETH10.sol\":18400:18415  uint256 balance */\n      0x00\n        /* \"contracts/WETH10.sol\":18418:18427  balanceOf */\n      dup1\n        /* \"contracts/WETH10.sol\":18418:18433  balanceOf[from] */\n      0x00\n        /* \"contracts/WETH10.sol\":18428:18432  from */\n      dup7\n        /* \"contracts/WETH10.sol\":18418:18433  balanceOf[from] */\n      0xffffffffffffffffffffffffffffffffffffffff\n      and\n      0xffffffffffffffffffffffffffffffffffffffff\n      and\n      dup2\n      mstore\n      0x20\n      add\n      swap1\n      dup2\n      mstore\n      0x20\n      add\n      0x00\n      keccak256\n      sload\n        /* \"contracts/WETH10.sol\":18400:18433  uint256 balance = balanceOf[from] */\n      swap1\n      pop\n        /* \"contracts/WETH10.sol\":18467:18472  value */\n      dup3\n        /* \"contracts/WETH10.sol\":18456:18463  balance */\n      dup2\n        /* \"contracts/WETH10.sol\":18456:18472  balance >= value */\n      lt\n      iszero\n        /* \"contracts/WETH10.sol\":18448:18510  require(balance >= value, \"WETH: burn amount exceeds balance\") */\n      tag_168\n      jumpi\n      mload(0x40)\n      0x08c379a000000000000000000000000000000000000000000000000000000000\n      dup2\n      mstore\n      0x04\n      add\n      dup1\n      dup1\n      0x20\n      add\n      dup3\n      dup2\n      sub\n      dup3\n      mstore\n      0x21\n      dup2\n      mstore\n      0x20\n      add\n      dup1\n      data_e0a0905d916284ada246e39c08708cc92c829e81715f2d58402cb8d8e6454242\n      0x21\n      swap2\n      codecopy\n      0x40\n      add\n      swap2\n      pop\n      pop\n      mload(0x40)\n      dup1\n      swap2\n      sub\n      swap1\n      revert\n    tag_168:\n        /* \"contracts/WETH10.sol\":18553:18558  value */\n      dup3\n        /* \"contracts/WETH10.sol\":18543:18550  balance */\n      dup2\n        /* \"contracts/WETH10.sol\":18543:18558  balance - value */\n      sub\n        /* \"contracts/WETH10.sol\":18525:18534  balanceOf */\n      0x00\n        /* \"contracts/WETH10.sol\":18525:18540  balanceOf[from] */\n      dup1\n        /* \"contracts/WETH10.sol\":18535:18539  from */\n      dup8\n        /* \"contracts/WETH10.sol\":18525:18540  balanceOf[from] */\n      0xffffffffffffffffffffffffffffffffffffffff\n      and\n      0xffffffffffffffffffffffffffffffffffffffff\n      and\n      dup2\n      mstore\n      0x20\n      add\n      swap1\n      dup2\n      mstore\n      0x20\n      add\n      0x00\n      keccak256\n        /* \"contracts/WETH10.sol\":18525:18558  balanceOf[from] = balance - value */\n      dup2\n      swap1\n      sstore\n      pop\n        /* \"contracts/WETH10.sol\":18601:18602  0 */\n      0x00\n        /* \"contracts/WETH10.sol\":18578:18611  Transfer(from, address(0), value) */\n      0xffffffffffffffffffffffffffffffffffffffff\n      and\n        /* \"contracts/WETH10.sol\":18587:18591  from */\n      dup6\n        /* \"contracts/WETH10.sol\":18578:18611  Transfer(from, address(0), value) */\n      0xffffffffffffffffffffffffffffffffffffffff\n      and\n      0xddf252ad1be2c89b69c2b068fc378daa952ba7f163c4a11628f55a4df523b3ef\n        /* \"contracts/WETH10.sol\":18605:18610  value */\n      dup6\n        /* \"contracts/WETH10.sol\":18578:18611  Transfer(from, address(0), value) */\n      mload(0x40)\n      dup1\n      dup3\n      dup2\n      mstore\n      0x20\n      add\n      swap2\n      pop\n      pop\n      mload(0x40)\n      dup1\n      swap2\n      sub\n      swap1\n      log3\n        /* \"contracts/WETH10.sol\":18637:18649  bool success */\n      0x00\n        /* \"contracts/WETH10.sol\":18655:18665  msg.sender */\n      caller\n        /* \"contracts/WETH10.sol\":18655:18670  msg.sender.call */\n      0xffffffffffffffffffffffffffffffffffffffff\n      and\n        /* \"contracts/WETH10.sol\":18678:18683  value */\n      dup5\n        /* \"contracts/WETH10.sol\":18655:18688  msg.sender.call{value: value}(\"\") */\n      mload(0x40)\n      dup1\n      0x00\n      add\n      swap1\n      pop\n      0x00\n      mload(0x40)\n      dup1\n      dup4\n      sub\n      dup2\n      dup6\n      dup8\n      gas\n      call\n      swap3\n      pop\n      pop\n      pop\n      returndatasize\n      dup1\n      0x00\n      dup2\n      eq\n      tag_171\n      jumpi\n      mload(0x40)\n      swap2\n      pop\n      and(add(returndatasize, 0x3f), not(0x1f))\n      dup3\n      add\n      0x40\n      mstore\n      returndatasize\n      dup3\n      mstore\n      returndatasize\n      0x00\n      0x20\n      dup5\n      add\n      returndatacopy\n      jump(tag_170)\n    tag_171:\n      0x60\n      swap2\n      pop\n    tag_170:\n      pop\n        /* \"contracts/WETH10.sol\":18636:18688  (bool success, ) = msg.sender.call{value: value}(\"\") */\n      pop\n      swap1\n      pop\n        /* \"contracts/WETH10.sol\":18711:18718  success */\n      dup1\n        /* \"contracts/WETH10.sol\":18703:18748  require(success, \"WETH: ETH transfer failed\") */\n      tag_172\n      jumpi\n      mload(0x40)\n      0x08c379a000000000000000000000000000000000000000000000000000000000\n      dup2\n      mstore\n      0x04\n      add\n      dup1\n      dup1\n      0x20\n      add\n      dup3\n      dup2\n      sub\n      dup3\n      mstore\n      0x19\n      dup2\n      mstore\n      0x20\n      add\n      dup1\n      0x574554483a20455448207472616e73666572206661696c656400000000000000\n      dup2\n      mstore\n      pop\n      0x20\n      add\n      swap2\n      pop\n      pop\n      mload(0x40)\n      dup1\n      swap2\n      sub\n      swap1\n      revert\n    tag_172:\n        /* \"contracts/WETH10.sol\":18060:18760  if (to != address(0)) { // Transfer\r... */\n      pop\n      pop\n    tag_167:\n        /* \"contracts/WETH10.sol\":18787:18791  true */\n      0x01\n        /* \"contracts/WETH10.sol\":18780:18791  return true */\n      swap1\n      pop\n        /* \"contracts/WETH10.sol\":17422:18799  function transferFrom(address from, address to, uint256 value) external override returns (bool) {\r... */\n      swap4\n      swap3\n      pop\n      pop\n      pop\n      jump\t// out\n        /* \"contracts/WETH10.sol\":9173:9678  function withdraw(uint256 value) external override {\r... */\n    tag_63:\n        /* \"contracts/WETH10.sol\":9277:9292  uint256 balance */\n      0x00\n        /* \"contracts/WETH10.sol\":9295:9304  balanceOf */\n      dup1\n        /* \"contracts/WETH10.sol\":9295:9316  balanceOf[msg.sender] */\n      0x00\n        /* \"contracts/WETH10.sol\":9305:9315  msg.sender */\n      caller\n        /* \"contracts/WETH10.sol\":9295:9316  balanceOf[msg.sender] */\n      0xffffffffffffffffffffffffffffffffffffffff\n      and\n      0xffffffffffffffffffffffffffffffffffffffff\n      and\n      dup2\n      mstore\n      0x20\n      add\n      swap1\n      dup2\n      mstore\n      0x20\n      add\n      0x00\n      keccak256\n      sload\n        /* \"contracts/WETH10.sol\":9277:9316  uint256 balance = balanceOf[msg.sender] */\n      swap1\n      pop\n        /* \"contracts/WETH10.sol\":9346:9351  value */\n      dup2\n        /* \"contracts/WETH10.sol\":9335:9342  balance */\n      dup2\n        /* \"contracts/WETH10.sol\":9335:9351  balance >= value */\n      lt\n      iszero\n        /* \"contracts/WETH10.sol\":9327:9389  require(balance >= value, \"WETH: burn amount exceeds balance\") */\n      tag_174\n      jumpi\n      mload(0x40)\n      0x08c379a000000000000000000000000000000000000000000000000000000000\n      dup2\n      mstore\n      0x04\n      add\n      dup1\n      dup1\n      0x20\n      add\n      dup3\n      dup2\n      sub\n      dup3\n      mstore\n      0x21\n      dup2\n      mstore\n      0x20\n      add\n      dup1\n      data_e0a0905d916284ada246e39c08708cc92c829e81715f2d58402cb8d8e6454242\n      0x21\n      swap2\n      codecopy\n      0x40\n      add\n      swap2\n      pop\n      pop\n      mload(0x40)\n      dup1\n      swap2\n      sub\n      swap1\n      revert\n    tag_174:\n        /* \"contracts/WETH10.sol\":9434:9439  value */\n      dup2\n        /* \"contracts/WETH10.sol\":9424:9431  balance */\n      dup2\n        /* \"contracts/WETH10.sol\":9424:9439  balance - value */\n      sub\n        /* \"contracts/WETH10.sol\":9400:9409  balanceOf */\n      0x00\n        /* \"contracts/WETH10.sol\":9400:9421  balanceOf[msg.sender] */\n      dup1\n        /* \"contracts/WETH10.sol\":9410:9420  msg.sender */\n      caller\n        /* \"contracts/WETH10.sol\":9400:9421  balanceOf[msg.sender] */\n      0xffffffffffffffffffffffffffffffffffffffff\n      and\n      0xffffffffffffffffffffffffffffffffffffffff\n      and\n      dup2\n      mstore\n      0x20\n      add\n      swap1\n      dup2\n      mstore\n      0x20\n      add\n      0x00\n      keccak256\n        /* \"contracts/WETH10.sol\":9400:9439  balanceOf[msg.sender] = balance - value */\n      dup2\n      swap1\n      sstore\n      pop\n        /* \"contracts/WETH10.sol\":9484:9485  0 */\n      0x00\n        /* \"contracts/WETH10.sol\":9455:9494  Transfer(msg.sender, address(0), value) */\n      0xffffffffffffffffffffffffffffffffffffffff\n      and\n        /* \"contracts/WETH10.sol\":9464:9474  msg.sender */\n      caller\n        /* \"contracts/WETH10.sol\":9455:9494  Transfer(msg.sender, address(0), value) */\n      0xffffffffffffffffffffffffffffffffffffffff\n      and\n      0xddf252ad1be2c89b69c2b068fc378daa952ba7f163c4a11628f55a4df523b3ef\n        /* \"contracts/WETH10.sol\":9488:9493  value */\n      dup5\n        /* \"contracts/WETH10.sol\":9455:9494  Transfer(msg.sender, address(0), value) */\n      mload(0x40)\n      dup1\n      dup3\n      dup2\n      mstore\n      0x20\n      add\n      swap2\n      pop\n      pop\n      mload(0x40)\n      dup1\n      swap2\n      sub\n      swap1\n      log3\n        /* \"contracts/WETH10.sol\":9563:9575  bool success */\n      0x00\n        /* \"contracts/WETH10.sol\":9581:9591  msg.sender */\n      caller\n        /* \"contracts/WETH10.sol\":9581:9596  msg.sender.call */\n      0xffffffffffffffffffffffffffffffffffffffff\n      and\n        /* \"contracts/WETH10.sol\":9604:9609  value */\n      dup4\n        /* \"contracts/WETH10.sol\":9581:9614  msg.sender.call{value: value}(\"\") */\n      mload(0x40)\n      dup1\n      0x00\n      add\n      swap1\n      pop\n      0x00\n      mload(0x40)\n      dup1\n      dup4\n      sub\n      dup2\n      dup6\n      dup8\n      gas\n      call\n      swap3\n      pop\n      pop\n      pop\n      returndatasize\n      dup1\n      0x00\n      dup2\n      eq\n      tag_177\n      jumpi\n      mload(0x40)\n      swap2\n      pop\n      and(add(returndatasize, 0x3f), not(0x1f))\n      dup3\n      add\n      0x40\n      mstore\n      returndatasize\n      dup3\n      mstore\n      returndatasize\n      0x00\n      0x20\n      dup5\n      add\n      returndatacopy\n      jump(tag_176)\n    tag_177:\n      0x60\n      swap2\n      pop\n    tag_176:\n      pop\n        /* \"contracts/WETH10.sol\":9562:9614  (bool success, ) = msg.sender.call{value: value}(\"\") */\n      pop\n      swap1\n      pop\n        /* \"contracts/WETH10.sol\":9633:9640  success */\n      dup1\n        /* \"contracts/WETH10.sol\":9625:9670  require(success, \"WETH: ETH transfer failed\") */\n      tag_178\n      jumpi\n      mload(0x40)\n      0x08c379a000000000000000000000000000000000000000000000000000000000\n      dup2\n      mstore\n      0x04\n      add\n      dup1\n      dup1\n      0x20\n      add\n      dup3\n      dup2\n      sub\n      dup3\n      mstore\n      0x19\n      dup2\n      mstore\n      0x20\n      add\n      dup1\n      0x574554483a20455448207472616e73666572206661696c656400000000000000\n      dup2\n      mstore\n      pop\n      0x20\n      add\n      swap2\n      pop\n      pop\n      mload(0x40)\n      dup1\n      swap2\n      sub\n      swap1\n      revert\n    tag_178:\n        /* \"contracts/WETH10.sol\":9173:9678  function withdraw(uint256 value) external override {\r... */\n      pop\n      pop\n      pop\n      jump\t// out\n        /* \"contracts/WETH10.sol\":1199:1337  bytes32 public immutable PERMIT_TYPEHASH = keccak256(\"Permit(address owner,address spender,uint256 value,uint256 nonce,uint256 deadline)\") */\n    tag_66:\n      immutable(\"0x59c0d2b7af0a8e6d3d8e710a078764bd67b7223777026c424cdb4f599824bb79\")\n      dup2\n      jump\t// out\n        /* \"contracts/WETH10.sol\":1036:1072  uint8  public constant decimals = 18 */\n    tag_69:\n        /* \"contracts/WETH10.sol\":1070:1072  18 */\n      0x12\n        /* \"contracts/WETH10.sol\":1036:1072  uint8  public constant decimals = 18 */\n      dup2\n      jump\t// out\n        /* \"contracts/WETH10.sol\":2958:3205  function DOMAIN_SEPARATOR() external view override returns (bytes32) {\r... */\n    tag_72:\n        /* \"contracts/WETH10.sol\":3018:3025  bytes32 */\n      0x00\n        /* \"contracts/WETH10.sol\":3038:3053  uint256 chainId */\n      dup1\n        /* \"contracts/WETH10.sol\":3085:3094  chainid() */\n      chainid\n        /* \"contracts/WETH10.sol\":3074:3094  chainId := chainid() */\n      swap1\n      pop\n        /* \"contracts/WETH10.sol\":3123:3140  deploymentChainId */\n      immutable(\"0xf928ede1c39c5595ff22fe845412ee05a93eeaa584f8ef0c46b5eeb14cb99ec8\")\n        /* \"contracts/WETH10.sol\":3112:3119  chainId */\n      dup2\n        /* \"contracts/WETH10.sol\":3112:3140  chainId == deploymentChainId */\n      eq\n        /* \"contracts/WETH10.sol\":3112:3197  chainId == deploymentChainId ? _DOMAIN_SEPARATOR : _calculateDomainSeparator(chainId) */\n      tag_180\n      jumpi\n        /* \"contracts/WETH10.sol\":3163:3197  _calculateDomainSeparator(chainId) */\n      tag_181\n        /* \"contracts/WETH10.sol\":3189:3196  chainId */\n      dup2\n        /* \"contracts/WETH10.sol\":3163:3188  _calculateDomainSeparator */\n      tag_182\n        /* \"contracts/WETH10.sol\":3163:3197  _calculateDomainSeparator(chainId) */\n      jump\t// in\n    tag_181:\n        /* \"contracts/WETH10.sol\":3112:3197  chainId == deploymentChainId ? _DOMAIN_SEPARATOR : _calculateDomainSeparator(chainId) */\n      jump(tag_183)\n    tag_180:\n        /* \"contracts/WETH10.sol\":3143:3160  _DOMAIN_SEPARATOR */\n      immutable(\"0xbbd48b257be1b8216d144ef9be5734f8d11697959c9e0f7768bec89db74a63a3\")\n        /* \"contracts/WETH10.sol\":3112:3197  chainId == deploymentChainId ? _DOMAIN_SEPARATOR : _calculateDomainSeparator(chainId) */\n    tag_183:\n        /* \"contracts/WETH10.sol\":3105:3197  return chainId == deploymentChainId ? _DOMAIN_SEPARATOR : _calculateDomainSeparator(chainId) */\n      swap2\n      pop\n      pop\n        /* \"contracts/WETH10.sol\":2958:3205  function DOMAIN_SEPARATOR() external view override returns (bytes32) {\r... */\n      swap1\n      jump\t// out\n        /* \"contracts/WETH10.sol\":19405:20394  function transferAndCall(address to, uint value, bytes calldata data) external override returns (bool) {\r... */\n    tag_79:\n        /* \"contracts/WETH10.sol\":19502:19506  bool */\n      0x00\n        /* \"contracts/WETH10.sol\":19587:19588  0 */\n      dup1\n        /* \"contracts/WETH10.sol\":19573:19589  to != address(0) */\n      0xffffffffffffffffffffffffffffffffffffffff\n      and\n        /* \"contracts/WETH10.sol\":19573:19575  to */\n      dup6\n        /* \"contracts/WETH10.sol\":19573:19589  to != address(0) */\n      0xffffffffffffffffffffffffffffffffffffffff\n      and\n      eq\n        /* \"contracts/WETH10.sol\":19569:20305  if (to != address(0)) { // Transfer\r... */\n      tag_185\n      jumpi\n        /* \"contracts/WETH10.sol\":19618:19633  uint256 balance */\n      0x00\n        /* \"contracts/WETH10.sol\":19636:19645  balanceOf */\n      dup1\n        /* \"contracts/WETH10.sol\":19636:19657  balanceOf[msg.sender] */\n      0x00\n        /* \"contracts/WETH10.sol\":19646:19656  msg.sender */\n      caller\n        /* \"contracts/WETH10.sol\":19636:19657  balanceOf[msg.sender] */\n      0xffffffffffffffffffffffffffffffffffffffff\n      and\n      0xffffffffffffffffffffffffffffffffffffffff\n      and\n      dup2\n      mstore\n      0x20\n      add\n      swap1\n      dup2\n      mstore\n      0x20\n      add\n      0x00\n      keccak256\n      sload\n        /* \"contracts/WETH10.sol\":19618:19657  uint256 balance = balanceOf[msg.sender] */\n      swap1\n      pop\n        /* \"contracts/WETH10.sol\":19691:19696  value */\n      dup5\n        /* \"contracts/WETH10.sol\":19680:19687  balance */\n      dup2\n        /* \"contracts/WETH10.sol\":19680:19696  balance >= value */\n      lt\n      iszero\n        /* \"contracts/WETH10.sol\":19672:19738  require(balance >= value, \"WETH: transfer amount exceeds balance\") */\n      tag_186\n      jumpi\n      mload(0x40)\n      0x08c379a000000000000000000000000000000000000000000000000000000000\n      dup2\n      mstore\n      0x04\n      add\n      dup1\n      dup1\n      0x20\n      add\n      dup3\n      dup2\n      sub\n      dup3\n      mstore\n      0x25\n      dup2\n      mstore\n      0x20\n      add\n      dup1\n      data_391bd9858d691b2fb04b43168eb6c31973f0951c8dda7fcdcf0232f5206b45da\n      0x25\n      swap2\n      codecopy\n      0x40\n      add\n      swap2\n      pop\n      pop\n      mload(0x40)\n      dup1\n      swap2\n      sub\n      swap1\n      revert\n    tag_186:\n        /* \"contracts/WETH10.sol\":19789:19794  value */\n      dup5\n        /* \"contracts/WETH10.sol\":19779:19786  balance */\n      dup2\n        /* \"contracts/WETH10.sol\":19779:19794  balance - value */\n      sub\n        /* \"contracts/WETH10.sol\":19755:19764  balanceOf */\n      0x00\n        /* \"contracts/WETH10.sol\":19755:19776  balanceOf[msg.sender] */\n      dup1\n        /* \"contracts/WETH10.sol\":19765:19775  msg.sender */\n      caller\n        /* \"contracts/WETH10.sol\":19755:19776  balanceOf[msg.sender] */\n      0xffffffffffffffffffffffffffffffffffffffff\n      and\n      0xffffffffffffffffffffffffffffffffffffffff\n      and\n      dup2\n      mstore\n      0x20\n      add\n      swap1\n      dup2\n      mstore\n      0x20\n      add\n      0x00\n      keccak256\n        /* \"contracts/WETH10.sol\":19755:19794  balanceOf[msg.sender] = balance - value */\n      dup2\n      swap1\n      sstore\n      pop\n        /* \"contracts/WETH10.sol\":19826:19831  value */\n      dup5\n        /* \"contracts/WETH10.sol\":19809:19818  balanceOf */\n      0x00\n        /* \"contracts/WETH10.sol\":19809:19822  balanceOf[to] */\n      dup1\n        /* \"contracts/WETH10.sol\":19819:19821  to */\n      dup9\n        /* \"contracts/WETH10.sol\":19809:19822  balanceOf[to] */\n      0xffffffffffffffffffffffffffffffffffffffff\n      and\n      0xffffffffffffffffffffffffffffffffffffffff\n      and\n      dup2\n      mstore\n      0x20\n      add\n      swap1\n      dup2\n      mstore\n      0x20\n      add\n      0x00\n      keccak256\n      0x00\n        /* \"contracts/WETH10.sol\":19809:19831  balanceOf[to] += value */\n      dup3\n      dup3\n      sload\n      add\n      swap3\n      pop\n      pop\n      dup2\n      swap1\n      sstore\n      pop\n        /* \"contracts/WETH10.sol\":19872:19874  to */\n      dup6\n        /* \"contracts/WETH10.sol\":19851:19882  Transfer(msg.sender, to, value) */\n      0xffffffffffffffffffffffffffffffffffffffff\n      and\n        /* \"contracts/WETH10.sol\":19860:19870  msg.sender */\n      caller\n        /* \"contracts/WETH10.sol\":19851:19882  Transfer(msg.sender, to, value) */\n      0xffffffffffffffffffffffffffffffffffffffff\n      and\n      0xddf252ad1be2c89b69c2b068fc378daa952ba7f163c4a11628f55a4df523b3ef\n        /* \"contracts/WETH10.sol\":19876:19881  value */\n      dup8\n        /* \"contracts/WETH10.sol\":19851:19882  Transfer(msg.sender, to, value) */\n      mload(0x40)\n      dup1\n      dup3\n      dup2\n      mstore\n      0x20\n      add\n      swap2\n      pop\n      pop\n      mload(0x40)\n      dup1\n      swap2\n      sub\n      swap1\n      log3\n        /* \"contracts/WETH10.sol\":19569:20305  if (to != address(0)) { // Transfer\r... */\n      pop\n      jump(tag_187)\n    tag_185:\n        /* \"contracts/WETH10.sol\":19927:19942  uint256 balance */\n      0x00\n        /* \"contracts/WETH10.sol\":19945:19954  balanceOf */\n      dup1\n        /* \"contracts/WETH10.sol\":19945:19966  balanceOf[msg.sender] */\n      0x00\n        /* \"contracts/WETH10.sol\":19955:19965  msg.sender */\n      caller\n        /* \"contracts/WETH10.sol\":19945:19966  balanceOf[msg.sender] */\n      0xffffffffffffffffffffffffffffffffffffffff\n      and\n      0xffffffffffffffffffffffffffffffffffffffff\n      and\n      dup2\n      mstore\n      0x20\n      add\n      swap1\n      dup2\n      mstore\n      0x20\n      add\n      0x00\n      keccak256\n      sload\n        /* \"contracts/WETH10.sol\":19927:19966  uint256 balance = balanceOf[msg.sender] */\n      swap1\n      pop\n        /* \"contracts/WETH10.sol\":20000:20005  value */\n      dup5\n        /* \"contracts/WETH10.sol\":19989:19996  balance */\n      dup2\n        /* \"contracts/WETH10.sol\":19989:20005  balance >= value */\n      lt\n      iszero\n        /* \"contracts/WETH10.sol\":19981:20043  require(balance >= value, \"WETH: burn amount exceeds balance\") */\n      tag_188\n      jumpi\n      mload(0x40)\n      0x08c379a000000000000000000000000000000000000000000000000000000000\n      dup2\n      mstore\n      0x04\n      add\n      dup1\n      dup1\n      0x20\n      add\n      dup3\n      dup2\n      sub\n      dup3\n      mstore\n      0x21\n      dup2\n      mstore\n      0x20\n      add\n      dup1\n      data_e0a0905d916284ada246e39c08708cc92c829e81715f2d58402cb8d8e6454242\n      0x21\n      swap2\n      codecopy\n      0x40\n      add\n      swap2\n      pop\n      pop\n      mload(0x40)\n      dup1\n      swap2\n      sub\n      swap1\n      revert\n    tag_188:\n        /* \"contracts/WETH10.sol\":20092:20097  value */\n      dup5\n        /* \"contracts/WETH10.sol\":20082:20089  balance */\n      dup2\n        /* \"contracts/WETH10.sol\":20082:20097  balance - value */\n      sub\n        /* \"contracts/WETH10.sol\":20058:20067  balanceOf */\n      0x00\n        /* \"contracts/WETH10.sol\":20058:20079  balanceOf[msg.sender] */\n      dup1\n        /* \"contracts/WETH10.sol\":20068:20078  msg.sender */\n      caller\n        /* \"contracts/WETH10.sol\":20058:20079  balanceOf[msg.sender] */\n      0xffffffffffffffffffffffffffffffffffffffff\n      and\n      0xffffffffffffffffffffffffffffffffffffffff\n      and\n      dup2\n      mstore\n      0x20\n      add\n      swap1\n      dup2\n      mstore\n      0x20\n      add\n      0x00\n      keccak256\n        /* \"contracts/WETH10.sol\":20058:20097  balanceOf[msg.sender] = balance - value */\n      dup2\n      swap1\n      sstore\n      pop\n        /* \"contracts/WETH10.sol\":20146:20147  0 */\n      0x00\n        /* \"contracts/WETH10.sol\":20117:20156  Transfer(msg.sender, address(0), value) */\n      0xffffffffffffffffffffffffffffffffffffffff\n      and\n        /* \"contracts/WETH10.sol\":20126:20136  msg.sender */\n      caller\n        /* \"contracts/WETH10.sol\":20117:20156  Transfer(msg.sender, address(0), value) */\n      0xffffffffffffffffffffffffffffffffffffffff\n      and\n      0xddf252ad1be2c89b69c2b068fc378daa952ba7f163c4a11628f55a4df523b3ef\n        /* \"contracts/WETH10.sol\":20150:20155  value */\n      dup8\n        /* \"contracts/WETH10.sol\":20117:20156  Transfer(msg.sender, address(0), value) */\n      mload(0x40)\n      dup1\n      dup3\n      dup2\n      mstore\n      0x20\n      add\n      swap2\n      pop\n      pop\n      mload(0x40)\n      dup1\n      swap2\n      sub\n      swap1\n      log3\n        /* \"contracts/WETH10.sol\":20182:20194  bool success */\n      0x00\n        /* \"contracts/WETH10.sol\":20200:20210  msg.sender */\n      caller\n        /* \"contracts/WETH10.sol\":20200:20215  msg.sender.call */\n      0xffffffffffffffffffffffffffffffffffffffff\n      and\n        /* \"contracts/WETH10.sol\":20223:20228  value */\n      dup7\n        /* \"contracts/WETH10.sol\":20200:20233  msg.sender.call{value: value}(\"\") */\n      mload(0x40)\n      dup1\n      0x00\n      add\n      swap1\n      pop\n      0x00\n      mload(0x40)\n      dup1\n      dup4\n      sub\n      dup2\n      dup6\n      dup8\n      gas\n      call\n      swap3\n      pop\n      pop\n      pop\n      returndatasize\n      dup1\n      0x00\n      dup2\n      eq\n      tag_191\n      jumpi\n      mload(0x40)\n      swap2\n      pop\n      and(add(returndatasize, 0x3f), not(0x1f))\n      dup3\n      add\n      0x40\n      mstore\n      returndatasize\n      dup3\n      mstore\n      returndatasize\n      0x00\n      0x20\n      dup5\n      add\n      returndatacopy\n      jump(tag_190)\n    tag_191:\n      0x60\n      swap2\n      pop\n    tag_190:\n      pop\n        /* \"contracts/WETH10.sol\":20181:20233  (bool success, ) = msg.sender.call{value: value}(\"\") */\n      pop\n      swap1\n      pop\n        /* \"contracts/WETH10.sol\":20256:20263  success */\n      dup1\n        /* \"contracts/WETH10.sol\":20248:20293  require(success, \"WETH: ETH transfer failed\") */\n      tag_192\n      jumpi\n      mload(0x40)\n      0x08c379a000000000000000000000000000000000000000000000000000000000\n      dup2\n      mstore\n      0x04\n      add\n      dup1\n      dup1\n      0x20\n      add\n      dup3\n      dup2\n      sub\n      dup3\n      mstore\n      0x19\n      dup2\n      mstore\n      0x20\n      add\n      dup1\n      0x574554483a20455448207472616e73666572206661696c656400000000000000\n      dup2\n      mstore\n      pop\n      0x20\n      add\n      swap2\n      pop\n      pop\n      mload(0x40)\n      dup1\n      swap2\n      sub\n      swap1\n      revert\n    tag_192:\n        /* \"contracts/WETH10.sol\":19569:20305  if (to != address(0)) { // Transfer\r... */\n      pop\n      pop\n    tag_187:\n        /* \"contracts/WETH10.sol\":20342:20344  to */\n      dup5\n        /* \"contracts/WETH10.sol\":20324:20361  ITransferReceiver(to).onTokenTransfer */\n      0xffffffffffffffffffffffffffffffffffffffff\n      and\n      0xa4c0ed36\n        /* \"contracts/WETH10.sol\":20362:20372  msg.sender */\n      caller\n        /* \"contracts/WETH10.sol\":20374:20379  value */\n      dup7\n        /* \"contracts/WETH10.sol\":20381:20385  data */\n      dup7\n      dup7\n        /* \"contracts/WETH10.sol\":20324:20386  ITransferReceiver(to).onTokenTransfer(msg.sender, value, data) */\n      mload(0x40)\n      dup6\n      0xffffffff\n      and\n      0xe0\n      shl\n      dup2\n      mstore\n      0x04\n      add\n      dup1\n      dup6\n      0xffffffffffffffffffffffffffffffffffffffff\n      and\n      dup2\n      mstore\n      0x20\n      add\n      dup5\n      dup2\n      mstore\n      0x20\n      add\n      dup1\n      0x20\n      add\n      dup3\n      dup2\n      sub\n      dup3\n      mstore\n      dup5\n      dup5\n      dup3\n      dup2\n      dup2\n      mstore\n      0x20\n      add\n      swap3\n      pop\n      dup1\n      dup3\n      dup5\n      calldatacopy\n      0x00\n      dup2\n      dup5\n      add\n      mstore\n      not(0x1f)\n      0x1f\n      dup3\n      add\n      and\n      swap1\n      pop\n      dup1\n      dup4\n      add\n      swap3\n      pop\n      pop\n      pop\n      swap6\n      pop\n      pop\n      pop\n      pop\n      pop\n      pop\n      0x20\n      mload(0x40)\n      dup1\n      dup4\n      sub\n      dup2\n      0x00\n      dup8\n      dup1\n      extcodesize\n      iszero\n      dup1\n      iszero\n      tag_193\n      jumpi\n      0x00\n      dup1\n      revert\n    tag_193:\n      pop\n      gas\n      call\n      iszero\n      dup1\n      iszero\n      tag_195\n      jumpi\n      returndatasize\n      0x00\n      dup1\n      returndatacopy\n      revert(0x00, returndatasize)\n    tag_195:\n      pop\n      pop\n      pop\n      pop\n      mload(0x40)\n      returndatasize\n      0x20\n      dup2\n      lt\n      iszero\n      tag_196\n      jumpi\n      0x00\n      dup1\n      revert\n    tag_196:\n      dup2\n      add\n      swap1\n      dup1\n      dup1\n      mload\n      swap1\n      0x20\n      add\n      swap1\n      swap3\n      swap2\n      swap1\n      pop\n      pop\n      pop\n        /* \"contracts/WETH10.sol\":20317:20386  return ITransferReceiver(to).onTokenTransfer(msg.sender, value, data) */\n      swap1\n      pop\n        /* \"contracts/WETH10.sol\":19405:20394  function transferAndCall(address to, uint value, bytes calldata data) external override returns (bool) {\r... */\n      swap5\n      swap4\n      pop\n      pop\n      pop\n      pop\n      jump\t// out\n        /* \"contracts/WETH10.sol\":6951:8853  function flashLoan(IERC3156FlashBorrower receiver, address token, uint256 value, bytes calldata data) \r... */\n    tag_86:\n        /* \"contracts/WETH10.sol\":7086:7090  bool */\n      0x00\n        /* \"contracts/WETH10.sol\":7190:7194  this */\n      address\n        /* \"contracts/WETH10.sol\":7173:7195  token == address(this) */\n      0xffffffffffffffffffffffffffffffffffffffff\n      and\n        /* \"contracts/WETH10.sol\":7173:7178  token */\n      dup6\n        /* \"contracts/WETH10.sol\":7173:7195  token == address(this) */\n      0xffffffffffffffffffffffffffffffffffffffff\n      and\n      eq\n        /* \"contracts/WETH10.sol\":7165:7228  require(token == address(this), \"WETH: flash mint only WETH10\") */\n      tag_198\n      jumpi\n      mload(0x40)\n      0x08c379a000000000000000000000000000000000000000000000000000000000\n      dup2\n      mstore\n      0x04\n      add\n      dup1\n      dup1\n      0x20\n      add\n      dup3\n      dup2\n      sub\n      dup3\n      mstore\n      0x1c\n      dup2\n      mstore\n      0x20\n      add\n      dup1\n      0x574554483a20666c617368206d696e74206f6e6c792057455448313000000000\n      dup2\n      mstore\n      pop\n      0x20\n      add\n      swap2\n      pop\n      pop\n      mload(0x40)\n      dup1\n      swap2\n      sub\n      swap1\n      revert\n    tag_198:\n        /* \"contracts/WETH10.sol\":7335:7352  type(uint112).max */\n      0xffffffffffffffffffffffffffff\n        /* \"contracts/WETH10.sol\":7326:7352  value <= type(uint112).max */\n      dup1\n      and\n        /* \"contracts/WETH10.sol\":7326:7331  value */\n      dup5\n        /* \"contracts/WETH10.sol\":7326:7352  value <= type(uint112).max */\n      gt\n      iszero\n        /* \"contracts/WETH10.sol\":7318:7393  require(value <= type(uint112).max, \"WETH: individual loan limit exceeded\") */\n      tag_199\n      jumpi\n      mload(0x40)\n      0x08c379a000000000000000000000000000000000000000000000000000000000\n      dup2\n      mstore\n      0x04\n      add\n      dup1\n      dup1\n      0x20\n      add\n      dup3\n      dup2\n      sub\n      dup3\n      mstore\n      0x24\n      dup2\n      mstore\n      0x20\n      add\n      dup1\n      data_a0c38ec09e15152d6d6c1ae2f503514b9c13b34336ec9eddba912f9eb553820b\n      0x24\n      swap2\n      codecopy\n      0x40\n      add\n      swap2\n      pop\n      pop\n      mload(0x40)\n      dup1\n      swap2\n      sub\n      swap1\n      revert\n    tag_199:\n        /* \"contracts/WETH10.sol\":7467:7472  value */\n      dup4\n        /* \"contracts/WETH10.sol\":7453:7464  flashMinted */\n      sload(0x03)\n        /* \"contracts/WETH10.sol\":7453:7472  flashMinted + value */\n      add\n        /* \"contracts/WETH10.sol\":7439:7450  flashMinted */\n      0x03\n        /* \"contracts/WETH10.sol\":7439:7472  flashMinted = flashMinted + value */\n      dup2\n      swap1\n      sstore\n      pop\n        /* \"contracts/WETH10.sol\":7555:7572  type(uint112).max */\n      0xffffffffffffffffffffffffffff\n        /* \"contracts/WETH10.sol\":7540:7572  flashMinted <= type(uint112).max */\n      dup1\n      and\n        /* \"contracts/WETH10.sol\":7540:7551  flashMinted */\n      sload(0x03)\n        /* \"contracts/WETH10.sol\":7540:7572  flashMinted <= type(uint112).max */\n      gt\n      iszero\n        /* \"contracts/WETH10.sol\":7532:7608  require(flashMinted <= type(uint112).max, \"WETH: total loan limit exceeded\") */\n      tag_200\n      jumpi\n      mload(0x40)\n      0x08c379a000000000000000000000000000000000000000000000000000000000\n      dup2\n      mstore\n      0x04\n      add\n      dup1\n      dup1\n      0x20\n      add\n      dup3\n      dup2\n      sub\n      dup3\n      mstore\n      0x1f\n      dup2\n      mstore\n      0x20\n      add\n      dup1\n      0x574554483a20746f74616c206c6f616e206c696d697420657863656564656400\n      dup2\n      mstore\n      pop\n      0x20\n      add\n      swap2\n      pop\n      pop\n      mload(0x40)\n      dup1\n      swap2\n      sub\n      swap1\n      revert\n    tag_200:\n        /* \"contracts/WETH10.sol\":7746:7751  value */\n      dup4\n        /* \"contracts/WETH10.sol\":7714:7723  balanceOf */\n      0x00\n        /* \"contracts/WETH10.sol\":7714:7742  balanceOf[address(receiver)] */\n      dup1\n        /* \"contracts/WETH10.sol\":7732:7740  receiver */\n      dup9\n        /* \"contracts/WETH10.sol\":7714:7742  balanceOf[address(receiver)] */\n      0xffffffffffffffffffffffffffffffffffffffff\n      and\n      0xffffffffffffffffffffffffffffffffffffffff\n      and\n      dup2\n      mstore\n      0x20\n      add\n      swap1\n      dup2\n      mstore\n      0x20\n      add\n      0x00\n      keccak256\n      0x00\n        /* \"contracts/WETH10.sol\":7714:7751  balanceOf[address(receiver)] += value */\n      dup3\n      dup3\n      sload\n      add\n      swap3\n      pop\n      pop\n      dup2\n      swap1\n      sstore\n      pop\n        /* \"contracts/WETH10.sol\":7798:7806  receiver */\n      dup6\n        /* \"contracts/WETH10.sol\":7769:7815  Transfer(address(0), address(receiver), value) */\n      0xffffffffffffffffffffffffffffffffffffffff\n      and\n        /* \"contracts/WETH10.sol\":7786:7787  0 */\n      0x00\n        /* \"contracts/WETH10.sol\":7769:7815  Transfer(address(0), address(receiver), value) */\n      0xffffffffffffffffffffffffffffffffffffffff\n      and\n      0xddf252ad1be2c89b69c2b068fc378daa952ba7f163c4a11628f55a4df523b3ef\n        /* \"contracts/WETH10.sol\":7809:7814  value */\n      dup7\n        /* \"contracts/WETH10.sol\":7769:7815  Transfer(address(0), address(receiver), value) */\n      mload(0x40)\n      dup1\n      dup3\n      dup2\n      mstore\n      0x20\n      add\n      swap2\n      pop\n      pop\n      mload(0x40)\n      dup1\n      swap2\n      sub\n      swap1\n      log3\n        /* \"contracts/WETH10.sol\":7929:7945  CALLBACK_SUCCESS */\n      immutable(\"0x2e9b7c94e032d8b3b8b30bd825717a5ac74958b53e7c37a892a4fd7dc56e4975\")\n        /* \"contracts/WETH10.sol\":7862:7870  receiver */\n      dup7\n        /* \"contracts/WETH10.sol\":7862:7882  receiver.onFlashLoan */\n      0xffffffffffffffffffffffffffffffffffffffff\n      and\n      0x23e30c8b\n        /* \"contracts/WETH10.sol\":7883:7893  msg.sender */\n      caller\n        /* \"contracts/WETH10.sol\":7903:7907  this */\n      address\n        /* \"contracts/WETH10.sol\":7910:7915  value */\n      dup9\n        /* \"contracts/WETH10.sol\":7917:7918  0 */\n      0x00\n        /* \"contracts/WETH10.sol\":7920:7924  data */\n      dup10\n      dup10\n        /* \"contracts/WETH10.sol\":7862:7925  receiver.onFlashLoan(msg.sender, address(this), value, 0, data) */\n      mload(0x40)\n      dup8\n      0xffffffff\n      and\n      0xe0\n      shl\n      dup2\n      mstore\n      0x04\n      add\n      dup1\n      dup8\n      0xffffffffffffffffffffffffffffffffffffffff\n      and\n      dup2\n      mstore\n      0x20\n      add\n      dup7\n      0xffffffffffffffffffffffffffffffffffffffff\n      and\n      dup2\n      mstore\n      0x20\n      add\n      dup6\n      dup2\n      mstore\n      0x20\n      add\n      dup5\n      dup2\n      mstore\n      0x20\n      add\n      dup1\n      0x20\n      add\n      dup3\n      dup2\n      sub\n      dup3\n      mstore\n      dup5\n      dup5\n      dup3\n      dup2\n      dup2\n      mstore\n      0x20\n      add\n      swap3\n      pop\n      dup1\n      dup3\n      dup5\n      calldatacopy\n      0x00\n      dup2\n      dup5\n      add\n      mstore\n      not(0x1f)\n      0x1f\n      dup3\n      add\n      and\n      swap1\n      pop\n      dup1\n      dup4\n      add\n      swap3\n      pop\n      pop\n      pop\n      swap8\n      pop\n      pop\n      pop\n      pop\n      pop\n      pop\n      pop\n      pop\n      0x20\n      mload(0x40)\n      dup1\n      dup4\n      sub\n      dup2\n      0x00\n      dup8\n      dup1\n      extcodesize\n      iszero\n      dup1\n      iszero\n      tag_201\n      jumpi\n      0x00\n      dup1\n      revert\n    tag_201:\n      pop\n      gas\n      call\n      iszero\n      dup1\n      iszero\n      tag_203\n      jumpi\n      returndatasize\n      0x00\n      dup1\n      returndatacopy\n      revert(0x00, returndatasize)\n    tag_203:\n      pop\n      pop\n      pop\n      pop\n      mload(0x40)\n      returndatasize\n      0x20\n      dup2\n      lt\n      iszero\n      tag_204\n      jumpi\n      0x00\n      dup1\n      revert\n    tag_204:\n      dup2\n      add\n      swap1\n      dup1\n      dup1\n      mload\n      swap1\n      0x20\n      add\n      swap1\n      swap3\n      swap2\n      swap1\n      pop\n      pop\n      pop\n        /* \"contracts/WETH10.sol\":7862:7945  receiver.onFlashLoan(msg.sender, address(this), value, 0, data) == CALLBACK_SUCCESS */\n      eq\n        /* \"contracts/WETH10.sol\":7840:7996  require(\r... */\n      tag_205\n      jumpi\n      mload(0x40)\n      0x08c379a000000000000000000000000000000000000000000000000000000000\n      dup2\n      mstore\n      0x04\n      add\n      dup1\n      dup1\n      0x20\n      add\n      dup3\n      dup2\n      sub\n      dup3\n      mstore\n      0x17\n      dup2\n      mstore\n      0x20\n      add\n      dup1\n      0x574554483a20666c617368206c6f616e206661696c6564000000000000000000\n      dup2\n      mstore\n      pop\n      0x20\n      add\n      swap2\n      pop\n      pop\n      mload(0x40)\n      dup1\n      swap2\n      sub\n      swap1\n      revert\n    tag_205:\n        /* \"contracts/WETH10.sol\":8090:8105  uint256 allowed */\n      0x00\n        /* \"contracts/WETH10.sol\":8108:8117  allowance */\n      0x02\n        /* \"contracts/WETH10.sol\":8108:8136  allowance[address(receiver)] */\n      0x00\n        /* \"contracts/WETH10.sol\":8126:8134  receiver */\n      dup9\n        /* \"contracts/WETH10.sol\":8108:8136  allowance[address(receiver)] */\n      0xffffffffffffffffffffffffffffffffffffffff\n      and\n      0xffffffffffffffffffffffffffffffffffffffff\n      and\n      dup2\n      mstore\n      0x20\n      add\n      swap1\n      dup2\n      mstore\n      0x20\n      add\n      0x00\n      keccak256\n        /* \"contracts/WETH10.sol\":8108:8151  allowance[address(receiver)][address(this)] */\n      0x00\n        /* \"contracts/WETH10.sol\":8145:8149  this */\n      address\n        /* \"contracts/WETH10.sol\":8108:8151  allowance[address(receiver)][address(this)] */\n      0xffffffffffffffffffffffffffffffffffffffff\n      and\n      0xffffffffffffffffffffffffffffffffffffffff\n      and\n      dup2\n      mstore\n      0x20\n      add\n      swap1\n      dup2\n      mstore\n      0x20\n      add\n      0x00\n      keccak256\n      sload\n        /* \"contracts/WETH10.sol\":8090:8151  uint256 allowed = allowance[address(receiver)][address(this)] */\n      swap1\n      pop\n        /* \"contracts/WETH10.sol\":8177:8194  type(uint256).max */\n      0xffffffffffffffffffffffffffffffffffffffffffffffffffffffffffffffff\n        /* \"contracts/WETH10.sol\":8166:8173  allowed */\n      dup2\n        /* \"contracts/WETH10.sol\":8166:8194  allowed != type(uint256).max */\n      eq\n        /* \"contracts/WETH10.sol\":8162:8470  if (allowed != type(uint256).max) {\r... */\n      tag_206\n      jumpi\n        /* \"contracts/WETH10.sol\":8230:8235  value */\n      dup5\n        /* \"contracts/WETH10.sol\":8219:8226  allowed */\n      dup2\n        /* \"contracts/WETH10.sol\":8219:8235  allowed >= value */\n      lt\n      iszero\n        /* \"contracts/WETH10.sol\":8211:8271  require(allowed >= value, \"WETH: request exceeds allowance\") */\n      tag_207\n      jumpi\n      mload(0x40)\n      0x08c379a000000000000000000000000000000000000000000000000000000000\n      dup2\n      mstore\n      0x04\n      add\n      dup1\n      dup1\n      0x20\n      add\n      dup3\n      dup2\n      sub\n      dup3\n      mstore\n      0x1f\n      dup2\n      mstore\n      0x20\n      add\n      dup1\n      0x574554483a2072657175657374206578636565647320616c6c6f77616e636500\n      dup2\n      mstore\n      pop\n      0x20\n      add\n      swap2\n      pop\n      pop\n      mload(0x40)\n      dup1\n      swap2\n      sub\n      swap1\n      revert\n    tag_207:\n        /* \"contracts/WETH10.sol\":8286:8301  uint256 reduced */\n      0x00\n        /* \"contracts/WETH10.sol\":8314:8319  value */\n      dup6\n        /* \"contracts/WETH10.sol\":8304:8311  allowed */\n      dup3\n        /* \"contracts/WETH10.sol\":8304:8319  allowed - value */\n      sub\n        /* \"contracts/WETH10.sol\":8286:8319  uint256 reduced = allowed - value */\n      swap1\n      pop\n        /* \"contracts/WETH10.sol\":8380:8387  reduced */\n      dup1\n        /* \"contracts/WETH10.sol\":8334:8343  allowance */\n      0x02\n        /* \"contracts/WETH10.sol\":8334:8362  allowance[address(receiver)] */\n      0x00\n        /* \"contracts/WETH10.sol\":8352:8360  receiver */\n      dup11\n        /* \"contracts/WETH10.sol\":8334:8362  allowance[address(receiver)] */\n      0xffffffffffffffffffffffffffffffffffffffff\n      and\n      0xffffffffffffffffffffffffffffffffffffffff\n      and\n      dup2\n      mstore\n      0x20\n      add\n      swap1\n      dup2\n      mstore\n      0x20\n      add\n      0x00\n      keccak256\n        /* \"contracts/WETH10.sol\":8334:8377  allowance[address(receiver)][address(this)] */\n      0x00\n        /* \"contracts/WETH10.sol\":8371:8375  this */\n      address\n        /* \"contracts/WETH10.sol\":8334:8377  allowance[address(receiver)][address(this)] */\n      0xffffffffffffffffffffffffffffffffffffffff\n      and\n      0xffffffffffffffffffffffffffffffffffffffff\n      and\n      dup2\n      mstore\n      0x20\n      add\n      swap1\n      dup2\n      mstore\n      0x20\n      add\n      0x00\n      keccak256\n        /* \"contracts/WETH10.sol\":8334:8387  allowance[address(receiver)][address(this)] = reduced */\n      dup2\n      swap1\n      sstore\n      pop\n        /* \"contracts/WETH10.sol\":8443:8447  this */\n      address\n        /* \"contracts/WETH10.sol\":8407:8458  Approval(address(receiver), address(this), reduced) */\n      0xffffffffffffffffffffffffffffffffffffffff\n      and\n        /* \"contracts/WETH10.sol\":8424:8432  receiver */\n      dup9\n        /* \"contracts/WETH10.sol\":8407:8458  Approval(address(receiver), address(this), reduced) */\n      0xffffffffffffffffffffffffffffffffffffffff\n      and\n      0x8c5be1e5ebec7d5bd14f71427d1e84f3dd0314c0f7b2291e5b200ac8c7c3b925\n        /* \"contracts/WETH10.sol\":8450:8457  reduced */\n      dup4\n        /* \"contracts/WETH10.sol\":8407:8458  Approval(address(receiver), address(this), reduced) */\n      mload(0x40)\n      dup1\n      dup3\n      dup2\n      mstore\n      0x20\n      add\n      swap2\n      pop\n      pop\n      mload(0x40)\n      dup1\n      swap2\n      sub\n      swap1\n      log3\n        /* \"contracts/WETH10.sol\":8162:8470  if (allowed != type(uint256).max) {\r... */\n      pop\n    tag_206:\n        /* \"contracts/WETH10.sol\":8531:8546  uint256 balance */\n      0x00\n        /* \"contracts/WETH10.sol\":8549:8558  balanceOf */\n      dup1\n        /* \"contracts/WETH10.sol\":8549:8577  balanceOf[address(receiver)] */\n      0x00\n        /* \"contracts/WETH10.sol\":8567:8575  receiver */\n      dup10\n        /* \"contracts/WETH10.sol\":8549:8577  balanceOf[address(receiver)] */\n      0xffffffffffffffffffffffffffffffffffffffff\n      and\n      0xffffffffffffffffffffffffffffffffffffffff\n      and\n      dup2\n      mstore\n      0x20\n      add\n      swap1\n      dup2\n      mstore\n      0x20\n      add\n      0x00\n      keccak256\n      sload\n        /* \"contracts/WETH10.sol\":8531:8577  uint256 balance = balanceOf[address(receiver)] */\n      swap1\n      pop\n        /* \"contracts/WETH10.sol\":8607:8612  value */\n      dup6\n        /* \"contracts/WETH10.sol\":8596:8603  balance */\n      dup2\n        /* \"contracts/WETH10.sol\":8596:8612  balance >= value */\n      lt\n      iszero\n        /* \"contracts/WETH10.sol\":8588:8650  require(balance >= value, \"WETH: burn amount exceeds balance\") */\n      tag_208\n      jumpi\n      mload(0x40)\n      0x08c379a000000000000000000000000000000000000000000000000000000000\n      dup2\n      mstore\n      0x04\n      add\n      dup1\n      dup1\n      0x20\n      add\n      dup3\n      dup2\n      sub\n      dup3\n      mstore\n      0x21\n      dup2\n      mstore\n      0x20\n      add\n      dup1\n      data_e0a0905d916284ada246e39c08708cc92c829e81715f2d58402cb8d8e6454242\n      0x21\n      swap2\n      codecopy\n      0x40\n      add\n      swap2\n      pop\n      pop\n      mload(0x40)\n      dup1\n      swap2\n      sub\n      swap1\n      revert\n    tag_208:\n        /* \"contracts/WETH10.sol\":8702:8707  value */\n      dup6\n        /* \"contracts/WETH10.sol\":8692:8699  balance */\n      dup2\n        /* \"contracts/WETH10.sol\":8692:8707  balance - value */\n      sub\n        /* \"contracts/WETH10.sol\":8661:8670  balanceOf */\n      0x00\n        /* \"contracts/WETH10.sol\":8661:8689  balanceOf[address(receiver)] */\n      dup1\n        /* \"contracts/WETH10.sol\":8679:8687  receiver */\n      dup11\n        /* \"contracts/WETH10.sol\":8661:8689  balanceOf[address(receiver)] */\n      0xffffffffffffffffffffffffffffffffffffffff\n      and\n      0xffffffffffffffffffffffffffffffffffffffff\n      and\n      dup2\n      mstore\n      0x20\n      add\n      swap1\n      dup2\n      mstore\n      0x20\n      add\n      0x00\n      keccak256\n        /* \"contracts/WETH10.sol\":8661:8707  balanceOf[address(receiver)] = balance - value */\n      dup2\n      swap1\n      sstore\n      pop\n        /* \"contracts/WETH10.sol\":8759:8760  0 */\n      0x00\n        /* \"contracts/WETH10.sol\":8723:8769  Transfer(address(receiver), address(0), value) */\n      0xffffffffffffffffffffffffffffffffffffffff\n      and\n        /* \"contracts/WETH10.sol\":8740:8748  receiver */\n      dup9\n        /* \"contracts/WETH10.sol\":8723:8769  Transfer(address(receiver), address(0), value) */\n      0xffffffffffffffffffffffffffffffffffffffff\n      and\n      0xddf252ad1be2c89b69c2b068fc378daa952ba7f163c4a11628f55a4df523b3ef\n        /* \"contracts/WETH10.sol\":8763:8768  value */\n      dup9\n        /* \"contracts/WETH10.sol\":8723:8769  Transfer(address(receiver), address(0), value) */\n      mload(0x40)\n      dup1\n      dup3\n      dup2\n      mstore\n      0x20\n      add\n      swap2\n      pop\n      pop\n      mload(0x40)\n      dup1\n      swap2\n      sub\n      swap1\n      log3\n        /* \"contracts/WETH10.sol\":8818:8823  value */\n      dup6\n        /* \"contracts/WETH10.sol\":8804:8815  flashMinted */\n      sload(0x03)\n        /* \"contracts/WETH10.sol\":8804:8823  flashMinted - value */\n      sub\n        /* \"contracts/WETH10.sol\":8790:8801  flashMinted */\n      0x03\n        /* \"contracts/WETH10.sol\":8790:8823  flashMinted = flashMinted - value */\n      dup2\n      swap1\n      sstore\n      pop\n        /* \"contracts/WETH10.sol\":8841:8845  true */\n      0x01\n        /* \"contracts/WETH10.sol\":8834:8845  return true */\n      swap3\n      pop\n      pop\n      pop\n        /* \"contracts/WETH10.sol\":6951:8853  function flashLoan(IERC3156FlashBorrower receiver, address token, uint256 value, bytes calldata data) \r... */\n      swap6\n      swap5\n      pop\n      pop\n      pop\n      pop\n      pop\n      jump\t// out\n        /* \"contracts/WETH10.sol\":5178:5504  function depositToAndCall(address to, bytes calldata data) external override payable returns (bool success) {\r... */\n    tag_92:\n        /* \"contracts/WETH10.sol\":5272:5284  bool success */\n      0x00\n        /* \"contracts/WETH10.sol\":5350:5359  msg.value */\n      callvalue\n        /* \"contracts/WETH10.sol\":5333:5342  balanceOf */\n      0x00\n        /* \"contracts/WETH10.sol\":5333:5346  balanceOf[to] */\n      dup1\n        /* \"contracts/WETH10.sol\":5343:5345  to */\n      dup7\n        /* \"contracts/WETH10.sol\":5333:5346  balanceOf[to] */\n      0xffffffffffffffffffffffffffffffffffffffff\n      and\n      0xffffffffffffffffffffffffffffffffffffffff\n      and\n      dup2\n      mstore\n      0x20\n      add\n      swap1\n      dup2\n      mstore\n      0x20\n      add\n      0x00\n      keccak256\n      0x00\n        /* \"contracts/WETH10.sol\":5333:5359  balanceOf[to] += msg.value */\n      dup3\n      dup3\n      sload\n      add\n      swap3\n      pop\n      pop\n      dup2\n      swap1\n      sstore\n      pop\n        /* \"contracts/WETH10.sol\":5396:5398  to */\n      dup4\n        /* \"contracts/WETH10.sol\":5375:5410  Transfer(address(0), to, msg.value) */\n      0xffffffffffffffffffffffffffffffffffffffff\n      and\n        /* \"contracts/WETH10.sol\":5392:5393  0 */\n      0x00\n        /* \"contracts/WETH10.sol\":5375:5410  Transfer(address(0), to, msg.value) */\n      0xffffffffffffffffffffffffffffffffffffffff\n      and\n      0xddf252ad1be2c89b69c2b068fc378daa952ba7f163c4a11628f55a4df523b3ef\n        /* \"contracts/WETH10.sol\":5400:5409  msg.value */\n      callvalue\n        /* \"contracts/WETH10.sol\":5375:5410  Transfer(address(0), to, msg.value) */\n      mload(0x40)\n      dup1\n      dup3\n      dup2\n      mstore\n      0x20\n      add\n      swap2\n      pop\n      pop\n      mload(0x40)\n      dup1\n      swap2\n      sub\n      swap1\n      log3\n        /* \"contracts/WETH10.sol\":5448:5450  to */\n      dup4\n        /* \"contracts/WETH10.sol\":5430:5467  ITransferReceiver(to).onTokenTransfer */\n      0xffffffffffffffffffffffffffffffffffffffff\n      and\n      0xa4c0ed36\n        /* \"contracts/WETH10.sol\":5468:5478  msg.sender */\n      caller\n        /* \"contracts/WETH10.sol\":5480:5489  msg.value */\n      callvalue\n        /* \"contracts/WETH10.sol\":5491:5495  data */\n      dup7\n      dup7\n        /* \"contracts/WETH10.sol\":5430:5496  ITransferReceiver(to).onTokenTransfer(msg.sender, msg.value, data) */\n      mload(0x40)\n      dup6\n      0xffffffff\n      and\n      0xe0\n      shl\n      dup2\n      mstore\n      0x04\n      add\n      dup1\n      dup6\n      0xffffffffffffffffffffffffffffffffffffffff\n      and\n      dup2\n      mstore\n      0x20\n      add\n      dup5\n      dup2\n      mstore\n      0x20\n      add\n      dup1\n      0x20\n      add\n      dup3\n      dup2\n      sub\n      dup3\n      mstore\n      dup5\n      dup5\n      dup3\n      dup2\n      dup2\n      mstore\n      0x20\n      add\n      swap3\n      pop\n      dup1\n      dup3\n      dup5\n      calldatacopy\n      0x00\n      dup2\n      dup5\n      add\n      mstore\n      not(0x1f)\n      0x1f\n      dup3\n      add\n      and\n      swap1\n      pop\n      dup1\n      dup4\n      add\n      swap3\n      pop\n      pop\n      pop\n      swap6\n      pop\n      pop\n      pop\n      pop\n      pop\n      pop\n      0x20\n      mload(0x40)\n      dup1\n      dup4\n      sub\n      dup2\n      0x00\n      dup8\n      dup1\n      extcodesize\n      iszero\n      dup1\n      iszero\n      tag_210\n      jumpi\n      0x00\n      dup1\n      revert\n    tag_210:\n      pop\n      gas\n      call\n      iszero\n      dup1\n      iszero\n      tag_212\n      jumpi\n      returndatasize\n      0x00\n      dup1\n      returndatacopy\n      revert(0x00, returndatasize)\n    tag_212:\n      pop\n      pop\n      pop\n      pop\n      mload(0x40)\n      returndatasize\n      0x20\n      dup2\n      lt\n      iszero\n      tag_213\n      jumpi\n      0x00\n      dup1\n      revert\n    tag_213:\n      dup2\n      add\n      swap1\n      dup1\n      dup1\n      mload\n      swap1\n      0x20\n      add\n      swap1\n      swap3\n      swap2\n      swap1\n      pop\n      pop\n      pop\n        /* \"contracts/WETH10.sol\":5423:5496  return ITransferReceiver(to).onTokenTransfer(msg.sender, msg.value, data) */\n      swap1\n      pop\n        /* \"contracts/WETH10.sol\":5178:5504  function depositToAndCall(address to, bytes calldata data) external override payable returns (bool success) {\r... */\n      swap4\n      swap3\n      pop\n      pop\n      pop\n      jump\t// out\n        /* \"contracts/WETH10.sol\":5584:5767  function maxFlashLoan(address token) external view override returns (uint256) {\r... */\n    tag_96:\n        /* \"contracts/WETH10.sol\":5653:5660  uint256 */\n      0x00\n        /* \"contracts/WETH10.sol\":5697:5701  this */\n      address\n        /* \"contracts/WETH10.sol\":5680:5702  token == address(this) */\n      0xffffffffffffffffffffffffffffffffffffffff\n      and\n        /* \"contracts/WETH10.sol\":5680:5685  token */\n      dup3\n        /* \"contracts/WETH10.sol\":5680:5702  token == address(this) */\n      0xffffffffffffffffffffffffffffffffffffffff\n      and\n      eq\n        /* \"contracts/WETH10.sol\":5680:5740  token == address(this) ? type(uint112).max - flashMinted : 0 */\n      tag_215\n      jumpi\n        /* \"contracts/WETH10.sol\":5739:5740  0 */\n      0x00\n        /* \"contracts/WETH10.sol\":5680:5740  token == address(this) ? type(uint112).max - flashMinted : 0 */\n      jump(tag_216)\n    tag_215:\n        /* \"contracts/WETH10.sol\":5725:5736  flashMinted */\n      sload(0x03)\n        /* \"contracts/WETH10.sol\":5705:5722  type(uint112).max */\n      0xffffffffffffffffffffffffffff\n        /* \"contracts/WETH10.sol\":5705:5736  type(uint112).max - flashMinted */\n      dup1\n      and\n      sub\n        /* \"contracts/WETH10.sol\":5680:5740  token == address(this) ? type(uint112).max - flashMinted : 0 */\n    tag_216:\n        /* \"contracts/WETH10.sol\":5673:5740  return token == address(this) ? type(uint112).max - flashMinted : 0 */\n      swap1\n      pop\n        /* \"contracts/WETH10.sol\":5584:5767  function maxFlashLoan(address token) external view override returns (uint256) {\r... */\n      swap2\n      swap1\n      pop\n      jump\t// out\n        /* \"contracts/WETH10.sol\":1508:1562  mapping (address => uint256) public override balanceOf */\n    tag_100:\n      mstore(0x20, 0x00)\n      dup1\n      0x00\n      mstore\n      keccak256(0x00, 0x40)\n      0x00\n      swap2\n      pop\n      swap1\n      pop\n      sload\n      dup2\n      jump\t// out\n        /* \"contracts/WETH10.sol\":1835:1886  mapping (address => uint256) public override nonces */\n    tag_104:\n      mstore(0x20, 0x01)\n      dup1\n      0x00\n      mstore\n      keccak256(0x00, 0x40)\n      0x00\n      swap2\n      pop\n      swap1\n      pop\n      sload\n      dup2\n      jump\t// out\n        /* \"contracts/WETH10.sol\":1103:1192  bytes32 public immutable CALLBACK_SUCCESS = keccak256(\"ERC3156FlashBorrower.onFlashLoan\") */\n    tag_107:\n      immutable(\"0x2e9b7c94e032d8b3b8b30bd825717a5ac74958b53e7c37a892a4fd7dc56e4975\")\n      dup2\n      jump\t// out\n        /* \"contracts/WETH10.sol\":2191:2226  uint256 public override flashMinted */\n    tag_110:\n      sload(0x03)\n      dup2\n      jump\t// out\n        /* \"contracts/WETH10.sol\":11163:12155  function withdrawFrom(address from, address payable to, uint256 value) external override {\r... */\n    tag_114:\n        /* \"contracts/WETH10.sol\":11275:11285  msg.sender */\n      caller\n        /* \"contracts/WETH10.sol\":11267:11285  from != msg.sender */\n      0xffffffffffffffffffffffffffffffffffffffff\n      and\n        /* \"contracts/WETH10.sol\":11267:11271  from */\n      dup4\n        /* \"contracts/WETH10.sol\":11267:11285  from != msg.sender */\n      0xffffffffffffffffffffffffffffffffffffffff\n      and\n      eq\n        /* \"contracts/WETH10.sol\":11263:11730  if (from != msg.sender) {\r... */\n      tag_218\n      jumpi\n        /* \"contracts/WETH10.sol\":11363:11378  uint256 allowed */\n      0x00\n        /* \"contracts/WETH10.sol\":11381:11390  allowance */\n      0x02\n        /* \"contracts/WETH10.sol\":11381:11396  allowance[from] */\n      0x00\n        /* \"contracts/WETH10.sol\":11391:11395  from */\n      dup6\n        /* \"contracts/WETH10.sol\":11381:11396  allowance[from] */\n      0xffffffffffffffffffffffffffffffffffffffff\n      and\n      0xffffffffffffffffffffffffffffffffffffffff\n      and\n      dup2\n      mstore\n      0x20\n      add\n      swap1\n      dup2\n      mstore\n      0x20\n      add\n      0x00\n      keccak256\n        /* \"contracts/WETH10.sol\":11381:11408  allowance[from][msg.sender] */\n      0x00\n        /* \"contracts/WETH10.sol\":11397:11407  msg.sender */\n      caller\n        /* \"contracts/WETH10.sol\":11381:11408  allowance[from][msg.sender] */\n      0xffffffffffffffffffffffffffffffffffffffff\n      and\n      0xffffffffffffffffffffffffffffffffffffffff\n      and\n      dup2\n      mstore\n      0x20\n      add\n      swap1\n      dup2\n      mstore\n      0x20\n      add\n      0x00\n      keccak256\n      sload\n        /* \"contracts/WETH10.sol\":11363:11408  uint256 allowed = allowance[from][msg.sender] */\n      swap1\n      pop\n        /* \"contracts/WETH10.sol\":11438:11455  type(uint256).max */\n      0xffffffffffffffffffffffffffffffffffffffffffffffffffffffffffffffff\n        /* \"contracts/WETH10.sol\":11427:11434  allowed */\n      dup2\n        /* \"contracts/WETH10.sol\":11427:11455  allowed != type(uint256).max */\n      eq\n        /* \"contracts/WETH10.sol\":11423:11719  if (allowed != type(uint256).max) {\r... */\n      tag_219\n      jumpi\n        /* \"contracts/WETH10.sol\":11495:11500  value */\n      dup2\n        /* \"contracts/WETH10.sol\":11484:11491  allowed */\n      dup2\n        /* \"contracts/WETH10.sol\":11484:11500  allowed >= value */\n      lt\n      iszero\n        /* \"contracts/WETH10.sol\":11476:11536  require(allowed >= value, \"WETH: request exceeds allowance\") */\n      tag_220\n      jumpi\n      mload(0x40)\n      0x08c379a000000000000000000000000000000000000000000000000000000000\n      dup2\n      mstore\n      0x04\n      add\n      dup1\n      dup1\n      0x20\n      add\n      dup3\n      dup2\n      sub\n      dup3\n      mstore\n      0x1f\n      dup2\n      mstore\n      0x20\n      add\n      dup1\n      0x574554483a2072657175657374206578636565647320616c6c6f77616e636500\n      dup2\n      mstore\n      pop\n      0x20\n      add\n      swap2\n      pop\n      pop\n      mload(0x40)\n      dup1\n      swap2\n      sub\n      swap1\n      revert\n    tag_220:\n        /* \"contracts/WETH10.sol\":11555:11570  uint256 reduced */\n      0x00\n        /* \"contracts/WETH10.sol\":11583:11588  value */\n      dup3\n        /* \"contracts/WETH10.sol\":11573:11580  allowed */\n      dup3\n        /* \"contracts/WETH10.sol\":11573:11588  allowed - value */\n      sub\n        /* \"contracts/WETH10.sol\":11555:11588  uint256 reduced = allowed - value */\n      swap1\n      pop\n        /* \"contracts/WETH10.sol\":11637:11644  reduced */\n      dup1\n        /* \"contracts/WETH10.sol\":11607:11616  allowance */\n      0x02\n        /* \"contracts/WETH10.sol\":11607:11622  allowance[from] */\n      0x00\n        /* \"contracts/WETH10.sol\":11617:11621  from */\n      dup8\n        /* \"contracts/WETH10.sol\":11607:11622  allowance[from] */\n      0xffffffffffffffffffffffffffffffffffffffff\n      and\n      0xffffffffffffffffffffffffffffffffffffffff\n      and\n      dup2\n      mstore\n      0x20\n      add\n      swap1\n      dup2\n      mstore\n      0x20\n      add\n      0x00\n      keccak256\n        /* \"contracts/WETH10.sol\":11607:11634  allowance[from][msg.sender] */\n      0x00\n        /* \"contracts/WETH10.sol\":11623:11633  msg.sender */\n      caller\n        /* \"contracts/WETH10.sol\":11607:11634  allowance[from][msg.sender] */\n      0xffffffffffffffffffffffffffffffffffffffff\n      and\n      0xffffffffffffffffffffffffffffffffffffffff\n      and\n      dup2\n      mstore\n      0x20\n      add\n      swap1\n      dup2\n      mstore\n      0x20\n      add\n      0x00\n      keccak256\n        /* \"contracts/WETH10.sol\":11607:11644  allowance[from][msg.sender] = reduced */\n      dup2\n      swap1\n      sstore\n      pop\n        /* \"contracts/WETH10.sol\":11683:11693  msg.sender */\n      caller\n        /* \"contracts/WETH10.sol\":11668:11703  Approval(from, msg.sender, reduced) */\n      0xffffffffffffffffffffffffffffffffffffffff\n      and\n        /* \"contracts/WETH10.sol\":11677:11681  from */\n      dup6\n        /* \"contracts/WETH10.sol\":11668:11703  Approval(from, msg.sender, reduced) */\n      0xffffffffffffffffffffffffffffffffffffffff\n      and\n      0x8c5be1e5ebec7d5bd14f71427d1e84f3dd0314c0f7b2291e5b200ac8c7c3b925\n        /* \"contracts/WETH10.sol\":11695:11702  reduced */\n      dup4\n        /* \"contracts/WETH10.sol\":11668:11703  Approval(from, msg.sender, reduced) */\n      mload(0x40)\n      dup1\n      dup3\n      dup2\n      mstore\n      0x20\n      add\n      swap2\n      pop\n      pop\n      mload(0x40)\n      dup1\n      swap2\n      sub\n      swap1\n      log3\n        /* \"contracts/WETH10.sol\":11423:11719  if (allowed != type(uint256).max) {\r... */\n      pop\n    tag_219:\n        /* \"contracts/WETH10.sol\":11263:11730  if (from != msg.sender) {\r... */\n      pop\n    tag_218:\n        /* \"contracts/WETH10.sol\":11786:11801  uint256 balance */\n      0x00\n        /* \"contracts/WETH10.sol\":11804:11813  balanceOf */\n      dup1\n        /* \"contracts/WETH10.sol\":11804:11819  balanceOf[from] */\n      0x00\n        /* \"contracts/WETH10.sol\":11814:11818  from */\n      dup6\n        /* \"contracts/WETH10.sol\":11804:11819  balanceOf[from] */\n      0xffffffffffffffffffffffffffffffffffffffff\n      and\n      0xffffffffffffffffffffffffffffffffffffffff\n      and\n      dup2\n      mstore\n      0x20\n      add\n      swap1\n      dup2\n      mstore\n      0x20\n      add\n      0x00\n      keccak256\n      sload\n        /* \"contracts/WETH10.sol\":11786:11819  uint256 balance = balanceOf[from] */\n      swap1\n      pop\n        /* \"contracts/WETH10.sol\":11849:11854  value */\n      dup2\n        /* \"contracts/WETH10.sol\":11838:11845  balance */\n      dup2\n        /* \"contracts/WETH10.sol\":11838:11854  balance >= value */\n      lt\n      iszero\n        /* \"contracts/WETH10.sol\":11830:11892  require(balance >= value, \"WETH: burn amount exceeds balance\") */\n      tag_221\n      jumpi\n      mload(0x40)\n      0x08c379a000000000000000000000000000000000000000000000000000000000\n      dup2\n      mstore\n      0x04\n      add\n      dup1\n      dup1\n      0x20\n      add\n      dup3\n      dup2\n      sub\n      dup3\n      mstore\n      0x21\n      dup2\n      mstore\n      0x20\n      add\n      dup1\n      data_e0a0905d916284ada246e39c08708cc92c829e81715f2d58402cb8d8e6454242\n      0x21\n      swap2\n      codecopy\n      0x40\n      add\n      swap2\n      pop\n      pop\n      mload(0x40)\n      dup1\n      swap2\n      sub\n      swap1\n      revert\n    tag_221:\n        /* \"contracts/WETH10.sol\":11931:11936  value */\n      dup2\n        /* \"contracts/WETH10.sol\":11921:11928  balance */\n      dup2\n        /* \"contracts/WETH10.sol\":11921:11936  balance - value */\n      sub\n        /* \"contracts/WETH10.sol\":11903:11912  balanceOf */\n      0x00\n        /* \"contracts/WETH10.sol\":11903:11918  balanceOf[from] */\n      dup1\n        /* \"contracts/WETH10.sol\":11913:11917  from */\n      dup7\n        /* \"contracts/WETH10.sol\":11903:11918  balanceOf[from] */\n      0xffffffffffffffffffffffffffffffffffffffff\n      and\n      0xffffffffffffffffffffffffffffffffffffffff\n      and\n      dup2\n      mstore\n      0x20\n      add\n      swap1\n      dup2\n      mstore\n      0x20\n      add\n      0x00\n      keccak256\n        /* \"contracts/WETH10.sol\":11903:11936  balanceOf[from] = balance - value */\n      dup2\n      swap1\n      sstore\n      pop\n        /* \"contracts/WETH10.sol\":11975:11976  0 */\n      0x00\n        /* \"contracts/WETH10.sol\":11952:11985  Transfer(from, address(0), value) */\n      0xffffffffffffffffffffffffffffffffffffffff\n      and\n        /* \"contracts/WETH10.sol\":11961:11965  from */\n      dup5\n        /* \"contracts/WETH10.sol\":11952:11985  Transfer(from, address(0), value) */\n      0xffffffffffffffffffffffffffffffffffffffff\n      and\n      0xddf252ad1be2c89b69c2b068fc378daa952ba7f163c4a11628f55a4df523b3ef\n        /* \"contracts/WETH10.sol\":11979:11984  value */\n      dup5\n        /* \"contracts/WETH10.sol\":11952:11985  Transfer(from, address(0), value) */\n      mload(0x40)\n      dup1\n      dup3\n      dup2\n      mstore\n      0x20\n      add\n      swap2\n      pop\n      pop\n      mload(0x40)\n      dup1\n      swap2\n      sub\n      swap1\n      log3\n        /* \"contracts/WETH10.sol\":12046:12058  bool success */\n      0x00\n        /* \"contracts/WETH10.sol\":12064:12066  to */\n      dup4\n        /* \"contracts/WETH10.sol\":12064:12071  to.call */\n      0xffffffffffffffffffffffffffffffffffffffff\n      and\n        /* \"contracts/WETH10.sol\":12079:12084  value */\n      dup4\n        /* \"contracts/WETH10.sol\":12064:12089  to.call{value: value}(\"\") */\n      mload(0x40)\n      dup1\n      0x00\n      add\n      swap1\n      pop\n      0x00\n      mload(0x40)\n      dup1\n      dup4\n      sub\n      dup2\n      dup6\n      dup8\n      gas\n      call\n      swap3\n      pop\n      pop\n      pop\n      returndatasize\n      dup1\n      0x00\n      dup2\n      eq\n      tag_224\n      jumpi\n      mload(0x40)\n      swap2\n      pop\n      and(add(returndatasize, 0x3f), not(0x1f))\n      dup3\n      add\n      0x40\n      mstore\n      returndatasize\n      dup3\n      mstore\n      returndatasize\n      0x00\n      0x20\n      dup5\n      add\n      returndatacopy\n      jump(tag_223)\n    tag_224:\n      0x60\n      swap2\n      pop\n    tag_223:\n      pop\n        /* \"contracts/WETH10.sol\":12045:12089  (bool success, ) = to.call{value: value}(\"\") */\n      pop\n      swap1\n      pop\n        /* \"contracts/WETH10.sol\":12108:12115  success */\n      dup1\n        /* \"contracts/WETH10.sol\":12100:12147  require(success, \"WETH: Ether transfer failed\") */\n      tag_225\n      jumpi\n      mload(0x40)\n      0x08c379a000000000000000000000000000000000000000000000000000000000\n      dup2\n      mstore\n      0x04\n      add\n      dup1\n      dup1\n      0x20\n      add\n      dup3\n      dup2\n      sub\n      dup3\n      mstore\n      0x1b\n      dup2\n      mstore\n      0x20\n      add\n      dup1\n      0x574554483a204574686572207472616e73666572206661696c65640000000000\n      dup2\n      mstore\n      pop\n      0x20\n      add\n      swap2\n      pop\n      pop\n      mload(0x40)\n      dup1\n      swap2\n      sub\n      swap1\n      revert\n    tag_225:\n        /* \"contracts/WETH10.sol\":11163:12155  function withdrawFrom(address from, address payable to, uint256 value) external override {\r... */\n      pop\n      pop\n      pop\n      pop\n      pop\n      jump\t// out\n        /* \"contracts/WETH10.sol\":989:1029  string public constant symbol = \"WETH10\" */\n    tag_117:\n      mload(0x40)\n      dup1\n      0x40\n      add\n      0x40\n      mstore\n      dup1\n      0x06\n      dup2\n      mstore\n      0x20\n      add\n      0x5745544831300000000000000000000000000000000000000000000000000000\n      dup2\n      mstore\n      pop\n      dup2\n      jump\t// out\n        /* \"contracts/WETH10.sol\":15647:16565  function transfer(address to, uint256 value) external override returns (bool) {\r... */\n    tag_125:\n        /* \"contracts/WETH10.sol\":15719:15723  bool */\n      0x00\n        /* \"contracts/WETH10.sol\":15804:15805  0 */\n      dup1\n        /* \"contracts/WETH10.sol\":15790:15806  to != address(0) */\n      0xffffffffffffffffffffffffffffffffffffffff\n      and\n        /* \"contracts/WETH10.sol\":15790:15792  to */\n      dup4\n        /* \"contracts/WETH10.sol\":15790:15806  to != address(0) */\n      0xffffffffffffffffffffffffffffffffffffffff\n      and\n      eq\n        /* \"contracts/WETH10.sol\":15786:16526  if (to != address(0)) { // Transfer\r... */\n      tag_227\n      jumpi\n        /* \"contracts/WETH10.sol\":15835:15850  uint256 balance */\n      0x00\n        /* \"contracts/WETH10.sol\":15853:15862  balanceOf */\n      dup1\n        /* \"contracts/WETH10.sol\":15853:15874  balanceOf[msg.sender] */\n      0x00\n        /* \"contracts/WETH10.sol\":15863:15873  msg.sender */\n      caller\n        /* \"contracts/WETH10.sol\":15853:15874  balanceOf[msg.sender] */\n      0xffffffffffffffffffffffffffffffffffffffff\n      and\n      0xffffffffffffffffffffffffffffffffffffffff\n      and\n      dup2\n      mstore\n      0x20\n      add\n      swap1\n      dup2\n      mstore\n      0x20\n      add\n      0x00\n      keccak256\n      sload\n        /* \"contracts/WETH10.sol\":15835:15874  uint256 balance = balanceOf[msg.sender] */\n      swap1\n      pop\n        /* \"contracts/WETH10.sol\":15908:15913  value */\n      dup3\n        /* \"contracts/WETH10.sol\":15897:15904  balance */\n      dup2\n        /* \"contracts/WETH10.sol\":15897:15913  balance >= value */\n      lt\n      iszero\n        /* \"contracts/WETH10.sol\":15889:15955  require(balance >= value, \"WETH: transfer amount exceeds balance\") */\n      tag_228\n      jumpi\n      mload(0x40)\n      0x08c379a000000000000000000000000000000000000000000000000000000000\n      dup2\n      mstore\n      0x04\n      add\n      dup1\n      dup1\n      0x20\n      add\n      dup3\n      dup2\n      sub\n      dup3\n      mstore\n      0x25\n      dup2\n      mstore\n      0x20\n      add\n      dup1\n      data_391bd9858d691b2fb04b43168eb6c31973f0951c8dda7fcdcf0232f5206b45da\n      0x25\n      swap2\n      codecopy\n      0x40\n      add\n      swap2\n      pop\n      pop\n      mload(0x40)\n      dup1\n      swap2\n      sub\n      swap1\n      revert\n    tag_228:\n        /* \"contracts/WETH10.sol\":16006:16011  value */\n      dup3\n        /* \"contracts/WETH10.sol\":15996:16003  balance */\n      dup2\n        /* \"contracts/WETH10.sol\":15996:16011  balance - value */\n      sub\n        /* \"contracts/WETH10.sol\":15972:15981  balanceOf */\n      0x00\n        /* \"contracts/WETH10.sol\":15972:15993  balanceOf[msg.sender] */\n      dup1\n        /* \"contracts/WETH10.sol\":15982:15992  msg.sender */\n      caller\n        /* \"contracts/WETH10.sol\":15972:15993  balanceOf[msg.sender] */\n      0xffffffffffffffffffffffffffffffffffffffff\n      and\n      0xffffffffffffffffffffffffffffffffffffffff\n      and\n      dup2\n      mstore\n      0x20\n      add\n      swap1\n      dup2\n      mstore\n      0x20\n      add\n      0x00\n      keccak256\n        /* \"contracts/WETH10.sol\":15972:16011  balanceOf[msg.sender] = balance - value */\n      dup2\n      swap1\n      sstore\n      pop\n        /* \"contracts/WETH10.sol\":16043:16048  value */\n      dup3\n        /* \"contracts/WETH10.sol\":16026:16035  balanceOf */\n      0x00\n        /* \"contracts/WETH10.sol\":16026:16039  balanceOf[to] */\n      dup1\n        /* \"contracts/WETH10.sol\":16036:16038  to */\n      dup7\n        /* \"contracts/WETH10.sol\":16026:16039  balanceOf[to] */\n      0xffffffffffffffffffffffffffffffffffffffff\n      and\n      0xffffffffffffffffffffffffffffffffffffffff\n      and\n      dup2\n      mstore\n      0x20\n      add\n      swap1\n      dup2\n      mstore\n      0x20\n      add\n      0x00\n      keccak256\n      0x00\n        /* \"contracts/WETH10.sol\":16026:16048  balanceOf[to] += value */\n      dup3\n      dup3\n      sload\n      add\n      swap3\n      pop\n      pop\n      dup2\n      swap1\n      sstore\n      pop\n        /* \"contracts/WETH10.sol\":16089:16091  to */\n      dup4\n        /* \"contracts/WETH10.sol\":16068:16099  Transfer(msg.sender, to, value) */\n      0xffffffffffffffffffffffffffffffffffffffff\n      and\n        /* \"contracts/WETH10.sol\":16077:16087  msg.sender */\n      caller\n        /* \"contracts/WETH10.sol\":16068:16099  Transfer(msg.sender, to, value) */\n      0xffffffffffffffffffffffffffffffffffffffff\n      and\n      0xddf252ad1be2c89b69c2b068fc378daa952ba7f163c4a11628f55a4df523b3ef\n        /* \"contracts/WETH10.sol\":16093:16098  value */\n      dup6\n        /* \"contracts/WETH10.sol\":16068:16099  Transfer(msg.sender, to, value) */\n      mload(0x40)\n      dup1\n      dup3\n      dup2\n      mstore\n      0x20\n      add\n      swap2\n      pop\n      pop\n      mload(0x40)\n      dup1\n      swap2\n      sub\n      swap1\n      log3\n        /* \"contracts/WETH10.sol\":15786:16526  if (to != address(0)) { // Transfer\r... */\n      pop\n      jump(tag_229)\n    tag_227:\n        /* \"contracts/WETH10.sol\":16144:16159  uint256 balance */\n      0x00\n        /* \"contracts/WETH10.sol\":16162:16171  balanceOf */\n      dup1\n        /* \"contracts/WETH10.sol\":16162:16183  balanceOf[msg.sender] */\n      0x00\n        /* \"contracts/WETH10.sol\":16172:16182  msg.sender */\n      caller\n        /* \"contracts/WETH10.sol\":16162:16183  balanceOf[msg.sender] */\n      0xffffffffffffffffffffffffffffffffffffffff\n      and\n      0xffffffffffffffffffffffffffffffffffffffff\n      and\n      dup2\n      mstore\n      0x20\n      add\n      swap1\n      dup2\n      mstore\n      0x20\n      add\n      0x00\n      keccak256\n      sload\n        /* \"contracts/WETH10.sol\":16144:16183  uint256 balance = balanceOf[msg.sender] */\n      swap1\n      pop\n        /* \"contracts/WETH10.sol\":16217:16222  value */\n      dup3\n        /* \"contracts/WETH10.sol\":16206:16213  balance */\n      dup2\n        /* \"contracts/WETH10.sol\":16206:16222  balance >= value */\n      lt\n      iszero\n        /* \"contracts/WETH10.sol\":16198:16260  require(balance >= value, \"WETH: burn amount exceeds balance\") */\n      tag_230\n      jumpi\n      mload(0x40)\n      0x08c379a000000000000000000000000000000000000000000000000000000000\n      dup2\n      mstore\n      0x04\n      add\n      dup1\n      dup1\n      0x20\n      add\n      dup3\n      dup2\n      sub\n      dup3\n      mstore\n      0x21\n      dup2\n      mstore\n      0x20\n      add\n      dup1\n      data_e0a0905d916284ada246e39c08708cc92c829e81715f2d58402cb8d8e6454242\n      0x21\n      swap2\n      codecopy\n      0x40\n      add\n      swap2\n      pop\n      pop\n      mload(0x40)\n      dup1\n      swap2\n      sub\n      swap1\n      revert\n    tag_230:\n        /* \"contracts/WETH10.sol\":16309:16314  value */\n      dup3\n        /* \"contracts/WETH10.sol\":16299:16306  balance */\n      dup2\n        /* \"contracts/WETH10.sol\":16299:16314  balance - value */\n      sub\n        /* \"contracts/WETH10.sol\":16275:16284  balanceOf */\n      0x00\n        /* \"contracts/WETH10.sol\":16275:16296  balanceOf[msg.sender] */\n      dup1\n        /* \"contracts/WETH10.sol\":16285:16295  msg.sender */\n      caller\n        /* \"contracts/WETH10.sol\":16275:16296  balanceOf[msg.sender] */\n      0xffffffffffffffffffffffffffffffffffffffff\n      and\n      0xffffffffffffffffffffffffffffffffffffffff\n      and\n      dup2\n      mstore\n      0x20\n      add\n      swap1\n      dup2\n      mstore\n      0x20\n      add\n      0x00\n      keccak256\n        /* \"contracts/WETH10.sol\":16275:16314  balanceOf[msg.sender] = balance - value */\n      dup2\n      swap1\n      sstore\n      pop\n        /* \"contracts/WETH10.sol\":16363:16364  0 */\n      0x00\n        /* \"contracts/WETH10.sol\":16334:16373  Transfer(msg.sender, address(0), value) */\n      0xffffffffffffffffffffffffffffffffffffffff\n      and\n        /* \"contracts/WETH10.sol\":16343:16353  msg.sender */\n      caller\n        /* \"contracts/WETH10.sol\":16334:16373  Transfer(msg.sender, address(0), value) */\n      0xffffffffffffffffffffffffffffffffffffffff\n      and\n      0xddf252ad1be2c89b69c2b068fc378daa952ba7f163c4a11628f55a4df523b3ef\n        /* \"contracts/WETH10.sol\":16367:16372  value */\n      dup6\n        /* \"contracts/WETH10.sol\":16334:16373  Transfer(msg.sender, address(0), value) */\n      mload(0x40)\n      dup1\n      dup3\n      dup2\n      mstore\n      0x20\n      add\n      swap2\n      pop\n      pop\n      mload(0x40)\n      dup1\n      swap2\n      sub\n      swap1\n      log3\n        /* \"contracts/WETH10.sol\":16403:16415  bool success */\n      0x00\n        /* \"contracts/WETH10.sol\":16421:16431  msg.sender */\n      caller\n        /* \"contracts/WETH10.sol\":16421:16436  msg.sender.call */\n      0xffffffffffffffffffffffffffffffffffffffff\n      and\n        /* \"contracts/WETH10.sol\":16444:16449  value */\n      dup5\n        /* \"contracts/WETH10.sol\":16421:16454  msg.sender.call{value: value}(\"\") */\n      mload(0x40)\n      dup1\n      0x00\n      add\n      swap1\n      pop\n      0x00\n      mload(0x40)\n      dup1\n      dup4\n      sub\n      dup2\n      dup6\n      dup8\n      gas\n      call\n      swap3\n      pop\n      pop\n      pop\n      returndatasize\n      dup1\n      0x00\n      dup2\n      eq\n      tag_233\n      jumpi\n      mload(0x40)\n      swap2\n      pop\n      and(add(returndatasize, 0x3f), not(0x1f))\n      dup3\n      add\n      0x40\n      mstore\n      returndatasize\n      dup3\n      mstore\n      returndatasize\n      0x00\n      0x20\n      dup5\n      add\n      returndatacopy\n      jump(tag_232)\n    tag_233:\n      0x60\n      swap2\n      pop\n    tag_232:\n      pop\n        /* \"contracts/WETH10.sol\":16402:16454  (bool success, ) = msg.sender.call{value: value}(\"\") */\n      pop\n      swap1\n      pop\n        /* \"contracts/WETH10.sol\":16477:16484  success */\n      dup1\n        /* \"contracts/WETH10.sol\":16469:16514  require(success, \"WETH: ETH transfer failed\") */\n      tag_234\n      jumpi\n      mload(0x40)\n      0x08c379a000000000000000000000000000000000000000000000000000000000\n      dup2\n      mstore\n      0x04\n      add\n      dup1\n      dup1\n      0x20\n      add\n      dup3\n      dup2\n      sub\n      dup3\n      mstore\n      0x19\n      dup2\n      mstore\n      0x20\n      add\n      dup1\n      0x574554483a20455448207472616e73666572206661696c656400000000000000\n      dup2\n      mstore\n      pop\n      0x20\n      add\n      swap2\n      pop\n      pop\n      mload(0x40)\n      dup1\n      swap2\n      sub\n      swap1\n      revert\n    tag_234:\n        /* \"contracts/WETH10.sol\":15786:16526  if (to != address(0)) { // Transfer\r... */\n      pop\n      pop\n    tag_229:\n        /* \"contracts/WETH10.sol\":16553:16557  true */\n      0x01\n        /* \"contracts/WETH10.sol\":16546:16557  return true */\n      swap1\n      pop\n        /* \"contracts/WETH10.sol\":15647:16565  function transfer(address to, uint256 value) external override returns (bool) {\r... */\n      swap3\n      swap2\n      pop\n      pop\n      jump\t// out\n        /* \"contracts/WETH10.sol\":4550:4739  function depositTo(address to) external override payable {\r... */\n    tag_128:\n        /* \"contracts/WETH10.sol\":4671:4680  msg.value */\n      callvalue\n        /* \"contracts/WETH10.sol\":4654:4663  balanceOf */\n      0x00\n        /* \"contracts/WETH10.sol\":4654:4667  balanceOf[to] */\n      dup1\n        /* \"contracts/WETH10.sol\":4664:4666  to */\n      dup4\n        /* \"contracts/WETH10.sol\":4654:4667  balanceOf[to] */\n      0xffffffffffffffffffffffffffffffffffffffff\n      and\n      0xffffffffffffffffffffffffffffffffffffffff\n      and\n      dup2\n      mstore\n      0x20\n      add\n      swap1\n      dup2\n      mstore\n      0x20\n      add\n      0x00\n      keccak256\n      0x00\n        /* \"contracts/WETH10.sol\":4654:4680  balanceOf[to] += msg.value */\n      dup3\n      dup3\n      sload\n      add\n      swap3\n      pop\n      pop\n      dup2\n      swap1\n      sstore\n      pop\n        /* \"contracts/WETH10.sol\":4717:4719  to */\n      dup1\n        /* \"contracts/WETH10.sol\":4696:4731  Transfer(address(0), to, msg.value) */\n      0xffffffffffffffffffffffffffffffffffffffff\n      and\n        /* \"contracts/WETH10.sol\":4713:4714  0 */\n      0x00\n        /* \"contracts/WETH10.sol\":4696:4731  Transfer(address(0), to, msg.value) */\n      0xffffffffffffffffffffffffffffffffffffffff\n      and\n      0xddf252ad1be2c89b69c2b068fc378daa952ba7f163c4a11628f55a4df523b3ef\n        /* \"contracts/WETH10.sol\":4721:4730  msg.value */\n      callvalue\n        /* \"contracts/WETH10.sol\":4696:4731  Transfer(address(0), to, msg.value) */\n      mload(0x40)\n      dup1\n      dup3\n      dup2\n      mstore\n      0x20\n      add\n      swap2\n      pop\n      pop\n      mload(0x40)\n      dup1\n      swap2\n      sub\n      swap1\n      log3\n        /* \"contracts/WETH10.sol\":4550:4739  function depositTo(address to) external override payable {\r... */\n      pop\n      jump\t// out\n        /* \"contracts/WETH10.sol\":13044:13408  function approveAndCall(address spender, uint256 value, bytes calldata data) external override returns (bool) {\r... */\n    tag_135:\n        /* \"contracts/WETH10.sol\":13148:13152  bool */\n      0x00\n        /* \"contracts/WETH10.sol\":13248:13253  value */\n      dup4\n        /* \"contracts/WETH10.sol\":13215:13224  allowance */\n      0x02\n        /* \"contracts/WETH10.sol\":13215:13236  allowance[msg.sender] */\n      0x00\n        /* \"contracts/WETH10.sol\":13225:13235  msg.sender */\n      caller\n        /* \"contracts/WETH10.sol\":13215:13236  allowance[msg.sender] */\n      0xffffffffffffffffffffffffffffffffffffffff\n      and\n      0xffffffffffffffffffffffffffffffffffffffff\n      and\n      dup2\n      mstore\n      0x20\n      add\n      swap1\n      dup2\n      mstore\n      0x20\n      add\n      0x00\n      keccak256\n        /* \"contracts/WETH10.sol\":13215:13245  allowance[msg.sender][spender] */\n      0x00\n        /* \"contracts/WETH10.sol\":13237:13244  spender */\n      dup8\n        /* \"contracts/WETH10.sol\":13215:13245  allowance[msg.sender][spender] */\n      0xffffffffffffffffffffffffffffffffffffffff\n      and\n      0xffffffffffffffffffffffffffffffffffffffff\n      and\n      dup2\n      mstore\n      0x20\n      add\n      swap1\n      dup2\n      mstore\n      0x20\n      add\n      0x00\n      keccak256\n        /* \"contracts/WETH10.sol\":13215:13253  allowance[msg.sender][spender] = value */\n      dup2\n      swap1\n      sstore\n      pop\n        /* \"contracts/WETH10.sol\":13290:13297  spender */\n      dup5\n        /* \"contracts/WETH10.sol\":13269:13305  Approval(msg.sender, spender, value) */\n      0xffffffffffffffffffffffffffffffffffffffff\n      and\n        /* \"contracts/WETH10.sol\":13278:13288  msg.sender */\n      caller\n        /* \"contracts/WETH10.sol\":13269:13305  Approval(msg.sender, spender, value) */\n      0xffffffffffffffffffffffffffffffffffffffff\n      and\n      0x8c5be1e5ebec7d5bd14f71427d1e84f3dd0314c0f7b2291e5b200ac8c7c3b925\n        /* \"contracts/WETH10.sol\":13299:13304  value */\n      dup7\n        /* \"contracts/WETH10.sol\":13269:13305  Approval(msg.sender, spender, value) */\n      mload(0x40)\n      dup1\n      dup3\n      dup2\n      mstore\n      0x20\n      add\n      swap2\n      pop\n      pop\n      mload(0x40)\n      dup1\n      swap2\n      sub\n      swap1\n      log3\n        /* \"contracts/WETH10.sol\":13351:13358  spender */\n      dup5\n        /* \"contracts/WETH10.sol\":13333:13375  IApprovalReceiver(spender).onTokenApproval */\n      0xffffffffffffffffffffffffffffffffffffffff\n      and\n      0xba451f\n        /* \"contracts/WETH10.sol\":13376:13386  msg.sender */\n      caller\n        /* \"contracts/WETH10.sol\":13388:13393  value */\n      dup7\n        /* \"contracts/WETH10.sol\":13395:13399  data */\n      dup7\n      dup7\n        /* \"contracts/WETH10.sol\":13333:13400  IApprovalReceiver(spender).onTokenApproval(msg.sender, value, data) */\n      mload(0x40)\n      dup6\n      0xffffffff\n      and\n      0xe0\n      shl\n      dup2\n      mstore\n      0x04\n      add\n      dup1\n      dup6\n      0xffffffffffffffffffffffffffffffffffffffff\n      and\n      dup2\n      mstore\n      0x20\n      add\n      dup5\n      dup2\n      mstore\n      0x20\n      add\n      dup1\n      0x20\n      add\n      dup3\n      dup2\n      sub\n      dup3\n      mstore\n      dup5\n      dup5\n      dup3\n      dup2\n      dup2\n      mstore\n      0x20\n      add\n      swap3\n      pop\n      dup1\n      dup3\n      dup5\n      calldatacopy\n      0x00\n      dup2\n      dup5\n      add\n      mstore\n      not(0x1f)\n      0x1f\n      dup3\n      add\n      and\n      swap1\n      pop\n      dup1\n      dup4\n      add\n      swap3\n      pop\n      pop\n      pop\n      swap6\n      pop\n      pop\n      pop\n      pop\n      pop\n      pop\n      0x20\n      mload(0x40)\n      dup1\n      dup4\n      sub\n      dup2\n      0x00\n      dup8\n      dup1\n      extcodesize\n      iszero\n      dup1\n      iszero\n      tag_237\n      jumpi\n      0x00\n      dup1\n      revert\n    tag_237:\n      pop\n      gas\n      call\n      iszero\n      dup1\n      iszero\n      tag_239\n      jumpi\n      returndatasize\n      0x00\n      dup1\n      returndatacopy\n      revert(0x00, returndatasize)\n    tag_239:\n      pop\n      pop\n      pop\n      pop\n      mload(0x40)\n      returndatasize\n      0x20\n      dup2\n      lt\n      iszero\n      tag_240\n      jumpi\n      0x00\n      dup1\n      revert\n    tag_240:\n      dup2\n      add\n      swap1\n      dup1\n      dup1\n      mload\n      swap1\n      0x20\n      add\n      swap1\n      swap3\n      swap2\n      swap1\n      pop\n      pop\n      pop\n        /* \"contracts/WETH10.sol\":13326:13400  return IApprovalReceiver(spender).onTokenApproval(msg.sender, value, data) */\n      swap1\n      pop\n        /* \"contracts/WETH10.sol\":13044:13408  function approveAndCall(address spender, uint256 value, bytes calldata data) external override returns (bool) {\r... */\n      swap5\n      swap4\n      pop\n      pop\n      pop\n      pop\n      jump\t// out\n        /* \"contracts/WETH10.sol\":1344:1386  uint256 public immutable deploymentChainId */\n    tag_138:\n      immutable(\"0xf928ede1c39c5595ff22fe845412ee05a93eeaa584f8ef0c46b5eeb14cb99ec8\")\n      dup2\n      jump\t// out\n        /* \"contracts/WETH10.sol\":4110:4311  function deposit() external override payable {\r... */\n    tag_140:\n        /* \"contracts/WETH10.sol\":4235:4244  msg.value */\n      callvalue\n        /* \"contracts/WETH10.sol\":4210:4219  balanceOf */\n      0x00\n        /* \"contracts/WETH10.sol\":4210:4231  balanceOf[msg.sender] */\n      dup1\n        /* \"contracts/WETH10.sol\":4220:4230  msg.sender */\n      caller\n        /* \"contracts/WETH10.sol\":4210:4231  balanceOf[msg.sender] */\n      0xffffffffffffffffffffffffffffffffffffffff\n      and\n      0xffffffffffffffffffffffffffffffffffffffff\n      and\n      dup2\n      mstore\n      0x20\n      add\n      swap1\n      dup2\n      mstore\n      0x20\n      add\n      0x00\n      keccak256\n      0x00\n        /* \"contracts/WETH10.sol\":4210:4244  balanceOf[msg.sender] += msg.value */\n      dup3\n      dup3\n      sload\n      add\n      swap3\n      pop\n      pop\n      dup2\n      swap1\n      sstore\n      pop\n        /* \"contracts/WETH10.sol\":4281:4291  msg.sender */\n      caller\n        /* \"contracts/WETH10.sol\":4260:4303  Transfer(address(0), msg.sender, msg.value) */\n      0xffffffffffffffffffffffffffffffffffffffff\n      and\n        /* \"contracts/WETH10.sol\":4277:4278  0 */\n      0x00\n        /* \"contracts/WETH10.sol\":4260:4303  Transfer(address(0), msg.sender, msg.value) */\n      0xffffffffffffffffffffffffffffffffffffffff\n      and\n      0xddf252ad1be2c89b69c2b068fc378daa952ba7f163c4a11628f55a4df523b3ef\n        /* \"contracts/WETH10.sol\":4293:4302  msg.value */\n      callvalue\n        /* \"contracts/WETH10.sol\":4260:4303  Transfer(address(0), msg.sender, msg.value) */\n      mload(0x40)\n      dup1\n      dup3\n      dup2\n      mstore\n      0x20\n      add\n      swap2\n      pop\n      pop\n      mload(0x40)\n      dup1\n      swap2\n      sub\n      swap1\n      log3\n        /* \"contracts/WETH10.sol\":4110:4311  function deposit() external override payable {\r... */\n      jump\t// out\n        /* \"contracts/WETH10.sol\":14225:15249  function permit(address owner, address spender, uint256 value, uint256 deadline, uint8 v, bytes32 r, bytes32 s) external override {\r... */\n    tag_144:\n        /* \"contracts/WETH10.sol\":14393:14401  deadline */\n      dup4\n        /* \"contracts/WETH10.sol\":14374:14389  block.timestamp */\n      timestamp\n        /* \"contracts/WETH10.sol\":14374:14401  block.timestamp <= deadline */\n      gt\n      iszero\n        /* \"contracts/WETH10.sol\":14366:14426  require(block.timestamp <= deadline, \"WETH: Expired permit\") */\n      tag_243\n      jumpi\n      mload(0x40)\n      0x08c379a000000000000000000000000000000000000000000000000000000000\n      dup2\n      mstore\n      0x04\n      add\n      dup1\n      dup1\n      0x20\n      add\n      dup3\n      dup2\n      sub\n      dup3\n      mstore\n      0x14\n      dup2\n      mstore\n      0x20\n      add\n      dup1\n      0x574554483a2045787069726564207065726d6974000000000000000000000000\n      dup2\n      mstore\n      pop\n      0x20\n      add\n      swap2\n      pop\n      pop\n      mload(0x40)\n      dup1\n      swap2\n      sub\n      swap1\n      revert\n    tag_243:\n        /* \"contracts/WETH10.sol\":14439:14454  uint256 chainId */\n      0x00\n        /* \"contracts/WETH10.sol\":14486:14495  chainid() */\n      chainid\n        /* \"contracts/WETH10.sol\":14475:14495  chainId := chainid() */\n      swap1\n      pop\n        /* \"contracts/WETH10.sol\":14508:14526  bytes32 hashStruct */\n      0x00\n        /* \"contracts/WETH10.sol\":14582:14597  PERMIT_TYPEHASH */\n      immutable(\"0x59c0d2b7af0a8e6d3d8e710a078764bd67b7223777026c424cdb4f599824bb79\")\n        /* \"contracts/WETH10.sol\":14616:14621  owner */\n      dup10\n        /* \"contracts/WETH10.sol\":14640:14647  spender */\n      dup10\n        /* \"contracts/WETH10.sol\":14666:14671  value */\n      dup10\n        /* \"contracts/WETH10.sol\":14690:14696  nonces */\n      0x01\n        /* \"contracts/WETH10.sol\":14690:14703  nonces[owner] */\n      0x00\n        /* \"contracts/WETH10.sol\":14697:14702  owner */\n      dup15\n        /* \"contracts/WETH10.sol\":14690:14703  nonces[owner] */\n      0xffffffffffffffffffffffffffffffffffffffff\n      and\n      0xffffffffffffffffffffffffffffffffffffffff\n      and\n      dup2\n      mstore\n      0x20\n      add\n      swap1\n      dup2\n      mstore\n      0x20\n      add\n      0x00\n      keccak256\n      0x00\n        /* \"contracts/WETH10.sol\":14690:14705  nonces[owner]++ */\n      dup2\n      sload\n      dup1\n      swap3\n      swap2\n      swap1\n      0x01\n      add\n      swap2\n      swap1\n      pop\n      sstore\n        /* \"contracts/WETH10.sol\":14724:14732  deadline */\n      dup11\n        /* \"contracts/WETH10.sol\":14553:14733  abi.encode(\r... */\n      add(0x20, mload(0x40))\n      dup1\n      dup8\n      dup2\n      mstore\n      0x20\n      add\n      dup7\n      0xffffffffffffffffffffffffffffffffffffffff\n      and\n      dup2\n      mstore\n      0x20\n      add\n      dup6\n      0xffffffffffffffffffffffffffffffffffffffff\n      and\n      dup2\n      mstore\n      0x20\n      add\n      dup5\n      dup2\n      mstore\n      0x20\n      add\n      dup4\n      dup2\n      mstore\n      0x20\n      add\n      dup3\n      dup2\n      mstore\n      0x20\n      add\n      swap7\n      pop\n      pop\n      pop\n      pop\n      pop\n      pop\n      pop\n      mload(0x40)\n      0x20\n      dup2\n      dup4\n      sub\n      sub\n      dup2\n      mstore\n      swap1\n      0x40\n      mstore\n        /* \"contracts/WETH10.sol\":14529:14734  keccak256(\r... */\n      dup1\n      mload\n      swap1\n      0x20\n      add\n      keccak256\n        /* \"contracts/WETH10.sol\":14508:14734  bytes32 hashStruct = keccak256(\r... */\n      swap1\n      pop\n        /* \"contracts/WETH10.sol\":14747:14759  bytes32 hash */\n      0x00\n        /* \"contracts/WETH10.sol\":14861:14878  deploymentChainId */\n      immutable(\"0xf928ede1c39c5595ff22fe845412ee05a93eeaa584f8ef0c46b5eeb14cb99ec8\")\n        /* \"contracts/WETH10.sol\":14850:14857  chainId */\n      dup4\n        /* \"contracts/WETH10.sol\":14850:14878  chainId == deploymentChainId */\n      eq\n        /* \"contracts/WETH10.sol\":14850:14935  chainId == deploymentChainId ? _DOMAIN_SEPARATOR : _calculateDomainSeparator(chainId) */\n      tag_244\n      jumpi\n        /* \"contracts/WETH10.sol\":14901:14935  _calculateDomainSeparator(chainId) */\n      tag_245\n        /* \"contracts/WETH10.sol\":14927:14934  chainId */\n      dup4\n        /* \"contracts/WETH10.sol\":14901:14926  _calculateDomainSeparator */\n      tag_182\n        /* \"contracts/WETH10.sol\":14901:14935  _calculateDomainSeparator(chainId) */\n      jump\t// in\n    tag_245:\n        /* \"contracts/WETH10.sol\":14850:14935  chainId == deploymentChainId ? _DOMAIN_SEPARATOR : _calculateDomainSeparator(chainId) */\n      jump(tag_246)\n    tag_244:\n        /* \"contracts/WETH10.sol\":14881:14898  _DOMAIN_SEPARATOR */\n      immutable(\"0xbbd48b257be1b8216d144ef9be5734f8d11697959c9e0f7768bec89db74a63a3\")\n        /* \"contracts/WETH10.sol\":14850:14935  chainId == deploymentChainId ? _DOMAIN_SEPARATOR : _calculateDomainSeparator(chainId) */\n    tag_246:\n        /* \"contracts/WETH10.sol\":14954:14964  hashStruct */\n      dup3\n        /* \"contracts/WETH10.sol\":14786:14965  abi.encodePacked(\r... */\n      add(0x20, mload(0x40))\n      dup1\n      dup1\n      0x1901000000000000000000000000000000000000000000000000000000000000\n      dup2\n      mstore\n      pop\n      0x02\n      add\n      dup4\n      dup2\n      mstore\n      0x20\n      add\n      dup3\n      dup2\n      mstore\n      0x20\n      add\n      swap3\n      pop\n      pop\n      pop\n      mload(0x40)\n      0x20\n      dup2\n      dup4\n      sub\n      sub\n      dup2\n      mstore\n      swap1\n      0x40\n      mstore\n        /* \"contracts/WETH10.sol\":14762:14966  keccak256(\r... */\n      dup1\n      mload\n      swap1\n      0x20\n      add\n      keccak256\n        /* \"contracts/WETH10.sol\":14747:14966  bytes32 hash = keccak256(\r... */\n      swap1\n      pop\n        /* \"contracts/WETH10.sol\":14979:14993  address signer */\n      0x00\n        /* \"contracts/WETH10.sol\":14996:15020  ecrecover(hash, v, r, s) */\n      0x01\n        /* \"contracts/WETH10.sol\":15006:15010  hash */\n      dup3\n        /* \"contracts/WETH10.sol\":15012:15013  v */\n      dup9\n        /* \"contracts/WETH10.sol\":15015:15016  r */\n      dup9\n        /* \"contracts/WETH10.sol\":15018:15019  s */\n      dup9\n        /* \"contracts/WETH10.sol\":14996:15020  ecrecover(hash, v, r, s) */\n      mload(0x40)\n      0x00\n      dup2\n      mstore\n      0x20\n      add\n      0x40\n      mstore\n      mload(0x40)\n      dup1\n      dup6\n      dup2\n      mstore\n      0x20\n      add\n      dup5\n      0xff\n      and\n      dup2\n      mstore\n      0x20\n      add\n      dup4\n      dup2\n      mstore\n      0x20\n      add\n      dup3\n      dup2\n      mstore\n      0x20\n      add\n      swap5\n      pop\n      pop\n      pop\n      pop\n      pop\n      0x20\n      mload(0x40)\n      0x20\n      dup2\n      sub\n      swap1\n      dup1\n      dup5\n      sub\n      swap1\n      dup6\n      gas\n      staticcall\n      iszero\n      dup1\n      iszero\n      tag_248\n      jumpi\n      returndatasize\n      0x00\n      dup1\n      returndatacopy\n      revert(0x00, returndatasize)\n    tag_248:\n      pop\n      pop\n      pop\n      mload(sub(mload(0x40), 0x20))\n        /* \"contracts/WETH10.sol\":14979:15020  address signer = ecrecover(hash, v, r, s) */\n      swap1\n      pop\n        /* \"contracts/WETH10.sol\":15057:15058  0 */\n      0x00\n        /* \"contracts/WETH10.sol\":15039:15059  signer != address(0) */\n      0xffffffffffffffffffffffffffffffffffffffff\n      and\n        /* \"contracts/WETH10.sol\":15039:15045  signer */\n      dup2\n        /* \"contracts/WETH10.sol\":15039:15059  signer != address(0) */\n      0xffffffffffffffffffffffffffffffffffffffff\n      and\n      eq\n      iszero\n        /* \"contracts/WETH10.sol\":15039:15078  signer != address(0) && signer == owner */\n      dup1\n      iszero\n      tag_249\n      jumpi\n      pop\n        /* \"contracts/WETH10.sol\":15073:15078  owner */\n      dup11\n        /* \"contracts/WETH10.sol\":15063:15078  signer == owner */\n      0xffffffffffffffffffffffffffffffffffffffff\n      and\n        /* \"contracts/WETH10.sol\":15063:15069  signer */\n      dup2\n        /* \"contracts/WETH10.sol\":15063:15078  signer == owner */\n      0xffffffffffffffffffffffffffffffffffffffff\n      and\n      eq\n        /* \"contracts/WETH10.sol\":15039:15078  signer != address(0) && signer == owner */\n    tag_249:\n        /* \"contracts/WETH10.sol\":15031:15103  require(signer != address(0) && signer == owner, \"WETH: invalid permit\") */\n      tag_250\n      jumpi\n      mload(0x40)\n      0x08c379a000000000000000000000000000000000000000000000000000000000\n      dup2\n      mstore\n      0x04\n      add\n      dup1\n      dup1\n      0x20\n      add\n      dup3\n      dup2\n      sub\n      dup3\n      mstore\n      0x14\n      dup2\n      mstore\n      0x20\n      add\n      dup1\n      0x574554483a20696e76616c6964207065726d6974000000000000000000000000\n      dup2\n      mstore\n      pop\n      0x20\n      add\n      swap2\n      pop\n      pop\n      mload(0x40)\n      dup1\n      swap2\n      sub\n      swap1\n      revert\n    tag_250:\n        /* \"contracts/WETH10.sol\":15189:15194  value */\n      dup9\n        /* \"contracts/WETH10.sol\":15161:15170  allowance */\n      0x02\n        /* \"contracts/WETH10.sol\":15161:15177  allowance[owner] */\n      0x00\n        /* \"contracts/WETH10.sol\":15171:15176  owner */\n      dup14\n        /* \"contracts/WETH10.sol\":15161:15177  allowance[owner] */\n      0xffffffffffffffffffffffffffffffffffffffff\n      and\n      0xffffffffffffffffffffffffffffffffffffffff\n      and\n      dup2\n      mstore\n      0x20\n      add\n      swap1\n      dup2\n      mstore\n      0x20\n      add\n      0x00\n      keccak256\n        /* \"contracts/WETH10.sol\":15161:15186  allowance[owner][spender] */\n      0x00\n        /* \"contracts/WETH10.sol\":15178:15185  spender */\n      dup13\n        /* \"contracts/WETH10.sol\":15161:15186  allowance[owner][spender] */\n      0xffffffffffffffffffffffffffffffffffffffff\n      and\n      0xffffffffffffffffffffffffffffffffffffffff\n      and\n      dup2\n      mstore\n      0x20\n      add\n      swap1\n      dup2\n      mstore\n      0x20\n      add\n      0x00\n      keccak256\n        /* \"contracts/WETH10.sol\":15161:15194  allowance[owner][spender] = value */\n      dup2\n      swap1\n      sstore\n      pop\n        /* \"contracts/WETH10.sol\":15226:15233  spender */\n      dup10\n        /* \"contracts/WETH10.sol\":15210:15241  Approval(owner, spender, value) */\n      0xffffffffffffffffffffffffffffffffffffffff\n      and\n        /* \"contracts/WETH10.sol\":15219:15224  owner */\n      dup12\n        /* \"contracts/WETH10.sol\":15210:15241  Approval(owner, spender, value) */\n      0xffffffffffffffffffffffffffffffffffffffff\n      and\n      0x8c5be1e5ebec7d5bd14f71427d1e84f3dd0314c0f7b2291e5b200ac8c7c3b925\n        /* \"contracts/WETH10.sol\":15235:15240  value */\n      dup12\n        /* \"contracts/WETH10.sol\":15210:15241  Approval(owner, spender, value) */\n      mload(0x40)\n      dup1\n      dup3\n      dup2\n      mstore\n      0x20\n      add\n      swap2\n      pop\n      pop\n      mload(0x40)\n      dup1\n      swap2\n      sub\n      swap1\n      log3\n        /* \"contracts/WETH10.sol\":14225:15249  function permit(address owner, address spender, uint256 value, uint256 deadline, uint8 v, bytes32 r, bytes32 s) external override {\r... */\n      pop\n      pop\n      pop\n      pop\n      pop\n      pop\n      pop\n      pop\n      pop\n      pop\n      pop\n      jump\t// out\n        /* \"contracts/WETH10.sol\":5856:6040  function flashFee(address token, uint256) external view override returns (uint256) {\r... */\n    tag_148:\n        /* \"contracts/WETH10.sol\":5930:5937  uint256 */\n      0x00\n        /* \"contracts/WETH10.sol\":5975:5979  this */\n      address\n        /* \"contracts/WETH10.sol\":5958:5980  token == address(this) */\n      0xffffffffffffffffffffffffffffffffffffffff\n      and\n        /* \"contracts/WETH10.sol\":5958:5963  token */\n      dup4\n        /* \"contracts/WETH10.sol\":5958:5980  token == address(this) */\n      0xffffffffffffffffffffffffffffffffffffffff\n      and\n      eq\n        /* \"contracts/WETH10.sol\":5950:6013  require(token == address(this), \"WETH: flash mint only WETH10\") */\n      tag_252\n      jumpi\n      mload(0x40)\n      0x08c379a000000000000000000000000000000000000000000000000000000000\n      dup2\n      mstore\n      0x04\n      add\n      dup1\n      dup1\n      0x20\n      add\n      dup3\n      dup2\n      sub\n      dup3\n      mstore\n      0x1c\n      dup2\n      mstore\n      0x20\n      add\n      dup1\n      0x574554483a20666c617368206d696e74206f6e6c792057455448313000000000\n      dup2\n      mstore\n      pop\n      0x20\n      add\n      swap2\n      pop\n      pop\n      mload(0x40)\n      dup1\n      swap2\n      sub\n      swap1\n      revert\n    tag_252:\n        /* \"contracts/WETH10.sol\":6031:6032  0 */\n      0x00\n        /* \"contracts/WETH10.sol\":6024:6032  return 0 */\n      swap1\n      pop\n        /* \"contracts/WETH10.sol\":5856:6040  function flashFee(address token, uint256) external view override returns (uint256) {\r... */\n      swap3\n      swap2\n      pop\n      pop\n      jump\t// out\n        /* \"contracts/WETH10.sol\":2048:2123  mapping (address => mapping (address => uint256)) public override allowance */\n    tag_152:\n      mstore(0x20, 0x02)\n      dup2\n      0x00\n      mstore\n      mstore(0x20, keccak256(0x00, 0x40))\n      dup1\n      0x00\n      mstore\n      keccak256(0x00, 0x40)\n      0x00\n      swap2\n      pop\n      swap2\n      pop\n      pop\n      sload\n      dup2\n      jump\t// out\n        /* \"contracts/WETH10.sol\":2485:2907  function _calculateDomainSeparator(uint256 chainId) private view returns (bytes32) {\r... */\n    tag_182:\n        /* \"contracts/WETH10.sol\":2559:2566  bytes32 */\n      0x00\n        /* \"contracts/WETH10.sol\":2639:2734  keccak256(\"EIP712Domain(string name,string version,uint256 chainId,address verifyingContract)\") */\n      0x8b73c3c69bb8fe3d512ecc4cf759cc79239f7b179b0ffacaa9a75d522b39400f\n        /* \"contracts/WETH10.sol\":2769:2773  name */\n      mload(0x40)\n      dup1\n      0x40\n      add\n      0x40\n      mstore\n      dup1\n      0x11\n      dup2\n      mstore\n      0x20\n      add\n      0x5772617070656420457468657220763130000000000000000000000000000000\n      dup2\n      mstore\n      pop\n        /* \"contracts/WETH10.sol\":2753:2775  keccak256(bytes(name)) */\n      dup1\n      mload\n      swap1\n      0x20\n      add\n      keccak256\n        /* \"contracts/WETH10.sol\":2804:2814  bytes(\"1\") */\n      mload(0x40)\n      dup1\n      0x40\n      add\n      0x40\n      mstore\n      dup1\n      0x01\n      dup2\n      mstore\n      0x20\n      add\n      0x3100000000000000000000000000000000000000000000000000000000000000\n      dup2\n      mstore\n      pop\n        /* \"contracts/WETH10.sol\":2794:2815  keccak256(bytes(\"1\")) */\n      dup1\n      mload\n      swap1\n      0x20\n      add\n      keccak256\n        /* \"contracts/WETH10.sol\":2834:2841  chainId */\n      dup5\n        /* \"contracts/WETH10.sol\":2868:2872  this */\n      address\n        /* \"contracts/WETH10.sol\":2610:2888  abi.encode(\r... */\n      add(0x20, mload(0x40))\n      dup1\n      dup7\n      dup2\n      mstore\n      0x20\n      add\n      dup6\n      dup2\n      mstore\n      0x20\n      add\n      dup5\n      dup2\n      mstore\n      0x20\n      add\n      dup4\n      dup2\n      mstore\n      0x20\n      add\n      dup3\n      0xffffffffffffffffffffffffffffffffffffffff\n      and\n      dup2\n      mstore\n      0x20\n      add\n      swap6\n      pop\n      pop\n      pop\n      pop\n      pop\n      pop\n      mload(0x40)\n      0x20\n      dup2\n      dup4\n      sub\n      sub\n      dup2\n      mstore\n      swap1\n      0x40\n      mstore\n        /* \"contracts/WETH10.sol\":2586:2899  keccak256(\r... */\n      dup1\n      mload\n      swap1\n      0x20\n      add\n      keccak256\n        /* \"contracts/WETH10.sol\":2579:2899  return keccak256(\r... */\n      swap1\n      pop\n        /* \"contracts/WETH10.sol\":2485:2907  function _calculateDomainSeparator(uint256 chainId) private view returns (bytes32) {\r... */\n      swap2\n      swap1\n      pop\n      jump\t// out\n    stop\n    data_391bd9858d691b2fb04b43168eb6c31973f0951c8dda7fcdcf0232f5206b45da 574554483a207472616e7366657220616d6f756e7420657863656564732062616c616e6365\n    data_a0c38ec09e15152d6d6c1ae2f503514b9c13b34336ec9eddba912f9eb553820b 574554483a20696e646976696475616c206c6f616e206c696d6974206578636565646564\n    data_e0a0905d916284ada246e39c08708cc92c829e81715f2d58402cb8d8e6454242 574554483a206275726e20616d6f756e7420657863656564732062616c616e6365\n\n    auxdata: 0xa264697066735822122089ecf1d53a2cb45392da47f31e18181bc15c273dec26c38714d484ff27afacd164736f6c63430007060033\n}\n",
				"bytecode": {
					"linkReferences": {},
					"object": "6101006040527f439148f0bbc682ca079e46d6e2c2f0c1e3b820f1a291b069d8882abf8cf18dd96080908152507f6e71edae12b1b97f4d1f60370fef10105fa2faae0126114a169c64845d6126c960a0908152503480156200006057600080fd5b5060004690508060c081815250506200007f816200008d60201b60201c565b60e08181525050506200018b565b60007f8b73c3c69bb8fe3d512ecc4cf759cc79239f7b179b0ffacaa9a75d522b39400f6040518060400160405280601181526020017f5772617070656420457468657220763130000000000000000000000000000000815250805190602001206040518060400160405280600181526020017f3100000000000000000000000000000000000000000000000000000000000000815250805190602001208430604051602001808681526020018581526020018481526020018381526020018273ffffffffffffffffffffffffffffffffffffffff16815260200195505050505050604051602081830303815290604052805190602001209050919050565b60805160a05160c05160e051613b03620001da6000398061199952806135e6525080611964528061337052806135b152508061193552806134c55250806120ef528061281e5250613b036000f3fe6080604052600436106101a05760003560e01c806370a08231116100ec578063b760faf91161008a578063d0e30db011610064578063d0e30db014610bc6578063d505accf14610bd0578063d9d98ce414610c76578063dd62ed3e14610ce557610259565b8063b760faf914610a91578063cae9ca5114610ad5578063cd0d009614610b9b57610259565b80638b28d32f116100c65780638b28d32f146108ea5780639555a9421461091557806395d89b4114610990578063a9059cbb14610a2057610259565b806370a08231146107f55780637ecebe001461085a5780638237e538146108bf57610259565b806330adf81f116101595780634000aea0116101335780634000aea0146105355780635cffe9de146105fb5780635ddb7d7e146106e1578063613255ab1461079057610259565b806330adf81f146104b1578063313ce567146104dc5780633644e5151461050a57610259565b806306fdde031461025e578063095ea7b3146102ee57806318160ddd1461035f578063205c28781461038a57806323b872dd146103e55780632e1a7d4d1461047657610259565b3661025957346000803373ffffffffffffffffffffffffffffffffffffffff1673ffffffffffffffffffffffffffffffffffffffff168152602001908152602001600020600082825401925050819055503373ffffffffffffffffffffffffffffffffffffffff16600073ffffffffffffffffffffffffffffffffffffffff167fddf252ad1be2c89b69c2b068fc378daa952ba7f163c4a11628f55a4df523b3ef346040518082815260200191505060405180910390a3005b600080fd5b34801561026a57600080fd5b50610273610d6a565b6040518080602001828103825283818151815260200191508051906020019080838360005b838110156102b3578082015181840152602081019050610298565b50505050905090810190601f1680156102e05780820380516001836020036101000a031916815260200191505b509250505060405180910390f35b3480156102fa57600080fd5b506103476004803603604081101561031157600080fd5b81019080803573ffffffffffffffffffffffffffffffffffffffff16906020019092919080359060200190929190505050610da3565b60405180821515815260200191505060405180910390f35b34801561036b57600080fd5b50610374610e95565b6040518082815260200191505060405180910390f35b34801561039657600080fd5b506103e3600480360360408110156103ad57600080fd5b81019080803573ffffffffffffffffffffffffffffffffffffffff16906020019092919080359060200190929190505050610ea1565b005b3480156103f157600080fd5b5061045e6004803603606081101561040857600080fd5b81019080803573ffffffffffffffffffffffffffffffffffffffff169060200190929190803573ffffffffffffffffffffffffffffffffffffffff169060200190929190803590602001909291905050506110ca565b60405180821515815260200191505060405180910390f35b34801561048257600080fd5b506104af6004803603602081101561049957600080fd5b810190808035906020019092919050505061170b565b005b3480156104bd57600080fd5b506104c6611933565b6040518082815260200191505060405180910390f35b3480156104e857600080fd5b506104f1611957565b604051808260ff16815260200191505060405180910390f35b34801561051657600080fd5b5061051f61195c565b6040518082815260200191505060405180910390f35b34801561054157600080fd5b506105e36004803603606081101561055857600080fd5b81019080803573ffffffffffffffffffffffffffffffffffffffff169060200190929190803590602001909291908035906020019064010000000081111561059f57600080fd5b8201836020820111156105b157600080fd5b803590602001918460018302840111640100000000831117156105d357600080fd5b90919293919293905050506119bf565b60405180821515815260200191505060405180910390f35b34801561060757600080fd5b506106c96004803603608081101561061e57600080fd5b81019080803573ffffffffffffffffffffffffffffffffffffffff169060200190929190803573ffffffffffffffffffffffffffffffffffffffff169060200190929190803590602001909291908035906020019064010000000081111561068557600080fd5b82018360208201111561069757600080fd5b803590602001918460018302840111640100000000831117156106b957600080fd5b9091929391929390505050611e9c565b60405180821515815260200191505060405180910390f35b610778600480360360408110156106f757600080fd5b81019080803573ffffffffffffffffffffffffffffffffffffffff1690602001909291908035906020019064010000000081111561073457600080fd5b82018360208201111561074657600080fd5b8035906020019184600183028401116401000000008311171561076857600080fd5b90919293919293905050506125f6565b60405180821515815260200191505060405180910390f35b34801561079c57600080fd5b506107df600480360360208110156107b357600080fd5b81019080803573ffffffffffffffffffffffffffffffffffffffff169060200190929190505050612793565b6040518082815260200191505060405180910390f35b34801561080157600080fd5b506108446004803603602081101561081857600080fd5b81019080803573ffffffffffffffffffffffffffffffffffffffff1690602001909291905050506127ec565b6040518082815260200191505060405180910390f35b34801561086657600080fd5b506108a96004803603602081101561087d57600080fd5b81019080803573ffffffffffffffffffffffffffffffffffffffff169060200190929190505050612804565b6040518082815260200191505060405180910390f35b3480156108cb57600080fd5b506108d461281c565b6040518082815260200191505060405180910390f35b3480156108f657600080fd5b506108ff612840565b6040518082815260200191505060405180910390f35b34801561092157600080fd5b5061098e6004803603606081101561093857600080fd5b81019080803573ffffffffffffffffffffffffffffffffffffffff169060200190929190803573ffffffffffffffffffffffffffffffffffffffff16906020019092919080359060200190929190505050612846565b005b34801561099c57600080fd5b506109a5612cb2565b6040518080602001828103825283818151815260200191508051906020019080838360005b838110156109e55780820151818401526020810190506109ca565b50505050905090810190601f168015610a125780820380516001836020036101000a031916815260200191505b509250505060405180910390f35b348015610a2c57600080fd5b50610a7960048036036040811015610a4357600080fd5b81019080803573ffffffffffffffffffffffffffffffffffffffff16906020019092919080359060200190929190505050612ceb565b60405180821515815260200191505060405180910390f35b610ad360048036036020811015610aa757600080fd5b81019080803573ffffffffffffffffffffffffffffffffffffffff1690602001909291905050506130e8565b005b348015610ae157600080fd5b50610b8360048036036060811015610af857600080fd5b81019080803573ffffffffffffffffffffffffffffffffffffffff1690602001909291908035906020019092919080359060200190640100000000811115610b3f57600080fd5b820183602082011115610b5157600080fd5b80359060200191846001830284011164010000000083111715610b7357600080fd5b909192939192939050505061319d565b60405180821515815260200191505060405180910390f35b348015610ba757600080fd5b50610bb061336e565b6040518082815260200191505060405180910390f35b610bce613392565b005b348015610bdc57600080fd5b50610c74600480360360e0811015610bf357600080fd5b81019080803573ffffffffffffffffffffffffffffffffffffffff169060200190929190803573ffffffffffffffffffffffffffffffffffffffff1690602001909291908035906020019092919080359060200190929190803560ff1690602001909291908035906020019092919080359060200190929190505050613446565b005b348015610c8257600080fd5b50610ccf60048036036040811015610c9957600080fd5b81019080803573ffffffffffffffffffffffffffffffffffffffff16906020019092919080359060200190929190505050613893565b6040518082815260200191505060405180910390f35b348015610cf157600080fd5b50610d5460048036036040811015610d0857600080fd5b81019080803573ffffffffffffffffffffffffffffffffffffffff169060200190929190803573ffffffffffffffffffffffffffffffffffffffff169060200190929190505050613940565b6040518082815260200191505060405180910390f35b6040518060400160405280601181526020017f577261707065642045746865722076313000000000000000000000000000000081525081565b600081600260003373ffffffffffffffffffffffffffffffffffffffff1673ffffffffffffffffffffffffffffffffffffffff16815260200190815260200160002060008573ffffffffffffffffffffffffffffffffffffffff1673ffffffffffffffffffffffffffffffffffffffff168152602001908152602001600020819055508273ffffffffffffffffffffffffffffffffffffffff163373ffffffffffffffffffffffffffffffffffffffff167f8c5be1e5ebec7d5bd14f71427d1e84f3dd0314c0f7b2291e5b200ac8c7c3b925846040518082815260200191505060405180910390a36001905092915050565b60006003544701905090565b60008060003373ffffffffffffffffffffffffffffffffffffffff1673ffffffffffffffffffffffffffffffffffffffff16815260200190815260200160002054905081811015610f3d576040517f08c379a0000000000000000000000000000000000000000000000000000000008152600401808060200182810382526021815260200180613aad6021913960400191505060405180910390fd5b8181036000803373ffffffffffffffffffffffffffffffffffffffff1673ffffffffffffffffffffffffffffffffffffffff16815260200190815260200160002081905550600073ffffffffffffffffffffffffffffffffffffffff163373ffffffffffffffffffffffffffffffffffffffff167fddf252ad1be2c89b69c2b068fc378daa952ba7f163c4a11628f55a4df523b3ef846040518082815260200191505060405180910390a360008373ffffffffffffffffffffffffffffffffffffffff168360405180600001905060006040518083038185875af1925050503d8060008114611048576040519150601f19603f3d011682016040523d82523d6000602084013e61104d565b606091505b50509050806110c4576040517f08c379a00000000000000000000000000000000000000000000000000000000081526004018080602001828103825260198152602001807f574554483a20455448207472616e73666572206661696c65640000000000000081525060200191505060405180910390fd5b50505050565b60003373ffffffffffffffffffffffffffffffffffffffff168473ffffffffffffffffffffffffffffffffffffffff161461130e576000600260008673ffffffffffffffffffffffffffffffffffffffff1673ffffffffffffffffffffffffffffffffffffffff16815260200190815260200160002060003373ffffffffffffffffffffffffffffffffffffffff1673ffffffffffffffffffffffffffffffffffffffff1681526020019081526020016000205490507fffffffffffffffffffffffffffffffffffffffffffffffffffffffffffffffff811461130c578281101561121d576040517f08c379a000000000000000000000000000000000000000000000000000000000815260040180806020018281038252601f8152602001807f574554483a2072657175657374206578636565647320616c6c6f77616e63650081525060200191505060405180910390fd5b6000838203905080600260008873ffffffffffffffffffffffffffffffffffffffff1673ffffffffffffffffffffffffffffffffffffffff16815260200190815260200160002060003373ffffffffffffffffffffffffffffffffffffffff1673ffffffffffffffffffffffffffffffffffffffff168152602001908152602001600020819055503373ffffffffffffffffffffffffffffffffffffffff168673ffffffffffffffffffffffffffffffffffffffff167f8c5be1e5ebec7d5bd14f71427d1e84f3dd0314c0f7b2291e5b200ac8c7c3b925836040518082815260200191505060405180910390a3505b505b600073ffffffffffffffffffffffffffffffffffffffff168373ffffffffffffffffffffffffffffffffffffffff16146114da5760008060008673ffffffffffffffffffffffffffffffffffffffff1673ffffffffffffffffffffffffffffffffffffffff168152602001908152602001600020549050828110156113de576040517f08c379a0000000000000000000000000000000000000000000000000000000008152600401808060200182810382526025815260200180613a646025913960400191505060405180910390fd5b8281036000808773ffffffffffffffffffffffffffffffffffffffff1673ffffffffffffffffffffffffffffffffffffffff16815260200190815260200160002081905550826000808673ffffffffffffffffffffffffffffffffffffffff1673ffffffffffffffffffffffffffffffffffffffff168152602001908152602001600020600082825401925050819055508373ffffffffffffffffffffffffffffffffffffffff168573ffffffffffffffffffffffffffffffffffffffff167fddf252ad1be2c89b69c2b068fc378daa952ba7f163c4a11628f55a4df523b3ef856040518082815260200191505060405180910390a350611700565b60008060008673ffffffffffffffffffffffffffffffffffffffff1673ffffffffffffffffffffffffffffffffffffffff16815260200190815260200160002054905082811015611576576040517f08c379a0000000000000000000000000000000000000000000000000000000008152600401808060200182810382526021815260200180613aad6021913960400191505060405180910390fd5b8281036000808773ffffffffffffffffffffffffffffffffffffffff1673ffffffffffffffffffffffffffffffffffffffff16815260200190815260200160002081905550600073ffffffffffffffffffffffffffffffffffffffff168573ffffffffffffffffffffffffffffffffffffffff167fddf252ad1be2c89b69c2b068fc378daa952ba7f163c4a11628f55a4df523b3ef856040518082815260200191505060405180910390a360003373ffffffffffffffffffffffffffffffffffffffff168460405180600001905060006040518083038185875af1925050503d8060008114611681576040519150601f19603f3d011682016040523d82523d6000602084013e611686565b606091505b50509050806116fd576040517f08c379a00000000000000000000000000000000000000000000000000000000081526004018080602001828103825260198152602001807f574554483a20455448207472616e73666572206661696c65640000000000000081525060200191505060405180910390fd5b50505b600190509392505050565b60008060003373ffffffffffffffffffffffffffffffffffffffff1673ffffffffffffffffffffffffffffffffffffffff168152602001908152602001600020549050818110156117a7576040517f08c379a0000000000000000000000000000000000000000000000000000000008152600401808060200182810382526021815260200180613aad6021913960400191505060405180910390fd5b8181036000803373ffffffffffffffffffffffffffffffffffffffff1673ffffffffffffffffffffffffffffffffffffffff16815260200190815260200160002081905550600073ffffffffffffffffffffffffffffffffffffffff163373ffffffffffffffffffffffffffffffffffffffff167fddf252ad1be2c89b69c2b068fc378daa952ba7f163c4a11628f55a4df523b3ef846040518082815260200191505060405180910390a360003373ffffffffffffffffffffffffffffffffffffffff168360405180600001905060006040518083038185875af1925050503d80600081146118b2576040519150601f19603f3d011682016040523d82523d6000602084013e6118b7565b606091505b505090508061192e576040517f08c379a00000000000000000000000000000000000000000000000000000000081526004018080602001828103825260198152602001807f574554483a20455448207472616e73666572206661696c65640000000000000081525060200191505060405180910390fd5b505050565b7f000000000000000000000000000000000000000000000000000000000000000081565b601281565b6000804690507f000000000000000000000000000000000000000000000000000000000000000081146119975761199281613965565b6119b9565b7f00000000000000000000000000000000000000000000000000000000000000005b91505090565b60008073ffffffffffffffffffffffffffffffffffffffff168573ffffffffffffffffffffffffffffffffffffffff1614611b8c5760008060003373ffffffffffffffffffffffffffffffffffffffff1673ffffffffffffffffffffffffffffffffffffffff16815260200190815260200160002054905084811015611a90576040517f08c379a0000000000000000000000000000000000000000000000000000000008152600401808060200182810382526025815260200180613a646025913960400191505060405180910390fd5b8481036000803373ffffffffffffffffffffffffffffffffffffffff1673ffffffffffffffffffffffffffffffffffffffff16815260200190815260200160002081905550846000808873ffffffffffffffffffffffffffffffffffffffff1673ffffffffffffffffffffffffffffffffffffffff168152602001908152602001600020600082825401925050819055508573ffffffffffffffffffffffffffffffffffffffff163373ffffffffffffffffffffffffffffffffffffffff167fddf252ad1be2c89b69c2b068fc378daa952ba7f163c4a11628f55a4df523b3ef876040518082815260200191505060405180910390a350611db2565b60008060003373ffffffffffffffffffffffffffffffffffffffff1673ffffffffffffffffffffffffffffffffffffffff16815260200190815260200160002054905084811015611c28576040517f08c379a0000000000000000000000000000000000000000000000000000000008152600401808060200182810382526021815260200180613aad6021913960400191505060405180910390fd5b8481036000803373ffffffffffffffffffffffffffffffffffffffff1673ffffffffffffffffffffffffffffffffffffffff16815260200190815260200160002081905550600073ffffffffffffffffffffffffffffffffffffffff163373ffffffffffffffffffffffffffffffffffffffff167fddf252ad1be2c89b69c2b068fc378daa952ba7f163c4a11628f55a4df523b3ef876040518082815260200191505060405180910390a360003373ffffffffffffffffffffffffffffffffffffffff168660405180600001905060006040518083038185875af1925050503d8060008114611d33576040519150601f19603f3d011682016040523d82523d6000602084013e611d38565b606091505b5050905080611daf576040517f08c379a00000000000000000000000000000000000000000000000000000000081526004018080602001828103825260198152602001807f574554483a20455448207472616e73666572206661696c65640000000000000081525060200191505060405180910390fd5b50505b8473ffffffffffffffffffffffffffffffffffffffff1663a4c0ed36338686866040518563ffffffff1660e01b8152600401808573ffffffffffffffffffffffffffffffffffffffff168152602001848152602001806020018281038252848482818152602001925080828437600081840152601f19601f82011690508083019250505095505050505050602060405180830381600087803b158015611e5757600080fd5b505af1158015611e6b573d6000803e3d6000fd5b505050506040513d6020811015611e8157600080fd5b81019080805190602001909291905050509050949350505050565b60003073ffffffffffffffffffffffffffffffffffffffff168573ffffffffffffffffffffffffffffffffffffffff1614611f3f576040517f08c379a000000000000000000000000000000000000000000000000000000000815260040180806020018281038252601c8152602001807f574554483a20666c617368206d696e74206f6e6c79205745544831300000000081525060200191505060405180910390fd5b6dffffffffffffffffffffffffffff8016841115611fa8576040517f08c379a0000000000000000000000000000000000000000000000000000000008152600401808060200182810382526024815260200180613a896024913960400191505060405180910390fd5b83600354016003819055506dffffffffffffffffffffffffffff8016600354111561203b576040517f08c379a000000000000000000000000000000000000000000000000000000000815260040180806020018281038252601f8152602001807f574554483a20746f74616c206c6f616e206c696d69742065786365656465640081525060200191505060405180910390fd5b836000808873ffffffffffffffffffffffffffffffffffffffff1673ffffffffffffffffffffffffffffffffffffffff168152602001908152602001600020600082825401925050819055508573ffffffffffffffffffffffffffffffffffffffff16600073ffffffffffffffffffffffffffffffffffffffff167fddf252ad1be2c89b69c2b068fc378daa952ba7f163c4a11628f55a4df523b3ef866040518082815260200191505060405180910390a37f00000000000000000000000000000000000000000000000000000000000000008673ffffffffffffffffffffffffffffffffffffffff166323e30c8b333088600089896040518763ffffffff1660e01b8152600401808773ffffffffffffffffffffffffffffffffffffffff1681526020018673ffffffffffffffffffffffffffffffffffffffff168152602001858152602001848152602001806020018281038252848482818152602001925080828437600081840152601f19601f820116905080830192505050975050505050505050602060405180830381600087803b1580156121da57600080fd5b505af11580156121ee573d6000803e3d6000fd5b505050506040513d602081101561220457600080fd5b810190808051906020019092919050505014612288576040517f08c379a00000000000000000000000000000000000000000000000000000000081526004018080602001828103825260178152602001807f574554483a20666c617368206c6f616e206661696c656400000000000000000081525060200191505060405180910390fd5b6000600260008873ffffffffffffffffffffffffffffffffffffffff1673ffffffffffffffffffffffffffffffffffffffff16815260200190815260200160002060003073ffffffffffffffffffffffffffffffffffffffff1673ffffffffffffffffffffffffffffffffffffffff1681526020019081526020016000205490507fffffffffffffffffffffffffffffffffffffffffffffffffffffffffffffffff811461249557848110156123a6576040517f08c379a000000000000000000000000000000000000000000000000000000000815260040180806020018281038252601f8152602001807f574554483a2072657175657374206578636565647320616c6c6f77616e63650081525060200191505060405180910390fd5b6000858203905080600260008a73ffffffffffffffffffffffffffffffffffffffff1673ffffffffffffffffffffffffffffffffffffffff16815260200190815260200160002060003073ffffffffffffffffffffffffffffffffffffffff1673ffffffffffffffffffffffffffffffffffffffff168152602001908152602001600020819055503073ffffffffffffffffffffffffffffffffffffffff168873ffffffffffffffffffffffffffffffffffffffff167f8c5be1e5ebec7d5bd14f71427d1e84f3dd0314c0f7b2291e5b200ac8c7c3b925836040518082815260200191505060405180910390a3505b60008060008973ffffffffffffffffffffffffffffffffffffffff1673ffffffffffffffffffffffffffffffffffffffff16815260200190815260200160002054905085811015612531576040517f08c379a0000000000000000000000000000000000000000000000000000000008152600401808060200182810382526021815260200180613aad6021913960400191505060405180910390fd5b8581036000808a73ffffffffffffffffffffffffffffffffffffffff1673ffffffffffffffffffffffffffffffffffffffff16815260200190815260200160002081905550600073ffffffffffffffffffffffffffffffffffffffff168873ffffffffffffffffffffffffffffffffffffffff167fddf252ad1be2c89b69c2b068fc378daa952ba7f163c4a11628f55a4df523b3ef886040518082815260200191505060405180910390a3856003540360038190555060019250505095945050505050565b6000346000808673ffffffffffffffffffffffffffffffffffffffff1673ffffffffffffffffffffffffffffffffffffffff168152602001908152602001600020600082825401925050819055508373ffffffffffffffffffffffffffffffffffffffff16600073ffffffffffffffffffffffffffffffffffffffff167fddf252ad1be2c89b69c2b068fc378daa952ba7f163c4a11628f55a4df523b3ef346040518082815260200191505060405180910390a38373ffffffffffffffffffffffffffffffffffffffff1663a4c0ed36333486866040518563ffffffff1660e01b8152600401808573ffffffffffffffffffffffffffffffffffffffff168152602001848152602001806020018281038252848482818152602001925080828437600081840152601f19601f82011690508083019250505095505050505050602060405180830381600087803b15801561274f57600080fd5b505af1158015612763573d6000803e3d6000fd5b505050506040513d602081101561277957600080fd5b810190808051906020019092919050505090509392505050565b60003073ffffffffffffffffffffffffffffffffffffffff168273ffffffffffffffffffffffffffffffffffffffff16146127cf5760006127e5565b6003546dffffffffffffffffffffffffffff8016035b9050919050565b60006020528060005260406000206000915090505481565b60016020528060005260406000206000915090505481565b7f000000000000000000000000000000000000000000000000000000000000000081565b60035481565b3373ffffffffffffffffffffffffffffffffffffffff168373ffffffffffffffffffffffffffffffffffffffff1614612a88576000600260008573ffffffffffffffffffffffffffffffffffffffff1673ffffffffffffffffffffffffffffffffffffffff16815260200190815260200160002060003373ffffffffffffffffffffffffffffffffffffffff1673ffffffffffffffffffffffffffffffffffffffff1681526020019081526020016000205490507fffffffffffffffffffffffffffffffffffffffffffffffffffffffffffffffff8114612a865781811015612997576040517f08c379a000000000000000000000000000000000000000000000000000000000815260040180806020018281038252601f8152602001807f574554483a2072657175657374206578636565647320616c6c6f77616e63650081525060200191505060405180910390fd5b6000828203905080600260008773ffffffffffffffffffffffffffffffffffffffff1673ffffffffffffffffffffffffffffffffffffffff16815260200190815260200160002060003373ffffffffffffffffffffffffffffffffffffffff1673ffffffffffffffffffffffffffffffffffffffff168152602001908152602001600020819055503373ffffffffffffffffffffffffffffffffffffffff168573ffffffffffffffffffffffffffffffffffffffff167f8c5be1e5ebec7d5bd14f71427d1e84f3dd0314c0f7b2291e5b200ac8c7c3b925836040518082815260200191505060405180910390a3505b505b60008060008573ffffffffffffffffffffffffffffffffffffffff1673ffffffffffffffffffffffffffffffffffffffff16815260200190815260200160002054905081811015612b24576040517f08c379a0000000000000000000000000000000000000000000000000000000008152600401808060200182810382526021815260200180613aad6021913960400191505060405180910390fd5b8181036000808673ffffffffffffffffffffffffffffffffffffffff1673ffffffffffffffffffffffffffffffffffffffff16815260200190815260200160002081905550600073ffffffffffffffffffffffffffffffffffffffff168473ffffffffffffffffffffffffffffffffffffffff167fddf252ad1be2c89b69c2b068fc378daa952ba7f163c4a11628f55a4df523b3ef846040518082815260200191505060405180910390a360008373ffffffffffffffffffffffffffffffffffffffff168360405180600001905060006040518083038185875af1925050503d8060008114612c2f576040519150601f19603f3d011682016040523d82523d6000602084013e612c34565b606091505b5050905080612cab576040517f08c379a000000000000000000000000000000000000000000000000000000000815260040180806020018281038252601b8152602001807f574554483a204574686572207472616e73666572206661696c6564000000000081525060200191505060405180910390fd5b5050505050565b6040518060400160405280600681526020017f574554483130000000000000000000000000000000000000000000000000000081525081565b60008073ffffffffffffffffffffffffffffffffffffffff168373ffffffffffffffffffffffffffffffffffffffff1614612eb85760008060003373ffffffffffffffffffffffffffffffffffffffff1673ffffffffffffffffffffffffffffffffffffffff16815260200190815260200160002054905082811015612dbc576040517f08c379a0000000000000000000000000000000000000000000000000000000008152600401808060200182810382526025815260200180613a646025913960400191505060405180910390fd5b8281036000803373ffffffffffffffffffffffffffffffffffffffff1673ffffffffffffffffffffffffffffffffffffffff16815260200190815260200160002081905550826000808673ffffffffffffffffffffffffffffffffffffffff1673ffffffffffffffffffffffffffffffffffffffff168152602001908152602001600020600082825401925050819055508373ffffffffffffffffffffffffffffffffffffffff163373ffffffffffffffffffffffffffffffffffffffff167fddf252ad1be2c89b69c2b068fc378daa952ba7f163c4a11628f55a4df523b3ef856040518082815260200191505060405180910390a3506130de565b60008060003373ffffffffffffffffffffffffffffffffffffffff1673ffffffffffffffffffffffffffffffffffffffff16815260200190815260200160002054905082811015612f54576040517f08c379a0000000000000000000000000000000000000000000000000000000008152600401808060200182810382526021815260200180613aad6021913960400191505060405180910390fd5b8281036000803373ffffffffffffffffffffffffffffffffffffffff1673ffffffffffffffffffffffffffffffffffffffff16815260200190815260200160002081905550600073ffffffffffffffffffffffffffffffffffffffff163373ffffffffffffffffffffffffffffffffffffffff167fddf252ad1be2c89b69c2b068fc378daa952ba7f163c4a11628f55a4df523b3ef856040518082815260200191505060405180910390a360003373ffffffffffffffffffffffffffffffffffffffff168460405180600001905060006040518083038185875af1925050503d806000811461305f576040519150601f19603f3d011682016040523d82523d6000602084013e613064565b606091505b50509050806130db576040517f08c379a00000000000000000000000000000000000000000000000000000000081526004018080602001828103825260198152602001807f574554483a20455448207472616e73666572206661696c65640000000000000081525060200191505060405180910390fd5b50505b6001905092915050565b346000808373ffffffffffffffffffffffffffffffffffffffff1673ffffffffffffffffffffffffffffffffffffffff168152602001908152602001600020600082825401925050819055508073ffffffffffffffffffffffffffffffffffffffff16600073ffffffffffffffffffffffffffffffffffffffff167fddf252ad1be2c89b69c2b068fc378daa952ba7f163c4a11628f55a4df523b3ef346040518082815260200191505060405180910390a350565b600083600260003373ffffffffffffffffffffffffffffffffffffffff1673ffffffffffffffffffffffffffffffffffffffff16815260200190815260200160002060008773ffffffffffffffffffffffffffffffffffffffff1673ffffffffffffffffffffffffffffffffffffffff168152602001908152602001600020819055508473ffffffffffffffffffffffffffffffffffffffff163373ffffffffffffffffffffffffffffffffffffffff167f8c5be1e5ebec7d5bd14f71427d1e84f3dd0314c0f7b2291e5b200ac8c7c3b925866040518082815260200191505060405180910390a38473ffffffffffffffffffffffffffffffffffffffff1662ba451f338686866040518563ffffffff1660e01b8152600401808573ffffffffffffffffffffffffffffffffffffffff168152602001848152602001806020018281038252848482818152602001925080828437600081840152601f19601f82011690508083019250505095505050505050602060405180830381600087803b15801561332957600080fd5b505af115801561333d573d6000803e3d6000fd5b505050506040513d602081101561335357600080fd5b81019080805190602001909291905050509050949350505050565b7f000000000000000000000000000000000000000000000000000000000000000081565b346000803373ffffffffffffffffffffffffffffffffffffffff1673ffffffffffffffffffffffffffffffffffffffff168152602001908152602001600020600082825401925050819055503373ffffffffffffffffffffffffffffffffffffffff16600073ffffffffffffffffffffffffffffffffffffffff167fddf252ad1be2c89b69c2b068fc378daa952ba7f163c4a11628f55a4df523b3ef346040518082815260200191505060405180910390a3565b834211156134bc576040517f08c379a00000000000000000000000000000000000000000000000000000000081526004018080602001828103825260148152602001807f574554483a2045787069726564207065726d697400000000000000000000000081525060200191505060405180910390fd5b600046905060007f0000000000000000000000000000000000000000000000000000000000000000898989600160008e73ffffffffffffffffffffffffffffffffffffffff1673ffffffffffffffffffffffffffffffffffffffff1681526020019081526020016000206000815480929190600101919050558a604051602001808781526020018673ffffffffffffffffffffffffffffffffffffffff1681526020018573ffffffffffffffffffffffffffffffffffffffff168152602001848152602001838152602001828152602001965050505050505060405160208183030381529060405280519060200120905060007f000000000000000000000000000000000000000000000000000000000000000083146135e4576135df83613965565b613606565b7f00000000000000000000000000000000000000000000000000000000000000005b8260405160200180807f190100000000000000000000000000000000000000000000000000000000000081525060020183815260200182815260200192505050604051602081830303815290604052805190602001209050600060018288888860405160008152602001604052604051808581526020018460ff1681526020018381526020018281526020019450505050506020604051602081039080840390855afa1580156136ba573d6000803e3d6000fd5b505050602060405103519050600073ffffffffffffffffffffffffffffffffffffffff168173ffffffffffffffffffffffffffffffffffffffff161415801561372e57508a73ffffffffffffffffffffffffffffffffffffffff168173ffffffffffffffffffffffffffffffffffffffff16145b6137a0576040517f08c379a00000000000000000000000000000000000000000000000000000000081526004018080602001828103825260148152602001807f574554483a20696e76616c6964207065726d697400000000000000000000000081525060200191505060405180910390fd5b88600260008d73ffffffffffffffffffffffffffffffffffffffff1673ffffffffffffffffffffffffffffffffffffffff16815260200190815260200160002060008c73ffffffffffffffffffffffffffffffffffffffff1673ffffffffffffffffffffffffffffffffffffffff168152602001908152602001600020819055508973ffffffffffffffffffffffffffffffffffffffff168b73ffffffffffffffffffffffffffffffffffffffff167f8c5be1e5ebec7d5bd14f71427d1e84f3dd0314c0f7b2291e5b200ac8c7c3b9258b6040518082815260200191505060405180910390a35050505050505050505050565b60003073ffffffffffffffffffffffffffffffffffffffff168373ffffffffffffffffffffffffffffffffffffffff1614613936576040517f08c379a000000000000000000000000000000000000000000000000000000000815260040180806020018281038252601c8152602001807f574554483a20666c617368206d696e74206f6e6c79205745544831300000000081525060200191505060405180910390fd5b6000905092915050565b6002602052816000526040600020602052806000526040600020600091509150505481565b60007f8b73c3c69bb8fe3d512ecc4cf759cc79239f7b179b0ffacaa9a75d522b39400f6040518060400160405280601181526020017f5772617070656420457468657220763130000000000000000000000000000000815250805190602001206040518060400160405280600181526020017f3100000000000000000000000000000000000000000000000000000000000000815250805190602001208430604051602001808681526020018581526020018481526020018381526020018273ffffffffffffffffffffffffffffffffffffffff1681526020019550505050505060405160208183030381529060405280519060200120905091905056fe574554483a207472616e7366657220616d6f756e7420657863656564732062616c616e6365574554483a20696e646976696475616c206c6f616e206c696d6974206578636565646564574554483a206275726e20616d6f756e7420657863656564732062616c616e6365a264697066735822122089ecf1d53a2cb45392da47f31e18181bc15c273dec26c38714d484ff27afacd164736f6c63430007060033",
					"opcodes": "PUSH2 0x100 PUSH1 0x40 MSTORE PUSH32 0x439148F0BBC682CA079E46D6E2C2F0C1E3B820F1A291B069D8882ABF8CF18DD9 PUSH1 0x80 SWAP1 DUP2 MSTORE POP PUSH32 0x6E71EDAE12B1B97F4D1F60370FEF10105FA2FAAE0126114A169C64845D6126C9 PUSH1 0xA0 SWAP1 DUP2 MSTORE POP CALLVALUE DUP1 ISZERO PUSH3 0x60 JUMPI PUSH1 0x0 DUP1 REVERT JUMPDEST POP PUSH1 0x0 CHAINID SWAP1 POP DUP1 PUSH1 0xC0 DUP2 DUP2 MSTORE POP POP PUSH3 0x7F DUP2 PUSH3 0x8D PUSH1 0x20 SHL PUSH1 0x20 SHR JUMP JUMPDEST PUSH1 0xE0 DUP2 DUP2 MSTORE POP POP POP PUSH3 0x18B JUMP JUMPDEST PUSH1 0x0 PUSH32 0x8B73C3C69BB8FE3D512ECC4CF759CC79239F7B179B0FFACAA9A75D522B39400F PUSH1 0x40 MLOAD DUP1 PUSH1 0x40 ADD PUSH1 0x40 MSTORE DUP1 PUSH1 0x11 DUP2 MSTORE PUSH1 0x20 ADD PUSH32 0x5772617070656420457468657220763130000000000000000000000000000000 DUP2 MSTORE POP DUP1 MLOAD SWAP1 PUSH1 0x20 ADD KECCAK256 PUSH1 0x40 MLOAD DUP1 PUSH1 0x40 ADD PUSH1 0x40 MSTORE DUP1 PUSH1 0x1 DUP2 MSTORE PUSH1 0x20 ADD PUSH32 0x3100000000000000000000000000000000000000000000000000000000000000 DUP2 MSTORE POP DUP1 MLOAD SWAP1 PUSH1 0x20 ADD KECCAK256 DUP5 ADDRESS PUSH1 0x40 MLOAD PUSH1 0x20 ADD DUP1 DUP7 DUP2 MSTORE PUSH1 0x20 ADD DUP6 DUP2 MSTORE PUSH1 0x20 ADD DUP5 DUP2 MSTORE PUSH1 0x20 ADD DUP4 DUP2 MSTORE PUSH1 0x20 ADD DUP3 PUSH20 0xFFFFFFFFFFFFFFFFFFFFFFFFFFFFFFFFFFFFFFFF AND DUP2 MSTORE PUSH1 0x20 ADD SWAP6 POP POP POP POP POP POP PUSH1 0x40 MLOAD PUSH1 0x20 DUP2 DUP4 SUB SUB DUP2 MSTORE SWAP1 PUSH1 0x40 MSTORE DUP1 MLOAD SWAP1 PUSH1 0x20 ADD KECCAK256 SWAP1 POP SWAP2 SWAP1 POP JUMP JUMPDEST PUSH1 0x80 MLOAD PUSH1 0xA0 MLOAD PUSH1 0xC0 MLOAD PUSH1 0xE0 MLOAD PUSH2 0x3B03 PUSH3 0x1DA PUSH1 0x0 CODECOPY DUP1 PUSH2 0x1999 MSTORE DUP1 PUSH2 0x35E6 MSTORE POP DUP1 PUSH2 0x1964 MSTORE DUP1 PUSH2 0x3370 MSTORE DUP1 PUSH2 0x35B1 MSTORE POP DUP1 PUSH2 0x1935 MSTORE DUP1 PUSH2 0x34C5 MSTORE POP DUP1 PUSH2 0x20EF MSTORE DUP1 PUSH2 0x281E MSTORE POP PUSH2 0x3B03 PUSH1 0x0 RETURN INVALID PUSH1 0x80 PUSH1 0x40 MSTORE PUSH1 0x4 CALLDATASIZE LT PUSH2 0x1A0 JUMPI PUSH1 0x0 CALLDATALOAD PUSH1 0xE0 SHR DUP1 PUSH4 0x70A08231 GT PUSH2 0xEC JUMPI DUP1 PUSH4 0xB760FAF9 GT PUSH2 0x8A JUMPI DUP1 PUSH4 0xD0E30DB0 GT PUSH2 0x64 JUMPI DUP1 PUSH4 0xD0E30DB0 EQ PUSH2 0xBC6 JUMPI DUP1 PUSH4 0xD505ACCF EQ PUSH2 0xBD0 JUMPI DUP1 PUSH4 0xD9D98CE4 EQ PUSH2 0xC76 JUMPI DUP1 PUSH4 0xDD62ED3E EQ PUSH2 0xCE5 JUMPI PUSH2 0x259 JUMP JUMPDEST DUP1 PUSH4 0xB760FAF9 EQ PUSH2 0xA91 JUMPI DUP1 PUSH4 0xCAE9CA51 EQ PUSH2 0xAD5 JUMPI DUP1 PUSH4 0xCD0D0096 EQ PUSH2 0xB9B JUMPI PUSH2 0x259 JUMP JUMPDEST DUP1 PUSH4 0x8B28D32F GT PUSH2 0xC6 JUMPI DUP1 PUSH4 0x8B28D32F EQ PUSH2 0x8EA JUMPI DUP1 PUSH4 0x9555A942 EQ PUSH2 0x915 JUMPI DUP1 PUSH4 0x95D89B41 EQ PUSH2 0x990 JUMPI DUP1 PUSH4 0xA9059CBB EQ PUSH2 0xA20 JUMPI PUSH2 0x259 JUMP JUMPDEST DUP1 PUSH4 0x70A08231 EQ PUSH2 0x7F5 JUMPI DUP1 PUSH4 0x7ECEBE00 EQ PUSH2 0x85A JUMPI DUP1 PUSH4 0x8237E538 EQ PUSH2 0x8BF JUMPI PUSH2 0x259 JUMP JUMPDEST DUP1 PUSH4 0x30ADF81F GT PUSH2 0x159 JUMPI DUP1 PUSH4 0x4000AEA0 GT PUSH2 0x133 JUMPI DUP1 PUSH4 0x4000AEA0 EQ PUSH2 0x535 JUMPI DUP1 PUSH4 0x5CFFE9DE EQ PUSH2 0x5FB JUMPI DUP1 PUSH4 0x5DDB7D7E EQ PUSH2 0x6E1 JUMPI DUP1 PUSH4 0x613255AB EQ PUSH2 0x790 JUMPI PUSH2 0x259 JUMP JUMPDEST DUP1 PUSH4 0x30ADF81F EQ PUSH2 0x4B1 JUMPI DUP1 PUSH4 0x313CE567 EQ PUSH2 0x4DC JUMPI DUP1 PUSH4 0x3644E515 EQ PUSH2 0x50A JUMPI PUSH2 0x259 JUMP JUMPDEST DUP1 PUSH4 0x6FDDE03 EQ PUSH2 0x25E JUMPI DUP1 PUSH4 0x95EA7B3 EQ PUSH2 0x2EE JUMPI DUP1 PUSH4 0x18160DDD EQ PUSH2 0x35F JUMPI DUP1 PUSH4 0x205C2878 EQ PUSH2 0x38A JUMPI DUP1 PUSH4 0x23B872DD EQ PUSH2 0x3E5 JUMPI DUP1 PUSH4 0x2E1A7D4D EQ PUSH2 0x476 JUMPI PUSH2 0x259 JUMP JUMPDEST CALLDATASIZE PUSH2 0x259 JUMPI CALLVALUE PUSH1 0x0 DUP1 CALLER PUSH20 0xFFFFFFFFFFFFFFFFFFFFFFFFFFFFFFFFFFFFFFFF AND PUSH20 0xFFFFFFFFFFFFFFFFFFFFFFFFFFFFFFFFFFFFFFFF AND DUP2 MSTORE PUSH1 0x20 ADD SWAP1 DUP2 MSTORE PUSH1 0x20 ADD PUSH1 0x0 KECCAK256 PUSH1 0x0 DUP3 DUP3 SLOAD ADD SWAP3 POP POP DUP2 SWAP1 SSTORE POP CALLER PUSH20 0xFFFFFFFFFFFFFFFFFFFFFFFFFFFFFFFFFFFFFFFF AND PUSH1 0x0 PUSH20 0xFFFFFFFFFFFFFFFFFFFFFFFFFFFFFFFFFFFFFFFF AND PUSH32 0xDDF252AD1BE2C89B69C2B068FC378DAA952BA7F163C4A11628F55A4DF523B3EF CALLVALUE PUSH1 0x40 MLOAD DUP1 DUP3 DUP2 MSTORE PUSH1 0x20 ADD SWAP2 POP POP PUSH1 0x40 MLOAD DUP1 SWAP2 SUB SWAP1 LOG3 STOP JUMPDEST PUSH1 0x0 DUP1 REVERT JUMPDEST CALLVALUE DUP1 ISZERO PUSH2 0x26A JUMPI PUSH1 0x0 DUP1 REVERT JUMPDEST POP PUSH2 0x273 PUSH2 0xD6A JUMP JUMPDEST PUSH1 0x40 MLOAD DUP1 DUP1 PUSH1 0x20 ADD DUP3 DUP2 SUB DUP3 MSTORE DUP4 DUP2 DUP2 MLOAD DUP2 MSTORE PUSH1 0x20 ADD SWAP2 POP DUP1 MLOAD SWAP1 PUSH1 0x20 ADD SWAP1 DUP1 DUP4 DUP4 PUSH1 0x0 JUMPDEST DUP4 DUP2 LT ISZERO PUSH2 0x2B3 JUMPI DUP1 DUP3 ADD MLOAD DUP2 DUP5 ADD MSTORE PUSH1 0x20 DUP2 ADD SWAP1 POP PUSH2 0x298 JUMP JUMPDEST POP POP POP POP SWAP1 POP SWAP1 DUP2 ADD SWAP1 PUSH1 0x1F AND DUP1 ISZERO PUSH2 0x2E0 JUMPI DUP1 DUP3 SUB DUP1 MLOAD PUSH1 0x1 DUP4 PUSH1 0x20 SUB PUSH2 0x100 EXP SUB NOT AND DUP2 MSTORE PUSH1 0x20 ADD SWAP2 POP JUMPDEST POP SWAP3 POP POP POP PUSH1 0x40 MLOAD DUP1 SWAP2 SUB SWAP1 RETURN JUMPDEST CALLVALUE DUP1 ISZERO PUSH2 0x2FA JUMPI PUSH1 0x0 DUP1 REVERT JUMPDEST POP PUSH2 0x347 PUSH1 0x4 DUP1 CALLDATASIZE SUB PUSH1 0x40 DUP2 LT ISZERO PUSH2 0x311 JUMPI PUSH1 0x0 DUP1 REVERT JUMPDEST DUP2 ADD SWAP1 DUP1 DUP1 CALLDATALOAD PUSH20 0xFFFFFFFFFFFFFFFFFFFFFFFFFFFFFFFFFFFFFFFF AND SWAP1 PUSH1 0x20 ADD SWAP1 SWAP3 SWAP2 SWAP1 DUP1 CALLDATALOAD SWAP1 PUSH1 0x20 ADD SWAP1 SWAP3 SWAP2 SWAP1 POP POP POP PUSH2 0xDA3 JUMP JUMPDEST PUSH1 0x40 MLOAD DUP1 DUP3 ISZERO ISZERO DUP2 MSTORE PUSH1 0x20 ADD SWAP2 POP POP PUSH1 0x40 MLOAD DUP1 SWAP2 SUB SWAP1 RETURN JUMPDEST CALLVALUE DUP1 ISZERO PUSH2 0x36B JUMPI PUSH1 0x0 DUP1 REVERT JUMPDEST POP PUSH2 0x374 PUSH2 0xE95 JUMP JUMPDEST PUSH1 0x40 MLOAD DUP1 DUP3 DUP2 MSTORE PUSH1 0x20 ADD SWAP2 POP POP PUSH1 0x40 MLOAD DUP1 SWAP2 SUB SWAP1 RETURN JUMPDEST CALLVALUE DUP1 ISZERO PUSH2 0x396 JUMPI PUSH1 0x0 DUP1 REVERT JUMPDEST POP PUSH2 0x3E3 PUSH1 0x4 DUP1 CALLDATASIZE SUB PUSH1 0x40 DUP2 LT ISZERO PUSH2 0x3AD JUMPI PUSH1 0x0 DUP1 REVERT JUMPDEST DUP2 ADD SWAP1 DUP1 DUP1 CALLDATALOAD PUSH20 0xFFFFFFFFFFFFFFFFFFFFFFFFFFFFFFFFFFFFFFFF AND SWAP1 PUSH1 0x20 ADD SWAP1 SWAP3 SWAP2 SWAP1 DUP1 CALLDATALOAD SWAP1 PUSH1 0x20 ADD SWAP1 SWAP3 SWAP2 SWAP1 POP POP POP PUSH2 0xEA1 JUMP JUMPDEST STOP JUMPDEST CALLVALUE DUP1 ISZERO PUSH2 0x3F1 JUMPI PUSH1 0x0 DUP1 REVERT JUMPDEST POP PUSH2 0x45E PUSH1 0x4 DUP1 CALLDATASIZE SUB PUSH1 0x60 DUP2 LT ISZERO PUSH2 0x408 JUMPI PUSH1 0x0 DUP1 REVERT JUMPDEST DUP2 ADD SWAP1 DUP1 DUP1 CALLDATALOAD PUSH20 0xFFFFFFFFFFFFFFFFFFFFFFFFFFFFFFFFFFFFFFFF AND SWAP1 PUSH1 0x20 ADD SWAP1 SWAP3 SWAP2 SWAP1 DUP1 CALLDATALOAD PUSH20 0xFFFFFFFFFFFFFFFFFFFFFFFFFFFFFFFFFFFFFFFF AND SWAP1 PUSH1 0x20 ADD SWAP1 SWAP3 SWAP2 SWAP1 DUP1 CALLDATALOAD SWAP1 PUSH1 0x20 ADD SWAP1 SWAP3 SWAP2 SWAP1 POP POP POP PUSH2 0x10CA JUMP JUMPDEST PUSH1 0x40 MLOAD DUP1 DUP3 ISZERO ISZERO DUP2 MSTORE PUSH1 0x20 ADD SWAP2 POP POP PUSH1 0x40 MLOAD DUP1 SWAP2 SUB SWAP1 RETURN JUMPDEST CALLVALUE DUP1 ISZERO PUSH2 0x482 JUMPI PUSH1 0x0 DUP1 REVERT JUMPDEST POP PUSH2 0x4AF PUSH1 0x4 DUP1 CALLDATASIZE SUB PUSH1 0x20 DUP2 LT ISZERO PUSH2 0x499 JUMPI PUSH1 0x0 DUP1 REVERT JUMPDEST DUP2 ADD SWAP1 DUP1 DUP1 CALLDATALOAD SWAP1 PUSH1 0x20 ADD SWAP1 SWAP3 SWAP2 SWAP1 POP POP POP PUSH2 0x170B JUMP JUMPDEST STOP JUMPDEST CALLVALUE DUP1 ISZERO PUSH2 0x4BD JUMPI PUSH1 0x0 DUP1 REVERT JUMPDEST POP PUSH2 0x4C6 PUSH2 0x1933 JUMP JUMPDEST PUSH1 0x40 MLOAD DUP1 DUP3 DUP2 MSTORE PUSH1 0x20 ADD SWAP2 POP POP PUSH1 0x40 MLOAD DUP1 SWAP2 SUB SWAP1 RETURN JUMPDEST CALLVALUE DUP1 ISZERO PUSH2 0x4E8 JUMPI PUSH1 0x0 DUP1 REVERT JUMPDEST POP PUSH2 0x4F1 PUSH2 0x1957 JUMP JUMPDEST PUSH1 0x40 MLOAD DUP1 DUP3 PUSH1 0xFF AND DUP2 MSTORE PUSH1 0x20 ADD SWAP2 POP POP PUSH1 0x40 MLOAD DUP1 SWAP2 SUB SWAP1 RETURN JUMPDEST CALLVALUE DUP1 ISZERO PUSH2 0x516 JUMPI PUSH1 0x0 DUP1 REVERT JUMPDEST POP PUSH2 0x51F PUSH2 0x195C JUMP JUMPDEST PUSH1 0x40 MLOAD DUP1 DUP3 DUP2 MSTORE PUSH1 0x20 ADD SWAP2 POP POP PUSH1 0x40 MLOAD DUP1 SWAP2 SUB SWAP1 RETURN JUMPDEST CALLVALUE DUP1 ISZERO PUSH2 0x541 JUMPI PUSH1 0x0 DUP1 REVERT JUMPDEST POP PUSH2 0x5E3 PUSH1 0x4 DUP1 CALLDATASIZE SUB PUSH1 0x60 DUP2 LT ISZERO PUSH2 0x558 JUMPI PUSH1 0x0 DUP1 REVERT JUMPDEST DUP2 ADD SWAP1 DUP1 DUP1 CALLDATALOAD PUSH20 0xFFFFFFFFFFFFFFFFFFFFFFFFFFFFFFFFFFFFFFFF AND SWAP1 PUSH1 0x20 ADD SWAP1 SWAP3 SWAP2 SWAP1 DUP1 CALLDATALOAD SWAP1 PUSH1 0x20 ADD SWAP1 SWAP3 SWAP2 SWAP1 DUP1 CALLDATALOAD SWAP1 PUSH1 0x20 ADD SWAP1 PUSH5 0x100000000 DUP2 GT ISZERO PUSH2 0x59F JUMPI PUSH1 0x0 DUP1 REVERT JUMPDEST DUP3 ADD DUP4 PUSH1 0x20 DUP3 ADD GT ISZERO PUSH2 0x5B1 JUMPI PUSH1 0x0 DUP1 REVERT JUMPDEST DUP1 CALLDATALOAD SWAP1 PUSH1 0x20 ADD SWAP2 DUP5 PUSH1 0x1 DUP4 MUL DUP5 ADD GT PUSH5 0x100000000 DUP4 GT OR ISZERO PUSH2 0x5D3 JUMPI PUSH1 0x0 DUP1 REVERT JUMPDEST SWAP1 SWAP2 SWAP3 SWAP4 SWAP2 SWAP3 SWAP4 SWAP1 POP POP POP PUSH2 0x19BF JUMP JUMPDEST PUSH1 0x40 MLOAD DUP1 DUP3 ISZERO ISZERO DUP2 MSTORE PUSH1 0x20 ADD SWAP2 POP POP PUSH1 0x40 MLOAD DUP1 SWAP2 SUB SWAP1 RETURN JUMPDEST CALLVALUE DUP1 ISZERO PUSH2 0x607 JUMPI PUSH1 0x0 DUP1 REVERT JUMPDEST POP PUSH2 0x6C9 PUSH1 0x4 DUP1 CALLDATASIZE SUB PUSH1 0x80 DUP2 LT ISZERO PUSH2 0x61E JUMPI PUSH1 0x0 DUP1 REVERT JUMPDEST DUP2 ADD SWAP1 DUP1 DUP1 CALLDATALOAD PUSH20 0xFFFFFFFFFFFFFFFFFFFFFFFFFFFFFFFFFFFFFFFF AND SWAP1 PUSH1 0x20 ADD SWAP1 SWAP3 SWAP2 SWAP1 DUP1 CALLDATALOAD PUSH20 0xFFFFFFFFFFFFFFFFFFFFFFFFFFFFFFFFFFFFFFFF AND SWAP1 PUSH1 0x20 ADD SWAP1 SWAP3 SWAP2 SWAP1 DUP1 CALLDATALOAD SWAP1 PUSH1 0x20 ADD SWAP1 SWAP3 SWAP2 SWAP1 DUP1 CALLDATALOAD SWAP1 PUSH1 0x20 ADD SWAP1 PUSH5 0x100000000 DUP2 GT ISZERO PUSH2 0x685 JUMPI PUSH1 0x0 DUP1 REVERT JUMPDEST DUP3 ADD DUP4 PUSH1 0x20 DUP3 ADD GT ISZERO PUSH2 0x697 JUMPI PUSH1 0x0 DUP1 REVERT JUMPDEST DUP1 CALLDATALOAD SWAP1 PUSH1 0x20 ADD SWAP2 DUP5 PUSH1 0x1 DUP4 MUL DUP5 ADD GT PUSH5 0x100000000 DUP4 GT OR ISZERO PUSH2 0x6B9 JUMPI PUSH1 0x0 DUP1 REVERT JUMPDEST SWAP1 SWAP2 SWAP3 SWAP4 SWAP2 SWAP3 SWAP4 SWAP1 POP POP POP PUSH2 0x1E9C JUMP JUMPDEST PUSH1 0x40 MLOAD DUP1 DUP3 ISZERO ISZERO DUP2 MSTORE PUSH1 0x20 ADD SWAP2 POP POP PUSH1 0x40 MLOAD DUP1 SWAP2 SUB SWAP1 RETURN JUMPDEST PUSH2 0x778 PUSH1 0x4 DUP1 CALLDATASIZE SUB PUSH1 0x40 DUP2 LT ISZERO PUSH2 0x6F7 JUMPI PUSH1 0x0 DUP1 REVERT JUMPDEST DUP2 ADD SWAP1 DUP1 DUP1 CALLDATALOAD PUSH20 0xFFFFFFFFFFFFFFFFFFFFFFFFFFFFFFFFFFFFFFFF AND SWAP1 PUSH1 0x20 ADD SWAP1 SWAP3 SWAP2 SWAP1 DUP1 CALLDATALOAD SWAP1 PUSH1 0x20 ADD SWAP1 PUSH5 0x100000000 DUP2 GT ISZERO PUSH2 0x734 JUMPI PUSH1 0x0 DUP1 REVERT JUMPDEST DUP3 ADD DUP4 PUSH1 0x20 DUP3 ADD GT ISZERO PUSH2 0x746 JUMPI PUSH1 0x0 DUP1 REVERT JUMPDEST DUP1 CALLDATALOAD SWAP1 PUSH1 0x20 ADD SWAP2 DUP5 PUSH1 0x1 DUP4 MUL DUP5 ADD GT PUSH5 0x100000000 DUP4 GT OR ISZERO PUSH2 0x768 JUMPI PUSH1 0x0 DUP1 REVERT JUMPDEST SWAP1 SWAP2 SWAP3 SWAP4 SWAP2 SWAP3 SWAP4 SWAP1 POP POP POP PUSH2 0x25F6 JUMP JUMPDEST PUSH1 0x40 MLOAD DUP1 DUP3 ISZERO ISZERO DUP2 MSTORE PUSH1 0x20 ADD SWAP2 POP POP PUSH1 0x40 MLOAD DUP1 SWAP2 SUB SWAP1 RETURN JUMPDEST CALLVALUE DUP1 ISZERO PUSH2 0x79C JUMPI PUSH1 0x0 DUP1 REVERT JUMPDEST POP PUSH2 0x7DF PUSH1 0x4 DUP1 CALLDATASIZE SUB PUSH1 0x20 DUP2 LT ISZERO PUSH2 0x7B3 JUMPI PUSH1 0x0 DUP1 REVERT JUMPDEST DUP2 ADD SWAP1 DUP1 DUP1 CALLDATALOAD PUSH20 0xFFFFFFFFFFFFFFFFFFFFFFFFFFFFFFFFFFFFFFFF AND SWAP1 PUSH1 0x20 ADD SWAP1 SWAP3 SWAP2 SWAP1 POP POP POP PUSH2 0x2793 JUMP JUMPDEST PUSH1 0x40 MLOAD DUP1 DUP3 DUP2 MSTORE PUSH1 0x20 ADD SWAP2 POP POP PUSH1 0x40 MLOAD DUP1 SWAP2 SUB SWAP1 RETURN JUMPDEST CALLVALUE DUP1 ISZERO PUSH2 0x801 JUMPI PUSH1 0x0 DUP1 REVERT JUMPDEST POP PUSH2 0x844 PUSH1 0x4 DUP1 CALLDATASIZE SUB PUSH1 0x20 DUP2 LT ISZERO PUSH2 0x818 JUMPI PUSH1 0x0 DUP1 REVERT JUMPDEST DUP2 ADD SWAP1 DUP1 DUP1 CALLDATALOAD PUSH20 0xFFFFFFFFFFFFFFFFFFFFFFFFFFFFFFFFFFFFFFFF AND SWAP1 PUSH1 0x20 ADD SWAP1 SWAP3 SWAP2 SWAP1 POP POP POP PUSH2 0x27EC JUMP JUMPDEST PUSH1 0x40 MLOAD DUP1 DUP3 DUP2 MSTORE PUSH1 0x20 ADD SWAP2 POP POP PUSH1 0x40 MLOAD DUP1 SWAP2 SUB SWAP1 RETURN JUMPDEST CALLVALUE DUP1 ISZERO PUSH2 0x866 JUMPI PUSH1 0x0 DUP1 REVERT JUMPDEST POP PUSH2 0x8A9 PUSH1 0x4 DUP1 CALLDATASIZE SUB PUSH1 0x20 DUP2 LT ISZERO PUSH2 0x87D JUMPI PUSH1 0x0 DUP1 REVERT JUMPDEST DUP2 ADD SWAP1 DUP1 DUP1 CALLDATALOAD PUSH20 0xFFFFFFFFFFFFFFFFFFFFFFFFFFFFFFFFFFFFFFFF AND SWAP1 PUSH1 0x20 ADD SWAP1 SWAP3 SWAP2 SWAP1 POP POP POP PUSH2 0x2804 JUMP JUMPDEST PUSH1 0x40 MLOAD DUP1 DUP3 DUP2 MSTORE PUSH1 0x20 ADD SWAP2 POP POP PUSH1 0x40 MLOAD DUP1 SWAP2 SUB SWAP1 RETURN JUMPDEST CALLVALUE DUP1 ISZERO PUSH2 0x8CB JUMPI PUSH1 0x0 DUP1 REVERT JUMPDEST POP PUSH2 0x8D4 PUSH2 0x281C JUMP JUMPDEST PUSH1 0x40 MLOAD DUP1 DUP3 DUP2 MSTORE PUSH1 0x20 ADD SWAP2 POP POP PUSH1 0x40 MLOAD DUP1 SWAP2 SUB SWAP1 RETURN JUMPDEST CALLVALUE DUP1 ISZERO PUSH2 0x8F6 JUMPI PUSH1 0x0 DUP1 REVERT JUMPDEST POP PUSH2 0x8FF PUSH2 0x2840 JUMP JUMPDEST PUSH1 0x40 MLOAD DUP1 DUP3 DUP2 MSTORE PUSH1 0x20 ADD SWAP2 POP POP PUSH1 0x40 MLOAD DUP1 SWAP2 SUB SWAP1 RETURN JUMPDEST CALLVALUE DUP1 ISZERO PUSH2 0x921 JUMPI PUSH1 0x0 DUP1 REVERT JUMPDEST POP PUSH2 0x98E PUSH1 0x4 DUP1 CALLDATASIZE SUB PUSH1 0x60 DUP2 LT ISZERO PUSH2 0x938 JUMPI PUSH1 0x0 DUP1 REVERT JUMPDEST DUP2 ADD SWAP1 DUP1 DUP1 CALLDATALOAD PUSH20 0xFFFFFFFFFFFFFFFFFFFFFFFFFFFFFFFFFFFFFFFF AND SWAP1 PUSH1 0x20 ADD SWAP1 SWAP3 SWAP2 SWAP1 DUP1 CALLDATALOAD PUSH20 0xFFFFFFFFFFFFFFFFFFFFFFFFFFFFFFFFFFFFFFFF AND SWAP1 PUSH1 0x20 ADD SWAP1 SWAP3 SWAP2 SWAP1 DUP1 CALLDATALOAD SWAP1 PUSH1 0x20 ADD SWAP1 SWAP3 SWAP2 SWAP1 POP POP POP PUSH2 0x2846 JUMP JUMPDEST STOP JUMPDEST CALLVALUE DUP1 ISZERO PUSH2 0x99C JUMPI PUSH1 0x0 DUP1 REVERT JUMPDEST POP PUSH2 0x9A5 PUSH2 0x2CB2 JUMP JUMPDEST PUSH1 0x40 MLOAD DUP1 DUP1 PUSH1 0x20 ADD DUP3 DUP2 SUB DUP3 MSTORE DUP4 DUP2 DUP2 MLOAD DUP2 MSTORE PUSH1 0x20 ADD SWAP2 POP DUP1 MLOAD SWAP1 PUSH1 0x20 ADD SWAP1 DUP1 DUP4 DUP4 PUSH1 0x0 JUMPDEST DUP4 DUP2 LT ISZERO PUSH2 0x9E5 JUMPI DUP1 DUP3 ADD MLOAD DUP2 DUP5 ADD MSTORE PUSH1 0x20 DUP2 ADD SWAP1 POP PUSH2 0x9CA JUMP JUMPDEST POP POP POP POP SWAP1 POP SWAP1 DUP2 ADD SWAP1 PUSH1 0x1F AND DUP1 ISZERO PUSH2 0xA12 JUMPI DUP1 DUP3 SUB DUP1 MLOAD PUSH1 0x1 DUP4 PUSH1 0x20 SUB PUSH2 0x100 EXP SUB NOT AND DUP2 MSTORE PUSH1 0x20 ADD SWAP2 POP JUMPDEST POP SWAP3 POP POP POP PUSH1 0x40 MLOAD DUP1 SWAP2 SUB SWAP1 RETURN JUMPDEST CALLVALUE DUP1 ISZERO PUSH2 0xA2C JUMPI PUSH1 0x0 DUP1 REVERT JUMPDEST POP PUSH2 0xA79 PUSH1 0x4 DUP1 CALLDATASIZE SUB PUSH1 0x40 DUP2 LT ISZERO PUSH2 0xA43 JUMPI PUSH1 0x0 DUP1 REVERT JUMPDEST DUP2 ADD SWAP1 DUP1 DUP1 CALLDATALOAD PUSH20 0xFFFFFFFFFFFFFFFFFFFFFFFFFFFFFFFFFFFFFFFF AND SWAP1 PUSH1 0x20 ADD SWAP1 SWAP3 SWAP2 SWAP1 DUP1 CALLDATALOAD SWAP1 PUSH1 0x20 ADD SWAP1 SWAP3 SWAP2 SWAP1 POP POP POP PUSH2 0x2CEB JUMP JUMPDEST PUSH1 0x40 MLOAD DUP1 DUP3 ISZERO ISZERO DUP2 MSTORE PUSH1 0x20 ADD SWAP2 POP POP PUSH1 0x40 MLOAD DUP1 SWAP2 SUB SWAP1 RETURN JUMPDEST PUSH2 0xAD3 PUSH1 0x4 DUP1 CALLDATASIZE SUB PUSH1 0x20 DUP2 LT ISZERO PUSH2 0xAA7 JUMPI PUSH1 0x0 DUP1 REVERT JUMPDEST DUP2 ADD SWAP1 DUP1 DUP1 CALLDATALOAD PUSH20 0xFFFFFFFFFFFFFFFFFFFFFFFFFFFFFFFFFFFFFFFF AND SWAP1 PUSH1 0x20 ADD SWAP1 SWAP3 SWAP2 SWAP1 POP POP POP PUSH2 0x30E8 JUMP JUMPDEST STOP JUMPDEST CALLVALUE DUP1 ISZERO PUSH2 0xAE1 JUMPI PUSH1 0x0 DUP1 REVERT JUMPDEST POP PUSH2 0xB83 PUSH1 0x4 DUP1 CALLDATASIZE SUB PUSH1 0x60 DUP2 LT ISZERO PUSH2 0xAF8 JUMPI PUSH1 0x0 DUP1 REVERT JUMPDEST DUP2 ADD SWAP1 DUP1 DUP1 CALLDATALOAD PUSH20 0xFFFFFFFFFFFFFFFFFFFFFFFFFFFFFFFFFFFFFFFF AND SWAP1 PUSH1 0x20 ADD SWAP1 SWAP3 SWAP2 SWAP1 DUP1 CALLDATALOAD SWAP1 PUSH1 0x20 ADD SWAP1 SWAP3 SWAP2 SWAP1 DUP1 CALLDATALOAD SWAP1 PUSH1 0x20 ADD SWAP1 PUSH5 0x100000000 DUP2 GT ISZERO PUSH2 0xB3F JUMPI PUSH1 0x0 DUP1 REVERT JUMPDEST DUP3 ADD DUP4 PUSH1 0x20 DUP3 ADD GT ISZERO PUSH2 0xB51 JUMPI PUSH1 0x0 DUP1 REVERT JUMPDEST DUP1 CALLDATALOAD SWAP1 PUSH1 0x20 ADD SWAP2 DUP5 PUSH1 0x1 DUP4 MUL DUP5 ADD GT PUSH5 0x100000000 DUP4 GT OR ISZERO PUSH2 0xB73 JUMPI PUSH1 0x0 DUP1 REVERT JUMPDEST SWAP1 SWAP2 SWAP3 SWAP4 SWAP2 SWAP3 SWAP4 SWAP1 POP POP POP PUSH2 0x319D JUMP JUMPDEST PUSH1 0x40 MLOAD DUP1 DUP3 ISZERO ISZERO DUP2 MSTORE PUSH1 0x20 ADD SWAP2 POP POP PUSH1 0x40 MLOAD DUP1 SWAP2 SUB SWAP1 RETURN JUMPDEST CALLVALUE DUP1 ISZERO PUSH2 0xBA7 JUMPI PUSH1 0x0 DUP1 REVERT JUMPDEST POP PUSH2 0xBB0 PUSH2 0x336E JUMP JUMPDEST PUSH1 0x40 MLOAD DUP1 DUP3 DUP2 MSTORE PUSH1 0x20 ADD SWAP2 POP POP PUSH1 0x40 MLOAD DUP1 SWAP2 SUB SWAP1 RETURN JUMPDEST PUSH2 0xBCE PUSH2 0x3392 JUMP JUMPDEST STOP JUMPDEST CALLVALUE DUP1 ISZERO PUSH2 0xBDC JUMPI PUSH1 0x0 DUP1 REVERT JUMPDEST POP PUSH2 0xC74 PUSH1 0x4 DUP1 CALLDATASIZE SUB PUSH1 0xE0 DUP2 LT ISZERO PUSH2 0xBF3 JUMPI PUSH1 0x0 DUP1 REVERT JUMPDEST DUP2 ADD SWAP1 DUP1 DUP1 CALLDATALOAD PUSH20 0xFFFFFFFFFFFFFFFFFFFFFFFFFFFFFFFFFFFFFFFF AND SWAP1 PUSH1 0x20 ADD SWAP1 SWAP3 SWAP2 SWAP1 DUP1 CALLDATALOAD PUSH20 0xFFFFFFFFFFFFFFFFFFFFFFFFFFFFFFFFFFFFFFFF AND SWAP1 PUSH1 0x20 ADD SWAP1 SWAP3 SWAP2 SWAP1 DUP1 CALLDATALOAD SWAP1 PUSH1 0x20 ADD SWAP1 SWAP3 SWAP2 SWAP1 DUP1 CALLDATALOAD SWAP1 PUSH1 0x20 ADD SWAP1 SWAP3 SWAP2 SWAP1 DUP1 CALLDATALOAD PUSH1 0xFF AND SWAP1 PUSH1 0x20 ADD SWAP1 SWAP3 SWAP2 SWAP1 DUP1 CALLDATALOAD SWAP1 PUSH1 0x20 ADD SWAP1 SWAP3 SWAP2 SWAP1 DUP1 CALLDATALOAD SWAP1 PUSH1 0x20 ADD SWAP1 SWAP3 SWAP2 SWAP1 POP POP POP PUSH2 0x3446 JUMP JUMPDEST STOP JUMPDEST CALLVALUE DUP1 ISZERO PUSH2 0xC82 JUMPI PUSH1 0x0 DUP1 REVERT JUMPDEST POP PUSH2 0xCCF PUSH1 0x4 DUP1 CALLDATASIZE SUB PUSH1 0x40 DUP2 LT ISZERO PUSH2 0xC99 JUMPI PUSH1 0x0 DUP1 REVERT JUMPDEST DUP2 ADD SWAP1 DUP1 DUP1 CALLDATALOAD PUSH20 0xFFFFFFFFFFFFFFFFFFFFFFFFFFFFFFFFFFFFFFFF AND SWAP1 PUSH1 0x20 ADD SWAP1 SWAP3 SWAP2 SWAP1 DUP1 CALLDATALOAD SWAP1 PUSH1 0x20 ADD SWAP1 SWAP3 SWAP2 SWAP1 POP POP POP PUSH2 0x3893 JUMP JUMPDEST PUSH1 0x40 MLOAD DUP1 DUP3 DUP2 MSTORE PUSH1 0x20 ADD SWAP2 POP POP PUSH1 0x40 MLOAD DUP1 SWAP2 SUB SWAP1 RETURN JUMPDEST CALLVALUE DUP1 ISZERO PUSH2 0xCF1 JUMPI PUSH1 0x0 DUP1 REVERT JUMPDEST POP PUSH2 0xD54 PUSH1 0x4 DUP1 CALLDATASIZE SUB PUSH1 0x40 DUP2 LT ISZERO PUSH2 0xD08 JUMPI PUSH1 0x0 DUP1 REVERT JUMPDEST DUP2 ADD SWAP1 DUP1 DUP1 CALLDATALOAD PUSH20 0xFFFFFFFFFFFFFFFFFFFFFFFFFFFFFFFFFFFFFFFF AND SWAP1 PUSH1 0x20 ADD SWAP1 SWAP3 SWAP2 SWAP1 DUP1 CALLDATALOAD PUSH20 0xFFFFFFFFFFFFFFFFFFFFFFFFFFFFFFFFFFFFFFFF AND SWAP1 PUSH1 0x20 ADD SWAP1 SWAP3 SWAP2 SWAP1 POP POP POP PUSH2 0x3940 JUMP JUMPDEST PUSH1 0x40 MLOAD DUP1 DUP3 DUP2 MSTORE PUSH1 0x20 ADD SWAP2 POP POP PUSH1 0x40 MLOAD DUP1 SWAP2 SUB SWAP1 RETURN JUMPDEST PUSH1 0x40 MLOAD DUP1 PUSH1 0x40 ADD PUSH1 0x40 MSTORE DUP1 PUSH1 0x11 DUP2 MSTORE PUSH1 0x20 ADD PUSH32 0x5772617070656420457468657220763130000000000000000000000000000000 DUP2 MSTORE POP DUP2 JUMP JUMPDEST PUSH1 0x0 DUP2 PUSH1 0x2 PUSH1 0x0 CALLER PUSH20 0xFFFFFFFFFFFFFFFFFFFFFFFFFFFFFFFFFFFFFFFF AND PUSH20 0xFFFFFFFFFFFFFFFFFFFFFFFFFFFFFFFFFFFFFFFF AND DUP2 MSTORE PUSH1 0x20 ADD SWAP1 DUP2 MSTORE PUSH1 0x20 ADD PUSH1 0x0 KECCAK256 PUSH1 0x0 DUP6 PUSH20 0xFFFFFFFFFFFFFFFFFFFFFFFFFFFFFFFFFFFFFFFF AND PUSH20 0xFFFFFFFFFFFFFFFFFFFFFFFFFFFFFFFFFFFFFFFF AND DUP2 MSTORE PUSH1 0x20 ADD SWAP1 DUP2 MSTORE PUSH1 0x20 ADD PUSH1 0x0 KECCAK256 DUP2 SWAP1 SSTORE POP DUP3 PUSH20 0xFFFFFFFFFFFFFFFFFFFFFFFFFFFFFFFFFFFFFFFF AND CALLER PUSH20 0xFFFFFFFFFFFFFFFFFFFFFFFFFFFFFFFFFFFFFFFF AND PUSH32 0x8C5BE1E5EBEC7D5BD14F71427D1E84F3DD0314C0F7B2291E5B200AC8C7C3B925 DUP5 PUSH1 0x40 MLOAD DUP1 DUP3 DUP2 MSTORE PUSH1 0x20 ADD SWAP2 POP POP PUSH1 0x40 MLOAD DUP1 SWAP2 SUB SWAP1 LOG3 PUSH1 0x1 SWAP1 POP SWAP3 SWAP2 POP POP JUMP JUMPDEST PUSH1 0x0 PUSH1 0x3 SLOAD SELFBALANCE ADD SWAP1 POP SWAP1 JUMP JUMPDEST PUSH1 0x0 DUP1 PUSH1 0x0 CALLER PUSH20 0xFFFFFFFFFFFFFFFFFFFFFFFFFFFFFFFFFFFFFFFF AND PUSH20 0xFFFFFFFFFFFFFFFFFFFFFFFFFFFFFFFFFFFFFFFF AND DUP2 MSTORE PUSH1 0x20 ADD SWAP1 DUP2 MSTORE PUSH1 0x20 ADD PUSH1 0x0 KECCAK256 SLOAD SWAP1 POP DUP2 DUP2 LT ISZERO PUSH2 0xF3D JUMPI PUSH1 0x40 MLOAD PUSH32 0x8C379A000000000000000000000000000000000000000000000000000000000 DUP2 MSTORE PUSH1 0x4 ADD DUP1 DUP1 PUSH1 0x20 ADD DUP3 DUP2 SUB DUP3 MSTORE PUSH1 0x21 DUP2 MSTORE PUSH1 0x20 ADD DUP1 PUSH2 0x3AAD PUSH1 0x21 SWAP2 CODECOPY PUSH1 0x40 ADD SWAP2 POP POP PUSH1 0x40 MLOAD DUP1 SWAP2 SUB SWAP1 REVERT JUMPDEST DUP2 DUP2 SUB PUSH1 0x0 DUP1 CALLER PUSH20 0xFFFFFFFFFFFFFFFFFFFFFFFFFFFFFFFFFFFFFFFF AND PUSH20 0xFFFFFFFFFFFFFFFFFFFFFFFFFFFFFFFFFFFFFFFF AND DUP2 MSTORE PUSH1 0x20 ADD SWAP1 DUP2 MSTORE PUSH1 0x20 ADD PUSH1 0x0 KECCAK256 DUP2 SWAP1 SSTORE POP PUSH1 0x0 PUSH20 0xFFFFFFFFFFFFFFFFFFFFFFFFFFFFFFFFFFFFFFFF AND CALLER PUSH20 0xFFFFFFFFFFFFFFFFFFFFFFFFFFFFFFFFFFFFFFFF AND PUSH32 0xDDF252AD1BE2C89B69C2B068FC378DAA952BA7F163C4A11628F55A4DF523B3EF DUP5 PUSH1 0x40 MLOAD DUP1 DUP3 DUP2 MSTORE PUSH1 0x20 ADD SWAP2 POP POP PUSH1 0x40 MLOAD DUP1 SWAP2 SUB SWAP1 LOG3 PUSH1 0x0 DUP4 PUSH20 0xFFFFFFFFFFFFFFFFFFFFFFFFFFFFFFFFFFFFFFFF AND DUP4 PUSH1 0x40 MLOAD DUP1 PUSH1 0x0 ADD SWAP1 POP PUSH1 0x0 PUSH1 0x40 MLOAD DUP1 DUP4 SUB DUP2 DUP6 DUP8 GAS CALL SWAP3 POP POP POP RETURNDATASIZE DUP1 PUSH1 0x0 DUP2 EQ PUSH2 0x1048 JUMPI PUSH1 0x40 MLOAD SWAP2 POP PUSH1 0x1F NOT PUSH1 0x3F RETURNDATASIZE ADD AND DUP3 ADD PUSH1 0x40 MSTORE RETURNDATASIZE DUP3 MSTORE RETURNDATASIZE PUSH1 0x0 PUSH1 0x20 DUP5 ADD RETURNDATACOPY PUSH2 0x104D JUMP JUMPDEST PUSH1 0x60 SWAP2 POP JUMPDEST POP POP SWAP1 POP DUP1 PUSH2 0x10C4 JUMPI PUSH1 0x40 MLOAD PUSH32 0x8C379A000000000000000000000000000000000000000000000000000000000 DUP2 MSTORE PUSH1 0x4 ADD DUP1 DUP1 PUSH1 0x20 ADD DUP3 DUP2 SUB DUP3 MSTORE PUSH1 0x19 DUP2 MSTORE PUSH1 0x20 ADD DUP1 PUSH32 0x574554483A20455448207472616E73666572206661696C656400000000000000 DUP2 MSTORE POP PUSH1 0x20 ADD SWAP2 POP POP PUSH1 0x40 MLOAD DUP1 SWAP2 SUB SWAP1 REVERT JUMPDEST POP POP POP POP JUMP JUMPDEST PUSH1 0x0 CALLER PUSH20 0xFFFFFFFFFFFFFFFFFFFFFFFFFFFFFFFFFFFFFFFF AND DUP5 PUSH20 0xFFFFFFFFFFFFFFFFFFFFFFFFFFFFFFFFFFFFFFFF AND EQ PUSH2 0x130E JUMPI PUSH1 0x0 PUSH1 0x2 PUSH1 0x0 DUP7 PUSH20 0xFFFFFFFFFFFFFFFFFFFFFFFFFFFFFFFFFFFFFFFF AND PUSH20 0xFFFFFFFFFFFFFFFFFFFFFFFFFFFFFFFFFFFFFFFF AND DUP2 MSTORE PUSH1 0x20 ADD SWAP1 DUP2 MSTORE PUSH1 0x20 ADD PUSH1 0x0 KECCAK256 PUSH1 0x0 CALLER PUSH20 0xFFFFFFFFFFFFFFFFFFFFFFFFFFFFFFFFFFFFFFFF AND PUSH20 0xFFFFFFFFFFFFFFFFFFFFFFFFFFFFFFFFFFFFFFFF AND DUP2 MSTORE PUSH1 0x20 ADD SWAP1 DUP2 MSTORE PUSH1 0x20 ADD PUSH1 0x0 KECCAK256 SLOAD SWAP1 POP PUSH32 0xFFFFFFFFFFFFFFFFFFFFFFFFFFFFFFFFFFFFFFFFFFFFFFFFFFFFFFFFFFFFFFFF DUP2 EQ PUSH2 0x130C JUMPI DUP3 DUP2 LT ISZERO PUSH2 0x121D JUMPI PUSH1 0x40 MLOAD PUSH32 0x8C379A000000000000000000000000000000000000000000000000000000000 DUP2 MSTORE PUSH1 0x4 ADD DUP1 DUP1 PUSH1 0x20 ADD DUP3 DUP2 SUB DUP3 MSTORE PUSH1 0x1F DUP2 MSTORE PUSH1 0x20 ADD DUP1 PUSH32 0x574554483A2072657175657374206578636565647320616C6C6F77616E636500 DUP2 MSTORE POP PUSH1 0x20 ADD SWAP2 POP POP PUSH1 0x40 MLOAD DUP1 SWAP2 SUB SWAP1 REVERT JUMPDEST PUSH1 0x0 DUP4 DUP3 SUB SWAP1 POP DUP1 PUSH1 0x2 PUSH1 0x0 DUP9 PUSH20 0xFFFFFFFFFFFFFFFFFFFFFFFFFFFFFFFFFFFFFFFF AND PUSH20 0xFFFFFFFFFFFFFFFFFFFFFFFFFFFFFFFFFFFFFFFF AND DUP2 MSTORE PUSH1 0x20 ADD SWAP1 DUP2 MSTORE PUSH1 0x20 ADD PUSH1 0x0 KECCAK256 PUSH1 0x0 CALLER PUSH20 0xFFFFFFFFFFFFFFFFFFFFFFFFFFFFFFFFFFFFFFFF AND PUSH20 0xFFFFFFFFFFFFFFFFFFFFFFFFFFFFFFFFFFFFFFFF AND DUP2 MSTORE PUSH1 0x20 ADD SWAP1 DUP2 MSTORE PUSH1 0x20 ADD PUSH1 0x0 KECCAK256 DUP2 SWAP1 SSTORE POP CALLER PUSH20 0xFFFFFFFFFFFFFFFFFFFFFFFFFFFFFFFFFFFFFFFF AND DUP7 PUSH20 0xFFFFFFFFFFFFFFFFFFFFFFFFFFFFFFFFFFFFFFFF AND PUSH32 0x8C5BE1E5EBEC7D5BD14F71427D1E84F3DD0314C0F7B2291E5B200AC8C7C3B925 DUP4 PUSH1 0x40 MLOAD DUP1 DUP3 DUP2 MSTORE PUSH1 0x20 ADD SWAP2 POP POP PUSH1 0x40 MLOAD DUP1 SWAP2 SUB SWAP1 LOG3 POP JUMPDEST POP JUMPDEST PUSH1 0x0 PUSH20 0xFFFFFFFFFFFFFFFFFFFFFFFFFFFFFFFFFFFFFFFF AND DUP4 PUSH20 0xFFFFFFFFFFFFFFFFFFFFFFFFFFFFFFFFFFFFFFFF AND EQ PUSH2 0x14DA JUMPI PUSH1 0x0 DUP1 PUSH1 0x0 DUP7 PUSH20 0xFFFFFFFFFFFFFFFFFFFFFFFFFFFFFFFFFFFFFFFF AND PUSH20 0xFFFFFFFFFFFFFFFFFFFFFFFFFFFFFFFFFFFFFFFF AND DUP2 MSTORE PUSH1 0x20 ADD SWAP1 DUP2 MSTORE PUSH1 0x20 ADD PUSH1 0x0 KECCAK256 SLOAD SWAP1 POP DUP3 DUP2 LT ISZERO PUSH2 0x13DE JUMPI PUSH1 0x40 MLOAD PUSH32 0x8C379A000000000000000000000000000000000000000000000000000000000 DUP2 MSTORE PUSH1 0x4 ADD DUP1 DUP1 PUSH1 0x20 ADD DUP3 DUP2 SUB DUP3 MSTORE PUSH1 0x25 DUP2 MSTORE PUSH1 0x20 ADD DUP1 PUSH2 0x3A64 PUSH1 0x25 SWAP2 CODECOPY PUSH1 0x40 ADD SWAP2 POP POP PUSH1 0x40 MLOAD DUP1 SWAP2 SUB SWAP1 REVERT JUMPDEST DUP3 DUP2 SUB PUSH1 0x0 DUP1 DUP8 PUSH20 0xFFFFFFFFFFFFFFFFFFFFFFFFFFFFFFFFFFFFFFFF AND PUSH20 0xFFFFFFFFFFFFFFFFFFFFFFFFFFFFFFFFFFFFFFFF AND DUP2 MSTORE PUSH1 0x20 ADD SWAP1 DUP2 MSTORE PUSH1 0x20 ADD PUSH1 0x0 KECCAK256 DUP2 SWAP1 SSTORE POP DUP3 PUSH1 0x0 DUP1 DUP7 PUSH20 0xFFFFFFFFFFFFFFFFFFFFFFFFFFFFFFFFFFFFFFFF AND PUSH20 0xFFFFFFFFFFFFFFFFFFFFFFFFFFFFFFFFFFFFFFFF AND DUP2 MSTORE PUSH1 0x20 ADD SWAP1 DUP2 MSTORE PUSH1 0x20 ADD PUSH1 0x0 KECCAK256 PUSH1 0x0 DUP3 DUP3 SLOAD ADD SWAP3 POP POP DUP2 SWAP1 SSTORE POP DUP4 PUSH20 0xFFFFFFFFFFFFFFFFFFFFFFFFFFFFFFFFFFFFFFFF AND DUP6 PUSH20 0xFFFFFFFFFFFFFFFFFFFFFFFFFFFFFFFFFFFFFFFF AND PUSH32 0xDDF252AD1BE2C89B69C2B068FC378DAA952BA7F163C4A11628F55A4DF523B3EF DUP6 PUSH1 0x40 MLOAD DUP1 DUP3 DUP2 MSTORE PUSH1 0x20 ADD SWAP2 POP POP PUSH1 0x40 MLOAD DUP1 SWAP2 SUB SWAP1 LOG3 POP PUSH2 0x1700 JUMP JUMPDEST PUSH1 0x0 DUP1 PUSH1 0x0 DUP7 PUSH20 0xFFFFFFFFFFFFFFFFFFFFFFFFFFFFFFFFFFFFFFFF AND PUSH20 0xFFFFFFFFFFFFFFFFFFFFFFFFFFFFFFFFFFFFFFFF AND DUP2 MSTORE PUSH1 0x20 ADD SWAP1 DUP2 MSTORE PUSH1 0x20 ADD PUSH1 0x0 KECCAK256 SLOAD SWAP1 POP DUP3 DUP2 LT ISZERO PUSH2 0x1576 JUMPI PUSH1 0x40 MLOAD PUSH32 0x8C379A000000000000000000000000000000000000000000000000000000000 DUP2 MSTORE PUSH1 0x4 ADD DUP1 DUP1 PUSH1 0x20 ADD DUP3 DUP2 SUB DUP3 MSTORE PUSH1 0x21 DUP2 MSTORE PUSH1 0x20 ADD DUP1 PUSH2 0x3AAD PUSH1 0x21 SWAP2 CODECOPY PUSH1 0x40 ADD SWAP2 POP POP PUSH1 0x40 MLOAD DUP1 SWAP2 SUB SWAP1 REVERT JUMPDEST DUP3 DUP2 SUB PUSH1 0x0 DUP1 DUP8 PUSH20 0xFFFFFFFFFFFFFFFFFFFFFFFFFFFFFFFFFFFFFFFF AND PUSH20 0xFFFFFFFFFFFFFFFFFFFFFFFFFFFFFFFFFFFFFFFF AND DUP2 MSTORE PUSH1 0x20 ADD SWAP1 DUP2 MSTORE PUSH1 0x20 ADD PUSH1 0x0 KECCAK256 DUP2 SWAP1 SSTORE POP PUSH1 0x0 PUSH20 0xFFFFFFFFFFFFFFFFFFFFFFFFFFFFFFFFFFFFFFFF AND DUP6 PUSH20 0xFFFFFFFFFFFFFFFFFFFFFFFFFFFFFFFFFFFFFFFF AND PUSH32 0xDDF252AD1BE2C89B69C2B068FC378DAA952BA7F163C4A11628F55A4DF523B3EF DUP6 PUSH1 0x40 MLOAD DUP1 DUP3 DUP2 MSTORE PUSH1 0x20 ADD SWAP2 POP POP PUSH1 0x40 MLOAD DUP1 SWAP2 SUB SWAP1 LOG3 PUSH1 0x0 CALLER PUSH20 0xFFFFFFFFFFFFFFFFFFFFFFFFFFFFFFFFFFFFFFFF AND DUP5 PUSH1 0x40 MLOAD DUP1 PUSH1 0x0 ADD SWAP1 POP PUSH1 0x0 PUSH1 0x40 MLOAD DUP1 DUP4 SUB DUP2 DUP6 DUP8 GAS CALL SWAP3 POP POP POP RETURNDATASIZE DUP1 PUSH1 0x0 DUP2 EQ PUSH2 0x1681 JUMPI PUSH1 0x40 MLOAD SWAP2 POP PUSH1 0x1F NOT PUSH1 0x3F RETURNDATASIZE ADD AND DUP3 ADD PUSH1 0x40 MSTORE RETURNDATASIZE DUP3 MSTORE RETURNDATASIZE PUSH1 0x0 PUSH1 0x20 DUP5 ADD RETURNDATACOPY PUSH2 0x1686 JUMP JUMPDEST PUSH1 0x60 SWAP2 POP JUMPDEST POP POP SWAP1 POP DUP1 PUSH2 0x16FD JUMPI PUSH1 0x40 MLOAD PUSH32 0x8C379A000000000000000000000000000000000000000000000000000000000 DUP2 MSTORE PUSH1 0x4 ADD DUP1 DUP1 PUSH1 0x20 ADD DUP3 DUP2 SUB DUP3 MSTORE PUSH1 0x19 DUP2 MSTORE PUSH1 0x20 ADD DUP1 PUSH32 0x574554483A20455448207472616E73666572206661696C656400000000000000 DUP2 MSTORE POP PUSH1 0x20 ADD SWAP2 POP POP PUSH1 0x40 MLOAD DUP1 SWAP2 SUB SWAP1 REVERT JUMPDEST POP POP JUMPDEST PUSH1 0x1 SWAP1 POP SWAP4 SWAP3 POP POP POP JUMP JUMPDEST PUSH1 0x0 DUP1 PUSH1 0x0 CALLER PUSH20 0xFFFFFFFFFFFFFFFFFFFFFFFFFFFFFFFFFFFFFFFF AND PUSH20 0xFFFFFFFFFFFFFFFFFFFFFFFFFFFFFFFFFFFFFFFF AND DUP2 MSTORE PUSH1 0x20 ADD SWAP1 DUP2 MSTORE PUSH1 0x20 ADD PUSH1 0x0 KECCAK256 SLOAD SWAP1 POP DUP2 DUP2 LT ISZERO PUSH2 0x17A7 JUMPI PUSH1 0x40 MLOAD PUSH32 0x8C379A000000000000000000000000000000000000000000000000000000000 DUP2 MSTORE PUSH1 0x4 ADD DUP1 DUP1 PUSH1 0x20 ADD DUP3 DUP2 SUB DUP3 MSTORE PUSH1 0x21 DUP2 MSTORE PUSH1 0x20 ADD DUP1 PUSH2 0x3AAD PUSH1 0x21 SWAP2 CODECOPY PUSH1 0x40 ADD SWAP2 POP POP PUSH1 0x40 MLOAD DUP1 SWAP2 SUB SWAP1 REVERT JUMPDEST DUP2 DUP2 SUB PUSH1 0x0 DUP1 CALLER PUSH20 0xFFFFFFFFFFFFFFFFFFFFFFFFFFFFFFFFFFFFFFFF AND PUSH20 0xFFFFFFFFFFFFFFFFFFFFFFFFFFFFFFFFFFFFFFFF AND DUP2 MSTORE PUSH1 0x20 ADD SWAP1 DUP2 MSTORE PUSH1 0x20 ADD PUSH1 0x0 KECCAK256 DUP2 SWAP1 SSTORE POP PUSH1 0x0 PUSH20 0xFFFFFFFFFFFFFFFFFFFFFFFFFFFFFFFFFFFFFFFF AND CALLER PUSH20 0xFFFFFFFFFFFFFFFFFFFFFFFFFFFFFFFFFFFFFFFF AND PUSH32 0xDDF252AD1BE2C89B69C2B068FC378DAA952BA7F163C4A11628F55A4DF523B3EF DUP5 PUSH1 0x40 MLOAD DUP1 DUP3 DUP2 MSTORE PUSH1 0x20 ADD SWAP2 POP POP PUSH1 0x40 MLOAD DUP1 SWAP2 SUB SWAP1 LOG3 PUSH1 0x0 CALLER PUSH20 0xFFFFFFFFFFFFFFFFFFFFFFFFFFFFFFFFFFFFFFFF AND DUP4 PUSH1 0x40 MLOAD DUP1 PUSH1 0x0 ADD SWAP1 POP PUSH1 0x0 PUSH1 0x40 MLOAD DUP1 DUP4 SUB DUP2 DUP6 DUP8 GAS CALL SWAP3 POP POP POP RETURNDATASIZE DUP1 PUSH1 0x0 DUP2 EQ PUSH2 0x18B2 JUMPI PUSH1 0x40 MLOAD SWAP2 POP PUSH1 0x1F NOT PUSH1 0x3F RETURNDATASIZE ADD AND DUP3 ADD PUSH1 0x40 MSTORE RETURNDATASIZE DUP3 MSTORE RETURNDATASIZE PUSH1 0x0 PUSH1 0x20 DUP5 ADD RETURNDATACOPY PUSH2 0x18B7 JUMP JUMPDEST PUSH1 0x60 SWAP2 POP JUMPDEST POP POP SWAP1 POP DUP1 PUSH2 0x192E JUMPI PUSH1 0x40 MLOAD PUSH32 0x8C379A000000000000000000000000000000000000000000000000000000000 DUP2 MSTORE PUSH1 0x4 ADD DUP1 DUP1 PUSH1 0x20 ADD DUP3 DUP2 SUB DUP3 MSTORE PUSH1 0x19 DUP2 MSTORE PUSH1 0x20 ADD DUP1 PUSH32 0x574554483A20455448207472616E73666572206661696C656400000000000000 DUP2 MSTORE POP PUSH1 0x20 ADD SWAP2 POP POP PUSH1 0x40 MLOAD DUP1 SWAP2 SUB SWAP1 REVERT JUMPDEST POP POP POP JUMP JUMPDEST PUSH32 0x0 DUP2 JUMP JUMPDEST PUSH1 0x12 DUP2 JUMP JUMPDEST PUSH1 0x0 DUP1 CHAINID SWAP1 POP PUSH32 0x0 DUP2 EQ PUSH2 0x1997 JUMPI PUSH2 0x1992 DUP2 PUSH2 0x3965 JUMP JUMPDEST PUSH2 0x19B9 JUMP JUMPDEST PUSH32 0x0 JUMPDEST SWAP2 POP POP SWAP1 JUMP JUMPDEST PUSH1 0x0 DUP1 PUSH20 0xFFFFFFFFFFFFFFFFFFFFFFFFFFFFFFFFFFFFFFFF AND DUP6 PUSH20 0xFFFFFFFFFFFFFFFFFFFFFFFFFFFFFFFFFFFFFFFF AND EQ PUSH2 0x1B8C JUMPI PUSH1 0x0 DUP1 PUSH1 0x0 CALLER PUSH20 0xFFFFFFFFFFFFFFFFFFFFFFFFFFFFFFFFFFFFFFFF AND PUSH20 0xFFFFFFFFFFFFFFFFFFFFFFFFFFFFFFFFFFFFFFFF AND DUP2 MSTORE PUSH1 0x20 ADD SWAP1 DUP2 MSTORE PUSH1 0x20 ADD PUSH1 0x0 KECCAK256 SLOAD SWAP1 POP DUP5 DUP2 LT ISZERO PUSH2 0x1A90 JUMPI PUSH1 0x40 MLOAD PUSH32 0x8C379A000000000000000000000000000000000000000000000000000000000 DUP2 MSTORE PUSH1 0x4 ADD DUP1 DUP1 PUSH1 0x20 ADD DUP3 DUP2 SUB DUP3 MSTORE PUSH1 0x25 DUP2 MSTORE PUSH1 0x20 ADD DUP1 PUSH2 0x3A64 PUSH1 0x25 SWAP2 CODECOPY PUSH1 0x40 ADD SWAP2 POP POP PUSH1 0x40 MLOAD DUP1 SWAP2 SUB SWAP1 REVERT JUMPDEST DUP5 DUP2 SUB PUSH1 0x0 DUP1 CALLER PUSH20 0xFFFFFFFFFFFFFFFFFFFFFFFFFFFFFFFFFFFFFFFF AND PUSH20 0xFFFFFFFFFFFFFFFFFFFFFFFFFFFFFFFFFFFFFFFF AND DUP2 MSTORE PUSH1 0x20 ADD SWAP1 DUP2 MSTORE PUSH1 0x20 ADD PUSH1 0x0 KECCAK256 DUP2 SWAP1 SSTORE POP DUP5 PUSH1 0x0 DUP1 DUP9 PUSH20 0xFFFFFFFFFFFFFFFFFFFFFFFFFFFFFFFFFFFFFFFF AND PUSH20 0xFFFFFFFFFFFFFFFFFFFFFFFFFFFFFFFFFFFFFFFF AND DUP2 MSTORE PUSH1 0x20 ADD SWAP1 DUP2 MSTORE PUSH1 0x20 ADD PUSH1 0x0 KECCAK256 PUSH1 0x0 DUP3 DUP3 SLOAD ADD SWAP3 POP POP DUP2 SWAP1 SSTORE POP DUP6 PUSH20 0xFFFFFFFFFFFFFFFFFFFFFFFFFFFFFFFFFFFFFFFF AND CALLER PUSH20 0xFFFFFFFFFFFFFFFFFFFFFFFFFFFFFFFFFFFFFFFF AND PUSH32 0xDDF252AD1BE2C89B69C2B068FC378DAA952BA7F163C4A11628F55A4DF523B3EF DUP8 PUSH1 0x40 MLOAD DUP1 DUP3 DUP2 MSTORE PUSH1 0x20 ADD SWAP2 POP POP PUSH1 0x40 MLOAD DUP1 SWAP2 SUB SWAP1 LOG3 POP PUSH2 0x1DB2 JUMP JUMPDEST PUSH1 0x0 DUP1 PUSH1 0x0 CALLER PUSH20 0xFFFFFFFFFFFFFFFFFFFFFFFFFFFFFFFFFFFFFFFF AND PUSH20 0xFFFFFFFFFFFFFFFFFFFFFFFFFFFFFFFFFFFFFFFF AND DUP2 MSTORE PUSH1 0x20 ADD SWAP1 DUP2 MSTORE PUSH1 0x20 ADD PUSH1 0x0 KECCAK256 SLOAD SWAP1 POP DUP5 DUP2 LT ISZERO PUSH2 0x1C28 JUMPI PUSH1 0x40 MLOAD PUSH32 0x8C379A000000000000000000000000000000000000000000000000000000000 DUP2 MSTORE PUSH1 0x4 ADD DUP1 DUP1 PUSH1 0x20 ADD DUP3 DUP2 SUB DUP3 MSTORE PUSH1 0x21 DUP2 MSTORE PUSH1 0x20 ADD DUP1 PUSH2 0x3AAD PUSH1 0x21 SWAP2 CODECOPY PUSH1 0x40 ADD SWAP2 POP POP PUSH1 0x40 MLOAD DUP1 SWAP2 SUB SWAP1 REVERT JUMPDEST DUP5 DUP2 SUB PUSH1 0x0 DUP1 CALLER PUSH20 0xFFFFFFFFFFFFFFFFFFFFFFFFFFFFFFFFFFFFFFFF AND PUSH20 0xFFFFFFFFFFFFFFFFFFFFFFFFFFFFFFFFFFFFFFFF AND DUP2 MSTORE PUSH1 0x20 ADD SWAP1 DUP2 MSTORE PUSH1 0x20 ADD PUSH1 0x0 KECCAK256 DUP2 SWAP1 SSTORE POP PUSH1 0x0 PUSH20 0xFFFFFFFFFFFFFFFFFFFFFFFFFFFFFFFFFFFFFFFF AND CALLER PUSH20 0xFFFFFFFFFFFFFFFFFFFFFFFFFFFFFFFFFFFFFFFF AND PUSH32 0xDDF252AD1BE2C89B69C2B068FC378DAA952BA7F163C4A11628F55A4DF523B3EF DUP8 PUSH1 0x40 MLOAD DUP1 DUP3 DUP2 MSTORE PUSH1 0x20 ADD SWAP2 POP POP PUSH1 0x40 MLOAD DUP1 SWAP2 SUB SWAP1 LOG3 PUSH1 0x0 CALLER PUSH20 0xFFFFFFFFFFFFFFFFFFFFFFFFFFFFFFFFFFFFFFFF AND DUP7 PUSH1 0x40 MLOAD DUP1 PUSH1 0x0 ADD SWAP1 POP PUSH1 0x0 PUSH1 0x40 MLOAD DUP1 DUP4 SUB DUP2 DUP6 DUP8 GAS CALL SWAP3 POP POP POP RETURNDATASIZE DUP1 PUSH1 0x0 DUP2 EQ PUSH2 0x1D33 JUMPI PUSH1 0x40 MLOAD SWAP2 POP PUSH1 0x1F NOT PUSH1 0x3F RETURNDATASIZE ADD AND DUP3 ADD PUSH1 0x40 MSTORE RETURNDATASIZE DUP3 MSTORE RETURNDATASIZE PUSH1 0x0 PUSH1 0x20 DUP5 ADD RETURNDATACOPY PUSH2 0x1D38 JUMP JUMPDEST PUSH1 0x60 SWAP2 POP JUMPDEST POP POP SWAP1 POP DUP1 PUSH2 0x1DAF JUMPI PUSH1 0x40 MLOAD PUSH32 0x8C379A000000000000000000000000000000000000000000000000000000000 DUP2 MSTORE PUSH1 0x4 ADD DUP1 DUP1 PUSH1 0x20 ADD DUP3 DUP2 SUB DUP3 MSTORE PUSH1 0x19 DUP2 MSTORE PUSH1 0x20 ADD DUP1 PUSH32 0x574554483A20455448207472616E73666572206661696C656400000000000000 DUP2 MSTORE POP PUSH1 0x20 ADD SWAP2 POP POP PUSH1 0x40 MLOAD DUP1 SWAP2 SUB SWAP1 REVERT JUMPDEST POP POP JUMPDEST DUP5 PUSH20 0xFFFFFFFFFFFFFFFFFFFFFFFFFFFFFFFFFFFFFFFF AND PUSH4 0xA4C0ED36 CALLER DUP7 DUP7 DUP7 PUSH1 0x40 MLOAD DUP6 PUSH4 0xFFFFFFFF AND PUSH1 0xE0 SHL DUP2 MSTORE PUSH1 0x4 ADD DUP1 DUP6 PUSH20 0xFFFFFFFFFFFFFFFFFFFFFFFFFFFFFFFFFFFFFFFF AND DUP2 MSTORE PUSH1 0x20 ADD DUP5 DUP2 MSTORE PUSH1 0x20 ADD DUP1 PUSH1 0x20 ADD DUP3 DUP2 SUB DUP3 MSTORE DUP5 DUP5 DUP3 DUP2 DUP2 MSTORE PUSH1 0x20 ADD SWAP3 POP DUP1 DUP3 DUP5 CALLDATACOPY PUSH1 0x0 DUP2 DUP5 ADD MSTORE PUSH1 0x1F NOT PUSH1 0x1F DUP3 ADD AND SWAP1 POP DUP1 DUP4 ADD SWAP3 POP POP POP SWAP6 POP POP POP POP POP POP PUSH1 0x20 PUSH1 0x40 MLOAD DUP1 DUP4 SUB DUP2 PUSH1 0x0 DUP8 DUP1 EXTCODESIZE ISZERO DUP1 ISZERO PUSH2 0x1E57 JUMPI PUSH1 0x0 DUP1 REVERT JUMPDEST POP GAS CALL ISZERO DUP1 ISZERO PUSH2 0x1E6B JUMPI RETURNDATASIZE PUSH1 0x0 DUP1 RETURNDATACOPY RETURNDATASIZE PUSH1 0x0 REVERT JUMPDEST POP POP POP POP PUSH1 0x40 MLOAD RETURNDATASIZE PUSH1 0x20 DUP2 LT ISZERO PUSH2 0x1E81 JUMPI PUSH1 0x0 DUP1 REVERT JUMPDEST DUP2 ADD SWAP1 DUP1 DUP1 MLOAD SWAP1 PUSH1 0x20 ADD SWAP1 SWAP3 SWAP2 SWAP1 POP POP POP SWAP1 POP SWAP5 SWAP4 POP POP POP POP JUMP JUMPDEST PUSH1 0x0 ADDRESS PUSH20 0xFFFFFFFFFFFFFFFFFFFFFFFFFFFFFFFFFFFFFFFF AND DUP6 PUSH20 0xFFFFFFFFFFFFFFFFFFFFFFFFFFFFFFFFFFFFFFFF AND EQ PUSH2 0x1F3F JUMPI PUSH1 0x40 MLOAD PUSH32 0x8C379A000000000000000000000000000000000000000000000000000000000 DUP2 MSTORE PUSH1 0x4 ADD DUP1 DUP1 PUSH1 0x20 ADD DUP3 DUP2 SUB DUP3 MSTORE PUSH1 0x1C DUP2 MSTORE PUSH1 0x20 ADD DUP1 PUSH32 0x574554483A20666C617368206D696E74206F6E6C792057455448313000000000 DUP2 MSTORE POP PUSH1 0x20 ADD SWAP2 POP POP PUSH1 0x40 MLOAD DUP1 SWAP2 SUB SWAP1 REVERT JUMPDEST PUSH14 0xFFFFFFFFFFFFFFFFFFFFFFFFFFFF DUP1 AND DUP5 GT ISZERO PUSH2 0x1FA8 JUMPI PUSH1 0x40 MLOAD PUSH32 0x8C379A000000000000000000000000000000000000000000000000000000000 DUP2 MSTORE PUSH1 0x4 ADD DUP1 DUP1 PUSH1 0x20 ADD DUP3 DUP2 SUB DUP3 MSTORE PUSH1 0x24 DUP2 MSTORE PUSH1 0x20 ADD DUP1 PUSH2 0x3A89 PUSH1 0x24 SWAP2 CODECOPY PUSH1 0x40 ADD SWAP2 POP POP PUSH1 0x40 MLOAD DUP1 SWAP2 SUB SWAP1 REVERT JUMPDEST DUP4 PUSH1 0x3 SLOAD ADD PUSH1 0x3 DUP2 SWAP1 SSTORE POP PUSH14 0xFFFFFFFFFFFFFFFFFFFFFFFFFFFF DUP1 AND PUSH1 0x3 SLOAD GT ISZERO PUSH2 0x203B JUMPI PUSH1 0x40 MLOAD PUSH32 0x8C379A000000000000000000000000000000000000000000000000000000000 DUP2 MSTORE PUSH1 0x4 ADD DUP1 DUP1 PUSH1 0x20 ADD DUP3 DUP2 SUB DUP3 MSTORE PUSH1 0x1F DUP2 MSTORE PUSH1 0x20 ADD DUP1 PUSH32 0x574554483A20746F74616C206C6F616E206C696D697420657863656564656400 DUP2 MSTORE POP PUSH1 0x20 ADD SWAP2 POP POP PUSH1 0x40 MLOAD DUP1 SWAP2 SUB SWAP1 REVERT JUMPDEST DUP4 PUSH1 0x0 DUP1 DUP9 PUSH20 0xFFFFFFFFFFFFFFFFFFFFFFFFFFFFFFFFFFFFFFFF AND PUSH20 0xFFFFFFFFFFFFFFFFFFFFFFFFFFFFFFFFFFFFFFFF AND DUP2 MSTORE PUSH1 0x20 ADD SWAP1 DUP2 MSTORE PUSH1 0x20 ADD PUSH1 0x0 KECCAK256 PUSH1 0x0 DUP3 DUP3 SLOAD ADD SWAP3 POP POP DUP2 SWAP1 SSTORE POP DUP6 PUSH20 0xFFFFFFFFFFFFFFFFFFFFFFFFFFFFFFFFFFFFFFFF AND PUSH1 0x0 PUSH20 0xFFFFFFFFFFFFFFFFFFFFFFFFFFFFFFFFFFFFFFFF AND PUSH32 0xDDF252AD1BE2C89B69C2B068FC378DAA952BA7F163C4A11628F55A4DF523B3EF DUP7 PUSH1 0x40 MLOAD DUP1 DUP3 DUP2 MSTORE PUSH1 0x20 ADD SWAP2 POP POP PUSH1 0x40 MLOAD DUP1 SWAP2 SUB SWAP1 LOG3 PUSH32 0x0 DUP7 PUSH20 0xFFFFFFFFFFFFFFFFFFFFFFFFFFFFFFFFFFFFFFFF AND PUSH4 0x23E30C8B CALLER ADDRESS DUP9 PUSH1 0x0 DUP10 DUP10 PUSH1 0x40 MLOAD DUP8 PUSH4 0xFFFFFFFF AND PUSH1 0xE0 SHL DUP2 MSTORE PUSH1 0x4 ADD DUP1 DUP8 PUSH20 0xFFFFFFFFFFFFFFFFFFFFFFFFFFFFFFFFFFFFFFFF AND DUP2 MSTORE PUSH1 0x20 ADD DUP7 PUSH20 0xFFFFFFFFFFFFFFFFFFFFFFFFFFFFFFFFFFFFFFFF AND DUP2 MSTORE PUSH1 0x20 ADD DUP6 DUP2 MSTORE PUSH1 0x20 ADD DUP5 DUP2 MSTORE PUSH1 0x20 ADD DUP1 PUSH1 0x20 ADD DUP3 DUP2 SUB DUP3 MSTORE DUP5 DUP5 DUP3 DUP2 DUP2 MSTORE PUSH1 0x20 ADD SWAP3 POP DUP1 DUP3 DUP5 CALLDATACOPY PUSH1 0x0 DUP2 DUP5 ADD MSTORE PUSH1 0x1F NOT PUSH1 0x1F DUP3 ADD AND SWAP1 POP DUP1 DUP4 ADD SWAP3 POP POP POP SWAP8 POP POP POP POP POP POP POP POP PUSH1 0x20 PUSH1 0x40 MLOAD DUP1 DUP4 SUB DUP2 PUSH1 0x0 DUP8 DUP1 EXTCODESIZE ISZERO DUP1 ISZERO PUSH2 0x21DA JUMPI PUSH1 0x0 DUP1 REVERT JUMPDEST POP GAS CALL ISZERO DUP1 ISZERO PUSH2 0x21EE JUMPI RETURNDATASIZE PUSH1 0x0 DUP1 RETURNDATACOPY RETURNDATASIZE PUSH1 0x0 REVERT JUMPDEST POP POP POP POP PUSH1 0x40 MLOAD RETURNDATASIZE PUSH1 0x20 DUP2 LT ISZERO PUSH2 0x2204 JUMPI PUSH1 0x0 DUP1 REVERT JUMPDEST DUP2 ADD SWAP1 DUP1 DUP1 MLOAD SWAP1 PUSH1 0x20 ADD SWAP1 SWAP3 SWAP2 SWAP1 POP POP POP EQ PUSH2 0x2288 JUMPI PUSH1 0x40 MLOAD PUSH32 0x8C379A000000000000000000000000000000000000000000000000000000000 DUP2 MSTORE PUSH1 0x4 ADD DUP1 DUP1 PUSH1 0x20 ADD DUP3 DUP2 SUB DUP3 MSTORE PUSH1 0x17 DUP2 MSTORE PUSH1 0x20 ADD DUP1 PUSH32 0x574554483A20666C617368206C6F616E206661696C6564000000000000000000 DUP2 MSTORE POP PUSH1 0x20 ADD SWAP2 POP POP PUSH1 0x40 MLOAD DUP1 SWAP2 SUB SWAP1 REVERT JUMPDEST PUSH1 0x0 PUSH1 0x2 PUSH1 0x0 DUP9 PUSH20 0xFFFFFFFFFFFFFFFFFFFFFFFFFFFFFFFFFFFFFFFF AND PUSH20 0xFFFFFFFFFFFFFFFFFFFFFFFFFFFFFFFFFFFFFFFF AND DUP2 MSTORE PUSH1 0x20 ADD SWAP1 DUP2 MSTORE PUSH1 0x20 ADD PUSH1 0x0 KECCAK256 PUSH1 0x0 ADDRESS PUSH20 0xFFFFFFFFFFFFFFFFFFFFFFFFFFFFFFFFFFFFFFFF AND PUSH20 0xFFFFFFFFFFFFFFFFFFFFFFFFFFFFFFFFFFFFFFFF AND DUP2 MSTORE PUSH1 0x20 ADD SWAP1 DUP2 MSTORE PUSH1 0x20 ADD PUSH1 0x0 KECCAK256 SLOAD SWAP1 POP PUSH32 0xFFFFFFFFFFFFFFFFFFFFFFFFFFFFFFFFFFFFFFFFFFFFFFFFFFFFFFFFFFFFFFFF DUP2 EQ PUSH2 0x2495 JUMPI DUP5 DUP2 LT ISZERO PUSH2 0x23A6 JUMPI PUSH1 0x40 MLOAD PUSH32 0x8C379A000000000000000000000000000000000000000000000000000000000 DUP2 MSTORE PUSH1 0x4 ADD DUP1 DUP1 PUSH1 0x20 ADD DUP3 DUP2 SUB DUP3 MSTORE PUSH1 0x1F DUP2 MSTORE PUSH1 0x20 ADD DUP1 PUSH32 0x574554483A2072657175657374206578636565647320616C6C6F77616E636500 DUP2 MSTORE POP PUSH1 0x20 ADD SWAP2 POP POP PUSH1 0x40 MLOAD DUP1 SWAP2 SUB SWAP1 REVERT JUMPDEST PUSH1 0x0 DUP6 DUP3 SUB SWAP1 POP DUP1 PUSH1 0x2 PUSH1 0x0 DUP11 PUSH20 0xFFFFFFFFFFFFFFFFFFFFFFFFFFFFFFFFFFFFFFFF AND PUSH20 0xFFFFFFFFFFFFFFFFFFFFFFFFFFFFFFFFFFFFFFFF AND DUP2 MSTORE PUSH1 0x20 ADD SWAP1 DUP2 MSTORE PUSH1 0x20 ADD PUSH1 0x0 KECCAK256 PUSH1 0x0 ADDRESS PUSH20 0xFFFFFFFFFFFFFFFFFFFFFFFFFFFFFFFFFFFFFFFF AND PUSH20 0xFFFFFFFFFFFFFFFFFFFFFFFFFFFFFFFFFFFFFFFF AND DUP2 MSTORE PUSH1 0x20 ADD SWAP1 DUP2 MSTORE PUSH1 0x20 ADD PUSH1 0x0 KECCAK256 DUP2 SWAP1 SSTORE POP ADDRESS PUSH20 0xFFFFFFFFFFFFFFFFFFFFFFFFFFFFFFFFFFFFFFFF AND DUP9 PUSH20 0xFFFFFFFFFFFFFFFFFFFFFFFFFFFFFFFFFFFFFFFF AND PUSH32 0x8C5BE1E5EBEC7D5BD14F71427D1E84F3DD0314C0F7B2291E5B200AC8C7C3B925 DUP4 PUSH1 0x40 MLOAD DUP1 DUP3 DUP2 MSTORE PUSH1 0x20 ADD SWAP2 POP POP PUSH1 0x40 MLOAD DUP1 SWAP2 SUB SWAP1 LOG3 POP JUMPDEST PUSH1 0x0 DUP1 PUSH1 0x0 DUP10 PUSH20 0xFFFFFFFFFFFFFFFFFFFFFFFFFFFFFFFFFFFFFFFF AND PUSH20 0xFFFFFFFFFFFFFFFFFFFFFFFFFFFFFFFFFFFFFFFF AND DUP2 MSTORE PUSH1 0x20 ADD SWAP1 DUP2 MSTORE PUSH1 0x20 ADD PUSH1 0x0 KECCAK256 SLOAD SWAP1 POP DUP6 DUP2 LT ISZERO PUSH2 0x2531 JUMPI PUSH1 0x40 MLOAD PUSH32 0x8C379A000000000000000000000000000000000000000000000000000000000 DUP2 MSTORE PUSH1 0x4 ADD DUP1 DUP1 PUSH1 0x20 ADD DUP3 DUP2 SUB DUP3 MSTORE PUSH1 0x21 DUP2 MSTORE PUSH1 0x20 ADD DUP1 PUSH2 0x3AAD PUSH1 0x21 SWAP2 CODECOPY PUSH1 0x40 ADD SWAP2 POP POP PUSH1 0x40 MLOAD DUP1 SWAP2 SUB SWAP1 REVERT JUMPDEST DUP6 DUP2 SUB PUSH1 0x0 DUP1 DUP11 PUSH20 0xFFFFFFFFFFFFFFFFFFFFFFFFFFFFFFFFFFFFFFFF AND PUSH20 0xFFFFFFFFFFFFFFFFFFFFFFFFFFFFFFFFFFFFFFFF AND DUP2 MSTORE PUSH1 0x20 ADD SWAP1 DUP2 MSTORE PUSH1 0x20 ADD PUSH1 0x0 KECCAK256 DUP2 SWAP1 SSTORE POP PUSH1 0x0 PUSH20 0xFFFFFFFFFFFFFFFFFFFFFFFFFFFFFFFFFFFFFFFF AND DUP9 PUSH20 0xFFFFFFFFFFFFFFFFFFFFFFFFFFFFFFFFFFFFFFFF AND PUSH32 0xDDF252AD1BE2C89B69C2B068FC378DAA952BA7F163C4A11628F55A4DF523B3EF DUP9 PUSH1 0x40 MLOAD DUP1 DUP3 DUP2 MSTORE PUSH1 0x20 ADD SWAP2 POP POP PUSH1 0x40 MLOAD DUP1 SWAP2 SUB SWAP1 LOG3 DUP6 PUSH1 0x3 SLOAD SUB PUSH1 0x3 DUP2 SWAP1 SSTORE POP PUSH1 0x1 SWAP3 POP POP POP SWAP6 SWAP5 POP POP POP POP POP JUMP JUMPDEST PUSH1 0x0 CALLVALUE PUSH1 0x0 DUP1 DUP7 PUSH20 0xFFFFFFFFFFFFFFFFFFFFFFFFFFFFFFFFFFFFFFFF AND PUSH20 0xFFFFFFFFFFFFFFFFFFFFFFFFFFFFFFFFFFFFFFFF AND DUP2 MSTORE PUSH1 0x20 ADD SWAP1 DUP2 MSTORE PUSH1 0x20 ADD PUSH1 0x0 KECCAK256 PUSH1 0x0 DUP3 DUP3 SLOAD ADD SWAP3 POP POP DUP2 SWAP1 SSTORE POP DUP4 PUSH20 0xFFFFFFFFFFFFFFFFFFFFFFFFFFFFFFFFFFFFFFFF AND PUSH1 0x0 PUSH20 0xFFFFFFFFFFFFFFFFFFFFFFFFFFFFFFFFFFFFFFFF AND PUSH32 0xDDF252AD1BE2C89B69C2B068FC378DAA952BA7F163C4A11628F55A4DF523B3EF CALLVALUE PUSH1 0x40 MLOAD DUP1 DUP3 DUP2 MSTORE PUSH1 0x20 ADD SWAP2 POP POP PUSH1 0x40 MLOAD DUP1 SWAP2 SUB SWAP1 LOG3 DUP4 PUSH20 0xFFFFFFFFFFFFFFFFFFFFFFFFFFFFFFFFFFFFFFFF AND PUSH4 0xA4C0ED36 CALLER CALLVALUE DUP7 DUP7 PUSH1 0x40 MLOAD DUP6 PUSH4 0xFFFFFFFF AND PUSH1 0xE0 SHL DUP2 MSTORE PUSH1 0x4 ADD DUP1 DUP6 PUSH20 0xFFFFFFFFFFFFFFFFFFFFFFFFFFFFFFFFFFFFFFFF AND DUP2 MSTORE PUSH1 0x20 ADD DUP5 DUP2 MSTORE PUSH1 0x20 ADD DUP1 PUSH1 0x20 ADD DUP3 DUP2 SUB DUP3 MSTORE DUP5 DUP5 DUP3 DUP2 DUP2 MSTORE PUSH1 0x20 ADD SWAP3 POP DUP1 DUP3 DUP5 CALLDATACOPY PUSH1 0x0 DUP2 DUP5 ADD MSTORE PUSH1 0x1F NOT PUSH1 0x1F DUP3 ADD AND SWAP1 POP DUP1 DUP4 ADD SWAP3 POP POP POP SWAP6 POP POP POP POP POP POP PUSH1 0x20 PUSH1 0x40 MLOAD DUP1 DUP4 SUB DUP2 PUSH1 0x0 DUP8 DUP1 EXTCODESIZE ISZERO DUP1 ISZERO PUSH2 0x274F JUMPI PUSH1 0x0 DUP1 REVERT JUMPDEST POP GAS CALL ISZERO DUP1 ISZERO PUSH2 0x2763 JUMPI RETURNDATASIZE PUSH1 0x0 DUP1 RETURNDATACOPY RETURNDATASIZE PUSH1 0x0 REVERT JUMPDEST POP POP POP POP PUSH1 0x40 MLOAD RETURNDATASIZE PUSH1 0x20 DUP2 LT ISZERO PUSH2 0x2779 JUMPI PUSH1 0x0 DUP1 REVERT JUMPDEST DUP2 ADD SWAP1 DUP1 DUP1 MLOAD SWAP1 PUSH1 0x20 ADD SWAP1 SWAP3 SWAP2 SWAP1 POP POP POP SWAP1 POP SWAP4 SWAP3 POP POP POP JUMP JUMPDEST PUSH1 0x0 ADDRESS PUSH20 0xFFFFFFFFFFFFFFFFFFFFFFFFFFFFFFFFFFFFFFFF AND DUP3 PUSH20 0xFFFFFFFFFFFFFFFFFFFFFFFFFFFFFFFFFFFFFFFF AND EQ PUSH2 0x27CF JUMPI PUSH1 0x0 PUSH2 0x27E5 JUMP JUMPDEST PUSH1 0x3 SLOAD PUSH14 0xFFFFFFFFFFFFFFFFFFFFFFFFFFFF DUP1 AND SUB JUMPDEST SWAP1 POP SWAP2 SWAP1 POP JUMP JUMPDEST PUSH1 0x0 PUSH1 0x20 MSTORE DUP1 PUSH1 0x0 MSTORE PUSH1 0x40 PUSH1 0x0 KECCAK256 PUSH1 0x0 SWAP2 POP SWAP1 POP SLOAD DUP2 JUMP JUMPDEST PUSH1 0x1 PUSH1 0x20 MSTORE DUP1 PUSH1 0x0 MSTORE PUSH1 0x40 PUSH1 0x0 KECCAK256 PUSH1 0x0 SWAP2 POP SWAP1 POP SLOAD DUP2 JUMP JUMPDEST PUSH32 0x0 DUP2 JUMP JUMPDEST PUSH1 0x3 SLOAD DUP2 JUMP JUMPDEST CALLER PUSH20 0xFFFFFFFFFFFFFFFFFFFFFFFFFFFFFFFFFFFFFFFF AND DUP4 PUSH20 0xFFFFFFFFFFFFFFFFFFFFFFFFFFFFFFFFFFFFFFFF AND EQ PUSH2 0x2A88 JUMPI PUSH1 0x0 PUSH1 0x2 PUSH1 0x0 DUP6 PUSH20 0xFFFFFFFFFFFFFFFFFFFFFFFFFFFFFFFFFFFFFFFF AND PUSH20 0xFFFFFFFFFFFFFFFFFFFFFFFFFFFFFFFFFFFFFFFF AND DUP2 MSTORE PUSH1 0x20 ADD SWAP1 DUP2 MSTORE PUSH1 0x20 ADD PUSH1 0x0 KECCAK256 PUSH1 0x0 CALLER PUSH20 0xFFFFFFFFFFFFFFFFFFFFFFFFFFFFFFFFFFFFFFFF AND PUSH20 0xFFFFFFFFFFFFFFFFFFFFFFFFFFFFFFFFFFFFFFFF AND DUP2 MSTORE PUSH1 0x20 ADD SWAP1 DUP2 MSTORE PUSH1 0x20 ADD PUSH1 0x0 KECCAK256 SLOAD SWAP1 POP PUSH32 0xFFFFFFFFFFFFFFFFFFFFFFFFFFFFFFFFFFFFFFFFFFFFFFFFFFFFFFFFFFFFFFFF DUP2 EQ PUSH2 0x2A86 JUMPI DUP2 DUP2 LT ISZERO PUSH2 0x2997 JUMPI PUSH1 0x40 MLOAD PUSH32 0x8C379A000000000000000000000000000000000000000000000000000000000 DUP2 MSTORE PUSH1 0x4 ADD DUP1 DUP1 PUSH1 0x20 ADD DUP3 DUP2 SUB DUP3 MSTORE PUSH1 0x1F DUP2 MSTORE PUSH1 0x20 ADD DUP1 PUSH32 0x574554483A2072657175657374206578636565647320616C6C6F77616E636500 DUP2 MSTORE POP PUSH1 0x20 ADD SWAP2 POP POP PUSH1 0x40 MLOAD DUP1 SWAP2 SUB SWAP1 REVERT JUMPDEST PUSH1 0x0 DUP3 DUP3 SUB SWAP1 POP DUP1 PUSH1 0x2 PUSH1 0x0 DUP8 PUSH20 0xFFFFFFFFFFFFFFFFFFFFFFFFFFFFFFFFFFFFFFFF AND PUSH20 0xFFFFFFFFFFFFFFFFFFFFFFFFFFFFFFFFFFFFFFFF AND DUP2 MSTORE PUSH1 0x20 ADD SWAP1 DUP2 MSTORE PUSH1 0x20 ADD PUSH1 0x0 KECCAK256 PUSH1 0x0 CALLER PUSH20 0xFFFFFFFFFFFFFFFFFFFFFFFFFFFFFFFFFFFFFFFF AND PUSH20 0xFFFFFFFFFFFFFFFFFFFFFFFFFFFFFFFFFFFFFFFF AND DUP2 MSTORE PUSH1 0x20 ADD SWAP1 DUP2 MSTORE PUSH1 0x20 ADD PUSH1 0x0 KECCAK256 DUP2 SWAP1 SSTORE POP CALLER PUSH20 0xFFFFFFFFFFFFFFFFFFFFFFFFFFFFFFFFFFFFFFFF AND DUP6 PUSH20 0xFFFFFFFFFFFFFFFFFFFFFFFFFFFFFFFFFFFFFFFF AND PUSH32 0x8C5BE1E5EBEC7D5BD14F71427D1E84F3DD0314C0F7B2291E5B200AC8C7C3B925 DUP4 PUSH1 0x40 MLOAD DUP1 DUP3 DUP2 MSTORE PUSH1 0x20 ADD SWAP2 POP POP PUSH1 0x40 MLOAD DUP1 SWAP2 SUB SWAP1 LOG3 POP JUMPDEST POP JUMPDEST PUSH1 0x0 DUP1 PUSH1 0x0 DUP6 PUSH20 0xFFFFFFFFFFFFFFFFFFFFFFFFFFFFFFFFFFFFFFFF AND PUSH20 0xFFFFFFFFFFFFFFFFFFFFFFFFFFFFFFFFFFFFFFFF AND DUP2 MSTORE PUSH1 0x20 ADD SWAP1 DUP2 MSTORE PUSH1 0x20 ADD PUSH1 0x0 KECCAK256 SLOAD SWAP1 POP DUP2 DUP2 LT ISZERO PUSH2 0x2B24 JUMPI PUSH1 0x40 MLOAD PUSH32 0x8C379A000000000000000000000000000000000000000000000000000000000 DUP2 MSTORE PUSH1 0x4 ADD DUP1 DUP1 PUSH1 0x20 ADD DUP3 DUP2 SUB DUP3 MSTORE PUSH1 0x21 DUP2 MSTORE PUSH1 0x20 ADD DUP1 PUSH2 0x3AAD PUSH1 0x21 SWAP2 CODECOPY PUSH1 0x40 ADD SWAP2 POP POP PUSH1 0x40 MLOAD DUP1 SWAP2 SUB SWAP1 REVERT JUMPDEST DUP2 DUP2 SUB PUSH1 0x0 DUP1 DUP7 PUSH20 0xFFFFFFFFFFFFFFFFFFFFFFFFFFFFFFFFFFFFFFFF AND PUSH20 0xFFFFFFFFFFFFFFFFFFFFFFFFFFFFFFFFFFFFFFFF AND DUP2 MSTORE PUSH1 0x20 ADD SWAP1 DUP2 MSTORE PUSH1 0x20 ADD PUSH1 0x0 KECCAK256 DUP2 SWAP1 SSTORE POP PUSH1 0x0 PUSH20 0xFFFFFFFFFFFFFFFFFFFFFFFFFFFFFFFFFFFFFFFF AND DUP5 PUSH20 0xFFFFFFFFFFFFFFFFFFFFFFFFFFFFFFFFFFFFFFFF AND PUSH32 0xDDF252AD1BE2C89B69C2B068FC378DAA952BA7F163C4A11628F55A4DF523B3EF DUP5 PUSH1 0x40 MLOAD DUP1 DUP3 DUP2 MSTORE PUSH1 0x20 ADD SWAP2 POP POP PUSH1 0x40 MLOAD DUP1 SWAP2 SUB SWAP1 LOG3 PUSH1 0x0 DUP4 PUSH20 0xFFFFFFFFFFFFFFFFFFFFFFFFFFFFFFFFFFFFFFFF AND DUP4 PUSH1 0x40 MLOAD DUP1 PUSH1 0x0 ADD SWAP1 POP PUSH1 0x0 PUSH1 0x40 MLOAD DUP1 DUP4 SUB DUP2 DUP6 DUP8 GAS CALL SWAP3 POP POP POP RETURNDATASIZE DUP1 PUSH1 0x0 DUP2 EQ PUSH2 0x2C2F JUMPI PUSH1 0x40 MLOAD SWAP2 POP PUSH1 0x1F NOT PUSH1 0x3F RETURNDATASIZE ADD AND DUP3 ADD PUSH1 0x40 MSTORE RETURNDATASIZE DUP3 MSTORE RETURNDATASIZE PUSH1 0x0 PUSH1 0x20 DUP5 ADD RETURNDATACOPY PUSH2 0x2C34 JUMP JUMPDEST PUSH1 0x60 SWAP2 POP JUMPDEST POP POP SWAP1 POP DUP1 PUSH2 0x2CAB JUMPI PUSH1 0x40 MLOAD PUSH32 0x8C379A000000000000000000000000000000000000000000000000000000000 DUP2 MSTORE PUSH1 0x4 ADD DUP1 DUP1 PUSH1 0x20 ADD DUP3 DUP2 SUB DUP3 MSTORE PUSH1 0x1B DUP2 MSTORE PUSH1 0x20 ADD DUP1 PUSH32 0x574554483A204574686572207472616E73666572206661696C65640000000000 DUP2 MSTORE POP PUSH1 0x20 ADD SWAP2 POP POP PUSH1 0x40 MLOAD DUP1 SWAP2 SUB SWAP1 REVERT JUMPDEST POP POP POP POP POP JUMP JUMPDEST PUSH1 0x40 MLOAD DUP1 PUSH1 0x40 ADD PUSH1 0x40 MSTORE DUP1 PUSH1 0x6 DUP2 MSTORE PUSH1 0x20 ADD PUSH32 0x5745544831300000000000000000000000000000000000000000000000000000 DUP2 MSTORE POP DUP2 JUMP JUMPDEST PUSH1 0x0 DUP1 PUSH20 0xFFFFFFFFFFFFFFFFFFFFFFFFFFFFFFFFFFFFFFFF AND DUP4 PUSH20 0xFFFFFFFFFFFFFFFFFFFFFFFFFFFFFFFFFFFFFFFF AND EQ PUSH2 0x2EB8 JUMPI PUSH1 0x0 DUP1 PUSH1 0x0 CALLER PUSH20 0xFFFFFFFFFFFFFFFFFFFFFFFFFFFFFFFFFFFFFFFF AND PUSH20 0xFFFFFFFFFFFFFFFFFFFFFFFFFFFFFFFFFFFFFFFF AND DUP2 MSTORE PUSH1 0x20 ADD SWAP1 DUP2 MSTORE PUSH1 0x20 ADD PUSH1 0x0 KECCAK256 SLOAD SWAP1 POP DUP3 DUP2 LT ISZERO PUSH2 0x2DBC JUMPI PUSH1 0x40 MLOAD PUSH32 0x8C379A000000000000000000000000000000000000000000000000000000000 DUP2 MSTORE PUSH1 0x4 ADD DUP1 DUP1 PUSH1 0x20 ADD DUP3 DUP2 SUB DUP3 MSTORE PUSH1 0x25 DUP2 MSTORE PUSH1 0x20 ADD DUP1 PUSH2 0x3A64 PUSH1 0x25 SWAP2 CODECOPY PUSH1 0x40 ADD SWAP2 POP POP PUSH1 0x40 MLOAD DUP1 SWAP2 SUB SWAP1 REVERT JUMPDEST DUP3 DUP2 SUB PUSH1 0x0 DUP1 CALLER PUSH20 0xFFFFFFFFFFFFFFFFFFFFFFFFFFFFFFFFFFFFFFFF AND PUSH20 0xFFFFFFFFFFFFFFFFFFFFFFFFFFFFFFFFFFFFFFFF AND DUP2 MSTORE PUSH1 0x20 ADD SWAP1 DUP2 MSTORE PUSH1 0x20 ADD PUSH1 0x0 KECCAK256 DUP2 SWAP1 SSTORE POP DUP3 PUSH1 0x0 DUP1 DUP7 PUSH20 0xFFFFFFFFFFFFFFFFFFFFFFFFFFFFFFFFFFFFFFFF AND PUSH20 0xFFFFFFFFFFFFFFFFFFFFFFFFFFFFFFFFFFFFFFFF AND DUP2 MSTORE PUSH1 0x20 ADD SWAP1 DUP2 MSTORE PUSH1 0x20 ADD PUSH1 0x0 KECCAK256 PUSH1 0x0 DUP3 DUP3 SLOAD ADD SWAP3 POP POP DUP2 SWAP1 SSTORE POP DUP4 PUSH20 0xFFFFFFFFFFFFFFFFFFFFFFFFFFFFFFFFFFFFFFFF AND CALLER PUSH20 0xFFFFFFFFFFFFFFFFFFFFFFFFFFFFFFFFFFFFFFFF AND PUSH32 0xDDF252AD1BE2C89B69C2B068FC378DAA952BA7F163C4A11628F55A4DF523B3EF DUP6 PUSH1 0x40 MLOAD DUP1 DUP3 DUP2 MSTORE PUSH1 0x20 ADD SWAP2 POP POP PUSH1 0x40 MLOAD DUP1 SWAP2 SUB SWAP1 LOG3 POP PUSH2 0x30DE JUMP JUMPDEST PUSH1 0x0 DUP1 PUSH1 0x0 CALLER PUSH20 0xFFFFFFFFFFFFFFFFFFFFFFFFFFFFFFFFFFFFFFFF AND PUSH20 0xFFFFFFFFFFFFFFFFFFFFFFFFFFFFFFFFFFFFFFFF AND DUP2 MSTORE PUSH1 0x20 ADD SWAP1 DUP2 MSTORE PUSH1 0x20 ADD PUSH1 0x0 KECCAK256 SLOAD SWAP1 POP DUP3 DUP2 LT ISZERO PUSH2 0x2F54 JUMPI PUSH1 0x40 MLOAD PUSH32 0x8C379A000000000000000000000000000000000000000000000000000000000 DUP2 MSTORE PUSH1 0x4 ADD DUP1 DUP1 PUSH1 0x20 ADD DUP3 DUP2 SUB DUP3 MSTORE PUSH1 0x21 DUP2 MSTORE PUSH1 0x20 ADD DUP1 PUSH2 0x3AAD PUSH1 0x21 SWAP2 CODECOPY PUSH1 0x40 ADD SWAP2 POP POP PUSH1 0x40 MLOAD DUP1 SWAP2 SUB SWAP1 REVERT JUMPDEST DUP3 DUP2 SUB PUSH1 0x0 DUP1 CALLER PUSH20 0xFFFFFFFFFFFFFFFFFFFFFFFFFFFFFFFFFFFFFFFF AND PUSH20 0xFFFFFFFFFFFFFFFFFFFFFFFFFFFFFFFFFFFFFFFF AND DUP2 MSTORE PUSH1 0x20 ADD SWAP1 DUP2 MSTORE PUSH1 0x20 ADD PUSH1 0x0 KECCAK256 DUP2 SWAP1 SSTORE POP PUSH1 0x0 PUSH20 0xFFFFFFFFFFFFFFFFFFFFFFFFFFFFFFFFFFFFFFFF AND CALLER PUSH20 0xFFFFFFFFFFFFFFFFFFFFFFFFFFFFFFFFFFFFFFFF AND PUSH32 0xDDF252AD1BE2C89B69C2B068FC378DAA952BA7F163C4A11628F55A4DF523B3EF DUP6 PUSH1 0x40 MLOAD DUP1 DUP3 DUP2 MSTORE PUSH1 0x20 ADD SWAP2 POP POP PUSH1 0x40 MLOAD DUP1 SWAP2 SUB SWAP1 LOG3 PUSH1 0x0 CALLER PUSH20 0xFFFFFFFFFFFFFFFFFFFFFFFFFFFFFFFFFFFFFFFF AND DUP5 PUSH1 0x40 MLOAD DUP1 PUSH1 0x0 ADD SWAP1 POP PUSH1 0x0 PUSH1 0x40 MLOAD DUP1 DUP4 SUB DUP2 DUP6 DUP8 GAS CALL SWAP3 POP POP POP RETURNDATASIZE DUP1 PUSH1 0x0 DUP2 EQ PUSH2 0x305F JUMPI PUSH1 0x40 MLOAD SWAP2 POP PUSH1 0x1F NOT PUSH1 0x3F RETURNDATASIZE ADD AND DUP3 ADD PUSH1 0x40 MSTORE RETURNDATASIZE DUP3 MSTORE RETURNDATASIZE PUSH1 0x0 PUSH1 0x20 DUP5 ADD RETURNDATACOPY PUSH2 0x3064 JUMP JUMPDEST PUSH1 0x60 SWAP2 POP JUMPDEST POP POP SWAP1 POP DUP1 PUSH2 0x30DB JUMPI PUSH1 0x40 MLOAD PUSH32 0x8C379A000000000000000000000000000000000000000000000000000000000 DUP2 MSTORE PUSH1 0x4 ADD DUP1 DUP1 PUSH1 0x20 ADD DUP3 DUP2 SUB DUP3 MSTORE PUSH1 0x19 DUP2 MSTORE PUSH1 0x20 ADD DUP1 PUSH32 0x574554483A20455448207472616E73666572206661696C656400000000000000 DUP2 MSTORE POP PUSH1 0x20 ADD SWAP2 POP POP PUSH1 0x40 MLOAD DUP1 SWAP2 SUB SWAP1 REVERT JUMPDEST POP POP JUMPDEST PUSH1 0x1 SWAP1 POP SWAP3 SWAP2 POP POP JUMP JUMPDEST CALLVALUE PUSH1 0x0 DUP1 DUP4 PUSH20 0xFFFFFFFFFFFFFFFFFFFFFFFFFFFFFFFFFFFFFFFF AND PUSH20 0xFFFFFFFFFFFFFFFFFFFFFFFFFFFFFFFFFFFFFFFF AND DUP2 MSTORE PUSH1 0x20 ADD SWAP1 DUP2 MSTORE PUSH1 0x20 ADD PUSH1 0x0 KECCAK256 PUSH1 0x0 DUP3 DUP3 SLOAD ADD SWAP3 POP POP DUP2 SWAP1 SSTORE POP DUP1 PUSH20 0xFFFFFFFFFFFFFFFFFFFFFFFFFFFFFFFFFFFFFFFF AND PUSH1 0x0 PUSH20 0xFFFFFFFFFFFFFFFFFFFFFFFFFFFFFFFFFFFFFFFF AND PUSH32 0xDDF252AD1BE2C89B69C2B068FC378DAA952BA7F163C4A11628F55A4DF523B3EF CALLVALUE PUSH1 0x40 MLOAD DUP1 DUP3 DUP2 MSTORE PUSH1 0x20 ADD SWAP2 POP POP PUSH1 0x40 MLOAD DUP1 SWAP2 SUB SWAP1 LOG3 POP JUMP JUMPDEST PUSH1 0x0 DUP4 PUSH1 0x2 PUSH1 0x0 CALLER PUSH20 0xFFFFFFFFFFFFFFFFFFFFFFFFFFFFFFFFFFFFFFFF AND PUSH20 0xFFFFFFFFFFFFFFFFFFFFFFFFFFFFFFFFFFFFFFFF AND DUP2 MSTORE PUSH1 0x20 ADD SWAP1 DUP2 MSTORE PUSH1 0x20 ADD PUSH1 0x0 KECCAK256 PUSH1 0x0 DUP8 PUSH20 0xFFFFFFFFFFFFFFFFFFFFFFFFFFFFFFFFFFFFFFFF AND PUSH20 0xFFFFFFFFFFFFFFFFFFFFFFFFFFFFFFFFFFFFFFFF AND DUP2 MSTORE PUSH1 0x20 ADD SWAP1 DUP2 MSTORE PUSH1 0x20 ADD PUSH1 0x0 KECCAK256 DUP2 SWAP1 SSTORE POP DUP5 PUSH20 0xFFFFFFFFFFFFFFFFFFFFFFFFFFFFFFFFFFFFFFFF AND CALLER PUSH20 0xFFFFFFFFFFFFFFFFFFFFFFFFFFFFFFFFFFFFFFFF AND PUSH32 0x8C5BE1E5EBEC7D5BD14F71427D1E84F3DD0314C0F7B2291E5B200AC8C7C3B925 DUP7 PUSH1 0x40 MLOAD DUP1 DUP3 DUP2 MSTORE PUSH1 0x20 ADD SWAP2 POP POP PUSH1 0x40 MLOAD DUP1 SWAP2 SUB SWAP1 LOG3 DUP5 PUSH20 0xFFFFFFFFFFFFFFFFFFFFFFFFFFFFFFFFFFFFFFFF AND PUSH3 0xBA451F CALLER DUP7 DUP7 DUP7 PUSH1 0x40 MLOAD DUP6 PUSH4 0xFFFFFFFF AND PUSH1 0xE0 SHL DUP2 MSTORE PUSH1 0x4 ADD DUP1 DUP6 PUSH20 0xFFFFFFFFFFFFFFFFFFFFFFFFFFFFFFFFFFFFFFFF AND DUP2 MSTORE PUSH1 0x20 ADD DUP5 DUP2 MSTORE PUSH1 0x20 ADD DUP1 PUSH1 0x20 ADD DUP3 DUP2 SUB DUP3 MSTORE DUP5 DUP5 DUP3 DUP2 DUP2 MSTORE PUSH1 0x20 ADD SWAP3 POP DUP1 DUP3 DUP5 CALLDATACOPY PUSH1 0x0 DUP2 DUP5 ADD MSTORE PUSH1 0x1F NOT PUSH1 0x1F DUP3 ADD AND SWAP1 POP DUP1 DUP4 ADD SWAP3 POP POP POP SWAP6 POP POP POP POP POP POP PUSH1 0x20 PUSH1 0x40 MLOAD DUP1 DUP4 SUB DUP2 PUSH1 0x0 DUP8 DUP1 EXTCODESIZE ISZERO DUP1 ISZERO PUSH2 0x3329 JUMPI PUSH1 0x0 DUP1 REVERT JUMPDEST POP GAS CALL ISZERO DUP1 ISZERO PUSH2 0x333D JUMPI RETURNDATASIZE PUSH1 0x0 DUP1 RETURNDATACOPY RETURNDATASIZE PUSH1 0x0 REVERT JUMPDEST POP POP POP POP PUSH1 0x40 MLOAD RETURNDATASIZE PUSH1 0x20 DUP2 LT ISZERO PUSH2 0x3353 JUMPI PUSH1 0x0 DUP1 REVERT JUMPDEST DUP2 ADD SWAP1 DUP1 DUP1 MLOAD SWAP1 PUSH1 0x20 ADD SWAP1 SWAP3 SWAP2 SWAP1 POP POP POP SWAP1 POP SWAP5 SWAP4 POP POP POP POP JUMP JUMPDEST PUSH32 0x0 DUP2 JUMP JUMPDEST CALLVALUE PUSH1 0x0 DUP1 CALLER PUSH20 0xFFFFFFFFFFFFFFFFFFFFFFFFFFFFFFFFFFFFFFFF AND PUSH20 0xFFFFFFFFFFFFFFFFFFFFFFFFFFFFFFFFFFFFFFFF AND DUP2 MSTORE PUSH1 0x20 ADD SWAP1 DUP2 MSTORE PUSH1 0x20 ADD PUSH1 0x0 KECCAK256 PUSH1 0x0 DUP3 DUP3 SLOAD ADD SWAP3 POP POP DUP2 SWAP1 SSTORE POP CALLER PUSH20 0xFFFFFFFFFFFFFFFFFFFFFFFFFFFFFFFFFFFFFFFF AND PUSH1 0x0 PUSH20 0xFFFFFFFFFFFFFFFFFFFFFFFFFFFFFFFFFFFFFFFF AND PUSH32 0xDDF252AD1BE2C89B69C2B068FC378DAA952BA7F163C4A11628F55A4DF523B3EF CALLVALUE PUSH1 0x40 MLOAD DUP1 DUP3 DUP2 MSTORE PUSH1 0x20 ADD SWAP2 POP POP PUSH1 0x40 MLOAD DUP1 SWAP2 SUB SWAP1 LOG3 JUMP JUMPDEST DUP4 TIMESTAMP GT ISZERO PUSH2 0x34BC JUMPI PUSH1 0x40 MLOAD PUSH32 0x8C379A000000000000000000000000000000000000000000000000000000000 DUP2 MSTORE PUSH1 0x4 ADD DUP1 DUP1 PUSH1 0x20 ADD DUP3 DUP2 SUB DUP3 MSTORE PUSH1 0x14 DUP2 MSTORE PUSH1 0x20 ADD DUP1 PUSH32 0x574554483A2045787069726564207065726D6974000000000000000000000000 DUP2 MSTORE POP PUSH1 0x20 ADD SWAP2 POP POP PUSH1 0x40 MLOAD DUP1 SWAP2 SUB SWAP1 REVERT JUMPDEST PUSH1 0x0 CHAINID SWAP1 POP PUSH1 0x0 PUSH32 0x0 DUP10 DUP10 DUP10 PUSH1 0x1 PUSH1 0x0 DUP15 PUSH20 0xFFFFFFFFFFFFFFFFFFFFFFFFFFFFFFFFFFFFFFFF AND PUSH20 0xFFFFFFFFFFFFFFFFFFFFFFFFFFFFFFFFFFFFFFFF AND DUP2 MSTORE PUSH1 0x20 ADD SWAP1 DUP2 MSTORE PUSH1 0x20 ADD PUSH1 0x0 KECCAK256 PUSH1 0x0 DUP2 SLOAD DUP1 SWAP3 SWAP2 SWAP1 PUSH1 0x1 ADD SWAP2 SWAP1 POP SSTORE DUP11 PUSH1 0x40 MLOAD PUSH1 0x20 ADD DUP1 DUP8 DUP2 MSTORE PUSH1 0x20 ADD DUP7 PUSH20 0xFFFFFFFFFFFFFFFFFFFFFFFFFFFFFFFFFFFFFFFF AND DUP2 MSTORE PUSH1 0x20 ADD DUP6 PUSH20 0xFFFFFFFFFFFFFFFFFFFFFFFFFFFFFFFFFFFFFFFF AND DUP2 MSTORE PUSH1 0x20 ADD DUP5 DUP2 MSTORE PUSH1 0x20 ADD DUP4 DUP2 MSTORE PUSH1 0x20 ADD DUP3 DUP2 MSTORE PUSH1 0x20 ADD SWAP7 POP POP POP POP POP POP POP PUSH1 0x40 MLOAD PUSH1 0x20 DUP2 DUP4 SUB SUB DUP2 MSTORE SWAP1 PUSH1 0x40 MSTORE DUP1 MLOAD SWAP1 PUSH1 0x20 ADD KECCAK256 SWAP1 POP PUSH1 0x0 PUSH32 0x0 DUP4 EQ PUSH2 0x35E4 JUMPI PUSH2 0x35DF DUP4 PUSH2 0x3965 JUMP JUMPDEST PUSH2 0x3606 JUMP JUMPDEST PUSH32 0x0 JUMPDEST DUP3 PUSH1 0x40 MLOAD PUSH1 0x20 ADD DUP1 DUP1 PUSH32 0x1901000000000000000000000000000000000000000000000000000000000000 DUP2 MSTORE POP PUSH1 0x2 ADD DUP4 DUP2 MSTORE PUSH1 0x20 ADD DUP3 DUP2 MSTORE PUSH1 0x20 ADD SWAP3 POP POP POP PUSH1 0x40 MLOAD PUSH1 0x20 DUP2 DUP4 SUB SUB DUP2 MSTORE SWAP1 PUSH1 0x40 MSTORE DUP1 MLOAD SWAP1 PUSH1 0x20 ADD KECCAK256 SWAP1 POP PUSH1 0x0 PUSH1 0x1 DUP3 DUP9 DUP9 DUP9 PUSH1 0x40 MLOAD PUSH1 0x0 DUP2 MSTORE PUSH1 0x20 ADD PUSH1 0x40 MSTORE PUSH1 0x40 MLOAD DUP1 DUP6 DUP2 MSTORE PUSH1 0x20 ADD DUP5 PUSH1 0xFF AND DUP2 MSTORE PUSH1 0x20 ADD DUP4 DUP2 MSTORE PUSH1 0x20 ADD DUP3 DUP2 MSTORE PUSH1 0x20 ADD SWAP5 POP POP POP POP POP PUSH1 0x20 PUSH1 0x40 MLOAD PUSH1 0x20 DUP2 SUB SWAP1 DUP1 DUP5 SUB SWAP1 DUP6 GAS STATICCALL ISZERO DUP1 ISZERO PUSH2 0x36BA JUMPI RETURNDATASIZE PUSH1 0x0 DUP1 RETURNDATACOPY RETURNDATASIZE PUSH1 0x0 REVERT JUMPDEST POP POP POP PUSH1 0x20 PUSH1 0x40 MLOAD SUB MLOAD SWAP1 POP PUSH1 0x0 PUSH20 0xFFFFFFFFFFFFFFFFFFFFFFFFFFFFFFFFFFFFFFFF AND DUP2 PUSH20 0xFFFFFFFFFFFFFFFFFFFFFFFFFFFFFFFFFFFFFFFF AND EQ ISZERO DUP1 ISZERO PUSH2 0x372E JUMPI POP DUP11 PUSH20 0xFFFFFFFFFFFFFFFFFFFFFFFFFFFFFFFFFFFFFFFF AND DUP2 PUSH20 0xFFFFFFFFFFFFFFFFFFFFFFFFFFFFFFFFFFFFFFFF AND EQ JUMPDEST PUSH2 0x37A0 JUMPI PUSH1 0x40 MLOAD PUSH32 0x8C379A000000000000000000000000000000000000000000000000000000000 DUP2 MSTORE PUSH1 0x4 ADD DUP1 DUP1 PUSH1 0x20 ADD DUP3 DUP2 SUB DUP3 MSTORE PUSH1 0x14 DUP2 MSTORE PUSH1 0x20 ADD DUP1 PUSH32 0x574554483A20696E76616C6964207065726D6974000000000000000000000000 DUP2 MSTORE POP PUSH1 0x20 ADD SWAP2 POP POP PUSH1 0x40 MLOAD DUP1 SWAP2 SUB SWAP1 REVERT JUMPDEST DUP9 PUSH1 0x2 PUSH1 0x0 DUP14 PUSH20 0xFFFFFFFFFFFFFFFFFFFFFFFFFFFFFFFFFFFFFFFF AND PUSH20 0xFFFFFFFFFFFFFFFFFFFFFFFFFFFFFFFFFFFFFFFF AND DUP2 MSTORE PUSH1 0x20 ADD SWAP1 DUP2 MSTORE PUSH1 0x20 ADD PUSH1 0x0 KECCAK256 PUSH1 0x0 DUP13 PUSH20 0xFFFFFFFFFFFFFFFFFFFFFFFFFFFFFFFFFFFFFFFF AND PUSH20 0xFFFFFFFFFFFFFFFFFFFFFFFFFFFFFFFFFFFFFFFF AND DUP2 MSTORE PUSH1 0x20 ADD SWAP1 DUP2 MSTORE PUSH1 0x20 ADD PUSH1 0x0 KECCAK256 DUP2 SWAP1 SSTORE POP DUP10 PUSH20 0xFFFFFFFFFFFFFFFFFFFFFFFFFFFFFFFFFFFFFFFF AND DUP12 PUSH20 0xFFFFFFFFFFFFFFFFFFFFFFFFFFFFFFFFFFFFFFFF AND PUSH32 0x8C5BE1E5EBEC7D5BD14F71427D1E84F3DD0314C0F7B2291E5B200AC8C7C3B925 DUP12 PUSH1 0x40 MLOAD DUP1 DUP3 DUP2 MSTORE PUSH1 0x20 ADD SWAP2 POP POP PUSH1 0x40 MLOAD DUP1 SWAP2 SUB SWAP1 LOG3 POP POP POP POP POP POP POP POP POP POP POP JUMP JUMPDEST PUSH1 0x0 ADDRESS PUSH20 0xFFFFFFFFFFFFFFFFFFFFFFFFFFFFFFFFFFFFFFFF AND DUP4 PUSH20 0xFFFFFFFFFFFFFFFFFFFFFFFFFFFFFFFFFFFFFFFF AND EQ PUSH2 0x3936 JUMPI PUSH1 0x40 MLOAD PUSH32 0x8C379A000000000000000000000000000000000000000000000000000000000 DUP2 MSTORE PUSH1 0x4 ADD DUP1 DUP1 PUSH1 0x20 ADD DUP3 DUP2 SUB DUP3 MSTORE PUSH1 0x1C DUP2 MSTORE PUSH1 0x20 ADD DUP1 PUSH32 0x574554483A20666C617368206D696E74206F6E6C792057455448313000000000 DUP2 MSTORE POP PUSH1 0x20 ADD SWAP2 POP POP PUSH1 0x40 MLOAD DUP1 SWAP2 SUB SWAP1 REVERT JUMPDEST PUSH1 0x0 SWAP1 POP SWAP3 SWAP2 POP POP JUMP JUMPDEST PUSH1 0x2 PUSH1 0x20 MSTORE DUP2 PUSH1 0x0 MSTORE PUSH1 0x40 PUSH1 0x0 KECCAK256 PUSH1 0x20 MSTORE DUP1 PUSH1 0x0 MSTORE PUSH1 0x40 PUSH1 0x0 KECCAK256 PUSH1 0x0 SWAP2 POP SWAP2 POP POP SLOAD DUP2 JUMP JUMPDEST PUSH1 0x0 PUSH32 0x8B73C3C69BB8FE3D512ECC4CF759CC79239F7B179B0FFACAA9A75D522B39400F PUSH1 0x40 MLOAD DUP1 PUSH1 0x40 ADD PUSH1 0x40 MSTORE DUP1 PUSH1 0x11 DUP2 MSTORE PUSH1 0x20 ADD PUSH32 0x5772617070656420457468657220763130000000000000000000000000000000 DUP2 MSTORE POP DUP1 MLOAD SWAP1 PUSH1 0x20 ADD KECCAK256 PUSH1 0x40 MLOAD DUP1 PUSH1 0x40 ADD PUSH1 0x40 MSTORE DUP1 PUSH1 0x1 DUP2 MSTORE PUSH1 0x20 ADD PUSH32 0x3100000000000000000000000000000000000000000000000000000000000000 DUP2 MSTORE POP DUP1 MLOAD SWAP1 PUSH1 0x20 ADD KECCAK256 DUP5 ADDRESS PUSH1 0x40 MLOAD PUSH1 0x20 ADD DUP1 DUP7 DUP2 MSTORE PUSH1 0x20 ADD DUP6 DUP2 MSTORE PUSH1 0x20 ADD DUP5 DUP2 MSTORE PUSH1 0x20 ADD DUP4 DUP2 MSTORE PUSH1 0x20 ADD DUP3 PUSH20 0xFFFFFFFFFFFFFFFFFFFFFFFFFFFFFFFFFFFFFFFF AND DUP2 MSTORE PUSH1 0x20 ADD SWAP6 POP POP POP POP POP POP PUSH1 0x40 MLOAD PUSH1 0x20 DUP2 DUP4 SUB SUB DUP2 MSTORE SWAP1 PUSH1 0x40 MSTORE DUP1 MLOAD SWAP1 PUSH1 0x20 ADD KECCAK256 SWAP1 POP SWAP2 SWAP1 POP JUMP INVALID JUMPI GASLIMIT SLOAD 0x48 GASPRICE KECCAK256 PUSH21 0x72616E7366657220616D6F756E7420657863656564 PUSH20 0x2062616C616E6365574554483A20696E64697669 PUSH5 0x75616C206C PUSH16 0x616E206C696D69742065786365656465 PUSH5 0x574554483A KECCAK256 PUSH3 0x75726E KECCAK256 PUSH2 0x6D6F PUSH22 0x6E7420657863656564732062616C616E6365A2646970 PUSH7 0x735822122089EC CALL 0xD5 GASPRICE 0x2C 0xB4 MSTORE8 SWAP3 0xDA SELFBALANCE RETURN 0x1E XOR XOR SHL 0xC1 0x5C 0x27 RETURNDATASIZE 0xEC 0x26 0xC3 DUP8 EQ 0xD4 DUP5 SELFDESTRUCT 0x27 0xAF 0xAC 0xD1 PUSH5 0x736F6C6343 STOP SMOD MOD STOP CALLER "
				},
				"gasEstimates": {
					"creation": {
						"codeDepositCost": "3021400",
						"executionCost": "infinite",
						"totalCost": "infinite"
					},
					"external": {
						"CALLBACK_SUCCESS()": "infinite",
						"DOMAIN_SEPARATOR()": "infinite",
						"PERMIT_TYPEHASH()": "infinite",
						"allowance(address,address)": "1377",
						"approve(address,uint256)": "22408",
						"approveAndCall(address,uint256,bytes)": "infinite",
						"balanceOf(address)": "1215",
						"decimals()": "279",
						"deploymentChainId()": "infinite",
						"deposit()": "22918",
						"depositTo(address)": "23011",
						"depositToAndCall(address,bytes)": "infinite",
						"flashFee(address,uint256)": "497",
						"flashLoan(address,address,uint256,bytes)": "infinite",
						"flashMinted()": "1050",
						"maxFlashLoan(address)": "1264",
						"name()": "infinite",
						"nonces(address)": "1237",
						"permit(address,address,uint256,uint256,uint8,bytes32,bytes32)": "infinite",
						"symbol()": "infinite",
						"totalSupply()": "1089",
						"transfer(address,uint256)": "infinite",
						"transferAndCall(address,uint256,bytes)": "infinite",
						"transferFrom(address,address,uint256)": "infinite",
						"withdraw(uint256)": "infinite",
						"withdrawFrom(address,address,uint256)": "infinite",
						"withdrawTo(address,uint256)": "infinite"
					},
					"internal": {
						"_calculateDomainSeparator(uint256)": "infinite"
					}
				},
				"methodIdentifiers": {
					"CALLBACK_SUCCESS()": "8237e538",
					"DOMAIN_SEPARATOR()": "3644e515",
					"PERMIT_TYPEHASH()": "30adf81f",
					"allowance(address,address)": "dd62ed3e",
					"approve(address,uint256)": "095ea7b3",
					"approveAndCall(address,uint256,bytes)": "cae9ca51",
					"balanceOf(address)": "70a08231",
					"decimals()": "313ce567",
					"deploymentChainId()": "cd0d0096",
					"deposit()": "d0e30db0",
					"depositTo(address)": "b760faf9",
					"depositToAndCall(address,bytes)": "5ddb7d7e",
					"flashFee(address,uint256)": "d9d98ce4",
					"flashLoan(address,address,uint256,bytes)": "5cffe9de",
					"flashMinted()": "8b28d32f",
					"maxFlashLoan(address)": "613255ab",
					"name()": "06fdde03",
					"nonces(address)": "7ecebe00",
					"permit(address,address,uint256,uint256,uint8,bytes32,bytes32)": "d505accf",
					"symbol()": "95d89b41",
					"totalSupply()": "18160ddd",
					"transfer(address,uint256)": "a9059cbb",
					"transferAndCall(address,uint256,bytes)": "4000aea0",
					"transferFrom(address,address,uint256)": "23b872dd",
					"withdraw(uint256)": "2e1a7d4d",
					"withdrawFrom(address,address,uint256)": "9555a942",
					"withdrawTo(address,uint256)": "205c2878"
				}
			},
			"userdoc": {
				"kind": "user",
				"methods": {},
				"version": 1
			}
		}
	}
}