{
	"contracts/demo1.sol": {
		"Demo1": {
			"abi": [
				{
					"inputs": [],
					"name": "currentTime",
					"outputs": [
						{
							"internalType": "uint256",
							"name": "",
							"type": "uint256"
						}
					],
					"stateMutability": "view",
					"type": "function"
				},
				{
					"inputs": [],
					"name": "dataIndex",
					"outputs": [
						{
							"internalType": "uint256",
							"name": "",
							"type": "uint256"
						}
					],
					"stateMutability": "view",
					"type": "function"
				},
				{
					"inputs": [],
					"name": "deadline",
					"outputs": [
						{
							"internalType": "uint256",
							"name": "",
							"type": "uint256"
						}
					],
					"stateMutability": "view",
					"type": "function"
				},
				{
					"inputs": [],
					"name": "name",
					"outputs": [
						{
							"internalType": "bytes",
							"name": "",
							"type": "bytes"
						}
					],
					"stateMutability": "view",
					"type": "function"
				},
				{
					"inputs": [],
					"name": "name1",
					"outputs": [
						{
							"internalType": "bytes32",
							"name": "",
							"type": "bytes32"
						}
					],
					"stateMutability": "view",
					"type": "function"
				},
				{
					"inputs": [],
					"name": "name2",
					"outputs": [
						{
							"internalType": "bytes32",
							"name": "",
							"type": "bytes32"
						}
					],
					"stateMutability": "view",
					"type": "function"
				},
				{
					"inputs": [],
					"name": "permit",
					"outputs": [
						{
							"internalType": "bool",
							"name": "",
							"type": "bool"
						}
					],
					"stateMutability": "view",
					"type": "function"
				}
			],
			"devdoc": {
				"kind": "dev",
				"methods": {},
				"version": 1
			},
			"evm": {
				"assembly": "    /* \"contracts/demo1.sol\":32:500  contract Demo1{\r... */\n  mstore(0x40, 0x80)\n    /* \"contracts/demo1.sol\":53:85  bytes public name = \"LE HONG VO\" */\n  mload(0x40)\n  dup1\n  0x40\n  add\n  0x40\n  mstore\n  dup1\n  0x0a\n  dup2\n  mstore\n  0x20\n  add\n  0x4c4520484f4e4720564f00000000000000000000000000000000000000000000\n  dup2\n  mstore\n  pop\n  0x00\n  swap1\n  dup1\n  mload\n  swap1\n  0x20\n  add\n  swap1\n  tag_1\n  swap3\n  swap2\n  swap1\n  tag_2\n  jump\t// in\ntag_1:\n  pop\n    /* \"contracts/demo1.sol\":92:129  bytes32 public name1 = \"NGUYEN VAN A\" */\n  sstore(0x01, 0x4e475559454e2056414e20410000000000000000000000000000000000000000)\n    /* \"contracts/demo1.sol\":136:171  bytes32 public name2 = \"TRAN THI B\" */\n  sstore(0x02, 0x5452414e20544849204200000000000000000000000000000000000000000000)\n    /* \"contracts/demo1.sol\":205:220  block.timestamp */\n  timestamp\n    /* \"contracts/demo1.sol\":179:220  uint public currentTime = block.timestamp */\n  0x03\n  sstore\n    /* \"contracts/demo1.sol\":251:266  block.timestamp */\n  timestamp\n    /* \"contracts/demo1.sol\":227:266  uint public dataIndex = block.timestamp */\n  0x04\n  sstore\n    /* \"contracts/demo1.sol\":296:306  1648899357 */\n  0x6248351d\n    /* \"contracts/demo1.sol\":273:306  uint public deadline = 1648899357 */\n  0x05\n  sstore\n    /* \"contracts/demo1.sol\":32:500  contract Demo1{\r... */\n  callvalue\n  dup1\n  iszero\n  tag_3\n  jumpi\n  0x00\n  dup1\n  revert\ntag_3:\n  pop\n  jump(tag_4)\ntag_2:\n  dup3\n  dup1\n  sload\n  tag_5\n  swap1\n  tag_6\n  jump\t// in\ntag_5:\n  swap1\n  0x00\n  mstore\n  keccak256(0x00, 0x20)\n  swap1\n  0x1f\n  add\n  0x20\n  swap1\n  div\n  dup2\n  add\n  swap3\n  dup3\n  tag_8\n  jumpi\n  0x00\n  dup6\n  sstore\n  jump(tag_7)\ntag_8:\n  dup3\n  0x1f\n  lt\n  tag_9\n  jumpi\n  dup1\n  mload\n  not(0xff)\n  and\n  dup4\n  dup1\n  add\n  or\n  dup6\n  sstore\n  jump(tag_7)\ntag_9:\n  dup3\n  dup1\n  add\n  0x01\n  add\n  dup6\n  sstore\n  dup3\n  iszero\n  tag_7\n  jumpi\n  swap2\n  dup3\n  add\ntag_10:\n  dup3\n  dup2\n  gt\n  iszero\n  tag_11\n  jumpi\n  dup3\n  mload\n  dup3\n  sstore\n  swap2\n  0x20\n  add\n  swap2\n  swap1\n  0x01\n  add\n  swap1\n  jump(tag_10)\ntag_11:\ntag_7:\n  pop\n  swap1\n  pop\n  tag_12\n  swap2\n  swap1\n  tag_13\n  jump\t// in\ntag_12:\n  pop\n  swap1\n  jump\t// out\ntag_13:\ntag_14:\n  dup1\n  dup3\n  gt\n  iszero\n  tag_15\n  jumpi\n  0x00\n  dup2\n  0x00\n  swap1\n  sstore\n  pop\n  0x01\n  add\n  jump(tag_14)\ntag_15:\n  pop\n  swap1\n  jump\t// out\n    /* \"#utility.yul\":7:327   */\ntag_6:\n    /* \"#utility.yul\":51:57   */\n  0x00\n    /* \"#utility.yul\":88:89   */\n  0x02\n    /* \"#utility.yul\":82:86   */\n  dup3\n    /* \"#utility.yul\":78:90   */\n  div\n    /* \"#utility.yul\":68:90   */\n  swap1\n  pop\n    /* \"#utility.yul\":135:136   */\n  0x01\n    /* \"#utility.yul\":129:133   */\n  dup3\n    /* \"#utility.yul\":125:137   */\n  and\n    /* \"#utility.yul\":156:174   */\n  dup1\n    /* \"#utility.yul\":146:227   */\n  tag_18\n  jumpi\n    /* \"#utility.yul\":212:216   */\n  0x7f\n    /* \"#utility.yul\":204:210   */\n  dup3\n    /* \"#utility.yul\":200:217   */\n  and\n    /* \"#utility.yul\":190:217   */\n  swap2\n  pop\n    /* \"#utility.yul\":146:227   */\ntag_18:\n    /* \"#utility.yul\":274:276   */\n  0x20\n    /* \"#utility.yul\":266:272   */\n  dup3\n    /* \"#utility.yul\":263:277   */\n  lt\n    /* \"#utility.yul\":243:261   */\n  dup2\n    /* \"#utility.yul\":240:278   */\n  eq\n    /* \"#utility.yul\":237:321   */\n  iszero\n  tag_19\n  jumpi\n    /* \"#utility.yul\":293:311   */\n  tag_20\n  tag_21\n  jump\t// in\ntag_20:\n    /* \"#utility.yul\":237:321   */\ntag_19:\n    /* \"#utility.yul\":58:327   */\n  pop\n    /* \"#utility.yul\":7:327   */\n  swap2\n  swap1\n  pop\n  jump\t// out\n    /* \"#utility.yul\":333:513   */\ntag_21:\n    /* \"#utility.yul\":381:458   */\n  0x4e487b7100000000000000000000000000000000000000000000000000000000\n    /* \"#utility.yul\":378:379   */\n  0x00\n    /* \"#utility.yul\":371:459   */\n  mstore\n    /* \"#utility.yul\":478:482   */\n  0x22\n    /* \"#utility.yul\":475:476   */\n  0x04\n    /* \"#utility.yul\":468:483   */\n  mstore\n    /* \"#utility.yul\":502:506   */\n  0x24\n    /* \"#utility.yul\":499:500   */\n  0x00\n    /* \"#utility.yul\":492:507   */\n  revert\n    /* \"contracts/demo1.sol\":32:500  contract Demo1{\r... */\ntag_4:\n  dataSize(sub_0)\n  dup1\n  dataOffset(sub_0)\n  0x00\n  codecopy\n  0x00\n  return\nstop\n\nsub_0: assembly {\n        /* \"contracts/demo1.sol\":32:500  contract Demo1{\r... */\n      mstore(0x40, 0x80)\n      callvalue\n      dup1\n      iszero\n      tag_1\n      jumpi\n      0x00\n      dup1\n      revert\n    tag_1:\n      pop\n      jumpi(tag_2, lt(calldatasize, 0x04))\n      shr(0xe0, calldataload(0x00))\n      dup1\n      0x4b67f6af\n      gt\n      tag_10\n      jumpi\n      dup1\n      0x4b67f6af\n      eq\n      tag_6\n      jumpi\n      dup1\n      0x5777e93d\n      eq\n      tag_7\n      jumpi\n      dup1\n      0xd18e81b3\n      eq\n      tag_8\n      jumpi\n      dup1\n      0xf70bd6dd\n      eq\n      tag_9\n      jumpi\n      jump(tag_2)\n    tag_10:\n      dup1\n      0x06fdde03\n      eq\n      tag_3\n      jumpi\n      dup1\n      0x29dcb0cf\n      eq\n      tag_4\n      jumpi\n      dup1\n      0x47c8efa7\n      eq\n      tag_5\n      jumpi\n    tag_2:\n      0x00\n      dup1\n      revert\n        /* \"contracts/demo1.sol\":53:85  bytes public name = \"LE HONG VO\" */\n    tag_3:\n      tag_11\n      tag_12\n      jump\t// in\n    tag_11:\n      mload(0x40)\n      tag_13\n      swap2\n      swap1\n      tag_14\n      jump\t// in\n    tag_13:\n      mload(0x40)\n      dup1\n      swap2\n      sub\n      swap1\n      return\n        /* \"contracts/demo1.sol\":273:306  uint public deadline = 1648899357 */\n    tag_4:\n      tag_15\n      tag_16\n      jump\t// in\n    tag_15:\n      mload(0x40)\n      tag_17\n      swap2\n      swap1\n      tag_18\n      jump\t// in\n    tag_17:\n      mload(0x40)\n      dup1\n      swap2\n      sub\n      swap1\n      return\n        /* \"contracts/demo1.sol\":92:129  bytes32 public name1 = \"NGUYEN VAN A\" */\n    tag_5:\n      tag_19\n      tag_20\n      jump\t// in\n    tag_19:\n      mload(0x40)\n      tag_21\n      swap2\n      swap1\n      tag_22\n      jump\t// in\n    tag_21:\n      mload(0x40)\n      dup1\n      swap2\n      sub\n      swap1\n      return\n        /* \"contracts/demo1.sol\":136:171  bytes32 public name2 = \"TRAN THI B\" */\n    tag_6:\n      tag_23\n      tag_24\n      jump\t// in\n    tag_23:\n      mload(0x40)\n      tag_25\n      swap2\n      swap1\n      tag_22\n      jump\t// in\n    tag_25:\n      mload(0x40)\n      dup1\n      swap2\n      sub\n      swap1\n      return\n        /* \"contracts/demo1.sol\":321:497  function permit() public view returns(bool){\r... */\n    tag_7:\n      tag_26\n      tag_27\n      jump\t// in\n    tag_26:\n      mload(0x40)\n      tag_28\n      swap2\n      swap1\n      tag_29\n      jump\t// in\n    tag_28:\n      mload(0x40)\n      dup1\n      swap2\n      sub\n      swap1\n      return\n        /* \"contracts/demo1.sol\":179:220  uint public currentTime = block.timestamp */\n    tag_8:\n      tag_30\n      tag_31\n      jump\t// in\n    tag_30:\n      mload(0x40)\n      tag_32\n      swap2\n      swap1\n      tag_18\n      jump\t// in\n    tag_32:\n      mload(0x40)\n      dup1\n      swap2\n      sub\n      swap1\n      return\n        /* \"contracts/demo1.sol\":227:266  uint public dataIndex = block.timestamp */\n    tag_9:\n      tag_33\n      tag_34\n      jump\t// in\n    tag_33:\n      mload(0x40)\n      tag_35\n      swap2\n      swap1\n      tag_18\n      jump\t// in\n    tag_35:\n      mload(0x40)\n      dup1\n      swap2\n      sub\n      swap1\n      return\n        /* \"contracts/demo1.sol\":53:85  bytes public name = \"LE HONG VO\" */\n    tag_12:\n      0x00\n      dup1\n      sload\n      tag_36\n      swap1\n      tag_37\n      jump\t// in\n    tag_36:\n      dup1\n      0x1f\n      add\n      0x20\n      dup1\n      swap2\n      div\n      mul\n      0x20\n      add\n      mload(0x40)\n      swap1\n      dup2\n      add\n      0x40\n      mstore\n      dup1\n      swap3\n      swap2\n      swap1\n      dup2\n      dup2\n      mstore\n      0x20\n      add\n      dup3\n      dup1\n      sload\n      tag_38\n      swap1\n      tag_37\n      jump\t// in\n    tag_38:\n      dup1\n      iszero\n      tag_39\n      jumpi\n      dup1\n      0x1f\n      lt\n      tag_40\n      jumpi\n      0x0100\n      dup1\n      dup4\n      sload\n      div\n      mul\n      dup4\n      mstore\n      swap2\n      0x20\n      add\n      swap2\n      jump(tag_39)\n    tag_40:\n      dup3\n      add\n      swap2\n      swap1\n      0x00\n      mstore\n      keccak256(0x00, 0x20)\n      swap1\n    tag_41:\n      dup2\n      sload\n      dup2\n      mstore\n      swap1\n      0x01\n      add\n      swap1\n      0x20\n      add\n      dup1\n      dup4\n      gt\n      tag_41\n      jumpi\n      dup3\n      swap1\n      sub\n      0x1f\n      and\n      dup3\n      add\n      swap2\n    tag_39:\n      pop\n      pop\n      pop\n      pop\n      pop\n      dup2\n      jump\t// out\n        /* \"contracts/demo1.sol\":273:306  uint public deadline = 1648899357 */\n    tag_16:\n      sload(0x05)\n      dup2\n      jump\t// out\n        /* \"contracts/demo1.sol\":92:129  bytes32 public name1 = \"NGUYEN VAN A\" */\n    tag_20:\n      sload(0x01)\n      dup2\n      jump\t// out\n        /* \"contracts/demo1.sol\":136:171  bytes32 public name2 = \"TRAN THI B\" */\n    tag_24:\n      sload(0x02)\n      dup2\n      jump\t// out\n        /* \"contracts/demo1.sol\":321:497  function permit() public view returns(bool){\r... */\n    tag_27:\n        /* \"contracts/demo1.sol\":359:363  bool */\n      0x00\n        /* \"contracts/demo1.sol\":398:406  deadline */\n      sload(0x05)\n        /* \"contracts/demo1.sol\":379:394  block.timestamp */\n      timestamp\n        /* \"contracts/demo1.sol\":379:406  block.timestamp <= deadline */\n      gt\n        /* \"contracts/demo1.sol\":375:488  if (block.timestamp <= deadline){\r... */\n      tag_43\n      jumpi\n        /* \"contracts/demo1.sol\":429:433  true */\n      0x01\n        /* \"contracts/demo1.sol\":422:433  return true */\n      swap1\n      pop\n      jump(tag_42)\n        /* \"contracts/demo1.sol\":375:488  if (block.timestamp <= deadline){\r... */\n    tag_43:\n        /* \"contracts/demo1.sol\":471:476  false */\n      0x00\n        /* \"contracts/demo1.sol\":464:476  return false */\n      swap1\n      pop\n        /* \"contracts/demo1.sol\":321:497  function permit() public view returns(bool){\r... */\n    tag_42:\n      swap1\n      jump\t// out\n        /* \"contracts/demo1.sol\":179:220  uint public currentTime = block.timestamp */\n    tag_31:\n      sload(0x03)\n      dup2\n      jump\t// out\n        /* \"contracts/demo1.sol\":227:266  uint public dataIndex = block.timestamp */\n    tag_34:\n      sload(0x04)\n      dup2\n      jump\t// out\n        /* \"#utility.yul\":7:116   */\n    tag_46:\n        /* \"#utility.yul\":88:109   */\n      tag_48\n        /* \"#utility.yul\":103:108   */\n      dup2\n        /* \"#utility.yul\":88:109   */\n      tag_49\n      jump\t// in\n    tag_48:\n        /* \"#utility.yul\":83:86   */\n      dup3\n        /* \"#utility.yul\":76:110   */\n      mstore\n        /* \"#utility.yul\":7:116   */\n      pop\n      pop\n      jump\t// out\n        /* \"#utility.yul\":122:240   */\n    tag_50:\n        /* \"#utility.yul\":209:233   */\n      tag_52\n        /* \"#utility.yul\":227:232   */\n      dup2\n        /* \"#utility.yul\":209:233   */\n      tag_53\n      jump\t// in\n    tag_52:\n        /* \"#utility.yul\":204:207   */\n      dup3\n        /* \"#utility.yul\":197:234   */\n      mstore\n        /* \"#utility.yul\":122:240   */\n      pop\n      pop\n      jump\t// out\n        /* \"#utility.yul\":246:606   */\n    tag_54:\n        /* \"#utility.yul\":332:335   */\n      0x00\n        /* \"#utility.yul\":360:398   */\n      tag_56\n        /* \"#utility.yul\":392:397   */\n      dup3\n        /* \"#utility.yul\":360:398   */\n      tag_57\n      jump\t// in\n    tag_56:\n        /* \"#utility.yul\":414:484   */\n      tag_58\n        /* \"#utility.yul\":477:483   */\n      dup2\n        /* \"#utility.yul\":472:475   */\n      dup6\n        /* \"#utility.yul\":414:484   */\n      tag_59\n      jump\t// in\n    tag_58:\n        /* \"#utility.yul\":407:484   */\n      swap4\n      pop\n        /* \"#utility.yul\":493:545   */\n      tag_60\n        /* \"#utility.yul\":538:544   */\n      dup2\n        /* \"#utility.yul\":533:536   */\n      dup6\n        /* \"#utility.yul\":526:530   */\n      0x20\n        /* \"#utility.yul\":519:524   */\n      dup7\n        /* \"#utility.yul\":515:531   */\n      add\n        /* \"#utility.yul\":493:545   */\n      tag_61\n      jump\t// in\n    tag_60:\n        /* \"#utility.yul\":570:599   */\n      tag_62\n        /* \"#utility.yul\":592:598   */\n      dup2\n        /* \"#utility.yul\":570:599   */\n      tag_63\n      jump\t// in\n    tag_62:\n        /* \"#utility.yul\":565:568   */\n      dup5\n        /* \"#utility.yul\":561:600   */\n      add\n        /* \"#utility.yul\":554:600   */\n      swap2\n      pop\n        /* \"#utility.yul\":336:606   */\n      pop\n        /* \"#utility.yul\":246:606   */\n      swap3\n      swap2\n      pop\n      pop\n      jump\t// out\n        /* \"#utility.yul\":612:730   */\n    tag_64:\n        /* \"#utility.yul\":699:723   */\n      tag_66\n        /* \"#utility.yul\":717:722   */\n      dup2\n        /* \"#utility.yul\":699:723   */\n      tag_67\n      jump\t// in\n    tag_66:\n        /* \"#utility.yul\":694:697   */\n      dup3\n        /* \"#utility.yul\":687:724   */\n      mstore\n        /* \"#utility.yul\":612:730   */\n      pop\n      pop\n      jump\t// out\n        /* \"#utility.yul\":736:946   */\n    tag_29:\n        /* \"#utility.yul\":823:827   */\n      0x00\n        /* \"#utility.yul\":861:863   */\n      0x20\n        /* \"#utility.yul\":850:859   */\n      dup3\n        /* \"#utility.yul\":846:864   */\n      add\n        /* \"#utility.yul\":838:864   */\n      swap1\n      pop\n        /* \"#utility.yul\":874:939   */\n      tag_69\n        /* \"#utility.yul\":936:937   */\n      0x00\n        /* \"#utility.yul\":925:934   */\n      dup4\n        /* \"#utility.yul\":921:938   */\n      add\n        /* \"#utility.yul\":912:918   */\n      dup5\n        /* \"#utility.yul\":874:939   */\n      tag_46\n      jump\t// in\n    tag_69:\n        /* \"#utility.yul\":736:946   */\n      swap3\n      swap2\n      pop\n      pop\n      jump\t// out\n        /* \"#utility.yul\":952:1174   */\n    tag_22:\n        /* \"#utility.yul\":1045:1049   */\n      0x00\n        /* \"#utility.yul\":1083:1085   */\n      0x20\n        /* \"#utility.yul\":1072:1081   */\n      dup3\n        /* \"#utility.yul\":1068:1086   */\n      add\n        /* \"#utility.yul\":1060:1086   */\n      swap1\n      pop\n        /* \"#utility.yul\":1096:1167   */\n      tag_71\n        /* \"#utility.yul\":1164:1165   */\n      0x00\n        /* \"#utility.yul\":1153:1162   */\n      dup4\n        /* \"#utility.yul\":1149:1166   */\n      add\n        /* \"#utility.yul\":1140:1146   */\n      dup5\n        /* \"#utility.yul\":1096:1167   */\n      tag_50\n      jump\t// in\n    tag_71:\n        /* \"#utility.yul\":952:1174   */\n      swap3\n      swap2\n      pop\n      pop\n      jump\t// out\n        /* \"#utility.yul\":1180:1489   */\n    tag_14:\n        /* \"#utility.yul\":1291:1295   */\n      0x00\n        /* \"#utility.yul\":1329:1331   */\n      0x20\n        /* \"#utility.yul\":1318:1327   */\n      dup3\n        /* \"#utility.yul\":1314:1332   */\n      add\n        /* \"#utility.yul\":1306:1332   */\n      swap1\n      pop\n        /* \"#utility.yul\":1378:1387   */\n      dup2\n        /* \"#utility.yul\":1372:1376   */\n      dup2\n        /* \"#utility.yul\":1368:1388   */\n      sub\n        /* \"#utility.yul\":1364:1365   */\n      0x00\n        /* \"#utility.yul\":1353:1362   */\n      dup4\n        /* \"#utility.yul\":1349:1366   */\n      add\n        /* \"#utility.yul\":1342:1389   */\n      mstore\n        /* \"#utility.yul\":1406:1482   */\n      tag_73\n        /* \"#utility.yul\":1477:1481   */\n      dup2\n        /* \"#utility.yul\":1468:1474   */\n      dup5\n        /* \"#utility.yul\":1406:1482   */\n      tag_54\n      jump\t// in\n    tag_73:\n        /* \"#utility.yul\":1398:1482   */\n      swap1\n      pop\n        /* \"#utility.yul\":1180:1489   */\n      swap3\n      swap2\n      pop\n      pop\n      jump\t// out\n        /* \"#utility.yul\":1495:1717   */\n    tag_18:\n        /* \"#utility.yul\":1588:1592   */\n      0x00\n        /* \"#utility.yul\":1626:1628   */\n      0x20\n        /* \"#utility.yul\":1615:1624   */\n      dup3\n        /* \"#utility.yul\":1611:1629   */\n      add\n        /* \"#utility.yul\":1603:1629   */\n      swap1\n      pop\n        /* \"#utility.yul\":1639:1710   */\n      tag_75\n        /* \"#utility.yul\":1707:1708   */\n      0x00\n        /* \"#utility.yul\":1696:1705   */\n      dup4\n        /* \"#utility.yul\":1692:1709   */\n      add\n        /* \"#utility.yul\":1683:1689   */\n      dup5\n        /* \"#utility.yul\":1639:1710   */\n      tag_64\n      jump\t// in\n    tag_75:\n        /* \"#utility.yul\":1495:1717   */\n      swap3\n      swap2\n      pop\n      pop\n      jump\t// out\n        /* \"#utility.yul\":1723:1821   */\n    tag_57:\n        /* \"#utility.yul\":1774:1780   */\n      0x00\n        /* \"#utility.yul\":1808:1813   */\n      dup2\n        /* \"#utility.yul\":1802:1814   */\n      mload\n        /* \"#utility.yul\":1792:1814   */\n      swap1\n      pop\n        /* \"#utility.yul\":1723:1821   */\n      swap2\n      swap1\n      pop\n      jump\t// out\n        /* \"#utility.yul\":1827:1995   */\n    tag_59:\n        /* \"#utility.yul\":1910:1921   */\n      0x00\n        /* \"#utility.yul\":1944:1950   */\n      dup3\n        /* \"#utility.yul\":1939:1942   */\n      dup3\n        /* \"#utility.yul\":1932:1951   */\n      mstore\n        /* \"#utility.yul\":1984:1988   */\n      0x20\n        /* \"#utility.yul\":1979:1982   */\n      dup3\n        /* \"#utility.yul\":1975:1989   */\n      add\n        /* \"#utility.yul\":1960:1989   */\n      swap1\n      pop\n        /* \"#utility.yul\":1827:1995   */\n      swap3\n      swap2\n      pop\n      pop\n      jump\t// out\n        /* \"#utility.yul\":2001:2091   */\n    tag_49:\n        /* \"#utility.yul\":2035:2042   */\n      0x00\n        /* \"#utility.yul\":2078:2083   */\n      dup2\n        /* \"#utility.yul\":2071:2084   */\n      iszero\n        /* \"#utility.yul\":2064:2085   */\n      iszero\n        /* \"#utility.yul\":2053:2085   */\n      swap1\n      pop\n        /* \"#utility.yul\":2001:2091   */\n      swap2\n      swap1\n      pop\n      jump\t// out\n        /* \"#utility.yul\":2097:2174   */\n    tag_53:\n        /* \"#utility.yul\":2134:2141   */\n      0x00\n        /* \"#utility.yul\":2163:2168   */\n      dup2\n        /* \"#utility.yul\":2152:2168   */\n      swap1\n      pop\n        /* \"#utility.yul\":2097:2174   */\n      swap2\n      swap1\n      pop\n      jump\t// out\n        /* \"#utility.yul\":2180:2257   */\n    tag_67:\n        /* \"#utility.yul\":2217:2224   */\n      0x00\n        /* \"#utility.yul\":2246:2251   */\n      dup2\n        /* \"#utility.yul\":2235:2251   */\n      swap1\n      pop\n        /* \"#utility.yul\":2180:2257   */\n      swap2\n      swap1\n      pop\n      jump\t// out\n        /* \"#utility.yul\":2263:2570   */\n    tag_61:\n        /* \"#utility.yul\":2331:2332   */\n      0x00\n        /* \"#utility.yul\":2341:2454   */\n    tag_82:\n        /* \"#utility.yul\":2355:2361   */\n      dup4\n        /* \"#utility.yul\":2352:2353   */\n      dup2\n        /* \"#utility.yul\":2349:2362   */\n      lt\n        /* \"#utility.yul\":2341:2454   */\n      iszero\n      tag_84\n      jumpi\n        /* \"#utility.yul\":2440:2441   */\n      dup1\n        /* \"#utility.yul\":2435:2438   */\n      dup3\n        /* \"#utility.yul\":2431:2442   */\n      add\n        /* \"#utility.yul\":2425:2443   */\n      mload\n        /* \"#utility.yul\":2421:2422   */\n      dup2\n        /* \"#utility.yul\":2416:2419   */\n      dup5\n        /* \"#utility.yul\":2412:2423   */\n      add\n        /* \"#utility.yul\":2405:2444   */\n      mstore\n        /* \"#utility.yul\":2377:2379   */\n      0x20\n        /* \"#utility.yul\":2374:2375   */\n      dup2\n        /* \"#utility.yul\":2370:2380   */\n      add\n        /* \"#utility.yul\":2365:2380   */\n      swap1\n      pop\n        /* \"#utility.yul\":2341:2454   */\n      jump(tag_82)\n    tag_84:\n        /* \"#utility.yul\":2472:2478   */\n      dup4\n        /* \"#utility.yul\":2469:2470   */\n      dup2\n        /* \"#utility.yul\":2466:2479   */\n      gt\n        /* \"#utility.yul\":2463:2564   */\n      iszero\n      tag_85\n      jumpi\n        /* \"#utility.yul\":2552:2553   */\n      0x00\n        /* \"#utility.yul\":2543:2549   */\n      dup5\n        /* \"#utility.yul\":2538:2541   */\n      dup5\n        /* \"#utility.yul\":2534:2550   */\n      add\n        /* \"#utility.yul\":2527:2554   */\n      mstore\n        /* \"#utility.yul\":2463:2564   */\n    tag_85:\n        /* \"#utility.yul\":2312:2570   */\n      pop\n        /* \"#utility.yul\":2263:2570   */\n      pop\n      pop\n      pop\n      jump\t// out\n        /* \"#utility.yul\":2576:2896   */\n    tag_37:\n        /* \"#utility.yul\":2620:2626   */\n      0x00\n        /* \"#utility.yul\":2657:2658   */\n      0x02\n        /* \"#utility.yul\":2651:2655   */\n      dup3\n        /* \"#utility.yul\":2647:2659   */\n      div\n        /* \"#utility.yul\":2637:2659   */\n      swap1\n      pop\n        /* \"#utility.yul\":2704:2705   */\n      0x01\n        /* \"#utility.yul\":2698:2702   */\n      dup3\n        /* \"#utility.yul\":2694:2706   */\n      and\n        /* \"#utility.yul\":2725:2743   */\n      dup1\n        /* \"#utility.yul\":2715:2796   */\n      tag_87\n      jumpi\n        /* \"#utility.yul\":2781:2785   */\n      0x7f\n        /* \"#utility.yul\":2773:2779   */\n      dup3\n        /* \"#utility.yul\":2769:2786   */\n      and\n        /* \"#utility.yul\":2759:2786   */\n      swap2\n      pop\n        /* \"#utility.yul\":2715:2796   */\n    tag_87:\n        /* \"#utility.yul\":2843:2845   */\n      0x20\n        /* \"#utility.yul\":2835:2841   */\n      dup3\n        /* \"#utility.yul\":2832:2846   */\n      lt\n        /* \"#utility.yul\":2812:2830   */\n      dup2\n        /* \"#utility.yul\":2809:2847   */\n      eq\n        /* \"#utility.yul\":2806:2890   */\n      iszero\n      tag_88\n      jumpi\n        /* \"#utility.yul\":2862:2880   */\n      tag_89\n      tag_90\n      jump\t// in\n    tag_89:\n        /* \"#utility.yul\":2806:2890   */\n    tag_88:\n        /* \"#utility.yul\":2627:2896   */\n      pop\n        /* \"#utility.yul\":2576:2896   */\n      swap2\n      swap1\n      pop\n      jump\t// out\n        /* \"#utility.yul\":2902:3082   */\n    tag_90:\n        /* \"#utility.yul\":2950:3027   */\n      0x4e487b7100000000000000000000000000000000000000000000000000000000\n        /* \"#utility.yul\":2947:2948   */\n      0x00\n        /* \"#utility.yul\":2940:3028   */\n      mstore\n        /* \"#utility.yul\":3047:3051   */\n      0x22\n        /* \"#utility.yul\":3044:3045   */\n      0x04\n        /* \"#utility.yul\":3037:3052   */\n      mstore\n        /* \"#utility.yul\":3071:3075   */\n      0x24\n        /* \"#utility.yul\":3068:3069   */\n      0x00\n        /* \"#utility.yul\":3061:3076   */\n      revert\n        /* \"#utility.yul\":3088:3190   */\n    tag_63:\n        /* \"#utility.yul\":3129:3135   */\n      0x00\n        /* \"#utility.yul\":3180:3182   */\n      0x1f\n        /* \"#utility.yul\":3176:3183   */\n      not\n        /* \"#utility.yul\":3171:3173   */\n      0x1f\n        /* \"#utility.yul\":3164:3169   */\n      dup4\n        /* \"#utility.yul\":3160:3174   */\n      add\n        /* \"#utility.yul\":3156:3184   */\n      and\n        /* \"#utility.yul\":3146:3184   */\n      swap1\n      pop\n        /* \"#utility.yul\":3088:3190   */\n      swap2\n      swap1\n      pop\n      jump\t// out\n\n    auxdata: 0xa2646970667358221220930fe3f1c35f1729c60ec5905cca0c6914d9baf82c9abf51593686e2f6d24f1664736f6c63430008070033\n}\n",
				"bytecode": {
					"linkReferences": {},
					"object": "60806040526040518060400160405280600a81526020017f4c4520484f4e4720564f000000000000000000000000000000000000000000008152506000908051906020019061004f9291906100ba565b507f4e475559454e2056414e204100000000000000000000000000000000000000006001557f5452414e205448492042000000000000000000000000000000000000000000006002554260035542600455636248351d6005553480156100b457600080fd5b506101be565b8280546100c69061015d565b90600052602060002090601f0160209004810192826100e8576000855561012f565b82601f1061010157805160ff191683800117855561012f565b8280016001018555821561012f579182015b8281111561012e578251825591602001919060010190610113565b5b50905061013c9190610140565b5090565b5b80821115610159576000816000905550600101610141565b5090565b6000600282049050600182168061017557607f821691505b602082108114156101895761018861018f565b5b50919050565b7f4e487b7100000000000000000000000000000000000000000000000000000000600052602260045260246000fd5b61040c806101cd6000396000f3fe608060405234801561001057600080fd5b506004361061007d5760003560e01c80634b67f6af1161005b5780634b67f6af146100dc5780635777e93d146100fa578063d18e81b314610118578063f70bd6dd146101365761007d565b806306fdde031461008257806329dcb0cf146100a057806347c8efa7146100be575b600080fd5b61008a610154565b60405161009791906102b8565b60405180910390f35b6100a86101e2565b6040516100b591906102da565b60405180910390f35b6100c66101e8565b6040516100d3919061029d565b60405180910390f35b6100e46101ee565b6040516100f1919061029d565b60405180910390f35b6101026101f4565b60405161010f9190610282565b60405180910390f35b610120610210565b60405161012d91906102da565b60405180910390f35b61013e610216565b60405161014b91906102da565b60405180910390f35b6000805461016190610364565b80601f016020809104026020016040519081016040528092919081815260200182805461018d90610364565b80156101da5780601f106101af576101008083540402835291602001916101da565b820191906000526020600020905b8154815290600101906020018083116101bd57829003601f168201915b505050505081565b60055481565b60015481565b60025481565b60006005544211610208576001905061020d565b600090505b90565b60035481565b60045481565b61022581610311565b82525050565b6102348161031d565b82525050565b6000610245826102f5565b61024f8185610300565b935061025f818560208601610331565b610268816103c5565b840191505092915050565b61027c81610327565b82525050565b6000602082019050610297600083018461021c565b92915050565b60006020820190506102b2600083018461022b565b92915050565b600060208201905081810360008301526102d2818461023a565b905092915050565b60006020820190506102ef6000830184610273565b92915050565b600081519050919050565b600082825260208201905092915050565b60008115159050919050565b6000819050919050565b6000819050919050565b60005b8381101561034f578082015181840152602081019050610334565b8381111561035e576000848401525b50505050565b6000600282049050600182168061037c57607f821691505b602082108114156103905761038f610396565b5b50919050565b7f4e487b7100000000000000000000000000000000000000000000000000000000600052602260045260246000fd5b6000601f19601f830116905091905056fea2646970667358221220930fe3f1c35f1729c60ec5905cca0c6914d9baf82c9abf51593686e2f6d24f1664736f6c63430008070033",
					"opcodes": "PUSH1 0x80 PUSH1 0x40 MSTORE PUSH1 0x40 MLOAD DUP1 PUSH1 0x40 ADD PUSH1 0x40 MSTORE DUP1 PUSH1 0xA DUP2 MSTORE PUSH1 0x20 ADD PUSH32 0x4C4520484F4E4720564F00000000000000000000000000000000000000000000 DUP2 MSTORE POP PUSH1 0x0 SWAP1 DUP1 MLOAD SWAP1 PUSH1 0x20 ADD SWAP1 PUSH2 0x4F SWAP3 SWAP2 SWAP1 PUSH2 0xBA JUMP JUMPDEST POP PUSH32 0x4E475559454E2056414E20410000000000000000000000000000000000000000 PUSH1 0x1 SSTORE PUSH32 0x5452414E20544849204200000000000000000000000000000000000000000000 PUSH1 0x2 SSTORE TIMESTAMP PUSH1 0x3 SSTORE TIMESTAMP PUSH1 0x4 SSTORE PUSH4 0x6248351D PUSH1 0x5 SSTORE CALLVALUE DUP1 ISZERO PUSH2 0xB4 JUMPI PUSH1 0x0 DUP1 REVERT JUMPDEST POP PUSH2 0x1BE JUMP JUMPDEST DUP3 DUP1 SLOAD PUSH2 0xC6 SWAP1 PUSH2 0x15D JUMP JUMPDEST SWAP1 PUSH1 0x0 MSTORE PUSH1 0x20 PUSH1 0x0 KECCAK256 SWAP1 PUSH1 0x1F ADD PUSH1 0x20 SWAP1 DIV DUP2 ADD SWAP3 DUP3 PUSH2 0xE8 JUMPI PUSH1 0x0 DUP6 SSTORE PUSH2 0x12F JUMP JUMPDEST DUP3 PUSH1 0x1F LT PUSH2 0x101 JUMPI DUP1 MLOAD PUSH1 0xFF NOT AND DUP4 DUP1 ADD OR DUP6 SSTORE PUSH2 0x12F JUMP JUMPDEST DUP3 DUP1 ADD PUSH1 0x1 ADD DUP6 SSTORE DUP3 ISZERO PUSH2 0x12F JUMPI SWAP2 DUP3 ADD JUMPDEST DUP3 DUP2 GT ISZERO PUSH2 0x12E JUMPI DUP3 MLOAD DUP3 SSTORE SWAP2 PUSH1 0x20 ADD SWAP2 SWAP1 PUSH1 0x1 ADD SWAP1 PUSH2 0x113 JUMP JUMPDEST JUMPDEST POP SWAP1 POP PUSH2 0x13C SWAP2 SWAP1 PUSH2 0x140 JUMP JUMPDEST POP SWAP1 JUMP JUMPDEST JUMPDEST DUP1 DUP3 GT ISZERO PUSH2 0x159 JUMPI PUSH1 0x0 DUP2 PUSH1 0x0 SWAP1 SSTORE POP PUSH1 0x1 ADD PUSH2 0x141 JUMP JUMPDEST POP SWAP1 JUMP JUMPDEST PUSH1 0x0 PUSH1 0x2 DUP3 DIV SWAP1 POP PUSH1 0x1 DUP3 AND DUP1 PUSH2 0x175 JUMPI PUSH1 0x7F DUP3 AND SWAP2 POP JUMPDEST PUSH1 0x20 DUP3 LT DUP2 EQ ISZERO PUSH2 0x189 JUMPI PUSH2 0x188 PUSH2 0x18F JUMP JUMPDEST JUMPDEST POP SWAP2 SWAP1 POP JUMP JUMPDEST PUSH32 0x4E487B7100000000000000000000000000000000000000000000000000000000 PUSH1 0x0 MSTORE PUSH1 0x22 PUSH1 0x4 MSTORE PUSH1 0x24 PUSH1 0x0 REVERT JUMPDEST PUSH2 0x40C DUP1 PUSH2 0x1CD PUSH1 0x0 CODECOPY PUSH1 0x0 RETURN INVALID PUSH1 0x80 PUSH1 0x40 MSTORE CALLVALUE DUP1 ISZERO PUSH2 0x10 JUMPI PUSH1 0x0 DUP1 REVERT JUMPDEST POP PUSH1 0x4 CALLDATASIZE LT PUSH2 0x7D JUMPI PUSH1 0x0 CALLDATALOAD PUSH1 0xE0 SHR DUP1 PUSH4 0x4B67F6AF GT PUSH2 0x5B JUMPI DUP1 PUSH4 0x4B67F6AF EQ PUSH2 0xDC JUMPI DUP1 PUSH4 0x5777E93D EQ PUSH2 0xFA JUMPI DUP1 PUSH4 0xD18E81B3 EQ PUSH2 0x118 JUMPI DUP1 PUSH4 0xF70BD6DD EQ PUSH2 0x136 JUMPI PUSH2 0x7D JUMP JUMPDEST DUP1 PUSH4 0x6FDDE03 EQ PUSH2 0x82 JUMPI DUP1 PUSH4 0x29DCB0CF EQ PUSH2 0xA0 JUMPI DUP1 PUSH4 0x47C8EFA7 EQ PUSH2 0xBE JUMPI JUMPDEST PUSH1 0x0 DUP1 REVERT JUMPDEST PUSH2 0x8A PUSH2 0x154 JUMP JUMPDEST PUSH1 0x40 MLOAD PUSH2 0x97 SWAP2 SWAP1 PUSH2 0x2B8 JUMP JUMPDEST PUSH1 0x40 MLOAD DUP1 SWAP2 SUB SWAP1 RETURN JUMPDEST PUSH2 0xA8 PUSH2 0x1E2 JUMP JUMPDEST PUSH1 0x40 MLOAD PUSH2 0xB5 SWAP2 SWAP1 PUSH2 0x2DA JUMP JUMPDEST PUSH1 0x40 MLOAD DUP1 SWAP2 SUB SWAP1 RETURN JUMPDEST PUSH2 0xC6 PUSH2 0x1E8 JUMP JUMPDEST PUSH1 0x40 MLOAD PUSH2 0xD3 SWAP2 SWAP1 PUSH2 0x29D JUMP JUMPDEST PUSH1 0x40 MLOAD DUP1 SWAP2 SUB SWAP1 RETURN JUMPDEST PUSH2 0xE4 PUSH2 0x1EE JUMP JUMPDEST PUSH1 0x40 MLOAD PUSH2 0xF1 SWAP2 SWAP1 PUSH2 0x29D JUMP JUMPDEST PUSH1 0x40 MLOAD DUP1 SWAP2 SUB SWAP1 RETURN JUMPDEST PUSH2 0x102 PUSH2 0x1F4 JUMP JUMPDEST PUSH1 0x40 MLOAD PUSH2 0x10F SWAP2 SWAP1 PUSH2 0x282 JUMP JUMPDEST PUSH1 0x40 MLOAD DUP1 SWAP2 SUB SWAP1 RETURN JUMPDEST PUSH2 0x120 PUSH2 0x210 JUMP JUMPDEST PUSH1 0x40 MLOAD PUSH2 0x12D SWAP2 SWAP1 PUSH2 0x2DA JUMP JUMPDEST PUSH1 0x40 MLOAD DUP1 SWAP2 SUB SWAP1 RETURN JUMPDEST PUSH2 0x13E PUSH2 0x216 JUMP JUMPDEST PUSH1 0x40 MLOAD PUSH2 0x14B SWAP2 SWAP1 PUSH2 0x2DA JUMP JUMPDEST PUSH1 0x40 MLOAD DUP1 SWAP2 SUB SWAP1 RETURN JUMPDEST PUSH1 0x0 DUP1 SLOAD PUSH2 0x161 SWAP1 PUSH2 0x364 JUMP JUMPDEST DUP1 PUSH1 0x1F ADD PUSH1 0x20 DUP1 SWAP2 DIV MUL PUSH1 0x20 ADD PUSH1 0x40 MLOAD SWAP1 DUP2 ADD PUSH1 0x40 MSTORE DUP1 SWAP3 SWAP2 SWAP1 DUP2 DUP2 MSTORE PUSH1 0x20 ADD DUP3 DUP1 SLOAD PUSH2 0x18D SWAP1 PUSH2 0x364 JUMP JUMPDEST DUP1 ISZERO PUSH2 0x1DA JUMPI DUP1 PUSH1 0x1F LT PUSH2 0x1AF JUMPI PUSH2 0x100 DUP1 DUP4 SLOAD DIV MUL DUP4 MSTORE SWAP2 PUSH1 0x20 ADD SWAP2 PUSH2 0x1DA JUMP JUMPDEST DUP3 ADD SWAP2 SWAP1 PUSH1 0x0 MSTORE PUSH1 0x20 PUSH1 0x0 KECCAK256 SWAP1 JUMPDEST DUP2 SLOAD DUP2 MSTORE SWAP1 PUSH1 0x1 ADD SWAP1 PUSH1 0x20 ADD DUP1 DUP4 GT PUSH2 0x1BD JUMPI DUP3 SWAP1 SUB PUSH1 0x1F AND DUP3 ADD SWAP2 JUMPDEST POP POP POP POP POP DUP2 JUMP JUMPDEST PUSH1 0x5 SLOAD DUP2 JUMP JUMPDEST PUSH1 0x1 SLOAD DUP2 JUMP JUMPDEST PUSH1 0x2 SLOAD DUP2 JUMP JUMPDEST PUSH1 0x0 PUSH1 0x5 SLOAD TIMESTAMP GT PUSH2 0x208 JUMPI PUSH1 0x1 SWAP1 POP PUSH2 0x20D JUMP JUMPDEST PUSH1 0x0 SWAP1 POP JUMPDEST SWAP1 JUMP JUMPDEST PUSH1 0x3 SLOAD DUP2 JUMP JUMPDEST PUSH1 0x4 SLOAD DUP2 JUMP JUMPDEST PUSH2 0x225 DUP2 PUSH2 0x311 JUMP JUMPDEST DUP3 MSTORE POP POP JUMP JUMPDEST PUSH2 0x234 DUP2 PUSH2 0x31D JUMP JUMPDEST DUP3 MSTORE POP POP JUMP JUMPDEST PUSH1 0x0 PUSH2 0x245 DUP3 PUSH2 0x2F5 JUMP JUMPDEST PUSH2 0x24F DUP2 DUP6 PUSH2 0x300 JUMP JUMPDEST SWAP4 POP PUSH2 0x25F DUP2 DUP6 PUSH1 0x20 DUP7 ADD PUSH2 0x331 JUMP JUMPDEST PUSH2 0x268 DUP2 PUSH2 0x3C5 JUMP JUMPDEST DUP5 ADD SWAP2 POP POP SWAP3 SWAP2 POP POP JUMP JUMPDEST PUSH2 0x27C DUP2 PUSH2 0x327 JUMP JUMPDEST DUP3 MSTORE POP POP JUMP JUMPDEST PUSH1 0x0 PUSH1 0x20 DUP3 ADD SWAP1 POP PUSH2 0x297 PUSH1 0x0 DUP4 ADD DUP5 PUSH2 0x21C JUMP JUMPDEST SWAP3 SWAP2 POP POP JUMP JUMPDEST PUSH1 0x0 PUSH1 0x20 DUP3 ADD SWAP1 POP PUSH2 0x2B2 PUSH1 0x0 DUP4 ADD DUP5 PUSH2 0x22B JUMP JUMPDEST SWAP3 SWAP2 POP POP JUMP JUMPDEST PUSH1 0x0 PUSH1 0x20 DUP3 ADD SWAP1 POP DUP2 DUP2 SUB PUSH1 0x0 DUP4 ADD MSTORE PUSH2 0x2D2 DUP2 DUP5 PUSH2 0x23A JUMP JUMPDEST SWAP1 POP SWAP3 SWAP2 POP POP JUMP JUMPDEST PUSH1 0x0 PUSH1 0x20 DUP3 ADD SWAP1 POP PUSH2 0x2EF PUSH1 0x0 DUP4 ADD DUP5 PUSH2 0x273 JUMP JUMPDEST SWAP3 SWAP2 POP POP JUMP JUMPDEST PUSH1 0x0 DUP2 MLOAD SWAP1 POP SWAP2 SWAP1 POP JUMP JUMPDEST PUSH1 0x0 DUP3 DUP3 MSTORE PUSH1 0x20 DUP3 ADD SWAP1 POP SWAP3 SWAP2 POP POP JUMP JUMPDEST PUSH1 0x0 DUP2 ISZERO ISZERO SWAP1 POP SWAP2 SWAP1 POP JUMP JUMPDEST PUSH1 0x0 DUP2 SWAP1 POP SWAP2 SWAP1 POP JUMP JUMPDEST PUSH1 0x0 DUP2 SWAP1 POP SWAP2 SWAP1 POP JUMP JUMPDEST PUSH1 0x0 JUMPDEST DUP4 DUP2 LT ISZERO PUSH2 0x34F JUMPI DUP1 DUP3 ADD MLOAD DUP2 DUP5 ADD MSTORE PUSH1 0x20 DUP2 ADD SWAP1 POP PUSH2 0x334 JUMP JUMPDEST DUP4 DUP2 GT ISZERO PUSH2 0x35E JUMPI PUSH1 0x0 DUP5 DUP5 ADD MSTORE JUMPDEST POP POP POP POP JUMP JUMPDEST PUSH1 0x0 PUSH1 0x2 DUP3 DIV SWAP1 POP PUSH1 0x1 DUP3 AND DUP1 PUSH2 0x37C JUMPI PUSH1 0x7F DUP3 AND SWAP2 POP JUMPDEST PUSH1 0x20 DUP3 LT DUP2 EQ ISZERO PUSH2 0x390 JUMPI PUSH2 0x38F PUSH2 0x396 JUMP JUMPDEST JUMPDEST POP SWAP2 SWAP1 POP JUMP JUMPDEST PUSH32 0x4E487B7100000000000000000000000000000000000000000000000000000000 PUSH1 0x0 MSTORE PUSH1 0x22 PUSH1 0x4 MSTORE PUSH1 0x24 PUSH1 0x0 REVERT JUMPDEST PUSH1 0x0 PUSH1 0x1F NOT PUSH1 0x1F DUP4 ADD AND SWAP1 POP SWAP2 SWAP1 POP JUMP INVALID LOG2 PUSH5 0x6970667358 0x22 SLT KECCAK256 SWAP4 0xF 0xE3 CALL 0xC3 0x5F OR 0x29 0xC6 0xE 0xC5 SWAP1 0x5C 0xCA 0xC PUSH10 0x14D9BAF82C9ABF515936 DUP7 0xE2 0xF6 0xD2 0x4F AND PUSH5 0x736F6C6343 STOP ADDMOD SMOD STOP CALLER "
				},
				"gasEstimates": {
					"creation": {
						"codeDepositCost": "207200",
						"executionCost": "infinite",
						"totalCost": "infinite"
					},
					"external": {
						"currentTime()": "2473",
						"dataIndex()": "2495",
						"deadline()": "2452",
						"name()": "infinite",
						"name1()": "2474",
						"name2()": "2429",
						"permit()": "2498"
					}
				},
				"methodIdentifiers": {
					"currentTime()": "d18e81b3",
					"dataIndex()": "f70bd6dd",
					"deadline()": "29dcb0cf",
					"name()": "06fdde03",
					"name1()": "47c8efa7",
					"name2()": "4b67f6af",
					"permit()": "5777e93d"
				}
			},
			"userdoc": {
				"kind": "user",
				"methods": {},
				"version": 1
			}
		}
	}
}