{
	"contracts/demo1.sol": {
		"Demo1": {
			"abi": [
				{
					"inputs": [],
					"name": "deadline",
					"outputs": [
						{
							"internalType": "uint256",
							"name": "",
							"type": "uint256"
						}
					],
					"stateMutability": "view",
					"type": "function"
				},
				{
					"inputs": [],
					"name": "name",
					"outputs": [
						{
							"internalType": "bytes",
							"name": "",
							"type": "bytes"
						}
					],
					"stateMutability": "view",
					"type": "function"
				},
				{
					"inputs": [],
					"name": "name1",
					"outputs": [
						{
							"internalType": "bytes32",
							"name": "",
							"type": "bytes32"
						}
					],
					"stateMutability": "view",
					"type": "function"
				},
				{
					"inputs": [],
					"name": "name2",
					"outputs": [
						{
							"internalType": "bytes32",
							"name": "",
							"type": "bytes32"
						}
					],
					"stateMutability": "view",
					"type": "function"
				},
				{
					"inputs": [],
					"name": "permit",
					"outputs": [
						{
							"internalType": "bool",
							"name": "",
							"type": "bool"
						}
					],
					"stateMutability": "view",
					"type": "function"
				}
			],
			"devdoc": {
				"kind": "dev",
				"methods": {},
				"version": 1
			},
			"evm": {
				"assembly": "    /* \"contracts/demo1.sol\":32:506  contract Demo1{\r... */\n  mstore(0x40, 0x80)\n    /* \"contracts/demo1.sol\":53:85  bytes public name = \"LE HONG VO\" */\n  mload(0x40)\n  dup1\n  0x40\n  add\n  0x40\n  mstore\n  dup1\n  0x0a\n  dup2\n  mstore\n  0x20\n  add\n  0x4c4520484f4e4720564f00000000000000000000000000000000000000000000\n  dup2\n  mstore\n  pop\n  0x00\n  swap1\n  dup1\n  mload\n  swap1\n  0x20\n  add\n  swap1\n  tag_1\n  swap3\n  swap2\n  swap1\n  tag_2\n  jump\t// in\ntag_1:\n  pop\n    /* \"contracts/demo1.sol\":92:129  bytes32 public name1 = \"NGUYEN VAN A\" */\n  sstore(0x01, 0x4e475559454e2056414e20410000000000000000000000000000000000000000)\n    /* \"contracts/demo1.sol\":136:171  bytes32 public name2 = \"TRAN THI B\" */\n  sstore(0x02, 0x5452414e20544849204200000000000000000000000000000000000000000000)\n    /* \"contracts/demo1.sol\":302:312  1648899357 */\n  0x6248351d\n    /* \"contracts/demo1.sol\":279:312  uint public deadline = 1648899357 */\n  0x03\n  sstore\n    /* \"contracts/demo1.sol\":32:506  contract Demo1{\r... */\n  callvalue\n  dup1\n  iszero\n  tag_3\n  jumpi\n  0x00\n  dup1\n  revert\ntag_3:\n  pop\n  jump(tag_4)\ntag_2:\n  dup3\n  dup1\n  sload\n  tag_5\n  swap1\n  tag_6\n  jump\t// in\ntag_5:\n  swap1\n  0x00\n  mstore\n  keccak256(0x00, 0x20)\n  swap1\n  0x1f\n  add\n  0x20\n  swap1\n  div\n  dup2\n  add\n  swap3\n  dup3\n  tag_8\n  jumpi\n  0x00\n  dup6\n  sstore\n  jump(tag_7)\ntag_8:\n  dup3\n  0x1f\n  lt\n  tag_9\n  jumpi\n  dup1\n  mload\n  not(0xff)\n  and\n  dup4\n  dup1\n  add\n  or\n  dup6\n  sstore\n  jump(tag_7)\ntag_9:\n  dup3\n  dup1\n  add\n  0x01\n  add\n  dup6\n  sstore\n  dup3\n  iszero\n  tag_7\n  jumpi\n  swap2\n  dup3\n  add\ntag_10:\n  dup3\n  dup2\n  gt\n  iszero\n  tag_11\n  jumpi\n  dup3\n  mload\n  dup3\n  sstore\n  swap2\n  0x20\n  add\n  swap2\n  swap1\n  0x01\n  add\n  swap1\n  jump(tag_10)\ntag_11:\ntag_7:\n  pop\n  swap1\n  pop\n  tag_12\n  swap2\n  swap1\n  tag_13\n  jump\t// in\ntag_12:\n  pop\n  swap1\n  jump\t// out\ntag_13:\ntag_14:\n  dup1\n  dup3\n  gt\n  iszero\n  tag_15\n  jumpi\n  0x00\n  dup2\n  0x00\n  swap1\n  sstore\n  pop\n  0x01\n  add\n  jump(tag_14)\ntag_15:\n  pop\n  swap1\n  jump\t// out\n    /* \"#utility.yul\":7:327   */\ntag_6:\n    /* \"#utility.yul\":51:57   */\n  0x00\n    /* \"#utility.yul\":88:89   */\n  0x02\n    /* \"#utility.yul\":82:86   */\n  dup3\n    /* \"#utility.yul\":78:90   */\n  div\n    /* \"#utility.yul\":68:90   */\n  swap1\n  pop\n    /* \"#utility.yul\":135:136   */\n  0x01\n    /* \"#utility.yul\":129:133   */\n  dup3\n    /* \"#utility.yul\":125:137   */\n  and\n    /* \"#utility.yul\":156:174   */\n  dup1\n    /* \"#utility.yul\":146:227   */\n  tag_18\n  jumpi\n    /* \"#utility.yul\":212:216   */\n  0x7f\n    /* \"#utility.yul\":204:210   */\n  dup3\n    /* \"#utility.yul\":200:217   */\n  and\n    /* \"#utility.yul\":190:217   */\n  swap2\n  pop\n    /* \"#utility.yul\":146:227   */\ntag_18:\n    /* \"#utility.yul\":274:276   */\n  0x20\n    /* \"#utility.yul\":266:272   */\n  dup3\n    /* \"#utility.yul\":263:277   */\n  lt\n    /* \"#utility.yul\":243:261   */\n  dup2\n    /* \"#utility.yul\":240:278   */\n  eq\n    /* \"#utility.yul\":237:321   */\n  iszero\n  tag_19\n  jumpi\n    /* \"#utility.yul\":293:311   */\n  tag_20\n  tag_21\n  jump\t// in\ntag_20:\n    /* \"#utility.yul\":237:321   */\ntag_19:\n    /* \"#utility.yul\":58:327   */\n  pop\n    /* \"#utility.yul\":7:327   */\n  swap2\n  swap1\n  pop\n  jump\t// out\n    /* \"#utility.yul\":333:513   */\ntag_21:\n    /* \"#utility.yul\":381:458   */\n  0x4e487b7100000000000000000000000000000000000000000000000000000000\n    /* \"#utility.yul\":378:379   */\n  0x00\n    /* \"#utility.yul\":371:459   */\n  mstore\n    /* \"#utility.yul\":478:482   */\n  0x22\n    /* \"#utility.yul\":475:476   */\n  0x04\n    /* \"#utility.yul\":468:483   */\n  mstore\n    /* \"#utility.yul\":502:506   */\n  0x24\n    /* \"#utility.yul\":499:500   */\n  0x00\n    /* \"#utility.yul\":492:507   */\n  revert\n    /* \"contracts/demo1.sol\":32:506  contract Demo1{\r... */\ntag_4:\n  dataSize(sub_0)\n  dup1\n  dataOffset(sub_0)\n  0x00\n  codecopy\n  0x00\n  return\nstop\n\nsub_0: assembly {\n        /* \"contracts/demo1.sol\":32:506  contract Demo1{\r... */\n      mstore(0x40, 0x80)\n      callvalue\n      dup1\n      iszero\n      tag_1\n      jumpi\n      0x00\n      dup1\n      revert\n    tag_1:\n      pop\n      jumpi(tag_2, lt(calldatasize, 0x04))\n      shr(0xe0, calldataload(0x00))\n      dup1\n      0x06fdde03\n      eq\n      tag_3\n      jumpi\n      dup1\n      0x29dcb0cf\n      eq\n      tag_4\n      jumpi\n      dup1\n      0x47c8efa7\n      eq\n      tag_5\n      jumpi\n      dup1\n      0x4b67f6af\n      eq\n      tag_6\n      jumpi\n      dup1\n      0x5777e93d\n      eq\n      tag_7\n      jumpi\n    tag_2:\n      0x00\n      dup1\n      revert\n        /* \"contracts/demo1.sol\":53:85  bytes public name = \"LE HONG VO\" */\n    tag_3:\n      tag_8\n      tag_9\n      jump\t// in\n    tag_8:\n      mload(0x40)\n      tag_10\n      swap2\n      swap1\n      tag_11\n      jump\t// in\n    tag_10:\n      mload(0x40)\n      dup1\n      swap2\n      sub\n      swap1\n      return\n        /* \"contracts/demo1.sol\":279:312  uint public deadline = 1648899357 */\n    tag_4:\n      tag_12\n      tag_13\n      jump\t// in\n    tag_12:\n      mload(0x40)\n      tag_14\n      swap2\n      swap1\n      tag_15\n      jump\t// in\n    tag_14:\n      mload(0x40)\n      dup1\n      swap2\n      sub\n      swap1\n      return\n        /* \"contracts/demo1.sol\":92:129  bytes32 public name1 = \"NGUYEN VAN A\" */\n    tag_5:\n      tag_16\n      tag_17\n      jump\t// in\n    tag_16:\n      mload(0x40)\n      tag_18\n      swap2\n      swap1\n      tag_19\n      jump\t// in\n    tag_18:\n      mload(0x40)\n      dup1\n      swap2\n      sub\n      swap1\n      return\n        /* \"contracts/demo1.sol\":136:171  bytes32 public name2 = \"TRAN THI B\" */\n    tag_6:\n      tag_20\n      tag_21\n      jump\t// in\n    tag_20:\n      mload(0x40)\n      tag_22\n      swap2\n      swap1\n      tag_19\n      jump\t// in\n    tag_22:\n      mload(0x40)\n      dup1\n      swap2\n      sub\n      swap1\n      return\n        /* \"contracts/demo1.sol\":327:503  function permit() public view returns(bool){\r... */\n    tag_7:\n      tag_23\n      tag_24\n      jump\t// in\n    tag_23:\n      mload(0x40)\n      tag_25\n      swap2\n      swap1\n      tag_26\n      jump\t// in\n    tag_25:\n      mload(0x40)\n      dup1\n      swap2\n      sub\n      swap1\n      return\n        /* \"contracts/demo1.sol\":53:85  bytes public name = \"LE HONG VO\" */\n    tag_9:\n      0x00\n      dup1\n      sload\n      tag_27\n      swap1\n      tag_28\n      jump\t// in\n    tag_27:\n      dup1\n      0x1f\n      add\n      0x20\n      dup1\n      swap2\n      div\n      mul\n      0x20\n      add\n      mload(0x40)\n      swap1\n      dup2\n      add\n      0x40\n      mstore\n      dup1\n      swap3\n      swap2\n      swap1\n      dup2\n      dup2\n      mstore\n      0x20\n      add\n      dup3\n      dup1\n      sload\n      tag_29\n      swap1\n      tag_28\n      jump\t// in\n    tag_29:\n      dup1\n      iszero\n      tag_30\n      jumpi\n      dup1\n      0x1f\n      lt\n      tag_31\n      jumpi\n      0x0100\n      dup1\n      dup4\n      sload\n      div\n      mul\n      dup4\n      mstore\n      swap2\n      0x20\n      add\n      swap2\n      jump(tag_30)\n    tag_31:\n      dup3\n      add\n      swap2\n      swap1\n      0x00\n      mstore\n      keccak256(0x00, 0x20)\n      swap1\n    tag_32:\n      dup2\n      sload\n      dup2\n      mstore\n      swap1\n      0x01\n      add\n      swap1\n      0x20\n      add\n      dup1\n      dup4\n      gt\n      tag_32\n      jumpi\n      dup3\n      swap1\n      sub\n      0x1f\n      and\n      dup3\n      add\n      swap2\n    tag_30:\n      pop\n      pop\n      pop\n      pop\n      pop\n      dup2\n      jump\t// out\n        /* \"contracts/demo1.sol\":279:312  uint public deadline = 1648899357 */\n    tag_13:\n      sload(0x03)\n      dup2\n      jump\t// out\n        /* \"contracts/demo1.sol\":92:129  bytes32 public name1 = \"NGUYEN VAN A\" */\n    tag_17:\n      sload(0x01)\n      dup2\n      jump\t// out\n        /* \"contracts/demo1.sol\":136:171  bytes32 public name2 = \"TRAN THI B\" */\n    tag_21:\n      sload(0x02)\n      dup2\n      jump\t// out\n        /* \"contracts/demo1.sol\":327:503  function permit() public view returns(bool){\r... */\n    tag_24:\n        /* \"contracts/demo1.sol\":365:369  bool */\n      0x00\n        /* \"contracts/demo1.sol\":404:412  deadline */\n      sload(0x03)\n        /* \"contracts/demo1.sol\":385:400  block.timestamp */\n      timestamp\n        /* \"contracts/demo1.sol\":385:412  block.timestamp <= deadline */\n      gt\n        /* \"contracts/demo1.sol\":381:494  if (block.timestamp <= deadline){\r... */\n      tag_34\n      jumpi\n        /* \"contracts/demo1.sol\":435:439  true */\n      0x01\n        /* \"contracts/demo1.sol\":428:439  return true */\n      swap1\n      pop\n      jump(tag_33)\n        /* \"contracts/demo1.sol\":381:494  if (block.timestamp <= deadline){\r... */\n    tag_34:\n        /* \"contracts/demo1.sol\":477:482  false */\n      0x00\n        /* \"contracts/demo1.sol\":470:482  return false */\n      swap1\n      pop\n        /* \"contracts/demo1.sol\":327:503  function permit() public view returns(bool){\r... */\n    tag_33:\n      swap1\n      jump\t// out\n        /* \"#utility.yul\":7:116   */\n    tag_37:\n        /* \"#utility.yul\":88:109   */\n      tag_39\n        /* \"#utility.yul\":103:108   */\n      dup2\n        /* \"#utility.yul\":88:109   */\n      tag_40\n      jump\t// in\n    tag_39:\n        /* \"#utility.yul\":83:86   */\n      dup3\n        /* \"#utility.yul\":76:110   */\n      mstore\n        /* \"#utility.yul\":7:116   */\n      pop\n      pop\n      jump\t// out\n        /* \"#utility.yul\":122:240   */\n    tag_41:\n        /* \"#utility.yul\":209:233   */\n      tag_43\n        /* \"#utility.yul\":227:232   */\n      dup2\n        /* \"#utility.yul\":209:233   */\n      tag_44\n      jump\t// in\n    tag_43:\n        /* \"#utility.yul\":204:207   */\n      dup3\n        /* \"#utility.yul\":197:234   */\n      mstore\n        /* \"#utility.yul\":122:240   */\n      pop\n      pop\n      jump\t// out\n        /* \"#utility.yul\":246:606   */\n    tag_45:\n        /* \"#utility.yul\":332:335   */\n      0x00\n        /* \"#utility.yul\":360:398   */\n      tag_47\n        /* \"#utility.yul\":392:397   */\n      dup3\n        /* \"#utility.yul\":360:398   */\n      tag_48\n      jump\t// in\n    tag_47:\n        /* \"#utility.yul\":414:484   */\n      tag_49\n        /* \"#utility.yul\":477:483   */\n      dup2\n        /* \"#utility.yul\":472:475   */\n      dup6\n        /* \"#utility.yul\":414:484   */\n      tag_50\n      jump\t// in\n    tag_49:\n        /* \"#utility.yul\":407:484   */\n      swap4\n      pop\n        /* \"#utility.yul\":493:545   */\n      tag_51\n        /* \"#utility.yul\":538:544   */\n      dup2\n        /* \"#utility.yul\":533:536   */\n      dup6\n        /* \"#utility.yul\":526:530   */\n      0x20\n        /* \"#utility.yul\":519:524   */\n      dup7\n        /* \"#utility.yul\":515:531   */\n      add\n        /* \"#utility.yul\":493:545   */\n      tag_52\n      jump\t// in\n    tag_51:\n        /* \"#utility.yul\":570:599   */\n      tag_53\n        /* \"#utility.yul\":592:598   */\n      dup2\n        /* \"#utility.yul\":570:599   */\n      tag_54\n      jump\t// in\n    tag_53:\n        /* \"#utility.yul\":565:568   */\n      dup5\n        /* \"#utility.yul\":561:600   */\n      add\n        /* \"#utility.yul\":554:600   */\n      swap2\n      pop\n        /* \"#utility.yul\":336:606   */\n      pop\n        /* \"#utility.yul\":246:606   */\n      swap3\n      swap2\n      pop\n      pop\n      jump\t// out\n        /* \"#utility.yul\":612:730   */\n    tag_55:\n        /* \"#utility.yul\":699:723   */\n      tag_57\n        /* \"#utility.yul\":717:722   */\n      dup2\n        /* \"#utility.yul\":699:723   */\n      tag_58\n      jump\t// in\n    tag_57:\n        /* \"#utility.yul\":694:697   */\n      dup3\n        /* \"#utility.yul\":687:724   */\n      mstore\n        /* \"#utility.yul\":612:730   */\n      pop\n      pop\n      jump\t// out\n        /* \"#utility.yul\":736:946   */\n    tag_26:\n        /* \"#utility.yul\":823:827   */\n      0x00\n        /* \"#utility.yul\":861:863   */\n      0x20\n        /* \"#utility.yul\":850:859   */\n      dup3\n        /* \"#utility.yul\":846:864   */\n      add\n        /* \"#utility.yul\":838:864   */\n      swap1\n      pop\n        /* \"#utility.yul\":874:939   */\n      tag_60\n        /* \"#utility.yul\":936:937   */\n      0x00\n        /* \"#utility.yul\":925:934   */\n      dup4\n        /* \"#utility.yul\":921:938   */\n      add\n        /* \"#utility.yul\":912:918   */\n      dup5\n        /* \"#utility.yul\":874:939   */\n      tag_37\n      jump\t// in\n    tag_60:\n        /* \"#utility.yul\":736:946   */\n      swap3\n      swap2\n      pop\n      pop\n      jump\t// out\n        /* \"#utility.yul\":952:1174   */\n    tag_19:\n        /* \"#utility.yul\":1045:1049   */\n      0x00\n        /* \"#utility.yul\":1083:1085   */\n      0x20\n        /* \"#utility.yul\":1072:1081   */\n      dup3\n        /* \"#utility.yul\":1068:1086   */\n      add\n        /* \"#utility.yul\":1060:1086   */\n      swap1\n      pop\n        /* \"#utility.yul\":1096:1167   */\n      tag_62\n        /* \"#utility.yul\":1164:1165   */\n      0x00\n        /* \"#utility.yul\":1153:1162   */\n      dup4\n        /* \"#utility.yul\":1149:1166   */\n      add\n        /* \"#utility.yul\":1140:1146   */\n      dup5\n        /* \"#utility.yul\":1096:1167   */\n      tag_41\n      jump\t// in\n    tag_62:\n        /* \"#utility.yul\":952:1174   */\n      swap3\n      swap2\n      pop\n      pop\n      jump\t// out\n        /* \"#utility.yul\":1180:1489   */\n    tag_11:\n        /* \"#utility.yul\":1291:1295   */\n      0x00\n        /* \"#utility.yul\":1329:1331   */\n      0x20\n        /* \"#utility.yul\":1318:1327   */\n      dup3\n        /* \"#utility.yul\":1314:1332   */\n      add\n        /* \"#utility.yul\":1306:1332   */\n      swap1\n      pop\n        /* \"#utility.yul\":1378:1387   */\n      dup2\n        /* \"#utility.yul\":1372:1376   */\n      dup2\n        /* \"#utility.yul\":1368:1388   */\n      sub\n        /* \"#utility.yul\":1364:1365   */\n      0x00\n        /* \"#utility.yul\":1353:1362   */\n      dup4\n        /* \"#utility.yul\":1349:1366   */\n      add\n        /* \"#utility.yul\":1342:1389   */\n      mstore\n        /* \"#utility.yul\":1406:1482   */\n      tag_64\n        /* \"#utility.yul\":1477:1481   */\n      dup2\n        /* \"#utility.yul\":1468:1474   */\n      dup5\n        /* \"#utility.yul\":1406:1482   */\n      tag_45\n      jump\t// in\n    tag_64:\n        /* \"#utility.yul\":1398:1482   */\n      swap1\n      pop\n        /* \"#utility.yul\":1180:1489   */\n      swap3\n      swap2\n      pop\n      pop\n      jump\t// out\n        /* \"#utility.yul\":1495:1717   */\n    tag_15:\n        /* \"#utility.yul\":1588:1592   */\n      0x00\n        /* \"#utility.yul\":1626:1628   */\n      0x20\n        /* \"#utility.yul\":1615:1624   */\n      dup3\n        /* \"#utility.yul\":1611:1629   */\n      add\n        /* \"#utility.yul\":1603:1629   */\n      swap1\n      pop\n        /* \"#utility.yul\":1639:1710   */\n      tag_66\n        /* \"#utility.yul\":1707:1708   */\n      0x00\n        /* \"#utility.yul\":1696:1705   */\n      dup4\n        /* \"#utility.yul\":1692:1709   */\n      add\n        /* \"#utility.yul\":1683:1689   */\n      dup5\n        /* \"#utility.yul\":1639:1710   */\n      tag_55\n      jump\t// in\n    tag_66:\n        /* \"#utility.yul\":1495:1717   */\n      swap3\n      swap2\n      pop\n      pop\n      jump\t// out\n        /* \"#utility.yul\":1723:1821   */\n    tag_48:\n        /* \"#utility.yul\":1774:1780   */\n      0x00\n        /* \"#utility.yul\":1808:1813   */\n      dup2\n        /* \"#utility.yul\":1802:1814   */\n      mload\n        /* \"#utility.yul\":1792:1814   */\n      swap1\n      pop\n        /* \"#utility.yul\":1723:1821   */\n      swap2\n      swap1\n      pop\n      jump\t// out\n        /* \"#utility.yul\":1827:1995   */\n    tag_50:\n        /* \"#utility.yul\":1910:1921   */\n      0x00\n        /* \"#utility.yul\":1944:1950   */\n      dup3\n        /* \"#utility.yul\":1939:1942   */\n      dup3\n        /* \"#utility.yul\":1932:1951   */\n      mstore\n        /* \"#utility.yul\":1984:1988   */\n      0x20\n        /* \"#utility.yul\":1979:1982   */\n      dup3\n        /* \"#utility.yul\":1975:1989   */\n      add\n        /* \"#utility.yul\":1960:1989   */\n      swap1\n      pop\n        /* \"#utility.yul\":1827:1995   */\n      swap3\n      swap2\n      pop\n      pop\n      jump\t// out\n        /* \"#utility.yul\":2001:2091   */\n    tag_40:\n        /* \"#utility.yul\":2035:2042   */\n      0x00\n        /* \"#utility.yul\":2078:2083   */\n      dup2\n        /* \"#utility.yul\":2071:2084   */\n      iszero\n        /* \"#utility.yul\":2064:2085   */\n      iszero\n        /* \"#utility.yul\":2053:2085   */\n      swap1\n      pop\n        /* \"#utility.yul\":2001:2091   */\n      swap2\n      swap1\n      pop\n      jump\t// out\n        /* \"#utility.yul\":2097:2174   */\n    tag_44:\n        /* \"#utility.yul\":2134:2141   */\n      0x00\n        /* \"#utility.yul\":2163:2168   */\n      dup2\n        /* \"#utility.yul\":2152:2168   */\n      swap1\n      pop\n        /* \"#utility.yul\":2097:2174   */\n      swap2\n      swap1\n      pop\n      jump\t// out\n        /* \"#utility.yul\":2180:2257   */\n    tag_58:\n        /* \"#utility.yul\":2217:2224   */\n      0x00\n        /* \"#utility.yul\":2246:2251   */\n      dup2\n        /* \"#utility.yul\":2235:2251   */\n      swap1\n      pop\n        /* \"#utility.yul\":2180:2257   */\n      swap2\n      swap1\n      pop\n      jump\t// out\n        /* \"#utility.yul\":2263:2570   */\n    tag_52:\n        /* \"#utility.yul\":2331:2332   */\n      0x00\n        /* \"#utility.yul\":2341:2454   */\n    tag_73:\n        /* \"#utility.yul\":2355:2361   */\n      dup4\n        /* \"#utility.yul\":2352:2353   */\n      dup2\n        /* \"#utility.yul\":2349:2362   */\n      lt\n        /* \"#utility.yul\":2341:2454   */\n      iszero\n      tag_75\n      jumpi\n        /* \"#utility.yul\":2440:2441   */\n      dup1\n        /* \"#utility.yul\":2435:2438   */\n      dup3\n        /* \"#utility.yul\":2431:2442   */\n      add\n        /* \"#utility.yul\":2425:2443   */\n      mload\n        /* \"#utility.yul\":2421:2422   */\n      dup2\n        /* \"#utility.yul\":2416:2419   */\n      dup5\n        /* \"#utility.yul\":2412:2423   */\n      add\n        /* \"#utility.yul\":2405:2444   */\n      mstore\n        /* \"#utility.yul\":2377:2379   */\n      0x20\n        /* \"#utility.yul\":2374:2375   */\n      dup2\n        /* \"#utility.yul\":2370:2380   */\n      add\n        /* \"#utility.yul\":2365:2380   */\n      swap1\n      pop\n        /* \"#utility.yul\":2341:2454   */\n      jump(tag_73)\n    tag_75:\n        /* \"#utility.yul\":2472:2478   */\n      dup4\n        /* \"#utility.yul\":2469:2470   */\n      dup2\n        /* \"#utility.yul\":2466:2479   */\n      gt\n        /* \"#utility.yul\":2463:2564   */\n      iszero\n      tag_76\n      jumpi\n        /* \"#utility.yul\":2552:2553   */\n      0x00\n        /* \"#utility.yul\":2543:2549   */\n      dup5\n        /* \"#utility.yul\":2538:2541   */\n      dup5\n        /* \"#utility.yul\":2534:2550   */\n      add\n        /* \"#utility.yul\":2527:2554   */\n      mstore\n        /* \"#utility.yul\":2463:2564   */\n    tag_76:\n        /* \"#utility.yul\":2312:2570   */\n      pop\n        /* \"#utility.yul\":2263:2570   */\n      pop\n      pop\n      pop\n      jump\t// out\n        /* \"#utility.yul\":2576:2896   */\n    tag_28:\n        /* \"#utility.yul\":2620:2626   */\n      0x00\n        /* \"#utility.yul\":2657:2658   */\n      0x02\n        /* \"#utility.yul\":2651:2655   */\n      dup3\n        /* \"#utility.yul\":2647:2659   */\n      div\n        /* \"#utility.yul\":2637:2659   */\n      swap1\n      pop\n        /* \"#utility.yul\":2704:2705   */\n      0x01\n        /* \"#utility.yul\":2698:2702   */\n      dup3\n        /* \"#utility.yul\":2694:2706   */\n      and\n        /* \"#utility.yul\":2725:2743   */\n      dup1\n        /* \"#utility.yul\":2715:2796   */\n      tag_78\n      jumpi\n        /* \"#utility.yul\":2781:2785   */\n      0x7f\n        /* \"#utility.yul\":2773:2779   */\n      dup3\n        /* \"#utility.yul\":2769:2786   */\n      and\n        /* \"#utility.yul\":2759:2786   */\n      swap2\n      pop\n        /* \"#utility.yul\":2715:2796   */\n    tag_78:\n        /* \"#utility.yul\":2843:2845   */\n      0x20\n        /* \"#utility.yul\":2835:2841   */\n      dup3\n        /* \"#utility.yul\":2832:2846   */\n      lt\n        /* \"#utility.yul\":2812:2830   */\n      dup2\n        /* \"#utility.yul\":2809:2847   */\n      eq\n        /* \"#utility.yul\":2806:2890   */\n      iszero\n      tag_79\n      jumpi\n        /* \"#utility.yul\":2862:2880   */\n      tag_80\n      tag_81\n      jump\t// in\n    tag_80:\n        /* \"#utility.yul\":2806:2890   */\n    tag_79:\n        /* \"#utility.yul\":2627:2896   */\n      pop\n        /* \"#utility.yul\":2576:2896   */\n      swap2\n      swap1\n      pop\n      jump\t// out\n        /* \"#utility.yul\":2902:3082   */\n    tag_81:\n        /* \"#utility.yul\":2950:3027   */\n      0x4e487b7100000000000000000000000000000000000000000000000000000000\n        /* \"#utility.yul\":2947:2948   */\n      0x00\n        /* \"#utility.yul\":2940:3028   */\n      mstore\n        /* \"#utility.yul\":3047:3051   */\n      0x22\n        /* \"#utility.yul\":3044:3045   */\n      0x04\n        /* \"#utility.yul\":3037:3052   */\n      mstore\n        /* \"#utility.yul\":3071:3075   */\n      0x24\n        /* \"#utility.yul\":3068:3069   */\n      0x00\n        /* \"#utility.yul\":3061:3076   */\n      revert\n        /* \"#utility.yul\":3088:3190   */\n    tag_54:\n        /* \"#utility.yul\":3129:3135   */\n      0x00\n        /* \"#utility.yul\":3180:3182   */\n      0x1f\n        /* \"#utility.yul\":3176:3183   */\n      not\n        /* \"#utility.yul\":3171:3173   */\n      0x1f\n        /* \"#utility.yul\":3164:3169   */\n      dup4\n        /* \"#utility.yul\":3160:3174   */\n      add\n        /* \"#utility.yul\":3156:3184   */\n      and\n        /* \"#utility.yul\":3146:3184   */\n      swap1\n      pop\n        /* \"#utility.yul\":3088:3190   */\n      swap2\n      swap1\n      pop\n      jump\t// out\n\n    auxdata: 0xa26469706673582212206e1aa001200cb8e9c8b51d04add94963015cab9226b6cb16adf5bccec71f939764736f6c63430008070033\n}\n",
				"bytecode": {
					"linkReferences": {},
					"object": "60806040526040518060400160405280600a81526020017f4c4520484f4e4720564f000000000000000000000000000000000000000000008152506000908051906020019061004f9291906100b2565b507f4e475559454e2056414e204100000000000000000000000000000000000000006001557f5452414e20544849204200000000000000000000000000000000000000000000600255636248351d6003553480156100ac57600080fd5b506101b6565b8280546100be90610155565b90600052602060002090601f0160209004810192826100e05760008555610127565b82601f106100f957805160ff1916838001178555610127565b82800160010185558215610127579182015b8281111561012657825182559160200191906001019061010b565b5b5090506101349190610138565b5090565b5b80821115610151576000816000905550600101610139565b5090565b6000600282049050600182168061016d57607f821691505b6020821081141561018157610180610187565b5b50919050565b7f4e487b7100000000000000000000000000000000000000000000000000000000600052602260045260246000fd5b61039e806101c56000396000f3fe608060405234801561001057600080fd5b50600436106100575760003560e01c806306fdde031461005c57806329dcb0cf1461007a57806347c8efa7146100985780634b67f6af146100b65780635777e93d146100d4575b600080fd5b6100646100f2565b604051610071919061024a565b60405180910390f35b610082610180565b60405161008f919061026c565b60405180910390f35b6100a0610186565b6040516100ad919061022f565b60405180910390f35b6100be61018c565b6040516100cb919061022f565b60405180910390f35b6100dc610192565b6040516100e99190610214565b60405180910390f35b600080546100ff906102f6565b80601f016020809104026020016040519081016040528092919081815260200182805461012b906102f6565b80156101785780601f1061014d57610100808354040283529160200191610178565b820191906000526020600020905b81548152906001019060200180831161015b57829003601f168201915b505050505081565b60035481565b60015481565b60025481565b600060035442116101a657600190506101ab565b600090505b90565b6101b7816102a3565b82525050565b6101c6816102af565b82525050565b60006101d782610287565b6101e18185610292565b93506101f18185602086016102c3565b6101fa81610357565b840191505092915050565b61020e816102b9565b82525050565b600060208201905061022960008301846101ae565b92915050565b600060208201905061024460008301846101bd565b92915050565b6000602082019050818103600083015261026481846101cc565b905092915050565b60006020820190506102816000830184610205565b92915050565b600081519050919050565b600082825260208201905092915050565b60008115159050919050565b6000819050919050565b6000819050919050565b60005b838110156102e15780820151818401526020810190506102c6565b838111156102f0576000848401525b50505050565b6000600282049050600182168061030e57607f821691505b6020821081141561032257610321610328565b5b50919050565b7f4e487b7100000000000000000000000000000000000000000000000000000000600052602260045260246000fd5b6000601f19601f830116905091905056fea26469706673582212206e1aa001200cb8e9c8b51d04add94963015cab9226b6cb16adf5bccec71f939764736f6c63430008070033",
					"opcodes": "PUSH1 0x80 PUSH1 0x40 MSTORE PUSH1 0x40 MLOAD DUP1 PUSH1 0x40 ADD PUSH1 0x40 MSTORE DUP1 PUSH1 0xA DUP2 MSTORE PUSH1 0x20 ADD PUSH32 0x4C4520484F4E4720564F00000000000000000000000000000000000000000000 DUP2 MSTORE POP PUSH1 0x0 SWAP1 DUP1 MLOAD SWAP1 PUSH1 0x20 ADD SWAP1 PUSH2 0x4F SWAP3 SWAP2 SWAP1 PUSH2 0xB2 JUMP JUMPDEST POP PUSH32 0x4E475559454E2056414E20410000000000000000000000000000000000000000 PUSH1 0x1 SSTORE PUSH32 0x5452414E20544849204200000000000000000000000000000000000000000000 PUSH1 0x2 SSTORE PUSH4 0x6248351D PUSH1 0x3 SSTORE CALLVALUE DUP1 ISZERO PUSH2 0xAC JUMPI PUSH1 0x0 DUP1 REVERT JUMPDEST POP PUSH2 0x1B6 JUMP JUMPDEST DUP3 DUP1 SLOAD PUSH2 0xBE SWAP1 PUSH2 0x155 JUMP JUMPDEST SWAP1 PUSH1 0x0 MSTORE PUSH1 0x20 PUSH1 0x0 KECCAK256 SWAP1 PUSH1 0x1F ADD PUSH1 0x20 SWAP1 DIV DUP2 ADD SWAP3 DUP3 PUSH2 0xE0 JUMPI PUSH1 0x0 DUP6 SSTORE PUSH2 0x127 JUMP JUMPDEST DUP3 PUSH1 0x1F LT PUSH2 0xF9 JUMPI DUP1 MLOAD PUSH1 0xFF NOT AND DUP4 DUP1 ADD OR DUP6 SSTORE PUSH2 0x127 JUMP JUMPDEST DUP3 DUP1 ADD PUSH1 0x1 ADD DUP6 SSTORE DUP3 ISZERO PUSH2 0x127 JUMPI SWAP2 DUP3 ADD JUMPDEST DUP3 DUP2 GT ISZERO PUSH2 0x126 JUMPI DUP3 MLOAD DUP3 SSTORE SWAP2 PUSH1 0x20 ADD SWAP2 SWAP1 PUSH1 0x1 ADD SWAP1 PUSH2 0x10B JUMP JUMPDEST JUMPDEST POP SWAP1 POP PUSH2 0x134 SWAP2 SWAP1 PUSH2 0x138 JUMP JUMPDEST POP SWAP1 JUMP JUMPDEST JUMPDEST DUP1 DUP3 GT ISZERO PUSH2 0x151 JUMPI PUSH1 0x0 DUP2 PUSH1 0x0 SWAP1 SSTORE POP PUSH1 0x1 ADD PUSH2 0x139 JUMP JUMPDEST POP SWAP1 JUMP JUMPDEST PUSH1 0x0 PUSH1 0x2 DUP3 DIV SWAP1 POP PUSH1 0x1 DUP3 AND DUP1 PUSH2 0x16D JUMPI PUSH1 0x7F DUP3 AND SWAP2 POP JUMPDEST PUSH1 0x20 DUP3 LT DUP2 EQ ISZERO PUSH2 0x181 JUMPI PUSH2 0x180 PUSH2 0x187 JUMP JUMPDEST JUMPDEST POP SWAP2 SWAP1 POP JUMP JUMPDEST PUSH32 0x4E487B7100000000000000000000000000000000000000000000000000000000 PUSH1 0x0 MSTORE PUSH1 0x22 PUSH1 0x4 MSTORE PUSH1 0x24 PUSH1 0x0 REVERT JUMPDEST PUSH2 0x39E DUP1 PUSH2 0x1C5 PUSH1 0x0 CODECOPY PUSH1 0x0 RETURN INVALID PUSH1 0x80 PUSH1 0x40 MSTORE CALLVALUE DUP1 ISZERO PUSH2 0x10 JUMPI PUSH1 0x0 DUP1 REVERT JUMPDEST POP PUSH1 0x4 CALLDATASIZE LT PUSH2 0x57 JUMPI PUSH1 0x0 CALLDATALOAD PUSH1 0xE0 SHR DUP1 PUSH4 0x6FDDE03 EQ PUSH2 0x5C JUMPI DUP1 PUSH4 0x29DCB0CF EQ PUSH2 0x7A JUMPI DUP1 PUSH4 0x47C8EFA7 EQ PUSH2 0x98 JUMPI DUP1 PUSH4 0x4B67F6AF EQ PUSH2 0xB6 JUMPI DUP1 PUSH4 0x5777E93D EQ PUSH2 0xD4 JUMPI JUMPDEST PUSH1 0x0 DUP1 REVERT JUMPDEST PUSH2 0x64 PUSH2 0xF2 JUMP JUMPDEST PUSH1 0x40 MLOAD PUSH2 0x71 SWAP2 SWAP1 PUSH2 0x24A JUMP JUMPDEST PUSH1 0x40 MLOAD DUP1 SWAP2 SUB SWAP1 RETURN JUMPDEST PUSH2 0x82 PUSH2 0x180 JUMP JUMPDEST PUSH1 0x40 MLOAD PUSH2 0x8F SWAP2 SWAP1 PUSH2 0x26C JUMP JUMPDEST PUSH1 0x40 MLOAD DUP1 SWAP2 SUB SWAP1 RETURN JUMPDEST PUSH2 0xA0 PUSH2 0x186 JUMP JUMPDEST PUSH1 0x40 MLOAD PUSH2 0xAD SWAP2 SWAP1 PUSH2 0x22F JUMP JUMPDEST PUSH1 0x40 MLOAD DUP1 SWAP2 SUB SWAP1 RETURN JUMPDEST PUSH2 0xBE PUSH2 0x18C JUMP JUMPDEST PUSH1 0x40 MLOAD PUSH2 0xCB SWAP2 SWAP1 PUSH2 0x22F JUMP JUMPDEST PUSH1 0x40 MLOAD DUP1 SWAP2 SUB SWAP1 RETURN JUMPDEST PUSH2 0xDC PUSH2 0x192 JUMP JUMPDEST PUSH1 0x40 MLOAD PUSH2 0xE9 SWAP2 SWAP1 PUSH2 0x214 JUMP JUMPDEST PUSH1 0x40 MLOAD DUP1 SWAP2 SUB SWAP1 RETURN JUMPDEST PUSH1 0x0 DUP1 SLOAD PUSH2 0xFF SWAP1 PUSH2 0x2F6 JUMP JUMPDEST DUP1 PUSH1 0x1F ADD PUSH1 0x20 DUP1 SWAP2 DIV MUL PUSH1 0x20 ADD PUSH1 0x40 MLOAD SWAP1 DUP2 ADD PUSH1 0x40 MSTORE DUP1 SWAP3 SWAP2 SWAP1 DUP2 DUP2 MSTORE PUSH1 0x20 ADD DUP3 DUP1 SLOAD PUSH2 0x12B SWAP1 PUSH2 0x2F6 JUMP JUMPDEST DUP1 ISZERO PUSH2 0x178 JUMPI DUP1 PUSH1 0x1F LT PUSH2 0x14D JUMPI PUSH2 0x100 DUP1 DUP4 SLOAD DIV MUL DUP4 MSTORE SWAP2 PUSH1 0x20 ADD SWAP2 PUSH2 0x178 JUMP JUMPDEST DUP3 ADD SWAP2 SWAP1 PUSH1 0x0 MSTORE PUSH1 0x20 PUSH1 0x0 KECCAK256 SWAP1 JUMPDEST DUP2 SLOAD DUP2 MSTORE SWAP1 PUSH1 0x1 ADD SWAP1 PUSH1 0x20 ADD DUP1 DUP4 GT PUSH2 0x15B JUMPI DUP3 SWAP1 SUB PUSH1 0x1F AND DUP3 ADD SWAP2 JUMPDEST POP POP POP POP POP DUP2 JUMP JUMPDEST PUSH1 0x3 SLOAD DUP2 JUMP JUMPDEST PUSH1 0x1 SLOAD DUP2 JUMP JUMPDEST PUSH1 0x2 SLOAD DUP2 JUMP JUMPDEST PUSH1 0x0 PUSH1 0x3 SLOAD TIMESTAMP GT PUSH2 0x1A6 JUMPI PUSH1 0x1 SWAP1 POP PUSH2 0x1AB JUMP JUMPDEST PUSH1 0x0 SWAP1 POP JUMPDEST SWAP1 JUMP JUMPDEST PUSH2 0x1B7 DUP2 PUSH2 0x2A3 JUMP JUMPDEST DUP3 MSTORE POP POP JUMP JUMPDEST PUSH2 0x1C6 DUP2 PUSH2 0x2AF JUMP JUMPDEST DUP3 MSTORE POP POP JUMP JUMPDEST PUSH1 0x0 PUSH2 0x1D7 DUP3 PUSH2 0x287 JUMP JUMPDEST PUSH2 0x1E1 DUP2 DUP6 PUSH2 0x292 JUMP JUMPDEST SWAP4 POP PUSH2 0x1F1 DUP2 DUP6 PUSH1 0x20 DUP7 ADD PUSH2 0x2C3 JUMP JUMPDEST PUSH2 0x1FA DUP2 PUSH2 0x357 JUMP JUMPDEST DUP5 ADD SWAP2 POP POP SWAP3 SWAP2 POP POP JUMP JUMPDEST PUSH2 0x20E DUP2 PUSH2 0x2B9 JUMP JUMPDEST DUP3 MSTORE POP POP JUMP JUMPDEST PUSH1 0x0 PUSH1 0x20 DUP3 ADD SWAP1 POP PUSH2 0x229 PUSH1 0x0 DUP4 ADD DUP5 PUSH2 0x1AE JUMP JUMPDEST SWAP3 SWAP2 POP POP JUMP JUMPDEST PUSH1 0x0 PUSH1 0x20 DUP3 ADD SWAP1 POP PUSH2 0x244 PUSH1 0x0 DUP4 ADD DUP5 PUSH2 0x1BD JUMP JUMPDEST SWAP3 SWAP2 POP POP JUMP JUMPDEST PUSH1 0x0 PUSH1 0x20 DUP3 ADD SWAP1 POP DUP2 DUP2 SUB PUSH1 0x0 DUP4 ADD MSTORE PUSH2 0x264 DUP2 DUP5 PUSH2 0x1CC JUMP JUMPDEST SWAP1 POP SWAP3 SWAP2 POP POP JUMP JUMPDEST PUSH1 0x0 PUSH1 0x20 DUP3 ADD SWAP1 POP PUSH2 0x281 PUSH1 0x0 DUP4 ADD DUP5 PUSH2 0x205 JUMP JUMPDEST SWAP3 SWAP2 POP POP JUMP JUMPDEST PUSH1 0x0 DUP2 MLOAD SWAP1 POP SWAP2 SWAP1 POP JUMP JUMPDEST PUSH1 0x0 DUP3 DUP3 MSTORE PUSH1 0x20 DUP3 ADD SWAP1 POP SWAP3 SWAP2 POP POP JUMP JUMPDEST PUSH1 0x0 DUP2 ISZERO ISZERO SWAP1 POP SWAP2 SWAP1 POP JUMP JUMPDEST PUSH1 0x0 DUP2 SWAP1 POP SWAP2 SWAP1 POP JUMP JUMPDEST PUSH1 0x0 DUP2 SWAP1 POP SWAP2 SWAP1 POP JUMP JUMPDEST PUSH1 0x0 JUMPDEST DUP4 DUP2 LT ISZERO PUSH2 0x2E1 JUMPI DUP1 DUP3 ADD MLOAD DUP2 DUP5 ADD MSTORE PUSH1 0x20 DUP2 ADD SWAP1 POP PUSH2 0x2C6 JUMP JUMPDEST DUP4 DUP2 GT ISZERO PUSH2 0x2F0 JUMPI PUSH1 0x0 DUP5 DUP5 ADD MSTORE JUMPDEST POP POP POP POP JUMP JUMPDEST PUSH1 0x0 PUSH1 0x2 DUP3 DIV SWAP1 POP PUSH1 0x1 DUP3 AND DUP1 PUSH2 0x30E JUMPI PUSH1 0x7F DUP3 AND SWAP2 POP JUMPDEST PUSH1 0x20 DUP3 LT DUP2 EQ ISZERO PUSH2 0x322 JUMPI PUSH2 0x321 PUSH2 0x328 JUMP JUMPDEST JUMPDEST POP SWAP2 SWAP1 POP JUMP JUMPDEST PUSH32 0x4E487B7100000000000000000000000000000000000000000000000000000000 PUSH1 0x0 MSTORE PUSH1 0x22 PUSH1 0x4 MSTORE PUSH1 0x24 PUSH1 0x0 REVERT JUMPDEST PUSH1 0x0 PUSH1 0x1F NOT PUSH1 0x1F DUP4 ADD AND SWAP1 POP SWAP2 SWAP1 POP JUMP INVALID LOG2 PUSH5 0x6970667358 0x22 SLT KECCAK256 PUSH15 0x1AA001200CB8E9C8B51D04ADD94963 ADD 0x5C 0xAB SWAP3 0x26 0xB6 0xCB AND 0xAD CREATE2 0xBC 0xCE 0xC7 0x1F SWAP4 SWAP8 PUSH5 0x736F6C6343 STOP ADDMOD SMOD STOP CALLER "
				},
				"gasEstimates": {
					"creation": {
						"codeDepositCost": "185200",
						"executionCost": "infinite",
						"totalCost": "infinite"
					},
					"external": {
						"deadline()": "2429",
						"name()": "infinite",
						"name1()": "2451",
						"name2()": "2473",
						"permit()": "2542"
					}
				},
				"methodIdentifiers": {
					"deadline()": "29dcb0cf",
					"name()": "06fdde03",
					"name1()": "47c8efa7",
					"name2()": "4b67f6af",
					"permit()": "5777e93d"
				}
			},
			"userdoc": {
				"kind": "user",
				"methods": {},
				"version": 1
			}
		}
	}
}