{
	"contracts/demo1.sol": {
		"Demo1": {
			"abi": [
				{
					"inputs": [],
					"name": "name",
					"outputs": [
						{
							"internalType": "bytes",
							"name": "",
							"type": "bytes"
						}
					],
					"stateMutability": "view",
					"type": "function"
				},
				{
					"inputs": [],
					"name": "name1",
					"outputs": [
						{
							"internalType": "bytes32",
							"name": "",
							"type": "bytes32"
						}
					],
					"stateMutability": "view",
					"type": "function"
				},
				{
					"inputs": [],
					"name": "name2",
					"outputs": [
						{
							"internalType": "bytes32",
							"name": "",
							"type": "bytes32"
						}
					],
					"stateMutability": "view",
					"type": "function"
				}
			],
			"devdoc": {
				"kind": "dev",
				"methods": {},
				"version": 1
			},
			"evm": {
				"assembly": "    /* \"contracts/demo1.sol\":32:175  contract Demo1{\r... */\n  mstore(0x40, 0x80)\n    /* \"contracts/demo1.sol\":53:85  bytes public name = \"LE HONG VO\" */\n  mload(0x40)\n  dup1\n  0x40\n  add\n  0x40\n  mstore\n  dup1\n  0x0a\n  dup2\n  mstore\n  0x20\n  add\n  0x4c4520484f4e4720564f00000000000000000000000000000000000000000000\n  dup2\n  mstore\n  pop\n  0x00\n  swap1\n  dup1\n  mload\n  swap1\n  0x20\n  add\n  swap1\n  tag_1\n  swap3\n  swap2\n  swap1\n  tag_2\n  jump\t// in\ntag_1:\n  pop\n    /* \"contracts/demo1.sol\":92:129  bytes32 public name1 = \"NGUYEN VAN A\" */\n  sstore(0x01, 0x4e475559454e2056414e20410000000000000000000000000000000000000000)\n    /* \"contracts/demo1.sol\":136:171  bytes32 public name2 = \"TRAN THI B\" */\n  sstore(0x02, 0x5452414e20544849204200000000000000000000000000000000000000000000)\n    /* \"contracts/demo1.sol\":32:175  contract Demo1{\r... */\n  callvalue\n  dup1\n  iszero\n  tag_3\n  jumpi\n  0x00\n  dup1\n  revert\ntag_3:\n  pop\n  jump(tag_4)\ntag_2:\n  dup3\n  dup1\n  sload\n  tag_5\n  swap1\n  tag_6\n  jump\t// in\ntag_5:\n  swap1\n  0x00\n  mstore\n  keccak256(0x00, 0x20)\n  swap1\n  0x1f\n  add\n  0x20\n  swap1\n  div\n  dup2\n  add\n  swap3\n  dup3\n  tag_8\n  jumpi\n  0x00\n  dup6\n  sstore\n  jump(tag_7)\ntag_8:\n  dup3\n  0x1f\n  lt\n  tag_9\n  jumpi\n  dup1\n  mload\n  not(0xff)\n  and\n  dup4\n  dup1\n  add\n  or\n  dup6\n  sstore\n  jump(tag_7)\ntag_9:\n  dup3\n  dup1\n  add\n  0x01\n  add\n  dup6\n  sstore\n  dup3\n  iszero\n  tag_7\n  jumpi\n  swap2\n  dup3\n  add\ntag_10:\n  dup3\n  dup2\n  gt\n  iszero\n  tag_11\n  jumpi\n  dup3\n  mload\n  dup3\n  sstore\n  swap2\n  0x20\n  add\n  swap2\n  swap1\n  0x01\n  add\n  swap1\n  jump(tag_10)\ntag_11:\ntag_7:\n  pop\n  swap1\n  pop\n  tag_12\n  swap2\n  swap1\n  tag_13\n  jump\t// in\ntag_12:\n  pop\n  swap1\n  jump\t// out\ntag_13:\ntag_14:\n  dup1\n  dup3\n  gt\n  iszero\n  tag_15\n  jumpi\n  0x00\n  dup2\n  0x00\n  swap1\n  sstore\n  pop\n  0x01\n  add\n  jump(tag_14)\ntag_15:\n  pop\n  swap1\n  jump\t// out\n    /* \"#utility.yul\":7:327   */\ntag_6:\n    /* \"#utility.yul\":51:57   */\n  0x00\n    /* \"#utility.yul\":88:89   */\n  0x02\n    /* \"#utility.yul\":82:86   */\n  dup3\n    /* \"#utility.yul\":78:90   */\n  div\n    /* \"#utility.yul\":68:90   */\n  swap1\n  pop\n    /* \"#utility.yul\":135:136   */\n  0x01\n    /* \"#utility.yul\":129:133   */\n  dup3\n    /* \"#utility.yul\":125:137   */\n  and\n    /* \"#utility.yul\":156:174   */\n  dup1\n    /* \"#utility.yul\":146:227   */\n  tag_18\n  jumpi\n    /* \"#utility.yul\":212:216   */\n  0x7f\n    /* \"#utility.yul\":204:210   */\n  dup3\n    /* \"#utility.yul\":200:217   */\n  and\n    /* \"#utility.yul\":190:217   */\n  swap2\n  pop\n    /* \"#utility.yul\":146:227   */\ntag_18:\n    /* \"#utility.yul\":274:276   */\n  0x20\n    /* \"#utility.yul\":266:272   */\n  dup3\n    /* \"#utility.yul\":263:277   */\n  lt\n    /* \"#utility.yul\":243:261   */\n  dup2\n    /* \"#utility.yul\":240:278   */\n  eq\n    /* \"#utility.yul\":237:321   */\n  iszero\n  tag_19\n  jumpi\n    /* \"#utility.yul\":293:311   */\n  tag_20\n  tag_21\n  jump\t// in\ntag_20:\n    /* \"#utility.yul\":237:321   */\ntag_19:\n    /* \"#utility.yul\":58:327   */\n  pop\n    /* \"#utility.yul\":7:327   */\n  swap2\n  swap1\n  pop\n  jump\t// out\n    /* \"#utility.yul\":333:513   */\ntag_21:\n    /* \"#utility.yul\":381:458   */\n  0x4e487b7100000000000000000000000000000000000000000000000000000000\n    /* \"#utility.yul\":378:379   */\n  0x00\n    /* \"#utility.yul\":371:459   */\n  mstore\n    /* \"#utility.yul\":478:482   */\n  0x22\n    /* \"#utility.yul\":475:476   */\n  0x04\n    /* \"#utility.yul\":468:483   */\n  mstore\n    /* \"#utility.yul\":502:506   */\n  0x24\n    /* \"#utility.yul\":499:500   */\n  0x00\n    /* \"#utility.yul\":492:507   */\n  revert\n    /* \"contracts/demo1.sol\":32:175  contract Demo1{\r... */\ntag_4:\n  dataSize(sub_0)\n  dup1\n  dataOffset(sub_0)\n  0x00\n  codecopy\n  0x00\n  return\nstop\n\nsub_0: assembly {\n        /* \"contracts/demo1.sol\":32:175  contract Demo1{\r... */\n      mstore(0x40, 0x80)\n      callvalue\n      dup1\n      iszero\n      tag_1\n      jumpi\n      0x00\n      dup1\n      revert\n    tag_1:\n      pop\n      jumpi(tag_2, lt(calldatasize, 0x04))\n      shr(0xe0, calldataload(0x00))\n      dup1\n      0x06fdde03\n      eq\n      tag_3\n      jumpi\n      dup1\n      0x47c8efa7\n      eq\n      tag_4\n      jumpi\n      dup1\n      0x4b67f6af\n      eq\n      tag_5\n      jumpi\n    tag_2:\n      0x00\n      dup1\n      revert\n        /* \"contracts/demo1.sol\":53:85  bytes public name = \"LE HONG VO\" */\n    tag_3:\n      tag_6\n      tag_7\n      jump\t// in\n    tag_6:\n      mload(0x40)\n      tag_8\n      swap2\n      swap1\n      tag_9\n      jump\t// in\n    tag_8:\n      mload(0x40)\n      dup1\n      swap2\n      sub\n      swap1\n      return\n        /* \"contracts/demo1.sol\":92:129  bytes32 public name1 = \"NGUYEN VAN A\" */\n    tag_4:\n      tag_10\n      tag_11\n      jump\t// in\n    tag_10:\n      mload(0x40)\n      tag_12\n      swap2\n      swap1\n      tag_13\n      jump\t// in\n    tag_12:\n      mload(0x40)\n      dup1\n      swap2\n      sub\n      swap1\n      return\n        /* \"contracts/demo1.sol\":136:171  bytes32 public name2 = \"TRAN THI B\" */\n    tag_5:\n      tag_14\n      tag_15\n      jump\t// in\n    tag_14:\n      mload(0x40)\n      tag_16\n      swap2\n      swap1\n      tag_13\n      jump\t// in\n    tag_16:\n      mload(0x40)\n      dup1\n      swap2\n      sub\n      swap1\n      return\n        /* \"contracts/demo1.sol\":53:85  bytes public name = \"LE HONG VO\" */\n    tag_7:\n      0x00\n      dup1\n      sload\n      tag_17\n      swap1\n      tag_18\n      jump\t// in\n    tag_17:\n      dup1\n      0x1f\n      add\n      0x20\n      dup1\n      swap2\n      div\n      mul\n      0x20\n      add\n      mload(0x40)\n      swap1\n      dup2\n      add\n      0x40\n      mstore\n      dup1\n      swap3\n      swap2\n      swap1\n      dup2\n      dup2\n      mstore\n      0x20\n      add\n      dup3\n      dup1\n      sload\n      tag_19\n      swap1\n      tag_18\n      jump\t// in\n    tag_19:\n      dup1\n      iszero\n      tag_20\n      jumpi\n      dup1\n      0x1f\n      lt\n      tag_21\n      jumpi\n      0x0100\n      dup1\n      dup4\n      sload\n      div\n      mul\n      dup4\n      mstore\n      swap2\n      0x20\n      add\n      swap2\n      jump(tag_20)\n    tag_21:\n      dup3\n      add\n      swap2\n      swap1\n      0x00\n      mstore\n      keccak256(0x00, 0x20)\n      swap1\n    tag_22:\n      dup2\n      sload\n      dup2\n      mstore\n      swap1\n      0x01\n      add\n      swap1\n      0x20\n      add\n      dup1\n      dup4\n      gt\n      tag_22\n      jumpi\n      dup3\n      swap1\n      sub\n      0x1f\n      and\n      dup3\n      add\n      swap2\n    tag_20:\n      pop\n      pop\n      pop\n      pop\n      pop\n      dup2\n      jump\t// out\n        /* \"contracts/demo1.sol\":92:129  bytes32 public name1 = \"NGUYEN VAN A\" */\n    tag_11:\n      sload(0x01)\n      dup2\n      jump\t// out\n        /* \"contracts/demo1.sol\":136:171  bytes32 public name2 = \"TRAN THI B\" */\n    tag_15:\n      sload(0x02)\n      dup2\n      jump\t// out\n        /* \"#utility.yul\":7:125   */\n    tag_24:\n        /* \"#utility.yul\":94:118   */\n      tag_26\n        /* \"#utility.yul\":112:117   */\n      dup2\n        /* \"#utility.yul\":94:118   */\n      tag_27\n      jump\t// in\n    tag_26:\n        /* \"#utility.yul\":89:92   */\n      dup3\n        /* \"#utility.yul\":82:119   */\n      mstore\n        /* \"#utility.yul\":7:125   */\n      pop\n      pop\n      jump\t// out\n        /* \"#utility.yul\":131:491   */\n    tag_28:\n        /* \"#utility.yul\":217:220   */\n      0x00\n        /* \"#utility.yul\":245:283   */\n      tag_30\n        /* \"#utility.yul\":277:282   */\n      dup3\n        /* \"#utility.yul\":245:283   */\n      tag_31\n      jump\t// in\n    tag_30:\n        /* \"#utility.yul\":299:369   */\n      tag_32\n        /* \"#utility.yul\":362:368   */\n      dup2\n        /* \"#utility.yul\":357:360   */\n      dup6\n        /* \"#utility.yul\":299:369   */\n      tag_33\n      jump\t// in\n    tag_32:\n        /* \"#utility.yul\":292:369   */\n      swap4\n      pop\n        /* \"#utility.yul\":378:430   */\n      tag_34\n        /* \"#utility.yul\":423:429   */\n      dup2\n        /* \"#utility.yul\":418:421   */\n      dup6\n        /* \"#utility.yul\":411:415   */\n      0x20\n        /* \"#utility.yul\":404:409   */\n      dup7\n        /* \"#utility.yul\":400:416   */\n      add\n        /* \"#utility.yul\":378:430   */\n      tag_35\n      jump\t// in\n    tag_34:\n        /* \"#utility.yul\":455:484   */\n      tag_36\n        /* \"#utility.yul\":477:483   */\n      dup2\n        /* \"#utility.yul\":455:484   */\n      tag_37\n      jump\t// in\n    tag_36:\n        /* \"#utility.yul\":450:453   */\n      dup5\n        /* \"#utility.yul\":446:485   */\n      add\n        /* \"#utility.yul\":439:485   */\n      swap2\n      pop\n        /* \"#utility.yul\":221:491   */\n      pop\n        /* \"#utility.yul\":131:491   */\n      swap3\n      swap2\n      pop\n      pop\n      jump\t// out\n        /* \"#utility.yul\":497:719   */\n    tag_13:\n        /* \"#utility.yul\":590:594   */\n      0x00\n        /* \"#utility.yul\":628:630   */\n      0x20\n        /* \"#utility.yul\":617:626   */\n      dup3\n        /* \"#utility.yul\":613:631   */\n      add\n        /* \"#utility.yul\":605:631   */\n      swap1\n      pop\n        /* \"#utility.yul\":641:712   */\n      tag_39\n        /* \"#utility.yul\":709:710   */\n      0x00\n        /* \"#utility.yul\":698:707   */\n      dup4\n        /* \"#utility.yul\":694:711   */\n      add\n        /* \"#utility.yul\":685:691   */\n      dup5\n        /* \"#utility.yul\":641:712   */\n      tag_24\n      jump\t// in\n    tag_39:\n        /* \"#utility.yul\":497:719   */\n      swap3\n      swap2\n      pop\n      pop\n      jump\t// out\n        /* \"#utility.yul\":725:1034   */\n    tag_9:\n        /* \"#utility.yul\":836:840   */\n      0x00\n        /* \"#utility.yul\":874:876   */\n      0x20\n        /* \"#utility.yul\":863:872   */\n      dup3\n        /* \"#utility.yul\":859:877   */\n      add\n        /* \"#utility.yul\":851:877   */\n      swap1\n      pop\n        /* \"#utility.yul\":923:932   */\n      dup2\n        /* \"#utility.yul\":917:921   */\n      dup2\n        /* \"#utility.yul\":913:933   */\n      sub\n        /* \"#utility.yul\":909:910   */\n      0x00\n        /* \"#utility.yul\":898:907   */\n      dup4\n        /* \"#utility.yul\":894:911   */\n      add\n        /* \"#utility.yul\":887:934   */\n      mstore\n        /* \"#utility.yul\":951:1027   */\n      tag_41\n        /* \"#utility.yul\":1022:1026   */\n      dup2\n        /* \"#utility.yul\":1013:1019   */\n      dup5\n        /* \"#utility.yul\":951:1027   */\n      tag_28\n      jump\t// in\n    tag_41:\n        /* \"#utility.yul\":943:1027   */\n      swap1\n      pop\n        /* \"#utility.yul\":725:1034   */\n      swap3\n      swap2\n      pop\n      pop\n      jump\t// out\n        /* \"#utility.yul\":1040:1138   */\n    tag_31:\n        /* \"#utility.yul\":1091:1097   */\n      0x00\n        /* \"#utility.yul\":1125:1130   */\n      dup2\n        /* \"#utility.yul\":1119:1131   */\n      mload\n        /* \"#utility.yul\":1109:1131   */\n      swap1\n      pop\n        /* \"#utility.yul\":1040:1138   */\n      swap2\n      swap1\n      pop\n      jump\t// out\n        /* \"#utility.yul\":1144:1312   */\n    tag_33:\n        /* \"#utility.yul\":1227:1238   */\n      0x00\n        /* \"#utility.yul\":1261:1267   */\n      dup3\n        /* \"#utility.yul\":1256:1259   */\n      dup3\n        /* \"#utility.yul\":1249:1268   */\n      mstore\n        /* \"#utility.yul\":1301:1305   */\n      0x20\n        /* \"#utility.yul\":1296:1299   */\n      dup3\n        /* \"#utility.yul\":1292:1306   */\n      add\n        /* \"#utility.yul\":1277:1306   */\n      swap1\n      pop\n        /* \"#utility.yul\":1144:1312   */\n      swap3\n      swap2\n      pop\n      pop\n      jump\t// out\n        /* \"#utility.yul\":1318:1395   */\n    tag_27:\n        /* \"#utility.yul\":1355:1362   */\n      0x00\n        /* \"#utility.yul\":1384:1389   */\n      dup2\n        /* \"#utility.yul\":1373:1389   */\n      swap1\n      pop\n        /* \"#utility.yul\":1318:1395   */\n      swap2\n      swap1\n      pop\n      jump\t// out\n        /* \"#utility.yul\":1401:1708   */\n    tag_35:\n        /* \"#utility.yul\":1469:1470   */\n      0x00\n        /* \"#utility.yul\":1479:1592   */\n    tag_46:\n        /* \"#utility.yul\":1493:1499   */\n      dup4\n        /* \"#utility.yul\":1490:1491   */\n      dup2\n        /* \"#utility.yul\":1487:1500   */\n      lt\n        /* \"#utility.yul\":1479:1592   */\n      iszero\n      tag_48\n      jumpi\n        /* \"#utility.yul\":1578:1579   */\n      dup1\n        /* \"#utility.yul\":1573:1576   */\n      dup3\n        /* \"#utility.yul\":1569:1580   */\n      add\n        /* \"#utility.yul\":1563:1581   */\n      mload\n        /* \"#utility.yul\":1559:1560   */\n      dup2\n        /* \"#utility.yul\":1554:1557   */\n      dup5\n        /* \"#utility.yul\":1550:1561   */\n      add\n        /* \"#utility.yul\":1543:1582   */\n      mstore\n        /* \"#utility.yul\":1515:1517   */\n      0x20\n        /* \"#utility.yul\":1512:1513   */\n      dup2\n        /* \"#utility.yul\":1508:1518   */\n      add\n        /* \"#utility.yul\":1503:1518   */\n      swap1\n      pop\n        /* \"#utility.yul\":1479:1592   */\n      jump(tag_46)\n    tag_48:\n        /* \"#utility.yul\":1610:1616   */\n      dup4\n        /* \"#utility.yul\":1607:1608   */\n      dup2\n        /* \"#utility.yul\":1604:1617   */\n      gt\n        /* \"#utility.yul\":1601:1702   */\n      iszero\n      tag_49\n      jumpi\n        /* \"#utility.yul\":1690:1691   */\n      0x00\n        /* \"#utility.yul\":1681:1687   */\n      dup5\n        /* \"#utility.yul\":1676:1679   */\n      dup5\n        /* \"#utility.yul\":1672:1688   */\n      add\n        /* \"#utility.yul\":1665:1692   */\n      mstore\n        /* \"#utility.yul\":1601:1702   */\n    tag_49:\n        /* \"#utility.yul\":1450:1708   */\n      pop\n        /* \"#utility.yul\":1401:1708   */\n      pop\n      pop\n      pop\n      jump\t// out\n        /* \"#utility.yul\":1714:2034   */\n    tag_18:\n        /* \"#utility.yul\":1758:1764   */\n      0x00\n        /* \"#utility.yul\":1795:1796   */\n      0x02\n        /* \"#utility.yul\":1789:1793   */\n      dup3\n        /* \"#utility.yul\":1785:1797   */\n      div\n        /* \"#utility.yul\":1775:1797   */\n      swap1\n      pop\n        /* \"#utility.yul\":1842:1843   */\n      0x01\n        /* \"#utility.yul\":1836:1840   */\n      dup3\n        /* \"#utility.yul\":1832:1844   */\n      and\n        /* \"#utility.yul\":1863:1881   */\n      dup1\n        /* \"#utility.yul\":1853:1934   */\n      tag_51\n      jumpi\n        /* \"#utility.yul\":1919:1923   */\n      0x7f\n        /* \"#utility.yul\":1911:1917   */\n      dup3\n        /* \"#utility.yul\":1907:1924   */\n      and\n        /* \"#utility.yul\":1897:1924   */\n      swap2\n      pop\n        /* \"#utility.yul\":1853:1934   */\n    tag_51:\n        /* \"#utility.yul\":1981:1983   */\n      0x20\n        /* \"#utility.yul\":1973:1979   */\n      dup3\n        /* \"#utility.yul\":1970:1984   */\n      lt\n        /* \"#utility.yul\":1950:1968   */\n      dup2\n        /* \"#utility.yul\":1947:1985   */\n      eq\n        /* \"#utility.yul\":1944:2028   */\n      iszero\n      tag_52\n      jumpi\n        /* \"#utility.yul\":2000:2018   */\n      tag_53\n      tag_54\n      jump\t// in\n    tag_53:\n        /* \"#utility.yul\":1944:2028   */\n    tag_52:\n        /* \"#utility.yul\":1765:2034   */\n      pop\n        /* \"#utility.yul\":1714:2034   */\n      swap2\n      swap1\n      pop\n      jump\t// out\n        /* \"#utility.yul\":2040:2220   */\n    tag_54:\n        /* \"#utility.yul\":2088:2165   */\n      0x4e487b7100000000000000000000000000000000000000000000000000000000\n        /* \"#utility.yul\":2085:2086   */\n      0x00\n        /* \"#utility.yul\":2078:2166   */\n      mstore\n        /* \"#utility.yul\":2185:2189   */\n      0x22\n        /* \"#utility.yul\":2182:2183   */\n      0x04\n        /* \"#utility.yul\":2175:2190   */\n      mstore\n        /* \"#utility.yul\":2209:2213   */\n      0x24\n        /* \"#utility.yul\":2206:2207   */\n      0x00\n        /* \"#utility.yul\":2199:2214   */\n      revert\n        /* \"#utility.yul\":2226:2328   */\n    tag_37:\n        /* \"#utility.yul\":2267:2273   */\n      0x00\n        /* \"#utility.yul\":2318:2320   */\n      0x1f\n        /* \"#utility.yul\":2314:2321   */\n      not\n        /* \"#utility.yul\":2309:2311   */\n      0x1f\n        /* \"#utility.yul\":2302:2307   */\n      dup4\n        /* \"#utility.yul\":2298:2312   */\n      add\n        /* \"#utility.yul\":2294:2322   */\n      and\n        /* \"#utility.yul\":2284:2322   */\n      swap1\n      pop\n        /* \"#utility.yul\":2226:2328   */\n      swap2\n      swap1\n      pop\n      jump\t// out\n\n    auxdata: 0xa26469706673582212208224c1a2c21c6b2f266c097d9aeef5149a367745b2dc1b59ce7f09106d9f691b64736f6c63430008070033\n}\n",
				"bytecode": {
					"linkReferences": {},
					"object": "60806040526040518060400160405280600a81526020017f4c4520484f4e4720564f000000000000000000000000000000000000000000008152506000908051906020019061004f9291906100aa565b507f4e475559454e2056414e204100000000000000000000000000000000000000006001557f5452414e205448492042000000000000000000000000000000000000000000006002553480156100a457600080fd5b506101ae565b8280546100b69061014d565b90600052602060002090601f0160209004810192826100d8576000855561011f565b82601f106100f157805160ff191683800117855561011f565b8280016001018555821561011f579182015b8281111561011e578251825591602001919060010190610103565b5b50905061012c9190610130565b5090565b5b80821115610149576000816000905550600101610131565b5090565b6000600282049050600182168061016557607f821691505b602082108114156101795761017861017f565b5b50919050565b7f4e487b7100000000000000000000000000000000000000000000000000000000600052602260045260246000fd5b6102c0806101bd6000396000f3fe608060405234801561001057600080fd5b50600436106100415760003560e01c806306fdde031461004657806347c8efa7146100645780634b67f6af14610082575b600080fd5b61004e6100a0565b60405161005b919061019d565b60405180910390f35b61006c61012e565b6040516100799190610182565b60405180910390f35b61008a610134565b6040516100979190610182565b60405180910390f35b600080546100ad90610218565b80601f01602080910402602001604051908101604052809291908181526020018280546100d990610218565b80156101265780601f106100fb57610100808354040283529160200191610126565b820191906000526020600020905b81548152906001019060200180831161010957829003601f168201915b505050505081565b60015481565b60025481565b610143816101db565b82525050565b6000610154826101bf565b61015e81856101ca565b935061016e8185602086016101e5565b61017781610279565b840191505092915050565b6000602082019050610197600083018461013a565b92915050565b600060208201905081810360008301526101b78184610149565b905092915050565b600081519050919050565b600082825260208201905092915050565b6000819050919050565b60005b838110156102035780820151818401526020810190506101e8565b83811115610212576000848401525b50505050565b6000600282049050600182168061023057607f821691505b602082108114156102445761024361024a565b5b50919050565b7f4e487b7100000000000000000000000000000000000000000000000000000000600052602260045260246000fd5b6000601f19601f830116905091905056fea26469706673582212208224c1a2c21c6b2f266c097d9aeef5149a367745b2dc1b59ce7f09106d9f691b64736f6c63430008070033",
					"opcodes": "PUSH1 0x80 PUSH1 0x40 MSTORE PUSH1 0x40 MLOAD DUP1 PUSH1 0x40 ADD PUSH1 0x40 MSTORE DUP1 PUSH1 0xA DUP2 MSTORE PUSH1 0x20 ADD PUSH32 0x4C4520484F4E4720564F00000000000000000000000000000000000000000000 DUP2 MSTORE POP PUSH1 0x0 SWAP1 DUP1 MLOAD SWAP1 PUSH1 0x20 ADD SWAP1 PUSH2 0x4F SWAP3 SWAP2 SWAP1 PUSH2 0xAA JUMP JUMPDEST POP PUSH32 0x4E475559454E2056414E20410000000000000000000000000000000000000000 PUSH1 0x1 SSTORE PUSH32 0x5452414E20544849204200000000000000000000000000000000000000000000 PUSH1 0x2 SSTORE CALLVALUE DUP1 ISZERO PUSH2 0xA4 JUMPI PUSH1 0x0 DUP1 REVERT JUMPDEST POP PUSH2 0x1AE JUMP JUMPDEST DUP3 DUP1 SLOAD PUSH2 0xB6 SWAP1 PUSH2 0x14D JUMP JUMPDEST SWAP1 PUSH1 0x0 MSTORE PUSH1 0x20 PUSH1 0x0 KECCAK256 SWAP1 PUSH1 0x1F ADD PUSH1 0x20 SWAP1 DIV DUP2 ADD SWAP3 DUP3 PUSH2 0xD8 JUMPI PUSH1 0x0 DUP6 SSTORE PUSH2 0x11F JUMP JUMPDEST DUP3 PUSH1 0x1F LT PUSH2 0xF1 JUMPI DUP1 MLOAD PUSH1 0xFF NOT AND DUP4 DUP1 ADD OR DUP6 SSTORE PUSH2 0x11F JUMP JUMPDEST DUP3 DUP1 ADD PUSH1 0x1 ADD DUP6 SSTORE DUP3 ISZERO PUSH2 0x11F JUMPI SWAP2 DUP3 ADD JUMPDEST DUP3 DUP2 GT ISZERO PUSH2 0x11E JUMPI DUP3 MLOAD DUP3 SSTORE SWAP2 PUSH1 0x20 ADD SWAP2 SWAP1 PUSH1 0x1 ADD SWAP1 PUSH2 0x103 JUMP JUMPDEST JUMPDEST POP SWAP1 POP PUSH2 0x12C SWAP2 SWAP1 PUSH2 0x130 JUMP JUMPDEST POP SWAP1 JUMP JUMPDEST JUMPDEST DUP1 DUP3 GT ISZERO PUSH2 0x149 JUMPI PUSH1 0x0 DUP2 PUSH1 0x0 SWAP1 SSTORE POP PUSH1 0x1 ADD PUSH2 0x131 JUMP JUMPDEST POP SWAP1 JUMP JUMPDEST PUSH1 0x0 PUSH1 0x2 DUP3 DIV SWAP1 POP PUSH1 0x1 DUP3 AND DUP1 PUSH2 0x165 JUMPI PUSH1 0x7F DUP3 AND SWAP2 POP JUMPDEST PUSH1 0x20 DUP3 LT DUP2 EQ ISZERO PUSH2 0x179 JUMPI PUSH2 0x178 PUSH2 0x17F JUMP JUMPDEST JUMPDEST POP SWAP2 SWAP1 POP JUMP JUMPDEST PUSH32 0x4E487B7100000000000000000000000000000000000000000000000000000000 PUSH1 0x0 MSTORE PUSH1 0x22 PUSH1 0x4 MSTORE PUSH1 0x24 PUSH1 0x0 REVERT JUMPDEST PUSH2 0x2C0 DUP1 PUSH2 0x1BD PUSH1 0x0 CODECOPY PUSH1 0x0 RETURN INVALID PUSH1 0x80 PUSH1 0x40 MSTORE CALLVALUE DUP1 ISZERO PUSH2 0x10 JUMPI PUSH1 0x0 DUP1 REVERT JUMPDEST POP PUSH1 0x4 CALLDATASIZE LT PUSH2 0x41 JUMPI PUSH1 0x0 CALLDATALOAD PUSH1 0xE0 SHR DUP1 PUSH4 0x6FDDE03 EQ PUSH2 0x46 JUMPI DUP1 PUSH4 0x47C8EFA7 EQ PUSH2 0x64 JUMPI DUP1 PUSH4 0x4B67F6AF EQ PUSH2 0x82 JUMPI JUMPDEST PUSH1 0x0 DUP1 REVERT JUMPDEST PUSH2 0x4E PUSH2 0xA0 JUMP JUMPDEST PUSH1 0x40 MLOAD PUSH2 0x5B SWAP2 SWAP1 PUSH2 0x19D JUMP JUMPDEST PUSH1 0x40 MLOAD DUP1 SWAP2 SUB SWAP1 RETURN JUMPDEST PUSH2 0x6C PUSH2 0x12E JUMP JUMPDEST PUSH1 0x40 MLOAD PUSH2 0x79 SWAP2 SWAP1 PUSH2 0x182 JUMP JUMPDEST PUSH1 0x40 MLOAD DUP1 SWAP2 SUB SWAP1 RETURN JUMPDEST PUSH2 0x8A PUSH2 0x134 JUMP JUMPDEST PUSH1 0x40 MLOAD PUSH2 0x97 SWAP2 SWAP1 PUSH2 0x182 JUMP JUMPDEST PUSH1 0x40 MLOAD DUP1 SWAP2 SUB SWAP1 RETURN JUMPDEST PUSH1 0x0 DUP1 SLOAD PUSH2 0xAD SWAP1 PUSH2 0x218 JUMP JUMPDEST DUP1 PUSH1 0x1F ADD PUSH1 0x20 DUP1 SWAP2 DIV MUL PUSH1 0x20 ADD PUSH1 0x40 MLOAD SWAP1 DUP2 ADD PUSH1 0x40 MSTORE DUP1 SWAP3 SWAP2 SWAP1 DUP2 DUP2 MSTORE PUSH1 0x20 ADD DUP3 DUP1 SLOAD PUSH2 0xD9 SWAP1 PUSH2 0x218 JUMP JUMPDEST DUP1 ISZERO PUSH2 0x126 JUMPI DUP1 PUSH1 0x1F LT PUSH2 0xFB JUMPI PUSH2 0x100 DUP1 DUP4 SLOAD DIV MUL DUP4 MSTORE SWAP2 PUSH1 0x20 ADD SWAP2 PUSH2 0x126 JUMP JUMPDEST DUP3 ADD SWAP2 SWAP1 PUSH1 0x0 MSTORE PUSH1 0x20 PUSH1 0x0 KECCAK256 SWAP1 JUMPDEST DUP2 SLOAD DUP2 MSTORE SWAP1 PUSH1 0x1 ADD SWAP1 PUSH1 0x20 ADD DUP1 DUP4 GT PUSH2 0x109 JUMPI DUP3 SWAP1 SUB PUSH1 0x1F AND DUP3 ADD SWAP2 JUMPDEST POP POP POP POP POP DUP2 JUMP JUMPDEST PUSH1 0x1 SLOAD DUP2 JUMP JUMPDEST PUSH1 0x2 SLOAD DUP2 JUMP JUMPDEST PUSH2 0x143 DUP2 PUSH2 0x1DB JUMP JUMPDEST DUP3 MSTORE POP POP JUMP JUMPDEST PUSH1 0x0 PUSH2 0x154 DUP3 PUSH2 0x1BF JUMP JUMPDEST PUSH2 0x15E DUP2 DUP6 PUSH2 0x1CA JUMP JUMPDEST SWAP4 POP PUSH2 0x16E DUP2 DUP6 PUSH1 0x20 DUP7 ADD PUSH2 0x1E5 JUMP JUMPDEST PUSH2 0x177 DUP2 PUSH2 0x279 JUMP JUMPDEST DUP5 ADD SWAP2 POP POP SWAP3 SWAP2 POP POP JUMP JUMPDEST PUSH1 0x0 PUSH1 0x20 DUP3 ADD SWAP1 POP PUSH2 0x197 PUSH1 0x0 DUP4 ADD DUP5 PUSH2 0x13A JUMP JUMPDEST SWAP3 SWAP2 POP POP JUMP JUMPDEST PUSH1 0x0 PUSH1 0x20 DUP3 ADD SWAP1 POP DUP2 DUP2 SUB PUSH1 0x0 DUP4 ADD MSTORE PUSH2 0x1B7 DUP2 DUP5 PUSH2 0x149 JUMP JUMPDEST SWAP1 POP SWAP3 SWAP2 POP POP JUMP JUMPDEST PUSH1 0x0 DUP2 MLOAD SWAP1 POP SWAP2 SWAP1 POP JUMP JUMPDEST PUSH1 0x0 DUP3 DUP3 MSTORE PUSH1 0x20 DUP3 ADD SWAP1 POP SWAP3 SWAP2 POP POP JUMP JUMPDEST PUSH1 0x0 DUP2 SWAP1 POP SWAP2 SWAP1 POP JUMP JUMPDEST PUSH1 0x0 JUMPDEST DUP4 DUP2 LT ISZERO PUSH2 0x203 JUMPI DUP1 DUP3 ADD MLOAD DUP2 DUP5 ADD MSTORE PUSH1 0x20 DUP2 ADD SWAP1 POP PUSH2 0x1E8 JUMP JUMPDEST DUP4 DUP2 GT ISZERO PUSH2 0x212 JUMPI PUSH1 0x0 DUP5 DUP5 ADD MSTORE JUMPDEST POP POP POP POP JUMP JUMPDEST PUSH1 0x0 PUSH1 0x2 DUP3 DIV SWAP1 POP PUSH1 0x1 DUP3 AND DUP1 PUSH2 0x230 JUMPI PUSH1 0x7F DUP3 AND SWAP2 POP JUMPDEST PUSH1 0x20 DUP3 LT DUP2 EQ ISZERO PUSH2 0x244 JUMPI PUSH2 0x243 PUSH2 0x24A JUMP JUMPDEST JUMPDEST POP SWAP2 SWAP1 POP JUMP JUMPDEST PUSH32 0x4E487B7100000000000000000000000000000000000000000000000000000000 PUSH1 0x0 MSTORE PUSH1 0x22 PUSH1 0x4 MSTORE PUSH1 0x24 PUSH1 0x0 REVERT JUMPDEST PUSH1 0x0 PUSH1 0x1F NOT PUSH1 0x1F DUP4 ADD AND SWAP1 POP SWAP2 SWAP1 POP JUMP INVALID LOG2 PUSH5 0x6970667358 0x22 SLT KECCAK256 DUP3 0x24 0xC1 LOG2 0xC2 SHR PUSH12 0x2F266C097D9AEEF5149A3677 GASLIMIT 0xB2 0xDC SHL MSIZE 0xCE PUSH32 0x9106D9F691B64736F6C63430008070033000000000000000000000000000000 "
				},
				"gasEstimates": {
					"creation": {
						"codeDepositCost": "140800",
						"executionCost": "infinite",
						"totalCost": "infinite"
					},
					"external": {
						"name()": "infinite",
						"name1()": "2429",
						"name2()": "2451"
					}
				},
				"methodIdentifiers": {
					"name()": "06fdde03",
					"name1()": "47c8efa7",
					"name2()": "4b67f6af"
				}
			},
			"userdoc": {
				"kind": "user",
				"methods": {},
				"version": 1
			}
		}
	}
}