{
	"contracts/demo1.sol": {
		"Demo1": {
			"abi": [
				{
					"inputs": [],
					"name": "currentTime",
					"outputs": [
						{
							"internalType": "uint256",
							"name": "",
							"type": "uint256"
						}
					],
					"stateMutability": "view",
					"type": "function"
				},
				{
					"inputs": [],
					"name": "dataIndex",
					"outputs": [
						{
							"internalType": "uint256",
							"name": "",
							"type": "uint256"
						}
					],
					"stateMutability": "view",
					"type": "function"
				},
				{
					"inputs": [],
					"name": "name",
					"outputs": [
						{
							"internalType": "bytes",
							"name": "",
							"type": "bytes"
						}
					],
					"stateMutability": "view",
					"type": "function"
				},
				{
					"inputs": [],
					"name": "name1",
					"outputs": [
						{
							"internalType": "bytes32",
							"name": "",
							"type": "bytes32"
						}
					],
					"stateMutability": "view",
					"type": "function"
				},
				{
					"inputs": [],
					"name": "name2",
					"outputs": [
						{
							"internalType": "bytes32",
							"name": "",
							"type": "bytes32"
						}
					],
					"stateMutability": "view",
					"type": "function"
				}
			],
			"devdoc": {
				"kind": "dev",
				"methods": {},
				"version": 1
			},
			"evm": {
				"assembly": "    /* \"contracts/demo1.sol\":32:270  contract Demo1{\r... */\n  mstore(0x40, 0x80)\n    /* \"contracts/demo1.sol\":53:85  bytes public name = \"LE HONG VO\" */\n  mload(0x40)\n  dup1\n  0x40\n  add\n  0x40\n  mstore\n  dup1\n  0x0a\n  dup2\n  mstore\n  0x20\n  add\n  0x4c4520484f4e4720564f00000000000000000000000000000000000000000000\n  dup2\n  mstore\n  pop\n  0x00\n  swap1\n  dup1\n  mload\n  swap1\n  0x20\n  add\n  swap1\n  tag_1\n  swap3\n  swap2\n  swap1\n  tag_2\n  jump\t// in\ntag_1:\n  pop\n    /* \"contracts/demo1.sol\":92:129  bytes32 public name1 = \"NGUYEN VAN A\" */\n  sstore(0x01, 0x4e475559454e2056414e20410000000000000000000000000000000000000000)\n    /* \"contracts/demo1.sol\":136:171  bytes32 public name2 = \"TRAN THI B\" */\n  sstore(0x02, 0x5452414e20544849204200000000000000000000000000000000000000000000)\n    /* \"contracts/demo1.sol\":205:220  block.timestamp */\n  timestamp\n    /* \"contracts/demo1.sol\":179:220  uint public currentTime = block.timestamp */\n  0x03\n  sstore\n    /* \"contracts/demo1.sol\":251:266  block.timestamp */\n  timestamp\n    /* \"contracts/demo1.sol\":227:266  uint public dataIndex = block.timestamp */\n  0x04\n  sstore\n    /* \"contracts/demo1.sol\":32:270  contract Demo1{\r... */\n  callvalue\n  dup1\n  iszero\n  tag_3\n  jumpi\n  0x00\n  dup1\n  revert\ntag_3:\n  pop\n  jump(tag_4)\ntag_2:\n  dup3\n  dup1\n  sload\n  tag_5\n  swap1\n  tag_6\n  jump\t// in\ntag_5:\n  swap1\n  0x00\n  mstore\n  keccak256(0x00, 0x20)\n  swap1\n  0x1f\n  add\n  0x20\n  swap1\n  div\n  dup2\n  add\n  swap3\n  dup3\n  tag_8\n  jumpi\n  0x00\n  dup6\n  sstore\n  jump(tag_7)\ntag_8:\n  dup3\n  0x1f\n  lt\n  tag_9\n  jumpi\n  dup1\n  mload\n  not(0xff)\n  and\n  dup4\n  dup1\n  add\n  or\n  dup6\n  sstore\n  jump(tag_7)\ntag_9:\n  dup3\n  dup1\n  add\n  0x01\n  add\n  dup6\n  sstore\n  dup3\n  iszero\n  tag_7\n  jumpi\n  swap2\n  dup3\n  add\ntag_10:\n  dup3\n  dup2\n  gt\n  iszero\n  tag_11\n  jumpi\n  dup3\n  mload\n  dup3\n  sstore\n  swap2\n  0x20\n  add\n  swap2\n  swap1\n  0x01\n  add\n  swap1\n  jump(tag_10)\ntag_11:\ntag_7:\n  pop\n  swap1\n  pop\n  tag_12\n  swap2\n  swap1\n  tag_13\n  jump\t// in\ntag_12:\n  pop\n  swap1\n  jump\t// out\ntag_13:\ntag_14:\n  dup1\n  dup3\n  gt\n  iszero\n  tag_15\n  jumpi\n  0x00\n  dup2\n  0x00\n  swap1\n  sstore\n  pop\n  0x01\n  add\n  jump(tag_14)\ntag_15:\n  pop\n  swap1\n  jump\t// out\n    /* \"#utility.yul\":7:327   */\ntag_6:\n    /* \"#utility.yul\":51:57   */\n  0x00\n    /* \"#utility.yul\":88:89   */\n  0x02\n    /* \"#utility.yul\":82:86   */\n  dup3\n    /* \"#utility.yul\":78:90   */\n  div\n    /* \"#utility.yul\":68:90   */\n  swap1\n  pop\n    /* \"#utility.yul\":135:136   */\n  0x01\n    /* \"#utility.yul\":129:133   */\n  dup3\n    /* \"#utility.yul\":125:137   */\n  and\n    /* \"#utility.yul\":156:174   */\n  dup1\n    /* \"#utility.yul\":146:227   */\n  tag_18\n  jumpi\n    /* \"#utility.yul\":212:216   */\n  0x7f\n    /* \"#utility.yul\":204:210   */\n  dup3\n    /* \"#utility.yul\":200:217   */\n  and\n    /* \"#utility.yul\":190:217   */\n  swap2\n  pop\n    /* \"#utility.yul\":146:227   */\ntag_18:\n    /* \"#utility.yul\":274:276   */\n  0x20\n    /* \"#utility.yul\":266:272   */\n  dup3\n    /* \"#utility.yul\":263:277   */\n  lt\n    /* \"#utility.yul\":243:261   */\n  dup2\n    /* \"#utility.yul\":240:278   */\n  eq\n    /* \"#utility.yul\":237:321   */\n  iszero\n  tag_19\n  jumpi\n    /* \"#utility.yul\":293:311   */\n  tag_20\n  tag_21\n  jump\t// in\ntag_20:\n    /* \"#utility.yul\":237:321   */\ntag_19:\n    /* \"#utility.yul\":58:327   */\n  pop\n    /* \"#utility.yul\":7:327   */\n  swap2\n  swap1\n  pop\n  jump\t// out\n    /* \"#utility.yul\":333:513   */\ntag_21:\n    /* \"#utility.yul\":381:458   */\n  0x4e487b7100000000000000000000000000000000000000000000000000000000\n    /* \"#utility.yul\":378:379   */\n  0x00\n    /* \"#utility.yul\":371:459   */\n  mstore\n    /* \"#utility.yul\":478:482   */\n  0x22\n    /* \"#utility.yul\":475:476   */\n  0x04\n    /* \"#utility.yul\":468:483   */\n  mstore\n    /* \"#utility.yul\":502:506   */\n  0x24\n    /* \"#utility.yul\":499:500   */\n  0x00\n    /* \"#utility.yul\":492:507   */\n  revert\n    /* \"contracts/demo1.sol\":32:270  contract Demo1{\r... */\ntag_4:\n  dataSize(sub_0)\n  dup1\n  dataOffset(sub_0)\n  0x00\n  codecopy\n  0x00\n  return\nstop\n\nsub_0: assembly {\n        /* \"contracts/demo1.sol\":32:270  contract Demo1{\r... */\n      mstore(0x40, 0x80)\n      callvalue\n      dup1\n      iszero\n      tag_1\n      jumpi\n      0x00\n      dup1\n      revert\n    tag_1:\n      pop\n      jumpi(tag_2, lt(calldatasize, 0x04))\n      shr(0xe0, calldataload(0x00))\n      dup1\n      0x06fdde03\n      eq\n      tag_3\n      jumpi\n      dup1\n      0x47c8efa7\n      eq\n      tag_4\n      jumpi\n      dup1\n      0x4b67f6af\n      eq\n      tag_5\n      jumpi\n      dup1\n      0xd18e81b3\n      eq\n      tag_6\n      jumpi\n      dup1\n      0xf70bd6dd\n      eq\n      tag_7\n      jumpi\n    tag_2:\n      0x00\n      dup1\n      revert\n        /* \"contracts/demo1.sol\":53:85  bytes public name = \"LE HONG VO\" */\n    tag_3:\n      tag_8\n      tag_9\n      jump\t// in\n    tag_8:\n      mload(0x40)\n      tag_10\n      swap2\n      swap1\n      tag_11\n      jump\t// in\n    tag_10:\n      mload(0x40)\n      dup1\n      swap2\n      sub\n      swap1\n      return\n        /* \"contracts/demo1.sol\":92:129  bytes32 public name1 = \"NGUYEN VAN A\" */\n    tag_4:\n      tag_12\n      tag_13\n      jump\t// in\n    tag_12:\n      mload(0x40)\n      tag_14\n      swap2\n      swap1\n      tag_15\n      jump\t// in\n    tag_14:\n      mload(0x40)\n      dup1\n      swap2\n      sub\n      swap1\n      return\n        /* \"contracts/demo1.sol\":136:171  bytes32 public name2 = \"TRAN THI B\" */\n    tag_5:\n      tag_16\n      tag_17\n      jump\t// in\n    tag_16:\n      mload(0x40)\n      tag_18\n      swap2\n      swap1\n      tag_15\n      jump\t// in\n    tag_18:\n      mload(0x40)\n      dup1\n      swap2\n      sub\n      swap1\n      return\n        /* \"contracts/demo1.sol\":179:220  uint public currentTime = block.timestamp */\n    tag_6:\n      tag_19\n      tag_20\n      jump\t// in\n    tag_19:\n      mload(0x40)\n      tag_21\n      swap2\n      swap1\n      tag_22\n      jump\t// in\n    tag_21:\n      mload(0x40)\n      dup1\n      swap2\n      sub\n      swap1\n      return\n        /* \"contracts/demo1.sol\":227:266  uint public dataIndex = block.timestamp */\n    tag_7:\n      tag_23\n      tag_24\n      jump\t// in\n    tag_23:\n      mload(0x40)\n      tag_25\n      swap2\n      swap1\n      tag_22\n      jump\t// in\n    tag_25:\n      mload(0x40)\n      dup1\n      swap2\n      sub\n      swap1\n      return\n        /* \"contracts/demo1.sol\":53:85  bytes public name = \"LE HONG VO\" */\n    tag_9:\n      0x00\n      dup1\n      sload\n      tag_26\n      swap1\n      tag_27\n      jump\t// in\n    tag_26:\n      dup1\n      0x1f\n      add\n      0x20\n      dup1\n      swap2\n      div\n      mul\n      0x20\n      add\n      mload(0x40)\n      swap1\n      dup2\n      add\n      0x40\n      mstore\n      dup1\n      swap3\n      swap2\n      swap1\n      dup2\n      dup2\n      mstore\n      0x20\n      add\n      dup3\n      dup1\n      sload\n      tag_28\n      swap1\n      tag_27\n      jump\t// in\n    tag_28:\n      dup1\n      iszero\n      tag_29\n      jumpi\n      dup1\n      0x1f\n      lt\n      tag_30\n      jumpi\n      0x0100\n      dup1\n      dup4\n      sload\n      div\n      mul\n      dup4\n      mstore\n      swap2\n      0x20\n      add\n      swap2\n      jump(tag_29)\n    tag_30:\n      dup3\n      add\n      swap2\n      swap1\n      0x00\n      mstore\n      keccak256(0x00, 0x20)\n      swap1\n    tag_31:\n      dup2\n      sload\n      dup2\n      mstore\n      swap1\n      0x01\n      add\n      swap1\n      0x20\n      add\n      dup1\n      dup4\n      gt\n      tag_31\n      jumpi\n      dup3\n      swap1\n      sub\n      0x1f\n      and\n      dup3\n      add\n      swap2\n    tag_29:\n      pop\n      pop\n      pop\n      pop\n      pop\n      dup2\n      jump\t// out\n        /* \"contracts/demo1.sol\":92:129  bytes32 public name1 = \"NGUYEN VAN A\" */\n    tag_13:\n      sload(0x01)\n      dup2\n      jump\t// out\n        /* \"contracts/demo1.sol\":136:171  bytes32 public name2 = \"TRAN THI B\" */\n    tag_17:\n      sload(0x02)\n      dup2\n      jump\t// out\n        /* \"contracts/demo1.sol\":179:220  uint public currentTime = block.timestamp */\n    tag_20:\n      sload(0x03)\n      dup2\n      jump\t// out\n        /* \"contracts/demo1.sol\":227:266  uint public dataIndex = block.timestamp */\n    tag_24:\n      sload(0x04)\n      dup2\n      jump\t// out\n        /* \"#utility.yul\":7:125   */\n    tag_33:\n        /* \"#utility.yul\":94:118   */\n      tag_35\n        /* \"#utility.yul\":112:117   */\n      dup2\n        /* \"#utility.yul\":94:118   */\n      tag_36\n      jump\t// in\n    tag_35:\n        /* \"#utility.yul\":89:92   */\n      dup3\n        /* \"#utility.yul\":82:119   */\n      mstore\n        /* \"#utility.yul\":7:125   */\n      pop\n      pop\n      jump\t// out\n        /* \"#utility.yul\":131:491   */\n    tag_37:\n        /* \"#utility.yul\":217:220   */\n      0x00\n        /* \"#utility.yul\":245:283   */\n      tag_39\n        /* \"#utility.yul\":277:282   */\n      dup3\n        /* \"#utility.yul\":245:283   */\n      tag_40\n      jump\t// in\n    tag_39:\n        /* \"#utility.yul\":299:369   */\n      tag_41\n        /* \"#utility.yul\":362:368   */\n      dup2\n        /* \"#utility.yul\":357:360   */\n      dup6\n        /* \"#utility.yul\":299:369   */\n      tag_42\n      jump\t// in\n    tag_41:\n        /* \"#utility.yul\":292:369   */\n      swap4\n      pop\n        /* \"#utility.yul\":378:430   */\n      tag_43\n        /* \"#utility.yul\":423:429   */\n      dup2\n        /* \"#utility.yul\":418:421   */\n      dup6\n        /* \"#utility.yul\":411:415   */\n      0x20\n        /* \"#utility.yul\":404:409   */\n      dup7\n        /* \"#utility.yul\":400:416   */\n      add\n        /* \"#utility.yul\":378:430   */\n      tag_44\n      jump\t// in\n    tag_43:\n        /* \"#utility.yul\":455:484   */\n      tag_45\n        /* \"#utility.yul\":477:483   */\n      dup2\n        /* \"#utility.yul\":455:484   */\n      tag_46\n      jump\t// in\n    tag_45:\n        /* \"#utility.yul\":450:453   */\n      dup5\n        /* \"#utility.yul\":446:485   */\n      add\n        /* \"#utility.yul\":439:485   */\n      swap2\n      pop\n        /* \"#utility.yul\":221:491   */\n      pop\n        /* \"#utility.yul\":131:491   */\n      swap3\n      swap2\n      pop\n      pop\n      jump\t// out\n        /* \"#utility.yul\":497:615   */\n    tag_47:\n        /* \"#utility.yul\":584:608   */\n      tag_49\n        /* \"#utility.yul\":602:607   */\n      dup2\n        /* \"#utility.yul\":584:608   */\n      tag_50\n      jump\t// in\n    tag_49:\n        /* \"#utility.yul\":579:582   */\n      dup3\n        /* \"#utility.yul\":572:609   */\n      mstore\n        /* \"#utility.yul\":497:615   */\n      pop\n      pop\n      jump\t// out\n        /* \"#utility.yul\":621:843   */\n    tag_15:\n        /* \"#utility.yul\":714:718   */\n      0x00\n        /* \"#utility.yul\":752:754   */\n      0x20\n        /* \"#utility.yul\":741:750   */\n      dup3\n        /* \"#utility.yul\":737:755   */\n      add\n        /* \"#utility.yul\":729:755   */\n      swap1\n      pop\n        /* \"#utility.yul\":765:836   */\n      tag_52\n        /* \"#utility.yul\":833:834   */\n      0x00\n        /* \"#utility.yul\":822:831   */\n      dup4\n        /* \"#utility.yul\":818:835   */\n      add\n        /* \"#utility.yul\":809:815   */\n      dup5\n        /* \"#utility.yul\":765:836   */\n      tag_33\n      jump\t// in\n    tag_52:\n        /* \"#utility.yul\":621:843   */\n      swap3\n      swap2\n      pop\n      pop\n      jump\t// out\n        /* \"#utility.yul\":849:1158   */\n    tag_11:\n        /* \"#utility.yul\":960:964   */\n      0x00\n        /* \"#utility.yul\":998:1000   */\n      0x20\n        /* \"#utility.yul\":987:996   */\n      dup3\n        /* \"#utility.yul\":983:1001   */\n      add\n        /* \"#utility.yul\":975:1001   */\n      swap1\n      pop\n        /* \"#utility.yul\":1047:1056   */\n      dup2\n        /* \"#utility.yul\":1041:1045   */\n      dup2\n        /* \"#utility.yul\":1037:1057   */\n      sub\n        /* \"#utility.yul\":1033:1034   */\n      0x00\n        /* \"#utility.yul\":1022:1031   */\n      dup4\n        /* \"#utility.yul\":1018:1035   */\n      add\n        /* \"#utility.yul\":1011:1058   */\n      mstore\n        /* \"#utility.yul\":1075:1151   */\n      tag_54\n        /* \"#utility.yul\":1146:1150   */\n      dup2\n        /* \"#utility.yul\":1137:1143   */\n      dup5\n        /* \"#utility.yul\":1075:1151   */\n      tag_37\n      jump\t// in\n    tag_54:\n        /* \"#utility.yul\":1067:1151   */\n      swap1\n      pop\n        /* \"#utility.yul\":849:1158   */\n      swap3\n      swap2\n      pop\n      pop\n      jump\t// out\n        /* \"#utility.yul\":1164:1386   */\n    tag_22:\n        /* \"#utility.yul\":1257:1261   */\n      0x00\n        /* \"#utility.yul\":1295:1297   */\n      0x20\n        /* \"#utility.yul\":1284:1293   */\n      dup3\n        /* \"#utility.yul\":1280:1298   */\n      add\n        /* \"#utility.yul\":1272:1298   */\n      swap1\n      pop\n        /* \"#utility.yul\":1308:1379   */\n      tag_56\n        /* \"#utility.yul\":1376:1377   */\n      0x00\n        /* \"#utility.yul\":1365:1374   */\n      dup4\n        /* \"#utility.yul\":1361:1378   */\n      add\n        /* \"#utility.yul\":1352:1358   */\n      dup5\n        /* \"#utility.yul\":1308:1379   */\n      tag_47\n      jump\t// in\n    tag_56:\n        /* \"#utility.yul\":1164:1386   */\n      swap3\n      swap2\n      pop\n      pop\n      jump\t// out\n        /* \"#utility.yul\":1392:1490   */\n    tag_40:\n        /* \"#utility.yul\":1443:1449   */\n      0x00\n        /* \"#utility.yul\":1477:1482   */\n      dup2\n        /* \"#utility.yul\":1471:1483   */\n      mload\n        /* \"#utility.yul\":1461:1483   */\n      swap1\n      pop\n        /* \"#utility.yul\":1392:1490   */\n      swap2\n      swap1\n      pop\n      jump\t// out\n        /* \"#utility.yul\":1496:1664   */\n    tag_42:\n        /* \"#utility.yul\":1579:1590   */\n      0x00\n        /* \"#utility.yul\":1613:1619   */\n      dup3\n        /* \"#utility.yul\":1608:1611   */\n      dup3\n        /* \"#utility.yul\":1601:1620   */\n      mstore\n        /* \"#utility.yul\":1653:1657   */\n      0x20\n        /* \"#utility.yul\":1648:1651   */\n      dup3\n        /* \"#utility.yul\":1644:1658   */\n      add\n        /* \"#utility.yul\":1629:1658   */\n      swap1\n      pop\n        /* \"#utility.yul\":1496:1664   */\n      swap3\n      swap2\n      pop\n      pop\n      jump\t// out\n        /* \"#utility.yul\":1670:1747   */\n    tag_36:\n        /* \"#utility.yul\":1707:1714   */\n      0x00\n        /* \"#utility.yul\":1736:1741   */\n      dup2\n        /* \"#utility.yul\":1725:1741   */\n      swap1\n      pop\n        /* \"#utility.yul\":1670:1747   */\n      swap2\n      swap1\n      pop\n      jump\t// out\n        /* \"#utility.yul\":1753:1830   */\n    tag_50:\n        /* \"#utility.yul\":1790:1797   */\n      0x00\n        /* \"#utility.yul\":1819:1824   */\n      dup2\n        /* \"#utility.yul\":1808:1824   */\n      swap1\n      pop\n        /* \"#utility.yul\":1753:1830   */\n      swap2\n      swap1\n      pop\n      jump\t// out\n        /* \"#utility.yul\":1836:2143   */\n    tag_44:\n        /* \"#utility.yul\":1904:1905   */\n      0x00\n        /* \"#utility.yul\":1914:2027   */\n    tag_62:\n        /* \"#utility.yul\":1928:1934   */\n      dup4\n        /* \"#utility.yul\":1925:1926   */\n      dup2\n        /* \"#utility.yul\":1922:1935   */\n      lt\n        /* \"#utility.yul\":1914:2027   */\n      iszero\n      tag_64\n      jumpi\n        /* \"#utility.yul\":2013:2014   */\n      dup1\n        /* \"#utility.yul\":2008:2011   */\n      dup3\n        /* \"#utility.yul\":2004:2015   */\n      add\n        /* \"#utility.yul\":1998:2016   */\n      mload\n        /* \"#utility.yul\":1994:1995   */\n      dup2\n        /* \"#utility.yul\":1989:1992   */\n      dup5\n        /* \"#utility.yul\":1985:1996   */\n      add\n        /* \"#utility.yul\":1978:2017   */\n      mstore\n        /* \"#utility.yul\":1950:1952   */\n      0x20\n        /* \"#utility.yul\":1947:1948   */\n      dup2\n        /* \"#utility.yul\":1943:1953   */\n      add\n        /* \"#utility.yul\":1938:1953   */\n      swap1\n      pop\n        /* \"#utility.yul\":1914:2027   */\n      jump(tag_62)\n    tag_64:\n        /* \"#utility.yul\":2045:2051   */\n      dup4\n        /* \"#utility.yul\":2042:2043   */\n      dup2\n        /* \"#utility.yul\":2039:2052   */\n      gt\n        /* \"#utility.yul\":2036:2137   */\n      iszero\n      tag_65\n      jumpi\n        /* \"#utility.yul\":2125:2126   */\n      0x00\n        /* \"#utility.yul\":2116:2122   */\n      dup5\n        /* \"#utility.yul\":2111:2114   */\n      dup5\n        /* \"#utility.yul\":2107:2123   */\n      add\n        /* \"#utility.yul\":2100:2127   */\n      mstore\n        /* \"#utility.yul\":2036:2137   */\n    tag_65:\n        /* \"#utility.yul\":1885:2143   */\n      pop\n        /* \"#utility.yul\":1836:2143   */\n      pop\n      pop\n      pop\n      jump\t// out\n        /* \"#utility.yul\":2149:2469   */\n    tag_27:\n        /* \"#utility.yul\":2193:2199   */\n      0x00\n        /* \"#utility.yul\":2230:2231   */\n      0x02\n        /* \"#utility.yul\":2224:2228   */\n      dup3\n        /* \"#utility.yul\":2220:2232   */\n      div\n        /* \"#utility.yul\":2210:2232   */\n      swap1\n      pop\n        /* \"#utility.yul\":2277:2278   */\n      0x01\n        /* \"#utility.yul\":2271:2275   */\n      dup3\n        /* \"#utility.yul\":2267:2279   */\n      and\n        /* \"#utility.yul\":2298:2316   */\n      dup1\n        /* \"#utility.yul\":2288:2369   */\n      tag_67\n      jumpi\n        /* \"#utility.yul\":2354:2358   */\n      0x7f\n        /* \"#utility.yul\":2346:2352   */\n      dup3\n        /* \"#utility.yul\":2342:2359   */\n      and\n        /* \"#utility.yul\":2332:2359   */\n      swap2\n      pop\n        /* \"#utility.yul\":2288:2369   */\n    tag_67:\n        /* \"#utility.yul\":2416:2418   */\n      0x20\n        /* \"#utility.yul\":2408:2414   */\n      dup3\n        /* \"#utility.yul\":2405:2419   */\n      lt\n        /* \"#utility.yul\":2385:2403   */\n      dup2\n        /* \"#utility.yul\":2382:2420   */\n      eq\n        /* \"#utility.yul\":2379:2463   */\n      iszero\n      tag_68\n      jumpi\n        /* \"#utility.yul\":2435:2453   */\n      tag_69\n      tag_70\n      jump\t// in\n    tag_69:\n        /* \"#utility.yul\":2379:2463   */\n    tag_68:\n        /* \"#utility.yul\":2200:2469   */\n      pop\n        /* \"#utility.yul\":2149:2469   */\n      swap2\n      swap1\n      pop\n      jump\t// out\n        /* \"#utility.yul\":2475:2655   */\n    tag_70:\n        /* \"#utility.yul\":2523:2600   */\n      0x4e487b7100000000000000000000000000000000000000000000000000000000\n        /* \"#utility.yul\":2520:2521   */\n      0x00\n        /* \"#utility.yul\":2513:2601   */\n      mstore\n        /* \"#utility.yul\":2620:2624   */\n      0x22\n        /* \"#utility.yul\":2617:2618   */\n      0x04\n        /* \"#utility.yul\":2610:2625   */\n      mstore\n        /* \"#utility.yul\":2644:2648   */\n      0x24\n        /* \"#utility.yul\":2641:2642   */\n      0x00\n        /* \"#utility.yul\":2634:2649   */\n      revert\n        /* \"#utility.yul\":2661:2763   */\n    tag_46:\n        /* \"#utility.yul\":2702:2708   */\n      0x00\n        /* \"#utility.yul\":2753:2755   */\n      0x1f\n        /* \"#utility.yul\":2749:2756   */\n      not\n        /* \"#utility.yul\":2744:2746   */\n      0x1f\n        /* \"#utility.yul\":2737:2742   */\n      dup4\n        /* \"#utility.yul\":2733:2747   */\n      add\n        /* \"#utility.yul\":2729:2757   */\n      and\n        /* \"#utility.yul\":2719:2757   */\n      swap1\n      pop\n        /* \"#utility.yul\":2661:2763   */\n      swap2\n      swap1\n      pop\n      jump\t// out\n\n    auxdata: 0xa2646970667358221220f55767592960a7ac119fa5abaa96b1b554ff349e5a71a4e86490fd3854606dfd64736f6c63430008070033\n}\n",
				"bytecode": {
					"linkReferences": {},
					"object": "60806040526040518060400160405280600a81526020017f4c4520484f4e4720564f000000000000000000000000000000000000000000008152506000908051906020019061004f9291906100b2565b507f4e475559454e2056414e204100000000000000000000000000000000000000006001557f5452414e2054484920420000000000000000000000000000000000000000000060025542600355426004553480156100ac57600080fd5b506101b6565b8280546100be90610155565b90600052602060002090601f0160209004810192826100e05760008555610127565b82601f106100f957805160ff1916838001178555610127565b82800160010185558215610127579182015b8281111561012657825182559160200191906001019061010b565b5b5090506101349190610138565b5090565b5b80821115610151576000816000905550600101610139565b5090565b6000600282049050600182168061016d57607f821691505b6020821081141561018157610180610187565b5b50919050565b7f4e487b7100000000000000000000000000000000000000000000000000000000600052602260045260246000fd5b610352806101c56000396000f3fe608060405234801561001057600080fd5b50600436106100575760003560e01c806306fdde031461005c57806347c8efa71461007a5780634b67f6af14610098578063d18e81b3146100b6578063f70bd6dd146100d4575b600080fd5b6100646100f2565b604051610071919061020a565b60405180910390f35b610082610180565b60405161008f91906101ef565b60405180910390f35b6100a0610186565b6040516100ad91906101ef565b60405180910390f35b6100be61018c565b6040516100cb919061022c565b60405180910390f35b6100dc610192565b6040516100e9919061022c565b60405180910390f35b600080546100ff906102aa565b80601f016020809104026020016040519081016040528092919081815260200182805461012b906102aa565b80156101785780601f1061014d57610100808354040283529160200191610178565b820191906000526020600020905b81548152906001019060200180831161015b57829003601f168201915b505050505081565b60015481565b60025481565b60035481565b60045481565b6101a181610263565b82525050565b60006101b282610247565b6101bc8185610252565b93506101cc818560208601610277565b6101d58161030b565b840191505092915050565b6101e98161026d565b82525050565b60006020820190506102046000830184610198565b92915050565b6000602082019050818103600083015261022481846101a7565b905092915050565b600060208201905061024160008301846101e0565b92915050565b600081519050919050565b600082825260208201905092915050565b6000819050919050565b6000819050919050565b60005b8381101561029557808201518184015260208101905061027a565b838111156102a4576000848401525b50505050565b600060028204905060018216806102c257607f821691505b602082108114156102d6576102d56102dc565b5b50919050565b7f4e487b7100000000000000000000000000000000000000000000000000000000600052602260045260246000fd5b6000601f19601f830116905091905056fea2646970667358221220f55767592960a7ac119fa5abaa96b1b554ff349e5a71a4e86490fd3854606dfd64736f6c63430008070033",
					"opcodes": "PUSH1 0x80 PUSH1 0x40 MSTORE PUSH1 0x40 MLOAD DUP1 PUSH1 0x40 ADD PUSH1 0x40 MSTORE DUP1 PUSH1 0xA DUP2 MSTORE PUSH1 0x20 ADD PUSH32 0x4C4520484F4E4720564F00000000000000000000000000000000000000000000 DUP2 MSTORE POP PUSH1 0x0 SWAP1 DUP1 MLOAD SWAP1 PUSH1 0x20 ADD SWAP1 PUSH2 0x4F SWAP3 SWAP2 SWAP1 PUSH2 0xB2 JUMP JUMPDEST POP PUSH32 0x4E475559454E2056414E20410000000000000000000000000000000000000000 PUSH1 0x1 SSTORE PUSH32 0x5452414E20544849204200000000000000000000000000000000000000000000 PUSH1 0x2 SSTORE TIMESTAMP PUSH1 0x3 SSTORE TIMESTAMP PUSH1 0x4 SSTORE CALLVALUE DUP1 ISZERO PUSH2 0xAC JUMPI PUSH1 0x0 DUP1 REVERT JUMPDEST POP PUSH2 0x1B6 JUMP JUMPDEST DUP3 DUP1 SLOAD PUSH2 0xBE SWAP1 PUSH2 0x155 JUMP JUMPDEST SWAP1 PUSH1 0x0 MSTORE PUSH1 0x20 PUSH1 0x0 KECCAK256 SWAP1 PUSH1 0x1F ADD PUSH1 0x20 SWAP1 DIV DUP2 ADD SWAP3 DUP3 PUSH2 0xE0 JUMPI PUSH1 0x0 DUP6 SSTORE PUSH2 0x127 JUMP JUMPDEST DUP3 PUSH1 0x1F LT PUSH2 0xF9 JUMPI DUP1 MLOAD PUSH1 0xFF NOT AND DUP4 DUP1 ADD OR DUP6 SSTORE PUSH2 0x127 JUMP JUMPDEST DUP3 DUP1 ADD PUSH1 0x1 ADD DUP6 SSTORE DUP3 ISZERO PUSH2 0x127 JUMPI SWAP2 DUP3 ADD JUMPDEST DUP3 DUP2 GT ISZERO PUSH2 0x126 JUMPI DUP3 MLOAD DUP3 SSTORE SWAP2 PUSH1 0x20 ADD SWAP2 SWAP1 PUSH1 0x1 ADD SWAP1 PUSH2 0x10B JUMP JUMPDEST JUMPDEST POP SWAP1 POP PUSH2 0x134 SWAP2 SWAP1 PUSH2 0x138 JUMP JUMPDEST POP SWAP1 JUMP JUMPDEST JUMPDEST DUP1 DUP3 GT ISZERO PUSH2 0x151 JUMPI PUSH1 0x0 DUP2 PUSH1 0x0 SWAP1 SSTORE POP PUSH1 0x1 ADD PUSH2 0x139 JUMP JUMPDEST POP SWAP1 JUMP JUMPDEST PUSH1 0x0 PUSH1 0x2 DUP3 DIV SWAP1 POP PUSH1 0x1 DUP3 AND DUP1 PUSH2 0x16D JUMPI PUSH1 0x7F DUP3 AND SWAP2 POP JUMPDEST PUSH1 0x20 DUP3 LT DUP2 EQ ISZERO PUSH2 0x181 JUMPI PUSH2 0x180 PUSH2 0x187 JUMP JUMPDEST JUMPDEST POP SWAP2 SWAP1 POP JUMP JUMPDEST PUSH32 0x4E487B7100000000000000000000000000000000000000000000000000000000 PUSH1 0x0 MSTORE PUSH1 0x22 PUSH1 0x4 MSTORE PUSH1 0x24 PUSH1 0x0 REVERT JUMPDEST PUSH2 0x352 DUP1 PUSH2 0x1C5 PUSH1 0x0 CODECOPY PUSH1 0x0 RETURN INVALID PUSH1 0x80 PUSH1 0x40 MSTORE CALLVALUE DUP1 ISZERO PUSH2 0x10 JUMPI PUSH1 0x0 DUP1 REVERT JUMPDEST POP PUSH1 0x4 CALLDATASIZE LT PUSH2 0x57 JUMPI PUSH1 0x0 CALLDATALOAD PUSH1 0xE0 SHR DUP1 PUSH4 0x6FDDE03 EQ PUSH2 0x5C JUMPI DUP1 PUSH4 0x47C8EFA7 EQ PUSH2 0x7A JUMPI DUP1 PUSH4 0x4B67F6AF EQ PUSH2 0x98 JUMPI DUP1 PUSH4 0xD18E81B3 EQ PUSH2 0xB6 JUMPI DUP1 PUSH4 0xF70BD6DD EQ PUSH2 0xD4 JUMPI JUMPDEST PUSH1 0x0 DUP1 REVERT JUMPDEST PUSH2 0x64 PUSH2 0xF2 JUMP JUMPDEST PUSH1 0x40 MLOAD PUSH2 0x71 SWAP2 SWAP1 PUSH2 0x20A JUMP JUMPDEST PUSH1 0x40 MLOAD DUP1 SWAP2 SUB SWAP1 RETURN JUMPDEST PUSH2 0x82 PUSH2 0x180 JUMP JUMPDEST PUSH1 0x40 MLOAD PUSH2 0x8F SWAP2 SWAP1 PUSH2 0x1EF JUMP JUMPDEST PUSH1 0x40 MLOAD DUP1 SWAP2 SUB SWAP1 RETURN JUMPDEST PUSH2 0xA0 PUSH2 0x186 JUMP JUMPDEST PUSH1 0x40 MLOAD PUSH2 0xAD SWAP2 SWAP1 PUSH2 0x1EF JUMP JUMPDEST PUSH1 0x40 MLOAD DUP1 SWAP2 SUB SWAP1 RETURN JUMPDEST PUSH2 0xBE PUSH2 0x18C JUMP JUMPDEST PUSH1 0x40 MLOAD PUSH2 0xCB SWAP2 SWAP1 PUSH2 0x22C JUMP JUMPDEST PUSH1 0x40 MLOAD DUP1 SWAP2 SUB SWAP1 RETURN JUMPDEST PUSH2 0xDC PUSH2 0x192 JUMP JUMPDEST PUSH1 0x40 MLOAD PUSH2 0xE9 SWAP2 SWAP1 PUSH2 0x22C JUMP JUMPDEST PUSH1 0x40 MLOAD DUP1 SWAP2 SUB SWAP1 RETURN JUMPDEST PUSH1 0x0 DUP1 SLOAD PUSH2 0xFF SWAP1 PUSH2 0x2AA JUMP JUMPDEST DUP1 PUSH1 0x1F ADD PUSH1 0x20 DUP1 SWAP2 DIV MUL PUSH1 0x20 ADD PUSH1 0x40 MLOAD SWAP1 DUP2 ADD PUSH1 0x40 MSTORE DUP1 SWAP3 SWAP2 SWAP1 DUP2 DUP2 MSTORE PUSH1 0x20 ADD DUP3 DUP1 SLOAD PUSH2 0x12B SWAP1 PUSH2 0x2AA JUMP JUMPDEST DUP1 ISZERO PUSH2 0x178 JUMPI DUP1 PUSH1 0x1F LT PUSH2 0x14D JUMPI PUSH2 0x100 DUP1 DUP4 SLOAD DIV MUL DUP4 MSTORE SWAP2 PUSH1 0x20 ADD SWAP2 PUSH2 0x178 JUMP JUMPDEST DUP3 ADD SWAP2 SWAP1 PUSH1 0x0 MSTORE PUSH1 0x20 PUSH1 0x0 KECCAK256 SWAP1 JUMPDEST DUP2 SLOAD DUP2 MSTORE SWAP1 PUSH1 0x1 ADD SWAP1 PUSH1 0x20 ADD DUP1 DUP4 GT PUSH2 0x15B JUMPI DUP3 SWAP1 SUB PUSH1 0x1F AND DUP3 ADD SWAP2 JUMPDEST POP POP POP POP POP DUP2 JUMP JUMPDEST PUSH1 0x1 SLOAD DUP2 JUMP JUMPDEST PUSH1 0x2 SLOAD DUP2 JUMP JUMPDEST PUSH1 0x3 SLOAD DUP2 JUMP JUMPDEST PUSH1 0x4 SLOAD DUP2 JUMP JUMPDEST PUSH2 0x1A1 DUP2 PUSH2 0x263 JUMP JUMPDEST DUP3 MSTORE POP POP JUMP JUMPDEST PUSH1 0x0 PUSH2 0x1B2 DUP3 PUSH2 0x247 JUMP JUMPDEST PUSH2 0x1BC DUP2 DUP6 PUSH2 0x252 JUMP JUMPDEST SWAP4 POP PUSH2 0x1CC DUP2 DUP6 PUSH1 0x20 DUP7 ADD PUSH2 0x277 JUMP JUMPDEST PUSH2 0x1D5 DUP2 PUSH2 0x30B JUMP JUMPDEST DUP5 ADD SWAP2 POP POP SWAP3 SWAP2 POP POP JUMP JUMPDEST PUSH2 0x1E9 DUP2 PUSH2 0x26D JUMP JUMPDEST DUP3 MSTORE POP POP JUMP JUMPDEST PUSH1 0x0 PUSH1 0x20 DUP3 ADD SWAP1 POP PUSH2 0x204 PUSH1 0x0 DUP4 ADD DUP5 PUSH2 0x198 JUMP JUMPDEST SWAP3 SWAP2 POP POP JUMP JUMPDEST PUSH1 0x0 PUSH1 0x20 DUP3 ADD SWAP1 POP DUP2 DUP2 SUB PUSH1 0x0 DUP4 ADD MSTORE PUSH2 0x224 DUP2 DUP5 PUSH2 0x1A7 JUMP JUMPDEST SWAP1 POP SWAP3 SWAP2 POP POP JUMP JUMPDEST PUSH1 0x0 PUSH1 0x20 DUP3 ADD SWAP1 POP PUSH2 0x241 PUSH1 0x0 DUP4 ADD DUP5 PUSH2 0x1E0 JUMP JUMPDEST SWAP3 SWAP2 POP POP JUMP JUMPDEST PUSH1 0x0 DUP2 MLOAD SWAP1 POP SWAP2 SWAP1 POP JUMP JUMPDEST PUSH1 0x0 DUP3 DUP3 MSTORE PUSH1 0x20 DUP3 ADD SWAP1 POP SWAP3 SWAP2 POP POP JUMP JUMPDEST PUSH1 0x0 DUP2 SWAP1 POP SWAP2 SWAP1 POP JUMP JUMPDEST PUSH1 0x0 DUP2 SWAP1 POP SWAP2 SWAP1 POP JUMP JUMPDEST PUSH1 0x0 JUMPDEST DUP4 DUP2 LT ISZERO PUSH2 0x295 JUMPI DUP1 DUP3 ADD MLOAD DUP2 DUP5 ADD MSTORE PUSH1 0x20 DUP2 ADD SWAP1 POP PUSH2 0x27A JUMP JUMPDEST DUP4 DUP2 GT ISZERO PUSH2 0x2A4 JUMPI PUSH1 0x0 DUP5 DUP5 ADD MSTORE JUMPDEST POP POP POP POP JUMP JUMPDEST PUSH1 0x0 PUSH1 0x2 DUP3 DIV SWAP1 POP PUSH1 0x1 DUP3 AND DUP1 PUSH2 0x2C2 JUMPI PUSH1 0x7F DUP3 AND SWAP2 POP JUMPDEST PUSH1 0x20 DUP3 LT DUP2 EQ ISZERO PUSH2 0x2D6 JUMPI PUSH2 0x2D5 PUSH2 0x2DC JUMP JUMPDEST JUMPDEST POP SWAP2 SWAP1 POP JUMP JUMPDEST PUSH32 0x4E487B7100000000000000000000000000000000000000000000000000000000 PUSH1 0x0 MSTORE PUSH1 0x22 PUSH1 0x4 MSTORE PUSH1 0x24 PUSH1 0x0 REVERT JUMPDEST PUSH1 0x0 PUSH1 0x1F NOT PUSH1 0x1F DUP4 ADD AND SWAP1 POP SWAP2 SWAP1 POP JUMP INVALID LOG2 PUSH5 0x6970667358 0x22 SLT KECCAK256 CREATE2 JUMPI PUSH8 0x592960A7AC119FA5 0xAB 0xAA SWAP7 0xB1 0xB5 SLOAD SELFDESTRUCT CALLVALUE SWAP15 GAS PUSH18 0xA4E86490FD3854606DFD64736F6C63430008 SMOD STOP CALLER "
				},
				"gasEstimates": {
					"creation": {
						"codeDepositCost": "170000",
						"executionCost": "infinite",
						"totalCost": "infinite"
					},
					"external": {
						"currentTime()": "2473",
						"dataIndex()": "2495",
						"name()": "infinite",
						"name1()": "2429",
						"name2()": "2451"
					}
				},
				"methodIdentifiers": {
					"currentTime()": "d18e81b3",
					"dataIndex()": "f70bd6dd",
					"name()": "06fdde03",
					"name1()": "47c8efa7",
					"name2()": "4b67f6af"
				}
			},
			"userdoc": {
				"kind": "user",
				"methods": {},
				"version": 1
			}
		}
	}
}