{
	"data": {
		"bytecode": {
			"linkReferences": {},
			"object": "6080604052348015600f57600080fd5b50609d8061001e6000396000f3fe6080604052348015600f57600080fd5b506004361060285760003560e01c806338cc483114602d575b600080fd5b6033605f565b604051808273ffffffffffffffffffffffffffffffffffffffff16815260200191505060405180910390f35b60003090509056fea2646970667358221220ae158919bd9913aaaa4f880272df7aed11841e98ce6aa62e6c37336f9f58096864736f6c634300060c0033",
			"opcodes": "PUSH1 0x80 PUSH1 0x40 MSTORE CALLVALUE DUP1 ISZERO PUSH1 0xF JUMPI PUSH1 0x0 DUP1 REVERT JUMPDEST POP PUSH1 0x9D DUP1 PUSH2 0x1E PUSH1 0x0 CODECOPY PUSH1 0x0 RETURN INVALID PUSH1 0x80 PUSH1 0x40 MSTORE CALLVALUE DUP1 ISZERO PUSH1 0xF JUMPI PUSH1 0x0 DUP1 REVERT JUMPDEST POP PUSH1 0x4 CALLDATASIZE LT PUSH1 0x28 JUMPI PUSH1 0x0 CALLDATALOAD PUSH1 0xE0 SHR DUP1 PUSH4 0x38CC4831 EQ PUSH1 0x2D JUMPI JUMPDEST PUSH1 0x0 DUP1 REVERT JUMPDEST PUSH1 0x33 PUSH1 0x5F JUMP JUMPDEST PUSH1 0x40 MLOAD DUP1 DUP3 PUSH20 0xFFFFFFFFFFFFFFFFFFFFFFFFFFFFFFFFFFFFFFFF AND DUP2 MSTORE PUSH1 0x20 ADD SWAP2 POP POP PUSH1 0x40 MLOAD DUP1 SWAP2 SUB SWAP1 RETURN JUMPDEST PUSH1 0x0 ADDRESS SWAP1 POP SWAP1 JUMP INVALID LOG2 PUSH5 0x6970667358 0x22 SLT KECCAK256 0xAE ISZERO DUP10 NOT 0xBD SWAP10 SGT 0xAA 0xAA 0x4F DUP9 MUL PUSH19 0xDF7AED11841E98CE6AA62E6C37336F9F580968 PUSH5 0x736F6C6343 STOP MOD 0xC STOP CALLER "
		},
		"gasEstimates": {
			"creation": {
				"codeDepositCost": "31400",
				"executionCost": "81",
				"totalCost": "31481"
			},
			"external": {
				"getAddress()": "196"
			}
		},
		"methodIdentifiers": {
			"getAddress()": "38cc4831"
		}
	},
	"abi": [
		{
			"inputs": [],
			"name": "getAddress",
			"outputs": [
				{
					"internalType": "address",
					"name": "",
					"type": "address"
				}
			],
			"stateMutability": "view",
			"type": "function"
		}
	]
}