{
	"contracts/SafeERC20.sol": {
		"SafeERC20": {
			"abi": [
				{
					"inputs": [
						{
							"internalType": "contract IERC20",
							"name": "token",
							"type": "address"
						}
					],
					"name": "getData",
					"outputs": [
						{
							"internalType": "string",
							"name": "",
							"type": "string"
						}
					],
					"stateMutability": "view",
					"type": "function"
				},
				{
					"inputs": [
						{
							"internalType": "contract IERC20",
							"name": "token",
							"type": "address"
						}
					],
					"name": "safeDecimals",
					"outputs": [
						{
							"internalType": "uint8",
							"name": "",
							"type": "uint8"
						}
					],
					"stateMutability": "view",
					"type": "function"
				}
			],
			"devdoc": {
				"kind": "dev",
				"methods": {},
				"version": 1
			},
			"evm": {
				"assembly": "    /* \"contracts/SafeERC20.sol\":86:2061  contract SafeERC20 {\r... */\n  mstore(0x40, 0x80)\n  callvalue\n  dup1\n  iszero\n  tag_1\n  jumpi\n  0x00\n  dup1\n  revert\ntag_1:\n  pop\n  dataSize(sub_0)\n  dup1\n  dataOffset(sub_0)\n  0x00\n  codecopy\n  0x00\n  return\nstop\n\nsub_0: assembly {\n        /* \"contracts/SafeERC20.sol\":86:2061  contract SafeERC20 {\r... */\n      mstore(0x40, 0x80)\n      callvalue\n      dup1\n      iszero\n      tag_1\n      jumpi\n      0x00\n      dup1\n      revert\n    tag_1:\n      pop\n      jumpi(tag_2, lt(calldatasize, 0x04))\n      shr(0xe0, calldataload(0x00))\n      dup1\n      0x38266b22\n      eq\n      tag_3\n      jumpi\n      dup1\n      0xbe3dcf62\n      eq\n      tag_4\n      jumpi\n    tag_2:\n      0x00\n      dup1\n      revert\n        /* \"contracts/SafeERC20.sol\":118:226  function getData(IERC20 token) public view returns(string memory){\r... */\n    tag_3:\n      tag_5\n      0x04\n      dup1\n      calldatasize\n      sub\n      0x20\n      dup2\n      lt\n      iszero\n      tag_6\n      jumpi\n      0x00\n      dup1\n      revert\n    tag_6:\n      dup2\n      add\n      swap1\n      dup1\n      dup1\n      calldataload\n      0xffffffffffffffffffffffffffffffffffffffff\n      and\n      swap1\n      0x20\n      add\n      swap1\n      swap3\n      swap2\n      swap1\n      pop\n      pop\n      pop\n      tag_7\n      jump\t// in\n    tag_5:\n      mload(0x40)\n      dup1\n      dup1\n      0x20\n      add\n      dup3\n      dup2\n      sub\n      dup3\n      mstore\n      dup4\n      dup2\n      dup2\n      mload\n      dup2\n      mstore\n      0x20\n      add\n      swap2\n      pop\n      dup1\n      mload\n      swap1\n      0x20\n      add\n      swap1\n      dup1\n      dup4\n      dup4\n      0x00\n    tag_8:\n      dup4\n      dup2\n      lt\n      iszero\n      tag_10\n      jumpi\n      dup1\n      dup3\n      add\n      mload\n      dup2\n      dup5\n      add\n      mstore\n      0x20\n      dup2\n      add\n      swap1\n      pop\n      jump(tag_8)\n    tag_10:\n      pop\n      pop\n      pop\n      pop\n      swap1\n      pop\n      swap1\n      dup2\n      add\n      swap1\n      0x1f\n      and\n      dup1\n      iszero\n      tag_11\n      jumpi\n      dup1\n      dup3\n      sub\n      dup1\n      mload\n      0x01\n      dup4\n      0x20\n      sub\n      0x0100\n      exp\n      sub\n      not\n      and\n      dup2\n      mstore\n      0x20\n      add\n      swap2\n      pop\n    tag_11:\n      pop\n      swap3\n      pop\n      pop\n      pop\n      mload(0x40)\n      dup1\n      swap2\n      sub\n      swap1\n      return\n        /* \"contracts/SafeERC20.sol\":1039:1298  function safeDecimals(IERC20 token) public view returns (uint8) {\r... */\n    tag_4:\n      tag_12\n      0x04\n      dup1\n      calldatasize\n      sub\n      0x20\n      dup2\n      lt\n      iszero\n      tag_13\n      jumpi\n      0x00\n      dup1\n      revert\n    tag_13:\n      dup2\n      add\n      swap1\n      dup1\n      dup1\n      calldataload\n      0xffffffffffffffffffffffffffffffffffffffff\n      and\n      swap1\n      0x20\n      add\n      swap1\n      swap3\n      swap2\n      swap1\n      pop\n      pop\n      pop\n      tag_14\n      jump\t// in\n    tag_12:\n      mload(0x40)\n      dup1\n      dup3\n      0xff\n      and\n      dup2\n      mstore\n      0x20\n      add\n      swap2\n      pop\n      pop\n      mload(0x40)\n      dup1\n      swap2\n      sub\n      swap1\n      return\n        /* \"contracts/SafeERC20.sol\":118:226  function getData(IERC20 token) public view returns(string memory){\r... */\n    tag_7:\n        /* \"contracts/SafeERC20.sol\":169:182  string memory */\n      0x60\n        /* \"contracts/SafeERC20.sol\":201:218  safeSymbol(token) */\n      tag_16\n        /* \"contracts/SafeERC20.sol\":212:217  token */\n      dup3\n        /* \"contracts/SafeERC20.sol\":201:211  safeSymbol */\n      tag_17\n        /* \"contracts/SafeERC20.sol\":201:218  safeSymbol(token) */\n      jump\t// in\n    tag_16:\n        /* \"contracts/SafeERC20.sol\":194:218  return safeSymbol(token) */\n      swap1\n      pop\n        /* \"contracts/SafeERC20.sol\":118:226  function getData(IERC20 token) public view returns(string memory){\r... */\n      swap2\n      swap1\n      pop\n      jump\t// out\n        /* \"contracts/SafeERC20.sol\":1039:1298  function safeDecimals(IERC20 token) public view returns (uint8) {\r... */\n    tag_14:\n        /* \"contracts/SafeERC20.sol\":1096:1101  uint8 */\n      0x00\n        /* \"contracts/SafeERC20.sol\":1115:1127  bool success */\n      dup1\n        /* \"contracts/SafeERC20.sol\":1129:1146  bytes memory data */\n      0x60\n        /* \"contracts/SafeERC20.sol\":1158:1163  token */\n      dup4\n        /* \"contracts/SafeERC20.sol\":1150:1175  address(token).staticcall */\n      0xffffffffffffffffffffffffffffffffffffffff\n      and\n        /* \"contracts/SafeERC20.sol\":1199:1209  0x313ce567 */\n      0x313ce567\n        /* \"contracts/SafeERC20.sol\":1176:1210  abi.encodeWithSelector(0x313ce567) */\n      add(0x24, mload(0x40))\n      mload(0x40)\n      0x20\n      dup2\n      dup4\n      sub\n      sub\n      dup2\n      mstore\n      swap1\n      0x40\n      mstore\n      swap1\n      0xe0\n      shl\n      0x20\n      dup3\n      add\n      dup1\n      mload\n      0xffffffffffffffffffffffffffffffffffffffffffffffffffffffff\n      dup4\n      dup2\n      dup4\n      and\n      or\n      dup4\n      mstore\n      pop\n      pop\n      pop\n      pop\n        /* \"contracts/SafeERC20.sol\":1150:1211  address(token).staticcall(abi.encodeWithSelector(0x313ce567)) */\n      mload(0x40)\n      dup1\n      dup3\n      dup1\n      mload\n      swap1\n      0x20\n      add\n      swap1\n      dup1\n      dup4\n      dup4\n    tag_19:\n      0x20\n      dup4\n      lt\n      tag_21\n      jumpi\n      dup1\n      mload\n      dup3\n      mstore\n      0x20\n      dup3\n      add\n      swap2\n      pop\n      0x20\n      dup2\n      add\n      swap1\n      pop\n      0x20\n      dup4\n      sub\n      swap3\n      pop\n      jump(tag_19)\n    tag_21:\n      0x01\n      dup4\n      0x20\n      sub\n      0x0100\n      exp\n      sub\n      dup1\n      not\n      dup3\n      mload\n      and\n      dup2\n      dup5\n      mload\n      and\n      dup1\n      dup3\n      or\n      dup6\n      mstore\n      pop\n      pop\n      pop\n      pop\n      pop\n      pop\n      swap1\n      pop\n      add\n      swap2\n      pop\n      pop\n      0x00\n      mload(0x40)\n      dup1\n      dup4\n      sub\n      dup2\n      dup6\n      gas\n      staticcall\n      swap2\n      pop\n      pop\n      returndatasize\n      dup1\n      0x00\n      dup2\n      eq\n      tag_24\n      jumpi\n      mload(0x40)\n      swap2\n      pop\n      and(add(returndatasize, 0x3f), not(0x1f))\n      dup3\n      add\n      0x40\n      mstore\n      returndatasize\n      dup3\n      mstore\n      returndatasize\n      0x00\n      0x20\n      dup5\n      add\n      returndatacopy\n      jump(tag_23)\n    tag_24:\n      0x60\n      swap2\n      pop\n    tag_23:\n      pop\n        /* \"contracts/SafeERC20.sol\":1114:1211  (bool success, bytes memory data) = address(token).staticcall(abi.encodeWithSelector(0x313ce567)) */\n      swap2\n      pop\n      swap2\n      pop\n        /* \"contracts/SafeERC20.sol\":1229:1236  success */\n      dup2\n        /* \"contracts/SafeERC20.sol\":1229:1257  success && data.length == 32 */\n      dup1\n      iszero\n      tag_25\n      jumpi\n      pop\n        /* \"contracts/SafeERC20.sol\":1255:1257  32 */\n      0x20\n        /* \"contracts/SafeERC20.sol\":1240:1244  data */\n      dup2\n        /* \"contracts/SafeERC20.sol\":1240:1251  data.length */\n      mload\n        /* \"contracts/SafeERC20.sol\":1240:1257  data.length == 32 */\n      eq\n        /* \"contracts/SafeERC20.sol\":1229:1257  success && data.length == 32 */\n    tag_25:\n        /* \"contracts/SafeERC20.sol\":1229:1290  success && data.length == 32 ? abi.decode(data, (uint8)) : 18 */\n      tag_26\n      jumpi\n        /* \"contracts/SafeERC20.sol\":1288:1290  18 */\n      0x12\n        /* \"contracts/SafeERC20.sol\":1229:1290  success && data.length == 32 ? abi.decode(data, (uint8)) : 18 */\n      jump(tag_27)\n    tag_26:\n        /* \"contracts/SafeERC20.sol\":1271:1275  data */\n      dup1\n        /* \"contracts/SafeERC20.sol\":1260:1285  abi.decode(data, (uint8)) */\n      dup1\n      0x20\n      add\n      swap1\n      mload\n      0x20\n      dup2\n      lt\n      iszero\n      tag_28\n      jumpi\n      0x00\n      dup1\n      revert\n    tag_28:\n      dup2\n      add\n      swap1\n      dup1\n      dup1\n      mload\n      swap1\n      0x20\n      add\n      swap1\n      swap3\n      swap2\n      swap1\n      pop\n      pop\n      pop\n        /* \"contracts/SafeERC20.sol\":1229:1290  success && data.length == 32 ? abi.decode(data, (uint8)) : 18 */\n    tag_27:\n        /* \"contracts/SafeERC20.sol\":1222:1290  return success && data.length == 32 ? abi.decode(data, (uint8)) : 18 */\n      swap3\n      pop\n      pop\n      pop\n        /* \"contracts/SafeERC20.sol\":1039:1298  function safeDecimals(IERC20 token) public view returns (uint8) {\r... */\n      swap2\n      swap1\n      pop\n      jump\t// out\n        /* \"contracts/SafeERC20.sol\":364:632  function safeSymbol(IERC20 token) internal view returns(string memory) {\r... */\n    tag_17:\n        /* \"contracts/SafeERC20.sol\":420:433  string memory */\n      0x60\n        /* \"contracts/SafeERC20.sol\":447:459  bool success */\n      0x00\n        /* \"contracts/SafeERC20.sol\":461:478  bytes memory data */\n      0x60\n        /* \"contracts/SafeERC20.sol\":490:495  token */\n      dup4\n        /* \"contracts/SafeERC20.sol\":482:507  address(token).staticcall */\n      0xffffffffffffffffffffffffffffffffffffffff\n      and\n        /* \"contracts/SafeERC20.sol\":531:541  0x95d89b41 */\n      0x95d89b41\n        /* \"contracts/SafeERC20.sol\":508:542  abi.encodeWithSelector(0x95d89b41) */\n      add(0x24, mload(0x40))\n      mload(0x40)\n      0x20\n      dup2\n      dup4\n      sub\n      sub\n      dup2\n      mstore\n      swap1\n      0x40\n      mstore\n      swap1\n      0xe0\n      shl\n      0x20\n      dup3\n      add\n      dup1\n      mload\n      0xffffffffffffffffffffffffffffffffffffffffffffffffffffffff\n      dup4\n      dup2\n      dup4\n      and\n      or\n      dup4\n      mstore\n      pop\n      pop\n      pop\n      pop\n        /* \"contracts/SafeERC20.sol\":482:543  address(token).staticcall(abi.encodeWithSelector(0x95d89b41)) */\n      mload(0x40)\n      dup1\n      dup3\n      dup1\n      mload\n      swap1\n      0x20\n      add\n      swap1\n      dup1\n      dup4\n      dup4\n    tag_30:\n      0x20\n      dup4\n      lt\n      tag_32\n      jumpi\n      dup1\n      mload\n      dup3\n      mstore\n      0x20\n      dup3\n      add\n      swap2\n      pop\n      0x20\n      dup2\n      add\n      swap1\n      pop\n      0x20\n      dup4\n      sub\n      swap3\n      pop\n      jump(tag_30)\n    tag_32:\n      0x01\n      dup4\n      0x20\n      sub\n      0x0100\n      exp\n      sub\n      dup1\n      not\n      dup3\n      mload\n      and\n      dup2\n      dup5\n      mload\n      and\n      dup1\n      dup3\n      or\n      dup6\n      mstore\n      pop\n      pop\n      pop\n      pop\n      pop\n      pop\n      swap1\n      pop\n      add\n      swap2\n      pop\n      pop\n      0x00\n      mload(0x40)\n      dup1\n      dup4\n      sub\n      dup2\n      dup6\n      gas\n      staticcall\n      swap2\n      pop\n      pop\n      returndatasize\n      dup1\n      0x00\n      dup2\n      eq\n      tag_35\n      jumpi\n      mload(0x40)\n      swap2\n      pop\n      and(add(returndatasize, 0x3f), not(0x1f))\n      dup3\n      add\n      0x40\n      mstore\n      returndatasize\n      dup3\n      mstore\n      returndatasize\n      0x00\n      0x20\n      dup5\n      add\n      returndatacopy\n      jump(tag_34)\n    tag_35:\n      0x60\n      swap2\n      pop\n    tag_34:\n      pop\n        /* \"contracts/SafeERC20.sol\":446:543  (bool success, bytes memory data) = address(token).staticcall(abi.encodeWithSelector(0x95d89b41)) */\n      swap2\n      pop\n      swap2\n      pop\n        /* \"contracts/SafeERC20.sol\":561:568  success */\n      dup2\n        /* \"contracts/SafeERC20.sol\":561:587  success && data.length > 0 */\n      dup1\n      iszero\n      tag_36\n      jumpi\n      pop\n        /* \"contracts/SafeERC20.sol\":586:587  0 */\n      0x00\n        /* \"contracts/SafeERC20.sol\":572:576  data */\n      dup2\n        /* \"contracts/SafeERC20.sol\":572:583  data.length */\n      mload\n        /* \"contracts/SafeERC20.sol\":572:587  data.length > 0 */\n      gt\n        /* \"contracts/SafeERC20.sol\":561:587  success && data.length > 0 */\n    tag_36:\n        /* \"contracts/SafeERC20.sol\":561:624  success && data.length > 0 ? abi.decode(data, (string)) : \"???\" */\n      tag_37\n      jumpi\n      mload(0x40)\n      dup1\n      0x40\n      add\n      0x40\n      mstore\n      dup1\n      0x03\n      dup2\n      mstore\n      0x20\n      add\n      0x3f3f3f0000000000000000000000000000000000000000000000000000000000\n      dup2\n      mstore\n      pop\n      jump(tag_38)\n    tag_37:\n        /* \"contracts/SafeERC20.sol\":601:605  data */\n      dup1\n        /* \"contracts/SafeERC20.sol\":590:616  abi.decode(data, (string)) */\n      dup1\n      0x20\n      add\n      swap1\n      mload\n      0x20\n      dup2\n      lt\n      iszero\n      tag_39\n      jumpi\n      0x00\n      dup1\n      revert\n    tag_39:\n      dup2\n      add\n      swap1\n      dup1\n      dup1\n      mload\n      mload(0x40)\n      swap4\n      swap3\n      swap2\n      swap1\n      dup5\n      0x0100000000\n      dup3\n      gt\n      iszero\n      tag_40\n      jumpi\n      0x00\n      dup1\n      revert\n    tag_40:\n      dup4\n      dup3\n      add\n      swap2\n      pop\n      0x20\n      dup3\n      add\n      dup6\n      dup2\n      gt\n      iszero\n      tag_41\n      jumpi\n      0x00\n      dup1\n      revert\n    tag_41:\n      dup3\n      mload\n      dup7\n      0x01\n      dup3\n      mul\n      dup4\n      add\n      gt\n      0x0100000000\n      dup3\n      gt\n      or\n      iszero\n      tag_42\n      jumpi\n      0x00\n      dup1\n      revert\n    tag_42:\n      dup1\n      dup4\n      mstore\n      0x20\n      dup4\n      add\n      swap3\n      pop\n      pop\n      pop\n      swap1\n      dup1\n      mload\n      swap1\n      0x20\n      add\n      swap1\n      dup1\n      dup4\n      dup4\n      0x00\n    tag_43:\n      dup4\n      dup2\n      lt\n      iszero\n      tag_45\n      jumpi\n      dup1\n      dup3\n      add\n      mload\n      dup2\n      dup5\n      add\n      mstore\n      0x20\n      dup2\n      add\n      swap1\n      pop\n      jump(tag_43)\n    tag_45:\n      pop\n      pop\n      pop\n      pop\n      swap1\n      pop\n      swap1\n      dup2\n      add\n      swap1\n      0x1f\n      and\n      dup1\n      iszero\n      tag_46\n      jumpi\n      dup1\n      dup3\n      sub\n      dup1\n      mload\n      0x01\n      dup4\n      0x20\n      sub\n      0x0100\n      exp\n      sub\n      not\n      and\n      dup2\n      mstore\n      0x20\n      add\n      swap2\n      pop\n    tag_46:\n      pop\n      0x40\n      mstore\n      pop\n      pop\n      pop\n        /* \"contracts/SafeERC20.sol\":561:624  success && data.length > 0 ? abi.decode(data, (string)) : \"???\" */\n    tag_38:\n        /* \"contracts/SafeERC20.sol\":554:624  return success && data.length > 0 ? abi.decode(data, (string)) : \"???\" */\n      swap3\n      pop\n      pop\n      pop\n        /* \"contracts/SafeERC20.sol\":364:632  function safeSymbol(IERC20 token) internal view returns(string memory) {\r... */\n      swap2\n      swap1\n      pop\n      jump\t// out\n\n    auxdata: 0xa26469706673582212206eb9056302c3f45b994a0d558ba7888cb400e77840cf61256ceadf3bc2728c8464736f6c634300060c0033\n}\n",
				"bytecode": {
					"linkReferences": {},
					"object": "608060405234801561001057600080fd5b50610516806100206000396000f3fe608060405234801561001057600080fd5b50600436106100365760003560e01c806338266b221461003b578063be3dcf62146100f8575b600080fd5b61007d6004803603602081101561005157600080fd5b81019080803573ffffffffffffffffffffffffffffffffffffffff169060200190929190505050610153565b6040518080602001828103825283818151815260200191508051906020019080838360005b838110156100bd5780820151818401526020810190506100a2565b50505050905090810190601f1680156100ea5780820380516001836020036101000a031916815260200191505b509250505060405180910390f35b61013a6004803603602081101561010e57600080fd5b81019080803573ffffffffffffffffffffffffffffffffffffffff169060200190929190505050610165565b604051808260ff16815260200191505060405180910390f35b606061015e826102b3565b9050919050565b60008060608373ffffffffffffffffffffffffffffffffffffffff1663313ce5676040516024016040516020818303038152906040529060e01b6020820180517bffffffffffffffffffffffffffffffffffffffffffffffffffffffff83818316178352505050506040518082805190602001908083835b6020831061020057805182526020820191506020810190506020830392506101dd565b6001836020036101000a038019825116818451168082178552505050505050905001915050600060405180830381855afa9150503d8060008114610260576040519150601f19603f3d011682016040523d82523d6000602084013e610265565b606091505b5091509150818015610278575060208151145b6102835760126102aa565b80806020019051602081101561029857600080fd5b81019080805190602001909291905050505b92505050919050565b6060600060608373ffffffffffffffffffffffffffffffffffffffff166395d89b416040516024016040516020818303038152906040529060e01b6020820180517bffffffffffffffffffffffffffffffffffffffffffffffffffffffff83818316178352505050506040518082805190602001908083835b6020831061034f578051825260208201915060208101905060208303925061032c565b6001836020036101000a038019825116818451168082178552505050505050905001915050600060405180830381855afa9150503d80600081146103af576040519150601f19603f3d011682016040523d82523d6000602084013e6103b4565b606091505b50915091508180156103c7575060008151115b610406576040518060400160405280600381526020017f3f3f3f00000000000000000000000000000000000000000000000000000000008152506104d7565b80806020019051602081101561041b57600080fd5b810190808051604051939291908464010000000082111561043b57600080fd5b8382019150602082018581111561045157600080fd5b825186600182028301116401000000008211171561046e57600080fd5b8083526020830192505050908051906020019080838360005b838110156104a2578082015181840152602081019050610487565b50505050905090810190601f1680156104cf5780820380516001836020036101000a031916815260200191505b506040525050505b9250505091905056fea26469706673582212206eb9056302c3f45b994a0d558ba7888cb400e77840cf61256ceadf3bc2728c8464736f6c634300060c0033",
					"opcodes": "PUSH1 0x80 PUSH1 0x40 MSTORE CALLVALUE DUP1 ISZERO PUSH2 0x10 JUMPI PUSH1 0x0 DUP1 REVERT JUMPDEST POP PUSH2 0x516 DUP1 PUSH2 0x20 PUSH1 0x0 CODECOPY PUSH1 0x0 RETURN INVALID PUSH1 0x80 PUSH1 0x40 MSTORE CALLVALUE DUP1 ISZERO PUSH2 0x10 JUMPI PUSH1 0x0 DUP1 REVERT JUMPDEST POP PUSH1 0x4 CALLDATASIZE LT PUSH2 0x36 JUMPI PUSH1 0x0 CALLDATALOAD PUSH1 0xE0 SHR DUP1 PUSH4 0x38266B22 EQ PUSH2 0x3B JUMPI DUP1 PUSH4 0xBE3DCF62 EQ PUSH2 0xF8 JUMPI JUMPDEST PUSH1 0x0 DUP1 REVERT JUMPDEST PUSH2 0x7D PUSH1 0x4 DUP1 CALLDATASIZE SUB PUSH1 0x20 DUP2 LT ISZERO PUSH2 0x51 JUMPI PUSH1 0x0 DUP1 REVERT JUMPDEST DUP2 ADD SWAP1 DUP1 DUP1 CALLDATALOAD PUSH20 0xFFFFFFFFFFFFFFFFFFFFFFFFFFFFFFFFFFFFFFFF AND SWAP1 PUSH1 0x20 ADD SWAP1 SWAP3 SWAP2 SWAP1 POP POP POP PUSH2 0x153 JUMP JUMPDEST PUSH1 0x40 MLOAD DUP1 DUP1 PUSH1 0x20 ADD DUP3 DUP2 SUB DUP3 MSTORE DUP4 DUP2 DUP2 MLOAD DUP2 MSTORE PUSH1 0x20 ADD SWAP2 POP DUP1 MLOAD SWAP1 PUSH1 0x20 ADD SWAP1 DUP1 DUP4 DUP4 PUSH1 0x0 JUMPDEST DUP4 DUP2 LT ISZERO PUSH2 0xBD JUMPI DUP1 DUP3 ADD MLOAD DUP2 DUP5 ADD MSTORE PUSH1 0x20 DUP2 ADD SWAP1 POP PUSH2 0xA2 JUMP JUMPDEST POP POP POP POP SWAP1 POP SWAP1 DUP2 ADD SWAP1 PUSH1 0x1F AND DUP1 ISZERO PUSH2 0xEA JUMPI DUP1 DUP3 SUB DUP1 MLOAD PUSH1 0x1 DUP4 PUSH1 0x20 SUB PUSH2 0x100 EXP SUB NOT AND DUP2 MSTORE PUSH1 0x20 ADD SWAP2 POP JUMPDEST POP SWAP3 POP POP POP PUSH1 0x40 MLOAD DUP1 SWAP2 SUB SWAP1 RETURN JUMPDEST PUSH2 0x13A PUSH1 0x4 DUP1 CALLDATASIZE SUB PUSH1 0x20 DUP2 LT ISZERO PUSH2 0x10E JUMPI PUSH1 0x0 DUP1 REVERT JUMPDEST DUP2 ADD SWAP1 DUP1 DUP1 CALLDATALOAD PUSH20 0xFFFFFFFFFFFFFFFFFFFFFFFFFFFFFFFFFFFFFFFF AND SWAP1 PUSH1 0x20 ADD SWAP1 SWAP3 SWAP2 SWAP1 POP POP POP PUSH2 0x165 JUMP JUMPDEST PUSH1 0x40 MLOAD DUP1 DUP3 PUSH1 0xFF AND DUP2 MSTORE PUSH1 0x20 ADD SWAP2 POP POP PUSH1 0x40 MLOAD DUP1 SWAP2 SUB SWAP1 RETURN JUMPDEST PUSH1 0x60 PUSH2 0x15E DUP3 PUSH2 0x2B3 JUMP JUMPDEST SWAP1 POP SWAP2 SWAP1 POP JUMP JUMPDEST PUSH1 0x0 DUP1 PUSH1 0x60 DUP4 PUSH20 0xFFFFFFFFFFFFFFFFFFFFFFFFFFFFFFFFFFFFFFFF AND PUSH4 0x313CE567 PUSH1 0x40 MLOAD PUSH1 0x24 ADD PUSH1 0x40 MLOAD PUSH1 0x20 DUP2 DUP4 SUB SUB DUP2 MSTORE SWAP1 PUSH1 0x40 MSTORE SWAP1 PUSH1 0xE0 SHL PUSH1 0x20 DUP3 ADD DUP1 MLOAD PUSH28 0xFFFFFFFFFFFFFFFFFFFFFFFFFFFFFFFFFFFFFFFFFFFFFFFFFFFFFFFF DUP4 DUP2 DUP4 AND OR DUP4 MSTORE POP POP POP POP PUSH1 0x40 MLOAD DUP1 DUP3 DUP1 MLOAD SWAP1 PUSH1 0x20 ADD SWAP1 DUP1 DUP4 DUP4 JUMPDEST PUSH1 0x20 DUP4 LT PUSH2 0x200 JUMPI DUP1 MLOAD DUP3 MSTORE PUSH1 0x20 DUP3 ADD SWAP2 POP PUSH1 0x20 DUP2 ADD SWAP1 POP PUSH1 0x20 DUP4 SUB SWAP3 POP PUSH2 0x1DD JUMP JUMPDEST PUSH1 0x1 DUP4 PUSH1 0x20 SUB PUSH2 0x100 EXP SUB DUP1 NOT DUP3 MLOAD AND DUP2 DUP5 MLOAD AND DUP1 DUP3 OR DUP6 MSTORE POP POP POP POP POP POP SWAP1 POP ADD SWAP2 POP POP PUSH1 0x0 PUSH1 0x40 MLOAD DUP1 DUP4 SUB DUP2 DUP6 GAS STATICCALL SWAP2 POP POP RETURNDATASIZE DUP1 PUSH1 0x0 DUP2 EQ PUSH2 0x260 JUMPI PUSH1 0x40 MLOAD SWAP2 POP PUSH1 0x1F NOT PUSH1 0x3F RETURNDATASIZE ADD AND DUP3 ADD PUSH1 0x40 MSTORE RETURNDATASIZE DUP3 MSTORE RETURNDATASIZE PUSH1 0x0 PUSH1 0x20 DUP5 ADD RETURNDATACOPY PUSH2 0x265 JUMP JUMPDEST PUSH1 0x60 SWAP2 POP JUMPDEST POP SWAP2 POP SWAP2 POP DUP2 DUP1 ISZERO PUSH2 0x278 JUMPI POP PUSH1 0x20 DUP2 MLOAD EQ JUMPDEST PUSH2 0x283 JUMPI PUSH1 0x12 PUSH2 0x2AA JUMP JUMPDEST DUP1 DUP1 PUSH1 0x20 ADD SWAP1 MLOAD PUSH1 0x20 DUP2 LT ISZERO PUSH2 0x298 JUMPI PUSH1 0x0 DUP1 REVERT JUMPDEST DUP2 ADD SWAP1 DUP1 DUP1 MLOAD SWAP1 PUSH1 0x20 ADD SWAP1 SWAP3 SWAP2 SWAP1 POP POP POP JUMPDEST SWAP3 POP POP POP SWAP2 SWAP1 POP JUMP JUMPDEST PUSH1 0x60 PUSH1 0x0 PUSH1 0x60 DUP4 PUSH20 0xFFFFFFFFFFFFFFFFFFFFFFFFFFFFFFFFFFFFFFFF AND PUSH4 0x95D89B41 PUSH1 0x40 MLOAD PUSH1 0x24 ADD PUSH1 0x40 MLOAD PUSH1 0x20 DUP2 DUP4 SUB SUB DUP2 MSTORE SWAP1 PUSH1 0x40 MSTORE SWAP1 PUSH1 0xE0 SHL PUSH1 0x20 DUP3 ADD DUP1 MLOAD PUSH28 0xFFFFFFFFFFFFFFFFFFFFFFFFFFFFFFFFFFFFFFFFFFFFFFFFFFFFFFFF DUP4 DUP2 DUP4 AND OR DUP4 MSTORE POP POP POP POP PUSH1 0x40 MLOAD DUP1 DUP3 DUP1 MLOAD SWAP1 PUSH1 0x20 ADD SWAP1 DUP1 DUP4 DUP4 JUMPDEST PUSH1 0x20 DUP4 LT PUSH2 0x34F JUMPI DUP1 MLOAD DUP3 MSTORE PUSH1 0x20 DUP3 ADD SWAP2 POP PUSH1 0x20 DUP2 ADD SWAP1 POP PUSH1 0x20 DUP4 SUB SWAP3 POP PUSH2 0x32C JUMP JUMPDEST PUSH1 0x1 DUP4 PUSH1 0x20 SUB PUSH2 0x100 EXP SUB DUP1 NOT DUP3 MLOAD AND DUP2 DUP5 MLOAD AND DUP1 DUP3 OR DUP6 MSTORE POP POP POP POP POP POP SWAP1 POP ADD SWAP2 POP POP PUSH1 0x0 PUSH1 0x40 MLOAD DUP1 DUP4 SUB DUP2 DUP6 GAS STATICCALL SWAP2 POP POP RETURNDATASIZE DUP1 PUSH1 0x0 DUP2 EQ PUSH2 0x3AF JUMPI PUSH1 0x40 MLOAD SWAP2 POP PUSH1 0x1F NOT PUSH1 0x3F RETURNDATASIZE ADD AND DUP3 ADD PUSH1 0x40 MSTORE RETURNDATASIZE DUP3 MSTORE RETURNDATASIZE PUSH1 0x0 PUSH1 0x20 DUP5 ADD RETURNDATACOPY PUSH2 0x3B4 JUMP JUMPDEST PUSH1 0x60 SWAP2 POP JUMPDEST POP SWAP2 POP SWAP2 POP DUP2 DUP1 ISZERO PUSH2 0x3C7 JUMPI POP PUSH1 0x0 DUP2 MLOAD GT JUMPDEST PUSH2 0x406 JUMPI PUSH1 0x40 MLOAD DUP1 PUSH1 0x40 ADD PUSH1 0x40 MSTORE DUP1 PUSH1 0x3 DUP2 MSTORE PUSH1 0x20 ADD PUSH32 0x3F3F3F0000000000000000000000000000000000000000000000000000000000 DUP2 MSTORE POP PUSH2 0x4D7 JUMP JUMPDEST DUP1 DUP1 PUSH1 0x20 ADD SWAP1 MLOAD PUSH1 0x20 DUP2 LT ISZERO PUSH2 0x41B JUMPI PUSH1 0x0 DUP1 REVERT JUMPDEST DUP2 ADD SWAP1 DUP1 DUP1 MLOAD PUSH1 0x40 MLOAD SWAP4 SWAP3 SWAP2 SWAP1 DUP5 PUSH5 0x100000000 DUP3 GT ISZERO PUSH2 0x43B JUMPI PUSH1 0x0 DUP1 REVERT JUMPDEST DUP4 DUP3 ADD SWAP2 POP PUSH1 0x20 DUP3 ADD DUP6 DUP2 GT ISZERO PUSH2 0x451 JUMPI PUSH1 0x0 DUP1 REVERT JUMPDEST DUP3 MLOAD DUP7 PUSH1 0x1 DUP3 MUL DUP4 ADD GT PUSH5 0x100000000 DUP3 GT OR ISZERO PUSH2 0x46E JUMPI PUSH1 0x0 DUP1 REVERT JUMPDEST DUP1 DUP4 MSTORE PUSH1 0x20 DUP4 ADD SWAP3 POP POP POP SWAP1 DUP1 MLOAD SWAP1 PUSH1 0x20 ADD SWAP1 DUP1 DUP4 DUP4 PUSH1 0x0 JUMPDEST DUP4 DUP2 LT ISZERO PUSH2 0x4A2 JUMPI DUP1 DUP3 ADD MLOAD DUP2 DUP5 ADD MSTORE PUSH1 0x20 DUP2 ADD SWAP1 POP PUSH2 0x487 JUMP JUMPDEST POP POP POP POP SWAP1 POP SWAP1 DUP2 ADD SWAP1 PUSH1 0x1F AND DUP1 ISZERO PUSH2 0x4CF JUMPI DUP1 DUP3 SUB DUP1 MLOAD PUSH1 0x1 DUP4 PUSH1 0x20 SUB PUSH2 0x100 EXP SUB NOT AND DUP2 MSTORE PUSH1 0x20 ADD SWAP2 POP JUMPDEST POP PUSH1 0x40 MSTORE POP POP POP JUMPDEST SWAP3 POP POP POP SWAP2 SWAP1 POP JUMP INVALID LOG2 PUSH5 0x6970667358 0x22 SLT KECCAK256 PUSH15 0xB9056302C3F45B994A0D558BA7888C 0xB4 STOP 0xE7 PUSH25 0x40CF61256CEADF3BC2728C8464736F6C634300060C00330000 "
				},
				"gasEstimates": {
					"creation": {
						"codeDepositCost": "260400",
						"executionCost": "300",
						"totalCost": "260700"
					},
					"external": {
						"getData(address)": "infinite",
						"safeDecimals(address)": "infinite"
					},
					"internal": {
						"safeName(contract IERC20)": "infinite",
						"safeSymbol(contract IERC20)": "infinite",
						"safeTransfer(contract IERC20,address,uint256)": "infinite",
						"safeTransferFrom(contract IERC20,address,uint256)": "infinite"
					}
				},
				"methodIdentifiers": {
					"getData(address)": "38266b22",
					"safeDecimals(address)": "be3dcf62"
				}
			},
			"userdoc": {
				"kind": "user",
				"methods": {},
				"version": 1
			}
		}
	}
}