{
	"data": {
		"bytecode": {
			"linkReferences": {},
			"object": "608060405234801561001057600080fd5b506101dc806100206000396000f3fe608060405234801561001057600080fd5b50600436106100365760003560e01c8063219f51271461003b578063863fe4ab146100f9575b600080fd5b61007e6004803603604081101561005157600080fd5b81019080803567ffffffffffffffff169060200190929190803560ff169060200190929190505050610117565b6040518080602001828103825283818151815260200191508051906020019080838360005b838110156100be5780820151818401526020810190506100a3565b50505050905090810190601f1680156100eb5780820380516001836020036101000a031916815260200191505b509250505060405180910390f35b61010161012b565b6040518082815260200191505060405180910390f35b60606101238383610133565b905092915050565b630100600081565b606060008260ff1663010060001790506060600e6040519080825280601f01601f1916602001820160405280156101795781602001600182028036833780820191505090505b5090506000600e82019050858152600881039050828152600681039050600e81528193505050509291505056fea2646970667358221220db42611706d9721528bfce9e3a637647456fdd1790c81b4a7040a6b19bf336d664736f6c63430006040033",
			"opcodes": "PUSH1 0x80 PUSH1 0x40 MSTORE CALLVALUE DUP1 ISZERO PUSH2 0x10 JUMPI PUSH1 0x0 DUP1 REVERT JUMPDEST POP PUSH2 0x1DC DUP1 PUSH2 0x20 PUSH1 0x0 CODECOPY PUSH1 0x0 RETURN INVALID PUSH1 0x80 PUSH1 0x40 MSTORE CALLVALUE DUP1 ISZERO PUSH2 0x10 JUMPI PUSH1 0x0 DUP1 REVERT JUMPDEST POP PUSH1 0x4 CALLDATASIZE LT PUSH2 0x36 JUMPI PUSH1 0x0 CALLDATALOAD PUSH1 0xE0 SHR DUP1 PUSH4 0x219F5127 EQ PUSH2 0x3B JUMPI DUP1 PUSH4 0x863FE4AB EQ PUSH2 0xF9 JUMPI JUMPDEST PUSH1 0x0 DUP1 REVERT JUMPDEST PUSH2 0x7E PUSH1 0x4 DUP1 CALLDATASIZE SUB PUSH1 0x40 DUP2 LT ISZERO PUSH2 0x51 JUMPI PUSH1 0x0 DUP1 REVERT JUMPDEST DUP2 ADD SWAP1 DUP1 DUP1 CALLDATALOAD PUSH8 0xFFFFFFFFFFFFFFFF AND SWAP1 PUSH1 0x20 ADD SWAP1 SWAP3 SWAP2 SWAP1 DUP1 CALLDATALOAD PUSH1 0xFF AND SWAP1 PUSH1 0x20 ADD SWAP1 SWAP3 SWAP2 SWAP1 POP POP POP PUSH2 0x117 JUMP JUMPDEST PUSH1 0x40 MLOAD DUP1 DUP1 PUSH1 0x20 ADD DUP3 DUP2 SUB DUP3 MSTORE DUP4 DUP2 DUP2 MLOAD DUP2 MSTORE PUSH1 0x20 ADD SWAP2 POP DUP1 MLOAD SWAP1 PUSH1 0x20 ADD SWAP1 DUP1 DUP4 DUP4 PUSH1 0x0 JUMPDEST DUP4 DUP2 LT ISZERO PUSH2 0xBE JUMPI DUP1 DUP3 ADD MLOAD DUP2 DUP5 ADD MSTORE PUSH1 0x20 DUP2 ADD SWAP1 POP PUSH2 0xA3 JUMP JUMPDEST POP POP POP POP SWAP1 POP SWAP1 DUP2 ADD SWAP1 PUSH1 0x1F AND DUP1 ISZERO PUSH2 0xEB JUMPI DUP1 DUP3 SUB DUP1 MLOAD PUSH1 0x1 DUP4 PUSH1 0x20 SUB PUSH2 0x100 EXP SUB NOT AND DUP2 MSTORE PUSH1 0x20 ADD SWAP2 POP JUMPDEST POP SWAP3 POP POP POP PUSH1 0x40 MLOAD DUP1 SWAP2 SUB SWAP1 RETURN JUMPDEST PUSH2 0x101 PUSH2 0x12B JUMP JUMPDEST PUSH1 0x40 MLOAD DUP1 DUP3 DUP2 MSTORE PUSH1 0x20 ADD SWAP2 POP POP PUSH1 0x40 MLOAD DUP1 SWAP2 SUB SWAP1 RETURN JUMPDEST PUSH1 0x60 PUSH2 0x123 DUP4 DUP4 PUSH2 0x133 JUMP JUMPDEST SWAP1 POP SWAP3 SWAP2 POP POP JUMP JUMPDEST PUSH4 0x1006000 DUP2 JUMP JUMPDEST PUSH1 0x60 PUSH1 0x0 DUP3 PUSH1 0xFF AND PUSH4 0x1006000 OR SWAP1 POP PUSH1 0x60 PUSH1 0xE PUSH1 0x40 MLOAD SWAP1 DUP1 DUP3 MSTORE DUP1 PUSH1 0x1F ADD PUSH1 0x1F NOT AND PUSH1 0x20 ADD DUP3 ADD PUSH1 0x40 MSTORE DUP1 ISZERO PUSH2 0x179 JUMPI DUP2 PUSH1 0x20 ADD PUSH1 0x1 DUP3 MUL DUP1 CALLDATASIZE DUP4 CALLDATACOPY DUP1 DUP3 ADD SWAP2 POP POP SWAP1 POP JUMPDEST POP SWAP1 POP PUSH1 0x0 PUSH1 0xE DUP3 ADD SWAP1 POP DUP6 DUP2 MSTORE PUSH1 0x8 DUP2 SUB SWAP1 POP DUP3 DUP2 MSTORE PUSH1 0x6 DUP2 SUB SWAP1 POP PUSH1 0xE DUP2 MSTORE DUP2 SWAP4 POP POP POP POP SWAP3 SWAP2 POP POP JUMP INVALID LOG2 PUSH5 0x6970667358 0x22 SLT KECCAK256 0xDB TIMESTAMP PUSH2 0x1706 0xD9 PUSH19 0x1528BFCE9E3A637647456FDD1790C81B4A7040 0xA6 0xB1 SWAP12 RETURN CALLDATASIZE 0xD6 PUSH5 0x736F6C6343 STOP MOD DIV STOP CALLER "
		},
		"gasEstimates": {
			"creation": {
				"codeDepositCost": "95200",
				"executionCost": "141",
				"totalCost": "95341"
			},
			"external": {
				"CROSS_CHAIN_KEY_PREFIX()": "205",
				"getDataGanerateKey(uint64,uint8)": "infinite"
			},
			"internal": {
				"generateKey(uint64,uint8)": "infinite"
			}
		},
		"methodIdentifiers": {
			"CROSS_CHAIN_KEY_PREFIX()": "863fe4ab",
			"getDataGanerateKey(uint64,uint8)": "219f5127"
		}
	},
	"abi": [
		{
			"inputs": [],
			"name": "CROSS_CHAIN_KEY_PREFIX",
			"outputs": [
				{
					"internalType": "uint256",
					"name": "",
					"type": "uint256"
				}
			],
			"stateMutability": "view",
			"type": "function"
		},
		{
			"inputs": [
				{
					"internalType": "uint64",
					"name": "_sequence",
					"type": "uint64"
				},
				{
					"internalType": "uint8",
					"name": "_channelID",
					"type": "uint8"
				}
			],
			"name": "getDataGanerateKey",
			"outputs": [
				{
					"internalType": "bytes",
					"name": "",
					"type": "bytes"
				}
			],
			"stateMutability": "view",
			"type": "function"
		}
	]
}